{
  "opcodeHash": "0x7e97c56554d2d0a7aac64333628dd3fba511e530040643f43b9582f2165f9ac1",
  "metalessHash": "0xbebaba3aa252845ede857d43d36a66aa2a5ae37d6816e23868dad3f141e72907",
  "runtimeHash": "0x2ec0a2298432b87e3da62f6b976b5d90c6bebc950134e7b0999657e093862c85",
  "encodedMetadata": [
    {
      "ipfs": "/ipfs/QmS6EYEA6Utd6e8yodNYALpjt3gKKGodvpM8msELhRoZ4T",
      "solc": "0.8.7"
    }
  ],
  "abi": [
    {
      "inputs": [],
      "stateMutability": "nonpayable",
      "type": "constructor"
    },
    {
      "anonymous": false,
      "inputs": [
        {
          "indexed": false,
          "internalType": "uint256",
          "name": "x",
          "type": "uint256"
        },
        {
          "indexed": false,
          "internalType": "address",
          "name": "player",
          "type": "address"
        }
      ],
      "name": "Resultado",
      "type": "event"
    },
    {
      "inputs": [],
      "name": "admin",
      "outputs": [
        {
          "internalType": "address payable",
          "name": "",
          "type": "address"
        }
      ],
      "stateMutability": "view",
      "type": "function"
    },
    {
      "inputs": [],
      "name": "bet",
      "outputs": [
        {
          "internalType": "bytes32",
          "name": "requestId",
          "type": "bytes32"
        }
      ],
      "stateMutability": "payable",
      "type": "function"
    },
    {
      "inputs": [],
      "name": "betMin",
      "outputs": [
        {
          "internalType": "uint256",
          "name": "",
          "type": "uint256"
        }
      ],
      "stateMutability": "view",
      "type": "function"
    },
    {
      "inputs": [],
      "name": "casa",
      "outputs": [
        {
          "internalType": "uint256",
          "name": "",
          "type": "uint256"
        }
      ],
      "stateMutability": "view",
      "type": "function"
    },
    {
      "inputs": [],
      "name": "fee",
      "outputs": [
        {
          "internalType": "uint256",
          "name": "",
          "type": "uint256"
        }
      ],
      "stateMutability": "view",
      "type": "function"
    },
    {
      "inputs": [],
      "name": "gameId",
      "outputs": [
        {
          "internalType": "uint256",
          "name": "",
          "type": "uint256"
        }
      ],
      "stateMutability": "view",
      "type": "function"
    },
    {
      "inputs": [
        {
          "internalType": "uint256",
          "name": "",
          "type": "uint256"
        }
      ],
      "name": "games",
      "outputs": [
        {
          "internalType": "uint256",
          "name": "id",
          "type": "uint256"
        },
        {
          "internalType": "uint256",
          "name": "resultado",
          "type": "uint256"
        },
        {
          "internalType": "uint256",
          "name": "prize",
          "type": "uint256"
        },
        {
          "internalType": "address payable",
          "name": "player",
          "type": "address"
        }
      ],
      "stateMutability": "view",
      "type": "function"
    },
    {
      "inputs": [],
      "name": "lastGameId",
      "outputs": [
        {
          "internalType": "uint256",
          "name": "",
          "type": "uint256"
        }
      ],
      "stateMutability": "view",
      "type": "function"
    },
    {
      "inputs": [],
      "name": "lastId",
      "outputs": [
        {
          "internalType": "bytes32",
          "name": "",
          "type": "bytes32"
        }
      ],
      "stateMutability": "view",
      "type": "function"
    },
    {
      "inputs": [
        {
          "internalType": "bytes32",
          "name": "",
          "type": "bytes32"
        }
      ],
      "name": "listaJogadores",
      "outputs": [
        {
          "internalType": "uint256",
          "name": "id",
          "type": "uint256"
        },
        {
          "internalType": "uint256",
          "name": "resultado",
          "type": "uint256"
        },
        {
          "internalType": "uint256",
          "name": "prize",
          "type": "uint256"
        },
        {
          "internalType": "address payable",
          "name": "player",
          "type": "address"
        }
      ],
      "stateMutability": "view",
      "type": "function"
    },
    {
      "inputs": [],
      "name": "percentualPremio",
      "outputs": [
        {
          "internalType": "uint256",
          "name": "",
          "type": "uint256"
        }
      ],
      "stateMutability": "view",
      "type": "function"
    },
    {
      "inputs": [],
      "name": "prize",
      "outputs": [
        {
          "internalType": "uint256",
          "name": "",
          "type": "uint256"
        }
      ],
      "stateMutability": "view",
      "type": "function"
    },
    {
      "inputs": [],
      "name": "randomResult",
      "outputs": [
        {
          "internalType": "uint256",
          "name": "",
          "type": "uint256"
        }
      ],
      "stateMutability": "view",
      "type": "function"
    },
    {
      "inputs": [
        {
          "internalType": "bytes32",
          "name": "requestId",
          "type": "bytes32"
        },
        {
          "internalType": "uint256",
          "name": "randomness",
          "type": "uint256"
        }
      ],
      "name": "rawFulfillRandomness",
      "outputs": [],
      "stateMutability": "nonpayable",
      "type": "function"
    },
    {
      "inputs": [
        {
          "internalType": "uint256",
          "name": "_percentualPremio",
          "type": "uint256"
        },
        {
          "internalType": "uint256",
          "name": "_fee",
          "type": "uint256"
        },
        {
          "internalType": "uint256",
          "name": "_betMin",
          "type": "uint256"
        }
      ],
      "name": "setVar",
      "outputs": [],
      "stateMutability": "nonpayable",
      "type": "function"
    },
    {
      "inputs": [
        {
          "internalType": "uint256",
          "name": "random",
          "type": "uint256"
        },
        {
          "internalType": "bytes32",
          "name": "requestId",
          "type": "bytes32"
        }
      ],
      "name": "veredito",
      "outputs": [],
      "stateMutability": "payable",
      "type": "function"
    },
    {
      "inputs": [
        {
          "internalType": "uint256",
          "name": "amount",
          "type": "uint256"
        }
      ],
      "name": "withdrawEther",
      "outputs": [],
      "stateMutability": "payable",
      "type": "function"
    },
    {
      "inputs": [
        {
          "internalType": "uint256",
          "name": "amount",
          "type": "uint256"
        }
      ],
      "name": "withdrawLink",
      "outputs": [],
      "stateMutability": "nonpayable",
      "type": "function"
    }
  ],
  "bytecode": {
    "object": "60c060405234801561001057600080fd5b5073f0d54349addcf704f77ae15b96510dea15cb795273514910771af9ca656af840dff83e8264ecf986ca8173ffffffffffffffffffffffffffffffffffffffff1660a08173ffffffffffffffffffffffffffffffffffffffff1660601b815250508073ffffffffffffffffffffffffffffffffffffffff1660808173ffffffffffffffffffffffffffffffffffffffff1660601b81525050505033600b60006101000a81548173ffffffffffffffffffffffffffffffffffffffff021916908373ffffffffffffffffffffffffffffffffffffffff1602179055507faa77729d3466ca35ae8d28b3bbac7cc36a5031efdc430821c02bc31a238af44560001b600181905550671bc16d674ec80000600781905550603c6006819055506904ee2d6d415b85acef8160088190555060805160601c60a05160601c611d9d61017e60003960008181610e8901526110a701526000818161045d015281816109a7015261106b0152611d9d6000f3fe6080604052600436106101095760003560e01c8063b6834a3a11610095578063d6ae5b4c11610064578063d6ae5b4c14610336578063d7c81b5514610361578063ddca3f431461038c578063e3ac5d26146103b7578063f851a440146103e257610109565b8063b6834a3a14610277578063b92e4981146102b7578063bee14eb0146102e2578063c1292cc31461030b57610109565b80633ee9d648116100dc5780633ee9d648146101b357806342619f66146101de5780637a8042bd146102095780637e7f0ea51461023257806394985ddd1461024e57610109565b806311610c251461010e578063117a5b901461012c5780631683ab6d1461016c5780633bed33ce14610197575b600080fd5b61011661040d565b60405161012391906116da565b60405180910390f35b34801561013857600080fd5b50610153600480360381019061014e919061135a565b610774565b60405161016394939291906118a7565b60405180910390f35b34801561017857600080fd5b506101816107c4565b60405161018e9190611863565b60405180910390f35b6101b160048036038101906101ac919061135a565b6107ca565b005b3480156101bf57600080fd5b506101c8610909565b6040516101d59190611863565b60405180910390f35b3480156101ea57600080fd5b506101f361090f565b6040516102009190611863565b60405180910390f35b34801561021557600080fd5b50610230600480360381019061022b919061135a565b610915565b005b61024c600480360381019061024791906113b4565b610a94565b005b34801561025a57600080fd5b506102756004803603810190610270919061131a565b610e87565b005b34801561028357600080fd5b5061029e600480360381019061029991906112ed565b610f23565b6040516102ae94939291906118a7565b60405180910390f35b3480156102c357600080fd5b506102cc610f73565b6040516102d99190611863565b60405180910390f35b3480156102ee57600080fd5b50610309600480360381019061030491906113f4565b610f79565b005b34801561031757600080fd5b50610320611023565b60405161032d91906116da565b60405180910390f35b34801561034257600080fd5b5061034b611029565b6040516103589190611863565b60405180910390f35b34801561036d57600080fd5b5061037661102f565b6040516103839190611863565b60405180910390f35b34801561039857600080fd5b506103a1611035565b6040516103ae9190611863565b60405180910390f35b3480156103c357600080fd5b506103cc61103b565b6040516103d99190611863565b60405180910390f35b3480156103ee57600080fd5b506103f7611041565b6040516104049190611658565b60405180910390f35b600080600080600854341015610458576040517f08c379a000000000000000000000000000000000000000000000000000000000815260040161044f906117c3565b60405180910390fd5b6007547f000000000000000000000000000000000000000000000000000000000000000073ffffffffffffffffffffffffffffffffffffffff166370a08231306040518263ffffffff1660e01b81526004016104b4919061163d565b60206040518083038186803b1580156104cc57600080fd5b505afa1580156104e0573d6000803e3d6000fd5b505050506040513d601f19601f820116820180604052508101906105049190611387565b1015610545576040517f08c379a000000000000000000000000000000000000000000000000000000000815260040161053c90611763565b60405180910390fd5b34471015610588576040517f08c379a000000000000000000000000000000000000000000000000000000000815260040161057f906117a3565b60405180910390fd5b600654606434610598919061196f565b6105a291906119a0565b925082346105b091906119fa565b9150826002546105c09190611919565b600281905550816003546105d49190611919565b6003819055506105e8600154600754611067565b905060405180608001604052806009548152602001600081526020013481526020013373ffffffffffffffffffffffffffffffffffffffff16815250600c6000600954815260200190815260200160002060008201518160000155602082015181600101556040820151816002015560608201518160030160006101000a81548173ffffffffffffffffffffffffffffffffffffffff021916908373ffffffffffffffffffffffffffffffffffffffff16021790555090505060405180608001604052806009548152602001600081526020013481526020013373ffffffffffffffffffffffffffffffffffffffff16815250600d600083815260200190815260200160002060008201518160000155602082015181600101556040820151816002015560608201518160030160006101000a81548173ffffffffffffffffffffffffffffffffffffffff021916908373ffffffffffffffffffffffffffffffffffffffff16021790555090505060016009546107659190611919565b60098190555080935050505090565b600c6020528060005260406000206000915090508060000154908060010154908060020154908060030160009054906101000a900473ffffffffffffffffffffffffffffffffffffffff16905084565b60065481565b600b60009054906101000a900473ffffffffffffffffffffffffffffffffffffffff1673ffffffffffffffffffffffffffffffffffffffff163373ffffffffffffffffffffffffffffffffffffffff161461085a576040517f08c379a000000000000000000000000000000000000000000000000000000000815260040161085190611843565b60405180910390fd5b8047101561089d576040517f08c379a000000000000000000000000000000000000000000000000000000000815260040161089490611783565b60405180910390fd5b600b60009054906101000a900473ffffffffffffffffffffffffffffffffffffffff1673ffffffffffffffffffffffffffffffffffffffff166108fc829081150290604051600060405180830381858888f19350505050158015610905573d6000803e3d6000fd5b5050565b600a5481565b60045481565b600b60009054906101000a900473ffffffffffffffffffffffffffffffffffffffff1673ffffffffffffffffffffffffffffffffffffffff163373ffffffffffffffffffffffffffffffffffffffff16146109a5576040517f08c379a000000000000000000000000000000000000000000000000000000000815260040161099c90611843565b60405180910390fd5b7f000000000000000000000000000000000000000000000000000000000000000073ffffffffffffffffffffffffffffffffffffffff1663a9059cbb33836040518363ffffffff1660e01b8152600401610a00929190611673565b602060405180830381600087803b158015610a1a57600080fd5b505af1158015610a2e573d6000803e3d6000fd5b505050506040513d601f19601f82011682018060405250810190610a5291906112c0565b610a91576040517f08c379a0000000000000000000000000000000000000000000000000000000008152600401610a88906117e3565b60405180910390fd5b50565b73f0d54349addcf704f77ae15b96510dea15cb795273ffffffffffffffffffffffffffffffffffffffff163373ffffffffffffffffffffffffffffffffffffffff1614610b16576040517f08c379a0000000000000000000000000000000000000000000000000000000008152600401610b0d90611823565b60405180910390fd5b6000806000806000809450606f871415610b4857600a6064600254610b3b919061196f565b610b4591906119a0565b94505b60de871415610b6f57600a6064600254610b62919061196f565b610b6c91906119a0565b94505b61014d871415610b9757600a6064600254610b8a919061196f565b610b9491906119a0565b94505b6101bc871415610bbf57600a6064600254610bb2919061196f565b610bbc91906119a0565b94505b61022b871415610be75760146064600254610bda919061196f565b610be491906119a0565b94505b61029a871415610c0f5760146064600254610c02919061196f565b610c0c91906119a0565b94505b610309871415610c3757600a6064600254610c2a919061196f565b610c3491906119a0565b94505b610378871415610c475760025494505b6103e7871415610c6f5760146064600254610c62919061196f565b610c6c91906119a0565b94505b60008511610d0c57606487610c84919061196f565b9250600a606484610c9591906119a0565b88610ca091906119fa565b610caa919061196f565b9150600a82610cb991906119a0565b606484610cc691906119a0565b610cd09190611919565b87610cdb91906119fa565b905081831480610cea57508083145b80610cf457508082145b15610d0b576064600254610d08919061196f565b94505b5b600254851115610d1c5760025494505b6000851115610db757600d600087815260200190815260200160002060030160009054906101000a900473ffffffffffffffffffffffffffffffffffffffff1673ffffffffffffffffffffffffffffffffffffffff166108fc869081150290604051600060405180830381858888f19350505050158015610da1573d6000803e3d6000fd5b5084600254610db091906119fa565b6002819055505b600d600087815260200190815260200160002060000154935086600c60008681526020019081526020016000206001018190555084600c600086815260200190815260200160002060020181905550600954600a819055507f96bdcfdcec6cd21a46cb1bb256ca9cc8064fc9f96e1fbc41da52efc25e1994a087600d600089815260200190815260200160002060030160009054906101000a900473ffffffffffffffffffffffffffffffffffffffff16604051610e7692919061187e565b60405180910390a150505050505050565b7f000000000000000000000000000000000000000000000000000000000000000073ffffffffffffffffffffffffffffffffffffffff163373ffffffffffffffffffffffffffffffffffffffff1614610f15576040517f08c379a0000000000000000000000000000000000000000000000000000000008152600401610f0c90611803565b60405180910390fd5b610f1f82826111c6565b5050565b600d6020528060005260406000206000915090508060000154908060010154908060020154908060030160009054906101000a900473ffffffffffffffffffffffffffffffffffffffff16905084565b60085481565b600b60009054906101000a900473ffffffffffffffffffffffffffffffffffffffff1673ffffffffffffffffffffffffffffffffffffffff163373ffffffffffffffffffffffffffffffffffffffff1614611009576040517f08c379a000000000000000000000000000000000000000000000000000000000815260040161100090611843565b60405180910390fd5b826006819055508160078190555080600881905550505050565b60055481565b60035481565b60095481565b60075481565b60025481565b600b60009054906101000a900473ffffffffffffffffffffffffffffffffffffffff1681565b60007f000000000000000000000000000000000000000000000000000000000000000073ffffffffffffffffffffffffffffffffffffffff16634000aea07f0000000000000000000000000000000000000000000000000000000000000000848660006040516020016110db9291906116f5565b6040516020818303038152906040526040518463ffffffff1660e01b81526004016111089392919061169c565b602060405180830381600087803b15801561112257600080fd5b505af1158015611136573d6000803e3d6000fd5b505050506040513d601f19601f8201168201806040525081019061115a91906112c0565b50600061117c84600030600080898152602001908152602001600020546111fd565b905060016000808681526020019081526020016000205461119d9190611919565b600080868152602001908152602001600020819055506111bd8482611239565b91505092915050565b60016103e6826111d69190611b0f565b6111e09190611919565b600481905550816005819055506111f960045483610a94565b5050565b600084848484604051602001611216949392919061171e565b6040516020818303038152906040528051906020012060001c9050949350505050565b6000828260405160200161124e929190611611565b60405160208183030381529060405280519060200120905092915050565b60008151905061127b81611d22565b92915050565b60008135905061129081611d39565b92915050565b6000813590506112a581611d50565b92915050565b6000815190506112ba81611d50565b92915050565b6000602082840312156112d6576112d5611b9e565b5b60006112e48482850161126c565b91505092915050565b60006020828403121561130357611302611b9e565b5b600061131184828501611281565b91505092915050565b6000806040838503121561133157611330611b9e565b5b600061133f85828601611281565b925050602061135085828601611296565b9150509250929050565b6000602082840312156113705761136f611b9e565b5b600061137e84828501611296565b91505092915050565b60006020828403121561139d5761139c611b9e565b5b60006113ab848285016112ab565b91505092915050565b600080604083850312156113cb576113ca611b9e565b5b60006113d985828601611296565b92505060206113ea85828601611281565b9150509250929050565b60008060006060848603121561140d5761140c611b9e565b5b600061141b86828701611296565b935050602061142c86828701611296565b925050604061143d86828701611296565b9150509250925092565b61145081611a92565b82525050565b61145f81611a40565b82525050565b61146e81611a2e565b82525050565b61147d81611a5e565b82525050565b61149461148f82611a5e565b611afb565b82525050565b60006114a5826118ec565b6114af81856118f7565b93506114bf818560208601611ac8565b6114c881611ba3565b840191505092915050565b60006114e0600d83611908565b91506114eb82611bb4565b602082019050919050565b6000611503602783611908565b915061150e82611bdd565b604082019050919050565b6000611526601c83611908565b915061153182611c2c565b602082019050919050565b6000611549601283611908565b915061155482611c55565b602082019050919050565b600061156c601983611908565b915061157782611c7e565b602082019050919050565b600061158f601f83611908565b915061159a82611ca7565b602082019050919050565b60006115b2602083611908565b91506115bd82611cd0565b602082019050919050565b60006115d5601783611908565b91506115e082611cf9565b602082019050919050565b6115f481611a88565b82525050565b61160b61160682611a88565b611b05565b82525050565b600061161d8285611483565b60208201915061162d82846115fa565b6020820191508190509392505050565b60006020820190506116526000830184611465565b92915050565b600060208201905061166d6000830184611456565b92915050565b60006040820190506116886000830185611465565b61169560208301846115eb565b9392505050565b60006060820190506116b16000830186611465565b6116be60208301856115eb565b81810360408301526116d0818461149a565b9050949350505050565b60006020820190506116ef6000830184611474565b92915050565b600060408201905061170a6000830185611474565b61171760208301846115eb565b9392505050565b60006080820190506117336000830187611474565b61174060208301866115eb565b61174d6040830185611465565b61175a60608301846115eb565b95945050505050565b6000602082019050818103600083015261177c816114d3565b9050919050565b6000602082019050818103600083015261179c816114f6565b9050919050565b600060208201905081810360008301526117bc81611519565b9050919050565b600060208201905081810360008301526117dc8161153c565b9050919050565b600060208201905081810360008301526117fc8161155f565b9050919050565b6000602082019050818103600083015261181c81611582565b9050919050565b6000602082019050818103600083015261183c816115a5565b9050919050565b6000602082019050818103600083015261185c816115c8565b9050919050565b600060208201905061187860008301846115eb565b92915050565b600060408201905061189360008301856115eb565b6118a06020830184611447565b9392505050565b60006080820190506118bc60008301876115eb565b6118c960208301866115eb565b6118d660408301856115eb565b6118e36060830184611456565b95945050505050565b600081519050919050565b600082825260208201905092915050565b600082825260208201905092915050565b600061192482611a88565b915061192f83611a88565b9250827fffffffffffffffffffffffffffffffffffffffffffffffffffffffffffffffff0382111561196457611963611b40565b5b828201905092915050565b600061197a82611a88565b915061198583611a88565b92508261199557611994611b6f565b5b828204905092915050565b60006119ab82611a88565b91506119b683611a88565b9250817fffffffffffffffffffffffffffffffffffffffffffffffffffffffffffffffff04831182151516156119ef576119ee611b40565b5b828202905092915050565b6000611a0582611a88565b9150611a1083611a88565b925082821015611a2357611a22611b40565b5b828203905092915050565b6000611a3982611a68565b9050919050565b6000611a4b82611a68565b9050919050565b60008115159050919050565b6000819050919050565b600073ffffffffffffffffffffffffffffffffffffffff82169050919050565b6000819050919050565b6000611a9d82611aa4565b9050919050565b6000611aaf82611ab6565b9050919050565b6000611ac182611a68565b9050919050565b60005b83811015611ae6578082015181840152602081019050611acb565b83811115611af5576000848401525b50505050565b6000819050919050565b6000819050919050565b6000611b1a82611a88565b9150611b2583611a88565b925082611b3557611b34611b6f565b5b828206905092915050565b7f4e487b7100000000000000000000000000000000000000000000000000000000600052601160045260246000fd5b7f4e487b7100000000000000000000000000000000000000000000000000000000600052601260045260246000fd5b600080fd5b6000601f19601f8301169050919050565b7f66616c74616e646f206c696e6b00000000000000000000000000000000000000600082015250565b7f4572726f722c20636f6e74726163742068617320696e737566666963656e742060008201527f62616c616e636500000000000000000000000000000000000000000000000000602082015250565b7f4572726f722c20696e737566666963656e74206265742076616c756500000000600082015250565b7f4572726f722c2062657420746f6f206c6f770000000000000000000000000000600082015250565b7f4572726f722c20756e61626c6520746f207472616e7366657200000000000000600082015250565b7f4f6e6c7920565246436f6f7264696e61746f722063616e2066756c66696c6c00600082015250565b7f6f6e6c7920564652432063616e2063616c6c20746869732066756e6374696f6e600082015250565b7f63616c6c6572206973206e6f74207468652061646d696e000000000000000000600082015250565b611d2b81611a52565b8114611d3657600080fd5b50565b611d4281611a5e565b8114611d4d57600080fd5b50565b611d5981611a88565b8114611d6457600080fd5b5056fea2646970667358221220a2e158a77ee4b6b436b2546f1608e5f9511f26a95163c755bfdb29d99b59cb0764736f6c63430008070033"
  }
}