{"compiler":"v0.6.12+commit.27d51765","opcodeHash":"0x0637bb1850dd728724e492dad05c230affffe69f017fe7ac44b4d0a96c1791ee","metalessHash":"0xac0b361daa6d9d25bb5eade3aaf58812aa1a3f77e7404ab9a06044541cde02fc","runtimeHash":"0x61a16925fa30c920755ec64af2080d940ffc52f5867ae02f39a6e803939b03cd","encodedMetadata":[{"ipfs":"/ipfs/QmPDbThBKLbiZb5S6bp4hFxu3qTczX7SSWMrFTuuuQnSV9","solc":"0.6.12"}],"abi":[{"inputs":[],"stateMutability":"nonpayable","type":"constructor"},{"anonymous":false,"inputs":[{"indexed":true,"internalType":"address","name":"owner","type":"address"},{"indexed":true,"internalType":"address","name":"spender","type":"address"},{"indexed":false,"internalType":"uint256","name":"value","type":"uint256"}],"name":"Approval","type":"event"},{"anonymous":false,"inputs":[{"indexed":true,"internalType":"address","name":"previousOwner","type":"address"},{"indexed":true,"internalType":"address","name":"newOwner","type":"address"}],"name":"OwnershipTransferred","type":"event"},{"anonymous":false,"inputs":[{"indexed":true,"internalType":"address","name":"from","type":"address"},{"indexed":true,"internalType":"address","name":"to","type":"address"},{"indexed":false,"internalType":"uint256","name":"value","type":"uint256"}],"name":"Transfer","type":"event"},{"inputs":[{"internalType":"address","name":"owner","type":"address"},{"internalType":"address","name":"spender","type":"address"}],"name":"allowance","outputs":[{"internalType":"uint256","name":"","type":"uint256"}],"stateMutability":"view","type":"function"},{"inputs":[{"internalType":"address","name":"spender","type":"address"},{"internalType":"uint256","name":"amount","type":"uint256"}],"name":"approve","outputs":[{"internalType":"bool","name":"","type":"bool"}],"stateMutability":"nonpayable","type":"function"},{"inputs":[{"internalType":"address","name":"account","type":"address"}],"name":"balanceOf","outputs":[{"internalType":"uint256","name":"","type":"uint256"}],"stateMutability":"view","type":"function"},{"inputs":[],"name":"decimals","outputs":[{"internalType":"uint8","name":"","type":"uint8"}],"stateMutability":"view","type":"function"},{"inputs":[{"internalType":"address","name":"spender","type":"address"},{"internalType":"uint256","name":"subtractedValue","type":"uint256"}],"name":"decreaseAllowance","outputs":[{"internalType":"bool","name":"","type":"bool"}],"stateMutability":"nonpayable","type":"function"},{"inputs":[{"internalType":"address","name":"account","type":"address"}],"name":"excludeAccount","outputs":[],"stateMutability":"nonpayable","type":"function"},{"inputs":[{"internalType":"address","name":"account","type":"address"}],"name":"includeAccount","outputs":[],"stateMutability":"nonpayable","type":"function"},{"inputs":[{"internalType":"address","name":"spender","type":"address"},{"internalType":"uint256","name":"addedValue","type":"uint256"}],"name":"increaseAllowance","outputs":[{"internalType":"bool","name":"","type":"bool"}],"stateMutability":"nonpayable","type":"function"},{"inputs":[{"internalType":"address","name":"account","type":"address"}],"name":"isExcluded","outputs":[{"internalType":"bool","name":"","type":"bool"}],"stateMutability":"view","type":"function"},{"inputs":[],"name":"name","outputs":[{"internalType":"string","name":"","type":"string"}],"stateMutability":"view","type":"function"},{"inputs":[],"name":"owner","outputs":[{"internalType":"address","name":"","type":"address"}],"stateMutability":"view","type":"function"},{"inputs":[{"internalType":"uint256","name":"tAmount","type":"uint256"}],"name":"reflect","outputs":[],"stateMutability":"nonpayable","type":"function"},{"inputs":[{"internalType":"uint256","name":"tAmount","type":"uint256"},{"internalType":"bool","name":"deductTransferFee","type":"bool"}],"name":"reflectionFromToken","outputs":[{"internalType":"uint256","name":"","type":"uint256"}],"stateMutability":"view","type":"function"},{"inputs":[],"name":"renounceOwnership","outputs":[],"stateMutability":"nonpayable","type":"function"},{"inputs":[],"name":"symbol","outputs":[{"internalType":"string","name":"","type":"string"}],"stateMutability":"view","type":"function"},{"inputs":[{"internalType":"uint256","name":"rAmount","type":"uint256"}],"name":"tokenFromReflection","outputs":[{"internalType":"uint256","name":"","type":"uint256"}],"stateMutability":"view","type":"function"},{"inputs":[],"name":"totalBurn","outputs":[{"internalType":"uint256","name":"","type":"uint256"}],"stateMutability":"view","type":"function"},{"inputs":[],"name":"totalSupply","outputs":[{"internalType":"uint256","name":"","type":"uint256"}],"stateMutability":"view","type":"function"},{"inputs":[{"internalType":"address","name":"recipient","type":"address"},{"internalType":"uint256","name":"amount","type":"uint256"}],"name":"transfer","outputs":[{"internalType":"bool","name":"","type":"bool"}],"stateMutability":"nonpayable","type":"function"},{"inputs":[{"internalType":"address","name":"sender","type":"address"},{"internalType":"address","name":"recipient","type":"address"},{"internalType":"uint256","name":"amount","type":"uint256"}],"name":"transferFrom","outputs":[{"internalType":"bool","name":"","type":"bool"}],"stateMutability":"nonpayable","type":"function"},{"inputs":[{"internalType":"address","name":"newOwner","type":"address"}],"name":"transferOwnership","outputs":[],"stateMutability":"nonpayable","type":"function"}],"bytecode":{"object":"60806040526c01431e0fae6d7217caa0000000600019816200001d57fe5b06600019036006556040518060400160405280600d81526020017f44454c54412056415249414e5400000000000000000000000000000000000000815250600890805190602001906200007292919062000280565b506040518060400160405280600681526020017f44656c746156000000000000000000000000000000000000000000000000000081525060099080519060200190620000c092919062000280565b506012600a60006101000a81548160ff021916908360ff160217905550348015620000ea57600080fd5b506000620000fd6200027860201b60201c565b9050806000806101000a81548173ffffffffffffffffffffffffffffffffffffffff021916908373ffffffffffffffffffffffffffffffffffffffff1602179055508073ffffffffffffffffffffffffffffffffffffffff16600073ffffffffffffffffffffffffffffffffffffffff167f8be0079c531659141344cd1fd0a4f28419497f9722a3daafe3b4186f6b6457e060405160405180910390a35060065460016000620001b26200027860201b60201c565b73ffffffffffffffffffffffffffffffffffffffff1673ffffffffffffffffffffffffffffffffffffffff16815260200190815260200160002081905550620002006200027860201b60201c565b73ffffffffffffffffffffffffffffffffffffffff16600073ffffffffffffffffffffffffffffffffffffffff167fddf252ad1be2c89b69c2b068fc378daa952ba7f163c4a11628f55a4df523b3ef6c01431e0fae6d7217caa00000006040518082815260200191505060405180910390a362000326565b600033905090565b828054600181600116156101000203166002900490600052602060002090601f016020900481019282601f10620002c357805160ff1916838001178555620002f4565b82800160010185558215620002f4579182015b82811115620002f3578251825591602001919060010190620002d6565b5b50905062000303919062000307565b5090565b5b808211156200032257600081600090555060010162000308565b5090565b61387b80620003366000396000f3fe608060405234801561001057600080fd5b50600436106101375760003560e01c806370a08231116100b8578063a9059cbb1161007c578063a9059cbb146105a3578063cba0e99614610607578063dd62ed3e14610661578063f2cc0c18146106d9578063f2fde38b1461071d578063f84354f11461076157610137565b806370a0823114610426578063715018a61461047e5780638da5cb5b1461048857806395d89b41146104bc578063a457c2d71461053f57610137565b80632d838119116100ff5780632d838119146102f3578063313ce5671461033557806339509351146103565780633c9f861d146103ba5780634549b039146103d857610137565b8063053ab1821461013c57806306fdde031461016a578063095ea7b3146101ed57806318160ddd1461025157806323b872dd1461026f575b600080fd5b6101686004803603602081101561015257600080fd5b81019080803590602001909291905050506107a5565b005b610172610938565b6040518080602001828103825283818151815260200191508051906020019080838360005b838110156101b2578082015181840152602081019050610197565b50505050905090810190601f1680156101df5780820380516001836020036101000a031916815260200191505b509250505060405180910390f35b6102396004803603604081101561020357600080fd5b81019080803573ffffffffffffffffffffffffffffffffffffffff169060200190929190803590602001909291905050506109da565b60405180821515815260200191505060405180910390f35b6102596109f8565b6040518082815260200191505060405180910390f35b6102db6004803603606081101561028557600080fd5b81019080803573ffffffffffffffffffffffffffffffffffffffff169060200190929190803573ffffffffffffffffffffffffffffffffffffffff16906020019092919080359060200190929190505050610a0d565b60405180821515815260200191505060405180910390f35b61031f6004803603602081101561030957600080fd5b8101908080359060200190929190505050610ae6565b6040518082815260200191505060405180910390f35b61033d610b6a565b604051808260ff16815260200191505060405180910390f35b6103a26004803603604081101561036c57600080fd5b81019080803573ffffffffffffffffffffffffffffffffffffffff16906020019092919080359060200190929190505050610b81565b60405180821515815260200191505060405180910390f35b6103c2610c34565b6040518082815260200191505060405180910390f35b610410600480360360408110156103ee57600080fd5b8101908080359060200190929190803515159060200190929190505050610c3e565b6040518082815260200191505060405180910390f35b6104686004803603602081101561043c57600080fd5b81019080803573ffffffffffffffffffffffffffffffffffffffff169060200190929190505050610d04565b6040518082815260200191505060405180910390f35b610486610def565b005b610490610f75565b604051808273ffffffffffffffffffffffffffffffffffffffff16815260200191505060405180910390f35b6104c4610f9e565b6040518080602001828103825283818151815260200191508051906020019080838360005b838110156105045780820151818401526020810190506104e9565b50505050905090810190601f1680156105315780820380516001836020036101000a031916815260200191505b509250505060405180910390f35b61058b6004803603604081101561055557600080fd5b81019080803573ffffffffffffffffffffffffffffffffffffffff16906020019092919080359060200190929190505050611040565b60405180821515815260200191505060405180910390f35b6105ef600480360360408110156105b957600080fd5b81019080803573ffffffffffffffffffffffffffffffffffffffff1690602001909291908035906020019092919050505061110d565b60405180821515815260200191505060405180910390f35b6106496004803603602081101561061d57600080fd5b81019080803573ffffffffffffffffffffffffffffffffffffffff16906020019092919050505061112b565b60405180821515815260200191505060405180910390f35b6106c36004803603604081101561067757600080fd5b81019080803573ffffffffffffffffffffffffffffffffffffffff169060200190929190803573ffffffffffffffffffffffffffffffffffffffff169060200190929190505050611181565b6040518082815260200191505060405180910390f35b61071b600480360360208110156106ef57600080fd5b81019080803573ffffffffffffffffffffffffffffffffffffffff169060200190929190505050611208565b005b61075f6004803603602081101561073357600080fd5b81019080803573ffffffffffffffffffffffffffffffffffffffff169060200190929190505050611522565b005b6107a36004803603602081101561077757600080fd5b81019080803573ffffffffffffffffffffffffffffffffffffffff16906020019092919050505061172d565b005b60006107af611ab7565b9050600460008273ffffffffffffffffffffffffffffffffffffffff1673ffffffffffffffffffffffffffffffffffffffff16815260200190815260200160002060009054906101000a900460ff1615610854576040517f08c379a000000000000000000000000000000000000000000000000000000000815260040180806020018281038252602c8152602001806137f5602c913960400191505060405180910390fd5b600061085f83611abf565b5050505050505090506108ba81600160008573ffffffffffffffffffffffffffffffffffffffff1673ffffffffffffffffffffffffffffffffffffffff16815260200190815260200160002054611cfb90919063ffffffff16565b600160008473ffffffffffffffffffffffffffffffffffffffff1673ffffffffffffffffffffffffffffffffffffffff1681526020019081526020016000208190555061091281600654611cfb90919063ffffffff16565b60068190555061092d83600754611d4590919063ffffffff16565b600781905550505050565b606060088054600181600116156101000203166002900480601f0160208091040260200160405190810160405280929190818152602001828054600181600116156101000203166002900480156109d05780601f106109a5576101008083540402835291602001916109d0565b820191906000526020600020905b8154815290600101906020018083116109b357829003601f168201915b5050505050905090565b60006109ee6109e7611ab7565b8484611dcd565b6001905092915050565b60006c01431e0fae6d7217caa0000000905090565b6000610a1a848484611fc4565b610adb84610a26611ab7565b610ad68560405180606001604052806028815260200161375b60289139600360008b73ffffffffffffffffffffffffffffffffffffffff1673ffffffffffffffffffffffffffffffffffffffff1681526020019081526020016000206000610a8c611ab7565b73ffffffffffffffffffffffffffffffffffffffff1673ffffffffffffffffffffffffffffffffffffffff1681526020019081526020016000205461241d9092919063ffffffff16565b611dcd565b600190509392505050565b6000600654821115610b43576040517f08c379a000000000000000000000000000000000000000000000000000000000815260040180806020018281038252602a8152602001806136c8602a913960400191505060405180910390fd5b6000610b4d6124dd565b9050610b62818461250890919063ffffffff16565b915050919050565b6000600a60009054906101000a900460ff16905090565b6000610c2a610b8e611ab7565b84610c258560036000610b9f611ab7565b73ffffffffffffffffffffffffffffffffffffffff1673ffffffffffffffffffffffffffffffffffffffff16815260200190815260200160002060008973ffffffffffffffffffffffffffffffffffffffff1673ffffffffffffffffffffffffffffffffffffffff16815260200190815260200160002054611d4590919063ffffffff16565b611dcd565b6001905092915050565b6000600754905090565b60006c01431e0fae6d7217caa0000000831115610cc3576040517f08c379a000000000000000000000000000000000000000000000000000000000815260040180806020018281038252601f8152602001807f416d6f756e74206d757374206265206c657373207468616e20737570706c790081525060200191505060405180910390fd5b81610ce5576000610cd384611abf565b50505050505050905080915050610cfe565b6000610cf084611abf565b505050505050915050809150505b92915050565b6000600460008373ffffffffffffffffffffffffffffffffffffffff1673ffffffffffffffffffffffffffffffffffffffff16815260200190815260200160002060009054906101000a900460ff1615610d9f57600260008373ffffffffffffffffffffffffffffffffffffffff1673ffffffffffffffffffffffffffffffffffffffff168152602001908152602001600020549050610dea565b610de7600160008473ffffffffffffffffffffffffffffffffffffffff1673ffffffffffffffffffffffffffffffffffffffff16815260200190815260200160002054610ae6565b90505b919050565b610df7611ab7565b73ffffffffffffffffffffffffffffffffffffffff1660008054906101000a900473ffffffffffffffffffffffffffffffffffffffff1673ffffffffffffffffffffffffffffffffffffffff1614610eb7576040517f08c379a00000000000000000000000000000000000000000000000000000000081526004018080602001828103825260208152602001807f4f776e61626c653a2063616c6c6572206973206e6f7420746865206f776e657281525060200191505060405180910390fd5b600073ffffffffffffffffffffffffffffffffffffffff1660008054906101000a900473ffffffffffffffffffffffffffffffffffffffff1673ffffffffffffffffffffffffffffffffffffffff167f8be0079c531659141344cd1fd0a4f28419497f9722a3daafe3b4186f6b6457e060405160405180910390a360008060006101000a81548173ffffffffffffffffffffffffffffffffffffffff021916908373ffffffffffffffffffffffffffffffffffffffff160217905550565b60008060009054906101000a900473ffffffffffffffffffffffffffffffffffffffff16905090565b606060098054600181600116156101000203166002900480601f0160208091040260200160405190810160405280929190818152602001828054600181600116156101000203166002900480156110365780601f1061100b57610100808354040283529160200191611036565b820191906000526020600020905b81548152906001019060200180831161101957829003601f168201915b5050505050905090565b600061110361104d611ab7565b846110fe856040518060600160405280602581526020016138216025913960036000611077611ab7565b73ffffffffffffffffffffffffffffffffffffffff1673ffffffffffffffffffffffffffffffffffffffff16815260200190815260200160002060008a73ffffffffffffffffffffffffffffffffffffffff1673ffffffffffffffffffffffffffffffffffffffff1681526020019081526020016000205461241d9092919063ffffffff16565b611dcd565b6001905092915050565b600061112161111a611ab7565b8484611fc4565b6001905092915050565b6000600460008373ffffffffffffffffffffffffffffffffffffffff1673ffffffffffffffffffffffffffffffffffffffff16815260200190815260200160002060009054906101000a900460ff169050919050565b6000600360008473ffffffffffffffffffffffffffffffffffffffff1673ffffffffffffffffffffffffffffffffffffffff16815260200190815260200160002060008373ffffffffffffffffffffffffffffffffffffffff1673ffffffffffffffffffffffffffffffffffffffff16815260200190815260200160002054905092915050565b611210611ab7565b73ffffffffffffffffffffffffffffffffffffffff1660008054906101000a900473ffffffffffffffffffffffffffffffffffffffff1673ffffffffffffffffffffffffffffffffffffffff16146112d0576040517f08c379a00000000000000000000000000000000000000000000000000000000081526004018080602001828103825260208152602001807f4f776e61626c653a2063616c6c6572206973206e6f7420746865206f776e657281525060200191505060405180910390fd5b600460008273ffffffffffffffffffffffffffffffffffffffff1673ffffffffffffffffffffffffffffffffffffffff16815260200190815260200160002060009054906101000a900460ff1615611390576040517f08c379a000000000000000000000000000000000000000000000000000000000815260040180806020018281038252601b8152602001807f4163636f756e7420697320616c7265616479206578636c75646564000000000081525060200191505060405180910390fd5b6000600160008373ffffffffffffffffffffffffffffffffffffffff1673ffffffffffffffffffffffffffffffffffffffff16815260200190815260200160002054111561146457611420600160008373ffffffffffffffffffffffffffffffffffffffff1673ffffffffffffffffffffffffffffffffffffffff16815260200190815260200160002054610ae6565b600260008373ffffffffffffffffffffffffffffffffffffffff1673ffffffffffffffffffffffffffffffffffffffff168152602001908152602001600020819055505b6001600460008373ffffffffffffffffffffffffffffffffffffffff1673ffffffffffffffffffffffffffffffffffffffff16815260200190815260200160002060006101000a81548160ff0219169083151502179055506005819080600181540180825580915050600190039060005260206000200160009091909190916101000a81548173ffffffffffffffffffffffffffffffffffffffff021916908373ffffffffffffffffffffffffffffffffffffffff16021790555050565b61152a611ab7565b73ffffffffffffffffffffffffffffffffffffffff1660008054906101000a900473ffffffffffffffffffffffffffffffffffffffff1673ffffffffffffffffffffffffffffffffffffffff16146115ea576040517f08c379a00000000000000000000000000000000000000000000000000000000081526004018080602001828103825260208152602001807f4f776e61626c653a2063616c6c6572206973206e6f7420746865206f776e657281525060200191505060405180910390fd5b600073ffffffffffffffffffffffffffffffffffffffff168173ffffffffffffffffffffffffffffffffffffffff161415611670576040517f08c379a00000000000000000000000000000000000000000000000000000000081526004018080602001828103825260268152602001806136f26026913960400191505060405180910390fd5b8073ffffffffffffffffffffffffffffffffffffffff1660008054906101000a900473ffffffffffffffffffffffffffffffffffffffff1673ffffffffffffffffffffffffffffffffffffffff167f8be0079c531659141344cd1fd0a4f28419497f9722a3daafe3b4186f6b6457e060405160405180910390a3806000806101000a81548173ffffffffffffffffffffffffffffffffffffffff021916908373ffffffffffffffffffffffffffffffffffffffff16021790555050565b611735611ab7565b73ffffffffffffffffffffffffffffffffffffffff1660008054906101000a900473ffffffffffffffffffffffffffffffffffffffff1673ffffffffffffffffffffffffffffffffffffffff16146117f5576040517f08c379a00000000000000000000000000000000000000000000000000000000081526004018080602001828103825260208152602001807f4f776e61626c653a2063616c6c6572206973206e6f7420746865206f776e657281525060200191505060405180910390fd5b600460008273ffffffffffffffffffffffffffffffffffffffff1673ffffffffffffffffffffffffffffffffffffffff16815260200190815260200160002060009054906101000a900460ff166118b4576040517f08c379a000000000000000000000000000000000000000000000000000000000815260040180806020018281038252601b8152602001807f4163636f756e7420697320616c726561647920696e636c75646564000000000081525060200191505060405180910390fd5b60005b600580549050811015611ab3578173ffffffffffffffffffffffffffffffffffffffff16600582815481106118e857fe5b9060005260206000200160009054906101000a900473ffffffffffffffffffffffffffffffffffffffff1673ffffffffffffffffffffffffffffffffffffffff161415611aa65760056001600580549050038154811061194457fe5b9060005260206000200160009054906101000a900473ffffffffffffffffffffffffffffffffffffffff166005828154811061197c57fe5b9060005260206000200160006101000a81548173ffffffffffffffffffffffffffffffffffffffff021916908373ffffffffffffffffffffffffffffffffffffffff1602179055506000600260008473ffffffffffffffffffffffffffffffffffffffff1673ffffffffffffffffffffffffffffffffffffffff168152602001908152602001600020819055506000600460008473ffffffffffffffffffffffffffffffffffffffff1673ffffffffffffffffffffffffffffffffffffffff16815260200190815260200160002060006101000a81548160ff0219169083151502179055506005805480611a6c57fe5b6001900381819060005260206000200160006101000a81549073ffffffffffffffffffffffffffffffffffffffff02191690559055611ab3565b80806001019150506118b7565b5050565b600033905090565b600080600080600080600080611ad361365f565b611adc8a612552565b856000600c8110611ae957fe5b60200201866001600c8110611afa57fe5b60200201876002600c8110611b0b57fe5b60200201886008600c8110611b1c57fe5b6020020189600a600c8110611b2d57fe5b6020020185815250858152508581525085815250858152505050505050611b526124dd565b816003600c8110611b5f57fe5b602002018181525050611bcb8a826001600c8110611b7957fe5b6020020151836003600c8110611b8b57fe5b6020020151846002600c8110611b9d57fe5b6020020151856008600c8110611baf57fe5b602002015186600a600c8110611bc157fe5b6020020151612767565b866004600c8110611bd857fe5b60200201876005600c8110611be957fe5b60200201886006600c8110611bfa57fe5b60200201896007600c8110611c0b57fe5b602002018a6009600c8110611c1c57fe5b602002018b600b600c8110611c2d57fe5b60200201868152508681525086815250868152508681525086815250505050505050806004600c8110611c5c57fe5b6020020151816005600c8110611c6e57fe5b6020020151826006600c8110611c8057fe5b6020020151836000600c8110611c9257fe5b6020020151846001600c8110611ca457fe5b6020020151856002600c8110611cb657fe5b6020020151866008600c8110611cc857fe5b602002015187600a600c8110611cda57fe5b60200201519850985098509850985098509850985050919395975091939597565b6000611d3d83836040518060400160405280601e81526020017f536166654d6174683a207375627472616374696f6e206f766572666c6f77000081525061241d565b905092915050565b600080828401905083811015611dc3576040517f08c379a000000000000000000000000000000000000000000000000000000000815260040180806020018281038252601b8152602001807f536166654d6174683a206164646974696f6e206f766572666c6f77000000000081525060200191505060405180910390fd5b8091505092915050565b600073ffffffffffffffffffffffffffffffffffffffff168373ffffffffffffffffffffffffffffffffffffffff161415611e53576040517f08c379a00000000000000000000000000000000000000000000000000000000081526004018080602001828103825260248152602001806137d16024913960400191505060405180910390fd5b600073ffffffffffffffffffffffffffffffffffffffff168273ffffffffffffffffffffffffffffffffffffffff161415611ed9576040517f08c379a00000000000000000000000000000000000000000000000000000000081526004018080602001828103825260228152602001806137186022913960400191505060405180910390fd5b80600360008573ffffffffffffffffffffffffffffffffffffffff1673ffffffffffffffffffffffffffffffffffffffff16815260200190815260200160002060008473ffffffffffffffffffffffffffffffffffffffff1673ffffffffffffffffffffffffffffffffffffffff168152602001908152602001600020819055508173ffffffffffffffffffffffffffffffffffffffff168373ffffffffffffffffffffffffffffffffffffffff167f8c5be1e5ebec7d5bd14f71427d1e84f3dd0314c0f7b2291e5b200ac8c7c3b925836040518082815260200191505060405180910390a3505050565b600073ffffffffffffffffffffffffffffffffffffffff168373ffffffffffffffffffffffffffffffffffffffff16141561204a576040517f08c379a00000000000000000000000000000000000000000000000000000000081526004018080602001828103825260258152602001806137ac6025913960400191505060405180910390fd5b600073ffffffffffffffffffffffffffffffffffffffff168273ffffffffffffffffffffffffffffffffffffffff1614156120d0576040517f08c379a00000000000000000000000000000000000000000000000000000000081526004018080602001828103825260238152602001806136a56023913960400191505060405180910390fd5b60008111612129576040517f08c379a00000000000000000000000000000000000000000000000000000000081526004018080602001828103825260298152602001806137836029913960400191505060405180910390fd5b600460008473ffffffffffffffffffffffffffffffffffffffff1673ffffffffffffffffffffffffffffffffffffffff16815260200190815260200160002060009054906101000a900460ff1680156121cc5750600460008373ffffffffffffffffffffffffffffffffffffffff1673ffffffffffffffffffffffffffffffffffffffff16815260200190815260200160002060009054906101000a900460ff16155b156121e1576121dc838383612857565b612418565b600460008473ffffffffffffffffffffffffffffffffffffffff1673ffffffffffffffffffffffffffffffffffffffff16815260200190815260200160002060009054906101000a900460ff161580156122845750600460008373ffffffffffffffffffffffffffffffffffffffff1673ffffffffffffffffffffffffffffffffffffffff16815260200190815260200160002060009054906101000a900460ff165b1561229957612294838383612aba565b612417565b600460008473ffffffffffffffffffffffffffffffffffffffff1673ffffffffffffffffffffffffffffffffffffffff16815260200190815260200160002060009054906101000a900460ff1615801561233d5750600460008373ffffffffffffffffffffffffffffffffffffffff1673ffffffffffffffffffffffffffffffffffffffff16815260200190815260200160002060009054906101000a900460ff16155b156123525761234d838383612d1d565b612416565b600460008473ffffffffffffffffffffffffffffffffffffffff1673ffffffffffffffffffffffffffffffffffffffff16815260200190815260200160002060009054906101000a900460ff1680156123f45750600460008373ffffffffffffffffffffffffffffffffffffffff1673ffffffffffffffffffffffffffffffffffffffff16815260200190815260200160002060009054906101000a900460ff165b1561240957612404838383612eeb565b612415565b612414838383612d1d565b5b5b5b5b505050565b60008383111582906124ca576040517f08c379a00000000000000000000000000000000000000000000000000000000081526004018080602001828103825283818151815260200191508051906020019080838360005b8381101561248f578082015181840152602081019050612474565b50505050905090810190601f1680156124bc5780820380516001836020036101000a031916815260200191505b509250505060405180910390fd5b5060008385039050809150509392505050565b60008060006124ea6131e3565b91509150612501818361250890919063ffffffff16565b9250505090565b600061254a83836040518060400160405280601a81526020017f536166654d6174683a206469766973696f6e206279207a65726f0000000000008152506134a0565b905092915050565b6000806000806000612562613682565b612589600361257b60648a61250890919063ffffffff16565b61356690919063ffffffff16565b8160006005811061259657fe5b6020020181815250506125c660016125b860648a61250890919063ffffffff16565b61356690919063ffffffff16565b816001600581106125d357fe5b60200201818152505061260360016125f560648a61250890919063ffffffff16565b61356690919063ffffffff16565b8160026005811061261057fe5b602002018181525050612640600161263260648a61250890919063ffffffff16565b61356690919063ffffffff16565b8160036005811061264d57fe5b6020020181815250506126e38160036005811061266657fe5b60200201516126d58360006005811061267b57fe5b60200201516126c78560016005811061269057fe5b60200201516126b9876002600581106126a557fe5b60200201518e611cfb90919063ffffffff16565b611cfb90919063ffffffff16565b611cfb90919063ffffffff16565b611cfb90919063ffffffff16565b816004600581106126f057fe5b6020020181815250508060046005811061270657fe5b60200201518160026005811061271857fe5b60200201518260016005811061272a57fe5b60200201518360006005811061273c57fe5b60200201518460036005811061274e57fe5b6020020151955095509550955095505091939590929450565b60008060008060008060006127858b8e61356690919063ffffffff16565b9050600061279c8c8e61356690919063ffffffff16565b905060006127b38d8d61356690919063ffffffff16565b905060006127ca8e8c61356690919063ffffffff16565b905060006127e18f8e61356690919063ffffffff16565b9050600061282e8361282084612812886128048b8d611cfb90919063ffffffff16565b611cfb90919063ffffffff16565b611cfb90919063ffffffff16565b611cfb90919063ffffffff16565b90508581868685879b509b509b509b509b509b5050505050505096509650965096509650969050565b60008060008060008060008061286c89611abf565b975097509750975097509750975097506128ce89600260008e73ffffffffffffffffffffffffffffffffffffffff1673ffffffffffffffffffffffffffffffffffffffff16815260200190815260200160002054611cfb90919063ffffffff16565b600260008d73ffffffffffffffffffffffffffffffffffffffff1673ffffffffffffffffffffffffffffffffffffffff1681526020019081526020016000208190555061296388600160008e73ffffffffffffffffffffffffffffffffffffffff1673ffffffffffffffffffffffffffffffffffffffff16815260200190815260200160002054611cfb90919063ffffffff16565b600160008d73ffffffffffffffffffffffffffffffffffffffff1673ffffffffffffffffffffffffffffffffffffffff168152602001908152602001600020819055506129f887600160008d73ffffffffffffffffffffffffffffffffffffffff1673ffffffffffffffffffffffffffffffffffffffff16815260200190815260200160002054611d4590919063ffffffff16565b600160008c73ffffffffffffffffffffffffffffffffffffffff1673ffffffffffffffffffffffffffffffffffffffff16815260200190815260200160002081905550612a4886858585856135ec565b8973ffffffffffffffffffffffffffffffffffffffff168b73ffffffffffffffffffffffffffffffffffffffff167fddf252ad1be2c89b69c2b068fc378daa952ba7f163c4a11628f55a4df523b3ef876040518082815260200191505060405180910390a35050505050505050505050565b600080600080600080600080612acf89611abf565b97509750975097509750975097509750612b3188600160008e73ffffffffffffffffffffffffffffffffffffffff1673ffffffffffffffffffffffffffffffffffffffff16815260200190815260200160002054611cfb90919063ffffffff16565b600160008d73ffffffffffffffffffffffffffffffffffffffff1673ffffffffffffffffffffffffffffffffffffffff16815260200190815260200160002081905550612bc685600260008d73ffffffffffffffffffffffffffffffffffffffff1673ffffffffffffffffffffffffffffffffffffffff16815260200190815260200160002054611d4590919063ffffffff16565b600260008c73ffffffffffffffffffffffffffffffffffffffff1673ffffffffffffffffffffffffffffffffffffffff16815260200190815260200160002081905550612c5b87600160008d73ffffffffffffffffffffffffffffffffffffffff1673ffffffffffffffffffffffffffffffffffffffff16815260200190815260200160002054611d4590919063ffffffff16565b600160008c73ffffffffffffffffffffffffffffffffffffffff1673ffffffffffffffffffffffffffffffffffffffff16815260200190815260200160002081905550612cab86858585856135ec565b8973ffffffffffffffffffffffffffffffffffffffff168b73ffffffffffffffffffffffffffffffffffffffff167fddf252ad1be2c89b69c2b068fc378daa952ba7f163c4a11628f55a4df523b3ef876040518082815260200191505060405180910390a35050505050505050505050565b600080600080600080600080612d3289611abf565b97509750975097509750975097509750612d9488600160008e73ffffffffffffffffffffffffffffffffffffffff1673ffffffffffffffffffffffffffffffffffffffff16815260200190815260200160002054611cfb90919063ffffffff16565b600160008d73ffffffffffffffffffffffffffffffffffffffff1673ffffffffffffffffffffffffffffffffffffffff16815260200190815260200160002081905550612e2987600160008d73ffffffffffffffffffffffffffffffffffffffff1673ffffffffffffffffffffffffffffffffffffffff16815260200190815260200160002054611d4590919063ffffffff16565b600160008c73ffffffffffffffffffffffffffffffffffffffff1673ffffffffffffffffffffffffffffffffffffffff16815260200190815260200160002081905550612e7986858585856135ec565b8973ffffffffffffffffffffffffffffffffffffffff168b73ffffffffffffffffffffffffffffffffffffffff167fddf252ad1be2c89b69c2b068fc378daa952ba7f163c4a11628f55a4df523b3ef876040518082815260200191505060405180910390a35050505050505050505050565b600080600080600080600080612f0089611abf565b97509750975097509750975097509750612f6289600260008e73ffffffffffffffffffffffffffffffffffffffff1673ffffffffffffffffffffffffffffffffffffffff16815260200190815260200160002054611cfb90919063ffffffff16565b600260008d73ffffffffffffffffffffffffffffffffffffffff1673ffffffffffffffffffffffffffffffffffffffff16815260200190815260200160002081905550612ff788600160008e73ffffffffffffffffffffffffffffffffffffffff1673ffffffffffffffffffffffffffffffffffffffff16815260200190815260200160002054611cfb90919063ffffffff16565b600160008d73ffffffffffffffffffffffffffffffffffffffff1673ffffffffffffffffffffffffffffffffffffffff1681526020019081526020016000208190555061308c85600260008d73ffffffffffffffffffffffffffffffffffffffff1673ffffffffffffffffffffffffffffffffffffffff16815260200190815260200160002054611d4590919063ffffffff16565b600260008c73ffffffffffffffffffffffffffffffffffffffff1673ffffffffffffffffffffffffffffffffffffffff1681526020019081526020016000208190555061312187600160008d73ffffffffffffffffffffffffffffffffffffffff1673ffffffffffffffffffffffffffffffffffffffff16815260200190815260200160002054611d4590919063ffffffff16565b600160008c73ffffffffffffffffffffffffffffffffffffffff1673ffffffffffffffffffffffffffffffffffffffff1681526020019081526020016000208190555061317186858585856135ec565b8973ffffffffffffffffffffffffffffffffffffffff168b73ffffffffffffffffffffffffffffffffffffffff167fddf252ad1be2c89b69c2b068fc378daa952ba7f163c4a11628f55a4df523b3ef876040518082815260200191505060405180910390a35050505050505050505050565b6000806000600654905060006c01431e0fae6d7217caa0000000905060005b60058054905081101561344d5782600160006005848154811061322157fe5b9060005260206000200160009054906101000a900473ffffffffffffffffffffffffffffffffffffffff1673ffffffffffffffffffffffffffffffffffffffff1673ffffffffffffffffffffffffffffffffffffffff16815260200190815260200160002054118061330857508160026000600584815481106132a057fe5b9060005260206000200160009054906101000a900473ffffffffffffffffffffffffffffffffffffffff1673ffffffffffffffffffffffffffffffffffffffff1673ffffffffffffffffffffffffffffffffffffffff16815260200190815260200160002054115b1561332a576006546c01431e0fae6d7217caa00000009450945050505061349c565b6133b3600160006005848154811061333e57fe5b9060005260206000200160009054906101000a900473ffffffffffffffffffffffffffffffffffffffff1673ffffffffffffffffffffffffffffffffffffffff1673ffffffffffffffffffffffffffffffffffffffff1681526020019081526020016000205484611cfb90919063ffffffff16565b925061343e60026000600584815481106133c957fe5b9060005260206000200160009054906101000a900473ffffffffffffffffffffffffffffffffffffffff1673ffffffffffffffffffffffffffffffffffffffff1673ffffffffffffffffffffffffffffffffffffffff1681526020019081526020016000205483611cfb90919063ffffffff16565b91508080600101915050613202565b506134706c01431e0fae6d7217caa000000060065461250890919063ffffffff16565b821015613493576006546c01431e0fae6d7217caa000000093509350505061349c565b81819350935050505b9091565b6000808311829061354c576040517f08c379a00000000000000000000000000000000000000000000000000000000081526004018080602001828103825283818151815260200191508051906020019080838360005b838110156135115780820151818401526020810190506134f6565b50505050905090810190601f16801561353e5780820380516001836020036101000a031916815260200191505b509250505060405180910390fd5b50600083858161355857fe5b049050809150509392505050565b60008083141561357957600090506135e6565b600082840290508284828161358a57fe5b04146135e1576040517f08c379a000000000000000000000000000000000000000000000000000000000815260040180806020018281038252602181526020018061373a6021913960400191505060405180910390fd5b809150505b92915050565b61360185600654611cfb90919063ffffffff16565b6006819055506136528161364484613636876136288a600754611d4590919063ffffffff16565b611d4590919063ffffffff16565b611d4590919063ffffffff16565b611d4590919063ffffffff16565b6007819055505050505050565b604051806101800160405280600c90602082028036833780820191505090505090565b6040518060a0016040528060059060208202803683378082019150509050509056fe45524332303a207472616e7366657220746f20746865207a65726f2061646472657373416d6f756e74206d757374206265206c657373207468616e20746f74616c207265666c656374696f6e734f776e61626c653a206e6577206f776e657220697320746865207a65726f206164647265737345524332303a20617070726f766520746f20746865207a65726f2061646472657373536166654d6174683a206d756c7469706c69636174696f6e206f766572666c6f7745524332303a207472616e7366657220616d6f756e74206578636565647320616c6c6f77616e63655472616e7366657220616d6f756e74206d7573742062652067726561746572207468616e207a65726f45524332303a207472616e736665722066726f6d20746865207a65726f206164647265737345524332303a20617070726f76652066726f6d20746865207a65726f20616464726573734578636c75646564206164647265737365732063616e6e6f742063616c6c20746869732066756e6374696f6e45524332303a2064656372656173656420616c6c6f77616e63652062656c6f77207a65726fa26469706673582212202110cdc6876d51d8dacc707ae79c4ee155c8b2da8df44edd4d193f887e22a03d64736f6c634300060c0033"}}