{"compiler":"v0.8.10+commit.fc410830","opcodeHash":"0xa96ed9d4730a2458431623b8768efe0cc915e40795a5be259f8d5a53f6d3f704","metalessHash":"0xea95d3295fcc70d2140d37162d6ecf3da1b1c7ea83f917e2f7e048040c3c801f","runtimeHash":"0x147d6c188575a596f3b9283a6abc214d498ee4061ecbc262189dac7d7a51c2d9","encodedMetadata":[{"ipfs":"/ipfs/QmPLD3AKMqwokxhZZtDfws1r9MNuqtQvykQifiodegbRyM","solc":"0.8.10"}],"abi":[{"inputs":[{"internalType":"string","name":"name_","type":"string"},{"internalType":"string","name":"symbol_","type":"string"},{"internalType":"string","name":"_baseurl","type":"string"}],"stateMutability":"nonpayable","type":"constructor"},{"anonymous":false,"inputs":[{"indexed":true,"internalType":"address","name":"owner","type":"address"},{"indexed":true,"internalType":"address","name":"approved","type":"address"},{"indexed":true,"internalType":"uint256","name":"tokenId","type":"uint256"}],"name":"Approval","type":"event"},{"anonymous":false,"inputs":[{"indexed":true,"internalType":"address","name":"owner","type":"address"},{"indexed":true,"internalType":"address","name":"operator","type":"address"},{"indexed":false,"internalType":"bool","name":"approved","type":"bool"}],"name":"ApprovalForAll","type":"event"},{"anonymous":false,"inputs":[{"indexed":true,"internalType":"address","name":"previousOwner","type":"address"},{"indexed":true,"internalType":"address","name":"newOwner","type":"address"}],"name":"OwnershipTransferred","type":"event"},{"anonymous":false,"inputs":[{"indexed":true,"internalType":"address","name":"from","type":"address"},{"indexed":true,"internalType":"address","name":"to","type":"address"},{"indexed":true,"internalType":"uint256","name":"tokenId","type":"uint256"}],"name":"Transfer","type":"event"},{"inputs":[{"internalType":"address","name":"to","type":"address"},{"internalType":"uint256","name":"tokenId","type":"uint256"}],"name":"approve","outputs":[],"stateMutability":"nonpayable","type":"function"},{"inputs":[{"internalType":"address","name":"owner","type":"address"}],"name":"balanceOf","outputs":[{"internalType":"uint256","name":"","type":"uint256"}],"stateMutability":"view","type":"function"},{"inputs":[],"name":"baseURI","outputs":[{"internalType":"string","name":"","type":"string"}],"stateMutability":"view","type":"function"},{"inputs":[],"name":"baseurl","outputs":[{"internalType":"string","name":"","type":"string"}],"stateMutability":"view","type":"function"},{"inputs":[{"internalType":"uint256","name":"tokenId","type":"uint256"}],"name":"burn","outputs":[],"stateMutability":"nonpayable","type":"function"},{"inputs":[{"internalType":"uint256","name":"tokenId","type":"uint256"}],"name":"getApproved","outputs":[{"internalType":"address","name":"","type":"address"}],"stateMutability":"view","type":"function"},{"inputs":[{"internalType":"address","name":"owner","type":"address"},{"internalType":"address","name":"operator","type":"address"}],"name":"isApprovedForAll","outputs":[{"internalType":"bool","name":"","type":"bool"}],"stateMutability":"view","type":"function"},{"inputs":[{"internalType":"address","name":"_to","type":"address"},{"internalType":"uint256","name":"_tokenId","type":"uint256"}],"name":"mint","outputs":[],"stateMutability":"nonpayable","type":"function"},{"inputs":[],"name":"name","outputs":[{"internalType":"string","name":"","type":"string"}],"stateMutability":"view","type":"function"},{"inputs":[],"name":"owner","outputs":[{"internalType":"address","name":"","type":"address"}],"stateMutability":"view","type":"function"},{"inputs":[{"internalType":"uint256","name":"tokenId","type":"uint256"}],"name":"ownerOf","outputs":[{"internalType":"address","name":"","type":"address"}],"stateMutability":"view","type":"function"},{"inputs":[],"name":"renounceOwnership","outputs":[],"stateMutability":"nonpayable","type":"function"},{"inputs":[{"internalType":"address","name":"from","type":"address"},{"internalType":"address","name":"to","type":"address"},{"internalType":"uint256","name":"tokenId","type":"uint256"}],"name":"safeTransferFrom","outputs":[],"stateMutability":"nonpayable","type":"function"},{"inputs":[{"internalType":"address","name":"from","type":"address"},{"internalType":"address","name":"to","type":"address"},{"internalType":"uint256","name":"tokenId","type":"uint256"},{"internalType":"bytes","name":"_data","type":"bytes"}],"name":"safeTransferFrom","outputs":[],"stateMutability":"nonpayable","type":"function"},{"inputs":[{"internalType":"address","name":"operator","type":"address"},{"internalType":"bool","name":"approved","type":"bool"}],"name":"setApprovalForAll","outputs":[],"stateMutability":"nonpayable","type":"function"},{"inputs":[{"internalType":"string","name":"_baseurl","type":"string"}],"name":"setBaseUrl","outputs":[],"stateMutability":"nonpayable","type":"function"},{"inputs":[{"internalType":"address","name":"_minter","type":"address"}],"name":"setMinter","outputs":[],"stateMutability":"nonpayable","type":"function"},{"inputs":[{"internalType":"bytes4","name":"interfaceId","type":"bytes4"}],"name":"supportsInterface","outputs":[{"internalType":"bool","name":"","type":"bool"}],"stateMutability":"view","type":"function"},{"inputs":[],"name":"symbol","outputs":[{"internalType":"string","name":"","type":"string"}],"stateMutability":"view","type":"function"},{"inputs":[{"internalType":"uint256","name":"index","type":"uint256"}],"name":"tokenByIndex","outputs":[{"internalType":"uint256","name":"","type":"uint256"}],"stateMutability":"view","type":"function"},{"inputs":[{"internalType":"address","name":"owner","type":"address"},{"internalType":"uint256","name":"index","type":"uint256"}],"name":"tokenOfOwnerByIndex","outputs":[{"internalType":"uint256","name":"","type":"uint256"}],"stateMutability":"view","type":"function"},{"inputs":[{"internalType":"uint256","name":"tokenId","type":"uint256"}],"name":"tokenURI","outputs":[{"internalType":"string","name":"","type":"string"}],"stateMutability":"view","type":"function"},{"inputs":[],"name":"totalSupply","outputs":[{"internalType":"uint256","name":"","type":"uint256"}],"stateMutability":"view","type":"function"},{"inputs":[{"internalType":"address","name":"from","type":"address"},{"internalType":"address","name":"to","type":"address"},{"internalType":"uint256","name":"tokenId","type":"uint256"}],"name":"transferFrom","outputs":[],"stateMutability":"nonpayable","type":"function"},{"inputs":[{"internalType":"address","name":"newOwner","type":"address"}],"name":"transferOwnership","outputs":[],"stateMutability":"nonpayable","type":"function"},{"inputs":[],"name":"wrapperMinter","outputs":[{"internalType":"address","name":"","type":"address"}],"stateMutability":"view","type":"function"}],"bytecode":{"object":"60806040523480156200001157600080fd5b50604051620028a0380380620028a083398101604081905262000034916200061a565b8251839083906200004d9060009060208501906200049a565b508051620000639060019060208401906200049a565b505050620000806200007a6200010f60201b60201c565b62000113565b600b8054336001600160a01b031990911617905580620000ac4662000165602090811b62000d8b17901c565b620000cb306001600160a01b03166200028260201b62000e911760201c565b604051602001620000df93929190620006ab565b604051602081830303815290604052600c9080519060200190620001059291906200049a565b5050505062000847565b3390565b600a80546001600160a01b038381166001600160a01b0319831681179093556040519116919082907f8be0079c531659141344cd1fd0a4f28419497f9722a3daafe3b4186f6b6457e090600090a35050565b6060816200018a5750506040805180820190915260018152600360fc1b602082015290565b8160005b8115620001ba5780620001a18162000721565b9150620001b29050600a8362000755565b91506200018e565b6000816001600160401b03811115620001d757620001d762000540565b6040519080825280601f01601f19166020018201604052801562000202576020820181803683370190505b5090505b84156200027a576200021a6001836200076c565b915062000229600a8662000786565b620002369060306200079d565b60f81b8183815181106200024e576200024e620007b8565b60200101906001600160f81b031916908160001a90535062000272600a8662000755565b945062000206565b949350505050565b606081620002aa5750506040805180820190915260048152630307830360e41b602082015290565b8160005b8115620002d15780620002c18162000721565b915050600882901c9150620002ae565b6200027a848260606000620002e8836002620007ce565b620002f59060026200079d565b6001600160401b038111156200030f576200030f62000540565b6040519080825280601f01601f1916602001820160405280156200033a576020820181803683370190505b509050600360fc1b81600081518110620003585762000358620007b8565b60200101906001600160f81b031916908160001a905350600f60fb1b816001815181106200038a576200038a620007b8565b60200101906001600160f81b031916908160001a9053506000620003b0846002620007ce565b620003bd9060016200079d565b90505b60018111156200043f576f181899199a1a9b1b9c1cb0b131b232b360811b85600f1660108110620003f557620003f5620007b8565b1a60f81b8282815181106200040e576200040e620007b8565b60200101906001600160f81b031916908160001a90535060049490941c936200043781620007f0565b9050620003c0565b508315620004935760405162461bcd60e51b815260206004820181905260248201527f537472696e67733a20686578206c656e67746820696e73756666696369656e74604482015260640160405180910390fd5b9392505050565b828054620004a8906200080a565b90600052602060002090601f016020900481019282620004cc576000855562000517565b82601f10620004e757805160ff191683800117855562000517565b8280016001018555821562000517579182015b8281111562000517578251825591602001919060010190620004fa565b506200052592915062000529565b5090565b5b808211156200052557600081556001016200052a565b634e487b7160e01b600052604160045260246000fd5b60005b838110156200057357818101518382015260200162000559565b8381111562000583576000848401525b50505050565b600082601f8301126200059b57600080fd5b81516001600160401b0380821115620005b857620005b862000540565b604051601f8301601f19908116603f01168101908282118183101715620005e357620005e362000540565b81604052838152866020858801011115620005fd57600080fd5b6200061084602083016020890162000556565b9695505050505050565b6000806000606084860312156200063057600080fd5b83516001600160401b03808211156200064857600080fd5b620006568783880162000589565b945060208601519150808211156200066d57600080fd5b6200067b8783880162000589565b935060408601519150808211156200069257600080fd5b50620006a18682870162000589565b9150509250925092565b60008451620006bf81846020890162000556565b845190830190620006d581836020890162000556565b602f60f81b91018181528451909190620006f781600185016020890162000556565b600192019182015260020195945050505050565b634e487b7160e01b600052601160045260246000fd5b60006000198214156200073857620007386200070b565b5060010190565b634e487b7160e01b600052601260045260246000fd5b6000826200076757620007676200073f565b500490565b6000828210156200078157620007816200070b565b500390565b6000826200079857620007986200073f565b500690565b60008219821115620007b357620007b36200070b565b500190565b634e487b7160e01b600052603260045260246000fd5b6000816000190483118215151615620007eb57620007eb6200070b565b500290565b6000816200080257620008026200070b565b506000190190565b600181811c908216806200081f57607f821691505b602082108114156200084157634e487b7160e01b600052602260045260246000fd5b50919050565b61204980620008576000396000f3fe608060405234801561001057600080fd5b506004361061018e5760003560e01c806370a08231116100de578063b88d4fde11610097578063e985e9c511610071578063e985e9c514610342578063ec8154f01461037e578063f2fde38b14610386578063fca3b5aa1461039957600080fd5b8063b88d4fde14610309578063c7c3268b1461031c578063c87b56dd1461032f57600080fd5b806370a08231146102af578063715018a6146102c2578063837d5649146102ca5780638da5cb5b146102dd57806395d89b41146102ee578063a22cb465146102f657600080fd5b80632f745c591161014b57806342966c681161012557806342966c681461026e5780634f6ccce7146102815780636352211e146102945780636c0360eb146102a757600080fd5b80632f745c591461023557806340c10f191461024857806342842e0e1461025b57600080fd5b806301ffc9a71461019357806306fdde03146101bb578063081812fc146101d0578063095ea7b3146101fb57806318160ddd1461021057806323b872dd14610222575b600080fd5b6101a66101a1366004611a66565b6103ac565b60405190151581526020015b60405180910390f35b6101c36103d7565b6040516101b29190611adb565b6101e36101de366004611aee565b610469565b6040516001600160a01b0390911681526020016101b2565b61020e610209366004611b23565b610503565b005b6008545b6040519081526020016101b2565b61020e610230366004611b4d565b610619565b610214610243366004611b23565b61064b565b61020e610256366004611b23565b6106e1565b61020e610269366004611b4d565b610740565b61020e61027c366004611aee565b61075b565b61021461028f366004611aee565b610826565b6101e36102a2366004611aee565b6108b9565b6101c3610930565b6102146102bd366004611b89565b61093f565b61020e6109c6565b600b546101e3906001600160a01b031681565b600a546001600160a01b03166101e3565b6101c36109fc565b61020e610304366004611ba4565b610a0b565b61020e610317366004611bf6565b610ad0565b61020e61032a366004611cd2565b610b08565b6101c361033d366004611aee565b610b3e565b6101a6610350366004611d44565b6001600160a01b03918216600090815260056020908152604080832093909416825291909152205460ff1690565b6101c3610c19565b61020e610394366004611b89565b610ca7565b61020e6103a7366004611b89565b610d3f565b60006001600160e01b0319821663780e9d6360e01b14806103d157506103d182610ee5565b92915050565b6060600080546103e690611d77565b80601f016020809104026020016040519081016040528092919081815260200182805461041290611d77565b801561045f5780601f106104345761010080835404028352916020019161045f565b820191906000526020600020905b81548152906001019060200180831161044257829003601f168201915b5050505050905090565b6000818152600260205260408120546001600160a01b03166104e75760405162461bcd60e51b815260206004820152602c60248201527f4552433732313a20617070726f76656420717565727920666f72206e6f6e657860448201526b34b9ba32b73a103a37b5b2b760a11b60648201526084015b60405180910390fd5b506000908152600460205260409020546001600160a01b031690565b600061050e826108b9565b9050806001600160a01b0316836001600160a01b0316141561057c5760405162461bcd60e51b815260206004820152602160248201527f4552433732313a20617070726f76616c20746f2063757272656e74206f776e656044820152603960f91b60648201526084016104de565b336001600160a01b038216148061059857506105988133610350565b61060a5760405162461bcd60e51b815260206004820152603860248201527f4552433732313a20617070726f76652063616c6c6572206973206e6f74206f7760448201527f6e6572206e6f7220617070726f76656420666f7220616c6c000000000000000060648201526084016104de565b6106148383610f35565b505050565b610624335b82610fa3565b6106405760405162461bcd60e51b81526004016104de90611db2565b610614838383611096565b60006106568361093f565b82106106b85760405162461bcd60e51b815260206004820152602b60248201527f455243373231456e756d657261626c653a206f776e657220696e646578206f7560448201526a74206f6620626f756e647360a81b60648201526084016104de565b506001600160a01b03919091166000908152600660209081526040808320938352929052205490565b600b546001600160a01b031633146107325760405162461bcd60e51b8152602060048201526014602482015273547275737465642061646472657373206f6e6c7960601b60448201526064016104de565b61073c8282611241565b5050565b61061483838360405180602001604052806000815250610ad0565b600b546001600160a01b031633146107ac5760405162461bcd60e51b8152602060048201526014602482015273547275737465642061646472657373206f6e6c7960601b60448201526064016104de565b6107b53361061e565b61081a5760405162461bcd60e51b815260206004820152603060248201527f4552433732314275726e61626c653a2063616c6c6572206973206e6f74206f7760448201526f1b995c881b9bdc88185c1c1c9bdd995960821b60648201526084016104de565b6108238161138f565b50565b600061083160085490565b82106108945760405162461bcd60e51b815260206004820152602c60248201527f455243373231456e756d657261626c653a20676c6f62616c20696e646578206f60448201526b7574206f6620626f756e647360a01b60648201526084016104de565b600882815481106108a7576108a7611e03565b90600052602060002001549050919050565b6000818152600260205260408120546001600160a01b0316806103d15760405162461bcd60e51b815260206004820152602960248201527f4552433732313a206f776e657220717565727920666f72206e6f6e657869737460448201526832b73a103a37b5b2b760b91b60648201526084016104de565b606061093a611436565b905090565b60006001600160a01b0382166109aa5760405162461bcd60e51b815260206004820152602a60248201527f4552433732313a2062616c616e636520717565727920666f7220746865207a65604482015269726f206164647265737360b01b60648201526084016104de565b506001600160a01b031660009081526003602052604090205490565b600a546001600160a01b031633146109f05760405162461bcd60e51b81526004016104de90611e19565b6109fa6000611445565b565b6060600180546103e690611d77565b6001600160a01b038216331415610a645760405162461bcd60e51b815260206004820152601960248201527f4552433732313a20617070726f766520746f2063616c6c65720000000000000060448201526064016104de565b3360008181526005602090815260408083206001600160a01b03871680855290835292819020805460ff191686151590811790915590519081529192917f17307eab39ab6107e8899845ad3d59bd9653f200f220920489ca2b5937696c31910160405180910390a35050565b610ada3383610fa3565b610af65760405162461bcd60e51b81526004016104de90611db2565b610b0284848484611497565b50505050565b600a546001600160a01b03163314610b325760405162461bcd60e51b81526004016104de90611e19565b610614600c83836119b7565b6000818152600260205260409020546060906001600160a01b0316610bbd5760405162461bcd60e51b815260206004820152602f60248201527f4552433732314d657461646174613a2055524920717565727920666f72206e6f60448201526e3732bc34b9ba32b73a103a37b5b2b760891b60648201526084016104de565b6000610bc7611436565b90506000815111610be75760405180602001604052806000815250610c12565b80610bf184610d8b565b604051602001610c02929190611e4e565b6040516020818303038152906040525b9392505050565b600c8054610c2690611d77565b80601f0160208091040260200160405190810160405280929190818152602001828054610c5290611d77565b8015610c9f5780601f10610c7457610100808354040283529160200191610c9f565b820191906000526020600020905b815481529060010190602001808311610c8257829003601f168201915b505050505081565b600a546001600160a01b03163314610cd15760405162461bcd60e51b81526004016104de90611e19565b6001600160a01b038116610d365760405162461bcd60e51b815260206004820152602660248201527f4f776e61626c653a206e6577206f776e657220697320746865207a65726f206160448201526564647265737360d01b60648201526084016104de565b61082381611445565b600a546001600160a01b03163314610d695760405162461bcd60e51b81526004016104de90611e19565b600b80546001600160a01b0319166001600160a01b0392909216919091179055565b606081610daf5750506040805180820190915260018152600360fc1b602082015290565b8160005b8115610dd95780610dc381611e93565b9150610dd29050600a83611ec4565b9150610db3565b60008167ffffffffffffffff811115610df457610df4611be0565b6040519080825280601f01601f191660200182016040528015610e1e576020820181803683370190505b5090505b8415610e8957610e33600183611ed8565b9150610e40600a86611eef565b610e4b906030611f03565b60f81b818381518110610e6057610e60611e03565b60200101906001600160f81b031916908160001a905350610e82600a86611ec4565b9450610e22565b949350505050565b606081610eb85750506040805180820190915260048152630307830360e41b602082015290565b8160005b8115610edb5780610ecc81611e93565b915050600882901c9150610ebc565b610e8984826114ca565b60006001600160e01b031982166380ac58cd60e01b1480610f1657506001600160e01b03198216635b5e139f60e01b145b806103d157506301ffc9a760e01b6001600160e01b03198316146103d1565b600081815260046020526040902080546001600160a01b0319166001600160a01b0384169081179091558190610f6a826108b9565b6001600160a01b03167f8c5be1e5ebec7d5bd14f71427d1e84f3dd0314c0f7b2291e5b200ac8c7c3b92560405160405180910390a45050565b6000818152600260205260408120546001600160a01b031661101c5760405162461bcd60e51b815260206004820152602c60248201527f4552433732313a206f70657261746f7220717565727920666f72206e6f6e657860448201526b34b9ba32b73a103a37b5b2b760a11b60648201526084016104de565b6000611027836108b9565b9050806001600160a01b0316846001600160a01b031614806110625750836001600160a01b031661105784610469565b6001600160a01b0316145b80610e8957506001600160a01b0380821660009081526005602090815260408083209388168352929052205460ff16610e89565b826001600160a01b03166110a9826108b9565b6001600160a01b0316146111115760405162461bcd60e51b815260206004820152602960248201527f4552433732313a207472616e73666572206f6620746f6b656e2074686174206960448201526839903737ba1037bbb760b91b60648201526084016104de565b6001600160a01b0382166111735760405162461bcd60e51b8152602060048201526024808201527f4552433732313a207472616e7366657220746f20746865207a65726f206164646044820152637265737360e01b60648201526084016104de565b61117e838383611666565b611189600082610f35565b6001600160a01b03831660009081526003602052604081208054600192906111b2908490611ed8565b90915550506001600160a01b03821660009081526003602052604081208054600192906111e0908490611f03565b909155505060008181526002602052604080822080546001600160a01b0319166001600160a01b0386811691821790925591518493918716917fddf252ad1be2c89b69c2b068fc378daa952ba7f163c4a11628f55a4df523b3ef91a4505050565b6001600160a01b0382166112975760405162461bcd60e51b815260206004820181905260248201527f4552433732313a206d696e7420746f20746865207a65726f206164647265737360448201526064016104de565b6000818152600260205260409020546001600160a01b0316156112fc5760405162461bcd60e51b815260206004820152601c60248201527f4552433732313a20746f6b656e20616c7265616479206d696e7465640000000060448201526064016104de565b61130860008383611666565b6001600160a01b0382166000908152600360205260408120805460019290611331908490611f03565b909155505060008181526002602052604080822080546001600160a01b0319166001600160a01b03861690811790915590518392907fddf252ad1be2c89b69c2b068fc378daa952ba7f163c4a11628f55a4df523b3ef908290a45050565b600061139a826108b9565b90506113a881600084611666565b6113b3600083610f35565b6001600160a01b03811660009081526003602052604081208054600192906113dc908490611ed8565b909155505060008281526002602052604080822080546001600160a01b0319169055518391906001600160a01b038416907fddf252ad1be2c89b69c2b068fc378daa952ba7f163c4a11628f55a4df523b3ef908390a45050565b6060600c80546103e690611d77565b600a80546001600160a01b038381166001600160a01b0319831681179093556040519116919082907f8be0079c531659141344cd1fd0a4f28419497f9722a3daafe3b4186f6b6457e090600090a35050565b6114a2848484611096565b6114ae84848484611671565b610b025760405162461bcd60e51b81526004016104de90611f1b565b606060006114d9836002611f6d565b6114e4906002611f03565b67ffffffffffffffff8111156114fc576114fc611be0565b6040519080825280601f01601f191660200182016040528015611526576020820181803683370190505b509050600360fc1b8160008151811061154157611541611e03565b60200101906001600160f81b031916908160001a905350600f60fb1b8160018151811061157057611570611e03565b60200101906001600160f81b031916908160001a9053506000611594846002611f6d565b61159f906001611f03565b90505b6001811115611617576f181899199a1a9b1b9c1cb0b131b232b360811b85600f16601081106115d3576115d3611e03565b1a60f81b8282815181106115e9576115e9611e03565b60200101906001600160f81b031916908160001a90535060049490941c9361161081611f8c565b90506115a2565b508315610c125760405162461bcd60e51b815260206004820181905260248201527f537472696e67733a20686578206c656e67746820696e73756666696369656e7460448201526064016104de565b61061483838361176f565b60006001600160a01b0384163b1561176457604051630a85bd0160e11b81526001600160a01b0385169063150b7a02906116b5903390899088908890600401611fa3565b6020604051808303816000875af19250505080156116f0575060408051601f3d908101601f191682019092526116ed91810190611fe0565b60015b61174a573d80801561171e576040519150601f19603f3d011682016040523d82523d6000602084013e611723565b606091505b5080516117425760405162461bcd60e51b81526004016104de90611f1b565b805181602001fd5b6001600160e01b031916630a85bd0160e11b149050610e89565b506001949350505050565b6001600160a01b0383166117ca576117c581600880546000838152600960205260408120829055600182018355919091527ff3f7a9fe364faab93b216da50a3214154f22a0a2b415b23a84c8169e8b636ee30155565b6117ed565b816001600160a01b0316836001600160a01b0316146117ed576117ed8382611827565b6001600160a01b03821661180457610614816118c4565b826001600160a01b0316826001600160a01b031614610614576106148282611973565b600060016118348461093f565b61183e9190611ed8565b600083815260076020526040902054909150808214611891576001600160a01b03841660009081526006602090815260408083208584528252808320548484528184208190558352600790915290208190555b5060009182526007602090815260408084208490556001600160a01b039094168352600681528383209183525290812055565b6008546000906118d690600190611ed8565b600083815260096020526040812054600880549394509092849081106118fe576118fe611e03565b90600052602060002001549050806008838154811061191f5761191f611e03565b600091825260208083209091019290925582815260099091526040808220849055858252812055600880548061195757611957611ffd565b6001900381819060005260206000200160009055905550505050565b600061197e8361093f565b6001600160a01b039093166000908152600660209081526040808320868452825280832085905593825260079052919091209190915550565b8280546119c390611d77565b90600052602060002090601f0160209004810192826119e55760008555611a2b565b82601f106119fe5782800160ff19823516178555611a2b565b82800160010185558215611a2b579182015b82811115611a2b578235825591602001919060010190611a10565b50611a37929150611a3b565b5090565b5b80821115611a375760008155600101611a3c565b6001600160e01b03198116811461082357600080fd5b600060208284031215611a7857600080fd5b8135610c1281611a50565b60005b83811015611a9e578181015183820152602001611a86565b83811115610b025750506000910152565b60008151808452611ac7816020860160208601611a83565b601f01601f19169290920160200192915050565b602081526000610c126020830184611aaf565b600060208284031215611b0057600080fd5b5035919050565b80356001600160a01b0381168114611b1e57600080fd5b919050565b60008060408385031215611b3657600080fd5b611b3f83611b07565b946020939093013593505050565b600080600060608486031215611b6257600080fd5b611b6b84611b07565b9250611b7960208501611b07565b9150604084013590509250925092565b600060208284031215611b9b57600080fd5b610c1282611b07565b60008060408385031215611bb757600080fd5b611bc083611b07565b915060208301358015158114611bd557600080fd5b809150509250929050565b634e487b7160e01b600052604160045260246000fd5b60008060008060808587031215611c0c57600080fd5b611c1585611b07565b9350611c2360208601611b07565b925060408501359150606085013567ffffffffffffffff80821115611c4757600080fd5b818701915087601f830112611c5b57600080fd5b813581811115611c6d57611c6d611be0565b604051601f8201601f19908116603f01168101908382118183101715611c9557611c95611be0565b816040528281528a6020848701011115611cae57600080fd5b82602086016020830137600060208483010152809550505050505092959194509250565b60008060208385031215611ce557600080fd5b823567ffffffffffffffff80821115611cfd57600080fd5b818501915085601f830112611d1157600080fd5b813581811115611d2057600080fd5b866020828501011115611d3257600080fd5b60209290920196919550909350505050565b60008060408385031215611d5757600080fd5b611d6083611b07565b9150611d6e60208401611b07565b90509250929050565b600181811c90821680611d8b57607f821691505b60208210811415611dac57634e487b7160e01b600052602260045260246000fd5b50919050565b60208082526031908201527f4552433732313a207472616e736665722063616c6c6572206973206e6f74206f6040820152701ddb995c881b9bdc88185c1c1c9bdd9959607a1b606082015260800190565b634e487b7160e01b600052603260045260246000fd5b6020808252818101527f4f776e61626c653a2063616c6c6572206973206e6f7420746865206f776e6572604082015260600190565b60008351611e60818460208801611a83565b835190830190611e74818360208801611a83565b01949350505050565b634e487b7160e01b600052601160045260246000fd5b6000600019821415611ea757611ea7611e7d565b5060010190565b634e487b7160e01b600052601260045260246000fd5b600082611ed357611ed3611eae565b500490565b600082821015611eea57611eea611e7d565b500390565b600082611efe57611efe611eae565b500690565b60008219821115611f1657611f16611e7d565b500190565b60208082526032908201527f4552433732313a207472616e7366657220746f206e6f6e20455243373231526560408201527131b2b4bb32b91034b6b83632b6b2b73a32b960711b606082015260800190565b6000816000190483118215151615611f8757611f87611e7d565b500290565b600081611f9b57611f9b611e7d565b506000190190565b6001600160a01b0385811682528416602082015260408101839052608060608201819052600090611fd690830184611aaf565b9695505050505050565b600060208284031215611ff257600080fd5b8151610c1281611a50565b634e487b7160e01b600052603160045260246000fdfea2646970667358221220a5a83abaeb58e384bce2239eb510ee15a253943348661f29f8bd88ca4a79c16964736f6c634300080a0033"}}