{"compiler":"v0.6.6+commit.6c089d02","opcodeHash":"0x4439b80f4218c4156b248d9a1bcdbf2759919f78db971782ed02a4a88bb5d830","metalessHash":"0xb8d3439b472d859a4b237d03ef2476040f076e4888e130c20a968ded25257540","runtimeHash":"0x30979502628c4ae1662aeddf904700d73bccfef8653cff7967a56b10b2a89265","encodedMetadata":[{"ipfs":"/ipfs/Qmb9jFcKmXA5u1xQPv6N9BbsGTHNQAaMCC4gry8DSRGnLz","solc":"0.6.6"}],"abi":[{"inputs":[],"stateMutability":"payable","type":"constructor"},{"inputs":[{"internalType":"string","name":"fromParam","type":"string"},{"internalType":"string","name":"toParam","type":"string"},{"internalType":"uint256","name":"amount","type":"uint256"}],"name":"getPriceFromOracle","outputs":[{"internalType":"uint256","name":"","type":"uint256"}],"stateMutability":"view","type":"function"},{"inputs":[{"internalType":"string","name":"fromParam","type":"string"},{"internalType":"string","name":"toParam","type":"string"},{"internalType":"string","name":"venue","type":"string"},{"internalType":"uint256","name":"amount","type":"uint256"}],"name":"getTokenPrice","outputs":[{"internalType":"uint256","name":"","type":"uint256"}],"stateMutability":"view","type":"function"}],"bytecode":{"object":"6080604052738316b082621cfedab95bf4a44a1d4b64a6ffc336600160006101000a81548173ffffffffffffffffffffffffffffffffffffffff021916908373ffffffffffffffffffffffffffffffffffffffff16021790555073818e6fecd516ecc3849daf6845e3ec868087b755600260006101000a81548173ffffffffffffffffffffffffffffffffffffffff021916908373ffffffffffffffffffffffffffffffffffffffff160217905550600260009054906101000a900473ffffffffffffffffffffffffffffffffffffffff16600360006101000a81548173ffffffffffffffffffffffffffffffffffffffff021916908373ffffffffffffffffffffffffffffffffffffffff160217905550336000806101000a81548173ffffffffffffffffffffffffffffffffffffffff021916908373ffffffffffffffffffffffffffffffffffffffff160217905550610a6e806101606000396000f3fe608060405234801561001057600080fd5b50600436106100365760003560e01c80636542ab6f1461003b5780639836c23d1461006b575b600080fd5b6100556004803603810190610050919061068c565b61009b565b60405161006291906108a3565b60405180910390f35b610085600480360381019061008091906105e1565b610453565b60405161009291906108a3565b60405180910390f35b600080600160009054906101000a900473ffffffffffffffffffffffffffffffffffffffff1673ffffffffffffffffffffffffffffffffffffffff1663c4091236866040518263ffffffff1660e01b81526004016100f99190610827565b60206040518083038186803b15801561011157600080fd5b505afa158015610125573d6000803e3d6000fd5b505050506040513d601f19601f8201168201806040525081019061014991906105b8565b90506000600160009054906101000a900473ffffffffffffffffffffffffffffffffffffffff1673ffffffffffffffffffffffffffffffffffffffff1663c4091236866040518263ffffffff1660e01b81526004016101a89190610827565b60206040518083038186803b1580156101c057600080fd5b505afa1580156101d4573d6000803e3d6000fd5b505050506040513d601f19601f820116820180604052508101906101f891906105b8565b90506000829050600082905060008273ffffffffffffffffffffffffffffffffffffffff1663313ce5676040518163ffffffff1660e01b815260040160206040518083038186803b15801561024c57600080fd5b505afa158015610260573d6000803e3d6000fd5b505050506040513d601f19601f820116820180604052508101906102849190610770565b60ff16905060008273ffffffffffffffffffffffffffffffffffffffff1663313ce5676040518163ffffffff1660e01b815260040160206040518083038186803b1580156102d157600080fd5b505afa1580156102e5573d6000803e3d6000fd5b505050506040513d601f19601f820116820180604052508101906103099190610770565b60ff1690506000600360009054906101000a900473ffffffffffffffffffffffffffffffffffffffff1673ffffffffffffffffffffffffffffffffffffffff1663809a9e5586868c6040518463ffffffff1660e01b815260040161036f939291906107f0565b604080518083038186803b15801561038657600080fd5b505afa15801561039a573d6000803e3d6000fd5b505050506040513d601f19601f820116820180604052508101906103be9190610734565b5090506000620f42408a670de0b6b3a7640000620f42408502816103de57fe5b0402816103e757fe5b04905060008385111561041957838503905080600a0a828161040557fe5b04915081995050505050505050505061044c565b8385101561043f57848403905080600a0a8202915081995050505050505050505061044c565b8199505050505050505050505b9392505050565b6000600160009054906101000a900473ffffffffffffffffffffffffffffffffffffffff1673ffffffffffffffffffffffffffffffffffffffff1663667e9394868686866040518563ffffffff1660e01b81526004016104b69493929190610849565b60206040518083038186803b1580156104ce57600080fd5b505afa1580156104e2573d6000803e3d6000fd5b505050506040513d601f19601f82011682018060405250810190610506919061070b565b9050949350505050565b60008151905061051f816109f3565b92915050565b600082601f83011261053657600080fd5b8135610549610544826108eb565b6108be565b9150808252602083016020830185838301111561056557600080fd5b6105708382846109a0565b50505092915050565b60008135905061058881610a0a565b92915050565b60008151905061059d81610a0a565b92915050565b6000815190506105b281610a21565b92915050565b6000602082840312156105ca57600080fd5b60006105d884828501610510565b91505092915050565b600080600080608085870312156105f757600080fd5b600085013567ffffffffffffffff81111561061157600080fd5b61061d87828801610525565b945050602085013567ffffffffffffffff81111561063a57600080fd5b61064687828801610525565b935050604085013567ffffffffffffffff81111561066357600080fd5b61066f87828801610525565b925050606061068087828801610579565b91505092959194509250565b6000806000606084860312156106a157600080fd5b600084013567ffffffffffffffff8111156106bb57600080fd5b6106c786828701610525565b935050602084013567ffffffffffffffff8111156106e457600080fd5b6106f086828701610525565b925050604061070186828701610579565b9150509250925092565b60006020828403121561071d57600080fd5b600061072b8482850161058e565b91505092915050565b6000806040838503121561074757600080fd5b60006107558582860161058e565b92505060206107668582860161058e565b9150509250929050565b60006020828403121561078257600080fd5b6000610790848285016105a3565b91505092915050565b6107a28161097c565b82525050565b60006107b382610917565b6107bd8185610922565b93506107cd8185602086016109af565b6107d6816109e2565b840191505092915050565b6107ea81610965565b82525050565b60006060820190506108056000830186610799565b6108126020830185610799565b61081f60408301846107e1565b949350505050565b6000602082019050818103600083015261084181846107a8565b905092915050565b6000608082019050818103600083015261086381876107a8565b9050818103602083015261087781866107a8565b9050818103604083015261088b81856107a8565b905061089a60608301846107e1565b95945050505050565b60006020820190506108b860008301846107e1565b92915050565b6000604051905081810181811067ffffffffffffffff821117156108e157600080fd5b8060405250919050565b600067ffffffffffffffff82111561090257600080fd5b601f19601f8301169050602081019050919050565b600081519050919050565b600082825260208201905092915050565b600061093e82610945565b9050919050565b600073ffffffffffffffffffffffffffffffffffffffff82169050919050565b6000819050919050565b600060ff82169050919050565b60006109878261098e565b9050919050565b600061099982610945565b9050919050565b82818337600083830152505050565b60005b838110156109cd5780820151818401526020810190506109b2565b838111156109dc576000848401525b50505050565b6000601f19601f8301169050919050565b6109fc81610933565b8114610a0757600080fd5b50565b610a1381610965565b8114610a1e57600080fd5b50565b610a2a8161096f565b8114610a3557600080fd5b5056fea2646970667358221220d8448646173dd1f0af29b7e1761a911f0ef49a7088d0f28a1f4d4b3a20d3c2ec64736f6c63430006060033"}}