{
  "opcodeHash": "0x2086af8b158a0f602749034f8a001152841876479b70396eec1db91e01d759ba",
  "metalessHash": "0x4160718b663d1a7398837e3d36444333793d6b561b9b907e808e471364455520",
  "runtimeHash": "0x4fa15183a042db1ea94f54d0ab68d03fb40ec27026ae67325a0d3c984f100c27",
  "encodedMetadata": [
    {
      "ipfs": "/ipfs/QmQgRC4cNUuk2BsqRgyj4PuqWbkccxNLpHUQFATYcFBZuF",
      "solc": "0.6.6"
    }
  ],
  "abi": [
    {
      "anonymous": false,
      "inputs": [
        {
          "indexed": false,
          "internalType": "address",
          "name": "newOperator",
          "type": "address"
        },
        {
          "indexed": false,
          "internalType": "bool",
          "name": "isAdd",
          "type": "bool"
        }
      ],
      "name": "OperatorAdded",
      "type": "event"
    },
    {
      "anonymous": false,
      "inputs": [
        {
          "indexed": false,
          "internalType": "address",
          "name": "newToken",
          "type": "address"
        },
        {
          "indexed": false,
          "internalType": "bool",
          "name": "isAdd",
          "type": "bool"
        }
      ],
      "name": "TokenAdded",
      "type": "event"
    },
    {
      "stateMutability": "payable",
      "type": "fallback"
    },
    {
      "inputs": [
        {
          "internalType": "address",
          "name": "newOperator",
          "type": "address"
        }
      ],
      "name": "addOperator",
      "outputs": [],
      "stateMutability": "nonpayable",
      "type": "function"
    },
    {
      "inputs": [
        {
          "internalType": "address[]",
          "name": "newTokens",
          "type": "address[]"
        }
      ],
      "name": "addTokens",
      "outputs": [],
      "stateMutability": "nonpayable",
      "type": "function"
    },
    {
      "inputs": [],
      "name": "admin",
      "outputs": [
        {
          "internalType": "address",
          "name": "",
          "type": "address"
        }
      ],
      "stateMutability": "view",
      "type": "function"
    },
    {
      "inputs": [],
      "name": "assetAddress",
      "outputs": [
        {
          "internalType": "address",
          "name": "",
          "type": "address"
        }
      ],
      "stateMutability": "view",
      "type": "function"
    },
    {
      "inputs": [
        {
          "internalType": "address",
          "name": "_zeroExCoreAddr",
          "type": "address"
        },
        {
          "components": [
            {
              "internalType": "address",
              "name": "makerAddress",
              "type": "address"
            },
            {
              "internalType": "address",
              "name": "takerAddress",
              "type": "address"
            },
            {
              "internalType": "address",
              "name": "feeRecipientAddress",
              "type": "address"
            },
            {
              "internalType": "address",
              "name": "senderAddress",
              "type": "address"
            },
            {
              "internalType": "uint256",
              "name": "makerAssetAmount",
              "type": "uint256"
            },
            {
              "internalType": "uint256",
              "name": "takerAssetAmount",
              "type": "uint256"
            },
            {
              "internalType": "uint256",
              "name": "makerFee",
              "type": "uint256"
            },
            {
              "internalType": "uint256",
              "name": "takerFee",
              "type": "uint256"
            },
            {
              "internalType": "uint256",
              "name": "expirationTimeSeconds",
              "type": "uint256"
            },
            {
              "internalType": "uint256",
              "name": "salt",
              "type": "uint256"
            },
            {
              "internalType": "bytes",
              "name": "makerAssetData",
              "type": "bytes"
            },
            {
              "internalType": "bytes",
              "name": "takerAssetData",
              "type": "bytes"
            }
          ],
          "internalType": "struct LibOrder.Order[]",
          "name": "orders",
          "type": "tuple[]"
        },
        {
          "internalType": "uint256",
          "name": "gasTokenAmount",
          "type": "uint256"
        }
      ],
      "name": "batchCancelOrders",
      "outputs": [],
      "stateMutability": "nonpayable",
      "type": "function"
    },
    {
      "inputs": [
        {
          "internalType": "address",
          "name": "_dodoPairAddress",
          "type": "address"
        },
        {
          "internalType": "uint256",
          "name": "amount",
          "type": "uint256"
        },
        {
          "internalType": "uint256",
          "name": "maxPayQuote",
          "type": "uint256"
        },
        {
          "internalType": "uint256",
          "name": "gasTokenAmount",
          "type": "uint256"
        }
      ],
      "name": "buyBaseToken",
      "outputs": [],
      "stateMutability": "nonpayable",
      "type": "function"
    },
    {
      "inputs": [
        {
          "internalType": "address",
          "name": "_zeroExCoreAddr",
          "type": "address"
        },
        {
          "components": [
            {
              "internalType": "address",
              "name": "makerAddress",
              "type": "address"
            },
            {
              "internalType": "address",
              "name": "takerAddress",
              "type": "address"
            },
            {
              "internalType": "address",
              "name": "feeRecipientAddress",
              "type": "address"
            },
            {
              "internalType": "address",
              "name": "senderAddress",
              "type": "address"
            },
            {
              "internalType": "uint256",
              "name": "makerAssetAmount",
              "type": "uint256"
            },
            {
              "internalType": "uint256",
              "name": "takerAssetAmount",
              "type": "uint256"
            },
            {
              "internalType": "uint256",
              "name": "makerFee",
              "type": "uint256"
            },
            {
              "internalType": "uint256",
              "name": "takerFee",
              "type": "uint256"
            },
            {
              "internalType": "uint256",
              "name": "expirationTimeSeconds",
              "type": "uint256"
            },
            {
              "internalType": "uint256",
              "name": "salt",
              "type": "uint256"
            },
            {
              "internalType": "bytes",
              "name": "makerAssetData",
              "type": "bytes"
            },
            {
              "internalType": "bytes",
              "name": "takerAssetData",
              "type": "bytes"
            }
          ],
          "internalType": "struct LibOrder.Order",
          "name": "order",
          "type": "tuple"
        }
      ],
      "name": "cancelOrder",
      "outputs": [],
      "stateMutability": "nonpayable",
      "type": "function"
    },
    {
      "inputs": [],
      "name": "claimAdmin",
      "outputs": [],
      "stateMutability": "nonpayable",
      "type": "function"
    },
    {
      "inputs": [],
      "name": "gasToken",
      "outputs": [
        {
          "internalType": "address",
          "name": "",
          "type": "address"
        }
      ],
      "stateMutability": "view",
      "type": "function"
    },
    {
      "inputs": [],
      "name": "gasTokenPayer",
      "outputs": [
        {
          "internalType": "address",
          "name": "",
          "type": "address"
        }
      ],
      "stateMutability": "view",
      "type": "function"
    },
    {
      "inputs": [],
      "name": "getOperators",
      "outputs": [
        {
          "internalType": "address[]",
          "name": "",
          "type": "address[]"
        }
      ],
      "stateMutability": "view",
      "type": "function"
    },
    {
      "inputs": [],
      "name": "getTokensGroup",
      "outputs": [
        {
          "internalType": "address[]",
          "name": "",
          "type": "address[]"
        }
      ],
      "stateMutability": "view",
      "type": "function"
    },
    {
      "inputs": [
        {
          "internalType": "address",
          "name": "",
          "type": "address"
        }
      ],
      "name": "operatorAllowed",
      "outputs": [
        {
          "internalType": "bool",
          "name": "",
          "type": "bool"
        }
      ],
      "stateMutability": "view",
      "type": "function"
    },
    {
      "inputs": [],
      "name": "pendingAdmin",
      "outputs": [
        {
          "internalType": "address",
          "name": "",
          "type": "address"
        }
      ],
      "stateMutability": "view",
      "type": "function"
    },
    {
      "inputs": [
        {
          "internalType": "address",
          "name": "operator",
          "type": "address"
        }
      ],
      "name": "removeOperator",
      "outputs": [],
      "stateMutability": "nonpayable",
      "type": "function"
    },
    {
      "inputs": [
        {
          "internalType": "address[]",
          "name": "_tokens",
          "type": "address[]"
        }
      ],
      "name": "removeTokens",
      "outputs": [],
      "stateMutability": "nonpayable",
      "type": "function"
    },
    {
      "inputs": [
        {
          "internalType": "address",
          "name": "_dodoPairAddress",
          "type": "address"
        },
        {
          "internalType": "uint256",
          "name": "amount",
          "type": "uint256"
        },
        {
          "internalType": "uint256",
          "name": "minReceiveQuote",
          "type": "uint256"
        },
        {
          "internalType": "uint256",
          "name": "gasTokenAmount",
          "type": "uint256"
        }
      ],
      "name": "sellBaseToken",
      "outputs": [],
      "stateMutability": "nonpayable",
      "type": "function"
    },
    {
      "inputs": [
        {
          "internalType": "address",
          "name": "newAssetAddress",
          "type": "address"
        }
      ],
      "name": "setAssetAddress",
      "outputs": [],
      "stateMutability": "nonpayable",
      "type": "function"
    },
    {
      "inputs": [
        {
          "internalType": "address",
          "name": "newGasToken",
          "type": "address"
        }
      ],
      "name": "setGasToken",
      "outputs": [],
      "stateMutability": "nonpayable",
      "type": "function"
    },
    {
      "inputs": [
        {
          "internalType": "address",
          "name": "newGasTokenPayer",
          "type": "address"
        }
      ],
      "name": "setGasTokenPayer",
      "outputs": [],
      "stateMutability": "nonpayable",
      "type": "function"
    },
    {
      "inputs": [
        {
          "internalType": "uint256",
          "name": "amountOutMin",
          "type": "uint256"
        },
        {
          "internalType": "address[]",
          "name": "path",
          "type": "address[]"
        },
        {
          "internalType": "uint256",
          "name": "deadline",
          "type": "uint256"
        },
        {
          "internalType": "address",
          "name": "uniswapAddress",
          "type": "address"
        },
        {
          "internalType": "uint256",
          "name": "ethValue",
          "type": "uint256"
        },
        {
          "internalType": "uint256",
          "name": "gasTokenAmount",
          "type": "uint256"
        }
      ],
      "name": "swapExactETHForTokens",
      "outputs": [],
      "stateMutability": "nonpayable",
      "type": "function"
    },
    {
      "inputs": [
        {
          "internalType": "uint256",
          "name": "amountIn",
          "type": "uint256"
        },
        {
          "internalType": "uint256",
          "name": "amountOutMin",
          "type": "uint256"
        },
        {
          "internalType": "address[]",
          "name": "path",
          "type": "address[]"
        },
        {
          "internalType": "uint256",
          "name": "deadline",
          "type": "uint256"
        },
        {
          "internalType": "address",
          "name": "uniswapAddress",
          "type": "address"
        },
        {
          "internalType": "uint256",
          "name": "gasTokenAmount",
          "type": "uint256"
        }
      ],
      "name": "swapExactTokensForETH",
      "outputs": [],
      "stateMutability": "nonpayable",
      "type": "function"
    },
    {
      "inputs": [
        {
          "internalType": "uint256",
          "name": "amountIn",
          "type": "uint256"
        },
        {
          "internalType": "uint256",
          "name": "amountOutMin",
          "type": "uint256"
        },
        {
          "internalType": "address[]",
          "name": "path",
          "type": "address[]"
        },
        {
          "internalType": "uint256",
          "name": "deadline",
          "type": "uint256"
        },
        {
          "internalType": "address",
          "name": "uniswapAddress",
          "type": "address"
        },
        {
          "internalType": "uint256",
          "name": "gasTokenAmount",
          "type": "uint256"
        }
      ],
      "name": "swapExactTokensForTokens",
      "outputs": [],
      "stateMutability": "nonpayable",
      "type": "function"
    },
    {
      "inputs": [
        {
          "internalType": "address",
          "name": "",
          "type": "address"
        }
      ],
      "name": "tokenAllowed",
      "outputs": [
        {
          "internalType": "bool",
          "name": "",
          "type": "bool"
        }
      ],
      "stateMutability": "view",
      "type": "function"
    },
    {
      "inputs": [
        {
          "internalType": "address",
          "name": "newAdmin",
          "type": "address"
        }
      ],
      "name": "transferAdmin",
      "outputs": [],
      "stateMutability": "nonpayable",
      "type": "function"
    },
    {
      "inputs": [
        {
          "internalType": "address payable",
          "name": "_to",
          "type": "address"
        },
        {
          "internalType": "uint256",
          "name": "_value",
          "type": "uint256"
        }
      ],
      "name": "withdrawEth",
      "outputs": [],
      "stateMutability": "nonpayable",
      "type": "function"
    },
    {
      "inputs": [
        {
          "internalType": "address",
          "name": "_token",
          "type": "address"
        },
        {
          "internalType": "address",
          "name": "_to",
          "type": "address"
        },
        {
          "internalType": "uint256",
          "name": "_value",
          "type": "uint256"
        }
      ],
      "name": "withdrawToken",
      "outputs": [],
      "stateMutability": "nonpayable",
      "type": "function"
    },
    {
      "stateMutability": "payable",
      "type": "receive"
    }
  ],
  "bytecode": {
    "object": "6080604052336000806101000a81548173ffffffffffffffffffffffffffffffffffffffff021916908373ffffffffffffffffffffffffffffffffffffffff160217905550614c6b806100536000396000f3fe6080604052600436106101a05760003560e01c80636c3824ef116100ec5780639870d7fe1161008a578063c91d59fe11610064578063c91d59fe14610578578063e99fb634146105a3578063f6583f68146105cc578063f851a440146105f5576101a7565b80639870d7fe146104fd578063ac8a584a14610526578063bd3b70581461054f576101a7565b806377f50f97116100c657806377f50f971461046b5780637f2de1c1146104825780637f3eea76146104ab57806391ae8a77146104d4576101a7565b80636c3824ef146103f057806375829def14610419578063770e09fd14610442576101a7565b80631e9f8aad116101595780633a71919a116101335780633a71919a146103365780634ae05c7d1461036157806355219d5a1461038a5780636016c85c146103c7576101a7565b80631e9f8aad146102b757806326782247146102e057806327a099d81461030b576101a7565b806301e33667146101a9578063032a0e0e146101d25780630769ae77146101fd578063076f26361461023a5780631b9a91a4146102635780631ba46cfd1461028c576101a7565b366101a757005b005b3480156101b557600080fd5b506101d060048036038101906101cb91906137c1565b610620565b005b3480156101de57600080fd5b506101e76108ab565b6040516101f491906144f0565b60405180910390f35b34801561020957600080fd5b50610224600480360381019061021f919061375c565b6108d1565b604051610231919061461d565b60405180910390f35b34801561024657600080fd5b50610261600480360381019061025c919061375c565b6108f1565b005b34801561026f57600080fd5b5061028a60048036038101906102859190613785565b6109c4565b005b34801561029857600080fd5b506102a1610b0e565b6040516102ae91906144f0565b60405180910390f35b3480156102c357600080fd5b506102de60048036038101906102d9919061375c565b610b34565b005b3480156102ec57600080fd5b506102f5610c07565b60405161030291906144f0565b60405180910390f35b34801561031757600080fd5b50610320610c2d565b60405161032d91906145d9565b60405180910390f35b34801561034257600080fd5b5061034b610cbb565b60405161035891906145d9565b60405180910390f35b34801561036d57600080fd5b506103886004803603810190610383919061392e565b610d49565b005b34801561039657600080fd5b506103b160048036038101906103ac919061375c565b610e24565b6040516103be919061461d565b60405180910390f35b3480156103d357600080fd5b506103ee60048036038101906103e99190613810565b610e44565b005b3480156103fc57600080fd5b506104176004803603810190610412919061392e565b61109d565b005b34801561042557600080fd5b50610440600480360381019061043b919061375c565b611178565b005b34801561044e57600080fd5b506104696004803603810190610464919061375c565b6112bb565b005b34801561047757600080fd5b5061048061138e565b005b34801561048e57600080fd5b506104a960048036038101906104a491906138cb565b6114c4565b005b3480156104b757600080fd5b506104d260048036038101906104cd91906138cb565b6117c3565b005b3480156104e057600080fd5b506104fb60048036038101906104f69190613a19565b611ac2565b005b34801561050957600080fd5b50610524600480360381019061051f919061375c565b611f74565b005b34801561053257600080fd5b5061054d6004803603810190610548919061375c565b6121d0565b005b34801561055b57600080fd5b5061057660048036038101906105719190613877565b6124e6565b005b34801561058457600080fd5b5061058d612662565b60405161059a91906144f0565b60405180910390f35b3480156105af57600080fd5b506105ca60048036038101906105c59190613ac0565b612688565b005b3480156105d857600080fd5b506105f360048036038101906105ee9190613ac0565b612b3d565b005b34801561060157600080fd5b5061060a612ff2565b60405161061791906144f0565b60405180910390f35b6000809054906101000a900473ffffffffffffffffffffffffffffffffffffffff1673ffffffffffffffffffffffffffffffffffffffff163373ffffffffffffffffffffffffffffffffffffffff16146106af576040517f08c379a00000000000000000000000000000000000000000000000000000000081526004016106a690614638565b60405180910390fd5b600073ffffffffffffffffffffffffffffffffffffffff168273ffffffffffffffffffffffffffffffffffffffff16141561071f576040517f08c379a0000000000000000000000000000000000000000000000000000000008152600401610716906147b8565b60405180910390fd5b600060608473ffffffffffffffffffffffffffffffffffffffff1663a9059cbb60e01b8585604051602401610755929190614572565b604051602081830303815290604052907bffffffffffffffffffffffffffffffffffffffffffffffffffffffff19166020820180517bffffffffffffffffffffffffffffffffffffffffffffffffffffffff83818316178352505050506040516107bf91906144d9565b6000604051808303816000865af19150503d80600081146107fc576040519150601f19603f3d011682016040523d82523d6000602084013e610801565b606091505b509150915081610846576040517f08c379a000000000000000000000000000000000000000000000000000000000815260040161083d906146f8565b60405180910390fd5b6000815111156108a457808060200190518101906108649190613973565b6108a3576040517f08c379a000000000000000000000000000000000000000000000000000000000815260040161089a90614738565b60405180910390fd5b5b5050505050565b600660009054906101000a900473ffffffffffffffffffffffffffffffffffffffff1681565b60026020528060005260406000206000915054906101000a900460ff1681565b6000809054906101000a900473ffffffffffffffffffffffffffffffffffffffff1673ffffffffffffffffffffffffffffffffffffffff163373ffffffffffffffffffffffffffffffffffffffff1614610980576040517f08c379a000000000000000000000000000000000000000000000000000000000815260040161097790614638565b60405180910390fd5b80600660006101000a81548173ffffffffffffffffffffffffffffffffffffffff021916908373ffffffffffffffffffffffffffffffffffffffff16021790555050565b6000809054906101000a900473ffffffffffffffffffffffffffffffffffffffff1673ffffffffffffffffffffffffffffffffffffffff163373ffffffffffffffffffffffffffffffffffffffff1614610a53576040517f08c379a0000000000000000000000000000000000000000000000000000000008152600401610a4a90614638565b60405180910390fd5b600073ffffffffffffffffffffffffffffffffffffffff168273ffffffffffffffffffffffffffffffffffffffff161415610ac3576040517f08c379a0000000000000000000000000000000000000000000000000000000008152600401610aba906147b8565b60405180910390fd5b8173ffffffffffffffffffffffffffffffffffffffff166108fc829081150290604051600060405180830381858888f19350505050158015610b09573d6000803e3d6000fd5b505050565b600460009054906101000a900473ffffffffffffffffffffffffffffffffffffffff1681565b6000809054906101000a900473ffffffffffffffffffffffffffffffffffffffff1673ffffffffffffffffffffffffffffffffffffffff163373ffffffffffffffffffffffffffffffffffffffff1614610bc3576040517f08c379a0000000000000000000000000000000000000000000000000000000008152600401610bba90614638565b60405180910390fd5b80600560006101000a81548173ffffffffffffffffffffffffffffffffffffffff021916908373ffffffffffffffffffffffffffffffffffffffff16021790555050565b600160009054906101000a900473ffffffffffffffffffffffffffffffffffffffff1681565b60606003805480602002602001604051908101604052809291908181526020018280548015610cb157602002820191906000526020600020905b8160009054906101000a900473ffffffffffffffffffffffffffffffffffffffff1673ffffffffffffffffffffffffffffffffffffffff1681526020019060010190808311610c67575b5050505050905090565b60606008805480602002602001604051908101604052809291908181526020018280548015610d3f57602002820191906000526020600020905b8160009054906101000a900473ffffffffffffffffffffffffffffffffffffffff1673ffffffffffffffffffffffffffffffffffffffff1681526020019060010190808311610cf5575b5050505050905090565b6000809054906101000a900473ffffffffffffffffffffffffffffffffffffffff1673ffffffffffffffffffffffffffffffffffffffff163373ffffffffffffffffffffffffffffffffffffffff1614610dd8576040517f08c379a0000000000000000000000000000000000000000000000000000000008152600401610dcf90614638565b60405180910390fd5b60008090505b82829050811015610e1f57610e12838383818110610df857fe5b9050602002016020810190610e0d919061375c565b613017565b8080600101915050610dde565b505050565b60076020528060005260406000206000915054906101000a900460ff1681565b6060634ac1478260e01b83604051602401610e5f91906145fb565b604051602081830303815290604052907bffffffffffffffffffffffffffffffffffffffffffffffffffffffff19166020820180517bffffffffffffffffffffffffffffffffffffffffffffffffffffffff838183161783525050505090506000600460009054906101000a900473ffffffffffffffffffffffffffffffffffffffff1673ffffffffffffffffffffffffffffffffffffffff1663c61067e8866000856040518463ffffffff1660e01b8152600401610f2093929190614534565b600060405180830381600087803b158015610f3a57600080fd5b505af1158015610f4e573d6000803e3d6000fd5b505050506040513d6000823e3d601f19601f82011682018060405250810190610f77919061399c565b50905080610fba576040517f08c379a0000000000000000000000000000000000000000000000000000000008152600401610fb190614698565b60405180910390fd5b600083111561109657600560009054906101000a900473ffffffffffffffffffffffffffffffffffffffff1673ffffffffffffffffffffffffffffffffffffffff1663079d229f600660009054906101000a900473ffffffffffffffffffffffffffffffffffffffff16856040518363ffffffff1660e01b8152600401611042929190614572565b602060405180830381600087803b15801561105c57600080fd5b505af1158015611070573d6000803e3d6000fd5b505050506040513d601f19601f8201168201806040525081019061109491906139f0565b505b5050505050565b6000809054906101000a900473ffffffffffffffffffffffffffffffffffffffff1673ffffffffffffffffffffffffffffffffffffffff163373ffffffffffffffffffffffffffffffffffffffff161461112c576040517f08c379a000000000000000000000000000000000000000000000000000000000815260040161112390614638565b60405180910390fd5b60008090505b828290508110156111735761116683838381811061114c57fe5b9050602002016020810190611161919061375c565b61319c565b8080600101915050611132565b505050565b6000809054906101000a900473ffffffffffffffffffffffffffffffffffffffff1673ffffffffffffffffffffffffffffffffffffffff163373ffffffffffffffffffffffffffffffffffffffff1614611207576040517f08c379a00000000000000000000000000000000000000000000000000000000081526004016111fe90614638565b60405180910390fd5b600073ffffffffffffffffffffffffffffffffffffffff168173ffffffffffffffffffffffffffffffffffffffff161415611277576040517f08c379a000000000000000000000000000000000000000000000000000000000815260040161126e90614798565b60405180910390fd5b80600160006101000a81548173ffffffffffffffffffffffffffffffffffffffff021916908373ffffffffffffffffffffffffffffffffffffffff16021790555050565b6000809054906101000a900473ffffffffffffffffffffffffffffffffffffffff1673ffffffffffffffffffffffffffffffffffffffff163373ffffffffffffffffffffffffffffffffffffffff161461134a576040517f08c379a000000000000000000000000000000000000000000000000000000000815260040161134190614638565b60405180910390fd5b80600460006101000a81548173ffffffffffffffffffffffffffffffffffffffff021916908373ffffffffffffffffffffffffffffffffffffffff16021790555050565b3373ffffffffffffffffffffffffffffffffffffffff16600160009054906101000a900473ffffffffffffffffffffffffffffffffffffffff1673ffffffffffffffffffffffffffffffffffffffff161461141e576040517f08c379a0000000000000000000000000000000000000000000000000000000008152600401611415906147d8565b60405180910390fd5b600160009054906101000a900473ffffffffffffffffffffffffffffffffffffffff166000806101000a81548173ffffffffffffffffffffffffffffffffffffffff021916908373ffffffffffffffffffffffffffffffffffffffff1602179055506000600160006101000a81548173ffffffffffffffffffffffffffffffffffffffff021916908373ffffffffffffffffffffffffffffffffffffffff160217905550565b600260003373ffffffffffffffffffffffffffffffffffffffff1673ffffffffffffffffffffffffffffffffffffffff16815260200190815260200160002060009054906101000a900460ff16611550576040517f08c379a0000000000000000000000000000000000000000000000000000000008152600401611547906146b8565b60405180910390fd5b60606040518060200160405280600081525090506060638dae733360e01b85858460405160240161158393929190614904565b604051602081830303815290604052907bffffffffffffffffffffffffffffffffffffffffffffffffffffffff19166020820180517bffffffffffffffffffffffffffffffffffffffffffffffffffffffff838183161783525050505090506000600460009054906101000a900473ffffffffffffffffffffffffffffffffffffffff1673ffffffffffffffffffffffffffffffffffffffff1663c61067e8886000856040518463ffffffff1660e01b815260040161164493929190614534565b600060405180830381600087803b15801561165e57600080fd5b505af1158015611672573d6000803e3d6000fd5b505050506040513d6000823e3d601f19601f8201168201806040525081019061169b919061399c565b509050806116de576040517f08c379a00000000000000000000000000000000000000000000000000000000081526004016116d590614698565b60405180910390fd5b60008411156117ba57600560009054906101000a900473ffffffffffffffffffffffffffffffffffffffff1673ffffffffffffffffffffffffffffffffffffffff1663079d229f600660009054906101000a900473ffffffffffffffffffffffffffffffffffffffff16866040518363ffffffff1660e01b8152600401611766929190614572565b602060405180830381600087803b15801561178057600080fd5b505af1158015611794573d6000803e3d6000fd5b505050506040513d601f19601f820116820180604052508101906117b891906139f0565b505b50505050505050565b600260003373ffffffffffffffffffffffffffffffffffffffff1673ffffffffffffffffffffffffffffffffffffffff16815260200190815260200160002060009054906101000a900460ff1661184f576040517f08c379a0000000000000000000000000000000000000000000000000000000008152600401611846906146b8565b60405180910390fd5b6060604051806020016040528060008152509050606063e67ce70660e01b85858460405160240161188293929190614904565b604051602081830303815290604052907bffffffffffffffffffffffffffffffffffffffffffffffffffffffff19166020820180517bffffffffffffffffffffffffffffffffffffffffffffffffffffffff838183161783525050505090506000600460009054906101000a900473ffffffffffffffffffffffffffffffffffffffff1673ffffffffffffffffffffffffffffffffffffffff1663c61067e8886000856040518463ffffffff1660e01b815260040161194393929190614534565b600060405180830381600087803b15801561195d57600080fd5b505af1158015611971573d6000803e3d6000fd5b505050506040513d6000823e3d601f19601f8201168201806040525081019061199a919061399c565b509050806119dd576040517f08c379a00000000000000000000000000000000000000000000000000000000081526004016119d490614698565b60405180910390fd5b6000841115611ab957600560009054906101000a900473ffffffffffffffffffffffffffffffffffffffff1673ffffffffffffffffffffffffffffffffffffffff1663079d229f600660009054906101000a900473ffffffffffffffffffffffffffffffffffffffff16866040518363ffffffff1660e01b8152600401611a65929190614572565b602060405180830381600087803b158015611a7f57600080fd5b505af1158015611a93573d6000803e3d6000fd5b505050506040513d601f19601f82011682018060405250810190611ab791906139f0565b505b50505050505050565b600260003373ffffffffffffffffffffffffffffffffffffffff1673ffffffffffffffffffffffffffffffffffffffff16815260200190815260200160002060009054906101000a900460ff16611b4e576040517f08c379a0000000000000000000000000000000000000000000000000000000008152600401611b45906146b8565b60405180910390fd5b60028686905014611b94576040517f08c379a0000000000000000000000000000000000000000000000000000000008152600401611b8b906147f8565b60405180910390fd5b6007600087876000818110611ba557fe5b9050602002016020810190611bba919061375c565b73ffffffffffffffffffffffffffffffffffffffff1673ffffffffffffffffffffffffffffffffffffffff16815260200190815260200160002060009054906101000a900460ff16611c41576040517f08c379a0000000000000000000000000000000000000000000000000000000008152600401611c3890614818565b60405180910390fd5b6007600087876001818110611c5257fe5b9050602002016020810190611c67919061375c565b73ffffffffffffffffffffffffffffffffffffffff1673ffffffffffffffffffffffffffffffffffffffff16815260200190815260200160002060009054906101000a900460ff16611cee576040517f08c379a0000000000000000000000000000000000000000000000000000000008152600401611ce5906146d8565b60405180910390fd5b6060637ff36ab560e01b888888600460009054906101000a900473ffffffffffffffffffffffffffffffffffffffff1689604051602401611d3395949392919061485a565b604051602081830303815290604052907bffffffffffffffffffffffffffffffffffffffffffffffffffffffff19166020820180517bffffffffffffffffffffffffffffffffffffffffffffffffffffffff838183161783525050505090506000600460009054906101000a900473ffffffffffffffffffffffffffffffffffffffff1673ffffffffffffffffffffffffffffffffffffffff1663c61067e88686856040518463ffffffff1660e01b8152600401611df39392919061459b565b600060405180830381600087803b158015611e0d57600080fd5b505af1158015611e21573d6000803e3d6000fd5b505050506040513d6000823e3d601f19601f82011682018060405250810190611e4a919061399c565b50905080611e8d576040517f08c379a0000000000000000000000000000000000000000000000000000000008152600401611e8490614698565b60405180910390fd5b6000831115611f6957600560009054906101000a900473ffffffffffffffffffffffffffffffffffffffff1673ffffffffffffffffffffffffffffffffffffffff1663079d229f600660009054906101000a900473ffffffffffffffffffffffffffffffffffffffff16856040518363ffffffff1660e01b8152600401611f15929190614572565b602060405180830381600087803b158015611f2f57600080fd5b505af1158015611f43573d6000803e3d6000fd5b505050506040513d601f19601f82011682018060405250810190611f6791906139f0565b505b505050505050505050565b6000809054906101000a900473ffffffffffffffffffffffffffffffffffffffff1673ffffffffffffffffffffffffffffffffffffffff163373ffffffffffffffffffffffffffffffffffffffff1614612003576040517f08c379a0000000000000000000000000000000000000000000000000000000008152600401611ffa90614638565b60405180910390fd5b600260008273ffffffffffffffffffffffffffffffffffffffff1673ffffffffffffffffffffffffffffffffffffffff16815260200190815260200160002060009054906101000a900460ff1615612090576040517f08c379a000000000000000000000000000000000000000000000000000000000815260040161208790614658565b60405180910390fd5b6032600380549050106120d8576040517f08c379a00000000000000000000000000000000000000000000000000000000081526004016120cf90614758565b60405180910390fd5b7f091a7a4b85135fdd7e8dbc18b12fabe5cc191ea867aa3c2e1a24a102af61d58b81600160405161210a92919061450b565b60405180910390a16001600260008373ffffffffffffffffffffffffffffffffffffffff1673ffffffffffffffffffffffffffffffffffffffff16815260200190815260200160002060006101000a81548160ff0219169083151502179055506003819080600181540180825580915050600190039060005260206000200160009091909190916101000a81548173ffffffffffffffffffffffffffffffffffffffff021916908373ffffffffffffffffffffffffffffffffffffffff16021790555050565b6000809054906101000a900473ffffffffffffffffffffffffffffffffffffffff1673ffffffffffffffffffffffffffffffffffffffff163373ffffffffffffffffffffffffffffffffffffffff161461225f576040517f08c379a000000000000000000000000000000000000000000000000000000000815260040161225690614638565b60405180910390fd5b600260008273ffffffffffffffffffffffffffffffffffffffff1673ffffffffffffffffffffffffffffffffffffffff16815260200190815260200160002060009054906101000a900460ff166122eb576040517f08c379a00000000000000000000000000000000000000000000000000000000081526004016122e290614678565b60405180910390fd5b6000600260008373ffffffffffffffffffffffffffffffffffffffff1673ffffffffffffffffffffffffffffffffffffffff16815260200190815260200160002060006101000a81548160ff02191690831515021790555060008090505b6003805490508110156124e2578173ffffffffffffffffffffffffffffffffffffffff166003828154811061237a57fe5b9060005260206000200160009054906101000a900473ffffffffffffffffffffffffffffffffffffffff1673ffffffffffffffffffffffffffffffffffffffff1614156124d5576003600160038054905003815481106123d657fe5b9060005260206000200160009054906101000a900473ffffffffffffffffffffffffffffffffffffffff166003828154811061240e57fe5b9060005260206000200160006101000a81548173ffffffffffffffffffffffffffffffffffffffff021916908373ffffffffffffffffffffffffffffffffffffffff160217905550600380548061246157fe5b6001900381819060005260206000200160006101000a81549073ffffffffffffffffffffffffffffffffffffffff021916905590557f091a7a4b85135fdd7e8dbc18b12fabe5cc191ea867aa3c2e1a24a102af61d58b8260006040516124c892919061450b565b60405180910390a16124e2565b8080600101915050612349565b5050565b606063d46b02c360e01b826040516024016125019190614838565b604051602081830303815290604052907bffffffffffffffffffffffffffffffffffffffffffffffffffffffff19166020820180517bffffffffffffffffffffffffffffffffffffffffffffffffffffffff838183161783525050505090506000600460009054906101000a900473ffffffffffffffffffffffffffffffffffffffff1673ffffffffffffffffffffffffffffffffffffffff1663c61067e8856000856040518463ffffffff1660e01b81526004016125c293929190614534565b600060405180830381600087803b1580156125dc57600080fd5b505af11580156125f0573d6000803e3d6000fd5b505050506040513d6000823e3d601f19601f82011682018060405250810190612619919061399c565b5090508061265c576040517f08c379a000000000000000000000000000000000000000000000000000000000815260040161265390614698565b60405180910390fd5b50505050565b600560009054906101000a900473ffffffffffffffffffffffffffffffffffffffff1681565b600260003373ffffffffffffffffffffffffffffffffffffffff1673ffffffffffffffffffffffffffffffffffffffff16815260200190815260200160002060009054906101000a900460ff16612714576040517f08c379a000000000000000000000000000000000000000000000000000000000815260040161270b906146b8565b60405180910390fd5b6002858590501461275a576040517f08c379a0000000000000000000000000000000000000000000000000000000008152600401612751906147f8565b60405180910390fd5b600760008686600081811061276b57fe5b9050602002016020810190612780919061375c565b73ffffffffffffffffffffffffffffffffffffffff1673ffffffffffffffffffffffffffffffffffffffff16815260200190815260200160002060009054906101000a900460ff16612807576040517f08c379a00000000000000000000000000000000000000000000000000000000081526004016127fe90614818565b60405180910390fd5b600760008686600181811061281857fe5b905060200201602081019061282d919061375c565b73ffffffffffffffffffffffffffffffffffffffff1673ffffffffffffffffffffffffffffffffffffffff16815260200190815260200160002060009054906101000a900460ff166128b4576040517f08c379a00000000000000000000000000000000000000000000000000000000081526004016128ab906146d8565b60405180910390fd5b60606338ed173960e01b88888888600460009054906101000a900473ffffffffffffffffffffffffffffffffffffffff16896040516024016128fb969594939291906148a8565b604051602081830303815290604052907bffffffffffffffffffffffffffffffffffffffffffffffffffffffff19166020820180517bffffffffffffffffffffffffffffffffffffffffffffffffffffffff838183161783525050505090506000600460009054906101000a900473ffffffffffffffffffffffffffffffffffffffff1673ffffffffffffffffffffffffffffffffffffffff1663c61067e8856000856040518463ffffffff1660e01b81526004016129bc93929190614534565b600060405180830381600087803b1580156129d657600080fd5b505af11580156129ea573d6000803e3d6000fd5b505050506040513d6000823e3d601f19601f82011682018060405250810190612a13919061399c565b50905080612a56576040517f08c379a0000000000000000000000000000000000000000000000000000000008152600401612a4d90614698565b60405180910390fd5b6000831115612b3257600560009054906101000a900473ffffffffffffffffffffffffffffffffffffffff1673ffffffffffffffffffffffffffffffffffffffff1663079d229f600660009054906101000a900473ffffffffffffffffffffffffffffffffffffffff16856040518363ffffffff1660e01b8152600401612ade929190614572565b602060405180830381600087803b158015612af857600080fd5b505af1158015612b0c573d6000803e3d6000fd5b505050506040513d601f19601f82011682018060405250810190612b3091906139f0565b505b505050505050505050565b600260003373ffffffffffffffffffffffffffffffffffffffff1673ffffffffffffffffffffffffffffffffffffffff16815260200190815260200160002060009054906101000a900460ff16612bc9576040517f08c379a0000000000000000000000000000000000000000000000000000000008152600401612bc0906146b8565b60405180910390fd5b60028585905014612c0f576040517f08c379a0000000000000000000000000000000000000000000000000000000008152600401612c06906147f8565b60405180910390fd5b6007600086866000818110612c2057fe5b9050602002016020810190612c35919061375c565b73ffffffffffffffffffffffffffffffffffffffff1673ffffffffffffffffffffffffffffffffffffffff16815260200190815260200160002060009054906101000a900460ff16612cbc576040517f08c379a0000000000000000000000000000000000000000000000000000000008152600401612cb390614818565b60405180910390fd5b6007600086866001818110612ccd57fe5b9050602002016020810190612ce2919061375c565b73ffffffffffffffffffffffffffffffffffffffff1673ffffffffffffffffffffffffffffffffffffffff16815260200190815260200160002060009054906101000a900460ff16612d69576040517f08c379a0000000000000000000000000000000000000000000000000000000008152600401612d60906146d8565b60405180910390fd5b60606318cbafe560e01b88888888600460009054906101000a900473ffffffffffffffffffffffffffffffffffffffff1689604051602401612db0969594939291906148a8565b604051602081830303815290604052907bffffffffffffffffffffffffffffffffffffffffffffffffffffffff19166020820180517bffffffffffffffffffffffffffffffffffffffffffffffffffffffff838183161783525050505090506000600460009054906101000a900473ffffffffffffffffffffffffffffffffffffffff1673ffffffffffffffffffffffffffffffffffffffff1663c61067e8856000856040518463ffffffff1660e01b8152600401612e7193929190614534565b600060405180830381600087803b158015612e8b57600080fd5b505af1158015612e9f573d6000803e3d6000fd5b505050506040513d6000823e3d601f19601f82011682018060405250810190612ec8919061399c565b50905080612f0b576040517f08c379a0000000000000000000000000000000000000000000000000000000008152600401612f0290614698565b60405180910390fd5b6000831115612fe757600560009054906101000a900473ffffffffffffffffffffffffffffffffffffffff1673ffffffffffffffffffffffffffffffffffffffff1663079d229f600660009054906101000a900473ffffffffffffffffffffffffffffffffffffffff16856040518363ffffffff1660e01b8152600401612f93929190614572565b602060405180830381600087803b158015612fad57600080fd5b505af1158015612fc1573d6000803e3d6000fd5b505050506040513d601f19601f82011682018060405250810190612fe591906139f0565b505b505050505050505050565b6000809054906101000a900473ffffffffffffffffffffffffffffffffffffffff1681565b600760008273ffffffffffffffffffffffffffffffffffffffff1673ffffffffffffffffffffffffffffffffffffffff16815260200190815260200160002060009054906101000a900460ff16156130a4576040517f08c379a000000000000000000000000000000000000000000000000000000000815260040161309b90614718565b60405180910390fd5b7f654ff2be0f58b1b437adcc6ff9868ab309fc9979c02811bca8f9a7bd95a217b68160016040516130d692919061450b565b60405180910390a16001600760008373ffffffffffffffffffffffffffffffffffffffff1673ffffffffffffffffffffffffffffffffffffffff16815260200190815260200160002060006101000a81548160ff0219169083151502179055506008819080600181540180825580915050600190039060005260206000200160009091909190916101000a81548173ffffffffffffffffffffffffffffffffffffffff021916908373ffffffffffffffffffffffffffffffffffffffff16021790555050565b600760008273ffffffffffffffffffffffffffffffffffffffff1673ffffffffffffffffffffffffffffffffffffffff16815260200190815260200160002060009054906101000a900460ff16613228576040517f08c379a000000000000000000000000000000000000000000000000000000000815260040161321f90614778565b60405180910390fd5b6000600760008373ffffffffffffffffffffffffffffffffffffffff1673ffffffffffffffffffffffffffffffffffffffff16815260200190815260200160002060006101000a81548160ff02191690831515021790555060008090505b60088054905081101561341f578173ffffffffffffffffffffffffffffffffffffffff16600882815481106132b757fe5b9060005260206000200160009054906101000a900473ffffffffffffffffffffffffffffffffffffffff1673ffffffffffffffffffffffffffffffffffffffff1614156134125760086001600880549050038154811061331357fe5b9060005260206000200160009054906101000a900473ffffffffffffffffffffffffffffffffffffffff166008828154811061334b57fe5b9060005260206000200160006101000a81548173ffffffffffffffffffffffffffffffffffffffff021916908373ffffffffffffffffffffffffffffffffffffffff160217905550600880548061339e57fe5b6001900381819060005260206000200160006101000a81549073ffffffffffffffffffffffffffffffffffffffff021916905590557f654ff2be0f58b1b437adcc6ff9868ab309fc9979c02811bca8f9a7bd95a217b682600060405161340592919061450b565b60405180910390a161341f565b8080600101915050613286565b5050565b60008135905061343281614bd9565b92915050565b60008135905061344781614bf0565b92915050565b60008083601f84011261345f57600080fd5b8235905067ffffffffffffffff81111561347857600080fd5b60208301915083602082028301111561349057600080fd5b9250929050565b600082601f8301126134a857600080fd5b81356134bb6134b68261496f565b614942565b9150818183526020840193506020810190508360005b8381101561350157813586016134e788826135e4565b8452602084019350602083019250506001810190506134d1565b5050505092915050565b60008151905061351a81614c07565b92915050565b600082601f83011261353157600080fd5b813561354461353f82614997565b614942565b9150808252602083016020830185838301111561356057600080fd5b61356b838284614b86565b50505092915050565b600082601f83011261358557600080fd5b815161359861359382614997565b614942565b915080825260208301602083018583830111156135b457600080fd5b6135bf838284614b95565b50505092915050565b600061018082840312156135db57600080fd5b81905092915050565b600061018082840312156135f757600080fd5b613602610180614942565b9050600061361284828501613423565b600083015250602061362684828501613423565b602083015250604061363a84828501613423565b604083015250606061364e84828501613423565b606083015250608061366284828501613732565b60808301525060a061367684828501613732565b60a08301525060c061368a84828501613732565b60c08301525060e061369e84828501613732565b60e0830152506101006136b384828501613732565b610100830152506101206136c984828501613732565b6101208301525061014082013567ffffffffffffffff8111156136eb57600080fd5b6136f784828501613520565b6101408301525061016082013567ffffffffffffffff81111561371957600080fd5b61372584828501613520565b6101608301525092915050565b60008135905061374181614c1e565b92915050565b60008151905061375681614c1e565b92915050565b60006020828403121561376e57600080fd5b600061377c84828501613423565b91505092915050565b6000806040838503121561379857600080fd5b60006137a685828601613438565b92505060206137b785828601613732565b9150509250929050565b6000806000606084860312156137d657600080fd5b60006137e486828701613423565b93505060206137f586828701613423565b925050604061380686828701613732565b9150509250925092565b60008060006060848603121561382557600080fd5b600061383386828701613423565b935050602084013567ffffffffffffffff81111561385057600080fd5b61385c86828701613497565b925050604061386d86828701613732565b9150509250925092565b6000806040838503121561388a57600080fd5b600061389885828601613423565b925050602083013567ffffffffffffffff8111156138b557600080fd5b6138c1858286016135c8565b9150509250929050565b600080600080608085870312156138e157600080fd5b60006138ef87828801613423565b945050602061390087828801613732565b935050604061391187828801613732565b925050606061392287828801613732565b91505092959194509250565b6000806020838503121561394157600080fd5b600083013567ffffffffffffffff81111561395b57600080fd5b6139678582860161344d565b92509250509250929050565b60006020828403121561398557600080fd5b60006139938482850161350b565b91505092915050565b600080604083850312156139af57600080fd5b60006139bd8582860161350b565b925050602083015167ffffffffffffffff8111156139da57600080fd5b6139e685828601613574565b9150509250929050565b600060208284031215613a0257600080fd5b6000613a1084828501613747565b91505092915050565b600080600080600080600060c0888a031215613a3457600080fd5b6000613a428a828b01613732565b975050602088013567ffffffffffffffff811115613a5f57600080fd5b613a6b8a828b0161344d565b96509650506040613a7e8a828b01613732565b9450506060613a8f8a828b01613423565b9350506080613aa08a828b01613732565b92505060a0613ab18a828b01613732565b91505092959891949750929550565b600080600080600080600060c0888a031215613adb57600080fd5b6000613ae98a828b01613732565b9750506020613afa8a828b01613732565b965050604088013567ffffffffffffffff811115613b1757600080fd5b613b238a828b0161344d565b95509550506060613b368a828b01613732565b9350506080613b478a828b01613423565b92505060a0613b588a828b01613732565b91505092959891949750929550565b6000613b738383613b93565b60208301905092915050565b6000613b8b83836143b0565b905092915050565b613b9c81614b1a565b82525050565b613bab81614b1a565b82525050565b6000613bbd8385614a35565b9350613bc8826149c3565b8060005b85811015613c0157613bde8284614a95565b613be88882613b67565b9750613bf383614a0e565b925050600181019050613bcc565b5085925050509392505050565b6000613c19826149ed565b613c238185614a35565b9350613c2e836149cd565b8060005b83811015613c5f578151613c468882613b67565b9750613c5183614a1b565b925050600181019050613c32565b5085935050505092915050565b6000613c77826149f8565b613c818185614a46565b935083602082028501613c93856149dd565b8060005b85811015613ccf5784840389528151613cb08582613b7f565b9450613cbb83614a28565b925060208a01995050600181019050613c97565b50829750879550505050505092915050565b613cea81614b3e565b82525050565b6000613cfc8385614a57565b9350613d09838584614b86565b613d1283614bc8565b840190509392505050565b6000613d2882614a03565b613d328185614a57565b9350613d42818560208601614b95565b613d4b81614bc8565b840191505092915050565b6000613d6182614a03565b613d6b8185614a68565b9350613d7b818560208601614b95565b613d8481614bc8565b840191505092915050565b6000613d9a82614a03565b613da48185614a79565b9350613db4818560208601614b95565b80840191505092915050565b613dc981614b74565b82525050565b6000613ddc600983614a84565b91507f6f6e6c7941646d696e00000000000000000000000000000000000000000000006000830152602082019050919050565b6000613e1c601683614a84565b91507f6475706c696361746564206e65774f70657261746f72000000000000000000006000830152602082019050919050565b6000613e5c602683614a84565b91507f6f70657261746f72206973206e6f7420696e20746865206f70657261746f727360008301527f47726f75702e00000000000000000000000000000000000000000000000000006020830152604082019050919050565b6000613ec2601283614a84565b91507f62726964676543616c6c206661696c65642100000000000000000000000000006000830152602082019050919050565b6000613f02600c83614a84565b91507f6f6e6c794f70657261746f7200000000000000000000000000000000000000006000830152602082019050919050565b6000613f42601d83614a84565b91507f706174685b315d20746f6b656e206973206e6f7420616c6c6f7765642e0000006000830152602082019050919050565b6000613f82601e83614a84565b91507f4552433230285f746f6b656e292e7472616e73666572206661696c65642e00006000830152602082019050919050565b6000613fc2601083614a84565b91507f6475706c69636174656420746f6b656e000000000000000000000000000000006000830152602082019050919050565b6000614002602c83614a84565b91507f4552433230285f746f6b656e292e7472616e736665722072657475726e20646160008301527f74612069732066616c73652e00000000000000000000000000000000000000006020830152604082019050919050565b6000614068602883614a84565b91507f6f70657261746f727347726f75702e6c656e677468203e3d204d41585f47524f60008301527f55505f53495a452e0000000000000000000000000000000000000000000000006020830152604082019050919050565b60006140ce602083614a84565b91507f746f6b656e206973206e6f7420696e2074686520746f6b656e7347726f75702e6000830152602082019050919050565b600061410e601683614a84565b91507f6e657741646d696e203d3d2061646472657373283029000000000000000000006000830152602082019050919050565b600061414e601183614a84565b91507f5f746f203d3d20616464726573732830290000000000000000000000000000006000830152602082019050919050565b600061418e601a83614a84565b91507f70656e64696e6741646d696e20213d206d73672e73656e6465720000000000006000830152602082019050919050565b60006141ce601083614a84565b91507f706174682e6c656e67746820213d2032000000000000000000000000000000006000830152602082019050919050565b600061420e601d83614a84565b91507f706174685b305d20746f6b656e206973206e6f7420616c6c6f7765642e0000006000830152602082019050919050565b600061018083016142556000840184614a95565b6142626000860182613b93565b506142706020840184614a95565b61427d6020860182613b93565b5061428b6040840184614a95565b6142986040860182613b93565b506142a66060840184614a95565b6142b36060860182613b93565b506142c16080840184614b03565b6142ce60808601826144bb565b506142dc60a0840184614b03565b6142e960a08601826144bb565b506142f760c0840184614b03565b61430460c08601826144bb565b5061431260e0840184614b03565b61431f60e08601826144bb565b5061432e610100840184614b03565b61433c6101008601826144bb565b5061434b610120840184614b03565b6143596101208601826144bb565b50614368610140840184614aac565b85830361014087015261437c838284613cf0565b9250505061438e610160840184614aac565b8583036101608701526143a2838284613cf0565b925050508091505092915050565b6000610180830160008301516143c96000860182613b93565b5060208301516143dc6020860182613b93565b5060408301516143ef6040860182613b93565b5060608301516144026060860182613b93565b50608083015161441560808601826144bb565b5060a083015161442860a08601826144bb565b5060c083015161443b60c08601826144bb565b5060e083015161444e60e08601826144bb565b506101008301516144636101008601826144bb565b506101208301516144786101208601826144bb565b506101408301518482036101408601526144928282613d1d565b9150506101608301518482036101608601526144ae8282613d1d565b9150508091505092915050565b6144c481614b6a565b82525050565b6144d381614b6a565b82525050565b60006144e58284613d8f565b915081905092915050565b60006020820190506145056000830184613ba2565b92915050565b60006040820190506145206000830185613ba2565b61452d6020830184613ce1565b9392505050565b60006060820190506145496000830186613ba2565b6145566020830185613dc0565b81810360408301526145688184613d56565b9050949350505050565b60006040820190506145876000830185613ba2565b61459460208301846144ca565b9392505050565b60006060820190506145b06000830186613ba2565b6145bd60208301856144ca565b81810360408301526145cf8184613d56565b9050949350505050565b600060208201905081810360008301526145f38184613c0e565b905092915050565b600060208201905081810360008301526146158184613c6c565b905092915050565b60006020820190506146326000830184613ce1565b92915050565b6000602082019050818103600083015261465181613dcf565b9050919050565b6000602082019050818103600083015261467181613e0f565b9050919050565b6000602082019050818103600083015261469181613e4f565b9050919050565b600060208201905081810360008301526146b181613eb5565b9050919050565b600060208201905081810360008301526146d181613ef5565b9050919050565b600060208201905081810360008301526146f181613f35565b9050919050565b6000602082019050818103600083015261471181613f75565b9050919050565b6000602082019050818103600083015261473181613fb5565b9050919050565b6000602082019050818103600083015261475181613ff5565b9050919050565b600060208201905081810360008301526147718161405b565b9050919050565b60006020820190508181036000830152614791816140c1565b9050919050565b600060208201905081810360008301526147b181614101565b9050919050565b600060208201905081810360008301526147d181614141565b9050919050565b600060208201905081810360008301526147f181614181565b9050919050565b60006020820190508181036000830152614811816141c1565b9050919050565b6000602082019050818103600083015261483181614201565b9050919050565b600060208201905081810360008301526148528184614241565b905092915050565b600060808201905061486f60008301886144ca565b8181036020830152614882818688613bb1565b90506148916040830185613ba2565b61489e60608301846144ca565b9695505050505050565b600060a0820190506148bd60008301896144ca565b6148ca60208301886144ca565b81810360408301526148dd818688613bb1565b90506148ec6060830185613ba2565b6148f960808301846144ca565b979650505050505050565b600060608201905061491960008301866144ca565b61492660208301856144ca565b81810360408301526149388184613d56565b9050949350505050565b6000604051905081810181811067ffffffffffffffff8211171561496557600080fd5b8060405250919050565b600067ffffffffffffffff82111561498657600080fd5b602082029050602081019050919050565b600067ffffffffffffffff8211156149ae57600080fd5b601f19601f8301169050602081019050919050565b6000819050919050565b6000819050602082019050919050565b6000819050602082019050919050565b600081519050919050565b600081519050919050565b600081519050919050565b6000602082019050919050565b6000602082019050919050565b6000602082019050919050565b600082825260208201905092915050565b600082825260208201905092915050565b600082825260208201905092915050565b600082825260208201905092915050565b600081905092915050565b600082825260208201905092915050565b6000614aa46020840184613423565b905092915050565b60008083356001602003843603038112614ac557600080fd5b83810192508235915060208301925067ffffffffffffffff821115614ae957600080fd5b600182023603841315614afb57600080fd5b509250929050565b6000614b126020840184613732565b905092915050565b6000614b2582614b4a565b9050919050565b6000614b3782614b4a565b9050919050565b60008115159050919050565b600073ffffffffffffffffffffffffffffffffffffffff82169050919050565b6000819050919050565b6000614b7f82614b6a565b9050919050565b82818337600083830152505050565b60005b83811015614bb3578082015181840152602081019050614b98565b83811115614bc2576000848401525b50505050565b6000601f19601f8301169050919050565b614be281614b1a565b8114614bed57600080fd5b50565b614bf981614b2c565b8114614c0457600080fd5b50565b614c1081614b3e565b8114614c1b57600080fd5b50565b614c2781614b6a565b8114614c3257600080fd5b5056fea2646970667358221220bef64553bbe8256b37245e2b774d6ed9f46ac6d0dabe800e62c2c4849cc4a3d764736f6c63430006060033"
  }
}