{
  "opcodeHash": "0xdb481aaf111e04b5e77f10880d1e4536cd244b581bb07457299bea6ff9ac6569",
  "metalessHash": "0x47b5b4832d178c63834d30bd60cfcc5350e6e12b10b2b6b24b9504b4c1035ecc",
  "runtimeHash": "0xdc34a9f5fca3b848a75dd35a6ed0852dce76c2392ccfc853acfb250964681dae",
  "encodedMetadata": [
    {
      "ipfs": "/ipfs/QmX7fDxD1xhAP6rtBoszmVBNpvJdBGYyk8YGfhn1KsraQs",
      "solc": "0.6.12"
    }
  ],
  "abi": [
    {
      "inputs": [
        {
          "internalType": "string",
          "name": "_tokenName",
          "type": "string"
        },
        {
          "internalType": "string",
          "name": "_tokenSymbol",
          "type": "string"
        },
        {
          "internalType": "uint256",
          "name": "initialSupply",
          "type": "uint256"
        }
      ],
      "stateMutability": "nonpayable",
      "type": "constructor"
    },
    {
      "anonymous": false,
      "inputs": [
        {
          "indexed": true,
          "internalType": "address",
          "name": "spender",
          "type": "address"
        },
        {
          "indexed": true,
          "internalType": "address",
          "name": "recipient",
          "type": "address"
        },
        {
          "indexed": false,
          "internalType": "uint256",
          "name": "tokens",
          "type": "uint256"
        }
      ],
      "name": "Approved",
      "type": "event"
    },
    {
      "anonymous": false,
      "inputs": [
        {
          "indexed": true,
          "internalType": "address",
          "name": "buyer",
          "type": "address"
        },
        {
          "indexed": false,
          "internalType": "uint256",
          "name": "tokensTransfered",
          "type": "uint256"
        },
        {
          "indexed": false,
          "internalType": "uint256",
          "name": "tokenToTransfer",
          "type": "uint256"
        },
        {
          "indexed": false,
          "internalType": "uint256",
          "name": "referralBal",
          "type": "uint256"
        }
      ],
      "name": "Buy",
      "type": "event"
    },
    {
      "anonymous": false,
      "inputs": [
        {
          "indexed": true,
          "internalType": "address",
          "name": "from",
          "type": "address"
        },
        {
          "indexed": true,
          "internalType": "address",
          "name": "to",
          "type": "address"
        },
        {
          "indexed": false,
          "internalType": "uint256",
          "name": "tokens",
          "type": "uint256"
        }
      ],
      "name": "Transfer",
      "type": "event"
    },
    {
      "anonymous": false,
      "inputs": [
        {
          "indexed": true,
          "internalType": "address",
          "name": "holder",
          "type": "address"
        },
        {
          "indexed": false,
          "internalType": "uint256",
          "name": "amount",
          "type": "uint256"
        }
      ],
      "name": "onWithdrawal",
      "type": "event"
    },
    {
      "anonymous": false,
      "inputs": [
        {
          "indexed": true,
          "internalType": "address",
          "name": "seller",
          "type": "address"
        },
        {
          "indexed": false,
          "internalType": "uint256",
          "name": "calculatedEtherTransfer",
          "type": "uint256"
        },
        {
          "indexed": false,
          "internalType": "uint256",
          "name": "tokens",
          "type": "uint256"
        }
      ],
      "name": "sold",
      "type": "event"
    },
    {
      "anonymous": false,
      "inputs": [
        {
          "indexed": true,
          "internalType": "address",
          "name": "staker",
          "type": "address"
        },
        {
          "indexed": false,
          "internalType": "uint256",
          "name": "amount",
          "type": "uint256"
        },
        {
          "indexed": false,
          "internalType": "uint256",
          "name": "timing",
          "type": "uint256"
        }
      ],
      "name": "stake",
      "type": "event"
    },
    {
      "inputs": [
        {
          "internalType": "address",
          "name": "user",
          "type": "address"
        },
        {
          "internalType": "uint256",
          "name": "numberOfTokens",
          "type": "uint256"
        }
      ],
      "name": "add_level_income",
      "outputs": [
        {
          "internalType": "bool",
          "name": "",
          "type": "bool"
        }
      ],
      "stateMutability": "nonpayable",
      "type": "function"
    },
    {
      "inputs": [
        {
          "internalType": "address",
          "name": "",
          "type": "address"
        }
      ],
      "name": "allTimeBuy",
      "outputs": [
        {
          "internalType": "uint256",
          "name": "",
          "type": "uint256"
        }
      ],
      "stateMutability": "view",
      "type": "function"
    },
    {
      "inputs": [
        {
          "internalType": "address",
          "name": "",
          "type": "address"
        }
      ],
      "name": "allTimeSell",
      "outputs": [
        {
          "internalType": "uint256",
          "name": "",
          "type": "uint256"
        }
      ],
      "stateMutability": "view",
      "type": "function"
    },
    {
      "inputs": [
        {
          "internalType": "address",
          "name": "",
          "type": "address"
        },
        {
          "internalType": "address",
          "name": "",
          "type": "address"
        }
      ],
      "name": "allowed",
      "outputs": [
        {
          "internalType": "uint256",
          "name": "",
          "type": "uint256"
        }
      ],
      "stateMutability": "view",
      "type": "function"
    },
    {
      "inputs": [
        {
          "internalType": "uint256",
          "name": "_amountOfTokens",
          "type": "uint256"
        },
        {
          "internalType": "address",
          "name": "_toAddress",
          "type": "address"
        }
      ],
      "name": "alot_tokens",
      "outputs": [
        {
          "internalType": "bool",
          "name": "",
          "type": "bool"
        }
      ],
      "stateMutability": "nonpayable",
      "type": "function"
    },
    {
      "inputs": [
        {
          "internalType": "address",
          "name": "_customerAddress",
          "type": "address"
        }
      ],
      "name": "balanceOf",
      "outputs": [
        {
          "internalType": "uint256",
          "name": "",
          "type": "uint256"
        }
      ],
      "stateMutability": "view",
      "type": "function"
    },
    {
      "inputs": [],
      "name": "basePrice1",
      "outputs": [
        {
          "internalType": "uint256",
          "name": "",
          "type": "uint256"
        }
      ],
      "stateMutability": "view",
      "type": "function"
    },
    {
      "inputs": [],
      "name": "basePrice10",
      "outputs": [
        {
          "internalType": "uint256",
          "name": "",
          "type": "uint256"
        }
      ],
      "stateMutability": "view",
      "type": "function"
    },
    {
      "inputs": [],
      "name": "basePrice11",
      "outputs": [
        {
          "internalType": "uint256",
          "name": "",
          "type": "uint256"
        }
      ],
      "stateMutability": "view",
      "type": "function"
    },
    {
      "inputs": [],
      "name": "basePrice12",
      "outputs": [
        {
          "internalType": "uint256",
          "name": "",
          "type": "uint256"
        }
      ],
      "stateMutability": "view",
      "type": "function"
    },
    {
      "inputs": [],
      "name": "basePrice13",
      "outputs": [
        {
          "internalType": "uint256",
          "name": "",
          "type": "uint256"
        }
      ],
      "stateMutability": "view",
      "type": "function"
    },
    {
      "inputs": [],
      "name": "basePrice14",
      "outputs": [
        {
          "internalType": "uint256",
          "name": "",
          "type": "uint256"
        }
      ],
      "stateMutability": "view",
      "type": "function"
    },
    {
      "inputs": [],
      "name": "basePrice15",
      "outputs": [
        {
          "internalType": "uint256",
          "name": "",
          "type": "uint256"
        }
      ],
      "stateMutability": "view",
      "type": "function"
    },
    {
      "inputs": [],
      "name": "basePrice16",
      "outputs": [
        {
          "internalType": "uint256",
          "name": "",
          "type": "uint256"
        }
      ],
      "stateMutability": "view",
      "type": "function"
    },
    {
      "inputs": [],
      "name": "basePrice2",
      "outputs": [
        {
          "internalType": "uint256",
          "name": "",
          "type": "uint256"
        }
      ],
      "stateMutability": "view",
      "type": "function"
    },
    {
      "inputs": [],
      "name": "basePrice3",
      "outputs": [
        {
          "internalType": "uint256",
          "name": "",
          "type": "uint256"
        }
      ],
      "stateMutability": "view",
      "type": "function"
    },
    {
      "inputs": [],
      "name": "basePrice4",
      "outputs": [
        {
          "internalType": "uint256",
          "name": "",
          "type": "uint256"
        }
      ],
      "stateMutability": "view",
      "type": "function"
    },
    {
      "inputs": [],
      "name": "basePrice5",
      "outputs": [
        {
          "internalType": "uint256",
          "name": "",
          "type": "uint256"
        }
      ],
      "stateMutability": "view",
      "type": "function"
    },
    {
      "inputs": [],
      "name": "basePrice6",
      "outputs": [
        {
          "internalType": "uint256",
          "name": "",
          "type": "uint256"
        }
      ],
      "stateMutability": "view",
      "type": "function"
    },
    {
      "inputs": [],
      "name": "basePrice7",
      "outputs": [
        {
          "internalType": "uint256",
          "name": "",
          "type": "uint256"
        }
      ],
      "stateMutability": "view",
      "type": "function"
    },
    {
      "inputs": [],
      "name": "basePrice8",
      "outputs": [
        {
          "internalType": "uint256",
          "name": "",
          "type": "uint256"
        }
      ],
      "stateMutability": "view",
      "type": "function"
    },
    {
      "inputs": [],
      "name": "basePrice9",
      "outputs": [
        {
          "internalType": "uint256",
          "name": "",
          "type": "uint256"
        }
      ],
      "stateMutability": "view",
      "type": "function"
    },
    {
      "inputs": [
        {
          "internalType": "address",
          "name": "_referredBy",
          "type": "address"
        }
      ],
      "name": "buy_token",
      "outputs": [
        {
          "internalType": "bool",
          "name": "",
          "type": "bool"
        }
      ],
      "stateMutability": "payable",
      "type": "function"
    },
    {
      "inputs": [],
      "name": "contractAddress",
      "outputs": [
        {
          "internalType": "address",
          "name": "",
          "type": "address"
        }
      ],
      "stateMutability": "view",
      "type": "function"
    },
    {
      "inputs": [],
      "name": "currentPrice",
      "outputs": [
        {
          "internalType": "uint256",
          "name": "",
          "type": "uint256"
        }
      ],
      "stateMutability": "view",
      "type": "function"
    },
    {
      "inputs": [],
      "name": "decimal",
      "outputs": [
        {
          "internalType": "uint8",
          "name": "",
          "type": "uint8"
        }
      ],
      "stateMutability": "view",
      "type": "function"
    },
    {
      "inputs": [],
      "name": "decimals",
      "outputs": [
        {
          "internalType": "uint8",
          "name": "",
          "type": "uint8"
        }
      ],
      "stateMutability": "view",
      "type": "function"
    },
    {
      "inputs": [],
      "name": "destruct",
      "outputs": [],
      "stateMutability": "nonpayable",
      "type": "function"
    },
    {
      "inputs": [
        {
          "internalType": "uint256",
          "name": "incomingEtherWei",
          "type": "uint256"
        }
      ],
      "name": "etherToToken",
      "outputs": [
        {
          "internalType": "uint256",
          "name": "",
          "type": "uint256"
        }
      ],
      "stateMutability": "view",
      "type": "function"
    },
    {
      "inputs": [
        {
          "internalType": "uint256",
          "name": "tokenToSell",
          "type": "uint256"
        }
      ],
      "name": "etherValueTransfer",
      "outputs": [
        {
          "internalType": "uint256",
          "name": "",
          "type": "uint256"
        }
      ],
      "stateMutability": "view",
      "type": "function"
    },
    {
      "inputs": [
        {
          "internalType": "address",
          "name": "",
          "type": "address"
        }
      ],
      "name": "gen_tree",
      "outputs": [
        {
          "internalType": "address",
          "name": "",
          "type": "address"
        }
      ],
      "stateMutability": "view",
      "type": "function"
    },
    {
      "inputs": [],
      "name": "getCurrentPrice",
      "outputs": [
        {
          "internalType": "uint256",
          "name": "",
          "type": "uint256"
        }
      ],
      "stateMutability": "view",
      "type": "function"
    },
    {
      "inputs": [
        {
          "internalType": "uint256",
          "name": "incomingEther",
          "type": "uint256"
        }
      ],
      "name": "getTaxedEther",
      "outputs": [
        {
          "internalType": "uint256",
          "name": "",
          "type": "uint256"
        }
      ],
      "stateMutability": "pure",
      "type": "function"
    },
    {
      "inputs": [],
      "name": "get_level_income",
      "outputs": [
        {
          "internalType": "uint256",
          "name": "",
          "type": "uint256"
        }
      ],
      "stateMutability": "view",
      "type": "function"
    },
    {
      "inputs": [
        {
          "internalType": "uint256",
          "name": "_amount",
          "type": "uint256"
        },
        {
          "internalType": "uint256",
          "name": "_timing",
          "type": "uint256"
        }
      ],
      "name": "holdStake",
      "outputs": [],
      "stateMutability": "nonpayable",
      "type": "function"
    },
    {
      "inputs": [],
      "name": "initialPriceIncrement",
      "outputs": [
        {
          "internalType": "uint256",
          "name": "",
          "type": "uint256"
        }
      ],
      "stateMutability": "view",
      "type": "function"
    },
    {
      "inputs": [
        {
          "internalType": "address",
          "name": "",
          "type": "address"
        }
      ],
      "name": "levelIncome",
      "outputs": [
        {
          "internalType": "uint256",
          "name": "",
          "type": "uint256"
        }
      ],
      "stateMutability": "view",
      "type": "function"
    },
    {
      "inputs": [
        {
          "internalType": "uint256",
          "name": "_mintedAmount",
          "type": "uint256"
        }
      ],
      "name": "mintToken",
      "outputs": [],
      "stateMutability": "nonpayable",
      "type": "function"
    },
    {
      "inputs": [
        {
          "internalType": "address",
          "name": "",
          "type": "address"
        }
      ],
      "name": "mode",
      "outputs": [
        {
          "internalType": "uint256",
          "name": "",
          "type": "uint256"
        }
      ],
      "stateMutability": "view",
      "type": "function"
    },
    {
      "inputs": [],
      "name": "name",
      "outputs": [
        {
          "internalType": "string",
          "name": "",
          "type": "string"
        }
      ],
      "stateMutability": "view",
      "type": "function"
    },
    {
      "inputs": [],
      "name": "overallReferToken",
      "outputs": [
        {
          "internalType": "uint256",
          "name": "",
          "type": "uint256"
        }
      ],
      "stateMutability": "view",
      "type": "function"
    },
    {
      "inputs": [
        {
          "internalType": "address",
          "name": "",
          "type": "address"
        }
      ],
      "name": "rewardIncome",
      "outputs": [
        {
          "internalType": "uint256",
          "name": "",
          "type": "uint256"
        }
      ],
      "stateMutability": "view",
      "type": "function"
    },
    {
      "inputs": [
        {
          "internalType": "uint256",
          "name": "tokenToSell",
          "type": "uint256"
        }
      ],
      "name": "sell",
      "outputs": [
        {
          "internalType": "bool",
          "name": "",
          "type": "bool"
        }
      ],
      "stateMutability": "nonpayable",
      "type": "function"
    },
    {
      "inputs": [
        {
          "internalType": "string",
          "name": "_name",
          "type": "string"
        }
      ],
      "name": "setName",
      "outputs": [],
      "stateMutability": "nonpayable",
      "type": "function"
    },
    {
      "inputs": [
        {
          "internalType": "string",
          "name": "_symbol",
          "type": "string"
        }
      ],
      "name": "setSymbol",
      "outputs": [],
      "stateMutability": "nonpayable",
      "type": "function"
    },
    {
      "inputs": [
        {
          "internalType": "address",
          "name": "",
          "type": "address"
        }
      ],
      "name": "stakeLedger",
      "outputs": [
        {
          "internalType": "uint256",
          "name": "",
          "type": "uint256"
        }
      ],
      "stateMutability": "view",
      "type": "function"
    },
    {
      "inputs": [
        {
          "internalType": "address",
          "name": "_customerAddress",
          "type": "address"
        }
      ],
      "name": "stake_balance",
      "outputs": [
        {
          "internalType": "uint256",
          "name": "",
          "type": "uint256"
        }
      ],
      "stateMutability": "view",
      "type": "function"
    },
    {
      "inputs": [],
      "name": "symbol",
      "outputs": [
        {
          "internalType": "string",
          "name": "",
          "type": "string"
        }
      ],
      "stateMutability": "view",
      "type": "function"
    },
    {
      "inputs": [
        {
          "internalType": "address",
          "name": "",
          "type": "address"
        }
      ],
      "name": "tokenLedger",
      "outputs": [
        {
          "internalType": "uint256",
          "name": "",
          "type": "uint256"
        }
      ],
      "stateMutability": "view",
      "type": "function"
    },
    {
      "inputs": [],
      "name": "tokenSold",
      "outputs": [
        {
          "internalType": "uint256",
          "name": "",
          "type": "uint256"
        }
      ],
      "stateMutability": "view",
      "type": "function"
    },
    {
      "inputs": [
        {
          "internalType": "uint256",
          "name": "tokenToSell",
          "type": "uint256"
        }
      ],
      "name": "tokenToEther",
      "outputs": [
        {
          "internalType": "uint256",
          "name": "",
          "type": "uint256"
        }
      ],
      "stateMutability": "view",
      "type": "function"
    },
    {
      "inputs": [],
      "name": "token_name",
      "outputs": [
        {
          "internalType": "string",
          "name": "",
          "type": "string"
        }
      ],
      "stateMutability": "view",
      "type": "function"
    },
    {
      "inputs": [],
      "name": "token_price",
      "outputs": [
        {
          "internalType": "uint256",
          "name": "",
          "type": "uint256"
        }
      ],
      "stateMutability": "view",
      "type": "function"
    },
    {
      "inputs": [],
      "name": "token_symbol",
      "outputs": [
        {
          "internalType": "string",
          "name": "",
          "type": "string"
        }
      ],
      "stateMutability": "view",
      "type": "function"
    },
    {
      "inputs": [],
      "name": "totalEthereumBalance",
      "outputs": [
        {
          "internalType": "uint256",
          "name": "",
          "type": "uint256"
        }
      ],
      "stateMutability": "view",
      "type": "function"
    },
    {
      "inputs": [],
      "name": "totalSupply",
      "outputs": [
        {
          "internalType": "uint256",
          "name": "",
          "type": "uint256"
        }
      ],
      "stateMutability": "view",
      "type": "function"
    },
    {
      "inputs": [],
      "name": "totalSupply_",
      "outputs": [
        {
          "internalType": "uint256",
          "name": "",
          "type": "uint256"
        }
      ],
      "stateMutability": "view",
      "type": "function"
    },
    {
      "inputs": [],
      "name": "total_stake_funds",
      "outputs": [
        {
          "internalType": "uint256",
          "name": "",
          "type": "uint256"
        }
      ],
      "stateMutability": "view",
      "type": "function"
    },
    {
      "inputs": [
        {
          "internalType": "address",
          "name": "_toAddress",
          "type": "address"
        },
        {
          "internalType": "uint256",
          "name": "_amountOfTokens",
          "type": "uint256"
        }
      ],
      "name": "transfer",
      "outputs": [
        {
          "internalType": "bool",
          "name": "",
          "type": "bool"
        }
      ],
      "stateMutability": "nonpayable",
      "type": "function"
    },
    {
      "inputs": [
        {
          "internalType": "address",
          "name": "_from",
          "type": "address"
        },
        {
          "internalType": "address",
          "name": "_to",
          "type": "address"
        },
        {
          "internalType": "uint256",
          "name": "tokens",
          "type": "uint256"
        }
      ],
      "name": "transferFrom",
      "outputs": [
        {
          "internalType": "bool",
          "name": "success",
          "type": "bool"
        }
      ],
      "stateMutability": "nonpayable",
      "type": "function"
    },
    {
      "inputs": [
        {
          "internalType": "uint256",
          "name": "_amount",
          "type": "uint256"
        },
        {
          "internalType": "address",
          "name": "_customerAddress",
          "type": "address"
        }
      ],
      "name": "unstake",
      "outputs": [],
      "stateMutability": "nonpayable",
      "type": "function"
    },
    {
      "inputs": [
        {
          "internalType": "uint256",
          "name": "_newPrice",
          "type": "uint256"
        }
      ],
      "name": "updateCurrentPrice",
      "outputs": [
        {
          "internalType": "bool",
          "name": "",
          "type": "bool"
        }
      ],
      "stateMutability": "nonpayable",
      "type": "function"
    },
    {
      "inputs": [
        {
          "internalType": "uint256",
          "name": "numberOfTokens",
          "type": "uint256"
        },
        {
          "internalType": "address",
          "name": "_customerAddress",
          "type": "address"
        }
      ],
      "name": "withdrawReward",
      "outputs": [],
      "stateMutability": "nonpayable",
      "type": "function"
    },
    {
      "inputs": [
        {
          "internalType": "uint256",
          "name": "numberOfTokens",
          "type": "uint256"
        },
        {
          "internalType": "address",
          "name": "_customerAddress",
          "type": "address"
        }
      ],
      "name": "withdraw_bal",
      "outputs": [
        {
          "internalType": "bool",
          "name": "",
          "type": "bool"
        }
      ],
      "stateMutability": "nonpayable",
      "type": "function"
    }
  ],
  "bytecode": {
    "object": "608060405265886c98b7600060035565886c98b7600060045565d12f0c4c600060055566012c221cc6a0006006556601a25e1898c0006007556602e9c920b740006008556605af3107a400006009556611688627664000600a55661d21db47288000600b55666a94d74f430000600c556701434c04928f8000600d55670494654067e10000600e55670b6139a7cbd20000600f5567191e696903750000601055672dcbf4840eca0000601155675b97e9081d94000060125567e4d83fa1da31000060135560006014556161a86017556000601855348015620000e057600080fd5b506040516200541638038062005416833981810160405260608110156200010657600080fd5b81019080805160405193929190846401000000008211156200012757600080fd5b838201915060208201858111156200013e57600080fd5b82518660018202830111640100000000821117156200015c57600080fd5b8083526020830192505050908051906020019080838360005b838110156200019257808201518184015260208101905062000175565b50505050905090810190601f168015620001c05780820380516001836020036101000a031916815260200191505b5060405260200180516040519392919084640100000000821115620001e457600080fd5b83820191506020820185811115620001fb57600080fd5b82518660018202830111640100000000821117156200021957600080fd5b8083526020830192505050908051906020019080838360005b838110156200024f57808201518184015260208101905062000232565b50505050905090810190601f1680156200027d5780820380516001836020036101000a031916815260200191505b506040526020018051906020019092919050505033601960006101000a81548173ffffffffffffffffffffffffffffffffffffffff021916908373ffffffffffffffffffffffffffffffffffffffff160217905550601960009054906101000a900473ffffffffffffffffffffffffffffffffffffffff16601a60006101000a81548173ffffffffffffffffffffffffffffffffffffffff021916908373ffffffffffffffffffffffffffffffffffffffff16021790555082600090805190602001906200034d92919062000408565b5081600190805190602001906200036692919062000408565b506000600260006101000a81548160ff021916908360ff1602179055506014546003540160158190555080601681905550601754601b6000601960009054906101000a900473ffffffffffffffffffffffffffffffffffffffff1673ffffffffffffffffffffffffffffffffffffffff1673ffffffffffffffffffffffffffffffffffffffff16815260200190815260200160002081905550505050620004ae565b828054600181600116156101000203166002900490600052602060002090601f016020900481019282601f106200044b57805160ff19168380011785556200047c565b828001600101855582156200047c579182015b828111156200047b5782518255916020019190600101906200045e565b5b5090506200048b91906200048f565b5090565b5b80821115620004aa57600081600090555060010162000490565b5090565b614f5880620004be6000396000f3fe6080604052600436106103c25760003560e01c8063814ab1bc116101f2578063b7cf5fac1161010d578063e321bf77116100a0578063ed106e751161006f578063ed106e751461163e578063f1ed993814611669578063f5e39cd614611694578063f6b4dfb4146116e3576103c2565b8063e321bf771461156c578063e4849b3214611597578063e8578496146115e8578063eb91d37e14611613576103c2565b8063c982939c116100dc578063c982939c1461143e578063cc2c1bbd146114a3578063dfb05d5b146114ce578063e095f8141461151d576103c2565b8063b7cf5fac14611248578063b84c824614611273578063c47f00271461133b578063c634d03214611403576103c2565b80639998aeaf11610185578063a20c9d3e11610154578063a20c9d3e146110f8578063a9059cbb1461115d578063aad7390d146111ce578063b6f574931461121d576103c2565b80639998aeaf1461101d5780639c39b919146110485780639d1b464a14611073578063a155e2041461109e576103c2565b80638b142bb0116101c15780638b142bb014610ea75780638fd9780414610ed2578063947a316814610efd57806395d89b4114610f8d576103c2565b8063814ab1bc14610d915780638381e18214610dbc578063885982ec14610e1757806389e4145a14610e42576103c2565b80633b65afa9116102e25780636e55d8591161027557806376809ce31161024457806376809ce314610c6c5780637b4fd96e14610c9a5780637d64a61014610cc55780637fc6686e14610d40576103c2565b80636e55d85914610b325780636f4df45914610b7757806370a0823114610ba25780637335586814610c07576103c2565b80635c658165116102b15780635c658165146109fc5780635da6058e14610a815780636a2c535214610aac5780636b2f463214610b07576103c2565b80633b65afa914610916578063448bda801461097b578063519ee19e146109a65780635201d1af146109d1576103c2565b8063210a1e241161035a5780632b68b9c6116103295780632b68b9c61461087b578063313ce56714610892578063324536eb146108c0578063391dddf5146108eb576103c2565b8063210a1e24146106f557806323b872dd1461075a57806327d7f993146107eb5780632acd78c214610816576103c2565b80631c366df4116103965780631c366df4146105645780631e5a0bc6146105d55780631f772a34146106005780631fee7ea214610690576103c2565b806297944c146103c7578063061a13531461043857806306fdde03146104a957806318160ddd14610539575b600080fd5b3480156103d357600080fd5b50610420600480360360408110156103ea57600080fd5b8101908080359060200190929190803573ffffffffffffffffffffffffffffffffffffffff169060200190929190505050611724565b60405180821515815260200191505060405180910390f35b34801561044457600080fd5b506104916004803603604081101561045b57600080fd5b81019080803573ffffffffffffffffffffffffffffffffffffffff16906020019092919080359060200190929190505050611a5a565b60405180821515815260200191505060405180910390f35b3480156104b557600080fd5b506104be611c1e565b6040518080602001828103825283818151815260200191508051906020019080838360005b838110156104fe5780820151818401526020810190506104e3565b50505050905090810190601f16801561052b5780820380516001836020036101000a031916815260200191505b509250505060405180910390f35b34801561054557600080fd5b5061054e611cc0565b6040518082815260200191505060405180910390f35b34801561057057600080fd5b506105bd6004803603604081101561058757600080fd5b8101908080359060200190929190803573ffffffffffffffffffffffffffffffffffffffff169060200190929190505050611cca565b60405180821515815260200191505060405180910390f35b3480156105e157600080fd5b506105ea611f15565b6040518082815260200191505060405180910390f35b34801561060c57600080fd5b50610615611f1b565b6040518080602001828103825283818151815260200191508051906020019080838360005b8381101561065557808201518184015260208101905061063a565b50505050905090810190601f1680156106825780820380516001836020036101000a031916815260200191505b509250505060405180910390f35b34801561069c57600080fd5b506106df600480360360208110156106b357600080fd5b81019080803573ffffffffffffffffffffffffffffffffffffffff169060200190929190505050611fb9565b6040518082815260200191505060405180910390f35b34801561070157600080fd5b506107446004803603602081101561071857600080fd5b81019080803573ffffffffffffffffffffffffffffffffffffffff169060200190929190505050611fd1565b6040518082815260200191505060405180910390f35b34801561076657600080fd5b506107d36004803603606081101561077d57600080fd5b81019080803573ffffffffffffffffffffffffffffffffffffffff169060200190929190803573ffffffffffffffffffffffffffffffffffffffff16906020019092919080359060200190929190505050611fe9565b60405180821515815260200191505060405180910390f35b3480156107f757600080fd5b50610800612376565b6040518082815260200191505060405180910390f35b34801561082257600080fd5b506108656004803603602081101561083957600080fd5b81019080803573ffffffffffffffffffffffffffffffffffffffff16906020019092919050505061237c565b6040518082815260200191505060405180910390f35b34801561088757600080fd5b50610890612393565b005b34801561089e57600080fd5b506108a7612491565b604051808260ff16815260200191505060405180910390f35b3480156108cc57600080fd5b506108d56124a8565b6040518082815260200191505060405180910390f35b3480156108f757600080fd5b506109006124ae565b6040518082815260200191505060405180910390f35b34801561092257600080fd5b506109656004803603602081101561093957600080fd5b81019080803573ffffffffffffffffffffffffffffffffffffffff1690602001909291905050506124b4565b6040518082815260200191505060405180910390f35b34801561098757600080fd5b506109906124fd565b6040518082815260200191505060405180910390f35b3480156109b257600080fd5b506109bb612503565b6040518082815260200191505060405180910390f35b3480156109dd57600080fd5b506109e6612509565b6040518082815260200191505060405180910390f35b348015610a0857600080fd5b50610a6b60048036036040811015610a1f57600080fd5b81019080803573ffffffffffffffffffffffffffffffffffffffff169060200190929190803573ffffffffffffffffffffffffffffffffffffffff16906020019092919050505061250f565b6040518082815260200191505060405180910390f35b348015610a8d57600080fd5b50610a96612534565b6040518082815260200191505060405180910390f35b348015610ab857600080fd5b50610b0560048036036040811015610acf57600080fd5b8101908080359060200190929190803573ffffffffffffffffffffffffffffffffffffffff16906020019092919050505061253a565b005b348015610b1357600080fd5b50610b1c612696565b6040518082815260200191505060405180910390f35b348015610b3e57600080fd5b50610b7560048036036040811015610b5557600080fd5b810190808035906020019092919080359060200190929190505050612761565b005b348015610b8357600080fd5b50610b8c612af0565b6040518082815260200191505060405180910390f35b348015610bae57600080fd5b50610bf160048036036020811015610bc557600080fd5b81019080803573ffffffffffffffffffffffffffffffffffffffff169060200190929190505050612af6565b6040518082815260200191505060405180910390f35b348015610c1357600080fd5b50610c5660048036036020811015610c2a57600080fd5b81019080803573ffffffffffffffffffffffffffffffffffffffff169060200190929190505050612b3f565b6040518082815260200191505060405180910390f35b348015610c7857600080fd5b50610c81612b57565b604051808260ff16815260200191505060405180910390f35b348015610ca657600080fd5b50610caf612b6a565b6040518082815260200191505060405180910390f35b348015610cd157600080fd5b50610d1460048036036020811015610ce857600080fd5b81019080803573ffffffffffffffffffffffffffffffffffffffff169060200190929190505050612b70565b604051808273ffffffffffffffffffffffffffffffffffffffff16815260200191505060405180910390f35b348015610d4c57600080fd5b50610d7960048036036020811015610d6357600080fd5b8101908080359060200190929190505050612ba3565b60405180821515815260200191505060405180910390f35b348015610d9d57600080fd5b50610da6612c78565b6040518082815260200191505060405180910390f35b348015610dc857600080fd5b50610e1560048036036040811015610ddf57600080fd5b8101908080359060200190929190803573ffffffffffffffffffffffffffffffffffffffff169060200190929190505050612c7e565b005b348015610e2357600080fd5b50610e2c612f48565b6040518082815260200191505060405180910390f35b348015610e4e57600080fd5b50610e9160048036036020811015610e6557600080fd5b81019080803573ffffffffffffffffffffffffffffffffffffffff169060200190929190505050612f4e565b6040518082815260200191505060405180910390f35b348015610eb357600080fd5b50610ebc612f66565b6040518082815260200191505060405180910390f35b348015610ede57600080fd5b50610ee7612f6c565b6040518082815260200191505060405180910390f35b348015610f0957600080fd5b50610f12612f72565b6040518080602001828103825283818151815260200191508051906020019080838360005b83811015610f52578082015181840152602081019050610f37565b50505050905090810190601f168015610f7f5780820380516001836020036101000a031916815260200191505b509250505060405180910390f35b348015610f9957600080fd5b50610fa2613010565b6040518080602001828103825283818151815260200191508051906020019080838360005b83811015610fe2578082015181840152602081019050610fc7565b50505050905090810190601f16801561100f5780820380516001836020036101000a031916815260200191505b509250505060405180910390f35b34801561102957600080fd5b506110326130b2565b6040518082815260200191505060405180910390f35b34801561105457600080fd5b5061105d6130b8565b6040518082815260200191505060405180910390f35b34801561107f57600080fd5b506110886130ff565b6040518082815260200191505060405180910390f35b6110e0600480360360208110156110b457600080fd5b81019080803573ffffffffffffffffffffffffffffffffffffffff169060200190929190505050613105565b60405180821515815260200191505060405180910390f35b34801561110457600080fd5b506111476004803603602081101561111b57600080fd5b81019080803573ffffffffffffffffffffffffffffffffffffffff16906020019092919050505061372a565b6040518082815260200191505060405180910390f35b34801561116957600080fd5b506111b66004803603604081101561118057600080fd5b81019080803573ffffffffffffffffffffffffffffffffffffffff16906020019092919080359060200190929190505050613742565b60405180821515815260200191505060405180910390f35b3480156111da57600080fd5b50611207600480360360208110156111f157600080fd5b81019080803590602001909291905050506139f2565b6040518082815260200191505060405180910390f35b34801561122957600080fd5b50611232613a05565b6040518082815260200191505060405180910390f35b34801561125457600080fd5b5061125d613a0b565b6040518082815260200191505060405180910390f35b34801561127f57600080fd5b506113396004803603602081101561129657600080fd5b81019080803590602001906401000000008111156112b357600080fd5b8201836020820111156112c557600080fd5b803590602001918460018302840111640100000000831117156112e757600080fd5b91908080601f016020809104026020016040519081016040528093929190818152602001838380828437600081840152601f19601f820116905080830192505050505050509192919290505050613a11565b005b34801561134757600080fd5b506114016004803603602081101561135e57600080fd5b810190808035906020019064010000000081111561137b57600080fd5b82018360208201111561138d57600080fd5b803590602001918460018302840111640100000000831117156113af57600080fd5b91908080601f016020809104026020016040519081016040528093929190818152602001838380828437600081840152601f19601f820116905080830192505050505050509192919290505050613aee565b005b34801561140f57600080fd5b5061143c6004803603602081101561142657600080fd5b8101908080359060200190929190505050613bcb565b005b34801561144a57600080fd5b5061148d6004803603602081101561146157600080fd5b81019080803573ffffffffffffffffffffffffffffffffffffffff169060200190929190505050613cac565b6040518082815260200191505060405180910390f35b3480156114af57600080fd5b506114b8613cc4565b6040518082815260200191505060405180910390f35b3480156114da57600080fd5b50611507600480360360208110156114f157600080fd5b8101908080359060200190929190505050613cca565b6040518082815260200191505060405180910390f35b34801561152957600080fd5b506115566004803603602081101561154057600080fd5b8101908080359060200190929190505050613cdd565b6040518082815260200191505060405180910390f35b34801561157857600080fd5b50611581613d00565b6040518082815260200191505060405180910390f35b3480156115a357600080fd5b506115d0600480360360208110156115ba57600080fd5b8101908080359060200190929190505050613d06565b60405180821515815260200191505060405180910390f35b3480156115f457600080fd5b506115fd614181565b6040518082815260200191505060405180910390f35b34801561161f57600080fd5b506116286142ad565b6040518082815260200191505060405180910390f35b34801561164a57600080fd5b506116536142b7565b6040518082815260200191505060405180910390f35b34801561167557600080fd5b5061167e6142bd565b6040518082815260200191505060405180910390f35b3480156116a057600080fd5b506116cd600480360360208110156116b757600080fd5b81019080803590602001909291905050506142c3565b6040518082815260200191505060405180910390f35b3480156116ef57600080fd5b506116f86142ea565b604051808273ffffffffffffffffffffffffffffffffffffffff16815260200191505060405180910390f35b60006005831015611780576040517f08c379a0000000000000000000000000000000000000000000000000000000008152600401808060200182810382526024815260200180614eb06024913960400191505060405180910390fd5b600073ffffffffffffffffffffffffffffffffffffffff168273ffffffffffffffffffffffffffffffffffffffff161415611823576040517f08c379a000000000000000000000000000000000000000000000000000000000815260040180806020018281038252600c8152602001807f61646472657373207a65726f000000000000000000000000000000000000000081525060200191505060405180910390fd5b601f60008373ffffffffffffffffffffffffffffffffffffffff1673ffffffffffffffffffffffffffffffffffffffff168152602001908152602001600020548311156118d8576040517f08c379a00000000000000000000000000000000000000000000000000000000081526004018080602001828103825260128152602001807f696e73756666696369656e7420626f6e7573000000000000000000000000000081525060200191505060405180910390fd5b61192a83601f60008573ffffffffffffffffffffffffffffffffffffffff1673ffffffffffffffffffffffffffffffffffffffff168152602001908152602001600020546142f290919063ffffffff16565b601f60008473ffffffffffffffffffffffffffffffffffffffff1673ffffffffffffffffffffffffffffffffffffffff168152602001908152602001600020819055506119bf83601b60008573ffffffffffffffffffffffffffffffffffffffff1673ffffffffffffffffffffffffffffffffffffffff1681526020019081526020016000205461433c90919063ffffffff16565b601b60008473ffffffffffffffffffffffffffffffffffffffff1673ffffffffffffffffffffffffffffffffffffffff168152602001908152602001600020819055508173ffffffffffffffffffffffffffffffffffffffff167fa3e397d6f7205d63684262ef4947059af6da7fd7fcfbf1805c71b1712c80df3c846040518082815260200191505060405180910390a26001905092915050565b60008060005b6001811015611c1657601e60008673ffffffffffffffffffffffffffffffffffffffff1673ffffffffffffffffffffffffffffffffffffffff16815260200190815260200160002060009054906101000a900473ffffffffffffffffffffffffffffffffffffffff169150600073ffffffffffffffffffffffffffffffffffffffff168273ffffffffffffffffffffffffffffffffffffffff161415611b0557611c16565b6000601554601b60008573ffffffffffffffffffffffffffffffffffffffff1673ffffffffffffffffffffffffffffffffffffffff1681526020019081526020016000205402905067016345785d8a00008110611c055760006064600c870281611b6b57fe5b049050611bc081601f60008773ffffffffffffffffffffffffffffffffffffffff1673ffffffffffffffffffffffffffffffffffffffff1681526020019081526020016000205461433c90919063ffffffff16565b601f60008673ffffffffffffffffffffffffffffffffffffffff1673ffffffffffffffffffffffffffffffffffffffff16815260200190815260200160002081905550505b829550508080600101915050611a60565b505092915050565b606060008054600181600116156101000203166002900480601f016020809104026020016040519081016040528092919081815260200182805460018160011615610100020316600290048015611cb65780601f10611c8b57610100808354040283529160200191611cb6565b820191906000526020600020905b815481529060010190602001808311611c9957829003601f168201915b5050505050905090565b6000601654905090565b6000601960009054906101000a900473ffffffffffffffffffffffffffffffffffffffff1673ffffffffffffffffffffffffffffffffffffffff163373ffffffffffffffffffffffffffffffffffffffff1614611d8f576040517f08c379a00000000000000000000000000000000000000000000000000000000081526004018080602001828103825260178152602001807f43616c6c6572206973206e6f7420746865206f776e657200000000000000000081525060200191505060405180910390fd5b6000339050601b60008273ffffffffffffffffffffffffffffffffffffffff1673ffffffffffffffffffffffffffffffffffffffff16815260200190815260200160002054841115611de057600080fd5b611e3284601b60008473ffffffffffffffffffffffffffffffffffffffff1673ffffffffffffffffffffffffffffffffffffffff168152602001908152602001600020546142f290919063ffffffff16565b601b60008373ffffffffffffffffffffffffffffffffffffffff1673ffffffffffffffffffffffffffffffffffffffff16815260200190815260200160002081905550611ec784601b60008673ffffffffffffffffffffffffffffffffffffffff1673ffffffffffffffffffffffffffffffffffffffff1681526020019081526020016000205461433c90919063ffffffff16565b601b60008573ffffffffffffffffffffffffffffffffffffffff1673ffffffffffffffffffffffffffffffffffffffff16815260200190815260200160002081905550600191505092915050565b600a5481565b60018054600181600116156101000203166002900480601f016020809104026020016040519081016040528092919081815260200182805460018160011615610100020316600290048015611fb15780601f10611f8657610100808354040283529160200191611fb1565b820191906000526020600020905b815481529060010190602001808311611f9457829003601f168201915b505050505081565b601f6020528060005260406000206000915090505481565b60226020528060005260406000206000915090505481565b6000601b60008573ffffffffffffffffffffffffffffffffffffffff1673ffffffffffffffffffffffffffffffffffffffff1681526020019081526020016000205482111561203757600080fd5b6000821161204457600080fd5b601d60008573ffffffffffffffffffffffffffffffffffffffff1673ffffffffffffffffffffffffffffffffffffffff16815260200190815260200160002060003373ffffffffffffffffffffffffffffffffffffffff1673ffffffffffffffffffffffffffffffffffffffff168152602001908152602001600020548211156120cd57600080fd5b61211f82601b60008773ffffffffffffffffffffffffffffffffffffffff1673ffffffffffffffffffffffffffffffffffffffff168152602001908152602001600020546142f290919063ffffffff16565b601b60008673ffffffffffffffffffffffffffffffffffffffff1673ffffffffffffffffffffffffffffffffffffffff168152602001908152602001600020819055506121b482601b60008673ffffffffffffffffffffffffffffffffffffffff1673ffffffffffffffffffffffffffffffffffffffff1681526020019081526020016000205461433c90919063ffffffff16565b601b60008573ffffffffffffffffffffffffffffffffffffffff1673ffffffffffffffffffffffffffffffffffffffff1681526020019081526020016000208190555061228682601d60008773ffffffffffffffffffffffffffffffffffffffff1673ffffffffffffffffffffffffffffffffffffffff16815260200190815260200160002060003373ffffffffffffffffffffffffffffffffffffffff1673ffffffffffffffffffffffffffffffffffffffff168152602001908152602001600020546142f290919063ffffffff16565b601d60008673ffffffffffffffffffffffffffffffffffffffff1673ffffffffffffffffffffffffffffffffffffffff16815260200190815260200160002060003373ffffffffffffffffffffffffffffffffffffffff1673ffffffffffffffffffffffffffffffffffffffff168152602001908152602001600020819055508273ffffffffffffffffffffffffffffffffffffffff168473ffffffffffffffffffffffffffffffffffffffff167fddf252ad1be2c89b69c2b068fc378daa952ba7f163c4a11628f55a4df523b3ef846040518082815260200191505060405180910390a3600190509392505050565b600b5481565b602080528060005260406000206000915090505481565b601960009054906101000a900473ffffffffffffffffffffffffffffffffffffffff1673ffffffffffffffffffffffffffffffffffffffff163373ffffffffffffffffffffffffffffffffffffffff1614612456576040517f08c379a00000000000000000000000000000000000000000000000000000000081526004018080602001828103825260178152602001807f43616c6c6572206973206e6f7420746865206f776e657200000000000000000081525060200191505060405180910390fd5b601960009054906101000a900473ffffffffffffffffffffffffffffffffffffffff1673ffffffffffffffffffffffffffffffffffffffff16ff5b6000600260009054906101000a900460ff16905090565b60165481565b600e5481565b6000601c60008373ffffffffffffffffffffffffffffffffffffffff1673ffffffffffffffffffffffffffffffffffffffff168152602001908152602001600020549050919050565b60115481565b60175481565b60135481565b601d602052816000526040600020602052806000526040600020600091509150505481565b60075481565b601960009054906101000a900473ffffffffffffffffffffffffffffffffffffffff1673ffffffffffffffffffffffffffffffffffffffff163373ffffffffffffffffffffffffffffffffffffffff16146125fd576040517f08c379a00000000000000000000000000000000000000000000000000000000081526004018080602001828103825260178152602001807f43616c6c6572206973206e6f7420746865206f776e657200000000000000000081525060200191505060405180910390fd5b61264f82601b60008473ffffffffffffffffffffffffffffffffffffffff1673ffffffffffffffffffffffffffffffffffffffff1681526020019081526020016000205461433c90919063ffffffff16565b601b60008373ffffffffffffffffffffffffffffffffffffffff1673ffffffffffffffffffffffffffffffffffffffff168152602001908152602001600020819055505050565b6000601960009054906101000a900473ffffffffffffffffffffffffffffffffffffffff1673ffffffffffffffffffffffffffffffffffffffff163373ffffffffffffffffffffffffffffffffffffffff161461275b576040517f08c379a00000000000000000000000000000000000000000000000000000000081526004018080602001828103825260178152602001807f43616c6c6572206973206e6f7420746865206f776e657200000000000000000081525060200191505060405180910390fd5b47905090565b6000339050601b60008273ffffffffffffffffffffffffffffffffffffffff1673ffffffffffffffffffffffffffffffffffffffff1681526020019081526020016000205483111561281b576040517f08c379a00000000000000000000000000000000000000000000000000000000081526004018080602001828103825260148152602001807f696e73756666696369656e742062616c616e636500000000000000000000000081525060200191505060405180910390fd5b6014831015612892576040517f08c379a00000000000000000000000000000000000000000000000000000000081526004018080602001828103825260198152602001807f4d696e696d756d207374616b65206973203230204245542d420000000000000081525060200191505060405180910390fd5b6128e483601b60008473ffffffffffffffffffffffffffffffffffffffff1673ffffffffffffffffffffffffffffffffffffffff168152602001908152602001600020546142f290919063ffffffff16565b601b60008373ffffffffffffffffffffffffffffffffffffffff1673ffffffffffffffffffffffffffffffffffffffff1681526020019081526020016000208190555061297983601c60008473ffffffffffffffffffffffffffffffffffffffff1673ffffffffffffffffffffffffffffffffffffffff1681526020019081526020016000205461433c90919063ffffffff16565b601c60008373ffffffffffffffffffffffffffffffffffffffff1673ffffffffffffffffffffffffffffffffffffffff16815260200190815260200160002081905550612a3083601c6000601a60009054906101000a900473ffffffffffffffffffffffffffffffffffffffff1673ffffffffffffffffffffffffffffffffffffffff1673ffffffffffffffffffffffffffffffffffffffff1681526020019081526020016000205461433c90919063ffffffff16565b601c6000601a60009054906101000a900473ffffffffffffffffffffffffffffffffffffffff1673ffffffffffffffffffffffffffffffffffffffff1673ffffffffffffffffffffffffffffffffffffffff168152602001908152602001600020819055508073ffffffffffffffffffffffffffffffffffffffff167f0c51b88fb51791573552763b6cd5c42e661f3426347a6a12f3fcb5ade1919ad28484604051808381526020018281526020019250505060405180910390a2505050565b60055481565b6000601b60008373ffffffffffffffffffffffffffffffffffffffff1673ffffffffffffffffffffffffffffffffffffffff168152602001908152602001600020549050919050565b601c6020528060005260406000206000915090505481565b600260009054906101000a900460ff1681565b60035481565b601e6020528060005260406000206000915054906101000a900473ffffffffffffffffffffffffffffffffffffffff1681565b6000601960009054906101000a900473ffffffffffffffffffffffffffffffffffffffff1673ffffffffffffffffffffffffffffffffffffffff163373ffffffffffffffffffffffffffffffffffffffff1614612c68576040517f08c379a00000000000000000000000000000000000000000000000000000000081526004018080602001828103825260178152602001807f43616c6c6572206973206e6f7420746865206f776e657200000000000000000081525060200191505060405180910390fd5b8160158190555060019050919050565b60085481565b601960009054906101000a900473ffffffffffffffffffffffffffffffffffffffff1673ffffffffffffffffffffffffffffffffffffffff163373ffffffffffffffffffffffffffffffffffffffff1614612d41576040517f08c379a00000000000000000000000000000000000000000000000000000000081526004018080602001828103825260178152602001807f43616c6c6572206973206e6f7420746865206f776e657200000000000000000081525060200191505060405180910390fd5b612d9382601b60008473ffffffffffffffffffffffffffffffffffffffff1673ffffffffffffffffffffffffffffffffffffffff1681526020019081526020016000205461433c90919063ffffffff16565b601b60008373ffffffffffffffffffffffffffffffffffffffff1673ffffffffffffffffffffffffffffffffffffffff16815260200190815260200160002081905550612e2882601c60008473ffffffffffffffffffffffffffffffffffffffff1673ffffffffffffffffffffffffffffffffffffffff168152602001908152602001600020546142f290919063ffffffff16565b601c60008373ffffffffffffffffffffffffffffffffffffffff1673ffffffffffffffffffffffffffffffffffffffff16815260200190815260200160002081905550612edf82601c6000601a60009054906101000a900473ffffffffffffffffffffffffffffffffffffffff1673ffffffffffffffffffffffffffffffffffffffff1673ffffffffffffffffffffffffffffffffffffffff168152602001908152602001600020546142f290919063ffffffff16565b601c6000601a60009054906101000a900473ffffffffffffffffffffffffffffffffffffffff1673ffffffffffffffffffffffffffffffffffffffff1673ffffffffffffffffffffffffffffffffffffffff168152602001908152602001600020819055505050565b60185481565b60236020528060005260406000206000915090505481565b600d5481565b60065481565b60008054600181600116156101000203166002900480601f0160208091040260200160405190810160405280929190818152602001828054600181600116156101000203166002900480156130085780601f10612fdd57610100808354040283529160200191613008565b820191906000526020600020905b815481529060010190602001808311612feb57829003601f168201915b505050505081565b606060018054600181600116156101000203166002900480601f0160208091040260200160405190810160405280929190818152602001828054600181600116156101000203166002900480156130a85780601f1061307d576101008083540402835291602001916130a8565b820191906000526020600020905b81548152906001019060200180831161308b57829003601f168201915b5050505050905090565b600f5481565b6000601f60003373ffffffffffffffffffffffffffffffffffffffff1673ffffffffffffffffffffffffffffffffffffffff16815260200190815260200160002054905090565b60155481565b60003373ffffffffffffffffffffffffffffffffffffffff168273ffffffffffffffffffffffffffffffffffffffff1614156131a9576040517f08c379a000000000000000000000000000000000000000000000000000000000815260040180806020018281038252601a8152602001807f53656c66207265666572656e6365206e6f7420616c6c6f77656400000000000081525060200191505060405180910390fd5b600033905060003490506658d15e17628000811015613213576040517f08c379a0000000000000000000000000000000000000000000000000000000008152600401808060200182810382526029815260200180614efa6029913960400191505060405180910390fd5b600073ffffffffffffffffffffffffffffffffffffffff168273ffffffffffffffffffffffffffffffffffffffff1614156132b6576040517f08c379a000000000000000000000000000000000000000000000000000000000815260040180806020018281038252601a8152602001807f43616e27742073656e6420746f205a65726f206164647265737300000000000081525060200191505060405180910390fd5b60006132c1826143c4565b905060006132da6015548461440590919063ffffffff16565b90506000601b60008873ffffffffffffffffffffffffffffffffffffffff1673ffffffffffffffffffffffffffffffffffffffff1681526020019081526020016000205490506702c68af0bb14000084106133c6576133826064602160008873ffffffffffffffffffffffffffffffffffffffff1673ffffffffffffffffffffffffffffffffffffffff1681526020019081526020016000205461433c90919063ffffffff16565b602160008773ffffffffffffffffffffffffffffffffffffffff1673ffffffffffffffffffffffffffffffffffffffff168152602001908152602001600020819055505b6000602060008773ffffffffffffffffffffffffffffffffffffffff1673ffffffffffffffffffffffffffffffffffffffff1681526020019081526020016000205414156134d25786601e60008773ffffffffffffffffffffffffffffffffffffffff1673ffffffffffffffffffffffffffffffffffffffff16815260200190815260200160002060006101000a81548173ffffffffffffffffffffffffffffffffffffffff021916908373ffffffffffffffffffffffffffffffffffffffff1602179055506001602060008773ffffffffffffffffffffffffffffffffffffffff1673ffffffffffffffffffffffffffffffffffffffff168152602001908152602001600020819055505b6134dc8583611a5a565b5060006064600c8402816134ec57fe5b0490506135048160185461433c90919063ffffffff16565b60188190555061355c84602360008973ffffffffffffffffffffffffffffffffffffffff1673ffffffffffffffffffffffffffffffffffffffff1681526020019081526020016000205461433c90919063ffffffff16565b602360008873ffffffffffffffffffffffffffffffffffffffff1673ffffffffffffffffffffffffffffffffffffffff168152602001908152602001600020819055508573ffffffffffffffffffffffffffffffffffffffff163073ffffffffffffffffffffffffffffffffffffffff167fddf252ad1be2c89b69c2b068fc378daa952ba7f163c4a11628f55a4df523b3ef866040518082815260200191505060405180910390a361365684601b60008973ffffffffffffffffffffffffffffffffffffffff1673ffffffffffffffffffffffffffffffffffffffff1681526020019081526020016000205461433c90919063ffffffff16565b601b60008873ffffffffffffffffffffffffffffffffffffffff1673ffffffffffffffffffffffffffffffffffffffff168152602001908152602001600020819055506136ae8360175461433c90919063ffffffff16565b6017819055506136bd8361444f565b8573ffffffffffffffffffffffffffffffffffffffff167fbeae048c6d270d9469f86cf6e8fedda3c60ad770f16c24c9fc131c8e9a09101d85858560405180848152602001838152602001828152602001935050505060405180910390a260019650505050505050919050565b601b6020528060005260406000206000915090505481565b6000601960009054906101000a900473ffffffffffffffffffffffffffffffffffffffff1673ffffffffffffffffffffffffffffffffffffffff163373ffffffffffffffffffffffffffffffffffffffff1614613807576040517f08c379a00000000000000000000000000000000000000000000000000000000081526004018080602001828103825260178152602001807f43616c6c6572206973206e6f7420746865206f776e657200000000000000000081525060200191505060405180910390fd5b6000339050601b60008273ffffffffffffffffffffffffffffffffffffffff1673ffffffffffffffffffffffffffffffffffffffff1681526020019081526020016000205483111561385857600080fd5b6138aa83601b60008473ffffffffffffffffffffffffffffffffffffffff1673ffffffffffffffffffffffffffffffffffffffff168152602001908152602001600020546142f290919063ffffffff16565b601b60008373ffffffffffffffffffffffffffffffffffffffff1673ffffffffffffffffffffffffffffffffffffffff1681526020019081526020016000208190555061393f83601b60008773ffffffffffffffffffffffffffffffffffffffff1673ffffffffffffffffffffffffffffffffffffffff1681526020019081526020016000205461433c90919063ffffffff16565b601b60008673ffffffffffffffffffffffffffffffffffffffff1673ffffffffffffffffffffffffffffffffffffffff168152602001908152602001600020819055508373ffffffffffffffffffffffffffffffffffffffff168173ffffffffffffffffffffffffffffffffffffffff167fddf252ad1be2c89b69c2b068fc378daa952ba7f163c4a11628f55a4df523b3ef856040518082815260200191505060405180910390a3600191505092915050565b6000806015548302905080915050919050565b60095481565b60125481565b601960009054906101000a900473ffffffffffffffffffffffffffffffffffffffff1673ffffffffffffffffffffffffffffffffffffffff163373ffffffffffffffffffffffffffffffffffffffff1614613ad4576040517f08c379a00000000000000000000000000000000000000000000000000000000081526004018080602001828103825260178152602001807f43616c6c6572206973206e6f7420746865206f776e657200000000000000000081525060200191505060405180910390fd5b8060019080519060200190613aea929190614ded565b5050565b601960009054906101000a900473ffffffffffffffffffffffffffffffffffffffff1673ffffffffffffffffffffffffffffffffffffffff163373ffffffffffffffffffffffffffffffffffffffff1614613bb1576040517f08c379a00000000000000000000000000000000000000000000000000000000081526004018080602001828103825260178152602001807f43616c6c6572206973206e6f7420746865206f776e657200000000000000000081525060200191505060405180910390fd5b8060009080519060200190613bc7929190614ded565b5050565b601960009054906101000a900473ffffffffffffffffffffffffffffffffffffffff1673ffffffffffffffffffffffffffffffffffffffff163373ffffffffffffffffffffffffffffffffffffffff1614613c8e576040517f08c379a00000000000000000000000000000000000000000000000000000000081526004018080602001828103825260178152602001807f43616c6c6572206973206e6f7420746865206f776e657200000000000000000081525060200191505060405180910390fd5b613ca38160165461433c90919063ffffffff16565b60168190555050565b60216020528060005260406000206000915090505481565b600c5481565b6000806015548302905080915050919050565b600080613cf56015548461440590919063ffffffff16565b905080915050919050565b60105481565b600080613d1283613cca565b9050826017541015613d6f576040517f08c379a0000000000000000000000000000000000000000000000000000000008152600401808060200182810382526026815260200180614ed46026913960400191505060405180910390fd5b600073ffffffffffffffffffffffffffffffffffffffff163373ffffffffffffffffffffffffffffffffffffffff161415613e12576040517f08c379a000000000000000000000000000000000000000000000000000000000815260040180806020018281038252600c8152602001807f61646472657373207a65726f000000000000000000000000000000000000000081525060200191505060405180910390fd5b601b60003373ffffffffffffffffffffffffffffffffffffffff1673ffffffffffffffffffffffffffffffffffffffff16815260200190815260200160002054831115613ec7576040517f08c379a00000000000000000000000000000000000000000000000000000000081526004018080602001828103825260148152602001807f696e73756666696369656e742062616c616e636500000000000000000000000081525060200191505060405180910390fd5b6658d15e17628000811015613f27576040517f08c379a0000000000000000000000000000000000000000000000000000000008152600401808060200182810382526025815260200180614e8b6025913960400191505060405180910390fd5b613f7983601b60003373ffffffffffffffffffffffffffffffffffffffff1673ffffffffffffffffffffffffffffffffffffffff168152602001908152602001600020546142f290919063ffffffff16565b601b60003373ffffffffffffffffffffffffffffffffffffffff1673ffffffffffffffffffffffffffffffffffffffff1681526020019081526020016000208190555061400e83602260003373ffffffffffffffffffffffffffffffffffffffff1673ffffffffffffffffffffffffffffffffffffffff1681526020019081526020016000205461433c90919063ffffffff16565b602260003373ffffffffffffffffffffffffffffffffffffffff1673ffffffffffffffffffffffffffffffffffffffff16815260200190815260200160002081905550614066836017546142f290919063ffffffff16565b6017819055503373ffffffffffffffffffffffffffffffffffffffff166108fc829081150290604051600060405180830381858888f193505050501580156140b2573d6000803e3d6000fd5b506140bc8361485b565b3073ffffffffffffffffffffffffffffffffffffffff163373ffffffffffffffffffffffffffffffffffffffff167fddf252ad1be2c89b69c2b068fc378daa952ba7f163c4a11628f55a4df523b3ef856040518082815260200191505060405180910390a33373ffffffffffffffffffffffffffffffffffffffff167f06d891f04d1b34286c8e9d1722dae31ec0bf00807e0c3d4b7f0ab724607828ea8285604051808381526020018281526020019250505060405180910390a26001915050919050565b6000601960009054906101000a900473ffffffffffffffffffffffffffffffffffffffff1673ffffffffffffffffffffffffffffffffffffffff163373ffffffffffffffffffffffffffffffffffffffff1614614246576040517f08c379a00000000000000000000000000000000000000000000000000000000081526004018080602001828103825260178152602001807f43616c6c6572206973206e6f7420746865206f776e657200000000000000000081525060200191505060405180910390fd5b601c6000601a60009054906101000a900473ffffffffffffffffffffffffffffffffffffffff1673ffffffffffffffffffffffffffffffffffffffff1673ffffffffffffffffffffffffffffffffffffffff16815260200190815260200160002054905090565b6000601554905090565b60045481565b60145481565b600080620186a0612ee08402816142d657fe5b049050600081840390508092505050919050565b600030905090565b600061433483836040518060400160405280601e81526020017f536166654d6174683a207375627472616374696f6e206f766572666c6f770000815250614c67565b905092915050565b6000808284019050838110156143ba576040517f08c379a000000000000000000000000000000000000000000000000000000000815260040180806020018281038252601b8152602001807f536166654d6174683a206164646974696f6e206f766572666c6f77000000000081525060200191505060405180910390fd5b8091505092915050565b600080620186a0612ee08402816143d757fe5b0490506000818403905060006143f86015548361440590919063ffffffff16565b9050809350505050919050565b600061444783836040518060400160405280601a81526020017f536166654d6174683a206469766973696f6e206279207a65726f000000000000815250614d27565b905092915050565b6000601754118015614465575061fde860175411155b1561447d576004546015819055506015546004819055505b61fde8601754118015614495575062020f5860175411155b156144be57632de544808102601481905550601454600554016015819055506015546005819055505b62020f586017541180156144d757506202710060175411155b15614500576333db25808102601481905550601454600654016015819055506015546006819055505b62027100601754118015614519575062030d4060175411155b1561454257632de544808102601481905550601454600754016015819055506015546007819055505b62030d4060175411801561455b5750620395f860175411155b15614584576333db25808102601481905550601454600854016015819055506015546008819055505b620395f860175411801561459d575062041eb060175411155b156145c7576401553c91408102601481905550601454600954016015819055506015546009819055505b62041eb06017541180156145e05750620493e060175411155b1561460a57640243a7b9408102601481905550601454600a5401601581905550601554600a819055505b620493e0601754118015614623575062051c9860175411155b1561464d5764033c812b008102601481905550601454600b5401601581905550601554600b819055505b62051c9860175411801561466657506205a55060175411155b15614690576407f67a96008102601481905550601454600c5401601581905550601554600c819055505b6205a5506017541180156146a9575062061a8060175411155b156146d35764180ea661408102601481905550601454600d5401601581905550601554600d819055505b62061a806017541180156146ec57506206a33860175411155b1561471657645bbf35d4808102601481905550601454600e5401601581905550601554600e819055505b6206a33860175411801561472f575062072bf060175411155b156147595764a1989a8c808102601481905550601454600f5401601581905550601554600f819055505b62072bf060175411801561477257506207a12060175411155b1561479d576505e96630e8008102601481905550601454601054016015819055506015546010819055505b6207a1206017541180156147b65750620829d860175411155b156147e1576505e96630e8008102601481905550601454601154016015819055506015546011819055505b620829d86017541180156147fa57506208b29060175411155b15614825576505e96630e8008102601481905550601454601254016015819055506015546012819055505b6208b2906017541115614858576505e96630e8008102601481905550601454601354016015819055506015546013819055505b50565b6000601754118015614871575061fde860175411155b15614889576004546015819055506015546004819055505b61fde86017541180156148a1575062020f5860175411155b156148ca57632de544808102601481905550601454600554036015819055506015546005819055505b62020f586017541180156148e357506202710060175411155b1561490c576333db25808102601481905550601454600654036015819055506015546006819055505b62027100601754118015614925575062030d4060175411155b1561494e57632de544808102601481905550601454600754036015819055506015546007819055505b62030d406017541180156149675750620395f860175411155b15614990576333db25808102601481905550601454600854036015819055506015546008819055505b620395f86017541180156149a9575062041eb060175411155b156149d3576401553c91408102601481905550601454600954036015819055506015546009819055505b62041eb06017541180156149ec5750620493e060175411155b15614a1657640243a7b9408102601481905550601454600a5403601581905550601554600a819055505b620493e0601754118015614a2f575062051c9860175411155b15614a595764033c812b008102601481905550601454600b5403601581905550601554600b819055505b62051c98601754118015614a7257506205a55060175411155b15614a9c576407f67a96008102601481905550601454600c5403601581905550601554600c819055505b6205a550601754118015614ab5575062061a8060175411155b15614adf5764180ea661408102601481905550601454600d5403601581905550601554600d819055505b62061a80601754118015614af857506206a33860175411155b15614b2257645bbf35d4808102601481905550601454600e5403601581905550601554600e819055505b6206a338601754118015614b3b575062072bf060175411155b15614b655764a1989a8c808102601481905550601454600f5403601581905550601554600f819055505b62072bf0601754118015614b7e57506207a12060175411155b15614ba9576505e96630e8008102601481905550601454601054036015819055506015546010819055505b6207a120601754118015614bc25750620829d860175411155b15614bed576505e96630e8008102601481905550601454601154036015819055506015546011819055505b620829d8601754118015614c0657506208b29060175411155b15614c31576505e96630e8008102601481905550601454601254036015819055506015546012819055505b6208b2906017541115614c64576505e96630e8008102601481905550601454601354036015819055506015546013819055505b50565b6000838311158290614d14576040517f08c379a00000000000000000000000000000000000000000000000000000000081526004018080602001828103825283818151815260200191508051906020019080838360005b83811015614cd9578082015181840152602081019050614cbe565b50505050905090810190601f168015614d065780820380516001836020036101000a031916815260200191505b509250505060405180910390fd5b5060008385039050809150509392505050565b60008083118290614dd3576040517f08c379a00000000000000000000000000000000000000000000000000000000081526004018080602001828103825283818151815260200191508051906020019080838360005b83811015614d98578082015181840152602081019050614d7d565b50505050905090810190601f168015614dc55780820380516001836020036101000a031916815260200191505b509250505060405180910390fd5b506000838581614ddf57fe5b049050809150509392505050565b828054600181600116156101000203166002900490600052602060002090601f016020900481019282601f10614e2e57805160ff1916838001178555614e5c565b82800160010185558215614e5c579182015b82811115614e5b578251825591602001919060010190614e40565b5b509050614e699190614e6d565b5090565b5b80821115614e86576000816000905550600101614e6e565b509056fe4d696e696d756d204245542d422053656c6c206c696d697420697320302e303235204554484d696e696d756d207769746864726177616c20616d6f756e742069732035204245542d42546f6b656e20736f6c642073686f756c642062652067726561746572207468616e207a65726f4d696e696d756d204245542d42207075726368617365206c696d697420697320302e30323520455448a26469706673582212205878234b688f3e674293c368e08c23f18f7b5d9c6f3edd5724ce67938f5617b364736f6c634300060c0033"
  }
}