{"compiler":"v0.8.7+commit.e28d00a7","opcodeHash":"0x37a0b1e08c4b3979f7c43d8012e2ba9d4752054b5feb79337b9034e7ae56290f","metalessHash":"0x8ab691c4f969c87037bf8af37fc26ce91ed1572f120d6f558dc9db923968c4f6","runtimeHash":"0x5276eb6d08822142b35feacd57cf4687af07a20081ff49ead28e0c49a9c11cf5","encodedMetadata":[{"ipfs":"/ipfs/QmSyCAyWf6g3Pa87WbDJm392m4H1ErwDSNupicDrPhXoe7","solc":"0.8.7"}],"abi":[{"inputs":[{"internalType":"address","name":"_hollowContractAddress","type":"address"}],"stateMutability":"nonpayable","type":"constructor"},{"anonymous":false,"inputs":[{"indexed":true,"internalType":"address","name":"previousOwner","type":"address"},{"indexed":true,"internalType":"address","name":"newOwner","type":"address"}],"name":"OwnershipTransferred","type":"event"},{"inputs":[{"internalType":"uint256[]","name":"_tokenIds","type":"uint256[]"},{"internalType":"string[]","name":"_newTokenURIs","type":"string[]"}],"name":"editMultiple","outputs":[],"stateMutability":"nonpayable","type":"function"},{"inputs":[{"internalType":"string[]","name":"_tokenURIs","type":"string[]"}],"name":"mintMultiple","outputs":[],"stateMutability":"nonpayable","type":"function"},{"inputs":[{"internalType":"address","name":"to","type":"address"},{"internalType":"string[]","name":"_tokenURIs","type":"string[]"}],"name":"mintMultipleTo","outputs":[],"stateMutability":"nonpayable","type":"function"},{"inputs":[],"name":"owner","outputs":[{"internalType":"address","name":"","type":"address"}],"stateMutability":"view","type":"function"},{"inputs":[],"name":"renounceOwnership","outputs":[],"stateMutability":"nonpayable","type":"function"},{"inputs":[{"internalType":"address","name":"_newOwner","type":"address"}],"name":"transferHollowOwnership","outputs":[],"stateMutability":"nonpayable","type":"function"},{"inputs":[{"internalType":"address","name":"newOwner","type":"address"}],"name":"transferOwnership","outputs":[],"stateMutability":"nonpayable","type":"function"}],"bytecode":{"object":"6080604052600180546001600160a01b03191673b1120f07c94d7f2e16c7f50707a26a74bf0b12ec17905534801561003657600080fd5b50604051610ab3380380610ab3833981016040819052610055916100d3565b61005e33610083565b600280546001600160a01b0319166001600160a01b0392909216919091179055610103565b600080546001600160a01b038381166001600160a01b0319831681178455604051919092169283917f8be0079c531659141344cd1fd0a4f28419497f9722a3daafe3b4186f6b6457e09190a35050565b6000602082840312156100e557600080fd5b81516001600160a01b03811681146100fc57600080fd5b9392505050565b6109a1806101126000396000f3fe608060405234801561001057600080fd5b506004361061007d5760003560e01c80638da5cb5b1161005b5780638da5cb5b146100b257806397fe71ee146100d1578063e4adc98f146100e4578063f2fde38b146100f757600080fd5b8063591b702b14610082578063715018a6146100975780638d1a64b51461009f575b600080fd5b6100956100903660046106c1565b61010a565b005b6100956101e3565b6100956100ad36600461069f565b610219565b600054604080516001600160a01b039092168252519081900360200190f35b6100956100df36600461074c565b6102a5565b6100956100f236600461070f565b6103d9565b61009561010536600461069f565b6104ab565b6000546001600160a01b0316331461013d5760405162461bcd60e51b815260040161013490610873565b60405180910390fd5b60005b81518110156101de5760025482516001600160a01b03909116906347fdc5d69085908590859081106101745761017461093f565b60200260200101516040518363ffffffff1660e01b815260040161019992919061084f565b600060405180830381600087803b1580156101b357600080fd5b505af11580156101c7573d6000803e3d6000fd5b5050505080806101d690610916565b915050610140565b505050565b6000546001600160a01b0316331461020d5760405162461bcd60e51b815260040161013490610873565b6102176000610546565b565b6000546001600160a01b031633146102435760405162461bcd60e51b815260040161013490610873565b60025460405163f2fde38b60e01b81526001600160a01b0383811660048301529091169063f2fde38b90602401600060405180830381600087803b15801561028a57600080fd5b505af115801561029e573d6000803e3d6000fd5b5050505050565b6000546001600160a01b031633146102cf5760405162461bcd60e51b815260040161013490610873565b80518251146103205760405162461bcd60e51b815260206004820152601860248201527f4172726179206c656e67746873206d757374206d6174636800000000000000006044820152606401610134565b60005b82518110156101de5760025483516001600160a01b03909116906321718a16908590849081106103555761035561093f565b602002602001015184848151811061036f5761036f61093f565b60200260200101516040518363ffffffff1660e01b81526004016103949291906108a8565b600060405180830381600087803b1580156103ae57600080fd5b505af11580156103c2573d6000803e3d6000fd5b5050505080806103d190610916565b915050610323565b6000546001600160a01b031633146104035760405162461bcd60e51b815260040161013490610873565b60005b81518110156104a75760025460015483516001600160a01b03928316926347fdc5d692169085908590811061043d5761043d61093f565b60200260200101516040518363ffffffff1660e01b815260040161046292919061084f565b600060405180830381600087803b15801561047c57600080fd5b505af1158015610490573d6000803e3d6000fd5b50505050808061049f90610916565b915050610406565b5050565b6000546001600160a01b031633146104d55760405162461bcd60e51b815260040161013490610873565b6001600160a01b03811661053a5760405162461bcd60e51b815260206004820152602660248201527f4f776e61626c653a206e6577206f776e657220697320746865207a65726f206160448201526564647265737360d01b6064820152608401610134565b61054381610546565b50565b600080546001600160a01b038381166001600160a01b0319831681178455604051919092169283917f8be0079c531659141344cd1fd0a4f28419497f9722a3daafe3b4186f6b6457e09190a35050565b80356001600160a01b03811681146105ad57600080fd5b919050565b6000601f83818401126105c457600080fd5b823560206105d96105d4836108f2565b6108c1565b80838252828201915082870188848660051b8a010111156105f957600080fd5b60005b8581101561069157813567ffffffffffffffff8082111561061c57600080fd5b818b0191508b603f83011261063057600080fd5b8682013560408282111561064657610646610955565b610657828c01601f19168a016108c1565b92508183528d8183860101111561066d57600080fd5b818185018a85013750600090820188015285525092840192908401906001016105fc565b509098975050505050505050565b6000602082840312156106b157600080fd5b6106ba82610596565b9392505050565b600080604083850312156106d457600080fd5b6106dd83610596565b9150602083013567ffffffffffffffff8111156106f957600080fd5b610705858286016105b2565b9150509250929050565b60006020828403121561072157600080fd5b813567ffffffffffffffff81111561073857600080fd5b610744848285016105b2565b949350505050565b6000806040838503121561075f57600080fd5b823567ffffffffffffffff8082111561077757600080fd5b818501915085601f83011261078b57600080fd5b8135602061079b6105d4836108f2565b8083825282820191508286018a848660051b89010111156107bb57600080fd5b600096505b848710156107de5780358352600196909601959183019183016107c0565b50965050860135925050808211156107f557600080fd5b50610705858286016105b2565b6000815180845260005b818110156108285760208185018101518683018201520161080c565b8181111561083a576000602083870101525b50601f01601f19169290920160200192915050565b6001600160a01b038316815260406020820181905260009061074490830184610802565b6020808252818101527f4f776e61626c653a2063616c6c6572206973206e6f7420746865206f776e6572604082015260600190565b8281526040602082015260006107446040830184610802565b604051601f8201601f1916810167ffffffffffffffff811182821017156108ea576108ea610955565b604052919050565b600067ffffffffffffffff82111561090c5761090c610955565b5060051b60200190565b600060001982141561093857634e487b7160e01b600052601160045260246000fd5b5060010190565b634e487b7160e01b600052603260045260246000fd5b634e487b7160e01b600052604160045260246000fdfea2646970667358221220b7c2f656502d6e059a4325a9a2067c9044ed778c45436e1bc6d831f6b65ceb7964736f6c63430008070033"}}