{"compiler":"v0.6.5+commit.f956cc89","opcodeHash":"0x18018efeef3d4bff66f950de469618c8cafbdac6fb9a93257ace73a007511887","metalessHash":"0xdeee79cd9c1badfa53907b34b8095297b85f7472a2e86d7a011f7885313d70ce","runtimeHash":"0xe9bde845f3da178798e1023cc8be22e924dc767a053023e20b672190d54f3d62","encodedMetadata":[{"ipfs":"/ipfs/QmWe1tzsz66CTWGy6Ej6hbZm14dBK6iVmtedga1wkRWDqc","solc":"0.6.5"}],"abi":[{"inputs":[{"internalType":"address","name":"_tokenAddr","type":"address"}],"name":"balanceOf","outputs":[{"internalType":"uint256","name":"amount","type":"uint256"}],"stateMutability":"view","type":"function"},{"inputs":[{"internalType":"address","name":"_tokenAddr","type":"address"},{"internalType":"address[]","name":"_to","type":"address[]"},{"internalType":"uint256[]","name":"_value","type":"uint256[]"}],"name":"multisend","outputs":[],"stateMutability":"nonpayable","type":"function"},{"inputs":[{"internalType":"address","name":"_tokenAddr","type":"address"},{"internalType":"address","name":"_to","type":"address"},{"internalType":"uint256","name":"_value","type":"uint256"}],"name":"singleSend","outputs":[],"stateMutability":"nonpayable","type":"function"}],"bytecode":{"object":"608060405234801561001057600080fd5b506105b3806100206000396000f3fe608060405234801561001057600080fd5b50600436106100415760003560e01c806370a0823114610046578063ad8733ca1461009e578063fce070841461020a575b600080fd5b6100886004803603602081101561005c57600080fd5b81019080803573ffffffffffffffffffffffffffffffffffffffff169060200190929190505050610278565b6040518082815260200191505060405180910390f35b610208600480360360608110156100b457600080fd5b81019080803573ffffffffffffffffffffffffffffffffffffffff169060200190929190803590602001906401000000008111156100f157600080fd5b82018360208201111561010357600080fd5b8035906020019184602083028401116401000000008311171561012557600080fd5b919080806020026020016040519081016040528093929190818152602001838360200280828437600081840152601f19601f8201169050808301925050505050505091929192908035906020019064010000000081111561018557600080fd5b82018360208201111561019757600080fd5b803590602001918460208302840111640100000000831117156101b957600080fd5b919080806020026020016040519081016040528093929190818152602001838360200280828437600081840152601f19601f820116905080830192505050505050509192919290505050610339565b005b6102766004803603606081101561022057600080fd5b81019080803573ffffffffffffffffffffffffffffffffffffffff169060200190929190803573ffffffffffffffffffffffffffffffffffffffff16906020019092919080359060200190929190505050610481565b005b60008173ffffffffffffffffffffffffffffffffffffffff166370a08231336040518263ffffffff1660e01b8152600401808273ffffffffffffffffffffffffffffffffffffffff1673ffffffffffffffffffffffffffffffffffffffff16815260200191505060206040518083038186803b1580156102f757600080fd5b505afa15801561030b573d6000803e3d6000fd5b505050506040513d602081101561032157600080fd5b81019080805190602001909291905050509050919050565b60008090505b82518160ff16101561047b578373ffffffffffffffffffffffffffffffffffffffff166323b872dd33858460ff168151811061037757fe5b6020026020010151858560ff168151811061038e57fe5b60200260200101516040518463ffffffff1660e01b8152600401808473ffffffffffffffffffffffffffffffffffffffff1673ffffffffffffffffffffffffffffffffffffffff1681526020018373ffffffffffffffffffffffffffffffffffffffff1673ffffffffffffffffffffffffffffffffffffffff1681526020018281526020019350505050602060405180830381600087803b15801561043257600080fd5b505af1158015610446573d6000803e3d6000fd5b505050506040513d602081101561045c57600080fd5b810190808051906020019092919050505050808060010191505061033f565b50505050565b8273ffffffffffffffffffffffffffffffffffffffff166323b872dd3384846040518463ffffffff1660e01b8152600401808473ffffffffffffffffffffffffffffffffffffffff1673ffffffffffffffffffffffffffffffffffffffff1681526020018373ffffffffffffffffffffffffffffffffffffffff1673ffffffffffffffffffffffffffffffffffffffff1681526020018281526020019350505050602060405180830381600087803b15801561053c57600080fd5b505af1158015610550573d6000803e3d6000fd5b505050506040513d602081101561056657600080fd5b81019080805190602001909291905050505050505056fea26469706673582212200a0981e92ffe8be57bdaf0d76ef06b9c24a6a905f89022d8f9a6a9cb970ad96564736f6c63430006050033"}}