{
  "opcodeHash": "0x0aefb946396fd807f764b0a89d6d3e145af22ea2b158e522f441e29c9a3da24f",
  "metalessHash": "0xb92b42633ff4ff25e6731db4f0d7e90c1464fe357f34490c4b03a8d1e70e0292",
  "runtimeHash": "0xb0636e966ef8af8e380b6b06e8894e8c6903d5f975ae22e8e648c2a2fa27bf70",
  "encodedMetadata": [
    {
      "ipfs": "/ipfs/QmP7Wj8zQ3ieKLfsRHbX7zsH7JEwyV2ugQH7w9V1fKj6TQ",
      "solc": "0.8.7"
    }
  ],
  "abi": [
    {
      "inputs": [
        {
          "internalType": "string",
          "name": "_name",
          "type": "string"
        },
        {
          "internalType": "string",
          "name": "_symbol",
          "type": "string"
        },
        {
          "internalType": "address",
          "name": "_imx",
          "type": "address"
        }
      ],
      "stateMutability": "nonpayable",
      "type": "constructor"
    },
    {
      "anonymous": false,
      "inputs": [
        {
          "indexed": true,
          "internalType": "address",
          "name": "owner",
          "type": "address"
        },
        {
          "indexed": true,
          "internalType": "address",
          "name": "approved",
          "type": "address"
        },
        {
          "indexed": true,
          "internalType": "uint256",
          "name": "tokenId",
          "type": "uint256"
        }
      ],
      "name": "Approval",
      "type": "event"
    },
    {
      "anonymous": false,
      "inputs": [
        {
          "indexed": true,
          "internalType": "address",
          "name": "owner",
          "type": "address"
        },
        {
          "indexed": true,
          "internalType": "address",
          "name": "operator",
          "type": "address"
        },
        {
          "indexed": false,
          "internalType": "bool",
          "name": "approved",
          "type": "bool"
        }
      ],
      "name": "ApprovalForAll",
      "type": "event"
    },
    {
      "anonymous": false,
      "inputs": [
        {
          "indexed": false,
          "internalType": "address",
          "name": "to",
          "type": "address"
        },
        {
          "indexed": false,
          "internalType": "uint256",
          "name": "id",
          "type": "uint256"
        },
        {
          "indexed": false,
          "internalType": "bytes",
          "name": "blueprint",
          "type": "bytes"
        }
      ],
      "name": "AssetMinted",
      "type": "event"
    },
    {
      "anonymous": false,
      "inputs": [
        {
          "indexed": true,
          "internalType": "address",
          "name": "previousOwner",
          "type": "address"
        },
        {
          "indexed": true,
          "internalType": "address",
          "name": "newOwner",
          "type": "address"
        }
      ],
      "name": "OwnershipTransferred",
      "type": "event"
    },
    {
      "anonymous": false,
      "inputs": [
        {
          "indexed": true,
          "internalType": "address",
          "name": "from",
          "type": "address"
        },
        {
          "indexed": true,
          "internalType": "address",
          "name": "to",
          "type": "address"
        },
        {
          "indexed": true,
          "internalType": "uint256",
          "name": "tokenId",
          "type": "uint256"
        }
      ],
      "name": "Transfer",
      "type": "event"
    },
    {
      "inputs": [
        {
          "internalType": "address",
          "name": "to",
          "type": "address"
        },
        {
          "internalType": "uint256",
          "name": "tokenId",
          "type": "uint256"
        }
      ],
      "name": "approve",
      "outputs": [],
      "stateMutability": "nonpayable",
      "type": "function"
    },
    {
      "inputs": [
        {
          "internalType": "address",
          "name": "owner",
          "type": "address"
        }
      ],
      "name": "balanceOf",
      "outputs": [
        {
          "internalType": "uint256",
          "name": "",
          "type": "uint256"
        }
      ],
      "stateMutability": "view",
      "type": "function"
    },
    {
      "inputs": [],
      "name": "baseTokenURI",
      "outputs": [
        {
          "internalType": "string",
          "name": "",
          "type": "string"
        }
      ],
      "stateMutability": "view",
      "type": "function"
    },
    {
      "inputs": [
        {
          "internalType": "uint256",
          "name": "tokenId",
          "type": "uint256"
        }
      ],
      "name": "getApproved",
      "outputs": [
        {
          "internalType": "address",
          "name": "",
          "type": "address"
        }
      ],
      "stateMutability": "view",
      "type": "function"
    },
    {
      "inputs": [],
      "name": "imx",
      "outputs": [
        {
          "internalType": "address",
          "name": "",
          "type": "address"
        }
      ],
      "stateMutability": "view",
      "type": "function"
    },
    {
      "inputs": [
        {
          "internalType": "address",
          "name": "owner",
          "type": "address"
        },
        {
          "internalType": "address",
          "name": "operator",
          "type": "address"
        }
      ],
      "name": "isApprovedForAll",
      "outputs": [
        {
          "internalType": "bool",
          "name": "",
          "type": "bool"
        }
      ],
      "stateMutability": "view",
      "type": "function"
    },
    {
      "inputs": [
        {
          "internalType": "uint256",
          "name": "",
          "type": "uint256"
        }
      ],
      "name": "metadata",
      "outputs": [
        {
          "internalType": "bytes",
          "name": "",
          "type": "bytes"
        }
      ],
      "stateMutability": "view",
      "type": "function"
    },
    {
      "inputs": [
        {
          "internalType": "address",
          "name": "user",
          "type": "address"
        },
        {
          "internalType": "uint256",
          "name": "quantity",
          "type": "uint256"
        },
        {
          "internalType": "bytes",
          "name": "mintingBlob",
          "type": "bytes"
        }
      ],
      "name": "mintFor",
      "outputs": [],
      "stateMutability": "nonpayable",
      "type": "function"
    },
    {
      "inputs": [],
      "name": "name",
      "outputs": [
        {
          "internalType": "string",
          "name": "",
          "type": "string"
        }
      ],
      "stateMutability": "view",
      "type": "function"
    },
    {
      "inputs": [],
      "name": "owner",
      "outputs": [
        {
          "internalType": "address",
          "name": "",
          "type": "address"
        }
      ],
      "stateMutability": "view",
      "type": "function"
    },
    {
      "inputs": [
        {
          "internalType": "uint256",
          "name": "tokenId",
          "type": "uint256"
        }
      ],
      "name": "ownerOf",
      "outputs": [
        {
          "internalType": "address",
          "name": "",
          "type": "address"
        }
      ],
      "stateMutability": "view",
      "type": "function"
    },
    {
      "inputs": [],
      "name": "renounceOwnership",
      "outputs": [],
      "stateMutability": "nonpayable",
      "type": "function"
    },
    {
      "inputs": [
        {
          "internalType": "address",
          "name": "from",
          "type": "address"
        },
        {
          "internalType": "address",
          "name": "to",
          "type": "address"
        },
        {
          "internalType": "uint256",
          "name": "tokenId",
          "type": "uint256"
        }
      ],
      "name": "safeTransferFrom",
      "outputs": [],
      "stateMutability": "nonpayable",
      "type": "function"
    },
    {
      "inputs": [
        {
          "internalType": "address",
          "name": "from",
          "type": "address"
        },
        {
          "internalType": "address",
          "name": "to",
          "type": "address"
        },
        {
          "internalType": "uint256",
          "name": "tokenId",
          "type": "uint256"
        },
        {
          "internalType": "bytes",
          "name": "_data",
          "type": "bytes"
        }
      ],
      "name": "safeTransferFrom",
      "outputs": [],
      "stateMutability": "nonpayable",
      "type": "function"
    },
    {
      "inputs": [
        {
          "internalType": "address",
          "name": "operator",
          "type": "address"
        },
        {
          "internalType": "bool",
          "name": "approved",
          "type": "bool"
        }
      ],
      "name": "setApprovalForAll",
      "outputs": [],
      "stateMutability": "nonpayable",
      "type": "function"
    },
    {
      "inputs": [
        {
          "internalType": "string",
          "name": "uri",
          "type": "string"
        }
      ],
      "name": "setBaseTokenURI",
      "outputs": [],
      "stateMutability": "nonpayable",
      "type": "function"
    },
    {
      "inputs": [
        {
          "internalType": "bytes4",
          "name": "interfaceId",
          "type": "bytes4"
        }
      ],
      "name": "supportsInterface",
      "outputs": [
        {
          "internalType": "bool",
          "name": "",
          "type": "bool"
        }
      ],
      "stateMutability": "view",
      "type": "function"
    },
    {
      "inputs": [],
      "name": "symbol",
      "outputs": [
        {
          "internalType": "string",
          "name": "",
          "type": "string"
        }
      ],
      "stateMutability": "view",
      "type": "function"
    },
    {
      "inputs": [
        {
          "internalType": "uint256",
          "name": "tokenId",
          "type": "uint256"
        }
      ],
      "name": "tokenURI",
      "outputs": [
        {
          "internalType": "string",
          "name": "",
          "type": "string"
        }
      ],
      "stateMutability": "view",
      "type": "function"
    },
    {
      "inputs": [
        {
          "internalType": "address",
          "name": "from",
          "type": "address"
        },
        {
          "internalType": "address",
          "name": "to",
          "type": "address"
        },
        {
          "internalType": "uint256",
          "name": "tokenId",
          "type": "uint256"
        }
      ],
      "name": "transferFrom",
      "outputs": [],
      "stateMutability": "nonpayable",
      "type": "function"
    },
    {
      "inputs": [
        {
          "internalType": "address",
          "name": "newOwner",
          "type": "address"
        }
      ],
      "name": "transferOwnership",
      "outputs": [],
      "stateMutability": "nonpayable",
      "type": "function"
    }
  ],
  "bytecode": {
    "object": "60806040523480156200001157600080fd5b506040516200200c3803806200200c83398101604081905262000034916200025f565b80838381600090805190602001906200004f92919062000102565b5080516200006590600190602084019062000102565b505050620000826200007c620000ac60201b60201c565b620000b0565b600780546001600160a01b0319166001600160a01b0392909216919091179055506200033f915050565b3390565b600680546001600160a01b038381166001600160a01b0319831681179093556040519116919082907f8be0079c531659141344cd1fd0a4f28419497f9722a3daafe3b4186f6b6457e090600090a35050565b8280546200011090620002ec565b90600052602060002090601f0160209004810192826200013457600085556200017f565b82601f106200014f57805160ff19168380011785556200017f565b828001600101855582156200017f579182015b828111156200017f57825182559160200191906001019062000162565b506200018d92915062000191565b5090565b5b808211156200018d576000815560010162000192565b600082601f830112620001ba57600080fd5b81516001600160401b0380821115620001d757620001d762000329565b604051601f8301601f19908116603f0116810190828211818310171562000202576200020262000329565b816040528381526020925086838588010111156200021f57600080fd5b600091505b8382101562000243578582018301518183018401529082019062000224565b83821115620002555760008385830101525b9695505050505050565b6000806000606084860312156200027557600080fd5b83516001600160401b03808211156200028d57600080fd5b6200029b87838801620001a8565b94506020860151915080821115620002b257600080fd5b50620002c186828701620001a8565b604086015190935090506001600160a01b0381168114620002e157600080fd5b809150509250925092565b600181811c908216806200030157607f821691505b602082108114156200032357634e487b7160e01b600052602260045260246000fd5b50919050565b634e487b7160e01b600052604160045260246000fd5b611cbd806200034f6000396000f3fe608060405234801561001057600080fd5b50600436106101075760003560e01c806301ffc9a71461010c57806306fdde0314610134578063081812fc14610149578063095ea7b3146101745780630f08025f1461018957806319ee6e3f1461019c57806323b872dd146101af57806330176e13146101c257806342842e0e146101d55780636352211e146101e857806370a08231146101fb578063715018a61461021c5780638da5cb5b1461022457806395d89b411461022c578063a22cb46514610234578063b88d4fde14610247578063c87b56dd1461025a578063d547cfb71461026d578063e3684e3914610275578063e985e9c514610288578063f2fde38b1461029b575b600080fd5b61011f61011a366004611873565b6102ae565b60405190151581526020015b60405180910390f35b61013c610300565b60405161012b91906119d6565b61015c6101573660046118f5565b610392565b6040516001600160a01b03909116815260200161012b565b6101876101823660046117c3565b61041f565b005b60075461015c906001600160a01b031681565b6101876101aa3660046117ed565b610530565b6101876101bd3660046116d0565b610637565b6101876101d03660046118ad565b610668565b6101876101e33660046116d0565b6106ae565b61015c6101f63660046118f5565b6106c9565b61020e610209366004611682565b610740565b60405190815260200161012b565b6101876107c7565b61015c610802565b61013c610811565b610187610242366004611787565b610820565b61018761025536600461170c565b61082b565b61013c6102683660046118f5565b610863565b61013c61092e565b61013c6102833660046118f5565b6109bc565b61011f61029636600461169d565b6109d5565b6101876102a9366004611682565b610a03565b60006001600160e01b031982166380ac58cd60e01b14806102df57506001600160e01b03198216635b5e139f60e01b145b806102fa57506301ffc9a760e01b6001600160e01b03198316145b92915050565b60606000805461030f90611b79565b80601f016020809104026020016040519081016040528092919081815260200182805461033b90611b79565b80156103885780601f1061035d57610100808354040283529160200191610388565b820191906000526020600020905b81548152906001019060200180831161036b57829003601f168201915b5050505050905090565b600061039d82610aa3565b6104035760405162461bcd60e51b815260206004820152602c60248201527f4552433732313a20617070726f76656420717565727920666f72206e6f6e657860448201526b34b9ba32b73a103a37b5b2b760a11b60648201526084015b60405180910390fd5b506000908152600460205260409020546001600160a01b031690565b600061042a826106c9565b9050806001600160a01b0316836001600160a01b031614156104985760405162461bcd60e51b815260206004820152602160248201527f4552433732313a20617070726f76616c20746f2063757272656e74206f776e656044820152603960f91b60648201526084016103fa565b336001600160a01b03821614806104b457506104b481336109d5565b6105215760405162461bcd60e51b815260206004820152603860248201527f4552433732313a20617070726f76652063616c6c6572206973206e6f74206f776044820152771b995c881b9bdc88185c1c1c9bdd995908199bdc88185b1b60421b60648201526084016103fa565b61052b8383610ac0565b505050565b826001146105735760405162461bcd60e51b815260206004820152601060248201526f496e76616c6964207175616e7469747960801b60448201526064016103fa565b6007546001600160a01b031633146105d85760405162461bcd60e51b815260206004820152602260248201527f46756e6374696f6e2063616e206f6e6c792062652063616c6c6564206279204960448201526109ab60f31b60648201526084016103fa565b6000806105e58484610b2e565b915091506105f4868383610ce9565b7f31e594f6b36b98ec520a91cbbba7b8724b1cec27393f86d8f0f6aa6084db0aaf868383604051610627939291906119a6565b60405180910390a1505050505050565b6106413382610d12565b61065d5760405162461bcd60e51b81526004016103fa90611a70565b61052b838383610ddc565b33610671610802565b6001600160a01b0316146106975760405162461bcd60e51b81526004016103fa90611a3b565b80516106aa906008906020840190611558565b5050565b61052b8383836040518060200160405280600081525061082b565b6000818152600260205260408120546001600160a01b0316806102fa5760405162461bcd60e51b815260206004820152602960248201527f4552433732313a206f776e657220717565727920666f72206e6f6e657869737460448201526832b73a103a37b5b2b760b91b60648201526084016103fa565b60006001600160a01b0382166107ab5760405162461bcd60e51b815260206004820152602a60248201527f4552433732313a2062616c616e636520717565727920666f7220746865207a65604482015269726f206164647265737360b01b60648201526084016103fa565b506001600160a01b031660009081526003602052604090205490565b336107d0610802565b6001600160a01b0316146107f65760405162461bcd60e51b81526004016103fa90611a3b565b6108006000610f6a565b565b6006546001600160a01b031690565b60606001805461030f90611b79565b6106aa338383610fbc565b6108353383610d12565b6108515760405162461bcd60e51b81526004016103fa90611a70565b61085d84848484611087565b50505050565b606061086e82610aa3565b6108d25760405162461bcd60e51b815260206004820152602f60248201527f4552433732314d657461646174613a2055524920717565727920666f72206e6f60448201526e3732bc34b9ba32b73a103a37b5b2b760891b60648201526084016103fa565b60006108dc6110ba565b905060008151116108fc5760405180602001604052806000815250610927565b80610906846110c9565b60405160200161091792919061193a565b6040516020818303038152906040525b9392505050565b6008805461093b90611b79565b80601f016020809104026020016040519081016040528092919081815260200182805461096790611b79565b80156109b45780601f10610989576101008083540402835291602001916109b4565b820191906000526020600020905b81548152906001019060200180831161099757829003601f168201915b505050505081565b6009602052600090815260409020805461093b90611b79565b6001600160a01b03918216600090815260056020908152604080832093909416825291909152205460ff1690565b33610a0c610802565b6001600160a01b031614610a325760405162461bcd60e51b81526004016103fa90611a3b565b6001600160a01b038116610a975760405162461bcd60e51b815260206004820152602660248201527f4f776e61626c653a206e6577206f776e657220697320746865207a65726f206160448201526564647265737360d01b60648201526084016103fa565b610aa081610f6a565b50565b6000908152600260205260409020546001600160a01b0316151590565b600081815260046020526040902080546001600160a01b0319166001600160a01b0384169081179091558190610af5826106c9565b6001600160a01b03167f8c5be1e5ebec7d5bd14f71427d1e84f3dd0314c0f7b2291e5b200ac8c7c3b92560405160405180910390a45050565b600060606000610b8c85858080601f01602080910402602001604051908101604052809392919081815260200183838082843760009201829052506040805180820190915260018152601d60f91b6020820152935091506111c69050565b90506000811215610bd65760405162461bcd60e51b815260206004820152601460248201527314d95c185c985d1bdc881b5d5cdd08195e1a5cdd60621b60448201526064016103fa565b6000610c3086600187610be98287611b36565b92610bf693929190611ac1565b8080601f01602080910402602001604051908101604052809392919081815260200183838082843760009201919091525061125e92505050565b905060006003610c408488611b36565b610c4a9190611b36565b905080610c6e57816040518060200160405280600081525094509450505050610ce2565b3660008888610c7e876002611aeb565b90610c8a60018c611b36565b92610c9793929190611ac1565b9150915083828281818080601f016020809104026020016040519081016040528093929190818152602001838380828437600092019190915250959c50919a50505050505050505050505b9250929050565b610cf383836112de565b6000828152600960209081526040909120825161085d92840190611558565b6000610d1d82610aa3565b610d7e5760405162461bcd60e51b815260206004820152602c60248201527f4552433732313a206f70657261746f7220717565727920666f72206e6f6e657860448201526b34b9ba32b73a103a37b5b2b760a11b60648201526084016103fa565b6000610d89836106c9565b9050806001600160a01b0316846001600160a01b03161480610dc45750836001600160a01b0316610db984610392565b6001600160a01b0316145b80610dd45750610dd481856109d5565b949350505050565b826001600160a01b0316610def826106c9565b6001600160a01b031614610e575760405162461bcd60e51b815260206004820152602960248201527f4552433732313a207472616e73666572206f6620746f6b656e2074686174206960448201526839903737ba1037bbb760b91b60648201526084016103fa565b6001600160a01b038216610eb95760405162461bcd60e51b8152602060048201526024808201527f4552433732313a207472616e7366657220746f20746865207a65726f206164646044820152637265737360e01b60648201526084016103fa565b610ec4600082610ac0565b6001600160a01b0383166000908152600360205260408120805460019290610eed908490611b36565b90915550506001600160a01b0382166000908152600360205260408120805460019290610f1b908490611aeb565b909155505060008181526002602052604080822080546001600160a01b0319166001600160a01b038681169182179092559151849391871691600080516020611c6883398151915291a4505050565b600680546001600160a01b038381166001600160a01b0319831681179093556040519116919082907f8be0079c531659141344cd1fd0a4f28419497f9722a3daafe3b4186f6b6457e090600090a35050565b816001600160a01b0316836001600160a01b0316141561101a5760405162461bcd60e51b815260206004820152601960248201527822a9219b99189d1030b8383937bb32903a379031b0b63632b960391b60448201526064016103fa565b6001600160a01b03838116600081815260056020908152604080832094871680845294825291829020805460ff191686151590811790915591519182527f17307eab39ab6107e8899845ad3d59bd9653f200f220920489ca2b5937696c31910160405180910390a3505050565b611092848484610ddc565b61109e848484846112f8565b61085d5760405162461bcd60e51b81526004016103fa906119e9565b60606008805461030f90611b79565b6060816110ed5750506040805180820190915260018152600360fc1b602082015290565b8160005b8115611117578061110181611bb4565b91506111109050600a83611b03565b91506110f1565b6000816001600160401b0381111561113157611131611c3b565b6040519080825280601f01601f19166020018201604052801561115b576020820181803683370190505b5090505b8415610dd457611170600183611b36565b915061117d600a86611bcf565b611188906030611aeb565b60f81b81838151811061119d5761119d611c25565b60200101906001600160f81b031916908160001a9053506111bf600a86611b03565b945061115f565b815160009083906001146111dc576111dc611be3565b825b855181101561125157816000815181106111fa576111fa611c25565b602001015160f81c60f81b6001600160f81b03191686828151811061122157611221611c25565b01602001516001600160f81b031916141561123f5791506109279050565b8061124981611bb4565b9150506111de565b5060001995945050505050565b600080805b83518110156112d757600084828151811061128057611280611c25565b016020015160f81c90506030811080159061129c575060398111155b156112c4576112ac603082611b36565b6112b784600a611b17565b6112c19190611aeb565b92505b50806112cf81611bb4565b915050611263565b5092915050565b6106aa828260405180602001604052806000815250611405565b60006001600160a01b0384163b156113fa57604051630a85bd0160e11b81526001600160a01b0385169063150b7a029061133c903390899088908890600401611969565b602060405180830381600087803b15801561135657600080fd5b505af1925050508015611386575060408051601f3d908101601f1916820190925261138391810190611890565b60015b6113e0573d8080156113b4576040519150601f19603f3d011682016040523d82523d6000602084013e6113b9565b606091505b5080516113d85760405162461bcd60e51b81526004016103fa906119e9565b805181602001fd5b6001600160e01b031916630a85bd0160e11b149050610dd4565b506001949350505050565b61140f8383611438565b61141c60008484846112f8565b61052b5760405162461bcd60e51b81526004016103fa906119e9565b6001600160a01b03821661148e5760405162461bcd60e51b815260206004820181905260248201527f4552433732313a206d696e7420746f20746865207a65726f206164647265737360448201526064016103fa565b61149781610aa3565b156114e35760405162461bcd60e51b815260206004820152601c60248201527b115490cdcc8c4e881d1bdad95b88185b1c9958591e481b5a5b9d195960221b60448201526064016103fa565b6001600160a01b038216600090815260036020526040812080546001929061150c908490611aeb565b909155505060008181526002602052604080822080546001600160a01b0319166001600160a01b0386169081179091559051839290600080516020611c68833981519152908290a45050565b82805461156490611b79565b90600052602060002090601f01602090048101928261158657600085556115cc565b82601f1061159f57805160ff19168380011785556115cc565b828001600101855582156115cc579182015b828111156115cc5782518255916020019190600101906115b1565b506115d89291506115dc565b5090565b5b808211156115d857600081556001016115dd565b60006001600160401b038084111561160b5761160b611c3b565b604051601f8501601f19908116603f0116810190828211818310171561163357611633611c3b565b8160405280935085815286868601111561164c57600080fd5b858560208301376000602087830101525050509392505050565b80356001600160a01b038116811461167d57600080fd5b919050565b60006020828403121561169457600080fd5b61092782611666565b600080604083850312156116b057600080fd5b6116b983611666565b91506116c760208401611666565b90509250929050565b6000806000606084860312156116e557600080fd5b6116ee84611666565b92506116fc60208501611666565b9150604084013590509250925092565b6000806000806080858703121561172257600080fd5b61172b85611666565b935061173960208601611666565b92506040850135915060608501356001600160401b0381111561175b57600080fd5b8501601f8101871361176c57600080fd5b61177b878235602084016115f1565b91505092959194509250565b6000806040838503121561179a57600080fd5b6117a383611666565b9150602083013580151581146117b857600080fd5b809150509250929050565b600080604083850312156117d657600080fd5b6117df83611666565b946020939093013593505050565b6000806000806060858703121561180357600080fd5b61180c85611666565b93506020850135925060408501356001600160401b038082111561182f57600080fd5b818701915087601f83011261184357600080fd5b81358181111561185257600080fd5b88602082850101111561186457600080fd5b95989497505060200194505050565b60006020828403121561188557600080fd5b813561092781611c51565b6000602082840312156118a257600080fd5b815161092781611c51565b6000602082840312156118bf57600080fd5b81356001600160401b038111156118d557600080fd5b8201601f810184136118e657600080fd5b610dd4848235602084016115f1565b60006020828403121561190757600080fd5b5035919050565b60008151808452611926816020860160208601611b4d565b601f01601f19169290920160200192915050565b6000835161194c818460208801611b4d565b835190830190611960818360208801611b4d565b01949350505050565b6001600160a01b038581168252841660208201526040810183905260806060820181905260009061199c9083018461190e565b9695505050505050565b60018060a01b03841681528260208201526060604082015260006119cd606083018461190e565b95945050505050565b602081526000610927602083018461190e565b60208082526032908201527f4552433732313a207472616e7366657220746f206e6f6e20455243373231526560408201527131b2b4bb32b91034b6b83632b6b2b73a32b960711b606082015260800190565b6020808252818101527f4f776e61626c653a2063616c6c6572206973206e6f7420746865206f776e6572604082015260600190565b60208082526031908201527f4552433732313a207472616e736665722063616c6c6572206973206e6f74206f6040820152701ddb995c881b9bdc88185c1c1c9bdd9959607a1b606082015260800190565b60008085851115611ad157600080fd5b83861115611ade57600080fd5b5050820193919092039150565b60008219821115611afe57611afe611bf9565b500190565b600082611b1257611b12611c0f565b500490565b6000816000190483118215151615611b3157611b31611bf9565b500290565b600082821015611b4857611b48611bf9565b500390565b60005b83811015611b68578181015183820152602001611b50565b8381111561085d5750506000910152565b600181811c90821680611b8d57607f821691505b60208210811415611bae57634e487b7160e01b600052602260045260246000fd5b50919050565b6000600019821415611bc857611bc8611bf9565b5060010190565b600082611bde57611bde611c0f565b500690565b634e487b7160e01b600052600160045260246000fd5b634e487b7160e01b600052601160045260246000fd5b634e487b7160e01b600052601260045260246000fd5b634e487b7160e01b600052603260045260246000fd5b634e487b7160e01b600052604160045260246000fd5b6001600160e01b031981168114610aa057600080fdfeddf252ad1be2c89b69c2b068fc378daa952ba7f163c4a11628f55a4df523b3efa26469706673582212206bb8d4487b3a8f77afd370ead216b24c23ceeb3332de20f926f8fe9a82bab6e064736f6c63430008070033"
  }
}