{"compiler":"v0.6.12+commit.27d51765","opcodeHash":"0x936bdc9ef32b74382aeb7aceed35247de8109e369d45001263cd20518eae9098","metalessHash":"0x54a7d623f7f51e8114bcd53e8ce9870b34b78a5b772030c79fae5d36ae3c030c","runtimeHash":"0xa89aae1745ed0f6516b86e229baac1bb713e1b325258b6ee4812363ef9eb44b8","encodedMetadata":[{"ipfs":"/ipfs/Qme49VTAorGMPyrTpopN4BcFtcbZf3PnvnSbszNPprhnF8","solc":"0.6.12"}],"abi":[{"anonymous":false,"inputs":[{"indexed":true,"internalType":"address","name":"provider","type":"address"},{"indexed":false,"internalType":"uint256","name":"value","type":"uint256"}],"name":"Deposit","type":"event"},{"anonymous":false,"inputs":[{"indexed":true,"internalType":"address","name":"previousGovernor","type":"address"},{"indexed":true,"internalType":"address","name":"newGovernor","type":"address"}],"name":"GovernorshipTransferred","type":"event"},{"anonymous":false,"inputs":[{"indexed":false,"internalType":"address","name":"user","type":"address"},{"indexed":false,"internalType":"uint256","name":"original_balance","type":"uint256"},{"indexed":false,"internalType":"uint256","name":"original_supply","type":"uint256"},{"indexed":false,"internalType":"uint256","name":"working_balance","type":"uint256"},{"indexed":false,"internalType":"uint256","name":"working_supply","type":"uint256"}],"name":"UpdateLiquidityLimit","type":"event"},{"anonymous":false,"inputs":[{"indexed":true,"internalType":"address","name":"provider","type":"address"},{"indexed":false,"internalType":"uint256","name":"value","type":"uint256"}],"name":"Withdraw","type":"event"},{"inputs":[{"internalType":"address","name":"","type":"address"},{"internalType":"address","name":"","type":"address"}],"name":"approved_to_deposit","outputs":[{"internalType":"bool","name":"","type":"bool"}],"stateMutability":"view","type":"function"},{"inputs":[{"internalType":"address","name":"","type":"address"}],"name":"balanceOf","outputs":[{"internalType":"uint256","name":"","type":"uint256"}],"stateMutability":"view","type":"function"},{"inputs":[],"name":"bufReward","outputs":[{"internalType":"uint256","name":"","type":"uint256"}],"stateMutability":"view","type":"function"},{"inputs":[{"internalType":"address","name":"","type":"address"}],"name":"claim_rewards","outputs":[],"stateMutability":"nonpayable","type":"function"},{"inputs":[],"name":"claim_rewards","outputs":[],"stateMutability":"nonpayable","type":"function"},{"inputs":[{"internalType":"address","name":"addr","type":"address"}],"name":"claimable_reward","outputs":[{"internalType":"uint256","name":"","type":"uint256"}],"stateMutability":"view","type":"function"},{"inputs":[{"internalType":"address","name":"addr","type":"address"}],"name":"claimable_tokens","outputs":[{"internalType":"uint256","name":"r","type":"uint256"}],"stateMutability":"view","type":"function"},{"inputs":[{"internalType":"address","name":"addr","type":"address"}],"name":"claimed_rewards_for","outputs":[{"internalType":"uint256","name":"","type":"uint256"}],"stateMutability":"view","type":"function"},{"inputs":[{"internalType":"address","name":"","type":"address"},{"internalType":"address","name":"","type":"address"}],"name":"claimed_rewards_for_","outputs":[{"internalType":"uint256","name":"","type":"uint256"}],"stateMutability":"view","type":"function"},{"inputs":[],"name":"controller","outputs":[{"internalType":"address","name":"","type":"address"}],"stateMutability":"view","type":"function"},{"inputs":[],"name":"crv_token","outputs":[{"internalType":"address","name":"","type":"address"}],"stateMutability":"view","type":"function"},{"inputs":[{"internalType":"uint256","name":"amount","type":"uint256"},{"internalType":"address","name":"addr","type":"address"}],"name":"deposit","outputs":[],"stateMutability":"nonpayable","type":"function"},{"inputs":[{"internalType":"uint256","name":"amount","type":"uint256"}],"name":"deposit","outputs":[],"stateMutability":"nonpayable","type":"function"},{"inputs":[],"name":"end","outputs":[{"internalType":"uint256","name":"","type":"uint256"}],"stateMutability":"view","type":"function"},{"inputs":[{"internalType":"address","name":"addr","type":"address"}],"name":"factorOf","outputs":[{"internalType":"uint256","name":"f","type":"uint256"}],"stateMutability":"view","type":"function"},{"inputs":[],"name":"future_epoch_time","outputs":[{"internalType":"uint256","name":"","type":"uint256"}],"stateMutability":"view","type":"function"},{"inputs":[{"internalType":"bytes32","name":"key","type":"bytes32"},{"internalType":"address","name":"addr","type":"address"}],"name":"getConfig","outputs":[{"internalType":"uint256","name":"","type":"uint256"}],"stateMutability":"view","type":"function"},{"inputs":[{"internalType":"bytes32","name":"key","type":"bytes32"}],"name":"getConfig","outputs":[{"internalType":"uint256","name":"","type":"uint256"}],"stateMutability":"view","type":"function"},{"inputs":[{"internalType":"bytes32","name":"key","type":"bytes32"},{"internalType":"uint256","name":"index","type":"uint256"}],"name":"getConfig","outputs":[{"internalType":"uint256","name":"","type":"uint256"}],"stateMutability":"view","type":"function"},{"inputs":[],"name":"governor","outputs":[{"internalType":"address","name":"","type":"address"}],"stateMutability":"view","type":"function"},{"inputs":[],"name":"inflation_rate","outputs":[{"internalType":"uint256","name":"","type":"uint256"}],"stateMutability":"view","type":"function"},{"inputs":[{"internalType":"address","name":"governor","type":"address"},{"internalType":"address","name":"_minter","type":"address"},{"internalType":"address","name":"_lp_token","type":"address"}],"name":"initialize","outputs":[],"stateMutability":"nonpayable","type":"function"},{"inputs":[{"internalType":"address","name":"governor_","type":"address"}],"name":"initialize","outputs":[],"stateMutability":"nonpayable","type":"function"},{"inputs":[{"internalType":"address","name":"governor","type":"address"},{"internalType":"address","name":"_minter","type":"address"},{"internalType":"address","name":"_lp_token","type":"address"},{"internalType":"address","name":"_staking","type":"address"}],"name":"initialize","outputs":[],"stateMutability":"nonpayable","type":"function"},{"inputs":[],"name":"integrate_checkpoint","outputs":[{"internalType":"uint256","name":"","type":"uint256"}],"stateMutability":"view","type":"function"},{"inputs":[{"internalType":"address","name":"","type":"address"}],"name":"integrate_checkpoint_of","outputs":[{"internalType":"uint256","name":"","type":"uint256"}],"stateMutability":"view","type":"function"},{"inputs":[{"internalType":"address","name":"","type":"address"}],"name":"integrate_fraction","outputs":[{"internalType":"uint256","name":"","type":"uint256"}],"stateMutability":"view","type":"function"},{"inputs":[{"internalType":"uint256","name":"","type":"uint256"}],"name":"integrate_inv_supply","outputs":[{"internalType":"uint256","name":"","type":"uint256"}],"stateMutability":"view","type":"function"},{"inputs":[{"internalType":"address","name":"","type":"address"}],"name":"integrate_inv_supply_of","outputs":[{"internalType":"uint256","name":"","type":"uint256"}],"stateMutability":"view","type":"function"},{"inputs":[{"internalType":"address","name":"addr","type":"address"}],"name":"kick","outputs":[],"stateMutability":"nonpayable","type":"function"},{"inputs":[{"internalType":"address","name":"","type":"address"}],"name":"lastTurboOf","outputs":[{"internalType":"uint256","name":"","type":"uint256"}],"stateMutability":"view","type":"function"},{"inputs":[],"name":"lastTurboSupply","outputs":[{"internalType":"uint256","name":"","type":"uint256"}],"stateMutability":"view","type":"function"},{"inputs":[],"name":"lasttime","outputs":[{"internalType":"uint256","name":"","type":"uint256"}],"stateMutability":"view","type":"function"},{"inputs":[],"name":"lp_token","outputs":[{"internalType":"address","name":"","type":"address"}],"stateMutability":"view","type":"function"},{"inputs":[],"name":"minter","outputs":[{"internalType":"address","name":"","type":"address"}],"stateMutability":"view","type":"function"},{"inputs":[],"name":"period","outputs":[{"internalType":"int128","name":"","type":"int128"}],"stateMutability":"view","type":"function"},{"inputs":[{"internalType":"uint256","name":"","type":"uint256"}],"name":"period_timestamp","outputs":[{"internalType":"uint256","name":"","type":"uint256"}],"stateMutability":"view","type":"function"},{"inputs":[{"internalType":"address","name":"addr","type":"address"}],"name":"ratioStaking","outputs":[{"internalType":"uint256","name":"r","type":"uint256"}],"stateMutability":"view","type":"function"},{"inputs":[],"name":"renounceGovernorship","outputs":[],"stateMutability":"nonpayable","type":"function"},{"inputs":[],"name":"reward_contract","outputs":[{"internalType":"address","name":"","type":"address"}],"stateMutability":"view","type":"function"},{"inputs":[],"name":"reward_integral","outputs":[{"internalType":"uint256","name":"","type":"uint256"}],"stateMutability":"view","type":"function"},{"inputs":[{"internalType":"address","name":"","type":"address"}],"name":"reward_integral_","outputs":[{"internalType":"uint256","name":"","type":"uint256"}],"stateMutability":"view","type":"function"},{"inputs":[{"internalType":"address","name":"addr","type":"address"}],"name":"reward_integral_for","outputs":[{"internalType":"uint256","name":"","type":"uint256"}],"stateMutability":"view","type":"function"},{"inputs":[{"internalType":"address","name":"","type":"address"},{"internalType":"address","name":"","type":"address"}],"name":"reward_integral_for_","outputs":[{"internalType":"uint256","name":"","type":"uint256"}],"stateMutability":"view","type":"function"},{"inputs":[],"name":"rewarded_token","outputs":[{"internalType":"address","name":"","type":"address"}],"stateMutability":"view","type":"function"},{"inputs":[{"internalType":"address","name":"addr","type":"address"}],"name":"rewards_for","outputs":[{"internalType":"uint256","name":"","type":"uint256"}],"stateMutability":"view","type":"function"},{"inputs":[{"internalType":"address","name":"","type":"address"},{"internalType":"address","name":"","type":"address"}],"name":"rewards_for_","outputs":[{"internalType":"uint256","name":"","type":"uint256"}],"stateMutability":"view","type":"function"},{"inputs":[{"internalType":"bytes32","name":"key","type":"bytes32"},{"internalType":"uint256","name":"value","type":"uint256"}],"name":"setConfig","outputs":[],"stateMutability":"nonpayable","type":"function"},{"inputs":[{"internalType":"bytes32","name":"key","type":"bytes32"},{"internalType":"address","name":"addr","type":"address"},{"internalType":"uint256","name":"value","type":"uint256"}],"name":"setConfig","outputs":[],"stateMutability":"nonpayable","type":"function"},{"inputs":[{"internalType":"bytes32","name":"key","type":"bytes32"},{"internalType":"uint256","name":"index","type":"uint256"},{"internalType":"uint256","name":"value","type":"uint256"}],"name":"setConfig","outputs":[],"stateMutability":"nonpayable","type":"function"},{"inputs":[{"internalType":"uint256","name":"_span","type":"uint256"},{"internalType":"bool","name":"isLinear","type":"bool"}],"name":"setSpan","outputs":[],"stateMutability":"nonpayable","type":"function"},{"inputs":[{"internalType":"address","name":"_staking","type":"address"}],"name":"setStaking","outputs":[],"stateMutability":"nonpayable","type":"function"},{"inputs":[{"internalType":"address","name":"addr","type":"address"},{"internalType":"bool","name":"can_deposit","type":"bool"}],"name":"set_approve_deposit","outputs":[],"stateMutability":"nonpayable","type":"function"},{"inputs":[],"name":"span","outputs":[{"internalType":"uint256","name":"","type":"uint256"}],"stateMutability":"view","type":"function"},{"inputs":[],"name":"staking","outputs":[{"internalType":"address","name":"","type":"address"}],"stateMutability":"view","type":"function"},{"inputs":[],"name":"sumMiningPer","outputs":[{"internalType":"uint256","name":"","type":"uint256"}],"stateMutability":"view","type":"function"},{"inputs":[{"internalType":"address","name":"","type":"address"}],"name":"sumMiningPerOf","outputs":[{"internalType":"uint256","name":"","type":"uint256"}],"stateMutability":"view","type":"function"},{"inputs":[],"name":"totalSupply","outputs":[{"internalType":"uint256","name":"","type":"uint256"}],"stateMutability":"view","type":"function"},{"inputs":[{"internalType":"address","name":"newGovernor","type":"address"}],"name":"transferGovernorship","outputs":[],"stateMutability":"nonpayable","type":"function"},{"inputs":[{"internalType":"address","name":"addr","type":"address"}],"name":"user_checkpoint","outputs":[{"internalType":"bool","name":"","type":"bool"}],"stateMutability":"nonpayable","type":"function"},{"inputs":[{"internalType":"address","name":"addr","type":"address"}],"name":"virtualBalanceOf","outputs":[{"internalType":"uint256","name":"","type":"uint256"}],"stateMutability":"view","type":"function"},{"inputs":[],"name":"virtualTotalSupply","outputs":[{"internalType":"uint256","name":"","type":"uint256"}],"stateMutability":"view","type":"function"},{"inputs":[],"name":"voting_escrow","outputs":[{"internalType":"address","name":"","type":"address"}],"stateMutability":"view","type":"function"},{"inputs":[{"internalType":"uint256","name":"amount","type":"uint256"}],"name":"withdraw","outputs":[],"stateMutability":"nonpayable","type":"function"},{"inputs":[{"internalType":"uint256","name":"amount","type":"uint256"},{"internalType":"bool","name":"_claim_rewards","type":"bool"}],"name":"withdraw","outputs":[],"stateMutability":"nonpayable","type":"function"},{"inputs":[],"name":"withdraw","outputs":[],"stateMutability":"nonpayable","type":"function"},{"inputs":[{"internalType":"address","name":"","type":"address"}],"name":"working_balances","outputs":[{"internalType":"uint256","name":"","type":"uint256"}],"stateMutability":"view","type":"function"},{"inputs":[],"name":"working_supply","outputs":[{"internalType":"uint256","name":"","type":"uint256"}],"stateMutability":"view","type":"function"}],"bytecode":{"object":"608060405234801561001057600080fd5b50612d67806100206000396000f3fe608060405234801561001057600080fd5b50600436106103fc5760003560e01c806382c6306611610215578063c0c53b8b11610125578063e1522536116100b8578063f77c479111610087578063f77c479114610af1578063f8c8765e14610af9578063fd96044b14610b37578063fe06566c14610b5d578063fec8ee0c14610b83576103fc565b8063e152253614610a94578063e6f1daf214610ac2578063ef78d4fd14610aca578063efbe1c1c14610ae9576103fc565b8063d31f3f6d116100f4578063d31f3f6d14610a35578063ddf2be3f14610a3d578063de263bfa14610a66578063dfe0503114610a8c576103fc565b8063c0c53b8b1461098b578063c4d66de8146109c3578063cb742358146109e9578063d2797b5914610a0f576103fc565b80639df4ed56116101a8578063b6aa515b11610177578063b6aa515b14610912578063b6b55f2514610938578063bce998f414610955578063be5d1be91461097b578063bf88a6ff14610983576103fc565b80639df4ed56146108aa578063aaa626b6146108d0578063b21544f3146108d8578063b6a1912d1461090a576103fc565b80638ff39099116101e45780638ff390991461080a57806396c5517514610830578063972656a3146108565780639bd324f214610884576103fc565b806382c630661461079457806384e9bd7e1461079c57806387564d84146107c25780638ec872e3146107e7576103fc565b8063331345831161031057806352665f47116102a35780636e553f65116102725780636e553f651461071557806370a08231146107415780637598108c1461076757806376d8b1171461078457806381c0c2631461078c576103fc565b806352665f471461069e57806361aac4da146106ca57806365fe9451146106f05780636dd5b69d146106f8576103fc565b80634b820093116102df5780634b820093146106005780634c87a0a51461063a5780634cf088d9146106685780634d3ced1914610670576103fc565b806333134583146105a557806338d07436146105cb5780633ccfd60b146105f057806343d7f86f146105f8576103fc565b806317e28089116103935780631d2747d4116103625780631d2747d41461052457806323a58292146105525780632585581f1461055a578063267716d2146105625780632e1a7d4d14610588576103fc565b806317e28089146104e6578063180692d0146104ee57806318160ddd146104f65780631b9f546f146104fe576103fc565b806313ecb1ca116103cf57806313ecb1ca1461046d57806313fa13681461049357806315fe96dc146104b957806316fa50b1146104de576103fc565b8063075461721461040157806309400707146104255780630c340a241461045d57806313aecab114610465575b600080fd5b610409610ba0565b604080516001600160a01b039092168252519081900360200190f35b61044b6004803603602081101561043b57600080fd5b50356001600160a01b0316610baf565b60408051918252519081900360200190f35b610409610bcd565b61044b610bdc565b61044b6004803603602081101561048357600080fd5b50356001600160a01b0316610c07565b61044b600480360360208110156104a957600080fd5b50356001600160a01b0316610c19565b6104dc600480360360408110156104cf57600080fd5b5080359060200135610c60565b005b610409610c85565b61044b610ca0565b61044b610ca6565b61044b610cb8565b61044b6004803603602081101561051457600080fd5b50356001600160a01b0316610cbe565b6104dc6004803603604081101561053a57600080fd5b506001600160a01b0381351690602001351515610cdc565b61044b610d12565b61044b610d24565b61044b6004803603602081101561057857600080fd5b50356001600160a01b0316610d36565b6104dc6004803603602081101561059e57600080fd5b5035610d54565b61044b600480360360208110156105bb57600080fd5b50356001600160a01b0316610dac565b6104dc600480360360408110156105e157600080fd5b50803590602001351515610eb1565b6104dc610f3c565b61044b610f57565b6106266004803603602081101561061657600080fd5b50356001600160a01b0316610f69565b604080519115158252519081900360200190f35b61044b6004803603604081101561065057600080fd5b506001600160a01b0381358116916020013516610fc8565b610409610ff1565b61044b6004803603604081101561068657600080fd5b506001600160a01b038135811691602001351661100c565b61044b600480360360408110156106b457600080fd5b50803590602001356001600160a01b0316611035565b61044b600480360360208110156106e057600080fd5b50356001600160a01b0316611051565b61044b611132565b61044b6004803603602081101561070e57600080fd5b5035611144565b6104dc6004803603604081101561072b57600080fd5b50803590602001356001600160a01b0316611156565b61044b6004803603602081101561075757600080fd5b50356001600160a01b031661129b565b61044b6004803603602081101561077d57600080fd5b50356112ad565b6104096112cd565b6104dc6112dc565b61040961133d565b6104dc600480360360208110156107b257600080fd5b50356001600160a01b0316610da9565b6104dc600480360360408110156107d857600080fd5b5080359060200135151561134c565b61044b600480360360408110156107fd57600080fd5b50803590602001356113ca565b6104dc6004803603602081101561082057600080fd5b50356001600160a01b03166113dd565b6104dc6004803603602081101561084657600080fd5b50356001600160a01b0316611422565b61044b6004803603604081101561086c57600080fd5b506001600160a01b038135811691602001351661142d565b61044b6004803603602081101561089a57600080fd5b50356001600160a01b0316611456565b61044b600480360360208110156108c057600080fd5b50356001600160a01b0316611474565b61044b6114b8565b6104dc600480360360608110156108ee57600080fd5b508035906001600160a01b0360208201351690604001356114ee565b61044b61151f565b6104dc6004803603602081101561092857600080fd5b50356001600160a01b0316611531565b6104dc6004803603602081101561094e57600080fd5b5035611551565b61044b6004803603602081101561096b57600080fd5b50356001600160a01b031661155b565b61044b61178c565b610409611792565b6104dc600480360360608110156109a157600080fd5b506001600160a01b0381358116916020810135821691604090910135166117ad565b6104dc600480360360208110156109d957600080fd5b50356001600160a01b031661196f565b61044b600480360360208110156109ff57600080fd5b50356001600160a01b0316611a60565b61044b60048036036020811015610a2557600080fd5b50356001600160a01b0316611b2b565b61044b611b31565b6104dc60048036036060811015610a5357600080fd5b5080359060208101359060400135611b43565b61044b60048036036020811015610a7c57600080fd5b50356001600160a01b0316611b66565b610409611b84565b61062660048036036040811015610aaa57600080fd5b506001600160a01b0381358116916020013516611b93565b6104dc611bb3565b610ad2611bbc565b60408051600f9290920b8252519081900360200190f35b61044b611bc5565b610409611bd7565b6104dc60048036036080811015610b0f57600080fd5b506001600160a01b038135811691602081013582169160408201358116916060013516611be6565b61044b60048036036020811015610b4d57600080fd5b50356001600160a01b0316611cbe565b61044b60048036036020811015610b7357600080fd5b50356001600160a01b0316611d02565b61044b60048036036020811015610b9957600080fd5b5035611d20565b6035546001600160a01b031681565b6c02863c1f5cdae42f95400000436020526000908152604090205481565b6033546001600160a01b031681565b6000610c016c02863c1f5cdae42f954000005354603b54611d4590919063ffffffff16565b90505b90565b603e6020526000908152604090205481565b6001600160a01b0380821660009081526c02863c1f5cdae42f9540000048602090815260408083206c02863c1f5cdae42f954000004654909416835292905220545b919050565b6033546001600160a01b03163314610c7757600080fd5b610c818282611da6565b5050565b6c02863c1f5cdae42f9540000046546001600160a01b031681565b603f5481565b6c02863c1f5cdae42f95400000445481565b603b5481565b6c02863c1f5cdae42f954000004d6020526000908152604090205481565b6001600160a01b03919091166000908152603d602090815260408083203384529091529020805460ff1916911515919091179055565b6c02863c1f5cdae42f95400000505481565b6c02863c1f5cdae42f954000004b5481565b6c02863c1f5cdae42f95400000476020526000908152604090205481565b6c636c61696d5f7265776172647360981b60005260346020527f684da2165171dc71a63fa7e63bc201bb3b7b8a39bd56bf2e6eba52a048e47ff854610da990829015610da1576001610da4565b60005b610eb1565b50565b603554604080516308b752bb60e41b81526001600160a01b0384811660048301523060248301529151600093610e5a931691638b752bb0916044808301926020929190829003018186803b158015610e0357600080fd5b505afa158015610e17573d6000803e3d6000fd5b505050506040513d6020811015610e2d57600080fd5b50516001600160a01b03841660009081526c02863c1f5cdae42f9540000043602052604090205490611dcd565b9050610eab610ea483610e6b611e0f565b6c02863c1f5cdae42f954000004e546001600160a01b03871660009081526c02863c1f5cdae42f954000004d6020526040902054611feb565b8290611d45565b92915050565b610ebb3382612087565b603b54610ec89083611dcd565b603b55336000908152603a6020526040902054610ee59083611dcd565b336000818152603a6020526040902091909155610f0290836124a9565b60408051838152905133917f884edad9ce6fa2440d8a54cc123490eb96d2768479d49ff9c7366125a9424364919081900360200190a25050565b336000908152603a6020526040902054610f5590610d54565b565b6c02863c1f5cdae42f954000004f5481565b6c636c61696d5f7265776172647360981b600090815260346020527f684da2165171dc71a63fa7e63bc201bb3b7b8a39bd56bf2e6eba52a048e47ff854610fc090839015610fb8576001610fbb565b60005b612087565b506001919050565b6c02863c1f5cdae42f954000004860209081526000928352604080842090915290825290205481565b6c02863c1f5cdae42f9540000051546001600160a01b031681565b6c02863c1f5cdae42f954000004a60209081526000928352604080842090915290825290205481565b6001600160a01b03161860009081526034602052604090205490565b6c02863c1f5cdae42f954000005154604080516330d5626d60e11b81526001600160a01b038481166004830152915160009392909216916361aac4da91602480820192602092909190829003018186803b1580156110ae57600080fd5b505afa1580156110c2573d6000803e3d6000fd5b505050506040513d60208110156110d857600080fd5b5051905060006110e78361155b565b9050670de0b6b3a764000081101561112c57611129670de0b6b3a76400006111238161111d856111178884611dcd565b906124c0565b90612519565b90611d45565b91505b50919050565b6c02863c1f5cdae42f954000004e5481565b60009081526034602052604090205490565b6001600160a01b0381163314806111905750336000908152603d602090815260408083206001600160a01b038516845290915290205460ff165b6111d0576040805162461bcd60e51b815260206004820152600c60248201526b139bdd08185c1c1c9bdd995960a21b604482015290519081900360640190fd5b6c636c61696d5f7265776172647360981b60005260346020527f684da2165171dc71a63fa7e63bc201bb3b7b8a39bd56bf2e6eba52a048e47ff85461121d90829015610fb8576001610fbb565b611227818361255b565b336000908152603a60205260409020546112419083611d45565b336000908152603a6020526040902055603b5461125e9083611d45565b603b5560408051838152905133917fe1fffcc4923d04b559f4d29a8bfc6cda04eb5b0d3c460751c2402c5c5cc9109c919081900360200190a25050565b603a6020526000908152604090205481565b6041816c01431e0fae6d7217caa000000081106112c657fe5b0154905081565b6036546001600160a01b031681565b6033546001600160a01b031633146112f357600080fd5b6033546040516000916001600160a01b0316907fc7c0c772add429241571afb3805861fb3cfa2af374534088b76cdb4325a87e9a908390a3603380546001600160a01b0319169055565b6037546001600160a01b031681565b6033546001600160a01b0316331461136357600080fd5b6c02863c1f5cdae42f954000004b8290558015611391574282016c02863c1f5cdae42f954000004c556113a3565b60006c02863c1f5cdae42f954000004c555b6c02863c1f5cdae42f954000005054610c8157426c02863c1f5cdae42f9540000050555050565b1860009081526034602052604090205490565b6033546001600160a01b031633146113f457600080fd5b6c02863c1f5cdae42f954000005180546001600160a01b0319166001600160a01b0392909216919091179055565b610da9816001612087565b6c02863c1f5cdae42f954000004960209081526000928352604080842090915290825290205481565b6c02863c1f5cdae42f95400000426020526000908152604090205481565b6001600160a01b0390811660009081526c02863c1f5cdae42f9540000049602090815260408083206c02863c1f5cdae42f9540000046549094168352929052205490565b6c02863c1f5cdae42f9540000046546001600160a01b031660009081526c02863c1f5cdae42f9540000047602052604090205490565b6033546001600160a01b0316331461150557600080fd5b61151a6001600160a01b038316841882611da6565b505050565b6c02863c1f5cdae42f95400000535481565b6033546001600160a01b0316331461154857600080fd5b610da981612573565b610da98133611156565b6001600160a01b0381166000908152603a602052604081205461158057506000610c5b565b6c02863c1f5cdae42f954000005154604080516370a0823160e01b81526001600160a01b038581166004830152915191909216916370a08231916024808301926020929190829003018186803b1580156115d957600080fd5b505afa1580156115ed573d6000803e3d6000fd5b505050506040513d602081101561160357600080fd5b50516c02863c1f5cdae42f95400000515460408051635eb7a8fd60e11b815230600482015290519293506116a1926001600160a01b039092169163bd6f51fa91602480820192602092909190829003018186803b15801561166357600080fd5b505afa158015611677573d6000803e3d6000fd5b505050506040513d602081101561168d57600080fd5b505161111d83670de0b6b3a76400006124c0565b6001600160a01b0383166000908152603a60205260409020549091506116d39061111d83670de0b6b3a76400006124c0565b90506116de826125e2565b421115610c5b57610eab6116fb6116f4846125e2565b4290611dcd565b6c02863c1f5cdae42f9540000051546040805163e4a3a0f360e01b81526001600160a01b038781166004830152915161111d93929092169163e4a3a0f391602480820192602092909190829003018186803b15801561175957600080fd5b505afa15801561176d573d6000803e3d6000fd5b505050506040513d602081101561178357600080fd5b505184906124c0565b603c5481565b6c02863c1f5cdae42f9540000045546001600160a01b031681565b600054610100900460ff16806117c657506117c6612620565b806117d4575060005460ff16155b61180f5760405162461bcd60e51b815260040180806020018281038252602e815260200180612ce0602e913960400191505060405180910390fd5b600054610100900460ff1615801561183a576000805460ff1961ff0019909116610100171660011790555b6118438461196f565b603580546001600160a01b0319166001600160a01b03851690811790915560408051637e062a3560e11b8152905163fc0c546a91600480820192602092909190829003018186803b15801561189757600080fd5b505afa1580156118ab573d6000803e3d6000fd5b505050506040513d60208110156118c157600080fd5b5051603680546001600160a01b03199081166001600160a01b0393841617909155603780549091168483161790819055604080516318160ddd60e01b8152905191909216916318160ddd916004808301926020929190829003018186803b15801561192b57600080fd5b505afa15801561193f573d6000803e3d6000fd5b505050506040513d602081101561195557600080fd5b50508015611969576000805461ff00191690555b50505050565b600054610100900460ff16806119885750611988612620565b80611996575060005460ff16155b6119d15760405162461bcd60e51b815260040180806020018281038252602e815260200180612ce0602e913960400191505060405180910390fd5b600054610100900460ff161580156119fc576000805460ff1961ff0019909116610100171660011790555b603380546001600160a01b0319166001600160a01b0384811691909117918290556040519116906000907fc7c0c772add429241571afb3805861fb3cfa2af374534088b76cdb4325a87e9a908290a38015610c81576000805461ff00191690555050565b60006c02863c1f5cdae42f954000004b5460001480611a7f5750603b54155b15611aa357506001600160a01b0381166000908152603a6020526040902054610c5b565b611aac826125e2565b421415611af4576001600160a01b03821660009081526c02863c1f5cdae42f95400000526020908152604080832054603a90925290912054611aed91611d45565b9050610c5b565b610eab670de0b6b3a764000061111d611b0c85611051565b6001600160a01b0386166000908152603a6020526040902054906124c0565b50600090565b6c02863c1f5cdae42f95400000505490565b6033546001600160a01b03163314611b5a57600080fd5b61151a83831882611da6565b6c02863c1f5cdae42f95400000416020526000908152604090205481565b6039546001600160a01b031681565b603d60209081526000928352604080842090915290825290205460ff1681565b610f5533610da9565b604054600f0b81565b6c02863c1f5cdae42f954000004c5481565b6038546001600160a01b031681565b600054610100900460ff1680611bff5750611bff612620565b80611c0d575060005460ff16155b611c485760405162461bcd60e51b815260040180806020018281038252602e815260200180612ce0602e913960400191505060405180910390fd5b600054610100900460ff16158015611c73576000805460ff1961ff0019909116610100171660011790555b611c7e8585856117ad565b6c02863c1f5cdae42f954000005180546001600160a01b0319166001600160a01b0384161790558015611cb7576000805461ff00191690555b5050505050565b6001600160a01b0390811660009081526c02863c1f5cdae42f954000004a602090815260408083206c02863c1f5cdae42f9540000046549094168352929052205490565b6c02863c1f5cdae42f95400000526020526000908152604090205481565b6c01431e0fae6d7217caa0000041816c01431e0fae6d7217caa000000081106112c657fe5b600082820183811015611d9f576040805162461bcd60e51b815260206004820152601b60248201527f536166654d6174683a206164646974696f6e206f766572666c6f770000000000604482015290519081900360640190fd5b9392505050565b6000828152603460205260409020548114610c815760009182526034602052604090912055565b6000611d9f83836040518060400160405280601e81526020017f536166654d6174683a207375627472616374696f6e206f766572666c6f770000815250612626565b60006c02863c1f5cdae42f954000004b5460001480611e2e5750603b54155b15611e3b57506000610c04565b6c02863c1f5cdae42f954000004f546035546040805163c33342e960e01b81523060048201529051611ec993926001600160a01b03169163c33342e9916024808301926020929190829003018186803b158015611e9757600080fd5b505afa158015611eab573d6000803e3d6000fd5b505050506040513d6020811015611ec157600080fd5b505190611dcd565b90506c02863c1f5cdae42f954000004c5460001415611f56576c02863c1f5cdae42f954000004b546c02863c1f5cdae42f954000005054611f0b904290611dcd565b1015611f5157611f4e6c02863c1f5cdae42f954000004b5461111d611f476c02863c1f5cdae42f95400000505442611dcd90919063ffffffff16565b84906124c0565b90505b610c04565b6c02863c1f5cdae42f954000004c54421015611fc257611f4e611f9e6c02863c1f5cdae42f9540000050546c02863c1f5cdae42f954000004c54611dcd90919063ffffffff16565b61111d611f476c02863c1f5cdae42f95400000505442611dcd90919063ffffffff16565b6c02863c1f5cdae42f954000004c546c02863c1f5cdae42f95400000505410610c045750600090565b60006c02863c1f5cdae42f954000004b546000148061200a5750603b54155b156120175750600061207f565b6120218383611dcd565b9050612047610ea4603b5461111d670de0b6b3a7640000886124c090919063ffffffff16565b6001600160a01b0386166000908152603a602052604090205490915061207c90670de0b6b3a76400009061111d9084906124c0565b90505b949350505050565b6c02863c1f5cdae42f954000004b5415806120a25750603b54155b156120ac57610c81565b60006120b783611a60565b905060006120c584836126bd565b905060006120d1611e0f565b9050600061212086836c02863c1f5cdae42f954000004e546c02863c1f5cdae42f954000004d60008b6001600160a01b03166001600160a01b0316815260200190815260200160002054612707565b9050808214612164576121548161214e846c02863c1f5cdae42f954000004f54611d4590919063ffffffff16565b90611dcd565b6c02863c1f5cdae42f954000004f555b81156121a8576121986121838461111d85670de0b6b3a76400006124c0565b6c02863c1f5cdae42f954000004e5490611d45565b6c02863c1f5cdae42f954000004e555b6c02863c1f5cdae42f954000004e546001600160a01b03871660009081526c02863c1f5cdae42f954000004d602052604090205414612216576c02863c1f5cdae42f954000004e546001600160a01b03871660009081526c02863c1f5cdae42f954000004d60205260409020555b6001600160a01b0386166000908152603a602052604090205461223a908590611dcd565b6001600160a01b03871660009081526c02863c1f5cdae42f95400000526020526040902054146122ae576001600160a01b0386166000908152603a6020526040902054612288908590611dcd565b6001600160a01b03871660009081526c02863c1f5cdae42f954000005260205260409020555b603b546122bc908490611dcd565b6c02863c1f5cdae42f954000005354146122ee57603b546122de908490611dcd565b6c02863c1f5cdae42f9540000053555b6122f7866125e2565b4211156124555760006123c361230f6116f4896125e2565b6c02863c1f5cdae42f95400000515460408051635eb7a8fd60e11b8152306004820152905161111792670de0b6b3a76400009261111d926001600160a01b039092169163bd6f51fa91602480820192602092909190829003018186803b15801561237857600080fd5b505afa15801561238c573d6000803e3d6000fd5b505050506040513d60208110156123a257600080fd5b50516001600160a01b038d166000908152603a6020526040902054906124c0565b6c02863c1f5cdae42f95400000515460408051636faf950f60e11b81526001600160a01b038b8116600483015260248201859052915193945091169163df5f2a1e916044808201926020929091908290030181600087803b15801561242757600080fd5b505af115801561243b573d6000803e3d6000fd5b505050506040513d602081101561245157600080fd5b5050505b6001600160a01b03861660009081526c02863c1f5cdae42f95400000426020526040902042908190556c02863c1f5cdae42f95400000505561249786826127ae565b6124a18686610c81565b505050505050565b603754610c81906001600160a01b031683836129a1565b6000826124cf57506000610eab565b828202828482816124dc57fe5b0414611d9f5760405162461bcd60e51b8152600401808060200182810382526021815260200180612cbf6021913960400191505060405180910390fd5b6000611d9f83836040518060400160405280601a81526020017f536166654d6174683a206469766973696f6e206279207a65726f000000000000815250612b04565b603754610c81906001600160a01b0316833084612b69565b6001600160a01b03811661258657600080fd5b6033546040516001600160a01b038084169216907fc7c0c772add429241571afb3805861fb3cfa2af374534088b76cdb4325a87e9a90600090a3603380546001600160a01b0319166001600160a01b0392909216919091179055565b6001600160a01b03811660009081526c02863c1f5cdae42f9540000042602052604090205480610c5b5750506c02863c1f5cdae42f95400000505490565b303b1590565b600081848411156126b55760405162461bcd60e51b81526004018080602001828103825283818151815260200191508051906020019080838360005b8381101561267a578181015183820152602001612662565b50505050905090810190601f1680156126a75780820380516001836020036101000a031916815260200191505b509250505060405180910390fd5b505050900390565b6001600160a01b03821660009081526c02863c1f5cdae42f95400000526020908152604080832054603a909252822054611d9f916126fb9190611d45565b61214e84611123610bdc565b60006c02863c1f5cdae42f954000004b54600014806127265750603b54155b156127335750600061207f565b61273d8383611dcd565b905061275f610ea461274d610bdc565b61111d87670de0b6b3a76400006124c0565b6001600160a01b03861660009081526c02863c1f5cdae42f95400000526020908152604080832054603a9092529091205491925061207c91670de0b6b3a76400009161111d91611f4791611d45565b8015610c81576001600160a01b03821660009081526c02863c1f5cdae42f954000004360205260409020546127e39082611d45565b6001600160a01b0392831660009081526c02863c1f5cdae42f95400000436020908152604082209290925560349091527fe9b68ca2b566af5bdfbb3361c12fcbb5dbf956c250bbd74cc175cc06ec62c7915467646576526174696f60c01b9091527fb8fbd2e70438ec482a0e7fc9b87580647182c1694aea1065027a1d634e92d6b954909283161580159061287757508015155b156128e6576128c0612895670de0b6b3a764000061111d85856124c0565b6001600160a01b03851660009081526c02863c1f5cdae42f9540000043602052604090205490611d45565b6001600160a01b03841660009081526c02863c1f5cdae42f954000004360205260409020555b5060346020527f82e0b58992d24d827851dcbd63485b5933f9d3ae4c2ca50477d1437e73f6d342546765636f526174696f60c01b6000527ffc6561c6b7742261fbeab673eba1bedd2f5b1d7221f757ea8c9a87d664cfbed2549092506001600160a01b0383161580159061295957508015155b1561151a57612977612895670de0b6b3a764000061111d85856124c0565b6001600160a01b03841660009081526c02863c1f5cdae42f95400000436020526040902055505050565b604080516001600160a01b038481166024830152604480830185905283518084039091018152606490920183526020820180516001600160e01b031663a9059cbb60e01b178152925182516000946060949389169392918291908083835b60208310612a1e5780518252601f1990920191602091820191016129ff565b6001836020036101000a0380198251168184511680821785525050505050509050019150506000604051808303816000865af19150503d8060008114612a80576040519150601f19603f3d011682016040523d82523d6000602084013e612a85565b606091505b5091509150818015612ab3575080511580612ab35750808060200190516020811015612ab057600080fd5b50515b611cb7576040805162461bcd60e51b815260206004820152601f60248201527f5472616e7366657248656c7065723a205452414e534645525f4641494c454400604482015290519081900360640190fd5b60008183612b535760405162461bcd60e51b815260206004820181815283516024840152835190928392604490910191908501908083836000831561267a578181015183820152602001612662565b506000838581612b5f57fe5b0495945050505050565b604080516001600160a01b0385811660248301528481166044830152606480830185905283518084039091018152608490920183526020820180516001600160e01b03166323b872dd60e01b17815292518251600094606094938a169392918291908083835b60208310612bee5780518252601f199092019160209182019101612bcf565b6001836020036101000a0380198251168184511680821785525050505050509050019150506000604051808303816000865af19150503d8060008114612c50576040519150601f19603f3d011682016040523d82523d6000602084013e612c55565b606091505b5091509150818015612c83575080511580612c835750808060200190516020811015612c8057600080fd5b50515b6124a15760405162461bcd60e51b8152600401808060200182810382526024815260200180612d0e6024913960400191505060405180910390fdfe536166654d6174683a206d756c7469706c69636174696f6e206f766572666c6f77436f6e747261637420696e7374616e63652068617320616c7265616479206265656e20696e697469616c697a65645472616e7366657248656c7065723a205452414e534645525f46524f4d5f4641494c4544a2646970667358221220e8d20fcf94d86d0ea026a2063c1c03eecedea2f5395b88c9b029ba64a77dab3864736f6c634300060c0033"}}