{
  "opcodeHash": "0x08783535d62e7a8074c2c84a4a7819f1a2373758b990c4aa53703ee237828ef1",
  "metalessHash": "0x0f5be8c69076a929af9b6d535004f0a0b4ab030a37a202eb0b00a5cf4d8afc6a",
  "runtimeHash": "0x7d63c4021362b124e5815824a4341976ae32fa93d6f774a1171b67003858d58f",
  "encodedMetadata": [
    {
      "ipfs": "/ipfs/QmXHeyhL44rZfqPKbsxHDH1vZG13WcZaR68XRzYjuiQmJR",
      "solc": "0.8.4"
    }
  ],
  "abi": [
    {
      "inputs": [],
      "stateMutability": "nonpayable",
      "type": "constructor"
    },
    {
      "anonymous": false,
      "inputs": [
        {
          "indexed": true,
          "internalType": "address",
          "name": "owner",
          "type": "address"
        },
        {
          "indexed": true,
          "internalType": "address",
          "name": "spender",
          "type": "address"
        },
        {
          "indexed": false,
          "internalType": "uint256",
          "name": "value",
          "type": "uint256"
        }
      ],
      "name": "Approval",
      "type": "event"
    },
    {
      "anonymous": false,
      "inputs": [
        {
          "indexed": true,
          "internalType": "address",
          "name": "from",
          "type": "address"
        },
        {
          "indexed": true,
          "internalType": "address",
          "name": "to",
          "type": "address"
        },
        {
          "indexed": false,
          "internalType": "uint256",
          "name": "value",
          "type": "uint256"
        }
      ],
      "name": "Transfer",
      "type": "event"
    },
    {
      "inputs": [
        {
          "internalType": "address",
          "name": "",
          "type": "address"
        }
      ],
      "name": "_balances",
      "outputs": [
        {
          "internalType": "uint256",
          "name": "",
          "type": "uint256"
        }
      ],
      "stateMutability": "view",
      "type": "function"
    },
    {
      "inputs": [],
      "name": "_totalSupply",
      "outputs": [
        {
          "internalType": "uint256",
          "name": "",
          "type": "uint256"
        }
      ],
      "stateMutability": "view",
      "type": "function"
    },
    {
      "inputs": [
        {
          "internalType": "address",
          "name": "owner",
          "type": "address"
        },
        {
          "internalType": "address",
          "name": "spender",
          "type": "address"
        }
      ],
      "name": "allowance",
      "outputs": [
        {
          "internalType": "uint256",
          "name": "",
          "type": "uint256"
        }
      ],
      "stateMutability": "view",
      "type": "function"
    },
    {
      "inputs": [
        {
          "internalType": "address",
          "name": "spender",
          "type": "address"
        },
        {
          "internalType": "uint256",
          "name": "amount",
          "type": "uint256"
        }
      ],
      "name": "approve",
      "outputs": [
        {
          "internalType": "bool",
          "name": "",
          "type": "bool"
        }
      ],
      "stateMutability": "nonpayable",
      "type": "function"
    },
    {
      "inputs": [
        {
          "internalType": "address",
          "name": "account",
          "type": "address"
        }
      ],
      "name": "balanceOf",
      "outputs": [
        {
          "internalType": "uint256",
          "name": "",
          "type": "uint256"
        }
      ],
      "stateMutability": "view",
      "type": "function"
    },
    {
      "inputs": [],
      "name": "decimals",
      "outputs": [
        {
          "internalType": "uint256",
          "name": "",
          "type": "uint256"
        }
      ],
      "stateMutability": "view",
      "type": "function"
    },
    {
      "inputs": [
        {
          "internalType": "address",
          "name": "spender",
          "type": "address"
        },
        {
          "internalType": "uint256",
          "name": "subtractedValue",
          "type": "uint256"
        }
      ],
      "name": "decreaseAllowance",
      "outputs": [
        {
          "internalType": "bool",
          "name": "",
          "type": "bool"
        }
      ],
      "stateMutability": "nonpayable",
      "type": "function"
    },
    {
      "inputs": [
        {
          "internalType": "address",
          "name": "owner",
          "type": "address"
        },
        {
          "internalType": "uint256",
          "name": "amount",
          "type": "uint256"
        }
      ],
      "name": "decreaseSupply",
      "outputs": [],
      "stateMutability": "nonpayable",
      "type": "function"
    },
    {
      "inputs": [
        {
          "internalType": "address",
          "name": "spender",
          "type": "address"
        },
        {
          "internalType": "uint256",
          "name": "addedValue",
          "type": "uint256"
        }
      ],
      "name": "increaseAllowance",
      "outputs": [
        {
          "internalType": "bool",
          "name": "",
          "type": "bool"
        }
      ],
      "stateMutability": "nonpayable",
      "type": "function"
    },
    {
      "inputs": [
        {
          "internalType": "address",
          "name": "owner",
          "type": "address"
        },
        {
          "internalType": "uint256",
          "name": "amount",
          "type": "uint256"
        }
      ],
      "name": "increaseSupply",
      "outputs": [],
      "stateMutability": "nonpayable",
      "type": "function"
    },
    {
      "inputs": [],
      "name": "name",
      "outputs": [
        {
          "internalType": "string",
          "name": "",
          "type": "string"
        }
      ],
      "stateMutability": "view",
      "type": "function"
    },
    {
      "inputs": [],
      "name": "owner",
      "outputs": [
        {
          "internalType": "address",
          "name": "",
          "type": "address"
        }
      ],
      "stateMutability": "view",
      "type": "function"
    },
    {
      "inputs": [],
      "name": "symbol",
      "outputs": [
        {
          "internalType": "string",
          "name": "",
          "type": "string"
        }
      ],
      "stateMutability": "view",
      "type": "function"
    },
    {
      "inputs": [],
      "name": "totalSupply",
      "outputs": [
        {
          "internalType": "uint256",
          "name": "",
          "type": "uint256"
        }
      ],
      "stateMutability": "view",
      "type": "function"
    },
    {
      "inputs": [
        {
          "internalType": "address",
          "name": "recipient",
          "type": "address"
        },
        {
          "internalType": "uint256",
          "name": "amount",
          "type": "uint256"
        }
      ],
      "name": "transfer",
      "outputs": [
        {
          "internalType": "bool",
          "name": "",
          "type": "bool"
        }
      ],
      "stateMutability": "nonpayable",
      "type": "function"
    },
    {
      "inputs": [
        {
          "internalType": "address",
          "name": "sender",
          "type": "address"
        },
        {
          "internalType": "address",
          "name": "recipient",
          "type": "address"
        },
        {
          "internalType": "uint256",
          "name": "amount",
          "type": "uint256"
        }
      ],
      "name": "transferFrom",
      "outputs": [
        {
          "internalType": "bool",
          "name": "",
          "type": "bool"
        }
      ],
      "stateMutability": "nonpayable",
      "type": "function"
    },
    {
      "inputs": [
        {
          "internalType": "address",
          "name": "newOwner",
          "type": "address"
        }
      ],
      "name": "transferOwnership",
      "outputs": [],
      "stateMutability": "nonpayable",
      "type": "function"
    }
  ],
  "bytecode": {
    "object": "60806040523480156200001157600080fd5b50604080518082018252600781526654656e676f6b7560c81b60208083019182528351808501909452600384526254474b60e81b90840152600080546001600160a01b031916331790558151919291601291620000729160049190620000c8565b50815162000088906005906020850190620000c8565b50600655506200009d90506012600a620001b7565b620000ad906305f5e10062000282565b600381905533600090815260016020526040902055620002f7565b828054620000d690620002a4565b90600052602060002090601f016020900481019282620000fa576000855562000145565b82601f106200011557805160ff191683800117855562000145565b8280016001018555821562000145579182015b828111156200014557825182559160200191906001019062000128565b506200015392915062000157565b5090565b5b8082111562000153576000815560010162000158565b600181815b80851115620001af578160001904821115620001935762000193620002e1565b80851615620001a157918102915b93841c939080029062000173565b509250929050565b6000620001c58383620001cc565b9392505050565b600082620001dd575060016200027c565b81620001ec575060006200027c565b8160018114620002055760028114620002105762000230565b60019150506200027c565b60ff841115620002245762000224620002e1565b50506001821b6200027c565b5060208310610133831016604e8410600b841016171562000255575081810a6200027c565b6200026183836200016e565b8060001904821115620002785762000278620002e1565b0290505b92915050565b60008160001904831182151516156200029f576200029f620002e1565b500290565b600181811c90821680620002b957607f821691505b60208210811415620002db57634e487b7160e01b600052602260045260246000fd5b50919050565b634e487b7160e01b600052601160045260246000fd5b610c4480620003076000396000f3fe608060405234801561001057600080fd5b506004361061010b5760003560e01c80636ebcf607116100a257806395d89b411161007157806395d89b4114610236578063a457c2d71461023e578063a9059cbb14610251578063dd62ed3e14610264578063f2fde38b1461029d57600080fd5b80636ebcf607146101af57806370a08231146101cf57806379fcd8ee146101f85780638da5cb5b1461020b57600080fd5b806323b872dd116100de57806323b872dd14610178578063313ce5671461018b57806339509351146101935780633eaaf86b146101a657600080fd5b806306fdde0314610110578063095ea7b31461012e57806315d0975c1461015157806318160ddd14610166575b600080fd5b6101186102b0565b6040516101259190610b1b565b60405180910390f35b61014161013c366004610af2565b610342565b6040519015158152602001610125565b61016461015f366004610af2565b610358565b005b6003545b604051908152602001610125565b610141610186366004610ab7565b610457565b60065461016a565b6101416101a1366004610af2565b61050d565b61016a60035481565b61016a6101bd366004610a64565b60016020526000908152604090205481565b61016a6101dd366004610a64565b6001600160a01b031660009081526001602052604090205490565b610164610206366004610af2565b610544565b60005461021e906001600160a01b031681565b6040516001600160a01b039091168152602001610125565b61011861063b565b61014161024c366004610af2565b61064a565b61014161025f366004610af2565b6106e5565b61016a610272366004610a85565b6001600160a01b03918216600090815260026020908152604080832093909416825291909152205490565b6101646102ab366004610a64565b6106f2565b6060600480546102bf90610b9d565b80601f01602080910402602001604051908101604052809291908181526020018280546102eb90610b9d565b80156103385780601f1061030d57610100808354040283529160200191610338565b820191906000526020600020905b81548152906001019060200180831161031b57829003601f168201915b5050505050905090565b600061034f33848461075e565b50600192915050565b6000546001600160a01b03163314156103df57806003600082825461037d9190610b86565b90915550506001600160a01b038216600090815260016020526040812080548392906103aa908490610b86565b90915550506040518181526000906001600160a01b03841690600080516020610bef8339815191529060200160405180910390a35b80600360008282546103f19190610b86565b90915550506001600160a01b0382166000908152600160205260408120805483929061041e908490610b86565b90915550506040518181526000906001600160a01b03841690600080516020610bef833981519152906020015b60405180910390a35050565b6000610464848484610882565b6001600160a01b0384166000908152600260209081526040808320338452909152902054828110156104ee5760405162461bcd60e51b815260206004820152602860248201527f45524332303a207472616e7366657220616d6f756e74206578636565647320616044820152676c6c6f77616e636560c01b60648201526084015b60405180910390fd5b61050285336104fd8685610b86565b61075e565b506001949350505050565b3360008181526002602090815260408083206001600160a01b0387168452909152812054909161034f9185906104fd908690610b6e565b6000546001600160a01b03163314156105cb5780600360008282546105699190610b6e565b90915550506001600160a01b03821660009081526001602052604081208054839290610596908490610b6e565b90915550506040518181526001600160a01b03831690600090600080516020610bef8339815191529060200160405180910390a35b80600360008282546105dd9190610b6e565b90915550506001600160a01b0382166000908152600160205260408120805483929061060a908490610b6e565b90915550506040518181526001600160a01b03831690600090600080516020610bef8339815191529060200161044b565b6060600580546102bf90610b9d565b3360009081526002602090815260408083206001600160a01b0386168452909152812054828110156106cc5760405162461bcd60e51b815260206004820152602560248201527f45524332303a2064656372656173656420616c6c6f77616e63652062656c6f77604482015264207a65726f60d81b60648201526084016104e5565b6106db33856104fd8685610b86565b5060019392505050565b600061034f338484610882565b6000546001600160a01b0316331415610730576001600160a01b0381161561073057600080546001600160a01b0319166001600160a01b0383161790555b6001600160a01b0381161561075b57600080546001600160a01b0319166001600160a01b0383161790555b50565b6001600160a01b0383166107c05760405162461bcd60e51b8152602060048201526024808201527f45524332303a20617070726f76652066726f6d20746865207a65726f206164646044820152637265737360e01b60648201526084016104e5565b6001600160a01b0382166108215760405162461bcd60e51b815260206004820152602260248201527f45524332303a20617070726f766520746f20746865207a65726f206164647265604482015261737360f01b60648201526084016104e5565b6001600160a01b0383811660008181526002602090815260408083209487168084529482529182902085905590518481527f8c5be1e5ebec7d5bd14f71427d1e84f3dd0314c0f7b2291e5b200ac8c7c3b925910160405180910390a3505050565b6001600160a01b0383166108e65760405162461bcd60e51b815260206004820152602560248201527f45524332303a207472616e736665722066726f6d20746865207a65726f206164604482015264647265737360d81b60648201526084016104e5565b6001600160a01b0382166109485760405162461bcd60e51b815260206004820152602360248201527f45524332303a207472616e7366657220746f20746865207a65726f206164647260448201526265737360e81b60648201526084016104e5565b6001600160a01b038316600090815260016020526040902054818110156109c05760405162461bcd60e51b815260206004820152602660248201527f45524332303a207472616e7366657220616d6f756e7420657863656564732062604482015265616c616e636560d01b60648201526084016104e5565b6109ca8282610b86565b6001600160a01b038086166000908152600160205260408082209390935590851681529081208054849290610a00908490610b6e565b92505081905550826001600160a01b0316846001600160a01b0316600080516020610bef83398151915284604051610a3a91815260200190565b60405180910390a350505050565b80356001600160a01b0381168114610a5f57600080fd5b919050565b600060208284031215610a75578081fd5b610a7e82610a48565b9392505050565b60008060408385031215610a97578081fd5b610aa083610a48565b9150610aae60208401610a48565b90509250929050565b600080600060608486031215610acb578081fd5b610ad484610a48565b9250610ae260208501610a48565b9150604084013590509250925092565b60008060408385031215610b04578182fd5b610b0d83610a48565b946020939093013593505050565b6000602080835283518082850152825b81811015610b4757858101830151858201604001528201610b2b565b81811115610b585783604083870101525b50601f01601f1916929092016040019392505050565b60008219821115610b8157610b81610bd8565b500190565b600082821015610b9857610b98610bd8565b500390565b600181811c90821680610bb157607f821691505b60208210811415610bd257634e487b7160e01b600052602260045260246000fd5b50919050565b634e487b7160e01b600052601160045260246000fdfeddf252ad1be2c89b69c2b068fc378daa952ba7f163c4a11628f55a4df523b3efa2646970667358221220bf3e8110f79bea7d1d1c6f2acefb47092f4ad28ceca3a0cb19d00ee497b00ad064736f6c63430008040033"
  }
}