{"compiler":"v0.6.12+commit.27d51765","opcodeHash":"0xcb82bb8b7c9f444d20f19258f6e4d549bd93de75e4b2a696d7715f80d907b4ee","metalessHash":"0xa24e6d93bf4f0ca99418828426b6c6de14c44ce353949068a3fc5197a052b22a","runtimeHash":"0x0a222793ac2f0395d26b2ee1ee8d0a28c72de1e48579455c9d093c21a159a70d","encodedMetadata":[{"ipfs":"/ipfs/QmSU8wNddW4YSJJYew3rXWgevT4eCEzG3PCigh1iK6vbVx","solc":"0.6.12"}],"abi":[{"inputs":[{"internalType":"contract IUniswapV2Router01","name":"_oldRouter","type":"address"},{"internalType":"contract IUniswapV2Router01","name":"_router","type":"address"}],"stateMutability":"nonpayable","type":"constructor"},{"inputs":[{"internalType":"address","name":"tokenA","type":"address"},{"internalType":"address","name":"tokenB","type":"address"},{"internalType":"uint256","name":"liquidity","type":"uint256"},{"internalType":"uint256","name":"amountAMin","type":"uint256"},{"internalType":"uint256","name":"amountBMin","type":"uint256"},{"internalType":"uint256","name":"deadline","type":"uint256"}],"name":"migrate","outputs":[],"stateMutability":"nonpayable","type":"function"},{"inputs":[{"internalType":"address","name":"tokenA","type":"address"},{"internalType":"address","name":"tokenB","type":"address"},{"internalType":"uint256","name":"liquidity","type":"uint256"},{"internalType":"uint256","name":"amountAMin","type":"uint256"},{"internalType":"uint256","name":"amountBMin","type":"uint256"},{"internalType":"uint256","name":"deadline","type":"uint256"},{"internalType":"uint8","name":"v","type":"uint8"},{"internalType":"bytes32","name":"r","type":"bytes32"},{"internalType":"bytes32","name":"s","type":"bytes32"}],"name":"migrateWithPermit","outputs":[],"stateMutability":"nonpayable","type":"function"},{"inputs":[],"name":"oldRouter","outputs":[{"internalType":"contract IUniswapV2Router01","name":"","type":"address"}],"stateMutability":"view","type":"function"},{"inputs":[],"name":"router","outputs":[{"internalType":"contract IUniswapV2Router01","name":"","type":"address"}],"stateMutability":"view","type":"function"}],"bytecode":{"object":"608060405234801561001057600080fd5b506040516111083803806111088339818101604052604081101561003357600080fd5b508051602090910151600080546001600160a01b039384166001600160a01b0319918216179091556001805493909216921691909117905561108e8061007a6000396000f3fe608060405234801561001057600080fd5b506004361061004c5760003560e01c8063396ac32814610051578063964c1f98146100b2578063aac55b39146100d6578063f887ea401461011e575b600080fd5b6100b0600480360361012081101561006857600080fd5b506001600160a01b03813581169160208101359091169060408101359060608101359060808101359060a08101359060ff60c0820135169060e0810135906101000135610126565b005b6100ba6101da565b604080516001600160a01b039092168252519081900360200190f35b6100b0600480360360c08110156100ec57600080fd5b506001600160a01b03813581169160208101359091169060408101359060608101359060808101359060a001356101e9565b6100ba610296565b60006101328a8a6102a5565b6040805163d505accf60e01b8152336004820152306024820152604481018b90526064810188905260ff8716608482015260a4810186905260c4810185905290519192506001600160a01b0383169163d505accf9160e48082019260009290919082900301818387803b1580156101a857600080fd5b505af11580156101bc573d6000803e3d6000fd5b505050506101ce8a8a8a8a8a8a6101e9565b50505050505050505050565b6000546001600160a01b031681565b42811015610232576040805162461bcd60e51b815260206004820152601160248201527012dbd89954ddd85c0e8811561412549151607a1b604482015290519081900360640190fd5b6000806102438888888888886103db565b915091506000806102568a8a86866105e3565b9150915081841115610278576102786001600160a01b038b1633848703610721565b808311156101ce576101ce6001600160a01b038a1633838603610721565b6001546001600160a01b031681565b60008060006102b48585610778565b9150915060008054906101000a90046001600160a01b03166001600160a01b031663c45a01556040518163ffffffff1660e01b815260040160206040518083038186803b15801561030457600080fd5b505afa158015610318573d6000803e3d6000fd5b505050506040513d602081101561032e57600080fd5b5051604080516bffffffffffffffffffffffff19606095861b811660208381019190915294861b81166034830152825160288184030181526048830184528051908601206001600160f81b031960688401529390951b9094166069850152607d8401919091527f96e8ac4277198ff8b6f785478aa9a39f403cb768dd02cbee326c3e7da348845f609d808501919091528151808503909101815260bd909301905281519101209392505050565b60008060006103ea89896102a5565b604080516323b872dd60e01b81523360048201526001600160a01b03831660248201819052604482018b9052915192935090916323b872dd916064808201926020929091908290030181600087803b15801561044557600080fd5b505af1158015610459573d6000803e3d6000fd5b505050506040513d602081101561046f57600080fd5b50506040805163226bf2d160e21b8152306004820152815160009283926001600160a01b038616926389afcb449260248084019391929182900301818787803b1580156104bb57600080fd5b505af11580156104cf573d6000803e3d6000fd5b505050506040513d60408110156104e557600080fd5b508051602090910151909250905060006104ff8c8c610778565b509050806001600160a01b03168c6001600160a01b031614610522578183610525565b82825b90965094508886101561057f576040805162461bcd60e51b815260206004820152601d60248201527f4135526f6c6c3a20494e53554646494349454e545f415f414d4f554e54000000604482015290519081900360640190fd5b878510156105d4576040805162461bcd60e51b815260206004820152601d60248201527f4135526f6c6c3a20494e53554646494349454e545f425f414d4f554e54000000604482015290519081900360640190fd5b50505050965096945050505050565b6000806105f286868686610856565b6001546040805163c45a015560e01b81529051939550919350600092610676926001600160a01b039092169163c45a0155916004808301926020929190829003018186803b15801561064357600080fd5b505afa158015610657573d6000803e3d6000fd5b505050506040513d602081101561066d57600080fd5b50518888610a73565b905061068c6001600160a01b0388168285610721565b6106a06001600160a01b0387168284610721565b604080516335313c2160e11b815233600482015290516001600160a01b03831691636a6278429160248083019260209291908290030181600087803b1580156106e857600080fd5b505af11580156106fc573d6000803e3d6000fd5b505050506040513d602081101561071257600080fd5b50929791965090945050505050565b604080516001600160a01b038416602482015260448082018490528251808303909101815260649091019091526020810180516001600160e01b031663a9059cbb60e01b179052610773908490610b33565b505050565b600080826001600160a01b0316846001600160a01b031614156107cc5760405162461bcd60e51b8152600401808060200182810382526025815260200180610fbd6025913960400191505060405180910390fd5b826001600160a01b0316846001600160a01b0316106107ec5782846107ef565b83835b90925090506001600160a01b03821661084f576040805162461bcd60e51b815260206004820152601e60248201527f556e697377617056324c6962726172793a205a45524f5f414444524553530000604482015290519081900360640190fd5b9250929050565b6000806000600160009054906101000a90046001600160a01b03166001600160a01b031663c45a01556040518163ffffffff1660e01b815260040160206040518083038186803b1580156108a957600080fd5b505afa1580156108bd573d6000803e3d6000fd5b505050506040513d60208110156108d357600080fd5b50516040805163e6a4390560e01b81526001600160a01b038a81166004830152898116602483015291519293506000929184169163e6a4390591604480820192602092909190829003018186803b15801561092d57600080fd5b505afa158015610941573d6000803e3d6000fd5b505050506040513d602081101561095757600080fd5b50516001600160a01b031614156109f557806001600160a01b031663c9c6539688886040518363ffffffff1660e01b815260040180836001600160a01b03168152602001826001600160a01b0316815260200192505050602060405180830381600087803b1580156109c857600080fd5b505af11580156109dc573d6000803e3d6000fd5b505050506040513d60208110156109f257600080fd5b50505b600080610a03838a8a610be4565b91509150816000148015610a15575080155b15610a2557869450859350610a67565b6000610a32888484610cb2565b9050868111610a4657879550935083610a65565b6000610a53888486610cb2565b905088811115610a5f57fe5b95508694505b505b50505094509492505050565b6000806000610a828585610778565b604080516bffffffffffffffffffffffff19606094851b811660208084019190915293851b81166034830152825160288184030181526048830184528051908501206001600160f81b031960688401529a90941b9093166069840152607d8301989098527fe18a34eb0e04b04f7a0ac29a6e80748dca96319b42c54d679cb821dca90c6303609d808401919091528851808403909101815260bd909201909752805196019590952095945050505050565b6060610b88826040518060400160405280602081526020017f5361666545524332303a206c6f772d6c6576656c2063616c6c206661696c6564815250856001600160a01b0316610d589092919063ffffffff16565b80519091501561077357808060200190516020811015610ba757600080fd5b50516107735760405162461bcd60e51b815260040180806020018281038252602a81526020018061102f602a913960400191505060405180910390fd5b6000806000610bf38585610778565b509050600080610c04888888610a73565b6001600160a01b0316630902f1ac6040518163ffffffff1660e01b815260040160606040518083038186803b158015610c3c57600080fd5b505afa158015610c50573d6000803e3d6000fd5b505050506040513d6060811015610c6657600080fd5b5080516020909101516dffffffffffffffffffffffffffff91821693501690506001600160a01b0387811690841614610ca0578082610ca3565b81815b90999098509650505050505050565b6000808411610cf25760405162461bcd60e51b815260040180806020018281038252602581526020018061100a6025913960400191505060405180910390fd5b600083118015610d025750600082115b610d3d5760405162461bcd60e51b8152600401808060200182810382526028815260200180610fe26028913960400191505060405180910390fd5b82610d488584610d6f565b81610d4f57fe5b04949350505050565b6060610d678484600085610dd8565b949350505050565b6000811580610d8a57505080820282828281610d8757fe5b04145b610dd2576040805162461bcd60e51b815260206004820152601460248201527364732d6d6174682d6d756c2d6f766572666c6f7760601b604482015290519081900360640190fd5b92915050565b6060610de385610f83565b610e34576040805162461bcd60e51b815260206004820152601d60248201527f416464726573733a2063616c6c20746f206e6f6e2d636f6e7472616374000000604482015290519081900360640190fd5b60006060866001600160a01b031685876040518082805190602001908083835b60208310610e735780518252601f199092019160209182019101610e54565b6001836020036101000a03801982511681845116808217855250505050505090500191505060006040518083038185875af1925050503d8060008114610ed5576040519150601f19603f3d011682016040523d82523d6000602084013e610eda565b606091505b50915091508115610eee579150610d679050565b805115610efe5780518082602001fd5b8360405162461bcd60e51b81526004018080602001828103825283818151815260200191508051906020019080838360005b83811015610f48578181015183820152602001610f30565b50505050905090810190601f168015610f755780820380516001836020036101000a031916815260200191505b509250505060405180910390fd5b6000813f7fc5d2460186f7233c927e7db2dcc703c0e500b653ca82273b7bfad8045d85a470818114801590610d6757505015159291505056fe556e697377617056324c6962726172793a204944454e544943414c5f414444524553534553556e697377617056324c6962726172793a20494e53554646494349454e545f4c4951554944495459556e697377617056324c6962726172793a20494e53554646494349454e545f414d4f554e545361666545524332303a204552433230206f7065726174696f6e20646964206e6f742073756363656564a2646970667358221220104a755974f4ac457a1d76196b718f63a50f7defd8b6d7662817500cc0fce20864736f6c634300060c0033"}}