{
  "opcodeHash": "0x35d610daad7161d88f1c2edc7674ec8c02a6a52b4e7d436adf7a1856f0347ad8",
  "metalessHash": "0xec40369ab2c4e5477dcb754d194102abb502ff828463bf189de1f7c7499d7cb5",
  "runtimeHash": "0x5e53858f1e0c8738961e3fef4c9a235c38aeb629667e57a5187c94e3530d578c",
  "encodedMetadata": [
    {
      "ipfs": "/ipfs/Qma9RWrHHRfRTqtBDtYGgJD3DfwB7N8WAs55JvPDjyAJf4",
      "solc": "0.7.4"
    }
  ],
  "abi": [
    {
      "inputs": [
        {
          "internalType": "contract DarknodePayment",
          "name": "_darknodePayment",
          "type": "address"
        }
      ],
      "stateMutability": "nonpayable",
      "type": "constructor"
    },
    {
      "inputs": [
        {
          "internalType": "address[]",
          "name": "darknodes",
          "type": "address[]"
        }
      ],
      "name": "claim",
      "outputs": [],
      "stateMutability": "nonpayable",
      "type": "function"
    }
  ],
  "bytecode": {
    "object": "608060405234801561001057600080fd5b506040516102623803806102628339818101604052602081101561003357600080fd5b8101908080519060200190929190505050806000806101000a81548173ffffffffffffffffffffffffffffffffffffffff021916908373ffffffffffffffffffffffffffffffffffffffff160217905550506101ce806100946000396000f3fe608060405234801561001057600080fd5b506004361061002b5760003560e01c8063318d9e5d14610030575b600080fd5b6100a76004803603602081101561004657600080fd5b810190808035906020019064010000000081111561006357600080fd5b82018360208201111561007557600080fd5b8035906020019184602083028401116401000000008311171561009757600080fd5b90919293919293905050506100a9565b005b60005b828290508160ff1610156101935760008054906101000a900473ffffffffffffffffffffffffffffffffffffffff1673ffffffffffffffffffffffffffffffffffffffff16631e83409a84848460ff1681811061010557fe5b9050602002013573ffffffffffffffffffffffffffffffffffffffff166040518263ffffffff1660e01b8152600401808273ffffffffffffffffffffffffffffffffffffffff168152602001915050600060405180830381600087803b15801561016e57600080fd5b505af1158015610182573d6000803e3d6000fd5b5050505080806001019150506100ac565b50505056fea2646970667358221220f85fb4849381ecd36f25a0f245cb91e19ec8813876dfe3d47714a372641a863064736f6c63430007040033"
  }
}