{
  "opcodeHash": "0xde91ad62bcd04365fe2c025a9f57e4f6ed755229851cb6b0917226370daf30e7",
  "metalessHash": "0x9308befaad691f9aa94818fa8ce9ffe7433f6ebc694b6db98df2df8b9c9fbabf",
  "runtimeHash": "0xc5bcbbc5618cdaba715e623193f750517a2f244e2e776c4f56c1c3c49a19b95c",
  "encodedMetadata": [
    {
      "ipfs": "/ipfs/QmUTNj1kq2CCvfKBWtnJM1qy9czy2CvJa9bS97sT8zuFBm",
      "solc": "0.6.2"
    }
  ],
  "abi": [
    {
      "inputs": [
        {
          "internalType": "address[]",
          "name": "_owners",
          "type": "address[]"
        },
        {
          "internalType": "uint256",
          "name": "_required",
          "type": "uint256"
        }
      ],
      "stateMutability": "nonpayable",
      "type": "constructor"
    },
    {
      "anonymous": false,
      "inputs": [
        {
          "indexed": true,
          "internalType": "address",
          "name": "sender",
          "type": "address"
        },
        {
          "indexed": true,
          "internalType": "uint256",
          "name": "transactionId",
          "type": "uint256"
        }
      ],
      "name": "Confirmation",
      "type": "event"
    },
    {
      "anonymous": false,
      "inputs": [
        {
          "indexed": true,
          "internalType": "address",
          "name": "sender",
          "type": "address"
        },
        {
          "indexed": false,
          "internalType": "uint256",
          "name": "value",
          "type": "uint256"
        }
      ],
      "name": "Deposit",
      "type": "event"
    },
    {
      "anonymous": false,
      "inputs": [
        {
          "indexed": true,
          "internalType": "uint256",
          "name": "transactionId",
          "type": "uint256"
        }
      ],
      "name": "Execution",
      "type": "event"
    },
    {
      "anonymous": false,
      "inputs": [
        {
          "indexed": true,
          "internalType": "uint256",
          "name": "transactionId",
          "type": "uint256"
        }
      ],
      "name": "ExecutionFailure",
      "type": "event"
    },
    {
      "anonymous": false,
      "inputs": [
        {
          "indexed": true,
          "internalType": "uint256",
          "name": "newDelay",
          "type": "uint256"
        }
      ],
      "name": "NewDelay",
      "type": "event"
    },
    {
      "anonymous": false,
      "inputs": [
        {
          "indexed": true,
          "internalType": "address",
          "name": "owner",
          "type": "address"
        }
      ],
      "name": "OwnerAddition",
      "type": "event"
    },
    {
      "anonymous": false,
      "inputs": [
        {
          "indexed": true,
          "internalType": "address",
          "name": "owner",
          "type": "address"
        }
      ],
      "name": "OwnerRemoval",
      "type": "event"
    },
    {
      "anonymous": false,
      "inputs": [
        {
          "indexed": false,
          "internalType": "uint256",
          "name": "required",
          "type": "uint256"
        }
      ],
      "name": "RequirementChange",
      "type": "event"
    },
    {
      "anonymous": false,
      "inputs": [
        {
          "indexed": true,
          "internalType": "address",
          "name": "sender",
          "type": "address"
        },
        {
          "indexed": true,
          "internalType": "uint256",
          "name": "transactionId",
          "type": "uint256"
        }
      ],
      "name": "Revocation",
      "type": "event"
    },
    {
      "anonymous": false,
      "inputs": [
        {
          "indexed": true,
          "internalType": "uint256",
          "name": "transactionId",
          "type": "uint256"
        }
      ],
      "name": "Submission",
      "type": "event"
    },
    {
      "inputs": [],
      "name": "MAX_OWNER_COUNT",
      "outputs": [
        {
          "internalType": "uint256",
          "name": "",
          "type": "uint256"
        }
      ],
      "stateMutability": "view",
      "type": "function"
    },
    {
      "inputs": [
        {
          "internalType": "address",
          "name": "owner",
          "type": "address"
        }
      ],
      "name": "addOwner",
      "outputs": [],
      "stateMutability": "nonpayable",
      "type": "function"
    },
    {
      "inputs": [
        {
          "internalType": "uint256",
          "name": "_required",
          "type": "uint256"
        }
      ],
      "name": "changeRequirement",
      "outputs": [],
      "stateMutability": "nonpayable",
      "type": "function"
    },
    {
      "inputs": [
        {
          "internalType": "uint256",
          "name": "transactionId",
          "type": "uint256"
        }
      ],
      "name": "confirmTransaction",
      "outputs": [],
      "stateMutability": "nonpayable",
      "type": "function"
    },
    {
      "inputs": [
        {
          "internalType": "uint256",
          "name": "",
          "type": "uint256"
        },
        {
          "internalType": "address",
          "name": "",
          "type": "address"
        }
      ],
      "name": "confirmations",
      "outputs": [
        {
          "internalType": "bool",
          "name": "",
          "type": "bool"
        }
      ],
      "stateMutability": "view",
      "type": "function"
    },
    {
      "inputs": [],
      "name": "delay",
      "outputs": [
        {
          "internalType": "uint256",
          "name": "",
          "type": "uint256"
        }
      ],
      "stateMutability": "view",
      "type": "function"
    },
    {
      "inputs": [
        {
          "internalType": "uint256",
          "name": "transactionId",
          "type": "uint256"
        }
      ],
      "name": "executeTransaction",
      "outputs": [],
      "stateMutability": "nonpayable",
      "type": "function"
    },
    {
      "inputs": [
        {
          "internalType": "uint256",
          "name": "transactionId",
          "type": "uint256"
        }
      ],
      "name": "getConfirmationCount",
      "outputs": [
        {
          "internalType": "uint256",
          "name": "count",
          "type": "uint256"
        }
      ],
      "stateMutability": "view",
      "type": "function"
    },
    {
      "inputs": [
        {
          "internalType": "uint256",
          "name": "transactionId",
          "type": "uint256"
        }
      ],
      "name": "getConfirmations",
      "outputs": [
        {
          "internalType": "address[]",
          "name": "_confirmations",
          "type": "address[]"
        }
      ],
      "stateMutability": "view",
      "type": "function"
    },
    {
      "inputs": [],
      "name": "getOwners",
      "outputs": [
        {
          "internalType": "address[]",
          "name": "",
          "type": "address[]"
        }
      ],
      "stateMutability": "view",
      "type": "function"
    },
    {
      "inputs": [
        {
          "internalType": "bool",
          "name": "pending",
          "type": "bool"
        },
        {
          "internalType": "bool",
          "name": "executed",
          "type": "bool"
        }
      ],
      "name": "getTransactionCount",
      "outputs": [
        {
          "internalType": "uint256",
          "name": "count",
          "type": "uint256"
        }
      ],
      "stateMutability": "view",
      "type": "function"
    },
    {
      "inputs": [
        {
          "internalType": "uint256",
          "name": "from",
          "type": "uint256"
        },
        {
          "internalType": "uint256",
          "name": "to",
          "type": "uint256"
        },
        {
          "internalType": "bool",
          "name": "pending",
          "type": "bool"
        },
        {
          "internalType": "bool",
          "name": "executed",
          "type": "bool"
        }
      ],
      "name": "getTransactionIds",
      "outputs": [
        {
          "internalType": "uint256[]",
          "name": "_transactionIds",
          "type": "uint256[]"
        }
      ],
      "stateMutability": "view",
      "type": "function"
    },
    {
      "inputs": [
        {
          "internalType": "uint256",
          "name": "transactionId",
          "type": "uint256"
        }
      ],
      "name": "isConfirmed",
      "outputs": [
        {
          "internalType": "bool",
          "name": "",
          "type": "bool"
        }
      ],
      "stateMutability": "view",
      "type": "function"
    },
    {
      "inputs": [
        {
          "internalType": "address",
          "name": "",
          "type": "address"
        }
      ],
      "name": "isOwner",
      "outputs": [
        {
          "internalType": "bool",
          "name": "",
          "type": "bool"
        }
      ],
      "stateMutability": "view",
      "type": "function"
    },
    {
      "inputs": [
        {
          "internalType": "uint256",
          "name": "",
          "type": "uint256"
        }
      ],
      "name": "owners",
      "outputs": [
        {
          "internalType": "address",
          "name": "",
          "type": "address"
        }
      ],
      "stateMutability": "view",
      "type": "function"
    },
    {
      "inputs": [
        {
          "internalType": "address",
          "name": "owner",
          "type": "address"
        }
      ],
      "name": "removeOwner",
      "outputs": [],
      "stateMutability": "nonpayable",
      "type": "function"
    },
    {
      "inputs": [
        {
          "internalType": "address",
          "name": "owner",
          "type": "address"
        },
        {
          "internalType": "address",
          "name": "newOwner",
          "type": "address"
        }
      ],
      "name": "replaceOwner",
      "outputs": [],
      "stateMutability": "nonpayable",
      "type": "function"
    },
    {
      "inputs": [],
      "name": "required",
      "outputs": [
        {
          "internalType": "uint256",
          "name": "",
          "type": "uint256"
        }
      ],
      "stateMutability": "view",
      "type": "function"
    },
    {
      "inputs": [
        {
          "internalType": "uint256",
          "name": "transactionId",
          "type": "uint256"
        }
      ],
      "name": "revokeConfirmation",
      "outputs": [],
      "stateMutability": "nonpayable",
      "type": "function"
    },
    {
      "inputs": [
        {
          "internalType": "uint256",
          "name": "_delay",
          "type": "uint256"
        }
      ],
      "name": "setDelay",
      "outputs": [],
      "stateMutability": "nonpayable",
      "type": "function"
    },
    {
      "inputs": [
        {
          "internalType": "address",
          "name": "destination",
          "type": "address"
        },
        {
          "internalType": "uint256",
          "name": "value",
          "type": "uint256"
        },
        {
          "internalType": "bytes",
          "name": "data",
          "type": "bytes"
        }
      ],
      "name": "submitTransaction",
      "outputs": [
        {
          "internalType": "uint256",
          "name": "transactionId",
          "type": "uint256"
        }
      ],
      "stateMutability": "nonpayable",
      "type": "function"
    },
    {
      "inputs": [
        {
          "internalType": "uint256",
          "name": "",
          "type": "uint256"
        }
      ],
      "name": "timelocks",
      "outputs": [
        {
          "internalType": "uint256",
          "name": "",
          "type": "uint256"
        }
      ],
      "stateMutability": "view",
      "type": "function"
    },
    {
      "inputs": [],
      "name": "transactionCount",
      "outputs": [
        {
          "internalType": "uint256",
          "name": "",
          "type": "uint256"
        }
      ],
      "stateMutability": "view",
      "type": "function"
    },
    {
      "inputs": [
        {
          "internalType": "uint256",
          "name": "",
          "type": "uint256"
        }
      ],
      "name": "transactions",
      "outputs": [
        {
          "internalType": "address",
          "name": "destination",
          "type": "address"
        },
        {
          "internalType": "uint256",
          "name": "value",
          "type": "uint256"
        },
        {
          "internalType": "bytes",
          "name": "data",
          "type": "bytes"
        },
        {
          "internalType": "bool",
          "name": "executed",
          "type": "bool"
        }
      ],
      "stateMutability": "view",
      "type": "function"
    },
    {
      "stateMutability": "payable",
      "type": "receive"
    }
  ],
  "bytecode": {
    "object": "60806040526202a3006007553480156200001857600080fd5b506040516200285538038062002855833981810160405260408110156200003e57600080fd5b81019080805160405193929190846401000000008211156200005f57600080fd5b838201915060208201858111156200007657600080fd5b82518660208202830111640100000000821117156200009457600080fd5b8083526020830192505050908051906020019060200280838360005b83811015620000cd578082015181840152602081019050620000b0565b505050509050016040526020018051906020019092919050505081518160328211158015620000fc5750818111155b80156200010a575060008114155b801562000118575060008214155b6200012257600080fd5b60008090505b84518110156200026657600260008683815181106200014357fe5b602002602001015173ffffffffffffffffffffffffffffffffffffffff1673ffffffffffffffffffffffffffffffffffffffff16815260200190815260200160002060009054906101000a900460ff16158015620001e25750600073ffffffffffffffffffffffffffffffffffffffff16858281518110620001c157fe5b602002602001015173ffffffffffffffffffffffffffffffffffffffff1614155b620001ec57600080fd5b600160026000878481518110620001ff57fe5b602002602001015173ffffffffffffffffffffffffffffffffffffffff1673ffffffffffffffffffffffffffffffffffffffff16815260200190815260200160002060006101000a81548160ff021916908315150217905550808060010191505062000128565b5083600490805190602001906200027f92919062000291565b50826005819055505050505062000366565b8280548282559060005260206000209081019282156200030d579160200282015b828111156200030c5782518260006101000a81548173ffffffffffffffffffffffffffffffffffffffff021916908373ffffffffffffffffffffffffffffffffffffffff16021790555091602001919060010190620002b2565b5b5090506200031c919062000320565b5090565b6200036391905b808211156200035f57600081816101000a81549073ffffffffffffffffffffffffffffffffffffffff02191690555060010162000327565b5090565b90565b6124df80620003766000396000f3fe60806040526004361061014f5760003560e01c8063a0e67e2b116100b6578063c64274741161006f578063c6427474146108a8578063d74f8edd146109ae578063dc8452cd146109d9578063e177246e14610a04578063e20056e614610a3f578063ee22610b14610ab0576101ae565b8063a0e67e2b14610659578063a8abe69a146106c5578063b5dc40c314610777578063b77bf60014610807578063ba51a6df14610832578063c01a8c841461086d576101ae565b8063547415251161010857806354741525146103e55780636a42b8f8146104425780637065cb481461046d578063784547a7146104be5780638b51d13f146105115780639ace38c214610560576101ae565b8063025e7c27146101b35780630d7e149f1461022e578063173825d91461027d57806320ea8d86146102ce5780632f54bf6e146103095780633411c81c14610372576101ae565b366101ae5760003411156101ac573373ffffffffffffffffffffffffffffffffffffffff167fe1fffcc4923d04b559f4d29a8bfc6cda04eb5b0d3c460751c2402c5c5cc9109c346040518082815260200191505060405180910390a25b005b600080fd5b3480156101bf57600080fd5b506101ec600480360360208110156101d657600080fd5b8101908080359060200190929190505050610aeb565b604051808273ffffffffffffffffffffffffffffffffffffffff1673ffffffffffffffffffffffffffffffffffffffff16815260200191505060405180910390f35b34801561023a57600080fd5b506102676004803603602081101561025157600080fd5b8101908080359060200190929190505050610b27565b6040518082815260200191505060405180910390f35b34801561028957600080fd5b506102cc600480360360208110156102a057600080fd5b81019080803573ffffffffffffffffffffffffffffffffffffffff169060200190929190505050610b3f565b005b3480156102da57600080fd5b50610307600480360360208110156102f157600080fd5b8101908080359060200190929190505050610df4565b005b34801561031557600080fd5b506103586004803603602081101561032c57600080fd5b81019080803573ffffffffffffffffffffffffffffffffffffffff169060200190929190505050610f96565b604051808215151515815260200191505060405180910390f35b34801561037e57600080fd5b506103cb6004803603604081101561039557600080fd5b8101908080359060200190929190803573ffffffffffffffffffffffffffffffffffffffff169060200190929190505050610fb6565b604051808215151515815260200191505060405180910390f35b3480156103f157600080fd5b5061042c6004803603604081101561040857600080fd5b81019080803515159060200190929190803515159060200190929190505050610fe5565b6040518082815260200191505060405180910390f35b34801561044e57600080fd5b50610457611077565b6040518082815260200191505060405180910390f35b34801561047957600080fd5b506104bc6004803603602081101561049057600080fd5b81019080803573ffffffffffffffffffffffffffffffffffffffff16906020019092919050505061107d565b005b3480156104ca57600080fd5b506104f7600480360360208110156104e157600080fd5b810190808035906020019092919050505061128d565b604051808215151515815260200191505060405180910390f35b34801561051d57600080fd5b5061054a6004803603602081101561053457600080fd5b8101908080359060200190929190505050611372565b6040518082815260200191505060405180910390f35b34801561056c57600080fd5b506105996004803603602081101561058357600080fd5b810190808035906020019092919050505061143b565b604051808573ffffffffffffffffffffffffffffffffffffffff1673ffffffffffffffffffffffffffffffffffffffff1681526020018481526020018060200183151515158152602001828103825284818151815260200191508051906020019080838360005b8381101561061b578082015181840152602081019050610600565b50505050905090810190601f1680156106485780820380516001836020036101000a031916815260200191505b509550505050505060405180910390f35b34801561066557600080fd5b5061066e611530565b6040518080602001828103825283818151815260200191508051906020019060200280838360005b838110156106b1578082015181840152602081019050610696565b505050509050019250505060405180910390f35b3480156106d157600080fd5b50610720600480360360808110156106e857600080fd5b8101908080359060200190929190803590602001909291908035151590602001909291908035151590602001909291905050506115be565b6040518080602001828103825283818151815260200191508051906020019060200280838360005b83811015610763578082015181840152602081019050610748565b505050509050019250505060405180910390f35b34801561078357600080fd5b506107b06004803603602081101561079a57600080fd5b8101908080359060200190929190505050611722565b6040518080602001828103825283818151815260200191508051906020019060200280838360005b838110156107f35780820151818401526020810190506107d8565b505050509050019250505060405180910390f35b34801561081357600080fd5b5061081c61194e565b6040518082815260200191505060405180910390f35b34801561083e57600080fd5b5061086b6004803603602081101561085557600080fd5b8101908080359060200190929190505050611954565b005b34801561087957600080fd5b506108a66004803603602081101561089057600080fd5b8101908080359060200190929190505050611a0a565b005b3480156108b457600080fd5b50610998600480360360608110156108cb57600080fd5b81019080803573ffffffffffffffffffffffffffffffffffffffff169060200190929190803590602001909291908035906020019064010000000081111561091257600080fd5b82018360208201111561092457600080fd5b8035906020019184600183028401116401000000008311171561094657600080fd5b91908080601f016020809104026020016040519081016040528093929190818152602001838380828437600081840152601f19601f820116905080830192505050505050509192919290505050611bf7565b6040518082815260200191505060405180910390f35b3480156109ba57600080fd5b506109c3611c16565b6040518082815260200191505060405180910390f35b3480156109e557600080fd5b506109ee611c1b565b6040518082815260200191505060405180910390f35b348015610a1057600080fd5b50610a3d60048036036020811015610a2757600080fd5b8101908080359060200190929190505050611c21565b005b348015610a4b57600080fd5b50610aae60048036036040811015610a6257600080fd5b81019080803573ffffffffffffffffffffffffffffffffffffffff169060200190929190803573ffffffffffffffffffffffffffffffffffffffff169060200190929190505050611c92565b005b348015610abc57600080fd5b50610ae960048036036020811015610ad357600080fd5b8101908080359060200190929190505050611f9c565b005b60048181548110610af857fe5b906000526020600020016000915054906101000a900473ffffffffffffffffffffffffffffffffffffffff1681565b60036020528060005260406000206000915090505481565b3073ffffffffffffffffffffffffffffffffffffffff163373ffffffffffffffffffffffffffffffffffffffff1614610b7757600080fd5b80600260008273ffffffffffffffffffffffffffffffffffffffff1673ffffffffffffffffffffffffffffffffffffffff16815260200190815260200160002060009054906101000a900460ff16610bce57600080fd5b6000600260008473ffffffffffffffffffffffffffffffffffffffff1673ffffffffffffffffffffffffffffffffffffffff16815260200190815260200160002060006101000a81548160ff02191690831515021790555060008090505b600160048054905003811015610d4e578273ffffffffffffffffffffffffffffffffffffffff1660048281548110610c6057fe5b9060005260206000200160009054906101000a900473ffffffffffffffffffffffffffffffffffffffff1673ffffffffffffffffffffffffffffffffffffffff161415610d4157600460016004805490500381548110610cbc57fe5b9060005260206000200160009054906101000a900473ffffffffffffffffffffffffffffffffffffffff1660048281548110610cf457fe5b9060005260206000200160006101000a81548173ffffffffffffffffffffffffffffffffffffffff021916908373ffffffffffffffffffffffffffffffffffffffff160217905550610d4e565b8080600101915050610c2c565b506004805480610d5a57fe5b6001900381819060005260206000200160006101000a81549073ffffffffffffffffffffffffffffffffffffffff021916905590556004805490506005541115610dad57610dac600480549050611954565b5b8173ffffffffffffffffffffffffffffffffffffffff167f8001553a916ef2f495d26a907cc54d96ed840d7bda71e73194bf5a9df7a76b9060405160405180910390a25050565b33600260008273ffffffffffffffffffffffffffffffffffffffff1673ffffffffffffffffffffffffffffffffffffffff16815260200190815260200160002060009054906101000a900460ff16610e4b57600080fd5b81336001600083815260200190815260200160002060008273ffffffffffffffffffffffffffffffffffffffff1673ffffffffffffffffffffffffffffffffffffffff16815260200190815260200160002060009054906101000a900460ff16610eb457600080fd5b8360008082815260200190815260200160002060030160009054906101000a900460ff1615610ee257600080fd5b60006001600087815260200190815260200160002060003373ffffffffffffffffffffffffffffffffffffffff1673ffffffffffffffffffffffffffffffffffffffff16815260200190815260200160002060006101000a81548160ff021916908315150217905550843373ffffffffffffffffffffffffffffffffffffffff167ff6a317157440607f36269043eb55f1287a5a19ba2216afeab88cd46cbcfb88e960405160405180910390a35050505050565b60026020528060005260406000206000915054906101000a900460ff1681565b60016020528160005260406000206020528060005260406000206000915091509054906101000a900460ff1681565b600080600090505b60065481101561107057838015611024575060008082815260200190815260200160002060030160009054906101000a900460ff16155b806110575750828015611056575060008082815260200190815260200160002060030160009054906101000a900460ff165b5b15611063576001820191505b8080600101915050610fed565b5092915050565b60075481565b3073ffffffffffffffffffffffffffffffffffffffff163373ffffffffffffffffffffffffffffffffffffffff16146110b557600080fd5b80600260008273ffffffffffffffffffffffffffffffffffffffff1673ffffffffffffffffffffffffffffffffffffffff16815260200190815260200160002060009054906101000a900460ff161561110d57600080fd5b81600073ffffffffffffffffffffffffffffffffffffffff168173ffffffffffffffffffffffffffffffffffffffff16141561114857600080fd5b600160048054905001600554603282111580156111655750818111155b8015611172575060008114155b801561117f575060008214155b61118857600080fd5b6001600260008773ffffffffffffffffffffffffffffffffffffffff1673ffffffffffffffffffffffffffffffffffffffff16815260200190815260200160002060006101000a81548160ff0219169083151502179055506004859080600181540180825580915050600190039060005260206000200160009091909190916101000a81548173ffffffffffffffffffffffffffffffffffffffff021916908373ffffffffffffffffffffffffffffffffffffffff1602179055508473ffffffffffffffffffffffffffffffffffffffff167ff39e6e1eb0edcf53c221607b54b00cd28f3196fed0a24994dc308b8f611b682d60405160405180910390a25050505050565b6000806000905060008090505b60048054905081101561136a57600160008581526020019081526020016000206000600483815481106112c957fe5b9060005260206000200160009054906101000a900473ffffffffffffffffffffffffffffffffffffffff1673ffffffffffffffffffffffffffffffffffffffff1673ffffffffffffffffffffffffffffffffffffffff16815260200190815260200160002060009054906101000a900460ff1615611348576001820191505b60055482141561135d5760019250505061136d565b808060010191505061129a565b50505b919050565b600080600090505b60048054905081101561143557600160008481526020019081526020016000206000600483815481106113a957fe5b9060005260206000200160009054906101000a900473ffffffffffffffffffffffffffffffffffffffff1673ffffffffffffffffffffffffffffffffffffffff1673ffffffffffffffffffffffffffffffffffffffff16815260200190815260200160002060009054906101000a900460ff1615611428576001820191505b808060010191505061137a565b50919050565b60006020528060005260406000206000915090508060000160009054906101000a900473ffffffffffffffffffffffffffffffffffffffff1690806001015490806002018054600181600116156101000203166002900480601f0160208091040260200160405190810160405280929190818152602001828054600181600116156101000203166002900480156115135780601f106114e857610100808354040283529160200191611513565b820191906000526020600020905b8154815290600101906020018083116114f657829003601f168201915b5050505050908060030160009054906101000a900460ff16905084565b606060048054806020026020016040519081016040528092919081815260200182805480156115b457602002820191906000526020600020905b8160009054906101000a900473ffffffffffffffffffffffffffffffffffffffff1673ffffffffffffffffffffffffffffffffffffffff168152602001906001019080831161156a575b5050505050905090565b6060806006546040519080825280602002602001820160405280156115f25781602001602082028038833980820191505090505b509050600080905060008090505b60065481101561169c57858015611637575060008082815260200190815260200160002060030160009054906101000a900460ff16155b8061166a5750848015611669575060008082815260200190815260200160002060030160009054906101000a900460ff165b5b1561168f578083838151811061167c57fe5b6020026020010181815250506001820191505b8080600101915050611600565b8787036040519080825280602002602001820160405280156116cd5781602001602082028038833980820191505090505b5093508790505b86811015611717578281815181106116e857fe5b602002602001015184898303815181106116fe57fe5b60200260200101818152505080806001019150506116d4565b505050949350505050565b6060806004805490506040519080825280602002602001820160405280156117595781602001602082028038833980820191505090505b509050600080905060008090505b6004805490508110156118a0576001600086815260200190815260200160002060006004838154811061179657fe5b9060005260206000200160009054906101000a900473ffffffffffffffffffffffffffffffffffffffff1673ffffffffffffffffffffffffffffffffffffffff1673ffffffffffffffffffffffffffffffffffffffff16815260200190815260200160002060009054906101000a900460ff1615611893576004818154811061181b57fe5b9060005260206000200160009054906101000a900473ffffffffffffffffffffffffffffffffffffffff1683838151811061185257fe5b602002602001019073ffffffffffffffffffffffffffffffffffffffff16908173ffffffffffffffffffffffffffffffffffffffff16815250506001820191505b8080600101915050611767565b816040519080825280602002602001820160405280156118cf5781602001602082028038833980820191505090505b509350600090505b81811015611946578281815181106118eb57fe5b60200260200101518482815181106118ff57fe5b602002602001019073ffffffffffffffffffffffffffffffffffffffff16908173ffffffffffffffffffffffffffffffffffffffff168152505080806001019150506118d7565b505050919050565b60065481565b3073ffffffffffffffffffffffffffffffffffffffff163373ffffffffffffffffffffffffffffffffffffffff161461198c57600080fd5b60048054905081603282111580156119a45750818111155b80156119b1575060008114155b80156119be575060008214155b6119c757600080fd5b826005819055507fa3f1ee9126a074d9326c682f561767f710e927faa811f7a99829d49dc421797a836040518082815260200191505060405180910390a1505050565b33600260008273ffffffffffffffffffffffffffffffffffffffff1673ffffffffffffffffffffffffffffffffffffffff16815260200190815260200160002060009054906101000a900460ff16611a6157600080fd5b81600073ffffffffffffffffffffffffffffffffffffffff1660008083815260200190815260200160002060000160009054906101000a900473ffffffffffffffffffffffffffffffffffffffff1673ffffffffffffffffffffffffffffffffffffffff161415611ad157600080fd5b82336001600083815260200190815260200160002060008273ffffffffffffffffffffffffffffffffffffffff1673ffffffffffffffffffffffffffffffffffffffff16815260200190815260200160002060009054906101000a900460ff1615611b3b57600080fd5b600180600087815260200190815260200160002060003373ffffffffffffffffffffffffffffffffffffffff1673ffffffffffffffffffffffffffffffffffffffff16815260200190815260200160002060006101000a81548160ff021916908315150217905550843373ffffffffffffffffffffffffffffffffffffffff167f4a504a94899432a9846e1aa406dceb1bcfd538bb839071d49d1e5e23f5be30ef60405160405180910390a3611bf085611f9c565b5050505050565b6000611c0484848461225c565b9050611c0f81611a0a565b9392505050565b603281565b60055481565b3073ffffffffffffffffffffffffffffffffffffffff163373ffffffffffffffffffffffffffffffffffffffff1614611c5957600080fd5b806007819055506007547f948b1f6a42ee138b7e34058ba85a37f716d55ff25ff05a763f15bed6a04c8d2c60405160405180910390a250565b3073ffffffffffffffffffffffffffffffffffffffff163373ffffffffffffffffffffffffffffffffffffffff1614611cca57600080fd5b81600260008273ffffffffffffffffffffffffffffffffffffffff1673ffffffffffffffffffffffffffffffffffffffff16815260200190815260200160002060009054906101000a900460ff16611d2157600080fd5b81600260008273ffffffffffffffffffffffffffffffffffffffff1673ffffffffffffffffffffffffffffffffffffffff16815260200190815260200160002060009054906101000a900460ff1615611d7957600080fd5b60008090505b600480549050811015611e5f578473ffffffffffffffffffffffffffffffffffffffff1660048281548110611db057fe5b9060005260206000200160009054906101000a900473ffffffffffffffffffffffffffffffffffffffff1673ffffffffffffffffffffffffffffffffffffffff161415611e52578360048281548110611e0557fe5b9060005260206000200160006101000a81548173ffffffffffffffffffffffffffffffffffffffff021916908373ffffffffffffffffffffffffffffffffffffffff160217905550611e5f565b8080600101915050611d7f565b506000600260008673ffffffffffffffffffffffffffffffffffffffff1673ffffffffffffffffffffffffffffffffffffffff16815260200190815260200160002060006101000a81548160ff0219169083151502179055506001600260008573ffffffffffffffffffffffffffffffffffffffff1673ffffffffffffffffffffffffffffffffffffffff16815260200190815260200160002060006101000a81548160ff0219169083151502179055508373ffffffffffffffffffffffffffffffffffffffff167f8001553a916ef2f495d26a907cc54d96ed840d7bda71e73194bf5a9df7a76b9060405160405180910390a28273ffffffffffffffffffffffffffffffffffffffff167ff39e6e1eb0edcf53c221607b54b00cd28f3196fed0a24994dc308b8f611b682d60405160405180910390a250505050565b33600260008273ffffffffffffffffffffffffffffffffffffffff1673ffffffffffffffffffffffffffffffffffffffff16815260200190815260200160002060009054906101000a900460ff16611ff357600080fd5b81336001600083815260200190815260200160002060008273ffffffffffffffffffffffffffffffffffffffff1673ffffffffffffffffffffffffffffffffffffffff16815260200190815260200160002060009054906101000a900460ff1661205c57600080fd5b8360008082815260200190815260200160002060030160009054906101000a900460ff161561208a57600080fd5b6120938561128d565b80156120b15750426003600087815260200190815260200160002054105b15612255576000806000878152602001908152602001600020905060018160030160006101000a81548160ff0219169083151502179055506121d18160000160009054906101000a900473ffffffffffffffffffffffffffffffffffffffff16826001015483600201805460018160011615610100020316600290049050846002018054600181600116156101000203166002900480601f0160208091040260200160405190810160405280929190818152602001828054600181600116156101000203166002900480156121c75780601f1061219c576101008083540402835291602001916121c7565b820191906000526020600020905b8154815290600101906020018083116121aa57829003601f168201915b50505050506123dd565b1561220857857f33e13ecb54c3076d8e8bb8c2881800a4d972b792045ffae98fdf46df365fed7560405160405180910390a2612253565b857f526441bb6c1aba3c9a4a6ca1d6545da9c2333c8c48343ef398eb858d72b7923660405160405180910390a260008160030160006101000a81548160ff0219169083151502179055505b505b5050505050565b600083600073ffffffffffffffffffffffffffffffffffffffff168173ffffffffffffffffffffffffffffffffffffffff16141561229957600080fd5b600654915060405180608001604052808673ffffffffffffffffffffffffffffffffffffffff1681526020018581526020018481526020016000151581525060008084815260200190815260200160002060008201518160000160006101000a81548173ffffffffffffffffffffffffffffffffffffffff021916908373ffffffffffffffffffffffffffffffffffffffff160217905550602082015181600101556040820151816002019080519060200190612357929190612404565b5060608201518160030160006101000a81548160ff021916908315150217905550905050600754420160036000848152602001908152602001600020819055506001600660008282540192505081905550817fc0ba8fe4b176c1714197d43b9cc6bcf797a4a7461c5fe8d0ef6e184ae7601e5160405160405180910390a2509392505050565b6000806040516020840160008287838a8c6187965a03f19250505080915050949350505050565b828054600181600116156101000203166002900490600052602060002090601f016020900481019282601f1061244557805160ff1916838001178555612473565b82800160010185558215612473579182015b82811115612472578251825591602001919060010190612457565b5b5090506124809190612484565b5090565b6124a691905b808211156124a257600081600090555060010161248a565b5090565b9056fea2646970667358221220f7f0a9527d735f136b044462ee75ff8ee5ae701b09c2c28dd328173be0accbec64736f6c63430006020033"
  }
}