{
  "opcodeHash": "0x7d78de6795f483c53f42d6dcd4e72cb84e6c7c597e3e177b76675b3e6cad6176",
  "metalessHash": "0x25ed91b8a7107463b411402aa04f21294af92f2640999b0aa0e2e1d8ce49c33f",
  "runtimeHash": "0x7ff1a591e433ffb1875785f431b4662b43213d5b990e29f8e6316a078d034bd6",
  "encodedMetadata": [
    {
      "bzzr0": "/swarm/bzzr0/bf4aa9bd873b525274ffd1f2991a58c3bee1bf16bff0e4b3190fc373d3c8f260"
    }
  ],
  "abi": [
    {
      "constant": true,
      "inputs": [],
      "name": "releaseTimestamp",
      "outputs": [
        {
          "name": "",
          "type": "uint256"
        }
      ],
      "payable": false,
      "stateMutability": "view",
      "type": "function"
    },
    {
      "constant": false,
      "inputs": [],
      "name": "release",
      "outputs": [],
      "payable": false,
      "stateMutability": "nonpayable",
      "type": "function"
    },
    {
      "constant": true,
      "inputs": [],
      "name": "owner",
      "outputs": [
        {
          "name": "",
          "type": "address"
        }
      ],
      "payable": false,
      "stateMutability": "view",
      "type": "function"
    },
    {
      "constant": false,
      "inputs": [
        {
          "name": "newOwner",
          "type": "address"
        }
      ],
      "name": "transferOwnership",
      "outputs": [],
      "payable": false,
      "stateMutability": "nonpayable",
      "type": "function"
    },
    {
      "constant": true,
      "inputs": [],
      "name": "token",
      "outputs": [
        {
          "name": "",
          "type": "address"
        }
      ],
      "payable": false,
      "stateMutability": "view",
      "type": "function"
    },
    {
      "constant": true,
      "inputs": [],
      "name": "masterWallet",
      "outputs": [
        {
          "name": "",
          "type": "address"
        }
      ],
      "payable": false,
      "stateMutability": "view",
      "type": "function"
    },
    {
      "inputs": [
        {
          "name": "_token",
          "type": "address"
        },
        {
          "name": "_masterWallet",
          "type": "address"
        },
        {
          "name": "_releaseTimestamp",
          "type": "uint256"
        }
      ],
      "payable": false,
      "stateMutability": "nonpayable",
      "type": "constructor"
    },
    {
      "payable": true,
      "stateMutability": "payable",
      "type": "fallback"
    },
    {
      "anonymous": false,
      "inputs": [
        {
          "indexed": false,
          "name": "_masterWallet",
          "type": "address"
        },
        {
          "indexed": false,
          "name": "_amount",
          "type": "uint256"
        }
      ],
      "name": "TokenReleased",
      "type": "event"
    },
    {
      "anonymous": false,
      "inputs": [
        {
          "indexed": true,
          "name": "previousOwner",
          "type": "address"
        },
        {
          "indexed": true,
          "name": "newOwner",
          "type": "address"
        }
      ],
      "name": "OwnershipTransferred",
      "type": "event"
    }
  ],
  "bytecode": {
    "object": "608060405234801561001057600080fd5b506040516060806104db8339810180604052606081101561003057600080fd5b508051602082015160409092015160008054600160a060020a03191633179055909190600160a060020a038216151561006857600080fd5b42811161007457600080fd5b60018054600160a060020a03948516600160a060020a0319918216179091556002805493909416921691909117909155600355610425806100b66000396000f3fe6080604052600436106100775763ffffffff7c01000000000000000000000000000000000000000000000000000000006000350416630a3f013f811461007c57806386d1a69f146100a35780638da5cb5b146100ba578063f2fde38b146100eb578063fc0c546a1461011e578063fc0d011714610133575b600080fd5b34801561008857600080fd5b50610091610148565b60408051918252519081900360200190f35b3480156100af57600080fd5b506100b861014e565b005b3480156100c657600080fd5b506100cf610338565b60408051600160a060020a039092168252519081900360200190f35b3480156100f757600080fd5b506100b86004803603602081101561010e57600080fd5b5035600160a060020a0316610347565b34801561012a57600080fd5b506100cf6103db565b34801561013f57600080fd5b506100cf6103ea565b60035481565b60035442116101be57604080517f08c379a000000000000000000000000000000000000000000000000000000000815260206004820152601260248201527f5472616e73616374696f6e206c6f636b65640000000000000000000000000000604482015290519081900360640190fd5b600154604080517f70a082310000000000000000000000000000000000000000000000000000000081523060048201529051600092600160a060020a0316916370a08231916024808301926020929190829003018186803b15801561022257600080fd5b505afa158015610236573d6000803e3d6000fd5b505050506040513d602081101561024c57600080fd5b5051600154600254604080517fa9059cbb000000000000000000000000000000000000000000000000000000008152600160a060020a03928316600482015260248101859052905193945091169163a9059cbb916044808201926020929091908290030181600087803b1580156102c257600080fd5b505af11580156102d6573d6000803e3d6000fd5b505050506040513d60208110156102ec57600080fd5b505060025460408051600160a060020a0390921682526020820183905280517f9cf9e3ab58b33f06d81842ea0ad850b6640c6430d6396973312e1715792e7a919281900390910190a150565b600054600160a060020a031681565b600054600160a060020a0316331461035e57600080fd5b600160a060020a038116151561037357600080fd5b60008054604051600160a060020a03808516939216917f8be0079c531659141344cd1fd0a4f28419497f9722a3daafe3b4186f6b6457e091a36000805473ffffffffffffffffffffffffffffffffffffffff1916600160a060020a0392909216919091179055565b600154600160a060020a031681565b600254600160a060020a03168156fea165627a7a72305820a84754fc0bfa049cd33e9d5eb59427ab01672b92b373e8c3459fc87214ecfa4a0029"
  }
}