{
  "opcodeHash": "0x09a64938f16a71f05459e89aa23eafec110ba42c4d3796267c7c932cfcca43e5",
  "metalessHash": "0x0b9f161087fb211d6386e09e3ca1beeb363e929d3d1ac2e91436d2c2cddc96e2",
  "runtimeHash": "0xa25e85052bb19e5afa03fcea5271acd190350c46aa6194777f0a4c32b1a24b62",
  "encodedMetadata": [
    {
      "ipfs": "/ipfs/QmfJ3A2bbJvQ3PH5MpqESNNvn5LvAoCUJJ7WrzbeNZSKHn",
      "solc": "0.8.10"
    }
  ],
  "abi": [
    {
      "inputs": [
        {
          "internalType": "address",
          "name": "coreAddress",
          "type": "address"
        },
        {
          "internalType": "contract IRewardsDistributorAdmin",
          "name": "_rewardsDistributorAdmin",
          "type": "address"
        },
        {
          "internalType": "contract ITribalChief",
          "name": "_tribalChief",
          "type": "address"
        },
        {
          "internalType": "contract StakingTokenWrapper",
          "name": "_stakedTokenWrapper",
          "type": "address"
        },
        {
          "internalType": "address",
          "name": "_underlying",
          "type": "address"
        },
        {
          "internalType": "bool",
          "name": "_isBorrowIncentivized",
          "type": "bool"
        },
        {
          "internalType": "contract Unitroller",
          "name": "_comptroller",
          "type": "address"
        }
      ],
      "stateMutability": "nonpayable",
      "type": "constructor"
    },
    {
      "anonymous": false,
      "inputs": [
        {
          "indexed": true,
          "internalType": "bytes32",
          "name": "oldContractAdminRole",
          "type": "bytes32"
        },
        {
          "indexed": true,
          "internalType": "bytes32",
          "name": "newContractAdminRole",
          "type": "bytes32"
        }
      ],
      "name": "ContractAdminRoleUpdate",
      "type": "event"
    },
    {
      "anonymous": false,
      "inputs": [
        {
          "indexed": true,
          "internalType": "address",
          "name": "oldCore",
          "type": "address"
        },
        {
          "indexed": true,
          "internalType": "address",
          "name": "newCore",
          "type": "address"
        }
      ],
      "name": "CoreUpdate",
      "type": "event"
    },
    {
      "anonymous": false,
      "inputs": [
        {
          "indexed": false,
          "internalType": "address",
          "name": "account",
          "type": "address"
        }
      ],
      "name": "Paused",
      "type": "event"
    },
    {
      "anonymous": false,
      "inputs": [
        {
          "indexed": false,
          "internalType": "contract IRewardsDistributorAdmin",
          "name": "oldRewardsDistributorAdmin",
          "type": "address"
        },
        {
          "indexed": false,
          "internalType": "contract IRewardsDistributorAdmin",
          "name": "newRewardsDistributorAdmin",
          "type": "address"
        }
      ],
      "name": "RewardsDistributorAdminChanged",
      "type": "event"
    },
    {
      "anonymous": false,
      "inputs": [
        {
          "indexed": false,
          "internalType": "uint256",
          "name": "newSpeed",
          "type": "uint256"
        }
      ],
      "name": "SpeedChanged",
      "type": "event"
    },
    {
      "anonymous": false,
      "inputs": [
        {
          "indexed": false,
          "internalType": "address",
          "name": "account",
          "type": "address"
        }
      ],
      "name": "Unpaused",
      "type": "event"
    },
    {
      "inputs": [],
      "name": "CONTRACT_ADMIN_ROLE",
      "outputs": [
        {
          "internalType": "bytes32",
          "name": "",
          "type": "bytes32"
        }
      ],
      "stateMutability": "view",
      "type": "function"
    },
    {
      "inputs": [],
      "name": "cTokenAddress",
      "outputs": [
        {
          "internalType": "address",
          "name": "",
          "type": "address"
        }
      ],
      "stateMutability": "view",
      "type": "function"
    },
    {
      "inputs": [],
      "name": "comptroller",
      "outputs": [
        {
          "internalType": "contract Unitroller",
          "name": "",
          "type": "address"
        }
      ],
      "stateMutability": "view",
      "type": "function"
    },
    {
      "inputs": [],
      "name": "core",
      "outputs": [
        {
          "internalType": "contract ICore",
          "name": "",
          "type": "address"
        }
      ],
      "stateMutability": "view",
      "type": "function"
    },
    {
      "inputs": [],
      "name": "fei",
      "outputs": [
        {
          "internalType": "contract IFei",
          "name": "",
          "type": "address"
        }
      ],
      "stateMutability": "view",
      "type": "function"
    },
    {
      "inputs": [],
      "name": "feiBalance",
      "outputs": [
        {
          "internalType": "uint256",
          "name": "",
          "type": "uint256"
        }
      ],
      "stateMutability": "view",
      "type": "function"
    },
    {
      "inputs": [],
      "name": "getNewRewardSpeed",
      "outputs": [
        {
          "internalType": "uint256",
          "name": "newCompSpeed",
          "type": "uint256"
        },
        {
          "internalType": "bool",
          "name": "updateNeeded",
          "type": "bool"
        }
      ],
      "stateMutability": "view",
      "type": "function"
    },
    {
      "inputs": [],
      "name": "init",
      "outputs": [],
      "stateMutability": "nonpayable",
      "type": "function"
    },
    {
      "inputs": [],
      "name": "isBorrowIncentivized",
      "outputs": [
        {
          "internalType": "bool",
          "name": "",
          "type": "bool"
        }
      ],
      "stateMutability": "view",
      "type": "function"
    },
    {
      "inputs": [
        {
          "internalType": "address",
          "name": "_admin",
          "type": "address"
        }
      ],
      "name": "isContractAdmin",
      "outputs": [
        {
          "internalType": "bool",
          "name": "",
          "type": "bool"
        }
      ],
      "stateMutability": "view",
      "type": "function"
    },
    {
      "inputs": [],
      "name": "pause",
      "outputs": [],
      "stateMutability": "nonpayable",
      "type": "function"
    },
    {
      "inputs": [],
      "name": "paused",
      "outputs": [
        {
          "internalType": "bool",
          "name": "",
          "type": "bool"
        }
      ],
      "stateMutability": "view",
      "type": "function"
    },
    {
      "inputs": [],
      "name": "rewardsDistributorAdmin",
      "outputs": [
        {
          "internalType": "contract IRewardsDistributorAdmin",
          "name": "",
          "type": "address"
        }
      ],
      "stateMutability": "view",
      "type": "function"
    },
    {
      "inputs": [],
      "name": "setAutoRewardsDistribution",
      "outputs": [],
      "stateMutability": "nonpayable",
      "type": "function"
    },
    {
      "inputs": [
        {
          "internalType": "bytes32",
          "name": "newContractAdminRole",
          "type": "bytes32"
        }
      ],
      "name": "setContractAdminRole",
      "outputs": [],
      "stateMutability": "nonpayable",
      "type": "function"
    },
    {
      "inputs": [
        {
          "internalType": "address",
          "name": "newCore",
          "type": "address"
        }
      ],
      "name": "setCore",
      "outputs": [],
      "stateMutability": "nonpayable",
      "type": "function"
    },
    {
      "inputs": [
        {
          "internalType": "contract IRewardsDistributorAdmin",
          "name": "_newRewardsDistributorAdmin",
          "type": "address"
        }
      ],
      "name": "setRewardsDistributorAdmin",
      "outputs": [],
      "stateMutability": "nonpayable",
      "type": "function"
    },
    {
      "inputs": [],
      "name": "stakedTokenWrapper",
      "outputs": [
        {
          "internalType": "contract StakingTokenWrapper",
          "name": "",
          "type": "address"
        }
      ],
      "stateMutability": "view",
      "type": "function"
    },
    {
      "inputs": [],
      "name": "tribalChief",
      "outputs": [
        {
          "internalType": "contract ITribalChief",
          "name": "",
          "type": "address"
        }
      ],
      "stateMutability": "view",
      "type": "function"
    },
    {
      "inputs": [],
      "name": "tribalChiefRewardIndex",
      "outputs": [
        {
          "internalType": "uint256",
          "name": "",
          "type": "uint256"
        }
      ],
      "stateMutability": "view",
      "type": "function"
    },
    {
      "inputs": [],
      "name": "tribe",
      "outputs": [
        {
          "internalType": "contract IERC20",
          "name": "",
          "type": "address"
        }
      ],
      "stateMutability": "view",
      "type": "function"
    },
    {
      "inputs": [],
      "name": "tribeBalance",
      "outputs": [
        {
          "internalType": "uint256",
          "name": "",
          "type": "uint256"
        }
      ],
      "stateMutability": "view",
      "type": "function"
    },
    {
      "inputs": [],
      "name": "underlying",
      "outputs": [
        {
          "internalType": "address",
          "name": "",
          "type": "address"
        }
      ],
      "stateMutability": "view",
      "type": "function"
    },
    {
      "inputs": [],
      "name": "unpause",
      "outputs": [],
      "stateMutability": "nonpayable",
      "type": "function"
    }
  ],
  "bytecode": {
    "object": "6101206040523480156200001257600080fd5b50604051620018583803806200185883398101604081905262000035916200021b565b6000805460ff19169055866200004b81620000c7565b5081151560c0526001600160a01b0383811660a05284811661010090815260028054610100600160a81b031916898416909202919091179055858116608052811660e052620000ba7f23970cab3799b6876df4319661e6c03cc45bd59628799d92e988dd8cbdc90e31620001cc565b50505050505050620002e4565b60025460ff16156200011f5760405162461bcd60e51b815260206004820152601c60248201527f436f72655265663a20616c726561647920696e697469616c697a656400000000604482015260640160405180910390fd5b60028054600160ff1990911617905560008054610100600160a81b0319166101006001600160a01b038481168202929092179283905560408051631c5bfa2360e11b81529051620001c99492909204909216916338b7f4469160048083019260209291908290030181865afa1580156200019d573d6000803e3d6000fd5b505050506040513d601f19601f82011682018060405250810190620001c39190620002ca565b620001cc565b50565b6001805490829055604051829082907f29ddd278ef9169e35aa84e424b39048b89af9c0b50f85497e40f97dff6946cf590600090a35050565b6001600160a01b0381168114620001c957600080fd5b600080600080600080600060e0888a0312156200023757600080fd5b8751620002448162000205565b6020890151909750620002578162000205565b60408901519096506200026a8162000205565b60608901519095506200027d8162000205565b6080890151909450620002908162000205565b60a08901519093508015158114620002a757600080fd5b60c0890151909250620002ba8162000205565b8091505092959891949750929550565b600060208284031215620002dd57600080fd5b5051919050565b60805160a05160c05160e051610100516114f762000361600039600081816101bd0152610c0c0152600081816102480152610d02015260008181610206015281816108fc0152610a490152600081816102770152610cda015260008181610162015281816110c40152818161113901526111bf01526114f76000f3fe608060405234801561001057600080fd5b50600436106101585760003560e01c80638456cb59116100c3578063d14504fd1161007c578063d14504fd146102f0578063d34884421461030d578063e1c7392a14610320578063e6d5835314610328578063f2f4eb261461033b578063fc81a12a1461035157600080fd5b80638456cb59146102bf5780639a9ba4da146102c7578063b4905897146102cf578063b86677fe146102d7578063bf84745f146102df578063c6a80cac146102e857600080fd5b80635c975abb116101155780635c975abb146102385780635fe3b567146102435780636b6dff0a1461026a5780636f307dc3146102725780638000963014610299578063833e231e146102ac57600080fd5b806319e4743c1461015d5780631da03312146101a1578063293a5c8c146101b85780632de0ebd2146101df5780633f4ba83a146101f757806358eeadc914610201575b600080fd5b6101847f000000000000000000000000000000000000000000000000000000000000000081565b6040516001600160a01b0390911681526020015b60405180910390f35b6101aa60015481565b604051908152602001610198565b6101847f000000000000000000000000000000000000000000000000000000000000000081565b6002546101849061010090046001600160a01b031681565b6101ff610364565b005b6102287f000000000000000000000000000000000000000000000000000000000000000081565b6040519015158152602001610198565b60005460ff16610228565b6101847f000000000000000000000000000000000000000000000000000000000000000081565b6101aa610479565b6101847f000000000000000000000000000000000000000000000000000000000000000081565b6101ff6102a73660046112c4565b6104f2565b600354610184906001600160a01b031681565b6101ff610625565b61018461072f565b6101aa6107a7565b6101846107b1565b6101aa60045481565b6101ff610805565b6102f8610a38565b60408051928352901515602083015201610198565b6101ff61031b3660046112e8565b610b72565b6101ff610c0a565b6101ff6103363660046112c4565b610dc1565b60005461010090046001600160a01b0316610184565b61022861035f3660046112c4565b610f0c565b600054604051631c86b03760e31b81523360048201526101009091046001600160a01b03169063e43581b890602401602060405180830381865afa1580156103b0573d6000803e3d6000fd5b505050506040513d601f19601f820116820180604052508101906103d49190611316565b8061044a5750600054604051630c68ba2160e01b81523360048201526101009091046001600160a01b031690630c68ba2190602401602060405180830381865afa158015610426573d6000803e3d6000fd5b505050506040513d601f19601f8201168201806040525081019061044a9190611316565b61046f5760405162461bcd60e51b815260040161046690611331565b60405180910390fd5b610477610f92565b565b60006104836107b1565b6040516370a0823160e01b81523060048201526001600160a01b0391909116906370a0823190602401602060405180830381865afa1580156104c9573d6000803e3d6000fd5b505050506040513d601f19601f820116820180604052508101906104ed919061137e565b905090565b600054604051631c86b03760e31b81523360048201526101009091046001600160a01b03169063e43581b890602401602060405180830381865afa15801561053e573d6000803e3d6000fd5b505050506040513d601f19601f820116820180604052508101906105629190611316565b61057e5760405162461bcd60e51b815260040161046690611397565b6001600160a01b0381166105cc5760405162461bcd60e51b8152602060048201526015602482015274436f72655265663a207a65726f206164647265737360581b6044820152606401610466565b600080546001600160a01b03838116610100818102610100600160a81b0319851617855560405193049190911692909183917f9209b7c8c06dcfd261686a663e7c55989337b18d59da5433c6f2835fb697092091a35050565b600054604051631c86b03760e31b81523360048201526101009091046001600160a01b03169063e43581b890602401602060405180830381865afa158015610671573d6000803e3d6000fd5b505050506040513d601f19601f820116820180604052508101906106959190611316565b8061070b5750600054604051630c68ba2160e01b81523360048201526101009091046001600160a01b031690630c68ba2190602401602060405180830381865afa1580156106e7573d6000803e3d6000fd5b505050506040513d601f19601f8201168201806040525081019061070b9190611316565b6107275760405162461bcd60e51b815260040161046690611331565b610477611025565b60008060019054906101000a90046001600160a01b03166001600160a01b0316639a9ba4da6040518163ffffffff1660e01b8152600401602060405180830381865afa158015610783573d6000803e3d6000fd5b505050506040513d601f19601f820116820180604052508101906104ed91906113d8565b600061048361072f565b60008060019054906101000a90046001600160a01b03166001600160a01b031663b86677fe6040518163ffffffff1660e01b8152600401602060405180830381865afa158015610783573d6000803e3d6000fd5b60005460ff161561084b5760405162461bcd60e51b815260206004820152601060248201526f14185d5cd8589b194e881c185d5cd95960821b6044820152606401610466565b6003546001600160a01b031661088c5760405162461bcd60e51b8152600401610466906020808252600490820152631a5b9a5d60e21b604082015260600190565b600080610897610a38565b91509150806108fa5760405162461bcd60e51b815260206004820152602960248201527f4175746f526577617264734469737472696275746f723a20757064617465206e6044820152681bdd081b995959195960ba1b6064820152608401610466565b7f00000000000000000000000000000000000000000000000000000000000000001561099257600254600354604051630659994760e41b81526001600160a01b039182166004820152602481018590526101009092041690636599947090604401600060405180830381600087803b15801561097557600080fd5b505af1158015610989573d6000803e3d6000fd5b50505050610a00565b60025460035460405163e3af317b60e01b81526001600160a01b03918216600482015260248101859052610100909204169063e3af317b90604401600060405180830381600087803b1580156109e757600080fd5b505af11580156109fb573d6000803e3d6000fd5b505050505b6040518281527f79733fbf2a7c5f2a9f9e0eeed17b80682c37107981a486cd01914f4a34680e7a906020015b60405180910390a15050565b600080610a436110a0565b915060007f000000000000000000000000000000000000000000000000000000000000000015610ae9576002546003546040516303d290cf60e61b81526001600160a01b039182166004820152610100909204169063f4a433c090602401602060405180830381865afa158015610abe573d6000803e3d6000fd5b505050506040513d601f19601f82011682018060405250810190610ae2919061137e565b9050610b61565b600254600354604051636aa875b560e01b81526001600160a01b0391821660048201526101009092041690636aa875b590602401602060405180830381865afa158015610b3a573d6000803e3d6000fd5b505050506040513d601f19601f82011682018060405250810190610b5e919061137e565b90505b828114610b6d57600191505b509091565b600054604051631c86b03760e31b81523360048201526101009091046001600160a01b03169063e43581b890602401602060405180830381865afa158015610bbe573d6000803e3d6000fd5b505050506040513d601f19601f82011682018060405250810190610be29190611316565b610bfe5760405162461bcd60e51b815260040161046690611397565b610c0781611276565b50565b7f00000000000000000000000000000000000000000000000000000000000000006001600160a01b031663f10684546040518163ffffffff1660e01b8152600401602060405180830381865afa158015610c68573d6000803e3d6000fd5b505050506040513d601f19601f82011682018060405250810190610c8c919061137e565b6004819055610cc35760405162461bcd60e51b81526020600482015260036024820152621c1a5960ea1b6044820152606401610466565b6040516318ffa3fd60e11b81526001600160a01b037f0000000000000000000000000000000000000000000000000000000000000000811660048301527f000000000000000000000000000000000000000000000000000000000000000016906331ff47fa90602401602060405180830381865afa158015610d49573d6000803e3d6000fd5b505050506040513d601f19601f82011682018060405250810190610d6d91906113d8565b600380546001600160a01b0319166001600160a01b039290921691821790556104775760405162461bcd60e51b815260206004820152600660248201526531ba37b5b2b760d11b6044820152606401610466565b600054604051631c86b03760e31b81523360048201526101009091046001600160a01b03169063e43581b890602401602060405180830381865afa158015610e0d573d6000803e3d6000fd5b505050506040513d601f19601f82011682018060405250810190610e319190611316565b80610e405750610e4033610f0c565b610ea85760405162461bcd60e51b815260206004820152603360248201527f436f72655265663a2043616c6c6572206973206e6f74206120676f7665726e6f604482015272391037b91031b7b73a3930b1ba1030b236b4b760691b6064820152608401610466565b600280546001600160a01b03838116610100818102610100600160a81b031985161790945560408051949093049091168084526020840191909152917ff898e98d79f06662a5f8578f48342d901d325fd63641ceb88b0ffdb6d12546fe9101610a2c565b60008054600154604051632474521560e21b815260048101919091526001600160a01b038481166024830152610100909204909116906391d1485490604401602060405180830381865afa158015610f68573d6000803e3d6000fd5b505050506040513d601f19601f82011682018060405250810190610f8c9190611316565b92915050565b60005460ff16610fdb5760405162461bcd60e51b815260206004820152601460248201527314185d5cd8589b194e881b9bdd081c185d5cd95960621b6044820152606401610466565b6000805460ff191690557f5db9ee0a495bf2e6ff9c91a7834c1ba4fdd244a5e8aa4e537bd38aeae4b073aa335b6040516001600160a01b03909116815260200160405180910390a1565b60005460ff161561106b5760405162461bcd60e51b815260206004820152601060248201526f14185d5cd8589b194e881c185d5cd95960821b6044820152606401610466565b6000805460ff191660011790557f62e78cea01bee320cd4e420270b5ea74000d11b0c9f74754ebdbfc544b05a2586110083390565b60048054604051631526fe2760e01b81529182015260009081906001600160a01b037f00000000000000000000000000000000000000000000000000000000000000001690631526fe279060240160a060405180830381865afa15801561110b573d6000803e3d6000fd5b505050506040513d601f19601f8201168201806040525081019061112f91906113f5565b50935050505060007f00000000000000000000000000000000000000000000000000000000000000006001600160a01b03166317caf6f16040518163ffffffff1660e01b8152600401602060405180830381865afa158015611195573d6000803e3d6000fd5b505050506040513d601f19601f820116820180604052508101906111b9919061137e565b905060007f00000000000000000000000000000000000000000000000000000000000000006001600160a01b031663a96f6bd96040518163ffffffff1660e01b8152600401602060405180830381865afa15801561121b573d6000803e3d6000fd5b505050506040513d601f19601f8201168201806040525081019061123f919061137e565b90508161124f5760009350611270565b816112636001600160781b03851683611472565b61126d919061149f565b93505b50505090565b6001805490829055604051829082907f29ddd278ef9169e35aa84e424b39048b89af9c0b50f85497e40f97dff6946cf590600090a35050565b6001600160a01b0381168114610c0757600080fd5b6000602082840312156112d657600080fd5b81356112e1816112af565b9392505050565b6000602082840312156112fa57600080fd5b5035919050565b8051801515811461131157600080fd5b919050565b60006020828403121561132857600080fd5b6112e182611301565b6020808252602d908201527f436f72655265663a2043616c6c6572206973206e6f742061206775617264696160408201526c371037b91033b7bb32b93737b960991b606082015260800190565b60006020828403121561139057600080fd5b5051919050565b60208082526021908201527f436f72655265663a2043616c6c6572206973206e6f74206120676f7665726e6f6040820152603960f91b606082015260800190565b6000602082840312156113ea57600080fd5b81516112e1816112af565b600080600080600060a0868803121561140d57600080fd5b855194506020860151935060408601516fffffffffffffffffffffffffffffffff8116811461143b57600080fd5b60608701519093506001600160781b038116811461145857600080fd5b915061146660808701611301565b90509295509295909350565b600081600019048311821515161561149a57634e487b7160e01b600052601160045260246000fd5b500290565b6000826114bc57634e487b7160e01b600052601260045260246000fd5b50049056fea26469706673582212204dad0106a23c5cdfd25e319a308f5e4718c4bfd279159ed8c93cdfd315b07dbe64736f6c634300080a0033"
  }
}