{"compiler":"v0.8.7+commit.e28d00a7","opcodeHash":"0x6d384a105702505a6a0cbef58b7d30af82fc1c30042cd63fd87eb22037d06c8e","metalessHash":"0x0510b800816ea10397dcea455e2984c545f74e5b30ffa030ab9f2e30d3d0e19f","runtimeHash":"0x6a065bbda32f44cf145bf8f79f64bfb77387627729e336e6b9dcecbdd23c9198","encodedMetadata":[{"ipfs":"/ipfs/Qmb1Kb1GCafVDusgdU4SFZQ2GeWbsxp4pwWWGJQkwnKESC","solc":"0.8.7"}],"abi":[{"inputs":[{"internalType":"string","name":"_name","type":"string"},{"internalType":"string","name":"_symbol","type":"string"},{"internalType":"string","name":"_initBaseURI","type":"string"},{"internalType":"string","name":"_initNotRevealedUri","type":"string"}],"stateMutability":"nonpayable","type":"constructor"},{"anonymous":false,"inputs":[{"indexed":true,"internalType":"address","name":"owner","type":"address"},{"indexed":true,"internalType":"address","name":"approved","type":"address"},{"indexed":true,"internalType":"uint256","name":"tokenId","type":"uint256"}],"name":"Approval","type":"event"},{"anonymous":false,"inputs":[{"indexed":true,"internalType":"address","name":"owner","type":"address"},{"indexed":true,"internalType":"address","name":"operator","type":"address"},{"indexed":false,"internalType":"bool","name":"approved","type":"bool"}],"name":"ApprovalForAll","type":"event"},{"anonymous":false,"inputs":[{"indexed":true,"internalType":"address","name":"previousOwner","type":"address"},{"indexed":true,"internalType":"address","name":"newOwner","type":"address"}],"name":"OwnershipTransferred","type":"event"},{"anonymous":false,"inputs":[{"indexed":true,"internalType":"address","name":"from","type":"address"},{"indexed":true,"internalType":"address","name":"to","type":"address"},{"indexed":true,"internalType":"uint256","name":"tokenId","type":"uint256"}],"name":"Transfer","type":"event"},{"inputs":[{"internalType":"address","name":"","type":"address"}],"name":"addressMintedBalance","outputs":[{"internalType":"uint256","name":"","type":"uint256"}],"stateMutability":"view","type":"function"},{"inputs":[{"internalType":"address","name":"to","type":"address"},{"internalType":"uint256","name":"tokenId","type":"uint256"}],"name":"approve","outputs":[],"stateMutability":"nonpayable","type":"function"},{"inputs":[{"internalType":"address","name":"owner","type":"address"}],"name":"balanceOf","outputs":[{"internalType":"uint256","name":"","type":"uint256"}],"stateMutability":"view","type":"function"},{"inputs":[],"name":"baseExtension","outputs":[{"internalType":"string","name":"","type":"string"}],"stateMutability":"view","type":"function"},{"inputs":[],"name":"baseURI","outputs":[{"internalType":"string","name":"","type":"string"}],"stateMutability":"view","type":"function"},{"inputs":[],"name":"cost","outputs":[{"internalType":"uint256","name":"","type":"uint256"}],"stateMutability":"view","type":"function"},{"inputs":[{"internalType":"uint256","name":"tokenId","type":"uint256"}],"name":"getApproved","outputs":[{"internalType":"address","name":"","type":"address"}],"stateMutability":"view","type":"function"},{"inputs":[{"internalType":"address","name":"owner","type":"address"},{"internalType":"address","name":"operator","type":"address"}],"name":"isApprovedForAll","outputs":[{"internalType":"bool","name":"","type":"bool"}],"stateMutability":"view","type":"function"},{"inputs":[{"internalType":"address","name":"_user","type":"address"}],"name":"isWhitelisted","outputs":[{"internalType":"bool","name":"","type":"bool"}],"stateMutability":"view","type":"function"},{"inputs":[],"name":"maxMintAmount","outputs":[{"internalType":"uint256","name":"","type":"uint256"}],"stateMutability":"view","type":"function"},{"inputs":[],"name":"maxSupply","outputs":[{"internalType":"uint256","name":"","type":"uint256"}],"stateMutability":"view","type":"function"},{"inputs":[{"internalType":"uint256","name":"_mintAmount","type":"uint256"}],"name":"mint","outputs":[],"stateMutability":"payable","type":"function"},{"inputs":[],"name":"name","outputs":[{"internalType":"string","name":"","type":"string"}],"stateMutability":"view","type":"function"},{"inputs":[],"name":"nftPerAddressLimit","outputs":[{"internalType":"uint256","name":"","type":"uint256"}],"stateMutability":"view","type":"function"},{"inputs":[],"name":"notRevealedUri","outputs":[{"internalType":"string","name":"","type":"string"}],"stateMutability":"view","type":"function"},{"inputs":[],"name":"onlyWhitelisted","outputs":[{"internalType":"bool","name":"","type":"bool"}],"stateMutability":"view","type":"function"},{"inputs":[],"name":"owner","outputs":[{"internalType":"address","name":"","type":"address"}],"stateMutability":"view","type":"function"},{"inputs":[{"internalType":"uint256","name":"tokenId","type":"uint256"}],"name":"ownerOf","outputs":[{"internalType":"address","name":"","type":"address"}],"stateMutability":"view","type":"function"},{"inputs":[{"internalType":"bool","name":"_state","type":"bool"}],"name":"pause","outputs":[],"stateMutability":"nonpayable","type":"function"},{"inputs":[],"name":"paused","outputs":[{"internalType":"bool","name":"","type":"bool"}],"stateMutability":"view","type":"function"},{"inputs":[],"name":"renounceOwnership","outputs":[],"stateMutability":"nonpayable","type":"function"},{"inputs":[],"name":"reveal","outputs":[],"stateMutability":"nonpayable","type":"function"},{"inputs":[],"name":"revealed","outputs":[{"internalType":"bool","name":"","type":"bool"}],"stateMutability":"view","type":"function"},{"inputs":[{"internalType":"address","name":"from","type":"address"},{"internalType":"address","name":"to","type":"address"},{"internalType":"uint256","name":"tokenId","type":"uint256"}],"name":"safeTransferFrom","outputs":[],"stateMutability":"nonpayable","type":"function"},{"inputs":[{"internalType":"address","name":"from","type":"address"},{"internalType":"address","name":"to","type":"address"},{"internalType":"uint256","name":"tokenId","type":"uint256"},{"internalType":"bytes","name":"_data","type":"bytes"}],"name":"safeTransferFrom","outputs":[],"stateMutability":"nonpayable","type":"function"},{"inputs":[{"internalType":"address","name":"operator","type":"address"},{"internalType":"bool","name":"approved","type":"bool"}],"name":"setApprovalForAll","outputs":[],"stateMutability":"nonpayable","type":"function"},{"inputs":[{"internalType":"string","name":"_newBaseExtension","type":"string"}],"name":"setBaseExtension","outputs":[],"stateMutability":"nonpayable","type":"function"},{"inputs":[{"internalType":"string","name":"_newBaseURI","type":"string"}],"name":"setBaseURI","outputs":[],"stateMutability":"nonpayable","type":"function"},{"inputs":[{"internalType":"uint256","name":"_newCost","type":"uint256"}],"name":"setCost","outputs":[],"stateMutability":"nonpayable","type":"function"},{"inputs":[{"internalType":"uint256","name":"_limit","type":"uint256"}],"name":"setNftPerAddressLimit","outputs":[],"stateMutability":"nonpayable","type":"function"},{"inputs":[{"internalType":"string","name":"_notRevealedURI","type":"string"}],"name":"setNotRevealedURI","outputs":[],"stateMutability":"nonpayable","type":"function"},{"inputs":[{"internalType":"bool","name":"_state","type":"bool"}],"name":"setOnlyWhitelisted","outputs":[],"stateMutability":"nonpayable","type":"function"},{"inputs":[{"internalType":"uint256","name":"_newmaxMintAmount","type":"uint256"}],"name":"setmaxMintAmount","outputs":[],"stateMutability":"nonpayable","type":"function"},{"inputs":[{"internalType":"bytes4","name":"interfaceId","type":"bytes4"}],"name":"supportsInterface","outputs":[{"internalType":"bool","name":"","type":"bool"}],"stateMutability":"view","type":"function"},{"inputs":[],"name":"symbol","outputs":[{"internalType":"string","name":"","type":"string"}],"stateMutability":"view","type":"function"},{"inputs":[{"internalType":"uint256","name":"index","type":"uint256"}],"name":"tokenByIndex","outputs":[{"internalType":"uint256","name":"","type":"uint256"}],"stateMutability":"view","type":"function"},{"inputs":[{"internalType":"address","name":"owner","type":"address"},{"internalType":"uint256","name":"index","type":"uint256"}],"name":"tokenOfOwnerByIndex","outputs":[{"internalType":"uint256","name":"","type":"uint256"}],"stateMutability":"view","type":"function"},{"inputs":[{"internalType":"uint256","name":"tokenId","type":"uint256"}],"name":"tokenURI","outputs":[{"internalType":"string","name":"","type":"string"}],"stateMutability":"view","type":"function"},{"inputs":[],"name":"totalSupply","outputs":[{"internalType":"uint256","name":"","type":"uint256"}],"stateMutability":"view","type":"function"},{"inputs":[{"internalType":"address","name":"from","type":"address"},{"internalType":"address","name":"to","type":"address"},{"internalType":"uint256","name":"tokenId","type":"uint256"}],"name":"transferFrom","outputs":[],"stateMutability":"nonpayable","type":"function"},{"inputs":[{"internalType":"address","name":"newOwner","type":"address"}],"name":"transferOwnership","outputs":[],"stateMutability":"nonpayable","type":"function"},{"inputs":[{"internalType":"address","name":"_owner","type":"address"}],"name":"walletOfOwner","outputs":[{"internalType":"uint256[]","name":"","type":"uint256[]"}],"stateMutability":"view","type":"function"},{"inputs":[{"internalType":"address[]","name":"_users","type":"address[]"}],"name":"whitelistUsers","outputs":[],"stateMutability":"nonpayable","type":"function"},{"inputs":[{"internalType":"uint256","name":"","type":"uint256"}],"name":"whitelistedAddresses","outputs":[{"internalType":"address","name":"","type":"address"}],"stateMutability":"view","type":"function"},{"inputs":[],"name":"withdraw","outputs":[],"stateMutability":"payable","type":"function"}],"bytecode":{"object":"60c06040526005608081905264173539b7b760d91b60a09081526200002891600c91906200020a565b5066d529ae9e860000600e556132c8600f556005601055600a6011556012805462ffffff1916620100011790553480156200006257600080fd5b5060405162002e8738038062002e87833981016040819052620000859162000367565b8351849084906200009e9060009060208501906200020a565b508051620000b49060019060208401906200020a565b505050620000d1620000cb620000f160201b60201c565b620000f5565b620000dc8262000147565b620000e781620001af565b5050505062000473565b3390565b600a80546001600160a01b038381166001600160a01b0319831681179093556040519116919082907f8be0079c531659141344cd1fd0a4f28419497f9722a3daafe3b4186f6b6457e090600090a35050565b600a546001600160a01b03163314620001965760405162461bcd60e51b8152602060048201819052602482015260008051602062002e6783398151915260448201526064015b60405180910390fd5b8051620001ab90600b9060208401906200020a565b5050565b600a546001600160a01b03163314620001fa5760405162461bcd60e51b8152602060048201819052602482015260008051602062002e6783398151915260448201526064016200018d565b8051620001ab90600d9060208401905b828054620002189062000420565b90600052602060002090601f0160209004810192826200023c576000855562000287565b82601f106200025757805160ff191683800117855562000287565b8280016001018555821562000287579182015b82811115620002875782518255916020019190600101906200026a565b506200029592915062000299565b5090565b5b808211156200029557600081556001016200029a565b600082601f830112620002c257600080fd5b81516001600160401b0380821115620002df57620002df6200045d565b604051601f8301601f19908116603f011681019082821181831017156200030a576200030a6200045d565b816040528381526020925086838588010111156200032757600080fd5b600091505b838210156200034b57858201830151818301840152908201906200032c565b838211156200035d5760008385830101525b9695505050505050565b600080600080608085870312156200037e57600080fd5b84516001600160401b03808211156200039657600080fd5b620003a488838901620002b0565b95506020870151915080821115620003bb57600080fd5b620003c988838901620002b0565b94506040870151915080821115620003e057600080fd5b620003ee88838901620002b0565b935060608701519150808211156200040557600080fd5b506200041487828801620002b0565b91505092959194509250565b600181811c908216806200043557607f821691505b602082108114156200045757634e487b7160e01b600052602260045260246000fd5b50919050565b634e487b7160e01b600052604160045260246000fd5b6129e480620004836000396000f3fe6080604052600436106102725760003560e01c80636352211e1161014f578063b88d4fde116100c1578063d5abeb011161007a578063d5abeb0114610717578063da3ef23f1461072d578063e985e9c51461074d578063edec5f2714610796578063f2c4ce1e146107b6578063f2fde38b146107d657600080fd5b8063b88d4fde1461066c578063ba4e5c491461068c578063ba7d2c76146106ac578063c6682862146106c2578063c87b56dd146106d7578063d0eb26b0146106f757600080fd5b80638da5cb5b116101135780638da5cb5b146105d157806395d89b41146105ef5780639c70b51214610604578063a0712d6814610624578063a22cb46514610637578063a475b5dd1461065757600080fd5b80636352211e146105475780636c0360eb1461056757806370a082311461057c578063715018a61461059c5780637f00c7a6146105b157600080fd5b80632f745c59116101e8578063438b6300116101ac578063438b63001461048157806344a0d68a146104ae5780634f6ccce7146104ce57806351830227146104ee57806355f804b31461050d5780635c975abb1461052d57600080fd5b80632f745c59146103f95780633af32abf146104195780633c952764146104395780633ccfd60b1461045957806342842e0e1461046157600080fd5b8063095ea7b31161023a578063095ea7b31461033d57806313faede61461035d57806318160ddd1461038157806318cae26914610396578063239c70ae146103c357806323b872dd146103d957600080fd5b806301ffc9a71461027757806302329a29146102ac57806306fdde03146102ce578063081812fc146102f0578063081c8c4414610328575b600080fd5b34801561028357600080fd5b5061029761029236600461253a565b6107f6565b60405190151581526020015b60405180910390f35b3480156102b857600080fd5b506102cc6102c736600461251f565b610821565b005b3480156102da57600080fd5b506102e3610867565b6040516102a39190612747565b3480156102fc57600080fd5b5061031061030b3660046125bd565b6108f9565b6040516001600160a01b0390911681526020016102a3565b34801561033457600080fd5b506102e361098e565b34801561034957600080fd5b506102cc610358366004612480565b610a1c565b34801561036957600080fd5b50610373600e5481565b6040519081526020016102a3565b34801561038d57600080fd5b50600854610373565b3480156103a257600080fd5b506103736103b1366004612350565b60146020526000908152604090205481565b3480156103cf57600080fd5b5061037360105481565b3480156103e557600080fd5b506102cc6103f436600461239e565b610b32565b34801561040557600080fd5b50610373610414366004612480565b610b63565b34801561042557600080fd5b50610297610434366004612350565b610bf9565b34801561044557600080fd5b506102cc61045436600461251f565b610c63565b6102cc610ca9565b34801561046d57600080fd5b506102cc61047c36600461239e565b610d2b565b34801561048d57600080fd5b506104a161049c366004612350565b610d46565b6040516102a39190612703565b3480156104ba57600080fd5b506102cc6104c93660046125bd565b610de8565b3480156104da57600080fd5b506103736104e93660046125bd565b610e17565b3480156104fa57600080fd5b5060125461029790610100900460ff1681565b34801561051957600080fd5b506102cc610528366004612574565b610eaa565b34801561053957600080fd5b506012546102979060ff1681565b34801561055357600080fd5b506103106105623660046125bd565b610eeb565b34801561057357600080fd5b506102e3610f62565b34801561058857600080fd5b50610373610597366004612350565b610f6f565b3480156105a857600080fd5b506102cc610ff6565b3480156105bd57600080fd5b506102cc6105cc3660046125bd565b61102c565b3480156105dd57600080fd5b50600a546001600160a01b0316610310565b3480156105fb57600080fd5b506102e361105b565b34801561061057600080fd5b506012546102979062010000900460ff1681565b6102cc6106323660046125bd565b61106a565b34801561064357600080fd5b506102cc610652366004612456565b611351565b34801561066357600080fd5b506102cc611416565b34801561067857600080fd5b506102cc6106873660046123da565b611451565b34801561069857600080fd5b506103106106a73660046125bd565b611489565b3480156106b857600080fd5b5061037360115481565b3480156106ce57600080fd5b506102e36114b3565b3480156106e357600080fd5b506102e36106f23660046125bd565b6114c0565b34801561070357600080fd5b506102cc6107123660046125bd565b61163f565b34801561072357600080fd5b50610373600f5481565b34801561073957600080fd5b506102cc610748366004612574565b61166e565b34801561075957600080fd5b5061029761076836600461236b565b6001600160a01b03918216600090815260056020908152604080832093909416825291909152205460ff1690565b3480156107a257600080fd5b506102cc6107b13660046124aa565b6116ab565b3480156107c257600080fd5b506102cc6107d1366004612574565b6116ed565b3480156107e257600080fd5b506102cc6107f1366004612350565b61172a565b60006001600160e01b0319821663780e9d6360e01b148061081b575061081b826117c2565b92915050565b600a546001600160a01b031633146108545760405162461bcd60e51b815260040161084b906127ac565b60405180910390fd5b6012805460ff1916911515919091179055565b606060008054610876906128c0565b80601f01602080910402602001604051908101604052809291908181526020018280546108a2906128c0565b80156108ef5780601f106108c4576101008083540402835291602001916108ef565b820191906000526020600020905b8154815290600101906020018083116108d257829003601f168201915b5050505050905090565b6000818152600260205260408120546001600160a01b03166109725760405162461bcd60e51b815260206004820152602c60248201527f4552433732313a20617070726f76656420717565727920666f72206e6f6e657860448201526b34b9ba32b73a103a37b5b2b760a11b606482015260840161084b565b506000908152600460205260409020546001600160a01b031690565b600d805461099b906128c0565b80601f01602080910402602001604051908101604052809291908181526020018280546109c7906128c0565b8015610a145780601f106109e957610100808354040283529160200191610a14565b820191906000526020600020905b8154815290600101906020018083116109f757829003601f168201915b505050505081565b6000610a2782610eeb565b9050806001600160a01b0316836001600160a01b03161415610a955760405162461bcd60e51b815260206004820152602160248201527f4552433732313a20617070726f76616c20746f2063757272656e74206f776e656044820152603960f91b606482015260840161084b565b336001600160a01b0382161480610ab15750610ab18133610768565b610b235760405162461bcd60e51b815260206004820152603860248201527f4552433732313a20617070726f76652063616c6c6572206973206e6f74206f7760448201527f6e6572206e6f7220617070726f76656420666f7220616c6c0000000000000000606482015260840161084b565b610b2d8383611812565b505050565b610b3c3382611880565b610b585760405162461bcd60e51b815260040161084b906127e1565b610b2d838383611977565b6000610b6e83610f6f565b8210610bd05760405162461bcd60e51b815260206004820152602b60248201527f455243373231456e756d657261626c653a206f776e657220696e646578206f7560448201526a74206f6620626f756e647360a81b606482015260840161084b565b506001600160a01b03919091166000908152600660209081526040808320938352929052205490565b6000805b601354811015610c5a57826001600160a01b031660138281548110610c2457610c2461296c565b6000918252602090912001546001600160a01b03161415610c485750600192915050565b80610c52816128fb565b915050610bfd565b50600092915050565b600a546001600160a01b03163314610c8d5760405162461bcd60e51b815260040161084b906127ac565b60128054911515620100000262ff000019909216919091179055565b600a546001600160a01b03163314610cd35760405162461bcd60e51b815260040161084b906127ac565b604051600090339047908381818185875af1925050503d8060008114610d15576040519150601f19603f3d011682016040523d82523d6000602084013e610d1a565b606091505b5050905080610d2857600080fd5b50565b610b2d83838360405180602001604052806000815250611451565b60606000610d5383610f6f565b905060008167ffffffffffffffff811115610d7057610d70612982565b604051908082528060200260200182016040528015610d99578160200160208202803683370190505b50905060005b82811015610de057610db18582610b63565b828281518110610dc357610dc361296c565b602090810291909101015280610dd8816128fb565b915050610d9f565b509392505050565b600a546001600160a01b03163314610e125760405162461bcd60e51b815260040161084b906127ac565b600e55565b6000610e2260085490565b8210610e855760405162461bcd60e51b815260206004820152602c60248201527f455243373231456e756d657261626c653a20676c6f62616c20696e646578206f60448201526b7574206f6620626f756e647360a01b606482015260840161084b565b60088281548110610e9857610e9861296c565b90600052602060002001549050919050565b600a546001600160a01b03163314610ed45760405162461bcd60e51b815260040161084b906127ac565b8051610ee790600b9060208401906121a4565b5050565b6000818152600260205260408120546001600160a01b03168061081b5760405162461bcd60e51b815260206004820152602960248201527f4552433732313a206f776e657220717565727920666f72206e6f6e657869737460448201526832b73a103a37b5b2b760b91b606482015260840161084b565b600b805461099b906128c0565b60006001600160a01b038216610fda5760405162461bcd60e51b815260206004820152602a60248201527f4552433732313a2062616c616e636520717565727920666f7220746865207a65604482015269726f206164647265737360b01b606482015260840161084b565b506001600160a01b031660009081526003602052604090205490565b600a546001600160a01b031633146110205760405162461bcd60e51b815260040161084b906127ac565b61102a6000611b22565b565b600a546001600160a01b031633146110565760405162461bcd60e51b815260040161084b906127ac565b601055565b606060018054610876906128c0565b60125460ff16156110b65760405162461bcd60e51b81526020600482015260166024820152751d1a194818dbdb9d1c9858dd081a5cc81c185d5cd95960521b604482015260640161084b565b60006110c160085490565b9050600082116111135760405162461bcd60e51b815260206004820152601b60248201527f6e65656420746f206d696e74206174206c656173742031204e46540000000000604482015260640161084b565b6010548211156111715760405162461bcd60e51b8152602060048201526024808201527f6d6178206d696e7420616d6f756e74207065722073657373696f6e20657863656044820152631959195960e21b606482015260840161084b565b600f5461117e8383612832565b11156111c55760405162461bcd60e51b81526020600482015260166024820152751b585e08139195081b1a5b5a5d08195e18d95959195960521b604482015260640161084b565b600a546001600160a01b031633146113015760125462010000900460ff161515600114156112af576111f633610bf9565b6112425760405162461bcd60e51b815260206004820152601760248201527f75736572206973206e6f742077686974656c6973746564000000000000000000604482015260640161084b565b3360009081526014602052604090205460115461125f8483612832565b11156112ad5760405162461bcd60e51b815260206004820152601c60248201527f6d6178204e465420706572206164647265737320657863656564656400000000604482015260640161084b565b505b81600e546112bd919061285e565b3410156113015760405162461bcd60e51b8152602060048201526012602482015271696e73756666696369656e742066756e647360701b604482015260640161084b565b60015b828111610b2d57336000908152601460205260408120805491611326836128fb565b9091555061133f90503361133a8385612832565b611b74565b80611349816128fb565b915050611304565b6001600160a01b0382163314156113aa5760405162461bcd60e51b815260206004820152601960248201527f4552433732313a20617070726f766520746f2063616c6c657200000000000000604482015260640161084b565b3360008181526005602090815260408083206001600160a01b03871680855290835292819020805460ff191686151590811790915590519081529192917f17307eab39ab6107e8899845ad3d59bd9653f200f220920489ca2b5937696c31910160405180910390a35050565b600a546001600160a01b031633146114405760405162461bcd60e51b815260040161084b906127ac565b6012805461ff001916610100179055565b61145b3383611880565b6114775760405162461bcd60e51b815260040161084b906127e1565b61148384848484611b8e565b50505050565b6013818154811061149957600080fd5b6000918252602090912001546001600160a01b0316905081565b600c805461099b906128c0565b6000818152600260205260409020546060906001600160a01b031661153f5760405162461bcd60e51b815260206004820152602f60248201527f4552433732314d657461646174613a2055524920717565727920666f72206e6f60448201526e3732bc34b9ba32b73a103a37b5b2b760891b606482015260840161084b565b601254610100900460ff166115e057600d805461155b906128c0565b80601f0160208091040260200160405190810160405280929190818152602001828054611587906128c0565b80156115d45780601f106115a9576101008083540402835291602001916115d4565b820191906000526020600020905b8154815290600101906020018083116115b757829003601f168201915b50505050509050919050565b60006115ea611bc1565b9050600081511161160a5760405180602001604052806000815250611638565b8061161484611bd0565b600c60405160200161162893929190612602565b6040516020818303038152906040525b9392505050565b600a546001600160a01b031633146116695760405162461bcd60e51b815260040161084b906127ac565b601155565b600a546001600160a01b031633146116985760405162461bcd60e51b815260040161084b906127ac565b8051610ee790600c9060208401906121a4565b600a546001600160a01b031633146116d55760405162461bcd60e51b815260040161084b906127ac565b6116e160136000612228565b610b2d60138383612246565b600a546001600160a01b031633146117175760405162461bcd60e51b815260040161084b906127ac565b8051610ee790600d9060208401906121a4565b600a546001600160a01b031633146117545760405162461bcd60e51b815260040161084b906127ac565b6001600160a01b0381166117b95760405162461bcd60e51b815260206004820152602660248201527f4f776e61626c653a206e6577206f776e657220697320746865207a65726f206160448201526564647265737360d01b606482015260840161084b565b610d2881611b22565b60006001600160e01b031982166380ac58cd60e01b14806117f357506001600160e01b03198216635b5e139f60e01b145b8061081b57506301ffc9a760e01b6001600160e01b031983161461081b565b600081815260046020526040902080546001600160a01b0319166001600160a01b038416908117909155819061184782610eeb565b6001600160a01b03167f8c5be1e5ebec7d5bd14f71427d1e84f3dd0314c0f7b2291e5b200ac8c7c3b92560405160405180910390a45050565b6000818152600260205260408120546001600160a01b03166118f95760405162461bcd60e51b815260206004820152602c60248201527f4552433732313a206f70657261746f7220717565727920666f72206e6f6e657860448201526b34b9ba32b73a103a37b5b2b760a11b606482015260840161084b565b600061190483610eeb565b9050806001600160a01b0316846001600160a01b0316148061193f5750836001600160a01b0316611934846108f9565b6001600160a01b0316145b8061196f57506001600160a01b0380821660009081526005602090815260408083209388168352929052205460ff165b949350505050565b826001600160a01b031661198a82610eeb565b6001600160a01b0316146119f25760405162461bcd60e51b815260206004820152602960248201527f4552433732313a207472616e73666572206f6620746f6b656e2074686174206960448201526839903737ba1037bbb760b91b606482015260840161084b565b6001600160a01b038216611a545760405162461bcd60e51b8152602060048201526024808201527f4552433732313a207472616e7366657220746f20746865207a65726f206164646044820152637265737360e01b606482015260840161084b565b611a5f838383611cce565b611a6a600082611812565b6001600160a01b0383166000908152600360205260408120805460019290611a9390849061287d565b90915550506001600160a01b0382166000908152600360205260408120805460019290611ac1908490612832565b909155505060008181526002602052604080822080546001600160a01b0319166001600160a01b0386811691821790925591518493918716917fddf252ad1be2c89b69c2b068fc378daa952ba7f163c4a11628f55a4df523b3ef91a4505050565b600a80546001600160a01b038381166001600160a01b0319831681179093556040519116919082907f8be0079c531659141344cd1fd0a4f28419497f9722a3daafe3b4186f6b6457e090600090a35050565b610ee7828260405180602001604052806000815250611d86565b611b99848484611977565b611ba584848484611db9565b6114835760405162461bcd60e51b815260040161084b9061275a565b6060600b8054610876906128c0565b606081611bf45750506040805180820190915260018152600360fc1b602082015290565b8160005b8115611c1e5780611c08816128fb565b9150611c179050600a8361284a565b9150611bf8565b60008167ffffffffffffffff811115611c3957611c39612982565b6040519080825280601f01601f191660200182016040528015611c63576020820181803683370190505b5090505b841561196f57611c7860018361287d565b9150611c85600a86612916565b611c90906030612832565b60f81b818381518110611ca557611ca561296c565b60200101906001600160f81b031916908160001a905350611cc7600a8661284a565b9450611c67565b6001600160a01b038316611d2957611d2481600880546000838152600960205260408120829055600182018355919091527ff3f7a9fe364faab93b216da50a3214154f22a0a2b415b23a84c8169e8b636ee30155565b611d4c565b816001600160a01b0316836001600160a01b031614611d4c57611d4c8382611ec6565b6001600160a01b038216611d6357610b2d81611f63565b826001600160a01b0316826001600160a01b031614610b2d57610b2d8282612012565b611d908383612056565b611d9d6000848484611db9565b610b2d5760405162461bcd60e51b815260040161084b9061275a565b60006001600160a01b0384163b15611ebb57604051630a85bd0160e11b81526001600160a01b0385169063150b7a0290611dfd9033908990889088906004016126c6565b602060405180830381600087803b158015611e1757600080fd5b505af1925050508015611e47575060408051601f3d908101601f19168201909252611e4491810190612557565b60015b611ea1573d808015611e75576040519150601f19603f3d011682016040523d82523d6000602084013e611e7a565b606091505b508051611e995760405162461bcd60e51b815260040161084b9061275a565b805181602001fd5b6001600160e01b031916630a85bd0160e11b14905061196f565b506001949350505050565b60006001611ed384610f6f565b611edd919061287d565b600083815260076020526040902054909150808214611f30576001600160a01b03841660009081526006602090815260408083208584528252808320548484528184208190558352600790915290208190555b5060009182526007602090815260408084208490556001600160a01b039094168352600681528383209183525290812055565b600854600090611f759060019061287d565b60008381526009602052604081205460088054939450909284908110611f9d57611f9d61296c565b906000526020600020015490508060088381548110611fbe57611fbe61296c565b6000918252602080832090910192909255828152600990915260408082208490558582528120556008805480611ff657611ff6612956565b6001900381819060005260206000200160009055905550505050565b600061201d83610f6f565b6001600160a01b039093166000908152600660209081526040808320868452825280832085905593825260079052919091209190915550565b6001600160a01b0382166120ac5760405162461bcd60e51b815260206004820181905260248201527f4552433732313a206d696e7420746f20746865207a65726f2061646472657373604482015260640161084b565b6000818152600260205260409020546001600160a01b0316156121115760405162461bcd60e51b815260206004820152601c60248201527f4552433732313a20746f6b656e20616c7265616479206d696e74656400000000604482015260640161084b565b61211d60008383611cce565b6001600160a01b0382166000908152600360205260408120805460019290612146908490612832565b909155505060008181526002602052604080822080546001600160a01b0319166001600160a01b03861690811790915590518392907fddf252ad1be2c89b69c2b068fc378daa952ba7f163c4a11628f55a4df523b3ef908290a45050565b8280546121b0906128c0565b90600052602060002090601f0160209004810192826121d25760008555612218565b82601f106121eb57805160ff1916838001178555612218565b82800160010185558215612218579182015b828111156122185782518255916020019190600101906121fd565b50612224929150612299565b5090565b5080546000825590600052602060002090810190610d289190612299565b828054828255906000526020600020908101928215612218579160200282015b828111156122185781546001600160a01b0319166001600160a01b03843516178255602090920191600190910190612266565b5b80821115612224576000815560010161229a565b600067ffffffffffffffff808411156122c9576122c9612982565b604051601f8501601f19908116603f011681019082821181831017156122f1576122f1612982565b8160405280935085815286868601111561230a57600080fd5b858560208301376000602087830101525050509392505050565b80356001600160a01b038116811461233b57600080fd5b919050565b8035801515811461233b57600080fd5b60006020828403121561236257600080fd5b61163882612324565b6000806040838503121561237e57600080fd5b61238783612324565b915061239560208401612324565b90509250929050565b6000806000606084860312156123b357600080fd5b6123bc84612324565b92506123ca60208501612324565b9150604084013590509250925092565b600080600080608085870312156123f057600080fd5b6123f985612324565b935061240760208601612324565b925060408501359150606085013567ffffffffffffffff81111561242a57600080fd5b8501601f8101871361243b57600080fd5b61244a878235602084016122ae565b91505092959194509250565b6000806040838503121561246957600080fd5b61247283612324565b915061239560208401612340565b6000806040838503121561249357600080fd5b61249c83612324565b946020939093013593505050565b600080602083850312156124bd57600080fd5b823567ffffffffffffffff808211156124d557600080fd5b818501915085601f8301126124e957600080fd5b8135818111156124f857600080fd5b8660208260051b850101111561250d57600080fd5b60209290920196919550909350505050565b60006020828403121561253157600080fd5b61163882612340565b60006020828403121561254c57600080fd5b813561163881612998565b60006020828403121561256957600080fd5b815161163881612998565b60006020828403121561258657600080fd5b813567ffffffffffffffff81111561259d57600080fd5b8201601f810184136125ae57600080fd5b61196f848235602084016122ae565b6000602082840312156125cf57600080fd5b5035919050565b600081518084526125ee816020860160208601612894565b601f01601f19169290920160200192915050565b6000845160206126158285838a01612894565b8551918401916126288184848a01612894565b8554920191600090600181811c908083168061264557607f831692505b85831081141561266357634e487b7160e01b85526022600452602485fd5b8080156126775760018114612688576126b5565b60ff198516885283880195506126b5565b60008b81526020902060005b858110156126ad5781548a820152908401908801612694565b505083880195505b50939b9a5050505050505050505050565b6001600160a01b03858116825284166020820152604081018390526080606082018190526000906126f9908301846125d6565b9695505050505050565b6020808252825182820181905260009190848201906040850190845b8181101561273b5783518352928401929184019160010161271f565b50909695505050505050565b60208152600061163860208301846125d6565b60208082526032908201527f4552433732313a207472616e7366657220746f206e6f6e20455243373231526560408201527131b2b4bb32b91034b6b83632b6b2b73a32b960711b606082015260800190565b6020808252818101527f4f776e61626c653a2063616c6c6572206973206e6f7420746865206f776e6572604082015260600190565b60208082526031908201527f4552433732313a207472616e736665722063616c6c6572206973206e6f74206f6040820152701ddb995c881b9bdc88185c1c1c9bdd9959607a1b606082015260800190565b600082198211156128455761284561292a565b500190565b60008261285957612859612940565b500490565b60008160001904831182151516156128785761287861292a565b500290565b60008282101561288f5761288f61292a565b500390565b60005b838110156128af578181015183820152602001612897565b838111156114835750506000910152565b600181811c908216806128d457607f821691505b602082108114156128f557634e487b7160e01b600052602260045260246000fd5b50919050565b600060001982141561290f5761290f61292a565b5060010190565b60008261292557612925612940565b500690565b634e487b7160e01b600052601160045260246000fd5b634e487b7160e01b600052601260045260246000fd5b634e487b7160e01b600052603160045260246000fd5b634e487b7160e01b600052603260045260246000fd5b634e487b7160e01b600052604160045260246000fd5b6001600160e01b031981168114610d2857600080fdfea2646970667358221220016aea0eaab6698dc6676e9cc34edf83a362104673b8c4454be2943c5a4c266d64736f6c634300080700334f776e61626c653a2063616c6c6572206973206e6f7420746865206f776e6572"}}