{
  "opcodeHash": "0x61dc19cc2f9bd3ca0cea9742762704c4dd6b29bd3a3bd1517639ea2b3bc2eccd",
  "metalessHash": "0xfb55d6b4608065def4aad753f06f7c8a63c09473d3b8269b0f4683205bbbecf9",
  "runtimeHash": "0xe7c714caf1077693b740c2cf1ae70de9bf7779947a66594066362a2ef5ac4b2a",
  "encodedMetadata": [
    {
      "bzzr1": "/swarm/bzzr1/2e11b8ca9e7ddfb757740987d20ac6ff478489b74fee51fa4f0dfadf3a932898",
      "solc": "0.5.17"
    }
  ],
  "abi": [
    {
      "inputs": [],
      "payable": false,
      "stateMutability": "nonpayable",
      "type": "constructor"
    },
    {
      "anonymous": false,
      "inputs": [
        {
          "indexed": false,
          "internalType": "uint8",
          "name": "pid",
          "type": "uint8"
        },
        {
          "indexed": true,
          "internalType": "address",
          "name": "beneficiary",
          "type": "address"
        },
        {
          "indexed": false,
          "internalType": "uint256",
          "name": "value",
          "type": "uint256"
        }
      ],
      "name": "Claim",
      "type": "event"
    },
    {
      "constant": false,
      "inputs": [
        {
          "internalType": "uint8",
          "name": "_pid",
          "type": "uint8"
        }
      ],
      "name": "claim",
      "outputs": [
        {
          "internalType": "uint256",
          "name": "amount",
          "type": "uint256"
        }
      ],
      "payable": false,
      "stateMutability": "nonpayable",
      "type": "function"
    },
    {
      "constant": true,
      "inputs": [
        {
          "internalType": "uint8",
          "name": "_pid",
          "type": "uint8"
        },
        {
          "internalType": "address",
          "name": "_beneficiary",
          "type": "address"
        }
      ],
      "name": "getBeneficiaryInfo",
      "outputs": [
        {
          "internalType": "address",
          "name": "beneficiary",
          "type": "address"
        },
        {
          "internalType": "uint256",
          "name": "totalLocked",
          "type": "uint256"
        },
        {
          "internalType": "uint256",
          "name": "withdrawn",
          "type": "uint256"
        },
        {
          "internalType": "uint256",
          "name": "releasableAmount",
          "type": "uint256"
        },
        {
          "internalType": "uint256",
          "name": "nextBatchTime",
          "type": "uint256"
        },
        {
          "internalType": "uint256",
          "name": "currentTime",
          "type": "uint256"
        }
      ],
      "payable": false,
      "stateMutability": "view",
      "type": "function"
    },
    {
      "constant": true,
      "inputs": [],
      "name": "getCurrentTime",
      "outputs": [
        {
          "internalType": "uint256",
          "name": "",
          "type": "uint256"
        }
      ],
      "payable": false,
      "stateMutability": "view",
      "type": "function"
    },
    {
      "constant": true,
      "inputs": [
        {
          "internalType": "uint8",
          "name": "_pid",
          "type": "uint8"
        },
        {
          "internalType": "address",
          "name": "_beneficiary",
          "type": "address"
        },
        {
          "internalType": "uint256",
          "name": "_time",
          "type": "uint256"
        }
      ],
      "name": "getNextBatchTime",
      "outputs": [
        {
          "internalType": "uint256",
          "name": "",
          "type": "uint256"
        }
      ],
      "payable": false,
      "stateMutability": "view",
      "type": "function"
    },
    {
      "constant": true,
      "inputs": [
        {
          "internalType": "uint8",
          "name": "_pid",
          "type": "uint8"
        }
      ],
      "name": "getPoolInfo",
      "outputs": [
        {
          "internalType": "string",
          "name": "name",
          "type": "string"
        },
        {
          "internalType": "uint256",
          "name": "totalLocked",
          "type": "uint256"
        },
        {
          "internalType": "uint256",
          "name": "startReleasingTime",
          "type": "uint256"
        },
        {
          "internalType": "uint256",
          "name": "batchCount",
          "type": "uint256"
        },
        {
          "internalType": "uint256",
          "name": "batchPeriodInDays",
          "type": "uint256"
        }
      ],
      "payable": false,
      "stateMutability": "view",
      "type": "function"
    },
    {
      "constant": true,
      "inputs": [],
      "name": "getPoolsCount",
      "outputs": [
        {
          "internalType": "uint256",
          "name": "poolsCount",
          "type": "uint256"
        }
      ],
      "payable": false,
      "stateMutability": "view",
      "type": "function"
    },
    {
      "constant": true,
      "inputs": [
        {
          "internalType": "uint8",
          "name": "_pid",
          "type": "uint8"
        },
        {
          "internalType": "address",
          "name": "_beneficiary",
          "type": "address"
        }
      ],
      "name": "getReleasableAmount",
      "outputs": [
        {
          "internalType": "uint256",
          "name": "",
          "type": "uint256"
        }
      ],
      "payable": false,
      "stateMutability": "view",
      "type": "function"
    },
    {
      "constant": true,
      "inputs": [
        {
          "internalType": "uint8",
          "name": "_pid",
          "type": "uint8"
        }
      ],
      "name": "getSenderInfo",
      "outputs": [
        {
          "internalType": "address",
          "name": "beneficiary",
          "type": "address"
        },
        {
          "internalType": "uint256",
          "name": "totalLocked",
          "type": "uint256"
        },
        {
          "internalType": "uint256",
          "name": "withdrawaned",
          "type": "uint256"
        },
        {
          "internalType": "uint256",
          "name": "releasableAmount",
          "type": "uint256"
        },
        {
          "internalType": "uint256",
          "name": "nextBatchTime",
          "type": "uint256"
        },
        {
          "internalType": "uint256",
          "name": "currentTime",
          "type": "uint256"
        }
      ],
      "payable": false,
      "stateMutability": "view",
      "type": "function"
    },
    {
      "constant": true,
      "inputs": [],
      "name": "getTotalLocked",
      "outputs": [
        {
          "internalType": "uint256",
          "name": "totalLocked",
          "type": "uint256"
        }
      ],
      "payable": false,
      "stateMutability": "view",
      "type": "function"
    },
    {
      "constant": true,
      "inputs": [
        {
          "internalType": "uint8",
          "name": "_pid",
          "type": "uint8"
        },
        {
          "internalType": "address",
          "name": "_beneficiary",
          "type": "address"
        },
        {
          "internalType": "uint256",
          "name": "_time",
          "type": "uint256"
        }
      ],
      "name": "getVestedAmount",
      "outputs": [
        {
          "internalType": "uint256",
          "name": "",
          "type": "uint256"
        }
      ],
      "payable": false,
      "stateMutability": "view",
      "type": "function"
    },
    {
      "constant": true,
      "inputs": [
        {
          "internalType": "uint256",
          "name": "",
          "type": "uint256"
        }
      ],
      "name": "lockPools",
      "outputs": [
        {
          "internalType": "uint256",
          "name": "startReleasingTime",
          "type": "uint256"
        },
        {
          "internalType": "uint256",
          "name": "batchPeriod",
          "type": "uint256"
        },
        {
          "internalType": "uint256",
          "name": "batchCount",
          "type": "uint256"
        },
        {
          "internalType": "uint256",
          "name": "totalLocked",
          "type": "uint256"
        },
        {
          "internalType": "uint8",
          "name": "index",
          "type": "uint8"
        },
        {
          "internalType": "string",
          "name": "name",
          "type": "string"
        }
      ],
      "payable": false,
      "stateMutability": "view",
      "type": "function"
    },
    {
      "constant": true,
      "inputs": [],
      "name": "lockedToken",
      "outputs": [
        {
          "internalType": "contract IERC20",
          "name": "",
          "type": "address"
        }
      ],
      "payable": false,
      "stateMutability": "view",
      "type": "function"
    }
  ],
  "bytecode": {
    "object": "60806040523480156200001157600080fd5b50600080546001600160a01b03191673ad4f86a25bbc20ffb751f2fac312a0b4d8f88c641781556040805180820190915260098152685465616d204c6f636b60b81b602082015262000077906361cf998060046276a7006001600160e01b036200016116565b9050620000a681734608f8245258e93af27a15f9fba17515149f4435623d09006001600160e01b03620002c816565b620000d381735a4d85f03d9c45907617babcdc7f4c5599c4ce19621e84806001600160e01b03620002c816565b62000100817328efeb6bf726bc9b1b2b989cada5d9c95cfbb38c621458566001600160e01b03620002c816565b6200012d8173971945b040b126dce5ad2982fbd2a72d4ba3966c621458556001600160e01b03620002c816565b6200015a8173d558d2a872185c64de4bf2a63ad0bc307f861997621458556001600160e01b03620002c816565b5062000530565b6040805160c08101825284815260208082018481529282018581526000606084018181526001805460ff8082166080890190815260a089018e815283850180865594875289517fb10e2d527612073b26eecdfd717e6a320cf44b4afac2b0732d9fcbe2b7fa0cf660069095029485019081559a517fb10e2d527612073b26eecdfd717e6a320cf44b4afac2b0732d9fcbe2b7fa0cf785015596517fb10e2d527612073b26eecdfd717e6a320cf44b4afac2b0732d9fcbe2b7fa0cf884015593517fb10e2d527612073b26eecdfd717e6a320cf44b4afac2b0732d9fcbe2b7fa0cf983015592517fb10e2d527612073b26eecdfd717e6a320cf44b4afac2b0732d9fcbe2b7fa0cfa8201805460ff19169190941617909255925180519296939594620002b4937fb10e2d527612073b26eecdfd717e6a320cf44b4afac2b0732d9fcbe2b7fa0cfb909301929101906200048b565b505060015460001901979650505050505050565b60015460ff84161062000316576040805162461bcd60e51b81526020600482015260116024820152701b9bdb88195e1a5cdd1a5b99c81c1bdbdb607a1b604482015290519081900360640190fd5b60ff831660009081526002602090815260408083206001600160a01b03861684529091529020541562000390576040805162461bcd60e51b815260206004820152601460248201527f6578697374696e672062656e6566696369617279000000000000000000000000604482015290519081900360640190fd5b60ff831660008181526002602090815260408083206001600160a01b03871684529091529020670de0b6b3a764000083029081905560018054620003fe93908110620003d857fe5b9060005260206000209060060201600301546200042960201b62000bfd1790919060201c565b60018460ff16815481106200040f57fe5b906000526020600020906006020160030181905550505050565b60008282018381101562000484576040805162461bcd60e51b815260206004820152601b60248201527f536166654d6174683a206164646974696f6e206f766572666c6f770000000000604482015290519081900360640190fd5b9392505050565b828054600181600116156101000203166002900490600052602060002090601f016020900481019282601f10620004ce57805160ff1916838001178555620004fe565b82800160010185558215620004fe579182015b82811115620004fe578251825591602001919060010190620004e1565b506200050c92915062000510565b5090565b6200052d91905b808211156200050c576000815560010162000517565b90565b610e0280620005406000396000f3fe608060405234801561001057600080fd5b50600436106100b45760003560e01c8063d4519ba211610071578063d4519ba214610212578063df1022e914610241578063e7576a981461029e578063ebdaae4a146102d3578063f39f536414610387578063f4732da6146103b6576100b4565b80630f45cc81146100b957806329cb924d146100dd578063515a4016146100f757806395d4063f1461012c578063af2018ef1461014c578063b4ac68601461020a575b600080fd5b6100c16103be565b604080516001600160a01b039092168252519081900360200190f35b6100e56103cd565b60408051918252519081900360200190f35b6100e56004803603606081101561010d57600080fd5b5060ff813516906001600160a01b0360208201351690604001356103d1565b6100e56004803603602081101561014257600080fd5b503560ff16610540565b6101696004803603602081101561016257600080fd5b50356106b7565b604051808781526020018681526020018581526020018481526020018360ff1660ff16815260200180602001828103825283818151815260200191508051906020019080838360005b838110156101ca5781810151838201526020016101b2565b50505050905090810190601f1680156101f75780820380516001836020036101000a031916815260200191505b5097505050505050505060405180910390f35b6100e561078e565b6100e56004803603604081101561022857600080fd5b50803560ff1690602001356001600160a01b0316610794565b6102616004803603602081101561025757600080fd5b503560ff166107e9565b604080516001600160a01b0390971687526020870195909552858501939093526060850191909152608084015260a0830152519081900360c00190f35b6100e5600480360360608110156102b457600080fd5b5060ff813516906001600160a01b036020820135169060400135610810565b6102f3600480360360208110156102e957600080fd5b503560ff1661093c565b6040518080602001868152602001858152602001848152602001838152602001828103825287818151815260200191508051906020019080838360005b83811015610348578181015183820152602001610330565b50505050905090810190601f1680156103755780820380516001836020036101000a031916815260200191505b50965050505050505060405180910390f35b6102616004803603604081101561039d57600080fd5b50803560ff1690602001356001600160a01b0316610ab0565b6100e5610b26565b6000546001600160a01b031681565b4290565b60ff831660009081526002602090815260408083206001600160a01b0386168452909152812054610403858585610810565b141561041157506000610539565b60018460ff168154811061042157fe5b90600052602060002090600602016000015482116104625760018460ff168154811061044957fe5b9060005260206000209060060201600001549050610539565b60006104d760016104cb60018860ff168154811061047c57fe5b9060005260206000209060060201600101546104bf60018a60ff16815481106104a157fe5b6000918252602090912060069091020154889063ffffffff610b7916565b9063ffffffff610bbb16565b9063ffffffff610bfd16565b9050600061053460018760ff16815481106104ee57fe5b9060005260206000209060060201600001546104cb60018960ff168154811061051357fe5b90600052602060002090600602016001015485610c5790919063ffffffff16565b925050505b9392505050565b600061054c8233610794565b9050600081116105a3576040805162461bcd60e51b815260206004820152601860248201527f63616e206e6f7420636c61696d6564203020616d6f756e740000000000000000604482015290519081900360640190fd5b60ff821660009081526002602090815260408083203384529091529020600101546105d4908263ffffffff610bfd16565b60ff8316600090815260026020908152604080832033808552908352818420600101949094558254815163a9059cbb60e01b815260048101959095526024850186905290516001600160a01b039091169363a9059cbb9360448083019493928390030190829087803b15801561064957600080fd5b505af115801561065d573d6000803e3d6000fd5b505050506040513d602081101561067357600080fd5b50506040805160ff8416815260208101839052815133927f5e608c4a23ae45337ff2643849d5c5476d2cfebef71a51e83dae8bb5123add31928290030190a2919050565b600181815481106106c457fe5b600091825260209182902060069091020180546001808301546002808501546003860154600487015460058801805460408051601f6000199a841615610100029a909a01909216969096049788018b90048b0281018b0190955286855296995093979196909560ff909416949093918301828280156107845780601f1061075957610100808354040283529160200191610784565b820191906000526020600020905b81548152906001019060200180831161076757829003601f168201915b5050505050905086565b60015490565b60ff821660009081526002602090815260408083206001600160a01b03851684529091528120600101546107e0906107d485856107cf6103cd565b610810565b9063ffffffff610b7916565b90505b92915050565b6000806000806000806107fc8733610ab0565b949c939b5091995097509550909350915050565b60015460009060ff85161061082757506000610539565b60018460ff168154811061083757fe5b90600052602060002090600602016000015482101561085857506000610539565b60ff841660009081526002602090815260408083206001600160a01b03871684529091529020548061088e576000915050610539565b60006108eb60016104cb60018960ff16815481106108a857fe5b9060005260206000209060060201600101546104bf60018b60ff16815481106108cd57fe5b6000918252602090912060069091020154899063ffffffff610b7916565b9050600061092760018860ff168154811061090257fe5b9060005260206000209060060201600201546104bf8486610c5790919063ffffffff16565b90508281111561053457509095945050505050565b60606000806000806001805490508660ff161015610aa75760018660ff168154811061096457fe5b6000918252602091829020600560069092020101805460408051601f60026000196101006001871615020190941693909304928301859004850281018501909152818152928301828280156109fa5780601f106109cf576101008083540402835291602001916109fa565b820191906000526020600020905b8154815290600101906020018083116109dd57829003601f168201915b5050505050945060018660ff1681548110610a1157fe5b906000526020600020906006020160030154935060018660ff1681548110610a3557fe5b906000526020600020906006020160000154925060018660ff1681548110610a5957fe5b9060005260206000209060060201600201549150610aa46201518060018860ff1681548110610a8457fe5b906000526020600020906006020160010154610bbb90919063ffffffff16565b90505b91939590929450565b80600080808080610abf6103cd565b60015490915060ff89161015610b1c5760ff881660009081526002602090815260408083206001600160a01b038b168452909152902080546001909101549095509350610b0c8888610794565b9250610b198888836103d1565b91505b9295509295509295565b6000805b60015460ff82161015610b7557610b6b60018260ff1681548110610b4a57fe5b90600052602060002090600602016003015483610bfd90919063ffffffff16565b9150600101610b2a565b5090565b60006107e083836040518060400160405280601e81526020017f536166654d6174683a207375627472616374696f6e206f766572666c6f770000815250610cb0565b60006107e083836040518060400160405280601a81526020017f536166654d6174683a206469766973696f6e206279207a65726f000000000000815250610d47565b6000828201838110156107e0576040805162461bcd60e51b815260206004820152601b60248201527f536166654d6174683a206164646974696f6e206f766572666c6f770000000000604482015290519081900360640190fd5b600082610c66575060006107e3565b82820282848281610c7357fe5b04146107e05760405162461bcd60e51b8152600401808060200182810382526021815260200180610dad6021913960400191505060405180910390fd5b60008184841115610d3f5760405162461bcd60e51b81526004018080602001828103825283818151815260200191508051906020019080838360005b83811015610d04578181015183820152602001610cec565b50505050905090810190601f168015610d315780820380516001836020036101000a031916815260200191505b509250505060405180910390fd5b505050900390565b60008183610d965760405162461bcd60e51b8152602060048201818152835160248401528351909283926044909101919085019080838360008315610d04578181015183820152602001610cec565b506000838581610da257fe5b049594505050505056fe536166654d6174683a206d756c7469706c69636174696f6e206f766572666c6f77a265627a7a723158203635fccf17893ee57498e118b9998f8115d57860615210dc12907291d20060c264736f6c63430005110032"
  }
}