{"compiler":"v0.8.7+commit.e28d00a7","opcodeHash":"0x2b437ec3523b055ba778fb1756c20cc195896692a3c32fbdec1448d4ffcf6d75","metalessHash":"0x8f211dd40ed562792936a2594ef472ecc52515aa29bc21e3ee0d9a7314b0a21e","runtimeHash":"0xa613e18ba51352fbee4bd049360d50e234f5add6b13af45b824440bcb7a0994e","encodedMetadata":[{"ipfs":"/ipfs/QmWbR594D2EV7bCdehtv45Dc17Uc7dfqeRNtsg7TkvXAVy","solc":"0.8.7"}],"abi":[{"inputs":[{"internalType":"contract IERC20","name":"_PKN","type":"address"}],"stateMutability":"nonpayable","type":"constructor"},{"anonymous":false,"inputs":[{"indexed":true,"internalType":"address","name":"owner","type":"address"},{"indexed":true,"internalType":"address","name":"spender","type":"address"},{"indexed":false,"internalType":"uint256","name":"value","type":"uint256"}],"name":"Approval","type":"event"},{"anonymous":false,"inputs":[{"indexed":true,"internalType":"address","name":"from","type":"address"},{"indexed":true,"internalType":"address","name":"to","type":"address"},{"indexed":false,"internalType":"uint256","name":"value","type":"uint256"}],"name":"Transfer","type":"event"},{"inputs":[],"name":"PKN","outputs":[{"internalType":"contract IERC20","name":"","type":"address"}],"stateMutability":"view","type":"function"},{"inputs":[{"internalType":"address","name":"owner","type":"address"},{"internalType":"address","name":"spender","type":"address"}],"name":"allowance","outputs":[{"internalType":"uint256","name":"","type":"uint256"}],"stateMutability":"view","type":"function"},{"inputs":[{"internalType":"address","name":"spender","type":"address"},{"internalType":"uint256","name":"amount","type":"uint256"}],"name":"approve","outputs":[{"internalType":"bool","name":"","type":"bool"}],"stateMutability":"nonpayable","type":"function"},{"inputs":[{"internalType":"address","name":"account","type":"address"}],"name":"balanceOf","outputs":[{"internalType":"uint256","name":"","type":"uint256"}],"stateMutability":"view","type":"function"},{"inputs":[],"name":"decimals","outputs":[{"internalType":"uint8","name":"","type":"uint8"}],"stateMutability":"view","type":"function"},{"inputs":[{"internalType":"address","name":"spender","type":"address"},{"internalType":"uint256","name":"subtractedValue","type":"uint256"}],"name":"decreaseAllowance","outputs":[{"internalType":"bool","name":"","type":"bool"}],"stateMutability":"nonpayable","type":"function"},{"inputs":[{"internalType":"uint256","name":"_amount","type":"uint256"}],"name":"enter","outputs":[],"stateMutability":"nonpayable","type":"function"},{"inputs":[{"internalType":"address","name":"spender","type":"address"},{"internalType":"uint256","name":"addedValue","type":"uint256"}],"name":"increaseAllowance","outputs":[{"internalType":"bool","name":"","type":"bool"}],"stateMutability":"nonpayable","type":"function"},{"inputs":[{"internalType":"uint256","name":"_share","type":"uint256"}],"name":"leave","outputs":[],"stateMutability":"nonpayable","type":"function"},{"inputs":[],"name":"name","outputs":[{"internalType":"string","name":"","type":"string"}],"stateMutability":"view","type":"function"},{"inputs":[{"internalType":"address","name":"user","type":"address"}],"name":"pknPooledByUser","outputs":[{"internalType":"uint256","name":"","type":"uint256"}],"stateMutability":"view","type":"function"},{"inputs":[],"name":"symbol","outputs":[{"internalType":"string","name":"","type":"string"}],"stateMutability":"view","type":"function"},{"inputs":[],"name":"totalSupply","outputs":[{"internalType":"uint256","name":"","type":"uint256"}],"stateMutability":"view","type":"function"},{"inputs":[{"internalType":"address","name":"recipient","type":"address"},{"internalType":"uint256","name":"amount","type":"uint256"}],"name":"transfer","outputs":[{"internalType":"bool","name":"","type":"bool"}],"stateMutability":"nonpayable","type":"function"},{"inputs":[{"internalType":"address","name":"sender","type":"address"},{"internalType":"address","name":"recipient","type":"address"},{"internalType":"uint256","name":"amount","type":"uint256"}],"name":"transferFrom","outputs":[{"internalType":"bool","name":"","type":"bool"}],"stateMutability":"nonpayable","type":"function"}],"bytecode":{"object":"60a06040523480156200001157600080fd5b50604051620010df380380620010df833981016040819052620000349162000156565b60408051808201825260098152682837b7b632b22825a760b91b602080830191825283518085019094526004845263382825a760e11b9084015281519192916200008191600391620000b0565b50805162000097906004906020840190620000b0565b50505060601b6001600160601b031916608052620001c5565b828054620000be9062000188565b90600052602060002090601f016020900481019282620000e257600085556200012d565b82601f10620000fd57805160ff19168380011785556200012d565b828001600101855582156200012d579182015b828111156200012d57825182559160200191906001019062000110565b506200013b9291506200013f565b5090565b5b808211156200013b576000815560010162000140565b6000602082840312156200016957600080fd5b81516001600160a01b03811681146200018157600080fd5b9392505050565b600181811c908216806200019d57607f821691505b60208210811415620001bf57634e487b7160e01b600052602260045260246000fd5b50919050565b60805160601c610ed862000207600039600081816101af015281816104050152818161051f015281816105ef0152818161073a01526108310152610ed86000f3fe608060405234801561001057600080fd5b50600436106100f55760003560e01c806367dfd4c911610097578063a457c2d711610066578063a457c2d71461021a578063a59f3e0c1461022d578063a9059cbb14610240578063dd62ed3e1461025357600080fd5b806367dfd4c914610195578063688c3e40146101aa57806370a08231146101e957806395d89b411461021257600080fd5b806323b872dd116100d357806323b872dd1461014d5780632dd71b9914610160578063313ce56714610173578063395093511461018257600080fd5b806306fdde03146100fa578063095ea7b31461011857806318160ddd1461013b575b600080fd5b61010261028c565b60405161010f9190610d8c565b60405180910390f35b61012b610126366004610d0e565b61031e565b604051901515815260200161010f565b6002545b60405190815260200161010f565b61012b61015b366004610cd2565b610334565b61013f61016e366004610c7d565b6103e3565b6040516012815260200161010f565b61012b610190366004610d0e565b6104cb565b6101a86101a3366004610d5a565b610507565b005b6101d17f000000000000000000000000000000000000000000000000000000000000000081565b6040516001600160a01b03909116815260200161010f565b61013f6101f7366004610c7d565b6001600160a01b031660009081526020819052604090205490565b61010261067a565b61012b610228366004610d0e565b610689565b6101a861023b366004610d5a565b610722565b61012b61024e366004610d0e565b6108bb565b61013f610261366004610c9f565b6001600160a01b03918216600090815260016020908152604080832093909416825291909152205490565b60606003805461029b90610e51565b80601f01602080910402602001604051908101604052809291908181526020018280546102c790610e51565b80156103145780601f106102e957610100808354040283529160200191610314565b820191906000526020600020905b8154815290600101906020018083116102f757829003601f168201915b5050505050905090565b600061032b3384846108c8565b50600192915050565b60006103418484846109ec565b6001600160a01b0384166000908152600160209081526040808320338452909152902054828110156103cb5760405162461bcd60e51b815260206004820152602860248201527f45524332303a207472616e7366657220616d6f756e74206578636565647320616044820152676c6c6f77616e636560c01b60648201526084015b60405180910390fd5b6103d885338584036108c8565b506001949350505050565b6040516370a0823160e01b815230600482015260009081906001600160a01b037f000000000000000000000000000000000000000000000000000000000000000016906370a082319060240160206040518083038186803b15801561044757600080fd5b505afa15801561045b573d6000803e3d6000fd5b505050506040513d601f19601f8201168201806040525081019061047f9190610d73565b9050600061048c60025490565b905080826104af866001600160a01b031660009081526020819052604090205490565b6104b99190610e1b565b6104c39190610df9565b949350505050565b3360008181526001602090815260408083206001600160a01b0387168452909152812054909161032b918590610502908690610de1565b6108c8565b6040516370a0823160e01b81523060048201526000907f00000000000000000000000000000000000000000000000000000000000000006001600160a01b0316906370a082319060240160206040518083038186803b15801561056957600080fd5b505afa15801561057d573d6000803e3d6000fd5b505050506040513d601f19601f820116820180604052508101906105a19190610d73565b905060006105ae60025490565b90506000816105bd8486610e1b565b6105c79190610df9565b90506105d33385610a34565b60405163a9059cbb60e01b8152336004820152602481018290527f00000000000000000000000000000000000000000000000000000000000000006001600160a01b03169063a9059cbb90604401602060405180830381600087803b15801561063b57600080fd5b505af115801561064f573d6000803e3d6000fd5b505050506040513d601f19601f820116820180604052508101906106739190610d38565b5050505050565b60606004805461029b90610e51565b3360009081526001602090815260408083206001600160a01b03861684529091528120548281101561070b5760405162461bcd60e51b815260206004820152602560248201527f45524332303a2064656372656173656420616c6c6f77616e63652062656c6f77604482015264207a65726f60d81b60648201526084016103c2565b61071833858584036108c8565b5060019392505050565b6040516370a0823160e01b81523060048201526000907f00000000000000000000000000000000000000000000000000000000000000006001600160a01b0316906370a082319060240160206040518083038186803b15801561078457600080fd5b505afa158015610798573d6000803e3d6000fd5b505050506040513d601f19601f820116820180604052508101906107bc9190610d73565b905060006107c960025490565b90508015806107d6575081155b156107ea576107e53384610b82565b61080f565b6000826107f78386610e1b565b6108019190610df9565b905061080d3382610b82565b505b6040516323b872dd60e01b8152336004820152306024820152604481018490527f00000000000000000000000000000000000000000000000000000000000000006001600160a01b0316906323b872dd90606401602060405180830381600087803b15801561087d57600080fd5b505af1158015610891573d6000803e3d6000fd5b505050506040513d601f19601f820116820180604052508101906108b59190610d38565b50505050565b600061032b3384846109ec565b6001600160a01b03831661092a5760405162461bcd60e51b8152602060048201526024808201527f45524332303a20617070726f76652066726f6d20746865207a65726f206164646044820152637265737360e01b60648201526084016103c2565b6001600160a01b03821661098b5760405162461bcd60e51b815260206004820152602260248201527f45524332303a20617070726f766520746f20746865207a65726f206164647265604482015261737360f01b60648201526084016103c2565b6001600160a01b0383811660008181526001602090815260408083209487168084529482529182902085905590518481527f8c5be1e5ebec7d5bd14f71427d1e84f3dd0314c0f7b2291e5b200ac8c7c3b925910160405180910390a3505050565b60405162461bcd60e51b815260206004820152601a60248201527f70504b4e3a204e6f207472616e736665727320616c6c6f77656400000000000060448201526064016103c2565b6001600160a01b038216610a945760405162461bcd60e51b815260206004820152602160248201527f45524332303a206275726e2066726f6d20746865207a65726f206164647265736044820152607360f81b60648201526084016103c2565b6001600160a01b03821660009081526020819052604090205481811015610b085760405162461bcd60e51b815260206004820152602260248201527f45524332303a206275726e20616d6f756e7420657863656564732062616c616e604482015261636560f01b60648201526084016103c2565b6001600160a01b0383166000908152602081905260408120838303905560028054849290610b37908490610e3a565b90915550506040518281526000906001600160a01b038516907fddf252ad1be2c89b69c2b068fc378daa952ba7f163c4a11628f55a4df523b3ef9060200160405180910390a3505050565b6001600160a01b038216610bd85760405162461bcd60e51b815260206004820152601f60248201527f45524332303a206d696e7420746f20746865207a65726f20616464726573730060448201526064016103c2565b8060026000828254610bea9190610de1565b90915550506001600160a01b03821660009081526020819052604081208054839290610c17908490610de1565b90915550506040518181526001600160a01b038316906000907fddf252ad1be2c89b69c2b068fc378daa952ba7f163c4a11628f55a4df523b3ef9060200160405180910390a35050565b80356001600160a01b0381168114610c7857600080fd5b919050565b600060208284031215610c8f57600080fd5b610c9882610c61565b9392505050565b60008060408385031215610cb257600080fd5b610cbb83610c61565b9150610cc960208401610c61565b90509250929050565b600080600060608486031215610ce757600080fd5b610cf084610c61565b9250610cfe60208501610c61565b9150604084013590509250925092565b60008060408385031215610d2157600080fd5b610d2a83610c61565b946020939093013593505050565b600060208284031215610d4a57600080fd5b81518015158114610c9857600080fd5b600060208284031215610d6c57600080fd5b5035919050565b600060208284031215610d8557600080fd5b5051919050565b600060208083528351808285015260005b81811015610db957858101830151858201604001528201610d9d565b81811115610dcb576000604083870101525b50601f01601f1916929092016040019392505050565b60008219821115610df457610df4610e8c565b500190565b600082610e1657634e487b7160e01b600052601260045260246000fd5b500490565b6000816000190483118215151615610e3557610e35610e8c565b500290565b600082821015610e4c57610e4c610e8c565b500390565b600181811c90821680610e6557607f821691505b60208210811415610e8657634e487b7160e01b600052602260045260246000fd5b50919050565b634e487b7160e01b600052601160045260246000fdfea2646970667358221220156fbcd6b0151c1f056f62383f33e963f488990af1f0133a631e25670556620164736f6c63430008070033"}}