{
  "opcodeHash": "0x7602fe4c6c9a6b7a6d2df55b9bdca5ed2e974a6d5a72a842c51f0481ce10b8d2",
  "metalessHash": "0xf34ade9eaf0dd09696a536e6b9f4bb56ecdf0f0da9f35bd69d77ad9dd03f8640",
  "runtimeHash": "0xf41a53215b9b3d90eb369ba4c55222c76cf8a44810607e514a64bbc333234c49",
  "encodedMetadata": [
    {
      "ipfs": "/ipfs/Qmdb7enrSFdYq7vhoGuyun5e4GgBbh2ENVxvoBgHMKFfjo",
      "solc": "0.7.0"
    }
  ],
  "abi": [
    {
      "inputs": [],
      "stateMutability": "nonpayable",
      "type": "constructor"
    },
    {
      "anonymous": false,
      "inputs": [
        {
          "indexed": true,
          "internalType": "address",
          "name": "owner",
          "type": "address"
        },
        {
          "indexed": true,
          "internalType": "address",
          "name": "approved",
          "type": "address"
        },
        {
          "indexed": true,
          "internalType": "uint256",
          "name": "tokenId",
          "type": "uint256"
        }
      ],
      "name": "Approval",
      "type": "event"
    },
    {
      "anonymous": false,
      "inputs": [
        {
          "indexed": true,
          "internalType": "address",
          "name": "owner",
          "type": "address"
        },
        {
          "indexed": true,
          "internalType": "address",
          "name": "operator",
          "type": "address"
        },
        {
          "indexed": false,
          "internalType": "bool",
          "name": "approved",
          "type": "bool"
        }
      ],
      "name": "ApprovalForAll",
      "type": "event"
    },
    {
      "anonymous": false,
      "inputs": [
        {
          "indexed": true,
          "internalType": "address",
          "name": "previousOwner",
          "type": "address"
        },
        {
          "indexed": true,
          "internalType": "address",
          "name": "newOwner",
          "type": "address"
        }
      ],
      "name": "OwnershipTransferred",
      "type": "event"
    },
    {
      "anonymous": false,
      "inputs": [
        {
          "indexed": true,
          "internalType": "address",
          "name": "from",
          "type": "address"
        },
        {
          "indexed": true,
          "internalType": "address",
          "name": "to",
          "type": "address"
        },
        {
          "indexed": true,
          "internalType": "uint256",
          "name": "tokenId",
          "type": "uint256"
        }
      ],
      "name": "Transfer",
      "type": "event"
    },
    {
      "inputs": [],
      "name": "LandPrice",
      "outputs": [
        {
          "internalType": "uint256",
          "name": "",
          "type": "uint256"
        }
      ],
      "stateMutability": "view",
      "type": "function"
    },
    {
      "inputs": [
        {
          "internalType": "address",
          "name": "to",
          "type": "address"
        },
        {
          "internalType": "uint256",
          "name": "tokenId",
          "type": "uint256"
        }
      ],
      "name": "approve",
      "outputs": [],
      "stateMutability": "nonpayable",
      "type": "function"
    },
    {
      "inputs": [
        {
          "internalType": "address",
          "name": "owner",
          "type": "address"
        }
      ],
      "name": "balanceOf",
      "outputs": [
        {
          "internalType": "uint256",
          "name": "",
          "type": "uint256"
        }
      ],
      "stateMutability": "view",
      "type": "function"
    },
    {
      "inputs": [],
      "name": "baseURI",
      "outputs": [
        {
          "internalType": "string",
          "name": "",
          "type": "string"
        }
      ],
      "stateMutability": "view",
      "type": "function"
    },
    {
      "inputs": [],
      "name": "flipSaleState",
      "outputs": [],
      "stateMutability": "nonpayable",
      "type": "function"
    },
    {
      "inputs": [
        {
          "internalType": "uint256",
          "name": "tokenId",
          "type": "uint256"
        }
      ],
      "name": "getApproved",
      "outputs": [
        {
          "internalType": "address",
          "name": "",
          "type": "address"
        }
      ],
      "stateMutability": "view",
      "type": "function"
    },
    {
      "inputs": [
        {
          "internalType": "address",
          "name": "owner",
          "type": "address"
        },
        {
          "internalType": "address",
          "name": "operator",
          "type": "address"
        }
      ],
      "name": "isApprovedForAll",
      "outputs": [
        {
          "internalType": "bool",
          "name": "",
          "type": "bool"
        }
      ],
      "stateMutability": "view",
      "type": "function"
    },
    {
      "inputs": [],
      "name": "maxLands",
      "outputs": [
        {
          "internalType": "uint256",
          "name": "",
          "type": "uint256"
        }
      ],
      "stateMutability": "view",
      "type": "function"
    },
    {
      "inputs": [],
      "name": "maxPurchase",
      "outputs": [
        {
          "internalType": "uint256",
          "name": "",
          "type": "uint256"
        }
      ],
      "stateMutability": "view",
      "type": "function"
    },
    {
      "inputs": [
        {
          "internalType": "uint256",
          "name": "numberOfTokens",
          "type": "uint256"
        }
      ],
      "name": "mintLand",
      "outputs": [],
      "stateMutability": "payable",
      "type": "function"
    },
    {
      "inputs": [],
      "name": "name",
      "outputs": [
        {
          "internalType": "string",
          "name": "",
          "type": "string"
        }
      ],
      "stateMutability": "view",
      "type": "function"
    },
    {
      "inputs": [],
      "name": "owner",
      "outputs": [
        {
          "internalType": "address",
          "name": "",
          "type": "address"
        }
      ],
      "stateMutability": "view",
      "type": "function"
    },
    {
      "inputs": [
        {
          "internalType": "uint256",
          "name": "tokenId",
          "type": "uint256"
        }
      ],
      "name": "ownerOf",
      "outputs": [
        {
          "internalType": "address",
          "name": "",
          "type": "address"
        }
      ],
      "stateMutability": "view",
      "type": "function"
    },
    {
      "inputs": [],
      "name": "renounceOwnership",
      "outputs": [],
      "stateMutability": "nonpayable",
      "type": "function"
    },
    {
      "inputs": [],
      "name": "reserveLand",
      "outputs": [],
      "stateMutability": "nonpayable",
      "type": "function"
    },
    {
      "inputs": [
        {
          "internalType": "address",
          "name": "from",
          "type": "address"
        },
        {
          "internalType": "address",
          "name": "to",
          "type": "address"
        },
        {
          "internalType": "uint256",
          "name": "tokenId",
          "type": "uint256"
        }
      ],
      "name": "safeTransferFrom",
      "outputs": [],
      "stateMutability": "nonpayable",
      "type": "function"
    },
    {
      "inputs": [
        {
          "internalType": "address",
          "name": "from",
          "type": "address"
        },
        {
          "internalType": "address",
          "name": "to",
          "type": "address"
        },
        {
          "internalType": "uint256",
          "name": "tokenId",
          "type": "uint256"
        },
        {
          "internalType": "bytes",
          "name": "_data",
          "type": "bytes"
        }
      ],
      "name": "safeTransferFrom",
      "outputs": [],
      "stateMutability": "nonpayable",
      "type": "function"
    },
    {
      "inputs": [],
      "name": "saleIsActive",
      "outputs": [
        {
          "internalType": "bool",
          "name": "",
          "type": "bool"
        }
      ],
      "stateMutability": "view",
      "type": "function"
    },
    {
      "inputs": [
        {
          "internalType": "address",
          "name": "operator",
          "type": "address"
        },
        {
          "internalType": "bool",
          "name": "approved",
          "type": "bool"
        }
      ],
      "name": "setApprovalForAll",
      "outputs": [],
      "stateMutability": "nonpayable",
      "type": "function"
    },
    {
      "inputs": [
        {
          "internalType": "string",
          "name": "baseURI",
          "type": "string"
        }
      ],
      "name": "setBaseURI",
      "outputs": [],
      "stateMutability": "nonpayable",
      "type": "function"
    },
    {
      "inputs": [
        {
          "internalType": "bytes4",
          "name": "interfaceId",
          "type": "bytes4"
        }
      ],
      "name": "supportsInterface",
      "outputs": [
        {
          "internalType": "bool",
          "name": "",
          "type": "bool"
        }
      ],
      "stateMutability": "view",
      "type": "function"
    },
    {
      "inputs": [],
      "name": "symbol",
      "outputs": [
        {
          "internalType": "string",
          "name": "",
          "type": "string"
        }
      ],
      "stateMutability": "view",
      "type": "function"
    },
    {
      "inputs": [
        {
          "internalType": "uint256",
          "name": "index",
          "type": "uint256"
        }
      ],
      "name": "tokenByIndex",
      "outputs": [
        {
          "internalType": "uint256",
          "name": "",
          "type": "uint256"
        }
      ],
      "stateMutability": "view",
      "type": "function"
    },
    {
      "inputs": [
        {
          "internalType": "address",
          "name": "owner",
          "type": "address"
        },
        {
          "internalType": "uint256",
          "name": "index",
          "type": "uint256"
        }
      ],
      "name": "tokenOfOwnerByIndex",
      "outputs": [
        {
          "internalType": "uint256",
          "name": "",
          "type": "uint256"
        }
      ],
      "stateMutability": "view",
      "type": "function"
    },
    {
      "inputs": [
        {
          "internalType": "uint256",
          "name": "tokenId",
          "type": "uint256"
        }
      ],
      "name": "tokenURI",
      "outputs": [
        {
          "internalType": "string",
          "name": "",
          "type": "string"
        }
      ],
      "stateMutability": "view",
      "type": "function"
    },
    {
      "inputs": [],
      "name": "totalSupply",
      "outputs": [
        {
          "internalType": "uint256",
          "name": "",
          "type": "uint256"
        }
      ],
      "stateMutability": "view",
      "type": "function"
    },
    {
      "inputs": [
        {
          "internalType": "address",
          "name": "from",
          "type": "address"
        },
        {
          "internalType": "address",
          "name": "to",
          "type": "address"
        },
        {
          "internalType": "uint256",
          "name": "tokenId",
          "type": "uint256"
        }
      ],
      "name": "transferFrom",
      "outputs": [],
      "stateMutability": "nonpayable",
      "type": "function"
    },
    {
      "inputs": [
        {
          "internalType": "address",
          "name": "newOwner",
          "type": "address"
        }
      ],
      "name": "transferOwnership",
      "outputs": [],
      "stateMutability": "nonpayable",
      "type": "function"
    },
    {
      "inputs": [],
      "name": "withdraw",
      "outputs": [],
      "stateMutability": "nonpayable",
      "type": "function"
    }
  ],
  "bytecode": {
    "object": "6080604052670853a0d2313c0000600b556014600c55611a0a600d55600e805460ff191690553480156200003257600080fd5b50604080518082018252600c81526b466175737461204c616e647360a01b60208083019190915282518084019093526003835262464c7360e81b9083015290620000836301ffc9a760e01b62000148565b815162000098906006906020850190620001d1565b508051620000ae906007906020840190620001d1565b50620000c16380ac58cd60e01b62000148565b620000d3635b5e139f60e01b62000148565b620000e563780e9d6360e01b62000148565b5060009050620000f4620001cd565b600a80546001600160a01b0319166001600160a01b038316908117909155604051919250906000907f8be0079c531659141344cd1fd0a4f28419497f9722a3daafe3b4186f6b6457e0908290a3506200026d565b6001600160e01b03198082161415620001a8576040805162461bcd60e51b815260206004820152601c60248201527f4552433136353a20696e76616c696420696e7465726661636520696400000000604482015290519081900360640190fd5b6001600160e01b0319166000908152602081905260409020805460ff19166001179055565b3390565b828054600181600116156101000203166002900490600052602060002090601f016020900481019282601f106200021457805160ff191683800117855562000244565b8280016001018555821562000244579182015b828111156200024457825182559160200191906001019062000227565b506200025292915062000256565b5090565b5b8082111562000252576000815560010162000257565b6125d7806200027d6000396000f3fe6080604052600436106101c25760003560e01c80636c0360eb116100f757806398d372de11610095578063e5123c4d11610064578063e5123c4d1461074c578063e985e9c514610761578063eb8d24441461079c578063f2fde38b146107b1576101c2565b806398d372de146105ff578063a22cb46514610614578063b88d4fde1461064f578063c87b56dd14610722576101c2565b8063728239f9116100d1578063728239f9146105a35780638da5cb5b146105c057806395d89b41146105d5578063977b055b146105ea576101c2565b80636c0360eb1461054657806370a082311461055b578063715018a61461058e576101c2565b806334918dfd116101645780634f6ccce71161013e5780634f6ccce71461042a57806355f804b3146104545780636352211e14610507578063673f784f14610531576101c2565b806334918dfd146103bd5780633ccfd60b146103d257806342842e0e146103e7576101c2565b8063095ea7b3116101a0578063095ea7b3146102df57806318160ddd1461031a57806323b872dd146103415780632f745c5914610384576101c2565b806301ffc9a7146101c757806306fdde031461020f578063081812fc14610299575b600080fd5b3480156101d357600080fd5b506101fb600480360360208110156101ea57600080fd5b50356001600160e01b0319166107e4565b604080519115158252519081900360200190f35b34801561021b57600080fd5b50610224610807565b6040805160208082528351818301528351919283929083019185019080838360005b8381101561025e578181015183820152602001610246565b50505050905090810190601f16801561028b5780820380516001836020036101000a031916815260200191505b509250505060405180910390f35b3480156102a557600080fd5b506102c3600480360360208110156102bc57600080fd5b503561089d565b604080516001600160a01b039092168252519081900360200190f35b3480156102eb57600080fd5b506103186004803603604081101561030257600080fd5b506001600160a01b0381351690602001356108ff565b005b34801561032657600080fd5b5061032f6109da565b60408051918252519081900360200190f35b34801561034d57600080fd5b506103186004803603606081101561036457600080fd5b506001600160a01b038135811691602081013590911690604001356109eb565b34801561039057600080fd5b5061032f600480360360408110156103a757600080fd5b506001600160a01b038135169060200135610a42565b3480156103c957600080fd5b50610318610a6d565b3480156103de57600080fd5b50610318610ae3565b3480156103f357600080fd5b506103186004803603606081101561040a57600080fd5b506001600160a01b03813581169160208101359091169060400135610b5a565b34801561043657600080fd5b5061032f6004803603602081101561044d57600080fd5b5035610b75565b34801561046057600080fd5b506103186004803603602081101561047757600080fd5b81019060208101813564010000000081111561049257600080fd5b8201836020820111156104a457600080fd5b803590602001918460018302840111640100000000831117156104c657600080fd5b91908080601f016020809104026020016040519081016040528093929190818152602001838380828437600092019190915250929550610b8b945050505050565b34801561051357600080fd5b506102c36004803603602081101561052a57600080fd5b5035610bf6565b34801561053d57600080fd5b5061032f610c1e565b34801561055257600080fd5b50610224610c24565b34801561056757600080fd5b5061032f6004803603602081101561057e57600080fd5b50356001600160a01b0316610c85565b34801561059a57600080fd5b50610318610ced565b610318600480360360208110156105b957600080fd5b5035610d99565b3480156105cc57600080fd5b506102c3610f1c565b3480156105e157600080fd5b50610224610f2b565b3480156105f657600080fd5b5061032f610f8c565b34801561060b57600080fd5b50610318610f92565b34801561062057600080fd5b506103186004803603604081101561063757600080fd5b506001600160a01b038135169060200135151561102d565b34801561065b57600080fd5b506103186004803603608081101561067257600080fd5b6001600160a01b038235811692602081013590911691604082013591908101906080810160608201356401000000008111156106ad57600080fd5b8201836020820111156106bf57600080fd5b803590602001918460018302840111640100000000831117156106e157600080fd5b91908080601f016020809104026020016040519081016040528093929190818152602001838380828437600092019190915250929550611132945050505050565b34801561072e57600080fd5b506102246004803603602081101561074557600080fd5b5035611190565b34801561075857600080fd5b5061032f6113bf565b34801561076d57600080fd5b506101fb6004803603604081101561078457600080fd5b506001600160a01b03813581169160200135166113c5565b3480156107a857600080fd5b506101fb6113f3565b3480156107bd57600080fd5b50610318600480360360208110156107d457600080fd5b50356001600160a01b03166113fc565b6001600160e01b0319811660009081526020819052604090205460ff165b919050565b60068054604080516020601f60026000196101006001881615020190951694909404938401819004810282018101909252828152606093909290918301828280156108935780601f1061086857610100808354040283529160200191610893565b820191906000526020600020905b81548152906001019060200180831161087657829003601f168201915b5050505050905090565b60006108a8826114ff565b6108e35760405162461bcd60e51b815260040180806020018281038252602c815260200180612483602c913960400191505060405180910390fd5b506000908152600460205260409020546001600160a01b031690565b600061090a82610bf6565b9050806001600160a01b0316836001600160a01b0316141561095d5760405162461bcd60e51b81526004018080602001828103825260218152602001806125276021913960400191505060405180910390fd5b806001600160a01b031661096f61150c565b6001600160a01b0316148061099057506109908161098b61150c565b6113c5565b6109cb5760405162461bcd60e51b81526004018080602001828103825260388152602001806123876038913960400191505060405180910390fd5b6109d58383611510565b505050565b60006109e6600261157e565b905090565b6109fc6109f661150c565b82611589565b610a375760405162461bcd60e51b81526004018080602001828103825260318152602001806125486031913960400191505060405180910390fd5b6109d583838361162d565b6001600160a01b0382166000908152600160205260408120610a649083611779565b90505b92915050565b610a7561150c565b6001600160a01b0316610a86610f1c565b6001600160a01b031614610acf576040805162461bcd60e51b815260206004820181905260248201526000805160206124af833981519152604482015290519081900360640190fd5b600e805460ff19811660ff90911615179055565b610aeb61150c565b6001600160a01b0316610afc610f1c565b6001600160a01b031614610b45576040805162461bcd60e51b815260206004820181905260248201526000805160206124af833981519152604482015290519081900360640190fd5b47610b57610b5161150c565b82611785565b50565b6109d583838360405180602001604052806000815250611132565b600080610b8360028461186a565b509392505050565b610b9361150c565b6001600160a01b0316610ba4610f1c565b6001600160a01b031614610bed576040805162461bcd60e51b815260206004820181905260248201526000805160206124af833981519152604482015290519081900360640190fd5b610b5781611886565b6000610a67826040518060600160405280602981526020016123e96029913960029190611899565b600b5481565b60098054604080516020601f60026000196101006001881615020190951694909404938401819004810282018101909252828152606093909290918301828280156108935780601f1061086857610100808354040283529160200191610893565b60006001600160a01b038216610ccc5760405162461bcd60e51b815260040180806020018281038252602a8152602001806123bf602a913960400191505060405180910390fd5b6001600160a01b0382166000908152600160205260409020610a679061157e565b610cf561150c565b6001600160a01b0316610d06610f1c565b6001600160a01b031614610d4f576040805162461bcd60e51b815260206004820181905260248201526000805160206124af833981519152604482015290519081900360640190fd5b600a546040516000916001600160a01b0316907f8be0079c531659141344cd1fd0a4f28419497f9722a3daafe3b4186f6b6457e0908390a3600a80546001600160a01b0319169055565b600e5460ff16610de5576040805162461bcd60e51b815260206004820152601260248201527153616c65206973206e6f742061637469766560701b604482015290519081900360640190fd5b600c54811115610e265760405162461bcd60e51b815260040180806020018281038252602e815260200180612412602e913960400191505060405180910390fd5b600d54610e3b82610e356109da565b906118b0565b1115610e785760405162461bcd60e51b81526004018080602001828103825260298152602001806125796029913960400191505060405180910390fd5b600b543490610e87908361190a565b14610ed9576040805162461bcd60e51b815260206004820152601f60248201527f45746865722076616c75652073656e74206973206e6f7420636f727265637400604482015290519081900360640190fd5b6000805b828210156109d557610eed6109da565b9050600d54610efa6109da565b1015610f1157610f11610f0b61150c565b82611963565b600190910190610edd565b600a546001600160a01b031690565b60078054604080516020601f60026000196101006001881615020190951694909404938401819004810282018101909252828152606093909290918301828280156108935780601f1061086857610100808354040283529160200191610893565b600c5481565b610f9a61150c565b6001600160a01b0316610fab610f1c565b6001600160a01b031614610ff4576040805162461bcd60e51b815260206004820181905260248201526000805160206124af833981519152604482015290519081900360640190fd5b6001610ffe6109da565b1061100857600080fd5b60006110126109da565b9050600061102961102161150c565b828401611963565b5050565b61103561150c565b6001600160a01b0316826001600160a01b0316141561109b576040805162461bcd60e51b815260206004820152601960248201527f4552433732313a20617070726f766520746f2063616c6c657200000000000000604482015290519081900360640190fd5b80600560006110a861150c565b6001600160a01b03908116825260208083019390935260409182016000908120918716808252919093529120805460ff1916921515929092179091556110ec61150c565b6001600160a01b03167f17307eab39ab6107e8899845ad3d59bd9653f200f220920489ca2b5937696c318360405180821515815260200191505060405180910390a35050565b61114361113d61150c565b83611589565b61117e5760405162461bcd60e51b81526004018080602001828103825260318152602001806125486031913960400191505060405180910390fd5b61118a8484848461197d565b50505050565b606061119b826114ff565b6111d65760405162461bcd60e51b815260040180806020018281038252602f8152602001806124f8602f913960400191505060405180910390fd5b60008281526008602090815260409182902080548351601f600260001961010060018616150201909316929092049182018490048402810184019094528084526060939283018282801561126b5780601f106112405761010080835404028352916020019161126b565b820191906000526020600020905b81548152906001019060200180831161124e57829003601f168201915b50505050509050606061127c610c24565b905080516000141561129057509050610802565b81511561132b576009805460408051602060026001851615610100026000190190941693909304601f8101849004840282018401909252818152929183018282801561131d5780601f106112f25761010080835404028352916020019161131d565b820191906000526020600020905b81548152906001019060200180831161130057829003601f168201915b505050505092505050610802565b6009805460408051602060026001851615610100026000190190941693909304601f810184900484028201840190925281815292918301828280156113b15780601f10611386576101008083540402835291602001916113b1565b820191906000526020600020905b81548152906001019060200180831161139457829003601f168201915b505050505092505050919050565b600d5481565b6001600160a01b03918216600090815260056020908152604080832093909416825291909152205460ff1690565b600e5460ff1681565b61140461150c565b6001600160a01b0316611415610f1c565b6001600160a01b03161461145e576040805162461bcd60e51b815260206004820181905260248201526000805160206124af833981519152604482015290519081900360640190fd5b6001600160a01b0381166114a35760405162461bcd60e51b81526004018080602001828103825260268152602001806122d76026913960400191505060405180910390fd5b600a546040516001600160a01b038084169216907f8be0079c531659141344cd1fd0a4f28419497f9722a3daafe3b4186f6b6457e090600090a3600a80546001600160a01b0319166001600160a01b0392909216919091179055565b6000610a676002836119cf565b3390565b600081815260046020526040902080546001600160a01b0319166001600160a01b038416908117909155819061154582610bf6565b6001600160a01b03167f8c5be1e5ebec7d5bd14f71427d1e84f3dd0314c0f7b2291e5b200ac8c7c3b92560405160405180910390a45050565b6000610a67826119db565b6000611594826114ff565b6115cf5760405162461bcd60e51b815260040180806020018281038252602c81526020018061235b602c913960400191505060405180910390fd5b60006115da83610bf6565b9050806001600160a01b0316846001600160a01b031614806116155750836001600160a01b031661160a8461089d565b6001600160a01b0316145b80611625575061162581856113c5565b949350505050565b826001600160a01b031661164082610bf6565b6001600160a01b0316146116855760405162461bcd60e51b81526004018080602001828103825260298152602001806124cf6029913960400191505060405180910390fd5b6001600160a01b0382166116ca5760405162461bcd60e51b81526004018080602001828103825260248152602001806122fd6024913960400191505060405180910390fd5b6116d58383836109d5565b6116e0600082611510565b6001600160a01b038316600090815260016020526040902061170290826119df565b506001600160a01b038216600090815260016020526040902061172590826119eb565b50611732600282846119f7565b5080826001600160a01b0316846001600160a01b03167fddf252ad1be2c89b69c2b068fc378daa952ba7f163c4a11628f55a4df523b3ef60405160405180910390a4505050565b6000610a648383611a0d565b804710156117da576040805162461bcd60e51b815260206004820152601d60248201527f416464726573733a20696e73756666696369656e742062616c616e6365000000604482015290519081900360640190fd5b6040516000906001600160a01b0384169083908381818185875af1925050503d8060008114611825576040519150601f19603f3d011682016040523d82523d6000602084013e61182a565b606091505b50509050806109d55760405162461bcd60e51b815260040180806020018281038252603a815260200180612321603a913960400191505060405180910390fd5b60008080806118798686611a71565b9097909650945050505050565b80516110299060099060208401906121ef565b60006118a6848484611aec565b90505b9392505050565b600082820183811015610a64576040805162461bcd60e51b815260206004820152601b60248201527f536166654d6174683a206164646974696f6e206f766572666c6f770000000000604482015290519081900360640190fd5b60008261191957506000610a67565b8282028284828161192657fe5b0414610a645760405162461bcd60e51b81526004018080602001828103825260218152602001806124626021913960400191505060405180910390fd5b611029828260405180602001604052806000815250611bb6565b61198884848461162d565b61199484848484611c08565b61118a5760405162461bcd60e51b81526004018080602001828103825260328152602001806122a56032913960400191505060405180910390fd5b6000610a648383611d70565b5490565b6000610a648383611d88565b6000610a648383611e4e565b60006118a684846001600160a01b038516611e98565b81546000908210611a4f5760405162461bcd60e51b81526004018080602001828103825260228152602001806122836022913960400191505060405180910390fd5b826000018281548110611a5e57fe5b9060005260206000200154905092915050565b815460009081908310611ab55760405162461bcd60e51b81526004018080602001828103825260228152602001806124406022913960400191505060405180910390fd5b6000846000018481548110611ac657fe5b906000526020600020906002020190508060000154816001015492509250509250929050565b60008281526001840160205260408120548281611b875760405162461bcd60e51b81526004018080602001828103825283818151815260200191508051906020019080838360005b83811015611b4c578181015183820152602001611b34565b50505050905090810190601f168015611b795780820380516001836020036101000a031916815260200191505b509250505060405180910390fd5b50846000016001820381548110611b9a57fe5b9060005260206000209060020201600101549150509392505050565b611bc08383611f2f565b611bcd6000848484611c08565b6109d55760405162461bcd60e51b81526004018080602001828103825260328152602001806122a56032913960400191505060405180910390fd5b6000611c1c846001600160a01b031661205d565b611c2857506001611625565b6060611d36630a85bd0160e11b611c3d61150c565b88878760405160240180856001600160a01b03168152602001846001600160a01b0316815260200183815260200180602001828103825283818151815260200191508051906020019080838360005b83811015611ca4578181015183820152602001611c8c565b50505050905090810190601f168015611cd15780820380516001836020036101000a031916815260200191505b5095505050505050604051602081830303815290604052906001600160e01b0319166020820180516001600160e01b0383818316178352505050506040518060600160405280603281526020016122a5603291396001600160a01b0388169190612063565b90506000818060200190516020811015611d4f57600080fd5b50516001600160e01b031916630a85bd0160e11b1492505050949350505050565b60009081526001919091016020526040902054151590565b60008181526001830160205260408120548015611e445783546000198083019190810190600090879083908110611dbb57fe5b9060005260206000200154905080876000018481548110611dd857fe5b600091825260208083209091019290925582815260018981019092526040902090840190558654879080611e0857fe5b60019003818190600052602060002001600090559055866001016000878152602001908152602001600020600090556001945050505050610a67565b6000915050610a67565b6000611e5a8383611d70565b611e9057508154600181810184556000848152602080822090930184905584548482528286019093526040902091909155610a67565b506000610a67565b600082815260018401602052604081205480611efd5750506040805180820182528381526020808201848152865460018181018955600089815284812095516002909302909501918255915190820155865486845281880190925292909120556118a9565b82856000016001830381548110611f1057fe5b90600052602060002090600202016001018190555060009150506118a9565b6001600160a01b038216611f8a576040805162461bcd60e51b815260206004820181905260248201527f4552433732313a206d696e7420746f20746865207a65726f2061646472657373604482015290519081900360640190fd5b611f93816114ff565b15611fe5576040805162461bcd60e51b815260206004820152601c60248201527f4552433732313a20746f6b656e20616c7265616479206d696e74656400000000604482015290519081900360640190fd5b611ff1600083836109d5565b6001600160a01b038216600090815260016020526040902061201390826119eb565b50612020600282846119f7565b5060405181906001600160a01b038416906000907fddf252ad1be2c89b69c2b068fc378daa952ba7f163c4a11628f55a4df523b3ef908290a45050565b3b151590565b60606118a68484600085856120778561205d565b6120c8576040805162461bcd60e51b815260206004820152601d60248201527f416464726573733a2063616c6c20746f206e6f6e2d636f6e7472616374000000604482015290519081900360640190fd5b60006060866001600160a01b031685876040518082805190602001908083835b602083106121075780518252601f1990920191602091820191016120e8565b6001836020036101000a03801982511681845116808217855250505050505090500191505060006040518083038185875af1925050503d8060008114612169576040519150601f19603f3d011682016040523d82523d6000602084013e61216e565b606091505b509150915061217e828286612189565b979650505050505050565b606083156121985750816118a9565b8251156121a85782518084602001fd5b60405162461bcd60e51b8152602060048201818152845160248401528451859391928392604401919085019080838360008315611b4c578181015183820152602001611b34565b828054600181600116156101000203166002900490600052602060002090601f016020900481019282601f1061223057805160ff191683800117855561225d565b8280016001018555821561225d579182015b8281111561225d578251825591602001919060010190612242565b5061226992915061226d565b5090565b5b80821115612269576000815560010161226e56fe456e756d657261626c655365743a20696e646578206f7574206f6620626f756e64734552433732313a207472616e7366657220746f206e6f6e20455243373231526563656976657220696d706c656d656e7465724f776e61626c653a206e6577206f776e657220697320746865207a65726f20616464726573734552433732313a207472616e7366657220746f20746865207a65726f2061646472657373416464726573733a20756e61626c6520746f2073656e642076616c75652c20726563697069656e74206d617920686176652072657665727465644552433732313a206f70657261746f7220717565727920666f72206e6f6e6578697374656e7420746f6b656e4552433732313a20617070726f76652063616c6c6572206973206e6f74206f776e6572206e6f7220617070726f76656420666f7220616c6c4552433732313a2062616c616e636520717565727920666f7220746865207a65726f20616464726573734552433732313a206f776e657220717565727920666f72206e6f6e6578697374656e7420746f6b656e45786365656473206d6178206e756d626572206f66206c616e647320696e206f6e65207472616e73616374696f6e456e756d657261626c654d61703a20696e646578206f7574206f6620626f756e6473536166654d6174683a206d756c7469706c69636174696f6e206f766572666c6f774552433732313a20617070726f76656420717565727920666f72206e6f6e6578697374656e7420746f6b656e4f776e61626c653a2063616c6c6572206973206e6f7420746865206f776e65724552433732313a207472616e73666572206f6620746f6b656e2074686174206973206e6f74206f776e4552433732314d657461646174613a2055524920717565727920666f72206e6f6e6578697374656e7420746f6b656e4552433732313a20617070726f76616c20746f2063757272656e74206f776e65724552433732313a207472616e736665722063616c6c6572206973206e6f74206f776e6572206e6f7220617070726f766564507572636861736520776f756c6420657863656564206d617820737570706c79206f66206c616e6473a26469706673582212208ed1c1fc47df7296901cd7242d64986ae7d7bbc0e4246a4c1d81269f7369a95864736f6c63430007000033"
  }
}