{"compiler":"v0.7.5+commit.eb77ed08","opcodeHash":"0xe415cc9c0206dd02a7848fdc0d1f70fb917fa6a0b3c6da2d5dad5f83390b072d","metalessHash":"0x5be58b91c5d3d51cb5075092f99a253555bc5bc31d1b1d0294bb086c18ffb4f5","runtimeHash":"0x1cc6c2c15b554124751cd04ef5b1ddddd171e711a5bff0fb3c637dc23f1d5c64","encodedMetadata":[{"ipfs":"/ipfs/QmWbeqyDnDLAEtR8KduM7Q2yfk4RdXKRcjXLN84SSBqQxp","solc":"0.7.5"}],"abi":[{"inputs":[{"internalType":"address","name":"_treasury","type":"address"},{"internalType":"address","name":"_ohm","type":"address"},{"internalType":"uint256","name":"_epochLength","type":"uint256"},{"internalType":"uint256","name":"_nextEpochBlock","type":"uint256"}],"stateMutability":"nonpayable","type":"constructor"},{"anonymous":false,"inputs":[{"indexed":true,"internalType":"address","name":"previousOwner","type":"address"},{"indexed":true,"internalType":"address","name":"newOwner","type":"address"}],"name":"OwnershipTransferred","type":"event"},{"inputs":[],"name":"OHM","outputs":[{"internalType":"address","name":"","type":"address"}],"stateMutability":"view","type":"function"},{"inputs":[{"internalType":"address","name":"_recipient","type":"address"},{"internalType":"uint256","name":"_rewardRate","type":"uint256"}],"name":"addRecipient","outputs":[],"stateMutability":"nonpayable","type":"function"},{"inputs":[{"internalType":"uint256","name":"","type":"uint256"}],"name":"adjustments","outputs":[{"internalType":"bool","name":"add","type":"bool"},{"internalType":"uint256","name":"rate","type":"uint256"},{"internalType":"uint256","name":"target","type":"uint256"}],"stateMutability":"view","type":"function"},{"inputs":[],"name":"distribute","outputs":[{"internalType":"bool","name":"","type":"bool"}],"stateMutability":"nonpayable","type":"function"},{"inputs":[],"name":"epochLength","outputs":[{"internalType":"uint256","name":"","type":"uint256"}],"stateMutability":"view","type":"function"},{"inputs":[{"internalType":"uint256","name":"","type":"uint256"}],"name":"info","outputs":[{"internalType":"uint256","name":"rate","type":"uint256"},{"internalType":"address","name":"recipient","type":"address"}],"stateMutability":"view","type":"function"},{"inputs":[],"name":"nextEpochBlock","outputs":[{"internalType":"uint256","name":"","type":"uint256"}],"stateMutability":"view","type":"function"},{"inputs":[{"internalType":"uint256","name":"_rate","type":"uint256"}],"name":"nextRewardAt","outputs":[{"internalType":"uint256","name":"","type":"uint256"}],"stateMutability":"view","type":"function"},{"inputs":[{"internalType":"address","name":"_recipient","type":"address"}],"name":"nextRewardFor","outputs":[{"internalType":"uint256","name":"","type":"uint256"}],"stateMutability":"view","type":"function"},{"inputs":[],"name":"policy","outputs":[{"internalType":"address","name":"","type":"address"}],"stateMutability":"view","type":"function"},{"inputs":[],"name":"pullPolicy","outputs":[],"stateMutability":"nonpayable","type":"function"},{"inputs":[{"internalType":"address","name":"newPolicy_","type":"address"}],"name":"pushPolicy","outputs":[],"stateMutability":"nonpayable","type":"function"},{"inputs":[{"internalType":"uint256","name":"_index","type":"uint256"},{"internalType":"address","name":"_recipient","type":"address"}],"name":"removeRecipient","outputs":[],"stateMutability":"nonpayable","type":"function"},{"inputs":[],"name":"renouncePolicy","outputs":[],"stateMutability":"nonpayable","type":"function"},{"inputs":[{"internalType":"uint256","name":"_index","type":"uint256"},{"internalType":"bool","name":"_add","type":"bool"},{"internalType":"uint256","name":"_rate","type":"uint256"},{"internalType":"uint256","name":"_target","type":"uint256"}],"name":"setAdjustment","outputs":[],"stateMutability":"nonpayable","type":"function"},{"inputs":[],"name":"treasury","outputs":[{"internalType":"address","name":"","type":"address"}],"stateMutability":"view","type":"function"}],"bytecode":{"object":"60e060405234801561001057600080fd5b506040516119bd3803806119bd8339818101604052608081101561003357600080fd5b8101908080519060200190929190805190602001909291908051906020019092919080519060200190929190505050336000806101000a81548173ffffffffffffffffffffffffffffffffffffffff021916908373ffffffffffffffffffffffffffffffffffffffff16021790555060008054906101000a900473ffffffffffffffffffffffffffffffffffffffff1673ffffffffffffffffffffffffffffffffffffffff16600073ffffffffffffffffffffffffffffffffffffffff167f8be0079c531659141344cd1fd0a4f28419497f9722a3daafe3b4186f6b6457e060405160405180910390a3600073ffffffffffffffffffffffffffffffffffffffff168473ffffffffffffffffffffffffffffffffffffffff16141561015757600080fd5b8373ffffffffffffffffffffffffffffffffffffffff1660a08173ffffffffffffffffffffffffffffffffffffffff1660601b81525050600073ffffffffffffffffffffffffffffffffffffffff168373ffffffffffffffffffffffffffffffffffffffff1614156101c857600080fd5b8273ffffffffffffffffffffffffffffffffffffffff1660808173ffffffffffffffffffffffffffffffffffffffff1660601b815250508160c08181525050806002819055505050505060805160601c60a05160601c60c05161176a610253600039806105d45280610ce85250806108805280610d57525080610bae5280610c16525061176a6000f3fe608060405234801561001057600080fd5b50600436106100ff5760003560e01c8063a15ad07711610097578063c9fa8b2a11610066578063c9fa8b2a1461038b578063e4fc6b6d146103cd578063f7982243146103ed578063fe3fbbad1461043b576100ff565b8063a15ad077146102b7578063a4b23980146102fb578063a6c41fec14610305578063bc3b2b1214610339576100ff565b806357d775f8116100d357806357d775f81461020d5780635beede081461022b5780635db854b01461023557806361d027b314610283576100ff565b8062640c2e146101045780630505c8c9146101225780632e3405991461015657806336d33f44146101b5575b600080fd5b61010c610489565b6040518082815260200191505060405180910390f35b61012a61048f565b604051808273ffffffffffffffffffffffffffffffffffffffff16815260200191505060405180910390f35b6101826004803603602081101561016c57600080fd5b81019080803590602001909291905050506104b8565b604051808381526020018273ffffffffffffffffffffffffffffffffffffffff1681526020019250505060405180910390f35b6101f7600480360360208110156101cb57600080fd5b81019080803573ffffffffffffffffffffffffffffffffffffffff16906020019092919050505061050c565b6040518082815260200191505060405180910390f35b6102156105d2565b6040518082815260200191505060405180910390f35b6102336105f6565b005b6102816004803603608081101561024b57600080fd5b81019080803590602001909291908035151590602001909291908035906020019092919080359060200190929190505050610750565b005b61028b61087e565b604051808273ffffffffffffffffffffffffffffffffffffffff16815260200191505060405180910390f35b6102f9600480360360208110156102cd57600080fd5b81019080803573ffffffffffffffffffffffffffffffffffffffff1690602001909291905050506108a2565b005b610303610a2d565b005b61030d610bac565b604051808273ffffffffffffffffffffffffffffffffffffffff16815260200191505060405180910390f35b6103656004803603602081101561034f57600080fd5b8101908080359060200190929190505050610bd0565b604051808415158152602001838152602001828152602001935050505060405180910390f35b6103b7600480360360208110156103a157600080fd5b8101908080359060200190929190505050610c07565b6040518082815260200191505060405180910390f35b6103d5610cd8565b60405180821515815260200191505060405180910390f35b6104396004803603604081101561040357600080fd5b81019080803573ffffffffffffffffffffffffffffffffffffffff16906020019092919080359060200190929190505050610e8b565b005b6104876004803603604081101561045157600080fd5b8101908080359060200190929190803573ffffffffffffffffffffffffffffffffffffffff169060200190929190505050611033565b005b60025481565b60008060009054906101000a900473ffffffffffffffffffffffffffffffffffffffff16905090565b600481815481106104c857600080fd5b90600052602060002090600202016000915090508060000154908060010160009054906101000a900473ffffffffffffffffffffffffffffffffffffffff16905082565b60008060005b6004805490508110156105c8578373ffffffffffffffffffffffffffffffffffffffff166004828154811061054357fe5b906000526020600020906002020160010160009054906101000a900473ffffffffffffffffffffffffffffffffffffffff1673ffffffffffffffffffffffffffffffffffffffff1614156105bb576105b8600482815481106105a157fe5b906000526020600020906002020160000154610c07565b91505b8080600101915050610512565b5080915050919050565b7f000000000000000000000000000000000000000000000000000000000000000081565b600160009054906101000a900473ffffffffffffffffffffffffffffffffffffffff1673ffffffffffffffffffffffffffffffffffffffff163373ffffffffffffffffffffffffffffffffffffffff161461065057600080fd5b600160009054906101000a900473ffffffffffffffffffffffffffffffffffffffff1673ffffffffffffffffffffffffffffffffffffffff1660008054906101000a900473ffffffffffffffffffffffffffffffffffffffff1673ffffffffffffffffffffffffffffffffffffffff167f8be0079c531659141344cd1fd0a4f28419497f9722a3daafe3b4186f6b6457e060405160405180910390a3600160009054906101000a900473ffffffffffffffffffffffffffffffffffffffff166000806101000a81548173ffffffffffffffffffffffffffffffffffffffff021916908373ffffffffffffffffffffffffffffffffffffffff160217905550565b3373ffffffffffffffffffffffffffffffffffffffff1660008054906101000a900473ffffffffffffffffffffffffffffffffffffffff1673ffffffffffffffffffffffffffffffffffffffff1614610811576040517f08c379a00000000000000000000000000000000000000000000000000000000081526004018080602001828103825260208152602001807f4f776e61626c653a2063616c6c6572206973206e6f7420746865206f776e657281525060200191505060405180910390fd5b60405180606001604052808415158152602001838152602001828152506003600086815260200190815260200160002060008201518160000160006101000a81548160ff021916908315150217905550602082015181600101556040820151816002015590505050505050565b7f000000000000000000000000000000000000000000000000000000000000000081565b3373ffffffffffffffffffffffffffffffffffffffff1660008054906101000a900473ffffffffffffffffffffffffffffffffffffffff1673ffffffffffffffffffffffffffffffffffffffff1614610963576040517f08c379a00000000000000000000000000000000000000000000000000000000081526004018080602001828103825260208152602001807f4f776e61626c653a2063616c6c6572206973206e6f7420746865206f776e657281525060200191505060405180910390fd5b600073ffffffffffffffffffffffffffffffffffffffff168173ffffffffffffffffffffffffffffffffffffffff1614156109e9576040517f08c379a00000000000000000000000000000000000000000000000000000000081526004018080602001828103825260268152602001806116ee6026913960400191505060405180910390fd5b80600160006101000a81548173ffffffffffffffffffffffffffffffffffffffff021916908373ffffffffffffffffffffffffffffffffffffffff16021790555050565b3373ffffffffffffffffffffffffffffffffffffffff1660008054906101000a900473ffffffffffffffffffffffffffffffffffffffff1673ffffffffffffffffffffffffffffffffffffffff1614610aee576040517f08c379a00000000000000000000000000000000000000000000000000000000081526004018080602001828103825260208152602001807f4f776e61626c653a2063616c6c6572206973206e6f7420746865206f776e657281525060200191505060405180910390fd5b600073ffffffffffffffffffffffffffffffffffffffff1660008054906101000a900473ffffffffffffffffffffffffffffffffffffffff1673ffffffffffffffffffffffffffffffffffffffff167f8be0079c531659141344cd1fd0a4f28419497f9722a3daafe3b4186f6b6457e060405160405180910390a360008060006101000a81548173ffffffffffffffffffffffffffffffffffffffff021916908373ffffffffffffffffffffffffffffffffffffffff160217905550565b7f000000000000000000000000000000000000000000000000000000000000000081565b60036020528060005260406000206000915090508060000160009054906101000a900460ff16908060010154908060020154905083565b6000610cd1620f4240610cc3847f000000000000000000000000000000000000000000000000000000000000000073ffffffffffffffffffffffffffffffffffffffff166318160ddd6040518163ffffffff1660e01b815260040160206040518083038186803b158015610c7a57600080fd5b505afa158015610c8e573d6000803e3d6000fd5b505050506040513d6020811015610ca457600080fd5b81019080805190602001909291905050506111f090919063ffffffff16565b61127690919063ffffffff16565b9050919050565b60004360025411610e8357610d187f00000000000000000000000000000000000000000000000000000000000000006002546112c090919063ffffffff16565b60028190555060005b600480549050811015610e7957600060048281548110610d3d57fe5b9060005260206000209060020201600001541115610e6c577f000000000000000000000000000000000000000000000000000000000000000073ffffffffffffffffffffffffffffffffffffffff16636a20de9260048381548110610d9e57fe5b906000526020600020906002020160010160009054906101000a900473ffffffffffffffffffffffffffffffffffffffff16610df760048581548110610de057fe5b906000526020600020906002020160000154610c07565b6040518363ffffffff1660e01b8152600401808373ffffffffffffffffffffffffffffffffffffffff16815260200182815260200192505050600060405180830381600087803b158015610e4a57600080fd5b505af1158015610e5e573d6000803e3d6000fd5b50505050610e6b81611348565b5b8080600101915050610d21565b5060019050610e88565b600090505b90565b3373ffffffffffffffffffffffffffffffffffffffff1660008054906101000a900473ffffffffffffffffffffffffffffffffffffffff1673ffffffffffffffffffffffffffffffffffffffff1614610f4c576040517f08c379a00000000000000000000000000000000000000000000000000000000081526004018080602001828103825260208152602001807f4f776e61626c653a2063616c6c6572206973206e6f7420746865206f776e657281525060200191505060405180910390fd5b600073ffffffffffffffffffffffffffffffffffffffff168273ffffffffffffffffffffffffffffffffffffffff161415610f8657600080fd5b600460405180604001604052808381526020018473ffffffffffffffffffffffffffffffffffffffff1681525090806001815401808255809150506001900390600052602060002090600202016000909190919091506000820151816000015560208201518160010160006101000a81548173ffffffffffffffffffffffffffffffffffffffff021916908373ffffffffffffffffffffffffffffffffffffffff16021790555050505050565b3373ffffffffffffffffffffffffffffffffffffffff1660008054906101000a900473ffffffffffffffffffffffffffffffffffffffff1673ffffffffffffffffffffffffffffffffffffffff16146110f4576040517f08c379a00000000000000000000000000000000000000000000000000000000081526004018080602001828103825260208152602001807f4f776e61626c653a2063616c6c6572206973206e6f7420746865206f776e657281525060200191505060405180910390fd5b6004828154811061110157fe5b906000526020600020906002020160010160009054906101000a900473ffffffffffffffffffffffffffffffffffffffff1673ffffffffffffffffffffffffffffffffffffffff168173ffffffffffffffffffffffffffffffffffffffff161461116a57600080fd5b60006004838154811061117957fe5b906000526020600020906002020160010160006101000a81548173ffffffffffffffffffffffffffffffffffffffff021916908373ffffffffffffffffffffffffffffffffffffffff1602179055506000600483815481106111d757fe5b9060005260206000209060020201600001819055505050565b6000808314156112035760009050611270565b600082840290508284828161121457fe5b041461126b576040517f08c379a00000000000000000000000000000000000000000000000000000000081526004018080602001828103825260218152602001806117146021913960400191505060405180910390fd5b809150505b92915050565b60006112b883836040518060400160405280601a81526020017f536166654d6174683a206469766973696f6e206279207a65726f0000000000008152506114fa565b905092915050565b60008082840190508381101561133e576040517f08c379a000000000000000000000000000000000000000000000000000000000815260040180806020018281038252601b8152602001807f536166654d6174683a206164646974696f6e206f766572666c6f77000000000081525060200191505060405180910390fd5b8091505092915050565b6113506116ca565b600360008381526020019081526020016000206040518060600160405290816000820160009054906101000a900460ff1615151515815260200160018201548152602001600282015481525050905060008160200151146114f657806000015115611457576113ea8160200151600484815481106113ca57fe5b9060005260206000209060020201600001546112c090919063ffffffff16565b600483815481106113f757fe5b90600052602060002090600202016000018190555080604001516004838154811061141e57fe5b9060005260206000209060020201600001541061145257600060036000848152602001908152602001600020600101819055505b6114f5565b61148c81602001516004848154811061146c57fe5b9060005260206000209060020201600001546115c090919063ffffffff16565b6004838154811061149957fe5b9060005260206000209060020201600001819055508060400151600483815481106114c057fe5b906000526020600020906002020160000154116114f457600060036000848152602001908152602001600020600101819055505b5b5b5050565b600080831182906115a6576040517f08c379a00000000000000000000000000000000000000000000000000000000081526004018080602001828103825283818151815260200191508051906020019080838360005b8381101561156b578082015181840152602081019050611550565b50505050905090810190601f1680156115985780820380516001836020036101000a031916815260200191505b509250505060405180910390fd5b5060008385816115b257fe5b049050809150509392505050565b600061160283836040518060400160405280601e81526020017f536166654d6174683a207375627472616374696f6e206f766572666c6f77000081525061160a565b905092915050565b60008383111582906116b7576040517f08c379a00000000000000000000000000000000000000000000000000000000081526004018080602001828103825283818151815260200191508051906020019080838360005b8381101561167c578082015181840152602081019050611661565b50505050905090810190601f1680156116a95780820380516001836020036101000a031916815260200191505b509250505060405180910390fd5b5060008385039050809150509392505050565b60405180606001604052806000151581526020016000815260200160008152509056fe4f776e61626c653a206e6577206f776e657220697320746865207a65726f2061646472657373536166654d6174683a206d756c7469706c69636174696f6e206f766572666c6f77a2646970667358221220697f63a63fd5bfa6e25b7a641989c9a4b0ce30118b8215181b675d0151acec5b64736f6c63430007050033"}}