{"compiler":"v0.5.17+commit.d19bba13","opcodeHash":"0x361b3775c1b7cf053573277d2fdf690a41247d5af6679a4e8bb525872029f6b6","metalessHash":"0x3adad40750ec86e8ad21f1514b31b6424bab3266461ac5128f9bf3d85acc0f27","runtimeHash":"0xec33b53d8ffebc14614825cd80b2786462b1c9b221e39cdfa2115733108ddea5","encodedMetadata":[{"bzzr1":"/swarm/bzzr1/a9cf3999988d1e7414f1f6e244146bd40b996402b7fac6fc49a9d1b46531e91c","solc":"0.5.17"}],"abi":[{"inputs":[],"payable":false,"stateMutability":"nonpayable","type":"constructor"},{"constant":true,"inputs":[],"name":"DAI_ADDRESS","outputs":[{"internalType":"address","name":"","type":"address"}],"payable":false,"stateMutability":"view","type":"function"},{"constant":false,"inputs":[],"name":"acceptOwner","outputs":[],"payable":false,"stateMutability":"nonpayable","type":"function"},{"constant":false,"inputs":[{"internalType":"address payable","name":"newOwner","type":"address"}],"name":"changeOwner","outputs":[],"payable":false,"stateMutability":"nonpayable","type":"function"},{"constant":true,"inputs":[],"name":"dDAI_ADDRESS","outputs":[{"internalType":"address","name":"","type":"address"}],"payable":false,"stateMutability":"view","type":"function"},{"constant":false,"inputs":[{"internalType":"uint256","name":"amount","type":"uint256"}],"name":"getDiDai","outputs":[],"payable":false,"stateMutability":"nonpayable","type":"function"},{"constant":true,"inputs":[],"name":"owner","outputs":[{"internalType":"address payable","name":"","type":"address"}],"payable":false,"stateMutability":"view","type":"function"},{"constant":false,"inputs":[{"internalType":"address","name":"token","type":"address"},{"internalType":"uint256","name":"amount","type":"uint256"}],"name":"withdraw","outputs":[],"payable":false,"stateMutability":"nonpayable","type":"function"},{"constant":false,"inputs":[{"internalType":"address[]","name":"tokens","type":"address[]"}],"name":"withdrawAll","outputs":[],"payable":false,"stateMutability":"nonpayable","type":"function"}],"bytecode":{"object":"608060405234801561001057600080fd5b50600080546001600160a01b031990811633908117909116179055610a1c8061003a6000396000f3fe608060405234801561001057600080fd5b50600436106100885760003560e01c80638da5cb5b1161005b5780638da5cb5b1461017b578063a6f9dae114610183578063ebbc4965146101a9578063f3fef3a3146101b157610088565b806324fd91b11461008d5780632a4c0a1a146100ac5780636568a279146100d05780636f4ec6e714610173575b600080fd5b6100aa600480360360208110156100a357600080fd5b50356101dd565b005b6100b461031a565b604080516001600160a01b039092168252519081900360200190f35b6100aa600480360360208110156100e657600080fd5b81019060208101813564010000000081111561010157600080fd5b82018360208201111561011357600080fd5b8035906020019184602083028401116401000000008311171561013557600080fd5b919080806020026020016040519081016040528093929190818152602001838360200280828437600092019190915250929550610332945050505050565b6100b46103e8565b6100b4610400565b6100aa6004803603602081101561019957600080fd5b50356001600160a01b031661040f565b6100aa610484565b6100aa600480360360408110156101c757600080fd5b506001600160a01b0381351690602001356104fb565b3332146101e957600080fd5b600081116101f657600080fd5b60008054604080516323b872dd60e01b81523360048201526001600160a01b0390921660248301526044820184905251736b175474e89094c44da98b954eedeac495271d0f926323b872dd92606480820193602093909283900390910190829087803b15801561026557600080fd5b505af1158015610279573d6000803e3d6000fd5b505050506040513d602081101561028f57600080fd5b50506040805163a9059cbb60e01b815233600482015260248101839052905173facd9a6fd887855d9432f7a080911b26d9dcae019163a9059cbb9160448083019260209291908290030181600087803b1580156102eb57600080fd5b505af11580156102ff573d6000803e3d6000fd5b505050506040513d602081101561031557600080fd5b505050565b736b175474e89094c44da98b954eedeac495271d0f81565b6000546001600160a01b03163314610385576040805162461bcd60e51b815260206004820152601160248201527014195c9b5a5cdcda5bdb8819195b9a5959607a1b604482015290519081900360640190fd5b60005b81518110156103e4576103dc8282815181106103a057fe5b60200260200101516103d7308585815181106103b857fe5b60200260200101516001600160a01b03166105bb90919063ffffffff16565b6104fb565b600101610388565b5050565b73facd9a6fd887855d9432f7a080911b26d9dcae0181565b6000546001600160a01b031681565b6000546001600160a01b03163314610462576040805162461bcd60e51b815260206004820152601160248201527014195c9b5a5cdcda5bdb8819195b9a5959607a1b604482015290519081900360640190fd5b600180546001600160a01b0319166001600160a01b0392909216919091179055565b6001546001600160a01b031633146104d7576040805162461bcd60e51b815260206004820152601160248201527014195c9b5a5cdcda5bdb8819195b9a5959607a1b604482015290519081900360640190fd5b600154600080546001600160a01b0319166001600160a01b03909216919091179055565b6000546001600160a01b0316331461054e576040805162461bcd60e51b815260206004820152601160248201527014195c9b5a5cdcda5bdb8819195b9a5959607a1b604482015290519081900360640190fd5b6001600160a01b03821661059b57600080546040516001600160a01b039091169183156108fc02918491818181858888f19350505050158015610595573d6000803e3d6000fd5b506103e4565b6000546103e4906001600160a01b0384811691168363ffffffff61069016565b60006001600160a01b03831615806105ef57506001600160a01b03831673eeeeeeeeeeeeeeeeeeeeeeeeeeeeeeeeeeeeeeee145b1561060557506001600160a01b0381163161068a565b826001600160a01b03166370a08231836040518263ffffffff1660e01b815260040180826001600160a01b03166001600160a01b0316815260200191505060206040518083038186803b15801561065b57600080fd5b505afa15801561066f573d6000803e3d6000fd5b505050506040513d602081101561068557600080fd5b505190505b92915050565b61069d83838360006106a3565b50505050565b6000826106b257506001610779565b6001600160a01b03851615806106e457506001600160a01b03851673eeeeeeeeeeeeeeeeeeeeeeeeeeeeeeeeeeeeeeee145b1561075b57811561071b576040516001600160a01b0385169084156108fc029085906000818181858888f193505050509050610779565b6040516001600160a01b0385169084156108fc029085906000818181858888f19350505050158015610751573d6000803e3d6000fd5b5060019050610779565b6107756001600160a01b038616858563ffffffff61078116565b5060015b949350505050565b604080516001600160a01b038416602482015260448082018490528251808303909101815260649091019091526020810180516001600160e01b031663a9059cbb60e01b1790526103159084906107e0826001600160a01b0316610986565b610831576040805162461bcd60e51b815260206004820152601f60248201527f5361666545524332303a2063616c6c20746f206e6f6e2d636f6e747261637400604482015290519081900360640190fd5b60006060836001600160a01b0316836040518082805190602001908083835b6020831061086f5780518252601f199092019160209182019101610850565b6001836020036101000a0380198251168184511680821785525050505050509050019150506000604051808303816000865af19150503d80600081146108d1576040519150601f19603f3d011682016040523d82523d6000602084013e6108d6565b606091505b50915091508161092d576040805162461bcd60e51b815260206004820181905260248201527f5361666545524332303a206c6f772d6c6576656c2063616c6c206661696c6564604482015290519081900360640190fd5b80511561069d5780806020019051602081101561094957600080fd5b505161069d5760405162461bcd60e51b815260040180806020018281038252602a8152602001806109be602a913960400191505060405180910390fd5b6000813f7fc5d2460186f7233c927e7db2dcc703c0e500b653ca82273b7bfad8045d85a4708115801590610779575014159291505056fe5361666545524332303a204552433230206f7065726174696f6e20646964206e6f742073756363656564a265627a7a72315820bd92ed99bc8561318283f899c25f6d842e0a6138af2e7308c2f5af23a84c08ef64736f6c63430005110032"}}