{
  "opcodeHash": "0x54c2542716542a69c95967075d4ccb94c958be857c8a574dd00ce7318a062690",
  "metalessHash": "0xf915c3e2bac077cf33d63bfdf479357558534560c413ea38ed77846a9060059b",
  "runtimeHash": "0xf4703a500272bb4346a5af975686861bea713621e890e38ff861bde3fe92e00f",
  "encodedMetadata": [
    {
      "ipfs": "/ipfs/QmfGjU2peX65FbMVvaQPhqTCmrVRVettkBdGvtuct5wKoc",
      "solc": "0.8.0"
    }
  ],
  "abi": [
    {
      "inputs": [],
      "stateMutability": "nonpayable",
      "type": "constructor"
    },
    {
      "anonymous": false,
      "inputs": [
        {
          "indexed": true,
          "internalType": "address",
          "name": "previousOwner",
          "type": "address"
        },
        {
          "indexed": true,
          "internalType": "address",
          "name": "newOwner",
          "type": "address"
        }
      ],
      "name": "OwnershipTransferred",
      "type": "event"
    },
    {
      "inputs": [],
      "name": "areComicPagesRedeemable",
      "outputs": [
        {
          "internalType": "bool",
          "name": "",
          "type": "bool"
        }
      ],
      "stateMutability": "view",
      "type": "function"
    },
    {
      "inputs": [],
      "name": "flipComicRedeemableState",
      "outputs": [],
      "stateMutability": "nonpayable",
      "type": "function"
    },
    {
      "inputs": [],
      "name": "flipStakingState",
      "outputs": [],
      "stateMutability": "nonpayable",
      "type": "function"
    },
    {
      "inputs": [],
      "name": "flipUnstakingState",
      "outputs": [],
      "stateMutability": "nonpayable",
      "type": "function"
    },
    {
      "inputs": [],
      "name": "isStakingActive",
      "outputs": [
        {
          "internalType": "bool",
          "name": "",
          "type": "bool"
        }
      ],
      "stateMutability": "view",
      "type": "function"
    },
    {
      "inputs": [],
      "name": "isUnstakingActive",
      "outputs": [
        {
          "internalType": "bool",
          "name": "",
          "type": "bool"
        }
      ],
      "stateMutability": "view",
      "type": "function"
    },
    {
      "inputs": [],
      "name": "owner",
      "outputs": [
        {
          "internalType": "address",
          "name": "",
          "type": "address"
        }
      ],
      "stateMutability": "view",
      "type": "function"
    },
    {
      "inputs": [],
      "name": "redeemAllComicPages",
      "outputs": [],
      "stateMutability": "nonpayable",
      "type": "function"
    },
    {
      "inputs": [
        {
          "internalType": "uint256",
          "name": "pagesToRedeem",
          "type": "uint256"
        }
      ],
      "name": "redeemComicPages",
      "outputs": [],
      "stateMutability": "nonpayable",
      "type": "function"
    },
    {
      "inputs": [],
      "name": "renounceOwnership",
      "outputs": [],
      "stateMutability": "nonpayable",
      "type": "function"
    },
    {
      "inputs": [
        {
          "internalType": "uint256[]",
          "name": "craniumIds",
          "type": "uint256[]"
        },
        {
          "internalType": "uint256[]",
          "name": "stallionIds",
          "type": "uint256[]"
        }
      ],
      "name": "stake",
      "outputs": [],
      "stateMutability": "nonpayable",
      "type": "function"
    },
    {
      "inputs": [
        {
          "internalType": "address",
          "name": "newOwner",
          "type": "address"
        }
      ],
      "name": "transferOwnership",
      "outputs": [],
      "stateMutability": "nonpayable",
      "type": "function"
    },
    {
      "inputs": [],
      "name": "unstakeAll",
      "outputs": [],
      "stateMutability": "nonpayable",
      "type": "function"
    },
    {
      "inputs": [
        {
          "internalType": "uint256",
          "name": "totalToUnstake",
          "type": "uint256"
        }
      ],
      "name": "unstakeSome",
      "outputs": [],
      "stateMutability": "nonpayable",
      "type": "function"
    }
  ],
  "bytecode": {
    "object": "60806040527385f740958906b317de6ed79663012859067e745b600160006101000a81548173ffffffffffffffffffffffffffffffffffffffff021916908373ffffffffffffffffffffffffffffffffffffffff1602179055507345d8f7db9b437efbc74ba6a945a81aaf62dceda7600260006101000a81548173ffffffffffffffffffffffffffffffffffffffff021916908373ffffffffffffffffffffffffffffffffffffffff16021790555073a932dac13bed512aaa12975f7ad892afb120022f600360006101000a81548173ffffffffffffffffffffffffffffffffffffffff021916908373ffffffffffffffffffffffffffffffffffffffff16021790555073b8bd00aa3a8fa212e0654c7382c1c7936c9728e6600460006101000a81548173ffffffffffffffffffffffffffffffffffffffff021916908373ffffffffffffffffffffffffffffffffffffffff1602179055506000600960006101000a81548160ff0219169083151502179055506000600960016101000a81548160ff0219169083151502179055506000600960026101000a81548160ff021916908315150217905550348015620001b657600080fd5b50620001d7620001cb620001dd60201b60201c565b620001e560201b60201c565b620002a9565b600033905090565b60008060009054906101000a900473ffffffffffffffffffffffffffffffffffffffff169050816000806101000a81548173ffffffffffffffffffffffffffffffffffffffff021916908373ffffffffffffffffffffffffffffffffffffffff1602179055508173ffffffffffffffffffffffffffffffffffffffff168173ffffffffffffffffffffffffffffffffffffffff167f8be0079c531659141344cd1fd0a4f28419497f9722a3daafe3b4186f6b6457e060405160405180910390a35050565b612a4780620002b96000396000f3fe608060405234801561001057600080fd5b50600436106100ea5760003560e01c8063715018a61161008c578063d2fbbbc811610066578063d2fbbbc8146101b3578063d9d3e39b146101d1578063e683ad44146101db578063f2fde38b146101f7576100ea565b8063715018a61461016f5780638da5cb5b14610179578063cb7cac1914610197576100ea565b806335322f37116100c857806335322f371461011f5780635be5c3f91461012957806361f64457146101475780636c342c1b14610165576100ea565b80631c09e3bd146100ef5780631f1575ba1461010b5780631f3e1b6c14610115575b600080fd5b61010960048036038101906101049190611ee4565b610213565b005b610113610740565b005b61011d6107e8565b005b610127610a02565b005b610131610f1c565b60405161013e91906125c6565b60405180910390f35b61014f610f2f565b60405161015c91906125c6565b60405180910390f35b61016d610f42565b005b610177610fea565b005b610181611072565b60405161018e9190612574565b60405180910390f35b6101b160048036038101906101ac9190611ee4565b61109b565b005b6101bb6112b4565b6040516101c891906125c6565b60405180910390f35b6101d96112c7565b005b6101f560048036038101906101f09190611e78565b61136f565b005b610211600480360381019061020c9190611e26565b611b8d565b005b600960029054906101000a900460ff16610262576040517f08c379a000000000000000000000000000000000000000000000000000000000815260040161025990612681565b60405180910390fd5b600081116102a5576040517f08c379a000000000000000000000000000000000000000000000000000000000815260040161029c90612741565b60405180910390fd5b600860003373ffffffffffffffffffffffffffffffffffffffff1673ffffffffffffffffffffffffffffffffffffffff16815260200190815260200160002054600660003373ffffffffffffffffffffffffffffffffffffffff1673ffffffffffffffffffffffffffffffffffffffff1681526020019081526020016000208054905061033291906128c0565b811115610374576040517f08c379a000000000000000000000000000000000000000000000000000000000815260040161036b906125e1565b60405180910390fd5b6000600660003373ffffffffffffffffffffffffffffffffffffffff1673ffffffffffffffffffffffffffffffffffffffff1681526020019081526020016000208054806020026020016040519081016040528092919081815260200182805480156103ff57602002820191906000526020600020905b8154815260200190600101908083116103eb575b505050505090506000600760003373ffffffffffffffffffffffffffffffffffffffff1673ffffffffffffffffffffffffffffffffffffffff16815260200190815260200160002080548060200260200160405190810160405280929190818152602001828054801561049157602002820191906000526020600020905b81548152602001906001019080831161047d575b505050505090506000600860003373ffffffffffffffffffffffffffffffffffffffff1673ffffffffffffffffffffffffffffffffffffffff1681526020019081526020016000205490505b83600860003373ffffffffffffffffffffffffffffffffffffffff1673ffffffffffffffffffffffffffffffffffffffff16815260200190815260200160002054610528919061286a565b8110156106e457600160009054906101000a900473ffffffffffffffffffffffffffffffffffffffff1673ffffffffffffffffffffffffffffffffffffffff166323b872dd30338685815181106105a8577f4e487b7100000000000000000000000000000000000000000000000000000000600052603260045260246000fd5b60200260200101516040518463ffffffff1660e01b81526004016105ce9392919061258f565b600060405180830381600087803b1580156105e857600080fd5b505af11580156105fc573d6000803e3d6000fd5b50505050600260009054906101000a900473ffffffffffffffffffffffffffffffffffffffff1673ffffffffffffffffffffffffffffffffffffffff166323b872dd3033858581518110610679577f4e487b7100000000000000000000000000000000000000000000000000000000600052603260045260246000fd5b60200260200101516040518463ffffffff1660e01b815260040161069f9392919061258f565b600060405180830381600087803b1580156106b957600080fd5b505af11580156106cd573d6000803e3d6000fd5b5050505080806106dc9061293c565b9150506104dd565b5082600860003373ffffffffffffffffffffffffffffffffffffffff1673ffffffffffffffffffffffffffffffffffffffff1681526020019081526020016000206000828254610734919061286a565b92505081905550505050565b610748611c85565b73ffffffffffffffffffffffffffffffffffffffff16610766611072565b73ffffffffffffffffffffffffffffffffffffffff16146107bc576040517f08c379a00000000000000000000000000000000000000000000000000000000081526004016107b3906126e1565b60405180910390fd5b600960029054906101000a900460ff1615600960026101000a81548160ff021916908315150217905550565b600960019054906101000a900460ff16610837576040517f08c379a000000000000000000000000000000000000000000000000000000000815260040161082e906126a1565b60405180910390fd5b6000600560003373ffffffffffffffffffffffffffffffffffffffff1673ffffffffffffffffffffffffffffffffffffffff16815260200190815260200160002054116108b9576040517f08c379a00000000000000000000000000000000000000000000000000000000081526004016108b090612601565b60405180910390fd5b6000600560003373ffffffffffffffffffffffffffffffffffffffff1673ffffffffffffffffffffffffffffffffffffffff16815260200190815260200160002054905060005b818110156109a857600360009054906101000a900473ffffffffffffffffffffffffffffffffffffffff1673ffffffffffffffffffffffffffffffffffffffff166340d097c3336040518263ffffffff1660e01b81526004016109639190612574565b600060405180830381600087803b15801561097d57600080fd5b505af1158015610991573d6000803e3d6000fd5b5050505080806109a09061293c565b915050610900565b5080600560003373ffffffffffffffffffffffffffffffffffffffff1673ffffffffffffffffffffffffffffffffffffffff16815260200190815260200160002060008282546109f891906128c0565b9250508190555050565b600960029054906101000a900460ff16610a51576040517f08c379a0000000000000000000000000000000000000000000000000000000008152600401610a4890612681565b60405180910390fd5b6000600660003373ffffffffffffffffffffffffffffffffffffffff1673ffffffffffffffffffffffffffffffffffffffff1681526020019081526020016000208054905011610ad6576040517f08c379a0000000000000000000000000000000000000000000000000000000008152600401610acd906127a1565b60405180910390fd5b600660003373ffffffffffffffffffffffffffffffffffffffff1673ffffffffffffffffffffffffffffffffffffffff16815260200190815260200160002080549050600860003373ffffffffffffffffffffffffffffffffffffffff1673ffffffffffffffffffffffffffffffffffffffff1681526020019081526020016000205410610b99576040517f08c379a0000000000000000000000000000000000000000000000000000000008152600401610b9090612701565b60405180910390fd5b6000600660003373ffffffffffffffffffffffffffffffffffffffff1673ffffffffffffffffffffffffffffffffffffffff168152602001908152602001600020805480602002602001604051908101604052809291908181526020018280548015610c2457602002820191906000526020600020905b815481526020019060010190808311610c10575b505050505090506000600760003373ffffffffffffffffffffffffffffffffffffffff1673ffffffffffffffffffffffffffffffffffffffff168152602001908152602001600020805480602002602001604051908101604052809291908181526020018280548015610cb657602002820191906000526020600020905b815481526020019060010190808311610ca2575b505050505090506000600860003373ffffffffffffffffffffffffffffffffffffffff1673ffffffffffffffffffffffffffffffffffffffff1681526020019081526020016000205490505b8251811015610ec057600160009054906101000a900473ffffffffffffffffffffffffffffffffffffffff1673ffffffffffffffffffffffffffffffffffffffff166323b872dd3033868581518110610d84577f4e487b7100000000000000000000000000000000000000000000000000000000600052603260045260246000fd5b60200260200101516040518463ffffffff1660e01b8152600401610daa9392919061258f565b600060405180830381600087803b158015610dc457600080fd5b505af1158015610dd8573d6000803e3d6000fd5b50505050600260009054906101000a900473ffffffffffffffffffffffffffffffffffffffff1673ffffffffffffffffffffffffffffffffffffffff166323b872dd3033858581518110610e55577f4e487b7100000000000000000000000000000000000000000000000000000000600052603260045260246000fd5b60200260200101516040518463ffffffff1660e01b8152600401610e7b9392919061258f565b600060405180830381600087803b158015610e9557600080fd5b505af1158015610ea9573d6000803e3d6000fd5b505050508080610eb89061293c565b915050610d02565b508151600860003373ffffffffffffffffffffffffffffffffffffffff1673ffffffffffffffffffffffffffffffffffffffff1681526020019081526020016000206000828254610f11919061286a565b925050819055505050565b600960019054906101000a900460ff1681565b600960009054906101000a900460ff1681565b610f4a611c85565b73ffffffffffffffffffffffffffffffffffffffff16610f68611072565b73ffffffffffffffffffffffffffffffffffffffff1614610fbe576040517f08c379a0000000000000000000000000000000000000000000000000000000008152600401610fb5906126e1565b60405180910390fd5b600960019054906101000a900460ff1615600960016101000a81548160ff021916908315150217905550565b610ff2611c85565b73ffffffffffffffffffffffffffffffffffffffff16611010611072565b73ffffffffffffffffffffffffffffffffffffffff1614611066576040517f08c379a000000000000000000000000000000000000000000000000000000000815260040161105d906126e1565b60405180910390fd5b6110706000611c8d565b565b60008060009054906101000a900473ffffffffffffffffffffffffffffffffffffffff16905090565b600960019054906101000a900460ff166110ea576040517f08c379a00000000000000000000000000000000000000000000000000000000081526004016110e1906126a1565b60405180910390fd5b6000811161112d576040517f08c379a000000000000000000000000000000000000000000000000000000000815260040161112490612661565b60405180910390fd5b600560003373ffffffffffffffffffffffffffffffffffffffff1673ffffffffffffffffffffffffffffffffffffffff168152602001908152602001600020548111156111af576040517f08c379a00000000000000000000000000000000000000000000000000000000081526004016111a690612781565b60405180910390fd5b60005b8181101561125a57600360009054906101000a900473ffffffffffffffffffffffffffffffffffffffff1673ffffffffffffffffffffffffffffffffffffffff166340d097c3336040518263ffffffff1660e01b81526004016112159190612574565b600060405180830381600087803b15801561122f57600080fd5b505af1158015611243573d6000803e3d6000fd5b5050505080806112529061293c565b9150506111b2565b5080600560003373ffffffffffffffffffffffffffffffffffffffff1673ffffffffffffffffffffffffffffffffffffffff16815260200190815260200160002060008282546112aa91906128c0565b9250508190555050565b600960029054906101000a900460ff1681565b6112cf611c85565b73ffffffffffffffffffffffffffffffffffffffff166112ed611072565b73ffffffffffffffffffffffffffffffffffffffff1614611343576040517f08c379a000000000000000000000000000000000000000000000000000000000815260040161133a906126e1565b60405180910390fd5b600960009054906101000a900460ff1615600960006101000a81548160ff021916908315150217905550565b600960009054906101000a900460ff166113be576040517f08c379a00000000000000000000000000000000000000000000000000000000081526004016113b590612721565b60405180910390fd5b8051825114611402576040517f08c379a00000000000000000000000000000000000000000000000000000000081526004016113f9906126c1565b60405180910390fd5b600182511015611447576040517f08c379a000000000000000000000000000000000000000000000000000000000815260040161143e906127c1565b60405180910390fd5b60005b82518110156115be573373ffffffffffffffffffffffffffffffffffffffff16600160009054906101000a900473ffffffffffffffffffffffffffffffffffffffff1673ffffffffffffffffffffffffffffffffffffffff16636352211e8584815181106114e1577f4e487b7100000000000000000000000000000000000000000000000000000000600052603260045260246000fd5b60200260200101516040518263ffffffff1660e01b815260040161150591906127e1565b60206040518083038186803b15801561151d57600080fd5b505afa158015611531573d6000803e3d6000fd5b505050506040513d601f19601f820116820180604052508101906115559190611e4f565b73ffffffffffffffffffffffffffffffffffffffff16146115ab576040517f08c379a00000000000000000000000000000000000000000000000000000000081526004016115a290612761565b60405180910390fd5b80806115b69061293c565b91505061144a565b5060005b8151811015611736573373ffffffffffffffffffffffffffffffffffffffff16600260009054906101000a900473ffffffffffffffffffffffffffffffffffffffff1673ffffffffffffffffffffffffffffffffffffffff16636352211e848481518110611659577f4e487b7100000000000000000000000000000000000000000000000000000000600052603260045260246000fd5b60200260200101516040518263ffffffff1660e01b815260040161167d91906127e1565b60206040518083038186803b15801561169557600080fd5b505afa1580156116a9573d6000803e3d6000fd5b505050506040513d601f19601f820116820180604052508101906116cd9190611e4f565b73ffffffffffffffffffffffffffffffffffffffff1614611723576040517f08c379a000000000000000000000000000000000000000000000000000000000815260040161171a90612641565b60405180910390fd5b808061172e9061293c565b9150506115c2565b5060005b825181101561182757600160009054906101000a900473ffffffffffffffffffffffffffffffffffffffff1673ffffffffffffffffffffffffffffffffffffffff166323b872dd33308685815181106117bc577f4e487b7100000000000000000000000000000000000000000000000000000000600052603260045260246000fd5b60200260200101516040518463ffffffff1660e01b81526004016117e29392919061258f565b600060405180830381600087803b1580156117fc57600080fd5b505af1158015611810573d6000803e3d6000fd5b50505050808061181f9061293c565b91505061173a565b5060005b815181101561191857600260009054906101000a900473ffffffffffffffffffffffffffffffffffffffff1673ffffffffffffffffffffffffffffffffffffffff166323b872dd33308585815181106118ad577f4e487b7100000000000000000000000000000000000000000000000000000000600052603260045260246000fd5b60200260200101516040518463ffffffff1660e01b81526004016118d39392919061258f565b600060405180830381600087803b1580156118ed57600080fd5b505af1158015611901573d6000803e3d6000fd5b5050505080806119109061293c565b91505061182b565b5060005b82518110156119c557600460009054906101000a900473ffffffffffffffffffffffffffffffffffffffff1673ffffffffffffffffffffffffffffffffffffffff166340d097c3336040518263ffffffff1660e01b81526004016119809190612574565b600060405180830381600087803b15801561199a57600080fd5b505af11580156119ae573d6000803e3d6000fd5b5050505080806119bd9061293c565b91505061191c565b508151600560003373ffffffffffffffffffffffffffffffffffffffff1673ffffffffffffffffffffffffffffffffffffffff1681526020019081526020016000206000828254611a16919061286a565b9250508190555060005b8251811015611b8857600660003373ffffffffffffffffffffffffffffffffffffffff1673ffffffffffffffffffffffffffffffffffffffff168152602001908152602001600020838281518110611aa1577f4e487b7100000000000000000000000000000000000000000000000000000000600052603260045260246000fd5b60200260200101519080600181540180825580915050600190039060005260206000200160009091909190915055600760003373ffffffffffffffffffffffffffffffffffffffff1673ffffffffffffffffffffffffffffffffffffffff168152602001908152602001600020828281518110611b47577f4e487b7100000000000000000000000000000000000000000000000000000000600052603260045260246000fd5b602002602001015190806001815401808255809150506001900390600052602060002001600090919091909150558080611b809061293c565b915050611a20565b505050565b611b95611c85565b73ffffffffffffffffffffffffffffffffffffffff16611bb3611072565b73ffffffffffffffffffffffffffffffffffffffff1614611c09576040517f08c379a0000000000000000000000000000000000000000000000000000000008152600401611c00906126e1565b60405180910390fd5b600073ffffffffffffffffffffffffffffffffffffffff168173ffffffffffffffffffffffffffffffffffffffff161415611c79576040517f08c379a0000000000000000000000000000000000000000000000000000000008152600401611c7090612621565b60405180910390fd5b611c8281611c8d565b50565b600033905090565b60008060009054906101000a900473ffffffffffffffffffffffffffffffffffffffff169050816000806101000a81548173ffffffffffffffffffffffffffffffffffffffff021916908373ffffffffffffffffffffffffffffffffffffffff1602179055508173ffffffffffffffffffffffffffffffffffffffff168173ffffffffffffffffffffffffffffffffffffffff167f8be0079c531659141344cd1fd0a4f28419497f9722a3daafe3b4186f6b6457e060405160405180910390a35050565b6000611d64611d5f8461282d565b6127fc565b90508083825260208201905082856020860282011115611d8357600080fd5b60005b85811015611db35781611d998882611e11565b845260208401935060208301925050600181019050611d86565b5050509392505050565b600081359050611dcc816129e3565b92915050565b600081519050611de1816129e3565b92915050565b600082601f830112611df857600080fd5b8135611e08848260208601611d51565b91505092915050565b600081359050611e20816129fa565b92915050565b600060208284031215611e3857600080fd5b6000611e4684828501611dbd565b91505092915050565b600060208284031215611e6157600080fd5b6000611e6f84828501611dd2565b91505092915050565b60008060408385031215611e8b57600080fd5b600083013567ffffffffffffffff811115611ea557600080fd5b611eb185828601611de7565b925050602083013567ffffffffffffffff811115611ece57600080fd5b611eda85828601611de7565b9150509250929050565b600060208284031215611ef657600080fd5b6000611f0484828501611e11565b91505092915050565b611f16816128f4565b82525050565b611f2581612906565b82525050565b6000611f38603b83612859565b91507f756e7374616b65536f6d653a20746f74616c546f556e7374616b65203c3d207460008301527f6f74616c207374616b6564202d20756e7374616b6564496e64657800000000006020830152604082019050919050565b6000611f9e604483612859565b91507f72656465656d416c6c436f6d696350616765733a20706167657320756e72656460008301527f65656d656420666f72207468697320616464726573732073686f756c6420626560208301527f203e2030000000000000000000000000000000000000000000000000000000006040830152606082019050919050565b600061202a602683612859565b91507f4f776e61626c653a206e6577206f776e657220697320746865207a65726f206160008301527f64647265737300000000000000000000000000000000000000000000000000006020830152604082019050919050565b6000612090603c83612859565b91507f7374616b653a206d73672e73656e646572206d75737420626520746865206f7760008301527f6e6572206f6620616c6c205374616c6c696f6e73207374616b65642e000000006020830152604082019050919050565b60006120f6603683612859565b91507f72656465656d436f6d696350616765733a2043616e206f6e6c7920726571756560008301527f737420746f2072656465656d203e2030207061676573000000000000000000006020830152604082019050919050565b600061215c601783612859565b91507f756e7374616b696e67206973206e6f74206163746976650000000000000000006000830152602082019050919050565b600061219c602383612859565b91507f72656465656d696e6720636f6d6963207061676573206973206e6f742061637460008301527f69766500000000000000000000000000000000000000000000000000000000006020830152604082019050919050565b6000612202605783612859565b91507f7374616b653a20546f74616c206e756d626572206f66204372616e69756d732060008301527f7374616b6564206d757374206d617463682074686520746f74616c206e756d6260208301527f6572206f66205374616c6c696f6e73207374616b65642e0000000000000000006040830152606082019050919050565b600061228e602083612859565b91507f4f776e61626c653a2063616c6c6572206973206e6f7420746865206f776e65726000830152602082019050919050565b60006122ce603883612859565b91507f756e7374616b65416c6c3a20756e7374616b6520696e646578206d757374206260008301527f65206c657373207468616e20746f74616c207374616b656400000000000000006020830152604082019050919050565b6000612334601d83612859565b91507f7374616b653a207374616b696e67206d757374206265206163746976650000006000830152602082019050919050565b6000612374601e83612859565b91507f63616e6e6f7420756e7374616b652030206f72206c65737320706169727300006000830152602082019050919050565b60006123b4603b83612859565b91507f7374616b653a206d73672e73656e646572206d75737420626520746865206f7760008301527f6e6572206f6620616c6c204372616e69756d73207374616b65642e00000000006020830152604082019050919050565b600061241a604e83612859565b91507f72656465656d436f6d696350616765733a20706167657320746f20726564656560008301527f6d206d757374206265203c3d20706167657320756e72656465656d656420666f60208301527f72207468697320616464726573730000000000000000000000000000000000006040830152606082019050919050565b60006124a6603a83612859565b91507f756e7374616b65416c6c3a206372616e69756d73207374616b656420666f722060008301527f7468697320616464726573732073686f756c64206265203e20300000000000006020830152604082019050919050565b600061250c603a83612859565b91507f7374616b653a2031206f72206d6f7265207b4372616e69756d2c205374616c6c60008301527f696f6e7d207061697273206d757374206265207374616b65642e0000000000006020830152604082019050919050565b61256e81612932565b82525050565b60006020820190506125896000830184611f0d565b92915050565b60006060820190506125a46000830186611f0d565b6125b16020830185611f0d565b6125be6040830184612565565b949350505050565b60006020820190506125db6000830184611f1c565b92915050565b600060208201905081810360008301526125fa81611f2b565b9050919050565b6000602082019050818103600083015261261a81611f91565b9050919050565b6000602082019050818103600083015261263a8161201d565b9050919050565b6000602082019050818103600083015261265a81612083565b9050919050565b6000602082019050818103600083015261267a816120e9565b9050919050565b6000602082019050818103600083015261269a8161214f565b9050919050565b600060208201905081810360008301526126ba8161218f565b9050919050565b600060208201905081810360008301526126da816121f5565b9050919050565b600060208201905081810360008301526126fa81612281565b9050919050565b6000602082019050818103600083015261271a816122c1565b9050919050565b6000602082019050818103600083015261273a81612327565b9050919050565b6000602082019050818103600083015261275a81612367565b9050919050565b6000602082019050818103600083015261277a816123a7565b9050919050565b6000602082019050818103600083015261279a8161240d565b9050919050565b600060208201905081810360008301526127ba81612499565b9050919050565b600060208201905081810360008301526127da816124ff565b9050919050565b60006020820190506127f66000830184612565565b92915050565b6000604051905081810181811067ffffffffffffffff82111715612823576128226129b4565b5b8060405250919050565b600067ffffffffffffffff821115612848576128476129b4565b5b602082029050602081019050919050565b600082825260208201905092915050565b600061287582612932565b915061288083612932565b9250827fffffffffffffffffffffffffffffffffffffffffffffffffffffffffffffffff038211156128b5576128b4612985565b5b828201905092915050565b60006128cb82612932565b91506128d683612932565b9250828210156128e9576128e8612985565b5b828203905092915050565b60006128ff82612912565b9050919050565b60008115159050919050565b600073ffffffffffffffffffffffffffffffffffffffff82169050919050565b6000819050919050565b600061294782612932565b91507fffffffffffffffffffffffffffffffffffffffffffffffffffffffffffffffff82141561297a57612979612985565b5b600182019050919050565b7f4e487b7100000000000000000000000000000000000000000000000000000000600052601160045260246000fd5b7f4e487b7100000000000000000000000000000000000000000000000000000000600052604160045260246000fd5b6129ec816128f4565b81146129f757600080fd5b50565b612a0381612932565b8114612a0e57600080fd5b5056fea26469706673582212205186a880a68212e54b7e3dba4be00bcbf0e772ec18b6443031b1d64893ce4b8764736f6c63430008000033"
  }
}