{"compiler":"v0.6.12+commit.27d51765","opcodeHash":"0x2b0b6fc8256eb617e46adfe729d1d159906cb07b84ca83c6cadf3a47a315ba7d","metalessHash":"0x2e1cc1acab2b611a670ed21ba92dd5e1f80baa76e3444a3d5ac69c6972c50c64","runtimeHash":"0xa7ef80dbfe46e62727be9e2b706a8678512bba358fe1d8238df7da81d5c33dae","encodedMetadata":[{"ipfs":"/ipfs/QmdFAsYCg8LmcH5kovHwLWGGPcc5RftNNZYs4Qm6QUjjYr","solc":"0.6.12"}],"abi":[{"inputs":[{"internalType":"address","name":"_feeReceiver","type":"address"}],"stateMutability":"nonpayable","type":"constructor"},{"anonymous":false,"inputs":[{"indexed":true,"internalType":"address","name":"previousOwner","type":"address"},{"indexed":true,"internalType":"address","name":"newOwner","type":"address"}],"name":"OwnershipTransferred","type":"event"},{"inputs":[],"name":"coin","outputs":[{"internalType":"address","name":"","type":"address"}],"stateMutability":"view","type":"function"},{"inputs":[],"name":"enabled","outputs":[{"internalType":"bool","name":"","type":"bool"}],"stateMutability":"view","type":"function"},{"inputs":[],"name":"feeReceiver","outputs":[{"internalType":"address","name":"","type":"address"}],"stateMutability":"view","type":"function"},{"inputs":[],"name":"owner","outputs":[{"internalType":"address","name":"","type":"address"}],"stateMutability":"view","type":"function"},{"inputs":[],"name":"paused","outputs":[{"internalType":"bool","name":"","type":"bool"}],"stateMutability":"view","type":"function"},{"inputs":[],"name":"priceOracle","outputs":[{"internalType":"address","name":"","type":"address"}],"stateMutability":"view","type":"function"},{"inputs":[{"internalType":"address","name":"sender","type":"address"},{"internalType":"address","name":"receiver","type":"address"},{"internalType":"uint256","name":"amount","type":"uint256"}],"name":"queryFee","outputs":[{"internalType":"address","name":"_feeReceiver","type":"address"},{"internalType":"uint256","name":"_feeAmount","type":"uint256"}],"stateMutability":"nonpayable","type":"function"},{"inputs":[],"name":"renounceOwnership","outputs":[],"stateMutability":"nonpayable","type":"function"},{"inputs":[{"internalType":"contract IERC20","name":"_token","type":"address"}],"name":"rescueToken","outputs":[],"stateMutability":"nonpayable","type":"function"},{"inputs":[{"internalType":"address","name":"_coin","type":"address"}],"name":"setCoin","outputs":[],"stateMutability":"nonpayable","type":"function"},{"inputs":[{"internalType":"address","name":"_receiver","type":"address"}],"name":"setFeeReceiver","outputs":[],"stateMutability":"nonpayable","type":"function"},{"inputs":[{"internalType":"address","name":"_oracle","type":"address"}],"name":"setOracle","outputs":[],"stateMutability":"nonpayable","type":"function"},{"inputs":[{"internalType":"bool","name":"_isPaused","type":"bool"}],"name":"setPaused","outputs":[],"stateMutability":"nonpayable","type":"function"},{"inputs":[{"internalType":"bool","name":"_enabled","type":"bool"}],"name":"setStatus","outputs":[],"stateMutability":"nonpayable","type":"function"},{"inputs":[{"internalType":"address","name":"_pair","type":"address"},{"internalType":"bool","name":"_isPair","type":"bool"}],"name":"setUniPair","outputs":[],"stateMutability":"nonpayable","type":"function"},{"inputs":[{"internalType":"address","name":"newOwner","type":"address"}],"name":"transferOwnership","outputs":[],"stateMutability":"nonpayable","type":"function"},{"stateMutability":"payable","type":"receive"}],"bytecode":{"object":"608060405234801561001057600080fd5b5060405161104a38038061104a8339818101604052602081101561003357600080fd5b5051600061003f6100ae565b600080546001600160a01b0319166001600160a01b0383169081178255604051929350917f8be0079c531659141344cd1fd0a4f28419497f9722a3daafe3b4186f6b6457e0908290a350600180546001600160a01b0319166001600160a01b03929092169190911790556100b2565b3390565b610f89806100c16000396000f3fe6080604052600436106100f75760003560e01c80635c975abb1161008a5780638da5cb5b116100595780638da5cb5b14610371578063b3f0067414610386578063efdcd9741461039b578063f2fde38b146103ce5761013f565b80635c975abb146102e1578063715018a6146102f65780637adbf9731461030b57806382e46b751461033e5761013f565b80632630c12f116100c65780632630c12f146102075780634460d3cf1461021c57806354895ec11461024f5780635c40f6f4146102b55761013f565b80630b1c71821461014457806311df99951461018157806316c38b3c146101b2578063238dafe0146101de5761013f565b3661013f57610104610401565b6001600160a01b03166108fc349081150290604051600060405180830381858888f1935050505015801561013c573d6000803e3d6000fd5b50005b600080fd5b34801561015057600080fd5b5061017f6004803603604081101561016757600080fd5b506001600160a01b0381351690602001351515610410565b005b34801561018d57600080fd5b50610196610493565b604080516001600160a01b039092168252519081900360200190f35b3480156101be57600080fd5b5061017f600480360360208110156101d557600080fd5b503515156104a2565b3480156101ea57600080fd5b506101f3610518565b604080519115158252519081900360200190f35b34801561021357600080fd5b50610196610528565b34801561022857600080fd5b5061017f6004803603602081101561023f57600080fd5b50356001600160a01b0316610537565b34801561025b57600080fd5b506102926004803603606081101561027257600080fd5b506001600160a01b03813581169160208101359091169060400135610681565b604080516001600160a01b03909316835260208301919091528051918290030190f35b3480156102c157600080fd5b5061017f600480360360208110156102d857600080fd5b50351515610943565b3480156102ed57600080fd5b506101f36109b9565b34801561030257600080fd5b5061017f6109c9565b34801561031757600080fd5b5061017f6004803603602081101561032e57600080fd5b50356001600160a01b0316610a6b565b34801561034a57600080fd5b5061017f6004803603602081101561036157600080fd5b50356001600160a01b0316610ae5565b34801561037d57600080fd5b50610196610401565b34801561039257600080fd5b50610196610b5f565b3480156103a757600080fd5b5061017f600480360360208110156103be57600080fd5b50356001600160a01b0316610b6e565b3480156103da57600080fd5b5061017f600480360360208110156103f157600080fd5b50356001600160a01b0316610be8565b6000546001600160a01b031690565b610418610ce0565b6000546001600160a01b03908116911614610468576040805162461bcd60e51b81526020600482018190526024820152600080516020610f34833981519152604482015290519081900360640190fd5b6001600160a01b03919091166000908152600460205260409020805460ff1916911515919091179055565b6002546001600160a01b031681565b6104aa610ce0565b6000546001600160a01b039081169116146104fa576040805162461bcd60e51b81526020600482018190526024820152600080516020610f34833981519152604482015290519081900360640190fd5b60038054911515600160a01b0260ff60a01b19909216919091179055565b600354600160a81b900460ff1681565b6003546001600160a01b031681565b61053f610ce0565b6000546001600160a01b0390811691161461058f576040805162461bcd60e51b81526020600482018190526024820152600080516020610f34833981519152604482015290519081900360640190fd5b806001600160a01b031663a9059cbb33836001600160a01b03166370a08231306040518263ffffffff1660e01b815260040180826001600160a01b0316815260200191505060206040518083038186803b1580156105ec57600080fd5b505afa158015610600573d6000803e3d6000fd5b505050506040513d602081101561061657600080fd5b5051604080516001600160e01b031960e086901b1681526001600160a01b039093166004840152602483019190915251604480830192600092919082900301818387803b15801561066657600080fd5b505af115801561067a573d6000803e3d6000fd5b5050505050565b6003546000908190600160a01b900460ff16156106e5576040805162461bcd60e51b815260206004820152601c60248201527f4665654d616e616765723a205472616e73666572732070617573656400000000604482015290519081900360640190fd5b6001600160a01b03851661072a5760405162461bcd60e51b8152600401808060200182810382526026815260200180610eed6026913960400191505060405180910390fd5b600354600160a81b900460ff161561092a57600360009054906101000a90046001600160a01b03166001600160a01b031663c5967c266040518163ffffffff1660e01b815260040160206040518083038186803b15801561078a57600080fd5b505afa15801561079e573d6000803e3d6000fd5b505050506040513d60208110156107b457600080fd5b505142111561082657600360009054906101000a90046001600160a01b03166001600160a01b031663a2e620456040518163ffffffff1660e01b8152600401600060405180830381600087803b15801561080d57600080fd5b505af1158015610821573d6000803e3d6000fd5b505050505b60035460025460408051633ddac95360e01b81526001600160a01b039283166004820152670de0b6b3a7640000602482015290516000939290921691633ddac95391604480820192602092909190829003018186803b15801561088857600080fd5b505afa15801561089c573d6000803e3d6000fd5b505050506040513d60208110156108b257600080fd5b50516001546001600160a01b038781166000908152600460205260409020549116945090915060ff161561092457670d99a8cec7e2000081106108f85760009150610924565b670de0b6b3a764000091506109218261091b6109148285610ce4565b8790610d2f565b90610d88565b91505b5061093b565b50506001546001600160a01b031660005b935093915050565b61094b610ce0565b6000546001600160a01b0390811691161461099b576040805162461bcd60e51b81526020600482018190526024820152600080516020610f34833981519152604482015290519081900360640190fd5b60038054911515600160a81b0260ff60a81b19909216919091179055565b600354600160a01b900460ff1681565b6109d1610ce0565b6000546001600160a01b03908116911614610a21576040805162461bcd60e51b81526020600482018190526024820152600080516020610f34833981519152604482015290519081900360640190fd5b600080546040516001600160a01b03909116907f8be0079c531659141344cd1fd0a4f28419497f9722a3daafe3b4186f6b6457e0908390a3600080546001600160a01b0319169055565b610a73610ce0565b6000546001600160a01b03908116911614610ac3576040805162461bcd60e51b81526020600482018190526024820152600080516020610f34833981519152604482015290519081900360640190fd5b600380546001600160a01b0319166001600160a01b0392909216919091179055565b610aed610ce0565b6000546001600160a01b03908116911614610b3d576040805162461bcd60e51b81526020600482018190526024820152600080516020610f34833981519152604482015290519081900360640190fd5b600280546001600160a01b0319166001600160a01b0392909216919091179055565b6001546001600160a01b031681565b610b76610ce0565b6000546001600160a01b03908116911614610bc6576040805162461bcd60e51b81526020600482018190526024820152600080516020610f34833981519152604482015290519081900360640190fd5b600180546001600160a01b0319166001600160a01b0392909216919091179055565b610bf0610ce0565b6000546001600160a01b03908116911614610c40576040805162461bcd60e51b81526020600482018190526024820152600080516020610f34833981519152604482015290519081900360640190fd5b6001600160a01b038116610c855760405162461bcd60e51b8152600401808060200182810382526026815260200180610ec76026913960400191505060405180910390fd5b600080546040516001600160a01b03808516939216917f8be0079c531659141344cd1fd0a4f28419497f9722a3daafe3b4186f6b6457e091a3600080546001600160a01b0319166001600160a01b0392909216919091179055565b3390565b6000610d2683836040518060400160405280601e81526020017f536166654d6174683a207375627472616374696f6e206f766572666c6f770000815250610dca565b90505b92915050565b600082610d3e57506000610d29565b82820282848281610d4b57fe5b0414610d265760405162461bcd60e51b8152600401808060200182810382526021815260200180610f136021913960400191505060405180910390fd5b6000610d2683836040518060400160405280601a81526020017f536166654d6174683a206469766973696f6e206279207a65726f000000000000815250610e61565b60008184841115610e595760405162461bcd60e51b81526004018080602001828103825283818151815260200191508051906020019080838360005b83811015610e1e578181015183820152602001610e06565b50505050905090810190601f168015610e4b5780820380516001836020036101000a031916815260200191505b509250505060405180910390fd5b505050900390565b60008183610eb05760405162461bcd60e51b8152602060048201818152835160248401528351909283926044909101919085019080838360008315610e1e578181015183820152602001610e06565b506000838581610ebc57fe5b049594505050505056fe4f776e61626c653a206e6577206f776e657220697320746865207a65726f20616464726573734665654d616e616765723a205472616e736665722066726f6d207a65726f2061646472657373536166654d6174683a206d756c7469706c69636174696f6e206f766572666c6f774f776e61626c653a2063616c6c6572206973206e6f7420746865206f776e6572a2646970667358221220ce717245a8f135692e45797027d9bc3d76ff55011bd69623abd0d778515efc6d64736f6c634300060c0033"}}