{"compiler":"v0.5.12+commit.7709ece9","opcodeHash":"0xfad975281c3409fcaa7c223db10d4b3dc7727cf290bcebf4591c40ffec3ef973","metalessHash":"0x4039c55d9a9c55af01e7b700464f4e788496f9b764f0cb85d30f418e12d9ff2b","runtimeHash":"0x332856890ca41b518cf558bf9c2a5fc82a8372b0af02858040c75564afcc66fe","encodedMetadata":[{"bzzr1":"/swarm/bzzr1/3b3d478839cfc3810bca3d74a0f3e48d7c191071be2b172cbaa2c87f4b97682c","solc":"0.5.12"}],"abi":[{"inputs":[{"internalType":"address","name":"mToken","type":"address"},{"internalType":"string","name":"mName","type":"string"}],"payable":false,"stateMutability":"nonpayable","type":"constructor"},{"anonymous":false,"inputs":[{"indexed":true,"internalType":"address","name":"previousOwner","type":"address"},{"indexed":true,"internalType":"address","name":"newOwner","type":"address"}],"name":"OwnershipTransferred","type":"event"},{"anonymous":false,"inputs":[{"indexed":false,"internalType":"bytes32","name":"_paymentId","type":"bytes32"}],"name":"Payment","type":"event"},{"constant":true,"inputs":[],"name":"mintableToken","outputs":[{"internalType":"address","name":"","type":"address"}],"payable":false,"stateMutability":"view","type":"function"},{"constant":false,"inputs":[{"internalType":"address","name":"_tokenAddr","type":"address"},{"internalType":"bytes32","name":"paymentId","type":"bytes32"},{"internalType":"address[]","name":"dests","type":"address[]"},{"internalType":"uint256[]","name":"values","type":"uint256[]"}],"name":"multisend","outputs":[{"internalType":"uint256","name":"","type":"uint256"}],"payable":false,"stateMutability":"nonpayable","type":"function"},{"constant":true,"inputs":[],"name":"name","outputs":[{"internalType":"string","name":"","type":"string"}],"payable":false,"stateMutability":"view","type":"function"},{"constant":true,"inputs":[],"name":"owner","outputs":[{"internalType":"address","name":"","type":"address"}],"payable":false,"stateMutability":"view","type":"function"},{"constant":true,"inputs":[{"internalType":"bytes32","name":"paymentId","type":"bytes32"}],"name":"paymentSuccessful","outputs":[{"internalType":"bool","name":"","type":"bool"}],"payable":false,"stateMutability":"view","type":"function"},{"constant":true,"inputs":[],"name":"payoutWallet","outputs":[{"internalType":"address","name":"","type":"address"}],"payable":false,"stateMutability":"view","type":"function"},{"constant":false,"inputs":[{"internalType":"uint256","name":"nonce","type":"uint256"},{"internalType":"bytes32","name":"challenge_digest","type":"bytes32"}],"name":"proxyMint","outputs":[{"internalType":"bool","name":"","type":"bool"}],"payable":false,"stateMutability":"nonpayable","type":"function"},{"constant":false,"inputs":[],"name":"renounceOwnership","outputs":[],"payable":false,"stateMutability":"nonpayable","type":"function"},{"constant":false,"inputs":[{"internalType":"address","name":"_tokenAddr","type":"address"},{"internalType":"bytes32","name":"paymentId","type":"bytes32"},{"internalType":"address","name":"dest","type":"address"},{"internalType":"uint256","name":"value","type":"uint256"}],"name":"send","outputs":[{"internalType":"bool","name":"","type":"bool"}],"payable":false,"stateMutability":"nonpayable","type":"function"},{"constant":false,"inputs":[{"internalType":"address","name":"mToken","type":"address"}],"name":"setMintableToken","outputs":[{"internalType":"bool","name":"","type":"bool"}],"payable":false,"stateMutability":"nonpayable","type":"function"},{"constant":false,"inputs":[{"internalType":"address","name":"newAddress","type":"address"}],"name":"setPayoutWallet","outputs":[],"payable":false,"stateMutability":"nonpayable","type":"function"},{"constant":false,"inputs":[{"internalType":"address","name":"newOwner","type":"address"}],"name":"transferOwnership","outputs":[],"payable":false,"stateMutability":"nonpayable","type":"function"},{"constant":false,"inputs":[],"name":"withdraw","outputs":[],"payable":false,"stateMutability":"nonpayable","type":"function"}],"bytecode":{"object":"60806040523480156200001157600080fd5b506040516200193c3803806200193c833981810160405260408110156200003757600080fd5b8101908080519060200190929190805160405193929190846401000000008211156200006257600080fd5b838201915060208201858111156200007957600080fd5b82518660018202830111640100000000821117156200009757600080fd5b8083526020830192505050908051906020019080838360005b83811015620000cd578082015181840152602081019050620000b0565b50505050905090810190601f168015620000fb5780820380516001836020036101000a031916815260200191505b50604052505050336000806101000a81548173ffffffffffffffffffffffffffffffffffffffff021916908373ffffffffffffffffffffffffffffffffffffffff16021790555033600160006101000a81548173ffffffffffffffffffffffffffffffffffffffff021916908373ffffffffffffffffffffffffffffffffffffffff1602179055506000809054906101000a900473ffffffffffffffffffffffffffffffffffffffff1673ffffffffffffffffffffffffffffffffffffffff16600073ffffffffffffffffffffffffffffffffffffffff167f8be0079c531659141344cd1fd0a4f28419497f9722a3daafe3b4186f6b6457e060405160405180910390a381600360006101000a81548173ffffffffffffffffffffffffffffffffffffffff021916908373ffffffffffffffffffffffffffffffffffffffff16021790555080600290805190602001906200025892919062000261565b50505062000310565b828054600181600116156101000203166002900490600052602060002090601f016020900481019282601f10620002a457805160ff1916838001178555620002d5565b82800160010185558215620002d5579182015b82811115620002d4578251825591602001919060010190620002b7565b5b509050620002e49190620002e8565b5090565b6200030d91905b8082111562000309576000816000905550600101620002ef565b5090565b90565b61161c80620003206000396000f3fe608060405234801561001057600080fd5b50600436106100cf5760003560e01c8063715018a61161008c57806395d38ea81161006657806395d38ea81461046f578063b1bb4d35146104b9578063ec5fb31e14610509578063f2fde38b14610599576100cf565b8063715018a6146103d15780638488bb4e146103db5780638da5cb5b14610425576100cf565b8063066b3136146100d457806306fdde031461011a578063206ec7a11461019d5780632516a18f146103275780633ccfd60b146103835780636b8f9c431461038d575b600080fd5b610100600480360360208110156100ea57600080fd5b81019080803590602001909291905050506105dd565b604051808215151515815260200191505060405180910390f35b61012261060e565b6040518080602001828103825283818151815260200191508051906020019080838360005b83811015610162578082015181840152602081019050610147565b50505050905090810190601f16801561018f5780820380516001836020036101000a031916815260200191505b509250505060405180910390f35b610311600480360360808110156101b357600080fd5b81019080803573ffffffffffffffffffffffffffffffffffffffff16906020019092919080359060200190929190803590602001906401000000008111156101fa57600080fd5b82018360208201111561020c57600080fd5b8035906020019184602083028401116401000000008311171561022e57600080fd5b919080806020026020016040519081016040528093929190818152602001838360200280828437600081840152601f19601f8201169050808301925050505050505091929192908035906020019064010000000081111561028e57600080fd5b8201836020820111156102a057600080fd5b803590602001918460208302840111640100000000831117156102c257600080fd5b919080806020026020016040519081016040528093929190818152602001838360200280828437600081840152601f19601f8201169050808301925050505050505091929192905050506106ac565b6040518082815260200191505060405180910390f35b6103696004803603602081101561033d57600080fd5b81019080803573ffffffffffffffffffffffffffffffffffffffff169060200190929190505050610a58565b604051808215151515815260200191505060405180910390f35b61038b610b49565b005b6103cf600480360360208110156103a357600080fd5b81019080803573ffffffffffffffffffffffffffffffffffffffff169060200190929190505050610c4e565b005b6103d9610d37565b005b6103e3610e9b565b604051808273ffffffffffffffffffffffffffffffffffffffff1673ffffffffffffffffffffffffffffffffffffffff16815260200191505060405180910390f35b61042d610ec5565b604051808273ffffffffffffffffffffffffffffffffffffffff1673ffffffffffffffffffffffffffffffffffffffff16815260200191505060405180910390f35b610477610eee565b604051808273ffffffffffffffffffffffffffffffffffffffff1673ffffffffffffffffffffffffffffffffffffffff16815260200191505060405180910390f35b6104ef600480360360408110156104cf57600080fd5b810190808035906020019092919080359060200190929190505050610f14565b604051808215151515815260200191505060405180910390f35b61057f6004803603608081101561051f57600080fd5b81019080803573ffffffffffffffffffffffffffffffffffffffff16906020019092919080359060200190929190803573ffffffffffffffffffffffffffffffffffffffff1690602001909291908035906020019092919050505061104a565b604051808215151515815260200191505060405180910390f35b6105db600480360360208110156105af57600080fd5b81019080803573ffffffffffffffffffffffffffffffffffffffff1690602001909291905050506112f6565b005b6000600115156004600084815260200190815260200160002060009054906101000a900460ff161515149050919050565b60028054600181600116156101000203166002900480601f0160208091040260200160405190810160405280929190818152602001828054600181600116156101000203166002900480156106a45780601f10610679576101008083540402835291602001916106a4565b820191906000526020600020905b81548152906001019060200180831161068757829003601f168201915b505050505081565b60008060009054906101000a900473ffffffffffffffffffffffffffffffffffffffff1673ffffffffffffffffffffffffffffffffffffffff163373ffffffffffffffffffffffffffffffffffffffff1614806107565750600160009054906101000a900473ffffffffffffffffffffffffffffffffffffffff1673ffffffffffffffffffffffffffffffffffffffff163373ffffffffffffffffffffffffffffffffffffffff16145b6107ab576040517f08c379a000000000000000000000000000000000000000000000000000000000815260040180806020018281038252602a815260200180611562602a913960400191505060405180910390fd5b6000835111610805576040517f08c379a000000000000000000000000000000000000000000000000000000000815260040180806020018281038252602981526020018061158c6029913960400191505060405180910390fd5b825182511015610860576040517f08c379a000000000000000000000000000000000000000000000000000000000815260040180806020018281038252602481526020018061153e6024913960400191505060405180910390fd5b600115156004600086815260200190815260200160002060009054906101000a900460ff16151514156108de576040517f08c379a000000000000000000000000000000000000000000000000000000000815260040180806020018281038252602c815260200180611512602c913960400191505060405180910390fd5b60008090505b83518110156109e9578573ffffffffffffffffffffffffffffffffffffffff1663a9059cbb85838151811061091557fe5b602002602001015185848151811061092957fe5b60200260200101516040518363ffffffff1660e01b8152600401808373ffffffffffffffffffffffffffffffffffffffff1673ffffffffffffffffffffffffffffffffffffffff16815260200182815260200192505050602060405180830381600087803b15801561099a57600080fd5b505af11580156109ae573d6000803e3d6000fd5b505050506040513d60208110156109c457600080fd5b81019080805190602001909291905050506109de57600080fd5b6001810190506108e4565b60016004600087815260200190815260200160002060006101000a81548160ff0219169083151502179055507fadee04cb7c7dc8ba441caff4f51b7c0bbdf8122fac7f065bf606d9d3bdf370cb856040518082815260200191505060405180910390a180915050949350505050565b60008060009054906101000a900473ffffffffffffffffffffffffffffffffffffffff1673ffffffffffffffffffffffffffffffffffffffff163373ffffffffffffffffffffffffffffffffffffffff1614610aff576040517f08c379a00000000000000000000000000000000000000000000000000000000081526004018080602001828103825260338152602001806115b56033913960400191505060405180910390fd5b81600360006101000a81548173ffffffffffffffffffffffffffffffffffffffff021916908373ffffffffffffffffffffffffffffffffffffffff16021790555060019050919050565b6000809054906101000a900473ffffffffffffffffffffffffffffffffffffffff1673ffffffffffffffffffffffffffffffffffffffff163373ffffffffffffffffffffffffffffffffffffffff1614610bee576040517f08c379a00000000000000000000000000000000000000000000000000000000081526004018080602001828103825260338152602001806115b56033913960400191505060405180910390fd5b3373ffffffffffffffffffffffffffffffffffffffff166108fc3073ffffffffffffffffffffffffffffffffffffffff16319081150290604051600060405180830381858888f19350505050158015610c4b573d6000803e3d6000fd5b50565b6000809054906101000a900473ffffffffffffffffffffffffffffffffffffffff1673ffffffffffffffffffffffffffffffffffffffff163373ffffffffffffffffffffffffffffffffffffffff1614610cf3576040517f08c379a00000000000000000000000000000000000000000000000000000000081526004018080602001828103825260338152602001806115b56033913960400191505060405180910390fd5b80600160006101000a81548173ffffffffffffffffffffffffffffffffffffffff021916908373ffffffffffffffffffffffffffffffffffffffff16021790555050565b6000809054906101000a900473ffffffffffffffffffffffffffffffffffffffff1673ffffffffffffffffffffffffffffffffffffffff163373ffffffffffffffffffffffffffffffffffffffff1614610ddc576040517f08c379a00000000000000000000000000000000000000000000000000000000081526004018080602001828103825260338152602001806115b56033913960400191505060405180910390fd5b600073ffffffffffffffffffffffffffffffffffffffff166000809054906101000a900473ffffffffffffffffffffffffffffffffffffffff1673ffffffffffffffffffffffffffffffffffffffff167f8be0079c531659141344cd1fd0a4f28419497f9722a3daafe3b4186f6b6457e060405160405180910390a360008060006101000a81548173ffffffffffffffffffffffffffffffffffffffff021916908373ffffffffffffffffffffffffffffffffffffffff160217905550565b6000600160009054906101000a900473ffffffffffffffffffffffffffffffffffffffff16905090565b60008060009054906101000a900473ffffffffffffffffffffffffffffffffffffffff16905090565b600360009054906101000a900473ffffffffffffffffffffffffffffffffffffffff1681565b6000600360009054906101000a900473ffffffffffffffffffffffffffffffffffffffff1673ffffffffffffffffffffffffffffffffffffffff16631801fbe584846040518363ffffffff1660e01b81526004018083815260200182815260200192505050602060405180830381600087803b158015610f9357600080fd5b505af1158015610fa7573d6000803e3d6000fd5b505050506040513d6020811015610fbd57600080fd5b8101908080519060200190929190505050611040576040517f08c379a00000000000000000000000000000000000000000000000000000000081526004018080602001828103825260148152602001807f436f756c64206e6f74206d696e7420746f6b656e00000000000000000000000081525060200191505060405180910390fd5b6001905092915050565b60008060009054906101000a900473ffffffffffffffffffffffffffffffffffffffff1673ffffffffffffffffffffffffffffffffffffffff163373ffffffffffffffffffffffffffffffffffffffff1614806110f45750600160009054906101000a900473ffffffffffffffffffffffffffffffffffffffff1673ffffffffffffffffffffffffffffffffffffffff163373ffffffffffffffffffffffffffffffffffffffff16145b611149576040517f08c379a000000000000000000000000000000000000000000000000000000000815260040180806020018281038252602a815260200180611562602a913960400191505060405180910390fd5b600115156004600086815260200190815260200160002060009054906101000a900460ff16151514156111c7576040517f08c379a000000000000000000000000000000000000000000000000000000000815260040180806020018281038252602c815260200180611512602c913960400191505060405180910390fd5b60016004600086815260200190815260200160002060006101000a81548160ff0219169083151502179055507fadee04cb7c7dc8ba441caff4f51b7c0bbdf8122fac7f065bf606d9d3bdf370cb846040518082815260200191505060405180910390a18473ffffffffffffffffffffffffffffffffffffffff1663a9059cbb84846040518363ffffffff1660e01b8152600401808373ffffffffffffffffffffffffffffffffffffffff1673ffffffffffffffffffffffffffffffffffffffff16815260200182815260200192505050602060405180830381600087803b1580156112b157600080fd5b505af11580156112c5573d6000803e3d6000fd5b505050506040513d60208110156112db57600080fd5b81019080805190602001909291905050509050949350505050565b6000809054906101000a900473ffffffffffffffffffffffffffffffffffffffff1673ffffffffffffffffffffffffffffffffffffffff163373ffffffffffffffffffffffffffffffffffffffff161461139b576040517f08c379a00000000000000000000000000000000000000000000000000000000081526004018080602001828103825260338152602001806115b56033913960400191505060405180910390fd5b6113a4816113a7565b50565b600073ffffffffffffffffffffffffffffffffffffffff168173ffffffffffffffffffffffffffffffffffffffff16141561142d576040517f08c379a00000000000000000000000000000000000000000000000000000000081526004018080602001828103825260268152602001806114ec6026913960400191505060405180910390fd5b8073ffffffffffffffffffffffffffffffffffffffff166000809054906101000a900473ffffffffffffffffffffffffffffffffffffffff1673ffffffffffffffffffffffffffffffffffffffff167f8be0079c531659141344cd1fd0a4f28419497f9722a3daafe3b4186f6b6457e060405160405180910390a3806000806101000a81548173ffffffffffffffffffffffffffffffffffffffff021916908373ffffffffffffffffffffffffffffffffffffffff1602179055505056fe4f776e61626c653a206e6577206f776e657220697320746865207a65726f20616464726573735061796d656e7420494420616c72656164792065786973747320616e6420776173207375636365737366756c4164647265737320746f2056616c75652061727261792073697a65206d69736d617463684f776e61626c653a2063616c6c6572206973206e6f7420746865206f776e6572206f722070617965722e4d7573742068617665206d6f7265207468616e20312064657374696e6174696f6e20616464726573734f776e61626c653a2063616c6c6572206973206e6f7420746865206f776e65722c206d696e7465722c206f722070617965722ea265627a7a7231582029b542a380c7ef6bcc8f5f1c4a248108ab39a81f0461ea86fda455a72cb26bea64736f6c634300050c0032"}}