{
  "opcodeHash": "0x0260666e8e53497a2865678b4c80f1c1bac14a5cd1dd2ce5ae5dcfa94a3874a4",
  "metalessHash": "0x2a5cb0e6078575208b64ac858d8195312e6e8030c42a54d43fcc4cbfefee5c5e",
  "runtimeHash": "0x687ed75db4ee25bc63b8e2280473206c450b4589b52aed7a651b78634ec73d38",
  "encodedMetadata": [
    {
      "ipfs": "/ipfs/QmQcvgVeoEX83wMG7toHizAywRb6rozG9QH5yRELh4wMYV",
      "solc": "0.6.4"
    }
  ],
  "abi": [
    {
      "inputs": [
        {
          "internalType": "uint256",
          "name": "initialTokens",
          "type": "uint256"
        }
      ],
      "stateMutability": "nonpayable",
      "type": "constructor"
    },
    {
      "anonymous": false,
      "inputs": [
        {
          "indexed": true,
          "internalType": "address",
          "name": "owner",
          "type": "address"
        },
        {
          "indexed": true,
          "internalType": "address",
          "name": "spender",
          "type": "address"
        },
        {
          "indexed": false,
          "internalType": "uint256",
          "name": "value",
          "type": "uint256"
        }
      ],
      "name": "Approval",
      "type": "event"
    },
    {
      "anonymous": false,
      "inputs": [
        {
          "indexed": true,
          "internalType": "address",
          "name": "from",
          "type": "address"
        },
        {
          "indexed": true,
          "internalType": "address",
          "name": "to",
          "type": "address"
        },
        {
          "indexed": false,
          "internalType": "uint256",
          "name": "value",
          "type": "uint256"
        }
      ],
      "name": "Transfer",
      "type": "event"
    },
    {
      "inputs": [
        {
          "internalType": "address",
          "name": "owner",
          "type": "address"
        },
        {
          "internalType": "address",
          "name": "spender",
          "type": "address"
        }
      ],
      "name": "allowance",
      "outputs": [
        {
          "internalType": "uint256",
          "name": "",
          "type": "uint256"
        }
      ],
      "stateMutability": "view",
      "type": "function"
    },
    {
      "inputs": [
        {
          "internalType": "address",
          "name": "spender",
          "type": "address"
        },
        {
          "internalType": "uint256",
          "name": "amount",
          "type": "uint256"
        }
      ],
      "name": "approve",
      "outputs": [
        {
          "internalType": "bool",
          "name": "",
          "type": "bool"
        }
      ],
      "stateMutability": "nonpayable",
      "type": "function"
    },
    {
      "inputs": [
        {
          "internalType": "address",
          "name": "account",
          "type": "address"
        }
      ],
      "name": "balanceOf",
      "outputs": [
        {
          "internalType": "uint256",
          "name": "",
          "type": "uint256"
        }
      ],
      "stateMutability": "view",
      "type": "function"
    },
    {
      "inputs": [],
      "name": "decimals",
      "outputs": [
        {
          "internalType": "uint8",
          "name": "",
          "type": "uint8"
        }
      ],
      "stateMutability": "view",
      "type": "function"
    },
    {
      "inputs": [
        {
          "internalType": "address",
          "name": "spender",
          "type": "address"
        },
        {
          "internalType": "uint256",
          "name": "subtractedValue",
          "type": "uint256"
        }
      ],
      "name": "decreaseAllowance",
      "outputs": [
        {
          "internalType": "bool",
          "name": "",
          "type": "bool"
        }
      ],
      "stateMutability": "nonpayable",
      "type": "function"
    },
    {
      "inputs": [],
      "name": "donate",
      "outputs": [],
      "stateMutability": "payable",
      "type": "function"
    },
    {
      "inputs": [
        {
          "internalType": "address",
          "name": "spender",
          "type": "address"
        },
        {
          "internalType": "uint256",
          "name": "addedValue",
          "type": "uint256"
        }
      ],
      "name": "increaseAllowance",
      "outputs": [
        {
          "internalType": "bool",
          "name": "",
          "type": "bool"
        }
      ],
      "stateMutability": "nonpayable",
      "type": "function"
    },
    {
      "inputs": [],
      "name": "name",
      "outputs": [
        {
          "internalType": "string",
          "name": "",
          "type": "string"
        }
      ],
      "stateMutability": "view",
      "type": "function"
    },
    {
      "inputs": [],
      "name": "symbol",
      "outputs": [
        {
          "internalType": "string",
          "name": "",
          "type": "string"
        }
      ],
      "stateMutability": "view",
      "type": "function"
    },
    {
      "inputs": [
        {
          "internalType": "address",
          "name": "tokenAddress",
          "type": "address"
        }
      ],
      "name": "tokenDrop",
      "outputs": [],
      "stateMutability": "nonpayable",
      "type": "function"
    },
    {
      "inputs": [],
      "name": "totalSupply",
      "outputs": [
        {
          "internalType": "uint256",
          "name": "",
          "type": "uint256"
        }
      ],
      "stateMutability": "view",
      "type": "function"
    },
    {
      "inputs": [
        {
          "internalType": "address",
          "name": "recipient",
          "type": "address"
        },
        {
          "internalType": "uint256",
          "name": "amount",
          "type": "uint256"
        }
      ],
      "name": "transfer",
      "outputs": [
        {
          "internalType": "bool",
          "name": "",
          "type": "bool"
        }
      ],
      "stateMutability": "nonpayable",
      "type": "function"
    },
    {
      "inputs": [
        {
          "internalType": "address",
          "name": "sender",
          "type": "address"
        },
        {
          "internalType": "address",
          "name": "recipient",
          "type": "address"
        },
        {
          "internalType": "uint256",
          "name": "amount",
          "type": "uint256"
        }
      ],
      "name": "transferFrom",
      "outputs": [
        {
          "internalType": "bool",
          "name": "",
          "type": "bool"
        }
      ],
      "stateMutability": "nonpayable",
      "type": "function"
    },
    {
      "stateMutability": "payable",
      "type": "receive"
    }
  ],
  "bytecode": {
    "object": "608060405260038054610100600160a81b03191674beb90b87629892a9fe9d47df81b2f87ab7a9ba8f0017905534801561003857600080fd5b506040516110e63803806110e68339818101604052602081101561005b57600080fd5b505160035461010090046001600160a01b03166000908152600460205260408082208054600160ff19918216811790925533845291909220805490911690911790556100a6816100ac565b506102de565b3360009081526004602052604090205460ff166100ff576040805162461bcd60e51b815260206004820152600c60248201526b3737ba1030b71030b236b4b760a11b604482015290519081900360640190fd5b60035460ff1615610143576040805162461bcd60e51b815260206004820152600960248201526853796e63206c6f636b60b81b604482015290519081900360640190fd5b6003805460ff191660011790819055610174906001600160a01b0361010090910416826001600160e01b0361018116565b506003805460ff19169055565b806001600160a01b0383166101dd576040805162461bcd60e51b815260206004820152601f60248201527f45524332303a206d696e7420746f20746865207a65726f206164647265737300604482015290519081900360640190fd5b6101f68160025461027d60201b610be21790919060201c565b6002556001600160a01b03831660009081526020818152604090912054610226918390610be261027d821b17901c565b6001600160a01b0384166000818152602081815260408083209490945583518581529351929391927fddf252ad1be2c89b69c2b068fc378daa952ba7f163c4a11628f55a4df523b3ef9281900390910190a3505050565b6000828201838110156102d7576040805162461bcd60e51b815260206004820152601b60248201527f536166654d6174683a206164646974696f6e206f766572666c6f770000000000604482015290519081900360640190fd5b9392505050565b610df9806102ed6000396000f3fe6080604052600436106100c65760003560e01c8063395093511161007f578063a457c2d711610059578063a457c2d7146102fa578063a9059cbb14610333578063dd62ed3e1461036c578063ed88c68e146103a7576100d5565b8063395093511461027957806370a08231146102b257806395d89b41146102e5576100d5565b806306fdde03146100da578063095ea7b31461016457806318160ddd146101b15780631856c595146101d857806323b872dd1461020b578063313ce5671461024e576100d5565b366100d5576100d36103ab565b005b600080fd5b3480156100e657600080fd5b506100ef61047f565b6040805160208082528351818301528351919283929083019185019080838360005b83811015610129578181015183820152602001610111565b50505050905090810190601f1680156101565780820380516001836020036101000a031916815260200191505b509250505060405180910390f35b34801561017057600080fd5b5061019d6004803603604081101561018757600080fd5b506001600160a01b0381351690602001356104a3565b604080519115158252519081900360200190f35b3480156101bd57600080fd5b506101c66104ba565b60408051918252519081900360200190f35b3480156101e457600080fd5b506100d3600480360360208110156101fb57600080fd5b50356001600160a01b03166104c0565b34801561021757600080fd5b5061019d6004803603606081101561022e57600080fd5b506001600160a01b038135811691602081013590911690604001356106e6565b34801561025a57600080fd5b50610263610755565b6040805160ff9092168252519081900360200190f35b34801561028557600080fd5b5061019d6004803603604081101561029c57600080fd5b506001600160a01b03813516906020013561075a565b3480156102be57600080fd5b506101c6600480360360208110156102d557600080fd5b50356001600160a01b0316610796565b3480156102f157600080fd5b506100ef6107b1565b34801561030657600080fd5b5061019d6004803603604081101561031d57600080fd5b506001600160a01b0381351690602001356107d4565b34801561033f57600080fd5b5061019d6004803603604081101561035657600080fd5b506001600160a01b038135169060200135610829565b34801561037857600080fd5b506101c66004803603604081101561038f57600080fd5b506001600160a01b0381358116916020013516610836565b6100d35b600034116103b857600080fd5b600354600090349061010090046001600160a01b03166103ea60646103de846032610861565b9063ffffffff6108c116565b60405161520891906000818181858888f193505050503d806000811461042c576040519150601f19603f3d011682016040523d82523d6000602084013e610431565b606091505b5050809250508161047b576040805162461bcd60e51b815260206004820152600f60248201526e151c985b9cd9995c8819985a5b1959608a1b604482015290519081900360640190fd5b5050565b60405180604001604052806008815260200167686f646c2e62616760c01b81525081565b60006104b0338484610903565b5060015b92915050565b60025490565b3360009081526004602052604090205460ff16610513576040805162461bcd60e51b815260206004820152600c60248201526b3737ba1030b71030b236b4b760a11b604482015290519081900360640190fd5b6001600160a01b03811630141561052957600080fd5b6000816001600160a01b03166318160ddd6040518163ffffffff1660e01b815260040160206040518083038186803b15801561056457600080fd5b505afa158015610578573d6000803e3d6000fd5b505050506040513d602081101561058e57600080fd5b5051116105e2576040805162461bcd60e51b815260206004820152601b60248201527f6d6179206e6f7420626520636f6e747261637420616464726573730000000000604482015290519081900360640190fd5b604080516370a0823160e01b815230600482015290516000916001600160a01b038416916370a0823191602480820192602092909190829003018186803b15801561062c57600080fd5b505afa158015610640573d6000803e3d6000fd5b505050506040513d602081101561065657600080fd5b50516003546040805163a9059cbb60e01b81526101009092046001600160a01b03908116600484015260248301849052905192935084169163a9059cbb916044808201926020929091908290030181600087803b1580156106b657600080fd5b505af11580156106ca573d6000803e3d6000fd5b505050506040513d60208110156106e057600080fd5b50505050565b60006106f38484846109ef565b61074b843361074685604051806060016040528060288152602001610d2e602891396001600160a01b038a166000908152600160209081526040808320338452909152902054919063ffffffff610b4b16565b610903565b5060019392505050565b600881565b3360008181526001602090815260408083206001600160a01b038716845290915281205490916104b0918590610746908663ffffffff610be216565b6001600160a01b031660009081526020819052604090205490565b60405180604001604052806007815260200166484f444c42414760c81b81525081565b60006104b0338461074685604051806060016040528060258152602001610d9f602591393360009081526001602090815260408083206001600160a01b038d168452909152902054919063ffffffff610b4b16565b60006104b03384846109ef565b6001600160a01b03918216600090815260016020908152604080832093909416825291909152205490565b600082610870575060006104b4565b8282028284828161087d57fe5b04146108ba5760405162461bcd60e51b8152600401808060200182810382526021815260200180610d0d6021913960400191505060405180910390fd5b9392505050565b60006108ba83836040518060400160405280601a81526020017f536166654d6174683a206469766973696f6e206279207a65726f000000000000815250610c3c565b6001600160a01b0383166109485760405162461bcd60e51b8152600401808060200182810382526024815260200180610d7b6024913960400191505060405180910390fd5b6001600160a01b03821661098d5760405162461bcd60e51b8152600401808060200182810382526022815260200180610cc56022913960400191505060405180910390fd5b6001600160a01b03808416600081815260016020908152604080832094871680845294825291829020859055815185815291517f8c5be1e5ebec7d5bd14f71427d1e84f3dd0314c0f7b2291e5b200ac8c7c3b9259281900390910190a3505050565b6001600160a01b038316610a345760405162461bcd60e51b8152600401808060200182810382526025815260200180610d566025913960400191505060405180910390fd5b6001600160a01b038216610a795760405162461bcd60e51b8152600401808060200182810382526023815260200180610ca26023913960400191505060405180910390fd5b610abc81604051806060016040528060268152602001610ce7602691396001600160a01b038616600090815260208190526040902054919063ffffffff610b4b16565b6001600160a01b038085166000908152602081905260408082209390935590841681522054610af1908263ffffffff610be216565b6001600160a01b038084166000818152602081815260409182902094909455805185815290519193928716927fddf252ad1be2c89b69c2b068fc378daa952ba7f163c4a11628f55a4df523b3ef92918290030190a3505050565b60008184841115610bda5760405162461bcd60e51b81526004018080602001828103825283818151815260200191508051906020019080838360005b83811015610b9f578181015183820152602001610b87565b50505050905090810190601f168015610bcc5780820380516001836020036101000a031916815260200191505b509250505060405180910390fd5b505050900390565b6000828201838110156108ba576040805162461bcd60e51b815260206004820152601b60248201527f536166654d6174683a206164646974696f6e206f766572666c6f770000000000604482015290519081900360640190fd5b60008183610c8b5760405162461bcd60e51b8152602060048201818152835160248401528351909283926044909101919085019080838360008315610b9f578181015183820152602001610b87565b506000838581610c9757fe5b049594505050505056fe45524332303a207472616e7366657220746f20746865207a65726f206164647265737345524332303a20617070726f766520746f20746865207a65726f206164647265737345524332303a207472616e7366657220616d6f756e7420657863656564732062616c616e6365536166654d6174683a206d756c7469706c69636174696f6e206f766572666c6f7745524332303a207472616e7366657220616d6f756e74206578636565647320616c6c6f77616e636545524332303a207472616e736665722066726f6d20746865207a65726f206164647265737345524332303a20617070726f76652066726f6d20746865207a65726f206164647265737345524332303a2064656372656173656420616c6c6f77616e63652062656c6f77207a65726fa2646970667358221220a99cb04b6acc6f2226300f00933d4fd607c7d233d24ac28993bfdbcab00906dc64736f6c63430006040033"
  }
}