{
  "opcodeHash": "0x11b1c23c58e4f881269de4365b9b20e551516067cc9be1b4ca2fa54cf0f0feaa",
  "metalessHash": "0xccd6ae0d71d199e98f7bef555f7a4ac5e96bce801c57f5fbb7ad6c5c71dfea2a",
  "runtimeHash": "0x67618022bb433bb5905e6267da8a699efa337e1f3e8585140a34c887a4542875",
  "encodedMetadata": [
    {
      "ipfs": "/ipfs/QmRmjAiZTPA2F6eYVC5pcpdpLGQcoVBgvD4RBfnHoCTaR6",
      "solc": "0.8.4"
    }
  ],
  "abi": [
    {
      "inputs": [
        {
          "internalType": "contract IERC20",
          "name": "_token",
          "type": "address"
        },
        {
          "internalType": "uint256",
          "name": "_startTime",
          "type": "uint256"
        },
        {
          "internalType": "uint256",
          "name": "_endTime",
          "type": "uint256"
        }
      ],
      "stateMutability": "nonpayable",
      "type": "constructor"
    },
    {
      "anonymous": false,
      "inputs": [
        {
          "indexed": true,
          "internalType": "address",
          "name": "previousOwner",
          "type": "address"
        },
        {
          "indexed": true,
          "internalType": "address",
          "name": "newOwner",
          "type": "address"
        }
      ],
      "name": "OwnershipTransferred",
      "type": "event"
    },
    {
      "inputs": [
        {
          "internalType": "address[]",
          "name": "addresses",
          "type": "address[]"
        },
        {
          "internalType": "uint256[]",
          "name": "amounts",
          "type": "uint256[]"
        }
      ],
      "name": "addInvestors",
      "outputs": [],
      "stateMutability": "nonpayable",
      "type": "function"
    },
    {
      "inputs": [],
      "name": "claim",
      "outputs": [],
      "stateMutability": "nonpayable",
      "type": "function"
    },
    {
      "inputs": [
        {
          "internalType": "address",
          "name": "investor",
          "type": "address"
        }
      ],
      "name": "claimableJRT",
      "outputs": [
        {
          "internalType": "uint256",
          "name": "",
          "type": "uint256"
        }
      ],
      "stateMutability": "view",
      "type": "function"
    },
    {
      "inputs": [
        {
          "internalType": "address",
          "name": "",
          "type": "address"
        }
      ],
      "name": "claimedAmount",
      "outputs": [
        {
          "internalType": "uint256",
          "name": "",
          "type": "uint256"
        }
      ],
      "stateMutability": "view",
      "type": "function"
    },
    {
      "inputs": [],
      "name": "endTime",
      "outputs": [
        {
          "internalType": "uint256",
          "name": "",
          "type": "uint256"
        }
      ],
      "stateMutability": "view",
      "type": "function"
    },
    {
      "inputs": [
        {
          "internalType": "address[]",
          "name": "investors",
          "type": "address[]"
        }
      ],
      "name": "liquidate",
      "outputs": [],
      "stateMutability": "nonpayable",
      "type": "function"
    },
    {
      "inputs": [],
      "name": "lockTime",
      "outputs": [
        {
          "internalType": "uint256",
          "name": "",
          "type": "uint256"
        }
      ],
      "stateMutability": "view",
      "type": "function"
    },
    {
      "inputs": [],
      "name": "owner",
      "outputs": [
        {
          "internalType": "address",
          "name": "",
          "type": "address"
        }
      ],
      "stateMutability": "view",
      "type": "function"
    },
    {
      "inputs": [],
      "name": "renounceOwnership",
      "outputs": [],
      "stateMutability": "nonpayable",
      "type": "function"
    },
    {
      "inputs": [],
      "name": "startTime",
      "outputs": [
        {
          "internalType": "uint256",
          "name": "",
          "type": "uint256"
        }
      ],
      "stateMutability": "view",
      "type": "function"
    },
    {
      "inputs": [],
      "name": "token",
      "outputs": [
        {
          "internalType": "contract IERC20",
          "name": "",
          "type": "address"
        }
      ],
      "stateMutability": "view",
      "type": "function"
    },
    {
      "inputs": [],
      "name": "totalTokenAmount",
      "outputs": [
        {
          "internalType": "uint256",
          "name": "",
          "type": "uint256"
        }
      ],
      "stateMutability": "view",
      "type": "function"
    },
    {
      "inputs": [
        {
          "internalType": "address",
          "name": "newOwner",
          "type": "address"
        }
      ],
      "name": "transferOwnership",
      "outputs": [],
      "stateMutability": "nonpayable",
      "type": "function"
    },
    {
      "inputs": [
        {
          "internalType": "address",
          "name": "",
          "type": "address"
        }
      ],
      "name": "userTotalAmount",
      "outputs": [
        {
          "internalType": "uint256",
          "name": "",
          "type": "uint256"
        }
      ],
      "stateMutability": "view",
      "type": "function"
    }
  ],
  "bytecode": {
    "object": "61010060405234801561001157600080fd5b506040516113d13803806113d18339810160408190526100309161015c565b600080546001600160a01b031916339081178255604051909182917f8be0079c531659141344cd1fd0a4f28419497f9722a3daafe3b4186f6b6457e0908290a3508181116100cf5760405162461bcd60e51b815260206004820152602160248201527f456e642074696d65206d7573742062652061667465722073746172742074696d6044820152606560f81b60648201526084015b60405180910390fd5b42821161012a5760405162461bcd60e51b8152602060048201526024808201527f53746172742074696d65206d7573742062652061667465722061637475616c2060448201526374696d6560e01b60648201526084016100c6565b6001600160601b0319606084901b1660e052608082905260a0819052610150828261019d565b60c052506101c0915050565b600080600060608486031215610170578283fd5b83516001600160a01b0381168114610186578384fd5b602085015160409095015190969495509392505050565b6000828210156101bb57634e487b7160e01b81526011600452602481fd5b500390565b60805160a05160c05160e05160601c61117a61025760003960008181610248015281816105b3015281816107cf0152610c7e015260008181610130015281816107640152610ac201526000818161016c0152818161069f01528181610879015281816109fe0152610a290152600081816101a30152818161029f0152818161072301528181610a4a0152610a79015261117a6000f3fe608060405234801561001057600080fd5b50600436106100ea5760003560e01c806378e979251161008c578063a985994b11610066578063a985994b1461020a578063dd41cba41461021d578063f2fde38b14610230578063fc0c546a1461024357600080fd5b806378e979251461019e5780637dbfb5dc146101c55780638da5cb5b146101e557600080fd5b8063249eae4d116100c8578063249eae4d146101525780633197cbb6146101675780634e71d92d1461018e578063715018a61461019657600080fd5b80630337b3aa146100ef57806304e869031461010b5780630d6680871461012b575b600080fd5b6100f860015481565b6040519081526020015b60405180910390f35b6100f8610119366004610ee9565b60036020526000908152604090205481565b6100f87f000000000000000000000000000000000000000000000000000000000000000081565b610165610160366004610f50565b61026a565b005b6100f87f000000000000000000000000000000000000000000000000000000000000000081565b61016561069d565b610165610803565b6100f87f000000000000000000000000000000000000000000000000000000000000000081565b6100f86101d3366004610ee9565b60026020526000908152604090205481565b6000546001600160a01b03165b6040516001600160a01b039091168152602001610102565b610165610218366004610f10565b610877565b6100f861022b366004610ee9565b6109e2565b61016561023e366004610ee9565b610af3565b6101f27f000000000000000000000000000000000000000000000000000000000000000081565b6000546001600160a01b0316331461029d5760405162461bcd60e51b815260040161029490611040565b60405180910390fd5b7f000000000000000000000000000000000000000000000000000000000000000042106103325760405162461bcd60e51b815260206004820152603b60248201527f43757272656e742074696d652073686f756c64206265206265666f726520746860448201527f65207374617274206f662074686520646973747269627574696f6e00000000006064820152608401610294565b8281146103985760405162461bcd60e51b815260206004820152602e60248201527f4e756d626572206f662061646472657373657320616e6420616d6f756e74732060448201526d0c8decae640dcdee840dac2e8c6d60931b6064820152608401610294565b6000805b848110156105835760008686838181106103c657634e487b7160e01b600052603260045260246000fd5b90506020020160208101906103db9190610ee9565b6001600160a01b031614156104445760405162461bcd60e51b815260206004820152602960248201527f50726f766964656420616464726573732063616e206e6f74206265207468652060448201526830206164647265737360b81b6064820152608401610294565b6002600087878481811061046857634e487b7160e01b600052603260045260246000fd5b905060200201602081019061047d9190610ee9565b6001600160a01b03168152602081019190915260400160002054156104e45760405162461bcd60e51b815260206004820152601960248201527f496e766573746f7220616c726561647920696e736572746564000000000000006044820152606401610294565b600084848381811061050657634e487b7160e01b600052603260045260246000fd5b905060200201359050806002600089898681811061053457634e487b7160e01b600052603260045260246000fd5b90506020020160208101906105499190610ee9565b6001600160a01b0316815260208101919091526040016000205561056d8382610bdd565b925050808061057b90611113565b91505061039c565b506001546000906105949083610bdd565b60018190556040516370a0823160e01b815230600482015290915081907f00000000000000000000000000000000000000000000000000000000000000006001600160a01b0316906370a082319060240160206040518083038186803b1580156105fd57600080fd5b505afa158015610611573d6000803e3d6000fd5b505050506040513d601f19601f820116820180604052508101906106359190610fd9565b10156106955760405162461bcd60e51b815260206004820152602960248201527f5468652062616c616e6365206f662074686520636f6e7472616374206973206e6044820152680dee840cadcdeeaced60bb1b6064820152608401610294565b505050505050565b7f0000000000000000000000000000000000000000000000000000000000000000421061070c5760405162461bcd60e51b815260206004820152601760248201527f54686520656e642074696d6520686173207061737365640000000000000000006044820152606401610294565b3360009081526002602052604081205490610747427f0000000000000000000000000000000000000000000000000000000000000000610bf0565b3360009081526003602052604081205491925090610799906107937f000000000000000000000000000000000000000000000000000000000000000061078d8688610bfc565b90610c08565b90610bf0565b336000908152600360205260409020549091506107b69082610bdd565b336000818152600360205260409020919091556107fe907f00000000000000000000000000000000000000000000000000000000000000006001600160a01b03169083610c14565b505050565b6000546001600160a01b0316331461082d5760405162461bcd60e51b815260040161029490611040565b600080546040516001600160a01b03909116907f8be0079c531659141344cd1fd0a4f28419497f9722a3daafe3b4186f6b6457e0908390a3600080546001600160a01b0319169055565b7f00000000000000000000000000000000000000000000000000000000000000004210156108e75760405162461bcd60e51b815260206004820152601b60248201527f54686520656e642074696d6520686173206e6f742070617373656400000000006044820152606401610294565b60005b818110156107fe57600083838381811061091457634e487b7160e01b600052603260045260246000fd5b90506020020160208101906109299190610ee9565b6001600160a01b0381166000908152600260209081526040808320546003909252909120549192509081158015906109615750808214155b6109c15760405162461bcd60e51b815260206004820152602b60248201527f6e6f20746f6b656e7320746f20626520646973747269627574656420666f722060448201526a30b71034b73b32b9ba37b960a91b6064820152608401610294565b6109cc838383610c66565b50505080806109da90611113565b9150506108ea565b6001600160a01b038116600090815260026020526040812054817f0000000000000000000000000000000000000000000000000000000000000000421115610a7357610a6e7f00000000000000000000000000000000000000000000000000000000000000007f0000000000000000000000000000000000000000000000000000000000000000610bf0565b610a9d565b610a9d427f0000000000000000000000000000000000000000000000000000000000000000610bf0565b6001600160a01b038516600090815260036020526040902054909150610aeb906107937f000000000000000000000000000000000000000000000000000000000000000061078d8587610bfc565b949350505050565b6000546001600160a01b03163314610b1d5760405162461bcd60e51b815260040161029490611040565b6001600160a01b038116610b825760405162461bcd60e51b815260206004820152602660248201527f4f776e61626c653a206e6577206f776e657220697320746865207a65726f206160448201526564647265737360d01b6064820152608401610294565b600080546040516001600160a01b03808516939216917f8be0079c531659141344cd1fd0a4f28419497f9722a3daafe3b4186f6b6457e091a3600080546001600160a01b0319166001600160a01b0392909216919091179055565b6000610be98284611075565b9392505050565b6000610be982846110cc565b6000610be982846110ad565b6000610be9828461108d565b604080516001600160a01b038416602482015260448082018490528251808303909101815260649091019091526020810180516001600160e01b031663a9059cbb60e01b1790526107fe908490610cc2565b610ca583610c748484610bf0565b6001600160a01b037f0000000000000000000000000000000000000000000000000000000000000000169190610c14565b506001600160a01b03909116600090815260036020526040902055565b6000610d17826040518060400160405280602081526020017f5361666545524332303a206c6f772d6c6576656c2063616c6c206661696c6564815250856001600160a01b0316610d949092919063ffffffff16565b8051909150156107fe5780806020019051810190610d359190610fb9565b6107fe5760405162461bcd60e51b815260206004820152602a60248201527f5361666545524332303a204552433230206f7065726174696f6e20646964206e6044820152691bdd081cdd58d8d9595960b21b6064820152608401610294565b6060610aeb848460008585843b610ded5760405162461bcd60e51b815260206004820152601d60248201527f416464726573733a2063616c6c20746f206e6f6e2d636f6e74726163740000006044820152606401610294565b600080866001600160a01b03168587604051610e099190610ff1565b60006040518083038185875af1925050503d8060008114610e46576040519150601f19603f3d011682016040523d82523d6000602084013e610e4b565b606091505b5091509150610e5b828286610e66565b979650505050505050565b60608315610e75575081610be9565b825115610e855782518084602001fd5b8160405162461bcd60e51b8152600401610294919061100d565b60008083601f840112610eb0578182fd5b50813567ffffffffffffffff811115610ec7578182fd5b6020830191508360208260051b8501011115610ee257600080fd5b9250929050565b600060208284031215610efa578081fd5b81356001600160a01b0381168114610be9578182fd5b60008060208385031215610f22578081fd5b823567ffffffffffffffff811115610f38578182fd5b610f4485828601610e9f565b90969095509350505050565b60008060008060408587031215610f65578182fd5b843567ffffffffffffffff80821115610f7c578384fd5b610f8888838901610e9f565b90965094506020870135915080821115610fa0578384fd5b50610fad87828801610e9f565b95989497509550505050565b600060208284031215610fca578081fd5b81518015158114610be9578182fd5b600060208284031215610fea578081fd5b5051919050565b600082516110038184602087016110e3565b9190910192915050565b602081526000825180602084015261102c8160408501602087016110e3565b601f01601f19169190910160400192915050565b6020808252818101527f4f776e61626c653a2063616c6c6572206973206e6f7420746865206f776e6572604082015260600190565b600082198211156110885761108861112e565b500190565b6000826110a857634e487b7160e01b81526012600452602481fd5b500490565b60008160001904831182151516156110c7576110c761112e565b500290565b6000828210156110de576110de61112e565b500390565b60005b838110156110fe5781810151838201526020016110e6565b8381111561110d576000848401525b50505050565b60006000198214156111275761112761112e565b5060010190565b634e487b7160e01b600052601160045260246000fdfea264697066735822122085e89bf751ab11d740cbded90f076be16a39b588632640679f7b918d81f2bb2f64736f6c63430008040033"
  }
}