{"compiler":"v0.6.12+commit.27d51765","opcodeHash":"0x72f91ae098a37d79a57a3f66b35dde244fbb5484937c366dd10fe35c236bddb7","metalessHash":"0x26df82cc2289ea2dd397e3f0988528206e5fdc566e505d8f55928e9578674cfc","runtimeHash":"0x62e40e6379a10abaebc750ac57ca4eaeaf96b3b354d9ab7d881a171f63e4858d","encodedMetadata":[{"ipfs":"/ipfs/QmRyRdpJTj1As9xLoHbbMpvPTq5MeMvrjTZXMa5sJj6QKA","solc":"0.6.12"}],"abi":[{"inputs":[],"stateMutability":"nonpayable","type":"constructor"},{"anonymous":false,"inputs":[{"indexed":false,"internalType":"string","name":"stringMessage","type":"string"}],"name":"messageReceivedFromStarkNet","type":"event"},{"anonymous":false,"inputs":[{"indexed":false,"internalType":"string","name":"stringMessage","type":"string"}],"name":"messageSentToStarkNet","type":"event"},{"inputs":[],"name":"GRAFF_SELECTOR","outputs":[{"internalType":"uint256","name":"","type":"uint256"}],"stateMutability":"view","type":"function"},{"inputs":[{"internalType":"bytes32","name":"_bytes32","type":"bytes32"}],"name":"customizedBytes32ToString","outputs":[{"internalType":"string","name":"","type":"string"}],"stateMutability":"pure","type":"function"},{"inputs":[{"internalType":"bytes32","name":"messageToGraff","type":"bytes32"}],"name":"graffFromMainnetOnStarknet","outputs":[],"stateMutability":"nonpayable","type":"function"},{"inputs":[{"internalType":"bytes32","name":"messageToGraff","type":"bytes32"}],"name":"graffFromStarknetOnMainnet","outputs":[],"stateMutability":"nonpayable","type":"function"},{"inputs":[],"name":"l2MessengerContractAddress","outputs":[{"internalType":"uint256","name":"","type":"uint256"}],"stateMutability":"view","type":"function"},{"inputs":[{"internalType":"bytes32[]","name":"messageToGraff","type":"bytes32[]"}],"name":"multiGraffs","outputs":[],"stateMutability":"nonpayable","type":"function"},{"inputs":[],"name":"owner","outputs":[{"internalType":"address","name":"","type":"address"}],"stateMutability":"view","type":"function"},{"inputs":[{"internalType":"contract IStarknetCore","name":"starknetCore_","type":"address"},{"internalType":"uint256","name":"l2MessengerContractAddress_","type":"uint256"},{"internalType":"uint256","name":"GRAFF_SELECTOR_","type":"uint256"}],"name":"setL2Graffer","outputs":[],"stateMutability":"nonpayable","type":"function"},{"inputs":[],"name":"starknetCore","outputs":[{"internalType":"contract IStarknetCore","name":"","type":"address"}],"stateMutability":"view","type":"function"}],"bytecode":{"object":"608060405234801561001057600080fd5b5033600360006101000a81548173ffffffffffffffffffffffffffffffffffffffff021916908373ffffffffffffffffffffffffffffffffffffffff160217905550610a1b806100616000396000f3fe608060405234801561001057600080fd5b50600436106100935760003560e01c806358e1132a1161006657806358e1132a146101705780638da5cb5b1461019e5780639c5fd861146101d2578063a33bb644146101f0578063f43bd4871461029757610093565b8063156bea85146100985780632cf0379a146100c657806339e730ab146100e4578063570d1bea14610118575b600080fd5b6100c4600480360360208110156100ae57600080fd5b810190808035906020019092919050505061034f565b005b6100ce610564565b6040518082815260200191505060405180910390f35b6100ec61056a565b604051808273ffffffffffffffffffffffffffffffffffffffff16815260200191505060405180910390f35b61016e6004803603606081101561012e57600080fd5b81019080803573ffffffffffffffffffffffffffffffffffffffff169060200190929190803590602001909291908035906020019092919050505061058e565b005b61019c6004803603602081101561018657600080fd5b810190808035906020019092919050505061063b565b005b6101a6610846565b604051808273ffffffffffffffffffffffffffffffffffffffff16815260200191505060405180910390f35b6101da61086c565b6040518082815260200191505060405180910390f35b61021c6004803603602081101561020657600080fd5b8101908080359060200190929190505050610872565b6040518080602001828103825283818151815260200191508051906020019080838360005b8381101561025c578082015181840152602081019050610241565b50505050905090810190601f1680156102895780820380516001836020036101000a031916815260200191505b509250505060405180910390f35b61034d600480360360208110156102ad57600080fd5b81019080803590602001906401000000008111156102ca57600080fd5b8201836020820111156102dc57600080fd5b803590602001918460208302840111640100000000831117156102fe57600080fd5b919080806020026020016040519081016040528093929190818152602001838360200280828437600081840152601f19601f8201169050808301925050505050505091929192905050506109ac565b005b6060600167ffffffffffffffff8111801561036957600080fd5b506040519080825280602002602001820160405280156103985781602001602082028036833780820191505090505b5090508160001c816000815181106103ac57fe5b60200260200101818152505060008054906101000a900473ffffffffffffffffffffffffffffffffffffffff1673ffffffffffffffffffffffffffffffffffffffff16633e3aa6c5600254600154846040518463ffffffff1660e01b81526004018084815260200183815260200180602001828103825283818151815260200191508051906020019060200280838360005b8381101561045957808201518184015260208101905061043e565b50505050905001945050505050602060405180830381600087803b15801561048057600080fd5b505af1158015610494573d6000803e3d6000fd5b505050506040513d60208110156104aa57600080fd5b8101908080519060200190929190505050507f138460d44924299fd2b6e5f8dc486b7483120c1c0a128518ef0fa9fca81497c06104e683610872565b6040518080602001828103825283818151815260200191508051906020019080838360005b8381101561052657808201518184015260208101905061050b565b50505050905090810190601f1680156105535780820380516001836020036101000a031916815260200191505b509250505060405180910390a15050565b60015481565b60008054906101000a900473ffffffffffffffffffffffffffffffffffffffff1681565b600360009054906101000a900473ffffffffffffffffffffffffffffffffffffffff1673ffffffffffffffffffffffffffffffffffffffff163373ffffffffffffffffffffffffffffffffffffffff16146105e857600080fd5b826000806101000a81548173ffffffffffffffffffffffffffffffffffffffff021916908373ffffffffffffffffffffffffffffffffffffffff1602179055508160028190555080600181905550505050565b6060600167ffffffffffffffff8111801561065557600080fd5b506040519080825280602002602001820160405280156106845781602001602082028036833780820191505090505b5090508160001c8160008151811061069857fe5b60200260200101818152505060008054906101000a900473ffffffffffffffffffffffffffffffffffffffff1673ffffffffffffffffffffffffffffffffffffffff16632c9dd5c0600254836040518363ffffffff1660e01b81526004018083815260200180602001828103825283818151815260200191508051906020019060200280838360005b8381101561073c578082015181840152602081019050610721565b505050509050019350505050602060405180830381600087803b15801561076257600080fd5b505af1158015610776573d6000803e3d6000fd5b505050506040513d602081101561078c57600080fd5b8101908080519060200190929190505050507f78d4ad7577aa278ff6a046b74593739087ba7abd2934d1bc6a9b331a30e7fa106107c883610872565b6040518080602001828103825283818151815260200191508051906020019080838360005b838110156108085780820151818401526020810190506107ed565b50505050905090810190601f1680156108355780820380516001836020036101000a031916815260200191505b509250505060405180910390a15050565b600360009054906101000a900473ffffffffffffffffffffffffffffffffffffffff1681565b60025481565b606060005b60208160ff161080156108c25750600060f81b838260ff166020811061089957fe5b1a60f81b7effffffffffffffffffffffffffffffffffffffffffffffffffffffffffffff191614155b156108d4578080600101915050610877565b60008160ff16905060608160200367ffffffffffffffff811180156108f857600080fd5b506040519080825280601f01601f19166020018201604052801561092b5781602001600182028036833780820191505090505b509050600092505b816020038360ff1610156109a15784828460ff16016020811061095257fe5b1a60f81b818460ff168151811061096557fe5b60200101907effffffffffffffffffffffffffffffffffffffffffffffffffffffffffffff1916908160001a9053508280600101935050610933565b809350505050919050565b60005b81518110156109e1576109d48282815181106109c757fe5b602002602001015161063b565b80806001019150506109af565b505056fea2646970667358221220ceb972952b50e126e3d451431e33a4f15e66ce106557605d96e238148b28b8d464736f6c634300060c0033"}}