{
  "opcodeHash": "0x55c1d6162b7cf3c8faaaa22223b27f68b2dd003cafe8c480db04d8df069f60aa",
  "metalessHash": "0x21b55f5ad08efad1d8b19f23cd959e4012fb62863d95e1f22f3c9cd59ea652ba",
  "runtimeHash": "0xef6731c56d267751e1e5c98641035734bda70077643dd0cd4f100277047310f7",
  "encodedMetadata": [
    {
      "ipfs": "/ipfs/QmZF8EkMpnSuR18ENC9E1saKQ3qeBrkZD6Fe2A7Qhcz3D6",
      "solc": "0.8.5"
    }
  ],
  "abi": [
    {
      "inputs": [
        {
          "internalType": "address payable",
          "name": "addr1",
          "type": "address"
        },
        {
          "internalType": "address payable",
          "name": "addr2",
          "type": "address"
        }
      ],
      "stateMutability": "nonpayable",
      "type": "constructor"
    },
    {
      "anonymous": false,
      "inputs": [
        {
          "indexed": true,
          "internalType": "address",
          "name": "owner",
          "type": "address"
        },
        {
          "indexed": true,
          "internalType": "address",
          "name": "spender",
          "type": "address"
        },
        {
          "indexed": false,
          "internalType": "uint256",
          "name": "value",
          "type": "uint256"
        }
      ],
      "name": "Approval",
      "type": "event"
    },
    {
      "anonymous": false,
      "inputs": [
        {
          "indexed": false,
          "internalType": "uint256",
          "name": "_maxTxAmount",
          "type": "uint256"
        }
      ],
      "name": "MaxTxAmountUpdated",
      "type": "event"
    },
    {
      "anonymous": false,
      "inputs": [
        {
          "indexed": true,
          "internalType": "address",
          "name": "previousOwner",
          "type": "address"
        },
        {
          "indexed": true,
          "internalType": "address",
          "name": "newOwner",
          "type": "address"
        }
      ],
      "name": "OwnershipTransferred",
      "type": "event"
    },
    {
      "anonymous": false,
      "inputs": [
        {
          "indexed": true,
          "internalType": "address",
          "name": "from",
          "type": "address"
        },
        {
          "indexed": true,
          "internalType": "address",
          "name": "to",
          "type": "address"
        },
        {
          "indexed": false,
          "internalType": "uint256",
          "name": "value",
          "type": "uint256"
        }
      ],
      "name": "Transfer",
      "type": "event"
    },
    {
      "inputs": [],
      "name": "addLiquidity",
      "outputs": [],
      "stateMutability": "nonpayable",
      "type": "function"
    },
    {
      "inputs": [
        {
          "internalType": "address",
          "name": "owner",
          "type": "address"
        },
        {
          "internalType": "address",
          "name": "spender",
          "type": "address"
        }
      ],
      "name": "allowance",
      "outputs": [
        {
          "internalType": "uint256",
          "name": "",
          "type": "uint256"
        }
      ],
      "stateMutability": "view",
      "type": "function"
    },
    {
      "inputs": [
        {
          "internalType": "address",
          "name": "spender",
          "type": "address"
        },
        {
          "internalType": "uint256",
          "name": "amount",
          "type": "uint256"
        }
      ],
      "name": "approve",
      "outputs": [
        {
          "internalType": "bool",
          "name": "",
          "type": "bool"
        }
      ],
      "stateMutability": "nonpayable",
      "type": "function"
    },
    {
      "inputs": [
        {
          "internalType": "address",
          "name": "account",
          "type": "address"
        }
      ],
      "name": "balanceOf",
      "outputs": [
        {
          "internalType": "uint256",
          "name": "",
          "type": "uint256"
        }
      ],
      "stateMutability": "view",
      "type": "function"
    },
    {
      "inputs": [],
      "name": "decimals",
      "outputs": [
        {
          "internalType": "uint8",
          "name": "",
          "type": "uint8"
        }
      ],
      "stateMutability": "pure",
      "type": "function"
    },
    {
      "inputs": [],
      "name": "manualsend",
      "outputs": [],
      "stateMutability": "nonpayable",
      "type": "function"
    },
    {
      "inputs": [],
      "name": "manualswap",
      "outputs": [],
      "stateMutability": "nonpayable",
      "type": "function"
    },
    {
      "inputs": [],
      "name": "name",
      "outputs": [
        {
          "internalType": "string",
          "name": "",
          "type": "string"
        }
      ],
      "stateMutability": "pure",
      "type": "function"
    },
    {
      "inputs": [],
      "name": "openTrading",
      "outputs": [],
      "stateMutability": "nonpayable",
      "type": "function"
    },
    {
      "inputs": [],
      "name": "owner",
      "outputs": [
        {
          "internalType": "address",
          "name": "",
          "type": "address"
        }
      ],
      "stateMutability": "view",
      "type": "function"
    },
    {
      "inputs": [],
      "name": "renounceOwnership",
      "outputs": [],
      "stateMutability": "nonpayable",
      "type": "function"
    },
    {
      "inputs": [
        {
          "internalType": "bool",
          "name": "onoff",
          "type": "bool"
        }
      ],
      "name": "setCooldownEnabled",
      "outputs": [],
      "stateMutability": "nonpayable",
      "type": "function"
    },
    {
      "inputs": [
        {
          "internalType": "uint256",
          "name": "maxTxPercent",
          "type": "uint256"
        }
      ],
      "name": "setMaxTxPercent",
      "outputs": [],
      "stateMutability": "nonpayable",
      "type": "function"
    },
    {
      "inputs": [],
      "name": "symbol",
      "outputs": [
        {
          "internalType": "string",
          "name": "",
          "type": "string"
        }
      ],
      "stateMutability": "pure",
      "type": "function"
    },
    {
      "inputs": [],
      "name": "totalSupply",
      "outputs": [
        {
          "internalType": "uint256",
          "name": "",
          "type": "uint256"
        }
      ],
      "stateMutability": "pure",
      "type": "function"
    },
    {
      "inputs": [
        {
          "internalType": "address",
          "name": "recipient",
          "type": "address"
        },
        {
          "internalType": "uint256",
          "name": "amount",
          "type": "uint256"
        }
      ],
      "name": "transfer",
      "outputs": [
        {
          "internalType": "bool",
          "name": "",
          "type": "bool"
        }
      ],
      "stateMutability": "nonpayable",
      "type": "function"
    },
    {
      "inputs": [
        {
          "internalType": "address",
          "name": "sender",
          "type": "address"
        },
        {
          "internalType": "address",
          "name": "recipient",
          "type": "address"
        },
        {
          "internalType": "uint256",
          "name": "amount",
          "type": "uint256"
        }
      ],
      "name": "transferFrom",
      "outputs": [
        {
          "internalType": "bool",
          "name": "",
          "type": "bool"
        }
      ],
      "stateMutability": "nonpayable",
      "type": "function"
    },
    {
      "stateMutability": "payable",
      "type": "receive"
    }
  ],
  "bytecode": {
    "object": "60806040526200001b683635c9adc5dea0000060001962000298565b620000299060001962000272565b600655600760085560056009556012805464ffffffffff60a01b19169055683635c9adc5dea000006013553480156200006157600080fd5b5060405162001fc238038062001fc283398101604081905262000084916200023a565b600080546001600160a01b031916339081178255604051909182917f8be0079c531659141344cd1fd0a4f28419497f9722a3daafe3b4186f6b6457e0908290a350600f80546001600160a01b038085166001600160a01b031992831617909255601080549284169290911691909117905560065460026000620001043390565b6001600160a01b03166001600160a01b03168152602001908152602001600020819055506001600560006200013e6200020e60201b60201c565b6001600160a01b03908116825260208083019390935260409182016000908120805495151560ff199687161790553081526005909352818320805485166001908117909155600f54821684528284208054861682179055601054909116835291208054909216179055620001af3390565b6001600160a01b031660006001600160a01b03167fddf252ad1be2c89b69c2b068fc378daa952ba7f163c4a11628f55a4df523b3ef683635c9adc5dea00000604051620001fe91815260200190565b60405180910390a35050620002bb565b6000546001600160a01b031690565b80516001600160a01b03811681146200023557600080fd5b919050565b600080604083850312156200024e57600080fd5b62000259836200021d565b915062000269602084016200021d565b90509250929050565b6000828210156200029357634e487b7160e01b600052601160045260246000fd5b500390565b600082620002b657634e487b7160e01b600052601260045260246000fd5b500690565b611cf780620002cb6000396000f3fe6080604052600436106101025760003560e01c8063715018a611610095578063c3c8cd8011610064578063c3c8cd80146102d2578063c9567bf9146102e7578063d543dbeb146102fc578063dd62ed3e1461031c578063e8078d941461036257600080fd5b8063715018a6146102485780638da5cb5b1461025d57806395d89b4114610285578063a9059cbb146102b257600080fd5b8063313ce567116100d1578063313ce567146101d55780635932ead1146101f15780636fc3eaec1461021357806370a082311461022857600080fd5b806306fdde031461010e578063095ea7b31461015f57806318160ddd1461018f57806323b872dd146101b557600080fd5b3661010957005b600080fd5b34801561011a57600080fd5b50604080518082019091526016815275546f6675496e75207c20742e6d652f746f6675696e7560501b60208201525b6040516101569190611ac4565b60405180910390f35b34801561016b57600080fd5b5061017f61017a366004611a17565b610377565b6040519015158152602001610156565b34801561019b57600080fd5b50683635c9adc5dea000005b604051908152602001610156565b3480156101c157600080fd5b5061017f6101d03660046119d6565b61038e565b3480156101e157600080fd5b5060405160098152602001610156565b3480156101fd57600080fd5b5061021161020c366004611a43565b6103f7565b005b34801561021f57600080fd5b50610211610448565b34801561023457600080fd5b506101a7610243366004611963565b610475565b34801561025457600080fd5b50610211610497565b34801561026957600080fd5b506000546040516001600160a01b039091168152602001610156565b34801561029157600080fd5b50604080518082019091526004815263544f465560e01b6020820152610149565b3480156102be57600080fd5b5061017f6102cd366004611a17565b61050b565b3480156102de57600080fd5b50610211610518565b3480156102f357600080fd5b5061021161054e565b34801561030857600080fd5b50610211610317366004611a7d565b6105a3565b34801561032857600080fd5b506101a761033736600461199d565b6001600160a01b03918216600090815260046020908152604080832093909416825291909152205490565b34801561036e57600080fd5b50610211610676565b60006103843384846109e4565b5060015b92915050565b600061039b848484610b08565b6103ed84336103e885604051806060016040528060288152602001611c9a602891396001600160a01b038a16600090815260046020908152604080832033845290915290205491906111d0565b6109e4565b5060019392505050565b6000546001600160a01b0316331461042a5760405162461bcd60e51b815260040161042190611b19565b60405180910390fd5b60128054911515600160c01b0260ff60c01b19909216919091179055565b600f546001600160a01b0316336001600160a01b03161461046857600080fd5b476104728161120a565b50565b6001600160a01b0381166000908152600260205260408120546103889061128f565b6000546001600160a01b031633146104c15760405162461bcd60e51b815260040161042190611b19565b600080546040516001600160a01b03909116907f8be0079c531659141344cd1fd0a4f28419497f9722a3daafe3b4186f6b6457e0908390a3600080546001600160a01b0319169055565b6000610384338484610b08565b600f546001600160a01b0316336001600160a01b03161461053857600080fd5b600061054330610475565b905061047281611313565b6000546001600160a01b031633146105785760405162461bcd60e51b815260040161042190611b19565b601254600160a81b900460ff1661058e57600080fd5b6012805460ff60a01b1916600160a01b179055565b6000546001600160a01b031633146105cd5760405162461bcd60e51b815260040161042190611b19565b6000811161061d5760405162461bcd60e51b815260206004820152601d60248201527f416d6f756e74206d7573742062652067726561746572207468616e20300000006044820152606401610421565b61063b6064610635683635c9adc5dea000008461149c565b9061151b565b60138190556040519081527f947f344d56e1e8c70dc492fb94c4ddddd490c016aab685f5e7e47b2e85cb44cf9060200160405180910390a150565b6000546001600160a01b031633146106a05760405162461bcd60e51b815260040161042190611b19565b601180546001600160a01b031916737a250d5630b4cf539739df2c5dacb4c659f2488d9081179091556106dd3082683635c9adc5dea000006109e4565b806001600160a01b031663c45a01556040518163ffffffff1660e01b815260040160206040518083038186803b15801561071657600080fd5b505afa15801561072a573d6000803e3d6000fd5b505050506040513d601f19601f8201168201806040525081019061074e9190611980565b6001600160a01b031663c9c6539630836001600160a01b031663ad5c46486040518163ffffffff1660e01b815260040160206040518083038186803b15801561079657600080fd5b505afa1580156107aa573d6000803e3d6000fd5b505050506040513d601f19601f820116820180604052508101906107ce9190611980565b6040516001600160e01b031960e085901b1681526001600160a01b03928316600482015291166024820152604401602060405180830381600087803b15801561081657600080fd5b505af115801561082a573d6000803e3d6000fd5b505050506040513d601f19601f8201168201806040525081019061084e9190611980565b601280546001600160a01b0319166001600160a01b039283161790556011541663f305d719473061087e81610475565b6000806108936000546001600160a01b031690565b60405160e088901b6001600160e01b03191681526001600160a01b03958616600482015260248101949094526044840192909252606483015290911660848201524260a482015260c4016060604051808303818588803b1580156108f657600080fd5b505af115801561090a573d6000803e3d6000fd5b50505050506040513d601f19601f8201168201806040525081019061092f9190611a96565b50506012805463ffff00ff60a81b198116630101000160a81b17909155681043561a882930000060135560115460405163095ea7b360e01b81526001600160a01b03918216600482015260001960248201529116915063095ea7b390604401602060405180830381600087803b1580156109a857600080fd5b505af11580156109bc573d6000803e3d6000fd5b505050506040513d601f19601f820116820180604052508101906109e09190611a60565b5050565b6001600160a01b038316610a465760405162461bcd60e51b8152602060048201526024808201527f45524332303a20617070726f76652066726f6d20746865207a65726f206164646044820152637265737360e01b6064820152608401610421565b6001600160a01b038216610aa75760405162461bcd60e51b815260206004820152602260248201527f45524332303a20617070726f766520746f20746865207a65726f206164647265604482015261737360f01b6064820152608401610421565b6001600160a01b0383811660008181526004602090815260408083209487168084529482529182902085905590518481527f8c5be1e5ebec7d5bd14f71427d1e84f3dd0314c0f7b2291e5b200ac8c7c3b925910160405180910390a3505050565b6001600160a01b038316610b6c5760405162461bcd60e51b815260206004820152602560248201527f45524332303a207472616e736665722066726f6d20746865207a65726f206164604482015264647265737360d81b6064820152608401610421565b6001600160a01b038216610bce5760405162461bcd60e51b815260206004820152602360248201527f45524332303a207472616e7366657220746f20746865207a65726f206164647260448201526265737360e81b6064820152608401610421565b60008111610c305760405162461bcd60e51b815260206004820152602960248201527f5472616e7366657220616d6f756e74206d7573742062652067726561746572206044820152687468616e207a65726f60b81b6064820152608401610421565b6000546001600160a01b03848116911614801590610c5c57506000546001600160a01b03838116911614155b1561117357601254600160c01b900460ff1615610d43576001600160a01b0383163014801590610c9557506001600160a01b0382163014155b8015610caf57506011546001600160a01b03848116911614155b8015610cc957506011546001600160a01b03838116911614155b15610d43576011546001600160a01b0316336001600160a01b03161480610d0357506012546001600160a01b0316336001600160a01b0316145b610d435760405162461bcd60e51b81526020600482015260116024820152704552523a20556e6973776170206f6e6c7960781b6044820152606401610421565b6001600160a01b0383166000908152600a602052604090205460ff16158015610d8557506001600160a01b0382166000908152600a602052604090205460ff16155b610d8e57600080fd5b6012546001600160a01b038481169116148015610db957506011546001600160a01b03838116911614155b8015610dde57506001600160a01b03821660009081526005602052604090205460ff16155b8015610df35750601254600160c01b900460ff165b15610e7057601254600160a01b900460ff16610e0e57600080fd5b601354811115610e1d57600080fd5b6001600160a01b0382166000908152600b60205260409020544211610e4157600080fd5b610e4c42601e611bbf565b6001600160a01b0383166000908152600b6020526040902055600660095560026008555b6000610e7b30610475565b601254909150600160b01b900460ff16158015610ea657506012546001600160a01b03858116911614155b8015610ebb5750601254600160b81b900460ff165b1561117157601254610ee99060649061063590600390610ee3906001600160a01b0316610475565b9061149c565b8211158015610efa57506013548211155b610f0357600080fd5b6001600160a01b0384166000908152600c60205260409020544211610f2757600080fd5b6001600160a01b0384166000908152600d60205260409020544290610f4f9062015180611bbf565b1015610f6f576001600160a01b0384166000908152600e60205260408120555b6001600160a01b0384166000908152600e6020526040902054610ffc576001600160a01b0384166000908152600e60205260408120805491610fb083611c2f565b90915550506001600160a01b0384166000908152600d602052604090204290819055610fde90610e10611bbf565b6001600160a01b0385166000908152600c6020526040902055611134565b6001600160a01b0384166000908152600e602052604090205460011415611053576001600160a01b0384166000908152600e6020526040812080549161104183611c2f565b90915550610fde905042611c20611bbf565b6001600160a01b0384166000908152600e6020526040902054600214156110aa576001600160a01b0384166000908152600e6020526040812080549161109883611c2f565b90915550610fde905042615460611bbf565b6001600160a01b0384166000908152600e602052604090205460031415611134576001600160a01b0384166000908152600e602052604081208054916110ef83611c2f565b90915550506001600160a01b0384166000908152600d602052604090205461111a9062015180611bbf565b6001600160a01b0385166000908152600c60205260409020555b61113d81611313565b47801561114d5761114d4761120a565b6001600160a01b0385166000908152600e602052604090205461116f9061155d565b505b505b6001600160a01b03831660009081526005602052604090205460019060ff16806111b557506001600160a01b03831660009081526005602052604090205460ff165b156111be575060005b6111ca8484848461157f565b50505050565b600081848411156111f45760405162461bcd60e51b81526004016104219190611ac4565b5060006112018486611c18565b95945050505050565b600f546001600160a01b03166108fc61122483600261151b565b6040518115909202916000818181858888f1935050505015801561124c573d6000803e3d6000fd5b506010546001600160a01b03166108fc61126783600261151b565b6040518115909202916000818181858888f193505050501580156109e0573d6000803e3d6000fd5b60006006548211156112f65760405162461bcd60e51b815260206004820152602a60248201527f416d6f756e74206d757374206265206c657373207468616e20746f74616c207260448201526965666c656374696f6e7360b01b6064820152608401610421565b60006113006115ab565b905061130c838261151b565b9392505050565b6012805460ff60b01b1916600160b01b179055604080516002808252606082018352600092602083019080368337019050509050308160008151811061135b5761135b611c60565b6001600160a01b03928316602091820292909201810191909152601154604080516315ab88c960e31b81529051919093169263ad5c4648926004808301939192829003018186803b1580156113af57600080fd5b505afa1580156113c3573d6000803e3d6000fd5b505050506040513d601f19601f820116820180604052508101906113e79190611980565b816001815181106113fa576113fa611c60565b6001600160a01b03928316602091820292909201015260115461142091309116846109e4565b60115460405163791ac94760e01b81526001600160a01b039091169063791ac94790611459908590600090869030904290600401611b4e565b600060405180830381600087803b15801561147357600080fd5b505af1158015611487573d6000803e3d6000fd5b50506012805460ff60b01b1916905550505050565b6000826114ab57506000610388565b60006114b78385611bf9565b9050826114c48583611bd7565b1461130c5760405162461bcd60e51b815260206004820152602160248201527f536166654d6174683a206d756c7469706c69636174696f6e206f766572666c6f6044820152607760f81b6064820152608401610421565b600061130c83836040518060400160405280601a81526020017f536166654d6174683a206469766973696f6e206279207a65726f0000000000008152506115ce565b8060085461156b9190611bf9565b600855600181111561047257600a60095550565b8061158c5761158c6115fc565b61159784848461161f565b806111ca576111ca60076008556005600955565b60008060006115b8611716565b90925090506115c7828261151b565b9250505090565b600081836115ef5760405162461bcd60e51b81526004016104219190611ac4565b5060006112018486611bd7565b60085415801561160c5750600954155b1561161357565b60006008819055600955565b60008060008060008061163187611758565b6001600160a01b038f16600090815260026020526040902054959b5093995091975095509350915061166390876117b5565b6001600160a01b03808b1660009081526002602052604080822093909355908a168152205461169290866117f7565b6001600160a01b0389166000908152600260205260409020556116b481611856565b6116be84836118a0565b876001600160a01b0316896001600160a01b03167fddf252ad1be2c89b69c2b068fc378daa952ba7f163c4a11628f55a4df523b3ef8560405161170391815260200190565b60405180910390a3505050505050505050565b6006546000908190683635c9adc5dea00000611732828261151b565b82101561174f57505060065492683635c9adc5dea0000092509050565b90939092509050565b60008060008060008060008060006117758a6008546009546118c4565b92509250925060006117856115ab565b905060008060006117988e878787611913565b919e509c509a509598509396509194505050505091939550919395565b600061130c83836040518060400160405280601e81526020017f536166654d6174683a207375627472616374696f6e206f766572666c6f7700008152506111d0565b6000806118048385611bbf565b90508381101561130c5760405162461bcd60e51b815260206004820152601b60248201527f536166654d6174683a206164646974696f6e206f766572666c6f7700000000006044820152606401610421565b60006118606115ab565b9050600061186e838361149c565b3060009081526002602052604090205490915061188b90826117f7565b30600090815260026020526040902055505050565b6006546118ad90836117b5565b6006556007546118bd90826117f7565b6007555050565b60008080806118d86064610635898961149c565b905060006118eb60646106358a8961149c565b90506000611903826118fd8b866117b5565b906117b5565b9992985090965090945050505050565b6000808080611922888661149c565b90506000611930888761149c565b9050600061193e888861149c565b90506000611950826118fd86866117b5565b939b939a50919850919650505050505050565b60006020828403121561197557600080fd5b813561130c81611c76565b60006020828403121561199257600080fd5b815161130c81611c76565b600080604083850312156119b057600080fd5b82356119bb81611c76565b915060208301356119cb81611c76565b809150509250929050565b6000806000606084860312156119eb57600080fd5b83356119f681611c76565b92506020840135611a0681611c76565b929592945050506040919091013590565b60008060408385031215611a2a57600080fd5b8235611a3581611c76565b946020939093013593505050565b600060208284031215611a5557600080fd5b813561130c81611c8b565b600060208284031215611a7257600080fd5b815161130c81611c8b565b600060208284031215611a8f57600080fd5b5035919050565b600080600060608486031215611aab57600080fd5b8351925060208401519150604084015190509250925092565b600060208083528351808285015260005b81811015611af157858101830151858201604001528201611ad5565b81811115611b03576000604083870101525b50601f01601f1916929092016040019392505050565b6020808252818101527f4f776e61626c653a2063616c6c6572206973206e6f7420746865206f776e6572604082015260600190565b600060a082018783526020878185015260a0604085015281875180845260c086019150828901935060005b81811015611b9e5784516001600160a01b031683529383019391830191600101611b79565b50506001600160a01b03969096166060850152505050608001529392505050565b60008219821115611bd257611bd2611c4a565b500190565b600082611bf457634e487b7160e01b600052601260045260246000fd5b500490565b6000816000190483118215151615611c1357611c13611c4a565b500290565b600082821015611c2a57611c2a611c4a565b500390565b6000600019821415611c4357611c43611c4a565b5060010190565b634e487b7160e01b600052601160045260246000fd5b634e487b7160e01b600052603260045260246000fd5b6001600160a01b038116811461047257600080fd5b801515811461047257600080fdfe45524332303a207472616e7366657220616d6f756e74206578636565647320616c6c6f77616e6365a2646970667358221220a2deb0fd3d18240acf2eb39ab63de5f10105236ed4066f641bdaa0f9e54015e664736f6c63430008050033"
  }
}