{
  "opcodeHash": "0x07175244943e9029ea3966a1df7b447bdc801e7a5efd9962b507495ea9d2d238",
  "metalessHash": "0x5754b7fc7a8a39798d8db4990885ef4988fda83e4c4d936abfcfce1a2a4aad6d",
  "runtimeHash": "0xf2ce203279960d748a97b26f2d57fa9062ca6a3ee0c18c92f8837f5062195fe0",
  "encodedMetadata": [
    {
      "ipfs": "/ipfs/QmdRRJaQjhGcMm1zWaMFzfNuTUHpj67TAwKbtfdeFof1NE",
      "solc": "0.8.9"
    }
  ],
  "abi": [
    {
      "inputs": [],
      "stateMutability": "nonpayable",
      "type": "constructor"
    },
    {
      "anonymous": false,
      "inputs": [
        {
          "indexed": true,
          "internalType": "address",
          "name": "owner",
          "type": "address"
        },
        {
          "indexed": true,
          "internalType": "address",
          "name": "spender",
          "type": "address"
        },
        {
          "indexed": false,
          "internalType": "uint256",
          "name": "value",
          "type": "uint256"
        }
      ],
      "name": "Approval",
      "type": "event"
    },
    {
      "anonymous": false,
      "inputs": [
        {
          "indexed": true,
          "internalType": "address",
          "name": "previousOwner",
          "type": "address"
        },
        {
          "indexed": true,
          "internalType": "address",
          "name": "newOwner",
          "type": "address"
        }
      ],
      "name": "OwnershipTransferred",
      "type": "event"
    },
    {
      "anonymous": false,
      "inputs": [
        {
          "indexed": false,
          "internalType": "uint256",
          "name": "tokensSwapped",
          "type": "uint256"
        },
        {
          "indexed": false,
          "internalType": "uint256",
          "name": "ethReceived",
          "type": "uint256"
        },
        {
          "indexed": false,
          "internalType": "uint256",
          "name": "tokensIntoLiqudity",
          "type": "uint256"
        }
      ],
      "name": "SwapAndLiquify",
      "type": "event"
    },
    {
      "anonymous": false,
      "inputs": [
        {
          "indexed": false,
          "internalType": "bool",
          "name": "enabled",
          "type": "bool"
        }
      ],
      "name": "SwapAndLiquifyEnabledUpdated",
      "type": "event"
    },
    {
      "anonymous": false,
      "inputs": [
        {
          "indexed": true,
          "internalType": "address",
          "name": "from",
          "type": "address"
        },
        {
          "indexed": true,
          "internalType": "address",
          "name": "to",
          "type": "address"
        },
        {
          "indexed": false,
          "internalType": "uint256",
          "name": "value",
          "type": "uint256"
        }
      ],
      "name": "Transfer",
      "type": "event"
    },
    {
      "inputs": [
        {
          "internalType": "bool",
          "name": "value",
          "type": "bool"
        }
      ],
      "name": "TxAmountDisabled",
      "outputs": [],
      "stateMutability": "nonpayable",
      "type": "function"
    },
    {
      "inputs": [
        {
          "internalType": "address",
          "name": "",
          "type": "address"
        }
      ],
      "name": "_blackList",
      "outputs": [
        {
          "internalType": "bool",
          "name": "",
          "type": "bool"
        }
      ],
      "stateMutability": "view",
      "type": "function"
    },
    {
      "inputs": [],
      "name": "_burnFeeTotal",
      "outputs": [
        {
          "internalType": "uint256",
          "name": "",
          "type": "uint256"
        }
      ],
      "stateMutability": "view",
      "type": "function"
    },
    {
      "inputs": [],
      "name": "_devFee",
      "outputs": [
        {
          "internalType": "uint256",
          "name": "",
          "type": "uint256"
        }
      ],
      "stateMutability": "view",
      "type": "function"
    },
    {
      "inputs": [],
      "name": "_feeDecimal",
      "outputs": [
        {
          "internalType": "uint256",
          "name": "",
          "type": "uint256"
        }
      ],
      "stateMutability": "view",
      "type": "function"
    },
    {
      "inputs": [],
      "name": "_liquidityFeeTotal",
      "outputs": [
        {
          "internalType": "uint256",
          "name": "",
          "type": "uint256"
        }
      ],
      "stateMutability": "view",
      "type": "function"
    },
    {
      "inputs": [],
      "name": "_marketingFee",
      "outputs": [
        {
          "internalType": "uint256",
          "name": "",
          "type": "uint256"
        }
      ],
      "stateMutability": "view",
      "type": "function"
    },
    {
      "inputs": [
        {
          "internalType": "address",
          "name": "",
          "type": "address"
        }
      ],
      "name": "_maxAmount",
      "outputs": [
        {
          "internalType": "bool",
          "name": "",
          "type": "bool"
        }
      ],
      "stateMutability": "view",
      "type": "function"
    },
    {
      "inputs": [],
      "name": "_taxFee",
      "outputs": [
        {
          "internalType": "uint256",
          "name": "",
          "type": "uint256"
        }
      ],
      "stateMutability": "view",
      "type": "function"
    },
    {
      "inputs": [],
      "name": "_taxFeeTotal",
      "outputs": [
        {
          "internalType": "uint256",
          "name": "",
          "type": "uint256"
        }
      ],
      "stateMutability": "view",
      "type": "function"
    },
    {
      "inputs": [
        {
          "internalType": "address",
          "name": "owner",
          "type": "address"
        },
        {
          "internalType": "address",
          "name": "spender",
          "type": "address"
        }
      ],
      "name": "allowance",
      "outputs": [
        {
          "internalType": "uint256",
          "name": "",
          "type": "uint256"
        }
      ],
      "stateMutability": "view",
      "type": "function"
    },
    {
      "inputs": [
        {
          "internalType": "address",
          "name": "spender",
          "type": "address"
        },
        {
          "internalType": "uint256",
          "name": "amount",
          "type": "uint256"
        }
      ],
      "name": "approve",
      "outputs": [
        {
          "internalType": "bool",
          "name": "",
          "type": "bool"
        }
      ],
      "stateMutability": "nonpayable",
      "type": "function"
    },
    {
      "inputs": [
        {
          "internalType": "address",
          "name": "account",
          "type": "address"
        }
      ],
      "name": "balanceOf",
      "outputs": [
        {
          "internalType": "uint256",
          "name": "",
          "type": "uint256"
        }
      ],
      "stateMutability": "view",
      "type": "function"
    },
    {
      "inputs": [],
      "name": "decimals",
      "outputs": [
        {
          "internalType": "uint8",
          "name": "",
          "type": "uint8"
        }
      ],
      "stateMutability": "view",
      "type": "function"
    },
    {
      "inputs": [
        {
          "internalType": "address",
          "name": "spender",
          "type": "address"
        },
        {
          "internalType": "uint256",
          "name": "subtractedValue",
          "type": "uint256"
        }
      ],
      "name": "decreaseAllowance",
      "outputs": [
        {
          "internalType": "bool",
          "name": "",
          "type": "bool"
        }
      ],
      "stateMutability": "nonpayable",
      "type": "function"
    },
    {
      "inputs": [
        {
          "internalType": "address",
          "name": "account",
          "type": "address"
        }
      ],
      "name": "excludeAccount",
      "outputs": [],
      "stateMutability": "nonpayable",
      "type": "function"
    },
    {
      "inputs": [
        {
          "internalType": "address",
          "name": "_address",
          "type": "address"
        },
        {
          "internalType": "bool",
          "name": "value",
          "type": "bool"
        }
      ],
      "name": "exemptMaxTxAmountAddress",
      "outputs": [],
      "stateMutability": "nonpayable",
      "type": "function"
    },
    {
      "inputs": [
        {
          "internalType": "address",
          "name": "account",
          "type": "address"
        }
      ],
      "name": "includeAccount",
      "outputs": [],
      "stateMutability": "nonpayable",
      "type": "function"
    },
    {
      "inputs": [
        {
          "internalType": "address",
          "name": "spender",
          "type": "address"
        },
        {
          "internalType": "uint256",
          "name": "addedValue",
          "type": "uint256"
        }
      ],
      "name": "increaseAllowance",
      "outputs": [
        {
          "internalType": "bool",
          "name": "",
          "type": "bool"
        }
      ],
      "stateMutability": "nonpayable",
      "type": "function"
    },
    {
      "inputs": [
        {
          "internalType": "address",
          "name": "account",
          "type": "address"
        }
      ],
      "name": "isExcluded",
      "outputs": [
        {
          "internalType": "bool",
          "name": "",
          "type": "bool"
        }
      ],
      "stateMutability": "view",
      "type": "function"
    },
    {
      "inputs": [],
      "name": "isFeeActive",
      "outputs": [
        {
          "internalType": "bool",
          "name": "",
          "type": "bool"
        }
      ],
      "stateMutability": "view",
      "type": "function"
    },
    {
      "inputs": [],
      "name": "maxTxAmount",
      "outputs": [
        {
          "internalType": "uint256",
          "name": "",
          "type": "uint256"
        }
      ],
      "stateMutability": "view",
      "type": "function"
    },
    {
      "inputs": [],
      "name": "minTokensBeforeSwap",
      "outputs": [
        {
          "internalType": "uint256",
          "name": "",
          "type": "uint256"
        }
      ],
      "stateMutability": "view",
      "type": "function"
    },
    {
      "inputs": [],
      "name": "name",
      "outputs": [
        {
          "internalType": "string",
          "name": "",
          "type": "string"
        }
      ],
      "stateMutability": "view",
      "type": "function"
    },
    {
      "inputs": [],
      "name": "owner",
      "outputs": [
        {
          "internalType": "address",
          "name": "",
          "type": "address"
        }
      ],
      "stateMutability": "view",
      "type": "function"
    },
    {
      "inputs": [
        {
          "internalType": "uint256",
          "name": "tokenAmount",
          "type": "uint256"
        },
        {
          "internalType": "bool",
          "name": "deductTransferFee",
          "type": "bool"
        }
      ],
      "name": "reflectionFromToken",
      "outputs": [
        {
          "internalType": "uint256",
          "name": "",
          "type": "uint256"
        }
      ],
      "stateMutability": "view",
      "type": "function"
    },
    {
      "inputs": [],
      "name": "renounceOwnership",
      "outputs": [],
      "stateMutability": "nonpayable",
      "type": "function"
    },
    {
      "inputs": [
        {
          "internalType": "address",
          "name": "_address",
          "type": "address"
        },
        {
          "internalType": "bool",
          "name": "value",
          "type": "bool"
        }
      ],
      "name": "setBlackList",
      "outputs": [],
      "stateMutability": "nonpayable",
      "type": "function"
    },
    {
      "inputs": [
        {
          "internalType": "uint256",
          "name": "fee",
          "type": "uint256"
        }
      ],
      "name": "setDevFee",
      "outputs": [],
      "stateMutability": "nonpayable",
      "type": "function"
    },
    {
      "inputs": [
        {
          "internalType": "bool",
          "name": "value",
          "type": "bool"
        }
      ],
      "name": "setFeeActive",
      "outputs": [],
      "stateMutability": "nonpayable",
      "type": "function"
    },
    {
      "inputs": [
        {
          "internalType": "address",
          "name": "add",
          "type": "address"
        }
      ],
      "name": "setMarketingAddress",
      "outputs": [],
      "stateMutability": "nonpayable",
      "type": "function"
    },
    {
      "inputs": [
        {
          "internalType": "uint256",
          "name": "fee",
          "type": "uint256"
        }
      ],
      "name": "setMarketingFee",
      "outputs": [],
      "stateMutability": "nonpayable",
      "type": "function"
    },
    {
      "inputs": [
        {
          "internalType": "uint256",
          "name": "amount",
          "type": "uint256"
        }
      ],
      "name": "setMaxTxAmount",
      "outputs": [],
      "stateMutability": "nonpayable",
      "type": "function"
    },
    {
      "inputs": [
        {
          "internalType": "uint256",
          "name": "amount",
          "type": "uint256"
        }
      ],
      "name": "setMinTokensBeforeSwap",
      "outputs": [],
      "stateMutability": "nonpayable",
      "type": "function"
    },
    {
      "inputs": [
        {
          "internalType": "address",
          "name": "pair",
          "type": "address"
        }
      ],
      "name": "setPair",
      "outputs": [],
      "stateMutability": "nonpayable",
      "type": "function"
    },
    {
      "inputs": [
        {
          "internalType": "uint256",
          "name": "fee",
          "type": "uint256"
        }
      ],
      "name": "setTaxFee",
      "outputs": [],
      "stateMutability": "nonpayable",
      "type": "function"
    },
    {
      "inputs": [
        {
          "internalType": "address",
          "name": "account",
          "type": "address"
        },
        {
          "internalType": "bool",
          "name": "value",
          "type": "bool"
        }
      ],
      "name": "setTaxless",
      "outputs": [],
      "stateMutability": "nonpayable",
      "type": "function"
    },
    {
      "inputs": [
        {
          "internalType": "bool",
          "name": "value",
          "type": "bool"
        }
      ],
      "name": "setTrading",
      "outputs": [],
      "stateMutability": "nonpayable",
      "type": "function"
    },
    {
      "inputs": [],
      "name": "swapAndLiquifyEnabled",
      "outputs": [
        {
          "internalType": "bool",
          "name": "",
          "type": "bool"
        }
      ],
      "stateMutability": "view",
      "type": "function"
    },
    {
      "inputs": [],
      "name": "symbol",
      "outputs": [
        {
          "internalType": "string",
          "name": "",
          "type": "string"
        }
      ],
      "stateMutability": "view",
      "type": "function"
    },
    {
      "inputs": [
        {
          "internalType": "uint256",
          "name": "reflectionAmount",
          "type": "uint256"
        }
      ],
      "name": "tokenFromReflection",
      "outputs": [
        {
          "internalType": "uint256",
          "name": "",
          "type": "uint256"
        }
      ],
      "stateMutability": "view",
      "type": "function"
    },
    {
      "inputs": [],
      "name": "totalSupply",
      "outputs": [
        {
          "internalType": "uint256",
          "name": "",
          "type": "uint256"
        }
      ],
      "stateMutability": "view",
      "type": "function"
    },
    {
      "inputs": [
        {
          "internalType": "address",
          "name": "recipient",
          "type": "address"
        },
        {
          "internalType": "uint256",
          "name": "amount",
          "type": "uint256"
        }
      ],
      "name": "transfer",
      "outputs": [
        {
          "internalType": "bool",
          "name": "",
          "type": "bool"
        }
      ],
      "stateMutability": "nonpayable",
      "type": "function"
    },
    {
      "inputs": [
        {
          "internalType": "address",
          "name": "sender",
          "type": "address"
        },
        {
          "internalType": "address",
          "name": "recipient",
          "type": "address"
        },
        {
          "internalType": "uint256",
          "name": "amount",
          "type": "uint256"
        }
      ],
      "name": "transferFrom",
      "outputs": [
        {
          "internalType": "bool",
          "name": "",
          "type": "bool"
        }
      ],
      "stateMutability": "nonpayable",
      "type": "function"
    },
    {
      "inputs": [
        {
          "internalType": "address",
          "name": "newOwner",
          "type": "address"
        }
      ],
      "name": "transferOwnership",
      "outputs": [],
      "stateMutability": "nonpayable",
      "type": "function"
    },
    {
      "inputs": [],
      "name": "uniswapV2Pair",
      "outputs": [
        {
          "internalType": "address",
          "name": "",
          "type": "address"
        }
      ],
      "stateMutability": "view",
      "type": "function"
    },
    {
      "inputs": [],
      "name": "uniswapV2Router",
      "outputs": [
        {
          "internalType": "contract IUniswapV2Router02",
          "name": "",
          "type": "address"
        }
      ],
      "stateMutability": "view",
      "type": "function"
    },
    {
      "stateMutability": "payable",
      "type": "receive"
    }
  ],
  "bytecode": {
    "object": "60806040526040518060400160405280600f81526020017f4a61636b6965204368616e20496e750000000000000000000000000000000000815250600190805190602001906200005192919062000968565b506040518060400160405280600581526020017f4a4348414e000000000000000000000000000000000000000000000000000000815250600290805190602001906200009f92919062000968565b506012600360006101000a81548160ff021916908360ff1602179055506c0c9f2c9cd04674edea40000000600a55600a54600019620000df919062000a51565b600019620000ee919062000ab8565b600b556002600f5560c86010556103846011556103846012557380ea66e1ce202e36c7bd9b76a44ef6ea809a9b50601360006101000a81548173ffffffffffffffffffffffffffffffffffffffff021916908373ffffffffffffffffffffffffffffffffffffffff1602179055507380ea66e1ce202e36c7bd9b76a44ef6ea809a9b50601460006101000a81548173ffffffffffffffffffffffffffffffffffffffff021916908373ffffffffffffffffffffffffffffffffffffffff1602179055506001601860006101000a81548160ff0219169083151502179055506001601860026101000a81548160ff0219169083151502179055506001601860036101000a81548160ff0219169083151502179055506000601860046101000a81548160ff0219169083151502179055506b204fce5e3e250261100000006019556a52b7d2dcc80cd2e4000000601a553480156200024957600080fd5b5060006200025c6200093760201b60201c565b9050806000806101000a81548173ffffffffffffffffffffffffffffffffffffffff021916908373ffffffffffffffffffffffffffffffffffffffff1602179055508073ffffffffffffffffffffffffffffffffffffffff16600073ffffffffffffffffffffffffffffffffffffffff167f8be0079c531659141344cd1fd0a4f28419497f9722a3daafe3b4186f6b6457e060405160405180910390a3506000737a250d5630b4cf539739df2c5dacb4c659f2488d90508073ffffffffffffffffffffffffffffffffffffffff1663c45a01556040518163ffffffff1660e01b815260040160206040518083038186803b1580156200035a57600080fd5b505afa1580156200036f573d6000803e3d6000fd5b505050506040513d601f19601f8201168201806040525081019062000395919062000b5d565b73ffffffffffffffffffffffffffffffffffffffff1663c9c65396308373ffffffffffffffffffffffffffffffffffffffff1663ad5c46486040518163ffffffff1660e01b815260040160206040518083038186803b158015620003f857600080fd5b505afa1580156200040d573d6000803e3d6000fd5b505050506040513d601f19601f8201168201806040525081019062000433919062000b5d565b6040518363ffffffff1660e01b81526004016200045292919062000ba0565b602060405180830381600087803b1580156200046d57600080fd5b505af115801562000482573d6000803e3d6000fd5b505050506040513d601f19601f82011682018060405250810190620004a8919062000b5d565b601c60006101000a81548173ffffffffffffffffffffffffffffffffffffffff021916908373ffffffffffffffffffffffffffffffffffffffff16021790555080601b60006101000a81548173ffffffffffffffffffffffffffffffffffffffff021916908373ffffffffffffffffffffffffffffffffffffffff1602179055506001600c60006200053f6200093f60201b60201c565b73ffffffffffffffffffffffffffffffffffffffff1673ffffffffffffffffffffffffffffffffffffffff16815260200190815260200160002060006101000a81548160ff0219169083151502179055506001600c60003073ffffffffffffffffffffffffffffffffffffffff1673ffffffffffffffffffffffffffffffffffffffff16815260200190815260200160002060006101000a81548160ff021916908315150217905550600160086000620005fe6200093f60201b60201c565b73ffffffffffffffffffffffffffffffffffffffff1673ffffffffffffffffffffffffffffffffffffffff16815260200190815260200160002060006101000a81548160ff0219169083151502179055506001600860003073ffffffffffffffffffffffffffffffffffffffff1673ffffffffffffffffffffffffffffffffffffffff16815260200190815260200160002060006101000a81548160ff0219169083151502179055506001600d6000601c60009054906101000a900473ffffffffffffffffffffffffffffffffffffffff1673ffffffffffffffffffffffffffffffffffffffff1673ffffffffffffffffffffffffffffffffffffffff16815260200190815260200160002060006101000a81548160ff021916908315150217905550600e601c60009054906101000a900473ffffffffffffffffffffffffffffffffffffffff169080600181540180825580915050600190039060005260206000200160009091909190916101000a81548173ffffffffffffffffffffffffffffffffffffffff021916908373ffffffffffffffffffffffffffffffffffffffff1602179055506001600d60008073ffffffffffffffffffffffffffffffffffffffff1673ffffffffffffffffffffffffffffffffffffffff16815260200190815260200160002060006101000a81548160ff021916908315150217905550600e60009080600181540180825580915050600190039060005260206000200160009091909190916101000a81548173ffffffffffffffffffffffffffffffffffffffff021916908373ffffffffffffffffffffffffffffffffffffffff160217905550600b5460046000620008796200093f60201b60201c565b73ffffffffffffffffffffffffffffffffffffffff1673ffffffffffffffffffffffffffffffffffffffff16815260200190815260200160002081905550620008c76200093f60201b60201c565b73ffffffffffffffffffffffffffffffffffffffff16600073ffffffffffffffffffffffffffffffffffffffff167fddf252ad1be2c89b69c2b068fc378daa952ba7f163c4a11628f55a4df523b3ef600a5460405162000928919062000bde565b60405180910390a35062000c60565b600033905090565b60008060009054906101000a900473ffffffffffffffffffffffffffffffffffffffff16905090565b828054620009769062000c2a565b90600052602060002090601f0160209004810192826200099a5760008555620009e6565b82601f10620009b557805160ff1916838001178555620009e6565b82800160010185558215620009e6579182015b82811115620009e5578251825591602001919060010190620009c8565b5b509050620009f59190620009f9565b5090565b5b8082111562000a14576000816000905550600101620009fa565b5090565b6000819050919050565b7f4e487b7100000000000000000000000000000000000000000000000000000000600052601260045260246000fd5b600062000a5e8262000a18565b915062000a6b8362000a18565b92508262000a7e5762000a7d62000a22565b5b828206905092915050565b7f4e487b7100000000000000000000000000000000000000000000000000000000600052601160045260246000fd5b600062000ac58262000a18565b915062000ad28362000a18565b92508282101562000ae85762000ae762000a89565b5b828203905092915050565b600080fd5b600073ffffffffffffffffffffffffffffffffffffffff82169050919050565b600062000b258262000af8565b9050919050565b62000b378162000b18565b811462000b4357600080fd5b50565b60008151905062000b578162000b2c565b92915050565b60006020828403121562000b765762000b7562000af3565b5b600062000b868482850162000b46565b91505092915050565b62000b9a8162000b18565b82525050565b600060408201905062000bb7600083018562000b8f565b62000bc6602083018462000b8f565b9392505050565b62000bd88162000a18565b82525050565b600060208201905062000bf5600083018462000bcd565b92915050565b7f4e487b7100000000000000000000000000000000000000000000000000000000600052602260045260246000fd5b6000600282049050600182168062000c4357607f821691505b6020821081141562000c5a5762000c5962000bfb565b5b50919050565b6151228062000c706000396000f3fe60806040526004361061028c5760003560e01c806370a082311161015a578063b7bfff65116100c1578063e5247f1e1161007a578063e5247f1e14610a29578063e5d41c6b14610a52578063ec28438a14610a7d578063f2cc0c1814610aa6578063f2fde38b14610acf578063f84354f114610af857610293565b8063b7bfff65146108f5578063c4081a4c1461091e578063cba0e99614610947578063cc815ca914610984578063dd62ed3e146109c1578063e43504da146109fe57610293565b8063906e9dd011610113578063906e9dd0146107d157806395d89b41146107fa5780639d46cf8a14610825578063a457c2d714610850578063a9059cbb1461088d578063aa45026b146108ca57610293565b806370a08231146106d5578063715018a6146107125780638187f516146107295780638c0b5e22146107525780638da5cb5b1461077d5780638f70ccf7146107a857610293565b8063355bc60b116101fe57806348a46473116101b757806348a46473146105c757806349bd5a5e146105f05780634a74bb021461061b578063595dec3c14610646578063625e764c1461068357806368092bd9146106ac57610293565b8063355bc60b146104a557806339509351146104d05780633b124fe71461050d578063442e41b5146105385780634549b0391461056157806347f2dc5b1461059e57610293565b806319db457d1161025057806319db457d146103815780631c75b6b2146103ac57806322976e0d146103d557806323b872dd146104005780632d8381191461043d578063313ce5671461047a57610293565b806306fdde0314610298578063095ea7b3146102c35780630d9a5219146103005780631694505e1461032b57806318160ddd1461035657610293565b3661029357005b600080fd5b3480156102a457600080fd5b506102ad610b21565b6040516102ba9190613e84565b60405180910390f35b3480156102cf57600080fd5b506102ea60048036038101906102e59190613f3f565b610bb3565b6040516102f79190613f9a565b60405180910390f35b34801561030c57600080fd5b50610315610bd1565b6040516103229190613fc4565b60405180910390f35b34801561033757600080fd5b50610340610bd7565b60405161034d919061403e565b60405180910390f35b34801561036257600080fd5b5061036b610bfd565b6040516103789190613fc4565b60405180910390f35b34801561038d57600080fd5b50610396610c07565b6040516103a39190613fc4565b60405180910390f35b3480156103b857600080fd5b506103d360048036038101906103ce9190614059565b610c0d565b005b3480156103e157600080fd5b506103ea610cac565b6040516103f79190613fc4565b60405180910390f35b34801561040c57600080fd5b5061042760048036038101906104229190614086565b610cb2565b6040516104349190613f9a565b60405180910390f35b34801561044957600080fd5b50610464600480360381019061045f9190614059565b610d8b565b6040516104719190613fc4565b60405180910390f35b34801561048657600080fd5b5061048f610df9565b60405161049c91906140f5565b60405180910390f35b3480156104b157600080fd5b506104ba610e10565b6040516104c79190613fc4565b60405180910390f35b3480156104dc57600080fd5b506104f760048036038101906104f29190613f3f565b610e16565b6040516105049190613f9a565b60405180910390f35b34801561051957600080fd5b50610522610ec9565b60405161052f9190613fc4565b60405180910390f35b34801561054457600080fd5b5061055f600480360381019061055a919061413c565b610ecf565b005b34801561056d57600080fd5b506105886004803603810190610583919061417c565b610fbf565b6040516105959190613fc4565b60405180910390f35b3480156105aa57600080fd5b506105c560048036038101906105c0919061413c565b6110a1565b005b3480156105d357600080fd5b506105ee60048036038101906105e99190614059565b611191565b005b3480156105fc57600080fd5b50610605611230565b60405161061291906141cb565b60405180910390f35b34801561062757600080fd5b50610630611256565b60405161063d9190613f9a565b60405180910390f35b34801561065257600080fd5b5061066d600480360381019061066891906141e6565b611269565b60405161067a9190613f9a565b60405180910390f35b34801561068f57600080fd5b506106aa60048036038101906106a59190614059565b611289565b005b3480156106b857600080fd5b506106d360048036038101906106ce919061413c565b611328565b005b3480156106e157600080fd5b506106fc60048036038101906106f791906141e6565b611418565b6040516107099190613fc4565b60405180910390f35b34801561071e57600080fd5b50610727611503565b005b34801561073557600080fd5b50610750600480360381019061074b91906141e6565b611656565b005b34801561075e57600080fd5b5061076761172f565b6040516107749190613fc4565b60405180910390f35b34801561078957600080fd5b50610792611735565b60405161079f91906141cb565b60405180910390f35b3480156107b457600080fd5b506107cf60048036038101906107ca9190614213565b61175e565b005b3480156107dd57600080fd5b506107f860048036038101906107f391906141e6565b611810565b005b34801561080657600080fd5b5061080f6118e9565b60405161081c9190613e84565b60405180910390f35b34801561083157600080fd5b5061083a61197b565b6040516108479190613fc4565b60405180910390f35b34801561085c57600080fd5b5061087760048036038101906108729190613f3f565b611981565b6040516108849190613f9a565b60405180910390f35b34801561089957600080fd5b506108b460048036038101906108af9190613f3f565b611a4e565b6040516108c19190613f9a565b60405180910390f35b3480156108d657600080fd5b506108df611a6c565b6040516108ec9190613fc4565b60405180910390f35b34801561090157600080fd5b5061091c60048036038101906109179190614213565b611a72565b005b34801561092a57600080fd5b5061094560048036038101906109409190614059565b611b24565b005b34801561095357600080fd5b5061096e600480360381019061096991906141e6565b611bc3565b60405161097b9190613f9a565b60405180910390f35b34801561099057600080fd5b506109ab60048036038101906109a691906141e6565b611c19565b6040516109b89190613f9a565b60405180910390f35b3480156109cd57600080fd5b506109e860048036038101906109e39190614240565b611c39565b6040516109f59190613fc4565b60405180910390f35b348015610a0a57600080fd5b50610a13611cc0565b604051610a209190613f9a565b60405180910390f35b348015610a3557600080fd5b50610a506004803603810190610a4b9190614213565b611cd3565b005b348015610a5e57600080fd5b50610a67611d85565b604051610a749190613fc4565b60405180910390f35b348015610a8957600080fd5b50610aa46004803603810190610a9f9190614059565b611d8b565b005b348015610ab257600080fd5b50610acd6004803603810190610ac891906141e6565b611e2a565b005b348015610adb57600080fd5b50610af66004803603810190610af191906141e6565b61216f565b005b348015610b0457600080fd5b50610b1f6004803603810190610b1a91906141e6565b612331565b005b606060018054610b30906142af565b80601f0160208091040260200160405190810160405280929190818152602001828054610b5c906142af565b8015610ba95780601f10610b7e57610100808354040283529160200191610ba9565b820191906000526020600020905b815481529060010190602001808311610b8c57829003601f168201915b5050505050905090565b6000610bc7610bc0612680565b8484612688565b6001905092915050565b60165481565b601b60009054906101000a900473ffffffffffffffffffffffffffffffffffffffff1681565b6000600a54905090565b600f5481565b610c15612680565b73ffffffffffffffffffffffffffffffffffffffff1660008054906101000a900473ffffffffffffffffffffffffffffffffffffffff1673ffffffffffffffffffffffffffffffffffffffff1614610ca2576040517f08c379a0000000000000000000000000000000000000000000000000000000008152600401610c999061432d565b60405180910390fd5b8060128190555050565b60115481565b6000610cbf848484612853565b610d8084610ccb612680565b610d7b856040518060600160405280602881526020016150a060289139600960008b73ffffffffffffffffffffffffffffffffffffffff1673ffffffffffffffffffffffffffffffffffffffff1681526020019081526020016000206000610d31612680565b73ffffffffffffffffffffffffffffffffffffffff1673ffffffffffffffffffffffffffffffffffffffff16815260200190815260200160002054612fb29092919063ffffffff16565b612688565b600190509392505050565b6000600b54821115610dd2576040517f08c379a0000000000000000000000000000000000000000000000000000000008152600401610dc9906143bf565b60405180910390fd5b6000610ddc613016565b9050610df181846132f390919063ffffffff16565b915050919050565b6000600360009054906101000a900460ff16905090565b60155481565b6000610ebf610e23612680565b84610eba8560096000610e34612680565b73ffffffffffffffffffffffffffffffffffffffff1673ffffffffffffffffffffffffffffffffffffffff16815260200190815260200160002060008973ffffffffffffffffffffffffffffffffffffffff1673ffffffffffffffffffffffffffffffffffffffff1681526020019081526020016000205461333d90919063ffffffff16565b612688565b6001905092915050565b60105481565b610ed7612680565b73ffffffffffffffffffffffffffffffffffffffff1660008054906101000a900473ffffffffffffffffffffffffffffffffffffffff1673ffffffffffffffffffffffffffffffffffffffff1614610f64576040517f08c379a0000000000000000000000000000000000000000000000000000000008152600401610f5b9061432d565b60405180910390fd5b80600860008473ffffffffffffffffffffffffffffffffffffffff1673ffffffffffffffffffffffffffffffffffffffff16815260200190815260200160002060006101000a81548160ff0219169083151502179055505050565b6000600a54831115611006576040517f08c379a0000000000000000000000000000000000000000000000000000000008152600401610ffd9061442b565b60405180910390fd5b8161102c57611025611016613016565b8461339b90919063ffffffff16565b905061109b565b611098611037613016565b61108a61107b6002600f54600a61104e91906145ad565b61105891906145f8565b61106d6010548961339b90919063ffffffff16565b6132f390919063ffffffff16565b8661341690919063ffffffff16565b61339b90919063ffffffff16565b90505b92915050565b6110a9612680565b73ffffffffffffffffffffffffffffffffffffffff1660008054906101000a900473ffffffffffffffffffffffffffffffffffffffff1673ffffffffffffffffffffffffffffffffffffffff1614611136576040517f08c379a000000000000000000000000000000000000000000000000000000000815260040161112d9061432d565b60405180910390fd5b80600c60008473ffffffffffffffffffffffffffffffffffffffff1673ffffffffffffffffffffffffffffffffffffffff16815260200190815260200160002060006101000a81548160ff0219169083151502179055505050565b611199612680565b73ffffffffffffffffffffffffffffffffffffffff1660008054906101000a900473ffffffffffffffffffffffffffffffffffffffff1673ffffffffffffffffffffffffffffffffffffffff1614611226576040517f08c379a000000000000000000000000000000000000000000000000000000000815260040161121d9061432d565b60405180910390fd5b80601a8190555050565b601c60009054906101000a900473ffffffffffffffffffffffffffffffffffffffff1681565b601860029054906101000a900460ff1681565b60076020528060005260406000206000915054906101000a900460ff1681565b611291612680565b73ffffffffffffffffffffffffffffffffffffffff1660008054906101000a900473ffffffffffffffffffffffffffffffffffffffff1673ffffffffffffffffffffffffffffffffffffffff161461131e576040517f08c379a00000000000000000000000000000000000000000000000000000000081526004016113159061432d565b60405180910390fd5b8060118190555050565b611330612680565b73ffffffffffffffffffffffffffffffffffffffff1660008054906101000a900473ffffffffffffffffffffffffffffffffffffffff1673ffffffffffffffffffffffffffffffffffffffff16146113bd576040517f08c379a00000000000000000000000000000000000000000000000000000000081526004016113b49061432d565b60405180910390fd5b80600760008473ffffffffffffffffffffffffffffffffffffffff1673ffffffffffffffffffffffffffffffffffffffff16815260200190815260200160002060006101000a81548160ff0219169083151502179055505050565b6000600d60008373ffffffffffffffffffffffffffffffffffffffff1673ffffffffffffffffffffffffffffffffffffffff16815260200190815260200160002060009054906101000a900460ff16156114b357600660008373ffffffffffffffffffffffffffffffffffffffff1673ffffffffffffffffffffffffffffffffffffffff1681526020019081526020016000205490506114fe565b6114fb600460008473ffffffffffffffffffffffffffffffffffffffff1673ffffffffffffffffffffffffffffffffffffffff16815260200190815260200160002054610d8b565b90505b919050565b61150b612680565b73ffffffffffffffffffffffffffffffffffffffff1660008054906101000a900473ffffffffffffffffffffffffffffffffffffffff1673ffffffffffffffffffffffffffffffffffffffff1614611598576040517f08c379a000000000000000000000000000000000000000000000000000000000815260040161158f9061432d565b60405180910390fd5b600073ffffffffffffffffffffffffffffffffffffffff1660008054906101000a900473ffffffffffffffffffffffffffffffffffffffff1673ffffffffffffffffffffffffffffffffffffffff167f8be0079c531659141344cd1fd0a4f28419497f9722a3daafe3b4186f6b6457e060405160405180910390a360008060006101000a81548173ffffffffffffffffffffffffffffffffffffffff021916908373ffffffffffffffffffffffffffffffffffffffff160217905550565b61165e612680565b73ffffffffffffffffffffffffffffffffffffffff1660008054906101000a900473ffffffffffffffffffffffffffffffffffffffff1673ffffffffffffffffffffffffffffffffffffffff16146116eb576040517f08c379a00000000000000000000000000000000000000000000000000000000081526004016116e29061432d565b60405180910390fd5b80601c60006101000a81548173ffffffffffffffffffffffffffffffffffffffff021916908373ffffffffffffffffffffffffffffffffffffffff16021790555050565b60195481565b60008060009054906101000a900473ffffffffffffffffffffffffffffffffffffffff16905090565b611766612680565b73ffffffffffffffffffffffffffffffffffffffff1660008054906101000a900473ffffffffffffffffffffffffffffffffffffffff1673ffffffffffffffffffffffffffffffffffffffff16146117f3576040517f08c379a00000000000000000000000000000000000000000000000000000000081526004016117ea9061432d565b60405180910390fd5b80601860036101000a81548160ff02191690831515021790555050565b611818612680565b73ffffffffffffffffffffffffffffffffffffffff1660008054906101000a900473ffffffffffffffffffffffffffffffffffffffff1673ffffffffffffffffffffffffffffffffffffffff16146118a5576040517f08c379a000000000000000000000000000000000000000000000000000000000815260040161189c9061432d565b60405180910390fd5b80601360006101000a81548173ffffffffffffffffffffffffffffffffffffffff021916908373ffffffffffffffffffffffffffffffffffffffff16021790555050565b6060600280546118f8906142af565b80601f0160208091040260200160405190810160405280929190818152602001828054611924906142af565b80156119715780601f1061194657610100808354040283529160200191611971565b820191906000526020600020905b81548152906001019060200180831161195457829003601f168201915b5050505050905090565b60175481565b6000611a4461198e612680565b84611a3f856040518060600160405280602581526020016150c860259139600960006119b8612680565b73ffffffffffffffffffffffffffffffffffffffff1673ffffffffffffffffffffffffffffffffffffffff16815260200190815260200160002060008a73ffffffffffffffffffffffffffffffffffffffff1673ffffffffffffffffffffffffffffffffffffffff16815260200190815260200160002054612fb29092919063ffffffff16565b612688565b6001905092915050565b6000611a62611a5b612680565b8484612853565b6001905092915050565b60125481565b611a7a612680565b73ffffffffffffffffffffffffffffffffffffffff1660008054906101000a900473ffffffffffffffffffffffffffffffffffffffff1673ffffffffffffffffffffffffffffffffffffffff1614611b07576040517f08c379a0000000000000000000000000000000000000000000000000000000008152600401611afe9061432d565b60405180910390fd5b80601860006101000a81548160ff02191690831515021790555050565b611b2c612680565b73ffffffffffffffffffffffffffffffffffffffff1660008054906101000a900473ffffffffffffffffffffffffffffffffffffffff1673ffffffffffffffffffffffffffffffffffffffff1614611bb9576040517f08c379a0000000000000000000000000000000000000000000000000000000008152600401611bb09061432d565b60405180910390fd5b8060108190555050565b6000600d60008373ffffffffffffffffffffffffffffffffffffffff1673ffffffffffffffffffffffffffffffffffffffff16815260200190815260200160002060009054906101000a900460ff169050919050565b60086020528060005260406000206000915054906101000a900460ff1681565b6000600960008473ffffffffffffffffffffffffffffffffffffffff1673ffffffffffffffffffffffffffffffffffffffff16815260200190815260200160002060008373ffffffffffffffffffffffffffffffffffffffff1673ffffffffffffffffffffffffffffffffffffffff16815260200190815260200160002054905092915050565b601860009054906101000a900460ff1681565b611cdb612680565b73ffffffffffffffffffffffffffffffffffffffff1660008054906101000a900473ffffffffffffffffffffffffffffffffffffffff1673ffffffffffffffffffffffffffffffffffffffff1614611d68576040517f08c379a0000000000000000000000000000000000000000000000000000000008152600401611d5f9061432d565b60405180910390fd5b80601860046101000a81548160ff02191690831515021790555050565b601a5481565b611d93612680565b73ffffffffffffffffffffffffffffffffffffffff1660008054906101000a900473ffffffffffffffffffffffffffffffffffffffff1673ffffffffffffffffffffffffffffffffffffffff1614611e20576040517f08c379a0000000000000000000000000000000000000000000000000000000008152600401611e179061432d565b60405180910390fd5b8060198190555050565b611e32612680565b73ffffffffffffffffffffffffffffffffffffffff1660008054906101000a900473ffffffffffffffffffffffffffffffffffffffff1673ffffffffffffffffffffffffffffffffffffffff1614611ebf576040517f08c379a0000000000000000000000000000000000000000000000000000000008152600401611eb69061432d565b60405180910390fd5b601b60009054906101000a900473ffffffffffffffffffffffffffffffffffffffff1673ffffffffffffffffffffffffffffffffffffffff168173ffffffffffffffffffffffffffffffffffffffff161415611f50576040517f08c379a0000000000000000000000000000000000000000000000000000000008152600401611f47906146c0565b60405180910390fd5b600d60008273ffffffffffffffffffffffffffffffffffffffff1673ffffffffffffffffffffffffffffffffffffffff16815260200190815260200160002060009054906101000a900460ff1615611fdd576040517f08c379a0000000000000000000000000000000000000000000000000000000008152600401611fd490614752565b60405180910390fd5b6000600460008373ffffffffffffffffffffffffffffffffffffffff1673ffffffffffffffffffffffffffffffffffffffff1681526020019081526020016000205411156120b15761206d600460008373ffffffffffffffffffffffffffffffffffffffff1673ffffffffffffffffffffffffffffffffffffffff16815260200190815260200160002054610d8b565b600660008373ffffffffffffffffffffffffffffffffffffffff1673ffffffffffffffffffffffffffffffffffffffff168152602001908152602001600020819055505b6001600d60008373ffffffffffffffffffffffffffffffffffffffff1673ffffffffffffffffffffffffffffffffffffffff16815260200190815260200160002060006101000a81548160ff021916908315150217905550600e819080600181540180825580915050600190039060005260206000200160009091909190916101000a81548173ffffffffffffffffffffffffffffffffffffffff021916908373ffffffffffffffffffffffffffffffffffffffff16021790555050565b612177612680565b73ffffffffffffffffffffffffffffffffffffffff1660008054906101000a900473ffffffffffffffffffffffffffffffffffffffff1673ffffffffffffffffffffffffffffffffffffffff1614612204576040517f08c379a00000000000000000000000000000000000000000000000000000000081526004016121fb9061432d565b60405180910390fd5b600073ffffffffffffffffffffffffffffffffffffffff168173ffffffffffffffffffffffffffffffffffffffff161415612274576040517f08c379a000000000000000000000000000000000000000000000000000000000815260040161226b906147e4565b60405180910390fd5b8073ffffffffffffffffffffffffffffffffffffffff1660008054906101000a900473ffffffffffffffffffffffffffffffffffffffff1673ffffffffffffffffffffffffffffffffffffffff167f8be0079c531659141344cd1fd0a4f28419497f9722a3daafe3b4186f6b6457e060405160405180910390a3806000806101000a81548173ffffffffffffffffffffffffffffffffffffffff021916908373ffffffffffffffffffffffffffffffffffffffff16021790555050565b612339612680565b73ffffffffffffffffffffffffffffffffffffffff1660008054906101000a900473ffffffffffffffffffffffffffffffffffffffff1673ffffffffffffffffffffffffffffffffffffffff16146123c6576040517f08c379a00000000000000000000000000000000000000000000000000000000081526004016123bd9061432d565b60405180910390fd5b600d60008273ffffffffffffffffffffffffffffffffffffffff1673ffffffffffffffffffffffffffffffffffffffff16815260200190815260200160002060009054906101000a900460ff16612452576040517f08c379a000000000000000000000000000000000000000000000000000000000815260040161244990614876565b60405180910390fd5b60005b600e8054905081101561267c578173ffffffffffffffffffffffffffffffffffffffff16600e828154811061248d5761248c614896565b5b9060005260206000200160009054906101000a900473ffffffffffffffffffffffffffffffffffffffff1673ffffffffffffffffffffffffffffffffffffffff16141561266957600e6001600e805490506124e891906148c5565b815481106124f9576124f8614896565b5b9060005260206000200160009054906101000a900473ffffffffffffffffffffffffffffffffffffffff16600e828154811061253857612537614896565b5b9060005260206000200160006101000a81548173ffffffffffffffffffffffffffffffffffffffff021916908373ffffffffffffffffffffffffffffffffffffffff1602179055506000600660008473ffffffffffffffffffffffffffffffffffffffff1673ffffffffffffffffffffffffffffffffffffffff168152602001908152602001600020819055506000600d60008473ffffffffffffffffffffffffffffffffffffffff1673ffffffffffffffffffffffffffffffffffffffff16815260200190815260200160002060006101000a81548160ff021916908315150217905550600e80548061262f5761262e6148f9565b5b6001900381819060005260206000200160006101000a81549073ffffffffffffffffffffffffffffffffffffffff0219169055905561267c565b808061267490614928565b915050612455565b5050565b600033905090565b600073ffffffffffffffffffffffffffffffffffffffff168373ffffffffffffffffffffffffffffffffffffffff1614156126f8576040517f08c379a00000000000000000000000000000000000000000000000000000000081526004016126ef906149e3565b60405180910390fd5b600073ffffffffffffffffffffffffffffffffffffffff168273ffffffffffffffffffffffffffffffffffffffff161415612768576040517f08c379a000000000000000000000000000000000000000000000000000000000815260040161275f90614a75565b60405180910390fd5b80600960008573ffffffffffffffffffffffffffffffffffffffff1673ffffffffffffffffffffffffffffffffffffffff16815260200190815260200160002060008473ffffffffffffffffffffffffffffffffffffffff1673ffffffffffffffffffffffffffffffffffffffff168152602001908152602001600020819055508173ffffffffffffffffffffffffffffffffffffffff168373ffffffffffffffffffffffffffffffffffffffff167f8c5be1e5ebec7d5bd14f71427d1e84f3dd0314c0f7b2291e5b200ac8c7c3b925836040516128469190613fc4565b60405180910390a3505050565b600073ffffffffffffffffffffffffffffffffffffffff168373ffffffffffffffffffffffffffffffffffffffff1614156128c3576040517f08c379a00000000000000000000000000000000000000000000000000000000081526004016128ba90614b07565b60405180910390fd5b60008111612906576040517f08c379a00000000000000000000000000000000000000000000000000000000081526004016128fd90614b99565b60405180910390fd5b601954811115806129605750600860008473ffffffffffffffffffffffffffffffffffffffff1673ffffffffffffffffffffffffffffffffffffffff16815260200190815260200160002060009054906101000a900460ff165b806129785750601860049054906101000a900460ff16155b6129b7576040517f08c379a00000000000000000000000000000000000000000000000000000000081526004016129ae90614c2b565b60405180910390fd5b600760008473ffffffffffffffffffffffffffffffffffffffff1673ffffffffffffffffffffffffffffffffffffffff16815260200190815260200160002060009054906101000a900460ff1615612a44576040517f08c379a0000000000000000000000000000000000000000000000000000000008152600401612a3b90614c97565b60405180910390fd5b601860039054906101000a900460ff16612a93576040517f08c379a0000000000000000000000000000000000000000000000000000000008152600401612a8a90614d03565b60405180910390fd5b60008190506000612aa2613016565b90506000612aaf30611418565b90506000601a548210159050601860019054906101000a900460ff16158015612ad55750805b8015612b2f5750601c60009054906101000a900473ffffffffffffffffffffffffffffffffffffffff1673ffffffffffffffffffffffffffffffffffffffff168773ffffffffffffffffffffffffffffffffffffffff1614155b8015612b475750601860029054906101000a900460ff165b15612b5657612b5582613460565b5b600c60008873ffffffffffffffffffffffffffffffffffffffff1673ffffffffffffffffffffffffffffffffffffffff16815260200190815260200160002060009054906101000a900460ff16158015612bfa5750600c60008773ffffffffffffffffffffffffffffffffffffffff1673ffffffffffffffffffffffffffffffffffffffff16815260200190815260200160002060009054906101000a900460ff16155b8015612c135750601860019054906101000a900460ff16155b15612c2657612c238786856135c3565b93505b612c8a612c3c848761339b90919063ffffffff16565b600460008a73ffffffffffffffffffffffffffffffffffffffff1673ffffffffffffffffffffffffffffffffffffffff1681526020019081526020016000205461341690919063ffffffff16565b600460008973ffffffffffffffffffffffffffffffffffffffff1673ffffffffffffffffffffffffffffffffffffffff16815260200190815260200160002081905550612d31612ce3848661339b90919063ffffffff16565b600460008973ffffffffffffffffffffffffffffffffffffffff1673ffffffffffffffffffffffffffffffffffffffff1681526020019081526020016000205461333d90919063ffffffff16565b600460008873ffffffffffffffffffffffffffffffffffffffff1673ffffffffffffffffffffffffffffffffffffffff16815260200190815260200160002081905550600d60008873ffffffffffffffffffffffffffffffffffffffff1673ffffffffffffffffffffffffffffffffffffffff16815260200190815260200160002060009054906101000a900460ff1615612e5c57612e1885600660008a73ffffffffffffffffffffffffffffffffffffffff1673ffffffffffffffffffffffffffffffffffffffff1681526020019081526020016000205461341690919063ffffffff16565b600660008973ffffffffffffffffffffffffffffffffffffffff1673ffffffffffffffffffffffffffffffffffffffff168152602001908152602001600020819055505b600d60008773ffffffffffffffffffffffffffffffffffffffff1673ffffffffffffffffffffffffffffffffffffffff16815260200190815260200160002060009054906101000a900460ff1615612f4457612f0084600660008973ffffffffffffffffffffffffffffffffffffffff1673ffffffffffffffffffffffffffffffffffffffff1681526020019081526020016000205461333d90919063ffffffff16565b600660008873ffffffffffffffffffffffffffffffffffffffff1673ffffffffffffffffffffffffffffffffffffffff168152602001908152602001600020819055505b8573ffffffffffffffffffffffffffffffffffffffff168773ffffffffffffffffffffffffffffffffffffffff167fddf252ad1be2c89b69c2b068fc378daa952ba7f163c4a11628f55a4df523b3ef86604051612fa19190613fc4565b60405180910390a350505050505050565b6000838311158290612ffa576040517f08c379a0000000000000000000000000000000000000000000000000000000008152600401612ff19190613e84565b60405180910390fd5b506000838561300991906148c5565b9050809150509392505050565b600080600b5490506000600a54905060005b600e80549050811015613299578260046000600e848154811061304e5761304d614896565b5b9060005260206000200160009054906101000a900473ffffffffffffffffffffffffffffffffffffffff1673ffffffffffffffffffffffffffffffffffffffff1673ffffffffffffffffffffffffffffffffffffffff16815260200190815260200160002054118061313c57508160066000600e84815481106130d4576130d3614896565b5b9060005260206000200160009054906101000a900473ffffffffffffffffffffffffffffffffffffffff1673ffffffffffffffffffffffffffffffffffffffff1673ffffffffffffffffffffffffffffffffffffffff16815260200190815260200160002054115b1561316257613158600a54600b546132f390919063ffffffff16565b93505050506132f0565b6131f260046000600e848154811061317d5761317c614896565b5b9060005260206000200160009054906101000a900473ffffffffffffffffffffffffffffffffffffffff1673ffffffffffffffffffffffffffffffffffffffff1673ffffffffffffffffffffffffffffffffffffffff168152602001908152602001600020548461341690919063ffffffff16565b925061328460066000600e848154811061320f5761320e614896565b5b9060005260206000200160009054906101000a900473ffffffffffffffffffffffffffffffffffffffff1673ffffffffffffffffffffffffffffffffffffffff1673ffffffffffffffffffffffffffffffffffffffff168152602001908152602001600020548361341690919063ffffffff16565b9150808061329190614928565b915050613028565b506132b1600a54600b546132f390919063ffffffff16565b8210156132d8576132cf600a54600b546132f390919063ffffffff16565b925050506132f0565b6132eb81836132f390919063ffffffff16565b925050505b90565b600061333583836040518060400160405280601a81526020017f536166654d6174683a206469766973696f6e206279207a65726f000000000000815250613b36565b905092915050565b600080828461334c91906145f8565b905083811015613391576040517f08c379a000000000000000000000000000000000000000000000000000000000815260040161338890614d6f565b60405180910390fd5b8091505092915050565b6000808314156133ae5760009050613410565b600082846133bc9190614d8f565b90508284826133cb9190614e18565b1461340b576040517f08c379a000000000000000000000000000000000000000000000000000000000815260040161340290614ebb565b60405180910390fd5b809150505b92915050565b600061345883836040518060400160405280601e81526020017f536166654d6174683a207375627472616374696f6e206f766572666c6f770000815250612fb2565b905092915050565b6001601860016101000a81548160ff021916908315150217905550600047905061348982613b99565b600061349e824761341690919063ffffffff16565b905060006134b66002836132f390919063ffffffff16565b905060006134cd828461341690919063ffffffff16565b9050601360009054906101000a900473ffffffffffffffffffffffffffffffffffffffff1673ffffffffffffffffffffffffffffffffffffffff166108fc839081150290604051600060405180830381858888f19350505050158015613537573d6000803e3d6000fd5b50601460009054906101000a900473ffffffffffffffffffffffffffffffffffffffff1673ffffffffffffffffffffffffffffffffffffffff166108fc829081150290604051600060405180830381858888f193505050501580156135a0573d6000803e3d6000fd5b50505050506000601860016101000a81548160ff02191690831515021790555050565b6000808390506000601054146136775760006136166002600f546135e791906145f8565b600a6135f391906145ad565b6136086010548861339b90919063ffffffff16565b6132f390919063ffffffff16565b905061362b818361341690919063ffffffff16565b9150613654613643858361339b90919063ffffffff16565b600b5461341690919063ffffffff16565b600b8190555061366f8160155461333d90919063ffffffff16565b601581905550505b6000601154146138d15760006136c46002600f5461369591906145f8565b600a6136a191906145ad565b6136b66011548861339b90919063ffffffff16565b6132f390919063ffffffff16565b90506136d9818361341690919063ffffffff16565b915061373f6136f1858361339b90919063ffffffff16565b600460003073ffffffffffffffffffffffffffffffffffffffff1673ffffffffffffffffffffffffffffffffffffffff1681526020019081526020016000205461333d90919063ffffffff16565b600460003073ffffffffffffffffffffffffffffffffffffffff1673ffffffffffffffffffffffffffffffffffffffff16815260200190815260200160002081905550600d60003073ffffffffffffffffffffffffffffffffffffffff1673ffffffffffffffffffffffffffffffffffffffff16815260200190815260200160002060009054906101000a900460ff161561386a5761382681600660003073ffffffffffffffffffffffffffffffffffffffff1673ffffffffffffffffffffffffffffffffffffffff1681526020019081526020016000205461333d90919063ffffffff16565b600660003073ffffffffffffffffffffffffffffffffffffffff1673ffffffffffffffffffffffffffffffffffffffff168152602001908152602001600020819055505b3073ffffffffffffffffffffffffffffffffffffffff168673ffffffffffffffffffffffffffffffffffffffff167fddf252ad1be2c89b69c2b068fc378daa952ba7f163c4a11628f55a4df523b3ef836040516138c79190613fc4565b60405180910390a3505b600060125414613b2b57600061391e6002600f546138ef91906145f8565b600a6138fb91906145ad565b6139106012548861339b90919063ffffffff16565b6132f390919063ffffffff16565b9050613933818361341690919063ffffffff16565b915061399961394b858361339b90919063ffffffff16565b600460003073ffffffffffffffffffffffffffffffffffffffff1673ffffffffffffffffffffffffffffffffffffffff1681526020019081526020016000205461333d90919063ffffffff16565b600460003073ffffffffffffffffffffffffffffffffffffffff1673ffffffffffffffffffffffffffffffffffffffff16815260200190815260200160002081905550600d60003073ffffffffffffffffffffffffffffffffffffffff1673ffffffffffffffffffffffffffffffffffffffff16815260200190815260200160002060009054906101000a900460ff1615613ac457613a8081600660003073ffffffffffffffffffffffffffffffffffffffff1673ffffffffffffffffffffffffffffffffffffffff1681526020019081526020016000205461333d90919063ffffffff16565b600660003073ffffffffffffffffffffffffffffffffffffffff1673ffffffffffffffffffffffffffffffffffffffff168152602001908152602001600020819055505b3073ffffffffffffffffffffffffffffffffffffffff168673ffffffffffffffffffffffffffffffffffffffff167fddf252ad1be2c89b69c2b068fc378daa952ba7f163c4a11628f55a4df523b3ef83604051613b219190613fc4565b60405180910390a3505b809150509392505050565b60008083118290613b7d576040517f08c379a0000000000000000000000000000000000000000000000000000000008152600401613b749190613e84565b60405180910390fd5b5060008385613b8c9190614e18565b9050809150509392505050565b6000600267ffffffffffffffff811115613bb657613bb5614edb565b5b604051908082528060200260200182016040528015613be45781602001602082028036833780820191505090505b5090503081600081518110613bfc57613bfb614896565b5b602002602001019073ffffffffffffffffffffffffffffffffffffffff16908173ffffffffffffffffffffffffffffffffffffffff1681525050601b60009054906101000a900473ffffffffffffffffffffffffffffffffffffffff1673ffffffffffffffffffffffffffffffffffffffff1663ad5c46486040518163ffffffff1660e01b815260040160206040518083038186803b158015613c9e57600080fd5b505afa158015613cb2573d6000803e3d6000fd5b505050506040513d601f19601f82011682018060405250810190613cd69190614f1f565b81600181518110613cea57613ce9614896565b5b602002602001019073ffffffffffffffffffffffffffffffffffffffff16908173ffffffffffffffffffffffffffffffffffffffff1681525050613d5130601b60009054906101000a900473ffffffffffffffffffffffffffffffffffffffff1684612688565b601b60009054906101000a900473ffffffffffffffffffffffffffffffffffffffff1673ffffffffffffffffffffffffffffffffffffffff1663791ac9478360008430426040518663ffffffff1660e01b8152600401613db5959493929190615045565b600060405180830381600087803b158015613dcf57600080fd5b505af1158015613de3573d6000803e3d6000fd5b505050505050565b600081519050919050565b600082825260208201905092915050565b60005b83811015613e25578082015181840152602081019050613e0a565b83811115613e34576000848401525b50505050565b6000601f19601f8301169050919050565b6000613e5682613deb565b613e608185613df6565b9350613e70818560208601613e07565b613e7981613e3a565b840191505092915050565b60006020820190508181036000830152613e9e8184613e4b565b905092915050565b600080fd5b600073ffffffffffffffffffffffffffffffffffffffff82169050919050565b6000613ed682613eab565b9050919050565b613ee681613ecb565b8114613ef157600080fd5b50565b600081359050613f0381613edd565b92915050565b6000819050919050565b613f1c81613f09565b8114613f2757600080fd5b50565b600081359050613f3981613f13565b92915050565b60008060408385031215613f5657613f55613ea6565b5b6000613f6485828601613ef4565b9250506020613f7585828601613f2a565b9150509250929050565b60008115159050919050565b613f9481613f7f565b82525050565b6000602082019050613faf6000830184613f8b565b92915050565b613fbe81613f09565b82525050565b6000602082019050613fd96000830184613fb5565b92915050565b6000819050919050565b6000614004613fff613ffa84613eab565b613fdf565b613eab565b9050919050565b600061401682613fe9565b9050919050565b60006140288261400b565b9050919050565b6140388161401d565b82525050565b6000602082019050614053600083018461402f565b92915050565b60006020828403121561406f5761406e613ea6565b5b600061407d84828501613f2a565b91505092915050565b60008060006060848603121561409f5761409e613ea6565b5b60006140ad86828701613ef4565b93505060206140be86828701613ef4565b92505060406140cf86828701613f2a565b9150509250925092565b600060ff82169050919050565b6140ef816140d9565b82525050565b600060208201905061410a60008301846140e6565b92915050565b61411981613f7f565b811461412457600080fd5b50565b60008135905061413681614110565b92915050565b6000806040838503121561415357614152613ea6565b5b600061416185828601613ef4565b925050602061417285828601614127565b9150509250929050565b6000806040838503121561419357614192613ea6565b5b60006141a185828601613f2a565b92505060206141b285828601614127565b9150509250929050565b6141c581613ecb565b82525050565b60006020820190506141e060008301846141bc565b92915050565b6000602082840312156141fc576141fb613ea6565b5b600061420a84828501613ef4565b91505092915050565b60006020828403121561422957614228613ea6565b5b600061423784828501614127565b91505092915050565b6000806040838503121561425757614256613ea6565b5b600061426585828601613ef4565b925050602061427685828601613ef4565b9150509250929050565b7f4e487b7100000000000000000000000000000000000000000000000000000000600052602260045260246000fd5b600060028204905060018216806142c757607f821691505b602082108114156142db576142da614280565b5b50919050565b7f4f776e61626c653a2063616c6c6572206973206e6f7420746865206f776e6572600082015250565b6000614317602083613df6565b9150614322826142e1565b602082019050919050565b600060208201905081810360008301526143468161430a565b9050919050565b7f416d6f756e74206d757374206265206c657373207468616e20746f74616c207260008201527f65666c656374696f6e7300000000000000000000000000000000000000000000602082015250565b60006143a9602a83613df6565b91506143b48261434d565b604082019050919050565b600060208201905081810360008301526143d88161439c565b9050919050565b7f416d6f756e74206d757374206265206c657373207468616e20737570706c7900600082015250565b6000614415601f83613df6565b9150614420826143df565b602082019050919050565b6000602082019050818103600083015261444481614408565b9050919050565b7f4e487b7100000000000000000000000000000000000000000000000000000000600052601160045260246000fd5b60008160011c9050919050565b6000808291508390505b60018511156144d1578086048111156144ad576144ac61444b565b5b60018516156144bc5780820291505b80810290506144ca8561447a565b9450614491565b94509492505050565b6000826144ea57600190506145a6565b816144f857600090506145a6565b816001811461450e576002811461451857614547565b60019150506145a6565b60ff84111561452a5761452961444b565b5b8360020a9150848211156145415761454061444b565b5b506145a6565b5060208310610133831016604e8410600b841016171561457c5782820a9050838111156145775761457661444b565b5b6145a6565b6145898484846001614487565b925090508184048111156145a05761459f61444b565b5b81810290505b9392505050565b60006145b882613f09565b91506145c383613f09565b92506145f07fffffffffffffffffffffffffffffffffffffffffffffffffffffffffffffffff84846144da565b905092915050565b600061460382613f09565b915061460e83613f09565b9250827fffffffffffffffffffffffffffffffffffffffffffffffffffffffffffffffff038211156146435761464261444b565b5b828201905092915050565b7f45524332303a2057652063616e206e6f74206578636c75646520556e6973776160008201527f7020726f757465722e0000000000000000000000000000000000000000000000602082015250565b60006146aa602983613df6565b91506146b58261464e565b604082019050919050565b600060208201905081810360008301526146d98161469d565b9050919050565b7f45524332303a204163636f756e7420697320616c7265616479206578636c756460008201527f6564000000000000000000000000000000000000000000000000000000000000602082015250565b600061473c602283613df6565b9150614747826146e0565b604082019050919050565b6000602082019050818103600083015261476b8161472f565b9050919050565b7f4f776e61626c653a206e6577206f776e657220697320746865207a65726f206160008201527f6464726573730000000000000000000000000000000000000000000000000000602082015250565b60006147ce602683613df6565b91506147d982614772565b604082019050919050565b600060208201905081810360008301526147fd816147c1565b9050919050565b7f45524332303a204163636f756e7420697320616c726561647920696e636c756460008201527f6564000000000000000000000000000000000000000000000000000000000000602082015250565b6000614860602283613df6565b915061486b82614804565b604082019050919050565b6000602082019050818103600083015261488f81614853565b9050919050565b7f4e487b7100000000000000000000000000000000000000000000000000000000600052603260045260246000fd5b60006148d082613f09565b91506148db83613f09565b9250828210156148ee576148ed61444b565b5b828203905092915050565b7f4e487b7100000000000000000000000000000000000000000000000000000000600052603160045260246000fd5b600061493382613f09565b91507fffffffffffffffffffffffffffffffffffffffffffffffffffffffffffffffff8214156149665761496561444b565b5b600182019050919050565b7f45524332303a20617070726f76652066726f6d20746865207a65726f2061646460008201527f7265737300000000000000000000000000000000000000000000000000000000602082015250565b60006149cd602483613df6565b91506149d882614971565b604082019050919050565b600060208201905081810360008301526149fc816149c0565b9050919050565b7f45524332303a20617070726f766520746f20746865207a65726f20616464726560008201527f7373000000000000000000000000000000000000000000000000000000000000602082015250565b6000614a5f602283613df6565b9150614a6a82614a03565b604082019050919050565b60006020820190508181036000830152614a8e81614a52565b9050919050565b7f45524332303a207472616e736665722066726f6d20746865207a65726f20616460008201527f6472657373000000000000000000000000000000000000000000000000000000602082015250565b6000614af1602583613df6565b9150614afc82614a95565b604082019050919050565b60006020820190508181036000830152614b2081614ae4565b9050919050565b7f5472616e7366657220616d6f756e74206d75737420626520677265617465722060008201527f7468616e207a65726f0000000000000000000000000000000000000000000000602082015250565b6000614b83602983613df6565b9150614b8e82614b27565b604082019050919050565b60006020820190508181036000830152614bb281614b76565b9050919050565b7f4d61785478416d6f756e742069732064697361626c6564206f72205472616e7360008201527f666572204c696d69742045786365656473000000000000000000000000000000602082015250565b6000614c15603183613df6565b9150614c2082614bb9565b604082019050919050565b60006020820190508181036000830152614c4481614c08565b9050919050565b7f4164647265737320697320626c61636b4c697374656400000000000000000000600082015250565b6000614c81601683613df6565b9150614c8c82614c4b565b602082019050919050565b60006020820190508181036000830152614cb081614c74565b9050919050565b7f74726164696e672069732064697361626c650000000000000000000000000000600082015250565b6000614ced601283613df6565b9150614cf882614cb7565b602082019050919050565b60006020820190508181036000830152614d1c81614ce0565b9050919050565b7f536166654d6174683a206164646974696f6e206f766572666c6f770000000000600082015250565b6000614d59601b83613df6565b9150614d6482614d23565b602082019050919050565b60006020820190508181036000830152614d8881614d4c565b9050919050565b6000614d9a82613f09565b9150614da583613f09565b9250817fffffffffffffffffffffffffffffffffffffffffffffffffffffffffffffffff0483118215151615614dde57614ddd61444b565b5b828202905092915050565b7f4e487b7100000000000000000000000000000000000000000000000000000000600052601260045260246000fd5b6000614e2382613f09565b9150614e2e83613f09565b925082614e3e57614e3d614de9565b5b828204905092915050565b7f536166654d6174683a206d756c7469706c69636174696f6e206f766572666c6f60008201527f7700000000000000000000000000000000000000000000000000000000000000602082015250565b6000614ea5602183613df6565b9150614eb082614e49565b604082019050919050565b60006020820190508181036000830152614ed481614e98565b9050919050565b7f4e487b7100000000000000000000000000000000000000000000000000000000600052604160045260246000fd5b600081519050614f1981613edd565b92915050565b600060208284031215614f3557614f34613ea6565b5b6000614f4384828501614f0a565b91505092915050565b6000819050919050565b6000614f71614f6c614f6784614f4c565b613fdf565b613f09565b9050919050565b614f8181614f56565b82525050565b600081519050919050565b600082825260208201905092915050565b6000819050602082019050919050565b614fbc81613ecb565b82525050565b6000614fce8383614fb3565b60208301905092915050565b6000602082019050919050565b6000614ff282614f87565b614ffc8185614f92565b935061500783614fa3565b8060005b8381101561503857815161501f8882614fc2565b975061502a83614fda565b92505060018101905061500b565b5085935050505092915050565b600060a08201905061505a6000830188613fb5565b6150676020830187614f78565b81810360408301526150798186614fe7565b905061508860608301856141bc565b6150956080830184613fb5565b969550505050505056fe45524332303a207472616e7366657220616d6f756e74206578636565647320616c6c6f77616e636545524332303a2064656372656173656420616c6c6f77616e63652062656c6f77207a65726fa2646970667358221220fd015702883ef9f1e83bc3331792c0dfcb27ed46507ca1d6068d09df7bf0233664736f6c63430008090033"
  }
}