{
  "opcodeHash": "0x44516bc4ab29ddc52ab2057cceda4f55b2876cd04fdae25f388167ddc4368c39",
  "metalessHash": "0x402c7de259be3ae90bcbec543f9515f2ff24b0a8218f023248ffb5f724a66a63",
  "runtimeHash": "0x33cc0a935efcd4aa49d117c63609776a73108d2db64e0d9ae8fec955bd3c86b3",
  "encodedMetadata": [
    {
      "ipfs": "/ipfs/QmTryeq2gr95xBvvhzDsoKLTmeRZxoz77scYRVYrpLLaXX",
      "solc": "0.8.2"
    }
  ],
  "abi": [
    {
      "inputs": [
        {
          "internalType": "address",
          "name": "_addressesGeneratorAddress",
          "type": "address"
        },
        {
          "internalType": "address",
          "name": "_helperAddress",
          "type": "address"
        }
      ],
      "stateMutability": "nonpayable",
      "type": "constructor"
    },
    {
      "inputs": [],
      "name": "addressesGeneratorAddress",
      "outputs": [
        {
          "internalType": "address",
          "name": "",
          "type": "address"
        }
      ],
      "stateMutability": "view",
      "type": "function"
    },
    {
      "inputs": [
        {
          "internalType": "address",
          "name": "assetAddress",
          "type": "address"
        }
      ],
      "name": "assetStrategies",
      "outputs": [
        {
          "components": [
            {
              "internalType": "string",
              "name": "name",
              "type": "string"
            },
            {
              "internalType": "string",
              "name": "apiVersion",
              "type": "string"
            },
            {
              "internalType": "address",
              "name": "strategist",
              "type": "address"
            },
            {
              "internalType": "address",
              "name": "rewards",
              "type": "address"
            },
            {
              "internalType": "address",
              "name": "vault",
              "type": "address"
            },
            {
              "internalType": "address",
              "name": "keeper",
              "type": "address"
            },
            {
              "internalType": "address",
              "name": "want",
              "type": "address"
            },
            {
              "internalType": "bool",
              "name": "emergencyExit",
              "type": "bool"
            },
            {
              "internalType": "bool",
              "name": "isActive",
              "type": "bool"
            },
            {
              "internalType": "uint256",
              "name": "delegatedAssets",
              "type": "uint256"
            },
            {
              "internalType": "uint256",
              "name": "estimatedTotalAssets",
              "type": "uint256"
            },
            {
              "internalType": "bool",
              "name": "doHealthCheck",
              "type": "bool"
            },
            {
              "internalType": "address",
              "name": "healthCheckAddress",
              "type": "address"
            }
          ],
          "internalType": "struct StrategiesHelper.StrategyMetadata[]",
          "name": "",
          "type": "tuple[]"
        }
      ],
      "stateMutability": "view",
      "type": "function"
    },
    {
      "inputs": [
        {
          "internalType": "address",
          "name": "assetAddress",
          "type": "address"
        }
      ],
      "name": "assetStrategiesAddresses",
      "outputs": [
        {
          "internalType": "address[]",
          "name": "",
          "type": "address[]"
        }
      ],
      "stateMutability": "view",
      "type": "function"
    },
    {
      "inputs": [
        {
          "internalType": "address",
          "name": "assetAddress",
          "type": "address"
        }
      ],
      "name": "assetStrategiesDelegatedBalance",
      "outputs": [
        {
          "internalType": "uint256",
          "name": "",
          "type": "uint256"
        }
      ],
      "stateMutability": "view",
      "type": "function"
    },
    {
      "inputs": [
        {
          "internalType": "address",
          "name": "assetAddress",
          "type": "address"
        }
      ],
      "name": "assetStrategiesLength",
      "outputs": [
        {
          "internalType": "uint256",
          "name": "",
          "type": "uint256"
        }
      ],
      "stateMutability": "view",
      "type": "function"
    },
    {
      "inputs": [],
      "name": "assetsStrategies",
      "outputs": [
        {
          "components": [
            {
              "internalType": "string",
              "name": "name",
              "type": "string"
            },
            {
              "internalType": "string",
              "name": "apiVersion",
              "type": "string"
            },
            {
              "internalType": "address",
              "name": "strategist",
              "type": "address"
            },
            {
              "internalType": "address",
              "name": "rewards",
              "type": "address"
            },
            {
              "internalType": "address",
              "name": "vault",
              "type": "address"
            },
            {
              "internalType": "address",
              "name": "keeper",
              "type": "address"
            },
            {
              "internalType": "address",
              "name": "want",
              "type": "address"
            },
            {
              "internalType": "bool",
              "name": "emergencyExit",
              "type": "bool"
            },
            {
              "internalType": "bool",
              "name": "isActive",
              "type": "bool"
            },
            {
              "internalType": "uint256",
              "name": "delegatedAssets",
              "type": "uint256"
            },
            {
              "internalType": "uint256",
              "name": "estimatedTotalAssets",
              "type": "uint256"
            },
            {
              "internalType": "bool",
              "name": "doHealthCheck",
              "type": "bool"
            },
            {
              "internalType": "address",
              "name": "healthCheckAddress",
              "type": "address"
            }
          ],
          "internalType": "struct StrategiesHelper.StrategyMetadata[]",
          "name": "",
          "type": "tuple[]"
        }
      ],
      "stateMutability": "view",
      "type": "function"
    },
    {
      "inputs": [],
      "name": "assetsStrategiesAddresses",
      "outputs": [
        {
          "internalType": "address[]",
          "name": "",
          "type": "address[]"
        }
      ],
      "stateMutability": "view",
      "type": "function"
    },
    {
      "inputs": [
        {
          "internalType": "address[]",
          "name": "_assetsAddresses",
          "type": "address[]"
        }
      ],
      "name": "assetsStrategiesAddresses",
      "outputs": [
        {
          "internalType": "address[]",
          "name": "",
          "type": "address[]"
        }
      ],
      "stateMutability": "view",
      "type": "function"
    },
    {
      "inputs": [],
      "name": "assetsStrategiesDelegatedBalance",
      "outputs": [
        {
          "internalType": "uint256",
          "name": "",
          "type": "uint256"
        }
      ],
      "stateMutability": "view",
      "type": "function"
    },
    {
      "inputs": [],
      "name": "assetsStrategiesLength",
      "outputs": [
        {
          "internalType": "uint256",
          "name": "",
          "type": "uint256"
        }
      ],
      "stateMutability": "view",
      "type": "function"
    },
    {
      "inputs": [],
      "name": "helperAddress",
      "outputs": [
        {
          "internalType": "address",
          "name": "",
          "type": "address"
        }
      ],
      "stateMutability": "view",
      "type": "function"
    },
    {
      "inputs": [],
      "name": "ownerAddress",
      "outputs": [
        {
          "internalType": "address",
          "name": "",
          "type": "address"
        }
      ],
      "stateMutability": "view",
      "type": "function"
    },
    {
      "inputs": [
        {
          "internalType": "address[]",
          "name": "_strategiesAddresses",
          "type": "address[]"
        }
      ],
      "name": "strategies",
      "outputs": [
        {
          "components": [
            {
              "internalType": "string",
              "name": "name",
              "type": "string"
            },
            {
              "internalType": "string",
              "name": "apiVersion",
              "type": "string"
            },
            {
              "internalType": "address",
              "name": "strategist",
              "type": "address"
            },
            {
              "internalType": "address",
              "name": "rewards",
              "type": "address"
            },
            {
              "internalType": "address",
              "name": "vault",
              "type": "address"
            },
            {
              "internalType": "address",
              "name": "keeper",
              "type": "address"
            },
            {
              "internalType": "address",
              "name": "want",
              "type": "address"
            },
            {
              "internalType": "bool",
              "name": "emergencyExit",
              "type": "bool"
            },
            {
              "internalType": "bool",
              "name": "isActive",
              "type": "bool"
            },
            {
              "internalType": "uint256",
              "name": "delegatedAssets",
              "type": "uint256"
            },
            {
              "internalType": "uint256",
              "name": "estimatedTotalAssets",
              "type": "uint256"
            },
            {
              "internalType": "bool",
              "name": "doHealthCheck",
              "type": "bool"
            },
            {
              "internalType": "address",
              "name": "healthCheckAddress",
              "type": "address"
            }
          ],
          "internalType": "struct StrategiesHelper.StrategyMetadata[]",
          "name": "",
          "type": "tuple[]"
        }
      ],
      "stateMutability": "view",
      "type": "function"
    },
    {
      "inputs": [
        {
          "internalType": "address",
          "name": "strategyAddress",
          "type": "address"
        }
      ],
      "name": "strategy",
      "outputs": [
        {
          "components": [
            {
              "internalType": "string",
              "name": "name",
              "type": "string"
            },
            {
              "internalType": "string",
              "name": "apiVersion",
              "type": "string"
            },
            {
              "internalType": "address",
              "name": "strategist",
              "type": "address"
            },
            {
              "internalType": "address",
              "name": "rewards",
              "type": "address"
            },
            {
              "internalType": "address",
              "name": "vault",
              "type": "address"
            },
            {
              "internalType": "address",
              "name": "keeper",
              "type": "address"
            },
            {
              "internalType": "address",
              "name": "want",
              "type": "address"
            },
            {
              "internalType": "bool",
              "name": "emergencyExit",
              "type": "bool"
            },
            {
              "internalType": "bool",
              "name": "isActive",
              "type": "bool"
            },
            {
              "internalType": "uint256",
              "name": "delegatedAssets",
              "type": "uint256"
            },
            {
              "internalType": "uint256",
              "name": "estimatedTotalAssets",
              "type": "uint256"
            },
            {
              "internalType": "bool",
              "name": "doHealthCheck",
              "type": "bool"
            },
            {
              "internalType": "address",
              "name": "healthCheckAddress",
              "type": "address"
            }
          ],
          "internalType": "struct StrategiesHelper.StrategyMetadata",
          "name": "",
          "type": "tuple"
        }
      ],
      "stateMutability": "view",
      "type": "function"
    },
    {
      "inputs": [
        {
          "internalType": "bytes32",
          "name": "slot",
          "type": "bytes32"
        },
        {
          "internalType": "bytes32",
          "name": "value",
          "type": "bytes32"
        }
      ],
      "name": "updateSlot",
      "outputs": [],
      "stateMutability": "nonpayable",
      "type": "function"
    }
  ],
  "bytecode": {
    "object": "60806040523480156200001157600080fd5b506040516200274e3803806200274e833981810160405281019062000037919062000118565b816000806101000a81548173ffffffffffffffffffffffffffffffffffffffff021916908373ffffffffffffffffffffffffffffffffffffffff16021790555080600160006101000a81548173ffffffffffffffffffffffffffffffffffffffff021916908373ffffffffffffffffffffffffffffffffffffffff16021790555033600260006101000a81548173ffffffffffffffffffffffffffffffffffffffff021916908373ffffffffffffffffffffffffffffffffffffffff1602179055505050620001a7565b60008151905062000112816200018d565b92915050565b600080604083850312156200012c57600080fd5b60006200013c8582860162000101565b92505060206200014f8582860162000101565b9150509250929050565b600062000166826200016d565b9050919050565b600073ffffffffffffffffffffffffffffffffffffffff82169050919050565b620001988162000159565b8114620001a457600080fd5b50565b61259780620001b76000396000f3fe608060405234801561001057600080fd5b50600436106100f55760003560e01c806380a0c5cd11610097578063a1a3144411610066578063a1a314441461029c578063a5b166fb146102ba578063d829c2b3146102ea578063f01c266814610308576100f5565b806380a0c5cd146102025780638f84aa091461023257806391ea83e81461025057806397a077b91461026c576100f5565b80635616c3e4116100d35780635616c3e41461017857806359bd39091461019657806361117512146101b45780637974db4b146101e4576100f5565b8063228bfd9f146100fa578063336b5eb21461012a578063474119191461015a575b600080fd5b610114600480360381019061010f9190611a5f565b610338565b6040516101219190612170565b60405180910390f35b610144600480360381019061013f9190611ab1565b610ba1565b604051610151919061212e565b60405180910390f35b610162610ce9565b60405161016f91906120ea565b60405180910390f35b610180610da2565b60405161018d9190612192565b60405180910390f35b61019e610edf565b6040516101ab91906120cf565b60405180910390f35b6101ce60048036038101906101c99190611a5f565b610f03565b6040516101db9190612192565b60405180910390f35b6101ec611023565b6040516101f991906120cf565b60405180910390f35b61021c60048036038101906102179190611ab1565b611049565b60405161022991906120ea565b60405180910390f35b61023a611240565b60405161024791906120cf565b60405180910390f35b61026a60048036038101906102659190611b5c565b611266565b005b61028660048036038101906102819190611a5f565b6112fd565b60405161029391906120ea565b60405180910390f35b6102a46114b0565b6040516102b1919061212e565b60405180910390f35b6102d460048036038101906102cf9190611a5f565b6114cd565b6040516102e19190612192565b60405180910390f35b6102f26115c3565b6040516102ff9190612192565b60405180910390f35b610322600480360381019061031d9190611a5f565b6115d3565b60405161032f919061212e565b60405180910390f35b610340611770565b60008290506000808273ffffffffffffffffffffffffffffffffffffffff16636718835f6040518163ffffffff1660e01b815260040160206040518083038186803b15801561038e57600080fd5b505afa9250505080156103bf57506040513d601f19601f820116820180604052508101906103bc9190611b33565b60015b6103c85761044a565b508273ffffffffffffffffffffffffffffffffffffffff16636718835f6040518163ffffffff1660e01b815260040160206040518083038186803b15801561040f57600080fd5b505afa158015610423573d6000803e3d6000fd5b505050506040513d601f19601f820116820180604052508101906104479190611b33565b91505b8273ffffffffffffffffffffffffffffffffffffffff1663b252720b6040518163ffffffff1660e01b815260040160206040518083038186803b15801561049057600080fd5b505afa9250505080156104c157506040513d601f19601f820116820180604052508101906104be9190611a88565b60015b6104ca5761054c565b508273ffffffffffffffffffffffffffffffffffffffff1663b252720b6040518163ffffffff1660e01b815260040160206040518083038186803b15801561051157600080fd5b505afa158015610525573d6000803e3d6000fd5b505050506040513d601f19601f820116820180604052508101906105499190611a88565b90505b604051806101a001604052808473ffffffffffffffffffffffffffffffffffffffff166306fdde036040518163ffffffff1660e01b815260040160006040518083038186803b15801561059e57600080fd5b505afa1580156105b2573d6000803e3d6000fd5b505050506040513d6000823e3d601f19601f820116820180604052508101906105db9190611b98565b81526020018473ffffffffffffffffffffffffffffffffffffffff1663258294106040518163ffffffff1660e01b815260040160006040518083038186803b15801561062657600080fd5b505afa15801561063a573d6000803e3d6000fd5b505050506040513d6000823e3d601f19601f820116820180604052508101906106639190611b98565b81526020018473ffffffffffffffffffffffffffffffffffffffff16631fe4a6866040518163ffffffff1660e01b815260040160206040518083038186803b1580156106ae57600080fd5b505afa1580156106c2573d6000803e3d6000fd5b505050506040513d601f19601f820116820180604052508101906106e69190611a88565b73ffffffffffffffffffffffffffffffffffffffff1681526020018473ffffffffffffffffffffffffffffffffffffffff16639ec5a8946040518163ffffffff1660e01b815260040160206040518083038186803b15801561074757600080fd5b505afa15801561075b573d6000803e3d6000fd5b505050506040513d601f19601f8201168201806040525081019061077f9190611a88565b73ffffffffffffffffffffffffffffffffffffffff1681526020018473ffffffffffffffffffffffffffffffffffffffff1663fbfa77cf6040518163ffffffff1660e01b815260040160206040518083038186803b1580156107e057600080fd5b505afa1580156107f4573d6000803e3d6000fd5b505050506040513d601f19601f820116820180604052508101906108189190611a88565b73ffffffffffffffffffffffffffffffffffffffff1681526020018473ffffffffffffffffffffffffffffffffffffffff1663aced16616040518163ffffffff1660e01b815260040160206040518083038186803b15801561087957600080fd5b505afa15801561088d573d6000803e3d6000fd5b505050506040513d601f19601f820116820180604052508101906108b19190611a88565b73ffffffffffffffffffffffffffffffffffffffff1681526020018473ffffffffffffffffffffffffffffffffffffffff16631f1fcd516040518163ffffffff1660e01b815260040160206040518083038186803b15801561091257600080fd5b505afa158015610926573d6000803e3d6000fd5b505050506040513d601f19601f8201168201806040525081019061094a9190611a88565b73ffffffffffffffffffffffffffffffffffffffff1681526020018473ffffffffffffffffffffffffffffffffffffffff16635641ec036040518163ffffffff1660e01b815260040160206040518083038186803b1580156109ab57600080fd5b505afa1580156109bf573d6000803e3d6000fd5b505050506040513d601f19601f820116820180604052508101906109e39190611b33565b151581526020018473ffffffffffffffffffffffffffffffffffffffff166322f3e2d46040518163ffffffff1660e01b815260040160206040518083038186803b158015610a3057600080fd5b505afa158015610a44573d6000803e3d6000fd5b505050506040513d601f19601f82011682018060405250810190610a689190611b33565b151581526020018473ffffffffffffffffffffffffffffffffffffffff16638e6350e26040518163ffffffff1660e01b815260040160206040518083038186803b158015610ab557600080fd5b505afa158015610ac9573d6000803e3d6000fd5b505050506040513d601f19601f82011682018060405250810190610aed9190611bd9565b81526020018473ffffffffffffffffffffffffffffffffffffffff1663efbb5cb06040518163ffffffff1660e01b815260040160206040518083038186803b158015610b3857600080fd5b505afa158015610b4c573d6000803e3d6000fd5b505050506040513d601f19601f82011682018060405250810190610b709190611bd9565b815260200183151581526020018273ffffffffffffffffffffffffffffffffffffffff168152509350505050919050565b606060008251905060008167ffffffffffffffff811115610beb577f4e487b7100000000000000000000000000000000000000000000000000000000600052604160045260246000fd5b604051908082528060200260200182016040528015610c2457816020015b610c11611770565b815260200190600190039081610c095790505b50905060005b82811015610cde576000858281518110610c6d577f4e487b7100000000000000000000000000000000000000000000000000000000600052603260045260246000fd5b602002602001015190506000610c8282610338565b905080848481518110610cbe577f4e487b7100000000000000000000000000000000000000000000000000000000600052603260045260246000fd5b602002602001018190525050508080610cd690612424565b915050610c2a565b508092505050919050565b606060008060009054906101000a900473ffffffffffffffffffffffffffffffffffffffff1673ffffffffffffffffffffffffffffffffffffffff1663a31091c76040518163ffffffff1660e01b815260040160006040518083038186803b158015610d5457600080fd5b505afa158015610d68573d6000803e3d6000fd5b505050506040513d6000823e3d601f19601f82011682018060405250810190610d919190611af2565b9050610d9c81611049565b91505090565b60008060008054906101000a900473ffffffffffffffffffffffffffffffffffffffff1673ffffffffffffffffffffffffffffffffffffffff1663a31091c76040518163ffffffff1660e01b815260040160006040518083038186803b158015610e0b57600080fd5b505afa158015610e1f573d6000803e3d6000fd5b505050506040513d6000823e3d601f19601f82011682018060405250810190610e489190611af2565b9050600081519050600080600090505b82811015610ed5576000848281518110610e9b577f4e487b7100000000000000000000000000000000000000000000000000000000600052603260045260246000fd5b602002602001015190506000610eb082610f03565b90508084610ebe9190612318565b935050508080610ecd90612424565b915050610e58565b5080935050505090565b60008054906101000a900473ffffffffffffffffffffffffffffffffffffffff1681565b600080610f0f836112fd565b9050600081519050600080600090505b82811015611017576000848281518110610f62577f4e487b7100000000000000000000000000000000000000000000000000000000600052603260045260246000fd5b60200260200101519050600081905060008173ffffffffffffffffffffffffffffffffffffffff16638e6350e26040518163ffffffff1660e01b815260040160206040518083038186803b158015610fb957600080fd5b505afa158015610fcd573d6000803e3d6000fd5b505050506040513d601f19601f82011682018060405250810190610ff19190611bd9565b90508085610fff9190612318565b9450505050808061100f90612424565b915050610f1f565b50809350505050919050565b600160009054906101000a900473ffffffffffffffffffffffffffffffffffffffff1681565b606060008251905060008167ffffffffffffffff811115611093577f4e487b7100000000000000000000000000000000000000000000000000000000600052604160045260246000fd5b6040519080825280602002602001820160405280156110c657816020015b60608152602001906001900390816110b15790505b50905060005b8281101561118057600085828151811061110f577f4e487b7100000000000000000000000000000000000000000000000000000000600052603260045260246000fd5b602002602001015190506000611124826112fd565b905080848481518110611160577f4e487b7100000000000000000000000000000000000000000000000000000000600052603260045260246000fd5b60200260200101819052505050808061117890612424565b9150506110cc565b506000600160009054906101000a900473ffffffffffffffffffffffffffffffffffffffff1673ffffffffffffffffffffffffffffffffffffffff1663c0ca9ab8836040518263ffffffff1660e01b81526004016111de919061210c565b60006040518083038186803b1580156111f657600080fd5b505afa15801561120a573d6000803e3d6000fd5b505050506040513d6000823e3d601f19601f820116820180604052508101906112339190611af2565b9050809350505050919050565b600260009054906101000a900473ffffffffffffffffffffffffffffffffffffffff1681565b600260009054906101000a900473ffffffffffffffffffffffffffffffffffffffff1673ffffffffffffffffffffffffffffffffffffffff163373ffffffffffffffffffffffffffffffffffffffff16146112f6576040517f08c379a00000000000000000000000000000000000000000000000000000000081526004016112ed90612150565b60405180910390fd5b8082555050565b60606000829050600061130f846114cd565b905060008167ffffffffffffffff811115611353577f4e487b7100000000000000000000000000000000000000000000000000000000600052604160045260246000fd5b6040519080825280602002602001820160405280156113815781602001602082028036833780820191505090505b50905060005b828110156114a45760008473ffffffffffffffffffffffffffffffffffffffff1663c822adda836040518263ffffffff1660e01b81526004016113ca9190612192565b60206040518083038186803b1580156113e257600080fd5b505afa1580156113f6573d6000803e3d6000fd5b505050506040513d601f19601f8201168201806040525081019061141a9190611a88565b905080838381518110611456577f4e487b7100000000000000000000000000000000000000000000000000000000600052603260045260246000fd5b602002602001019073ffffffffffffffffffffffffffffffffffffffff16908173ffffffffffffffffffffffffffffffffffffffff168152505050808061149c90612424565b915050611387565b50809350505050919050565b606060006114bc610ce9565b90506114c781610ba1565b91505090565b60008082905060005b6001156115b95760008273ffffffffffffffffffffffffffffffffffffffff1663c822adda836040518263ffffffff1660e01b81526004016115189190612192565b60206040518083038186803b15801561153057600080fd5b505afa158015611544573d6000803e3d6000fd5b505050506040513d601f19601f820116820180604052508101906115689190611a88565b9050600073ffffffffffffffffffffffffffffffffffffffff168173ffffffffffffffffffffffffffffffffffffffff1614156115a557506115b9565b81806115b090612424565b925050506114d6565b8092505050919050565b60006115cd610ce9565b51905090565b6060600082905060006115e5846114cd565b905060008167ffffffffffffffff811115611629577f4e487b7100000000000000000000000000000000000000000000000000000000600052604160045260246000fd5b60405190808252806020026020018201604052801561166257816020015b61164f611770565b8152602001906001900390816116475790505b50905060005b828110156117645760008473ffffffffffffffffffffffffffffffffffffffff1663c822adda836040518263ffffffff1660e01b81526004016116ab9190612192565b60206040518083038186803b1580156116c357600080fd5b505afa1580156116d7573d6000803e3d6000fd5b505050506040513d601f19601f820116820180604052508101906116fb9190611a88565b9050600061170882610338565b905080848481518110611744577f4e487b7100000000000000000000000000000000000000000000000000000000600052603260045260246000fd5b60200260200101819052505050808061175c90612424565b915050611668565b50809350505050919050565b604051806101a001604052806060815260200160608152602001600073ffffffffffffffffffffffffffffffffffffffff168152602001600073ffffffffffffffffffffffffffffffffffffffff168152602001600073ffffffffffffffffffffffffffffffffffffffff168152602001600073ffffffffffffffffffffffffffffffffffffffff168152602001600073ffffffffffffffffffffffffffffffffffffffff1681526020016000151581526020016000151581526020016000815260200160008152602001600015158152602001600073ffffffffffffffffffffffffffffffffffffffff1681525090565b6000611875611870846121d2565b6121ad565b9050808382526020820190508285602086028201111561189457600080fd5b60005b858110156118c457816118aa8882611978565b845260208401935060208301925050600181019050611897565b5050509392505050565b60006118e16118dc846121d2565b6121ad565b9050808382526020820190508285602086028201111561190057600080fd5b60005b858110156119305781611916888261198d565b845260208401935060208301925050600181019050611903565b5050509392505050565b600061194d611948846121fe565b6121ad565b90508281526020810184848401111561196557600080fd5b6119708482856123c0565b509392505050565b60008135905061198781612505565b92915050565b60008151905061199c81612505565b92915050565b600082601f8301126119b357600080fd5b81356119c3848260208601611862565b91505092915050565b600082601f8301126119dd57600080fd5b81516119ed8482602086016118ce565b91505092915050565b600081519050611a058161251c565b92915050565b600081359050611a1a81612533565b92915050565b600082601f830112611a3157600080fd5b8151611a4184826020860161193a565b91505092915050565b600081519050611a598161254a565b92915050565b600060208284031215611a7157600080fd5b6000611a7f84828501611978565b91505092915050565b600060208284031215611a9a57600080fd5b6000611aa88482850161198d565b91505092915050565b600060208284031215611ac357600080fd5b600082013567ffffffffffffffff811115611add57600080fd5b611ae9848285016119a2565b91505092915050565b600060208284031215611b0457600080fd5b600082015167ffffffffffffffff811115611b1e57600080fd5b611b2a848285016119cc565b91505092915050565b600060208284031215611b4557600080fd5b6000611b53848285016119f6565b91505092915050565b60008060408385031215611b6f57600080fd5b6000611b7d85828601611a0b565b9250506020611b8e85828601611a0b565b9150509250929050565b600060208284031215611baa57600080fd5b600082015167ffffffffffffffff811115611bc457600080fd5b611bd084828501611a20565b91505092915050565b600060208284031215611beb57600080fd5b6000611bf984828501611a4a565b91505092915050565b6000611c0e8383611c42565b60208301905092915050565b6000611c268383611c60565b905092915050565b6000611c3a8383611e71565b905092915050565b611c4b8161236e565b82525050565b611c5a8161236e565b82525050565b6000611c6b8261225f565b611c7581856122b2565b9350611c808361222f565b8060005b83811015611cb1578151611c988882611c02565b9750611ca38361228b565b925050600181019050611c84565b5085935050505092915050565b6000611cc98261225f565b611cd381856122c3565b9350611cde8361222f565b8060005b83811015611d0f578151611cf68882611c02565b9750611d018361228b565b925050600181019050611ce2565b5085935050505092915050565b6000611d278261226a565b611d3181856122d4565b935083602082028501611d438561223f565b8060005b85811015611d7f5784840389528151611d608582611c1a565b9450611d6b83612298565b925060208a01995050600181019050611d47565b50829750879550505050505092915050565b6000611d9c82612275565b611da681856122e5565b935083602082028501611db88561224f565b8060005b85811015611df45784840389528151611dd58582611c2e565b9450611de0836122a5565b925060208a01995050600181019050611dbc565b50829750879550505050505092915050565b611e0f81612380565b82525050565b6000611e2082612280565b611e2a81856122f6565b9350611e3a8185602086016123c0565b611e43816124cb565b840191505092915050565b6000611e5b601783612307565b9150611e66826124dc565b602082019050919050565b60006101a0830160008301518482036000860152611e8f8282611e15565b91505060208301518482036020860152611ea98282611e15565b9150506040830151611ebe6040860182611c42565b506060830151611ed16060860182611c42565b506080830151611ee46080860182611c42565b5060a0830151611ef760a0860182611c42565b5060c0830151611f0a60c0860182611c42565b5060e0830151611f1d60e0860182611e06565b50610100830151611f32610100860182611e06565b50610120830151611f476101208601826120b1565b50610140830151611f5c6101408601826120b1565b50610160830151611f71610160860182611e06565b50610180830151611f86610180860182611c42565b508091505092915050565b60006101a0830160008301518482036000860152611faf8282611e15565b91505060208301518482036020860152611fc98282611e15565b9150506040830151611fde6040860182611c42565b506060830151611ff16060860182611c42565b5060808301516120046080860182611c42565b5060a083015161201760a0860182611c42565b5060c083015161202a60c0860182611c42565b5060e083015161203d60e0860182611e06565b50610100830151612052610100860182611e06565b506101208301516120676101208601826120b1565b5061014083015161207c6101408601826120b1565b50610160830151612091610160860182611e06565b506101808301516120a6610180860182611c42565b508091505092915050565b6120ba816123b6565b82525050565b6120c9816123b6565b82525050565b60006020820190506120e46000830184611c51565b92915050565b600060208201905081810360008301526121048184611cbe565b905092915050565b600060208201905081810360008301526121268184611d1c565b905092915050565b600060208201905081810360008301526121488184611d91565b905092915050565b6000602082019050818103600083015261216981611e4e565b9050919050565b6000602082019050818103600083015261218a8184611f91565b905092915050565b60006020820190506121a760008301846120c0565b92915050565b60006121b76121c8565b90506121c382826123f3565b919050565b6000604051905090565b600067ffffffffffffffff8211156121ed576121ec61249c565b5b602082029050602081019050919050565b600067ffffffffffffffff8211156122195761221861249c565b5b612222826124cb565b9050602081019050919050565b6000819050602082019050919050565b6000819050602082019050919050565b6000819050602082019050919050565b600081519050919050565b600081519050919050565b600081519050919050565b600081519050919050565b6000602082019050919050565b6000602082019050919050565b6000602082019050919050565b600082825260208201905092915050565b600082825260208201905092915050565b600082825260208201905092915050565b600082825260208201905092915050565b600082825260208201905092915050565b600082825260208201905092915050565b6000612323826123b6565b915061232e836123b6565b9250827fffffffffffffffffffffffffffffffffffffffffffffffffffffffffffffffff038211156123635761236261246d565b5b828201905092915050565b600061237982612396565b9050919050565b60008115159050919050565b6000819050919050565b600073ffffffffffffffffffffffffffffffffffffffff82169050919050565b6000819050919050565b60005b838110156123de5780820151818401526020810190506123c3565b838111156123ed576000848401525b50505050565b6123fc826124cb565b810181811067ffffffffffffffff8211171561241b5761241a61249c565b5b80604052505050565b600061242f826123b6565b91507fffffffffffffffffffffffffffffffffffffffffffffffffffffffffffffffff8214156124625761246161246d565b5b600182019050919050565b7f4e487b7100000000000000000000000000000000000000000000000000000000600052601160045260246000fd5b7f4e487b7100000000000000000000000000000000000000000000000000000000600052604160045260246000fd5b6000601f19601f8301169050919050565b7f43616c6c6572206973206e6f7420746865206f776e6572000000000000000000600082015250565b61250e8161236e565b811461251957600080fd5b50565b61252581612380565b811461253057600080fd5b50565b61253c8161238c565b811461254757600080fd5b50565b612553816123b6565b811461255e57600080fd5b5056fea264697066735822122061afcdf5aa08158e0bc453333cbaa4da187aadd7dc2c5d565ef9b51a87c4fbd764736f6c63430008020033"
  }
}