{
  "opcodeHash": "0xb8f1c15ec98176073b7240415ddb79ae7975d18da9b4dc957bcc0ab36d2e5be0",
  "metalessHash": "0xafd0ad7765f6678df6f8d8371a10798f8f654526d3f8e66f58e7ef36fbf87956",
  "runtimeHash": "0xc7b6e2230ab982a14eec54b57c0242983958f024a48fc9aa688b93e546cca654",
  "encodedMetadata": [
    {
      "ipfs": "/ipfs/QmYnhw3VUfUv2mdrmVChjpenP5DQLDbbigeADGEJjdZFs3",
      "solc": "0.6.6"
    }
  ],
  "abi": [
    {
      "inputs": [],
      "stateMutability": "nonpayable",
      "type": "constructor"
    },
    {
      "anonymous": false,
      "inputs": [
        {
          "indexed": true,
          "internalType": "address",
          "name": "owner",
          "type": "address"
        },
        {
          "indexed": true,
          "internalType": "address",
          "name": "approved",
          "type": "address"
        },
        {
          "indexed": true,
          "internalType": "uint256",
          "name": "tokenId",
          "type": "uint256"
        }
      ],
      "name": "Approval",
      "type": "event"
    },
    {
      "anonymous": false,
      "inputs": [
        {
          "indexed": true,
          "internalType": "address",
          "name": "owner",
          "type": "address"
        },
        {
          "indexed": true,
          "internalType": "address",
          "name": "operator",
          "type": "address"
        },
        {
          "indexed": false,
          "internalType": "bool",
          "name": "approved",
          "type": "bool"
        }
      ],
      "name": "ApprovalForAll",
      "type": "event"
    },
    {
      "anonymous": false,
      "inputs": [
        {
          "indexed": true,
          "internalType": "address",
          "name": "from",
          "type": "address"
        },
        {
          "indexed": true,
          "internalType": "address",
          "name": "to",
          "type": "address"
        },
        {
          "indexed": true,
          "internalType": "uint256",
          "name": "tokenId",
          "type": "uint256"
        }
      ],
      "name": "Transfer",
      "type": "event"
    },
    {
      "inputs": [],
      "name": "FinalLock",
      "outputs": [
        {
          "internalType": "bool",
          "name": "",
          "type": "bool"
        }
      ],
      "stateMutability": "view",
      "type": "function"
    },
    {
      "inputs": [
        {
          "internalType": "address",
          "name": "NewContract",
          "type": "address"
        },
        {
          "internalType": "uint256",
          "name": "ContractNum",
          "type": "uint256"
        },
        {
          "internalType": "uint256",
          "name": "NFTrewardamount",
          "type": "uint256"
        },
        {
          "internalType": "uint256",
          "name": "newNum",
          "type": "uint256"
        }
      ],
      "name": "addNFTContract",
      "outputs": [],
      "stateMutability": "nonpayable",
      "type": "function"
    },
    {
      "inputs": [
        {
          "internalType": "address",
          "name": "to",
          "type": "address"
        },
        {
          "internalType": "uint256",
          "name": "tokenId",
          "type": "uint256"
        }
      ],
      "name": "approve",
      "outputs": [],
      "stateMutability": "nonpayable",
      "type": "function"
    },
    {
      "inputs": [
        {
          "internalType": "address",
          "name": "owner",
          "type": "address"
        }
      ],
      "name": "balanceOf",
      "outputs": [
        {
          "internalType": "uint256",
          "name": "",
          "type": "uint256"
        }
      ],
      "stateMutability": "view",
      "type": "function"
    },
    {
      "inputs": [],
      "name": "baseURI",
      "outputs": [
        {
          "internalType": "string",
          "name": "",
          "type": "string"
        }
      ],
      "stateMutability": "view",
      "type": "function"
    },
    {
      "inputs": [
        {
          "internalType": "uint256",
          "name": "",
          "type": "uint256"
        }
      ],
      "name": "bvAmounts",
      "outputs": [
        {
          "internalType": "uint256",
          "name": "",
          "type": "uint256"
        }
      ],
      "stateMutability": "view",
      "type": "function"
    },
    {
      "inputs": [
        {
          "internalType": "uint256",
          "name": "newCap",
          "type": "uint256"
        }
      ],
      "name": "changeRewardsCap",
      "outputs": [],
      "stateMutability": "nonpayable",
      "type": "function"
    },
    {
      "inputs": [],
      "name": "claimRewards",
      "outputs": [],
      "stateMutability": "nonpayable",
      "type": "function"
    },
    {
      "inputs": [
        {
          "internalType": "address",
          "name": "",
          "type": "address"
        }
      ],
      "name": "claimerTime",
      "outputs": [
        {
          "internalType": "uint256",
          "name": "",
          "type": "uint256"
        }
      ],
      "stateMutability": "view",
      "type": "function"
    },
    {
      "inputs": [
        {
          "internalType": "uint256",
          "name": "",
          "type": "uint256"
        }
      ],
      "name": "contractList",
      "outputs": [
        {
          "internalType": "address",
          "name": "",
          "type": "address"
        }
      ],
      "stateMutability": "view",
      "type": "function"
    },
    {
      "inputs": [
        {
          "internalType": "address",
          "name": "",
          "type": "address"
        }
      ],
      "name": "currentStaking",
      "outputs": [
        {
          "internalType": "uint256",
          "name": "",
          "type": "uint256"
        }
      ],
      "stateMutability": "view",
      "type": "function"
    },
    {
      "inputs": [
        {
          "internalType": "address",
          "name": "",
          "type": "address"
        }
      ],
      "name": "currentStakingLevel",
      "outputs": [
        {
          "internalType": "uint256",
          "name": "",
          "type": "uint256"
        }
      ],
      "stateMutability": "view",
      "type": "function"
    },
    {
      "inputs": [
        {
          "internalType": "uint256",
          "name": "tokenId",
          "type": "uint256"
        }
      ],
      "name": "getApproved",
      "outputs": [
        {
          "internalType": "address",
          "name": "",
          "type": "address"
        }
      ],
      "stateMutability": "view",
      "type": "function"
    },
    {
      "inputs": [],
      "name": "getBalance",
      "outputs": [
        {
          "internalType": "uint256",
          "name": "",
          "type": "uint256"
        }
      ],
      "stateMutability": "view",
      "type": "function"
    },
    {
      "inputs": [
        {
          "internalType": "address",
          "name": "owner",
          "type": "address"
        },
        {
          "internalType": "address",
          "name": "operator",
          "type": "address"
        }
      ],
      "name": "isApprovedForAll",
      "outputs": [
        {
          "internalType": "bool",
          "name": "",
          "type": "bool"
        }
      ],
      "stateMutability": "view",
      "type": "function"
    },
    {
      "inputs": [],
      "name": "lockRewards",
      "outputs": [],
      "stateMutability": "nonpayable",
      "type": "function"
    },
    {
      "inputs": [],
      "name": "name",
      "outputs": [
        {
          "internalType": "string",
          "name": "",
          "type": "string"
        }
      ],
      "stateMutability": "view",
      "type": "function"
    },
    {
      "inputs": [],
      "name": "owner",
      "outputs": [
        {
          "internalType": "address",
          "name": "",
          "type": "address"
        }
      ],
      "stateMutability": "view",
      "type": "function"
    },
    {
      "inputs": [
        {
          "internalType": "uint256",
          "name": "tokenId",
          "type": "uint256"
        }
      ],
      "name": "ownerOf",
      "outputs": [
        {
          "internalType": "address",
          "name": "",
          "type": "address"
        }
      ],
      "stateMutability": "view",
      "type": "function"
    },
    {
      "inputs": [],
      "name": "pixaaddress",
      "outputs": [
        {
          "internalType": "address",
          "name": "",
          "type": "address"
        }
      ],
      "stateMutability": "view",
      "type": "function"
    },
    {
      "inputs": [],
      "name": "rewardLock",
      "outputs": [
        {
          "internalType": "bool",
          "name": "",
          "type": "bool"
        }
      ],
      "stateMutability": "view",
      "type": "function"
    },
    {
      "inputs": [],
      "name": "rewardsCap",
      "outputs": [
        {
          "internalType": "uint256",
          "name": "",
          "type": "uint256"
        }
      ],
      "stateMutability": "view",
      "type": "function"
    },
    {
      "inputs": [],
      "name": "rewardsaddress",
      "outputs": [
        {
          "internalType": "address",
          "name": "",
          "type": "address"
        }
      ],
      "stateMutability": "view",
      "type": "function"
    },
    {
      "inputs": [
        {
          "internalType": "address",
          "name": "from",
          "type": "address"
        },
        {
          "internalType": "address",
          "name": "to",
          "type": "address"
        },
        {
          "internalType": "uint256",
          "name": "tokenId",
          "type": "uint256"
        }
      ],
      "name": "safeTransferFrom",
      "outputs": [],
      "stateMutability": "nonpayable",
      "type": "function"
    },
    {
      "inputs": [
        {
          "internalType": "address",
          "name": "from",
          "type": "address"
        },
        {
          "internalType": "address",
          "name": "to",
          "type": "address"
        },
        {
          "internalType": "uint256",
          "name": "tokenId",
          "type": "uint256"
        },
        {
          "internalType": "bytes",
          "name": "_data",
          "type": "bytes"
        }
      ],
      "name": "safeTransferFrom",
      "outputs": [],
      "stateMutability": "nonpayable",
      "type": "function"
    },
    {
      "inputs": [
        {
          "internalType": "address",
          "name": "operator",
          "type": "address"
        },
        {
          "internalType": "bool",
          "name": "approved",
          "type": "bool"
        }
      ],
      "name": "setApprovalForAll",
      "outputs": [],
      "stateMutability": "nonpayable",
      "type": "function"
    },
    {
      "inputs": [
        {
          "internalType": "address",
          "name": "newRewards",
          "type": "address"
        }
      ],
      "name": "setRewardsAddress",
      "outputs": [],
      "stateMutability": "nonpayable",
      "type": "function"
    },
    {
      "inputs": [],
      "name": "stakeLock",
      "outputs": [
        {
          "internalType": "bool",
          "name": "",
          "type": "bool"
        }
      ],
      "stateMutability": "view",
      "type": "function"
    },
    {
      "inputs": [
        {
          "internalType": "uint256",
          "name": "stakeLevel",
          "type": "uint256"
        }
      ],
      "name": "stakePixa",
      "outputs": [],
      "stateMutability": "nonpayable",
      "type": "function"
    },
    {
      "inputs": [
        {
          "internalType": "uint256",
          "name": "",
          "type": "uint256"
        }
      ],
      "name": "stakingAmounts",
      "outputs": [
        {
          "internalType": "uint256",
          "name": "",
          "type": "uint256"
        }
      ],
      "stateMutability": "view",
      "type": "function"
    },
    {
      "inputs": [],
      "name": "startRewards",
      "outputs": [],
      "stateMutability": "nonpayable",
      "type": "function"
    },
    {
      "inputs": [],
      "name": "startStake",
      "outputs": [],
      "stateMutability": "nonpayable",
      "type": "function"
    },
    {
      "inputs": [],
      "name": "stopRewards",
      "outputs": [],
      "stateMutability": "nonpayable",
      "type": "function"
    },
    {
      "inputs": [],
      "name": "stopStake",
      "outputs": [],
      "stateMutability": "nonpayable",
      "type": "function"
    },
    {
      "inputs": [
        {
          "internalType": "bytes4",
          "name": "interfaceId",
          "type": "bytes4"
        }
      ],
      "name": "supportsInterface",
      "outputs": [
        {
          "internalType": "bool",
          "name": "",
          "type": "bool"
        }
      ],
      "stateMutability": "view",
      "type": "function"
    },
    {
      "inputs": [],
      "name": "symbol",
      "outputs": [
        {
          "internalType": "string",
          "name": "",
          "type": "string"
        }
      ],
      "stateMutability": "view",
      "type": "function"
    },
    {
      "inputs": [
        {
          "internalType": "uint256",
          "name": "index",
          "type": "uint256"
        }
      ],
      "name": "tokenByIndex",
      "outputs": [
        {
          "internalType": "uint256",
          "name": "",
          "type": "uint256"
        }
      ],
      "stateMutability": "view",
      "type": "function"
    },
    {
      "inputs": [
        {
          "internalType": "address",
          "name": "owner",
          "type": "address"
        },
        {
          "internalType": "uint256",
          "name": "index",
          "type": "uint256"
        }
      ],
      "name": "tokenOfOwnerByIndex",
      "outputs": [
        {
          "internalType": "uint256",
          "name": "",
          "type": "uint256"
        }
      ],
      "stateMutability": "view",
      "type": "function"
    },
    {
      "inputs": [
        {
          "internalType": "uint256",
          "name": "tokenId",
          "type": "uint256"
        }
      ],
      "name": "tokenURI",
      "outputs": [
        {
          "internalType": "string",
          "name": "",
          "type": "string"
        }
      ],
      "stateMutability": "view",
      "type": "function"
    },
    {
      "inputs": [],
      "name": "totalContracts",
      "outputs": [
        {
          "internalType": "uint256",
          "name": "",
          "type": "uint256"
        }
      ],
      "stateMutability": "view",
      "type": "function"
    },
    {
      "inputs": [],
      "name": "totalStaked",
      "outputs": [
        {
          "internalType": "uint256",
          "name": "",
          "type": "uint256"
        }
      ],
      "stateMutability": "view",
      "type": "function"
    },
    {
      "inputs": [],
      "name": "totalSupply",
      "outputs": [
        {
          "internalType": "uint256",
          "name": "",
          "type": "uint256"
        }
      ],
      "stateMutability": "view",
      "type": "function"
    },
    {
      "inputs": [
        {
          "internalType": "address",
          "name": "from",
          "type": "address"
        },
        {
          "internalType": "address",
          "name": "to",
          "type": "address"
        },
        {
          "internalType": "uint256",
          "name": "tokenId",
          "type": "uint256"
        }
      ],
      "name": "transferFrom",
      "outputs": [],
      "stateMutability": "nonpayable",
      "type": "function"
    },
    {
      "inputs": [],
      "name": "unstakePixa",
      "outputs": [],
      "stateMutability": "nonpayable",
      "type": "function"
    },
    {
      "inputs": [],
      "name": "wallet",
      "outputs": [
        {
          "internalType": "address",
          "name": "",
          "type": "address"
        }
      ],
      "stateMutability": "view",
      "type": "function"
    },
    {
      "inputs": [
        {
          "internalType": "uint256",
          "name": "amount",
          "type": "uint256"
        },
        {
          "internalType": "uint256",
          "name": "transferpamount",
          "type": "uint256"
        }
      ],
      "name": "withdrawAmount",
      "outputs": [],
      "stateMutability": "nonpayable",
      "type": "function"
    },
    {
      "stateMutability": "payable",
      "type": "receive"
    }
  ],
  "bytecode": {
    "object": "6080604052600a8054735c2b89cbec1a4996aa5e81f3dff8505abec6b34c6001600160a01b03199182168117909255600b80548216909217909155600c805473eaf211cd484118a23ad71c3f9073189c43d1311c9083168117909155600d8054600160a01b931690911760ff60a01b19169190911761ffff60a81b191690556006600e556000600f556175306010553480156200009b57600080fd5b50604080518082018252601081526f122824ac20902932bbb0b93239902b1960811b60208083019190915282519081019092526000825290620000ee6301ffc9a760e01b6001600160e01b036200046516565b815162000103906006906020850190620004ea565b50805162000119906007906020840190620004ea565b50620001356380ac58cd60e01b6001600160e01b036200046516565b62000150635b5e139f60e01b6001600160e01b036200046516565b6200016b63780e9d6360e01b6001600160e01b036200046516565b505060327f17bc176d2408558f6e4111feebc3cab4e16b63e967be91cde721f4c8a488b5528190556101f47f08037d7b151cc412d25674a4e66b334d9ae9d2e5517a7feaae5cdb828bf1c628556113887f9bfbaa59f8e10e7868f8b402de9d605a390c45ddaebd8c9de3c6f31e733c87ff5561c3507f251164fe1d8864fe5e86082eae9c288bc2b58695a4d28538dfe86e9e4f175585557f7e7fa33969761a458e04f477e039a608702b4f924981d6653935a8319a08ad7b80546001600160a01b031990811673c6b0b290176aaab958441dcb0c64ad057cbc39a0179091557f71a67924699a20698523213e55fe499d539379d7769cd5567e2c45d583f815a38054821673b144ec7d231ddde69d8790e5a868a64572a0845b1790557f8e1fee8c88a9e04123b21e90cae2727a7715bf522a1e46eb5934ccd05203a6b28054821673d8ab2b8b8a6036dcb91d44cbdf6e9a42a199ebe21790557f0f36ad39aee03e7108cc48f54934702a5f0d4066f10344cebf8198978d86976a8054821673bd16c356e4dea7b0bb821b853f684ddeb8dd16201790557fb4fcd034df3d20faa1c133b66d862ce92732727d40916b48ffb4020cb00fe05380548216736b6b77c3ac72c76fb7f57444782869de427a51b51790557f45429b9195d4ec5c0cf6c69e9c21a4ca0ea773b702c2de5735f85d2631f267468054909116730f1255d9e644195cc6a040adfe7efe2fa7d64fce179055601360205260647f8fa6efc3be94b5b348b21fea823fe8d100408cee9b7f90524494500445d8ff6c81905560467f4155c2f711f2cdd34f8262ab8fb9b7020a700fe7b6948222152f7670d1fdf34d557f0b9d2c0c271bb30544eb78c59bdaebdae2728e5f65814c07768a0abe90ed1923919091557f0d2a6872ef858a7f8ead18dc4f3f2e8d35c853d47e2816cbb9cdd49202554e0c5560237f01413ff7a3b1d5b6c016c061d48e2c7014700c777a29fcd068fff04265813d5d55600560008190527ff4b2859895858d6aa26d656e4999d552f6a869b74c43bba7d2a941c4d22c3559556200058f565b6001600160e01b03198082161415620004c5576040805162461bcd60e51b815260206004820152601c60248201527f4552433136353a20696e76616c696420696e7465726661636520696400000000604482015290519081900360640190fd5b6001600160e01b0319166000908152602081905260409020805460ff19166001179055565b828054600181600116156101000203166002900490600052602060002090601f016020900481019282601f106200052d57805160ff19168380011785556200055d565b828001600101855582156200055d579182015b828111156200055d57825182559160200191906001019062000540565b506200056b9291506200056f565b5090565b6200058c91905b808211156200056b576000815560010162000576565b90565b612884806200059f6000396000f3fe6080604052600436106102815760003560e01c80634f6ccce71161014f57806395d89b41116100c1578063b918f9c81161007a578063b918f9c81461098b578063c87b56dd146109b5578063d46c83e6146109df578063e985e9c5146109f4578063f438fb3114610a2f578063f6d9347914610a4457610288565b806395d89b4114610829578063a09037a91461083e578063a0e2751014610853578063a22cb46514610868578063b74081f5146108a3578063b88d4fde146108b857610288565b80636c0360eb116101135780636c0360eb1461076f57806370a0823114610784578063797008c6146107b7578063817b1cd2146107cc5780638906758d146107e15780638da5cb5b1461081457610288565b80634f6ccce7146106b2578063521eb273146106dc5780635cd407cb146106f15780636352211e1461071b5780636a5bb5d81461074557610288565b80632dfd0bdc116101f35780633885c67e116101ac5780633885c67e1461057357806340317e70146105b857806342842e0e146105e2578063435c89e414610625578063436bb1991461064f57806344eca8b31461067f57610288565b80632dfd0bdc146104d15780632f745c59146104e657806330dba1e71461051f57806334e9646814610534578063372500ab14610549578063376d771a1461055e57610288565b806312065fe01161024557806312065fe01461042557806318160ddd1461043a57806323b872dd1461044f578063283f13fe1461049257806328e9d35b146104a75780632cd89ea4146104bc57610288565b806301ffc9a71461028d57806306b8ae45146102d557806306fdde031461031a578063081812fc146103a4578063095ea7b3146103ea57610288565b3661028857005b600080fd5b34801561029957600080fd5b506102c1600480360360208110156102b057600080fd5b50356001600160e01b031916610a77565b604080519115158252519081900360200190f35b3480156102e157600080fd5b50610308600480360360208110156102f857600080fd5b50356001600160a01b0316610a9a565b60408051918252519081900360200190f35b34801561032657600080fd5b5061032f610aac565b6040805160208082528351818301528351919283929083019185019080838360005b83811015610369578181015183820152602001610351565b50505050905090810190601f1680156103965780820380516001836020036101000a031916815260200191505b509250505060405180910390f35b3480156103b057600080fd5b506103ce600480360360208110156103c757600080fd5b5035610b42565b604080516001600160a01b039092168252519081900360200190f35b3480156103f657600080fd5b506104236004803603604081101561040d57600080fd5b506001600160a01b038135169060200135610ba4565b005b34801561043157600080fd5b50610308610c7f565b34801561044657600080fd5b50610308610c83565b34801561045b57600080fd5b506104236004803603606081101561047257600080fd5b506001600160a01b03813581169160208101359091169060400135610c94565b34801561049e57600080fd5b50610423610ceb565b3480156104b357600080fd5b50610423610d27565b3480156104c857600080fd5b506102c1610d69565b3480156104dd57600080fd5b50610423610d79565b3480156104f257600080fd5b506103086004803603604081101561050957600080fd5b506001600160a01b038135169060200135610dbb565b34801561052b57600080fd5b506103ce610dec565b34801561054057600080fd5b50610308610dfb565b34801561055557600080fd5b50610423610e01565b34801561056a57600080fd5b5061042361104a565b34801561057f57600080fd5b506104236004803603608081101561059657600080fd5b506001600160a01b038135169060208101359060408101359060600135611070565b3480156105c457600080fd5b50610423600480360360208110156105db57600080fd5b50356110c5565b3480156105ee57600080fd5b506104236004803603606081101561060557600080fd5b506001600160a01b038135811691602081013590911690604001356111e2565b34801561063157600080fd5b506103086004803603602081101561064857600080fd5b50356111fd565b34801561065b57600080fd5b506104236004803603604081101561067257600080fd5b508035906020013561120f565b34801561068b57600080fd5b50610308600480360360208110156106a257600080fd5b50356001600160a01b03166112d3565b3480156106be57600080fd5b50610308600480360360208110156106d557600080fd5b50356112e5565b3480156106e857600080fd5b506103ce611301565b3480156106fd57600080fd5b506104236004803603602081101561071457600080fd5b5035611310565b34801561072757600080fd5b506103ce6004803603602081101561073e57600080fd5b5035611342565b34801561075157600080fd5b506103ce6004803603602081101561076857600080fd5b5035611370565b34801561077b57600080fd5b5061032f61138b565b34801561079057600080fd5b50610308600480360360208110156107a757600080fd5b50356001600160a01b03166113ec565b3480156107c357600080fd5b50610423611454565b3480156107d857600080fd5b50610308611490565b3480156107ed57600080fd5b506104236004803603602081101561080457600080fd5b50356001600160a01b0316611496565b34801561082057600080fd5b506103ce6114cf565b34801561083557600080fd5b5061032f6114de565b34801561084a57600080fd5b5061030861153f565b34801561085f57600080fd5b506102c1611545565b34801561087457600080fd5b506104236004803603604081101561088b57600080fd5b506001600160a01b0381351690602001351515611555565b3480156108af57600080fd5b5061042361165a565b3480156108c457600080fd5b50610423600480360360808110156108db57600080fd5b6001600160a01b0382358116926020810135909116916040820135919081019060808101606082013564010000000081111561091657600080fd5b82018360208201111561092857600080fd5b8035906020019184600183028401116401000000008311171561094a57600080fd5b91908080601f016020809104026020016040519081016040528093929190818152602001838380828437600092019190915250929550611744945050505050565b34801561099757600080fd5b50610308600480360360208110156109ae57600080fd5b503561179c565b3480156109c157600080fd5b5061032f600480360360208110156109d857600080fd5b50356117ae565b3480156109eb57600080fd5b506103ce611a31565b348015610a0057600080fd5b506102c160048036036040811015610a1757600080fd5b506001600160a01b0381358116916020013516611a40565b348015610a3b57600080fd5b506102c1611a6e565b348015610a5057600080fd5b5061030860048036036020811015610a6757600080fd5b50356001600160a01b0316611a7e565b6001600160e01b0319811660009081526020819052604090205460ff165b919050565b60166020526000908152604090205481565b60068054604080516020601f6002600019610100600188161502019095169490940493840181900481028201810190925282815260609390929091830182828015610b385780601f10610b0d57610100808354040283529160200191610b38565b820191906000526020600020905b815481529060010190602001808311610b1b57829003601f168201915b5050505050905090565b6000610b4d82611a90565b610b885760405162461bcd60e51b815260040180806020018281038252602c815260200180612779602c913960400191505060405180910390fd5b506000908152600460205260409020546001600160a01b031690565b6000610baf82611342565b9050806001600160a01b0316836001600160a01b03161415610c025760405162461bcd60e51b81526004018080602001828103825260218152602001806127fd6021913960400191505060405180910390fd5b806001600160a01b0316610c14611aa3565b6001600160a01b03161480610c355750610c3581610c30611aa3565b611a40565b610c705760405162461bcd60e51b81526004018080602001828103825260388152602001806126ab6038913960400191505060405180910390fd5b610c7a8383611aa7565b505050565b4790565b6000610c8f6002611b15565b905090565b610ca5610c9f611aa3565b82611b20565b610ce05760405162461bcd60e51b815260040180806020018281038252603181526020018061281e6031913960400191505060405180910390fd5b610c7a838383611bc4565b600d54600160a01b900460ff16610d0157600080fd5b600b546001600160a01b03163314610d1857600080fd5b600d805460ff60b01b19169055565b600d54600160a01b900460ff16610d3d57600080fd5b600b546001600160a01b03163314610d5457600080fd5b600d805460ff60b01b1916600160b01b179055565b600d54600160a01b900460ff1681565b600d54600160a01b900460ff16610d8f57600080fd5b600b546001600160a01b03163314610da657600080fd5b600d805460ff60a81b1916600160a81b179055565b6001600160a01b0382166000908152600160205260408120610de3908363ffffffff611d2216565b90505b92915050565b600c546001600160a01b031681565b60105481565b600d54600090600160a81b900460ff16610e1a57600080fd5b336000908152601460205260409020544211610e3557600080fd5b60005b600e54811015610efb5760008181526012602090815260408083205481516370a0823160e01b815233600482015291516001600160a01b03909116939284926370a082319260248083019392829003018186803b158015610e9857600080fd5b505afa158015610eac573d6000803e3d6000fd5b505050506040513d6020811015610ec257600080fd5b505190508015610ef157600083815260136020526040902054610eec90829063ffffffff611d2e16565b840193505b5050600101610e38565b50600160648210801590610f10575061012c82105b15610f19575060025b61012c8210158015610f2c57506103e882105b15610f35575060035b6103e88210158015610f485750610bb882105b15610f51575060045b610bb88210610f5e575060055b33600090815260166020526040902054610f94908290610f8890859060010163ffffffff611d2e16565b9063ffffffff611d2e16565b9150601054821115610fa65760105491505b811561104657600c546040805163a9059cbb60e01b81523360048201526024810185905290516001600160a01b0390921691829163a9059cbb9160448083019260209291908290030181600087803b15801561100157600080fd5b505af1158015611015573d6000803e3d6000fd5b505050506040513d602081101561102b57600080fd5b505033600090815260146020526040902062278d0042019055505b5050565b600b546001600160a01b0316331461106157600080fd5b600d805460ff60a01b19169055565b600b546001600160a01b0316331461108757600080fd5b600092835260126020908152604080852080546001600160a01b0319166001600160a01b039790971696909617909555601390529290912055600e55565b600d54600160b01b900460ff166110db57600080fd5b600081116110e857600080fd5b600581106110f557600080fd5b336000908152601560209081526040808320548484526011909252909120541161111e57600080fd5b3360008181526015602090815260408083208054868552601184528285208054600f80549390910392830190555495855294905560168252808320859055600c54600d54825163a9059cbb60e01b81526001600160a01b039182166004820152602481018790529251911693849363a9059cbb936044808201949293918390030190829087803b1580156111b157600080fd5b505af11580156111c5573d6000803e3d6000fd5b505050506040513d60208110156111db57600080fd5b5050505050565b610c7a83838360405180602001604052806000815250611744565b60116020526000908152604090205481565b600d54600160a01b900460ff1661122557600080fd5b600b546001600160a01b0316331461123c57600080fd5b611244610c7f565b82111561125057600080fd5b604051339083156108fc029084906000818181858888f1935050505015801561127d573d6000803e3d6000fd5b50600c546040805163a9059cbb60e01b81523360048201526024810184905290516001600160a01b0390921691829163a9059cbb9160448083019260209291908290030181600087803b1580156111b157600080fd5b60146020526000908152604090205481565b6000806112f960028463ffffffff611d8716565b509392505050565b600b546001600160a01b031681565b600d54600160a01b900460ff1661132657600080fd5b600b546001600160a01b0316331461133d57600080fd5b601055565b6000610de68260405180606001604052806029815260200161270d602991396002919063ffffffff611da316565b6012602052600090815260409020546001600160a01b031681565b60098054604080516020601f6002600019610100600188161502019095169490940493840181900481028201810190925282815260609390929091830182828015610b385780601f10610b0d57610100808354040283529160200191610b38565b60006001600160a01b0382166114335760405162461bcd60e51b815260040180806020018281038252602a8152602001806126e3602a913960400191505060405180910390fd5b6001600160a01b0382166000908152600160205260409020610de690611b15565b600d54600160a01b900460ff1661146a57600080fd5b600b546001600160a01b0316331461148157600080fd5b600d805460ff60a81b19169055565b600f5481565b600b546001600160a01b031633146114ad57600080fd5b600d80546001600160a01b0319166001600160a01b0392909216919091179055565b600a546001600160a01b031690565b60078054604080516020601f6002600019610100600188161502019095169490940493840181900481028201810190925282815260609390929091830182828015610b385780601f10610b0d57610100808354040283529160200191610b38565b600e5481565b600d54600160b01b900460ff1681565b61155d611aa3565b6001600160a01b0316826001600160a01b031614156115c3576040805162461bcd60e51b815260206004820152601960248201527f4552433732313a20617070726f766520746f2063616c6c657200000000000000604482015290519081900360640190fd5b80600560006115d0611aa3565b6001600160a01b03908116825260208083019390935260409182016000908120918716808252919093529120805460ff191692151592909217909155611614611aa3565b60408051841515815290516001600160a01b0392909216917f17307eab39ab6107e8899845ad3d59bd9653f200f220920489ca2b5937696c319181900360200190a35050565b600d54600160b01b900460ff1661167057600080fd5b3360009081526015602052604081205461169190600563ffffffff611dba16565b3360008181526015602090815260408083208054600f805482900390559084905560168352818420849055600c54825163a9059cbb60e01b815260048101969096529590036024850181905290519095506001600160a01b0390941693849363a9059cbb9360448083019493928390030190829087803b15801561171457600080fd5b505af1158015611728573d6000803e3d6000fd5b505050506040513d602081101561173e57600080fd5b50505050565b61175561174f611aa3565b83611b20565b6117905760405162461bcd60e51b815260040180806020018281038252603181526020018061281e6031913960400191505060405180910390fd5b61173e84848484611e21565b60136020526000908152604090205481565b60606117b982611a90565b6117f45760405162461bcd60e51b815260040180806020018281038252602f8152602001806127ce602f913960400191505060405180910390fd5b60008281526008602090815260409182902080548351601f60026000196101006001861615020190931692909204918201849004840281018401909452808452606093928301828280156118895780601f1061185e57610100808354040283529160200191611889565b820191906000526020600020905b81548152906001019060200180831161186c57829003601f168201915b50505050509050606061189a61138b565b90508051600014156118ae57509050610a95565b81511561196f5780826040516020018083805190602001908083835b602083106118e95780518252601f1990920191602091820191016118ca565b51815160209384036101000a600019018019909216911617905285519190930192850191508083835b602083106119315780518252601f199092019160209182019101611912565b6001836020036101000a0380198251168184511680821785525050505050509050019250505060405160208183030381529060405292505050610a95565b8061197985611e73565b6040516020018083805190602001908083835b602083106119ab5780518252601f19909201916020918201910161198c565b51815160209384036101000a600019018019909216911617905285519190930192850191508083835b602083106119f35780518252601f1990920191602091820191016119d4565b6001836020036101000a0380198251168184511680821785525050505050509050019250505060405160208183030381529060405292505050919050565b600d546001600160a01b031681565b6001600160a01b03918216600090815260056020908152604080832093909416825291909152205460ff1690565b600d54600160a81b900460ff1681565b60156020526000908152604090205481565b6000610de660028363ffffffff611f4e16565b3390565b600081815260046020526040902080546001600160a01b0319166001600160a01b0384169081179091558190611adc82611342565b6001600160a01b03167f8c5be1e5ebec7d5bd14f71427d1e84f3dd0314c0f7b2291e5b200ac8c7c3b92560405160405180910390a45050565b6000610de682611f5a565b6000611b2b82611a90565b611b665760405162461bcd60e51b815260040180806020018281038252602c81526020018061267f602c913960400191505060405180910390fd5b6000611b7183611342565b9050806001600160a01b0316846001600160a01b03161480611bac5750836001600160a01b0316611ba184610b42565b6001600160a01b0316145b80611bbc5750611bbc8185611a40565b949350505050565b826001600160a01b0316611bd782611342565b6001600160a01b031614611c1c5760405162461bcd60e51b81526004018080602001828103825260298152602001806127a56029913960400191505060405180910390fd5b6001600160a01b038216611c615760405162461bcd60e51b815260040180806020018281038252602481526020018061265b6024913960400191505060405180910390fd5b611c6c838383610c7a565b611c77600082611aa7565b6001600160a01b0383166000908152600160205260409020611c9f908263ffffffff611f5e16565b506001600160a01b0382166000908152600160205260409020611cc8908263ffffffff611f6a16565b50611cdb6002828463ffffffff611f7616565b5080826001600160a01b0316846001600160a01b03167fddf252ad1be2c89b69c2b068fc378daa952ba7f163c4a11628f55a4df523b3ef60405160405180910390a4505050565b6000610de38383611f8c565b600082611d3d57506000610de6565b82820282848281611d4a57fe5b0414610de35760405162461bcd60e51b81526004018080602001828103825260218152602001806127586021913960400191505060405180910390fd5b6000808080611d968686611ff0565b9097909650945050505050565b6000611db084848461206b565b90505b9392505050565b6000808211611e10576040805162461bcd60e51b815260206004820152601a60248201527f536166654d6174683a206469766973696f6e206279207a65726f000000000000604482015290519081900360640190fd5b818381611e1957fe5b049392505050565b611e2c848484611bc4565b611e3884848484612135565b61173e5760405162461bcd60e51b81526004018080602001828103825260328152602001806126296032913960400191505060405180910390fd5b606081611e9857506040805180820190915260018152600360fc1b6020820152610a95565b8160005b8115611eb057600101600a82049150611e9c565b60608167ffffffffffffffff81118015611ec957600080fd5b506040519080825280601f01601f191660200182016040528015611ef4576020820181803683370190505b50859350905060001982015b8315611f4557600a840660300160f81b82828060019003935081518110611f2357fe5b60200101906001600160f81b031916908160001a905350600a84049350611f00565b50949350505050565b6000610de383836122b5565b5490565b6000610de383836122cd565b6000610de38383612393565b6000611db084846001600160a01b0385166123dd565b81546000908210611fce5760405162461bcd60e51b81526004018080602001828103825260228152602001806126076022913960400191505060405180910390fd5b826000018281548110611fdd57fe5b9060005260206000200154905092915050565b8154600090819083106120345760405162461bcd60e51b81526004018080602001828103825260228152602001806127366022913960400191505060405180910390fd5b600084600001848154811061204557fe5b906000526020600020906002020190508060000154816001015492509250509250929050565b600082815260018401602052604081205482816121065760405162461bcd60e51b81526004018080602001828103825283818151815260200191508051906020019080838360005b838110156120cb5781810151838201526020016120b3565b50505050905090810190601f1680156120f85780820380516001836020036101000a031916815260200191505b509250505060405180910390fd5b5084600001600182038154811061211957fe5b9060005260206000209060020201600101549150509392505050565b6000612149846001600160a01b0316612474565b61215557506001611bbc565b606061227b630a85bd0160e11b61216a611aa3565b88878760405160240180856001600160a01b03166001600160a01b03168152602001846001600160a01b03166001600160a01b0316815260200183815260200180602001828103825283818151815260200191508051906020019080838360005b838110156121e35781810151838201526020016121cb565b50505050905090810190601f1680156122105780820380516001836020036101000a031916815260200191505b5095505050505050604051602081830303815290604052906001600160e01b0319166020820180516001600160e01b038381831617835250505050604051806060016040528060328152602001612629603291396001600160a01b038816919063ffffffff61247a16565b9050600081806020019051602081101561229457600080fd5b50516001600160e01b031916630a85bd0160e11b1492505050949350505050565b60009081526001919091016020526040902054151590565b60008181526001830160205260408120548015612389578354600019808301919081019060009087908390811061230057fe5b906000526020600020015490508087600001848154811061231d57fe5b60009182526020808320909101929092558281526001898101909252604090209084019055865487908061234d57fe5b60019003818190600052602060002001600090559055866001016000878152602001908152602001600020600090556001945050505050610de6565b6000915050610de6565b600061239f83836122b5565b6123d557508154600181810184556000848152602080822090930184905584548482528286019093526040902091909155610de6565b506000610de6565b600082815260018401602052604081205480612442575050604080518082018252838152602080820184815286546001818101895560008981528481209551600290930290950191825591519082015586548684528188019092529290912055611db3565b8285600001600183038154811061245557fe5b9060005260206000209060020201600101819055506000915050611db3565b3b151590565b6060611db084846000858561248e85612474565b6124df576040805162461bcd60e51b815260206004820152601d60248201527f416464726573733a2063616c6c20746f206e6f6e2d636f6e7472616374000000604482015290519081900360640190fd5b60006060866001600160a01b031685876040518082805190602001908083835b6020831061251e5780518252601f1990920191602091820191016124ff565b6001836020036101000a03801982511681845116808217855250505050505090500191505060006040518083038185875af1925050503d8060008114612580576040519150601f19603f3d011682016040523d82523d6000602084013e612585565b606091505b50915091506125958282866125a0565b979650505050505050565b606083156125af575081611db3565b8251156125bf5782518084602001fd5b60405162461bcd60e51b81526020600482018181528451602484015284518593919283926044019190850190808383600083156120cb5781810151838201526020016120b356fe456e756d657261626c655365743a20696e646578206f7574206f6620626f756e64734552433732313a207472616e7366657220746f206e6f6e20455243373231526563656976657220696d706c656d656e7465724552433732313a207472616e7366657220746f20746865207a65726f20616464726573734552433732313a206f70657261746f7220717565727920666f72206e6f6e6578697374656e7420746f6b656e4552433732313a20617070726f76652063616c6c6572206973206e6f74206f776e6572206e6f7220617070726f76656420666f7220616c6c4552433732313a2062616c616e636520717565727920666f7220746865207a65726f20616464726573734552433732313a206f776e657220717565727920666f72206e6f6e6578697374656e7420746f6b656e456e756d657261626c654d61703a20696e646578206f7574206f6620626f756e6473536166654d6174683a206d756c7469706c69636174696f6e206f766572666c6f774552433732313a20617070726f76656420717565727920666f72206e6f6e6578697374656e7420746f6b656e4552433732313a207472616e73666572206f6620746f6b656e2074686174206973206e6f74206f776e4552433732314d657461646174613a2055524920717565727920666f72206e6f6e6578697374656e7420746f6b656e4552433732313a20617070726f76616c20746f2063757272656e74206f776e65724552433732313a207472616e736665722063616c6c6572206973206e6f74206f776e6572206e6f7220617070726f766564a26469706673582212208f6db21b6e59f4726d5ec9aee9518d8581f6d4e621e26e4de1ca4a9789fd347a64736f6c63430006060033"
  }
}