{
  "opcodeHash": "0xdf1f1e3090926e3c244c01a9ff81b3550c9a97a768d1455c36f27b4bc80050fc",
  "metalessHash": "0x93b78a62a4c9b8c879209c31af89a603130e424eb4e18d77af9bc9beb86ea1c0",
  "runtimeHash": "0x5435e768c129af8e2d6e479ba1f9e5e9777a6c0694b7e30f7bf161d567e0ad1e",
  "encodedMetadata": [
    {
      "ipfs": "/ipfs/QmPoqQJNhPvBgZtkj3Jva1pMrj8EL9mCRHBStuuTjzKRFX",
      "solc": "0.8.7"
    }
  ],
  "abi": [
    {
      "inputs": [
        {
          "internalType": "string",
          "name": "uri",
          "type": "string"
        }
      ],
      "stateMutability": "nonpayable",
      "type": "constructor"
    },
    {
      "anonymous": false,
      "inputs": [
        {
          "indexed": true,
          "internalType": "address",
          "name": "account",
          "type": "address"
        },
        {
          "indexed": true,
          "internalType": "address",
          "name": "operator",
          "type": "address"
        },
        {
          "indexed": false,
          "internalType": "bool",
          "name": "approved",
          "type": "bool"
        }
      ],
      "name": "ApprovalForAll",
      "type": "event"
    },
    {
      "anonymous": false,
      "inputs": [
        {
          "indexed": true,
          "internalType": "address",
          "name": "previousOwner",
          "type": "address"
        },
        {
          "indexed": true,
          "internalType": "address",
          "name": "newOwner",
          "type": "address"
        }
      ],
      "name": "OwnershipTransferred",
      "type": "event"
    },
    {
      "anonymous": false,
      "inputs": [
        {
          "indexed": true,
          "internalType": "address",
          "name": "operator",
          "type": "address"
        },
        {
          "indexed": true,
          "internalType": "address",
          "name": "from",
          "type": "address"
        },
        {
          "indexed": true,
          "internalType": "address",
          "name": "to",
          "type": "address"
        },
        {
          "indexed": false,
          "internalType": "uint256[]",
          "name": "ids",
          "type": "uint256[]"
        },
        {
          "indexed": false,
          "internalType": "uint256[]",
          "name": "values",
          "type": "uint256[]"
        }
      ],
      "name": "TransferBatch",
      "type": "event"
    },
    {
      "anonymous": false,
      "inputs": [
        {
          "indexed": true,
          "internalType": "address",
          "name": "operator",
          "type": "address"
        },
        {
          "indexed": true,
          "internalType": "address",
          "name": "from",
          "type": "address"
        },
        {
          "indexed": true,
          "internalType": "address",
          "name": "to",
          "type": "address"
        },
        {
          "indexed": false,
          "internalType": "uint256",
          "name": "id",
          "type": "uint256"
        },
        {
          "indexed": false,
          "internalType": "uint256",
          "name": "value",
          "type": "uint256"
        }
      ],
      "name": "TransferSingle",
      "type": "event"
    },
    {
      "anonymous": false,
      "inputs": [
        {
          "indexed": false,
          "internalType": "string",
          "name": "value",
          "type": "string"
        },
        {
          "indexed": true,
          "internalType": "uint256",
          "name": "id",
          "type": "uint256"
        }
      ],
      "name": "URI",
      "type": "event"
    },
    {
      "inputs": [
        {
          "internalType": "address",
          "name": "account",
          "type": "address"
        },
        {
          "internalType": "uint256",
          "name": "id",
          "type": "uint256"
        }
      ],
      "name": "balanceOf",
      "outputs": [
        {
          "internalType": "uint256",
          "name": "",
          "type": "uint256"
        }
      ],
      "stateMutability": "view",
      "type": "function"
    },
    {
      "inputs": [
        {
          "internalType": "address[]",
          "name": "accounts",
          "type": "address[]"
        },
        {
          "internalType": "uint256[]",
          "name": "ids",
          "type": "uint256[]"
        }
      ],
      "name": "balanceOfBatch",
      "outputs": [
        {
          "internalType": "uint256[]",
          "name": "",
          "type": "uint256[]"
        }
      ],
      "stateMutability": "view",
      "type": "function"
    },
    {
      "inputs": [
        {
          "internalType": "address[]",
          "name": "addresses",
          "type": "address[]"
        }
      ],
      "name": "batchMint",
      "outputs": [],
      "stateMutability": "nonpayable",
      "type": "function"
    },
    {
      "inputs": [
        {
          "internalType": "address",
          "name": "account",
          "type": "address"
        },
        {
          "internalType": "address",
          "name": "operator",
          "type": "address"
        }
      ],
      "name": "isApprovedForAll",
      "outputs": [
        {
          "internalType": "bool",
          "name": "",
          "type": "bool"
        }
      ],
      "stateMutability": "view",
      "type": "function"
    },
    {
      "inputs": [],
      "name": "maxSupply",
      "outputs": [
        {
          "internalType": "uint32",
          "name": "",
          "type": "uint32"
        }
      ],
      "stateMutability": "view",
      "type": "function"
    },
    {
      "inputs": [],
      "name": "name",
      "outputs": [
        {
          "internalType": "string",
          "name": "",
          "type": "string"
        }
      ],
      "stateMutability": "view",
      "type": "function"
    },
    {
      "inputs": [],
      "name": "owner",
      "outputs": [
        {
          "internalType": "address",
          "name": "",
          "type": "address"
        }
      ],
      "stateMutability": "view",
      "type": "function"
    },
    {
      "inputs": [],
      "name": "preSaleIsActive",
      "outputs": [
        {
          "internalType": "bool",
          "name": "",
          "type": "bool"
        }
      ],
      "stateMutability": "view",
      "type": "function"
    },
    {
      "inputs": [],
      "name": "preSaleMaxPerAddress",
      "outputs": [
        {
          "internalType": "uint32",
          "name": "",
          "type": "uint32"
        }
      ],
      "stateMutability": "view",
      "type": "function"
    },
    {
      "inputs": [
        {
          "internalType": "uint8",
          "name": "v",
          "type": "uint8"
        },
        {
          "internalType": "bytes32",
          "name": "r",
          "type": "bytes32"
        },
        {
          "internalType": "bytes32",
          "name": "s",
          "type": "bytes32"
        },
        {
          "internalType": "uint32",
          "name": "count",
          "type": "uint32"
        }
      ],
      "name": "preSaleMint",
      "outputs": [],
      "stateMutability": "payable",
      "type": "function"
    },
    {
      "inputs": [],
      "name": "preSaleStart",
      "outputs": [
        {
          "internalType": "uint32",
          "name": "",
          "type": "uint32"
        }
      ],
      "stateMutability": "view",
      "type": "function"
    },
    {
      "inputs": [],
      "name": "publicSaleIsActive",
      "outputs": [
        {
          "internalType": "bool",
          "name": "",
          "type": "bool"
        }
      ],
      "stateMutability": "view",
      "type": "function"
    },
    {
      "inputs": [],
      "name": "publicSaleMaxPerAddress",
      "outputs": [
        {
          "internalType": "uint32",
          "name": "",
          "type": "uint32"
        }
      ],
      "stateMutability": "view",
      "type": "function"
    },
    {
      "inputs": [
        {
          "internalType": "uint32",
          "name": "count",
          "type": "uint32"
        }
      ],
      "name": "publicSaleMint",
      "outputs": [],
      "stateMutability": "payable",
      "type": "function"
    },
    {
      "inputs": [],
      "name": "publicSaleStart",
      "outputs": [
        {
          "internalType": "uint32",
          "name": "",
          "type": "uint32"
        }
      ],
      "stateMutability": "view",
      "type": "function"
    },
    {
      "inputs": [],
      "name": "renounceOwnership",
      "outputs": [],
      "stateMutability": "nonpayable",
      "type": "function"
    },
    {
      "inputs": [
        {
          "internalType": "address",
          "name": "from",
          "type": "address"
        },
        {
          "internalType": "address",
          "name": "to",
          "type": "address"
        },
        {
          "internalType": "uint256[]",
          "name": "ids",
          "type": "uint256[]"
        },
        {
          "internalType": "uint256[]",
          "name": "amounts",
          "type": "uint256[]"
        },
        {
          "internalType": "bytes",
          "name": "data",
          "type": "bytes"
        }
      ],
      "name": "safeBatchTransferFrom",
      "outputs": [],
      "stateMutability": "nonpayable",
      "type": "function"
    },
    {
      "inputs": [
        {
          "internalType": "address",
          "name": "from",
          "type": "address"
        },
        {
          "internalType": "address",
          "name": "to",
          "type": "address"
        },
        {
          "internalType": "uint256",
          "name": "id",
          "type": "uint256"
        },
        {
          "internalType": "uint256",
          "name": "amount",
          "type": "uint256"
        },
        {
          "internalType": "bytes",
          "name": "data",
          "type": "bytes"
        }
      ],
      "name": "safeTransferFrom",
      "outputs": [],
      "stateMutability": "nonpayable",
      "type": "function"
    },
    {
      "inputs": [
        {
          "internalType": "address",
          "name": "operator",
          "type": "address"
        },
        {
          "internalType": "bool",
          "name": "approved",
          "type": "bool"
        }
      ],
      "name": "setApprovalForAll",
      "outputs": [],
      "stateMutability": "nonpayable",
      "type": "function"
    },
    {
      "inputs": [
        {
          "internalType": "uint32",
          "name": "timestamp",
          "type": "uint32"
        }
      ],
      "name": "setPreSaleStart",
      "outputs": [],
      "stateMutability": "nonpayable",
      "type": "function"
    },
    {
      "inputs": [
        {
          "internalType": "uint32",
          "name": "timestamp",
          "type": "uint32"
        }
      ],
      "name": "setPublicSaleStart",
      "outputs": [],
      "stateMutability": "nonpayable",
      "type": "function"
    },
    {
      "inputs": [
        {
          "internalType": "address",
          "name": "addr",
          "type": "address"
        }
      ],
      "name": "setSignerAddress",
      "outputs": [],
      "stateMutability": "nonpayable",
      "type": "function"
    },
    {
      "inputs": [
        {
          "internalType": "string",
          "name": "uri",
          "type": "string"
        }
      ],
      "name": "setURI",
      "outputs": [],
      "stateMutability": "nonpayable",
      "type": "function"
    },
    {
      "inputs": [
        {
          "internalType": "bytes4",
          "name": "interfaceId",
          "type": "bytes4"
        }
      ],
      "name": "supportsInterface",
      "outputs": [
        {
          "internalType": "bool",
          "name": "",
          "type": "bool"
        }
      ],
      "stateMutability": "view",
      "type": "function"
    },
    {
      "inputs": [],
      "name": "symbol",
      "outputs": [
        {
          "internalType": "string",
          "name": "",
          "type": "string"
        }
      ],
      "stateMutability": "view",
      "type": "function"
    },
    {
      "inputs": [],
      "name": "totalSupply",
      "outputs": [
        {
          "internalType": "uint32",
          "name": "",
          "type": "uint32"
        }
      ],
      "stateMutability": "view",
      "type": "function"
    },
    {
      "inputs": [
        {
          "internalType": "address",
          "name": "newOwner",
          "type": "address"
        }
      ],
      "name": "transferOwnership",
      "outputs": [],
      "stateMutability": "nonpayable",
      "type": "function"
    },
    {
      "inputs": [],
      "name": "unitPrice",
      "outputs": [
        {
          "internalType": "uint256",
          "name": "",
          "type": "uint256"
        }
      ],
      "stateMutability": "view",
      "type": "function"
    },
    {
      "inputs": [
        {
          "internalType": "uint256",
          "name": "",
          "type": "uint256"
        }
      ],
      "name": "uri",
      "outputs": [
        {
          "internalType": "string",
          "name": "",
          "type": "string"
        }
      ],
      "stateMutability": "view",
      "type": "function"
    },
    {
      "inputs": [],
      "name": "withdraw",
      "outputs": [],
      "stateMutability": "nonpayable",
      "type": "function"
    }
  ],
  "bytecode": {
    "object": "60806040526000600360146101000a81548163ffffffff021916908363ffffffff1602179055506361ba8f90600360186101000a81548163ffffffff021916908363ffffffff1602179055506361bbe1106003601c6101000a81548163ffffffff021916908363ffffffff16021790555073bf645f208e06053a586ee6b23f2b5c430753bacc600460006101000a81548173ffffffffffffffffffffffffffffffffffffffff021916908373ffffffffffffffffffffffffffffffffffffffff160217905550348015620000d257600080fd5b50604051620050b3380380620050b38339818101604052810190620000f891906200034a565b806200010a816200013260201b60201c565b506200012b6200011f6200014e60201b60201c565b6200015660201b60201c565b506200051f565b80600290805190602001906200014a9291906200021c565b5050565b600033905090565b6000600360009054906101000a900473ffffffffffffffffffffffffffffffffffffffff16905081600360006101000a81548173ffffffffffffffffffffffffffffffffffffffff021916908373ffffffffffffffffffffffffffffffffffffffff1602179055508173ffffffffffffffffffffffffffffffffffffffff168173ffffffffffffffffffffffffffffffffffffffff167f8be0079c531659141344cd1fd0a4f28419497f9722a3daafe3b4186f6b6457e060405160405180910390a35050565b8280546200022a9062000430565b90600052602060002090601f0160209004810192826200024e57600085556200029a565b82601f106200026957805160ff19168380011785556200029a565b828001600101855582156200029a579182015b82811115620002995782518255916020019190600101906200027c565b5b509050620002a99190620002ad565b5090565b5b80821115620002c8576000816000905550600101620002ae565b5090565b6000620002e3620002dd84620003c4565b6200039b565b905082815260208101848484011115620003025762000301620004ff565b5b6200030f848285620003fa565b509392505050565b600082601f8301126200032f576200032e620004fa565b5b815162000341848260208601620002cc565b91505092915050565b60006020828403121562000363576200036262000509565b5b600082015167ffffffffffffffff81111562000384576200038362000504565b5b620003928482850162000317565b91505092915050565b6000620003a7620003ba565b9050620003b5828262000466565b919050565b6000604051905090565b600067ffffffffffffffff821115620003e257620003e1620004cb565b5b620003ed826200050e565b9050602081019050919050565b60005b838110156200041a578082015181840152602081019050620003fd565b838111156200042a576000848401525b50505050565b600060028204905060018216806200044957607f821691505b6020821081141562000460576200045f6200049c565b5b50919050565b62000471826200050e565b810181811067ffffffffffffffff82111715620004935762000492620004cb565b5b80604052505050565b7f4e487b7100000000000000000000000000000000000000000000000000000000600052602260045260246000fd5b7f4e487b7100000000000000000000000000000000000000000000000000000000600052604160045260246000fd5b600080fd5b600080fd5b600080fd5b600080fd5b6000601f19601f8301169050919050565b614b84806200052f6000396000f3fe6080604052600436106101cc5760003560e01c806360120095116100f7578063a9d4a54e11610095578063e73faa2d11610064578063e73faa2d14610623578063e985e9c51461064e578063f242432a1461068b578063f2fde38b146106b4576101cc565b8063a9d4a54e14610588578063cc21f485146105b3578063d5abeb01146105cf578063d67b06c1146105fa576101cc565b80638da5cb5b116100d15780638da5cb5b146104e05780639039903c1461050b57806395d89b4114610534578063a22cb4651461055f576101cc565b80636012009514610482578063715018a6146104ad578063892f5f6f146104c4576101cc565b80630fcf2e751161016f5780633360caa01161013e5780633360caa0146103da5780633ccfd60b1461040557806340fa89d91461041c5780634e1273f414610445576101cc565b80630fcf2e751461033057806318160ddd1461035b5780631f0234d8146103865780632eb2c2d6146103b1576101cc565b8063046dc166116101ab578063046dc1661461027457806306fdde031461029d5780630d5624b3146102c85780630e89341c146102f3576101cc565b8062fdd58e146101d157806301ffc9a71461020e57806302fe53051461024b575b600080fd5b3480156101dd57600080fd5b506101f860048036038101906101f3919061332c565b6106dd565b6040516102059190613e68565b60405180910390f35b34801561021a57600080fd5b506102356004803603810190610230919061342d565b6107a6565b6040516102429190613b66565b60405180910390f35b34801561025757600080fd5b50610272600480360381019061026d9190613487565b610888565b005b34801561028057600080fd5b5061029b60048036038101906102969190613119565b610910565b005b3480156102a957600080fd5b506102b26109d0565b6040516102bf9190613bc6565b60405180910390f35b3480156102d457600080fd5b506102dd610a09565b6040516102ea9190613eac565b60405180910390f35b3480156102ff57600080fd5b5061031a600480360381019061031591906134d0565b610a1f565b6040516103279190613bc6565b60405180910390f35b34801561033c57600080fd5b50610345610ab3565b6040516103529190613b66565b60405180910390f35b34801561036757600080fd5b50610370610ad6565b60405161037d9190613eac565b60405180910390f35b34801561039257600080fd5b5061039b610aec565b6040516103a89190613b66565b60405180910390f35b3480156103bd57600080fd5b506103d860048036038101906103d39190613186565b610b33565b005b3480156103e657600080fd5b506103ef610bd4565b6040516103fc9190613eac565b60405180910390f35b34801561041157600080fd5b5061041a610bea565b005b34801561042857600080fd5b50610443600480360381019061043e91906134fd565b610e84565b005b34801561045157600080fd5b5061046c600480360381019061046791906133b5565b610f24565b6040516104799190613b0d565b60405180910390f35b34801561048e57600080fd5b5061049761103d565b6040516104a49190613eac565b60405180910390f35b3480156104b957600080fd5b506104c2611042565b005b6104de60048036038101906104d991906134fd565b6110ca565b005b3480156104ec57600080fd5b506104f5611327565b6040516105029190613a30565b60405180910390f35b34801561051757600080fd5b50610532600480360381019061052d91906134fd565b611351565b005b34801561054057600080fd5b506105496113f1565b6040516105569190613bc6565b60405180910390f35b34801561056b57600080fd5b50610586600480360381019061058191906132ec565b61142a565b005b34801561059457600080fd5b5061059d611440565b6040516105aa9190613eac565b60405180910390f35b6105cd60048036038101906105c8919061352a565b611445565b005b3480156105db57600080fd5b506105e46116ef565b6040516105f19190613eac565b60405180910390f35b34801561060657600080fd5b50610621600480360381019061061c919061336c565b6116f5565b005b34801561062f57600080fd5b50610638611828565b6040516106459190613e68565b60405180910390f35b34801561065a57600080fd5b5061067560048036038101906106709190613146565b611834565b6040516106829190613b66565b60405180910390f35b34801561069757600080fd5b506106b260048036038101906106ad9190613255565b6118c8565b005b3480156106c057600080fd5b506106db60048036038101906106d69190613119565b611969565b005b60008073ffffffffffffffffffffffffffffffffffffffff168373ffffffffffffffffffffffffffffffffffffffff16141561074e576040517f08c379a000000000000000000000000000000000000000000000000000000000815260040161074590613c48565b60405180910390fd5b60008083815260200190815260200160002060008473ffffffffffffffffffffffffffffffffffffffff1673ffffffffffffffffffffffffffffffffffffffff16815260200190815260200160002054905092915050565b60007fd9b67a26000000000000000000000000000000000000000000000000000000007bffffffffffffffffffffffffffffffffffffffffffffffffffffffff1916827bffffffffffffffffffffffffffffffffffffffffffffffffffffffff1916148061087157507f0e89341c000000000000000000000000000000000000000000000000000000007bffffffffffffffffffffffffffffffffffffffffffffffffffffffff1916827bffffffffffffffffffffffffffffffffffffffffffffffffffffffff1916145b80610881575061088082611a61565b5b9050919050565b610890611acb565b73ffffffffffffffffffffffffffffffffffffffff166108ae611327565b73ffffffffffffffffffffffffffffffffffffffff1614610904576040517f08c379a00000000000000000000000000000000000000000000000000000000081526004016108fb90613da8565b60405180910390fd5b61090d81611ad3565b50565b610918611acb565b73ffffffffffffffffffffffffffffffffffffffff16610936611327565b73ffffffffffffffffffffffffffffffffffffffff161461098c576040517f08c379a000000000000000000000000000000000000000000000000000000000815260040161098390613da8565b60405180910390fd5b80600460006101000a81548173ffffffffffffffffffffffffffffffffffffffff021916908373ffffffffffffffffffffffffffffffffffffffff16021790555050565b6040518060400160405280600c81526020017f4275636b65747320436c7562000000000000000000000000000000000000000081525081565b600360189054906101000a900463ffffffff1681565b606060028054610a2e9061424e565b80601f0160208091040260200160405190810160405280929190818152602001828054610a5a9061424e565b8015610aa75780601f10610a7c57610100808354040283529160200191610aa7565b820191906000526020600020905b815481529060010190602001808311610a8a57829003601f168201915b50505050509050919050565b6000426003601c9054906101000a900463ffffffff1663ffffffff161115905090565b600360149054906101000a900463ffffffff1681565b600042600360189054906101000a900463ffffffff1663ffffffff1611158015610b2e5750426003601c9054906101000a900463ffffffff1663ffffffff1610155b905090565b610b3b611acb565b73ffffffffffffffffffffffffffffffffffffffff168573ffffffffffffffffffffffffffffffffffffffff161480610b815750610b8085610b7b611acb565b611834565b5b610bc0576040517f08c379a0000000000000000000000000000000000000000000000000000000008152600401610bb790613d28565b60405180910390fd5b610bcd8585858585611aed565b5050505050565b6003601c9054906101000a900463ffffffff1681565b610bf2611acb565b73ffffffffffffffffffffffffffffffffffffffff16610c10611327565b73ffffffffffffffffffffffffffffffffffffffff1614610c66576040517f08c379a0000000000000000000000000000000000000000000000000000000008152600401610c5d90613da8565b60405180910390fd5b6000604051806060016040528073cc090398dc4dea02f657168914b9ef3e828ec81a73ffffffffffffffffffffffffffffffffffffffff1673ffffffffffffffffffffffffffffffffffffffff16815260200173930a4fdcba0f7e2101e91cb3bc2ca3b26e2a80a373ffffffffffffffffffffffffffffffffffffffff1673ffffffffffffffffffffffffffffffffffffffff16815260200173dad1ef6384492059db601c22502f3c1e1c04a4cf73ffffffffffffffffffffffffffffffffffffffff1673ffffffffffffffffffffffffffffffffffffffff16815250905060006040518060600160405280611d4c63ffffffff1663ffffffff1681526020016105dc63ffffffff1663ffffffff1681526020016103e863ffffffff1663ffffffff168152509050600047905060005b60038163ffffffff161015610e7e57600060016003610db5919061413d565b8263ffffffff1614610e0257612710848363ffffffff1660038110610ddd57610ddc6143e2565b5b602002015163ffffffff1684610df391906140e3565b610dfd91906140b2565b610e04565b475b9050848263ffffffff1660038110610e1f57610e1e6143e2565b5b602002015173ffffffffffffffffffffffffffffffffffffffff166108fc829081150290604051600060405180830381858888f19350505050158015610e69573d6000803e3d6000fd5b50508080610e76906142fa565b915050610d96565b50505050565b610e8c611acb565b73ffffffffffffffffffffffffffffffffffffffff16610eaa611327565b73ffffffffffffffffffffffffffffffffffffffff1614610f00576040517f08c379a0000000000000000000000000000000000000000000000000000000008152600401610ef790613da8565b60405180910390fd5b80600360186101000a81548163ffffffff021916908363ffffffff16021790555050565b60608151835114610f6a576040517f08c379a0000000000000000000000000000000000000000000000000000000008152600401610f6190613e08565b60405180910390fd5b6000835167ffffffffffffffff811115610f8757610f86614411565b5b604051908082528060200260200182016040528015610fb55781602001602082028036833780820191505090505b50905060005b845181101561103257611002858281518110610fda57610fd96143e2565b5b6020026020010151858381518110610ff557610ff46143e2565b5b60200260200101516106dd565b828281518110611015576110146143e2565b5b6020026020010181815250508061102b906142b1565b9050610fbb565b508091505092915050565b600181565b61104a611acb565b73ffffffffffffffffffffffffffffffffffffffff16611068611327565b73ffffffffffffffffffffffffffffffffffffffff16146110be576040517f08c379a00000000000000000000000000000000000000000000000000000000081526004016110b590613da8565b60405180910390fd5b6110c86000611e01565b565b6110d2610ab3565b611111576040517f08c379a000000000000000000000000000000000000000000000000000000000815260040161110890613ca8565b60405180910390fd5b60008163ffffffff161161115a576040517f08c379a000000000000000000000000000000000000000000000000000000000815260040161115190613cc8565b60405180910390fd5b6103e863ffffffff1681600360149054906101000a900463ffffffff166111819190614078565b63ffffffff1611156111c8576040517f08c379a00000000000000000000000000000000000000000000000000000000081526004016111bf90613d88565b60405180910390fd5b600563ffffffff168163ffffffff16600560003373ffffffffffffffffffffffffffffffffffffffff1673ffffffffffffffffffffffffffffffffffffffff168152602001908152602001600020546112219190614022565b1115611262576040517f08c379a000000000000000000000000000000000000000000000000000000000815260040161125990613c28565b60405180910390fd5b8063ffffffff16670429d069189e000061127c91906140e3565b3410156112be576040517f08c379a00000000000000000000000000000000000000000000000000000000081526004016112b590613ce8565b60405180910390fd5b6112c83382611ec7565b8063ffffffff16600560003373ffffffffffffffffffffffffffffffffffffffff1673ffffffffffffffffffffffffffffffffffffffff168152602001908152602001600020600082825461131d9190614022565b9250508190555050565b6000600360009054906101000a900473ffffffffffffffffffffffffffffffffffffffff16905090565b611359611acb565b73ffffffffffffffffffffffffffffffffffffffff16611377611327565b73ffffffffffffffffffffffffffffffffffffffff16146113cd576040517f08c379a00000000000000000000000000000000000000000000000000000000081526004016113c490613da8565b60405180910390fd5b806003601c6101000a81548163ffffffff021916908363ffffffff16021790555050565b6040518060400160405280600781526020017f4255434b4554530000000000000000000000000000000000000000000000000081525081565b61143c611435611acb565b83836120b1565b5050565b600581565b61144d610aec565b61148c576040517f08c379a000000000000000000000000000000000000000000000000000000000815260040161148390613d48565b60405180910390fd5b61149784848461221e565b6114d6576040517f08c379a00000000000000000000000000000000000000000000000000000000081526004016114cd90613dc8565b60405180910390fd5b60008163ffffffff161161151f576040517f08c379a000000000000000000000000000000000000000000000000000000000815260040161151690613cc8565b60405180910390fd5b6103e863ffffffff1681600360149054906101000a900463ffffffff166115469190614078565b63ffffffff16111561158d576040517f08c379a000000000000000000000000000000000000000000000000000000000815260040161158490613d88565b60405180910390fd5b600163ffffffff168163ffffffff16600560003373ffffffffffffffffffffffffffffffffffffffff1673ffffffffffffffffffffffffffffffffffffffff168152602001908152602001600020546115e69190614022565b1115611627576040517f08c379a000000000000000000000000000000000000000000000000000000000815260040161161e90613c28565b60405180910390fd5b8063ffffffff16670429d069189e000061164191906140e3565b341015611683576040517f08c379a000000000000000000000000000000000000000000000000000000000815260040161167a90613ce8565b60405180910390fd5b61168d3382611ec7565b8063ffffffff16600560003373ffffffffffffffffffffffffffffffffffffffff1673ffffffffffffffffffffffffffffffffffffffff16815260200190815260200160002060008282546116e29190614022565b9250508190555050505050565b6103e881565b6116fd611acb565b73ffffffffffffffffffffffffffffffffffffffff1661171b611327565b73ffffffffffffffffffffffffffffffffffffffff1614611771576040517f08c379a000000000000000000000000000000000000000000000000000000000815260040161176890613da8565b60405180910390fd5b6103e863ffffffff168151600360149054906101000a900463ffffffff1663ffffffff1661179f9190614022565b11156117e0576040517f08c379a00000000000000000000000000000000000000000000000000000000081526004016117d790613d88565b60405180910390fd5b60005b815181101561182457611811828281518110611802576118016143e2565b5b60200260200101516001611ec7565b808061181c906142b1565b9150506117e3565b5050565b670429d069189e000081565b6000600160008473ffffffffffffffffffffffffffffffffffffffff1673ffffffffffffffffffffffffffffffffffffffff16815260200190815260200160002060008373ffffffffffffffffffffffffffffffffffffffff1673ffffffffffffffffffffffffffffffffffffffff16815260200190815260200160002060009054906101000a900460ff16905092915050565b6118d0611acb565b73ffffffffffffffffffffffffffffffffffffffff168573ffffffffffffffffffffffffffffffffffffffff161480611916575061191585611910611acb565b611834565b5b611955576040517f08c379a000000000000000000000000000000000000000000000000000000000815260040161194c90613c88565b60405180910390fd5b6119628585858585612319565b5050505050565b611971611acb565b73ffffffffffffffffffffffffffffffffffffffff1661198f611327565b73ffffffffffffffffffffffffffffffffffffffff16146119e5576040517f08c379a00000000000000000000000000000000000000000000000000000000081526004016119dc90613da8565b60405180910390fd5b600073ffffffffffffffffffffffffffffffffffffffff168173ffffffffffffffffffffffffffffffffffffffff161415611a55576040517f08c379a0000000000000000000000000000000000000000000000000000000008152600401611a4c90613c68565b60405180910390fd5b611a5e81611e01565b50565b60007f01ffc9a7000000000000000000000000000000000000000000000000000000007bffffffffffffffffffffffffffffffffffffffffffffffffffffffff1916827bffffffffffffffffffffffffffffffffffffffffffffffffffffffff1916149050919050565b600033905090565b8060029080519060200190611ae9929190612db2565b5050565b8151835114611b31576040517f08c379a0000000000000000000000000000000000000000000000000000000008152600401611b2890613e28565b60405180910390fd5b600073ffffffffffffffffffffffffffffffffffffffff168473ffffffffffffffffffffffffffffffffffffffff161415611ba1576040517f08c379a0000000000000000000000000000000000000000000000000000000008152600401611b9890613d08565b60405180910390fd5b6000611bab611acb565b9050611bbb81878787878761259b565b60005b8451811015611d6c576000858281518110611bdc57611bdb6143e2565b5b602002602001015190506000858381518110611bfb57611bfa6143e2565b5b60200260200101519050600080600084815260200190815260200160002060008b73ffffffffffffffffffffffffffffffffffffffff1673ffffffffffffffffffffffffffffffffffffffff16815260200190815260200160002054905081811015611c9c576040517f08c379a0000000000000000000000000000000000000000000000000000000008152600401611c9390613d68565b60405180910390fd5b81810360008085815260200190815260200160002060008c73ffffffffffffffffffffffffffffffffffffffff1673ffffffffffffffffffffffffffffffffffffffff168152602001908152602001600020819055508160008085815260200190815260200160002060008b73ffffffffffffffffffffffffffffffffffffffff1673ffffffffffffffffffffffffffffffffffffffff1681526020019081526020016000206000828254611d519190614022565b9250508190555050505080611d65906142b1565b9050611bbe565b508473ffffffffffffffffffffffffffffffffffffffff168673ffffffffffffffffffffffffffffffffffffffff168273ffffffffffffffffffffffffffffffffffffffff167f4a39dc06d4c0dbc64b70af90fd698a233a518aa5d07e595d983b8c0526c8f7fb8787604051611de3929190613b2f565b60405180910390a4611df98187878787876125a3565b505050505050565b6000600360009054906101000a900473ffffffffffffffffffffffffffffffffffffffff16905081600360006101000a81548173ffffffffffffffffffffffffffffffffffffffff021916908373ffffffffffffffffffffffffffffffffffffffff1602179055508173ffffffffffffffffffffffffffffffffffffffff168173ffffffffffffffffffffffffffffffffffffffff167f8be0079c531659141344cd1fd0a4f28419497f9722a3daafe3b4186f6b6457e060405160405180910390a35050565b60018163ffffffff1611156120395760008163ffffffff1667ffffffffffffffff811115611ef857611ef7614411565b5b604051908082528060200260200182016040528015611f265781602001602082028036833780820191505090505b50905060008263ffffffff1667ffffffffffffffff811115611f4b57611f4a614411565b5b604051908082528060200260200182016040528015611f795781602001602082028036833780820191505090505b50905060005b8363ffffffff168163ffffffff1610156120165780600360149054906101000a900463ffffffff16611fb19190614078565b63ffffffff16838263ffffffff1681518110611fd057611fcf6143e2565b5b6020026020010181815250506001828263ffffffff1681518110611ff757611ff66143e2565b5b602002602001018181525050808061200e906142fa565b915050611f7f565b506120328483836040518060200160405280600081525061278a565b505061206e565b61206d82600360149054906101000a900463ffffffff1663ffffffff166001604051806020016040528060008152506129a8565b5b80600360148282829054906101000a900463ffffffff1661208f9190614078565b92506101000a81548163ffffffff021916908363ffffffff1602179055505050565b8173ffffffffffffffffffffffffffffffffffffffff168373ffffffffffffffffffffffffffffffffffffffff161415612120576040517f08c379a000000000000000000000000000000000000000000000000000000000815260040161211790613de8565b60405180910390fd5b80600160008573ffffffffffffffffffffffffffffffffffffffff1673ffffffffffffffffffffffffffffffffffffffff16815260200190815260200160002060008473ffffffffffffffffffffffffffffffffffffffff1673ffffffffffffffffffffffffffffffffffffffff16815260200190815260200160002060006101000a81548160ff0219169083151502179055508173ffffffffffffffffffffffffffffffffffffffff168373ffffffffffffffffffffffffffffffffffffffff167f17307eab39ab6107e8899845ad3d59bd9653f200f220920489ca2b5937696c31836040516122119190613b66565b60405180910390a3505050565b6000803360405160200161223291906139ef565b60405160208183030381529060405280519060200120905060018160405160200161225d9190613a0a565b60405160208183030381529060405280519060200120868686604051600081526020016040526040516122939493929190613b81565b6020604051602081039080840390855afa1580156122b5573d6000803e3d6000fd5b5050506020604051035173ffffffffffffffffffffffffffffffffffffffff16600460009054906101000a900473ffffffffffffffffffffffffffffffffffffffff1673ffffffffffffffffffffffffffffffffffffffff16149150509392505050565b600073ffffffffffffffffffffffffffffffffffffffff168473ffffffffffffffffffffffffffffffffffffffff161415612389576040517f08c379a000000000000000000000000000000000000000000000000000000000815260040161238090613d08565b60405180910390fd5b6000612393611acb565b90506123b38187876123a488612b3e565b6123ad88612b3e565b8761259b565b600080600086815260200190815260200160002060008873ffffffffffffffffffffffffffffffffffffffff1673ffffffffffffffffffffffffffffffffffffffff1681526020019081526020016000205490508381101561244a576040517f08c379a000000000000000000000000000000000000000000000000000000000815260040161244190613d68565b60405180910390fd5b83810360008087815260200190815260200160002060008973ffffffffffffffffffffffffffffffffffffffff1673ffffffffffffffffffffffffffffffffffffffff168152602001908152602001600020819055508360008087815260200190815260200160002060008873ffffffffffffffffffffffffffffffffffffffff1673ffffffffffffffffffffffffffffffffffffffff16815260200190815260200160002060008282546124ff9190614022565b925050819055508573ffffffffffffffffffffffffffffffffffffffff168773ffffffffffffffffffffffffffffffffffffffff168373ffffffffffffffffffffffffffffffffffffffff167fc3d58168c5ae7397731d063d5bbf3d657854427343f4c083240f7aacaa2d0f62888860405161257c929190613e83565b60405180910390a4612592828888888888612bb8565b50505050505050565b505050505050565b6125c28473ffffffffffffffffffffffffffffffffffffffff16612d9f565b15612782578373ffffffffffffffffffffffffffffffffffffffff1663bc197c8187878686866040518663ffffffff1660e01b8152600401612608959493929190613a4b565b602060405180830381600087803b15801561262257600080fd5b505af192505050801561265357506040513d601f19601f82011682018060405250810190612650919061345a565b60015b6126f95761265f614440565b806308c379a014156126bc5750612674614a17565b8061267f57506126be565b806040517f08c379a00000000000000000000000000000000000000000000000000000000081526004016126b39190613bc6565b60405180910390fd5b505b6040517f08c379a00000000000000000000000000000000000000000000000000000000081526004016126f090613be8565b60405180910390fd5b63bc197c8160e01b7bffffffffffffffffffffffffffffffffffffffffffffffffffffffff1916817bffffffffffffffffffffffffffffffffffffffffffffffffffffffff191614612780576040517f08c379a000000000000000000000000000000000000000000000000000000000815260040161277790613c08565b60405180910390fd5b505b505050505050565b600073ffffffffffffffffffffffffffffffffffffffff168473ffffffffffffffffffffffffffffffffffffffff1614156127fa576040517f08c379a00000000000000000000000000000000000000000000000000000000081526004016127f190613e48565b60405180910390fd5b815183511461283e576040517f08c379a000000000000000000000000000000000000000000000000000000000815260040161283590613e28565b60405180910390fd5b6000612848611acb565b90506128598160008787878761259b565b60005b845181101561291257838181518110612878576128776143e2565b5b6020026020010151600080878481518110612896576128956143e2565b5b6020026020010151815260200190815260200160002060008873ffffffffffffffffffffffffffffffffffffffff1673ffffffffffffffffffffffffffffffffffffffff16815260200190815260200160002060008282546128f89190614022565b92505081905550808061290a906142b1565b91505061285c565b508473ffffffffffffffffffffffffffffffffffffffff16600073ffffffffffffffffffffffffffffffffffffffff168273ffffffffffffffffffffffffffffffffffffffff167f4a39dc06d4c0dbc64b70af90fd698a233a518aa5d07e595d983b8c0526c8f7fb878760405161298a929190613b2f565b60405180910390a46129a1816000878787876125a3565b5050505050565b600073ffffffffffffffffffffffffffffffffffffffff168473ffffffffffffffffffffffffffffffffffffffff161415612a18576040517f08c379a0000000000000000000000000000000000000000000000000000000008152600401612a0f90613e48565b60405180910390fd5b6000612a22611acb565b9050612a4381600087612a3488612b3e565b612a3d88612b3e565b8761259b565b8260008086815260200190815260200160002060008773ffffffffffffffffffffffffffffffffffffffff1673ffffffffffffffffffffffffffffffffffffffff1681526020019081526020016000206000828254612aa29190614022565b925050819055508473ffffffffffffffffffffffffffffffffffffffff16600073ffffffffffffffffffffffffffffffffffffffff168273ffffffffffffffffffffffffffffffffffffffff167fc3d58168c5ae7397731d063d5bbf3d657854427343f4c083240f7aacaa2d0f628787604051612b20929190613e83565b60405180910390a4612b3781600087878787612bb8565b5050505050565b60606000600167ffffffffffffffff811115612b5d57612b5c614411565b5b604051908082528060200260200182016040528015612b8b5781602001602082028036833780820191505090505b5090508281600081518110612ba357612ba26143e2565b5b60200260200101818152505080915050919050565b612bd78473ffffffffffffffffffffffffffffffffffffffff16612d9f565b15612d97578373ffffffffffffffffffffffffffffffffffffffff1663f23a6e6187878686866040518663ffffffff1660e01b8152600401612c1d959493929190613ab3565b602060405180830381600087803b158015612c3757600080fd5b505af1925050508015612c6857506040513d601f19601f82011682018060405250810190612c65919061345a565b60015b612d0e57612c74614440565b806308c379a01415612cd15750612c89614a17565b80612c945750612cd3565b806040517f08c379a0000000000000000000000000000000000000000000000000000000008152600401612cc89190613bc6565b60405180910390fd5b505b6040517f08c379a0000000000000000000000000000000000000000000000000000000008152600401612d0590613be8565b60405180910390fd5b63f23a6e6160e01b7bffffffffffffffffffffffffffffffffffffffffffffffffffffffff1916817bffffffffffffffffffffffffffffffffffffffffffffffffffffffff191614612d95576040517f08c379a0000000000000000000000000000000000000000000000000000000008152600401612d8c90613c08565b60405180910390fd5b505b505050505050565b600080823b905060008111915050919050565b828054612dbe9061424e565b90600052602060002090601f016020900481019282612de05760008555612e27565b82601f10612df957805160ff1916838001178555612e27565b82800160010185558215612e27579182015b82811115612e26578251825591602001919060010190612e0b565b5b509050612e349190612e38565b5090565b5b80821115612e51576000816000905550600101612e39565b5090565b6000612e68612e6384613eec565b613ec7565b90508083825260208201905082856020860282011115612e8b57612e8a614467565b5b60005b85811015612ebb5781612ea18882612fb9565b845260208401935060208301925050600181019050612e8e565b5050509392505050565b6000612ed8612ed384613f18565b613ec7565b90508083825260208201905082856020860282011115612efb57612efa614467565b5b60005b85811015612f2b5781612f1188826130da565b845260208401935060208301925050600181019050612efe565b5050509392505050565b6000612f48612f4384613f44565b613ec7565b905082815260208101848484011115612f6457612f6361446c565b5b612f6f84828561420c565b509392505050565b6000612f8a612f8584613f75565b613ec7565b905082815260208101848484011115612fa657612fa561446c565b5b612fb184828561420c565b509392505050565b600081359050612fc881614aad565b92915050565b600082601f830112612fe357612fe2614462565b5b8135612ff3848260208601612e55565b91505092915050565b600082601f83011261301157613010614462565b5b8135613021848260208601612ec5565b91505092915050565b60008135905061303981614ac4565b92915050565b60008135905061304e81614adb565b92915050565b60008135905061306381614af2565b92915050565b60008151905061307881614af2565b92915050565b600082601f83011261309357613092614462565b5b81356130a3848260208601612f35565b91505092915050565b600082601f8301126130c1576130c0614462565b5b81356130d1848260208601612f77565b91505092915050565b6000813590506130e981614b09565b92915050565b6000813590506130fe81614b20565b92915050565b60008135905061311381614b37565b92915050565b60006020828403121561312f5761312e614476565b5b600061313d84828501612fb9565b91505092915050565b6000806040838503121561315d5761315c614476565b5b600061316b85828601612fb9565b925050602061317c85828601612fb9565b9150509250929050565b600080600080600060a086880312156131a2576131a1614476565b5b60006131b088828901612fb9565b95505060206131c188828901612fb9565b945050604086013567ffffffffffffffff8111156131e2576131e1614471565b5b6131ee88828901612ffc565b935050606086013567ffffffffffffffff81111561320f5761320e614471565b5b61321b88828901612ffc565b925050608086013567ffffffffffffffff81111561323c5761323b614471565b5b6132488882890161307e565b9150509295509295909350565b600080600080600060a0868803121561327157613270614476565b5b600061327f88828901612fb9565b955050602061329088828901612fb9565b94505060406132a1888289016130da565b93505060606132b2888289016130da565b925050608086013567ffffffffffffffff8111156132d3576132d2614471565b5b6132df8882890161307e565b9150509295509295909350565b6000806040838503121561330357613302614476565b5b600061331185828601612fb9565b92505060206133228582860161302a565b9150509250929050565b6000806040838503121561334357613342614476565b5b600061335185828601612fb9565b9250506020613362858286016130da565b9150509250929050565b60006020828403121561338257613381614476565b5b600082013567ffffffffffffffff8111156133a05761339f614471565b5b6133ac84828501612fce565b91505092915050565b600080604083850312156133cc576133cb614476565b5b600083013567ffffffffffffffff8111156133ea576133e9614471565b5b6133f685828601612fce565b925050602083013567ffffffffffffffff81111561341757613416614471565b5b61342385828601612ffc565b9150509250929050565b60006020828403121561344357613442614476565b5b600061345184828501613054565b91505092915050565b6000602082840312156134705761346f614476565b5b600061347e84828501613069565b91505092915050565b60006020828403121561349d5761349c614476565b5b600082013567ffffffffffffffff8111156134bb576134ba614471565b5b6134c7848285016130ac565b91505092915050565b6000602082840312156134e6576134e5614476565b5b60006134f4848285016130da565b91505092915050565b60006020828403121561351357613512614476565b5b6000613521848285016130ef565b91505092915050565b6000806000806080858703121561354457613543614476565b5b600061355287828801613104565b94505060206135638782880161303f565b93505060406135748782880161303f565b9250506060613585878288016130ef565b91505092959194509250565b600061359d83836139b3565b60208301905092915050565b6135b281614171565b82525050565b6135c96135c482614171565b614327565b82525050565b60006135da82613fb6565b6135e48185613fe4565b93506135ef83613fa6565b8060005b838110156136205781516136078882613591565b975061361283613fd7565b9250506001810190506135f3565b5085935050505092915050565b61363681614183565b82525050565b6136458161418f565b82525050565b61365c6136578261418f565b614339565b82525050565b600061366d82613fc1565b6136778185613ff5565b935061368781856020860161421b565b6136908161447b565b840191505092915050565b60006136a682613fcc565b6136b08185614006565b93506136c081856020860161421b565b6136c98161447b565b840191505092915050565b60006136e1603483614006565b91506136ec826144a6565b604082019050919050565b6000613704602883614006565b915061370f826144f5565b604082019050919050565b6000613727601c83614017565b915061373282614544565b601c82019050919050565b600061374a602e83614006565b91506137558261456d565b604082019050919050565b600061376d602b83614006565b9150613778826145bc565b604082019050919050565b6000613790602683614006565b915061379b8261460b565b604082019050919050565b60006137b3602983614006565b91506137be8261465a565b604082019050919050565b60006137d6601a83614006565b91506137e1826146a9565b602082019050919050565b60006137f9601d83614006565b9150613804826146d2565b602082019050919050565b600061381c601183614006565b9150613827826146fb565b602082019050919050565b600061383f602583614006565b915061384a82614724565b604082019050919050565b6000613862603283614006565b915061386d82614773565b604082019050919050565b6000613885601783614006565b9150613890826147c2565b602082019050919050565b60006138a8602a83614006565b91506138b3826147eb565b604082019050919050565b60006138cb602983614006565b91506138d68261483a565b604082019050919050565b60006138ee602083614006565b91506138f982614889565b602082019050919050565b6000613911601083614006565b915061391c826148b2565b602082019050919050565b6000613934602983614006565b915061393f826148db565b604082019050919050565b6000613957602983614006565b91506139628261492a565b604082019050919050565b600061397a602883614006565b915061398582614979565b604082019050919050565b600061399d602183614006565b91506139a8826149c8565b604082019050919050565b6139bc816141e5565b82525050565b6139cb816141e5565b82525050565b6139da816141ef565b82525050565b6139e9816141ff565b82525050565b60006139fb82846135b8565b60148201915081905092915050565b6000613a158261371a565b9150613a21828461364b565b60208201915081905092915050565b6000602082019050613a4560008301846135a9565b92915050565b600060a082019050613a6060008301886135a9565b613a6d60208301876135a9565b8181036040830152613a7f81866135cf565b90508181036060830152613a9381856135cf565b90508181036080830152613aa78184613662565b90509695505050505050565b600060a082019050613ac860008301886135a9565b613ad560208301876135a9565b613ae260408301866139c2565b613aef60608301856139c2565b8181036080830152613b018184613662565b90509695505050505050565b60006020820190508181036000830152613b2781846135cf565b905092915050565b60006040820190508181036000830152613b4981856135cf565b90508181036020830152613b5d81846135cf565b90509392505050565b6000602082019050613b7b600083018461362d565b92915050565b6000608082019050613b96600083018761363c565b613ba360208301866139e0565b613bb0604083018561363c565b613bbd606083018461363c565b95945050505050565b60006020820190508181036000830152613be0818461369b565b905092915050565b60006020820190508181036000830152613c01816136d4565b9050919050565b60006020820190508181036000830152613c21816136f7565b9050919050565b60006020820190508181036000830152613c418161373d565b9050919050565b60006020820190508181036000830152613c6181613760565b9050919050565b60006020820190508181036000830152613c8181613783565b9050919050565b60006020820190508181036000830152613ca1816137a6565b9050919050565b60006020820190508181036000830152613cc1816137c9565b9050919050565b60006020820190508181036000830152613ce1816137ec565b9050919050565b60006020820190508181036000830152613d018161380f565b9050919050565b60006020820190508181036000830152613d2181613832565b9050919050565b60006020820190508181036000830152613d4181613855565b9050919050565b60006020820190508181036000830152613d6181613878565b9050919050565b60006020820190508181036000830152613d818161389b565b9050919050565b60006020820190508181036000830152613da1816138be565b9050919050565b60006020820190508181036000830152613dc1816138e1565b9050919050565b60006020820190508181036000830152613de181613904565b9050919050565b60006020820190508181036000830152613e0181613927565b9050919050565b60006020820190508181036000830152613e218161394a565b9050919050565b60006020820190508181036000830152613e418161396d565b9050919050565b60006020820190508181036000830152613e6181613990565b9050919050565b6000602082019050613e7d60008301846139c2565b92915050565b6000604082019050613e9860008301856139c2565b613ea560208301846139c2565b9392505050565b6000602082019050613ec160008301846139d1565b92915050565b6000613ed1613ee2565b9050613edd8282614280565b919050565b6000604051905090565b600067ffffffffffffffff821115613f0757613f06614411565b5b602082029050602081019050919050565b600067ffffffffffffffff821115613f3357613f32614411565b5b602082029050602081019050919050565b600067ffffffffffffffff821115613f5f57613f5e614411565b5b613f688261447b565b9050602081019050919050565b600067ffffffffffffffff821115613f9057613f8f614411565b5b613f998261447b565b9050602081019050919050565b6000819050602082019050919050565b600081519050919050565b600081519050919050565b600081519050919050565b6000602082019050919050565b600082825260208201905092915050565b600082825260208201905092915050565b600082825260208201905092915050565b600081905092915050565b600061402d826141e5565b9150614038836141e5565b9250827fffffffffffffffffffffffffffffffffffffffffffffffffffffffffffffffff0382111561406d5761406c614355565b5b828201905092915050565b6000614083826141ef565b915061408e836141ef565b92508263ffffffff038211156140a7576140a6614355565b5b828201905092915050565b60006140bd826141e5565b91506140c8836141e5565b9250826140d8576140d7614384565b5b828204905092915050565b60006140ee826141e5565b91506140f9836141e5565b9250817fffffffffffffffffffffffffffffffffffffffffffffffffffffffffffffffff048311821515161561413257614131614355565b5b828202905092915050565b6000614148826141e5565b9150614153836141e5565b92508282101561416657614165614355565b5b828203905092915050565b600061417c826141c5565b9050919050565b60008115159050919050565b6000819050919050565b60007fffffffff0000000000000000000000000000000000000000000000000000000082169050919050565b600073ffffffffffffffffffffffffffffffffffffffff82169050919050565b6000819050919050565b600063ffffffff82169050919050565b600060ff82169050919050565b82818337600083830152505050565b60005b8381101561423957808201518184015260208101905061421e565b83811115614248576000848401525b50505050565b6000600282049050600182168061426657607f821691505b6020821081141561427a576142796143b3565b5b50919050565b6142898261447b565b810181811067ffffffffffffffff821117156142a8576142a7614411565b5b80604052505050565b60006142bc826141e5565b91507fffffffffffffffffffffffffffffffffffffffffffffffffffffffffffffffff8214156142ef576142ee614355565b5b600182019050919050565b6000614305826141ef565b915063ffffffff82141561431c5761431b614355565b5b600182019050919050565b600061433282614343565b9050919050565b6000819050919050565b600061434e8261448c565b9050919050565b7f4e487b7100000000000000000000000000000000000000000000000000000000600052601160045260246000fd5b7f4e487b7100000000000000000000000000000000000000000000000000000000600052601260045260246000fd5b7f4e487b7100000000000000000000000000000000000000000000000000000000600052602260045260246000fd5b7f4e487b7100000000000000000000000000000000000000000000000000000000600052603260045260246000fd5b7f4e487b7100000000000000000000000000000000000000000000000000000000600052604160045260246000fd5b600060033d111561445f5760046000803e61445c600051614499565b90505b90565b600080fd5b600080fd5b600080fd5b600080fd5b600080fd5b6000601f19601f8301169050919050565b60008160601b9050919050565b60008160e01c9050919050565b7f455243313135353a207472616e7366657220746f206e6f6e204552433131353560008201527f526563656976657220696d706c656d656e746572000000000000000000000000602082015250565b7f455243313135353a204552433131353552656365697665722072656a6563746560008201527f6420746f6b656e73000000000000000000000000000000000000000000000000602082015250565b7f19457468657265756d205369676e6564204d6573736167653a0a333200000000600082015250565b7f436f756e74206578636565647320746865206d6178696d756d20616c6c6f776560008201527f642070657220616464726573732e000000000000000000000000000000000000602082015250565b7f455243313135353a2062616c616e636520717565727920666f7220746865207a60008201527f65726f2061646472657373000000000000000000000000000000000000000000602082015250565b7f4f776e61626c653a206e6577206f776e657220697320746865207a65726f206160008201527f6464726573730000000000000000000000000000000000000000000000000000602082015250565b7f455243313135353a2063616c6c6572206973206e6f74206f776e6572206e6f7260008201527f20617070726f7665640000000000000000000000000000000000000000000000602082015250565b7f5075626c69632073616c65206973206e6f74206163746976652e000000000000600082015250565b7f436f756e74206d7573742062652067726561746572207468616e20302e000000600082015250565b7f4e6f7420656e6f7567682065746865722e000000000000000000000000000000600082015250565b7f455243313135353a207472616e7366657220746f20746865207a65726f20616460008201527f6472657373000000000000000000000000000000000000000000000000000000602082015250565b7f455243313135353a207472616e736665722063616c6c6572206973206e6f742060008201527f6f776e6572206e6f7220617070726f7665640000000000000000000000000000602082015250565b7f5072652d73616c65206973206e6f74206163746976652e000000000000000000600082015250565b7f455243313135353a20696e73756666696369656e742062616c616e636520666f60008201527f72207472616e7366657200000000000000000000000000000000000000000000602082015250565b7f436f756e74206578636565647320746865206d6178696d756d20616c6c6f776560008201527f6420737570706c792e0000000000000000000000000000000000000000000000602082015250565b7f4f776e61626c653a2063616c6c6572206973206e6f7420746865206f776e6572600082015250565b7f4e6f742077686974656c69737465642e00000000000000000000000000000000600082015250565b7f455243313135353a2073657474696e6720617070726f76616c2073746174757360008201527f20666f722073656c660000000000000000000000000000000000000000000000602082015250565b7f455243313135353a206163636f756e747320616e6420696473206c656e67746860008201527f206d69736d617463680000000000000000000000000000000000000000000000602082015250565b7f455243313135353a2069647320616e6420616d6f756e7473206c656e6774682060008201527f6d69736d61746368000000000000000000000000000000000000000000000000602082015250565b7f455243313135353a206d696e7420746f20746865207a65726f2061646472657360008201527f7300000000000000000000000000000000000000000000000000000000000000602082015250565b600060443d1015614a2757614aaa565b614a2f613ee2565b60043d036004823e80513d602482011167ffffffffffffffff82111715614a57575050614aaa565b808201805167ffffffffffffffff811115614a755750505050614aaa565b80602083010160043d038501811115614a92575050505050614aaa565b614aa182602001850186614280565b82955050505050505b90565b614ab681614171565b8114614ac157600080fd5b50565b614acd81614183565b8114614ad857600080fd5b50565b614ae48161418f565b8114614aef57600080fd5b50565b614afb81614199565b8114614b0657600080fd5b50565b614b12816141e5565b8114614b1d57600080fd5b50565b614b29816141ef565b8114614b3457600080fd5b50565b614b40816141ff565b8114614b4b57600080fd5b5056fea2646970667358221220b3b942bc62d30bfad48076235a679b5c069971cdeff2a9777e0085400869c0d364736f6c63430008070033"
  }
}