{
  "opcodeHash": "0xf86438c14d908fdb416eea2f407da706757018b1a6b9c26962262c6cfdbfa51d",
  "metalessHash": "0xb2336aaa402f351dd7cc4fa9a9c8e47e097029d1d02d1322e44a9f327e80379d",
  "runtimeHash": "0x9386351a4cf06ddf60b00d8d826f68395273fa7e57187c246d44c3f941484233",
  "encodedMetadata": [
    {
      "ipfs": "/ipfs/QmVCHHk5YpJvPoYYRpwwYVexw4Zs671TK4EtVknQj7ojvW",
      "solc": "0.6.12"
    }
  ],
  "abi": [
    {
      "inputs": [
        {
          "internalType": "address payable",
          "name": "FeeAddress",
          "type": "address"
        },
        {
          "internalType": "address payable",
          "name": "marketingWalletAddress",
          "type": "address"
        }
      ],
      "stateMutability": "nonpayable",
      "type": "constructor"
    },
    {
      "anonymous": false,
      "inputs": [
        {
          "indexed": true,
          "internalType": "address",
          "name": "owner",
          "type": "address"
        },
        {
          "indexed": true,
          "internalType": "address",
          "name": "spender",
          "type": "address"
        },
        {
          "indexed": false,
          "internalType": "uint256",
          "name": "value",
          "type": "uint256"
        }
      ],
      "name": "Approval",
      "type": "event"
    },
    {
      "anonymous": false,
      "inputs": [
        {
          "indexed": false,
          "internalType": "uint256",
          "name": "_maxTxAmount",
          "type": "uint256"
        }
      ],
      "name": "MaxTxAmountUpdated",
      "type": "event"
    },
    {
      "anonymous": false,
      "inputs": [
        {
          "indexed": true,
          "internalType": "address",
          "name": "previousOwner",
          "type": "address"
        },
        {
          "indexed": true,
          "internalType": "address",
          "name": "newOwner",
          "type": "address"
        }
      ],
      "name": "OwnershipTransferred",
      "type": "event"
    },
    {
      "anonymous": false,
      "inputs": [
        {
          "indexed": true,
          "internalType": "address",
          "name": "from",
          "type": "address"
        },
        {
          "indexed": true,
          "internalType": "address",
          "name": "to",
          "type": "address"
        },
        {
          "indexed": false,
          "internalType": "uint256",
          "name": "value",
          "type": "uint256"
        }
      ],
      "name": "Transfer",
      "type": "event"
    },
    {
      "inputs": [
        {
          "internalType": "address",
          "name": "owner",
          "type": "address"
        },
        {
          "internalType": "address",
          "name": "spender",
          "type": "address"
        }
      ],
      "name": "allowance",
      "outputs": [
        {
          "internalType": "uint256",
          "name": "",
          "type": "uint256"
        }
      ],
      "stateMutability": "view",
      "type": "function"
    },
    {
      "inputs": [
        {
          "internalType": "address",
          "name": "spender",
          "type": "address"
        },
        {
          "internalType": "uint256",
          "name": "amount",
          "type": "uint256"
        }
      ],
      "name": "approve",
      "outputs": [
        {
          "internalType": "bool",
          "name": "",
          "type": "bool"
        }
      ],
      "stateMutability": "nonpayable",
      "type": "function"
    },
    {
      "inputs": [
        {
          "internalType": "address",
          "name": "account",
          "type": "address"
        }
      ],
      "name": "balanceOf",
      "outputs": [
        {
          "internalType": "uint256",
          "name": "",
          "type": "uint256"
        }
      ],
      "stateMutability": "view",
      "type": "function"
    },
    {
      "inputs": [],
      "name": "decimals",
      "outputs": [
        {
          "internalType": "uint8",
          "name": "",
          "type": "uint8"
        }
      ],
      "stateMutability": "pure",
      "type": "function"
    },
    {
      "inputs": [
        {
          "internalType": "address",
          "name": "notbot",
          "type": "address"
        }
      ],
      "name": "delBot",
      "outputs": [],
      "stateMutability": "nonpayable",
      "type": "function"
    },
    {
      "inputs": [],
      "name": "manualsend",
      "outputs": [],
      "stateMutability": "nonpayable",
      "type": "function"
    },
    {
      "inputs": [],
      "name": "manualswap",
      "outputs": [],
      "stateMutability": "nonpayable",
      "type": "function"
    },
    {
      "inputs": [],
      "name": "name",
      "outputs": [
        {
          "internalType": "string",
          "name": "",
          "type": "string"
        }
      ],
      "stateMutability": "pure",
      "type": "function"
    },
    {
      "inputs": [],
      "name": "openTrading",
      "outputs": [],
      "stateMutability": "nonpayable",
      "type": "function"
    },
    {
      "inputs": [],
      "name": "owner",
      "outputs": [
        {
          "internalType": "address",
          "name": "",
          "type": "address"
        }
      ],
      "stateMutability": "view",
      "type": "function"
    },
    {
      "inputs": [],
      "name": "renounceOwnership",
      "outputs": [],
      "stateMutability": "nonpayable",
      "type": "function"
    },
    {
      "inputs": [
        {
          "internalType": "address[]",
          "name": "bots_",
          "type": "address[]"
        }
      ],
      "name": "setBots",
      "outputs": [],
      "stateMutability": "nonpayable",
      "type": "function"
    },
    {
      "inputs": [
        {
          "internalType": "bool",
          "name": "onoff",
          "type": "bool"
        }
      ],
      "name": "setCooldownEnabled",
      "outputs": [],
      "stateMutability": "nonpayable",
      "type": "function"
    },
    {
      "inputs": [
        {
          "internalType": "uint256",
          "name": "maxTxPercent",
          "type": "uint256"
        }
      ],
      "name": "setMaxTxPercent",
      "outputs": [],
      "stateMutability": "nonpayable",
      "type": "function"
    },
    {
      "inputs": [],
      "name": "symbol",
      "outputs": [
        {
          "internalType": "string",
          "name": "",
          "type": "string"
        }
      ],
      "stateMutability": "pure",
      "type": "function"
    },
    {
      "inputs": [],
      "name": "totalSupply",
      "outputs": [
        {
          "internalType": "uint256",
          "name": "",
          "type": "uint256"
        }
      ],
      "stateMutability": "view",
      "type": "function"
    },
    {
      "inputs": [
        {
          "internalType": "address",
          "name": "recipient",
          "type": "address"
        },
        {
          "internalType": "uint256",
          "name": "amount",
          "type": "uint256"
        }
      ],
      "name": "transfer",
      "outputs": [
        {
          "internalType": "bool",
          "name": "",
          "type": "bool"
        }
      ],
      "stateMutability": "nonpayable",
      "type": "function"
    },
    {
      "inputs": [
        {
          "internalType": "address",
          "name": "sender",
          "type": "address"
        },
        {
          "internalType": "address",
          "name": "recipient",
          "type": "address"
        },
        {
          "internalType": "uint256",
          "name": "amount",
          "type": "uint256"
        }
      ],
      "name": "transferFrom",
      "outputs": [
        {
          "internalType": "bool",
          "name": "",
          "type": "bool"
        }
      ],
      "stateMutability": "nonpayable",
      "type": "function"
    },
    {
      "stateMutability": "payable",
      "type": "receive"
    }
  ],
  "bytecode": {
    "object": "60806040526818ce40f6d0219fffff19600a556001600c819055600e600d819055908155600f556013805462ffffff60a81b19169055683635c9adc5dea000006014553480156200004f57600080fd5b50604051620022eb380380620022eb833981810160405260408110156200007557600080fd5b50805160209091015160006200008a62000219565b600080546001600160a01b0319166001600160a01b0383169081178255604051929350917f8be0079c531659141344cd1fd0a4f28419497f9722a3daafe3b4186f6b6457e0908290a350601080546001600160a01b038085166001600160a01b0319928316179092556011805492841692909116919091179055600a54600260006200011562000219565b6001600160a01b03166001600160a01b03168152602001908152602001600020819055506001600560006200014f6200021d60201b60201c565b6001600160a01b03908116825260208083019390935260409182016000908120805495151560ff19968716179055308152600590935281832080548516600190811790915586821684528284208054861682179055908516835291208054909216179055620001bd62000219565b6001600160a01b031660006001600160a01b03167fddf252ad1be2c89b69c2b068fc378daa952ba7f163c4a11628f55a4df523b3ef683635c9adc5dea000006040518082815260200191505060405180910390a350506200022c565b3390565b6000546001600160a01b031690565b6120af806200023c6000396000f3fe60806040526004361061010d5760003560e01c8063715018a611610095578063b515566a11610064578063b515566a146103c2578063c3c8cd8014610472578063c9567bf914610487578063d543dbeb1461049c578063dd62ed3e146104c657610114565b8063715018a61461032e5780638da5cb5b1461034357806395d89b4114610374578063a9059cbb1461038957610114565b8063273123b7116100dc578063273123b71461025a578063313ce5671461028f5780635932ead1146102ba5780636fc3eaec146102e657806370a08231146102fb57610114565b806306fdde0314610119578063095ea7b3146101a357806318160ddd146101f057806323b872dd1461021757610114565b3661011457005b600080fd5b34801561012557600080fd5b5061012e610501565b6040805160208082528351818301528351919283929083019185019080838360005b83811015610168578181015183820152602001610150565b50505050905090810190601f1680156101955780820380516001836020036101000a031916815260200191505b509250505060405180910390f35b3480156101af57600080fd5b506101dc600480360360408110156101c657600080fd5b506001600160a01b038135169060200135610527565b604080519115158252519081900360200190f35b3480156101fc57600080fd5b50610205610545565b60408051918252519081900360200190f35b34801561022357600080fd5b506101dc6004803603606081101561023a57600080fd5b506001600160a01b03813581169160208101359091169060400135610552565b34801561026657600080fd5b5061028d6004803603602081101561027d57600080fd5b50356001600160a01b03166105d9565b005b34801561029b57600080fd5b506102a4610652565b6040805160ff9092168252519081900360200190f35b3480156102c657600080fd5b5061028d600480360360208110156102dd57600080fd5b50351515610657565b3480156102f257600080fd5b5061028d6106cd565b34801561030757600080fd5b506102056004803603602081101561031e57600080fd5b50356001600160a01b0316610701565b34801561033a57600080fd5b5061028d61076b565b34801561034f57600080fd5b5061035861080d565b604080516001600160a01b039092168252519081900360200190f35b34801561038057600080fd5b5061012e61081c565b34801561039557600080fd5b506101dc600480360360408110156103ac57600080fd5b506001600160a01b03813516906020013561083d565b3480156103ce57600080fd5b5061028d600480360360208110156103e557600080fd5b81019060208101813564010000000081111561040057600080fd5b82018360208201111561041257600080fd5b8035906020019184602083028401116401000000008311171561043457600080fd5b919080806020026020016040519081016040528093929190818152602001838360200280828437600092019190915250929550610851945050505050565b34801561047e57600080fd5b5061028d610905565b34801561049357600080fd5b5061028d610942565b3480156104a857600080fd5b5061028d600480360360208110156104bf57600080fd5b5035610d29565b3480156104d257600080fd5b50610205600480360360408110156104e957600080fd5b506001600160a01b0381358116916020013516610e2e565b60408051808201909152600c81526b742e6d652f53706c6f6f677960a01b602082015290565b600061053b610534610e59565b8484610e5d565b5060015b92915050565b683635c9adc5dea0000090565b600061055f848484610f49565b6105cf8461056b610e59565b6105ca85604051806060016040528060288152602001611fc0602891396001600160a01b038a166000908152600460205260408120906105a9610e59565b6001600160a01b03168152602081019190915260400160002054919061131f565b610e5d565b5060019392505050565b6105e1610e59565b6000546001600160a01b03908116911614610631576040805162461bcd60e51b81526020600482018190526024820152600080516020611fe8833981519152604482015290519081900360640190fd5b6001600160a01b03166000908152600760205260409020805460ff19169055565b600990565b61065f610e59565b6000546001600160a01b039081169116146106af576040805162461bcd60e51b81526020600482018190526024820152600080516020611fe8833981519152604482015290519081900360640190fd5b60138054911515600160b81b0260ff60b81b19909216919091179055565b6010546001600160a01b03166106e1610e59565b6001600160a01b0316146106f457600080fd5b476106fe816113b6565b50565b6001600160a01b03811660009081526006602052604081205460ff161561074157506001600160a01b038116600090815260036020526040902054610766565b6001600160a01b0382166000908152600260205260409020546107639061143b565b90505b919050565b610773610e59565b6000546001600160a01b039081169116146107c3576040805162461bcd60e51b81526020600482018190526024820152600080516020611fe8833981519152604482015290519081900360640190fd5b600080546040516001600160a01b03909116907f8be0079c531659141344cd1fd0a4f28419497f9722a3daafe3b4186f6b6457e0908390a3600080546001600160a01b0319169055565b6000546001600160a01b031690565b60408051808201909152600781526653504c4f4f475960c81b602082015290565b600061053b61084a610e59565b8484610f49565b610859610e59565b6000546001600160a01b039081169116146108a9576040805162461bcd60e51b81526020600482018190526024820152600080516020611fe8833981519152604482015290519081900360640190fd5b60005b8151811015610901576001600760008484815181106108c757fe5b6020908102919091018101516001600160a01b03168252810191909152604001600020805460ff19169115159190911790556001016108ac565b5050565b6010546001600160a01b0316610919610e59565b6001600160a01b03161461092c57600080fd5b600061093730610701565b90506106fe8161149b565b61094a610e59565b6000546001600160a01b0390811691161461099a576040805162461bcd60e51b81526020600482018190526024820152600080516020611fe8833981519152604482015290519081900360640190fd5b601354600160a01b900460ff16156109f9576040805162461bcd60e51b815260206004820152601760248201527f74726164696e6720697320616c7265616479206f70656e000000000000000000604482015290519081900360640190fd5b601280546001600160a01b031916737a250d5630b4cf539739df2c5dacb4c659f2488d9081179182905590610a429030906001600160a01b0316683635c9adc5dea00000610e5d565b806001600160a01b031663c45a01556040518163ffffffff1660e01b815260040160206040518083038186803b158015610a7b57600080fd5b505afa158015610a8f573d6000803e3d6000fd5b505050506040513d6020811015610aa557600080fd5b5051604080516315ab88c960e31b815290516001600160a01b039283169263c9c653969230929186169163ad5c464891600480820192602092909190829003018186803b158015610af557600080fd5b505afa158015610b09573d6000803e3d6000fd5b505050506040513d6020811015610b1f57600080fd5b5051604080516001600160e01b031960e086901b1681526001600160a01b0393841660048201529290911660248301525160448083019260209291908290030181600087803b158015610b7157600080fd5b505af1158015610b85573d6000803e3d6000fd5b505050506040513d6020811015610b9b57600080fd5b5051601380546001600160a01b0319166001600160a01b039283161790556012541663f305d7194730610bcd81610701565b600080610bd861080d565b426040518863ffffffff1660e01b815260040180876001600160a01b03168152602001868152602001858152602001848152602001836001600160a01b0316815260200182815260200196505050505050506060604051808303818588803b158015610c4357600080fd5b505af1158015610c57573d6000803e3d6000fd5b50505050506040513d6060811015610c6e57600080fd5b505060138054673afb087b8769000060145563ff0000ff60a01b1960ff60b01b19909116600160b01b1716600160a01b17908190556012546040805163095ea7b360e01b81526001600160a01b03928316600482015260001960248201529051919092169163095ea7b39160448083019260209291908290030181600087803b158015610cfa57600080fd5b505af1158015610d0e573d6000803e3d6000fd5b505050506040513d6020811015610d2457600080fd5b505050565b610d31610e59565b6000546001600160a01b03908116911614610d81576040805162461bcd60e51b81526020600482018190526024820152600080516020611fe8833981519152604482015290519081900360640190fd5b60008111610dd6576040805162461bcd60e51b815260206004820152601d60248201527f416d6f756e74206d7573742062652067726561746572207468616e2030000000604482015290519081900360640190fd5b610df46064610dee683635c9adc5dea0000084611669565b906116c2565b601481905560408051918252517f947f344d56e1e8c70dc492fb94c4ddddd490c016aab685f5e7e47b2e85cb44cf9181900360200190a150565b6001600160a01b03918216600090815260046020908152604080832093909416825291909152205490565b3390565b6001600160a01b038316610ea25760405162461bcd60e51b81526004018080602001828103825260248152602001806120566024913960400191505060405180910390fd5b6001600160a01b038216610ee75760405162461bcd60e51b8152600401808060200182810382526022815260200180611f7d6022913960400191505060405180910390fd5b6001600160a01b03808416600081815260046020908152604080832094871680845294825291829020859055815185815291517f8c5be1e5ebec7d5bd14f71427d1e84f3dd0314c0f7b2291e5b200ac8c7c3b9259281900390910190a3505050565b6001600160a01b038316610f8e5760405162461bcd60e51b81526004018080602001828103825260258152602001806120316025913960400191505060405180910390fd5b6001600160a01b038216610fd35760405162461bcd60e51b8152600401808060200182810382526023815260200180611f306023913960400191505060405180910390fd5b600081116110125760405162461bcd60e51b81526004018080602001828103825260298152602001806120086029913960400191505060405180910390fd5b61101a61080d565b6001600160a01b0316836001600160a01b031614158015611054575061103e61080d565b6001600160a01b0316826001600160a01b031614155b156112c257601354600160b81b900460ff161561114e576001600160a01b038316301480159061108d57506001600160a01b0382163014155b80156110a757506012546001600160a01b03848116911614155b80156110c157506012546001600160a01b03838116911614155b1561114e576012546001600160a01b03166110da610e59565b6001600160a01b0316148061110957506013546001600160a01b03166110fe610e59565b6001600160a01b0316145b61114e576040805162461bcd60e51b81526020600482015260116024820152704552523a20556e6973776170206f6e6c7960781b604482015290519081900360640190fd5b60145481111561115d57600080fd5b6001600160a01b03831660009081526007602052604090205460ff1615801561119f57506001600160a01b03821660009081526007602052604090205460ff16155b6111a857600080fd5b6013546001600160a01b0384811691161480156111d357506012546001600160a01b03838116911614155b80156111f857506001600160a01b03821660009081526005602052604090205460ff16155b801561120d5750601354600160b81b900460ff165b15611255576001600160a01b038216600090815260086020526040902054421161123657600080fd5b6001600160a01b0382166000908152600860205260409020601e420190555b600061126030610701565b601354909150600160a81b900460ff1615801561128b57506013546001600160a01b03858116911614155b80156112a05750601354600160b01b900460ff165b156112c0576112ae8161149b565b4780156112be576112be476113b6565b505b505b6001600160a01b03831660009081526005602052604090205460019060ff168061130457506001600160a01b03831660009081526005602052604090205460ff165b1561130d575060005b61131984848484611704565b50505050565b600081848411156113ae5760405162461bcd60e51b81526004018080602001828103825283818151815260200191508051906020019080838360005b8381101561137357818101518382015260200161135b565b50505050905090810190601f1680156113a05780820380516001836020036101000a031916815260200191505b509250505060405180910390fd5b505050900390565b6010546001600160a01b03166108fc6113d08360026116c2565b6040518115909202916000818181858888f193505050501580156113f8573d6000803e3d6000fd5b506011546001600160a01b03166108fc6114138360026116c2565b6040518115909202916000818181858888f19350505050158015610901573d6000803e3d6000fd5b6000600a5482111561147e5760405162461bcd60e51b815260040180806020018281038252602a815260200180611f53602a913960400191505060405180910390fd5b6000611488611820565b905061149483826116c2565b9392505050565b6013805460ff60a81b1916600160a81b179055604080516002808252606080830184529260208301908036833701905050905030816000815181106114dc57fe5b6001600160a01b03928316602091820292909201810191909152601254604080516315ab88c960e31b81529051919093169263ad5c4648926004808301939192829003018186803b15801561153057600080fd5b505afa158015611544573d6000803e3d6000fd5b505050506040513d602081101561155a57600080fd5b505181518290600190811061156b57fe5b6001600160a01b0392831660209182029290920101526012546115919130911684610e5d565b60125460405163791ac94760e01b8152600481018481526000602483018190523060648401819052426084850181905260a060448601908152875160a487015287516001600160a01b039097169663791ac947968a968a9594939092909160c40190602080880191028083838b5b838110156116175781810151838201526020016115ff565b505050509050019650505050505050600060405180830381600087803b15801561164057600080fd5b505af1158015611654573d6000803e3d6000fd5b50506013805460ff60a81b1916905550505050565b6000826116785750600061053f565b8282028284828161168557fe5b04146114945760405162461bcd60e51b8152600401808060200182810382526021815260200180611f9f6021913960400191505060405180910390fd5b600061149483836040518060400160405280601a81526020017f536166654d6174683a206469766973696f6e206279207a65726f000000000000815250611843565b80611711576117116118a8565b6001600160a01b03841660009081526006602052604090205460ff16801561175257506001600160a01b03831660009081526006602052604090205460ff16155b15611767576117628484846118da565b611813565b6001600160a01b03841660009081526006602052604090205460ff161580156117a857506001600160a01b03831660009081526006602052604090205460ff165b156117b8576117628484846119fe565b6001600160a01b03841660009081526006602052604090205460ff1680156117f857506001600160a01b03831660009081526006602052604090205460ff165b1561180857611762848484611aa7565b611813848484611b1a565b8061131957611319611b5e565b600080600061182d611b6c565b909250905061183c82826116c2565b9250505090565b600081836118925760405162461bcd60e51b815260206004820181815283516024840152835190928392604490910191908501908083836000831561137357818101518382015260200161135b565b50600083858161189e57fe5b0495945050505050565b600c541580156118b85750600d54155b156118c2576118d8565b600c8054600e55600d8054600f55600091829055555b565b6000806000806000806118ec87611ceb565b6001600160a01b038f16600090815260036020526040902054959b5093995091975095509350915061191e9088611d48565b6001600160a01b038a1660009081526003602090815260408083209390935560029052205461194d9087611d48565b6001600160a01b03808b1660009081526002602052604080822093909355908a168152205461197c9086611d8a565b6001600160a01b03891660009081526002602052604090205561199e81611de4565b6119a88483611e6c565b876001600160a01b0316896001600160a01b03167fddf252ad1be2c89b69c2b068fc378daa952ba7f163c4a11628f55a4df523b3ef856040518082815260200191505060405180910390a3505050505050505050565b600080600080600080611a1087611ceb565b6001600160a01b038f16600090815260026020526040902054959b50939950919750955093509150611a429087611d48565b6001600160a01b03808b16600090815260026020908152604080832094909455918b16815260039091522054611a789084611d8a565b6001600160a01b03891660009081526003602090815260408083209390935560029052205461197c9086611d8a565b600080600080600080611ab987611ceb565b6001600160a01b038f16600090815260036020526040902054959b50939950919750955093509150611aeb9088611d48565b6001600160a01b038a16600090815260036020908152604080832093909355600290522054611a429087611d48565b600080600080600080611b2c87611ceb565b6001600160a01b038f16600090815260026020526040902054959b5093995091975095509350915061194d9087611d48565b600e54600c55600f54600d55565b600a546000908190683635c9adc5dea00000825b600954811015611cab57826002600060098481548110611b9c57fe5b60009182526020808320909101546001600160a01b031683528201929092526040019020541180611c015750816003600060098481548110611bda57fe5b60009182526020808320909101546001600160a01b03168352820192909252604001902054115b15611c1f57600a54683635c9adc5dea0000094509450505050611ce7565b611c5f6002600060098481548110611c3357fe5b60009182526020808320909101546001600160a01b031683528201929092526040019020548490611d48565b9250611ca16003600060098481548110611c7557fe5b60009182526020808320909101546001600160a01b031683528201929092526040019020548390611d48565b9150600101611b80565b50600a54611cc290683635c9adc5dea000006116c2565b821015611ce157600a54683635c9adc5dea00000935093505050611ce7565b90925090505b9091565b6000806000806000806000806000611d088a600c54600d54611e90565b9250925092506000611d18611820565b90506000806000611d2b8e878787611edf565b919e509c509a509598509396509194505050505091939550919395565b600061149483836040518060400160405280601e81526020017f536166654d6174683a207375627472616374696f6e206f766572666c6f77000081525061131f565b600082820183811015611494576040805162461bcd60e51b815260206004820152601b60248201527f536166654d6174683a206164646974696f6e206f766572666c6f770000000000604482015290519081900360640190fd5b6000611dee611820565b90506000611dfc8383611669565b30600090815260026020526040902054909150611e199082611d8a565b3060009081526002602090815260408083209390935560069052205460ff1615610d245730600090815260036020526040902054611e579084611d8a565b30600090815260036020526040902055505050565b600a54611e799083611d48565b600a55600b54611e899082611d8a565b600b555050565b6000808080611ea46064610dee8989611669565b90506000611eb76064610dee8a89611669565b90506000611ecf82611ec98b86611d48565b90611d48565b9992985090965090945050505050565b6000808080611eee8886611669565b90506000611efc8887611669565b90506000611f0a8888611669565b90506000611f1c82611ec98686611d48565b939b939a5091985091965050505050505056fe45524332303a207472616e7366657220746f20746865207a65726f2061646472657373416d6f756e74206d757374206265206c657373207468616e20746f74616c207265666c656374696f6e7345524332303a20617070726f766520746f20746865207a65726f2061646472657373536166654d6174683a206d756c7469706c69636174696f6e206f766572666c6f7745524332303a207472616e7366657220616d6f756e74206578636565647320616c6c6f77616e63654f776e61626c653a2063616c6c6572206973206e6f7420746865206f776e65725472616e7366657220616d6f756e74206d7573742062652067726561746572207468616e207a65726f45524332303a207472616e736665722066726f6d20746865207a65726f206164647265737345524332303a20617070726f76652066726f6d20746865207a65726f2061646472657373a2646970667358221220db4ab008a8112efd470f4b7102e4c2ddb9fdaf664fc566d21be52e4aac145b1264736f6c634300060c0033"
  }
}