{
  "opcodeHash": "0x2a3c8c952c30db9accb4d48ecc40108bed065548b11add944c64897481a2635f",
  "metalessHash": "0x092e8dfd5813360b12abce81d5358eaf20344681db11808159c768468883b5f0",
  "runtimeHash": "0xf159d62028799eec7722377f98ed79bf602ca3fba2fed32d2dd59ddae62b18a4",
  "encodedMetadata": [
    {
      "ipfs": "/ipfs/QmdUb57fqroJoqreLqpkkKJcMjHJ4CjPA5vhNCN1f15KQy",
      "solc": "0.8.3"
    }
  ],
  "abi": [
    {
      "inputs": [],
      "stateMutability": "nonpayable",
      "type": "constructor"
    },
    {
      "anonymous": false,
      "inputs": [
        {
          "indexed": true,
          "internalType": "address",
          "name": "owner",
          "type": "address"
        },
        {
          "indexed": true,
          "internalType": "address",
          "name": "spender",
          "type": "address"
        },
        {
          "indexed": false,
          "internalType": "uint256",
          "name": "value",
          "type": "uint256"
        }
      ],
      "name": "Approval",
      "type": "event"
    },
    {
      "anonymous": false,
      "inputs": [
        {
          "indexed": true,
          "internalType": "address",
          "name": "from",
          "type": "address"
        },
        {
          "indexed": true,
          "internalType": "address",
          "name": "to",
          "type": "address"
        },
        {
          "indexed": false,
          "internalType": "uint256",
          "name": "value",
          "type": "uint256"
        }
      ],
      "name": "Transfer",
      "type": "event"
    },
    {
      "inputs": [
        {
          "internalType": "address",
          "name": "owner",
          "type": "address"
        },
        {
          "internalType": "address",
          "name": "spender",
          "type": "address"
        }
      ],
      "name": "allowance",
      "outputs": [
        {
          "internalType": "uint256",
          "name": "",
          "type": "uint256"
        }
      ],
      "stateMutability": "view",
      "type": "function"
    },
    {
      "inputs": [
        {
          "internalType": "address",
          "name": "spender",
          "type": "address"
        },
        {
          "internalType": "uint256",
          "name": "amount",
          "type": "uint256"
        }
      ],
      "name": "approve",
      "outputs": [
        {
          "internalType": "bool",
          "name": "",
          "type": "bool"
        }
      ],
      "stateMutability": "nonpayable",
      "type": "function"
    },
    {
      "inputs": [
        {
          "internalType": "address",
          "name": "account",
          "type": "address"
        }
      ],
      "name": "balanceOf",
      "outputs": [
        {
          "internalType": "uint256",
          "name": "",
          "type": "uint256"
        }
      ],
      "stateMutability": "view",
      "type": "function"
    },
    {
      "inputs": [],
      "name": "decimals",
      "outputs": [
        {
          "internalType": "uint8",
          "name": "",
          "type": "uint8"
        }
      ],
      "stateMutability": "view",
      "type": "function"
    },
    {
      "inputs": [],
      "name": "name",
      "outputs": [
        {
          "internalType": "string",
          "name": "",
          "type": "string"
        }
      ],
      "stateMutability": "view",
      "type": "function"
    },
    {
      "inputs": [],
      "name": "symbol",
      "outputs": [
        {
          "internalType": "string",
          "name": "",
          "type": "string"
        }
      ],
      "stateMutability": "view",
      "type": "function"
    },
    {
      "inputs": [],
      "name": "totalSupply",
      "outputs": [
        {
          "internalType": "uint256",
          "name": "",
          "type": "uint256"
        }
      ],
      "stateMutability": "view",
      "type": "function"
    },
    {
      "inputs": [
        {
          "internalType": "address",
          "name": "recipient",
          "type": "address"
        },
        {
          "internalType": "uint256",
          "name": "amount",
          "type": "uint256"
        }
      ],
      "name": "transfer",
      "outputs": [
        {
          "internalType": "bool",
          "name": "",
          "type": "bool"
        }
      ],
      "stateMutability": "nonpayable",
      "type": "function"
    },
    {
      "inputs": [
        {
          "internalType": "address",
          "name": "sender",
          "type": "address"
        },
        {
          "internalType": "address",
          "name": "recipient",
          "type": "address"
        },
        {
          "internalType": "uint256",
          "name": "amount",
          "type": "uint256"
        }
      ],
      "name": "transferFrom",
      "outputs": [
        {
          "internalType": "bool",
          "name": "",
          "type": "bool"
        }
      ],
      "stateMutability": "nonpayable",
      "type": "function"
    }
  ],
  "bytecode": {
    "object": "608060405234801561001057600080fd5b506d314dc6448d9338c15b0a00000000600255604080518082019091526011808252704c75636b79446f6765536869742e636f6d60781b602090920191825261005b916003916100da565b5060408051808201909152600880825267111bd9d954da1a5d60c21b602090920191825261008b916004916100da565b506002543360008181526020818152604080832085905551938452919290917fddf252ad1be2c89b69c2b068fc378daa952ba7f163c4a11628f55a4df523b3ef910160405180910390a36101ae565b8280546100e690610173565b90600052602060002090601f016020900481019282610108576000855561014e565b82601f1061012157805160ff191683800117855561014e565b8280016001018555821561014e579182015b8281111561014e578251825591602001919060010190610133565b5061015a92915061015e565b5090565b5b8082111561015a576000815560010161015f565b600181811c9082168061018757607f821691505b602082108114156101a857634e487b7160e01b600052602260045260246000fd5b50919050565b6107e0806101bd6000396000f3fe608060405234801561001057600080fd5b50600436106100935760003560e01c8063313ce56711610066578063313ce567146100fe57806370a082311461010d57806395d89b4114610120578063a9059cbb14610128578063dd62ed3e1461013b57610093565b806306fdde0314610098578063095ea7b3146100b657806318160ddd146100d957806323b872dd146100eb575b600080fd5b6100a0610174565b6040516100ad91906106d7565b60405180910390f35b6100c96100c43660046106ae565b610206565b60405190151581526020016100ad565b6002545b6040519081526020016100ad565b6100c96100f9366004610673565b61021c565b604051601281526020016100ad565b6100dd61011b366004610620565b6102d2565b6100a06102f1565b6100c96101363660046106ae565b610300565b6100dd610149366004610641565b6001600160a01b03918216600090815260016020908152604080832093909416825291909152205490565b60606003805461018390610759565b80601f01602080910402602001604051908101604052809291908181526020018280546101af90610759565b80156101fc5780601f106101d1576101008083540402835291602001916101fc565b820191906000526020600020905b8154815290600101906020018083116101df57829003601f168201915b5050505050905090565b600061021333848461030d565b50600192915050565b6000610229848484610431565b6001600160a01b0384166000908152600160209081526040808320338452909152902054828110156102b35760405162461bcd60e51b815260206004820152602860248201527f45524332303a207472616e7366657220616d6f756e74206578636565647320616044820152676c6c6f77616e636560c01b60648201526084015b60405180910390fd5b6102c785336102c28685610742565b61030d565b506001949350505050565b6001600160a01b0381166000908152602081905260409020545b919050565b60606004805461018390610759565b6000610213338484610431565b6001600160a01b03831661036f5760405162461bcd60e51b8152602060048201526024808201527f45524332303a20617070726f76652066726f6d20746865207a65726f206164646044820152637265737360e01b60648201526084016102aa565b6001600160a01b0382166103d05760405162461bcd60e51b815260206004820152602260248201527f45524332303a20617070726f766520746f20746865207a65726f206164647265604482015261737360f01b60648201526084016102aa565b6001600160a01b0383811660008181526001602090815260408083209487168084529482529182902085905590518481527f8c5be1e5ebec7d5bd14f71427d1e84f3dd0314c0f7b2291e5b200ac8c7c3b925910160405180910390a3505050565b6001600160a01b0383166104955760405162461bcd60e51b815260206004820152602560248201527f45524332303a207472616e736665722066726f6d20746865207a65726f206164604482015264647265737360d81b60648201526084016102aa565b6001600160a01b0382166104f75760405162461bcd60e51b815260206004820152602360248201527f45524332303a207472616e7366657220746f20746865207a65726f206164647260448201526265737360e81b60648201526084016102aa565b6001600160a01b0383166000908152602081905260409020548181101561056f5760405162461bcd60e51b815260206004820152602660248201527f45524332303a207472616e7366657220616d6f756e7420657863656564732062604482015265616c616e636560d01b60648201526084016102aa565b6105798282610742565b6001600160a01b0380861660009081526020819052604080822093909355908516815290812080548492906105af90849061072a565b92505081905550826001600160a01b0316846001600160a01b03167fddf252ad1be2c89b69c2b068fc378daa952ba7f163c4a11628f55a4df523b3ef846040516105fb91815260200190565b60405180910390a350505050565b80356001600160a01b03811681146102ec57600080fd5b600060208284031215610631578081fd5b61063a82610609565b9392505050565b60008060408385031215610653578081fd5b61065c83610609565b915061066a60208401610609565b90509250929050565b600080600060608486031215610687578081fd5b61069084610609565b925061069e60208501610609565b9150604084013590509250925092565b600080604083850312156106c0578182fd5b6106c983610609565b946020939093013593505050565b6000602080835283518082850152825b81811015610703578581018301518582016040015282016106e7565b818111156107145783604083870101525b50601f01601f1916929092016040019392505050565b6000821982111561073d5761073d610794565b500190565b60008282101561075457610754610794565b500390565b600181811c9082168061076d57607f821691505b6020821081141561078e57634e487b7160e01b600052602260045260246000fd5b50919050565b634e487b7160e01b600052601160045260246000fdfea26469706673582212204be4d32f036cb98190d73a19e810146354525e46466495aa62b8e8084e9f0cd864736f6c63430008030033"
  }
}