{
  "opcodeHash": "0x5be438b57da549db4527ae10ecd4dc03ea2cc9bf7d93e2ff154babd749043185",
  "metalessHash": "0x1af110e7a6702daa0f47a90679ee79260d973ff566078b9f837ec497aa71d66a",
  "runtimeHash": "0x79dcc218b3538971dd6a60762e8c4bfa276a86e5784270671baf809642cf78dd",
  "encodedMetadata": [
    {
      "ipfs": "/ipfs/QmeDQbu6vwsTP23VcNbTPxcSmnBNqDFVTKSppq3L9tQ8Ue",
      "solc": "0.8.4"
    }
  ],
  "abi": [
    {
      "inputs": [],
      "stateMutability": "nonpayable",
      "type": "constructor"
    },
    {
      "anonymous": false,
      "inputs": [
        {
          "indexed": true,
          "internalType": "address",
          "name": "owner",
          "type": "address"
        },
        {
          "indexed": true,
          "internalType": "address",
          "name": "spender",
          "type": "address"
        },
        {
          "indexed": false,
          "internalType": "uint256",
          "name": "value",
          "type": "uint256"
        }
      ],
      "name": "Approval",
      "type": "event"
    },
    {
      "anonymous": false,
      "inputs": [
        {
          "indexed": true,
          "internalType": "address",
          "name": "previousOwner",
          "type": "address"
        },
        {
          "indexed": true,
          "internalType": "address",
          "name": "newOwner",
          "type": "address"
        }
      ],
      "name": "OwnershipTransferred",
      "type": "event"
    },
    {
      "anonymous": false,
      "inputs": [
        {
          "indexed": false,
          "internalType": "address",
          "name": "account",
          "type": "address"
        }
      ],
      "name": "Paused",
      "type": "event"
    },
    {
      "anonymous": false,
      "inputs": [
        {
          "indexed": true,
          "internalType": "address",
          "name": "from",
          "type": "address"
        },
        {
          "indexed": true,
          "internalType": "address",
          "name": "to",
          "type": "address"
        },
        {
          "indexed": false,
          "internalType": "uint256",
          "name": "value",
          "type": "uint256"
        }
      ],
      "name": "Transfer",
      "type": "event"
    },
    {
      "anonymous": false,
      "inputs": [
        {
          "indexed": false,
          "internalType": "address",
          "name": "account",
          "type": "address"
        }
      ],
      "name": "Unpaused",
      "type": "event"
    },
    {
      "inputs": [
        {
          "internalType": "address",
          "name": "account",
          "type": "address"
        }
      ],
      "name": "addBotToBlackList",
      "outputs": [],
      "stateMutability": "nonpayable",
      "type": "function"
    },
    {
      "inputs": [
        {
          "internalType": "address",
          "name": "owner",
          "type": "address"
        },
        {
          "internalType": "address",
          "name": "spender",
          "type": "address"
        }
      ],
      "name": "allowance",
      "outputs": [
        {
          "internalType": "uint256",
          "name": "",
          "type": "uint256"
        }
      ],
      "stateMutability": "view",
      "type": "function"
    },
    {
      "inputs": [
        {
          "internalType": "address",
          "name": "spender",
          "type": "address"
        },
        {
          "internalType": "uint256",
          "name": "amount",
          "type": "uint256"
        }
      ],
      "name": "approve",
      "outputs": [
        {
          "internalType": "bool",
          "name": "",
          "type": "bool"
        }
      ],
      "stateMutability": "nonpayable",
      "type": "function"
    },
    {
      "inputs": [
        {
          "internalType": "address",
          "name": "account",
          "type": "address"
        }
      ],
      "name": "balanceOf",
      "outputs": [
        {
          "internalType": "uint256",
          "name": "",
          "type": "uint256"
        }
      ],
      "stateMutability": "view",
      "type": "function"
    },
    {
      "inputs": [
        {
          "internalType": "uint256",
          "name": "amount",
          "type": "uint256"
        }
      ],
      "name": "burn",
      "outputs": [],
      "stateMutability": "nonpayable",
      "type": "function"
    },
    {
      "inputs": [],
      "name": "decimals",
      "outputs": [
        {
          "internalType": "uint8",
          "name": "",
          "type": "uint8"
        }
      ],
      "stateMutability": "view",
      "type": "function"
    },
    {
      "inputs": [
        {
          "internalType": "address",
          "name": "spender",
          "type": "address"
        },
        {
          "internalType": "uint256",
          "name": "subtractedValue",
          "type": "uint256"
        }
      ],
      "name": "decreaseAllowance",
      "outputs": [
        {
          "internalType": "bool",
          "name": "",
          "type": "bool"
        }
      ],
      "stateMutability": "nonpayable",
      "type": "function"
    },
    {
      "inputs": [
        {
          "internalType": "address",
          "name": "spender",
          "type": "address"
        },
        {
          "internalType": "uint256",
          "name": "addedValue",
          "type": "uint256"
        }
      ],
      "name": "increaseAllowance",
      "outputs": [
        {
          "internalType": "bool",
          "name": "",
          "type": "bool"
        }
      ],
      "stateMutability": "nonpayable",
      "type": "function"
    },
    {
      "inputs": [
        {
          "internalType": "address",
          "name": "account",
          "type": "address"
        }
      ],
      "name": "isBot",
      "outputs": [
        {
          "internalType": "bool",
          "name": "",
          "type": "bool"
        }
      ],
      "stateMutability": "view",
      "type": "function"
    },
    {
      "inputs": [
        {
          "internalType": "uint256",
          "name": "amount",
          "type": "uint256"
        }
      ],
      "name": "mint",
      "outputs": [],
      "stateMutability": "nonpayable",
      "type": "function"
    },
    {
      "inputs": [],
      "name": "name",
      "outputs": [
        {
          "internalType": "string",
          "name": "",
          "type": "string"
        }
      ],
      "stateMutability": "view",
      "type": "function"
    },
    {
      "inputs": [],
      "name": "owner",
      "outputs": [
        {
          "internalType": "address",
          "name": "",
          "type": "address"
        }
      ],
      "stateMutability": "view",
      "type": "function"
    },
    {
      "inputs": [],
      "name": "pause",
      "outputs": [],
      "stateMutability": "nonpayable",
      "type": "function"
    },
    {
      "inputs": [],
      "name": "paused",
      "outputs": [
        {
          "internalType": "bool",
          "name": "",
          "type": "bool"
        }
      ],
      "stateMutability": "view",
      "type": "function"
    },
    {
      "inputs": [
        {
          "internalType": "address",
          "name": "account",
          "type": "address"
        }
      ],
      "name": "removeBotFromBlackList",
      "outputs": [],
      "stateMutability": "nonpayable",
      "type": "function"
    },
    {
      "inputs": [],
      "name": "renounceOwnership",
      "outputs": [],
      "stateMutability": "nonpayable",
      "type": "function"
    },
    {
      "inputs": [],
      "name": "symbol",
      "outputs": [
        {
          "internalType": "string",
          "name": "",
          "type": "string"
        }
      ],
      "stateMutability": "view",
      "type": "function"
    },
    {
      "inputs": [],
      "name": "totalSupply",
      "outputs": [
        {
          "internalType": "uint256",
          "name": "",
          "type": "uint256"
        }
      ],
      "stateMutability": "view",
      "type": "function"
    },
    {
      "inputs": [
        {
          "internalType": "address",
          "name": "recipient",
          "type": "address"
        },
        {
          "internalType": "uint256",
          "name": "amount",
          "type": "uint256"
        }
      ],
      "name": "transfer",
      "outputs": [
        {
          "internalType": "bool",
          "name": "",
          "type": "bool"
        }
      ],
      "stateMutability": "nonpayable",
      "type": "function"
    },
    {
      "inputs": [
        {
          "internalType": "address",
          "name": "sender",
          "type": "address"
        },
        {
          "internalType": "address",
          "name": "recipient",
          "type": "address"
        },
        {
          "internalType": "uint256",
          "name": "amount",
          "type": "uint256"
        }
      ],
      "name": "transferFrom",
      "outputs": [
        {
          "internalType": "bool",
          "name": "",
          "type": "bool"
        }
      ],
      "stateMutability": "nonpayable",
      "type": "function"
    },
    {
      "inputs": [
        {
          "internalType": "address",
          "name": "newOwner",
          "type": "address"
        }
      ],
      "name": "transferOwnership",
      "outputs": [],
      "stateMutability": "nonpayable",
      "type": "function"
    },
    {
      "inputs": [],
      "name": "unpause",
      "outputs": [],
      "stateMutability": "nonpayable",
      "type": "function"
    }
  ],
  "bytecode": {
    "object": "60806040523480156200001157600080fd5b50600062000024620001dc60201b60201c565b905062000036620001dc60201b60201c565b6000806101000a81548173ffffffffffffffffffffffffffffffffffffffff021916908373ffffffffffffffffffffffffffffffffffffffff1602179055508073ffffffffffffffffffffffffffffffffffffffff16600073ffffffffffffffffffffffffffffffffffffffff167f8be0079c531659141344cd1fd0a4f28419497f9722a3daafe3b4186f6b6457e060405160405180910390a35060008060146101000a81548160ff0219169083151502179055506040518060400160405280600581526020017f4c4f47414e000000000000000000000000000000000000000000000000000000815250600490805190602001906200013892919062000381565b506040518060400160405280600481526020017f4c474e2000000000000000000000000000000000000000000000000000000000815250600590805190602001906200018692919062000381565b50620001d66200019b620001e460201b60201c565b620001ab6200020d60201b60201c565b600a620001b9919062000571565b633b9aca00620001ca9190620006ae565b6200021660201b60201c565b620007f0565b600033905090565b60008060009054906101000a900473ffffffffffffffffffffffffffffffffffffffff16905090565b60006012905090565b600073ffffffffffffffffffffffffffffffffffffffff168273ffffffffffffffffffffffffffffffffffffffff16141562000289576040517f08c379a0000000000000000000000000000000000000000000000000000000008152600401620002809062000469565b60405180910390fd5b6200029d600083836200037c60201b60201c565b8060036000828254620002b19190620004b9565b9250508190555080600160008473ffffffffffffffffffffffffffffffffffffffff1673ffffffffffffffffffffffffffffffffffffffff1681526020019081526020016000206000828254620003099190620004b9565b925050819055508173ffffffffffffffffffffffffffffffffffffffff16600073ffffffffffffffffffffffffffffffffffffffff167fddf252ad1be2c89b69c2b068fc378daa952ba7f163c4a11628f55a4df523b3ef836040516200037091906200048b565b60405180910390a35050565b505050565b8280546200038f9062000726565b90600052602060002090601f016020900481019282620003b35760008555620003ff565b82601f10620003ce57805160ff1916838001178555620003ff565b82800160010185558215620003ff579182015b82811115620003fe578251825591602001919060010190620003e1565b5b5090506200040e919062000412565b5090565b5b808211156200042d57600081600090555060010162000413565b5090565b600062000440601f83620004a8565b91506200044d82620007c7565b602082019050919050565b62000463816200070f565b82525050565b60006020820190508181036000830152620004848162000431565b9050919050565b6000602082019050620004a2600083018462000458565b92915050565b600082825260208201905092915050565b6000620004c6826200070f565b9150620004d3836200070f565b9250827fffffffffffffffffffffffffffffffffffffffffffffffffffffffffffffffff038211156200050b576200050a6200075c565b5b828201905092915050565b6000808291508390505b6001851115620005685780860481111562000540576200053f6200075c565b5b6001851615620005505780820291505b80810290506200056085620007ba565b945062000520565b94509492505050565b60006200057e826200070f565b91506200058b8362000719565b9250620005ba7fffffffffffffffffffffffffffffffffffffffffffffffffffffffffffffffff8484620005c2565b905092915050565b600082620005d45760019050620006a7565b81620005e45760009050620006a7565b8160018114620005fd576002811462000608576200063e565b6001915050620006a7565b60ff8411156200061d576200061c6200075c565b5b8360020a9150848211156200063757620006366200075c565b5b50620006a7565b5060208310610133831016604e8410600b8410161715620006785782820a9050838111156200067257620006716200075c565b5b620006a7565b62000687848484600162000516565b92509050818404811115620006a157620006a06200075c565b5b81810290505b9392505050565b6000620006bb826200070f565b9150620006c8836200070f565b9250817fffffffffffffffffffffffffffffffffffffffffffffffffffffffffffffffff04831182151516156200070457620007036200075c565b5b828202905092915050565b6000819050919050565b600060ff82169050919050565b600060028204905060018216806200073f57607f821691505b602082108114156200075657620007556200078b565b5b50919050565b7f4e487b7100000000000000000000000000000000000000000000000000000000600052601160045260246000fd5b7f4e487b7100000000000000000000000000000000000000000000000000000000600052602260045260246000fd5b60008160011c9050919050565b7f45524332303a206d696e7420746f20746865207a65726f206164647265737300600082015250565b612df880620008006000396000f3fe608060405234801561001057600080fd5b50600436106101425760003560e01c806370a08231116100b857806395d89b411161007c57806395d89b411461033f578063a0712d681461035d578063a457c2d714610379578063a9059cbb146103a9578063dd62ed3e146103d9578063f2fde38b1461040957610142565b806370a08231146102c1578063715018a6146102f15780637ded4d6a146102fb5780638456cb59146103175780638da5cb5b1461032157610142565b8063395093511161010a57806339509351146102015780633bbac579146102315780633f4ba83a1461026157806342966c681461026b5780634303443d146102875780635c975abb146102a357610142565b806306fdde0314610147578063095ea7b31461016557806318160ddd1461019557806323b872dd146101b3578063313ce567146101e3575b600080fd5b61014f610425565b60405161015c9190612460565b60405180910390f35b61017f600480360381019061017a91906120da565b6104b7565b60405161018c9190612445565b60405180910390f35b61019d6104d5565b6040516101aa91906126c2565b60405180910390f35b6101cd60048036038101906101c8919061208b565b6104df565b6040516101da9190612445565b60405180910390f35b6101eb610787565b6040516101f891906126dd565b60405180910390f35b61021b600480360381019061021691906120da565b610790565b6040516102289190612445565b60405180910390f35b61024b60048036038101906102469190612026565b61083c565b6040516102589190612445565b60405180910390f35b610269610892565b005b61028560048036038101906102809190612116565b610918565b005b6102a1600480360381019061029c9190612026565b6109a1565b005b6102ab610beb565b6040516102b89190612445565b60405180910390f35b6102db60048036038101906102d69190612026565b610c01565b6040516102e891906126c2565b60405180910390f35b6102f9610c4a565b005b61031560048036038101906103109190612026565b610d84565b005b61031f61110d565b005b610329611193565b604051610336919061242a565b60405180910390f35b6103476111bc565b6040516103549190612460565b60405180910390f35b61037760048036038101906103729190612116565b61124e565b005b610393600480360381019061038e91906120da565b6112d7565b6040516103a09190612445565b60405180910390f35b6103c360048036038101906103be91906120da565b6113cb565b6040516103d09190612445565b60405180910390f35b6103f360048036038101906103ee919061204f565b611503565b60405161040091906126c2565b60405180910390f35b610423600480360381019061041e9190612026565b61158a565b005b60606004805461043490612826565b80601f016020809104026020016040519081016040528092919081815260200182805461046090612826565b80156104ad5780601f10610482576101008083540402835291602001916104ad565b820191906000526020600020905b81548152906001019060200180831161049057829003601f168201915b5050505050905090565b60006104cb6104c4611733565b848461173b565b6001905092915050565b6000600354905090565b6000600660008573ffffffffffffffffffffffffffffffffffffffff1673ffffffffffffffffffffffffffffffffffffffff16815260200190815260200160002060009054906101000a900460ff161561056e576040517f08c379a000000000000000000000000000000000000000000000000000000000815260040161056590612662565b60405180910390fd5b600660008473ffffffffffffffffffffffffffffffffffffffff1673ffffffffffffffffffffffffffffffffffffffff16815260200190815260200160002060009054906101000a900460ff16156105fb576040517f08c379a00000000000000000000000000000000000000000000000000000000081526004016105f290612662565b60405180910390fd5b600660003273ffffffffffffffffffffffffffffffffffffffff1673ffffffffffffffffffffffffffffffffffffffff16815260200190815260200160002060009054906101000a900460ff1615610688576040517f08c379a000000000000000000000000000000000000000000000000000000000815260040161067f90612662565b60405180910390fd5b610693848484611906565b6000600260008673ffffffffffffffffffffffffffffffffffffffff1673ffffffffffffffffffffffffffffffffffffffff16815260200190815260200160002060006106de611733565b73ffffffffffffffffffffffffffffffffffffffff1673ffffffffffffffffffffffffffffffffffffffff1681526020019081526020016000205490508281101561075e576040517f08c379a0000000000000000000000000000000000000000000000000000000008152600401610755906125a2565b60405180910390fd5b61077b8561076a611733565b8584610776919061276a565b61173b565b60019150509392505050565b60006012905090565b600061083261079d611733565b8484600260006107ab611733565b73ffffffffffffffffffffffffffffffffffffffff1673ffffffffffffffffffffffffffffffffffffffff16815260200190815260200160002060008873ffffffffffffffffffffffffffffffffffffffff1673ffffffffffffffffffffffffffffffffffffffff1681526020019081526020016000205461082d9190612714565b61173b565b6001905092915050565b6000600660008373ffffffffffffffffffffffffffffffffffffffff1673ffffffffffffffffffffffffffffffffffffffff16815260200190815260200160002060009054906101000a900460ff169050919050565b61089a611733565b73ffffffffffffffffffffffffffffffffffffffff166108b8611193565b73ffffffffffffffffffffffffffffffffffffffff161461090e576040517f08c379a0000000000000000000000000000000000000000000000000000000008152600401610905906125c2565b60405180910390fd5b610916611b88565b565b610920611733565b73ffffffffffffffffffffffffffffffffffffffff1661093e611193565b73ffffffffffffffffffffffffffffffffffffffff1614610994576040517f08c379a000000000000000000000000000000000000000000000000000000000815260040161098b906125c2565b60405180910390fd5b61099e3382611c29565b50565b6109a9611733565b73ffffffffffffffffffffffffffffffffffffffff166109c7611193565b73ffffffffffffffffffffffffffffffffffffffff1614610a1d576040517f08c379a0000000000000000000000000000000000000000000000000000000008152600401610a14906125c2565b60405180910390fd5b737a250d5630b4cf539739df2c5dacb4c659f2488d73ffffffffffffffffffffffffffffffffffffffff168173ffffffffffffffffffffffffffffffffffffffff161415610aa0576040517f08c379a0000000000000000000000000000000000000000000000000000000008152600401610a9790612602565b60405180910390fd5b600660008273ffffffffffffffffffffffffffffffffffffffff1673ffffffffffffffffffffffffffffffffffffffff16815260200190815260200160002060009054906101000a900460ff1615610b2d576040517f08c379a0000000000000000000000000000000000000000000000000000000008152600401610b2490612542565b60405180910390fd5b6001600660008373ffffffffffffffffffffffffffffffffffffffff1673ffffffffffffffffffffffffffffffffffffffff16815260200190815260200160002060006101000a81548160ff0219169083151502179055506007819080600181540180825580915050600190039060005260206000200160009091909190916101000a81548173ffffffffffffffffffffffffffffffffffffffff021916908373ffffffffffffffffffffffffffffffffffffffff16021790555050565b60008060149054906101000a900460ff16905090565b6000600160008373ffffffffffffffffffffffffffffffffffffffff1673ffffffffffffffffffffffffffffffffffffffff168152602001908152602001600020549050919050565b610c52611733565b73ffffffffffffffffffffffffffffffffffffffff16610c70611193565b73ffffffffffffffffffffffffffffffffffffffff1614610cc6576040517f08c379a0000000000000000000000000000000000000000000000000000000008152600401610cbd906125c2565b60405180910390fd5b600073ffffffffffffffffffffffffffffffffffffffff1660008054906101000a900473ffffffffffffffffffffffffffffffffffffffff1673ffffffffffffffffffffffffffffffffffffffff167f8be0079c531659141344cd1fd0a4f28419497f9722a3daafe3b4186f6b6457e060405160405180910390a360008060006101000a81548173ffffffffffffffffffffffffffffffffffffffff021916908373ffffffffffffffffffffffffffffffffffffffff160217905550565b610d8c611733565b73ffffffffffffffffffffffffffffffffffffffff16610daa611193565b73ffffffffffffffffffffffffffffffffffffffff1614610e00576040517f08c379a0000000000000000000000000000000000000000000000000000000008152600401610df7906125c2565b60405180910390fd5b600660008273ffffffffffffffffffffffffffffffffffffffff1673ffffffffffffffffffffffffffffffffffffffff16815260200190815260200160002060009054906101000a900460ff16610e8c576040517f08c379a0000000000000000000000000000000000000000000000000000000008152600401610e83906125e2565b60405180910390fd5b60005b600780549050811015611109578173ffffffffffffffffffffffffffffffffffffffff1660078281548110610eed577f4e487b7100000000000000000000000000000000000000000000000000000000600052603260045260246000fd5b9060005260206000200160009054906101000a900473ffffffffffffffffffffffffffffffffffffffff1673ffffffffffffffffffffffffffffffffffffffff1614156110f65760076001600780549050610f48919061276a565b81548110610f7f577f4e487b7100000000000000000000000000000000000000000000000000000000600052603260045260246000fd5b9060005260206000200160009054906101000a900473ffffffffffffffffffffffffffffffffffffffff1660078281548110610fe4577f4e487b7100000000000000000000000000000000000000000000000000000000600052603260045260246000fd5b9060005260206000200160006101000a81548173ffffffffffffffffffffffffffffffffffffffff021916908373ffffffffffffffffffffffffffffffffffffffff1602179055506000600660008473ffffffffffffffffffffffffffffffffffffffff1673ffffffffffffffffffffffffffffffffffffffff16815260200190815260200160002060006101000a81548160ff02191690831515021790555060078054806110bc577f4e487b7100000000000000000000000000000000000000000000000000000000600052603160045260246000fd5b6001900381819060005260206000200160006101000a81549073ffffffffffffffffffffffffffffffffffffffff02191690559055611109565b808061110190612858565b915050610e8f565b5050565b611115611733565b73ffffffffffffffffffffffffffffffffffffffff16611133611193565b73ffffffffffffffffffffffffffffffffffffffff1614611189576040517f08c379a0000000000000000000000000000000000000000000000000000000008152600401611180906125c2565b60405180910390fd5b611191611dff565b565b60008060009054906101000a900473ffffffffffffffffffffffffffffffffffffffff16905090565b6060600580546111cb90612826565b80601f01602080910402602001604051908101604052809291908181526020018280546111f790612826565b80156112445780601f1061121957610100808354040283529160200191611244565b820191906000526020600020905b81548152906001019060200180831161122757829003601f168201915b5050505050905090565b611256611733565b73ffffffffffffffffffffffffffffffffffffffff16611274611193565b73ffffffffffffffffffffffffffffffffffffffff16146112ca576040517f08c379a00000000000000000000000000000000000000000000000000000000081526004016112c1906125c2565b60405180910390fd5b6112d43382611ea2565b50565b600080600260006112e6611733565b73ffffffffffffffffffffffffffffffffffffffff1673ffffffffffffffffffffffffffffffffffffffff16815260200190815260200160002060008573ffffffffffffffffffffffffffffffffffffffff1673ffffffffffffffffffffffffffffffffffffffff168152602001908152602001600020549050828110156113a3576040517f08c379a000000000000000000000000000000000000000000000000000000000815260040161139a90612682565b60405180910390fd5b6113c06113ae611733565b8585846113bb919061276a565b61173b565b600191505092915050565b6000600660008473ffffffffffffffffffffffffffffffffffffffff1673ffffffffffffffffffffffffffffffffffffffff16815260200190815260200160002060009054906101000a900460ff161561145a576040517f08c379a000000000000000000000000000000000000000000000000000000000815260040161145190612662565b60405180910390fd5b600660003273ffffffffffffffffffffffffffffffffffffffff1673ffffffffffffffffffffffffffffffffffffffff16815260200190815260200160002060009054906101000a900460ff16156114e7576040517f08c379a00000000000000000000000000000000000000000000000000000000081526004016114de90612662565b60405180910390fd5b6114f96114f2611733565b8484611906565b6001905092915050565b6000600260008473ffffffffffffffffffffffffffffffffffffffff1673ffffffffffffffffffffffffffffffffffffffff16815260200190815260200160002060008373ffffffffffffffffffffffffffffffffffffffff1673ffffffffffffffffffffffffffffffffffffffff16815260200190815260200160002054905092915050565b611592611733565b73ffffffffffffffffffffffffffffffffffffffff166115b0611193565b73ffffffffffffffffffffffffffffffffffffffff1614611606576040517f08c379a00000000000000000000000000000000000000000000000000000000081526004016115fd906125c2565b60405180910390fd5b600073ffffffffffffffffffffffffffffffffffffffff168173ffffffffffffffffffffffffffffffffffffffff161415611676576040517f08c379a000000000000000000000000000000000000000000000000000000000815260040161166d906124e2565b60405180910390fd5b8073ffffffffffffffffffffffffffffffffffffffff1660008054906101000a900473ffffffffffffffffffffffffffffffffffffffff1673ffffffffffffffffffffffffffffffffffffffff167f8be0079c531659141344cd1fd0a4f28419497f9722a3daafe3b4186f6b6457e060405160405180910390a3806000806101000a81548173ffffffffffffffffffffffffffffffffffffffff021916908373ffffffffffffffffffffffffffffffffffffffff16021790555050565b600033905090565b600073ffffffffffffffffffffffffffffffffffffffff168373ffffffffffffffffffffffffffffffffffffffff1614156117ab576040517f08c379a00000000000000000000000000000000000000000000000000000000081526004016117a290612642565b60405180910390fd5b600073ffffffffffffffffffffffffffffffffffffffff168273ffffffffffffffffffffffffffffffffffffffff16141561181b576040517f08c379a000000000000000000000000000000000000000000000000000000000815260040161181290612502565b60405180910390fd5b80600260008573ffffffffffffffffffffffffffffffffffffffff1673ffffffffffffffffffffffffffffffffffffffff16815260200190815260200160002060008473ffffffffffffffffffffffffffffffffffffffff1673ffffffffffffffffffffffffffffffffffffffff168152602001908152602001600020819055508173ffffffffffffffffffffffffffffffffffffffff168373ffffffffffffffffffffffffffffffffffffffff167f8c5be1e5ebec7d5bd14f71427d1e84f3dd0314c0f7b2291e5b200ac8c7c3b925836040516118f991906126c2565b60405180910390a3505050565b600073ffffffffffffffffffffffffffffffffffffffff168373ffffffffffffffffffffffffffffffffffffffff161415611976576040517f08c379a000000000000000000000000000000000000000000000000000000000815260040161196d90612582565b60405180910390fd5b600073ffffffffffffffffffffffffffffffffffffffff168273ffffffffffffffffffffffffffffffffffffffff1614156119e6576040517f08c379a00000000000000000000000000000000000000000000000000000000081526004016119dd90612482565b60405180910390fd5b6119f1838383611ff7565b6000600160008573ffffffffffffffffffffffffffffffffffffffff1673ffffffffffffffffffffffffffffffffffffffff16815260200190815260200160002054905081811015611a78576040517f08c379a0000000000000000000000000000000000000000000000000000000008152600401611a6f90612522565b60405180910390fd5b8181611a84919061276a565b600160008673ffffffffffffffffffffffffffffffffffffffff1673ffffffffffffffffffffffffffffffffffffffff1681526020019081526020016000208190555081600160008573ffffffffffffffffffffffffffffffffffffffff1673ffffffffffffffffffffffffffffffffffffffff1681526020019081526020016000206000828254611b169190612714565b925050819055508273ffffffffffffffffffffffffffffffffffffffff168473ffffffffffffffffffffffffffffffffffffffff167fddf252ad1be2c89b69c2b068fc378daa952ba7f163c4a11628f55a4df523b3ef84604051611b7a91906126c2565b60405180910390a350505050565b611b90610beb565b611bcf576040517f08c379a0000000000000000000000000000000000000000000000000000000008152600401611bc6906124a2565b60405180910390fd5b60008060146101000a81548160ff0219169083151502179055507f5db9ee0a495bf2e6ff9c91a7834c1ba4fdd244a5e8aa4e537bd38aeae4b073aa611c12611733565b604051611c1f919061242a565b60405180910390a1565b600073ffffffffffffffffffffffffffffffffffffffff168273ffffffffffffffffffffffffffffffffffffffff161415611c99576040517f08c379a0000000000000000000000000000000000000000000000000000000008152600401611c9090612622565b60405180910390fd5b611ca582600083611ff7565b6000600160008473ffffffffffffffffffffffffffffffffffffffff1673ffffffffffffffffffffffffffffffffffffffff16815260200190815260200160002054905081811015611d2c576040517f08c379a0000000000000000000000000000000000000000000000000000000008152600401611d23906124c2565b60405180910390fd5b8181611d38919061276a565b600160008573ffffffffffffffffffffffffffffffffffffffff1673ffffffffffffffffffffffffffffffffffffffff168152602001908152602001600020819055508160036000828254611d8d919061276a565b92505081905550600073ffffffffffffffffffffffffffffffffffffffff168373ffffffffffffffffffffffffffffffffffffffff167fddf252ad1be2c89b69c2b068fc378daa952ba7f163c4a11628f55a4df523b3ef84604051611df291906126c2565b60405180910390a3505050565b611e07610beb565b15611e47576040517f08c379a0000000000000000000000000000000000000000000000000000000008152600401611e3e90612562565b60405180910390fd5b6001600060146101000a81548160ff0219169083151502179055507f62e78cea01bee320cd4e420270b5ea74000d11b0c9f74754ebdbfc544b05a258611e8b611733565b604051611e98919061242a565b60405180910390a1565b600073ffffffffffffffffffffffffffffffffffffffff168273ffffffffffffffffffffffffffffffffffffffff161415611f12576040517f08c379a0000000000000000000000000000000000000000000000000000000008152600401611f09906126a2565b60405180910390fd5b611f1e60008383611ff7565b8060036000828254611f309190612714565b9250508190555080600160008473ffffffffffffffffffffffffffffffffffffffff1673ffffffffffffffffffffffffffffffffffffffff1681526020019081526020016000206000828254611f869190612714565b925050819055508173ffffffffffffffffffffffffffffffffffffffff16600073ffffffffffffffffffffffffffffffffffffffff167fddf252ad1be2c89b69c2b068fc378daa952ba7f163c4a11628f55a4df523b3ef83604051611feb91906126c2565b60405180910390a35050565b505050565b60008135905061200b81612d94565b92915050565b60008135905061202081612dab565b92915050565b60006020828403121561203857600080fd5b600061204684828501611ffc565b91505092915050565b6000806040838503121561206257600080fd5b600061207085828601611ffc565b925050602061208185828601611ffc565b9150509250929050565b6000806000606084860312156120a057600080fd5b60006120ae86828701611ffc565b93505060206120bf86828701611ffc565b92505060406120d086828701612011565b9150509250925092565b600080604083850312156120ed57600080fd5b60006120fb85828601611ffc565b925050602061210c85828601612011565b9150509250929050565b60006020828403121561212857600080fd5b600061213684828501612011565b91505092915050565b6121488161279e565b82525050565b612157816127b0565b82525050565b6000612168826126f8565b6121728185612703565b93506121828185602086016127f3565b61218b816128ff565b840191505092915050565b60006121a3602383612703565b91506121ae82612910565b604082019050919050565b60006121c6601483612703565b91506121d18261295f565b602082019050919050565b60006121e9602283612703565b91506121f482612988565b604082019050919050565b600061220c602683612703565b9150612217826129d7565b604082019050919050565b600061222f602283612703565b915061223a82612a26565b604082019050919050565b6000612252602683612703565b915061225d82612a75565b604082019050919050565b6000612275601e83612703565b915061228082612ac4565b602082019050919050565b6000612298601083612703565b91506122a382612aed565b602082019050919050565b60006122bb602783612703565b91506122c682612b16565b604082019050919050565b60006122de602883612703565b91506122e982612b65565b604082019050919050565b6000612301602083612703565b915061230c82612bb4565b602082019050919050565b6000612324601a83612703565b915061232f82612bdd565b602082019050919050565b6000612347602483612703565b915061235282612c06565b604082019050919050565b600061236a602183612703565b915061237582612c55565b604082019050919050565b600061238d602483612703565b915061239882612ca4565b604082019050919050565b60006123b0601783612703565b91506123bb82612cf3565b602082019050919050565b60006123d3602583612703565b91506123de82612d1c565b604082019050919050565b60006123f6601f83612703565b915061240182612d6b565b602082019050919050565b612415816127dc565b82525050565b612424816127e6565b82525050565b600060208201905061243f600083018461213f565b92915050565b600060208201905061245a600083018461214e565b92915050565b6000602082019050818103600083015261247a818461215d565b905092915050565b6000602082019050818103600083015261249b81612196565b9050919050565b600060208201905081810360008301526124bb816121b9565b9050919050565b600060208201905081810360008301526124db816121dc565b9050919050565b600060208201905081810360008301526124fb816121ff565b9050919050565b6000602082019050818103600083015261251b81612222565b9050919050565b6000602082019050818103600083015261253b81612245565b9050919050565b6000602082019050818103600083015261255b81612268565b9050919050565b6000602082019050818103600083015261257b8161228b565b9050919050565b6000602082019050818103600083015261259b816122ae565b9050919050565b600060208201905081810360008301526125bb816122d1565b9050919050565b600060208201905081810360008301526125db816122f4565b9050919050565b600060208201905081810360008301526125fb81612317565b9050919050565b6000602082019050818103600083015261261b8161233a565b9050919050565b6000602082019050818103600083015261263b8161235d565b9050919050565b6000602082019050818103600083015261265b81612380565b9050919050565b6000602082019050818103600083015261267b816123a3565b9050919050565b6000602082019050818103600083015261269b816123c6565b9050919050565b600060208201905081810360008301526126bb816123e9565b9050919050565b60006020820190506126d7600083018461240c565b92915050565b60006020820190506126f2600083018461241b565b92915050565b600081519050919050565b600082825260208201905092915050565b600061271f826127dc565b915061272a836127dc565b9250827fffffffffffffffffffffffffffffffffffffffffffffffffffffffffffffffff0382111561275f5761275e6128a1565b5b828201905092915050565b6000612775826127dc565b9150612780836127dc565b925082821015612793576127926128a1565b5b828203905092915050565b60006127a9826127bc565b9050919050565b60008115159050919050565b600073ffffffffffffffffffffffffffffffffffffffff82169050919050565b6000819050919050565b600060ff82169050919050565b60005b838110156128115780820151818401526020810190506127f6565b83811115612820576000848401525b50505050565b6000600282049050600182168061283e57607f821691505b60208210811415612852576128516128d0565b5b50919050565b6000612863826127dc565b91507fffffffffffffffffffffffffffffffffffffffffffffffffffffffffffffffff821415612896576128956128a1565b5b600182019050919050565b7f4e487b7100000000000000000000000000000000000000000000000000000000600052601160045260246000fd5b7f4e487b7100000000000000000000000000000000000000000000000000000000600052602260045260246000fd5b6000601f19601f8301169050919050565b7f45524332303a207472616e7366657220746f20746865207a65726f206164647260008201527f6573730000000000000000000000000000000000000000000000000000000000602082015250565b7f5061757361626c653a206e6f7420706175736564000000000000000000000000600082015250565b7f45524332303a206275726e20616d6f756e7420657863656564732062616c616e60008201527f6365000000000000000000000000000000000000000000000000000000000000602082015250565b7f4f776e61626c653a206e6577206f776e657220697320746865207a65726f206160008201527f6464726573730000000000000000000000000000000000000000000000000000602082015250565b7f45524332303a20617070726f766520746f20746865207a65726f20616464726560008201527f7373000000000000000000000000000000000000000000000000000000000000602082015250565b7f45524332303a207472616e7366657220616d6f756e742065786365656473206260008201527f616c616e63650000000000000000000000000000000000000000000000000000602082015250565b7f4163636f756e7420697320616c726561647920626c61636b6c69737465640000600082015250565b7f5061757361626c653a2070617573656400000000000000000000000000000000600082015250565b7f455243323032303a207472616e736665722066726f6d20746865207a65726f2060008201527f6164647265737300000000000000000000000000000000000000000000000000602082015250565b7f45524332303a207472616e7366657220616d6f756e742065786365656473206160008201527f6c6c6f77616e6365000000000000000000000000000000000000000000000000602082015250565b7f4f776e61626c653a2063616c6c6572206973206e6f7420746865206f776e6572600082015250565b7f4163636f756e74206973206e6f7420626c61636b6c6973746564000000000000600082015250565b7f57652063616e206e6f7420626c61636b6c69737420556e697377617020726f7560008201527f7465722e00000000000000000000000000000000000000000000000000000000602082015250565b7f45524332303a206275726e2066726f6d20746865207a65726f2061646472657360008201527f7300000000000000000000000000000000000000000000000000000000000000602082015250565b7f45524332303a20617070726f76652066726f6d20746865207a65726f2061646460008201527f7265737300000000000000000000000000000000000000000000000000000000602082015250565b7f596f752068617665206e6f20706f776572206865726521000000000000000000600082015250565b7f45524332303a2064656372656173656420616c6c6f77616e63652062656c6f7760008201527f207a65726f000000000000000000000000000000000000000000000000000000602082015250565b7f45524332303a206d696e7420746f20746865207a65726f206164647265737300600082015250565b612d9d8161279e565b8114612da857600080fd5b50565b612db4816127dc565b8114612dbf57600080fd5b5056fea2646970667358221220dd0072cc541c143ed8e3299f7b4abb4a0346c73939048022ee086afd9ab4bc7064736f6c63430008040033"
  }
}