{"compiler":"v0.5.2+commit.1df8f40c","opcodeHash":"0xe5ae8ac8c649652d871c8aae89964ed44c7dc4116dd4b1464a7d7fec9ef184df","metalessHash":"0xb421dcef69b6959ab41ca165acb62063a19c6c1b2124345d5dbc7514c5798065","runtimeHash":"0xd2a53359739663d772cee834d76f6ac3f70d6f183f1d51ebace8b7eed18d89a5","encodedMetadata":[{"bzzr0":"/swarm/bzzr0/93294daf624b7958f620180b5fae24386870643b2fd700a57444d0dbd630c89a"}],"abi":[{"constant":true,"inputs":[],"name":"name","outputs":[{"name":"","type":"string"}],"payable":false,"stateMutability":"view","type":"function"},{"constant":true,"inputs":[],"name":"totalSupply","outputs":[{"name":"","type":"uint256"}],"payable":false,"stateMutability":"view","type":"function"},{"constant":false,"inputs":[{"name":"idx","type":"uint256"},{"name":"newOwner","type":"address"}],"name":"transferOwnership","outputs":[],"payable":false,"stateMutability":"nonpayable","type":"function"},{"constant":false,"inputs":[{"name":"pubKey","type":"bytes32"}],"name":"claimAll","outputs":[],"payable":false,"stateMutability":"nonpayable","type":"function"},{"constant":true,"inputs":[],"name":"decimals","outputs":[{"name":"","type":"uint8"}],"payable":false,"stateMutability":"pure","type":"function"},{"constant":false,"inputs":[{"name":"amount","type":"uint256"},{"name":"pubKey","type":"bytes32"}],"name":"claim","outputs":[],"payable":false,"stateMutability":"nonpayable","type":"function"},{"constant":false,"inputs":[{"name":"account","type":"address"},{"name":"amount","type":"uint256"}],"name":"mint","outputs":[],"payable":false,"stateMutability":"nonpayable","type":"function"},{"constant":true,"inputs":[{"name":"account","type":"address"}],"name":"balanceOf","outputs":[{"name":"","type":"uint256"}],"payable":false,"stateMutability":"view","type":"function"},{"constant":true,"inputs":[],"name":"isOwner","outputs":[{"name":"","type":"bool"}],"payable":false,"stateMutability":"view","type":"function"},{"constant":true,"inputs":[],"name":"symbol","outputs":[{"name":"","type":"string"}],"payable":false,"stateMutability":"view","type":"function"},{"constant":false,"inputs":[{"name":"account","type":"address"},{"name":"amount","type":"uint256"}],"name":"burn","outputs":[],"payable":false,"stateMutability":"nonpayable","type":"function"},{"constant":false,"inputs":[{"name":"recipient","type":"address"},{"name":"amount","type":"uint256"}],"name":"transfer","outputs":[{"name":"","type":"bool"}],"payable":false,"stateMutability":"nonpayable","type":"function"},{"constant":true,"inputs":[],"name":"owners","outputs":[{"name":"","type":"address[5]"}],"payable":false,"stateMutability":"view","type":"function"},{"constant":true,"inputs":[{"name":"account","type":"address"}],"name":"getBalance","outputs":[{"name":"","type":"uint256"}],"payable":false,"stateMutability":"view","type":"function"},{"anonymous":false,"inputs":[{"indexed":true,"name":"_address","type":"address"},{"indexed":false,"name":"_value","type":"uint256"},{"indexed":false,"name":"pubKey","type":"bytes32"}],"name":"ClaimCRU","type":"event"},{"anonymous":false,"inputs":[{"indexed":true,"name":"from","type":"address"},{"indexed":true,"name":"to","type":"address"},{"indexed":false,"name":"value","type":"uint256"}],"name":"Transfer","type":"event"},{"anonymous":false,"inputs":[{"indexed":true,"name":"previousOwner","type":"address"},{"indexed":true,"name":"newOwner","type":"address"}],"name":"OwnershipTransferred","type":"event"}],"bytecode":{"object":"60806040526040805190810160405280600f81526020017f4352555354203138204c6f636b656400000000000000000000000000000000008152506040805190810160405280600581526020017f435255313800000000000000000000000000000000000000000000000000000081525060006200008b62000173640100000000026401000000009004565b9050806000806005811015156200009e57fe5b0160006101000a81548173ffffffffffffffffffffffffffffffffffffffff021916908373ffffffffffffffffffffffffffffffffffffffff1602179055508073ffffffffffffffffffffffffffffffffffffffff16600073ffffffffffffffffffffffffffffffffffffffff167f8be0079c531659141344cd1fd0a4f28419497f9722a3daafe3b4186f6b6457e060405160405180910390a3508160059080519060200190620001519291906200017b565b5080600690805190602001906200016a9291906200017b565b5050506200022a565b600033905090565b828054600181600116156101000203166002900490600052602060002090601f016020900481019282601f10620001be57805160ff1916838001178555620001ef565b82800160010185558215620001ef579182015b82811115620001ee578251825591602001919060010190620001d1565b5b509050620001fe919062000202565b5090565b6200022791905b808211156200022357600081600090555060010162000209565b5090565b90565b611683806200023a6000396000f3fe608060405234801561001057600080fd5b5060043610610107576000357c01000000000000000000000000000000000000000000000000000000009004806370a08231116100a95780639dc29fac116100835780639dc29fac146103d0578063a9059cbb1461041e578063affe39c114610484578063f8b2cb4f146104ca57610107565b806370a08231146102d35780638f32d59b1461032b57806395d89b411461034d57610107565b80632e083590116100e55780632e083590146101fb578063313ce5671461022957806331d144571461024d57806340c10f191461028557610107565b806306fdde031461010c57806318160ddd1461018f57806329507f73146101ad575b600080fd5b610114610522565b6040518080602001828103825283818151815260200191508051906020019080838360005b83811015610154578082015181840152602081019050610139565b50505050905090810190601f1680156101815780820380516001836020036101000a031916815260200191505b509250505060405180910390f35b6101976105c4565b6040518082815260200191505060405180910390f35b6101f9600480360360408110156101c357600080fd5b8101908080359060200190929190803573ffffffffffffffffffffffffffffffffffffffff1690602001909291905050506105ce565b005b6102276004803603602081101561021157600080fd5b8101908080359060200190929190505050610658565b005b610231610674565b604051808260ff1660ff16815260200191505060405180910390f35b6102836004803603604081101561026357600080fd5b81019080803590602001909291908035906020019092919050505061067d565b005b6102d16004803603604081101561029b57600080fd5b81019080803573ffffffffffffffffffffffffffffffffffffffff1690602001909291908035906020019092919050505061068c565b005b610315600480360360208110156102e957600080fd5b81019080803573ffffffffffffffffffffffffffffffffffffffff169060200190929190505050610898565b6040518082815260200191505060405180910390f35b6103336108e1565b604051808215151515815260200191505060405180910390f35b610355610983565b6040518080602001828103825283818151815260200191508051906020019080838360005b8381101561039557808201518184015260208101905061037a565b50505050905090810190601f1680156103c25780820380516001836020036101000a031916815260200191505b509250505060405180910390f35b61041c600480360360408110156103e657600080fd5b81019080803573ffffffffffffffffffffffffffffffffffffffff16906020019092919080359060200190929190505050610a25565b005b61046a6004803603604081101561043457600080fd5b81019080803573ffffffffffffffffffffffffffffffffffffffff16906020019092919080359060200190929190505050610aaf565b604051808215151515815260200191505060405180910390f35b61048c610b49565b6040518082600560200280838360005b838110156104b757808201518184015260208101905061049c565b5050505090500191505060405180910390f35b61050c600480360360208110156104e057600080fd5b81019080803573ffffffffffffffffffffffffffffffffffffffff169060200190929190505050610bca565b6040518082815260200191505060405180910390f35b606060058054600181600116156101000203166002900480601f0160208091040260200160405190810160405280929190818152602001828054600181600116156101000203166002900480156105ba5780601f1061058f576101008083540402835291602001916105ba565b820191906000526020600020905b81548152906001019060200180831161059d57829003601f168201915b5050505050905090565b6000600754905090565b6105d66108e1565b151561064a576040517f08c379a00000000000000000000000000000000000000000000000000000000081526004018080602001828103825260208152602001807f4f776e61626c653a2063616c6c6572206973206e6f7420746865206f776e657281525060200191505060405180910390fd5b6106548282610bdc565b5050565b600061066333610bca565b9050610670338284610db9565b5050565b60006012905090565b610688338383610db9565b5050565b6106946108e1565b1515610708576040517f08c379a00000000000000000000000000000000000000000000000000000000081526004018080602001828103825260208152602001807f4f776e61626c653a2063616c6c6572206973206e6f7420746865206f776e657281525060200191505060405180910390fd5b600073ffffffffffffffffffffffffffffffffffffffff168273ffffffffffffffffffffffffffffffffffffffff1614151515610790576040517f08c379a00000000000000000000000000000000000000000000000000000000081526004018080602001828103825260248152602001806115436024913960400191505060405180910390fd5b61079c60075482610ef5565b6007819055506107eb600860008473ffffffffffffffffffffffffffffffffffffffff1673ffffffffffffffffffffffffffffffffffffffff1681526020019081526020016000205482610ef5565b600860008473ffffffffffffffffffffffffffffffffffffffff1673ffffffffffffffffffffffffffffffffffffffff168152602001908152602001600020819055508173ffffffffffffffffffffffffffffffffffffffff16600073ffffffffffffffffffffffffffffffffffffffff167fddf252ad1be2c89b69c2b068fc378daa952ba7f163c4a11628f55a4df523b3ef836040518082815260200191505060405180910390a35050565b6000600860008373ffffffffffffffffffffffffffffffffffffffff1673ffffffffffffffffffffffffffffffffffffffff168152602001908152602001600020549050919050565b6000806108ec610f7f565b905060008090505b60058110156109795760008160058110151561090c57fe5b0160009054906101000a900473ffffffffffffffffffffffffffffffffffffffff1673ffffffffffffffffffffffffffffffffffffffff168273ffffffffffffffffffffffffffffffffffffffff16141561096c57600192505050610980565b80806001019150506108f4565b5060009150505b90565b606060068054600181600116156101000203166002900480601f016020809104026020016040519081016040528092919081815260200182805460018160011615610100020316600290048015610a1b5780601f106109f057610100808354040283529160200191610a1b565b820191906000526020600020905b8154815290600101906020018083116109fe57829003601f168201915b5050505050905090565b610a2d6108e1565b1515610aa1576040517f08c379a00000000000000000000000000000000000000000000000000000000081526004018080602001828103825260208152602001807f4f776e61626c653a2063616c6c6572206973206e6f7420746865206f776e657281525060200191505060405180910390fd5b610aab8282610f87565b5050565b6000610ab96108e1565b1515610b2d576040517f08c379a00000000000000000000000000000000000000000000000000000000081526004018080602001828103825260208152602001807f4f776e61626c653a2063616c6c6572206973206e6f7420746865206f776e657281525060200191505060405180910390fd5b610b3f610b38610f7f565b8484611131565b6001905092915050565b610b516114fc565b6000600580602002604051908101604052809291908260058015610bc0576020028201915b8160009054906101000a900473ffffffffffffffffffffffffffffffffffffffff1673ffffffffffffffffffffffffffffffffffffffff1681526020019060010190808311610b76575b5050505050905090565b6000610bd582610898565b9050919050565b600582101515610c54576040517f08c379a000000000000000000000000000000000000000000000000000000000815260040180806020018281038252601b8152602001807f4f776e61626c653a20696e646578206f7574206f662072616e6765000000000081525060200191505060405180910390fd5b600073ffffffffffffffffffffffffffffffffffffffff168173ffffffffffffffffffffffffffffffffffffffff1614151515610cdc576040517f08c379a00000000000000000000000000000000000000000000000000000000081526004018080602001828103825260268152602001806115676026913960400191505060405180910390fd5b8073ffffffffffffffffffffffffffffffffffffffff16600083600581101515610d0257fe5b0160009054906101000a900473ffffffffffffffffffffffffffffffffffffffff1673ffffffffffffffffffffffffffffffffffffffff167f8be0079c531659141344cd1fd0a4f28419497f9722a3daafe3b4186f6b6457e060405160405180910390a380600083600581101515610d7657fe5b0160006101000a81548173ffffffffffffffffffffffffffffffffffffffff021916908373ffffffffffffffffffffffffffffffffffffffff1602179055505050565b600082111515610e31576040517f08c379a000000000000000000000000000000000000000000000000000000000815260040180806020018281038252601f8152602001807f636c61696d20616d6f756e742073686f756c64206e6f74206265207a65726f0081525060200191505060405180910390fd5b60006001028114151515610e90576040517f08c379a00000000000000000000000000000000000000000000000000000000081526004018080602001828103825260338152602001806115b36033913960400191505060405180910390fd5b610e9a8383610f87565b8273ffffffffffffffffffffffffffffffffffffffff167f0668ddd115c410e20c8a5784a4e678087b08f84c4c8694f51d26683552ca0f838383604051808381526020018281526020019250505060405180910390a2505050565b6000808284019050838110151515610f75576040517f08c379a000000000000000000000000000000000000000000000000000000000815260040180806020018281038252601b8152602001807f536166654d6174683a206164646974696f6e206f766572666c6f77000000000081525060200191505060405180910390fd5b8091505092915050565b600033905090565b600073ffffffffffffffffffffffffffffffffffffffff168273ffffffffffffffffffffffffffffffffffffffff161415151561100f576040517f08c379a00000000000000000000000000000000000000000000000000000000081526004018080602001828103825260268152602001806115e66026913960400191505060405180910390fd5b611072600860008473ffffffffffffffffffffffffffffffffffffffff1673ffffffffffffffffffffffffffffffffffffffff168152602001908152602001600020548260606040519081016040528060278152602001611631602791396113f0565b600860008473ffffffffffffffffffffffffffffffffffffffff1673ffffffffffffffffffffffffffffffffffffffff168152602001908152602001600020819055506110c1600754826114b2565b600781905550600073ffffffffffffffffffffffffffffffffffffffff168273ffffffffffffffffffffffffffffffffffffffff167fddf252ad1be2c89b69c2b068fc378daa952ba7f163c4a11628f55a4df523b3ef836040518082815260200191505060405180910390a35050565b600073ffffffffffffffffffffffffffffffffffffffff168373ffffffffffffffffffffffffffffffffffffffff16141515156111b9576040517f08c379a000000000000000000000000000000000000000000000000000000000815260040180806020018281038252602581526020018061160c6025913960400191505060405180910390fd5b600073ffffffffffffffffffffffffffffffffffffffff168273ffffffffffffffffffffffffffffffffffffffff1614151515611241576040517f08c379a00000000000000000000000000000000000000000000000000000000081526004018080602001828103825260238152602001806115206023913960400191505060405180910390fd5b6112ae816060604051908101604052806026815260200161158d60269139600860008773ffffffffffffffffffffffffffffffffffffffff1673ffffffffffffffffffffffffffffffffffffffff168152602001908152602001600020546113f09092919063ffffffff16565b600860008573ffffffffffffffffffffffffffffffffffffffff1673ffffffffffffffffffffffffffffffffffffffff1681526020019081526020016000208190555061134381600860008573ffffffffffffffffffffffffffffffffffffffff1673ffffffffffffffffffffffffffffffffffffffff16815260200190815260200160002054610ef590919063ffffffff16565b600860008473ffffffffffffffffffffffffffffffffffffffff1673ffffffffffffffffffffffffffffffffffffffff168152602001908152602001600020819055508173ffffffffffffffffffffffffffffffffffffffff168373ffffffffffffffffffffffffffffffffffffffff167fddf252ad1be2c89b69c2b068fc378daa952ba7f163c4a11628f55a4df523b3ef836040518082815260200191505060405180910390a3505050565b6000838311158290151561149f576040517f08c379a00000000000000000000000000000000000000000000000000000000081526004018080602001828103825283818151815260200191508051906020019080838360005b83811015611464578082015181840152602081019050611449565b50505050905090810190601f1680156114915780820380516001836020036101000a031916815260200191505b509250505060405180910390fd5b5060008385039050809150509392505050565b60006114f483836040805190810160405280601e81526020017f536166654d6174683a207375627472616374696f6e206f766572666c6f7700008152506113f0565b905092915050565b60a06040519081016040528060059060208202803883398082019150509050509056fe45524332303a207472616e7366657220746f20746865207a65726f20616464726573734372757374546f6b656e3a206d696e7420746f20746865207a65726f20616464726573734f776e61626c653a206e6577206f776e657220697320746865207a65726f206164647265737345524332303a207472616e7366657220616d6f756e7420657863656564732062616c616e63654661696c656420746f2070726f7669646520616e2045643235353139206f722053523235353139207075626c6963206b65792e4372757374546f6b656e3a206275726e2066726f6d20746865207a65726f206164647265737345524332303a207472616e736665722066726f6d20746865207a65726f20616464726573734372757374546f6b656e3a206275726e20616d6f756e7420657863656564732062616c616e6365a165627a7a72305820453d7602f8477ea0829b98c17163f9cc281452a3b3dcb2104d47eabdcbf801350029"}}