{"compiler":"v0.6.2+commit.bacdbe57","opcodeHash":"0x6cabbbfd9b87e34261ac962381e6cdb141ff33c9e76fe76d22f8f29a94774e10","metalessHash":"0x8f4b9c2a1f1c49789a2f9d85920d70029dd3011f4a7dc6d23200a1b6a3009644","runtimeHash":"0xc6d14f42e6d54ec26591fb415ac34e1937e43c7007908ac50cf608c68d91380f","encodedMetadata":[{"ipfs":"/ipfs/QmNiJZPhWn1B3E2SgT9EmhagnKVWtpmxSqLSAPeWY3nGWc","solc":"0.6.2"}],"abi":[{"inputs":[{"internalType":"contract BubbleToken","name":"_sushi","type":"address"},{"internalType":"uint256","name":"_sushiPerBlock","type":"uint256"},{"internalType":"uint256","name":"_startBlock","type":"uint256"},{"internalType":"uint256","name":"_bonusEndBlock","type":"uint256"}],"stateMutability":"nonpayable","type":"constructor"},{"anonymous":false,"inputs":[{"indexed":true,"internalType":"address","name":"user","type":"address"},{"indexed":true,"internalType":"uint256","name":"pid","type":"uint256"},{"indexed":false,"internalType":"uint256","name":"amount","type":"uint256"}],"name":"Deposit","type":"event"},{"anonymous":false,"inputs":[{"indexed":true,"internalType":"address","name":"user","type":"address"},{"indexed":true,"internalType":"uint256","name":"pid","type":"uint256"},{"indexed":false,"internalType":"uint256","name":"amount","type":"uint256"}],"name":"EmergencyWithdraw","type":"event"},{"anonymous":false,"inputs":[{"indexed":true,"internalType":"address","name":"previousOwner","type":"address"},{"indexed":true,"internalType":"address","name":"newOwner","type":"address"}],"name":"OwnershipTransferred","type":"event"},{"anonymous":false,"inputs":[{"indexed":true,"internalType":"address","name":"user","type":"address"},{"indexed":true,"internalType":"uint256","name":"pid","type":"uint256"},{"indexed":false,"internalType":"uint256","name":"amount","type":"uint256"}],"name":"Withdraw","type":"event"},{"inputs":[],"name":"BONUS_MULTIPLIER","outputs":[{"internalType":"uint256","name":"","type":"uint256"}],"stateMutability":"view","type":"function"},{"inputs":[{"internalType":"uint256","name":"_allocPoint","type":"uint256"},{"internalType":"contract IERC20","name":"_lpToken","type":"address"},{"internalType":"bool","name":"_withUpdate","type":"bool"}],"name":"add","outputs":[],"stateMutability":"nonpayable","type":"function"},{"inputs":[],"name":"bonusEndBlock","outputs":[{"internalType":"uint256","name":"","type":"uint256"}],"stateMutability":"view","type":"function"},{"inputs":[{"internalType":"uint256","name":"_pid","type":"uint256"},{"internalType":"uint256","name":"_amount","type":"uint256"}],"name":"deposit","outputs":[],"stateMutability":"nonpayable","type":"function"},{"inputs":[{"internalType":"uint256","name":"_pid","type":"uint256"}],"name":"emergencyWithdraw","outputs":[],"stateMutability":"nonpayable","type":"function"},{"inputs":[{"internalType":"uint256","name":"_from","type":"uint256"},{"internalType":"uint256","name":"_to","type":"uint256"}],"name":"getMultiplier","outputs":[{"internalType":"uint256","name":"","type":"uint256"}],"stateMutability":"view","type":"function"},{"inputs":[],"name":"massUpdatePools","outputs":[],"stateMutability":"nonpayable","type":"function"},{"inputs":[],"name":"migrator","outputs":[{"internalType":"contract IMigratorChef","name":"","type":"address"}],"stateMutability":"view","type":"function"},{"inputs":[],"name":"owner","outputs":[{"internalType":"address","name":"","type":"address"}],"stateMutability":"view","type":"function"},{"inputs":[{"internalType":"uint256","name":"_pid","type":"uint256"},{"internalType":"address","name":"_user","type":"address"}],"name":"pendingSushi","outputs":[{"internalType":"uint256","name":"","type":"uint256"}],"stateMutability":"view","type":"function"},{"inputs":[{"internalType":"uint256","name":"","type":"uint256"}],"name":"poolInfo","outputs":[{"internalType":"contract IERC20","name":"lpToken","type":"address"},{"internalType":"uint256","name":"allocPoint","type":"uint256"},{"internalType":"uint256","name":"lastRewardBlock","type":"uint256"},{"internalType":"uint256","name":"accSushiPerShare","type":"uint256"}],"stateMutability":"view","type":"function"},{"inputs":[],"name":"poolLength","outputs":[{"internalType":"uint256","name":"","type":"uint256"}],"stateMutability":"view","type":"function"},{"inputs":[],"name":"renounceOwnership","outputs":[],"stateMutability":"nonpayable","type":"function"},{"inputs":[{"internalType":"uint256","name":"_pid","type":"uint256"},{"internalType":"uint256","name":"_allocPoint","type":"uint256"},{"internalType":"bool","name":"_withUpdate","type":"bool"}],"name":"set","outputs":[],"stateMutability":"nonpayable","type":"function"},{"inputs":[{"internalType":"uint256","name":"_bonusEndBlock","type":"uint256"}],"name":"setBonusEndBlock","outputs":[],"stateMutability":"nonpayable","type":"function"},{"inputs":[],"name":"startBlock","outputs":[{"internalType":"uint256","name":"","type":"uint256"}],"stateMutability":"view","type":"function"},{"inputs":[],"name":"sushi","outputs":[{"internalType":"contract BubbleToken","name":"","type":"address"}],"stateMutability":"view","type":"function"},{"inputs":[],"name":"sushiPerBlock","outputs":[{"internalType":"uint256","name":"","type":"uint256"}],"stateMutability":"view","type":"function"},{"inputs":[],"name":"totalAllocPoint","outputs":[{"internalType":"uint256","name":"","type":"uint256"}],"stateMutability":"view","type":"function"},{"inputs":[{"internalType":"address","name":"newOwner","type":"address"}],"name":"transferOwnership","outputs":[],"stateMutability":"nonpayable","type":"function"},{"inputs":[{"internalType":"uint256","name":"_pid","type":"uint256"}],"name":"updatePool","outputs":[],"stateMutability":"nonpayable","type":"function"},{"inputs":[{"internalType":"uint256","name":"","type":"uint256"},{"internalType":"address","name":"","type":"address"}],"name":"userInfo","outputs":[{"internalType":"uint256","name":"amount","type":"uint256"},{"internalType":"uint256","name":"rewardDebt","type":"uint256"}],"stateMutability":"view","type":"function"},{"inputs":[{"internalType":"uint256","name":"_pid","type":"uint256"},{"internalType":"uint256","name":"_amount","type":"uint256"}],"name":"withdraw","outputs":[],"stateMutability":"nonpayable","type":"function"}],"bytecode":{"object":"6080604052600060075534801561001557600080fd5b50604051620028f2380380620028f28339818101604052608081101561003a57600080fd5b8101908080519060200190929190805190602001909291908051906020019092919080519060200190929190505050600061007961017660201b60201c565b9050806000806101000a81548173ffffffffffffffffffffffffffffffffffffffff021916908373ffffffffffffffffffffffffffffffffffffffff1602179055508073ffffffffffffffffffffffffffffffffffffffff16600073ffffffffffffffffffffffffffffffffffffffff167f8be0079c531659141344cd1fd0a4f28419497f9722a3daafe3b4186f6b6457e060405160405180910390a35083600160006101000a81548173ffffffffffffffffffffffffffffffffffffffff021916908373ffffffffffffffffffffffffffffffffffffffff1602179055508260038190555080600281905550816008819055505050505061017e565b600033905090565b612764806200018e6000396000f3fe608060405234801561001057600080fd5b506004361061014d5760003560e01c8063630b5ba1116100c35780638dbb1e3a1161007c5780638dbb1e3a146104f157806393f1a40b1461053d5780639e0af234146105a6578063b0bcf42a146105d4578063e2bbb158146105f2578063f2fde38b1461062a5761014d565b8063630b5ba1146103e757806364482f79146103f1578063715018a6146104355780637cd07e471461043f5780638aa28550146104895780638da5cb5b146104a75761014d565b80631aed6553116101155780631aed6553146102bd5780631eaaa045146102db578063441a3e701461033557806348cd4cb11461036d57806351eb05a61461038b5780635312ea8e146103b95761014d565b8063081e3eda146101525780630a087903146101705780631526fe27146101ba57806317caf6f11461023d578063195426ec1461025b575b600080fd5b61015a61066e565b6040518082815260200191505060405180910390f35b61017861067b565b604051808273ffffffffffffffffffffffffffffffffffffffff1673ffffffffffffffffffffffffffffffffffffffff16815260200191505060405180910390f35b6101e6600480360360208110156101d057600080fd5b81019080803590602001909291905050506106a1565b604051808573ffffffffffffffffffffffffffffffffffffffff1673ffffffffffffffffffffffffffffffffffffffff16815260200184815260200183815260200182815260200194505050505060405180910390f35b6102456106fe565b6040518082815260200191505060405180910390f35b6102a76004803603604081101561027157600080fd5b8101908080359060200190929190803573ffffffffffffffffffffffffffffffffffffffff169060200190929190505050610704565b6040518082815260200191505060405180910390f35b6102c5610960565b6040518082815260200191505060405180910390f35b610333600480360360608110156102f157600080fd5b8101908080359060200190929190803573ffffffffffffffffffffffffffffffffffffffff169060200190929190803515159060200190929190505050610966565b005b61036b6004803603604081101561034b57600080fd5b810190808035906020019092919080359060200190929190505050610c5e565b005b610375610ea8565b6040518082815260200191505060405180910390f35b6103b7600480360360208110156103a157600080fd5b8101908080359060200190929190505050610eae565b005b6103e5600480360360208110156103cf57600080fd5b8101908080359060200190929190505050611146565b005b6103ef611278565b005b6104336004803603606081101561040757600080fd5b8101908080359060200190929190803590602001909291908035151590602001909291905050506112a8565b005b61043d6113f3565b005b61044761157b565b604051808273ffffffffffffffffffffffffffffffffffffffff1673ffffffffffffffffffffffffffffffffffffffff16815260200191505060405180910390f35b6104916115a1565b6040518082815260200191505060405180910390f35b6104af6115a6565b604051808273ffffffffffffffffffffffffffffffffffffffff1673ffffffffffffffffffffffffffffffffffffffff16815260200191505060405180910390f35b6105276004803603604081101561050757600080fd5b8101908080359060200190929190803590602001909291905050506115cf565b6040518082815260200191505060405180910390f35b6105896004803603604081101561055357600080fd5b8101908080359060200190929190803573ffffffffffffffffffffffffffffffffffffffff169060200190929190505050611681565b604051808381526020018281526020019250505060405180910390f35b6105d2600480360360208110156105bc57600080fd5b81019080803590602001909291905050506116b2565b005b6105dc611785565b6040518082815260200191505060405180910390f35b6106286004803603604081101561060857600080fd5b81019080803590602001909291908035906020019092919050505061178b565b005b61066c6004803603602081101561064057600080fd5b81019080803573ffffffffffffffffffffffffffffffffffffffff16906020019092919050505061196b565b005b6000600580549050905090565b600160009054906101000a900473ffffffffffffffffffffffffffffffffffffffff1681565b600581815481106106ae57fe5b90600052602060002090600402016000915090508060000160009054906101000a900473ffffffffffffffffffffffffffffffffffffffff16908060010154908060020154908060030154905084565b60075481565b6000806005848154811061071457fe5b9060005260206000209060040201905060006006600086815260200190815260200160002060008573ffffffffffffffffffffffffffffffffffffffff1673ffffffffffffffffffffffffffffffffffffffff168152602001908152602001600020905060008260030154905060008360000160009054906101000a900473ffffffffffffffffffffffffffffffffffffffff1673ffffffffffffffffffffffffffffffffffffffff166370a08231306040518263ffffffff1660e01b8152600401808273ffffffffffffffffffffffffffffffffffffffff1673ffffffffffffffffffffffffffffffffffffffff16815260200191505060206040518083038186803b15801561082457600080fd5b505afa158015610838573d6000803e3d6000fd5b505050506040513d602081101561084e57600080fd5b81019080805190602001909291905050509050836002015443118015610875575060008114155b1561091057600061088a8560020154436115cf565b905060006108cd6007546108bf88600101546108b160035487611b7890919063ffffffff16565b611b7890919063ffffffff16565b611bfe90919063ffffffff16565b905061090b6108fc846108ee64e8d4a5100085611b7890919063ffffffff16565b611bfe90919063ffffffff16565b85611c4890919063ffffffff16565b935050505b610954836001015461094664e8d4a51000610938868860000154611b7890919063ffffffff16565b611bfe90919063ffffffff16565b611cd090919063ffffffff16565b94505050505092915050565b60025481565b61096e611d1a565b73ffffffffffffffffffffffffffffffffffffffff166000809054906101000a900473ffffffffffffffffffffffffffffffffffffffff1673ffffffffffffffffffffffffffffffffffffffff1614610a2f576040517f08c379a00000000000000000000000000000000000000000000000000000000081526004018080602001828103825260208152602001807f4f776e61626c653a2063616c6c6572206973206e6f7420746865206f776e657281525060200191505060405180910390fd5b60001515600960008473ffffffffffffffffffffffffffffffffffffffff1673ffffffffffffffffffffffffffffffffffffffff16815260200190815260200160002060009054906101000a900460ff16151514610af5576040517f08c379a00000000000000000000000000000000000000000000000000000000081526004018080602001828103825260128152602001807f506f6f6c20616c7265616479206578697374000000000000000000000000000081525060200191505060405180910390fd5b6001600960008473ffffffffffffffffffffffffffffffffffffffff1673ffffffffffffffffffffffffffffffffffffffff16815260200190815260200160002060006101000a81548160ff0219169083151502179055508015610b5c57610b5b611278565b5b60006008544311610b6f57600854610b71565b435b9050610b8884600754611c4890919063ffffffff16565b600781905550600560405180608001604052808573ffffffffffffffffffffffffffffffffffffffff1681526020018681526020018381526020016000815250908060018154018082558091505060019003906000526020600020906004020160009091909190915060008201518160000160006101000a81548173ffffffffffffffffffffffffffffffffffffffff021916908373ffffffffffffffffffffffffffffffffffffffff160217905550602082015181600101556040820151816002015560608201518160030155505050505050565b600060058381548110610c6d57fe5b9060005260206000209060040201905060006006600085815260200190815260200160002060003373ffffffffffffffffffffffffffffffffffffffff1673ffffffffffffffffffffffffffffffffffffffff16815260200190815260200160002090508281600001541015610d4b576040517f08c379a00000000000000000000000000000000000000000000000000000000081526004018080602001828103825260128152602001807f77697468647261773a206e6f7420676f6f64000000000000000000000000000081525060200191505060405180910390fd5b610d5484610eae565b6000610d9e8260010154610d9064e8d4a51000610d8287600301548760000154611b7890919063ffffffff16565b611bfe90919063ffffffff16565b611cd090919063ffffffff16565b9050610daa3382611d22565b610dc1848360000154611cd090919063ffffffff16565b8260000181905550610dfb64e8d4a51000610ded85600301548560000154611b7890919063ffffffff16565b611bfe90919063ffffffff16565b8260010181905550610e5233858560000160009054906101000a900473ffffffffffffffffffffffffffffffffffffffff1673ffffffffffffffffffffffffffffffffffffffff16611fdd9092919063ffffffff16565b843373ffffffffffffffffffffffffffffffffffffffff167ff279e6a1f5e320cca91135676d9cb6e44ca8a08c0b88342bcdb1144f6511b568866040518082815260200191505060405180910390a35050505050565b60085481565b600060058281548110610ebd57fe5b9060005260206000209060040201905080600201544311610ede5750611143565b60008160000160009054906101000a900473ffffffffffffffffffffffffffffffffffffffff1673ffffffffffffffffffffffffffffffffffffffff166370a08231306040518263ffffffff1660e01b8152600401808273ffffffffffffffffffffffffffffffffffffffff1673ffffffffffffffffffffffffffffffffffffffff16815260200191505060206040518083038186803b158015610f8157600080fd5b505afa158015610f95573d6000803e3d6000fd5b505050506040513d6020811015610fab57600080fd5b810190808051906020019092919050505090506000811415610fd7574382600201819055505050611143565b6000610fe78360020154436115cf565b9050600061102a60075461101c866001015461100e60035487611b7890919063ffffffff16565b611b7890919063ffffffff16565b611bfe90919063ffffffff16565b9050600160009054906101000a900473ffffffffffffffffffffffffffffffffffffffff1673ffffffffffffffffffffffffffffffffffffffff166340c10f1930836040518363ffffffff1660e01b8152600401808373ffffffffffffffffffffffffffffffffffffffff1673ffffffffffffffffffffffffffffffffffffffff16815260200182815260200192505050600060405180830381600087803b1580156110d557600080fd5b505af11580156110e9573d6000803e3d6000fd5b5050505061112d61111a8461110c64e8d4a5100085611b7890919063ffffffff16565b611bfe90919063ffffffff16565b8560030154611c4890919063ffffffff16565b8460030181905550438460020181905550505050505b50565b60006005828154811061115557fe5b9060005260206000209060040201905060006006600084815260200190815260200160002060003373ffffffffffffffffffffffffffffffffffffffff1673ffffffffffffffffffffffffffffffffffffffff168152602001908152602001600020905061120c3382600001548460000160009054906101000a900473ffffffffffffffffffffffffffffffffffffffff1673ffffffffffffffffffffffffffffffffffffffff16611fdd9092919063ffffffff16565b823373ffffffffffffffffffffffffffffffffffffffff167fbb757047c2b5f3974fe26b7c10f732e7bce710b0952a71082702781e62ae059583600001546040518082815260200191505060405180910390a36000816000018190555060008160010181905550505050565b6000600580549050905060008090505b818110156112a45761129981610eae565b806001019050611288565b5050565b6112b0611d1a565b73ffffffffffffffffffffffffffffffffffffffff166000809054906101000a900473ffffffffffffffffffffffffffffffffffffffff1673ffffffffffffffffffffffffffffffffffffffff1614611371576040517f08c379a00000000000000000000000000000000000000000000000000000000081526004018080602001828103825260208152602001807f4f776e61626c653a2063616c6c6572206973206e6f7420746865206f776e657281525060200191505060405180910390fd5b80156113805761137f611278565b5b6113c5826113b76005868154811061139457fe5b906000526020600020906004020160010154600754611cd090919063ffffffff16565b611c4890919063ffffffff16565b60078190555081600584815481106113d957fe5b906000526020600020906004020160010181905550505050565b6113fb611d1a565b73ffffffffffffffffffffffffffffffffffffffff166000809054906101000a900473ffffffffffffffffffffffffffffffffffffffff1673ffffffffffffffffffffffffffffffffffffffff16146114bc576040517f08c379a00000000000000000000000000000000000000000000000000000000081526004018080602001828103825260208152602001807f4f776e61626c653a2063616c6c6572206973206e6f7420746865206f776e657281525060200191505060405180910390fd5b600073ffffffffffffffffffffffffffffffffffffffff166000809054906101000a900473ffffffffffffffffffffffffffffffffffffffff1673ffffffffffffffffffffffffffffffffffffffff167f8be0079c531659141344cd1fd0a4f28419497f9722a3daafe3b4186f6b6457e060405160405180910390a360008060006101000a81548173ffffffffffffffffffffffffffffffffffffffff021916908373ffffffffffffffffffffffffffffffffffffffff160217905550565b600460009054906101000a900473ffffffffffffffffffffffffffffffffffffffff1681565b600a81565b60008060009054906101000a900473ffffffffffffffffffffffffffffffffffffffff16905090565b6000600254821161160757611600600a6115f28585611cd090919063ffffffff16565b611b7890919063ffffffff16565b905061167b565b600254831061162a576116238383611cd090919063ffffffff16565b905061167b565b61167861164260025484611cd090919063ffffffff16565b61166a600a61165c87600254611cd090919063ffffffff16565b611b7890919063ffffffff16565b611c4890919063ffffffff16565b90505b92915050565b6006602052816000526040600020602052806000526040600020600091509150508060000154908060010154905082565b6116ba611d1a565b73ffffffffffffffffffffffffffffffffffffffff166000809054906101000a900473ffffffffffffffffffffffffffffffffffffffff1673ffffffffffffffffffffffffffffffffffffffff161461177b576040517f08c379a00000000000000000000000000000000000000000000000000000000081526004018080602001828103825260208152602001807f4f776e61626c653a2063616c6c6572206973206e6f7420746865206f776e657281525060200191505060405180910390fd5b8060028190555050565b60035481565b60006005838154811061179a57fe5b9060005260206000209060040201905060006006600085815260200190815260200160002060003373ffffffffffffffffffffffffffffffffffffffff1673ffffffffffffffffffffffffffffffffffffffff168152602001908152602001600020905061180784610eae565b60008160000154111561186c57600061185e826001015461185064e8d4a5100061184287600301548760000154611b7890919063ffffffff16565b611bfe90919063ffffffff16565b611cd090919063ffffffff16565b905061186a3382611d22565b505b6118bd3330858560000160009054906101000a900473ffffffffffffffffffffffffffffffffffffffff1673ffffffffffffffffffffffffffffffffffffffff16612095909392919063ffffffff16565b6118d4838260000154611c4890919063ffffffff16565b816000018190555061190e64e8d4a5100061190084600301548460000154611b7890919063ffffffff16565b611bfe90919063ffffffff16565b8160010181905550833373ffffffffffffffffffffffffffffffffffffffff167f90890809c654f11d6e72a28fa60149770a0d11ec6c92319d6ceb2bb0a4ea1a15856040518082815260200191505060405180910390a350505050565b611973611d1a565b73ffffffffffffffffffffffffffffffffffffffff166000809054906101000a900473ffffffffffffffffffffffffffffffffffffffff1673ffffffffffffffffffffffffffffffffffffffff1614611a34576040517f08c379a00000000000000000000000000000000000000000000000000000000081526004018080602001828103825260208152602001807f4f776e61626c653a2063616c6c6572206973206e6f7420746865206f776e657281525060200191505060405180910390fd5b600073ffffffffffffffffffffffffffffffffffffffff168173ffffffffffffffffffffffffffffffffffffffff161415611aba576040517f08c379a00000000000000000000000000000000000000000000000000000000081526004018080602001828103825260268152602001806126986026913960400191505060405180910390fd5b8073ffffffffffffffffffffffffffffffffffffffff166000809054906101000a900473ffffffffffffffffffffffffffffffffffffffff1673ffffffffffffffffffffffffffffffffffffffff167f8be0079c531659141344cd1fd0a4f28419497f9722a3daafe3b4186f6b6457e060405160405180910390a3806000806101000a81548173ffffffffffffffffffffffffffffffffffffffff021916908373ffffffffffffffffffffffffffffffffffffffff16021790555050565b600080831415611b8b5760009050611bf8565b6000828402905082848281611b9c57fe5b0414611bf3576040517f08c379a00000000000000000000000000000000000000000000000000000000081526004018080602001828103825260218152602001806126e46021913960400191505060405180910390fd5b809150505b92915050565b6000611c4083836040518060400160405280601a81526020017f536166654d6174683a206469766973696f6e206279207a65726f000000000000815250612182565b905092915050565b600080828401905083811015611cc6576040517f08c379a000000000000000000000000000000000000000000000000000000000815260040180806020018281038252601b8152602001807f536166654d6174683a206164646974696f6e206f766572666c6f77000000000081525060200191505060405180910390fd5b8091505092915050565b6000611d1283836040518060400160405280601e81526020017f536166654d6174683a207375627472616374696f6e206f766572666c6f770000815250612248565b905092915050565b600033905090565b6000600160009054906101000a900473ffffffffffffffffffffffffffffffffffffffff1673ffffffffffffffffffffffffffffffffffffffff166370a08231306040518263ffffffff1660e01b8152600401808273ffffffffffffffffffffffffffffffffffffffff1673ffffffffffffffffffffffffffffffffffffffff16815260200191505060206040518083038186803b158015611dc357600080fd5b505afa158015611dd7573d6000803e3d6000fd5b505050506040513d6020811015611ded57600080fd5b8101908080519060200190929190505050905080821115611ef257600160009054906101000a900473ffffffffffffffffffffffffffffffffffffffff1673ffffffffffffffffffffffffffffffffffffffff1663a9059cbb84836040518363ffffffff1660e01b8152600401808373ffffffffffffffffffffffffffffffffffffffff1673ffffffffffffffffffffffffffffffffffffffff16815260200182815260200192505050602060405180830381600087803b158015611eb157600080fd5b505af1158015611ec5573d6000803e3d6000fd5b505050506040513d6020811015611edb57600080fd5b810190808051906020019092919050505050611fd8565b600160009054906101000a900473ffffffffffffffffffffffffffffffffffffffff1673ffffffffffffffffffffffffffffffffffffffff1663a9059cbb84846040518363ffffffff1660e01b8152600401808373ffffffffffffffffffffffffffffffffffffffff1673ffffffffffffffffffffffffffffffffffffffff16815260200182815260200192505050602060405180830381600087803b158015611f9b57600080fd5b505af1158015611faf573d6000803e3d6000fd5b505050506040513d6020811015611fc557600080fd5b8101908080519060200190929190505050505b505050565b6120908363a9059cbb60e01b8484604051602401808373ffffffffffffffffffffffffffffffffffffffff1673ffffffffffffffffffffffffffffffffffffffff16815260200182815260200192505050604051602081830303815290604052907bffffffffffffffffffffffffffffffffffffffffffffffffffffffff19166020820180517bffffffffffffffffffffffffffffffffffffffffffffffffffffffff8381831617835250505050612308565b505050565b61217c846323b872dd60e01b858585604051602401808473ffffffffffffffffffffffffffffffffffffffff1673ffffffffffffffffffffffffffffffffffffffff1681526020018373ffffffffffffffffffffffffffffffffffffffff1673ffffffffffffffffffffffffffffffffffffffff1681526020018281526020019350505050604051602081830303815290604052907bffffffffffffffffffffffffffffffffffffffffffffffffffffffff19166020820180517bffffffffffffffffffffffffffffffffffffffffffffffffffffffff8381831617835250505050612308565b50505050565b6000808311829061222e576040517f08c379a00000000000000000000000000000000000000000000000000000000081526004018080602001828103825283818151815260200191508051906020019080838360005b838110156121f35780820151818401526020810190506121d8565b50505050905090810190601f1680156122205780820380516001836020036101000a031916815260200191505b509250505060405180910390fd5b50600083858161223a57fe5b049050809150509392505050565b60008383111582906122f5576040517f08c379a00000000000000000000000000000000000000000000000000000000081526004018080602001828103825283818151815260200191508051906020019080838360005b838110156122ba57808201518184015260208101905061229f565b50505050905090810190601f1680156122e75780820380516001836020036101000a031916815260200191505b509250505060405180910390fd5b5060008385039050809150509392505050565b606061236a826040518060400160405280602081526020017f5361666545524332303a206c6f772d6c6576656c2063616c6c206661696c65648152508573ffffffffffffffffffffffffffffffffffffffff166123f79092919063ffffffff16565b90506000815111156123f25780806020019051602081101561238b57600080fd5b81019080805190602001909291905050506123f1576040517f08c379a000000000000000000000000000000000000000000000000000000000815260040180806020018281038252602a815260200180612705602a913960400191505060405180910390fd5b5b505050565b6060612406848460008561240f565b90509392505050565b60608247101561246a576040517f08c379a00000000000000000000000000000000000000000000000000000000081526004018080602001828103825260268152602001806126be6026913960400191505060405180910390fd5b612473856125b8565b6124e5576040517f08c379a000000000000000000000000000000000000000000000000000000000815260040180806020018281038252601d8152602001807f416464726573733a2063616c6c20746f206e6f6e2d636f6e747261637400000081525060200191505060405180910390fd5b600060608673ffffffffffffffffffffffffffffffffffffffff1685876040518082805190602001908083835b602083106125355780518252602082019150602081019050602083039250612512565b6001836020036101000a03801982511681845116808217855250505050505090500191505060006040518083038185875af1925050503d8060008114612597576040519150601f19603f3d011682016040523d82523d6000602084013e61259c565b606091505b50915091506125ac8282866125cb565b92505050949350505050565b600080823b905060008111915050919050565b606083156125db57829050612690565b6000835111156125ee5782518084602001fd5b816040517f08c379a00000000000000000000000000000000000000000000000000000000081526004018080602001828103825283818151815260200191508051906020019080838360005b8381101561265557808201518184015260208101905061263a565b50505050905090810190601f1680156126825780820380516001836020036101000a031916815260200191505b509250505060405180910390fd5b939250505056fe4f776e61626c653a206e6577206f776e657220697320746865207a65726f2061646472657373416464726573733a20696e73756666696369656e742062616c616e636520666f722063616c6c536166654d6174683a206d756c7469706c69636174696f6e206f766572666c6f775361666545524332303a204552433230206f7065726174696f6e20646964206e6f742073756363656564a264697066735822122099d0b01d94b6fff191f5432678b33714bde327500791d453df42db5a04dc80ad64736f6c63430006020033"}}