{
  "opcodeHash": "0x704f70565b36e0fcc2c07e8d7f6638fe354a08ba1c7171e6d7218efcf4d8e3f0",
  "metalessHash": "0x303105682fbde6e1201959c6d56b4045793b1f915ce17cca44c43f538e9a93d2",
  "runtimeHash": "0x66216f227f0830d79b0175292e7e5bcb98663c030490d2425fd0c5b88ed6ea70",
  "encodedMetadata": [
    {
      "ipfs": "/ipfs/QmVj3XVwLJ5bRXqQy6NWDJqubL25bxUe5NtV2p4dZaqBJM",
      "solc": "0.8.7"
    }
  ],
  "abi": [
    {
      "inputs": [],
      "stateMutability": "nonpayable",
      "type": "constructor"
    },
    {
      "anonymous": false,
      "inputs": [
        {
          "indexed": true,
          "internalType": "address",
          "name": "user",
          "type": "address"
        }
      ],
      "name": "GovernorAdded",
      "type": "event"
    },
    {
      "anonymous": false,
      "inputs": [
        {
          "indexed": true,
          "internalType": "address",
          "name": "user",
          "type": "address"
        }
      ],
      "name": "GovernorDeleted",
      "type": "event"
    },
    {
      "anonymous": false,
      "inputs": [
        {
          "indexed": false,
          "internalType": "address",
          "name": "cToken",
          "type": "address"
        },
        {
          "indexed": false,
          "internalType": "address",
          "name": "oldPriceFeed",
          "type": "address"
        },
        {
          "indexed": false,
          "internalType": "address",
          "name": "newPriceFeed",
          "type": "address"
        }
      ],
      "name": "NewPriceFeed",
      "type": "event"
    },
    {
      "anonymous": false,
      "inputs": [
        {
          "indexed": true,
          "internalType": "address",
          "name": "previousOwner",
          "type": "address"
        },
        {
          "indexed": true,
          "internalType": "address",
          "name": "newOwner",
          "type": "address"
        }
      ],
      "name": "OwnershipTransferred",
      "type": "event"
    },
    {
      "inputs": [
        {
          "internalType": "address",
          "name": "_governor",
          "type": "address"
        }
      ],
      "name": "addGovernor",
      "outputs": [
        {
          "internalType": "bool",
          "name": "",
          "type": "bool"
        }
      ],
      "stateMutability": "nonpayable",
      "type": "function"
    },
    {
      "inputs": [
        {
          "internalType": "address",
          "name": "_governor",
          "type": "address"
        }
      ],
      "name": "delGovernor",
      "outputs": [
        {
          "internalType": "bool",
          "name": "",
          "type": "bool"
        }
      ],
      "stateMutability": "nonpayable",
      "type": "function"
    },
    {
      "inputs": [
        {
          "internalType": "uint256",
          "name": "_index",
          "type": "uint256"
        }
      ],
      "name": "getGovernor",
      "outputs": [
        {
          "internalType": "address",
          "name": "",
          "type": "address"
        }
      ],
      "stateMutability": "view",
      "type": "function"
    },
    {
      "inputs": [],
      "name": "getGovernorLength",
      "outputs": [
        {
          "internalType": "uint256",
          "name": "",
          "type": "uint256"
        }
      ],
      "stateMutability": "view",
      "type": "function"
    },
    {
      "inputs": [
        {
          "internalType": "address",
          "name": "cToken",
          "type": "address"
        }
      ],
      "name": "getUnderlyingPrice",
      "outputs": [
        {
          "internalType": "uint256",
          "name": "",
          "type": "uint256"
        }
      ],
      "stateMutability": "view",
      "type": "function"
    },
    {
      "inputs": [
        {
          "internalType": "address",
          "name": "account",
          "type": "address"
        }
      ],
      "name": "isGovernor",
      "outputs": [
        {
          "internalType": "bool",
          "name": "",
          "type": "bool"
        }
      ],
      "stateMutability": "view",
      "type": "function"
    },
    {
      "inputs": [],
      "name": "isPriceOracle",
      "outputs": [
        {
          "internalType": "bool",
          "name": "",
          "type": "bool"
        }
      ],
      "stateMutability": "view",
      "type": "function"
    },
    {
      "inputs": [],
      "name": "owner",
      "outputs": [
        {
          "internalType": "address",
          "name": "",
          "type": "address"
        }
      ],
      "stateMutability": "view",
      "type": "function"
    },
    {
      "inputs": [],
      "name": "renounceOwnership",
      "outputs": [],
      "stateMutability": "nonpayable",
      "type": "function"
    },
    {
      "inputs": [
        {
          "internalType": "address",
          "name": "cToken",
          "type": "address"
        },
        {
          "internalType": "contract AggregatorV3Interface",
          "name": "priceFeed",
          "type": "address"
        }
      ],
      "name": "setPriceFeed",
      "outputs": [],
      "stateMutability": "nonpayable",
      "type": "function"
    },
    {
      "inputs": [
        {
          "internalType": "address",
          "name": "newOwner",
          "type": "address"
        }
      ],
      "name": "transferOwnership",
      "outputs": [],
      "stateMutability": "nonpayable",
      "type": "function"
    }
  ],
  "bytecode": {
    "object": "608060405234801561001057600080fd5b5061002d61002261003960201b60201c565b61004160201b60201c565b60018081905550610105565b600033905090565b60008060009054906101000a900473ffffffffffffffffffffffffffffffffffffffff169050816000806101000a81548173ffffffffffffffffffffffffffffffffffffffff021916908373ffffffffffffffffffffffffffffffffffffffff1602179055508173ffffffffffffffffffffffffffffffffffffffff168173ffffffffffffffffffffffffffffffffffffffff167f8be0079c531659141344cd1fd0a4f28419497f9722a3daafe3b4186f6b6457e060405160405180910390a35050565b6114c0806101146000396000f3fe608060405234801561001057600080fd5b50600436106100a95760003560e01c8063715018a611610071578063715018a61461017a57806376e11286146101845780638da5cb5b146101a0578063e43581b8146101be578063f2fde38b146101ee578063fc57d4df1461020a576100a9565b8063175c71d2146100ae5780633c4a25d0146100de5780634b8270dd1461010e5780634dd7a1671461012c57806366331bba1461015c575b600080fd5b6100c860048036038101906100c39190610e3f565b61023a565b6040516100d59190610fe6565b60405180910390f35b6100f860048036038101906100f39190610dd2565b6102a4565b6040516101059190611038565b60405180910390f35b6101166103e7565b6040516101239190611113565b60405180910390f35b61014660048036038101906101419190610dd2565b6103f8565b6040516101539190611038565b60405180910390f35b61016461053b565b6040516101719190611038565b60405180910390f35b610182610540565b005b61019e60048036038101906101999190610dff565b6105c8565b005b6101a861076f565b6040516101b59190610fe6565b60405180910390f35b6101d860048036038101906101d39190610dd2565b610798565b6040516101e59190611038565b60405180910390f35b61020860048036038101906102039190610dd2565b6107ac565b005b610224600480360381019061021f9190610dd2565b6108a4565b6040516102319190611113565b60405180910390f35b600060016102466103e7565b6102509190611195565b821115610292576040517f08c379a0000000000000000000000000000000000000000000000000000000008152600401610289906110f3565b60405180910390fd5b61029d600283610999565b9050919050565b60006102ae6109b3565b73ffffffffffffffffffffffffffffffffffffffff166102cc61076f565b73ffffffffffffffffffffffffffffffffffffffff1614610322576040517f08c379a0000000000000000000000000000000000000000000000000000000008152600401610319906110b3565b60405180910390fd5b600073ffffffffffffffffffffffffffffffffffffffff168273ffffffffffffffffffffffffffffffffffffffff161415610392576040517f08c379a0000000000000000000000000000000000000000000000000000000008152600401610389906110d3565b60405180910390fd5b8173ffffffffffffffffffffffffffffffffffffffff167fdc5a48d79e2e147530ff63ecdbed5a5a66adb9d5cf339384d5d076da197c40b560405160405180910390a26103e06002836109bb565b9050919050565b60006103f360026109eb565b905090565b60006104026109b3565b73ffffffffffffffffffffffffffffffffffffffff1661042061076f565b73ffffffffffffffffffffffffffffffffffffffff1614610476576040517f08c379a000000000000000000000000000000000000000000000000000000000815260040161046d906110b3565b60405180910390fd5b600073ffffffffffffffffffffffffffffffffffffffff168273ffffffffffffffffffffffffffffffffffffffff1614156104e6576040517f08c379a00000000000000000000000000000000000000000000000000000000081526004016104dd906110d3565b60405180910390fd5b8173ffffffffffffffffffffffffffffffffffffffff167fdfb04b8bae328825d688a202cf30ce1289a05ff288e4c6423074a0e3fc3a657060405160405180910390a2610534600283610a00565b9050919050565b600181565b6105486109b3565b73ffffffffffffffffffffffffffffffffffffffff1661056661076f565b73ffffffffffffffffffffffffffffffffffffffff16146105bc576040517f08c379a00000000000000000000000000000000000000000000000000000000081526004016105b3906110b3565b60405180910390fd5b6105c66000610a30565b565b6105d133610798565b8061060e57503373ffffffffffffffffffffffffffffffffffffffff166105f661076f565b73ffffffffffffffffffffffffffffffffffffffff16145b61064d576040517f08c379a000000000000000000000000000000000000000000000000000000000815260040161064490611093565b60405180910390fd5b6000600460008473ffffffffffffffffffffffffffffffffffffffff1673ffffffffffffffffffffffffffffffffffffffff16815260200190815260200160002060009054906101000a900473ffffffffffffffffffffffffffffffffffffffff16905081600460008573ffffffffffffffffffffffffffffffffffffffff1673ffffffffffffffffffffffffffffffffffffffff16815260200190815260200160002060006101000a81548173ffffffffffffffffffffffffffffffffffffffff021916908373ffffffffffffffffffffffffffffffffffffffff1602179055507f97242baefc75f869374c5abfee72379eadfc3af58091efbb56c84a07baba859983828460405161076293929190611001565b60405180910390a1505050565b60008060009054906101000a900473ffffffffffffffffffffffffffffffffffffffff16905090565b60006107a5600283610af4565b9050919050565b6107b46109b3565b73ffffffffffffffffffffffffffffffffffffffff166107d261076f565b73ffffffffffffffffffffffffffffffffffffffff1614610828576040517f08c379a000000000000000000000000000000000000000000000000000000000815260040161081f906110b3565b60405180910390fd5b600073ffffffffffffffffffffffffffffffffffffffff168173ffffffffffffffffffffffffffffffffffffffff161415610898576040517f08c379a000000000000000000000000000000000000000000000000000000000815260040161088f90611073565b60405180910390fd5b6108a181610a30565b50565b600080600460008473ffffffffffffffffffffffffffffffffffffffff1673ffffffffffffffffffffffffffffffffffffffff16815260200190815260200160002060009054906101000a900473ffffffffffffffffffffffffffffffffffffffff16905060008173ffffffffffffffffffffffffffffffffffffffff1663feaf968c6040518163ffffffff1660e01b815260040160a06040518083038186803b15801561095157600080fd5b505afa158015610965573d6000803e3d6000fd5b505050506040513d601f19601f820116820180604052508101906109899190610e6c565b5050509150508092505050919050565b60006109a88360000183610b24565b60001c905092915050565b600033905090565b60006109e3836000018373ffffffffffffffffffffffffffffffffffffffff1660001b610b98565b905092915050565b60006109f982600001610c08565b9050919050565b6000610a28836000018373ffffffffffffffffffffffffffffffffffffffff1660001b610c19565b905092915050565b60008060009054906101000a900473ffffffffffffffffffffffffffffffffffffffff169050816000806101000a81548173ffffffffffffffffffffffffffffffffffffffff021916908373ffffffffffffffffffffffffffffffffffffffff1602179055508173ffffffffffffffffffffffffffffffffffffffff168173ffffffffffffffffffffffffffffffffffffffff167f8be0079c531659141344cd1fd0a4f28419497f9722a3daafe3b4186f6b6457e060405160405180910390a35050565b6000610b1c836000018373ffffffffffffffffffffffffffffffffffffffff1660001b610d31565b905092915050565b600081836000018054905011610b6f576040517f08c379a0000000000000000000000000000000000000000000000000000000008152600401610b6690611053565b60405180910390fd5b826000018281548110610b8557610b846112a1565b5b9060005260206000200154905092915050565b6000610ba48383610d31565b610bfd578260000182908060018154018082558091505060019003906000526020600020016000909190919091505582600001805490508360010160008481526020019081526020016000208190555060019050610c02565b600090505b92915050565b600081600001805490509050919050565b60008083600101600084815260200190815260200160002054905060008114610d25576000600182610c4b9190611195565b9050600060018660000180549050610c639190611195565b90506000866000018281548110610c7d57610c7c6112a1565b5b9060005260206000200154905080876000018481548110610ca157610ca06112a1565b5b9060005260206000200181905550600183610cbc919061113f565b8760010160008381526020019081526020016000208190555086600001805480610ce957610ce8611272565b5b60019003818190600052602060002001600090559055866001016000878152602001908152602001600020600090556001945050505050610d2b565b60009150505b92915050565b600080836001016000848152602001908152602001600020541415905092915050565b600081359050610d6381611417565b92915050565b600081359050610d788161142e565b92915050565b600081519050610d8d81611445565b92915050565b600081359050610da28161145c565b92915050565b600081519050610db78161145c565b92915050565b600081519050610dcc81611473565b92915050565b600060208284031215610de857610de76112d0565b5b6000610df684828501610d54565b91505092915050565b60008060408385031215610e1657610e156112d0565b5b6000610e2485828601610d54565b9250506020610e3585828601610d69565b9150509250929050565b600060208284031215610e5557610e546112d0565b5b6000610e6384828501610d93565b91505092915050565b600080600080600060a08688031215610e8857610e876112d0565b5b6000610e9688828901610dbd565b9550506020610ea788828901610d7e565b9450506040610eb888828901610da8565b9350506060610ec988828901610da8565b9250506080610eda88828901610dbd565b9150509295509295909350565b610ef0816111c9565b82525050565b610eff816111db565b82525050565b6000610f1260228361112e565b9150610f1d826112d5565b604082019050919050565b6000610f3560268361112e565b9150610f4082611324565b604082019050919050565b6000610f58601a8361112e565b9150610f6382611373565b602082019050919050565b6000610f7b60208361112e565b9150610f868261139c565b602082019050919050565b6000610f9e601d8361112e565b9150610fa9826113c5565b602082019050919050565b6000610fc160138361112e565b9150610fcc826113ee565b602082019050919050565b610fe081611223565b82525050565b6000602082019050610ffb6000830184610ee7565b92915050565b60006060820190506110166000830186610ee7565b6110236020830185610ee7565b6110306040830184610ee7565b949350505050565b600060208201905061104d6000830184610ef6565b92915050565b6000602082019050818103600083015261106c81610f05565b9050919050565b6000602082019050818103600083015261108c81610f28565b9050919050565b600060208201905081810360008301526110ac81610f4b565b9050919050565b600060208201905081810360008301526110cc81610f6e565b9050919050565b600060208201905081810360008301526110ec81610f91565b9050919050565b6000602082019050818103600083015261110c81610fb4565b9050919050565b60006020820190506111286000830184610fd7565b92915050565b600082825260208201905092915050565b600061114a82611223565b915061115583611223565b9250827fffffffffffffffffffffffffffffffffffffffffffffffffffffffffffffffff0382111561118a57611189611243565b5b828201905092915050565b60006111a082611223565b91506111ab83611223565b9250828210156111be576111bd611243565b5b828203905092915050565b60006111d482611203565b9050919050565b60008115159050919050565b60006111f2826111c9565b9050919050565b6000819050919050565b600073ffffffffffffffffffffffffffffffffffffffff82169050919050565b6000819050919050565b600069ffffffffffffffffffff82169050919050565b7f4e487b7100000000000000000000000000000000000000000000000000000000600052601160045260246000fd5b7f4e487b7100000000000000000000000000000000000000000000000000000000600052603160045260246000fd5b7f4e487b7100000000000000000000000000000000000000000000000000000000600052603260045260246000fd5b600080fd5b7f456e756d657261626c655365743a20696e646578206f7574206f6620626f756e60008201527f6473000000000000000000000000000000000000000000000000000000000000602082015250565b7f4f776e61626c653a206e6577206f776e657220697320746865207a65726f206160008201527f6464726573730000000000000000000000000000000000000000000000000000602082015250565b7f63616c6c6572206973206e6f742074686520676f7665726e6f72000000000000600082015250565b7f4f776e61626c653a2063616c6c6572206973206e6f7420746865206f776e6572600082015250565b7f5f676f7665726e6f7220697320746865207a65726f2061646472657373000000600082015250565b7f696e646578206f7574206f6620626f756e647300000000000000000000000000600082015250565b611420816111c9565b811461142b57600080fd5b50565b611437816111e7565b811461144257600080fd5b50565b61144e816111f9565b811461145957600080fd5b50565b61146581611223565b811461147057600080fd5b50565b61147c8161122d565b811461148757600080fd5b5056fea2646970667358221220973da531989927931b43361b37982a240465d7881f8873a60080cfd781d32d0c64736f6c63430008070033"
  }
}