{"compiler":"v0.8.7+commit.e28d00a7","opcodeHash":"0x349f0a4787572184aee7b2a2fb38ce27d8e7e8592221eb9084095574bccc69c9","metalessHash":"0x71d1c79cc738e000ccb3c88f97f52a187ae1110e91f6bdd421e053b239fc7596","runtimeHash":"0x2c8e7680b357d4b9fd9b64a09e4d3b870c16b86ae06173228ee03b07250761f1","encodedMetadata":[{"ipfs":"/ipfs/QmXfzQJ2sNZcZf91jofuPRcu9xbnMfcXgDfWFBBc4fNuZQ","solc":"0.8.7"}],"abi":[{"inputs":[],"stateMutability":"nonpayable","type":"constructor"},{"anonymous":false,"inputs":[{"indexed":true,"internalType":"address","name":"owner","type":"address"},{"indexed":true,"internalType":"address","name":"spender","type":"address"},{"indexed":false,"internalType":"uint256","name":"value","type":"uint256"}],"name":"Approval","type":"event"},{"anonymous":false,"inputs":[{"indexed":true,"internalType":"address","name":"delegator","type":"address"},{"indexed":true,"internalType":"address","name":"fromDelegate","type":"address"},{"indexed":true,"internalType":"address","name":"toDelegate","type":"address"}],"name":"DelegateChanged","type":"event"},{"anonymous":false,"inputs":[{"indexed":true,"internalType":"address","name":"delegate","type":"address"},{"indexed":false,"internalType":"uint256","name":"previousBalance","type":"uint256"},{"indexed":false,"internalType":"uint256","name":"newBalance","type":"uint256"}],"name":"DelegateVotesChanged","type":"event"},{"anonymous":false,"inputs":[{"indexed":true,"internalType":"address","name":"from","type":"address"},{"indexed":true,"internalType":"address","name":"to","type":"address"},{"indexed":false,"internalType":"uint256","name":"value","type":"uint256"}],"name":"Transfer","type":"event"},{"inputs":[],"name":"DOMAIN_SEPARATOR","outputs":[{"internalType":"bytes32","name":"","type":"bytes32"}],"stateMutability":"view","type":"function"},{"inputs":[{"internalType":"address","name":"owner","type":"address"},{"internalType":"address","name":"spender","type":"address"}],"name":"allowance","outputs":[{"internalType":"uint256","name":"","type":"uint256"}],"stateMutability":"view","type":"function"},{"inputs":[{"internalType":"address","name":"spender","type":"address"},{"internalType":"uint256","name":"amount","type":"uint256"}],"name":"approve","outputs":[{"internalType":"bool","name":"","type":"bool"}],"stateMutability":"nonpayable","type":"function"},{"inputs":[{"internalType":"address","name":"account","type":"address"}],"name":"balanceOf","outputs":[{"internalType":"uint256","name":"","type":"uint256"}],"stateMutability":"view","type":"function"},{"inputs":[{"internalType":"address","name":"account","type":"address"},{"internalType":"uint32","name":"pos","type":"uint32"}],"name":"checkpoints","outputs":[{"components":[{"internalType":"uint32","name":"fromBlock","type":"uint32"},{"internalType":"uint224","name":"votes","type":"uint224"}],"internalType":"struct ERC20Votes.Checkpoint","name":"","type":"tuple"}],"stateMutability":"view","type":"function"},{"inputs":[],"name":"decimals","outputs":[{"internalType":"uint8","name":"","type":"uint8"}],"stateMutability":"view","type":"function"},{"inputs":[{"internalType":"address","name":"spender","type":"address"},{"internalType":"uint256","name":"subtractedValue","type":"uint256"}],"name":"decreaseAllowance","outputs":[{"internalType":"bool","name":"","type":"bool"}],"stateMutability":"nonpayable","type":"function"},{"inputs":[{"internalType":"address","name":"delegatee","type":"address"}],"name":"delegate","outputs":[],"stateMutability":"nonpayable","type":"function"},{"inputs":[{"internalType":"address","name":"delegatee","type":"address"},{"internalType":"uint256","name":"nonce","type":"uint256"},{"internalType":"uint256","name":"expiry","type":"uint256"},{"internalType":"uint8","name":"v","type":"uint8"},{"internalType":"bytes32","name":"r","type":"bytes32"},{"internalType":"bytes32","name":"s","type":"bytes32"}],"name":"delegateBySig","outputs":[],"stateMutability":"nonpayable","type":"function"},{"inputs":[{"internalType":"address","name":"account","type":"address"}],"name":"delegates","outputs":[{"internalType":"address","name":"","type":"address"}],"stateMutability":"view","type":"function"},{"inputs":[{"internalType":"uint256","name":"blockNumber","type":"uint256"}],"name":"getPastTotalSupply","outputs":[{"internalType":"uint256","name":"","type":"uint256"}],"stateMutability":"view","type":"function"},{"inputs":[{"internalType":"address","name":"account","type":"address"},{"internalType":"uint256","name":"blockNumber","type":"uint256"}],"name":"getPastVotes","outputs":[{"internalType":"uint256","name":"","type":"uint256"}],"stateMutability":"view","type":"function"},{"inputs":[{"internalType":"address","name":"account","type":"address"}],"name":"getVotes","outputs":[{"internalType":"uint256","name":"","type":"uint256"}],"stateMutability":"view","type":"function"},{"inputs":[{"internalType":"address","name":"spender","type":"address"},{"internalType":"uint256","name":"addedValue","type":"uint256"}],"name":"increaseAllowance","outputs":[{"internalType":"bool","name":"","type":"bool"}],"stateMutability":"nonpayable","type":"function"},{"inputs":[],"name":"name","outputs":[{"internalType":"string","name":"","type":"string"}],"stateMutability":"view","type":"function"},{"inputs":[{"internalType":"address","name":"owner","type":"address"}],"name":"nonces","outputs":[{"internalType":"uint256","name":"","type":"uint256"}],"stateMutability":"view","type":"function"},{"inputs":[{"internalType":"address","name":"account","type":"address"}],"name":"numCheckpoints","outputs":[{"internalType":"uint32","name":"","type":"uint32"}],"stateMutability":"view","type":"function"},{"inputs":[{"internalType":"address","name":"owner","type":"address"},{"internalType":"address","name":"spender","type":"address"},{"internalType":"uint256","name":"value","type":"uint256"},{"internalType":"uint256","name":"deadline","type":"uint256"},{"internalType":"uint8","name":"v","type":"uint8"},{"internalType":"bytes32","name":"r","type":"bytes32"},{"internalType":"bytes32","name":"s","type":"bytes32"}],"name":"permit","outputs":[],"stateMutability":"nonpayable","type":"function"},{"inputs":[],"name":"symbol","outputs":[{"internalType":"string","name":"","type":"string"}],"stateMutability":"view","type":"function"},{"inputs":[],"name":"totalSupply","outputs":[{"internalType":"uint256","name":"","type":"uint256"}],"stateMutability":"view","type":"function"},{"inputs":[{"internalType":"address","name":"recipient","type":"address"},{"internalType":"uint256","name":"amount","type":"uint256"}],"name":"transfer","outputs":[{"internalType":"bool","name":"","type":"bool"}],"stateMutability":"nonpayable","type":"function"},{"inputs":[{"internalType":"address","name":"sender","type":"address"},{"internalType":"address","name":"recipient","type":"address"},{"internalType":"uint256","name":"amount","type":"uint256"}],"name":"transferFrom","outputs":[{"internalType":"bool","name":"","type":"bool"}],"stateMutability":"nonpayable","type":"function"}],"bytecode":{"object":"6101606040527f6e71edae12b1b97f4d1f60370fef10105fa2faae0126114a169c64845d6126c9610140523480156200003757600080fd5b506040805180820182526003808252620574d560ec1b60208084018290528451808601865260018152603160f81b818301528551808701875284815280830184815287518089019098528588529287019390935282519495869591949092620000a09262000788565b508051620000b690600490602084019062000788565b5050825160208085019190912083518483012060e08290526101008190524660a0818152604080517f8b73c3c69bb8fe3d512ecc4cf759cc79239f7b179b0ffacaa9a75d522b39400f81880181905281830187905260608201869052608082019490945230818401528151808203909301835260c0019052805194019390932091935091906080523060601b60c05261012052506200018293503392506200015f915050601290565b6200016c90600a62000888565b6200017c906305f5e10062000947565b62000188565b620009ec565b6200019f8282620001a360201b62000abc1760201c565b5050565b620001ba82826200025a60201b62000b4c1760201c565b6001600160e01b03620001ce620003498216565b11156200023b5760405162461bcd60e51b815260206004820152603060248201527f4552433230566f7465733a20746f74616c20737570706c79207269736b73206f60448201526f766572666c6f77696e6720766f74657360801b60648201526084015b60405180910390fd5b62000254600862000c376200034f60201b178362000366565b50505050565b6001600160a01b038216620002b25760405162461bcd60e51b815260206004820152601f60248201527f45524332303a206d696e7420746f20746865207a65726f206164647265737300604482015260640162000232565b8060026000828254620002c6919062000824565b90915550506001600160a01b03821660009081526020819052604081208054839290620002f590849062000824565b90915550506040518181526001600160a01b038316906000907fddf252ad1be2c89b69c2b068fc378daa952ba7f163c4a11628f55a4df523b3ef9060200160405180910390a36200019f600083836200051d565b60025490565b60006200035d828462000824565b90505b92915050565b825460009081908015620003b857856200038260018362000969565b81548110620003955762000395620009d6565b60009182526020909120015464010000000090046001600160e01b0316620003bb565b60005b6001600160e01b03169250620003d283858760201c565b91506000811180156200041657504386620003ef60018462000969565b81548110620004025762000402620009d6565b60009182526020909120015463ffffffff16145b156200048a5762000432826200053560201b62000c431760201c565b866200044060018462000969565b81548110620004535762000453620009d6565b9060005260206000200160000160046101000a8154816001600160e01b0302191690836001600160e01b031602179055506200050f565b856040518060400160405280620004ac43620005a460201b62000cb01760201c565b63ffffffff168152602001620004cd856200053560201b62000c431760201c565b6001600160e01b0390811690915282546001810184556000938452602093849020835194909301519091166401000000000263ffffffff909316929092179101555b50935093915050565b505050565b620005188383836200060b60201b62000d151760201c565b60006001600160e01b03821115620005a05760405162461bcd60e51b815260206004820152602760248201527f53616665436173743a2076616c756520646f65736e27742066697420696e20326044820152663234206269747360c81b606482015260840162000232565b5090565b600063ffffffff821115620005a05760405162461bcd60e51b815260206004820152602660248201527f53616665436173743a2076616c756520646f65736e27742066697420696e203360448201526532206269747360d01b606482015260840162000232565b620006238383836200051860201b62000d471760201c565b6001600160a01b038381166000908152600660205260408082205485841683529120546200051892918216911683818314801590620006625750600081115b1562000518576001600160a01b03831615620006ef576001600160a01b038316600090815260076020908152604082208291620006ac91906200077a901b62000d4c178562000366565b91509150846001600160a01b0316600080516020620026688339815191528383604051620006e4929190918252602082015260400190565b60405180910390a250505b6001600160a01b0382161562000518576001600160a01b0382166000908152600760209081526040822082916200073391906200034f901b62000c37178562000366565b91509150836001600160a01b03166000805160206200266883398151915283836040516200076b929190918252602082015260400190565b60405180910390a25050505050565b60006200035d828462000969565b828054620007969062000983565b90600052602060002090601f016020900481019282620007ba576000855562000805565b82601f10620007d557805160ff191683800117855562000805565b8280016001018555821562000805579182015b8281111562000805578251825591602001919060010190620007e8565b50620005a09291505b80821115620005a057600081556001016200080e565b600082198211156200083a576200083a620009c0565b500190565b600181815b8085111562000880578160001904821115620008645762000864620009c0565b808516156200087257918102915b93841c939080029062000844565b509250929050565b60006200035d60ff841683600082620008a45750600162000360565b81620008b35750600062000360565b8160018114620008cc5760028114620008d757620008f7565b600191505062000360565b60ff841115620008eb57620008eb620009c0565b50506001821b62000360565b5060208310610133831016604e8410600b84101617156200091c575081810a62000360565b6200092883836200083f565b80600019048211156200093f576200093f620009c0565b029392505050565b6000816000190483118215151615620009645762000964620009c0565b500290565b6000828210156200097e576200097e620009c0565b500390565b600181811c908216806200099857607f821691505b60208210811415620009ba57634e487b7160e01b600052602260045260246000fd5b50919050565b634e487b7160e01b600052601160045260246000fd5b634e487b7160e01b600052603260045260246000fd5b60805160a05160c05160601c60e051610100516101205161014051611c1e62000a4a6000396000610928015260006110da01526000611129015260006111040152600061105d01526000611087015260006110b10152611c1e6000f3fe608060405234801561001057600080fd5b50600436106101425760003560e01c806370a08231116100b8578063a457c2d71161007c578063a457c2d7146102d5578063a9059cbb146102e8578063c3cda520146102fb578063d505accf1461030e578063dd62ed3e14610321578063f1127ed81461035a57600080fd5b806370a082311461026b5780637ecebe00146102945780638e539e8c146102a757806395d89b41146102ba5780639ab24eb0146102c257600080fd5b80633644e5151161010a5780633644e515146101bc57806339509351146101c45780633a46b1a8146101d7578063587cde1e146101ea5780635c19a95c1461022e5780636fcfff451461024357600080fd5b806306fdde0314610147578063095ea7b31461016557806318160ddd1461018857806323b872dd1461019a578063313ce567146101ad575b600080fd5b61014f610397565b60405161015c9190611acb565b60405180910390f35b6101786101733660046119f0565b610429565b604051901515815260200161015c565b6002545b60405190815260200161015c565b6101786101a836600461194a565b61043f565b6040516012815260200161015c565b61018c6104ee565b6101786101d23660046119f0565b6104fd565b61018c6101e53660046119f0565b610539565b6102166101f83660046118fc565b6001600160a01b039081166000908152600660205260409020541690565b6040516001600160a01b03909116815260200161015c565b61024161023c3660046118fc565b6105b3565b005b6102566102513660046118fc565b6105c0565b60405163ffffffff909116815260200161015c565b61018c6102793660046118fc565b6001600160a01b031660009081526020819052604090205490565b61018c6102a23660046118fc565b6105e8565b61018c6102b5366004611ab2565b610606565b61014f610662565b61018c6102d03660046118fc565b610671565b6101786102e33660046119f0565b6106f8565b6101786102f63660046119f0565b610791565b610241610309366004611a1a565b61079e565b61024161031c366004611986565b6108d4565b61018c61032f366004611917565b6001600160a01b03918216600090815260016020908152604080832093909416825291909152205490565b61036d610368366004611a72565b610a38565b60408051825163ffffffff1681526020928301516001600160e01b0316928101929092520161015c565b6060600380546103a690611b71565b80601f01602080910402602001604051908101604052809291908181526020018280546103d290611b71565b801561041f5780601f106103f45761010080835404028352916020019161041f565b820191906000526020600020905b81548152906001019060200180831161040257829003601f168201915b5050505050905090565b6000610436338484610d58565b50600192915050565b600061044c848484610e7c565b6001600160a01b0384166000908152600160209081526040808320338452909152902054828110156104d65760405162461bcd60e51b815260206004820152602860248201527f45524332303a207472616e7366657220616d6f756e74206578636565647320616044820152676c6c6f77616e636560c01b60648201526084015b60405180910390fd5b6104e38533858403610d58565b506001949350505050565b60006104f8611050565b905090565b3360008181526001602090815260408083206001600160a01b03871684529091528120549091610436918590610534908690611b20565b610d58565b600043821061058a5760405162461bcd60e51b815260206004820152601f60248201527f4552433230566f7465733a20626c6f636b206e6f7420796574206d696e65640060448201526064016104cd565b6001600160a01b03831660009081526007602052604090206105ac9083611177565b9392505050565b6105bd3382611234565b50565b6001600160a01b0381166000908152600760205260408120546105e290610cb0565b92915050565b6001600160a01b0381166000908152600560205260408120546105e2565b60004382106106575760405162461bcd60e51b815260206004820152601f60248201527f4552433230566f7465733a20626c6f636b206e6f7420796574206d696e65640060448201526064016104cd565b6105e2600883611177565b6060600480546103a690611b71565b6001600160a01b03811660009081526007602052604081205480156106e5576001600160a01b03831660009081526007602052604090206106b3600183611b5a565b815481106106c3576106c3611bd2565b60009182526020909120015464010000000090046001600160e01b03166106e8565b60005b6001600160e01b03169392505050565b3360009081526001602090815260408083206001600160a01b03861684529091528120548281101561077a5760405162461bcd60e51b815260206004820152602560248201527f45524332303a2064656372656173656420616c6c6f77616e63652062656c6f77604482015264207a65726f60d81b60648201526084016104cd565b6107873385858403610d58565b5060019392505050565b6000610436338484610e7c565b834211156107ee5760405162461bcd60e51b815260206004820152601d60248201527f4552433230566f7465733a207369676e6174757265206578706972656400000060448201526064016104cd565b604080517fe48329057bfd03d55e49b547132e39cffd9c1820ad7b9d4c5307691425d15adf60208201526001600160a01b038816918101919091526060810186905260808101859052600090610868906108609060a001604051602081830303815290604052805190602001206112ad565b8585856112fb565b905061087381611323565b86146108c15760405162461bcd60e51b815260206004820152601960248201527f4552433230566f7465733a20696e76616c6964206e6f6e63650000000000000060448201526064016104cd565b6108cb8188611234565b50505050505050565b834211156109245760405162461bcd60e51b815260206004820152601d60248201527f45524332305065726d69743a206578706972656420646561646c696e6500000060448201526064016104cd565b60007f00000000000000000000000000000000000000000000000000000000000000008888886109538c611323565b6040805160208101969096526001600160a01b0394851690860152929091166060840152608083015260a082015260c0810186905260e00160405160208183030381529060405280519060200120905060006109ae826112ad565b905060006109be828787876112fb565b9050896001600160a01b0316816001600160a01b031614610a215760405162461bcd60e51b815260206004820152601e60248201527f45524332305065726d69743a20696e76616c6964207369676e6174757265000060448201526064016104cd565b610a2c8a8a8a610d58565b50505050505050505050565b60408051808201909152600080825260208201526001600160a01b0383166000908152600760205260409020805463ffffffff8416908110610a7c57610a7c611bd2565b60009182526020918290206040805180820190915291015463ffffffff8116825264010000000090046001600160e01b0316918101919091529392505050565b610ac68282610b4c565b6002546001600160e01b031015610b385760405162461bcd60e51b815260206004820152603060248201527f4552433230566f7465733a20746f74616c20737570706c79207269736b73206f60448201526f766572666c6f77696e6720766f74657360801b60648201526084016104cd565b610b466008610c378361134b565b50505050565b6001600160a01b038216610ba25760405162461bcd60e51b815260206004820152601f60248201527f45524332303a206d696e7420746f20746865207a65726f20616464726573730060448201526064016104cd565b8060026000828254610bb49190611b20565b90915550506001600160a01b03821660009081526020819052604081208054839290610be1908490611b20565b90915550506040518181526001600160a01b038316906000907fddf252ad1be2c89b69c2b068fc378daa952ba7f163c4a11628f55a4df523b3ef9060200160405180910390a3610c33600083836114c4565b5050565b60006105ac8284611b20565b60006001600160e01b03821115610cac5760405162461bcd60e51b815260206004820152602760248201527f53616665436173743a2076616c756520646f65736e27742066697420696e20326044820152663234206269747360c81b60648201526084016104cd565b5090565b600063ffffffff821115610cac5760405162461bcd60e51b815260206004820152602660248201527f53616665436173743a2076616c756520646f65736e27742066697420696e203360448201526532206269747360d01b60648201526084016104cd565b6001600160a01b03838116600090815260066020526040808220548584168352912054610d47929182169116836114cf565b505050565b60006105ac8284611b5a565b6001600160a01b038316610dba5760405162461bcd60e51b8152602060048201526024808201527f45524332303a20617070726f76652066726f6d20746865207a65726f206164646044820152637265737360e01b60648201526084016104cd565b6001600160a01b038216610e1b5760405162461bcd60e51b815260206004820152602260248201527f45524332303a20617070726f766520746f20746865207a65726f206164647265604482015261737360f01b60648201526084016104cd565b6001600160a01b0383811660008181526001602090815260408083209487168084529482529182902085905590518481527f8c5be1e5ebec7d5bd14f71427d1e84f3dd0314c0f7b2291e5b200ac8c7c3b925910160405180910390a3505050565b6001600160a01b038316610ee05760405162461bcd60e51b815260206004820152602560248201527f45524332303a207472616e736665722066726f6d20746865207a65726f206164604482015264647265737360d81b60648201526084016104cd565b6001600160a01b038216610f425760405162461bcd60e51b815260206004820152602360248201527f45524332303a207472616e7366657220746f20746865207a65726f206164647260448201526265737360e81b60648201526084016104cd565b6001600160a01b03831660009081526020819052604090205481811015610fba5760405162461bcd60e51b815260206004820152602660248201527f45524332303a207472616e7366657220616d6f756e7420657863656564732062604482015265616c616e636560d01b60648201526084016104cd565b6001600160a01b03808516600090815260208190526040808220858503905591851681529081208054849290610ff1908490611b20565b92505081905550826001600160a01b0316846001600160a01b03167fddf252ad1be2c89b69c2b068fc378daa952ba7f163c4a11628f55a4df523b3ef8460405161103d91815260200190565b60405180910390a3610b468484846114c4565b6000306001600160a01b037f0000000000000000000000000000000000000000000000000000000000000000161480156110a957507f000000000000000000000000000000000000000000000000000000000000000046145b156110d357507f000000000000000000000000000000000000000000000000000000000000000090565b50604080517f00000000000000000000000000000000000000000000000000000000000000006020808301919091527f0000000000000000000000000000000000000000000000000000000000000000828401527f000000000000000000000000000000000000000000000000000000000000000060608301524660808301523060a0808401919091528351808403909101815260c0909201909252805191012090565b8154600090815b818110156111db576000611192828461160c565b9050848682815481106111a7576111a7611bd2565b60009182526020909120015463ffffffff1611156111c7578092506111d5565b6111d2816001611b20565b91505b5061117e565b811561121f57846111ed600184611b5a565b815481106111fd576111fd611bd2565b60009182526020909120015464010000000090046001600160e01b0316611222565b60005b6001600160e01b031695945050505050565b6001600160a01b038281166000818152600660208181526040808420805485845282862054949093528787166001600160a01b03198416811790915590519190951694919391928592917f3134e8a2e6d97e929a7e54011ea5485d7d196dd5f0ba4d4ef95803e8e3fc257f9190a4610b468284836114cf565b60006105e26112ba611050565b8360405161190160f01b6020820152602281018390526042810182905260009060620160405160208183030381529060405280519060200120905092915050565b600080600061130c87878787611627565b9150915061131981611714565b5095945050505050565b6001600160a01b03811660009081526005602052604090208054600181018255905b50919050565b8254600090819080156113965785611364600183611b5a565b8154811061137457611374611bd2565b60009182526020909120015464010000000090046001600160e01b0316611399565b60005b6001600160e01b031692506113b283858763ffffffff16565b91506000811180156113f0575043866113cc600184611b5a565b815481106113dc576113dc611bd2565b60009182526020909120015463ffffffff16145b15611450576113fe82610c43565b8661140a600184611b5a565b8154811061141a5761141a611bd2565b9060005260206000200160000160046101000a8154816001600160e01b0302191690836001600160e01b031602179055506114bb565b85604051806040016040528061146543610cb0565b63ffffffff16815260200161147985610c43565b6001600160e01b0390811690915282546001810184556000938452602093849020835194909301519091166401000000000263ffffffff909316929092179101555b50935093915050565b610d47838383610d15565b816001600160a01b0316836001600160a01b0316141580156114f15750600081115b15610d47576001600160a01b0383161561157f576001600160a01b0383166000908152600760205260408120819061152c90610d4c8561134b565b91509150846001600160a01b03167fdec2bacdd2f05b59de34da9b523dff8be42e5e38e818c82fdb0bae774387a7248383604051611574929190918252602082015260400190565b60405180910390a250505b6001600160a01b03821615610d47576001600160a01b038216600090815260076020526040812081906115b590610c378561134b565b91509150836001600160a01b03167fdec2bacdd2f05b59de34da9b523dff8be42e5e38e818c82fdb0bae774387a72483836040516115fd929190918252602082015260400190565b60405180910390a25050505050565b600061161b6002848418611b38565b6105ac90848416611b20565b6000807f7fffffffffffffffffffffffffffffff5d576e7357a4501ddfe92f46681b20a083111561165e575060009050600361170b565b8460ff16601b1415801561167657508460ff16601c14155b15611687575060009050600461170b565b6040805160008082526020820180845289905260ff881692820192909252606081018690526080810185905260019060a0016020604051602081039080840390855afa1580156116db573d6000803e3d6000fd5b5050604051601f1901519150506001600160a01b0381166117045760006001925092505061170b565b9150600090505b94509492505050565b600081600481111561172857611728611bbc565b14156117315750565b600181600481111561174557611745611bbc565b14156117935760405162461bcd60e51b815260206004820152601860248201527f45434453413a20696e76616c6964207369676e6174757265000000000000000060448201526064016104cd565b60028160048111156117a7576117a7611bbc565b14156117f55760405162461bcd60e51b815260206004820152601f60248201527f45434453413a20696e76616c6964207369676e6174757265206c656e6774680060448201526064016104cd565b600381600481111561180957611809611bbc565b14156118625760405162461bcd60e51b815260206004820152602260248201527f45434453413a20696e76616c6964207369676e6174757265202773272076616c604482015261756560f01b60648201526084016104cd565b600481600481111561187657611876611bbc565b14156105bd5760405162461bcd60e51b815260206004820152602260248201527f45434453413a20696e76616c6964207369676e6174757265202776272076616c604482015261756560f01b60648201526084016104cd565b80356001600160a01b03811681146118e657600080fd5b919050565b803560ff811681146118e657600080fd5b60006020828403121561190e57600080fd5b6105ac826118cf565b6000806040838503121561192a57600080fd5b611933836118cf565b9150611941602084016118cf565b90509250929050565b60008060006060848603121561195f57600080fd5b611968846118cf565b9250611976602085016118cf565b9150604084013590509250925092565b600080600080600080600060e0888a0312156119a157600080fd5b6119aa886118cf565b96506119b8602089016118cf565b955060408801359450606088013593506119d4608089016118eb565b925060a0880135915060c0880135905092959891949750929550565b60008060408385031215611a0357600080fd5b611a0c836118cf565b946020939093013593505050565b60008060008060008060c08789031215611a3357600080fd5b611a3c876118cf565b95506020870135945060408701359350611a58606088016118eb565b92506080870135915060a087013590509295509295509295565b60008060408385031215611a8557600080fd5b611a8e836118cf565b9150602083013563ffffffff81168114611aa757600080fd5b809150509250929050565b600060208284031215611ac457600080fd5b5035919050565b600060208083528351808285015260005b81811015611af857858101830151858201604001528201611adc565b81811115611b0a576000604083870101525b50601f01601f1916929092016040019392505050565b60008219821115611b3357611b33611ba6565b500190565b600082611b5557634e487b7160e01b600052601260045260246000fd5b500490565b600082821015611b6c57611b6c611ba6565b500390565b600181811c90821680611b8557607f821691505b6020821081141561134557634e487b7160e01b600052602260045260246000fd5b634e487b7160e01b600052601160045260246000fd5b634e487b7160e01b600052602160045260246000fd5b634e487b7160e01b600052603260045260246000fdfea2646970667358221220dc924e911444ea7cc4c81fcf8a202bdedd6565e12466962247e98caa885fbc5964736f6c63430008070033dec2bacdd2f05b59de34da9b523dff8be42e5e38e818c82fdb0bae774387a724"}}