{"compiler":"v0.5.16+commit.9c3226ce","opcodeHash":"0x576872cc3d1af7f4dae488586ae02d18466b5c49dfdf5cea291b8d1a4d93ba48","metalessHash":"0x35f7535358f36cf1eeee3d54baae2889009dbe72a5d3604961350468ed16dc81","runtimeHash":"0x595f55b4ce61594478d27117020d337b4daeff4687e1e116dd41e06fcf064a55","encodedMetadata":[{"bzzr1":"/swarm/bzzr1/16682c689614e27f73f7adc02680ccbdaea89db88d1292a1cd31a9fabe93a338","solc":"0.5.16"}],"abi":[{"anonymous":false,"inputs":[{"indexed":true,"internalType":"address","name":"owner","type":"address"},{"indexed":true,"internalType":"address","name":"spender","type":"address"},{"indexed":false,"internalType":"uint256","name":"value","type":"uint256"}],"name":"Approval","type":"event"},{"anonymous":false,"inputs":[{"indexed":true,"internalType":"address","name":"_user","type":"address"},{"indexed":false,"internalType":"uint256","name":"_amount","type":"uint256"}],"name":"DepositedETH","type":"event"},{"anonymous":false,"inputs":[{"indexed":false,"internalType":"uint256","name":"oldValue","type":"uint256"},{"indexed":false,"internalType":"uint256","name":"newValue","type":"uint256"}],"name":"IncomeRateChanged","type":"event"},{"anonymous":false,"inputs":[{"indexed":true,"internalType":"address","name":"previousOwner","type":"address"},{"indexed":true,"internalType":"address","name":"newOwner","type":"address"}],"name":"OwnershipTransferred","type":"event"},{"anonymous":false,"inputs":[{"indexed":true,"internalType":"address","name":"previousSetter","type":"address"},{"indexed":true,"internalType":"address","name":"newSetter","type":"address"}],"name":"ParamSetterChanged","type":"event"},{"anonymous":false,"inputs":[],"name":"Paused","type":"event"},{"anonymous":false,"inputs":[{"indexed":false,"internalType":"uint256","name":"reward","type":"uint256"}],"name":"RewardAdded","type":"event"},{"anonymous":false,"inputs":[{"indexed":false,"internalType":"uint256","name":"oldValue","type":"uint256"},{"indexed":false,"internalType":"uint256","name":"newValue","type":"uint256"}],"name":"RewardRateChanged","type":"event"},{"anonymous":false,"inputs":[{"indexed":true,"internalType":"address","name":"from","type":"address"},{"indexed":true,"internalType":"address","name":"to","type":"address"},{"indexed":false,"internalType":"uint256","name":"value","type":"uint256"}],"name":"Transfer","type":"event"},{"anonymous":false,"inputs":[],"name":"Unpaused","type":"event"},{"payable":true,"stateMutability":"payable","type":"fallback"},{"constant":true,"inputs":[],"name":"DOMAIN_SEPARATOR","outputs":[{"internalType":"bytes32","name":"","type":"bytes32"}],"payable":false,"stateMutability":"view","type":"function"},{"constant":true,"inputs":[],"name":"PERMIT_TYPEHASH","outputs":[{"internalType":"bytes32","name":"","type":"bytes32"}],"payable":false,"stateMutability":"view","type":"function"},{"constant":false,"inputs":[{"internalType":"uint256","name":"hashRate","type":"uint256"}],"name":"addHashRate","outputs":[],"payable":false,"stateMutability":"nonpayable","type":"function"},{"constant":true,"inputs":[{"internalType":"address","name":"","type":"address"},{"internalType":"address","name":"","type":"address"}],"name":"allowance","outputs":[{"internalType":"uint256","name":"","type":"uint256"}],"payable":false,"stateMutability":"view","type":"function"},{"constant":false,"inputs":[{"internalType":"address","name":"spender","type":"address"},{"internalType":"uint256","name":"value","type":"uint256"}],"name":"approve","outputs":[{"internalType":"bool","name":"","type":"bool"}],"payable":false,"stateMutability":"nonpayable","type":"function"},{"constant":true,"inputs":[{"internalType":"address","name":"","type":"address"}],"name":"balanceOf","outputs":[{"internalType":"uint256","name":"","type":"uint256"}],"payable":false,"stateMutability":"view","type":"function"},{"constant":false,"inputs":[{"internalType":"address","name":"to","type":"address"},{"internalType":"uint256","name":"amount","type":"uint256"}],"name":"claimIncome","outputs":[],"payable":true,"stateMutability":"payable","type":"function"},{"constant":false,"inputs":[{"internalType":"address","name":"to","type":"address"},{"internalType":"uint256","name":"amount","type":"uint256"}],"name":"claimReward","outputs":[],"payable":false,"stateMutability":"nonpayable","type":"function"},{"constant":true,"inputs":[],"name":"countStaking","outputs":[{"internalType":"uint256","name":"","type":"uint256"}],"payable":false,"stateMutability":"view","type":"function"},{"constant":true,"inputs":[],"name":"decimals","outputs":[{"internalType":"uint8","name":"","type":"uint8"}],"payable":false,"stateMutability":"view","type":"function"},{"constant":false,"inputs":[],"name":"depositeETH","outputs":[],"payable":true,"stateMutability":"payable","type":"function"},{"constant":true,"inputs":[],"name":"depreciationNumerator","outputs":[{"internalType":"uint256","name":"","type":"uint256"}],"payable":false,"stateMutability":"view","type":"function"},{"constant":true,"inputs":[],"name":"elecPowerPerTHSec","outputs":[{"internalType":"uint256","name":"","type":"uint256"}],"payable":false,"stateMutability":"view","type":"function"},{"constant":true,"inputs":[],"name":"electricCharge","outputs":[{"internalType":"uint256","name":"","type":"uint256"}],"payable":false,"stateMutability":"view","type":"function"},{"constant":true,"inputs":[{"internalType":"address","name":"_pool","type":"address"}],"name":"foundStaking","outputs":[{"internalType":"bool","name":"","type":"bool"}],"payable":false,"stateMutability":"view","type":"function"},{"constant":true,"inputs":[],"name":"getCurWorkingRate","outputs":[{"internalType":"uint256","name":"","type":"uint256"}],"payable":false,"stateMutability":"view","type":"function"},{"constant":true,"inputs":[],"name":"getHistoryWorkingRate","outputs":[{"internalType":"uint256","name":"","type":"uint256"}],"payable":false,"stateMutability":"view","type":"function"},{"constant":true,"inputs":[],"name":"getIncomeMineInWeiPerSec","outputs":[{"internalType":"uint256","name":"","type":"uint256"}],"payable":false,"stateMutability":"view","type":"function"},{"constant":true,"inputs":[{"internalType":"address","name":"_pool","type":"address"}],"name":"getLpStakingReserve","outputs":[{"internalType":"uint256","name":"","type":"uint256"}],"payable":false,"stateMutability":"view","type":"function"},{"constant":true,"inputs":[{"internalType":"address","name":"_pool","type":"address"}],"name":"getLpStakingSupply","outputs":[{"internalType":"uint256","name":"","type":"uint256"}],"payable":false,"stateMutability":"view","type":"function"},{"constant":true,"inputs":[{"internalType":"address","name":"_pool","type":"address"}],"name":"getLpStakingsReserve","outputs":[{"internalType":"uint256","name":"","type":"uint256"},{"internalType":"uint256","name":"","type":"uint256"}],"payable":false,"stateMutability":"view","type":"function"},{"constant":true,"inputs":[],"name":"getPowerConsumptionMineInWeiPerSec","outputs":[{"internalType":"uint256","name":"","type":"uint256"}],"payable":false,"stateMutability":"view","type":"function"},{"constant":true,"inputs":[{"internalType":"address","name":"_pair","type":"address"}],"name":"getReserveFromLp","outputs":[{"internalType":"uint256","name":"","type":"uint256"}],"payable":false,"stateMutability":"view","type":"function"},{"constant":true,"inputs":[{"internalType":"uint256","name":"reward","type":"uint256"}],"name":"getRewardRateByReward","outputs":[{"internalType":"uint256","name":"","type":"uint256"}],"payable":false,"stateMutability":"view","type":"function"},{"constant":true,"inputs":[{"internalType":"address","name":"_pool","type":"address"}],"name":"getStakingRewardRate","outputs":[{"internalType":"uint256","name":"","type":"uint256"}],"payable":false,"stateMutability":"view","type":"function"},{"constant":false,"inputs":[{"internalType":"address","name":"_token","type":"address"},{"internalType":"uint256","name":"_amount","type":"uint256"}],"name":"inCaseTokensGetStuck","outputs":[],"payable":false,"stateMutability":"nonpayable","type":"function"},{"constant":true,"inputs":[],"name":"incomeRate","outputs":[{"internalType":"uint256","name":"","type":"uint256"}],"payable":false,"stateMutability":"view","type":"function"},{"constant":true,"inputs":[],"name":"incomeToken","outputs":[{"internalType":"address","name":"","type":"address"}],"payable":false,"stateMutability":"view","type":"function"},{"constant":false,"inputs":[{"internalType":"string","name":"name","type":"string"},{"internalType":"string","name":"symbol","type":"string"},{"internalType":"address","name":"_stakingPool","type":"address"},{"internalType":"address","name":"_lpStakingPool","type":"address"},{"internalType":"address","name":"_lpStakingPool2","type":"address"},{"internalType":"address","name":"_minter","type":"address"},{"internalType":"address","name":"_mineParam","type":"address"},{"internalType":"address","name":"_incomeToken","type":"address"},{"internalType":"address","name":"_rewardsToken","type":"address"},{"internalType":"address","name":"_treasury","type":"address"},{"internalType":"uint256","name":"_elecPowerPerTHSec","type":"uint256"},{"internalType":"uint256","name":"_electricCharge","type":"uint256"},{"internalType":"uint256","name":"_minerPoolFeeNumerator","type":"uint256"},{"internalType":"uint256","name":"_totalHashRate","type":"uint256"}],"name":"initialize","outputs":[],"payable":false,"stateMutability":"nonpayable","type":"function"},{"constant":true,"inputs":[{"internalType":"address","name":"_pool","type":"address"}],"name":"isStakingPool","outputs":[{"internalType":"bool","name":"","type":"bool"}],"payable":false,"stateMutability":"view","type":"function"},{"constant":true,"inputs":[{"internalType":"address","name":"","type":"address"}],"name":"lpStakingIncomeWeight","outputs":[{"internalType":"uint256","name":"","type":"uint256"}],"payable":false,"stateMutability":"view","type":"function"},{"constant":true,"inputs":[],"name":"lpStakingIncomeWeightTotal","outputs":[{"internalType":"uint256","name":"","type":"uint256"}],"payable":false,"stateMutability":"view","type":"function"},{"constant":true,"inputs":[],"name":"mineParam","outputs":[{"internalType":"address","name":"","type":"address"}],"payable":false,"stateMutability":"view","type":"function"},{"constant":true,"inputs":[],"name":"minerPoolFeeNumerator","outputs":[{"internalType":"uint256","name":"","type":"uint256"}],"payable":false,"stateMutability":"view","type":"function"},{"constant":false,"inputs":[{"internalType":"address","name":"to","type":"address"},{"internalType":"uint256","name":"value","type":"uint256"}],"name":"mint","outputs":[],"payable":false,"stateMutability":"nonpayable","type":"function"},{"constant":true,"inputs":[],"name":"minter","outputs":[{"internalType":"address","name":"","type":"address"}],"payable":false,"stateMutability":"view","type":"function"},{"constant":true,"inputs":[],"name":"name","outputs":[{"internalType":"string","name":"","type":"string"}],"payable":false,"stateMutability":"view","type":"function"},{"constant":true,"inputs":[{"internalType":"address","name":"","type":"address"}],"name":"nonces","outputs":[{"internalType":"uint256","name":"","type":"uint256"}],"payable":false,"stateMutability":"view","type":"function"},{"constant":false,"inputs":[{"internalType":"uint256","name":"reward","type":"uint256"}],"name":"notifyRewardAmount","outputs":[],"payable":false,"stateMutability":"nonpayable","type":"function"},{"constant":true,"inputs":[],"name":"owner","outputs":[{"internalType":"address","name":"","type":"address"}],"payable":false,"stateMutability":"view","type":"function"},{"constant":true,"inputs":[],"name":"paramSetter","outputs":[{"internalType":"address","name":"","type":"address"}],"payable":false,"stateMutability":"view","type":"function"},{"constant":false,"inputs":[],"name":"pause","outputs":[],"payable":false,"stateMutability":"nonpayable","type":"function"},{"constant":true,"inputs":[],"name":"paused","outputs":[{"internalType":"bool","name":"","type":"bool"}],"payable":false,"stateMutability":"view","type":"function"},{"constant":false,"inputs":[{"internalType":"address","name":"owner","type":"address"},{"internalType":"address","name":"spender","type":"address"},{"internalType":"uint256","name":"value","type":"uint256"},{"internalType":"uint256","name":"deadline","type":"uint256"},{"internalType":"uint8","name":"v","type":"uint8"},{"internalType":"bytes32","name":"r","type":"bytes32"},{"internalType":"bytes32","name":"s","type":"bytes32"}],"name":"permit","outputs":[],"payable":false,"stateMutability":"nonpayable","type":"function"},{"constant":true,"inputs":[],"name":"remainingAmount","outputs":[{"internalType":"uint256","name":"","type":"uint256"}],"payable":false,"stateMutability":"view","type":"function"},{"constant":true,"inputs":[],"name":"rewardPeriodFinish","outputs":[{"internalType":"uint256","name":"","type":"uint256"}],"payable":false,"stateMutability":"view","type":"function"},{"constant":true,"inputs":[],"name":"rewardRate","outputs":[{"internalType":"uint256","name":"","type":"uint256"}],"payable":false,"stateMutability":"view","type":"function"},{"constant":true,"inputs":[],"name":"rewardsDuration","outputs":[{"internalType":"uint256","name":"","type":"uint256"}],"payable":false,"stateMutability":"view","type":"function"},{"constant":true,"inputs":[],"name":"rewardsToken","outputs":[{"internalType":"address","name":"","type":"address"}],"payable":false,"stateMutability":"view","type":"function"},{"constant":false,"inputs":[{"internalType":"uint256","name":"_depreciationNumerator","type":"uint256"}],"name":"setDepreciationNumerator","outputs":[],"payable":false,"stateMutability":"nonpayable","type":"function"},{"constant":false,"inputs":[{"internalType":"uint256","name":"_electricCharge","type":"uint256"}],"name":"setElectricCharge","outputs":[],"payable":false,"stateMutability":"nonpayable","type":"function"},{"constant":false,"inputs":[{"internalType":"address","name":"_pool","type":"address"},{"internalType":"uint256","name":"_value","type":"uint256"}],"name":"setLpStakingIncomeWeight","outputs":[],"payable":false,"stateMutability":"nonpayable","type":"function"},{"constant":false,"inputs":[{"internalType":"address[]","name":"_pools","type":"address[]"},{"internalType":"uint256[]","name":"_values","type":"uint256[]"}],"name":"setLpStakingIncomeWeights","outputs":[],"payable":false,"stateMutability":"nonpayable","type":"function"},{"constant":false,"inputs":[{"internalType":"address","name":"_mineParam","type":"address"}],"name":"setMineParam","outputs":[],"payable":false,"stateMutability":"nonpayable","type":"function"},{"constant":false,"inputs":[{"internalType":"uint256","name":"_minerPoolFeeNumerator","type":"uint256"}],"name":"setMinerPoolFeeNumerator","outputs":[],"payable":false,"stateMutability":"nonpayable","type":"function"},{"constant":false,"inputs":[{"internalType":"address","name":"_minter","type":"address"}],"name":"setMinter","outputs":[],"payable":false,"stateMutability":"nonpayable","type":"function"},{"constant":false,"inputs":[{"internalType":"address","name":"_paramSetter","type":"address"}],"name":"setParamSetter","outputs":[],"payable":false,"stateMutability":"nonpayable","type":"function"},{"constant":false,"inputs":[{"internalType":"uint256","name":"_rewardRate","type":"uint256"}],"name":"setRewardRate","outputs":[],"payable":false,"stateMutability":"nonpayable","type":"function"},{"constant":false,"inputs":[{"internalType":"address","name":"_pool","type":"address"},{"internalType":"uint256","name":"_value","type":"uint256"}],"name":"setStakingPool","outputs":[],"payable":false,"stateMutability":"nonpayable","type":"function"},{"constant":false,"inputs":[{"internalType":"address[]","name":"_pools","type":"address[]"},{"internalType":"uint256[]","name":"_values","type":"uint256[]"}],"name":"setStakingPools","outputs":[],"payable":false,"stateMutability":"nonpayable","type":"function"},{"constant":false,"inputs":[{"internalType":"address","name":"_pool","type":"address"},{"internalType":"uint256","name":"_value","type":"uint256"}],"name":"setStakingRewardWeight","outputs":[],"payable":false,"stateMutability":"nonpayable","type":"function"},{"constant":false,"inputs":[{"internalType":"address[]","name":"_pools","type":"address[]"},{"internalType":"uint256[]","name":"_values","type":"uint256[]"}],"name":"setStakingRewardWeights","outputs":[],"payable":false,"stateMutability":"nonpayable","type":"function"},{"constant":false,"inputs":[{"internalType":"uint256","name":"_startMiningTime","type":"uint256"}],"name":"setStartMiningTime","outputs":[],"payable":false,"stateMutability":"nonpayable","type":"function"},{"constant":false,"inputs":[{"internalType":"address","name":"_treasury","type":"address"}],"name":"setTreasury","outputs":[],"payable":false,"stateMutability":"nonpayable","type":"function"},{"constant":false,"inputs":[{"internalType":"uint256","name":"_workingHashRate","type":"uint256"}],"name":"setWorkingHashRate","outputs":[],"payable":false,"stateMutability":"nonpayable","type":"function"},{"constant":true,"inputs":[],"name":"stakingPool","outputs":[{"internalType":"address","name":"","type":"address"}],"payable":false,"stateMutability":"view","type":"function"},{"constant":true,"inputs":[{"internalType":"address","name":"","type":"address"}],"name":"stakingRewardWeight","outputs":[{"internalType":"uint256","name":"","type":"uint256"}],"payable":false,"stateMutability":"view","type":"function"},{"constant":true,"inputs":[],"name":"stakingRewardWeightTotal","outputs":[{"internalType":"uint256","name":"","type":"uint256"}],"payable":false,"stateMutability":"view","type":"function"},{"constant":true,"inputs":[{"internalType":"address","name":"","type":"address"}],"name":"stakingType","outputs":[{"internalType":"uint256","name":"","type":"uint256"}],"payable":false,"stateMutability":"view","type":"function"},{"constant":true,"inputs":[{"internalType":"uint256","name":"","type":"uint256"}],"name":"stakings","outputs":[{"internalType":"address","name":"","type":"address"}],"payable":false,"stateMutability":"view","type":"function"},{"constant":true,"inputs":[],"name":"startMiningTime","outputs":[{"internalType":"uint256","name":"","type":"uint256"}],"payable":false,"stateMutability":"view","type":"function"},{"constant":true,"inputs":[],"name":"symbol","outputs":[{"internalType":"string","name":"","type":"string"}],"payable":false,"stateMutability":"view","type":"function"},{"constant":true,"inputs":[],"name":"totalHashRate","outputs":[{"internalType":"uint256","name":"","type":"uint256"}],"payable":false,"stateMutability":"view","type":"function"},{"constant":true,"inputs":[],"name":"totalSupply","outputs":[{"internalType":"uint256","name":"","type":"uint256"}],"payable":false,"stateMutability":"view","type":"function"},{"constant":false,"inputs":[{"internalType":"address","name":"to","type":"address"},{"internalType":"uint256","name":"value","type":"uint256"}],"name":"transfer","outputs":[{"internalType":"bool","name":"","type":"bool"}],"payable":false,"stateMutability":"nonpayable","type":"function"},{"constant":false,"inputs":[{"internalType":"address","name":"from","type":"address"},{"internalType":"address","name":"to","type":"address"},{"internalType":"uint256","name":"value","type":"uint256"}],"name":"transferFrom","outputs":[{"internalType":"bool","name":"","type":"bool"}],"payable":false,"stateMutability":"nonpayable","type":"function"},{"constant":false,"inputs":[{"internalType":"address","name":"newOwner","type":"address"}],"name":"transferOwnership","outputs":[],"payable":false,"stateMutability":"nonpayable","type":"function"},{"constant":true,"inputs":[],"name":"treasury","outputs":[{"internalType":"address","name":"","type":"address"}],"payable":false,"stateMutability":"view","type":"function"},{"constant":false,"inputs":[],"name":"unpause","outputs":[],"payable":false,"stateMutability":"nonpayable","type":"function"},{"constant":false,"inputs":[],"name":"updateIncomeRate","outputs":[],"payable":false,"stateMutability":"nonpayable","type":"function"},{"constant":false,"inputs":[],"name":"updateStakingPoolsIncome","outputs":[],"payable":false,"stateMutability":"nonpayable","type":"function"},{"constant":false,"inputs":[],"name":"updateStakingPoolsReward","outputs":[],"payable":false,"stateMutability":"nonpayable","type":"function"},{"constant":true,"inputs":[{"internalType":"uint256","name":"amount","type":"uint256"}],"name":"weiToIncomeTokenValue","outputs":[{"internalType":"uint256","name":"","type":"uint256"}],"payable":false,"stateMutability":"view","type":"function"},{"constant":true,"inputs":[],"name":"workerNumLastUpdateTime","outputs":[{"internalType":"uint256","name":"","type":"uint256"}],"payable":false,"stateMutability":"view","type":"function"},{"constant":true,"inputs":[],"name":"workingHashRate","outputs":[{"internalType":"uint256","name":"","type":"uint256"}],"payable":false,"stateMutability":"view","type":"function"},{"constant":true,"inputs":[],"name":"workingRateNumerator","outputs":[{"internalType":"uint256","name":"","type":"uint256"}],"payable":false,"stateMutability":"view","type":"function"}],"bytecode":{"object":"608060405260008054336001600160a01b03199182168117835560018054909216179055614ce290819061003390396000f3fe6080604052600436106104b55760003560e01c806375033a841161026b578063bc66ce0a1161014f578063dd62ed3e116100c1578063f45b242f11610085578063f45b242f14611419578063f6e15f0414611452578063f8463b2114611467578063fa7be18c1461147c578063fca3b5aa14611491578063ff8b74d7146114c4576104b5565b8063dd62ed3e1461132a578063e0c891b114611365578063eb6ee0a11461139e578063f0f44260146113b3578063f2fde38b146113e6576104b5565b8063d1af0c7d11610113578063d1af0c7d14611230578063d505accf14611245578063d7b44d02146112a3578063d840ce0e146112d6578063da13285714611300578063da3b6b3514611315576104b5565b8063bc66ce0a14611179578063c232e1c81461118e578063c4f0c1fc146111a3578063c6d758cb146111cd578063ca0e192d14611206576104b5565b80639e447fc6116101e8578063aa3166b4116101ac578063aa3166b4146110a1578063b0eb1093146110d4578063b48ffbb1146110e9578063b62bda15146110fe578063b728926214611131578063b826595d14611146576104b5565b80639e447fc614610fff578063a50a1fe614611029578063a77bce9d1461103e578063a9059cbb14611053578063aa3119ee1461108c576104b5565b80638456cb591161022f5780638456cb5914610f815780638da5cb5b14610f9657806395d89b4114610fab5780639a29160914610fc05780639dabe39d14610fd5576104b5565b806375033a8414610ebe5780637a776b5114610ef15780637b0a47ee14610f245780637ecebe0014610f39578063836ee4f514610f6c576104b5565b80633437a7f71161039d578063481d0fb41161030f5780636117d0a9116102d35780636117d0a914610d5557806361d027b314610d81578063627ec05214610d965780636b9e499c14610dab5780636d32641b14610dc057806370a0823114610e8b576104b5565b8063481d0fb414610c18578063549b768814610c2d5780635b4d997114610cf85780635c975abb14610d0d5780635ea06e5e14610d22576104b5565b80633f4ba83a116103615780633f4ba83a14610b4357806340c10f1914610b58578063415e2f2c14610b915780634430dfce14610ba65780634460b4df14610bbb578063465656fa14610be5576104b5565b80633437a7f7146108915780633497d5a614610a245780633644e51514610aef578063386a952514610b045780633c6b16ab14610b19576104b5565b806317e0ab8911610436578063252ac138116103fa578063252ac1381461079c578063279084a6146107e85780632a5a771d146107fd57806330adf81f14610827578063313ce5671461083c57806331d9cbf814610867576104b5565b806317e0ab89146106f057806317fd06a21461070557806318160ddd1461072f5780631b75fbe81461074457806323b872dd14610759576104b5565b80630c56ae3b1161047d5780630c56ae3b14610637578063104a41a71461064c57806310a3bae914610685578063132c2614146106af578063174e31c4146106b7576104b5565b806304fcbe0e146104b7578063069b0822146104fc57806306fdde031461054357806307546172146105cd578063095ea7b3146105fe575b005b3480156104c357600080fd5b506104ea600480360360208110156104da57600080fd5b50356001600160a01b03166114f7565b60408051918252519081900360200190f35b34801561050857600080fd5b5061052f6004803603602081101561051f57600080fd5b50356001600160a01b0316611509565b604080519115158252519081900360200190f35b34801561054f57600080fd5b5061055861152a565b6040805160208082528351818301528351919283929083019185019080838360005b8381101561059257818101518382015260200161057a565b50505050905090810190601f1680156105bf5780820380516001836020036101000a031916815260200191505b509250505060405180910390f35b3480156105d957600080fd5b506105e26115b5565b604080516001600160a01b039092168252519081900360200190f35b34801561060a57600080fd5b5061052f6004803603604081101561062157600080fd5b506001600160a01b0381351690602001356115c9565b34801561064357600080fd5b506105e26115e0565b34801561065857600080fd5b506104b56004803603604081101561066f57600080fd5b506001600160a01b0381351690602001356115ef565b34801561069157600080fd5b506104ea600480360360208110156106a857600080fd5b5035611668565b6104b5611756565b3480156106c357600080fd5b506104b5600480360360408110156106da57600080fd5b506001600160a01b03813516906020013561178e565b3480156106fc57600080fd5b506104ea61187f565b34801561071157600080fd5b506104b56004803603602081101561072857600080fd5b5035611885565b34801561073b57600080fd5b506104ea611961565b34801561075057600080fd5b506104b5611967565b34801561076557600080fd5b5061052f6004803603606081101561077c57600080fd5b506001600160a01b03813581169160208101359091169060400135611a29565b3480156107a857600080fd5b506107cf600480360360208110156107bf57600080fd5b50356001600160a01b0316611b18565b6040805192835260208301919091528051918290030190f35b3480156107f457600080fd5b506104ea611bed565b34801561080957600080fd5b506104b56004803603602081101561082057600080fd5b5035611bf3565b34801561083357600080fd5b506104ea611ceb565b34801561084857600080fd5b50610851611d0f565b6040805160ff9092168252519081900360200190f35b34801561087357600080fd5b506104b56004803603602081101561088a57600080fd5b5035611d14565b34801561089d57600080fd5b506104b560048036036101c08110156108b557600080fd5b810190602081018135600160201b8111156108cf57600080fd5b8201836020820111156108e157600080fd5b803590602001918460018302840111600160201b8311171561090257600080fd5b91908080601f0160208091040260200160405190810160405280939291908181526020018383808284376000920191909152509295949360208101935035915050600160201b81111561095457600080fd5b82018360208201111561096657600080fd5b803590602001918460018302840111600160201b8311171561098757600080fd5b91908080601f016020809104026020016040519081016040528093929190818152602001838380828437600092019190915250929550506001600160a01b038335811694506020840135811693604081013582169350606081013582169250608081013582169160a082013581169160c081013582169160e082013516906101008101359061012081013590610140810135906101600135611e72565b348015610a3057600080fd5b506104b560048036036040811015610a4757600080fd5b810190602081018135600160201b811115610a6157600080fd5b820183602082011115610a7357600080fd5b803590602001918460208302840111600160201b83111715610a9457600080fd5b919390929091602081019035600160201b811115610ab157600080fd5b820183602082011115610ac357600080fd5b803590602001918460208302840111600160201b83111715610ae457600080fd5b50909250905061202a565b348015610afb57600080fd5b506104ea61212f565b348015610b1057600080fd5b506104ea612135565b348015610b2557600080fd5b506104b560048036036020811015610b3c57600080fd5b503561213b565b348015610b4f57600080fd5b506104b56122d0565b348015610b6457600080fd5b506104b560048036036040811015610b7b57600080fd5b506001600160a01b03813516906020013561232e565b348015610b9d57600080fd5b506104ea612435565b348015610bb257600080fd5b506104ea61243c565b348015610bc757600080fd5b506104b560048036036020811015610bde57600080fd5b5035612442565b348015610bf157600080fd5b506104ea60048036036020811015610c0857600080fd5b50356001600160a01b031661255a565b348015610c2457600080fd5b506105e261256c565b348015610c3957600080fd5b506104b560048036036040811015610c5057600080fd5b810190602081018135600160201b811115610c6a57600080fd5b820183602082011115610c7c57600080fd5b803590602001918460208302840111600160201b83111715610c9d57600080fd5b919390929091602081019035600160201b811115610cba57600080fd5b820183602082011115610ccc57600080fd5b803590602001918460208302840111600160201b83111715610ced57600080fd5b50909250905061257b565b348015610d0457600080fd5b506104ea612679565b348015610d1957600080fd5b5061052f61267f565b348015610d2e57600080fd5b506104b560048036036020811015610d4557600080fd5b50356001600160a01b031661268f565b6104b560048036036040811015610d6b57600080fd5b506001600160a01b03813516906020013561276a565b348015610d8d57600080fd5b506105e2612856565b348015610da257600080fd5b506104ea612865565b348015610db757600080fd5b506104ea612917565b348015610dcc57600080fd5b506104b560048036036040811015610de357600080fd5b810190602081018135600160201b811115610dfd57600080fd5b820183602082011115610e0f57600080fd5b803590602001918460208302840111600160201b83111715610e3057600080fd5b919390929091602081019035600160201b811115610e4d57600080fd5b820183602082011115610e5f57600080fd5b803590602001918460208302840111600160201b83111715610e8057600080fd5b50909250905061291d565b348015610e9757600080fd5b506104ea60048036036020811015610eae57600080fd5b50356001600160a01b0316612a1b565b348015610eca57600080fd5b506104ea60048036036020811015610ee157600080fd5b50356001600160a01b0316612a2d565b348015610efd57600080fd5b506104ea60048036036020811015610f1457600080fd5b50356001600160a01b0316612bde565b348015610f3057600080fd5b506104ea612bf0565b348015610f4557600080fd5b506104ea60048036036020811015610f5c57600080fd5b50356001600160a01b0316612bf6565b348015610f7857600080fd5b506104b5612c08565b348015610f8d57600080fd5b506104b5612d7b565b348015610fa257600080fd5b506105e2612dd7565b348015610fb757600080fd5b50610558612de6565b348015610fcc57600080fd5b506104ea612e41565b348015610fe157600080fd5b506104b560048036036020811015610ff857600080fd5b5035612e5b565b34801561100b57600080fd5b506104b56004803603602081101561102257600080fd5b5035612f19565b34801561103557600080fd5b506104ea612f85565b34801561104a57600080fd5b506104ea612fbb565b34801561105f57600080fd5b5061052f6004803603604081101561107657600080fd5b506001600160a01b0381351690602001356130ba565b34801561109857600080fd5b506104ea61311a565b3480156110ad57600080fd5b506104b5600480360360208110156110c457600080fd5b50356001600160a01b0316613120565b3480156110e057600080fd5b506104ea61322b565b3480156110f557600080fd5b506104ea613231565b34801561110a57600080fd5b5061052f6004803603602081101561112157600080fd5b50356001600160a01b0316613237565b34801561113d57600080fd5b506104ea613292565b34801561115257600080fd5b506104ea6004803603602081101561116957600080fd5b50356001600160a01b0316613298565b34801561118557600080fd5b506105e261340b565b34801561119a57600080fd5b506104ea61341a565b3480156111af57600080fd5b506105e2600480360360208110156111c657600080fd5b5035613420565b3480156111d957600080fd5b506104b5600480360360408110156111f057600080fd5b506001600160a01b038135169060200135613447565b34801561121257600080fd5b506104ea6004803603602081101561122957600080fd5b50356134cd565b34801561123c57600080fd5b506105e2613545565b34801561125157600080fd5b506104b5600480360360e081101561126857600080fd5b506001600160a01b03813581169160208101359091169060408101359060608101359060ff6080820135169060a08101359060c00135613554565b3480156112af57600080fd5b506104ea600480360360208110156112c657600080fd5b50356001600160a01b031661375a565b3480156112e257600080fd5b506104b5600480360360208110156112f957600080fd5b5035613915565b34801561130c57600080fd5b506104ea613a21565b34801561132157600080fd5b506104ea613ae5565b34801561133657600080fd5b506104ea6004803603604081101561134d57600080fd5b506001600160a01b0381358116916020013516613aeb565b34801561137157600080fd5b506104b56004803603604081101561138857600080fd5b506001600160a01b038135169060200135613b08565b3480156113aa57600080fd5b506105e2613b76565b3480156113bf57600080fd5b506104b5600480360360208110156113d657600080fd5b50356001600160a01b0316613b85565b3480156113f257600080fd5b506104b56004803603602081101561140957600080fd5b50356001600160a01b0316613bfb565b34801561142557600080fd5b506104b56004803603604081101561143c57600080fd5b506001600160a01b038135169060200135613d05565b34801561145e57600080fd5b506104ea613d7a565b34801561147357600080fd5b506104b5613d80565b34801561148857600080fd5b506104ea613ed9565b34801561149d57600080fd5b506104b5600480360360208110156114b457600080fd5b50356001600160a01b0316613edf565b3480156114d057600080fd5b506104ea600480360360208110156114e757600080fd5b50356001600160a01b0316613fc1565b601f6020526000908152604090205481565b6001600160a01b03811660009081526021602052604090205415155b919050565b6002805460408051602060018416156101000260001901909316849004601f810184900484028201840190925281815292918301828280156115ad5780601f10611582576101008083540402835291602001916115ad565b820191906000526020600020905b81548152906001019060200180831161159057829003601f168201915b505050505081565b60095461010090046001600160a01b031681565b60006115d633848461400a565b5060015b92915050565b600a546001600160a01b031681565b6000546001600160a01b031633148061161257506001546001600160a01b031633145b611652576040805162461bcd60e51b815260206004820152600c60248201526b10b830b930b6a9b2ba3a32b960a11b604482015290519081900360640190fd5b61165a613d80565b611664828261406c565b5050565b6016546000906012906001600160a01b0316156116ff57601660009054906101000a90046001600160a01b03166001600160a01b031663313ce5676040518163ffffffff1660e01b815260040160206040518083038186803b1580156116cd57600080fd5b505afa1580156116e1573d6000803e3d6000fd5b505050506040513d60208110156116f757600080fd5b505160ff1690505b601281101561172957601281900361172184600a83900a63ffffffff61411d16565b93505061174f565b601281111561174f57601119810161174b84600a83900a63ffffffff61416616565b9350505b5090919050565b60408051348152905133917f81ad7215cbec0a1d55a48f38b34525d2b677147ee7ceb872ac23ecca5ec966e5919081900360200190a2565b6001600160a01b0382166117e2576040805162461bcd60e51b8152602060048201526016602482015275746f20697320746865207a65726f206164647265737360501b604482015290519081900360640190fd5b6117eb33611509565b61182d576040805162461bcd60e51b815260206004820152600e60248201526d4e6f207065726d697373696f6e7360901b604482015290519081900360640190fd5b601854611843906001600160a01b0316826141bf565b6018546001600160a01b03166118625761185d82826142f7565b611664565b601854611664906001600160a01b0316838363ffffffff61432d16565b60105481565b6000546001600160a01b03163314806118a857506001546001600160a01b031633145b6118e8576040805162461bcd60e51b815260206004820152600c60248201526b10b830b930b6a9b2ba3a32b960a11b604482015290519081900360640190fd5b806013541415611937576040805162461bcd60e51b815260206004820152601560248201527439b0b6b2903bb7b935b4b733a430b9b42930ba329760591b604482015290519081900360640190fd5b600e5442111561195157611949612865565b601255426015555b601381905561195e611967565b50565b60045481565b600e5442111561197957611979613d80565b6017546000611986612fbb565b90506000611992613a21565b9050818111156119e05760006119ae828463ffffffff61437f16565b90506119d76014546119cb6013548461416690919063ffffffff16565b9063ffffffff61411d16565b601755506119e6565b60006017555b60175460408051858152602081019290925280517fbcdc19a9d06e9389ef3cac53244ab619448a240601652339b4adf14f6a844c2b9281900390910190a1505050565b600154600090600160a01b900460ff1615611a7e576040805162461bcd60e51b815260206004820152601060248201526f14185d5cd8589b194e881c185d5cd95960821b604482015290519081900360640190fd5b6001600160a01b038416600090815260066020908152604080832033845290915290205460001914611b03576001600160a01b0384166000908152600660209081526040808320338452909152902054611ade908363ffffffff61437f16565b6001600160a01b03851660009081526006602090815260408083203384529091529020555b611b0e8484846143c1565b5060019392505050565b60008060008060005b601c54811015611be35760216000601c8381548110611b3c57fe5b60009182526020808320909101546001600160a01b0316835282019290925260400190205460021415611bdb576000611b95601c8381548110611b7b57fe5b6000918252602090912001546001600160a01b031661375a565b9050611ba7848263ffffffff61447b16565b9350601c8281548110611bb657fe5b6000918252602090912001546001600160a01b0388811691161415611bd9578092505b505b600101611b21565b5092509050915091565b601b5481565b6000546001600160a01b0316331480611c1657506001546001600160a01b031633145b611c56576040805162461bcd60e51b815260206004820152600c60248201526b10b830b930b6a9b2ba3a32b960a11b604482015290519081900360640190fd5b60008111611ca2576040805162461bcd60e51b8152602060048201526014602482015273068617368526174652063616e6e6f7420626520360641b604482015290519081900360640190fd5b611ccf611cc06013546119cb6014548561416690919063ffffffff16565b6014549063ffffffff61447b16565b601455601354611ce5908263ffffffff61447b16565b60135550565b7f6e71edae12b1b97f4d1f60370fef10105fa2faae0126114a169c64845d6126c981565b601281565b6000546001600160a01b0316331480611d3757506001546001600160a01b031633145b611d77576040805162461bcd60e51b815260206004820152600c60248201526b10b830b930b6a9b2ba3a32b960a11b604482015290519081900360640190fd5b80600e541415611dc6576040805162461bcd60e51b815260206004820152601560248201527439b0b6b29039ba30b93a26b4b734b733aa34b6b29760591b604482015290519081900360640190fd5b42600e5411611e14576040805162461bcd60e51b815260206004820152601560248201527430b63932b0b23c9039ba30b93a1036b4b734b7339760591b604482015290519081900360640190fd5b428111611e68576040805162461bcd60e51b815260206004820152601960248201527f6e6f6e6c6567616c2073746172744d696e696e6754696d652e00000000000000604482015290519081900360640190fd5b600e819055601555565b60095460ff1615611eca576040805162461bcd60e51b815260206004820152601960248201527f546f6b656e20616c726561647920696e697469616c697a656400000000000000604482015290519081900360640190fd5b620f42408210611f21576040805162461bcd60e51b815260206004820152601f60248201527f6e6f6e6c6567616c206d696e6572506f6f6c4665654e756d657261746f722e00604482015290519081900360640190fd5b6009805460ff19166001179055611f388e8e6144d5565b600a80546001600160a01b0319166001600160a01b038e81169190911791829055611f65911660016145f9565b611f708b60026145f9565b611f7b8a60026145f9565b60098054610100600160a81b0319166101006001600160a01b038c81169190910291909117909155600b80546001600160a01b03199081168b8416179091556016805482168a8416179055601880548216898416179055600c8054909116918716919091179055600d84905542600e819055600f8490556010839055601482905562278d00601a55620f4240601155601382905560155561201a611967565b5050505050505050505050505050565b6000546001600160a01b031633148061204d57506001546001600160a01b031633145b61208d576040805162461bcd60e51b815260206004820152600c60248201526b10b830b930b6a9b2ba3a32b960a11b604482015290519081900360640190fd5b8281146120d6576040805162461bcd60e51b8152602060048201526012602482015271696c6c6567616c20706172616d657465727360701b604482015290519081900360640190fd5b6120de613d80565b60005b83811015612128576121208585838181106120f857fe5b905060200201356001600160a01b031684848481811061211457fe5b9050602002013561406c565b6001016120e1565b5050505050565b60075481565b601a5481565b6000546001600160a01b031633148061215e57506001546001600160a01b031633145b61219e576040805162461bcd60e51b815260206004820152600c60248201526b10b830b930b6a9b2ba3a32b960a11b604482015290519081900360640190fd5b60006121a9826134cd565b90506121b481614681565b601854604080516370a0823160e01b815230600482015290516000926001600160a01b0316916370a08231916024808301926020929190829003018186803b1580156121ff57600080fd5b505afa158015612213573d6000803e3d6000fd5b505050506040513d602081101561222957600080fd5b5051601a5490915061224290829063ffffffff61411d16565b6019541115612298576040805162461bcd60e51b815260206004820152601860248201527f50726f76696465642072657761726420746f6f20686967680000000000000000604482015290519081900360640190fd5b6040805184815290517fde88a922e0d3b88b24e9623efeb464919c6bf9f66857a65e2bfcf2ce87a9433d9181900360200190a1505050565b6000546001600160a01b03163314612324576040805162461bcd60e51b815260206004820152601260248201527127bbb730b136329d102327a92124a22222a760711b604482015290519081900360640190fd5b61232c6146e5565b565b600154600160a01b900460ff1615612380576040805162461bcd60e51b815260206004820152601060248201526f14185d5cd8589b194e881c185d5cd95960821b604482015290519081900360640190fd5b60095461010090046001600160a01b031633146123ce576040805162461bcd60e51b815260206004820152600760248201526610b6b4b73a32b960c91b604482015290519081900360640190fd5b6123d6612f85565b811115612423576040805162461bcd60e51b81526020600482015260166024820152753737ba1039bab33334b1b4b2b73a1039bab838363c9760511b604482015290519081900360640190fd5b61242d828261471d565b611664613d80565b601c545b90565b60135481565b6000546001600160a01b031633148061246557506001546001600160a01b031633145b6124a5576040805162461bcd60e51b815260206004820152600c60248201526b10b830b930b6a9b2ba3a32b960a11b604482015290519081900360640190fd5b8060115414156124fc576040805162461bcd60e51b815260206004820152601b60248201527f73616d6520646570726563696174696f6e4e756d657261746f722e0000000000604482015290519081900360640190fd5b620f424081111561254d576040805162461bcd60e51b81526020600482015260166024820152753737b73632b3b0b6103232b83932b1b4b0ba34b7b71760511b604482015290519081900360640190fd5b601181905561195e611967565b60216020526000908152604090205481565b600b546001600160a01b031681565b6000546001600160a01b031633146125cf576040805162461bcd60e51b815260206004820152601260248201527127bbb730b136329d102327a92124a22222a760711b604482015290519081900360640190fd5b828114612618576040805162461bcd60e51b8152602060048201526012602482015271696e76616c696420706172616d657465727360701b604482015290519081900360640190fd5b60005b838110156126625761265a85858381811061263257fe5b905060200201356001600160a01b031684848481811061264e57fe5b905060200201356145f9565b60010161261b565b5061266b613d80565b612673612c08565b50505050565b601e5481565b600154600160a01b900460ff1690565b6000546001600160a01b03163314806126b257506001546001600160a01b031633145b6126f2576040805162461bcd60e51b815260206004820152600c60248201526b10b830b930b6a9b2ba3a32b960a11b604482015290519081900360640190fd5b600b546001600160a01b0382811691161415612747576040805162461bcd60e51b815260206004820152600f60248201526e39b0b6b29036b4b732a830b930b69760891b604482015290519081900360640190fd5b600b80546001600160a01b0319166001600160a01b03831617905561195e611967565b6001600160a01b0382166127be576040805162461bcd60e51b8152602060048201526016602482015275746f20697320746865207a65726f206164647265737360501b604482015290519081900360640190fd5b6127c733611509565b612809576040805162461bcd60e51b815260206004820152600e60248201526d4e6f207065726d697373696f6e7360901b604482015290519081900360640190fd5b60165461281f906001600160a01b0316826141bf565b6016546001600160a01b03166128395761185d82826142f7565b601654611664906001600160a01b0316838363ffffffff61432d16565b600c546001600160a01b031681565b6000600e544211156129115760006128886015544261437f90919063ffffffff16565b905060006128dc6128a761289a612e41565b849063ffffffff61416616565b6128d06012546128c4600e5460155461437f90919063ffffffff16565b9063ffffffff61416616565b9063ffffffff61447b16565b905060006128f5600e544261437f90919063ffffffff16565b9050612907828263ffffffff61411d16565b9350505050612439565b50600090565b600f5481565b6000546001600160a01b031633148061294057506001546001600160a01b031633145b612980576040805162461bcd60e51b815260206004820152600c60248201526b10b830b930b6a9b2ba3a32b960a11b604482015290519081900360640190fd5b8281146129c9576040805162461bcd60e51b8152602060048201526012602482015271696c6c6567616c20706172616d657465727360701b604482015290519081900360640190fd5b6129d1612c08565b60005b8381101561212857612a138585838181106129eb57fe5b905060200201356001600160a01b0316848484818110612a0757fe5b905060200201356147b4565b6001016129d4565b60056020526000908152604090205481565b600080826001600160a01b0316630dfe16816040518163ffffffff1660e01b815260040160206040518083038186803b158015612a6957600080fd5b505afa158015612a7d573d6000803e3d6000fd5b505050506040513d6020811015612a9357600080fd5b50516040805163d21220a760e01b815290519192506000916001600160a01b0386169163d21220a7916004808301926020929190829003018186803b158015612adb57600080fd5b505afa158015612aef573d6000803e3d6000fd5b505050506040513d6020811015612b0557600080fd5b505160408051630240bc6b60e21b8152905191925060009182916001600160a01b03881691630902f1ac91600480820192606092909190829003018186803b158015612b5057600080fd5b505afa158015612b64573d6000803e3d6000fd5b505050506040513d6060811015612b7a57600080fd5b5080516020909101516dffffffffffffffffffffffffffff91821693501690506001600160a01b038416301415612bb657509250611525915050565b6001600160a01b038316301415612bd257935061152592505050565b50600095945050505050565b601d6020526000908152604090205481565b60195481565b60086020526000908152604090205481565b60005b601c5481101561195e57601c8181548110612c2257fe5b6000918252602090912001546001600160a01b03163314801590612c6b5750612c6b601c8281548110612c5157fe5b6000918252602090912001546001600160a01b0316611509565b8015612d005750601c8181548110612c7f57fe5b6000918252602091829020015460408051638f72d54560e01b815290516001600160a01b0390921692638f72d54592600480840193829003018186803b158015612cc857600080fd5b505afa158015612cdc573d6000803e3d6000fd5b505050506040513d6020811015612cf257600080fd5b50516001600160a01b031630145b15612d7357601c8181548110612d1257fe5b6000918252602082200154604080516390d0936960e01b815290516001600160a01b03909216926390d093699260048084019382900301818387803b158015612d5a57600080fd5b505af1158015612d6e573d6000803e3d6000fd5b505050505b600101612c0b565b6000546001600160a01b03163314612dcf576040805162461bcd60e51b815260206004820152601260248201527127bbb730b136329d102327a92124a22222a760711b604482015290519081900360640190fd5b61232c61484d565b6000546001600160a01b031681565b6003805460408051602060026001851615610100026000190190941693909304601f810184900484028201840190925281815292918301828280156115ad5780601f10611582576101008083540402835291602001916115ad565b6000601454601354620f42400281612e5557fe5b04905090565b6000546001600160a01b0316331480612e7e57506001546001600160a01b031633145b612ebe576040805162461bcd60e51b815260206004820152600c60248201526b10b830b930b6a9b2ba3a32b960a11b604482015290519081900360640190fd5b80600f541415612f0c576040805162461bcd60e51b815260206004820152601460248201527339b0b6b29032b632b1ba3934b1a1b430b933b29760611b604482015290519081900360640190fd5b600f81905561195e611967565b6000546001600160a01b0316331480612f3c57506001546001600160a01b031633145b612f7c576040805162461bcd60e51b815260206004820152600c60248201526b10b830b930b6a9b2ba3a32b960a11b604482015290519081900360640190fd5b61195e81614681565b6000612fb6600454612faa670de0b6b3a764000060145461416690919063ffffffff16565b9063ffffffff61437f16565b905090565b600080600b60009054906101000a90046001600160a01b03166001600160a01b03166378f6e9986040518163ffffffff1660e01b815260040160206040518083038186803b15801561300c57600080fd5b505afa158015613020573d6000803e3d6000fd5b505050506040513d602081101561303657600080fd5b5051905080156130b257600d54670de0b6b3a7640000906103e89060009061306e9083906119cb90829082908863ffffffff61416616565b90506000613092856119cb620f42406119cb600f548761416690919063ffffffff16565b90506130a681610e1063ffffffff61411d16565b95505050505050612439565b600091505090565b600154600090600160a01b900460ff161561310f576040805162461bcd60e51b815260206004820152601060248201526f14185d5cd8589b194e881c185d5cd95960821b604482015290519081900360640190fd5b6115d63384846143c1565b60175481565b6000546001600160a01b03163314613174576040805162461bcd60e51b815260206004820152601260248201527127bbb730b136329d102327a92124a22222a760711b604482015290519081900360640190fd5b6001600160a01b0381166131cf576040805162461bcd60e51b815260206004820181905260248201527f706172616d2073657474657220697320746865207a65726f2061646472657373604482015290519081900360640190fd5b6001546040516001600160a01b038084169216907fbdb27c45e7cebea53416bc78c5bfc5014c1efa4cfd3a2cc9398aeb9aaa617fb590600090a3600180546001600160a01b0319166001600160a01b0392909216919091179055565b600e5481565b600d5481565b6000805b601c5481101561328957826001600160a01b0316601c828154811061325c57fe5b6000918252602090912001546001600160a01b03161415613281576001915050611525565b60010161323b565b50600092915050565b60155481565b6000600454600014806132c457506001600160a01b038216600090815260216020526040902054600214155b806132cf5750602054155b156132dc57506000611525565b600a54600090819081906001600160a01b03161561337157600a60009054906101000a90046001600160a01b03166001600160a01b03166318160ddd6040518163ffffffff1660e01b815260040160206040518083038186803b15801561334257600080fd5b505afa158015613356573d6000803e3d6000fd5b505050506040513d602081101561336c57600080fd5b505190505b60008061337d87611b18565b9095509150613392838363ffffffff61447b16565b60045411156133b7576133b482612faa8560045461437f90919063ffffffff16565b90505b602080546001600160a01b0389166000908152601f9092526040909120546133eb91906119cb90849063ffffffff61416616565b9350505050613403818361447b90919063ffffffff16565b949350505050565b6016546001600160a01b031681565b60125481565b601c818154811061342d57fe5b6000918252602090912001546001600160a01b0316905081565b6000546001600160a01b0316331461349b576040805162461bcd60e51b815260206004820152601260248201527127bbb730b136329d102327a92124a22222a760711b604482015290519081900360640190fd5b6001600160a01b0382166134b35761185d33826142f7565b6116646001600160a01b038316338363ffffffff61432d16565b6000601b5442106134f357601a546134ec90839063ffffffff61411d16565b9050611525565b601b54600090613509904263ffffffff61437f16565b905060006135226019548361416690919063ffffffff16565b601a5490915061353c906119cb868463ffffffff61447b16565b92505050611525565b6018546001600160a01b031681565b428410156135a2576040805162461bcd60e51b815260206004820152601660248201527512185cda14985d19515490cc8c0e881156141254915160521b604482015290519081900360640190fd5b6007546001600160a01b0380891660008181526008602090815260408083208054600180820190925582517f6e71edae12b1b97f4d1f60370fef10105fa2faae0126114a169c64845d6126c98186015280840196909652958d166060860152608085018c905260a085019590955260c08085018b90528151808603909101815260e08501825280519083012061190160f01b6101008601526101028501969096526101228085019690965280518085039096018652610142840180825286519683019690962095839052610162840180825286905260ff89166101828501526101a284018890526101c28401879052519193926101e280820193601f1981019281900390910190855afa1580156136bd573d6000803e3d6000fd5b5050604051601f1901519150506001600160a01b038116158015906136f35750886001600160a01b0316816001600160a01b0316145b613744576040805162461bcd60e51b815260206004820181905260248201527f486173685261746545524332303a20494e56414c49445f5349474e4154555245604482015290519081900360640190fd5b61374f89898961400a565b505050505050505050565b600080826001600160a01b03166397b1c96c6040518163ffffffff1660e01b815260040160206040518083038186803b15801561379657600080fd5b505afa1580156137aa573d6000803e3d6000fd5b505050506040513d60208110156137c057600080fd5b505190506001600160a01b0381166137dc576000915050611525565b60006137e782612a2d565b9050806137f957600092505050611525565b6000846001600160a01b03166318160ddd6040518163ffffffff1660e01b815260040160206040518083038186803b15801561383457600080fd5b505afa158015613848573d6000803e3d6000fd5b505050506040513d602081101561385e57600080fd5b5051604080516318160ddd60e01b815290519192506000916001600160a01b038616916318160ddd916004808301926020929190829003018186803b1580156138a657600080fd5b505afa1580156138ba573d6000803e3d6000fd5b505050506040513d60208110156138d057600080fd5b5051905080158015906138f15750806138ef848463ffffffff61416616565b115b15612bd25761390a816119cb858563ffffffff61416616565b945050505050611525565b6000546001600160a01b031633148061393857506001546001600160a01b031633145b613978576040805162461bcd60e51b815260206004820152600c60248201526b10b830b930b6a9b2ba3a32b960a11b604482015290519081900360640190fd5b8060105414156139c4576040805162461bcd60e51b815260206004820152601260248201527139b0b6b29036b4b732b92837b7b62332b29760711b604482015290519081900360640190fd5b620f42408110613a14576040805162461bcd60e51b81526020600482015260166024820152753737b73632b3b0b61036b4b732b92837b7b62332b29760511b604482015290519081900360640190fd5b601081905561195e611967565b600b5460408051630478ebcb60e41b81529051600092620f424092849283926001600160a01b03169163478ebcb0916004808301926020929190829003018186803b158015613a6f57600080fd5b505afa158015613a83573d6000803e3d6000fd5b505050506040513d6020811015613a9957600080fd5b5051601054909150613abc9084906119cb9061289a90839063ffffffff61437f16565b9150506000809050613add836119cb6011548561416690919063ffffffff16565b935050505090565b60145481565b600660209081526000928352604080842090915290825290205481565b6000546001600160a01b03163314613b5c576040805162461bcd60e51b815260206004820152601260248201527127bbb730b136329d102327a92124a22222a760711b604482015290519081900360640190fd5b613b6682826145f9565b613b6e613d80565b611664612c08565b6001546001600160a01b031681565b6000546001600160a01b03163314613bd9576040805162461bcd60e51b815260206004820152601260248201527127bbb730b136329d102327a92124a22222a760711b604482015290519081900360640190fd5b600c80546001600160a01b0319166001600160a01b0392909216919091179055565b6000546001600160a01b03163314613c4f576040805162461bcd60e51b815260206004820152601260248201527127bbb730b136329d102327a92124a22222a760711b604482015290519081900360640190fd5b6001600160a01b038116613caa576040805162461bcd60e51b815260206004820152601d60248201527f6e6577206f776e657220697320746865207a65726f2061646472657373000000604482015290519081900360640190fd5b600080546040516001600160a01b03808516939216917f8be0079c531659141344cd1fd0a4f28419497f9722a3daafe3b4186f6b6457e091a3600080546001600160a01b0319166001600160a01b0392909216919091179055565b6000546001600160a01b0316331480613d2857506001546001600160a01b031633145b613d68576040805162461bcd60e51b815260206004820152600c60248201526b10b830b930b6a9b2ba3a32b960a11b604482015290519081900360640190fd5b613d70612c08565b61166482826147b4565b60115481565b60005b601c5481101561195e57601c8181548110613d9a57fe5b6000918252602090912001546001600160a01b03163314801590613dc95750613dc9601c8281548110612c5157fe5b8015613e5e5750601c8181548110613ddd57fe5b6000918252602091829020015460408051638f72d54560e01b815290516001600160a01b0390921692638f72d54592600480840193829003018186803b158015613e2657600080fd5b505afa158015613e3a573d6000803e3d6000fd5b505050506040513d6020811015613e5057600080fd5b50516001600160a01b031630145b15613ed157601c8181548110613e7057fe5b6000918252602082200154604080516378898b1b60e11b815290516001600160a01b039092169263f11316369260048084019382900301818387803b158015613eb857600080fd5b505af1158015613ecc573d6000803e3d6000fd5b505050505b600101613d83565b60205481565b6000546001600160a01b0316331480613f0257506001546001600160a01b031633145b613f42576040805162461bcd60e51b815260206004820152600c60248201526b10b830b930b6a9b2ba3a32b960a11b604482015290519081900360640190fd5b6009546001600160a01b03828116610100909204161415613f99576040805162461bcd60e51b815260206004820152600c60248201526b39b0b6b29036b4b73a32b91760a11b604482015290519081900360640190fd5b600980546001600160a01b0390921661010002610100600160a81b0319909216919091179055565b6000601e5460001415613fd657506000611525565b601e546001600160a01b0383166000908152601d60205260409020546019546115da92916119cb919063ffffffff61416616565b6001600160a01b03808416600081815260066020908152604080832094871680845294825291829020859055815185815291517f8c5be1e5ebec7d5bd14f71427d1e84f3dd0314c0f7b2291e5b200ac8c7c3b9259281900390910190a3505050565b6001600160a01b0382166000908152602160205260409020546002146140c8576040805162461bcd60e51b815260206004820152600c60248201526b1a5b1b1959d85b081c1bdbdb60a21b604482015290519081900360640190fd5b6001600160a01b0382166000908152601f602090815260409091205490546140fb9183916128d09163ffffffff61437f16565b60209081556001600160a01b039092166000908152601f909252604090912055565b600061415f83836040518060400160405280601a81526020017f536166654d6174683a206469766973696f6e206279207a65726f00000000000081525061488b565b9392505050565b600082614175575060006115da565b8282028284828161418257fe5b041461415f5760405162461bcd60e51b8152600401808060200182810382526021815260200180614c636021913960400191505060405180910390fd5b600c546001600160a01b03166141d457611664565b60006001600160a01b0383166141eb575047614260565b604080516370a0823160e01b815230600482015290516001600160a01b038516916370a08231916024808301926020929190829003018186803b15801561423157600080fd5b505afa158015614245573d6000803e3d6000fd5b505050506040513d602081101561425b57600080fd5b505190505b808211156142f257600c546001600160a01b031663aad3ec968461428a858563ffffffff61437f16565b6040518363ffffffff1660e01b815260040180836001600160a01b03166001600160a01b0316815260200182815260200192505050600060405180830381600087803b1580156142d957600080fd5b505af11580156142ed573d6000803e3d6000fd5b505050505b505050565b6040516001600160a01b0383169082156108fc029083906000818181858888f193505050501580156142f2573d6000803e3d6000fd5b604080516001600160a01b038416602482015260448082018490528251808303909101815260649091019091526020810180516001600160e01b031663a9059cbb60e01b1790526142f290849061492d565b600061415f83836040518060400160405280601e81526020017f536166654d6174683a207375627472616374696f6e206f766572666c6f770000815250614ae5565b6001600160a01b0383166000908152600560205260409020546143ea908263ffffffff61437f16565b6001600160a01b03808516600090815260056020526040808220939093559084168152205461441f908263ffffffff61447b16565b6001600160a01b0380841660008181526005602090815260409182902094909455805185815290519193928716927fddf252ad1be2c89b69c2b068fc378daa952ba7f163c4a11628f55a4df523b3ef92918290030190a3505050565b60008282018381101561415f576040805162461bcd60e51b815260206004820152601b60248201527f536166654d6174683a206164646974696f6e206f766572666c6f770000000000604482015290519081900360640190fd5b81516144e8906002906020850190614b78565b5080516144fc906003906020840190614b78565b506040514690806052614c11823960520190506040518091039020600260405180828054600181600116156101000203166002900480156145745780601f10614552576101008083540402835291820191614574565b820191906000526020600020905b815481529060010190602001808311614560575b505060408051918290038220828201825260018352603160f81b602093840152815180840196909652858201527fc89efdaa54c0f20c7adf612882df0950f5a951637e0307cdcb4c672f298b8bc6606086015260808501959095523060a0808601919091528551808603909101815260c0909401909452505080519101206007555050565b6001600160a01b03821615611664576001600160a01b038216600090815260216020526040902081905561462c82613237565b61166457601c80546001810182556000919091527f0e4562a10381dec21b205ed72637e6b1b523bdd0e4d4d50af5cd23dd4500a2110180546001600160a01b0384166001600160a01b03199091161790555050565b614689612c08565b601954604080519182526020820183905280517fc8a368e74acfd5086c83fce19caf792cd058ba8ed9b923eea75fcd0d730a4ebb9281900390910190a16019819055601a546146df90429063ffffffff61447b16565b601b5550565b6001805460ff60a01b191690556040517fa45f47fdea8a1efdd9029a5691c7f759c32b7c698632b563573e155625d1693390600090a1565b600454614730908263ffffffff61447b16565b6004556001600160a01b03821660009081526005602052604090205461475c908263ffffffff61447b16565b6001600160a01b03831660008181526005602090815260408083209490945583518581529351929391927fddf252ad1be2c89b69c2b068fc378daa952ba7f163c4a11628f55a4df523b3ef9281900390910190a35050565b6147bd82611509565b6147fd576040805162461bcd60e51b815260206004820152600c60248201526b1a5b1b1959d85b081c1bdbdb60a21b604482015290519081900360640190fd5b6001600160a01b0382166000908152601d6020526040902054601e5461482e9183916128d09163ffffffff61437f16565b601e556001600160a01b039091166000908152601d6020526040902055565b6001805460ff60a01b1916600160a01b1790556040517f9e87fac88ff661f02d44f95383c817fece4bce600a3dab7a54406878b965e75290600090a1565b600081836149175760405162461bcd60e51b81526004018080602001828103825283818151815260200191508051906020019080838360005b838110156148dc5781810151838201526020016148c4565b50505050905090810190601f1680156149095780820380516001836020036101000a031916815260200191505b509250505060405180910390fd5b50600083858161492357fe5b0495945050505050565b61493f826001600160a01b0316614b3f565b614990576040805162461bcd60e51b815260206004820152601f60248201527f5361666545524332303a2063616c6c20746f206e6f6e2d636f6e747261637400604482015290519081900360640190fd5b60006060836001600160a01b0316836040518082805190602001908083835b602083106149ce5780518252601f1990920191602091820191016149af565b6001836020036101000a0380198251168184511680821785525050505050509050019150506000604051808303816000865af19150503d8060008114614a30576040519150601f19603f3d011682016040523d82523d6000602084013e614a35565b606091505b509150915081614a8c576040805162461bcd60e51b815260206004820181905260248201527f5361666545524332303a206c6f772d6c6576656c2063616c6c206661696c6564604482015290519081900360640190fd5b80511561267357808060200190516020811015614aa857600080fd5b50516126735760405162461bcd60e51b815260040180806020018281038252602a815260200180614c84602a913960400191505060405180910390fd5b60008184841115614b375760405162461bcd60e51b81526020600482018181528351602484015283519092839260449091019190850190808383600083156148dc5781810151838201526020016148c4565b505050900390565b6000813f7fc5d2460186f7233c927e7db2dcc703c0e500b653ca82273b7bfad8045d85a470818114801590613403575050151592915050565b828054600181600116156101000203166002900490600052602060002090601f016020900481019282601f10614bb957805160ff1916838001178555614be6565b82800160010185558215614be6579182015b82811115614be6578251825591602001919060010190614bcb565b50614bf2929150614bf6565b5090565b61243991905b80821115614bf25760008155600101614bfc56fe454950373132446f6d61696e28737472696e67206e616d652c737472696e672076657273696f6e2c75696e7432353620636861696e49642c6164647265737320766572696679696e67436f6e747261637429536166654d6174683a206d756c7469706c69636174696f6e206f766572666c6f775361666545524332303a204552433230206f7065726174696f6e20646964206e6f742073756363656564a265627a7a7231582071a98e04d932297c3278c58766272defbbfa99c2f365cefd79985798a77ebc9264736f6c63430005100032"}}