{
  "opcodeHash": "0x4ce2fa3e203a750e9917d0599d81bda0e40983960efd242c98642c89eeffe93a",
  "metalessHash": "0xa04726dea6e2d5a5d9ef427b2199da8177495128ef64d549e0544f59a209df0d",
  "runtimeHash": "0x42be0b2bd63959795afc0f6a0704fbdb0681755d7e97deb3f6c994f7d15e7025",
  "encodedMetadata": [
    {
      "ipfs": "/ipfs/QmWjVm38GbjtC7aJLYDqXBx7BE3ymAnqihsxY5czbGSnsu",
      "solc": "0.8.7"
    }
  ],
  "abi": [
    {
      "inputs": [],
      "stateMutability": "nonpayable",
      "type": "constructor"
    },
    {
      "anonymous": false,
      "inputs": [
        {
          "indexed": true,
          "internalType": "address",
          "name": "owner",
          "type": "address"
        },
        {
          "indexed": true,
          "internalType": "address",
          "name": "spender",
          "type": "address"
        },
        {
          "indexed": false,
          "internalType": "uint256",
          "name": "value",
          "type": "uint256"
        }
      ],
      "name": "Approval",
      "type": "event"
    },
    {
      "anonymous": false,
      "inputs": [
        {
          "indexed": false,
          "internalType": "uint256",
          "name": "_maxTxAmount",
          "type": "uint256"
        }
      ],
      "name": "MaxTxAmountUpdated",
      "type": "event"
    },
    {
      "anonymous": false,
      "inputs": [
        {
          "indexed": true,
          "internalType": "address",
          "name": "previousOwner",
          "type": "address"
        },
        {
          "indexed": true,
          "internalType": "address",
          "name": "newOwner",
          "type": "address"
        }
      ],
      "name": "OwnershipTransferred",
      "type": "event"
    },
    {
      "anonymous": false,
      "inputs": [
        {
          "indexed": true,
          "internalType": "address",
          "name": "from",
          "type": "address"
        },
        {
          "indexed": true,
          "internalType": "address",
          "name": "to",
          "type": "address"
        },
        {
          "indexed": false,
          "internalType": "uint256",
          "name": "value",
          "type": "uint256"
        }
      ],
      "name": "Transfer",
      "type": "event"
    },
    {
      "inputs": [
        {
          "internalType": "address",
          "name": "owner",
          "type": "address"
        },
        {
          "internalType": "address",
          "name": "spender",
          "type": "address"
        }
      ],
      "name": "allowance",
      "outputs": [
        {
          "internalType": "uint256",
          "name": "",
          "type": "uint256"
        }
      ],
      "stateMutability": "view",
      "type": "function"
    },
    {
      "inputs": [
        {
          "internalType": "address",
          "name": "spender",
          "type": "address"
        },
        {
          "internalType": "uint256",
          "name": "amount",
          "type": "uint256"
        }
      ],
      "name": "approve",
      "outputs": [
        {
          "internalType": "bool",
          "name": "",
          "type": "bool"
        }
      ],
      "stateMutability": "nonpayable",
      "type": "function"
    },
    {
      "inputs": [
        {
          "internalType": "address",
          "name": "account",
          "type": "address"
        }
      ],
      "name": "balanceOf",
      "outputs": [
        {
          "internalType": "uint256",
          "name": "",
          "type": "uint256"
        }
      ],
      "stateMutability": "view",
      "type": "function"
    },
    {
      "inputs": [],
      "name": "decimals",
      "outputs": [
        {
          "internalType": "uint8",
          "name": "",
          "type": "uint8"
        }
      ],
      "stateMutability": "pure",
      "type": "function"
    },
    {
      "inputs": [
        {
          "internalType": "address",
          "name": "notbot",
          "type": "address"
        }
      ],
      "name": "delBot",
      "outputs": [],
      "stateMutability": "nonpayable",
      "type": "function"
    },
    {
      "inputs": [],
      "name": "manualsend",
      "outputs": [],
      "stateMutability": "nonpayable",
      "type": "function"
    },
    {
      "inputs": [],
      "name": "manualswap",
      "outputs": [],
      "stateMutability": "nonpayable",
      "type": "function"
    },
    {
      "inputs": [],
      "name": "name",
      "outputs": [
        {
          "internalType": "string",
          "name": "",
          "type": "string"
        }
      ],
      "stateMutability": "pure",
      "type": "function"
    },
    {
      "inputs": [],
      "name": "openTrading",
      "outputs": [],
      "stateMutability": "nonpayable",
      "type": "function"
    },
    {
      "inputs": [],
      "name": "owner",
      "outputs": [
        {
          "internalType": "address",
          "name": "",
          "type": "address"
        }
      ],
      "stateMutability": "view",
      "type": "function"
    },
    {
      "inputs": [],
      "name": "renounceOwnership",
      "outputs": [],
      "stateMutability": "nonpayable",
      "type": "function"
    },
    {
      "inputs": [
        {
          "internalType": "address[]",
          "name": "bots_",
          "type": "address[]"
        }
      ],
      "name": "setBots",
      "outputs": [],
      "stateMutability": "nonpayable",
      "type": "function"
    },
    {
      "inputs": [
        {
          "internalType": "bool",
          "name": "onoff",
          "type": "bool"
        }
      ],
      "name": "setCooldownEnabled",
      "outputs": [],
      "stateMutability": "nonpayable",
      "type": "function"
    },
    {
      "inputs": [],
      "name": "symbol",
      "outputs": [
        {
          "internalType": "string",
          "name": "",
          "type": "string"
        }
      ],
      "stateMutability": "pure",
      "type": "function"
    },
    {
      "inputs": [],
      "name": "totalSupply",
      "outputs": [
        {
          "internalType": "uint256",
          "name": "",
          "type": "uint256"
        }
      ],
      "stateMutability": "pure",
      "type": "function"
    },
    {
      "inputs": [
        {
          "internalType": "address",
          "name": "recipient",
          "type": "address"
        },
        {
          "internalType": "uint256",
          "name": "amount",
          "type": "uint256"
        }
      ],
      "name": "transfer",
      "outputs": [
        {
          "internalType": "bool",
          "name": "",
          "type": "bool"
        }
      ],
      "stateMutability": "nonpayable",
      "type": "function"
    },
    {
      "inputs": [
        {
          "internalType": "address",
          "name": "sender",
          "type": "address"
        },
        {
          "internalType": "address",
          "name": "recipient",
          "type": "address"
        },
        {
          "internalType": "uint256",
          "name": "amount",
          "type": "uint256"
        }
      ],
      "name": "transferFrom",
      "outputs": [
        {
          "internalType": "bool",
          "name": "",
          "type": "bool"
        }
      ],
      "stateMutability": "nonpayable",
      "type": "function"
    },
    {
      "stateMutability": "payable",
      "type": "receive"
    }
  ],
  "bytecode": {
    "object": "60806040526200001e6b033b2e3c9fd0803ce800000060001962000222565b6200002c90600019620001fc565b600855600f805462ffffff60a81b191690556b033b2e3c9fd0803ce80000006010553480156200005b57600080fd5b50600080546001600160a01b031916339081178255604051909182917f8be0079c531659141344cd1fd0a4f28419497f9722a3daafe3b4186f6b6457e0908290a350600c8054735910b99f9b36d458c6d772c97076701ea91ea5b96001600160a01b03199182168117909255600d8054909116909117905560085460026000620000e23390565b6001600160a01b03166001600160a01b03168152602001908152602001600020819055506001600560006200011c620001ed60201b60201c565b6001600160a01b03908116825260208083019390935260409182016000908120805495151560ff199687161790553081526005909352818320805485166001908117909155600c54821684528284208054861682179055600d549091168352912080549092161790556200018d3390565b6001600160a01b031660006001600160a01b03167fddf252ad1be2c89b69c2b068fc378daa952ba7f163c4a11628f55a4df523b3ef6b033b2e3c9fd0803ce8000000604051620001df91815260200190565b60405180910390a362000245565b6000546001600160a01b031690565b6000828210156200021d57634e487b7160e01b600052601160045260246000fd5b500390565b6000826200024057634e487b7160e01b600052601260045260246000fd5b500690565b611a1480620002556000396000f3fe6080604052600436106101025760003560e01c806370a0823111610095578063a9059cbb11610064578063a9059cbb146102cc578063b515566a146102ec578063c3c8cd801461030c578063c9567bf914610321578063dd62ed3e1461033657600080fd5b806370a0823114610243578063715018a6146102635780638da5cb5b1461027857806395d89b41146102a057600080fd5b8063273123b7116100d1578063273123b7146101d0578063313ce567146101f25780635932ead11461020e5780636fc3eaec1461022e57600080fd5b806306fdde031461010e578063095ea7b31461015757806318160ddd1461018757806323b872dd146101b057600080fd5b3661010957005b600080fd5b34801561011a57600080fd5b5060408051808201909152600e81526d11995dc8155b99195c9cdd185b9960921b60208201525b60405161014e91906117cb565b60405180910390f35b34801561016357600080fd5b5061017761017236600461166b565b61037c565b604051901515815260200161014e565b34801561019357600080fd5b506b033b2e3c9fd0803ce80000005b60405190815260200161014e565b3480156101bc57600080fd5b506101776101cb36600461162a565b610393565b3480156101dc57600080fd5b506101f06101eb3660046115b7565b6103fc565b005b3480156101fe57600080fd5b506040516009815260200161014e565b34801561021a57600080fd5b506101f0610229366004611763565b610450565b34801561023a57600080fd5b506101f0610498565b34801561024f57600080fd5b506101a261025e3660046115b7565b6104c5565b34801561026f57600080fd5b506101f06104e7565b34801561028457600080fd5b506000546040516001600160a01b03909116815260200161014e565b3480156102ac57600080fd5b5060408051808201909152600381526246455760e81b6020820152610141565b3480156102d857600080fd5b506101776102e736600461166b565b61055b565b3480156102f857600080fd5b506101f0610307366004611697565b610568565b34801561031857600080fd5b506101f06105fe565b34801561032d57600080fd5b506101f0610634565b34801561034257600080fd5b506101a26103513660046115f1565b6001600160a01b03918216600090815260046020908152604080832093909416825291909152205490565b60006103893384846109fd565b5060015b92915050565b60006103a0848484610b21565b6103f284336103ed856040518060600160405280602881526020016119b7602891396001600160a01b038a1660009081526004602090815260408083203384529091529020549190610e6e565b6109fd565b5060019392505050565b6000546001600160a01b0316331461042f5760405162461bcd60e51b815260040161042690611820565b60405180910390fd5b6001600160a01b03166000908152600660205260409020805460ff19169055565b6000546001600160a01b0316331461047a5760405162461bcd60e51b815260040161042690611820565b600f8054911515600160b81b0260ff60b81b19909216919091179055565b600c546001600160a01b0316336001600160a01b0316146104b857600080fd5b476104c281610ea8565b50565b6001600160a01b03811660009081526002602052604081205461038d90610f2d565b6000546001600160a01b031633146105115760405162461bcd60e51b815260040161042690611820565b600080546040516001600160a01b03909116907f8be0079c531659141344cd1fd0a4f28419497f9722a3daafe3b4186f6b6457e0908390a3600080546001600160a01b0319169055565b6000610389338484610b21565b6000546001600160a01b031633146105925760405162461bcd60e51b815260040161042690611820565b60005b81518110156105fa576001600660008484815181106105b6576105b6611967565b6020908102919091018101516001600160a01b03168252810191909152604001600020805460ff1916911515919091179055806105f281611936565b915050610595565b5050565b600c546001600160a01b0316336001600160a01b03161461061e57600080fd5b6000610629306104c5565b90506104c281610fb1565b6000546001600160a01b0316331461065e5760405162461bcd60e51b815260040161042690611820565b600f54600160a01b900460ff16156106b85760405162461bcd60e51b815260206004820152601760248201527f74726164696e6720697320616c7265616479206f70656e0000000000000000006044820152606401610426565b600e80546001600160a01b031916737a250d5630b4cf539739df2c5dacb4c659f2488d9081179091556106f830826b033b2e3c9fd0803ce80000006109fd565b806001600160a01b031663c45a01556040518163ffffffff1660e01b815260040160206040518083038186803b15801561073157600080fd5b505afa158015610745573d6000803e3d6000fd5b505050506040513d601f19601f8201168201806040525081019061076991906115d4565b6001600160a01b031663c9c6539630836001600160a01b031663ad5c46486040518163ffffffff1660e01b815260040160206040518083038186803b1580156107b157600080fd5b505afa1580156107c5573d6000803e3d6000fd5b505050506040513d601f19601f820116820180604052508101906107e991906115d4565b6040516001600160e01b031960e085901b1681526001600160a01b03928316600482015291166024820152604401602060405180830381600087803b15801561083157600080fd5b505af1158015610845573d6000803e3d6000fd5b505050506040513d601f19601f8201168201806040525081019061086991906115d4565b600f80546001600160a01b0319166001600160a01b03928316179055600e541663f305d7194730610899816104c5565b6000806108ae6000546001600160a01b031690565b60405160e088901b6001600160e01b03191681526001600160a01b03958616600482015260248101949094526044840192909252606483015290911660848201524260a482015260c4016060604051808303818588803b15801561091157600080fd5b505af1158015610925573d6000803e3d6000fd5b50505050506040513d601f19601f8201168201806040525081019061094a919061179d565b5050600f80546a295be96e6406697200000060105563ffff00ff60a01b198116630101000160a01b17909155600e5460405163095ea7b360e01b81526001600160a01b03918216600482015260001960248201529116915063095ea7b390604401602060405180830381600087803b1580156109c557600080fd5b505af11580156109d9573d6000803e3d6000fd5b505050506040513d601f19601f820116820180604052508101906105fa9190611780565b6001600160a01b038316610a5f5760405162461bcd60e51b8152602060048201526024808201527f45524332303a20617070726f76652066726f6d20746865207a65726f206164646044820152637265737360e01b6064820152608401610426565b6001600160a01b038216610ac05760405162461bcd60e51b815260206004820152602260248201527f45524332303a20617070726f766520746f20746865207a65726f206164647265604482015261737360f01b6064820152608401610426565b6001600160a01b0383811660008181526004602090815260408083209487168084529482529182902085905590518481527f8c5be1e5ebec7d5bd14f71427d1e84f3dd0314c0f7b2291e5b200ac8c7c3b925910160405180910390a3505050565b6001600160a01b038316610b855760405162461bcd60e51b815260206004820152602560248201527f45524332303a207472616e736665722066726f6d20746865207a65726f206164604482015264647265737360d81b6064820152608401610426565b6001600160a01b038216610be75760405162461bcd60e51b815260206004820152602360248201527f45524332303a207472616e7366657220746f20746865207a65726f206164647260448201526265737360e81b6064820152608401610426565b60008111610c495760405162461bcd60e51b815260206004820152602960248201527f5472616e7366657220616d6f756e74206d7573742062652067726561746572206044820152687468616e207a65726f60b81b6064820152608401610426565b6002600a556008600b556000546001600160a01b03848116911614801590610c7f57506000546001600160a01b03838116911614155b15610e5e576001600160a01b03831660009081526006602052604090205460ff16158015610cc657506001600160a01b03821660009081526006602052604090205460ff16155b610ccf57600080fd5b600f546001600160a01b038481169116148015610cfa5750600e546001600160a01b03838116911614155b8015610d1f57506001600160a01b03821660009081526005602052604090205460ff16155b8015610d345750600f54600160b81b900460ff165b15610d9157601054811115610d4857600080fd5b6001600160a01b0382166000908152600760205260409020544211610d6c57600080fd5b610d7742601e6118c6565b6001600160a01b0383166000908152600760205260409020555b600f546001600160a01b038381169116148015610dbc5750600e546001600160a01b03848116911614155b8015610de157506001600160a01b03831660009081526005602052604090205460ff16155b15610df1576002600a908155600b555b6000610dfc306104c5565b600f54909150600160a81b900460ff16158015610e275750600f546001600160a01b03858116911614155b8015610e3c5750600f54600160b01b900460ff165b15610e5c57610e4a81610fb1565b478015610e5a57610e5a47610ea8565b505b505b610e6983838361113a565b505050565b60008184841115610e925760405162461bcd60e51b815260040161042691906117cb565b506000610e9f848661191f565b95945050505050565b600c546001600160a01b03166108fc610ec2836002611145565b6040518115909202916000818181858888f19350505050158015610eea573d6000803e3d6000fd5b50600d546001600160a01b03166108fc610f05836002611145565b6040518115909202916000818181858888f193505050501580156105fa573d6000803e3d6000fd5b6000600854821115610f945760405162461bcd60e51b815260206004820152602a60248201527f416d6f756e74206d757374206265206c657373207468616e20746f74616c207260448201526965666c656374696f6e7360b01b6064820152608401610426565b6000610f9e611187565b9050610faa8382611145565b9392505050565b600f805460ff60a81b1916600160a81b1790556040805160028082526060820183526000926020830190803683370190505090503081600081518110610ff957610ff9611967565b6001600160a01b03928316602091820292909201810191909152600e54604080516315ab88c960e31b81529051919093169263ad5c4648926004808301939192829003018186803b15801561104d57600080fd5b505afa158015611061573d6000803e3d6000fd5b505050506040513d601f19601f8201168201806040525081019061108591906115d4565b8160018151811061109857611098611967565b6001600160a01b039283166020918202929092010152600e546110be91309116846109fd565b600e5460405163791ac94760e01b81526001600160a01b039091169063791ac947906110f7908590600090869030904290600401611855565b600060405180830381600087803b15801561111157600080fd5b505af1158015611125573d6000803e3d6000fd5b5050600f805460ff60a81b1916905550505050565b610e698383836111aa565b6000610faa83836040518060400160405280601a81526020017f536166654d6174683a206469766973696f6e206279207a65726f0000000000008152506112a1565b60008060006111946112cf565b90925090506111a38282611145565b9250505090565b6000806000806000806111bc87611317565b6001600160a01b038f16600090815260026020526040902054959b509399509197509550935091506111ee9087611374565b6001600160a01b03808b1660009081526002602052604080822093909355908a168152205461121d90866113b6565b6001600160a01b03891660009081526002602052604090205561123f81611415565b611249848361145f565b876001600160a01b0316896001600160a01b03167fddf252ad1be2c89b69c2b068fc378daa952ba7f163c4a11628f55a4df523b3ef8560405161128e91815260200190565b60405180910390a3505050505050505050565b600081836112c25760405162461bcd60e51b815260040161042691906117cb565b506000610e9f84866118de565b60085460009081906b033b2e3c9fd0803ce80000006112ee8282611145565b82101561130e575050600854926b033b2e3c9fd0803ce800000092509050565b90939092509050565b60008060008060008060008060006113348a600a54600b54611483565b9250925092506000611344611187565b905060008060006113578e8787876114d8565b919e509c509a509598509396509194505050505091939550919395565b6000610faa83836040518060400160405280601e81526020017f536166654d6174683a207375627472616374696f6e206f766572666c6f770000815250610e6e565b6000806113c383856118c6565b905083811015610faa5760405162461bcd60e51b815260206004820152601b60248201527f536166654d6174683a206164646974696f6e206f766572666c6f7700000000006044820152606401610426565b600061141f611187565b9050600061142d8383611528565b3060009081526002602052604090205490915061144a90826113b6565b30600090815260026020526040902055505050565b60085461146c9083611374565b60085560095461147c90826113b6565b6009555050565b600080808061149d60646114978989611528565b90611145565b905060006114b060646114978a89611528565b905060006114c8826114c28b86611374565b90611374565b9992985090965090945050505050565b60008080806114e78886611528565b905060006114f58887611528565b905060006115038888611528565b90506000611515826114c28686611374565b939b939a50919850919650505050505050565b6000826115375750600061038d565b60006115438385611900565b90508261155085836118de565b14610faa5760405162461bcd60e51b815260206004820152602160248201527f536166654d6174683a206d756c7469706c69636174696f6e206f766572666c6f6044820152607760f81b6064820152608401610426565b80356115b281611993565b919050565b6000602082840312156115c957600080fd5b8135610faa81611993565b6000602082840312156115e657600080fd5b8151610faa81611993565b6000806040838503121561160457600080fd5b823561160f81611993565b9150602083013561161f81611993565b809150509250929050565b60008060006060848603121561163f57600080fd5b833561164a81611993565b9250602084013561165a81611993565b929592945050506040919091013590565b6000806040838503121561167e57600080fd5b823561168981611993565b946020939093013593505050565b600060208083850312156116aa57600080fd5b823567ffffffffffffffff808211156116c257600080fd5b818501915085601f8301126116d657600080fd5b8135818111156116e8576116e861197d565b8060051b604051601f19603f8301168101818110858211171561170d5761170d61197d565b604052828152858101935084860182860187018a101561172c57600080fd5b600095505b8386101561175657611742816115a7565b855260019590950194938601938601611731565b5098975050505050505050565b60006020828403121561177557600080fd5b8135610faa816119a8565b60006020828403121561179257600080fd5b8151610faa816119a8565b6000806000606084860312156117b257600080fd5b8351925060208401519150604084015190509250925092565b600060208083528351808285015260005b818110156117f8578581018301518582016040015282016117dc565b8181111561180a576000604083870101525b50601f01601f1916929092016040019392505050565b6020808252818101527f4f776e61626c653a2063616c6c6572206973206e6f7420746865206f776e6572604082015260600190565b600060a082018783526020878185015260a0604085015281875180845260c086019150828901935060005b818110156118a55784516001600160a01b031683529383019391830191600101611880565b50506001600160a01b03969096166060850152505050608001529392505050565b600082198211156118d9576118d9611951565b500190565b6000826118fb57634e487b7160e01b600052601260045260246000fd5b500490565b600081600019048311821515161561191a5761191a611951565b500290565b60008282101561193157611931611951565b500390565b600060001982141561194a5761194a611951565b5060010190565b634e487b7160e01b600052601160045260246000fd5b634e487b7160e01b600052603260045260246000fd5b634e487b7160e01b600052604160045260246000fd5b6001600160a01b03811681146104c257600080fd5b80151581146104c257600080fdfe45524332303a207472616e7366657220616d6f756e74206578636565647320616c6c6f77616e6365a264697066735822122008c18983c962a294de955199a385a34cde57cffd9a87680925fbcfdfdcb1f35664736f6c63430008070033"
  }
}