{
  "opcodeHash": "0xe7a2d541c13236d59c2d5e8d45b5263fe9fb5c2b1de92e495bb56a3e44af09c4",
  "metalessHash": "0x7e915295eaa65ee6a347d2c4f344ccd4699ed9b575a37826c5a9a4b78e4a55ab",
  "runtimeHash": "0xe8c1ec0457e2e3dde12068ef772adc08787b9309e12f2923ef43634c11ca14d4",
  "encodedMetadata": [
    {
      "ipfs": "/ipfs/QmScctZXb5AeGeuFTBYRq2VmqJDXoRQRoMgDW4WAamUH3e",
      "solc": "0.8.7"
    }
  ],
  "abi": [
    {
      "inputs": [
        {
          "internalType": "string",
          "name": "_name",
          "type": "string"
        },
        {
          "internalType": "string",
          "name": "_symbol",
          "type": "string"
        }
      ],
      "stateMutability": "nonpayable",
      "type": "constructor"
    },
    {
      "anonymous": false,
      "inputs": [
        {
          "indexed": true,
          "internalType": "address",
          "name": "owner",
          "type": "address"
        },
        {
          "indexed": true,
          "internalType": "address",
          "name": "approved",
          "type": "address"
        },
        {
          "indexed": true,
          "internalType": "uint256",
          "name": "tokenId",
          "type": "uint256"
        }
      ],
      "name": "Approval",
      "type": "event"
    },
    {
      "anonymous": false,
      "inputs": [
        {
          "indexed": true,
          "internalType": "address",
          "name": "owner",
          "type": "address"
        },
        {
          "indexed": true,
          "internalType": "address",
          "name": "operator",
          "type": "address"
        },
        {
          "indexed": false,
          "internalType": "bool",
          "name": "approved",
          "type": "bool"
        }
      ],
      "name": "ApprovalForAll",
      "type": "event"
    },
    {
      "anonymous": false,
      "inputs": [
        {
          "indexed": true,
          "internalType": "address",
          "name": "previousOwner",
          "type": "address"
        },
        {
          "indexed": true,
          "internalType": "address",
          "name": "newOwner",
          "type": "address"
        }
      ],
      "name": "OwnershipTransferred",
      "type": "event"
    },
    {
      "anonymous": false,
      "inputs": [
        {
          "indexed": true,
          "internalType": "address",
          "name": "from",
          "type": "address"
        },
        {
          "indexed": true,
          "internalType": "address",
          "name": "to",
          "type": "address"
        },
        {
          "indexed": true,
          "internalType": "uint256",
          "name": "tokenId",
          "type": "uint256"
        }
      ],
      "name": "Transfer",
      "type": "event"
    },
    {
      "inputs": [
        {
          "internalType": "address[]",
          "name": "_users",
          "type": "address[]"
        }
      ],
      "name": "addGiveawayUsers",
      "outputs": [],
      "stateMutability": "nonpayable",
      "type": "function"
    },
    {
      "inputs": [
        {
          "internalType": "address[]",
          "name": "_users",
          "type": "address[]"
        }
      ],
      "name": "addWhitelistUsers",
      "outputs": [],
      "stateMutability": "nonpayable",
      "type": "function"
    },
    {
      "inputs": [
        {
          "internalType": "address",
          "name": "",
          "type": "address"
        }
      ],
      "name": "addressMintedBalance",
      "outputs": [
        {
          "internalType": "uint256",
          "name": "",
          "type": "uint256"
        }
      ],
      "stateMutability": "view",
      "type": "function"
    },
    {
      "inputs": [
        {
          "internalType": "address",
          "name": "to",
          "type": "address"
        },
        {
          "internalType": "uint256",
          "name": "tokenId",
          "type": "uint256"
        }
      ],
      "name": "approve",
      "outputs": [],
      "stateMutability": "nonpayable",
      "type": "function"
    },
    {
      "inputs": [
        {
          "internalType": "address",
          "name": "owner",
          "type": "address"
        }
      ],
      "name": "balanceOf",
      "outputs": [
        {
          "internalType": "uint256",
          "name": "",
          "type": "uint256"
        }
      ],
      "stateMutability": "view",
      "type": "function"
    },
    {
      "inputs": [],
      "name": "cost",
      "outputs": [
        {
          "internalType": "uint256",
          "name": "",
          "type": "uint256"
        }
      ],
      "stateMutability": "view",
      "type": "function"
    },
    {
      "inputs": [
        {
          "internalType": "uint256",
          "name": "tokenId",
          "type": "uint256"
        }
      ],
      "name": "getApproved",
      "outputs": [
        {
          "internalType": "address",
          "name": "",
          "type": "address"
        }
      ],
      "stateMutability": "view",
      "type": "function"
    },
    {
      "inputs": [
        {
          "internalType": "address",
          "name": "",
          "type": "address"
        }
      ],
      "name": "giveawayAddresses",
      "outputs": [
        {
          "internalType": "bool",
          "name": "",
          "type": "bool"
        }
      ],
      "stateMutability": "view",
      "type": "function"
    },
    {
      "inputs": [
        {
          "internalType": "address",
          "name": "_user",
          "type": "address"
        }
      ],
      "name": "giveawayList",
      "outputs": [
        {
          "internalType": "bool",
          "name": "",
          "type": "bool"
        }
      ],
      "stateMutability": "view",
      "type": "function"
    },
    {
      "inputs": [
        {
          "internalType": "address",
          "name": "owner",
          "type": "address"
        },
        {
          "internalType": "address",
          "name": "operator",
          "type": "address"
        }
      ],
      "name": "isApprovedForAll",
      "outputs": [
        {
          "internalType": "bool",
          "name": "",
          "type": "bool"
        }
      ],
      "stateMutability": "view",
      "type": "function"
    },
    {
      "inputs": [
        {
          "internalType": "address",
          "name": "_user",
          "type": "address"
        }
      ],
      "name": "isWhitelisted",
      "outputs": [
        {
          "internalType": "bool",
          "name": "",
          "type": "bool"
        }
      ],
      "stateMutability": "view",
      "type": "function"
    },
    {
      "inputs": [],
      "name": "maxMintAmount",
      "outputs": [
        {
          "internalType": "uint256",
          "name": "",
          "type": "uint256"
        }
      ],
      "stateMutability": "view",
      "type": "function"
    },
    {
      "inputs": [],
      "name": "maxSupply",
      "outputs": [
        {
          "internalType": "uint256",
          "name": "",
          "type": "uint256"
        }
      ],
      "stateMutability": "view",
      "type": "function"
    },
    {
      "inputs": [
        {
          "internalType": "uint256",
          "name": "_mintAmount",
          "type": "uint256"
        }
      ],
      "name": "mint",
      "outputs": [],
      "stateMutability": "payable",
      "type": "function"
    },
    {
      "inputs": [],
      "name": "name",
      "outputs": [
        {
          "internalType": "string",
          "name": "",
          "type": "string"
        }
      ],
      "stateMutability": "view",
      "type": "function"
    },
    {
      "inputs": [],
      "name": "nftGiveawayLimit",
      "outputs": [
        {
          "internalType": "uint256",
          "name": "",
          "type": "uint256"
        }
      ],
      "stateMutability": "view",
      "type": "function"
    },
    {
      "inputs": [],
      "name": "nftPerAddressLimit",
      "outputs": [
        {
          "internalType": "uint256",
          "name": "",
          "type": "uint256"
        }
      ],
      "stateMutability": "view",
      "type": "function"
    },
    {
      "inputs": [],
      "name": "onlyWhitelisted",
      "outputs": [
        {
          "internalType": "bool",
          "name": "",
          "type": "bool"
        }
      ],
      "stateMutability": "view",
      "type": "function"
    },
    {
      "inputs": [],
      "name": "owner",
      "outputs": [
        {
          "internalType": "address",
          "name": "",
          "type": "address"
        }
      ],
      "stateMutability": "view",
      "type": "function"
    },
    {
      "inputs": [
        {
          "internalType": "uint256",
          "name": "tokenId",
          "type": "uint256"
        }
      ],
      "name": "ownerOf",
      "outputs": [
        {
          "internalType": "address",
          "name": "",
          "type": "address"
        }
      ],
      "stateMutability": "view",
      "type": "function"
    },
    {
      "inputs": [],
      "name": "pause",
      "outputs": [],
      "stateMutability": "nonpayable",
      "type": "function"
    },
    {
      "inputs": [],
      "name": "paused",
      "outputs": [
        {
          "internalType": "bool",
          "name": "",
          "type": "bool"
        }
      ],
      "stateMutability": "view",
      "type": "function"
    },
    {
      "inputs": [],
      "name": "renounceOwnership",
      "outputs": [],
      "stateMutability": "nonpayable",
      "type": "function"
    },
    {
      "inputs": [],
      "name": "reveal",
      "outputs": [],
      "stateMutability": "nonpayable",
      "type": "function"
    },
    {
      "inputs": [],
      "name": "revealed",
      "outputs": [
        {
          "internalType": "bool",
          "name": "",
          "type": "bool"
        }
      ],
      "stateMutability": "view",
      "type": "function"
    },
    {
      "inputs": [
        {
          "internalType": "address",
          "name": "from",
          "type": "address"
        },
        {
          "internalType": "address",
          "name": "to",
          "type": "address"
        },
        {
          "internalType": "uint256",
          "name": "tokenId",
          "type": "uint256"
        }
      ],
      "name": "safeTransferFrom",
      "outputs": [],
      "stateMutability": "nonpayable",
      "type": "function"
    },
    {
      "inputs": [
        {
          "internalType": "address",
          "name": "from",
          "type": "address"
        },
        {
          "internalType": "address",
          "name": "to",
          "type": "address"
        },
        {
          "internalType": "uint256",
          "name": "tokenId",
          "type": "uint256"
        },
        {
          "internalType": "bytes",
          "name": "_data",
          "type": "bytes"
        }
      ],
      "name": "safeTransferFrom",
      "outputs": [],
      "stateMutability": "nonpayable",
      "type": "function"
    },
    {
      "inputs": [
        {
          "internalType": "address",
          "name": "operator",
          "type": "address"
        },
        {
          "internalType": "bool",
          "name": "approved",
          "type": "bool"
        }
      ],
      "name": "setApprovalForAll",
      "outputs": [],
      "stateMutability": "nonpayable",
      "type": "function"
    },
    {
      "inputs": [
        {
          "internalType": "string",
          "name": "_newBaseURI",
          "type": "string"
        }
      ],
      "name": "setBaseURI",
      "outputs": [],
      "stateMutability": "nonpayable",
      "type": "function"
    },
    {
      "inputs": [
        {
          "internalType": "uint256",
          "name": "_newCost",
          "type": "uint256"
        }
      ],
      "name": "setCost",
      "outputs": [],
      "stateMutability": "nonpayable",
      "type": "function"
    },
    {
      "inputs": [
        {
          "internalType": "uint256",
          "name": "_limit",
          "type": "uint256"
        }
      ],
      "name": "setNftPerAddressLimit",
      "outputs": [],
      "stateMutability": "nonpayable",
      "type": "function"
    },
    {
      "inputs": [],
      "name": "setOnlyWhitelisted",
      "outputs": [],
      "stateMutability": "nonpayable",
      "type": "function"
    },
    {
      "inputs": [
        {
          "internalType": "uint256",
          "name": "_newmaxMintAmount",
          "type": "uint256"
        }
      ],
      "name": "setmaxMintAmount",
      "outputs": [],
      "stateMutability": "nonpayable",
      "type": "function"
    },
    {
      "inputs": [
        {
          "internalType": "bytes4",
          "name": "interfaceId",
          "type": "bytes4"
        }
      ],
      "name": "supportsInterface",
      "outputs": [
        {
          "internalType": "bool",
          "name": "",
          "type": "bool"
        }
      ],
      "stateMutability": "view",
      "type": "function"
    },
    {
      "inputs": [],
      "name": "symbol",
      "outputs": [
        {
          "internalType": "string",
          "name": "",
          "type": "string"
        }
      ],
      "stateMutability": "view",
      "type": "function"
    },
    {
      "inputs": [
        {
          "internalType": "uint256",
          "name": "index",
          "type": "uint256"
        }
      ],
      "name": "tokenByIndex",
      "outputs": [
        {
          "internalType": "uint256",
          "name": "",
          "type": "uint256"
        }
      ],
      "stateMutability": "view",
      "type": "function"
    },
    {
      "inputs": [
        {
          "internalType": "address",
          "name": "owner",
          "type": "address"
        },
        {
          "internalType": "uint256",
          "name": "index",
          "type": "uint256"
        }
      ],
      "name": "tokenOfOwnerByIndex",
      "outputs": [
        {
          "internalType": "uint256",
          "name": "",
          "type": "uint256"
        }
      ],
      "stateMutability": "view",
      "type": "function"
    },
    {
      "inputs": [
        {
          "internalType": "uint256",
          "name": "tokenId",
          "type": "uint256"
        }
      ],
      "name": "tokenURI",
      "outputs": [
        {
          "internalType": "string",
          "name": "",
          "type": "string"
        }
      ],
      "stateMutability": "view",
      "type": "function"
    },
    {
      "inputs": [],
      "name": "totalSupply",
      "outputs": [
        {
          "internalType": "uint256",
          "name": "",
          "type": "uint256"
        }
      ],
      "stateMutability": "view",
      "type": "function"
    },
    {
      "inputs": [
        {
          "internalType": "address",
          "name": "from",
          "type": "address"
        },
        {
          "internalType": "address",
          "name": "to",
          "type": "address"
        },
        {
          "internalType": "uint256",
          "name": "tokenId",
          "type": "uint256"
        }
      ],
      "name": "transferFrom",
      "outputs": [],
      "stateMutability": "nonpayable",
      "type": "function"
    },
    {
      "inputs": [
        {
          "internalType": "address",
          "name": "newOwner",
          "type": "address"
        }
      ],
      "name": "transferOwnership",
      "outputs": [],
      "stateMutability": "nonpayable",
      "type": "function"
    },
    {
      "inputs": [
        {
          "internalType": "address",
          "name": "_owner",
          "type": "address"
        }
      ],
      "name": "walletOfOwner",
      "outputs": [
        {
          "internalType": "uint256[]",
          "name": "",
          "type": "uint256[]"
        }
      ],
      "stateMutability": "view",
      "type": "function"
    },
    {
      "inputs": [
        {
          "internalType": "address",
          "name": "",
          "type": "address"
        }
      ],
      "name": "whitelistedAddresses",
      "outputs": [
        {
          "internalType": "bool",
          "name": "",
          "type": "bool"
        }
      ],
      "stateMutability": "view",
      "type": "function"
    },
    {
      "inputs": [],
      "name": "withdraw",
      "outputs": [],
      "stateMutability": "payable",
      "type": "function"
    }
  ],
  "bytecode": {
    "object": "608060405267016345785d8a0000600c5561270f600d556002600e819055600f5560016010556011805462ffffff1916620100001790553480156200004357600080fd5b5060405162002da138038062002da183398101604081905262000066916200026d565b8151829082906200007f90600090602085019062000110565b5080516200009590600190602084019062000110565b505050620000b2620000ac620000ba60201b60201c565b620000be565b50506200032a565b3390565b600a80546001600160a01b038381166001600160a01b0319831681179093556040519116919082907f8be0079c531659141344cd1fd0a4f28419497f9722a3daafe3b4186f6b6457e090600090a35050565b8280546200011e90620002d7565b90600052602060002090601f0160209004810192826200014257600085556200018d565b82601f106200015d57805160ff19168380011785556200018d565b828001600101855582156200018d579182015b828111156200018d57825182559160200191906001019062000170565b506200019b9291506200019f565b5090565b5b808211156200019b5760008155600101620001a0565b600082601f830112620001c857600080fd5b81516001600160401b0380821115620001e557620001e562000314565b604051601f8301601f19908116603f0116810190828211818310171562000210576200021062000314565b816040528381526020925086838588010111156200022d57600080fd5b600091505b8382101562000251578582018301518183018401529082019062000232565b83821115620002635760008385830101525b9695505050505050565b600080604083850312156200028157600080fd5b82516001600160401b03808211156200029957600080fd5b620002a786838701620001b6565b93506020850151915080821115620002be57600080fd5b50620002cd85828601620001b6565b9150509250929050565b600181811c90821680620002ec57607f821691505b602082108114156200030e57634e487b7160e01b600052602260045260246000fd5b50919050565b634e487b7160e01b600052604160045260246000fd5b612a67806200033a6000396000f3fe6080604052600436106102675760003560e01c80635c975abb11610144578063a0712d68116100b6578063c87b56dd1161007a578063c87b56dd14610749578063d0eb26b014610769578063d5abeb0114610789578063e985e9c51461079f578063f2fde38b146107e8578063f871b3b81461080857600080fd5b8063a0712d68146106cb578063a22cb465146106de578063a475b5dd146106fe578063b88d4fde14610713578063ba7d2c761461073357600080fd5b80637f00c7a6116101085780637f00c7a61461060a5780638456cb591461062a5780638d55e1eb1461063f5780638da5cb5b1461067857806395d89b41146106965780639c70b512146106ab57600080fd5b80635c975abb1461057b5780636352211e14610595578063686b2812146105b557806370a08231146105d5578063715018a6146105f557600080fd5b8063295e4c33116101dd57806342842e0e116101a157806342842e0e146104af578063438b6300146104cf57806344a0d68a146104fc5780634f6ccce71461051c578063518302271461053c57806355f804b31461055b57600080fd5b8063295e4c33146104095780632f745c591461041e5780633af32abf1461043e5780633ccfd60b146104775780634001d92c1461047f57600080fd5b806313faede61161022f57806313faede61461034d57806318160ddd1461037157806318cae269146103865780631cfba3c1146103b3578063239c70ae146103d357806323b872dd146103e957600080fd5b806301ffc9a71461026c57806306c933d8146102a157806306fdde03146102d1578063081812fc146102f3578063095ea7b31461032b575b600080fd5b34801561027857600080fd5b5061028c610287366004612601565b61081e565b60405190151581526020015b60405180910390f35b3480156102ad57600080fd5b5061028c6102bc366004612420565b60136020526000908152604090205460ff1681565b3480156102dd57600080fd5b506102e6610849565b6040516102989190612789565b3480156102ff57600080fd5b5061031361030e366004612684565b6108db565b6040516001600160a01b039091168152602001610298565b34801561033757600080fd5b5061034b610346366004612562565b610975565b005b34801561035957600080fd5b50610363600c5481565b604051908152602001610298565b34801561037d57600080fd5b50600854610363565b34801561039257600080fd5b506103636103a1366004612420565b60126020526000908152604090205481565b3480156103bf57600080fd5b5061034b6103ce36600461258c565b610a8b565b3480156103df57600080fd5b50610363600e5481565b3480156103f557600080fd5b5061034b61040436600461246e565b610b27565b34801561041557600080fd5b5061034b610b58565b34801561042a57600080fd5b50610363610439366004612562565b610ba1565b34801561044a57600080fd5b5061028c610459366004612420565b6001600160a01b031660009081526013602052604090205460ff1690565b61034b610c37565b34801561048b57600080fd5b5061028c61049a366004612420565b60146020526000908152604090205460ff1681565b3480156104bb57600080fd5b5061034b6104ca36600461246e565b610cd5565b3480156104db57600080fd5b506104ef6104ea366004612420565b610cf0565b6040516102989190612745565b34801561050857600080fd5b5061034b610517366004612684565b610d92565b34801561052857600080fd5b50610363610537366004612684565b610dc1565b34801561054857600080fd5b5060115461028c90610100900460ff1681565b34801561056757600080fd5b5061034b61057636600461263b565b610e54565b34801561058757600080fd5b5060115461028c9060ff1681565b3480156105a157600080fd5b506103136105b0366004612684565b610e95565b3480156105c157600080fd5b5061034b6105d036600461258c565b610f0c565b3480156105e157600080fd5b506103636105f0366004612420565b610fa8565b34801561060157600080fd5b5061034b61102f565b34801561061657600080fd5b5061034b610625366004612684565b611065565b34801561063657600080fd5b5061034b611094565b34801561064b57600080fd5b5061028c61065a366004612420565b6001600160a01b031660009081526014602052604090205460ff1690565b34801561068457600080fd5b50600a546001600160a01b0316610313565b3480156106a257600080fd5b506102e66110d2565b3480156106b757600080fd5b5060115461028c9062010000900460ff1681565b61034b6106d9366004612684565b6110e1565b3480156106ea57600080fd5b5061034b6106f9366004612526565b611533565b34801561070a57600080fd5b5061034b6115f8565b34801561071f57600080fd5b5061034b61072e3660046124aa565b611633565b34801561073f57600080fd5b50610363600f5481565b34801561075557600080fd5b506102e6610764366004612684565b611665565b34801561077557600080fd5b5061034b610784366004612684565b61176e565b34801561079557600080fd5b50610363600d5481565b3480156107ab57600080fd5b5061028c6107ba36600461243b565b6001600160a01b03918216600090815260056020908152604080832093909416825291909152205460ff1690565b3480156107f457600080fd5b5061034b610803366004612420565b61179d565b34801561081457600080fd5b5061036360105481565b60006001600160e01b0319821663780e9d6360e01b1480610843575061084382611835565b92915050565b60606000805461085890612902565b80601f016020809104026020016040519081016040528092919081815260200182805461088490612902565b80156108d15780601f106108a6576101008083540402835291602001916108d1565b820191906000526020600020905b8154815290600101906020018083116108b457829003601f168201915b5050505050905090565b6000818152600260205260408120546001600160a01b03166109595760405162461bcd60e51b815260206004820152602c60248201527f4552433732313a20617070726f76656420717565727920666f72206e6f6e657860448201526b34b9ba32b73a103a37b5b2b760a11b60648201526084015b60405180910390fd5b506000908152600460205260409020546001600160a01b031690565b600061098082610e95565b9050806001600160a01b0316836001600160a01b031614156109ee5760405162461bcd60e51b815260206004820152602160248201527f4552433732313a20617070726f76616c20746f2063757272656e74206f776e656044820152603960f91b6064820152608401610950565b336001600160a01b0382161480610a0a5750610a0a81336107ba565b610a7c5760405162461bcd60e51b815260206004820152603860248201527f4552433732313a20617070726f76652063616c6c6572206973206e6f74206f7760448201527f6e6572206e6f7220617070726f76656420666f7220616c6c00000000000000006064820152608401610950565b610a868383611885565b505050565b600a546001600160a01b03163314610ab55760405162461bcd60e51b8152600401610950906127ee565b60005b81811015610a8657600160146000858585818110610ad857610ad86129ae565b9050602002016020810190610aed9190612420565b6001600160a01b031681526020810191909152604001600020805460ff191691151591909117905580610b1f8161293d565b915050610ab8565b610b3133826118f3565b610b4d5760405162461bcd60e51b815260040161095090612823565b610a868383836119ea565b600a546001600160a01b03163314610b825760405162461bcd60e51b8152600401610950906127ee565b6011805462ff0000198116620100009182900460ff1615909102179055565b6000610bac83610fa8565b8210610c0e5760405162461bcd60e51b815260206004820152602b60248201527f455243373231456e756d657261626c653a206f776e657220696e646578206f7560448201526a74206f6620626f756e647360a81b6064820152608401610950565b506001600160a01b03919091166000908152600660209081526040808320938352929052205490565b600a546001600160a01b03163314610c615760405162461bcd60e51b8152600401610950906127ee565b6000610c75600a546001600160a01b031690565b6001600160a01b03164760405160006040518083038185875af1925050503d8060008114610cbf576040519150601f19603f3d011682016040523d82523d6000602084013e610cc4565b606091505b5050905080610cd257600080fd5b50565b610a8683838360405180602001604052806000815250611633565b60606000610cfd83610fa8565b905060008167ffffffffffffffff811115610d1a57610d1a6129c4565b604051908082528060200260200182016040528015610d43578160200160208202803683370190505b50905060005b82811015610d8a57610d5b8582610ba1565b828281518110610d6d57610d6d6129ae565b602090810291909101015280610d828161293d565b915050610d49565b509392505050565b600a546001600160a01b03163314610dbc5760405162461bcd60e51b8152600401610950906127ee565b600c55565b6000610dcc60085490565b8210610e2f5760405162461bcd60e51b815260206004820152602c60248201527f455243373231456e756d657261626c653a20676c6f62616c20696e646578206f60448201526b7574206f6620626f756e647360a01b6064820152608401610950565b60088281548110610e4257610e426129ae565b90600052602060002001549050919050565b600a546001600160a01b03163314610e7e5760405162461bcd60e51b8152600401610950906127ee565b8051610e9190600b9060208401906122f5565b5050565b6000818152600260205260408120546001600160a01b0316806108435760405162461bcd60e51b815260206004820152602960248201527f4552433732313a206f776e657220717565727920666f72206e6f6e657869737460448201526832b73a103a37b5b2b760b91b6064820152608401610950565b600a546001600160a01b03163314610f365760405162461bcd60e51b8152600401610950906127ee565b60005b81811015610a8657600160136000858585818110610f5957610f596129ae565b9050602002016020810190610f6e9190612420565b6001600160a01b031681526020810191909152604001600020805460ff191691151591909117905580610fa08161293d565b915050610f39565b60006001600160a01b0382166110135760405162461bcd60e51b815260206004820152602a60248201527f4552433732313a2062616c616e636520717565727920666f7220746865207a65604482015269726f206164647265737360b01b6064820152608401610950565b506001600160a01b031660009081526003602052604090205490565b600a546001600160a01b031633146110595760405162461bcd60e51b8152600401610950906127ee565b6110636000611b95565b565b600a546001600160a01b0316331461108f5760405162461bcd60e51b8152600401610950906127ee565b600e55565b600a546001600160a01b031633146110be5760405162461bcd60e51b8152600401610950906127ee565b6011805460ff19811660ff90911615179055565b60606001805461085890612902565b60115460ff161561112d5760405162461bcd60e51b81526020600482015260166024820152751d1a194818dbdb9d1c9858dd081a5cc81c185d5cd95960521b6044820152606401610950565b600061113860085490565b600c549091508261118b5760405162461bcd60e51b815260206004820152601b60248201527f4e65656420746f206d696e74206174206c656173742031204e465400000000006044820152606401610950565b600e548311156112035760405162461bcd60e51b815260206004820152603c60248201527f4d6178696d756d206d696e7420616d6f756e74207065722073657373696f6e2060448201527f6578636565646564202d20706c656173652074727920616761696e2e000000006064820152608401610950565b600d546112108385611be7565b111561125e5760405162461bcd60e51b815260206004820152601a60248201527f416c6c204e4654732068617665206265656e206d696e7465642e0000000000006044820152606401610950565b600a546001600160a01b031633146114d45733600090815260126020526040902054600f5461128d8286611be7565b11156112f85760405162461bcd60e51b815260206004820152603460248201527f596f752068617665207265616368656420746865206d6178696d756d206e756d6044820152733132b91037b31027232a399030b63637bbb2b21760611b6064820152608401610950565b60115462010000900460ff1615611378573360009081526013602052604090205460ff166113785760405162461bcd60e51b815260206004820152602760248201527f546869732077616c6c657420494420686173206e6f74206265656e2077686974604482015266195b1a5cdd195960ca1b6064820152608401610950565b3360009081526014602052604090205460ff161561140f576010548411156113f55760405162461bcd60e51b815260206004820152602a60248201527f5765206f6e6c79206f6666657220312066726565206769766561776179207065604482015269391030b2323932b9b99760b11b6064820152608401610950565b336000908152601460205260408120805460ff1916905591505b600061141b8386611c46565b9050803410156114625760405162461bcd60e51b8152602060048201526012602482015271696e73756666696369656e742066756e647360701b6044820152606401610950565b803411156114d157600061147682346128bf565b604051909150600090339083908381818185875af1925050503d80600081146114bb576040519150601f19603f3d011682016040523d82523d6000602084013e6114c0565b606091505b50509050806114ce57600080fd5b50505b50505b336000908152601260205260409020546114ee9084611be7565b3360009081526012602052604090205560015b83811161152d5761151b336115168584611be7565b611cc5565b806115258161293d565b915050611501565b50505050565b6001600160a01b03821633141561158c5760405162461bcd60e51b815260206004820152601960248201527f4552433732313a20617070726f766520746f2063616c6c6572000000000000006044820152606401610950565b3360008181526005602090815260408083206001600160a01b03871680855290835292819020805460ff191686151590811790915590519081529192917f17307eab39ab6107e8899845ad3d59bd9653f200f220920489ca2b5937696c31910160405180910390a35050565b600a546001600160a01b031633146116225760405162461bcd60e51b8152600401610950906127ee565b6011805461ff001916610100179055565b61163d33836118f3565b6116595760405162461bcd60e51b815260040161095090612823565b61152d84848484611cdf565b6000818152600260205260409020546060906001600160a01b03166116e45760405162461bcd60e51b815260206004820152602f60248201527f4552433732314d657461646174613a2055524920717565727920666f72206e6f60448201526e3732bc34b9ba32b73a103a37b5b2b760891b6064820152608401610950565b601154610100900460ff16611712576040518060800160405280604181526020016129f16041913992915050565b600061171c611d12565b9050600081511161173c5760405180602001604052806000815250611767565b8061174684611d21565b6040516020016117579291906126c9565b6040516020818303038152906040525b9392505050565b600a546001600160a01b031633146117985760405162461bcd60e51b8152600401610950906127ee565b600f55565b600a546001600160a01b031633146117c75760405162461bcd60e51b8152600401610950906127ee565b6001600160a01b03811661182c5760405162461bcd60e51b815260206004820152602660248201527f4f776e61626c653a206e6577206f776e657220697320746865207a65726f206160448201526564647265737360d01b6064820152608401610950565b610cd281611b95565b60006001600160e01b031982166380ac58cd60e01b148061186657506001600160e01b03198216635b5e139f60e01b145b8061084357506301ffc9a760e01b6001600160e01b0319831614610843565b600081815260046020526040902080546001600160a01b0319166001600160a01b03841690811790915581906118ba82610e95565b6001600160a01b03167f8c5be1e5ebec7d5bd14f71427d1e84f3dd0314c0f7b2291e5b200ac8c7c3b92560405160405180910390a45050565b6000818152600260205260408120546001600160a01b031661196c5760405162461bcd60e51b815260206004820152602c60248201527f4552433732313a206f70657261746f7220717565727920666f72206e6f6e657860448201526b34b9ba32b73a103a37b5b2b760a11b6064820152608401610950565b600061197783610e95565b9050806001600160a01b0316846001600160a01b031614806119b25750836001600160a01b03166119a7846108db565b6001600160a01b0316145b806119e257506001600160a01b0380821660009081526005602090815260408083209388168352929052205460ff165b949350505050565b826001600160a01b03166119fd82610e95565b6001600160a01b031614611a655760405162461bcd60e51b815260206004820152602960248201527f4552433732313a207472616e73666572206f6620746f6b656e2074686174206960448201526839903737ba1037bbb760b91b6064820152608401610950565b6001600160a01b038216611ac75760405162461bcd60e51b8152602060048201526024808201527f4552433732313a207472616e7366657220746f20746865207a65726f206164646044820152637265737360e01b6064820152608401610950565b611ad2838383611e1f565b611add600082611885565b6001600160a01b0383166000908152600360205260408120805460019290611b069084906128bf565b90915550506001600160a01b0382166000908152600360205260408120805460019290611b34908490612874565b909155505060008181526002602052604080822080546001600160a01b0319166001600160a01b0386811691821790925591518493918716917fddf252ad1be2c89b69c2b068fc378daa952ba7f163c4a11628f55a4df523b3ef91a4505050565b600a80546001600160a01b038381166001600160a01b0319831681179093556040519116919082907f8be0079c531659141344cd1fd0a4f28419497f9722a3daafe3b4186f6b6457e090600090a35050565b600080611bf48385612874565b9050838110156117675760405162461bcd60e51b815260206004820152601b60248201527f536166654d6174683a206164646974696f6e206f766572666c6f7700000000006044820152606401610950565b600082611c5557506000610843565b6000611c6183856128a0565b905082611c6e858361288c565b146117675760405162461bcd60e51b815260206004820152602160248201527f536166654d6174683a206d756c7469706c69636174696f6e206f766572666c6f6044820152607760f81b6064820152608401610950565b610e91828260405180602001604052806000815250611ed7565b611cea8484846119ea565b611cf684848484611f0a565b61152d5760405162461bcd60e51b81526004016109509061279c565b6060600b805461085890612902565b606081611d455750506040805180820190915260018152600360fc1b602082015290565b8160005b8115611d6f5780611d598161293d565b9150611d689050600a8361288c565b9150611d49565b60008167ffffffffffffffff811115611d8a57611d8a6129c4565b6040519080825280601f01601f191660200182016040528015611db4576020820181803683370190505b5090505b84156119e257611dc96001836128bf565b9150611dd6600a86612958565b611de1906030612874565b60f81b818381518110611df657611df66129ae565b60200101906001600160f81b031916908160001a905350611e18600a8661288c565b9450611db8565b6001600160a01b038316611e7a57611e7581600880546000838152600960205260408120829055600182018355919091527ff3f7a9fe364faab93b216da50a3214154f22a0a2b415b23a84c8169e8b636ee30155565b611e9d565b816001600160a01b0316836001600160a01b031614611e9d57611e9d8382612017565b6001600160a01b038216611eb457610a86816120b4565b826001600160a01b0316826001600160a01b031614610a8657610a868282612163565b611ee183836121a7565b611eee6000848484611f0a565b610a865760405162461bcd60e51b81526004016109509061279c565b60006001600160a01b0384163b1561200c57604051630a85bd0160e11b81526001600160a01b0385169063150b7a0290611f4e903390899088908890600401612708565b602060405180830381600087803b158015611f6857600080fd5b505af1925050508015611f98575060408051601f3d908101601f19168201909252611f959181019061261e565b60015b611ff2573d808015611fc6576040519150601f19603f3d011682016040523d82523d6000602084013e611fcb565b606091505b508051611fea5760405162461bcd60e51b81526004016109509061279c565b805181602001fd5b6001600160e01b031916630a85bd0160e11b1490506119e2565b506001949350505050565b6000600161202484610fa8565b61202e91906128bf565b600083815260076020526040902054909150808214612081576001600160a01b03841660009081526006602090815260408083208584528252808320548484528184208190558352600790915290208190555b5060009182526007602090815260408084208490556001600160a01b039094168352600681528383209183525290812055565b6008546000906120c6906001906128bf565b600083815260096020526040812054600880549394509092849081106120ee576120ee6129ae565b90600052602060002001549050806008838154811061210f5761210f6129ae565b600091825260208083209091019290925582815260099091526040808220849055858252812055600880548061214757612147612998565b6001900381819060005260206000200160009055905550505050565b600061216e83610fa8565b6001600160a01b039093166000908152600660209081526040808320868452825280832085905593825260079052919091209190915550565b6001600160a01b0382166121fd5760405162461bcd60e51b815260206004820181905260248201527f4552433732313a206d696e7420746f20746865207a65726f20616464726573736044820152606401610950565b6000818152600260205260409020546001600160a01b0316156122625760405162461bcd60e51b815260206004820152601c60248201527f4552433732313a20746f6b656e20616c7265616479206d696e746564000000006044820152606401610950565b61226e60008383611e1f565b6001600160a01b0382166000908152600360205260408120805460019290612297908490612874565b909155505060008181526002602052604080822080546001600160a01b0319166001600160a01b03861690811790915590518392907fddf252ad1be2c89b69c2b068fc378daa952ba7f163c4a11628f55a4df523b3ef908290a45050565b82805461230190612902565b90600052602060002090601f0160209004810192826123235760008555612369565b82601f1061233c57805160ff1916838001178555612369565b82800160010185558215612369579182015b8281111561236957825182559160200191906001019061234e565b50612375929150612379565b5090565b5b80821115612375576000815560010161237a565b600067ffffffffffffffff808411156123a9576123a96129c4565b604051601f8501601f19908116603f011681019082821181831017156123d1576123d16129c4565b816040528093508581528686860111156123ea57600080fd5b858560208301376000602087830101525050509392505050565b80356001600160a01b038116811461241b57600080fd5b919050565b60006020828403121561243257600080fd5b61176782612404565b6000806040838503121561244e57600080fd5b61245783612404565b915061246560208401612404565b90509250929050565b60008060006060848603121561248357600080fd5b61248c84612404565b925061249a60208501612404565b9150604084013590509250925092565b600080600080608085870312156124c057600080fd5b6124c985612404565b93506124d760208601612404565b925060408501359150606085013567ffffffffffffffff8111156124fa57600080fd5b8501601f8101871361250b57600080fd5b61251a8782356020840161238e565b91505092959194509250565b6000806040838503121561253957600080fd5b61254283612404565b91506020830135801515811461255757600080fd5b809150509250929050565b6000806040838503121561257557600080fd5b61257e83612404565b946020939093013593505050565b6000806020838503121561259f57600080fd5b823567ffffffffffffffff808211156125b757600080fd5b818501915085601f8301126125cb57600080fd5b8135818111156125da57600080fd5b8660208260051b85010111156125ef57600080fd5b60209290920196919550909350505050565b60006020828403121561261357600080fd5b8135611767816129da565b60006020828403121561263057600080fd5b8151611767816129da565b60006020828403121561264d57600080fd5b813567ffffffffffffffff81111561266457600080fd5b8201601f8101841361267557600080fd5b6119e28482356020840161238e565b60006020828403121561269657600080fd5b5035919050565b600081518084526126b58160208601602086016128d6565b601f01601f19169290920160200192915050565b600083516126db8184602088016128d6565b8351908301906126ef8183602088016128d6565b64173539b7b760d91b9101908152600501949350505050565b6001600160a01b038581168252841660208201526040810183905260806060820181905260009061273b9083018461269d565b9695505050505050565b6020808252825182820181905260009190848201906040850190845b8181101561277d57835183529284019291840191600101612761565b50909695505050505050565b602081526000611767602083018461269d565b60208082526032908201527f4552433732313a207472616e7366657220746f206e6f6e20455243373231526560408201527131b2b4bb32b91034b6b83632b6b2b73a32b960711b606082015260800190565b6020808252818101527f4f776e61626c653a2063616c6c6572206973206e6f7420746865206f776e6572604082015260600190565b60208082526031908201527f4552433732313a207472616e736665722063616c6c6572206973206e6f74206f6040820152701ddb995c881b9bdc88185c1c1c9bdd9959607a1b606082015260800190565b600082198211156128875761288761296c565b500190565b60008261289b5761289b612982565b500490565b60008160001904831182151516156128ba576128ba61296c565b500290565b6000828210156128d1576128d161296c565b500390565b60005b838110156128f15781810151838201526020016128d9565b8381111561152d5750506000910152565b600181811c9082168061291657607f821691505b6020821081141561293757634e487b7160e01b600052602260045260246000fd5b50919050565b60006000198214156129515761295161296c565b5060010190565b60008261296757612967612982565b500690565b634e487b7160e01b600052601160045260246000fd5b634e487b7160e01b600052601260045260246000fd5b634e487b7160e01b600052603160045260246000fd5b634e487b7160e01b600052603260045260246000fd5b634e487b7160e01b600052604160045260246000fd5b6001600160e01b031981168114610cd257600080fdfe697066733a2f2f516d52725953554838545a55766b50717858794d637041636e4c4e6236735974504c626d4d703354746e5a4d55392f68696464656e2e6a736f6ea2646970667358221220d9bba39f6df97fde51aa778350973b456617963281b324dbaddead340d00775964736f6c63430008070033"
  }
}