{"compiler":"v0.8.7+commit.e28d00a7","opcodeHash":"0x87fe973652a34575e6d55ffd48552197dc1a87225c5536733b9f2c851d42233c","metalessHash":"0x7d5ad9cb692924411e23a1d862a765efe842e6bf2690e5630881b774344bd045","runtimeHash":"0x94b04a2dcd882f288a7bd281a1ee893aaadb0b80e323c259f396d5a71b33f6ad","encodedMetadata":[{"ipfs":"/ipfs/QmPHFwqfzxyk2r3rbcsnWoQWR935iWu5SJv6twppziC5hK","solc":"0.8.7"}],"abi":[{"inputs":[],"stateMutability":"nonpayable","type":"constructor"},{"anonymous":false,"inputs":[{"indexed":true,"internalType":"address","name":"owner","type":"address"},{"indexed":true,"internalType":"address","name":"approved","type":"address"},{"indexed":true,"internalType":"uint256","name":"tokenId","type":"uint256"}],"name":"Approval","type":"event"},{"anonymous":false,"inputs":[{"indexed":true,"internalType":"address","name":"owner","type":"address"},{"indexed":true,"internalType":"address","name":"operator","type":"address"},{"indexed":false,"internalType":"bool","name":"approved","type":"bool"}],"name":"ApprovalForAll","type":"event"},{"anonymous":false,"inputs":[{"indexed":true,"internalType":"address","name":"previousOwner","type":"address"},{"indexed":true,"internalType":"address","name":"newOwner","type":"address"}],"name":"OwnershipTransferred","type":"event"},{"anonymous":false,"inputs":[{"indexed":true,"internalType":"address","name":"from","type":"address"},{"indexed":true,"internalType":"address","name":"to","type":"address"},{"indexed":true,"internalType":"uint256","name":"tokenId","type":"uint256"}],"name":"Transfer","type":"event"},{"inputs":[],"name":"TT_GIFT","outputs":[{"internalType":"uint256","name":"","type":"uint256"}],"stateMutability":"view","type":"function"},{"inputs":[],"name":"TT_MAX","outputs":[{"internalType":"uint256","name":"","type":"uint256"}],"stateMutability":"view","type":"function"},{"inputs":[],"name":"TT_PER_MINT","outputs":[{"internalType":"uint256","name":"","type":"uint256"}],"stateMutability":"view","type":"function"},{"inputs":[],"name":"TT_PRICE","outputs":[{"internalType":"uint256","name":"","type":"uint256"}],"stateMutability":"view","type":"function"},{"inputs":[],"name":"TT_PRIVATE","outputs":[{"internalType":"uint256","name":"","type":"uint256"}],"stateMutability":"view","type":"function"},{"inputs":[],"name":"TT_PUBLIC","outputs":[{"internalType":"uint256","name":"","type":"uint256"}],"stateMutability":"view","type":"function"},{"inputs":[{"internalType":"address[]","name":"entries","type":"address[]"}],"name":"addToRareList","outputs":[],"stateMutability":"nonpayable","type":"function"},{"inputs":[{"internalType":"address","name":"to","type":"address"},{"internalType":"uint256","name":"tokenId","type":"uint256"}],"name":"approve","outputs":[],"stateMutability":"nonpayable","type":"function"},{"inputs":[{"internalType":"address","name":"owner","type":"address"}],"name":"balanceOf","outputs":[{"internalType":"uint256","name":"","type":"uint256"}],"stateMutability":"view","type":"function"},{"inputs":[{"internalType":"uint256","name":"tokenQuantity","type":"uint256"}],"name":"buy","outputs":[],"stateMutability":"payable","type":"function"},{"inputs":[{"internalType":"uint256","name":"limit","type":"uint256"}],"name":"changePresalePurchaseLimit","outputs":[],"stateMutability":"nonpayable","type":"function"},{"inputs":[{"internalType":"uint256","name":"price","type":"uint256"}],"name":"changePrice","outputs":[],"stateMutability":"nonpayable","type":"function"},{"inputs":[],"name":"contractURI","outputs":[{"internalType":"string","name":"","type":"string"}],"stateMutability":"view","type":"function"},{"inputs":[{"internalType":"uint256","name":"tokenId","type":"uint256"}],"name":"getApproved","outputs":[{"internalType":"address","name":"","type":"address"}],"stateMutability":"view","type":"function"},{"inputs":[{"internalType":"address[]","name":"receivers","type":"address[]"}],"name":"gift","outputs":[],"stateMutability":"nonpayable","type":"function"},{"inputs":[],"name":"giftedAmount","outputs":[{"internalType":"uint256","name":"","type":"uint256"}],"stateMutability":"view","type":"function"},{"inputs":[{"internalType":"address","name":"owner","type":"address"},{"internalType":"address","name":"operator","type":"address"}],"name":"isApprovedForAll","outputs":[{"internalType":"bool","name":"","type":"bool"}],"stateMutability":"view","type":"function"},{"inputs":[{"internalType":"address","name":"addr","type":"address"}],"name":"isPresaler","outputs":[{"internalType":"bool","name":"","type":"bool"}],"stateMutability":"view","type":"function"},{"inputs":[],"name":"lockMetadata","outputs":[],"stateMutability":"nonpayable","type":"function"},{"inputs":[],"name":"locked","outputs":[{"internalType":"bool","name":"","type":"bool"}],"stateMutability":"view","type":"function"},{"inputs":[],"name":"name","outputs":[{"internalType":"string","name":"","type":"string"}],"stateMutability":"view","type":"function"},{"inputs":[],"name":"owner","outputs":[{"internalType":"address","name":"","type":"address"}],"stateMutability":"view","type":"function"},{"inputs":[{"internalType":"uint256","name":"tokenId","type":"uint256"}],"name":"ownerOf","outputs":[{"internalType":"address","name":"","type":"address"}],"stateMutability":"view","type":"function"},{"inputs":[{"internalType":"uint256","name":"tokenQuantity","type":"uint256"}],"name":"presaleBuy","outputs":[],"stateMutability":"payable","type":"function"},{"inputs":[],"name":"presaleLive","outputs":[{"internalType":"bool","name":"","type":"bool"}],"stateMutability":"view","type":"function"},{"inputs":[],"name":"presalePurchaseLimit","outputs":[{"internalType":"uint256","name":"","type":"uint256"}],"stateMutability":"view","type":"function"},{"inputs":[{"internalType":"address","name":"addr","type":"address"}],"name":"presalePurchasedCount","outputs":[{"internalType":"uint256","name":"","type":"uint256"}],"stateMutability":"view","type":"function"},{"inputs":[],"name":"privateAmountMinted","outputs":[{"internalType":"uint256","name":"","type":"uint256"}],"stateMutability":"view","type":"function"},{"inputs":[],"name":"publicAmountMinted","outputs":[{"internalType":"uint256","name":"","type":"uint256"}],"stateMutability":"view","type":"function"},{"inputs":[{"internalType":"address","name":"","type":"address"}],"name":"rareList","outputs":[{"internalType":"bool","name":"","type":"bool"}],"stateMutability":"view","type":"function"},{"inputs":[{"internalType":"address","name":"","type":"address"}],"name":"rareListPurchases","outputs":[{"internalType":"uint256","name":"","type":"uint256"}],"stateMutability":"view","type":"function"},{"inputs":[{"internalType":"address[]","name":"entries","type":"address[]"}],"name":"removeFromRareList","outputs":[],"stateMutability":"nonpayable","type":"function"},{"inputs":[],"name":"renounceOwnership","outputs":[],"stateMutability":"nonpayable","type":"function"},{"inputs":[{"internalType":"uint256","name":"gifts","type":"uint256"},{"internalType":"uint256","name":"presale","type":"uint256"},{"internalType":"uint256","name":"publicSale","type":"uint256"}],"name":"reschedulePlan","outputs":[],"stateMutability":"nonpayable","type":"function"},{"inputs":[{"internalType":"address","name":"from","type":"address"},{"internalType":"address","name":"to","type":"address"},{"internalType":"uint256","name":"tokenId","type":"uint256"}],"name":"safeTransferFrom","outputs":[],"stateMutability":"nonpayable","type":"function"},{"inputs":[{"internalType":"address","name":"from","type":"address"},{"internalType":"address","name":"to","type":"address"},{"internalType":"uint256","name":"tokenId","type":"uint256"},{"internalType":"bytes","name":"_data","type":"bytes"}],"name":"safeTransferFrom","outputs":[],"stateMutability":"nonpayable","type":"function"},{"inputs":[],"name":"saleLive","outputs":[{"internalType":"bool","name":"","type":"bool"}],"stateMutability":"view","type":"function"},{"inputs":[{"internalType":"address","name":"operator","type":"address"},{"internalType":"bool","name":"approved","type":"bool"}],"name":"setApprovalForAll","outputs":[],"stateMutability":"nonpayable","type":"function"},{"inputs":[{"internalType":"string","name":"URI","type":"string"}],"name":"setBaseURI","outputs":[],"stateMutability":"nonpayable","type":"function"},{"inputs":[{"internalType":"string","name":"URI","type":"string"}],"name":"setContractURI","outputs":[],"stateMutability":"nonpayable","type":"function"},{"inputs":[{"internalType":"address","name":"addr","type":"address"}],"name":"setSignerAddress","outputs":[],"stateMutability":"nonpayable","type":"function"},{"inputs":[{"internalType":"bytes4","name":"interfaceId","type":"bytes4"}],"name":"supportsInterface","outputs":[{"internalType":"bool","name":"","type":"bool"}],"stateMutability":"view","type":"function"},{"inputs":[],"name":"symbol","outputs":[{"internalType":"string","name":"","type":"string"}],"stateMutability":"view","type":"function"},{"inputs":[],"name":"togglePresaleStatus","outputs":[],"stateMutability":"nonpayable","type":"function"},{"inputs":[],"name":"toggleSaleStatus","outputs":[],"stateMutability":"nonpayable","type":"function"},{"inputs":[{"internalType":"uint256","name":"index","type":"uint256"}],"name":"tokenByIndex","outputs":[{"internalType":"uint256","name":"","type":"uint256"}],"stateMutability":"view","type":"function"},{"inputs":[{"internalType":"address","name":"owner","type":"address"},{"internalType":"uint256","name":"index","type":"uint256"}],"name":"tokenOfOwnerByIndex","outputs":[{"internalType":"uint256","name":"","type":"uint256"}],"stateMutability":"view","type":"function"},{"inputs":[{"internalType":"uint256","name":"tokenId","type":"uint256"}],"name":"tokenURI","outputs":[{"internalType":"string","name":"","type":"string"}],"stateMutability":"view","type":"function"},{"inputs":[],"name":"totalSupply","outputs":[{"internalType":"uint256","name":"","type":"uint256"}],"stateMutability":"view","type":"function"},{"inputs":[{"internalType":"address","name":"from","type":"address"},{"internalType":"address","name":"to","type":"address"},{"internalType":"uint256","name":"tokenId","type":"uint256"}],"name":"transferFrom","outputs":[],"stateMutability":"nonpayable","type":"function"},{"inputs":[{"internalType":"address","name":"newOwner","type":"address"}],"name":"transferOwnership","outputs":[],"stateMutability":"nonpayable","type":"function"},{"inputs":[],"name":"withdraw","outputs":[],"stateMutability":"nonpayable","type":"function"}],"bytecode":{"object":"60806040526063600b55610384600c55612328600d55600d54600c54600b546200002a919062000249565b62000036919062000249565b600e556014600f556040805180820190915260208082527f68747470733a2f2f6170692e7a696e6275636b732e636f6d2f6e66742f54542f9181019182526200008291601391620001a3565b50601480546001600160a01b03191673c60112c3fb0aebb86a835121ebda43373eac0f1d178155666a94d74f430000601555601955348015620000c457600080fd5b50604080518082018252600d81526c5472656e64792054696765727360981b602080830191825283518085019094526002845261151560f21b9084015281519192916200011491600091620001a3565b5080516200012a906001906020840190620001a3565b50505062000147620001416200014d60201b60201c565b62000151565b620002ad565b3390565b600a80546001600160a01b038381166001600160a01b0319831681179093556040519116919082907f8be0079c531659141344cd1fd0a4f28419497f9722a3daafe3b4186f6b6457e090600090a35050565b828054620001b19062000270565b90600052602060002090601f016020900481019282620001d5576000855562000220565b82601f10620001f057805160ff191683800117855562000220565b8280016001018555821562000220579182015b828111156200022057825182559160200191906001019062000203565b506200022e92915062000232565b5090565b5b808211156200022e576000815560010162000233565b600082198211156200026b57634e487b7160e01b600052601160045260246000fd5b500190565b600181811c908216806200028557607f821691505b60208210811415620002a757634e487b7160e01b600052602260045260246000fd5b50919050565b612cc580620002bd6000396000f3fe6080604052600436106102ff5760003560e01c80637bffb4ce11610190578063a2b40d19116100dc578063d3e7a1d611610095578063e8a3d4851161006f578063e8a3d485146108c1578063e985e9c5146108d6578063f2fde38b1461091f578063f47430701461093f57600080fd5b8063d3e7a1d61461086f578063d96a094a1461088f578063e081b781146108a257600080fd5b8063a2b40d19146107c3578063b3fe88e3146107e3578063b88d4fde146107f9578063c471f8a014610819578063c87b56dd1461082f578063cf3090121461084f57600080fd5b8063940f1ada116101495780639d397ae0116101235780639d397ae01461073e5780639e273b2f14610754578063a097297e1461078d578063a22cb465146107a357600080fd5b8063940f1ada146106fe57806395d89b4114610714578063989bdbb61461072957600080fd5b80637bffb4ce1461065e5780637c81902614610673578063815f7bbd1461069357806383a9e049146106a65780638da5cb5b146106c0578063938e3d7b146106de57600080fd5b8063287693151161024f57806353c5f95b116102085780635ce7af1f116101e25780635ce7af1f146105d35780636352211e1461060957806370a0823114610629578063715018a61461064957600080fd5b806353c5f95b1461057d57806355f804b31461059d57806359a12ad5146105bd57600080fd5b806328769315146104c55780632f4273db146104f25780632f745c59146105085780633ccfd60b1461052857806342842e0e1461053d5780634f6ccce71461055d57600080fd5b806313b1d8c2116102bc5780631b57190e116102965780631b57190e146104495780631c9cad2a1461045f5780631ce3a8471461048f57806323b872dd146104a557600080fd5b806313b1d8c2146103ea578063163e1e611461040a57806318160ddd1461042a57600080fd5b806301ffc9a714610304578063046dc16614610339578063049c5c491461035b57806306fdde0314610370578063081812fc14610392578063095ea7b3146103ca575b600080fd5b34801561031057600080fd5b5061032461031f3660046127d9565b610955565b60405190151581526020015b60405180910390f35b34801561034557600080fd5b50610359610354366004612591565b610980565b005b34801561036757600080fd5b506103596109d5565b34801561037c57600080fd5b50610385610a1c565b60405161033091906129e4565b34801561039e57600080fd5b506103b26103ad366004612873565b610aae565b6040516001600160a01b039091168152602001610330565b3480156103d657600080fd5b506103596103e536600461273a565b610b43565b3480156103f657600080fd5b5061035961040536600461288c565b610c59565b34801561041657600080fd5b50610359610425366004612764565b610caf565b34801561043657600080fd5b506008545b604051908152602001610330565b34801561045557600080fd5b5061043b60165481565b34801561046b57600080fd5b5061032461047a366004612591565b60106020526000908152604090205460ff1681565b34801561049b57600080fd5b5061043b60155481565b3480156104b157600080fd5b506103596104c03660046125e6565b610de6565b3480156104d157600080fd5b5061043b6104e0366004612591565b60116020526000908152604090205481565b3480156104fe57600080fd5b5061043b600b5481565b34801561051457600080fd5b5061043b61052336600461273a565b610e17565b34801561053457600080fd5b50610359610ead565b34801561054957600080fd5b506103596105583660046125e6565b610f06565b34801561056957600080fd5b5061043b610578366004612873565b610f21565b34801561058957600080fd5b50610359610598366004612873565b610fb4565b3480156105a957600080fd5b506103596105b8366004612813565b610fe3565b3480156105c957600080fd5b5061043b60185481565b3480156105df57600080fd5b5061043b6105ee366004612591565b6001600160a01b031660009081526011602052604090205490565b34801561061557600080fd5b506103b2610624366004612873565b611042565b34801561063557600080fd5b5061043b610644366004612591565b6110b9565b34801561065557600080fd5b50610359611140565b34801561066a57600080fd5b50610359611176565b34801561067f57600080fd5b5061035961068e366004612764565b6111b4565b6103596106a1366004612873565b6112e8565b3480156106b257600080fd5b50601a546103249060ff1681565b3480156106cc57600080fd5b50600a546001600160a01b03166103b2565b3480156106ea57600080fd5b506103596106f9366004612813565b61152e565b34801561070a57600080fd5b5061043b60175481565b34801561072057600080fd5b5061038561158d565b34801561073557600080fd5b5061035961159c565b34801561074a57600080fd5b5061043b600d5481565b34801561076057600080fd5b5061032461076f366004612591565b6001600160a01b031660009081526010602052604090205460ff1690565b34801561079957600080fd5b5061043b600e5481565b3480156107af57600080fd5b506103596107be3660046126fe565b6115d9565b3480156107cf57600080fd5b506103596107de366004612873565b61169e565b3480156107ef57600080fd5b5061043b600c5481565b34801561080557600080fd5b50610359610814366004612622565b6116cd565b34801561082557600080fd5b5061043b600f5481565b34801561083b57600080fd5b5061038561084a366004612873565b611705565b34801561085b57600080fd5b50601a546103249062010000900460ff1681565b34801561087b57600080fd5b5061035961088a366004612764565b61179e565b61035961089d366004612873565b611874565b3480156108ae57600080fd5b50601a5461032490610100900460ff1681565b3480156108cd57600080fd5b50610385611a62565b3480156108e257600080fd5b506103246108f13660046125b3565b6001600160a01b03918216600090815260056020908152604080832093909416825291909152205460ff1690565b34801561092b57600080fd5b5061035961093a366004612591565b611a71565b34801561094b57600080fd5b5061043b60195481565b60006001600160e01b0319821663780e9d6360e01b148061097a575061097a82611b09565b92915050565b600a546001600160a01b031633146109b35760405162461bcd60e51b81526004016109aa90612a49565b60405180910390fd5b601480546001600160a01b0319166001600160a01b0392909216919091179055565b600a546001600160a01b031633146109ff5760405162461bcd60e51b81526004016109aa90612a49565b601a805461ff001981166101009182900460ff1615909102179055565b606060008054610a2b90612ba1565b80601f0160208091040260200160405190810160405280929190818152602001828054610a5790612ba1565b8015610aa45780601f10610a7957610100808354040283529160200191610aa4565b820191906000526020600020905b815481529060010190602001808311610a8757829003601f168201915b5050505050905090565b6000818152600260205260408120546001600160a01b0316610b275760405162461bcd60e51b815260206004820152602c60248201527f4552433732313a20617070726f76656420717565727920666f72206e6f6e657860448201526b34b9ba32b73a103a37b5b2b760a11b60648201526084016109aa565b506000908152600460205260409020546001600160a01b031690565b6000610b4e82611042565b9050806001600160a01b0316836001600160a01b03161415610bbc5760405162461bcd60e51b815260206004820152602160248201527f4552433732313a20617070726f76616c20746f2063757272656e74206f776e656044820152603960f91b60648201526084016109aa565b336001600160a01b0382161480610bd85750610bd881336108f1565b610c4a5760405162461bcd60e51b815260206004820152603860248201527f4552433732313a20617070726f76652063616c6c6572206973206e6f74206f7760448201527f6e6572206e6f7220617070726f76656420666f7220616c6c000000000000000060648201526084016109aa565b610c548383611b59565b505050565b600a546001600160a01b03163314610c835760405162461bcd60e51b81526004016109aa90612a49565b600b839055600c829055600d81905580610c9d8385612b13565b610ca79190612b13565b600e55505050565b600a546001600160a01b03163314610cd95760405162461bcd60e51b81526004016109aa90612a49565b600e5481610ce660085490565b610cf09190612b13565b1115610d295760405162461bcd60e51b815260206004820152600860248201526713505617d352539560c21b60448201526064016109aa565b600b54601654610d3a908390612b13565b1115610d765760405162461bcd60e51b815260206004820152600b60248201526a47494654535f454d50545960a81b60448201526064016109aa565b60005b81811015610c545760168054906000610d9183612bdc565b9190505550610dd4838383818110610dab57610dab612c4d565b9050602002016020810190610dc09190612591565b6008545b610dcf906001612b13565b611bc7565b80610dde81612bdc565b915050610d79565b610df03382611be1565b610e0c5760405162461bcd60e51b81526004016109aa90612ac2565b610c54838383611cd8565b6000610e22836110b9565b8210610e845760405162461bcd60e51b815260206004820152602b60248201527f455243373231456e756d657261626c653a206f776e657220696e646578206f7560448201526a74206f6620626f756e647360a81b60648201526084016109aa565b506001600160a01b03919091166000908152600660209081526040808320938352929052205490565b600a546001600160a01b03163314610ed75760405162461bcd60e51b81526004016109aa90612a49565b60405133904780156108fc02916000818181858888f19350505050158015610f03573d6000803e3d6000fd5b50565b610c54838383604051806020016040528060008152506116cd565b6000610f2c60085490565b8210610f8f5760405162461bcd60e51b815260206004820152602c60248201527f455243373231456e756d657261626c653a20676c6f62616c20696e646578206f60448201526b7574206f6620626f756e647360a01b60648201526084016109aa565b60088281548110610fa257610fa2612c4d565b90600052602060002001549050919050565b600a546001600160a01b03163314610fde5760405162461bcd60e51b81526004016109aa90612a49565b601955565b600a546001600160a01b0316331461100d5760405162461bcd60e51b81526004016109aa90612a49565b601a5462010000900460ff16156110365760405162461bcd60e51b81526004016109aa90612a7e565b610c54601383836124dc565b6000818152600260205260408120546001600160a01b03168061097a5760405162461bcd60e51b815260206004820152602960248201527f4552433732313a206f776e657220717565727920666f72206e6f6e657869737460448201526832b73a103a37b5b2b760b91b60648201526084016109aa565b60006001600160a01b0382166111245760405162461bcd60e51b815260206004820152602a60248201527f4552433732313a2062616c616e636520717565727920666f7220746865207a65604482015269726f206164647265737360b01b60648201526084016109aa565b506001600160a01b031660009081526003602052604090205490565b600a546001600160a01b0316331461116a5760405162461bcd60e51b81526004016109aa90612a49565b6111746000611e83565b565b600a546001600160a01b031633146111a05760405162461bcd60e51b81526004016109aa90612a49565b601a805460ff19811660ff90911615179055565b600a546001600160a01b031633146111de5760405162461bcd60e51b81526004016109aa90612a49565b60005b81811015610c545760008383838181106111fd576111fd612c4d565b90506020020160208101906112129190612591565b90506001600160a01b0381166112595760405162461bcd60e51b815260206004820152600c60248201526b4e554c4c5f4144445245535360a01b60448201526064016109aa565b6001600160a01b03811660009081526010602052604090205460ff16156112b45760405162461bcd60e51b815260206004820152600f60248201526e4455504c49434154455f454e54525960881b60448201526064016109aa565b6001600160a01b03166000908152601060205260409020805460ff19166001179055806112e081612bdc565b9150506111e1565b601a54610100900460ff161580156113025750601a5460ff165b61133f5760405162461bcd60e51b815260206004820152600e60248201526d14149154d0531157d0d313d4d15160921b60448201526064016109aa565b3360009081526010602052604090205460ff1661138e5760405162461bcd60e51b815260206004820152600d60248201526c1393d517d45550531251925151609a1b60448201526064016109aa565b600e54600854106113d05760405162461bcd60e51b815260206004820152600c60248201526b4f55545f4f465f53544f434b60a01b60448201526064016109aa565b600c54816018546113e19190612b13565b11156114205760405162461bcd60e51b815260206004820152600e60248201526d4558434545445f5052495641544560901b60448201526064016109aa565b6019543360009081526011602052604090205461143e908390612b13565b111561147b5760405162461bcd60e51b815260206004820152600c60248201526b4558434545445f414c4c4f4360a01b60448201526064016109aa565b348160155461148a9190612b3f565b11156114cb5760405162461bcd60e51b815260206004820152601060248201526f0929ca6aa8c8c9286928a9ca8be8aa8960831b60448201526064016109aa565b60005b8181101561152a57601880549060006114e683612bdc565b909155505033600090815260116020526040812080549161150683612bdc565b919050555061151833610dc460085490565b8061152281612bdc565b9150506114ce565b5050565b600a546001600160a01b031633146115585760405162461bcd60e51b81526004016109aa90612a49565b601a5462010000900460ff16156115815760405162461bcd60e51b81526004016109aa90612a7e565b610c54601283836124dc565b606060018054610a2b90612ba1565b600a546001600160a01b031633146115c65760405162461bcd60e51b81526004016109aa90612a49565b601a805462ff0000191662010000179055565b6001600160a01b0382163314156116325760405162461bcd60e51b815260206004820152601960248201527f4552433732313a20617070726f766520746f2063616c6c65720000000000000060448201526064016109aa565b3360008181526005602090815260408083206001600160a01b03871680855290835292819020805460ff191686151590811790915590519081529192917f17307eab39ab6107e8899845ad3d59bd9653f200f220920489ca2b5937696c31910160405180910390a35050565b600a546001600160a01b031633146116c85760405162461bcd60e51b81526004016109aa90612a49565b601555565b6116d73383611be1565b6116f35760405162461bcd60e51b81526004016109aa90612ac2565b6116ff84848484611ed5565b50505050565b6000818152600260205260409020546060906001600160a01b031661176c5760405162461bcd60e51b815260206004820152601f60248201527f43616e6e6f74207175657279206e6f6e2d6578697374656e7420746f6b656e0060448201526064016109aa565b601361177783611f08565b604051602001611788929190612900565b6040516020818303038152906040529050919050565b600a546001600160a01b031633146117c85760405162461bcd60e51b81526004016109aa90612a49565b60005b81811015610c545760008383838181106117e7576117e7612c4d565b90506020020160208101906117fc9190612591565b90506001600160a01b0381166118435760405162461bcd60e51b815260206004820152600c60248201526b4e554c4c5f4144445245535360a01b60448201526064016109aa565b6001600160a01b03166000908152601060205260409020805460ff191690558061186c81612bdc565b9150506117cb565b601a54610100900460ff166118b95760405162461bcd60e51b815260206004820152600b60248201526a14d0531157d0d313d4d15160aa1b60448201526064016109aa565b601a5460ff16156118fb5760405162461bcd60e51b815260206004820152600c60248201526b4f4e4c595f50524553414c4560a01b60448201526064016109aa565b600e546008541061193d5760405162461bcd60e51b815260206004820152600c60248201526b4f55545f4f465f53544f434b60a01b60448201526064016109aa565b600d548160175461194e9190612b13565b111561198c5760405162461bcd60e51b815260206004820152600d60248201526c4558434545445f5055424c494360981b60448201526064016109aa565b600f548111156119d35760405162461bcd60e51b8152602060048201526012602482015271115610d1515117d51517d4115497d352539560721b60448201526064016109aa565b34816015546119e29190612b3f565b1115611a235760405162461bcd60e51b815260206004820152601060248201526f0929ca6aa8c8c9286928a9ca8be8aa8960831b60448201526064016109aa565b60005b8181101561152a5760178054906000611a3e83612bdc565b9190505550611a5033610dc460085490565b80611a5a81612bdc565b915050611a26565b606060128054610a2b90612ba1565b600a546001600160a01b03163314611a9b5760405162461bcd60e51b81526004016109aa90612a49565b6001600160a01b038116611b005760405162461bcd60e51b815260206004820152602660248201527f4f776e61626c653a206e6577206f776e657220697320746865207a65726f206160448201526564647265737360d01b60648201526084016109aa565b610f0381611e83565b60006001600160e01b031982166380ac58cd60e01b1480611b3a57506001600160e01b03198216635b5e139f60e01b145b8061097a57506301ffc9a760e01b6001600160e01b031983161461097a565b600081815260046020526040902080546001600160a01b0319166001600160a01b0384169081179091558190611b8e82611042565b6001600160a01b03167f8c5be1e5ebec7d5bd14f71427d1e84f3dd0314c0f7b2291e5b200ac8c7c3b92560405160405180910390a45050565b61152a828260405180602001604052806000815250612006565b6000818152600260205260408120546001600160a01b0316611c5a5760405162461bcd60e51b815260206004820152602c60248201527f4552433732313a206f70657261746f7220717565727920666f72206e6f6e657860448201526b34b9ba32b73a103a37b5b2b760a11b60648201526084016109aa565b6000611c6583611042565b9050806001600160a01b0316846001600160a01b03161480611ca05750836001600160a01b0316611c9584610aae565b6001600160a01b0316145b80611cd057506001600160a01b0380821660009081526005602090815260408083209388168352929052205460ff165b949350505050565b826001600160a01b0316611ceb82611042565b6001600160a01b031614611d535760405162461bcd60e51b815260206004820152602960248201527f4552433732313a207472616e73666572206f6620746f6b656e2074686174206960448201526839903737ba1037bbb760b91b60648201526084016109aa565b6001600160a01b038216611db55760405162461bcd60e51b8152602060048201526024808201527f4552433732313a207472616e7366657220746f20746865207a65726f206164646044820152637265737360e01b60648201526084016109aa565b611dc0838383612039565b611dcb600082611b59565b6001600160a01b0383166000908152600360205260408120805460019290611df4908490612b5e565b90915550506001600160a01b0382166000908152600360205260408120805460019290611e22908490612b13565b909155505060008181526002602052604080822080546001600160a01b0319166001600160a01b0386811691821790925591518493918716917fddf252ad1be2c89b69c2b068fc378daa952ba7f163c4a11628f55a4df523b3ef91a4505050565b600a80546001600160a01b038381166001600160a01b0319831681179093556040519116919082907f8be0079c531659141344cd1fd0a4f28419497f9722a3daafe3b4186f6b6457e090600090a35050565b611ee0848484611cd8565b611eec848484846120f1565b6116ff5760405162461bcd60e51b81526004016109aa906129f7565b606081611f2c5750506040805180820190915260018152600360fc1b602082015290565b8160005b8115611f565780611f4081612bdc565b9150611f4f9050600a83612b2b565b9150611f30565b60008167ffffffffffffffff811115611f7157611f71612c63565b6040519080825280601f01601f191660200182016040528015611f9b576020820181803683370190505b5090505b8415611cd057611fb0600183612b5e565b9150611fbd600a86612bf7565b611fc8906030612b13565b60f81b818381518110611fdd57611fdd612c4d565b60200101906001600160f81b031916908160001a905350611fff600a86612b2b565b9450611f9f565b61201083836121fe565b61201d60008484846120f1565b610c545760405162461bcd60e51b81526004016109aa906129f7565b6001600160a01b0383166120945761208f81600880546000838152600960205260408120829055600182018355919091527ff3f7a9fe364faab93b216da50a3214154f22a0a2b415b23a84c8169e8b636ee30155565b6120b7565b816001600160a01b0316836001600160a01b0316146120b7576120b7838261234c565b6001600160a01b0382166120ce57610c54816123e9565b826001600160a01b0316826001600160a01b031614610c5457610c548282612498565b60006001600160a01b0384163b156121f357604051630a85bd0160e11b81526001600160a01b0385169063150b7a02906121359033908990889088906004016129a7565b602060405180830381600087803b15801561214f57600080fd5b505af192505050801561217f575060408051601f3d908101601f1916820190925261217c918101906127f6565b60015b6121d9573d8080156121ad576040519150601f19603f3d011682016040523d82523d6000602084013e6121b2565b606091505b5080516121d15760405162461bcd60e51b81526004016109aa906129f7565b805181602001fd5b6001600160e01b031916630a85bd0160e11b149050611cd0565b506001949350505050565b6001600160a01b0382166122545760405162461bcd60e51b815260206004820181905260248201527f4552433732313a206d696e7420746f20746865207a65726f206164647265737360448201526064016109aa565b6000818152600260205260409020546001600160a01b0316156122b95760405162461bcd60e51b815260206004820152601c60248201527f4552433732313a20746f6b656e20616c7265616479206d696e7465640000000060448201526064016109aa565b6122c560008383612039565b6001600160a01b03821660009081526003602052604081208054600192906122ee908490612b13565b909155505060008181526002602052604080822080546001600160a01b0319166001600160a01b03861690811790915590518392907fddf252ad1be2c89b69c2b068fc378daa952ba7f163c4a11628f55a4df523b3ef908290a45050565b60006001612359846110b9565b6123639190612b5e565b6000838152600760205260409020549091508082146123b6576001600160a01b03841660009081526006602090815260408083208584528252808320548484528184208190558352600790915290208190555b5060009182526007602090815260408084208490556001600160a01b039094168352600681528383209183525290812055565b6008546000906123fb90600190612b5e565b6000838152600960205260408120546008805493945090928490811061242357612423612c4d565b90600052602060002001549050806008838154811061244457612444612c4d565b600091825260208083209091019290925582815260099091526040808220849055858252812055600880548061247c5761247c612c37565b6001900381819060005260206000200160009055905550505050565b60006124a3836110b9565b6001600160a01b039093166000908152600660209081526040808320868452825280832085905593825260079052919091209190915550565b8280546124e890612ba1565b90600052602060002090601f01602090048101928261250a5760008555612550565b82601f106125235782800160ff19823516178555612550565b82800160010185558215612550579182015b82811115612550578235825591602001919060010190612535565b5061255c929150612560565b5090565b5b8082111561255c5760008155600101612561565b80356001600160a01b038116811461258c57600080fd5b919050565b6000602082840312156125a357600080fd5b6125ac82612575565b9392505050565b600080604083850312156125c657600080fd5b6125cf83612575565b91506125dd60208401612575565b90509250929050565b6000806000606084860312156125fb57600080fd5b61260484612575565b925061261260208501612575565b9150604084013590509250925092565b6000806000806080858703121561263857600080fd5b61264185612575565b935061264f60208601612575565b925060408501359150606085013567ffffffffffffffff8082111561267357600080fd5b818701915087601f83011261268757600080fd5b81358181111561269957612699612c63565b604051601f8201601f19908116603f011681019083821181831017156126c1576126c1612c63565b816040528281528a60208487010111156126da57600080fd5b82602086016020830137600060208483010152809550505050505092959194509250565b6000806040838503121561271157600080fd5b61271a83612575565b91506020830135801515811461272f57600080fd5b809150509250929050565b6000806040838503121561274d57600080fd5b61275683612575565b946020939093013593505050565b6000806020838503121561277757600080fd5b823567ffffffffffffffff8082111561278f57600080fd5b818501915085601f8301126127a357600080fd5b8135818111156127b257600080fd5b8660208260051b85010111156127c757600080fd5b60209290920196919550909350505050565b6000602082840312156127eb57600080fd5b81356125ac81612c79565b60006020828403121561280857600080fd5b81516125ac81612c79565b6000806020838503121561282657600080fd5b823567ffffffffffffffff8082111561283e57600080fd5b818501915085601f83011261285257600080fd5b81358181111561286157600080fd5b8660208285010111156127c757600080fd5b60006020828403121561288557600080fd5b5035919050565b6000806000606084860312156128a157600080fd5b505081359360208301359350604090920135919050565b600081518084526128d0816020860160208601612b75565b601f01601f19169290920160200192915050565b600081516128f6818560208601612b75565b9290920192915050565b600080845481600182811c91508083168061291c57607f831692505b602080841082141561293c57634e487b7160e01b86526022600452602486fd5b81801561295057600181146129615761298e565b60ff1986168952848901965061298e565b60008b81526020902060005b868110156129865781548b82015290850190830161296d565b505084890196505b50505050505061299e81856128e4565b95945050505050565b6001600160a01b03858116825284166020820152604081018390526080606082018190526000906129da908301846128b8565b9695505050505050565b6020815260006125ac60208301846128b8565b60208082526032908201527f4552433732313a207472616e7366657220746f206e6f6e20455243373231526560408201527131b2b4bb32b91034b6b83632b6b2b73a32b960711b606082015260800190565b6020808252818101527f4f776e61626c653a2063616c6c6572206973206e6f7420746865206f776e6572604082015260600190565b60208082526024908201527f436f6e7472616374206d65746164617461206d6574686f647320617265206c6f60408201526318dad95960e21b606082015260800190565b60208082526031908201527f4552433732313a207472616e736665722063616c6c6572206973206e6f74206f6040820152701ddb995c881b9bdc88185c1c1c9bdd9959607a1b606082015260800190565b60008219821115612b2657612b26612c0b565b500190565b600082612b3a57612b3a612c21565b500490565b6000816000190483118215151615612b5957612b59612c0b565b500290565b600082821015612b7057612b70612c0b565b500390565b60005b83811015612b90578181015183820152602001612b78565b838111156116ff5750506000910152565b600181811c90821680612bb557607f821691505b60208210811415612bd657634e487b7160e01b600052602260045260246000fd5b50919050565b6000600019821415612bf057612bf0612c0b565b5060010190565b600082612c0657612c06612c21565b500690565b634e487b7160e01b600052601160045260246000fd5b634e487b7160e01b600052601260045260246000fd5b634e487b7160e01b600052603160045260246000fd5b634e487b7160e01b600052603260045260246000fd5b634e487b7160e01b600052604160045260246000fd5b6001600160e01b031981168114610f0357600080fdfea2646970667358221220c7c5cb56e85fde8ed2127fa8b3ee2f5baebba0a3750df00db032fa9e04a58dba64736f6c63430008070033"}}