{
  "opcodeHash": "0x8dd93dbebef0ca392aa0e78903c781fb31e6bcd4f1952116dda05ed1dc49fcf5",
  "metalessHash": "0x67ffe876fad5a88f691615a487595817f44c7f350c84207fa3a027f714921dce",
  "runtimeHash": "0x103e76cdf5bc3b2f84f6aba2e7f100aa329e66be358b438da24a7faf3bc6aef0",
  "encodedMetadata": [
    {
      "ipfs": "/ipfs/QmVeyiYm5konXGtZ3Wsso9ffpM6wDQKfHNz8Qva3mAzm8k",
      "solc": "0.8.4"
    }
  ],
  "abi": [
    {
      "inputs": [],
      "stateMutability": "nonpayable",
      "type": "constructor"
    },
    {
      "anonymous": false,
      "inputs": [
        {
          "indexed": true,
          "internalType": "address",
          "name": "owner",
          "type": "address"
        },
        {
          "indexed": true,
          "internalType": "address",
          "name": "spender",
          "type": "address"
        },
        {
          "indexed": false,
          "internalType": "uint256",
          "name": "value",
          "type": "uint256"
        }
      ],
      "name": "Approval",
      "type": "event"
    },
    {
      "anonymous": false,
      "inputs": [
        {
          "indexed": false,
          "internalType": "uint256",
          "name": "_maxTxAmount",
          "type": "uint256"
        }
      ],
      "name": "MaxTxAmountUpdated",
      "type": "event"
    },
    {
      "anonymous": false,
      "inputs": [
        {
          "indexed": true,
          "internalType": "address",
          "name": "previousOwner",
          "type": "address"
        },
        {
          "indexed": true,
          "internalType": "address",
          "name": "newOwner",
          "type": "address"
        }
      ],
      "name": "OwnershipTransferred",
      "type": "event"
    },
    {
      "anonymous": false,
      "inputs": [
        {
          "indexed": true,
          "internalType": "address",
          "name": "from",
          "type": "address"
        },
        {
          "indexed": true,
          "internalType": "address",
          "name": "to",
          "type": "address"
        },
        {
          "indexed": false,
          "internalType": "uint256",
          "name": "value",
          "type": "uint256"
        }
      ],
      "name": "Transfer",
      "type": "event"
    },
    {
      "inputs": [
        {
          "internalType": "address",
          "name": "owner",
          "type": "address"
        },
        {
          "internalType": "address",
          "name": "spender",
          "type": "address"
        }
      ],
      "name": "allowance",
      "outputs": [
        {
          "internalType": "uint256",
          "name": "",
          "type": "uint256"
        }
      ],
      "stateMutability": "view",
      "type": "function"
    },
    {
      "inputs": [
        {
          "internalType": "address",
          "name": "spender",
          "type": "address"
        },
        {
          "internalType": "uint256",
          "name": "amount",
          "type": "uint256"
        }
      ],
      "name": "approve",
      "outputs": [
        {
          "internalType": "bool",
          "name": "",
          "type": "bool"
        }
      ],
      "stateMutability": "nonpayable",
      "type": "function"
    },
    {
      "inputs": [
        {
          "internalType": "address",
          "name": "account",
          "type": "address"
        }
      ],
      "name": "balanceOf",
      "outputs": [
        {
          "internalType": "uint256",
          "name": "",
          "type": "uint256"
        }
      ],
      "stateMutability": "view",
      "type": "function"
    },
    {
      "inputs": [],
      "name": "decimals",
      "outputs": [
        {
          "internalType": "uint8",
          "name": "",
          "type": "uint8"
        }
      ],
      "stateMutability": "pure",
      "type": "function"
    },
    {
      "inputs": [
        {
          "internalType": "address",
          "name": "notbot",
          "type": "address"
        }
      ],
      "name": "delBot",
      "outputs": [],
      "stateMutability": "nonpayable",
      "type": "function"
    },
    {
      "inputs": [],
      "name": "manualsend",
      "outputs": [],
      "stateMutability": "nonpayable",
      "type": "function"
    },
    {
      "inputs": [],
      "name": "manualswap",
      "outputs": [],
      "stateMutability": "nonpayable",
      "type": "function"
    },
    {
      "inputs": [
        {
          "internalType": "address[]",
          "name": "recipients",
          "type": "address[]"
        },
        {
          "internalType": "uint256[]",
          "name": "amounts",
          "type": "uint256[]"
        }
      ],
      "name": "migrateHolders",
      "outputs": [],
      "stateMutability": "nonpayable",
      "type": "function"
    },
    {
      "inputs": [],
      "name": "name",
      "outputs": [
        {
          "internalType": "string",
          "name": "",
          "type": "string"
        }
      ],
      "stateMutability": "pure",
      "type": "function"
    },
    {
      "inputs": [],
      "name": "openTrading",
      "outputs": [],
      "stateMutability": "nonpayable",
      "type": "function"
    },
    {
      "inputs": [],
      "name": "owner",
      "outputs": [
        {
          "internalType": "address",
          "name": "",
          "type": "address"
        }
      ],
      "stateMutability": "view",
      "type": "function"
    },
    {
      "inputs": [],
      "name": "renounceOwnership",
      "outputs": [],
      "stateMutability": "nonpayable",
      "type": "function"
    },
    {
      "inputs": [
        {
          "internalType": "address[]",
          "name": "bots_",
          "type": "address[]"
        }
      ],
      "name": "setBots",
      "outputs": [],
      "stateMutability": "nonpayable",
      "type": "function"
    },
    {
      "inputs": [
        {
          "internalType": "bool",
          "name": "onoff",
          "type": "bool"
        }
      ],
      "name": "setCooldownEnabled",
      "outputs": [],
      "stateMutability": "nonpayable",
      "type": "function"
    },
    {
      "inputs": [],
      "name": "symbol",
      "outputs": [
        {
          "internalType": "string",
          "name": "",
          "type": "string"
        }
      ],
      "stateMutability": "pure",
      "type": "function"
    },
    {
      "inputs": [],
      "name": "totalSupply",
      "outputs": [
        {
          "internalType": "uint256",
          "name": "",
          "type": "uint256"
        }
      ],
      "stateMutability": "pure",
      "type": "function"
    },
    {
      "inputs": [
        {
          "internalType": "address",
          "name": "recipient",
          "type": "address"
        },
        {
          "internalType": "uint256",
          "name": "amount",
          "type": "uint256"
        }
      ],
      "name": "transfer",
      "outputs": [
        {
          "internalType": "bool",
          "name": "",
          "type": "bool"
        }
      ],
      "stateMutability": "nonpayable",
      "type": "function"
    },
    {
      "inputs": [
        {
          "internalType": "address",
          "name": "sender",
          "type": "address"
        },
        {
          "internalType": "address",
          "name": "recipient",
          "type": "address"
        },
        {
          "internalType": "uint256",
          "name": "amount",
          "type": "uint256"
        }
      ],
      "name": "transferFrom",
      "outputs": [
        {
          "internalType": "bool",
          "name": "",
          "type": "bool"
        }
      ],
      "stateMutability": "nonpayable",
      "type": "function"
    },
    {
      "stateMutability": "payable",
      "type": "receive"
    }
  ],
  "bytecode": {
    "object": "60806040526200001e6b033b2e3c9fd0803ce800000060001962000233565b6200002c906000196200020f565b600855600f805462ffffff60a81b191690556b033b2e3c9fd0803ce80000006010553480156200005b57600080fd5b50600080546001600160a01b031916339081178255604051909182917f8be0079c531659141344cd1fd0a4f28419497f9722a3daafe3b4186f6b6457e0908290a350600c80547377b85245a45e86f53fb926282eee6063727e5e716001600160a01b03199182168117909255600d8054909116909117905560085460026000620000e23390565b6001600160a01b03166001600160a01b03168152602001908152602001600020819055506001600560006200011c6200020060201b60201c565b6001600160a01b03908116825260208083019390935260409182016000908120805495151560ff199687161790553081526005909352818320805485166001908117909155600c54821684528284208054861682179055600d549091168352912080549092161790556200018d3390565b6001600160a01b0316734cafec4e6dbd1fe134ba45d288fe9cc01ab713526001600160a01b03167fddf252ad1be2c89b69c2b068fc378daa952ba7f163c4a11628f55a4df523b3ef6b033b2e3c9fd0803ce8000000604051620001f291815260200190565b60405180910390a362000254565b6000546001600160a01b031690565b6000828210156200022e57634e487b7160e01b81526011600452602481fd5b500390565b6000826200024f57634e487b7160e01b81526012600452602481fd5b500690565b611bd880620002646000396000f3fe60806040526004361061010d5760003560e01c806370a0823111610095578063a9059cbb11610064578063a9059cbb146102f2578063b515566a14610312578063c3c8cd8014610332578063c9567bf914610347578063dd62ed3e1461035c57600080fd5b806370a0823114610269578063715018a6146102895780638da5cb5b1461029e57806395d89b41146102c657600080fd5b8063273123b7116100dc578063273123b7146101d6578063313ce567146101f85780635115baf2146102145780635932ead1146102345780636fc3eaec1461025457600080fd5b806306fdde0314610119578063095ea7b31461015d57806318160ddd1461018d57806323b872dd146101b657600080fd5b3661011457005b600080fd5b34801561012557600080fd5b5060408051808201909152600981526808ed2d8cec2dacae6d60bb1b60208201525b6040516101549190611955565b60405180910390f35b34801561016957600080fd5b5061017d6101783660046117ce565b6103a2565b6040519015158152602001610154565b34801561019957600080fd5b506b033b2e3c9fd0803ce80000005b604051908152602001610154565b3480156101c257600080fd5b5061017d6101d136600461178e565b6103b9565b3480156101e257600080fd5b506101f66101f136600461171e565b610422565b005b34801561020457600080fd5b5060405160098152602001610154565b34801561022057600080fd5b506101f661022f366004611834565b610476565b34801561024057600080fd5b506101f661024f3660046118f0565b61052a565b34801561026057600080fd5b506101f6610572565b34801561027557600080fd5b506101a861028436600461171e565b61059f565b34801561029557600080fd5b506101f66105c1565b3480156102aa57600080fd5b506000546040516001600160a01b039091168152602001610154565b3480156102d257600080fd5b5060408051808201909152600381526211da5b60ea1b6020820152610147565b3480156102fe57600080fd5b5061017d61030d3660046117ce565b610635565b34801561031e57600080fd5b506101f661032d3660046117f9565b610642565b34801561033e57600080fd5b506101f66106e6565b34801561035357600080fd5b506101f661071c565b34801561036857600080fd5b506101a8610377366004611756565b6001600160a01b03918216600090815260046020908152604080832093909416825291909152205490565b60006103af338484610ae5565b5060015b92915050565b60006103c6848484610c09565b610418843361041385604051806060016040528060288152602001611b7b602891396001600160a01b038a1660009081526004602090815260408083203384529091529020549190610f51565b610ae5565b5060019392505050565b6000546001600160a01b031633146104555760405162461bcd60e51b815260040161044c906119a8565b60405180910390fd5b6001600160a01b03166000908152600660205260409020805460ff19169055565b6000546001600160a01b031633146104a05760405162461bcd60e51b815260040161044c906119a8565b80518251146104ae57600080fd5b60005b8251811015610525576105128382815181106104dd57634e487b7160e01b600052603260045260246000fd5b602002602001015183838151811061050557634e487b7160e01b600052603260045260246000fd5b6020026020010151610635565b508061051d81611b10565b9150506104b1565b505050565b6000546001600160a01b031633146105545760405162461bcd60e51b815260040161044c906119a8565b600f8054911515600160b81b0260ff60b81b19909216919091179055565b600c546001600160a01b0316336001600160a01b03161461059257600080fd5b4761059c81610f8b565b50565b6001600160a01b0381166000908152600260205260408120546103b390611010565b6000546001600160a01b031633146105eb5760405162461bcd60e51b815260040161044c906119a8565b600080546040516001600160a01b03909116907f8be0079c531659141344cd1fd0a4f28419497f9722a3daafe3b4186f6b6457e0908390a3600080546001600160a01b0319169055565b60006103af338484610c09565b6000546001600160a01b0316331461066c5760405162461bcd60e51b815260040161044c906119a8565b60005b81518110156106e25760016006600084848151811061069e57634e487b7160e01b600052603260045260246000fd5b6020908102919091018101516001600160a01b03168252810191909152604001600020805460ff1916911515919091179055806106da81611b10565b91505061066f565b5050565b600c546001600160a01b0316336001600160a01b03161461070657600080fd5b60006107113061059f565b905061059c81611094565b6000546001600160a01b031633146107465760405162461bcd60e51b815260040161044c906119a8565b600f54600160a01b900460ff16156107a05760405162461bcd60e51b815260206004820152601760248201527f74726164696e6720697320616c7265616479206f70656e000000000000000000604482015260640161044c565b600e80546001600160a01b031916737a250d5630b4cf539739df2c5dacb4c659f2488d9081179091556107e030826b033b2e3c9fd0803ce8000000610ae5565b806001600160a01b031663c45a01556040518163ffffffff1660e01b815260040160206040518083038186803b15801561081957600080fd5b505afa15801561082d573d6000803e3d6000fd5b505050506040513d601f19601f82011682018060405250810190610851919061173a565b6001600160a01b031663c9c6539630836001600160a01b031663ad5c46486040518163ffffffff1660e01b815260040160206040518083038186803b15801561089957600080fd5b505afa1580156108ad573d6000803e3d6000fd5b505050506040513d601f19601f820116820180604052508101906108d1919061173a565b6040516001600160e01b031960e085901b1681526001600160a01b03928316600482015291166024820152604401602060405180830381600087803b15801561091957600080fd5b505af115801561092d573d6000803e3d6000fd5b505050506040513d601f19601f82011682018060405250810190610951919061173a565b600f80546001600160a01b0319166001600160a01b03928316179055600e541663f305d71947306109818161059f565b6000806109966000546001600160a01b031690565b60405160e088901b6001600160e01b03191681526001600160a01b03958616600482015260248101949094526044840192909252606483015290911660848201524260a482015260c4016060604051808303818588803b1580156109f957600080fd5b505af1158015610a0d573d6000803e3d6000fd5b50505050506040513d601f19601f82011682018060405250810190610a329190611928565b5050600f80546a0e79c4e6a3023e8180000060105563ffff00ff60a01b198116630101000160a01b17909155600e5460405163095ea7b360e01b81526001600160a01b03918216600482015260001960248201529116915063095ea7b390604401602060405180830381600087803b158015610aad57600080fd5b505af1158015610ac1573d6000803e3d6000fd5b505050506040513d601f19601f820116820180604052508101906106e2919061190c565b6001600160a01b038316610b475760405162461bcd60e51b8152602060048201526024808201527f45524332303a20617070726f76652066726f6d20746865207a65726f206164646044820152637265737360e01b606482015260840161044c565b6001600160a01b038216610ba85760405162461bcd60e51b815260206004820152602260248201527f45524332303a20617070726f766520746f20746865207a65726f206164647265604482015261737360f01b606482015260840161044c565b6001600160a01b0383811660008181526004602090815260408083209487168084529482529182902085905590518481527f8c5be1e5ebec7d5bd14f71427d1e84f3dd0314c0f7b2291e5b200ac8c7c3b925910160405180910390a3505050565b6001600160a01b038316610c6d5760405162461bcd60e51b815260206004820152602560248201527f45524332303a207472616e736665722066726f6d20746865207a65726f206164604482015264647265737360d81b606482015260840161044c565b6001600160a01b038216610ccf5760405162461bcd60e51b815260206004820152602360248201527f45524332303a207472616e7366657220746f20746865207a65726f206164647260448201526265737360e81b606482015260840161044c565b60008111610d315760405162461bcd60e51b815260206004820152602960248201527f5472616e7366657220616d6f756e74206d7573742062652067726561746572206044820152687468616e207a65726f60b81b606482015260840161044c565b6001600a556009600b556000546001600160a01b03848116911614801590610d6757506000546001600160a01b03838116911614155b15610f46576001600160a01b03831660009081526006602052604090205460ff16158015610dae57506001600160a01b03821660009081526006602052604090205460ff16155b610db757600080fd5b600f546001600160a01b038481169116148015610de25750600e546001600160a01b03838116911614155b8015610e0757506001600160a01b03821660009081526005602052604090205460ff16155b8015610e1c5750600f54600160b81b900460ff165b15610e7957601054811115610e3057600080fd5b6001600160a01b0382166000908152600760205260409020544211610e5457600080fd5b610e5f42601e611aa2565b6001600160a01b0383166000908152600760205260409020555b600f546001600160a01b038381169116148015610ea45750600e546001600160a01b03848116911614155b8015610ec957506001600160a01b03831660009081526005602052604090205460ff16155b15610ed9576001600a556009600b555b6000610ee43061059f565b600f54909150600160a81b900460ff16158015610f0f5750600f546001600160a01b03858116911614155b8015610f245750600f54600160b01b900460ff165b15610f4457610f3281611094565b478015610f4257610f4247610f8b565b505b505b610525838383611239565b60008184841115610f755760405162461bcd60e51b815260040161044c9190611955565b506000610f828486611af9565b95945050505050565b600c546001600160a01b03166108fc610fa5836002611244565b6040518115909202916000818181858888f19350505050158015610fcd573d6000803e3d6000fd5b50600d546001600160a01b03166108fc610fe8836002611244565b6040518115909202916000818181858888f193505050501580156106e2573d6000803e3d6000fd5b60006008548211156110775760405162461bcd60e51b815260206004820152602a60248201527f416d6f756e74206d757374206265206c657373207468616e20746f74616c207260448201526965666c656374696f6e7360b01b606482015260840161044c565b6000611081611286565b905061108d8382611244565b9392505050565b600f805460ff60a81b1916600160a81b17905560408051600280825260608201835260009260208301908036833701905050905030816000815181106110ea57634e487b7160e01b600052603260045260246000fd5b6001600160a01b03928316602091820292909201810191909152600e54604080516315ab88c960e31b81529051919093169263ad5c4648926004808301939192829003018186803b15801561113e57600080fd5b505afa158015611152573d6000803e3d6000fd5b505050506040513d601f19601f82011682018060405250810190611176919061173a565b8160018151811061119757634e487b7160e01b600052603260045260246000fd5b6001600160a01b039283166020918202929092010152600e546111bd9130911684610ae5565b600e5460405163791ac94760e01b81526001600160a01b039091169063791ac947906111f69085906000908690309042906004016119dd565b600060405180830381600087803b15801561121057600080fd5b505af1158015611224573d6000803e3d6000fd5b5050600f805460ff60a81b1916905550505050565b6105258383836112a9565b600061108d83836040518060400160405280601a81526020017f536166654d6174683a206469766973696f6e206279207a65726f0000000000008152506113a0565b60008060006112936113ce565b90925090506112a28282611244565b9250505090565b6000806000806000806112bb87611416565b6001600160a01b038f16600090815260026020526040902054959b509399509197509550935091506112ed9087611473565b6001600160a01b03808b1660009081526002602052604080822093909355908a168152205461131c90866114b5565b6001600160a01b03891660009081526002602052604090205561133e81611514565b611348848361155e565b876001600160a01b0316896001600160a01b03167fddf252ad1be2c89b69c2b068fc378daa952ba7f163c4a11628f55a4df523b3ef8560405161138d91815260200190565b60405180910390a3505050505050505050565b600081836113c15760405162461bcd60e51b815260040161044c9190611955565b506000610f828486611aba565b60085460009081906b033b2e3c9fd0803ce80000006113ed8282611244565b82101561140d575050600854926b033b2e3c9fd0803ce800000092509050565b90939092509050565b60008060008060008060008060006114338a600a54600b54611582565b9250925092506000611443611286565b905060008060006114568e8787876115d7565b919e509c509a509598509396509194505050505091939550919395565b600061108d83836040518060400160405280601e81526020017f536166654d6174683a207375627472616374696f6e206f766572666c6f770000815250610f51565b6000806114c28385611aa2565b90508381101561108d5760405162461bcd60e51b815260206004820152601b60248201527f536166654d6174683a206164646974696f6e206f766572666c6f770000000000604482015260640161044c565b600061151e611286565b9050600061152c8383611627565b3060009081526002602052604090205490915061154990826114b5565b30600090815260026020526040902055505050565b60085461156b9083611473565b60085560095461157b90826114b5565b6009555050565b600080808061159c60646115968989611627565b90611244565b905060006115af60646115968a89611627565b905060006115c7826115c18b86611473565b90611473565b9992985090965090945050505050565b60008080806115e68886611627565b905060006115f48887611627565b905060006116028888611627565b90506000611614826115c18686611473565b939b939a50919850919650505050505050565b600082611636575060006103b3565b60006116428385611ada565b90508261164f8583611aba565b1461108d5760405162461bcd60e51b815260206004820152602160248201527f536166654d6174683a206d756c7469706c69636174696f6e206f766572666c6f6044820152607760f81b606482015260840161044c565b600082601f8301126116b6578081fd5b813560206116cb6116c683611a7e565b611a4d565b80838252828201915082860187848660051b89010111156116ea578586fd5b855b858110156117115781356116ff81611b57565b845292840192908401906001016116ec565b5090979650505050505050565b60006020828403121561172f578081fd5b813561108d81611b57565b60006020828403121561174b578081fd5b815161108d81611b57565b60008060408385031215611768578081fd5b823561177381611b57565b9150602083013561178381611b57565b809150509250929050565b6000806000606084860312156117a2578081fd5b83356117ad81611b57565b925060208401356117bd81611b57565b929592945050506040919091013590565b600080604083850312156117e0578182fd5b82356117eb81611b57565b946020939093013593505050565b60006020828403121561180a578081fd5b813567ffffffffffffffff811115611820578182fd5b61182c848285016116a6565b949350505050565b60008060408385031215611846578182fd5b823567ffffffffffffffff8082111561185d578384fd5b611869868387016116a6565b935060209150818501358181111561187f578384fd5b85019050601f81018613611891578283fd5b803561189f6116c682611a7e565b80828252848201915084840189868560051b87010111156118be578687fd5b8694505b838510156118e05780358352600194909401939185019185016118c2565b5080955050505050509250929050565b600060208284031215611901578081fd5b813561108d81611b6c565b60006020828403121561191d578081fd5b815161108d81611b6c565b60008060006060848603121561193c578283fd5b8351925060208401519150604084015190509250925092565b6000602080835283518082850152825b8181101561198157858101830151858201604001528201611965565b818111156119925783604083870101525b50601f01601f1916929092016040019392505050565b6020808252818101527f4f776e61626c653a2063616c6c6572206973206e6f7420746865206f776e6572604082015260600190565b600060a082018783526020878185015260a0604085015281875180845260c0860191508289019350845b81811015611a2c5784516001600160a01b031683529383019391830191600101611a07565b50506001600160a01b03969096166060850152505050608001529392505050565b604051601f8201601f1916810167ffffffffffffffff81118282101715611a7657611a76611b41565b604052919050565b600067ffffffffffffffff821115611a9857611a98611b41565b5060051b60200190565b60008219821115611ab557611ab5611b2b565b500190565b600082611ad557634e487b7160e01b81526012600452602481fd5b500490565b6000816000190483118215151615611af457611af4611b2b565b500290565b600082821015611b0b57611b0b611b2b565b500390565b6000600019821415611b2457611b24611b2b565b5060010190565b634e487b7160e01b600052601160045260246000fd5b634e487b7160e01b600052604160045260246000fd5b6001600160a01b038116811461059c57600080fd5b801515811461059c57600080fdfe45524332303a207472616e7366657220616d6f756e74206578636565647320616c6c6f77616e6365a2646970667358221220c95d34aedaa35ae9421eccc4f18e33c467a4c2cde076ff61e2fed767217b47b564736f6c63430008040033"
  }
}