{"compiler":"v0.7.5+commit.eb77ed08","opcodeHash":"0xa56d0ffe57a397ea4875e671c2982a24b79b39efe904d65aa37fab8cc9fc428b","metalessHash":"0x89fa1ae1727d5bcf6d2ba911d5ceb7d4ed811bbe9334f1d5863176502ff4b5bd","runtimeHash":"0xc3c7854ac9bb814b71695b9ede0e0a05fd9b8e4c5d997fee7208d8ff535b4078","encodedMetadata":[{"ipfs":"/ipfs/QmYzYXC8oZ4QewSJ3fboJtxUy2jn28hKwsQvQWckShAyCD","solc":"0.7.5"}],"abi":[{"inputs":[],"stateMutability":"nonpayable","type":"constructor"},{"inputs":[{"internalType":"address[]","name":"pairs","type":"address[]"}],"name":"getAllRoundData","outputs":[{"components":[{"internalType":"uint80","name":"roundId","type":"uint80"},{"internalType":"int256","name":"answer","type":"int256"},{"internalType":"uint256","name":"startedAt","type":"uint256"},{"internalType":"uint256","name":"updatedAt","type":"uint256"},{"internalType":"uint80","name":"answeredInRound","type":"uint80"}],"internalType":"struct RoundData[]","name":"","type":"tuple[]"}],"stateMutability":"view","type":"function"}],"bytecode":{"object":"608060405234801561001057600080fd5b506103fb806100206000396000f3fe608060405234801561001057600080fd5b506004361061002b5760003560e01c8063af22e5f414610030575b600080fd5b61004361003e366004610230565b610059565b6040516100509190610327565b60405180910390f35b606080825167ffffffffffffffff8111801561007457600080fd5b506040519080825280602002602001820160405280156100ae57816020015b61009b6101c1565b8152602001906001900390816100935790505b50905060005b83518110156101b85760008482815181106100cb57fe5b602002602001015190506000806000806000856001600160a01b031663feaf968c6040518163ffffffff1660e01b815260040160a06040518083038186803b15801561011657600080fd5b505afa15801561012a573d6000803e3d6000fd5b505050506040513d601f19601f8201168201806040525081019061014e91906102d8565b945094509450945094506101606101c1565b6001600160501b03808716825260208201869052604082018590526060820184905282166080820152885181908a908a90811061019957fe5b60200260200101819052505050505050505080806001019150506100b4565b5090505b919050565b6040518060a0016040528060006001600160501b0316815260200160008152602001600081526020016000815260200160006001600160501b031681525090565b80356001600160a01b03811681146101bc57600080fd5b80516001600160501b03811681146101bc57600080fd5b60006020808385031215610242578182fd5b823567ffffffffffffffff80821115610259578384fd5b818501915085601f83011261026c578384fd5b81358181111561027857fe5b83810291506102888483016103a1565b8181528481019084860184860187018a10156102a2578788fd5b8795505b838610156102cb576102b781610202565b8352600195909501949186019186016102a6565b5098975050505050505050565b600080600080600060a086880312156102ef578081fd5b6102f886610219565b945060208601519350604086015192506060860151915061031b60808701610219565b90509295509295909350565b602080825282518282018190526000919060409081850190868401855b8281101561039457815180516001600160501b0390811686528782015188870152868201518787015260608083015190870152608091820151169085015260a09093019290850190600101610344565b5091979650505050505050565b60405181810167ffffffffffffffff811182821017156103bd57fe5b60405291905056fea26469706673582212200ef112034655a9c11098e4c84e945aecffd9f04b92e040f07c65aed40ec2602c64736f6c63430007050033"}}