{"compiler":"v0.6.6+commit.6c089d02","opcodeHash":"0x492b19a70b5a6b2e52de61a0ca3c723e605a1ba283b2b740d9915ecffdbb76b4","metalessHash":"0x6310f4f89c2336e888630c2175267ae694672228c203ff7cb91e48e3798d1a63","runtimeHash":"0x10bf4252c0938efb8d88ce6186fbc8a2577c241cf4fdbeea3484a7aed2694ab7","encodedMetadata":[{"ipfs":"/ipfs/QmaP7CiFMjpq8AkBRagNSao8bGjNLbu712kFBCdhLoMzxe","solc":"0.6.6"}],"abi":[{"inputs":[{"internalType":"address","name":"_addressProvider","type":"address"}],"stateMutability":"nonpayable","type":"constructor"},{"anonymous":false,"inputs":[{"indexed":true,"internalType":"address","name":"_from","type":"address"},{"indexed":true,"internalType":"address","name":"_assetAddress","type":"address"},{"indexed":false,"internalType":"uint256","name":"amount","type":"uint256"}],"name":"LogWithdraw","type":"event"},{"anonymous":false,"inputs":[{"indexed":true,"internalType":"address","name":"previousOwner","type":"address"},{"indexed":true,"internalType":"address","name":"newOwner","type":"address"}],"name":"OwnershipTransferred","type":"event"},{"inputs":[],"name":"addressesProvider","outputs":[{"internalType":"contract ILendingPoolAddressesProvider","name":"","type":"address"}],"stateMutability":"view","type":"function"},{"inputs":[{"internalType":"address","name":"_reserve","type":"address"},{"internalType":"uint256","name":"_amount","type":"uint256"},{"internalType":"uint256","name":"_fee","type":"uint256"},{"internalType":"bytes","name":"_params","type":"bytes"}],"name":"executeOperation","outputs":[],"stateMutability":"nonpayable","type":"function"},{"inputs":[{"internalType":"address","name":"_asset","type":"address"},{"internalType":"uint256","name":"_amountToBorrow","type":"uint256"},{"internalType":"address","name":"_uniswapInputAddress","type":"address"},{"internalType":"address","name":"_uniswapOutputAddress","type":"address"},{"internalType":"address","name":"_curvePoolAddress","type":"address"},{"internalType":"uint32","name":"_curveInputTokenIndex","type":"uint32"},{"internalType":"uint32","name":"_curveOutputTokenIndex","type":"uint32"},{"internalType":"uint256","name":"_curveAmountIn","type":"uint256"},{"internalType":"uint256","name":"_curveMinAmountOut","type":"uint256"}],"name":"flashloanCurveToUniswap","outputs":[],"stateMutability":"nonpayable","type":"function"},{"inputs":[{"internalType":"address","name":"_asset","type":"address"},{"internalType":"uint256","name":"_amountToBorrow","type":"uint256"},{"internalType":"address","name":"_uniswapInputAddress","type":"address"},{"internalType":"address","name":"_uniswapOutputAddress","type":"address"},{"internalType":"uint256","name":"_uniswapAmountInMax","type":"uint256"},{"internalType":"uint256","name":"_uniswapAmountOut","type":"uint256"},{"internalType":"address","name":"_curvePoolAddress","type":"address"},{"internalType":"uint32","name":"_curveInputTokenIndex","type":"uint32"},{"internalType":"uint32","name":"_curveOutputTokenIndex","type":"uint32"}],"name":"flashloanUniswapToCurve","outputs":[],"stateMutability":"nonpayable","type":"function"},{"inputs":[],"name":"owner","outputs":[{"internalType":"address","name":"","type":"address"}],"stateMutability":"view","type":"function"},{"inputs":[],"name":"renounceOwnership","outputs":[],"stateMutability":"nonpayable","type":"function"},{"inputs":[{"internalType":"uint256","name":"amount","type":"uint256"}],"name":"transfer","outputs":[],"stateMutability":"nonpayable","type":"function"},{"inputs":[{"internalType":"address","name":"newOwner","type":"address"}],"name":"transferOwnership","outputs":[],"stateMutability":"nonpayable","type":"function"},{"inputs":[{"internalType":"address","name":"_assetAddress","type":"address"}],"name":"withdraw","outputs":[],"stateMutability":"nonpayable","type":"function"},{"stateMutability":"payable","type":"receive"}],"bytecode":{"object":"6080604052737a250d5630b4cf539739df2c5dacb4c659f2488d600260006101000a81548173ffffffffffffffffffffffffffffffffffffffff021916908373ffffffffffffffffffffffffffffffffffffffff16021790555034801561006557600080fd5b50604051620027c0380380620027c08339818101604052602081101561008a57600080fd5b81019080805190602001909291905050508060006100ac61019260201b60201c565b9050806000806101000a81548173ffffffffffffffffffffffffffffffffffffffff021916908373ffffffffffffffffffffffffffffffffffffffff1602179055508073ffffffffffffffffffffffffffffffffffffffff16600073ffffffffffffffffffffffffffffffffffffffff167f8be0079c531659141344cd1fd0a4f28419497f9722a3daafe3b4186f6b6457e060405160405180910390a35080600160006101000a81548173ffffffffffffffffffffffffffffffffffffffff021916908373ffffffffffffffffffffffffffffffffffffffff160217905550505061019a565b600033905090565b61261680620001aa6000396000f3fe60806040526004361061008a5760003560e01c8063715018a611610059578063715018a6146103025780638da5cb5b14610319578063c72c4d1014610370578063ee872558146103c7578063f2fde38b1461048157610091565b806312514bba14610096578063224eea51146100d15780635045670b146101c157806351cff8d9146102b157610091565b3661009157005b600080fd5b3480156100a257600080fd5b506100cf600480360360208110156100b957600080fd5b81019080803590602001909291905050506104d2565b005b3480156100dd57600080fd5b506101bf60048036036101208110156100f557600080fd5b81019080803573ffffffffffffffffffffffffffffffffffffffff16906020019092919080359060200190929190803573ffffffffffffffffffffffffffffffffffffffff169060200190929190803573ffffffffffffffffffffffffffffffffffffffff169060200190929190803573ffffffffffffffffffffffffffffffffffffffff169060200190929190803563ffffffff169060200190929190803563ffffffff16906020019092919080359060200190929190803590602001909291905050506105e5565b005b3480156101cd57600080fd5b506102af60048036036101208110156101e557600080fd5b81019080803573ffffffffffffffffffffffffffffffffffffffff16906020019092919080359060200190929190803573ffffffffffffffffffffffffffffffffffffffff169060200190929190803573ffffffffffffffffffffffffffffffffffffffff1690602001909291908035906020019092919080359060200190929190803573ffffffffffffffffffffffffffffffffffffffff169060200190929190803563ffffffff169060200190929190803563ffffffff169060200190929190505050610a9d565b005b3480156102bd57600080fd5b50610300600480360360208110156102d457600080fd5b81019080803573ffffffffffffffffffffffffffffffffffffffff169060200190929190505050610f55565b005b34801561030e57600080fd5b5061031761120f565b005b34801561032557600080fd5b5061032e611397565b604051808273ffffffffffffffffffffffffffffffffffffffff1673ffffffffffffffffffffffffffffffffffffffff16815260200191505060405180910390f35b34801561037c57600080fd5b506103856113c0565b604051808273ffffffffffffffffffffffffffffffffffffffff1673ffffffffffffffffffffffffffffffffffffffff16815260200191505060405180910390f35b3480156103d357600080fd5b5061047f600480360360808110156103ea57600080fd5b81019080803573ffffffffffffffffffffffffffffffffffffffff16906020019092919080359060200190929190803590602001909291908035906020019064010000000081111561043b57600080fd5b82018360208201111561044d57600080fd5b8035906020019184600183028401116401000000008311171561046f57600080fd5b90919293919293905050506113e6565b005b34801561048d57600080fd5b506104d0600480360360208110156104a457600080fd5b81019080803573ffffffffffffffffffffffffffffffffffffffff169060200190929190505050611667565b005b6104da611874565b73ffffffffffffffffffffffffffffffffffffffff166000809054906101000a900473ffffffffffffffffffffffffffffffffffffffff1673ffffffffffffffffffffffffffffffffffffffff161461059b576040517f08c379a00000000000000000000000000000000000000000000000000000000081526004018080602001828103825260208152602001807f4f776e61626c653a2063616c6c6572206973206e6f7420746865206f776e657281525060200191505060405180910390fd5b3373ffffffffffffffffffffffffffffffffffffffff166108fc829081150290604051600060405180830381858888f193505050501580156105e1573d6000803e3d6000fd5b5050565b6105ed611874565b73ffffffffffffffffffffffffffffffffffffffff166000809054906101000a900473ffffffffffffffffffffffffffffffffffffffff1673ffffffffffffffffffffffffffffffffffffffff16146106ae576040517f08c379a00000000000000000000000000000000000000000000000000000000081526004018080602001828103825260208152602001807f4f776e61626c653a2063616c6c6572206973206e6f7420746865206f776e657281525060200191505060405180910390fd5b606060405180602001604052806000815250905060008990506040518060e001604052808873ffffffffffffffffffffffffffffffffffffffff1681526020018763ffffffff1681526020018663ffffffff1681526020018581526020018481526020018a73ffffffffffffffffffffffffffffffffffffffff1681526020018973ffffffffffffffffffffffffffffffffffffffff16815250600960008201518160000160006101000a81548173ffffffffffffffffffffffffffffffffffffffff021916908373ffffffffffffffffffffffffffffffffffffffff16021790555060208201518160000160146101000a81548163ffffffff021916908363ffffffff16021790555060408201518160000160186101000a81548163ffffffff021916908363ffffffff160217905550606082015181600101556080820151816002015560a08201518160030160006101000a81548173ffffffffffffffffffffffffffffffffffffffff021916908373ffffffffffffffffffffffffffffffffffffffff16021790555060c08201518160040160006101000a81548173ffffffffffffffffffffffffffffffffffffffff021916908373ffffffffffffffffffffffffffffffffffffffff1602179055509050506001600360146101000a81548160ff021916908360018111156108a357fe5b02179055506000600160009054906101000a900473ffffffffffffffffffffffffffffffffffffffff1673ffffffffffffffffffffffffffffffffffffffff16630261bf8b6040518163ffffffff1660e01b815260040160206040518083038186803b15801561091257600080fd5b505afa158015610926573d6000803e3d6000fd5b505050506040513d602081101561093c57600080fd5b810190808051906020019092919050505090508073ffffffffffffffffffffffffffffffffffffffff16635cffe9de308e85876040518563ffffffff1660e01b8152600401808573ffffffffffffffffffffffffffffffffffffffff1673ffffffffffffffffffffffffffffffffffffffff1681526020018473ffffffffffffffffffffffffffffffffffffffff1673ffffffffffffffffffffffffffffffffffffffff16815260200183815260200180602001828103825283818151815260200191508051906020019080838360005b83811015610a28578082015181840152602081019050610a0d565b50505050905090810190601f168015610a555780820380516001836020036101000a031916815260200191505b5095505050505050600060405180830381600087803b158015610a7757600080fd5b505af1158015610a8b573d6000803e3d6000fd5b50505050505050505050505050505050565b610aa5611874565b73ffffffffffffffffffffffffffffffffffffffff166000809054906101000a900473ffffffffffffffffffffffffffffffffffffffff1673ffffffffffffffffffffffffffffffffffffffff1614610b66576040517f08c379a00000000000000000000000000000000000000000000000000000000081526004018080602001828103825260208152602001807f4f776e61626c653a2063616c6c6572206973206e6f7420746865206f776e657281525060200191505060405180910390fd5b606060405180602001604052806000815250905060008990506040518060e001604052808a73ffffffffffffffffffffffffffffffffffffffff1681526020018973ffffffffffffffffffffffffffffffffffffffff1681526020018881526020018781526020018673ffffffffffffffffffffffffffffffffffffffff1681526020018563ffffffff1681526020018463ffffffff16815250600460008201518160000160006101000a81548173ffffffffffffffffffffffffffffffffffffffff021916908373ffffffffffffffffffffffffffffffffffffffff16021790555060208201518160010160006101000a81548173ffffffffffffffffffffffffffffffffffffffff021916908373ffffffffffffffffffffffffffffffffffffffff160217905550604082015181600201556060820151816003015560808201518160040160006101000a81548173ffffffffffffffffffffffffffffffffffffffff021916908373ffffffffffffffffffffffffffffffffffffffff16021790555060a08201518160040160146101000a81548163ffffffff021916908363ffffffff16021790555060c08201518160040160186101000a81548163ffffffff021916908363ffffffff1602179055509050506000600360146101000a81548160ff02191690836001811115610d5b57fe5b02179055506000600160009054906101000a900473ffffffffffffffffffffffffffffffffffffffff1673ffffffffffffffffffffffffffffffffffffffff16630261bf8b6040518163ffffffff1660e01b815260040160206040518083038186803b158015610dca57600080fd5b505afa158015610dde573d6000803e3d6000fd5b505050506040513d6020811015610df457600080fd5b810190808051906020019092919050505090508073ffffffffffffffffffffffffffffffffffffffff16635cffe9de308e85876040518563ffffffff1660e01b8152600401808573ffffffffffffffffffffffffffffffffffffffff1673ffffffffffffffffffffffffffffffffffffffff1681526020018473ffffffffffffffffffffffffffffffffffffffff1673ffffffffffffffffffffffffffffffffffffffff16815260200183815260200180602001828103825283818151815260200191508051906020019080838360005b83811015610ee0578082015181840152602081019050610ec5565b50505050905090810190601f168015610f0d5780820380516001836020036101000a031916815260200191505b5095505050505050600060405180830381600087803b158015610f2f57600080fd5b505af1158015610f43573d6000803e3d6000fd5b50505050505050505050505050505050565b610f5d611874565b73ffffffffffffffffffffffffffffffffffffffff166000809054906101000a900473ffffffffffffffffffffffffffffffffffffffff1673ffffffffffffffffffffffffffffffffffffffff161461101e576040517f08c379a00000000000000000000000000000000000000000000000000000000081526004018080602001828103825260208152602001807f4f776e61626c653a2063616c6c6572206973206e6f7420746865206f776e657281525060200191505060405180910390fd5b60008073ffffffffffffffffffffffffffffffffffffffff168273ffffffffffffffffffffffffffffffffffffffff1614156110c05760003090508073ffffffffffffffffffffffffffffffffffffffff163191503373ffffffffffffffffffffffffffffffffffffffff166108fc839081150290604051600060405180830381858888f193505050501580156110b9573d6000803e3d6000fd5b50506111a6565b8173ffffffffffffffffffffffffffffffffffffffff166370a08231306040518263ffffffff1660e01b8152600401808273ffffffffffffffffffffffffffffffffffffffff1673ffffffffffffffffffffffffffffffffffffffff16815260200191505060206040518083038186803b15801561113d57600080fd5b505afa158015611151573d6000803e3d6000fd5b505050506040513d602081101561116757600080fd5b810190808051906020019092919050505090506111a533828473ffffffffffffffffffffffffffffffffffffffff1661187c9092919063ffffffff16565b5b8173ffffffffffffffffffffffffffffffffffffffff163373ffffffffffffffffffffffffffffffffffffffff167f9207361cc2a04b9c7a06691df1eb87c6a63957ae88bf01d0d18c81e3d1272099836040518082815260200191505060405180910390a35050565b611217611874565b73ffffffffffffffffffffffffffffffffffffffff166000809054906101000a900473ffffffffffffffffffffffffffffffffffffffff1673ffffffffffffffffffffffffffffffffffffffff16146112d8576040517f08c379a00000000000000000000000000000000000000000000000000000000081526004018080602001828103825260208152602001807f4f776e61626c653a2063616c6c6572206973206e6f7420746865206f776e657281525060200191505060405180910390fd5b600073ffffffffffffffffffffffffffffffffffffffff166000809054906101000a900473ffffffffffffffffffffffffffffffffffffffff1673ffffffffffffffffffffffffffffffffffffffff167f8be0079c531659141344cd1fd0a4f28419497f9722a3daafe3b4186f6b6457e060405160405180910390a360008060006101000a81548173ffffffffffffffffffffffffffffffffffffffff021916908373ffffffffffffffffffffffffffffffffffffffff160217905550565b60008060009054906101000a900473ffffffffffffffffffffffffffffffffffffffff16905090565b600160009054906101000a900473ffffffffffffffffffffffffffffffffffffffff1681565b6113f03086611934565b841115611448576040517f08c379a000000000000000000000000000000000000000000000000000000000815260040180806020018281038252602e815260200180612589602e913960400191505060405180910390fd5b6000600181111561145557fe5b600360149054906101000a900460ff16600181111561147057fe5b1415611542576114d1600460000160009054906101000a900473ffffffffffffffffffffffffffffffffffffffff16600460010160009054906101000a900473ffffffffffffffffffffffffffffffffffffffff1686600460030154611a5e565b6115416004800160009054906101000a900473ffffffffffffffffffffffffffffffffffffffff166004800160149054906101000a900463ffffffff166004800160189054906101000a900463ffffffff1660046003015461153c888a611e0d90919063ffffffff16565b611e95565b5b60018081111561154e57fe5b600360149054906101000a900460ff16600181111561156957fe5b141561163e576115d0600960000160009054906101000a900473ffffffffffffffffffffffffffffffffffffffff16600960000160149054906101000a900463ffffffff16600960000160189054906101000a900463ffffffff1687600960020154611e95565b61163d600960030160009054906101000a900473ffffffffffffffffffffffffffffffffffffffff16600960040160009054906101000a900473ffffffffffffffffffffffffffffffffffffffff166009600201546116388789611e0d90919063ffffffff16565b611a5e565b5b60006116538486611e0d90919063ffffffff16565b905061165f8682611f94565b505050505050565b61166f611874565b73ffffffffffffffffffffffffffffffffffffffff166000809054906101000a900473ffffffffffffffffffffffffffffffffffffffff1673ffffffffffffffffffffffffffffffffffffffff1614611730576040517f08c379a00000000000000000000000000000000000000000000000000000000081526004018080602001828103825260208152602001807f4f776e61626c653a2063616c6c6572206973206e6f7420746865206f776e657281525060200191505060405180910390fd5b600073ffffffffffffffffffffffffffffffffffffffff168173ffffffffffffffffffffffffffffffffffffffff1614156117b6576040517f08c379a000000000000000000000000000000000000000000000000000000000815260040180806020018281038252602681526020018061253d6026913960400191505060405180910390fd5b8073ffffffffffffffffffffffffffffffffffffffff166000809054906101000a900473ffffffffffffffffffffffffffffffffffffffff1673ffffffffffffffffffffffffffffffffffffffff167f8be0079c531659141344cd1fd0a4f28419497f9722a3daafe3b4186f6b6457e060405160405180910390a3806000806101000a81548173ffffffffffffffffffffffffffffffffffffffff021916908373ffffffffffffffffffffffffffffffffffffffff16021790555050565b600033905090565b61192f8363a9059cbb60e01b8484604051602401808373ffffffffffffffffffffffffffffffffffffffff1673ffffffffffffffffffffffffffffffffffffffff16815260200182815260200192505050604051602081830303815290604052907bffffffffffffffffffffffffffffffffffffffffffffffffffffffff19166020820180517bffffffffffffffffffffffffffffffffffffffffffffffffffffffff838183161783525050505061204b565b505050565b600073eeeeeeeeeeeeeeeeeeeeeeeeeeeeeeeeeeeeeeee73ffffffffffffffffffffffffffffffffffffffff168273ffffffffffffffffffffffffffffffffffffffff16141561199d578273ffffffffffffffffffffffffffffffffffffffff16319050611a58565b8173ffffffffffffffffffffffffffffffffffffffff166370a08231846040518263ffffffff1660e01b8152600401808273ffffffffffffffffffffffffffffffffffffffff1673ffffffffffffffffffffffffffffffffffffffff16815260200191505060206040518083038186803b158015611a1a57600080fd5b505afa158015611a2e573d6000803e3d6000fd5b505050506040513d6020811015611a4457600080fd5b810190808051906020019092919050505090505b92915050565b6000600f420190506060600267ffffffffffffffff81118015611a8057600080fd5b50604051908082528060200260200182016040528015611aaf5781602001602082028036833780820191505090505b5090508581600081518110611ac057fe5b602002602001019073ffffffffffffffffffffffffffffffffffffffff16908173ffffffffffffffffffffffffffffffffffffffff16815250508481600181518110611b0857fe5b602002602001019073ffffffffffffffffffffffffffffffffffffffff16908173ffffffffffffffffffffffffffffffffffffffff168152505060008690508073ffffffffffffffffffffffffffffffffffffffff1663095ea7b3600260009054906101000a900473ffffffffffffffffffffffffffffffffffffffff16876040518363ffffffff1660e01b8152600401808373ffffffffffffffffffffffffffffffffffffffff1673ffffffffffffffffffffffffffffffffffffffff16815260200182815260200192505050602060405180830381600087803b158015611bf057600080fd5b505af1158015611c04573d6000803e3d6000fd5b505050506040513d6020811015611c1a57600080fd5b810190808051906020019092919050505050600260009054906101000a900473ffffffffffffffffffffffffffffffffffffffff1673ffffffffffffffffffffffffffffffffffffffff16638803dbee85878530886040518663ffffffff1660e01b815260040180868152602001858152602001806020018473ffffffffffffffffffffffffffffffffffffffff1673ffffffffffffffffffffffffffffffffffffffff168152602001838152602001828103825285818151815260200191508051906020019060200280838360005b83811015611d05578082015181840152602081019050611cea565b505050509050019650505050505050600060405180830381600087803b158015611d2e57600080fd5b505af1158015611d42573d6000803e3d6000fd5b505050506040513d6000823e3d601f19601f820116820180604052506020811015611d6c57600080fd5b8101908080516040519392919084640100000000821115611d8c57600080fd5b83820191506020820185811115611da257600080fd5b8251866020820283011164010000000082111715611dbf57600080fd5b8083526020830192505050908051906020019060200280838360005b83811015611df6578082015181840152602081019050611ddb565b505050509050016040525050505050505050505050565b600080828401905083811015611e8b576040517f08c379a000000000000000000000000000000000000000000000000000000000815260040180806020018281038252601b8152602001807f536166654d6174683a206164646974696f6e206f766572666c6f77000000000081525060200191505060405180910390fd5b8091505092915050565b84600360006101000a81548173ffffffffffffffffffffffffffffffffffffffff021916908373ffffffffffffffffffffffffffffffffffffffff160217905550600360009054906101000a900473ffffffffffffffffffffffffffffffffffffffff1673ffffffffffffffffffffffffffffffffffffffff16633df02124858585856040518563ffffffff1660e01b8152600401808563ffffffff16600f0b81526020018463ffffffff16600f0b8152602001838152602001828152602001945050505050600060405180830381600087803b158015611f7557600080fd5b505af1158015611f89573d6000803e3d6000fd5b505050505050505050565b6000600160009054906101000a900473ffffffffffffffffffffffffffffffffffffffff1673ffffffffffffffffffffffffffffffffffffffff1663ed6ff7606040518163ffffffff1660e01b815260040160206040518083038186803b158015611ffe57600080fd5b505afa158015612012573d6000803e3d6000fd5b505050506040513d602081101561202857600080fd5b8101908080519060200190929190505050905061204681848461213a565b505050565b60606120ad826040518060400160405280602081526020017f5361666545524332303a206c6f772d6c6576656c2063616c6c206661696c65648152508573ffffffffffffffffffffffffffffffffffffffff1661229c9092919063ffffffff16565b9050600081511115612135578080602001905160208110156120ce57600080fd5b8101908080519060200190929190505050612134576040517f08c379a000000000000000000000000000000000000000000000000000000000815260040180806020018281038252602a8152602001806125b7602a913960400191505060405180910390fd5b5b505050565b73eeeeeeeeeeeeeeeeeeeeeeeeeeeeeeeeeeeeeeee73ffffffffffffffffffffffffffffffffffffffff168273ffffffffffffffffffffffffffffffffffffffff16141561226b5760008373ffffffffffffffffffffffffffffffffffffffff168260405180600001905060006040518083038185875af1925050503d80600081146121e2576040519150601f19603f3d011682016040523d82523d6000602084013e6121e7565b606091505b505090506001151581151514612265576040517f08c379a00000000000000000000000000000000000000000000000000000000081526004018080602001828103825260158152602001807f436f756c646e2774207472616e7366657220455448000000000000000000000081525060200191505060405180910390fd5b50612297565b61229683828473ffffffffffffffffffffffffffffffffffffffff1661187c9092919063ffffffff16565b5b505050565b60606122ab84846000856122b4565b90509392505050565b60608247101561230f576040517f08c379a00000000000000000000000000000000000000000000000000000000081526004018080602001828103825260268152602001806125636026913960400191505060405180910390fd5b6123188561245d565b61238a576040517f08c379a000000000000000000000000000000000000000000000000000000000815260040180806020018281038252601d8152602001807f416464726573733a2063616c6c20746f206e6f6e2d636f6e747261637400000081525060200191505060405180910390fd5b600060608673ffffffffffffffffffffffffffffffffffffffff1685876040518082805190602001908083835b602083106123da57805182526020820191506020810190506020830392506123b7565b6001836020036101000a03801982511681845116808217855250505050505090500191505060006040518083038185875af1925050503d806000811461243c576040519150601f19603f3d011682016040523d82523d6000602084013e612441565b606091505b5091509150612451828286612470565b92505050949350505050565b600080823b905060008111915050919050565b6060831561248057829050612535565b6000835111156124935782518084602001fd5b816040517f08c379a00000000000000000000000000000000000000000000000000000000081526004018080602001828103825283818151815260200191508051906020019080838360005b838110156124fa5780820151818401526020810190506124df565b50505050905090810190601f1680156125275780820380516001836020036101000a031916815260200191505b509250505060405180910390fd5b939250505056fe4f776e61626c653a206e6577206f776e657220697320746865207a65726f2061646472657373416464726573733a20696e73756666696369656e742062616c616e636520666f722063616c6c496e76616c69642062616c616e63652c207761732074686520666c6173684c6f616e207375636365737366756c3f5361666545524332303a204552433230206f7065726174696f6e20646964206e6f742073756363656564a26469706673582212207a88f93b7b5cf2ae298bb3fcabfd03ce81a42b329ff73ed142e988cd3c44db2c64736f6c63430006060033"}}