{"compiler":"v0.6.7+commit.b8d736ae","opcodeHash":"0xaa7484daf2d3f9ce82d331ca8a759156292c763cd8edbcd2ff82956c1603797d","metalessHash":"0xcf05cdeaf7e0b947327ec6c59e1b6996e2ca7409c262919735af4e7274a9c9b4","runtimeHash":"0x2509734f37ea9a5c2a6de7408938e30b78892453df57e20e09794330a3474f1d","encodedMetadata":[{"ipfs":"/ipfs/QmZQnjVHxSq3romcdxDBzN5LCuA6n7f5gpqnN9R87UGgxs","solc":"0.6.7"}],"abi":[{"inputs":[],"stateMutability":"nonpayable","type":"constructor"},{"anonymous":false,"inputs":[{"indexed":false,"internalType":"address","name":"account","type":"address"}],"name":"AddAuthorization","type":"event"},{"anonymous":false,"inputs":[{"indexed":false,"internalType":"address","name":"account","type":"address"}],"name":"RemoveAuthorization","type":"event"},{"inputs":[{"internalType":"address","name":"account","type":"address"}],"name":"addAuthorization","outputs":[],"stateMutability":"nonpayable","type":"function"},{"inputs":[{"internalType":"address","name":"","type":"address"}],"name":"authorizedAccounts","outputs":[{"internalType":"uint256","name":"","type":"uint256"}],"stateMutability":"view","type":"function"},{"inputs":[{"internalType":"address","name":"account","type":"address"}],"name":"removeAuthorization","outputs":[],"stateMutability":"nonpayable","type":"function"}],"bytecode":{"object":"608060405234801561001057600080fd5b50336000818152602081815260409182902060019055815192835290517f599a298163e1678bb1c676052a8930bf0b8a1261ed6e01b8a2391e55f70001029281900390910190a161027f806100666000396000f3fe608060405234801561001057600080fd5b50600436106100415760003560e01c806324ba58841461004657806335b281531461007e57806394f3f81d146100a6575b600080fd5b61006c6004803603602081101561005c57600080fd5b50356001600160a01b03166100cc565b60408051918252519081900360200190f35b6100a46004803603602081101561009457600080fd5b50356001600160a01b03166100de565b005b6100a4600480360360208110156100bc57600080fd5b50356001600160a01b0316610194565b60006020819052908152604090205481565b33600090815260208190526040902054600114610142576040805162461bcd60e51b815260206004820152601e60248201527f476562417574682f6163636f756e742d6e6f742d617574686f72697a65640000604482015290519081900360640190fd5b6001600160a01b0381166000818152602081815260409182902060019055815192835290517f599a298163e1678bb1c676052a8930bf0b8a1261ed6e01b8a2391e55f70001029281900390910190a150565b336000908152602081905260409020546001146101f8576040805162461bcd60e51b815260206004820152601e60248201527f476562417574682f6163636f756e742d6e6f742d617574686f72697a65640000604482015290519081900360640190fd5b6001600160a01b03811660008181526020818152604080832092909255815192835290517f8834a87e641e9716be4f34527af5d23e11624f1ddeefede6ad75a9acfc31b9039281900390910190a15056fea2646970667358221220310975849e0c3996bcb976a531def7abbb88da07aa622e21032b37079d17fdca64736f6c63430006070033"}}