{"compiler":"v0.6.12+commit.27d51765","opcodeHash":"0xb24378ec337ae67471f4b7b35f233f08ef19b130b5f764a8c3e416b457c7fc75","metalessHash":"0xd188728c3e48ac3ae075fa6006505d15f0d76824a57c19c574271b9313834f5d","runtimeHash":"0xf01d66c291592d3f3acb5a36e86dfec8e9a68917752393c3ef0a8e6b23a13dd9","encodedMetadata":[{"ipfs":"/ipfs/QmPGSqJn4oUprDzEZBS2iYtuqsv792aGk6Shw7GD7Pjwio","solc":"0.6.12"}],"abi":[{"inputs":[{"internalType":"address","name":"_vault","type":"address"},{"internalType":"address","name":"_uniswapRouter","type":"address"},{"internalType":"address","name":"_balancerPool","type":"address"},{"internalType":"address","name":"_dvd","type":"address"},{"internalType":"address","name":"_sdvd","type":"address"},{"internalType":"address","name":"_sdvdEthPool","type":"address"},{"internalType":"address","name":"_dvdPool","type":"address"},{"internalType":"address","name":"_devTreasury","type":"address"},{"internalType":"address","name":"_poolTreasury","type":"address"},{"internalType":"address","name":"_tradingTreasury","type":"address"},{"internalType":"uint256","name":"_marketOpenTime","type":"uint256"}],"stateMutability":"nonpayable","type":"constructor"},{"anonymous":false,"inputs":[{"indexed":true,"internalType":"address","name":"sender","type":"address"},{"indexed":true,"internalType":"address","name":"recipient","type":"address"},{"indexed":false,"internalType":"uint256","name":"musdAmount","type":"uint256"},{"indexed":false,"internalType":"uint256","name":"dvdReceived","type":"uint256"}],"name":"Bought","type":"event"},{"anonymous":false,"inputs":[{"indexed":true,"internalType":"address","name":"recipient","type":"address"},{"indexed":false,"internalType":"uint256","name":"musdReceived","type":"uint256"}],"name":"DividendClaimed","type":"event"},{"anonymous":false,"inputs":[{"indexed":true,"internalType":"address","name":"recipient","type":"address"},{"indexed":false,"internalType":"uint256","name":"ethReceived","type":"uint256"}],"name":"DividendClaimedETH","type":"event"},{"anonymous":false,"inputs":[{"indexed":true,"internalType":"address","name":"from","type":"address"},{"indexed":false,"internalType":"uint256","name":"amount","type":"uint256"}],"name":"Received","type":"event"},{"anonymous":false,"inputs":[{"indexed":true,"internalType":"address","name":"sender","type":"address"},{"indexed":true,"internalType":"address","name":"recipient","type":"address"},{"indexed":false,"internalType":"uint256","name":"dvdAmount","type":"uint256"},{"indexed":false,"internalType":"uint256","name":"musdReceived","type":"uint256"}],"name":"Sold","type":"event"},{"anonymous":false,"inputs":[{"indexed":true,"internalType":"address","name":"sender","type":"address"},{"indexed":true,"internalType":"address","name":"recipient","type":"address"},{"indexed":false,"internalType":"uint256","name":"dvdAmount","type":"uint256"},{"indexed":false,"internalType":"uint256","name":"ethReceived","type":"uint256"}],"name":"SoldToETH","type":"event"},{"inputs":[],"name":"BURN_ADDRESS","outputs":[{"internalType":"address","name":"","type":"address"}],"stateMutability":"view","type":"function"},{"inputs":[],"name":"BUY_TAX_DENOMINATOR","outputs":[{"internalType":"uint256","name":"","type":"uint256"}],"stateMutability":"view","type":"function"},{"inputs":[],"name":"CURVE_TAX_DENOMINATOR","outputs":[{"internalType":"uint256","name":"","type":"uint256"}],"stateMutability":"view","type":"function"},{"inputs":[],"name":"DIVIDER","outputs":[{"internalType":"uint256","name":"","type":"uint256"}],"stateMutability":"view","type":"function"},{"inputs":[],"name":"SELL_TAX_DENOMINATOR","outputs":[{"internalType":"uint256","name":"","type":"uint256"}],"stateMutability":"view","type":"function"},{"inputs":[],"name":"SNAPSHOT_DURATION","outputs":[{"internalType":"uint256","name":"","type":"uint256"}],"stateMutability":"view","type":"function"},{"inputs":[{"internalType":"uint256","name":"musdAmount","type":"uint256"}],"name":"buy","outputs":[{"internalType":"uint256","name":"recipientDVD","type":"uint256"},{"internalType":"uint256","name":"marketTax","type":"uint256"},{"internalType":"uint256","name":"curveTax","type":"uint256"},{"internalType":"uint256","name":"taxedDVD","type":"uint256"}],"stateMutability":"nonpayable","type":"function"},{"inputs":[],"name":"buyFromETH","outputs":[{"internalType":"uint256","name":"recipientDVD","type":"uint256"},{"internalType":"uint256","name":"marketTax","type":"uint256"},{"internalType":"uint256","name":"curveTax","type":"uint256"},{"internalType":"uint256","name":"taxedDVD","type":"uint256"}],"stateMutability":"payable","type":"function"},{"inputs":[{"internalType":"address","name":"recipient","type":"address"},{"internalType":"uint256","name":"musdAmount","type":"uint256"}],"name":"buyTo","outputs":[{"internalType":"uint256","name":"recipientDVD","type":"uint256"},{"internalType":"uint256","name":"marketTax","type":"uint256"},{"internalType":"uint256","name":"curveTax","type":"uint256"},{"internalType":"uint256","name":"taxedDVD","type":"uint256"}],"stateMutability":"nonpayable","type":"function"},{"inputs":[],"name":"checkSnapshot","outputs":[],"stateMutability":"nonpayable","type":"function"},{"inputs":[],"name":"claimDividend","outputs":[{"internalType":"uint256","name":"dividend","type":"uint256"}],"stateMutability":"nonpayable","type":"function"},{"inputs":[],"name":"claimDividendETH","outputs":[{"internalType":"uint256","name":"dividend","type":"uint256"},{"internalType":"uint256","name":"receivedETH","type":"uint256"}],"stateMutability":"nonpayable","type":"function"},{"inputs":[{"internalType":"address","name":"recipient","type":"address"}],"name":"claimDividendTo","outputs":[{"internalType":"uint256","name":"dividend","type":"uint256"}],"stateMutability":"nonpayable","type":"function"},{"inputs":[{"internalType":"address","name":"account","type":"address"}],"name":"claimableDividend","outputs":[{"internalType":"uint256","name":"dividend","type":"uint256"}],"stateMutability":"view","type":"function"},{"inputs":[],"name":"claimableProfit","outputs":[{"internalType":"uint256","name":"","type":"uint256"}],"stateMutability":"view","type":"function"},{"inputs":[{"internalType":"uint256","name":"_snapshotId","type":"uint256"}],"name":"claimableProfitAt","outputs":[{"internalType":"uint256","name":"","type":"uint256"}],"stateMutability":"view","type":"function"},{"inputs":[{"internalType":"uint256","name":"amount","type":"uint256"}],"name":"depositTradingProfit","outputs":[],"stateMutability":"nonpayable","type":"function"},{"inputs":[],"name":"devTreasury","outputs":[{"internalType":"address","name":"","type":"address"}],"stateMutability":"view","type":"function"},{"inputs":[],"name":"dividendPayingSDVDSupply","outputs":[{"internalType":"uint256","name":"","type":"uint256"}],"stateMutability":"view","type":"function"},{"inputs":[{"internalType":"uint256","name":"_snapshotId","type":"uint256"}],"name":"dividendPayingSDVDSupplyAt","outputs":[{"internalType":"uint256","name":"","type":"uint256"}],"stateMutability":"view","type":"function"},{"inputs":[],"name":"dvd","outputs":[{"internalType":"address","name":"","type":"address"}],"stateMutability":"view","type":"function"},{"inputs":[],"name":"dvdBurnedAmount","outputs":[{"internalType":"uint256","name":"","type":"uint256"}],"stateMutability":"view","type":"function"},{"inputs":[],"name":"dvdPool","outputs":[{"internalType":"address","name":"","type":"address"}],"stateMutability":"view","type":"function"},{"inputs":[],"name":"dvdPrice","outputs":[{"internalType":"uint256","name":"","type":"uint256"}],"stateMutability":"view","type":"function"},{"inputs":[],"name":"dvdPriceFloor","outputs":[{"internalType":"uint256","name":"","type":"uint256"}],"stateMutability":"view","type":"function"},{"inputs":[{"internalType":"uint256","name":"tokenAmount","type":"uint256"}],"name":"dvdToReserve","outputs":[{"internalType":"uint256","name":"","type":"uint256"}],"stateMutability":"view","type":"function"},{"inputs":[{"internalType":"uint256","name":"tokenAmount","type":"uint256"}],"name":"dvdToReserveTaxed","outputs":[{"internalType":"uint256","name":"","type":"uint256"}],"stateMutability":"view","type":"function"},{"inputs":[],"name":"dvdTotalSupply","outputs":[{"internalType":"uint256","name":"","type":"uint256"}],"stateMutability":"view","type":"function"},{"inputs":[{"internalType":"address","name":"account","type":"address"},{"internalType":"uint256","name":"_snapshotId","type":"uint256"}],"name":"isDividendClaimedAt","outputs":[{"internalType":"bool","name":"","type":"bool"}],"stateMutability":"view","type":"function"},{"inputs":[],"name":"isMarketOpen","outputs":[{"internalType":"bool","name":"","type":"bool"}],"stateMutability":"view","type":"function"},{"inputs":[],"name":"marketOpenTime","outputs":[{"internalType":"uint256","name":"","type":"uint256"}],"stateMutability":"view","type":"function"},{"inputs":[],"name":"poolTreasury","outputs":[{"internalType":"address","name":"","type":"address"}],"stateMutability":"view","type":"function"},{"inputs":[],"name":"releaseTreasury","outputs":[],"stateMutability":"nonpayable","type":"function"},{"inputs":[{"internalType":"uint256","name":"reserveAmount","type":"uint256"}],"name":"reserveToDVD","outputs":[{"internalType":"uint256","name":"","type":"uint256"}],"stateMutability":"view","type":"function"},{"inputs":[{"internalType":"uint256","name":"reserveAmount","type":"uint256"}],"name":"reserveToDVDTaxed","outputs":[{"internalType":"uint256","name":"","type":"uint256"}],"stateMutability":"view","type":"function"},{"inputs":[],"name":"sdvd","outputs":[{"internalType":"address","name":"","type":"address"}],"stateMutability":"view","type":"function"},{"inputs":[],"name":"sdvdEthPairAddress","outputs":[{"internalType":"address","name":"","type":"address"}],"stateMutability":"view","type":"function"},{"inputs":[],"name":"sdvdEthPool","outputs":[{"internalType":"address","name":"","type":"address"}],"stateMutability":"view","type":"function"},{"inputs":[{"internalType":"uint256","name":"dvdAmount","type":"uint256"}],"name":"sell","outputs":[{"internalType":"uint256","name":"returnedMUSD","type":"uint256"},{"internalType":"uint256","name":"marketTax","type":"uint256"},{"internalType":"uint256","name":"curveTax","type":"uint256"},{"internalType":"uint256","name":"taxedDVD","type":"uint256"}],"stateMutability":"nonpayable","type":"function"},{"inputs":[{"internalType":"address","name":"recipient","type":"address"},{"internalType":"uint256","name":"dvdAmount","type":"uint256"}],"name":"sellTo","outputs":[{"internalType":"uint256","name":"returnedMUSD","type":"uint256"},{"internalType":"uint256","name":"marketTax","type":"uint256"},{"internalType":"uint256","name":"curveTax","type":"uint256"},{"internalType":"uint256","name":"taxedDVD","type":"uint256"}],"stateMutability":"nonpayable","type":"function"},{"inputs":[{"internalType":"uint256","name":"dvdAmount","type":"uint256"}],"name":"sellToETH","outputs":[{"internalType":"uint256","name":"returnedETH","type":"uint256"},{"internalType":"uint256","name":"returnedMUSD","type":"uint256"},{"internalType":"uint256","name":"marketTax","type":"uint256"},{"internalType":"uint256","name":"curveTax","type":"uint256"},{"internalType":"uint256","name":"taxedDVD","type":"uint256"}],"stateMutability":"nonpayable","type":"function"},{"inputs":[],"name":"snapshotId","outputs":[{"internalType":"uint256","name":"","type":"uint256"}],"stateMutability":"view","type":"function"},{"inputs":[],"name":"snapshotTime","outputs":[{"internalType":"uint256","name":"","type":"uint256"}],"stateMutability":"view","type":"function"},{"inputs":[],"name":"totalDividendClaimed","outputs":[{"internalType":"uint256","name":"","type":"uint256"}],"stateMutability":"view","type":"function"},{"inputs":[],"name":"totalLockedReserve","outputs":[{"internalType":"uint256","name":"","type":"uint256"}],"stateMutability":"view","type":"function"},{"inputs":[],"name":"totalProfit","outputs":[{"internalType":"uint256","name":"","type":"uint256"}],"stateMutability":"view","type":"function"},{"inputs":[{"internalType":"uint256","name":"_snapshotId","type":"uint256"}],"name":"totalProfitAt","outputs":[{"internalType":"uint256","name":"","type":"uint256"}],"stateMutability":"view","type":"function"},{"inputs":[],"name":"totalReserve","outputs":[{"internalType":"uint256","name":"","type":"uint256"}],"stateMutability":"view","type":"function"},{"inputs":[],"name":"tradingTreasury","outputs":[{"internalType":"address","name":"","type":"address"}],"stateMutability":"view","type":"function"},{"inputs":[],"name":"vault","outputs":[{"internalType":"address","name":"","type":"address"}],"stateMutability":"view","type":"function"},{"stateMutability":"payable","type":"receive"}],"bytecode":{"object":"6080604052600f805460ff60a01b1916905562093a806013553480156200002557600080fd5b506040516200386e3803806200386e83398181016040526101608110156200004c57600080fd5b5080516020808301516040808501516060860151608087015160a088015160c089015160e08a01516101008b01516101208c0151610140909c01516001600055600f80546001600160a01b0319166001600160a01b03808f1691909117918290558a51630cab666d60e41b81529a519d9e9b9d999c989b979a96999598949793969395929491169263cab666d09260048083019392829003018186803b158015620000f657600080fd5b505afa1580156200010b573d6000803e3d6000fd5b505050506040513d60208110156200012257600080fd5b5051600480546001600160a01b0319166001600160a01b039283161790819055600f5462000155929182169116620003ee565b600180546001600160a01b03808d166001600160a01b03199283161792839055600380548d8316931692909217909155604080516315ab88c960e31b81529051929091169163ad5c464891600480820192602092909190829003018186803b158015620001c157600080fd5b505afa158015620001d6573d6000803e3d6000fd5b505050506040513d6020811015620001ed57600080fd5b5051600280546001600160a01b0319166001600160a01b0392831617905560045460035462000221929182169116620003ee565b6002546003546200023f916001600160a01b039081169116620003ee565b60045462000257906001600160a01b031630620003ee565b600580546001600160a01b03199081166001600160a01b038b8116919091179092556006805482168a8416179055600880548216898416179055600980548216888416179055600a80548216878416179055600b80548216868416179055600c80549091168483161790556001546040805163c45a015560e01b81529051919092169163c45a0155916004808301926020929190829003018186803b1580156200030057600080fd5b505afa15801562000315573d6000803e3d6000fd5b505050506040513d60208110156200032c57600080fd5b5051600654600254604080516364e329cb60e11b81526001600160a01b039384166004820152918316602483015251919092169163c9c653969160448083019260209291908290030181600087803b1580156200038857600080fd5b505af11580156200039d573d6000803e3d6000fd5b505050506040513d6020811015620003b457600080fd5b5051600780546001600160a01b0319166001600160a01b03909216919091179055601081905560125550620007ca98505050505050505050565b600019620004136001600160a01b038416838362000418602090811b62001a9217901c565b505050565b801580620004a2575060408051636eb1769f60e11b81523060048201526001600160a01b03848116602483015291519185169163dd62ed3e91604480820192602092909190829003018186803b1580156200047257600080fd5b505afa15801562000487573d6000803e3d6000fd5b505050506040513d60208110156200049e57600080fd5b5051155b620004df5760405162461bcd60e51b8152600401808060200182810382526036815260200180620038386036913960400191505060405180910390fd5b604080516001600160a01b038416602482015260448082018490528251808303909101815260649091019091526020810180516001600160e01b0390811663095ea7b360e01b17909152620004139185916200053716565b606062000593826040518060400160405280602081526020017f5361666545524332303a206c6f772d6c6576656c2063616c6c206661696c6564815250856001600160a01b0316620005f360201b62001baa179092919060201c565b8051909150156200041357808060200190516020811015620005b457600080fd5b5051620004135760405162461bcd60e51b815260040180806020018281038252602a8152602001806200380e602a913960400191505060405180910390fd5b60606200060484846000856200060c565b949350505050565b60606200061985620007c4565b6200066b576040805162461bcd60e51b815260206004820152601d60248201527f416464726573733a2063616c6c20746f206e6f6e2d636f6e7472616374000000604482015290519081900360640190fd5b60006060866001600160a01b031685876040518082805190602001908083835b60208310620006ac5780518252601f1990920191602091820191016200068b565b6001836020036101000a03801982511681845116808217855250505050505090500191505060006040518083038185875af1925050503d806000811462000710576040519150601f19603f3d011682016040523d82523d6000602084013e62000715565b606091505b509150915081156200072b579150620006049050565b8051156200073c5780518082602001fd5b8360405162461bcd60e51b81526004018080602001828103825283818151815260200191508051906020019080838360005b83811015620007885781810151838201526020016200076e565b50505050905090810190601f168015620007b65780820380516001836020036101000a031916815260200191505b509250505060405180910390fd5b3b151590565b61303480620007da6000396000f3fe6080604052600436106102cc5760003560e01c80639a53aad011610175578063cade3476116100dc578063d551e89b11610095578063f0fc6bca1161006f578063f0fc6bca146108ef578063f8b1208b14610904578063fbfa77cf14610919578063fccc28131461092e57610309565b8063d551e89b14610886578063d96a094a1461089b578063e4849b32146108c557610309565b8063cade3476146107a4578063cc97baf9146107dd578063cf0f4588146107f2578063d0863dca14610450578063d11f54ec1461081c578063d4ce85f31461087157610309565b8063b19ab0761161012e578063b19ab07614610726578063b1b457f71461073b578063b756961614610750578063c4c2389814610765578063c5094a5b1461077a578063c66cd4a41461078f57610309565b80639a53aad01461064b5780639cbda4b614610660578063a0a504d51461068a578063a226ee9e146106bd578063a68b8a5d146106d2578063acc5dc48146106fc57610309565b806347c62c5b116102345780636e7d2c64116101ed5780637bd0bd44116101c75780637bd0bd44146105d95780637c56bf40146105ee57806386001519146106035780638a205e621461061857610309565b80636e7d2c641461057d57806379033a9d146105a75780637b3a3195146105d157610309565b806347c62c5b146104ea5780634c68df67146104ff5780634c6d767b14610514578063562296061461052957806362043bd81461053e578063695747c31461055357610309565b806335488ed91161028657806335488ed9146104505780633b9d1d861461046557806340aa649c14610496578063425068ee146104ab578063435f7056146104c057806344f05beb146104d557610309565b8062cf3cef1461030e57806309bd4c311461034a5780631acf21a5146103a95780631e49226a146103c05780632d94a0581461040d5780632ddc79b71461043b57610309565b366103095760408051348152905133917f88a5966d370b9919b20f3e2c13ff65706f196a4e32cc2c12bf57088f88525874919081900360200190a2005b600080fd5b34801561031a57600080fd5b506103386004803603602081101561033157600080fd5b5035610943565b60408051918252519081900360200190f35b34801561035657600080fd5b506103836004803603604081101561036d57600080fd5b506001600160a01b038135169060200135610958565b604080519485526020850193909352838301919091526060830152519081900360800190f35b3480156103b557600080fd5b506103be6109c9565b005b3480156103cc57600080fd5b506103f9600480360360408110156103e357600080fd5b506001600160a01b038135169060200135610b16565b604080519115158252519081900360200190f35b34801561041957600080fd5b50610422610b44565b6040805192835260208301919091528051918290030190f35b34801561044757600080fd5b50610338610c39565b34801561045c57600080fd5b50610338610c3f565b34801561047157600080fd5b5061047a610c44565b604080516001600160a01b039092168252519081900360200190f35b3480156104a257600080fd5b50610338610c53565b3480156104b757600080fd5b5061047a610c6a565b3480156104cc57600080fd5b50610338610c79565b3480156104e157600080fd5b50610338610c8e565b3480156104f657600080fd5b50610338611010565b34801561050b57600080fd5b50610338611016565b34801561052057600080fd5b5061033861101c565b34801561053557600080fd5b50610338611022565b34801561054a57600080fd5b50610338611039565b34801561055f57600080fd5b506103386004803603602081101561057657600080fd5b5035611040565b34801561058957600080fd5b506103be600480360360208110156105a057600080fd5b5035611056565b3480156105b357600080fd5b50610338600480360360208110156105ca57600080fd5b503561110d565b61038361114a565b3480156105e557600080fd5b5061047a6111c2565b3480156105fa57600080fd5b506103386111d1565b34801561060f57600080fd5b506103386111e2565b34801561062457600080fd5b506103386004803603602081101561063b57600080fd5b50356001600160a01b0316611285565b34801561065757600080fd5b5061047a611337565b34801561066c57600080fd5b506103386004803603602081101561068357600080fd5b5035611346565b34801561069657600080fd5b50610338600480360360208110156106ad57600080fd5b50356001600160a01b0316611358565b3480156106c957600080fd5b50610338611442565b3480156106de57600080fd5b50610338600480360360208110156106f557600080fd5b5035611448565b34801561070857600080fd5b506103386004803603602081101561071f57600080fd5b503561145e565b34801561073257600080fd5b5061047a6114a9565b34801561074757600080fd5b5061047a6114b8565b34801561075c57600080fd5b506103be6114c7565b34801561077157600080fd5b5061047a6115e7565b34801561078657600080fd5b5061047a6115f6565b34801561079b57600080fd5b50610338611605565b3480156107b057600080fd5b50610383600480360360408110156107c757600080fd5b506001600160a01b038135169060200135611683565b3480156107e957600080fd5b5061033861172f565b3480156107fe57600080fd5b506103386004803603602081101561081557600080fd5b5035611774565b34801561082857600080fd5b506108466004803603602081101561083f57600080fd5b5035611784565b6040805195865260208601949094528484019290925260608401526080830152519081900360a00190f35b34801561087d57600080fd5b506103f9611895565b34801561089257600080fd5b506103386118a5565b3480156108a757600080fd5b50610383600480360360208110156108be57600080fd5b50356118ab565b3480156108d157600080fd5b50610383600480360360208110156108e857600080fd5b503561191b565b3480156108fb57600080fd5b506103386119c7565b34801561091057600080fd5b50610338611a78565b34801561092557600080fd5b5061047a611a7d565b34801561093a57600080fd5b5061047a611a8c565b6000818152601560205260409020545b919050565b600080600080600260005414156109a4576040805162461bcd60e51b815260206004820152601f6024820152600080516020612f35833981519152604482015290519081900360640190fd5b60026000556109b4338787611bb9565b60016000559299919850965090945092505050565b600f54600160a01b900460ff1615610b1457600a60009054906101000a90046001600160a01b03166001600160a01b03166386d1a69f6040518163ffffffff1660e01b8152600401600060405180830381600087803b158015610a2b57600080fd5b505af1158015610a3f573d6000803e3d6000fd5b50505050600b60009054906101000a90046001600160a01b03166001600160a01b03166386d1a69f6040518163ffffffff1660e01b8152600401600060405180830381600087803b158015610a9357600080fd5b505af1158015610aa7573d6000803e3d6000fd5b50505050600c60009054906101000a90046001600160a01b03166001600160a01b03166386d1a69f6040518163ffffffff1660e01b8152600401600060405180830381600087803b158015610afb57600080fd5b505af1158015610b0f573d6000803e3d6000fd5b505050505b565b6001600160a01b038216600090815260166020908152604080832084845290915290205460ff165b92915050565b60008060026000541415610b8d576040805162461bcd60e51b815260206004820152601f6024820152600080516020612f35833981519152604482015290519081900360640190fd5b6002600055600f54600160a01b900460ff16610be2576040805162461bcd60e51b815260206004820152600f60248201526e26b0b935b2ba103737ba1037b832b760891b604482015290519081900360640190fd5b610bec3330611e9b565b9150610bf83383611fe1565b60408051828152905191925033917fe19c9ce04290d4cfd76b04ea7569df598a5440f2c5316849bec5cd1ea7980eaa9181900360200190a260016000559091565b60115481565b600a81565b6009546001600160a01b031681565b6000610c65610c60611605565b612137565b905090565b6008546001600160a01b031681565b6000610c656002610c886111e2565b90612159565b600654600c54604080516370a0823160e01b81526001600160a01b0392831660048201529051600093610c659316916370a08231916024808301926020929190829003018186803b158015610ce257600080fd5b505afa158015610cf6573d6000803e3d6000fd5b505050506040513d6020811015610d0c57600080fd5b5051600654600a54604080516370a0823160e01b81526001600160a01b039283166004820152905161100a9392909216916370a0823191602480820192602092909190829003018186803b158015610d6357600080fd5b505afa158015610d77573d6000803e3d6000fd5b505050506040513d6020811015610d8d57600080fd5b5051600654600b54604080516370a0823160e01b81526001600160a01b039283166004820152905161100a9392909216916370a0823191602480820192602092909190829003018186803b158015610de457600080fd5b505afa158015610df8573d6000803e3d6000fd5b505050506040513d6020811015610e0e57600080fd5b5051600654600954604080516370a0823160e01b81526001600160a01b039283166004820152905161100a9392909216916370a0823191602480820192602092909190829003018186803b158015610e6557600080fd5b505afa158015610e79573d6000803e3d6000fd5b505050506040513d6020811015610e8f57600080fd5b5051600654600854604080516370a0823160e01b81526001600160a01b039283166004820152905161100a9392909216916370a0823191602480820192602092909190829003018186803b158015610ee657600080fd5b505afa158015610efa573d6000803e3d6000fd5b505050506040513d6020811015610f1057600080fd5b5051600654600754604080516370a0823160e01b81526001600160a01b039283166004820152905161100a9392909216916370a0823191602480820192602092909190829003018186803b158015610f6757600080fd5b505afa158015610f7b573d6000803e3d6000fd5b505050506040513d6020811015610f9157600080fd5b5051600654604080516318160ddd60e01b815290516001600160a01b03909216916318160ddd91600480820192602092909190829003018186803b158015610fd857600080fd5b505afa158015610fec573d6000803e3d6000fd5b505050506040513d602081101561100257600080fd5b50519061219b565b9061219b565b60105481565b600e5481565b60125481565b6000610c65620f424061103361172f565b906121dd565b620f424081565b6000610b3e8261104e61172f565b600e54612285565b600c546001600160a01b031633146110a5576040805162461bcd60e51b815260206004820152600d60248201526c4f6e6c7920747265617375727960981b604482015290519081900360640190fd5b600f546040805163b6b55f2560e01b81526004810184905290516001600160a01b039092169163b6b55f259160248082019260009290919082900301818387803b1580156110f257600080fd5b505af1158015611106573d6000803e3d6000fd5b5050505050565b60008161111c57506000610953565b600061112783611040565b9050600061113682600a612159565b9050611142828261219b565b949350505050565b60008060008060026000541415611196576040805162461bcd60e51b815260206004820152601f6024820152600080516020612f35833981519152604482015290519081900360640190fd5b60026000556111af30336111aa82346122f5565b611bb9565b6001600055929791965094509092509050565b6005546001600160a01b031681565b6000610c65620f4240611033611605565b600080600f60009054906101000a90046001600160a01b03166001600160a01b03166312065fe06040518163ffffffff1660e01b815260040160206040518083038186803b15801561123357600080fd5b505afa158015611247573d6000803e3d6000fd5b505050506040513d602081101561125d57600080fd5b5051600e549091508110156112715750600e545b600e5461127f90829061219b565b91505090565b6000600260005414156112cd576040805162461bcd60e51b815260206004820152601f6024820152600080516020612f35833981519152604482015290519081900360640190fd5b6002600055600f54600160a01b900460ff16611322576040805162461bcd60e51b815260206004820152600f60248201526e26b0b935b2ba103737ba1037b832b760891b604482015290519081900360640190fd5b61132c3383611e9b565b600160005592915050565b600c546001600160a01b031681565b60009081526014602052604090205490565b600060115460001480611372575061137282601154610b16565b1561137f57506000610953565b6006546011546040805163277166bf60e11b81526001600160a01b038681166004830152602482019390935290516000939290921691634ee2cd7e91604480820192602092909190829003018186803b1580156113db57600080fd5b505afa1580156113ef573d6000803e3d6000fd5b505050506040513d602081101561140557600080fd5b5051905080611418576000915050610953565b61143b611426601154610943565b610c88611434601154611774565b849061242b565b9392505050565b60135481565b6000610b3e82600e5461145961172f565b612484565b60008161146d57506000610953565b600061147a83600a612159565b9050600061148784611448565b9050600061149483611448565b90506114a0828261219b565b95945050505050565b600a546001600160a01b031681565b600b546001600160a01b031681565b600f54600160a01b900460ff1615610b1457426114f16013546012546124d790919063ffffffff16565b116115a5574260125560065460408051634b88b8ad60e11b815290516001600160a01b0390921691639711715a916004808201926020929091908290030181600087803b15801561154157600080fd5b505af1158015611555573d6000803e3d6000fd5b505050506040513d602081101561156b57600080fd5b50516011556115786111e2565b601154600090815260146020526040902055611592610c8e565b6011546000908152601560205260409020555b60006011541180156115c65750601154600090815260146020526040902054155b15610b14576115d36111e2565b601154600090815260146020526040902055565b6007546001600160a01b031681565b6006546001600160a01b031681565b600554604080516370a0823160e01b815261dead600482015290516000926001600160a01b0316916370a08231916024808301926020929190829003018186803b15801561165257600080fd5b505afa158015611666573d6000803e3d6000fd5b505050506040513d602081101561167c57600080fd5b5051905090565b600080600080600260005414156116cf576040805162461bcd60e51b815260206004820152601f6024820152600080516020612f35833981519152604482015290519081900360640190fd5b6002600055600f54600160a01b900460ff16611724576040805162461bcd60e51b815260206004820152600f60248201526e26b0b935b2ba103737ba1037b832b760891b604482015290519081900360640190fd5b6109b4338787612531565b600554604080516318160ddd60e01b815290516000926001600160a01b0316916318160ddd916004808301926020929190829003018186803b15801561165257600080fd5b6000610b3e6002610c8884611346565b6000806000806000600260005414156117d2576040805162461bcd60e51b815260206004820152601f6024820152600080516020612f35833981519152604482015290519081900360640190fd5b6002600055600f54600160a01b900460ff16611827576040805162461bcd60e51b815260206004820152600f60248201526e26b0b935b2ba103737ba1037b832b760891b604482015290519081900360640190fd5b611832333088612531565b929650909450925090506118463385611fe1565b60408051888152602081018390528151929750339283927f138edba6b55f7b6828330b320c82b039f7818f14cfa6c11e5e9b4d9f6dc9969a928290030190a36001600055939592945090929091565b600f54600160a01b900460ff1681565b600d5481565b600080600080600260005414156118f7576040805162461bcd60e51b815260206004820152601f6024820152600080516020612f35833981519152604482015290519081900360640190fd5b6002600055611907338087611bb9565b600160005592989197509550909350915050565b60008060008060026000541415611967576040805162461bcd60e51b815260206004820152601f6024820152600080516020612f35833981519152604482015290519081900360640190fd5b6002600055600f54600160a01b900460ff166119bc576040805162461bcd60e51b815260206004820152600f60248201526e26b0b935b2ba103737ba1037b832b760891b604482015290519081900360640190fd5b611907333387612531565b600060026000541415611a0f576040805162461bcd60e51b815260206004820152601f6024820152600080516020612f35833981519152604482015290519081900360640190fd5b6002600055600f54600160a01b900460ff16611a64576040805162461bcd60e51b815260206004820152600f60248201526e26b0b935b2ba103737ba1037b832b760891b604482015290519081900360640190fd5b611a6e3333611e9b565b9050600160005590565b601481565b600f546001600160a01b031681565b61dead81565b801580611b18575060408051636eb1769f60e11b81523060048201526001600160a01b03848116602483015291519185169163dd62ed3e91604480820192602092909190829003018186803b158015611aea57600080fd5b505afa158015611afe573d6000803e3d6000fd5b505050506040513d6020811015611b1457600080fd5b5051155b611b535760405162461bcd60e51b8152600401808060200182810382526036815260200180612fc96036913960400191505060405180910390fd5b604080516001600160a01b038416602482015260448082018490528251808303909101815260649091019091526020810180516001600160e01b031663095ea7b360e01b179052611ba5908490612a03565b505050565b60606111428484600085612ab4565b600080600080611bc7612c5f565b611bcf6114c7565b611bd76109c9565b60008511611c1b576040805162461bcd60e51b815260206004820152600c60248201526b043616e6e6f742062757920360a41b604482015290519081900360640190fd5b611c26856014612159565b92506000611c34868561219b565b9050611c4181600a612159565b92506000611c4e82611448565b9050611c5984611448565b9250611c65818461219b565b600454909650611c80906001600160a01b03168a308a612cce565b600f546040805163b6b55f2560e01b8152600481018a905290516001600160a01b039092169163b6b55f259160248082019260009290919082900301818387803b158015611ccd57600080fd5b505af1158015611ce1573d6000803e3d6000fd5b5050600e54611cf392509050836124d7565b600e55600554604080516340c10f1960e01b815261dead60048201526024810186905290516001600160a01b03909216916340c10f199160448082019260009290919082900301818387803b158015611d4b57600080fd5b505af1158015611d5f573d6000803e3d6000fd5b5050600554604080516340c10f1960e01b81526001600160a01b038d81166004830152602482018c905291519190921693506340c10f199250604480830192600092919082900301818387803b158015611db857600080fd5b505af1158015611dcc573d6000803e3d6000fd5b50506005546040805163663628f960e11b81526001600160a01b038d81166004830152602482018c9052915191909216935063cc6c51f29250604480830192600092919082900301818387803b158015611e2557600080fd5b505af1158015611e39573d6000803e3d6000fd5b50505050876001600160a01b0316896001600160a01b03167fbf77fd13a39d14dc0da779342c14105c38d9a5d0c60f2caa22f5fd1d5525416d8989604051808381526020018281526020019250505060405180910390a3505093509350935093565b6000611ea56114c7565b611ead6109c9565b611eb683611358565b905060008111611efb576040805162461bcd60e51b815260206004820152600b60248201526a139bc8191a5d9a59195b9960aa1b604482015290519081900360640190fd5b6001600160a01b0380841660009081526016602090815260408083206011548452909152808220805460ff19166001179055600f54815163db006a7560e01b815260048101869052915193169263db006a759260248084019391929182900301818387803b158015611f6c57600080fd5b505af1158015611f80573d6000803e3d6000fd5b5050600454611f9c92506001600160a01b031690508383612d28565b6040805182815290516001600160a01b038416917f5efa67896a23b651b741b525caacba039c00ca7853be3de8eb1f4269e8669c56919081900360200190a292915050565b6003546004805460025460408051638201aa3f60e01b81526001600160a01b03938416948101949094526024840186905290821660448401526000606484018190526000196084850152815190949290921692638201aa3f9260a4808301939282900301818787803b15801561205657600080fd5b505af115801561206a573d6000803e3d6000fd5b505050506040513d604081101561208057600080fd5b505160025460408051632e1a7d4d60e01b81526004810184905290519293506001600160a01b0390911691632e1a7d4d9160248082019260009290919082900301818387803b1580156120d257600080fd5b505af11580156120e6573d6000803e3d6000fd5b505050506001600160a01b0383163014610b3e576040516001600160a01b0384169082156108fc029083906000818181858888f19350505050158015612130573d6000803e3d6000fd5b5092915050565b6000610b3e670de0b6b3a76400006110336002610c88620f424081888061242b565b600061143b83836040518060400160405280601a81526020017f536166654d6174683a206469766973696f6e206279207a65726f000000000000815250612d7a565b600061143b83836040518060400160405280601e81526020017f536166654d6174683a207375627472616374696f6e206f766572666c6f770000815250612ddf565b60008161221c576040805162461bcd60e51b8152602060048201526008602482015267064697620627920360c41b604482015290519081900360640190fd5b6000612229836002612e39565b1561224957612244600161223e856002612159565b906124d7565b612254565b612254836002612159565b9050806122618585612e39565b1015612276576122718484612159565b611142565b611142600161223e8686612159565b6000828411156122c65760405162461bcd60e51b8152600401808060200182810382526029815260200180612f556029913960400191505060405180910390fd5b60006122d2848661219b565b905060006122df82612137565b90506122eb848261219b565b9695505050505050565b6000600260009054906101000a90046001600160a01b03166001600160a01b031663d0e30db0836040518263ffffffff1660e01b81526004016000604051808303818588803b15801561234757600080fd5b505af115801561235b573d6000803e3d6000fd5b50506003546002546004805460408051638201aa3f60e01b81526001600160a01b0394851693810193909352602483018a9052908316604483015260006064830181905260001960848401528151939094169650638201aa3f955060a480830195509093918390030190829087803b1580156123d657600080fd5b505af11580156123ea573d6000803e3d6000fd5b505050506040513d604081101561240057600080fd5b505190506001600160a01b0383163014610b3e57600454610b3e906001600160a01b03168483612d28565b60008261243a57506000610b3e565b8282028284828161244757fe5b041461143b5760405162461bcd60e51b8152600401808060200182810382526021815260200180612f7e6021913960400191505060405180910390fd5b6000828161249282876124d7565b905060006124c06124bb670de0b6b3a76400006124b5620f42408187600261242b565b9061242b565b612e7b565b90506124cc818661219b565b979650505050505050565b60008282018381101561143b576040805162461bcd60e51b815260206004820152601b60248201527f536166654d6174683a206164646974696f6e206f766572666c6f770000000000604482015290519081900360640190fd5b60008060008061253f6114c7565b6125476109c9565b600554604080516370a0823160e01b81526001600160a01b038a81166004830152915191909216916370a08231916024808301926020929190829003018186803b15801561259457600080fd5b505afa1580156125a8573d6000803e3d6000fd5b505050506040513d60208110156125be57600080fd5b505185111561260b576040805162461bcd60e51b8152602060048201526014602482015273496e73756666696369656e742062616c616e636560601b604482015290519081900360640190fd5b60008511612650576040805162461bcd60e51b815260206004820152600d60248201526c043616e6e6f742073656c6c203609c1b604482015290519081900360640190fd5b600554604080516317bf370b60e01b81526001600160a01b038a811660048301529151889392909216916317bf370b91602480820192602092909190829003018186803b1580156126a057600080fd5b505afa1580156126b4573d6000803e3d6000fd5b505050506040513d60208110156126ca57600080fd5b5051101561271f576040805162461bcd60e51b815260206004820152601f60248201527f496e73756666696369656e74207368617265686f6c64657220706f696e747300604482015290519081900360640190fd5b600061272a86611040565b905061273781600a612159565b92506001831015612782576040805162461bcd60e51b815260206004820152601060248201526f092dce6eaccccd2c6d2cadce840e8c2f60831b604482015290519081900360640190fd5b600061278e828561219b565b90506127b5846127a984600e5461219b90919063ffffffff16565b6114598a61100a61172f565b92506127c281600a612159565b94506127ce818661219b565b600e549096506127de908261219b565b600e5560055460408051632770a7eb60e21b81526001600160a01b038c81166004830152602482018b905291519190921691639dc29fac91604480830192600092919082900301818387803b15801561283657600080fd5b505af115801561284a573d6000803e3d6000fd5b5050600554604080516340c10f1960e01b815261dead60048201526024810188905290516001600160a01b0390921693506340c10f19925060448082019260009290919082900301818387803b1580156128a357600080fd5b505af11580156128b7573d6000803e3d6000fd5b50506005546040805163a5e1a0a560e01b81526001600160a01b038e81166004830152602482018d9052915191909216935063a5e1a0a59250604480830192600092919082900301818387803b15801561291057600080fd5b505af1158015612924573d6000803e3d6000fd5b5050600f546040805163db006a7560e01b8152600481018b905290516001600160a01b03909216935063db006a75925060248082019260009290919082900301818387803b15801561297557600080fd5b505af1158015612989573d6000803e3d6000fd5b50506004546129a592506001600160a01b031690508988612d28565b876001600160a01b0316896001600160a01b03167f16dd16959a056953a63cf14bf427881e762e54f03d86b864efea8238dd3b822f8989604051808381526020018281526020019250505060405180910390a3505093509350935093565b6060612a58826040518060400160405280602081526020017f5361666545524332303a206c6f772d6c6576656c2063616c6c206661696c6564815250856001600160a01b0316611baa9092919063ffffffff16565b805190915015611ba557808060200190516020811015612a7757600080fd5b5051611ba55760405162461bcd60e51b815260040180806020018281038252602a815260200180612f9f602a913960400191505060405180910390fd5b6060612abf85612ecc565b612b10576040805162461bcd60e51b815260206004820152601d60248201527f416464726573733a2063616c6c20746f206e6f6e2d636f6e7472616374000000604482015290519081900360640190fd5b60006060866001600160a01b031685876040518082805190602001908083835b60208310612b4f5780518252601f199092019160209182019101612b30565b6001836020036101000a03801982511681845116808217855250505050505090500191505060006040518083038185875af1925050503d8060008114612bb1576040519150601f19603f3d011682016040523d82523d6000602084013e612bb6565b606091505b50915091508115612bca5791506111429050565b805115612bda5780518082602001fd5b8360405162461bcd60e51b81526004018080602001828103825283818151815260200191508051906020019080838360005b83811015612c24578181015183820152602001612c0c565b50505050905090810190601f168015612c515780820380516001836020036101000a031916815260200191505b509250505060405180910390fd5b426010541115612ca8576040805162461bcd60e51b815260206004820152600f60248201526e26b0b935b2ba103737ba1037b832b760891b604482015290519081900360640190fd5b600f54600160a01b900460ff16610b1457600f805460ff60a01b1916600160a01b179055565b604080516001600160a01b0380861660248301528416604482015260648082018490528251808303909101815260849091019091526020810180516001600160e01b03166323b872dd60e01b179052610b0f908590612a03565b604080516001600160a01b038416602482015260448082018490528251808303909101815260649091019091526020810180516001600160e01b031663a9059cbb60e01b179052611ba5908490612a03565b60008183612dc95760405162461bcd60e51b8152602060048201818152835160248401528351909283926044909101919085019080838360008315612c24578181015183820152602001612c0c565b506000838581612dd557fe5b0495945050505050565b60008184841115612e315760405162461bcd60e51b8152602060048201818152835160248401528351909283926044909101919085019080838360008315612c24578181015183820152602001612c0c565b505050900390565b600061143b83836040518060400160405280601881526020017f536166654d6174683a206d6f64756c6f206279207a65726f0000000000000000815250612ed2565b60006003821115612ebe575080600160028204015b81811015612eb857809150600281828581612ea757fe5b040181612eb057fe5b049050612e90565b50610953565b811561095357506001919050565b3b151590565b60008183612f215760405162461bcd60e51b8152602060048201818152835160248401528351909283926044909101919085019080838360008315612c24578181015183820152602001612c0c565b50828481612f2b57fe5b0694935050505056fe5265656e7472616e637947756172643a207265656e7472616e742063616c6c00546f6b656e20616d6f756e74206d757374206265206c657373207468616e2074686520737570706c79536166654d6174683a206d756c7469706c69636174696f6e206f766572666c6f775361666545524332303a204552433230206f7065726174696f6e20646964206e6f7420737563636565645361666545524332303a20617070726f76652066726f6d206e6f6e2d7a65726f20746f206e6f6e2d7a65726f20616c6c6f77616e6365a26469706673582212208541bae658f40a6cc502f374a07717eea4eac19b1d65c51aa2ea3e38d7cefde364736f6c634300060c00335361666545524332303a204552433230206f7065726174696f6e20646964206e6f7420737563636565645361666545524332303a20617070726f76652066726f6d206e6f6e2d7a65726f20746f206e6f6e2d7a65726f20616c6c6f77616e6365"}}