{
  "opcodeHash": "0xd318f90c24f195ed563e5049a4147dc4863f7347f4989af12d8ab0636e3afb7e",
  "metalessHash": "0xbed2129559e067b84704eba98295f07dbbc5ec44e0612138dbb69b1a604b4a61",
  "runtimeHash": "0xe3ca19d9434f9b59a611cccd44a1dffc2db0aae72df47a7040851388cf566a5a",
  "encodedMetadata": [
    {
      "ipfs": "/ipfs/QmSveywF6dTyrTcorjDNwQFSoohbMM5EbBigfd9gBMBHrd",
      "solc": "0.8.11"
    }
  ],
  "abi": [
    {
      "inputs": [],
      "stateMutability": "nonpayable",
      "type": "constructor"
    },
    {
      "anonymous": false,
      "inputs": [
        {
          "indexed": true,
          "internalType": "address",
          "name": "owner",
          "type": "address"
        },
        {
          "indexed": true,
          "internalType": "address",
          "name": "approved",
          "type": "address"
        },
        {
          "indexed": true,
          "internalType": "uint256",
          "name": "tokenId",
          "type": "uint256"
        }
      ],
      "name": "Approval",
      "type": "event"
    },
    {
      "anonymous": false,
      "inputs": [
        {
          "indexed": true,
          "internalType": "address",
          "name": "owner",
          "type": "address"
        },
        {
          "indexed": true,
          "internalType": "address",
          "name": "operator",
          "type": "address"
        },
        {
          "indexed": false,
          "internalType": "bool",
          "name": "approved",
          "type": "bool"
        }
      ],
      "name": "ApprovalForAll",
      "type": "event"
    },
    {
      "anonymous": false,
      "inputs": [
        {
          "indexed": true,
          "internalType": "address",
          "name": "previousOwner",
          "type": "address"
        },
        {
          "indexed": true,
          "internalType": "address",
          "name": "newOwner",
          "type": "address"
        }
      ],
      "name": "OwnershipTransferred",
      "type": "event"
    },
    {
      "anonymous": false,
      "inputs": [
        {
          "indexed": true,
          "internalType": "address",
          "name": "from",
          "type": "address"
        },
        {
          "indexed": true,
          "internalType": "address",
          "name": "to",
          "type": "address"
        },
        {
          "indexed": true,
          "internalType": "uint256",
          "name": "tokenId",
          "type": "uint256"
        }
      ],
      "name": "Transfer",
      "type": "event"
    },
    {
      "inputs": [],
      "name": "CW",
      "outputs": [
        {
          "internalType": "contract ICW",
          "name": "",
          "type": "address"
        }
      ],
      "stateMutability": "view",
      "type": "function"
    },
    {
      "inputs": [],
      "name": "Doodles",
      "outputs": [
        {
          "internalType": "contract IDoodles",
          "name": "",
          "type": "address"
        }
      ],
      "stateMutability": "view",
      "type": "function"
    },
    {
      "inputs": [],
      "name": "KaijuKingz",
      "outputs": [
        {
          "internalType": "contract IKaijuKingz",
          "name": "",
          "type": "address"
        }
      ],
      "stateMutability": "view",
      "type": "function"
    },
    {
      "inputs": [],
      "name": "SOS",
      "outputs": [
        {
          "internalType": "contract ISOS",
          "name": "",
          "type": "address"
        }
      ],
      "stateMutability": "view",
      "type": "function"
    },
    {
      "inputs": [
        {
          "internalType": "address[]",
          "name": "giveawayAddresses",
          "type": "address[]"
        }
      ],
      "name": "addGiveawayWinners",
      "outputs": [],
      "stateMutability": "nonpayable",
      "type": "function"
    },
    {
      "inputs": [
        {
          "internalType": "address",
          "name": "to",
          "type": "address"
        },
        {
          "internalType": "uint256",
          "name": "tokenId",
          "type": "uint256"
        }
      ],
      "name": "approve",
      "outputs": [],
      "stateMutability": "nonpayable",
      "type": "function"
    },
    {
      "inputs": [],
      "name": "babyCount",
      "outputs": [
        {
          "internalType": "uint256",
          "name": "",
          "type": "uint256"
        }
      ],
      "stateMutability": "view",
      "type": "function"
    },
    {
      "inputs": [
        {
          "internalType": "address",
          "name": "",
          "type": "address"
        }
      ],
      "name": "balanceBaby",
      "outputs": [
        {
          "internalType": "uint256",
          "name": "",
          "type": "uint256"
        }
      ],
      "stateMutability": "view",
      "type": "function"
    },
    {
      "inputs": [
        {
          "internalType": "address",
          "name": "",
          "type": "address"
        }
      ],
      "name": "balanceGenesis",
      "outputs": [
        {
          "internalType": "uint256",
          "name": "",
          "type": "uint256"
        }
      ],
      "stateMutability": "view",
      "type": "function"
    },
    {
      "inputs": [
        {
          "internalType": "address",
          "name": "owner",
          "type": "address"
        }
      ],
      "name": "balanceOf",
      "outputs": [
        {
          "internalType": "uint256",
          "name": "",
          "type": "uint256"
        }
      ],
      "stateMutability": "view",
      "type": "function"
    },
    {
      "inputs": [
        {
          "internalType": "uint256",
          "name": "parent1",
          "type": "uint256"
        },
        {
          "internalType": "uint256",
          "name": "parent2",
          "type": "uint256"
        }
      ],
      "name": "breed",
      "outputs": [],
      "stateMutability": "nonpayable",
      "type": "function"
    },
    {
      "inputs": [],
      "name": "breedPrice",
      "outputs": [
        {
          "internalType": "uint256",
          "name": "",
          "type": "uint256"
        }
      ],
      "stateMutability": "view",
      "type": "function"
    },
    {
      "inputs": [],
      "name": "breedingEnabled",
      "outputs": [
        {
          "internalType": "bool",
          "name": "",
          "type": "bool"
        }
      ],
      "stateMutability": "view",
      "type": "function"
    },
    {
      "inputs": [
        {
          "internalType": "address",
          "name": "_address",
          "type": "address"
        }
      ],
      "name": "checkIfFreeMintClaimed",
      "outputs": [
        {
          "internalType": "uint256",
          "name": "",
          "type": "uint256"
        }
      ],
      "stateMutability": "view",
      "type": "function"
    },
    {
      "inputs": [
        {
          "internalType": "address",
          "name": "_address",
          "type": "address"
        }
      ],
      "name": "checkIfGiveawayMintClaimed",
      "outputs": [
        {
          "internalType": "uint256",
          "name": "",
          "type": "uint256"
        }
      ],
      "stateMutability": "view",
      "type": "function"
    },
    {
      "inputs": [],
      "name": "freeEndTimestamp",
      "outputs": [
        {
          "internalType": "uint256",
          "name": "",
          "type": "uint256"
        }
      ],
      "stateMutability": "view",
      "type": "function"
    },
    {
      "inputs": [],
      "name": "freeMintCount",
      "outputs": [
        {
          "internalType": "uint256",
          "name": "",
          "type": "uint256"
        }
      ],
      "stateMutability": "view",
      "type": "function"
    },
    {
      "inputs": [
        {
          "internalType": "address",
          "name": "",
          "type": "address"
        }
      ],
      "name": "freeMintList",
      "outputs": [
        {
          "internalType": "uint256",
          "name": "",
          "type": "uint256"
        }
      ],
      "stateMutability": "view",
      "type": "function"
    },
    {
      "inputs": [],
      "name": "genCount",
      "outputs": [
        {
          "internalType": "uint256",
          "name": "",
          "type": "uint256"
        }
      ],
      "stateMutability": "view",
      "type": "function"
    },
    {
      "inputs": [
        {
          "internalType": "uint256",
          "name": "tokenId",
          "type": "uint256"
        }
      ],
      "name": "getApproved",
      "outputs": [
        {
          "internalType": "address",
          "name": "",
          "type": "address"
        }
      ],
      "stateMutability": "view",
      "type": "function"
    },
    {
      "inputs": [
        {
          "internalType": "uint256[]",
          "name": "list",
          "type": "uint256[]"
        }
      ],
      "name": "getTypes",
      "outputs": [
        {
          "internalType": "uint256[]",
          "name": "",
          "type": "uint256[]"
        }
      ],
      "stateMutability": "view",
      "type": "function"
    },
    {
      "inputs": [],
      "name": "giveawayMintCount",
      "outputs": [
        {
          "internalType": "uint256",
          "name": "",
          "type": "uint256"
        }
      ],
      "stateMutability": "view",
      "type": "function"
    },
    {
      "inputs": [
        {
          "internalType": "address",
          "name": "",
          "type": "address"
        }
      ],
      "name": "giveawayMintList",
      "outputs": [
        {
          "internalType": "uint256",
          "name": "",
          "type": "uint256"
        }
      ],
      "stateMutability": "view",
      "type": "function"
    },
    {
      "inputs": [],
      "name": "increasePerBreed",
      "outputs": [
        {
          "internalType": "uint256",
          "name": "",
          "type": "uint256"
        }
      ],
      "stateMutability": "view",
      "type": "function"
    },
    {
      "inputs": [
        {
          "internalType": "address",
          "name": "owner",
          "type": "address"
        },
        {
          "internalType": "address",
          "name": "operator",
          "type": "address"
        }
      ],
      "name": "isApprovedForAll",
      "outputs": [
        {
          "internalType": "bool",
          "name": "",
          "type": "bool"
        }
      ],
      "stateMutability": "view",
      "type": "function"
    },
    {
      "inputs": [],
      "name": "maxFreeMints",
      "outputs": [
        {
          "internalType": "uint256",
          "name": "",
          "type": "uint256"
        }
      ],
      "stateMutability": "view",
      "type": "function"
    },
    {
      "inputs": [],
      "name": "maxGenCount",
      "outputs": [
        {
          "internalType": "uint256",
          "name": "",
          "type": "uint256"
        }
      ],
      "stateMutability": "view",
      "type": "function"
    },
    {
      "inputs": [],
      "name": "maxGivewayMint",
      "outputs": [
        {
          "internalType": "uint256",
          "name": "",
          "type": "uint256"
        }
      ],
      "stateMutability": "view",
      "type": "function"
    },
    {
      "inputs": [],
      "name": "maxSupply",
      "outputs": [
        {
          "internalType": "uint256",
          "name": "",
          "type": "uint256"
        }
      ],
      "stateMutability": "view",
      "type": "function"
    },
    {
      "inputs": [
        {
          "internalType": "uint256",
          "name": "numberOfMints",
          "type": "uint256"
        }
      ],
      "name": "mint",
      "outputs": [],
      "stateMutability": "payable",
      "type": "function"
    },
    {
      "inputs": [],
      "name": "mintFreeDoodle",
      "outputs": [],
      "stateMutability": "payable",
      "type": "function"
    },
    {
      "inputs": [
        {
          "internalType": "address",
          "name": "_address",
          "type": "address"
        }
      ],
      "name": "mintFreeDoodleList",
      "outputs": [
        {
          "internalType": "uint256",
          "name": "",
          "type": "uint256"
        }
      ],
      "stateMutability": "view",
      "type": "function"
    },
    {
      "inputs": [],
      "name": "mintFreeGiveaway",
      "outputs": [],
      "stateMutability": "payable",
      "type": "function"
    },
    {
      "inputs": [],
      "name": "mintFreeKaiju",
      "outputs": [],
      "stateMutability": "payable",
      "type": "function"
    },
    {
      "inputs": [
        {
          "internalType": "address",
          "name": "_address",
          "type": "address"
        }
      ],
      "name": "mintFreeKaijuList",
      "outputs": [
        {
          "internalType": "uint256[]",
          "name": "",
          "type": "uint256[]"
        }
      ],
      "stateMutability": "view",
      "type": "function"
    },
    {
      "inputs": [
        {
          "internalType": "uint256",
          "name": "numberOfMints",
          "type": "uint256"
        }
      ],
      "name": "mintWithSOS",
      "outputs": [],
      "stateMutability": "payable",
      "type": "function"
    },
    {
      "inputs": [],
      "name": "name",
      "outputs": [
        {
          "internalType": "string",
          "name": "",
          "type": "string"
        }
      ],
      "stateMutability": "view",
      "type": "function"
    },
    {
      "inputs": [],
      "name": "owner",
      "outputs": [
        {
          "internalType": "address",
          "name": "",
          "type": "address"
        }
      ],
      "stateMutability": "view",
      "type": "function"
    },
    {
      "inputs": [
        {
          "internalType": "uint256",
          "name": "tokenId",
          "type": "uint256"
        }
      ],
      "name": "ownerOf",
      "outputs": [
        {
          "internalType": "address",
          "name": "",
          "type": "address"
        }
      ],
      "stateMutability": "view",
      "type": "function"
    },
    {
      "inputs": [],
      "name": "price",
      "outputs": [
        {
          "internalType": "uint256",
          "name": "",
          "type": "uint256"
        }
      ],
      "stateMutability": "view",
      "type": "function"
    },
    {
      "inputs": [],
      "name": "renounceOwnership",
      "outputs": [],
      "stateMutability": "nonpayable",
      "type": "function"
    },
    {
      "inputs": [
        {
          "internalType": "uint256",
          "name": "count",
          "type": "uint256"
        }
      ],
      "name": "reserve",
      "outputs": [],
      "stateMutability": "nonpayable",
      "type": "function"
    },
    {
      "inputs": [],
      "name": "reserveCount",
      "outputs": [
        {
          "internalType": "uint256",
          "name": "",
          "type": "uint256"
        }
      ],
      "stateMutability": "view",
      "type": "function"
    },
    {
      "inputs": [],
      "name": "reserveMax",
      "outputs": [
        {
          "internalType": "uint256",
          "name": "",
          "type": "uint256"
        }
      ],
      "stateMutability": "view",
      "type": "function"
    },
    {
      "inputs": [
        {
          "internalType": "address",
          "name": "from",
          "type": "address"
        },
        {
          "internalType": "address",
          "name": "to",
          "type": "address"
        },
        {
          "internalType": "uint256",
          "name": "tokenId",
          "type": "uint256"
        }
      ],
      "name": "safeTransferFrom",
      "outputs": [],
      "stateMutability": "nonpayable",
      "type": "function"
    },
    {
      "inputs": [
        {
          "internalType": "address",
          "name": "from",
          "type": "address"
        },
        {
          "internalType": "address",
          "name": "to",
          "type": "address"
        },
        {
          "internalType": "uint256",
          "name": "tokenId",
          "type": "uint256"
        },
        {
          "internalType": "bytes",
          "name": "data",
          "type": "bytes"
        }
      ],
      "name": "safeTransferFrom",
      "outputs": [],
      "stateMutability": "nonpayable",
      "type": "function"
    },
    {
      "inputs": [],
      "name": "saleStartTimestamp",
      "outputs": [
        {
          "internalType": "uint256",
          "name": "",
          "type": "uint256"
        }
      ],
      "stateMutability": "view",
      "type": "function"
    },
    {
      "inputs": [
        {
          "internalType": "address",
          "name": "operator",
          "type": "address"
        },
        {
          "internalType": "bool",
          "name": "approved",
          "type": "bool"
        }
      ],
      "name": "setApprovalForAll",
      "outputs": [],
      "stateMutability": "nonpayable",
      "type": "function"
    },
    {
      "inputs": [
        {
          "internalType": "string",
          "name": "_newURI",
          "type": "string"
        }
      ],
      "name": "setBaseURI",
      "outputs": [],
      "stateMutability": "nonpayable",
      "type": "function"
    },
    {
      "inputs": [
        {
          "internalType": "uint256",
          "name": "_breedPrice",
          "type": "uint256"
        }
      ],
      "name": "setBreedingCost",
      "outputs": [],
      "stateMutability": "nonpayable",
      "type": "function"
    },
    {
      "inputs": [
        {
          "internalType": "uint256",
          "name": "_increasePerBreed",
          "type": "uint256"
        }
      ],
      "name": "setBreedingCostIncrease",
      "outputs": [],
      "stateMutability": "nonpayable",
      "type": "function"
    },
    {
      "inputs": [
        {
          "internalType": "bool",
          "name": "_state",
          "type": "bool"
        }
      ],
      "name": "setBreedingState",
      "outputs": [],
      "stateMutability": "nonpayable",
      "type": "function"
    },
    {
      "inputs": [
        {
          "internalType": "address",
          "name": "_address",
          "type": "address"
        }
      ],
      "name": "setCWInterface",
      "outputs": [],
      "stateMutability": "nonpayable",
      "type": "function"
    },
    {
      "inputs": [
        {
          "internalType": "address",
          "name": "_address",
          "type": "address"
        }
      ],
      "name": "setDoodleInterface",
      "outputs": [],
      "stateMutability": "nonpayable",
      "type": "function"
    },
    {
      "inputs": [
        {
          "internalType": "address",
          "name": "_address",
          "type": "address"
        }
      ],
      "name": "setKaijuInterface",
      "outputs": [],
      "stateMutability": "nonpayable",
      "type": "function"
    },
    {
      "inputs": [
        {
          "internalType": "uint256",
          "name": "_price",
          "type": "uint256"
        }
      ],
      "name": "setPrice",
      "outputs": [],
      "stateMutability": "nonpayable",
      "type": "function"
    },
    {
      "inputs": [
        {
          "internalType": "address",
          "name": "target",
          "type": "address"
        }
      ],
      "name": "setSOSInterface",
      "outputs": [],
      "stateMutability": "nonpayable",
      "type": "function"
    },
    {
      "inputs": [
        {
          "internalType": "uint256",
          "name": "_sosPrice",
          "type": "uint256"
        }
      ],
      "name": "setSOSPrice",
      "outputs": [],
      "stateMutability": "nonpayable",
      "type": "function"
    },
    {
      "inputs": [
        {
          "internalType": "address",
          "name": "_address",
          "type": "address"
        }
      ],
      "name": "setSOSWallet",
      "outputs": [],
      "stateMutability": "nonpayable",
      "type": "function"
    },
    {
      "inputs": [],
      "name": "setTransfersEnabled",
      "outputs": [],
      "stateMutability": "nonpayable",
      "type": "function"
    },
    {
      "inputs": [],
      "name": "sosPrice",
      "outputs": [
        {
          "internalType": "uint256",
          "name": "",
          "type": "uint256"
        }
      ],
      "stateMutability": "view",
      "type": "function"
    },
    {
      "inputs": [],
      "name": "sosWallet",
      "outputs": [
        {
          "internalType": "address",
          "name": "",
          "type": "address"
        }
      ],
      "stateMutability": "view",
      "type": "function"
    },
    {
      "inputs": [
        {
          "internalType": "bytes4",
          "name": "interfaceId",
          "type": "bytes4"
        }
      ],
      "name": "supportsInterface",
      "outputs": [
        {
          "internalType": "bool",
          "name": "",
          "type": "bool"
        }
      ],
      "stateMutability": "view",
      "type": "function"
    },
    {
      "inputs": [],
      "name": "symbol",
      "outputs": [
        {
          "internalType": "string",
          "name": "",
          "type": "string"
        }
      ],
      "stateMutability": "view",
      "type": "function"
    },
    {
      "inputs": [
        {
          "internalType": "uint256",
          "name": "tokenId",
          "type": "uint256"
        }
      ],
      "name": "tokenURI",
      "outputs": [
        {
          "internalType": "string",
          "name": "",
          "type": "string"
        }
      ],
      "stateMutability": "view",
      "type": "function"
    },
    {
      "inputs": [],
      "name": "totalSupply",
      "outputs": [
        {
          "internalType": "uint256",
          "name": "",
          "type": "uint256"
        }
      ],
      "stateMutability": "view",
      "type": "function"
    },
    {
      "inputs": [
        {
          "internalType": "address",
          "name": "from",
          "type": "address"
        },
        {
          "internalType": "address",
          "name": "to",
          "type": "address"
        },
        {
          "internalType": "uint256",
          "name": "tokenId",
          "type": "uint256"
        }
      ],
      "name": "transferFrom",
      "outputs": [],
      "stateMutability": "nonpayable",
      "type": "function"
    },
    {
      "inputs": [
        {
          "internalType": "address",
          "name": "newOwner",
          "type": "address"
        }
      ],
      "name": "transferOwnership",
      "outputs": [],
      "stateMutability": "nonpayable",
      "type": "function"
    },
    {
      "inputs": [],
      "name": "transfersEnabled",
      "outputs": [
        {
          "internalType": "bool",
          "name": "",
          "type": "bool"
        }
      ],
      "stateMutability": "view",
      "type": "function"
    },
    {
      "inputs": [
        {
          "internalType": "uint256",
          "name": "_freeEndTimestamp",
          "type": "uint256"
        }
      ],
      "name": "updateFreeEndTimestamp",
      "outputs": [],
      "stateMutability": "nonpayable",
      "type": "function"
    },
    {
      "inputs": [
        {
          "internalType": "uint256",
          "name": "_saleStartTimestamp",
          "type": "uint256"
        }
      ],
      "name": "updateSaleTimestamp",
      "outputs": [],
      "stateMutability": "nonpayable",
      "type": "function"
    },
    {
      "inputs": [
        {
          "internalType": "address",
          "name": "owner",
          "type": "address"
        }
      ],
      "name": "walletOfOwner",
      "outputs": [
        {
          "internalType": "uint256[]",
          "name": "",
          "type": "uint256[]"
        }
      ],
      "stateMutability": "view",
      "type": "function"
    },
    {
      "inputs": [],
      "name": "withdraw",
      "outputs": [],
      "stateMutability": "nonpayable",
      "type": "function"
    }
  ],
  "bytecode": {
    "object": "6080604052612b66600d556115b3600e55607c600f556102a460105560006011819055601281905560138190556014819055601581905566b1a2bc2ec5000060168190556901969368974c05b00000601755601891909155601c55601d805461ffff191690553480156200007257600080fd5b50604080518082018252600a8152692230b4b53aa5b4b733bd60b11b6020808301918252835180850190945260058452644461696a7560d81b908401528151919291620000c29160009162000151565b508051620000d890600190602084019062000151565b505050620000f5620000ef620000fb60201b60201c565b620000ff565b62000234565b3390565b600680546001600160a01b038381166001600160a01b0319831681179093556040519116919082907f8be0079c531659141344cd1fd0a4f28419497f9722a3daafe3b4186f6b6457e090600090a35050565b8280546200015f90620001f7565b90600052602060002090601f016020900481019282620001835760008555620001ce565b82601f106200019e57805160ff1916838001178555620001ce565b82800160010185558215620001ce579182015b82811115620001ce578251825591602001919060010190620001b1565b50620001dc929150620001e0565b5090565b5b80821115620001dc5760008155600101620001e1565b600181811c908216806200020c57607f821691505b602082108114156200022e57634e487b7160e01b600052602260045260246000fd5b50919050565b613d6780620002446000396000f3fe6080604052600436106103b55760003560e01c806371264eac116101f9578063b88d4fde1161011e578063da312e1f116100b6578063e55f58bb1161007a578063e55f58bb14610b97578063e95cddbc14610bad578063e985e9c514610bcd578063f2fde38b14610bed578063f88d58ff14610c0d57600080fd5b8063da312e1f14610afe578063da86043014610b1e578063dcb5c8fd14610b34578063dfecff1d14610b54578063e2b26b1514610b6a57600080fd5b8063b88d4fde146109f8578063b96ce5a214610a18578063bc5c8f8b14610a38578063bef97c8714610a58578063c2cfc4fa14610a72578063c87b56dd14610a92578063d2dec78814610ab2578063d5abeb0114610ac8578063d9ecad7b14610ade57600080fd5b80639b39f5f4116101915780639b39f5f4146109135780639bcf6faa14610933578063a035b1fe14610953578063a0712d6814610969578063a22cb4651461097c578063a262dfd71461099c578063a5324093146109bc578063b166e196146109e8578063b70a0117146109f057600080fd5b806371264eac1461081e578063715018a61461083e578063732496c9146108535780637d7c4cfb146108695780637ebf2aea14610889578063819b25ba146108a95780638da5cb5b146108c957806391b7f5ed146108de57806395d89b41146108fe57600080fd5b80633c276d86116102df57806355f804b31161027757806355f804b31461071857806359523d26146107385780635c4e80641461074b5780636352211e14610753578063642b82af146107735780636f198a8f146107895780636f73caf0146107a95780637086e08d146107de57806370a08231146107fe57600080fd5b80633c276d86146106145780633ccfd60b1461062a57806340b8d9881461063f57806341949ee01461065f57806342842e0e14610675578063438b6300146106955780634f5dde48146106c257806353526603146106e2578063539cb1e71461070257600080fd5b80631e98165e116103525780631e98165e146104f157806323b872dd146105115780632459e8d6146105315780632a5f510e146105515780632bba9fe6146105675780633299c120146105865780633328e70a1461059c578063359170e6146105c957806335c66d37146105de57600080fd5b806240e050146103ba57806301ffc9a7146103e257806306fdde0314610412578063081812fc14610434578063089f6af014610461578063095ea7b31461048e57806316317c21146104b057806318160ddd146104c65780631e6d1321146104db575b600080fd5b3480156103c657600080fd5b506103cf603281565b6040519081526020015b60405180910390f35b3480156103ee57600080fd5b506104026103fd3660046132be565b610c2d565b60405190151581526020016103d9565b34801561041e57600080fd5b50610427610c7f565b6040516103d99190613333565b34801561044057600080fd5b5061045461044f366004613346565b610d11565b6040516103d9919061335f565b34801561046d57600080fd5b506103cf61047c36600461338f565b60216020526000908152604090205481565b34801561049a57600080fd5b506104ae6104a93660046133aa565b610d9e565b005b3480156104bc57600080fd5b506103cf60115481565b3480156104d257600080fd5b506103cf610eaf565b3480156104e757600080fd5b506103cf60105481565b3480156104fd57600080fd5b506104ae61050c36600461338f565b610ebf565b34801561051d57600080fd5b506104ae61052c3660046133d4565b610f10565b34801561053d57600080fd5b50601b54610454906001600160a01b031681565b34801561055d57600080fd5b506103cf60175481565b34801561057357600080fd5b50601d5461040290610100900460ff1681565b34801561059257600080fd5b506103cf600e5481565b3480156105a857600080fd5b506103cf6105b736600461338f565b601f6020526000908152604090205481565b3480156105d557600080fd5b506104ae611057565b3480156105ea57600080fd5b506103cf6105f936600461338f565b6001600160a01b031660009081526021602052604090205490565b34801561062057600080fd5b506103cf60195481565b34801561063657600080fd5b506104ae611095565b34801561064b57600080fd5b50600b54610454906001600160a01b031681565b34801561066b57600080fd5b506103cf60135481565b34801561068157600080fd5b506104ae6106903660046133d4565b6110f7565b3480156106a157600080fd5b506106b56106b036600461338f565b611134565b6040516103d99190613410565b3480156106ce57600080fd5b506103cf6106dd36600461338f565b61120c565b3480156106ee57600080fd5b506106b56106fd3660046134bd565b611289565b34801561070e57600080fd5b506103cf60155481565b34801561072457600080fd5b506104ae6107333660046135a9565b61135f565b6104ae610746366004613346565b6113a1565b6104ae611624565b34801561075f57600080fd5b5061045461076e366004613346565b6117f1565b34801561077f57600080fd5b506103cf60185481565b34801561079557600080fd5b506104ae6107a436600461338f565b611868565b3480156107b557600080fd5b506103cf6107c436600461338f565b6001600160a01b0316600090815260208052604090205490565b3480156107ea57600080fd5b506104ae6107f93660046135f1565b6118b9565b34801561080a57600080fd5b506103cf61081936600461338f565b61194c565b34801561082a57600080fd5b50600854610454906001600160a01b031681565b34801561084a57600080fd5b506104ae6119d3565b34801561085f57600080fd5b506103cf600f5481565b34801561087557600080fd5b506104ae610884366004613346565b611a0e565b34801561089557600080fd5b506104ae6108a4366004613346565b611a42565b3480156108b557600080fd5b506104ae6108c4366004613346565b611a76565b3480156108d557600080fd5b50610454611b89565b3480156108ea57600080fd5b506104ae6108f9366004613346565b611b98565b34801561090a57600080fd5b50610427611bcc565b34801561091f57600080fd5b50600a54610454906001600160a01b031681565b34801561093f57600080fd5b506104ae61094e36600461338f565b611bdb565b34801561095f57600080fd5b506103cf60165481565b6104ae610977366004613346565b611c2c565b34801561098857600080fd5b506104ae610997366004613675565b611e03565b3480156109a857600080fd5b506104ae6109b7366004613346565b611ec4565b3480156109c857600080fd5b506103cf6109d736600461338f565b602080526000908152604090205481565b6104ae611ef8565b6104ae612139565b348015610a0457600080fd5b506104ae610a133660046136a8565b612314565b348015610a2457600080fd5b506104ae610a3336600461338f565b612462565b348015610a4457600080fd5b50600954610454906001600160a01b031681565b348015610a6457600080fd5b50601d546104029060ff1681565b348015610a7e57600080fd5b506106b5610a8d36600461338f565b6124b3565b348015610a9e57600080fd5b50610427610aad366004613346565b612528565b348015610abe57600080fd5b506103cf60145481565b348015610ad457600080fd5b506103cf600d5481565b348015610aea57600080fd5b506104ae610af9366004613723565b6125f2565b348015610b0a57600080fd5b506104ae610b19366004613346565b6128c0565b348015610b2a57600080fd5b506103cf601c5481565b348015610b4057600080fd5b506104ae610b4f36600461338f565b6128f4565b348015610b6057600080fd5b506103cf601a5481565b348015610b7657600080fd5b506103cf610b8536600461338f565b601e6020526000908152604090205481565b348015610ba357600080fd5b506103cf60125481565b348015610bb957600080fd5b506104ae610bc8366004613346565b612945565b348015610bd957600080fd5b50610402610be8366004613745565b612979565b348015610bf957600080fd5b506104ae610c0836600461338f565b6129a7565b348015610c1957600080fd5b506104ae610c2836600461376f565b612a47565b60006001600160e01b031982166380ac58cd60e01b1480610c5e57506001600160e01b03198216635b5e139f60e01b145b80610c7957506301ffc9a760e01b6001600160e01b03198316145b92915050565b606060008054610c8e9061378a565b80601f0160208091040260200160405190810160405280929190818152602001828054610cba9061378a565b8015610d075780601f10610cdc57610100808354040283529160200191610d07565b820191906000526020600020905b815481529060010190602001808311610cea57829003601f168201915b5050505050905090565b6000610d1c82612a90565b610d825760405162461bcd60e51b815260206004820152602c60248201527f4552433732313a20617070726f76656420717565727920666f72206e6f6e657860448201526b34b9ba32b73a103a37b5b2b760a11b60648201526084015b60405180910390fd5b506000908152600460205260409020546001600160a01b031690565b6000610da9826117f1565b9050806001600160a01b0316836001600160a01b03161415610e175760405162461bcd60e51b815260206004820152602160248201527f4552433732313a20617070726f76616c20746f2063757272656e74206f776e656044820152603960f91b6064820152608401610d79565b336001600160a01b0382161480610e335750610e338133612979565b610ea05760405162461bcd60e51b815260206004820152603860248201527f4552433732313a20617070726f76652063616c6c6572206973206e6f74206f776044820152771b995c881b9bdc88185c1c1c9bdd995908199bdc88185b1b60421b6064820152608401610d79565b610eaa8383612aad565b505050565b6000610eba60075490565b905090565b33610ec8611b89565b6001600160a01b031614610eee5760405162461bcd60e51b8152600401610d79906137c5565b600980546001600160a01b0319166001600160a01b0392909216919091179055565b601d5460ff16610f325760405162461bcd60e51b8152600401610d79906137fa565b60085460405163b5df11d560e01b81526001600160a01b03858116600483015284811660248301529091169063b5df11d590604401600060405180830381600087803b158015610f8157600080fd5b505af1158015610f95573d6000803e3d6000fd5b50505050600e548110610ff9576001600160a01b0383166000908152601f60205260408120805491610fc683613847565b90915550506001600160a01b0382166000908152601f60205260408120805491610fef8361385e565b919050555061104c565b6001600160a01b0383166000908152601e6020526040812080549161101d83613847565b90915550506001600160a01b0382166000908152601e602052604081208054916110468361385e565b91905055505b610eaa838383612b1b565b33611060611b89565b6001600160a01b0316146110865760405162461bcd60e51b8152600401610d79906137c5565b601d805460ff19166001179055565b3361109e611b89565b6001600160a01b0316146110c45760405162461bcd60e51b8152600401610d79906137c5565b6040514790339082156108fc029083906000818181858888f193505050501580156110f3573d6000803e3d6000fd5b5050565b601d5460ff166111195760405162461bcd60e51b8152600401610d79906137fa565b610eaa83838360405180602001604052806000815250612314565b606060006111418361194c565b9050600061114e60075490565b9050600080836001600160401b0381111561116b5761116b613454565b604051908082528060200260200182016040528015611194578160200160208202803683370190505b50905060005b8381101561120257866001600160a01b03166111b5826117f1565b6001600160a01b031614156111f057808284815181106111d7576111d7613879565b6020908102919091010152826111ec8161385e565b9350505b806111fa8161385e565b91505061119a565b5095945050505050565b6009546040516370a0823160e01b815260009182916001600160a01b03909116906370a082319061124190869060040161335f565b602060405180830381865afa15801561125e573d6000803e3d6000fd5b505050506040513d601f19601f82011682018060405250810190611282919061388f565b9392505050565b6060600082516001600160401b038111156112a6576112a6613454565b6040519080825280602002602001820160405280156112cf578160200160208202803683370190505b50905060005b8351811015611358576014548482815181106112f3576112f3613879565b60200260200101511061132557600182828151811061131457611314613879565b602002602001018181525050611346565b600082828151811061133957611339613879565b6020026020010181815250505b806113508161385e565b9150506112d5565b5092915050565b33611368611b89565b6001600160a01b03161461138e5760405162461bcd60e51b8152600401610d79906137c5565b80516110f390600c90602084019061320f565b601954158015906113b3575060195442115b6113cf5760405162461bcd60e51b8152600401610d79906138a8565b60006113da60075490565b90506000821180156113ec5750600b82105b6114085760405162461bcd60e51b8152600401610d79906138f4565b600e546114158284612b4c565b11156114335760405162461bcd60e51b8152600401610d7990613925565b600b546040516370a0823160e01b81526001600160a01b03909116906370a082319061146390339060040161335f565b602060405180830381865afa158015611480573d6000803e3d6000fd5b505050506040513d601f19601f820116820180604052508101906114a4919061388f565b601c546114b19084612b58565b106114f85760405162461bcd60e51b81526020600482015260176024820152764e6f7420656e6f75676820534f5320746f206d696e742160481b6044820152606401610d79565b601d54610100900460ff16156115205760405162461bcd60e51b8152600401610d799061395a565b600b54601b54601c546001600160a01b03928316926323b872dd92339291169061154a9087612b58565b6040516001600160e01b031960e086901b1681526001600160a01b0393841660048201529290911660248301526044820152606401600060405180830381600087803b15801561159957600080fd5b505af11580156115ad573d6000803e3d6000fd5b5050505060005b82811015610eaa576115cf336115ca838561399c565b612b64565b336000908152601e602052604081208054916115ea8361385e565b9091555050601480549060006115ff8361385e565b9190505550611612600780546001019055565b8061161c8161385e565b9150506115b4565b60195415801590611636575060195442115b6116525760405162461bcd60e51b8152600401610d79906138a8565b601a5442106116735760405162461bcd60e51b8152600401610d79906139b4565b600061167e60075490565b9050600e548111156116a25760405162461bcd60e51b8152600401610d79906139eb565b60016116ad3361120c565b10156116fb5760405162461bcd60e51b815260206004820152601a60248201527f596f7520646f6e2774206f776e20616e7920446f6f646c6573210000000000006044820152606401610d79565b600f5461170982600161399c565b11156117275760405162461bcd60e51b8152600401610d7990613a2f565b3360009081526020805260409020546001116117555760405162461bcd60e51b8152600401610d7990613a74565b601d54610100900460ff161561177d5760405162461bcd60e51b8152600401610d799061395a565b6117873382612b64565b611795600780546001019055565b3360009081526020808052604080832060019055601e90915281208054916117bc8361385e565b9091555050601480549060006117d18361385e565b91905055506001601260008282546117e9919061399c565b909155505050565b6000818152600260205260408120546001600160a01b031680610c795760405162461bcd60e51b815260206004820152602960248201527f4552433732313a206f776e657220717565727920666f72206e6f6e657869737460448201526832b73a103a37b5b2b760b91b6064820152608401610d79565b33611871611b89565b6001600160a01b0316146118975760405162461bcd60e51b8152600401610d79906137c5565b600b80546001600160a01b0319166001600160a01b0392909216919091179055565b336118c2611b89565b6001600160a01b0316146118e85760405162461bcd60e51b8152600401610d79906137c5565b60005b81811015610eaa5760016021600085858581811061190b5761190b613879565b9050602002016020810190611920919061338f565b6001600160a01b03168152602081019190915260400160002055806119448161385e565b9150506118eb565b60006001600160a01b0382166119b75760405162461bcd60e51b815260206004820152602a60248201527f4552433732313a2062616c616e636520717565727920666f7220746865207a65604482015269726f206164647265737360b01b6064820152608401610d79565b506001600160a01b031660009081526003602052604090205490565b336119dc611b89565b6001600160a01b031614611a025760405162461bcd60e51b8152600401610d79906137c5565b611a0c6000612b7e565b565b33611a17611b89565b6001600160a01b031614611a3d5760405162461bcd60e51b8152600401610d79906137c5565b601755565b33611a4b611b89565b6001600160a01b031614611a715760405162461bcd60e51b8152600401610d79906137c5565b601a55565b33611a7f611b89565b6001600160a01b031614611aa55760405162461bcd60e51b8152600401610d79906137c5565b6000611ab060075490565b9050603282601154611ac2919061399c565b10611b055760405162461bcd60e51b815260206004820152601360248201527263616e6e6f742072657365727665206d6f726560681b6044820152606401610d79565b60005b82811015610eaa57611b1e336115ca838561399c565b336000908152601e60205260408120805491611b398361385e565b909155505060148054906000611b4e8361385e565b9190505550611b61600780546001019055565b60118054906000611b718361385e565b91905055508080611b819061385e565b915050611b08565b6006546001600160a01b031690565b33611ba1611b89565b6001600160a01b031614611bc75760405162461bcd60e51b8152600401610d79906137c5565b601655565b606060018054610c8e9061378a565b33611be4611b89565b6001600160a01b031614611c0a5760405162461bcd60e51b8152600401610d79906137c5565b600880546001600160a01b0319166001600160a01b0392909216919091179055565b60195415801590611c3e575060195442115b611c5a5760405162461bcd60e51b8152600401610d79906138a8565b6000611c6560075490565b9050600082118015611c775750600b82105b611c935760405162461bcd60e51b8152600401610d79906138f4565b601a544211611ce657601054600f54611cac919061399c565b600e54611cb99190613abc565b611cc38284612b4c565b1115611ce15760405162461bcd60e51b8152600401610d7990613925565b611d11565b600e54611cf38284612b4c565b1115611d115760405162461bcd60e51b8152600401610d7990613925565b6016543490611d209084612b58565b14611d6d5760405162461bcd60e51b815260206004820152601f60248201527f45746865722076616c75652073656e74206973206e6f7420636f7272656374006044820152606401610d79565b601d54610100900460ff1615611d955760405162461bcd60e51b8152600401610d799061395a565b60005b82811015610eaa57611dae336115ca838561399c565b336000908152601e60205260408120805491611dc98361385e565b909155505060148054906000611dde8361385e565b9190505550611df1600780546001019055565b80611dfb8161385e565b915050611d98565b6001600160a01b038216331415611e585760405162461bcd60e51b815260206004820152601960248201527822a9219b99189d1030b8383937bb32903a379031b0b63632b960391b6044820152606401610d79565b3360008181526005602090815260408083206001600160a01b03871680855290835292819020805460ff191686151590811790915590519081529192917f17307eab39ab6107e8899845ad3d59bd9653f200f220920489ca2b5937696c31910160405180910390a35050565b33611ecd611b89565b6001600160a01b031614611ef35760405162461bcd60e51b8152600401610d79906137c5565b601955565b60195415801590611f0a575060195442115b611f265760405162461bcd60e51b8152600401610d79906138a8565b601a544210611f475760405162461bcd60e51b8152600401610d79906139b4565b6000611f5260075490565b600a5460405162438b6360e81b81529192506000916001600160a01b039091169063438b630090611f8790339060040161335f565b600060405180830381865afa158015611fa4573d6000803e3d6000fd5b505050506040513d6000823e601f3d908101601f19168201604052611fcc9190810190613ad3565b9050600e54821115611ff05760405162461bcd60e51b8152600401610d79906139eb565b600f54611ffe83600161399c565b111561201c5760405162461bcd60e51b8152600401610d7990613a2f565b33600090815260208052604090205460011161204a5760405162461bcd60e51b8152600401610d7990613a74565b60018151101561209c5760405162461bcd60e51b815260206004820152601d60248201527f596f7520646f6e2774206f776e20616e79204b61696a754b696e677a210000006044820152606401610d79565b601d54610100900460ff16156120c45760405162461bcd60e51b8152600401610d799061395a565b6120ce3383612b64565b6120dc600780546001019055565b3360009081526020808052604080832060019055601e90915281208054916121038361385e565b9091555050601480549060006121188361385e565b9190505550600160126000828254612130919061399c565b90915550505050565b6019541580159061214b575060195442115b6121675760405162461bcd60e51b8152600401610d79906138a8565b601a5442106121885760405162461bcd60e51b8152600401610d79906139b4565b600061219360075490565b9050600e548111156121b75760405162461bcd60e51b8152600401610d79906139eb565b6010546121c582600161399c565b11156122135760405162461bcd60e51b815260206004820181905260248201527f416c6c206769766561776179206d696e7473207765726520636c61696d6564216044820152606401610d79565b336000908152602160205260409020546001111561227f5760405162461bcd60e51b815260206004820152602360248201527f596f7520646f6e2774206861766520616e792066726565206d696e7473206c6560448201526266742160e81b6064820152608401610d79565b601d54610100900460ff16156122a75760405162461bcd60e51b8152600401610d799061395a565b6122b13382612b64565b6122bf600780546001019055565b336000908152602160209081526040808320839055601e90915281208054916122e78361385e565b9091555050601480549060006122fc8361385e565b91905055506001601360008282546117e9919061399c565b601d5460ff166123365760405162461bcd60e51b8152600401610d79906137fa565b60085460405163b5df11d560e01b81526001600160a01b03868116600483015285811660248301529091169063b5df11d590604401600060405180830381600087803b15801561238557600080fd5b505af1158015612399573d6000803e3d6000fd5b50505050600e5482106123fd576001600160a01b0384166000908152601f602052604081208054916123ca83613847565b90915550506001600160a01b0383166000908152601f602052604081208054916123f38361385e565b9190505550612450565b6001600160a01b0384166000908152601e6020526040812080549161242183613847565b90915550506001600160a01b0383166000908152601e6020526040812080549161244a8361385e565b91905055505b61245c84848484612bd0565b50505050565b3361246b611b89565b6001600160a01b0316146124915760405162461bcd60e51b8152600401610d79906137c5565b601b80546001600160a01b0319166001600160a01b0392909216919091179055565b600a5460405162438b6360e81b81526060916001600160a01b03169063438b6300906124e390859060040161335f565b600060405180830381865afa158015612500573d6000803e3d6000fd5b505050506040513d6000823e601f3d908101601f19168201604052610c799190810190613ad3565b606061253382612a90565b6125975760405162461bcd60e51b815260206004820152602f60248201527f4552433732314d657461646174613a2055524920717565727920666f72206e6f60448201526e3732bc34b9ba32b73a103a37b5b2b760891b6064820152608401610d79565b60006125a1612c02565b905060008151116125c15760405180602001604052806000815250611282565b806125cb84612c11565b6040516020016125dc929190613b58565b6040516020818303038152906040529392505050565b81336125fd826117f1565b6001600160a01b0316146126235760405162461bcd60e51b8152600401610d7990613b87565b813361262e826117f1565b6001600160a01b0316146126545760405162461bcd60e51b8152600401610d7990613b87565b600061265f60075490565b601d54909150610100900460ff166126b95760405162461bcd60e51b815260206004820152601b60248201527f4272656564696e672069736e277420656e61626c6564207965742100000000006044820152606401610d79565b600d5481106127145760405162461bcd60e51b815260206004820152602160248201527f43616e6e6f7420627265656420616e79206d6f72652062616279204461696a756044820152607360f81b6064820152608401610d79565b60145485108015612726575060145484105b6127895760405162461bcd60e51b815260206004820152602e60248201527f43616e6e6f7420627265656420776974682062616279204461696a757320287460448201526d68617473207369636b2062726f2960901b6064820152608401610d79565b838514156127d95760405162461bcd60e51b815260206004820152601e60248201527f4d7573742073656c6563742074776f20756e6971756520706172656e747300006044820152606401610d79565b6008546015546018546001600160a01b0390921691639dc29fac9133916128009190613bd7565b60175461280d919061399c565b6040516001600160e01b031960e085901b1681526001600160a01b0390921660048301526024820152604401600060405180830381600087803b15801561285357600080fd5b505af1158015612867573d6000803e3d6000fd5b50506015805492509050600061287c8361385e565b919050555061288f600780546001019055565b6128993382612b64565b336000908152601f602052604081208054916128b48361385e565b91905055505050505050565b336128c9611b89565b6001600160a01b0316146128ef5760405162461bcd60e51b8152600401610d79906137c5565b601c55565b336128fd611b89565b6001600160a01b0316146129235760405162461bcd60e51b8152600401610d79906137c5565b600a80546001600160a01b0319166001600160a01b0392909216919091179055565b3361294e611b89565b6001600160a01b0316146129745760405162461bcd60e51b8152600401610d79906137c5565b601855565b6001600160a01b03918216600090815260056020908152604080832093909416825291909152205460ff1690565b336129b0611b89565b6001600160a01b0316146129d65760405162461bcd60e51b8152600401610d79906137c5565b6001600160a01b038116612a3b5760405162461bcd60e51b815260206004820152602660248201527f4f776e61626c653a206e6577206f776e657220697320746865207a65726f206160448201526564647265737360d01b6064820152608401610d79565b612a4481612b7e565b50565b33612a50611b89565b6001600160a01b031614612a765760405162461bcd60e51b8152600401610d79906137c5565b601d80549115156101000261ff0019909216919091179055565b6000908152600260205260409020546001600160a01b0316151590565b600081815260046020526040902080546001600160a01b0319166001600160a01b0384169081179091558190612ae2826117f1565b6001600160a01b03167f8c5be1e5ebec7d5bd14f71427d1e84f3dd0314c0f7b2291e5b200ac8c7c3b92560405160405180910390a45050565b612b253382612d16565b612b415760405162461bcd60e51b8152600401610d7990613bf6565b610eaa838383612dd8565b6000611282828461399c565b60006112828284613bd7565b6110f3828260405180602001604052806000815250612f78565b600680546001600160a01b038381166001600160a01b0319831681179093556040519116919082907f8be0079c531659141344cd1fd0a4f28419497f9722a3daafe3b4186f6b6457e090600090a35050565b612bda3383612d16565b612bf65760405162461bcd60e51b8152600401610d7990613bf6565b61245c84848484612fab565b6060600c8054610c8e9061378a565b606081612c355750506040805180820190915260018152600360fc1b602082015290565b8160005b8115612c5f5780612c498161385e565b9150612c589050600a83613c5d565b9150612c39565b6000816001600160401b03811115612c7957612c79613454565b6040519080825280601f01601f191660200182016040528015612ca3576020820181803683370190505b5090505b8415612d0e57612cb8600183613abc565b9150612cc5600a86613c71565b612cd090603061399c565b60f81b818381518110612ce557612ce5613879565b60200101906001600160f81b031916908160001a905350612d07600a86613c5d565b9450612ca7565b949350505050565b6000612d2182612a90565b612d825760405162461bcd60e51b815260206004820152602c60248201527f4552433732313a206f70657261746f7220717565727920666f72206e6f6e657860448201526b34b9ba32b73a103a37b5b2b760a11b6064820152608401610d79565b6000612d8d836117f1565b9050806001600160a01b0316846001600160a01b03161480612dc85750836001600160a01b0316612dbd84610d11565b6001600160a01b0316145b80612d0e5750612d0e8185612979565b826001600160a01b0316612deb826117f1565b6001600160a01b031614612e535760405162461bcd60e51b815260206004820152602960248201527f4552433732313a207472616e73666572206f6620746f6b656e2074686174206960448201526839903737ba1037bbb760b91b6064820152608401610d79565b6001600160a01b038216612eb55760405162461bcd60e51b8152602060048201526024808201527f4552433732313a207472616e7366657220746f20746865207a65726f206164646044820152637265737360e01b6064820152608401610d79565b612ec0600082612aad565b6001600160a01b0383166000908152600360205260408120805460019290612ee9908490613abc565b90915550506001600160a01b0382166000908152600360205260408120805460019290612f1790849061399c565b909155505060008181526002602052604080822080546001600160a01b0319166001600160a01b0386811691821790925591518493918716917fddf252ad1be2c89b69c2b068fc378daa952ba7f163c4a11628f55a4df523b3ef91a4505050565b612f828383612fde565b612f8f6000848484613111565b610eaa5760405162461bcd60e51b8152600401610d7990613c85565b612fb6848484612dd8565b612fc284848484613111565b61245c5760405162461bcd60e51b8152600401610d7990613c85565b6001600160a01b0382166130345760405162461bcd60e51b815260206004820181905260248201527f4552433732313a206d696e7420746f20746865207a65726f20616464726573736044820152606401610d79565b61303d81612a90565b1561308a5760405162461bcd60e51b815260206004820152601c60248201527f4552433732313a20746f6b656e20616c7265616479206d696e746564000000006044820152606401610d79565b6001600160a01b03821660009081526003602052604081208054600192906130b390849061399c565b909155505060008181526002602052604080822080546001600160a01b0319166001600160a01b03861690811790915590518392907fddf252ad1be2c89b69c2b068fc378daa952ba7f163c4a11628f55a4df523b3ef908290a45050565b60006001600160a01b0384163b1561320457604051630a85bd0160e11b81526001600160a01b0385169063150b7a0290613155903390899088908890600401613cd7565b6020604051808303816000875af1925050508015613190575060408051601f3d908101601f1916820190925261318d91810190613d14565b60015b6131ea573d8080156131be576040519150601f19603f3d011682016040523d82523d6000602084013e6131c3565b606091505b5080516131e25760405162461bcd60e51b8152600401610d7990613c85565b805181602001fd5b6001600160e01b031916630a85bd0160e11b149050612d0e565b506001949350505050565b82805461321b9061378a565b90600052602060002090601f01602090048101928261323d5760008555613283565b82601f1061325657805160ff1916838001178555613283565b82800160010185558215613283579182015b82811115613283578251825591602001919060010190613268565b5061328f929150613293565b5090565b5b8082111561328f5760008155600101613294565b6001600160e01b031981168114612a4457600080fd5b6000602082840312156132d057600080fd5b8135611282816132a8565b60005b838110156132f65781810151838201526020016132de565b8381111561245c5750506000910152565b6000815180845261331f8160208601602086016132db565b601f01601f19169290920160200192915050565b6020815260006112826020830184613307565b60006020828403121561335857600080fd5b5035919050565b6001600160a01b0391909116815260200190565b80356001600160a01b038116811461338a57600080fd5b919050565b6000602082840312156133a157600080fd5b61128282613373565b600080604083850312156133bd57600080fd5b6133c683613373565b946020939093013593505050565b6000806000606084860312156133e957600080fd5b6133f284613373565b925061340060208501613373565b9150604084013590509250925092565b6020808252825182820181905260009190848201906040850190845b818110156134485783518352928401929184019160010161342c565b50909695505050505050565b634e487b7160e01b600052604160045260246000fd5b604051601f8201601f191681016001600160401b038111828210171561349257613492613454565b604052919050565b60006001600160401b038211156134b3576134b3613454565b5060051b60200190565b600060208083850312156134d057600080fd5b82356001600160401b038111156134e657600080fd5b8301601f810185136134f757600080fd5b803561350a6135058261349a565b61346a565b81815260059190911b8201830190838101908783111561352957600080fd5b928401925b828410156135475783358252928401929084019061352e565b979650505050505050565b60006001600160401b0383111561356b5761356b613454565b61357e601f8401601f191660200161346a565b905082815283838301111561359257600080fd5b828260208301376000602084830101529392505050565b6000602082840312156135bb57600080fd5b81356001600160401b038111156135d157600080fd5b8201601f810184136135e257600080fd5b612d0e84823560208401613552565b6000806020838503121561360457600080fd5b82356001600160401b038082111561361b57600080fd5b818501915085601f83011261362f57600080fd5b81358181111561363e57600080fd5b8660208260051b850101111561365357600080fd5b60209290920196919550909350505050565b8035801515811461338a57600080fd5b6000806040838503121561368857600080fd5b61369183613373565b915061369f60208401613665565b90509250929050565b600080600080608085870312156136be57600080fd5b6136c785613373565b93506136d560208601613373565b92506040850135915060608501356001600160401b038111156136f757600080fd5b8501601f8101871361370857600080fd5b61371787823560208401613552565b91505092959194509250565b6000806040838503121561373657600080fd5b50508035926020909101359150565b6000806040838503121561375857600080fd5b61376183613373565b915061369f60208401613373565b60006020828403121561378157600080fd5b61128282613665565b600181811c9082168061379e57607f821691505b602082108114156137bf57634e487b7160e01b600052602260045260246000fd5b50919050565b6020808252818101527f4f776e61626c653a2063616c6c6572206973206e6f7420746865206f776e6572604082015260600190565b6020808252601d908201527f5472616e7366657273206172656e277420616c6c6f7765642079657421000000604082015260600190565b634e487b7160e01b600052601160045260246000fd5b60008161385657613856613831565b506000190190565b600060001982141561387257613872613831565b5060010190565b634e487b7160e01b600052603260045260246000fd5b6000602082840312156138a157600080fd5b5051919050565b6020808252602c908201527f43616e6e6f7420696e74657261637420626563617573652073616c652068617360408201526b081b9bdd081cdd185c9d195960a21b606082015260800190565b602080825260179082015276125b9d985b1a59081c1d5c98da185cd948185b5bdd5b9d604a1b604082015260600190565b6020808252818101527f507572636861736520776f756c6420657863656564206d617820737570706c79604082015260600190565b60208082526022908201527f4d696e74696e672067656e6573697320686173206265656e2064697361626c65604082015261642160f01b606082015260800190565b600082198211156139af576139af613831565b500190565b6020808252601e908201527f46726565204d696e74696e6720706572696f642068617320656e646564210000604082015260600190565b60208082526024908201527f416c6c2047656e65736973204461696a756b696e677a207765726520636c61696040820152636d65642160e01b606082015260800190565b60208082526025908201527f416c6c207468652066726565206d696e74732068617665206265656e20636c61604082015264696d65642160d81b606082015260800190565b60208082526028908201527f596f7520616c726561647920636c61696d656420796f75722066726565206461604082015267696a756b696e672160c01b606082015260800190565b600082821015613ace57613ace613831565b500390565b60006020808385031215613ae657600080fd5b82516001600160401b03811115613afc57600080fd5b8301601f81018513613b0d57600080fd5b8051613b1b6135058261349a565b81815260059190911b82018301908381019087831115613b3a57600080fd5b928401925b8284101561354757835182529284019290840190613b3f565b60008351613b6a8184602088016132db565b835190830190613b7e8183602088016132db565b01949350505050565b60208082526030908201527f43616e6e6f7420696e74657261637420776974682061204461696a754b696e6760408201526f3d103cb7ba903237903737ba1037bbb760811b606082015260800190565b6000816000190483118215151615613bf157613bf1613831565b500290565b60208082526031908201527f4552433732313a207472616e736665722063616c6c6572206973206e6f74206f6040820152701ddb995c881b9bdc88185c1c1c9bdd9959607a1b606082015260800190565b634e487b7160e01b600052601260045260246000fd5b600082613c6c57613c6c613c47565b500490565b600082613c8057613c80613c47565b500690565b60208082526032908201527f4552433732313a207472616e7366657220746f206e6f6e20455243373231526560408201527131b2b4bb32b91034b6b83632b6b2b73a32b960711b606082015260800190565b6001600160a01b0385811682528416602082015260408101839052608060608201819052600090613d0a90830184613307565b9695505050505050565b600060208284031215613d2657600080fd5b8151611282816132a856fea2646970667358221220a4003855acf5958e16e0647bedd48e6d0a3d5d13a543054e8615825d55002de964736f6c634300080b0033"
  }
}