{"compiler":"v0.8.10+commit.fc410830","opcodeHash":"0xa3a43a802efae4e1ace2e5ea1951e56c8576f01059af718b5d1d06eed98da8f0","metalessHash":"0xa7ff6fe8815fc4b034c8710ab3964393ea29b844927e56e9293db620851d13f7","runtimeHash":"0xf5472a006d227cc7b879f49e732cd5f671b1e1a95663235f5d26e655110eb0e1","encodedMetadata":[{"ipfs":"/ipfs/QmWyjB6JyVzosWy9XcS8CZdQjudmGb6Wpr6Kof4EGVxReT","solc":"0.8.10"}],"abi":[{"inputs":[],"stateMutability":"nonpayable","type":"constructor"},{"anonymous":false,"inputs":[{"indexed":true,"internalType":"address","name":"owner","type":"address"},{"indexed":true,"internalType":"address","name":"approved","type":"address"},{"indexed":true,"internalType":"uint256","name":"tokenId","type":"uint256"}],"name":"Approval","type":"event"},{"anonymous":false,"inputs":[{"indexed":true,"internalType":"address","name":"owner","type":"address"},{"indexed":true,"internalType":"address","name":"operator","type":"address"},{"indexed":false,"internalType":"bool","name":"approved","type":"bool"}],"name":"ApprovalForAll","type":"event"},{"anonymous":false,"inputs":[{"indexed":true,"internalType":"address","name":"previousOwner","type":"address"},{"indexed":true,"internalType":"address","name":"newOwner","type":"address"}],"name":"OwnershipTransferred","type":"event"},{"anonymous":false,"inputs":[{"indexed":true,"internalType":"address","name":"from","type":"address"},{"indexed":true,"internalType":"address","name":"to","type":"address"},{"indexed":true,"internalType":"uint256","name":"tokenId","type":"uint256"}],"name":"Transfer","type":"event"},{"inputs":[{"internalType":"address","name":"to","type":"address"},{"internalType":"uint256","name":"tokenId","type":"uint256"}],"name":"approve","outputs":[],"stateMutability":"nonpayable","type":"function"},{"inputs":[{"internalType":"address","name":"owner","type":"address"}],"name":"balanceOf","outputs":[{"internalType":"uint256","name":"","type":"uint256"}],"stateMutability":"view","type":"function"},{"inputs":[],"name":"baseExtension","outputs":[{"internalType":"string","name":"","type":"string"}],"stateMutability":"view","type":"function"},{"inputs":[],"name":"baseURI","outputs":[{"internalType":"string","name":"","type":"string"}],"stateMutability":"view","type":"function"},{"inputs":[],"name":"cost","outputs":[{"internalType":"uint64","name":"","type":"uint64"}],"stateMutability":"view","type":"function"},{"inputs":[{"internalType":"uint256","name":"tokenId","type":"uint256"}],"name":"getApproved","outputs":[{"internalType":"address","name":"","type":"address"}],"stateMutability":"view","type":"function"},{"inputs":[{"internalType":"address","name":"owner","type":"address"},{"internalType":"address","name":"operator","type":"address"}],"name":"isApprovedForAll","outputs":[{"internalType":"bool","name":"","type":"bool"}],"stateMutability":"view","type":"function"},{"inputs":[],"name":"maxMintAmount","outputs":[{"internalType":"uint8","name":"","type":"uint8"}],"stateMutability":"view","type":"function"},{"inputs":[],"name":"maxSupply","outputs":[{"internalType":"uint16","name":"","type":"uint16"}],"stateMutability":"view","type":"function"},{"inputs":[{"internalType":"uint8","name":"_mintAmount","type":"uint8"}],"name":"mint","outputs":[],"stateMutability":"payable","type":"function"},{"inputs":[],"name":"name","outputs":[{"internalType":"string","name":"","type":"string"}],"stateMutability":"view","type":"function"},{"inputs":[],"name":"numFree","outputs":[{"internalType":"uint16","name":"","type":"uint16"}],"stateMutability":"view","type":"function"},{"inputs":[],"name":"owner","outputs":[{"internalType":"address","name":"","type":"address"}],"stateMutability":"view","type":"function"},{"inputs":[{"internalType":"uint256","name":"tokenId","type":"uint256"}],"name":"ownerOf","outputs":[{"internalType":"address","name":"","type":"address"}],"stateMutability":"view","type":"function"},{"inputs":[{"internalType":"bool","name":"_state","type":"bool"}],"name":"pause","outputs":[],"stateMutability":"nonpayable","type":"function"},{"inputs":[],"name":"paused","outputs":[{"internalType":"bool","name":"","type":"bool"}],"stateMutability":"view","type":"function"},{"inputs":[],"name":"renounceOwnership","outputs":[],"stateMutability":"nonpayable","type":"function"},{"inputs":[{"internalType":"address","name":"from","type":"address"},{"internalType":"address","name":"to","type":"address"},{"internalType":"uint256","name":"tokenId","type":"uint256"}],"name":"safeTransferFrom","outputs":[],"stateMutability":"nonpayable","type":"function"},{"inputs":[{"internalType":"address","name":"from","type":"address"},{"internalType":"address","name":"to","type":"address"},{"internalType":"uint256","name":"tokenId","type":"uint256"},{"internalType":"bytes","name":"_data","type":"bytes"}],"name":"safeTransferFrom","outputs":[],"stateMutability":"nonpayable","type":"function"},{"inputs":[{"internalType":"address","name":"operator","type":"address"},{"internalType":"bool","name":"approved","type":"bool"}],"name":"setApprovalForAll","outputs":[],"stateMutability":"nonpayable","type":"function"},{"inputs":[{"internalType":"string","name":"_newBaseExtension","type":"string"}],"name":"setBaseExtension","outputs":[],"stateMutability":"nonpayable","type":"function"},{"inputs":[{"internalType":"string","name":"_newBaseURI","type":"string"}],"name":"setBaseURI","outputs":[],"stateMutability":"nonpayable","type":"function"},{"inputs":[{"internalType":"uint64","name":"_newCost","type":"uint64"}],"name":"setCost","outputs":[],"stateMutability":"nonpayable","type":"function"},{"inputs":[{"internalType":"uint16","name":"_newFreeMints","type":"uint16"}],"name":"setFreeAmount","outputs":[],"stateMutability":"nonpayable","type":"function"},{"inputs":[{"internalType":"uint8","name":"_newmaxMintAmount","type":"uint8"}],"name":"setmaxMintAmount","outputs":[],"stateMutability":"nonpayable","type":"function"},{"inputs":[{"internalType":"bytes4","name":"interfaceId","type":"bytes4"}],"name":"supportsInterface","outputs":[{"internalType":"bool","name":"","type":"bool"}],"stateMutability":"view","type":"function"},{"inputs":[],"name":"symbol","outputs":[{"internalType":"string","name":"","type":"string"}],"stateMutability":"view","type":"function"},{"inputs":[{"internalType":"uint256","name":"index","type":"uint256"}],"name":"tokenByIndex","outputs":[{"internalType":"uint256","name":"","type":"uint256"}],"stateMutability":"view","type":"function"},{"inputs":[{"internalType":"address","name":"owner","type":"address"},{"internalType":"uint256","name":"index","type":"uint256"}],"name":"tokenOfOwnerByIndex","outputs":[{"internalType":"uint256","name":"","type":"uint256"}],"stateMutability":"view","type":"function"},{"inputs":[{"internalType":"uint256","name":"tokenId","type":"uint256"}],"name":"tokenURI","outputs":[{"internalType":"string","name":"","type":"string"}],"stateMutability":"view","type":"function"},{"inputs":[],"name":"totalSupply","outputs":[{"internalType":"uint256","name":"","type":"uint256"}],"stateMutability":"view","type":"function"},{"inputs":[{"internalType":"address","name":"from","type":"address"},{"internalType":"address","name":"to","type":"address"},{"internalType":"uint256","name":"tokenId","type":"uint256"}],"name":"transferFrom","outputs":[],"stateMutability":"nonpayable","type":"function"},{"inputs":[{"internalType":"address","name":"newOwner","type":"address"}],"name":"transferOwnership","outputs":[],"stateMutability":"nonpayable","type":"function"},{"inputs":[{"internalType":"address","name":"_owner","type":"address"}],"name":"walletOfOwner","outputs":[{"internalType":"uint256[]","name":"","type":"uint256[]"}],"stateMutability":"view","type":"function"},{"inputs":[],"name":"withdraw","outputs":[],"stateMutability":"payable","type":"function"}],"bytecode":{"object":"60a06040819052600060808190526200001b91600c9162000959565b50600d80546001600160701b0319166c1401f40bb8002386f26fc100001790553480156200004857600080fd5b50604080518082018252600f81526e50686c6970706564205068756e6b7360881b60208083019182528351808501909452600e84526d50686c69707065645068756e6b7360901b908401528151919291620000a69160009162000959565b508051620000bc90600190602084019062000959565b505050620000d9620000d36200010f60201b60201c565b62000113565b620000fd604051806060016040528060368152602001620030516036913962000165565b620001096001620001de565b62000bb1565b3390565b600a80546001600160a01b038381166001600160a01b0319831681179093556040519116919082907f8be0079c531659141344cd1fd0a4f28419497f9722a3daafe3b4186f6b6457e090600090a35050565b600a546001600160a01b03163314620001c55760405162461bcd60e51b815260206004820181905260248201527f4f776e61626c653a2063616c6c6572206973206e6f7420746865206f776e657260448201526064015b60405180910390fd5b8051620001da90600b90602084019062000959565b5050565b6000620001ea60085490565b600d549091506d0100000000000000000000000000900460ff16156200020f57600080fd5b600d5460ff6c01000000000000000000000000909104811690831611156200023657600080fd5b600d5468010000000000000000900461ffff166200025860ff84168362000a15565b11156200026457600080fd5b600d546a0100000000000000000000900461ffff16811115620002b357600d546200029d9060ff8416906001600160401b031662000a30565b6001600160401b0316341015620002b357600080fd5b60015b8260ff168111620002ed57620002d833620002d2838562000a15565b620002f2565b80620002e48162000a62565b915050620002b6565b505050565b620001da8282604051806020016040528060008152506200031460201b60201c565b62000320838362000387565b6200032f6000848484620004dd565b620002ed5760405162461bcd60e51b815260206004820152603260248201526000805160206200303183398151915260448201527131b2b4bb32b91034b6b83632b6b2b73a32b960711b6064820152608401620001bc565b6001600160a01b038216620003df5760405162461bcd60e51b815260206004820181905260248201527f4552433732313a206d696e7420746f20746865207a65726f20616464726573736044820152606401620001bc565b6000818152600260205260409020546001600160a01b031615620004465760405162461bcd60e51b815260206004820152601c60248201527f4552433732313a20746f6b656e20616c7265616479206d696e746564000000006044820152606401620001bc565b620004546000838362000636565b6001600160a01b03821660009081526003602052604081208054600192906200047f90849062000a15565b909155505060008181526002602052604080822080546001600160a01b0319166001600160a01b03861690811790915590518392907fddf252ad1be2c89b69c2b068fc378daa952ba7f163c4a11628f55a4df523b3ef908290a45050565b6000620004fe846001600160a01b03166200071260201b620011ec1760201c565b156200062a57604051630a85bd0160e11b81526001600160a01b0385169063150b7a02906200053890339089908890889060040162000a80565b6020604051808303816000875af192505050801562000576575060408051601f3d908101601f19168201909252620005739181019062000afb565b60015b6200060f573d808015620005a7576040519150601f19603f3d011682016040523d82523d6000602084013e620005ac565b606091505b508051620006075760405162461bcd60e51b815260206004820152603260248201526000805160206200303183398151915260448201527131b2b4bb32b91034b6b83632b6b2b73a32b960711b6064820152608401620001bc565b805181602001fd5b6001600160e01b031916630a85bd0160e11b1490506200062e565b5060015b949350505050565b6200064e838383620002ed60201b620009751760201c565b6001600160a01b038316620006ac57620006a681600880546000838152600960205260408120829055600182018355919091527ff3f7a9fe364faab93b216da50a3214154f22a0a2b415b23a84c8169e8b636ee30155565b620006d2565b816001600160a01b0316836001600160a01b031614620006d257620006d2838262000718565b6001600160a01b038216620006ec57620002ed81620007c5565b826001600160a01b0316826001600160a01b031614620002ed57620002ed82826200087f565b3b151590565b600060016200073284620008d060201b62000ed31760201c565b6200073e919062000b2e565b60008381526007602052604090205490915080821462000792576001600160a01b03841660009081526006602090815260408083208584528252808320548484528184208190558352600790915290208190555b5060009182526007602090815260408084208490556001600160a01b039094168352600681528383209183525290812055565b600854600090620007d99060019062000b2e565b6000838152600960205260408120546008805493945090928490811062000804576200080462000b48565b90600052602060002001549050806008838154811062000828576200082862000b48565b600091825260208083209091019290925582815260099091526040808220849055858252812055600880548062000863576200086362000b5e565b6001900381819060005260206000200160009055905550505050565b60006200089783620008d060201b62000ed31760201c565b6001600160a01b039093166000908152600660209081526040808320868452825280832085905593825260079052919091209190915550565b60006001600160a01b0382166200093d5760405162461bcd60e51b815260206004820152602a60248201527f4552433732313a2062616c616e636520717565727920666f7220746865207a65604482015269726f206164647265737360b01b6064820152608401620001bc565b506001600160a01b031660009081526003602052604090205490565b828054620009679062000b74565b90600052602060002090601f0160209004810192826200098b5760008555620009d6565b82601f10620009a657805160ff1916838001178555620009d6565b82800160010185558215620009d6579182015b82811115620009d6578251825591602001919060010190620009b9565b50620009e4929150620009e8565b5090565b5b80821115620009e45760008155600101620009e9565b634e487b7160e01b600052601160045260246000fd5b6000821982111562000a2b5762000a2b620009ff565b500190565b60006001600160401b038281168482168115158284048211161562000a595762000a59620009ff565b02949350505050565b600060001982141562000a795762000a79620009ff565b5060010190565b600060018060a01b038087168352602081871681850152856040850152608060608501528451915081608085015260005b8281101562000acf5785810182015185820160a00152810162000ab1565b8281111562000ae257600060a084870101525b5050601f01601f19169190910160a00195945050505050565b60006020828403121562000b0e57600080fd5b81516001600160e01b03198116811462000b2757600080fd5b9392505050565b60008282101562000b435762000b43620009ff565b500390565b634e487b7160e01b600052603260045260246000fd5b634e487b7160e01b600052603160045260246000fd5b600181811c9082168062000b8957607f821691505b6020821081141562000bab57634e487b7160e01b600052602260045260246000fd5b50919050565b6124708062000bc16000396000f3fe6080604052600436106102045760003560e01c80635c975abb11610118578063a22cb465116100a0578063d5abeb011161006f578063d5abeb01146105f6578063da3ef23f14610618578063e985e9c514610638578063f2fde38b14610681578063f8f53e6f146106a157600080fd5b8063a22cb46514610581578063b88d4fde146105a1578063c6682862146105c1578063c87b56dd146105d657600080fd5b80636edbba2e116100e75780636edbba2e146104e457806370a0823114610519578063715018a6146105395780638da5cb5b1461054e57806395d89b411461056c57600080fd5b80635c975abb1461047b5780636352211e1461049c5780636c0360eb146104bc5780636ecd2306146104d157600080fd5b806323b872dd1161019b57806342842e0e1161016a57806342842e0e146103ce578063438b6300146103ee57806345e520f91461041b5780634f6ccce71461043b57806355f804b31461045b57600080fd5b806323b872dd146103665780632716d6a7146103865780632f745c59146103a65780633ccfd60b146103c657600080fd5b8063095ea7b3116101d7578063095ea7b3146102ba57806313faede6146102da57806318160ddd14610314578063239c70ae1461033357600080fd5b806301ffc9a71461020957806302329a291461023e57806306fdde0314610260578063081812fc14610282575b600080fd5b34801561021557600080fd5b50610229610224366004611d43565b6106c1565b60405190151581526020015b60405180910390f35b34801561024a57600080fd5b5061025e610259366004611d75565b6106ec565b005b34801561026c57600080fd5b5061027561073d565b6040516102359190611de8565b34801561028e57600080fd5b506102a261029d366004611dfb565b6107cf565b6040516001600160a01b039091168152602001610235565b3480156102c657600080fd5b5061025e6102d5366004611e2b565b610864565b3480156102e657600080fd5b50600d546102fb9067ffffffffffffffff1681565b60405167ffffffffffffffff9091168152602001610235565b34801561032057600080fd5b506008545b604051908152602001610235565b34801561033f57600080fd5b50600d5461035490600160601b900460ff1681565b60405160ff9091168152602001610235565b34801561037257600080fd5b5061025e610381366004611e55565b61097a565b34801561039257600080fd5b5061025e6103a1366004611e91565b6109ab565b3480156103b257600080fd5b506103256103c1366004611e2b565b6109f7565b61025e610a8d565b3480156103da57600080fd5b5061025e6103e9366004611e55565b610b0f565b3480156103fa57600080fd5b5061040e610409366004611eb5565b610b2a565b6040516102359190611ed0565b34801561042757600080fd5b5061025e610436366004611f14565b610bcc565b34801561044757600080fd5b50610325610456366004611dfb565b610c1a565b34801561046757600080fd5b5061025e610476366004611fca565b610cad565b34801561048757600080fd5b50600d5461022990600160681b900460ff1681565b3480156104a857600080fd5b506102a26104b7366004611dfb565b610cee565b3480156104c857600080fd5b50610275610d65565b61025e6104df366004612013565b610df3565b3480156104f057600080fd5b50600d5461050690600160501b900461ffff1681565b60405161ffff9091168152602001610235565b34801561052557600080fd5b50610325610534366004611eb5565b610ed3565b34801561054557600080fd5b5061025e610f5a565b34801561055a57600080fd5b50600a546001600160a01b03166102a2565b34801561057857600080fd5b50610275610f90565b34801561058d57600080fd5b5061025e61059c366004612036565b610f9f565b3480156105ad57600080fd5b5061025e6105bc366004612069565b610faa565b3480156105cd57600080fd5b50610275610fe2565b3480156105e257600080fd5b506102756105f1366004611dfb565b610fef565b34801561060257600080fd5b50600d5461050690600160401b900461ffff1681565b34801561062457600080fd5b5061025e610633366004611fca565b6110cd565b34801561064457600080fd5b506102296106533660046120e5565b6001600160a01b03918216600090815260056020908152604080832093909416825291909152205460ff1690565b34801561068d57600080fd5b5061025e61069c366004611eb5565b61110a565b3480156106ad57600080fd5b5061025e6106bc366004612013565b6111a2565b60006001600160e01b0319821663780e9d6360e01b14806106e657506106e6826111f2565b92915050565b600a546001600160a01b0316331461071f5760405162461bcd60e51b81526004016107169061210f565b60405180910390fd5b600d8054911515600160681b0260ff60681b19909216919091179055565b60606000805461074c90612144565b80601f016020809104026020016040519081016040528092919081815260200182805461077890612144565b80156107c55780601f1061079a576101008083540402835291602001916107c5565b820191906000526020600020905b8154815290600101906020018083116107a857829003601f168201915b5050505050905090565b6000818152600260205260408120546001600160a01b03166108485760405162461bcd60e51b815260206004820152602c60248201527f4552433732313a20617070726f76656420717565727920666f72206e6f6e657860448201526b34b9ba32b73a103a37b5b2b760a11b6064820152608401610716565b506000908152600460205260409020546001600160a01b031690565b600061086f82610cee565b9050806001600160a01b0316836001600160a01b031614156108dd5760405162461bcd60e51b815260206004820152602160248201527f4552433732313a20617070726f76616c20746f2063757272656e74206f776e656044820152603960f91b6064820152608401610716565b336001600160a01b03821614806108f957506108f98133610653565b61096b5760405162461bcd60e51b815260206004820152603860248201527f4552433732313a20617070726f76652063616c6c6572206973206e6f74206f7760448201527f6e6572206e6f7220617070726f76656420666f7220616c6c00000000000000006064820152608401610716565b6109758383611242565b505050565b61098433826112b0565b6109a05760405162461bcd60e51b81526004016107169061217f565b6109758383836113a7565b600a546001600160a01b031633146109d55760405162461bcd60e51b81526004016107169061210f565b600d805461ffff909216600160501b0261ffff60501b19909216919091179055565b6000610a0283610ed3565b8210610a645760405162461bcd60e51b815260206004820152602b60248201527f455243373231456e756d657261626c653a206f776e657220696e646578206f7560448201526a74206f6620626f756e647360a81b6064820152608401610716565b506001600160a01b03919091166000908152600660209081526040808320938352929052205490565b600a546001600160a01b03163314610ab75760405162461bcd60e51b81526004016107169061210f565b604051600090339047908381818185875af1925050503d8060008114610af9576040519150601f19603f3d011682016040523d82523d6000602084013e610afe565b606091505b5050905080610b0c57600080fd5b50565b61097583838360405180602001604052806000815250610faa565b60606000610b3783610ed3565b905060008167ffffffffffffffff811115610b5457610b54611f3e565b604051908082528060200260200182016040528015610b7d578160200160208202803683370190505b50905060005b82811015610bc457610b9585826109f7565b828281518110610ba757610ba76121d0565b602090810291909101015280610bbc816121fc565b915050610b83565b509392505050565b600a546001600160a01b03163314610bf65760405162461bcd60e51b81526004016107169061210f565b600d805467ffffffffffffffff191667ffffffffffffffff92909216919091179055565b6000610c2560085490565b8210610c885760405162461bcd60e51b815260206004820152602c60248201527f455243373231456e756d657261626c653a20676c6f62616c20696e646578206f60448201526b7574206f6620626f756e647360a01b6064820152608401610716565b60088281548110610c9b57610c9b6121d0565b90600052602060002001549050919050565b600a546001600160a01b03163314610cd75760405162461bcd60e51b81526004016107169061210f565b8051610cea90600b906020840190611c94565b5050565b6000818152600260205260408120546001600160a01b0316806106e65760405162461bcd60e51b815260206004820152602960248201527f4552433732313a206f776e657220717565727920666f72206e6f6e657869737460448201526832b73a103a37b5b2b760b91b6064820152608401610716565b600b8054610d7290612144565b80601f0160208091040260200160405190810160405280929190818152602001828054610d9e90612144565b8015610deb5780601f10610dc057610100808354040283529160200191610deb565b820191906000526020600020905b815481529060010190602001808311610dce57829003601f168201915b505050505081565b6000610dfe60085490565b600d54909150600160681b900460ff1615610e1857600080fd5b600d5460ff600160601b90910481169083161115610e3557600080fd5b600d54600160401b900461ffff16610e5060ff841683612217565b1115610e5b57600080fd5b600d54600160501b900461ffff16811115610ea157600d54610e8b9060ff84169067ffffffffffffffff1661222f565b67ffffffffffffffff16341015610ea157600080fd5b60015b8260ff16811161097557610ec133610ebc8385612217565b611552565b80610ecb816121fc565b915050610ea4565b60006001600160a01b038216610f3e5760405162461bcd60e51b815260206004820152602a60248201527f4552433732313a2062616c616e636520717565727920666f7220746865207a65604482015269726f206164647265737360b01b6064820152608401610716565b506001600160a01b031660009081526003602052604090205490565b600a546001600160a01b03163314610f845760405162461bcd60e51b81526004016107169061210f565b610f8e600061156c565b565b60606001805461074c90612144565b610cea3383836115be565b610fb433836112b0565b610fd05760405162461bcd60e51b81526004016107169061217f565b610fdc8484848461168d565b50505050565b600c8054610d7290612144565b6000818152600260205260409020546060906001600160a01b031661106e5760405162461bcd60e51b815260206004820152602f60248201527f4552433732314d657461646174613a2055524920717565727920666f72206e6f60448201526e3732bc34b9ba32b73a103a37b5b2b760891b6064820152608401610716565b60006110786116c0565b9050600081511161109857604051806020016040528060008152506110c6565b806110a2846116cf565b600c6040516020016110b69392919061225f565b6040516020818303038152906040525b9392505050565b600a546001600160a01b031633146110f75760405162461bcd60e51b81526004016107169061210f565b8051610cea90600c906020840190611c94565b600a546001600160a01b031633146111345760405162461bcd60e51b81526004016107169061210f565b6001600160a01b0381166111995760405162461bcd60e51b815260206004820152602660248201527f4f776e61626c653a206e6577206f776e657220697320746865207a65726f206160448201526564647265737360d01b6064820152608401610716565b610b0c8161156c565b600a546001600160a01b031633146111cc5760405162461bcd60e51b81526004016107169061210f565b600d805460ff909216600160601b0260ff60601b19909216919091179055565b3b151590565b60006001600160e01b031982166380ac58cd60e01b148061122357506001600160e01b03198216635b5e139f60e01b145b806106e657506301ffc9a760e01b6001600160e01b03198316146106e6565b600081815260046020526040902080546001600160a01b0319166001600160a01b038416908117909155819061127782610cee565b6001600160a01b03167f8c5be1e5ebec7d5bd14f71427d1e84f3dd0314c0f7b2291e5b200ac8c7c3b92560405160405180910390a45050565b6000818152600260205260408120546001600160a01b03166113295760405162461bcd60e51b815260206004820152602c60248201527f4552433732313a206f70657261746f7220717565727920666f72206e6f6e657860448201526b34b9ba32b73a103a37b5b2b760a11b6064820152608401610716565b600061133483610cee565b9050806001600160a01b0316846001600160a01b0316148061136f5750836001600160a01b0316611364846107cf565b6001600160a01b0316145b8061139f57506001600160a01b0380821660009081526005602090815260408083209388168352929052205460ff165b949350505050565b826001600160a01b03166113ba82610cee565b6001600160a01b0316146114225760405162461bcd60e51b815260206004820152602960248201527f4552433732313a207472616e73666572206f6620746f6b656e2074686174206960448201526839903737ba1037bbb760b91b6064820152608401610716565b6001600160a01b0382166114845760405162461bcd60e51b8152602060048201526024808201527f4552433732313a207472616e7366657220746f20746865207a65726f206164646044820152637265737360e01b6064820152608401610716565b61148f8383836117cd565b61149a600082611242565b6001600160a01b03831660009081526003602052604081208054600192906114c3908490612323565b90915550506001600160a01b03821660009081526003602052604081208054600192906114f1908490612217565b909155505060008181526002602052604080822080546001600160a01b0319166001600160a01b0386811691821790925591518493918716917fddf252ad1be2c89b69c2b068fc378daa952ba7f163c4a11628f55a4df523b3ef91a4505050565b610cea828260405180602001604052806000815250611885565b600a80546001600160a01b038381166001600160a01b0319831681179093556040519116919082907f8be0079c531659141344cd1fd0a4f28419497f9722a3daafe3b4186f6b6457e090600090a35050565b816001600160a01b0316836001600160a01b031614156116205760405162461bcd60e51b815260206004820152601960248201527f4552433732313a20617070726f766520746f2063616c6c6572000000000000006044820152606401610716565b6001600160a01b03838116600081815260056020908152604080832094871680845294825291829020805460ff191686151590811790915591519182527f17307eab39ab6107e8899845ad3d59bd9653f200f220920489ca2b5937696c31910160405180910390a3505050565b6116988484846113a7565b6116a4848484846118b8565b610fdc5760405162461bcd60e51b81526004016107169061233a565b6060600b805461074c90612144565b6060816116f35750506040805180820190915260018152600360fc1b602082015290565b8160005b811561171d5780611707816121fc565b91506117169050600a836123a2565b91506116f7565b60008167ffffffffffffffff81111561173857611738611f3e565b6040519080825280601f01601f191660200182016040528015611762576020820181803683370190505b5090505b841561139f57611777600183612323565b9150611784600a866123b6565b61178f906030612217565b60f81b8183815181106117a4576117a46121d0565b60200101906001600160f81b031916908160001a9053506117c6600a866123a2565b9450611766565b6001600160a01b0383166118285761182381600880546000838152600960205260408120829055600182018355919091527ff3f7a9fe364faab93b216da50a3214154f22a0a2b415b23a84c8169e8b636ee30155565b61184b565b816001600160a01b0316836001600160a01b03161461184b5761184b83826119b6565b6001600160a01b0382166118625761097581611a53565b826001600160a01b0316826001600160a01b031614610975576109758282611b02565b61188f8383611b46565b61189c60008484846118b8565b6109755760405162461bcd60e51b81526004016107169061233a565b60006001600160a01b0384163b156119ab57604051630a85bd0160e11b81526001600160a01b0385169063150b7a02906118fc9033908990889088906004016123ca565b6020604051808303816000875af1925050508015611937575060408051601f3d908101601f1916820190925261193491810190612407565b60015b611991573d808015611965576040519150601f19603f3d011682016040523d82523d6000602084013e61196a565b606091505b5080516119895760405162461bcd60e51b81526004016107169061233a565b805181602001fd5b6001600160e01b031916630a85bd0160e11b14905061139f565b506001949350505050565b600060016119c384610ed3565b6119cd9190612323565b600083815260076020526040902054909150808214611a20576001600160a01b03841660009081526006602090815260408083208584528252808320548484528184208190558352600790915290208190555b5060009182526007602090815260408084208490556001600160a01b039094168352600681528383209183525290812055565b600854600090611a6590600190612323565b60008381526009602052604081205460088054939450909284908110611a8d57611a8d6121d0565b906000526020600020015490508060088381548110611aae57611aae6121d0565b6000918252602080832090910192909255828152600990915260408082208490558582528120556008805480611ae657611ae6612424565b6001900381819060005260206000200160009055905550505050565b6000611b0d83610ed3565b6001600160a01b039093166000908152600660209081526040808320868452825280832085905593825260079052919091209190915550565b6001600160a01b038216611b9c5760405162461bcd60e51b815260206004820181905260248201527f4552433732313a206d696e7420746f20746865207a65726f20616464726573736044820152606401610716565b6000818152600260205260409020546001600160a01b031615611c015760405162461bcd60e51b815260206004820152601c60248201527f4552433732313a20746f6b656e20616c7265616479206d696e746564000000006044820152606401610716565b611c0d600083836117cd565b6001600160a01b0382166000908152600360205260408120805460019290611c36908490612217565b909155505060008181526002602052604080822080546001600160a01b0319166001600160a01b03861690811790915590518392907fddf252ad1be2c89b69c2b068fc378daa952ba7f163c4a11628f55a4df523b3ef908290a45050565b828054611ca090612144565b90600052602060002090601f016020900481019282611cc25760008555611d08565b82601f10611cdb57805160ff1916838001178555611d08565b82800160010185558215611d08579182015b82811115611d08578251825591602001919060010190611ced565b50611d14929150611d18565b5090565b5b80821115611d145760008155600101611d19565b6001600160e01b031981168114610b0c57600080fd5b600060208284031215611d5557600080fd5b81356110c681611d2d565b80358015158114611d7057600080fd5b919050565b600060208284031215611d8757600080fd5b6110c682611d60565b60005b83811015611dab578181015183820152602001611d93565b83811115610fdc5750506000910152565b60008151808452611dd4816020860160208601611d90565b601f01601f19169290920160200192915050565b6020815260006110c66020830184611dbc565b600060208284031215611e0d57600080fd5b5035919050565b80356001600160a01b0381168114611d7057600080fd5b60008060408385031215611e3e57600080fd5b611e4783611e14565b946020939093013593505050565b600080600060608486031215611e6a57600080fd5b611e7384611e14565b9250611e8160208501611e14565b9150604084013590509250925092565b600060208284031215611ea357600080fd5b813561ffff811681146110c657600080fd5b600060208284031215611ec757600080fd5b6110c682611e14565b6020808252825182820181905260009190848201906040850190845b81811015611f0857835183529284019291840191600101611eec565b50909695505050505050565b600060208284031215611f2657600080fd5b813567ffffffffffffffff811681146110c657600080fd5b634e487b7160e01b600052604160045260246000fd5b600067ffffffffffffffff80841115611f6f57611f6f611f3e565b604051601f8501601f19908116603f01168101908282118183101715611f9757611f97611f3e565b81604052809350858152868686011115611fb057600080fd5b858560208301376000602087830101525050509392505050565b600060208284031215611fdc57600080fd5b813567ffffffffffffffff811115611ff357600080fd5b8201601f8101841361200457600080fd5b61139f84823560208401611f54565b60006020828403121561202557600080fd5b813560ff811681146110c657600080fd5b6000806040838503121561204957600080fd5b61205283611e14565b915061206060208401611d60565b90509250929050565b6000806000806080858703121561207f57600080fd5b61208885611e14565b935061209660208601611e14565b925060408501359150606085013567ffffffffffffffff8111156120b957600080fd5b8501601f810187136120ca57600080fd5b6120d987823560208401611f54565b91505092959194509250565b600080604083850312156120f857600080fd5b61210183611e14565b915061206060208401611e14565b6020808252818101527f4f776e61626c653a2063616c6c6572206973206e6f7420746865206f776e6572604082015260600190565b600181811c9082168061215857607f821691505b6020821081141561217957634e487b7160e01b600052602260045260246000fd5b50919050565b60208082526031908201527f4552433732313a207472616e736665722063616c6c6572206973206e6f74206f6040820152701ddb995c881b9bdc88185c1c1c9bdd9959607a1b606082015260800190565b634e487b7160e01b600052603260045260246000fd5b634e487b7160e01b600052601160045260246000fd5b6000600019821415612210576122106121e6565b5060010190565b6000821982111561222a5761222a6121e6565b500190565b600067ffffffffffffffff80831681851681830481118215151615612256576122566121e6565b02949350505050565b6000845160206122728285838a01611d90565b8551918401916122858184848a01611d90565b8554920191600090600181811c90808316806122a257607f831692505b8583108114156122c057634e487b7160e01b85526022600452602485fd5b8080156122d457600181146122e557612312565b60ff19851688528388019550612312565b60008b81526020902060005b8581101561230a5781548a8201529084019088016122f1565b505083880195505b50939b9a5050505050505050505050565b600082821015612335576123356121e6565b500390565b60208082526032908201527f4552433732313a207472616e7366657220746f206e6f6e20455243373231526560408201527131b2b4bb32b91034b6b83632b6b2b73a32b960711b606082015260800190565b634e487b7160e01b600052601260045260246000fd5b6000826123b1576123b161238c565b500490565b6000826123c5576123c561238c565b500690565b6001600160a01b03858116825284166020820152604081018390526080606082018190526000906123fd90830184611dbc565b9695505050505050565b60006020828403121561241957600080fd5b81516110c681611d2d565b634e487b7160e01b600052603160045260246000fdfea2646970667358221220f6369c628dd99778f46a58ec4e2f583f141a031f07528f12f26232990c74712664736f6c634300080a00334552433732313a207472616e7366657220746f206e6f6e204552433732315265697066733a2f2f516d62686e32506b5732366933506d57506d7941446e36446f703839536f3443466f4d6b674539316f63593373572f"}}