{"compiler":"v0.5.17+commit.d19bba13","opcodeHash":"0x4d0aca82e748695a0c51f02151a8e797abd022b41b1a60d83cc2af6830be0fd5","metalessHash":"0x0b0df090ad6372c767e12b8847b9976842b750f0f2ecd4cf032b42adcce1c83e","runtimeHash":"0xd9a9230ac5603eb16e43a5ee5bc6e35e3441d2cbe78835c6630a87873a4cbed8","encodedMetadata":[{"bzzr1":"/swarm/bzzr1/092f7092ff111b6eb90c58553a82e5638b2577463da2d0328b684057cf8750b4","solc":"0.5.17"}],"abi":[{"inputs":[],"payable":false,"stateMutability":"nonpayable","type":"constructor"},{"anonymous":false,"inputs":[{"indexed":true,"internalType":"address","name":"owner","type":"address"},{"indexed":true,"internalType":"address","name":"spender","type":"address"},{"indexed":false,"internalType":"uint256","name":"value","type":"uint256"}],"name":"Approval","type":"event"},{"anonymous":false,"inputs":[{"indexed":true,"internalType":"address","name":"from","type":"address"},{"indexed":true,"internalType":"address","name":"to","type":"address"},{"indexed":false,"internalType":"uint256","name":"value","type":"uint256"}],"name":"Transfer","type":"event"},{"constant":true,"inputs":[{"internalType":"address","name":"owner","type":"address"},{"internalType":"address","name":"spender","type":"address"}],"name":"allowance","outputs":[{"internalType":"uint256","name":"","type":"uint256"}],"payable":false,"stateMutability":"view","type":"function"},{"constant":false,"inputs":[{"internalType":"address","name":"spender","type":"address"},{"internalType":"uint256","name":"amount","type":"uint256"}],"name":"approve","outputs":[{"internalType":"bool","name":"","type":"bool"}],"payable":false,"stateMutability":"nonpayable","type":"function"},{"constant":true,"inputs":[{"internalType":"address","name":"account","type":"address"}],"name":"balanceOf","outputs":[{"internalType":"uint256","name":"","type":"uint256"}],"payable":false,"stateMutability":"view","type":"function"},{"constant":false,"inputs":[{"internalType":"uint256","name":"amount","type":"uint256"}],"name":"burn","outputs":[],"payable":false,"stateMutability":"nonpayable","type":"function"},{"constant":true,"inputs":[],"name":"decimals","outputs":[{"internalType":"uint8","name":"","type":"uint8"}],"payable":false,"stateMutability":"view","type":"function"},{"constant":false,"inputs":[{"internalType":"address","name":"spender","type":"address"},{"internalType":"uint256","name":"subtractedValue","type":"uint256"}],"name":"decreaseAllowance","outputs":[{"internalType":"bool","name":"","type":"bool"}],"payable":false,"stateMutability":"nonpayable","type":"function"},{"constant":false,"inputs":[{"internalType":"uint256","name":"amount","type":"uint256"}],"name":"fund","outputs":[],"payable":false,"stateMutability":"nonpayable","type":"function"},{"constant":true,"inputs":[],"name":"governance","outputs":[{"internalType":"address","name":"","type":"address"}],"payable":false,"stateMutability":"view","type":"function"},{"constant":false,"inputs":[{"internalType":"address","name":"spender","type":"address"},{"internalType":"uint256","name":"addedValue","type":"uint256"}],"name":"increaseAllowance","outputs":[{"internalType":"bool","name":"","type":"bool"}],"payable":false,"stateMutability":"nonpayable","type":"function"},{"constant":true,"inputs":[{"internalType":"address","name":"","type":"address"}],"name":"minters","outputs":[{"internalType":"bool","name":"","type":"bool"}],"payable":false,"stateMutability":"view","type":"function"},{"constant":true,"inputs":[],"name":"name","outputs":[{"internalType":"string","name":"","type":"string"}],"payable":false,"stateMutability":"view","type":"function"},{"constant":false,"inputs":[{"internalType":"address","name":"_governance","type":"address"}],"name":"setGovernance","outputs":[],"payable":false,"stateMutability":"nonpayable","type":"function"},{"constant":true,"inputs":[],"name":"symbol","outputs":[{"internalType":"string","name":"","type":"string"}],"payable":false,"stateMutability":"view","type":"function"},{"constant":true,"inputs":[],"name":"totalSupply","outputs":[{"internalType":"uint256","name":"","type":"uint256"}],"payable":false,"stateMutability":"view","type":"function"},{"constant":false,"inputs":[{"internalType":"address","name":"recipient","type":"address"},{"internalType":"uint256","name":"amount","type":"uint256"}],"name":"transfer","outputs":[{"internalType":"bool","name":"","type":"bool"}],"payable":false,"stateMutability":"nonpayable","type":"function"},{"constant":false,"inputs":[{"internalType":"address","name":"sender","type":"address"},{"internalType":"address","name":"recipient","type":"address"},{"internalType":"uint256","name":"amount","type":"uint256"}],"name":"transferFrom","outputs":[{"internalType":"bool","name":"","type":"bool"}],"payable":false,"stateMutability":"nonpayable","type":"function"},{"constant":true,"inputs":[],"name":"treasury","outputs":[{"internalType":"address","name":"","type":"address"}],"payable":false,"stateMutability":"view","type":"function"}],"bytecode":{"object":"60806040523480156200001157600080fd5b506040518060400160405280600a8152602001694c6f636b33724d6f636b60b01b815250604051806040016040528060048152602001634c4b524d60e01b815250601282600490805190602001906200006c9291906200024a565b508151620000829060059060208501906200024a565b5060068054336101008102610100600160a81b031960ff90951660ff199093169290921793909316179055600280546001600160a01b03191682179055620000e192509050692a5a058fc295ed0000006001600160e01b03620000e716565b620002ef565b6001600160a01b03821662000143576040805162461bcd60e51b815260206004820152601f60248201527f45524332303a206d696e7420746f20746865207a65726f206164647265737300604482015290519081900360640190fd5b6200015f81600354620001e860201b62000aa51790919060201c565b6003556001600160a01b038216600090815260208181526040909120546200019291839062000aa5620001e8821b17901c565b6001600160a01b0383166000818152602081815260408083209490945583518581529351929391927fddf252ad1be2c89b69c2b068fc378daa952ba7f163c4a11628f55a4df523b3ef9281900390910190a35050565b60008282018381101562000243576040805162461bcd60e51b815260206004820152601b60248201527f536166654d6174683a206164646974696f6e206f766572666c6f770000000000604482015290519081900360640190fd5b9392505050565b828054600181600116156101000203166002900490600052602060002090601f016020900481019282601f106200028d57805160ff1916838001178555620002bd565b82800160010185558215620002bd579182015b82811115620002bd578251825591602001919060010190620002a0565b50620002cb929150620002cf565b5090565b620002ec91905b80821115620002cb5760008155600101620002d6565b90565b610ef180620002ff6000396000f3fe608060405234801561001057600080fd5b506004361061010b5760003560e01c806361d027b3116100a2578063a9059cbb11610071578063a9059cbb1461030c578063ab033ea914610338578063ca1d209d1461035e578063dd62ed3e1461037b578063f46eccc4146103a95761010b565b806361d027b3146102aa57806370a08231146102b257806395d89b41146102d8578063a457c2d7146102e05761010b565b8063313ce567116100de578063313ce5671461021d578063395093511461023b57806342966c68146102675780635aa6e675146102865761010b565b806306fdde0314610110578063095ea7b31461018d57806318160ddd146101cd57806323b872dd146101e7575b600080fd5b6101186103cf565b6040805160208082528351818301528351919283929083019185019080838360005b8381101561015257818101518382015260200161013a565b50505050905090810190601f16801561017f5780820380516001836020036101000a031916815260200191505b509250505060405180910390f35b6101b9600480360360408110156101a357600080fd5b506001600160a01b038135169060200135610465565b604080519115158252519081900360200190f35b6101d5610482565b60408051918252519081900360200190f35b6101b9600480360360608110156101fd57600080fd5b506001600160a01b03813581169160208101359091169060400135610488565b610225610515565b6040805160ff9092168252519081900360200190f35b6101b96004803603604081101561025157600080fd5b506001600160a01b03813516906020013561051e565b6102846004803603602081101561027d57600080fd5b5035610572565b005b61028e61057f565b604080516001600160a01b039092168252519081900360200190f35b61028e610593565b6101d5600480360360208110156102c857600080fd5b50356001600160a01b03166105a2565b6101186105bd565b6101b9600480360360408110156102f657600080fd5b506001600160a01b03813516906020013561061e565b6101b96004803603604081101561032257600080fd5b506001600160a01b03813516906020013561068c565b6102846004803603602081101561034e57600080fd5b50356001600160a01b03166106a0565b6102846004803603602081101561037457600080fd5b503561071a565b6101d56004803603604081101561039157600080fd5b506001600160a01b0381358116916020013516610782565b6101b9600480360360208110156103bf57600080fd5b50356001600160a01b03166107ad565b60048054604080516020601f600260001961010060018816150201909516949094049384018190048102820181019092528281526060939092909183018282801561045b5780601f106104305761010080835404028352916020019161045b565b820191906000526020600020905b81548152906001019060200180831161043e57829003601f168201915b5050505050905090565b60006104796104726107c2565b84846107c6565b50600192915050565b60035490565b60006104958484846108b2565b61050b846104a16107c2565b61050685604051806060016040528060288152602001610e06602891396001600160a01b038a166000908152600160205260408120906104df6107c2565b6001600160a01b03168152602081019190915260400160002054919063ffffffff610a0e16565b6107c6565b5060019392505050565b60065460ff1690565b600061047961052b6107c2565b84610506856001600061053c6107c2565b6001600160a01b03908116825260208083019390935260409182016000908120918c16815292529020549063ffffffff610aa516565b61057c3382610b06565b50565b60065461010090046001600160a01b031681565b6002546001600160a01b031681565b6001600160a01b031660009081526020819052604090205490565b60058054604080516020601f600260001961010060018816150201909516949094049384018190048102820181019092528281526060939092909183018282801561045b5780601f106104305761010080835404028352916020019161045b565b600061047961062b6107c2565b8461050685604051806060016040528060258152602001610e9860259139600160006106556107c2565b6001600160a01b03908116825260208083019390935260409182016000908120918d1681529252902054919063ffffffff610a0e16565b60006104796106996107c2565b84846108b2565b60065461010090046001600160a01b031633146106f2576040805162461bcd60e51b815260206004820152600b60248201526a21676f7665726e616e636560a81b604482015290519081900360640190fd5b600680546001600160a01b0390921661010002610100600160a81b0319909216919091179055565b60065461010090046001600160a01b0316331461076c576040805162461bcd60e51b815260206004820152600b60248201526a21676f7665726e616e636560a81b604482015290519081900360640190fd5b60025461057c906001600160a01b031682610c02565b6001600160a01b03918216600090815260016020908152604080832093909416825291909152205490565b60076020526000908152604090205460ff1681565b3390565b6001600160a01b03831661080b5760405162461bcd60e51b8152600401808060200182810382526024815260200180610e746024913960400191505060405180910390fd5b6001600160a01b0382166108505760405162461bcd60e51b8152600401808060200182810382526022815260200180610dbe6022913960400191505060405180910390fd5b6001600160a01b03808416600081815260016020908152604080832094871680845294825291829020859055815185815291517f8c5be1e5ebec7d5bd14f71427d1e84f3dd0314c0f7b2291e5b200ac8c7c3b9259281900390910190a3505050565b6001600160a01b0383166108f75760405162461bcd60e51b8152600401808060200182810382526025815260200180610e4f6025913960400191505060405180910390fd5b6001600160a01b03821661093c5760405162461bcd60e51b8152600401808060200182810382526023815260200180610d796023913960400191505060405180910390fd5b61097f81604051806060016040528060268152602001610de0602691396001600160a01b038616600090815260208190526040902054919063ffffffff610a0e16565b6001600160a01b0380851660009081526020819052604080822093909355908416815220546109b4908263ffffffff610aa516565b6001600160a01b038084166000818152602081815260409182902094909455805185815290519193928716927fddf252ad1be2c89b69c2b068fc378daa952ba7f163c4a11628f55a4df523b3ef92918290030190a3505050565b60008184841115610a9d5760405162461bcd60e51b81526004018080602001828103825283818151815260200191508051906020019080838360005b83811015610a62578181015183820152602001610a4a565b50505050905090810190601f168015610a8f5780820380516001836020036101000a031916815260200191505b509250505060405180910390fd5b505050900390565b600082820183811015610aff576040805162461bcd60e51b815260206004820152601b60248201527f536166654d6174683a206164646974696f6e206f766572666c6f770000000000604482015290519081900360640190fd5b9392505050565b6001600160a01b038216610b4b5760405162461bcd60e51b8152600401808060200182810382526021815260200180610e2e6021913960400191505060405180910390fd5b610b8e81604051806060016040528060228152602001610d9c602291396001600160a01b038516600090815260208190526040902054919063ffffffff610a0e16565b6001600160a01b038316600090815260208190526040902055600354610bba908263ffffffff610d3616565b6003556040805182815290516000916001600160a01b038516917fddf252ad1be2c89b69c2b068fc378daa952ba7f163c4a11628f55a4df523b3ef9181900360200190a35050565b6002546001600160a01b0316600090815260208190526040902054811115610c71576040805162461bcd60e51b815260206004820152601960248201527f74726561737572793a20657863656564732062616c616e636500000000000000604482015290519081900360640190fd5b6001600160a01b038216600090815260208190526040902054610c9a908263ffffffff610aa516565b6001600160a01b038084166000908152602081905260408082209390935560025490911681522054610cd2908263ffffffff610d3616565b600280546001600160a01b0390811660009081526020818152604091829020949094559154825185815292518683169491909216927fddf252ad1be2c89b69c2b068fc378daa952ba7f163c4a11628f55a4df523b3ef929081900390910190a35050565b6000610aff83836040518060400160405280601e81526020017f536166654d6174683a207375627472616374696f6e206f766572666c6f770000815250610a0e56fe45524332303a207472616e7366657220746f20746865207a65726f206164647265737345524332303a206275726e20616d6f756e7420657863656564732062616c616e636545524332303a20617070726f766520746f20746865207a65726f206164647265737345524332303a207472616e7366657220616d6f756e7420657863656564732062616c616e636545524332303a207472616e7366657220616d6f756e74206578636565647320616c6c6f77616e636545524332303a206275726e2066726f6d20746865207a65726f206164647265737345524332303a207472616e736665722066726f6d20746865207a65726f206164647265737345524332303a20617070726f76652066726f6d20746865207a65726f206164647265737345524332303a2064656372656173656420616c6c6f77616e63652062656c6f77207a65726fa265627a7a72315820267d965d956f166df25aa78c089a65629a37ef152133af9d986027992cb4428064736f6c63430005110032"}}