{
  "opcodeHash": "0x5a25e0bcb5027a988b383586c65cf8c99ffda6486f453542a203095c91aa5047",
  "metalessHash": "0x2d6cb6c29209e839699553660dcb965940551b8a9640602f4eba65c276c378b1",
  "runtimeHash": "0x5d78b6fa6abd460fca9814903320d5a80d267d88edeb40439017299928ccbb15",
  "encodedMetadata": [
    {
      "ipfs": "/ipfs/QmSuVRdGJoEKdwHKbHcnvm9EDVHX9Zjx2G6asipAD1Wn3H",
      "solc": "0.8.7"
    }
  ],
  "abi": [
    {
      "inputs": [
        {
          "internalType": "string",
          "name": "_name",
          "type": "string"
        },
        {
          "internalType": "string",
          "name": "_symbol",
          "type": "string"
        },
        {
          "internalType": "string",
          "name": "_initBaseURI",
          "type": "string"
        },
        {
          "internalType": "string",
          "name": "_initNotRevealedUri",
          "type": "string"
        }
      ],
      "stateMutability": "nonpayable",
      "type": "constructor"
    },
    {
      "anonymous": false,
      "inputs": [
        {
          "indexed": true,
          "internalType": "address",
          "name": "owner",
          "type": "address"
        },
        {
          "indexed": true,
          "internalType": "address",
          "name": "approved",
          "type": "address"
        },
        {
          "indexed": true,
          "internalType": "uint256",
          "name": "tokenId",
          "type": "uint256"
        }
      ],
      "name": "Approval",
      "type": "event"
    },
    {
      "anonymous": false,
      "inputs": [
        {
          "indexed": true,
          "internalType": "address",
          "name": "owner",
          "type": "address"
        },
        {
          "indexed": true,
          "internalType": "address",
          "name": "operator",
          "type": "address"
        },
        {
          "indexed": false,
          "internalType": "bool",
          "name": "approved",
          "type": "bool"
        }
      ],
      "name": "ApprovalForAll",
      "type": "event"
    },
    {
      "anonymous": false,
      "inputs": [
        {
          "indexed": true,
          "internalType": "address",
          "name": "previousOwner",
          "type": "address"
        },
        {
          "indexed": true,
          "internalType": "address",
          "name": "newOwner",
          "type": "address"
        }
      ],
      "name": "OwnershipTransferred",
      "type": "event"
    },
    {
      "anonymous": false,
      "inputs": [
        {
          "indexed": true,
          "internalType": "address",
          "name": "from",
          "type": "address"
        },
        {
          "indexed": true,
          "internalType": "address",
          "name": "to",
          "type": "address"
        },
        {
          "indexed": true,
          "internalType": "uint256",
          "name": "tokenId",
          "type": "uint256"
        }
      ],
      "name": "Transfer",
      "type": "event"
    },
    {
      "inputs": [
        {
          "internalType": "address",
          "name": "_user",
          "type": "address"
        }
      ],
      "name": "addWhiteListUser",
      "outputs": [],
      "stateMutability": "nonpayable",
      "type": "function"
    },
    {
      "inputs": [
        {
          "internalType": "address",
          "name": "",
          "type": "address"
        }
      ],
      "name": "addressMintedBalance",
      "outputs": [
        {
          "internalType": "uint256",
          "name": "",
          "type": "uint256"
        }
      ],
      "stateMutability": "view",
      "type": "function"
    },
    {
      "inputs": [
        {
          "internalType": "address",
          "name": "to",
          "type": "address"
        },
        {
          "internalType": "uint256",
          "name": "tokenId",
          "type": "uint256"
        }
      ],
      "name": "approve",
      "outputs": [],
      "stateMutability": "nonpayable",
      "type": "function"
    },
    {
      "inputs": [
        {
          "internalType": "address",
          "name": "owner",
          "type": "address"
        }
      ],
      "name": "balanceOf",
      "outputs": [
        {
          "internalType": "uint256",
          "name": "",
          "type": "uint256"
        }
      ],
      "stateMutability": "view",
      "type": "function"
    },
    {
      "inputs": [],
      "name": "baseExtension",
      "outputs": [
        {
          "internalType": "string",
          "name": "",
          "type": "string"
        }
      ],
      "stateMutability": "view",
      "type": "function"
    },
    {
      "inputs": [],
      "name": "baseURI",
      "outputs": [
        {
          "internalType": "string",
          "name": "",
          "type": "string"
        }
      ],
      "stateMutability": "view",
      "type": "function"
    },
    {
      "inputs": [],
      "name": "cost",
      "outputs": [
        {
          "internalType": "uint256",
          "name": "",
          "type": "uint256"
        }
      ],
      "stateMutability": "view",
      "type": "function"
    },
    {
      "inputs": [
        {
          "internalType": "uint256",
          "name": "tokenId",
          "type": "uint256"
        }
      ],
      "name": "getApproved",
      "outputs": [
        {
          "internalType": "address",
          "name": "",
          "type": "address"
        }
      ],
      "stateMutability": "view",
      "type": "function"
    },
    {
      "inputs": [
        {
          "internalType": "address",
          "name": "owner",
          "type": "address"
        },
        {
          "internalType": "address",
          "name": "operator",
          "type": "address"
        }
      ],
      "name": "isApprovedForAll",
      "outputs": [
        {
          "internalType": "bool",
          "name": "",
          "type": "bool"
        }
      ],
      "stateMutability": "view",
      "type": "function"
    },
    {
      "inputs": [
        {
          "internalType": "address",
          "name": "_user",
          "type": "address"
        }
      ],
      "name": "isWhitelisted",
      "outputs": [
        {
          "internalType": "bool",
          "name": "",
          "type": "bool"
        }
      ],
      "stateMutability": "view",
      "type": "function"
    },
    {
      "inputs": [],
      "name": "maxMintAmount",
      "outputs": [
        {
          "internalType": "uint256",
          "name": "",
          "type": "uint256"
        }
      ],
      "stateMutability": "view",
      "type": "function"
    },
    {
      "inputs": [],
      "name": "maxSupply",
      "outputs": [
        {
          "internalType": "uint256",
          "name": "",
          "type": "uint256"
        }
      ],
      "stateMutability": "view",
      "type": "function"
    },
    {
      "inputs": [
        {
          "internalType": "uint256",
          "name": "_mintAmount",
          "type": "uint256"
        }
      ],
      "name": "mint",
      "outputs": [],
      "stateMutability": "payable",
      "type": "function"
    },
    {
      "inputs": [],
      "name": "name",
      "outputs": [
        {
          "internalType": "string",
          "name": "",
          "type": "string"
        }
      ],
      "stateMutability": "view",
      "type": "function"
    },
    {
      "inputs": [],
      "name": "nftPerAddressLimit",
      "outputs": [
        {
          "internalType": "uint256",
          "name": "",
          "type": "uint256"
        }
      ],
      "stateMutability": "view",
      "type": "function"
    },
    {
      "inputs": [],
      "name": "notRevealedUri",
      "outputs": [
        {
          "internalType": "string",
          "name": "",
          "type": "string"
        }
      ],
      "stateMutability": "view",
      "type": "function"
    },
    {
      "inputs": [],
      "name": "onlyWhitelisted",
      "outputs": [
        {
          "internalType": "bool",
          "name": "",
          "type": "bool"
        }
      ],
      "stateMutability": "view",
      "type": "function"
    },
    {
      "inputs": [],
      "name": "owner",
      "outputs": [
        {
          "internalType": "address",
          "name": "",
          "type": "address"
        }
      ],
      "stateMutability": "view",
      "type": "function"
    },
    {
      "inputs": [
        {
          "internalType": "uint256",
          "name": "tokenId",
          "type": "uint256"
        }
      ],
      "name": "ownerOf",
      "outputs": [
        {
          "internalType": "address",
          "name": "",
          "type": "address"
        }
      ],
      "stateMutability": "view",
      "type": "function"
    },
    {
      "inputs": [
        {
          "internalType": "bool",
          "name": "_state",
          "type": "bool"
        }
      ],
      "name": "pause",
      "outputs": [],
      "stateMutability": "nonpayable",
      "type": "function"
    },
    {
      "inputs": [],
      "name": "paused",
      "outputs": [
        {
          "internalType": "bool",
          "name": "",
          "type": "bool"
        }
      ],
      "stateMutability": "view",
      "type": "function"
    },
    {
      "inputs": [
        {
          "internalType": "address",
          "name": "_user",
          "type": "address"
        }
      ],
      "name": "removeWhiteListUser",
      "outputs": [],
      "stateMutability": "nonpayable",
      "type": "function"
    },
    {
      "inputs": [],
      "name": "renounceOwnership",
      "outputs": [],
      "stateMutability": "nonpayable",
      "type": "function"
    },
    {
      "inputs": [],
      "name": "reveal",
      "outputs": [],
      "stateMutability": "nonpayable",
      "type": "function"
    },
    {
      "inputs": [],
      "name": "revealed",
      "outputs": [
        {
          "internalType": "bool",
          "name": "",
          "type": "bool"
        }
      ],
      "stateMutability": "view",
      "type": "function"
    },
    {
      "inputs": [
        {
          "internalType": "address",
          "name": "from",
          "type": "address"
        },
        {
          "internalType": "address",
          "name": "to",
          "type": "address"
        },
        {
          "internalType": "uint256",
          "name": "tokenId",
          "type": "uint256"
        }
      ],
      "name": "safeTransferFrom",
      "outputs": [],
      "stateMutability": "nonpayable",
      "type": "function"
    },
    {
      "inputs": [
        {
          "internalType": "address",
          "name": "from",
          "type": "address"
        },
        {
          "internalType": "address",
          "name": "to",
          "type": "address"
        },
        {
          "internalType": "uint256",
          "name": "tokenId",
          "type": "uint256"
        },
        {
          "internalType": "bytes",
          "name": "_data",
          "type": "bytes"
        }
      ],
      "name": "safeTransferFrom",
      "outputs": [],
      "stateMutability": "nonpayable",
      "type": "function"
    },
    {
      "inputs": [
        {
          "internalType": "address",
          "name": "operator",
          "type": "address"
        },
        {
          "internalType": "bool",
          "name": "approved",
          "type": "bool"
        }
      ],
      "name": "setApprovalForAll",
      "outputs": [],
      "stateMutability": "nonpayable",
      "type": "function"
    },
    {
      "inputs": [
        {
          "internalType": "string",
          "name": "_newBaseExtension",
          "type": "string"
        }
      ],
      "name": "setBaseExtension",
      "outputs": [],
      "stateMutability": "nonpayable",
      "type": "function"
    },
    {
      "inputs": [
        {
          "internalType": "string",
          "name": "_newBaseURI",
          "type": "string"
        }
      ],
      "name": "setBaseURI",
      "outputs": [],
      "stateMutability": "nonpayable",
      "type": "function"
    },
    {
      "inputs": [
        {
          "internalType": "uint256",
          "name": "_newCost",
          "type": "uint256"
        }
      ],
      "name": "setCost",
      "outputs": [],
      "stateMutability": "nonpayable",
      "type": "function"
    },
    {
      "inputs": [
        {
          "internalType": "uint256",
          "name": "_limit",
          "type": "uint256"
        }
      ],
      "name": "setNftPerAddressLimit",
      "outputs": [],
      "stateMutability": "nonpayable",
      "type": "function"
    },
    {
      "inputs": [
        {
          "internalType": "string",
          "name": "_notRevealedURI",
          "type": "string"
        }
      ],
      "name": "setNotRevealedURI",
      "outputs": [],
      "stateMutability": "nonpayable",
      "type": "function"
    },
    {
      "inputs": [
        {
          "internalType": "bool",
          "name": "_state",
          "type": "bool"
        }
      ],
      "name": "setOnlyWhitelisted",
      "outputs": [],
      "stateMutability": "nonpayable",
      "type": "function"
    },
    {
      "inputs": [
        {
          "internalType": "uint256",
          "name": "_newmaxMintAmount",
          "type": "uint256"
        }
      ],
      "name": "setmaxMintAmount",
      "outputs": [],
      "stateMutability": "nonpayable",
      "type": "function"
    },
    {
      "inputs": [
        {
          "internalType": "bytes4",
          "name": "interfaceId",
          "type": "bytes4"
        }
      ],
      "name": "supportsInterface",
      "outputs": [
        {
          "internalType": "bool",
          "name": "",
          "type": "bool"
        }
      ],
      "stateMutability": "view",
      "type": "function"
    },
    {
      "inputs": [],
      "name": "symbol",
      "outputs": [
        {
          "internalType": "string",
          "name": "",
          "type": "string"
        }
      ],
      "stateMutability": "view",
      "type": "function"
    },
    {
      "inputs": [
        {
          "internalType": "uint256",
          "name": "index",
          "type": "uint256"
        }
      ],
      "name": "tokenByIndex",
      "outputs": [
        {
          "internalType": "uint256",
          "name": "",
          "type": "uint256"
        }
      ],
      "stateMutability": "view",
      "type": "function"
    },
    {
      "inputs": [
        {
          "internalType": "address",
          "name": "owner",
          "type": "address"
        },
        {
          "internalType": "uint256",
          "name": "index",
          "type": "uint256"
        }
      ],
      "name": "tokenOfOwnerByIndex",
      "outputs": [
        {
          "internalType": "uint256",
          "name": "",
          "type": "uint256"
        }
      ],
      "stateMutability": "view",
      "type": "function"
    },
    {
      "inputs": [
        {
          "internalType": "uint256",
          "name": "tokenId",
          "type": "uint256"
        }
      ],
      "name": "tokenURI",
      "outputs": [
        {
          "internalType": "string",
          "name": "",
          "type": "string"
        }
      ],
      "stateMutability": "view",
      "type": "function"
    },
    {
      "inputs": [],
      "name": "totalSupply",
      "outputs": [
        {
          "internalType": "uint256",
          "name": "",
          "type": "uint256"
        }
      ],
      "stateMutability": "view",
      "type": "function"
    },
    {
      "inputs": [
        {
          "internalType": "address",
          "name": "from",
          "type": "address"
        },
        {
          "internalType": "address",
          "name": "to",
          "type": "address"
        },
        {
          "internalType": "uint256",
          "name": "tokenId",
          "type": "uint256"
        }
      ],
      "name": "transferFrom",
      "outputs": [],
      "stateMutability": "nonpayable",
      "type": "function"
    },
    {
      "inputs": [
        {
          "internalType": "address",
          "name": "newOwner",
          "type": "address"
        }
      ],
      "name": "transferOwnership",
      "outputs": [],
      "stateMutability": "nonpayable",
      "type": "function"
    },
    {
      "inputs": [
        {
          "internalType": "address",
          "name": "_owner",
          "type": "address"
        }
      ],
      "name": "walletOfOwner",
      "outputs": [
        {
          "internalType": "uint256[]",
          "name": "",
          "type": "uint256[]"
        }
      ],
      "stateMutability": "view",
      "type": "function"
    },
    {
      "inputs": [
        {
          "internalType": "address[]",
          "name": "_users",
          "type": "address[]"
        }
      ],
      "name": "whitelistUsers",
      "outputs": [],
      "stateMutability": "nonpayable",
      "type": "function"
    },
    {
      "inputs": [
        {
          "internalType": "uint256",
          "name": "",
          "type": "uint256"
        }
      ],
      "name": "whitelistedAddresses",
      "outputs": [
        {
          "internalType": "address",
          "name": "",
          "type": "address"
        }
      ],
      "stateMutability": "view",
      "type": "function"
    },
    {
      "inputs": [],
      "name": "withdraw",
      "outputs": [],
      "stateMutability": "payable",
      "type": "function"
    }
  ],
  "bytecode": {
    "object": "60c06040526005608081905264173539b7b760d91b60a09081526200002891600c91906200020a565b5066f8b0a10e470000600e55612710600f55600a60105560146011556012805462ffffff1916620100001790553480156200006257600080fd5b506040516200309238038062003092833981016040819052620000859162000367565b8351849084906200009e9060009060208501906200020a565b508051620000b49060019060208401906200020a565b505050620000d1620000cb620000f160201b60201c565b620000f5565b620000dc8262000147565b620000e781620001af565b5050505062000473565b3390565b600a80546001600160a01b038381166001600160a01b0319831681179093556040519116919082907f8be0079c531659141344cd1fd0a4f28419497f9722a3daafe3b4186f6b6457e090600090a35050565b600a546001600160a01b03163314620001965760405162461bcd60e51b815260206004820181905260248201526000805160206200307283398151915260448201526064015b60405180910390fd5b8051620001ab90600b9060208401906200020a565b5050565b600a546001600160a01b03163314620001fa5760405162461bcd60e51b815260206004820181905260248201526000805160206200307283398151915260448201526064016200018d565b8051620001ab90600d9060208401905b828054620002189062000420565b90600052602060002090601f0160209004810192826200023c576000855562000287565b82601f106200025757805160ff191683800117855562000287565b8280016001018555821562000287579182015b82811115620002875782518255916020019190600101906200026a565b506200029592915062000299565b5090565b5b808211156200029557600081556001016200029a565b600082601f830112620002c257600080fd5b81516001600160401b0380821115620002df57620002df6200045d565b604051601f8301601f19908116603f011681019082821181831017156200030a576200030a6200045d565b816040528381526020925086838588010111156200032757600080fd5b600091505b838210156200034b57858201830151818301840152908201906200032c565b838211156200035d5760008385830101525b9695505050505050565b600080600080608085870312156200037e57600080fd5b84516001600160401b03808211156200039657600080fd5b620003a488838901620002b0565b95506020870151915080821115620003bb57600080fd5b620003c988838901620002b0565b94506040870151915080821115620003e057600080fd5b620003ee88838901620002b0565b935060608701519150808211156200040557600080fd5b506200041487828801620002b0565b91505092959194509250565b600181811c908216806200043557607f821691505b602082108114156200045757634e487b7160e01b600052602260045260246000fd5b50919050565b634e487b7160e01b600052604160045260246000fd5b612bef80620004836000396000f3fe6080604052600436106102885760003560e01c80636352211e1161015a578063b88d4fde116100c1578063d5abeb011161007a578063d5abeb011461076d578063da3ef23f14610783578063e985e9c5146107a3578063edec5f27146107ec578063f2c4ce1e1461080c578063f2fde38b1461082c57600080fd5b8063b88d4fde146106c2578063ba4e5c49146106e2578063ba7d2c7614610702578063c668286214610718578063c87b56dd1461072d578063d0eb26b01461074d57600080fd5b806395d89b411161011357806395d89b41146106255780639c70b5121461063a578063a0712d681461065a578063a22cb4651461066d578063a475b5dd1461068d578063acca7295146106a257600080fd5b80636352211e1461057d5780636c0360eb1461059d57806370a08231146105b2578063715018a6146105d25780637f00c7a6146105e75780638da5cb5b1461060757600080fd5b80632f745c59116101fe57806344a0d68a116101b757806344a0d68a146104c45780634f6ccce7146104e4578063518302271461050457806355f804b3146105235780635c975abb146105435780636059e9851461055d57600080fd5b80632f745c591461040f5780633af32abf1461042f5780633c9527641461044f5780633ccfd60b1461046f57806342842e0e14610477578063438b63001461049757600080fd5b8063095ea7b311610250578063095ea7b31461035357806313faede61461037357806318160ddd1461039757806318cae269146103ac578063239c70ae146103d957806323b872dd146103ef57600080fd5b806301ffc9a71461028d57806302329a29146102c257806306fdde03146102e4578063081812fc14610306578063081c8c441461033e575b600080fd5b34801561029957600080fd5b506102ad6102a8366004612745565b61084c565b60405190151581526020015b60405180910390f35b3480156102ce57600080fd5b506102e26102dd36600461272a565b610877565b005b3480156102f057600080fd5b506102f96108bd565b6040516102b99190612952565b34801561031257600080fd5b506103266103213660046127c8565b61094f565b6040516001600160a01b0390911681526020016102b9565b34801561034a57600080fd5b506102f96109e4565b34801561035f57600080fd5b506102e261036e36600461268b565b610a72565b34801561037f57600080fd5b50610389600e5481565b6040519081526020016102b9565b3480156103a357600080fd5b50600854610389565b3480156103b857600080fd5b506103896103c736600461255b565b60146020526000908152604090205481565b3480156103e557600080fd5b5061038960105481565b3480156103fb57600080fd5b506102e261040a3660046125a9565b610b88565b34801561041b57600080fd5b5061038961042a36600461268b565b610bb9565b34801561043b57600080fd5b506102ad61044a36600461255b565b610c4f565b34801561045b57600080fd5b506102e261046a36600461272a565b610cb9565b6102e2610cff565b34801561048357600080fd5b506102e26104923660046125a9565b610d9d565b3480156104a357600080fd5b506104b76104b236600461255b565b610db8565b6040516102b9919061290e565b3480156104d057600080fd5b506102e26104df3660046127c8565b610e5a565b3480156104f057600080fd5b506103896104ff3660046127c8565b610e89565b34801561051057600080fd5b506012546102ad90610100900460ff1681565b34801561052f57600080fd5b506102e261053e36600461277f565b610f1c565b34801561054f57600080fd5b506012546102ad9060ff1681565b34801561056957600080fd5b506102e261057836600461255b565b610f5d565b34801561058957600080fd5b506103266105983660046127c8565b611033565b3480156105a957600080fd5b506102f96110aa565b3480156105be57600080fd5b506103896105cd36600461255b565b6110b7565b3480156105de57600080fd5b506102e261113e565b3480156105f357600080fd5b506102e26106023660046127c8565b611174565b34801561061357600080fd5b50600a546001600160a01b0316610326565b34801561063157600080fd5b506102f96111a3565b34801561064657600080fd5b506012546102ad9062010000900460ff1681565b6102e26106683660046127c8565b6111b2565b34801561067957600080fd5b506102e2610688366004612661565b611499565b34801561069957600080fd5b506102e26114a4565b3480156106ae57600080fd5b506102e26106bd36600461255b565b6114df565b3480156106ce57600080fd5b506102e26106dd3660046125e5565b61158d565b3480156106ee57600080fd5b506103266106fd3660046127c8565b6115c5565b34801561070e57600080fd5b5061038960115481565b34801561072457600080fd5b506102f96115ef565b34801561073957600080fd5b506102f96107483660046127c8565b6115fc565b34801561075957600080fd5b506102e26107683660046127c8565b61177b565b34801561077957600080fd5b50610389600f5481565b34801561078f57600080fd5b506102e261079e36600461277f565b6117aa565b3480156107af57600080fd5b506102ad6107be366004612576565b6001600160a01b03918216600090815260056020908152604080832093909416825291909152205460ff1690565b3480156107f857600080fd5b506102e26108073660046126b5565b6117e7565b34801561081857600080fd5b506102e261082736600461277f565b611829565b34801561083857600080fd5b506102e261084736600461255b565b611866565b60006001600160e01b0319821663780e9d6360e01b14806108715750610871826118fe565b92915050565b600a546001600160a01b031633146108aa5760405162461bcd60e51b81526004016108a1906129b7565b60405180910390fd5b6012805460ff1916911515919091179055565b6060600080546108cc90612acb565b80601f01602080910402602001604051908101604052809291908181526020018280546108f890612acb565b80156109455780601f1061091a57610100808354040283529160200191610945565b820191906000526020600020905b81548152906001019060200180831161092857829003601f168201915b5050505050905090565b6000818152600260205260408120546001600160a01b03166109c85760405162461bcd60e51b815260206004820152602c60248201527f4552433732313a20617070726f76656420717565727920666f72206e6f6e657860448201526b34b9ba32b73a103a37b5b2b760a11b60648201526084016108a1565b506000908152600460205260409020546001600160a01b031690565b600d80546109f190612acb565b80601f0160208091040260200160405190810160405280929190818152602001828054610a1d90612acb565b8015610a6a5780601f10610a3f57610100808354040283529160200191610a6a565b820191906000526020600020905b815481529060010190602001808311610a4d57829003601f168201915b505050505081565b6000610a7d82611033565b9050806001600160a01b0316836001600160a01b03161415610aeb5760405162461bcd60e51b815260206004820152602160248201527f4552433732313a20617070726f76616c20746f2063757272656e74206f776e656044820152603960f91b60648201526084016108a1565b336001600160a01b0382161480610b075750610b0781336107be565b610b795760405162461bcd60e51b815260206004820152603860248201527f4552433732313a20617070726f76652063616c6c6572206973206e6f74206f7760448201527f6e6572206e6f7220617070726f76656420666f7220616c6c000000000000000060648201526084016108a1565b610b83838361194e565b505050565b610b9233826119bc565b610bae5760405162461bcd60e51b81526004016108a1906129ec565b610b83838383611ab3565b6000610bc4836110b7565b8210610c265760405162461bcd60e51b815260206004820152602b60248201527f455243373231456e756d657261626c653a206f776e657220696e646578206f7560448201526a74206f6620626f756e647360a81b60648201526084016108a1565b506001600160a01b03919091166000908152600660209081526040808320938352929052205490565b6000805b601354811015610cb057826001600160a01b031660138281548110610c7a57610c7a612b77565b6000918252602090912001546001600160a01b03161415610c9e5750600192915050565b80610ca881612b06565b915050610c53565b50600092915050565b600a546001600160a01b03163314610ce35760405162461bcd60e51b81526004016108a1906129b7565b60128054911515620100000262ff000019909216919091179055565b600a546001600160a01b03163314610d295760405162461bcd60e51b81526004016108a1906129b7565b6000610d3d600a546001600160a01b031690565b6001600160a01b03164760405160006040518083038185875af1925050503d8060008114610d87576040519150601f19603f3d011682016040523d82523d6000602084013e610d8c565b606091505b5050905080610d9a57600080fd5b50565b610b838383836040518060200160405280600081525061158d565b60606000610dc5836110b7565b905060008167ffffffffffffffff811115610de257610de2612b8d565b604051908082528060200260200182016040528015610e0b578160200160208202803683370190505b50905060005b82811015610e5257610e238582610bb9565b828281518110610e3557610e35612b77565b602090810291909101015280610e4a81612b06565b915050610e11565b509392505050565b600a546001600160a01b03163314610e845760405162461bcd60e51b81526004016108a1906129b7565b600e55565b6000610e9460085490565b8210610ef75760405162461bcd60e51b815260206004820152602c60248201527f455243373231456e756d657261626c653a20676c6f62616c20696e646578206f60448201526b7574206f6620626f756e647360a01b60648201526084016108a1565b60088281548110610f0a57610f0a612b77565b90600052602060002001549050919050565b600a546001600160a01b03163314610f465760405162461bcd60e51b81526004016108a1906129b7565b8051610f5990600b9060208401906123af565b5050565b600a546001600160a01b03163314610f875760405162461bcd60e51b81526004016108a1906129b7565b60005b601354811015610fe257816001600160a01b031660138281548110610fb157610fb1612b77565b6000918252602090912001546001600160a01b03161415610fd0575050565b80610fda81612b06565b915050610f8a565b50601380546001810182556000919091527f66de8ffda797e3de9c05e8fc57b3bf0ec28a930d40b0d285d93c06501cf6a0900180546001600160a01b0383166001600160a01b031990911617905550565b6000818152600260205260408120546001600160a01b0316806108715760405162461bcd60e51b815260206004820152602960248201527f4552433732313a206f776e657220717565727920666f72206e6f6e657869737460448201526832b73a103a37b5b2b760b91b60648201526084016108a1565b600b80546109f190612acb565b60006001600160a01b0382166111225760405162461bcd60e51b815260206004820152602a60248201527f4552433732313a2062616c616e636520717565727920666f7220746865207a65604482015269726f206164647265737360b01b60648201526084016108a1565b506001600160a01b031660009081526003602052604090205490565b600a546001600160a01b031633146111685760405162461bcd60e51b81526004016108a1906129b7565b6111726000611c5e565b565b600a546001600160a01b0316331461119e5760405162461bcd60e51b81526004016108a1906129b7565b601055565b6060600180546108cc90612acb565b60125460ff16156111fe5760405162461bcd60e51b81526020600482015260166024820152751d1a194818dbdb9d1c9858dd081a5cc81c185d5cd95960521b60448201526064016108a1565b600061120960085490565b90506000821161125b5760405162461bcd60e51b815260206004820152601b60248201527f6e65656420746f206d696e74206174206c656173742031204e4654000000000060448201526064016108a1565b6010548211156112b95760405162461bcd60e51b8152602060048201526024808201527f6d6178206d696e7420616d6f756e74207065722073657373696f6e20657863656044820152631959195960e21b60648201526084016108a1565b600f546112c68383612a3d565b111561130d5760405162461bcd60e51b81526020600482015260166024820152751b585e08139195081b1a5b5a5d08195e18d95959195960521b60448201526064016108a1565b600a546001600160a01b031633146114495760125462010000900460ff161515600114156113f75761133e33610c4f565b61138a5760405162461bcd60e51b815260206004820152601760248201527f75736572206973206e6f742077686974656c697374656400000000000000000060448201526064016108a1565b336000908152601460205260409020546011546113a78483612a3d565b11156113f55760405162461bcd60e51b815260206004820152601c60248201527f6d6178204e46542070657220616464726573732065786365656465640000000060448201526064016108a1565b505b81600e546114059190612a69565b3410156114495760405162461bcd60e51b8152602060048201526012602482015271696e73756666696369656e742066756e647360701b60448201526064016108a1565b60015b828111610b835733600090815260146020526040812080549161146e83612b06565b909155506114879050336114828385612a3d565b611cb0565b8061149181612b06565b91505061144c565b610f59338383611cca565b600a546001600160a01b031633146114ce5760405162461bcd60e51b81526004016108a1906129b7565b6012805461ff001916610100179055565b600a546001600160a01b031633146115095760405162461bcd60e51b81526004016108a1906129b7565b60005b601354811015610f5957816001600160a01b03166013828154811061153357611533612b77565b6000918252602090912001546001600160a01b0316141561157b576013818154811061156157611561612b77565b600091825260209091200180546001600160a01b03191690555b8061158581612b06565b91505061150c565b61159733836119bc565b6115b35760405162461bcd60e51b81526004016108a1906129ec565b6115bf84848484611d99565b50505050565b601381815481106115d557600080fd5b6000918252602090912001546001600160a01b0316905081565b600c80546109f190612acb565b6000818152600260205260409020546060906001600160a01b031661167b5760405162461bcd60e51b815260206004820152602f60248201527f4552433732314d657461646174613a2055524920717565727920666f72206e6f60448201526e3732bc34b9ba32b73a103a37b5b2b760891b60648201526084016108a1565b601254610100900460ff1661171c57600d805461169790612acb565b80601f01602080910402602001604051908101604052809291908181526020018280546116c390612acb565b80156117105780601f106116e557610100808354040283529160200191611710565b820191906000526020600020905b8154815290600101906020018083116116f357829003601f168201915b50505050509050919050565b6000611726611dcc565b905060008151116117465760405180602001604052806000815250611774565b8061175084611ddb565b600c6040516020016117649392919061280d565b6040516020818303038152906040525b9392505050565b600a546001600160a01b031633146117a55760405162461bcd60e51b81526004016108a1906129b7565b601155565b600a546001600160a01b031633146117d45760405162461bcd60e51b81526004016108a1906129b7565b8051610f5990600c9060208401906123af565b600a546001600160a01b031633146118115760405162461bcd60e51b81526004016108a1906129b7565b61181d60136000612433565b610b8360138383612451565b600a546001600160a01b031633146118535760405162461bcd60e51b81526004016108a1906129b7565b8051610f5990600d9060208401906123af565b600a546001600160a01b031633146118905760405162461bcd60e51b81526004016108a1906129b7565b6001600160a01b0381166118f55760405162461bcd60e51b815260206004820152602660248201527f4f776e61626c653a206e6577206f776e657220697320746865207a65726f206160448201526564647265737360d01b60648201526084016108a1565b610d9a81611c5e565b60006001600160e01b031982166380ac58cd60e01b148061192f57506001600160e01b03198216635b5e139f60e01b145b8061087157506301ffc9a760e01b6001600160e01b0319831614610871565b600081815260046020526040902080546001600160a01b0319166001600160a01b038416908117909155819061198382611033565b6001600160a01b03167f8c5be1e5ebec7d5bd14f71427d1e84f3dd0314c0f7b2291e5b200ac8c7c3b92560405160405180910390a45050565b6000818152600260205260408120546001600160a01b0316611a355760405162461bcd60e51b815260206004820152602c60248201527f4552433732313a206f70657261746f7220717565727920666f72206e6f6e657860448201526b34b9ba32b73a103a37b5b2b760a11b60648201526084016108a1565b6000611a4083611033565b9050806001600160a01b0316846001600160a01b03161480611a7b5750836001600160a01b0316611a708461094f565b6001600160a01b0316145b80611aab57506001600160a01b0380821660009081526005602090815260408083209388168352929052205460ff165b949350505050565b826001600160a01b0316611ac682611033565b6001600160a01b031614611b2e5760405162461bcd60e51b815260206004820152602960248201527f4552433732313a207472616e73666572206f6620746f6b656e2074686174206960448201526839903737ba1037bbb760b91b60648201526084016108a1565b6001600160a01b038216611b905760405162461bcd60e51b8152602060048201526024808201527f4552433732313a207472616e7366657220746f20746865207a65726f206164646044820152637265737360e01b60648201526084016108a1565b611b9b838383611ed9565b611ba660008261194e565b6001600160a01b0383166000908152600360205260408120805460019290611bcf908490612a88565b90915550506001600160a01b0382166000908152600360205260408120805460019290611bfd908490612a3d565b909155505060008181526002602052604080822080546001600160a01b0319166001600160a01b0386811691821790925591518493918716917fddf252ad1be2c89b69c2b068fc378daa952ba7f163c4a11628f55a4df523b3ef91a4505050565b600a80546001600160a01b038381166001600160a01b0319831681179093556040519116919082907f8be0079c531659141344cd1fd0a4f28419497f9722a3daafe3b4186f6b6457e090600090a35050565b610f59828260405180602001604052806000815250611f91565b816001600160a01b0316836001600160a01b03161415611d2c5760405162461bcd60e51b815260206004820152601960248201527f4552433732313a20617070726f766520746f2063616c6c65720000000000000060448201526064016108a1565b6001600160a01b03838116600081815260056020908152604080832094871680845294825291829020805460ff191686151590811790915591519182527f17307eab39ab6107e8899845ad3d59bd9653f200f220920489ca2b5937696c31910160405180910390a3505050565b611da4848484611ab3565b611db084848484611fc4565b6115bf5760405162461bcd60e51b81526004016108a190612965565b6060600b80546108cc90612acb565b606081611dff5750506040805180820190915260018152600360fc1b602082015290565b8160005b8115611e295780611e1381612b06565b9150611e229050600a83612a55565b9150611e03565b60008167ffffffffffffffff811115611e4457611e44612b8d565b6040519080825280601f01601f191660200182016040528015611e6e576020820181803683370190505b5090505b8415611aab57611e83600183612a88565b9150611e90600a86612b21565b611e9b906030612a3d565b60f81b818381518110611eb057611eb0612b77565b60200101906001600160f81b031916908160001a905350611ed2600a86612a55565b9450611e72565b6001600160a01b038316611f3457611f2f81600880546000838152600960205260408120829055600182018355919091527ff3f7a9fe364faab93b216da50a3214154f22a0a2b415b23a84c8169e8b636ee30155565b611f57565b816001600160a01b0316836001600160a01b031614611f5757611f5783826120d1565b6001600160a01b038216611f6e57610b838161216e565b826001600160a01b0316826001600160a01b031614610b8357610b83828261221d565b611f9b8383612261565b611fa86000848484611fc4565b610b835760405162461bcd60e51b81526004016108a190612965565b60006001600160a01b0384163b156120c657604051630a85bd0160e11b81526001600160a01b0385169063150b7a02906120089033908990889088906004016128d1565b602060405180830381600087803b15801561202257600080fd5b505af1925050508015612052575060408051601f3d908101601f1916820190925261204f91810190612762565b60015b6120ac573d808015612080576040519150601f19603f3d011682016040523d82523d6000602084013e612085565b606091505b5080516120a45760405162461bcd60e51b81526004016108a190612965565b805181602001fd5b6001600160e01b031916630a85bd0160e11b149050611aab565b506001949350505050565b600060016120de846110b7565b6120e89190612a88565b60008381526007602052604090205490915080821461213b576001600160a01b03841660009081526006602090815260408083208584528252808320548484528184208190558352600790915290208190555b5060009182526007602090815260408084208490556001600160a01b039094168352600681528383209183525290812055565b60085460009061218090600190612a88565b600083815260096020526040812054600880549394509092849081106121a8576121a8612b77565b9060005260206000200154905080600883815481106121c9576121c9612b77565b600091825260208083209091019290925582815260099091526040808220849055858252812055600880548061220157612201612b61565b6001900381819060005260206000200160009055905550505050565b6000612228836110b7565b6001600160a01b039093166000908152600660209081526040808320868452825280832085905593825260079052919091209190915550565b6001600160a01b0382166122b75760405162461bcd60e51b815260206004820181905260248201527f4552433732313a206d696e7420746f20746865207a65726f206164647265737360448201526064016108a1565b6000818152600260205260409020546001600160a01b03161561231c5760405162461bcd60e51b815260206004820152601c60248201527f4552433732313a20746f6b656e20616c7265616479206d696e7465640000000060448201526064016108a1565b61232860008383611ed9565b6001600160a01b0382166000908152600360205260408120805460019290612351908490612a3d565b909155505060008181526002602052604080822080546001600160a01b0319166001600160a01b03861690811790915590518392907fddf252ad1be2c89b69c2b068fc378daa952ba7f163c4a11628f55a4df523b3ef908290a45050565b8280546123bb90612acb565b90600052602060002090601f0160209004810192826123dd5760008555612423565b82601f106123f657805160ff1916838001178555612423565b82800160010185558215612423579182015b82811115612423578251825591602001919060010190612408565b5061242f9291506124a4565b5090565b5080546000825590600052602060002090810190610d9a91906124a4565b828054828255906000526020600020908101928215612423579160200282015b828111156124235781546001600160a01b0319166001600160a01b03843516178255602090920191600190910190612471565b5b8082111561242f57600081556001016124a5565b600067ffffffffffffffff808411156124d4576124d4612b8d565b604051601f8501601f19908116603f011681019082821181831017156124fc576124fc612b8d565b8160405280935085815286868601111561251557600080fd5b858560208301376000602087830101525050509392505050565b80356001600160a01b038116811461254657600080fd5b919050565b8035801515811461254657600080fd5b60006020828403121561256d57600080fd5b6117748261252f565b6000806040838503121561258957600080fd5b6125928361252f565b91506125a06020840161252f565b90509250929050565b6000806000606084860312156125be57600080fd5b6125c78461252f565b92506125d56020850161252f565b9150604084013590509250925092565b600080600080608085870312156125fb57600080fd5b6126048561252f565b93506126126020860161252f565b925060408501359150606085013567ffffffffffffffff81111561263557600080fd5b8501601f8101871361264657600080fd5b612655878235602084016124b9565b91505092959194509250565b6000806040838503121561267457600080fd5b61267d8361252f565b91506125a06020840161254b565b6000806040838503121561269e57600080fd5b6126a78361252f565b946020939093013593505050565b600080602083850312156126c857600080fd5b823567ffffffffffffffff808211156126e057600080fd5b818501915085601f8301126126f457600080fd5b81358181111561270357600080fd5b8660208260051b850101111561271857600080fd5b60209290920196919550909350505050565b60006020828403121561273c57600080fd5b6117748261254b565b60006020828403121561275757600080fd5b813561177481612ba3565b60006020828403121561277457600080fd5b815161177481612ba3565b60006020828403121561279157600080fd5b813567ffffffffffffffff8111156127a857600080fd5b8201601f810184136127b957600080fd5b611aab848235602084016124b9565b6000602082840312156127da57600080fd5b5035919050565b600081518084526127f9816020860160208601612a9f565b601f01601f19169290920160200192915050565b6000845160206128208285838a01612a9f565b8551918401916128338184848a01612a9f565b8554920191600090600181811c908083168061285057607f831692505b85831081141561286e57634e487b7160e01b85526022600452602485fd5b8080156128825760018114612893576128c0565b60ff198516885283880195506128c0565b60008b81526020902060005b858110156128b85781548a82015290840190880161289f565b505083880195505b50939b9a5050505050505050505050565b6001600160a01b0385811682528416602082015260408101839052608060608201819052600090612904908301846127e1565b9695505050505050565b6020808252825182820181905260009190848201906040850190845b818110156129465783518352928401929184019160010161292a565b50909695505050505050565b60208152600061177460208301846127e1565b60208082526032908201527f4552433732313a207472616e7366657220746f206e6f6e20455243373231526560408201527131b2b4bb32b91034b6b83632b6b2b73a32b960711b606082015260800190565b6020808252818101527f4f776e61626c653a2063616c6c6572206973206e6f7420746865206f776e6572604082015260600190565b60208082526031908201527f4552433732313a207472616e736665722063616c6c6572206973206e6f74206f6040820152701ddb995c881b9bdc88185c1c1c9bdd9959607a1b606082015260800190565b60008219821115612a5057612a50612b35565b500190565b600082612a6457612a64612b4b565b500490565b6000816000190483118215151615612a8357612a83612b35565b500290565b600082821015612a9a57612a9a612b35565b500390565b60005b83811015612aba578181015183820152602001612aa2565b838111156115bf5750506000910152565b600181811c90821680612adf57607f821691505b60208210811415612b0057634e487b7160e01b600052602260045260246000fd5b50919050565b6000600019821415612b1a57612b1a612b35565b5060010190565b600082612b3057612b30612b4b565b500690565b634e487b7160e01b600052601160045260246000fd5b634e487b7160e01b600052601260045260246000fd5b634e487b7160e01b600052603160045260246000fd5b634e487b7160e01b600052603260045260246000fd5b634e487b7160e01b600052604160045260246000fd5b6001600160e01b031981168114610d9a57600080fdfea2646970667358221220c1567790dc878bf256fa03eb8f4270216901ad8bd9143930e7f65fee028280b264736f6c634300080700334f776e61626c653a2063616c6c6572206973206e6f7420746865206f776e6572"
  }
}