{
  "opcodeHash": "0xa15c8ab2a28101234ed3776a24911c573d5a3935fe1a6f42babbd3b79c4828c3",
  "metalessHash": "0xece140d7183de07fbdb1b03a6b6ad40329d3ce442ed05d52a1e9a1408ccf2a79",
  "runtimeHash": "0x5065c26e1411bfcdc62bdaa5a7020c726a2a36529f773de4796f7ed0da31f931",
  "encodedMetadata": [
    {
      "ipfs": "/ipfs/Qma7yVmvz9H78SUB7yjDm47Bj8E55k2cwWbvm3wVqtZH3D",
      "solc": "0.6.12"
    }
  ],
  "abi": [
    {
      "anonymous": false,
      "inputs": [
        {
          "indexed": true,
          "internalType": "address",
          "name": "previousGovernor",
          "type": "address"
        },
        {
          "indexed": true,
          "internalType": "address",
          "name": "newGovernor",
          "type": "address"
        }
      ],
      "name": "GovernorshipTransferred",
      "type": "event"
    },
    {
      "inputs": [
        {
          "internalType": "address",
          "name": "pool",
          "type": "address"
        },
        {
          "internalType": "uint256",
          "name": "amount",
          "type": "uint256"
        }
      ],
      "name": "approvePool",
      "outputs": [],
      "stateMutability": "nonpayable",
      "type": "function"
    },
    {
      "inputs": [
        {
          "internalType": "bytes32",
          "name": "key",
          "type": "bytes32"
        },
        {
          "internalType": "address",
          "name": "addr",
          "type": "address"
        }
      ],
      "name": "getConfig",
      "outputs": [
        {
          "internalType": "uint256",
          "name": "",
          "type": "uint256"
        }
      ],
      "stateMutability": "view",
      "type": "function"
    },
    {
      "inputs": [
        {
          "internalType": "bytes32",
          "name": "key",
          "type": "bytes32"
        }
      ],
      "name": "getConfig",
      "outputs": [
        {
          "internalType": "uint256",
          "name": "",
          "type": "uint256"
        }
      ],
      "stateMutability": "view",
      "type": "function"
    },
    {
      "inputs": [
        {
          "internalType": "bytes32",
          "name": "key",
          "type": "bytes32"
        },
        {
          "internalType": "uint256",
          "name": "index",
          "type": "uint256"
        }
      ],
      "name": "getConfig",
      "outputs": [
        {
          "internalType": "uint256",
          "name": "",
          "type": "uint256"
        }
      ],
      "stateMutability": "view",
      "type": "function"
    },
    {
      "inputs": [],
      "name": "governor",
      "outputs": [
        {
          "internalType": "address",
          "name": "",
          "type": "address"
        }
      ],
      "stateMutability": "view",
      "type": "function"
    },
    {
      "inputs": [
        {
          "internalType": "address",
          "name": "governor",
          "type": "address"
        },
        {
          "internalType": "address",
          "name": "_rewardsToken",
          "type": "address"
        }
      ],
      "name": "initialize",
      "outputs": [],
      "stateMutability": "nonpayable",
      "type": "function"
    },
    {
      "inputs": [
        {
          "internalType": "address",
          "name": "governor_",
          "type": "address"
        }
      ],
      "name": "initialize",
      "outputs": [],
      "stateMutability": "nonpayable",
      "type": "function"
    },
    {
      "inputs": [],
      "name": "renounceGovernorship",
      "outputs": [],
      "stateMutability": "nonpayable",
      "type": "function"
    },
    {
      "inputs": [],
      "name": "rewardsToken",
      "outputs": [
        {
          "internalType": "address",
          "name": "",
          "type": "address"
        }
      ],
      "stateMutability": "view",
      "type": "function"
    },
    {
      "inputs": [
        {
          "internalType": "bytes32",
          "name": "key",
          "type": "bytes32"
        },
        {
          "internalType": "uint256",
          "name": "value",
          "type": "uint256"
        }
      ],
      "name": "setConfig",
      "outputs": [],
      "stateMutability": "nonpayable",
      "type": "function"
    },
    {
      "inputs": [
        {
          "internalType": "bytes32",
          "name": "key",
          "type": "bytes32"
        },
        {
          "internalType": "address",
          "name": "addr",
          "type": "address"
        },
        {
          "internalType": "uint256",
          "name": "value",
          "type": "uint256"
        }
      ],
      "name": "setConfig",
      "outputs": [],
      "stateMutability": "nonpayable",
      "type": "function"
    },
    {
      "inputs": [
        {
          "internalType": "bytes32",
          "name": "key",
          "type": "bytes32"
        },
        {
          "internalType": "uint256",
          "name": "index",
          "type": "uint256"
        },
        {
          "internalType": "uint256",
          "name": "value",
          "type": "uint256"
        }
      ],
      "name": "setConfig",
      "outputs": [],
      "stateMutability": "nonpayable",
      "type": "function"
    },
    {
      "inputs": [
        {
          "internalType": "address",
          "name": "newGovernor",
          "type": "address"
        }
      ],
      "name": "transferGovernorship",
      "outputs": [],
      "stateMutability": "nonpayable",
      "type": "function"
    }
  ],
  "bytecode": {
    "object": "608060405234801561001057600080fd5b50610755806100206000396000f3fe608060405234801561001057600080fd5b50600436106100cf5760003560e01c80638ec872e31161008c578063c4d66de811610066578063c4d66de814610229578063cddf2c6e1461024f578063d1af0c7d1461027b578063ddf2be3f14610283576100cf565b80638ec872e3146101ae578063b21544f3146101d1578063b6aa515b14610203576100cf565b80630c340a24146100d457806315fe96dc146100f8578063485cc9551461011d57806352665f471461014b5780636dd5b69d1461018957806381c0c263146101a6575b600080fd5b6100dc6102ac565b604080516001600160a01b039092168252519081900360200190f35b61011b6004803603604081101561010e57600080fd5b50803590602001356102bb565b005b61011b6004803603604081101561013357600080fd5b506001600160a01b03813581169160200135166102e0565b6101776004803603604081101561016157600080fd5b50803590602001356001600160a01b03166103a8565b60408051918252519081900360200190f35b6101776004803603602081101561019f57600080fd5b50356103c4565b61011b6103d6565b610177600480360360408110156101c457600080fd5b5080359060200135610437565b61011b600480360360608110156101e757600080fd5b508035906001600160a01b03602082013516906040013561044a565b61011b6004803603602081101561021957600080fd5b50356001600160a01b0316610476565b61011b6004803603602081101561023f57600080fd5b50356001600160a01b0316610499565b61011b6004803603604081101561026557600080fd5b506001600160a01b03813516906020013561058a565b6100dc610627565b61011b6004803603606081101561029957600080fd5b5080359060208101359060400135610636565b6033546001600160a01b031681565b6033546001600160a01b031633146102d257600080fd5b6102dc8282610655565b5050565b600054610100900460ff16806102f957506102f961067c565b80610307575060005460ff16155b6103425760405162461bcd60e51b815260040180806020018281038252602e8152602001806106f2602e913960400191505060405180910390fd5b600054610100900460ff1615801561036d576000805460ff1961ff0019909116610100171660011790555b61037683610499565b603580546001600160a01b0319166001600160a01b03841617905580156103a3576000805461ff00191690555b505050565b6001600160a01b03161860009081526034602052604090205490565b60009081526034602052604090205490565b6033546001600160a01b031633146103ed57600080fd5b6033546040516000916001600160a01b0316907fc7c0c772add429241571afb3805861fb3cfa2af374534088b76cdb4325a87e9a908390a3603380546001600160a01b0319169055565b1860009081526034602052604090205490565b6033546001600160a01b0316331461046157600080fd5b6103a36001600160a01b038316841882610655565b6033546001600160a01b0316331461048d57600080fd5b61049681610682565b50565b600054610100900460ff16806104b257506104b261067c565b806104c0575060005460ff16155b6104fb5760405162461bcd60e51b815260040180806020018281038252602e8152602001806106f2602e913960400191505060405180910390fd5b600054610100900460ff16158015610526576000805460ff1961ff0019909116610100171660011790555b603380546001600160a01b0319166001600160a01b0384811691909117918290556040519116906000907fc7c0c772add429241571afb3805861fb3cfa2af374534088b76cdb4325a87e9a908290a380156102dc576000805461ff00191690555050565b6033546001600160a01b031633146105a157600080fd5b6035546040805163095ea7b360e01b81526001600160a01b038581166004830152602482018590529151919092169163095ea7b39160448083019260209291908290030181600087803b1580156105f757600080fd5b505af115801561060b573d6000803e3d6000fd5b505050506040513d602081101561062157600080fd5b50505050565b6035546001600160a01b031681565b6033546001600160a01b0316331461064d57600080fd5b6103a3838318825b60008281526034602052604090205481146102dc5760009182526034602052604090912055565b303b1590565b6001600160a01b03811661069557600080fd5b6033546040516001600160a01b038084169216907fc7c0c772add429241571afb3805861fb3cfa2af374534088b76cdb4325a87e9a90600090a3603380546001600160a01b0319166001600160a01b039290921691909117905556fe436f6e747261637420696e7374616e63652068617320616c7265616479206265656e20696e697469616c697a6564a2646970667358221220b5cc785e3327b819728ca6159728ad3c5d8fc2e16153fea283c107e289bb102d64736f6c634300060c0033"
  }
}