{"compiler":"v0.7.6+commit.7338295f","opcodeHash":"0x94c097a75bc2889c14ee9b3cf5b6a174ba69a82005ecf97383c791c16efbf39c","metalessHash":"0x10f3e9b8a0a34e582ec6fd5e1457de1628a7c14059036279370cedd812dd46bd","runtimeHash":"0x7721de843242e7026560ef8334597a5ba3f47ae1f94a1f5013b056f78ee1df79","encodedMetadata":[{"ipfs":"/ipfs/QmNtJykwuaiPz4iMtDMJjjQaeLjFo48htHNRoDSURBRBK6","solc":"0.7.6"}],"abi":[{"inputs":[{"internalType":"address","name":"_pool","type":"address"}],"stateMutability":"nonpayable","type":"constructor"},{"inputs":[{"internalType":"address","name":"_addr","type":"address"},{"internalType":"int24","name":"_index","type":"int24"}],"name":"add_pool","outputs":[],"stateMutability":"nonpayable","type":"function"},{"inputs":[{"internalType":"address[]","name":"_targets","type":"address[]"},{"internalType":"bytes[]","name":"_payloads","type":"bytes[]"}],"name":"execute","outputs":[],"stateMutability":"nonpayable","type":"function"},{"inputs":[{"internalType":"int24","name":"","type":"int24"}],"name":"pools","outputs":[{"internalType":"address","name":"","type":"address"}],"stateMutability":"view","type":"function"},{"inputs":[{"internalType":"int256","name":"_amountSpecified","type":"int256"},{"internalType":"int256","name":"_minAmountOut","type":"int256"},{"internalType":"uint160","name":"_sqrtPriceLimitX96","type":"uint160"}],"name":"swap","outputs":[],"stateMutability":"nonpayable","type":"function"},{"inputs":[{"internalType":"int256","name":"amount0Delta","type":"int256"},{"internalType":"int256","name":"amount1Delta","type":"int256"},{"internalType":"bytes","name":"data","type":"bytes"}],"name":"uniswapV3SwapCallback","outputs":[],"stateMutability":"nonpayable","type":"function"},{"inputs":[{"internalType":"address","name":"_token","type":"address"},{"internalType":"uint256","name":"_amt","type":"uint256"}],"name":"withdrawERC20","outputs":[],"stateMutability":"nonpayable","type":"function"},{"inputs":[{"internalType":"address payable","name":"_to","type":"address"},{"internalType":"uint256","name":"_amt","type":"uint256"}],"name":"withdrawETH","outputs":[],"stateMutability":"nonpayable","type":"function"},{"stateMutability":"payable","type":"receive"}],"bytecode":{"object":"60a06040523480156200001157600080fd5b506040516200169038038062001690833981810160405281019062000037919062000125565b3373ffffffffffffffffffffffffffffffffffffffff1660808173ffffffffffffffffffffffffffffffffffffffff1660601b815250506001600360003373ffffffffffffffffffffffffffffffffffffffff1673ffffffffffffffffffffffffffffffffffffffff16815260200190815260200160002060006101000a81548160ff02191690831515021790555080600260006101000a81548173ffffffffffffffffffffffffffffffffffffffff021916908373ffffffffffffffffffffffffffffffffffffffff160217905550506200019f565b6000815190506200011f8162000185565b92915050565b6000602082840312156200013857600080fd5b600062000148848285016200010e565b91505092915050565b60006200015e8262000165565b9050919050565b600073ffffffffffffffffffffffffffffffffffffffff82169050919050565b620001908162000151565b81146200019c57600080fd5b50565b60805160601c6114d8620001b8600039506114d86000f3fe6080604052600436106100745760003560e01c8063a1db97821161004e578063a1db97821461010f578063c8d18a4514610138578063e119270214610161578063fa461e331461018a5761007b565b8063320cab1b146100805780634782f779146100bd57806381027da9146100e65761007b565b3661007b57005b600080fd5b34801561008c57600080fd5b506100a760048036038101906100a2919061101a565b6101b3565b6040516100b491906111ec565b60405180910390f35b3480156100c957600080fd5b506100e460048036038101906100df9190610ec8565b6101e6565b005b3480156100f257600080fd5b5061010d60048036038101906101089190610f04565b610287565b005b34801561011b57600080fd5b5061013660048036038101906101319190610f40565b61038f565b005b34801561014457600080fd5b5061015f600480360381019061015a9190610f7c565b610477565b005b34801561016d57600080fd5b50610188600480360381019061018391906110eb565b6105a8565b005b34801561019657600080fd5b506101b160048036038101906101ac919061107f565b6106eb565b005b60006020528060005260406000206000915054906101000a900473ffffffffffffffffffffffffffffffffffffffff1681565b600360003373ffffffffffffffffffffffffffffffffffffffff1673ffffffffffffffffffffffffffffffffffffffff16815260200190815260200160002060009054906101000a900460ff1661023c57600080fd5b8173ffffffffffffffffffffffffffffffffffffffff166108fc829081150290604051600060405180830381858888f19350505050158015610282573d6000803e3d6000fd5b505050565b600360003373ffffffffffffffffffffffffffffffffffffffff1673ffffffffffffffffffffffffffffffffffffffff16815260200190815260200160002060009054906101000a900460ff166102dd57600080fd5b816000808360020b60020b815260200190815260200160002060006101000a81548173ffffffffffffffffffffffffffffffffffffffff021916908373ffffffffffffffffffffffffffffffffffffffff16021790555060018060008473ffffffffffffffffffffffffffffffffffffffff1673ffffffffffffffffffffffffffffffffffffffff16815260200190815260200160002060006101000a81548160ff0219169083151502179055505050565b600360003373ffffffffffffffffffffffffffffffffffffffff1673ffffffffffffffffffffffffffffffffffffffff16815260200190815260200160002060009054906101000a900460ff166103e557600080fd5b8173ffffffffffffffffffffffffffffffffffffffff1663a9059cbb33836040518363ffffffff1660e01b815260040161042092919061125f565b602060405180830381600087803b15801561043a57600080fd5b505af115801561044e573d6000803e3d6000fd5b505050506040513d601f19601f820116820180604052508101906104729190610ff1565b505050565b600360003373ffffffffffffffffffffffffffffffffffffffff1673ffffffffffffffffffffffffffffffffffffffff16815260200190815260200160002060009054906101000a900460ff166104cd57600080fd5b60005b848490508110156105a1576000808686848181106104ea57fe5b90506020020160208101906104ff9190610e76565b73ffffffffffffffffffffffffffffffffffffffff1685858581811061052157fe5b90506020028101906105339190611288565b6040516105419291906111d3565b6000604051808303816000865af19150503d806000811461057e576040519150601f19603f3d011682016040523d82523d6000602084013e610583565b606091505b50915091508161059257600080fd5b505080806001019150506104d0565b5050505050565b600360003373ffffffffffffffffffffffffffffffffffffffff1673ffffffffffffffffffffffffffffffffffffffff16815260200190815260200160002060009054906101000a900460ff166105fe57600080fd5b600080600260009054906101000a900473ffffffffffffffffffffffffffffffffffffffff1673ffffffffffffffffffffffffffffffffffffffff1663128acb0830600088876040518563ffffffff1660e01b81526004016106639493929190611207565b6040805180830381600087803b15801561067c57600080fd5b505af1158015610690573d6000803e3d6000fd5b505050506040513d601f19601f820116820180604052508101906106b49190611043565b9150915060008212156106ce578382126106cd57600080fd5b5b60008112156106e4578381126106e357600080fd5b5b5050505050565b600160003373ffffffffffffffffffffffffffffffffffffffff1673ffffffffffffffffffffffffffffffffffffffff16815260200190815260200160002060009054906101000a900460ff1661074157600080fd5b60008413156107f3576107f233853373ffffffffffffffffffffffffffffffffffffffff16630dfe16816040518163ffffffff1660e01b815260040160206040518083038186803b15801561079557600080fd5b505afa1580156107a9573d6000803e3d6000fd5b505050506040513d601f19601f820116820180604052508101906107cd9190610e9f565b73ffffffffffffffffffffffffffffffffffffffff166108ab9092919063ffffffff16565b5b60008313156108a5576108a433843373ffffffffffffffffffffffffffffffffffffffff1663d21220a76040518163ffffffff1660e01b815260040160206040518083038186803b15801561084757600080fd5b505afa15801561085b573d6000803e3d6000fd5b505050506040513d601f19601f8201168201806040525081019061087f9190610e9f565b73ffffffffffffffffffffffffffffffffffffffff166108ab9092919063ffffffff16565b5b50505050565b6109488363a9059cbb60e01b8484604051602401808373ffffffffffffffffffffffffffffffffffffffff16815260200182815260200192505050604051602081830303815290604052907bffffffffffffffffffffffffffffffffffffffffffffffffffffffff19166020820180517bffffffffffffffffffffffffffffffffffffffffffffffffffffffff838183161783525050505061094d565b505050565b60006109af826040518060400160405280602081526020017f5361666545524332303a206c6f772d6c6576656c2063616c6c206661696c65648152508573ffffffffffffffffffffffffffffffffffffffff16610a3c9092919063ffffffff16565b9050600081511115610a37578080602001905160208110156109d057600080fd5b8101908080519060200190929190505050610a36576040517f08c379a000000000000000000000000000000000000000000000000000000000815260040180806020018281038252602a815260200180611479602a913960400191505060405180910390fd5b5b505050565b6060610a4b8484600085610a54565b90509392505050565b606082471015610aaf576040517f08c379a00000000000000000000000000000000000000000000000000000000081526004018080602001828103825260268152602001806114536026913960400191505060405180910390fd5b610ab885610bfc565b610b2a576040517f08c379a000000000000000000000000000000000000000000000000000000000815260040180806020018281038252601d8152602001807f416464726573733a2063616c6c20746f206e6f6e2d636f6e747261637400000081525060200191505060405180910390fd5b6000808673ffffffffffffffffffffffffffffffffffffffff1685876040518082805190602001908083835b60208310610b795780518252602082019150602081019050602083039250610b56565b6001836020036101000a03801982511681845116808217855250505050505090500191505060006040518083038185875af1925050503d8060008114610bdb576040519150601f19603f3d011682016040523d82523d6000602084013e610be0565b606091505b5091509150610bf0828286610c0f565b92505050949350505050565b600080823b905060008111915050919050565b60608315610c1f57829050610cd4565b600083511115610c325782518084602001fd5b816040517f08c379a00000000000000000000000000000000000000000000000000000000081526004018080602001828103825283818151815260200191508051906020019080838360005b83811015610c99578082015181840152602081019050610c7e565b50505050905090810190601f168015610cc65780820380516001836020036101000a031916815260200191505b509250505060405180910390fd5b9392505050565b600081359050610cea816113b1565b92915050565b600081519050610cff816113b1565b92915050565b600081359050610d14816113c8565b92915050565b60008083601f840112610d2c57600080fd5b8235905067ffffffffffffffff811115610d4557600080fd5b602083019150836020820283011115610d5d57600080fd5b9250929050565b60008083601f840112610d7657600080fd5b8235905067ffffffffffffffff811115610d8f57600080fd5b602083019150836020820283011115610da757600080fd5b9250929050565b600081519050610dbd816113df565b92915050565b60008083601f840112610dd557600080fd5b8235905067ffffffffffffffff811115610dee57600080fd5b602083019150836001820283011115610e0657600080fd5b9250929050565b600081359050610e1c816113f6565b92915050565b600081359050610e318161140d565b92915050565b600081519050610e468161140d565b92915050565b600081359050610e5b81611424565b92915050565b600081359050610e708161143b565b92915050565b600060208284031215610e8857600080fd5b6000610e9684828501610cdb565b91505092915050565b600060208284031215610eb157600080fd5b6000610ebf84828501610cf0565b91505092915050565b60008060408385031215610edb57600080fd5b6000610ee985828601610d05565b9250506020610efa85828601610e61565b9150509250929050565b60008060408385031215610f1757600080fd5b6000610f2585828601610cdb565b9250506020610f3685828601610e0d565b9150509250929050565b60008060408385031215610f5357600080fd5b6000610f6185828601610cdb565b9250506020610f7285828601610e61565b9150509250929050565b60008060008060408587031215610f9257600080fd5b600085013567ffffffffffffffff811115610fac57600080fd5b610fb887828801610d1a565b9450945050602085013567ffffffffffffffff811115610fd757600080fd5b610fe387828801610d64565b925092505092959194509250565b60006020828403121561100357600080fd5b600061101184828501610dae565b91505092915050565b60006020828403121561102c57600080fd5b600061103a84828501610e0d565b91505092915050565b6000806040838503121561105657600080fd5b600061106485828601610e37565b925050602061107585828601610e37565b9150509250929050565b6000806000806060858703121561109557600080fd5b60006110a387828801610e22565b94505060206110b487828801610e22565b935050604085013567ffffffffffffffff8111156110d157600080fd5b6110dd87828801610dc3565b925092505092959194509250565b60008060006060848603121561110057600080fd5b600061110e86828701610e22565b935050602061111f86828701610e22565b925050604061113086828701610e4c565b9150509250925092565b6111438161136c565b82525050565b611152816112fb565b82525050565b6111618161131f565b82525050565b600061117383856112f0565b93506111808385846113a2565b82840190509392505050565b61119581611338565b82525050565b60006111a86000836112df565b9150600082019050919050565b6111be81611342565b82525050565b6111cd81611362565b82525050565b60006111e0828486611167565b91508190509392505050565b60006020820190506112016000830184611149565b92915050565b600060a08201905061121c600083018761113a565b6112296020830186611158565b611236604083018561118c565b61124360608301846111b5565b81810360808301526112548161119b565b905095945050505050565b6000604082019050611274600083018561113a565b61128160208301846111c4565b9392505050565b600080833560016020038436030381126112a157600080fd5b80840192508235915067ffffffffffffffff8211156112bf57600080fd5b6020830192506001820236038313156112d757600080fd5b509250929050565b600082825260208201905092915050565b600081905092915050565b600061130682611342565b9050919050565b600061131882611342565b9050919050565b60008115159050919050565b60008160020b9050919050565b6000819050919050565b600073ffffffffffffffffffffffffffffffffffffffff82169050919050565b6000819050919050565b60006113778261137e565b9050919050565b600061138982611390565b9050919050565b600061139b82611342565b9050919050565b82818337600083830152505050565b6113ba816112fb565b81146113c557600080fd5b50565b6113d18161130d565b81146113dc57600080fd5b50565b6113e88161131f565b81146113f357600080fd5b50565b6113ff8161132b565b811461140a57600080fd5b50565b61141681611338565b811461142157600080fd5b50565b61142d81611342565b811461143857600080fd5b50565b61144481611362565b811461144f57600080fd5b5056fe416464726573733a20696e73756666696369656e742062616c616e636520666f722063616c6c5361666545524332303a204552433230206f7065726174696f6e20646964206e6f742073756363656564a26469706673582212202f78c9f80e4fe94c9265cb92fa37908e53e87e0b8abc9c1d8e350f7af520e5e164736f6c63430007060033"}}