{
  "opcodeHash": "0x2e0131b9a10283de0535b12564d5b887c67486f6f40360e406245e62e3b01ff3",
  "metalessHash": "0xbd667acd2ef5cfc588e5bf0997dc9fb7cdbf1c2ad9509faeada47f23d0fd66a9",
  "runtimeHash": "0x06050174e6183f7d7c9fab32630ce880fe2810610ca6c3371349fa80f27f1d60",
  "encodedMetadata": [
    {
      "ipfs": "/ipfs/QmXYwW7QnbZsd3f3mf2ouKUasc5b1nPAxrH3KMtEZ8CTj2",
      "solc": "0.6.12"
    }
  ],
  "abi": [
    {
      "anonymous": false,
      "inputs": [
        {
          "indexed": true,
          "internalType": "address",
          "name": "lpToken",
          "type": "address"
        },
        {
          "indexed": true,
          "internalType": "uint256",
          "name": "pid",
          "type": "uint256"
        },
        {
          "indexed": false,
          "internalType": "uint256",
          "name": "allocPoint",
          "type": "uint256"
        }
      ],
      "name": "AddLpToken",
      "type": "event"
    },
    {
      "anonymous": false,
      "inputs": [
        {
          "indexed": true,
          "internalType": "address",
          "name": "delegate",
          "type": "address"
        },
        {
          "indexed": false,
          "internalType": "uint256",
          "name": "previousBalance",
          "type": "uint256"
        },
        {
          "indexed": false,
          "internalType": "uint256",
          "name": "newBalance",
          "type": "uint256"
        }
      ],
      "name": "CheckpointBalanceChanged",
      "type": "event"
    },
    {
      "anonymous": false,
      "inputs": [
        {
          "indexed": false,
          "internalType": "uint256",
          "name": "lpVotes",
          "type": "uint256"
        }
      ],
      "name": "CheckpointTotalLpVotes",
      "type": "event"
    },
    {
      "anonymous": false,
      "inputs": [
        {
          "indexed": true,
          "internalType": "address",
          "name": "user",
          "type": "address"
        },
        {
          "indexed": true,
          "internalType": "uint256",
          "name": "pid",
          "type": "uint256"
        },
        {
          "indexed": false,
          "internalType": "uint256",
          "name": "lpVotes",
          "type": "uint256"
        }
      ],
      "name": "CheckpointUserLpVotes",
      "type": "event"
    },
    {
      "anonymous": false,
      "inputs": [
        {
          "indexed": true,
          "internalType": "address",
          "name": "user",
          "type": "address"
        },
        {
          "indexed": false,
          "internalType": "uint256",
          "name": "pendedVotes",
          "type": "uint256"
        },
        {
          "indexed": false,
          "internalType": "uint256",
          "name": "lpVotesShare",
          "type": "uint256"
        }
      ],
      "name": "CheckpointUserVotes",
      "type": "event"
    },
    {
      "anonymous": false,
      "inputs": [
        {
          "indexed": true,
          "internalType": "address",
          "name": "delegator",
          "type": "address"
        },
        {
          "indexed": true,
          "internalType": "address",
          "name": "fromDelegate",
          "type": "address"
        },
        {
          "indexed": true,
          "internalType": "address",
          "name": "toDelegate",
          "type": "address"
        }
      ],
      "name": "DelegateChanged",
      "type": "event"
    },
    {
      "anonymous": false,
      "inputs": [
        {
          "indexed": true,
          "internalType": "address",
          "name": "user",
          "type": "address"
        },
        {
          "indexed": true,
          "internalType": "uint256",
          "name": "pid",
          "type": "uint256"
        },
        {
          "indexed": false,
          "internalType": "uint256",
          "name": "amount",
          "type": "uint256"
        },
        {
          "indexed": false,
          "internalType": "uint256",
          "name": "boostAmount",
          "type": "uint256"
        }
      ],
      "name": "Deposit",
      "type": "event"
    },
    {
      "anonymous": false,
      "inputs": [
        {
          "indexed": true,
          "internalType": "address",
          "name": "user",
          "type": "address"
        },
        {
          "indexed": true,
          "internalType": "uint256",
          "name": "pid",
          "type": "uint256"
        },
        {
          "indexed": false,
          "internalType": "uint256",
          "name": "amount",
          "type": "uint256"
        },
        {
          "indexed": false,
          "internalType": "uint256",
          "name": "boostAmount",
          "type": "uint256"
        }
      ],
      "name": "EmergencyWithdraw",
      "type": "event"
    },
    {
      "anonymous": false,
      "inputs": [
        {
          "indexed": true,
          "internalType": "address",
          "name": "oldLpToken",
          "type": "address"
        },
        {
          "indexed": true,
          "internalType": "address",
          "name": "newLpToken",
          "type": "address"
        },
        {
          "indexed": true,
          "internalType": "uint256",
          "name": "pid",
          "type": "uint256"
        }
      ],
      "name": "MigrateLpToken",
      "type": "event"
    },
    {
      "anonymous": false,
      "inputs": [
        {
          "indexed": true,
          "internalType": "address",
          "name": "previousOwner",
          "type": "address"
        },
        {
          "indexed": true,
          "internalType": "address",
          "name": "newOwner",
          "type": "address"
        }
      ],
      "name": "OwnershipTransferred",
      "type": "event"
    },
    {
      "anonymous": false,
      "inputs": [
        {
          "indexed": false,
          "internalType": "uint256",
          "name": "cvpPerBlock",
          "type": "uint256"
        }
      ],
      "name": "SetCvpPerBlock",
      "type": "event"
    },
    {
      "anonymous": false,
      "inputs": [
        {
          "indexed": true,
          "internalType": "address",
          "name": "metaPool",
          "type": "address"
        },
        {
          "indexed": true,
          "internalType": "address",
          "name": "cvpPool",
          "type": "address"
        }
      ],
      "name": "SetCvpPoolByMetaPool",
      "type": "event"
    },
    {
      "anonymous": false,
      "inputs": [
        {
          "indexed": false,
          "internalType": "uint256",
          "name": "cvpVestingPeriodInBlocks",
          "type": "uint256"
        }
      ],
      "name": "SetCvpVestingPeriodInBlocks",
      "type": "event"
    },
    {
      "anonymous": false,
      "inputs": [
        {
          "indexed": true,
          "internalType": "address",
          "name": "lpToken",
          "type": "address"
        },
        {
          "indexed": true,
          "internalType": "uint256",
          "name": "pid",
          "type": "uint256"
        },
        {
          "indexed": false,
          "internalType": "uint256",
          "name": "allocPoint",
          "type": "uint256"
        }
      ],
      "name": "SetLpToken",
      "type": "event"
    },
    {
      "anonymous": false,
      "inputs": [
        {
          "indexed": true,
          "internalType": "address",
          "name": "migrator",
          "type": "address"
        }
      ],
      "name": "SetMigrator",
      "type": "event"
    },
    {
      "anonymous": false,
      "inputs": [
        {
          "indexed": true,
          "internalType": "address",
          "name": "user",
          "type": "address"
        },
        {
          "indexed": true,
          "internalType": "uint256",
          "name": "pid",
          "type": "uint256"
        },
        {
          "indexed": false,
          "internalType": "uint256",
          "name": "amount",
          "type": "uint256"
        },
        {
          "indexed": false,
          "internalType": "uint256",
          "name": "boostAmount",
          "type": "uint256"
        }
      ],
      "name": "Withdraw",
      "type": "event"
    },
    {
      "inputs": [
        {
          "internalType": "uint256",
          "name": "_allocPoint",
          "type": "uint256"
        },
        {
          "internalType": "contract IERC20",
          "name": "_lpToken",
          "type": "address"
        },
        {
          "internalType": "uint8",
          "name": "_poolType",
          "type": "uint8"
        },
        {
          "internalType": "bool",
          "name": "_votesEnabled",
          "type": "bool"
        },
        {
          "internalType": "uint256",
          "name": "_lpBoostRate",
          "type": "uint256"
        },
        {
          "internalType": "uint256",
          "name": "_cvpBoostRate",
          "type": "uint256"
        },
        {
          "internalType": "uint256",
          "name": "_lpBoostMinRatio",
          "type": "uint256"
        },
        {
          "internalType": "uint256",
          "name": "_lpBoostMaxRatio",
          "type": "uint256"
        }
      ],
      "name": "add",
      "outputs": [],
      "stateMutability": "nonpayable",
      "type": "function"
    },
    {
      "inputs": [
        {
          "internalType": "address",
          "name": "",
          "type": "address"
        }
      ],
      "name": "book",
      "outputs": [
        {
          "internalType": "uint32",
          "name": "numCheckpoints",
          "type": "uint32"
        },
        {
          "internalType": "uint32",
          "name": "lastCheckpointBlock",
          "type": "uint32"
        },
        {
          "internalType": "address",
          "name": "delegatee",
          "type": "address"
        }
      ],
      "stateMutability": "view",
      "type": "function"
    },
    {
      "inputs": [
        {
          "internalType": "address",
          "name": "_user",
          "type": "address"
        }
      ],
      "name": "checkpointVotes",
      "outputs": [],
      "stateMutability": "nonpayable",
      "type": "function"
    },
    {
      "inputs": [],
      "name": "cvp",
      "outputs": [
        {
          "internalType": "contract IERC20",
          "name": "",
          "type": "address"
        }
      ],
      "stateMutability": "view",
      "type": "function"
    },
    {
      "inputs": [
        {
          "internalType": "uint256",
          "name": "_lpAmount",
          "type": "uint256"
        },
        {
          "internalType": "address",
          "name": "_lpToken",
          "type": "address"
        },
        {
          "internalType": "bool",
          "name": "_min",
          "type": "bool"
        }
      ],
      "name": "cvpBalanceToBoost",
      "outputs": [
        {
          "internalType": "uint256",
          "name": "",
          "type": "uint256"
        }
      ],
      "stateMutability": "view",
      "type": "function"
    },
    {
      "inputs": [],
      "name": "cvpPerBlock",
      "outputs": [
        {
          "internalType": "uint96",
          "name": "",
          "type": "uint96"
        }
      ],
      "stateMutability": "view",
      "type": "function"
    },
    {
      "inputs": [
        {
          "internalType": "address",
          "name": "",
          "type": "address"
        }
      ],
      "name": "cvpPoolByMetaPool",
      "outputs": [
        {
          "internalType": "address",
          "name": "",
          "type": "address"
        }
      ],
      "stateMutability": "view",
      "type": "function"
    },
    {
      "inputs": [],
      "name": "cvpVestingPeriodInBlocks",
      "outputs": [
        {
          "internalType": "uint32",
          "name": "",
          "type": "uint32"
        }
      ],
      "stateMutability": "view",
      "type": "function"
    },
    {
      "inputs": [],
      "name": "cvpVestingPool",
      "outputs": [
        {
          "internalType": "uint96",
          "name": "",
          "type": "uint96"
        }
      ],
      "stateMutability": "view",
      "type": "function"
    },
    {
      "inputs": [
        {
          "internalType": "address",
          "name": "delegatee_",
          "type": "address"
        }
      ],
      "name": "delegate",
      "outputs": [],
      "stateMutability": "nonpayable",
      "type": "function"
    },
    {
      "inputs": [],
      "name": "delegatee",
      "outputs": [
        {
          "internalType": "address",
          "name": "",
          "type": "address"
        }
      ],
      "stateMutability": "view",
      "type": "function"
    },
    {
      "inputs": [
        {
          "internalType": "uint256",
          "name": "_pid",
          "type": "uint256"
        },
        {
          "internalType": "uint256",
          "name": "_amount",
          "type": "uint256"
        },
        {
          "internalType": "uint256",
          "name": "_boostAmount",
          "type": "uint256"
        }
      ],
      "name": "deposit",
      "outputs": [],
      "stateMutability": "nonpayable",
      "type": "function"
    },
    {
      "inputs": [
        {
          "internalType": "uint256",
          "name": "_pid",
          "type": "uint256"
        }
      ],
      "name": "emergencyWithdraw",
      "outputs": [],
      "stateMutability": "nonpayable",
      "type": "function"
    },
    {
      "inputs": [
        {
          "internalType": "address",
          "name": "account",
          "type": "address"
        },
        {
          "internalType": "uint256",
          "name": "blockNumber",
          "type": "uint256"
        }
      ],
      "name": "findCheckpoints",
      "outputs": [
        {
          "internalType": "uint32",
          "name": "userCheckpointId",
          "type": "uint32"
        },
        {
          "internalType": "uint32",
          "name": "sharedCheckpointId",
          "type": "uint32"
        }
      ],
      "stateMutability": "view",
      "type": "function"
    },
    {
      "inputs": [
        {
          "internalType": "address",
          "name": "account",
          "type": "address"
        },
        {
          "internalType": "uint32",
          "name": "checkpointId",
          "type": "uint32"
        }
      ],
      "name": "getCheckpoint",
      "outputs": [
        {
          "internalType": "uint32",
          "name": "fromBlock",
          "type": "uint32"
        },
        {
          "internalType": "uint96",
          "name": "cvpAmount",
          "type": "uint96"
        },
        {
          "internalType": "uint96",
          "name": "pooledCvpShare",
          "type": "uint96"
        }
      ],
      "stateMutability": "view",
      "type": "function"
    },
    {
      "inputs": [
        {
          "internalType": "address",
          "name": "account",
          "type": "address"
        }
      ],
      "name": "getCurrentVotes",
      "outputs": [
        {
          "internalType": "uint96",
          "name": "",
          "type": "uint96"
        }
      ],
      "stateMutability": "view",
      "type": "function"
    },
    {
      "inputs": [
        {
          "internalType": "address",
          "name": "account",
          "type": "address"
        },
        {
          "internalType": "uint256",
          "name": "blockNumber",
          "type": "uint256"
        },
        {
          "internalType": "uint32",
          "name": "userCheckpointId",
          "type": "uint32"
        },
        {
          "internalType": "uint32",
          "name": "sharedCheckpointId",
          "type": "uint32"
        }
      ],
      "name": "getPriorVotes",
      "outputs": [
        {
          "internalType": "uint96",
          "name": "",
          "type": "uint96"
        }
      ],
      "stateMutability": "view",
      "type": "function"
    },
    {
      "inputs": [
        {
          "internalType": "address",
          "name": "account",
          "type": "address"
        },
        {
          "internalType": "uint256",
          "name": "blockNumber",
          "type": "uint256"
        }
      ],
      "name": "getPriorVotes",
      "outputs": [
        {
          "internalType": "uint96",
          "name": "",
          "type": "uint96"
        }
      ],
      "stateMutability": "view",
      "type": "function"
    },
    {
      "inputs": [
        {
          "internalType": "contract IERC20",
          "name": "_cvp",
          "type": "address"
        },
        {
          "internalType": "address",
          "name": "_reservoir",
          "type": "address"
        },
        {
          "internalType": "uint256",
          "name": "_cvpPerBlock",
          "type": "uint256"
        },
        {
          "internalType": "uint256",
          "name": "_startBlock",
          "type": "uint256"
        },
        {
          "internalType": "uint256",
          "name": "_cvpVestingPeriodInBlocks",
          "type": "uint256"
        }
      ],
      "name": "initialize",
      "outputs": [],
      "stateMutability": "nonpayable",
      "type": "function"
    },
    {
      "inputs": [
        {
          "internalType": "contract IERC20",
          "name": "_lpToken",
          "type": "address"
        }
      ],
      "name": "isLpTokenAdded",
      "outputs": [
        {
          "internalType": "bool",
          "name": "",
          "type": "bool"
        }
      ],
      "stateMutability": "view",
      "type": "function"
    },
    {
      "inputs": [
        {
          "internalType": "address",
          "name": "",
          "type": "address"
        }
      ],
      "name": "lastSwapBlock",
      "outputs": [
        {
          "internalType": "uint256",
          "name": "",
          "type": "uint256"
        }
      ],
      "stateMutability": "view",
      "type": "function"
    },
    {
      "inputs": [
        {
          "internalType": "address",
          "name": "",
          "type": "address"
        }
      ],
      "name": "lpBoostMaxRatioByToken",
      "outputs": [
        {
          "internalType": "uint256",
          "name": "",
          "type": "uint256"
        }
      ],
      "stateMutability": "view",
      "type": "function"
    },
    {
      "inputs": [
        {
          "internalType": "address",
          "name": "",
          "type": "address"
        }
      ],
      "name": "lpBoostRatioByToken",
      "outputs": [
        {
          "internalType": "uint256",
          "name": "",
          "type": "uint256"
        }
      ],
      "stateMutability": "view",
      "type": "function"
    },
    {
      "inputs": [],
      "name": "massUpdatePools",
      "outputs": [],
      "stateMutability": "nonpayable",
      "type": "function"
    },
    {
      "inputs": [
        {
          "internalType": "uint256",
          "name": "_pid",
          "type": "uint256"
        }
      ],
      "name": "migrate",
      "outputs": [],
      "stateMutability": "nonpayable",
      "type": "function"
    },
    {
      "inputs": [],
      "name": "migrator",
      "outputs": [
        {
          "internalType": "contract ILpTokenMigrator",
          "name": "",
          "type": "address"
        }
      ],
      "stateMutability": "view",
      "type": "function"
    },
    {
      "inputs": [],
      "name": "owner",
      "outputs": [
        {
          "internalType": "address",
          "name": "",
          "type": "address"
        }
      ],
      "stateMutability": "view",
      "type": "function"
    },
    {
      "inputs": [
        {
          "internalType": "uint256",
          "name": "_pid",
          "type": "uint256"
        },
        {
          "internalType": "address",
          "name": "_user",
          "type": "address"
        }
      ],
      "name": "pendingCvp",
      "outputs": [
        {
          "internalType": "uint256",
          "name": "",
          "type": "uint256"
        }
      ],
      "stateMutability": "view",
      "type": "function"
    },
    {
      "inputs": [
        {
          "internalType": "uint256",
          "name": "",
          "type": "uint256"
        }
      ],
      "name": "poolBoostByLp",
      "outputs": [
        {
          "internalType": "uint256",
          "name": "lpBoostRate",
          "type": "uint256"
        },
        {
          "internalType": "uint256",
          "name": "cvpBoostRate",
          "type": "uint256"
        },
        {
          "internalType": "uint32",
          "name": "lastUpdateBlock",
          "type": "uint32"
        },
        {
          "internalType": "uint256",
          "name": "accCvpPerLpBoost",
          "type": "uint256"
        },
        {
          "internalType": "uint256",
          "name": "accCvpPerCvpBoost",
          "type": "uint256"
        }
      ],
      "stateMutability": "view",
      "type": "function"
    },
    {
      "inputs": [],
      "name": "poolLength",
      "outputs": [
        {
          "internalType": "uint256",
          "name": "",
          "type": "uint256"
        }
      ],
      "stateMutability": "view",
      "type": "function"
    },
    {
      "inputs": [
        {
          "internalType": "address",
          "name": "",
          "type": "address"
        }
      ],
      "name": "poolPidByAddress",
      "outputs": [
        {
          "internalType": "uint256",
          "name": "",
          "type": "uint256"
        }
      ],
      "stateMutability": "view",
      "type": "function"
    },
    {
      "inputs": [
        {
          "internalType": "uint256",
          "name": "",
          "type": "uint256"
        }
      ],
      "name": "pools",
      "outputs": [
        {
          "internalType": "contract IERC20",
          "name": "lpToken",
          "type": "address"
        },
        {
          "internalType": "bool",
          "name": "votesEnabled",
          "type": "bool"
        },
        {
          "internalType": "uint8",
          "name": "poolType",
          "type": "uint8"
        },
        {
          "internalType": "uint32",
          "name": "allocPoint",
          "type": "uint32"
        },
        {
          "internalType": "uint32",
          "name": "lastUpdateBlock",
          "type": "uint32"
        },
        {
          "internalType": "uint256",
          "name": "accCvpPerLpt",
          "type": "uint256"
        }
      ],
      "stateMutability": "view",
      "type": "function"
    },
    {
      "inputs": [],
      "name": "renounceOwnership",
      "outputs": [],
      "stateMutability": "nonpayable",
      "type": "function"
    },
    {
      "inputs": [],
      "name": "reservoir",
      "outputs": [
        {
          "internalType": "address",
          "name": "",
          "type": "address"
        }
      ],
      "stateMutability": "view",
      "type": "function"
    },
    {
      "inputs": [
        {
          "internalType": "uint256",
          "name": "_pid",
          "type": "uint256"
        },
        {
          "internalType": "uint256",
          "name": "_allocPoint",
          "type": "uint256"
        },
        {
          "internalType": "uint8",
          "name": "_poolType",
          "type": "uint8"
        },
        {
          "internalType": "bool",
          "name": "_votesEnabled",
          "type": "bool"
        },
        {
          "internalType": "uint256",
          "name": "_lpBoostRate",
          "type": "uint256"
        },
        {
          "internalType": "uint256",
          "name": "_cvpBoostRate",
          "type": "uint256"
        },
        {
          "internalType": "uint256",
          "name": "_lpBoostMinRatio",
          "type": "uint256"
        },
        {
          "internalType": "uint256",
          "name": "_lpBoostMaxRatio",
          "type": "uint256"
        }
      ],
      "name": "set",
      "outputs": [],
      "stateMutability": "nonpayable",
      "type": "function"
    },
    {
      "inputs": [
        {
          "internalType": "uint256",
          "name": "_cvpPerBlock",
          "type": "uint256"
        }
      ],
      "name": "setCvpPerBlock",
      "outputs": [],
      "stateMutability": "nonpayable",
      "type": "function"
    },
    {
      "inputs": [
        {
          "internalType": "address",
          "name": "_metaPool",
          "type": "address"
        },
        {
          "internalType": "address",
          "name": "_cvpPool",
          "type": "address"
        }
      ],
      "name": "setCvpPoolByMetaPool",
      "outputs": [],
      "stateMutability": "nonpayable",
      "type": "function"
    },
    {
      "inputs": [
        {
          "internalType": "uint256",
          "name": "_cvpVestingPeriodInBlocks",
          "type": "uint256"
        }
      ],
      "name": "setCvpVestingPeriodInBlocks",
      "outputs": [],
      "stateMutability": "nonpayable",
      "type": "function"
    },
    {
      "inputs": [
        {
          "internalType": "contract ILpTokenMigrator",
          "name": "_migrator",
          "type": "address"
        }
      ],
      "name": "setMigrator",
      "outputs": [],
      "stateMutability": "nonpayable",
      "type": "function"
    },
    {
      "inputs": [],
      "name": "startBlock",
      "outputs": [
        {
          "internalType": "uint32",
          "name": "",
          "type": "uint32"
        }
      ],
      "stateMutability": "view",
      "type": "function"
    },
    {
      "inputs": [],
      "name": "totalAllocPoint",
      "outputs": [
        {
          "internalType": "uint256",
          "name": "",
          "type": "uint256"
        }
      ],
      "stateMutability": "view",
      "type": "function"
    },
    {
      "inputs": [
        {
          "internalType": "address",
          "name": "newOwner",
          "type": "address"
        }
      ],
      "name": "transferOwnership",
      "outputs": [],
      "stateMutability": "nonpayable",
      "type": "function"
    },
    {
      "inputs": [
        {
          "internalType": "uint256",
          "name": "_pid",
          "type": "uint256"
        }
      ],
      "name": "updatePool",
      "outputs": [],
      "stateMutability": "nonpayable",
      "type": "function"
    },
    {
      "inputs": [
        {
          "internalType": "uint256",
          "name": "",
          "type": "uint256"
        },
        {
          "internalType": "address",
          "name": "",
          "type": "address"
        }
      ],
      "name": "users",
      "outputs": [
        {
          "internalType": "uint32",
          "name": "lastUpdateBlock",
          "type": "uint32"
        },
        {
          "internalType": "uint32",
          "name": "vestingBlock",
          "type": "uint32"
        },
        {
          "internalType": "uint96",
          "name": "pendedCvp",
          "type": "uint96"
        },
        {
          "internalType": "uint96",
          "name": "cvpAdjust",
          "type": "uint96"
        },
        {
          "internalType": "uint256",
          "name": "lptAmount",
          "type": "uint256"
        }
      ],
      "stateMutability": "view",
      "type": "function"
    },
    {
      "inputs": [
        {
          "internalType": "uint256",
          "name": "",
          "type": "uint256"
        },
        {
          "internalType": "address",
          "name": "",
          "type": "address"
        }
      ],
      "name": "usersPoolBoost",
      "outputs": [
        {
          "internalType": "uint256",
          "name": "balance",
          "type": "uint256"
        },
        {
          "internalType": "uint32",
          "name": "lastUpdateBlock",
          "type": "uint32"
        }
      ],
      "stateMutability": "view",
      "type": "function"
    },
    {
      "inputs": [
        {
          "internalType": "uint256",
          "name": "_pid",
          "type": "uint256"
        },
        {
          "internalType": "address",
          "name": "user",
          "type": "address"
        }
      ],
      "name": "vestableCvp",
      "outputs": [
        {
          "internalType": "uint256",
          "name": "",
          "type": "uint256"
        }
      ],
      "stateMutability": "view",
      "type": "function"
    },
    {
      "inputs": [
        {
          "internalType": "uint256",
          "name": "_pid",
          "type": "uint256"
        },
        {
          "internalType": "uint256",
          "name": "_amount",
          "type": "uint256"
        },
        {
          "internalType": "uint256",
          "name": "_boostAmount",
          "type": "uint256"
        }
      ],
      "name": "withdraw",
      "outputs": [],
      "stateMutability": "nonpayable",
      "type": "function"
    }
  ],
  "bytecode": {
    "object": "608060405260006101675534801561001657600080fd5b50615a1b80620000276000396000f3fe608060405234801561001057600080fd5b50600436106102945760003560e01c80637ca8146011610167578063ab85cfe4116100ce578063d13f90b411610087578063d13f90b4146109b5578063d8f14f2b146109f7578063e99f5b80146109ff578063f247c4b014610a25578063f2fde38b14610a2d578063f3f14ed014610a5357610294565b8063ab85cfe414610819578063ac4afa3814610853578063b4b5ea57146108b5578063b9d02df4146108db578063bfd05aaa14610945578063cfc2cb601461096b57610294565b80638e782f4d116101205780638e782f4d1461070f57806394f70aca1461073b578063996517a5146107585780639c954c9d1461077e578063a153d9651461079b578063a41fe49f146107f057610294565b80637ca81460146106205780637cd07e471461067657806385d9aabb1461067e578063866bf7ae146106cb5780638cd0d629146106d35780638da5cb5b1461070757610294565b806348cd4cb11161020b5780635c2ef9a3116101c45780635c2ef9a314610520578063630b5ba11461054e5780636aa7098c14610556578063715018a6146105965780637733fdbb1461059e578063782d6fe1146105f457610294565b806348cd4cb11461042c57806351eb05a61461044d5780635312ea8e1461046a57806356b2ed53146104875780635754f8d6146104ad5780635c19a95c146104fa57610294565b80631db560321161025d5780631db56032146103305780631e31d0531461035c57806323cf31181461036457806334940fa81461038a578063430bf6df146103eb578063454b06081461040f57610294565b8062aeef8a146102995780630795debe146102c4578063081e3eda14610306578063151e6aa51461032057806317caf6f114610328575b600080fd5b6102c2600480360360608110156102af57600080fd5b5080359060208101359060400135610a79565b005b6102ea600480360360208110156102da57600080fd5b50356001600160a01b0316610cf9565b604080516001600160a01b039092168252519081900360200190f35b61030e610d15565b60408051918252519081900360200190f35b6102ea610d1c565b61030e610d2c565b61030e6004803603604081101561034657600080fd5b50803590602001356001600160a01b0316610d33565b6102ea610f5d565b6102c26004803603602081101561037a57600080fd5b50356001600160a01b0316610f81565b6103bc600480360360408110156103a057600080fd5b5080356001600160a01b0316906020013563ffffffff1661102c565b6040805163ffffffff90941684526001600160601b039283166020850152911682820152519081900360600190f35b6103f3611057565b604080516001600160601b039092168252519081900360200190f35b6102c26004803603602081101561042557600080fd5b503561106e565b6104346113b0565b6040805163ffffffff9092168252519081900360200190f35b6102c26004803603602081101561046357600080fd5b50356113c4565b6102c26004803603602081101561048057600080fd5b503561145e565b6102c26004803603602081101561049d57600080fd5b50356001600160a01b031661165f565b6104ca600480360360208110156104c357600080fd5b50356116b7565b60408051958652602086019490945263ffffffff9092168484015260608401526080830152519081900360a00190f35b6102c26004803603602081101561051057600080fd5b50356001600160a01b03166116ee565b6102c26004803603604081101561053657600080fd5b506001600160a01b0381358116916020013516611743565b6102c26117f3565b6103f36004803603608081101561056c57600080fd5b506001600160a01b038135169060208101359063ffffffff60408201358116916060013516611817565b6102c26118d4565b6102c260048036036101008110156105b557600080fd5b508035906001600160a01b036020820135169060ff60408201351690606081013515159060808101359060a08101359060c08101359060e00135611976565b6103f36004803603604081101561060a57600080fd5b506001600160a01b038135169060200135611d4f565b6106466004803603602081101561063657600080fd5b50356001600160a01b0316611d65565b6040805163ffffffff94851681529290931660208301526001600160a01b03168183015290519081900360600190f35b6102ea611d9c565b6102c2600480360361010081101561069557600080fd5b5080359060208101359060ff60408201351690606081013515159060808101359060a08101359060c08101359060e00135611db3565b610434612057565b61030e600480360360608110156106e957600080fd5b508035906001600160a01b036020820135169060400135151561206b565b6102ea6120c5565b61030e6004803603604081101561072557600080fd5b50803590602001356001600160a01b03166120d4565b6102c26004803603602081101561075157600080fd5b5035612339565b61030e6004803603602081101561076e57600080fd5b50356001600160a01b031661240f565b6102c26004803603602081101561079457600080fd5b5035612422565b6107c7600480360360408110156107b157600080fd5b506001600160a01b038135169060200135612516565b604051808363ffffffff1681526020018263ffffffff1681526020019250505060405180910390f35b6102c26004803603606081101561080657600080fd5b50803590602081013590604001356125c1565b61083f6004803603602081101561082f57600080fd5b50356001600160a01b031661286d565b604080519115158252519081900360200190f35b6108706004803603602081101561086957600080fd5b50356128d1565b604080516001600160a01b039097168752941515602087015260ff9093168585015263ffffffff918216606086015216608084015260a0830152519081900360c00190f35b6103f3600480360360208110156108cb57600080fd5b50356001600160a01b0316612935565b610907600480360360408110156108f157600080fd5b50803590602001356001600160a01b03166129d7565b6040805163ffffffff96871681529490951660208501526001600160601b039283168486015291166060830152608082015290519081900360a00190f35b61030e6004803603602081101561095b57600080fd5b50356001600160a01b0316612a2b565b6109976004803603604081101561098157600080fd5b50803590602001356001600160a01b0316612a3e565b6040805192835263ffffffff90911660208301528051918290030190f35b6102c2600480360360a08110156109cb57600080fd5b506001600160a01b03813581169160208101359091169060408101359060608101359060800135612a69565b6102ea612c1b565b61030e60048036036020811015610a1557600080fd5b50356001600160a01b0316612c2b565b6103f3612c3e565b6102c260048036036020811015610a4357600080fd5b50356001600160a01b0316612c4e565b61030e60048036036020811015610a6957600080fd5b50356001600160a01b0316612d47565b60975460ff16610abe576040805162461bcd60e51b815260206004820152601f6024820152600080516020615855833981519152604482015290519081900360640190fd5b6097805460ff19169055610ad183612d5a565b610ad9612db1565b60006101648481548110610ae957fe5b6000918252602080832087845261016a825260408085206101668452818620338088529085528287208b885261016b865283882091885294529420600290930201935090610b378484612e8b565b610b4382858386613117565b8515610b75578354610b60906001600160a01b031633308961340c565b6001820154610b6f908761346c565b60018301555b8415610ba35761016154610b94906001600160a01b031633308861340c565b8054610ba0908661346c565b81555b6001808301546040805160c08101825287546001600160a01b038116825260ff600160a01b820481161515602080850191909152600160a81b83049091168385015263ffffffff600160b01b83048116606080860191909152600160d01b90930481166080808601919091528b88015460a080870191909152865180880188528a5481528a8a0154841681860152875191820188528c548252988c01549381019390935260028b015490911694820194909452600389015491810191909152600488015492810192909252610c799390916134c6565b82546001600160601b0391909116600160a01b026001600160a01b0390911617825560408051878152602081018790528151899233927f36af321ec8d3c75236829c5317affd40ddb308863a1236d2d277a4025cccee1e929081900390910190a3610ce333613576565b50506097805460ff191660011790555050505050565b610168602052600090815260409020546001600160a01b031681565b6101645490565b610162546001600160a01b031681565b6101675481565b6000610d3d615785565b6101648481548110610d4b57fe5b60009182526020918290206040805160c081018252600290930290910180546001600160a01b038116845260ff600160a01b82048116151595850195909552600160a81b81049094169183019190915263ffffffff600160b01b840481166060840152600160d01b909304909216608082015260019091015460a08201529050610dd36157ba565b50600084815261016a6020908152604091829020825160a08101845281548152600182015492810192909252600281015463ffffffff1692820192909252600382015460608201526004909101546080820152610e2e6157ef565b506000858152610166602090815260408083206001600160a01b0388168452825291829020825160a081018452815463ffffffff8082168352600160201b820416938201939093526001600160601b03600160401b8404811694820194909452600160a01b90920490921660608201526001909101546080820152610eb161581d565b50600086815261016b602090815260408083206001600160a01b03891684528252918290208251808401909352805483526001015463ffffffff1690820152610ef984613b6e565b50610f0383613bf7565b506101648781548110610f1257fe5b6000918252602090912060029091020154600160d01b900463ffffffff166080850152610f3f8484613c45565b506000610f4e83868487613c86565b96505050505050505b92915050565b33600090815261012d6020526040902054600160401b90046001600160a01b031690565b610f89613f62565b6065546001600160a01b03908116911614610fd9576040805162461bcd60e51b81526020600482018190526024820152600080516020615908833981519152604482015290519081900360640190fd5b61016380546001600160601b0316600160601b6001600160a01b038416908102919091179091556040517ff40543f3e605deae7fbca26db18ff1de07eda2925d68655836eae4c167444e3290600090a250565b60008060008061103c8686613f66565b909450905061104a81613f9f565b9497909650939450505050565b61016154600160a01b90046001600160601b031681565b60975460ff166110b3576040805162461bcd60e51b815260206004820152601f6024820152600080516020615855833981519152604482015290519081900360640190fd5b6097805460ff1916905561016354600160601b90046001600160a01b031661111b576040805162461bcd60e51b81526020600482015260166024820152752b262826b4b734b7339d1037379036b4b3b930ba37b960511b604482015290519081900360640190fd5b6000610164828154811061112b57fe5b6000918252602080832060029092029091018054604080516370a0823160e01b815230600482015290519295506001600160a01b03909116939284926370a08231926024808201939291829003018186803b15801561118957600080fd5b505afa15801561119d573d6000803e3d6000fd5b505050506040513d60208110156111b357600080fd5b5051610163549091506111da906001600160a01b0384811691600160601b90041683613fb4565b61016354835460408051633b2c6a9560e01b81526001600160a01b038681166004830152600160a81b90930460ff1660248201529051600093600160601b900490921691633b2c6a959160448082019260209290919082900301818787803b15801561124557600080fd5b505af1158015611259573d6000803e3d6000fd5b505050506040513d602081101561126f57600080fd5b5051604080516370a0823160e01b815230600482015290519192506001600160a01b038316916370a0823191602480820192602092909190829003018186803b1580156112bb57600080fd5b505afa1580156112cf573d6000803e3d6000fd5b505050506040513d60208110156112e557600080fd5b5051821461133a576040805162461bcd60e51b815260206004820152601c60248201527f564c504d696e696e673a20696e76616c6964206d6967726174696f6e00000000604482015290519081900360640190fd5b83546001600160a01b0319166001600160a01b03828116918217865584166000818152610165602052604080822082905583825280822089905551889392917f98c9138ebd4290b5695f6b81a272faa7d3f9e8edc5d6fef5b4417541fea85f5491a450506097805460ff19166001179055505050565b61016254600160c01b900463ffffffff1681565b60975460ff16611409576040805162461bcd60e51b815260206004820152601f6024820152600080516020615855833981519152604482015290519081900360640190fd5b6097805460ff19169055610164805461144e91908390811061142757fe5b906000526020600020906002020161016a6000848152602001908152602001600020612e8b565b506097805460ff19166001179055565b60975460ff166114a3576040805162461bcd60e51b815260206004820152601f6024820152600080516020615855833981519152604482015290519081900360640190fd5b6097805460ff191690556114b681612d5a565b6114be612db1565b600061016482815481106114ce57fe5b60009182526020808320858452610166825260408085203380875290845281862088875261016b855282872082885290945294206001830154600290940290910180549095509193909261152c926001600160a01b031691906140cc565b80541561155057805461016154611550916001600160a01b039091169033906140cc565b600182015481546040805192835260208301919091528051869233927f2369db1bafee945aee5630782f4a170682e3f8188d8dc247a4c73eb8c9e692d292918290030190a38154600160401b90046001600160601b03161561162e57610161548254600160a01b9091046001600160601b03908116600160401b9092041611611603578154610161546115fe91600160a01b9091046001600160601b0390811691600160401b90041661411e565b611606565b60005b61016160146101000a8154816001600160601b0302191690836001600160601b031602179055505b600060018301819055825463ffffffff168355815561164c33613576565b50506097805460ff191660011790555050565b60975460ff166116a4576040805162461bcd60e51b815260206004820152601f6024820152600080516020615855833981519152604482015290519081900360640190fd5b6097805460ff1916905561144e81613576565b61016a60205260009081526040902080546001820154600283015460038401546004909401549293919263ffffffff909116919085565b6001600160a01b0381163014156117365760405162461bcd60e51b81526004018080602001828103825260308152602001806159806030913960400191505060405180910390fd5b6117403382614160565b50565b61174b613f62565b6065546001600160a01b0390811691161461179b576040805162461bcd60e51b81526020600482018190526024820152600080516020615908833981519152604482015290519081900360640190fd5b6001600160a01b038281166000818152610168602052604080822080546001600160a01b0319169486169485179055517fb7b89eb0ea057d36260d49cabb87830afa2a5fcfe748fe2ae71de060b6410f939190a35050565b6101645460005b818110156118135761180b816113c4565b6001016117fa565b5050565b6001600160a01b038416600090815261012d6020526040812081908190611848908763ffffffff808916906141dd16565b91509150816001600160c01b031660001415611869576000925050506118cc565b30600090815261012d6020526040812061188d908863ffffffff808916906141dd16565b5030600090815261012d60205260408120919250906118b79063ffffffff8086169084906141dd16565b5090506118c5848383614341565b9450505050505b949350505050565b6118dc613f62565b6065546001600160a01b0390811691161461192c576040805162461bcd60e51b81526020600482018190526024820152600080516020615908833981519152604482015290519081900360640190fd5b6065546040516000916001600160a01b0316907f8be0079c531659141344cd1fd0a4f28419497f9722a3daafe3b4186f6b6457e0908390a3606580546001600160a01b0319169055565b61197e613f62565b6065546001600160a01b039081169116146119ce576040805162461bcd60e51b81526020600482018190526024820152600080516020615908833981519152604482015290519081900360640190fd5b6119d78761286d565b15611a29576040805162461bcd60e51b815260206004820152601e60248201527f564c504d696e696e673a20746f6b656e20616c72656164792061646465640000604482015290519081900360640190fd5b611a316117f3565b6000611a3b61446b565b6101625490915060009063ffffffff600160c01b909104811690831611611a725761016254600160c01b900463ffffffff16611a74565b815b61016754909150611a85908b61346c565b6101678190555060006101648054905090506101646040518060c001604052808c6001600160a01b031681526020018a151581526020018b60ff168152602001611b048e6040518060400160405280601d81526020017f564c504d696e696e673a20746f6f2062696720616c6c6f636174696f6e0000008152506144b1565b63ffffffff1681526020018463ffffffff1681526020016000815250908060018154018082558091505060019003906000526020600020906002020160009091909190915060008201518160000160006101000a8154816001600160a01b0302191690836001600160a01b0316021790555060208201518160000160146101000a81548160ff02191690831515021790555060408201518160000160156101000a81548160ff021916908360ff16021790555060608201518160000160166101000a81548163ffffffff021916908363ffffffff160217905550608082015181600001601a6101000a81548163ffffffff021916908363ffffffff16021790555060a0820151816001015550508061016560008c6001600160a01b03166001600160a01b03168152602001908152602001600020819055508661016a6000838152602001908152602001600020600001819055508561016a6000838152602001908152602001600020600101819055508161016a600083815260200190815260200160002060020160006101000a81548163ffffffff021916908363ffffffff1602179055508461016c60008c6001600160a01b03166001600160a01b03168152602001908152602001600020819055508361016d60008c6001600160a01b03166001600160a01b0316815260200190815260200160002081905550808a6001600160a01b03167f4ca3b1f4222c9ac99ea2eb1c68764056287a101a2f63d81e21c3a7ccfcef36e48d6040518082815260200191505060405180910390a35050505050505050505050565b6000611d5e8383600080611817565b9392505050565b61012d6020526000908152604090205463ffffffff80821691600160201b810490911690600160401b90046001600160a01b031683565b61016354600160601b90046001600160a01b031681565b611dbb613f62565b6065546001600160a01b03908116911614611e0b576040805162461bcd60e51b81526020600482018190526024820152600080516020615908833981519152604482015290519081900360640190fd5b611e136117f3565b611e5a87611e546101648b81548110611e2857fe5b6000918252602090912060029091020154610167549063ffffffff600160b01b90910481169061454b16565b9061346c565b6101675560408051808201909152601d81527f564c504d696e696e673a20746f6f2062696720616c6c6f636174696f6e0000006020820152611e9d9088906144b1565b6101648981548110611eab57fe5b906000526020600020906002020160000160166101000a81548163ffffffff021916908363ffffffff160217905550846101648981548110611ee957fe5b906000526020600020906002020160000160146101000a81548160ff021916908315150217905550856101648981548110611f2057fe5b600091825260208083206002909202909101805460ff94909416600160a81b0260ff60a81b199094169390931790925589815261016a909152604081208581556001018490556101648054849261016c9290918c908110611f7d57fe5b600091825260208083206002909202909101546001600160a01b031683528201929092526040018120919091556101648054839261016d9290918c908110611fc157fe5b600091825260208083206002909202909101546001600160a01b03168352820192909252604001902055610164805489919082908110611ffd57fe5b600091825260209182902060029091020154604080518b815290516001600160a01b03909216927f0e6fb68a420d604687d312365a9cb09a342eecccc96c0dc3283dbdbb070ce10392918290030190a35050505050505050565b61016254600160a01b900463ffffffff1681565b60006118cc64e8d4a510006120bf8461209d576001600160a01b038616600090815261016d60205260409020546120b8565b6001600160a01b038616600090815261016c60205260409020545b879061458d565b906145e6565b6065546001600160a01b031690565b6101645460009083106120e957506000610f57565b6120f1615785565b61016484815481106120ff57fe5b60009182526020918290206040805160c081018252600290930290910180546001600160a01b038116845260ff600160a01b82048116151595850195909552600160a81b81049094169183019190915263ffffffff600160b01b840481166060840152600160d01b909304909216608082015260019091015460a082015290506121876157ba565b50600084815261016a6020908152604091829020825160a08101845281548152600182015492810192909252600281015463ffffffff16928201929092526003820154606082015260049091015460808201526121e26157ef565b506000858152610166602090815260408083206001600160a01b0388168452825291829020825160a081018452815463ffffffff8082168352600160201b820416938201939093526001600160601b03600160401b8404811694820194909452600160a01b9092049092166060820152600190910154608082015261226561581d565b50600086815261016b602090815260408083206001600160a01b03891684528252918290208251808401909352805483526001015463ffffffff16908201526122ad84613b6e565b506122b783613bf7565b5061016487815481106122c657fe5b6000918252602090912060029091020154600160d01b900463ffffffff1660808501526122f38484613c45565b50600061230283868487614628565b90506123248360400151826001600160601b031661469d90919063ffffffff16565b6001600160601b031698975050505050505050565b612341613f62565b6065546001600160a01b03908116911614612391576040805162461bcd60e51b81526020600482018190526024820152600080516020615908833981519152604482015290519081900360640190fd5b6123b3816040518060600160405280602b815260200161589b602b91396144b1565b610162805463ffffffff92909216600160a01b0263ffffffff60a01b199092169190911790556040805182815290517fb6d927d1177d65639186d960a1926f0aa9cd35eca2b1b244e62f50fe3bff99a09181900360200190a150565b61016c6020526000908152604090205481565b61242a613f62565b6065546001600160a01b0390811691161461247a576040805162461bcd60e51b81526020600482018190526024820152600080516020615908833981519152604482015290519081900360640190fd5b6124b9816040518060400160405280601e81526020017f564c504d696e696e673a20746f6f2062696720637670506572426c6f636b00008152506146df565b61016380546bffffffffffffffffffffffff19166001600160601b03929092169190911790556040805182815290517f11d360a0021a6a2561238805127962df1163ba47bfd43d6936083b0e0029c88d916020908290030190a150565b6000806001600160a01b038416612574576040805162461bcd60e51b815260206004820152601d60248201527f66696e64436865636b706f696e74733a207a65726f206163636f756e74000000604482015290519081900360640190fd5b6001600160a01b038416600090815261012d602052604090206125979084614734565b5030600090815261012d602052604090209092506125b59084614734565b50809150509250929050565b60975460ff16612606576040805162461bcd60e51b815260206004820152601f6024820152600080516020615855833981519152604482015290519081900360640190fd5b6097805460ff1916905561261983612d5a565b612621612db1565b6000610164848154811061263157fe5b6000918252602080832087845261016a825260408085206101668452818620338088529085528287208b885261016b86528388209188529452942060018301546002909402909101945090918611156126bb5760405162461bcd60e51b81526004018080602001828103825260218152602001806158c66021913960400191505060405180910390fd5b6126c58484612e8b565b6126d182858386613117565b85156127015760018201546126e6908761454b565b60018301558354612701906001600160a01b031633886140cc565b841561272d578054612713908661454b565b81556101615461272d906001600160a01b031633876140cc565b6001808301546040805160c08101825287546001600160a01b038116825260ff600160a01b820481161515602080850191909152600160a81b83049091168385015263ffffffff600160b01b83048116606080860191909152600160d01b90930481166080808601919091528b88015460a080870191909152865180880188528a5481528a8a0154841681860152875191820188528c548252988c01549381019390935260028b0154909116948201949094526003890154918101919091526004880154928101929092526128039390916134c6565b82546001600160601b0391909116600160a01b026001600160a01b0390911617825560408051878152602081018790528151899233927f02f25270a4d87bea75db541cdfe559334a275b4a233520ed6c0a2429667cca94929081900390910190a3610ce333613576565b6001600160a01b0381166000908152610165602052604081205461016454811080156128c85750826001600160a01b031661016482815481106128ac57fe5b60009182526020909120600290910201546001600160a01b0316145b9150505b919050565b61016481815481106128df57fe5b6000918252602090912060029091020180546001909101546001600160a01b038216925060ff600160a01b8304811692600160a81b81049091169163ffffffff600160b01b8304811692600160d01b9004169086565b6001600160a01b038116600090815261012d602052604081208190819061295b90614765565b91509150816001600160c01b03166000141561297c576000925050506128cc565b30600090815261012d6020526040812061299590614765565b5030600090815261012d60205260408120919250906129bf9063ffffffff8086169084906141dd16565b5090506129cd848383614341565b9695505050505050565b6101666020908152600092835260408084209091529082529020805460019091015463ffffffff80831692600160201b8104909116916001600160601b03600160401b8304811692600160a01b9004169085565b61016d6020526000908152604090205481565b61016b6020908152600092835260408084209091529082529020805460019091015463ffffffff1682565b600054610100900460ff1680612a825750612a82614800565b80612a90575060005460ff16155b612acb5760405162461bcd60e51b815260040180806020018281038252602e815260200180615928602e913960400191505060405180910390fd5b600054610100900460ff16158015612af6576000805460ff1961ff0019909116610100171660011790555b612afe614806565b612b066148b7565b61016180546001600160a01b038089166001600160a01b03199283161790925561016280549288169290911691909117905560408051808201909152601d81527f564c504d696e696e673a20746f6f20626967207374617274426c6f636b0000006020820152612b779084906144b1565b61016260186101000a81548163ffffffff021916908363ffffffff160217905550612bd7826040518060400160405280601e81526020017f564c504d696e696e673a20746f6f20626967207665737420706572696f6400008152506144b1565b61016260146101000a81548163ffffffff021916908363ffffffff160217905550612c0184612422565b8015612c13576000805461ff00191690555b505050505050565b610161546001600160a01b031681565b6101696020526000908152604090205481565b610163546001600160601b031681565b612c56613f62565b6065546001600160a01b03908116911614612ca6576040805162461bcd60e51b81526020600482018190526024820152600080516020615908833981519152604482015290519081900360640190fd5b6001600160a01b038116612ceb5760405162461bcd60e51b81526004018080602001828103825260268152602001806158756026913960400191505060405180910390fd5b6065546040516001600160a01b038084169216907f8be0079c531659141344cd1fd0a4f28419497f9722a3daafe3b4186f6b6457e090600090a3606580546001600160a01b0319166001600160a01b0392909216919091179055565b6101656020526000908152604090205481565b610164548110611740576040805162461bcd60e51b815260206004820152601a60248201527f564c504d696e696e673a20696e76616c696420706f6f6c206964000000000000604482015290519081900360640190fd5b32600090815261016960205260409020544311612e06576040805162461bcd60e51b815260206004820152600e60248201526d29a0a6a2afaa2c2fa7a924a3a4a760911b604482015290519081900360640190fd5b326000818152610169602052604090204390553314612e895733600090815261016960205260409020544311612e75576040805162461bcd60e51b815260206004820152600f60248201526e29a0a6a2afa6a9a3afa9a2a72222a960891b604482015290519081900360640190fd5b336000908152610169602052604090204390555b565b612e93615785565b506040805160c08101825283546001600160a01b038116825260ff600160a01b8204811615156020840152600160a81b8204169282019290925263ffffffff600160b01b830481166060830152600160d01b90920490911660808201819052600184015460a083018190526000612f0984613b6e565b855490915015612ffd57612f1b6157ba565b506040805160a0810182528654815260018701546020820152600287015463ffffffff1691810182905260038701546060820181905260048801546080830181905291929190612f74612f6d85613bf7565b869061346c565b63ffffffff881660808a01529450612f8f612f6d8986613c45565b94508184608001511115612fa857608084015160048a01555b8084606001511115612fbf57606084015160038a01555b8263ffffffff16846040015163ffffffff161115612ff857604084015160028a01805463ffffffff191663ffffffff9092169190911790555b505050505b818460a0015111156130145760a084015160018701555b8263ffffffff16846080015163ffffffff161115613051576080840151865463ffffffff909116600160d01b0263ffffffff60d01b199091161786555b8015612c13576130e8613099826040518060400160405280601a81526020017f564c504d696e696e673a3a5f646f506f6f6c5570646174653a310000000000008152506146df565b60408051808201909152601a81527f564c504d696e696e673a3a5f646f506f6f6c5570646174653a32000000000000602082015261016154600160a01b90046001600160601b03169190614965565b61016160146101000a8154816001600160601b0302191690836001600160601b03160217905550505050505050565b61311f6157ef565b506040805160a081018252855463ffffffff8082168352600160201b82041660208301526001600160601b03600160401b8204811693830193909352600160a01b900490911660608201526001850154608082015261317c61581d565b506040805180820182528454815260018086015463ffffffff908116602080850191909152858101518651865160c0810188528b546001600160a01b038116825260ff600160a01b82048116151583870152600160a81b820416828a0152600160b01b81048616606080840191909152600160d01b90910486166080808401919091528d88015460a0808501919091528a519081018b528c548152978c01549588019590955260028b01549095169786019790975260038901549385019390935260048801549184019190915292939091600091829161325f9188918890613c86565b91509150816000146132a05760408601518a546001600160601b03909116600160401b0273ffffffffffffffffffffffff000000000000000019909116178a555b80156133995761016154600160a01b90046001600160601b03168111156132d7575061016154600160a01b90046001600160601b03165b613368613319826040518060400160405280601981526020017f564c504d696e696e673a3a5f76657374557365724376703a31000000000000008152506146df565b60408051808201909152601981527f564c504d696e696e673a3a5f76657374557365724376703a3200000000000000602082015261016154600160a01b90046001600160601b031691906149cf565b61016160146101000a8154816001600160601b0302191690836001600160601b031602179055506133993382614a3c565b8363ffffffff16866020015163ffffffff1611156133d75760208601518a5463ffffffff909116600160201b0267ffffffff0000000019909116178a555b855163ffffffff808516911611156134005785518a5463ffffffff191663ffffffff909116178a555b50505050505050505050565b604080516001600160a01b0380861660248301528416604482015260648082018490528251808303909101815260849091019091526020810180516001600160e01b03166323b872dd60e01b179052613466908590614a5c565b50505050565b600082820183811015611d5e576040805162461bcd60e51b815260206004820152601b60248201527f536166654d6174683a206164646974696f6e206f766572666c6f770000000000604482015290519081900360640190fd5b60006134d6858560a00151614c14565b90508160200151600014806134ea57508151155b806135045750613500858560000151600161206b565b8351105b8061351e575061351a858560000151600061206b565b8351115b15613528576118cc565b61356d613539868460600151614c14565b61355e61354e86600001518660800151614c14565b6001600160601b0385169061469d565b6001600160601b03169061469d565b95945050505050565b6101645460008080805b84811015613a3e576000818152610166602090815260408083206001600160a01b038a1684529091529020546135c9906001600160601b0386811691600160401b90041661469d565b9350600061016482815481106135db57fe5b60009182526020808320600290920290910180546001600160a01b03908116808552610168909352604084205491945016806136e55761016154604080516370a0823160e01b81526001600160a01b03858116600483015291516136c99392909216916370a0823191602480820192602092909190829003018186803b15801561366457600080fd5b505afa158015613678573d6000803e3d6000fd5b505050506040513d602081101561368e57600080fd5b505160408051808201909152601f81527f564c504d696e696e673a3a5f646f436865636b706f696e74566f7465733a310060208201526146df565b92506136de6001600160601b0387168461469d565b95506138b9565b6000816001600160a01b03166318160ddd6040518163ffffffff1660e01b815260040160206040518083038186803b15801561372057600080fd5b505afa158015613734573d6000803e3d6000fd5b505050506040513d602081101561374a57600080fd5b5051604080516370a0823160e01b81526001600160a01b0386811660048301529151929350600092918516916370a0823191602480820192602092909190829003018186803b15801561379c57600080fd5b505afa1580156137b0573d6000803e3d6000fd5b505050506040513d60208110156137c657600080fd5b5051905060006137df836120bf8464e8d4a5100061458d565b61016154604080516370a0823160e01b81526001600160a01b038881166004830152915193945060009391909216916370a08231916024808301926020929190829003018186803b15801561383357600080fd5b505afa158015613847573d6000803e3d6000fd5b505050506040513d602081101561385d57600080fd5b505190506138b261387764e8d4a510006120bf848661458d565b6040518060400160405280601f81526020017f564c504d696e696e673a3a5f646f436865636b706f696e74566f7465733a31008152506146df565b9650505050505b8354600160a01b900460ff166138d25750505050613a36565b8354604080516318160ddd60e01b815290516000926001600160a01b0316916318160ddd916004808301926020929190829003018186803b15801561391657600080fd5b505afa15801561392a573d6000803e3d6000fd5b505050506040513d602081101561394057600080fd5b810190808051906020019092919050505090506000610166600088815260200190815260200160002060008d6001600160a01b03166001600160a01b03168152602001908152602001600020600101549050806000141580156139a257508115155b15613a2f5760006139c5836120bf6001600160601b03891664e8d4a5100061458d565b905060006139dc64e8d4a510006120bf858561458d565b90506139e88b8261346c565b9a50888e6001600160a01b03167f84f3863b4a309d20b83ad6a41ab2860bf0603f2e4cdab881907e7a847276a661836040518082815260200191505060405180910390a350505b5050505050505b600101613580565b506000821580613a5557506001600160601b038216155b613ab857613ab3613a786001600160601b0384166120bf8664e8d4a5100061458d565b6040518060400160405280601f81526020017f564c504d696e696e673a3a5f646f436865636b706f696e74566f7465733a32008152506146df565b613abb565b60005b604080516001600160601b038516815290519192507fa51ed239c57bb58dd90b5196b2a3a35e8254954f924d0a8eed8e68460d90254f919081900360200190a1604080516001600160601b0380871682528316602082015281516001600160a01b038916927ff55c0f893af4049399318f4399e95624341f7d36e6958902eb15a73ab771c14f928290030190a2613b5b86613b568684614c67565b614c8b565b612c13613b69836000614c67565b614d65565b6000613bdf826080015163ffffffff168360a001518460000151613bda61016360009054906101000a90046001600160601b03166001600160601b0316613bd4610167546120bf8a6060015163ffffffff1664e8d4a5100061458d90919063ffffffff16565b9061458d565b614d7f565b63ffffffff16608085015260a0909301929092525090565b6000613c2d826040015163ffffffff16836080015161016160009054906101000a90046001600160a01b03168560200151614d7f565b63ffffffff1660408501526080909301929092525090565b6000613c69836080015163ffffffff16836060015185600001518560000151614d7f565b63ffffffff16608090950194909452606090920192909252919050565b83516000908190613c9561446b565b63ffffffff90811680895290821610613cb5576000809250925050613f59565b8651819003613cc688888888614628565b6001600160601b0316935060008415613d0a5761016254613d059063ffffffff600160a01b909104811684018116906120bf9088908681169061458d16565b613d0d565b60005b9050600089604001516001600160601b03169050896020015163ffffffff168a6000015163ffffffff161015613d47578951849003613d59565b61016254600160a01b900463ffffffff165b925060008115613db4576101625463ffffffff600160a01b90910481169085161015613dad57613da8858c602001510363ffffffff166120bf8663ffffffff168561458d90919063ffffffff16565b613daf565b815b613db7565b60005b9050613dc3818461346c565b9550613e2d613df287613dec8a8f604001516001600160601b031661346c90919063ffffffff16565b9061454b565b6040518060400160405280601b81526020017f564c504d696e696e673a3a636f6d70757465437670566573743a3100000000008152506146df565b6001600160601b031660408c015260008215613e5257613e4d838361454b565b613e55565b60005b905060008815613e6e57613e69898661454b565b613e71565b60005b90506000613e7f838361346c565b90506000831580613e8e575081155b15613eaa575061016254600160a01b900463ffffffff16613f00565b8e600001518f60200151039750613efd826120bf613eea61016260149054906101000a900463ffffffff1663ffffffff168761458d90919063ffffffff16565b611e548863ffffffff808f169061458d16565b90505b6101625463ffffffff808316600160a01b9092041611613f305761016254600160a01b900463ffffffff16613f32565b805b8f60000151018f6020019063ffffffff16908163ffffffff16815250505050505050505050505b94509492505050565b3390565b6001600160a01b038216600090815261012d602052604081208190613f949063ffffffff80861690614e6516565b909590945092505050565b6001600160601b03606082901c811692911690565b80158061403a575060408051636eb1769f60e11b81523060048201526001600160a01b03848116602483015291519185169163dd62ed3e91604480820192602092909190829003018186803b15801561400c57600080fd5b505afa158015614020573d6000803e3d6000fd5b505050506040513d602081101561403657600080fd5b5051155b6140755760405162461bcd60e51b81526004018080602001828103825260368152602001806159b06036913960400191505060405180910390fd5b604080516001600160a01b038416602482015260448082018490528251808303909101815260649091019091526020810180516001600160e01b031663095ea7b360e01b1790526140c7908490614a5c565b505050565b604080516001600160a01b038416602482015260448082018490528251808303909101815260649091019091526020810180516001600160e01b031663a9059cbb60e01b1790526140c7908490614a5c565b6000611d5e83836040518060400160405280602081526020017f536166654d61746839363a207375627472616374696f6e206f766572666c6f778152506149cf565b6001600160a01b03808316600081815261012d60205260408082208054868616600160401b81810268010000000000000000600160e01b03198416179093559251919004909416939092849290917f3134e8a2e6d97e929a7e54011ea5485d7d196dd5f0ba4d4ef95803e8e3fc257f9190a46140c7838284614e9d565b60008060006141eb85614fe6565b90506141f5615834565b5060408051606081018252875463ffffffff8082168352600160201b8204166020830152600160401b90046001600160a01b03169181019190915261423861581d565b851561430257815163ffffffff1686111561429a576040805162461bcd60e51b815260206004820152601f60248201527f4368506f696e74733a20696e76616c696420636865636b706f696e7420696400604482015290519081900360640190fd5b5063ffffffff8581166000908152600189016020908152604091829020825180840190935254808416808452600160201b9091046001600160c01b0316918301919091529091879190851614156143005750602081015190519094509250614339915050565b505b6000806143148a856000015187615045565b63ffffffff918216600090815260018d01602052604090205490985016955050505050505b935093915050565b600080600061434f86613f9f565b91509150600061435e86613f9f565b509050600061436c86613f9f565b5090506001600160601b03831661438557839450614460565b60006143a664e8d4a510006120bf6001600160601b0387811690871661458d565b9050816001600160601b0316836001600160601b03161461440a5760006143e36001600160601b03808516906120bf90871664e8d4a5100061458d565b905064e8d4a5100081111561440857614405816120bf8464e8d4a5100061458d565b91505b505b61445c61444c826040518060400160405280601881526020017f564c504d696e696e673a3a5f636f6d70757465566f74657300000000000000008152506146df565b6001600160601b0387169061469d565b9550505b505050509392505050565b60006144ac436040518060400160405280601e81526020017f564c504d696e696e673a3a5f63757272426c6f636b3a6f766572666c6f7700008152506144b1565b905090565b600081600160201b84106145435760405162461bcd60e51b81526004018080602001828103825283818151815260200191508051906020019080838360005b838110156145085781810151838201526020016144f0565b50505050905090810190601f1680156145355780820380516001836020036101000a031916815260200191505b509250505060405180910390fd5b509192915050565b6000611d5e83836040518060400160405280601e81526020017f536166654d6174683a207375627472616374696f6e206f766572666c6f7700008152506151dd565b60008261459c57506000610f57565b828202828482816145a957fe5b0414611d5e5760405162461bcd60e51b81526004018080602001828103825260218152602001806158e76021913960400191505060405180910390fd5b6000611d5e83836040518060400160405280601a81526020017f536166654d6174683a206469766973696f6e206279207a65726f00000000000081525061522f565b600084608001516000141561463f575060006118cc565b61356d85606001516040518060400160405280601781526020017f564c504d696e696e673a3a636f6d707574654376703a3200000000000000000081525061468d88608001518888886134c6565b6001600160601b031691906149cf565b6000611d5e83836040518060400160405280601d81526020017f536166654d61746839363a206164646974696f6e206f766572666c6f77000000815250614965565b600081600160601b84106145435760405162461bcd60e51b81526020600482018181528351602484015283519092839260449091019190850190808383600083156145085781810151838201526020016144f0565b600080600061474284614fe6565b855490915063ffffffff16614758868284615045565b9097909650945050505050565b600080614770615834565b5060408051606081018252845463ffffffff808216808452600160201b83049091166020840152600160401b9091046001600160a01b03169282019290925290156147f257805163ffffffff908116600090815260018601602052604080822054845184168352912054600160201b9091046001600160c01b031691166147f6565b6000805b9250925050915091565b303b1590565b600054610100900460ff168061481f575061481f614800565b8061482d575060005460ff16155b6148685760405162461bcd60e51b815260040180806020018281038252602e815260200180615928602e913960400191505060405180910390fd5b600054610100900460ff16158015614893576000805460ff1961ff0019909116610100171660011790555b61489b615294565b6148a3615334565b8015611740576000805461ff001916905550565b600054610100900460ff16806148d057506148d0614800565b806148de575060005460ff16155b6149195760405162461bcd60e51b815260040180806020018281038252602e815260200180615928602e913960400191505060405180910390fd5b600054610100900460ff16158015614944576000805460ff1961ff0019909116610100171660011790555b6097805460ff191660011790558015611740576000805461ff001916905550565b6000838301826001600160601b0380871690831610156149c65760405162461bcd60e51b81526020600482018181528351602484015283519092839260449091019190850190808383600083156145085781810151838201526020016144f0565b50949350505050565b6000836001600160601b0316836001600160601b031611158290614a345760405162461bcd60e51b81526020600482018181528351602484015283519092839260449091019190850190808383600083156145085781810151838201526020016144f0565b505050900390565b6101615461016254611813916001600160a01b039081169116848461340c565b614a6e826001600160a01b031661542d565b614abf576040805162461bcd60e51b815260206004820152601f60248201527f5361666545524332303a2063616c6c20746f206e6f6e2d636f6e747261637400604482015290519081900360640190fd5b60006060836001600160a01b0316836040518082805190602001908083835b60208310614afd5780518252601f199092019160209182019101614ade565b6001836020036101000a0380198251168184511680821785525050505050509050019150506000604051808303816000865af19150503d8060008114614b5f576040519150601f19603f3d011682016040523d82523d6000602084013e614b64565b606091505b509150915081614bbb576040805162461bcd60e51b815260206004820181905260248201527f5361666545524332303a206c6f772d6c6576656c2063616c6c206661696c6564604482015290519081900360640190fd5b80511561346657808060200190516020811015614bd757600080fd5b50516134665760405162461bcd60e51b815260040180806020018281038252602a815260200180615956602a913960400191505060405180910390fd5b6000611d5e614c2c64e8d4a510006120bf868661458d565b6040518060400160405280601981526020017f564c504d696e696e673a3a5f636f6d7075746543767041646a000000000000008152506146df565b6001600160601b031660609190911b6bffffffffffffffffffffffff60601b161790565b6001600160a01b03808316600090815261012d6020526040812080549092600160401b90910416908115614cd7576001600160a01b038216600090815261012d60205260409020614cd9565b825b90506000614ce682614765565b506001600160a01b038716600090815261012e6020526040902054909150614d2590614d1e90839088906001600160c01b0316615466565b83906154c4565b505050506001600160a01b0392909216600090815261012e6020526040902080546001600160c01b0319166001600160c01b039290921691909117905550565b30600090815261012d6020526040902061181390826154c4565b60008381614d8b61446b565b9050868163ffffffff161115614e5b57604080516370a0823160e01b8152306004820152905163ffffffff8316899003916000916001600160a01b038916916370a08231916024808301926020929190829003018186803b158015614def57600080fd5b505afa158015614e03573d6000803e3d6000fd5b505050506040513d6020811015614e1957600080fd5b505190508015614e5857614e3664e8d4a510006120bf848961458d565b9450614e55614e4e826120bf8864e8d4a5100061458d565b859061346c565b93505b50505b9450945094915050565b600080821580614e7b5750835463ffffffff1683115b614e8e57614e89848461563f565b614e92565b6000805b915091509250929050565b6000806001600160a01b038416614ed75750506001600160a01b03808416600090815261012d602052604080822092841682529020614f33565b6001600160a01b038316614f0e5750506001600160a01b03808316600090815261012d602052604080822092861682529020614f33565b50506001600160a01b03808316600090815261012d6020526040808220928416825290205b6001600160a01b038516600090815261012e60205260408120546001600160c01b031690614f6084614765565b5090506000614f7182600085615466565b9050806001600160c01b0316826001600160c01b031614614f9857614f9685826154c4565b505b6000614fa385614765565b5090506000614fb482866000615466565b9050806001600160c01b0316826001600160c01b03161461340057614fd986826154c4565b5050505050505050505050565b600043821061503c576040805162461bcd60e51b815260206004820152601d60248201527f4368506f696e74733a20626c6f636b206e6f7420796574206d696e6564000000604482015290519081900360640190fd5b610f5782615673565b60008061505061581d565b63ffffffff8516615068576000809250925050614339565b5063ffffffff8481166000908152600187016020908152604091829020825180840190935254808416808452600160201b9091046001600160c01b03169183019190915290918516106150c357602001518492509050614339565b60016000818152908701602052604090205463ffffffff808616911611156150f2576000809250925050614339565b6001855b8163ffffffff168163ffffffff1611156151a5576000600263ffffffff8484031604820363ffffffff818116600090815260018c016020908152604091829020825180840190935254808416808452600160201b9091046001600160c01b0316918301919091529096509192508816141561517e578084602001519550955050505050614339565b835163ffffffff808916911610156151985780925061519f565b6001810391505b506150f6565b5063ffffffff811660009081526001880160205260409020549093506001600160c01b03600160201b90910416915050935093915050565b60008184841115614a345760405162461bcd60e51b81526020600482018181528351602484015283519092839260449091019190850190808383600083156145085781810151838201526020016144f0565b6000818361527e5760405162461bcd60e51b81526020600482018181528351602484015283519092839260449091019190850190808383600083156145085781810151838201526020016144f0565b50600083858161528a57fe5b0495945050505050565b600054610100900460ff16806152ad57506152ad614800565b806152bb575060005460ff16155b6152f65760405162461bcd60e51b815260040180806020018281038252602e815260200180615928602e913960400191505060405180910390fd5b600054610100900460ff161580156148a3576000805460ff1961ff0019909116610100171660011790558015611740576000805461ff001916905550565b600054610100900460ff168061534d575061534d614800565b8061535b575060005460ff16155b6153965760405162461bcd60e51b815260040180806020018281038252602e815260200180615928602e913960400191505060405180910390fd5b600054610100900460ff161580156153c1576000805460ff1961ff0019909116610100171660011790555b60006153cb613f62565b606580546001600160a01b0319166001600160a01b038316908117909155604051919250906000907f8be0079c531659141344cd1fd0a4f28419497f9722a3daafe3b4186f6b6457e0908290a3508015611740576000805461ff001916905550565b6000813f7fc5d2460186f7233c927e7db2dcc703c0e500b653ca82273b7bfad8045d85a4708181148015906118cc575050151592915050565b600080600061547486613f9f565b9150915060008061548487613f9f565b9150915060008061549488613f9f565b915091506154b66154a68786856156d1565b6154b18786856156d1565b614c67565b9a9950505050505050505050565b6000806154d043615673565b90506154da615834565b5060408051606081018252855463ffffffff808216808452600160201b83049091166020840152600160401b9091046001600160a01b03169282019290925290600090615528576000615552565b815163ffffffff166000908152600187016020526040902054600160201b90046001600160c01b03165b90506000816001600160c01b0316866001600160c01b0316141590508363ffffffff16836020015163ffffffff16146155bd57508151600190810163ffffffff908116808552885463ffffffff19161767ffffffff000000001916600160201b918616919091021787555b80156156345760408051808201825263ffffffff86811682526001600160c01b03898116602080850191825288518416600090815260018e019091529490942092518354945163ffffffff19909516921691909117640100000000600160e01b031916600160201b93909116929092029190911790555b505051949350505050565b63ffffffff908116600090815260019290920160205260409091205490811691600160201b9091046001600160c01b031690565b6000600160201b82106156cd576040805162461bcd60e51b815260206004820152601b60248201527f4368506f696e74733a20626c6f636b4e756d203e3d20322a2a33320000000000604482015290519081900360640190fd5b5090565b6000816001600160601b0316836001600160601b031614156156f4575082611d5e565b816001600160601b0316836001600160601b0316111561573b576157346157246001600160601b0385168461411e565b6001600160601b0386169061469d565b9050611d5e565b60006157506001600160601b0384168561411e565b9050806001600160601b0316856001600160601b03161161577257600061356d565b61356d6001600160601b0386168261411e565b6040805160c081018252600080825260208201819052918101829052606081018290526080810182905260a081019190915290565b6040518060a001604052806000815260200160008152602001600063ffffffff16815260200160008152602001600081525090565b6040805160a08101825260008082526020820181905291810182905260608101829052608081019190915290565b604080518082019091526000808252602082015290565b60408051606081018252600080825260208201819052918101919091529056fe5265656e7472616e637947756172643a207265656e7472616e742063616c6c004f776e61626c653a206e6577206f776e657220697320746865207a65726f2061646472657373564c504d696e696e673a20746f6f206269672063767056657374696e67506572696f64496e426c6f636b73564c504d696e696e673a20616d6f756e7420657863656564732062616c616e6365536166654d6174683a206d756c7469706c69636174696f6e206f766572666c6f774f776e61626c653a2063616c6c6572206973206e6f7420746865206f776e6572436f6e747261637420696e7374616e63652068617320616c7265616479206265656e20696e697469616c697a65645361666545524332303a204552433230206f7065726174696f6e20646964206e6f74207375636365656464656c65676174653a2063616e27742064656c656761746520746f2074686520636f6e747261637420616464726573735361666545524332303a20617070726f76652066726f6d206e6f6e2d7a65726f20746f206e6f6e2d7a65726f20616c6c6f77616e6365a2646970667358221220614a1d14ae46d3b77c451b3f9d72f8ac7c615acd20afb19d5b4d153c425cc7ec64736f6c634300060c0033"
  }
}