{
  "opcodeHash": "0x2bb3560734da1046a3a0b6721bd5cf3edc4f0e29905cac60527bd5cb5f372fcd",
  "metalessHash": "0xb180e18d1db7c522eb0971daa8047402261339c39bb6ea2d3ea6095e6176eee2",
  "runtimeHash": "0x87d6cafdf1b68c3c8a79e82dd2bacacb06043f86236937188f7d07b6121bd2e0",
  "encodedMetadata": [
    {
      "ipfs": "/ipfs/QmSXvTkUDiEm8r1dtvSfenNNvc3JuMptkqPDnpAWjiY6PS",
      "solc": "0.8.7"
    }
  ],
  "abi": [
    {
      "inputs": [
        {
          "internalType": "string",
          "name": "hiddenURI_",
          "type": "string"
        }
      ],
      "stateMutability": "nonpayable",
      "type": "constructor"
    },
    {
      "anonymous": false,
      "inputs": [
        {
          "indexed": true,
          "internalType": "address",
          "name": "owner",
          "type": "address"
        },
        {
          "indexed": true,
          "internalType": "address",
          "name": "approved",
          "type": "address"
        },
        {
          "indexed": true,
          "internalType": "uint256",
          "name": "tokenId",
          "type": "uint256"
        }
      ],
      "name": "Approval",
      "type": "event"
    },
    {
      "anonymous": false,
      "inputs": [
        {
          "indexed": true,
          "internalType": "address",
          "name": "owner",
          "type": "address"
        },
        {
          "indexed": true,
          "internalType": "address",
          "name": "operator",
          "type": "address"
        },
        {
          "indexed": false,
          "internalType": "bool",
          "name": "approved",
          "type": "bool"
        }
      ],
      "name": "ApprovalForAll",
      "type": "event"
    },
    {
      "anonymous": false,
      "inputs": [
        {
          "indexed": true,
          "internalType": "address",
          "name": "previousOwner",
          "type": "address"
        },
        {
          "indexed": true,
          "internalType": "address",
          "name": "newOwner",
          "type": "address"
        }
      ],
      "name": "OwnershipTransferred",
      "type": "event"
    },
    {
      "anonymous": false,
      "inputs": [
        {
          "indexed": true,
          "internalType": "address",
          "name": "from",
          "type": "address"
        },
        {
          "indexed": true,
          "internalType": "address",
          "name": "to",
          "type": "address"
        },
        {
          "indexed": true,
          "internalType": "uint256",
          "name": "tokenId",
          "type": "uint256"
        }
      ],
      "name": "Transfer",
      "type": "event"
    },
    {
      "inputs": [
        {
          "internalType": "address[]",
          "name": "addresses",
          "type": "address[]"
        }
      ],
      "name": "adminMint",
      "outputs": [],
      "stateMutability": "nonpayable",
      "type": "function"
    },
    {
      "inputs": [
        {
          "internalType": "string",
          "name": "baseURI_",
          "type": "string"
        }
      ],
      "name": "adminSetBaseURI",
      "outputs": [],
      "stateMutability": "nonpayable",
      "type": "function"
    },
    {
      "inputs": [
        {
          "internalType": "bool",
          "name": "publicSale_",
          "type": "bool"
        },
        {
          "internalType": "bool",
          "name": "whitelistSale_",
          "type": "bool"
        }
      ],
      "name": "adminSetSales",
      "outputs": [],
      "stateMutability": "nonpayable",
      "type": "function"
    },
    {
      "inputs": [
        {
          "internalType": "address",
          "name": "signer_",
          "type": "address"
        }
      ],
      "name": "adminSetSigner",
      "outputs": [],
      "stateMutability": "nonpayable",
      "type": "function"
    },
    {
      "inputs": [
        {
          "internalType": "address",
          "name": "stakingAddress_",
          "type": "address"
        }
      ],
      "name": "adminSetStakingAddress",
      "outputs": [],
      "stateMutability": "nonpayable",
      "type": "function"
    },
    {
      "inputs": [],
      "name": "adminWithdraw",
      "outputs": [],
      "stateMutability": "nonpayable",
      "type": "function"
    },
    {
      "inputs": [
        {
          "internalType": "address",
          "name": "to",
          "type": "address"
        },
        {
          "internalType": "uint256",
          "name": "tokenId",
          "type": "uint256"
        }
      ],
      "name": "approve",
      "outputs": [],
      "stateMutability": "nonpayable",
      "type": "function"
    },
    {
      "inputs": [
        {
          "internalType": "address",
          "name": "owner",
          "type": "address"
        }
      ],
      "name": "balanceOf",
      "outputs": [
        {
          "internalType": "uint256",
          "name": "",
          "type": "uint256"
        }
      ],
      "stateMutability": "view",
      "type": "function"
    },
    {
      "inputs": [
        {
          "internalType": "uint256",
          "name": "tokenId",
          "type": "uint256"
        }
      ],
      "name": "getApproved",
      "outputs": [
        {
          "internalType": "address",
          "name": "",
          "type": "address"
        }
      ],
      "stateMutability": "view",
      "type": "function"
    },
    {
      "inputs": [
        {
          "internalType": "address",
          "name": "owner",
          "type": "address"
        },
        {
          "internalType": "address",
          "name": "operator",
          "type": "address"
        }
      ],
      "name": "isApprovedForAll",
      "outputs": [
        {
          "internalType": "bool",
          "name": "",
          "type": "bool"
        }
      ],
      "stateMutability": "view",
      "type": "function"
    },
    {
      "inputs": [],
      "name": "name",
      "outputs": [
        {
          "internalType": "string",
          "name": "",
          "type": "string"
        }
      ],
      "stateMutability": "view",
      "type": "function"
    },
    {
      "inputs": [],
      "name": "owner",
      "outputs": [
        {
          "internalType": "address",
          "name": "",
          "type": "address"
        }
      ],
      "stateMutability": "view",
      "type": "function"
    },
    {
      "inputs": [
        {
          "internalType": "uint256",
          "name": "tokenId",
          "type": "uint256"
        }
      ],
      "name": "ownerOf",
      "outputs": [
        {
          "internalType": "address",
          "name": "",
          "type": "address"
        }
      ],
      "stateMutability": "view",
      "type": "function"
    },
    {
      "inputs": [
        {
          "internalType": "uint256",
          "name": "amount",
          "type": "uint256"
        }
      ],
      "name": "publicMint",
      "outputs": [],
      "stateMutability": "payable",
      "type": "function"
    },
    {
      "inputs": [],
      "name": "publicSale",
      "outputs": [
        {
          "internalType": "bool",
          "name": "",
          "type": "bool"
        }
      ],
      "stateMutability": "view",
      "type": "function"
    },
    {
      "inputs": [],
      "name": "renounceOwnership",
      "outputs": [],
      "stateMutability": "nonpayable",
      "type": "function"
    },
    {
      "inputs": [
        {
          "internalType": "address",
          "name": "from",
          "type": "address"
        },
        {
          "internalType": "address",
          "name": "to",
          "type": "address"
        },
        {
          "internalType": "uint256",
          "name": "tokenId",
          "type": "uint256"
        }
      ],
      "name": "safeTransferFrom",
      "outputs": [],
      "stateMutability": "nonpayable",
      "type": "function"
    },
    {
      "inputs": [
        {
          "internalType": "address",
          "name": "from",
          "type": "address"
        },
        {
          "internalType": "address",
          "name": "to",
          "type": "address"
        },
        {
          "internalType": "uint256",
          "name": "tokenId",
          "type": "uint256"
        },
        {
          "internalType": "bytes",
          "name": "_data",
          "type": "bytes"
        }
      ],
      "name": "safeTransferFrom",
      "outputs": [],
      "stateMutability": "nonpayable",
      "type": "function"
    },
    {
      "inputs": [
        {
          "internalType": "address",
          "name": "operator",
          "type": "address"
        },
        {
          "internalType": "bool",
          "name": "approved",
          "type": "bool"
        }
      ],
      "name": "setApprovalForAll",
      "outputs": [],
      "stateMutability": "nonpayable",
      "type": "function"
    },
    {
      "inputs": [],
      "name": "stakingAddress",
      "outputs": [
        {
          "internalType": "address",
          "name": "",
          "type": "address"
        }
      ],
      "stateMutability": "view",
      "type": "function"
    },
    {
      "inputs": [
        {
          "internalType": "address",
          "name": "from",
          "type": "address"
        },
        {
          "internalType": "uint256",
          "name": "id",
          "type": "uint256"
        }
      ],
      "name": "stakingTakeToken",
      "outputs": [],
      "stateMutability": "nonpayable",
      "type": "function"
    },
    {
      "inputs": [
        {
          "internalType": "bytes4",
          "name": "interfaceId",
          "type": "bytes4"
        }
      ],
      "name": "supportsInterface",
      "outputs": [
        {
          "internalType": "bool",
          "name": "",
          "type": "bool"
        }
      ],
      "stateMutability": "view",
      "type": "function"
    },
    {
      "inputs": [],
      "name": "symbol",
      "outputs": [
        {
          "internalType": "string",
          "name": "",
          "type": "string"
        }
      ],
      "stateMutability": "view",
      "type": "function"
    },
    {
      "inputs": [
        {
          "internalType": "uint256",
          "name": "tokenId",
          "type": "uint256"
        }
      ],
      "name": "tokenURI",
      "outputs": [
        {
          "internalType": "string",
          "name": "",
          "type": "string"
        }
      ],
      "stateMutability": "view",
      "type": "function"
    },
    {
      "inputs": [],
      "name": "totalSupply",
      "outputs": [
        {
          "internalType": "uint256",
          "name": "",
          "type": "uint256"
        }
      ],
      "stateMutability": "view",
      "type": "function"
    },
    {
      "inputs": [
        {
          "internalType": "address",
          "name": "from",
          "type": "address"
        },
        {
          "internalType": "address",
          "name": "to",
          "type": "address"
        },
        {
          "internalType": "uint256",
          "name": "tokenId",
          "type": "uint256"
        }
      ],
      "name": "transferFrom",
      "outputs": [],
      "stateMutability": "nonpayable",
      "type": "function"
    },
    {
      "inputs": [
        {
          "internalType": "address",
          "name": "newOwner",
          "type": "address"
        }
      ],
      "name": "transferOwnership",
      "outputs": [],
      "stateMutability": "nonpayable",
      "type": "function"
    },
    {
      "inputs": [
        {
          "internalType": "uint256",
          "name": "amount",
          "type": "uint256"
        },
        {
          "internalType": "bytes",
          "name": "signature",
          "type": "bytes"
        }
      ],
      "name": "whitelistMint",
      "outputs": [],
      "stateMutability": "payable",
      "type": "function"
    },
    {
      "inputs": [
        {
          "internalType": "address",
          "name": "",
          "type": "address"
        }
      ],
      "name": "whitelistMints",
      "outputs": [
        {
          "internalType": "uint256",
          "name": "",
          "type": "uint256"
        }
      ],
      "stateMutability": "view",
      "type": "function"
    },
    {
      "inputs": [],
      "name": "whitelistSale",
      "outputs": [
        {
          "internalType": "bool",
          "name": "",
          "type": "bool"
        }
      ],
      "stateMutability": "view",
      "type": "function"
    }
  ],
  "bytecode": {
    "object": "6080604052600160075561172f600855600b80546001600160a01b031990811673571a7d7a73077d74f241df9e627981720e354e6a17909155600c805490911690553480156200004e57600080fd5b5060405162002b0838038062002b08833981016040819052620000719162000207565b604080518082018252600781526609acae8c2acc2f60cb1b6020808301918252835180850190945260038452620ac82b60eb1b908401528151919291620000bb9160009162000161565b508051620000d190600190602084019062000161565b505050620000ee620000e86200010b60201b60201c565b6200010f565b80516200010390600a90602084019062000161565b505062000336565b3390565b600680546001600160a01b038381166001600160a01b0319831681179093556040519116919082907f8be0079c531659141344cd1fd0a4f28419497f9722a3daafe3b4186f6b6457e090600090a35050565b8280546200016f90620002e3565b90600052602060002090601f016020900481019282620001935760008555620001de565b82601f10620001ae57805160ff1916838001178555620001de565b82800160010185558215620001de579182015b82811115620001de578251825591602001919060010190620001c1565b50620001ec929150620001f0565b5090565b5b80821115620001ec5760008155600101620001f1565b600060208083850312156200021b57600080fd5b82516001600160401b03808211156200023357600080fd5b818501915085601f8301126200024857600080fd5b8151818111156200025d576200025d62000320565b604051601f8201601f19908116603f0116810190838211818310171562000288576200028862000320565b816040528281528886848701011115620002a157600080fd5b600093505b82841015620002c55784840186015181850187015292850192620002a6565b82841115620002d75760008684830101525b98975050505050505050565b600181811c90821680620002f857607f821691505b602082108114156200031a57634e487b7160e01b600052602260045260246000fd5b50919050565b634e487b7160e01b600052604160045260246000fd5b6127c280620003466000396000f3fe6080604052600436106101cc5760003560e01c806342842e0e116100f75780639e852f7511610095578063d7b4be2411610064578063d7b4be2414610522578063e985e9c514610542578063f18d20be1461058b578063f2fde38b146105a057600080fd5b80639e852f75146104af578063a22cb465146104c2578063b88d4fde146104e2578063c87b56dd1461050257600080fd5b8063715018a6116100d1578063715018a6146104475780638da5cb5b1461045c57806395d89b411461047a57806398c2f5651461048f57600080fd5b806342842e0e146103e75780636352211e1461040757806370a082311461042757600080fd5b80631b11800d1161016f57806331ffd6f11161013e57806331ffd6f11461036557806333bc1c5c14610386578063372fade1146103a75780633e976df5146103c757600080fd5b80631b11800d146102f257806321cbb5bd1461031257806323b872dd146103325780632db115441461035257600080fd5b806306fdde03116101ab57806306fdde0314610263578063081812fc14610285578063095ea7b3146102bd57806318160ddd146102dd57600080fd5b80628af2e6146101d157806301ffc9a71461021157806305b7891514610241575b600080fd5b3480156101dd57600080fd5b506101fe6101ec366004611fd7565b600d6020526000908152604090205481565b6040519081526020015b60405180910390f35b34801561021d57600080fd5b5061023161022c3660046121ed565b6105c0565b6040519015158152602001610208565b34801561024d57600080fd5b5061026161025c3660046121d1565b610612565b005b34801561026f57600080fd5b50610278610679565b60405161020891906124de565b34801561029157600080fd5b506102a56102a0366004612270565b61070b565b6040516001600160a01b039091168152602001610208565b3480156102c957600080fd5b506102616102d83660046120f3565b6107a0565b3480156102e957600080fd5b506101fe6108b6565b3480156102fe57600080fd5b5061026161030d366004611fd7565b6108e6565b34801561031e57600080fd5b5061026161032d36600461211d565b610932565b34801561033e57600080fd5b5061026161034d366004612025565b6109ec565b610261610360366004612270565b610a1d565b34801561037157600080fd5b50600c5461023190600160a81b900460ff1681565b34801561039257600080fd5b50600c5461023190600160a01b900460ff1681565b3480156103b357600080fd5b506102616103c23660046120f3565b610af5565b3480156103d357600080fd5b506102616103e2366004612227565b610b1b565b3480156103f357600080fd5b50610261610402366004612025565b610b58565b34801561041357600080fd5b506102a5610422366004612270565b610b73565b34801561043357600080fd5b506101fe610442366004611fd7565b610bea565b34801561045357600080fd5b50610261610c71565b34801561046857600080fd5b506006546001600160a01b03166102a5565b34801561048657600080fd5b50610278610ca7565b34801561049b57600080fd5b506102616104aa366004611fd7565b610cb6565b6102616104bd366004612289565b610d02565b3480156104ce57600080fd5b506102616104dd3660046120c9565b610eff565b3480156104ee57600080fd5b506102616104fd366004612061565b610f0a565b34801561050e57600080fd5b5061027861051d366004612270565b610f42565b34801561052e57600080fd5b50600c546102a5906001600160a01b031681565b34801561054e57600080fd5b5061023161055d366004611ff2565b6001600160a01b03918216600090815260056020908152604080832093909416825291909152205460ff1690565b34801561059757600080fd5b5061026161109e565b3480156105ac57600080fd5b506102616105bb366004611fd7565b61122e565b60006001600160e01b031982166380ac58cd60e01b14806105f157506001600160e01b03198216635b5e139f60e01b145b8061060c57506301ffc9a760e01b6001600160e01b03198316145b92915050565b6006546001600160a01b031633146106455760405162461bcd60e51b815260040161063c90612543565b60405180910390fd5b600c805461ffff60a01b1916600160a01b9315159390930260ff60a81b191692909217600160a81b91151591909102179055565b60606000805461068890612688565b80601f01602080910402602001604051908101604052809291908181526020018280546106b490612688565b80156107015780601f106106d657610100808354040283529160200191610701565b820191906000526020600020905b8154815290600101906020018083116106e457829003601f168201915b5050505050905090565b6000818152600260205260408120546001600160a01b03166107845760405162461bcd60e51b815260206004820152602c60248201527f4552433732313a20617070726f76656420717565727920666f72206e6f6e657860448201526b34b9ba32b73a103a37b5b2b760a11b606482015260840161063c565b506000908152600460205260409020546001600160a01b031690565b60006107ab82610b73565b9050806001600160a01b0316836001600160a01b031614156108195760405162461bcd60e51b815260206004820152602160248201527f4552433732313a20617070726f76616c20746f2063757272656e74206f776e656044820152603960f91b606482015260840161063c565b336001600160a01b03821614806108355750610835813361055d565b6108a75760405162461bcd60e51b815260206004820152603860248201527f4552433732313a20617070726f76652063616c6c6572206973206e6f74206f7760448201527f6e6572206e6f7220617070726f76656420666f7220616c6c0000000000000000606482015260840161063c565b6108b183836112c9565b505050565b600061172f6008546108c89190612645565b60016007546108d79190612645565b6108e191906125fa565b905090565b6006546001600160a01b031633146109105760405162461bcd60e51b815260040161063c90612543565b600c80546001600160a01b0319166001600160a01b0392909216919091179055565b6006546001600160a01b0316331461095c5760405162461bcd60e51b815260040161063c90612543565b600854815161178490820111156109a55760405162461bcd60e51b815260206004820152600d60248201526c131a5b5a5d081c995858da1959609a1b604482015260640161063c565b60005b82518110156109de576109d68382815181106109c6576109c661274a565b6020026020010151828401611337565b6001016109a8565b505051600880549091019055565b6109f63382611479565b610a125760405162461bcd60e51b815260040161063c90612578565b6108b1838383611570565b333214610a2c57610a2c6126f2565b8066f5232269808000610a3f8183612626565b3414610a895760405162461bcd60e51b8152602060048201526019602482015278125b9d985b1a5908195d1a195c88185b5bdd5b9d081cd95b9d603a1b604482015260640161063c565b600c54600160a01b900460ff16610a9f57600080fd5b600a831115610aae600a611710565b604051602001610abe91906123d3565b60405160208183030381529060405290610aeb5760405162461bcd60e51b815260040161063c91906124de565b506108b18361180e565b600c546001600160a01b03163314610b0c57600080fd5b610b17823383611570565b5050565b6006546001600160a01b03163314610b455760405162461bcd60e51b815260040161063c90612543565b8051610b17906009906020840190611e98565b6108b183838360405180602001604052806000815250610f0a565b6000818152600260205260408120546001600160a01b03168061060c5760405162461bcd60e51b815260206004820152602960248201527f4552433732313a206f776e657220717565727920666f72206e6f6e657869737460448201526832b73a103a37b5b2b760b91b606482015260840161063c565b60006001600160a01b038216610c555760405162461bcd60e51b815260206004820152602a60248201527f4552433732313a2062616c616e636520717565727920666f7220746865207a65604482015269726f206164647265737360b01b606482015260840161063c565b506001600160a01b031660009081526003602052604090205490565b6006546001600160a01b03163314610c9b5760405162461bcd60e51b815260040161063c90612543565b610ca5600061189c565b565b60606001805461068890612688565b6006546001600160a01b03163314610ce05760405162461bcd60e51b815260040161063c90612543565b600b80546001600160a01b0319166001600160a01b0392909216919091179055565b333214610d1157610d116126f2565b600b54604080513360601b6bffffffffffffffffffffffff1916602080830191909152825160148184030181526034830184528051908201207f19457468657265756d205369676e6564204d6573736167653a0a3332000000006054840152607080840191909152835180840390910181526090909201909252805191012082916001600160a01b031690610da690836118ee565b6001600160a01b031614610df05760405162461bcd60e51b8152602060048201526011602482015270496e76616c6964207369676e617475726560781b604482015260640161063c565b8266d19c2ff9bf8000610e038183612626565b3414610e4d5760405162461bcd60e51b8152602060048201526019602482015278125b9d985b1a5908195d1a195c88185b5bdd5b9d081cd95b9d603a1b604482015260640161063c565b600c54600160a81b900460ff16610e6357600080fd5b336000908152600d6020526040902054600590610e819087906125fa565b1115610e8d6005611710565b604051602001610e9d919061243a565b60405160208183030381529060405290610eca5760405162461bcd60e51b815260040161063c91906124de565b50610ed48561180e565b336000908152600d602052604081208054879290610ef39084906125fa565b90915550505050505050565b610b17338383611912565b610f143383611479565b610f305760405162461bcd60e51b815260040161063c90612578565b610f3c848484846119e1565b50505050565b6000818152600260205260409020546060906001600160a01b0316610fc15760405162461bcd60e51b815260206004820152602f60248201527f4552433732314d657461646174613a2055524920717565727920666f72206e6f60448201526e3732bc34b9ba32b73a103a37b5b2b760891b606482015260840161063c565b60098054610fce90612688565b159050611007576009610fe083611710565b604051602001610ff1929190612318565b6040516020818303038152906040529050919050565b600a805461101490612688565b80601f016020809104026020016040519081016040528092919081815260200182805461104090612688565b801561108d5780601f106110625761010080835404028352916020019161108d565b820191906000526020600020905b81548152906001019060200180831161107057829003601f168201915b50505050509050919050565b919050565b6006546001600160a01b031633146110c85760405162461bcd60e51b815260040161063c90612543565b47730408cfcde646bbada944bf4312e6a2ef61ce8e7b6108fc6103e86110ef846064612626565b6110f99190612612565b6040518115909202916000818181858888f19350505050158015611121573d6000803e3d6000fd5b5073e1aff414c96ef6b10c2a51cdb95c7db60c04bfe66108fc6103e8611149846101a9612626565b6111539190612612565b6040518115909202916000818181858888f1935050505015801561117b573d6000803e3d6000fd5b5073936c5150da2e79c1fae4c92fd17fd3bcbc3957dc6108fc6103e86111a3846101a9612626565b6111ad9190612612565b6040518115909202916000818181858888f193505050501580156111d5573d6000803e3d6000fd5b5073ddbbcb27f07ba44a4c63e9d208278523f72258356108fc6103e86111fc846032612626565b6112069190612612565b6040518115909202916000818181858888f19350505050158015610b17573d6000803e3d6000fd5b6006546001600160a01b031633146112585760405162461bcd60e51b815260040161063c90612543565b6001600160a01b0381166112bd5760405162461bcd60e51b815260206004820152602660248201527f4f776e61626c653a206e6577206f776e657220697320746865207a65726f206160448201526564647265737360d01b606482015260840161063c565b6112c68161189c565b50565b600081815260046020526040902080546001600160a01b0319166001600160a01b03841690811790915581906112fe82610b73565b6001600160a01b03167f8c5be1e5ebec7d5bd14f71427d1e84f3dd0314c0f7b2291e5b200ac8c7c3b92560405160405180910390a45050565b6001600160a01b03821661138d5760405162461bcd60e51b815260206004820181905260248201527f4552433732313a206d696e7420746f20746865207a65726f2061646472657373604482015260640161063c565b6000818152600260205260409020546001600160a01b0316156113f25760405162461bcd60e51b815260206004820152601c60248201527f4552433732313a20746f6b656e20616c7265616479206d696e74656400000000604482015260640161063c565b6001600160a01b038216600090815260036020526040812080546001929061141b9084906125fa565b909155505060008181526002602052604080822080546001600160a01b0319166001600160a01b03861690811790915590518392907fddf252ad1be2c89b69c2b068fc378daa952ba7f163c4a11628f55a4df523b3ef908290a45050565b6000818152600260205260408120546001600160a01b03166114f25760405162461bcd60e51b815260206004820152602c60248201527f4552433732313a206f70657261746f7220717565727920666f72206e6f6e657860448201526b34b9ba32b73a103a37b5b2b760a11b606482015260840161063c565b60006114fd83610b73565b9050806001600160a01b0316846001600160a01b031614806115385750836001600160a01b031661152d8461070b565b6001600160a01b0316145b8061156857506001600160a01b0380821660009081526005602090815260408083209388168352929052205460ff165b949350505050565b826001600160a01b031661158382610b73565b6001600160a01b0316146115eb5760405162461bcd60e51b815260206004820152602960248201527f4552433732313a207472616e73666572206f6620746f6b656e2074686174206960448201526839903737ba1037bbb760b91b606482015260840161063c565b6001600160a01b03821661164d5760405162461bcd60e51b8152602060048201526024808201527f4552433732313a207472616e7366657220746f20746865207a65726f206164646044820152637265737360e01b606482015260840161063c565b6116586000826112c9565b6001600160a01b0383166000908152600360205260408120805460019290611681908490612645565b90915550506001600160a01b03821660009081526003602052604081208054600192906116af9084906125fa565b909155505060008181526002602052604080822080546001600160a01b0319166001600160a01b0386811691821790925591518493918716917fddf252ad1be2c89b69c2b068fc378daa952ba7f163c4a11628f55a4df523b3ef91a4505050565b6060816117345750506040805180820190915260018152600360fc1b602082015290565b8160005b811561175e5780611748816126c3565b91506117579050600a83612612565b9150611738565b60008167ffffffffffffffff81111561177957611779612760565b6040519080825280601f01601f1916602001820160405280156117a3576020820181803683370190505b5090505b8415611568576117b8600183612645565b91506117c5600a866126de565b6117d09060306125fa565b60f81b8183815181106117e5576117e561274a565b60200101906001600160f81b031916908160001a905350611807600a86612612565b94506117a7565b60075461181e600161172e6125fa565b61182883836125fa565b11156118765760405162461bcd60e51b815260206004820152601860248201527f4d696e7420776f756c642065786365656420737570706c790000000000000000604482015260640161063c565b611881338383611a14565b816007600082825461189391906125fa565b90915550505050565b600680546001600160a01b038381166001600160a01b0319831681179093556040519116919082907f8be0079c531659141344cd1fd0a4f28419497f9722a3daafe3b4186f6b6457e090600090a35050565b60008060006118fd8585611a44565b9150915061190a81611ab4565b509392505050565b816001600160a01b0316836001600160a01b031614156119745760405162461bcd60e51b815260206004820152601960248201527f4552433732313a20617070726f766520746f2063616c6c657200000000000000604482015260640161063c565b6001600160a01b03838116600081815260056020908152604080832094871680845294825291829020805460ff191686151590811790915591519182527f17307eab39ab6107e8899845ad3d59bd9653f200f220920489ca2b5937696c31910160405180910390a3505050565b6119ec848484611570565b6119f884848484611c6f565b610f3c5760405162461bcd60e51b815260040161063c906124f1565b60005b82811015610f3c57611a3284611a2d83856125fa565b611337565b80611a3c816126c3565b915050611a17565b600080825160411415611a7b5760208301516040840151606085015160001a611a6f87828585611d7c565b94509450505050611aad565b825160401415611aa55760208301516040840151611a9a868383611e69565b935093505050611aad565b506000905060025b9250929050565b6000816004811115611ac857611ac8612734565b1415611ad15750565b6001816004811115611ae557611ae5612734565b1415611b335760405162461bcd60e51b815260206004820152601860248201527f45434453413a20696e76616c6964207369676e61747572650000000000000000604482015260640161063c565b6002816004811115611b4757611b47612734565b1415611b955760405162461bcd60e51b815260206004820152601f60248201527f45434453413a20696e76616c6964207369676e6174757265206c656e67746800604482015260640161063c565b6003816004811115611ba957611ba9612734565b1415611c025760405162461bcd60e51b815260206004820152602260248201527f45434453413a20696e76616c6964207369676e6174757265202773272076616c604482015261756560f01b606482015260840161063c565b6004816004811115611c1657611c16612734565b14156112c65760405162461bcd60e51b815260206004820152602260248201527f45434453413a20696e76616c6964207369676e6174757265202776272076616c604482015261756560f01b606482015260840161063c565b60006001600160a01b0384163b15611d7157604051630a85bd0160e11b81526001600160a01b0385169063150b7a0290611cb39033908990889088906004016124a1565b602060405180830381600087803b158015611ccd57600080fd5b505af1925050508015611cfd575060408051601f3d908101601f19168201909252611cfa9181019061220a565b60015b611d57573d808015611d2b576040519150601f19603f3d011682016040523d82523d6000602084013e611d30565b606091505b508051611d4f5760405162461bcd60e51b815260040161063c906124f1565b805181602001fd5b6001600160e01b031916630a85bd0160e11b149050611568565b506001949350505050565b6000807f7fffffffffffffffffffffffffffffff5d576e7357a4501ddfe92f46681b20a0831115611db35750600090506003611e60565b8460ff16601b14158015611dcb57508460ff16601c14155b15611ddc5750600090506004611e60565b6040805160008082526020820180845289905260ff881692820192909252606081018690526080810185905260019060a0016020604051602081039080840390855afa158015611e30573d6000803e3d6000fd5b5050604051601f1901519150506001600160a01b038116611e5957600060019250925050611e60565b9150600090505b94509492505050565b6000806001600160ff1b03831660ff84901c601b01611e8a87828885611d7c565b935093505050935093915050565b828054611ea490612688565b90600052602060002090601f016020900481019282611ec65760008555611f0c565b82601f10611edf57805160ff1916838001178555611f0c565b82800160010185558215611f0c579182015b82811115611f0c578251825591602001919060010190611ef1565b50611f18929150611f1c565b5090565b5b80821115611f185760008155600101611f1d565b600067ffffffffffffffff831115611f4b57611f4b612760565b611f5e601f8401601f19166020016125c9565b9050828152838383011115611f7257600080fd5b828260208301376000602084830101529392505050565b80356001600160a01b038116811461109957600080fd5b8035801515811461109957600080fd5b600082601f830112611fc157600080fd5b611fd083833560208501611f31565b9392505050565b600060208284031215611fe957600080fd5b611fd082611f89565b6000806040838503121561200557600080fd5b61200e83611f89565b915061201c60208401611f89565b90509250929050565b60008060006060848603121561203a57600080fd5b61204384611f89565b925061205160208501611f89565b9150604084013590509250925092565b6000806000806080858703121561207757600080fd5b61208085611f89565b935061208e60208601611f89565b925060408501359150606085013567ffffffffffffffff8111156120b157600080fd5b6120bd87828801611fb0565b91505092959194509250565b600080604083850312156120dc57600080fd5b6120e583611f89565b915061201c60208401611fa0565b6000806040838503121561210657600080fd5b61210f83611f89565b946020939093013593505050565b6000602080838503121561213057600080fd5b823567ffffffffffffffff8082111561214857600080fd5b818501915085601f83011261215c57600080fd5b81358181111561216e5761216e612760565b8060051b915061217f8483016125c9565b8181528481019084860184860187018a101561219a57600080fd5b600095505b838610156121c4576121b081611f89565b83526001959095019491860191860161219f565b5098975050505050505050565b600080604083850312156121e457600080fd5b6120e583611fa0565b6000602082840312156121ff57600080fd5b8135611fd081612776565b60006020828403121561221c57600080fd5b8151611fd081612776565b60006020828403121561223957600080fd5b813567ffffffffffffffff81111561225057600080fd5b8201601f8101841361226157600080fd5b61156884823560208401611f31565b60006020828403121561228257600080fd5b5035919050565b6000806040838503121561229c57600080fd5b82359150602083013567ffffffffffffffff8111156122ba57600080fd5b6122c685828601611fb0565b9150509250929050565b600081518084526122e881602086016020860161265c565b601f01601f19169290920160200192915050565b6000815161230e81856020860161265c565b9290920192915050565b600080845481600182811c91508083168061233457607f831692505b602080841082141561235457634e487b7160e01b86526022600452602486fd5b8180156123685760018114612379576123a6565b60ff198616895284890196506123a6565b60008b81526020902060005b8681101561239e5781548b820152908501908301612385565b505084890196505b5050505050506123ca6123b982866122fc565b64173539b7b760d91b815260050190565b95945050505050565b7702cb7ba9031b0b71037b7363c9036b4b73a103ab8103a37960451b81526000825161240681601885016020870161265c565b7f20696e20612073696e676c65207472616e73616374696f6e00000000000000006018939091019283015250603001919050565b7702cb7ba9031b0b71037b7363c9036b4b73a103ab8103a37960451b81526000825161246d81601885016020870161265c565b7f2074696d6573207573696e6720796f75722077686974656c69737421000000006018939091019283015250603401919050565b6001600160a01b03858116825284166020820152604081018390526080606082018190526000906124d4908301846122d0565b9695505050505050565b602081526000611fd060208301846122d0565b60208082526032908201527f4552433732313a207472616e7366657220746f206e6f6e20455243373231526560408201527131b2b4bb32b91034b6b83632b6b2b73a32b960711b606082015260800190565b6020808252818101527f4f776e61626c653a2063616c6c6572206973206e6f7420746865206f776e6572604082015260600190565b60208082526031908201527f4552433732313a207472616e736665722063616c6c6572206973206e6f74206f6040820152701ddb995c881b9bdc88185c1c1c9bdd9959607a1b606082015260800190565b604051601f8201601f1916810167ffffffffffffffff811182821017156125f2576125f2612760565b604052919050565b6000821982111561260d5761260d612708565b500190565b6000826126215761262161271e565b500490565b600081600019048311821515161561264057612640612708565b500290565b60008282101561265757612657612708565b500390565b60005b8381101561267757818101518382015260200161265f565b83811115610f3c5750506000910152565b600181811c9082168061269c57607f821691505b602082108114156126bd57634e487b7160e01b600052602260045260246000fd5b50919050565b60006000198214156126d7576126d7612708565b5060010190565b6000826126ed576126ed61271e565b500690565b634e487b7160e01b600052600160045260246000fd5b634e487b7160e01b600052601160045260246000fd5b634e487b7160e01b600052601260045260246000fd5b634e487b7160e01b600052602160045260246000fd5b634e487b7160e01b600052603260045260246000fd5b634e487b7160e01b600052604160045260246000fd5b6001600160e01b0319811681146112c657600080fdfea2646970667358221220bbb2d383040fabfbd5e1f4144daae259f94dba52a5e626378794c19639f1a90264736f6c63430008070033"
  }
}