{
  "opcodeHash": "0x4252f60b6d896186f7ec71b45a7142ce500b1c88cdea1657ce30b4945daa7760",
  "metalessHash": "0x1ce5ae483fbff9a3a6e453638e2449a789e440b29c88823f27e4bf5aaf40383d",
  "runtimeHash": "0xe50706e0f23f36964be2b1ecd920a5c64f32029685f34b347b15f3ff7570cee8",
  "encodedMetadata": [
    {
      "ipfs": "/ipfs/QmbE6Lj2kMBUjpaDSEXYz5k1KFSaBH7PovhCg49PDibymq",
      "solc": "0.8.4"
    }
  ],
  "abi": [
    {
      "inputs": [
        {
          "internalType": "address",
          "name": "_atopia",
          "type": "address"
        }
      ],
      "stateMutability": "nonpayable",
      "type": "constructor"
    },
    {
      "anonymous": false,
      "inputs": [
        {
          "indexed": true,
          "internalType": "address",
          "name": "account",
          "type": "address"
        },
        {
          "indexed": true,
          "internalType": "address",
          "name": "operator",
          "type": "address"
        },
        {
          "indexed": false,
          "internalType": "bool",
          "name": "approved",
          "type": "bool"
        }
      ],
      "name": "ApprovalForAll",
      "type": "event"
    },
    {
      "anonymous": false,
      "inputs": [
        {
          "components": [
            {
              "internalType": "uint128",
              "name": "id",
              "type": "uint128"
            },
            {
              "internalType": "uint64",
              "name": "bonusAge",
              "type": "uint64"
            },
            {
              "internalType": "uint16",
              "name": "bonusTrait",
              "type": "uint16"
            },
            {
              "internalType": "uint16",
              "name": "storeIndex",
              "type": "uint16"
            },
            {
              "internalType": "contract ITrait",
              "name": "store",
              "type": "address"
            },
            {
              "internalType": "uint128",
              "name": "minAge",
              "type": "uint128"
            },
            {
              "internalType": "uint256",
              "name": "price",
              "type": "uint256"
            },
            {
              "internalType": "uint256",
              "name": "stock",
              "type": "uint256"
            }
          ],
          "indexed": false,
          "internalType": "struct AtopiaShop.Item",
          "name": "item",
          "type": "tuple"
        }
      ],
      "name": "ItemUpdated",
      "type": "event"
    },
    {
      "anonymous": false,
      "inputs": [
        {
          "indexed": true,
          "internalType": "address",
          "name": "operator",
          "type": "address"
        },
        {
          "indexed": true,
          "internalType": "address",
          "name": "from",
          "type": "address"
        },
        {
          "indexed": true,
          "internalType": "address",
          "name": "to",
          "type": "address"
        },
        {
          "indexed": false,
          "internalType": "uint256[]",
          "name": "ids",
          "type": "uint256[]"
        },
        {
          "indexed": false,
          "internalType": "uint256[]",
          "name": "values",
          "type": "uint256[]"
        }
      ],
      "name": "TransferBatch",
      "type": "event"
    },
    {
      "anonymous": false,
      "inputs": [
        {
          "indexed": true,
          "internalType": "address",
          "name": "operator",
          "type": "address"
        },
        {
          "indexed": true,
          "internalType": "address",
          "name": "from",
          "type": "address"
        },
        {
          "indexed": true,
          "internalType": "address",
          "name": "to",
          "type": "address"
        },
        {
          "indexed": false,
          "internalType": "uint256",
          "name": "id",
          "type": "uint256"
        },
        {
          "indexed": false,
          "internalType": "uint256",
          "name": "value",
          "type": "uint256"
        }
      ],
      "name": "TransferSingle",
      "type": "event"
    },
    {
      "anonymous": false,
      "inputs": [
        {
          "indexed": false,
          "internalType": "string",
          "name": "value",
          "type": "string"
        },
        {
          "indexed": true,
          "internalType": "uint256",
          "name": "id",
          "type": "uint256"
        }
      ],
      "name": "URI",
      "type": "event"
    },
    {
      "inputs": [
        {
          "internalType": "uint64",
          "name": "bonusAge",
          "type": "uint64"
        },
        {
          "internalType": "uint16",
          "name": "bonusTrait",
          "type": "uint16"
        },
        {
          "internalType": "address",
          "name": "store",
          "type": "address"
        },
        {
          "internalType": "uint16[]",
          "name": "storeIndexes",
          "type": "uint16[]"
        },
        {
          "internalType": "uint128",
          "name": "minAge",
          "type": "uint128"
        },
        {
          "internalType": "uint256",
          "name": "price",
          "type": "uint256"
        },
        {
          "internalType": "uint256",
          "name": "stock",
          "type": "uint256"
        }
      ],
      "name": "addItem",
      "outputs": [],
      "stateMutability": "nonpayable",
      "type": "function"
    },
    {
      "inputs": [],
      "name": "atopia",
      "outputs": [
        {
          "internalType": "contract IAtopia",
          "name": "",
          "type": "address"
        }
      ],
      "stateMutability": "view",
      "type": "function"
    },
    {
      "inputs": [
        {
          "internalType": "address",
          "name": "account",
          "type": "address"
        },
        {
          "internalType": "uint256",
          "name": "id",
          "type": "uint256"
        }
      ],
      "name": "balanceOf",
      "outputs": [
        {
          "internalType": "uint256",
          "name": "",
          "type": "uint256"
        }
      ],
      "stateMutability": "view",
      "type": "function"
    },
    {
      "inputs": [
        {
          "internalType": "address[]",
          "name": "accounts",
          "type": "address[]"
        },
        {
          "internalType": "uint256[]",
          "name": "ids",
          "type": "uint256[]"
        }
      ],
      "name": "balanceOfBatch",
      "outputs": [
        {
          "internalType": "uint256[]",
          "name": "",
          "type": "uint256[]"
        }
      ],
      "stateMutability": "view",
      "type": "function"
    },
    {
      "inputs": [],
      "name": "bucks",
      "outputs": [
        {
          "internalType": "contract IBucks",
          "name": "",
          "type": "address"
        }
      ],
      "stateMutability": "view",
      "type": "function"
    },
    {
      "inputs": [
        {
          "internalType": "address",
          "name": "account",
          "type": "address"
        },
        {
          "internalType": "uint256",
          "name": "id",
          "type": "uint256"
        },
        {
          "internalType": "uint256",
          "name": "value",
          "type": "uint256"
        }
      ],
      "name": "burn",
      "outputs": [],
      "stateMutability": "nonpayable",
      "type": "function"
    },
    {
      "inputs": [
        {
          "internalType": "address",
          "name": "account",
          "type": "address"
        },
        {
          "internalType": "uint256[]",
          "name": "ids",
          "type": "uint256[]"
        },
        {
          "internalType": "uint256[]",
          "name": "values",
          "type": "uint256[]"
        }
      ],
      "name": "burnBatch",
      "outputs": [],
      "stateMutability": "nonpayable",
      "type": "function"
    },
    {
      "inputs": [
        {
          "internalType": "uint256",
          "name": "itemId",
          "type": "uint256"
        },
        {
          "internalType": "uint256",
          "name": "amount",
          "type": "uint256"
        }
      ],
      "name": "buyItem",
      "outputs": [],
      "stateMutability": "nonpayable",
      "type": "function"
    },
    {
      "inputs": [
        {
          "internalType": "address",
          "name": "account",
          "type": "address"
        },
        {
          "internalType": "address",
          "name": "operator",
          "type": "address"
        }
      ],
      "name": "isApprovedForAll",
      "outputs": [
        {
          "internalType": "bool",
          "name": "",
          "type": "bool"
        }
      ],
      "stateMutability": "view",
      "type": "function"
    },
    {
      "inputs": [
        {
          "internalType": "uint256",
          "name": "index",
          "type": "uint256"
        }
      ],
      "name": "itemInfo",
      "outputs": [
        {
          "internalType": "uint256",
          "name": "",
          "type": "uint256"
        }
      ],
      "stateMutability": "view",
      "type": "function"
    },
    {
      "inputs": [
        {
          "internalType": "uint256",
          "name": "",
          "type": "uint256"
        }
      ],
      "name": "items",
      "outputs": [
        {
          "internalType": "uint128",
          "name": "id",
          "type": "uint128"
        },
        {
          "internalType": "uint64",
          "name": "bonusAge",
          "type": "uint64"
        },
        {
          "internalType": "uint16",
          "name": "bonusTrait",
          "type": "uint16"
        },
        {
          "internalType": "uint16",
          "name": "storeIndex",
          "type": "uint16"
        },
        {
          "internalType": "contract ITrait",
          "name": "store",
          "type": "address"
        },
        {
          "internalType": "uint128",
          "name": "minAge",
          "type": "uint128"
        },
        {
          "internalType": "uint256",
          "name": "price",
          "type": "uint256"
        },
        {
          "internalType": "uint256",
          "name": "stock",
          "type": "uint256"
        }
      ],
      "stateMutability": "view",
      "type": "function"
    },
    {
      "inputs": [],
      "name": "name",
      "outputs": [
        {
          "internalType": "string",
          "name": "",
          "type": "string"
        }
      ],
      "stateMutability": "view",
      "type": "function"
    },
    {
      "inputs": [
        {
          "internalType": "address",
          "name": "from",
          "type": "address"
        },
        {
          "internalType": "address",
          "name": "to",
          "type": "address"
        },
        {
          "internalType": "uint256[]",
          "name": "ids",
          "type": "uint256[]"
        },
        {
          "internalType": "uint256[]",
          "name": "amounts",
          "type": "uint256[]"
        },
        {
          "internalType": "bytes",
          "name": "data",
          "type": "bytes"
        }
      ],
      "name": "safeBatchTransferFrom",
      "outputs": [],
      "stateMutability": "nonpayable",
      "type": "function"
    },
    {
      "inputs": [
        {
          "internalType": "address",
          "name": "from",
          "type": "address"
        },
        {
          "internalType": "address",
          "name": "to",
          "type": "address"
        },
        {
          "internalType": "uint256",
          "name": "id",
          "type": "uint256"
        },
        {
          "internalType": "uint256",
          "name": "amount",
          "type": "uint256"
        },
        {
          "internalType": "bytes",
          "name": "data",
          "type": "bytes"
        }
      ],
      "name": "safeTransferFrom",
      "outputs": [],
      "stateMutability": "nonpayable",
      "type": "function"
    },
    {
      "inputs": [
        {
          "internalType": "address",
          "name": "operator",
          "type": "address"
        },
        {
          "internalType": "bool",
          "name": "approved",
          "type": "bool"
        }
      ],
      "name": "setApprovalForAll",
      "outputs": [],
      "stateMutability": "nonpayable",
      "type": "function"
    },
    {
      "inputs": [
        {
          "internalType": "bytes4",
          "name": "interfaceId",
          "type": "bytes4"
        }
      ],
      "name": "supportsInterface",
      "outputs": [
        {
          "internalType": "bool",
          "name": "",
          "type": "bool"
        }
      ],
      "stateMutability": "view",
      "type": "function"
    },
    {
      "inputs": [],
      "name": "symbol",
      "outputs": [
        {
          "internalType": "string",
          "name": "",
          "type": "string"
        }
      ],
      "stateMutability": "view",
      "type": "function"
    },
    {
      "inputs": [],
      "name": "totalItems",
      "outputs": [
        {
          "internalType": "uint256",
          "name": "",
          "type": "uint256"
        }
      ],
      "stateMutability": "view",
      "type": "function"
    },
    {
      "inputs": [
        {
          "internalType": "uint256",
          "name": "itemId",
          "type": "uint256"
        },
        {
          "internalType": "uint64",
          "name": "bonusAge",
          "type": "uint64"
        },
        {
          "internalType": "uint128",
          "name": "minAge",
          "type": "uint128"
        },
        {
          "internalType": "uint256",
          "name": "price",
          "type": "uint256"
        },
        {
          "internalType": "uint256",
          "name": "stock",
          "type": "uint256"
        }
      ],
      "name": "updateItem",
      "outputs": [],
      "stateMutability": "nonpayable",
      "type": "function"
    },
    {
      "inputs": [
        {
          "internalType": "uint256",
          "name": "id",
          "type": "uint256"
        }
      ],
      "name": "uri",
      "outputs": [
        {
          "internalType": "string",
          "name": "",
          "type": "string"
        }
      ],
      "stateMutability": "view",
      "type": "function"
    }
  ],
  "bytecode": {
    "object": "60806040523480156200001157600080fd5b5060405162005d9f38038062005d9f83398181016040528101906200003791906200027f565b6040518060200160405280600081525062000058816200018560201b60201c565b5080600360006101000a81548173ffffffffffffffffffffffffffffffffffffffff021916908373ffffffffffffffffffffffffffffffffffffffff160217905550600360009054906101000a900473ffffffffffffffffffffffffffffffffffffffff1673ffffffffffffffffffffffffffffffffffffffff16639bb466716040518163ffffffff1660e01b815260040160206040518083038186803b1580156200010357600080fd5b505afa15801562000118573d6000803e3d6000fd5b505050506040513d601f19601f820116820180604052508101906200013e9190620002ab565b600460006101000a81548173ffffffffffffffffffffffffffffffffffffffff021916908373ffffffffffffffffffffffffffffffffffffffff16021790555050620003b8565b80600290805190602001906200019d929190620001a1565b5050565b828054620001af906200031f565b90600052602060002090601f016020900481019282620001d357600085556200021f565b82601f10620001ee57805160ff19168380011785556200021f565b828001600101855582156200021f579182015b828111156200021e57825182559160200191906001019062000201565b5b5090506200022e919062000232565b5090565b5b808211156200024d57600081600090555060010162000233565b5090565b600081519050620002628162000384565b92915050565b60008151905062000279816200039e565b92915050565b6000602082840312156200029257600080fd5b6000620002a28482850162000251565b91505092915050565b600060208284031215620002be57600080fd5b6000620002ce8482850162000268565b91505092915050565b6000620002e482620002ff565b9050919050565b6000620002f882620002d7565b9050919050565b600073ffffffffffffffffffffffffffffffffffffffff82169050919050565b600060028204905060018216806200033857607f821691505b602082108114156200034f576200034e62000355565b5b50919050565b7f4e487b7100000000000000000000000000000000000000000000000000000000600052602260045260246000fd5b6200038f81620002d7565b81146200039b57600080fd5b50565b620003a981620002eb565b8114620003b557600080fd5b50565b6159d780620003c86000396000f3fe608060405234801561001057600080fd5b506004361061012b5760003560e01c80636b20c454116100ad578063bfb231d211610071578063bfb231d21461032e578063e985e9c514610365578063f242432a14610395578063f5298aca146103b1578063fd2e997e146103cd5761012b565b80636b20c4541461029e57806395d89b41146102ba5780639979c009146102d85780639bb46671146102f4578063a22cb465146103125761012b565b80632799276d116100f45780632799276d146101fa5780632cd2740f146102185780632eb2c2d614610234578063359ecd09146102505780634e1273f41461026e5761012b565b8062fdd58e1461013057806301ffc9a71461016057806306fdde03146101905780630e89341c146101ae5780631d0075cb146101de575b600080fd5b61014a600480360381019061014591906138a6565b6103fd565b60405161015791906146f2565b60405180910390f35b61017a600480360381019061017591906139c6565b6104c6565b604051610187919061442a565b60405180910390f35b6101986105a8565b6040516101a5919061447b565b60405180910390f35b6101c860048036038101906101c39190613a59565b6105e1565b6040516101d5919061447b565b60405180910390f35b6101f860048036038101906101f39190613abe565b610ad1565b005b610202610dd3565b60405161020f91906146f2565b60405180910390f35b610232600480360381019061022d9190613b35565b610de0565b005b61024e6004803603810190610249919061369d565b6111f2565b005b610258611293565b6040516102659190614445565b60405180910390f35b61028860048036038101906102839190613931565b6112b9565b60405161029591906143d1565b60405180910390f35b6102b860048036038101906102b391906137eb565b61146a565b005b6102c2611507565b6040516102cf919061447b565b60405180910390f35b6102f260048036038101906102ed9190613a82565b611540565b005b6102fc6117b6565b6040516103099190614460565b60405180910390f35b61032c6004803603810190610327919061386a565b6117dc565b005b61034860048036038101906103439190613a59565b6117f2565b60405161035c989796959493929190614659565b60405180910390f35b61037f600480360381019061037a9190613661565b6118d2565b60405161038c919061442a565b60405180910390f35b6103af60048036038101906103aa919061375c565b611966565b005b6103cb60048036038101906103c691906138e2565b611a07565b005b6103e760048036038101906103e29190613a59565b611aa4565b6040516103f491906146f2565b60405180910390f35b60008073ffffffffffffffffffffffffffffffffffffffff168373ffffffffffffffffffffffffffffffffffffffff16141561046e576040517f08c379a0000000000000000000000000000000000000000000000000000000008152600401610465906144dd565b60405180910390fd5b60008083815260200190815260200160002060008473ffffffffffffffffffffffffffffffffffffffff1673ffffffffffffffffffffffffffffffffffffffff16815260200190815260200160002054905092915050565b60007fd9b67a26000000000000000000000000000000000000000000000000000000007bffffffffffffffffffffffffffffffffffffffffffffffffffffffff1916827bffffffffffffffffffffffffffffffffffffffffffffffffffffffff1916148061059157507f0e89341c000000000000000000000000000000000000000000000000000000007bffffffffffffffffffffffffffffffffffffffffffffffffffffffff1916827bffffffffffffffffffffffffffffffffffffffffffffffffffffffff1916145b806105a157506105a082611c5c565b5b9050919050565b6040518060400160405280600b81526020017f41746f7069612053686f7000000000000000000000000000000000000000000081525081565b6060600060056001846105f49190614ad2565b8154811061062b577f4e487b7100000000000000000000000000000000000000000000000000000000600052603260045260246000fd5b9060005260206000209060050201604051806101000160405290816000820160009054906101000a90046fffffffffffffffffffffffffffffffff166fffffffffffffffffffffffffffffffff166fffffffffffffffffffffffffffffffff1681526020016000820160109054906101000a900467ffffffffffffffff1667ffffffffffffffff1667ffffffffffffffff1681526020016000820160189054906101000a900461ffff1661ffff1661ffff16815260200160008201601a9054906101000a900461ffff1661ffff1661ffff1681526020016001820160009054906101000a900473ffffffffffffffffffffffffffffffffffffffff1673ffffffffffffffffffffffffffffffffffffffff1673ffffffffffffffffffffffffffffffffffffffff1681526020016002820160009054906101000a90046fffffffffffffffffffffffffffffffff166fffffffffffffffffffffffffffffffff166fffffffffffffffffffffffffffffffff168152602001600382015481526020016004820154815250509050610aaa816080015173ffffffffffffffffffffffffffffffffffffffff166310ae877e83606001516040518263ffffffff1660e01b81526004016107fb91906146d7565b60006040518083038186803b15801561081357600080fd5b505afa158015610827573d6000803e3d6000fd5b505050506040513d6000823e3d601f19601f820116820180604052508101906108509190613a18565b61090d836080015173ffffffffffffffffffffffffffffffffffffffff1663a3c847ed85606001516040518263ffffffff1660e01b815260040161089491906146d7565b60006040518083038186803b1580156108ac57600080fd5b505afa1580156108c0573d6000803e3d6000fd5b505050506040513d6000823e3d601f19601f820116820180604052508101906108e99190613a18565b6040516020016108f99190614289565b604051602081830303815290604052611cc6565b836080015173ffffffffffffffffffffffffffffffffffffffff166306fdde036040518163ffffffff1660e01b815260040160006040518083038186803b15801561095757600080fd5b505afa15801561096b573d6000803e3d6000fd5b505050506040513d6000823e3d601f19601f820116820180604052508101906109949190613a18565b6109ce6301e13380600a8760a001516109ad91906149ec565b6109b79190614959565b6fffffffffffffffffffffffffffffffff16611e71565b6109ff62015180600a88602001516109e69190614a90565b6109f091906149bb565b67ffffffffffffffff16611e71565b6000876040015161ffff1611610a4a576040518060400160405280600281526020017f4e6f000000000000000000000000000000000000000000000000000000000000815250610a81565b6040518060400160405280600381526020017f59657300000000000000000000000000000000000000000000000000000000008152505b604051602001610a96969594939291906141e4565b604051602081830303815290604052611cc6565b604051602001610aba91906142b6565b604051602081830303815290604052915050919050565b600360009054906101000a900473ffffffffffffffffffffffffffffffffffffffff1673ffffffffffffffffffffffffffffffffffffffff16638da5cb5b6040518163ffffffff1660e01b815260040160206040518083038186803b158015610b3957600080fd5b505afa158015610b4d573d6000803e3d6000fd5b505050506040513d601f19601f82011682018060405250810190610b719190613638565b73ffffffffffffffffffffffffffffffffffffffff163373ffffffffffffffffffffffffffffffffffffffff1614610ba857600080fd5b6000600186610bb79190614ad2565b90508460058281548110610bf4577f4e487b7100000000000000000000000000000000000000000000000000000000600052603260045260246000fd5b906000526020600020906005020160000160106101000a81548167ffffffffffffffff021916908367ffffffffffffffff1602179055508360058281548110610c66577f4e487b7100000000000000000000000000000000000000000000000000000000600052603260045260246000fd5b906000526020600020906005020160020160006101000a8154816fffffffffffffffffffffffffffffffff02191690836fffffffffffffffffffffffffffffffff1602179055508260058281548110610ce8577f4e487b7100000000000000000000000000000000000000000000000000000000600052603260045260246000fd5b9060005260206000209060050201600301819055508160058281548110610d38577f4e487b7100000000000000000000000000000000000000000000000000000000600052603260045260246000fd5b9060005260206000209060050201600401819055507f8a20d072babb401175fc224297141c59c883147c7f074215aa3317e94a29ff7660058281548110610da8577f4e487b7100000000000000000000000000000000000000000000000000000000600052603260045260246000fd5b9060005260206000209060050201604051610dc3919061463d565b60405180910390a1505050505050565b6000600580549050905090565b600360009054906101000a900473ffffffffffffffffffffffffffffffffffffffff1673ffffffffffffffffffffffffffffffffffffffff16638da5cb5b6040518163ffffffff1660e01b815260040160206040518083038186803b158015610e4857600080fd5b505afa158015610e5c573d6000803e3d6000fd5b505050506040513d601f19601f82011682018060405250810190610e809190613638565b73ffffffffffffffffffffffffffffffffffffffff163373ffffffffffffffffffffffffffffffffffffffff1614610eb757600080fd5b60006005805490509050600181610ece9190614903565b608082901b17905060005b85518161ffff1610156111e7576005604051806101000160405280846fffffffffffffffffffffffffffffffff1681526020018b67ffffffffffffffff1681526020018a61ffff168152602001888461ffff1681518110610f63577f4e487b7100000000000000000000000000000000000000000000000000000000600052603260045260246000fd5b602002602001015161ffff1681526020018973ffffffffffffffffffffffffffffffffffffffff168152602001876fffffffffffffffffffffffffffffffff16815260200186815260200185815250908060018154018082558091505060019003906000526020600020906005020160009091909190915060008201518160000160006101000a8154816fffffffffffffffffffffffffffffffff02191690836fffffffffffffffffffffffffffffffff16021790555060208201518160000160106101000a81548167ffffffffffffffff021916908367ffffffffffffffff16021790555060408201518160000160186101000a81548161ffff021916908361ffff160217905550606082015181600001601a6101000a81548161ffff021916908361ffff16021790555060808201518160010160006101000a81548173ffffffffffffffffffffffffffffffffffffffff021916908373ffffffffffffffffffffffffffffffffffffffff16021790555060a08201518160020160006101000a8154816fffffffffffffffffffffffffffffffff02191690836fffffffffffffffffffffffffffffffff16021790555060c0820151816003015560e0820151816004015550507f8a20d072babb401175fc224297141c59c883147c7f074215aa3317e94a29ff766005608084901c8154811061118a577f4e487b7100000000000000000000000000000000000000000000000000000000600052603260045260246000fd5b90600052602060002090600502016040516111a5919061463d565b60405180910390a16001826111ba91906148bd565b6fffffffffffffffffffffffffffffffff16608083901b17915080806111df90614d9b565b915050610ed9565b505050505050505050565b6111fa61201e565b73ffffffffffffffffffffffffffffffffffffffff168573ffffffffffffffffffffffffffffffffffffffff161480611240575061123f8561123a61201e565b6118d2565b5b61127f576040517f08c379a00000000000000000000000000000000000000000000000000000000081526004016112769061455d565b60405180910390fd5b61128c8585858585612026565b5050505050565b600360009054906101000a900473ffffffffffffffffffffffffffffffffffffffff1681565b606081518351146112ff576040517f08c379a00000000000000000000000000000000000000000000000000000000081526004016112f6906145dd565b60405180910390fd5b6000835167ffffffffffffffff811115611342577f4e487b7100000000000000000000000000000000000000000000000000000000600052604160045260246000fd5b6040519080825280602002602001820160405280156113705781602001602082028036833780820191505090505b50905060005b845181101561145f576114098582815181106113bb577f4e487b7100000000000000000000000000000000000000000000000000000000600052603260045260246000fd5b60200260200101518583815181106113fc577f4e487b7100000000000000000000000000000000000000000000000000000000600052603260045260246000fd5b60200260200101516103fd565b828281518110611442577f4e487b7100000000000000000000000000000000000000000000000000000000600052603260045260246000fd5b6020026020010181815250508061145890614dc6565b9050611376565b508091505092915050565b61147261201e565b73ffffffffffffffffffffffffffffffffffffffff168373ffffffffffffffffffffffffffffffffffffffff1614806114b857506114b7836114b261201e565b6118d2565b5b6114f7576040517f08c379a00000000000000000000000000000000000000000000000000000000081526004016114ee9061451d565b60405180910390fd5b611502838383612386565b505050565b6040518060400160405280600781526020017f41545053484f500000000000000000000000000000000000000000000000000081525081565b600060018361154f9190614ad2565b905060006005828154811061158d577f4e487b7100000000000000000000000000000000000000000000000000000000600052603260045260246000fd5b9060005260206000209060050201600401549050600083600584815481106115de577f4e487b7100000000000000000000000000000000000000000000000000000000600052603260045260246000fd5b9060005260206000209060050201600301546115fa9190614a36565b90508382101561160957600080fd5b83826116159190614ad2565b6005848154811061164f577f4e487b7100000000000000000000000000000000000000000000000000000000600052603260045260246000fd5b906000526020600020906005020160040181905550600460009054906101000a900473ffffffffffffffffffffffffffffffffffffffff1673ffffffffffffffffffffffffffffffffffffffff166323b872dd3330846040518463ffffffff1660e01b81526004016116c393929190614340565b602060405180830381600087803b1580156116dd57600080fd5b505af11580156116f1573d6000803e3d6000fd5b505050506040513d601f19601f82011682018060405250810190611715919061399d565b5061173133868660405180602001604052806000815250612683565b7f8a20d072babb401175fc224297141c59c883147c7f074215aa3317e94a29ff766005848154811061178c577f4e487b7100000000000000000000000000000000000000000000000000000000600052603260045260246000fd5b90600052602060002090600502016040516117a7919061463d565b60405180910390a15050505050565b600460009054906101000a900473ffffffffffffffffffffffffffffffffffffffff1681565b6117ee6117e761201e565b8383612819565b5050565b6005818154811061180257600080fd5b90600052602060002090600502016000915090508060000160009054906101000a90046fffffffffffffffffffffffffffffffff16908060000160109054906101000a900467ffffffffffffffff16908060000160189054906101000a900461ffff169080600001601a9054906101000a900461ffff16908060010160009054906101000a900473ffffffffffffffffffffffffffffffffffffffff16908060020160009054906101000a90046fffffffffffffffffffffffffffffffff16908060030154908060040154905088565b6000600160008473ffffffffffffffffffffffffffffffffffffffff1673ffffffffffffffffffffffffffffffffffffffff16815260200190815260200160002060008373ffffffffffffffffffffffffffffffffffffffff1673ffffffffffffffffffffffffffffffffffffffff16815260200190815260200160002060009054906101000a900460ff16905092915050565b61196e61201e565b73ffffffffffffffffffffffffffffffffffffffff168573ffffffffffffffffffffffffffffffffffffffff1614806119b457506119b3856119ae61201e565b6118d2565b5b6119f3576040517f08c379a00000000000000000000000000000000000000000000000000000000081526004016119ea9061451d565b60405180910390fd5b611a008585858585612986565b5050505050565b611a0f61201e565b73ffffffffffffffffffffffffffffffffffffffff168373ffffffffffffffffffffffffffffffffffffffff161480611a555750611a5483611a4f61201e565b6118d2565b5b611a94576040517f08c379a0000000000000000000000000000000000000000000000000000000008152600401611a8b9061451d565b60405180910390fd5b611a9f838383612c08565b505050565b600060058281548110611ae0577f4e487b7100000000000000000000000000000000000000000000000000000000600052603260045260246000fd5b906000526020600020906005020160020160009054906101000a90046fffffffffffffffffffffffffffffffff166fffffffffffffffffffffffffffffffff16608060058481548110611b5c577f4e487b7100000000000000000000000000000000000000000000000000000000600052603260045260246000fd5b9060005260206000209060050201600001601a9054906101000a900461ffff1661ffff16601060058681548110611bbc577f4e487b7100000000000000000000000000000000000000000000000000000000600052603260045260246000fd5b906000526020600020906005020160000160189054906101000a900461ffff1661ffff16901b17901b60c060058581548110611c21577f4e487b7100000000000000000000000000000000000000000000000000000000600052603260045260246000fd5b906000526020600020906005020160000160109054906101000a900467ffffffffffffffff1667ffffffffffffffff16901b17179050919050565b60007f01ffc9a7000000000000000000000000000000000000000000000000000000007bffffffffffffffffffffffffffffffffffffffffffffffffffffffff1916827bffffffffffffffffffffffffffffffffffffffffffffffffffffffff1916149050919050565b6060600082511415611ce957604051806020016040528060008152509050611e6c565b60006040518060600160405280604081526020016159626040913990506000600360028551611d189190614903565b611d22919061498a565b6004611d2e9190614a36565b90506000602082611d3f9190614903565b67ffffffffffffffff811115611d7e577f4e487b7100000000000000000000000000000000000000000000000000000000600052604160045260246000fd5b6040519080825280601f01601f191660200182016040528015611db05781602001600182028036833780820191505090505b509050818152600183018586518101602084015b81831015611e2b576003830192508251603f8160121c1685015160f81b8252600182019150603f81600c1c1685015160f81b8252600182019150603f8160061c1685015160f81b8252600182019150603f811685015160f81b825260018201915050611dc4565b600389510660018114611e455760028114611e5557611e60565b613d3d60f01b6002830352611e60565b603d60f81b60018303525b50505050508093505050505b919050565b60606000821415611eb9576040518060400160405280600181526020017f30000000000000000000000000000000000000000000000000000000000000008152509050612019565b600082905060005b60008214611eeb578080611ed490614dc6565b915050600a82611ee4919061498a565b9150611ec1565b60008167ffffffffffffffff811115611f2d577f4e487b7100000000000000000000000000000000000000000000000000000000600052604160045260246000fd5b6040519080825280601f01601f191660200182016040528015611f5f5781602001600182028036833780820191505090505b5090505b6000851461201257600182611f789190614ad2565b9150600a85611f879190614e0f565b6030611f939190614903565b60f81b818381518110611fcf577f4e487b7100000000000000000000000000000000000000000000000000000000600052603260045260246000fd5b60200101907effffffffffffffffffffffffffffffffffffffffffffffffffffffffffffff1916908160001a905350600a8561200b919061498a565b9450611f63565b8093505050505b919050565b600033905090565b815183511461206a576040517f08c379a0000000000000000000000000000000000000000000000000000000008152600401612061906145fd565b60405180910390fd5b600073ffffffffffffffffffffffffffffffffffffffff168473ffffffffffffffffffffffffffffffffffffffff1614156120da576040517f08c379a00000000000000000000000000000000000000000000000000000000081526004016120d19061453d565b60405180910390fd5b60006120e461201e565b90506120f4818787878787612e25565b60005b84518110156122f157600085828151811061213b577f4e487b7100000000000000000000000000000000000000000000000000000000600052603260045260246000fd5b602002602001015190506000858381518110612180577f4e487b7100000000000000000000000000000000000000000000000000000000600052603260045260246000fd5b60200260200101519050600080600084815260200190815260200160002060008b73ffffffffffffffffffffffffffffffffffffffff1673ffffffffffffffffffffffffffffffffffffffff16815260200190815260200160002054905081811015612221576040517f08c379a00000000000000000000000000000000000000000000000000000000081526004016122189061459d565b60405180910390fd5b81810360008085815260200190815260200160002060008c73ffffffffffffffffffffffffffffffffffffffff1673ffffffffffffffffffffffffffffffffffffffff168152602001908152602001600020819055508160008085815260200190815260200160002060008b73ffffffffffffffffffffffffffffffffffffffff1673ffffffffffffffffffffffffffffffffffffffff16815260200190815260200160002060008282546122d69190614903565b92505081905550505050806122ea90614dc6565b90506120f7565b508473ffffffffffffffffffffffffffffffffffffffff168673ffffffffffffffffffffffffffffffffffffffff168273ffffffffffffffffffffffffffffffffffffffff167f4a39dc06d4c0dbc64b70af90fd698a233a518aa5d07e595d983b8c0526c8f7fb87876040516123689291906143f3565b60405180910390a461237e818787878787612e2d565b505050505050565b600073ffffffffffffffffffffffffffffffffffffffff168373ffffffffffffffffffffffffffffffffffffffff1614156123f6576040517f08c379a00000000000000000000000000000000000000000000000000000000081526004016123ed9061457d565b60405180910390fd5b805182511461243a576040517f08c379a0000000000000000000000000000000000000000000000000000000008152600401612431906145fd565b60405180910390fd5b600061244461201e565b905061246481856000868660405180602001604052806000815250612e25565b60005b83518110156125fd5760008482815181106124ab577f4e487b7100000000000000000000000000000000000000000000000000000000600052603260045260246000fd5b6020026020010151905060008483815181106124f0577f4e487b7100000000000000000000000000000000000000000000000000000000600052603260045260246000fd5b60200260200101519050600080600084815260200190815260200160002060008973ffffffffffffffffffffffffffffffffffffffff1673ffffffffffffffffffffffffffffffffffffffff16815260200190815260200160002054905081811015612591576040517f08c379a0000000000000000000000000000000000000000000000000000000008152600401612588906144fd565b60405180910390fd5b81810360008085815260200190815260200160002060008a73ffffffffffffffffffffffffffffffffffffffff1673ffffffffffffffffffffffffffffffffffffffff1681526020019081526020016000208190555050505080806125f590614dc6565b915050612467565b50600073ffffffffffffffffffffffffffffffffffffffff168473ffffffffffffffffffffffffffffffffffffffff168273ffffffffffffffffffffffffffffffffffffffff167f4a39dc06d4c0dbc64b70af90fd698a233a518aa5d07e595d983b8c0526c8f7fb86866040516126759291906143f3565b60405180910390a450505050565b600073ffffffffffffffffffffffffffffffffffffffff168473ffffffffffffffffffffffffffffffffffffffff1614156126f3576040517f08c379a00000000000000000000000000000000000000000000000000000000081526004016126ea9061461d565b60405180910390fd5b60006126fd61201e565b905061271e8160008761270f88613014565b61271888613014565b87612e25565b8260008086815260200190815260200160002060008773ffffffffffffffffffffffffffffffffffffffff1673ffffffffffffffffffffffffffffffffffffffff168152602001908152602001600020600082825461277d9190614903565b925050819055508473ffffffffffffffffffffffffffffffffffffffff16600073ffffffffffffffffffffffffffffffffffffffff168273ffffffffffffffffffffffffffffffffffffffff167fc3d58168c5ae7397731d063d5bbf3d657854427343f4c083240f7aacaa2d0f6287876040516127fb92919061470d565b60405180910390a4612812816000878787876130da565b5050505050565b8173ffffffffffffffffffffffffffffffffffffffff168373ffffffffffffffffffffffffffffffffffffffff161415612888576040517f08c379a000000000000000000000000000000000000000000000000000000000815260040161287f906145bd565b60405180910390fd5b80600160008573ffffffffffffffffffffffffffffffffffffffff1673ffffffffffffffffffffffffffffffffffffffff16815260200190815260200160002060008473ffffffffffffffffffffffffffffffffffffffff1673ffffffffffffffffffffffffffffffffffffffff16815260200190815260200160002060006101000a81548160ff0219169083151502179055508173ffffffffffffffffffffffffffffffffffffffff168373ffffffffffffffffffffffffffffffffffffffff167f17307eab39ab6107e8899845ad3d59bd9653f200f220920489ca2b5937696c3183604051612979919061442a565b60405180910390a3505050565b600073ffffffffffffffffffffffffffffffffffffffff168473ffffffffffffffffffffffffffffffffffffffff1614156129f6576040517f08c379a00000000000000000000000000000000000000000000000000000000081526004016129ed9061453d565b60405180910390fd5b6000612a0061201e565b9050612a20818787612a1188613014565b612a1a88613014565b87612e25565b600080600086815260200190815260200160002060008873ffffffffffffffffffffffffffffffffffffffff1673ffffffffffffffffffffffffffffffffffffffff16815260200190815260200160002054905083811015612ab7576040517f08c379a0000000000000000000000000000000000000000000000000000000008152600401612aae9061459d565b60405180910390fd5b83810360008087815260200190815260200160002060008973ffffffffffffffffffffffffffffffffffffffff1673ffffffffffffffffffffffffffffffffffffffff168152602001908152602001600020819055508360008087815260200190815260200160002060008873ffffffffffffffffffffffffffffffffffffffff1673ffffffffffffffffffffffffffffffffffffffff1681526020019081526020016000206000828254612b6c9190614903565b925050819055508573ffffffffffffffffffffffffffffffffffffffff168773ffffffffffffffffffffffffffffffffffffffff168373ffffffffffffffffffffffffffffffffffffffff167fc3d58168c5ae7397731d063d5bbf3d657854427343f4c083240f7aacaa2d0f628888604051612be992919061470d565b60405180910390a4612bff8288888888886130da565b50505050505050565b600073ffffffffffffffffffffffffffffffffffffffff168373ffffffffffffffffffffffffffffffffffffffff161415612c78576040517f08c379a0000000000000000000000000000000000000000000000000000000008152600401612c6f9061457d565b60405180910390fd5b6000612c8261201e565b9050612cb281856000612c9487613014565b612c9d87613014565b60405180602001604052806000815250612e25565b600080600085815260200190815260200160002060008673ffffffffffffffffffffffffffffffffffffffff1673ffffffffffffffffffffffffffffffffffffffff16815260200190815260200160002054905082811015612d49576040517f08c379a0000000000000000000000000000000000000000000000000000000008152600401612d40906144fd565b60405180910390fd5b82810360008086815260200190815260200160002060008773ffffffffffffffffffffffffffffffffffffffff1673ffffffffffffffffffffffffffffffffffffffff16815260200190815260200160002081905550600073ffffffffffffffffffffffffffffffffffffffff168573ffffffffffffffffffffffffffffffffffffffff168373ffffffffffffffffffffffffffffffffffffffff167fc3d58168c5ae7397731d063d5bbf3d657854427343f4c083240f7aacaa2d0f628787604051612e1692919061470d565b60405180910390a45050505050565b505050505050565b612e4c8473ffffffffffffffffffffffffffffffffffffffff166132c1565b1561300c578373ffffffffffffffffffffffffffffffffffffffff1663bc197c8187878686866040518663ffffffff1660e01b8152600401612e929594939291906142d8565b602060405180830381600087803b158015612eac57600080fd5b505af1925050508015612edd57506040513d601f19601f82011682018060405250810190612eda91906139ef565b60015b612f8357612ee9614ecd565b806308c379a01415612f465750612efe61582a565b80612f095750612f48565b806040517f08c379a0000000000000000000000000000000000000000000000000000000008152600401612f3d919061447b565b60405180910390fd5b505b6040517f08c379a0000000000000000000000000000000000000000000000000000000008152600401612f7a9061449d565b60405180910390fd5b63bc197c8160e01b7bffffffffffffffffffffffffffffffffffffffffffffffffffffffff1916817bffffffffffffffffffffffffffffffffffffffffffffffffffffffff19161461300a576040517f08c379a0000000000000000000000000000000000000000000000000000000008152600401613001906144bd565b60405180910390fd5b505b505050505050565b60606000600167ffffffffffffffff811115613059577f4e487b7100000000000000000000000000000000000000000000000000000000600052604160045260246000fd5b6040519080825280602002602001820160405280156130875781602001602082028036833780820191505090505b50905082816000815181106130c5577f4e487b7100000000000000000000000000000000000000000000000000000000600052603260045260246000fd5b60200260200101818152505080915050919050565b6130f98473ffffffffffffffffffffffffffffffffffffffff166132c1565b156132b9578373ffffffffffffffffffffffffffffffffffffffff1663f23a6e6187878686866040518663ffffffff1660e01b815260040161313f959493929190614377565b602060405180830381600087803b15801561315957600080fd5b505af192505050801561318a57506040513d601f19601f8201168201806040525081019061318791906139ef565b60015b61323057613196614ecd565b806308c379a014156131f357506131ab61582a565b806131b657506131f5565b806040517f08c379a00000000000000000000000000000000000000000000000000000000081526004016131ea919061447b565b60405180910390fd5b505b6040517f08c379a00000000000000000000000000000000000000000000000000000000081526004016132279061449d565b60405180910390fd5b63f23a6e6160e01b7bffffffffffffffffffffffffffffffffffffffffffffffffffffffff1916817bffffffffffffffffffffffffffffffffffffffffffffffffffffffff1916146132b7576040517f08c379a00000000000000000000000000000000000000000000000000000000081526004016132ae906144bd565b60405180910390fd5b505b505050505050565b600080823b905060008111915050919050565b60006132e76132e28461475b565b614736565b9050808382526020820190508285602086028201111561330657600080fd5b60005b85811015613336578161331c8882613494565b845260208401935060208301925050600181019050613309565b5050509392505050565b600061335361334e84614787565b614736565b9050808382526020820190508285602086028201111561337257600080fd5b60005b858110156133a2578161338888826135f9565b845260208401935060208301925050600181019050613375565b5050509392505050565b60006133bf6133ba846147b3565b614736565b905080838252602082019050828560208602820111156133de57600080fd5b60005b8581101561340e57816133f4888261360e565b8452602084019350602083019250506001810190506133e1565b5050509392505050565b600061342b613426846147df565b614736565b90508281526020810184848401111561344357600080fd5b61344e848285614c8c565b509392505050565b600061346961346484614810565b614736565b90508281526020810184848401111561348157600080fd5b61348c848285614c9b565b509392505050565b6000813590506134a3816158c0565b92915050565b6000815190506134b8816158c0565b92915050565b600082601f8301126134cf57600080fd5b81356134df8482602086016132d4565b91505092915050565b600082601f8301126134f957600080fd5b8135613509848260208601613340565b91505092915050565b600082601f83011261352357600080fd5b81356135338482602086016133ac565b91505092915050565b60008135905061354b816158d7565b92915050565b600081519050613560816158d7565b92915050565b600081359050613575816158ee565b92915050565b60008151905061358a816158ee565b92915050565b600082601f8301126135a157600080fd5b81356135b1848260208601613418565b91505092915050565b600082601f8301126135cb57600080fd5b81516135db848260208601613456565b91505092915050565b6000813590506135f381615905565b92915050565b6000813590506136088161591c565b92915050565b60008135905061361d81615933565b92915050565b6000813590506136328161594a565b92915050565b60006020828403121561364a57600080fd5b6000613658848285016134a9565b91505092915050565b6000806040838503121561367457600080fd5b600061368285828601613494565b925050602061369385828601613494565b9150509250929050565b600080600080600060a086880312156136b557600080fd5b60006136c388828901613494565b95505060206136d488828901613494565b945050604086013567ffffffffffffffff8111156136f157600080fd5b6136fd88828901613512565b935050606086013567ffffffffffffffff81111561371a57600080fd5b61372688828901613512565b925050608086013567ffffffffffffffff81111561374357600080fd5b61374f88828901613590565b9150509295509295909350565b600080600080600060a0868803121561377457600080fd5b600061378288828901613494565b955050602061379388828901613494565b94505060406137a48882890161360e565b93505060606137b58882890161360e565b925050608086013567ffffffffffffffff8111156137d257600080fd5b6137de88828901613590565b9150509295509295909350565b60008060006060848603121561380057600080fd5b600061380e86828701613494565b935050602084013567ffffffffffffffff81111561382b57600080fd5b61383786828701613512565b925050604084013567ffffffffffffffff81111561385457600080fd5b61386086828701613512565b9150509250925092565b6000806040838503121561387d57600080fd5b600061388b85828601613494565b925050602061389c8582860161353c565b9150509250929050565b600080604083850312156138b957600080fd5b60006138c785828601613494565b92505060206138d88582860161360e565b9150509250929050565b6000806000606084860312156138f757600080fd5b600061390586828701613494565b93505060206139168682870161360e565b92505060406139278682870161360e565b9150509250925092565b6000806040838503121561394457600080fd5b600083013567ffffffffffffffff81111561395e57600080fd5b61396a858286016134be565b925050602083013567ffffffffffffffff81111561398757600080fd5b61399385828601613512565b9150509250929050565b6000602082840312156139af57600080fd5b60006139bd84828501613551565b91505092915050565b6000602082840312156139d857600080fd5b60006139e684828501613566565b91505092915050565b600060208284031215613a0157600080fd5b6000613a0f8482850161357b565b91505092915050565b600060208284031215613a2a57600080fd5b600082015167ffffffffffffffff811115613a4457600080fd5b613a50848285016135ba565b91505092915050565b600060208284031215613a6b57600080fd5b6000613a798482850161360e565b91505092915050565b60008060408385031215613a9557600080fd5b6000613aa38582860161360e565b9250506020613ab48582860161360e565b9150509250929050565b600080600080600060a08688031215613ad657600080fd5b6000613ae48882890161360e565b9550506020613af588828901613623565b9450506040613b06888289016135e4565b9350506060613b178882890161360e565b9250506080613b288882890161360e565b9150509295509295909350565b600080600080600080600060e0888a031215613b5057600080fd5b6000613b5e8a828b01613623565b9750506020613b6f8a828b016135f9565b9650506040613b808a828b01613494565b955050606088013567ffffffffffffffff811115613b9d57600080fd5b613ba98a828b016134e8565b9450506080613bba8a828b016135e4565b93505060a0613bcb8a828b0161360e565b92505060c0613bdc8a828b0161360e565b91505092959891949750929550565b6000613bf783836141a8565b60208301905092915050565b613c0c81614b6e565b82525050565b6000613c1d82614851565b613c27818561487f565b9350613c3283614841565b8060005b83811015613c63578151613c4a8882613beb565b9750613c5583614872565b925050600181019050613c36565b5085935050505092915050565b613c7981614b80565b82525050565b6000613c8a8261485c565b613c948185614890565b9350613ca4818560208601614c9b565b613cad81614eef565b840191505092915050565b613cc181614c20565b82525050565b613cd081614c44565b82525050565b613cdf81614c68565b82525050565b613cee81614c68565b82525050565b6000613cff82614867565b613d0981856148a1565b9350613d19818560208601614c9b565b613d2281614eef565b840191505092915050565b6000613d3882614867565b613d4281856148b2565b9350613d52818560208601614c9b565b80840191505092915050565b6000613d6b6034836148a1565b9150613d7682614f41565b604082019050919050565b6000613d8e6028836148a1565b9150613d9982614f90565b604082019050919050565b6000613db16025836148b2565b9150613dbc82614fdf565b602582019050919050565b6000613dd46009836148b2565b9150613ddf8261502e565b600982019050919050565b6000613df7604a836148b2565b9150613e0282615057565b604a82019050919050565b6000613e1a602b836148a1565b9150613e25826150cc565b604082019050919050565b6000613e3d6024836148a1565b9150613e488261511b565b604082019050919050565b6000613e606029836148a1565b9150613e6b8261516a565b604082019050919050565b6000613e846101fe836148b2565b9150613e8f826151b9565b6101fe82019050919050565b6000613ea86046836148b2565b9150613eb382615424565b604682019050919050565b6000613ecb6025836148a1565b9150613ed682615499565b604082019050919050565b6000613eee6032836148a1565b9150613ef9826154e8565b604082019050919050565b6000613f116023836148a1565b9150613f1c82615537565b604082019050919050565b6000613f34602a836148a1565b9150613f3f82615586565b604082019050919050565b6000613f57603c836148b2565b9150613f62826155d5565b603c82019050919050565b6000613f7a601d836148b2565b9150613f8582615624565b601d82019050919050565b6000613f9d602f836148b2565b9150613fa88261564d565b602f82019050919050565b6000613fc06029836148a1565b9150613fcb8261569c565b604082019050919050565b6000613fe36029836148a1565b9150613fee826156eb565b604082019050919050565b60006140066028836148a1565b91506140118261573a565b604082019050919050565b60006140296021836148a1565b915061403482615789565b604082019050919050565b600061404c6006836148b2565b9150614057826157d8565b600682019050919050565b600061406f6004836148b2565b915061407a82615801565b600482019050919050565b6101008201600080830154905061409b81614ce8565b6140a8600086018261416c565b506140b281614d1c565b6140bf60208601826141c6565b506140c981614d36565b6140d6604086018261418a565b506140e081614d50565b6140ed606086018261418a565b50600183015490506140fe81614cce565b61410b6080860182613cd6565b506002830154905061411c81614ce8565b61412960a086018261416c565b506003830154905061413a81614d02565b61414760c08601826141a8565b506004830154905061415881614d02565b61416560e08601826141a8565b5050505050565b61417581614bb8565b82525050565b61418481614bb8565b82525050565b61419381614bd4565b82525050565b6141a281614bd4565b82525050565b6141b181614c02565b82525050565b6141c081614c02565b82525050565b6141cf81614c0c565b82525050565b6141de81614c0c565b82525050565b60006141ef82613dc7565b91506141fb8289613d2d565b915061420682613dea565b91506142128288613d2d565b915061421d82613f90565b91506142298287613d2d565b915061423482613f4a565b91506142408286613d2d565b915061424b82613e9b565b91506142578285613d2d565b915061426282613da4565b915061426e8284613d2d565b915061427982614062565b9150819050979650505050505050565b600061429482613e76565b91506142a08284613d2d565b91506142ab8261403f565b915081905092915050565b60006142c182613f6d565b91506142cd8284613d2d565b915081905092915050565b600060a0820190506142ed6000830188613c03565b6142fa6020830187613c03565b818103604083015261430c8186613c12565b905081810360608301526143208185613c12565b905081810360808301526143348184613c7f565b90509695505050505050565b60006060820190506143556000830186613c03565b6143626020830185613c03565b61436f60408301846141b7565b949350505050565b600060a08201905061438c6000830188613c03565b6143996020830187613c03565b6143a660408301866141b7565b6143b360608301856141b7565b81810360808301526143c58184613c7f565b90509695505050505050565b600060208201905081810360008301526143eb8184613c12565b905092915050565b6000604082019050818103600083015261440d8185613c12565b905081810360208301526144218184613c12565b90509392505050565b600060208201905061443f6000830184613c70565b92915050565b600060208201905061445a6000830184613cb8565b92915050565b60006020820190506144756000830184613cc7565b92915050565b600060208201905081810360008301526144958184613cf4565b905092915050565b600060208201905081810360008301526144b681613d5e565b9050919050565b600060208201905081810360008301526144d681613d81565b9050919050565b600060208201905081810360008301526144f681613e0d565b9050919050565b6000602082019050818103600083015261451681613e30565b9050919050565b6000602082019050818103600083015261453681613e53565b9050919050565b6000602082019050818103600083015261455681613ebe565b9050919050565b6000602082019050818103600083015261457681613ee1565b9050919050565b6000602082019050818103600083015261459681613f04565b9050919050565b600060208201905081810360008301526145b681613f27565b9050919050565b600060208201905081810360008301526145d681613fb3565b9050919050565b600060208201905081810360008301526145f681613fd6565b9050919050565b6000602082019050818103600083015261461681613ff9565b9050919050565b600060208201905081810360008301526146368161401c565b9050919050565b6000610100820190506146536000830184614085565b92915050565b60006101008201905061466f600083018b61417b565b61467c602083018a6141d5565b6146896040830189614199565b6146966060830188614199565b6146a36080830187613ce5565b6146b060a083018661417b565b6146bd60c08301856141b7565b6146ca60e08301846141b7565b9998505050505050505050565b60006020820190506146ec6000830184614199565b92915050565b600060208201905061470760008301846141b7565b92915050565b600060408201905061472260008301856141b7565b61472f60208301846141b7565b9392505050565b6000614740614751565b905061474c8282614d6a565b919050565b6000604051905090565b600067ffffffffffffffff82111561477657614775614e9e565b5b602082029050602081019050919050565b600067ffffffffffffffff8211156147a2576147a1614e9e565b5b602082029050602081019050919050565b600067ffffffffffffffff8211156147ce576147cd614e9e565b5b602082029050602081019050919050565b600067ffffffffffffffff8211156147fa576147f9614e9e565b5b61480382614eef565b9050602081019050919050565b600067ffffffffffffffff82111561482b5761482a614e9e565b5b61483482614eef565b9050602081019050919050565b6000819050602082019050919050565b600081519050919050565b600081519050919050565b600081519050919050565b6000602082019050919050565b600082825260208201905092915050565b600082825260208201905092915050565b600082825260208201905092915050565b600081905092915050565b60006148c882614bb8565b91506148d383614bb8565b9250826fffffffffffffffffffffffffffffffff038211156148f8576148f7614e40565b5b828201905092915050565b600061490e82614c02565b915061491983614c02565b9250827fffffffffffffffffffffffffffffffffffffffffffffffffffffffffffffffff0382111561494e5761494d614e40565b5b828201905092915050565b600061496482614bb8565b915061496f83614bb8565b92508261497f5761497e614e6f565b5b828204905092915050565b600061499582614c02565b91506149a083614c02565b9250826149b0576149af614e6f565b5b828204905092915050565b60006149c682614c0c565b91506149d183614c0c565b9250826149e1576149e0614e6f565b5b828204905092915050565b60006149f782614bb8565b9150614a0283614bb8565b9250816fffffffffffffffffffffffffffffffff0483118215151615614a2b57614a2a614e40565b5b828202905092915050565b6000614a4182614c02565b9150614a4c83614c02565b9250817fffffffffffffffffffffffffffffffffffffffffffffffffffffffffffffffff0483118215151615614a8557614a84614e40565b5b828202905092915050565b6000614a9b82614c0c565b9150614aa683614c0c565b92508167ffffffffffffffff0483118215151615614ac757614ac6614e40565b5b828202905092915050565b6000614add82614c02565b9150614ae883614c02565b925082821015614afb57614afa614e40565b5b828203905092915050565b600073ffffffffffffffffffffffffffffffffffffffff82169050919050565b60006fffffffffffffffffffffffffffffffff82169050919050565b600061ffff82169050919050565b6000819050919050565b600067ffffffffffffffff82169050919050565b6000614b7982614be2565b9050919050565b60008115159050919050565b60007fffffffff0000000000000000000000000000000000000000000000000000000082169050919050565b60006fffffffffffffffffffffffffffffffff82169050919050565b600061ffff82169050919050565b600073ffffffffffffffffffffffffffffffffffffffff82169050919050565b6000819050919050565b600067ffffffffffffffff82169050919050565b6000614c2b82614c32565b9050919050565b6000614c3d82614be2565b9050919050565b6000614c4f82614c56565b9050919050565b6000614c6182614be2565b9050919050565b6000614c7382614c7a565b9050919050565b6000614c8582614be2565b9050919050565b82818337600083830152505050565b60005b83811015614cb9578082015181840152602081019050614c9e565b83811115614cc8576000848401525b50505050565b6000614ce1614cdc83614f00565b614b06565b9050919050565b6000614cfb614cf683614f00565b614b26565b9050919050565b6000614d15614d1083614f00565b614b50565b9050919050565b6000614d2f614d2a83614f0d565b614b5a565b9050919050565b6000614d49614d4483614f1a565b614b42565b9050919050565b6000614d63614d5e83614f27565b614b42565b9050919050565b614d7382614eef565b810181811067ffffffffffffffff82111715614d9257614d91614e9e565b5b80604052505050565b6000614da682614bd4565b915061ffff821415614dbb57614dba614e40565b5b600182019050919050565b6000614dd182614c02565b91507fffffffffffffffffffffffffffffffffffffffffffffffffffffffffffffffff821415614e0457614e03614e40565b5b600182019050919050565b6000614e1a82614c02565b9150614e2583614c02565b925082614e3557614e34614e6f565b5b828206905092915050565b7f4e487b7100000000000000000000000000000000000000000000000000000000600052601160045260246000fd5b7f4e487b7100000000000000000000000000000000000000000000000000000000600052601260045260246000fd5b7f4e487b7100000000000000000000000000000000000000000000000000000000600052604160045260246000fd5b600060033d1115614eec5760046000803e614ee9600051614f34565b90505b90565b6000601f19601f8301169050919050565b60008160001c9050919050565b60008160801c9050919050565b60008160c01c9050919050565b60008160d01c9050919050565b60008160e01c9050919050565b7f455243313135353a207472616e7366657220746f206e6f6e204552433131353560008201527f526563656976657220696d706c656d656e746572000000000000000000000000602082015250565b7f455243313135353a204552433131353552656365697665722072656a6563746560008201527f6420746f6b656e73000000000000000000000000000000000000000000000000602082015250565b7f227d2c7b2274726169745f74797065223a225765617261626c65222c2276616c60008201527f7565223a22000000000000000000000000000000000000000000000000000000602082015250565b7f7b226e616d65223a220000000000000000000000000000000000000000000000600082015250565b7f222c226465736372697074696f6e223a2241746f7069612053686f7070696e6760008201527f204974656d222c22696d616765223a22646174613a696d6167652f7376672b7860208201527f6d6c3b6261736536342c00000000000000000000000000000000000000000000604082015250565b7f455243313135353a2062616c616e636520717565727920666f7220746865207a60008201527f65726f2061646472657373000000000000000000000000000000000000000000602082015250565b7f455243313135353a206275726e20616d6f756e7420657863656564732062616c60008201527f616e636500000000000000000000000000000000000000000000000000000000602082015250565b7f455243313135353a2063616c6c6572206973206e6f74206f776e6572206e6f7260008201527f20617070726f7665640000000000000000000000000000000000000000000000602082015250565b7f3c3f786d6c2076657273696f6e3d22312e302220656e636f64696e673d22757460008201527f662d38223f3e3c7376672076657273696f6e3d22312e31222069643d225f783360208201527f315f2220786d6c6e733d22687474703a2f2f7777772e77332e6f72672f32303060408201527f302f7376672220786d6c6e733a786c696e6b3d22687474703a2f2f7777772e7760608201527f332e6f72672f313939392f786c696e6b2220783d223070782220793d2230707860808201527f222076696577426f783d223020302031303030203130303022207374796c653d60a08201527f22656e61626c652d6261636b67726f756e643a6e65772030203020313030302060c08201527f313030303b2220786d6c3a73706163653d227072657365727665223e3c73747960e08201527f6c6520747970653d22746578742f637373223e2e677b77696474683a313030256101008201527f3b6865696768743a313030257d2e687b6f766572666c6f773a76697369626c656101208201527f3b7d2e737b7374726f6b653a233030303030303b7374726f6b652d77696474686101408201527f3a31303b7374726f6b652d6d697465726c696d69743a31303b7d2e647b7374726101608201527f6f6b652d6c696e656361703a726f756e643b7374726f6b652d6c696e656a6f696101808201527f6e3a726f756e647d2e667b66696c6c3a234644413738423b7d2e637b66696c6c6101a08201527f3a234646444142363b7d2e657b66696c6c3a6e6f6e653b7d2e6c7b66696c6c3a6101c08201527f77686974653b7d2e627b66696c6c3a626c61636b3b7d3c2f7374796c653e00006101e082015250565b7f227d2c7b22646973706c61795f74797065223a226e756d626572222c2274726160008201527f69745f74797065223a224167652047726f77746820286461797329222c22766160208201527f6c7565223a220000000000000000000000000000000000000000000000000000604082015250565b7f455243313135353a207472616e7366657220746f20746865207a65726f20616460008201527f6472657373000000000000000000000000000000000000000000000000000000602082015250565b7f455243313135353a207472616e736665722063616c6c6572206973206e6f742060008201527f6f776e6572206e6f7220617070726f7665640000000000000000000000000000602082015250565b7f455243313135353a206275726e2066726f6d20746865207a65726f206164647260008201527f6573730000000000000000000000000000000000000000000000000000000000602082015250565b7f455243313135353a20696e73756666696369656e742062616c616e636520666f60008201527f72207472616e7366657200000000000000000000000000000000000000000000602082015250565b7f227d2c7b22646973706c61795f74797065223a226e756d626572222c2274726160008201527f69745f74797065223a224d696e20416765222c2276616c7565223a2200000000602082015250565b7f646174613a6170706c69636174696f6e2f6a736f6e3b6261736536342c000000600082015250565b7f222c2261747472696275746573223a5b7b2274726169745f74797065223a225360008201527f746f7265222c2276616c7565223a220000000000000000000000000000000000602082015250565b7f455243313135353a2073657474696e6720617070726f76616c2073746174757360008201527f20666f722073656c660000000000000000000000000000000000000000000000602082015250565b7f455243313135353a206163636f756e747320616e6420696473206c656e67746860008201527f206d69736d617463680000000000000000000000000000000000000000000000602082015250565b7f455243313135353a2069647320616e6420616d6f756e7473206c656e6774682060008201527f6d69736d61746368000000000000000000000000000000000000000000000000602082015250565b7f455243313135353a206d696e7420746f20746865207a65726f2061646472657360008201527f7300000000000000000000000000000000000000000000000000000000000000602082015250565b7f3c2f7376673e0000000000000000000000000000000000000000000000000000600082015250565b7f227d5d7d00000000000000000000000000000000000000000000000000000000600082015250565b600060443d101561583a576158bd565b615842614751565b60043d036004823e80513d602482011167ffffffffffffffff8211171561586a5750506158bd565b808201805167ffffffffffffffff81111561588857505050506158bd565b80602083010160043d0385018111156158a55750505050506158bd565b6158b482602001850186614d6a565b82955050505050505b90565b6158c981614b6e565b81146158d457600080fd5b50565b6158e081614b80565b81146158eb57600080fd5b50565b6158f781614b8c565b811461590257600080fd5b50565b61590e81614bb8565b811461591957600080fd5b50565b61592581614bd4565b811461593057600080fd5b50565b61593c81614c02565b811461594757600080fd5b50565b61595381614c0c565b811461595e57600080fd5b5056fe4142434445464748494a4b4c4d4e4f505152535455565758595a6162636465666768696a6b6c6d6e6f707172737475767778797a303132333435363738392b2fa2646970667358221220bf79d88994528557851217dfdd61b916a82993c6217937fefbe606c9678150e864736f6c63430008040033"
  }
}