{
  "opcodeHash": "0x6392365cbfbfc114fef3c453dc75520fc80fc47c59ba9ed926c4a77f44689d28",
  "metalessHash": "0x18c8529fa0c3efdd4ade6a9f2edfaa19f48e665ec2dee85a6347c7573fedbdcb",
  "runtimeHash": "0xb3b40cac7731d23754893498ceabfc8f39ed77ea290e2384157987f6681ea38f",
  "encodedMetadata": [
    {
      "ipfs": "/ipfs/QmW7DPzW6MtRju7ke75W7DTNPVL1YsLyZ7ujehAHgE6nat",
      "solc": "0.7.5"
    }
  ],
  "abi": [
    {
      "inputs": [],
      "stateMutability": "nonpayable",
      "type": "constructor"
    },
    {
      "anonymous": false,
      "inputs": [
        {
          "indexed": true,
          "internalType": "address",
          "name": "owner",
          "type": "address"
        },
        {
          "indexed": true,
          "internalType": "address",
          "name": "spender",
          "type": "address"
        },
        {
          "indexed": false,
          "internalType": "uint256",
          "name": "value",
          "type": "uint256"
        }
      ],
      "name": "Approval",
      "type": "event"
    },
    {
      "anonymous": false,
      "inputs": [
        {
          "indexed": true,
          "internalType": "address",
          "name": "previousOwner",
          "type": "address"
        },
        {
          "indexed": true,
          "internalType": "address",
          "name": "newOwner",
          "type": "address"
        }
      ],
      "name": "OwnershipTransferred",
      "type": "event"
    },
    {
      "anonymous": false,
      "inputs": [
        {
          "indexed": true,
          "internalType": "address",
          "name": "from",
          "type": "address"
        },
        {
          "indexed": true,
          "internalType": "address",
          "name": "to",
          "type": "address"
        },
        {
          "indexed": false,
          "internalType": "uint256",
          "name": "value",
          "type": "uint256"
        }
      ],
      "name": "Transfer",
      "type": "event"
    },
    {
      "inputs": [],
      "name": "DOMAIN_SEPARATOR",
      "outputs": [
        {
          "internalType": "bytes32",
          "name": "",
          "type": "bytes32"
        }
      ],
      "stateMutability": "view",
      "type": "function"
    },
    {
      "inputs": [],
      "name": "PERMIT_TYPEHASH",
      "outputs": [
        {
          "internalType": "bytes32",
          "name": "",
          "type": "bytes32"
        }
      ],
      "stateMutability": "view",
      "type": "function"
    },
    {
      "inputs": [
        {
          "internalType": "address",
          "name": "account_",
          "type": "address"
        },
        {
          "internalType": "uint256",
          "name": "amount_",
          "type": "uint256"
        }
      ],
      "name": "_burnFrom",
      "outputs": [],
      "stateMutability": "nonpayable",
      "type": "function"
    },
    {
      "inputs": [
        {
          "internalType": "address[]",
          "name": "authorisedOperatorsArray",
          "type": "address[]"
        }
      ],
      "name": "addBatchAuthorisedOperators",
      "outputs": [],
      "stateMutability": "nonpayable",
      "type": "function"
    },
    {
      "inputs": [
        {
          "internalType": "address",
          "name": "owner",
          "type": "address"
        },
        {
          "internalType": "address",
          "name": "spender",
          "type": "address"
        }
      ],
      "name": "allowance",
      "outputs": [
        {
          "internalType": "uint256",
          "name": "",
          "type": "uint256"
        }
      ],
      "stateMutability": "view",
      "type": "function"
    },
    {
      "inputs": [
        {
          "internalType": "address",
          "name": "spender",
          "type": "address"
        },
        {
          "internalType": "uint256",
          "name": "amount",
          "type": "uint256"
        }
      ],
      "name": "approve",
      "outputs": [
        {
          "internalType": "bool",
          "name": "",
          "type": "bool"
        }
      ],
      "stateMutability": "nonpayable",
      "type": "function"
    },
    {
      "inputs": [
        {
          "internalType": "address",
          "name": "account",
          "type": "address"
        }
      ],
      "name": "balanceOf",
      "outputs": [
        {
          "internalType": "uint256",
          "name": "",
          "type": "uint256"
        }
      ],
      "stateMutability": "view",
      "type": "function"
    },
    {
      "inputs": [
        {
          "internalType": "uint256",
          "name": "amount",
          "type": "uint256"
        }
      ],
      "name": "burn",
      "outputs": [],
      "stateMutability": "nonpayable",
      "type": "function"
    },
    {
      "inputs": [
        {
          "internalType": "address",
          "name": "account_",
          "type": "address"
        },
        {
          "internalType": "uint256",
          "name": "amount_",
          "type": "uint256"
        }
      ],
      "name": "burnFrom",
      "outputs": [],
      "stateMutability": "nonpayable",
      "type": "function"
    },
    {
      "inputs": [
        {
          "internalType": "address",
          "name": "operator",
          "type": "address"
        },
        {
          "internalType": "bool",
          "name": "status",
          "type": "bool"
        }
      ],
      "name": "changeAuthorisation",
      "outputs": [],
      "stateMutability": "nonpayable",
      "type": "function"
    },
    {
      "inputs": [],
      "name": "decimals",
      "outputs": [
        {
          "internalType": "uint8",
          "name": "",
          "type": "uint8"
        }
      ],
      "stateMutability": "view",
      "type": "function"
    },
    {
      "inputs": [
        {
          "internalType": "address",
          "name": "spender",
          "type": "address"
        },
        {
          "internalType": "uint256",
          "name": "subtractedValue",
          "type": "uint256"
        }
      ],
      "name": "decreaseAllowance",
      "outputs": [
        {
          "internalType": "bool",
          "name": "",
          "type": "bool"
        }
      ],
      "stateMutability": "nonpayable",
      "type": "function"
    },
    {
      "inputs": [
        {
          "internalType": "address",
          "name": "spender",
          "type": "address"
        },
        {
          "internalType": "uint256",
          "name": "addedValue",
          "type": "uint256"
        }
      ],
      "name": "increaseAllowance",
      "outputs": [
        {
          "internalType": "bool",
          "name": "",
          "type": "bool"
        }
      ],
      "stateMutability": "nonpayable",
      "type": "function"
    },
    {
      "inputs": [
        {
          "internalType": "address",
          "name": "",
          "type": "address"
        }
      ],
      "name": "isAuthorisedOperators",
      "outputs": [
        {
          "internalType": "bool",
          "name": "",
          "type": "bool"
        }
      ],
      "stateMutability": "view",
      "type": "function"
    },
    {
      "inputs": [],
      "name": "isTokenFrozen",
      "outputs": [
        {
          "internalType": "bool",
          "name": "",
          "type": "bool"
        }
      ],
      "stateMutability": "view",
      "type": "function"
    },
    {
      "inputs": [
        {
          "internalType": "address",
          "name": "account_",
          "type": "address"
        },
        {
          "internalType": "uint256",
          "name": "amount_",
          "type": "uint256"
        }
      ],
      "name": "mint",
      "outputs": [],
      "stateMutability": "nonpayable",
      "type": "function"
    },
    {
      "inputs": [],
      "name": "name",
      "outputs": [
        {
          "internalType": "string",
          "name": "",
          "type": "string"
        }
      ],
      "stateMutability": "view",
      "type": "function"
    },
    {
      "inputs": [
        {
          "internalType": "address",
          "name": "owner",
          "type": "address"
        }
      ],
      "name": "nonces",
      "outputs": [
        {
          "internalType": "uint256",
          "name": "",
          "type": "uint256"
        }
      ],
      "stateMutability": "view",
      "type": "function"
    },
    {
      "inputs": [],
      "name": "owner",
      "outputs": [
        {
          "internalType": "address",
          "name": "",
          "type": "address"
        }
      ],
      "stateMutability": "view",
      "type": "function"
    },
    {
      "inputs": [
        {
          "internalType": "address",
          "name": "owner",
          "type": "address"
        },
        {
          "internalType": "address",
          "name": "spender",
          "type": "address"
        },
        {
          "internalType": "uint256",
          "name": "amount",
          "type": "uint256"
        },
        {
          "internalType": "uint256",
          "name": "deadline",
          "type": "uint256"
        },
        {
          "internalType": "uint8",
          "name": "v",
          "type": "uint8"
        },
        {
          "internalType": "bytes32",
          "name": "r",
          "type": "bytes32"
        },
        {
          "internalType": "bytes32",
          "name": "s",
          "type": "bytes32"
        }
      ],
      "name": "permit",
      "outputs": [],
      "stateMutability": "nonpayable",
      "type": "function"
    },
    {
      "inputs": [],
      "name": "renounceOwnership",
      "outputs": [],
      "stateMutability": "nonpayable",
      "type": "function"
    },
    {
      "inputs": [
        {
          "internalType": "address",
          "name": "vault_",
          "type": "address"
        }
      ],
      "name": "setVault",
      "outputs": [
        {
          "internalType": "bool",
          "name": "",
          "type": "bool"
        }
      ],
      "stateMutability": "nonpayable",
      "type": "function"
    },
    {
      "inputs": [],
      "name": "symbol",
      "outputs": [
        {
          "internalType": "string",
          "name": "",
          "type": "string"
        }
      ],
      "stateMutability": "view",
      "type": "function"
    },
    {
      "inputs": [],
      "name": "totalSupply",
      "outputs": [
        {
          "internalType": "uint256",
          "name": "",
          "type": "uint256"
        }
      ],
      "stateMutability": "view",
      "type": "function"
    },
    {
      "inputs": [
        {
          "internalType": "address",
          "name": "recipient",
          "type": "address"
        },
        {
          "internalType": "uint256",
          "name": "amount",
          "type": "uint256"
        }
      ],
      "name": "transfer",
      "outputs": [
        {
          "internalType": "bool",
          "name": "",
          "type": "bool"
        }
      ],
      "stateMutability": "nonpayable",
      "type": "function"
    },
    {
      "inputs": [
        {
          "internalType": "address",
          "name": "sender",
          "type": "address"
        },
        {
          "internalType": "address",
          "name": "recipient",
          "type": "address"
        },
        {
          "internalType": "uint256",
          "name": "amount",
          "type": "uint256"
        }
      ],
      "name": "transferFrom",
      "outputs": [
        {
          "internalType": "bool",
          "name": "",
          "type": "bool"
        }
      ],
      "stateMutability": "nonpayable",
      "type": "function"
    },
    {
      "inputs": [
        {
          "internalType": "address",
          "name": "newOwner_",
          "type": "address"
        }
      ],
      "name": "transferOwnership",
      "outputs": [],
      "stateMutability": "nonpayable",
      "type": "function"
    },
    {
      "inputs": [],
      "name": "unFreezeToken",
      "outputs": [],
      "stateMutability": "nonpayable",
      "type": "function"
    },
    {
      "inputs": [],
      "name": "vault",
      "outputs": [
        {
          "internalType": "address",
          "name": "",
          "type": "address"
        }
      ],
      "stateMutability": "view",
      "type": "function"
    }
  ],
  "bytecode": {
    "object": "60806040526009805460ff60a01b1916600160a01b1790553480156200002457600080fd5b50604080518082018252600680825265425452464c5960d01b6020808401828152855180870190965292855284015281519192916009916200006a9160039190620002bf565b50815162000080906004906020850190620002bf565b506005805460ff191660ff92909216919091179055504690507f8b73c3c69bb8fe3d512ecc4cf759cc79239f7b179b0ffacaa9a75d522b39400f620000c46200019d565b805160209182012060408051808201825260018152603160f81b90840152805180840194909452838101919091527fc89efdaa54c0f20c7adf612882df0950f5a951637e0307cdcb4c672f298b8bc6606084015260808301939093523060a0808401919091528351808403909101815260c0909201928390528151910120600755600880546001600160a01b0319163317908190556001600160a01b0316906000907f8be0079c531659141344cd1fd0a4f28419497f9722a3daafe3b4186f6b6457e0908290a3620001963362000237565b506200036b565b60038054604080516020601f60026000196101006001881615020190951694909404938401819004810282018101909252828152606093909290918301828280156200022d5780601f1062000201576101008083540402835291602001916200022d565b820191906000526020600020905b8154815290600101906020018083116200020f57829003601f168201915b5050505050905090565b6008546000906001600160a01b031633146200029a576040805162461bcd60e51b815260206004820181905260248201527f4f776e61626c653a2063616c6c6572206973206e6f7420746865206f776e6572604482015290519081900360640190fd5b50600980546001600160a01b0383166001600160a01b03199091161790556001919050565b828054600181600116156101000203166002900490600052602060002090601f016020900481019282620002f7576000855562000342565b82601f106200031257805160ff191683800117855562000342565b8280016001018555821562000342579182015b828111156200034257825182559160200191906001019062000325565b506200035092915062000354565b5090565b5b8082111562000350576000815560010162000355565b6118be806200037b6000396000f3fe608060405234801561001057600080fd5b50600436106101cf5760003560e01c806370a0823111610104578063a22b35ce116100a2578063dd62ed3e11610071578063dd62ed3e1461062c578063f2fde38b1461065a578063fbfa77cf14610680578063fff4a38614610688576101cf565b8063a22b35ce14610557578063a457c2d714610583578063a9059cbb146105af578063d505accf146105db576101cf565b80637ecebe00116100de5780637ecebe00146104d75780638da5cb5b146104fd5780639415c6f41461052157806395d89b411461054f576101cf565b806370a082311461047d578063715018a6146104a357806379cc6790146104ab576101cf565b8063395093511161017157806342966c681161014b57806342966c681461040c57806343d847a5146104295780635c3d69a91461044f5780636817031b14610457576101cf565b8063395093511461030f5780633f7aa5471461033b57806340c10f19146103e0576101cf565b806323b872dd116101ad57806323b872dd146102ab57806330adf81f146102e1578063313ce567146102e95780633644e51514610307576101cf565b806306fdde03146101d4578063095ea7b31461025157806318160ddd14610291575b600080fd5b6101dc610690565b6040805160208082528351818301528351919283929083019185019080838360005b838110156102165781810151838201526020016101fe565b50505050905090810190601f1680156102435780820380516001836020036101000a031916815260200191505b509250505060405180910390f35b61027d6004803603604081101561026757600080fd5b506001600160a01b038135169060200135610726565b604080519115158252519081900360200190f35b61029961073c565b60408051918252519081900360200190f35b61027d600480360360608110156102c157600080fd5b506001600160a01b03813581169160208101359091169060400135610742565b61029961080f565b6102f1610833565b6040805160ff9092168252519081900360200190f35b61029961083c565b61027d6004803603604081101561032557600080fd5b506001600160a01b038135169060200135610842565b6103de6004803603602081101561035157600080fd5b81019060208101813564010000000081111561036c57600080fd5b82018360208201111561037e57600080fd5b803590602001918460208302840111640100000000831117156103a057600080fd5b919080806020026020016040519081016040528093929190818152602001838360200280828437600092019190915250929550610878945050505050565b005b6103de600480360360408110156103f657600080fd5b506001600160a01b0381351690602001356108fb565b6103de6004803603602081101561042257600080fd5b503561094e565b61027d6004803603602081101561043f57600080fd5b50356001600160a01b031661095b565b61027d610970565b61027d6004803603602081101561046d57600080fd5b50356001600160a01b0316610980565b6102996004803603602081101561049357600080fd5b50356001600160a01b03166109f5565b6103de610a10565b6103de600480360360408110156104c157600080fd5b506001600160a01b038135169060200135610aa7565b610299600480360360208110156104ed57600080fd5b50356001600160a01b0316610ab1565b610505610ad8565b604080516001600160a01b039092168252519081900360200190f35b6103de6004803603604081101561053757600080fd5b506001600160a01b0381351690602001351515610ae7565b6101dc610ba4565b6103de6004803603604081101561056d57600080fd5b506001600160a01b038135169060200135610c05565b61027d6004803603604081101561059957600080fd5b506001600160a01b038135169060200135610c51565b61027d600480360360408110156105c557600080fd5b506001600160a01b038135169060200135610ca0565b6103de600480360360e08110156105f157600080fd5b506001600160a01b03813581169160208101359091169060408101359060608101359060ff6080820135169060a08101359060c00135610d11565b6102996004803603604081101561064257600080fd5b506001600160a01b0381358116916020013516610f3e565b6103de6004803603602081101561067057600080fd5b50356001600160a01b0316610f69565b610505611057565b6103de611066565b60038054604080516020601f600260001961010060018816150201909516949094049384018190048102820181019092528281526060939092909183018282801561071c5780601f106106f15761010080835404028352916020019161071c565b820191906000526020600020905b8154815290600101906020018083116106ff57829003601f168201915b5050505050905090565b60006107333384846110c2565b50600192915050565b60025490565b600954600090600160a01b900460ff16158061076d5750336000908152600a602052604090205460ff165b6107a85760405162461bcd60e51b815260040180806020018281038252603181526020018061177c6031913960400191505060405180910390fd5b6107b38484846111ae565b610805843361080085604051806060016040528060288152602001611711602891396001600160a01b038a1660009081526001602090815260408083203384529091529020549190611309565b6110c2565b5060019392505050565b7f6e71edae12b1b97f4d1f60370fef10105fa2faae0126114a169c64845d6126c981565b60055460ff1690565b60075481565b3360008181526001602090815260408083206001600160a01b0387168452909152812054909161073391859061080090866113a0565b6008546001600160a01b031633146108c5576040805162461bcd60e51b8152602060048201819052602482015260008051602061175c833981519152604482015290519081900360640190fd5b60005b81518110156108f7576108ef8282815181106108e057fe5b60200260200101516001610ae7565b6001016108c8565b5050565b6009546001600160a01b031633146109445760405162461bcd60e51b81526004018080602001828103825260238152602001806117396023913960400191505060405180910390fd5b6108f78282611401565b61095833826114f1565b50565b600a6020526000908152604090205460ff1681565b600954600160a01b900460ff1681565b6008546000906001600160a01b031633146109d0576040805162461bcd60e51b8152602060048201819052602482015260008051602061175c833981519152604482015290519081900360640190fd5b50600980546001600160a01b0383166001600160a01b03199091161790556001919050565b6001600160a01b031660009081526020819052604090205490565b6008546001600160a01b03163314610a5d576040805162461bcd60e51b8152602060048201819052602482015260008051602061175c833981519152604482015290519081900360640190fd5b6008546040516000916001600160a01b0316907f8be0079c531659141344cd1fd0a4f28419497f9722a3daafe3b4186f6b6457e0908390a3600880546001600160a01b0319169055565b6108f78282610c05565b6001600160a01b0381166000908152600660205260408120610ad2906115ed565b92915050565b6008546001600160a01b031690565b6008546001600160a01b03163314610b34576040805162461bcd60e51b8152602060048201819052602482015260008051602061175c833981519152604482015290519081900360640190fd5b6001600160a01b038216610b795760405162461bcd60e51b815260040180806020018281038252602981526020018061183b6029913960400191505060405180910390fd5b6001600160a01b03919091166000908152600a60205260409020805460ff1916911515919091179055565b60048054604080516020601f600260001961010060018816150201909516949094049384018190048102820181019092528281526060939092909183018282801561071c5780601f106106f15761010080835404028352916020019161071c565b6000610c35826040518060600160405280602481526020016117ad60249139610c2e8633610f3e565b9190611309565b9050610c428333836110c2565b610c4c83836114f1565b505050565b6000610733338461080085604051806060016040528060258152602001611864602591393360009081526001602090815260408083206001600160a01b038d1684529091529020549190611309565b600954600090600160a01b900460ff161580610ccb5750336000908152600a602052604090205460ff165b610d065760405162461bcd60e51b815260040180806020018281038252603181526020018061177c6031913960400191505060405180910390fd5b6107333384846111ae565b83421115610d66576040805162461bcd60e51b815260206004820152601860248201527f5065726d69743a206578706972656420646561646c696e650000000000000000604482015290519081900360640190fd5b6001600160a01b03871660009081526006602052604081207f6e71edae12b1b97f4d1f60370fef10105fa2faae0126114a169c64845d6126c990899089908990610daf906115ed565b604080516020808201979097526001600160a01b0395861681830152939094166060840152608083019190915260a082015260c08082018990528251808303909101815260e08201835280519084012060075461190160f01b610100840152610102830152610122808301829052835180840390910181526101428301808552815191860191909120600091829052610162840180865281905260ff8a166101828501526101a284018990526101c28401889052935191955092936001926101e280820193601f1981019281900390910190855afa158015610e95573d6000803e3d6000fd5b5050604051601f1901519150506001600160a01b03811615801590610ecb5750896001600160a01b0316816001600160a01b0316145b610f065760405162461bcd60e51b81526004018080602001828103825260218152602001806116f06021913960400191505060405180910390fd5b6001600160a01b038a166000908152600660205260409020610f27906115f1565b610f328a8a8a6110c2565b50505050505050505050565b6001600160a01b03918216600090815260016020908152604080832093909416825291909152205490565b6008546001600160a01b03163314610fb6576040805162461bcd60e51b8152602060048201819052602482015260008051602061175c833981519152604482015290519081900360640190fd5b6001600160a01b038116610ffb5760405162461bcd60e51b81526004018080602001828103825260268152602001806116826026913960400191505060405180910390fd5b6008546040516001600160a01b038084169216907f8be0079c531659141344cd1fd0a4f28419497f9722a3daafe3b4186f6b6457e090600090a3600880546001600160a01b0319166001600160a01b0392909216919091179055565b6009546001600160a01b031690565b6008546001600160a01b031633146110b3576040805162461bcd60e51b8152602060048201819052602482015260008051602061175c833981519152604482015290519081900360640190fd5b6009805460ff60a01b19169055565b6001600160a01b0383166111075760405162461bcd60e51b81526004018080602001828103825260248152602001806118176024913960400191505060405180910390fd5b6001600160a01b03821661114c5760405162461bcd60e51b81526004018080602001828103825260228152602001806116a86022913960400191505060405180910390fd5b6001600160a01b03808416600081815260016020908152604080832094871680845294825291829020859055815185815291517f8c5be1e5ebec7d5bd14f71427d1e84f3dd0314c0f7b2291e5b200ac8c7c3b9259281900390910190a3505050565b6001600160a01b0383166111f35760405162461bcd60e51b81526004018080602001828103825260258152602001806117f26025913960400191505060405180910390fd5b6001600160a01b0382166112385760405162461bcd60e51b815260040180806020018281038252602381526020018061163d6023913960400191505060405180910390fd5b611243838383610c4c565b611280816040518060600160405280602681526020016116ca602691396001600160a01b0386166000908152602081905260409020549190611309565b6001600160a01b0380851660009081526020819052604080822093909355908416815220546112af90826113a0565b6001600160a01b038084166000818152602081815260409182902094909455805185815290519193928716927fddf252ad1be2c89b69c2b068fc378daa952ba7f163c4a11628f55a4df523b3ef92918290030190a3505050565b600081848411156113985760405162461bcd60e51b81526004018080602001828103825283818151815260200191508051906020019080838360005b8381101561135d578181015183820152602001611345565b50505050905090810190601f16801561138a5780820380516001836020036101000a031916815260200191505b509250505060405180910390fd5b505050900390565b6000828201838110156113fa576040805162461bcd60e51b815260206004820152601b60248201527f536166654d6174683a206164646974696f6e206f766572666c6f770000000000604482015290519081900360640190fd5b9392505050565b6001600160a01b03821661145c576040805162461bcd60e51b815260206004820152601f60248201527f45524332303a206d696e7420746f20746865207a65726f206164647265737300604482015290519081900360640190fd5b611467308383610c4c565b60025461147490826113a0565b6002556001600160a01b03821660009081526020819052604090205461149a90826113a0565b6001600160a01b038316600081815260208181526040918290209390935580518481529051919230927fddf252ad1be2c89b69c2b068fc378daa952ba7f163c4a11628f55a4df523b3ef9281900390910190a35050565b6001600160a01b0382166115365760405162461bcd60e51b81526004018080602001828103825260218152602001806117d16021913960400191505060405180910390fd5b61154282600083610c4c565b61157f81604051806060016040528060228152602001611660602291396001600160a01b0385166000908152602081905260409020549190611309565b6001600160a01b0383166000908152602081905260409020556002546115a590826115fa565b6002556040805182815290516000916001600160a01b038516917fddf252ad1be2c89b69c2b068fc378daa952ba7f163c4a11628f55a4df523b3ef9181900360200190a35050565b5490565b80546001019055565b60006113fa83836040518060400160405280601e81526020017f536166654d6174683a207375627472616374696f6e206f766572666c6f77000081525061130956fe45524332303a207472616e7366657220746f20746865207a65726f206164647265737345524332303a206275726e20616d6f756e7420657863656564732062616c616e63654f776e61626c653a206e6577206f776e657220697320746865207a65726f206164647265737345524332303a20617070726f766520746f20746865207a65726f206164647265737345524332303a207472616e7366657220616d6f756e7420657863656564732062616c616e63655a65726f537761705065726d69743a20496e76616c6964207369676e617475726545524332303a207472616e7366657220616d6f756e74206578636565647320616c6c6f77616e63655661756c744f776e65643a2063616c6c6572206973206e6f7420746865205661756c744f776e61626c653a2063616c6c6572206973206e6f7420746865206f776e657246726f7a656e3a20746f6b656e2066726f7a656e206f72206d73672e73656e646572206e6f7420617574686f726973656445524332303a206275726e20616d6f756e74206578636565647320616c6c6f77616e636545524332303a206275726e2066726f6d20746865207a65726f206164647265737345524332303a207472616e736665722066726f6d20746865207a65726f206164647265737345524332303a20617070726f76652066726f6d20746865207a65726f206164647265737346726f7a656e3a206e6577206f70657261746f722063616e74206265207a65726f206164647265737345524332303a2064656372656173656420616c6c6f77616e63652062656c6f77207a65726fa2646970667358221220e363cc04546623eb431b344268cfcebc8106c13a68ece78b1933c9bb58da34c064736f6c63430007050033"
  }
}