{
  "opcodeHash": "0x79e4df794da3263fc14879dff6754d5ed2cad3883bdd8f679e9dff6eed300731",
  "metalessHash": "0x81c8fbcca617e2fe21d5ff90cbad12cee9fabb2fe8b7cfe387743dbdf1c3356f",
  "runtimeHash": "0xf6ec4b5b4288def690918cbcfcd2611f6fe4a25dcf534fc83dcc5839d54029cd",
  "encodedMetadata": [
    {
      "ipfs": "/ipfs/QmUo9PNCGAEgzGDp6JhtP7A8mxSDWQ4T1A8YqaMP85ZYXb",
      "solc": "0.7.5"
    }
  ],
  "abi": [
    {
      "inputs": [],
      "name": "ERR_RETURN_INDEX_VALUE",
      "outputs": [
        {
          "internalType": "string",
          "name": "",
          "type": "string"
        }
      ],
      "stateMutability": "view",
      "type": "function"
    },
    {
      "inputs": [],
      "name": "ERR_SUB_INDEX_VALUE",
      "outputs": [
        {
          "internalType": "string",
          "name": "",
          "type": "string"
        }
      ],
      "stateMutability": "view",
      "type": "function"
    },
    {
      "inputs": [],
      "name": "NO_PARAM_MAPPING",
      "outputs": [
        {
          "internalType": "uint8",
          "name": "",
          "type": "uint8"
        }
      ],
      "stateMutability": "view",
      "type": "function"
    },
    {
      "inputs": [],
      "name": "REGISTRY_ADDR",
      "outputs": [
        {
          "internalType": "address",
          "name": "",
          "type": "address"
        }
      ],
      "stateMutability": "view",
      "type": "function"
    },
    {
      "inputs": [],
      "name": "RETURN_MAX_INDEX_VALUE",
      "outputs": [
        {
          "internalType": "uint8",
          "name": "",
          "type": "uint8"
        }
      ],
      "stateMutability": "view",
      "type": "function"
    },
    {
      "inputs": [],
      "name": "RETURN_MIN_INDEX_VALUE",
      "outputs": [
        {
          "internalType": "uint8",
          "name": "",
          "type": "uint8"
        }
      ],
      "stateMutability": "view",
      "type": "function"
    },
    {
      "inputs": [],
      "name": "SUB_MAX_INDEX_VALUE",
      "outputs": [
        {
          "internalType": "uint8",
          "name": "",
          "type": "uint8"
        }
      ],
      "stateMutability": "view",
      "type": "function"
    },
    {
      "inputs": [],
      "name": "SUB_MIN_INDEX_VALUE",
      "outputs": [
        {
          "internalType": "uint8",
          "name": "",
          "type": "uint8"
        }
      ],
      "stateMutability": "view",
      "type": "function"
    },
    {
      "inputs": [],
      "name": "actionType",
      "outputs": [
        {
          "internalType": "uint8",
          "name": "",
          "type": "uint8"
        }
      ],
      "stateMutability": "pure",
      "type": "function"
    },
    {
      "inputs": [
        {
          "internalType": "bytes[]",
          "name": "_callData",
          "type": "bytes[]"
        },
        {
          "internalType": "bytes[]",
          "name": "_subData",
          "type": "bytes[]"
        },
        {
          "internalType": "uint8[]",
          "name": "_paramMapping",
          "type": "uint8[]"
        },
        {
          "internalType": "bytes32[]",
          "name": "_returnValues",
          "type": "bytes32[]"
        }
      ],
      "name": "executeAction",
      "outputs": [
        {
          "internalType": "bytes32",
          "name": "",
          "type": "bytes32"
        }
      ],
      "stateMutability": "payable",
      "type": "function"
    },
    {
      "inputs": [
        {
          "internalType": "bytes[]",
          "name": "_callData",
          "type": "bytes[]"
        }
      ],
      "name": "executeActionDirect",
      "outputs": [],
      "stateMutability": "payable",
      "type": "function"
    },
    {
      "inputs": [],
      "name": "logger",
      "outputs": [
        {
          "internalType": "contract DefisaverLogger",
          "name": "",
          "type": "address"
        }
      ],
      "stateMutability": "view",
      "type": "function"
    },
    {
      "inputs": [],
      "name": "registry",
      "outputs": [
        {
          "internalType": "contract DFSRegistry",
          "name": "",
          "type": "address"
        }
      ],
      "stateMutability": "view",
      "type": "function"
    }
  ],
  "bytecode": {
    "object": "608060405234801561001057600080fd5b5061084d806100206000396000f3fe6080604052600436106100c25760003560e01c80639864dcdd1161007f578063e4dde9ab11610059578063e4dde9ab14610131578063e910afb2146101b2578063f24ccbfe146101d4578063f8e2fb00146101e9576100c2565b80639864dcdd14610168578063ca5ff7801461017d578063d3c2e7ed1461019d576100c2565b80630f2eee42146100c75780631afd15be146100f2578063247492f8146101075780632fa13cb81461011c5780637b103999146101315780638bcb621614610153575b600080fd5b3480156100d357600080fd5b506100dc6101fe565b6040516100e991906107c7565b60405180910390f35b6101056101003660046105fa565b610203565b005b34801561011357600080fd5b506100dc610206565b34801561012857600080fd5b506100dc61020b565b34801561013d57600080fd5b50610146610210565b6040516100e99190610757565b34801561015f57600080fd5b506100dc610228565b34801561017457600080fd5b506100dc61022d565b61019061018b366004610635565b610232565b6040516100e9919061076b565b3480156101a957600080fd5b506100dc6102d5565b3480156101be57600080fd5b506101c76102da565b6040516100e99190610774565b3480156101e057600080fd5b5061014661030e565b3480156101f557600080fd5b506101c7610326565b608081565b50565b600190565b600081565b735fbdb2315678afecb367f032d93f642f64180aa381565b600181565b607f81565b6000808560008151811061024257fe5b602002602001015180602001905181019061025d919061073f565b905060008660018151811061026e57fe5b6020026020010151806020019051810190610289919061073f565b90506102ab828660008151811061029c57fe5b60200260200101518887610357565b91506102be818660018151811061029c57fe5b90506102ca82826103dc565b979650505050505050565b60ff81565b6040518060400160405280601881526020017757726f6e672072657475726e20696e6465782076616c756560401b81525081565b735c55b921f590a89c1ebe84df170e655a82b6212681565b6040518060400160405280601581526020017457726f6e672073756220696e6465782076616c756560581b81525081565b6000610362846103e0565b156103d357610370846103e8565b1561039e578161037f85610408565b60ff168151811061038c57fe5b602002602001015160001c94506103d3565b826103a885610471565b60ff16815181106103b557fe5b60200260200101518060200190518101906103d0919061073f565b94505b50929392505050565b0190565b60ff16151590565b6000600160ff8316108015906104025750607f60ff831611155b92915050565b6000610413826103e8565b6040518060400160405280601581526020017457726f6e672073756220696e6465782076616c756560581b815250906104685760405162461bcd60e51b815260040161045f9190610774565b60405180910390fd5b50506000190190565b60408051808201909152601881527757726f6e672072657475726e20696e6465782076616c756560401b6020820152600090608060ff841610156104c85760405162461bcd60e51b815260040161045f9190610774565b5050607f190190565b600082601f8301126104e1578081fd5b81356104f46104ef826107f9565b6107d5565b81815291506020808301908481018184028601820187101561051557600080fd5b60005b8481101561053457813584529282019290820190600101610518565b505050505092915050565b6000601f8381840112610550578182fd5b823561055e6104ef826107f9565b818152925060208084019085810160005b848110156105ee578135880189603f82011261058a57600080fd5b8381013567ffffffffffffffff8111156105a057fe5b6105b1818901601f191686016107d5565b81815260408c818486010111156105c757600080fd5b8281850188840137506000918101860191909152855250928201929082019060010161056f565b50505050505092915050565b60006020828403121561060b578081fd5b813567ffffffffffffffff811115610621578182fd5b61062d8482850161053f565b949350505050565b6000806000806080858703121561064a578283fd5b843567ffffffffffffffff80821115610661578485fd5b61066d8883890161053f565b9550602091508187013581811115610683578586fd5b61068f89828a0161053f565b9550506040870135818111156106a3578485fd5b8701601f810189136106b3578485fd5b80356106c16104ef826107f9565b81815284810190838601868402850187018d10156106dd578889fd5b8894505b8385101561070d57803560ff811681146106f957898afd5b8352600194909401939186019186016106e1565b5096505050506060870135915080821115610726578283fd5b50610733878288016104d1565b91505092959194509250565b600060208284031215610750578081fd5b5051919050565b6001600160a01b0391909116815260200190565b90815260200190565b6000602080835283518082850152825b818110156107a057858101830151858201604001528201610784565b818111156107b15783604083870101525b50601f01601f1916929092016040019392505050565b60ff91909116815260200190565b60405181810167ffffffffffffffff811182821017156107f157fe5b604052919050565b600067ffffffffffffffff82111561080d57fe5b506020908102019056fea2646970667358221220140b00bc376d87fa46bb97cf02c964461e9102ed128d4f2486da2fb1e167dd6064736f6c63430007050033"
  }
}