{"compiler":"v0.5.3+commit.10d17f24","opcodeHash":"0x861f9aa9d3689aa3d4c3f48f78147297b0dcb1e82789a6078e3ca889d84db604","metalessHash":"0x402baa34f3a926fabc76a8a5131091c3734bcb8a0dd7d5d4afce8a228e423651","runtimeHash":"0x552d2b3a284a96580bf60c4a4c51a992b08a8f06d2a65068ca7f7b6f5ecf3c88","encodedMetadata":[{"bzzr0":"/swarm/bzzr0/89d45ec193a484f06aec703651966d22e85a3fc3763b577e6b75a5b85961f2a0"}],"abi":[{"constant":false,"inputs":[{"name":"newImplementation","type":"address"}],"name":"upgradeTo","outputs":[],"payable":false,"stateMutability":"nonpayable","type":"function"},{"constant":false,"inputs":[{"name":"newImplementation","type":"address"},{"name":"data","type":"bytes"}],"name":"upgradeToAndCall","outputs":[],"payable":true,"stateMutability":"payable","type":"function"},{"constant":false,"inputs":[],"name":"implementation","outputs":[{"name":"","type":"address"}],"payable":false,"stateMutability":"nonpayable","type":"function"},{"constant":false,"inputs":[{"name":"newAdmin","type":"address"}],"name":"changeAdmin","outputs":[],"payable":false,"stateMutability":"nonpayable","type":"function"},{"constant":false,"inputs":[],"name":"admin","outputs":[{"name":"","type":"address"}],"payable":false,"stateMutability":"nonpayable","type":"function"},{"inputs":[{"name":"_logic","type":"address"},{"name":"_admin","type":"address"},{"name":"_data","type":"bytes"}],"payable":true,"stateMutability":"payable","type":"constructor"},{"payable":true,"stateMutability":"payable","type":"fallback"},{"anonymous":false,"inputs":[{"indexed":false,"name":"previousAdmin","type":"address"},{"indexed":false,"name":"newAdmin","type":"address"}],"name":"AdminChanged","type":"event"},{"anonymous":false,"inputs":[{"indexed":true,"name":"implementation","type":"address"}],"name":"Upgraded","type":"event"}],"bytecode":{"object":"60806040526040516109a73803806109a78339810180604052606081101561002657600080fd5b815160208301516040840180519294919382019264010000000081111561004c57600080fd5b8201602081018481111561005f57600080fd5b815164010000000081118282018710171561007957600080fd5b505092919050505082816040518080610949602391396040519081900360230190206000805160206109298339815191521490506100b357fe5b6100c5826401000000006101e6810204565b60008151111561018257600082600160a060020a0316826040518082805190602001908083835b6020831061010b5780518252601f1990920191602091820191016100ec565b6001836020036101000a038019825116818451168082178552505050505050905001915050600060405180830381855af49150503d806000811461016b576040519150601f19603f3d011682016040523d82523d6000602084013e610170565b606091505b5050905080151561018057600080fd5b505b5050604080517f6f72672e7a657070656c696e6f732e70726f78792e61646d696e0000000000008152905190819003601a019020600080516020610909833981519152146101cc57fe5b6101de82640100000000610265810204565b50505061027f565b6101fc816401000000006105a461027782021704565b1515610253576040517f08c379a000000000000000000000000000000000000000000000000000000000815260040180806020018281038252603b81526020018061096c603b913960400191505060405180910390fd5b60008051602061092983398151915255565b60008051602061090983398151915255565b6000903b1190565b61067b8061028e6000396000f3fe608060405260043610610066577c010000000000000000000000000000000000000000000000000000000060003504633659cfe681146100705780634f1ef286146100a35780635c60da1b146101235780638f28397014610154578063f851a44014610187575b61006e61019c565b005b34801561007c57600080fd5b5061006e6004803603602081101561009357600080fd5b5035600160a060020a03166101b6565b61006e600480360360408110156100b957600080fd5b600160a060020a0382351691908101906040810160208201356401000000008111156100e457600080fd5b8201836020820111156100f657600080fd5b8035906020019184600183028401116401000000008311171561011857600080fd5b5090925090506101f0565b34801561012f57600080fd5b5061013861029f565b60408051600160a060020a039092168252519081900360200190f35b34801561016057600080fd5b5061006e6004803603602081101561017757600080fd5b5035600160a060020a03166102dc565b34801561019357600080fd5b506101386103b2565b6101a46103dd565b6101b46101af61044e565b610473565b565b6101be610497565b600160a060020a031633600160a060020a031614156101e5576101e0816104bc565b6101ed565b6101ed61019c565b50565b6101f8610497565b600160a060020a031633600160a060020a031614156102925761021a836104bc565b600083600160a060020a031683836040518083838082843760405192019450600093509091505080830381855af49150503d8060008114610277576040519150601f19603f3d011682016040523d82523d6000602084013e61027c565b606091505b5050905080151561028c57600080fd5b5061029a565b61029a61019c565b505050565b60006102a9610497565b600160a060020a031633600160a060020a031614156102d1576102ca61044e565b90506102d9565b6102d961019c565b90565b6102e4610497565b600160a060020a031633600160a060020a031614156101e557600160a060020a038116151561035e576040517f08c379a00000000000000000000000000000000000000000000000000000000081526004018080602001828103825260368152602001806105df6036913960400191505060405180910390fd5b7f7e644d79422f17c01e4894b5f4f588d331ebfa28653d42ae832dc59e38c9798f610387610497565b60408051600160a060020a03928316815291841660208301528051918290030190a16101e0816104fc565b60006103bc610497565b600160a060020a031633600160a060020a031614156102d1576102ca610497565b6103e5610497565b600160a060020a0316331415610446576040517f08c379a00000000000000000000000000000000000000000000000000000000081526004018080602001828103825260328152602001806105ad6032913960400191505060405180910390fd5b6101b46101b4565b7f7050c9e0f4ca769c69bd3a8ef740bc37934f8e2c036e5a723fd8ee048ed3f8c35490565b3660008037600080366000845af43d6000803e808015610492573d6000f35b3d6000fd5b7f10d6a54a4754c8869d6886b5f5d7fbfa5b4522237ea5c60d11bc4e7a1ff9390b5490565b6104c581610520565b604051600160a060020a038216907fbc7cd75a20ee27fd9adebab32041f755214dbc6bffa90cc0225b39da2e5c2d3b90600090a250565b7f10d6a54a4754c8869d6886b5f5d7fbfa5b4522237ea5c60d11bc4e7a1ff9390b55565b610529816105a4565b1515610580576040517f08c379a000000000000000000000000000000000000000000000000000000000815260040180806020018281038252603b815260200180610615603b913960400191505060405180910390fd5b7f7050c9e0f4ca769c69bd3a8ef740bc37934f8e2c036e5a723fd8ee048ed3f8c355565b6000903b119056fe43616e6e6f742063616c6c2066616c6c6261636b2066756e6374696f6e2066726f6d207468652070726f78792061646d696e43616e6e6f74206368616e6765207468652061646d696e206f6620612070726f787920746f20746865207a65726f206164647265737343616e6e6f742073657420612070726f787920696d706c656d656e746174696f6e20746f2061206e6f6e2d636f6e74726163742061646472657373a165627a7a72305820004ed57bc9753bcf1373748bf9f7696b04dbd71f03b39a23b528330890f831a2002910d6a54a4754c8869d6886b5f5d7fbfa5b4522237ea5c60d11bc4e7a1ff9390b7050c9e0f4ca769c69bd3a8ef740bc37934f8e2c036e5a723fd8ee048ed3f8c36f72672e7a657070656c696e6f732e70726f78792e696d706c656d656e746174696f6e43616e6e6f742073657420612070726f787920696d706c656d656e746174696f6e20746f2061206e6f6e2d636f6e74726163742061646472657373"}}