{"compiler":"v0.8.0+commit.c7dfd78e","opcodeHash":"0xa5f279d1bd5523e797521cb40288e302b3a97954f1ce45e764c7986605b9f312","metalessHash":"0x4f3788d3b5bb439f8d69fbe84edd2a3163cbb16483ccc54a5898c9e24adf4582","runtimeHash":"0x52516dbee585a4d6313c697df94dcc55cd91a8ed1c102fa2230f05b72258e5f2","encodedMetadata":[{"ipfs":"/ipfs/QmNVNWWnEa8FaSUjrffBo2ojdbbrZ1eCcZNMPfKiBLasdT","solc":"0.8.0"}],"abi":[{"inputs":[{"internalType":"contract IERC20","name":"token","type":"address"},{"internalType":"address","name":"validator","type":"address"}],"stateMutability":"nonpayable","type":"constructor"},{"inputs":[{"internalType":"address","name":"user","type":"address"},{"internalType":"uint256","name":"nonce","type":"uint256"}],"name":"getAmountIn","outputs":[{"internalType":"uint256","name":"","type":"uint256"}],"stateMutability":"view","type":"function"},{"inputs":[{"internalType":"address","name":"user","type":"address"},{"internalType":"uint256","name":"nonce","type":"uint256"}],"name":"getAmountOut","outputs":[{"internalType":"uint256","name":"","type":"uint256"}],"stateMutability":"view","type":"function"},{"inputs":[{"internalType":"address","name":"user","type":"address"},{"internalType":"uint256","name":"nonce","type":"uint256"},{"internalType":"uint256","name":"amount","type":"uint256"}],"name":"getHash","outputs":[{"internalType":"bytes32","name":"hash","type":"bytes32"}],"stateMutability":"pure","type":"function"},{"inputs":[{"internalType":"address","name":"user","type":"address"}],"name":"getNonceIn","outputs":[{"internalType":"uint256","name":"","type":"uint256"}],"stateMutability":"view","type":"function"},{"inputs":[{"internalType":"address","name":"user","type":"address"}],"name":"getNonceOut","outputs":[{"internalType":"uint256","name":"","type":"uint256"}],"stateMutability":"view","type":"function"},{"inputs":[],"name":"getValidator","outputs":[{"internalType":"address","name":"","type":"address"}],"stateMutability":"view","type":"function"},{"inputs":[{"internalType":"address","name":"validator","type":"address"}],"name":"setValidator","outputs":[],"stateMutability":"nonpayable","type":"function"},{"inputs":[{"internalType":"uint256","name":"amount","type":"uint256"},{"internalType":"bytes","name":"signature","type":"bytes"}],"name":"swapFromBSC","outputs":[],"stateMutability":"nonpayable","type":"function"},{"inputs":[{"internalType":"uint256","name":"amount","type":"uint256"}],"name":"swapToBSC","outputs":[],"stateMutability":"nonpayable","type":"function"},{"inputs":[],"name":"vaultBalance","outputs":[{"internalType":"uint256","name":"","type":"uint256"}],"stateMutability":"view","type":"function"}],"bytecode":{"object":"60806040523480156200001157600080fd5b506040516200158c3803806200158c8339818101604052810190620000379190620000ef565b81600260006101000a81548173ffffffffffffffffffffffffffffffffffffffff021916908373ffffffffffffffffffffffffffffffffffffffff16021790555080600360006101000a81548173ffffffffffffffffffffffffffffffffffffffff021916908373ffffffffffffffffffffffffffffffffffffffff1602179055505050620001ac565b600081519050620000d28162000178565b92915050565b600081519050620000e98162000192565b92915050565b600080604083850312156200010357600080fd5b60006200011385828601620000d8565b92505060206200012685828601620000c1565b9150509250929050565b60006200013d8262000158565b9050919050565b6000620001518262000130565b9050919050565b600073ffffffffffffffffffffffffffffffffffffffff82169050919050565b620001838162000130565b81146200018f57600080fd5b50565b6200019d8162000144565b8114620001a957600080fd5b50565b6113d080620001bc6000396000f3fe608060405234801561001057600080fd5b506004361061009e5760003560e01c8063632db21c11610066578063632db21c14610133578063a00b716c14610163578063a85b358114610193578063b02004b2146101c3578063ca706bcf146101f35761009e565b80630bf6cc08146100a35780631195e07e146100c15780631327d3d8146100df57806321c7ff4e146100fb5780634c3aec1f14610117575b600080fd5b6100ab610223565b6040516100b89190611178565b60405180910390f35b6100c96102d5565b6040516100d69190610fdd565b60405180910390f35b6100f960048036038101906100f49190610be7565b6102ff565b005b61011560048036038101906101109190610d16565b6103da565b005b610131600480360381019061012c9190610cc4565b610616565b005b61014d60048036038101906101489190610c10565b610796565b60405161015a9190611178565b60405180910390f35b61017d60048036038101906101789190610c4c565b6107f3565b60405161018a9190611058565b60405180910390f35b6101ad60048036038101906101a89190610be7565b610829565b6040516101ba9190611178565b60405180910390f35b6101dd60048036038101906101d89190610be7565b610874565b6040516101ea9190611178565b60405180910390f35b61020d60048036038101906102089190610c10565b6108c0565b60405161021a9190611178565b60405180910390f35b6000600260009054906101000a900473ffffffffffffffffffffffffffffffffffffffff1673ffffffffffffffffffffffffffffffffffffffff166370a08231306040518263ffffffff1660e01b81526004016102809190610fdd565b60206040518083038186803b15801561029857600080fd5b505afa1580156102ac573d6000803e3d6000fd5b505050506040513d601f19601f820116820180604052508101906102d09190610ced565b905090565b6000600360009054906101000a900473ffffffffffffffffffffffffffffffffffffffff16905090565b600360009054906101000a900473ffffffffffffffffffffffffffffffffffffffff1673ffffffffffffffffffffffffffffffffffffffff1661034061091e565b73ffffffffffffffffffffffffffffffffffffffff1614610396576040517f08c379a000000000000000000000000000000000000000000000000000000000815260040161038d906110f8565b60405180910390fd5b80600360006101000a81548173ffffffffffffffffffffffffffffffffffffffff021916908373ffffffffffffffffffffffffffffffffffffffff16021790555050565b60006103e461091e565b905060006103f182610829565b9050600082828660405160200161040a93929190610fa0565b60405160208183030381529060405280519060200120905061042a6102d5565b73ffffffffffffffffffffffffffffffffffffffff16610453858361092690919063ffffffff16565b73ffffffffffffffffffffffffffffffffffffffff16146104a9576040517f08c379a00000000000000000000000000000000000000000000000000000000081526004016104a090611158565b60405180910390fd5b846000808573ffffffffffffffffffffffffffffffffffffffff1673ffffffffffffffffffffffffffffffffffffffff168152602001908152602001600020600101600084815260200190815260200160002081905550600160008473ffffffffffffffffffffffffffffffffffffffff1673ffffffffffffffffffffffffffffffffffffffff168152602001908152602001600020600001600081548092919061055390611273565b9190505550600260009054906101000a900473ffffffffffffffffffffffffffffffffffffffff1673ffffffffffffffffffffffffffffffffffffffff1663a9059cbb61059e61091e565b876040518363ffffffff1660e01b81526004016105bc92919061102f565b602060405180830381600087803b1580156105d657600080fd5b505af11580156105ea573d6000803e3d6000fd5b505050506040513d601f19601f8201168201806040525081019061060e9190610c9b565b505050505050565b600061062061091e565b9050600260009054906101000a900473ffffffffffffffffffffffffffffffffffffffff1673ffffffffffffffffffffffffffffffffffffffff166323b872dd8230856040518463ffffffff1660e01b815260040161068193929190610ff8565b602060405180830381600087803b15801561069b57600080fd5b505af11580156106af573d6000803e3d6000fd5b505050506040513d601f19601f820116820180604052508101906106d39190610c9b565b5060006106df82610874565b905082600160008473ffffffffffffffffffffffffffffffffffffffff1673ffffffffffffffffffffffffffffffffffffffff168152602001908152602001600020600101600083815260200190815260200160002081905550600160008373ffffffffffffffffffffffffffffffffffffffff1673ffffffffffffffffffffffffffffffffffffffff168152602001908152602001600020600001600081548092919061078c90611273565b9190505550505050565b60008060008473ffffffffffffffffffffffffffffffffffffffff1673ffffffffffffffffffffffffffffffffffffffff168152602001908152602001600020600101600083815260200190815260200160002054905092915050565b600083838360405160200161080a93929190610fa0565b6040516020818303038152906040528051906020012090509392505050565b60008060008373ffffffffffffffffffffffffffffffffffffffff1673ffffffffffffffffffffffffffffffffffffffff168152602001908152602001600020600001549050919050565b6000600160008373ffffffffffffffffffffffffffffffffffffffff1673ffffffffffffffffffffffffffffffffffffffff168152602001908152602001600020600001549050919050565b6000600160008473ffffffffffffffffffffffffffffffffffffffff1673ffffffffffffffffffffffffffffffffffffffff168152602001908152602001600020600101600083815260200190815260200160002054905092915050565b600033905090565b6000604182511461096c576040517f08c379a0000000000000000000000000000000000000000000000000000000008152600401610963906110d8565b60405180910390fd5b60008060006020850151925060408501519150606085015160001a9050610995868285856109a0565b935050505092915050565b60007f7fffffffffffffffffffffffffffffff5d576e7357a4501ddfe92f46681b20a08260001c1115610a08576040517f08c379a00000000000000000000000000000000000000000000000000000000081526004016109ff90611118565b60405180910390fd5b601b8460ff161480610a1d5750601c8460ff16145b610a5c576040517f08c379a0000000000000000000000000000000000000000000000000000000008152600401610a5390611138565b60405180910390fd5b600060018686868660405160008152602001604052604051610a819493929190611073565b6020604051602081039080840390855afa158015610aa3573d6000803e3d6000fd5b505050602060405103519050600073ffffffffffffffffffffffffffffffffffffffff168173ffffffffffffffffffffffffffffffffffffffff161415610b1f576040517f08c379a0000000000000000000000000000000000000000000000000000000008152600401610b16906110b8565b60405180910390fd5b80915050949350505050565b6000610b3e610b39846111c4565b611193565b905082815260208101848484011115610b5657600080fd5b610b61848285611264565b509392505050565b600081359050610b7881611355565b92915050565b600081519050610b8d8161136c565b92915050565b600082601f830112610ba457600080fd5b8135610bb4848260208601610b2b565b91505092915050565b600081359050610bcc81611383565b92915050565b600081519050610be181611383565b92915050565b600060208284031215610bf957600080fd5b6000610c0784828501610b69565b91505092915050565b60008060408385031215610c2357600080fd5b6000610c3185828601610b69565b9250506020610c4285828601610bbd565b9150509250929050565b600080600060608486031215610c6157600080fd5b6000610c6f86828701610b69565b9350506020610c8086828701610bbd565b9250506040610c9186828701610bbd565b9150509250925092565b600060208284031215610cad57600080fd5b6000610cbb84828501610b7e565b91505092915050565b600060208284031215610cd657600080fd5b6000610ce484828501610bbd565b91505092915050565b600060208284031215610cff57600080fd5b6000610d0d84828501610bd2565b91505092915050565b60008060408385031215610d2957600080fd5b6000610d3785828601610bbd565b925050602083013567ffffffffffffffff811115610d5457600080fd5b610d6085828601610b93565b9150509250929050565b610d7381611205565b82525050565b610d8a610d8582611205565b6112bc565b82525050565b610d9981611223565b82525050565b6000610dac6018836111f4565b91507f45434453413a20696e76616c6964207369676e617475726500000000000000006000830152602082019050919050565b6000610dec601f836111f4565b91507f45434453413a20696e76616c6964207369676e6174757265206c656e677468006000830152602082019050919050565b6000610e2c6019836111f4565b91507f56616c75743a20496e76616c69642056616c696461746f722e000000000000006000830152602082019050919050565b6000610e6c6022836111f4565b91507f45434453413a20696e76616c6964207369676e6174757265202773272076616c60008301527f75650000000000000000000000000000000000000000000000000000000000006020830152604082019050919050565b6000610ed26022836111f4565b91507f45434453413a20696e76616c6964207369676e6174757265202776272076616c60008301527f75650000000000000000000000000000000000000000000000000000000000006020830152604082019050919050565b6000610f38601b836111f4565b91507f5661756c743a20496e76616c6964207472616e73616374696f6e2e00000000006000830152602082019050919050565b610f748161124d565b82525050565b610f8b610f868261124d565b6112e0565b82525050565b610f9a81611257565b82525050565b6000610fac8286610d79565b601482019150610fbc8285610f7a565b602082019150610fcc8284610f7a565b602082019150819050949350505050565b6000602082019050610ff26000830184610d6a565b92915050565b600060608201905061100d6000830186610d6a565b61101a6020830185610d6a565b6110276040830184610f6b565b949350505050565b60006040820190506110446000830185610d6a565b6110516020830184610f6b565b9392505050565b600060208201905061106d6000830184610d90565b92915050565b60006080820190506110886000830187610d90565b6110956020830186610f91565b6110a26040830185610d90565b6110af6060830184610d90565b95945050505050565b600060208201905081810360008301526110d181610d9f565b9050919050565b600060208201905081810360008301526110f181610ddf565b9050919050565b6000602082019050818103600083015261111181610e1f565b9050919050565b6000602082019050818103600083015261113181610e5f565b9050919050565b6000602082019050818103600083015261115181610ec5565b9050919050565b6000602082019050818103600083015261117181610f2b565b9050919050565b600060208201905061118d6000830184610f6b565b92915050565b6000604051905081810181811067ffffffffffffffff821117156111ba576111b9611319565b5b8060405250919050565b600067ffffffffffffffff8211156111df576111de611319565b5b601f19601f8301169050602081019050919050565b600082825260208201905092915050565b60006112108261122d565b9050919050565b60008115159050919050565b6000819050919050565b600073ffffffffffffffffffffffffffffffffffffffff82169050919050565b6000819050919050565b600060ff82169050919050565b82818337600083830152505050565b600061127e8261124d565b91507fffffffffffffffffffffffffffffffffffffffffffffffffffffffffffffffff8214156112b1576112b06112ea565b5b600182019050919050565b60006112c7826112ce565b9050919050565b60006112d982611348565b9050919050565b6000819050919050565b7f4e487b7100000000000000000000000000000000000000000000000000000000600052601160045260246000fd5b7f4e487b7100000000000000000000000000000000000000000000000000000000600052604160045260246000fd5b60008160601b9050919050565b61135e81611205565b811461136957600080fd5b50565b61137581611217565b811461138057600080fd5b50565b61138c8161124d565b811461139757600080fd5b5056fea264697066735822122042fc2acadb361f54ddf382aac59db4ad36bc19c541e9337daeeac3ba1e8a8b7064736f6c63430008000033"}}