{"compiler":"v0.6.12+commit.27d51765","opcodeHash":"0x594e188788e3ab9f2f9f0f4dcd6384c1a826d698ed8e725d549ec86c8b9998ec","metalessHash":"0x89874e8586dcc89f1695077d5aef81f94f99312d671c7e145351873a0a1aeb00","runtimeHash":"0xc8c98c8014237db80800a3c5d842505f0bc669d3db39c4f9baa5929df3d05b5e","encodedMetadata":[{"ipfs":"/ipfs/QmT3eGPTZdFUyuU3BRLRnYeZvvCb1hcmm9ooMDLHXSFuWT","solc":"0.6.12"}],"abi":[{"inputs":[],"stateMutability":"nonpayable","type":"constructor"},{"anonymous":false,"inputs":[{"indexed":true,"internalType":"address","name":"previousOwner","type":"address"},{"indexed":true,"internalType":"address","name":"newOwner","type":"address"}],"name":"OwnershipTransferred","type":"event"},{"inputs":[],"name":"CHI","outputs":[{"internalType":"contract iCHI","name":"","type":"address"}],"stateMutability":"view","type":"function"},{"inputs":[],"name":"CurveSUSDSwap","outputs":[{"internalType":"contract iCurve","name":"","type":"address"}],"stateMutability":"view","type":"function"},{"inputs":[],"name":"DaiPool","outputs":[{"internalType":"address","name":"","type":"address"}],"stateMutability":"view","type":"function"},{"inputs":[],"name":"IUniswapV2Router","outputs":[{"internalType":"contract IUniswapV2Router02","name":"","type":"address"}],"stateMutability":"view","type":"function"},{"inputs":[],"name":"SUSDPool","outputs":[{"internalType":"address","name":"","type":"address"}],"stateMutability":"view","type":"function"},{"inputs":[],"name":"USDCPool","outputs":[{"internalType":"address","name":"","type":"address"}],"stateMutability":"view","type":"function"},{"inputs":[],"name":"USDTPool","outputs":[{"internalType":"address","name":"","type":"address"}],"stateMutability":"view","type":"function"},{"inputs":[{"internalType":"address","name":"addx","type":"address"}],"name":"addWhitelisted","outputs":[],"stateMutability":"nonpayable","type":"function"},{"inputs":[],"name":"daiDeposits","outputs":[{"internalType":"uint256","name":"","type":"uint256"}],"stateMutability":"view","type":"function"},{"inputs":[],"name":"depositAll","outputs":[],"stateMutability":"nonpayable","type":"function"},{"inputs":[],"name":"depositAllDiscounted","outputs":[],"stateMutability":"nonpayable","type":"function"},{"inputs":[],"name":"doApprovals","outputs":[],"stateMutability":"nonpayable","type":"function"},{"inputs":[],"name":"emergencyWithdrawAll","outputs":[],"stateMutability":"nonpayable","type":"function"},{"inputs":[],"name":"getEstimatedSUSDProfit","outputs":[{"internalType":"uint256","name":"","type":"uint256"}],"stateMutability":"view","type":"function"},{"inputs":[],"name":"getRewards","outputs":[],"stateMutability":"nonpayable","type":"function"},{"inputs":[{"internalType":"address","name":"tokenAddress","type":"address"}],"name":"getTokenBalance","outputs":[{"internalType":"uint256","name":"","type":"uint256"}],"stateMutability":"view","type":"function"},{"inputs":[{"internalType":"address","name":"tokenAddress","type":"address"},{"internalType":"address","name":"dest","type":"address"}],"name":"getTokenBalanceOfAddr","outputs":[{"internalType":"uint256","name":"","type":"uint256"}],"stateMutability":"view","type":"function"},{"inputs":[],"name":"getTotalEarned","outputs":[{"internalType":"uint256","name":"","type":"uint256"}],"stateMutability":"view","type":"function"},{"inputs":[],"name":"owner","outputs":[{"internalType":"address","name":"","type":"address"}],"stateMutability":"view","type":"function"},{"inputs":[],"name":"pullSUSD","outputs":[],"stateMutability":"nonpayable","type":"function"},{"inputs":[],"name":"pullStables","outputs":[],"stateMutability":"nonpayable","type":"function"},{"inputs":[{"internalType":"address","name":"tokenAddress","type":"address"}],"name":"recoverERC20","outputs":[],"stateMutability":"nonpayable","type":"function"},{"inputs":[],"name":"renounceOwnership","outputs":[],"stateMutability":"nonpayable","type":"function"},{"inputs":[{"internalType":"address","name":"addx","type":"address"}],"name":"revokeWhitelisted","outputs":[],"stateMutability":"nonpayable","type":"function"},{"inputs":[],"name":"susdDeposits","outputs":[{"internalType":"uint256","name":"","type":"uint256"}],"stateMutability":"view","type":"function"},{"inputs":[],"name":"swapBAStoSUSD","outputs":[],"stateMutability":"nonpayable","type":"function"},{"inputs":[],"name":"takeProfits","outputs":[],"stateMutability":"nonpayable","type":"function"},{"inputs":[],"name":"takeProfitsWithCHI","outputs":[],"stateMutability":"nonpayable","type":"function"},{"inputs":[],"name":"toggleReinvest","outputs":[],"stateMutability":"nonpayable","type":"function"},{"inputs":[{"internalType":"address","name":"newOwner","type":"address"}],"name":"transferOwnership","outputs":[],"stateMutability":"nonpayable","type":"function"},{"inputs":[],"name":"updateDepositAmounts","outputs":[],"stateMutability":"nonpayable","type":"function"},{"inputs":[],"name":"usdcDeposits","outputs":[{"internalType":"uint256","name":"","type":"uint256"}],"stateMutability":"view","type":"function"},{"inputs":[],"name":"usdtDeposits","outputs":[{"internalType":"uint256","name":"","type":"uint256"}],"stateMutability":"view","type":"function"},{"inputs":[{"internalType":"address","name":"","type":"address"}],"name":"whitelistedExecutors","outputs":[{"internalType":"bool","name":"","type":"bool"}],"stateMutability":"view","type":"function"},{"inputs":[],"name":"withdrawAllWithRewards","outputs":[],"stateMutability":"nonpayable","type":"function"},{"inputs":[],"name":"withdrawStables","outputs":[],"stateMutability":"nonpayable","type":"function"},{"inputs":[],"name":"withdrawStablesDiscounted","outputs":[],"stateMutability":"nonpayable","type":"function"}],"bytecode":{"object":"6080604052600180546001600160a01b0319908116737a250d5630b4cf539739df2c5dacb4c659f2488d179182905560028054821673a5407eae9ba41422680e2e00537571bcc53efbfd179081905560038054831673ebd12620e29dc6c452db7b96e1f190f3ee02bde81790819055600480548416732833bdc5b31269d356bdf92d0fd8f3674e877e4417908190556005805485167351882184b7f9beed6db9c617846140da1d429fd4179081905560068054861673dc42a21e38c3b8028b01a6b00d8dbc648f93305c1790819055600780548716733449fc1cd036255ba1eb19d65ff4ba2b8903a69a17905560088054871673dac17f958d2ee523a2206206994597c13d831ec717905560098054871673a0b86991c6218b36c1d19d4a2e9eb0ce3606eb48179055600a80548716736b175474e89094c44da98b954eedeac495271d0f179055600b805487167357ab1ec28d129707052df4df418d58a2d46d5f51179055600c8054871673c02aaa39b223fe8d0a0e5c4f27ead9083c756cc2179055600d805487166d4946c0e9f43f4dee607b0ef1fa1c1790819055600e805488166001600160a01b03968716179055600f80548816948616949094179093556010805487169285169290921790915560118054861691841691909117905560128054851691831691909117905560138054841630179055600060148190556015819055601681905560175560188054620100009583169590950262010000600160b01b031961ffff1990961661010017959095169490941790935560198054909216921691909117905534801561025757600080fd5b5060006102626102cb565b600080546001600160a01b0319166001600160a01b0383169081178255604051929350917f8be0079c531659141344cd1fd0a4f28419497f9722a3daafe3b4186f6b6457e0908290a350336000908152601a60205260409020805460ff191660011790556102cf565b3390565b61306680620002df6000396000f3fe608060405234801561001057600080fd5b50600436106102775760003560e01c8063925e3f9511610160578063d00e44e0116100d8578063de5f62681161008c578063f2fde38b11610071578063f2fde38b14610475578063fb2e2a3a146104a8578063fe2b3502146104e357610277565b8063de5f626814610465578063e8ed269e1461046d57610277565b8063dbd1c08f116100bd578063dbd1c08f1461044d578063dbf6bb5c14610455578063dd1917191461045d57610277565b8063d00e44e01461043d578063da8468931461044557610277565b8063a62510961161012f578063bd6444cc11610114578063bd6444cc14610425578063cb46b2821461042d578063cc755f9a1461043557610277565b8063a625109614610415578063ade0e5fc1461041d57610277565b8063925e3f95146103ca5780639c7dc121146103d25780639e8c708e146103da578063a560cedb1461040d57610277565b80635d4f7742116101f357806374847c54116101c25780638c255a15116101a75780638c255a15146103875780638da5cb5b1461038f5780638eb5e2e01461039757610277565b806374847c54146103775780638407f2071461037f57610277565b80635d4f77421461032e5780636307e98c146103365780636a5b266d1461033e578063715018a61461036f57610277565b8063252f989e1161024a5780633aecd0e31161022f5780633aecd0e3146102eb57806340cccf2a1461031e57806346984ae01461032657610277565b8063252f989e146102c95780632a51a956146102e357610277565b80630572b0cc1461027c57806310154bad14610286578063141b3073146102b957806323e77db3146102c1575b600080fd5b61028461052a565b005b6102846004803603602081101561029c57600080fd5b503573ffffffffffffffffffffffffffffffffffffffff16610797565b610284610877565b610284610990565b6102d1610ab9565b60408051918252519081900360200190f35b610284610c8a565b6102d16004803603602081101561030157600080fd5b503573ffffffffffffffffffffffffffffffffffffffff16610e6a565b610284610e97565b61028461112d565b6102846113f2565b610284611561565b610346611633565b6040805173ffffffffffffffffffffffffffffffffffffffff9092168252519081900360200190f35b61028461164f565b61034661174f565b61034661176b565b6102d1611787565b61034661178d565b610284600480360360208110156103ad57600080fd5b503573ffffffffffffffffffffffffffffffffffffffff166117a9565b6102d1611886565b61028461188c565b610284600480360360208110156103f057600080fd5b503573ffffffffffffffffffffffffffffffffffffffff166119a1565b610284611a4c565b610346611a59565b610284611a7b565b610346611b46565b610346611b62565b610346611b7e565b610284611b9a565b6102d1611c2b565b6102d1611c31565b6102d1611ed1565b610284611ed7565b6102846121ab565b61028461252b565b6102846004803603602081101561048b57600080fd5b503573ffffffffffffffffffffffffffffffffffffffff16612538565b6102d1600480360360408110156104be57600080fd5b5073ffffffffffffffffffffffffffffffffffffffff813581169160200135166125e4565b610516600480360360208110156104f957600080fd5b503573ffffffffffffffffffffffffffffffffffffffff16612680565b604080519115158252519081900360200190f35b601a6000610536612695565b73ffffffffffffffffffffffffffffffffffffffff16815260208101919091526040016000205460ff1661056957600080fd5b601454156105f457601160009054906101000a900473ffffffffffffffffffffffffffffffffffffffff1673ffffffffffffffffffffffffffffffffffffffff16633d18b9126040518163ffffffff1660e01b8152600401600060405180830381600087803b1580156105db57600080fd5b505af11580156105ef573d6000803e3d6000fd5b505050505b6015541561067f57601060009054906101000a900473ffffffffffffffffffffffffffffffffffffffff1673ffffffffffffffffffffffffffffffffffffffff16633d18b9126040518163ffffffff1660e01b8152600401600060405180830381600087803b15801561066657600080fd5b505af115801561067a573d6000803e3d6000fd5b505050505b6017541561070a57600e60009054906101000a900473ffffffffffffffffffffffffffffffffffffffff1673ffffffffffffffffffffffffffffffffffffffff16633d18b9126040518163ffffffff1660e01b8152600401600060405180830381600087803b1580156106f157600080fd5b505af1158015610705573d6000803e3d6000fd5b505050505b6016541561079557600f60009054906101000a900473ffffffffffffffffffffffffffffffffffffffff1673ffffffffffffffffffffffffffffffffffffffff16633d18b9126040518163ffffffff1660e01b8152600401600060405180830381600087803b15801561077c57600080fd5b505af1158015610790573d6000803e3d6000fd5b505050505b565b61079f612695565b60005473ffffffffffffffffffffffffffffffffffffffff90811691161461082857604080517f08c379a000000000000000000000000000000000000000000000000000000000815260206004820181905260248201527f4f776e61626c653a2063616c6c6572206973206e6f7420746865206f776e6572604482015290519081900360640190fd5b73ffffffffffffffffffffffffffffffffffffffff166000908152601a6020526040902080547fffffffffffffffffffffffffffffffffffffffffffffffffffffffffffffff00166001179055565b61087f612695565b60005473ffffffffffffffffffffffffffffffffffffffff90811691161461090857604080517f08c379a000000000000000000000000000000000000000000000000000000000815260206004820181905260248201527f4f776e61626c653a2063616c6c6572206973206e6f7420746865206f776e6572604482015290519081900360640190fd5b60085461092a9073ffffffffffffffffffffffffffffffffffffffff16612699565b60095461094c9073ffffffffffffffffffffffffffffffffffffffff16612699565b600a5461096e9073ffffffffffffffffffffffffffffffffffffffff16612699565b600b546107959073ffffffffffffffffffffffffffffffffffffffff16612699565b601a600061099c612695565b73ffffffffffffffffffffffffffffffffffffffff16815260208101919091526040016000205460ff166109cf57600080fd5b6109d761052a565b6109df61188c565b600b54600090610a049073ffffffffffffffffffffffffffffffffffffffff16610e6a565b601854909150610100900460ff168015610a1e5750600081115b15610ab657601154604080517fa694fc3a00000000000000000000000000000000000000000000000000000000815260048101849052905173ffffffffffffffffffffffffffffffffffffffff9092169163a694fc3a9160248082019260009290919082900301818387803b158015610a9657600080fd5b505af1158015610aaa573d6000803e3d6000fd5b50505050610ab6610e97565b50565b60185460009062010000900473ffffffffffffffffffffffffffffffffffffffff1663d06ca61f610ae8611c31565b600754600a54610b119173ffffffffffffffffffffffffffffffffffffffff90811691166126d4565b6040518363ffffffff1660e01b81526004018083815260200180602001828103825283818151815260200191508051906020019060200280838360005b83811015610b66578181015183820152602001610b4e565b50505050905001935050505060006040518083038186803b158015610b8a57600080fd5b505afa158015610b9e573d6000803e3d6000fd5b505050506040513d6000823e601f3d9081017fffffffffffffffffffffffffffffffffffffffffffffffffffffffffffffffe01682016040526020811015610be557600080fd5b8101908080516040519392919084640100000000821115610c0557600080fd5b908301906020820185811115610c1a57600080fd5b8251866020820283011164010000000082111715610c3757600080fd5b82525081516020918201928201910280838360005b83811015610c64578181015183820152602001610c4c565b50505050905001604052505050600281518110610c7d57fe5b6020026020010151905090565b610c92612695565b60005473ffffffffffffffffffffffffffffffffffffffff908116911614610d1b57604080517f08c379a000000000000000000000000000000000000000000000000000000000815260206004820181905260248201527f4f776e61626c653a2063616c6c6572206973206e6f7420746865206f776e6572604482015290519081900360640190fd5b610d2361112d565b610d2b61188c565b600854600090610d509073ffffffffffffffffffffffffffffffffffffffff16610e6a565b600954909150600090610d789073ffffffffffffffffffffffffffffffffffffffff16610e6a565b600a54909150600090610da09073ffffffffffffffffffffffffffffffffffffffff16610e6a565b600b54909150600090610dc89073ffffffffffffffffffffffffffffffffffffffff16610e6a565b90508315610df257600854610df29073ffffffffffffffffffffffffffffffffffffffff166119a1565b8215610e1a57600954610e1a9073ffffffffffffffffffffffffffffffffffffffff166119a1565b8115610e4257600a54610e429073ffffffffffffffffffffffffffffffffffffffff166119a1565b801561079057600b546107909073ffffffffffffffffffffffffffffffffffffffff166119a1565b601354600090610e9190839073ffffffffffffffffffffffffffffffffffffffff166125e4565b92915050565b601154601354604080517ffc7e286d00000000000000000000000000000000000000000000000000000000815273ffffffffffffffffffffffffffffffffffffffff92831660048201529051919092169163fc7e286d916024808301926020929190829003018186803b158015610f0d57600080fd5b505afa158015610f21573d6000803e3d6000fd5b505050506040513d6020811015610f3757600080fd5b5051601455601054601354604080517ffc7e286d00000000000000000000000000000000000000000000000000000000815273ffffffffffffffffffffffffffffffffffffffff92831660048201529051919092169163fc7e286d916024808301926020929190829003018186803b158015610fb257600080fd5b505afa158015610fc6573d6000803e3d6000fd5b505050506040513d6020811015610fdc57600080fd5b5051601555600f54601354604080517ffc7e286d00000000000000000000000000000000000000000000000000000000815273ffffffffffffffffffffffffffffffffffffffff92831660048201529051919092169163fc7e286d916024808301926020929190829003018186803b15801561105757600080fd5b505afa15801561106b573d6000803e3d6000fd5b505050506040513d602081101561108157600080fd5b5051601655600e54601354604080517ffc7e286d00000000000000000000000000000000000000000000000000000000815273ffffffffffffffffffffffffffffffffffffffff92831660048201529051919092169163fc7e286d916024808301926020929190829003018186803b1580156110fc57600080fd5b505afa158015611110573d6000803e3d6000fd5b505050506040513d602081101561112657600080fd5b5051601755565b611135612695565b60005473ffffffffffffffffffffffffffffffffffffffff9081169116146111be57604080517f08c379a000000000000000000000000000000000000000000000000000000000815260206004820181905260248201527f4f776e61626c653a2063616c6c6572206973206e6f7420746865206f776e6572604482015290519081900360640190fd5b6014541561124957601160009054906101000a900473ffffffffffffffffffffffffffffffffffffffff1673ffffffffffffffffffffffffffffffffffffffff1663e9fad8ee6040518163ffffffff1660e01b8152600401600060405180830381600087803b15801561123057600080fd5b505af1158015611244573d6000803e3d6000fd5b505050505b601554156112d457601060009054906101000a900473ffffffffffffffffffffffffffffffffffffffff1673ffffffffffffffffffffffffffffffffffffffff1663e9fad8ee6040518163ffffffff1660e01b8152600401600060405180830381600087803b1580156112bb57600080fd5b505af11580156112cf573d6000803e3d6000fd5b505050505b6017541561135f57600e60009054906101000a900473ffffffffffffffffffffffffffffffffffffffff1673ffffffffffffffffffffffffffffffffffffffff1663e9fad8ee6040518163ffffffff1660e01b8152600401600060405180830381600087803b15801561134657600080fd5b505af115801561135a573d6000803e3d6000fd5b505050505b601654156113ea57600f60009054906101000a900473ffffffffffffffffffffffffffffffffffffffff1673ffffffffffffffffffffffffffffffffffffffff1663e9fad8ee6040518163ffffffff1660e01b8152600401600060405180830381600087803b1580156113d157600080fd5b505af11580156113e5573d6000803e3d6000fd5b505050505b610795610e97565b60075460015461141b9173ffffffffffffffffffffffffffffffffffffffff908116911661277b565b600c546001546114449173ffffffffffffffffffffffffffffffffffffffff908116911661277b565b600a5460025461146d9173ffffffffffffffffffffffffffffffffffffffff908116911661277b565b600d546114909073ffffffffffffffffffffffffffffffffffffffff168061277b565b6008546004546114b99173ffffffffffffffffffffffffffffffffffffffff908116911661277b565b6009546005546114e29173ffffffffffffffffffffffffffffffffffffffff908116911661277b565b600a5460035461150b9173ffffffffffffffffffffffffffffffffffffffff908116911661277b565b600b546006546115349173ffffffffffffffffffffffffffffffffffffffff908116911661277b565b601880547fffffffffffffffffffffffffffffffffffffffffffffffffffffffffffffff00166001179055565b60005a905061156e610c8a565b6000601036025a601254601354604080517f079d229f00000000000000000000000000000000000000000000000000000000815273ffffffffffffffffffffffffffffffffffffffff928316600482015261a3db948803959095016189528101949094046024860152516152089093019450169163079d229f9160448083019260209291908290030181600087803b15801561160957600080fd5b505af115801561161d573d6000803e3d6000fd5b505050506040513d602081101561079057600080fd5b60125473ffffffffffffffffffffffffffffffffffffffff1681565b611657612695565b60005473ffffffffffffffffffffffffffffffffffffffff9081169116146116e057604080517f08c379a000000000000000000000000000000000000000000000000000000000815260206004820181905260248201527f4f776e61626c653a2063616c6c6572206973206e6f7420746865206f776e6572604482015290519081900360640190fd5b6000805460405173ffffffffffffffffffffffffffffffffffffffff909116907f8be0079c531659141344cd1fd0a4f28419497f9722a3daafe3b4186f6b6457e0908390a3600080547fffffffffffffffffffffffff0000000000000000000000000000000000000000169055565b60065473ffffffffffffffffffffffffffffffffffffffff1681565b60055473ffffffffffffffffffffffffffffffffffffffff1681565b60175481565b60005473ffffffffffffffffffffffffffffffffffffffff1690565b6117b1612695565b60005473ffffffffffffffffffffffffffffffffffffffff90811691161461183a57604080517f08c379a000000000000000000000000000000000000000000000000000000000815260206004820181905260248201527f4f776e61626c653a2063616c6c6572206973206e6f7420746865206f776e6572604482015290519081900360640190fd5b73ffffffffffffffffffffffffffffffffffffffff166000908152601a6020526040902080547fffffffffffffffffffffffffffffffffffffffffffffffffffffffffffffff00169055565b60145481565b601a6000611898612695565b73ffffffffffffffffffffffffffffffffffffffff16815260208101919091526040016000205460ff166118cb57600080fd5b6007546000906118f09073ffffffffffffffffffffffffffffffffffffffff16610e6a565b111561079557600754600a5461191f9173ffffffffffffffffffffffffffffffffffffffff90811691166127aa565b601954600a5473ffffffffffffffffffffffffffffffffffffffff91821691633df02124916000916003916119549116610e6a565b60006040518563ffffffff1660e01b815260040180858152602001848152602001838152602001828152602001945050505050600060405180830381600087803b15801561077c57600080fd5b6119a9612695565b60005473ffffffffffffffffffffffffffffffffffffffff908116911614611a3257604080517f08c379a000000000000000000000000000000000000000000000000000000000815260206004820181905260248201527f4f776e61626c653a2063616c6c6572206973206e6f7420746865206f776e6572604482015290519081900360640190fd5b610ab681611a3e61178d565b611a4784610e6a565b6127bc565b60005a905061156e6121ab565b60185462010000900473ffffffffffffffffffffffffffffffffffffffff1681565b611a83612695565b60005473ffffffffffffffffffffffffffffffffffffffff908116911614611b0c57604080517f08c379a000000000000000000000000000000000000000000000000000000000815260206004820181905260248201527f4f776e61626c653a2063616c6c6572206973206e6f7420746865206f776e6572604482015290519081900360640190fd5b601880547fffffffffffffffffffffffffffffffffffffffffffffffffffffffffffff00ff81166101009182900460ff1615909102179055565b60035473ffffffffffffffffffffffffffffffffffffffff1681565b60045473ffffffffffffffffffffffffffffffffffffffff1681565b60195473ffffffffffffffffffffffffffffffffffffffff1681565b611ba2612695565b60005473ffffffffffffffffffffffffffffffffffffffff90811691161461096e57604080517f08c379a000000000000000000000000000000000000000000000000000000000815260206004820181905260248201527f4f776e61626c653a2063616c6c6572206973206e6f7420746865206f776e6572604482015290519081900360640190fd5b60165481565b600f54601354604080517e8cc26200000000000000000000000000000000000000000000000000000000815273ffffffffffffffffffffffffffffffffffffffff9283166004820152905160009384931691628cc262916024808301926020929190829003018186803b158015611ca757600080fd5b505afa158015611cbb573d6000803e3d6000fd5b505050506040513d6020811015611cd157600080fd5b5051601054601354604080517e8cc26200000000000000000000000000000000000000000000000000000000815273ffffffffffffffffffffffffffffffffffffffff928316600482015290519394506000939190921691628cc262916024808301926020929190829003018186803b158015611d4d57600080fd5b505afa158015611d61573d6000803e3d6000fd5b505050506040513d6020811015611d7757600080fd5b5051601154601354604080517e8cc26200000000000000000000000000000000000000000000000000000000815273ffffffffffffffffffffffffffffffffffffffff928316600482015290519394506000939190921691628cc262916024808301926020929190829003018186803b158015611df357600080fd5b505afa158015611e07573d6000803e3d6000fd5b505050506040513d6020811015611e1d57600080fd5b5051600e54601354604080517e8cc26200000000000000000000000000000000000000000000000000000000815273ffffffffffffffffffffffffffffffffffffffff928316600482015290519394506000939190921691628cc262916024808301926020929190829003018186803b158015611e9957600080fd5b505afa158015611ead573d6000803e3d6000fd5b505050506040513d6020811015611ec357600080fd5b505192909301010192915050565b60155481565b611edf612695565b60005473ffffffffffffffffffffffffffffffffffffffff908116911614611f6857604080517f08c379a000000000000000000000000000000000000000000000000000000000815260206004820181905260248201527f4f776e61626c653a2063616c6c6572206973206e6f7420746865206f776e6572604482015290519081900360640190fd5b60145415611fff57601154601454604080517f2e1a7d4d00000000000000000000000000000000000000000000000000000000815260048101929092525173ffffffffffffffffffffffffffffffffffffffff90921691632e1a7d4d9160248082019260009290919082900301818387803b158015611fe657600080fd5b505af1158015611ffa573d6000803e3d6000fd5b505050505b6015541561209657601054601554604080517f2e1a7d4d00000000000000000000000000000000000000000000000000000000815260048101929092525173ffffffffffffffffffffffffffffffffffffffff90921691632e1a7d4d9160248082019260009290919082900301818387803b15801561207d57600080fd5b505af1158015612091573d6000803e3d6000fd5b505050505b6017541561212d57600e54601754604080517f2e1a7d4d00000000000000000000000000000000000000000000000000000000815260048101929092525173ffffffffffffffffffffffffffffffffffffffff90921691632e1a7d4d9160248082019260009290919082900301818387803b15801561211457600080fd5b505af1158015612128573d6000803e3d6000fd5b505050505b6016541561079557600f54601654604080517f2e1a7d4d00000000000000000000000000000000000000000000000000000000815260048101929092525173ffffffffffffffffffffffffffffffffffffffff90921691632e1a7d4d9160248082019260009290919082900301818387803b15801561077c57600080fd5b6121b3612695565b60005473ffffffffffffffffffffffffffffffffffffffff90811691161461223c57604080517f08c379a000000000000000000000000000000000000000000000000000000000815260206004820181905260248201527f4f776e61626c653a2063616c6c6572206973206e6f7420746865206f776e6572604482015290519081900360640190fd5b6008546000906122619073ffffffffffffffffffffffffffffffffffffffff16610e6a565b6009549091506000906122899073ffffffffffffffffffffffffffffffffffffffff16610e6a565b600a549091506000906122b19073ffffffffffffffffffffffffffffffffffffffff16610e6a565b600b549091506000906122d99073ffffffffffffffffffffffffffffffffffffffff16610e6a565b9050831561236d57600f54604080517fa694fc3a00000000000000000000000000000000000000000000000000000000815260048101879052905173ffffffffffffffffffffffffffffffffffffffff9092169163a694fc3a9160248082019260009290919082900301818387803b15801561235457600080fd5b505af1158015612368573d6000803e3d6000fd5b505050505b82156123ff57601054604080517fa694fc3a00000000000000000000000000000000000000000000000000000000815260048101869052905173ffffffffffffffffffffffffffffffffffffffff9092169163a694fc3a9160248082019260009290919082900301818387803b1580156123e657600080fd5b505af11580156123fa573d6000803e3d6000fd5b505050505b811561249157600e54604080517fa694fc3a00000000000000000000000000000000000000000000000000000000815260048101859052905173ffffffffffffffffffffffffffffffffffffffff9092169163a694fc3a9160248082019260009290919082900301818387803b15801561247857600080fd5b505af115801561248c573d6000803e3d6000fd5b505050505b801561252357601154604080517fa694fc3a00000000000000000000000000000000000000000000000000000000815260048101849052905173ffffffffffffffffffffffffffffffffffffffff9092169163a694fc3a9160248082019260009290919082900301818387803b15801561250a57600080fd5b505af115801561251e573d6000803e3d6000fd5b505050505b610790610e97565b60005a905061156e610990565b612540612695565b60005473ffffffffffffffffffffffffffffffffffffffff9081169116146125c957604080517f08c379a000000000000000000000000000000000000000000000000000000000815260206004820181905260248201527f4f776e61626c653a2063616c6c6572206973206e6f7420746865206f776e6572604482015290519081900360640190fd5b6125d281610797565b6125db336117a9565b610ab681612999565b60008273ffffffffffffffffffffffffffffffffffffffff166370a08231836040518263ffffffff1660e01b8152600401808273ffffffffffffffffffffffffffffffffffffffff16815260200191505060206040518083038186803b15801561264d57600080fd5b505afa158015612661573d6000803e3d6000fd5b505050506040513d602081101561267757600080fd5b50519392505050565b601a6020526000908152604090205460ff1681565b3390565b610ab6816126a561178d565b60135473ffffffffffffffffffffffffffffffffffffffff166126cf856126ca61178d565b6125e4565b612b23565b604080516002808252606080830184529283929190602083019080368337019050509050838160008151811061270657fe5b602002602001019073ffffffffffffffffffffffffffffffffffffffff16908173ffffffffffffffffffffffffffffffffffffffff1681525050828160018151811061274e57fe5b73ffffffffffffffffffffffffffffffffffffffff90921660209283029190910190910152905092915050565b6127a682827ffe00000000000000000000000000000000000000000000000000000000000000612cf3565b5050565b6127a66127b783836126d4565b612ec9565b6040805173ffffffffffffffffffffffffffffffffffffffff8481166024830152604480830185905283518084039091018152606490920183526020820180517bffffffffffffffffffffffffffffffffffffffffffffffffffffffff167fa9059cbb00000000000000000000000000000000000000000000000000000000178152925182516000946060949389169392918291908083835b6020831061289257805182527fffffffffffffffffffffffffffffffffffffffffffffffffffffffffffffffe09092019160209182019101612855565b6001836020036101000a0380198251168184511680821785525050505050509050019150506000604051808303816000865af19150503d80600081146128f4576040519150601f19603f3d011682016040523d82523d6000602084013e6128f9565b606091505b5091509150818015612927575080511580612927575080806020019051602081101561292457600080fd5b50515b61299257604080517f08c379a000000000000000000000000000000000000000000000000000000000815260206004820152601f60248201527f5472616e7366657248656c7065723a205452414e534645525f4641494c454400604482015290519081900360640190fd5b5050505050565b6129a1612695565b60005473ffffffffffffffffffffffffffffffffffffffff908116911614612a2a57604080517f08c379a000000000000000000000000000000000000000000000000000000000815260206004820181905260248201527f4f776e61626c653a2063616c6c6572206973206e6f7420746865206f776e6572604482015290519081900360640190fd5b73ffffffffffffffffffffffffffffffffffffffff8116612a96576040517f08c379a0000000000000000000000000000000000000000000000000000000008152600401808060200182810382526026815260200180612fe76026913960400191505060405180910390fd5b6000805460405173ffffffffffffffffffffffffffffffffffffffff808516939216917f8be0079c531659141344cd1fd0a4f28419497f9722a3daafe3b4186f6b6457e091a3600080547fffffffffffffffffffffffff00000000000000000000000000000000000000001673ffffffffffffffffffffffffffffffffffffffff92909216919091179055565b6040805173ffffffffffffffffffffffffffffffffffffffff85811660248301528481166044830152606480830185905283518084039091018152608490920183526020820180517bffffffffffffffffffffffffffffffffffffffffffffffffffffffff167f23b872dd0000000000000000000000000000000000000000000000000000000017815292518251600094606094938a169392918291908083835b60208310612c0157805182527fffffffffffffffffffffffffffffffffffffffffffffffffffffffffffffffe09092019160209182019101612bc4565b6001836020036101000a0380198251168184511680821785525050505050509050019150506000604051808303816000865af19150503d8060008114612c63576040519150601f19603f3d011682016040523d82523d6000602084013e612c68565b606091505b5091509150818015612c96575080511580612c965750808060200190516020811015612c9357600080fd5b50515b612ceb576040517f08c379a000000000000000000000000000000000000000000000000000000000815260040180806020018281038252602481526020018061300d6024913960400191505060405180910390fd5b505050505050565b6040805173ffffffffffffffffffffffffffffffffffffffff8481166024830152604480830185905283518084039091018152606490920183526020820180517bffffffffffffffffffffffffffffffffffffffffffffffffffffffff167f095ea7b300000000000000000000000000000000000000000000000000000000178152925182516000946060949389169392918291908083835b60208310612dc957805182527fffffffffffffffffffffffffffffffffffffffffffffffffffffffffffffffe09092019160209182019101612d8c565b6001836020036101000a0380198251168184511680821785525050505050509050019150506000604051808303816000865af19150503d8060008114612e2b576040519150601f19603f3d011682016040523d82523d6000602084013e612e30565b606091505b5091509150818015612e5e575080511580612e5e5750808060200190516020811015612e5b57600080fd5b50515b61299257604080517f08c379a000000000000000000000000000000000000000000000000000000000815260206004820152601e60248201527f5472616e7366657248656c7065723a20415050524f56455f4641494c45440000604482015290519081900360640190fd5b6000612ee882600081518110612edb57fe5b6020026020010151610e6a565b6018546013546040517f5c11d7950000000000000000000000000000000000000000000000000000000081526004810184815260006024830181905273ffffffffffffffffffffffffffffffffffffffff9384166064840181905242611c20016084850181905260a0604486019081528a5160a48701528a519899506201000090970490951696635c11d79596899693958b959394939260c490910190602087810191028083838b5b83811015612fa9578181015183820152602001612f91565b505050509050019650505050505050600060405180830381600087803b158015612fd257600080fd5b505af1158015612ceb573d6000803e3d6000fdfe4f776e61626c653a206e6577206f776e657220697320746865207a65726f20616464726573735472616e7366657248656c7065723a205452414e534645525f46524f4d5f4641494c4544a2646970667358221220e846cbb4b87875f41b1f5a79741b522e6a5ff0d828e0457833f266be11aaef3864736f6c634300060c0033"}}