{"compiler":"v0.6.12+commit.27d51765","opcodeHash":"0x23711fefefd633f9b0b2e6b7589ebf82d303fdc1ac666235b6b8ca1d9abfa87c","metalessHash":"0xa70291262682a86579b8df17886b9bae762bed6fddf1908c3dcf542008d2bbe0","runtimeHash":"0x1fcb0fb8b6a7f8506cca270e33bf742974b46dedfb304369540e49e904f62e7c","encodedMetadata":[{"ipfs":"/ipfs/QmSvtyocyZwAonNj9iRC4srvB8mT9Uo2SoiVKGYD3Zqw5p","solc":"0.6.12"}],"abi":[{"inputs":[{"internalType":"address","name":"_token","type":"address"}],"stateMutability":"nonpayable","type":"constructor"},{"anonymous":false,"inputs":[{"indexed":false,"internalType":"uint256","name":"amount","type":"uint256"}],"name":"Bought","type":"event"},{"anonymous":false,"inputs":[{"indexed":false,"internalType":"address","name":"sender","type":"address"},{"indexed":false,"internalType":"uint256","name":"vlue","type":"uint256"},{"indexed":false,"internalType":"uint256","name":"balance","type":"uint256"}],"name":"TotalBalance","type":"event"},{"anonymous":false,"inputs":[{"indexed":false,"internalType":"address","name":"_to","type":"address"},{"indexed":false,"internalType":"uint256","name":"amount","type":"uint256"}],"name":"Transfer","type":"event"},{"anonymous":false,"inputs":[{"indexed":false,"internalType":"address[]","name":"_receivers","type":"address[]"},{"indexed":false,"internalType":"uint256","name":"amount","type":"uint256"}],"name":"TransferMultiple","type":"event"},{"inputs":[],"name":"burn","outputs":[],"stateMutability":"nonpayable","type":"function"},{"inputs":[{"internalType":"address","name":"_buyer","type":"address"}],"name":"buy","outputs":[],"stateMutability":"payable","type":"function"},{"inputs":[],"name":"getEthTokenBal","outputs":[{"internalType":"uint256","name":"","type":"uint256"},{"internalType":"uint256","name":"","type":"uint256"}],"stateMutability":"view","type":"function"},{"inputs":[],"name":"rate","outputs":[{"internalType":"uint256","name":"","type":"uint256"}],"stateMutability":"view","type":"function"},{"inputs":[],"name":"token","outputs":[{"internalType":"contract IERC20","name":"","type":"address"}],"stateMutability":"view","type":"function"},{"inputs":[],"name":"trxnCount","outputs":[{"internalType":"uint256","name":"","type":"uint256"}],"stateMutability":"view","type":"function"},{"inputs":[],"name":"wallet","outputs":[{"internalType":"address payable","name":"","type":"address"}],"stateMutability":"view","type":"function"},{"inputs":[],"name":"weiRaised","outputs":[{"internalType":"uint256","name":"","type":"uint256"}],"stateMutability":"view","type":"function"},{"inputs":[],"name":"withdrawToken","outputs":[],"stateMutability":"nonpayable","type":"function"},{"stateMutability":"payable","type":"receive"}],"bytecode":{"object":"6080604052600180546001600160a01b0319167393b3a464af66ce7b73cd5a2acbb927a8ea5bab0e17905561014d60025534801561003c57600080fd5b50604051610a1d380380610a1d8339818101604052602081101561005f57600080fd5b5051600080546001600160a01b0390921661010002610100600160a81b0319909216919091179055610987806100966000396000f3fe60806040526004361061008a5760003560e01c806399c83f881161005957806399c83f88146101d5578063ca628c78146101ea578063f088d547146101ff578063f5756d7b14610225578063fc0c546a146102535761014c565b80632c4e722e146101515780634042b66f1461017857806344df8e701461018d578063521eb273146101a45761014c565b3661014c576001546040516000916001600160a01b03169034908381818185875af1925050503d80600081146100dc576040519150601f19603f3d011682016040523d82523d6000602084013e6100e1565b606091505b5050905080610130576040805162461bcd60e51b815260206004820152601660248201527563616e206e6f74207472616e736665722066756e647360501b604482015290519081900360640190fd5b61013933610268565b600454610146903461042f565b60045550005b600080fd5b34801561015d57600080fd5b50610166610492565b60408051918252519081900360200190f35b34801561018457600080fd5b50610166610498565b34801561019957600080fd5b506101a261049e565b005b3480156101b057600080fd5b506101b9610590565b604080516001600160a01b039092168252519081900360200190f35b3480156101e157600080fd5b5061016661059f565b3480156101f657600080fd5b506101a26105a5565b6101a26004803603602081101561021557600080fd5b50356001600160a01b0316610268565b34801561023157600080fd5b5061023a6106a7565b6040805192835260208301919091528051918290030190f35b34801561025f57600080fd5b506101b9610742565b60005460ff161561027857600080fd5b6000805460ff1916600117815561028e34610756565b905060008060019054906101000a90046001600160a01b03166001600160a01b03166370a08231306040518263ffffffff1660e01b815260040180826001600160a01b0316815260200191505060206040518083038186803b1580156102f357600080fd5b505afa158015610307573d6000803e3d6000fd5b505050506040513d602081101561031d57600080fd5b5051905081610373576040805162461bcd60e51b815260206004820152601b60248201527f596f75206e65656420746f2073656e6420736f6d652065746865720000000000604482015290519081900360640190fd5b808211156103c8576040805162461bcd60e51b815260206004820181905260248201527f4e6f7420656e6f75676820746f6b656e7320696e207468652072657365727665604482015290519081900360640190fd5b6000546103e49061010090046001600160a01b0316848461076d565b6040805183815290517f4e08ba899977cf7d4c2964bce71c6b9a7ef76ee5166a4c1249a1e08016e33ef19181900360200190a15050600380546001019055506000805460ff19169055565b600082820183811015610489576040805162461bcd60e51b815260206004820152601b60248201527f536166654d6174683a206164646974696f6e206f766572666c6f770000000000604482015290519081900360640190fd5b90505b92915050565b60025481565b60045481565b6001546001600160a01b031633146104b557600080fd5b60008054604080516370a0823160e01b815230600482015290516101009092046001600160a01b0316916370a0823191602480820192602092909190829003018186803b15801561050557600080fd5b505afa158015610519573d6000803e3d6000fd5b505050506040513d602081101561052f57600080fd5b5051600080549192506105519161010090046001600160a01b0316908361076d565b60408051600081526020810183905281517f69ca02dd4edd7bf0a4abb9ed3b7af3f14778db5d61921c7dc7cd545266326de2929181900390910190a150565b6001546001600160a01b031681565b60035481565b6001546001600160a01b031633146105bc57600080fd5b60008054604080516370a0823160e01b815230600482015290516101009092046001600160a01b0316916370a0823191602480820192602092909190829003018186803b15801561060c57600080fd5b505afa158015610620573d6000803e3d6000fd5b505050506040513d602081101561063657600080fd5b505160005460015491925061065d916001600160a01b03610100909204821691168361076d565b600154604080516001600160a01b0390921682526020820183905280517f69ca02dd4edd7bf0a4abb9ed3b7af3f14778db5d61921c7dc7cd545266326de29281900390910190a150565b60008047600060019054906101000a90046001600160a01b03166001600160a01b03166370a08231306040518263ffffffff1660e01b815260040180826001600160a01b0316815260200191505060206040518083038186803b15801561070d57600080fd5b505afa158015610721573d6000803e3d6000fd5b505050506040513d602081101561073757600080fd5b505190925090509091565b60005461010090046001600160a01b031681565b600061048c600254836108d790919063ffffffff16565b604080516001600160a01b038481166024830152604480830185905283518084039091018152606490920183526020820180516001600160e01b031663a9059cbb60e01b178152925182516000946060949389169392918291908083835b602083106107ea5780518252601f1990920191602091820191016107cb565b6001836020036101000a0380198251168184511680821785525050505050509050019150506000604051808303816000865af19150503d806000811461084c576040519150601f19603f3d011682016040523d82523d6000602084013e610851565b606091505b509150915081801561087f57508051158061087f575080806020019051602081101561087c57600080fd5b50515b6108d0576040805162461bcd60e51b815260206004820152601f60248201527f5472616e7366657248656c7065723a205452414e534645525f4641494c454400604482015290519081900360640190fd5b5050505050565b6000826108e65750600061048c565b828202828482816108f357fe5b04146104895760405162461bcd60e51b81526004018080602001828103825260218152602001806109316021913960400191505060405180910390fdfe536166654d6174683a206d756c7469706c69636174696f6e206f766572666c6f77a2646970667358221220294717bfe9d7e38520a56e3a27cd78569d2267b155330e66900d236cadada6ff64736f6c634300060c0033"}}