{
  "opcodeHash": "0x056b6d844170aefc4e28163b445a8ef6ceac691de7c0b1d0e3e66ee67c20f6cf",
  "metalessHash": "0x2ab32611fc12f02654abd19a08380bec8ef756622a3cdc9a9b81fb70cc662207",
  "runtimeHash": "0x17f7b08d1ab076d706f88552000be9c1bef376c0b30984d5d08ded184c07e37c",
  "encodedMetadata": [
    {
      "bzzr0": "/swarm/bzzr0/898d93a21428b3c3b69b705d72e6eed6fbe476aa6d780d963d4fe4ac82767fe5"
    }
  ],
  "abi": [
    {
      "constant": true,
      "inputs": [],
      "name": "name",
      "outputs": [
        {
          "name": "",
          "type": "string"
        }
      ],
      "payable": false,
      "stateMutability": "view",
      "type": "function"
    },
    {
      "constant": false,
      "inputs": [
        {
          "name": "spender",
          "type": "address"
        },
        {
          "name": "amount",
          "type": "uint256"
        }
      ],
      "name": "approve",
      "outputs": [
        {
          "name": "",
          "type": "bool"
        }
      ],
      "payable": false,
      "stateMutability": "nonpayable",
      "type": "function"
    },
    {
      "constant": true,
      "inputs": [],
      "name": "totalSupply",
      "outputs": [
        {
          "name": "",
          "type": "uint256"
        }
      ],
      "payable": false,
      "stateMutability": "view",
      "type": "function"
    },
    {
      "constant": true,
      "inputs": [
        {
          "name": "",
          "type": "address"
        }
      ],
      "name": "farmAddresses",
      "outputs": [
        {
          "name": "",
          "type": "bool"
        }
      ],
      "payable": false,
      "stateMutability": "view",
      "type": "function"
    },
    {
      "constant": false,
      "inputs": [
        {
          "name": "sender",
          "type": "address"
        },
        {
          "name": "recipient",
          "type": "address"
        },
        {
          "name": "amount",
          "type": "uint256"
        }
      ],
      "name": "transferFrom",
      "outputs": [
        {
          "name": "",
          "type": "bool"
        }
      ],
      "payable": false,
      "stateMutability": "nonpayable",
      "type": "function"
    },
    {
      "constant": true,
      "inputs": [],
      "name": "decimals",
      "outputs": [
        {
          "name": "",
          "type": "uint8"
        }
      ],
      "payable": false,
      "stateMutability": "view",
      "type": "function"
    },
    {
      "constant": false,
      "inputs": [
        {
          "name": "spender",
          "type": "address"
        },
        {
          "name": "addedValue",
          "type": "uint256"
        }
      ],
      "name": "increaseAllowance",
      "outputs": [
        {
          "name": "",
          "type": "bool"
        }
      ],
      "payable": false,
      "stateMutability": "nonpayable",
      "type": "function"
    },
    {
      "constant": false,
      "inputs": [
        {
          "name": "_receiver",
          "type": "address"
        }
      ],
      "name": "releaseTeamAllocation",
      "outputs": [],
      "payable": false,
      "stateMutability": "nonpayable",
      "type": "function"
    },
    {
      "constant": true,
      "inputs": [],
      "name": "isFarmContract",
      "outputs": [
        {
          "name": "",
          "type": "bool"
        }
      ],
      "payable": false,
      "stateMutability": "view",
      "type": "function"
    },
    {
      "constant": false,
      "inputs": [
        {
          "name": "_farmAddress",
          "type": "address"
        },
        {
          "name": "_amount",
          "type": "uint256"
        }
      ],
      "name": "releaseFarmAllocation",
      "outputs": [],
      "payable": false,
      "stateMutability": "nonpayable",
      "type": "function"
    },
    {
      "constant": false,
      "inputs": [
        {
          "name": "_farmAddress",
          "type": "address"
        },
        {
          "name": "_status",
          "type": "bool"
        }
      ],
      "name": "setFarmAddress",
      "outputs": [],
      "payable": false,
      "stateMutability": "nonpayable",
      "type": "function"
    },
    {
      "constant": false,
      "inputs": [
        {
          "name": "_receiver",
          "type": "address"
        }
      ],
      "name": "releasePrivateSaleAllocation",
      "outputs": [],
      "payable": false,
      "stateMutability": "nonpayable",
      "type": "function"
    },
    {
      "constant": false,
      "inputs": [
        {
          "name": "_receiver",
          "type": "address"
        }
      ],
      "name": "releaseAdviserAllocation",
      "outputs": [],
      "payable": false,
      "stateMutability": "nonpayable",
      "type": "function"
    },
    {
      "constant": true,
      "inputs": [
        {
          "name": "account",
          "type": "address"
        }
      ],
      "name": "balanceOf",
      "outputs": [
        {
          "name": "",
          "type": "uint256"
        }
      ],
      "payable": false,
      "stateMutability": "view",
      "type": "function"
    },
    {
      "constant": true,
      "inputs": [],
      "name": "owner",
      "outputs": [
        {
          "name": "",
          "type": "address"
        }
      ],
      "payable": false,
      "stateMutability": "view",
      "type": "function"
    },
    {
      "constant": true,
      "inputs": [],
      "name": "symbol",
      "outputs": [
        {
          "name": "",
          "type": "string"
        }
      ],
      "payable": false,
      "stateMutability": "view",
      "type": "function"
    },
    {
      "constant": false,
      "inputs": [
        {
          "name": "spender",
          "type": "address"
        },
        {
          "name": "subtractedValue",
          "type": "uint256"
        }
      ],
      "name": "decreaseAllowance",
      "outputs": [
        {
          "name": "",
          "type": "bool"
        }
      ],
      "payable": false,
      "stateMutability": "nonpayable",
      "type": "function"
    },
    {
      "constant": false,
      "inputs": [
        {
          "name": "recipient",
          "type": "address"
        },
        {
          "name": "amount",
          "type": "uint256"
        }
      ],
      "name": "transfer",
      "outputs": [
        {
          "name": "",
          "type": "bool"
        }
      ],
      "payable": false,
      "stateMutability": "nonpayable",
      "type": "function"
    },
    {
      "constant": false,
      "inputs": [
        {
          "name": "_receiver",
          "type": "address"
        }
      ],
      "name": "releaseCommunityAllocation",
      "outputs": [],
      "payable": false,
      "stateMutability": "nonpayable",
      "type": "function"
    },
    {
      "constant": false,
      "inputs": [
        {
          "name": "_receiver",
          "type": "address"
        }
      ],
      "name": "releaseMarketingAllocation",
      "outputs": [],
      "payable": false,
      "stateMutability": "nonpayable",
      "type": "function"
    },
    {
      "constant": true,
      "inputs": [
        {
          "name": "owner",
          "type": "address"
        },
        {
          "name": "spender",
          "type": "address"
        }
      ],
      "name": "allowance",
      "outputs": [
        {
          "name": "",
          "type": "uint256"
        }
      ],
      "payable": false,
      "stateMutability": "view",
      "type": "function"
    },
    {
      "constant": false,
      "inputs": [
        {
          "name": "newOwner",
          "type": "address"
        }
      ],
      "name": "transferOwnership",
      "outputs": [],
      "payable": false,
      "stateMutability": "nonpayable",
      "type": "function"
    },
    {
      "inputs": [
        {
          "name": "_marketingTGEAddress",
          "type": "address"
        },
        {
          "name": "_privateSaleTGEAddress",
          "type": "address"
        },
        {
          "name": "_publicSaleTGEAddress",
          "type": "address"
        }
      ],
      "payable": false,
      "stateMutability": "nonpayable",
      "type": "constructor"
    },
    {
      "anonymous": false,
      "inputs": [
        {
          "indexed": true,
          "name": "previousOwner",
          "type": "address"
        },
        {
          "indexed": true,
          "name": "newOwner",
          "type": "address"
        }
      ],
      "name": "OwnershipTransferred",
      "type": "event"
    },
    {
      "anonymous": false,
      "inputs": [
        {
          "indexed": true,
          "name": "from",
          "type": "address"
        },
        {
          "indexed": true,
          "name": "to",
          "type": "address"
        },
        {
          "indexed": false,
          "name": "value",
          "type": "uint256"
        }
      ],
      "name": "Transfer",
      "type": "event"
    },
    {
      "anonymous": false,
      "inputs": [
        {
          "indexed": true,
          "name": "owner",
          "type": "address"
        },
        {
          "indexed": true,
          "name": "spender",
          "type": "address"
        },
        {
          "indexed": false,
          "name": "value",
          "type": "uint256"
        }
      ],
      "name": "Approval",
      "type": "event"
    }
  ],
  "bytecode": {
    "object": "60806040526000600781905560088190556009819055691a784379d99db4200000600a556a01a784379d99db42000000600b55600c5562278d004201600d819055600e819055600f81905560108190556011553480156200005f57600080fd5b5060405160608062001e17833981018060405260608110156200008157600080fd5b50805160208083015160409384015184518086018652600d81527f476f75726d657447616c61787900000000000000000000000000000000000000818501908152865180880190975260038088527f47554d00000000000000000000000000000000000000000000000000000000009588019590955281519596939592949193926a108b2a2c280290940000009230926200011c9262000520565b5082516200013290600490602086019062000520565b506005805460ff1916601217905560028290556001600160a01b0381166000818152602081815260408083208690558051868152905160008051602062001dd2833981519152929181900390910190a3505050506000620001986200023e60201b60201c565b60058054610100600160a81b0319166101006001600160a01b03841690810291909117909155604051919250906000907f8be0079c531659141344cd1fd0a4f28419497f9722a3daafe3b4186f6b6457e0908290a350620002033084600a546200024360201b60201c565b620002183083600b546200024360201b60201c565b6200023530826969e10de76676d08000006200024360201b60201c565b505050620005c2565b335b90565b6001600160a01b038316620002a4576040517f08c379a000000000000000000000000000000000000000000000000000000000815260040180806020018281038252602581526020018062001df26025913960400191505060405180910390fd5b6001600160a01b03821662000305576040517f08c379a000000000000000000000000000000000000000000000000000000000815260040180806020018281038252602381526020018062001d896023913960400191505060405180910390fd5b62000318838383620003ea60201b60201c565b620003638160405180606001604052806026815260200162001dac602691396001600160a01b03861660009081526020818152604090912054929190620013f9620003ef821b17901c565b6001600160a01b038085166000908152602081815260408083209490945591851681529190912054620003a191839062001493620004a4821b17901c565b6001600160a01b0380841660008181526020818152604091829020949094558051858152905191939287169260008051602062001dd283398151915292918290030190a3505050565b505050565b600081848411156200049c576040517f08c379a00000000000000000000000000000000000000000000000000000000081526004018080602001828103825283818151815260200191508051906020019080838360005b838110156200046057818101518382015260200162000446565b50505050905090810190601f1680156200048e5780820380516001836020036101000a031916815260200191505b509250505060405180910390fd5b505050900390565b6000828201838110156200051957604080517f08c379a000000000000000000000000000000000000000000000000000000000815260206004820152601b60248201527f536166654d6174683a206164646974696f6e206f766572666c6f770000000000604482015290519081900360640190fd5b9392505050565b828054600181600116156101000203166002900490600052602060002090601f016020900481019282601f106200056357805160ff191683800117855562000593565b8280016001018555821562000593579182015b828111156200059357825182559160200191906001019062000576565b50620005a1929150620005a5565b5090565b6200024091905b80821115620005a15760008155600101620005ac565b6117b780620005d26000396000f3fe608060405234801561001057600080fd5b50600436106101425760003560e01c806366ca7abb116100b8578063a457c2d71161007c578063a457c2d7146103ec578063a9059cbb14610418578063be3fb82014610444578063c12e580a1461046a578063dd62ed3e14610490578063f2fde38b146104be57610142565b806366ca7abb1461034e57806367deb5251461037457806370a082311461039a5780638da5cb5b146103c057806395d89b41146103e457610142565b8063313ce5671161010a578063313ce5671461027a57806339509351146102985780633d66d7d8146102c45780634fa24985146102ec578063568749ea146102f4578063660b1e7f1461032057610142565b806306fdde0314610147578063095ea7b3146101c457806318160ddd146102045780632137037a1461021e57806323b872dd14610244575b600080fd5b61014f6104e4565b6040805160208082528351818301528351919283929083019185019080838360005b83811015610189578181015183820152602001610171565b50505050905090810190601f1680156101b65780820380516001836020036101000a031916815260200191505b509250505060405180910390f35b6101f0600480360360408110156101da57600080fd5b506001600160a01b03813516906020013561057a565b604080519115158252519081900360200190f35b61020c610597565b60408051918252519081900360200190f35b6101f06004803603602081101561023457600080fd5b50356001600160a01b031661059d565b6101f06004803603606081101561025a57600080fd5b506001600160a01b038135811691602081013590911690604001356105b2565b61028261063f565b6040805160ff9092168252519081900360200190f35b6101f0600480360360408110156102ae57600080fd5b506001600160a01b038135169060200135610648565b6102ea600480360360208110156102da57600080fd5b50356001600160a01b031661069c565b005b6101f061080c565b6102ea6004803603604081101561030a57600080fd5b506001600160a01b03813516906020013561083c565b6102ea6004803603604081101561033657600080fd5b506001600160a01b0381351690602001351515610915565b6102ea6004803603602081101561036457600080fd5b50356001600160a01b03166109e8565b6102ea6004803603602081101561038a57600080fd5b50356001600160a01b0316610b42565b61020c600480360360208110156103b057600080fd5b50356001600160a01b0316610c9b565b6103c8610cb6565b604080516001600160a01b039092168252519081900360200190f35b61014f610cca565b6101f06004803603604081101561040257600080fd5b506001600160a01b038135169060200135610d2b565b6101f06004803603604081101561042e57600080fd5b506001600160a01b038135169060200135610d99565b6102ea6004803603602081101561045a57600080fd5b50356001600160a01b0316610dad565b6102ea6004803603602081101561048057600080fd5b50356001600160a01b0316610f03565b61020c600480360360408110156104a657600080fd5b506001600160a01b038135811691602001351661105c565b6102ea600480360360208110156104d457600080fd5b50356001600160a01b0316611087565b60038054604080516020601f60026000196101006001881615020190951694909404938401819004810282018101909252828152606093909290918301828280156105705780601f1061054557610100808354040283529160200191610570565b820191906000526020600020905b81548152906001019060200180831161055357829003601f168201915b5050505050905090565b600061058e610587611196565b848461119a565b50600192915050565b60025490565b60066020526000908152604090205460ff1681565b60006105bf84848461128c565b610635846105cb611196565b610630856040518060600160405280602881526020016115dc602891396001600160a01b038a16600090815260016020526040812090610609611196565b6001600160a01b03168152602081019190915260400160002054919063ffffffff6113f916565b61119a565b5060019392505050565b60055460ff1690565b600061058e610655611196565b846106308560016000610666611196565b6001600160a01b03908116825260208083019390935260409182016000908120918c16815292529020549063ffffffff61149316565b6106a4611196565b60055461010090046001600160a01b039081169116146106fc5760408051600160e51b62461bcd0281526020600482018190526024820152600080516020611604833981519152604482015290519081900360640190fd5b600c546a027b46536c66c8e30000009061072690691fc3842bd1f071c0000063ffffffff61149316565b111561077c5760408051600160e51b62461bcd02815260206004820152601f60248201527f4d6178207465616d20616c6c6f636174696f6e2072656c656173656421212100604482015290519081900360640190fd5b62278d00601154420310156107c95760408051600160e51b62461bcd02815260206004820152601f60248201526000805160206116d9833981519152604482015290519081900360640190fd5b6107de3082691fc3842bd1f071c0000061128c565b600c546107fb90691fc3842bd1f071c0000063ffffffff61149316565b600c55506011805462278d00019055565b60006006600061081a611196565b6001600160a01b0316815260208101919091526040016000205460ff16905090565b6108446114f7565b80610852575061085261080c565b61089057604051600160e51b62461bcd0281526004018080602001828103825260288152602001806117646028913960400191505060405180910390fd5b6009546a083afe94b010a2cec00000906108b0908363ffffffff61149316565b11156108f057604051600160e51b62461bcd0281526004018080602001828103825260228152602001806116f96022913960400191505060405180910390fd5b6108fb30838361128c565b60095461090e908263ffffffff61149316565b6009555050565b61091d611196565b60055461010090046001600160a01b039081169116146109755760408051600160e51b62461bcd0281526020600482018190526024820152600080516020611604833981519152604482015290519081900360640190fd5b6001600160a01b0382166109bd57604051600160e51b62461bcd02815260040180806020018281038252602981526020018061158d6029913960400191505060405180910390fd5b6001600160a01b03919091166000908152600660205260409020805460ff1916911515919091179055565b6109f0611196565b60055461010090046001600160a01b03908116911614610a485760408051600160e51b62461bcd0281526020600482018190526024820152600080516020611604833981519152604482015290519081900360640190fd5b600b546a0422ca8b0a00a42500000090610a729069d3c21bcecceda100000063ffffffff61149316565b1115610ab257604051600160e51b62461bcd02815260040180806020018281038252602681526020018061168f6026913960400191505060405180910390fd5b6276a70060105442031015610aff5760408051600160e51b62461bcd02815260206004820152601f60248201526000805160206116d9833981519152604482015290519081900360640190fd5b610b14308269d3c21bcecceda100000061128c565b600b54610b319069d3c21bcecceda100000063ffffffff61149316565b600b5550601080546276a700019055565b610b4a611196565b60055461010090046001600160a01b03908116911614610ba25760408051600160e51b62461bcd0281526020600482018190526024820152600080516020611604833981519152604482015290519081900360640190fd5b60085469d3c21bcecceda100000090610bcb90690a968163f0a57b40000063ffffffff61149316565b1115610c0b57604051600160e51b62461bcd0281526004018080602001828103825260228152602001806116486022913960400191505060405180910390fd5b62278d00600e5442031015610c585760408051600160e51b62461bcd02815260206004820152601f60248201526000805160206116d9833981519152604482015290519081900360640190fd5b610c6d3082690a968163f0a57b40000061128c565b600854610c8a90690a968163f0a57b40000063ffffffff61149316565b60085550600e805462278d00019055565b6001600160a01b031660009081526020819052604090205490565b60055461010090046001600160a01b031690565b60048054604080516020601f60026000196101006001881615020190951694909404938401819004810282018101909252828152606093909290918301828280156105705780601f1061054557610100808354040283529160200191610570565b600061058e610d38611196565b846106308560405180606001604052806025815260200161173f6025913960016000610d62611196565b6001600160a01b03908116825260208083019390935260409182016000908120918d1681529252902054919063ffffffff6113f916565b600061058e610da6611196565b848461128c565b610db5611196565b60055461010090046001600160a01b03908116911614610e0d5760408051600160e51b62461bcd0281526020600482018190526024820152600080516020611604833981519152604482015290519081900360640190fd5b600754690a968163f0a57b40000090610e359068878678326eac90000063ffffffff61149316565b1115610e7557604051600160e51b62461bcd0281526004018080602001828103825260248152602001806116246024913960400191505060405180910390fd5b6276a700600d5442031015610ec25760408051600160e51b62461bcd02815260206004820152601f60248201526000805160206116d9833981519152604482015290519081900360640190fd5b610ed6308268878678326eac90000061128c565b600754610ef29068878678326eac90000063ffffffff61149316565b60075550600d80546276a700019055565b610f0b611196565b60055461010090046001600160a01b03908116911614610f635760408051600160e51b62461bcd0281526020600482018190526024820152600080516020611604833981519152604482015290519081900360640190fd5b600a546969e10de76676d080000090610f8c90691a784379d99db420000063ffffffff61149316565b1115610fcc57604051600160e51b62461bcd02815260040180806020018281038252602481526020018061171b6024913960400191505060405180910390fd5b6276a700600f54420310156110195760408051600160e51b62461bcd02815260206004820152601f60248201526000805160206116d9833981519152604482015290519081900360640190fd5b61102e3082691a784379d99db420000061128c565b600a5461104b90691a784379d99db420000063ffffffff61149316565b600a5550600f80546276a700019055565b6001600160a01b03918216600090815260016020908152604080832093909416825291909152205490565b61108f611196565b60055461010090046001600160a01b039081169116146110e75760408051600160e51b62461bcd0281526020600482018190526024820152600080516020611604833981519152604482015290519081900360640190fd5b6001600160a01b03811661112f57604051600160e51b62461bcd0281526004018080602001828103825260268152602001806115456026913960400191505060405180910390fd5b6005546040516001600160a01b0380841692610100900416907f8be0079c531659141344cd1fd0a4f28419497f9722a3daafe3b4186f6b6457e090600090a3600580546001600160a01b0390921661010002610100600160a81b0319909216919091179055565b3390565b6001600160a01b0383166111e257604051600160e51b62461bcd0281526004018080602001828103825260248152602001806116b56024913960400191505060405180910390fd5b6001600160a01b03821661122a57604051600160e51b62461bcd02815260040180806020018281038252602281526020018061156b6022913960400191505060405180910390fd5b6001600160a01b03808416600081815260016020908152604080832094871680845294825291829020859055815185815291517f8c5be1e5ebec7d5bd14f71427d1e84f3dd0314c0f7b2291e5b200ac8c7c3b9259281900390910190a3505050565b6001600160a01b0383166112d457604051600160e51b62461bcd02815260040180806020018281038252602581526020018061166a6025913960400191505060405180910390fd5b6001600160a01b03821661131c57604051600160e51b62461bcd0281526004018080602001828103825260238152602001806115226023913960400191505060405180910390fd5b61132783838361151c565b61136a816040518060600160405280602681526020016115b6602691396001600160a01b038616600090815260208190526040902054919063ffffffff6113f916565b6001600160a01b03808516600090815260208190526040808220939093559084168152205461139f908263ffffffff61149316565b6001600160a01b038084166000818152602081815260409182902094909455805185815290519193928716927fddf252ad1be2c89b69c2b068fc378daa952ba7f163c4a11628f55a4df523b3ef92918290030190a3505050565b6000818484111561148b57604051600160e51b62461bcd0281526004018080602001828103825283818151815260200191508051906020019080838360005b83811015611450578181015183820152602001611438565b50505050905090810190601f16801561147d5780820380516001836020036101000a031916815260200191505b509250505060405180910390fd5b505050900390565b6000828201838110156114f05760408051600160e51b62461bcd02815260206004820152601b60248201527f536166654d6174683a206164646974696f6e206f766572666c6f770000000000604482015290519081900360640190fd5b9392505050565b6000611501611196565b60055461010090046001600160a01b03908116911614905090565b50505056fe45524332303a207472616e7366657220746f20746865207a65726f20616464726573734f776e61626c653a206e6577206f776e657220697320746865207a65726f206164647265737345524332303a20617070726f766520746f20746865207a65726f20616464726573734f776e61626c653a206661726d206164647265737320697320746865207a65726f206164647265737345524332303a207472616e7366657220616d6f756e7420657863656564732062616c616e636545524332303a207472616e7366657220616d6f756e74206578636565647320616c6c6f77616e63654f776e61626c653a2063616c6c6572206973206e6f7420746865206f776e65724d617820636f6d6d756e69747920616c6c6f636174696f6e2072656c65617365642121214d6178206164766973657220616c6c6f636174696f6e2072656c656173656421212145524332303a207472616e736665722066726f6d20746865207a65726f20616464726573734d6178207072697661746553616c6520616c6c6f636174696f6e2072656c656173656421212145524332303a20617070726f76652066726f6d20746865207a65726f2061646472657373506c65617365207761697420746f206e65787420636865636b706f696e7421004d6178206661726d696e6720616c6c6f636174696f6e2072656c65617365642121214d6178206d61726b6574696e6720616c6c6f636174696f6e2072656c656173656421212145524332303a2064656372656173656420616c6c6f77616e63652062656c6f77207a65726f4f776e61626c653a2063616c6c6572206973206e6f7420746865206661726d206f72206f776e6572a165627a7a72305820d2b145ba083efc32de3ccbcbcd4f19fa567601e91daa520258558c56637bfb49002945524332303a207472616e7366657220746f20746865207a65726f206164647265737345524332303a207472616e7366657220616d6f756e7420657863656564732062616c616e6365ddf252ad1be2c89b69c2b068fc378daa952ba7f163c4a11628f55a4df523b3ef45524332303a207472616e736665722066726f6d20746865207a65726f2061646472657373"
  }
}