{"compiler":"v0.6.12+commit.27d51765","opcodeHash":"0x7da11a783009f54306e7ee261a5f8c9504fce3761f390a93db8c10afc366b613","metalessHash":"0x732fd04c3d0af26ea25606bad62ae380eac8efa6fcbb03624deb1cf8ccbf01d5","runtimeHash":"0xcb92da5eb982b2a45dd17187f04de12dc9931549963f8c9da2cb4504ab279a30","encodedMetadata":[{"ipfs":"/ipfs/QmRFo5GhzkY9xc5a3pkzz59AmbRvykDUvkBZ2ynNXELKDb","solc":"0.6.12"}],"abi":[{"inputs":[{"internalType":"contract IAddressProvider","name":"_addresses","type":"address"}],"stateMutability":"nonpayable","type":"constructor"},{"anonymous":false,"inputs":[{"indexed":false,"internalType":"uint256","name":"income","type":"uint256"},{"indexed":false,"internalType":"uint256","name":"releasedAt","type":"uint256"}],"name":"FeeReleased","type":"event"},{"anonymous":false,"inputs":[{"indexed":false,"internalType":"address","name":"account","type":"address"},{"indexed":false,"internalType":"uint256","name":"shares","type":"uint256"}],"name":"PayeeAdded","type":"event"},{"inputs":[],"name":"a","outputs":[{"internalType":"contract IAddressProvider","name":"","type":"address"}],"stateMutability":"view","type":"function"},{"inputs":[{"internalType":"address[]","name":"_payees","type":"address[]"},{"internalType":"uint256[]","name":"_shares","type":"uint256[]"}],"name":"changePayees","outputs":[],"stateMutability":"nonpayable","type":"function"},{"inputs":[],"name":"getPayees","outputs":[{"internalType":"address[]","name":"","type":"address[]"}],"stateMutability":"view","type":"function"},{"inputs":[],"name":"lastReleasedAt","outputs":[{"internalType":"uint256","name":"","type":"uint256"}],"stateMutability":"view","type":"function"},{"inputs":[{"internalType":"uint256","name":"","type":"uint256"}],"name":"payees","outputs":[{"internalType":"address","name":"","type":"address"}],"stateMutability":"view","type":"function"},{"inputs":[],"name":"release","outputs":[],"stateMutability":"nonpayable","type":"function"},{"inputs":[{"internalType":"address","name":"","type":"address"}],"name":"shares","outputs":[{"internalType":"uint256","name":"","type":"uint256"}],"stateMutability":"view","type":"function"},{"inputs":[],"name":"totalShares","outputs":[{"internalType":"uint256","name":"","type":"uint256"}],"stateMutability":"view","type":"function"}],"bytecode":{"object":"608060405234801561001057600080fd5b5060405161114338038061114383398101604081905261002f9161006c565b60016000556001600160a01b03811661004757600080fd5b600280546001600160a01b0319166001600160a01b039290921691909117905561009a565b60006020828403121561007d578081fd5b81516001600160a01b0381168114610093578182fd5b9392505050565b61109a806100a96000396000f3fe608060405234801561001057600080fd5b50600436106100885760003560e01c806363037b0c1161005b57806363037b0c146100dd57806386d1a69f146100f0578063acd7af01146100fa578063ce7c2ac21461010d57610088565b80630dbe671f1461008d57806327f38113146100ab5780633a98ef39146100c05780635ac0d9c0146100d5575b600080fd5b610095610120565b6040516100a29190610ce5565b60405180910390f35b6100b361012f565b6040516100a29190610d12565b6100c8610191565b6040516100a29190610ff1565b6100c8610197565b6100956100eb366004610ccd565b61019d565b6100f86101c4565b005b6100f8610108366004610bb6565b6103b2565b6100c861011b366004610b9a565b6107bc565b6002546001600160a01b031681565b6060600580548060200260200160405190810160405280929190818152602001828054801561018757602002820191906000526020600020905b81546001600160a01b03168152600190910190602001808311610169575b5050505050905090565b60035481565b60015481565b600581815481106101aa57fe5b6000918252602090912001546001600160a01b0316905081565b600260005414156101f05760405162461bcd60e51b81526004016101e790610fba565b60405180910390fd5b6002600081815590546040805163797a759360e11b815290516001600160a01b039092169163f2f4eb2691600480820192602092909190829003018186803b15801561023b57600080fd5b505afa15801561024f573d6000803e3d6000fd5b505050506040513d601f19601f820116820180604052508101906102739190610cb1565b6001600160a01b031663b718ee946040518163ffffffff1660e01b815260040160206040518083038186803b1580156102ab57600080fd5b505afa1580156102bf573d6000803e3d6000fd5b505050506040513d601f19601f820116820180604052508101906102e39190610c99565b9050600081116103055760405162461bcd60e51b81526004016101e790610e00565b6005546103245760405162461bcd60e51b81526004016101e790610f26565b4260015560005b60055481101561036e5760006005828154811061034457fe5b6000918252602090912001546001600160a01b0316905061036583826107ce565b5060010161032b565b507f7dc312aceee91c2783f79aeeb79290143bd651572571c998630aeedc85afabb3816001546040516103a2929190610ffa565b60405180910390a1506001600055565b600260009054906101000a90046001600160a01b03166001600160a01b031663f77c47916040518163ffffffff1660e01b815260040160206040518083038186803b15801561040057600080fd5b505afa158015610414573d6000803e3d6000fd5b505050506040513d601f19601f820116820180604052508101906104389190610cb1565b6001600160a01b03166391d14854600260009054906101000a90046001600160a01b03166001600160a01b031663f77c47916040518163ffffffff1660e01b815260040160206040518083038186803b15801561049457600080fd5b505afa1580156104a8573d6000803e3d6000fd5b505050506040513d601f19601f820116820180604052508101906104cc9190610cb1565b6001600160a01b031663ec87621c6040518163ffffffff1660e01b815260040160206040518083038186803b15801561050457600080fd5b505afa158015610518573d6000803e3d6000fd5b505050506040513d601f19601f8201168201806040525081019061053c9190610c99565b336040518363ffffffff1660e01b815260040161055a929190610d5f565b60206040518083038186803b15801561057257600080fd5b505afa158015610586573d6000803e3d6000fd5b505050506040513d601f19601f820116820180604052508101906105aa9190610c79565b6105c65760405162461bcd60e51b81526004016101e790610ec0565b80518251146105e75760405162461bcd60e51b81526004016101e790610f5d565b60008251116106085760405162461bcd60e51b81526004016101e790610e25565b6002546040805163797a759360e11b815290516000926001600160a01b03169163f2f4eb26916004808301926020929190829003018186803b15801561064d57600080fd5b505afa158015610661573d6000803e3d6000fd5b505050506040513d601f19601f820116820180604052508101906106859190610cb1565b6001600160a01b031663b718ee946040518163ffffffff1660e01b815260040160206040518083038186803b1580156106bd57600080fd5b505afa1580156106d1573d6000803e3d6000fd5b505050506040513d601f19601f820116820180604052508101906106f59190610c99565b9050600081118015610708575060055415155b15610715576107156101c4565b60005b60055481101561076057600460006005838154811061073357fe5b60009182526020808320909101546001600160a01b03168352820192909252604001812055600101610718565b5061076d60056000610af2565b600060038190555b83518110156107b6576107ae84828151811061078d57fe5b60200260200101518483815181106107a157fe5b60200260200101516108ed565b600101610775565b50505050565b60046020526000908152604090205481565b6003546001600160a01b0382166000908152600460205260408120549091610801916107fb908690610a11565b90610a54565b9050600260009054906101000a90046001600160a01b03166001600160a01b03166316d8a5a96040518163ffffffff1660e01b815260040160206040518083038186803b15801561085157600080fd5b505afa158015610865573d6000803e3d6000fd5b505050506040513d601f19601f820116820180604052508101906108899190610cb1565b6001600160a01b03166340c10f1983836040518363ffffffff1660e01b81526004016108b6929190610cf9565b600060405180830381600087803b1580156108d057600080fd5b505af11580156108e4573d6000803e3d6000fd5b50505050505050565b6001600160a01b0382166109135760405162461bcd60e51b81526004016101e790610eef565b600081116109335760405162461bcd60e51b81526004016101e790610f94565b6001600160a01b038216600090815260046020526040902054156109695760405162461bcd60e51b81526004016101e790610e48565b60058054600181019091557f036b6384b5eca791c62761152d0c79bb0604c104a5fb6f4eb0703f3154bb3db00180546001600160a01b0319166001600160a01b03841690811790915560009081526004602052604090208190556003546109d09082610a96565b6003556040517f40c340f65e17194d14ddddb073d3c9f888e3cb52b5aae0c6c7706b4fbc905fac90610a059084908490610cf9565b60405180910390a15050565b600082610a2057506000610a4e565b82820282848281610a2d57fe5b0414610a4b5760405162461bcd60e51b81526004016101e790610e7f565b90505b92915050565b6000610a4b83836040518060400160405280601a81526020017f536166654d6174683a206469766973696f6e206279207a65726f000000000000815250610abb565b600082820183811015610a4b5760405162461bcd60e51b81526004016101e790610dc9565b60008183610adc5760405162461bcd60e51b81526004016101e79190610d76565b506000838581610ae857fe5b0495945050505050565b5080546000825590600052602060002090810190610b109190610b13565b50565b5b80821115610b285760008155600101610b14565b5090565b600082601f830112610b3c578081fd5b8135610b4f610b4a8261102f565b611008565b818152915060208083019084810181840286018201871015610b7057600080fd5b60005b84811015610b8f57813584529282019290820190600101610b73565b505050505092915050565b600060208284031215610bab578081fd5b8135610a4b8161104f565b60008060408385031215610bc8578081fd5b823567ffffffffffffffff80821115610bdf578283fd5b818501915085601f830112610bf2578283fd5b8135610c00610b4a8261102f565b80828252602080830192508086018a828387028901011115610c20578788fd5b8796505b84871015610c4b578035610c378161104f565b845260019690960195928101928101610c24565b509096508701359350505080821115610c62578283fd5b50610c6f85828601610b2c565b9150509250929050565b600060208284031215610c8a578081fd5b81518015158114610a4b578182fd5b600060208284031215610caa578081fd5b5051919050565b600060208284031215610cc2578081fd5b8151610a4b8161104f565b600060208284031215610cde578081fd5b5035919050565b6001600160a01b0391909116815260200190565b6001600160a01b03929092168252602082015260400190565b6020808252825182820181905260009190848201906040850190845b81811015610d535783516001600160a01b031683529284019291840191600101610d2e565b50909695505050505050565b9182526001600160a01b0316602082015260400190565b6000602080835283518082850152825b81811015610da257858101830151858201604001528201610d86565b81811115610db35783604083870101525b50601f01601f1916929092016040019392505050565b6020808252601b908201527f536166654d6174683a206164646974696f6e206f766572666c6f770000000000604082015260600190565b6020808252600b908201526a0696e636f6d6520697320360ac1b604082015260600190565b6020808252600990820152684e6f2070617965657360b81b604082015260600190565b60208082526018908201527f706179656520616c726561647920686173207368617265730000000000000000604082015260600190565b60208082526021908201527f536166654d6174683a206d756c7469706c69636174696f6e206f766572666c6f6040820152607760f81b606082015260800190565b60208082526015908201527421b0b63632b91034b9903737ba1026b0b730b3b2b960591b604082015260600190565b60208082526019908201527f706179656520697320746865207a65726f206164647265737300000000000000604082015260600190565b60208082526019908201527f506179656573206e6f7420636f6e666967757265642079657400000000000000604082015260600190565b6020808252601c908201527f50617965657320616e6420736861726573206d69736d61746368656400000000604082015260600190565b6020808252600c908201526b07368617265732061726520360a41b604082015260600190565b6020808252601f908201527f5265656e7472616e637947756172643a207265656e7472616e742063616c6c00604082015260600190565b90815260200190565b918252602082015260400190565b60405181810167ffffffffffffffff8111828210171561102757600080fd5b604052919050565b600067ffffffffffffffff821115611045578081fd5b5060209081020190565b6001600160a01b0381168114610b1057600080fdfea2646970667358221220eaf19934c7ed27272fca5720187efd094b413a55200eabc9098de81cf7111c6b64736f6c634300060c0033"}}