{"compiler":"v0.6.12+commit.27d51765","opcodeHash":"0x1946060d3c1c34b660b0acd7cd7cabe0acd8f21133e8aad659a3a69687fe7ca6","metalessHash":"0xe6fa1e3c1930babfbfb4bc0e383e0379df14df503a3a4d70a93af8a047f5270b","runtimeHash":"0x874e293e32c8e13197e0674f5ae6494c96e22fdfb81f2e04775333dd459878af","encodedMetadata":[{"ipfs":"/ipfs/QmbWRpjzYRx2zCtGciVzvTVbBNBD6EsC4yaTrU1XFDNxKv","solc":"0.6.12"}],"abi":[{"inputs":[],"stateMutability":"nonpayable","type":"constructor"},{"anonymous":false,"inputs":[{"indexed":true,"internalType":"address","name":"owner","type":"address"},{"indexed":true,"internalType":"address","name":"spender","type":"address"},{"indexed":false,"internalType":"uint256","name":"value","type":"uint256"}],"name":"Approval","type":"event"},{"anonymous":false,"inputs":[{"indexed":true,"internalType":"address","name":"previousOwner","type":"address"},{"indexed":true,"internalType":"address","name":"newOwner","type":"address"}],"name":"OwnershipTransferred","type":"event"},{"anonymous":false,"inputs":[{"indexed":true,"internalType":"address","name":"from","type":"address"},{"indexed":true,"internalType":"address","name":"to","type":"address"},{"indexed":false,"internalType":"uint256","name":"value","type":"uint256"}],"name":"Transfer","type":"event"},{"inputs":[{"internalType":"address","name":"owner","type":"address"},{"internalType":"address","name":"spender","type":"address"}],"name":"allowance","outputs":[{"internalType":"uint256","name":"","type":"uint256"}],"stateMutability":"view","type":"function"},{"inputs":[{"internalType":"address","name":"spender","type":"address"},{"internalType":"uint256","name":"amount","type":"uint256"}],"name":"approve","outputs":[{"internalType":"bool","name":"","type":"bool"}],"stateMutability":"nonpayable","type":"function"},{"inputs":[{"internalType":"address","name":"account","type":"address"}],"name":"balanceOf","outputs":[{"internalType":"uint256","name":"","type":"uint256"}],"stateMutability":"view","type":"function"},{"inputs":[],"name":"decimals","outputs":[{"internalType":"uint8","name":"","type":"uint8"}],"stateMutability":"view","type":"function"},{"inputs":[{"internalType":"address","name":"spender","type":"address"},{"internalType":"uint256","name":"subtractedValue","type":"uint256"}],"name":"decreaseAllowance","outputs":[{"internalType":"bool","name":"","type":"bool"}],"stateMutability":"nonpayable","type":"function"},{"inputs":[{"internalType":"address","name":"account","type":"address"}],"name":"excludeAccount","outputs":[],"stateMutability":"nonpayable","type":"function"},{"inputs":[{"internalType":"address","name":"account","type":"address"}],"name":"includeAccount","outputs":[],"stateMutability":"nonpayable","type":"function"},{"inputs":[{"internalType":"address","name":"spender","type":"address"},{"internalType":"uint256","name":"addedValue","type":"uint256"}],"name":"increaseAllowance","outputs":[{"internalType":"bool","name":"","type":"bool"}],"stateMutability":"nonpayable","type":"function"},{"inputs":[{"internalType":"address","name":"account","type":"address"}],"name":"isExcluded","outputs":[{"internalType":"bool","name":"","type":"bool"}],"stateMutability":"view","type":"function"},{"inputs":[],"name":"name","outputs":[{"internalType":"string","name":"","type":"string"}],"stateMutability":"view","type":"function"},{"inputs":[],"name":"owner","outputs":[{"internalType":"address","name":"","type":"address"}],"stateMutability":"view","type":"function"},{"inputs":[{"internalType":"uint256","name":"tAmount","type":"uint256"}],"name":"reflect","outputs":[],"stateMutability":"nonpayable","type":"function"},{"inputs":[{"internalType":"uint256","name":"tAmount","type":"uint256"},{"internalType":"bool","name":"deductTransferFee","type":"bool"}],"name":"reflectionFromToken","outputs":[{"internalType":"uint256","name":"","type":"uint256"}],"stateMutability":"view","type":"function"},{"inputs":[{"internalType":"address","name":"account","type":"address"}],"name":"removeAccountWhitelist","outputs":[],"stateMutability":"nonpayable","type":"function"},{"inputs":[],"name":"renounceOwnership","outputs":[],"stateMutability":"nonpayable","type":"function"},{"inputs":[],"name":"symbol","outputs":[{"internalType":"string","name":"","type":"string"}],"stateMutability":"view","type":"function"},{"inputs":[{"internalType":"uint256","name":"rAmount","type":"uint256"}],"name":"tokenFromReflection","outputs":[{"internalType":"uint256","name":"","type":"uint256"}],"stateMutability":"view","type":"function"},{"inputs":[],"name":"totalFees","outputs":[{"internalType":"uint256","name":"","type":"uint256"}],"stateMutability":"view","type":"function"},{"inputs":[],"name":"totalSupply","outputs":[{"internalType":"uint256","name":"","type":"uint256"}],"stateMutability":"view","type":"function"},{"inputs":[{"internalType":"address","name":"recipient","type":"address"},{"internalType":"uint256","name":"amount","type":"uint256"}],"name":"transfer","outputs":[{"internalType":"bool","name":"","type":"bool"}],"stateMutability":"nonpayable","type":"function"},{"inputs":[{"internalType":"address","name":"sender","type":"address"},{"internalType":"address","name":"recipient","type":"address"},{"internalType":"uint256","name":"amount","type":"uint256"}],"name":"transferFrom","outputs":[{"internalType":"bool","name":"","type":"bool"}],"stateMutability":"nonpayable","type":"function"},{"inputs":[{"internalType":"address","name":"newOwner","type":"address"}],"name":"transferOwnership","outputs":[],"stateMutability":"nonpayable","type":"function"},{"inputs":[{"internalType":"address","name":"account","type":"address"}],"name":"whitelistAccount","outputs":[],"stateMutability":"nonpayable","type":"function"}],"bytecode":{"object":"6818ce40f6d0219fffff19600755600980546001600160a01b031990811661dead17909155600a8054909116732e5cb9ce828323d2289517a095ea2ad0266be38e17905560c0604052600c60808190526b2727a327a6a7902a37b5b2b760a11b60a09081526200007391600b9190620001a8565b50604080518082019091526006808252654e4f464f4d4f60d01b6020909201918252620000a391600c91620001a8565b50600d805460ff19166009179055348015620000be57600080fd5b506000620000cb620001a4565b600080546001600160a01b0319166001600160a01b0383169081178255604051929350917f8be0079c531659141344cd1fd0a4f28419497f9722a3daafe3b4186f6b6457e0908290a3506007546001600062000126620001a4565b6001600160a01b031681526020810191909152604001600020556200014a620001a4565b6001600160a01b031660006001600160a01b03167fddf252ad1be2c89b69c2b068fc378daa952ba7f163c4a11628f55a4df523b3ef683635c9adc5dea000006040518082815260200191505060405180910390a362000244565b3390565b828054600181600116156101000203166002900490600052602060002090601f016020900481019282601f10620001eb57805160ff19168380011785556200021b565b828001600101855582156200021b579182015b828111156200021b578251825591602001919060010190620001fe565b50620002299291506200022d565b5090565b5b808211156200022957600081556001016200022e565b611e4980620002546000396000f3fe608060405234801561001057600080fd5b506004361061014d5760003560e01c806363e0c2f8116100c3578063a9059cbb1161007c578063a9059cbb146103e4578063cba0e99614610410578063dd62ed3e14610436578063f2cc0c1814610464578063f2fde38b1461048a578063f84354f1146104b05761014d565b806363e0c2f81461033857806370a082311461035e578063715018a6146103845780638da5cb5b1461038c57806395d89b41146103b0578063a457c2d7146103b85761014d565b806323b872dd1161011557806323b872dd146102505780632d83811914610286578063313ce567146102a357806339509351146102c15780634549b039146102ed5780635b23d75e146103125761014d565b8063053ab1821461015257806306fdde0314610171578063095ea7b3146101ee57806313114a9d1461022e57806318160ddd14610248575b600080fd5b61016f6004803603602081101561016857600080fd5b50356104d6565b005b6101796105b3565b6040805160208082528351818301528351919283929083019185019080838360005b838110156101b357818101518382015260200161019b565b50505050905090810190601f1680156101e05780820380516001836020036101000a031916815260200191505b509250505060405180910390f35b61021a6004803603604081101561020457600080fd5b506001600160a01b038135169060200135610649565b604080519115158252519081900360200190f35b610236610667565b60408051918252519081900360200190f35b61023661066d565b61021a6004803603606081101561026657600080fd5b506001600160a01b0381358116916020810135909116906040013561067a565b6102366004803603602081101561029c57600080fd5b5035610701565b6102ab610763565b6040805160ff9092168252519081900360200190f35b61021a600480360360408110156102d757600080fd5b506001600160a01b03813516906020013561076c565b6102366004803603604081101561030357600080fd5b508035906020013515156107ba565b61016f6004803603602081101561032857600080fd5b50356001600160a01b0316610857565b61016f6004803603602081101561034e57600080fd5b50356001600160a01b031661093d565b6102366004803603602081101561037457600080fd5b50356001600160a01b0316610a27565b61016f610a89565b610394610b2b565b604080516001600160a01b039092168252519081900360200190f35b610179610b3a565b61021a600480360360408110156103ce57600080fd5b506001600160a01b038135169060200135610b9b565b61021a600480360360408110156103fa57600080fd5b506001600160a01b038135169060200135610c03565b61021a6004803603602081101561042657600080fd5b50356001600160a01b0316610c17565b6102366004803603604081101561044c57600080fd5b506001600160a01b0381358116916020013516610c35565b61016f6004803603602081101561047a57600080fd5b50356001600160a01b0316610c60565b61016f600480360360208110156104a057600080fd5b50356001600160a01b0316610de6565b61016f600480360360208110156104c657600080fd5b50356001600160a01b0316610ede565b60006104e061109f565b6001600160a01b03811660009081526004602052604090205490915060ff161561053b5760405162461bcd60e51b815260040180806020018281038252602c815260200180611dc3602c913960400191505060405180910390fd5b600061054f6105486110a3565b84906110c6565b6001600160a01b0383166000908152600160205260409020549091506105759082611126565b6001600160a01b03831660009081526001602052604090205560075461059b9082611126565b6007556008546105ab9084611168565b600855505050565b600b8054604080516020601f600260001961010060018816150201909516949094049384018190048102820181019092528281526060939092909183018282801561063f5780601f106106145761010080835404028352916020019161063f565b820191906000526020600020905b81548152906001019060200180831161062257829003601f168201915b5050505050905090565b600061065d61065661109f565b84846111c2565b5060015b92915050565b60085490565b683635c9adc5dea0000090565b60006106878484846112ae565b6106f78461069361109f565b6106f285604051806060016040528060288152602001611ce9602891396001600160a01b038a166000908152600360205260408120906106d161109f565b6001600160a01b0316815260208101919091526040016000205491906113b8565b6111c2565b5060019392505050565b60006007548211156107445760405162461bcd60e51b815260040180806020018281038252602a815260200180611c56602a913960400191505060405180910390fd5b600061074e6110a3565b905061075a838261144f565b9150505b919050565b600d5460ff1690565b600061065d61077961109f565b846106f2856003600061078a61109f565b6001600160a01b03908116825260208083019390935260409182016000908120918c168152925290205490611168565b6000683635c9adc5dea0000083111561081a576040805162461bcd60e51b815260206004820152601f60248201527f416d6f756e74206d757374206265206c657373207468616e20737570706c7900604482015290519081900360640190fd5b8161083c57600061083361082c6110a3565b85906110c6565b91506106619050565b600061084784611491565b5093965061066195505050505050565b61085f61109f565b6000546001600160a01b039081169116146108af576040805162461bcd60e51b81526020600482018190526024820152600080516020611d11833981519152604482015290519081900360640190fd5b6001600160a01b03811660009081526005602052604090205460ff1661091c576040805162461bcd60e51b815260206004820152601a60248201527f4163636f756e74206973206e6f742077686974656c6973746564000000000000604482015290519081900360640190fd5b6001600160a01b03166000908152600560205260409020805460ff19169055565b61094561109f565b6000546001600160a01b03908116911614610995576040805162461bcd60e51b81526020600482018190526024820152600080516020611d11833981519152604482015290519081900360640190fd5b6001600160a01b03811660009081526005602052604090205460ff1615610a03576040805162461bcd60e51b815260206004820152601e60248201527f4163636f756e7420697320616c72656164792077686974656c69737465640000604482015290519081900360640190fd5b6001600160a01b03166000908152600560205260409020805460ff19166001179055565b6001600160a01b03811660009081526004602052604081205460ff1615610a6757506001600160a01b03811660009081526002602052604090205461075e565b6001600160a01b03821660009081526001602052604090205461066190610701565b610a9161109f565b6000546001600160a01b03908116911614610ae1576040805162461bcd60e51b81526020600482018190526024820152600080516020611d11833981519152604482015290519081900360640190fd5b600080546040516001600160a01b03909116907f8be0079c531659141344cd1fd0a4f28419497f9722a3daafe3b4186f6b6457e0908390a3600080546001600160a01b0319169055565b6000546001600160a01b031690565b600c8054604080516020601f600260001961010060018816150201909516949094049384018190048102820181019092528281526060939092909183018282801561063f5780601f106106145761010080835404028352916020019161063f565b600061065d610ba861109f565b846106f285604051806060016040528060258152602001611def6025913960036000610bd261109f565b6001600160a01b03908116825260208083019390935260409182016000908120918d168152925290205491906113b8565b600061065d610c1061109f565b84846112ae565b6001600160a01b031660009081526004602052604090205460ff1690565b6001600160a01b03918216600090815260036020908152604080832093909416825291909152205490565b610c6861109f565b6000546001600160a01b03908116911614610cb8576040805162461bcd60e51b81526020600482018190526024820152600080516020611d11833981519152604482015290519081900360640190fd5b6001600160a01b03811660009081526004602052604090205460ff1615610d26576040805162461bcd60e51b815260206004820152601b60248201527f4163636f756e7420697320616c7265616479206578636c756465640000000000604482015290519081900360640190fd5b6001600160a01b03811660009081526001602052604090205415610d80576001600160a01b038116600090815260016020526040902054610d6690610701565b6001600160a01b0382166000908152600260205260409020555b6001600160a01b03166000818152600460205260408120805460ff191660019081179091556006805491820181559091527ff652222313e28459528d920b65115c16c04f3efc82aaedc97be59f3f377c0d3f0180546001600160a01b0319169091179055565b610dee61109f565b6000546001600160a01b03908116911614610e3e576040805162461bcd60e51b81526020600482018190526024820152600080516020611d11833981519152604482015290519081900360640190fd5b6001600160a01b038116610e835760405162461bcd60e51b8152600401808060200182810382526026815260200180611c806026913960400191505060405180910390fd5b600080546040516001600160a01b03808516939216917f8be0079c531659141344cd1fd0a4f28419497f9722a3daafe3b4186f6b6457e091a3600080546001600160a01b0319166001600160a01b0392909216919091179055565b610ee661109f565b6000546001600160a01b03908116911614610f36576040805162461bcd60e51b81526020600482018190526024820152600080516020611d11833981519152604482015290519081900360640190fd5b6001600160a01b03811660009081526004602052604090205460ff16610fa3576040805162461bcd60e51b815260206004820152601b60248201527f4163636f756e7420697320616c7265616479206578636c756465640000000000604482015290519081900360640190fd5b60005b60065481101561109b57816001600160a01b031660068281548110610fc757fe5b6000918252602090912001546001600160a01b0316141561109357600680546000198101908110610ff457fe5b600091825260209091200154600680546001600160a01b03909216918390811061101a57fe5b600091825260208083209190910180546001600160a01b0319166001600160a01b039485161790559184168152600282526040808220829055600490925220805460ff19169055600680548061106c57fe5b600082815260209020810160001990810180546001600160a01b031916905501905561109b565b600101610fa6565b5050565b3390565b60008060006110b06114d8565b90925090506110bf828261144f565b9250505090565b6000826110d557506000610661565b828202828482816110e257fe5b041461111f5760405162461bcd60e51b8152600401808060200182810382526021815260200180611cc86021913960400191505060405180910390fd5b9392505050565b600061111f83836040518060400160405280601e81526020017f536166654d6174683a207375627472616374696f6e206f766572666c6f7700008152506113b8565b60008282018381101561111f576040805162461bcd60e51b815260206004820152601b60248201527f536166654d6174683a206164646974696f6e206f766572666c6f770000000000604482015290519081900360640190fd5b6001600160a01b0383166112075760405162461bcd60e51b8152600401808060200182810382526024815260200180611d9f6024913960400191505060405180910390fd5b6001600160a01b03821661124c5760405162461bcd60e51b8152600401808060200182810382526022815260200180611ca66022913960400191505060405180910390fd5b6001600160a01b03808416600081815260036020908152604080832094871680845294825291829020859055815185815291517f8c5be1e5ebec7d5bd14f71427d1e84f3dd0314c0f7b2291e5b200ac8c7c3b9259281900390910190a3505050565b6001600160a01b0383166112f35760405162461bcd60e51b8152600401808060200182810382526025815260200180611d7a6025913960400191505060405180910390fd5b6001600160a01b0382166113385760405162461bcd60e51b8152600401808060200182810382526023815260200180611c336023913960400191505060405180910390fd5b600081116113775760405162461bcd60e51b8152600401808060200182810382526029815260200180611d316029913960400191505060405180910390fd5b6001600160a01b03831660009081526005602052604090205460ff16156113a8576113a3838383611657565b6113b3565b6113b38383836117ce565b505050565b600081848411156114475760405162461bcd60e51b81526004018080602001828103825283818151815260200191508051906020019080838360005b8381101561140c5781810151838201526020016113f4565b50505050905090810190601f1680156114395780820380516001836020036101000a031916815260200191505b509250505060405180910390fd5b505050900390565b600061111f83836040518060400160405280601a81526020017f536166654d6174683a206469766973696f6e206279207a65726f000000000000815250611980565b60008060008060008060006114a5886119e5565b9194509250905060006114b66110a3565b90506114c3898383611a35565b929c919b509950909750939550919350919050565b6007546000908190683635c9adc5dea00000825b6006548110156116175782600160006006848154811061150857fe5b60009182526020808320909101546001600160a01b03168352820192909252604001902054118061156d575081600260006006848154811061154657fe5b60009182526020808320909101546001600160a01b03168352820192909252604001902054115b1561158b57600754683635c9adc5dea0000094509450505050611653565b6115cb600160006006848154811061159f57fe5b60009182526020808320909101546001600160a01b031683528201929092526040019020548490611126565b925061160d60026000600684815481106115e157fe5b60009182526020808320909101546001600160a01b031683528201929092526040019020548390611126565b91506001016114ec565b5060075461162e90683635c9adc5dea0000061144f565b82101561164d57600754683635c9adc5dea00000935093505050611653565b90925090505b9091565b600061166b6116646110a3565b83906110c6565b6001600160a01b0385166000908152600160205260409020549091506116919082611126565b6001600160a01b0380861660009081526001602052604080822093909355908516815220546116c09082611168565b6001600160a01b0380851660009081526001602090815260408083209490945591871681526004909152205460ff1615611731576001600160a01b0384166000908152600260205260409020546117179083611126565b6001600160a01b0385166000908152600260205260409020555b6001600160a01b03831660009081526004602052604090205460ff161561178f576001600160a01b0383166000908152600260205260409020546117759083611168565b6001600160a01b0384166000908152600260205260409020555b826001600160a01b0316846001600160a01b0316600080516020611d5a833981519152846040518082815260200191505060405180910390a350505050565b60008060008060008060006117e288611491565b9650965096509650965096509650600460008b6001600160a01b03166001600160a01b0316815260200190815260200160002060009054906101000a900460ff1615611865576001600160a01b038a1660009081526002602052604090205461184b9089611126565b6001600160a01b038b166000908152600260205260409020555b6001600160a01b03891660009081526004602052604090205460ff16156118c3576001600160a01b0389166000908152600260205260409020546118a99084611168565b6001600160a01b038a166000908152600260205260409020555b6001600160a01b038a166000908152600160205260409020546118e69088611126565b6001600160a01b03808c1660009081526001602052604080822093909355908b16815220546119159087611168565b6001600160a01b038a1660009081526001602052604090205561193b8a86848785611a89565b886001600160a01b03168a6001600160a01b0316600080516020611d5a833981519152856040518082815260200191505060405180910390a350505050505050505050565b600081836119cf5760405162461bcd60e51b815260206004820181815283516024840152835190928392604490910191908501908083836000831561140c5781810151838201526020016113f4565b5060008385816119db57fe5b0495945050505050565b6000808080611a0060026119fa87606461144f565b906110c6565b90506000611a0e8280611168565b90506000611a2883611a2284818b82611126565b90611126565b9791965091945092505050565b600080808080611a4588876110c6565b90506000611a5388886110c6565b90506000611a618280611168565b90506000611a7583611a2284818882611126565b939750929550935091505093509350935093565b600754611a969085611126565b600755600854611aa69084611168565b6008556009546001600160a01b0316600090815260016020526040902054611ace9083611168565b600980546001600160a01b039081166000908152600160209081526040808320959095559254909116815260029091522054611b0a9082611168565b600980546001600160a01b03908116600090815260026020908152604091829020949094559154825185815292519082169391891692600080516020611d5a83398151915292908290030190a3600a546001600160a01b0316600090815260016020526040902054611b7c9084611168565b600a80546001600160a01b03908116600090815260016020908152604080832095909555925490911681526004909152205460ff1615611bf757600a546001600160a01b0316600090815260026020526040902054611bdb9084611168565b600a546001600160a01b03166000908152600260205260409020555b600a546040805185815290516001600160a01b0392831692881691600080516020611d5a833981519152919081900360200190a3505050505056fe45524332303a207472616e7366657220746f20746865207a65726f2061646472657373416d6f756e74206d757374206265206c657373207468616e20746f74616c207265666c656374696f6e734f776e61626c653a206e6577206f776e657220697320746865207a65726f206164647265737345524332303a20617070726f766520746f20746865207a65726f2061646472657373536166654d6174683a206d756c7469706c69636174696f6e206f766572666c6f7745524332303a207472616e7366657220616d6f756e74206578636565647320616c6c6f77616e63654f776e61626c653a2063616c6c6572206973206e6f7420746865206f776e65725472616e7366657220616d6f756e74206d7573742062652067726561746572207468616e207a65726fddf252ad1be2c89b69c2b068fc378daa952ba7f163c4a11628f55a4df523b3ef45524332303a207472616e736665722066726f6d20746865207a65726f206164647265737345524332303a20617070726f76652066726f6d20746865207a65726f20616464726573734578636c75646564206164647265737365732063616e6e6f742063616c6c20746869732066756e6374696f6e45524332303a2064656372656173656420616c6c6f77616e63652062656c6f77207a65726fa26469706673582212202f2ce9fd92ea00eef49a699ac36744f99794589ca9aa7830fa1e551386b9454264736f6c634300060c0033"}}