{
  "opcodeHash": "0x7dca9390158b25db6be50c7e5595432572762e357ba4fcc327a37b22b68d028f",
  "metalessHash": "0x2e2e5192ac64f978842773027cd0a5b9815a9dddfaa494b528652c46e626811b",
  "runtimeHash": "0x8501553a04f2ce0a3813620f2aeb1591371b7ef5aec346c2d45ca5ff0cde56df",
  "encodedMetadata": [
    {
      "ipfs": "/ipfs/QmR87NxZH9Lr7pGXPwQ79PuVbszTEa7poETdnjSEXcxTqP",
      "solc": "0.8.0"
    }
  ],
  "abi": [
    {
      "inputs": [
        {
          "internalType": "address",
          "name": "_token",
          "type": "address"
        }
      ],
      "stateMutability": "nonpayable",
      "type": "constructor"
    },
    {
      "anonymous": false,
      "inputs": [
        {
          "indexed": true,
          "internalType": "address",
          "name": "advisor",
          "type": "address"
        },
        {
          "indexed": true,
          "internalType": "address",
          "name": "caller",
          "type": "address"
        },
        {
          "indexed": false,
          "internalType": "uint256",
          "name": "allocation",
          "type": "uint256"
        }
      ],
      "name": "AdvisorAdded",
      "type": "event"
    },
    {
      "anonymous": false,
      "inputs": [
        {
          "indexed": true,
          "internalType": "address",
          "name": "advisor",
          "type": "address"
        },
        {
          "indexed": true,
          "internalType": "address",
          "name": "caller",
          "type": "address"
        },
        {
          "indexed": false,
          "internalType": "uint256",
          "name": "allocation",
          "type": "uint256"
        }
      ],
      "name": "AdvisorRemoved",
      "type": "event"
    },
    {
      "anonymous": false,
      "inputs": [
        {
          "indexed": false,
          "internalType": "address[]",
          "name": "advisors",
          "type": "address[]"
        },
        {
          "indexed": false,
          "internalType": "uint256[]",
          "name": "tokenAllocations",
          "type": "uint256[]"
        },
        {
          "indexed": false,
          "internalType": "address",
          "name": "caller",
          "type": "address"
        }
      ],
      "name": "AdvisorsAdded",
      "type": "event"
    },
    {
      "anonymous": false,
      "inputs": [
        {
          "indexed": true,
          "internalType": "address",
          "name": "advisor",
          "type": "address"
        },
        {
          "indexed": false,
          "internalType": "uint256",
          "name": "value",
          "type": "uint256"
        }
      ],
      "name": "DepositInvestment",
      "type": "event"
    },
    {
      "anonymous": false,
      "inputs": [
        {
          "indexed": true,
          "internalType": "address",
          "name": "previousOwner",
          "type": "address"
        },
        {
          "indexed": true,
          "internalType": "address",
          "name": "newOwner",
          "type": "address"
        }
      ],
      "name": "OwnershipTransferred",
      "type": "event"
    },
    {
      "anonymous": false,
      "inputs": [
        {
          "indexed": true,
          "internalType": "address",
          "name": "token",
          "type": "address"
        },
        {
          "indexed": true,
          "internalType": "uint256",
          "name": "amount",
          "type": "uint256"
        }
      ],
      "name": "RecoverToken",
      "type": "event"
    },
    {
      "anonymous": false,
      "inputs": [
        {
          "indexed": true,
          "internalType": "address",
          "name": "owner",
          "type": "address"
        },
        {
          "indexed": false,
          "internalType": "uint256",
          "name": "value",
          "type": "uint256"
        }
      ],
      "name": "TransferInvestment",
      "type": "event"
    },
    {
      "anonymous": false,
      "inputs": [
        {
          "indexed": true,
          "internalType": "address",
          "name": "advisor",
          "type": "address"
        },
        {
          "indexed": false,
          "internalType": "uint256",
          "name": "value",
          "type": "uint256"
        }
      ],
      "name": "WithdrawnTokens",
      "type": "event"
    },
    {
      "inputs": [
        {
          "internalType": "address[]",
          "name": "_advisors",
          "type": "address[]"
        },
        {
          "internalType": "uint256[]",
          "name": "_tokenAllocations",
          "type": "uint256[]"
        }
      ],
      "name": "addAdvisors",
      "outputs": [],
      "stateMutability": "nonpayable",
      "type": "function"
    },
    {
      "inputs": [
        {
          "internalType": "uint256",
          "name": "",
          "type": "uint256"
        }
      ],
      "name": "advisors",
      "outputs": [
        {
          "internalType": "address",
          "name": "",
          "type": "address"
        }
      ],
      "stateMutability": "view",
      "type": "function"
    },
    {
      "inputs": [
        {
          "internalType": "address",
          "name": "",
          "type": "address"
        }
      ],
      "name": "advisorsInfo",
      "outputs": [
        {
          "internalType": "bool",
          "name": "exists",
          "type": "bool"
        },
        {
          "internalType": "uint256",
          "name": "withdrawnTokens",
          "type": "uint256"
        },
        {
          "internalType": "uint256",
          "name": "tokensAllotment",
          "type": "uint256"
        }
      ],
      "stateMutability": "view",
      "type": "function"
    },
    {
      "inputs": [],
      "name": "getInitialTimestamp",
      "outputs": [
        {
          "internalType": "uint256",
          "name": "timestamp",
          "type": "uint256"
        }
      ],
      "stateMutability": "view",
      "type": "function"
    },
    {
      "inputs": [],
      "name": "isFinalized",
      "outputs": [
        {
          "internalType": "bool",
          "name": "",
          "type": "bool"
        }
      ],
      "stateMutability": "view",
      "type": "function"
    },
    {
      "inputs": [],
      "name": "isInitialized",
      "outputs": [
        {
          "internalType": "bool",
          "name": "",
          "type": "bool"
        }
      ],
      "stateMutability": "view",
      "type": "function"
    },
    {
      "inputs": [],
      "name": "owner",
      "outputs": [
        {
          "internalType": "address",
          "name": "",
          "type": "address"
        }
      ],
      "stateMutability": "view",
      "type": "function"
    },
    {
      "inputs": [
        {
          "internalType": "address",
          "name": "_token",
          "type": "address"
        },
        {
          "internalType": "uint256",
          "name": "amount",
          "type": "uint256"
        }
      ],
      "name": "recoverToken",
      "outputs": [],
      "stateMutability": "nonpayable",
      "type": "function"
    },
    {
      "inputs": [],
      "name": "releaseTokens",
      "outputs": [],
      "stateMutability": "nonpayable",
      "type": "function"
    },
    {
      "inputs": [],
      "name": "renounceOwnership",
      "outputs": [],
      "stateMutability": "nonpayable",
      "type": "function"
    },
    {
      "inputs": [
        {
          "internalType": "uint256",
          "name": "_timestamp",
          "type": "uint256"
        }
      ],
      "name": "setInitialTimestamp",
      "outputs": [],
      "stateMutability": "nonpayable",
      "type": "function"
    },
    {
      "inputs": [
        {
          "internalType": "address",
          "name": "newOwner",
          "type": "address"
        }
      ],
      "name": "transferOwnership",
      "outputs": [],
      "stateMutability": "nonpayable",
      "type": "function"
    },
    {
      "inputs": [],
      "name": "withdrawTokens",
      "outputs": [],
      "stateMutability": "nonpayable",
      "type": "function"
    },
    {
      "inputs": [
        {
          "internalType": "address",
          "name": "_advisor",
          "type": "address"
        }
      ],
      "name": "withdrawableTokens",
      "outputs": [
        {
          "internalType": "uint256",
          "name": "tokens",
          "type": "uint256"
        }
      ],
      "stateMutability": "view",
      "type": "function"
    }
  ],
  "bytecode": {
    "object": "60806040526006805461ffff1916905534801561001b57600080fd5b5060405161157c38038061157c83398101604081905261003a916100b7565b60006100446100b3565b600080546001600160a01b0319166001600160a01b0383169081178255604051929350917f8be0079c531659141344cd1fd0a4f28419497f9722a3daafe3b4186f6b6457e0908290a350600380546001600160a01b0319166001600160a01b03929092169190911790556100e5565b3390565b6000602082840312156100c8578081fd5b81516001600160a01b03811681146100de578182fd5b9392505050565b611488806100f46000396000f3fe608060405234801561001057600080fd5b50600436106100e95760003560e01c80638da5cb5b1161008c578063d42f5f3c11610066578063d42f5f3c14610191578063d8b30db9146101a4578063d982d137146101c6578063f2fde38b146101d9576100e9565b80638da5cb5b14610161578063a96f866814610176578063b29a81401461017e576100e9565b80634edcd374116100c85780634edcd37414610141578063715018a6146101495780638d4e4083146101515780638d8f2adb14610159576100e9565b80626f6ad0146100ee57806321f926db14610117578063392e53cd1461012c575b600080fd5b6101016100fc366004610e76565b6101ec565b60405161010e919061135a565b60405180910390f35b61012a610125366004610f42565b61025b565b005b6101346102d8565b60405161010e9190611032565b6101016102e1565b61012a6102e8565b610134610371565b61012a61037f565b6101696104c3565b60405161010e9190610f76565b61012a6104d2565b61012a61018c366004610e90565b610657565b61016961019f366004610f42565b6106ec565b6101b76101b2366004610e76565b610716565b60405161010e9392919061103d565b61012a6101d4366004610eb9565b61073b565b61012a6101e7366004610e76565b610860565b60065460009060ff1661020157506000610256565b6001600160a01b038216600090815260056020526040812090610222610920565b90506000610234836002015483610a16565b9050600061024f846001015483610a3890919063ffffffff16565b9450505050505b919050565b610263610a44565b6001600160a01b03166102746104c3565b6001600160a01b0316146102a35760405162461bcd60e51b815260040161029a90611246565b60405180910390fd5b60065460ff16156102c65760405162461bcd60e51b815260040161029a90611221565b6006805460ff19166001179055600255565b60065460ff1681565b6002545b90565b6102f0610a44565b6001600160a01b03166103016104c3565b6001600160a01b0316146103275760405162461bcd60e51b815260040161029a90611246565b600080546040516001600160a01b03909116907f8be0079c531659141344cd1fd0a4f28419497f9722a3daafe3b4186f6b6457e0908390a3600080546001600160a01b0319169055565b600654610100900460ff1681565b6005600061038b610a44565b6001600160a01b0316815260208101919091526040016000205460ff166103c45760405162461bcd60e51b815260040161029a906112b2565b60065460ff166103e65760405162461bcd60e51b815260040161029a906110e1565b6000600560006103f4610a44565b6001600160a01b03166001600160a01b03168152602001908152602001600020905060006104236100fc610a44565b9050600081116104455760405162461bcd60e51b815260040161029a906111e0565b60018201546104549082610a48565b6001830155610477610464610a44565b6003546001600160a01b03169083610a54565b61047f610a44565b6001600160a01b03167f373d92bf7d9cdd58a8c86db5461f3cdcd325b803fdbac8d1b224a0f5fce847b8826040516104b7919061135a565b60405180910390a25050565b6000546001600160a01b031690565b6104da610a44565b6001600160a01b03166104eb6104c3565b6001600160a01b0316146105115760405162461bcd60e51b815260040161029a90611246565b60065460ff166105335760405162461bcd60e51b815260040161029a906110e1565b60005b60045460ff821610156106545760006005600060048460ff168154811061056d57634e487b7160e01b600052603260045260246000fd5b60009182526020808320909101546001600160a01b031683528201929092526040018120600480549193506105d79160ff86169081106105bd57634e487b7160e01b600052603260045260246000fd5b6000918252602090912001546001600160a01b03166101ec565b9050801561063f5760018201546105ee9082610a48565b826001018190555061063f60048460ff168154811061061d57634e487b7160e01b600052603260045260246000fd5b6000918252602090912001546003546001600160a01b03908116911683610a54565b5050808061064c9061141c565b915050610536565b50565b61065f610a44565b6001600160a01b03166106706104c3565b6001600160a01b0316146106965760405162461bcd60e51b815260040161029a90611246565b6106b26106a1610a44565b6001600160a01b0384169083610a54565b60405181906001600160a01b038416907ffba2d3bdfb2d601eb66a89783a2c614856101cadce71556753c2edadd60c831c90600090a35050565b600481815481106106fc57600080fd5b6000918252602090912001546001600160a01b0316905081565b60056020526000908152604090208054600182015460029092015460ff909116919083565b610743610a44565b6001600160a01b03166107546104c3565b6001600160a01b03161461077a5760405162461bcd60e51b815260040161029a90611246565b8281146107995760405162461bcd60e51b815260040161029a90611088565b60005b8381101561081a576108088585838181106107c757634e487b7160e01b600052603260045260246000fd5b90506020020160208101906107dc9190610e76565b8484848181106107fc57634e487b7160e01b600052603260045260246000fd5b90506020020135610aaf565b8061081281611401565b91505061079c565b507ff5cd29f9cd7d47567d44ec70d91495564e6187ffa992349456e203fcdd2a494c8484848433604051610852959493929190610fa3565b60405180910390a150505050565b610868610a44565b6001600160a01b03166108796104c3565b6001600160a01b03161461089f5760405162461bcd60e51b815260040161029a90611246565b6001600160a01b0381166108c55760405162461bcd60e51b815260040161029a9061110a565b600080546040516001600160a01b03808516939216917f8be0079c531659141344cd1fd0a4f28419497f9722a3daafe3b4186f6b6457e091a3600080546001600160a01b0319166001600160a01b0392909216919091179055565b600080600254620151806109349190611363565b9050600060025463018b820061094a9190611363565b9050600061096d61012c610967605f670de0b6b3a7640000610c32565b90610c3e565b6002549091504290811115610a0f578381116109a1576109966005670de0b6b3a7640000610c32565b9450505050506102e5565b83811180156109af57508281105b156109fc5760006109c260025483610c4a565b905060006109d08285610c32565b90506109ef816109e96005670de0b6b3a7640000610c32565b90610a48565b96505050505050506102e5565b6109966064670de0b6b3a7640000610c32565b5050505090565b6000610a31670de0b6b3a76400006109676064818787610c32565b9392505050565b6000610a3182846113ba565b3390565b6000610a318284611363565b610aaa8363a9059cbb60e01b8484604051602401610a73929190610f8a565b60408051601f198184030181529190526020810180516001600160e01b03166001600160e01b031990931692909217909152610c71565b505050565b610ab7610a44565b6001600160a01b0316610ac86104c3565b6001600160a01b031614610aee5760405162461bcd60e51b815260040161029a90611246565b6001600160a01b038216610b145760405162461bcd60e51b815260040161029a906110b8565b60008111610b345760405162461bcd60e51b815260040161029a90611150565b6001600160a01b0382166000908152600560205260409020600281015415610b6e5760405162461bcd60e51b815260040161029a9061132b565b600281018290558054600160ff19909116811782556004805480830182556000919091527f8a35acfbc15ff81a39ae7d344fd709f28e8600b4aa8c65c6b64bfe7fe36bd19b0180546001600160a01b0319166001600160a01b03861617905554610bd89083610a48565b600155610be3610a44565b6001600160a01b0316836001600160a01b03167f8e1dd2697d8189f7fd80db3e16f7dee1633d6de020acfa6c28256a519503440e84604051610c25919061135a565b60405180910390a3505050565b6000610a31828461139b565b6000610a31828461137b565b600081831115610c5957600080fd5b62015180610c6784846113ba565b610a31919061137b565b6000610cc6826040518060400160405280602081526020017f5361666545524332303a206c6f772d6c6576656c2063616c6c206661696c6564815250856001600160a01b0316610d009092919063ffffffff16565b805190915015610aaa5780806020019051810190610ce49190610f22565b610aaa5760405162461bcd60e51b815260040161029a906112e1565b6060610d0f8484600085610d17565b949350505050565b606082471015610d395760405162461bcd60e51b815260040161029a9061119a565b610d4285610dd7565b610d5e5760405162461bcd60e51b815260040161029a9061127b565b600080866001600160a01b03168587604051610d7a9190610f5a565b60006040518083038185875af1925050503d8060008114610db7576040519150601f19603f3d011682016040523d82523d6000602084013e610dbc565b606091505b5091509150610dcc828286610ddd565b979650505050505050565b3b151590565b60608315610dec575081610a31565b825115610dfc5782518084602001fd5b8160405162461bcd60e51b815260040161029a9190611055565b80356001600160a01b038116811461025657600080fd5b60008083601f840112610e3e578182fd5b50813567ffffffffffffffff811115610e55578182fd5b6020830191508360208083028501011115610e6f57600080fd5b9250929050565b600060208284031215610e87578081fd5b610a3182610e16565b60008060408385031215610ea2578081fd5b610eab83610e16565b946020939093013593505050565b60008060008060408587031215610ece578182fd5b843567ffffffffffffffff80821115610ee5578384fd5b610ef188838901610e2d565b90965094506020870135915080821115610f09578384fd5b50610f1687828801610e2d565b95989497509550505050565b600060208284031215610f33578081fd5b81518015158114610a31578182fd5b600060208284031215610f53578081fd5b5035919050565b60008251610f6c8184602087016113d1565b9190910192915050565b6001600160a01b0391909116815260200190565b6001600160a01b03929092168252602082015260400190565b6060808252810185905260008660808301825b88811015610fe4576001600160a01b03610fcf84610e16565b16825260209283019290910190600101610fb6565b5083810360208501528581526001600160fb1b03861115611003578283fd5b60208602915081876020830137016020019081526001600160a01b039290921660409190910152949350505050565b901515815260200190565b92151583526020830191909152604082015260600190565b60006020825282518060208401526110748160408501602087016113d1565b601f01601f19169190910160400192915050565b602080825260169082015275646966666572656e74206172726179732073697a657360501b604082015260600190565b6020808252600f908201526e496e76616c6964206164647265737360881b604082015260600190565b6020808252600f908201526e1b9bdd081a5b9a5d1a585b1a5e9959608a1b604082015260600190565b60208082526026908201527f4f776e61626c653a206e6577206f776e657220697320746865207a65726f206160408201526564647265737360d01b606082015260800190565b6020808252602a908201527f7468652061647669736f7220616c6c6f636174696f6e206d757374206265206d60408201526906f7265207468616e20360b41b606082015260800190565b60208082526026908201527f416464726573733a20696e73756666696369656e742062616c616e636520666f6040820152651c8818d85b1b60d21b606082015260800190565b60208082526021908201527f6e6f20746f6b656e7320617661696c61626c6520666f722077697468647261776040820152601b60fa1b606082015260800190565b6020808252600b908201526a1a5b9a5d1a585b1a5e995960aa1b604082015260600190565b6020808252818101527f4f776e61626c653a2063616c6c6572206973206e6f7420746865206f776e6572604082015260600190565b6020808252601d908201527f416464726573733a2063616c6c20746f206e6f6e2d636f6e7472616374000000604082015260600190565b60208082526015908201527413db9b1e4818591d9a5cdbdc9cc8185b1b1bddd959605a1b604082015260600190565b6020808252602a908201527f5361666545524332303a204552433230206f7065726174696f6e20646964206e6040820152691bdd081cdd58d8d9595960b21b606082015260800190565b60208082526015908201527418591d9a5cdbdc88185b1c9958591e481859191959605a1b604082015260600190565b90815260200190565b600082198211156113765761137661143c565b500190565b60008261139657634e487b7160e01b81526012600452602481fd5b500490565b60008160001904831182151516156113b5576113b561143c565b500290565b6000828210156113cc576113cc61143c565b500390565b60005b838110156113ec5781810151838201526020016113d4565b838111156113fb576000848401525b50505050565b60006000198214156114155761141561143c565b5060010190565b600060ff821660ff8114156114335761143361143c565b60010192915050565b634e487b7160e01b600052601160045260246000fdfea2646970667358221220c6a9e67ef5618e4900649e7c5348a12c5eb720798ee2c2d34243f2f5f812ddac64736f6c63430008000033"
  }
}