{"compiler":"v0.6.12+commit.27d51765","opcodeHash":"0x700df4e988815956f8631069426e6c9b6a38f2d18ec647d86cf3e820361be860","metalessHash":"0xde00ba16678b9c19587789d5aa95945f8a488aa4c772be4d01ab048d7891481c","runtimeHash":"0x7caf781f33f73cb2886157c2fc9d3d65d140e594e01550347999a223287e590d","encodedMetadata":[{"ipfs":"/ipfs/QmQKukfYXxDCLhNY7buvpDCVpif4WmsDQSX4FL1RAQzK2c","solc":"0.6.12"}],"abi":[{"anonymous":false,"inputs":[{"indexed":true,"internalType":"address","name":"owner","type":"address"},{"indexed":true,"internalType":"address","name":"spender","type":"address"},{"indexed":false,"internalType":"uint256","name":"value","type":"uint256"}],"name":"Approval","type":"event"},{"anonymous":false,"inputs":[{"indexed":true,"internalType":"address","name":"delegator","type":"address"},{"indexed":true,"internalType":"address","name":"fromDelegate","type":"address"},{"indexed":true,"internalType":"address","name":"toDelegate","type":"address"}],"name":"DelegateChanged","type":"event"},{"anonymous":false,"inputs":[{"indexed":true,"internalType":"address","name":"delegate","type":"address"},{"indexed":false,"internalType":"uint256","name":"previousBalance","type":"uint256"},{"indexed":false,"internalType":"uint256","name":"newBalance","type":"uint256"}],"name":"DelegateVotesChanged","type":"event"},{"anonymous":false,"inputs":[{"indexed":true,"internalType":"address","name":"sender","type":"address"},{"indexed":true,"internalType":"uint256","name":"_amount","type":"uint256"}],"name":"MintEvent","type":"event"},{"anonymous":false,"inputs":[{"indexed":true,"internalType":"address","name":"previousOwner","type":"address"},{"indexed":true,"internalType":"address","name":"newOwner","type":"address"}],"name":"OwnershipTransferred","type":"event"},{"anonymous":false,"inputs":[{"indexed":true,"internalType":"address","name":"from","type":"address"},{"indexed":true,"internalType":"address","name":"to","type":"address"},{"indexed":false,"internalType":"uint256","name":"value","type":"uint256"}],"name":"Transfer","type":"event"},{"inputs":[],"name":"DELEGATION_TYPEHASH","outputs":[{"internalType":"bytes32","name":"","type":"bytes32"}],"stateMutability":"view","type":"function"},{"inputs":[],"name":"DOMAIN_TYPEHASH","outputs":[{"internalType":"bytes32","name":"","type":"bytes32"}],"stateMutability":"view","type":"function"},{"inputs":[{"internalType":"uint256","name":"_degree","type":"uint256"},{"internalType":"uint256","name":"_loyaltyChange","type":"uint256"}],"name":"adddegree","outputs":[],"stateMutability":"nonpayable","type":"function"},{"inputs":[{"internalType":"address","name":"owner","type":"address"},{"internalType":"address","name":"spender","type":"address"}],"name":"allowance","outputs":[{"internalType":"uint256","name":"","type":"uint256"}],"stateMutability":"view","type":"function"},{"inputs":[{"internalType":"address","name":"spender","type":"address"},{"internalType":"uint256","name":"amount","type":"uint256"}],"name":"approve","outputs":[{"internalType":"bool","name":"","type":"bool"}],"stateMutability":"nonpayable","type":"function"},{"inputs":[{"internalType":"address","name":"account","type":"address"}],"name":"balanceOf","outputs":[{"internalType":"uint256","name":"","type":"uint256"}],"stateMutability":"view","type":"function"},{"inputs":[],"name":"block_gap","outputs":[{"internalType":"uint256","name":"","type":"uint256"}],"stateMutability":"view","type":"function"},{"inputs":[{"internalType":"address","name":"","type":"address"},{"internalType":"uint32","name":"","type":"uint32"}],"name":"checkpoints","outputs":[{"internalType":"uint32","name":"fromBlock","type":"uint32"},{"internalType":"uint256","name":"votes","type":"uint256"}],"stateMutability":"view","type":"function"},{"inputs":[],"name":"decimals","outputs":[{"internalType":"uint8","name":"","type":"uint8"}],"stateMutability":"view","type":"function"},{"inputs":[{"internalType":"address","name":"spender","type":"address"},{"internalType":"uint256","name":"subtractedValue","type":"uint256"}],"name":"decreaseAllowance","outputs":[{"internalType":"bool","name":"","type":"bool"}],"stateMutability":"nonpayable","type":"function"},{"inputs":[{"internalType":"uint256","name":"","type":"uint256"}],"name":"degreeInfo","outputs":[{"internalType":"uint256","name":"degree","type":"uint256"},{"internalType":"uint256","name":"loyaltyChange","type":"uint256"}],"stateMutability":"view","type":"function"},{"inputs":[],"name":"degreeLength","outputs":[{"internalType":"uint256","name":"","type":"uint256"}],"stateMutability":"view","type":"function"},{"inputs":[{"internalType":"address","name":"delegatee","type":"address"}],"name":"delegate","outputs":[],"stateMutability":"nonpayable","type":"function"},{"inputs":[{"internalType":"address","name":"delegatee","type":"address"},{"internalType":"uint256","name":"nonce","type":"uint256"},{"internalType":"uint256","name":"expiry","type":"uint256"},{"internalType":"uint8","name":"v","type":"uint8"},{"internalType":"bytes32","name":"r","type":"bytes32"},{"internalType":"bytes32","name":"s","type":"bytes32"}],"name":"delegateBySig","outputs":[],"stateMutability":"nonpayable","type":"function"},{"inputs":[{"internalType":"address","name":"delegator","type":"address"}],"name":"delegates","outputs":[{"internalType":"address","name":"","type":"address"}],"stateMutability":"view","type":"function"},{"inputs":[{"internalType":"address","name":"account","type":"address"}],"name":"getCurrentVotes","outputs":[{"internalType":"uint256","name":"","type":"uint256"}],"stateMutability":"view","type":"function"},{"inputs":[{"internalType":"address","name":"account","type":"address"},{"internalType":"uint256","name":"blockNumber","type":"uint256"}],"name":"getPriorVotes","outputs":[{"internalType":"uint256","name":"","type":"uint256"}],"stateMutability":"view","type":"function"},{"inputs":[{"internalType":"address","name":"spender","type":"address"},{"internalType":"uint256","name":"addedValue","type":"uint256"}],"name":"increaseAllowance","outputs":[{"internalType":"bool","name":"","type":"bool"}],"stateMutability":"nonpayable","type":"function"},{"inputs":[{"internalType":"address","name":"_to","type":"address"},{"internalType":"uint256","name":"_amount","type":"uint256"}],"name":"mint","outputs":[],"stateMutability":"nonpayable","type":"function"},{"inputs":[],"name":"mint_address","outputs":[{"internalType":"address","name":"","type":"address"}],"stateMutability":"view","type":"function"},{"inputs":[],"name":"name","outputs":[{"internalType":"string","name":"","type":"string"}],"stateMutability":"view","type":"function"},{"inputs":[{"internalType":"address","name":"","type":"address"}],"name":"nonces","outputs":[{"internalType":"uint256","name":"","type":"uint256"}],"stateMutability":"view","type":"function"},{"inputs":[{"internalType":"address","name":"","type":"address"}],"name":"numCheckpoints","outputs":[{"internalType":"uint32","name":"","type":"uint32"}],"stateMutability":"view","type":"function"},{"inputs":[],"name":"owner","outputs":[{"internalType":"address","name":"","type":"address"}],"stateMutability":"view","type":"function"},{"inputs":[{"internalType":"address","name":"","type":"address"}],"name":"rateInfo","outputs":[{"internalType":"uint256","name":"rate","type":"uint256"},{"internalType":"uint256","name":"rate_zero","type":"uint256"}],"stateMutability":"view","type":"function"},{"inputs":[],"name":"renounceOwnership","outputs":[],"stateMutability":"nonpayable","type":"function"},{"inputs":[{"internalType":"address","name":"_from","type":"address"},{"internalType":"uint256","name":"_amount","type":"uint256"}],"name":"safeburn","outputs":[],"stateMutability":"nonpayable","type":"function"},{"inputs":[{"internalType":"uint256","name":"_index","type":"uint256"},{"internalType":"uint256","name":"_degree","type":"uint256"},{"internalType":"uint256","name":"_loyaltyChange","type":"uint256"}],"name":"setdegree","outputs":[],"stateMutability":"nonpayable","type":"function"},{"inputs":[{"internalType":"address","name":"_mint_address","type":"address"}],"name":"setmintaddress","outputs":[],"stateMutability":"nonpayable","type":"function"},{"inputs":[{"internalType":"address","name":"_swap_address","type":"address"}],"name":"setswapaddress","outputs":[],"stateMutability":"nonpayable","type":"function"},{"inputs":[{"internalType":"uint256","name":"_zero_rate","type":"uint256"}],"name":"setzerorate","outputs":[],"stateMutability":"nonpayable","type":"function"},{"inputs":[],"name":"swap_address","outputs":[{"internalType":"address","name":"","type":"address"}],"stateMutability":"view","type":"function"},{"inputs":[],"name":"symbol","outputs":[{"internalType":"string","name":"","type":"string"}],"stateMutability":"view","type":"function"},{"inputs":[],"name":"totalSupply","outputs":[{"internalType":"uint256","name":"","type":"uint256"}],"stateMutability":"view","type":"function"},{"inputs":[{"internalType":"address","name":"_recipient","type":"address"},{"internalType":"uint256","name":"_amount","type":"uint256"}],"name":"transfer","outputs":[{"internalType":"bool","name":"","type":"bool"}],"stateMutability":"nonpayable","type":"function"},{"inputs":[{"internalType":"address","name":"_sender","type":"address"},{"internalType":"address","name":"_recipient","type":"address"},{"internalType":"uint256","name":"_amount","type":"uint256"}],"name":"transferFrom","outputs":[{"internalType":"bool","name":"","type":"bool"}],"stateMutability":"nonpayable","type":"function"},{"inputs":[{"internalType":"address","name":"newOwner","type":"address"}],"name":"transferOwnership","outputs":[],"stateMutability":"nonpayable","type":"function"},{"inputs":[],"name":"zero_rate","outputs":[{"internalType":"uint256","name":"","type":"uint256"}],"stateMutability":"view","type":"function"}],"bytecode":{"object":"60806040523480156200001157600080fd5b5060408051808201825260048082526347454e4560e01b6020808401828152855180870190965292855284015281519192916200005191600391620000e3565b50805162000067906004906020840190620000e3565b50506005805460ff1916601217905550600062000083620000df565b60058054610100600160a81b0319166101006001600160a01b03841690810291909117909155604051919250906000907f8be0079c531659141344cd1fd0a4f28419497f9722a3daafe3b4186f6b6457e0908290a3506200017f565b3390565b828054600181600116156101000203166002900490600052602060002090601f016020900481019282601f106200012657805160ff191683800117855562000156565b8280016001018555821562000156579182015b828111156200015657825182559160200191906001019062000139565b506200016492915062000168565b5090565b5b8082111562000164576000815560010162000169565b612a4a806200018f6000396000f3fe608060405234801561001057600080fd5b50600436106102325760003560e01c806370a0823111610130578063b4b5ea57116100b8578063e7a324dc1161007c578063e7a324dc14610710578063f1127ed814610718578063f2fde38b1461076a578063f5e388cc14610790578063fa5e6074146107b657610232565b8063b4b5ea5714610665578063c3cda5201461068b578063c74b2edf146106d2578063dd62ed3e146106da578063e47c81dd1461070857610232565b80638da5cb5b116100ff5780638da5cb5b146105e057806395d89b41146105e8578063a457c2d7146105f0578063a9059cbb1461061c578063a9f949ff1461064857610232565b806370a0823114610560578063715018a614610586578063782d6fe11461058e5780637ecebe00146105ba57610232565b806327d73ad7116101be578063587cde1e11610182578063587cde1e146104865780635c19a95c146104ac578063661d8c69146104d25780636f6f09b0146104fe5780636fcfff451461052157610232565b806327d73ad7146103a8578063313ce567146103d157806339509351146103ef5780633a86fb411461041b57806340c10f191461045a57610232565b80631383e891116102055780631383e8911461033257806316e71c321461035a57806318160ddd1461036257806320606b701461036a57806323b872dd1461037257610232565b8063053dffd61461023757806306fdde0314610251578063095ea7b3146102ce57806312800c3f1461030e575b600080fd5b61023f6107d3565b60408051918252519081900360200190f35b6102596107d9565b6040805160208082528351818301528351919283929083019185019080838360005b8381101561029357818101518382015260200161027b565b50505050905090810190601f1680156102c05780820380516001836020036101000a031916815260200191505b509250505060405180910390f35b6102fa600480360360408110156102e457600080fd5b506001600160a01b03813516906020013561086f565b604080519115158252519081900360200190f35b61031661088d565b604080516001600160a01b039092168252519081900360200190f35b6103586004803603602081101561034857600080fd5b50356001600160a01b031661089c565b005b61023f61096f565b61023f610975565b61023f61097b565b6102fa6004803603606081101561038857600080fd5b506001600160a01b0381358116916020810135909116906040013561099f565b610358600480360360608110156103be57600080fd5b5080359060208101359060400135610d57565b6103d9610dff565b6040805160ff9092168252519081900360200190f35b6102fa6004803603604081101561040557600080fd5b506001600160a01b038135169060200135610e08565b6104416004803603602081101561043157600080fd5b50356001600160a01b0316610e5b565b6040805192835260208301919091528051918290030190f35b6103586004803603604081101561047057600080fd5b506001600160a01b038135169060200135610e74565b6103166004803603602081101561049c57600080fd5b50356001600160a01b0316610f3a565b610358600480360360208110156104c257600080fd5b50356001600160a01b0316610f58565b610358600480360360408110156104e857600080fd5b506001600160a01b038135169060200135610f65565b6103586004803603604081101561051457600080fd5b5080359060200135610fcc565b6105476004803603602081101561053757600080fd5b50356001600160a01b03166110a1565b6040805163ffffffff9092168252519081900360200190f35b61023f6004803603602081101561057657600080fd5b50356001600160a01b03166110b9565b6103586110d4565b61023f600480360360408110156105a457600080fd5b506001600160a01b038135169060200135611181565b61023f600480360360208110156105d057600080fd5b50356001600160a01b0316611389565b61031661139b565b6102596113af565b6102fa6004803603604081101561060657600080fd5b506001600160a01b038135169060200135611410565b6102fa6004803603604081101561063257600080fd5b506001600160a01b038135169060200135611478565b6104416004803603602081101561065e57600080fd5b503561176c565b61023f6004803603602081101561067b57600080fd5b50356001600160a01b0316611797565b610358600480360360c08110156106a157600080fd5b506001600160a01b038135169060208101359060408101359060ff6060820135169060808101359060a001356117fb565b61023f611a6e565b61023f600480360360408110156106f057600080fd5b506001600160a01b0381358116916020013516611a74565b610316611a9f565b61023f611aae565b61074a6004803603604081101561072e57600080fd5b5080356001600160a01b0316906020013563ffffffff16611ad2565b6040805163ffffffff909316835260208301919091528051918290030190f35b6103586004803603602081101561078057600080fd5b50356001600160a01b0316611aff565b610358600480360360208110156107a657600080fd5b50356001600160a01b0316611c08565b610358600480360360208110156107cc57600080fd5b5035611cdb565b60075481565b60038054604080516020601f60026000196101006001881615020190951694909404938401819004810282018101909252828152606093909290918301828280156108655780601f1061083a57610100808354040283529160200191610865565b820191906000526020600020905b81548152906001019060200180831161084857829003601f168201915b5050505050905090565b600061088361087c611d7d565b8484611d81565b5060015b92915050565b600a546001600160a01b031681565b6108a4611d7d565b60055461010090046001600160a01b039081169116146108f9576040805162461bcd60e51b8152602060048201819052602482015260008051602061293e833981519152604482015290519081900360640190fd5b6001600160a01b03811661094d576040805162461bcd60e51b81526020600482015260166024820152750737761702061646472657373206973206164647220360541b604482015290519081900360640190fd5b600a80546001600160a01b0319166001600160a01b0392909216919091179055565b60095490565b60025490565b7f8cad95687ba82c2ce50e74f7b754645e5117c3a5bec8151c0726d5857980a86681565b600a5460009081906014906001600160a01b0387811691161415610b0557600091505b600954821015610b0557600982815481106109d957fe5b90600052602060002090600202016000015484106109f657610afa565b6001600160a01b038516600090815260066020526040902054610a30576001600160a01b0385166000908152600660205260409020601490555b5060008115610af557610a6e600560096001850381548110610a4e57fe5b906000526020600020906002020160010154611e6d90919063ffffffff16565b6001600160a01b03861660009081526006602052604090205410610ad857610ad360096001840381548110610a9f57fe5b60009182526020808320600160029093020191909101546001600160a01b0389168352600690915260409091205490611ec7565b610adb565b60055b6001600160a01b0386166000908152600660205260409020555b610b05565b6001909101906109c2565b600a546001600160a01b0386811691161415610c7557600091505b600954821015610c755760098281548110610b3757fe5b9060005260206000209060020201600001548410610b5457610c6a565b6001600160a01b038616600090815260066020526040902054610b8e576001600160a01b0386166000908152600660205260409020601490555b506001600160a01b0385166000908152600660205260409020548115610c65576050610bf760096001850381548110610bc357fe5b60009182526020808320600160029093020191909101546001600160a01b038b168352600690915260409091205490611e6d565b11610c4857610c4360096001840381548110610c0f57fe5b60009182526020808320600160029093020191909101546001600160a01b038a168352600690915260409091205490611e6d565b610c4b565b60505b6001600160a01b0387166000908152600660205260409020555b610c75565b600190910190610b20565b600080610c8d6064610c878886611f09565b90611f62565b9150610ca96064610c8760085485611f0990919063ffffffff16565b9050610cb4886110b9565b610cbe8388611e6d565b1115610d0b576040805162461bcd60e51b815260206004820152601760248201527618985b185b98d9481a5cc81a5b9cdd59999a58da595b9d604a1b604482015290519081900360640190fd5b610d158882610fc2565b610d20888888611fa4565b80821115610d4957600b54610d499089906001600160a01b0316610d448585611ec7565b611fa4565b506001979650505050505050565b610d5f611d7d565b60055461010090046001600160a01b03908116911614610db4576040805162461bcd60e51b8152602060048201819052602482015260008051602061293e833981519152604482015290519081900360640190fd5b8160098481548110610dc257fe5b9060005260206000209060020201600001819055508060098481548110610de557fe5b906000526020600020906002020160010181905550505050565b60055460ff1690565b6000610883610e15611d7d565b84610e568560016000610e26611d7d565b6001600160a01b03908116825260208083019390935260409182016000908120918c168152925290205490611e6d565b611d81565b6006602052600090815260409020805460019091015482565b610e7c611d7d565b60055461010090046001600160a01b03908116911614610ed1576040805162461bcd60e51b8152602060048201819052602482015260008051602061293e833981519152604482015290519081900360640190fd5b610edb82826120ff565b60405181906001600160a01b038416907f3fffaa5804a26fcec0d70b1d0fb0a2d0031df3a5f9c8af2127c2f4360e97b46390600090a36001600160a01b038083166000908152600c6020526040812054610f369216836121ef565b5050565b6001600160a01b039081166000908152600c60205260409020541690565b610f623382612331565b50565b610f6d611d7d565b60055461010090046001600160a01b03908116911614610fc2576040805162461bcd60e51b8152602060048201819052602482015260008051602061293e833981519152604482015290519081900360640190fd5b610f3682826123c6565b610fd4611d7d565b60055461010090046001600160a01b03908116911614611029576040805162461bcd60e51b8152602060048201819052602482015260008051602061293e833981519152604482015290519081900360640190fd5b60408051808201909152918252602082019081526009805460018101825560009190915291517f6e1540171b6c0c960b71a7020d9f60077f6af931a8bbf590da0223dacf75c7af600290930292830155517f6e1540171b6c0c960b71a7020d9f60077f6af931a8bbf590da0223dacf75c7b090910155565b600e6020526000908152604090205463ffffffff1681565b6001600160a01b031660009081526020819052604090205490565b6110dc611d7d565b60055461010090046001600160a01b03908116911614611131576040805162461bcd60e51b8152602060048201819052602482015260008051602061293e833981519152604482015290519081900360640190fd5b60055460405160009161010090046001600160a01b0316907f8be0079c531659141344cd1fd0a4f28419497f9722a3daafe3b4186f6b6457e0908390a360058054610100600160a81b0319169055565b60004382106111c15760405162461bcd60e51b81526004018080602001828103825260298152602001806127c06029913960400191505060405180910390fd5b6001600160a01b0383166000908152600e602052604090205463ffffffff16806111ef576000915050610887565b6001600160a01b0384166000908152600d6020908152604080832063ffffffff60001986018116855292529091205416831061125e576001600160a01b0384166000908152600d602090815260408083206000199490940163ffffffff16835292905220600101549050610887565b6001600160a01b0384166000908152600d6020908152604080832083805290915290205463ffffffff16831015611299576000915050610887565b600060001982015b8163ffffffff168163ffffffff16111561135257600282820363ffffffff160481036112cb612785565b506001600160a01b0387166000908152600d6020908152604080832063ffffffff80861685529083529281902081518083019092528054909316808252600190930154918101919091529087141561132d576020015194506108879350505050565b805163ffffffff168711156113445781935061134b565b6001820392505b50506112a1565b506001600160a01b0385166000908152600d6020908152604080832063ffffffff9094168352929052206001015491505092915050565b600f6020526000908152604090205481565b60055461010090046001600160a01b031690565b60048054604080516020601f60026000196101006001881615020190951694909404938401819004810282018101909252828152606093909290918301828280156108655780601f1061083a57610100808354040283529160200191610865565b600061088361141d611d7d565b84610e56856040518060600160405280602581526020016129f06025913960016000611447611d7d565b6001600160a01b03908116825260208083019390935260409182016000908120918d168152925290205491906124c2565b600a5460009081906014906001600160a01b031633141561158757600091505b60095482101561158757600982815481106114af57fe5b90600052602060002090600202016000015484106114cc5761157c565b6001600160a01b038516600090815260066020526040902054611506576001600160a01b0385166000908152600660205260409020601490555b506000811561157757611524600560096001850381548110610a4e57fe5b6001600160a01b0386166000908152600660205260409020541061155a5761155560096001840381548110610a9f57fe5b61155d565b60055b6001600160a01b0386166000908152600660205260409020555b611587565b600190910190611498565b600a546001600160a01b038681169116141561169657600091505b60095482101561169657600982815481106115b957fe5b90600052602060002090600202016000015484106115d65761168b565b336000908152600660205260409020546115fe57336000908152600660205260409020601490555b503360009081526006602052604090205481156116865760506116556009600185038154811061162a57fe5b6000918252602080832060016002909302019190910154338352600690915260409091205490611e6d565b116116725761166d6009600184038154811061162a57fe5b611675565b60505b336000908152600660205260409020555b611696565b6001909101906115a2565b6000806116a86064610c878886611f09565b91506116c46064610c8760085485611f0990919063ffffffff16565b90506116cf336110b9565b6116d98388611e6d565b1115611726576040805162461bcd60e51b815260206004820152601760248201527618985b185b98d9481a5cc81a5b9cdd59999a58da595b9d604a1b604482015290519081900360640190fd5b6117303382610fc2565b61173b338888611fa4565b8082111561175f57600b5461175f9033906001600160a01b0316610d448585611ec7565b5060019695505050505050565b6009818154811061177957fe5b60009182526020909120600290910201805460019091015490915082565b6001600160a01b0381166000908152600e602052604081205463ffffffff16806117c25760006117f4565b6001600160a01b0383166000908152600d6020908152604080832063ffffffff60001986011684529091529020600101545b9392505050565b60007f8cad95687ba82c2ce50e74f7b754645e5117c3a5bec8151c0726d5857980a8666118266107d9565b80519060200120611835612559565b60408051602080820195909552808201939093526060830191909152306080808401919091528151808403909101815260a0830182528051908401207fe48329057bfd03d55e49b547132e39cffd9c1820ad7b9d4c5307691425d15adf60c08401526001600160a01b038b1660e084015261010083018a90526101208084018a9052825180850390910181526101408401835280519085012061190160f01b6101608501526101628401829052610182808501829052835180860390910181526101a285018085528151918701919091206000918290526101c2860180865281905260ff8b166101e287015261020286018a90526102228601899052935192965090949293909260019261024280840193601f198301929081900390910190855afa158015611968573d6000803e3d6000fd5b5050604051601f1901519150506001600160a01b0381166119ba5760405162461bcd60e51b81526004018080602001828103825260288152602001806129c86028913960400191505060405180910390fd5b6001600160a01b0381166000908152600f602052604090208054600181019091558914611a185760405162461bcd60e51b81526004018080602001828103825260248152602001806128896024913960400191505060405180910390fd5b87421115611a575760405162461bcd60e51b81526004018080602001828103825260288152602001806128f56028913960400191505060405180910390fd5b611a61818b612331565b505050505b505050505050565b60085481565b6001600160a01b03918216600090815260016020908152604080832093909416825291909152205490565b600b546001600160a01b031681565b7fe48329057bfd03d55e49b547132e39cffd9c1820ad7b9d4c5307691425d15adf81565b600d6020908152600092835260408084209091529082529020805460019091015463ffffffff9091169082565b611b07611d7d565b60055461010090046001600160a01b03908116911614611b5c576040805162461bcd60e51b8152602060048201819052602482015260008051602061293e833981519152604482015290519081900360640190fd5b6001600160a01b038116611ba15760405162461bcd60e51b81526004018080602001828103825260268152602001806128416026913960400191505060405180910390fd5b6005546040516001600160a01b0380841692610100900416907f8be0079c531659141344cd1fd0a4f28419497f9722a3daafe3b4186f6b6457e090600090a3600580546001600160a01b0390921661010002610100600160a81b0319909216919091179055565b611c10611d7d565b60055461010090046001600160a01b03908116911614611c65576040805162461bcd60e51b8152602060048201819052602482015260008051602061293e833981519152604482015290519081900360640190fd5b6001600160a01b038116611cb9576040805162461bcd60e51b815260206004820152601660248201527506d696e742061646472657373206973206164647220360541b604482015290519081900360640190fd5b600b80546001600160a01b0319166001600160a01b0392909216919091179055565b611ce3611d7d565b60055461010090046001600160a01b03908116911614611d38576040805162461bcd60e51b8152602060048201819052602482015260008051602061293e833981519152604482015290519081900360640190fd5b6064811115611d785760405162461bcd60e51b81526004018080602001828103825260228152602001806128ad6022913960400191505060405180910390fd5b600855565b3390565b6001600160a01b038316611dc65760405162461bcd60e51b81526004018080602001828103825260248152602001806129a46024913960400191505060405180910390fd5b6001600160a01b038216611e0b5760405162461bcd60e51b81526004018080602001828103825260228152602001806128676022913960400191505060405180910390fd5b6001600160a01b03808416600081815260016020908152604080832094871680845294825291829020859055815185815291517f8c5be1e5ebec7d5bd14f71427d1e84f3dd0314c0f7b2291e5b200ac8c7c3b9259281900390910190a3505050565b6000828201838110156117f4576040805162461bcd60e51b815260206004820152601b60248201527f536166654d6174683a206164646974696f6e206f766572666c6f770000000000604482015290519081900360640190fd5b60006117f483836040518060400160405280601e81526020017f536166654d6174683a207375627472616374696f6e206f766572666c6f7700008152506124c2565b600082611f1857506000610887565b82820282848281611f2557fe5b04146117f45760405162461bcd60e51b815260040180806020018281038252602181526020018061291d6021913960400191505060405180910390fd5b60006117f483836040518060400160405280601a81526020017f536166654d6174683a206469766973696f6e206279207a65726f00000000000081525061255d565b6001600160a01b038316611fe95760405162461bcd60e51b815260040180806020018281038252602581526020018061297f6025913960400191505060405180910390fd5b6001600160a01b03821661202e5760405162461bcd60e51b815260040180806020018281038252602381526020018061279d6023913960400191505060405180910390fd5b61203983838361232c565b612076816040518060600160405280602681526020016128cf602691396001600160a01b03861660009081526020819052604090205491906124c2565b6001600160a01b0380851660009081526020819052604080822093909355908416815220546120a59082611e6d565b6001600160a01b038084166000818152602081815260409182902094909455805185815290519193928716927fddf252ad1be2c89b69c2b068fc378daa952ba7f163c4a11628f55a4df523b3ef92918290030190a3505050565b6001600160a01b03821661215a576040805162461bcd60e51b815260206004820152601f60248201527f45524332303a206d696e7420746f20746865207a65726f206164647265737300604482015290519081900360640190fd5b6121666000838361232c565b6002546121739082611e6d565b6002556001600160a01b0382166000908152602081905260409020546121999082611e6d565b6001600160a01b0383166000818152602081815260408083209490945583518581529351929391927fddf252ad1be2c89b69c2b068fc378daa952ba7f163c4a11628f55a4df523b3ef9281900390910190a35050565b816001600160a01b0316836001600160a01b0316141580156122115750600081115b1561232c576001600160a01b038316156122a3576001600160a01b0383166000908152600e602052604081205463ffffffff169081612251576000612283565b6001600160a01b0385166000908152600d6020908152604080832063ffffffff60001987011684529091529020600101545b905060006122918285611ec7565b905061229f868484846125c2565b5050505b6001600160a01b0382161561232c576001600160a01b0382166000908152600e602052604081205463ffffffff1690816122de576000612310565b6001600160a01b0384166000908152600d6020908152604080832063ffffffff60001987011684529091529020600101545b9050600061231e8285611e6d565b9050611a66858484846125c2565b505050565b6001600160a01b038083166000908152600c602052604081205490911690612358846110b9565b6001600160a01b038581166000818152600c602052604080822080546001600160a01b031916898616908117909155905194955093928616927f3134e8a2e6d97e929a7e54011ea5485d7d196dd5f0ba4d4ef95803e8e3fc257f9190a46123c08284836121ef565b50505050565b6001600160a01b03821661240b5760405162461bcd60e51b815260040180806020018281038252602181526020018061295e6021913960400191505060405180910390fd5b6124178260008361232c565b612454816040518060600160405280602281526020016127e9602291396001600160a01b03851660009081526020819052604090205491906124c2565b6001600160a01b03831660009081526020819052604090205560025461247a9082611ec7565b6002556040805182815290516000916001600160a01b038516917fddf252ad1be2c89b69c2b068fc378daa952ba7f163c4a11628f55a4df523b3ef9181900360200190a35050565b600081848411156125515760405162461bcd60e51b81526004018080602001828103825283818151815260200191508051906020019080838360005b838110156125165781810151838201526020016124fe565b50505050905090810190601f1680156125435780820380516001836020036101000a031916815260200191505b509250505060405180910390fd5b505050900390565b4690565b600081836125ac5760405162461bcd60e51b81526020600482018181528351602484015283519092839260449091019190850190808383600083156125165781810151838201526020016124fe565b5060008385816125b857fe5b0495945050505050565b60006125e64360405180606001604052806036815260200161280b60369139612727565b905060008463ffffffff1611801561262f57506001600160a01b0385166000908152600d6020908152604080832063ffffffff6000198901811685529252909120548282169116145b1561266c576001600160a01b0385166000908152600d6020908152604080832063ffffffff600019890116845290915290206001018290556126dd565b60408051808201825263ffffffff808416825260208083018681526001600160a01b038a166000818152600d84528681208b8616825284528681209551865490861663ffffffff199182161787559251600196870155908152600e9092529390208054928801909116919092161790555b604080518481526020810184905281516001600160a01b038816927fdec2bacdd2f05b59de34da9b523dff8be42e5e38e818c82fdb0bae774387a724928290030190a25050505050565b600081640100000000841061277d5760405162461bcd60e51b81526020600482018181528351602484015283519092839260449091019190850190808383600083156125165781810151838201526020016124fe565b509192915050565b60408051808201909152600080825260208201529056fe45524332303a207472616e7366657220746f20746865207a65726f20616464726573735a45555356323a3a6765745072696f72566f7465733a206e6f74207965742064657465726d696e656445524332303a206275726e20616d6f756e7420657863656564732062616c616e63655a45555356323a3a5f7772697465436865636b706f696e743a20626c6f636b206e756d626572206578636565647320333220626974734f776e61626c653a206e6577206f776e657220697320746865207a65726f206164647265737345524332303a20617070726f766520746f20746865207a65726f20616464726573735a45555356323a3a64656c656761746542795369673a20696e76616c6964206e6f6e63657a65726f5f726174652063616e206e6f7420626967676572207468616e203130302145524332303a207472616e7366657220616d6f756e7420657863656564732062616c616e63655a45555356323a3a64656c656761746542795369673a207369676e61747572652065787069726564536166654d6174683a206d756c7469706c69636174696f6e206f766572666c6f774f776e61626c653a2063616c6c6572206973206e6f7420746865206f776e657245524332303a206275726e2066726f6d20746865207a65726f206164647265737345524332303a207472616e736665722066726f6d20746865207a65726f206164647265737345524332303a20617070726f76652066726f6d20746865207a65726f20616464726573735a45555356323a3a64656c656761746542795369673a20696e76616c6964207369676e617475726545524332303a2064656372656173656420616c6c6f77616e63652062656c6f77207a65726fa264697066735822122019a1180de979fa8b043f35f62e9b18e67d2e2bbb40e367912842774ebe96b57364736f6c634300060c0033"}}