{"compiler":"v0.6.6+commit.6c089d02","opcodeHash":"0xd25aa39c24d4275443dec17e46fe3135ea67d2b9947e1b2907d7586e8a87deef","metalessHash":"0xeedf5a4f6e55236f4d09bde19cc217f671bebd0654bdbd28e8ab02ddaa91e0e3","runtimeHash":"0xa8c14c8679a104babba9221c98ce881a0131007093df5c4866b46360a339cdf7","encodedMetadata":[{"ipfs":"/ipfs/Qmb4B5AycAMcy99SGbM8guakav6SDgd1Gq6E4KQe6yMqAw","solc":"0.6.6"}],"abi":[{"inputs":[{"internalType":"address","name":"governingToken_","type":"address"}],"stateMutability":"nonpayable","type":"constructor"},{"anonymous":false,"inputs":[{"indexed":false,"internalType":"address","name":"admin","type":"address"}],"name":"AddAdmin","type":"event"},{"anonymous":false,"inputs":[],"name":"Buy","type":"event"},{"anonymous":false,"inputs":[{"indexed":false,"internalType":"uint256","name":"id","type":"uint256"}],"name":"ExecutedProposal","type":"event"},{"anonymous":false,"inputs":[],"name":"HoldingsAddressesChanged","type":"event"},{"anonymous":false,"inputs":[],"name":"LiquidityAddressesChanged","type":"event"},{"anonymous":false,"inputs":[{"indexed":false,"internalType":"uint256","name":"id","type":"uint256"}],"name":"NewProposal","type":"event"},{"anonymous":false,"inputs":[{"indexed":true,"internalType":"address","name":"previousOwner","type":"address"},{"indexed":true,"internalType":"address","name":"newOwner","type":"address"}],"name":"OwnershipTransferred","type":"event"},{"anonymous":false,"inputs":[{"indexed":false,"internalType":"address","name":"admin","type":"address"}],"name":"RemoveAdmin","type":"event"},{"anonymous":false,"inputs":[{"indexed":false,"internalType":"uint256","name":"id","type":"uint256"}],"name":"RemoveProposal","type":"event"},{"anonymous":false,"inputs":[],"name":"Sell","type":"event"},{"anonymous":false,"inputs":[{"indexed":false,"internalType":"uint256","name":"id","type":"uint256"}],"name":"Vote","type":"event"},{"inputs":[{"internalType":"address[]","name":"tokens_","type":"address[]"}],"name":"addHoldingsAddresses","outputs":[],"stateMutability":"nonpayable","type":"function"},{"inputs":[{"internalType":"address[]","name":"tokens_","type":"address[]"}],"name":"addLiquidityAddresses","outputs":[],"stateMutability":"nonpayable","type":"function"},{"inputs":[],"name":"admins","outputs":[{"internalType":"address[]","name":"","type":"address[]"}],"stateMutability":"view","type":"function"},{"inputs":[],"name":"availableBalance","outputs":[{"internalType":"uint256","name":"","type":"uint256"}],"stateMutability":"view","type":"function"},{"inputs":[],"name":"availableWethBalance","outputs":[{"internalType":"uint256","name":"","type":"uint256"}],"stateMutability":"view","type":"function"},{"inputs":[],"name":"buy","outputs":[],"stateMutability":"payable","type":"function"},{"inputs":[{"internalType":"uint256","name":"id_","type":"uint256"},{"internalType":"address","name":"sender_","type":"address"}],"name":"canExecute","outputs":[{"internalType":"bool","name":"","type":"bool"}],"stateMutability":"view","type":"function"},{"inputs":[{"internalType":"uint256","name":"id_","type":"uint256"},{"internalType":"address","name":"sender_","type":"address"}],"name":"canRemove","outputs":[{"internalType":"bool","name":"","type":"bool"}],"stateMutability":"view","type":"function"},{"inputs":[{"internalType":"uint256","name":"id_","type":"uint256"},{"internalType":"address","name":"sender_","type":"address"}],"name":"canVote","outputs":[{"internalType":"bool","name":"","type":"bool"}],"stateMutability":"view","type":"function"},{"inputs":[{"internalType":"uint256","name":"id_","type":"uint256"}],"name":"cancelBuy","outputs":[],"stateMutability":"nonpayable","type":"function"},{"inputs":[],"name":"daoCreator","outputs":[{"internalType":"address","name":"","type":"address"}],"stateMutability":"view","type":"function"},{"inputs":[{"internalType":"uint256","name":"id_","type":"uint256"}],"name":"execute","outputs":[],"stateMutability":"nonpayable","type":"function"},{"inputs":[],"name":"executeMinPct","outputs":[{"internalType":"uint256","name":"","type":"uint256"}],"stateMutability":"view","type":"function"},{"inputs":[],"name":"freeProposalDays","outputs":[{"internalType":"uint256","name":"","type":"uint256"}],"stateMutability":"view","type":"function"},{"inputs":[{"internalType":"uint256","name":"id_","type":"uint256"}],"name":"getProposal","outputs":[{"internalType":"address","name":"proposalAddress","type":"address"},{"internalType":"address","name":"investTokenAddress","type":"address"},{"internalType":"enum ITorroDao.DaoFunction","name":"daoFunction","type":"uint8"},{"internalType":"uint256","name":"amount","type":"uint256"},{"internalType":"address","name":"creator","type":"address"},{"internalType":"uint256","name":"endLifetime","type":"uint256"},{"internalType":"uint256","name":"votesFor","type":"uint256"},{"internalType":"uint256","name":"votesAgainst","type":"uint256"},{"internalType":"uint256","name":"votes","type":"uint256"},{"internalType":"bool","name":"executed","type":"bool"}],"stateMutability":"view","type":"function"},{"inputs":[],"name":"getProposalIds","outputs":[{"internalType":"uint256[]","name":"","type":"uint256[]"}],"stateMutability":"view","type":"function"},{"inputs":[],"name":"hasAdmins","outputs":[{"internalType":"bool","name":"","type":"bool"}],"stateMutability":"view","type":"function"},{"inputs":[],"name":"holdings","outputs":[{"internalType":"address[]","name":"","type":"address[]"}],"stateMutability":"view","type":"function"},{"inputs":[{"internalType":"address","name":"torroToken_","type":"address"},{"internalType":"address","name":"governingToken_","type":"address"},{"internalType":"address","name":"factory_","type":"address"},{"internalType":"address","name":"creator_","type":"address"},{"internalType":"uint256","name":"maxCost_","type":"uint256"},{"internalType":"uint256","name":"executeMinPct_","type":"uint256"},{"internalType":"uint256","name":"votingMinHours_","type":"uint256"},{"internalType":"bool","name":"isPublic_","type":"bool"},{"internalType":"bool","name":"hasAdmins_","type":"bool"}],"name":"initializeCustom","outputs":[],"stateMutability":"nonpayable","type":"function"},{"inputs":[{"internalType":"address","name":"sender_","type":"address"}],"name":"isAdmin","outputs":[{"internalType":"bool","name":"","type":"bool"}],"stateMutability":"view","type":"function"},{"inputs":[],"name":"isPublic","outputs":[{"internalType":"bool","name":"","type":"bool"}],"stateMutability":"view","type":"function"},{"inputs":[],"name":"liquidities","outputs":[{"internalType":"address[]","name":"","type":"address[]"}],"stateMutability":"view","type":"function"},{"inputs":[{"internalType":"address","name":"token_","type":"address"}],"name":"liquidityBalance","outputs":[{"internalType":"uint256","name":"","type":"uint256"}],"stateMutability":"view","type":"function"},{"inputs":[],"name":"liquidityHoldings","outputs":[{"internalType":"address[]","name":"","type":"address[]"},{"internalType":"address[]","name":"","type":"address[]"}],"stateMutability":"view","type":"function"},{"inputs":[{"internalType":"address","name":"token_","type":"address"}],"name":"liquidityToken","outputs":[{"internalType":"address","name":"","type":"address"}],"stateMutability":"view","type":"function"},{"inputs":[],"name":"lockPerEth","outputs":[{"internalType":"uint256","name":"","type":"uint256"}],"stateMutability":"view","type":"function"},{"inputs":[],"name":"maxCost","outputs":[{"internalType":"uint256","name":"","type":"uint256"}],"stateMutability":"view","type":"function"},{"inputs":[{"internalType":"address","name":"newDao_","type":"address"}],"name":"migrate","outputs":[],"stateMutability":"nonpayable","type":"function"},{"inputs":[],"name":"minProposalVotes","outputs":[{"internalType":"uint256","name":"","type":"uint256"}],"stateMutability":"view","type":"function"},{"inputs":[{"internalType":"address","name":"sender_","type":"address"}],"name":"nextFreeProposal","outputs":[{"internalType":"uint256","name":"","type":"uint256"}],"stateMutability":"view","type":"function"},{"inputs":[],"name":"owner","outputs":[{"internalType":"address","name":"","type":"address"}],"stateMutability":"view","type":"function"},{"inputs":[{"internalType":"address","name":"proposalAddress_","type":"address"},{"internalType":"address","name":"investTokenAddress_","type":"address"},{"internalType":"enum ITorroDao.DaoFunction","name":"daoFunction_","type":"uint8"},{"internalType":"uint256","name":"amount_","type":"uint256"},{"internalType":"uint256","name":"hoursLifetime_","type":"uint256"}],"name":"propose","outputs":[],"stateMutability":"nonpayable","type":"function"},{"inputs":[],"name":"quickExecuteMinPct","outputs":[{"internalType":"uint256","name":"","type":"uint256"}],"stateMutability":"nonpayable","type":"function"},{"inputs":[],"name":"renounceOwnership","outputs":[],"stateMutability":"nonpayable","type":"function"},{"inputs":[{"internalType":"uint256","name":"amount_","type":"uint256"}],"name":"sell","outputs":[],"stateMutability":"nonpayable","type":"function"},{"inputs":[{"internalType":"address","name":"factory_","type":"address"}],"name":"setFactoryAddress","outputs":[],"stateMutability":"nonpayable","type":"function"},{"inputs":[{"internalType":"address","name":"token_","type":"address"},{"internalType":"address","name":"torroToken_","type":"address"}],"name":"setNewToken","outputs":[],"stateMutability":"nonpayable","type":"function"},{"inputs":[{"internalType":"address","name":"router_","type":"address"}],"name":"setRouter","outputs":[],"stateMutability":"nonpayable","type":"function"},{"inputs":[{"internalType":"uint256","name":"weight_","type":"uint256"}],"name":"setVoteWeightDivider","outputs":[],"stateMutability":"nonpayable","type":"function"},{"inputs":[],"name":"spendMaxPct","outputs":[{"internalType":"uint256","name":"","type":"uint256"}],"stateMutability":"view","type":"function"},{"inputs":[],"name":"tokenAddress","outputs":[{"internalType":"address","name":"","type":"address"}],"stateMutability":"view","type":"function"},{"inputs":[{"internalType":"address","name":"token_","type":"address"}],"name":"tokenBalance","outputs":[{"internalType":"uint256","name":"","type":"uint256"}],"stateMutability":"view","type":"function"},{"inputs":[{"internalType":"address","name":"newOwner","type":"address"}],"name":"transferOwnership","outputs":[],"stateMutability":"nonpayable","type":"function"},{"inputs":[{"internalType":"uint256","name":"id_","type":"uint256"}],"name":"unpropose","outputs":[],"stateMutability":"nonpayable","type":"function"},{"inputs":[{"internalType":"uint256[]","name":"ids_","type":"uint256[]"},{"internalType":"bool[]","name":"votes_","type":"bool[]"}],"name":"vote","outputs":[],"stateMutability":"nonpayable","type":"function"},{"inputs":[],"name":"voteWeight","outputs":[{"internalType":"uint256","name":"","type":"uint256"}],"stateMutability":"view","type":"function"},{"inputs":[{"internalType":"address","name":"sender_","type":"address"}],"name":"votesOf","outputs":[{"internalType":"uint256","name":"","type":"uint256"}],"stateMutability":"view","type":"function"},{"inputs":[],"name":"votingMinHours","outputs":[{"internalType":"uint256","name":"","type":"uint256"}],"stateMutability":"view","type":"function"},{"stateMutability":"payable","type":"receive"}],"bytecode":{"object":"60806040523480156200001157600080fd5b506040516200616138038062006161833981810160405260208110156200003757600080fd5b50516200004c6001600160e01b036200014316565b60a280546001600160a01b03199081166001600160a01b03841690811790925560a38054821690921790915560a480549091169055600060a555620000a06005603c6200021c602090811b6200390a17901c565b60a6555060b28054600060a7819055600560a855600a60a981905560aa829055600160ac81905560ae919091556102da60af5560b19190915561271060ab554260ad55620100006101006301000000600160b81b0319909316767a250d5630b4cf539739df2c5dacb4c659f2488d0000001761ff0019169290921760ff19161762ff0000191617905560978054336001600160a01b031990911617905562000461565b600054610100900460ff1680620001685750620001686001600160e01b036200029116565b8062000177575060005460ff16155b620001b45760405162461bcd60e51b815260040180806020018281038252602e81526020018062006133602e913960400191505060405180910390fd5b600054610100900460ff16158015620001e0576000805460ff1961ff0019909116610100171660011790555b620001f36001600160e01b036200029716565b620002066001600160e01b036200034816565b801562000219576000805461ff00191690555b50565b600081158062000239575050808202828282816200023657fe5b04145b6200028b576040805162461bcd60e51b815260206004820152601460248201527f64732d6d6174682d6d756c2d6f766572666c6f77000000000000000000000000604482015290519081900360640190fd5b92915050565b303b1590565b600054610100900460ff1680620002bc5750620002bc6001600160e01b036200029116565b80620002cb575060005460ff16155b620003085760405162461bcd60e51b815260040180806020018281038252602e81526020018062006133602e913960400191505060405180910390fd5b600054610100900460ff1615801562000206576000805460ff1961ff001990911661010017166001179055801562000219576000805461ff001916905550565b600054610100900460ff16806200036d57506200036d6001600160e01b036200029116565b806200037c575060005460ff16155b620003b95760405162461bcd60e51b815260040180806020018281038252602e81526020018062006133602e913960400191505060405180910390fd5b600054610100900460ff16158015620003e5576000805460ff1961ff0019909116610100171660011790555b6000620003fa6001600160e01b036200045d16565b606580546001600160a01b0319166001600160a01b038316908117909155604051919250906000907f8be0079c531659141344cd1fd0a4f28419497f9722a3daafe3b4186f6b6457e0908290a350801562000219576000805461ff001916905550565b3390565b615cc280620004716000396000f3fe6080604052600436106102975760003560e01c8063a451790a1161015a578063d1ef71dc116100c1578063eb02043d1161007a578063eb02043d14610c01578063ec82517f14610c16578063ee1ce32014610c87578063eedc966a14610cc0578063f2fde38b14610cf3578063fe0d94c114610d265761029e565b8063d1ef71dc14610b2c578063d712eb4a14610b65578063dc9a153514610b7a578063dd29648014610b8f578063e4849b3214610bc2578063e79bf13b14610bec5761029e565b8063bb67e65a11610113578063bb67e65a146109a0578063c0d78655146109d3578063c65961f214610a06578063c7f758a814610a1b578063cdb2867b14610ac0578063ce5494bb14610af95761029e565b8063a451790a14610870578063a5de3619146108ab578063a6f2ae3a146108c0578063ab2f0e51146108c8578063b144213d146108dd578063b61a022f146108f25761029e565b80636b4751f5116101fe5780637bec9830116101b75780637bec9830146107bf57806383c17c55146107d4578063870074471461080757806389b1e10e146108315780638da5cb5b146108465780639d76ea581461085b5761029e565b80636b4751f51461064d5780636dd6ec4614610662578063715018a614610677578063796337f61461068c57806379ec5d3a1461073a5780637ab7140d1461076d5761029e565b8063281350cf11610250578063281350cf146103b657806340ba1b1e146104e657806340f6e2371461054b578063565a6821146105605780635b132348146105755780635d9d2b2b146106235761029e565b806313517fea146102a35780631391abc7146102ca578063149acf9a1461031957806319df99a81461032e57806320a881901461035a57806324d7806c146103835761029e565b3661029e57005b600080fd5b3480156102af57600080fd5b506102b8610d50565b60408051918252519081900360200190f35b3480156102d657600080fd5b506102fd600480360360208110156102ed57600080fd5b50356001600160a01b0316610d57565b604080516001600160a01b039092168252519081900360200190f35b34801561032557600080fd5b506102fd610e5a565b34801561033a57600080fd5b506103586004803603602081101561035157600080fd5b5035610e69565b005b34801561036657600080fd5b5061036f610fba565b604080519115158252519081900360200190f35b34801561038f57600080fd5b5061036f600480360360208110156103a657600080fd5b50356001600160a01b0316610fc9565b3480156103c257600080fd5b50610358600480360360408110156103d957600080fd5b810190602081018135600160201b8111156103f357600080fd5b82018360208201111561040557600080fd5b803590602001918460208302840111600160201b8311171561042657600080fd5b9190808060200260200160405190810160405280939291908181526020018383602002808284376000920191909152509295949360208101935035915050600160201b81111561047557600080fd5b82018360208201111561048757600080fd5b803590602001918460208302840111600160201b831117156104a857600080fd5b919080806020026020016040519081016040528093929190818152602001838360200280828437600092019190915250929550611008945050505050565b3480156104f257600080fd5b506104fb6111e5565b60408051602080825283518183015283519192839290830191858101910280838360005b8381101561053757818101518382015260200161051f565b505050509050019250505060405180910390f35b34801561055757600080fd5b506102b861127d565b34801561056c57600080fd5b506102b8611283565b34801561058157600080fd5b506103586004803603602081101561059857600080fd5b810190602081018135600160201b8111156105b257600080fd5b8201836020820111156105c457600080fd5b803590602001918460208302840111600160201b831117156105e557600080fd5b919080806020026020016040519081016040528093929190818152602001838360200280828437600092019190915250929550611289945050505050565b34801561062f57600080fd5b506103586004803603602081101561064657600080fd5b5035611320565b34801561065957600080fd5b506102b8611504565b34801561066e57600080fd5b506104fb61150a565b34801561068357600080fd5b506103586115a8565b34801561069857600080fd5b50610358600480360360208110156106af57600080fd5b810190602081018135600160201b8111156106c957600080fd5b8201836020820111156106db57600080fd5b803590602001918460208302840111600160201b831117156106fc57600080fd5b91908080602002602001604051908101604052809392919081815260200183836020028082843760009201919091525092955061164a945050505050565b34801561074657600080fd5b506102b86004803603602081101561075d57600080fd5b50356001600160a01b03166116e1565b34801561077957600080fd5b50610358600480360360a081101561079057600080fd5b506001600160a01b03813581169160208101359091169060ff6040820135169060608101359060800135611772565b3480156107cb57600080fd5b506102b8611dbf565b3480156107e057600080fd5b50610358600480360360208110156107f757600080fd5b50356001600160a01b0316611eb4565b34801561081357600080fd5b506103586004803603602081101561082a57600080fd5b5035611f2e565b34801561083d57600080fd5b506102b8611f8b565b34801561085257600080fd5b506102fd611f91565b34801561086757600080fd5b506102fd611fa0565b34801561087c57600080fd5b506103586004803603604081101561089357600080fd5b506001600160a01b0381358116916020013516611faf565b3480156108b757600080fd5b506104fb612038565b6103586120d6565b3480156108d457600080fd5b506102b86122c5565b3480156108e957600080fd5b506102b86122c9565b3480156108fe57600080fd5b506109076122cf565b604051808060200180602001838103835285818151815260200191508051906020019060200280838360005b8381101561094b578181015183820152602001610933565b50505050905001838103825284818151815260200191508051906020019060200280838360005b8381101561098a578181015183820152602001610972565b5050505090500194505050505060405180910390f35b3480156109ac57600080fd5b506102b8600480360360208110156109c357600080fd5b50356001600160a01b03166123fa565b3480156109df57600080fd5b50610358600480360360208110156109f657600080fd5b50356001600160a01b0316612447565b348015610a1257600080fd5b506102b86124cb565b348015610a2757600080fd5b50610a4560048036036020811015610a3e57600080fd5b50356124d1565b604080516001600160a01b03808d1682528b16602082015290810189600f811115610a6c57fe5b60ff1681526020810198909852506001600160a01b039095166040808801919091526060870194909452608086019290925260a085015260c084015290151560e08301525190819003610100019350915050f35b348015610acc57600080fd5b5061036f60048036036040811015610ae357600080fd5b50803590602001356001600160a01b03166125ae565b348015610b0557600080fd5b5061035860048036036020811015610b1c57600080fd5b50356001600160a01b0316612613565b348015610b3857600080fd5b5061036f60048036036040811015610b4f57600080fd5b50803590602001356001600160a01b031661287e565b348015610b7157600080fd5b506102b8612bd0565b348015610b8657600080fd5b5061036f612c81565b348015610b9b57600080fd5b506102b860048036036020811015610bb257600080fd5b50356001600160a01b0316612c8a565b348015610bce57600080fd5b5061035860048036036020811015610be557600080fd5b5035612c9d565b348015610bf857600080fd5b506104fb612ea2565b348015610c0d57600080fd5b506102b8612f40565b348015610c2257600080fd5b506103586004803603610120811015610c3a57600080fd5b506001600160a01b0381358116916020810135821691604082013581169160608101359091169060808101359060a08101359060c08101359060e081013515159061010001351515612f46565b348015610c9357600080fd5b5061036f60048036036040811015610caa57600080fd5b50803590602001356001600160a01b0316613104565b348015610ccc57600080fd5b506102b860048036036020811015610ce357600080fd5b50356001600160a01b0316613182565b348015610cff57600080fd5b5061035860048036036020811015610d1657600080fd5b50356001600160a01b03166131fe565b348015610d3257600080fd5b5061035860048036036020811015610d4957600080fd5b50356132f7565b60a7545b90565b6000610e5260b260039054906101000a90046001600160a01b03166001600160a01b031663c45a01556040518163ffffffff1660e01b815260040160206040518083038186803b158015610daa57600080fd5b505afa158015610dbe573d6000803e3d6000fd5b505050506040513d6020811015610dd457600080fd5b505160b254604080516315ab88c960e31b815290518692630100000090046001600160a01b03169163ad5c4648916004808301926020929190829003018186803b158015610e2157600080fd5b505afa158015610e35573d6000803e3d6000fd5b505050506040513d6020811015610e4b57600080fd5b50516137a3565b90505b919050565b6097546001600160a01b031690565b6000818152609e6020526040902080548214610e8457600080fd5b60006002820154600160a01b900460ff16600f811115610ea057fe5b14610eaa57600080fd5b60048101546001600160a01b03163314610ec357600080fd5b60a3546040805163273b7a9f60e21b81523360048201526024810185905290516001600160a01b0390921691639cedea7c9160448082019260009290919082900301818387803b158015610f1657600080fd5b505af1158015610f2a573d6000803e3d6000fd5b5050506000838152609e602052604081208181556001810180546001600160a01b03199081169091556002820180546001600160a81b031916905560038201839055600482018054909116905560058101829055915060068201818181610f918282615ad6565b505060006008850181905560098501819055600a850155505050600b01805460ff191690555050565b60b25462010000900460ff1690565b60b25460009062010000900460ff161580610ff157506097546001600160a01b038381169116145b80610e525750610e52609c8363ffffffff61386316565b805182511461101657600080fd5b60a3546040805163af500ba360e01b815233600482015290516000926001600160a01b03169163af500ba3916024808301926020929190829003018186803b15801561106157600080fd5b505afa158015611075573d6000803e3d6000fd5b505050506040513d602081101561108b57600080fd5b505190506000611099612bd0565b9050808210156110a857600080fd5b60008183816110b357fe5b04905060005b85518110156111dd5760008682815181106110d057fe5b6020026020010151905060008683815181106110e857fe5b6020908102919091018101516000848152609e9092526040909120909150611119600682013363ffffffff61386316565b15801561112a575042816005015410155b1561119f57611142600682013363ffffffff61387f16565b50811561116857600881015461115e908663ffffffff61389416565b6008820155611183565b600981015461117d908663ffffffff61389416565b60098201555b600a81015461119990600163ffffffff61389416565b600a8201555b6040805184815290517fdcd6a5cd90707bfd61ed2fddae23e88c584cb5b78a0e9989710a59fd84c0a1f99181900360200190a15050506001016110b9565b505050505050565b606060006111f360a06138e3565b905060608167ffffffffffffffff8111801561120e57600080fd5b50604051908082528060200260200182016040528015611238578160200160208202803683370190505b50905060005b828110156112765761125760a08263ffffffff6138ee16565b82828151811061126357fe5b602090810291909101015260010161123e565b5091505090565b60a85490565b60a95490565b61129232610fc9565b61129b57600080fd5b60005b81518110156112f35760008282815181106112b557fe5b602002602001015190506112d381609a61386390919063ffffffff16565b6112ea576112e8609a8263ffffffff61387f16565b505b5060010161129e565b506040517fbfdc4f1a88a60b1377c7d2124ded585f9ebd5a4c19238f911c00235116df819290600090a150565b6000818152609e602052604090208054821461133b57600080fd5b60048101546001600160a01b031633148061136057506097546001600160a01b031633145b806113775750611377609c3363ffffffff61386316565b61138057600080fd5b61138933610fc9565b6113a557611399816006016138e3565b6001146113a557600080fd5b60006002820154600160a01b900460ff16600f8111156113c157fe5b14156114335760a3546040805163273b7a9f60e21b81523360048201526024810185905290516001600160a01b0390921691639cedea7c9160448082019260009290919082900301818387803b15801561141a57600080fd5b505af115801561142e573d6000803e3d6000fd5b505050505b6000828152609e602052604081208181556001810180546001600160a01b03199081169091556002820180546001600160a81b03191690556003820183905560048201805490911690556005810182905590600682018181816114968282615ad6565b505060006008850181905560098501819055600a850155505050600b01805460ff191690556114cc60a08363ffffffff6138fa16565b506040805183815290517faabfd53a70ad7b7dcd70e454b8b2119cf5113e54dab70c2d21a8c3da057d696b9181900360200190a15050565b60af5490565b60606000611518609a6138e3565b905060608167ffffffffffffffff8111801561153357600080fd5b5060405190808252806020026020018201604052801561155d578160200160208202803683370190505b50905060005b828110156112765761157c609a8263ffffffff6138ee16565b82828151811061158857fe5b6001600160a01b0390921660209283029190910190910152600101611563565b6115b0613906565b6065546001600160a01b03908116911614611600576040805162461bcd60e51b81526020600482018190526024820152600080516020615bef833981519152604482015290519081900360640190fd5b6065546040516000916001600160a01b0316907f8be0079c531659141344cd1fd0a4f28419497f9722a3daafe3b4186f6b6457e0908390a3606580546001600160a01b0319169055565b61165332610fc9565b61165c57600080fd5b60005b81518110156116b457600082828151811061167657fe5b6020026020010151905061169481609861386390919063ffffffff16565b6116ab576116a960988263ffffffff61387f16565b505b5060010161165f565b506040517f796eca3f42c0bb26ab9d945608daa5f657732773735d17844171d38fadba3c8a90600090a150565b60006116eb612bd0565b60a3546040805163af500ba360e01b81526001600160a01b0386811660048301529151919092169163af500ba3916024808301926020929190829003018186803b15801561173857600080fd5b505afa15801561174c573d6000803e3d6000fd5b505050506040513d602081101561176257600080fd5b50518161176b57fe5b0492915050565b60005a905060aa5482101561178657600080fd5b60a3546040805163af500ba360e01b815233600482015290516000926001600160a01b03169163af500ba3916024808301926020929190829003018186803b1580156117d157600080fd5b505afa1580156117e5573d6000803e3d6000fd5b505050506040513d60208110156117fb57600080fd5b505190506000611809612bd0565b90508082101561181857600080fd5b60b254610100900460ff16156118a857600786600f81111561183657fe5b148061184d5750600686600f81111561184b57fe5b145b806118635750600086600f81111561186157fe5b145b156118a85760ae5460648161187457fe5b04611894611880611dbf565b6118886122c5565b9063ffffffff61389416565b8161189b57fe5b048511156118a857600080fd5b60a580546001019081905560008088600f8111156118c257fe5b1480156118d15750600060b154115b156119fb5760006118ed60b1548961390a90919063ffffffff16565b60a354604080516352f8f14160e11b8152336004820152905192935083926119ed926001600160a01b03169163a5f1e282916024808301926020929190829003018186803b15801561193e57600080fd5b505afa158015611952573d6000803e3d6000fd5b505050506040513d602081101561196857600080fd5b505160a3546040805163af500ba360e01b815233600482015290516001600160a01b039092169163af500ba391602480820192602092909190829003018186803b1580156119b557600080fd5b505afa1580156119c9573d6000803e3d6000fd5b505050506040513d60208110156119df57600080fd5b50519063ffffffff61396d16565b10156119f857600080fd5b90505b6000611a1f611a1288610e1063ffffffff61390a16565b429063ffffffff61389416565b905060006040518061018001604052808581526020018d6001600160a01b031681526020018c6001600160a01b031681526020018b600f811115611a5f57fe5b815260208082018c90523360408084019190915260608084018790528151865480850282018301845292810183815260809095019490938793859391840192859284928491870182828015611ad357602002820191906000526020600020905b815481526020019060010190808311611abf575b505050505081525050815250508152602001868881611aee57fe5b04815260006020808301829052600160408085018290526060948501849052898452609e835292839020855181559185015190820180546001600160a01b03199081166001600160a01b03938416179091559285015160028301805490941691161780835592840151909290919060ff60a01b1916600160a01b83600f811115611b7457fe5b02179055506080820151600382015560a08201516004820180546001600160a01b0319166001600160a01b0390921691909117905560c0820151600582015560e08201518051805180516006850192918391611bd7918391602090910190615af4565b505050506101008301516008830155506101208201516009820155610140820151600a82015561016090910151600b909101805460ff1916911515919091179055611c2360a0856139bd565b508215611c9d5760a3546040805163e3c0640360e01b8152336004820152602481018690526044810187905290516001600160a01b039092169163e3c064039160648082019260009290919082900301818387803b158015611c8457600080fd5b505af1158015611c98573d6000803e3d6000fd5b505050505b33600090815260b0602052604081205460af54909190611cd790611cca906201518063ffffffff61390a16565b839063ffffffff61389416565b33600090815260b06020526040902042905590508115801590611cf957508042105b15611d7c5760005a90506000611d1b6179f56118888d8563ffffffff61396d16565b90506000642e90edd0003a1115611d385750642e90edd000611d3b565b503a5b336108fc611d4f848463ffffffff61390a16565b6040518115909202916000818181858888f19350505050158015611d77573d6000803e3d6000fd5b505050505b6040805187815290517f9a863892f20a6b9c6cec64d611b5864be6373191ce2cacc3b05a299bce3bf80e9181900360200190a15050505050505050505050505050565b600060b260039054906101000a90046001600160a01b03166001600160a01b031663ad5c46486040518163ffffffff1660e01b815260040160206040518083038186803b158015611e0f57600080fd5b505afa158015611e23573d6000803e3d6000fd5b505050506040513d6020811015611e3957600080fd5b5051604080516370a0823160e01b815230600482015290516001600160a01b03909216916370a0823191602480820192602092909190829003018186803b158015611e8357600080fd5b505afa158015611e97573d6000803e3d6000fd5b505050506040513d6020811015611ead57600080fd5b5051905090565b611ebc613906565b6065546001600160a01b03908116911614611f0c576040805162461bcd60e51b81526020600482018190526024820152600080516020615bef833981519152604482015290519081900360640190fd5b60a480546001600160a01b0319166001600160a01b0392909216919091179055565b611f36613906565b6065546001600160a01b03908116911614611f86576040805162461bcd60e51b81526020600482018190526024820152600080516020615bef833981519152604482015290519081900360640190fd5b60ab55565b60b15490565b6065546001600160a01b031690565b60a3546001600160a01b031690565b611fb7613906565b6065546001600160a01b03908116911614612007576040805162461bcd60e51b81526020600482018190526024820152600080516020615bef833981519152604482015290519081900360640190fd5b60a280546001600160a01b039283166001600160a01b03199182161790915560a38054939092169216919091179055565b60606000612046609c6138e3565b905060608167ffffffffffffffff8111801561206157600080fd5b5060405190808252806020026020018201604052801561208b578160200160208202803683370190505b50905060005b82811015611276576120aa609c8263ffffffff6138ee16565b8282815181106120b657fe5b6001600160a01b0390921660209283029190910190910152600101612091565b60b254610100900460ff16156120eb57600080fd5b60a7543411156120fa57600080fd5b600060a7546121893460a360009054906101000a90046001600160a01b03166001600160a01b03166318160ddd6040518163ffffffff1660e01b815260040160206040518083038186803b15801561215157600080fd5b505afa158015612165573d6000803e3d6000fd5b505050506040513d602081101561217b57600080fd5b50519063ffffffff61390a16565b8161219057fe5b60a354604080516370a0823160e01b8152306004820152905193909204935083926001600160a01b03909116916370a08231916024808301926020929190829003018186803b1580156121e257600080fd5b505afa1580156121f6573d6000803e3d6000fd5b505050506040513d602081101561220c57600080fd5b5051101561221957600080fd5b60a3546040805163a9059cbb60e01b81523360048201526024810184905290516001600160a01b039092169163a9059cbb916044808201926020929091908290030181600087803b15801561226d57600080fd5b505af1158015612281573d6000803e3d6000fd5b505050506040513d602081101561229757600080fd5b50506040517f974c86b588512b7bcccd8d013809b53141f70434ba97c6fcaa58341cc9b1e06290600090a150565b4790565b60ae5490565b60608060006122de609a6138e3565b905060608167ffffffffffffffff811180156122f957600080fd5b50604051908082528060200260200182016040528015612323578160200160208202803683370190505b50905060608267ffffffffffffffff8111801561233f57600080fd5b50604051908082528060200260200182016040528015612369578160200160208202803683370190505b50905060005b838110156123ef57600061238a609a8363ffffffff6138ee16565b90508084838151811061239957fe5b60200260200101906001600160a01b031690816001600160a01b0316815250506123c281610d57565b8383815181106123ce57fe5b6001600160a01b03909216602092830291909101909101525060010161236f565b509093509150509091565b6001600160a01b038116600090815260b0602052604081205480612422576000915050610e55565b600061243f611cca6201518060af5461390a90919063ffffffff16565b949350505050565b61244f613906565b6065546001600160a01b0390811691161461249f576040805162461bcd60e51b81526020600482018190526024820152600080516020615bef833981519152604482015290519081900360640190fd5b60b280546001600160a01b039092166301000000026301000000600160b81b0319909216919091179055565b60aa5490565b6000806000806000806000806000806000609e60008d815260200190815260200160002090508b81600001541461250757600080fd5b8060010160009054906101000a90046001600160a01b03168160020160009054906101000a90046001600160a01b03168260020160149054906101000a900460ff1683600301548460040160009054906101000a90046001600160a01b031685600501548660080154876009015488600a015489600b0160009054906101000a900460ff169a509a509a509a509a509a509a509a509a509a50509193959799509193959799565b6000828152609e60205260408120805484146125c957600080fd5b428160050154101580156125ed575060048101546001600160a01b03848116911614155b80156126095750612607600682018463ffffffff61386316565b155b9150505b92915050565b61261b613906565b6065546001600160a01b0390811691161461266b576040805162461bcd60e51b81526020600482018190526024820152600080516020615bef833981519152604482015290519081900360640190fd5b806060612676612ea2565b905060005b81518110156126a9576126a182828151811061269357fe5b6020026020010151856139c9565b60010161267b565b50604051633cb19bfb60e11b81526020600482018181528351602484015283516001600160a01b0386169363796337f693869392839260440191808601910280838360005b838110156127065781810151838201526020016126ee565b5050505090500192505050600060405180830381600087803b15801561272b57600080fd5b505af115801561273f573d6000803e3d6000fd5b50505050606061274d61150a565b905060005b81518110156127885761278061277a83838151811061276d57fe5b6020026020010151610d57565b866139c9565b600101612752565b50604051630b62646960e31b81526020600482018181528351602484015283516001600160a01b03871693635b13234893869392839260440191808601910280838360005b838110156127e55781810151838201526020016127cd565b5050505090500192505050600060405180830381600087803b15801561280a57600080fd5b505af115801561281e573d6000803e3d6000fd5b50505050836001600160a01b03166128346122c5565b604051600081818185875af1925050503d8060008114612870576040519150601f19603f3d011682016040523d82523d6000602084013e612875565b606091505b50505050505050565b6000828152609e602052604081208054841461289957600080fd5b600b81015460ff16156128b057600091505061260d565b60ac5481600a015410156128c857600091505061260d565b60b254610100900460ff161580156128e8575060b25462010000900460ff165b15612904576128f683610fc9565b61290457600091505061260d565b60066002820154600160a01b900460ff16600f81111561292057fe5b1415612966576097546001600160a01b038481169116148015906129525750612950609c8463ffffffff61386316565b155b1561296157600091505061260d565b61299b565b60048101546001600160a01b0384811691161480159061298c575061298a83610fc9565b155b1561299b57600091505061260d565b60b254610100900460ff1680156129b657506129b683610fc9565b80156129fe575060006002820154600160a01b900460ff16600f8111156129d957fe5b14806129fe575060016002820154600160a01b900460ff16600f8111156129fc57fe5b145b15612acd5760a954606481612a0f57fe5b0460a360009054906101000a90046001600160a01b03166001600160a01b031663d41ce4b16040518163ffffffff1660e01b815260040160206040518083038186803b158015612a5e57600080fd5b505afa158015612a72573d6000803e3d6000fd5b505050506040513d6020811015612a8857600080fd5b505181612a9157fe5b04612aae612a9d612bd0565b60088401549063ffffffff61390a16565b10612acd57806009015481600801541115612acd57600191505061260d565b4281600501541115612ae357600091505061260d565b6009810154600882015411808015612afd5750600060a854115b1561260957600060a854606481612b1057fe5b0460a360009054906101000a90046001600160a01b03166001600160a01b031663d41ce4b16040518163ffffffff1660e01b815260040160206040518083038186803b158015612b5f57600080fd5b505afa158015612b73573d6000803e3d6000fd5b505050506040513d6020811015612b8957600080fd5b505181612b9257fe5b049050612bc5612ba0612bd0565b60098501546008860154612bb99163ffffffff61389416565b9063ffffffff61390a16565b101595945050505050565b60b2546000908190610100900460ff1615612c715760ab5460a360009054906101000a90046001600160a01b03166001600160a01b03166318160ddd6040518163ffffffff1660e01b815260040160206040518083038186803b158015612c3657600080fd5b505afa158015612c4a573d6000803e3d6000fd5b505050506040513d6020811015612c6057600080fd5b505181612c6957fe5b049050612c7c565b50670de0b6b3a76400005b905090565b60b25460ff1690565b6000610e52612c9883610d57565b613182565b60b254610100900460ff1615612cb257600080fd5b60a354604080516370a0823160e01b8152336004820152905183926001600160a01b0316916370a08231916024808301926020929190829003018186803b158015612cfc57600080fd5b505afa158015612d10573d6000803e3d6000fd5b505050506040513d6020811015612d2657600080fd5b50511015612d3357600080fd5b6000612d3e82613ae8565b60a3546040805163141af9b960e21b81523360048201526024810186905290519293506001600160a01b039091169163506be6e4916044808201926020929091908290030181600087803b158015612d9557600080fd5b505af1158015612da9573d6000803e3d6000fd5b505050506040513d6020811015612dbf57600080fd5b505060a354604080516323b872dd60e01b81523360048201523060248201526044810185905290516001600160a01b03909216916323b872dd916064808201926020929091908290030181600087803b158015612e1b57600080fd5b505af1158015612e2f573d6000803e3d6000fd5b505050506040513d6020811015612e4557600080fd5b5050604051339082156108fc029083906000818181858888f19350505050158015612e74573d6000803e3d6000fd5b506040517faea90cb867da739f9ee1794fb9ebe7120786e021a864d7de9ef6cf929f27fc4390600090a15050565b60606000612eb060986138e3565b905060608167ffffffffffffffff81118015612ecb57600080fd5b50604051908082528060200260200182016040528015612ef5578160200160208202803683370190505b50905060005b8281101561127657612f1460988263ffffffff6138ee16565b828281518110612f2057fe5b6001600160a01b0390921660209283029190910190910152600101612efb565b60ac5490565b600054610100900460ff1680612f5f5750612f5f613bc1565b80612f6d575060005460ff16155b612fa85760405162461bcd60e51b815260040180806020018281038252602e815260200180615c0f602e913960400191505060405180910390fd5b600054610100900460ff16158015612fd3576000805460ff1961ff0019909116610100171660011790555b612fdb613bc7565b60a280546001600160a01b03808d166001600160a01b03199283161790925560a380548c841690831617905560a48054928b1692909116919091179055600060a55561302f6005603c63ffffffff61390a16565b60a65560b2805460a788905560a8879055600060a981905560aa879055600160ac5560ae8190556102da60af5560b181905560ab554260ad556301000000600160b81b031916767a250d5630b4cf539739df2c5dacb4c659f2488d0000001761ffff19168415151762ff000019166201000084151581029190911791829055609780546001600160a01b0319166001600160a01b038b1617905560ff910416156130e6576130e4609c8863ffffffff61387f16565b505b80156130f8576000805461ff00191690555b50505050505050505050565b6000828152609e602052604081208054841461311f57600080fd5b4281600501541015801561313e575061313a816006016138e3565b6001145b8015612609575060048101546001600160a01b03848116911614806126095750826001600160a01b0316613170611f91565b6001600160a01b031614949350505050565b604080516370a0823160e01b815230600482015290516000916001600160a01b038416916370a0823191602480820192602092909190829003018186803b1580156131cc57600080fd5b505afa1580156131e0573d6000803e3d6000fd5b505050506040513d60208110156131f657600080fd5b505192915050565b613206613906565b6065546001600160a01b03908116911614613256576040805162461bcd60e51b81526020600482018190526024820152600080516020615bef833981519152604482015290519081900360640190fd5b6001600160a01b03811661329b5760405162461bcd60e51b8152600401808060200182810382526026815260200180615b7c6026913960400191505060405180910390fd5b6065546040516001600160a01b038084169216907f8be0079c531659141344cd1fd0a4f28419497f9722a3daafe3b4186f6b6457e090600090a3606580546001600160a01b0319166001600160a01b0392909216919091179055565b6000818152609f6020526040902054819060ff161561331557600080fd5b6000818152609f60205260408120805460ff191660011790555a905061333b833361287e565b61334457600080fd5b6000838152609e602052604090208054841461335f57600080fd5b60a3546040805163912c267360e01b815233600482015290516000926001600160a01b03169163912c2673916024808301926020929190829003018186803b1580156133aa57600080fd5b505afa1580156133be573d6000803e3d6000fd5b505050506040513d60208110156133d457600080fd5b505190506133e0612bd0565b811015613414576133f8609c3363ffffffff61386316565b1561029e5761340e609c3363ffffffff613c7916565b50600080fd5b60006002830154600160a01b900460ff16600f81111561343057fe5b14156134445761343f82613c8e565b6136c8565b60016002830154600160a01b900460ff16600f81111561346057fe5b141561346f5761343f826141b0565b600280830154600160a01b900460ff16600f81111561348a57fe5b14156134995761343f826147d1565b60036002830154600160a01b900460ff16600f8111156134b557fe5b14156134c45761343f82614baa565b60046002830154600160a01b900460ff16600f8111156134e057fe5b14156134ef5761343f82614dcf565b60056002830154600160a01b900460ff16600f81111561350b57fe5b141561351a5761343f82614ef7565b60066002830154600160a01b900460ff16600f81111561353657fe5b14156135455761343f82614f85565b60076002830154600160a01b900460ff16600f81111561356157fe5b14156135705761343f8261504e565b60086002830154600160a01b900460ff16600f81111561358c57fe5b141561359b5761343f826152ee565b60096002830154600160a01b900460ff16600f8111156135b757fe5b14156135c65761343f8261536f565b600a6002830154600160a01b900460ff16600f8111156135e257fe5b14156135f15761343f82615378565b600b6002830154600160a01b900460ff16600f81111561360d57fe5b141561361c5761343f82615381565b600c6002830154600160a01b900460ff16600f81111561363857fe5b14156136475761343f8261538a565b600d6002830154600160a01b900460ff16600f81111561366357fe5b14156136725761343f82615393565b600e6002830154600160a01b900460ff16600f81111561368e57fe5b141561369d5761343f8261539c565b600f6002830154600160a01b900460ff16600f8111156136b957fe5b141561029e5761343f826153a5565b600b8201805460ff1916600117905560005a905060006136f4618a9e611888878563ffffffff61396d16565b90506000642e90edd0003a11156137115750642e90edd000613714565b503a5b336108fc613728848463ffffffff61390a16565b6040518115909202916000818181858888f19350505050158015613750573d6000803e3d6000fd5b506040805189815290517fd8ae6466d9e43add7523f7d881b37597d4691cbfeb414d8d033f0241a7bf5bf19181900360200190a150505060009384525050609f6020525060409020805460ff1916905550565b60008060006137b285856153ae565b604080516bffffffffffffffffffffffff19606094851b811660208084019190915293851b81166034830152825160288184030181526048830184528051908501206001600160f81b031960688401529a90941b9093166069840152607d8301989098527f96e8ac4277198ff8b6f785478aa9a39f403cb768dd02cbee326c3e7da348845f609d808401919091528851808403909101815260bd909201909752805196019590952095945050505050565b6000613878836001600160a01b03841661548c565b9392505050565b6000613878836001600160a01b0384166154a4565b8082018281101561260d576040805162461bcd60e51b815260206004820152601460248201527364732d6d6174682d6164642d6f766572666c6f7760601b604482015290519081900360640190fd5b6000610e52826154ee565b600061387883836154f2565b60006138788383615556565b3390565b60008115806139255750508082028282828161392257fe5b04145b61260d576040805162461bcd60e51b815260206004820152601460248201527364732d6d6174682d6d756c2d6f766572666c6f7760601b604482015290519081900360640190fd5b8082038281111561260d576040805162461bcd60e51b815260206004820152601560248201527464732d6d6174682d7375622d756e646572666c6f7760581b604482015290519081900360640190fd5b600061387883836154a4565b6001600160a01b03821615613ae457604080516370a0823160e01b8152306004820152905183916000916001600160a01b038416916370a08231916024808301926020929190829003018186803b158015613a2357600080fd5b505afa158015613a37573d6000803e3d6000fd5b505050506040513d6020811015613a4d57600080fd5b505190508015613ae157816001600160a01b031663a9059cbb84836040518363ffffffff1660e01b815260040180836001600160a01b03166001600160a01b0316815260200182815260200192505050602060405180830381600087803b158015613ab757600080fd5b505af1158015613acb573d6000803e3d6000fd5b505050506040513d60208110156111dd57600080fd5b50505b5050565b60008060a360009054906101000a90046001600160a01b03166001600160a01b03166318160ddd6040518163ffffffff1660e01b815260040160206040518083038186803b158015613b3957600080fd5b505afa158015613b4d573d6000803e3d6000fd5b505050506040513d6020811015613b6357600080fd5b505190506000613b728261561c565b90506000613b8082846156b8565b905080613b8b6122c5565b1115613bb45781613ba2828763ffffffff61390a16565b81613ba957fe5b049350505050610e55565b81613ba286612bb96122c5565b303b1590565b600054610100900460ff1680613be05750613be0613bc1565b80613bee575060005460ff16155b613c295760405162461bcd60e51b815260040180806020018281038252602e815260200180615c0f602e913960400191505060405180910390fd5b600054610100900460ff16158015613c54576000805460ff1961ff0019909116610100171660011790555b613c5c6156df565b613c6461577f565b8015613c76576000805461ff00191690555b50565b6000613878836001600160a01b038416615556565b6000613c98611dbf565b90508160030154613cab826118886122c5565b1015613cb657600080fd5b600060b260039054906101000a90046001600160a01b03166001600160a01b031663ad5c46486040518163ffffffff1660e01b815260040160206040518083038186803b158015613d0657600080fd5b505afa158015613d1a573d6000803e3d6000fd5b505050506040513d6020811015613d3057600080fd5b50516040805160028082526060808301845293945090916020830190803683370190505090508181600081518110613d6457fe5b6001600160a01b03928316602091820292909201015260018086015483519216918391908110613d9057fe5b60200260200101906001600160a01b031690816001600160a01b0316815250508360030154831015613e2757816001600160a01b031663d0e30db0613de285876003015461396d90919063ffffffff16565b6040518263ffffffff1660e01b81526004016000604051808303818588803b158015613e0d57600080fd5b505af1158015613e21573d6000803e3d6000fd5b50505050505b600080613ed660b260039054906101000a90046001600160a01b03166001600160a01b031663c45a01556040518163ffffffff1660e01b815260040160206040518083038186803b158015613e7b57600080fd5b505afa158015613e8f573d6000803e3d6000fd5b505050506040513d6020811015613ea557600080fd5b505184518590600090613eb457fe5b602002602001015185600181518110613ec957fe5b6020026020010151615878565b915091506000613eeb87600301548484615946565b905060b260039054906101000a90046001600160a01b03166001600160a01b0316637ff36ab58860030154838730613f2e60a6544261389490919063ffffffff16565b6040518663ffffffff1660e01b81526004018085815260200180602001846001600160a01b03166001600160a01b03168152602001838152602001828103825285818151815260200191508051906020019060200280838360005b83811015613fa1578181015183820152602001613f89565b50505050905001955050505050506000604051808303818588803b158015613fc857600080fd5b505af1158015613fdc573d6000803e3d6000fd5b50505050506040513d6000823e601f3d908101601f19168201604052602081101561400657600080fd5b8101908080516040519392919084600160201b82111561402557600080fd5b90830190602082018581111561403a57600080fd5b82518660208202830111600160201b8211171561405657600080fd5b82525081516020918201928201910280838360005b8381101561408357818101518382015260200161406b565b505050509050016040525050505060a360009054906101000a90046001600160a01b03166001600160a01b0316639cedea7c8860040160009054906101000a90046001600160a01b031689600001546040518363ffffffff1660e01b815260040180836001600160a01b03166001600160a01b0316815260200182815260200192505050600060405180830381600087803b15801561412157600080fd5b505af1158015614135573d6000803e3d6000fd5b505050600188015461415991506098906001600160a01b031663ffffffff61386316565b61287557600187015461417d906098906001600160a01b031663ffffffff61387f16565b506040517f796eca3f42c0bb26ab9d945608daa5f657732773735d17844171d38fadba3c8a90600090a150505050505050565b60b260039054906101000a90046001600160a01b03166001600160a01b031663ad5c46486040518163ffffffff1660e01b815260040160206040518083038186803b1580156141fe57600080fd5b505afa158015614212573d6000803e3d6000fd5b505050506040513d602081101561422857600080fd5b505160018201546001600160a01b03908116911614156143285760b260039054906101000a90046001600160a01b03166001600160a01b031663ad5c46486040518163ffffffff1660e01b815260040160206040518083038186803b15801561429057600080fd5b505afa1580156142a4573d6000803e3d6000fd5b505050506040513d60208110156142ba57600080fd5b5051600382015460408051632e1a7d4d60e01b81526004810192909252516001600160a01b0390921691632e1a7d4d9160248082019260009290919082900301818387803b15801561430b57600080fd5b505af115801561431f573d6000803e3d6000fd5b50505050613c76565b600181015460b25460038301546040805163095ea7b360e01b815263010000009093046001600160a01b039081166004850152602484019290925251921691829163095ea7b39160448083019260209291908290030181600087803b15801561439057600080fd5b505af11580156143a4573d6000803e3d6000fd5b505050506040513d60208110156143ba57600080fd5b50516143c557600080fd5b6040805160028082526060808301845292602083019080368337505050600184015481519192506001600160a01b031690829060009061440157fe5b60200260200101906001600160a01b031690816001600160a01b03168152505060b260039054906101000a90046001600160a01b03166001600160a01b031663ad5c46486040518163ffffffff1660e01b815260040160206040518083038186803b15801561446f57600080fd5b505afa158015614483573d6000803e3d6000fd5b505050506040513d602081101561449957600080fd5b50518151829060019081106144aa57fe5b60200260200101906001600160a01b031690816001600160a01b03168152505060008061451e60b260039054906101000a90046001600160a01b03166001600160a01b031663c45a01556040518163ffffffff1660e01b815260040160206040518083038186803b158015613e7b57600080fd5b91509150600061453386600301548484615946565b905060b260039054906101000a90046001600160a01b03166001600160a01b03166318cbafe5876003015483873061457660a6544261389490919063ffffffff16565b6040518663ffffffff1660e01b81526004018086815260200185815260200180602001846001600160a01b03166001600160a01b03168152602001838152602001828103825285818151815260200191508051906020019060200280838360005b838110156145ef5781810151838201526020016145d7565b505050509050019650505050505050600060405180830381600087803b15801561461857600080fd5b505af115801561462c573d6000803e3d6000fd5b505050506040513d6000823e601f3d908101601f19168201604052602081101561465557600080fd5b8101908080516040519392919084600160201b82111561467457600080fd5b90830190602082018581111561468957600080fd5b82518660208202830111600160201b821117156146a557600080fd5b82525081516020918201928201910280838360005b838110156146d25781810151838201526020016146ba565b505050509190910160408181526370a0823160e01b8252306004830152516001600160a01b038c1696506370a082319550602480830195506020945090925090829003018186803b15801561472657600080fd5b505afa15801561473a573d6000803e3d6000fd5b505050506040513d602081101561475057600080fd5b505115801561477a5750600186015461477a906098906001600160a01b031663ffffffff61386316565b156111dd57600186015461479f906098906001600160a01b031663ffffffff613c7916565b506040517f796eca3f42c0bb26ab9d945608daa5f657732773735d17844171d38fadba3c8a90600090a1505050505050565b600181015460b25460038301546040805163095ea7b360e01b815263010000009093046001600160a01b03908116600485015260248401929092525192169163095ea7b3916044808201926020929091908290030181600087803b15801561483857600080fd5b505af115801561484c573d6000803e3d6000fd5b505050506040513d602081101561486257600080fd5b505161486d57600080fd5b600060b260039054906101000a90046001600160a01b03166001600160a01b031663ad5c46486040518163ffffffff1660e01b815260040160206040518083038186803b1580156148bd57600080fd5b505afa1580156148d1573d6000803e3d6000fd5b505050506040513d60208110156148e757600080fd5b505160b2546040805163c45a015560e01b8152905192935060009283926149809263010000009091046001600160a01b03169163c45a015591600480820192602092909190829003018186803b15801561494057600080fd5b505afa158015614954573d6000803e3d6000fd5b505050506040513d602081101561496a57600080fd5b505160018601546001600160a01b031685615878565b91509150600061499585600301548484615a2a565b905060006149a1611dbf565b9050816149b0826118886122c5565b10156149bb57600080fd5b81811015614a27576001600160a01b03851663d0e30db06149e2848463ffffffff61396d16565b6040518263ffffffff1660e01b81526004016000604051808303818588803b158015614a0d57600080fd5b505af1158015614a21573d6000803e3d6000fd5b50505050505b60b254600187015460038801546001600160a01b03630100000090930483169263f305d719928692911690614a6860626064835b049063ffffffff61390a16565b614a75606260648a614a5b565b30614a8b60a6544261389490919063ffffffff16565b6040518863ffffffff1660e01b815260040180876001600160a01b03166001600160a01b03168152602001868152602001858152602001848152602001836001600160a01b03166001600160a01b0316815260200182815260200196505050505050506060604051808303818588803b158015614b0757600080fd5b505af1158015614b1b573d6000803e3d6000fd5b50505050506040513d6060811015614b3257600080fd5b50506001860154614b5490609a906001600160a01b031663ffffffff61386316565b6111dd576001860154614b7890609a906001600160a01b031663ffffffff61387f16565b506040517fbfdc4f1a88a60b1377c7d2124ded585f9ebd5a4c19238f911c00235116df819290600090a1505050505050565b6001810154600090614bc4906001600160a01b0316610d57565b60b25460038401546040805163095ea7b360e01b815263010000009093046001600160a01b03908116600485015260248401929092525192935083169163095ea7b3916044808201926020929091908290030181600087803b158015614c2957600080fd5b505af1158015614c3d573d6000803e3d6000fd5b505050506040513d6020811015614c5357600080fd5b5051614c5e57600080fd5b60b2546001830154600384015460a6546001600160a01b0363010000009094048416936302751cec9316919060009081903090614ca290429063ffffffff61389416565b6040518763ffffffff1660e01b815260040180876001600160a01b03166001600160a01b03168152602001868152602001858152602001848152602001836001600160a01b03166001600160a01b0316815260200182815260200196505050505050506040805180830381600087803b158015614d1e57600080fd5b505af1158015614d32573d6000803e3d6000fd5b505050506040513d6040811015614d4857600080fd5b50614d54905081613182565b158015614d7c57506001820154614d7c90609a906001600160a01b031663ffffffff61386316565b15613ae4576001820154614da190609a906001600160a01b031663ffffffff613c7916565b506040517fbfdc4f1a88a60b1377c7d2124ded585f9ebd5a4c19238f911c00235116df819290600090a15050565b6001810154614def90609c906001600160a01b031663ffffffff61386316565b15614df957600080fd5b60a35460018201546040805163912c267360e01b81526001600160a01b0392831660048201529051600093929092169163912c267391602480820192602092909190829003018186803b158015614e4f57600080fd5b505afa158015614e63573d6000803e3d6000fd5b505050506040513d6020811015614e7957600080fd5b50519050614e85612bd0565b811015614e9157600080fd5b6001820154614eb190609c906001600160a01b031663ffffffff61387f16565b506001820154604080516001600160a01b039092168252517fad6de4452a631e641cb59902236607946ce9272b9b981f2f80e8d129cb9084ba9181900360200190a15050565b6001810154614f1790609c906001600160a01b031663ffffffff61386316565b614f2057600080fd5b6001810154614f4090609c906001600160a01b031663ffffffff613c7916565b506001810154604080516001600160a01b039092168252517f753f40ca3312b2408759a67875b367955e7baa221daf08aa3d643d96202ac12b9181900360200190a150565b8060030154614f926122c5565b1015614f9d57600080fd5b600181015460038201546040516001600160a01b0390921691600081818185875af1925050503d8060008114614fef576040519150601f19603f3d011682016040523d82523d6000602084013e614ff4565b606091505b50505060028101546001600160a01b031615613c7657600281015461502a906098906001600160a01b031663ffffffff61386316565b613c765760028101546116b4906098906001600160a01b031663ffffffff61387f16565b60b254610100900460ff16156150845760ad546150749062093a8063ffffffff61389416565b421161507f57600080fd5b4260ad555b60008060006150916122c5565b60b254909150610100900460ff16156150c457600384015492506000915082600a820410156150bf57600080fd5b6151a7565b60a354604080516318160ddd60e01b815290516000926001600160a01b0316916318160ddd916004808301926020929190829003018186803b15801561510957600080fd5b505afa15801561511d573d6000803e3d6000fd5b505050506040513d602081101561513357600080fd5b50519050600061514b6151458361561c565b836156b8565b905080831161515957600080fd5b600386015461516e848363ffffffff61396d16565b101561517957600080fd5b61019086600301548161518857fe5b0493506151a284876003015461396d90919063ffffffff16565b945050505b60a454600385015460a3546040805163e4bfe25160e01b81526001600160a01b0392831660048201529051919093169263e4bfe2519291602480830192600092919082900301818588803b1580156151fe57600080fd5b505af1158015615212573d6000803e3d6000fd5b505060a35460408051634c5844e760e01b81526004810189905290516001600160a01b039092169450634c5844e79350602480820193506000929182900301818387803b15801561526257600080fd5b505af1158015615276573d6000803e3d6000fd5b505050506000821115613ae15760a25460408051634c5844e760e01b81526004810185905290516001600160a01b0390921691634c5844e79160248082019260009290919082900301818387803b1580156152d057600080fd5b505af11580156152e4573d6000803e3d6000fd5b5050505050505050565b60b254610100900460ff1661530257600080fd5b60a254600382015460408051630852cd8d60e31b81526004810192909252516001600160a01b03909216916342966c689160248082019260009290919082900301818387803b15801561535457600080fd5b505af1158015615368573d6000803e3d6000fd5b5050505050565b6003015460ae55565b6003015460a855565b6003015460a955565b6003015460aa55565b6003015460ac55565b6003015460af55565b6003015460b155565b600080826001600160a01b0316846001600160a01b031614156154025760405162461bcd60e51b8152600401808060200182810382526025815260200180615ba26025913960400191505060405180910390fd5b826001600160a01b0316846001600160a01b031610615422578284615425565b83835b90925090506001600160a01b038216615485576040805162461bcd60e51b815260206004820152601e60248201527f556e697377617056324c6962726172793a205a45524f5f414444524553530000604482015290519081900360640190fd5b9250929050565b60009081526001919091016020526040902054151590565b60006154b0838361548c565b6154e65750815460018181018455600084815260208082209093018490558454848252828601909352604090209190915561260d565b50600061260d565b5490565b815460009082106155345760405162461bcd60e51b8152600401808060200182810382526022815260200180615b5a6022913960400191505060405180910390fd5b82600001828154811061554357fe5b9060005260206000200154905092915050565b60008181526001830160205260408120548015615612578354600019808301919081019060009087908390811061558957fe5b90600052602060002001549050808760000184815481106155a657fe5b6000918252602080832090910192909255828152600189810190925260409020908401905586548790806155d657fe5b6001900381819060005260206000200160009055905586600101600087815260200190815260200160002060009055600194505050505061260d565b600091505061260d565b60a354604080516370a0823160e01b8152306004820152905160009283926001600160a01b03909116916370a0823191602480820192602092909190829003018186803b15801561566c57600080fd5b505afa158015615680573d6000803e3d6000fd5b505050506040513d602081101561569657600080fd5b50519050806156a85782915050610e55565b613878838263ffffffff61396d16565b6000816156d08460a75461390a90919063ffffffff16565b816156d757fe5b049392505050565b600054610100900460ff16806156f857506156f8613bc1565b80615706575060005460ff16155b6157415760405162461bcd60e51b815260040180806020018281038252602e815260200180615c0f602e913960400191505060405180910390fd5b600054610100900460ff16158015613c64576000805460ff1961ff0019909116610100171660011790558015613c76576000805461ff001916905550565b600054610100900460ff16806157985750615798613bc1565b806157a6575060005460ff16155b6157e15760405162461bcd60e51b815260040180806020018281038252602e815260200180615c0f602e913960400191505060405180910390fd5b600054610100900460ff1615801561580c576000805460ff1961ff0019909116610100171660011790555b6000615816613906565b606580546001600160a01b0319166001600160a01b038316908117909155604051919250906000907f8be0079c531659141344cd1fd0a4f28419497f9722a3daafe3b4186f6b6457e0908290a3508015613c76576000805461ff001916905550565b600080600061588785856153ae565b5090506000806158988888886137a3565b6001600160a01b0316630902f1ac6040518163ffffffff1660e01b815260040160606040518083038186803b1580156158d057600080fd5b505afa1580156158e4573d6000803e3d6000fd5b505050506040513d60608110156158fa57600080fd5b5080516020909101516dffffffffffffffffffffffffffff91821693501690506001600160a01b0387811690841614615934578082615937565b81815b90999098509650505050505050565b60008084116159865760405162461bcd60e51b815260040180806020018281038252602b815260200180615c62602b913960400191505060405180910390fd5b6000831180156159965750600082115b6159d15760405162461bcd60e51b8152600401808060200182810382526028815260200180615bc76028913960400191505060405180910390fd5b60006159e5856103e563ffffffff61390a16565b905060006159f9828563ffffffff61390a16565b90506000615a1383611888886103e863ffffffff61390a16565b9050808281615a1e57fe5b04979650505050505050565b6000808411615a6a5760405162461bcd60e51b8152600401808060200182810382526025815260200180615c3d6025913960400191505060405180910390fd5b600083118015615a7a5750600082115b615ab55760405162461bcd60e51b8152600401808060200182810382526028815260200180615bc76028913960400191505060405180910390fd5b82615ac6858463ffffffff61390a16565b81615acd57fe5b04949350505050565b5080546000825590600052602060002090810190613c769190615b3f565b828054828255906000526020600020908101928215615b2f579160200282015b82811115615b2f578251825591602001919060010190615b14565b50615b3b929150615b3f565b5090565b610d5491905b80821115615b3b5760008155600101615b4556fe456e756d657261626c655365743a20696e646578206f7574206f6620626f756e64734f776e61626c653a206e6577206f776e657220697320746865207a65726f2061646472657373556e697377617056324c6962726172793a204944454e544943414c5f414444524553534553556e697377617056324c6962726172793a20494e53554646494349454e545f4c49515549444954594f776e61626c653a2063616c6c6572206973206e6f7420746865206f776e6572436f6e747261637420696e7374616e63652068617320616c7265616479206265656e20696e697469616c697a6564556e697377617056324c6962726172793a20494e53554646494349454e545f414d4f554e54556e697377617056324c6962726172793a20494e53554646494349454e545f494e5055545f414d4f554e54a264697066735822122001c5d8032483fbd6c46de30ee3f5c132dc400277dcf93cc2e21df1687f94238764736f6c63430006060033436f6e747261637420696e7374616e63652068617320616c7265616479206265656e20696e697469616c697a6564"}}