{"compiler":"v0.8.0+commit.c7dfd78e","opcodeHash":"0x1bbbfb41e1ef1c24ac5c229d420c43e1d52c93c7292e9142a7ccbeb38818f8c3","metalessHash":"0x99b22fbb8429543d6ea7eadd4ced02415a36b4e90ba2530950cd419331a67e95","runtimeHash":"0x06d0bf0a7714fec5fb9d60eea5b5385e718efd388fb5b47a1b21b46f38ab6ead","encodedMetadata":[{"ipfs":"/ipfs/QmfC11ZcJQ9x8yd5bitdp3ayAefHSj8Z1QLNZ2cXqtRibw","solc":"0.8.0"}],"abi":[{"inputs":[{"internalType":"contract DXXToken","name":"_dxx","type":"address"},{"internalType":"address","name":"_devaddr","type":"address"},{"internalType":"uint256","name":"_dxxPerBlock","type":"uint256"},{"internalType":"uint256","name":"_startBlock","type":"uint256"},{"internalType":"uint256","name":"_bonusEndBlock","type":"uint256"}],"stateMutability":"nonpayable","type":"constructor"},{"anonymous":false,"inputs":[{"indexed":true,"internalType":"address","name":"user","type":"address"},{"indexed":true,"internalType":"uint256","name":"pid","type":"uint256"},{"indexed":false,"internalType":"uint256","name":"amount","type":"uint256"}],"name":"Deposit","type":"event"},{"anonymous":false,"inputs":[{"indexed":true,"internalType":"address","name":"user","type":"address"},{"indexed":true,"internalType":"uint256","name":"pid","type":"uint256"},{"indexed":false,"internalType":"uint256","name":"amount","type":"uint256"}],"name":"EmergencyWithdraw","type":"event"},{"anonymous":false,"inputs":[{"indexed":true,"internalType":"address","name":"previousOwner","type":"address"},{"indexed":true,"internalType":"address","name":"newOwner","type":"address"}],"name":"OwnershipTransferred","type":"event"},{"anonymous":false,"inputs":[{"indexed":true,"internalType":"address","name":"user","type":"address"},{"indexed":true,"internalType":"uint256","name":"pid","type":"uint256"},{"indexed":false,"internalType":"uint256","name":"amount","type":"uint256"}],"name":"Withdraw","type":"event"},{"inputs":[],"name":"BONUS_MULTIPLIER","outputs":[{"internalType":"uint256","name":"","type":"uint256"}],"stateMutability":"view","type":"function"},{"inputs":[{"internalType":"uint256","name":"_allocPoint","type":"uint256"},{"internalType":"contract IERC20","name":"_lpToken","type":"address"},{"internalType":"bool","name":"_withUpdate","type":"bool"}],"name":"add","outputs":[],"stateMutability":"nonpayable","type":"function"},{"inputs":[],"name":"bonusEndBlock","outputs":[{"internalType":"uint256","name":"","type":"uint256"}],"stateMutability":"view","type":"function"},{"inputs":[{"internalType":"uint256","name":"_pid","type":"uint256"},{"internalType":"uint256","name":"_amount","type":"uint256"}],"name":"deposit","outputs":[],"stateMutability":"nonpayable","type":"function"},{"inputs":[{"internalType":"address","name":"_devaddr","type":"address"}],"name":"dev","outputs":[],"stateMutability":"nonpayable","type":"function"},{"inputs":[],"name":"devaddr","outputs":[{"internalType":"address","name":"","type":"address"}],"stateMutability":"view","type":"function"},{"inputs":[],"name":"dxx","outputs":[{"internalType":"contract DXXToken","name":"","type":"address"}],"stateMutability":"view","type":"function"},{"inputs":[],"name":"dxxPerBlock","outputs":[{"internalType":"uint256","name":"","type":"uint256"}],"stateMutability":"view","type":"function"},{"inputs":[{"internalType":"uint256","name":"_pid","type":"uint256"}],"name":"emergencyWithdraw","outputs":[],"stateMutability":"nonpayable","type":"function"},{"inputs":[{"internalType":"uint256","name":"_from","type":"uint256"},{"internalType":"uint256","name":"_to","type":"uint256"}],"name":"getMultiplier","outputs":[{"internalType":"uint256","name":"","type":"uint256"}],"stateMutability":"view","type":"function"},{"inputs":[],"name":"massUpdatePools","outputs":[],"stateMutability":"nonpayable","type":"function"},{"inputs":[{"internalType":"uint256","name":"_pid","type":"uint256"}],"name":"migrate","outputs":[],"stateMutability":"nonpayable","type":"function"},{"inputs":[],"name":"migrator","outputs":[{"internalType":"contract IMigratorChef","name":"","type":"address"}],"stateMutability":"view","type":"function"},{"inputs":[],"name":"owner","outputs":[{"internalType":"address","name":"","type":"address"}],"stateMutability":"view","type":"function"},{"inputs":[{"internalType":"uint256","name":"_pid","type":"uint256"},{"internalType":"address","name":"_user","type":"address"}],"name":"pendingdxx","outputs":[{"internalType":"uint256","name":"","type":"uint256"}],"stateMutability":"view","type":"function"},{"inputs":[{"internalType":"uint256","name":"","type":"uint256"}],"name":"poolInfo","outputs":[{"internalType":"contract IERC20","name":"lpToken","type":"address"},{"internalType":"uint256","name":"allocPoint","type":"uint256"},{"internalType":"uint256","name":"lastRewardBlock","type":"uint256"},{"internalType":"uint256","name":"accdxxPerShare","type":"uint256"}],"stateMutability":"view","type":"function"},{"inputs":[],"name":"poolLength","outputs":[{"internalType":"uint256","name":"","type":"uint256"}],"stateMutability":"view","type":"function"},{"inputs":[],"name":"renounceOwnership","outputs":[],"stateMutability":"nonpayable","type":"function"},{"inputs":[{"internalType":"uint256","name":"_pid","type":"uint256"},{"internalType":"uint256","name":"_allocPoint","type":"uint256"},{"internalType":"bool","name":"_withUpdate","type":"bool"}],"name":"set","outputs":[],"stateMutability":"nonpayable","type":"function"},{"inputs":[{"internalType":"contract IMigratorChef","name":"_migrator","type":"address"}],"name":"setMigrator","outputs":[],"stateMutability":"nonpayable","type":"function"},{"inputs":[],"name":"startBlock","outputs":[{"internalType":"uint256","name":"","type":"uint256"}],"stateMutability":"view","type":"function"},{"inputs":[],"name":"totalAllocPoint","outputs":[{"internalType":"uint256","name":"","type":"uint256"}],"stateMutability":"view","type":"function"},{"inputs":[{"internalType":"address","name":"newOwner","type":"address"}],"name":"transferOwnership","outputs":[],"stateMutability":"nonpayable","type":"function"},{"inputs":[{"internalType":"uint256","name":"_pid","type":"uint256"}],"name":"updatePool","outputs":[],"stateMutability":"nonpayable","type":"function"},{"inputs":[{"internalType":"uint256","name":"","type":"uint256"},{"internalType":"address","name":"","type":"address"}],"name":"userInfo","outputs":[{"internalType":"uint256","name":"amount","type":"uint256"},{"internalType":"uint256","name":"rewardDebt","type":"uint256"}],"stateMutability":"view","type":"function"},{"inputs":[{"internalType":"uint256","name":"_pid","type":"uint256"},{"internalType":"uint256","name":"_amount","type":"uint256"}],"name":"withdraw","outputs":[],"stateMutability":"nonpayable","type":"function"}],"bytecode":{"object":"608060405260006008553480156200001657600080fd5b50604051620034473803806200344783398181016040528101906200003c91906200020f565b6200005c62000050620000fe60201b60201c565b6200010660201b60201c565b84600160006101000a81548173ffffffffffffffffffffffffffffffffffffffff021916908373ffffffffffffffffffffffffffffffffffffffff16021790555083600260006101000a81548173ffffffffffffffffffffffffffffffffffffffff021916908373ffffffffffffffffffffffffffffffffffffffff160217905550826004819055508060038190555081600981905550505050505062000331565b600033905090565b60008060009054906101000a900473ffffffffffffffffffffffffffffffffffffffff169050816000806101000a81548173ffffffffffffffffffffffffffffffffffffffff021916908373ffffffffffffffffffffffffffffffffffffffff1602179055508173ffffffffffffffffffffffffffffffffffffffff168173ffffffffffffffffffffffffffffffffffffffff167f8be0079c531659141344cd1fd0a4f28419497f9722a3daafe3b4186f6b6457e060405160405180910390a35050565b600081519050620001db81620002e3565b92915050565b600081519050620001f281620002fd565b92915050565b600081519050620002098162000317565b92915050565b600080600080600060a086880312156200022857600080fd5b60006200023888828901620001e1565b95505060206200024b88828901620001ca565b94505060406200025e88828901620001f8565b93505060606200027188828901620001f8565b92505060806200028488828901620001f8565b9150509295509295909350565b60006200029e82620002b9565b9050919050565b6000620002b28262000291565b9050919050565b600073ffffffffffffffffffffffffffffffffffffffff82169050919050565b6000819050919050565b620002ee8162000291565b8114620002fa57600080fd5b50565b6200030881620002a5565b81146200031457600080fd5b50565b6200032281620002d9565b81146200032e57600080fd5b50565b61310680620003416000396000f3fe608060405234801561001057600080fd5b506004361061018e5760003560e01c806364482f79116100de5780638dbb1e3a11610097578063af64bd9711610071578063af64bd971461043b578063d49e77cd14610459578063e2bbb15814610477578063f2fde38b146104935761018e565b80638dbb1e3a146103aa57806393f1a40b146103da578063a7c45c5c1461040b5761018e565b806364482f791461030e578063715018a61461032a5780637cd07e47146103345780638aa28550146103525780638d88a90e146103705780638da5cb5b1461038c5761018e565b80632b5dbb511161014b57806348cd4cb11161012557806348cd4cb1146102ae57806351eb05a6146102cc5780635312ea8e146102e8578063630b5ba1146103045761018e565b80632b5dbb5114610258578063441a3e7014610276578063454b0608146102925761018e565b8063081e3eda146101935780631526fe27146101b157806317caf6f1146101e45780631aed6553146102025780631eaaa0451461022057806323cf31181461023c575b600080fd5b61019b6104af565b6040516101a89190612d0f565b60405180910390f35b6101cb60048036038101906101c69190612527565b6104bc565b6040516101db9493929190612b4d565b60405180910390f35b6101ec61051c565b6040516101f99190612d0f565b60405180910390f35b61020a610522565b6040516102179190612d0f565b60405180910390f35b61023a600480360381019061023591906125b5565b610528565b005b610256600480360381019061025191906124fe565b6106b5565b005b610260610775565b60405161026d9190612b17565b60405180910390f35b610290600480360381019061028b9190612604565b61079b565b005b6102ac60048036038101906102a79190612527565b6109df565b005b6102b6610d85565b6040516102c39190612d0f565b60405180910390f35b6102e660048036038101906102e19190612527565b610d8b565b005b61030260048036038101906102fd9190612527565b6110b3565b005b61030c611212565b005b61032860048036038101906103239190612640565b611245565b005b61033261139d565b005b61033c611425565b6040516103499190612b92565b60405180910390f35b61035a61144b565b6040516103679190612d0f565b60405180910390f35b61038a60048036038101906103859190612483565b611450565b005b610394611524565b6040516103a19190612a73565b60405180910390f35b6103c460048036038101906103bf9190612604565b61154d565b6040516103d19190612d0f565b60405180910390f35b6103f460048036038101906103ef9190612579565b6115ff565b604051610402929190612d2a565b60405180910390f35b61042560048036038101906104209190612579565b611630565b6040516104329190612d0f565b60405180910390f35b61044361188a565b6040516104509190612d0f565b60405180910390f35b610461611890565b60405161046e9190612a73565b60405180910390f35b610491600480360381019061048c9190612604565b6118b6565b005b6104ad60048036038101906104a89190612483565b611ac3565b005b6000600680549050905090565b600681815481106104cc57600080fd5b90600052602060002090600402016000915090508060000160009054906101000a900473ffffffffffffffffffffffffffffffffffffffff16908060010154908060020154908060030154905084565b60085481565b60035481565b610530611bbb565b73ffffffffffffffffffffffffffffffffffffffff1661054e611524565b73ffffffffffffffffffffffffffffffffffffffff16146105a4576040517f08c379a000000000000000000000000000000000000000000000000000000000815260040161059b90612c2f565b60405180910390fd5b80156105b3576105b2611212565b5b600060095443116105c6576009546105c8565b435b90506105df84600854611bc390919063ffffffff16565b600881905550600660405180608001604052808573ffffffffffffffffffffffffffffffffffffffff1681526020018681526020018381526020016000815250908060018154018082558091505060019003906000526020600020906004020160009091909190915060008201518160000160006101000a81548173ffffffffffffffffffffffffffffffffffffffff021916908373ffffffffffffffffffffffffffffffffffffffff160217905550602082015181600101556040820151816002015560608201518160030155505050505050565b6106bd611bbb565b73ffffffffffffffffffffffffffffffffffffffff166106db611524565b73ffffffffffffffffffffffffffffffffffffffff1614610731576040517f08c379a000000000000000000000000000000000000000000000000000000000815260040161072890612c2f565b60405180910390fd5b80600560006101000a81548173ffffffffffffffffffffffffffffffffffffffff021916908373ffffffffffffffffffffffffffffffffffffffff16021790555050565b600160009054906101000a900473ffffffffffffffffffffffffffffffffffffffff1681565b6000600683815481106107d7577f4e487b7100000000000000000000000000000000000000000000000000000000600052603260045260246000fd5b9060005260206000209060040201905060006007600085815260200190815260200160002060003373ffffffffffffffffffffffffffffffffffffffff1673ffffffffffffffffffffffffffffffffffffffff16815260200190815260200160002090508281600001541015610882576040517f08c379a000000000000000000000000000000000000000000000000000000000815260040161087990612c6f565b60405180910390fd5b61088b84610d8b565b60006108d582600101546108c764e8d4a510006108b987600301548760000154611bd990919063ffffffff16565b611bef90919063ffffffff16565b611c0590919063ffffffff16565b90506108e13382611c1b565b6108f8848360000154611c0590919063ffffffff16565b826000018190555061093264e8d4a5100061092485600301548560000154611bd990919063ffffffff16565b611bef90919063ffffffff16565b826001018190555061098933858560000160009054906101000a900473ffffffffffffffffffffffffffffffffffffffff1673ffffffffffffffffffffffffffffffffffffffff16611e3d9092919063ffffffff16565b843373ffffffffffffffffffffffffffffffffffffffff167ff279e6a1f5e320cca91135676d9cb6e44ca8a08c0b88342bcdb1144f6511b568866040516109d09190612d0f565b60405180910390a35050505050565b600073ffffffffffffffffffffffffffffffffffffffff16600560009054906101000a900473ffffffffffffffffffffffffffffffffffffffff1673ffffffffffffffffffffffffffffffffffffffff161415610a71576040517f08c379a0000000000000000000000000000000000000000000000000000000008152600401610a6890612cef565b60405180910390fd5b600060068281548110610aad577f4e487b7100000000000000000000000000000000000000000000000000000000600052603260045260246000fd5b9060005260206000209060040201905060008160000160009054906101000a900473ffffffffffffffffffffffffffffffffffffffff16905060008173ffffffffffffffffffffffffffffffffffffffff166370a08231306040518263ffffffff1660e01b8152600401610b219190612a73565b60206040518083038186803b158015610b3957600080fd5b505afa158015610b4d573d6000803e3d6000fd5b505050506040513d601f19601f82011682018060405250810190610b719190612550565b9050610bc0600560009054906101000a900473ffffffffffffffffffffffffffffffffffffffff16828473ffffffffffffffffffffffffffffffffffffffff16611ec39092919063ffffffff16565b6000600560009054906101000a900473ffffffffffffffffffffffffffffffffffffffff1673ffffffffffffffffffffffffffffffffffffffff1663ce5494bb846040518263ffffffff1660e01b8152600401610c1d9190612b32565b602060405180830381600087803b158015610c3757600080fd5b505af1158015610c4b573d6000803e3d6000fd5b505050506040513d601f19601f82011682018060405250810190610c6f91906124d5565b90508073ffffffffffffffffffffffffffffffffffffffff166370a08231306040518263ffffffff1660e01b8152600401610caa9190612a73565b60206040518083038186803b158015610cc257600080fd5b505afa158015610cd6573d6000803e3d6000fd5b505050506040513d601f19601f82011682018060405250810190610cfa9190612550565b8214610d3b576040517f08c379a0000000000000000000000000000000000000000000000000000000008152600401610d3290612caf565b60405180910390fd5b808460000160006101000a81548173ffffffffffffffffffffffffffffffffffffffff021916908373ffffffffffffffffffffffffffffffffffffffff1602179055505050505050565b60095481565b600060068281548110610dc7577f4e487b7100000000000000000000000000000000000000000000000000000000600052603260045260246000fd5b9060005260206000209060040201905080600201544311610de857506110b0565b60008160000160009054906101000a900473ffffffffffffffffffffffffffffffffffffffff1673ffffffffffffffffffffffffffffffffffffffff166370a08231306040518263ffffffff1660e01b8152600401610e479190612a73565b60206040518083038186803b158015610e5f57600080fd5b505afa158015610e73573d6000803e3d6000fd5b505050506040513d601f19601f82011682018060405250810190610e979190612550565b90506000811415610eb25743826002018190555050506110b0565b6000610ec283600201544361154d565b90506000610f05600854610ef78660010154610ee960045487611bd990919063ffffffff16565b611bd990919063ffffffff16565b611bef90919063ffffffff16565b9050600160009054906101000a900473ffffffffffffffffffffffffffffffffffffffff1673ffffffffffffffffffffffffffffffffffffffff166340c10f19600260009054906101000a900473ffffffffffffffffffffffffffffffffffffffff16610f7c600a85611bef90919063ffffffff16565b6040518363ffffffff1660e01b8152600401610f99929190612aee565b600060405180830381600087803b158015610fb357600080fd5b505af1158015610fc7573d6000803e3d6000fd5b50505050600160009054906101000a900473ffffffffffffffffffffffffffffffffffffffff1673ffffffffffffffffffffffffffffffffffffffff166340c10f1930836040518363ffffffff1660e01b8152600401611028929190612aee565b600060405180830381600087803b15801561104257600080fd5b505af1158015611056573d6000803e3d6000fd5b5050505061109a6110878461107964e8d4a5100085611bd990919063ffffffff16565b611bef90919063ffffffff16565b8560030154611bc390919063ffffffff16565b8460030181905550438460020181905550505050505b50565b6000600682815481106110ef577f4e487b7100000000000000000000000000000000000000000000000000000000600052603260045260246000fd5b9060005260206000209060040201905060006007600084815260200190815260200160002060003373ffffffffffffffffffffffffffffffffffffffff1673ffffffffffffffffffffffffffffffffffffffff16815260200190815260200160002090506111a63382600001548460000160009054906101000a900473ffffffffffffffffffffffffffffffffffffffff1673ffffffffffffffffffffffffffffffffffffffff16611e3d9092919063ffffffff16565b823373ffffffffffffffffffffffffffffffffffffffff167fbb757047c2b5f3974fe26b7c10f732e7bce710b0952a71082702781e62ae059583600001546040516111f19190612d0f565b60405180910390a36000816000018190555060008160010181905550505050565b6000600680549050905060005b818110156112415761123081610d8b565b8061123a90612fa5565b905061121f565b5050565b61124d611bbb565b73ffffffffffffffffffffffffffffffffffffffff1661126b611524565b73ffffffffffffffffffffffffffffffffffffffff16146112c1576040517f08c379a00000000000000000000000000000000000000000000000000000000081526004016112b890612c2f565b60405180910390fd5b80156112d0576112cf611212565b5b6113428261133460068681548110611311577f4e487b7100000000000000000000000000000000000000000000000000000000600052603260045260246000fd5b906000526020600020906004020160010154600854611c0590919063ffffffff16565b611bc390919063ffffffff16565b6008819055508160068481548110611383577f4e487b7100000000000000000000000000000000000000000000000000000000600052603260045260246000fd5b906000526020600020906004020160010181905550505050565b6113a5611bbb565b73ffffffffffffffffffffffffffffffffffffffff166113c3611524565b73ffffffffffffffffffffffffffffffffffffffff1614611419576040517f08c379a000000000000000000000000000000000000000000000000000000000815260040161141090612c2f565b60405180910390fd5b6114236000612021565b565b600560009054906101000a900473ffffffffffffffffffffffffffffffffffffffff1681565b600a81565b600260009054906101000a900473ffffffffffffffffffffffffffffffffffffffff1673ffffffffffffffffffffffffffffffffffffffff163373ffffffffffffffffffffffffffffffffffffffff16146114e0576040517f08c379a00000000000000000000000000000000000000000000000000000000081526004016114d790612c0f565b60405180910390fd5b80600260006101000a81548173ffffffffffffffffffffffffffffffffffffffff021916908373ffffffffffffffffffffffffffffffffffffffff16021790555050565b60008060009054906101000a900473ffffffffffffffffffffffffffffffffffffffff16905090565b600060035482116115855761157e600a6115708585611c0590919063ffffffff16565b611bd990919063ffffffff16565b90506115f9565b60035483106115a8576115a18383611c0590919063ffffffff16565b90506115f9565b6115f66115c060035484611c0590919063ffffffff16565b6115e8600a6115da87600354611c0590919063ffffffff16565b611bd990919063ffffffff16565b611bc390919063ffffffff16565b90505b92915050565b6007602052816000526040600020602052806000526040600020600091509150508060000154908060010154905082565b6000806006848154811061166d577f4e487b7100000000000000000000000000000000000000000000000000000000600052603260045260246000fd5b9060005260206000209060040201905060006007600086815260200190815260200160002060008573ffffffffffffffffffffffffffffffffffffffff1673ffffffffffffffffffffffffffffffffffffffff168152602001908152602001600020905060008260030154905060008360000160009054906101000a900473ffffffffffffffffffffffffffffffffffffffff1673ffffffffffffffffffffffffffffffffffffffff166370a08231306040518263ffffffff1660e01b81526004016117399190612a73565b60206040518083038186803b15801561175157600080fd5b505afa158015611765573d6000803e3d6000fd5b505050506040513d601f19601f820116820180604052508101906117899190612550565b905083600201544311801561179f575060008114155b1561183a5760006117b485600201544361154d565b905060006117f76008546117e988600101546117db60045487611bd990919063ffffffff16565b611bd990919063ffffffff16565b611bef90919063ffffffff16565b90506118356118268461181864e8d4a5100085611bd990919063ffffffff16565b611bef90919063ffffffff16565b85611bc390919063ffffffff16565b935050505b61187e836001015461187064e8d4a51000611862868860000154611bd990919063ffffffff16565b611bef90919063ffffffff16565b611c0590919063ffffffff16565b94505050505092915050565b60045481565b600260009054906101000a900473ffffffffffffffffffffffffffffffffffffffff1681565b6000600683815481106118f2577f4e487b7100000000000000000000000000000000000000000000000000000000600052603260045260246000fd5b9060005260206000209060040201905060006007600085815260200190815260200160002060003373ffffffffffffffffffffffffffffffffffffffff1673ffffffffffffffffffffffffffffffffffffffff168152602001908152602001600020905061195f84610d8b565b6000816000015411156119c45760006119b682600101546119a864e8d4a5100061199a87600301548760000154611bd990919063ffffffff16565b611bef90919063ffffffff16565b611c0590919063ffffffff16565b90506119c23382611c1b565b505b611a153330858560000160009054906101000a900473ffffffffffffffffffffffffffffffffffffffff1673ffffffffffffffffffffffffffffffffffffffff166120e5909392919063ffffffff16565b611a2c838260000154611bc390919063ffffffff16565b8160000181905550611a6664e8d4a51000611a5884600301548460000154611bd990919063ffffffff16565b611bef90919063ffffffff16565b8160010181905550833373ffffffffffffffffffffffffffffffffffffffff167f90890809c654f11d6e72a28fa60149770a0d11ec6c92319d6ceb2bb0a4ea1a1585604051611ab59190612d0f565b60405180910390a350505050565b611acb611bbb565b73ffffffffffffffffffffffffffffffffffffffff16611ae9611524565b73ffffffffffffffffffffffffffffffffffffffff1614611b3f576040517f08c379a0000000000000000000000000000000000000000000000000000000008152600401611b3690612c2f565b60405180910390fd5b600073ffffffffffffffffffffffffffffffffffffffff168173ffffffffffffffffffffffffffffffffffffffff161415611baf576040517f08c379a0000000000000000000000000000000000000000000000000000000008152600401611ba690612bcf565b60405180910390fd5b611bb881612021565b50565b600033905090565b60008183611bd19190612d85565b905092915050565b60008183611be79190612e0c565b905092915050565b60008183611bfd9190612ddb565b905092915050565b60008183611c139190612e66565b905092915050565b6000600160009054906101000a900473ffffffffffffffffffffffffffffffffffffffff1673ffffffffffffffffffffffffffffffffffffffff166370a08231306040518263ffffffff1660e01b8152600401611c789190612a73565b60206040518083038186803b158015611c9057600080fd5b505afa158015611ca4573d6000803e3d6000fd5b505050506040513d601f19601f82011682018060405250810190611cc89190612550565b905080821115611d8757600160009054906101000a900473ffffffffffffffffffffffffffffffffffffffff1673ffffffffffffffffffffffffffffffffffffffff1663a9059cbb84836040518363ffffffff1660e01b8152600401611d2f929190612aee565b602060405180830381600087803b158015611d4957600080fd5b505af1158015611d5d573d6000803e3d6000fd5b505050506040513d601f19601f82011682018060405250810190611d8191906124ac565b50611e38565b600160009054906101000a900473ffffffffffffffffffffffffffffffffffffffff1673ffffffffffffffffffffffffffffffffffffffff1663a9059cbb84846040518363ffffffff1660e01b8152600401611de4929190612aee565b602060405180830381600087803b158015611dfe57600080fd5b505af1158015611e12573d6000803e3d6000fd5b505050506040513d601f19601f82011682018060405250810190611e3691906124ac565b505b505050565b611ebe8363a9059cbb60e01b8484604051602401611e5c929190612aee565b604051602081830303815290604052907bffffffffffffffffffffffffffffffffffffffffffffffffffffffff19166020820180517bffffffffffffffffffffffffffffffffffffffffffffffffffffffff838183161783525050505061216e565b505050565b6000811480611f5c575060008373ffffffffffffffffffffffffffffffffffffffff1663dd62ed3e30856040518363ffffffff1660e01b8152600401611f0a929190612a8e565b60206040518083038186803b158015611f2257600080fd5b505afa158015611f36573d6000803e3d6000fd5b505050506040513d601f19601f82011682018060405250810190611f5a9190612550565b145b611f9b576040517f08c379a0000000000000000000000000000000000000000000000000000000008152600401611f9290612ccf565b60405180910390fd5b61201c8363095ea7b360e01b8484604051602401611fba929190612aee565b604051602081830303815290604052907bffffffffffffffffffffffffffffffffffffffffffffffffffffffff19166020820180517bffffffffffffffffffffffffffffffffffffffffffffffffffffffff838183161783525050505061216e565b505050565b60008060009054906101000a900473ffffffffffffffffffffffffffffffffffffffff169050816000806101000a81548173ffffffffffffffffffffffffffffffffffffffff021916908373ffffffffffffffffffffffffffffffffffffffff1602179055508173ffffffffffffffffffffffffffffffffffffffff168173ffffffffffffffffffffffffffffffffffffffff167f8be0079c531659141344cd1fd0a4f28419497f9722a3daafe3b4186f6b6457e060405160405180910390a35050565b612168846323b872dd60e01b85858560405160240161210693929190612ab7565b604051602081830303815290604052907bffffffffffffffffffffffffffffffffffffffffffffffffffffffff19166020820180517bffffffffffffffffffffffffffffffffffffffffffffffffffffffff838183161783525050505061216e565b50505050565b60006121d0826040518060400160405280602081526020017f5361666545524332303a206c6f772d6c6576656c2063616c6c206661696c65648152508573ffffffffffffffffffffffffffffffffffffffff166122359092919063ffffffff16565b905060008151111561223057808060200190518101906121f091906124ac565b61222f576040517f08c379a000000000000000000000000000000000000000000000000000000000815260040161222690612c8f565b60405180910390fd5b5b505050565b6060612244848460008561224d565b90509392505050565b606082471015612292576040517f08c379a000000000000000000000000000000000000000000000000000000000815260040161228990612bef565b60405180910390fd5b61229b85612361565b6122da576040517f08c379a00000000000000000000000000000000000000000000000000000000081526004016122d190612c4f565b60405180910390fd5b6000808673ffffffffffffffffffffffffffffffffffffffff1685876040516123039190612a5c565b60006040518083038185875af1925050503d8060008114612340576040519150601f19603f3d011682016040523d82523d6000602084013e612345565b606091505b5091509150612355828286612374565b92505050949350505050565b600080823b905060008111915050919050565b60608315612384578290506123d4565b6000835111156123975782518084602001fd5b816040517f08c379a00000000000000000000000000000000000000000000000000000000081526004016123cb9190612bad565b60405180910390fd5b9392505050565b6000813590506123ea8161305d565b92915050565b6000813590506123ff81613074565b92915050565b60008151905061241481613074565b92915050565b6000813590506124298161308b565b92915050565b60008151905061243e8161308b565b92915050565b600081359050612453816130a2565b92915050565b600081359050612468816130b9565b92915050565b60008151905061247d816130b9565b92915050565b60006020828403121561249557600080fd5b60006124a3848285016123db565b91505092915050565b6000602082840312156124be57600080fd5b60006124cc84828501612405565b91505092915050565b6000602082840312156124e757600080fd5b60006124f58482850161242f565b91505092915050565b60006020828403121561251057600080fd5b600061251e84828501612444565b91505092915050565b60006020828403121561253957600080fd5b600061254784828501612459565b91505092915050565b60006020828403121561256257600080fd5b60006125708482850161246e565b91505092915050565b6000806040838503121561258c57600080fd5b600061259a85828601612459565b92505060206125ab858286016123db565b9150509250929050565b6000806000606084860312156125ca57600080fd5b60006125d886828701612459565b93505060206125e98682870161241a565b92505060406125fa868287016123f0565b9150509250925092565b6000806040838503121561261757600080fd5b600061262585828601612459565b925050602061263685828601612459565b9150509250929050565b60008060006060848603121561265557600080fd5b600061266386828701612459565b935050602061267486828701612459565b9250506040612685868287016123f0565b9150509250925092565b61269881612e9a565b82525050565b60006126a982612d53565b6126b38185612d69565b93506126c3818560208601612f72565b80840191505092915050565b6126d881612f06565b82525050565b6126e781612f2a565b82525050565b6126f681612f4e565b82525050565b600061270782612d5e565b6127118185612d74565b9350612721818560208601612f72565b61272a8161304c565b840191505092915050565b6000612742602683612d74565b91507f4f776e61626c653a206e6577206f776e657220697320746865207a65726f206160008301527f64647265737300000000000000000000000000000000000000000000000000006020830152604082019050919050565b60006127a8602683612d74565b91507f416464726573733a20696e73756666696369656e742062616c616e636520666f60008301527f722063616c6c00000000000000000000000000000000000000000000000000006020830152604082019050919050565b600061280e600983612d74565b91507f6465763a207775743f00000000000000000000000000000000000000000000006000830152602082019050919050565b600061284e602083612d74565b91507f4f776e61626c653a2063616c6c6572206973206e6f7420746865206f776e65726000830152602082019050919050565b600061288e601d83612d74565b91507f416464726573733a2063616c6c20746f206e6f6e2d636f6e74726163740000006000830152602082019050919050565b60006128ce601283612d74565b91507f77697468647261773a206e6f7420676f6f6400000000000000000000000000006000830152602082019050919050565b600061290e602a83612d74565b91507f5361666545524332303a204552433230206f7065726174696f6e20646964206e60008301527f6f742073756363656564000000000000000000000000000000000000000000006020830152604082019050919050565b6000612974600c83612d74565b91507f6d6967726174653a2062616400000000000000000000000000000000000000006000830152602082019050919050565b60006129b4603683612d74565b91507f5361666545524332303a20617070726f76652066726f6d206e6f6e2d7a65726f60008301527f20746f206e6f6e2d7a65726f20616c6c6f77616e6365000000000000000000006020830152604082019050919050565b6000612a1a601483612d74565b91507f6d6967726174653a206e6f206d69677261746f720000000000000000000000006000830152602082019050919050565b612a5681612efc565b82525050565b6000612a68828461269e565b915081905092915050565b6000602082019050612a88600083018461268f565b92915050565b6000604082019050612aa3600083018561268f565b612ab0602083018461268f565b9392505050565b6000606082019050612acc600083018661268f565b612ad9602083018561268f565b612ae66040830184612a4d565b949350505050565b6000604082019050612b03600083018561268f565b612b106020830184612a4d565b9392505050565b6000602082019050612b2c60008301846126cf565b92915050565b6000602082019050612b4760008301846126de565b92915050565b6000608082019050612b6260008301876126de565b612b6f6020830186612a4d565b612b7c6040830185612a4d565b612b896060830184612a4d565b95945050505050565b6000602082019050612ba760008301846126ed565b92915050565b60006020820190508181036000830152612bc781846126fc565b905092915050565b60006020820190508181036000830152612be881612735565b9050919050565b60006020820190508181036000830152612c088161279b565b9050919050565b60006020820190508181036000830152612c2881612801565b9050919050565b60006020820190508181036000830152612c4881612841565b9050919050565b60006020820190508181036000830152612c6881612881565b9050919050565b60006020820190508181036000830152612c88816128c1565b9050919050565b60006020820190508181036000830152612ca881612901565b9050919050565b60006020820190508181036000830152612cc881612967565b9050919050565b60006020820190508181036000830152612ce8816129a7565b9050919050565b60006020820190508181036000830152612d0881612a0d565b9050919050565b6000602082019050612d246000830184612a4d565b92915050565b6000604082019050612d3f6000830185612a4d565b612d4c6020830184612a4d565b9392505050565b600081519050919050565b600081519050919050565b600081905092915050565b600082825260208201905092915050565b6000612d9082612efc565b9150612d9b83612efc565b9250827fffffffffffffffffffffffffffffffffffffffffffffffffffffffffffffffff03821115612dd057612dcf612fee565b5b828201905092915050565b6000612de682612efc565b9150612df183612efc565b925082612e0157612e0061301d565b5b828204905092915050565b6000612e1782612efc565b9150612e2283612efc565b9250817fffffffffffffffffffffffffffffffffffffffffffffffffffffffffffffffff0483118215151615612e5b57612e5a612fee565b5b828202905092915050565b6000612e7182612efc565b9150612e7c83612efc565b925082821015612e8f57612e8e612fee565b5b828203905092915050565b6000612ea582612edc565b9050919050565b60008115159050919050565b6000612ec382612e9a565b9050919050565b6000612ed582612e9a565b9050919050565b600073ffffffffffffffffffffffffffffffffffffffff82169050919050565b6000819050919050565b6000612f1182612f18565b9050919050565b6000612f2382612edc565b9050919050565b6000612f3582612f3c565b9050919050565b6000612f4782612edc565b9050919050565b6000612f5982612f60565b9050919050565b6000612f6b82612edc565b9050919050565b60005b83811015612f90578082015181840152602081019050612f75565b83811115612f9f576000848401525b50505050565b6000612fb082612efc565b91507fffffffffffffffffffffffffffffffffffffffffffffffffffffffffffffffff821415612fe357612fe2612fee565b5b600182019050919050565b7f4e487b7100000000000000000000000000000000000000000000000000000000600052601160045260246000fd5b7f4e487b7100000000000000000000000000000000000000000000000000000000600052601260045260246000fd5b6000601f19601f8301169050919050565b61306681612e9a565b811461307157600080fd5b50565b61307d81612eac565b811461308857600080fd5b50565b61309481612eb8565b811461309f57600080fd5b50565b6130ab81612eca565b81146130b657600080fd5b50565b6130c281612efc565b81146130cd57600080fd5b5056fea2646970667358221220608644d60c3e5948676360595bdab63480ca0356f8e6d5f5a52cfc79dc7b31f064736f6c63430008000033"}}