{
  "opcodeHash": "0x242eadf4f91e1aa961b07922b4dd8d31c4d8bd9d6818f0bd0b13327e6752b904",
  "metalessHash": "0xf86ae8ef8190730e34f2106ec9b382de9b3901dd6cb8333d61ef2e7b17b0275c",
  "runtimeHash": "0xc20e9237d05a673d16fae870cc06a855b495d573b24c21c27414e7dd15e5f0ea",
  "encodedMetadata": [
    {
      "ipfs": "/ipfs/QmY3WTmKLhnDJJjMc9eLMmoX2skbW7rbTZKHH7zhZxk4mM",
      "solc": "0.8.7"
    }
  ],
  "abi": [
    {
      "inputs": [],
      "stateMutability": "nonpayable",
      "type": "constructor"
    },
    {
      "anonymous": false,
      "inputs": [
        {
          "indexed": false,
          "internalType": "address[]",
          "name": "_wallets",
          "type": "address[]"
        }
      ],
      "name": "AddWhiteListWallet",
      "type": "event"
    },
    {
      "anonymous": false,
      "inputs": [
        {
          "indexed": true,
          "internalType": "address",
          "name": "owner",
          "type": "address"
        },
        {
          "indexed": true,
          "internalType": "address",
          "name": "approved",
          "type": "address"
        },
        {
          "indexed": true,
          "internalType": "uint256",
          "name": "tokenId",
          "type": "uint256"
        }
      ],
      "name": "Approval",
      "type": "event"
    },
    {
      "anonymous": false,
      "inputs": [
        {
          "indexed": true,
          "internalType": "address",
          "name": "owner",
          "type": "address"
        },
        {
          "indexed": true,
          "internalType": "address",
          "name": "operator",
          "type": "address"
        },
        {
          "indexed": false,
          "internalType": "bool",
          "name": "approved",
          "type": "bool"
        }
      ],
      "name": "ApprovalForAll",
      "type": "event"
    },
    {
      "anonymous": false,
      "inputs": [
        {
          "indexed": true,
          "internalType": "address",
          "name": "previousOwner",
          "type": "address"
        },
        {
          "indexed": true,
          "internalType": "address",
          "name": "newOwner",
          "type": "address"
        }
      ],
      "name": "OwnershipTransferred",
      "type": "event"
    },
    {
      "anonymous": false,
      "inputs": [
        {
          "indexed": false,
          "internalType": "address[]",
          "name": "_wallets",
          "type": "address[]"
        }
      ],
      "name": "RemoveWhiteListWallet",
      "type": "event"
    },
    {
      "anonymous": false,
      "inputs": [
        {
          "indexed": false,
          "internalType": "uint256",
          "name": "_maxTokens",
          "type": "uint256"
        }
      ],
      "name": "SetMaxTokensPurchase",
      "type": "event"
    },
    {
      "anonymous": false,
      "inputs": [
        {
          "indexed": false,
          "internalType": "uint256",
          "name": "_maxTokens",
          "type": "uint256"
        }
      ],
      "name": "SetMaxTokensWallet",
      "type": "event"
    },
    {
      "anonymous": false,
      "inputs": [
        {
          "indexed": true,
          "internalType": "address",
          "name": "from",
          "type": "address"
        },
        {
          "indexed": true,
          "internalType": "address",
          "name": "to",
          "type": "address"
        },
        {
          "indexed": true,
          "internalType": "uint256",
          "name": "tokenId",
          "type": "uint256"
        }
      ],
      "name": "Transfer",
      "type": "event"
    },
    {
      "anonymous": false,
      "inputs": [
        {
          "indexed": false,
          "internalType": "uint256",
          "name": "_presaleTokenPrice",
          "type": "uint256"
        }
      ],
      "name": "UpdatePresaleTokenPrice",
      "type": "event"
    },
    {
      "anonymous": false,
      "inputs": [
        {
          "indexed": false,
          "internalType": "uint256",
          "name": "_tokenPrice",
          "type": "uint256"
        }
      ],
      "name": "UpdateTokenPrice",
      "type": "event"
    },
    {
      "inputs": [],
      "name": "MAX_TOKENS",
      "outputs": [
        {
          "internalType": "uint256",
          "name": "",
          "type": "uint256"
        }
      ],
      "stateMutability": "view",
      "type": "function"
    },
    {
      "inputs": [],
      "name": "PROVENANCE",
      "outputs": [
        {
          "internalType": "string",
          "name": "",
          "type": "string"
        }
      ],
      "stateMutability": "view",
      "type": "function"
    },
    {
      "inputs": [
        {
          "internalType": "address[]",
          "name": "_wallets",
          "type": "address[]"
        }
      ],
      "name": "addWhiteListWallet",
      "outputs": [],
      "stateMutability": "nonpayable",
      "type": "function"
    },
    {
      "inputs": [
        {
          "internalType": "uint256[]",
          "name": "_ids",
          "type": "uint256[]"
        },
        {
          "internalType": "address[]",
          "name": "_owes",
          "type": "address[]"
        }
      ],
      "name": "airdropTokens",
      "outputs": [],
      "stateMutability": "nonpayable",
      "type": "function"
    },
    {
      "inputs": [
        {
          "internalType": "address",
          "name": "to",
          "type": "address"
        },
        {
          "internalType": "uint256",
          "name": "tokenId",
          "type": "uint256"
        }
      ],
      "name": "approve",
      "outputs": [],
      "stateMutability": "nonpayable",
      "type": "function"
    },
    {
      "inputs": [
        {
          "internalType": "address",
          "name": "owner",
          "type": "address"
        }
      ],
      "name": "balanceOf",
      "outputs": [
        {
          "internalType": "uint256",
          "name": "",
          "type": "uint256"
        }
      ],
      "stateMutability": "view",
      "type": "function"
    },
    {
      "inputs": [],
      "name": "baseExtension",
      "outputs": [
        {
          "internalType": "string",
          "name": "",
          "type": "string"
        }
      ],
      "stateMutability": "view",
      "type": "function"
    },
    {
      "inputs": [
        {
          "internalType": "uint256",
          "name": "_presaleTokenPrice",
          "type": "uint256"
        }
      ],
      "name": "changePresaleTokenPrice",
      "outputs": [],
      "stateMutability": "nonpayable",
      "type": "function"
    },
    {
      "inputs": [
        {
          "internalType": "uint256",
          "name": "_tokenPrice",
          "type": "uint256"
        }
      ],
      "name": "changeTokenPrice",
      "outputs": [],
      "stateMutability": "nonpayable",
      "type": "function"
    },
    {
      "inputs": [],
      "name": "devAddress",
      "outputs": [
        {
          "internalType": "address",
          "name": "",
          "type": "address"
        }
      ],
      "stateMutability": "view",
      "type": "function"
    },
    {
      "inputs": [],
      "name": "flipSaleState",
      "outputs": [],
      "stateMutability": "nonpayable",
      "type": "function"
    },
    {
      "inputs": [
        {
          "internalType": "uint256",
          "name": "tokenId",
          "type": "uint256"
        }
      ],
      "name": "getApproved",
      "outputs": [
        {
          "internalType": "address",
          "name": "",
          "type": "address"
        }
      ],
      "stateMutability": "view",
      "type": "function"
    },
    {
      "inputs": [
        {
          "internalType": "address",
          "name": "owner",
          "type": "address"
        },
        {
          "internalType": "address",
          "name": "operator",
          "type": "address"
        }
      ],
      "name": "isApprovedForAll",
      "outputs": [
        {
          "internalType": "bool",
          "name": "",
          "type": "bool"
        }
      ],
      "stateMutability": "view",
      "type": "function"
    },
    {
      "inputs": [],
      "name": "maxTokenPerWallet",
      "outputs": [
        {
          "internalType": "uint256",
          "name": "",
          "type": "uint256"
        }
      ],
      "stateMutability": "view",
      "type": "function"
    },
    {
      "inputs": [],
      "name": "maxTokenPurchase",
      "outputs": [
        {
          "internalType": "uint256",
          "name": "",
          "type": "uint256"
        }
      ],
      "stateMutability": "view",
      "type": "function"
    },
    {
      "inputs": [],
      "name": "mintSupply",
      "outputs": [
        {
          "internalType": "uint256",
          "name": "",
          "type": "uint256"
        }
      ],
      "stateMutability": "view",
      "type": "function"
    },
    {
      "inputs": [
        {
          "internalType": "uint256",
          "name": "numberOfTokens",
          "type": "uint256"
        }
      ],
      "name": "mintToken",
      "outputs": [],
      "stateMutability": "payable",
      "type": "function"
    },
    {
      "inputs": [],
      "name": "name",
      "outputs": [
        {
          "internalType": "string",
          "name": "",
          "type": "string"
        }
      ],
      "stateMutability": "view",
      "type": "function"
    },
    {
      "inputs": [],
      "name": "owner",
      "outputs": [
        {
          "internalType": "address",
          "name": "",
          "type": "address"
        }
      ],
      "stateMutability": "view",
      "type": "function"
    },
    {
      "inputs": [],
      "name": "ownerAddress1",
      "outputs": [
        {
          "internalType": "address",
          "name": "",
          "type": "address"
        }
      ],
      "stateMutability": "view",
      "type": "function"
    },
    {
      "inputs": [],
      "name": "ownerAddress2",
      "outputs": [
        {
          "internalType": "address",
          "name": "",
          "type": "address"
        }
      ],
      "stateMutability": "view",
      "type": "function"
    },
    {
      "inputs": [
        {
          "internalType": "uint256",
          "name": "tokenId",
          "type": "uint256"
        }
      ],
      "name": "ownerOf",
      "outputs": [
        {
          "internalType": "address",
          "name": "",
          "type": "address"
        }
      ],
      "stateMutability": "view",
      "type": "function"
    },
    {
      "inputs": [],
      "name": "presaleTokenPrice",
      "outputs": [
        {
          "internalType": "uint256",
          "name": "",
          "type": "uint256"
        }
      ],
      "stateMutability": "view",
      "type": "function"
    },
    {
      "inputs": [
        {
          "internalType": "address[]",
          "name": "_wallets",
          "type": "address[]"
        }
      ],
      "name": "removeWhiteListWallet",
      "outputs": [],
      "stateMutability": "nonpayable",
      "type": "function"
    },
    {
      "inputs": [],
      "name": "renounceOwnership",
      "outputs": [],
      "stateMutability": "nonpayable",
      "type": "function"
    },
    {
      "inputs": [
        {
          "internalType": "uint256",
          "name": "numberOfTokens",
          "type": "uint256"
        }
      ],
      "name": "reserveTokens",
      "outputs": [],
      "stateMutability": "nonpayable",
      "type": "function"
    },
    {
      "inputs": [
        {
          "internalType": "address",
          "name": "from",
          "type": "address"
        },
        {
          "internalType": "address",
          "name": "to",
          "type": "address"
        },
        {
          "internalType": "uint256",
          "name": "tokenId",
          "type": "uint256"
        }
      ],
      "name": "safeTransferFrom",
      "outputs": [],
      "stateMutability": "nonpayable",
      "type": "function"
    },
    {
      "inputs": [
        {
          "internalType": "address",
          "name": "from",
          "type": "address"
        },
        {
          "internalType": "address",
          "name": "to",
          "type": "address"
        },
        {
          "internalType": "uint256",
          "name": "tokenId",
          "type": "uint256"
        },
        {
          "internalType": "bytes",
          "name": "_data",
          "type": "bytes"
        }
      ],
      "name": "safeTransferFrom",
      "outputs": [],
      "stateMutability": "nonpayable",
      "type": "function"
    },
    {
      "inputs": [],
      "name": "saleIsActive",
      "outputs": [
        {
          "internalType": "bool",
          "name": "",
          "type": "bool"
        }
      ],
      "stateMutability": "view",
      "type": "function"
    },
    {
      "inputs": [
        {
          "internalType": "address",
          "name": "operator",
          "type": "address"
        },
        {
          "internalType": "bool",
          "name": "approved",
          "type": "bool"
        }
      ],
      "name": "setApprovalForAll",
      "outputs": [],
      "stateMutability": "nonpayable",
      "type": "function"
    },
    {
      "inputs": [
        {
          "internalType": "string",
          "name": "baseURI_",
          "type": "string"
        }
      ],
      "name": "setBaseURI",
      "outputs": [],
      "stateMutability": "nonpayable",
      "type": "function"
    },
    {
      "inputs": [
        {
          "internalType": "uint256",
          "name": "_maxTokens",
          "type": "uint256"
        }
      ],
      "name": "setMaxTokensPurchase",
      "outputs": [],
      "stateMutability": "nonpayable",
      "type": "function"
    },
    {
      "inputs": [
        {
          "internalType": "uint256",
          "name": "_maxTokens",
          "type": "uint256"
        }
      ],
      "name": "setMaxTokensWallet",
      "outputs": [],
      "stateMutability": "nonpayable",
      "type": "function"
    },
    {
      "inputs": [
        {
          "internalType": "string",
          "name": "provenance",
          "type": "string"
        }
      ],
      "name": "setProvenance",
      "outputs": [],
      "stateMutability": "nonpayable",
      "type": "function"
    },
    {
      "inputs": [
        {
          "internalType": "bytes4",
          "name": "interfaceId",
          "type": "bytes4"
        }
      ],
      "name": "supportsInterface",
      "outputs": [
        {
          "internalType": "bool",
          "name": "",
          "type": "bool"
        }
      ],
      "stateMutability": "view",
      "type": "function"
    },
    {
      "inputs": [],
      "name": "symbol",
      "outputs": [
        {
          "internalType": "string",
          "name": "",
          "type": "string"
        }
      ],
      "stateMutability": "view",
      "type": "function"
    },
    {
      "inputs": [
        {
          "internalType": "uint256",
          "name": "index",
          "type": "uint256"
        }
      ],
      "name": "tokenByIndex",
      "outputs": [
        {
          "internalType": "uint256",
          "name": "",
          "type": "uint256"
        }
      ],
      "stateMutability": "view",
      "type": "function"
    },
    {
      "inputs": [
        {
          "internalType": "address",
          "name": "owner",
          "type": "address"
        },
        {
          "internalType": "uint256",
          "name": "index",
          "type": "uint256"
        }
      ],
      "name": "tokenOfOwnerByIndex",
      "outputs": [
        {
          "internalType": "uint256",
          "name": "",
          "type": "uint256"
        }
      ],
      "stateMutability": "view",
      "type": "function"
    },
    {
      "inputs": [],
      "name": "tokenPrice",
      "outputs": [
        {
          "internalType": "uint256",
          "name": "",
          "type": "uint256"
        }
      ],
      "stateMutability": "view",
      "type": "function"
    },
    {
      "inputs": [
        {
          "internalType": "uint256",
          "name": "tokenId",
          "type": "uint256"
        }
      ],
      "name": "tokenURI",
      "outputs": [
        {
          "internalType": "string",
          "name": "",
          "type": "string"
        }
      ],
      "stateMutability": "view",
      "type": "function"
    },
    {
      "inputs": [],
      "name": "totalSupply",
      "outputs": [
        {
          "internalType": "uint256",
          "name": "",
          "type": "uint256"
        }
      ],
      "stateMutability": "view",
      "type": "function"
    },
    {
      "inputs": [
        {
          "internalType": "address",
          "name": "from",
          "type": "address"
        },
        {
          "internalType": "address",
          "name": "to",
          "type": "address"
        },
        {
          "internalType": "uint256",
          "name": "tokenId",
          "type": "uint256"
        }
      ],
      "name": "transferFrom",
      "outputs": [],
      "stateMutability": "nonpayable",
      "type": "function"
    },
    {
      "inputs": [
        {
          "internalType": "address",
          "name": "newOwner",
          "type": "address"
        }
      ],
      "name": "transferOwnership",
      "outputs": [],
      "stateMutability": "nonpayable",
      "type": "function"
    },
    {
      "inputs": [
        {
          "internalType": "address",
          "name": "_owner1",
          "type": "address"
        },
        {
          "internalType": "address",
          "name": "_owner2",
          "type": "address"
        }
      ],
      "name": "updateAddresses",
      "outputs": [],
      "stateMutability": "nonpayable",
      "type": "function"
    },
    {
      "inputs": [],
      "name": "withdraw",
      "outputs": [],
      "stateMutability": "nonpayable",
      "type": "function"
    }
  ],
  "bytecode": {
    "object": "608060405266f8b0a10e470000600c5566f8b0a10e470000600d556019600e556064600f556127106010556000601160006101000a81548160ff0219169083151502179055506040518060400160405280600581526020017f2e6a736f6e00000000000000000000000000000000000000000000000000000081525060129080519060200190620000929291906200033a565b5061020560145573b80f48d100c33ad54182ef32224d4c33ba94e5b3601560006101000a81548173ffffffffffffffffffffffffffffffffffffffff021916908373ffffffffffffffffffffffffffffffffffffffff16021790555073a9d8ee8273d1b3511ec0bf514452f6ecf035f5cf601660006101000a81548173ffffffffffffffffffffffffffffffffffffffff021916908373ffffffffffffffffffffffffffffffffffffffff160217905550731c3de6976e8e81c2069767b5c0591f548fe49420601760006101000a81548173ffffffffffffffffffffffffffffffffffffffff021916908373ffffffffffffffffffffffffffffffffffffffff160217905550348015620001a557600080fd5b506040518060400160405280600b81526020017f57696c64205361666172690000000000000000000000000000000000000000008152506040518060400160405280600381526020017f574c44000000000000000000000000000000000000000000000000000000000081525081600090805190602001906200022a9291906200033a565b508060019080519060200190620002439291906200033a565b505050620002666200025a6200026c60201b60201c565b6200027460201b60201c565b6200044f565b600033905090565b6000600a60009054906101000a900473ffffffffffffffffffffffffffffffffffffffff16905081600a60006101000a81548173ffffffffffffffffffffffffffffffffffffffff021916908373ffffffffffffffffffffffffffffffffffffffff1602179055508173ffffffffffffffffffffffffffffffffffffffff168173ffffffffffffffffffffffffffffffffffffffff167f8be0079c531659141344cd1fd0a4f28419497f9722a3daafe3b4186f6b6457e060405160405180910390a35050565b8280546200034890620003ea565b90600052602060002090601f0160209004810192826200036c5760008555620003b8565b82601f106200038757805160ff1916838001178555620003b8565b82800160010185558215620003b8579182015b82811115620003b75782518255916020019190600101906200039a565b5b509050620003c79190620003cb565b5090565b5b80821115620003e6576000816000905550600101620003cc565b5090565b600060028204905060018216806200040357607f821691505b602082108114156200041a576200041962000420565b5b50919050565b7f4e487b7100000000000000000000000000000000000000000000000000000000600052602260045260246000fd5b615bf4806200045f6000396000f3fe6080604052600436106102725760003560e01c806369a2d3e51161014f578063b88d4fde116100c1578063e985e9c51161007a578063e985e9c51461091b578063eb8d244414610958578063f2fde38b14610983578063f47c84c5146109ac578063fbc94f24146109d7578063ffe630b514610a0057610272565b8063b88d4fde1461081c578063c1d1103714610845578063c634d0321461086e578063c66828621461088a578063c87b56dd146108b5578063d031370b146108f257610272565b80638da5cb5b116101135780638da5cb5b1461071e578063908dae961461074957806393777fb31461077257806395d89b411461079d5780639a1b7740146107c8578063a22cb465146107f357610272565b806369a2d3e51461064b57806370a0823114610674578063715018a6146106b15780637a8baf52146106c85780637ff9b596146106f357610272565b80633ad10ef6116101e857806355f804b3116101ac57806355f804b31461053f5780635a20a93a146105685780635c5d81cc146105915780636352211e146105ba5780636373a6b1146105f757806367b138e11461062257610272565b80633ad10ef61461046c5780633ccfd60b146104975780633e411489146104ae57806342842e0e146104d95780634f6ccce71461050257610272565b806309aa3dcf1161023a57806309aa3dcf1461037057806318160ddd1461039b5780631c9e3e5c146103c657806323b872dd146103ef5780632f745c591461041857806334918dfd1461045557610272565b806301ffc9a714610277578063045b7dca146102b457806306fdde03146102df578063081812fc1461030a578063095ea7b314610347575b600080fd5b34801561028357600080fd5b5061029e60048036038101906102999190614486565b610a29565b6040516102ab9190614b72565b60405180910390f35b3480156102c057600080fd5b506102c9610a3b565b6040516102d69190614eef565b60405180910390f35b3480156102eb57600080fd5b506102f4610a41565b6040516103019190614b8d565b60405180910390f35b34801561031657600080fd5b50610331600480360381019061032c9190614529565b610ad3565b60405161033e9190614ae9565b60405180910390f35b34801561035357600080fd5b5061036e60048036038101906103699190614385565b610b58565b005b34801561037c57600080fd5b50610385610c70565b6040516103929190614eef565b60405180910390f35b3480156103a757600080fd5b506103b0610c76565b6040516103bd9190614eef565b60405180910390f35b3480156103d257600080fd5b506103ed60048036038101906103e891906143c5565b610c83565b005b3480156103fb57600080fd5b506104166004803603810190610411919061426f565b610e2a565b005b34801561042457600080fd5b5061043f600480360381019061043a9190614385565b610e8a565b60405161044c9190614eef565b60405180910390f35b34801561046157600080fd5b5061046a610f2f565b005b34801561047857600080fd5b50610481611036565b60405161048e9190614ae9565b60405180910390f35b3480156104a357600080fd5b506104ac61105c565b005b3480156104ba57600080fd5b506104c361138e565b6040516104d09190614ae9565b60405180910390f35b3480156104e557600080fd5b5061050060048036038101906104fb919061426f565b6113b4565b005b34801561050e57600080fd5b5061052960048036038101906105249190614529565b6113d4565b6040516105369190614eef565b60405180910390f35b34801561054b57600080fd5b50610566600480360381019061056191906144e0565b611445565b005b34801561057457600080fd5b5061058f600480360381019061058a9190614529565b61152c565b005b34801561059d57600080fd5b506105b860048036038101906105b39190614529565b611648565b005b3480156105c657600080fd5b506105e160048036038101906105dc9190614529565b611764565b6040516105ee9190614ae9565b60405180910390f35b34801561060357600080fd5b5061060c611816565b6040516106199190614b8d565b60405180910390f35b34801561062e57600080fd5b5061064960048036038101906106449190614529565b6118a4565b005b34801561065757600080fd5b50610672600480360381019061066d919061440e565b6119c0565b005b34801561068057600080fd5b5061069b60048036038101906106969190614202565b611c12565b6040516106a89190614eef565b60405180910390f35b3480156106bd57600080fd5b506106c6611cca565b005b3480156106d457600080fd5b506106dd611da3565b6040516106ea9190614eef565b60405180910390f35b3480156106ff57600080fd5b50610708611da9565b6040516107159190614eef565b60405180910390f35b34801561072a57600080fd5b50610733611daf565b6040516107409190614ae9565b60405180910390f35b34801561075557600080fd5b50610770600480360381019061076b91906143c5565b611dd9565b005b34801561077e57600080fd5b50610787611f80565b6040516107949190614eef565b60405180910390f35b3480156107a957600080fd5b506107b2611f86565b6040516107bf9190614b8d565b60405180910390f35b3480156107d457600080fd5b506107dd612018565b6040516107ea9190614ae9565b60405180910390f35b3480156107ff57600080fd5b5061081a60048036038101906108159190614345565b61203e565b005b34801561082857600080fd5b50610843600480360381019061083e91906142c2565b6121bf565b005b34801561085157600080fd5b5061086c6004803603810190610867919061422f565b612221565b005b61088860048036038101906108839190614529565b612374565b005b34801561089657600080fd5b5061089f612689565b6040516108ac9190614b8d565b60405180910390f35b3480156108c157600080fd5b506108dc60048036038101906108d79190614529565b612717565b6040516108e99190614b8d565b60405180910390f35b3480156108fe57600080fd5b5061091960048036038101906109149190614529565b6127c1565b005b34801561092757600080fd5b50610942600480360381019061093d919061422f565b612953565b60405161094f9190614b72565b60405180910390f35b34801561096457600080fd5b5061096d6129e7565b60405161097a9190614b72565b60405180910390f35b34801561098f57600080fd5b506109aa60048036038101906109a59190614202565b6129fa565b005b3480156109b857600080fd5b506109c1612b43565b6040516109ce9190614eef565b60405180910390f35b3480156109e357600080fd5b506109fe60048036038101906109f99190614529565b612b49565b005b348015610a0c57600080fd5b50610a276004803603810190610a2291906144e0565b612c65565b005b6000610a3482612d4c565b9050919050565b60145481565b606060008054610a5090615245565b80601f0160208091040260200160405190810160405280929190818152602001828054610a7c90615245565b8015610ac95780601f10610a9e57610100808354040283529160200191610ac9565b820191906000526020600020905b815481529060010190602001808311610aac57829003601f168201915b5050505050905090565b6000610ade82612dc6565b610b1d576040517f08c379a0000000000000000000000000000000000000000000000000000000008152600401610b1490614daf565b60405180910390fd5b6004600083815260200190815260200160002060009054906101000a900473ffffffffffffffffffffffffffffffffffffffff169050919050565b6000610b6382611764565b90508073ffffffffffffffffffffffffffffffffffffffff168373ffffffffffffffffffffffffffffffffffffffff161415610bd4576040517f08c379a0000000000000000000000000000000000000000000000000000000008152600401610bcb90614e2f565b60405180910390fd5b8073ffffffffffffffffffffffffffffffffffffffff16610bf3612e32565b73ffffffffffffffffffffffffffffffffffffffff161480610c225750610c2181610c1c612e32565b612953565b5b610c61576040517f08c379a0000000000000000000000000000000000000000000000000000000008152600401610c5890614d0f565b60405180910390fd5b610c6b8383612e3a565b505050565b600e5481565b6000600880549050905090565b610c8b611daf565b73ffffffffffffffffffffffffffffffffffffffff16610ca9612e32565b73ffffffffffffffffffffffffffffffffffffffff161480610d1f5750601560009054906101000a900473ffffffffffffffffffffffffffffffffffffffff1673ffffffffffffffffffffffffffffffffffffffff16610d07612e32565b73ffffffffffffffffffffffffffffffffffffffff16145b610d5e576040517f08c379a0000000000000000000000000000000000000000000000000000000008152600401610d5590614ecf565b60405180910390fd5b60005b8151811015610def57600160186000848481518110610d8357610d826153de565b5b602002602001015173ffffffffffffffffffffffffffffffffffffffff1673ffffffffffffffffffffffffffffffffffffffff16815260200190815260200160002060006101000a81548160ff0219169083151502179055508080610de7906152a8565b915050610d61565b507fba26e44fef3a99f68ee2ea6e71b0092f7bdd2ecb7c76f7bbd49b7fe70d5d3e6c81604051610e1f9190614b50565b60405180910390a150565b610e3b610e35612e32565b82612ef3565b610e7a576040517f08c379a0000000000000000000000000000000000000000000000000000000008152600401610e7190614e8f565b60405180910390fd5b610e85838383612fd1565b505050565b6000610e9583611c12565b8210610ed6576040517f08c379a0000000000000000000000000000000000000000000000000000000008152600401610ecd90614bcf565b60405180910390fd5b600660008473ffffffffffffffffffffffffffffffffffffffff1673ffffffffffffffffffffffffffffffffffffffff168152602001908152602001600020600083815260200190815260200160002054905092915050565b610f37611daf565b73ffffffffffffffffffffffffffffffffffffffff16610f55612e32565b73ffffffffffffffffffffffffffffffffffffffff161480610fcb5750601560009054906101000a900473ffffffffffffffffffffffffffffffffffffffff1673ffffffffffffffffffffffffffffffffffffffff16610fb3612e32565b73ffffffffffffffffffffffffffffffffffffffff16145b61100a576040517f08c379a000000000000000000000000000000000000000000000000000000000815260040161100190614ecf565b60405180910390fd5b601160009054906101000a900460ff1615601160006101000a81548160ff021916908315150217905550565b601560009054906101000a900473ffffffffffffffffffffffffffffffffffffffff1681565b611064612e32565b73ffffffffffffffffffffffffffffffffffffffff16611082611daf565b73ffffffffffffffffffffffffffffffffffffffff1614806110ea57506110a7612e32565b73ffffffffffffffffffffffffffffffffffffffff1673d46bb23379301eec3eb01b2ee15b61d73477d18073ffffffffffffffffffffffffffffffffffffffff16145b611129576040517f08c379a000000000000000000000000000000000000000000000000000000000815260040161112090614dcf565b60405180910390fd5b600047905060008111611171576040517f08c379a000000000000000000000000000000000000000000000000000000000815260040161116890614e4f565b60405180910390fd5b3373ffffffffffffffffffffffffffffffffffffffff166108fc6111b2601e6111a460648661322d90919063ffffffff16565b61324390919063ffffffff16565b9081150290604051600060405180830381858888f193505050501580156111dd573d6000803e3d6000fd5b50601660009054906101000a900473ffffffffffffffffffffffffffffffffffffffff1673ffffffffffffffffffffffffffffffffffffffff166108fc611241601d61123360648661322d90919063ffffffff16565b61324390919063ffffffff16565b9081150290604051600060405180830381858888f1935050505015801561126c573d6000803e3d6000fd5b50601760009054906101000a900473ffffffffffffffffffffffffffffffffffffffff1673ffffffffffffffffffffffffffffffffffffffff166108fc6112d0601d6112c260648661322d90919063ffffffff16565b61324390919063ffffffff16565b9081150290604051600060405180830381858888f193505050501580156112fb573d6000803e3d6000fd5b50601560009054906101000a900473ffffffffffffffffffffffffffffffffffffffff1673ffffffffffffffffffffffffffffffffffffffff166108fc61135f600c61135160648661322d90919063ffffffff16565b61324390919063ffffffff16565b9081150290604051600060405180830381858888f1935050505015801561138a573d6000803e3d6000fd5b5050565b601660009054906101000a900473ffffffffffffffffffffffffffffffffffffffff1681565b6113cf838383604051806020016040528060008152506121bf565b505050565b60006113de610c76565b821061141f576040517f08c379a000000000000000000000000000000000000000000000000000000000815260040161141690614eaf565b60405180910390fd5b60088281548110611433576114326153de565b5b90600052602060002001549050919050565b61144d612e32565b73ffffffffffffffffffffffffffffffffffffffff1661146b611daf565b73ffffffffffffffffffffffffffffffffffffffff1614806114d35750611490612e32565b73ffffffffffffffffffffffffffffffffffffffff1673d46bb23379301eec3eb01b2ee15b61d73477d18073ffffffffffffffffffffffffffffffffffffffff16145b611512576040517f08c379a000000000000000000000000000000000000000000000000000000000815260040161150990614dcf565b60405180910390fd5b8060139080519060200190611528929190613eda565b5050565b611534611daf565b73ffffffffffffffffffffffffffffffffffffffff16611552612e32565b73ffffffffffffffffffffffffffffffffffffffff1614806115c85750601560009054906101000a900473ffffffffffffffffffffffffffffffffffffffff1673ffffffffffffffffffffffffffffffffffffffff166115b0612e32565b73ffffffffffffffffffffffffffffffffffffffff16145b611607576040517f08c379a00000000000000000000000000000000000000000000000000000000081526004016115fe90614ecf565b60405180910390fd5b80600d819055507f697c9275f9b267c7bf6e8da5d2b2e34476337c3589027294182753a9e651cec58160405161163d9190614eef565b60405180910390a150565b611650611daf565b73ffffffffffffffffffffffffffffffffffffffff1661166e612e32565b73ffffffffffffffffffffffffffffffffffffffff1614806116e45750601560009054906101000a900473ffffffffffffffffffffffffffffffffffffffff1673ffffffffffffffffffffffffffffffffffffffff166116cc612e32565b73ffffffffffffffffffffffffffffffffffffffff16145b611723576040517f08c379a000000000000000000000000000000000000000000000000000000000815260040161171a90614ecf565b60405180910390fd5b80600e819055507f34c497eca31bd81a9cf2dbd7a38803d8847a7630e78982cf1636761f9c208a1e816040516117599190614eef565b60405180910390a150565b6000806002600084815260200190815260200160002060009054906101000a900473ffffffffffffffffffffffffffffffffffffffff169050600073ffffffffffffffffffffffffffffffffffffffff168173ffffffffffffffffffffffffffffffffffffffff16141561180d576040517f08c379a000000000000000000000000000000000000000000000000000000000815260040161180490614d4f565b60405180910390fd5b80915050919050565b600b805461182390615245565b80601f016020809104026020016040519081016040528092919081815260200182805461184f90615245565b801561189c5780601f106118715761010080835404028352916020019161189c565b820191906000526020600020905b81548152906001019060200180831161187f57829003601f168201915b505050505081565b6118ac611daf565b73ffffffffffffffffffffffffffffffffffffffff166118ca612e32565b73ffffffffffffffffffffffffffffffffffffffff1614806119405750601560009054906101000a900473ffffffffffffffffffffffffffffffffffffffff1673ffffffffffffffffffffffffffffffffffffffff16611928612e32565b73ffffffffffffffffffffffffffffffffffffffff16145b61197f576040517f08c379a000000000000000000000000000000000000000000000000000000000815260040161197690614ecf565b60405180910390fd5b80600f819055507fdb0edf818ba53623589eda65d96a84c4b722bf5cf63d09b8bfc6184d78b088ab816040516119b59190614eef565b60405180910390a150565b6119c8612e32565b73ffffffffffffffffffffffffffffffffffffffff166119e6611daf565b73ffffffffffffffffffffffffffffffffffffffff161480611a4e5750611a0b612e32565b73ffffffffffffffffffffffffffffffffffffffff1673d46bb23379301eec3eb01b2ee15b61d73477d18073ffffffffffffffffffffffffffffffffffffffff16145b611a8d576040517f08c379a0000000000000000000000000000000000000000000000000000000008152600401611a8490614dcf565b60405180910390fd5b80518251148015611aa0575060c8825111155b8015611aae575060c8815111155b611aed576040517f08c379a0000000000000000000000000000000000000000000000000000000008152600401611ae490614baf565b60405180910390fd5b60005b8251811015611c0d57611b37828281518110611b0f57611b0e6153de565b5b6020026020010151848381518110611b2a57611b296153de565b5b6020026020010151613259565b600160196000848481518110611b5057611b4f6153de565b5b602002602001015173ffffffffffffffffffffffffffffffffffffffff1673ffffffffffffffffffffffffffffffffffffffff16815260200190815260200160002054611b9d919061507a565b60196000848481518110611bb457611bb36153de565b5b602002602001015173ffffffffffffffffffffffffffffffffffffffff1673ffffffffffffffffffffffffffffffffffffffff168152602001908152602001600020819055508080611c05906152a8565b915050611af0565b505050565b60008073ffffffffffffffffffffffffffffffffffffffff168273ffffffffffffffffffffffffffffffffffffffff161415611c83576040517f08c379a0000000000000000000000000000000000000000000000000000000008152600401611c7a90614d2f565b60405180910390fd5b600360008373ffffffffffffffffffffffffffffffffffffffff1673ffffffffffffffffffffffffffffffffffffffff168152602001908152602001600020549050919050565b611cd2612e32565b73ffffffffffffffffffffffffffffffffffffffff16611cf0611daf565b73ffffffffffffffffffffffffffffffffffffffff161480611d585750611d15612e32565b73ffffffffffffffffffffffffffffffffffffffff1673d46bb23379301eec3eb01b2ee15b61d73477d18073ffffffffffffffffffffffffffffffffffffffff16145b611d97576040517f08c379a0000000000000000000000000000000000000000000000000000000008152600401611d8e90614dcf565b60405180910390fd5b611da16000613277565b565b600f5481565b600c5481565b6000600a60009054906101000a900473ffffffffffffffffffffffffffffffffffffffff16905090565b611de1611daf565b73ffffffffffffffffffffffffffffffffffffffff16611dff612e32565b73ffffffffffffffffffffffffffffffffffffffff161480611e755750601560009054906101000a900473ffffffffffffffffffffffffffffffffffffffff1673ffffffffffffffffffffffffffffffffffffffff16611e5d612e32565b73ffffffffffffffffffffffffffffffffffffffff16145b611eb4576040517f08c379a0000000000000000000000000000000000000000000000000000000008152600401611eab90614ecf565b60405180910390fd5b60005b8151811015611f4557600060186000848481518110611ed957611ed86153de565b5b602002602001015173ffffffffffffffffffffffffffffffffffffffff1673ffffffffffffffffffffffffffffffffffffffff16815260200190815260200160002060006101000a81548160ff0219169083151502179055508080611f3d906152a8565b915050611eb7565b507f8d99342fc0d06e45a8d926013b17f7da00e51b77aaa62ef200b14ed76066504d81604051611f759190614b50565b60405180910390a150565b600d5481565b606060018054611f9590615245565b80601f0160208091040260200160405190810160405280929190818152602001828054611fc190615245565b801561200e5780601f10611fe35761010080835404028352916020019161200e565b820191906000526020600020905b815481529060010190602001808311611ff157829003601f168201915b5050505050905090565b601760009054906101000a900473ffffffffffffffffffffffffffffffffffffffff1681565b612046612e32565b73ffffffffffffffffffffffffffffffffffffffff168273ffffffffffffffffffffffffffffffffffffffff1614156120b4576040517f08c379a00000000000000000000000000000000000000000000000000000000081526004016120ab90614caf565b60405180910390fd5b80600560006120c1612e32565b73ffffffffffffffffffffffffffffffffffffffff1673ffffffffffffffffffffffffffffffffffffffff16815260200190815260200160002060008473ffffffffffffffffffffffffffffffffffffffff1673ffffffffffffffffffffffffffffffffffffffff16815260200190815260200160002060006101000a81548160ff0219169083151502179055508173ffffffffffffffffffffffffffffffffffffffff1661216e612e32565b73ffffffffffffffffffffffffffffffffffffffff167f17307eab39ab6107e8899845ad3d59bd9653f200f220920489ca2b5937696c31836040516121b39190614b72565b60405180910390a35050565b6121d06121ca612e32565b83612ef3565b61220f576040517f08c379a000000000000000000000000000000000000000000000000000000000815260040161220690614e8f565b60405180910390fd5b61221b8484848461333d565b50505050565b612229612e32565b73ffffffffffffffffffffffffffffffffffffffff16612247611daf565b73ffffffffffffffffffffffffffffffffffffffff1614806122af575061226c612e32565b73ffffffffffffffffffffffffffffffffffffffff1673d46bb23379301eec3eb01b2ee15b61d73477d18073ffffffffffffffffffffffffffffffffffffffff16145b6122ee576040517f08c379a00000000000000000000000000000000000000000000000000000000081526004016122e590614dcf565b60405180910390fd5b81601660006101000a81548173ffffffffffffffffffffffffffffffffffffffff021916908373ffffffffffffffffffffffffffffffffffffffff16021790555080601760006101000a81548173ffffffffffffffffffffffffffffffffffffffff021916908373ffffffffffffffffffffffffffffffffffffffff1602179055505050565b6000600c549050601160009054906101000a900460ff1661242157601860003373ffffffffffffffffffffffffffffffffffffffff1673ffffffffffffffffffffffffffffffffffffffff16815260200190815260200160002060009054906101000a900460ff1661241b576040517f08c379a000000000000000000000000000000000000000000000000000000000815260040161241290614c6f565b60405180910390fd5b600d5490505b600e54821115612466576040517f08c379a000000000000000000000000000000000000000000000000000000000815260040161245d90614e6f565b60405180910390fd5b600f5482601960003373ffffffffffffffffffffffffffffffffffffffff1673ffffffffffffffffffffffffffffffffffffffff168152602001908152602001600020546124b4919061507a565b11156124f5576040517f08c379a00000000000000000000000000000000000000000000000000000000081526004016124ec90614c4f565b60405180910390fd5b60105482601454612506919061507a565b1115612547576040517f08c379a000000000000000000000000000000000000000000000000000000000815260040161253e90614d6f565b60405180910390fd5b3482826125549190615101565b1115612595576040517f08c379a000000000000000000000000000000000000000000000000000000000815260040161258c90614ccf565b60405180910390fd5b60005b828110156125f657600060016014546125b1919061507a565b905060105460145410156125e2576125c93382613259565b601460008154809291906125dc906152a8565b91905055505b5080806125ee906152a8565b915050612598565b5081601960003373ffffffffffffffffffffffffffffffffffffffff1673ffffffffffffffffffffffffffffffffffffffff16815260200190815260200160002054612642919061507a565b601960003373ffffffffffffffffffffffffffffffffffffffff1673ffffffffffffffffffffffffffffffffffffffff168152602001908152602001600020819055505050565b6012805461269690615245565b80601f01602080910402602001604051908101604052809291908181526020018280546126c290615245565b801561270f5780601f106126e45761010080835404028352916020019161270f565b820191906000526020600020905b8154815290600101906020018083116126f257829003601f168201915b505050505081565b606061272282612dc6565b612761576040517f08c379a000000000000000000000000000000000000000000000000000000000815260040161275890614e0f565b60405180910390fd5b600061276b613399565b9050600081511161278b57604051806020016040528060008152506127b9565b806127958461342b565b60126040516020016127a993929190614ab8565b6040516020818303038152906040525b915050919050565b6127c9611daf565b73ffffffffffffffffffffffffffffffffffffffff166127e7612e32565b73ffffffffffffffffffffffffffffffffffffffff16148061285d5750601560009054906101000a900473ffffffffffffffffffffffffffffffffffffffff1673ffffffffffffffffffffffffffffffffffffffff16612845612e32565b73ffffffffffffffffffffffffffffffffffffffff16145b61289c576040517f08c379a000000000000000000000000000000000000000000000000000000000815260040161289390614ecf565b60405180910390fd5b601054816014546128ad919061507a565b11156128ee576040517f08c379a00000000000000000000000000000000000000000000000000000000081526004016128e590614d6f565b60405180910390fd5b60005b8181101561294f576000600160145461290a919061507a565b9050601054601454101561293b576129223382613259565b60146000815480929190612935906152a8565b91905055505b508080612947906152a8565b9150506128f1565b5050565b6000600560008473ffffffffffffffffffffffffffffffffffffffff1673ffffffffffffffffffffffffffffffffffffffff16815260200190815260200160002060008373ffffffffffffffffffffffffffffffffffffffff1673ffffffffffffffffffffffffffffffffffffffff16815260200190815260200160002060009054906101000a900460ff16905092915050565b601160009054906101000a900460ff1681565b612a02612e32565b73ffffffffffffffffffffffffffffffffffffffff16612a20611daf565b73ffffffffffffffffffffffffffffffffffffffff161480612a885750612a45612e32565b73ffffffffffffffffffffffffffffffffffffffff1673d46bb23379301eec3eb01b2ee15b61d73477d18073ffffffffffffffffffffffffffffffffffffffff16145b612ac7576040517f08c379a0000000000000000000000000000000000000000000000000000000008152600401612abe90614dcf565b60405180910390fd5b600073ffffffffffffffffffffffffffffffffffffffff168173ffffffffffffffffffffffffffffffffffffffff161415612b37576040517f08c379a0000000000000000000000000000000000000000000000000000000008152600401612b2e90614c0f565b60405180910390fd5b612b4081613277565b50565b60105481565b612b51611daf565b73ffffffffffffffffffffffffffffffffffffffff16612b6f612e32565b73ffffffffffffffffffffffffffffffffffffffff161480612be55750601560009054906101000a900473ffffffffffffffffffffffffffffffffffffffff1673ffffffffffffffffffffffffffffffffffffffff16612bcd612e32565b73ffffffffffffffffffffffffffffffffffffffff16145b612c24576040517f08c379a0000000000000000000000000000000000000000000000000000000008152600401612c1b90614ecf565b60405180910390fd5b80600c819055507f8ef650d2de4208447ddb5de6a4d2bd95d7d04c957df933ff2548882ea2025a3881604051612c5a9190614eef565b60405180910390a150565b612c6d612e32565b73ffffffffffffffffffffffffffffffffffffffff16612c8b611daf565b73ffffffffffffffffffffffffffffffffffffffff161480612cf35750612cb0612e32565b73ffffffffffffffffffffffffffffffffffffffff1673d46bb23379301eec3eb01b2ee15b61d73477d18073ffffffffffffffffffffffffffffffffffffffff16145b612d32576040517f08c379a0000000000000000000000000000000000000000000000000000000008152600401612d2990614dcf565b60405180910390fd5b80600b9080519060200190612d48929190613eda565b5050565b60007f780e9d63000000000000000000000000000000000000000000000000000000007bffffffffffffffffffffffffffffffffffffffffffffffffffffffff1916827bffffffffffffffffffffffffffffffffffffffffffffffffffffffff19161480612dbf5750612dbe8261358c565b5b9050919050565b60008073ffffffffffffffffffffffffffffffffffffffff166002600084815260200190815260200160002060009054906101000a900473ffffffffffffffffffffffffffffffffffffffff1673ffffffffffffffffffffffffffffffffffffffff1614159050919050565b600033905090565b816004600083815260200190815260200160002060006101000a81548173ffffffffffffffffffffffffffffffffffffffff021916908373ffffffffffffffffffffffffffffffffffffffff160217905550808273ffffffffffffffffffffffffffffffffffffffff16612ead83611764565b73ffffffffffffffffffffffffffffffffffffffff167f8c5be1e5ebec7d5bd14f71427d1e84f3dd0314c0f7b2291e5b200ac8c7c3b92560405160405180910390a45050565b6000612efe82612dc6565b612f3d576040517f08c379a0000000000000000000000000000000000000000000000000000000008152600401612f3490614cef565b60405180910390fd5b6000612f4883611764565b90508073ffffffffffffffffffffffffffffffffffffffff168473ffffffffffffffffffffffffffffffffffffffff161480612fb757508373ffffffffffffffffffffffffffffffffffffffff16612f9f84610ad3565b73ffffffffffffffffffffffffffffffffffffffff16145b80612fc85750612fc78185612953565b5b91505092915050565b8273ffffffffffffffffffffffffffffffffffffffff16612ff182611764565b73ffffffffffffffffffffffffffffffffffffffff1614613047576040517f08c379a000000000000000000000000000000000000000000000000000000000815260040161303e90614def565b60405180910390fd5b600073ffffffffffffffffffffffffffffffffffffffff168273ffffffffffffffffffffffffffffffffffffffff1614156130b7576040517f08c379a00000000000000000000000000000000000000000000000000000000081526004016130ae90614c8f565b60405180910390fd5b6130c283838361366e565b6130cd600082612e3a565b6001600360008573ffffffffffffffffffffffffffffffffffffffff1673ffffffffffffffffffffffffffffffffffffffff168152602001908152602001600020600082825461311d919061515b565b925050819055506001600360008473ffffffffffffffffffffffffffffffffffffffff1673ffffffffffffffffffffffffffffffffffffffff1681526020019081526020016000206000828254613174919061507a565b92505081905550816002600083815260200190815260200160002060006101000a81548173ffffffffffffffffffffffffffffffffffffffff021916908373ffffffffffffffffffffffffffffffffffffffff160217905550808273ffffffffffffffffffffffffffffffffffffffff168473ffffffffffffffffffffffffffffffffffffffff167fddf252ad1be2c89b69c2b068fc378daa952ba7f163c4a11628f55a4df523b3ef60405160405180910390a4505050565b6000818361323b91906150d0565b905092915050565b600081836132519190615101565b905092915050565b61327382826040518060200160405280600081525061367e565b5050565b6000600a60009054906101000a900473ffffffffffffffffffffffffffffffffffffffff16905081600a60006101000a81548173ffffffffffffffffffffffffffffffffffffffff021916908373ffffffffffffffffffffffffffffffffffffffff1602179055508173ffffffffffffffffffffffffffffffffffffffff168173ffffffffffffffffffffffffffffffffffffffff167f8be0079c531659141344cd1fd0a4f28419497f9722a3daafe3b4186f6b6457e060405160405180910390a35050565b613348848484612fd1565b613354848484846136d9565b613393576040517f08c379a000000000000000000000000000000000000000000000000000000000815260040161338a90614bef565b60405180910390fd5b50505050565b6060601380546133a890615245565b80601f01602080910402602001604051908101604052809291908181526020018280546133d490615245565b80156134215780601f106133f657610100808354040283529160200191613421565b820191906000526020600020905b81548152906001019060200180831161340457829003601f168201915b5050505050905090565b60606000821415613473576040518060400160405280600181526020017f30000000000000000000000000000000000000000000000000000000000000008152509050613587565b600082905060005b600082146134a557808061348e906152a8565b915050600a8261349e91906150d0565b915061347b565b60008167ffffffffffffffff8111156134c1576134c061540d565b5b6040519080825280601f01601f1916602001820160405280156134f35781602001600182028036833780820191505090505b5090505b600085146135805760018261350c919061515b565b9150600a8561351b91906152f1565b6030613527919061507a565b60f81b81838151811061353d5761353c6153de565b5b60200101907effffffffffffffffffffffffffffffffffffffffffffffffffffffffffffff1916908160001a905350600a8561357991906150d0565b94506134f7565b8093505050505b919050565b60007f80ac58cd000000000000000000000000000000000000000000000000000000007bffffffffffffffffffffffffffffffffffffffffffffffffffffffff1916827bffffffffffffffffffffffffffffffffffffffffffffffffffffffff1916148061365757507f5b5e139f000000000000000000000000000000000000000000000000000000007bffffffffffffffffffffffffffffffffffffffffffffffffffffffff1916827bffffffffffffffffffffffffffffffffffffffffffffffffffffffff1916145b80613667575061366682613870565b5b9050919050565b6136798383836138da565b505050565b61368883836139ee565b61369560008484846136d9565b6136d4576040517f08c379a00000000000000000000000000000000000000000000000000000000081526004016136cb90614bef565b60405180910390fd5b505050565b60006136fa8473ffffffffffffffffffffffffffffffffffffffff16613bbc565b15613863578373ffffffffffffffffffffffffffffffffffffffff1663150b7a02613723612e32565b8786866040518563ffffffff1660e01b81526004016137459493929190614b04565b602060405180830381600087803b15801561375f57600080fd5b505af192505050801561379057506040513d601f19601f8201168201806040525081019061378d91906144b3565b60015b613813573d80600081146137c0576040519150601f19603f3d011682016040523d82523d6000602084013e6137c5565b606091505b5060008151141561380b576040517f08c379a000000000000000000000000000000000000000000000000000000000815260040161380290614bef565b60405180910390fd5b805181602001fd5b63150b7a0260e01b7bffffffffffffffffffffffffffffffffffffffffffffffffffffffff1916817bffffffffffffffffffffffffffffffffffffffffffffffffffffffff191614915050613868565b600190505b949350505050565b60007f01ffc9a7000000000000000000000000000000000000000000000000000000007bffffffffffffffffffffffffffffffffffffffffffffffffffffffff1916827bffffffffffffffffffffffffffffffffffffffffffffffffffffffff1916149050919050565b6138e5838383613bcf565b600073ffffffffffffffffffffffffffffffffffffffff168373ffffffffffffffffffffffffffffffffffffffff1614156139285761392381613bd4565b613967565b8173ffffffffffffffffffffffffffffffffffffffff168373ffffffffffffffffffffffffffffffffffffffff1614613966576139658382613c1d565b5b5b600073ffffffffffffffffffffffffffffffffffffffff168273ffffffffffffffffffffffffffffffffffffffff1614156139aa576139a581613d8a565b6139e9565b8273ffffffffffffffffffffffffffffffffffffffff168273ffffffffffffffffffffffffffffffffffffffff16146139e8576139e78282613e5b565b5b5b505050565b600073ffffffffffffffffffffffffffffffffffffffff168273ffffffffffffffffffffffffffffffffffffffff161415613a5e576040517f08c379a0000000000000000000000000000000000000000000000000000000008152600401613a5590614d8f565b60405180910390fd5b613a6781612dc6565b15613aa7576040517f08c379a0000000000000000000000000000000000000000000000000000000008152600401613a9e90614c2f565b60405180910390fd5b613ab36000838361366e565b6001600360008473ffffffffffffffffffffffffffffffffffffffff1673ffffffffffffffffffffffffffffffffffffffff1681526020019081526020016000206000828254613b03919061507a565b92505081905550816002600083815260200190815260200160002060006101000a81548173ffffffffffffffffffffffffffffffffffffffff021916908373ffffffffffffffffffffffffffffffffffffffff160217905550808273ffffffffffffffffffffffffffffffffffffffff16600073ffffffffffffffffffffffffffffffffffffffff167fddf252ad1be2c89b69c2b068fc378daa952ba7f163c4a11628f55a4df523b3ef60405160405180910390a45050565b600080823b905060008111915050919050565b505050565b6008805490506009600083815260200190815260200160002081905550600881908060018154018082558091505060019003906000526020600020016000909190919091505550565b60006001613c2a84611c12565b613c34919061515b565b9050600060076000848152602001908152602001600020549050818114613d19576000600660008673ffffffffffffffffffffffffffffffffffffffff1673ffffffffffffffffffffffffffffffffffffffff168152602001908152602001600020600084815260200190815260200160002054905080600660008773ffffffffffffffffffffffffffffffffffffffff1673ffffffffffffffffffffffffffffffffffffffff168152602001908152602001600020600084815260200190815260200160002081905550816007600083815260200190815260200160002081905550505b6007600084815260200190815260200160002060009055600660008573ffffffffffffffffffffffffffffffffffffffff1673ffffffffffffffffffffffffffffffffffffffff16815260200190815260200160002060008381526020019081526020016000206000905550505050565b60006001600880549050613d9e919061515b565b9050600060096000848152602001908152602001600020549050600060088381548110613dce57613dcd6153de565b5b906000526020600020015490508060088381548110613df057613def6153de565b5b906000526020600020018190555081600960008381526020019081526020016000208190555060096000858152602001908152602001600020600090556008805480613e3f57613e3e6153af565b5b6001900381819060005260206000200160009055905550505050565b6000613e6683611c12565b905081600660008573ffffffffffffffffffffffffffffffffffffffff1673ffffffffffffffffffffffffffffffffffffffff168152602001908152602001600020600083815260200190815260200160002081905550806007600084815260200190815260200160002081905550505050565b828054613ee690615245565b90600052602060002090601f016020900481019282613f085760008555613f4f565b82601f10613f2157805160ff1916838001178555613f4f565b82800160010185558215613f4f579182015b82811115613f4e578251825591602001919060010190613f33565b5b509050613f5c9190613f60565b5090565b5b80821115613f79576000816000905550600101613f61565b5090565b6000613f90613f8b84614f2f565b614f0a565b90508083825260208201905082856020860282011115613fb357613fb2615441565b5b60005b85811015613fe35781613fc988826140e1565b845260208401935060208301925050600181019050613fb6565b5050509392505050565b6000614000613ffb84614f5b565b614f0a565b9050808382526020820190508285602086028201111561402357614022615441565b5b60005b85811015614053578161403988826141ed565b845260208401935060208301925050600181019050614026565b5050509392505050565b600061407061406b84614f87565b614f0a565b90508281526020810184848401111561408c5761408b615446565b5b614097848285615203565b509392505050565b60006140b26140ad84614fb8565b614f0a565b9050828152602081018484840111156140ce576140cd615446565b5b6140d9848285615203565b509392505050565b6000813590506140f081615b62565b92915050565b600082601f83011261410b5761410a61543c565b5b813561411b848260208601613f7d565b91505092915050565b600082601f8301126141395761413861543c565b5b8135614149848260208601613fed565b91505092915050565b60008135905061416181615b79565b92915050565b60008135905061417681615b90565b92915050565b60008151905061418b81615b90565b92915050565b600082601f8301126141a6576141a561543c565b5b81356141b684826020860161405d565b91505092915050565b600082601f8301126141d4576141d361543c565b5b81356141e484826020860161409f565b91505092915050565b6000813590506141fc81615ba7565b92915050565b60006020828403121561421857614217615450565b5b6000614226848285016140e1565b91505092915050565b6000806040838503121561424657614245615450565b5b6000614254858286016140e1565b9250506020614265858286016140e1565b9150509250929050565b60008060006060848603121561428857614287615450565b5b6000614296868287016140e1565b93505060206142a7868287016140e1565b92505060406142b8868287016141ed565b9150509250925092565b600080600080608085870312156142dc576142db615450565b5b60006142ea878288016140e1565b94505060206142fb878288016140e1565b935050604061430c878288016141ed565b925050606085013567ffffffffffffffff81111561432d5761432c61544b565b5b61433987828801614191565b91505092959194509250565b6000806040838503121561435c5761435b615450565b5b600061436a858286016140e1565b925050602061437b85828601614152565b9150509250929050565b6000806040838503121561439c5761439b615450565b5b60006143aa858286016140e1565b92505060206143bb858286016141ed565b9150509250929050565b6000602082840312156143db576143da615450565b5b600082013567ffffffffffffffff8111156143f9576143f861544b565b5b614405848285016140f6565b91505092915050565b6000806040838503121561442557614424615450565b5b600083013567ffffffffffffffff8111156144435761444261544b565b5b61444f85828601614124565b925050602083013567ffffffffffffffff8111156144705761446f61544b565b5b61447c858286016140f6565b9150509250929050565b60006020828403121561449c5761449b615450565b5b60006144aa84828501614167565b91505092915050565b6000602082840312156144c9576144c8615450565b5b60006144d78482850161417c565b91505092915050565b6000602082840312156144f6576144f5615450565b5b600082013567ffffffffffffffff8111156145145761451361544b565b5b614520848285016141bf565b91505092915050565b60006020828403121561453f5761453e615450565b5b600061454d848285016141ed565b91505092915050565b6000614562838361456e565b60208301905092915050565b6145778161518f565b82525050565b6145868161518f565b82525050565b60006145978261500e565b6145a1818561503c565b93506145ac83614fe9565b8060005b838110156145dd5781516145c48882614556565b97506145cf8361502f565b9250506001810190506145b0565b5085935050505092915050565b6145f3816151a1565b82525050565b600061460482615019565b61460e818561504d565b935061461e818560208601615212565b61462781615455565b840191505092915050565b600061463d82615024565b614647818561505e565b9350614657818560208601615212565b61466081615455565b840191505092915050565b600061467682615024565b614680818561506f565b9350614690818560208601615212565b80840191505092915050565b600081546146a981615245565b6146b3818661506f565b945060018216600081146146ce57600181146146df57614712565b60ff19831686528186019350614712565b6146e885614ff9565b60005b8381101561470a578154818901526001820191506020810190506146eb565b838801955050505b50505092915050565b600061472860268361505e565b915061473382615466565b604082019050919050565b600061474b602b8361505e565b9150614756826154b5565b604082019050919050565b600061476e60328361505e565b915061477982615504565b604082019050919050565b600061479160268361505e565b915061479c82615553565b604082019050919050565b60006147b4601c8361505e565b91506147bf826155a2565b602082019050919050565b60006147d760268361505e565b91506147e2826155cb565b604082019050919050565b60006147fa602d8361505e565b91506148058261561a565b604082019050919050565b600061481d60248361505e565b915061482882615669565b604082019050919050565b600061484060198361505e565b915061484b826156b8565b602082019050919050565b6000614863601f8361505e565b915061486e826156e1565b602082019050919050565b6000614886602c8361505e565b91506148918261570a565b604082019050919050565b60006148a960388361505e565b91506148b482615759565b604082019050919050565b60006148cc602a8361505e565b91506148d7826157a8565b604082019050919050565b60006148ef60298361505e565b91506148fa826157f7565b604082019050919050565b6000614912602a8361505e565b915061491d82615846565b604082019050919050565b600061493560208361505e565b915061494082615895565b602082019050919050565b6000614958602c8361505e565b9150614963826158be565b604082019050919050565b600061497b60208361505e565b91506149868261590d565b602082019050919050565b600061499e60298361505e565b91506149a982615936565b604082019050919050565b60006149c1602f8361505e565b91506149cc82615985565b604082019050919050565b60006149e460218361505e565b91506149ef826159d4565b604082019050919050565b6000614a07600b8361505e565b9150614a1282615a23565b602082019050919050565b6000614a2a601b8361505e565b9150614a3582615a4c565b602082019050919050565b6000614a4d60318361505e565b9150614a5882615a75565b604082019050919050565b6000614a70602c8361505e565b9150614a7b82615ac4565b604082019050919050565b6000614a9360288361505e565b9150614a9e82615b13565b604082019050919050565b614ab2816151f9565b82525050565b6000614ac4828661466b565b9150614ad0828561466b565b9150614adc828461469c565b9150819050949350505050565b6000602082019050614afe600083018461457d565b92915050565b6000608082019050614b19600083018761457d565b614b26602083018661457d565b614b336040830185614aa9565b8181036060830152614b4581846145f9565b905095945050505050565b60006020820190508181036000830152614b6a818461458c565b905092915050565b6000602082019050614b8760008301846145ea565b92915050565b60006020820190508181036000830152614ba78184614632565b905092915050565b60006020820190508181036000830152614bc88161471b565b9050919050565b60006020820190508181036000830152614be88161473e565b9050919050565b60006020820190508181036000830152614c0881614761565b9050919050565b60006020820190508181036000830152614c2881614784565b9050919050565b60006020820190508181036000830152614c48816147a7565b9050919050565b60006020820190508181036000830152614c68816147ca565b9050919050565b60006020820190508181036000830152614c88816147ed565b9050919050565b60006020820190508181036000830152614ca881614810565b9050919050565b60006020820190508181036000830152614cc881614833565b9050919050565b60006020820190508181036000830152614ce881614856565b9050919050565b60006020820190508181036000830152614d0881614879565b9050919050565b60006020820190508181036000830152614d288161489c565b9050919050565b60006020820190508181036000830152614d48816148bf565b9050919050565b60006020820190508181036000830152614d68816148e2565b9050919050565b60006020820190508181036000830152614d8881614905565b9050919050565b60006020820190508181036000830152614da881614928565b9050919050565b60006020820190508181036000830152614dc88161494b565b9050919050565b60006020820190508181036000830152614de88161496e565b9050919050565b60006020820190508181036000830152614e0881614991565b9050919050565b60006020820190508181036000830152614e28816149b4565b9050919050565b60006020820190508181036000830152614e48816149d7565b9050919050565b60006020820190508181036000830152614e68816149fa565b9050919050565b60006020820190508181036000830152614e8881614a1d565b9050919050565b60006020820190508181036000830152614ea881614a40565b9050919050565b60006020820190508181036000830152614ec881614a63565b9050919050565b60006020820190508181036000830152614ee881614a86565b9050919050565b6000602082019050614f046000830184614aa9565b92915050565b6000614f14614f25565b9050614f208282615277565b919050565b6000604051905090565b600067ffffffffffffffff821115614f4a57614f4961540d565b5b602082029050602081019050919050565b600067ffffffffffffffff821115614f7657614f7561540d565b5b602082029050602081019050919050565b600067ffffffffffffffff821115614fa257614fa161540d565b5b614fab82615455565b9050602081019050919050565b600067ffffffffffffffff821115614fd357614fd261540d565b5b614fdc82615455565b9050602081019050919050565b6000819050602082019050919050565b60008190508160005260206000209050919050565b600081519050919050565b600081519050919050565b600081519050919050565b6000602082019050919050565b600082825260208201905092915050565b600082825260208201905092915050565b600082825260208201905092915050565b600081905092915050565b6000615085826151f9565b9150615090836151f9565b9250827fffffffffffffffffffffffffffffffffffffffffffffffffffffffffffffffff038211156150c5576150c4615322565b5b828201905092915050565b60006150db826151f9565b91506150e6836151f9565b9250826150f6576150f5615351565b5b828204905092915050565b600061510c826151f9565b9150615117836151f9565b9250817fffffffffffffffffffffffffffffffffffffffffffffffffffffffffffffffff04831182151516156151505761514f615322565b5b828202905092915050565b6000615166826151f9565b9150615171836151f9565b92508282101561518457615183615322565b5b828203905092915050565b600061519a826151d9565b9050919050565b60008115159050919050565b60007fffffffff0000000000000000000000000000000000000000000000000000000082169050919050565b600073ffffffffffffffffffffffffffffffffffffffff82169050919050565b6000819050919050565b82818337600083830152505050565b60005b83811015615230578082015181840152602081019050615215565b8381111561523f576000848401525b50505050565b6000600282049050600182168061525d57607f821691505b6020821081141561527157615270615380565b5b50919050565b61528082615455565b810181811067ffffffffffffffff8211171561529f5761529e61540d565b5b80604052505050565b60006152b3826151f9565b91507fffffffffffffffffffffffffffffffffffffffffffffffffffffffffffffffff8214156152e6576152e5615322565b5b600182019050919050565b60006152fc826151f9565b9150615307836151f9565b92508261531757615316615351565b5b828206905092915050565b7f4e487b7100000000000000000000000000000000000000000000000000000000600052601160045260246000fd5b7f4e487b7100000000000000000000000000000000000000000000000000000000600052601260045260246000fd5b7f4e487b7100000000000000000000000000000000000000000000000000000000600052602260045260246000fd5b7f4e487b7100000000000000000000000000000000000000000000000000000000600052603160045260246000fd5b7f4e487b7100000000000000000000000000000000000000000000000000000000600052603260045260246000fd5b7f4e487b7100000000000000000000000000000000000000000000000000000000600052604160045260246000fd5b600080fd5b600080fd5b600080fd5b600080fd5b600080fd5b6000601f19601f8301169050919050565b7f53686f756c64206e6f742061697264726f70206d6f7265207468616e2032303060008201527f206974656d730000000000000000000000000000000000000000000000000000602082015250565b7f455243373231456e756d657261626c653a206f776e657220696e646578206f7560008201527f74206f6620626f756e6473000000000000000000000000000000000000000000602082015250565b7f4552433732313a207472616e7366657220746f206e6f6e20455243373231526560008201527f63656976657220696d706c656d656e7465720000000000000000000000000000602082015250565b7f4f776e61626c653a206e6577206f776e657220697320746865207a65726f206160008201527f6464726573730000000000000000000000000000000000000000000000000000602082015250565b7f4552433732313a20746f6b656e20616c7265616479206d696e74656400000000600082015250565b7f4578636565646564206d617820746f6b656e207075726368617365207065722060008201527f77616c6c65740000000000000000000000000000000000000000000000000000602082015250565b7f596f7520617265206e6f7420616c6c6f77656420746f206d696e74206265666f60008201527f72652063726f77642073616c6500000000000000000000000000000000000000602082015250565b7f4552433732313a207472616e7366657220746f20746865207a65726f2061646460008201527f7265737300000000000000000000000000000000000000000000000000000000602082015250565b7f4552433732313a20617070726f766520746f2063616c6c657200000000000000600082015250565b7f45746865722076616c75652073656e74206973206e6f7420636f727265637400600082015250565b7f4552433732313a206f70657261746f7220717565727920666f72206e6f6e657860008201527f697374656e7420746f6b656e0000000000000000000000000000000000000000602082015250565b7f4552433732313a20617070726f76652063616c6c6572206973206e6f74206f7760008201527f6e6572206e6f7220617070726f76656420666f7220616c6c0000000000000000602082015250565b7f4552433732313a2062616c616e636520717565727920666f7220746865207a6560008201527f726f206164647265737300000000000000000000000000000000000000000000602082015250565b7f4552433732313a206f776e657220717565727920666f72206e6f6e657869737460008201527f656e7420746f6b656e0000000000000000000000000000000000000000000000602082015250565b7f507572636861736520776f756c6420657863656564206d617820737570706c7960008201527f206f6620746f6b656e7300000000000000000000000000000000000000000000602082015250565b7f4552433732313a206d696e7420746f20746865207a65726f2061646472657373600082015250565b7f4552433732313a20617070726f76656420717565727920666f72206e6f6e657860008201527f697374656e7420746f6b656e0000000000000000000000000000000000000000602082015250565b7f4f776e61626c653a2063616c6c6572206973206e6f7420746865206f776e6572600082015250565b7f4552433732313a207472616e73666572206f6620746f6b656e2074686174206960008201527f73206e6f74206f776e0000000000000000000000000000000000000000000000602082015250565b7f4552433732314d657461646174613a2055524920717565727920666f72206e6f60008201527f6e6578697374656e7420746f6b656e0000000000000000000000000000000000602082015250565b7f4552433732313a20617070726f76616c20746f2063757272656e74206f776e6560008201527f7200000000000000000000000000000000000000000000000000000000000000602082015250565b7f4e6f2062616c616e636521000000000000000000000000000000000000000000600082015250565b7f4578636565646564206d617820746f6b656e2070757263686173650000000000600082015250565b7f4552433732313a207472616e736665722063616c6c6572206973206e6f74206f60008201527f776e6572206e6f7220617070726f766564000000000000000000000000000000602082015250565b7f455243373231456e756d657261626c653a20676c6f62616c20696e646578206f60008201527f7574206f6620626f756e64730000000000000000000000000000000000000000602082015250565b7f4f776e657220636f756c642063616c6c2072657365727665546f6b656e73206660008201527f756e6374696f6e21000000000000000000000000000000000000000000000000602082015250565b615b6b8161518f565b8114615b7657600080fd5b50565b615b82816151a1565b8114615b8d57600080fd5b50565b615b99816151ad565b8114615ba457600080fd5b50565b615bb0816151f9565b8114615bbb57600080fd5b5056fea2646970667358221220ef2f7788c08ca04cc88487725f4942b7b5bce29771df59769132632e0362600e64736f6c63430008070033"
  }
}