{"compiler":"v0.6.6+commit.6c089d02","opcodeHash":"0xb27975d01f83b47b50c2a9ace12a7ef685538341ca3ee47c8b80edcc7ebd3b3b","metalessHash":"0xb7fa1ac68cde596650038aaf29515aa9f86d392bd456ff5786a1b898966ab942","runtimeHash":"0xd5d719346ca403ed1771d1f32ba670f7212e15ab82ee334fba83dff136bbf7c4","encodedMetadata":[{"ipfs":"/ipfs/QmaZj3zYJ1SWNt6DfVtw1z1weeY3p1sTGia6X1HymRmzD5","solc":"0.6.6"}],"abi":[{"inputs":[{"internalType":"uint256","name":"_count","type":"uint256"}],"stateMutability":"nonpayable","type":"constructor"},{"inputs":[],"name":"getCount","outputs":[{"internalType":"uint256","name":"","type":"uint256"}],"stateMutability":"view","type":"function"},{"inputs":[],"name":"increment","outputs":[],"stateMutability":"nonpayable","type":"function"}],"bytecode":{"object":"608060405234801561001057600080fd5b506040516101063803806101068339818101604052602081101561003357600080fd5b8101908080519060200190929190505050806000819055505060ac8061005a6000396000f3fe6080604052348015600f57600080fd5b506004361060325760003560e01c8063a87d942c146037578063d09de08a146053575b600080fd5b603d605b565b6040518082815260200191505060405180910390f35b60596064565b005b60008054905090565b6001600080828254019250508190555056fea2646970667358221220dee7f022a8b868574fbb4eec79fc06b36aaff785cb705ef25b1c7ba8c265382964736f6c63430006060033"}}