{"compiler":"v0.6.12+commit.27d51765","opcodeHash":"0x7f368e6d9d33d0d4eb7a1f6b32f61b7d524baa6a0f8e8f99dcc5bfe37e0676aa","metalessHash":"0xa44c07bb943921170f29f0f4d7d7e384bbc9503299812d5c70eb028608641a30","runtimeHash":"0x7b4ffc16e769033359eafc5fb67a2cd787563d85d2579ba45d6dc3074aaac52d","encodedMetadata":[{"ipfs":"/ipfs/QmY6YDs18hWVpBhczkGECi1QrWqXz8hYndgQ64UgZ28PsY","solc":"0.6.12"}],"abi":[{"inputs":[],"stateMutability":"nonpayable","type":"constructor"},{"inputs":[{"internalType":"address","name":"_lptoken","type":"address"},{"internalType":"address","name":"_gauge","type":"address"},{"internalType":"uint256","name":"_stashVersion","type":"uint256"}],"name":"addPool","outputs":[{"internalType":"bool","name":"","type":"bool"}],"stateMutability":"nonpayable","type":"function"},{"inputs":[],"name":"booster","outputs":[{"internalType":"address","name":"","type":"address"}],"stateMutability":"view","type":"function"},{"inputs":[],"name":"operator","outputs":[{"internalType":"address","name":"","type":"address"}],"stateMutability":"view","type":"function"},{"inputs":[],"name":"owner","outputs":[{"internalType":"address","name":"","type":"address"}],"stateMutability":"view","type":"function"},{"inputs":[],"name":"pools","outputs":[{"internalType":"address","name":"","type":"address"}],"stateMutability":"view","type":"function"},{"inputs":[{"internalType":"address","name":"_operator","type":"address"}],"name":"setOperator","outputs":[],"stateMutability":"nonpayable","type":"function"},{"inputs":[{"internalType":"address","name":"_owner","type":"address"}],"name":"setOwner","outputs":[],"stateMutability":"nonpayable","type":"function"},{"inputs":[{"internalType":"uint256","name":"_pid","type":"uint256"}],"name":"shutdownPool","outputs":[{"internalType":"bool","name":"","type":"bool"}],"stateMutability":"nonpayable","type":"function"}],"bytecode":{"object":"608060405234801561001057600080fd5b50600080546001600160a01b031990811673a3c5a1e09150b75ff251c1a7815a07182c3de2fb1790915560018054909116331790556107ae806100546000396000f3fe608060405234801561001057600080fd5b50600436106100885760003560e01c80638da5cb5b1161005b5780638da5cb5b14610140578063b3ab15fb14610148578063c5c51dca1461016e578063c6def0761461017657610088565b806313af40351461008d578063570ca735146100b557806360cafe84146100d95780637e29d6c21461010a575b600080fd5b6100b3600480360360208110156100a357600080fd5b50356001600160a01b031661017e565b005b6100bd6101e8565b604080516001600160a01b039092168252519081900360200190f35b6100f6600480360360208110156100ef57600080fd5b50356101f7565b604080519115158252519081900360200190f35b6100f66004803603606081101561012057600080fd5b506001600160a01b0381358116916020810135909116906040013561058b565b6100bd610672565b6100b36004803603602081101561015e57600080fd5b50356001600160a01b0316610681565b6100bd6106eb565b6100bd610703565b6000546001600160a01b031633146101c6576040805162461bcd60e51b815260206004820152600660248201526510b7bbb732b960d11b604482015290519081900360640190fd5b600080546001600160a01b0319166001600160a01b0392909216919091179055565b6001546001600160a01b031681565b6001546000906001600160a01b0316331461023f576040805162461bcd60e51b81526020600482015260036024820152620216f760ec1b604482015290519081900360640190fd5b600080600073f403c135812408bfbe8713b5a23a04b3d48aae316001600160a01b0316631526fe27866040518263ffffffff1660e01b81526004018082815260200191505060c06040518083038186803b15801561029c57600080fd5b505afa1580156102b0573d6000803e3d6000fd5b505050506040513d60c08110156102c657600080fd5b508051602082015160a09092015190945090925090508015610322576040805162461bcd60e51b815260206004820152601060248201526f30b63932b0b23c9039b43aba3237bbb760811b604482015290519081900360640190fd5b6000836001600160a01b03166370a0823173f403c135812408bfbe8713b5a23a04b3d48aae316040518263ffffffff1660e01b815260040180826001600160a01b0316815260200191505060206040518083038186803b15801561038557600080fd5b505afa158015610399573d6000803e3d6000fd5b505050506040513d60208110156103af57600080fd5b505160408051631832bfa160e21b8152600481018990529051919250735f47010f230ce1568bea53a06ebaf528d05c5c1b916360cafe84916024808201926020929091908290030181600087803b15801561040957600080fd5b505af115801561041d573d6000803e3d6000fd5b505050506040513d602081101561043357600080fd5b5050604080516370a0823160e01b815273f403c135812408bfbe8713b5a23a04b3d48aae31600482015290516000916001600160a01b038716916370a0823191602480820192602092909190829003018186803b15801561049357600080fd5b505afa1580156104a7573d6000803e3d6000fd5b505050506040513d60208110156104bd57600080fd5b5051604080516318160ddd60e01b815290519192506001600160a01b038616916318160ddd91600480820192602092909190829003018186803b15801561050357600080fd5b505afa158015610517573d6000803e3d6000fd5b505050506040513d602081101561052d57600080fd5b5051610539828461071b565b101561057e576040805162461bcd60e51b815260206004820152600f60248201526e0e6eae0e0d8f240dad2e6dac2e8c6d608b1b604482015290519081900360640190fd5b5060019695505050505050565b6001546000906001600160a01b031633146105d3576040805162461bcd60e51b81526020600482015260036024820152620216f760ec1b604482015290519081900360640190fd5b60408051633f14eb6160e11b81526001600160a01b03868116600483015285166024820152604481018490529051735f47010f230ce1568bea53a06ebaf528d05c5c1b91637e29d6c29160648083019260209291908290030181600087803b15801561063e57600080fd5b505af1158015610652573d6000803e3d6000fd5b505050506040513d602081101561066857600080fd5b5051949350505050565b6000546001600160a01b031681565b6000546001600160a01b031633146106c9576040805162461bcd60e51b815260206004820152600660248201526510b7bbb732b960d11b604482015290519081900360640190fd5b600180546001600160a01b0319166001600160a01b0392909216919091179055565b735f47010f230ce1568bea53a06ebaf528d05c5c1b81565b73f403c135812408bfbe8713b5a23a04b3d48aae3181565b600082821115610772576040805162461bcd60e51b815260206004820152601e60248201527f536166654d6174683a207375627472616374696f6e206f766572666c6f770000604482015290519081900360640190fd5b5090039056fea26469706673582212202b5b40e597c50b324bf2e4eb4fd4b764c41a2b6bae8ee2d3b9ccb15605fb5e7f64736f6c634300060c0033"}}