{
  "opcodeHash": "0xaf1349535f00afd35052c751fc441a6696e2cb8cd914a9b106121c422c4c855d",
  "metalessHash": "0x447f3eb94966215b023822ab86fdb53064436207f32b5a57f4434090fee1c691",
  "runtimeHash": "0xcb26a5e3800a9225f5b95040daa0cff5b1ffa8e8878363c1722f7d91c5b168bc",
  "encodedMetadata": [
    {
      "ipfs": "/ipfs/QmXPJxBYAcXrQ9c8m6CFSKkfY9spHKnt95Cr1tch9R5Atb",
      "solc": "0.8.7"
    }
  ],
  "abi": [
    {
      "inputs": [],
      "stateMutability": "payable",
      "type": "constructor"
    },
    {
      "anonymous": false,
      "inputs": [
        {
          "indexed": false,
          "internalType": "address",
          "name": "sender",
          "type": "address"
        },
        {
          "indexed": false,
          "internalType": "uint256",
          "name": "amount",
          "type": "uint256"
        },
        {
          "indexed": false,
          "internalType": "uint256",
          "name": "balance",
          "type": "uint256"
        }
      ],
      "name": "Deposit",
      "type": "event"
    },
    {
      "anonymous": false,
      "inputs": [
        {
          "indexed": false,
          "internalType": "string",
          "name": "",
          "type": "string"
        },
        {
          "indexed": false,
          "internalType": "address",
          "name": "",
          "type": "address"
        }
      ],
      "name": "LogAddress",
      "type": "event"
    },
    {
      "anonymous": false,
      "inputs": [
        {
          "indexed": false,
          "internalType": "string",
          "name": "",
          "type": "string"
        },
        {
          "indexed": false,
          "internalType": "bool",
          "name": "",
          "type": "bool"
        }
      ],
      "name": "LogBool",
      "type": "event"
    },
    {
      "anonymous": false,
      "inputs": [
        {
          "indexed": false,
          "internalType": "string",
          "name": "",
          "type": "string"
        },
        {
          "indexed": false,
          "internalType": "bytes",
          "name": "",
          "type": "bytes"
        }
      ],
      "name": "LogBytes",
      "type": "event"
    },
    {
      "anonymous": false,
      "inputs": [
        {
          "indexed": false,
          "internalType": "string",
          "name": "",
          "type": "string"
        },
        {
          "indexed": false,
          "internalType": "bytes32",
          "name": "",
          "type": "bytes32"
        }
      ],
      "name": "LogBytes32",
      "type": "event"
    },
    {
      "anonymous": false,
      "inputs": [
        {
          "indexed": false,
          "internalType": "string",
          "name": "",
          "type": "string"
        },
        {
          "indexed": false,
          "internalType": "int256",
          "name": "",
          "type": "int256"
        }
      ],
      "name": "LogInt",
      "type": "event"
    },
    {
      "anonymous": false,
      "inputs": [
        {
          "indexed": false,
          "internalType": "string",
          "name": "",
          "type": "string"
        },
        {
          "indexed": false,
          "internalType": "uint256",
          "name": "",
          "type": "uint256"
        }
      ],
      "name": "LogUint",
      "type": "event"
    },
    {
      "anonymous": false,
      "inputs": [
        {
          "indexed": false,
          "internalType": "address",
          "name": "to",
          "type": "address"
        },
        {
          "indexed": false,
          "internalType": "uint256",
          "name": "amount",
          "type": "uint256"
        },
        {
          "indexed": false,
          "internalType": "uint256",
          "name": "balance",
          "type": "uint256"
        }
      ],
      "name": "Transfer",
      "type": "event"
    },
    {
      "anonymous": false,
      "inputs": [
        {
          "indexed": false,
          "internalType": "uint256",
          "name": "amount",
          "type": "uint256"
        },
        {
          "indexed": false,
          "internalType": "uint256",
          "name": "balance",
          "type": "uint256"
        }
      ],
      "name": "Withdraw",
      "type": "event"
    },
    {
      "inputs": [
        {
          "internalType": "string",
          "name": "uri",
          "type": "string"
        }
      ],
      "name": "createNFT",
      "outputs": [],
      "stateMutability": "payable",
      "type": "function"
    },
    {
      "inputs": [],
      "name": "getA",
      "outputs": [
        {
          "internalType": "address",
          "name": "_address",
          "type": "address"
        }
      ],
      "stateMutability": "view",
      "type": "function"
    },
    {
      "inputs": [],
      "name": "getBalance",
      "outputs": [
        {
          "internalType": "uint256",
          "name": "_balance",
          "type": "uint256"
        }
      ],
      "stateMutability": "view",
      "type": "function"
    },
    {
      "inputs": [],
      "name": "getCostPirce",
      "outputs": [
        {
          "internalType": "uint256",
          "name": "_costPrice",
          "type": "uint256"
        }
      ],
      "stateMutability": "view",
      "type": "function"
    },
    {
      "inputs": [],
      "name": "owner",
      "outputs": [
        {
          "internalType": "address payable",
          "name": "",
          "type": "address"
        }
      ],
      "stateMutability": "view",
      "type": "function"
    },
    {
      "inputs": [
        {
          "internalType": "address",
          "name": "_address",
          "type": "address"
        }
      ],
      "name": "setA",
      "outputs": [],
      "stateMutability": "nonpayable",
      "type": "function"
    },
    {
      "inputs": [
        {
          "internalType": "uint256",
          "name": "_costPrice",
          "type": "uint256"
        }
      ],
      "name": "setCostPirce",
      "outputs": [],
      "stateMutability": "nonpayable",
      "type": "function"
    },
    {
      "inputs": [
        {
          "internalType": "address payable",
          "name": "_to",
          "type": "address"
        },
        {
          "internalType": "uint256",
          "name": "_amount",
          "type": "uint256"
        }
      ],
      "name": "transfer",
      "outputs": [],
      "stateMutability": "nonpayable",
      "type": "function"
    },
    {
      "inputs": [
        {
          "internalType": "uint256",
          "name": "_amount",
          "type": "uint256"
        }
      ],
      "name": "withdraw",
      "outputs": [],
      "stateMutability": "nonpayable",
      "type": "function"
    },
    {
      "inputs": [],
      "name": "withdrawAll",
      "outputs": [],
      "stateMutability": "nonpayable",
      "type": "function"
    }
  ],
  "bytecode": {
    "object": "608060405233600160006101000a81548173ffffffffffffffffffffffffffffffffffffffff021916908373ffffffffffffffffffffffffffffffffffffffff160217905550611069806100546000396000f3fe6080604052600436106100915760003560e01c80638da5cb5b116100595780638da5cb5b14610155578063a9059cbb14610180578063d46300fd146101a9578063da2ed03e146101d4578063f95a0ad2146101f057610091565b806312065fe0146100965780632212361f146100c15780632e1a7d4d146100ea5780637cc17c7414610113578063853828b61461013e575b600080fd5b3480156100a257600080fd5b506100ab610219565b6040516100b89190610d9b565b60405180910390f35b3480156100cd57600080fd5b506100e860048036038101906100e39190610b9f565b6102b1565b005b3480156100f657600080fd5b50610111600480360381019061010c9190610b9f565b61034e565b005b34801561011f57600080fd5b50610128610483565b6040516101359190610d9b565b60405180910390f35b34801561014a57600080fd5b50610153610520565b005b34801561016157600080fd5b5061016a610654565b6040516101779190610ca2565b60405180910390f35b34801561018c57600080fd5b506101a760048036038101906101a29190610b16565b61067a565b005b3480156101b557600080fd5b506101be610790565b6040516101cb9190610c87565b60405180910390f35b6101ee60048036038101906101e99190610b56565b610848565b005b3480156101fc57600080fd5b5061021760048036038101906102129190610ae9565b6108d7565b005b6000600160009054906101000a900473ffffffffffffffffffffffffffffffffffffffff1673ffffffffffffffffffffffffffffffffffffffff163373ffffffffffffffffffffffffffffffffffffffff16146102ab576040517f08c379a00000000000000000000000000000000000000000000000000000000081526004016102a290610d7b565b60405180910390fd5b47905090565b600160009054906101000a900473ffffffffffffffffffffffffffffffffffffffff1673ffffffffffffffffffffffffffffffffffffffff163373ffffffffffffffffffffffffffffffffffffffff1614610341576040517f08c379a000000000000000000000000000000000000000000000000000000000815260040161033890610d7b565b60405180910390fd5b8060026000018190555050565b600160009054906101000a900473ffffffffffffffffffffffffffffffffffffffff1673ffffffffffffffffffffffffffffffffffffffff163373ffffffffffffffffffffffffffffffffffffffff16146103de576040517f08c379a00000000000000000000000000000000000000000000000000000000081526004016103d590610d7b565b60405180910390fd5b600160009054906101000a900473ffffffffffffffffffffffffffffffffffffffff1673ffffffffffffffffffffffffffffffffffffffff166108fc829081150290604051600060405180830381858888f19350505050158015610446573d6000803e3d6000fd5b507f56ca301a9219608c91e7bcee90e083c19671d2cdcc96752c7af291cee5f9c8c88147604051610478929190610db6565b60405180910390a150565b6000600160009054906101000a900473ffffffffffffffffffffffffffffffffffffffff1673ffffffffffffffffffffffffffffffffffffffff163373ffffffffffffffffffffffffffffffffffffffff1614610515576040517f08c379a000000000000000000000000000000000000000000000000000000000815260040161050c90610d7b565b60405180910390fd5b600260000154905090565b600160009054906101000a900473ffffffffffffffffffffffffffffffffffffffff1673ffffffffffffffffffffffffffffffffffffffff163373ffffffffffffffffffffffffffffffffffffffff16146105b0576040517f08c379a00000000000000000000000000000000000000000000000000000000081526004016105a790610d7b565b60405180910390fd5b600160009054906101000a900473ffffffffffffffffffffffffffffffffffffffff1673ffffffffffffffffffffffffffffffffffffffff166108fc479081150290604051600060405180830381858888f19350505050158015610618573d6000803e3d6000fd5b507f56ca301a9219608c91e7bcee90e083c19671d2cdcc96752c7af291cee5f9c8c8474760405161064a929190610db6565b60405180910390a1565b600160009054906101000a900473ffffffffffffffffffffffffffffffffffffffff1681565b600160009054906101000a900473ffffffffffffffffffffffffffffffffffffffff1673ffffffffffffffffffffffffffffffffffffffff163373ffffffffffffffffffffffffffffffffffffffff161461070a576040517f08c379a000000000000000000000000000000000000000000000000000000000815260040161070190610d7b565b60405180910390fd5b8173ffffffffffffffffffffffffffffffffffffffff166108fc829081150290604051600060405180830381858888f19350505050158015610750573d6000803e3d6000fd5b507f7fa9aafeb8bb803d77de5d84bc2f2edbd842ca91b20cd5020aa21dfe26ab0be982824760405161078493929190610cbd565b60405180910390a15050565b6000600160009054906101000a900473ffffffffffffffffffffffffffffffffffffffff1673ffffffffffffffffffffffffffffffffffffffff163373ffffffffffffffffffffffffffffffffffffffff1614610822576040517f08c379a000000000000000000000000000000000000000000000000000000000815260040161081990610d7b565b60405180910390fd5b60008054906101000a900473ffffffffffffffffffffffffffffffffffffffff16905090565b600260000154341015610890576040517f08c379a000000000000000000000000000000000000000000000000000000000815260040161088790610d5b565b60405180910390fd5b7f90890809c654f11d6e72a28fa60149770a0d11ec6c92319d6ceb2bb0a4ea1a153334476040516108c393929190610d24565b60405180910390a16108d4816109aa565b50565b600160009054906101000a900473ffffffffffffffffffffffffffffffffffffffff1673ffffffffffffffffffffffffffffffffffffffff163373ffffffffffffffffffffffffffffffffffffffff1614610967576040517f08c379a000000000000000000000000000000000000000000000000000000000815260040161095e90610d7b565b60405180910390fd5b806000806101000a81548173ffffffffffffffffffffffffffffffffffffffff021916908373ffffffffffffffffffffffffffffffffffffffff16021790555050565b60008054906101000a900473ffffffffffffffffffffffffffffffffffffffff1673ffffffffffffffffffffffffffffffffffffffff1663eacabe1433836040518363ffffffff1660e01b8152600401610a05929190610cf4565b600060405180830381600087803b158015610a1f57600080fd5b505af1158015610a33573d6000803e3d6000fd5b5050505050565b6000610a4d610a4884610e04565b610ddf565b905082815260208101848484011115610a6957610a68610f7c565b5b610a74848285610ed5565b509392505050565b600081359050610a8b81610fee565b92915050565b600081359050610aa081611005565b92915050565b600082601f830112610abb57610aba610f77565b5b8135610acb848260208601610a3a565b91505092915050565b600081359050610ae38161101c565b92915050565b600060208284031215610aff57610afe610f86565b5b6000610b0d84828501610a7c565b91505092915050565b60008060408385031215610b2d57610b2c610f86565b5b6000610b3b85828601610a91565b9250506020610b4c85828601610ad4565b9150509250929050565b600060208284031215610b6c57610b6b610f86565b5b600082013567ffffffffffffffff811115610b8a57610b89610f81565b5b610b9684828501610aa6565b91505092915050565b600060208284031215610bb557610bb4610f86565b5b6000610bc384828501610ad4565b91505092915050565b610bd581610e9f565b82525050565b610be481610e63565b82525050565b610bf381610e51565b82525050565b6000610c0482610e35565b610c0e8185610e40565b9350610c1e818560208601610ee4565b610c2781610f8b565b840191505092915050565b6000610c3f601583610e40565b9150610c4a82610f9c565b602082019050919050565b6000610c62600983610e40565b9150610c6d82610fc5565b602082019050919050565b610c8181610e95565b82525050565b6000602082019050610c9c6000830184610bea565b92915050565b6000602082019050610cb76000830184610bdb565b92915050565b6000606082019050610cd26000830186610bcc565b610cdf6020830185610c78565b610cec6040830184610c78565b949350505050565b6000604082019050610d096000830185610bea565b8181036020830152610d1b8184610bf9565b90509392505050565b6000606082019050610d396000830186610bea565b610d466020830185610c78565b610d536040830184610c78565b949350505050565b60006020820190508181036000830152610d7481610c32565b9050919050565b60006020820190508181036000830152610d9481610c55565b9050919050565b6000602082019050610db06000830184610c78565b92915050565b6000604082019050610dcb6000830185610c78565b610dd86020830184610c78565b9392505050565b6000610de9610dfa565b9050610df58282610f17565b919050565b6000604051905090565b600067ffffffffffffffff821115610e1f57610e1e610f48565b5b610e2882610f8b565b9050602081019050919050565b600081519050919050565b600082825260208201905092915050565b6000610e5c82610e75565b9050919050565b6000610e6e82610e75565b9050919050565b600073ffffffffffffffffffffffffffffffffffffffff82169050919050565b6000819050919050565b6000610eaa82610eb1565b9050919050565b6000610ebc82610ec3565b9050919050565b6000610ece82610e75565b9050919050565b82818337600083830152505050565b60005b83811015610f02578082015181840152602081019050610ee7565b83811115610f11576000848401525b50505050565b610f2082610f8b565b810181811067ffffffffffffffff82111715610f3f57610f3e610f48565b5b80604052505050565b7f4e487b7100000000000000000000000000000000000000000000000000000000600052604160045260246000fd5b600080fd5b600080fd5b600080fd5b600080fd5b6000601f19601f8301169050919050565b7f496e73756666696369656e7420657870656e7365730000000000000000000000600082015250565b7f4e6f74206f776e65720000000000000000000000000000000000000000000000600082015250565b610ff781610e51565b811461100257600080fd5b50565b61100e81610e63565b811461101957600080fd5b50565b61102581610e95565b811461103057600080fd5b5056fea26469706673582212209cf2f3040bdd9df7e34596d42027a4d044c319b6e06ec7879459b2b5737d771164736f6c63430008070033"
  }
}