{"compiler":"v0.6.12+commit.27d51765","opcodeHash":"0xd7103001fb13371e62442f6a29018ff401ec16b8f2c4d2e418c17de8e967a520","metalessHash":"0x53201fdca7081c367c87cad85dc7f65ab7d2469ebc368078aa0cd7fdd5544d8d","runtimeHash":"0xdf903a052039ee7b5f76e38a6f248438578c464ed185c74810edd87aae91b831","encodedMetadata":[{"ipfs":"/ipfs/QmPqjSfBpjexzoS4DCgdj97ARKXuW2CmtcFj87sWVvQk79","solc":"0.6.12"}],"abi":[{"anonymous":false,"inputs":[{"indexed":true,"internalType":"address","name":"previousOwner","type":"address"},{"indexed":true,"internalType":"address","name":"newOwner","type":"address"}],"name":"OwnershipTransferred","type":"event"},{"anonymous":false,"inputs":[{"indexed":false,"internalType":"address","name":"holder","type":"address"},{"indexed":false,"internalType":"uint256","name":"amount","type":"uint256"}],"name":"RewardsTransferred","type":"event"},{"inputs":[],"name":"PossibleUnstakeTime","outputs":[{"internalType":"uint256","name":"","type":"uint256"}],"stateMutability":"view","type":"function"},{"inputs":[{"internalType":"uint256","name":"_poolreward","type":"uint256"}],"name":"StakingReturnsAmountSet","outputs":[{"internalType":"bool","name":"","type":"bool"}],"stateMutability":"nonpayable","type":"function"},{"inputs":[],"name":"admin","outputs":[{"internalType":"address","name":"","type":"address"}],"stateMutability":"view","type":"function"},{"inputs":[{"internalType":"bool","name":"_status","type":"bool"}],"name":"allowStaking","outputs":[{"internalType":"bool","name":"","type":"bool"}],"stateMutability":"nonpayable","type":"function"},{"inputs":[{"internalType":"address","name":"","type":"address"}],"name":"depositedTokens","outputs":[{"internalType":"uint256","name":"","type":"uint256"}],"stateMutability":"view","type":"function"},{"inputs":[],"name":"getFundedTokens","outputs":[{"internalType":"uint256","name":"","type":"uint256"}],"stateMutability":"view","type":"function"},{"inputs":[],"name":"getNumberOfHolders","outputs":[{"internalType":"uint256","name":"","type":"uint256"}],"stateMutability":"view","type":"function"},{"inputs":[{"internalType":"address","name":"_holder","type":"address"}],"name":"getUnclaimedDivs","outputs":[{"internalType":"uint256","name":"","type":"uint256"}],"stateMutability":"view","type":"function"},{"inputs":[{"internalType":"address","name":"","type":"address"}],"name":"lastClaimedTime","outputs":[{"internalType":"uint256","name":"","type":"uint256"}],"stateMutability":"view","type":"function"},{"inputs":[{"internalType":"uint256","name":"amountToStake","type":"uint256"}],"name":"plant","outputs":[],"stateMutability":"nonpayable","type":"function"},{"inputs":[{"internalType":"uint256","name":"_possibleUnstakeTime","type":"uint256"}],"name":"possibleUnstakeTimeSet","outputs":[{"internalType":"bool","name":"","type":"bool"}],"stateMutability":"nonpayable","type":"function"},{"inputs":[],"name":"reap","outputs":[],"stateMutability":"nonpayable","type":"function"},{"inputs":[],"name":"rewardInterval","outputs":[{"internalType":"uint256","name":"","type":"uint256"}],"stateMutability":"view","type":"function"},{"inputs":[{"internalType":"uint256","name":"_rewardInterval","type":"uint256"}],"name":"rewardIntervalSet","outputs":[{"internalType":"bool","name":"","type":"bool"}],"stateMutability":"nonpayable","type":"function"},{"inputs":[],"name":"rewardRate","outputs":[{"internalType":"uint256","name":"","type":"uint256"}],"stateMutability":"view","type":"function"},{"inputs":[{"internalType":"uint256","name":"_rewardRate","type":"uint256"}],"name":"rewardRateSet","outputs":[{"internalType":"bool","name":"","type":"bool"}],"stateMutability":"nonpayable","type":"function"},{"inputs":[{"internalType":"address","name":"_tokenAddr","type":"address"}],"name":"setTokenAddresses","outputs":[{"internalType":"bool","name":"","type":"bool"}],"stateMutability":"nonpayable","type":"function"},{"inputs":[],"name":"stakingFeeRate","outputs":[{"internalType":"uint256","name":"","type":"uint256"}],"stateMutability":"view","type":"function"},{"inputs":[{"internalType":"uint256","name":"_stakingFeeRate","type":"uint256"},{"internalType":"uint256","name":"_unstakingFeeRate","type":"uint256"}],"name":"stakingFeeRateSet","outputs":[{"internalType":"bool","name":"","type":"bool"}],"stateMutability":"nonpayable","type":"function"},{"inputs":[],"name":"stakingStatus","outputs":[{"internalType":"bool","name":"","type":"bool"}],"stateMutability":"view","type":"function"},{"inputs":[{"internalType":"address","name":"","type":"address"}],"name":"stakingTime","outputs":[{"internalType":"uint256","name":"","type":"uint256"}],"stateMutability":"view","type":"function"},{"inputs":[],"name":"tokenAddress","outputs":[{"internalType":"address","name":"","type":"address"}],"stateMutability":"view","type":"function"},{"inputs":[],"name":"totalClaimedRewards","outputs":[{"internalType":"uint256","name":"","type":"uint256"}],"stateMutability":"view","type":"function"},{"inputs":[{"internalType":"address","name":"","type":"address"}],"name":"totalEarnedTokens","outputs":[{"internalType":"uint256","name":"","type":"uint256"}],"stateMutability":"view","type":"function"},{"inputs":[{"internalType":"address","name":"_tokenAddr","type":"address"},{"internalType":"address","name":"_to","type":"address"},{"internalType":"uint256","name":"_amount","type":"uint256"}],"name":"transferAnyERC20Tokens","outputs":[],"stateMutability":"nonpayable","type":"function"},{"inputs":[{"internalType":"address","name":"newOwner","type":"address"}],"name":"transferOwnership","outputs":[],"stateMutability":"nonpayable","type":"function"},{"inputs":[],"name":"unstakingFeeRate","outputs":[{"internalType":"uint256","name":"","type":"uint256"}],"stateMutability":"view","type":"function"},{"inputs":[{"internalType":"uint256","name":"amountToWithdraw","type":"uint256"}],"name":"uproot","outputs":[],"stateMutability":"nonpayable","type":"function"}],"bytecode":{"object":"6080604052620101d06002556301e133806003556000600481905560058190556202a3006006556007556009805460ff1916905534801561003f57600080fd5b50600080546001600160a01b03191633179055611361806100616000396000f3fe608060405234801561001057600080fd5b50600436106101c45760003560e01c80637b0a47ee116100f9578063d578ceab11610097578063f2fde38b11610071578063f2fde38b1461042a578063f3073ee714610450578063f3f91fa01461046f578063f851a44014610495576101c4565b8063d578ceab14610412578063d816c7d51461041a578063f1587ea114610422576101c4565b8063c0a6d78b116100d3578063c0a6d78b146103aa578063c326bf4f146103c7578063c383e22b146103ed578063c72896ac1461040a576101c4565b80637b0a47ee146103765780639d76ea581461037e578063bec4de3f146103a2576101c4565b8063455ab53c116101665780635ef057be116101405780635ef057be1461030a5780636270cd18146103125780636654ffdf146103385780636a395ccb14610340576101c4565b8063455ab53c146102bf5780634908e386146102c7578063583d42fd146102e4576101c4565b8063308feec3116101a2578063308feec314610258578063335e56cc1461026057806337c5785a1461027f57806338443177146102a2576101c4565b8063069ca4d0146101c95780630d2adb90146101fa5780631e94723f14610220575b600080fd5b6101e6600480360360208110156101df57600080fd5b503561049d565b604080519115158252519081900360200190f35b6101e66004803603602081101561021057600080fd5b50356001600160a01b03166104be565b6102466004803603602081101561023657600080fd5b50356001600160a01b031661053f565b60408051918252519081900360200190f35b6102466105f8565b61027d6004803603602081101561027657600080fd5b503561060a565b005b6101e66004803603604081101561029557600080fd5b508035906020013561090f565b6101e6600480360360208110156102b857600080fd5b5035610933565b6101e6610954565b6101e6600480360360208110156102dd57600080fd5b503561095d565b610246600480360360208110156102fa57600080fd5b50356001600160a01b031661097e565b610246610990565b6102466004803603602081101561032857600080fd5b50356001600160a01b0316610996565b6102466109a8565b61027d6004803603606081101561035657600080fd5b506001600160a01b038135811691602081013590911690604001356109ae565b610246610a88565b610386610a8e565b604080516001600160a01b039092168252519081900360200190f35b610246610a9d565b6101e6600480360360208110156103c057600080fd5b5035610aa3565b610246600480360360208110156103dd57600080fd5b50356001600160a01b0316610ac4565b61027d6004803603602081101561040357600080fd5b5035610ad6565b61027d610dcb565b610246610dd6565b610246610ddc565b610246610de2565b61027d6004803603602081101561044057600080fd5b50356001600160a01b0316610e16565b6101e66004803603602081101561046657600080fd5b50351515610e9b565b6102466004803603602081101561048557600080fd5b50356001600160a01b0316610f0f565b610386610f21565b600080546001600160a01b031633146104b557600080fd5b60039190915590565b600080546001600160a01b031633146104d657600080fd5b6001600160a01b03821661051b5760405162461bcd60e51b81526004018080602001828103825260278152602001806112d56027913960400191505060405180910390fd5b600180546001600160a01b0319166001600160a01b03939093169290921790915590565b600061054c600a83610f30565b610558575060006105f3565b6001600160a01b0382166000908152600c602052604090205461057d575060006105f3565b6001600160a01b0382166000908152600e60205260408120546105a1904290610f4e565b6001600160a01b0384166000908152600c602052604081205460035460025493945090926105ed91612710916105e79190829088906105e1908990610f60565b90610f60565b90610f80565b93505050505b919050565b6000610604600a610f95565b90505b90565b336000908152600c602052604090205481111561066e576040805162461bcd60e51b815260206004820152601a60248201527f496e76616c696420616d6f756e7420746f207769746864726177000000000000604482015290519081900360640190fd5b600654336000908152600d602052604090205461068c904290610f4e565b116106c85760405162461bcd60e51b815260040180806020018281038252603b81526020018061129a603b913960400191505060405180910390fd5b6106d133610fa0565b60006106ee6127106105e760055485610f6090919063ffffffff16565b905060006106fc8383610f4e565b600154600080546040805163a9059cbb60e01b81526001600160a01b03928316600482015260248101889052905194955092169263a9059cbb926044808201936020939283900390910190829087803b15801561075857600080fd5b505af115801561076c573d6000803e3d6000fd5b505050506040513d602081101561078257600080fd5b50516107d5576040805162461bcd60e51b815260206004820181905260248201527f436f756c64206e6f74207472616e73666572207769746864726177206665652e604482015290519081900360640190fd5b6001546040805163a9059cbb60e01b81523360048201526024810184905290516001600160a01b039092169163a9059cbb916044808201926020929091908290030181600087803b15801561082957600080fd5b505af115801561083d573d6000803e3d6000fd5b505050506040513d602081101561085357600080fd5b50516108a6576040805162461bcd60e51b815260206004820152601a60248201527f436f756c64206e6f74207472616e7366657220746f6b656e732e000000000000604482015290519081900360640190fd5b336000908152600c60205260409020546108c09084610f4e565b336000818152600c60205260409020919091556108df90600a90610f30565b80156108f85750336000908152600c6020526040902054155b1561090a57610908600a33611134565b505b505050565b600080546001600160a01b0316331461092757600080fd5b60049290925560055590565b600080546001600160a01b0316331461094b57600080fd5b60089190915590565b60095460ff1681565b600080546001600160a01b0316331461097557600080fd5b60029190915590565b600d6020526000908152604090205481565b60045481565b600f6020526000908152604090205481565b60065481565b6000546001600160a01b031633146109c557600080fd5b6001546001600160a01b0384811691161415610a00576109e3610de2565b8111156109ef57600080fd5b6007546109fc9082611149565b6007555b826001600160a01b031663a9059cbb83836040518363ffffffff1660e01b815260040180836001600160a01b0316815260200182815260200192505050602060405180830381600087803b158015610a5757600080fd5b505af1158015610a6b573d6000803e3d6000fd5b505050506040513d6020811015610a8157600080fd5b5050505050565b60025481565b6001546001600160a01b031681565b60035481565b600080546001600160a01b03163314610abb57600080fd5b60069190915590565b600c6020526000908152604090205481565b60095460ff161515600114610b32576040805162461bcd60e51b815260206004820152601e60248201527f5374616b696e67206973206e6f742079657420696e697469616c697a65640000604482015290519081900360640190fd5b60008111610b87576040805162461bcd60e51b815260206004820152601760248201527f43616e6e6f74206465706f736974203020546f6b656e73000000000000000000604482015290519081900360640190fd5b600154604080516323b872dd60e01b81523360048201523060248201526044810184905290516001600160a01b03909216916323b872dd916064808201926020929091908290030181600087803b158015610be157600080fd5b505af1158015610bf5573d6000803e3d6000fd5b505050506040513d6020811015610c0b57600080fd5b5051610c5e576040805162461bcd60e51b815260206004820152601c60248201527f496e73756666696369656e7420546f6b656e20416c6c6f77616e636500000000604482015290519081900360640190fd5b610c6733610fa0565b6000610c846127106105e760045485610f6090919063ffffffff16565b90506000610c928383610f4e565b600154600080546040805163a9059cbb60e01b81526001600160a01b03928316600482015260248101889052905194955092169263a9059cbb926044808201936020939283900390910190829087803b158015610cee57600080fd5b505af1158015610d02573d6000803e3d6000fd5b505050506040513d6020811015610d1857600080fd5b5051610d6b576040805162461bcd60e51b815260206004820152601f60248201527f436f756c64206e6f74207472616e73666572206465706f736974206665652e00604482015290519081900360640190fd5b336000908152600c6020526040902054610d859082611149565b336000818152600c6020526040902091909155610da490600a90610f30565b61090a57610db3600a33611158565b50336000908152600d60205260409020429055505050565b610dd433610fa0565b565b60075481565b60055481565b600060085460075410610df757506000610607565b6000610e10600754600854610f4e90919063ffffffff16565b91505090565b6000546001600160a01b03163314610e2d57600080fd5b6001600160a01b038116610e4057600080fd5b600080546040516001600160a01b03808516939216917f8be0079c531659141344cd1fd0a4f28419497f9722a3daafe3b4186f6b6457e091a3600080546001600160a01b0319166001600160a01b0392909216919091179055565b600080546001600160a01b03163314610eb357600080fd5b6001546001600160a01b0316610efa5760405162461bcd60e51b81526004018080602001828103825260308152602001806112fc6030913960400191505060405180910390fd5b6009805460ff19169215159290921790915590565b600e6020526000908152604090205481565b6000546001600160a01b031681565b6000610f45836001600160a01b03841661116d565b90505b92915050565b600082821115610f5a57fe5b50900390565b6000828202831580610f7a575082848281610f7757fe5b04145b610f4557fe5b600080828481610f8c57fe5b04949350505050565b6000610f4882611185565b6000610fab8261053f565b90508015611117576001546040805163a9059cbb60e01b81526001600160a01b038581166004830152602482018590529151919092169163a9059cbb9160448083019260209291908290030181600087803b15801561100957600080fd5b505af115801561101d573d6000803e3d6000fd5b505050506040513d602081101561103357600080fd5b5051611086576040805162461bcd60e51b815260206004820152601a60248201527f436f756c64206e6f74207472616e7366657220746f6b656e732e000000000000604482015290519081900360640190fd5b6001600160a01b0382166000908152600f60205260409020546110a99082611149565b6001600160a01b0383166000908152600f60205260409020556007546110cf9082611149565b600755604080516001600160a01b03841681526020810183905281517f586b2e63a21a7a4e1402e36f48ce10cb1ec94684fea254c186b76d1f98ecf130929181900390910190a15b506001600160a01b03166000908152600e60205260409020429055565b6000610f45836001600160a01b038416611189565b600082820183811015610f4557fe5b6000610f45836001600160a01b03841661124f565b60009081526001919091016020526040902054151590565b5490565b6000818152600183016020526040812054801561124557835460001980830191908101906000908790839081106111bc57fe5b90600052602060002001549050808760000184815481106111d957fe5b60009182526020808320909101929092558281526001898101909252604090209084019055865487908061120957fe5b60019003818190600052602060002001600090559055866001016000878152602001908152602001600020600090556001945050505050610f48565b6000915050610f48565b600061125b838361116d565b61129157508154600181810184556000848152602080822090930184905584548482528286019093526040902091909155610f48565b506000610f4856fe596f752068617665206e6f74207374616b656420666f722061207768696c65207965742c206b696e646c792077616974206120626974206d6f7265496e76616c6964206164647265737320666f726d6174206973206e6f7420737570706f72746564496e74657272616374696e6720746f6b656e2061646472657373206973206e6f742079657420636f6e66696775726564a2646970667358221220a3c442193a90f4a211b32edc1115a204c620821af39b68fe4aa77d096d42655764736f6c634300060c0033"}}