{"compiler":"v0.8.6+commit.11564f7e","opcodeHash":"0x07443abe024a55bdd7737c6475973a49756328c8e3137900c2998122f3f68f0f","metalessHash":"0x0d257cc6cc5b13a3ff7e4d6ecc9c76297c790f986bdc4a720cc27d1e18bfb8f8","runtimeHash":"0xc89aa85935c7bbba8eab285ee70ced8dc372dedd6b49201a0c3f21a7fac0aef8","encodedMetadata":[{"ipfs":"/ipfs/QmSQ4H1Ad7xp7BxzudnuY65JaE1XNSTiz17zXe6oHq54mg","solc":"0.8.6"}],"abi":[{"inputs":[],"stateMutability":"nonpayable","type":"constructor"},{"anonymous":false,"inputs":[{"indexed":true,"internalType":"address","name":"owner","type":"address"},{"indexed":true,"internalType":"address","name":"approved","type":"address"},{"indexed":true,"internalType":"uint256","name":"tokenId","type":"uint256"}],"name":"Approval","type":"event"},{"anonymous":false,"inputs":[{"indexed":true,"internalType":"address","name":"owner","type":"address"},{"indexed":true,"internalType":"address","name":"operator","type":"address"},{"indexed":false,"internalType":"bool","name":"approved","type":"bool"}],"name":"ApprovalForAll","type":"event"},{"anonymous":false,"inputs":[{"indexed":true,"internalType":"address","name":"previousOwner","type":"address"},{"indexed":true,"internalType":"address","name":"newOwner","type":"address"}],"name":"OwnershipTransferred","type":"event"},{"anonymous":false,"inputs":[{"indexed":true,"internalType":"address","name":"from","type":"address"},{"indexed":true,"internalType":"address","name":"to","type":"address"},{"indexed":true,"internalType":"uint256","name":"tokenId","type":"uint256"}],"name":"Transfer","type":"event"},{"inputs":[{"internalType":"address","name":"to","type":"address"},{"internalType":"uint256","name":"tokenId","type":"uint256"}],"name":"approve","outputs":[],"stateMutability":"nonpayable","type":"function"},{"inputs":[{"internalType":"address","name":"owner","type":"address"}],"name":"balanceOf","outputs":[{"internalType":"uint256","name":"","type":"uint256"}],"stateMutability":"view","type":"function"},{"inputs":[{"internalType":"address","name":"_to","type":"address"}],"name":"claimIdentity","outputs":[],"stateMutability":"nonpayable","type":"function"},{"inputs":[{"internalType":"uint256","name":"tokenId","type":"uint256"}],"name":"getAbility","outputs":[{"internalType":"string","name":"","type":"string"}],"stateMutability":"view","type":"function"},{"inputs":[{"internalType":"uint256","name":"tokenId","type":"uint256"}],"name":"getApproved","outputs":[{"internalType":"address","name":"","type":"address"}],"stateMutability":"view","type":"function"},{"inputs":[{"internalType":"uint256","name":"tokenId","type":"uint256"}],"name":"getAttractiveness","outputs":[{"internalType":"string","name":"","type":"string"}],"stateMutability":"view","type":"function"},{"inputs":[{"internalType":"uint256","name":"tokenId","type":"uint256"}],"name":"getClass","outputs":[{"internalType":"string","name":"","type":"string"}],"stateMutability":"view","type":"function"},{"inputs":[{"internalType":"uint256","name":"tokenId","type":"uint256"}],"name":"getCool","outputs":[{"internalType":"string","name":"","type":"string"}],"stateMutability":"view","type":"function"},{"inputs":[{"internalType":"uint256","name":"tokenId","type":"uint256"}],"name":"getCredits","outputs":[{"internalType":"string","name":"","type":"string"}],"stateMutability":"view","type":"function"},{"inputs":[{"internalType":"uint256","name":"tokenId","type":"uint256"}],"name":"getEyes","outputs":[{"internalType":"string","name":"","type":"string"}],"stateMutability":"view","type":"function"},{"inputs":[{"internalType":"uint256","name":"tokenId","type":"uint256"}],"name":"getGender","outputs":[{"internalType":"string","name":"","type":"string"}],"stateMutability":"view","type":"function"},{"inputs":[{"internalType":"uint256","name":"tokenId","type":"uint256"}],"name":"getIntelligence","outputs":[{"internalType":"string","name":"","type":"string"}],"stateMutability":"view","type":"function"},{"inputs":[{"internalType":"uint256","name":"tokenId","type":"uint256"}],"name":"getRace","outputs":[{"internalType":"string","name":"","type":"string"}],"stateMutability":"view","type":"function"},{"inputs":[{"internalType":"uint256","name":"tokenId","type":"uint256"}],"name":"getStrength","outputs":[{"internalType":"string","name":"","type":"string"}],"stateMutability":"view","type":"function"},{"inputs":[{"internalType":"uint256","name":"tokenId","type":"uint256"}],"name":"getTechSkill","outputs":[{"internalType":"string","name":"","type":"string"}],"stateMutability":"view","type":"function"},{"inputs":[{"internalType":"address","name":"owner","type":"address"},{"internalType":"address","name":"operator","type":"address"}],"name":"isApprovedForAll","outputs":[{"internalType":"bool","name":"","type":"bool"}],"stateMutability":"view","type":"function"},{"inputs":[],"name":"name","outputs":[{"internalType":"string","name":"","type":"string"}],"stateMutability":"view","type":"function"},{"inputs":[],"name":"owner","outputs":[{"internalType":"address","name":"","type":"address"}],"stateMutability":"view","type":"function"},{"inputs":[{"internalType":"uint256","name":"tokenId","type":"uint256"}],"name":"ownerOf","outputs":[{"internalType":"address","name":"","type":"address"}],"stateMutability":"view","type":"function"},{"inputs":[],"name":"renounceOwnership","outputs":[],"stateMutability":"nonpayable","type":"function"},{"inputs":[{"internalType":"address","name":"from","type":"address"},{"internalType":"address","name":"to","type":"address"},{"internalType":"uint256","name":"tokenId","type":"uint256"}],"name":"safeTransferFrom","outputs":[],"stateMutability":"nonpayable","type":"function"},{"inputs":[{"internalType":"address","name":"from","type":"address"},{"internalType":"address","name":"to","type":"address"},{"internalType":"uint256","name":"tokenId","type":"uint256"},{"internalType":"bytes","name":"_data","type":"bytes"}],"name":"safeTransferFrom","outputs":[],"stateMutability":"nonpayable","type":"function"},{"inputs":[{"internalType":"address","name":"operator","type":"address"},{"internalType":"bool","name":"approved","type":"bool"}],"name":"setApprovalForAll","outputs":[],"stateMutability":"nonpayable","type":"function"},{"inputs":[{"internalType":"address","name":"contractAddress","type":"address"}],"name":"setCitizenContract","outputs":[],"stateMutability":"nonpayable","type":"function"},{"inputs":[{"internalType":"address","name":"contractAddress","type":"address"}],"name":"setMintContract","outputs":[],"stateMutability":"nonpayable","type":"function"},{"inputs":[{"internalType":"bytes4","name":"interfaceId","type":"bytes4"}],"name":"supportsInterface","outputs":[{"internalType":"bool","name":"","type":"bool"}],"stateMutability":"view","type":"function"},{"inputs":[],"name":"symbol","outputs":[{"internalType":"string","name":"","type":"string"}],"stateMutability":"view","type":"function"},{"inputs":[{"internalType":"uint256","name":"index","type":"uint256"}],"name":"tokenByIndex","outputs":[{"internalType":"uint256","name":"","type":"uint256"}],"stateMutability":"view","type":"function"},{"inputs":[{"internalType":"uint256","name":"tokenId","type":"uint256"}],"name":"tokenExists","outputs":[{"internalType":"bool","name":"","type":"bool"}],"stateMutability":"view","type":"function"},{"inputs":[{"internalType":"address","name":"owner","type":"address"},{"internalType":"uint256","name":"index","type":"uint256"}],"name":"tokenOfOwnerByIndex","outputs":[{"internalType":"uint256","name":"","type":"uint256"}],"stateMutability":"view","type":"function"},{"inputs":[{"internalType":"uint256","name":"tokenId","type":"uint256"}],"name":"tokenURI","outputs":[{"internalType":"string","name":"","type":"string"}],"stateMutability":"view","type":"function"},{"inputs":[],"name":"totalSupply","outputs":[{"internalType":"uint256","name":"","type":"uint256"}],"stateMutability":"view","type":"function"},{"inputs":[{"internalType":"address","name":"from","type":"address"},{"internalType":"address","name":"to","type":"address"},{"internalType":"uint256","name":"tokenId","type":"uint256"}],"name":"transferFrom","outputs":[],"stateMutability":"nonpayable","type":"function"},{"inputs":[{"internalType":"address","name":"newOwner","type":"address"}],"name":"transferOwnership","outputs":[],"stateMutability":"nonpayable","type":"function"}],"bytecode":{"object":"608060405260fa600c553480156200001657600080fd5b50604080518082018252601c81527f4e656f20546f6b796f3a20426f75676874204964656e746974696573000000006020808301918252835180850190945260068452654e454f54424960d01b9084015281519192916200007a9160009162000129565b5080516200009090600190602084019062000129565b50506001600a5550620000a333620000d7565b600e8054610100600160a81b031916745804ae06600951778cbea8b7065011272f2f3023001790556109c5600d556200020c565b600b80546001600160a01b038381166001600160a01b0319831681179093556040519116919082907f8be0079c531659141344cd1fd0a4f28419497f9722a3daafe3b4186f6b6457e090600090a35050565b8280546200013790620001cf565b90600052602060002090601f0160209004810192826200015b5760008555620001a6565b82601f106200017657805160ff1916838001178555620001a6565b82800160010185558215620001a6579182015b82811115620001a657825182559160200191906001019062000189565b50620001b4929150620001b8565b5090565b5b80821115620001b45760008155600101620001b9565b600181811c90821680620001e457607f821691505b602082108114156200020657634e487b7160e01b600052602260045260246000fd5b50919050565b61206f806200021c6000396000f3fe608060405234801561001057600080fd5b50600436106102055760003560e01c8063715018a61161011a578063c4d30bfa116100ad578063e06d2eb51161007c578063e06d2eb514610449578063e53fbda61461045c578063e985e9c51461046f578063ef9dc668146104ab578063f2fde38b146104be57600080fd5b8063c4d30bfa146103fd578063c87b56dd14610410578063ce383e7014610423578063d5523f771461043657600080fd5b806395d89b41116100e957806395d89b41146103bc578063a22cb465146103c4578063b88d4fde146103d7578063baa5b27f146103ea57600080fd5b8063715018a61461037d57806374570e501461038557806382b1168d146103985780638da5cb5b146103ab57600080fd5b806323b872dd1161019d5780634f6ccce71161016c5780634f6ccce71461031e578063512d62df146103315780635fb64a6a146103445780636352211e1461035757806370a082311461036a57600080fd5b806323b872dd146102d25780632f728eb3146102e55780632f745c59146102f857806342842e0e1461030b57600080fd5b8063095ea7b3116101d9578063095ea7b3146102855780630d71aba51461029a57806318160ddd146102ad57806319389b95146102bf57600080fd5b8062923f9e1461020a57806301ffc9a71461023257806306fdde0314610245578063081812fc1461025a575b600080fd5b61021d610218366004611d20565b6104d1565b60405190151581526020015b60405180910390f35b61021d610240366004611c6f565b6104e2565b61024d610507565b6040516102299190611da2565b61026d610268366004611d20565b610599565b6040516001600160a01b039091168152602001610229565b610298610293366004611c45565b610626565b005b61024d6102a8366004611d20565b61073c565b6008545b604051908152602001610229565b61024d6102cd366004611d20565b6107f4565b6102986102e0366004611b22565b610854565b61024d6102f3366004611d20565b610885565b6102b1610306366004611c45565b6108e5565b610298610319366004611b22565b61097b565b6102b161032c366004611d20565b610996565b61024d61033f366004611d20565b610a29565b610298610352366004611acd565b610a89565b61026d610365366004611d20565b610adb565b6102b1610378366004611acd565b610b52565b610298610bd9565b610298610393366004611acd565b610c0f565b6102986103a6366004611acd565b610ce8565b600b546001600160a01b031661026d565b61024d610d34565b6102986103d2366004611c09565b610d43565b6102986103e5366004611b5e565b610e08565b61024d6103f8366004611d20565b610e40565b61024d61040b366004611d20565b610ea0565b61024d61041e366004611d20565b610f00565b61024d610431366004611d20565b610f60565b61024d610444366004611d20565b610fc0565b61024d610457366004611d20565b611020565b61024d61046a366004611d20565b611080565b61021d61047d366004611aef565b6001600160a01b03918216600090815260056020908152604080832093909416825291909152205460ff1690565b61024d6104b9366004611d20565b6110e0565b6102986104cc366004611acd565b611140565b60006104dc826111db565b92915050565b60006001600160e01b0319821663780e9d6360e01b14806104dc57506104dc826111f8565b60606000805461051690611f90565b80601f016020809104026020016040519081016040528092919081815260200182805461054290611f90565b801561058f5780601f106105645761010080835404028352916020019161058f565b820191906000526020600020905b81548152906001019060200180831161057257829003601f168201915b5050505050905090565b60006105a4826111db565b61060a5760405162461bcd60e51b815260206004820152602c60248201527f4552433732313a20617070726f76656420717565727920666f72206e6f6e657860448201526b34b9ba32b73a103a37b5b2b760a11b60648201526084015b60405180910390fd5b506000908152600460205260409020546001600160a01b031690565b600061063182610adb565b9050806001600160a01b0316836001600160a01b0316141561069f5760405162461bcd60e51b815260206004820152602160248201527f4552433732313a20617070726f76616c20746f2063757272656e74206f776e656044820152603960f91b6064820152608401610601565b336001600160a01b03821614806106bb57506106bb813361047d565b61072d5760405162461bcd60e51b815260206004820152603860248201527f4552433732313a20617070726f76652063616c6c6572206973206e6f74206f7760448201527f6e6572206e6f7220617070726f76656420666f7220616c6c00000000000000006064820152608401610601565b6107378383611248565b505050565b6060610747826111db565b6107635760405162461bcd60e51b815260040161060190611e3c565b600e54604051630d71aba560e01b81526004810184905260609161010090046001600160a01b0316908190630d71aba5906024015b60006040518083038186803b1580156107b057600080fd5b505afa1580156107c4573d6000803e3d6000fd5b505050506040513d6000823e601f3d908101601f191682016040526107ec9190810190611ca9565b949350505050565b60606107ff826111db565b61081b5760405162461bcd60e51b815260040161060190611e3c565b600e546040516319389b9560e01b81526004810184905260609161010090046001600160a01b03169081906319389b9590602401610798565b61085e33826112b6565b61087a5760405162461bcd60e51b815260040161060190611e8b565b61073783838361139c565b6060610890826111db565b6108ac5760405162461bcd60e51b815260040161060190611e3c565b600e54604051632f728eb360e01b81526004810184905260609161010090046001600160a01b0316908190632f728eb390602401610798565b60006108f083610b52565b82106109525760405162461bcd60e51b815260206004820152602b60248201527f455243373231456e756d657261626c653a206f776e657220696e646578206f7560448201526a74206f6620626f756e647360a81b6064820152608401610601565b506001600160a01b03919091166000908152600660209081526040808320938352929052205490565b61073783838360405180602001604052806000815250610e08565b60006109a160085490565b8210610a045760405162461bcd60e51b815260206004820152602c60248201527f455243373231456e756d657261626c653a20676c6f62616c20696e646578206f60448201526b7574206f6620626f756e647360a01b6064820152608401610601565b60088281548110610a1757610a17611ff7565b90600052602060002001549050919050565b6060610a34826111db565b610a505760405162461bcd60e51b815260040161060190611e3c565b600e5460405163512d62df60e01b81526004810184905260609161010090046001600160a01b031690819063512d62df90602401610798565b600b546001600160a01b03163314610ab35760405162461bcd60e51b815260040161060190611e07565b600e80546001600160a01b0390921661010002610100600160a81b0319909216919091179055565b6000818152600260205260408120546001600160a01b0316806104dc5760405162461bcd60e51b815260206004820152602960248201527f4552433732313a206f776e657220717565727920666f72206e6f6e657869737460448201526832b73a103a37b5b2b760b91b6064820152608401610601565b60006001600160a01b038216610bbd5760405162461bcd60e51b815260206004820152602a60248201527f4552433732313a2062616c616e636520717565727920666f7220746865207a65604482015269726f206164647265737360b01b6064820152608401610601565b506001600160a01b031660009081526003602052604090205490565b600b546001600160a01b03163314610c035760405162461bcd60e51b815260040161060190611e07565b610c0d6000611547565b565b6002600a541415610c625760405162461bcd60e51b815260206004820152601f60248201527f5265656e7472616e637947756172643a207265656e7472616e742063616c6c006044820152606401610601565b6002600a55600f546001600160a01b03163314610cc15760405162461bcd60e51b815260206004820152601860248201527f4d75737420626520636974697a656e20636f6e747261637400000000000000006044820152606401610601565b610ce081600d54610cd160085490565b610cdb9190611f35565b611599565b506001600a55565b600b546001600160a01b03163314610d125760405162461bcd60e51b815260040161060190611e07565b600f80546001600160a01b0319166001600160a01b0392909216919091179055565b60606001805461051690611f90565b6001600160a01b038216331415610d9c5760405162461bcd60e51b815260206004820152601960248201527f4552433732313a20617070726f766520746f2063616c6c6572000000000000006044820152606401610601565b3360008181526005602090815260408083206001600160a01b03871680855290835292819020805460ff191686151590811790915590519081529192917f17307eab39ab6107e8899845ad3d59bd9653f200f220920489ca2b5937696c31910160405180910390a35050565b610e1233836112b6565b610e2e5760405162461bcd60e51b815260040161060190611e8b565b610e3a848484846115b7565b50505050565b6060610e4b826111db565b610e675760405162461bcd60e51b815260040161060190611e3c565b600e5460405163baa5b27f60e01b81526004810184905260609161010090046001600160a01b031690819063baa5b27f90602401610798565b6060610eab826111db565b610ec75760405162461bcd60e51b815260040161060190611e3c565b600e5460405163626985fd60e11b81526004810184905260609161010090046001600160a01b031690819063c4d30bfa90602401610798565b6060610f0b826111db565b610f275760405162461bcd60e51b815260040161060190611e3c565b600e5460405163c87b56dd60e01b81526004810184905260609161010090046001600160a01b031690819063c87b56dd90602401610798565b6060610f6b826111db565b610f875760405162461bcd60e51b815260040161060190611e3c565b600e54604051630ce383e760e41b81526004810184905260609161010090046001600160a01b031690819063ce383e7090602401610798565b6060610fcb826111db565b610fe75760405162461bcd60e51b815260040161060190611e3c565b600e5460405163d5523f7760e01b81526004810184905260609161010090046001600160a01b031690819063d5523f7790602401610798565b606061102b826111db565b6110475760405162461bcd60e51b815260040161060190611e3c565b600e5460405163e06d2eb560e01b81526004810184905260609161010090046001600160a01b031690819063e06d2eb590602401610798565b606061108b826111db565b6110a75760405162461bcd60e51b815260040161060190611e3c565b600e5460405163729fded360e11b81526004810184905260609161010090046001600160a01b031690819063e53fbda690602401610798565b60606110eb826111db565b6111075760405162461bcd60e51b815260040161060190611e3c565b600e54604051631df3b8cd60e31b81526004810184905260609161010090046001600160a01b031690819063ef9dc66890602401610798565b600b546001600160a01b0316331461116a5760405162461bcd60e51b815260040161060190611e07565b6001600160a01b0381166111cf5760405162461bcd60e51b815260206004820152602660248201527f4f776e61626c653a206e6577206f776e657220697320746865207a65726f206160448201526564647265737360d01b6064820152608401610601565b6111d881611547565b50565b6000908152600260205260409020546001600160a01b0316151590565b60006001600160e01b031982166380ac58cd60e01b148061122957506001600160e01b03198216635b5e139f60e01b145b806104dc57506301ffc9a760e01b6001600160e01b03198316146104dc565b600081815260046020526040902080546001600160a01b0319166001600160a01b038416908117909155819061127d82610adb565b6001600160a01b03167f8c5be1e5ebec7d5bd14f71427d1e84f3dd0314c0f7b2291e5b200ac8c7c3b92560405160405180910390a45050565b60006112c1826111db565b6113225760405162461bcd60e51b815260206004820152602c60248201527f4552433732313a206f70657261746f7220717565727920666f72206e6f6e657860448201526b34b9ba32b73a103a37b5b2b760a11b6064820152608401610601565b600061132d83610adb565b9050806001600160a01b0316846001600160a01b031614806113685750836001600160a01b031661135d84610599565b6001600160a01b0316145b806107ec57506001600160a01b0380821660009081526005602090815260408083209388168352929052205460ff166107ec565b826001600160a01b03166113af82610adb565b6001600160a01b0316146114175760405162461bcd60e51b815260206004820152602960248201527f4552433732313a207472616e73666572206f6620746f6b656e2074686174206960448201526839903737ba1037bbb760b91b6064820152608401610601565b6001600160a01b0382166114795760405162461bcd60e51b8152602060048201526024808201527f4552433732313a207472616e7366657220746f20746865207a65726f206164646044820152637265737360e01b6064820152608401610601565b6114848383836115ea565b61148f600082611248565b6001600160a01b03831660009081526003602052604081208054600192906114b8908490611f4d565b90915550506001600160a01b03821660009081526003602052604081208054600192906114e6908490611f35565b909155505060008181526002602052604080822080546001600160a01b0319166001600160a01b0386811691821790925591518493918716917fddf252ad1be2c89b69c2b068fc378daa952ba7f163c4a11628f55a4df523b3ef91a4505050565b600b80546001600160a01b038381166001600160a01b0319831681179093556040519116919082907f8be0079c531659141344cd1fd0a4f28419497f9722a3daafe3b4186f6b6457e090600090a35050565b6115b38282604051806020016040528060008152506116a2565b5050565b6115c284848461139c565b6115ce848484846116d5565b610e3a5760405162461bcd60e51b815260040161060190611db5565b6001600160a01b0383166116455761164081600880546000838152600960205260408120829055600182018355919091527ff3f7a9fe364faab93b216da50a3214154f22a0a2b415b23a84c8169e8b636ee30155565b611668565b816001600160a01b0316836001600160a01b0316146116685761166883826117e2565b6001600160a01b03821661167f576107378161187f565b826001600160a01b0316826001600160a01b03161461073757610737828261192e565b6116ac8383611972565b6116b960008484846116d5565b6107375760405162461bcd60e51b815260040161060190611db5565b60006001600160a01b0384163b156117d757604051630a85bd0160e11b81526001600160a01b0385169063150b7a0290611719903390899088908890600401611d65565b602060405180830381600087803b15801561173357600080fd5b505af1925050508015611763575060408051601f3d908101601f1916820190925261176091810190611c8c565b60015b6117bd573d808015611791576040519150601f19603f3d011682016040523d82523d6000602084013e611796565b606091505b5080516117b55760405162461bcd60e51b815260040161060190611db5565b805181602001fd5b6001600160e01b031916630a85bd0160e11b1490506107ec565b506001949350505050565b600060016117ef84610b52565b6117f99190611f4d565b60008381526007602052604090205490915080821461184c576001600160a01b03841660009081526006602090815260408083208584528252808320548484528184208190558352600790915290208190555b5060009182526007602090815260408084208490556001600160a01b039094168352600681528383209183525290812055565b60085460009061189190600190611f4d565b600083815260096020526040812054600880549394509092849081106118b9576118b9611ff7565b9060005260206000200154905080600883815481106118da576118da611ff7565b600091825260208083209091019290925582815260099091526040808220849055858252812055600880548061191257611912611fe1565b6001900381819060005260206000200160009055905550505050565b600061193983610b52565b6001600160a01b039093166000908152600660209081526040808320868452825280832085905593825260079052919091209190915550565b6001600160a01b0382166119c85760405162461bcd60e51b815260206004820181905260248201527f4552433732313a206d696e7420746f20746865207a65726f20616464726573736044820152606401610601565b6119d1816111db565b15611a1e5760405162461bcd60e51b815260206004820152601c60248201527f4552433732313a20746f6b656e20616c7265616479206d696e746564000000006044820152606401610601565b611a2a600083836115ea565b6001600160a01b0382166000908152600360205260408120805460019290611a53908490611f35565b909155505060008181526002602052604080822080546001600160a01b0319166001600160a01b03861690811790915590518392907fddf252ad1be2c89b69c2b068fc378daa952ba7f163c4a11628f55a4df523b3ef908290a45050565b80356001600160a01b0381168114611ac857600080fd5b919050565b600060208284031215611adf57600080fd5b611ae882611ab1565b9392505050565b60008060408385031215611b0257600080fd5b611b0b83611ab1565b9150611b1960208401611ab1565b90509250929050565b600080600060608486031215611b3757600080fd5b611b4084611ab1565b9250611b4e60208501611ab1565b9150604084013590509250925092565b60008060008060808587031215611b7457600080fd5b611b7d85611ab1565b9350611b8b60208601611ab1565b925060408501359150606085013567ffffffffffffffff811115611bae57600080fd5b8501601f81018713611bbf57600080fd5b8035611bd2611bcd82611f0d565b611edc565b818152886020838501011115611be757600080fd5b8160208401602083013760006020838301015280935050505092959194509250565b60008060408385031215611c1c57600080fd5b611c2583611ab1565b915060208301358015158114611c3a57600080fd5b809150509250929050565b60008060408385031215611c5857600080fd5b611c6183611ab1565b946020939093013593505050565b600060208284031215611c8157600080fd5b8135611ae881612023565b600060208284031215611c9e57600080fd5b8151611ae881612023565b600060208284031215611cbb57600080fd5b815167ffffffffffffffff811115611cd257600080fd5b8201601f81018413611ce357600080fd5b8051611cf1611bcd82611f0d565b818152856020838501011115611d0657600080fd5b611d17826020830160208601611f64565b95945050505050565b600060208284031215611d3257600080fd5b5035919050565b60008151808452611d51816020860160208601611f64565b601f01601f19169290920160200192915050565b6001600160a01b0385811682528416602082015260408101839052608060608201819052600090611d9890830184611d39565b9695505050505050565b602081526000611ae86020830184611d39565b60208082526032908201527f4552433732313a207472616e7366657220746f206e6f6e20455243373231526560408201527131b2b4bb32b91034b6b83632b6b2b73a32b960711b606082015260800190565b6020808252818101527f4f776e61626c653a2063616c6c6572206973206e6f7420746865206f776e6572604082015260600190565b6020808252602f908201527f4552433732314d657461646174613a2055524920717565727920666f72206e6f60408201526e3732bc34b9ba32b73a103a37b5b2b760891b606082015260800190565b60208082526031908201527f4552433732313a207472616e736665722063616c6c6572206973206e6f74206f6040820152701ddb995c881b9bdc88185c1c1c9bdd9959607a1b606082015260800190565b604051601f8201601f1916810167ffffffffffffffff81118282101715611f0557611f0561200d565b604052919050565b600067ffffffffffffffff821115611f2757611f2761200d565b50601f01601f191660200190565b60008219821115611f4857611f48611fcb565b500190565b600082821015611f5f57611f5f611fcb565b500390565b60005b83811015611f7f578181015183820152602001611f67565b83811115610e3a5750506000910152565b600181811c90821680611fa457607f821691505b60208210811415611fc557634e487b7160e01b600052602260045260246000fd5b50919050565b634e487b7160e01b600052601160045260246000fd5b634e487b7160e01b600052603160045260246000fd5b634e487b7160e01b600052603260045260246000fd5b634e487b7160e01b600052604160045260246000fd5b6001600160e01b0319811681146111d857600080fdfea26469706673582212209df2741e3c6ea00fb53c9caa129961fd9bd61fbe0bbb0b1bbf59b6ca59c42c7064736f6c63430008060033"}}