{
  "opcodeHash": "0x325c5be4d8dacb357d29e7041a7b48231b6d7b314753e2cee1d4f0524eacdbec",
  "metalessHash": "0x34a82f33dd5de0634a0749c7d38dce7cd26db0d37f7faba9f7924be238944c2c",
  "runtimeHash": "0x5ba3389a59f5c43333c2572e2492ca86fd6e8e7b390f4ccd841117982260f3cd",
  "encodedMetadata": [
    {
      "bzzr0": "/swarm/bzzr0/0a293ac22712554be0c3f443fc00b030b09d63edad0464559c1947f97579cf3b"
    }
  ],
  "abi": [
    {
      "constant": false,
      "inputs": [],
      "name": "withDraw",
      "outputs": [
        {
          "name": "",
          "type": "bool"
        }
      ],
      "payable": false,
      "stateMutability": "nonpayable",
      "type": "function"
    },
    {
      "constant": false,
      "inputs": [
        {
          "name": "account",
          "type": "address"
        }
      ],
      "name": "addWhitelisted",
      "outputs": [],
      "payable": false,
      "stateMutability": "nonpayable",
      "type": "function"
    },
    {
      "constant": true,
      "inputs": [],
      "name": "collectedEther",
      "outputs": [
        {
          "name": "",
          "type": "uint256"
        }
      ],
      "payable": false,
      "stateMutability": "view",
      "type": "function"
    },
    {
      "constant": false,
      "inputs": [
        {
          "name": "account",
          "type": "address"
        }
      ],
      "name": "removeWhitelisted",
      "outputs": [],
      "payable": false,
      "stateMutability": "nonpayable",
      "type": "function"
    },
    {
      "constant": true,
      "inputs": [
        {
          "name": "account",
          "type": "address"
        }
      ],
      "name": "isWhitelisted",
      "outputs": [
        {
          "name": "",
          "type": "bool"
        }
      ],
      "payable": false,
      "stateMutability": "view",
      "type": "function"
    },
    {
      "constant": true,
      "inputs": [
        {
          "name": "",
          "type": "address"
        }
      ],
      "name": "investors",
      "outputs": [
        {
          "name": "",
          "type": "uint256"
        }
      ],
      "payable": false,
      "stateMutability": "view",
      "type": "function"
    },
    {
      "constant": false,
      "inputs": [],
      "name": "renounceOwnership",
      "outputs": [],
      "payable": false,
      "stateMutability": "nonpayable",
      "type": "function"
    },
    {
      "constant": true,
      "inputs": [],
      "name": "owner",
      "outputs": [
        {
          "name": "",
          "type": "address"
        }
      ],
      "payable": false,
      "stateMutability": "view",
      "type": "function"
    },
    {
      "constant": true,
      "inputs": [],
      "name": "isOwner",
      "outputs": [
        {
          "name": "",
          "type": "bool"
        }
      ],
      "payable": false,
      "stateMutability": "view",
      "type": "function"
    },
    {
      "constant": false,
      "inputs": [
        {
          "name": "newOwner",
          "type": "address"
        }
      ],
      "name": "transferOwnership",
      "outputs": [],
      "payable": false,
      "stateMutability": "nonpayable",
      "type": "function"
    },
    {
      "inputs": [
        {
          "name": "_investorWallet",
          "type": "address"
        }
      ],
      "payable": true,
      "stateMutability": "payable",
      "type": "constructor"
    },
    {
      "payable": true,
      "stateMutability": "payable",
      "type": "fallback"
    },
    {
      "anonymous": false,
      "inputs": [
        {
          "indexed": true,
          "name": "account",
          "type": "address"
        }
      ],
      "name": "WhitelistedAdded",
      "type": "event"
    },
    {
      "anonymous": false,
      "inputs": [
        {
          "indexed": true,
          "name": "account",
          "type": "address"
        }
      ],
      "name": "WhitelistedRemoved",
      "type": "event"
    },
    {
      "anonymous": false,
      "inputs": [
        {
          "indexed": true,
          "name": "previousOwner",
          "type": "address"
        },
        {
          "indexed": true,
          "name": "newOwner",
          "type": "address"
        }
      ],
      "name": "OwnershipTransferred",
      "type": "event"
    }
  ],
  "bytecode": {
    "object": "608060405260405160208062000eab833981018060405260208110156200002557600080fd5b50516200003a64010000000062000414810204565b60008054600160a060020a031916600160a060020a03928316178082556040519216917f8be0079c531659141344cd1fd0a4f28419497f9722a3daafe3b4186f6b6457e0908290a360038054600160a060020a031916600160a060020a038316179055620000c573d8b3b1b185c9a278bd20265c846a5f4c1010cd0f64010000000062000418810204565b620000ed732d55748ce1b792d1ba65f42afcf189fdc386bbcf64010000000062000418810204565b6200011573ef9eff0479d57032cda12e0d6bbedb55b9b8c9e764010000000062000418810204565b6200013d73df55acd44102fa7dd9c1b7f95adc2edb1129b8d864010000000062000418810204565b6200016573bfe663805129915942980bc86bd832ab031bb2f964010000000062000418810204565b6200018d735fd8eb9b9958e88698fa64f0e4a418f6c9c563e264010000000062000418810204565b620001b573cc174625b93437098591c6b1d3b526f730cb634664010000000062000418810204565b620001dd73c221f41c08656e9fd49141306a9365ff8702b8a564010000000062000418810204565b62000205731c5f7635a4a302d72e652486907051f84cd5500564010000000062000418810204565b6200022d730e49d6ec5e22daa59bc845b3353d81e59a45ee0d64010000000062000418810204565b6200025573ef92d1638b63dd82bd744fffb96f9d46b0eec50e64010000000062000418810204565b6200027d73a50341f5e72ed061cd0adbd338cbf070dc45784c64010000000062000418810204565b620002a57329bf6652e795c360f7605be0fcd8b8e4f29a52d464010000000062000418810204565b620002cd73db820edee02c9ee0d9a95910af34031f1798966064010000000062000418810204565b620002f573e12d52275eb64ff18680aa2b081fef8b736cd66d64010000000062000418810204565b6200031d73ae5d528177a6273dc022eca11496b89298e4654f64010000000062000418810204565b6200034573a59c52b97c2cdcbbe9d5fcb3240233e3868314c164010000000062000418810204565b6200036d737c0bf6bb2356aaaa60c04072c73a5dbe67dac25e64010000000062000418810204565b62000395736f1e02f7853a7614f11c1909ed00310713d2e5cf64010000000062000418810204565b620003bd731f4a6756da7592fc0f9a031d127d016acc0bfcb264010000000062000418810204565b620003e573d8c91ec53e8d236f9a15d6b42e878393bf41351564010000000062000418810204565b6200040d73fd026dfffdf66bbecfc9f8bc26caf2a425ea046764010000000062000418810204565b50620004fd565b3390565b62000433600182640100000000620008b86200046a82021704565b604051600160a060020a038216907fee1504a83b6d4a361f4c1dc78ab59bfa30d6a3b6612c403e86bb01ef2984295f90600090a250565b600160a060020a03811615156200048057600080fd5b620004958282640100000000620004c5810204565b15620004a057600080fd5b600160a060020a0316600090815260209190915260409020805460ff19166001179055565b6000600160a060020a0382161515620004dd57600080fd5b50600160a060020a03166000908152602091909152604090205460ff1690565b61099e806200050d6000396000f3fe6080604052600436106100a35763ffffffff7c01000000000000000000000000000000000000000000000000000000006000350416630fdb1c10811461025057806310154bad146102795780632474a21c146102ae578063291d9549146102d55780633af32abf146103085780636f7bc9be1461033b578063715018a61461036e5780638da5cb5b146103835780638f32d59b146103b4578063f2fde38b146103c9575b6100ac336103fc565b15156100b757600080fd5b34671bc16d674ec80000111580156100d75750674563918244f400003411155b1515610153576040805160e560020a62461bcd02815260206004820152603d60248201527f457468657220696e766573746d656e742072616e6765206d757374206265207260448201527f65717569726564206265747765656e203220746f20352065746865722e000000606482015290519081900360840190fd5b6004546801a055690d9db8000010156101dc576040805160e560020a62461bcd02815260206004820152603760248201527f5072652053616c65207461726765742066756c66696c6c65642c20556e61626c60448201527f6520746f20616363657074206d6f72652066756e64732e000000000000000000606482015290519081900360840190fd5b61021234600260006101ec610415565b600160a060020a031681526020810191909152604001600020549063ffffffff61041916565b6002600061021e610415565b600160a060020a0316815260208101919091526040016000205560045461024b903463ffffffff61041916565b600455005b34801561025c57600080fd5b5061026561047d565b604080519115158252519081900360200190f35b34801561028557600080fd5b506102ac6004803603602081101561029c57600080fd5b5035600160a060020a0316610513565b005b3480156102ba57600080fd5b506102c361056b565b60408051918252519081900360200190f35b3480156102e157600080fd5b506102ac600480360360208110156102f857600080fd5b5035600160a060020a0316610571565b34801561031457600080fd5b506102656004803603602081101561032b57600080fd5b5035600160a060020a03166103fc565b34801561034757600080fd5b506102c36004803603602081101561035e57600080fd5b5035600160a060020a03166105c6565b34801561037a57600080fd5b506102ac6105d8565b34801561038f57600080fd5b5061039861067b565b60408051600160a060020a039092168252519081900360200190f35b3480156103c057600080fd5b5061026561068a565b3480156103d557600080fd5b506102ac600480360360208110156103ec57600080fd5b5035600160a060020a03166106ae565b600061040f60018363ffffffff61070316565b92915050565b3390565b600082820183811015610476576040805160e560020a62461bcd02815260206004820152601b60248201527f536166654d6174683a206164646974696f6e206f766572666c6f770000000000604482015290519081900360640190fd5b9392505050565b600061048761068a565b15156104cb576040805160e560020a62461bcd0281526020600482018190526024820152600080516020610953833981519152604482015290519081900360640190fd5b600354600454604051600160a060020a039092169181156108fc0291906000818181858888f19350505050158015610507573d6000803e3d6000fd5b50506000600455600190565b61051b61068a565b151561055f576040805160e560020a62461bcd0281526020600482018190526024820152600080516020610953833981519152604482015290519081900360640190fd5b6105688161073a565b50565b60045481565b61057961068a565b15156105bd576040805160e560020a62461bcd0281526020600482018190526024820152600080516020610953833981519152604482015290519081900360640190fd5b61056881610782565b60026020526000908152604090205481565b6105e061068a565b1515610624576040805160e560020a62461bcd0281526020600482018190526024820152600080516020610953833981519152604482015290519081900360640190fd5b60008054604051600160a060020a03909116907f8be0079c531659141344cd1fd0a4f28419497f9722a3daafe3b4186f6b6457e0908390a36000805473ffffffffffffffffffffffffffffffffffffffff19169055565b600054600160a060020a031690565b60008054600160a060020a031661069f610415565b600160a060020a031614905090565b6106b661068a565b15156106fa576040805160e560020a62461bcd0281526020600482018190526024820152600080516020610953833981519152604482015290519081900360640190fd5b610568816107ca565b6000600160a060020a038216151561071a57600080fd5b50600160a060020a03166000908152602091909152604090205460ff1690565b61074b60018263ffffffff6108b816565b604051600160a060020a038216907fee1504a83b6d4a361f4c1dc78ab59bfa30d6a3b6612c403e86bb01ef2984295f90600090a250565b61079360018263ffffffff61090616565b604051600160a060020a038216907f270d9b30cf5b0793bbfd54c9d5b94aeb49462b8148399000265144a8722da6b690600090a250565b600160a060020a0381161515610850576040805160e560020a62461bcd02815260206004820152602660248201527f4f776e61626c653a206e6577206f776e657220697320746865207a65726f206160448201527f6464726573730000000000000000000000000000000000000000000000000000606482015290519081900360840190fd5b60008054604051600160a060020a03808516939216917f8be0079c531659141344cd1fd0a4f28419497f9722a3daafe3b4186f6b6457e091a36000805473ffffffffffffffffffffffffffffffffffffffff1916600160a060020a0392909216919091179055565b600160a060020a03811615156108cd57600080fd5b6108d78282610703565b156108e157600080fd5b600160a060020a0316600090815260209190915260409020805460ff19166001179055565b600160a060020a038116151561091b57600080fd5b6109258282610703565b151561093057600080fd5b600160a060020a0316600090815260209190915260409020805460ff1916905556fe4f776e61626c653a2063616c6c6572206973206e6f7420746865206f776e6572a165627a7a7230582061fb36bb97432493abe5ccfa2543ade12cf0c564d2a993e4ba51d98456c0fc2e0029"
  }
}