{
  "opcodeHash": "0x90ef9a91eb33ce2f49debf476e8bc9310291ce4fc9f007d68aed924e7e05fded",
  "metalessHash": "0x7624099242eaba4fb9a17d06e255d7b79c45e14d931074d98b02eaf7467f164c",
  "runtimeHash": "0xbd851b85ac0ffcbb4b377855d789c90ce2f79db2aa9a9b104958431c02fd997b",
  "encodedMetadata": [
    {
      "ipfs": "/ipfs/QmVhzh7ry48ePEsKwGmzFBiwGajrahYqEHiP8CFUswsCk1",
      "solc": "0.6.1"
    }
  ],
  "abi": [
    {
      "inputs": [
        {
          "internalType": "address",
          "name": "_shareContract",
          "type": "address"
        },
        {
          "internalType": "address",
          "name": "_memberContract",
          "type": "address"
        }
      ],
      "stateMutability": "nonpayable",
      "type": "constructor"
    },
    {
      "inputs": [
        {
          "internalType": "address",
          "name": "_address",
          "type": "address"
        },
        {
          "internalType": "uint256",
          "name": "_amount",
          "type": "uint256"
        },
        {
          "internalType": "uint256",
          "name": "_currency",
          "type": "uint256"
        }
      ],
      "name": "adminWidthdraw",
      "outputs": [],
      "stateMutability": "nonpayable",
      "type": "function"
    },
    {
      "inputs": [
        {
          "internalType": "address",
          "name": "_bot",
          "type": "address"
        }
      ],
      "name": "changeBot",
      "outputs": [],
      "stateMutability": "nonpayable",
      "type": "function"
    },
    {
      "inputs": [
        {
          "internalType": "uint256",
          "name": "_price",
          "type": "uint256"
        }
      ],
      "name": "changeETHPrice",
      "outputs": [],
      "stateMutability": "nonpayable",
      "type": "function"
    },
    {
      "inputs": [
        {
          "internalType": "address",
          "name": "_contract",
          "type": "address"
        }
      ],
      "name": "changeMemberContract",
      "outputs": [],
      "stateMutability": "nonpayable",
      "type": "function"
    },
    {
      "inputs": [
        {
          "internalType": "address",
          "name": "_contract",
          "type": "address"
        }
      ],
      "name": "changeShareContract",
      "outputs": [],
      "stateMutability": "nonpayable",
      "type": "function"
    },
    {
      "inputs": [
        {
          "internalType": "uint256",
          "name": "_price",
          "type": "uint256"
        }
      ],
      "name": "changeSharePrice",
      "outputs": [],
      "stateMutability": "nonpayable",
      "type": "function"
    },
    {
      "inputs": [
        {
          "internalType": "uint256",
          "name": "amount",
          "type": "uint256"
        }
      ],
      "name": "getAmountETH",
      "outputs": [
        {
          "internalType": "uint256",
          "name": "",
          "type": "uint256"
        }
      ],
      "stateMutability": "view",
      "type": "function"
    },
    {
      "inputs": [
        {
          "internalType": "uint256",
          "name": "_level",
          "type": "uint256"
        }
      ],
      "name": "getAmountETHLevel",
      "outputs": [
        {
          "internalType": "uint256",
          "name": "",
          "type": "uint256"
        }
      ],
      "stateMutability": "view",
      "type": "function"
    },
    {
      "inputs": [],
      "name": "getCurrentBonus",
      "outputs": [
        {
          "internalType": "uint256",
          "name": "step",
          "type": "uint256"
        },
        {
          "internalType": "uint256",
          "name": "max",
          "type": "uint256"
        },
        {
          "internalType": "uint256",
          "name": "sold",
          "type": "uint256"
        },
        {
          "internalType": "uint256",
          "name": "bonus",
          "type": "uint256"
        }
      ],
      "stateMutability": "view",
      "type": "function"
    },
    {
      "inputs": [
        {
          "internalType": "uint256",
          "name": "_amount",
          "type": "uint256"
        }
      ],
      "name": "getLevel",
      "outputs": [
        {
          "internalType": "uint8",
          "name": "level",
          "type": "uint8"
        },
        {
          "internalType": "uint256",
          "name": "value",
          "type": "uint256"
        }
      ],
      "stateMutability": "view",
      "type": "function"
    },
    {
      "inputs": [],
      "name": "getPrice",
      "outputs": [
        {
          "internalType": "uint256",
          "name": "ethPrice",
          "type": "uint256"
        },
        {
          "internalType": "uint256",
          "name": "sharePrice",
          "type": "uint256"
        }
      ],
      "stateMutability": "view",
      "type": "function"
    },
    {
      "inputs": [
        {
          "internalType": "address",
          "name": "_address",
          "type": "address"
        }
      ],
      "name": "getUser",
      "outputs": [
        {
          "internalType": "uint256",
          "name": "userLevel",
          "type": "uint256"
        },
        {
          "internalType": "uint256[8]",
          "name": "refTree",
          "type": "uint256[8]"
        }
      ],
      "stateMutability": "view",
      "type": "function"
    },
    {
      "inputs": [
        {
          "internalType": "address",
          "name": "_investor",
          "type": "address"
        }
      ],
      "name": "getUserRefsStats",
      "outputs": [
        {
          "internalType": "address[]",
          "name": "refs",
          "type": "address[]"
        }
      ],
      "stateMutability": "view",
      "type": "function"
    },
    {
      "inputs": [
        {
          "internalType": "address",
          "name": "_investor",
          "type": "address"
        }
      ],
      "name": "getUserStats",
      "outputs": [
        {
          "internalType": "address[]",
          "name": "refs",
          "type": "address[]"
        }
      ],
      "stateMutability": "view",
      "type": "function"
    },
    {
      "inputs": [],
      "name": "init",
      "outputs": [],
      "stateMutability": "nonpayable",
      "type": "function"
    },
    {
      "inputs": [
        {
          "internalType": "address",
          "name": "_ref",
          "type": "address"
        }
      ],
      "name": "invest",
      "outputs": [],
      "stateMutability": "payable",
      "type": "function"
    },
    {
      "inputs": [
        {
          "internalType": "address[]",
          "name": "oldUsers",
          "type": "address[]"
        }
      ],
      "name": "recover",
      "outputs": [],
      "stateMutability": "nonpayable",
      "type": "function"
    },
    {
      "inputs": [
        {
          "internalType": "address",
          "name": "_investor",
          "type": "address"
        },
        {
          "internalType": "address",
          "name": "_ref",
          "type": "address"
        }
      ],
      "name": "validRef",
      "outputs": [
        {
          "internalType": "bool",
          "name": "",
          "type": "bool"
        }
      ],
      "stateMutability": "view",
      "type": "function"
    }
  ],
  "bytecode": {
    "object": "600180546001600160a01b03199081167317796db252b9ff3ddff9646c7e8738bf50e3e58e1782556002805490911673b28f1760695d65e501966353831c286d6e26ec1017815560066005818155630bebc200918290556007918255620186a06008556101606040526080908152600460a05260c09290925260e0839052610100839052610120839052610140929092526200009f91600991906200031b565b5060408051606081018252603c815260506020820152606491810191909152620000ce90601090600362000363565b506040805160608101825260328152603c6020820152604691810191909152620000fd90601390600362000363565b506040805161012081018252610208815261017c602082015261010491810191909152608c606082015260506080820152603260a0820152601e60c0820152601460e082015260106101008201526200015b90601690600962000398565b50604080516101208101825264174876e80081526445d964b800602082015264e8d4a51000918101919091526502ba7def30006060820152650746a528800060808201526512309ce5400060a0820152652d79883d200060c0820152655af3107a400060e0820152660110d9316ec000610100820152620001e190601f906009620003cf565b506040805161012081018252600080825260208201819052918101829052606081018290526080810182905260a0810182905260c0810182905260e081018290526101008101919091526200023b9060289060096200040b565b50604080516060810182526305f5e1008152630bebc20060208201526317d78400918101919091526200027390603190600362000440565b506000603455603580546001600160a01b031916732637f27ed1a8dc88a950b785329cc5606f7caea7179055348015620002ac57600080fd5b5060405162001c4c38038062001c4c83398181016040526040811015620002d257600080fd5b508051602090910151600080546001600160a01b03199081163317909155600380546001600160a01b039485169083161790556004805493909216921691909117905562000499565b826007810192821562000351579160200282015b8281111562000351578251829060ff169055916020019190600101906200032f565b506200035f92915062000479565b5090565b826003810192821562000351579160200282018281111562000351578251829060ff169055916020019190600101906200032f565b826009810192821562000351579160200282015b8281111562000351578251829061ffff16905591602001919060010190620003ac565b826009810192821562000351579160200282015b8281111562000351578251829066ffffffffffffff16905591602001919060010190620003e3565b826009810192821562000351579160200282018281111562000351578251829060ff169055916020019190600101906200032f565b826003810192821562000351579160200282015b8281111562000351578251829063ffffffff1690559160200191906001019062000454565b6200049691905b808211156200035f576000815560010162000480565b90565b6117a380620004a96000396000f3fe6080604052600436106101095760003560e01c806361be412511610095578063a8df400611610064578063a8df400614610496578063c1185434146104d5578063d326363d1461027d578063e1c7392a14610524578063ff49c4a91461053957610109565b806361be4125146103985780636f77926b146103cb57806386481d401461042157806398d5fdca1461046857610109565b806341640201116100dc57806341640201146102535780634e43603a1461027d578063530e3b521461030057806357e5eea51461032a57806361bd22f11461036557610109565b806303f9c7931461010e57806318ab6efe146101365780631f25cfaf146101e45780632f13551114610217575b600080fd5b6101346004803603602081101561012457600080fd5b50356001600160a01b0316610563565b005b34801561014257600080fd5b506101346004803603602081101561015957600080fd5b810190602081018135600160201b81111561017357600080fd5b82018360208201111561018557600080fd5b803590602001918460208302840111600160201b831117156101a657600080fd5b9190808060200260200160405190810160405280939291908181526020018383602002808284376000920191909152509295506106e6945050505050565b3480156101f057600080fd5b506101346004803603602081101561020757600080fd5b50356001600160a01b031661088c565b34801561022357600080fd5b506102416004803603602081101561023a57600080fd5b50356108fd565b60408051918252519081900360200190f35b34801561025f57600080fd5b506101346004803603602081101561027657600080fd5b503561091f565b34801561028957600080fd5b506102b0600480360360208110156102a057600080fd5b50356001600160a01b0316610986565b60408051602080825283518183015283519192839290830191858101910280838360005b838110156102ec5781810151838201526020016102d4565b505050509050019250505060405180910390f35b34801561030c57600080fd5b506101346004803603602081101561032357600080fd5b5035610aa9565b34801561033657600080fd5b5061033f610b15565b604080519485526020850193909352838301919091526060830152519081900360800190f35b34801561037157600080fd5b506101346004803603602081101561038857600080fd5b50356001600160a01b0316610b5f565b3480156103a457600080fd5b50610134600480360360208110156103bb57600080fd5b50356001600160a01b0316610bd0565b3480156103d757600080fd5b506103fe600480360360208110156103ee57600080fd5b50356001600160a01b0316610c41565b6040518281526020810182610100808383600081810151838201526020016102d4565b34801561042d57600080fd5b5061044b6004803603602081101561044457600080fd5b5035610cc9565b6040805160ff909316835260208301919091528051918290030190f35b34801561047457600080fd5b5061047d610dc0565b6040805192835260208301919091528051918290030190f35b3480156104a257600080fd5b50610134600480360360608110156104b957600080fd5b506001600160a01b038135169060208101359060400135610dca565b3480156104e157600080fd5b50610510600480360360408110156104f857600080fd5b506001600160a01b0381358116916020013516610e24565b604080519115158252519081900360200190f35b34801561053057600080fd5b50610134610f44565b34801561054557600080fd5b506102416004803603602081101561055c57600080fd5b5035611015565b61056d3382610e24565b6105b2576040805162461bcd60e51b815260206004820152601160248201527026bab9ba103132903b30b634b2102932b360791b604482015290519081900360640190fd5b6000806105be34610cc9565b33600090815260366020526040902054919350915060ff8316116106135760405162461bcd60e51b81526004018080602001828103825260218152602001806117066021913960400191505060405180910390fd5b600154610633906001600160a01b03166103e8600f34025b04600061106d565b3360008181526036602090815260409182902060ff8616905560048054835163288c314960e21b81529182019490945291516001600160a01b039093169263a230c524926024808201939291829003018186803b15801561069357600080fd5b505afa1580156106a7573d6000803e3d6000fd5b505050506040513d60208110156106bd57600080fd5b5051156106d3576106ce33346110ed565b6106e1565b6106e183348460ff16611330565b505050565b6000546001600160a01b03163314610735576040805162461bcd60e51b815260206004820152600d60248201526c26bab9ba1031329037bbb732b960991b604482015290519081900360640190fd5b60005b81518110156108885760025482516001600160a01b0390911690636f77926b9084908490811061076457fe5b60200260200101516040518263ffffffff1660e01b815260040180826001600160a01b03166001600160a01b031681526020019150506101406040518083038186803b1580156107b357600080fd5b505afa1580156107c7573d6000803e3d6000fd5b505050506040513d601f19601f820116820180604052506101408110156107ed57600080fd5b508051835190916020019060369060009086908690811061080a57fe5b60200260200101516001600160a01b03166001600160a01b0316815260200190815260200160002060000160006036600087878151811061084757fe5b6020908102919091018101516001600160a01b031682528101919091526040016000206108799060010184600861166c565b50509190915550600101610738565b5050565b6000546001600160a01b031633146108db576040805162461bcd60e51b815260206004820152600d60248201526c26bab9ba1031329037bbb732b960991b604482015290519081900360640190fd5b603580546001600160a01b0319166001600160a01b0392909216919091179055565b60006006548269d3c21bcecceda1000000028161091657fe5b0490505b919050565b6000546001600160a01b031633148061094257506035546001600160a01b031633145b610981576040805162461bcd60e51b815260206004820152600b60248201526a135d5cdd08189948189bdd60aa1b604482015290519081900360640190fd5b600855565b6004805460408051633f00df4d60e21b81526001600160a01b038581169482019490945290516060938493169163fc037d34916024808301926000929190829003018186803b1580156109d857600080fd5b505afa1580156109ec573d6000803e3d6000fd5b505050506040513d6000823e601f3d908101601f191682016040526020811015610a1557600080fd5b8101908080516040519392919084600160201b821115610a3457600080fd5b908301906020820185811115610a4957600080fd5b82518660208202830111600160201b82111715610a6557600080fd5b82525081516020918201928201910280838360005b83811015610a92578181015183820152602001610a7a565b505050509190910160405250929695505050505050565b6000546001600160a01b0316331480610acc57506035546001600160a01b031633145b610b0b576040805162461bcd60e51b815260206004820152600b60248201526a135d5cdd08189948189bdd60aa1b604482015290519081900360640190fd5b6006805460075555565b600080600080603454601f60345460098110610b2d57fe5b0154602860345460098110610b3e57fe5b0154601660345460098110610b4f57fe5b0154935093509350935090919293565b6000546001600160a01b03163314610bae576040805162461bcd60e51b815260206004820152600d60248201526c26bab9ba1031329037bbb732b960991b604482015290519081900360640190fd5b600480546001600160a01b0319166001600160a01b0392909216919091179055565b6000546001600160a01b03163314610c1f576040805162461bcd60e51b815260206004820152600d60248201526c26bab9ba1031329037bbb732b960991b604482015290519081900360640190fd5b600380546001600160a01b0319166001600160a01b0392909216919091179055565b6000610c4b6116aa565b610c536116c9565b6001600160a01b0384166000908152603660209081526040918290208251808401845281548152835161010081019485905290939192840191600184019060089082845b815481526020019060010190808311610c9757505050919092525050815160209092015191945090925050505b915091565b600080610cd660646108fd565b831415610cec5750600190506305f5e100610cc4565b610cf660c86108fd565b831415610d0c575060029050630bebc200610cc4565b610d176101906108fd565b831415610d2d5750600390506317d78400610cc4565b6007546a52b7d2dcc80cd2e400000081610d4357fe5b04831415610d5a5750600190506305f5e100610cc4565b6007546aa56fa5b99019a5c800000081610d7057fe5b04831415610d87575060029050630bebc200610cc4565b6007546b014adf4b7320334b9000000081610d9e57fe5b04831415610db55750600490506317d78400610cc4565b506000905080610cc4565b6006546008549091565b6000546001600160a01b03163314610e19576040805162461bcd60e51b815260206004820152600d60248201526c26bab9ba1031329037bbb732b960991b604482015290519081900360640190fd5b6106e183838361106d565b600480546040805163288c314960e21b81526001600160a01b038681169482019490945290516000939092169163a230c52491602480820192602092909190829003018186803b158015610e7757600080fd5b505afa158015610e8b573d6000803e3d6000fd5b505050506040513d6020811015610ea157600080fd5b505115610eb057506001610f3e565b600480546040805163288c314960e21b81526001600160a01b03868116948201949094529051929091169163a230c52491602480820192602092909190829003018186803b158015610f0157600080fd5b505afa158015610f15573d6000803e3d6000fd5b505050506040513d6020811015610f2b57600080fd5b505115610f3a57506001610f3e565b5060005b92915050565b6000546001600160a01b03163314610f93576040805162461bcd60e51b815260206004820152600d60248201526c26bab9ba1031329037bbb732b960991b604482015290519081900360640190fd5b600260009054906101000a90046001600160a01b03166001600160a01b03166357e5eea56040518163ffffffff1660e01b815260040160806040518083038186803b158015610fe157600080fd5b505afa158015610ff5573d6000803e3d6000fd5b505050506040513d608081101561100b57600080fd5b5060400151602855565b6000816110245750600061091a565b816001141561103e5761103760646108fd565b905061091a565b81600214156110515761103760c86108fd565b8160031415611065576110376101906108fd565b506000919050565b806106e157814710156110b15760405162461bcd60e51b81526004018080602001828103825260478152602001806117276047913960600191505060405180910390fd5b6040516001600160a01b0384169083156108fc029084906000818181858888f193505050501580156110e7573d6000803e3d6000fd5b506106e1565b6004805460408051634d32f15b60e11b81526001600160a01b038681169482019490945260086024820152905160609390921691639a65e2b691604480820192600092909190829003018186803b15801561114757600080fd5b505afa15801561115b573d6000803e3d6000fd5b505050506040513d6000823e601f3d908101601f19168201604052602081101561118457600080fd5b8101908080516040519392919084600160201b8211156111a357600080fd5b9083019060208201858111156111b857600080fd5b82518660208202830111600160201b821117156111d457600080fd5b82525081516020918201928201910280838360005b838110156112015781810151838201526020016111e9565b50505050905001604052505050905060006001600160a01b03168160008151811061122857fe5b60200260200101516001600160a01b0316146106e1576112af8160008151811061124e57fe5b6020026020010151606460136001603660008760008151811061126d57fe5b60200260200101516001600160a01b03166001600160a01b031681526020019081526020016000206000015403600381106112a457fe5b015485028161062b57fe5b60015b600881101561132a5760006001600160a01b03168282815181106112d257fe5b60200260200101516001600160a01b031614156112ee5761132a565b6113228282815181106112fd57fe5b602002602001015160646009600185036007811061131757fe5b015486028161062b57fe5b6001016112b2565b50505050565b6001600160a01b038316156106e1576001600160a01b03831660009081526036602052604090206001808201805490910190819055600214156113e55780548211156113cb5760006113858260000154611015565b1180156113925750805415155b156113c6576113c684606460106001856000015403600381106113b157fe5b015484546113be90611015565b028161062b57fe5b6113e5565b6113e5846064601060018560000154036003811061131757fe5b60018101546002101561140c5761140c846064601360018560000154036003811061131757fe5b6004805460408051634d32f15b60e11b81526001600160a01b038881169482019490945260076024820152905160609390921691639a65e2b691604480820192600092909190829003018186803b15801561146657600080fd5b505afa15801561147a573d6000803e3d6000fd5b505050506040513d6000823e601f3d908101601f1916820160405260208110156114a357600080fd5b8101908080516040519392919084600160201b8211156114c257600080fd5b9083019060208201858111156114d757600080fd5b82518660208202830111600160201b821117156114f357600080fd5b82525081516020918201928201910280838360005b83811015611520578181015183820152602001611508565b50505050905001604052505050905060008090505b60078110156116645760006001600160a01b031682828151811061155557fe5b60200260200101516001600160a01b0316146116575760006036600084848151811061157d57fe5b60200260200101516001600160a01b03166001600160a01b03168152602001908152602001600020600101905060018183600101600881106115bb57fe5b01805490910190558060018301600881106115d257fe5b0154600214156116125761160d8383815181106115eb57fe5b602002602001015160646009856007811061160257fe5b015489028161062b57fe5b611651565b600281836001016008811061162357fe5b015411156116515761165183838151811061163a57fe5b602002602001015160c86009856007811061160257fe5b5061165c565b611664565b600101611535565b505050505050565b826008810192821561169a579160200282015b8281111561169a57825182559160200191906001019061167f565b506116a69291506116e8565b5090565b6040518061010001604052806008906020820280388339509192915050565b6040518060400160405280600081526020016116e36116aa565b905290565b61170291905b808211156116a657600081556001016116ee565b9056fe55736572206f6e6c792063616e2075706772616465206d656d626572736869702142616c616e636520696e20636f6e7472616374206973206e6f7420656e6f75676820746f2063617368206f75742c20706c6561736520636f6e7461637420666f722061646d696ea2646970667358221220a212af6fb04b0f8c54f4983f3e4861ce3a218f8bf8caeef457d1107b4b3a96ea64736f6c63430006010033"
  }
}