{"compiler":"v0.7.6+commit.7338295f","opcodeHash":"0x8a3ed04d7a7e106a0367756bd51aa0cf37939b2f886cd73c8e840bbf3733378e","metalessHash":"0xf0648dd21411e3b9081ad0602286a90ec9d69f59e8825c4342f016cdaed54798","runtimeHash":"0x90d2274797f7fd566500ecabccafd8553a9be44382d65612979b76e62bf6ac9c","encodedMetadata":[{"ipfs":"/ipfs/QmX6w52TFD4mor7Rwu2H7e1gevcYt1PZxdZEzK1gqdBf9L","solc":"0.7.6"}],"abi":[{"inputs":[{"internalType":"string","name":"name","type":"string"},{"internalType":"string","name":"symbol","type":"string"},{"internalType":"uint256","name":"maxNftSupply","type":"uint256"},{"internalType":"uint256","name":"revealTime","type":"uint256"},{"internalType":"uint256","name":"_mintPrice","type":"uint256"}],"stateMutability":"nonpayable","type":"constructor"},{"anonymous":false,"inputs":[{"indexed":true,"internalType":"address","name":"owner","type":"address"},{"indexed":true,"internalType":"address","name":"approved","type":"address"},{"indexed":true,"internalType":"uint256","name":"tokenId","type":"uint256"}],"name":"Approval","type":"event"},{"anonymous":false,"inputs":[{"indexed":true,"internalType":"address","name":"owner","type":"address"},{"indexed":true,"internalType":"address","name":"operator","type":"address"},{"indexed":false,"internalType":"bool","name":"approved","type":"bool"}],"name":"ApprovalForAll","type":"event"},{"anonymous":false,"inputs":[{"indexed":true,"internalType":"address","name":"previousOwner","type":"address"},{"indexed":true,"internalType":"address","name":"newOwner","type":"address"}],"name":"OwnershipTransferred","type":"event"},{"anonymous":false,"inputs":[{"indexed":true,"internalType":"address","name":"from","type":"address"},{"indexed":true,"internalType":"address","name":"to","type":"address"},{"indexed":true,"internalType":"uint256","name":"tokenId","type":"uint256"}],"name":"Transfer","type":"event"},{"inputs":[],"name":"MAX_CLAIM","outputs":[{"internalType":"uint256","name":"","type":"uint256"}],"stateMutability":"view","type":"function"},{"inputs":[],"name":"MAX_DOGE_SUPPLY","outputs":[{"internalType":"uint256","name":"","type":"uint256"}],"stateMutability":"view","type":"function"},{"inputs":[],"name":"PROVENANCE_HASH","outputs":[{"internalType":"string","name":"","type":"string"}],"stateMutability":"view","type":"function"},{"inputs":[],"name":"REVEAL_TIMESTAMP","outputs":[{"internalType":"uint256","name":"","type":"uint256"}],"stateMutability":"view","type":"function"},{"inputs":[{"internalType":"address","name":"to","type":"address"},{"internalType":"uint256","name":"tokenId","type":"uint256"}],"name":"approve","outputs":[],"stateMutability":"nonpayable","type":"function"},{"inputs":[{"internalType":"address","name":"owner","type":"address"}],"name":"balanceOf","outputs":[{"internalType":"uint256","name":"","type":"uint256"}],"stateMutability":"view","type":"function"},{"inputs":[],"name":"baseURI","outputs":[{"internalType":"string","name":"","type":"string"}],"stateMutability":"view","type":"function"},{"inputs":[{"internalType":"uint256","name":"numberOfTokens","type":"uint256"}],"name":"claimDoges","outputs":[],"stateMutability":"nonpayable","type":"function"},{"inputs":[{"internalType":"address","name":"_to","type":"address"},{"internalType":"uint256[]","name":"ids","type":"uint256[]"}],"name":"claimDogesByAdmin","outputs":[],"stateMutability":"nonpayable","type":"function"},{"inputs":[],"name":"claimIsActive","outputs":[{"internalType":"bool","name":"","type":"bool"}],"stateMutability":"view","type":"function"},{"inputs":[],"name":"emergencySetStartingIndexBlock","outputs":[],"stateMutability":"nonpayable","type":"function"},{"inputs":[{"internalType":"uint256","name":"_tokenId","type":"uint256"}],"name":"exists","outputs":[{"internalType":"bool","name":"","type":"bool"}],"stateMutability":"view","type":"function"},{"inputs":[{"internalType":"uint256","name":"tokenId","type":"uint256"}],"name":"getApproved","outputs":[{"internalType":"address","name":"","type":"address"}],"stateMutability":"view","type":"function"},{"inputs":[{"internalType":"address","name":"owner","type":"address"},{"internalType":"address","name":"operator","type":"address"}],"name":"isApprovedForAll","outputs":[{"internalType":"bool","name":"","type":"bool"}],"stateMutability":"view","type":"function"},{"inputs":[],"name":"maxToMint","outputs":[{"internalType":"uint256","name":"","type":"uint256"}],"stateMutability":"view","type":"function"},{"inputs":[],"name":"mintAmount","outputs":[{"internalType":"uint256","name":"","type":"uint256"}],"stateMutability":"view","type":"function"},{"inputs":[{"internalType":"uint256","name":"numberOfTokens","type":"uint256"}],"name":"mintDoges","outputs":[],"stateMutability":"payable","type":"function"},{"inputs":[],"name":"mintPrice","outputs":[{"internalType":"uint256","name":"","type":"uint256"}],"stateMutability":"view","type":"function"},{"inputs":[],"name":"name","outputs":[{"internalType":"string","name":"","type":"string"}],"stateMutability":"view","type":"function"},{"inputs":[{"internalType":"address","name":"user","type":"address"}],"name":"numberOfClaimableTokens","outputs":[{"internalType":"uint256","name":"","type":"uint256"}],"stateMutability":"view","type":"function"},{"inputs":[],"name":"owner","outputs":[{"internalType":"address","name":"","type":"address"}],"stateMutability":"view","type":"function"},{"inputs":[{"internalType":"uint256","name":"tokenId","type":"uint256"}],"name":"ownerOf","outputs":[{"internalType":"address","name":"","type":"address"}],"stateMutability":"view","type":"function"},{"inputs":[],"name":"renounceOwnership","outputs":[],"stateMutability":"nonpayable","type":"function"},{"inputs":[{"internalType":"address","name":"_to","type":"address"},{"internalType":"uint256","name":"_numberOfTokens","type":"uint256"}],"name":"reserveDoges","outputs":[],"stateMutability":"nonpayable","type":"function"},{"inputs":[{"internalType":"address","name":"from","type":"address"},{"internalType":"address","name":"to","type":"address"},{"internalType":"uint256","name":"tokenId","type":"uint256"}],"name":"safeTransferFrom","outputs":[],"stateMutability":"nonpayable","type":"function"},{"inputs":[{"internalType":"address","name":"from","type":"address"},{"internalType":"address","name":"to","type":"address"},{"internalType":"uint256","name":"tokenId","type":"uint256"},{"internalType":"bytes","name":"_data","type":"bytes"}],"name":"safeTransferFrom","outputs":[],"stateMutability":"nonpayable","type":"function"},{"inputs":[],"name":"saleIsActive","outputs":[{"internalType":"bool","name":"","type":"bool"}],"stateMutability":"view","type":"function"},{"inputs":[{"internalType":"address","name":"operator","type":"address"},{"internalType":"bool","name":"approved","type":"bool"}],"name":"setApprovalForAll","outputs":[],"stateMutability":"nonpayable","type":"function"},{"inputs":[{"internalType":"string","name":"baseURI","type":"string"}],"name":"setBaseURI","outputs":[],"stateMutability":"nonpayable","type":"function"},{"inputs":[],"name":"setClaimState","outputs":[],"stateMutability":"nonpayable","type":"function"},{"inputs":[{"internalType":"uint256","name":"_maxValue","type":"uint256"}],"name":"setMaxToMint","outputs":[],"stateMutability":"nonpayable","type":"function"},{"inputs":[{"internalType":"uint256","name":"_price","type":"uint256"}],"name":"setMintPrice","outputs":[],"stateMutability":"nonpayable","type":"function"},{"inputs":[{"internalType":"string","name":"_provenanceHash","type":"string"}],"name":"setProvenanceHash","outputs":[],"stateMutability":"nonpayable","type":"function"},{"inputs":[{"internalType":"uint256","name":"_revealTimeStamp","type":"uint256"}],"name":"setRevealTimestamp","outputs":[],"stateMutability":"nonpayable","type":"function"},{"inputs":[],"name":"setSaleState","outputs":[],"stateMutability":"nonpayable","type":"function"},{"inputs":[],"name":"setStartingIndex","outputs":[],"stateMutability":"nonpayable","type":"function"},{"inputs":[],"name":"startingIndex","outputs":[{"internalType":"uint256","name":"","type":"uint256"}],"stateMutability":"view","type":"function"},{"inputs":[],"name":"startingIndexBlock","outputs":[{"internalType":"uint256","name":"","type":"uint256"}],"stateMutability":"view","type":"function"},{"inputs":[{"internalType":"bytes4","name":"interfaceId","type":"bytes4"}],"name":"supportsInterface","outputs":[{"internalType":"bool","name":"","type":"bool"}],"stateMutability":"view","type":"function"},{"inputs":[],"name":"symbol","outputs":[{"internalType":"string","name":"","type":"string"}],"stateMutability":"view","type":"function"},{"inputs":[{"internalType":"uint256","name":"index","type":"uint256"}],"name":"tokenByIndex","outputs":[{"internalType":"uint256","name":"","type":"uint256"}],"stateMutability":"view","type":"function"},{"inputs":[{"internalType":"address","name":"owner","type":"address"},{"internalType":"uint256","name":"index","type":"uint256"}],"name":"tokenOfOwnerByIndex","outputs":[{"internalType":"uint256","name":"","type":"uint256"}],"stateMutability":"view","type":"function"},{"inputs":[{"internalType":"uint256","name":"tokenId","type":"uint256"}],"name":"tokenURI","outputs":[{"internalType":"string","name":"","type":"string"}],"stateMutability":"view","type":"function"},{"inputs":[{"internalType":"address","name":"_owner","type":"address"}],"name":"tokensOfOwner","outputs":[{"internalType":"uint256[]","name":"","type":"uint256[]"}],"stateMutability":"view","type":"function"},{"inputs":[],"name":"totalSupply","outputs":[{"internalType":"uint256","name":"","type":"uint256"}],"stateMutability":"view","type":"function"},{"inputs":[{"internalType":"address","name":"from","type":"address"},{"internalType":"address","name":"to","type":"address"},{"internalType":"uint256","name":"tokenId","type":"uint256"}],"name":"transferFrom","outputs":[],"stateMutability":"nonpayable","type":"function"},{"inputs":[{"internalType":"address","name":"newOwner","type":"address"}],"name":"transferOwnership","outputs":[],"stateMutability":"nonpayable","type":"function"},{"inputs":[],"name":"withdraw","outputs":[],"stateMutability":"nonpayable","type":"function"}],"bytecode":{"object":"608060405260405180602001604052806000815250601190805190602001906200002b92919062000668565b5073ac1ec2562dece4528350e614e267ea79bfad8861601660006101000a81548173ffffffffffffffffffffffffffffffffffffffff021916908373ffffffffffffffffffffffffffffffffffffffff1602179055506101dd60175560006018556000601960006101000a81548160ff021916908315150217905550348015620000b457600080fd5b5060405162005dde38038062005dde833981810160405260a0811015620000da57600080fd5b8101908080516040519392919084640100000000821115620000fb57600080fd5b838201915060208201858111156200011257600080fd5b82518660018202830111640100000000821117156200013057600080fd5b8083526020830192505050908051906020019080838360005b838110156200016657808201518184015260208101905062000149565b50505050905090810190601f168015620001945780820380516001836020036101000a031916815260200191505b5060405260200180516040519392919084640100000000821115620001b857600080fd5b83820191506020820185811115620001cf57600080fd5b8251866001820283011164010000000082111715620001ed57600080fd5b8083526020830192505050908051906020019080838360005b838110156200022357808201518184015260208101905062000206565b50505050905090810190601f168015620002515780820380516001836020036101000a031916815260200191505b506040526020018051906020019092919080519060200190929190805190602001909291905050508484620002936301ffc9a760e01b6200055760201b60201c565b8160069080519060200190620002ab92919062000668565b508060079080519060200190620002c492919062000668565b50620002dd6380ac58cd60e01b6200055760201b60201c565b620002f5635b5e139f60e01b6200055760201b60201c565b6200030d63780e9d6360e01b6200055760201b60201c565b50506000620003216200066060201b60201c565b905080600a60006101000a81548173ffffffffffffffffffffffffffffffffffffffff021916908373ffffffffffffffffffffffffffffffffffffffff1602179055508073ffffffffffffffffffffffffffffffffffffffff16600073ffffffffffffffffffffffffffffffffffffffff167f8be0079c531659141344cd1fd0a4f28419497f9722a3daafe3b4186f6b6457e060405160405180910390a35082600f819055508160108190555080600d81905550601e600e819055506000601260006101000a81548160ff021916908315150217905550735a7bf6aaccb62d3094a5a52dfc153ed449949885601260016101000a81548173ffffffffffffffffffffffffffffffffffffffff021916908373ffffffffffffffffffffffffffffffffffffffff1602179055507334486e05e11f096c7023f75abfd0404fc7fea5c6601360006101000a81548173ffffffffffffffffffffffffffffffffffffffff021916908373ffffffffffffffffffffffffffffffffffffffff1602179055507308c3915e079cd9677f218a1b4d64081319c48ca4601460006101000a81548173ffffffffffffffffffffffffffffffffffffffff021916908373ffffffffffffffffffffffffffffffffffffffff16021790555073d0792b9f8060cda623668293fb71920945f7326e601560006101000a81548173ffffffffffffffffffffffffffffffffffffffff021916908373ffffffffffffffffffffffffffffffffffffffff16021790555050505050506200071e565b63ffffffff60e01b817bffffffffffffffffffffffffffffffffffffffffffffffffffffffff19161415620005f4576040517f08c379a000000000000000000000000000000000000000000000000000000000815260040180806020018281038252601c8152602001807f4552433136353a20696e76616c696420696e746572666163652069640000000081525060200191505060405180910390fd5b6001600080837bffffffffffffffffffffffffffffffffffffffffffffffffffffffff19167bffffffffffffffffffffffffffffffffffffffffffffffffffffffff1916815260200190815260200160002060006101000a81548160ff02191690831515021790555050565b600033905090565b828054600181600116156101000203166002900490600052602060002090601f016020900481019282620006a05760008555620006ec565b82601f10620006bb57805160ff1916838001178555620006ec565b82800160010185558215620006ec579182015b82811115620006eb578251825591602001919060010190620006ce565b5b509050620006fb9190620006ff565b5090565b5b808211156200071a57600081600090555060010162000700565b5090565b6156b0806200072e6000396000f3fe6080604052600436106102935760003560e01c80636c0360eb1161015a578063b88d4fde116100c1578063e98665501161007a578063e9866550146111d4578063eb8d2444146111eb578063f2fde38b14611218578063f3813f0914611269578063f4a0a528146112a4578063ff1b6556146112df57610293565b8063b88d4fde14610e4c578063bbe394e414610f5e578063c87b56dd14611043578063cb774d47146110f7578063e36d649814611122578063e985e9c51461114d57610293565b80638462151c116101135780638462151c14610c36578063879dafb314610cdc5780638da5cb5b14610d0757806395d89b4114610d48578063a14c577214610dd8578063a22cb46514610def57610293565b80636c0360eb14610a7d5780637084b2b714610b0d57806370a0823114610b48578063715018a614610bad5780637d17fcbe14610bc45780637f59912714610bdb57610293565b806323b872dd116101fe5780634f6ccce7116101b75780634f6ccce71461087e5780635303f68c146108cd57806355f804b3146108fa5780635a2bcc18146109c25780636352211e146109ed5780636817c76c14610a5257610293565b806323b872dd1461064c5780632f745c59146106c75780633ccfd60b1461073657806342842e0e1461074d578063498f9341146107c85780634f558e791461082d57610293565b80630ba133c5116102505780630ba133c5146104be57806310969523146104e95780631421d74f146105b157806318160ddd146105df57806318e20a381461060a5780631ed405591461063557610293565b8063018a2c371461029857806301b65b71146102d357806301ffc9a7146102fe57806306fdde031461036e578063081812fc146103fe578063095ea7b314610463575b600080fd5b3480156102a457600080fd5b506102d1600480360360208110156102bb57600080fd5b810190808035906020019092919050505061136f565b005b3480156102df57600080fd5b506102e8611428565b6040518082815260200191505060405180910390f35b34801561030a57600080fd5b506103566004803603602081101561032157600080fd5b8101908080357bffffffffffffffffffffffffffffffffffffffffffffffffffffffff1916906020019092919050505061142e565b60405180821515815260200191505060405180910390f35b34801561037a57600080fd5b50610383611495565b6040518080602001828103825283818151815260200191508051906020019080838360005b838110156103c35780820151818401526020810190506103a8565b50505050905090810190601f1680156103f05780820380516001836020036101000a031916815260200191505b509250505060405180910390f35b34801561040a57600080fd5b506104376004803603602081101561042157600080fd5b8101908080359060200190929190505050611537565b604051808273ffffffffffffffffffffffffffffffffffffffff16815260200191505060405180910390f35b34801561046f57600080fd5b506104bc6004803603604081101561048657600080fd5b81019080803573ffffffffffffffffffffffffffffffffffffffff169060200190929190803590602001909291905050506115d2565b005b3480156104ca57600080fd5b506104d3611716565b6040518082815260200191505060405180910390f35b3480156104f557600080fd5b506105af6004803603602081101561050c57600080fd5b810190808035906020019064010000000081111561052957600080fd5b82018360208201111561053b57600080fd5b8035906020019184600183028401116401000000008311171561055d57600080fd5b91908080601f016020809104026020016040519081016040528093929190818152602001838380828437600081840152601f19601f82011690508083019250505050505050919291929050505061171c565b005b6105dd600480360360208110156105c757600080fd5b81019080803590602001909291905050506117e5565b005b3480156105eb57600080fd5b506105f4611a8b565b6040518082815260200191505060405180910390f35b34801561061657600080fd5b5061061f611a9c565b6040518082815260200191505060405180910390f35b34801561064157600080fd5b5061064a611aa2565b005b34801561065857600080fd5b506106c56004803603606081101561066f57600080fd5b81019080803573ffffffffffffffffffffffffffffffffffffffff169060200190929190803573ffffffffffffffffffffffffffffffffffffffff16906020019092919080359060200190929190505050611b7d565b005b3480156106d357600080fd5b50610720600480360360408110156106ea57600080fd5b81019080803573ffffffffffffffffffffffffffffffffffffffff16906020019092919080359060200190929190505050611bf3565b6040518082815260200191505060405180910390f35b34801561074257600080fd5b5061074b611c4e565b005b34801561075957600080fd5b506107c66004803603606081101561077057600080fd5b81019080803573ffffffffffffffffffffffffffffffffffffffff169060200190929190803573ffffffffffffffffffffffffffffffffffffffff169060200190929190803590602001909291905050506120c2565b005b3480156107d457600080fd5b50610817600480360360208110156107eb57600080fd5b81019080803573ffffffffffffffffffffffffffffffffffffffff1690602001909291905050506120e2565b6040518082815260200191505060405180910390f35b34801561083957600080fd5b506108666004803603602081101561085057600080fd5b81019080803590602001909291905050506122b5565b60405180821515815260200191505060405180910390f35b34801561088a57600080fd5b506108b7600480360360208110156108a157600080fd5b81019080803590602001909291905050506122c7565b6040518082815260200191505060405180910390f35b3480156108d957600080fd5b506108e26122ea565b60405180821515815260200191505060405180910390f35b34801561090657600080fd5b506109c06004803603602081101561091d57600080fd5b810190808035906020019064010000000081111561093a57600080fd5b82018360208201111561094c57600080fd5b8035906020019184600183028401116401000000008311171561096e57600080fd5b91908080601f016020809104026020016040519081016040528093929190818152602001838380828437600081840152601f19601f8201169050808301925050505050505091929192905050506122fd565b005b3480156109ce57600080fd5b506109d76123b8565b6040518082815260200191505060405180910390f35b3480156109f957600080fd5b50610a2660048036036020811015610a1057600080fd5b81019080803590602001909291905050506123be565b604051808273ffffffffffffffffffffffffffffffffffffffff16815260200191505060405180910390f35b348015610a5e57600080fd5b50610a676123f5565b6040518082815260200191505060405180910390f35b348015610a8957600080fd5b50610a926123fb565b6040518080602001828103825283818151815260200191508051906020019080838360005b83811015610ad2578082015181840152602081019050610ab7565b50505050905090810190601f168015610aff5780820380516001836020036101000a031916815260200191505b509250505060405180910390f35b348015610b1957600080fd5b50610b4660048036036020811015610b3057600080fd5b810190808035906020019092919050505061249d565b005b348015610b5457600080fd5b50610b9760048036036020811015610b6b57600080fd5b81019080803573ffffffffffffffffffffffffffffffffffffffff169060200190929190505050612556565b6040518082815260200191505060405180910390f35b348015610bb957600080fd5b50610bc261262b565b005b348015610bd057600080fd5b50610bd961279b565b005b348015610be757600080fd5b50610c3460048036036040811015610bfe57600080fd5b81019080803573ffffffffffffffffffffffffffffffffffffffff169060200190929190803590602001909291905050506128cb565b005b348015610c4257600080fd5b50610c8560048036036020811015610c5957600080fd5b81019080803573ffffffffffffffffffffffffffffffffffffffff169060200190929190505050612a6c565b6040518080602001828103825283818151815260200191508051906020019060200280838360005b83811015610cc8578082015181840152602081019050610cad565b505050509050019250505060405180910390f35b348015610ce857600080fd5b50610cf1612b65565b6040518082815260200191505060405180910390f35b348015610d1357600080fd5b50610d1c612b6b565b604051808273ffffffffffffffffffffffffffffffffffffffff16815260200191505060405180910390f35b348015610d5457600080fd5b50610d5d612b95565b6040518080602001828103825283818151815260200191508051906020019080838360005b83811015610d9d578082015181840152602081019050610d82565b50505050905090810190601f168015610dca5780820380516001836020036101000a031916815260200191505b509250505060405180910390f35b348015610de457600080fd5b50610ded612c37565b005b348015610dfb57600080fd5b50610e4a60048036036040811015610e1257600080fd5b81019080803573ffffffffffffffffffffffffffffffffffffffff169060200190929190803515159060200190929190505050612d12565b005b348015610e5857600080fd5b50610f5c60048036036080811015610e6f57600080fd5b81019080803573ffffffffffffffffffffffffffffffffffffffff169060200190929190803573ffffffffffffffffffffffffffffffffffffffff1690602001909291908035906020019092919080359060200190640100000000811115610ed657600080fd5b820183602082011115610ee857600080fd5b80359060200191846001830284011164010000000083111715610f0a57600080fd5b91908080601f016020809104026020016040519081016040528093929190818152602001838380828437600081840152601f19601f820116905080830192505050505050509192919290505050612ec8565b005b348015610f6a57600080fd5b5061104160048036036040811015610f8157600080fd5b81019080803573ffffffffffffffffffffffffffffffffffffffff16906020019092919080359060200190640100000000811115610fbe57600080fd5b820183602082011115610fd057600080fd5b80359060200191846020830284011164010000000083111715610ff257600080fd5b919080806020026020016040519081016040528093929190818152602001838360200280828437600081840152601f19601f820116905080830192505050505050509192919290505050612f40565b005b34801561104f57600080fd5b5061107c6004803603602081101561106657600080fd5b81019080803590602001909291905050506131b9565b6040518080602001828103825283818151815260200191508051906020019080838360005b838110156110bc5780820151818401526020810190506110a1565b50505050905090810190601f1680156110e95780820380516001836020036101000a031916815260200191505b509250505060405180910390f35b34801561110357600080fd5b5061110c61348a565b6040518082815260200191505060405180910390f35b34801561112e57600080fd5b50611137613490565b6040518082815260200191505060405180910390f35b34801561115957600080fd5b506111bc6004803603604081101561117057600080fd5b81019080803573ffffffffffffffffffffffffffffffffffffffff169060200190929190803573ffffffffffffffffffffffffffffffffffffffff169060200190929190505050613496565b60405180821515815260200191505060405180910390f35b3480156111e057600080fd5b506111e961352a565b005b3480156111f757600080fd5b50611200613694565b60405180821515815260200191505060405180910390f35b34801561122457600080fd5b506112676004803603602081101561123b57600080fd5b81019080803573ffffffffffffffffffffffffffffffffffffffff1690602001909291905050506136a7565b005b34801561127557600080fd5b506112a26004803603602081101561128c57600080fd5b810190808035906020019092919050505061389c565b005b3480156112b057600080fd5b506112dd600480360360208110156112c757600080fd5b8101908080359060200190929190505050613cc1565b005b3480156112eb57600080fd5b506112f4613d7a565b6040518080602001828103825283818151815260200191508051906020019080838360005b83811015611334578082015181840152602081019050611319565b50505050905090810190601f1680156113615780820380516001836020036101000a031916815260200191505b509250505060405180910390f35b611377613e18565b73ffffffffffffffffffffffffffffffffffffffff16611395612b6b565b73ffffffffffffffffffffffffffffffffffffffff161461141e576040517f08c379a00000000000000000000000000000000000000000000000000000000081526004018080602001828103825260208152602001807f4f776e61626c653a2063616c6c6572206973206e6f7420746865206f776e657281525060200191505060405180910390fd5b8060108190555050565b60175481565b6000806000837bffffffffffffffffffffffffffffffffffffffffffffffffffffffff19167bffffffffffffffffffffffffffffffffffffffffffffffffffffffff1916815260200190815260200160002060009054906101000a900460ff169050919050565b606060068054600181600116156101000203166002900480601f01602080910402602001604051908101604052809291908181526020018280546001816001161561010002031660029004801561152d5780601f106115025761010080835404028352916020019161152d565b820191906000526020600020905b81548152906001019060200180831161151057829003601f168201915b5050505050905090565b600061154282613e20565b611597576040517f08c379a000000000000000000000000000000000000000000000000000000000815260040180806020018281038252602c815260200180615584602c913960400191505060405180910390fd5b6004600083815260200190815260200160002060009054906101000a900473ffffffffffffffffffffffffffffffffffffffff169050919050565b60006115dd826123be565b90508073ffffffffffffffffffffffffffffffffffffffff168373ffffffffffffffffffffffffffffffffffffffff161415611664576040517f08c379a00000000000000000000000000000000000000000000000000000000081526004018080602001828103825260218152602001806156296021913960400191505060405180910390fd5b8073ffffffffffffffffffffffffffffffffffffffff16611683613e18565b73ffffffffffffffffffffffffffffffffffffffff1614806116b257506116b1816116ac613e18565b613496565b5b611707576040517f08c379a00000000000000000000000000000000000000000000000000000000081526004018080602001828103825260388152602001806154b66038913960400191505060405180910390fd5b6117118383613e3d565b505050565b600e5481565b611724613e18565b73ffffffffffffffffffffffffffffffffffffffff16611742612b6b565b73ffffffffffffffffffffffffffffffffffffffff16146117cb576040517f08c379a00000000000000000000000000000000000000000000000000000000081526004018080602001828103825260208152602001807f4f776e61626c653a2063616c6c6572206973206e6f7420746865206f776e657281525060200191505060405180910390fd5b80601190805190602001906117e192919061531a565b5050565b601260009054906101000a900460ff16611867576040517f08c379a000000000000000000000000000000000000000000000000000000000815260040180806020018281038252601b8152602001807f53616c65206d7573742062652061637469766520746f206d696e74000000000081525060200191505060405180910390fd5b600e548111156118df576040517f08c379a000000000000000000000000000000000000000000000000000000000815260040180806020018281038252601f8152602001807f496e76616c696420616d6f756e7420746f206d696e7420706572206f6e63650081525060200191505060405180910390fd5b600f5461190b6017546118fd84601854613ef690919063ffffffff16565b613ef690919063ffffffff16565b111561197f576040517f08c379a00000000000000000000000000000000000000000000000000000000081526004018080602001828103825260208152602001807f507572636861736520776f756c6420657863656564206d617820737570706c7981525060200191505060405180910390fd5b3461199582600d54613f7e90919063ffffffff16565b1115611a09576040517f08c379a000000000000000000000000000000000000000000000000000000000815260040180806020018281038252601f8152602001807f45746865722076616c75652073656e74206973206e6f7420636f72726563740081525060200191505060405180910390fd5b60005b81811015611a5357611a3433611a2f601854601754613ef690919063ffffffff16565b614004565b6018600081548092919060010191905055508080600101915050611a0c565b506000600b54148015611a7b5750600f54611a6c611a8b565b1480611a7a57506010544210155b5b15611a885743600b819055505b50565b6000611a976002614022565b905090565b60105481565b611aaa613e18565b73ffffffffffffffffffffffffffffffffffffffff16611ac8612b6b565b73ffffffffffffffffffffffffffffffffffffffff1614611b51576040517f08c379a00000000000000000000000000000000000000000000000000000000081526004018080602001828103825260208152602001807f4f776e61626c653a2063616c6c6572206973206e6f7420746865206f776e657281525060200191505060405180910390fd5b601260009054906101000a900460ff1615601260006101000a81548160ff021916908315150217905550565b611b8e611b88613e18565b82614037565b611be3576040517f08c379a000000000000000000000000000000000000000000000000000000000815260040180806020018281038252603181526020018061564a6031913960400191505060405180910390fd5b611bee83838361412b565b505050565b6000611c4682600160008673ffffffffffffffffffffffffffffffffffffffff1673ffffffffffffffffffffffffffffffffffffffff16815260200190815260200160002061436e90919063ffffffff16565b905092915050565b611c56612b6b565b73ffffffffffffffffffffffffffffffffffffffff163373ffffffffffffffffffffffffffffffffffffffff161480611cdc5750601260019054906101000a900473ffffffffffffffffffffffffffffffffffffffff1673ffffffffffffffffffffffffffffffffffffffff163373ffffffffffffffffffffffffffffffffffffffff16145b80611d345750601360009054906101000a900473ffffffffffffffffffffffffffffffffffffffff1673ffffffffffffffffffffffffffffffffffffffff163373ffffffffffffffffffffffffffffffffffffffff16145b80611d8c5750601460009054906101000a900473ffffffffffffffffffffffffffffffffffffffff1673ffffffffffffffffffffffffffffffffffffffff163373ffffffffffffffffffffffffffffffffffffffff16145b80611de45750601560009054906101000a900473ffffffffffffffffffffffffffffffffffffffff1673ffffffffffffffffffffffffffffffffffffffff163373ffffffffffffffffffffffffffffffffffffffff16145b611e56576040517f08c379a000000000000000000000000000000000000000000000000000000000815260040180806020018281038252600a8152602001807f4e6f742061646d696e210000000000000000000000000000000000000000000081525060200191505060405180910390fd5b60004790506000611e846064611e76601985613f7e90919063ffffffff16565b61438890919063ffffffff16565b90506000611eaf6064611ea1601986613f7e90919063ffffffff16565b61438890919063ffffffff16565b90506000611eda6064611ecc601987613f7e90919063ffffffff16565b61438890919063ffffffff16565b90506000611f1582611f0785611ef9888a61441190919063ffffffff16565b61441190919063ffffffff16565b61441190919063ffffffff16565b9050601260019054906101000a900473ffffffffffffffffffffffffffffffffffffffff1673ffffffffffffffffffffffffffffffffffffffff166108fc859081150290604051600060405180830381858888f19350505050158015611f7f573d6000803e3d6000fd5b50601360009054906101000a900473ffffffffffffffffffffffffffffffffffffffff1673ffffffffffffffffffffffffffffffffffffffff166108fc849081150290604051600060405180830381858888f19350505050158015611fe8573d6000803e3d6000fd5b50601460009054906101000a900473ffffffffffffffffffffffffffffffffffffffff1673ffffffffffffffffffffffffffffffffffffffff166108fc839081150290604051600060405180830381858888f19350505050158015612051573d6000803e3d6000fd5b50601560009054906101000a900473ffffffffffffffffffffffffffffffffffffffff1673ffffffffffffffffffffffffffffffffffffffff166108fc829081150290604051600060405180830381858888f193505050501580156120ba573d6000803e3d6000fd5b505050505050565b6120dd83838360405180602001604052806000815250612ec8565b505050565b6000806000905060005b601660009054906101000a900473ffffffffffffffffffffffffffffffffffffffff1673ffffffffffffffffffffffffffffffffffffffff166370a08231856040518263ffffffff1660e01b8152600401808273ffffffffffffffffffffffffffffffffffffffff16815260200191505060206040518083038186803b15801561217557600080fd5b505afa158015612189573d6000803e3d6000fd5b505050506040513d602081101561219f57600080fd5b81019080805190602001909291905050508110156122ab576000601660009054906101000a900473ffffffffffffffffffffffffffffffffffffffff1673ffffffffffffffffffffffffffffffffffffffff16632f745c5986846040518363ffffffff1660e01b8152600401808373ffffffffffffffffffffffffffffffffffffffff1681526020018281526020019250505060206040518083038186803b15801561224a57600080fd5b505afa15801561225e573d6000803e3d6000fd5b505050506040513d602081101561227457600080fd5b8101908080519060200190929190505050905061229081613e20565b61229d5782806001019350505b5080806001019150506120ec565b5080915050919050565b60006122c082613e20565b9050919050565b6000806122de83600261449490919063ffffffff16565b50905080915050919050565b601960009054906101000a900460ff1681565b612305613e18565b73ffffffffffffffffffffffffffffffffffffffff16612323612b6b565b73ffffffffffffffffffffffffffffffffffffffff16146123ac576040517f08c379a00000000000000000000000000000000000000000000000000000000081526004018080602001828103825260208152602001807f4f776e61626c653a2063616c6c6572206973206e6f7420746865206f776e657281525060200191505060405180910390fd5b6123b5816144c0565b50565b60185481565b60006123ee826040518060600160405280602981526020016155186029913960026144da9092919063ffffffff16565b9050919050565b600d5481565b606060098054600181600116156101000203166002900480601f0160208091040260200160405190810160405280929190818152602001828054600181600116156101000203166002900480156124935780601f1061246857610100808354040283529160200191612493565b820191906000526020600020905b81548152906001019060200180831161247657829003601f168201915b5050505050905090565b6124a5613e18565b73ffffffffffffffffffffffffffffffffffffffff166124c3612b6b565b73ffffffffffffffffffffffffffffffffffffffff161461254c576040517f08c379a00000000000000000000000000000000000000000000000000000000081526004018080602001828103825260208152602001807f4f776e61626c653a2063616c6c6572206973206e6f7420746865206f776e657281525060200191505060405180910390fd5b80600e8190555050565b60008073ffffffffffffffffffffffffffffffffffffffff168273ffffffffffffffffffffffffffffffffffffffff1614156125dd576040517f08c379a000000000000000000000000000000000000000000000000000000000815260040180806020018281038252602a8152602001806154ee602a913960400191505060405180910390fd5b612624600160008473ffffffffffffffffffffffffffffffffffffffff1673ffffffffffffffffffffffffffffffffffffffff1681526020019081526020016000206144f9565b9050919050565b612633613e18565b73ffffffffffffffffffffffffffffffffffffffff16612651612b6b565b73ffffffffffffffffffffffffffffffffffffffff16146126da576040517f08c379a00000000000000000000000000000000000000000000000000000000081526004018080602001828103825260208152602001807f4f776e61626c653a2063616c6c6572206973206e6f7420746865206f776e657281525060200191505060405180910390fd5b600073ffffffffffffffffffffffffffffffffffffffff16600a60009054906101000a900473ffffffffffffffffffffffffffffffffffffffff1673ffffffffffffffffffffffffffffffffffffffff167f8be0079c531659141344cd1fd0a4f28419497f9722a3daafe3b4186f6b6457e060405160405180910390a36000600a60006101000a81548173ffffffffffffffffffffffffffffffffffffffff021916908373ffffffffffffffffffffffffffffffffffffffff160217905550565b6127a3613e18565b73ffffffffffffffffffffffffffffffffffffffff166127c1612b6b565b73ffffffffffffffffffffffffffffffffffffffff161461284a576040517f08c379a00000000000000000000000000000000000000000000000000000000081526004018080602001828103825260208152602001807f4f776e61626c653a2063616c6c6572206973206e6f7420746865206f776e657281525060200191505060405180910390fd5b6000600c54146128c2576040517f08c379a000000000000000000000000000000000000000000000000000000000815260040180806020018281038252601d8152602001807f5374617274696e6720696e64657820697320616c72656164792073657400000081525060200191505060405180910390fd5b43600b81905550565b6128d3613e18565b73ffffffffffffffffffffffffffffffffffffffff166128f1612b6b565b73ffffffffffffffffffffffffffffffffffffffff161461297a576040517f08c379a00000000000000000000000000000000000000000000000000000000081526004018080602001828103825260208152602001807f4f776e61626c653a2063616c6c6572206973206e6f7420746865206f776e657281525060200191505060405180910390fd5b600073ffffffffffffffffffffffffffffffffffffffff168273ffffffffffffffffffffffffffffffffffffffff161415612a1d576040517f08c379a000000000000000000000000000000000000000000000000000000000815260040180806020018281038252601b8152602001807f496e76616c6964206164647265737320746f20726573657276652e000000000081525060200191505060405180910390fd5b60005b81811015612a6757612a4883612a43601854601754613ef690919063ffffffff16565b614004565b6018600081548092919060010191905055508080600101915050612a20565b505050565b60606000612a7983612556565b90506000811415612ad457600067ffffffffffffffff81118015612a9c57600080fd5b50604051908082528060200260200182016040528015612acb5781602001602082028036833780820191505090505b50915050612b60565b60008167ffffffffffffffff81118015612aed57600080fd5b50604051908082528060200260200182016040528015612b1c5781602001602082028036833780820191505090505b50905060005b82811015612b5957612b348582611bf3565b828281518110612b4057fe5b6020026020010181815250508080600101915050612b22565b5080925050505b919050565b600f5481565b6000600a60009054906101000a900473ffffffffffffffffffffffffffffffffffffffff16905090565b606060078054600181600116156101000203166002900480601f016020809104026020016040519081016040528092919081815260200182805460018160011615610100020316600290048015612c2d5780601f10612c0257610100808354040283529160200191612c2d565b820191906000526020600020905b815481529060010190602001808311612c1057829003601f168201915b5050505050905090565b612c3f613e18565b73ffffffffffffffffffffffffffffffffffffffff16612c5d612b6b565b73ffffffffffffffffffffffffffffffffffffffff1614612ce6576040517f08c379a00000000000000000000000000000000000000000000000000000000081526004018080602001828103825260208152602001807f4f776e61626c653a2063616c6c6572206973206e6f7420746865206f776e657281525060200191505060405180910390fd5b601960009054906101000a900460ff1615601960006101000a81548160ff021916908315150217905550565b612d1a613e18565b73ffffffffffffffffffffffffffffffffffffffff168273ffffffffffffffffffffffffffffffffffffffff161415612dbb576040517f08c379a00000000000000000000000000000000000000000000000000000000081526004018080602001828103825260198152602001807f4552433732313a20617070726f766520746f2063616c6c65720000000000000081525060200191505060405180910390fd5b8060056000612dc8613e18565b73ffffffffffffffffffffffffffffffffffffffff1673ffffffffffffffffffffffffffffffffffffffff16815260200190815260200160002060008473ffffffffffffffffffffffffffffffffffffffff1673ffffffffffffffffffffffffffffffffffffffff16815260200190815260200160002060006101000a81548160ff0219169083151502179055508173ffffffffffffffffffffffffffffffffffffffff16612e75613e18565b73ffffffffffffffffffffffffffffffffffffffff167f17307eab39ab6107e8899845ad3d59bd9653f200f220920489ca2b5937696c318360405180821515815260200191505060405180910390a35050565b612ed9612ed3613e18565b83614037565b612f2e576040517f08c379a000000000000000000000000000000000000000000000000000000000815260040180806020018281038252603181526020018061564a6031913960400191505060405180910390fd5b612f3a8484848461450e565b50505050565b612f48613e18565b73ffffffffffffffffffffffffffffffffffffffff16612f66612b6b565b73ffffffffffffffffffffffffffffffffffffffff1614612fef576040517f08c379a00000000000000000000000000000000000000000000000000000000081526004018080602001828103825260208152602001807f4f776e61626c653a2063616c6c6572206973206e6f7420746865206f776e657281525060200191505060405180910390fd5b600073ffffffffffffffffffffffffffffffffffffffff168273ffffffffffffffffffffffffffffffffffffffff161415613092576040517f08c379a000000000000000000000000000000000000000000000000000000000815260040180806020018281038252600f8152602001807f496e76616c69642061646472657373000000000000000000000000000000000081525060200191505060405180910390fd5b60005b81518110156131b4576130ba8282815181106130ad57fe5b6020026020010151613e20565b1580156131845750601660009054906101000a900473ffffffffffffffffffffffffffffffffffffffff1673ffffffffffffffffffffffffffffffffffffffff16634f558e7983838151811061310c57fe5b60200260200101516040518263ffffffff1660e01b81526004018082815260200191505060206040518083038186803b15801561314857600080fd5b505afa15801561315c573d6000803e3d6000fd5b505050506040513d602081101561317257600080fd5b81019080805190602001909291905050505b156131a7576131a68383838151811061319957fe5b6020026020010151614004565b5b8080600101915050613095565b505050565b60606131c482613e20565b613219576040517f08c379a000000000000000000000000000000000000000000000000000000000815260040180806020018281038252602f8152602001806155fa602f913960400191505060405180910390fd5b6000600860008481526020019081526020016000208054600181600116156101000203166002900480601f0160208091040260200160405190810160405280929190818152602001828054600181600116156101000203166002900480156132c25780601f10613297576101008083540402835291602001916132c2565b820191906000526020600020905b8154815290600101906020018083116132a557829003601f168201915b5050505050905060006132d36123fb565b90506000815114156132e9578192505050613485565b6000825111156133ba5780826040516020018083805190602001908083835b6020831061332b5780518252602082019150602081019050602083039250613308565b6001836020036101000a03801982511681845116808217855250505050505090500182805190602001908083835b6020831061337c5780518252602082019150602081019050602083039250613359565b6001836020036101000a0380198251168184511680821785525050505050509050019250505060405160208183030381529060405292505050613485565b806133c485614580565b6040516020018083805190602001908083835b602083106133fa57805182526020820191506020810190506020830392506133d7565b6001836020036101000a03801982511681845116808217855250505050505090500182805190602001908083835b6020831061344b5780518252602082019150602081019050602083039250613428565b6001836020036101000a03801982511681845116808217855250505050505090500192505050604051602081830303815290604052925050505b919050565b600c5481565b600b5481565b6000600560008473ffffffffffffffffffffffffffffffffffffffff1673ffffffffffffffffffffffffffffffffffffffff16815260200190815260200160002060008373ffffffffffffffffffffffffffffffffffffffff1673ffffffffffffffffffffffffffffffffffffffff16815260200190815260200160002060009054906101000a900460ff16905092915050565b6000600c54146135a2576040517f08c379a000000000000000000000000000000000000000000000000000000000815260040180806020018281038252601d8152602001807f5374617274696e6720696e64657820697320616c72656164792073657400000081525060200191505060405180910390fd5b6000600b54141561361b576040517f08c379a00000000000000000000000000000000000000000000000000000000081526004018080602001828103825260208152602001807f5374617274696e6720696e64657820626c6f636b206d7573742062652073657481525060200191505060405180910390fd5b600f54600b544060001c8161362c57fe5b06600c8190555060ff61364a600b544361441190919063ffffffff16565b111561366a57600f54600143034060001c8161366257fe5b06600c819055505b6000600c5414156136925761368b6001600c54613ef690919063ffffffff16565b600c819055505b565b601260009054906101000a900460ff1681565b6136af613e18565b73ffffffffffffffffffffffffffffffffffffffff166136cd612b6b565b73ffffffffffffffffffffffffffffffffffffffff1614613756576040517f08c379a00000000000000000000000000000000000000000000000000000000081526004018080602001828103825260208152602001807f4f776e61626c653a2063616c6c6572206973206e6f7420746865206f776e657281525060200191505060405180910390fd5b600073ffffffffffffffffffffffffffffffffffffffff168173ffffffffffffffffffffffffffffffffffffffff1614156137dc576040517f08c379a000000000000000000000000000000000000000000000000000000000815260040180806020018281038252602681526020018061541a6026913960400191505060405180910390fd5b8073ffffffffffffffffffffffffffffffffffffffff16600a60009054906101000a900473ffffffffffffffffffffffffffffffffffffffff1673ffffffffffffffffffffffffffffffffffffffff167f8be0079c531659141344cd1fd0a4f28419497f9722a3daafe3b4186f6b6457e060405160405180910390a380600a60006101000a81548173ffffffffffffffffffffffffffffffffffffffff021916908373ffffffffffffffffffffffffffffffffffffffff16021790555050565b601960009054906101000a900460ff1661391e576040517f08c379a000000000000000000000000000000000000000000000000000000000815260040180806020018281038252601c8152602001807f53616c65206d7573742062652061637469766520746f20636c61696d0000000081525060200191505060405180910390fd5b60008111613994576040517f08c379a000000000000000000000000000000000000000000000000000000000815260040180806020018281038252601d8152602001807f4d75737420636c61696d206174206c65617374206f6e6520746f6b656e00000081525060200191505060405180910390fd5b600e54811115613a0c576040517f08c379a000000000000000000000000000000000000000000000000000000000815260040180806020018281038252601f8152602001807f496e76616c696420616d6f756e7420746f206d696e7420706572206f6e63650081525060200191505060405180910390fd5b6000601660009054906101000a900473ffffffffffffffffffffffffffffffffffffffff1673ffffffffffffffffffffffffffffffffffffffff166370a08231336040518263ffffffff1660e01b8152600401808273ffffffffffffffffffffffffffffffffffffffff16815260200191505060206040518083038186803b158015613a9757600080fd5b505afa158015613aab573d6000803e3d6000fd5b505050506040513d6020811015613ac157600080fd5b8101908080519060200190929190505050905060008111613b2d576040517f08c379a00000000000000000000000000000000000000000000000000000000081526004018080602001828103825260218152602001806155b06021913960400191505060405180910390fd5b81811015613ba3576040517f08c379a00000000000000000000000000000000000000000000000000000000081526004018080602001828103825260178152602001807f496e76616c696420616d6f756e7420746f20636c61696d00000000000000000081525060200191505060405180910390fd5b6000805b82811015613cbb576000601660009054906101000a900473ffffffffffffffffffffffffffffffffffffffff1673ffffffffffffffffffffffffffffffffffffffff16632f745c5933846040518363ffffffff1660e01b8152600401808373ffffffffffffffffffffffffffffffffffffffff1681526020018281526020019250505060206040518083038186803b158015613c4257600080fd5b505afa158015613c56573d6000803e3d6000fd5b505050506040513d6020811015613c6c57600080fd5b81019080805190602001909291905050509050613c8881613e20565b613c9f57613c963382614004565b82806001019350505b84831415613cad5750613cbb565b508080600101915050613ba7565b50505050565b613cc9613e18565b73ffffffffffffffffffffffffffffffffffffffff16613ce7612b6b565b73ffffffffffffffffffffffffffffffffffffffff1614613d70576040517f08c379a00000000000000000000000000000000000000000000000000000000081526004018080602001828103825260208152602001807f4f776e61626c653a2063616c6c6572206973206e6f7420746865206f776e657281525060200191505060405180910390fd5b80600d8190555050565b60118054600181600116156101000203166002900480601f016020809104026020016040519081016040528092919081815260200182805460018160011615610100020316600290048015613e105780601f10613de557610100808354040283529160200191613e10565b820191906000526020600020905b815481529060010190602001808311613df357829003601f168201915b505050505081565b600033905090565b6000613e368260026146c790919063ffffffff16565b9050919050565b816004600083815260200190815260200160002060006101000a81548173ffffffffffffffffffffffffffffffffffffffff021916908373ffffffffffffffffffffffffffffffffffffffff160217905550808273ffffffffffffffffffffffffffffffffffffffff16613eb0836123be565b73ffffffffffffffffffffffffffffffffffffffff167f8c5be1e5ebec7d5bd14f71427d1e84f3dd0314c0f7b2291e5b200ac8c7c3b92560405160405180910390a45050565b600080828401905083811015613f74576040517f08c379a000000000000000000000000000000000000000000000000000000000815260040180806020018281038252601b8152602001807f536166654d6174683a206164646974696f6e206f766572666c6f77000000000081525060200191505060405180910390fd5b8091505092915050565b600080831415613f915760009050613ffe565b6000828402905082848281613fa257fe5b0414613ff9576040517f08c379a00000000000000000000000000000000000000000000000000000000081526004018080602001828103825260218152602001806155636021913960400191505060405180910390fd5b809150505b92915050565b61401e8282604051806020016040528060008152506146e1565b5050565b600061403082600001614752565b9050919050565b600061404282613e20565b614097576040517f08c379a000000000000000000000000000000000000000000000000000000000815260040180806020018281038252602c81526020018061548a602c913960400191505060405180910390fd5b60006140a2836123be565b90508073ffffffffffffffffffffffffffffffffffffffff168473ffffffffffffffffffffffffffffffffffffffff16148061411157508373ffffffffffffffffffffffffffffffffffffffff166140f984611537565b73ffffffffffffffffffffffffffffffffffffffff16145b8061412257506141218185613496565b5b91505092915050565b8273ffffffffffffffffffffffffffffffffffffffff1661414b826123be565b73ffffffffffffffffffffffffffffffffffffffff16146141b7576040517f08c379a00000000000000000000000000000000000000000000000000000000081526004018080602001828103825260298152602001806155d16029913960400191505060405180910390fd5b600073ffffffffffffffffffffffffffffffffffffffff168273ffffffffffffffffffffffffffffffffffffffff16141561423d576040517f08c379a00000000000000000000000000000000000000000000000000000000081526004018080602001828103825260248152602001806154406024913960400191505060405180910390fd5b614248838383614763565b614253600082613e3d565b6142a481600160008673ffffffffffffffffffffffffffffffffffffffff1673ffffffffffffffffffffffffffffffffffffffff16815260200190815260200160002061476890919063ffffffff16565b506142f681600160008573ffffffffffffffffffffffffffffffffffffffff1673ffffffffffffffffffffffffffffffffffffffff16815260200190815260200160002061478290919063ffffffff16565b5061430d8183600261479c9092919063ffffffff16565b50808273ffffffffffffffffffffffffffffffffffffffff168473ffffffffffffffffffffffffffffffffffffffff167fddf252ad1be2c89b69c2b068fc378daa952ba7f163c4a11628f55a4df523b3ef60405160405180910390a4505050565b600061437d83600001836147d1565b60001c905092915050565b60008082116143ff576040517f08c379a000000000000000000000000000000000000000000000000000000000815260040180806020018281038252601a8152602001807f536166654d6174683a206469766973696f6e206279207a65726f00000000000081525060200191505060405180910390fd5b81838161440857fe5b04905092915050565b600082821115614489576040517f08c379a000000000000000000000000000000000000000000000000000000000815260040180806020018281038252601e8152602001807f536166654d6174683a207375627472616374696f6e206f766572666c6f77000081525060200191505060405180910390fd5b818303905092915050565b6000806000806144a78660000186614854565b915091508160001c8160001c9350935050509250929050565b80600990805190602001906144d692919061531a565b5050565b60006144ed846000018460001b846148ed565b60001c90509392505050565b6000614507826000016149e3565b9050919050565b61451984848461412b565b614525848484846149f4565b61457a576040517f08c379a00000000000000000000000000000000000000000000000000000000081526004018080602001828103825260328152602001806153e86032913960400191505060405180910390fd5b50505050565b606060008214156145c8576040518060400160405280600181526020017f300000000000000000000000000000000000000000000000000000000000000081525090506146c2565b600082905060005b600082146145f2578080600101915050600a82816145ea57fe5b0491506145d0565b60008167ffffffffffffffff8111801561460b57600080fd5b506040519080825280601f01601f19166020018201604052801561463e5781602001600182028036833780820191505090505b50905060006001830390508593505b600084146146ba57600a848161465f57fe5b0660300160f81b8282806001900393508151811061467957fe5b60200101907effffffffffffffffffffffffffffffffffffffffffffffffffffffffffffff1916908160001a905350600a84816146b257fe5b04935061464d565b819450505050505b919050565b60006146d9836000018360001b614c0d565b905092915050565b6146eb8383614c30565b6146f860008484846149f4565b61474d576040517f08c379a00000000000000000000000000000000000000000000000000000000081526004018080602001828103825260328152602001806153e86032913960400191505060405180910390fd5b505050565b600081600001805490509050919050565b505050565b600061477a836000018360001b614e24565b905092915050565b6000614794836000018360001b614f0c565b905092915050565b60006147c8846000018460001b8473ffffffffffffffffffffffffffffffffffffffff1660001b614f7c565b90509392505050565b600081836000018054905011614832576040517f08c379a00000000000000000000000000000000000000000000000000000000081526004018080602001828103825260228152602001806153c66022913960400191505060405180910390fd5b82600001828154811061484157fe5b9060005260206000200154905092915050565b600080828460000180549050116148b6576040517f08c379a00000000000000000000000000000000000000000000000000000000081526004018080602001828103825260228152602001806155416022913960400191505060405180910390fd5b60008460000184815481106148c757fe5b906000526020600020906002020190508060000154816001015492509250509250929050565b600080846001016000858152602001908152602001600020549050600081141583906149b4576040517f08c379a00000000000000000000000000000000000000000000000000000000081526004018080602001828103825283818151815260200191508051906020019080838360005b8381101561497957808201518184015260208101905061495e565b50505050905090810190601f1680156149a65780820380516001836020036101000a031916815260200191505b509250505060405180910390fd5b508460000160018203815481106149c757fe5b9060005260206000209060020201600101549150509392505050565b600081600001805490509050919050565b6000614a158473ffffffffffffffffffffffffffffffffffffffff16615058565b614a225760019050614c05565b6000614b8c63150b7a0260e01b614a37613e18565b888787604051602401808573ffffffffffffffffffffffffffffffffffffffff1681526020018473ffffffffffffffffffffffffffffffffffffffff16815260200183815260200180602001828103825283818151815260200191508051906020019080838360005b83811015614abb578082015181840152602081019050614aa0565b50505050905090810190601f168015614ae85780820380516001836020036101000a031916815260200191505b5095505050505050604051602081830303815290604052907bffffffffffffffffffffffffffffffffffffffffffffffffffffffff19166020820180517bffffffffffffffffffffffffffffffffffffffffffffffffffffffff83818316178352505050506040518060600160405280603281526020016153e8603291398773ffffffffffffffffffffffffffffffffffffffff1661506b9092919063ffffffff16565b90506000818060200190516020811015614ba557600080fd5b8101908080519060200190929190505050905063150b7a0260e01b7bffffffffffffffffffffffffffffffffffffffffffffffffffffffff1916817bffffffffffffffffffffffffffffffffffffffffffffffffffffffff191614925050505b949350505050565b600080836001016000848152602001908152602001600020541415905092915050565b600073ffffffffffffffffffffffffffffffffffffffff168273ffffffffffffffffffffffffffffffffffffffff161415614cd3576040517f08c379a00000000000000000000000000000000000000000000000000000000081526004018080602001828103825260208152602001807f4552433732313a206d696e7420746f20746865207a65726f206164647265737381525060200191505060405180910390fd5b614cdc81613e20565b15614d4f576040517f08c379a000000000000000000000000000000000000000000000000000000000815260040180806020018281038252601c8152602001807f4552433732313a20746f6b656e20616c7265616479206d696e7465640000000081525060200191505060405180910390fd5b614d5b60008383614763565b614dac81600160008573ffffffffffffffffffffffffffffffffffffffff1673ffffffffffffffffffffffffffffffffffffffff16815260200190815260200160002061478290919063ffffffff16565b50614dc38183600261479c9092919063ffffffff16565b50808273ffffffffffffffffffffffffffffffffffffffff16600073ffffffffffffffffffffffffffffffffffffffff167fddf252ad1be2c89b69c2b068fc378daa952ba7f163c4a11628f55a4df523b3ef60405160405180910390a45050565b60008083600101600084815260200190815260200160002054905060008114614f005760006001820390506000600186600001805490500390506000866000018281548110614e6f57fe5b9060005260206000200154905080876000018481548110614e8c57fe5b9060005260206000200181905550600183018760010160008381526020019081526020016000208190555086600001805480614ec457fe5b60019003818190600052602060002001600090559055866001016000878152602001908152602001600020600090556001945050505050614f06565b60009150505b92915050565b6000614f188383615083565b614f71578260000182908060018154018082558091505060019003906000526020600020016000909190919091505582600001805490508360010160008481526020019081526020016000208190555060019050614f76565b600090505b92915050565b600080846001016000858152602001908152602001600020549050600081141561502357846000016040518060400160405280868152602001858152509080600181540180825580915050600190039060005260206000209060020201600090919091909150600082015181600001556020820151816001015550508460000180549050856001016000868152602001908152602001600020819055506001915050615051565b8285600001600183038154811061503657fe5b90600052602060002090600202016001018190555060009150505b9392505050565b600080823b905060008111915050919050565b606061507a84846000856150a6565b90509392505050565b600080836001016000848152602001908152602001600020541415905092915050565b606082471015615101576040517f08c379a00000000000000000000000000000000000000000000000000000000081526004018080602001828103825260268152602001806154646026913960400191505060405180910390fd5b61510a85615058565b61517c576040517f08c379a000000000000000000000000000000000000000000000000000000000815260040180806020018281038252601d8152602001807f416464726573733a2063616c6c20746f206e6f6e2d636f6e747261637400000081525060200191505060405180910390fd5b6000808673ffffffffffffffffffffffffffffffffffffffff1685876040518082805190602001908083835b602083106151cb57805182526020820191506020810190506020830392506151a8565b6001836020036101000a03801982511681845116808217855250505050505090500191505060006040518083038185875af1925050503d806000811461522d576040519150601f19603f3d011682016040523d82523d6000602084013e615232565b606091505b509150915061524282828661524e565b92505050949350505050565b6060831561525e57829050615313565b6000835111156152715782518084602001fd5b816040517f08c379a00000000000000000000000000000000000000000000000000000000081526004018080602001828103825283818151815260200191508051906020019080838360005b838110156152d85780820151818401526020810190506152bd565b50505050905090810190601f1680156153055780820380516001836020036101000a031916815260200191505b509250505060405180910390fd5b9392505050565b828054600181600116156101000203166002900490600052602060002090601f0160209004810192826153505760008555615397565b82601f1061536957805160ff1916838001178555615397565b82800160010185558215615397579182015b8281111561539657825182559160200191906001019061537b565b5b5090506153a491906153a8565b5090565b5b808211156153c15760008160009055506001016153a9565b509056fe456e756d657261626c655365743a20696e646578206f7574206f6620626f756e64734552433732313a207472616e7366657220746f206e6f6e20455243373231526563656976657220696d706c656d656e7465724f776e61626c653a206e6577206f776e657220697320746865207a65726f20616464726573734552433732313a207472616e7366657220746f20746865207a65726f2061646472657373416464726573733a20696e73756666696369656e742062616c616e636520666f722063616c6c4552433732313a206f70657261746f7220717565727920666f72206e6f6e6578697374656e7420746f6b656e4552433732313a20617070726f76652063616c6c6572206973206e6f74206f776e6572206e6f7220617070726f76656420666f7220616c6c4552433732313a2062616c616e636520717565727920666f7220746865207a65726f20616464726573734552433732313a206f776e657220717565727920666f72206e6f6e6578697374656e7420746f6b656e456e756d657261626c654d61703a20696e646578206f7574206f6620626f756e6473536166654d6174683a206d756c7469706c69636174696f6e206f766572666c6f774552433732313a20617070726f76656420717565727920666f72206e6f6e6578697374656e7420746f6b656e4d75737420686f6c64206174206c65617374206f6e6520537061636520446f67654552433732313a207472616e73666572206f6620746f6b656e2074686174206973206e6f74206f776e4552433732314d657461646174613a2055524920717565727920666f72206e6f6e6578697374656e7420746f6b656e4552433732313a20617070726f76616c20746f2063757272656e74206f776e65724552433732313a207472616e736665722063616c6c6572206973206e6f74206f776e6572206e6f7220617070726f766564a2646970667358221220fd9242d97573572c9ba79951ffe8108678cd4141aff1e99ee56bcd7d1ceee07664736f6c63430007060033"}}