{
  "opcodeHash": "0xb17726a6a8ca45ee54cc51565ce3edf89259168b421c568e1d7d63c33032f7ab",
  "metalessHash": "0x0ee3ca5d08d56925730e8f373492c72f8fc39a1a2ab8e33695e4b7162b53583c",
  "runtimeHash": "0x8bc066397e5f1e0f634b5562fc4cada40cf2f6ed3ed224214151cb1888f32323",
  "encodedMetadata": [
    {
      "ipfs": "/ipfs/QmciyV2E3TfHChGP2ZmrEE7dCanGv71b6Ck6ceGdLR1PnM",
      "solc": "0.8.4"
    }
  ],
  "abi": [
    {
      "inputs": [],
      "stateMutability": "nonpayable",
      "type": "constructor"
    },
    {
      "anonymous": false,
      "inputs": [
        {
          "indexed": true,
          "internalType": "address",
          "name": "owner",
          "type": "address"
        },
        {
          "indexed": true,
          "internalType": "address",
          "name": "spender",
          "type": "address"
        },
        {
          "indexed": false,
          "internalType": "uint256",
          "name": "value",
          "type": "uint256"
        }
      ],
      "name": "Approval",
      "type": "event"
    },
    {
      "anonymous": false,
      "inputs": [
        {
          "indexed": true,
          "internalType": "address",
          "name": "previousOwner",
          "type": "address"
        },
        {
          "indexed": true,
          "internalType": "address",
          "name": "newOwner",
          "type": "address"
        }
      ],
      "name": "OwnershipTransferred",
      "type": "event"
    },
    {
      "anonymous": false,
      "inputs": [
        {
          "indexed": true,
          "internalType": "address",
          "name": "from",
          "type": "address"
        },
        {
          "indexed": true,
          "internalType": "address",
          "name": "to",
          "type": "address"
        },
        {
          "indexed": false,
          "internalType": "uint256",
          "name": "value",
          "type": "uint256"
        }
      ],
      "name": "Transfer",
      "type": "event"
    },
    {
      "inputs": [
        {
          "internalType": "address",
          "name": "owner",
          "type": "address"
        },
        {
          "internalType": "address",
          "name": "spender",
          "type": "address"
        }
      ],
      "name": "allowance",
      "outputs": [
        {
          "internalType": "uint256",
          "name": "",
          "type": "uint256"
        }
      ],
      "stateMutability": "view",
      "type": "function"
    },
    {
      "inputs": [
        {
          "internalType": "address",
          "name": "spender",
          "type": "address"
        },
        {
          "internalType": "uint256",
          "name": "amount",
          "type": "uint256"
        }
      ],
      "name": "approve",
      "outputs": [
        {
          "internalType": "bool",
          "name": "",
          "type": "bool"
        }
      ],
      "stateMutability": "nonpayable",
      "type": "function"
    },
    {
      "inputs": [
        {
          "internalType": "address",
          "name": "account",
          "type": "address"
        }
      ],
      "name": "balanceOf",
      "outputs": [
        {
          "internalType": "uint256",
          "name": "",
          "type": "uint256"
        }
      ],
      "stateMutability": "view",
      "type": "function"
    },
    {
      "inputs": [],
      "name": "decimals",
      "outputs": [
        {
          "internalType": "uint8",
          "name": "",
          "type": "uint8"
        }
      ],
      "stateMutability": "view",
      "type": "function"
    },
    {
      "inputs": [
        {
          "internalType": "address",
          "name": "spender",
          "type": "address"
        },
        {
          "internalType": "uint256",
          "name": "subtractedValue",
          "type": "uint256"
        }
      ],
      "name": "decreaseAllowance",
      "outputs": [
        {
          "internalType": "bool",
          "name": "",
          "type": "bool"
        }
      ],
      "stateMutability": "nonpayable",
      "type": "function"
    },
    {
      "inputs": [
        {
          "internalType": "address",
          "name": "spender",
          "type": "address"
        },
        {
          "internalType": "uint256",
          "name": "addedValue",
          "type": "uint256"
        }
      ],
      "name": "increaseAllowance",
      "outputs": [
        {
          "internalType": "bool",
          "name": "",
          "type": "bool"
        }
      ],
      "stateMutability": "nonpayable",
      "type": "function"
    },
    {
      "inputs": [],
      "name": "maxMintable",
      "outputs": [
        {
          "internalType": "uint256",
          "name": "",
          "type": "uint256"
        }
      ],
      "stateMutability": "view",
      "type": "function"
    },
    {
      "inputs": [
        {
          "internalType": "address",
          "name": "_receiver",
          "type": "address"
        },
        {
          "internalType": "uint256",
          "name": "_amount",
          "type": "uint256"
        }
      ],
      "name": "mint",
      "outputs": [],
      "stateMutability": "nonpayable",
      "type": "function"
    },
    {
      "inputs": [],
      "name": "name",
      "outputs": [
        {
          "internalType": "string",
          "name": "",
          "type": "string"
        }
      ],
      "stateMutability": "view",
      "type": "function"
    },
    {
      "inputs": [],
      "name": "owner",
      "outputs": [
        {
          "internalType": "address",
          "name": "",
          "type": "address"
        }
      ],
      "stateMutability": "view",
      "type": "function"
    },
    {
      "inputs": [],
      "name": "renounceOwnership",
      "outputs": [],
      "stateMutability": "nonpayable",
      "type": "function"
    },
    {
      "inputs": [],
      "name": "symbol",
      "outputs": [
        {
          "internalType": "string",
          "name": "",
          "type": "string"
        }
      ],
      "stateMutability": "view",
      "type": "function"
    },
    {
      "inputs": [],
      "name": "totalSupply",
      "outputs": [
        {
          "internalType": "uint256",
          "name": "",
          "type": "uint256"
        }
      ],
      "stateMutability": "view",
      "type": "function"
    },
    {
      "inputs": [
        {
          "internalType": "address",
          "name": "recipient",
          "type": "address"
        },
        {
          "internalType": "uint256",
          "name": "amount",
          "type": "uint256"
        }
      ],
      "name": "transfer",
      "outputs": [
        {
          "internalType": "bool",
          "name": "",
          "type": "bool"
        }
      ],
      "stateMutability": "nonpayable",
      "type": "function"
    },
    {
      "inputs": [
        {
          "internalType": "address",
          "name": "sender",
          "type": "address"
        },
        {
          "internalType": "address",
          "name": "recipient",
          "type": "address"
        },
        {
          "internalType": "uint256",
          "name": "amount",
          "type": "uint256"
        }
      ],
      "name": "transferFrom",
      "outputs": [
        {
          "internalType": "bool",
          "name": "",
          "type": "bool"
        }
      ],
      "stateMutability": "nonpayable",
      "type": "function"
    },
    {
      "inputs": [
        {
          "internalType": "address",
          "name": "newOwner",
          "type": "address"
        }
      ],
      "name": "transferOwnership",
      "outputs": [],
      "stateMutability": "nonpayable",
      "type": "function"
    }
  ],
  "bytecode": {
    "object": "60806040526b204fce5e3e250261100000006006553480156200002157600080fd5b5060408051808201825260078152665969656c646c7960c81b602080830191825283518085019094526004845263594c445960e01b9084015281519192916200006d91600391620000f0565b50805162000083906004906020840190620000f0565b505050600062000098620000ec60201b60201c565b600580546001600160a01b0319166001600160a01b038316908117909155604051919250906000907f8be0079c531659141344cd1fd0a4f28419497f9722a3daafe3b4186f6b6457e0908290a350620001d3565b3390565b828054620000fe9062000196565b90600052602060002090601f0160209004810192826200012257600085556200016d565b82601f106200013d57805160ff19168380011785556200016d565b828001600101855582156200016d579182015b828111156200016d57825182559160200191906001019062000150565b506200017b9291506200017f565b5090565b5b808211156200017b576000815560010162000180565b600181811c90821680620001ab57607f821691505b60208210811415620001cd57634e487b7160e01b600052602260045260246000fd5b50919050565b610d7380620001e36000396000f3fe608060405234801561001057600080fd5b50600436106101005760003560e01c806370a0823111610097578063a457c2d711610066578063a457c2d7146101ff578063a9059cbb14610212578063dd62ed3e14610225578063f2fde38b1461025e57600080fd5b806370a08231146101ab578063715018a6146101d45780638da5cb5b146101dc57806395d89b41146101f757600080fd5b806323b872dd116100d357806323b872dd14610161578063313ce56714610174578063395093511461018357806340c10f191461019657600080fd5b806306fdde0314610105578063095ea7b31461012357806318160ddd146101465780632154dc3914610158575b600080fd5b61010d610271565b60405161011a9190610c35565b60405180910390f35b610136610131366004610c0c565b610303565b604051901515815260200161011a565b6002545b60405190815260200161011a565b61014a60065481565b61013661016f366004610bd1565b610319565b6040516012815260200161011a565b610136610191366004610c0c565b6103cf565b6101a96101a4366004610c0c565b610406565b005b61014a6101b9366004610b7e565b6001600160a01b031660009081526020819052604090205490565b6101a9610571565b6005546040516001600160a01b03909116815260200161011a565b61010d6105e5565b61013661020d366004610c0c565b6105f4565b610136610220366004610c0c565b61068f565b61014a610233366004610b9f565b6001600160a01b03918216600090815260016020908152604080832093909416825291909152205490565b6101a961026c366004610b7e565b61069c565b60606003805461028090610cec565b80601f01602080910402602001604051908101604052809291908181526020018280546102ac90610cec565b80156102f95780601f106102ce576101008083540402835291602001916102f9565b820191906000526020600020905b8154815290600101906020018083116102dc57829003601f168201915b5050505050905090565b6000610310338484610787565b50600192915050565b60006103268484846108ab565b6001600160a01b0384166000908152600160209081526040808320338452909152902054828110156103b05760405162461bcd60e51b815260206004820152602860248201527f45524332303a207472616e7366657220616d6f756e74206578636565647320616044820152676c6c6f77616e636560c01b60648201526084015b60405180910390fd5b6103c485336103bf8685610cd5565b610787565b506001949350505050565b3360008181526001602090815260408083206001600160a01b038716845290915281205490916103109185906103bf908690610cbd565b6005546001600160a01b031633146104305760405162461bcd60e51b81526004016103a790610c88565b600081116104805760405162461bcd60e51b815260206004820152601960248201527f4e6565647320746f206265206c6172676572207468616e20300000000000000060448201526064016103a7565b600654600254106104f25760405162461bcd60e51b815260206004820152603660248201527f5468697320746f6b656e2068617320616c7265616479206265656e206d696e74604482015275656420746f206d6178696d756d20636170616369747960501b60648201526084016103a7565b600654816104ff60025490565b6105099190610cbd565b11156105635760405162461bcd60e51b8152602060048201526024808201527f43616e6e6f742065786365656420746f6b656e206d6178696d756d20636170616044820152636369747960e01b60648201526084016103a7565b61056d8282610a83565b5050565b6005546001600160a01b0316331461059b5760405162461bcd60e51b81526004016103a790610c88565b6005546040516000916001600160a01b0316907f8be0079c531659141344cd1fd0a4f28419497f9722a3daafe3b4186f6b6457e0908390a3600580546001600160a01b0319169055565b60606004805461028090610cec565b3360009081526001602090815260408083206001600160a01b0386168452909152812054828110156106765760405162461bcd60e51b815260206004820152602560248201527f45524332303a2064656372656173656420616c6c6f77616e63652062656c6f77604482015264207a65726f60d81b60648201526084016103a7565b61068533856103bf8685610cd5565b5060019392505050565b60006103103384846108ab565b6005546001600160a01b031633146106c65760405162461bcd60e51b81526004016103a790610c88565b6001600160a01b03811661072b5760405162461bcd60e51b815260206004820152602660248201527f4f776e61626c653a206e6577206f776e657220697320746865207a65726f206160448201526564647265737360d01b60648201526084016103a7565b6005546040516001600160a01b038084169216907f8be0079c531659141344cd1fd0a4f28419497f9722a3daafe3b4186f6b6457e090600090a3600580546001600160a01b0319166001600160a01b0392909216919091179055565b6001600160a01b0383166107e95760405162461bcd60e51b8152602060048201526024808201527f45524332303a20617070726f76652066726f6d20746865207a65726f206164646044820152637265737360e01b60648201526084016103a7565b6001600160a01b03821661084a5760405162461bcd60e51b815260206004820152602260248201527f45524332303a20617070726f766520746f20746865207a65726f206164647265604482015261737360f01b60648201526084016103a7565b6001600160a01b0383811660008181526001602090815260408083209487168084529482529182902085905590518481527f8c5be1e5ebec7d5bd14f71427d1e84f3dd0314c0f7b2291e5b200ac8c7c3b925910160405180910390a3505050565b6001600160a01b03831661090f5760405162461bcd60e51b815260206004820152602560248201527f45524332303a207472616e736665722066726f6d20746865207a65726f206164604482015264647265737360d81b60648201526084016103a7565b6001600160a01b0382166109715760405162461bcd60e51b815260206004820152602360248201527f45524332303a207472616e7366657220746f20746865207a65726f206164647260448201526265737360e81b60648201526084016103a7565b6001600160a01b038316600090815260208190526040902054818110156109e95760405162461bcd60e51b815260206004820152602660248201527f45524332303a207472616e7366657220616d6f756e7420657863656564732062604482015265616c616e636560d01b60648201526084016103a7565b6109f38282610cd5565b6001600160a01b038086166000908152602081905260408082209390935590851681529081208054849290610a29908490610cbd565b92505081905550826001600160a01b0316846001600160a01b03167fddf252ad1be2c89b69c2b068fc378daa952ba7f163c4a11628f55a4df523b3ef84604051610a7591815260200190565b60405180910390a350505050565b6001600160a01b038216610ad95760405162461bcd60e51b815260206004820152601f60248201527f45524332303a206d696e7420746f20746865207a65726f20616464726573730060448201526064016103a7565b8060026000828254610aeb9190610cbd565b90915550506001600160a01b03821660009081526020819052604081208054839290610b18908490610cbd565b90915550506040518181526001600160a01b038316906000907fddf252ad1be2c89b69c2b068fc378daa952ba7f163c4a11628f55a4df523b3ef9060200160405180910390a35050565b80356001600160a01b0381168114610b7957600080fd5b919050565b600060208284031215610b8f578081fd5b610b9882610b62565b9392505050565b60008060408385031215610bb1578081fd5b610bba83610b62565b9150610bc860208401610b62565b90509250929050565b600080600060608486031215610be5578081fd5b610bee84610b62565b9250610bfc60208501610b62565b9150604084013590509250925092565b60008060408385031215610c1e578182fd5b610c2783610b62565b946020939093013593505050565b6000602080835283518082850152825b81811015610c6157858101830151858201604001528201610c45565b81811115610c725783604083870101525b50601f01601f1916929092016040019392505050565b6020808252818101527f4f776e61626c653a2063616c6c6572206973206e6f7420746865206f776e6572604082015260600190565b60008219821115610cd057610cd0610d27565b500190565b600082821015610ce757610ce7610d27565b500390565b600181811c90821680610d0057607f821691505b60208210811415610d2157634e487b7160e01b600052602260045260246000fd5b50919050565b634e487b7160e01b600052601160045260246000fdfea2646970667358221220e79602548415442f2c8a9bbeb1541768519456a9128b20975557c202937fb96164736f6c63430008040033"
  }
}