{
  "opcodeHash": "0x0a8c3c244cedc57543f91125c00c7c25d01feecbd47593ae1698cd71ee41c46c",
  "metalessHash": "0x05f52b7b5b1e3080c551769bcd7a37579b251c26c8ec702e96048be9192232ad",
  "runtimeHash": "0x764f4ed8bdf43bc277c32cd17fafe5e632deed9b9e903899b5c205d2ddd33d53",
  "encodedMetadata": [
    {
      "ipfs": "/ipfs/Qmb39fGfLRtczaEbJ1snq49GCTHByzJ59uUWPdujHk5g5a",
      "solc": "0.8.7"
    }
  ],
  "abi": [
    {
      "anonymous": false,
      "inputs": [
        {
          "indexed": false,
          "internalType": "address",
          "name": "holder",
          "type": "address"
        },
        {
          "indexed": false,
          "internalType": "uint256",
          "name": "amount",
          "type": "uint256"
        },
        {
          "indexed": false,
          "internalType": "uint256",
          "name": "newAmount",
          "type": "uint256"
        }
      ],
      "name": "Bridged",
      "type": "event"
    },
    {
      "anonymous": false,
      "inputs": [
        {
          "indexed": true,
          "internalType": "address",
          "name": "previousOwner",
          "type": "address"
        },
        {
          "indexed": true,
          "internalType": "address",
          "name": "newOwner",
          "type": "address"
        }
      ],
      "name": "OwnershipTransferred",
      "type": "event"
    },
    {
      "inputs": [
        {
          "internalType": "bool",
          "name": "_new",
          "type": "bool"
        }
      ],
      "name": "changeState",
      "outputs": [
        {
          "internalType": "bool",
          "name": "",
          "type": "bool"
        }
      ],
      "stateMutability": "nonpayable",
      "type": "function"
    },
    {
      "inputs": [],
      "name": "deposit",
      "outputs": [
        {
          "internalType": "address",
          "name": "",
          "type": "address"
        }
      ],
      "stateMutability": "view",
      "type": "function"
    },
    {
      "inputs": [],
      "name": "enabled",
      "outputs": [
        {
          "internalType": "bool",
          "name": "",
          "type": "bool"
        }
      ],
      "stateMutability": "view",
      "type": "function"
    },
    {
      "inputs": [],
      "name": "owner",
      "outputs": [
        {
          "internalType": "address",
          "name": "",
          "type": "address"
        }
      ],
      "stateMutability": "view",
      "type": "function"
    },
    {
      "inputs": [],
      "name": "rate",
      "outputs": [
        {
          "internalType": "uint256",
          "name": "",
          "type": "uint256"
        }
      ],
      "stateMutability": "view",
      "type": "function"
    },
    {
      "inputs": [
        {
          "internalType": "uint256",
          "name": "amount",
          "type": "uint256"
        }
      ],
      "name": "swap",
      "outputs": [
        {
          "internalType": "bool",
          "name": "",
          "type": "bool"
        }
      ],
      "stateMutability": "nonpayable",
      "type": "function"
    },
    {
      "inputs": [
        {
          "internalType": "address",
          "name": "newOwner",
          "type": "address"
        }
      ],
      "name": "transferOwnership",
      "outputs": [
        {
          "internalType": "bool",
          "name": "",
          "type": "bool"
        }
      ],
      "stateMutability": "nonpayable",
      "type": "function"
    },
    {
      "inputs": [],
      "name": "withdraw",
      "outputs": [
        {
          "internalType": "address",
          "name": "",
          "type": "address"
        }
      ],
      "stateMutability": "view",
      "type": "function"
    }
  ],
  "bytecode": {
    "object": "6080604052600180556001600260006101000a81548160ff02191690831515021790555034801561002f57600080fd5b50336000806101000a81548173ffffffffffffffffffffffffffffffffffffffff021916908373ffffffffffffffffffffffffffffffffffffffff160217905550610c208061007f6000396000f3fe608060405234801561001057600080fd5b50600436106100885760003560e01c80638da5cb5b1161005b5780638da5cb5b1461011757806394b918de14610135578063d0e30db014610165578063f2fde38b1461018357610088565b80631deb0a8f1461008d578063238dafe0146100bd5780632c4e722e146100db5780633ccfd60b146100f9575b600080fd5b6100a760048036038101906100a29190610729565b6101b3565b6040516100b491906108f8565b60405180910390f35b6100c5610231565b6040516100d291906108f8565b60405180910390f35b6100e3610244565b6040516100f09190610973565b60405180910390f35b61010161024a565b60405161010e9190610846565b60405180910390f35b61011f610262565b60405161012c9190610846565b60405180910390f35b61014f600480360381019061014a9190610783565b610286565b60405161015c91906108f8565b60405180910390f35b61016d6104f7565b60405161017a9190610846565b60405180910390f35b61019d600480360381019061019891906106fc565b61050f565b6040516101aa91906108f8565b60405180910390f35b60008060009054906101000a900473ffffffffffffffffffffffffffffffffffffffff1673ffffffffffffffffffffffffffffffffffffffff163373ffffffffffffffffffffffffffffffffffffffff161461020e57600080fd5b81600260006101000a81548160ff02191690831515021790555060019050919050565b600260009054906101000a900460ff1681565b60015481565b733adc55f60b62039ab2a024256cc8b97935e1252481565b60008054906101000a900473ffffffffffffffffffffffffffffffffffffffff1681565b6000600260009054906101000a900460ff166102d7576040517f08c379a00000000000000000000000000000000000000000000000000000000081526004016102ce90610933565b60405180910390fd5b60006102ee6001548461066790919063ffffffff16565b905073481de76d5ab31e28a33b0ea1c1063adcb5b1769a73ffffffffffffffffffffffffffffffffffffffff166323b872dd3330866040518463ffffffff1660e01b815260040161034193929190610861565b602060405180830381600087803b15801561035b57600080fd5b505af115801561036f573d6000803e3d6000fd5b505050506040513d601f19601f820116820180604052508101906103939190610756565b6103d2576040517f08c379a00000000000000000000000000000000000000000000000000000000081526004016103c990610913565b60405180910390fd5b733adc55f60b62039ab2a024256cc8b97935e1252473ffffffffffffffffffffffffffffffffffffffff1663a9059cbb33836040518363ffffffff1660e01b8152600401610421929190610898565b602060405180830381600087803b15801561043b57600080fd5b505af115801561044f573d6000803e3d6000fd5b505050506040513d601f19601f820116820180604052508101906104739190610756565b6104b2576040517f08c379a00000000000000000000000000000000000000000000000000000000081526004016104a990610953565b60405180910390fd5b7f3d5efde88d9de43b0760b6ad214a1e30802b6e8efdf51238202549097ccf0cac3384836040516104e5939291906108c1565b60405180910390a16001915050919050565b73481de76d5ab31e28a33b0ea1c1063adcb5b1769a81565b60008060009054906101000a900473ffffffffffffffffffffffffffffffffffffffff1673ffffffffffffffffffffffffffffffffffffffff163373ffffffffffffffffffffffffffffffffffffffff161461056a57600080fd5b600073ffffffffffffffffffffffffffffffffffffffff168273ffffffffffffffffffffffffffffffffffffffff1614156105a457600080fd5b8173ffffffffffffffffffffffffffffffffffffffff1660008054906101000a900473ffffffffffffffffffffffffffffffffffffffff1673ffffffffffffffffffffffffffffffffffffffff167f8be0079c531659141344cd1fd0a4f28419497f9722a3daafe3b4186f6b6457e060405160405180910390a3816000806101000a81548173ffffffffffffffffffffffffffffffffffffffff021916908373ffffffffffffffffffffffffffffffffffffffff16021790555060019050919050565b600080828461067691906109d0565b90506000841480610691575082848261068f919061099f565b145b61069e5761069d610a72565b5b8091505092915050565b6000813590506106b781610ba5565b92915050565b6000813590506106cc81610bbc565b92915050565b6000815190506106e181610bbc565b92915050565b6000813590506106f681610bd3565b92915050565b60006020828403121561071257610711610aff565b5b6000610720848285016106a8565b91505092915050565b60006020828403121561073f5761073e610aff565b5b600061074d848285016106bd565b91505092915050565b60006020828403121561076c5761076b610aff565b5b600061077a848285016106d2565b91505092915050565b60006020828403121561079957610798610aff565b5b60006107a7848285016106e7565b91505092915050565b6107b981610a2a565b82525050565b6107c881610a3c565b82525050565b60006107db601c8361098e565b91506107e682610b04565b602082019050919050565b60006107fe60128361098e565b915061080982610b2d565b602082019050919050565b600061082160228361098e565b915061082c82610b56565b604082019050919050565b61084081610a68565b82525050565b600060208201905061085b60008301846107b0565b92915050565b600060608201905061087660008301866107b0565b61088360208301856107b0565b6108906040830184610837565b949350505050565b60006040820190506108ad60008301856107b0565b6108ba6020830184610837565b9392505050565b60006060820190506108d660008301866107b0565b6108e36020830185610837565b6108f06040830184610837565b949350505050565b600060208201905061090d60008301846107bf565b92915050565b6000602082019050818103600083015261092c816107ce565b9050919050565b6000602082019050818103600083015261094c816107f1565b9050919050565b6000602082019050818103600083015261096c81610814565b9050919050565b60006020820190506109886000830184610837565b92915050565b600082825260208201905092915050565b60006109aa82610a68565b91506109b583610a68565b9250826109c5576109c4610ad0565b5b828204905092915050565b60006109db82610a68565b91506109e683610a68565b9250817fffffffffffffffffffffffffffffffffffffffffffffffffffffffffffffffff0483118215151615610a1f57610a1e610aa1565b5b828202905092915050565b6000610a3582610a48565b9050919050565b60008115159050919050565b600073ffffffffffffffffffffffffffffffffffffffff82169050919050565b6000819050919050565b7f4e487b7100000000000000000000000000000000000000000000000000000000600052600160045260246000fd5b7f4e487b7100000000000000000000000000000000000000000000000000000000600052601160045260246000fd5b7f4e487b7100000000000000000000000000000000000000000000000000000000600052601260045260246000fd5b600080fd5b7f436f756c64206e6f7420676574206465706f73697420746f6b656e2e00000000600082015250565b7f4272696467652069732064697361626c65640000000000000000000000000000600082015250565b7f436f756c64206e6f74207472616e7366657220776974686472617720746f6b6560008201527f6e2e000000000000000000000000000000000000000000000000000000000000602082015250565b610bae81610a2a565b8114610bb957600080fd5b50565b610bc581610a3c565b8114610bd057600080fd5b50565b610bdc81610a68565b8114610be757600080fd5b5056fea264697066735822122068807b2a15e06bfe98d7ccf65e3a7c6f31ffcd76c7e027ec59a1b256104080a564736f6c63430008070033"
  }
}