{
  "opcodeHash": "0x7cfadb3ce26567c934bb722536d9bb6139ac0e77ec4adb1c7c323478b16af045",
  "metalessHash": "0x861a49058f564e807c957f36a713b8c51317c00252e2e59327114dc9e6272462",
  "runtimeHash": "0xa078e6f1230c2e7de5567d4864fcf46fbd3b32e7a34ce97f4e55e2647f04e04a",
  "encodedMetadata": [
    {
      "bzzr0": "/swarm/bzzr0/c103a72cdc446d660fcad9abc78a0d61c8cecd04609f0e994de2bf45aa431f1c"
    }
  ],
  "abi": [
    {
      "constant": true,
      "inputs": [],
      "name": "lastMonsterId",
      "outputs": [
        {
          "name": "",
          "type": "uint256"
        }
      ],
      "payable": false,
      "stateMutability": "view",
      "type": "function"
    },
    {
      "constant": true,
      "inputs": [
        {
          "name": "id",
          "type": "uint8"
        }
      ],
      "name": "getMonster",
      "outputs": [
        {
          "name": "",
          "type": "uint256"
        },
        {
          "name": "",
          "type": "address"
        },
        {
          "name": "",
          "type": "uint256"
        },
        {
          "name": "",
          "type": "address"
        },
        {
          "name": "",
          "type": "uint256"
        }
      ],
      "payable": false,
      "stateMutability": "view",
      "type": "function"
    },
    {
      "constant": true,
      "inputs": [
        {
          "name": "id",
          "type": "uint256"
        }
      ],
      "name": "isMonsterExists",
      "outputs": [
        {
          "name": "",
          "type": "bool"
        }
      ],
      "payable": false,
      "stateMutability": "view",
      "type": "function"
    },
    {
      "constant": true,
      "inputs": [],
      "name": "totalmonster",
      "outputs": [
        {
          "name": "",
          "type": "uint256"
        }
      ],
      "payable": false,
      "stateMutability": "view",
      "type": "function"
    },
    {
      "constant": true,
      "inputs": [],
      "name": "owner",
      "outputs": [
        {
          "name": "",
          "type": "address"
        }
      ],
      "payable": false,
      "stateMutability": "view",
      "type": "function"
    },
    {
      "constant": false,
      "inputs": [
        {
          "name": "userId",
          "type": "uint256"
        },
        {
          "name": "userAddress",
          "type": "address"
        },
        {
          "name": "referrerId",
          "type": "uint256"
        },
        {
          "name": "referrerAddress",
          "type": "address"
        },
        {
          "name": "level",
          "type": "uint256"
        }
      ],
      "name": "catchMonster",
      "outputs": [],
      "payable": false,
      "stateMutability": "nonpayable",
      "type": "function"
    },
    {
      "constant": true,
      "inputs": [],
      "name": "monsterCount",
      "outputs": [
        {
          "name": "",
          "type": "uint256"
        }
      ],
      "payable": false,
      "stateMutability": "view",
      "type": "function"
    },
    {
      "constant": true,
      "inputs": [
        {
          "name": "",
          "type": "uint256"
        }
      ],
      "name": "monsterIds",
      "outputs": [
        {
          "name": "monster_id",
          "type": "uint256"
        },
        {
          "name": "monster_address",
          "type": "address"
        },
        {
          "name": "referrer_id",
          "type": "uint256"
        },
        {
          "name": "referrer_address",
          "type": "address"
        },
        {
          "name": "monsterLevel",
          "type": "uint256"
        }
      ],
      "payable": false,
      "stateMutability": "view",
      "type": "function"
    },
    {
      "inputs": [],
      "payable": false,
      "stateMutability": "nonpayable",
      "type": "constructor"
    }
  ],
  "bytecode": {
    "object": "60806040526001600255600160035534801561001a57600080fd5b506100236101a9565b336000806101000a81548173ffffffffffffffffffffffffffffffffffffffff021916908373ffffffffffffffffffffffffffffffffffffffff16021790555060a060405190810160405280600181526020016000809054906101000a900473ffffffffffffffffffffffffffffffffffffffff1673ffffffffffffffffffffffffffffffffffffffff16815260200160008152602001600073ffffffffffffffffffffffffffffffffffffffff16815260200161038481525090508060016000600181526020019081526020016000206000820151816000015560208201518160010160006101000a81548173ffffffffffffffffffffffffffffffffffffffff021916908373ffffffffffffffffffffffffffffffffffffffff1602179055506040820151816002015560608201518160030160006101000a81548173ffffffffffffffffffffffffffffffffffffffff021916908373ffffffffffffffffffffffffffffffffffffffff1602179055506080820151816004015590505050610205565b60a06040519081016040528060008152602001600073ffffffffffffffffffffffffffffffffffffffff16815260200160008152602001600073ffffffffffffffffffffffffffffffffffffffff168152602001600081525090565b610718806102146000396000f30060806040526004361061008e576000357c0100000000000000000000000000000000000000000000000000000000900463ffffffff168063268a91881461009357806353623489146100be57806364dcec81146101765780637a95e29c146101bb5780638da5cb5b146101e6578063a4f220561461023d578063b693bff8146102be578063d01f6944146102e9575b600080fd5b34801561009f57600080fd5b506100a861039e565b6040518082815260200191505060405180910390f35b3480156100ca57600080fd5b506100ec600480360381019080803560ff1690602001909291905050506103a4565b604051808681526020018573ffffffffffffffffffffffffffffffffffffffff1673ffffffffffffffffffffffffffffffffffffffff1681526020018481526020018373ffffffffffffffffffffffffffffffffffffffff1673ffffffffffffffffffffffffffffffffffffffff1681526020018281526020019550505050505060405180910390f35b34801561018257600080fd5b506101a160048036038101908080359060200190929190505050610481565b604051808215151515815260200191505060405180910390f35b3480156101c757600080fd5b506101d06104a4565b6040518082815260200191505060405180910390f35b3480156101f257600080fd5b506101fb6104ae565b604051808273ffffffffffffffffffffffffffffffffffffffff1673ffffffffffffffffffffffffffffffffffffffff16815260200191505060405180910390f35b34801561024957600080fd5b506102bc60048036038101908080359060200190929190803573ffffffffffffffffffffffffffffffffffffffff16906020019092919080359060200190929190803573ffffffffffffffffffffffffffffffffffffffff169060200190929190803590602001909291905050506104d3565b005b3480156102ca57600080fd5b506102d3610614565b6040518082815260200191505060405180910390f35b3480156102f557600080fd5b506103146004803603810190808035906020019092919050505061061a565b604051808681526020018573ffffffffffffffffffffffffffffffffffffffff1673ffffffffffffffffffffffffffffffffffffffff1681526020018481526020018373ffffffffffffffffffffffffffffffffffffffff1673ffffffffffffffffffffffffffffffffffffffff1681526020018281526020019550505050505060405180910390f35b60035481565b6000806000806000600160008760ff16815260200190815260200160002060000154600160008860ff16815260200190815260200160002060010160009054906101000a900473ffffffffffffffffffffffffffffffffffffffff16600160008960ff16815260200190815260200160002060020154600160008a60ff16815260200190815260200160002060030160009054906101000a900473ffffffffffffffffffffffffffffffffffffffff16600160008b60ff168152602001908152602001600020600401549450945094509450945091939590929450565b600080600160008481526020019081526020016000206000015414159050919050565b6000600254905090565b6000809054906101000a900473ffffffffffffffffffffffffffffffffffffffff1681565b6104db610690565b60a0604051908101604052808781526020018673ffffffffffffffffffffffffffffffffffffffff1681526020018581526020018473ffffffffffffffffffffffffffffffffffffffff16815260200183815250905080600160008881526020019081526020016000206000820151816000015560208201518160010160006101000a81548173ffffffffffffffffffffffffffffffffffffffff021916908373ffffffffffffffffffffffffffffffffffffffff1602179055506040820151816002015560608201518160030160006101000a81548173ffffffffffffffffffffffffffffffffffffffff021916908373ffffffffffffffffffffffffffffffffffffffff16021790555060808201518160040155905050600160026000828254019250508190555085600381905550505050505050565b60025481565b60016020528060005260406000206000915090508060000154908060010160009054906101000a900473ffffffffffffffffffffffffffffffffffffffff16908060020154908060030160009054906101000a900473ffffffffffffffffffffffffffffffffffffffff16908060040154905085565b60a06040519081016040528060008152602001600073ffffffffffffffffffffffffffffffffffffffff16815260200160008152602001600073ffffffffffffffffffffffffffffffffffffffff1681526020016000815250905600a165627a7a72305820845a2e77c8dee03a73609a0371859b5413b5ca919720aecda67e9d592100445e0029"
  }
}