{"compiler":"v0.8.7+commit.e28d00a7","opcodeHash":"0xaa616d1d07405264f50bfd5a19a723dc3ac886e07ab4b96c32c082b815c4ee9e","metalessHash":"0x648956bf82b645e2e426bcf2860d0b1e80d23bd0f3b846fd18b250aba707250f","runtimeHash":"0xa5e9fb4d596127d471f7f3e4c1ac9a2c6c1f6efda0adf78264319fda37725e62","encodedMetadata":[{"ipfs":"/ipfs/QmeWZPtWcvUmcT2ZWU8ypqxoC8yJxKXWiceRomj8zYu1f5","solc":"0.8.7"}],"abi":[{"inputs":[],"stateMutability":"nonpayable","type":"constructor"},{"anonymous":false,"inputs":[{"indexed":true,"internalType":"address","name":"owner","type":"address"},{"indexed":true,"internalType":"address","name":"approved","type":"address"},{"indexed":true,"internalType":"uint256","name":"tokenId","type":"uint256"}],"name":"Approval","type":"event"},{"anonymous":false,"inputs":[{"indexed":true,"internalType":"address","name":"owner","type":"address"},{"indexed":true,"internalType":"address","name":"operator","type":"address"},{"indexed":false,"internalType":"bool","name":"approved","type":"bool"}],"name":"ApprovalForAll","type":"event"},{"anonymous":false,"inputs":[{"indexed":true,"internalType":"uint256","name":"id","type":"uint256"}],"name":"CreatemuckNFT","type":"event"},{"anonymous":false,"inputs":[{"indexed":true,"internalType":"address","name":"previousOwner","type":"address"},{"indexed":true,"internalType":"address","name":"newOwner","type":"address"}],"name":"OwnershipTransferred","type":"event"},{"anonymous":false,"inputs":[{"indexed":true,"internalType":"address","name":"from","type":"address"},{"indexed":true,"internalType":"address","name":"to","type":"address"},{"indexed":true,"internalType":"uint256","name":"tokenId","type":"uint256"}],"name":"Transfer","type":"event"},{"inputs":[],"name":"MAX_ELEMENTS","outputs":[{"internalType":"uint256","name":"","type":"uint256"}],"stateMutability":"view","type":"function"},{"inputs":[],"name":"MINT_PRICE","outputs":[{"internalType":"uint256","name":"","type":"uint256"}],"stateMutability":"view","type":"function"},{"inputs":[],"name":"TotalMaxElements","outputs":[{"internalType":"string","name":"","type":"string"}],"stateMutability":"view","type":"function"},{"inputs":[{"internalType":"address","name":"to","type":"address"},{"internalType":"uint256","name":"tokenId","type":"uint256"}],"name":"approve","outputs":[],"stateMutability":"nonpayable","type":"function"},{"inputs":[{"internalType":"address","name":"owner","type":"address"}],"name":"balanceOf","outputs":[{"internalType":"uint256","name":"","type":"uint256"}],"stateMutability":"view","type":"function"},{"inputs":[],"name":"baseExtension","outputs":[{"internalType":"string","name":"","type":"string"}],"stateMutability":"view","type":"function"},{"inputs":[],"name":"baseTokenURI","outputs":[{"internalType":"string","name":"","type":"string"}],"stateMutability":"view","type":"function"},{"inputs":[{"internalType":"uint256","name":"_tokenId","type":"uint256"}],"name":"burn","outputs":[],"stateMutability":"nonpayable","type":"function"},{"inputs":[],"name":"creatorAddress","outputs":[{"internalType":"address","name":"","type":"address"}],"stateMutability":"view","type":"function"},{"inputs":[{"internalType":"uint256","name":"tokenId","type":"uint256"}],"name":"getApproved","outputs":[{"internalType":"address","name":"","type":"address"}],"stateMutability":"view","type":"function"},{"inputs":[{"internalType":"address","name":"owner","type":"address"},{"internalType":"address","name":"operator","type":"address"}],"name":"isApprovedForAll","outputs":[{"internalType":"bool","name":"","type":"bool"}],"stateMutability":"view","type":"function"},{"inputs":[{"internalType":"address","name":"_to","type":"address"},{"internalType":"uint256","name":"_count","type":"uint256"}],"name":"mint","outputs":[],"stateMutability":"payable","type":"function"},{"inputs":[],"name":"name","outputs":[{"internalType":"string","name":"","type":"string"}],"stateMutability":"view","type":"function"},{"inputs":[],"name":"owner","outputs":[{"internalType":"address","name":"","type":"address"}],"stateMutability":"view","type":"function"},{"inputs":[{"internalType":"uint256","name":"tokenId","type":"uint256"}],"name":"ownerOf","outputs":[{"internalType":"address","name":"","type":"address"}],"stateMutability":"view","type":"function"},{"inputs":[{"internalType":"uint256","name":"_count","type":"uint256"}],"name":"price","outputs":[{"internalType":"uint256","name":"","type":"uint256"}],"stateMutability":"pure","type":"function"},{"inputs":[],"name":"renounceOwnership","outputs":[],"stateMutability":"nonpayable","type":"function"},{"inputs":[{"internalType":"address","name":"from","type":"address"},{"internalType":"address","name":"to","type":"address"},{"internalType":"uint256","name":"tokenId","type":"uint256"}],"name":"safeTransferFrom","outputs":[],"stateMutability":"nonpayable","type":"function"},{"inputs":[{"internalType":"address","name":"from","type":"address"},{"internalType":"address","name":"to","type":"address"},{"internalType":"uint256","name":"tokenId","type":"uint256"},{"internalType":"bytes","name":"_data","type":"bytes"}],"name":"safeTransferFrom","outputs":[],"stateMutability":"nonpayable","type":"function"},{"inputs":[],"name":"sendEther","outputs":[],"stateMutability":"payable","type":"function"},{"inputs":[{"internalType":"address","name":"operator","type":"address"},{"internalType":"bool","name":"approved","type":"bool"}],"name":"setApprovalForAll","outputs":[],"stateMutability":"nonpayable","type":"function"},{"inputs":[{"internalType":"string","name":"baseURI","type":"string"}],"name":"setBaseURI","outputs":[],"stateMutability":"nonpayable","type":"function"},{"inputs":[{"internalType":"string","name":"MaxElements","type":"string"}],"name":"setMaxElements","outputs":[],"stateMutability":"nonpayable","type":"function"},{"inputs":[{"internalType":"bytes4","name":"interfaceId","type":"bytes4"}],"name":"supportsInterface","outputs":[{"internalType":"bool","name":"","type":"bool"}],"stateMutability":"view","type":"function"},{"inputs":[],"name":"symbol","outputs":[{"internalType":"string","name":"","type":"string"}],"stateMutability":"view","type":"function"},{"inputs":[{"internalType":"uint256","name":"_tokenId","type":"uint256"}],"name":"tokenURI","outputs":[{"internalType":"string","name":"","type":"string"}],"stateMutability":"view","type":"function"},{"inputs":[],"name":"totalBurned","outputs":[{"internalType":"uint256","name":"","type":"uint256"}],"stateMutability":"view","type":"function"},{"inputs":[],"name":"totalLeft","outputs":[{"internalType":"uint256","name":"","type":"uint256"}],"stateMutability":"view","type":"function"},{"inputs":[],"name":"totalMint","outputs":[{"internalType":"uint256","name":"","type":"uint256"}],"stateMutability":"view","type":"function"},{"inputs":[],"name":"totalSupply","outputs":[{"internalType":"uint256","name":"","type":"uint256"}],"stateMutability":"view","type":"function"},{"inputs":[],"name":"transIn","outputs":[],"stateMutability":"payable","type":"function"},{"inputs":[{"internalType":"address","name":"from","type":"address"},{"internalType":"address","name":"to","type":"address"},{"internalType":"uint256","name":"tokenId","type":"uint256"}],"name":"transferFrom","outputs":[],"stateMutability":"nonpayable","type":"function"},{"inputs":[{"internalType":"address","name":"newOwner","type":"address"}],"name":"transferOwnership","outputs":[],"stateMutability":"nonpayable","type":"function"}],"bytecode":{"object":"60c06040526005608081905264173539b7b760d91b60a09081526200002891600a91906200011e565b50610309600c553480156200003c57600080fd5b50604051806040016040528060048152602001634d75636b60e01b815250604051806040016040528060048152602001634d55434b60e01b81525081600090805190602001906200008f9291906200011e565b508051620000a59060019060208401906200011e565b505050620000c2620000bc620000c860201b60201c565b620000cc565b62000201565b3390565b600680546001600160a01b038381166001600160a01b0319831681179093556040519116919082907f8be0079c531659141344cd1fd0a4f28419497f9722a3daafe3b4186f6b6457e090600090a35050565b8280546200012c90620001c4565b90600052602060002090601f0160209004810192826200015057600085556200019b565b82601f106200016b57805160ff19168380011785556200019b565b828001600101855582156200019b579182015b828111156200019b5782518255916020019190600101906200017e565b50620001a9929150620001ad565b5090565b5b80821115620001a95760008155600101620001ae565b600181811c90821680620001d957607f821691505b60208210811415620001fb57634e487b7160e01b600052602260045260246000fd5b50919050565b611e7e80620002116000396000f3fe6080604052600436106101ee5760003560e01c80636352211e1161010d578063c6682862116100a0578063d547cfb71161006f578063d547cfb7146104fb578063d89135cd14610510578063e927fc5c14610525578063e985e9c51461054d578063f2fde38b1461059657600080fd5b8063c6682862146104a9578063c7720677146104be578063c87b56dd146104c6578063c9c50507146104e657600080fd5b806395d89b41116100dc57806395d89b4114610438578063a22cb4651461044d578063b88d4fde1461046d578063c002d23d1461048d57600080fd5b80636352211e146103c557806370a08231146103e5578063715018a6146104055780638da5cb5b1461041a57600080fd5b80632d04bba51161018557806342966c681161015457806342966c6814610370578063517770201461039057806355f804b3146103a557806359a7715a146102a457600080fd5b80632d04bba5146103075780633502a7161461032757806340c10f191461033d57806342842e0e1461035057600080fd5b80630e29df22116101c15780630e29df22146102a257806318160ddd146102a457806323b872dd146102c757806326a49e37146102e757600080fd5b806301ffc9a7146101f357806306fdde0314610228578063081812fc1461024a578063095ea7b314610282575b600080fd5b3480156101ff57600080fd5b5061021361020e366004611a25565b6105b6565b60405190151581526020015b60405180910390f35b34801561023457600080fd5b5061023d610608565b60405161021f9190611bf7565b34801561025657600080fd5b5061026a610265366004611aa8565b61069a565b6040516001600160a01b03909116815260200161021f565b34801561028e57600080fd5b506102a261029d3660046119fb565b610734565b005b3480156102b057600080fd5b506102b961084c565b60405190815260200161021f565b3480156102d357600080fd5b506102a26102e2366004611907565b61085b565b3480156102f357600080fd5b506102b9610302366004611aa8565b61088c565b34801561031357600080fd5b506102a2610322366004611a5f565b6108a0565b34801561033357600080fd5b506102b9600c5481565b6102a261034b3660046119fb565b6108e1565b34801561035c57600080fd5b506102a261036b366004611907565b610a3b565b34801561037c57600080fd5b506102a261038b366004611aa8565b610a56565b34801561039c57600080fd5b506102b9610ab8565b3480156103b157600080fd5b506102a26103c0366004611a5f565b610ad4565b3480156103d157600080fd5b5061026a6103e0366004611aa8565b610b11565b3480156103f157600080fd5b506102b96104003660046118b9565b610b88565b34801561041157600080fd5b506102a2610c0f565b34801561042657600080fd5b506006546001600160a01b031661026a565b34801561044457600080fd5b5061023d610c43565b34801561045957600080fd5b506102a26104683660046119bf565b610c52565b34801561047957600080fd5b506102a2610488366004611943565b610d17565b34801561049957600080fd5b506102b967011c37937e08000081565b3480156104b557600080fd5b5061023d610d49565b6102a2610dd7565b3480156104d257600080fd5b5061023d6104e1366004611aa8565b610e59565b3480156104f257600080fd5b5061023d610e90565b34801561050757600080fd5b5061023d610e9d565b34801561051c57600080fd5b506102b9610eaa565b34801561053157600080fd5b5061026a734d42592ce3526f0e6e78c318ddb542e594a2994181565b34801561055957600080fd5b506102136105683660046118d4565b6001600160a01b03918216600090815260056020908152604080832093909416825291909152205460ff1690565b3480156105a257600080fd5b506102a26105b13660046118b9565b610eb4565b60006001600160e01b031982166380ac58cd60e01b14806105e757506001600160e01b03198216635b5e139f60e01b145b8061060257506301ffc9a760e01b6001600160e01b03198316145b92915050565b60606000805461061790611d70565b80601f016020809104026020016040519081016040528092919081815260200182805461064390611d70565b80156106905780601f1061066557610100808354040283529160200191610690565b820191906000526020600020905b81548152906001019060200180831161067357829003601f168201915b5050505050905090565b6000818152600260205260408120546001600160a01b03166107185760405162461bcd60e51b815260206004820152602c60248201527f4552433732313a20617070726f76656420717565727920666f72206e6f6e657860448201526b34b9ba32b73a103a37b5b2b760a11b60648201526084015b60405180910390fd5b506000908152600460205260409020546001600160a01b031690565b600061073f82610b11565b9050806001600160a01b0316836001600160a01b031614156107ad5760405162461bcd60e51b815260206004820152602160248201527f4552433732313a20617070726f76616c20746f2063757272656e74206f776e656044820152603960f91b606482015260840161070f565b336001600160a01b03821614806107c957506107c98133610568565b61083b5760405162461bcd60e51b815260206004820152603860248201527f4552433732313a20617070726f76652063616c6c6572206973206e6f74206f7760448201527f6e6572206e6f7220617070726f76656420666f7220616c6c0000000000000000606482015260840161070f565b6108458383610f4c565b505050565b565b6000610856610fba565b905090565b6108653382610fc5565b6108815760405162461bcd60e51b815260040161070f90611c91565b6108458383836110bc565b600061060267011c37937e0800008361125c565b6006546001600160a01b031633146108ca5760405162461bcd60e51b815260040161070f90611c5c565b80516108dd90600b90602084019061178e565b5050565b600c546108ec610fba565b11156109255760405162461bcd60e51b815260206004820152600860248201526714d85b1948195b9960c21b604482015260640161070f565b600061092f610fba565b9050600a82111561093f57600080fd5b600c5461094c8383611ce2565b11156109865760405162461bcd60e51b815260206004820152600960248201526813585e081b1a5b5a5d60ba1b604482015260640161070f565b600c548111156109c35760405162461bcd60e51b815260206004820152600860248201526714d85b1948195b9960c21b604482015260640161070f565b6109cc8261088c565b341015610a0f5760405162461bcd60e51b815260206004820152601160248201527056616c75652062656c6f7720707269636560781b604482015260640161070f565b60005b82811015610a3557610a238461126f565b80610a2d81611dab565b915050610a12565b50505050565b61084583838360405180602001604052806000815250610d17565b33610a6082610b11565b6001600160a01b031614610a7357600080fd5b4780610a7e57600080fd5b610a8b3361dead846110bc565b6000610a95610ab8565b9050610aaa33610aa584846112c2565b6112ce565b610845600880546001019055565b6000610ac2611364565b610aca610fba565b6108569190611d2d565b6006546001600160a01b03163314610afe5760405162461bcd60e51b815260040161070f90611c5c565b80516108dd90600990602084019061178e565b6000818152600260205260408120546001600160a01b0316806106025760405162461bcd60e51b815260206004820152602960248201527f4552433732313a206f776e657220717565727920666f72206e6f6e657869737460448201526832b73a103a37b5b2b760b91b606482015260840161070f565b60006001600160a01b038216610bf35760405162461bcd60e51b815260206004820152602a60248201527f4552433732313a2062616c616e636520717565727920666f7220746865207a65604482015269726f206164647265737360b01b606482015260840161070f565b506001600160a01b031660009081526003602052604090205490565b6006546001600160a01b03163314610c395760405162461bcd60e51b815260040161070f90611c5c565b61084a600061136f565b60606001805461061790611d70565b6001600160a01b038216331415610cab5760405162461bcd60e51b815260206004820152601960248201527f4552433732313a20617070726f766520746f2063616c6c657200000000000000604482015260640161070f565b3360008181526005602090815260408083206001600160a01b03871680855290835292819020805460ff191686151590811790915590519081529192917f17307eab39ab6107e8899845ad3d59bd9653f200f220920489ca2b5937696c31910160405180910390a35050565b610d213383610fc5565b610d3d5760405162461bcd60e51b815260040161070f90611c91565b610a35848484846113c1565b600a8054610d5690611d70565b80601f0160208091040260200160405190810160405280929190818152602001828054610d8290611d70565b8015610dcf5780601f10610da457610100808354040283529160200191610dcf565b820191906000526020600020905b815481529060010190602001808311610db257829003601f168201915b505050505081565b6006546001600160a01b03163314610e015760405162461bcd60e51b815260040161070f90611c5c565b604051600090339047908381818185875af1925050503d8060008114610e43576040519150601f19603f3d011682016040523d82523d6000602084013e610e48565b606091505b5050905080610e5657600080fd5b50565b60606009610e66836113f4565b600a604051602001610e7a93929190611b87565b6040516020818303038152906040529050919050565b600b8054610d5690611d70565b60098054610d5690611d70565b6000610856611364565b6006546001600160a01b03163314610ede5760405162461bcd60e51b815260040161070f90611c5c565b6001600160a01b038116610f435760405162461bcd60e51b815260206004820152602660248201527f4f776e61626c653a206e6577206f776e657220697320746865207a65726f206160448201526564647265737360d01b606482015260840161070f565b610e568161136f565b600081815260046020526040902080546001600160a01b0319166001600160a01b0384169081179091558190610f8182610b11565b6001600160a01b03167f8c5be1e5ebec7d5bd14f71427d1e84f3dd0314c0f7b2291e5b200ac8c7c3b92560405160405180910390a45050565b600061085660075490565b6000818152600260205260408120546001600160a01b031661103e5760405162461bcd60e51b815260206004820152602c60248201527f4552433732313a206f70657261746f7220717565727920666f72206e6f6e657860448201526b34b9ba32b73a103a37b5b2b760a11b606482015260840161070f565b600061104983610b11565b9050806001600160a01b0316846001600160a01b031614806110845750836001600160a01b03166110798461069a565b6001600160a01b0316145b806110b457506001600160a01b0380821660009081526005602090815260408083209388168352929052205460ff165b949350505050565b826001600160a01b03166110cf82610b11565b6001600160a01b0316146111375760405162461bcd60e51b815260206004820152602960248201527f4552433732313a207472616e73666572206f6620746f6b656e2074686174206960448201526839903737ba1037bbb760b91b606482015260840161070f565b6001600160a01b0382166111995760405162461bcd60e51b8152602060048201526024808201527f4552433732313a207472616e7366657220746f20746865207a65726f206164646044820152637265737360e01b606482015260840161070f565b6111a4600082610f4c565b6001600160a01b03831660009081526003602052604081208054600192906111cd908490611d2d565b90915550506001600160a01b03821660009081526003602052604081208054600192906111fb908490611ce2565b909155505060008181526002602052604080822080546001600160a01b0319166001600160a01b0386811691821790925591518493918716917fddf252ad1be2c89b69c2b068fc378daa952ba7f163c4a11628f55a4df523b3ef91a4505050565b60006112688284611d0e565b9392505050565b6000611279610fba565b9050611289600780546001019055565b61129382826114f2565b60405181907f1b599859dfd65e687a70bfc36a3a3341e212882f660fbf90c70659a0affbc67e90600090a25050565b60006112688284611cfa565b6000826001600160a01b03168260405160006040518083038185875af1925050503d806000811461131b576040519150601f19603f3d011682016040523d82523d6000602084013e611320565b606091505b50509050806108455760405162461bcd60e51b815260206004820152601060248201526f2a3930b739b332b9103330b4b632b21760811b604482015260640161070f565b600061085660085490565b600680546001600160a01b038381166001600160a01b0319831681179093556040519116919082907f8be0079c531659141344cd1fd0a4f28419497f9722a3daafe3b4186f6b6457e090600090a35050565b6113cc8484846110bc565b6113d88484848461150c565b610a355760405162461bcd60e51b815260040161070f90611c0a565b6060816114185750506040805180820190915260018152600360fc1b602082015290565b8160005b8115611442578061142c81611dab565b915061143b9050600a83611cfa565b915061141c565b60008167ffffffffffffffff81111561145d5761145d611e1c565b6040519080825280601f01601f191660200182016040528015611487576020820181803683370190505b5090505b84156110b45761149c600183611d2d565b91506114a9600a86611dc6565b6114b4906030611ce2565b60f81b8183815181106114c9576114c9611e06565b60200101906001600160f81b031916908160001a9053506114eb600a86611cfa565b945061148b565b6108dd828260405180602001604052806000815250611619565b60006001600160a01b0384163b1561160e57604051630a85bd0160e11b81526001600160a01b0385169063150b7a0290611550903390899088908890600401611bba565b602060405180830381600087803b15801561156a57600080fd5b505af192505050801561159a575060408051601f3d908101601f1916820190925261159791810190611a42565b60015b6115f4573d8080156115c8576040519150601f19603f3d011682016040523d82523d6000602084013e6115cd565b606091505b5080516115ec5760405162461bcd60e51b815260040161070f90611c0a565b805181602001fd5b6001600160e01b031916630a85bd0160e11b1490506110b4565b506001949350505050565b611623838361164c565b611630600084848461150c565b6108455760405162461bcd60e51b815260040161070f90611c0a565b6001600160a01b0382166116a25760405162461bcd60e51b815260206004820181905260248201527f4552433732313a206d696e7420746f20746865207a65726f2061646472657373604482015260640161070f565b6000818152600260205260409020546001600160a01b0316156117075760405162461bcd60e51b815260206004820152601c60248201527f4552433732313a20746f6b656e20616c7265616479206d696e74656400000000604482015260640161070f565b6001600160a01b0382166000908152600360205260408120805460019290611730908490611ce2565b909155505060008181526002602052604080822080546001600160a01b0319166001600160a01b03861690811790915590518392907fddf252ad1be2c89b69c2b068fc378daa952ba7f163c4a11628f55a4df523b3ef908290a45050565b82805461179a90611d70565b90600052602060002090601f0160209004810192826117bc5760008555611802565b82601f106117d557805160ff1916838001178555611802565b82800160010185558215611802579182015b828111156118025782518255916020019190600101906117e7565b5061180e929150611812565b5090565b5b8082111561180e5760008155600101611813565b600067ffffffffffffffff8084111561184257611842611e1c565b604051601f8501601f19908116603f0116810190828211818310171561186a5761186a611e1c565b8160405280935085815286868601111561188357600080fd5b858560208301376000602087830101525050509392505050565b80356001600160a01b03811681146118b457600080fd5b919050565b6000602082840312156118cb57600080fd5b6112688261189d565b600080604083850312156118e757600080fd5b6118f08361189d565b91506118fe6020840161189d565b90509250929050565b60008060006060848603121561191c57600080fd5b6119258461189d565b92506119336020850161189d565b9150604084013590509250925092565b6000806000806080858703121561195957600080fd5b6119628561189d565b93506119706020860161189d565b925060408501359150606085013567ffffffffffffffff81111561199357600080fd5b8501601f810187136119a457600080fd5b6119b387823560208401611827565b91505092959194509250565b600080604083850312156119d257600080fd5b6119db8361189d565b9150602083013580151581146119f057600080fd5b809150509250929050565b60008060408385031215611a0e57600080fd5b611a178361189d565b946020939093013593505050565b600060208284031215611a3757600080fd5b813561126881611e32565b600060208284031215611a5457600080fd5b815161126881611e32565b600060208284031215611a7157600080fd5b813567ffffffffffffffff811115611a8857600080fd5b8201601f81018413611a9957600080fd5b6110b484823560208401611827565b600060208284031215611aba57600080fd5b5035919050565b60008151808452611ad9816020860160208601611d44565b601f01601f19169290920160200192915050565b8054600090600181811c9080831680611b0757607f831692505b6020808410821415611b2957634e487b7160e01b600052602260045260246000fd5b818015611b3d5760018114611b4e57611b7b565b60ff19861689528489019650611b7b565b60008881526020902060005b86811015611b735781548b820152908501908301611b5a565b505084890196505b50505050505092915050565b6000611b938286611aed565b8451611ba3818360208901611d44565b611baf81830186611aed565b979650505050505050565b6001600160a01b0385811682528416602082015260408101839052608060608201819052600090611bed90830184611ac1565b9695505050505050565b6020815260006112686020830184611ac1565b60208082526032908201527f4552433732313a207472616e7366657220746f206e6f6e20455243373231526560408201527131b2b4bb32b91034b6b83632b6b2b73a32b960711b606082015260800190565b6020808252818101527f4f776e61626c653a2063616c6c6572206973206e6f7420746865206f776e6572604082015260600190565b60208082526031908201527f4552433732313a207472616e736665722063616c6c6572206973206e6f74206f6040820152701ddb995c881b9bdc88185c1c1c9bdd9959607a1b606082015260800190565b60008219821115611cf557611cf5611dda565b500190565b600082611d0957611d09611df0565b500490565b6000816000190483118215151615611d2857611d28611dda565b500290565b600082821015611d3f57611d3f611dda565b500390565b60005b83811015611d5f578181015183820152602001611d47565b83811115610a355750506000910152565b600181811c90821680611d8457607f821691505b60208210811415611da557634e487b7160e01b600052602260045260246000fd5b50919050565b6000600019821415611dbf57611dbf611dda565b5060010190565b600082611dd557611dd5611df0565b500690565b634e487b7160e01b600052601160045260246000fd5b634e487b7160e01b600052601260045260246000fd5b634e487b7160e01b600052603260045260246000fd5b634e487b7160e01b600052604160045260246000fd5b6001600160e01b031981168114610e5657600080fdfea2646970667358221220bbdb045a5a3463ec4416ef59cd7f0aa11da1c9080b5d2e79a60febafda5620fe64736f6c63430008070033"}}