{
  "opcodeHash": "0x740080dfb51f7490a18f90c67184768a1291ba19a101078a18911a1c260d838b",
  "metalessHash": "0xa897f204034e4f16e40511f12c4c26d1caab89124c08d07fe55e6d2c39dbb247",
  "runtimeHash": "0xf76697096efac3892be9cf254ed47cb69b8465e2eb2ab7018b5dc49dc75ef53a",
  "encodedMetadata": [
    {
      "ipfs": "/ipfs/QmZ4YYuogP2ctJUJFpLAsH8QQF5JT1wTR5JkDYg9qD1QUj",
      "solc": "0.8.4"
    }
  ],
  "abi": [
    {
      "inputs": [],
      "stateMutability": "nonpayable",
      "type": "constructor"
    },
    {
      "anonymous": false,
      "inputs": [
        {
          "indexed": true,
          "internalType": "address",
          "name": "owner",
          "type": "address"
        },
        {
          "indexed": true,
          "internalType": "address",
          "name": "spender",
          "type": "address"
        },
        {
          "indexed": false,
          "internalType": "uint256",
          "name": "value",
          "type": "uint256"
        }
      ],
      "name": "Approval",
      "type": "event"
    },
    {
      "anonymous": false,
      "inputs": [
        {
          "indexed": false,
          "internalType": "uint256",
          "name": "_maxTxAmount",
          "type": "uint256"
        }
      ],
      "name": "MaxTxAmountUpdated",
      "type": "event"
    },
    {
      "anonymous": false,
      "inputs": [
        {
          "indexed": true,
          "internalType": "address",
          "name": "previousOwner",
          "type": "address"
        },
        {
          "indexed": true,
          "internalType": "address",
          "name": "newOwner",
          "type": "address"
        }
      ],
      "name": "OwnershipTransferred",
      "type": "event"
    },
    {
      "anonymous": false,
      "inputs": [
        {
          "indexed": true,
          "internalType": "address",
          "name": "from",
          "type": "address"
        },
        {
          "indexed": true,
          "internalType": "address",
          "name": "to",
          "type": "address"
        },
        {
          "indexed": false,
          "internalType": "uint256",
          "name": "value",
          "type": "uint256"
        }
      ],
      "name": "Transfer",
      "type": "event"
    },
    {
      "inputs": [],
      "name": "_maxTxAmount",
      "outputs": [
        {
          "internalType": "uint256",
          "name": "",
          "type": "uint256"
        }
      ],
      "stateMutability": "view",
      "type": "function"
    },
    {
      "inputs": [],
      "name": "_maxWalletSize",
      "outputs": [
        {
          "internalType": "uint256",
          "name": "",
          "type": "uint256"
        }
      ],
      "stateMutability": "view",
      "type": "function"
    },
    {
      "inputs": [],
      "name": "_swapTokensAtAmount",
      "outputs": [
        {
          "internalType": "uint256",
          "name": "",
          "type": "uint256"
        }
      ],
      "stateMutability": "view",
      "type": "function"
    },
    {
      "inputs": [
        {
          "internalType": "address",
          "name": "account",
          "type": "address"
        },
        {
          "internalType": "bool",
          "name": "allowed",
          "type": "bool"
        }
      ],
      "name": "allowPreTrading",
      "outputs": [],
      "stateMutability": "nonpayable",
      "type": "function"
    },
    {
      "inputs": [
        {
          "internalType": "address",
          "name": "owner",
          "type": "address"
        },
        {
          "internalType": "address",
          "name": "spender",
          "type": "address"
        }
      ],
      "name": "allowance",
      "outputs": [
        {
          "internalType": "uint256",
          "name": "",
          "type": "uint256"
        }
      ],
      "stateMutability": "view",
      "type": "function"
    },
    {
      "inputs": [
        {
          "internalType": "address",
          "name": "spender",
          "type": "address"
        },
        {
          "internalType": "uint256",
          "name": "amount",
          "type": "uint256"
        }
      ],
      "name": "approve",
      "outputs": [
        {
          "internalType": "bool",
          "name": "",
          "type": "bool"
        }
      ],
      "stateMutability": "nonpayable",
      "type": "function"
    },
    {
      "inputs": [
        {
          "internalType": "address",
          "name": "account",
          "type": "address"
        }
      ],
      "name": "balanceOf",
      "outputs": [
        {
          "internalType": "uint256",
          "name": "",
          "type": "uint256"
        }
      ],
      "stateMutability": "view",
      "type": "function"
    },
    {
      "inputs": [
        {
          "internalType": "address",
          "name": "",
          "type": "address"
        }
      ],
      "name": "bots",
      "outputs": [
        {
          "internalType": "bool",
          "name": "",
          "type": "bool"
        }
      ],
      "stateMutability": "view",
      "type": "function"
    },
    {
      "inputs": [],
      "name": "decimals",
      "outputs": [
        {
          "internalType": "uint8",
          "name": "",
          "type": "uint8"
        }
      ],
      "stateMutability": "pure",
      "type": "function"
    },
    {
      "inputs": [
        {
          "internalType": "address[]",
          "name": "accounts",
          "type": "address[]"
        },
        {
          "internalType": "bool",
          "name": "excluded",
          "type": "bool"
        }
      ],
      "name": "excludeMultipleAccountsFromFees",
      "outputs": [],
      "stateMutability": "nonpayable",
      "type": "function"
    },
    {
      "inputs": [],
      "name": "manualsend",
      "outputs": [],
      "stateMutability": "nonpayable",
      "type": "function"
    },
    {
      "inputs": [],
      "name": "manualswap",
      "outputs": [],
      "stateMutability": "nonpayable",
      "type": "function"
    },
    {
      "inputs": [],
      "name": "name",
      "outputs": [
        {
          "internalType": "string",
          "name": "",
          "type": "string"
        }
      ],
      "stateMutability": "pure",
      "type": "function"
    },
    {
      "inputs": [],
      "name": "owner",
      "outputs": [
        {
          "internalType": "address",
          "name": "",
          "type": "address"
        }
      ],
      "stateMutability": "view",
      "type": "function"
    },
    {
      "inputs": [
        {
          "internalType": "address[]",
          "name": "bots_",
          "type": "address[]"
        }
      ],
      "name": "plusbts",
      "outputs": [],
      "stateMutability": "nonpayable",
      "type": "function"
    },
    {
      "inputs": [
        {
          "internalType": "address",
          "name": "",
          "type": "address"
        }
      ],
      "name": "preTrader",
      "outputs": [
        {
          "internalType": "bool",
          "name": "",
          "type": "bool"
        }
      ],
      "stateMutability": "view",
      "type": "function"
    },
    {
      "inputs": [],
      "name": "renounceOwnership",
      "outputs": [],
      "stateMutability": "nonpayable",
      "type": "function"
    },
    {
      "inputs": [
        {
          "internalType": "uint256",
          "name": "redisFeeOnBuy",
          "type": "uint256"
        },
        {
          "internalType": "uint256",
          "name": "redisFeeOnSell",
          "type": "uint256"
        },
        {
          "internalType": "uint256",
          "name": "taxFeeOnBuy",
          "type": "uint256"
        },
        {
          "internalType": "uint256",
          "name": "taxFeeOnSell",
          "type": "uint256"
        }
      ],
      "name": "setFee",
      "outputs": [],
      "stateMutability": "nonpayable",
      "type": "function"
    },
    {
      "inputs": [
        {
          "internalType": "uint256",
          "name": "maxTxAmount",
          "type": "uint256"
        }
      ],
      "name": "setMaxTxnAmount",
      "outputs": [],
      "stateMutability": "nonpayable",
      "type": "function"
    },
    {
      "inputs": [
        {
          "internalType": "uint256",
          "name": "maxWalletSize",
          "type": "uint256"
        }
      ],
      "name": "setMaxWalletSize",
      "outputs": [],
      "stateMutability": "nonpayable",
      "type": "function"
    },
    {
      "inputs": [
        {
          "internalType": "uint256",
          "name": "swapTokensAtAmount",
          "type": "uint256"
        }
      ],
      "name": "setMinSwapTokensThreshold",
      "outputs": [],
      "stateMutability": "nonpayable",
      "type": "function"
    },
    {
      "inputs": [
        {
          "internalType": "bool",
          "name": "_tradingOpen",
          "type": "bool"
        }
      ],
      "name": "sttrd",
      "outputs": [],
      "stateMutability": "nonpayable",
      "type": "function"
    },
    {
      "inputs": [],
      "name": "symbol",
      "outputs": [
        {
          "internalType": "string",
          "name": "",
          "type": "string"
        }
      ],
      "stateMutability": "pure",
      "type": "function"
    },
    {
      "inputs": [
        {
          "internalType": "bool",
          "name": "_swapEnabled",
          "type": "bool"
        }
      ],
      "name": "toggleSwap",
      "outputs": [],
      "stateMutability": "nonpayable",
      "type": "function"
    },
    {
      "inputs": [],
      "name": "totalSupply",
      "outputs": [
        {
          "internalType": "uint256",
          "name": "",
          "type": "uint256"
        }
      ],
      "stateMutability": "pure",
      "type": "function"
    },
    {
      "inputs": [
        {
          "internalType": "address",
          "name": "recipient",
          "type": "address"
        },
        {
          "internalType": "uint256",
          "name": "amount",
          "type": "uint256"
        }
      ],
      "name": "transfer",
      "outputs": [
        {
          "internalType": "bool",
          "name": "",
          "type": "bool"
        }
      ],
      "stateMutability": "nonpayable",
      "type": "function"
    },
    {
      "inputs": [
        {
          "internalType": "address",
          "name": "sender",
          "type": "address"
        },
        {
          "internalType": "address",
          "name": "recipient",
          "type": "address"
        },
        {
          "internalType": "uint256",
          "name": "amount",
          "type": "uint256"
        }
      ],
      "name": "transferFrom",
      "outputs": [
        {
          "internalType": "bool",
          "name": "",
          "type": "bool"
        }
      ],
      "stateMutability": "nonpayable",
      "type": "function"
    },
    {
      "inputs": [
        {
          "internalType": "address",
          "name": "newOwner",
          "type": "address"
        }
      ],
      "name": "transferOwnership",
      "outputs": [],
      "stateMutability": "nonpayable",
      "type": "function"
    },
    {
      "inputs": [
        {
          "internalType": "address",
          "name": "notbot",
          "type": "address"
        }
      ],
      "name": "unblockBot",
      "outputs": [],
      "stateMutability": "nonpayable",
      "type": "function"
    },
    {
      "inputs": [],
      "name": "uniswapV2Pair",
      "outputs": [
        {
          "internalType": "address",
          "name": "",
          "type": "address"
        }
      ],
      "stateMutability": "view",
      "type": "function"
    },
    {
      "inputs": [],
      "name": "uniswapV2Router",
      "outputs": [
        {
          "internalType": "contract IUniswapV2Router02",
          "name": "",
          "type": "address"
        }
      ],
      "stateMutability": "view",
      "type": "function"
    },
    {
      "stateMutability": "payable",
      "type": "receive"
    }
  ],
  "bytecode": {
    "object": "608060405269021e19e0c9bab24000006000196200001e919062000925565b6000196200002d9190620008ac565b6006556001600855600c6009556001600a55600f600b55600a54600c55600b54600d55600c54600e55600d54600f5573e731421e20c98fea0ed32bdfe17b68ebb8f16620601360006101000a81548173ffffffffffffffffffffffffffffffffffffffff021916908373ffffffffffffffffffffffffffffffffffffffff16021790555073e731421e20c98fea0ed32bdfe17b68ebb8f16620601460006101000a81548173ffffffffffffffffffffffffffffffffffffffff021916908373ffffffffffffffffffffffffffffffffffffffff1602179055506001601660146101000a81548160ff0219169083151502179055506000601660156101000a81548160ff02191690831515021790555060016016806101000a81548160ff021916908315150217905550681b1ae4d6e2ef500000601755682086ac35105260000060185567016345785d8a00006019553480156200018957600080fd5b5060006200019c620007cc60201b60201c565b9050806000806101000a81548173ffffffffffffffffffffffffffffffffffffffff021916908373ffffffffffffffffffffffffffffffffffffffff1602179055508073ffffffffffffffffffffffffffffffffffffffff16600073ffffffffffffffffffffffffffffffffffffffff167f8be0079c531659141344cd1fd0a4f28419497f9722a3daafe3b4186f6b6457e060405160405180910390a3506006546002600062000251620007cc60201b60201c565b73ffffffffffffffffffffffffffffffffffffffff1673ffffffffffffffffffffffffffffffffffffffff168152602001908152602001600020819055506000737a250d5630b4cf539739df2c5dacb4c659f2488d905080601560006101000a81548173ffffffffffffffffffffffffffffffffffffffff021916908373ffffffffffffffffffffffffffffffffffffffff1602179055508073ffffffffffffffffffffffffffffffffffffffff1663c45a01556040518163ffffffff1660e01b815260040160206040518083038186803b1580156200033057600080fd5b505afa15801562000345573d6000803e3d6000fd5b505050506040513d601f19601f820116820180604052508101906200036b919062000814565b73ffffffffffffffffffffffffffffffffffffffff1663c9c65396308373ffffffffffffffffffffffffffffffffffffffff1663ad5c46486040518163ffffffff1660e01b815260040160206040518083038186803b158015620003ce57600080fd5b505afa158015620003e3573d6000803e3d6000fd5b505050506040513d601f19601f8201168201806040525081019062000409919062000814565b6040518363ffffffff1660e01b81526004016200042892919062000862565b602060405180830381600087803b1580156200044357600080fd5b505af115801562000458573d6000803e3d6000fd5b505050506040513d601f19601f820116820180604052508101906200047e919062000814565b601660006101000a81548173ffffffffffffffffffffffffffffffffffffffff021916908373ffffffffffffffffffffffffffffffffffffffff160217905550600160056000620004d4620007d460201b60201c565b73ffffffffffffffffffffffffffffffffffffffff1673ffffffffffffffffffffffffffffffffffffffff16815260200190815260200160002060006101000a81548160ff0219169083151502179055506001600560003073ffffffffffffffffffffffffffffffffffffffff1673ffffffffffffffffffffffffffffffffffffffff16815260200190815260200160002060006101000a81548160ff021916908315150217905550600160056000601360009054906101000a900473ffffffffffffffffffffffffffffffffffffffff1673ffffffffffffffffffffffffffffffffffffffff1673ffffffffffffffffffffffffffffffffffffffff16815260200190815260200160002060006101000a81548160ff021916908315150217905550600160056000601460009054906101000a900473ffffffffffffffffffffffffffffffffffffffff1673ffffffffffffffffffffffffffffffffffffffff1673ffffffffffffffffffffffffffffffffffffffff16815260200190815260200160002060006101000a81548160ff02191690831515021790555060016011600062000687620007d460201b60201c565b73ffffffffffffffffffffffffffffffffffffffff1673ffffffffffffffffffffffffffffffffffffffff16815260200190815260200160002060006101000a81548160ff0219169083151502179055506001601060007302e8935b5e4a6e532aa8ddb2c77b21692fadd07873ffffffffffffffffffffffffffffffffffffffff1673ffffffffffffffffffffffffffffffffffffffff16815260200190815260200160002060006101000a81548160ff02191690831515021790555062000754620007cc60201b60201c565b73ffffffffffffffffffffffffffffffffffffffff16600073ffffffffffffffffffffffffffffffffffffffff167fddf252ad1be2c89b69c2b068fc378daa952ba7f163c4a11628f55a4df523b3ef69021e19e0c9bab2400000604051620007bd91906200088f565b60405180910390a350620009d5565b600033905090565b60008060009054906101000a900473ffffffffffffffffffffffffffffffffffffffff16905090565b6000815190506200080e81620009bb565b92915050565b6000602082840312156200082757600080fd5b60006200083784828501620007fd565b91505092915050565b6200084b81620008e7565b82525050565b6200085c816200091b565b82525050565b600060408201905062000879600083018562000840565b62000888602083018462000840565b9392505050565b6000602082019050620008a6600083018462000851565b92915050565b6000620008b9826200091b565b9150620008c6836200091b565b925082821015620008dc57620008db6200095d565b5b828203905092915050565b6000620008f482620008fb565b9050919050565b600073ffffffffffffffffffffffffffffffffffffffff82169050919050565b6000819050919050565b600062000932826200091b565b91506200093f836200091b565b9250826200095257620009516200098c565b5b828206905092915050565b7f4e487b7100000000000000000000000000000000000000000000000000000000600052601160045260246000fd5b7f4e487b7100000000000000000000000000000000000000000000000000000000600052601260045260246000fd5b620009c681620008e7565b8114620009d257600080fd5b50565b61419680620009e56000396000f3fe6080604052600436106101dc5760003560e01c806374010ece11610102578063b1a3f41311610095578063c492f04611610064578063c492f04614610691578063dd62ed3e146106ba578063ea1644d5146106f7578063f2fde38b14610720576101e3565b8063b1a3f413146105d7578063bdd795ef14610600578063bfd792841461063d578063c3c8cd801461067a576101e3565b806395d89b41116100d157806395d89b411461051d57806398a5c31514610548578063a2a957bb14610571578063a9059cbb1461059a576101e3565b806374010ece146104735780637d1db4a51461049c5780638da5cb5b146104c75780638f9a55c0146104f2576101e3565b80632fd689e31161017a5780636d8aa8f8116101495780636d8aa8f8146103df5780636fc3eaec1461040857806370a082311461041f578063715018a61461045c576101e3565b80632fd689e314610335578063313ce5671461036057806349bd5a5e1461038b5780636b999053146103b6576101e3565b80631694505e116101b65780631694505e1461027957806318160ddd146102a457806323b872dd146102cf5780632f9c45691461030c576101e3565b806306fdde03146101e8578063095ea7b3146102135780630d3e2c5014610250576101e3565b366101e357005b600080fd5b3480156101f457600080fd5b506101fd610749565b60405161020a91906136c7565b60405180910390f35b34801561021f57600080fd5b5061023a600480360381019061023591906131c7565b610786565b6040516102479190613691565b60405180910390f35b34801561025c57600080fd5b506102776004803603810190610272919061325b565b6107a4565b005b34801561028557600080fd5b5061028e6108f4565b60405161029b91906136ac565b60405180910390f35b3480156102b057600080fd5b506102b961091a565b6040516102c691906138c9565b60405180910390f35b3480156102db57600080fd5b506102f660048036038101906102f1919061313c565b61092c565b6040516103039190613691565b60405180910390f35b34801561031857600080fd5b50610333600480360381019061032e919061318b565b610a05565b005b34801561034157600080fd5b5061034a610b88565b60405161035791906138c9565b60405180910390f35b34801561036c57600080fd5b50610375610b8e565b604051610382919061393e565b60405180910390f35b34801561039757600080fd5b506103a0610b97565b6040516103ad9190613676565b60405180910390f35b3480156103c257600080fd5b506103dd60048036038101906103d891906130ae565b610bbd565b005b3480156103eb57600080fd5b506104066004803603810190610401919061329c565b610cad565b005b34801561041457600080fd5b5061041d610d5e565b005b34801561042b57600080fd5b50610446600480360381019061044191906130ae565b610e2f565b60405161045391906138c9565b60405180910390f35b34801561046857600080fd5b50610471610e80565b005b34801561047f57600080fd5b5061049a600480360381019061049591906132c5565b610fd3565b005b3480156104a857600080fd5b506104b1611072565b6040516104be91906138c9565b60405180910390f35b3480156104d357600080fd5b506104dc611078565b6040516104e99190613676565b60405180910390f35b3480156104fe57600080fd5b506105076110a1565b60405161051491906138c9565b60405180910390f35b34801561052957600080fd5b506105326110a7565b60405161053f91906136c7565b60405180910390f35b34801561055457600080fd5b5061056f600480360381019061056a91906132c5565b6110e4565b005b34801561057d57600080fd5b50610598600480360381019061059391906132ee565b611183565b005b3480156105a657600080fd5b506105c160048036038101906105bc91906131c7565b61123a565b6040516105ce9190613691565b60405180910390f35b3480156105e357600080fd5b506105fe60048036038101906105f9919061329c565b611258565b005b34801561060c57600080fd5b50610627600480360381019061062291906130ae565b61130a565b6040516106349190613691565b60405180910390f35b34801561064957600080fd5b50610664600480360381019061065f91906130ae565b61132a565b6040516106719190613691565b60405180910390f35b34801561068657600080fd5b5061068f61134a565b005b34801561069d57600080fd5b506106b860048036038101906106b39190613203565b611423565b005b3480156106c657600080fd5b506106e160048036038101906106dc9190613100565b611583565b6040516106ee91906138c9565b60405180910390f35b34801561070357600080fd5b5061071e600480360381019061071991906132c5565b61160a565b005b34801561072c57600080fd5b50610747600480360381019061074291906130ae565b6116a9565b005b60606040518060400160405280600b81526020017f4d61737465727920494e55000000000000000000000000000000000000000000815250905090565b600061079a61079361186b565b8484611873565b6001905092915050565b6107ac61186b565b73ffffffffffffffffffffffffffffffffffffffff1660008054906101000a900473ffffffffffffffffffffffffffffffffffffffff1673ffffffffffffffffffffffffffffffffffffffff1614610839576040517f08c379a000000000000000000000000000000000000000000000000000000000815260040161083090613829565b60405180910390fd5b60005b81518110156108f057600160106000848481518110610884577f4e487b7100000000000000000000000000000000000000000000000000000000600052603260045260246000fd5b602002602001015173ffffffffffffffffffffffffffffffffffffffff1673ffffffffffffffffffffffffffffffffffffffff16815260200190815260200160002060006101000a81548160ff02191690831515021790555080806108e890613c03565b91505061083c565b5050565b601560009054906101000a900473ffffffffffffffffffffffffffffffffffffffff1681565b600069021e19e0c9bab2400000905090565b6000610939848484611a3e565b6109fa8461094561186b565b6109f58560405180606001604052806028815260200161413960289139600460008b73ffffffffffffffffffffffffffffffffffffffff1673ffffffffffffffffffffffffffffffffffffffff16815260200190815260200160002060006109ab61186b565b73ffffffffffffffffffffffffffffffffffffffff1673ffffffffffffffffffffffffffffffffffffffff168152602001908152602001600020546123869092919063ffffffff16565b611873565b600190509392505050565b610a0d61186b565b73ffffffffffffffffffffffffffffffffffffffff1660008054906101000a900473ffffffffffffffffffffffffffffffffffffffff1673ffffffffffffffffffffffffffffffffffffffff1614610a9a576040517f08c379a0000000000000000000000000000000000000000000000000000000008152600401610a9190613829565b60405180910390fd5b801515601160008473ffffffffffffffffffffffffffffffffffffffff1673ffffffffffffffffffffffffffffffffffffffff16815260200190815260200160002060009054906101000a900460ff1615151415610b2d576040517f08c379a0000000000000000000000000000000000000000000000000000000008152600401610b24906137e9565b60405180910390fd5b80601160008473ffffffffffffffffffffffffffffffffffffffff1673ffffffffffffffffffffffffffffffffffffffff16815260200190815260200160002060006101000a81548160ff0219169083151502179055505050565b60195481565b60006009905090565b601660009054906101000a900473ffffffffffffffffffffffffffffffffffffffff1681565b610bc561186b565b73ffffffffffffffffffffffffffffffffffffffff1660008054906101000a900473ffffffffffffffffffffffffffffffffffffffff1673ffffffffffffffffffffffffffffffffffffffff1614610c52576040517f08c379a0000000000000000000000000000000000000000000000000000000008152600401610c4990613829565b60405180910390fd5b6000601060008373ffffffffffffffffffffffffffffffffffffffff1673ffffffffffffffffffffffffffffffffffffffff16815260200190815260200160002060006101000a81548160ff02191690831515021790555050565b610cb561186b565b73ffffffffffffffffffffffffffffffffffffffff1660008054906101000a900473ffffffffffffffffffffffffffffffffffffffff1673ffffffffffffffffffffffffffffffffffffffff1614610d42576040517f08c379a0000000000000000000000000000000000000000000000000000000008152600401610d3990613829565b60405180910390fd5b806016806101000a81548160ff02191690831515021790555050565b601360009054906101000a900473ffffffffffffffffffffffffffffffffffffffff1673ffffffffffffffffffffffffffffffffffffffff16610d9f61186b565b73ffffffffffffffffffffffffffffffffffffffff161480610e155750601460009054906101000a900473ffffffffffffffffffffffffffffffffffffffff1673ffffffffffffffffffffffffffffffffffffffff16610dfd61186b565b73ffffffffffffffffffffffffffffffffffffffff16145b610e1e57600080fd5b6000479050610e2c816123ea565b50565b6000610e79600260008473ffffffffffffffffffffffffffffffffffffffff1673ffffffffffffffffffffffffffffffffffffffff168152602001908152602001600020546124e5565b9050919050565b610e8861186b565b73ffffffffffffffffffffffffffffffffffffffff1660008054906101000a900473ffffffffffffffffffffffffffffffffffffffff1673ffffffffffffffffffffffffffffffffffffffff1614610f15576040517f08c379a0000000000000000000000000000000000000000000000000000000008152600401610f0c90613829565b60405180910390fd5b600073ffffffffffffffffffffffffffffffffffffffff1660008054906101000a900473ffffffffffffffffffffffffffffffffffffffff1673ffffffffffffffffffffffffffffffffffffffff167f8be0079c531659141344cd1fd0a4f28419497f9722a3daafe3b4186f6b6457e060405160405180910390a360008060006101000a81548173ffffffffffffffffffffffffffffffffffffffff021916908373ffffffffffffffffffffffffffffffffffffffff160217905550565b610fdb61186b565b73ffffffffffffffffffffffffffffffffffffffff1660008054906101000a900473ffffffffffffffffffffffffffffffffffffffff1673ffffffffffffffffffffffffffffffffffffffff1614611068576040517f08c379a000000000000000000000000000000000000000000000000000000000815260040161105f90613829565b60405180910390fd5b8060178190555050565b60175481565b60008060009054906101000a900473ffffffffffffffffffffffffffffffffffffffff16905090565b60185481565b60606040518060400160405280600a81526020017f4d617374657279494e5500000000000000000000000000000000000000000000815250905090565b6110ec61186b565b73ffffffffffffffffffffffffffffffffffffffff1660008054906101000a900473ffffffffffffffffffffffffffffffffffffffff1673ffffffffffffffffffffffffffffffffffffffff1614611179576040517f08c379a000000000000000000000000000000000000000000000000000000000815260040161117090613829565b60405180910390fd5b8060198190555050565b61118b61186b565b73ffffffffffffffffffffffffffffffffffffffff1660008054906101000a900473ffffffffffffffffffffffffffffffffffffffff1673ffffffffffffffffffffffffffffffffffffffff1614611218576040517f08c379a000000000000000000000000000000000000000000000000000000000815260040161120f90613829565b60405180910390fd5b8360088190555082600a819055508160098190555080600b8190555050505050565b600061124e61124761186b565b8484611a3e565b6001905092915050565b61126061186b565b73ffffffffffffffffffffffffffffffffffffffff1660008054906101000a900473ffffffffffffffffffffffffffffffffffffffff1673ffffffffffffffffffffffffffffffffffffffff16146112ed576040517f08c379a00000000000000000000000000000000000000000000000000000000081526004016112e490613829565b60405180910390fd5b80601660146101000a81548160ff02191690831515021790555050565b60116020528060005260406000206000915054906101000a900460ff1681565b60106020528060005260406000206000915054906101000a900460ff1681565b601360009054906101000a900473ffffffffffffffffffffffffffffffffffffffff1673ffffffffffffffffffffffffffffffffffffffff1661138b61186b565b73ffffffffffffffffffffffffffffffffffffffff1614806114015750601460009054906101000a900473ffffffffffffffffffffffffffffffffffffffff1673ffffffffffffffffffffffffffffffffffffffff166113e961186b565b73ffffffffffffffffffffffffffffffffffffffff16145b61140a57600080fd5b600061141530610e2f565b905061142081612553565b50565b61142b61186b565b73ffffffffffffffffffffffffffffffffffffffff1660008054906101000a900473ffffffffffffffffffffffffffffffffffffffff1673ffffffffffffffffffffffffffffffffffffffff16146114b8576040517f08c379a00000000000000000000000000000000000000000000000000000000081526004016114af90613829565b60405180910390fd5b60005b8383905081101561157d578160056000868685818110611504577f4e487b7100000000000000000000000000000000000000000000000000000000600052603260045260246000fd5b905060200201602081019061151991906130ae565b73ffffffffffffffffffffffffffffffffffffffff1673ffffffffffffffffffffffffffffffffffffffff16815260200190815260200160002060006101000a81548160ff021916908315150217905550808061157590613c03565b9150506114bb565b50505050565b6000600460008473ffffffffffffffffffffffffffffffffffffffff1673ffffffffffffffffffffffffffffffffffffffff16815260200190815260200160002060008373ffffffffffffffffffffffffffffffffffffffff1673ffffffffffffffffffffffffffffffffffffffff16815260200190815260200160002054905092915050565b61161261186b565b73ffffffffffffffffffffffffffffffffffffffff1660008054906101000a900473ffffffffffffffffffffffffffffffffffffffff1673ffffffffffffffffffffffffffffffffffffffff161461169f576040517f08c379a000000000000000000000000000000000000000000000000000000000815260040161169690613829565b60405180910390fd5b8060188190555050565b6116b161186b565b73ffffffffffffffffffffffffffffffffffffffff1660008054906101000a900473ffffffffffffffffffffffffffffffffffffffff1673ffffffffffffffffffffffffffffffffffffffff161461173e576040517f08c379a000000000000000000000000000000000000000000000000000000000815260040161173590613829565b60405180910390fd5b600073ffffffffffffffffffffffffffffffffffffffff168173ffffffffffffffffffffffffffffffffffffffff1614156117ae576040517f08c379a00000000000000000000000000000000000000000000000000000000081526004016117a590613769565b60405180910390fd5b8073ffffffffffffffffffffffffffffffffffffffff1660008054906101000a900473ffffffffffffffffffffffffffffffffffffffff1673ffffffffffffffffffffffffffffffffffffffff167f8be0079c531659141344cd1fd0a4f28419497f9722a3daafe3b4186f6b6457e060405160405180910390a3806000806101000a81548173ffffffffffffffffffffffffffffffffffffffff021916908373ffffffffffffffffffffffffffffffffffffffff16021790555050565b600033905090565b600073ffffffffffffffffffffffffffffffffffffffff168373ffffffffffffffffffffffffffffffffffffffff1614156118e3576040517f08c379a00000000000000000000000000000000000000000000000000000000081526004016118da906138a9565b60405180910390fd5b600073ffffffffffffffffffffffffffffffffffffffff168273ffffffffffffffffffffffffffffffffffffffff161415611953576040517f08c379a000000000000000000000000000000000000000000000000000000000815260040161194a90613789565b60405180910390fd5b80600460008573ffffffffffffffffffffffffffffffffffffffff1673ffffffffffffffffffffffffffffffffffffffff16815260200190815260200160002060008473ffffffffffffffffffffffffffffffffffffffff1673ffffffffffffffffffffffffffffffffffffffff168152602001908152602001600020819055508173ffffffffffffffffffffffffffffffffffffffff168373ffffffffffffffffffffffffffffffffffffffff167f8c5be1e5ebec7d5bd14f71427d1e84f3dd0314c0f7b2291e5b200ac8c7c3b92583604051611a3191906138c9565b60405180910390a3505050565b600073ffffffffffffffffffffffffffffffffffffffff168373ffffffffffffffffffffffffffffffffffffffff161415611aae576040517f08c379a0000000000000000000000000000000000000000000000000000000008152600401611aa590613869565b60405180910390fd5b600073ffffffffffffffffffffffffffffffffffffffff168273ffffffffffffffffffffffffffffffffffffffff161415611b1e576040517f08c379a0000000000000000000000000000000000000000000000000000000008152600401611b15906136e9565b60405180910390fd5b60008111611b61576040517f08c379a0000000000000000000000000000000000000000000000000000000008152600401611b5890613849565b60405180910390fd5b611b69611078565b73ffffffffffffffffffffffffffffffffffffffff168373ffffffffffffffffffffffffffffffffffffffff1614158015611bd75750611ba7611078565b73ffffffffffffffffffffffffffffffffffffffff168273ffffffffffffffffffffffffffffffffffffffff1614155b8015611c2d5750601160008473ffffffffffffffffffffffffffffffffffffffff1673ffffffffffffffffffffffffffffffffffffffff16815260200190815260200160002060009054906101000a900460ff16155b8015611c835750601160008373ffffffffffffffffffffffffffffffffffffffff1673ffffffffffffffffffffffffffffffffffffffff16815260200190815260200160002060009054906101000a900460ff16155b1561208557601660149054906101000a900460ff16611d2957601160008473ffffffffffffffffffffffffffffffffffffffff1673ffffffffffffffffffffffffffffffffffffffff16815260200190815260200160002060009054906101000a900460ff16611d28576040517f08c379a0000000000000000000000000000000000000000000000000000000008152600401611d1f90613709565b60405180910390fd5b5b601754811115611d6e576040517f08c379a0000000000000000000000000000000000000000000000000000000008152600401611d6590613749565b60405180910390fd5b601060008473ffffffffffffffffffffffffffffffffffffffff1673ffffffffffffffffffffffffffffffffffffffff16815260200190815260200160002060009054906101000a900460ff16158015611e125750601060008373ffffffffffffffffffffffffffffffffffffffff1673ffffffffffffffffffffffffffffffffffffffff16815260200190815260200160002060009054906101000a900460ff16155b611e51576040517f08c379a0000000000000000000000000000000000000000000000000000000008152600401611e48906137a9565b60405180910390fd5b601660009054906101000a900473ffffffffffffffffffffffffffffffffffffffff1673ffffffffffffffffffffffffffffffffffffffff168273ffffffffffffffffffffffffffffffffffffffff1614611efe5760185481611eb384610e2f565b611ebd91906139ff565b10611efd576040517f08c379a0000000000000000000000000000000000000000000000000000000008152600401611ef490613889565b60405180910390fd5b5b6000611f0930610e2f565b9050600060195482101590506017548210611f245760175491505b808015611f3e5750601660159054906101000a900460ff16155b8015611f985750601660009054906101000a900473ffffffffffffffffffffffffffffffffffffffff1673ffffffffffffffffffffffffffffffffffffffff168573ffffffffffffffffffffffffffffffffffffffff1614155b8015611fae575060168054906101000a900460ff165b80156120045750600560008673ffffffffffffffffffffffffffffffffffffffff1673ffffffffffffffffffffffffffffffffffffffff16815260200190815260200160002060009054906101000a900460ff16155b801561205a5750600560008573ffffffffffffffffffffffffffffffffffffffff1673ffffffffffffffffffffffffffffffffffffffff16815260200190815260200160002060009054906101000a900460ff16155b156120825761206882612553565b600047905060008111156120805761207f476123ea565b5b505b50505b600060019050600560008573ffffffffffffffffffffffffffffffffffffffff1673ffffffffffffffffffffffffffffffffffffffff16815260200190815260200160002060009054906101000a900460ff168061212c5750600560008473ffffffffffffffffffffffffffffffffffffffff1673ffffffffffffffffffffffffffffffffffffffff16815260200190815260200160002060009054906101000a900460ff165b806121df5750601660009054906101000a900473ffffffffffffffffffffffffffffffffffffffff1673ffffffffffffffffffffffffffffffffffffffff168473ffffffffffffffffffffffffffffffffffffffff16141580156121de5750601660009054906101000a900473ffffffffffffffffffffffffffffffffffffffff1673ffffffffffffffffffffffffffffffffffffffff168373ffffffffffffffffffffffffffffffffffffffff1614155b5b156121ed5760009050612374565b601660009054906101000a900473ffffffffffffffffffffffffffffffffffffffff1673ffffffffffffffffffffffffffffffffffffffff168473ffffffffffffffffffffffffffffffffffffffff161480156122985750601560009054906101000a900473ffffffffffffffffffffffffffffffffffffffff1673ffffffffffffffffffffffffffffffffffffffff168373ffffffffffffffffffffffffffffffffffffffff1614155b156122b057600854600c81905550600954600d819055505b601660009054906101000a900473ffffffffffffffffffffffffffffffffffffffff1673ffffffffffffffffffffffffffffffffffffffff168373ffffffffffffffffffffffffffffffffffffffff1614801561235b5750601560009054906101000a900473ffffffffffffffffffffffffffffffffffffffff1673ffffffffffffffffffffffffffffffffffffffff168473ffffffffffffffffffffffffffffffffffffffff1614155b1561237357600a54600c81905550600b54600d819055505b5b6123808484848461284d565b50505050565b60008383111582906123ce576040517f08c379a00000000000000000000000000000000000000000000000000000000081526004016123c591906136c7565b60405180910390fd5b50600083856123dd9190613ae0565b9050809150509392505050565b601360009054906101000a900473ffffffffffffffffffffffffffffffffffffffff1673ffffffffffffffffffffffffffffffffffffffff166108fc61243a60028461287a90919063ffffffff16565b9081150290604051600060405180830381858888f19350505050158015612465573d6000803e3d6000fd5b50601460009054906101000a900473ffffffffffffffffffffffffffffffffffffffff1673ffffffffffffffffffffffffffffffffffffffff166108fc6124b660028461287a90919063ffffffff16565b9081150290604051600060405180830381858888f193505050501580156124e1573d6000803e3d6000fd5b5050565b600060065482111561252c576040517f08c379a000000000000000000000000000000000000000000000000000000000815260040161252390613729565b60405180910390fd5b60006125366128c4565b905061254b818461287a90919063ffffffff16565b915050919050565b6001601660156101000a81548160ff0219169083151502179055506000600267ffffffffffffffff8111156125b1577f4e487b7100000000000000000000000000000000000000000000000000000000600052604160045260246000fd5b6040519080825280602002602001820160405280156125df5781602001602082028036833780820191505090505b509050308160008151811061261d577f4e487b7100000000000000000000000000000000000000000000000000000000600052603260045260246000fd5b602002602001019073ffffffffffffffffffffffffffffffffffffffff16908173ffffffffffffffffffffffffffffffffffffffff1681525050601560009054906101000a900473ffffffffffffffffffffffffffffffffffffffff1673ffffffffffffffffffffffffffffffffffffffff1663ad5c46486040518163ffffffff1660e01b815260040160206040518083038186803b1580156126bf57600080fd5b505afa1580156126d3573d6000803e3d6000fd5b505050506040513d601f19601f820116820180604052508101906126f791906130d7565b81600181518110612731577f4e487b7100000000000000000000000000000000000000000000000000000000600052603260045260246000fd5b602002602001019073ffffffffffffffffffffffffffffffffffffffff16908173ffffffffffffffffffffffffffffffffffffffff168152505061279830601560009054906101000a900473ffffffffffffffffffffffffffffffffffffffff1684611873565b601560009054906101000a900473ffffffffffffffffffffffffffffffffffffffff1673ffffffffffffffffffffffffffffffffffffffff1663791ac9478360008430426040518663ffffffff1660e01b81526004016127fc9594939291906138e4565b600060405180830381600087803b15801561281657600080fd5b505af115801561282a573d6000803e3d6000fd5b50505050506000601660156101000a81548160ff02191690831515021790555050565b8061285b5761285a6128ef565b5b612866848484612932565b8061287457612873612afd565b5b50505050565b60006128bc83836040518060400160405280601a81526020017f536166654d6174683a206469766973696f6e206279207a65726f000000000000815250612b11565b905092915050565b60008060006128d1612b74565b915091506128e8818361287a90919063ffffffff16565b9250505090565b6000600c5414801561290357506000600d54145b1561290d57612930565b600c54600e81905550600d54600f819055506000600c819055506000600d819055505b565b60008060008060008061294487612bd9565b9550955095509550955095506129a286600260008c73ffffffffffffffffffffffffffffffffffffffff1673ffffffffffffffffffffffffffffffffffffffff16815260200190815260200160002054612c4190919063ffffffff16565b600260008b73ffffffffffffffffffffffffffffffffffffffff1673ffffffffffffffffffffffffffffffffffffffff16815260200190815260200160002081905550612a3785600260008b73ffffffffffffffffffffffffffffffffffffffff1673ffffffffffffffffffffffffffffffffffffffff16815260200190815260200160002054612c8b90919063ffffffff16565b600260008a73ffffffffffffffffffffffffffffffffffffffff1673ffffffffffffffffffffffffffffffffffffffff16815260200190815260200160002081905550612a8381612ce9565b612a8d8483612da6565b8773ffffffffffffffffffffffffffffffffffffffff168973ffffffffffffffffffffffffffffffffffffffff167fddf252ad1be2c89b69c2b068fc378daa952ba7f163c4a11628f55a4df523b3ef85604051612aea91906138c9565b60405180910390a3505050505050505050565b600e54600c81905550600f54600d81905550565b60008083118290612b58576040517f08c379a0000000000000000000000000000000000000000000000000000000008152600401612b4f91906136c7565b60405180910390fd5b5060008385612b679190613a55565b9050809150509392505050565b60008060006006549050600069021e19e0c9bab24000009050612bac69021e19e0c9bab240000060065461287a90919063ffffffff16565b821015612bcc5760065469021e19e0c9bab2400000935093505050612bd5565b81819350935050505b9091565b6000806000806000806000806000612bf68a600c54600d54612de0565b9250925092506000612c066128c4565b90506000806000612c198e878787612e76565b9250925092508282828989899c509c509c509c509c509c505050505050505091939550919395565b6000612c8383836040518060400160405280601e81526020017f536166654d6174683a207375627472616374696f6e206f766572666c6f770000815250612386565b905092915050565b6000808284612c9a91906139ff565b905083811015612cdf576040517f08c379a0000000000000000000000000000000000000000000000000000000008152600401612cd6906137c9565b60405180910390fd5b8091505092915050565b6000612cf36128c4565b90506000612d0a8284612eff90919063ffffffff16565b9050612d5e81600260003073ffffffffffffffffffffffffffffffffffffffff1673ffffffffffffffffffffffffffffffffffffffff16815260200190815260200160002054612c8b90919063ffffffff16565b600260003073ffffffffffffffffffffffffffffffffffffffff1673ffffffffffffffffffffffffffffffffffffffff16815260200190815260200160002081905550505050565b612dbb82600654612c4190919063ffffffff16565b600681905550612dd681600754612c8b90919063ffffffff16565b6007819055505050565b600080600080612e0c6064612dfe888a612eff90919063ffffffff16565b61287a90919063ffffffff16565b90506000612e366064612e28888b612eff90919063ffffffff16565b61287a90919063ffffffff16565b90506000612e5f82612e51858c612c4190919063ffffffff16565b612c4190919063ffffffff16565b905080838395509550955050505093509350939050565b600080600080612e8f8589612eff90919063ffffffff16565b90506000612ea68689612eff90919063ffffffff16565b90506000612ebd8789612eff90919063ffffffff16565b90506000612ee682612ed88587612c4190919063ffffffff16565b612c4190919063ffffffff16565b9050838184965096509650505050509450945094915050565b600080831415612f125760009050612f74565b60008284612f209190613a86565b9050828482612f2f9190613a55565b14612f6f576040517f08c379a0000000000000000000000000000000000000000000000000000000008152600401612f6690613809565b60405180910390fd5b809150505b92915050565b6000612f8d612f888461397e565b613959565b90508083825260208201905082856020860282011115612fac57600080fd5b60005b85811015612fdc5781612fc28882612fe6565b845260208401935060208301925050600181019050612faf565b5050509392505050565b600081359050612ff5816140f3565b92915050565b60008151905061300a816140f3565b92915050565b60008083601f84011261302257600080fd5b8235905067ffffffffffffffff81111561303b57600080fd5b60208301915083602082028301111561305357600080fd5b9250929050565b600082601f83011261306b57600080fd5b813561307b848260208601612f7a565b91505092915050565b6000813590506130938161410a565b92915050565b6000813590506130a881614121565b92915050565b6000602082840312156130c057600080fd5b60006130ce84828501612fe6565b91505092915050565b6000602082840312156130e957600080fd5b60006130f784828501612ffb565b91505092915050565b6000806040838503121561311357600080fd5b600061312185828601612fe6565b925050602061313285828601612fe6565b9150509250929050565b60008060006060848603121561315157600080fd5b600061315f86828701612fe6565b935050602061317086828701612fe6565b925050604061318186828701613099565b9150509250925092565b6000806040838503121561319e57600080fd5b60006131ac85828601612fe6565b92505060206131bd85828601613084565b9150509250929050565b600080604083850312156131da57600080fd5b60006131e885828601612fe6565b92505060206131f985828601613099565b9150509250929050565b60008060006040848603121561321857600080fd5b600084013567ffffffffffffffff81111561323257600080fd5b61323e86828701613010565b9350935050602061325186828701613084565b9150509250925092565b60006020828403121561326d57600080fd5b600082013567ffffffffffffffff81111561328757600080fd5b6132938482850161305a565b91505092915050565b6000602082840312156132ae57600080fd5b60006132bc84828501613084565b91505092915050565b6000602082840312156132d757600080fd5b60006132e584828501613099565b91505092915050565b6000806000806080858703121561330457600080fd5b600061331287828801613099565b945050602061332387828801613099565b935050604061333487828801613099565b925050606061334587828801613099565b91505092959194509250565b600061335d8383613369565b60208301905092915050565b61337281613b14565b82525050565b61338181613b14565b82525050565b6000613392826139ba565b61339c81856139dd565b93506133a7836139aa565b8060005b838110156133d85781516133bf8882613351565b97506133ca836139d0565b9250506001810190506133ab565b5085935050505092915050565b6133ee81613b26565b82525050565b6133fd81613b69565b82525050565b61340c81613b8d565b82525050565b600061341d826139c5565b61342781856139ee565b9350613437818560208601613b9f565b61344081613cd9565b840191505092915050565b60006134586023836139ee565b915061346382613cea565b604082019050919050565b600061347b603f836139ee565b915061348682613d39565b604082019050919050565b600061349e602a836139ee565b91506134a982613d88565b604082019050919050565b60006134c1601c836139ee565b91506134cc82613dd7565b602082019050919050565b60006134e46026836139ee565b91506134ef82613e00565b604082019050919050565b60006135076022836139ee565b915061351282613e4f565b604082019050919050565b600061352a6023836139ee565b915061353582613e9e565b604082019050919050565b600061354d601b836139ee565b915061355882613eed565b602082019050919050565b60006135706017836139ee565b915061357b82613f16565b602082019050919050565b60006135936021836139ee565b915061359e82613f3f565b604082019050919050565b60006135b66020836139ee565b91506135c182613f8e565b602082019050919050565b60006135d96029836139ee565b91506135e482613fb7565b604082019050919050565b60006135fc6025836139ee565b915061360782614006565b604082019050919050565b600061361f6023836139ee565b915061362a82614055565b604082019050919050565b60006136426024836139ee565b915061364d826140a4565b604082019050919050565b61366181613b52565b82525050565b61367081613b5c565b82525050565b600060208201905061368b6000830184613378565b92915050565b60006020820190506136a660008301846133e5565b92915050565b60006020820190506136c160008301846133f4565b92915050565b600060208201905081810360008301526136e18184613412565b905092915050565b600060208201905081810360008301526137028161344b565b9050919050565b600060208201905081810360008301526137228161346e565b9050919050565b6000602082019050818103600083015261374281613491565b9050919050565b60006020820190508181036000830152613762816134b4565b9050919050565b60006020820190508181036000830152613782816134d7565b9050919050565b600060208201905081810360008301526137a2816134fa565b9050919050565b600060208201905081810360008301526137c28161351d565b9050919050565b600060208201905081810360008301526137e281613540565b9050919050565b6000602082019050818103600083015261380281613563565b9050919050565b6000602082019050818103600083015261382281613586565b9050919050565b60006020820190508181036000830152613842816135a9565b9050919050565b60006020820190508181036000830152613862816135cc565b9050919050565b60006020820190508181036000830152613882816135ef565b9050919050565b600060208201905081810360008301526138a281613612565b9050919050565b600060208201905081810360008301526138c281613635565b9050919050565b60006020820190506138de6000830184613658565b92915050565b600060a0820190506138f96000830188613658565b6139066020830187613403565b81810360408301526139188186613387565b90506139276060830185613378565b6139346080830184613658565b9695505050505050565b60006020820190506139536000830184613667565b92915050565b6000613963613974565b905061396f8282613bd2565b919050565b6000604051905090565b600067ffffffffffffffff82111561399957613998613caa565b5b602082029050602081019050919050565b6000819050602082019050919050565b600081519050919050565b600081519050919050565b6000602082019050919050565b600082825260208201905092915050565b600082825260208201905092915050565b6000613a0a82613b52565b9150613a1583613b52565b9250827fffffffffffffffffffffffffffffffffffffffffffffffffffffffffffffffff03821115613a4a57613a49613c4c565b5b828201905092915050565b6000613a6082613b52565b9150613a6b83613b52565b925082613a7b57613a7a613c7b565b5b828204905092915050565b6000613a9182613b52565b9150613a9c83613b52565b9250817fffffffffffffffffffffffffffffffffffffffffffffffffffffffffffffffff0483118215151615613ad557613ad4613c4c565b5b828202905092915050565b6000613aeb82613b52565b9150613af683613b52565b925082821015613b0957613b08613c4c565b5b828203905092915050565b6000613b1f82613b32565b9050919050565b60008115159050919050565b600073ffffffffffffffffffffffffffffffffffffffff82169050919050565b6000819050919050565b600060ff82169050919050565b6000613b7482613b7b565b9050919050565b6000613b8682613b32565b9050919050565b6000613b9882613b52565b9050919050565b60005b83811015613bbd578082015181840152602081019050613ba2565b83811115613bcc576000848401525b50505050565b613bdb82613cd9565b810181811067ffffffffffffffff82111715613bfa57613bf9613caa565b5b80604052505050565b6000613c0e82613b52565b91507fffffffffffffffffffffffffffffffffffffffffffffffffffffffffffffffff821415613c4157613c40613c4c565b5b600182019050919050565b7f4e487b7100000000000000000000000000000000000000000000000000000000600052601160045260246000fd5b7f4e487b7100000000000000000000000000000000000000000000000000000000600052601260045260246000fd5b7f4e487b7100000000000000000000000000000000000000000000000000000000600052604160045260246000fd5b6000601f19601f8301169050919050565b7f45524332303a207472616e7366657220746f20746865207a65726f206164647260008201527f6573730000000000000000000000000000000000000000000000000000000000602082015250565b7f544f4b454e3a2054686973206163636f756e742063616e6e6f742073656e642060008201527f746f6b656e7320756e74696c2074726164696e6720697320656e61626c656400602082015250565b7f416d6f756e74206d757374206265206c657373207468616e20746f74616c207260008201527f65666c656374696f6e7300000000000000000000000000000000000000000000602082015250565b7f544f4b454e3a204d6178205472616e73616374696f6e204c696d697400000000600082015250565b7f4f776e61626c653a206e6577206f776e657220697320746865207a65726f206160008201527f6464726573730000000000000000000000000000000000000000000000000000602082015250565b7f45524332303a20617070726f766520746f20746865207a65726f20616464726560008201527f7373000000000000000000000000000000000000000000000000000000000000602082015250565b7f544f4b454e3a20596f7572206163636f756e7420697320626c61636b6c69737460008201527f6564210000000000000000000000000000000000000000000000000000000000602082015250565b7f536166654d6174683a206164646974696f6e206f766572666c6f770000000000600082015250565b7f544f4b454e3a20416c726561647920656e61626c65642e000000000000000000600082015250565b7f536166654d6174683a206d756c7469706c69636174696f6e206f766572666c6f60008201527f7700000000000000000000000000000000000000000000000000000000000000602082015250565b7f4f776e61626c653a2063616c6c6572206973206e6f7420746865206f776e6572600082015250565b7f5472616e7366657220616d6f756e74206d75737420626520677265617465722060008201527f7468616e207a65726f0000000000000000000000000000000000000000000000602082015250565b7f45524332303a207472616e736665722066726f6d20746865207a65726f20616460008201527f6472657373000000000000000000000000000000000000000000000000000000602082015250565b7f544f4b454e3a2042616c616e636520657863656564732077616c6c657420736960008201527f7a65210000000000000000000000000000000000000000000000000000000000602082015250565b7f45524332303a20617070726f76652066726f6d20746865207a65726f2061646460008201527f7265737300000000000000000000000000000000000000000000000000000000602082015250565b6140fc81613b14565b811461410757600080fd5b50565b61411381613b26565b811461411e57600080fd5b50565b61412a81613b52565b811461413557600080fd5b5056fe45524332303a207472616e7366657220616d6f756e74206578636565647320616c6c6f77616e6365a2646970667358221220850df0aa37f277da883f4a4bb6714926b524eba1c1e9fa4b5a594af4c0d242d564736f6c63430008040033"
  }
}