{
  "opcodeHash": "0x381fe1f8ec2ea406d7d881b1b50dc3416557dba2521504a5aafe94d820abac73",
  "metalessHash": "0x7d0cae1ecc73c5d450ea9d6c7141a3251a8e8ff3b5bb22165177896b8da7168f",
  "runtimeHash": "0xc5e82356d41c57debd9c0ed04c86dafb4d66d3c70556942a71f7233e05bc567d",
  "encodedMetadata": [
    {
      "ipfs": "/ipfs/QmPqxUPBorH1tYDSkXxeo5zWczBf6pjUz9DwdccpCkZe7h",
      "solc": "0.6.12"
    }
  ],
  "abi": [
    {
      "inputs": [],
      "stateMutability": "nonpayable",
      "type": "constructor"
    },
    {
      "anonymous": false,
      "inputs": [
        {
          "indexed": true,
          "internalType": "address",
          "name": "owner",
          "type": "address"
        },
        {
          "indexed": true,
          "internalType": "address",
          "name": "spender",
          "type": "address"
        },
        {
          "indexed": false,
          "internalType": "uint256",
          "name": "value",
          "type": "uint256"
        }
      ],
      "name": "Approval",
      "type": "event"
    },
    {
      "anonymous": false,
      "inputs": [
        {
          "indexed": false,
          "internalType": "uint256",
          "name": "minTokensBeforeSwap",
          "type": "uint256"
        }
      ],
      "name": "MinTokensBeforeSwapUpdated",
      "type": "event"
    },
    {
      "anonymous": false,
      "inputs": [
        {
          "indexed": true,
          "internalType": "address",
          "name": "previousOwner",
          "type": "address"
        },
        {
          "indexed": true,
          "internalType": "address",
          "name": "newOwner",
          "type": "address"
        }
      ],
      "name": "OwnershipTransferred",
      "type": "event"
    },
    {
      "anonymous": false,
      "inputs": [
        {
          "indexed": false,
          "internalType": "bool",
          "name": "enabled",
          "type": "bool"
        }
      ],
      "name": "SwapEnabledUpdated",
      "type": "event"
    },
    {
      "anonymous": false,
      "inputs": [
        {
          "indexed": true,
          "internalType": "address",
          "name": "from",
          "type": "address"
        },
        {
          "indexed": true,
          "internalType": "address",
          "name": "to",
          "type": "address"
        },
        {
          "indexed": false,
          "internalType": "uint256",
          "name": "value",
          "type": "uint256"
        }
      ],
      "name": "Transfer",
      "type": "event"
    },
    {
      "inputs": [
        {
          "internalType": "address",
          "name": "account",
          "type": "address"
        }
      ],
      "name": "RemoveSniper",
      "outputs": [],
      "stateMutability": "nonpayable",
      "type": "function"
    },
    {
      "inputs": [],
      "name": "_disableAutoSnipeProtection",
      "outputs": [],
      "stateMutability": "nonpayable",
      "type": "function"
    },
    {
      "inputs": [],
      "name": "_disableCooldown",
      "outputs": [],
      "stateMutability": "nonpayable",
      "type": "function"
    },
    {
      "inputs": [],
      "name": "_enableAutoSnipeProtection",
      "outputs": [],
      "stateMutability": "nonpayable",
      "type": "function"
    },
    {
      "inputs": [],
      "name": "_enableCooldown",
      "outputs": [],
      "stateMutability": "nonpayable",
      "type": "function"
    },
    {
      "inputs": [],
      "name": "_getETHBalance",
      "outputs": [
        {
          "internalType": "uint256",
          "name": "balance",
          "type": "uint256"
        }
      ],
      "stateMutability": "view",
      "type": "function"
    },
    {
      "inputs": [],
      "name": "_maxTxAmount",
      "outputs": [
        {
          "internalType": "uint256",
          "name": "",
          "type": "uint256"
        }
      ],
      "stateMutability": "view",
      "type": "function"
    },
    {
      "inputs": [],
      "name": "_removeDestLimit",
      "outputs": [],
      "stateMutability": "nonpayable",
      "type": "function"
    },
    {
      "inputs": [],
      "name": "_removeTxLimit",
      "outputs": [],
      "stateMutability": "nonpayable",
      "type": "function"
    },
    {
      "inputs": [
        {
          "internalType": "address payable",
          "name": "teamDevAddress",
          "type": "address"
        }
      ],
      "name": "_setExtWallet",
      "outputs": [],
      "stateMutability": "nonpayable",
      "type": "function"
    },
    {
      "inputs": [
        {
          "internalType": "address",
          "name": "owner",
          "type": "address"
        },
        {
          "internalType": "address",
          "name": "spender",
          "type": "address"
        }
      ],
      "name": "allowance",
      "outputs": [
        {
          "internalType": "uint256",
          "name": "",
          "type": "uint256"
        }
      ],
      "stateMutability": "view",
      "type": "function"
    },
    {
      "inputs": [
        {
          "internalType": "address",
          "name": "account",
          "type": "address"
        }
      ],
      "name": "amnestySniper",
      "outputs": [],
      "stateMutability": "nonpayable",
      "type": "function"
    },
    {
      "inputs": [
        {
          "internalType": "address",
          "name": "spender",
          "type": "address"
        },
        {
          "internalType": "uint256",
          "name": "amount",
          "type": "uint256"
        }
      ],
      "name": "approve",
      "outputs": [
        {
          "internalType": "bool",
          "name": "",
          "type": "bool"
        }
      ],
      "stateMutability": "nonpayable",
      "type": "function"
    },
    {
      "inputs": [
        {
          "internalType": "address",
          "name": "account",
          "type": "address"
        }
      ],
      "name": "balanceOf",
      "outputs": [
        {
          "internalType": "uint256",
          "name": "",
          "type": "uint256"
        }
      ],
      "stateMutability": "view",
      "type": "function"
    },
    {
      "inputs": [],
      "name": "cooldownEnabled",
      "outputs": [
        {
          "internalType": "bool",
          "name": "",
          "type": "bool"
        }
      ],
      "stateMutability": "view",
      "type": "function"
    },
    {
      "inputs": [],
      "name": "decimals",
      "outputs": [
        {
          "internalType": "uint8",
          "name": "",
          "type": "uint8"
        }
      ],
      "stateMutability": "view",
      "type": "function"
    },
    {
      "inputs": [
        {
          "internalType": "address",
          "name": "spender",
          "type": "address"
        },
        {
          "internalType": "uint256",
          "name": "subtractedValue",
          "type": "uint256"
        }
      ],
      "name": "decreaseAllowance",
      "outputs": [
        {
          "internalType": "bool",
          "name": "",
          "type": "bool"
        }
      ],
      "stateMutability": "nonpayable",
      "type": "function"
    },
    {
      "inputs": [
        {
          "internalType": "uint256",
          "name": "tAmount",
          "type": "uint256"
        }
      ],
      "name": "deliver",
      "outputs": [],
      "stateMutability": "nonpayable",
      "type": "function"
    },
    {
      "inputs": [],
      "name": "disableSecuritySweep",
      "outputs": [],
      "stateMutability": "nonpayable",
      "type": "function"
    },
    {
      "inputs": [],
      "name": "enableSecuritySweep",
      "outputs": [],
      "stateMutability": "nonpayable",
      "type": "function"
    },
    {
      "inputs": [
        {
          "internalType": "address",
          "name": "account",
          "type": "address"
        }
      ],
      "name": "excludeAccount",
      "outputs": [],
      "stateMutability": "nonpayable",
      "type": "function"
    },
    {
      "inputs": [
        {
          "internalType": "address",
          "name": "account",
          "type": "address"
        }
      ],
      "name": "includeAccount",
      "outputs": [],
      "stateMutability": "nonpayable",
      "type": "function"
    },
    {
      "inputs": [
        {
          "internalType": "address",
          "name": "spender",
          "type": "address"
        },
        {
          "internalType": "uint256",
          "name": "addedValue",
          "type": "uint256"
        }
      ],
      "name": "increaseAllowance",
      "outputs": [
        {
          "internalType": "bool",
          "name": "",
          "type": "bool"
        }
      ],
      "stateMutability": "nonpayable",
      "type": "function"
    },
    {
      "inputs": [],
      "name": "initContract",
      "outputs": [],
      "stateMutability": "nonpayable",
      "type": "function"
    },
    {
      "inputs": [
        {
          "internalType": "address",
          "name": "account",
          "type": "address"
        }
      ],
      "name": "isBlackListed",
      "outputs": [
        {
          "internalType": "bool",
          "name": "",
          "type": "bool"
        }
      ],
      "stateMutability": "view",
      "type": "function"
    },
    {
      "inputs": [
        {
          "internalType": "address",
          "name": "account",
          "type": "address"
        }
      ],
      "name": "isExcluded",
      "outputs": [
        {
          "internalType": "bool",
          "name": "",
          "type": "bool"
        }
      ],
      "stateMutability": "view",
      "type": "function"
    },
    {
      "inputs": [
        {
          "internalType": "address",
          "name": "account",
          "type": "address"
        }
      ],
      "name": "isExcludedFromFee",
      "outputs": [
        {
          "internalType": "bool",
          "name": "",
          "type": "bool"
        }
      ],
      "stateMutability": "view",
      "type": "function"
    },
    {
      "inputs": [],
      "name": "launchTime",
      "outputs": [
        {
          "internalType": "uint256",
          "name": "",
          "type": "uint256"
        }
      ],
      "stateMutability": "view",
      "type": "function"
    },
    {
      "inputs": [],
      "name": "manualSend",
      "outputs": [],
      "stateMutability": "nonpayable",
      "type": "function"
    },
    {
      "inputs": [],
      "name": "manualSwap",
      "outputs": [],
      "stateMutability": "nonpayable",
      "type": "function"
    },
    {
      "inputs": [],
      "name": "name",
      "outputs": [
        {
          "internalType": "string",
          "name": "",
          "type": "string"
        }
      ],
      "stateMutability": "view",
      "type": "function"
    },
    {
      "inputs": [],
      "name": "openTrading",
      "outputs": [],
      "stateMutability": "nonpayable",
      "type": "function"
    },
    {
      "inputs": [],
      "name": "owner",
      "outputs": [
        {
          "internalType": "address",
          "name": "",
          "type": "address"
        }
      ],
      "stateMutability": "view",
      "type": "function"
    },
    {
      "inputs": [],
      "name": "postInit",
      "outputs": [],
      "stateMutability": "nonpayable",
      "type": "function"
    },
    {
      "inputs": [
        {
          "internalType": "uint256",
          "name": "tAmount",
          "type": "uint256"
        },
        {
          "internalType": "bool",
          "name": "deductTransferFee",
          "type": "bool"
        }
      ],
      "name": "reflectionFromToken",
      "outputs": [
        {
          "internalType": "uint256",
          "name": "",
          "type": "uint256"
        }
      ],
      "stateMutability": "view",
      "type": "function"
    },
    {
      "inputs": [],
      "name": "renounceOwnership",
      "outputs": [],
      "stateMutability": "nonpayable",
      "type": "function"
    },
    {
      "inputs": [
        {
          "internalType": "address",
          "name": "account",
          "type": "address"
        },
        {
          "internalType": "bool",
          "name": "excluded",
          "type": "bool"
        }
      ],
      "name": "setExcludeFromFee",
      "outputs": [],
      "stateMutability": "nonpayable",
      "type": "function"
    },
    {
      "inputs": [
        {
          "internalType": "uint256",
          "name": "maxTxPercent",
          "type": "uint256"
        }
      ],
      "name": "setMaxTxPercent",
      "outputs": [],
      "stateMutability": "nonpayable",
      "type": "function"
    },
    {
      "inputs": [
        {
          "internalType": "bool",
          "name": "enabled",
          "type": "bool"
        }
      ],
      "name": "setSwapEnabled",
      "outputs": [],
      "stateMutability": "nonpayable",
      "type": "function"
    },
    {
      "inputs": [],
      "name": "swapEnabled",
      "outputs": [
        {
          "internalType": "bool",
          "name": "",
          "type": "bool"
        }
      ],
      "stateMutability": "view",
      "type": "function"
    },
    {
      "inputs": [],
      "name": "symbol",
      "outputs": [
        {
          "internalType": "string",
          "name": "",
          "type": "string"
        }
      ],
      "stateMutability": "view",
      "type": "function"
    },
    {
      "inputs": [
        {
          "internalType": "uint256",
          "name": "rAmount",
          "type": "uint256"
        }
      ],
      "name": "tokenFromReflection",
      "outputs": [
        {
          "internalType": "uint256",
          "name": "",
          "type": "uint256"
        }
      ],
      "stateMutability": "view",
      "type": "function"
    },
    {
      "inputs": [],
      "name": "totalFees",
      "outputs": [
        {
          "internalType": "uint256",
          "name": "",
          "type": "uint256"
        }
      ],
      "stateMutability": "view",
      "type": "function"
    },
    {
      "inputs": [],
      "name": "totalSupply",
      "outputs": [
        {
          "internalType": "uint256",
          "name": "",
          "type": "uint256"
        }
      ],
      "stateMutability": "view",
      "type": "function"
    },
    {
      "inputs": [],
      "name": "tradingOpen",
      "outputs": [
        {
          "internalType": "bool",
          "name": "",
          "type": "bool"
        }
      ],
      "stateMutability": "view",
      "type": "function"
    },
    {
      "inputs": [
        {
          "internalType": "address",
          "name": "recipient",
          "type": "address"
        },
        {
          "internalType": "uint256",
          "name": "amount",
          "type": "uint256"
        }
      ],
      "name": "transfer",
      "outputs": [
        {
          "internalType": "bool",
          "name": "",
          "type": "bool"
        }
      ],
      "stateMutability": "nonpayable",
      "type": "function"
    },
    {
      "inputs": [
        {
          "internalType": "address",
          "name": "sender",
          "type": "address"
        },
        {
          "internalType": "address",
          "name": "recipient",
          "type": "address"
        },
        {
          "internalType": "uint256",
          "name": "amount",
          "type": "uint256"
        }
      ],
      "name": "transferFrom",
      "outputs": [
        {
          "internalType": "bool",
          "name": "",
          "type": "bool"
        }
      ],
      "stateMutability": "nonpayable",
      "type": "function"
    },
    {
      "inputs": [
        {
          "internalType": "address",
          "name": "newOwner",
          "type": "address"
        }
      ],
      "name": "transferOwnership",
      "outputs": [],
      "stateMutability": "nonpayable",
      "type": "function"
    },
    {
      "inputs": [],
      "name": "uniswapOnly",
      "outputs": [
        {
          "internalType": "bool",
          "name": "",
          "type": "bool"
        }
      ],
      "stateMutability": "view",
      "type": "function"
    },
    {
      "inputs": [],
      "name": "uniswapV2Pair",
      "outputs": [
        {
          "internalType": "address",
          "name": "",
          "type": "address"
        }
      ],
      "stateMutability": "view",
      "type": "function"
    },
    {
      "inputs": [],
      "name": "uniswapV2Router",
      "outputs": [
        {
          "internalType": "contract IUniswapV2Router02",
          "name": "",
          "type": "address"
        }
      ],
      "stateMutability": "view",
      "type": "function"
    },
    {
      "stateMutability": "payable",
      "type": "receive"
    }
  ],
  "bytecode": {
    "object": "69d3c21bcecceda1000000600d5569085afffa6ff50bffffff19600e5560c0604052601860808190527f484f444c207c20742e6d652f484f4c44546f6b656e464c43000000000000000060a09081526200005d9160119190620001ea565b50604080518082019091526009808252682427a22610784fc94760b91b60209092019182526200009091601291620001ea565b506013805460ff199081166009179091556000601481905560158190556016819055601755601a805463ffffffff60b01b1961ffff60a01b19909116600160a81b1716905569021e19e0c9bab2400000601b5566b1a2bc2ec50000601c55601d805490911660011790553480156200010757600080fd5b50600062000114620001e6565b600080546001600160a01b0319166001600160a01b0383169081178255604051929350917f8be0079c531659141344cd1fd0a4f28419497f9722a3daafe3b4186f6b6457e0908290a350600e54600360006200016f620001e6565b6001600160a01b0316815260208101919091526040016000205562000193620001e6565b6001600160a01b031660006001600160a01b03167fddf252ad1be2c89b69c2b068fc378daa952ba7f163c4a11628f55a4df523b3ef600d546040518082815260200191505060405180910390a362000286565b3390565b828054600181600116156101000203166002900490600052602060002090601f016020900481019282601f106200022d57805160ff19168380011785556200025d565b828001600101855582156200025d579182015b828111156200025d57825182559160200191906001019062000240565b506200026b9291506200026f565b5090565b5b808211156200026b576000815560010162000270565b6145d280620002966000396000f3fe6080604052600436106102e85760003560e01c80638da5cb5b11610190578063d543dbeb116100dc578063f2cc0c1811610095578063f815a8421161006f578063f815a84214610a29578063f84354f114610a3e578063fe76374f14610a71578063ffb54a9914610a86576102ef565b8063f2cc0c18146109ae578063f2fde38b146109e1578063f429389014610a14576102ef565b8063d543dbeb146108c0578063dc90b2d1146108ea578063dd62ed3e146108ff578063e015061e1461093a578063e01af92c1461094f578063e47d60601461097b576102ef565b8063a9059cbb11610149578063c2ab7b3311610123578063c2ab7b331461084e578063c9567bf914610863578063cba0e99614610878578063d07deb4e146108ab576102ef565b8063a9059cbb146107c5578063a985ceef146107fe578063af9549e014610813576102ef565b80638da5cb5b1461070557806392bbf08e1461071a5780639354e0fc1461074d57806395d89b411461076257806399ab5c1a14610777578063a457c2d71461078c576102ef565b80633bd5d1731161024f5780636ddd171311610208578063790ca413116101e2578063790ca413146106935780637d1db4a5146106a85780638203f5fe146106bd57806383b61c8b146106d2576102ef565b80636ddd17131461063657806370a082311461064b578063715018a61461067e576102ef565b80633bd5d173146105685780634549b0391461059257806349bd5a5e146105c45780634a65786c146105d957806351bc3c85146105ee5780635342acb414610603576102ef565b8063220fa369116102a1578063220fa3691461046d5780632338dbe31461048257806323b872dd146104975780632d838119146104da578063313ce56714610504578063395093511461052f576102ef565b806306fdde03146102f4578063095ea7b31461037e5780630b2a808c146103cb57806313114a9d146104005780631694505e1461042757806318160ddd14610458576102ef565b366102ef57005b600080fd5b34801561030057600080fd5b50610309610a9b565b6040805160208082528351818301528351919283929083019185019080838360005b8381101561034357818101518382015260200161032b565b50505050905090810190601f1680156103705780820380516001836020036101000a031916815260200191505b509250505060405180910390f35b34801561038a57600080fd5b506103b7600480360360408110156103a157600080fd5b506001600160a01b038135169060200135610b31565b604080519115158252519081900360200190f35b3480156103d757600080fd5b506103fe600480360360208110156103ee57600080fd5b50356001600160a01b0316610b4f565b005b34801561040c57600080fd5b50610415610d07565b60408051918252519081900360200190f35b34801561043357600080fd5b5061043c610d0d565b604080516001600160a01b039092168252519081900360200190f35b34801561046457600080fd5b50610415610d1c565b34801561047957600080fd5b506103fe610d22565b34801561048e57600080fd5b506103fe610d8f565b3480156104a357600080fd5b506103b7600480360360608110156104ba57600080fd5b506001600160a01b03813581169160208101359091169060400135610df7565b3480156104e657600080fd5b50610415600480360360208110156104fd57600080fd5b5035610e7e565b34801561051057600080fd5b50610519610ee0565b6040805160ff9092168252519081900360200190f35b34801561053b57600080fd5b506103b76004803603604081101561055257600080fd5b506001600160a01b038135169060200135610ee9565b34801561057457600080fd5b506103fe6004803603602081101561058b57600080fd5b5035610f37565b34801561059e57600080fd5b50610415600480360360408110156105b557600080fd5b50803590602001351515611011565b3480156105d057600080fd5b5061043c6110a3565b3480156105e557600080fd5b506103fe6110b2565b3480156105fa57600080fd5b506103fe61113b565b34801561060f57600080fd5b506103b76004803603602081101561062657600080fd5b50356001600160a01b03166111ac565b34801561064257600080fd5b506103b76111ca565b34801561065757600080fd5b506104156004803603602081101561066e57600080fd5b50356001600160a01b03166111da565b34801561068a57600080fd5b506103fe61123c565b34801561069f57600080fd5b506104156112de565b3480156106b457600080fd5b506104156112e4565b3480156106c957600080fd5b506103fe6112ea565b3480156106de57600080fd5b506103fe600480360360208110156106f557600080fd5b50356001600160a01b0316612315565b34801561071157600080fd5b5061043c612500565b34801561072657600080fd5b506103fe6004803603602081101561073d57600080fd5b50356001600160a01b031661250f565b34801561075957600080fd5b506103fe612589565b34801561076e57600080fd5b506103096125f0565b34801561078357600080fd5b506103fe612651565b34801561079857600080fd5b506103b7600480360360408110156107af57600080fd5b506001600160a01b0381351690602001356126b8565b3480156107d157600080fd5b506103b7600480360360408110156107e857600080fd5b506001600160a01b038135169060200135612720565b34801561080a57600080fd5b506103b7612734565b34801561081f57600080fd5b506103fe6004803603604081101561083657600080fd5b506001600160a01b0381351690602001351515612744565b34801561085a57600080fd5b506103fe6127c7565b34801561086f57600080fd5b506103fe61282e565b34801561088457600080fd5b506103b76004803603602081101561089b57600080fd5b50356001600160a01b03166128af565b3480156108b757600080fd5b506103fe6128cd565b3480156108cc57600080fd5b506103fe600480360360208110156108e357600080fd5b5035612934565b3480156108f657600080fd5b506103fe6129b2565b34801561090b57600080fd5b506104156004803603604081101561092257600080fd5b506001600160a01b0381358116916020013516612a1f565b34801561094657600080fd5b506103fe612a4a565b34801561095b57600080fd5b506103fe6004803603602081101561097257600080fd5b50351515612ab7565b34801561098757600080fd5b506103b76004803603602081101561099e57600080fd5b50356001600160a01b0316612b2d565b3480156109ba57600080fd5b506103fe600480360360208110156109d157600080fd5b50356001600160a01b0316612b4b565b3480156109ed57600080fd5b506103fe60048036036020811015610a0457600080fd5b50356001600160a01b0316612d2d565b348015610a2057600080fd5b506103fe612e25565b348015610a3557600080fd5b50610415612e87565b348015610a4a57600080fd5b506103fe60048036036020811015610a6157600080fd5b50356001600160a01b0316612e8b565b348015610a7d57600080fd5b506103b7613021565b348015610a9257600080fd5b506103b7613031565b60118054604080516020601f6002600019610100600188161502019095169490940493840181900481028201810190925282815260609390929091830182828015610b275780601f10610afc57610100808354040283529160200191610b27565b820191906000526020600020905b815481529060010190602001808311610b0a57829003601f168201915b5050505050905090565b6000610b45610b3e613041565b8484613045565b5060015b92915050565b610b57613041565b6000546001600160a01b03908116911614610ba7576040805162461bcd60e51b81526020600482018190526024820152600080516020614474833981519152604482015290519081900360640190fd5b6001600160a01b0381166000908152600b602052604090205460ff16610c14576040805162461bcd60e51b815260206004820152601a60248201527f4163636f756e74206973206e6f7420626c61636b6c6973746564000000000000604482015290519081900360640190fd5b60005b600c54811015610d0357816001600160a01b0316600c8281548110610c3857fe5b6000918252602090912001546001600160a01b03161415610cfb57600c80546000198101908110610c6557fe5b600091825260209091200154600c80546001600160a01b039092169183908110610c8b57fe5b600091825260208083209190910180546001600160a01b0319166001600160a01b039485161790559184168152600b90915260409020805460ff19169055600c805480610cd457fe5b600082815260209020810160001990810180546001600160a01b0319169055019055610d03565b600101610c17565b5050565b600f5490565b6019546001600160a01b031681565b600d5490565b610d2a613041565b6000546001600160a01b03908116911614610d7a576040805162461bcd60e51b81526020600482018190526024820152600080516020614474833981519152604482015290519081900360640190fd5b601a805460ff60c81b1916600160c81b179055565b610d97613041565b6000546001600160a01b03908116911614610de7576040805162461bcd60e51b81526020600482018190526024820152600080516020614474833981519152604482015290519081900360640190fd5b69d3c21bcecceda1000000601b55565b6000610e04848484613131565b610e7484610e10613041565b610e6f8560405180606001604052806028815260200161444c602891396001600160a01b038a16600090815260076020526040812090610e4e613041565b6001600160a01b0316815260208101919091526040016000205491906137d2565b613045565b5060019392505050565b6000600e54821115610ec15760405162461bcd60e51b815260040180806020018281038252602a815260200180614392602a913960400191505060405180910390fd5b6000610ecb613869565b9050610ed7838261388c565b9150505b919050565b60135460ff1690565b6000610b45610ef6613041565b84610e6f8560076000610f07613041565b6001600160a01b03908116825260208083019390935260409182016000908120918c1681529252902054906138d5565b6000610f41613041565b6001600160a01b03811660009081526009602052604090205490915060ff1615610f9c5760405162461bcd60e51b815260040180806020018281038252602c81526020018061454c602c913960400191505060405180910390fd5b6000610fa78361392f565b505050506001600160a01b038416600090815260036020526040902054919250610fd39190508261398b565b6001600160a01b038316600090815260036020526040902055600e54610ff9908261398b565b600e55600f5461100990846138d5565b600f55505050565b6000600d5483111561106a576040805162461bcd60e51b815260206004820152601f60248201527f416d6f756e74206d757374206265206c657373207468616e20737570706c7900604482015290519081900360640190fd5b8161108957600061107a8461392f565b50939550610b49945050505050565b60006110948461392f565b50929550610b49945050505050565b601a546001600160a01b031681565b6110ba613041565b6000546001600160a01b0390811691161461110a576040805162461bcd60e51b81526020600482018190526024820152600080516020614474833981519152604482015290519081900360640190fd5b601480556005601555601880546001600160a01b03191673010aba82c94dc41dea19cd5e7c120092584fb97a179055565b611143613041565b6000546001600160a01b03908116911614611193576040805162461bcd60e51b81526020600482018190526024820152600080516020614474833981519152604482015290519081900360640190fd5b600061119e306111da565b90506111a9816139cd565b50565b6001600160a01b031660009081526008602052604090205460ff1690565b601a54600160a81b900460ff1681565b6001600160a01b03811660009081526009602052604081205460ff161561121a57506001600160a01b038116600090815260046020526040902054610edb565b6001600160a01b038216600090815260036020526040902054610b4990610e7e565b611244613041565b6000546001600160a01b03908116911614611294576040805162461bcd60e51b81526020600482018190526024820152600080516020614474833981519152604482015290519081900360640190fd5b600080546040516001600160a01b03909116907f8be0079c531659141344cd1fd0a4f28419497f9722a3daafe3b4186f6b6457e0908390a3600080546001600160a01b0319169055565b60105481565b601b5481565b6112f2613041565b6000546001600160a01b03908116911614611342576040805162461bcd60e51b81526020600482018190526024820152600080516020614474833981519152604482015290519081900360640190fd5b6000737a250d5630b4cf539739df2c5dacb4c659f2488d9050806001600160a01b031663c45a01556040518163ffffffff1660e01b815260040160206040518083038186803b15801561139457600080fd5b505afa1580156113a8573d6000803e3d6000fd5b505050506040513d60208110156113be57600080fd5b5051604080516315ab88c960e31b815290516001600160a01b039283169263c9c653969230929186169163ad5c464891600480820192602092909190829003018186803b15801561140e57600080fd5b505afa158015611422573d6000803e3d6000fd5b505050506040513d602081101561143857600080fd5b5051604080516001600160e01b031960e086901b1681526001600160a01b0393841660048201529290911660248301525160448083019260209291908290030181600087803b15801561148a57600080fd5b505af115801561149e573d6000803e3d6000fd5b505050506040513d60208110156114b457600080fd5b5051601a80546001600160a01b03199081166001600160a01b0393841617909155601980549091169183169190911790556001600860006114f3612500565b6001600160a01b0316815260208082019290925260409081016000908120805494151560ff1995861617905530815260088352908120805484166001908117909155600b9092527fc274f9872928131cb7ff581cc24fdbde2670d328386d345e40b59bf36ffda1da8054841683179055600c805480840182557fdf6966c971051c3d54ec59162606531493a51404a002842f56009d7e5cf4a8c790810180546001600160a01b0319908116737589319ed0fd750017159fb4e4d96c63966173c1179091557fe349bf7cb40a1d682fcc1c52ea4dd0fffc14828c762bcf08c0c2a9ef14a583968054871686179055825480860184558201805482167365a67df75ccbf57828185c7c050e34de64d859d01790557f74d7fc0a45c6928cce922f294b8bf5e7fff3f89771e2114b18a5cd1d1f45773580548716861781558354808701855583018054831673e031b36b53e53a292a20c5f08fd1658cddf74fce9081179091558154881687179091558354808701855583018054831690911790557f0f1b60510ca1e1bf00eec02fea41847afc989fbd83852cdb3ca91ce622a1d54d80548716861790558254808601845582018054821673e516bdee55b0b4e9bacaf6285130de15589b13451790557ff8ebe5e7623ca891e5bb8ce5e72b0c5ddeae8c7d8c0932740de908fdac44ec0080548716861790558254808601845582018054821673a1cec245c456dd1bd9f2815a6955fef44eb4191b1790557f16a15fb2aa0b66ff4f4234d97be437d134114b368ffd745d8de6e6838f9fba3a80548716861790558254808601845582018054821673d7d3ee77d35d0a56f91542d4905b1a2b1cd7cf951790557f287292fc49b5d73ef6d6f7f228ef3fe49c8cd2ac6e9c89064eb61fd7fb9f519a80548716861790558254808601845582018054821673fe76f05dc59fec04184fa0245ad0c3cf9a57b9641790557f66504bab4295e88d515a9325b1909b99559a398602c86c64fe2ad7b94e0f761680548716861790558254808601845582018054821673dc81a3450817a58d00f45c86d0368290088db8481790557f4c88ad78a60fb4355141b4ac46c8f7af9256d7dcebaf319200612bf767c0bd8a8054871686179055825480860184558201805482167345fd07c63e5c316540f14b2002b085aee78e38811790557f509f0c09776cdc3f0041fbef622c53cd68b7fdb9a9aa03b44d173795d33d9a2c8054871686179055825480860184558201805482167327f9adb26d532a41d97e00206114e429ad58c6791790557f4ab1ad46ab225965adc4e1d94d5aaeaf25059fc3ba4fcaa5d4b5e7639b276b96805487168617905582548086018455820180548216739282dc5c422fa91ff2f6ff3a0b45b7bf97cf78e71790557fb6cf2af14ec747288a3172f747dce8489db9f7ffed0705b048086a04ae6d883e80548716861790558254808601845582018054821673fad95b6089c53a0d1d861eabfaadd8901b0f85331790557f90f8eb466ce0b8ffe45cba484dc56157a7d0481c956801f8344c8ca9e3ab66fc805487168617905582548086018455820180548216731d6e8bac6ea3730825bde4b005ed7b2b39a2932d1790557f084f1b81bcbce7852bcad334f6636dd62e06d31b2f61a0cfa649d36ddc7a140b8054871686179055825480860184558201805482166d084e91743124a982076c59f100841790557fe964af2a39de4befe9efd0a93c5f33430d4d469a86ca04ead00ca450e1cc51dc805487168617905582548086018455820180548216736da4bea09c3aa0761b09b19837d9105a522543031790557f43bc11ee80840e60bc6eecdaf2f3dbb20e2a51f2ad7c84ccd7a3ee511c229b5680548716861790558254808601845582018054821673323b7f37d382a68b0195b873af17cea5b67cd5951790557ff3f5813ee85ebee82b51c4fbd213ca437b28b57dd42773ca313877c0421fdd498054871686179055825480860184558201805482166f5804b22091aa9830e50459a15e7c92411790557fa806c9890a137af663d0d873337bf05aee2f15a430b39dde586e5d5a9662788280548716861790558254808601845582018054821673a3b0e79935815730d942a444a84d4bd14a3395531790557f37f2334e5c4c9574d9d477ff54aae39ea3eb90b5c2ae4ef3cf5ad5a3292bc0a380548716861790558254808601845582018054821673f6da21e95d74767009accb145b96897ac3630bad1790557f5f39b10403a84e529641be6f242a318374526da4fb6710d79679d47441b2a7c08054871686179055825480860184558201805482166d7673393729d5618dc555fd13f9aa1790557f5c7b6b080beaaf2d4ae0f74ea085f3bbf8609b2401495af9fffe89ed4435564b8054871686179055825480860184558201805482166d03441d59dde9a90bffb1cd3fabf11790557fac0a3c6e1cda4154d919f5f45cd6714b3123d27803fd2d300bb571c9d92f6c778054871686179055825480860184558201805482167359903993ae67bf48f10832e9be28935fee04d6f61790557f3a5d40cea00d9d63dd180120b8b5f647d8c74aca077efca2f559deb04eb5811d80548716861790558254808601845582018054821670917de6037d52b1f0a306eecd208405f7cd1790557f5fa1d7e94eb4942d36a49413ca4d16accd08fb1110f77dfb53231b36d79cc42e805487168617905582548086018455820180548216737100e690554b1c2fd01e8648db88be235c1e65141790557f77fc7072d38bd00627c3a08b633f932d348498925cead243099866a7f90ace068054871686179055825480860184558201805482167372b30cdc1583224381132d379a052a6b107254151790557f3081b1a493729edee55cece4de980fa98487de7a5280b359c0bd87eed203d730805487168617905582548086018455820180548216739edd647d7d6eceae6bb61d7785ef66c5055a9bee1790557f546f120f655c062c354e71127d493f355f17cfa1add369fa90759489adb73fda80548716861790558254808601845582018054821673fe9d99ef02e905127239e85a611c29ad32c31c2f1790557fde956483604ddf4b64ec3e2f9fc80a0dc2088c392511f1411782a7d8ae297f4c8054871686178155835480870185558301805483167339608b6f20704889c51c0ae28b1fca8f36a5239b9081179091557f75b6c254782bae42da9d86e5b3b038adccd258bd17d730f1912a4d8f0937784880548916881790558454808801865584018054841673c496d84215d5018f6f53e7f6f12e45c9b5e8e8a91790557fde2a7d29f3150e1ddb7d14e8e59cf128a3b67513b254bdfac9b088ad2be525a28054891688179055845480880186558401805484167359341bc6b4f3ace878574b05914f43309dd678c71790557fa6a51fa55d9d229c03843ddaa598168904b330eef370885236990ddb645da1d880548916881790558454808801865584018054841673e986d48efee9ec1b8f66cd0b0ae8e3d18f091bdf1790557f55b54b221ed3f9281edb8ffbf0fb95a8ab4be2f4d8cbfaca4dce33d0dfe8587a805489168817905584548088018655840180548416734aeb32e16dcac00b092596adc6cd4955efdee2901790557f87d3f383669d84cb7b974d2d22e16224a71feda94455970040b83518cc86744680548916881790558454808801865584018054841673136f4b5b6a306091b280e3f251fa0e21b1280cd51790558154881687179091558354808701855583018054831690911790557f218a0253766218fcda78437f64b24524daefb1cad97e42c50028341fc55cdb22805487168617905582548086018455820180548216735b83a351500b631cc2a20a665ee17f0dc66e3db71790557f436e4ad714e8c3aff7e26123430dd4dbd319e15777b9d8b55411bf1463a9cb5b80548716861790558254808601845582018054821673bcb05a3f85d34f0194c70d5914d5c4e28f11cc021790557fe7b20fa0205f84b9d914c445ceea320ccd2839909270357f6b8947abb472a5908054871686179055825480860184558201805482167322246f9bca9921bfa9a3f8df5babc5bc8ee738501790557f9dfcf2a538dd0b759dd7771d809627012524bcdd77f1316cd21f485a44da421f8054871686179055825480860184558201805482167342d4c197036bd9984ca652303e07dd29fa6bdb371790557f494c6787b69d89b59a43a566573d0eb3bdbbe9fe253e454213f244e13d42e1668054871686179055825480860184558201805482166e3b3cc22af3ae1eac0440bcee416b401790557fbbe2d054b52a64432b404f4c58c46edaaf6f4423cdeabf83f69cf3dddb7aaab880548716861790558254808601845582018054821673231dc6af3c66741f6cf618884b953df0e83c1a2a1790557fa2d156f2feaaf188eee0f3ab58b28e4ad365e80c7a8722fed7272494f9f7423080548716861790558254808601845582018054821673c6bf34596f74eb22e066a878848dfb9fc1cf4c651790557fe0606630f048922c11b6a1604064d1c3580ba1a2e9d2fddf650d03c5b65711498054871686179055825480860184558201805482167320f6fcd6b8813c4f98c0ffbd88c87c0255040aa31790557f0ee17963b7c279334e88229c27e11d12d87d362a7cd056ac92e860a09921a44f80548716861790558254808601845582018054821673d334c5392ed4863c81576422b968c6fb90ee9f791790557f0ed1044b6124a6cb0cb6e03084903b3a77d71983fa970874ae3abd71b8d0af4880548716861790558254808601845582018054821673fffff6e70842330948ca47254f2be673b1cb0db71790557f03c6491a6914a13119e10492804f993526cf0737203a9d1e295748bfe934f0b580548716861781558354808701855583018054831673a39c50bf86e15391180240938f469a7bf4fdae9a908117909155815490971686179055825494850183559190925291018054909116909117905550565b61231d613041565b6000546001600160a01b0390811691161461236d576040805162461bcd60e51b81526020600482018190526024820152600080516020614474833981519152604482015290519081900360640190fd5b737a250d5630b4cf539739df2c5dacb4c659f2488d6001600160a01b03821614156123c95760405162461bcd60e51b81526004018080602001828103825260248152602001806144bd6024913960400191505060405180910390fd5b601a546001600160a01b038281169116141561242c576040805162461bcd60e51b815260206004820152601e60248201527f57652063616e206e6f7420626c61636b6c697374206f757220706169722e0000604482015290519081900360640190fd5b6001600160a01b0381166000908152600b602052604090205460ff161561249a576040805162461bcd60e51b815260206004820152601e60248201527f4163636f756e7420697320616c726561647920626c61636b6c69737465640000604482015290519081900360640190fd5b6001600160a01b03166000818152600b60205260408120805460ff19166001908117909155600c805491820181559091527fdf6966c971051c3d54ec59162606531493a51404a002842f56009d7e5cf4a8c70180546001600160a01b0319169091179055565b6000546001600160a01b031690565b612517613041565b6000546001600160a01b03908116911614612567576040805162461bcd60e51b81526020600482018190526024820152600080516020614474833981519152604482015290519081900360640190fd5b601880546001600160a01b0319166001600160a01b0392909216919091179055565b612591613041565b6000546001600160a01b039081169116146125e1576040805162461bcd60e51b81526020600482018190526024820152600080516020614474833981519152604482015290519081900360640190fd5b601a805460ff60b81b19169055565b60128054604080516020601f6002600019610100600188161502019095169490940493840181900481028201810190925282815260609390929091830182828015610b275780601f10610afc57610100808354040283529160200191610b27565b612659613041565b6000546001600160a01b039081169116146126a9576040805162461bcd60e51b81526020600482018190526024820152600080516020614474833981519152604482015290519081900360640190fd5b601a805460ff60c81b19169055565b6000610b456126c5613041565b84610e6f8560405180606001604052806025815260200161457860259139600760006126ef613041565b6001600160a01b03908116825260208083019390935260409182016000908120918d168152925290205491906137d2565b6000610b4561272d613041565b8484613131565b601a54600160b81b900460ff1681565b61274c613041565b6000546001600160a01b0390811691161461279c576040805162461bcd60e51b81526020600482018190526024820152600080516020614474833981519152604482015290519081900360640190fd5b6001600160a01b03919091166000908152600860205260409020805460ff1916911515919091179055565b6127cf613041565b6000546001600160a01b0390811691161461281f576040805162461bcd60e51b81526020600482018190526024820152600080516020614474833981519152604482015290519081900360640190fd5b601a805460ff60b01b19169055565b612836613041565b6000546001600160a01b03908116911614612886576040805162461bcd60e51b81526020600482018190526024820152600080516020614474833981519152604482015290519081900360640190fd5b601a805461ffff60b01b1960ff60a81b19909116600160a81b1716600160b01b17905542601055565b6001600160a01b031660009081526009602052604090205460ff1690565b6128d5613041565b6000546001600160a01b03908116911614612925576040805162461bcd60e51b81526020600482018190526024820152600080516020614474833981519152604482015290519081900360640190fd5b601a805460ff60c01b19169055565b61293c613041565b6000546001600160a01b0390811691161461298c576040805162461bcd60e51b81526020600482018190526024820152600080516020614474833981519152604482015290519081900360640190fd5b6129ac60646129a683600d54613b9b90919063ffffffff16565b9061388c565b601b5550565b6129ba613041565b6000546001600160a01b03908116911614612a0a576040805162461bcd60e51b81526020600482018190526024820152600080516020614474833981519152604482015290519081900360640190fd5b601a805460ff60b01b1916600160b01b179055565b6001600160a01b03918216600090815260076020908152604080832093909416825291909152205490565b612a52613041565b6000546001600160a01b03908116911614612aa2576040805162461bcd60e51b81526020600482018190526024820152600080516020614474833981519152604482015290519081900360640190fd5b601a805460ff60b81b1916600160b81b179055565b612abf613041565b6000546001600160a01b03908116911614612b0f576040805162461bcd60e51b81526020600482018190526024820152600080516020614474833981519152604482015290519081900360640190fd5b601a8054911515600160a81b0260ff60a81b19909216919091179055565b6001600160a01b03166000908152600b602052604090205460ff1690565b612b53613041565b6000546001600160a01b03908116911614612ba3576040805162461bcd60e51b81526020600482018190526024820152600080516020614474833981519152604482015290519081900360640190fd5b737a250d5630b4cf539739df2c5dacb4c659f2488d6001600160a01b0382161415612bff5760405162461bcd60e51b815260040180806020018281038252602281526020018061452a6022913960400191505060405180910390fd5b6001600160a01b03811660009081526009602052604090205460ff1615612c6d576040805162461bcd60e51b815260206004820152601b60248201527f4163636f756e7420697320616c7265616479206578636c756465640000000000604482015290519081900360640190fd5b6001600160a01b03811660009081526003602052604090205415612cc7576001600160a01b038116600090815260036020526040902054612cad90610e7e565b6001600160a01b0382166000908152600460205260409020555b6001600160a01b03166000818152600960205260408120805460ff19166001908117909155600a805491820181559091527fc65a7bb8d6351c1cf70c95a316cc6a92839c986682d98bc35f958f4883f9d2a80180546001600160a01b0319169091179055565b612d35613041565b6000546001600160a01b03908116911614612d85576040805162461bcd60e51b81526020600482018190526024820152600080516020614474833981519152604482015290519081900360640190fd5b6001600160a01b038116612dca5760405162461bcd60e51b81526004018080602001828103825260268152602001806143bc6026913960400191505060405180910390fd5b600080546040516001600160a01b03808516939216917f8be0079c531659141344cd1fd0a4f28419497f9722a3daafe3b4186f6b6457e091a3600080546001600160a01b0319166001600160a01b0392909216919091179055565b612e2d613041565b6000546001600160a01b03908116911614612e7d576040805162461bcd60e51b81526020600482018190526024820152600080516020614474833981519152604482015290519081900360640190fd5b476111a981613bf4565b4790565b612e93613041565b6000546001600160a01b03908116911614612ee3576040805162461bcd60e51b81526020600482018190526024820152600080516020614474833981519152604482015290519081900360640190fd5b6001600160a01b03811660009081526009602052604090205460ff16612f50576040805162461bcd60e51b815260206004820152601b60248201527f4163636f756e7420697320616c7265616479206578636c756465640000000000604482015290519081900360640190fd5b60005b600a54811015610d0357816001600160a01b0316600a8281548110612f7457fe5b6000918252602090912001546001600160a01b0316141561301957600a80546000198101908110612fa157fe5b600091825260209091200154600a80546001600160a01b039092169183908110612fc757fe5b600091825260208083209190910180546001600160a01b0319166001600160a01b039485161790559184168152600482526040808220829055600990925220805460ff19169055600a805480610cd457fe5b600101612f53565b601a54600160c01b900460ff1681565b601a54600160b01b900460ff1681565b3390565b6001600160a01b03831661308a5760405162461bcd60e51b81526004018080602001828103825260248152602001806145066024913960400191505060405180910390fd5b6001600160a01b0382166130cf5760405162461bcd60e51b81526004018080602001828103825260228152602001806143e26022913960400191505060405180910390fd5b6001600160a01b03808416600081815260076020908152604080832094871680845294825291829020859055815185815291517f8c5be1e5ebec7d5bd14f71427d1e84f3dd0314c0f7b2291e5b200ac8c7c3b9259281900390910190a3505050565b6001600160a01b0383166131765760405162461bcd60e51b81526004018080602001828103825260258152602001806144e16025913960400191505060405180910390fd5b6001600160a01b0382166131bb5760405162461bcd60e51b815260040180806020018281038252602381526020018061436f6023913960400191505060405180910390fd5b600081116131fa5760405162461bcd60e51b81526004018080602001828103825260298152602001806144946029913960400191505060405180910390fd5b601a54600160c81b900460ff161561333b576001600160a01b0382166000908152600b602052604090205460ff1615613274576040805162461bcd60e51b8152602060048201526017602482015276596f752068617665206e6f20706f77657220686572652160481b604482015290519081900360640190fd5b336000908152600b602052604090205460ff16156132d3576040805162461bcd60e51b8152602060048201526017602482015276596f752068617665206e6f20706f77657220686572652160481b604482015290519081900360640190fd5b6001600160a01b0383166000908152600b602052604090205460ff161561333b576040805162461bcd60e51b8152602060048201526017602482015276596f752068617665206e6f20706f77657220686572652160481b604482015290519081900360640190fd5b613343612500565b6001600160a01b0316836001600160a01b03161415801561337d5750613367612500565b6001600160a01b0316826001600160a01b031614155b156136f857601a54600160b01b900460ff16613453576001600160a01b0383163014806133b257506001600160a01b03821630145b806133d557506133c0612500565b6001600160a01b0316836001600160a01b0316145b806133f857506133e3612500565b6001600160a01b0316826001600160a01b0316145b61345357601a54600160b01b900460ff16613453576040805162461bcd60e51b8152602060048201526016602482015275151c98591a5b99c81a5cc81b9bdd08195b98589b195960521b604482015290519081900360640190fd5b601a54600160b81b900460ff1615613536576001600160a01b03831660009081526005602052604090205442601e9091011180156134ae57506001600160a01b038316737a250d5630b4cf539739df2c5dacb4c659f2488d14155b80156134c85750601a546001600160a01b03848116911614155b156134ed576001600160a01b0383166000908152600560205260409020429055613536565b601a54600160b81b900460ff16156135365760405162461bcd60e51b81526004018080602001828103825260278152602001806144046027913960400191505060405180910390fd5b601a54600160c01b900460ff161561362b576001600160a01b038316301480159061356a57506001600160a01b0382163014155b801561358457506019546001600160a01b03848116911614155b801561359e57506019546001600160a01b03838116911614155b1561362b576019546001600160a01b03166135b7613041565b6001600160a01b031614806135e65750601a546001600160a01b03166135db613041565b6001600160a01b0316145b61362b576040805162461bcd60e51b81526020600482015260116024820152704552523a20556e6973776170206f6e6c7960781b604482015290519081900360640190fd5b6010546005014210156136f857601a546001600160a01b0384811691161480159061367357506001600160a01b038316737a250d5630b4cf539739df2c5dacb4c659f2488d14155b801561368d57506019546001600160a01b03848116911614155b156136f8576001600160a01b0383166000818152600b60205260408120805460ff19166001908117909155600c805491820181559091527fdf6966c971051c3d54ec59162606531493a51404a002842f56009d7e5cf4a8c70180546001600160a01b03191690911790555b6000613703306111da565b601c54601a5491925082101590600160a01b900460ff161580156137305750601a54600160a81b900460ff165b80156137395750805b80156137535750601a546001600160a01b03868116911614155b1561377357613761826139cd565b4780156137715761377147613bf4565b505b6001600160a01b03851660009081526008602052604090205460019060ff16806137b557506001600160a01b03851660009081526008602052604090205460ff165b156137be575060005b6137ca86868684613c36565b505050505050565b600081848411156138615760405162461bcd60e51b81526004018080602001828103825283818151815260200191508051906020019080838360005b8381101561382657818101518382015260200161380e565b50505050905090810190601f1680156138535780820380516001836020036101000a031916815260200191505b509250505060405180910390fd5b505050900390565b6000806000613876613daa565b9092509050613885828261388c565b9250505090565b60006138ce83836040518060400160405280601a81526020017f536166654d6174683a206469766973696f6e206279207a65726f000000000000815250613f0d565b9392505050565b6000828201838110156138ce576040805162461bcd60e51b815260206004820152601b60248201527f536166654d6174683a206164646974696f6e206f766572666c6f770000000000604482015290519081900360640190fd5b600080600080600080600080600061394c8a601454601554613f72565b925092509250600061395c613869565b9050600080600061396e8e8786613fc1565b919e509c509a509598509396509194505050505091939550919395565b60006138ce83836040518060400160405280601e81526020017f536166654d6174683a207375627472616374696f6e206f766572666c6f7700008152506137d2565b601a805460ff60a01b1916600160a01b17905560408051600280825260608083018452926020830190803683370190505090503081600081518110613a0e57fe5b6001600160a01b03928316602091820292909201810191909152601954604080516315ab88c960e31b81529051919093169263ad5c4648926004808301939192829003018186803b158015613a6257600080fd5b505afa158015613a76573d6000803e3d6000fd5b505050506040513d6020811015613a8c57600080fd5b5051815182906001908110613a9d57fe5b6001600160a01b039283166020918202929092010152601954613ac39130911684613045565b60195460405163791ac94760e01b8152600481018481526000602483018190523060648401819052426084850181905260a060448601908152875160a487015287516001600160a01b039097169663791ac947968a968a9594939092909160c40190602080880191028083838b5b83811015613b49578181015183820152602001613b31565b505050509050019650505050505050600060405180830381600087803b158015613b7257600080fd5b505af1158015613b86573d6000803e3d6000fd5b5050601a805460ff60a01b1916905550505050565b600082613baa57506000610b49565b82820282848281613bb757fe5b04146138ce5760405162461bcd60e51b815260040180806020018281038252602181526020018061442b6021913960400191505060405180910390fd5b6018546001600160a01b03166108fc613c0e83600261388c565b6040518115909202916000818181858888f19350505050158015610d03573d6000803e3d6000fd5b80613c4357613c43613ffd565b6001600160a01b03841660009081526009602052604090205460ff168015613c8457506001600160a01b03831660009081526009602052604090205460ff16155b15613c9957613c9484848461402f565b613d97565b6001600160a01b03841660009081526009602052604090205460ff16158015613cda57506001600160a01b03831660009081526009602052604090205460ff165b15613cea57613c94848484614153565b6001600160a01b03841660009081526009602052604090205460ff16158015613d2c57506001600160a01b03831660009081526009602052604090205460ff16155b15613d3c57613c948484846141fc565b6001600160a01b03841660009081526009602052604090205460ff168015613d7c57506001600160a01b03831660009081526009602052604090205460ff165b15613d8c57613c94848484614240565b613d978484846141fc565b80613da457613da46142b3565b50505050565b600e54600d546000918291825b600a54811015613edb578260036000600a8481548110613dd357fe5b60009182526020808320909101546001600160a01b031683528201929092526040019020541180613e3857508160046000600a8481548110613e1157fe5b60009182526020808320909101546001600160a01b03168352820192909252604001902054115b15613e4f57600e54600d5494509450505050613f09565b613e8f60036000600a8481548110613e6357fe5b60009182526020808320909101546001600160a01b03168352820192909252604001902054849061398b565b9250613ed160046000600a8481548110613ea557fe5b60009182526020808320909101546001600160a01b03168352820192909252604001902054839061398b565b9150600101613db7565b50600d54600e54613eeb9161388c565b821015613f0357600e54600d54935093505050613f09565b90925090505b9091565b60008183613f5c5760405162461bcd60e51b815260206004820181815283516024840152835190928392604490910191908501908083836000831561382657818101518382015260200161380e565b506000838581613f6857fe5b0495945050505050565b6000808080613f8660646129a68989613b9b565b90506000613f9960646129a68a89613b9b565b90506000613fb182613fab8b8661398b565b9061398b565b9992985090965090945050505050565b6000808080613fd08786613b9b565b90506000613fde8787613b9b565b90506000613fec838361398b565b929992985090965090945050505050565b60145415801561400d5750601554155b156140175761402d565b6014805460165560158054601755600091829055555b565b6000806000806000806140418761392f565b6001600160a01b038f16600090815260046020526040902054959b50939950919750955093509150614073908861398b565b6001600160a01b038a166000908152600460209081526040808320939093556003905220546140a2908761398b565b6001600160a01b03808b1660009081526003602052604080822093909355908a16815220546140d190866138d5565b6001600160a01b0389166000908152600360205260409020556140f3816142c1565b6140fd848361434a565b876001600160a01b0316896001600160a01b03167fddf252ad1be2c89b69c2b068fc378daa952ba7f163c4a11628f55a4df523b3ef856040518082815260200191505060405180910390a3505050505050505050565b6000806000806000806141658761392f565b6001600160a01b038f16600090815260036020526040902054959b50939950919750955093509150614197908761398b565b6001600160a01b03808b16600090815260036020908152604080832094909455918b168152600490915220546141cd90846138d5565b6001600160a01b0389166000908152600460209081526040808320939093556003905220546140d190866138d5565b60008060008060008061420e8761392f565b6001600160a01b038f16600090815260036020526040902054959b509399509197509550935091506140a2908761398b565b6000806000806000806142528761392f565b6001600160a01b038f16600090815260046020526040902054959b50939950919750955093509150614284908861398b565b6001600160a01b038a16600090815260046020908152604080832093909355600390522054614197908761398b565b601654601455601754601555565b60006142cb613869565b905060006142d98383613b9b565b306000908152600360205260409020549091506142f690826138d5565b3060009081526003602090815260408083209390935560099052205460ff1615614345573060009081526004602052604090205461433490846138d5565b306000908152600460205260409020555b505050565b600e54614357908361398b565b600e55600f5461436790826138d5565b600f55505056fe45524332303a207472616e7366657220746f20746865207a65726f2061646472657373416d6f756e74206d757374206265206c657373207468616e20746f74616c207265666c656374696f6e734f776e61626c653a206e6577206f776e657220697320746865207a65726f206164647265737345524332303a20617070726f766520746f20746865207a65726f2061646472657373596f75277265206f6e20636f6f6c646f776e2120333073206265747765656e2074726164657321536166654d6174683a206d756c7469706c69636174696f6e206f766572666c6f7745524332303a207472616e7366657220616d6f756e74206578636565647320616c6c6f77616e63654f776e61626c653a2063616c6c6572206973206e6f7420746865206f776e65725472616e7366657220616d6f756e74206d7573742062652067726561746572207468616e207a65726f57652063616e206e6f7420626c61636b6c69737420556e697377617020726f757465722e45524332303a207472616e736665722066726f6d20746865207a65726f206164647265737345524332303a20617070726f76652066726f6d20746865207a65726f206164647265737357652063616e206e6f74206578636c75646520556e697377617020726f757465722e4578636c75646564206164647265737365732063616e6e6f742063616c6c20746869732066756e6374696f6e45524332303a2064656372656173656420616c6c6f77616e63652062656c6f77207a65726fa2646970667358221220501e8fd6bd48c4c8bb582d0aa56210459d5c3ec927fe300b35fa02ca345aa1f364736f6c634300060c0033"
  }
}