{"compiler":"v0.8.7+commit.e28d00a7","opcodeHash":"0xca148089ea988eb5fbebe91610f62789d5f4f487f71d1d0430fa1c3d34369da8","metalessHash":"0xe0614ba9eb076ca8091b0467a04adf120c9f0b70fc371282bb6e0e6c41407a0b","runtimeHash":"0x362c49ac53b797fca49149c99fa4d90500230c14ae36dbe9187ac5a59efe90aa","encodedMetadata":[{"ipfs":"/ipfs/QmSmmqv8VtjjqvVbRJpz7pPgZe7iTGhq6iXW6oir5hwyrF","solc":"0.8.7"}],"abi":[{"inputs":[{"internalType":"address","name":"_apes","type":"address"}],"stateMutability":"nonpayable","type":"constructor"},{"inputs":[{"internalType":"uint256","name":"_amount","type":"uint256"}],"name":"Buy","outputs":[],"stateMutability":"nonpayable","type":"function"},{"inputs":[],"name":"tokenContract","outputs":[{"internalType":"contract IToken","name":"","type":"address"}],"stateMutability":"view","type":"function"}],"bytecode":{"object":"608060405234801561001057600080fd5b506040516101bc3803806101bc83398101604081905261002f91610054565b600080546001600160a01b0319166001600160a01b0392909216919091179055610084565b60006020828403121561006657600080fd5b81516001600160a01b038116811461007d57600080fd5b9392505050565b610129806100936000396000f3fe6080604052348015600f57600080fd5b506004361060325760003560e01c80633e32821814603757806355a373d6146048575b600080fd5b6046604236600460db565b6076565b005b600054605a906001600160a01b031681565b6040516001600160a01b03909116815260200160405180910390f35b600054604051632770a7eb60e21b8152336004820152602481018390526001600160a01b0390911690639dc29fac90604401600060405180830381600087803b15801560c157600080fd5b505af115801560d4573d6000803e3d6000fd5b5050505050565b60006020828403121560ec57600080fd5b503591905056fea2646970667358221220a80d7686b25c0d7d65b023ad3bd49f5d7b59cf23b01fe347f5be4d8a01f81fe064736f6c63430008070033"}}