{
  "opcodeHash": "0x07a6477b5e41661ee4fd8018a44a8c416ec5a9f091646a5575cc3b6dbf10a050",
  "metalessHash": "0xf047a9586f5cd00bb9c5296a8b9309895ecf4793900a9b769a485cb5d704b54a",
  "runtimeHash": "0x33a2b5f5fa764e0addb3dba2ef35ae67d03fc43be1e5195e32c09bf37bbb4e97",
  "encodedMetadata": [
    {
      "ipfs": "/ipfs/QmdNTBcQ2etsmyesL9Wzn89wEKya7iiGwAGgcrFkWQAWn9",
      "solc": "0.6.12"
    }
  ],
  "abi": [
    {
      "inputs": [
        {
          "internalType": "address payable",
          "name": "devWalletAddress",
          "type": "address"
        },
        {
          "internalType": "address payable",
          "name": "marketingWalletAddress",
          "type": "address"
        }
      ],
      "stateMutability": "nonpayable",
      "type": "constructor"
    },
    {
      "anonymous": false,
      "inputs": [
        {
          "indexed": true,
          "internalType": "address",
          "name": "owner",
          "type": "address"
        },
        {
          "indexed": true,
          "internalType": "address",
          "name": "spender",
          "type": "address"
        },
        {
          "indexed": false,
          "internalType": "uint256",
          "name": "value",
          "type": "uint256"
        }
      ],
      "name": "Approval",
      "type": "event"
    },
    {
      "anonymous": false,
      "inputs": [
        {
          "indexed": true,
          "internalType": "address",
          "name": "previousOwner",
          "type": "address"
        },
        {
          "indexed": true,
          "internalType": "address",
          "name": "newOwner",
          "type": "address"
        }
      ],
      "name": "OwnershipTransferred",
      "type": "event"
    },
    {
      "anonymous": false,
      "inputs": [
        {
          "indexed": true,
          "internalType": "address",
          "name": "from",
          "type": "address"
        },
        {
          "indexed": true,
          "internalType": "address",
          "name": "to",
          "type": "address"
        },
        {
          "indexed": false,
          "internalType": "uint256",
          "name": "value",
          "type": "uint256"
        }
      ],
      "name": "Transfer",
      "type": "event"
    },
    {
      "anonymous": false,
      "inputs": [
        {
          "indexed": false,
          "internalType": "address",
          "name": "account",
          "type": "address"
        }
      ],
      "name": "botAddedToBlacklist",
      "type": "event"
    },
    {
      "anonymous": false,
      "inputs": [
        {
          "indexed": false,
          "internalType": "address",
          "name": "account",
          "type": "address"
        }
      ],
      "name": "botRemovedFromBlacklist",
      "type": "event"
    },
    {
      "inputs": [],
      "name": "_devWalletAddress",
      "outputs": [
        {
          "internalType": "address payable",
          "name": "",
          "type": "address"
        }
      ],
      "stateMutability": "view",
      "type": "function"
    },
    {
      "inputs": [],
      "name": "_getETHBalance",
      "outputs": [
        {
          "internalType": "uint256",
          "name": "balance",
          "type": "uint256"
        }
      ],
      "stateMutability": "view",
      "type": "function"
    },
    {
      "inputs": [],
      "name": "_getMaxTxAmount",
      "outputs": [
        {
          "internalType": "uint256",
          "name": "",
          "type": "uint256"
        }
      ],
      "stateMutability": "view",
      "type": "function"
    },
    {
      "inputs": [],
      "name": "_getTaxFee",
      "outputs": [
        {
          "internalType": "uint256",
          "name": "",
          "type": "uint256"
        }
      ],
      "stateMutability": "view",
      "type": "function"
    },
    {
      "inputs": [],
      "name": "_getTeamFee",
      "outputs": [
        {
          "internalType": "uint256",
          "name": "",
          "type": "uint256"
        }
      ],
      "stateMutability": "view",
      "type": "function"
    },
    {
      "inputs": [],
      "name": "_marketingWalletAddress",
      "outputs": [
        {
          "internalType": "address payable",
          "name": "",
          "type": "address"
        }
      ],
      "stateMutability": "view",
      "type": "function"
    },
    {
      "inputs": [
        {
          "internalType": "address payable",
          "name": "devWalletAddress",
          "type": "address"
        }
      ],
      "name": "_setDevWallet",
      "outputs": [],
      "stateMutability": "nonpayable",
      "type": "function"
    },
    {
      "inputs": [
        {
          "internalType": "address payable",
          "name": "marketingWalletAddress",
          "type": "address"
        }
      ],
      "name": "_setMarketingWallet",
      "outputs": [],
      "stateMutability": "nonpayable",
      "type": "function"
    },
    {
      "inputs": [
        {
          "internalType": "uint256",
          "name": "maxTxAmount",
          "type": "uint256"
        }
      ],
      "name": "_setMaxTxAmount",
      "outputs": [],
      "stateMutability": "nonpayable",
      "type": "function"
    },
    {
      "inputs": [
        {
          "internalType": "uint256",
          "name": "maxWalletSize",
          "type": "uint256"
        }
      ],
      "name": "_setMaxWalletSize",
      "outputs": [],
      "stateMutability": "nonpayable",
      "type": "function"
    },
    {
      "inputs": [
        {
          "internalType": "uint256",
          "name": "taxFee",
          "type": "uint256"
        }
      ],
      "name": "_setTaxFee",
      "outputs": [],
      "stateMutability": "nonpayable",
      "type": "function"
    },
    {
      "inputs": [
        {
          "internalType": "uint256",
          "name": "teamFee",
          "type": "uint256"
        }
      ],
      "name": "_setTeamFee",
      "outputs": [],
      "stateMutability": "nonpayable",
      "type": "function"
    },
    {
      "inputs": [
        {
          "internalType": "address",
          "name": "account",
          "type": "address"
        }
      ],
      "name": "addBotToBlacklist",
      "outputs": [],
      "stateMutability": "nonpayable",
      "type": "function"
    },
    {
      "inputs": [
        {
          "internalType": "address",
          "name": "owner",
          "type": "address"
        },
        {
          "internalType": "address",
          "name": "spender",
          "type": "address"
        }
      ],
      "name": "allowance",
      "outputs": [
        {
          "internalType": "uint256",
          "name": "",
          "type": "uint256"
        }
      ],
      "stateMutability": "view",
      "type": "function"
    },
    {
      "inputs": [
        {
          "internalType": "address",
          "name": "spender",
          "type": "address"
        },
        {
          "internalType": "uint256",
          "name": "amount",
          "type": "uint256"
        }
      ],
      "name": "approve",
      "outputs": [
        {
          "internalType": "bool",
          "name": "",
          "type": "bool"
        }
      ],
      "stateMutability": "nonpayable",
      "type": "function"
    },
    {
      "inputs": [
        {
          "internalType": "address",
          "name": "account",
          "type": "address"
        }
      ],
      "name": "balanceOf",
      "outputs": [
        {
          "internalType": "uint256",
          "name": "",
          "type": "uint256"
        }
      ],
      "stateMutability": "view",
      "type": "function"
    },
    {
      "inputs": [],
      "name": "decimals",
      "outputs": [
        {
          "internalType": "uint8",
          "name": "",
          "type": "uint8"
        }
      ],
      "stateMutability": "pure",
      "type": "function"
    },
    {
      "inputs": [
        {
          "internalType": "address",
          "name": "spender",
          "type": "address"
        },
        {
          "internalType": "uint256",
          "name": "subtractedValue",
          "type": "uint256"
        }
      ],
      "name": "decreaseAllowance",
      "outputs": [
        {
          "internalType": "bool",
          "name": "",
          "type": "bool"
        }
      ],
      "stateMutability": "nonpayable",
      "type": "function"
    },
    {
      "inputs": [
        {
          "internalType": "uint256",
          "name": "tAmount",
          "type": "uint256"
        }
      ],
      "name": "deliver",
      "outputs": [],
      "stateMutability": "nonpayable",
      "type": "function"
    },
    {
      "inputs": [
        {
          "internalType": "address",
          "name": "account",
          "type": "address"
        }
      ],
      "name": "excludeAccount",
      "outputs": [],
      "stateMutability": "nonpayable",
      "type": "function"
    },
    {
      "inputs": [],
      "name": "getUnlockTime",
      "outputs": [
        {
          "internalType": "uint256",
          "name": "",
          "type": "uint256"
        }
      ],
      "stateMutability": "view",
      "type": "function"
    },
    {
      "inputs": [
        {
          "internalType": "address",
          "name": "account",
          "type": "address"
        }
      ],
      "name": "includeAccount",
      "outputs": [],
      "stateMutability": "nonpayable",
      "type": "function"
    },
    {
      "inputs": [
        {
          "internalType": "address",
          "name": "spender",
          "type": "address"
        },
        {
          "internalType": "uint256",
          "name": "addedValue",
          "type": "uint256"
        }
      ],
      "name": "increaseAllowance",
      "outputs": [
        {
          "internalType": "bool",
          "name": "",
          "type": "bool"
        }
      ],
      "stateMutability": "nonpayable",
      "type": "function"
    },
    {
      "inputs": [
        {
          "internalType": "address",
          "name": "account",
          "type": "address"
        }
      ],
      "name": "isExcluded",
      "outputs": [
        {
          "internalType": "bool",
          "name": "",
          "type": "bool"
        }
      ],
      "stateMutability": "view",
      "type": "function"
    },
    {
      "inputs": [
        {
          "internalType": "address",
          "name": "account",
          "type": "address"
        }
      ],
      "name": "isExcludedFromFee",
      "outputs": [
        {
          "internalType": "bool",
          "name": "",
          "type": "bool"
        }
      ],
      "stateMutability": "view",
      "type": "function"
    },
    {
      "inputs": [],
      "name": "manualSend",
      "outputs": [],
      "stateMutability": "nonpayable",
      "type": "function"
    },
    {
      "inputs": [],
      "name": "manualSwap",
      "outputs": [],
      "stateMutability": "nonpayable",
      "type": "function"
    },
    {
      "inputs": [],
      "name": "name",
      "outputs": [
        {
          "internalType": "string",
          "name": "",
          "type": "string"
        }
      ],
      "stateMutability": "pure",
      "type": "function"
    },
    {
      "inputs": [],
      "name": "owner",
      "outputs": [
        {
          "internalType": "address",
          "name": "",
          "type": "address"
        }
      ],
      "stateMutability": "view",
      "type": "function"
    },
    {
      "inputs": [
        {
          "internalType": "uint256",
          "name": "tAmount",
          "type": "uint256"
        },
        {
          "internalType": "bool",
          "name": "deductTransferFee",
          "type": "bool"
        }
      ],
      "name": "reflectionFromToken",
      "outputs": [
        {
          "internalType": "uint256",
          "name": "",
          "type": "uint256"
        }
      ],
      "stateMutability": "view",
      "type": "function"
    },
    {
      "inputs": [
        {
          "internalType": "address",
          "name": "account",
          "type": "address"
        }
      ],
      "name": "removeBotFromBlacklist",
      "outputs": [],
      "stateMutability": "nonpayable",
      "type": "function"
    },
    {
      "inputs": [],
      "name": "renounceOwnership",
      "outputs": [],
      "stateMutability": "nonpayable",
      "type": "function"
    },
    {
      "inputs": [
        {
          "internalType": "address",
          "name": "account",
          "type": "address"
        },
        {
          "internalType": "bool",
          "name": "excluded",
          "type": "bool"
        }
      ],
      "name": "setExcludeFromFee",
      "outputs": [],
      "stateMutability": "nonpayable",
      "type": "function"
    },
    {
      "inputs": [
        {
          "internalType": "bool",
          "name": "enabled",
          "type": "bool"
        }
      ],
      "name": "setSwapEnabled",
      "outputs": [],
      "stateMutability": "nonpayable",
      "type": "function"
    },
    {
      "inputs": [],
      "name": "swapEnabled",
      "outputs": [
        {
          "internalType": "bool",
          "name": "",
          "type": "bool"
        }
      ],
      "stateMutability": "view",
      "type": "function"
    },
    {
      "inputs": [],
      "name": "symbol",
      "outputs": [
        {
          "internalType": "string",
          "name": "",
          "type": "string"
        }
      ],
      "stateMutability": "pure",
      "type": "function"
    },
    {
      "inputs": [
        {
          "internalType": "uint256",
          "name": "rAmount",
          "type": "uint256"
        }
      ],
      "name": "tokenFromReflection",
      "outputs": [
        {
          "internalType": "uint256",
          "name": "",
          "type": "uint256"
        }
      ],
      "stateMutability": "view",
      "type": "function"
    },
    {
      "inputs": [],
      "name": "totalFees",
      "outputs": [
        {
          "internalType": "uint256",
          "name": "",
          "type": "uint256"
        }
      ],
      "stateMutability": "view",
      "type": "function"
    },
    {
      "inputs": [],
      "name": "totalSupply",
      "outputs": [
        {
          "internalType": "uint256",
          "name": "",
          "type": "uint256"
        }
      ],
      "stateMutability": "view",
      "type": "function"
    },
    {
      "inputs": [
        {
          "internalType": "address",
          "name": "recipient",
          "type": "address"
        },
        {
          "internalType": "uint256",
          "name": "amount",
          "type": "uint256"
        }
      ],
      "name": "transfer",
      "outputs": [
        {
          "internalType": "bool",
          "name": "",
          "type": "bool"
        }
      ],
      "stateMutability": "nonpayable",
      "type": "function"
    },
    {
      "inputs": [
        {
          "internalType": "address",
          "name": "sender",
          "type": "address"
        },
        {
          "internalType": "address",
          "name": "recipient",
          "type": "address"
        },
        {
          "internalType": "uint256",
          "name": "amount",
          "type": "uint256"
        }
      ],
      "name": "transferFrom",
      "outputs": [
        {
          "internalType": "bool",
          "name": "",
          "type": "bool"
        }
      ],
      "stateMutability": "nonpayable",
      "type": "function"
    },
    {
      "inputs": [
        {
          "internalType": "address",
          "name": "newOwner",
          "type": "address"
        }
      ],
      "name": "transferOwnership",
      "outputs": [],
      "stateMutability": "nonpayable",
      "type": "function"
    },
    {
      "inputs": [],
      "name": "uniswapV2Pair",
      "outputs": [
        {
          "internalType": "address",
          "name": "",
          "type": "address"
        }
      ],
      "stateMutability": "view",
      "type": "function"
    },
    {
      "inputs": [],
      "name": "uniswapV2Router",
      "outputs": [
        {
          "internalType": "contract IUniswapV2Router02",
          "name": "",
          "type": "address"
        }
      ],
      "stateMutability": "view",
      "type": "function"
    },
    {
      "stateMutability": "payable",
      "type": "receive"
    }
  ],
  "bytecode": {
    "object": "60c06040526307ba25ff19600b556001600d819055600e819055600f8190556010556012805461ffff60a01b1916600160a81b179055629896806013556301c9c3806014553480156200005157600080fd5b506040516200344938038062003449833981810160405260408110156200007757600080fd5b50805160209091015160006200008c62000385565b600080546001600160a01b0319166001600160a01b0383169081178255604051929350917f8be0079c531659141344cd1fd0a4f28419497f9722a3daafe3b4186f6b6457e0908290a350601180546001600160a01b038085166001600160a01b0319928316179092556012805492841692909116919091179055600b54600360006200011762000385565b6001600160a01b03166001600160a01b03168152602001908152602001600020819055506000737a250d5630b4cf539739df2c5dacb4c659f2488d9050806001600160a01b031663c45a01556040518163ffffffff1660e01b815260040160206040518083038186803b1580156200018e57600080fd5b505afa158015620001a3573d6000803e3d6000fd5b505050506040513d6020811015620001ba57600080fd5b5051604080516315ab88c960e31b815290516001600160a01b039283169263c9c653969230929186169163ad5c464891600480820192602092909190829003018186803b1580156200020b57600080fd5b505afa15801562000220573d6000803e3d6000fd5b505050506040513d60208110156200023757600080fd5b5051604080516001600160e01b031960e086901b1681526001600160a01b0393841660048201529290911660248301525160448083019260209291908290030181600087803b1580156200028a57600080fd5b505af11580156200029f573d6000803e3d6000fd5b505050506040513d6020811015620002b657600080fd5b50516001600160601b0319606091821b811660a0529082901b16608052600160066000620002e362000389565b6001600160a01b0316815260208082019290925260409081016000908120805494151560ff1995861617905530815260069092529020805490911660011790556200032d62000385565b6001600160a01b031660006001600160a01b03167fddf252ad1be2c89b69c2b068fc378daa952ba7f163c4a11628f55a4df523b3ef633b9aca006040518082815260200191505060405180910390a350505062000398565b3390565b6000546001600160a01b031690565b60805160601c60a05160601c61306e620003db600039806110a35280611fc552806120bf525080610a9952806123d2528061248a52806124b1525061306e6000f3fe60806040526004361061026b5760003560e01c8063602bc62b11610144578063b030b34a116100b6578063f2cc0c181161007a578063f2cc0c18146108f2578063f2fde38b14610925578063f429389014610958578063f7a915911461096d578063f815a84214610982578063f84354f11461099757610272565b8063b030b34a14610810578063b425bac314610843578063cba0e99614610858578063dd62ed3e1461088b578063e01af92c146108c657610272565b806395d89b411161010857806395d89b411461070f5780639e6c752914610724578063a457c2d71461074e578063a5e8c95414610787578063a9059cbb1461079c578063af9549e0146107d557610272565b8063602bc62b146106885780636ddd17131461069d57806370a08231146106b2578063715018a6146106e55780638da5cb5b146106fa57610272565b80632d838119116101dd5780634144d9e4116101a15780634144d9e4146105ba5780634549b039146105cf57806349bd5a5e1461060157806351bc3c85146106165780635342acb41461062b5780635880b8731461065e57610272565b80632d838119146104ed5780632fbff03014610517578063313ce5671461052c57806339509351146105575780633bd5d1731461059057610272565b806318160ddd1161022f57806318160ddd146103db5780631bbae6e0146103f05780631d7ef8791461041a5780631ff53b601461044d57806323b872dd1461048057806328667162146104c357610272565b806306fdde0314610277578063095ea7b3146103015780630a1f8ea81461034e57806313114a9d146103835780631694505e146103aa57610272565b3661027257005b600080fd5b34801561028357600080fd5b5061028c6109ca565b6040805160208082528351818301528351919283929083019185019080838360005b838110156102c65781810151838201526020016102ae565b50505050905090810190601f1680156102f35780820380516001836020036101000a031916815260200191505b509250505060405180910390f35b34801561030d57600080fd5b5061033a6004803603604081101561032457600080fd5b506001600160a01b0381351690602001356109f9565b604080519115158252519081900360200190f35b34801561035a57600080fd5b506103816004803603602081101561037157600080fd5b50356001600160a01b0316610a17565b005b34801561038f57600080fd5b50610398610a91565b60408051918252519081900360200190f35b3480156103b657600080fd5b506103bf610a97565b604080516001600160a01b039092168252519081900360200190f35b3480156103e757600080fd5b50610398610abb565b3480156103fc57600080fd5b506103816004803603602081101561041357600080fd5b5035610ac3565b34801561042657600080fd5b506103816004803603602081101561043d57600080fd5b50356001600160a01b0316610b20565b34801561045957600080fd5b506103816004803603602081101561047057600080fd5b50356001600160a01b0316610ca8565b34801561048c57600080fd5b5061033a600480360360608110156104a357600080fd5b506001600160a01b03813581169160208101359091169060400135610d22565b3480156104cf57600080fd5b50610381600480360360208110156104e657600080fd5b5035610da9565b3480156104f957600080fd5b506103986004803603602081101561051057600080fd5b5035610e69565b34801561052357600080fd5b50610398610ecb565b34801561053857600080fd5b50610541610ed1565b6040805160ff9092168252519081900360200190f35b34801561056357600080fd5b5061033a6004803603604081101561057a57600080fd5b506001600160a01b038135169060200135610ed6565b34801561059c57600080fd5b50610381600480360360208110156105b357600080fd5b5035610f24565b3480156105c657600080fd5b506103bf610ffe565b3480156105db57600080fd5b50610398600480360360408110156105f257600080fd5b5080359060200135151561100d565b34801561060d57600080fd5b506103bf6110a1565b34801561062257600080fd5b506103816110c5565b34801561063757600080fd5b5061033a6004803603602081101561064e57600080fd5b50356001600160a01b0316611136565b34801561066a57600080fd5b506103816004803603602081101561068157600080fd5b5035611154565b34801561069457600080fd5b50610398611214565b3480156106a957600080fd5b5061033a61121a565b3480156106be57600080fd5b50610398600480360360208110156106d557600080fd5b50356001600160a01b031661122a565b3480156106f157600080fd5b5061038161128c565b34801561070657600080fd5b506103bf61132e565b34801561071b57600080fd5b5061028c61133d565b34801561073057600080fd5b506103816004803603602081101561074757600080fd5b503561135b565b34801561075a57600080fd5b5061033a6004803603604081101561077157600080fd5b506001600160a01b0381351690602001356113b8565b34801561079357600080fd5b50610398611420565b3480156107a857600080fd5b5061033a600480360360408110156107bf57600080fd5b506001600160a01b038135169060200135611426565b3480156107e157600080fd5b50610381600480360360408110156107f857600080fd5b506001600160a01b038135169060200135151561143a565b34801561081c57600080fd5b506103816004803603602081101561083357600080fd5b50356001600160a01b03166114bd565b34801561084f57600080fd5b506103bf611675565b34801561086457600080fd5b5061033a6004803603602081101561087b57600080fd5b50356001600160a01b0316611684565b34801561089757600080fd5b50610398600480360360408110156108ae57600080fd5b506001600160a01b03813581169160200135166116a2565b3480156108d257600080fd5b50610381600480360360208110156108e957600080fd5b503515156116cd565b3480156108fe57600080fd5b506103816004803603602081101561091557600080fd5b50356001600160a01b0316611743565b34801561093157600080fd5b506103816004803603602081101561094857600080fd5b50356001600160a01b0316611925565b34801561096457600080fd5b50610381611a1d565b34801561097957600080fd5b50610398611a7f565b34801561098e57600080fd5b50610398611a85565b3480156109a357600080fd5b50610381600480360360208110156109ba57600080fd5b50356001600160a01b0316611a89565b60408051808201909152601581527425bcb632902934ba3a32b73437bab9b29021b7b4b760591b602082015290565b6000610a0d610a06611c1f565b8484611c23565b5060015b92915050565b610a1f611c1f565b6000546001600160a01b03908116911614610a6f576040805162461bcd60e51b81526020600482018190526024820152600080516020612f34833981519152604482015290519081900360640190fd5b601180546001600160a01b0319166001600160a01b0392909216919091179055565b600c5490565b7f000000000000000000000000000000000000000000000000000000000000000081565b633b9aca0090565b610acb611c1f565b6000546001600160a01b03908116911614610b1b576040805162461bcd60e51b81526020600482018190526024820152600080516020612f34833981519152604482015290519081900360640190fd5b601355565b610b28611c1f565b6000546001600160a01b03908116911614610b78576040805162461bcd60e51b81526020600482018190526024820152600080516020612f34833981519152604482015290519081900360640190fd5b737a250d5630b4cf539739df2c5dacb4c659f2488d6001600160a01b0382161415610bd45760405162461bcd60e51b8152600401808060200182810382526022815260200180612eea6022913960400191505060405180910390fd5b6001600160a01b03811660009081526009602052604090205460ff1615610c42576040805162461bcd60e51b815260206004820152601e60248201527f4163636f756e7420697320616c726561647920626c61636b6c69737465640000604482015290519081900360640190fd5b6001600160a01b03166000818152600960205260408120805460ff19166001908117909155600a805491820181559091527fc65a7bb8d6351c1cf70c95a316cc6a92839c986682d98bc35f958f4883f9d2a80180546001600160a01b0319169091179055565b610cb0611c1f565b6000546001600160a01b03908116911614610d00576040805162461bcd60e51b81526020600482018190526024820152600080516020612f34833981519152604482015290519081900360640190fd5b601280546001600160a01b0319166001600160a01b0392909216919091179055565b6000610d2f848484611d0f565b610d9f84610d3b611c1f565b610d9a85604051806060016040528060288152602001612f0c602891396001600160a01b038a16600090815260056020526040812090610d79611c1f565b6001600160a01b031681526020810191909152604001600020549190612173565b611c23565b5060019392505050565b610db1611c1f565b6000546001600160a01b03908116911614610e01576040805162461bcd60e51b81526020600482018190526024820152600080516020612f34833981519152604482015290519081900360640190fd5b60018110158015610e13575060198111155b610e64576040805162461bcd60e51b815260206004820152601b60248201527f7465616d4665652073686f756c6420626520696e2031202d2032350000000000604482015290519081900360640190fd5b600e55565b6000600b54821115610eac5760405162461bcd60e51b815260040180806020018281038252602a815260200180612e0d602a913960400191505060405180910390fd5b6000610eb661220a565b9050610ec2838261222d565b9150505b919050565b600d5490565b600090565b6000610a0d610ee3611c1f565b84610d9a8560056000610ef4611c1f565b6001600160a01b03908116825260208083019390935260409182016000908120918c168152925290205490612276565b6000610f2e611c1f565b6001600160a01b03811660009081526007602052604090205490915060ff1615610f895760405162461bcd60e51b815260040180806020018281038252602c815260200180612fe8602c913960400191505060405180910390fd5b6000610f94836122d0565b505050506001600160a01b038416600090815260036020526040902054919250610fc09190508261232d565b6001600160a01b038316600090815260036020526040902055600b54610fe6908261232d565b600b55600c54610ff69084612276565b600c55505050565b6012546001600160a01b031681565b6000633b9aca00831115611068576040805162461bcd60e51b815260206004820152601f60248201527f416d6f756e74206d757374206265206c657373207468616e20737570706c7900604482015290519081900360640190fd5b81611087576000611078846122d0565b50939550610a11945050505050565b6000611092846122d0565b50929550610a11945050505050565b7f000000000000000000000000000000000000000000000000000000000000000081565b6110cd611c1f565b6000546001600160a01b0390811691161461111d576040805162461bcd60e51b81526020600482018190526024820152600080516020612f34833981519152604482015290519081900360640190fd5b60006111283061122a565b90506111338161236f565b50565b6001600160a01b031660009081526006602052604090205460ff1690565b61115c611c1f565b6000546001600160a01b039081169116146111ac576040805162461bcd60e51b81526020600482018190526024820152600080516020612f34833981519152604482015290519081900360640190fd5b600181101580156111be575060198111155b61120f576040805162461bcd60e51b815260206004820152601a60248201527f7461784665652073686f756c6420626520696e2031202d203235000000000000604482015290519081900360640190fd5b600d55565b60025490565b601254600160a81b900460ff1681565b6001600160a01b03811660009081526007602052604081205460ff161561126a57506001600160a01b038116600090815260046020526040902054610ec6565b6001600160a01b038216600090815260036020526040902054610a1190610e69565b611294611c1f565b6000546001600160a01b039081169116146112e4576040805162461bcd60e51b81526020600482018190526024820152600080516020612f34833981519152604482015290519081900360640190fd5b600080546040516001600160a01b03909116907f8be0079c531659141344cd1fd0a4f28419497f9722a3daafe3b4186f6b6457e0908390a3600080546001600160a01b0319169055565b6000546001600160a01b031690565b6040805180820190915260048152634b796c6560e01b602082015290565b611363611c1f565b6000546001600160a01b039081169116146113b3576040805162461bcd60e51b81526020600482018190526024820152600080516020612f34833981519152604482015290519081900360640190fd5b601455565b6000610a0d6113c5611c1f565b84610d9a8560405180606001604052806025815260200161301460259139600560006113ef611c1f565b6001600160a01b03908116825260208083019390935260409182016000908120918d16815292529020549190612173565b600e5490565b6000610a0d611433611c1f565b8484611d0f565b611442611c1f565b6000546001600160a01b03908116911614611492576040805162461bcd60e51b81526020600482018190526024820152600080516020612f34833981519152604482015290519081900360640190fd5b6001600160a01b03919091166000908152600660205260409020805460ff1916911515919091179055565b6114c5611c1f565b6000546001600160a01b03908116911614611515576040805162461bcd60e51b81526020600482018190526024820152600080516020612f34833981519152604482015290519081900360640190fd5b6001600160a01b03811660009081526009602052604090205460ff16611582576040805162461bcd60e51b815260206004820152601a60248201527f4163636f756e74206973206e6f7420626c61636b6c6973746564000000000000604482015290519081900360640190fd5b60005b600a5481101561167157816001600160a01b0316600a82815481106115a657fe5b6000918252602090912001546001600160a01b0316141561166957600a805460001981019081106115d357fe5b600091825260209091200154600a80546001600160a01b0390921691839081106115f957fe5b600091825260208083209190910180546001600160a01b0319166001600160a01b039485161790559184168152600990915260409020805460ff19169055600a80548061164257fe5b600082815260209020810160001990810180546001600160a01b0319169055019055611671565b600101611585565b5050565b6011546001600160a01b031681565b6001600160a01b031660009081526007602052604090205460ff1690565b6001600160a01b03918216600090815260056020908152604080832093909416825291909152205490565b6116d5611c1f565b6000546001600160a01b03908116911614611725576040805162461bcd60e51b81526020600482018190526024820152600080516020612f34833981519152604482015290519081900360640190fd5b60128054911515600160a81b0260ff60a81b19909216919091179055565b61174b611c1f565b6000546001600160a01b0390811691161461179b576040805162461bcd60e51b81526020600482018190526024820152600080516020612f34833981519152604482015290519081900360640190fd5b737a250d5630b4cf539739df2c5dacb4c659f2488d6001600160a01b03821614156117f75760405162461bcd60e51b8152600401808060200182810382526022815260200180612fc66022913960400191505060405180910390fd5b6001600160a01b03811660009081526007602052604090205460ff1615611865576040805162461bcd60e51b815260206004820152601b60248201527f4163636f756e7420697320616c7265616479206578636c756465640000000000604482015290519081900360640190fd5b6001600160a01b038116600090815260036020526040902054156118bf576001600160a01b0381166000908152600360205260409020546118a590610e69565b6001600160a01b0382166000908152600460205260409020555b6001600160a01b03166000818152600760205260408120805460ff191660019081179091556008805491820181559091527ff3f7a9fe364faab93b216da50a3214154f22a0a2b415b23a84c8169e8b636ee30180546001600160a01b0319169091179055565b61192d611c1f565b6000546001600160a01b0390811691161461197d576040805162461bcd60e51b81526020600482018190526024820152600080516020612f34833981519152604482015290519081900360640190fd5b6001600160a01b0381166119c25760405162461bcd60e51b8152600401808060200182810382526026815260200180612e376026913960400191505060405180910390fd5b600080546040516001600160a01b03808516939216917f8be0079c531659141344cd1fd0a4f28419497f9722a3daafe3b4186f6b6457e091a3600080546001600160a01b0319166001600160a01b0392909216919091179055565b611a25611c1f565b6000546001600160a01b03908116911614611a75576040805162461bcd60e51b81526020600482018190526024820152600080516020612f34833981519152604482015290519081900360640190fd5b47611133816125a6565b60135490565b4790565b611a91611c1f565b6000546001600160a01b03908116911614611ae1576040805162461bcd60e51b81526020600482018190526024820152600080516020612f34833981519152604482015290519081900360640190fd5b6001600160a01b03811660009081526007602052604090205460ff16611b4e576040805162461bcd60e51b815260206004820152601760248201527f4163636f756e74206973206e6f74206578636c75646564000000000000000000604482015290519081900360640190fd5b60005b60085481101561167157816001600160a01b031660088281548110611b7257fe5b6000918252602090912001546001600160a01b03161415611c1757600880546000198101908110611b9f57fe5b600091825260209091200154600880546001600160a01b039092169183908110611bc557fe5b600091825260208083209190910180546001600160a01b0319166001600160a01b039485161790559184168152600482526040808220829055600790925220805460ff19169055600880548061164257fe5b600101611b51565b3390565b6001600160a01b038316611c685760405162461bcd60e51b8152600401808060200182810382526024815260200180612fa26024913960400191505060405180910390fd5b6001600160a01b038216611cad5760405162461bcd60e51b8152600401808060200182810382526022815260200180612e5d6022913960400191505060405180910390fd5b6001600160a01b03808416600081815260056020908152604080832094871680845294825291829020859055815185815291517f8c5be1e5ebec7d5bd14f71427d1e84f3dd0314c0f7b2291e5b200ac8c7c3b9259281900390910190a3505050565b6001600160a01b038316611d545760405162461bcd60e51b8152600401808060200182810382526025815260200180612f7d6025913960400191505060405180910390fd5b6001600160a01b038216611d995760405162461bcd60e51b8152600401808060200182810382526023815260200180612dea6023913960400191505060405180910390fd5b60008111611dd85760405162461bcd60e51b8152600401808060200182810382526029815260200180612f546029913960400191505060405180910390fd5b6001600160a01b03831660009081526009602052604090205460ff1615611e3c576040805162461bcd60e51b8152602060048201526013602482015272165bdd48185c9948189b1858dadb1a5cdd1959606a1b604482015290519081900360640190fd5b3360009081526009602052604090205460ff1615611e97576040805162461bcd60e51b8152602060048201526013602482015272165bdd48185c9948189b1858dadb1a5cdd1959606a1b604482015290519081900360640190fd5b3260009081526009602052604090205460ff1615611ef2576040805162461bcd60e51b8152602060048201526013602482015272165bdd48185c9948189b1858dadb1a5cdd1959606a1b604482015290519081900360640190fd5b611efa61132e565b6001600160a01b0316836001600160a01b031614158015611f345750611f1e61132e565b6001600160a01b0316826001600160a01b031614155b15611f7a57601354811115611f7a5760405162461bcd60e51b8152600401808060200182810382526028815260200180612ea16028913960400191505060405180910390fd5b611f8261132e565b6001600160a01b0316836001600160a01b031614158015611fbc5750611fa661132e565b6001600160a01b0316826001600160a01b031614155b8015611ffa57507f00000000000000000000000000000000000000000000000000000000000000006001600160a01b0316826001600160a01b031614155b801561201157506001600160a01b03821661dead14155b156120685760006120218361122a565b905060145482820111156120665760405162461bcd60e51b8152600401808060200182810382526022815260200180612e7f6022913960400191505060405180910390fd5b505b60006120733061122a565b9050601354811061208357506013545b601254611b5882101590600160a01b900460ff161580156120ad5750601254600160a81b900460ff165b80156120b65750805b80156120f457507f00000000000000000000000000000000000000000000000000000000000000006001600160a01b0316856001600160a01b031614155b15612114576121028261236f565b47801561211257612112476125a6565b505b6001600160a01b03851660009081526006602052604090205460019060ff168061215657506001600160a01b03851660009081526006602052604090205460ff165b1561215f575060005b61216b86868684612636565b505050505050565b600081848411156122025760405162461bcd60e51b81526004018080602001828103825283818151815260200191508051906020019080838360005b838110156121c75781810151838201526020016121af565b50505050905090810190601f1680156121f45780820380516001836020036101000a031916815260200191505b509250505060405180910390fd5b505050900390565b60008060006122176127aa565b9092509050612226828261222d565b9250505090565b600061226f83836040518060400160405280601a81526020017f536166654d6174683a206469766973696f6e206279207a65726f000000000000815250612915565b9392505050565b60008282018381101561226f576040805162461bcd60e51b815260206004820152601b60248201527f536166654d6174683a206164646974696f6e206f766572666c6f770000000000604482015290519081900360640190fd5b60008060008060008060008060006122ed8a600d54600e5461297a565b92509250925060006122fd61220a565b905060008060006123108e8787876129cf565b919e509c509a509598509396509194505050505091939550919395565b600061226f83836040518060400160405280601e81526020017f536166654d6174683a207375627472616374696f6e206f766572666c6f770000815250612173565b6012805460ff60a01b1916600160a01b179055604080516002808252606080830184529260208301908036833701905050905030816000815181106123b057fe5b60200260200101906001600160a01b031690816001600160a01b0316815250507f00000000000000000000000000000000000000000000000000000000000000006001600160a01b031663ad5c46486040518163ffffffff1660e01b815260040160206040518083038186803b15801561242957600080fd5b505afa15801561243d573d6000803e3d6000fd5b505050506040513d602081101561245357600080fd5b505181518290600190811061246457fe5b60200260200101906001600160a01b031690816001600160a01b0316815250506124af307f000000000000000000000000000000000000000000000000000000000000000084611c23565b7f00000000000000000000000000000000000000000000000000000000000000006001600160a01b031663791ac9478360008430426040518663ffffffff1660e01b81526004018086815260200185815260200180602001846001600160a01b03168152602001838152602001828103825285818151815260200191508051906020019060200280838360005b8381101561255457818101518382015260200161253c565b505050509050019650505050505050600060405180830381600087803b15801561257d57600080fd5b505af1158015612591573d6000803e3d6000fd5b50506012805460ff60a01b1916905550505050565b6011546001600160a01b03166108fc6125c083600561222d565b6040518115909202916000818181858888f193505050501580156125e8573d6000803e3d6000fd5b506012546001600160a01b03166108fc61260e600861260885600a61222d565b90612a1f565b6040518115909202916000818181858888f19350505050158015611671573d6000803e3d6000fd5b8061264357612643612a78565b6001600160a01b03841660009081526007602052604090205460ff16801561268457506001600160a01b03831660009081526007602052604090205460ff16155b1561269957612694848484612aaa565b612797565b6001600160a01b03841660009081526007602052604090205460ff161580156126da57506001600160a01b03831660009081526007602052604090205460ff165b156126ea57612694848484612bce565b6001600160a01b03841660009081526007602052604090205460ff1615801561272c57506001600160a01b03831660009081526007602052604090205460ff16155b1561273c57612694848484612c77565b6001600160a01b03841660009081526007602052604090205460ff16801561277c57506001600160a01b03831660009081526007602052604090205460ff165b1561278c57612694848484612cbb565b612797848484612c77565b806127a4576127a4612d2e565b50505050565b600b546000908190633b9aca00825b6008548110156128df578260036000600884815481106127d557fe5b60009182526020808320909101546001600160a01b03168352820192909252604001902054118061283a575081600460006008848154811061281357fe5b60009182526020808320909101546001600160a01b03168352820192909252604001902054115b1561285357600b54633b9aca0094509450505050612911565b612893600360006008848154811061286757fe5b60009182526020808320909101546001600160a01b03168352820192909252604001902054849061232d565b92506128d560046000600884815481106128a957fe5b60009182526020808320909101546001600160a01b03168352820192909252604001902054839061232d565b91506001016127b9565b50600b546128f190633b9aca0061222d565b82101561290b57600b54633b9aca00935093505050612911565b90925090505b9091565b600081836129645760405162461bcd60e51b81526020600482018181528351602484015283519092839260449091019190850190808383600083156121c75781810151838201526020016121af565b50600083858161297057fe5b0495945050505050565b6000808080612994606461298e8989612a1f565b9061222d565b905060006129a7606461298e8a89612a1f565b905060006129bf826129b98b8661232d565b9061232d565b9992985090965090945050505050565b60008080806129de8886612a1f565b905060006129ec8887612a1f565b905060006129fa8888612a1f565b90506000612a0c826129b9868661232d565b939b939a50919850919650505050505050565b600082612a2e57506000610a11565b82820282848281612a3b57fe5b041461226f5760405162461bcd60e51b8152600401808060200182810382526021815260200180612ec96021913960400191505060405180910390fd5b600d54158015612a885750600e54155b15612a9257612aa8565b600d8054600f55600e8054601055600091829055555b565b600080600080600080612abc876122d0565b6001600160a01b038f16600090815260046020526040902054959b50939950919750955093509150612aee908861232d565b6001600160a01b038a16600090815260046020908152604080832093909355600390522054612b1d908761232d565b6001600160a01b03808b1660009081526003602052604080822093909355908a1681522054612b4c9086612276565b6001600160a01b038916600090815260036020526040902055612b6e81612d3c565b612b788483612dc5565b876001600160a01b0316896001600160a01b03167fddf252ad1be2c89b69c2b068fc378daa952ba7f163c4a11628f55a4df523b3ef856040518082815260200191505060405180910390a3505050505050505050565b600080600080600080612be0876122d0565b6001600160a01b038f16600090815260036020526040902054959b50939950919750955093509150612c12908761232d565b6001600160a01b03808b16600090815260036020908152604080832094909455918b16815260049091522054612c489084612276565b6001600160a01b038916600090815260046020908152604080832093909355600390522054612b4c9086612276565b600080600080600080612c89876122d0565b6001600160a01b038f16600090815260036020526040902054959b50939950919750955093509150612b1d908761232d565b600080600080600080612ccd876122d0565b6001600160a01b038f16600090815260046020526040902054959b50939950919750955093509150612cff908861232d565b6001600160a01b038a16600090815260046020908152604080832093909355600390522054612c12908761232d565b600f54600d55601054600e55565b6000612d4661220a565b90506000612d548383612a1f565b30600090815260036020526040902054909150612d719082612276565b3060009081526003602090815260408083209390935560079052205460ff1615612dc05730600090815260046020526040902054612daf9084612276565b306000908152600460205260409020555b505050565b600b54612dd2908361232d565b600b55600c54612de29082612276565b600c55505056fe45524332303a207472616e7366657220746f20746865207a65726f2061646472657373416d6f756e74206d757374206265206c657373207468616e20746f74616c207265666c656374696f6e734f776e61626c653a206e6577206f776e657220697320746865207a65726f206164647265737345524332303a20617070726f766520746f20746865207a65726f2061646472657373526563697069656e742065786365656473206d61782077616c6c65742073697a652e5472616e7366657220616d6f756e74206578636565647320746865206d61785478416d6f756e742e536166654d6174683a206d756c7469706c69636174696f6e206f766572666c6f7757652063616e6e6f7420626c61636b6c69737420556e695377617020726f7574657245524332303a207472616e7366657220616d6f756e74206578636565647320616c6c6f77616e63654f776e61626c653a2063616c6c6572206973206e6f7420746865206f776e65725472616e7366657220616d6f756e74206d7573742062652067726561746572207468616e207a65726f45524332303a207472616e736665722066726f6d20746865207a65726f206164647265737345524332303a20617070726f76652066726f6d20746865207a65726f206164647265737357652063616e206e6f74206578636c75646520556e697377617020726f757465722e4578636c75646564206164647265737365732063616e6e6f742063616c6c20746869732066756e6374696f6e45524332303a2064656372656173656420616c6c6f77616e63652062656c6f77207a65726fa26469706673582212205b3718ad5a5f5bdc1b18944e780f967db111ffe737470fd9db35bf49b9c7f95e64736f6c634300060c0033"
  }
}