{
  "opcodeHash": "0x3aedb02de2686ca1e85a796787ea32f1e75c499baaf096d0af0b51d49f5500bf",
  "metalessHash": "0x34c3a80665156ac8eee647620a9d8265b6ed3b9b71080ce905f1b591140bf43d",
  "runtimeHash": "0x0c9f08b86ab3a0ad5243752b24d9859473c89782419a1dfffe9fd3a38c6a3d6c",
  "encodedMetadata": [
    {
      "bzzr1": "/swarm/bzzr1/013790680977a1d5d556326b132fbc33c26b7a3445eb646fe167987d94f60972",
      "solc": "0.5.16"
    }
  ],
  "abi": [
    {
      "inputs": [
        {
          "internalType": "address",
          "name": "_owner",
          "type": "address"
        },
        {
          "internalType": "address",
          "name": "_associatedContract",
          "type": "address"
        }
      ],
      "payable": false,
      "stateMutability": "nonpayable",
      "type": "constructor"
    },
    {
      "anonymous": false,
      "inputs": [
        {
          "indexed": false,
          "internalType": "address",
          "name": "associatedContract",
          "type": "address"
        }
      ],
      "name": "AssociatedContractUpdated",
      "type": "event"
    },
    {
      "anonymous": false,
      "inputs": [
        {
          "indexed": false,
          "internalType": "address",
          "name": "oldOwner",
          "type": "address"
        },
        {
          "indexed": false,
          "internalType": "address",
          "name": "newOwner",
          "type": "address"
        }
      ],
      "name": "OwnerChanged",
      "type": "event"
    },
    {
      "anonymous": false,
      "inputs": [
        {
          "indexed": false,
          "internalType": "address",
          "name": "newOwner",
          "type": "address"
        }
      ],
      "name": "OwnerNominated",
      "type": "event"
    },
    {
      "constant": false,
      "inputs": [],
      "name": "acceptOwnership",
      "outputs": [],
      "payable": false,
      "stateMutability": "nonpayable",
      "type": "function"
    },
    {
      "constant": true,
      "inputs": [],
      "name": "associatedContract",
      "outputs": [
        {
          "internalType": "address",
          "name": "",
          "type": "address"
        }
      ],
      "payable": false,
      "stateMutability": "view",
      "type": "function"
    },
    {
      "constant": false,
      "inputs": [
        {
          "components": [
            {
              "internalType": "uint256",
              "name": "id",
              "type": "uint256"
            },
            {
              "internalType": "address payable",
              "name": "account",
              "type": "address"
            },
            {
              "internalType": "uint256",
              "name": "collateral",
              "type": "uint256"
            },
            {
              "internalType": "bytes32",
              "name": "currency",
              "type": "bytes32"
            },
            {
              "internalType": "uint256",
              "name": "amount",
              "type": "uint256"
            },
            {
              "internalType": "bool",
              "name": "short",
              "type": "bool"
            },
            {
              "internalType": "uint256",
              "name": "accruedInterest",
              "type": "uint256"
            },
            {
              "internalType": "uint256",
              "name": "interestIndex",
              "type": "uint256"
            },
            {
              "internalType": "uint256",
              "name": "lastInteraction",
              "type": "uint256"
            }
          ],
          "internalType": "struct ICollateralLoan.Loan",
          "name": "loan",
          "type": "tuple"
        }
      ],
      "name": "createLoan",
      "outputs": [],
      "payable": false,
      "stateMutability": "nonpayable",
      "type": "function"
    },
    {
      "constant": true,
      "inputs": [
        {
          "internalType": "address",
          "name": "account",
          "type": "address"
        },
        {
          "internalType": "uint256",
          "name": "loanID",
          "type": "uint256"
        }
      ],
      "name": "getLoan",
      "outputs": [
        {
          "components": [
            {
              "internalType": "uint256",
              "name": "id",
              "type": "uint256"
            },
            {
              "internalType": "address payable",
              "name": "account",
              "type": "address"
            },
            {
              "internalType": "uint256",
              "name": "collateral",
              "type": "uint256"
            },
            {
              "internalType": "bytes32",
              "name": "currency",
              "type": "bytes32"
            },
            {
              "internalType": "uint256",
              "name": "amount",
              "type": "uint256"
            },
            {
              "internalType": "bool",
              "name": "short",
              "type": "bool"
            },
            {
              "internalType": "uint256",
              "name": "accruedInterest",
              "type": "uint256"
            },
            {
              "internalType": "uint256",
              "name": "interestIndex",
              "type": "uint256"
            },
            {
              "internalType": "uint256",
              "name": "lastInteraction",
              "type": "uint256"
            }
          ],
          "internalType": "struct ICollateralLoan.Loan",
          "name": "",
          "type": "tuple"
        }
      ],
      "payable": false,
      "stateMutability": "view",
      "type": "function"
    },
    {
      "constant": true,
      "inputs": [
        {
          "internalType": "address",
          "name": "account",
          "type": "address"
        }
      ],
      "name": "getNumLoans",
      "outputs": [
        {
          "internalType": "uint256",
          "name": "numLoans",
          "type": "uint256"
        }
      ],
      "payable": false,
      "stateMutability": "view",
      "type": "function"
    },
    {
      "constant": true,
      "inputs": [
        {
          "internalType": "address",
          "name": "",
          "type": "address"
        },
        {
          "internalType": "uint256",
          "name": "",
          "type": "uint256"
        }
      ],
      "name": "loans",
      "outputs": [
        {
          "internalType": "uint256",
          "name": "id",
          "type": "uint256"
        },
        {
          "internalType": "address payable",
          "name": "account",
          "type": "address"
        },
        {
          "internalType": "uint256",
          "name": "collateral",
          "type": "uint256"
        },
        {
          "internalType": "bytes32",
          "name": "currency",
          "type": "bytes32"
        },
        {
          "internalType": "uint256",
          "name": "amount",
          "type": "uint256"
        },
        {
          "internalType": "bool",
          "name": "short",
          "type": "bool"
        },
        {
          "internalType": "uint256",
          "name": "accruedInterest",
          "type": "uint256"
        },
        {
          "internalType": "uint256",
          "name": "interestIndex",
          "type": "uint256"
        },
        {
          "internalType": "uint256",
          "name": "lastInteraction",
          "type": "uint256"
        }
      ],
      "payable": false,
      "stateMutability": "view",
      "type": "function"
    },
    {
      "constant": false,
      "inputs": [
        {
          "internalType": "address",
          "name": "_owner",
          "type": "address"
        }
      ],
      "name": "nominateNewOwner",
      "outputs": [],
      "payable": false,
      "stateMutability": "nonpayable",
      "type": "function"
    },
    {
      "constant": true,
      "inputs": [],
      "name": "nominatedOwner",
      "outputs": [
        {
          "internalType": "address",
          "name": "",
          "type": "address"
        }
      ],
      "payable": false,
      "stateMutability": "view",
      "type": "function"
    },
    {
      "constant": true,
      "inputs": [],
      "name": "owner",
      "outputs": [
        {
          "internalType": "address",
          "name": "",
          "type": "address"
        }
      ],
      "payable": false,
      "stateMutability": "view",
      "type": "function"
    },
    {
      "constant": false,
      "inputs": [
        {
          "internalType": "address",
          "name": "_associatedContract",
          "type": "address"
        }
      ],
      "name": "setAssociatedContract",
      "outputs": [],
      "payable": false,
      "stateMutability": "nonpayable",
      "type": "function"
    },
    {
      "constant": false,
      "inputs": [
        {
          "components": [
            {
              "internalType": "uint256",
              "name": "id",
              "type": "uint256"
            },
            {
              "internalType": "address payable",
              "name": "account",
              "type": "address"
            },
            {
              "internalType": "uint256",
              "name": "collateral",
              "type": "uint256"
            },
            {
              "internalType": "bytes32",
              "name": "currency",
              "type": "bytes32"
            },
            {
              "internalType": "uint256",
              "name": "amount",
              "type": "uint256"
            },
            {
              "internalType": "bool",
              "name": "short",
              "type": "bool"
            },
            {
              "internalType": "uint256",
              "name": "accruedInterest",
              "type": "uint256"
            },
            {
              "internalType": "uint256",
              "name": "interestIndex",
              "type": "uint256"
            },
            {
              "internalType": "uint256",
              "name": "lastInteraction",
              "type": "uint256"
            }
          ],
          "internalType": "struct ICollateralLoan.Loan",
          "name": "loan",
          "type": "tuple"
        }
      ],
      "name": "updateLoan",
      "outputs": [],
      "payable": false,
      "stateMutability": "nonpayable",
      "type": "function"
    }
  ],
  "bytecode": {
    "object": "60806040523480156200001157600080fd5b5060405162000f6c38038062000f6c83398101604081905262000034916200015a565b80826001600160a01b038116620000685760405162461bcd60e51b81526004016200005f9062000267565b60405180910390fd5b600080546001600160a01b0319166001600160a01b0383161781556040517fb532073b38c83145e3e5135377a08bf9aab55bc0fd7c1179cd4fb995d2a5159c91620000b59184906200022f565b60405180910390a1506000546001600160a01b0316620000e95760405162461bcd60e51b81526004016200005f9062000255565b600280546001600160a01b0319166001600160a01b0383161790556040517f73f20cff579e8a4086fa607db83867595f1b6a798e718c0bfa0b94a404128e0390620001369083906200021f565b60405180910390a1505050620002c2565b80516200015481620002a8565b92915050565b600080604083850312156200016e57600080fd5b60006200017c858562000147565b92505060206200018f8582860162000147565b9150509250929050565b620001a48162000294565b82525050565b620001a48162000282565b6000620001c460118362000279565b7013dddb995c881b5d5cdd081899481cd95d607a1b815260200192915050565b6000620001f360198362000279565b7f4f776e657220616464726573732063616e6e6f74206265203000000000000000815260200192915050565b60208101620001548284620001aa565b604081016200023f828562000199565b6200024e6020830184620001aa565b9392505050565b602080825281016200015481620001b5565b602080825281016200015481620001e4565b90815260200190565b60006001600160a01b03821662000154565b600062000154826000620001548262000282565b620002b38162000282565b8114620002bf57600080fd5b50565b610c9a80620002d26000396000f3fe608060405234801561001057600080fd5b50600436106100a95760003560e01c806379ba50971161007157806379ba50971461011a5780638da5cb5b1461012257806398c61c371461012a578063a1c5158614610152578063aefc4ccb14610172578063e0b6adbc1461017a576100a9565b80631627540c146100ae57806344dce41c146100c357806352f445ca146100d657806353a47bb7146100e95780635c33120414610107575b600080fd5b6100c16100bc36600461088c565b61019a565b005b6100c16100d13660046108ec565b6101f8565b6100c16100e436600461088c565b610352565b6100f16103a5565b6040516100fe9190610adc565b60405180910390f35b6100c16101153660046108ec565b6103b4565b6100c161048d565b6100f1610529565b61013d6101383660046108b2565b610538565b6040516100fe99989796959493929190610b59565b6101656101603660046108b2565b6105ad565b6040516100fe9190610b3c565b6100f16106e4565b61018d61018836600461088c565b6106f3565b6040516100fe9190610b4b565b6101a261070e565b600180546001600160a01b0319166001600160a01b0383161790556040517f906a1c6bd7e3091ea86693dd029a831c19049ce77f1dce2ce0bab1cacbabce22906101ed908390610adc565b60405180910390a150565b6002546001600160a01b0316331461022b5760405162461bcd60e51b815260040161022290610b2c565b60405180910390fd5b6020808201516001600160a01b03166000908152600390915260408120905b815481101561034d57826000015182828154811061026457fe5b906000526020600020906009020160000154141561034557826003600085602001516001600160a01b03166001600160a01b0316815260200190815260200160002082815481106102b157fe5b6000918252602091829020835160099290920201908155908201516001820180546001600160a01b0319166001600160a01b0390921691909117905560408201516002820155606082015160038201556080820151600482015560a082015160058201805460ff191691151591909117905560c0820151600682015560e08201516007820155610100909101516008909101555b60010161024a565b505050565b61035a61070e565b600280546001600160a01b0319166001600160a01b0383161790556040517f73f20cff579e8a4086fa607db83867595f1b6a798e718c0bfa0b94a404128e03906101ed908390610adc565b6001546001600160a01b031681565b6002546001600160a01b031633146103de5760405162461bcd60e51b815260040161022290610b2c565b602081810180516001600160a01b03908116600090815260038085526040808320805460018082018355918552969093208751600990970201958655935191850180546001600160a01b03191692909316919091179091559083015160028301556060830151908201556080820151600482015560a082015160058201805460ff191691151591909117905560c0820151600682015560e0820151600782015561010090910151600890910155565b6001546001600160a01b031633146104b75760405162461bcd60e51b815260040161022290610b0c565b6000546001546040517fb532073b38c83145e3e5135377a08bf9aab55bc0fd7c1179cd4fb995d2a5159c926104fa926001600160a01b0391821692911690610aea565b60405180910390a160018054600080546001600160a01b03199081166001600160a01b03841617909155169055565b6000546001600160a01b031681565b6003602052816000526040600020818154811061055157fe5b60009182526020909120600990910201805460018201546002830154600384015460048501546005860154600687015460078801546008909801549699506001600160a01b03909516975092959194909360ff90931692919089565b6105b561073a565b6001600160a01b0383166000908152600360209081526040808320805482518185028101850190935280835260609492939192909184015b82821015610683576000848152602090819020604080516101208101825260098602909201805483526001808201546001600160a01b0316848601526002820154928401929092526003810154606084015260048101546080840152600581015460ff16151560a0840152600681015460c0840152600781015460e08401526008015461010083015290835290920191016105ed565b509293506000925050505b81518110156106db57838282815181106106a457fe5b60200260200101516000015114156106d3578181815181106106c257fe5b6020026020010151925050506106de565b60010161068e565b50505b92915050565b6002546001600160a01b031681565b6001600160a01b031660009081526003602052604090205490565b6000546001600160a01b031633146107385760405162461bcd60e51b815260040161022290610b1c565b565b6040518061012001604052806000815260200160006001600160a01b031681526020016000815260200160008019168152602001600081526020016000151581526020016000815260200160008152602001600081525090565b80356106de81610c2e565b80356106de81610c45565b80356106de81610c4e565b600061012082840312156107c857600080fd5b6107d3610120610bdf565b905060006107e184846107aa565b82525060206107f284848301610794565b6020830152506040610806848285016107aa565b604083015250606061081a848285016107aa565b606083015250608061082e848285016107aa565b60808301525060a06108428482850161079f565b60a08301525060c0610856848285016107aa565b60c08301525060e061086a848285016107aa565b60e08301525061010061087f848285016107aa565b6101008301525092915050565b60006020828403121561089e57600080fd5b60006108aa8484610794565b949350505050565b600080604083850312156108c557600080fd5b60006108d18585610794565b92505060206108e2858286016107aa565b9150509250929050565b600061012082840312156108ff57600080fd5b60006108aa84846107b5565b61091481610c0f565b82525050565b61091481610c1a565b61091481610c1f565b6000610939603583610c06565b7f596f75206d757374206265206e6f6d696e61746564206265666f726520796f7581527402063616e20616363657074206f776e65727368697605c1b602082015260400192915050565b6000610990602f83610c06565b7f4f6e6c792074686520636f6e7472616374206f776e6572206d6179207065726681526e37b936903a3434b99030b1ba34b7b760891b602082015260400192915050565b60006109e1603483610c06565b7f4f6e6c7920746865206173736f63696174656420636f6e74726163742063616e815273103832b93337b936903a3434b99030b1ba34b7b760611b602082015260400192915050565b8051610120830190610a3c8482610923565b506020820151610a4f602085018261090b565b506040820151610a626040850182610923565b506060820151610a756060850182610923565b506080820151610a886080850182610923565b5060a0820151610a9b60a085018261091a565b5060c0820151610aae60c0850182610923565b5060e0820151610ac160e0850182610923565b50610100820151610ad6610100850182610923565b50505050565b602081016106de828461090b565b60408101610af8828561090b565b610b05602083018461090b565b9392505050565b602080825281016106de8161092c565b602080825281016106de81610983565b602080825281016106de816109d4565b61012081016106de8284610a2a565b602081016106de8284610923565b6101208101610b68828c610923565b610b75602083018b61090b565b610b82604083018a610923565b610b8f6060830189610923565b610b9c6080830188610923565b610ba960a083018761091a565b610bb660c0830186610923565b610bc360e0830185610923565b610bd1610100830184610923565b9a9950505050505050505050565b60405181810167ffffffffffffffff81118282101715610bfe57600080fd5b604052919050565b90815260200190565b60006106de82610c22565b151590565b90565b6001600160a01b031690565b610c3781610c0f565b8114610c4257600080fd5b50565b610c3781610c1a565b610c3781610c1f56fea365627a7a7231582050cb86113074d6a167e3a795511819fb0256c0b717afdc64dec5d1338cb2011e6c6578706572696d656e74616cf564736f6c63430005100040"
  }
}