{"compiler":"v0.5.16+commit.9c3226ce","opcodeHash":"0xd7b6bbf8e9dff62780365bfbd65beb801c4d311083aaf7c987f8e331a5cd1ac3","metalessHash":"0x1e921d7353c589e108f8b809651b47c28820ece9fde80637d95f747ab3f567f9","runtimeHash":"0x4aeb8b005a506b79548c0a41af9305a566ca2d35885ca1689d0bdb0ffe98e1fe","encodedMetadata":[{"bzzr1":"/swarm/bzzr1/55a41070d871a9ef481a33e3caec686c7f16116a553ebc972a8821ef39a8f81b","solc":"0.5.16"}],"abi":[{"inputs":[{"internalType":"address","name":"_owner","type":"address"},{"internalType":"address","name":"_rewardsDistribution","type":"address"},{"internalType":"address","name":"_rewardsToken","type":"address"},{"internalType":"address","name":"_stakingToken","type":"address"}],"payable":false,"stateMutability":"nonpayable","type":"constructor"},{"anonymous":false,"inputs":[{"indexed":false,"internalType":"address","name":"oldOwner","type":"address"},{"indexed":false,"internalType":"address","name":"newOwner","type":"address"}],"name":"OwnerChanged","type":"event"},{"anonymous":false,"inputs":[{"indexed":false,"internalType":"address","name":"newOwner","type":"address"}],"name":"OwnerNominated","type":"event"},{"anonymous":false,"inputs":[{"indexed":false,"internalType":"bool","name":"isPaused","type":"bool"}],"name":"PauseChanged","type":"event"},{"anonymous":false,"inputs":[{"indexed":false,"internalType":"address","name":"token","type":"address"},{"indexed":false,"internalType":"uint256","name":"amount","type":"uint256"}],"name":"Recovered","type":"event"},{"anonymous":false,"inputs":[{"indexed":false,"internalType":"uint256","name":"reward","type":"uint256"}],"name":"RewardAdded","type":"event"},{"anonymous":false,"inputs":[{"indexed":true,"internalType":"address","name":"user","type":"address"},{"indexed":false,"internalType":"uint256","name":"reward","type":"uint256"}],"name":"RewardPaid","type":"event"},{"anonymous":false,"inputs":[{"indexed":false,"internalType":"uint256","name":"newDuration","type":"uint256"}],"name":"RewardsDurationUpdated","type":"event"},{"anonymous":false,"inputs":[{"indexed":true,"internalType":"address","name":"user","type":"address"},{"indexed":false,"internalType":"uint256","name":"amount","type":"uint256"}],"name":"Staked","type":"event"},{"anonymous":false,"inputs":[{"indexed":true,"internalType":"address","name":"user","type":"address"},{"indexed":false,"internalType":"uint256","name":"amount","type":"uint256"}],"name":"Withdrawn","type":"event"},{"constant":false,"inputs":[],"name":"acceptOwnership","outputs":[],"payable":false,"stateMutability":"nonpayable","type":"function"},{"constant":true,"inputs":[{"internalType":"address","name":"account","type":"address"}],"name":"balanceOf","outputs":[{"internalType":"uint256","name":"","type":"uint256"}],"payable":false,"stateMutability":"view","type":"function"},{"constant":true,"inputs":[{"internalType":"address","name":"account","type":"address"}],"name":"earned","outputs":[{"internalType":"uint256","name":"","type":"uint256"}],"payable":false,"stateMutability":"view","type":"function"},{"constant":false,"inputs":[],"name":"exit","outputs":[],"payable":false,"stateMutability":"nonpayable","type":"function"},{"constant":false,"inputs":[],"name":"getReward","outputs":[],"payable":false,"stateMutability":"nonpayable","type":"function"},{"constant":true,"inputs":[],"name":"getRewardForDuration","outputs":[{"internalType":"uint256","name":"","type":"uint256"}],"payable":false,"stateMutability":"view","type":"function"},{"constant":true,"inputs":[],"name":"lastPauseTime","outputs":[{"internalType":"uint256","name":"","type":"uint256"}],"payable":false,"stateMutability":"view","type":"function"},{"constant":true,"inputs":[],"name":"lastTimeRewardApplicable","outputs":[{"internalType":"uint256","name":"","type":"uint256"}],"payable":false,"stateMutability":"view","type":"function"},{"constant":true,"inputs":[],"name":"lastUpdateTime","outputs":[{"internalType":"uint256","name":"","type":"uint256"}],"payable":false,"stateMutability":"view","type":"function"},{"constant":false,"inputs":[{"internalType":"address","name":"_owner","type":"address"}],"name":"nominateNewOwner","outputs":[],"payable":false,"stateMutability":"nonpayable","type":"function"},{"constant":true,"inputs":[],"name":"nominatedOwner","outputs":[{"internalType":"address","name":"","type":"address"}],"payable":false,"stateMutability":"view","type":"function"},{"constant":false,"inputs":[{"internalType":"uint256","name":"reward","type":"uint256"}],"name":"notifyRewardAmount","outputs":[],"payable":false,"stateMutability":"nonpayable","type":"function"},{"constant":true,"inputs":[],"name":"owner","outputs":[{"internalType":"address","name":"","type":"address"}],"payable":false,"stateMutability":"view","type":"function"},{"constant":true,"inputs":[],"name":"paused","outputs":[{"internalType":"bool","name":"","type":"bool"}],"payable":false,"stateMutability":"view","type":"function"},{"constant":true,"inputs":[],"name":"periodFinish","outputs":[{"internalType":"uint256","name":"","type":"uint256"}],"payable":false,"stateMutability":"view","type":"function"},{"constant":false,"inputs":[{"internalType":"address","name":"tokenAddress","type":"address"},{"internalType":"uint256","name":"tokenAmount","type":"uint256"}],"name":"recoverERC20","outputs":[],"payable":false,"stateMutability":"nonpayable","type":"function"},{"constant":true,"inputs":[],"name":"rewardPerToken","outputs":[{"internalType":"uint256","name":"","type":"uint256"}],"payable":false,"stateMutability":"view","type":"function"},{"constant":true,"inputs":[],"name":"rewardPerTokenStored","outputs":[{"internalType":"uint256","name":"","type":"uint256"}],"payable":false,"stateMutability":"view","type":"function"},{"constant":true,"inputs":[],"name":"rewardRate","outputs":[{"internalType":"uint256","name":"","type":"uint256"}],"payable":false,"stateMutability":"view","type":"function"},{"constant":true,"inputs":[{"internalType":"address","name":"","type":"address"}],"name":"rewards","outputs":[{"internalType":"uint256","name":"","type":"uint256"}],"payable":false,"stateMutability":"view","type":"function"},{"constant":true,"inputs":[],"name":"rewardsDistribution","outputs":[{"internalType":"address","name":"","type":"address"}],"payable":false,"stateMutability":"view","type":"function"},{"constant":true,"inputs":[],"name":"rewardsDuration","outputs":[{"internalType":"uint256","name":"","type":"uint256"}],"payable":false,"stateMutability":"view","type":"function"},{"constant":true,"inputs":[],"name":"rewardsToken","outputs":[{"internalType":"contract IERC20","name":"","type":"address"}],"payable":false,"stateMutability":"view","type":"function"},{"constant":false,"inputs":[{"internalType":"bool","name":"_paused","type":"bool"}],"name":"setPaused","outputs":[],"payable":false,"stateMutability":"nonpayable","type":"function"},{"constant":false,"inputs":[{"internalType":"address","name":"_rewardsDistribution","type":"address"}],"name":"setRewardsDistribution","outputs":[],"payable":false,"stateMutability":"nonpayable","type":"function"},{"constant":false,"inputs":[{"internalType":"uint256","name":"_rewardsDuration","type":"uint256"}],"name":"setRewardsDuration","outputs":[],"payable":false,"stateMutability":"nonpayable","type":"function"},{"constant":false,"inputs":[{"internalType":"uint256","name":"amount","type":"uint256"}],"name":"stake","outputs":[],"payable":false,"stateMutability":"nonpayable","type":"function"},{"constant":true,"inputs":[],"name":"stakingToken","outputs":[{"internalType":"contract IERC20","name":"","type":"address"}],"payable":false,"stateMutability":"view","type":"function"},{"constant":true,"inputs":[],"name":"totalSupply","outputs":[{"internalType":"uint256","name":"","type":"uint256"}],"payable":false,"stateMutability":"view","type":"function"},{"constant":false,"inputs":[{"internalType":"uint256","name":"timestamp","type":"uint256"}],"name":"updatePeriodFinish","outputs":[],"payable":false,"stateMutability":"nonpayable","type":"function"},{"constant":true,"inputs":[{"internalType":"address","name":"","type":"address"}],"name":"userRewardPerTokenPaid","outputs":[{"internalType":"uint256","name":"","type":"uint256"}],"payable":false,"stateMutability":"view","type":"function"},{"constant":false,"inputs":[{"internalType":"uint256","name":"amount","type":"uint256"}],"name":"withdraw","outputs":[],"payable":false,"stateMutability":"nonpayable","type":"function"}],"bytecode":{"object":"60806040526000600755600060085562093a8060095534801561002157600080fd5b506040516118e33803806118e38339818101604052608081101561004457600080fd5b5080516020820151604083015160609093015191929091836001600160a01b0381166100b7576040805162461bcd60e51b815260206004820152601960248201527f4f776e657220616464726573732063616e6e6f74206265203000000000000000604482015290519081900360640190fd5b600080546001600160a01b0319166001600160a01b038316908117825560408051928352602083019190915280517fb532073b38c83145e3e5135377a08bf9aab55bc0fd7c1179cd4fb995d2a5159c9281900390910190a15060016003556000546001600160a01b0316610166576040805162461bcd60e51b815260206004820152601160248201527013dddb995c881b5d5cdd081899481cd95d607a1b604482015290519081900360640190fd5b600580546001600160a01b0393841661010002610100600160a81b0319909116179055600680549183166001600160a01b03199283161790556002805493909216921691909117905550611724806101bf6000396000f3fe608060405234801561001057600080fd5b50600436106101ef5760003560e01c806372f702f31161010f578063a694fc3a116100a2578063d1af0c7d11610071578063d1af0c7d14610470578063df136d6514610478578063e9fad8ee14610480578063ebe2b12b14610488576101ef565b8063a694fc3a14610426578063c8f33c9114610443578063cc1a378f1461044b578063cd3daf9d14610468576101ef565b80638980f11f116100de5780638980f11f146103c45780638b876347146103f05780638da5cb5b1461041657806391b4ded91461041e576101ef565b806372f702f3146103a457806379ba5097146103ac5780637b0a47ee146103b457806380faa57d146103bc576101ef565b8063386a95251161018757806353a47bb71161015657806353a47bb71461033d578063556f6e6b146103455780635c975abb1461036257806370a082311461037e576101ef565b8063386a9525146102ec5780633c6b16ab146102f45780633d18b912146103115780633fc6df6e14610319576101ef565b806318160ddd116101c357806318160ddd1461029957806319762143146102a15780631c1f78eb146102c75780632e1a7d4d146102cf576101ef565b80628cc262146101f45780630700037d1461022c5780631627540c1461025257806316c38b3c1461027a575b600080fd5b61021a6004803603602081101561020a57600080fd5b50356001600160a01b0316610490565b60408051918252519081900360200190f35b61021a6004803603602081101561024257600080fd5b50356001600160a01b0316610526565b6102786004803603602081101561026857600080fd5b50356001600160a01b0316610538565b005b6102786004803603602081101561029057600080fd5b50351515610594565b61021a61060e565b610278600480360360208110156102b757600080fd5b50356001600160a01b0316610615565b61021a61063f565b610278600480360360208110156102e557600080fd5b503561065d565b61021a6107ff565b6102786004803603602081101561030a57600080fd5b5035610805565b610278610a5b565b610321610b99565b604080516001600160a01b039092168252519081900360200190f35b610321610ba8565b6102786004803603602081101561035b57600080fd5b5035610bb7565b61036a610c21565b604080519115158252519081900360200190f35b61021a6004803603602081101561039457600080fd5b50356001600160a01b0316610c2a565b610321610c45565b610278610c54565b61021a610d10565b61021a610d16565b610278600480360360408110156103da57600080fd5b506001600160a01b038135169060200135610d24565b61021a6004803603602081101561040657600080fd5b50356001600160a01b0316610de1565b610321610df3565b61021a610e02565b6102786004803603602081101561043c57600080fd5b5035610e08565b61021a610fe6565b6102786004803603602081101561046157600080fd5b5035610fec565b61021a61106f565b6103216110c9565b61021a6110dd565b6102786110e3565b61021a611106565b6001600160a01b0381166000908152600d6020908152604080832054600c909252822054610520919061051490670de0b6b3a764000090610508906104e3906104d761106f565b9063ffffffff61110c16565b6001600160a01b0388166000908152600f60205260409020549063ffffffff61116916565b9063ffffffff6111c916565b9063ffffffff61123316565b92915050565b600d6020526000908152604090205481565b61054061128d565b600180546001600160a01b0383166001600160a01b0319909116811790915560408051918252517f906a1c6bd7e3091ea86693dd029a831c19049ce77f1dce2ce0bab1cacbabce229181900360200190a150565b61059c61128d565b60055460ff16151581151514156105b25761060b565b6005805460ff1916821515179081905560ff16156105cf57426004555b6005546040805160ff90921615158252517f8fb6c181ee25a520cf3dd6565006ef91229fcfe5a989566c2a3b8c115570cec59181900360200190a15b50565b600e545b90565b61061d61128d565b600280546001600160a01b0319166001600160a01b0392909216919091179055565b600061065860095460085461116990919063ffffffff16565b905090565b60038054600101908190553361067161106f565b600b5561067c610d16565b600a556001600160a01b038116156106c35761069781610490565b6001600160a01b0382166000908152600d6020908152604080832093909355600b54600c909152919020555b6000831161070c576040805162461bcd60e51b8152602060048201526011602482015270043616e6e6f74207769746864726177203607c1b604482015290519081900360640190fd5b600e5461071f908463ffffffff61110c16565b600e55336000908152600f6020526040902054610742908463ffffffff61110c16565b336000818152600f602052604090209190915560065461076e916001600160a01b0390911690856112d6565b60408051848152905133917f7084f5476618d8e60b11ef0d7d3f06914655adb8793e28ff7f018d4c76d505d5919081900360200190a25060035481146107fb576040805162461bcd60e51b815260206004820152601f60248201527f5265656e7472616e637947756172643a207265656e7472616e742063616c6c00604482015290519081900360640190fd5b5050565b60095481565b6002546001600160a01b0316331461084e5760405162461bcd60e51b815260040180806020018281038252602a81526020018061167b602a913960400191505060405180910390fd5b600061085861106f565b600b55610863610d16565b600a556001600160a01b038116156108aa5761087e81610490565b6001600160a01b0382166000908152600d6020908152604080832093909355600b54600c909152919020555b60075442106108cf576009546108c790839063ffffffff6111c916565b60085561091e565b6007546000906108e5904263ffffffff61110c16565b905060006108fe6008548361116990919063ffffffff16565b60095490915061091890610508868463ffffffff61123316565b60085550505b600554604080516370a0823160e01b8152306004820152905160009261010090046001600160a01b0316916370a08231916024808301926020929190829003018186803b15801561096e57600080fd5b505afa158015610982573d6000803e3d6000fd5b505050506040513d602081101561099857600080fd5b50516009549091506109b190829063ffffffff6111c916565b6008541115610a07576040805162461bcd60e51b815260206004820152601860248201527f50726f76696465642072657761726420746f6f20686967680000000000000000604482015290519081900360640190fd5b42600a819055600954610a20919063ffffffff61123316565b6007556040805184815290517fde88a922e0d3b88b24e9623efeb464919c6bf9f66857a65e2bfcf2ce87a9433d9181900360200190a1505050565b600380546001019081905533610a6f61106f565b600b55610a7a610d16565b600a556001600160a01b03811615610ac157610a9581610490565b6001600160a01b0382166000908152600d6020908152604080832093909355600b54600c909152919020555b336000908152600d60205260409020548015610b4157336000818152600d6020526040812055600554610b0a916101009091046001600160a01b0316908363ffffffff6112d616565b60408051828152905133917fe2403640ba68fed3a2f88b7557551d1993f84b99bb10ff833f0cf8db0c5e0486919081900360200190a25b5050600354811461060b576040805162461bcd60e51b815260206004820152601f60248201527f5265656e7472616e637947756172643a207265656e7472616e742063616c6c00604482015290519081900360640190fd5b6002546001600160a01b031681565b6001546001600160a01b031681565b610bbf61128d565b6000610bc961106f565b600b55610bd4610d16565b600a556001600160a01b03811615610c1b57610bef81610490565b6001600160a01b0382166000908152600d6020908152604080832093909355600b54600c909152919020555b50600755565b60055460ff1681565b6001600160a01b03166000908152600f602052604090205490565b6006546001600160a01b031681565b6001546001600160a01b03163314610c9d5760405162461bcd60e51b81526004018080602001828103825260358152602001806115ba6035913960400191505060405180910390fd5b600054600154604080516001600160a01b03938416815292909116602083015280517fb532073b38c83145e3e5135377a08bf9aab55bc0fd7c1179cd4fb995d2a5159c9281900390910190a160018054600080546001600160a01b03199081166001600160a01b03841617909155169055565b60085481565b60006106584260075461132d565b610d2c61128d565b6006546001600160a01b0383811691161415610d795760405162461bcd60e51b81526004018080602001828103825260218152602001806116cf6021913960400191505060405180910390fd5b600054610d99906001600160a01b0384811691168363ffffffff6112d616565b604080516001600160a01b03841681526020810183905281517f8c1256b8896378cd5044f80c202f9772b9d77dc85c8a6eb51967210b09bfaa28929181900390910190a15050565b600c6020526000908152604090205481565b6000546001600160a01b031681565b60045481565b600380546001019081905560055460ff1615610e555760405162461bcd60e51b815260040180806020018281038252603c81526020018061163f603c913960400191505060405180910390fd5b33610e5e61106f565b600b55610e69610d16565b600a556001600160a01b03811615610eb057610e8481610490565b6001600160a01b0382166000908152600d6020908152604080832093909355600b54600c909152919020555b60008311610ef6576040805162461bcd60e51b815260206004820152600e60248201526d043616e6e6f74207374616b6520360941b604482015290519081900360640190fd5b600e54610f09908463ffffffff61123316565b600e55336000908152600f6020526040902054610f2c908463ffffffff61123316565b336000818152600f6020526040902091909155600654610f59916001600160a01b03909116903086611343565b60408051848152905133917f9e71bc8eea02a63969f509818f2dafb9254532904319f9dbda79b67bd34a5f3d919081900360200190a25060035481146107fb576040805162461bcd60e51b815260206004820152601f60248201527f5265656e7472616e637947756172643a207265656e7472616e742063616c6c00604482015290519081900360640190fd5b600a5481565b610ff461128d565b60075442116110345760405162461bcd60e51b81526004018080602001828103825260588152602001806115626058913960600191505060405180910390fd5b60098190556040805182815290517ffb46ca5a5e06d4540d6387b930a7c978bce0db5f449ec6b3f5d07c6e1d44f2d39181900360200190a150565b6000600e54600014156110855750600b54610612565b6106586110ba600e54610508670de0b6b3a76400006110ae6008546110ae600a546104d7610d16565b9063ffffffff61116916565b600b549063ffffffff61123316565b60055461010090046001600160a01b031681565b600b5481565b336000908152600f60205260409020546110fc9061065d565b611104610a5b565b565b60075481565b600082821115611163576040805162461bcd60e51b815260206004820152601e60248201527f536166654d6174683a207375627472616374696f6e206f766572666c6f770000604482015290519081900360640190fd5b50900390565b60008261117857506000610520565b8282028284828161118557fe5b04146111c25760405162461bcd60e51b815260040180806020018281038252602181526020018061161e6021913960400191505060405180910390fd5b9392505050565b600080821161121f576040805162461bcd60e51b815260206004820152601a60248201527f536166654d6174683a206469766973696f6e206279207a65726f000000000000604482015290519081900360640190fd5b600082848161122a57fe5b04949350505050565b6000828201838110156111c2576040805162461bcd60e51b815260206004820152601b60248201527f536166654d6174683a206164646974696f6e206f766572666c6f770000000000604482015290519081900360640190fd5b6000546001600160a01b031633146111045760405162461bcd60e51b815260040180806020018281038252602f8152602001806115ef602f913960400191505060405180910390fd5b604080516001600160a01b038416602482015260448082018490528251808303909101815260649091019091526020810180516001600160e01b031663a9059cbb60e01b1790526113289084906113a3565b505050565b600081831061133c57816111c2565b5090919050565b604080516001600160a01b0385811660248301528416604482015260648082018490528251808303909101815260849091019091526020810180516001600160e01b03166323b872dd60e01b17905261139d9085906113a3565b50505050565b6113b5826001600160a01b031661155b565b611406576040805162461bcd60e51b815260206004820152601f60248201527f5361666545524332303a2063616c6c20746f206e6f6e2d636f6e747261637400604482015290519081900360640190fd5b60006060836001600160a01b0316836040518082805190602001908083835b602083106114445780518252601f199092019160209182019101611425565b6001836020036101000a0380198251168184511680821785525050505050509050019150506000604051808303816000865af19150503d80600081146114a6576040519150601f19603f3d011682016040523d82523d6000602084013e6114ab565b606091505b509150915081611502576040805162461bcd60e51b815260206004820181905260248201527f5361666545524332303a206c6f772d6c6576656c2063616c6c206661696c6564604482015290519081900360640190fd5b80511561139d5780806020019051602081101561151e57600080fd5b505161139d5760405162461bcd60e51b815260040180806020018281038252602a8152602001806116a5602a913960400191505060405180910390fd5b3b15159056fe50726576696f7573207265776172647320706572696f64206d75737420626520636f6d706c657465206265666f7265206368616e67696e6720746865206475726174696f6e20666f7220746865206e657720706572696f64596f75206d757374206265206e6f6d696e61746564206265666f726520796f752063616e20616363657074206f776e6572736869704f6e6c792074686520636f6e7472616374206f776e6572206d617920706572666f726d207468697320616374696f6e536166654d6174683a206d756c7469706c69636174696f6e206f766572666c6f775468697320616374696f6e2063616e6e6f7420626520706572666f726d6564207768696c652074686520636f6e74726163742069732070617573656443616c6c6572206973206e6f742052657761726473446973747269627574696f6e20636f6e74726163745361666545524332303a204552433230206f7065726174696f6e20646964206e6f74207375636365656443616e6e6f7420776974686472617720746865207374616b696e6720746f6b656ea265627a7a723158205f4bb32936d14b72eb599b193cd2c5475c69b52b9be1151112203de2c7145da764736f6c63430005100032"}}