{"compiler":"v0.6.12+commit.27d51765","opcodeHash":"0x46461bebd4b83e759beb04b81b4effb56436f886281a7488c710f187035ca234","metalessHash":"0xa2edb86133c9233d4cb8c68356cb11b703d0b4fe6f6b5b82c8dfd826f87d6cf8","runtimeHash":"0x97fc9b25423682482982c6c16d72162b2a43da55a32f7cc069b32b4c2cd7ef2d","encodedMetadata":[{"ipfs":"/ipfs/QmeJdpTf8cBz5EiCiu1CKKubVbEhDreYcBhB326tKc75bo","solc":"0.6.12"}],"abi":[{"inputs":[{"internalType":"contract HyFiToken","name":"_hyfi","type":"address"},{"internalType":"uint256","name":"_hyfiPerBlock","type":"uint256"},{"internalType":"uint256","name":"_startBlock","type":"uint256"},{"internalType":"uint256","name":"_bonusEndBlock","type":"uint256"}],"stateMutability":"nonpayable","type":"constructor"},{"anonymous":false,"inputs":[{"indexed":true,"internalType":"address","name":"user","type":"address"},{"indexed":true,"internalType":"uint256","name":"pid","type":"uint256"},{"indexed":false,"internalType":"uint256","name":"amount","type":"uint256"}],"name":"Deposit","type":"event"},{"anonymous":false,"inputs":[{"indexed":true,"internalType":"address","name":"user","type":"address"},{"indexed":true,"internalType":"uint256","name":"pid","type":"uint256"},{"indexed":false,"internalType":"uint256","name":"amount","type":"uint256"}],"name":"EmergencyWithdraw","type":"event"},{"anonymous":false,"inputs":[{"indexed":true,"internalType":"address","name":"previousOwner","type":"address"},{"indexed":true,"internalType":"address","name":"newOwner","type":"address"}],"name":"OwnershipTransferred","type":"event"},{"anonymous":false,"inputs":[{"indexed":true,"internalType":"address","name":"user","type":"address"},{"indexed":true,"internalType":"uint256","name":"pid","type":"uint256"},{"indexed":false,"internalType":"uint256","name":"amount","type":"uint256"}],"name":"Withdraw","type":"event"},{"inputs":[{"internalType":"uint256","name":"_allocPoint","type":"uint256"},{"internalType":"contract IERC20","name":"_lpToken","type":"address"},{"internalType":"bool","name":"_withUpdate","type":"bool"}],"name":"add","outputs":[],"stateMutability":"nonpayable","type":"function"},{"inputs":[],"name":"bonusEndBlock","outputs":[{"internalType":"uint256","name":"","type":"uint256"}],"stateMutability":"view","type":"function"},{"inputs":[{"internalType":"uint256","name":"amount","type":"uint256"}],"name":"burn","outputs":[],"stateMutability":"nonpayable","type":"function"},{"inputs":[{"internalType":"uint256","name":"_pid","type":"uint256"},{"internalType":"uint256","name":"_amount","type":"uint256"}],"name":"deposit","outputs":[],"stateMutability":"nonpayable","type":"function"},{"inputs":[{"internalType":"uint256","name":"_pid","type":"uint256"}],"name":"emergencyWithdraw","outputs":[],"stateMutability":"nonpayable","type":"function"},{"inputs":[{"internalType":"uint256","name":"_from","type":"uint256"},{"internalType":"uint256","name":"_to","type":"uint256"}],"name":"getMultiplier","outputs":[{"internalType":"uint256","name":"","type":"uint256"}],"stateMutability":"view","type":"function"},{"inputs":[],"name":"hyfi","outputs":[{"internalType":"contract HyFiToken","name":"","type":"address"}],"stateMutability":"view","type":"function"},{"inputs":[],"name":"hyfiPerBlock","outputs":[{"internalType":"uint256","name":"","type":"uint256"}],"stateMutability":"view","type":"function"},{"inputs":[],"name":"massUpdatePools","outputs":[],"stateMutability":"nonpayable","type":"function"},{"inputs":[],"name":"owner","outputs":[{"internalType":"address","name":"","type":"address"}],"stateMutability":"view","type":"function"},{"inputs":[{"internalType":"uint256","name":"_pid","type":"uint256"},{"internalType":"address","name":"_user","type":"address"}],"name":"pendingHyFi","outputs":[{"internalType":"uint256","name":"","type":"uint256"}],"stateMutability":"view","type":"function"},{"inputs":[{"internalType":"uint256","name":"","type":"uint256"}],"name":"poolInfo","outputs":[{"internalType":"contract IERC20","name":"lpToken","type":"address"},{"internalType":"uint256","name":"allocPoint","type":"uint256"},{"internalType":"uint256","name":"lastRewardBlock","type":"uint256"},{"internalType":"uint256","name":"accHyFiPerShare","type":"uint256"}],"stateMutability":"view","type":"function"},{"inputs":[],"name":"poolLength","outputs":[{"internalType":"uint256","name":"","type":"uint256"}],"stateMutability":"view","type":"function"},{"inputs":[],"name":"renounceOwnership","outputs":[],"stateMutability":"nonpayable","type":"function"},{"inputs":[{"internalType":"uint256","name":"_pid","type":"uint256"},{"internalType":"uint256","name":"_allocPoint","type":"uint256"},{"internalType":"bool","name":"_withUpdate","type":"bool"}],"name":"set","outputs":[],"stateMutability":"nonpayable","type":"function"},{"inputs":[],"name":"startBlock","outputs":[{"internalType":"uint256","name":"","type":"uint256"}],"stateMutability":"view","type":"function"},{"inputs":[],"name":"totalAllocPoint","outputs":[{"internalType":"uint256","name":"","type":"uint256"}],"stateMutability":"view","type":"function"},{"inputs":[{"internalType":"address","name":"newOwner","type":"address"}],"name":"transferHyfiOwnership","outputs":[],"stateMutability":"nonpayable","type":"function"},{"inputs":[{"internalType":"address","name":"newOwner","type":"address"}],"name":"transferOwnership","outputs":[],"stateMutability":"nonpayable","type":"function"},{"inputs":[{"internalType":"uint256","name":"newBonusEndBlock","type":"uint256"}],"name":"updateBonusEndBlock","outputs":[],"stateMutability":"nonpayable","type":"function"},{"inputs":[{"internalType":"uint256","name":"_pid","type":"uint256"}],"name":"updatePool","outputs":[],"stateMutability":"nonpayable","type":"function"},{"inputs":[{"internalType":"uint256","name":"","type":"uint256"},{"internalType":"address","name":"","type":"address"}],"name":"userInfo","outputs":[{"internalType":"uint256","name":"amount","type":"uint256"},{"internalType":"uint256","name":"rewardDebt","type":"uint256"}],"stateMutability":"view","type":"function"},{"inputs":[{"internalType":"uint256","name":"_pid","type":"uint256"},{"internalType":"uint256","name":"_amount","type":"uint256"}],"name":"withdraw","outputs":[],"stateMutability":"nonpayable","type":"function"}],"bytecode":{"object":"6080604052600060055534801561001557600080fd5b50604051611a0d380380611a0d8339818101604052608081101561003857600080fd5b508051602082015160408301516060909301519192909160006100596100d5565b600080546001600160a01b0319166001600160a01b0383169081178255604051929350917f8be0079c531659141344cd1fd0a4f28419497f9722a3daafe3b4186f6b6457e0908290a350600180546001600160a01b0319166001600160a01b0395909516949094179093556002919091556006556007556100d9565b3390565b611925806100e86000396000f3fe608060405234801561001057600080fd5b506004361061014d5760003560e01c80635312ea8e116100c35780638dbb1e3a1161007c5780638dbb1e3a1461033a57806393f1a40b1461035d578063cfbc1b59146103a2578063e2bbb158146103aa578063f0fe603f146103cd578063f2fde38b146103ea5761014d565b80635312ea8e14610298578063630b5ba1146102b557806364482f79146102bd578063715018a6146102e857806381f65bfa146102f05780638da5cb5b146103165761014d565b8063347b49f911610115578063347b49f9146101ff57806342966c681461022b578063441a3e701461024857806348cd4cb11461026b57806349a313221461027357806351eb05a61461027b5761014d565b8063081e3eda146101525780631526fe271461016c57806317caf6f1146101b95780631aed6553146101c15780631eaaa045146101c9575b600080fd5b61015a610410565b60408051918252519081900360200190f35b6101896004803603602081101561018257600080fd5b5035610416565b604080516001600160a01b0390951685526020850193909352838301919091526060830152519081900360800190f35b61015a610457565b61015a61045d565b6101fd600480360360608110156101df57600080fd5b508035906001600160a01b0360208201351690604001351515610463565b005b61015a6004803603604081101561021557600080fd5b50803590602001356001600160a01b03166105de565b6101fd6004803603602081101561024157600080fd5b5035610750565b6101fd6004803603604081101561025e57600080fd5b5080359060200135610816565b61015a61095f565b61015a610965565b6101fd6004803603602081101561029157600080fd5b503561096b565b6101fd600480360360208110156102ae57600080fd5b5035610b0a565b6101fd610ba2565b6101fd600480360360608110156102d357600080fd5b50803590602081013590604001351515610bc5565b6101fd610c96565b6101fd6004803603602081101561030657600080fd5b50356001600160a01b0316610d38565b61031e610dde565b604080516001600160a01b039092168252519081900360200190f35b61015a6004803603604081101561035057600080fd5b5080359060200135610ded565b6103896004803603604081101561037357600080fd5b50803590602001356001600160a01b0316610e6b565b6040805192835260208301919091528051918290030190f35b61031e610e8f565b6101fd600480360360408110156103c057600080fd5b5080359060200135610e9e565b6101fd600480360360208110156103e357600080fd5b5035610fa3565b6101fd6004803603602081101561040057600080fd5b50356001600160a01b031661103e565b60035490565b6003818154811061042357fe5b600091825260209091206004909102018054600182015460028301546003909301546001600160a01b039092169350919084565b60055481565b60075481565b61046b611136565b6000546001600160a01b039081169116146104bb576040805162461bcd60e51b815260206004820181905260248201526000805160206118a6833981519152604482015290519081900360640190fd5b80156104c9576104c9610ba2565b600060065443116104dc576006546104de565b435b6005549091506104ee908561113a565b600555604080516080810182526001600160a01b0394851681526020810195865290810191825260006060820181815260038054600181018255925291517fc2575a0e9e593c00f959f8c92f12db2869c3395a3b0502d05e2516446f71f85b600490920291820180546001600160a01b031916919096161790945593517fc2575a0e9e593c00f959f8c92f12db2869c3395a3b0502d05e2516446f71f85c840155517fc2575a0e9e593c00f959f8c92f12db2869c3395a3b0502d05e2516446f71f85d8301555090517fc2575a0e9e593c00f959f8c92f12db2869c3395a3b0502d05e2516446f71f85e90910155565b600080600384815481106105ee57fe5b60009182526020808320878452600480835260408086206001600160a01b038a811688529085528187209583029093016003810154815483516370a0823160e01b81523095810195909552925191985095969491909316926370a08231926024808201939291829003018186803b15801561066857600080fd5b505afa15801561067c573d6000803e3d6000fd5b505050506040513d602081101561069257600080fd5b50516002850154909150431180156106a957508015155b156107155760006106be856002015443610ded565b905060006106f16005546106eb88600101546106e56002548761119b90919063ffffffff16565b9061119b565b906111f4565b9050610710610709846106eb8464e8d4a5100061119b565b859061113a565b935050505b610743836001015461073d64e8d4a510006106eb86886000015461119b90919063ffffffff16565b90611236565b9450505050505b92915050565b610758611136565b6000546001600160a01b039081169116146107a8576040805162461bcd60e51b815260206004820181905260248201526000805160206118a6833981519152604482015290519081900360640190fd5b60015460408051632770a7eb60e21b81523360048201526024810184905290516001600160a01b0390921691639dc29fac9160448082019260009290919082900301818387803b1580156107fb57600080fd5b505af115801561080f573d6000803e3d6000fd5b5050505050565b60006003838154811061082557fe5b600091825260208083208684526004808352604080862033875290935291909320805492909102909201925083111561089a576040805162461bcd60e51b81526020600482015260126024820152711dda5d1a191c985dce881b9bdd0819dbdbd960721b604482015290519081900360640190fd5b6108a38461096b565b60006108d1826001015461073d64e8d4a510006106eb8760030154876000015461119b90919063ffffffff16565b90506108dd3382611278565b81546108e99085611236565b80835560038401546109069164e8d4a51000916106eb919061119b565b60018301558254610921906001600160a01b03163386611406565b604080518581529051869133917ff279e6a1f5e320cca91135676d9cb6e44ca8a08c0b88342bcdb1144f6511b5689181900360200190a35050505050565b60065481565b60025481565b60006003828154811061097a57fe5b906000526020600020906004020190508060020154431161099b5750610b07565b8054604080516370a0823160e01b815230600482015290516000926001600160a01b0316916370a08231916024808301926020929190829003018186803b1580156109e557600080fd5b505afa1580156109f9573d6000803e3d6000fd5b505050506040513d6020811015610a0f57600080fd5b5051905080610a25575043600290910155610b07565b6000610a35836002015443610ded565b90506000610a5c6005546106eb86600101546106e56002548761119b90919063ffffffff16565b600154604080516340c10f1960e01b81523060048201526024810184905290519293506001600160a01b03909116916340c10f199160448082019260009290919082900301818387803b158015610ab257600080fd5b505af1158015610ac6573d6000803e3d6000fd5b50505050610af4610ae9846106eb64e8d4a510008561119b90919063ffffffff16565b60038601549061113a565b6003850155505043600290920191909155505b50565b600060038281548110610b1957fe5b60009182526020808320858452600480835260408086203380885294529094208054949093020180549094509192610b5b926001600160a01b03169190611406565b80546040805191825251849133917fbb757047c2b5f3974fe26b7c10f732e7bce710b0952a71082702781e62ae05959181900360200190a360008082556001909101555050565b60035460005b81811015610bc157610bb98161096b565b600101610ba8565b5050565b610bcd611136565b6000546001600160a01b03908116911614610c1d576040805162461bcd60e51b815260206004820181905260248201526000805160206118a6833981519152604482015290519081900360640190fd5b8015610c2b57610c2b610ba2565b610c6882610c6260038681548110610c3f57fe5b90600052602060002090600402016001015460055461123690919063ffffffff16565b9061113a565b6005819055508160038481548110610c7c57fe5b906000526020600020906004020160010181905550505050565b610c9e611136565b6000546001600160a01b03908116911614610cee576040805162461bcd60e51b815260206004820181905260248201526000805160206118a6833981519152604482015290519081900360640190fd5b600080546040516001600160a01b03909116907f8be0079c531659141344cd1fd0a4f28419497f9722a3daafe3b4186f6b6457e0908390a3600080546001600160a01b0319169055565b610d40611136565b6000546001600160a01b03908116911614610d90576040805162461bcd60e51b815260206004820181905260248201526000805160206118a6833981519152604482015290519081900360640190fd5b6001546040805163f2fde38b60e01b81526001600160a01b0384811660048301529151919092169163f2fde38b91602480830192600092919082900301818387803b1580156107fb57600080fd5b6000546001600160a01b031690565b600060065482111580610e005750818310155b15610e0d5750600061074a565b60065482118015610e2057506007548211155b15610e4d576006548311610e4357600654610e3c908390611236565b905061074a565b610e3c8284611236565b6007548311610e6357600754610e3c9084611236565b50600061074a565b60046020908152600092835260408084209091529082529020805460019091015482565b6001546001600160a01b031681565b600060038381548110610ead57fe5b60009182526020808320868452600480835260408086203387529093529190932091029091019150610ede8461096b565b805415610f21576000610f13826001015461073d64e8d4a510006106eb8760030154876000015461119b90919063ffffffff16565b9050610f1f3382611278565b505b8154610f38906001600160a01b0316333086611458565b8054610f44908461113a565b8082556003830154610f619164e8d4a51000916106eb919061119b565b6001820155604080518481529051859133917f90890809c654f11d6e72a28fa60149770a0d11ec6c92319d6ceb2bb0a4ea1a159181900360200190a350505050565b610fab611136565b6000546001600160a01b03908116911614610ffb576040805162461bcd60e51b815260206004820181905260248201526000805160206118a6833981519152604482015290519081900360640190fd5b4381116110395760405162461bcd60e51b815260040180806020018281038252603c815260200180611849603c913960400191505060405180910390fd5b600755565b611046611136565b6000546001600160a01b03908116911614611096576040805162461bcd60e51b815260206004820181905260248201526000805160206118a6833981519152604482015290519081900360640190fd5b6001600160a01b0381166110db5760405162461bcd60e51b81526004018080602001828103825260268152602001806118236026913960400191505060405180910390fd5b600080546040516001600160a01b03808516939216917f8be0079c531659141344cd1fd0a4f28419497f9722a3daafe3b4186f6b6457e091a3600080546001600160a01b0319166001600160a01b0392909216919091179055565b3390565b600082820183811015611194576040805162461bcd60e51b815260206004820152601b60248201527f536166654d6174683a206164646974696f6e206f766572666c6f770000000000604482015290519081900360640190fd5b9392505050565b6000826111aa5750600061074a565b828202828482816111b757fe5b04146111945760405162461bcd60e51b81526004018080602001828103825260218152602001806118856021913960400191505060405180910390fd5b600061119483836040518060400160405280601a81526020017f536166654d6174683a206469766973696f6e206279207a65726f0000000000008152506114b8565b600061119483836040518060400160405280601e81526020017f536166654d6174683a207375627472616374696f6e206f766572666c6f77000081525061155a565b600154604080516370a0823160e01b815230600482015290516000926001600160a01b0316916370a08231916024808301926020929190829003018186803b1580156112c357600080fd5b505afa1580156112d7573d6000803e3d6000fd5b505050506040513d60208110156112ed57600080fd5b5051905080821115611381576001546040805163a9059cbb60e01b81526001600160a01b038681166004830152602482018590529151919092169163a9059cbb9160448083019260209291908290030181600087803b15801561134f57600080fd5b505af1158015611363573d6000803e3d6000fd5b505050506040513d602081101561137957600080fd5b506114019050565b6001546040805163a9059cbb60e01b81526001600160a01b038681166004830152602482018690529151919092169163a9059cbb9160448083019260209291908290030181600087803b1580156113d757600080fd5b505af11580156113eb573d6000803e3d6000fd5b505050506040513d602081101561080f57600080fd5b505050565b604080516001600160a01b038416602482015260448082018490528251808303909101815260649091019091526020810180516001600160e01b031663a9059cbb60e01b1790526114019084906115b4565b604080516001600160a01b0380861660248301528416604482015260648082018490528251808303909101815260849091019091526020810180516001600160e01b03166323b872dd60e01b1790526114b29085906115b4565b50505050565b600081836115445760405162461bcd60e51b81526004018080602001828103825283818151815260200191508051906020019080838360005b838110156115095781810151838201526020016114f1565b50505050905090810190601f1680156115365780820380516001836020036101000a031916815260200191505b509250505060405180910390fd5b50600083858161155057fe5b0495945050505050565b600081848411156115ac5760405162461bcd60e51b81526020600482018181528351602484015283519092839260449091019190850190808383600083156115095781810151838201526020016114f1565b505050900390565b6060611609826040518060400160405280602081526020017f5361666545524332303a206c6f772d6c6576656c2063616c6c206661696c6564815250856001600160a01b03166116659092919063ffffffff16565b8051909150156114015780806020019051602081101561162857600080fd5b50516114015760405162461bcd60e51b815260040180806020018281038252602a8152602001806118c6602a913960400191505060405180910390fd5b6060611674848460008561167c565b949350505050565b6060611687856117e9565b6116d8576040805162461bcd60e51b815260206004820152601d60248201527f416464726573733a2063616c6c20746f206e6f6e2d636f6e7472616374000000604482015290519081900360640190fd5b60006060866001600160a01b031685876040518082805190602001908083835b602083106117175780518252601f1990920191602091820191016116f8565b6001836020036101000a03801982511681845116808217855250505050505090500191505060006040518083038185875af1925050503d8060008114611779576040519150601f19603f3d011682016040523d82523d6000602084013e61177e565b606091505b509150915081156117925791506116749050565b8051156117a25780518082602001fd5b60405162461bcd60e51b81526020600482018181528651602484015286518793919283926044019190850190808383600083156115095781810151838201526020016114f1565b6000813f7fc5d2460186f7233c927e7db2dcc703c0e500b653ca82273b7bfad8045d85a47081811480159061167457505015159291505056fe4f776e61626c653a206e6577206f776e657220697320746865207a65726f20616464726573734e657720626f6e757320656e6420626c6f636b206d75737420626520677265617465207468616e2063757272656e7420626c6f636b206e756d626572536166654d6174683a206d756c7469706c69636174696f6e206f766572666c6f774f776e61626c653a2063616c6c6572206973206e6f7420746865206f776e65725361666545524332303a204552433230206f7065726174696f6e20646964206e6f742073756363656564a264697066735822122032995e64c683f7bc341db195b7d1a6c919f9ddecd9eb93b3ccbcf3fcaffca17564736f6c634300060c0033"}}