{
  "opcodeHash": "0x85f2b23a150baaf18ce076833365f20793b88c1a8587aac0dd471333bf58030e",
  "metalessHash": "0x05d778ff5c137c72ad41709c992062b26c232d1a6b6a0d81989f9c2d7524c2f4",
  "runtimeHash": "0xbf4dc032202fb06a8d48bc14e01b04dc89793387712224dfaad6e3e244dbc8f7",
  "encodedMetadata": [
    {
      "ipfs": "/ipfs/QmUfEy23sAfZKWTD2YwbBbX25cMVNwLGKEEqcrfn8uYbA8",
      "solc": "0.6.6"
    }
  ],
  "abi": [
    {
      "inputs": [
        {
          "internalType": "address",
          "name": "tokenAddress_",
          "type": "address"
        },
        {
          "internalType": "uint256",
          "name": "minBuyTokenPerUnit_",
          "type": "uint256"
        },
        {
          "internalType": "uint256",
          "name": "maxSellTokenPerUnit_",
          "type": "uint256"
        },
        {
          "internalType": "uint256",
          "name": "sellRatio_",
          "type": "uint256"
        }
      ],
      "stateMutability": "payable",
      "type": "constructor"
    },
    {
      "anonymous": false,
      "inputs": [
        {
          "indexed": true,
          "internalType": "address",
          "name": "previousOwner",
          "type": "address"
        },
        {
          "indexed": true,
          "internalType": "address",
          "name": "newOwner",
          "type": "address"
        }
      ],
      "name": "OwnershipTransferred",
      "type": "event"
    },
    {
      "inputs": [],
      "name": "buy",
      "outputs": [],
      "stateMutability": "nonpayable",
      "type": "function"
    },
    {
      "inputs": [],
      "name": "buyAmount",
      "outputs": [
        {
          "internalType": "uint256",
          "name": "",
          "type": "uint256"
        }
      ],
      "stateMutability": "view",
      "type": "function"
    },
    {
      "inputs": [],
      "name": "buyBlock",
      "outputs": [
        {
          "internalType": "uint256",
          "name": "",
          "type": "uint256"
        }
      ],
      "stateMutability": "view",
      "type": "function"
    },
    {
      "inputs": [],
      "name": "maxSellTokenPerUnit",
      "outputs": [
        {
          "internalType": "uint256",
          "name": "",
          "type": "uint256"
        }
      ],
      "stateMutability": "view",
      "type": "function"
    },
    {
      "inputs": [],
      "name": "minBuyTokenPerUnit",
      "outputs": [
        {
          "internalType": "uint256",
          "name": "",
          "type": "uint256"
        }
      ],
      "stateMutability": "view",
      "type": "function"
    },
    {
      "inputs": [],
      "name": "oneUnit",
      "outputs": [
        {
          "internalType": "uint256",
          "name": "",
          "type": "uint256"
        }
      ],
      "stateMutability": "view",
      "type": "function"
    },
    {
      "inputs": [],
      "name": "owner",
      "outputs": [
        {
          "internalType": "address",
          "name": "",
          "type": "address"
        }
      ],
      "stateMutability": "view",
      "type": "function"
    },
    {
      "inputs": [],
      "name": "renounceOwnership",
      "outputs": [],
      "stateMutability": "nonpayable",
      "type": "function"
    },
    {
      "inputs": [],
      "name": "reset",
      "outputs": [],
      "stateMutability": "nonpayable",
      "type": "function"
    },
    {
      "inputs": [],
      "name": "sell",
      "outputs": [],
      "stateMutability": "nonpayable",
      "type": "function"
    },
    {
      "inputs": [],
      "name": "sellBlock",
      "outputs": [
        {
          "internalType": "uint256",
          "name": "",
          "type": "uint256"
        }
      ],
      "stateMutability": "view",
      "type": "function"
    },
    {
      "inputs": [],
      "name": "sellRatio",
      "outputs": [
        {
          "internalType": "uint256",
          "name": "",
          "type": "uint256"
        }
      ],
      "stateMutability": "view",
      "type": "function"
    },
    {
      "inputs": [
        {
          "internalType": "uint256",
          "name": "maxSellTokenPerUnit_",
          "type": "uint256"
        }
      ],
      "name": "setMaxSellTokenPerUnit",
      "outputs": [],
      "stateMutability": "nonpayable",
      "type": "function"
    },
    {
      "inputs": [
        {
          "internalType": "uint256",
          "name": "minBuyTokenPerUnit_",
          "type": "uint256"
        }
      ],
      "name": "setMinBuyTokenPerUnit",
      "outputs": [],
      "stateMutability": "nonpayable",
      "type": "function"
    },
    {
      "inputs": [
        {
          "internalType": "uint256",
          "name": "sellRatio_",
          "type": "uint256"
        }
      ],
      "name": "setSellRatio",
      "outputs": [],
      "stateMutability": "nonpayable",
      "type": "function"
    },
    {
      "inputs": [
        {
          "internalType": "address",
          "name": "tokenAddress_",
          "type": "address"
        }
      ],
      "name": "setTokenAddress",
      "outputs": [],
      "stateMutability": "nonpayable",
      "type": "function"
    },
    {
      "inputs": [],
      "name": "tokenAddress",
      "outputs": [
        {
          "internalType": "address",
          "name": "",
          "type": "address"
        }
      ],
      "stateMutability": "view",
      "type": "function"
    },
    {
      "inputs": [
        {
          "internalType": "address",
          "name": "newOwner",
          "type": "address"
        }
      ],
      "name": "transferOwnership",
      "outputs": [],
      "stateMutability": "nonpayable",
      "type": "function"
    },
    {
      "inputs": [
        {
          "internalType": "uint256",
          "name": "amount",
          "type": "uint256"
        }
      ],
      "name": "withdrawEther",
      "outputs": [],
      "stateMutability": "nonpayable",
      "type": "function"
    },
    {
      "inputs": [
        {
          "internalType": "address",
          "name": "tokenAddress_",
          "type": "address"
        }
      ],
      "name": "withdrawToken",
      "outputs": [],
      "stateMutability": "nonpayable",
      "type": "function"
    },
    {
      "stateMutability": "payable",
      "type": "receive"
    }
  ],
  "bytecode": {
    "object": "6080604052670de0b6b3a764000060015560006002556000600355600060045560405162002dc538038062002dc58339818101604052608081101561004357600080fd5b8101908080519060200190929190805190602001909291908051906020019092919080519060200190929190505050600061008261017f60201b60201c565b9050806000806101000a81548173ffffffffffffffffffffffffffffffffffffffff021916908373ffffffffffffffffffffffffffffffffffffffff1602179055508073ffffffffffffffffffffffffffffffffffffffff16600073ffffffffffffffffffffffffffffffffffffffff167f8be0079c531659141344cd1fd0a4f28419497f9722a3daafe3b4186f6b6457e060405160405180910390a35083600560006101000a81548173ffffffffffffffffffffffffffffffffffffffff021916908373ffffffffffffffffffffffffffffffffffffffff16021790555082600681905550816007819055508060088190555050505050610187565b600033905090565b612c2e80620001976000396000f3fe6080604052600436106101235760003560e01c80639c007af9116100a0578063cc3342a211610064578063cc3342a21461044c578063d826f88f14610477578063f18594b51461048e578063f2fde38b146104b9578063fc27f0d71461050a5761012a565b80639c007af91461035d5780639d76ea5814610388578063a6f2ae3a146103df578063b403ae46146103f6578063ca510f32146104215761012a565b80636ced9b19116100e75780636ced9b1914610238578063715018a614610273578063894760691461028a5780638da5cb5b146102db5780638dad03e0146103325761012a565b80631fa705311461012f57806326a4e8d21461015a5780633bed33ce146101ab57806345710074146101e657806366f2d859146101fd5761012a565b3661012a57005b600080fd5b34801561013b57600080fd5b50610144610545565b6040518082815260200191505060405180910390f35b34801561016657600080fd5b506101a96004803603602081101561017d57600080fd5b81019080803573ffffffffffffffffffffffffffffffffffffffff16906020019092919050505061054b565b005b3480156101b757600080fd5b506101e4600480360360208110156101ce57600080fd5b8101908080359060200190929190505050610658565b005b3480156101f257600080fd5b506101fb61076b565b005b34801561020957600080fd5b506102366004803603602081101561022057600080fd5b8101908080359060200190929190505050610ff8565b005b34801561024457600080fd5b506102716004803603602081101561025b57600080fd5b81019080803590602001909291905050506110cb565b005b34801561027f57600080fd5b5061028861119e565b005b34801561029657600080fd5b506102d9600480360360208110156102ad57600080fd5b81019080803573ffffffffffffffffffffffffffffffffffffffff169060200190929190505050611326565b005b3480156102e757600080fd5b506102f06114e0565b604051808273ffffffffffffffffffffffffffffffffffffffff1673ffffffffffffffffffffffffffffffffffffffff16815260200191505060405180910390f35b34801561033e57600080fd5b50610347611509565b6040518082815260200191505060405180910390f35b34801561036957600080fd5b5061037261150f565b6040518082815260200191505060405180910390f35b34801561039457600080fd5b5061039d611515565b604051808273ffffffffffffffffffffffffffffffffffffffff1673ffffffffffffffffffffffffffffffffffffffff16815260200191505060405180910390f35b3480156103eb57600080fd5b506103f461153b565b005b34801561040257600080fd5b5061040b611a8b565b6040518082815260200191505060405180910390f35b34801561042d57600080fd5b50610436611a91565b6040518082815260200191505060405180910390f35b34801561045857600080fd5b50610461611a97565b6040518082815260200191505060405180910390f35b34801561048357600080fd5b5061048c611a9d565b005b34801561049a57600080fd5b506104a3611b80565b6040518082815260200191505060405180910390f35b3480156104c557600080fd5b50610508600480360360208110156104dc57600080fd5b81019080803573ffffffffffffffffffffffffffffffffffffffff169060200190929190505050611b86565b005b34801561051657600080fd5b506105436004803603602081101561052d57600080fd5b8101908080359060200190929190505050611d93565b005b60035481565b610553611e66565b73ffffffffffffffffffffffffffffffffffffffff166000809054906101000a900473ffffffffffffffffffffffffffffffffffffffff1673ffffffffffffffffffffffffffffffffffffffff1614610614576040517f08c379a00000000000000000000000000000000000000000000000000000000081526004018080602001828103825260208152602001807f4f776e61626c653a2063616c6c6572206973206e6f7420746865206f776e657281525060200191505060405180910390fd5b80600560006101000a81548173ffffffffffffffffffffffffffffffffffffffff021916908373ffffffffffffffffffffffffffffffffffffffff16021790555050565b610660611e66565b73ffffffffffffffffffffffffffffffffffffffff166000809054906101000a900473ffffffffffffffffffffffffffffffffffffffff1673ffffffffffffffffffffffffffffffffffffffff1614610721576040517f08c379a00000000000000000000000000000000000000000000000000000000081526004018080602001828103825260208152602001807f4f776e61626c653a2063616c6c6572206973206e6f7420746865206f776e657281525060200191505060405180910390fd5b3373ffffffffffffffffffffffffffffffffffffffff166108fc829081150290604051600060405180830381858888f19350505050158015610767573d6000803e3d6000fd5b5050565b610773611e66565b73ffffffffffffffffffffffffffffffffffffffff166000809054906101000a900473ffffffffffffffffffffffffffffffffffffffff1673ffffffffffffffffffffffffffffffffffffffff1614610834576040517f08c379a00000000000000000000000000000000000000000000000000000000081526004018080602001828103825260208152602001807f4f776e61626c653a2063616c6c6572206973206e6f7420746865206f776e657281525060200191505060405180910390fd5b600060025414156108ad576040517f08c379a00000000000000000000000000000000000000000000000000000000081526004018080602001828103825260128152602001807f42757920646964206e6f74206f6363757272000000000000000000000000000081525060200191505060405180910390fd5b6002544311610907576040517f08c379a0000000000000000000000000000000000000000000000000000000008152600401808060200182810382526029815260200180612ada6029913960400191505060405180910390fd5b6004544311610961576040517f08c379a000000000000000000000000000000000000000000000000000000000815260040180806020018281038252602a815260200180612b6f602a913960400191505060405180910390fd5b6000600560009054906101000a900473ffffffffffffffffffffffffffffffffffffffff16905060008173ffffffffffffffffffffffffffffffffffffffff166370a08231306040518263ffffffff1660e01b8152600401808273ffffffffffffffffffffffffffffffffffffffff1673ffffffffffffffffffffffffffffffffffffffff16815260200191505060206040518083038186803b158015610a0757600080fd5b505afa158015610a1b573d6000803e3d6000fd5b505050506040513d6020811015610a3157600080fd5b8101908080519060200190929190505050905060008111610aba576040517f08c379a00000000000000000000000000000000000000000000000000000000081526004018080602001828103825260138152602001807f456d70747920746f6b656e2062616c616e63650000000000000000000000000081525060200191505060405180910390fd5b610ac660035482611e6e565b60038190555060008273ffffffffffffffffffffffffffffffffffffffff1663dd62ed3e30737a250d5630b4cf539739df2c5dacb4c659f2488d6040518363ffffffff1660e01b8152600401808373ffffffffffffffffffffffffffffffffffffffff1673ffffffffffffffffffffffffffffffffffffffff1681526020018273ffffffffffffffffffffffffffffffffffffffff1673ffffffffffffffffffffffffffffffffffffffff1681526020019250505060206040518083038186803b158015610b9357600080fd5b505afa158015610ba7573d6000803e3d6000fd5b505050506040513d6020811015610bbd57600080fd5b810190808051906020019092919050505090506000811415610c3957610c38737a250d5630b4cf539739df2c5dacb4c659f2488d7fffffffffffffffffffffffffffffffffffffffffffffffffffffffffffffffff8573ffffffffffffffffffffffffffffffffffffffff16611e889092919063ffffffff16565b5b6000610c5e836001610c5860085460035461208f90919063ffffffff16565b016120d9565b90506000610c8b600754610c7d600154856120f290919063ffffffff16565b61208f90919063ffffffff16565b90506060600267ffffffffffffffff81118015610ca757600080fd5b50604051908082528060200260200182016040528015610cd65781602001602082028036833780820191505090505b509050600560009054906101000a900473ffffffffffffffffffffffffffffffffffffffff1681600081518110610d0957fe5b602002602001019073ffffffffffffffffffffffffffffffffffffffff16908173ffffffffffffffffffffffffffffffffffffffff1681525050737a250d5630b4cf539739df2c5dacb4c659f2488d73ffffffffffffffffffffffffffffffffffffffff1663ad5c46486040518163ffffffff1660e01b815260040160206040518083038186803b158015610d9d57600080fd5b505afa158015610db1573d6000803e3d6000fd5b505050506040513d6020811015610dc757600080fd5b810190808051906020019092919050505081600181518110610de557fe5b602002602001019073ffffffffffffffffffffffffffffffffffffffff16908173ffffffffffffffffffffffffffffffffffffffff1681525050737a250d5630b4cf539739df2c5dacb4c659f2488d73ffffffffffffffffffffffffffffffffffffffff166318cbafe584848430426040518663ffffffff1660e01b815260040180868152602001858152602001806020018473ffffffffffffffffffffffffffffffffffffffff1673ffffffffffffffffffffffffffffffffffffffff168152602001838152602001828103825285818151815260200191508051906020019060200280838360005b83811015610eea578082015181840152602081019050610ecf565b505050509050019650505050505050600060405180830381600087803b158015610f1357600080fd5b505af1158015610f27573d6000803e3d6000fd5b505050506040513d6000823e3d601f19601f820116820180604052506020811015610f5157600080fd5b8101908080516040519392919084640100000000821115610f7157600080fd5b83820191506020820185811115610f8757600080fd5b8251866020820283011164010000000082111715610fa457600080fd5b8083526020830192505050908051906020019060200280838360005b83811015610fdb578082015181840152602081019050610fc0565b505050509050016040525050505043600481905550505050505050565b611000611e66565b73ffffffffffffffffffffffffffffffffffffffff166000809054906101000a900473ffffffffffffffffffffffffffffffffffffffff1673ffffffffffffffffffffffffffffffffffffffff16146110c1576040517f08c379a00000000000000000000000000000000000000000000000000000000081526004018080602001828103825260208152602001807f4f776e61626c653a2063616c6c6572206973206e6f7420746865206f776e657281525060200191505060405180910390fd5b8060088190555050565b6110d3611e66565b73ffffffffffffffffffffffffffffffffffffffff166000809054906101000a900473ffffffffffffffffffffffffffffffffffffffff1673ffffffffffffffffffffffffffffffffffffffff1614611194576040517f08c379a00000000000000000000000000000000000000000000000000000000081526004018080602001828103825260208152602001807f4f776e61626c653a2063616c6c6572206973206e6f7420746865206f776e657281525060200191505060405180910390fd5b8060078190555050565b6111a6611e66565b73ffffffffffffffffffffffffffffffffffffffff166000809054906101000a900473ffffffffffffffffffffffffffffffffffffffff1673ffffffffffffffffffffffffffffffffffffffff1614611267576040517f08c379a00000000000000000000000000000000000000000000000000000000081526004018080602001828103825260208152602001807f4f776e61626c653a2063616c6c6572206973206e6f7420746865206f776e657281525060200191505060405180910390fd5b600073ffffffffffffffffffffffffffffffffffffffff166000809054906101000a900473ffffffffffffffffffffffffffffffffffffffff1673ffffffffffffffffffffffffffffffffffffffff167f8be0079c531659141344cd1fd0a4f28419497f9722a3daafe3b4186f6b6457e060405160405180910390a360008060006101000a81548173ffffffffffffffffffffffffffffffffffffffff021916908373ffffffffffffffffffffffffffffffffffffffff160217905550565b61132e611e66565b73ffffffffffffffffffffffffffffffffffffffff166000809054906101000a900473ffffffffffffffffffffffffffffffffffffffff1673ffffffffffffffffffffffffffffffffffffffff16146113ef576040517f08c379a00000000000000000000000000000000000000000000000000000000081526004018080602001828103825260208152602001807f4f776e61626c653a2063616c6c6572206973206e6f7420746865206f776e657281525060200191505060405180910390fd5b600081905060008173ffffffffffffffffffffffffffffffffffffffff166370a08231306040518263ffffffff1660e01b8152600401808273ffffffffffffffffffffffffffffffffffffffff1673ffffffffffffffffffffffffffffffffffffffff16815260200191505060206040518083038186803b15801561147357600080fd5b505afa158015611487573d6000803e3d6000fd5b505050506040513d602081101561149d57600080fd5b810190808051906020019092919050505090506114db33828473ffffffffffffffffffffffffffffffffffffffff166121789092919063ffffffff16565b505050565b60008060009054906101000a900473ffffffffffffffffffffffffffffffffffffffff16905090565b60025481565b60085481565b600560009054906101000a900473ffffffffffffffffffffffffffffffffffffffff1681565b6000600254146115b3576040517f08c379a00000000000000000000000000000000000000000000000000000000081526004018080602001828103825260148152602001807f42757920616c7265616479206f6363757272656400000000000000000000000081525060200191505060405180910390fd5b60008061168b735c69bee701ef814a2b6a3edd4b1652cb9cc5aa6f737a250d5630b4cf539739df2c5dacb4c659f2488d73ffffffffffffffffffffffffffffffffffffffff1663ad5c46486040518163ffffffff1660e01b815260040160206040518083038186803b15801561162857600080fd5b505afa15801561163c573d6000803e3d6000fd5b505050506040513d602081101561165257600080fd5b8101908080519060200190929190505050600560009054906101000a900473ffffffffffffffffffffffffffffffffffffffff16612230565b9150915060006116a18383600654600154612359565b905060008113611719576040517f08c379a00000000000000000000000000000000000000000000000000000000081526004018080602001828103825260168152602001807f507269636520616c726561647920746f6f20686967680000000000000000000081525060200191505060405180910390fd5b600061172582476120d9565b90506060600267ffffffffffffffff8111801561174157600080fd5b506040519080825280602002602001820160405280156117705781602001602082028036833780820191505090505b509050737a250d5630b4cf539739df2c5dacb4c659f2488d73ffffffffffffffffffffffffffffffffffffffff1663ad5c46486040518163ffffffff1660e01b815260040160206040518083038186803b1580156117cd57600080fd5b505afa1580156117e1573d6000803e3d6000fd5b505050506040513d60208110156117f757600080fd5b81019080805190602001909291905050508160008151811061181557fe5b602002602001019073ffffffffffffffffffffffffffffffffffffffff16908173ffffffffffffffffffffffffffffffffffffffff1681525050600560009054906101000a900473ffffffffffffffffffffffffffffffffffffffff168160018151811061187f57fe5b602002602001019073ffffffffffffffffffffffffffffffffffffffff16908173ffffffffffffffffffffffffffffffffffffffff1681525050737a250d5630b4cf539739df2c5dacb4c659f2488d73ffffffffffffffffffffffffffffffffffffffff16637ff36ab58360018430426040518663ffffffff1660e01b815260040180858152602001806020018473ffffffffffffffffffffffffffffffffffffffff1673ffffffffffffffffffffffffffffffffffffffff168152602001838152602001828103825285818151815260200191508051906020019060200280838360005b8381101561197f578082015181840152602081019050611964565b50505050905001955050505050506000604051808303818588803b1580156119a657600080fd5b505af11580156119ba573d6000803e3d6000fd5b50505050506040513d6000823e3d601f19601f8201168201806040525060208110156119e557600080fd5b8101908080516040519392919084640100000000821115611a0557600080fd5b83820191506020820185811115611a1b57600080fd5b8251866020820283011164010000000082111715611a3857600080fd5b8083526020830192505050908051906020019060200280838360005b83811015611a6f578082015181840152602081019050611a54565b5050505090500160405250505050436002819055505050505050565b60045481565b60065481565b60015481565b611aa5611e66565b73ffffffffffffffffffffffffffffffffffffffff166000809054906101000a900473ffffffffffffffffffffffffffffffffffffffff1673ffffffffffffffffffffffffffffffffffffffff1614611b66576040517f08c379a00000000000000000000000000000000000000000000000000000000081526004018080602001828103825260208152602001807f4f776e61626c653a2063616c6c6572206973206e6f7420746865206f776e657281525060200191505060405180910390fd5b600060028190555060006003819055506000600481905550565b60075481565b611b8e611e66565b73ffffffffffffffffffffffffffffffffffffffff166000809054906101000a900473ffffffffffffffffffffffffffffffffffffffff1673ffffffffffffffffffffffffffffffffffffffff1614611c4f576040517f08c379a00000000000000000000000000000000000000000000000000000000081526004018080602001828103825260208152602001807f4f776e61626c653a2063616c6c6572206973206e6f7420746865206f776e657281525060200191505060405180910390fd5b600073ffffffffffffffffffffffffffffffffffffffff168173ffffffffffffffffffffffffffffffffffffffff161415611cd5576040517f08c379a0000000000000000000000000000000000000000000000000000000008152600401808060200182810382526026815260200180612ab46026913960400191505060405180910390fd5b8073ffffffffffffffffffffffffffffffffffffffff166000809054906101000a900473ffffffffffffffffffffffffffffffffffffffff1673ffffffffffffffffffffffffffffffffffffffff167f8be0079c531659141344cd1fd0a4f28419497f9722a3daafe3b4186f6b6457e060405160405180910390a3806000806101000a81548173ffffffffffffffffffffffffffffffffffffffff021916908373ffffffffffffffffffffffffffffffffffffffff16021790555050565b611d9b611e66565b73ffffffffffffffffffffffffffffffffffffffff166000809054906101000a900473ffffffffffffffffffffffffffffffffffffffff1673ffffffffffffffffffffffffffffffffffffffff1614611e5c576040517f08c379a00000000000000000000000000000000000000000000000000000000081526004018080602001828103825260208152602001807f4f776e61626c653a2063616c6c6572206973206e6f7420746865206f776e657281525060200191505060405180910390fd5b8060068190555050565b600033905090565b600081831015611e7e5781611e80565b825b905092915050565b6000811480611f82575060008373ffffffffffffffffffffffffffffffffffffffff1663dd62ed3e30856040518363ffffffff1660e01b8152600401808373ffffffffffffffffffffffffffffffffffffffff1673ffffffffffffffffffffffffffffffffffffffff1681526020018273ffffffffffffffffffffffffffffffffffffffff1673ffffffffffffffffffffffffffffffffffffffff1681526020019250505060206040518083038186803b158015611f4557600080fd5b505afa158015611f59573d6000803e3d6000fd5b505050506040513d6020811015611f6f57600080fd5b8101908080519060200190929190505050145b611fd7576040517f08c379a0000000000000000000000000000000000000000000000000000000008152600401808060200182810382526036815260200180612bc36036913960400191505060405180910390fd5b61208a8363095ea7b360e01b8484604051602401808373ffffffffffffffffffffffffffffffffffffffff1673ffffffffffffffffffffffffffffffffffffffff16815260200182815260200192505050604051602081830303815290604052907bffffffffffffffffffffffffffffffffffffffffffffffffffffffff19166020820180517bffffffffffffffffffffffffffffffffffffffffffffffffffffffff838183161783525050505061238c565b505050565b60006120d183836040518060400160405280601a81526020017f536166654d6174683a206469766973696f6e206279207a65726f00000000000081525061247b565b905092915050565b60008183106120e857816120ea565b825b905092915050565b6000808314156121055760009050612172565b600082840290508284828161211657fe5b041461216d576040517f08c379a0000000000000000000000000000000000000000000000000000000008152600401808060200182810382526021815260200180612b4e6021913960400191505060405180910390fd5b809150505b92915050565b61222b8363a9059cbb60e01b8484604051602401808373ffffffffffffffffffffffffffffffffffffffff1673ffffffffffffffffffffffffffffffffffffffff16815260200182815260200192505050604051602081830303815290604052907bffffffffffffffffffffffffffffffffffffffffffffffffffffffff19166020820180517bffffffffffffffffffffffffffffffffffffffffffffffffffffffff838183161783525050505061238c565b505050565b600080600061223f8585612541565b5090506000806122508888886126b8565b73ffffffffffffffffffffffffffffffffffffffff16630902f1ac6040518163ffffffff1660e01b815260040160606040518083038186803b15801561229557600080fd5b505afa1580156122a9573d6000803e3d6000fd5b505050506040513d60608110156122bf57600080fd5b81019080805190602001909291908051906020019092919080519060200190929190505050506dffffffffffffffffffffffffffff1691506dffffffffffffffffffffffffffff1691508273ffffffffffffffffffffffffffffffffffffffff168773ffffffffffffffffffffffffffffffffffffffff1614612343578082612346565b81815b8095508196505050505050935093915050565b60008083866103e8020283866103e502020390506000846103e502905080828161237f57fe5b0592505050949350505050565b60606123ee826040518060400160405280602081526020017f5361666545524332303a206c6f772d6c6576656c2063616c6c206661696c65648152508573ffffffffffffffffffffffffffffffffffffffff166128139092919063ffffffff16565b90506000815111156124765780806020019051602081101561240f57600080fd5b8101908080519060200190929190505050612475576040517f08c379a000000000000000000000000000000000000000000000000000000000815260040180806020018281038252602a815260200180612b99602a913960400191505060405180910390fd5b5b505050565b60008083118290612527576040517f08c379a00000000000000000000000000000000000000000000000000000000081526004018080602001828103825283818151815260200191508051906020019080838360005b838110156124ec5780820151818401526020810190506124d1565b50505050905090810190601f1680156125195780820380516001836020036101000a031916815260200191505b509250505060405180910390fd5b50600083858161253357fe5b049050809150509392505050565b6000808273ffffffffffffffffffffffffffffffffffffffff168473ffffffffffffffffffffffffffffffffffffffff1614156125c9576040517f08c379a0000000000000000000000000000000000000000000000000000000008152600401808060200182810382526025815260200180612b036025913960400191505060405180910390fd5b8273ffffffffffffffffffffffffffffffffffffffff168473ffffffffffffffffffffffffffffffffffffffff1610612603578284612606565b83835b8092508193505050600073ffffffffffffffffffffffffffffffffffffffff168273ffffffffffffffffffffffffffffffffffffffff1614156126b1576040517f08c379a000000000000000000000000000000000000000000000000000000000815260040180806020018281038252601e8152602001807f556e697377617056324c6962726172793a205a45524f5f41444452455353000081525060200191505060405180910390fd5b9250929050565b60008060006126c78585612541565b91509150858282604051602001808373ffffffffffffffffffffffffffffffffffffffff1673ffffffffffffffffffffffffffffffffffffffff1660601b81526014018273ffffffffffffffffffffffffffffffffffffffff1673ffffffffffffffffffffffffffffffffffffffff1660601b8152601401925050506040516020818303038152906040528051906020012060405160200180807fff000000000000000000000000000000000000000000000000000000000000008152506001018373ffffffffffffffffffffffffffffffffffffffff1673ffffffffffffffffffffffffffffffffffffffff1660601b8152601401828152602001807f96e8ac4277198ff8b6f785478aa9a39f403cb768dd02cbee326c3e7da348845f815250602001925050506040516020818303038152906040528051906020012060001c925050509392505050565b6060612822848460008561282b565b90509392505050565b606082471015612886576040517f08c379a0000000000000000000000000000000000000000000000000000000008152600401808060200182810382526026815260200180612b286026913960400191505060405180910390fd5b61288f856129d4565b612901576040517f08c379a000000000000000000000000000000000000000000000000000000000815260040180806020018281038252601d8152602001807f416464726573733a2063616c6c20746f206e6f6e2d636f6e747261637400000081525060200191505060405180910390fd5b600060608673ffffffffffffffffffffffffffffffffffffffff1685876040518082805190602001908083835b60208310612951578051825260208201915060208101905060208303925061292e565b6001836020036101000a03801982511681845116808217855250505050505090500191505060006040518083038185875af1925050503d80600081146129b3576040519150601f19603f3d011682016040523d82523d6000602084013e6129b8565b606091505b50915091506129c88282866129e7565b92505050949350505050565b600080823b905060008111915050919050565b606083156129f757829050612aac565b600083511115612a0a5782518084602001fd5b816040517f08c379a00000000000000000000000000000000000000000000000000000000081526004018080602001828103825283818151815260200191508051906020019080838360005b83811015612a71578082015181840152602081019050612a56565b50505050905090810190601f168015612a9e5780820380516001836020036101000a031916815260200191505b509250505060405180910390fd5b939250505056fe4f776e61626c653a206e6577206f776e657220697320746865207a65726f2061646472657373416e6f7468657220627579206f6363757272656420696e2073616d6520626c6f636b206e756d626572556e697377617056324c6962726172793a204944454e544943414c5f414444524553534553416464726573733a20696e73756666696369656e742062616c616e636520666f722063616c6c536166654d6174683a206d756c7469706c69636174696f6e206f766572666c6f77416e6f746865722073656c6c206f6363757272656420696e2073616d6520626c6f636b206e756d6265725361666545524332303a204552433230206f7065726174696f6e20646964206e6f7420737563636565645361666545524332303a20617070726f76652066726f6d206e6f6e2d7a65726f20746f206e6f6e2d7a65726f20616c6c6f77616e6365a2646970667358221220afeee8ff0afc7ca606a2074fe151b1bab426a2c05d1bc6ac708bf20d2663924f64736f6c63430006060033"
  }
}