{"compiler":"v0.8.7+commit.e28d00a7","opcodeHash":"0x4d39ef67c52560cb8138c85eed7aed9909f377c09e18323b5bced4f2e146568c","metalessHash":"0xd7b301fb134beb035838696f97b2acd3f8c88a8821087f75e3f4910444ce9378","runtimeHash":"0x060f56a0447a37fec9c35e4945da7eca85658552e73eee8324b718e6c77e7578","encodedMetadata":[{"ipfs":"/ipfs/QmYkDzqzU3Wws6mgphQqJfYZXrJJYK73Z45nMTM8YbNxGR","solc":"0.8.7"}],"abi":[{"inputs":[],"stateMutability":"nonpayable","type":"constructor"},{"anonymous":false,"inputs":[{"indexed":true,"internalType":"address","name":"owner","type":"address"},{"indexed":true,"internalType":"address","name":"approved","type":"address"},{"indexed":true,"internalType":"uint256","name":"tokenId","type":"uint256"}],"name":"Approval","type":"event"},{"anonymous":false,"inputs":[{"indexed":true,"internalType":"address","name":"owner","type":"address"},{"indexed":true,"internalType":"address","name":"operator","type":"address"},{"indexed":false,"internalType":"bool","name":"approved","type":"bool"}],"name":"ApprovalForAll","type":"event"},{"anonymous":false,"inputs":[{"indexed":true,"internalType":"address","name":"previousOwner","type":"address"},{"indexed":true,"internalType":"address","name":"newOwner","type":"address"}],"name":"OwnershipTransferred","type":"event"},{"anonymous":false,"inputs":[{"indexed":false,"internalType":"address","name":"from","type":"address"},{"indexed":false,"internalType":"uint256","name":"amount","type":"uint256"}],"name":"PaymentReceived","type":"event"},{"anonymous":false,"inputs":[{"indexed":false,"internalType":"address","name":"owner","type":"address"},{"indexed":false,"internalType":"uint256","name":"tokenId","type":"uint256"}],"name":"TokenMinted","type":"event"},{"anonymous":false,"inputs":[{"indexed":true,"internalType":"address","name":"from","type":"address"},{"indexed":true,"internalType":"address","name":"to","type":"address"},{"indexed":true,"internalType":"uint256","name":"tokenId","type":"uint256"}],"name":"Transfer","type":"event"},{"inputs":[{"internalType":"address","name":"to","type":"address"},{"internalType":"uint256","name":"tokenId","type":"uint256"}],"name":"approve","outputs":[],"stateMutability":"nonpayable","type":"function"},{"inputs":[{"internalType":"address","name":"owner","type":"address"}],"name":"balanceOf","outputs":[{"internalType":"uint256","name":"","type":"uint256"}],"stateMutability":"view","type":"function"},{"inputs":[],"name":"baseTokenURI","outputs":[{"internalType":"string","name":"","type":"string"}],"stateMutability":"view","type":"function"},{"inputs":[{"internalType":"string","name":"newstring","type":"string"}],"name":"changeBaseTokenURI","outputs":[],"stateMutability":"nonpayable","type":"function"},{"inputs":[{"internalType":"string","name":"newstring","type":"string"}],"name":"changeInfo","outputs":[],"stateMutability":"nonpayable","type":"function"},{"inputs":[{"internalType":"uint256","name":"tokenId","type":"uint256"}],"name":"getApproved","outputs":[{"internalType":"address","name":"","type":"address"}],"stateMutability":"view","type":"function"},{"inputs":[],"name":"info","outputs":[{"internalType":"string","name":"","type":"string"}],"stateMutability":"view","type":"function"},{"inputs":[],"name":"infohasnotbeenset","outputs":[{"internalType":"bool","name":"","type":"bool"}],"stateMutability":"view","type":"function"},{"inputs":[{"internalType":"address","name":"owner","type":"address"},{"internalType":"address","name":"operator","type":"address"}],"name":"isApprovedForAll","outputs":[{"internalType":"bool","name":"","type":"bool"}],"stateMutability":"view","type":"function"},{"inputs":[],"name":"lockContract","outputs":[],"stateMutability":"nonpayable","type":"function"},{"inputs":[],"name":"name","outputs":[{"internalType":"string","name":"","type":"string"}],"stateMutability":"view","type":"function"},{"inputs":[],"name":"owner","outputs":[{"internalType":"address","name":"","type":"address"}],"stateMutability":"view","type":"function"},{"inputs":[{"internalType":"uint256","name":"tokenId","type":"uint256"}],"name":"ownerOf","outputs":[{"internalType":"address","name":"","type":"address"}],"stateMutability":"view","type":"function"},{"inputs":[],"name":"renounceOwnership","outputs":[],"stateMutability":"nonpayable","type":"function"},{"inputs":[{"internalType":"address","name":"from","type":"address"},{"internalType":"address","name":"to","type":"address"},{"internalType":"uint256","name":"tokenId","type":"uint256"}],"name":"safeTransferFrom","outputs":[],"stateMutability":"nonpayable","type":"function"},{"inputs":[{"internalType":"address","name":"from","type":"address"},{"internalType":"address","name":"to","type":"address"},{"internalType":"uint256","name":"tokenId","type":"uint256"},{"internalType":"bytes","name":"_data","type":"bytes"}],"name":"safeTransferFrom","outputs":[],"stateMutability":"nonpayable","type":"function"},{"inputs":[{"internalType":"address","name":"operator","type":"address"},{"internalType":"bool","name":"approved","type":"bool"}],"name":"setApprovalForAll","outputs":[],"stateMutability":"nonpayable","type":"function"},{"inputs":[{"internalType":"bytes4","name":"interfaceId","type":"bytes4"}],"name":"supportsInterface","outputs":[{"internalType":"bool","name":"","type":"bool"}],"stateMutability":"view","type":"function"},{"inputs":[],"name":"symbol","outputs":[{"internalType":"string","name":"","type":"string"}],"stateMutability":"view","type":"function"},{"inputs":[{"internalType":"uint256","name":"tokenId","type":"uint256"}],"name":"tokenURI","outputs":[{"internalType":"string","name":"","type":"string"}],"stateMutability":"view","type":"function"},{"inputs":[{"internalType":"address","name":"from","type":"address"},{"internalType":"address","name":"to","type":"address"},{"internalType":"uint256","name":"tokenId","type":"uint256"}],"name":"transferFrom","outputs":[],"stateMutability":"nonpayable","type":"function"},{"inputs":[{"internalType":"address","name":"newOwner","type":"address"}],"name":"transferOwnership","outputs":[],"stateMutability":"nonpayable","type":"function"},{"stateMutability":"payable","type":"receive"}],"bytecode":{"object":"60806040526040518060400160405280600481526020017f5445585400000000000000000000000000000000000000000000000000000000815250600890805190602001906200005192919062000789565b506001600960006101000a81548160ff02191690831515021790555060405180606001604052806023815260200162003e0360239139600a90805190602001906200009e92919062000789565b50348015620000ac57600080fd5b506040518060400160405280600b81526020017f5069636b2d412d5477696e0000000000000000000000000000000000000000008152506040518060400160405280600681526020017f464e474c5054000000000000000000000000000000000000000000000000000081525081600090805190602001906200013192919062000789565b5080600190805190602001906200014a92919062000789565b5050506200016d62000161620001bc60201b60201c565b620001c460201b60201c565b620001947328f6a2bee9ce20fc0ab14db3a7db444f6f5988b760016200028a60201b60201c565b620001b6620001a8620001bc60201b60201c565b60026200028a60201b60201c565b62000d15565b600033905090565b6000600660009054906101000a900473ffffffffffffffffffffffffffffffffffffffff16905081600660006101000a81548173ffffffffffffffffffffffffffffffffffffffff021916908373ffffffffffffffffffffffffffffffffffffffff1602179055508173ffffffffffffffffffffffffffffffffffffffff168173ffffffffffffffffffffffffffffffffffffffff167f8be0079c531659141344cd1fd0a4f28419497f9722a3daafe3b4186f6b6457e060405160405180910390a35050565b620002ac828260405180602001604052806000815250620002b060201b60201c565b5050565b620002c283836200031e60201b60201c565b620002d760008484846200054b60201b60201c565b62000319576040517f08c379a00000000000000000000000000000000000000000000000000000000081526004016200031090620009d5565b60405180910390fd5b505050565b600073ffffffffffffffffffffffffffffffffffffffff168273ffffffffffffffffffffffffffffffffffffffff16141562000391576040517f08c379a0000000000000000000000000000000000000000000000000000000008152600401620003889062000a3b565b60405180910390fd5b620003a2816200070560201b60201c565b15620003e5576040517f08c379a0000000000000000000000000000000000000000000000000000000008152600401620003dc90620009f7565b60405180910390fd5b60028111156200042c576040517f08c379a0000000000000000000000000000000000000000000000000000000008152600401620004239062000a19565b60405180910390fd5b62000440600083836200077160201b60201c565b6001600360008473ffffffffffffffffffffffffffffffffffffffff1673ffffffffffffffffffffffffffffffffffffffff168152602001908152602001600020600082825462000492919062000a8a565b92505081905550816002600083815260200190815260200160002060006101000a81548173ffffffffffffffffffffffffffffffffffffffff021916908373ffffffffffffffffffffffffffffffffffffffff160217905550808273ffffffffffffffffffffffffffffffffffffffff16600073ffffffffffffffffffffffffffffffffffffffff167fddf252ad1be2c89b69c2b068fc378daa952ba7f163c4a11628f55a4df523b3ef60405160405180910390a45050565b6000620005798473ffffffffffffffffffffffffffffffffffffffff166200077660201b620012421760201c565b15620006f8578373ffffffffffffffffffffffffffffffffffffffff1663150b7a02620005ab620001bc60201b60201c565b8786866040518563ffffffff1660e01b8152600401620005cf949392919062000981565b602060405180830381600087803b158015620005ea57600080fd5b505af19250505080156200061e57506040513d601f19601f820116820180604052508101906200061b919062000850565b60015b620006a7573d806000811462000651576040519150601f19603f3d011682016040523d82523d6000602084013e62000656565b606091505b506000815114156200069f576040517f08c379a00000000000000000000000000000000000000000000000000000000081526004016200069690620009d5565b60405180910390fd5b805181602001fd5b63150b7a0260e01b7bffffffffffffffffffffffffffffffffffffffffffffffffffffffff1916817bffffffffffffffffffffffffffffffffffffffffffffffffffffffff191614915050620006fd565b600190505b949350505050565b60008073ffffffffffffffffffffffffffffffffffffffff166002600084815260200190815260200160002060009054906101000a900473ffffffffffffffffffffffffffffffffffffffff1673ffffffffffffffffffffffffffffffffffffffff1614159050919050565b505050565b600080823b905060008111915050919050565b828054620007979062000b87565b90600052602060002090601f016020900481019282620007bb576000855562000807565b82601f10620007d657805160ff191683800117855562000807565b8280016001018555821562000807579182015b8281111562000806578251825591602001919060010190620007e9565b5b5090506200081691906200081a565b5090565b5b80821115620008355760008160009055506001016200081b565b5090565b6000815190506200084a8162000cfb565b92915050565b60006020828403121562000869576200086862000c1b565b5b6000620008798482850162000839565b91505092915050565b6200088d8162000ae7565b82525050565b6000620008a08262000a5d565b620008ac818562000a68565b9350620008be81856020860162000b51565b620008c98162000c20565b840191505092915050565b6000620008e360328362000a79565b9150620008f08262000c31565b604082019050919050565b60006200090a601c8362000a79565b9150620009178262000c80565b602082019050919050565b600062000931601a8362000a79565b91506200093e8262000ca9565b602082019050919050565b60006200095860208362000a79565b9150620009658262000cd2565b602082019050919050565b6200097b8162000b47565b82525050565b600060808201905062000998600083018762000882565b620009a7602083018662000882565b620009b6604083018562000970565b8181036060830152620009ca818462000893565b905095945050505050565b60006020820190508181036000830152620009f081620008d4565b9050919050565b6000602082019050818103600083015262000a1281620008fb565b9050919050565b6000602082019050818103600083015262000a348162000922565b9050919050565b6000602082019050818103600083015262000a568162000949565b9050919050565b600081519050919050565b600082825260208201905092915050565b600082825260208201905092915050565b600062000a978262000b47565b915062000aa48362000b47565b9250827fffffffffffffffffffffffffffffffffffffffffffffffffffffffffffffffff0382111562000adc5762000adb62000bbd565b5b828201905092915050565b600062000af48262000b27565b9050919050565b60007fffffffff0000000000000000000000000000000000000000000000000000000082169050919050565b600073ffffffffffffffffffffffffffffffffffffffff82169050919050565b6000819050919050565b60005b8381101562000b7157808201518184015260208101905062000b54565b8381111562000b81576000848401525b50505050565b6000600282049050600182168062000ba057607f821691505b6020821081141562000bb75762000bb662000bec565b5b50919050565b7f4e487b7100000000000000000000000000000000000000000000000000000000600052601160045260246000fd5b7f4e487b7100000000000000000000000000000000000000000000000000000000600052602260045260246000fd5b600080fd5b6000601f19601f8301169050919050565b7f4552433732313a207472616e7366657220746f206e6f6e20455243373231526560008201527f63656976657220696d706c656d656e7465720000000000000000000000000000602082015250565b7f4552433732313a20746f6b656e20616c7265616479206d696e74656400000000600082015250565b7f4552433732313a206e6f206d6f726520746f6b656e7320706c73000000000000600082015250565b7f4552433732313a206d696e7420746f20746865207a65726f2061646472657373600082015250565b62000d068162000afb565b811462000d1257600080fd5b50565b6130de8062000d256000396000f3fe6080604052600436106101395760003560e01c8063753868e3116100ab578063b88d4fde1161006f578063b88d4fde14610512578063c87b56dd1461053b578063d547cfb714610578578063e40e97a7146105a3578063e985e9c5146105cc578063f2fde38b1461060957610247565b8063753868e3146104515780638da5cb5b1461046857806395d89b4114610493578063a22cb465146104be578063af9fefbf146104e757610247565b806323b872dd116100fd57806323b872dd14610343578063370158ea1461036c57806342842e0e146103975780636352211e146103c057806370a08231146103fd578063715018a61461043a57610247565b806301ffc9a71461024c57806306fdde0314610289578063081812fc146102b4578063095ea7b3146102f1578063194659531461031a57610247565b3661024757734257d02e2854c9c86d6975fcd14a1af4fa65a65273ffffffffffffffffffffffffffffffffffffffff166108fc60023461017991906128ef565b9081150290604051600060405180830381858888f193505050501580156101a4573d6000803e3d6000fd5b50732ea533314069dc9b4df29e72bd1dfb64cc68456d73ffffffffffffffffffffffffffffffffffffffff166108fc6002346101e091906128ef565b9081150290604051600060405180830381858888f1935050505015801561020b573d6000803e3d6000fd5b507f6ef95f06320e7a25a04a175ca677b7052bdd97131872c2192525a629f51be770333460405161023d92919061256e565b60405180910390a1005b600080fd5b34801561025857600080fd5b50610273600480360381019061026e9190612136565b610632565b6040516102809190612597565b60405180910390f35b34801561029557600080fd5b5061029e610714565b6040516102ab91906125b2565b60405180910390f35b3480156102c057600080fd5b506102db60048036038101906102d691906121d9565b6107a6565b6040516102e89190612507565b60405180910390f35b3480156102fd57600080fd5b50610318600480360381019061031391906120f6565b61082b565b005b34801561032657600080fd5b50610341600480360381019061033c9190612190565b610943565b005b34801561034f57600080fd5b5061036a60048036038101906103659190611fe0565b6109f2565b005b34801561037857600080fd5b50610381610a52565b60405161038e91906125b2565b60405180910390f35b3480156103a357600080fd5b506103be60048036038101906103b99190611fe0565b610ae0565b005b3480156103cc57600080fd5b506103e760048036038101906103e291906121d9565b610b00565b6040516103f49190612507565b60405180910390f35b34801561040957600080fd5b50610424600480360381019061041f9190611f73565b610bb2565b60405161043191906127b4565b60405180910390f35b34801561044657600080fd5b5061044f610c6a565b005b34801561045d57600080fd5b50610466610cf2565b005b34801561047457600080fd5b5061047d610d8b565b60405161048a9190612507565b60405180910390f35b34801561049f57600080fd5b506104a8610db5565b6040516104b591906125b2565b60405180910390f35b3480156104ca57600080fd5b506104e560048036038101906104e091906120b6565b610e47565b005b3480156104f357600080fd5b506104fc610e5d565b6040516105099190612597565b60405180910390f35b34801561051e57600080fd5b5061053960048036038101906105349190612033565b610e70565b005b34801561054757600080fd5b50610562600480360381019061055d91906121d9565b610ed2565b60405161056f91906125b2565b60405180910390f35b34801561058457600080fd5b5061058d610f79565b60405161059a91906125b2565b60405180910390f35b3480156105af57600080fd5b506105ca60048036038101906105c59190612190565b611007565b005b3480156105d857600080fd5b506105f360048036038101906105ee9190611fa0565b6110b6565b6040516106009190612597565b60405180910390f35b34801561061557600080fd5b50610630600480360381019061062b9190611f73565b61114a565b005b60007f80ac58cd000000000000000000000000000000000000000000000000000000007bffffffffffffffffffffffffffffffffffffffffffffffffffffffff1916827bffffffffffffffffffffffffffffffffffffffffffffffffffffffff191614806106fd57507f5b5e139f000000000000000000000000000000000000000000000000000000007bffffffffffffffffffffffffffffffffffffffffffffffffffffffff1916827bffffffffffffffffffffffffffffffffffffffffffffffffffffffff1916145b8061070d575061070c82611255565b5b9050919050565b60606000805461072390612a0a565b80601f016020809104026020016040519081016040528092919081815260200182805461074f90612a0a565b801561079c5780601f106107715761010080835404028352916020019161079c565b820191906000526020600020905b81548152906001019060200180831161077f57829003601f168201915b5050505050905090565b60006107b1826112bf565b6107f0576040517f08c379a00000000000000000000000000000000000000000000000000000000081526004016107e7906126d4565b60405180910390fd5b6004600083815260200190815260200160002060009054906101000a900473ffffffffffffffffffffffffffffffffffffffff169050919050565b600061083682610b00565b90508073ffffffffffffffffffffffffffffffffffffffff168373ffffffffffffffffffffffffffffffffffffffff1614156108a7576040517f08c379a000000000000000000000000000000000000000000000000000000000815260040161089e90612754565b60405180910390fd5b8073ffffffffffffffffffffffffffffffffffffffff166108c661132b565b73ffffffffffffffffffffffffffffffffffffffff1614806108f557506108f4816108ef61132b565b6110b6565b5b610934576040517f08c379a000000000000000000000000000000000000000000000000000000000815260040161092b90612674565b60405180910390fd5b61093e8383611333565b505050565b61094b61132b565b73ffffffffffffffffffffffffffffffffffffffff16610969610d8b565b73ffffffffffffffffffffffffffffffffffffffff16146109bf576040517f08c379a00000000000000000000000000000000000000000000000000000000081526004016109b6906126f4565b60405180910390fd5b600960009054906101000a900460ff166109d857600080fd5b80600890805190602001906109ee929190611d87565b5050565b610a036109fd61132b565b826113ec565b610a42576040517f08c379a0000000000000000000000000000000000000000000000000000000008152600401610a3990612774565b60405180910390fd5b610a4d8383836114ca565b505050565b60088054610a5f90612a0a565b80601f0160208091040260200160405190810160405280929190818152602001828054610a8b90612a0a565b8015610ad85780601f10610aad57610100808354040283529160200191610ad8565b820191906000526020600020905b815481529060010190602001808311610abb57829003601f168201915b505050505081565b610afb83838360405180602001604052806000815250610e70565b505050565b6000806002600084815260200190815260200160002060009054906101000a900473ffffffffffffffffffffffffffffffffffffffff169050600073ffffffffffffffffffffffffffffffffffffffff168173ffffffffffffffffffffffffffffffffffffffff161415610ba9576040517f08c379a0000000000000000000000000000000000000000000000000000000008152600401610ba0906126b4565b60405180910390fd5b80915050919050565b60008073ffffffffffffffffffffffffffffffffffffffff168273ffffffffffffffffffffffffffffffffffffffff161415610c23576040517f08c379a0000000000000000000000000000000000000000000000000000000008152600401610c1a90612694565b60405180910390fd5b600360008373ffffffffffffffffffffffffffffffffffffffff1673ffffffffffffffffffffffffffffffffffffffff168152602001908152602001600020549050919050565b610c7261132b565b73ffffffffffffffffffffffffffffffffffffffff16610c90610d8b565b73ffffffffffffffffffffffffffffffffffffffff1614610ce6576040517f08c379a0000000000000000000000000000000000000000000000000000000008152600401610cdd906126f4565b60405180910390fd5b610cf06000611769565b565b610cfa61132b565b73ffffffffffffffffffffffffffffffffffffffff16610d18610d8b565b73ffffffffffffffffffffffffffffffffffffffff1614610d6e576040517f08c379a0000000000000000000000000000000000000000000000000000000008152600401610d65906126f4565b60405180910390fd5b6000600960006101000a81548160ff021916908315150217905550565b6000600660009054906101000a900473ffffffffffffffffffffffffffffffffffffffff16905090565b606060018054610dc490612a0a565b80601f0160208091040260200160405190810160405280929190818152602001828054610df090612a0a565b8015610e3d5780601f10610e1257610100808354040283529160200191610e3d565b820191906000526020600020905b815481529060010190602001808311610e2057829003601f168201915b5050505050905090565b610e59610e5261132b565b838361182f565b5050565b600960009054906101000a900460ff1681565b610e81610e7b61132b565b836113ec565b610ec0576040517f08c379a0000000000000000000000000000000000000000000000000000000008152600401610eb790612774565b60405180910390fd5b610ecc8484848461199c565b50505050565b6060610edd826112bf565b610f1c576040517f08c379a0000000000000000000000000000000000000000000000000000000008152600401610f1390612734565b60405180910390fd5b6000610f266119f8565b90506000815111610f465760405180602001604052806000815250610f71565b80610f5084611a8a565b604051602001610f619291906124e3565b6040516020818303038152906040525b915050919050565b600a8054610f8690612a0a565b80601f0160208091040260200160405190810160405280929190818152602001828054610fb290612a0a565b8015610fff5780601f10610fd457610100808354040283529160200191610fff565b820191906000526020600020905b815481529060010190602001808311610fe257829003601f168201915b505050505081565b61100f61132b565b73ffffffffffffffffffffffffffffffffffffffff1661102d610d8b565b73ffffffffffffffffffffffffffffffffffffffff1614611083576040517f08c379a000000000000000000000000000000000000000000000000000000000815260040161107a906126f4565b60405180910390fd5b600960009054906101000a900460ff1661109c57600080fd5b80600a90805190602001906110b2929190611d87565b5050565b6000600560008473ffffffffffffffffffffffffffffffffffffffff1673ffffffffffffffffffffffffffffffffffffffff16815260200190815260200160002060008373ffffffffffffffffffffffffffffffffffffffff1673ffffffffffffffffffffffffffffffffffffffff16815260200190815260200160002060009054906101000a900460ff16905092915050565b61115261132b565b73ffffffffffffffffffffffffffffffffffffffff16611170610d8b565b73ffffffffffffffffffffffffffffffffffffffff16146111c6576040517f08c379a00000000000000000000000000000000000000000000000000000000081526004016111bd906126f4565b60405180910390fd5b600073ffffffffffffffffffffffffffffffffffffffff168173ffffffffffffffffffffffffffffffffffffffff161415611236576040517f08c379a000000000000000000000000000000000000000000000000000000000815260040161122d906125f4565b60405180910390fd5b61123f81611769565b50565b600080823b905060008111915050919050565b60007f01ffc9a7000000000000000000000000000000000000000000000000000000007bffffffffffffffffffffffffffffffffffffffffffffffffffffffff1916827bffffffffffffffffffffffffffffffffffffffffffffffffffffffff1916149050919050565b60008073ffffffffffffffffffffffffffffffffffffffff166002600084815260200190815260200160002060009054906101000a900473ffffffffffffffffffffffffffffffffffffffff1673ffffffffffffffffffffffffffffffffffffffff1614159050919050565b600033905090565b816004600083815260200190815260200160002060006101000a81548173ffffffffffffffffffffffffffffffffffffffff021916908373ffffffffffffffffffffffffffffffffffffffff160217905550808273ffffffffffffffffffffffffffffffffffffffff166113a683610b00565b73ffffffffffffffffffffffffffffffffffffffff167f8c5be1e5ebec7d5bd14f71427d1e84f3dd0314c0f7b2291e5b200ac8c7c3b92560405160405180910390a45050565b60006113f7826112bf565b611436576040517f08c379a000000000000000000000000000000000000000000000000000000000815260040161142d90612654565b60405180910390fd5b600061144183610b00565b90508073ffffffffffffffffffffffffffffffffffffffff168473ffffffffffffffffffffffffffffffffffffffff1614806114b057508373ffffffffffffffffffffffffffffffffffffffff16611498846107a6565b73ffffffffffffffffffffffffffffffffffffffff16145b806114c157506114c081856110b6565b5b91505092915050565b8273ffffffffffffffffffffffffffffffffffffffff166114ea82610b00565b73ffffffffffffffffffffffffffffffffffffffff1614611540576040517f08c379a000000000000000000000000000000000000000000000000000000000815260040161153790612714565b60405180910390fd5b600073ffffffffffffffffffffffffffffffffffffffff168273ffffffffffffffffffffffffffffffffffffffff1614156115b0576040517f08c379a00000000000000000000000000000000000000000000000000000000081526004016115a790612614565b60405180910390fd5b600281146115f3576040517f08c379a00000000000000000000000000000000000000000000000000000000081526004016115ea90612794565b60405180910390fd5b6115fe838383611beb565b611609600082611333565b6001600360008573ffffffffffffffffffffffffffffffffffffffff1673ffffffffffffffffffffffffffffffffffffffff16815260200190815260200160002060008282546116599190612920565b925050819055506001600360008473ffffffffffffffffffffffffffffffffffffffff1673ffffffffffffffffffffffffffffffffffffffff16815260200190815260200160002060008282546116b09190612899565b92505081905550816002600083815260200190815260200160002060006101000a81548173ffffffffffffffffffffffffffffffffffffffff021916908373ffffffffffffffffffffffffffffffffffffffff160217905550808273ffffffffffffffffffffffffffffffffffffffff168473ffffffffffffffffffffffffffffffffffffffff167fddf252ad1be2c89b69c2b068fc378daa952ba7f163c4a11628f55a4df523b3ef60405160405180910390a4505050565b6000600660009054906101000a900473ffffffffffffffffffffffffffffffffffffffff16905081600660006101000a81548173ffffffffffffffffffffffffffffffffffffffff021916908373ffffffffffffffffffffffffffffffffffffffff1602179055508173ffffffffffffffffffffffffffffffffffffffff168173ffffffffffffffffffffffffffffffffffffffff167f8be0079c531659141344cd1fd0a4f28419497f9722a3daafe3b4186f6b6457e060405160405180910390a35050565b8173ffffffffffffffffffffffffffffffffffffffff168373ffffffffffffffffffffffffffffffffffffffff16141561189e576040517f08c379a000000000000000000000000000000000000000000000000000000000815260040161189590612634565b60405180910390fd5b80600560008573ffffffffffffffffffffffffffffffffffffffff1673ffffffffffffffffffffffffffffffffffffffff16815260200190815260200160002060008473ffffffffffffffffffffffffffffffffffffffff1673ffffffffffffffffffffffffffffffffffffffff16815260200190815260200160002060006101000a81548160ff0219169083151502179055508173ffffffffffffffffffffffffffffffffffffffff168373ffffffffffffffffffffffffffffffffffffffff167f17307eab39ab6107e8899845ad3d59bd9653f200f220920489ca2b5937696c318360405161198f9190612597565b60405180910390a3505050565b6119a78484846114ca565b6119b384848484611bf0565b6119f2576040517f08c379a00000000000000000000000000000000000000000000000000000000081526004016119e9906125d4565b60405180910390fd5b50505050565b6060600a8054611a0790612a0a565b80601f0160208091040260200160405190810160405280929190818152602001828054611a3390612a0a565b8015611a805780601f10611a5557610100808354040283529160200191611a80565b820191906000526020600020905b815481529060010190602001808311611a6357829003601f168201915b5050505050905090565b60606000821415611ad2576040518060400160405280600181526020017f30000000000000000000000000000000000000000000000000000000000000008152509050611be6565b600082905060005b60008214611b04578080611aed90612a6d565b915050600a82611afd91906128ef565b9150611ada565b60008167ffffffffffffffff811115611b2057611b1f612ba3565b5b6040519080825280601f01601f191660200182016040528015611b525781602001600182028036833780820191505090505b5090505b60008514611bdf57600182611b6b9190612920565b9150600a85611b7a9190612ab6565b6030611b869190612899565b60f81b818381518110611b9c57611b9b612b74565b5b60200101907effffffffffffffffffffffffffffffffffffffffffffffffffffffffffffff1916908160001a905350600a85611bd891906128ef565b9450611b56565b8093505050505b919050565b505050565b6000611c118473ffffffffffffffffffffffffffffffffffffffff16611242565b15611d7a578373ffffffffffffffffffffffffffffffffffffffff1663150b7a02611c3a61132b565b8786866040518563ffffffff1660e01b8152600401611c5c9493929190612522565b602060405180830381600087803b158015611c7657600080fd5b505af1925050508015611ca757506040513d601f19601f82011682018060405250810190611ca49190612163565b60015b611d2a573d8060008114611cd7576040519150601f19603f3d011682016040523d82523d6000602084013e611cdc565b606091505b50600081511415611d22576040517f08c379a0000000000000000000000000000000000000000000000000000000008152600401611d19906125d4565b60405180910390fd5b805181602001fd5b63150b7a0260e01b7bffffffffffffffffffffffffffffffffffffffffffffffffffffffff1916817bffffffffffffffffffffffffffffffffffffffffffffffffffffffff191614915050611d7f565b600190505b949350505050565b828054611d9390612a0a565b90600052602060002090601f016020900481019282611db55760008555611dfc565b82601f10611dce57805160ff1916838001178555611dfc565b82800160010185558215611dfc579182015b82811115611dfb578251825591602001919060010190611de0565b5b509050611e099190611e0d565b5090565b5b80821115611e26576000816000905550600101611e0e565b5090565b6000611e3d611e38846127f4565b6127cf565b905082815260208101848484011115611e5957611e58612bd7565b5b611e648482856129c8565b509392505050565b6000611e7f611e7a84612825565b6127cf565b905082815260208101848484011115611e9b57611e9a612bd7565b5b611ea68482856129c8565b509392505050565b600081359050611ebd8161304c565b92915050565b600081359050611ed281613063565b92915050565b600081359050611ee78161307a565b92915050565b600081519050611efc8161307a565b92915050565b600082601f830112611f1757611f16612bd2565b5b8135611f27848260208601611e2a565b91505092915050565b600082601f830112611f4557611f44612bd2565b5b8135611f55848260208601611e6c565b91505092915050565b600081359050611f6d81613091565b92915050565b600060208284031215611f8957611f88612be1565b5b6000611f9784828501611eae565b91505092915050565b60008060408385031215611fb757611fb6612be1565b5b6000611fc585828601611eae565b9250506020611fd685828601611eae565b9150509250929050565b600080600060608486031215611ff957611ff8612be1565b5b600061200786828701611eae565b935050602061201886828701611eae565b925050604061202986828701611f5e565b9150509250925092565b6000806000806080858703121561204d5761204c612be1565b5b600061205b87828801611eae565b945050602061206c87828801611eae565b935050604061207d87828801611f5e565b925050606085013567ffffffffffffffff81111561209e5761209d612bdc565b5b6120aa87828801611f02565b91505092959194509250565b600080604083850312156120cd576120cc612be1565b5b60006120db85828601611eae565b92505060206120ec85828601611ec3565b9150509250929050565b6000806040838503121561210d5761210c612be1565b5b600061211b85828601611eae565b925050602061212c85828601611f5e565b9150509250929050565b60006020828403121561214c5761214b612be1565b5b600061215a84828501611ed8565b91505092915050565b60006020828403121561217957612178612be1565b5b600061218784828501611eed565b91505092915050565b6000602082840312156121a6576121a5612be1565b5b600082013567ffffffffffffffff8111156121c4576121c3612bdc565b5b6121d084828501611f30565b91505092915050565b6000602082840312156121ef576121ee612be1565b5b60006121fd84828501611f5e565b91505092915050565b61220f81612954565b82525050565b61221e81612966565b82525050565b600061222f82612856565b612239818561286c565b93506122498185602086016129d7565b61225281612be6565b840191505092915050565b600061226882612861565b612272818561287d565b93506122828185602086016129d7565b61228b81612be6565b840191505092915050565b60006122a182612861565b6122ab818561288e565b93506122bb8185602086016129d7565b80840191505092915050565b60006122d460328361287d565b91506122df82612bf7565b604082019050919050565b60006122f760268361287d565b915061230282612c46565b604082019050919050565b600061231a60248361287d565b915061232582612c95565b604082019050919050565b600061233d60198361287d565b915061234882612ce4565b602082019050919050565b6000612360602c8361287d565b915061236b82612d0d565b604082019050919050565b600061238360388361287d565b915061238e82612d5c565b604082019050919050565b60006123a6602a8361287d565b91506123b182612dab565b604082019050919050565b60006123c960298361287d565b91506123d482612dfa565b604082019050919050565b60006123ec602c8361287d565b91506123f782612e49565b604082019050919050565b600061240f60208361287d565b915061241a82612e98565b602082019050919050565b600061243260298361287d565b915061243d82612ec1565b604082019050919050565b6000612455602f8361287d565b915061246082612f10565b604082019050919050565b600061247860218361287d565b915061248382612f5f565b604082019050919050565b600061249b60318361287d565b91506124a682612fae565b604082019050919050565b60006124be60258361287d565b91506124c982612ffd565b604082019050919050565b6124dd816129be565b82525050565b60006124ef8285612296565b91506124fb8284612296565b91508190509392505050565b600060208201905061251c6000830184612206565b92915050565b60006080820190506125376000830187612206565b6125446020830186612206565b61255160408301856124d4565b81810360608301526125638184612224565b905095945050505050565b60006040820190506125836000830185612206565b61259060208301846124d4565b9392505050565b60006020820190506125ac6000830184612215565b92915050565b600060208201905081810360008301526125cc818461225d565b905092915050565b600060208201905081810360008301526125ed816122c7565b9050919050565b6000602082019050818103600083015261260d816122ea565b9050919050565b6000602082019050818103600083015261262d8161230d565b9050919050565b6000602082019050818103600083015261264d81612330565b9050919050565b6000602082019050818103600083015261266d81612353565b9050919050565b6000602082019050818103600083015261268d81612376565b9050919050565b600060208201905081810360008301526126ad81612399565b9050919050565b600060208201905081810360008301526126cd816123bc565b9050919050565b600060208201905081810360008301526126ed816123df565b9050919050565b6000602082019050818103600083015261270d81612402565b9050919050565b6000602082019050818103600083015261272d81612425565b9050919050565b6000602082019050818103600083015261274d81612448565b9050919050565b6000602082019050818103600083015261276d8161246b565b9050919050565b6000602082019050818103600083015261278d8161248e565b9050919050565b600060208201905081810360008301526127ad816124b1565b9050919050565b60006020820190506127c960008301846124d4565b92915050565b60006127d96127ea565b90506127e58282612a3c565b919050565b6000604051905090565b600067ffffffffffffffff82111561280f5761280e612ba3565b5b61281882612be6565b9050602081019050919050565b600067ffffffffffffffff8211156128405761283f612ba3565b5b61284982612be6565b9050602081019050919050565b600081519050919050565b600081519050919050565b600082825260208201905092915050565b600082825260208201905092915050565b600081905092915050565b60006128a4826129be565b91506128af836129be565b9250827fffffffffffffffffffffffffffffffffffffffffffffffffffffffffffffffff038211156128e4576128e3612ae7565b5b828201905092915050565b60006128fa826129be565b9150612905836129be565b92508261291557612914612b16565b5b828204905092915050565b600061292b826129be565b9150612936836129be565b92508282101561294957612948612ae7565b5b828203905092915050565b600061295f8261299e565b9050919050565b60008115159050919050565b60007fffffffff0000000000000000000000000000000000000000000000000000000082169050919050565b600073ffffffffffffffffffffffffffffffffffffffff82169050919050565b6000819050919050565b82818337600083830152505050565b60005b838110156129f55780820151818401526020810190506129da565b83811115612a04576000848401525b50505050565b60006002820490506001821680612a2257607f821691505b60208210811415612a3657612a35612b45565b5b50919050565b612a4582612be6565b810181811067ffffffffffffffff82111715612a6457612a63612ba3565b5b80604052505050565b6000612a78826129be565b91507fffffffffffffffffffffffffffffffffffffffffffffffffffffffffffffffff821415612aab57612aaa612ae7565b5b600182019050919050565b6000612ac1826129be565b9150612acc836129be565b925082612adc57612adb612b16565b5b828206905092915050565b7f4e487b7100000000000000000000000000000000000000000000000000000000600052601160045260246000fd5b7f4e487b7100000000000000000000000000000000000000000000000000000000600052601260045260246000fd5b7f4e487b7100000000000000000000000000000000000000000000000000000000600052602260045260246000fd5b7f4e487b7100000000000000000000000000000000000000000000000000000000600052603260045260246000fd5b7f4e487b7100000000000000000000000000000000000000000000000000000000600052604160045260246000fd5b600080fd5b600080fd5b600080fd5b600080fd5b6000601f19601f8301169050919050565b7f4552433732313a207472616e7366657220746f206e6f6e20455243373231526560008201527f63656976657220696d706c656d656e7465720000000000000000000000000000602082015250565b7f4f776e61626c653a206e6577206f776e657220697320746865207a65726f206160008201527f6464726573730000000000000000000000000000000000000000000000000000602082015250565b7f4552433732313a207472616e7366657220746f20746865207a65726f2061646460008201527f7265737300000000000000000000000000000000000000000000000000000000602082015250565b7f4552433732313a20617070726f766520746f2063616c6c657200000000000000600082015250565b7f4552433732313a206f70657261746f7220717565727920666f72206e6f6e657860008201527f697374656e7420746f6b656e0000000000000000000000000000000000000000602082015250565b7f4552433732313a20617070726f76652063616c6c6572206973206e6f74206f7760008201527f6e6572206e6f7220617070726f76656420666f7220616c6c0000000000000000602082015250565b7f4552433732313a2062616c616e636520717565727920666f7220746865207a6560008201527f726f206164647265737300000000000000000000000000000000000000000000602082015250565b7f4552433732313a206f776e657220717565727920666f72206e6f6e657869737460008201527f656e7420746f6b656e0000000000000000000000000000000000000000000000602082015250565b7f4552433732313a20617070726f76656420717565727920666f72206e6f6e657860008201527f697374656e7420746f6b656e0000000000000000000000000000000000000000602082015250565b7f4f776e61626c653a2063616c6c6572206973206e6f7420746865206f776e6572600082015250565b7f4552433732313a207472616e73666572206f6620746f6b656e2074686174206960008201527f73206e6f74206f776e0000000000000000000000000000000000000000000000602082015250565b7f4552433732314d657461646174613a2055524920717565727920666f72206e6f60008201527f6e6578697374656e7420746f6b656e0000000000000000000000000000000000602082015250565b7f4552433732313a20617070726f76616c20746f2063757272656e74206f776e6560008201527f7200000000000000000000000000000000000000000000000000000000000000602082015250565b7f4552433732313a207472616e736665722063616c6c6572206973206e6f74206f60008201527f776e6572206e6f7220617070726f766564000000000000000000000000000000602082015250565b7f4552433732313a207468697320746f6b656e2063616e74206265207472616e7360008201527f6665726564000000000000000000000000000000000000000000000000000000602082015250565b61305581612954565b811461306057600080fd5b50565b61306c81612966565b811461307757600080fd5b50565b61308381612972565b811461308e57600080fd5b50565b61309a816129be565b81146130a557600080fd5b5056fea26469706673582212204f8c27a193dd3cca255b9294553b25b66e94fd7e42042d1e4153c81aabd55e0764736f6c6343000807003368747470733a2f2f66756e676c652e78797a2f746f6b656e5552492e7068703f69643d"}}