{
  "opcodeHash": "0xbebc841663f7a5b30ad3a291c7140dc4ad17845606eca200812386a8b8fc0811",
  "metalessHash": "0xe157f6ef6e0f8689e5b91bd9d4bcd30268952c6c0991887770c8dc771d1f97f4",
  "runtimeHash": "0x3ed27b566dce913a2c97b73b5ff534b72d703fc36c632f1edc3da474070529db",
  "encodedMetadata": [
    {
      "ipfs": "/ipfs/QmYPReWVjUq7Wg3H4TjDaFVB91EfgA52JFywFsHQgjxov3",
      "solc": "0.6.12"
    }
  ],
  "abi": [
    {
      "inputs": [],
      "stateMutability": "nonpayable",
      "type": "constructor"
    },
    {
      "inputs": [],
      "name": "getLatestPrice",
      "outputs": [
        {
          "internalType": "int256",
          "name": "",
          "type": "int256"
        }
      ],
      "stateMutability": "nonpayable",
      "type": "function"
    }
  ],
  "bytecode": {
    "object": "608060405234801561001057600080fd5b50735f4ec3df9cbd43714fe2740f5e3616155c5b8419600160006101000a81548173ffffffffffffffffffffffffffffffffffffffff021916908373ffffffffffffffffffffffffffffffffffffffff16021790555061012f806100756000396000f3fe6080604052348015600f57600080fd5b506004361060285760003560e01c80638e15f47314602d575b600080fd5b60336049565b6040518082815260200191505060405180910390f35b6000600160009054906101000a900473ffffffffffffffffffffffffffffffffffffffff1673ffffffffffffffffffffffffffffffffffffffff1663feaf968c6040518163ffffffff1660e01b815260040160206040518083038186803b15801560b257600080fd5b505afa15801560c5573d6000803e3d6000fd5b505050506040513d602081101560da57600080fd5b810190808051906020019092919050505060008190555060005490509056fea264697066735822122089c018c38a306278c9995da1379c09b4f91d1b14728c460635bcbdd7f034ea9264736f6c634300060c0033"
  }
}