{"compiler":"v0.6.12+commit.27d51765","opcodeHash":"0x1fd1e29575e5ec5349bd9d19a83888a043857152b80e8dda2ad8378262636035","metalessHash":"0x67322598f1223ac3467d085baee8dbdedf392d8f0974cd41ba3f435d75f27cdd","runtimeHash":"0x562b1cd72319a07d4898d290af8679b47ed779d477051b3b7fd16082a19d86a1","encodedMetadata":[{"ipfs":"/ipfs/QmXsL9owHCoii4ahbN4f3oMBXqQ85b1qrphMHE7w5WVs16","solc":"0.6.12"}],"abi":[{"inputs":[{"internalType":"address","name":"_assetToken","type":"address"},{"internalType":"address","name":"_askToken","type":"address"},{"internalType":"address","name":"_feeFund","type":"address"},{"internalType":"address","name":"_createFeeToken","type":"address"},{"internalType":"uint256","name":"_createFee","type":"uint256"},{"internalType":"uint256","name":"_dealFeeRate","type":"uint256"},{"internalType":"uint256","name":"_maxExpirePeroid","type":"uint256"}],"stateMutability":"nonpayable","type":"constructor"},{"anonymous":false,"inputs":[{"indexed":false,"internalType":"uint256","name":"orderId","type":"uint256"},{"indexed":false,"internalType":"uint256","name":"timestamp","type":"uint256"}],"name":"CancelOrder","type":"event"},{"anonymous":false,"inputs":[{"indexed":false,"internalType":"uint256","name":"orderId","type":"uint256"},{"indexed":false,"internalType":"uint256","name":"timestamp","type":"uint256"},{"indexed":false,"internalType":"address","name":"onwer","type":"address"},{"indexed":false,"internalType":"uint256","name":"assetAmount","type":"uint256"},{"indexed":false,"internalType":"uint256","name":"askAmount","type":"uint256"}],"name":"CreateOrder","type":"event"},{"anonymous":false,"inputs":[{"indexed":false,"internalType":"uint256","name":"orderId","type":"uint256"},{"indexed":false,"internalType":"uint256","name":"timestamp","type":"uint256"},{"indexed":false,"internalType":"address","name":"dealer","type":"address"},{"indexed":false,"internalType":"uint256","name":"bidAmount","type":"uint256"}],"name":"DealOrder","type":"event"},{"anonymous":false,"inputs":[{"indexed":true,"internalType":"address","name":"previousOperator","type":"address"},{"indexed":true,"internalType":"address","name":"newOperator","type":"address"}],"name":"OperatorTransferred","type":"event"},{"anonymous":false,"inputs":[{"indexed":true,"internalType":"address","name":"previousOwner","type":"address"},{"indexed":true,"internalType":"address","name":"newOwner","type":"address"}],"name":"OwnershipTransferred","type":"event"},{"inputs":[],"name":"askToken","outputs":[{"internalType":"address","name":"","type":"address"}],"stateMutability":"view","type":"function"},{"inputs":[],"name":"assetToken","outputs":[{"internalType":"address","name":"","type":"address"}],"stateMutability":"view","type":"function"},{"inputs":[{"internalType":"uint256","name":"orderId","type":"uint256"}],"name":"cancelOrder","outputs":[],"stateMutability":"nonpayable","type":"function"},{"inputs":[],"name":"createFee","outputs":[{"internalType":"uint256","name":"","type":"uint256"}],"stateMutability":"view","type":"function"},{"inputs":[],"name":"createFeeToken","outputs":[{"internalType":"address","name":"","type":"address"}],"stateMutability":"view","type":"function"},{"inputs":[{"internalType":"uint256","name":"assetAmount","type":"uint256"},{"internalType":"uint256","name":"askAmount","type":"uint256"},{"internalType":"uint256","name":"expire","type":"uint256"}],"name":"createOrder","outputs":[],"stateMutability":"nonpayable","type":"function"},{"inputs":[],"name":"dealFeeRate","outputs":[{"internalType":"uint256","name":"","type":"uint256"}],"stateMutability":"view","type":"function"},{"inputs":[{"internalType":"uint256","name":"orderId","type":"uint256"},{"internalType":"uint256","name":"bidAmount","type":"uint256"}],"name":"dealOrder","outputs":[],"stateMutability":"nonpayable","type":"function"},{"inputs":[],"name":"feeFund","outputs":[{"internalType":"address","name":"","type":"address"}],"stateMutability":"view","type":"function"},{"inputs":[{"internalType":"uint256","name":"fromId","type":"uint256"}],"name":"getBatchOrders","outputs":[{"components":[{"internalType":"uint256","name":"createTime","type":"uint256"},{"internalType":"address","name":"owner","type":"address"},{"internalType":"uint256","name":"assetAmount","type":"uint256"},{"internalType":"uint256","name":"askAmount","type":"uint256"},{"internalType":"uint256","name":"expire","type":"uint256"}],"internalType":"struct Swap.Order[]","name":"","type":"tuple[]"}],"stateMutability":"view","type":"function"},{"inputs":[{"internalType":"address","name":"owner","type":"address"},{"internalType":"uint256","name":"fromId","type":"uint256"}],"name":"getBatchUserOrders","outputs":[{"components":[{"internalType":"uint256","name":"createTime","type":"uint256"},{"internalType":"address","name":"owner","type":"address"},{"internalType":"uint256","name":"assetAmount","type":"uint256"},{"internalType":"uint256","name":"askAmount","type":"uint256"},{"internalType":"uint256","name":"expire","type":"uint256"}],"internalType":"struct Swap.Order[]","name":"","type":"tuple[]"}],"stateMutability":"view","type":"function"},{"inputs":[],"name":"getOrdersCount","outputs":[{"internalType":"uint256","name":"","type":"uint256"}],"stateMutability":"view","type":"function"},{"inputs":[{"internalType":"address","name":"owner","type":"address"}],"name":"getUserOrdersCount","outputs":[{"internalType":"uint256","name":"","type":"uint256"}],"stateMutability":"view","type":"function"},{"inputs":[],"name":"isOperator","outputs":[{"internalType":"bool","name":"","type":"bool"}],"stateMutability":"view","type":"function"},{"inputs":[],"name":"maxExpirePeroid","outputs":[{"internalType":"uint256","name":"","type":"uint256"}],"stateMutability":"view","type":"function"},{"inputs":[],"name":"operator","outputs":[{"internalType":"address","name":"","type":"address"}],"stateMutability":"view","type":"function"},{"inputs":[{"internalType":"uint256","name":"","type":"uint256"}],"name":"orders","outputs":[{"internalType":"uint256","name":"createTime","type":"uint256"},{"internalType":"address","name":"owner","type":"address"},{"internalType":"uint256","name":"assetAmount","type":"uint256"},{"internalType":"uint256","name":"askAmount","type":"uint256"},{"internalType":"uint256","name":"expire","type":"uint256"}],"stateMutability":"view","type":"function"},{"inputs":[],"name":"owner","outputs":[{"internalType":"address","name":"","type":"address"}],"stateMutability":"view","type":"function"},{"inputs":[],"name":"renounceOwnership","outputs":[],"stateMutability":"nonpayable","type":"function"},{"inputs":[{"internalType":"uint256","name":"_createFee","type":"uint256"}],"name":"setCreateFee","outputs":[],"stateMutability":"nonpayable","type":"function"},{"inputs":[{"internalType":"uint256","name":"_dealFeeRate","type":"uint256"}],"name":"setDealFeeRate","outputs":[],"stateMutability":"nonpayable","type":"function"},{"inputs":[{"internalType":"address","name":"_feeFund","type":"address"}],"name":"setFeeFund","outputs":[],"stateMutability":"nonpayable","type":"function"},{"inputs":[{"internalType":"uint256","name":"_maxExpirePeroid","type":"uint256"}],"name":"setMaxExpirePeroid","outputs":[],"stateMutability":"nonpayable","type":"function"},{"inputs":[{"internalType":"address","name":"newOperator_","type":"address"}],"name":"transferOperator","outputs":[],"stateMutability":"nonpayable","type":"function"},{"inputs":[{"internalType":"address","name":"newOwner","type":"address"}],"name":"transferOwnership","outputs":[],"stateMutability":"nonpayable","type":"function"},{"inputs":[{"internalType":"address","name":"","type":"address"},{"internalType":"uint256","name":"","type":"uint256"}],"name":"userOrders","outputs":[{"internalType":"uint256","name":"","type":"uint256"}],"stateMutability":"view","type":"function"}],"bytecode":{"object":"60806040523480156200001157600080fd5b506040516200199f3803806200199f833981016040819052620000349162000168565b60006200004062000146565b600080546001600160a01b0319166001600160a01b0383169081178255604051929350917f8be0079c531659141344cd1fd0a4f28419497f9722a3daafe3b4186f6b6457e0908290a3506200009462000146565b600180546001600160a01b0319166001600160a01b0392831617908190556040519116906000907f74da04524d50c64947f5dd5381ef1a4dca5cba8ed1d816243f9e48aa0b5617ed908290a3600280546001600160a01b039889166001600160a01b0319918216179091556003805497891697821697909717909655600480549588169587169590951790945560058054939096169290941691909117909355600692909255600755600855620001e5565b3390565b80516001600160a01b03811681146200016257600080fd5b92915050565b600080600080600080600060e0888a03121562000183578283fd5b6200018f89896200014a565b9650620001a08960208a016200014a565b9550620001b18960408a016200014a565b9450620001c28960608a016200014a565b93506080880151925060a0880151915060c0880151905092959891949750929550565b6117aa80620001f56000396000f3fe608060405234801561001057600080fd5b506004361061018e5760003560e01c80638da5cb5b116100de578063b6b6070511610097578063cce9a25011610071578063cce9a2501461030c578063e22305ca1461031f578063e394732b14610332578063f2fde38b1461033a5761018e565b8063b6b60705146102de578063c1d0eb52146102e6578063c8019fb1146102f95761018e565b80638da5cb5b146102875780639541047e1461028f578063a1ba444d14610297578063a85c38ef146102aa578063b2db919b146102ce578063b5b3b051146102d65761018e565b8063570ca7351161014b57806362866d651161012557806362866d65146102515780636291484914610259578063715018a61461026c578063856652e9146102745761018e565b8063570ca735146102165780635983e9741461021e5780635fbc7333146102315761018e565b80631083f7611461019357806329605e77146101b157806331a3055b146101c65780633d5fd668146101d95780634456eda2146101ee578063514fcac714610203575b600080fd5b61019b61034d565b6040516101a89190611292565b60405180910390f35b6101c46101bf3660046111ad565b61035c565b005b6101c46101d4366004611212565b6103a6565b6101e16103d5565b6040516101a891906116b5565b6101f66103db565b6040516101a8919061135a565b6101c4610211366004611212565b610401565b61019b6104df565b6101e161022c3660046111ad565b6104ee565b61024461023f3660046111c8565b610509565b6040516101a891906112e3565b61019b610622565b6101c4610267366004611212565b610631565b6101c4610660565b6101e16102823660046111c8565b6106df565b61019b61070d565b61019b61071c565b6101c46102a536600461124b565b61072b565b6102bd6102b8366004611212565b610964565b6040516101a89594939291906116be565b6101e16109ac565b6101e16109b2565b6101e16109b8565b6101c46102f43660046111ad565b6109be565b6101c4610307366004611212565b610a0a565b6101c461031a36600461122a565b610a39565b61024461032d366004611212565b610bc4565b61019b610cd8565b6101c46103483660046111ad565b610ce7565b6002546001600160a01b031681565b610364610d9d565b6000546001600160a01b0390811691161461039a5760405162461bcd60e51b8152600401610391906114cb565b60405180910390fd5b6103a381610da1565b50565b6001546001600160a01b031633146103d05760405162461bcd60e51b815260040161039190611500565b600755565b60075481565b6001546000906001600160a01b03166103f2610d9d565b6001600160a01b031614905090565b60006009828154811061041057fe5b600091825260209091206001600590920201908101549091506001600160a01b031633146104505760405162461bcd60e51b815260040161039190611415565b60008160020154116104745760405162461bcd60e51b81526004016103919061157b565b6002808201549054610493916001600160a01b03909116903390610e1f565b60006002820181905560038201556040517fbb139d33583839e19389be0c788bb4983ba63129333b3ffe835a4c4af0e5dcb8906104d390849042906116ea565b60405180910390a15050565b6001546001600160a01b031690565b6001600160a01b03166000908152600a602052604090205490565b604080516064808252610ca08201909252606091829190816020015b61052d61115e565b8152602001906001900390816105255790505090506000835b6001600160a01b0386166000908152600a6020526040812080548390811061056a57fe5b906000526020600020015490506009818154811061058457fe5b60009182526020918290206040805160a08101825260059093029091018054835260018101546001600160a01b03169383019390935260028301549082015260038201546060820152600490910154608082015284518590859081106105e657fe5b60209081029190910101526105fc836001610e7a565b92506064831061060c5750610616565b5060001901610546565b50909150505b92915050565b6005546001600160a01b031681565b6001546001600160a01b0316331461065b5760405162461bcd60e51b815260040161039190611500565b600655565b610668610d9d565b6000546001600160a01b039081169116146106955760405162461bcd60e51b8152600401610391906114cb565b600080546040516001600160a01b03909116907f8be0079c531659141344cd1fd0a4f28419497f9722a3daafe3b4186f6b6457e0908390a3600080546001600160a01b0319169055565b600a60205281600052604060002081815481106106f857fe5b90600052602060002001600091509150505481565b6000546001600160a01b031690565b6003546001600160a01b031681565b60006107378242610ea6565b905060085481111561075b5760405162461bcd60e51b815260040161039190611624565b6000841161077b5760405162461bcd60e51b81526004016103919061167e565b6000831161079b5760405162461bcd60e51b815260040161039190611544565b6002546107b3906001600160a01b0316333087610ee8565b600654156107df576004546006546005546107df926001600160a01b0391821692339290911690610ee8565b6107e761115e565b3360208281018281524280855260408086018a8152606087018a8152608088018a8152600980546001808201835560009283528b517f6e1540171b6c0c960b71a7020d9f60077f6af931a8bbf590da0223dacf75c7af600584029081019190915598517f6e1540171b6c0c960b71a7020d9f60077f6af931a8bbf590da0223dacf75c7b08a0180546001600160a01b0319166001600160a01b0390921691909117905594517f6e1540171b6c0c960b71a7020d9f60077f6af931a8bbf590da0223dacf75c7b189015592517f6e1540171b6c0c960b71a7020d9f60077f6af931a8bbf590da0223dacf75c7b288015590517f6e1540171b6c0c960b71a7020d9f60077f6af931a8bbf590da0223dacf75c7b390960195909555868552600a865282852080549283018155855294909320909201839055905191927fa7e5b5bb59f9b64cfdc1ff043517dba073acf1f1cce6f477a60f673b95353e579261095492859290918b908b9061171c565b60405180910390a1505050505050565b6009818154811061097157fe5b6000918252602090912060059091020180546001820154600283015460038401546004909401549294506001600160a01b0390911692909185565b60065481565b60095490565b60085481565b6001546001600160a01b031633146109e85760405162461bcd60e51b815260040161039190611500565b600480546001600160a01b0319166001600160a01b0392909216919091179055565b6001546001600160a01b03163314610a345760405162461bcd60e51b815260040161039190611500565b600855565b600060098381548110610a4857fe5b906000526020600020906005020190508060040154421015610a7c5760405162461bcd60e51b815260040161039190611652565b6000816002015411610aa05760405162461bcd60e51b81526004016103919061157b565b60038101548290811115610ab5575060038101545b6000610adc8360030154610ad6848660020154610f0f90919063ffffffff16565b90610f49565b90506000610afb612710610ad660075486610f0f90919063ffffffff16565b600454600354919250610b1d916001600160a01b039081169133911684610ee8565b6001840154610b4f9033906001600160a01b0316610b3b8685610ea6565b6003546001600160a01b0316929190610ee8565b600254610b66906001600160a01b03163384610e1f565b6002840154610b759083610ea6565b60028501556003840154610b899084610ea6565b60038501556040517f4d881460a703a08181e23b012b05770cce3a3e5fe5b31ec6dda0d7c60699c8d7906109549088904290339088906116f8565b604080516064808252610ca08201909252606091829190816020015b610be861115e565b815260200190600190039081610be05790505090506000835b600060098281548110610c1057fe5b9060005260206000209060050201905042816004015410158015610c38575060008160030154115b15610ca5576040805160a0810182528254815260018301546001600160a01b0316602082015260028301549181019190915260038201546060820152600482015460808201528451859085908110610c8c57fe5b6020908102919091010152610ca2836001610e7a565b92505b4281600401541015610cb75750610ccf565b60648310610cc55750610ccf565b5060001901610c01565b50909392505050565b6004546001600160a01b031681565b610cef610d9d565b6000546001600160a01b03908116911614610d1c5760405162461bcd60e51b8152600401610391906114cb565b6001600160a01b038116610d425760405162461bcd60e51b815260040161039190611398565b600080546040516001600160a01b03808516939216917f8be0079c531659141344cd1fd0a4f28419497f9722a3daafe3b4186f6b6457e091a3600080546001600160a01b0319166001600160a01b0392909216919091179055565b3390565b6001600160a01b038116610dc75760405162461bcd60e51b81526004016103919061143d565b6040516001600160a01b038216906000907f74da04524d50c64947f5dd5381ef1a4dca5cba8ed1d816243f9e48aa0b5617ed908290a3600180546001600160a01b0319166001600160a01b0392909216919091179055565b610e758363a9059cbb60e01b8484604051602401610e3e9291906112ca565b60408051601f198184030181529190526020810180516001600160e01b03166001600160e01b031990931692909217909152610f8b565b505050565b600082820183811015610e9f5760405162461bcd60e51b8152600401610391906113de565b9392505050565b6000610e9f83836040518060400160405280601e81526020017f536166654d6174683a207375627472616374696f6e206f766572666c6f77000081525061101a565b610f09846323b872dd60e01b858585604051602401610e3e939291906112a6565b50505050565b600082610f1e5750600061061c565b82820282848281610f2b57fe5b0414610e9f5760405162461bcd60e51b81526004016103919061148a565b6000610e9f83836040518060400160405280601a81526020017f536166654d6174683a206469766973696f6e206279207a65726f000000000000815250611046565b6060610fe0826040518060400160405280602081526020017f5361666545524332303a206c6f772d6c6576656c2063616c6c206661696c6564815250856001600160a01b031661107d9092919063ffffffff16565b805190915015610e755780806020019051810190610ffe91906111f2565b610e755760405162461bcd60e51b8152600401610391906115da565b6000818484111561103e5760405162461bcd60e51b81526004016103919190611365565b505050900390565b600081836110675760405162461bcd60e51b81526004016103919190611365565b50600083858161107357fe5b0495945050505050565b606061108c8484600085611094565b949350505050565b606061109f85611158565b6110bb5760405162461bcd60e51b8152600401610391906115a3565b60006060866001600160a01b031685876040516110d89190611276565b60006040518083038185875af1925050503d8060008114611115576040519150601f19603f3d011682016040523d82523d6000602084013e61111a565b606091505b5091509150811561112e57915061108c9050565b80511561113e5780518082602001fd5b8360405162461bcd60e51b81526004016103919190611365565b3b151590565b6040518060a001604052806000815260200160006001600160a01b031681526020016000815260200160008152602001600081525090565b80356001600160a01b038116811461061c57600080fd5b6000602082840312156111be578081fd5b610e9f8383611196565b600080604083850312156111da578081fd5b6111e48484611196565b946020939093013593505050565b600060208284031215611203578081fd5b81518015158114610e9f578182fd5b600060208284031215611223578081fd5b5035919050565b6000806040838503121561123c578182fd5b50508035926020909101359150565b60008060006060848603121561125f578081fd5b505081359360208301359350604090920135919050565b60008251611288818460208701611748565b9190910192915050565b6001600160a01b0391909116815260200190565b6001600160a01b039384168152919092166020820152604081019190915260600190565b6001600160a01b03929092168252602082015260400190565b602080825282518282018190526000919060409081850190868401855b8281101561134d57815180518552868101516001600160a01b0316878601528581015186860152606080820151908601526080908101519085015260a09093019290850190600101611300565b5091979650505050505050565b901515815260200190565b6000602082528251806020840152611384816040850160208701611748565b601f01601f19169190910160400192915050565b60208082526026908201527f4f776e61626c653a206e6577206f776e657220697320746865207a65726f206160408201526564647265737360d01b606082015260800190565b6020808252601b908201527f536166654d6174683a206164646974696f6e206f766572666c6f770000000000604082015260600190565b6020808252600e908201526d29aba0a81d1037379037bbb732b960911b604082015260600190565b6020808252602d908201527f6f70657261746f723a207a65726f206164647265737320676976656e20666f7260408201526c103732bb9037b832b930ba37b960991b606082015260800190565b60208082526021908201527f536166654d6174683a206d756c7469706c69636174696f6e206f766572666c6f6040820152607760f81b606082015260800190565b6020808252818101527f4f776e61626c653a2063616c6c6572206973206e6f7420746865206f776e6572604082015260600190565b60208082526024908201527f6f70657261746f723a2063616c6c6572206973206e6f7420746865206f70657260408201526330ba37b960e11b606082015260800190565b60208082526018908201527f535741503a2061736b20616d6f756e7420696e76616c69640000000000000000604082015260600190565b6020808252600e908201526d14d5d0540e88191bdb99481e595d60921b604082015260600190565b6020808252601d908201527f416464726573733a2063616c6c20746f206e6f6e2d636f6e7472616374000000604082015260600190565b6020808252602a908201527f5361666545524332303a204552433230206f7065726174696f6e20646964206e6040820152691bdd081cdd58d8d9595960b21b606082015260800190565b60208082526014908201527314d5d0540e88195e1c1a5c99481a5b9d985b1a5960621b604082015260600190565b602080825260129082015271535741503a206f726465722065787069726560701b604082015260600190565b6020808252601a908201527f535741503a20617373657420616d6f756e7420696e76616c6964000000000000604082015260600190565b90815260200190565b9485526001600160a01b0393909316602085015260408401919091526060830152608082015260a00190565b918252602082015260400190565b93845260208401929092526001600160a01b03166040830152606082015260800190565b94855260208501939093526001600160a01b039190911660408401526060830152608082015260a00190565b60005b8381101561176357818101518382015260200161174b565b83811115610f09575050600091015256fea2646970667358221220acd65a1f6964ae2a310a60b1bb9b3cd23f0611c9cdccf068e93b0c9b6ea0277564736f6c634300060c0033"}}