{"compiler":"v0.6.12+commit.27d51765","opcodeHash":"0x237d766bd8df9ffea428fe1d517087ebf493f11a44593352f85da2379dea0ccf","metalessHash":"0xb090f570504be1e1b08650c4165fff67ebac9bc40b501121e302c914c4c1f93d","runtimeHash":"0xfa66d85fc0d89f74be73fd19353d1999f20eb0af52f9630a181edee97868bd11","encodedMetadata":[{"ipfs":"/ipfs/QmTkZERom4EUzp9EtwPyArZGaXnF8B96ZgAajWGkGdbRos","solc":"0.6.12"}],"abi":[{"anonymous":false,"inputs":[{"indexed":true,"internalType":"address","name":"user","type":"address"},{"indexed":false,"internalType":"uint256","name":"sporeAmount","type":"uint256"},{"indexed":false,"internalType":"uint256","name":"jemAmount","type":"uint256"}],"name":"Converted","type":"event"},{"anonymous":false,"inputs":[{"indexed":true,"internalType":"address","name":"previousOwner","type":"address"},{"indexed":true,"internalType":"address","name":"newOwner","type":"address"}],"name":"OwnershipTransferred","type":"event"},{"anonymous":false,"inputs":[{"indexed":false,"internalType":"address","name":"account","type":"address"}],"name":"Paused","type":"event"},{"anonymous":false,"inputs":[{"indexed":false,"internalType":"address","name":"token","type":"address"},{"indexed":false,"internalType":"uint256","name":"amount","type":"uint256"}],"name":"Recovered","type":"event"},{"anonymous":false,"inputs":[{"indexed":false,"internalType":"uint256","name":"newRate","type":"uint256"}],"name":"SporePerJemChanged","type":"event"},{"anonymous":false,"inputs":[{"indexed":false,"internalType":"address","name":"account","type":"address"}],"name":"Unpaused","type":"event"},{"inputs":[],"name":"MAX_PERCENTAGE","outputs":[{"internalType":"uint256","name":"","type":"uint256"}],"stateMutability":"view","type":"function"},{"inputs":[{"internalType":"address","name":"_sporeToken","type":"address"},{"internalType":"address","name":"_jemToken","type":"address"},{"internalType":"uint256","name":"_sporePerJem","type":"uint256"}],"name":"initialize","outputs":[],"stateMutability":"nonpayable","type":"function"},{"inputs":[],"name":"jemToken","outputs":[{"internalType":"contract IERC20","name":"","type":"address"}],"stateMutability":"view","type":"function"},{"inputs":[],"name":"owner","outputs":[{"internalType":"address","name":"","type":"address"}],"stateMutability":"view","type":"function"},{"inputs":[],"name":"pause","outputs":[],"stateMutability":"nonpayable","type":"function"},{"inputs":[],"name":"paused","outputs":[{"internalType":"bool","name":"","type":"bool"}],"stateMutability":"view","type":"function"},{"inputs":[{"internalType":"address","name":"tokenAddress","type":"address"},{"internalType":"uint256","name":"tokenAmount","type":"uint256"}],"name":"recoverERC20","outputs":[],"stateMutability":"nonpayable","type":"function"},{"inputs":[],"name":"renounceOwnership","outputs":[],"stateMutability":"nonpayable","type":"function"},{"inputs":[{"internalType":"uint256","name":"_sporePerJem","type":"uint256"}],"name":"setSporePerJem","outputs":[],"stateMutability":"nonpayable","type":"function"},{"inputs":[],"name":"sporePerJem","outputs":[{"internalType":"uint256","name":"","type":"uint256"}],"stateMutability":"view","type":"function"},{"inputs":[],"name":"sporeToken","outputs":[{"internalType":"contract ISporeToken","name":"","type":"address"}],"stateMutability":"view","type":"function"},{"inputs":[{"internalType":"uint256","name":"sporeAmount","type":"uint256"}],"name":"swap","outputs":[],"stateMutability":"nonpayable","type":"function"},{"inputs":[{"internalType":"address","name":"newOwner","type":"address"}],"name":"transferOwnership","outputs":[],"stateMutability":"nonpayable","type":"function"},{"inputs":[],"name":"unpause","outputs":[],"stateMutability":"nonpayable","type":"function"}],"bytecode":{"object":"608060405234801561001057600080fd5b5061207f806100206000396000f3fe608060405234801561001057600080fd5b50600436106100ea5760003560e01c806370e61ec41161008c5780638980f11f116100665780638980f11f146101db5780638da5cb5b146101f757806394b918de14610215578063f2fde38b14610231576100ea565b806370e61ec4146101ab578063715018a6146101c75780638456cb59146101d1576100ea565b806335e75aab116100c857806335e75aab146101475780633f4ba83a146101655780634c255c971461016f5780635c975abb1461018d576100ea565b806314cd5a81146100ef5780631794bb3c1461010d5780632459cbce14610129575b600080fd5b6100f761024d565b6040516101049190611d1d565b60405180910390f35b610127600480360381019061012291906117c6565b610273565b005b61013161043e565b60405161013e9190611e9a565b60405180910390f35b61014f610444565b60405161015c9190611d02565b60405180910390f35b61016d61046a565b005b61017761050b565b6040516101849190611e9a565b60405180910390f35b610195610510565b6040516101a29190611ce7565b60405180910390f35b6101c560048036038101906101c0919061187a565b610527565b005b6101cf61064f565b005b6101d96107a7565b005b6101f560048036038101906101f09190611815565b610848565b005b6101ff610b23565b60405161020c9190611c28565b60405180910390f35b61022f600480360381019061022a919061187a565b610b4d565b005b61024b6004803603810190610246919061179d565b610e89565b005b60fb60009054906101000a900473ffffffffffffffffffffffffffffffffffffffff1681565b600060019054906101000a900460ff16806102925750610291611050565b5b806102a8575060008054906101000a900460ff16155b6102e7576040517f08c379a00000000000000000000000000000000000000000000000000000000081526004016102de90611e1a565b60405180910390fd5b60008060019054906101000a900460ff161590508015610337576001600060016101000a81548160ff02191690831515021790555060016000806101000a81548160ff0219169083151502179055505b61033f611067565b61034761114f565b61034f611252565b610357611355565b8360fb60006101000a81548173ffffffffffffffffffffffffffffffffffffffff021916908373ffffffffffffffffffffffffffffffffffffffff1602179055508260fc60006101000a81548173ffffffffffffffffffffffffffffffffffffffff021916908373ffffffffffffffffffffffffffffffffffffffff1602179055508160fd819055507fb2b765dbe2ff16b2332b8baf5210d6341b67c0aa6fbed4b4dad84973cf048f8e8260405161040f9190611e9a565b60405180910390a180156104385760008060016101000a81548160ff0219169083151502179055505b50505050565b60fd5481565b60fc60009054906101000a900473ffffffffffffffffffffffffffffffffffffffff1681565b6104726114e6565b73ffffffffffffffffffffffffffffffffffffffff16606560009054906101000a900473ffffffffffffffffffffffffffffffffffffffff1673ffffffffffffffffffffffffffffffffffffffff1614610501576040517f08c379a00000000000000000000000000000000000000000000000000000000081526004016104f890611dfa565b60405180910390fd5b6105096114ee565b565b606481565b600060c960009054906101000a900460ff16905090565b61052f6114e6565b73ffffffffffffffffffffffffffffffffffffffff16606560009054906101000a900473ffffffffffffffffffffffffffffffffffffffff1673ffffffffffffffffffffffffffffffffffffffff16146105be576040517f08c379a00000000000000000000000000000000000000000000000000000000081526004016105b590611dfa565b60405180910390fd5b60c960009054906101000a900460ff161561060e576040517f08c379a000000000000000000000000000000000000000000000000000000000815260040161060590611dba565b60405180910390fd5b8060fd819055507fb2b765dbe2ff16b2332b8baf5210d6341b67c0aa6fbed4b4dad84973cf048f8e816040516106449190611e9a565b60405180910390a150565b6106576114e6565b73ffffffffffffffffffffffffffffffffffffffff16606560009054906101000a900473ffffffffffffffffffffffffffffffffffffffff1673ffffffffffffffffffffffffffffffffffffffff16146106e6576040517f08c379a00000000000000000000000000000000000000000000000000000000081526004016106dd90611dfa565b60405180910390fd5b600073ffffffffffffffffffffffffffffffffffffffff16606560009054906101000a900473ffffffffffffffffffffffffffffffffffffffff1673ffffffffffffffffffffffffffffffffffffffff167f8be0079c531659141344cd1fd0a4f28419497f9722a3daafe3b4186f6b6457e060405160405180910390a36000606560006101000a81548173ffffffffffffffffffffffffffffffffffffffff021916908373ffffffffffffffffffffffffffffffffffffffff160217905550565b6107af6114e6565b73ffffffffffffffffffffffffffffffffffffffff16606560009054906101000a900473ffffffffffffffffffffffffffffffffffffffff1673ffffffffffffffffffffffffffffffffffffffff161461083e576040517f08c379a000000000000000000000000000000000000000000000000000000000815260040161083590611dfa565b60405180910390fd5b610846611598565b565b6108506114e6565b73ffffffffffffffffffffffffffffffffffffffff16606560009054906101000a900473ffffffffffffffffffffffffffffffffffffffff1673ffffffffffffffffffffffffffffffffffffffff16146108df576040517f08c379a00000000000000000000000000000000000000000000000000000000081526004016108d690611dfa565b60405180910390fd5b60c960009054906101000a900460ff161561092f576040517f08c379a000000000000000000000000000000000000000000000000000000000815260040161092690611dba565b60405180910390fd5b60fb60009054906101000a900473ffffffffffffffffffffffffffffffffffffffff1673ffffffffffffffffffffffffffffffffffffffff168273ffffffffffffffffffffffffffffffffffffffff1614156109c0576040517f08c379a00000000000000000000000000000000000000000000000000000000081526004016109b790611e3a565b60405180910390fd5b60fc60009054906101000a900473ffffffffffffffffffffffffffffffffffffffff1673ffffffffffffffffffffffffffffffffffffffff168273ffffffffffffffffffffffffffffffffffffffff161415610a51576040517f08c379a0000000000000000000000000000000000000000000000000000000008152600401610a4890611d9a565b60405180910390fd5b8173ffffffffffffffffffffffffffffffffffffffff1663a9059cbb610a75610b23565b836040518363ffffffff1660e01b8152600401610a93929190611cbe565b602060405180830381600087803b158015610aad57600080fd5b505af1158015610ac1573d6000803e3d6000fd5b505050506040513d601f19601f82011682018060405250810190610ae59190611851565b507f8c1256b8896378cd5044f80c202f9772b9d77dc85c8a6eb51967210b09bfaa288282604051610b17929190611cbe565b60405180910390a15050565b6000606560009054906101000a900473ffffffffffffffffffffffffffffffffffffffff16905090565b60c960009054906101000a900460ff1615610b9d576040517f08c379a0000000000000000000000000000000000000000000000000000000008152600401610b9490611dba565b60405180910390fd5b3273ffffffffffffffffffffffffffffffffffffffff163373ffffffffffffffffffffffffffffffffffffffff1614610c0b576040517f08c379a0000000000000000000000000000000000000000000000000000000008152600401610c0290611e7a565b60405180910390fd5b609760009054906101000a900460ff16610c5a576040517f08c379a0000000000000000000000000000000000000000000000000000000008152600401610c5190611e5a565b60405180910390fd5b6000609760006101000a81548160ff0219169083151502179055506000610ca660fd54610c98670de0b6b3a76400008561164390919063ffffffff16565b6116b390919063ffffffff16565b905060fb60009054906101000a900473ffffffffffffffffffffffffffffffffffffffff1673ffffffffffffffffffffffffffffffffffffffff166323b872dd3330856040518463ffffffff1660e01b8152600401610d0793929190611c5e565b602060405180830381600087803b158015610d2157600080fd5b505af1158015610d35573d6000803e3d6000fd5b505050506040513d601f19601f82011682018060405250810190610d599190611851565b610d6257600080fd5b60fc60009054906101000a900473ffffffffffffffffffffffffffffffffffffffff1673ffffffffffffffffffffffffffffffffffffffff1663a9059cbb33836040518363ffffffff1660e01b8152600401610dbf929190611c95565b602060405180830381600087803b158015610dd957600080fd5b505af1158015610ded573d6000803e3d6000fd5b505050506040513d601f19601f82011682018060405250810190610e119190611851565b610e1a57600080fd5b3373ffffffffffffffffffffffffffffffffffffffff167fe6a45eea08a42f7c3f90f290e8ecf15e16174981943adf509fc9ea49808a64c68383604051610e62929190611eb5565b60405180910390a2506001609760006101000a81548160ff02191690831515021790555050565b610e916114e6565b73ffffffffffffffffffffffffffffffffffffffff16606560009054906101000a900473ffffffffffffffffffffffffffffffffffffffff1673ffffffffffffffffffffffffffffffffffffffff1614610f20576040517f08c379a0000000000000000000000000000000000000000000000000000000008152600401610f1790611dfa565b60405180910390fd5b600073ffffffffffffffffffffffffffffffffffffffff168173ffffffffffffffffffffffffffffffffffffffff161415610f90576040517f08c379a0000000000000000000000000000000000000000000000000000000008152600401610f8790611d7a565b60405180910390fd5b8073ffffffffffffffffffffffffffffffffffffffff16606560009054906101000a900473ffffffffffffffffffffffffffffffffffffffff1673ffffffffffffffffffffffffffffffffffffffff167f8be0079c531659141344cd1fd0a4f28419497f9722a3daafe3b4186f6b6457e060405160405180910390a380606560006101000a81548173ffffffffffffffffffffffffffffffffffffffff021916908373ffffffffffffffffffffffffffffffffffffffff16021790555050565b6000803090506000813b9050600081149250505090565b600060019054906101000a900460ff16806110865750611085611050565b5b8061109c575060008054906101000a900460ff16155b6110db576040517f08c379a00000000000000000000000000000000000000000000000000000000081526004016110d290611e1a565b60405180910390fd5b60008060019054906101000a900460ff16159050801561112b576001600060016101000a81548160ff02191690831515021790555060016000806101000a81548160ff0219169083151502179055505b801561114c5760008060016101000a81548160ff0219169083151502179055505b50565b600060019054906101000a900460ff168061116e575061116d611050565b5b80611184575060008054906101000a900460ff16155b6111c3576040517f08c379a00000000000000000000000000000000000000000000000000000000081526004016111ba90611e1a565b60405180910390fd5b60008060019054906101000a900460ff161590508015611213576001600060016101000a81548160ff02191690831515021790555060016000806101000a81548160ff0219169083151502179055505b600060c960006101000a81548160ff021916908315150217905550801561124f5760008060016101000a81548160ff0219169083151502179055505b50565b600060019054906101000a900460ff16806112715750611270611050565b5b80611287575060008054906101000a900460ff16155b6112c6576040517f08c379a00000000000000000000000000000000000000000000000000000000081526004016112bd90611e1a565b60405180910390fd5b60008060019054906101000a900460ff161590508015611316576001600060016101000a81548160ff02191690831515021790555060016000806101000a81548160ff0219169083151502179055505b6001609760006101000a81548160ff02191690831515021790555080156113525760008060016101000a81548160ff0219169083151502179055505b50565b600060019054906101000a900460ff16806113745750611373611050565b5b8061138a575060008054906101000a900460ff16155b6113c9576040517f08c379a00000000000000000000000000000000000000000000000000000000081526004016113c090611e1a565b60405180910390fd5b60008060019054906101000a900460ff161590508015611419576001600060016101000a81548160ff02191690831515021790555060016000806101000a81548160ff0219169083151502179055505b60006114236114e6565b905080606560006101000a81548173ffffffffffffffffffffffffffffffffffffffff021916908373ffffffffffffffffffffffffffffffffffffffff1602179055508073ffffffffffffffffffffffffffffffffffffffff16600073ffffffffffffffffffffffffffffffffffffffff167f8be0079c531659141344cd1fd0a4f28419497f9722a3daafe3b4186f6b6457e060405160405180910390a35080156114e35760008060016101000a81548160ff0219169083151502179055505b50565b600033905090565b60c960009054906101000a900460ff1661153d576040517f08c379a000000000000000000000000000000000000000000000000000000000815260040161153490611d5a565b60405180910390fd5b600060c960006101000a81548160ff0219169083151502179055507f5db9ee0a495bf2e6ff9c91a7834c1ba4fdd244a5e8aa4e537bd38aeae4b073aa6115816114e6565b60405161158e9190611c43565b60405180910390a1565b60c960009054906101000a900460ff16156115e8576040517f08c379a00000000000000000000000000000000000000000000000000000000081526004016115df90611dba565b60405180910390fd5b600160c960006101000a81548160ff0219169083151502179055507f62e78cea01bee320cd4e420270b5ea74000d11b0c9f74754ebdbfc544b05a25861162c6114e6565b6040516116399190611c43565b60405180910390a1565b60008083141561165657600090506116ad565b600082840290508284828161166757fe5b04146116a8576040517f08c379a000000000000000000000000000000000000000000000000000000000815260040161169f90611dda565b60405180910390fd5b809150505b92915050565b60006116f583836040518060400160405280601a81526020017f536166654d6174683a206469766973696f6e206279207a65726f0000000000008152506116fd565b905092915050565b60008083118290611744576040517f08c379a000000000000000000000000000000000000000000000000000000000815260040161173b9190611d38565b60405180910390fd5b50600083858161175057fe5b049050809150509392505050565b60008135905061176d81612004565b92915050565b6000815190506117828161201b565b92915050565b60008135905061179781612032565b92915050565b6000602082840312156117af57600080fd5b60006117bd8482850161175e565b91505092915050565b6000806000606084860312156117db57600080fd5b60006117e98682870161175e565b93505060206117fa8682870161175e565b925050604061180b86828701611788565b9150509250925092565b6000806040838503121561182857600080fd5b60006118368582860161175e565b925050602061184785828601611788565b9150509250929050565b60006020828403121561186357600080fd5b600061187184828501611773565b91505092915050565b60006020828403121561188c57600080fd5b600061189a84828501611788565b91505092915050565b6118ac81611f42565b82525050565b6118bb81611efa565b82525050565b6118ca81611f0c565b82525050565b6118d981611f54565b82525050565b6118e881611f78565b82525050565b60006118f982611ede565b6119038185611ee9565b9350611913818560208601611fc0565b61191c81611ff3565b840191505092915050565b6000611934601483611ee9565b91507f5061757361626c653a206e6f74207061757365640000000000000000000000006000830152602082019050919050565b6000611974602683611ee9565b91507f4f776e61626c653a206e6577206f776e657220697320746865207a65726f206160008301527f64647265737300000000000000000000000000000000000000000000000000006020830152604082019050919050565b60006119da600e83611ee9565b91507f4e6f207265636f766572204a454d0000000000000000000000000000000000006000830152602082019050919050565b6000611a1a601083611ee9565b91507f5061757361626c653a20706175736564000000000000000000000000000000006000830152602082019050919050565b6000611a5a602183611ee9565b91507f536166654d6174683a206d756c7469706c69636174696f6e206f766572666c6f60008301527f77000000000000000000000000000000000000000000000000000000000000006020830152604082019050919050565b6000611ac0602083611ee9565b91507f4f776e61626c653a2063616c6c6572206973206e6f7420746865206f776e65726000830152602082019050919050565b6000611b00602e83611ee9565b91507f436f6e747261637420696e7374616e63652068617320616c726561647920626560008301527f656e20696e697469616c697a65640000000000000000000000000000000000006020830152604082019050919050565b6000611b66601083611ee9565b91507f4e6f207265636f7665722053504f5245000000000000000000000000000000006000830152602082019050919050565b6000611ba6601f83611ee9565b91507f5265656e7472616e637947756172643a207265656e7472616e742063616c6c006000830152602082019050919050565b6000611be6601283611ee9565b91507f4f6e6c7920454f41732063616e2063616c6c00000000000000000000000000006000830152602082019050919050565b611c2281611f38565b82525050565b6000602082019050611c3d60008301846118b2565b92915050565b6000602082019050611c5860008301846118a3565b92915050565b6000606082019050611c7360008301866118a3565b611c8060208301856118b2565b611c8d6040830184611c19565b949350505050565b6000604082019050611caa60008301856118a3565b611cb76020830184611c19565b9392505050565b6000604082019050611cd360008301856118b2565b611ce06020830184611c19565b9392505050565b6000602082019050611cfc60008301846118c1565b92915050565b6000602082019050611d1760008301846118d0565b92915050565b6000602082019050611d3260008301846118df565b92915050565b60006020820190508181036000830152611d5281846118ee565b905092915050565b60006020820190508181036000830152611d7381611927565b9050919050565b60006020820190508181036000830152611d9381611967565b9050919050565b60006020820190508181036000830152611db3816119cd565b9050919050565b60006020820190508181036000830152611dd381611a0d565b9050919050565b60006020820190508181036000830152611df381611a4d565b9050919050565b60006020820190508181036000830152611e1381611ab3565b9050919050565b60006020820190508181036000830152611e3381611af3565b9050919050565b60006020820190508181036000830152611e5381611b59565b9050919050565b60006020820190508181036000830152611e7381611b99565b9050919050565b60006020820190508181036000830152611e9381611bd9565b9050919050565b6000602082019050611eaf6000830184611c19565b92915050565b6000604082019050611eca6000830185611c19565b611ed76020830184611c19565b9392505050565b600081519050919050565b600082825260208201905092915050565b6000611f0582611f18565b9050919050565b60008115159050919050565b600073ffffffffffffffffffffffffffffffffffffffff82169050919050565b6000819050919050565b6000611f4d82611f9c565b9050919050565b6000611f5f82611f66565b9050919050565b6000611f7182611f18565b9050919050565b6000611f8382611f8a565b9050919050565b6000611f9582611f18565b9050919050565b6000611fa782611fae565b9050919050565b6000611fb982611f18565b9050919050565b60005b83811015611fde578082015181840152602081019050611fc3565b83811115611fed576000848401525b50505050565b6000601f19601f8301169050919050565b61200d81611efa565b811461201857600080fd5b50565b61202481611f0c565b811461202f57600080fd5b50565b61203b81611f38565b811461204657600080fd5b5056fea2646970667358221220b9768d884337c7b7eb6d2515e887eb248c6d172b52d4ae759dac9dc9babe89c264736f6c634300060c0033"}}