{
  "opcodeHash": "0x3f6a647efdc589c647a515d1b55a4e39893327c621e97dced7ac191be452986c",
  "metalessHash": "0x54bef64d534586c2a19cea1b7f57f2148060bfad25b5c3214cc0d1c640ab5373",
  "runtimeHash": "0x2d156b36b163c7cced36938ccbef03655e2c3954f61b437831fdcc4dcdd7f365",
  "encodedMetadata": [
    {
      "ipfs": "/ipfs/QmQWoWVJD3AmWUMHr5csiUoZxuk19VLfuvNVPF1Re1BTfZ",
      "solc": "0.8.10"
    }
  ],
  "abi": [
    {
      "inputs": [
        {
          "internalType": "string",
          "name": "name_",
          "type": "string"
        },
        {
          "internalType": "string",
          "name": "symbol_",
          "type": "string"
        },
        {
          "internalType": "uint256",
          "name": "amount_",
          "type": "uint256"
        },
        {
          "internalType": "address",
          "name": "deployer_",
          "type": "address"
        }
      ],
      "stateMutability": "nonpayable",
      "type": "constructor"
    },
    {
      "anonymous": false,
      "inputs": [
        {
          "indexed": true,
          "internalType": "address",
          "name": "owner",
          "type": "address"
        },
        {
          "indexed": true,
          "internalType": "address",
          "name": "spender",
          "type": "address"
        },
        {
          "indexed": false,
          "internalType": "uint256",
          "name": "value",
          "type": "uint256"
        }
      ],
      "name": "Approval",
      "type": "event"
    },
    {
      "anonymous": false,
      "inputs": [
        {
          "indexed": false,
          "internalType": "address",
          "name": "tokenHolder",
          "type": "address"
        },
        {
          "indexed": false,
          "internalType": "uint256",
          "name": "amountLocked",
          "type": "uint256"
        },
        {
          "indexed": false,
          "internalType": "uint256",
          "name": "time",
          "type": "uint256"
        },
        {
          "indexed": false,
          "internalType": "uint256",
          "name": "unlockPeriod",
          "type": "uint256"
        },
        {
          "indexed": false,
          "internalType": "uint256",
          "name": "unlockedPerPeriod",
          "type": "uint256"
        }
      ],
      "name": "NewTokenLock",
      "type": "event"
    },
    {
      "anonymous": false,
      "inputs": [
        {
          "indexed": true,
          "internalType": "address",
          "name": "from",
          "type": "address"
        },
        {
          "indexed": true,
          "internalType": "address",
          "name": "to",
          "type": "address"
        },
        {
          "indexed": false,
          "internalType": "uint256",
          "name": "value",
          "type": "uint256"
        }
      ],
      "name": "Transfer",
      "type": "event"
    },
    {
      "anonymous": false,
      "inputs": [
        {
          "indexed": false,
          "internalType": "address",
          "name": "tokenHolder",
          "type": "address"
        },
        {
          "indexed": false,
          "internalType": "uint256",
          "name": "amountLocked",
          "type": "uint256"
        },
        {
          "indexed": false,
          "internalType": "uint256",
          "name": "time",
          "type": "uint256"
        },
        {
          "indexed": false,
          "internalType": "uint256",
          "name": "unlockPeriod",
          "type": "uint256"
        },
        {
          "indexed": false,
          "internalType": "uint256",
          "name": "unlockedPerPeriod",
          "type": "uint256"
        }
      ],
      "name": "UpdateTokenLock",
      "type": "event"
    },
    {
      "inputs": [
        {
          "internalType": "address",
          "name": "owner",
          "type": "address"
        },
        {
          "internalType": "address",
          "name": "spender",
          "type": "address"
        }
      ],
      "name": "allowance",
      "outputs": [
        {
          "internalType": "uint256",
          "name": "",
          "type": "uint256"
        }
      ],
      "stateMutability": "view",
      "type": "function"
    },
    {
      "inputs": [
        {
          "internalType": "address",
          "name": "spender",
          "type": "address"
        },
        {
          "internalType": "uint256",
          "name": "amount",
          "type": "uint256"
        }
      ],
      "name": "approve",
      "outputs": [
        {
          "internalType": "bool",
          "name": "",
          "type": "bool"
        }
      ],
      "stateMutability": "nonpayable",
      "type": "function"
    },
    {
      "inputs": [
        {
          "internalType": "address",
          "name": "who",
          "type": "address"
        }
      ],
      "name": "balanceLocked",
      "outputs": [
        {
          "internalType": "uint256",
          "name": "amount",
          "type": "uint256"
        }
      ],
      "stateMutability": "view",
      "type": "function"
    },
    {
      "inputs": [
        {
          "internalType": "address",
          "name": "account",
          "type": "address"
        }
      ],
      "name": "balanceOf",
      "outputs": [
        {
          "internalType": "uint256",
          "name": "",
          "type": "uint256"
        }
      ],
      "stateMutability": "view",
      "type": "function"
    },
    {
      "inputs": [
        {
          "internalType": "address",
          "name": "who",
          "type": "address"
        }
      ],
      "name": "balanceUnlocked",
      "outputs": [
        {
          "internalType": "uint256",
          "name": "amount",
          "type": "uint256"
        }
      ],
      "stateMutability": "view",
      "type": "function"
    },
    {
      "inputs": [
        {
          "internalType": "address",
          "name": "",
          "type": "address"
        }
      ],
      "name": "baseTokensLocked",
      "outputs": [
        {
          "internalType": "uint256",
          "name": "",
          "type": "uint256"
        }
      ],
      "stateMutability": "view",
      "type": "function"
    },
    {
      "inputs": [],
      "name": "clearLock",
      "outputs": [],
      "stateMutability": "nonpayable",
      "type": "function"
    },
    {
      "inputs": [],
      "name": "decimals",
      "outputs": [
        {
          "internalType": "uint8",
          "name": "",
          "type": "uint8"
        }
      ],
      "stateMutability": "view",
      "type": "function"
    },
    {
      "inputs": [
        {
          "internalType": "address",
          "name": "spender",
          "type": "address"
        },
        {
          "internalType": "uint256",
          "name": "subtractedValue",
          "type": "uint256"
        }
      ],
      "name": "decreaseAllowance",
      "outputs": [
        {
          "internalType": "bool",
          "name": "",
          "type": "bool"
        }
      ],
      "stateMutability": "nonpayable",
      "type": "function"
    },
    {
      "inputs": [
        {
          "internalType": "uint256",
          "name": "subtractedValue",
          "type": "uint256"
        }
      ],
      "name": "decreaseUnlockAmount",
      "outputs": [],
      "stateMutability": "nonpayable",
      "type": "function"
    },
    {
      "inputs": [
        {
          "internalType": "address",
          "name": "spender",
          "type": "address"
        },
        {
          "internalType": "uint256",
          "name": "addedValue",
          "type": "uint256"
        }
      ],
      "name": "increaseAllowance",
      "outputs": [
        {
          "internalType": "bool",
          "name": "",
          "type": "bool"
        }
      ],
      "stateMutability": "nonpayable",
      "type": "function"
    },
    {
      "inputs": [
        {
          "internalType": "uint256",
          "name": "addedValue",
          "type": "uint256"
        }
      ],
      "name": "increaseTokensLocked",
      "outputs": [],
      "stateMutability": "nonpayable",
      "type": "function"
    },
    {
      "inputs": [
        {
          "internalType": "uint256",
          "name": "addedValue",
          "type": "uint256"
        }
      ],
      "name": "increaseUnlockTime",
      "outputs": [],
      "stateMutability": "nonpayable",
      "type": "function"
    },
    {
      "inputs": [
        {
          "internalType": "address",
          "name": "",
          "type": "address"
        }
      ],
      "name": "lockTime",
      "outputs": [
        {
          "internalType": "uint256",
          "name": "",
          "type": "uint256"
        }
      ],
      "stateMutability": "view",
      "type": "function"
    },
    {
      "inputs": [],
      "name": "name",
      "outputs": [
        {
          "internalType": "string",
          "name": "",
          "type": "string"
        }
      ],
      "stateMutability": "view",
      "type": "function"
    },
    {
      "inputs": [
        {
          "internalType": "uint256",
          "name": "baseTokensLocked_",
          "type": "uint256"
        },
        {
          "internalType": "uint256",
          "name": "unlockEpoch_",
          "type": "uint256"
        },
        {
          "internalType": "uint256",
          "name": "unlockedPerEpoch_",
          "type": "uint256"
        }
      ],
      "name": "newTokenLock",
      "outputs": [],
      "stateMutability": "nonpayable",
      "type": "function"
    },
    {
      "inputs": [],
      "name": "symbol",
      "outputs": [
        {
          "internalType": "string",
          "name": "",
          "type": "string"
        }
      ],
      "stateMutability": "view",
      "type": "function"
    },
    {
      "inputs": [],
      "name": "totalSupply",
      "outputs": [
        {
          "internalType": "uint256",
          "name": "",
          "type": "uint256"
        }
      ],
      "stateMutability": "view",
      "type": "function"
    },
    {
      "inputs": [
        {
          "internalType": "address",
          "name": "recipient",
          "type": "address"
        },
        {
          "internalType": "uint256",
          "name": "amount",
          "type": "uint256"
        }
      ],
      "name": "transfer",
      "outputs": [
        {
          "internalType": "bool",
          "name": "",
          "type": "bool"
        }
      ],
      "stateMutability": "nonpayable",
      "type": "function"
    },
    {
      "inputs": [
        {
          "internalType": "address",
          "name": "sender",
          "type": "address"
        },
        {
          "internalType": "address",
          "name": "recipient",
          "type": "address"
        },
        {
          "internalType": "uint256",
          "name": "amount",
          "type": "uint256"
        }
      ],
      "name": "transferFrom",
      "outputs": [
        {
          "internalType": "bool",
          "name": "",
          "type": "bool"
        }
      ],
      "stateMutability": "nonpayable",
      "type": "function"
    },
    {
      "inputs": [
        {
          "internalType": "address",
          "name": "",
          "type": "address"
        }
      ],
      "name": "unlockEpoch",
      "outputs": [
        {
          "internalType": "uint256",
          "name": "",
          "type": "uint256"
        }
      ],
      "stateMutability": "view",
      "type": "function"
    },
    {
      "inputs": [
        {
          "internalType": "address",
          "name": "",
          "type": "address"
        }
      ],
      "name": "unlockedPerEpoch",
      "outputs": [
        {
          "internalType": "uint256",
          "name": "",
          "type": "uint256"
        }
      ],
      "stateMutability": "view",
      "type": "function"
    }
  ],
  "bytecode": {
    "object": "60806040523480156200001157600080fd5b50604051620019b1380380620019b1833981016040819052620000349162000470565b8351849084906200004d906003906020850190620002f4565b50805162000063906004906020840190620002f4565b5050506200007881836200008260201b60201c565b5050505062000607565b6001600160a01b038216620000de5760405162461bcd60e51b815260206004820152601f60248201527f45524332303a206d696e7420746f20746865207a65726f20616464726573730060448201526064015b60405180910390fd5b620000ec6000838362000179565b80600260008282546200010091906200051b565b90915550506001600160a01b038216600090815260208190526040812080548392906200012f9084906200051b565b90915550506040518181526001600160a01b038316906000907fddf252ad1be2c89b69c2b068fc378daa952ba7f163c4a11628f55a4df523b3ef9060200160405180910390a35050565b6001600160a01b03831615806200019a57506200019683620001db565b8111155b6040518060600160405280602781526020016200198a6027913990620001d55760405162461bcd60e51b8152600401620000d5919062000536565b50505050565b6000620001e88262000213565b6001600160a01b0383166000908152602081905260409020546200020d91906200056b565b92915050565b6001600160a01b0381166000908152600860205260408120546200023957506000919050565b6001600160a01b03821660009081526006602090815260408083205460059092528220546200026990426200056b565b6001600160a01b0385166000908152600760205260409020546200028e919062000585565b6200029a9190620005a7565b6001600160a01b038416600090815260086020526040902054909150811115620002c75750600092915050565b6001600160a01b038316600090815260086020526040902054620002ed9082906200056b565b9392505050565b8280546200030290620005ca565b90600052602060002090601f01602090048101928262000326576000855562000371565b82601f106200034157805160ff191683800117855562000371565b8280016001018555821562000371579182015b828111156200037157825182559160200191906001019062000354565b506200037f92915062000383565b5090565b5b808211156200037f576000815560010162000384565b634e487b7160e01b600052604160045260246000fd5b60005b83811015620003cd578181015183820152602001620003b3565b83811115620001d55750506000910152565b600082601f830112620003f157600080fd5b81516001600160401b03808211156200040e576200040e6200039a565b604051601f8301601f19908116603f011681019082821181831017156200043957620004396200039a565b816040528381528660208588010111156200045357600080fd5b62000466846020830160208901620003b0565b9695505050505050565b600080600080608085870312156200048757600080fd5b84516001600160401b03808211156200049f57600080fd5b620004ad88838901620003df565b95506020870151915080821115620004c457600080fd5b50620004d387828801620003df565b60408701516060880151919550935090506001600160a01b0381168114620004fa57600080fd5b939692955090935050565b634e487b7160e01b600052601160045260246000fd5b6000821982111562000531576200053162000505565b500190565b602081526000825180602084015262000557816040850160208701620003b0565b601f01601f19169190910160400192915050565b60008282101562000580576200058062000505565b500390565b6000816000190483118215151615620005a257620005a262000505565b500290565b600082620005c557634e487b7160e01b600052601260045260246000fd5b500490565b600181811c90821680620005df57607f821691505b602082108114156200060157634e487b7160e01b600052602260045260246000fd5b50919050565b61137380620006176000396000f3fe608060405234801561001057600080fd5b50600436106101425760003560e01c806374af3447116100b8578063a4beda631161007c578063a4beda63146102b4578063a9059cbb146102d4578063c19b8036146102e7578063c619af14146102ef578063d8a67fd514610302578063dd62ed3e1461032257600080fd5b806374af3447146102535780637c616fe61461027357806383f918371461028657806395d89b4114610299578063a457c2d7146102a157600080fd5b806323b872dd1161010a57806323b872dd146101cd578063313ce567146101e057806339509351146101ef5780635d7add48146102025780635fc3a3121461021757806370a082311461022a57600080fd5b80630451f5201461014757806306fdde031461016d578063095ea7b31461018257806318160ddd146101a55780631ca7925c146101ad575b600080fd5b61015a610155366004610fcf565b61035b565b6040519081526020015b60405180910390f35b61017561038f565b6040516101649190610fea565b61019561019036600461103f565b610421565b6040519015158152602001610164565b60025461015a565b61015a6101bb366004610fcf565b60066020526000908152604090205481565b6101956101db366004611069565b610437565b60405160128152602001610164565b6101956101fd36600461103f565b6104ed565b6102156102103660046110a5565b610524565b005b61015a610225366004610fcf565b61061d565b61015a610238366004610fcf565b6001600160a01b031660009081526020819052604090205490565b61015a610261366004610fcf565b60076020526000908152604090205481565b6102156102813660046110a5565b6106f4565b6102156102943660046110be565b6107c5565b610175610997565b6101956102af36600461103f565b6109a6565b61015a6102c2366004610fcf565b60056020526000908152604090205481565b6101956102e236600461103f565b610a41565b610215610a4e565b6102156102fd3660046110a5565b610ac5565b61015a610310366004610fcf565b60086020526000908152604090205481565b61015a6103303660046110ea565b6001600160a01b03918216600090815260016020908152604080832093909416825291909152205490565b60006103668261061d565b6001600160a01b0383166000908152602081905260409020546103899190611133565b92915050565b60606003805461039e9061114a565b80601f01602080910402602001604051908101604052809291908181526020018280546103ca9061114a565b80156104175780601f106103ec57610100808354040283529160200191610417565b820191906000526020600020905b8154815290600101906020018083116103fa57829003601f168201915b5050505050905090565b600061042e338484610bdb565b50600192915050565b6000610444848484610cff565b6001600160a01b0384166000908152600160209081526040808320338452909152902054828110156104ce5760405162461bcd60e51b815260206004820152602860248201527f45524332303a207472616e7366657220616d6f756e74206578636565647320616044820152676c6c6f77616e636560c01b60648201526084015b60405180910390fd5b6104e285336104dd8685611133565b610bdb565b506001949350505050565b3360008181526001602090815260408083206001600160a01b0387168452909152812054909161042e9185906104dd908690611185565b600061052f3361061d565b116040518060600160405280602b81526020016112e7602b9139906105675760405162461bcd60e51b81526004016104c59190610fea565b5060008111801561059057503360009081526007602052604081205461058e908390611133565b115b6040518060600160405280602c8152602001611312602c9139906105c75760405162461bcd60e51b81526004016104c59190610fea565b506105d13361061d565b3360009081526008602090815260408083209390935560058152828220429055600790522054610602908290611133565b3360009081526007602052604090205561061a610ee2565b50565b6001600160a01b03811660009081526008602052604081205461064257506000919050565b6001600160a01b03821660009081526006602090815260408083205460059092528220546106709042611133565b6001600160a01b038516600090815260076020526040902054610693919061119d565b61069d91906111bc565b6001600160a01b0384166000908152600860205260409020549091508111156106c95750600092915050565b6001600160a01b0383166000908152600860205260409020546106ed908290611133565b9392505050565b600081116040518060600160405280602c8152602001611231602c91399061072f5760405162461bcd60e51b81526004016104c59190610fea565b50600061073b3361061d565b116040518060600160405280602b81526020016112e7602b9139906107735760405162461bcd60e51b81526004016104c59190610fea565b5061077d3361061d565b33600090815260086020908152604080832093909355600581528282204290556006905220546107ad9082611185565b3360009081526006602052604090205561061a610ee2565b6107ce3361061d565b60408051808201909152601981527f546f6b656e206c6f636b20616c72656164792065786973747300000000000000602082015290156108215760405162461bcd60e51b81526004016104c59190610fea565b5033600090815260208190526040902054831115604051806040016040528060198152602001784e6f7420656e6f75676820746f6b656e7320746f206c6f636b60381b815250906108855760405162461bcd60e51b81526004016104c59190610fea565b50600082116040518060600160405280602981526020016111df60299139906108c15760405162461bcd60e51b81526004016104c59190610fea565b508281111580156108d25750600081115b60405180606001604052806035815260200161128b60359139906109095760405162461bcd60e51b81526004016104c59190610fea565b5033600081815260056020908152604080832042815560068352818420878155600780855283862088815560088652958490208a905591549054918452935482519586529285018890528482019390935260608401929092526080830152517f14dd38da30c9da84bbafc0a82aca4fe12d2802342bdff3aee7cba29b3dace69c9181900360a00190a1505050565b60606004805461039e9061114a565b3360009081526001602090815260408083206001600160a01b038616845290915281205482811015610a285760405162461bcd60e51b815260206004820152602560248201527f45524332303a2064656372656173656420616c6c6f77616e63652062656c6f77604482015264207a65726f60d81b60648201526084016104c5565b610a3733856104dd8685611133565b5060019392505050565b600061042e338484610cff565b610a573361061d565b6000146040518060600160405280602981526020016112086029913990610a915760405162461bcd60e51b81526004016104c59190610fea565b5033600090815260056020908152604080832083905560068252808320839055600782528083208390556008909152812055565b600081116040518060600160405280602e815260200161125d602e913990610b005760405162461bcd60e51b81526004016104c59190610fea565b506000610b0c3361061d565b116040518060600160405280602b81526020016112e7602b913990610b445760405162461bcd60e51b81526004016104c59190610fea565b50610b4e3361035b565b811115604051806040016040528060198152602001784e6f7420656e6f75676820746f6b656e7320746f206c6f636b60381b81525090610ba15760405162461bcd60e51b81526004016104c59190610fea565b50610bab3361061d565b610bb59082611185565b33600090815260086020908152604080832093909355600590522042905561061a610ee2565b6001600160a01b038316610c3d5760405162461bcd60e51b8152602060048201526024808201527f45524332303a20617070726f76652066726f6d20746865207a65726f206164646044820152637265737360e01b60648201526084016104c5565b6001600160a01b038216610c9e5760405162461bcd60e51b815260206004820152602260248201527f45524332303a20617070726f766520746f20746865207a65726f206164647265604482015261737360f01b60648201526084016104c5565b6001600160a01b0383811660008181526001602090815260408083209487168084529482529182902085905590518481527f8c5be1e5ebec7d5bd14f71427d1e84f3dd0314c0f7b2291e5b200ac8c7c3b925910160405180910390a3505050565b6001600160a01b038316610d635760405162461bcd60e51b815260206004820152602560248201527f45524332303a207472616e736665722066726f6d20746865207a65726f206164604482015264647265737360d81b60648201526084016104c5565b6001600160a01b038216610dc55760405162461bcd60e51b815260206004820152602360248201527f45524332303a207472616e7366657220746f20746865207a65726f206164647260448201526265737360e81b60648201526084016104c5565b610dd0838383610f58565b6001600160a01b03831660009081526020819052604090205481811015610e485760405162461bcd60e51b815260206004820152602660248201527f45524332303a207472616e7366657220616d6f756e7420657863656564732062604482015265616c616e636560d01b60648201526084016104c5565b610e528282611133565b6001600160a01b038086166000908152602081905260408082209390935590851681529081208054849290610e88908490611185565b92505081905550826001600160a01b0316846001600160a01b03167fddf252ad1be2c89b69c2b068fc378daa952ba7f163c4a11628f55a4df523b3ef84604051610ed491815260200190565b60405180910390a350505050565b33600081815260086020908152604080832054600583528184205460068452828520546007855294839020548351968752938601919091528482015260608401929092526080830152517f42d399c266c2ecae943ad13b8b7667b66a9a94a929b64832b6fa27f5c61002a49181900360a00190a1565b6001600160a01b0383161580610f765750610f728361035b565b8111155b6040518060600160405280602781526020016112c06027913990610fad5760405162461bcd60e51b81526004016104c59190610fea565b50505050565b80356001600160a01b0381168114610fca57600080fd5b919050565b600060208284031215610fe157600080fd5b6106ed82610fb3565b600060208083528351808285015260005b8181101561101757858101830151858201604001528201610ffb565b81811115611029576000604083870101525b50601f01601f1916929092016040019392505050565b6000806040838503121561105257600080fd5b61105b83610fb3565b946020939093013593505050565b60008060006060848603121561107e57600080fd5b61108784610fb3565b925061109560208501610fb3565b9150604084013590509250925092565b6000602082840312156110b757600080fd5b5035919050565b6000806000606084860312156110d357600080fd5b505081359360208301359350604090920135919050565b600080604083850312156110fd57600080fd5b61110683610fb3565b915061111460208401610fb3565b90509250929050565b634e487b7160e01b600052601160045260246000fd5b6000828210156111455761114561111d565b500390565b600181811c9082168061115e57607f821691505b6020821081141561117f57634e487b7160e01b600052602260045260246000fd5b50919050565b600082198211156111985761119861111d565b500190565b60008160001904831182151516156111b7576111b761111d565b500290565b6000826111d957634e487b7160e01b600052601260045260246000fd5b50049056fe556e6c6f636b20696e74657276616c206d7573742062652067726561746572207468616e207a65726f43616e6e6f7420636c656172206c6f636b207768696c6520746f6b656e7320617265206c6f636b65644e657720756e6c6f636b2074696d65206d7573742062652067726561746572207468616e2063757272656e744e657720616d6f756e74206c6f636b6564206d7573742062652067726561746572207468616e2063757272656e74556e6c6f636b20616d6f756e74206d757374206265206265747765656e203120616e6420746865206c6f636b656420616d6f756e744e6f7420656e6f75676820756e6c6f636b656420746f6b656e7320666f72207472616e736665724e6f20746f6b656e7320617265206c6f636b65642c20637265617465206e6577206c6f636b2066697273744e657720756e6c6f636b20616d6f756e74206d757374206265206c6f776572207468616e2063757272656e74a264697066735822122043e1e6e36e703b3be24991a668272f3c2110de550e4f7be7156a569b2e99e3da64736f6c634300080a00334e6f7420656e6f75676820756e6c6f636b656420746f6b656e7320666f72207472616e73666572"
  }
}