{"compiler":"v0.8.1+commit.df193b15","opcodeHash":"0x0374a53821a8ef91ca316569898771766acc81dca83b3d33ad150754bdb90234","metalessHash":"0x828e9c0d586520d521bc5f29f980bd48d7f9abc3980ef3189c305cb3f2a41b18","runtimeHash":"0xeca0c0d6d8ef276ce002b80ee6b348d9fde7f76c58b64c78d918385f9f24165a","encodedMetadata":[{"ipfs":"/ipfs/QmPPZweg52FmbBqziMpQYNczScEzSFMSaJQ2izEc3eaUus","solc":"0.8.1"}],"abi":[{"inputs":[{"internalType":"uint256","name":"totalSupply_","type":"uint256"}],"stateMutability":"nonpayable","type":"constructor"},{"anonymous":false,"inputs":[{"indexed":true,"internalType":"address","name":"owner","type":"address"},{"indexed":true,"internalType":"address","name":"spender","type":"address"},{"indexed":false,"internalType":"uint256","name":"value","type":"uint256"}],"name":"Approval","type":"event"},{"anonymous":false,"inputs":[{"indexed":true,"internalType":"address","name":"from","type":"address"},{"indexed":true,"internalType":"address","name":"to","type":"address"},{"indexed":false,"internalType":"uint256","name":"value","type":"uint256"}],"name":"Transfer","type":"event"},{"inputs":[{"internalType":"address","name":"owner","type":"address"},{"internalType":"address","name":"spender","type":"address"}],"name":"allowance","outputs":[{"internalType":"uint256","name":"","type":"uint256"}],"stateMutability":"view","type":"function"},{"inputs":[{"internalType":"address","name":"spender","type":"address"},{"internalType":"uint256","name":"amount","type":"uint256"}],"name":"approve","outputs":[{"internalType":"bool","name":"","type":"bool"}],"stateMutability":"nonpayable","type":"function"},{"inputs":[{"internalType":"address","name":"account","type":"address"}],"name":"balanceOf","outputs":[{"internalType":"uint256","name":"","type":"uint256"}],"stateMutability":"view","type":"function"},{"inputs":[{"internalType":"uint256","name":"amount","type":"uint256"}],"name":"burn","outputs":[],"stateMutability":"nonpayable","type":"function"},{"inputs":[],"name":"decimals","outputs":[{"internalType":"uint8","name":"","type":"uint8"}],"stateMutability":"view","type":"function"},{"inputs":[{"internalType":"address","name":"spender","type":"address"},{"internalType":"uint256","name":"subtractedValue","type":"uint256"}],"name":"decreaseAllowance","outputs":[{"internalType":"bool","name":"","type":"bool"}],"stateMutability":"nonpayable","type":"function"},{"inputs":[{"internalType":"address","name":"spender","type":"address"},{"internalType":"uint256","name":"addedValue","type":"uint256"}],"name":"increaseAllowance","outputs":[{"internalType":"bool","name":"","type":"bool"}],"stateMutability":"nonpayable","type":"function"},{"inputs":[],"name":"name","outputs":[{"internalType":"string","name":"","type":"string"}],"stateMutability":"view","type":"function"},{"inputs":[],"name":"symbol","outputs":[{"internalType":"string","name":"","type":"string"}],"stateMutability":"view","type":"function"},{"inputs":[],"name":"totalSupply","outputs":[{"internalType":"uint256","name":"","type":"uint256"}],"stateMutability":"view","type":"function"},{"inputs":[{"internalType":"address","name":"recipient","type":"address"},{"internalType":"uint256","name":"amount","type":"uint256"}],"name":"transfer","outputs":[{"internalType":"bool","name":"","type":"bool"}],"stateMutability":"nonpayable","type":"function"},{"inputs":[{"internalType":"address","name":"sender","type":"address"},{"internalType":"address","name":"recipient","type":"address"},{"internalType":"uint256","name":"amount","type":"uint256"}],"name":"transferFrom","outputs":[{"internalType":"bool","name":"","type":"bool"}],"stateMutability":"nonpayable","type":"function"}],"bytecode":{"object":"60c0604052600b60808190526a213630b735902a37b5b2b760a91b60a09081526200002e9160039190620000c6565b5060408051808201909152600580825264424c414e4b60d81b60209092019182526200005d91600491620000c6565b503480156200006b57600080fd5b5060405162000d4b38038062000d4b8339810160408190526200008e916200016c565b600281905580600080620000a1620000c2565b6001600160a01b0316815260208101919091526040016000205550620001c2565b3390565b828054620000d49062000185565b90600052602060002090601f016020900481019282620000f8576000855562000143565b82601f106200011357805160ff191683800117855562000143565b8280016001018555821562000143579182015b828111156200014357825182559160200191906001019062000126565b506200015192915062000155565b5090565b5b8082111562000151576000815560010162000156565b6000602082840312156200017e578081fd5b5051919050565b6002810460018216806200019a57607f821691505b60208210811415620001bc57634e487b7160e01b600052602260045260246000fd5b50919050565b610b7980620001d26000396000f3fe608060405234801561001057600080fd5b50600436106100b45760003560e01c806342966c681161007157806342966c681461014757806370a082311461015c57806395d89b411461016f578063a457c2d714610177578063a9059cbb1461018a578063dd62ed3e1461019d576100b4565b806306fdde03146100b9578063095ea7b3146100d757806318160ddd146100f757806323b872dd1461010c578063313ce5671461011f5780633950935114610134575b600080fd5b6100c16101b0565b6040516100ce91906107f5565b60405180910390f35b6100ea6100e53660046107a9565b610242565b6040516100ce91906107ea565b6100ff61025f565b6040516100ce9190610aac565b6100ea61011a36600461076e565b610265565b610127610305565b6040516100ce9190610ab5565b6100ea6101423660046107a9565b61030a565b61015a6101553660046107d2565b610359565b005b6100ff61016a36600461071b565b61036d565b6100c161038c565b6100ea6101853660046107a9565b61039b565b6100ea6101983660046107a9565b610416565b6100ff6101ab36600461073c565b61042a565b6060600380546101bf90610af2565b80601f01602080910402602001604051908101604052809291908181526020018280546101eb90610af2565b80156102385780601f1061020d57610100808354040283529160200191610238565b820191906000526020600020905b81548152906001019060200180831161021b57829003601f168201915b5050505050905090565b600061025661024f610455565b8484610459565b50600192915050565b60025490565b600061027284848461050d565b6001600160a01b038416600090815260016020526040812081610293610455565b6001600160a01b03166001600160a01b03168152602001908152602001600020549050828110156102df5760405162461bcd60e51b81526004016102d690610955565b60405180910390fd5b6102fa856102eb610455565b6102f58685610adb565b610459565b506001949350505050565b601290565b6000610256610317610455565b848460016000610325610455565b6001600160a01b03908116825260208083019390935260409182016000908120918b16815292529020546102f59190610ac3565b61036a610364610455565b8261062a565b50565b6001600160a01b0381166000908152602081905260409020545b919050565b6060600480546101bf90610af2565b600080600160006103aa610455565b6001600160a01b03908116825260208083019390935260409182016000908120918816815292529020549050828110156103f65760405162461bcd60e51b81526004016102d690610a67565b61040c610401610455565b856102f58685610adb565b5060019392505050565b6000610256610423610455565b848461050d565b6001600160a01b03918216600090815260016020908152604080832093909416825291909152205490565b3390565b6001600160a01b03831661047f5760405162461bcd60e51b81526004016102d690610a23565b6001600160a01b0382166104a55760405162461bcd60e51b81526004016102d6906108cd565b6001600160a01b0380841660008181526001602090815260408083209487168084529490915290819020849055517f8c5be1e5ebec7d5bd14f71427d1e84f3dd0314c0f7b2291e5b200ac8c7c3b92590610500908590610aac565b60405180910390a3505050565b6001600160a01b0383166105335760405162461bcd60e51b81526004016102d6906109de565b6001600160a01b0382166105595760405162461bcd60e51b81526004016102d690610848565b6001600160a01b038316600090815260208190526040902054818110156105925760405162461bcd60e51b81526004016102d69061090f565b61059c8282610adb565b6001600160a01b0380861660009081526020819052604080822093909355908516815290812080548492906105d2908490610ac3565b92505081905550826001600160a01b0316846001600160a01b03167fddf252ad1be2c89b69c2b068fc378daa952ba7f163c4a11628f55a4df523b3ef8460405161061c9190610aac565b60405180910390a350505050565b6001600160a01b0382166106505760405162461bcd60e51b81526004016102d69061099d565b6001600160a01b038216600090815260208190526040902054818110156106895760405162461bcd60e51b81526004016102d69061088b565b6106938282610adb565b6001600160a01b038416600090815260208190526040812091909155600280548492906106c1908490610adb565b90915550506040516000906001600160a01b038516907fddf252ad1be2c89b69c2b068fc378daa952ba7f163c4a11628f55a4df523b3ef90610500908690610aac565b80356001600160a01b038116811461038757600080fd5b60006020828403121561072c578081fd5b61073582610704565b9392505050565b6000806040838503121561074e578081fd5b61075783610704565b915061076560208401610704565b90509250929050565b600080600060608486031215610782578081fd5b61078b84610704565b925061079960208501610704565b9150604084013590509250925092565b600080604083850312156107bb578182fd5b6107c483610704565b946020939093013593505050565b6000602082840312156107e3578081fd5b5035919050565b901515815260200190565b6000602080835283518082850152825b8181101561082157858101830151858201604001528201610805565b818111156108325783604083870101525b50601f01601f1916929092016040019392505050565b60208082526023908201527f45524332303a207472616e7366657220746f20746865207a65726f206164647260408201526265737360e81b606082015260800190565b60208082526022908201527f45524332303a206275726e20616d6f756e7420657863656564732062616c616e604082015261636560f01b606082015260800190565b60208082526022908201527f45524332303a20617070726f766520746f20746865207a65726f206164647265604082015261737360f01b606082015260800190565b60208082526026908201527f45524332303a207472616e7366657220616d6f756e7420657863656564732062604082015265616c616e636560d01b606082015260800190565b60208082526028908201527f45524332303a207472616e7366657220616d6f756e74206578636565647320616040820152676c6c6f77616e636560c01b606082015260800190565b60208082526021908201527f45524332303a206275726e2066726f6d20746865207a65726f206164647265736040820152607360f81b606082015260800190565b60208082526025908201527f45524332303a207472616e736665722066726f6d20746865207a65726f206164604082015264647265737360d81b606082015260800190565b60208082526024908201527f45524332303a20617070726f76652066726f6d20746865207a65726f206164646040820152637265737360e01b606082015260800190565b60208082526025908201527f45524332303a2064656372656173656420616c6c6f77616e63652062656c6f77604082015264207a65726f60d81b606082015260800190565b90815260200190565b60ff91909116815260200190565b60008219821115610ad657610ad6610b2d565b500190565b600082821015610aed57610aed610b2d565b500390565b600281046001821680610b0657607f821691505b60208210811415610b2757634e487b7160e01b600052602260045260246000fd5b50919050565b634e487b7160e01b600052601160045260246000fdfea264697066735822122040c4c0fe27f2f2bd0f2b2c2c824a06655e858ed5817dafef62328c011de5985364736f6c63430008010033"}}