{
  "opcodeHash": "0x995d8ee079a7e0f70026a49d0dc1bc66f03a13fddc352b5f214ca70580109fa3",
  "metalessHash": "0x03c24e1a306e44fd0d7790bf464d0f6f330d6c7724b0a2de20bec35a6e326fc1",
  "runtimeHash": "0xdfb06ef5a1b3b182e40709af84de6688833d126a819e76559efa9b15cd5b0557",
  "encodedMetadata": [
    {
      "ipfs": "/ipfs/QmNT9gszxsFTb2qMz9deaUpFf2GRGgdoob9ZxjjmSareLJ",
      "solc": "0.8.7"
    }
  ],
  "abi": [
    {
      "inputs": [],
      "stateMutability": "nonpayable",
      "type": "constructor"
    },
    {
      "anonymous": false,
      "inputs": [
        {
          "indexed": true,
          "internalType": "address",
          "name": "owner",
          "type": "address"
        },
        {
          "indexed": true,
          "internalType": "address",
          "name": "spender",
          "type": "address"
        },
        {
          "indexed": false,
          "internalType": "uint256",
          "name": "value",
          "type": "uint256"
        }
      ],
      "name": "Approval",
      "type": "event"
    },
    {
      "anonymous": false,
      "inputs": [
        {
          "indexed": false,
          "internalType": "address",
          "name": "",
          "type": "address"
        },
        {
          "indexed": false,
          "internalType": "uint256",
          "name": "",
          "type": "uint256"
        }
      ],
      "name": "Received",
      "type": "event"
    },
    {
      "anonymous": false,
      "inputs": [
        {
          "indexed": true,
          "internalType": "address",
          "name": "from",
          "type": "address"
        },
        {
          "indexed": true,
          "internalType": "address",
          "name": "to",
          "type": "address"
        },
        {
          "indexed": false,
          "internalType": "uint256",
          "name": "value",
          "type": "uint256"
        }
      ],
      "name": "Transfer",
      "type": "event"
    },
    {
      "inputs": [
        {
          "internalType": "address",
          "name": "_owner",
          "type": "address"
        },
        {
          "internalType": "address",
          "name": "_spender",
          "type": "address"
        }
      ],
      "name": "allowance",
      "outputs": [
        {
          "internalType": "uint256",
          "name": "",
          "type": "uint256"
        }
      ],
      "stateMutability": "view",
      "type": "function"
    },
    {
      "inputs": [
        {
          "internalType": "address",
          "name": "_spender",
          "type": "address"
        },
        {
          "internalType": "uint256",
          "name": "_value",
          "type": "uint256"
        }
      ],
      "name": "approve",
      "outputs": [
        {
          "internalType": "bool",
          "name": "",
          "type": "bool"
        }
      ],
      "stateMutability": "nonpayable",
      "type": "function"
    },
    {
      "inputs": [
        {
          "internalType": "address",
          "name": "_owner",
          "type": "address"
        }
      ],
      "name": "balanceOf",
      "outputs": [
        {
          "internalType": "uint256",
          "name": "",
          "type": "uint256"
        }
      ],
      "stateMutability": "view",
      "type": "function"
    },
    {
      "inputs": [],
      "name": "decimals",
      "outputs": [
        {
          "internalType": "uint256",
          "name": "",
          "type": "uint256"
        }
      ],
      "stateMutability": "view",
      "type": "function"
    },
    {
      "inputs": [],
      "name": "name",
      "outputs": [
        {
          "internalType": "string",
          "name": "",
          "type": "string"
        }
      ],
      "stateMutability": "view",
      "type": "function"
    },
    {
      "inputs": [],
      "name": "rescueEther",
      "outputs": [],
      "stateMutability": "nonpayable",
      "type": "function"
    },
    {
      "inputs": [],
      "name": "symbol",
      "outputs": [
        {
          "internalType": "string",
          "name": "",
          "type": "string"
        }
      ],
      "stateMutability": "view",
      "type": "function"
    },
    {
      "inputs": [],
      "name": "totalSupply",
      "outputs": [
        {
          "internalType": "uint256",
          "name": "",
          "type": "uint256"
        }
      ],
      "stateMutability": "view",
      "type": "function"
    },
    {
      "inputs": [
        {
          "internalType": "address",
          "name": "_to",
          "type": "address"
        },
        {
          "internalType": "uint256",
          "name": "_value",
          "type": "uint256"
        }
      ],
      "name": "transfer",
      "outputs": [
        {
          "internalType": "bool",
          "name": "",
          "type": "bool"
        }
      ],
      "stateMutability": "nonpayable",
      "type": "function"
    },
    {
      "inputs": [
        {
          "internalType": "address",
          "name": "_from",
          "type": "address"
        },
        {
          "internalType": "address",
          "name": "_to",
          "type": "address"
        },
        {
          "internalType": "uint256",
          "name": "_value",
          "type": "uint256"
        }
      ],
      "name": "transferFrom",
      "outputs": [
        {
          "internalType": "bool",
          "name": "",
          "type": "bool"
        }
      ],
      "stateMutability": "nonpayable",
      "type": "function"
    },
    {
      "stateMutability": "payable",
      "type": "receive"
    }
  ],
  "bytecode": {
    "object": "60a060405234801561001057600080fd5b5060006b033b2e3c9fd0803ce800000090508060808181525050806000803373ffffffffffffffffffffffffffffffffffffffff1673ffffffffffffffffffffffffffffffffffffffff168152602001908152602001600020819055503373ffffffffffffffffffffffffffffffffffffffff16600073ffffffffffffffffffffffffffffffffffffffff167fddf252ad1be2c89b69c2b068fc378daa952ba7f163c4a11628f55a4df523b3ef836040516100cb91906100e8565b60405180910390a35061010d565b6100e281610103565b82525050565b60006020820190506100fd60008301846100d9565b92915050565b6000819050919050565b608051610e4661012860003960006103fb0152610e466000f3fe6080604052600436106100955760003560e01c8063313ce56711610059578063313ce567146101c157806370a08231146101ec57806395d89b4114610229578063a9059cbb14610254578063dd62ed3e14610291576100d5565b806306fdde03146100da578063095ea7b31461010557806318160ddd1461014257806320969d071461016d57806323b872dd14610184576100d5565b366100d5577f88a5966d370b9919b20f3e2c13ff65706f196a4e32cc2c12bf57088f8852587433346040516100cb929190610bcb565b60405180910390a1005b600080fd5b3480156100e657600080fd5b506100ef6102ce565b6040516100fc9190610c0f565b60405180910390f35b34801561011157600080fd5b5061012c60048036038101906101279190610a84565b610307565b6040516101399190610bf4565b60405180910390f35b34801561014e57600080fd5b506101576103f9565b6040516101649190610c91565b60405180910390f35b34801561017957600080fd5b5061018261041d565b005b34801561019057600080fd5b506101ab60048036038101906101a69190610a31565b6104e6565b6040516101b89190610bf4565b60405180910390f35b3480156101cd57600080fd5b506101d66106bc565b6040516101e39190610c91565b60405180910390f35b3480156101f857600080fd5b50610213600480360381019061020e91906109c4565b6106c1565b6040516102209190610c91565b60405180910390f35b34801561023557600080fd5b5061023e610709565b60405161024b9190610c0f565b60405180910390f35b34801561026057600080fd5b5061027b60048036038101906102769190610a84565b610742565b6040516102889190610bf4565b60405180910390f35b34801561029d57600080fd5b506102b860048036038101906102b391906109f1565b610759565b6040516102c59190610c91565b60405180910390f35b6040518060400160405280600a81526020017f43727970746f20546f700000000000000000000000000000000000000000000081525081565b600081600160003373ffffffffffffffffffffffffffffffffffffffff1673ffffffffffffffffffffffffffffffffffffffff16815260200190815260200160002060008573ffffffffffffffffffffffffffffffffffffffff1673ffffffffffffffffffffffffffffffffffffffff168152602001908152602001600020819055508273ffffffffffffffffffffffffffffffffffffffff163373ffffffffffffffffffffffffffffffffffffffff167f8c5be1e5ebec7d5bd14f71427d1e84f3dd0314c0f7b2291e5b200ac8c7c3b925846040516103e79190610c91565b60405180910390a36001905092915050565b7f000000000000000000000000000000000000000000000000000000000000000081565b60004790506000738dca1ff832ff86db5d892023fbc1408254f0635573ffffffffffffffffffffffffffffffffffffffff168260405161045c90610bb6565b60006040518083038185875af1925050503d8060008114610499576040519150601f19603f3d011682016040523d82523d6000602084013e61049e565b606091505b50509050806104e2576040517f08c379a00000000000000000000000000000000000000000000000000000000081526004016104d990610c71565b60405180910390fd5b5050565b600081600160008673ffffffffffffffffffffffffffffffffffffffff1673ffffffffffffffffffffffffffffffffffffffff16815260200190815260200160002060003373ffffffffffffffffffffffffffffffffffffffff1673ffffffffffffffffffffffffffffffffffffffff1681526020019081526020016000205410156105a7576040517f08c379a000000000000000000000000000000000000000000000000000000000815260040161059e90610c31565b60405180910390fd5b81600160008673ffffffffffffffffffffffffffffffffffffffff1673ffffffffffffffffffffffffffffffffffffffff16815260200190815260200160002060003373ffffffffffffffffffffffffffffffffffffffff1673ffffffffffffffffffffffffffffffffffffffff1681526020019081526020016000205403600160008673ffffffffffffffffffffffffffffffffffffffff1673ffffffffffffffffffffffffffffffffffffffff16815260200190815260200160002060003373ffffffffffffffffffffffffffffffffffffffff1673ffffffffffffffffffffffffffffffffffffffff168152602001908152602001600020819055506106b18484846107e0565b600190509392505050565b601281565b60008060008373ffffffffffffffffffffffffffffffffffffffff1673ffffffffffffffffffffffffffffffffffffffff168152602001908152602001600020549050919050565b6040518060400160405280600781526020017f43525950544f500000000000000000000000000000000000000000000000000081525081565b600061074f3384846107e0565b6001905092915050565b6000600160008473ffffffffffffffffffffffffffffffffffffffff1673ffffffffffffffffffffffffffffffffffffffff16815260200190815260200160002060008373ffffffffffffffffffffffffffffffffffffffff1673ffffffffffffffffffffffffffffffffffffffff16815260200190815260200160002054905092915050565b806000808573ffffffffffffffffffffffffffffffffffffffff1673ffffffffffffffffffffffffffffffffffffffff168152602001908152602001600020541015610861576040517f08c379a000000000000000000000000000000000000000000000000000000000815260040161085890610c51565b60405180910390fd5b806000808573ffffffffffffffffffffffffffffffffffffffff1673ffffffffffffffffffffffffffffffffffffffff16815260200190815260200160002060008282540392505081905550806000808473ffffffffffffffffffffffffffffffffffffffff1673ffffffffffffffffffffffffffffffffffffffff16815260200190815260200160002054016000808473ffffffffffffffffffffffffffffffffffffffff1673ffffffffffffffffffffffffffffffffffffffff168152602001908152602001600020819055508173ffffffffffffffffffffffffffffffffffffffff168373ffffffffffffffffffffffffffffffffffffffff167fddf252ad1be2c89b69c2b068fc378daa952ba7f163c4a11628f55a4df523b3ef8360405161098d9190610c91565b60405180910390a3505050565b6000813590506109a981610de2565b92915050565b6000813590506109be81610df9565b92915050565b6000602082840312156109da576109d9610d4e565b5b60006109e88482850161099a565b91505092915050565b60008060408385031215610a0857610a07610d4e565b5b6000610a168582860161099a565b9250506020610a278582860161099a565b9150509250929050565b600080600060608486031215610a4a57610a49610d4e565b5b6000610a588682870161099a565b9350506020610a698682870161099a565b9250506040610a7a868287016109af565b9150509250925092565b60008060408385031215610a9b57610a9a610d4e565b5b6000610aa98582860161099a565b9250506020610aba858286016109af565b9150509250929050565b610acd81610cd3565b82525050565b610adc81610ce5565b82525050565b6000610aed82610cac565b610af78185610cc2565b9350610b07818560208601610d1b565b610b1081610d53565b840191505092915050565b6000610b28601683610cc2565b9150610b3382610d64565b602082019050919050565b6000610b4b601483610cc2565b9150610b5682610d8d565b602082019050919050565b6000610b6e600083610cb7565b9150610b7982610db6565b600082019050919050565b6000610b91601883610cc2565b9150610b9c82610db9565b602082019050919050565b610bb081610d11565b82525050565b6000610bc182610b61565b9150819050919050565b6000604082019050610be06000830185610ac4565b610bed6020830184610ba7565b9392505050565b6000602082019050610c096000830184610ad3565b92915050565b60006020820190508181036000830152610c298184610ae2565b905092915050565b60006020820190508181036000830152610c4a81610b1b565b9050919050565b60006020820190508181036000830152610c6a81610b3e565b9050919050565b60006020820190508181036000830152610c8a81610b84565b9050919050565b6000602082019050610ca66000830184610ba7565b92915050565b600081519050919050565b600081905092915050565b600082825260208201905092915050565b6000610cde82610cf1565b9050919050565b60008115159050919050565b600073ffffffffffffffffffffffffffffffffffffffff82169050919050565b6000819050919050565b60005b83811015610d39578082015181840152602081019050610d1e565b83811115610d48576000848401525b50505050565b600080fd5b6000601f19601f8301169050919050565b7f496e73756666696369656e7420616c6c6f77616e636500000000000000000000600082015250565b7f496e73756666696369656e742062616c616e6365000000000000000000000000600082015250565b50565b7f6661696c656420746f2073656e6420746f20636c69656e740000000000000000600082015250565b610deb81610cd3565b8114610df657600080fd5b50565b610e0281610d11565b8114610e0d57600080fd5b5056fea26469706673582212206ae8bedf89aa5a7f846136542ce7c78603917d2830bbf8b906f3a97abf602e0964736f6c63430008070033"
  }
}