{"compiler":"v0.8.4+commit.c7e474f2","opcodeHash":"0xcd4d36f56935c2b9e96eee20775cd8b6dd09ff7d8e58138686dbe9cdc126a184","metalessHash":"0x13b70326a559dc39c0456a2e3f3e34e21066b8a93b307cc1ca27e9509dea44f9","runtimeHash":"0xc3d0f15f1512b4b9f211ec9b191d416bcdb3cc348083b14fdfcbe97cfc3c9eb2","encodedMetadata":[{"ipfs":"/ipfs/QmSoaWGQPfL1gpmtYV765YnnoQvVrt1PMtL4K9yZKVzFfv","solc":"0.8.4"}],"abi":[{"inputs":[],"stateMutability":"nonpayable","type":"constructor"},{"anonymous":false,"inputs":[{"indexed":true,"internalType":"address","name":"owner","type":"address"},{"indexed":true,"internalType":"address","name":"spender","type":"address"},{"indexed":false,"internalType":"uint256","name":"value","type":"uint256"}],"name":"Approval","type":"event"},{"anonymous":false,"inputs":[{"indexed":true,"internalType":"address","name":"previousOwner","type":"address"},{"indexed":true,"internalType":"address","name":"newOwner","type":"address"}],"name":"OwnershipTransferred","type":"event"},{"anonymous":false,"inputs":[{"indexed":true,"internalType":"address","name":"from","type":"address"},{"indexed":true,"internalType":"address","name":"to","type":"address"},{"indexed":false,"internalType":"uint256","name":"value","type":"uint256"}],"name":"Transfer","type":"event"},{"inputs":[],"name":"_burnFee","outputs":[{"internalType":"uint256","name":"","type":"uint256"}],"stateMutability":"view","type":"function"},{"inputs":[],"name":"_marketingFee","outputs":[{"internalType":"uint256","name":"","type":"uint256"}],"stateMutability":"view","type":"function"},{"inputs":[],"name":"_maxTxAmount","outputs":[{"internalType":"uint256","name":"","type":"uint256"}],"stateMutability":"view","type":"function"},{"inputs":[],"name":"_taxFee","outputs":[{"internalType":"uint256","name":"","type":"uint256"}],"stateMutability":"view","type":"function"},{"inputs":[{"internalType":"address","name":"owner","type":"address"},{"internalType":"address","name":"spender","type":"address"}],"name":"allowance","outputs":[{"internalType":"uint256","name":"","type":"uint256"}],"stateMutability":"view","type":"function"},{"inputs":[{"internalType":"address","name":"spender","type":"address"},{"internalType":"uint256","name":"amount","type":"uint256"}],"name":"approve","outputs":[{"internalType":"bool","name":"","type":"bool"}],"stateMutability":"nonpayable","type":"function"},{"inputs":[{"internalType":"address","name":"account","type":"address"}],"name":"balanceOf","outputs":[{"internalType":"uint256","name":"","type":"uint256"}],"stateMutability":"view","type":"function"},{"inputs":[],"name":"deadAddress","outputs":[{"internalType":"address","name":"","type":"address"}],"stateMutability":"view","type":"function"},{"inputs":[],"name":"decimals","outputs":[{"internalType":"uint8","name":"","type":"uint8"}],"stateMutability":"view","type":"function"},{"inputs":[{"internalType":"address","name":"spender","type":"address"},{"internalType":"uint256","name":"subtractedValue","type":"uint256"}],"name":"decreaseAllowance","outputs":[{"internalType":"bool","name":"","type":"bool"}],"stateMutability":"nonpayable","type":"function"},{"inputs":[{"internalType":"uint256","name":"tAmount","type":"uint256"}],"name":"deliver","outputs":[],"stateMutability":"nonpayable","type":"function"},{"inputs":[{"internalType":"address","name":"account","type":"address"}],"name":"excludeFromFee","outputs":[],"stateMutability":"nonpayable","type":"function"},{"inputs":[{"internalType":"address","name":"account","type":"address"}],"name":"excludeFromReward","outputs":[],"stateMutability":"nonpayable","type":"function"},{"inputs":[{"internalType":"address","name":"account","type":"address"}],"name":"includeInFee","outputs":[],"stateMutability":"nonpayable","type":"function"},{"inputs":[{"internalType":"address","name":"account","type":"address"}],"name":"includeInReward","outputs":[],"stateMutability":"nonpayable","type":"function"},{"inputs":[{"internalType":"address","name":"spender","type":"address"},{"internalType":"uint256","name":"addedValue","type":"uint256"}],"name":"increaseAllowance","outputs":[{"internalType":"bool","name":"","type":"bool"}],"stateMutability":"nonpayable","type":"function"},{"inputs":[{"internalType":"address","name":"account","type":"address"}],"name":"isExcludedFromFee","outputs":[{"internalType":"bool","name":"","type":"bool"}],"stateMutability":"view","type":"function"},{"inputs":[{"internalType":"address","name":"account","type":"address"}],"name":"isExcludedFromReward","outputs":[{"internalType":"bool","name":"","type":"bool"}],"stateMutability":"view","type":"function"},{"inputs":[],"name":"marketingAddress","outputs":[{"internalType":"address","name":"","type":"address"}],"stateMutability":"view","type":"function"},{"inputs":[],"name":"name","outputs":[{"internalType":"string","name":"","type":"string"}],"stateMutability":"view","type":"function"},{"inputs":[],"name":"owner","outputs":[{"internalType":"address","name":"","type":"address"}],"stateMutability":"view","type":"function"},{"inputs":[{"internalType":"uint256","name":"tAmount","type":"uint256"},{"internalType":"bool","name":"deductTransferFee","type":"bool"}],"name":"reflectionFromToken","outputs":[{"internalType":"uint256","name":"","type":"uint256"}],"stateMutability":"view","type":"function"},{"inputs":[],"name":"renounceOwnership","outputs":[],"stateMutability":"nonpayable","type":"function"},{"inputs":[{"internalType":"uint256","name":"burnFee","type":"uint256"}],"name":"setBurnFee","outputs":[],"stateMutability":"nonpayable","type":"function"},{"inputs":[{"internalType":"address","name":"_marketingAddress","type":"address"}],"name":"setMarketingAddress","outputs":[],"stateMutability":"nonpayable","type":"function"},{"inputs":[{"internalType":"uint256","name":"maxTxAmount","type":"uint256"}],"name":"setMaxTxAmount","outputs":[],"stateMutability":"nonpayable","type":"function"},{"inputs":[{"internalType":"uint256","name":"taxFee","type":"uint256"}],"name":"setTaxFeePercent","outputs":[],"stateMutability":"nonpayable","type":"function"},{"inputs":[],"name":"symbol","outputs":[{"internalType":"string","name":"","type":"string"}],"stateMutability":"view","type":"function"},{"inputs":[{"internalType":"uint256","name":"rAmount","type":"uint256"}],"name":"tokenFromReflection","outputs":[{"internalType":"uint256","name":"","type":"uint256"}],"stateMutability":"view","type":"function"},{"inputs":[],"name":"totalFees","outputs":[{"internalType":"uint256","name":"","type":"uint256"}],"stateMutability":"view","type":"function"},{"inputs":[],"name":"totalSupply","outputs":[{"internalType":"uint256","name":"","type":"uint256"}],"stateMutability":"view","type":"function"},{"inputs":[{"internalType":"address","name":"recipient","type":"address"},{"internalType":"uint256","name":"amount","type":"uint256"}],"name":"transfer","outputs":[{"internalType":"bool","name":"","type":"bool"}],"stateMutability":"nonpayable","type":"function"},{"inputs":[{"internalType":"address","name":"sender","type":"address"},{"internalType":"address","name":"recipient","type":"address"},{"internalType":"uint256","name":"amount","type":"uint256"}],"name":"transferFrom","outputs":[{"internalType":"bool","name":"","type":"bool"}],"stateMutability":"nonpayable","type":"function"},{"inputs":[{"internalType":"address","name":"newOwner","type":"address"}],"name":"transferOwnership","outputs":[],"stateMutability":"nonpayable","type":"function"}],"bytecode":{"object":"60a060405273e084fa87fa39b6decc715f81d2d53b5d8aab4fb0600360006101000a81548173ffffffffffffffffffffffffffffffffffffffff021916908373ffffffffffffffffffffffffffffffffffffffff16021790555061dead73ffffffffffffffffffffffffffffffffffffffff1660809073ffffffffffffffffffffffffffffffffffffffff1660601b81525069d3c21bcecceda1000000600a55600a54600019620000b19190620005fe565b600019620000c0919062000583565b600b556040518060400160405280600681526020017f5368656c6f6e0000000000000000000000000000000000000000000000000000815250600d908051906020019062000110929190620004a5565b506040518060400160405280600481526020017f53484c4e00000000000000000000000000000000000000000000000000000000815250600e90805190602001906200015e929190620004a5565b506009600f60006101000a81548160ff021916908360ff16021790555060026010556010546011556001601255601254601355600360145560145460155568a2a15d09519be00000601655348015620001b657600080fd5b506000620001c96200047460201b60201c565b9050806000806101000a81548173ffffffffffffffffffffffffffffffffffffffff021916908373ffffffffffffffffffffffffffffffffffffffff1602179055508073ffffffffffffffffffffffffffffffffffffffff16600073ffffffffffffffffffffffffffffffffffffffff167f8be0079c531659141344cd1fd0a4f28419497f9722a3daafe3b4186f6b6457e060405160405180910390a350600b54600460006200027e6200047460201b60201c565b73ffffffffffffffffffffffffffffffffffffffff1673ffffffffffffffffffffffffffffffffffffffff16815260200190815260200160002081905550600160076000620002d26200047c60201b60201c565b73ffffffffffffffffffffffffffffffffffffffff1673ffffffffffffffffffffffffffffffffffffffff16815260200190815260200160002060006101000a81548160ff021916908315150217905550600160076000600360009054906101000a900473ffffffffffffffffffffffffffffffffffffffff1673ffffffffffffffffffffffffffffffffffffffff1673ffffffffffffffffffffffffffffffffffffffff16815260200190815260200160002060006101000a81548160ff0219169083151502179055506001600760003073ffffffffffffffffffffffffffffffffffffffff1673ffffffffffffffffffffffffffffffffffffffff16815260200190815260200160002060006101000a81548160ff021916908315150217905550620004056200047460201b60201c565b73ffffffffffffffffffffffffffffffffffffffff16600073ffffffffffffffffffffffffffffffffffffffff167fddf252ad1be2c89b69c2b068fc378daa952ba7f163c4a11628f55a4df523b3ef600a5460405162000466919062000566565b60405180910390a3620006c3565b600033905090565b60008060009054906101000a900473ffffffffffffffffffffffffffffffffffffffff16905090565b828054620004b390620005c8565b90600052602060002090601f016020900481019282620004d7576000855562000523565b82601f10620004f257805160ff191683800117855562000523565b8280016001018555821562000523579182015b828111156200052257825182559160200191906001019062000505565b5b50905062000532919062000536565b5090565b5b808211156200055157600081600090555060010162000537565b5090565b6200056081620005be565b82525050565b60006020820190506200057d600083018462000555565b92915050565b60006200059082620005be565b91506200059d83620005be565b925082821015620005b357620005b262000636565b5b828203905092915050565b6000819050919050565b60006002820490506001821680620005e157607f821691505b60208210811415620005f857620005f762000694565b5b50919050565b60006200060b82620005be565b91506200061883620005be565b9250826200062b576200062a62000665565b5b828206905092915050565b7f4e487b7100000000000000000000000000000000000000000000000000000000600052601160045260246000fd5b7f4e487b7100000000000000000000000000000000000000000000000000000000600052601260045260246000fd5b7f4e487b7100000000000000000000000000000000000000000000000000000000600052602260045260246000fd5b60805160601c6146c1620006e260003960006108e901526146c16000f3fe608060405234801561001057600080fd5b50600436106102065760003560e01c806352390c021161011a57806395d89b41116100ad578063c0b0fda21161007c578063c0b0fda214610603578063dd62ed3e14610621578063ea2f0b3714610651578063ec28438a1461066d578063f2fde38b1461068957610206565b806395d89b4114610567578063a457c2d714610585578063a5ece941146105b5578063a9059cbb146105d357610206565b80637d1db4a5116100e95780637d1db4a5146104df57806388f82020146104fd5780638da5cb5b1461052d578063906e9dd01461054b57610206565b806352390c02146104595780635342acb41461047557806370a08231146104a5578063715018a6146104d557610206565b80632d8381191161019d5780633b124fe71161016c5780633b124fe7146103b75780633bd5d173146103d5578063437823ec146103f15780634549b0391461040d5780634bf2c7c91461043d57610206565b80632d8381191461031d578063313ce5671461034d5780633685d4191461036b578063395093511461038757610206565b806318160ddd116101d957806318160ddd1461029357806322976e0d146102b157806323b872dd146102cf57806327c8f835146102ff57610206565b8063061c82d01461020b57806306fdde0314610227578063095ea7b31461024557806313114a9d14610275575b600080fd5b61022560048036038101906102209190613a5b565b6106a5565b005b61022f610744565b60405161023c9190613d55565b60405180910390f35b61025f600480360381019061025a9190613a1f565b6107d6565b60405161026c9190613d3a565b60405180910390f35b61027d6107f4565b60405161028a9190613f37565b60405180910390f35b61029b6107fe565b6040516102a89190613f37565b60405180910390f35b6102b9610808565b6040516102c69190613f37565b60405180910390f35b6102e960048036038101906102e491906139d0565b61080e565b6040516102f69190613d3a565b60405180910390f35b6103076108e7565b6040516103149190613d1f565b60405180910390f35b61033760048036038101906103329190613a5b565b61090b565b6040516103449190613f37565b60405180910390f35b610355610979565b6040516103629190613f52565b60405180910390f35b6103856004803603810190610380919061396b565b610990565b005b6103a1600480360381019061039c9190613a1f565b610d77565b6040516103ae9190613d3a565b60405180910390f35b6103bf610e2a565b6040516103cc9190613f37565b60405180910390f35b6103ef60048036038101906103ea9190613a5b565b610e30565b005b61040b6004803603810190610406919061396b565b610fab565b005b61042760048036038101906104229190613a84565b61109b565b6040516104349190613f37565b60405180910390f35b61045760048036038101906104529190613a5b565b61111f565b005b610473600480360381019061046e919061396b565b6111be565b005b61048f600480360381019061048a919061396b565b611472565b60405161049c9190613d3a565b60405180910390f35b6104bf60048036038101906104ba919061396b565b6114c8565b6040516104cc9190613f37565b60405180910390f35b6104dd6115b3565b005b6104e7611706565b6040516104f49190613f37565b60405180910390f35b6105176004803603810190610512919061396b565b61170c565b6040516105249190613d3a565b60405180910390f35b610535611762565b6040516105429190613d1f565b60405180910390f35b6105656004803603810190610560919061396b565b61178b565b005b61056f611864565b60405161057c9190613d55565b60405180910390f35b61059f600480360381019061059a9190613a1f565b6118f6565b6040516105ac9190613d3a565b60405180910390f35b6105bd6119c3565b6040516105ca9190613d1f565b60405180910390f35b6105ed60048036038101906105e89190613a1f565b6119e9565b6040516105fa9190613d3a565b60405180910390f35b61060b611a07565b6040516106189190613f37565b60405180910390f35b61063b60048036038101906106369190613994565b611a0d565b6040516106489190613f37565b60405180910390f35b61066b6004803603810190610666919061396b565b611a94565b005b61068760048036038101906106829190613a5b565b611b84565b005b6106a3600480360381019061069e919061396b565b611c23565b005b6106ad611de5565b73ffffffffffffffffffffffffffffffffffffffff1660008054906101000a900473ffffffffffffffffffffffffffffffffffffffff1673ffffffffffffffffffffffffffffffffffffffff161461073a576040517f08c379a000000000000000000000000000000000000000000000000000000000815260040161073190613e97565b60405180910390fd5b8060108190555050565b6060600d805461075390614126565b80601f016020809104026020016040519081016040528092919081815260200182805461077f90614126565b80156107cc5780601f106107a1576101008083540402835291602001916107cc565b820191906000526020600020905b8154815290600101906020018083116107af57829003601f168201915b5050505050905090565b60006107ea6107e3611de5565b8484611ded565b6001905092915050565b6000600c54905090565b6000600a54905090565b60125481565b600061081b848484611fb8565b6108dc84610827611de5565b6108d78560405180606001604052806028815260200161463f60289139600660008b73ffffffffffffffffffffffffffffffffffffffff1673ffffffffffffffffffffffffffffffffffffffff168152602001908152602001600020600061088d611de5565b73ffffffffffffffffffffffffffffffffffffffff1673ffffffffffffffffffffffffffffffffffffffff1681526020019081526020016000205461225f9092919063ffffffff16565b611ded565b600190509392505050565b7f000000000000000000000000000000000000000000000000000000000000000081565b6000600b54821115610952576040517f08c379a000000000000000000000000000000000000000000000000000000000815260040161094990613d97565b60405180910390fd5b600061095c6122c3565b905061097181846122ee90919063ffffffff16565b915050919050565b6000600f60009054906101000a900460ff16905090565b610998611de5565b73ffffffffffffffffffffffffffffffffffffffff1660008054906101000a900473ffffffffffffffffffffffffffffffffffffffff1673ffffffffffffffffffffffffffffffffffffffff1614610a25576040517f08c379a0000000000000000000000000000000000000000000000000000000008152600401610a1c90613e97565b60405180910390fd5b600860008273ffffffffffffffffffffffffffffffffffffffff1673ffffffffffffffffffffffffffffffffffffffff16815260200190815260200160002060009054906101000a900460ff16610ab1576040517f08c379a0000000000000000000000000000000000000000000000000000000008152600401610aa890613e17565b60405180910390fd5b60005b600980549050811015610d73578173ffffffffffffffffffffffffffffffffffffffff1660098281548110610b12577f4e487b7100000000000000000000000000000000000000000000000000000000600052603260045260246000fd5b9060005260206000200160009054906101000a900473ffffffffffffffffffffffffffffffffffffffff1673ffffffffffffffffffffffffffffffffffffffff161415610d605760096001600980549050610b6d919061406a565b81548110610ba4577f4e487b7100000000000000000000000000000000000000000000000000000000600052603260045260246000fd5b9060005260206000200160009054906101000a900473ffffffffffffffffffffffffffffffffffffffff1660098281548110610c09577f4e487b7100000000000000000000000000000000000000000000000000000000600052603260045260246000fd5b9060005260206000200160006101000a81548173ffffffffffffffffffffffffffffffffffffffff021916908373ffffffffffffffffffffffffffffffffffffffff1602179055506000600560008473ffffffffffffffffffffffffffffffffffffffff1673ffffffffffffffffffffffffffffffffffffffff168152602001908152602001600020819055506000600860008473ffffffffffffffffffffffffffffffffffffffff1673ffffffffffffffffffffffffffffffffffffffff16815260200190815260200160002060006101000a81548160ff0219169083151502179055506009805480610d26577f4e487b7100000000000000000000000000000000000000000000000000000000600052603160045260246000fd5b6001900381819060005260206000200160006101000a81549073ffffffffffffffffffffffffffffffffffffffff02191690559055610d73565b8080610d6b90614158565b915050610ab4565b5050565b6000610e20610d84611de5565b84610e1b8560066000610d95611de5565b73ffffffffffffffffffffffffffffffffffffffff1673ffffffffffffffffffffffffffffffffffffffff16815260200190815260200160002060008973ffffffffffffffffffffffffffffffffffffffff1673ffffffffffffffffffffffffffffffffffffffff1681526020019081526020016000205461233890919063ffffffff16565b611ded565b6001905092915050565b60105481565b6000610e3a611de5565b9050600860008273ffffffffffffffffffffffffffffffffffffffff1673ffffffffffffffffffffffffffffffffffffffff16815260200190815260200160002060009054906101000a900460ff1615610ec9576040517f08c379a0000000000000000000000000000000000000000000000000000000008152600401610ec090613f17565b60405180910390fd5b6000610ed483612396565b50505050509050610f2d81600460008573ffffffffffffffffffffffffffffffffffffffff1673ffffffffffffffffffffffffffffffffffffffff168152602001908152602001600020546123f290919063ffffffff16565b600460008473ffffffffffffffffffffffffffffffffffffffff1673ffffffffffffffffffffffffffffffffffffffff16815260200190815260200160002081905550610f8581600b546123f290919063ffffffff16565b600b81905550610fa083600c5461233890919063ffffffff16565b600c81905550505050565b610fb3611de5565b73ffffffffffffffffffffffffffffffffffffffff1660008054906101000a900473ffffffffffffffffffffffffffffffffffffffff1673ffffffffffffffffffffffffffffffffffffffff1614611040576040517f08c379a000000000000000000000000000000000000000000000000000000000815260040161103790613e97565b60405180910390fd5b6001600760008373ffffffffffffffffffffffffffffffffffffffff1673ffffffffffffffffffffffffffffffffffffffff16815260200190815260200160002060006101000a81548160ff02191690831515021790555050565b6000600a548311156110e2576040517f08c379a00000000000000000000000000000000000000000000000000000000081526004016110d990613e37565b60405180910390fd5b816111025760006110f284612396565b5050505050905080915050611119565b600061110d84612396565b50505050915050809150505b92915050565b611127611de5565b73ffffffffffffffffffffffffffffffffffffffff1660008054906101000a900473ffffffffffffffffffffffffffffffffffffffff1673ffffffffffffffffffffffffffffffffffffffff16146111b4576040517f08c379a00000000000000000000000000000000000000000000000000000000081526004016111ab90613e97565b60405180910390fd5b8060148190555050565b6111c6611de5565b73ffffffffffffffffffffffffffffffffffffffff1660008054906101000a900473ffffffffffffffffffffffffffffffffffffffff1673ffffffffffffffffffffffffffffffffffffffff1614611253576040517f08c379a000000000000000000000000000000000000000000000000000000000815260040161124a90613e97565b60405180910390fd5b600860008273ffffffffffffffffffffffffffffffffffffffff1673ffffffffffffffffffffffffffffffffffffffff16815260200190815260200160002060009054906101000a900460ff16156112e0576040517f08c379a00000000000000000000000000000000000000000000000000000000081526004016112d790613e17565b60405180910390fd5b6000600460008373ffffffffffffffffffffffffffffffffffffffff1673ffffffffffffffffffffffffffffffffffffffff1681526020019081526020016000205411156113b457611370600460008373ffffffffffffffffffffffffffffffffffffffff1673ffffffffffffffffffffffffffffffffffffffff1681526020019081526020016000205461090b565b600560008373ffffffffffffffffffffffffffffffffffffffff1673ffffffffffffffffffffffffffffffffffffffff168152602001908152602001600020819055505b6001600860008373ffffffffffffffffffffffffffffffffffffffff1673ffffffffffffffffffffffffffffffffffffffff16815260200190815260200160002060006101000a81548160ff0219169083151502179055506009819080600181540180825580915050600190039060005260206000200160009091909190916101000a81548173ffffffffffffffffffffffffffffffffffffffff021916908373ffffffffffffffffffffffffffffffffffffffff16021790555050565b6000600760008373ffffffffffffffffffffffffffffffffffffffff1673ffffffffffffffffffffffffffffffffffffffff16815260200190815260200160002060009054906101000a900460ff169050919050565b6000600860008373ffffffffffffffffffffffffffffffffffffffff1673ffffffffffffffffffffffffffffffffffffffff16815260200190815260200160002060009054906101000a900460ff161561156357600560008373ffffffffffffffffffffffffffffffffffffffff1673ffffffffffffffffffffffffffffffffffffffff1681526020019081526020016000205490506115ae565b6115ab600460008473ffffffffffffffffffffffffffffffffffffffff1673ffffffffffffffffffffffffffffffffffffffff1681526020019081526020016000205461090b565b90505b919050565b6115bb611de5565b73ffffffffffffffffffffffffffffffffffffffff1660008054906101000a900473ffffffffffffffffffffffffffffffffffffffff1673ffffffffffffffffffffffffffffffffffffffff1614611648576040517f08c379a000000000000000000000000000000000000000000000000000000000815260040161163f90613e97565b60405180910390fd5b600073ffffffffffffffffffffffffffffffffffffffff1660008054906101000a900473ffffffffffffffffffffffffffffffffffffffff1673ffffffffffffffffffffffffffffffffffffffff167f8be0079c531659141344cd1fd0a4f28419497f9722a3daafe3b4186f6b6457e060405160405180910390a360008060006101000a81548173ffffffffffffffffffffffffffffffffffffffff021916908373ffffffffffffffffffffffffffffffffffffffff160217905550565b60165481565b6000600860008373ffffffffffffffffffffffffffffffffffffffff1673ffffffffffffffffffffffffffffffffffffffff16815260200190815260200160002060009054906101000a900460ff169050919050565b60008060009054906101000a900473ffffffffffffffffffffffffffffffffffffffff16905090565b611793611de5565b73ffffffffffffffffffffffffffffffffffffffff1660008054906101000a900473ffffffffffffffffffffffffffffffffffffffff1673ffffffffffffffffffffffffffffffffffffffff1614611820576040517f08c379a000000000000000000000000000000000000000000000000000000000815260040161181790613e97565b60405180910390fd5b80600360006101000a81548173ffffffffffffffffffffffffffffffffffffffff021916908373ffffffffffffffffffffffffffffffffffffffff16021790555050565b6060600e805461187390614126565b80601f016020809104026020016040519081016040528092919081815260200182805461189f90614126565b80156118ec5780601f106118c1576101008083540402835291602001916118ec565b820191906000526020600020905b8154815290600101906020018083116118cf57829003601f168201915b5050505050905090565b60006119b9611903611de5565b846119b485604051806060016040528060258152602001614667602591396006600061192d611de5565b73ffffffffffffffffffffffffffffffffffffffff1673ffffffffffffffffffffffffffffffffffffffff16815260200190815260200160002060008a73ffffffffffffffffffffffffffffffffffffffff1673ffffffffffffffffffffffffffffffffffffffff1681526020019081526020016000205461225f9092919063ffffffff16565b611ded565b6001905092915050565b600360009054906101000a900473ffffffffffffffffffffffffffffffffffffffff1681565b60006119fd6119f6611de5565b8484611fb8565b6001905092915050565b60145481565b6000600660008473ffffffffffffffffffffffffffffffffffffffff1673ffffffffffffffffffffffffffffffffffffffff16815260200190815260200160002060008373ffffffffffffffffffffffffffffffffffffffff1673ffffffffffffffffffffffffffffffffffffffff16815260200190815260200160002054905092915050565b611a9c611de5565b73ffffffffffffffffffffffffffffffffffffffff1660008054906101000a900473ffffffffffffffffffffffffffffffffffffffff1673ffffffffffffffffffffffffffffffffffffffff1614611b29576040517f08c379a0000000000000000000000000000000000000000000000000000000008152600401611b2090613e97565b60405180910390fd5b6000600760008373ffffffffffffffffffffffffffffffffffffffff1673ffffffffffffffffffffffffffffffffffffffff16815260200190815260200160002060006101000a81548160ff02191690831515021790555050565b611b8c611de5565b73ffffffffffffffffffffffffffffffffffffffff1660008054906101000a900473ffffffffffffffffffffffffffffffffffffffff1673ffffffffffffffffffffffffffffffffffffffff1614611c19576040517f08c379a0000000000000000000000000000000000000000000000000000000008152600401611c1090613e97565b60405180910390fd5b8060168190555050565b611c2b611de5565b73ffffffffffffffffffffffffffffffffffffffff1660008054906101000a900473ffffffffffffffffffffffffffffffffffffffff1673ffffffffffffffffffffffffffffffffffffffff1614611cb8576040517f08c379a0000000000000000000000000000000000000000000000000000000008152600401611caf90613e97565b60405180910390fd5b600073ffffffffffffffffffffffffffffffffffffffff168173ffffffffffffffffffffffffffffffffffffffff161415611d28576040517f08c379a0000000000000000000000000000000000000000000000000000000008152600401611d1f90613db7565b60405180910390fd5b8073ffffffffffffffffffffffffffffffffffffffff1660008054906101000a900473ffffffffffffffffffffffffffffffffffffffff1673ffffffffffffffffffffffffffffffffffffffff167f8be0079c531659141344cd1fd0a4f28419497f9722a3daafe3b4186f6b6457e060405160405180910390a3806000806101000a81548173ffffffffffffffffffffffffffffffffffffffff021916908373ffffffffffffffffffffffffffffffffffffffff16021790555050565b600033905090565b600073ffffffffffffffffffffffffffffffffffffffff168373ffffffffffffffffffffffffffffffffffffffff161415611e5d576040517f08c379a0000000000000000000000000000000000000000000000000000000008152600401611e5490613ef7565b60405180910390fd5b600073ffffffffffffffffffffffffffffffffffffffff168273ffffffffffffffffffffffffffffffffffffffff161415611ecd576040517f08c379a0000000000000000000000000000000000000000000000000000000008152600401611ec490613dd7565b60405180910390fd5b80600660008573ffffffffffffffffffffffffffffffffffffffff1673ffffffffffffffffffffffffffffffffffffffff16815260200190815260200160002060008473ffffffffffffffffffffffffffffffffffffffff1673ffffffffffffffffffffffffffffffffffffffff168152602001908152602001600020819055508173ffffffffffffffffffffffffffffffffffffffff168373ffffffffffffffffffffffffffffffffffffffff167f8c5be1e5ebec7d5bd14f71427d1e84f3dd0314c0f7b2291e5b200ac8c7c3b92583604051611fab9190613f37565b60405180910390a3505050565b600073ffffffffffffffffffffffffffffffffffffffff168373ffffffffffffffffffffffffffffffffffffffff161415612028576040517f08c379a000000000000000000000000000000000000000000000000000000000815260040161201f90613ed7565b60405180910390fd5b600073ffffffffffffffffffffffffffffffffffffffff168273ffffffffffffffffffffffffffffffffffffffff161415612098576040517f08c379a000000000000000000000000000000000000000000000000000000000815260040161208f90613d77565b60405180910390fd5b600081116120db576040517f08c379a00000000000000000000000000000000000000000000000000000000081526004016120d290613eb7565b60405180910390fd5b6120e3611762565b73ffffffffffffffffffffffffffffffffffffffff168373ffffffffffffffffffffffffffffffffffffffff16141580156121515750612121611762565b73ffffffffffffffffffffffffffffffffffffffff168273ffffffffffffffffffffffffffffffffffffffff1614155b1561219c5760165481111561219b576040517f08c379a000000000000000000000000000000000000000000000000000000000815260040161219290613e57565b60405180910390fd5b5b600060019050600760008573ffffffffffffffffffffffffffffffffffffffff1673ffffffffffffffffffffffffffffffffffffffff16815260200190815260200160002060009054906101000a900460ff16806122435750600760008473ffffffffffffffffffffffffffffffffffffffff1673ffffffffffffffffffffffffffffffffffffffff16815260200190815260200160002060009054906101000a900460ff165b1561224d57600090505b6122598484848461243c565b50505050565b60008383111582906122a7576040517f08c379a000000000000000000000000000000000000000000000000000000000815260040161229e9190613d55565b60405180910390fd5b50600083856122b6919061406a565b9050809150509392505050565b60008060006122d0612736565b915091506122e781836122ee90919063ffffffff16565b9250505090565b600061233083836040518060400160405280601a81526020017f536166654d6174683a206469766973696f6e206279207a65726f000000000000815250612a81565b905092915050565b60008082846123479190613f89565b90508381101561238c576040517f08c379a000000000000000000000000000000000000000000000000000000000815260040161238390613df7565b60405180910390fd5b8091505092915050565b60008060008060008060008060006123ad8a612ae4565b92509250925060008060006123cb8d86866123c66122c3565b612b3e565b9250925092508282828888889b509b509b509b509b509b5050505050505091939550919395565b600061243483836040518060400160405280601e81526020017f536166654d6174683a207375627472616374696f6e206f766572666c6f77000081525061225f565b905092915050565b8061244a57612449612bc7565b5b6000612474606461246660145486612c2990919063ffffffff16565b6122ee90919063ffffffff16565b9050600860008673ffffffffffffffffffffffffffffffffffffffff1673ffffffffffffffffffffffffffffffffffffffff16815260200190815260200160002060009054906101000a900460ff1680156125195750600860008573ffffffffffffffffffffffffffffffffffffffff1673ffffffffffffffffffffffffffffffffffffffff16815260200190815260200160002060009054906101000a900460ff16155b156125405761253b858561253684876123f290919063ffffffff16565b612ca4565b6126f3565b600860008673ffffffffffffffffffffffffffffffffffffffff1673ffffffffffffffffffffffffffffffffffffffff16815260200190815260200160002060009054906101000a900460ff161580156125e35750600860008573ffffffffffffffffffffffffffffffffffffffff1673ffffffffffffffffffffffffffffffffffffffff16815260200190815260200160002060009054906101000a900460ff165b1561260a57612605858561260084876123f290919063ffffffff16565b612f04565b6126f2565b600860008673ffffffffffffffffffffffffffffffffffffffff1673ffffffffffffffffffffffffffffffffffffffff16815260200190815260200160002060009054906101000a900460ff1680156126ac5750600860008573ffffffffffffffffffffffffffffffffffffffff1673ffffffffffffffffffffffffffffffffffffffff16815260200190815260200160002060009054906101000a900460ff165b156126d3576126ce85856126c984876123f290919063ffffffff16565b613164565b6126f1565b6126f085856126eb84876123f290919063ffffffff16565b613459565b5b5b5b6000601081905550600060128190555061270f85600083613459565b6011546010819055506013546012819055508161272f5761272e613624565b5b5050505050565b6000806000600b5490506000600a54905060005b600980549050811015612a4457826004600060098481548110612796577f4e487b7100000000000000000000000000000000000000000000000000000000600052603260045260246000fd5b9060005260206000200160009054906101000a900473ffffffffffffffffffffffffffffffffffffffff1673ffffffffffffffffffffffffffffffffffffffff1673ffffffffffffffffffffffffffffffffffffffff1681526020019081526020016000205411806128aa5750816005600060098481548110612842577f4e487b7100000000000000000000000000000000000000000000000000000000600052603260045260246000fd5b9060005260206000200160009054906101000a900473ffffffffffffffffffffffffffffffffffffffff1673ffffffffffffffffffffffffffffffffffffffff1673ffffffffffffffffffffffffffffffffffffffff16815260200190815260200160002054115b156128c157600b54600a5494509450505050612a7d565b6129776004600060098481548110612902577f4e487b7100000000000000000000000000000000000000000000000000000000600052603260045260246000fd5b9060005260206000200160009054906101000a900473ffffffffffffffffffffffffffffffffffffffff1673ffffffffffffffffffffffffffffffffffffffff1673ffffffffffffffffffffffffffffffffffffffff16815260200190815260200160002054846123f290919063ffffffff16565b9250612a2f60056000600984815481106129ba577f4e487b7100000000000000000000000000000000000000000000000000000000600052603260045260246000fd5b9060005260206000200160009054906101000a900473ffffffffffffffffffffffffffffffffffffffff1673ffffffffffffffffffffffffffffffffffffffff1673ffffffffffffffffffffffffffffffffffffffff16815260200190815260200160002054836123f290919063ffffffff16565b91508080612a3c90614158565b91505061274a565b50612a5c600a54600b546122ee90919063ffffffff16565b821015612a7457600b54600a54935093505050612a7d565b81819350935050505b9091565b60008083118290612ac8576040517f08c379a0000000000000000000000000000000000000000000000000000000008152600401612abf9190613d55565b60405180910390fd5b5060008385612ad79190613fdf565b9050809150509392505050565b600080600080612af385613641565b90506000612b0086613672565b90506000612b2982612b1b858a6123f290919063ffffffff16565b6123f290919063ffffffff16565b90508083839550955095505050509193909250565b600080600080612b578589612c2990919063ffffffff16565b90506000612b6e8689612c2990919063ffffffff16565b90506000612b858789612c2990919063ffffffff16565b90506000612bae82612ba085876123f290919063ffffffff16565b6123f290919063ffffffff16565b9050838184965096509650505050509450945094915050565b6000601054148015612bdb57506000601254145b8015612be957506000601454145b15612bf357612c27565b6010546011819055506012546013819055506014546015819055506000601081905550600060128190555060006014819055505b565b600080831415612c3c5760009050612c9e565b60008284612c4a9190614010565b9050828482612c599190613fdf565b14612c99576040517f08c379a0000000000000000000000000000000000000000000000000000000008152600401612c9090613e77565b60405180910390fd5b809150505b92915050565b600080600080600080612cb687612396565b955095509550955095509550612d1487600560008c73ffffffffffffffffffffffffffffffffffffffff1673ffffffffffffffffffffffffffffffffffffffff168152602001908152602001600020546123f290919063ffffffff16565b600560008b73ffffffffffffffffffffffffffffffffffffffff1673ffffffffffffffffffffffffffffffffffffffff16815260200190815260200160002081905550612da986600460008c73ffffffffffffffffffffffffffffffffffffffff1673ffffffffffffffffffffffffffffffffffffffff168152602001908152602001600020546123f290919063ffffffff16565b600460008b73ffffffffffffffffffffffffffffffffffffffff1673ffffffffffffffffffffffffffffffffffffffff16815260200190815260200160002081905550612e3e85600460008b73ffffffffffffffffffffffffffffffffffffffff1673ffffffffffffffffffffffffffffffffffffffff1681526020019081526020016000205461233890919063ffffffff16565b600460008a73ffffffffffffffffffffffffffffffffffffffff1673ffffffffffffffffffffffffffffffffffffffff16815260200190815260200160002081905550612e8a816136a3565b612e9484836138f2565b8773ffffffffffffffffffffffffffffffffffffffff168973ffffffffffffffffffffffffffffffffffffffff167fddf252ad1be2c89b69c2b068fc378daa952ba7f163c4a11628f55a4df523b3ef85604051612ef19190613f37565b60405180910390a3505050505050505050565b600080600080600080612f1687612396565b955095509550955095509550612f7486600460008c73ffffffffffffffffffffffffffffffffffffffff1673ffffffffffffffffffffffffffffffffffffffff168152602001908152602001600020546123f290919063ffffffff16565b600460008b73ffffffffffffffffffffffffffffffffffffffff1673ffffffffffffffffffffffffffffffffffffffff1681526020019081526020016000208190555061300983600560008b73ffffffffffffffffffffffffffffffffffffffff1673ffffffffffffffffffffffffffffffffffffffff1681526020019081526020016000205461233890919063ffffffff16565b600560008a73ffffffffffffffffffffffffffffffffffffffff1673ffffffffffffffffffffffffffffffffffffffff1681526020019081526020016000208190555061309e85600460008b73ffffffffffffffffffffffffffffffffffffffff1673ffffffffffffffffffffffffffffffffffffffff1681526020019081526020016000205461233890919063ffffffff16565b600460008a73ffffffffffffffffffffffffffffffffffffffff1673ffffffffffffffffffffffffffffffffffffffff168152602001908152602001600020819055506130ea816136a3565b6130f484836138f2565b8773ffffffffffffffffffffffffffffffffffffffff168973ffffffffffffffffffffffffffffffffffffffff167fddf252ad1be2c89b69c2b068fc378daa952ba7f163c4a11628f55a4df523b3ef856040516131519190613f37565b60405180910390a3505050505050505050565b60008060008060008061317687612396565b9550955095509550955095506131d487600560008c73ffffffffffffffffffffffffffffffffffffffff1673ffffffffffffffffffffffffffffffffffffffff168152602001908152602001600020546123f290919063ffffffff16565b600560008b73ffffffffffffffffffffffffffffffffffffffff1673ffffffffffffffffffffffffffffffffffffffff1681526020019081526020016000208190555061326986600460008c73ffffffffffffffffffffffffffffffffffffffff1673ffffffffffffffffffffffffffffffffffffffff168152602001908152602001600020546123f290919063ffffffff16565b600460008b73ffffffffffffffffffffffffffffffffffffffff1673ffffffffffffffffffffffffffffffffffffffff168152602001908152602001600020819055506132fe83600560008b73ffffffffffffffffffffffffffffffffffffffff1673ffffffffffffffffffffffffffffffffffffffff1681526020019081526020016000205461233890919063ffffffff16565b600560008a73ffffffffffffffffffffffffffffffffffffffff1673ffffffffffffffffffffffffffffffffffffffff1681526020019081526020016000208190555061339385600460008b73ffffffffffffffffffffffffffffffffffffffff1673ffffffffffffffffffffffffffffffffffffffff1681526020019081526020016000205461233890919063ffffffff16565b600460008a73ffffffffffffffffffffffffffffffffffffffff1673ffffffffffffffffffffffffffffffffffffffff168152602001908152602001600020819055506133df816136a3565b6133e984836138f2565b8773ffffffffffffffffffffffffffffffffffffffff168973ffffffffffffffffffffffffffffffffffffffff167fddf252ad1be2c89b69c2b068fc378daa952ba7f163c4a11628f55a4df523b3ef856040516134469190613f37565b60405180910390a3505050505050505050565b60008060008060008061346b87612396565b9550955095509550955095506134c986600460008c73ffffffffffffffffffffffffffffffffffffffff1673ffffffffffffffffffffffffffffffffffffffff168152602001908152602001600020546123f290919063ffffffff16565b600460008b73ffffffffffffffffffffffffffffffffffffffff1673ffffffffffffffffffffffffffffffffffffffff1681526020019081526020016000208190555061355e85600460008b73ffffffffffffffffffffffffffffffffffffffff1673ffffffffffffffffffffffffffffffffffffffff1681526020019081526020016000205461233890919063ffffffff16565b600460008a73ffffffffffffffffffffffffffffffffffffffff1673ffffffffffffffffffffffffffffffffffffffff168152602001908152602001600020819055506135aa816136a3565b6135b484836138f2565b8773ffffffffffffffffffffffffffffffffffffffff168973ffffffffffffffffffffffffffffffffffffffff167fddf252ad1be2c89b69c2b068fc378daa952ba7f163c4a11628f55a4df523b3ef856040516136119190613f37565b60405180910390a3505050505050505050565b601154601081905550601354601281905550601554601481905550565b600061366b606461365d60105485612c2990919063ffffffff16565b6122ee90919063ffffffff16565b9050919050565b600061369c606461368e60125485612c2990919063ffffffff16565b6122ee90919063ffffffff16565b9050919050565b60006136ad6122c3565b905060006136c48284612c2990919063ffffffff16565b905061373a8160046000600360009054906101000a900473ffffffffffffffffffffffffffffffffffffffff1673ffffffffffffffffffffffffffffffffffffffff1673ffffffffffffffffffffffffffffffffffffffff1681526020019081526020016000205461233890919063ffffffff16565b60046000600360009054906101000a900473ffffffffffffffffffffffffffffffffffffffff1673ffffffffffffffffffffffffffffffffffffffff1673ffffffffffffffffffffffffffffffffffffffff1681526020019081526020016000208190555060086000600360009054906101000a900473ffffffffffffffffffffffffffffffffffffffff1673ffffffffffffffffffffffffffffffffffffffff1673ffffffffffffffffffffffffffffffffffffffff16815260200190815260200160002060009054906101000a900460ff16156138ed576138878360056000600360009054906101000a900473ffffffffffffffffffffffffffffffffffffffff1673ffffffffffffffffffffffffffffffffffffffff1673ffffffffffffffffffffffffffffffffffffffff1681526020019081526020016000205461233890919063ffffffff16565b60056000600360009054906101000a900473ffffffffffffffffffffffffffffffffffffffff1673ffffffffffffffffffffffffffffffffffffffff1673ffffffffffffffffffffffffffffffffffffffff168152602001908152602001600020819055505b505050565b61390782600b546123f290919063ffffffff16565b600b8190555061392281600c5461233890919063ffffffff16565b600c819055505050565b60008135905061393b816145f9565b92915050565b60008135905061395081614610565b92915050565b60008135905061396581614627565b92915050565b60006020828403121561397d57600080fd5b600061398b8482850161392c565b91505092915050565b600080604083850312156139a757600080fd5b60006139b58582860161392c565b92505060206139c68582860161392c565b9150509250929050565b6000806000606084860312156139e557600080fd5b60006139f38682870161392c565b9350506020613a048682870161392c565b9250506040613a1586828701613956565b9150509250925092565b60008060408385031215613a3257600080fd5b6000613a408582860161392c565b9250506020613a5185828601613956565b9150509250929050565b600060208284031215613a6d57600080fd5b6000613a7b84828501613956565b91505092915050565b60008060408385031215613a9757600080fd5b6000613aa585828601613956565b9250506020613ab685828601613941565b9150509250929050565b613ac98161409e565b82525050565b613ad8816140b0565b82525050565b6000613ae982613f6d565b613af38185613f78565b9350613b038185602086016140f3565b613b0c8161422e565b840191505092915050565b6000613b24602383613f78565b9150613b2f8261423f565b604082019050919050565b6000613b47602a83613f78565b9150613b528261428e565b604082019050919050565b6000613b6a602683613f78565b9150613b75826142dd565b604082019050919050565b6000613b8d602283613f78565b9150613b988261432c565b604082019050919050565b6000613bb0601b83613f78565b9150613bbb8261437b565b602082019050919050565b6000613bd3601b83613f78565b9150613bde826143a4565b602082019050919050565b6000613bf6601f83613f78565b9150613c01826143cd565b602082019050919050565b6000613c19602883613f78565b9150613c24826143f6565b604082019050919050565b6000613c3c602183613f78565b9150613c4782614445565b604082019050919050565b6000613c5f602083613f78565b9150613c6a82614494565b602082019050919050565b6000613c82602983613f78565b9150613c8d826144bd565b604082019050919050565b6000613ca5602583613f78565b9150613cb08261450c565b604082019050919050565b6000613cc8602483613f78565b9150613cd38261455b565b604082019050919050565b6000613ceb602c83613f78565b9150613cf6826145aa565b604082019050919050565b613d0a816140dc565b82525050565b613d19816140e6565b82525050565b6000602082019050613d346000830184613ac0565b92915050565b6000602082019050613d4f6000830184613acf565b92915050565b60006020820190508181036000830152613d6f8184613ade565b905092915050565b60006020820190508181036000830152613d9081613b17565b9050919050565b60006020820190508181036000830152613db081613b3a565b9050919050565b60006020820190508181036000830152613dd081613b5d565b9050919050565b60006020820190508181036000830152613df081613b80565b9050919050565b60006020820190508181036000830152613e1081613ba3565b9050919050565b60006020820190508181036000830152613e3081613bc6565b9050919050565b60006020820190508181036000830152613e5081613be9565b9050919050565b60006020820190508181036000830152613e7081613c0c565b9050919050565b60006020820190508181036000830152613e9081613c2f565b9050919050565b60006020820190508181036000830152613eb081613c52565b9050919050565b60006020820190508181036000830152613ed081613c75565b9050919050565b60006020820190508181036000830152613ef081613c98565b9050919050565b60006020820190508181036000830152613f1081613cbb565b9050919050565b60006020820190508181036000830152613f3081613cde565b9050919050565b6000602082019050613f4c6000830184613d01565b92915050565b6000602082019050613f676000830184613d10565b92915050565b600081519050919050565b600082825260208201905092915050565b6000613f94826140dc565b9150613f9f836140dc565b9250827fffffffffffffffffffffffffffffffffffffffffffffffffffffffffffffffff03821115613fd457613fd36141a1565b5b828201905092915050565b6000613fea826140dc565b9150613ff5836140dc565b925082614005576140046141d0565b5b828204905092915050565b600061401b826140dc565b9150614026836140dc565b9250817fffffffffffffffffffffffffffffffffffffffffffffffffffffffffffffffff048311821515161561405f5761405e6141a1565b5b828202905092915050565b6000614075826140dc565b9150614080836140dc565b925082821015614093576140926141a1565b5b828203905092915050565b60006140a9826140bc565b9050919050565b60008115159050919050565b600073ffffffffffffffffffffffffffffffffffffffff82169050919050565b6000819050919050565b600060ff82169050919050565b60005b838110156141115780820151818401526020810190506140f6565b83811115614120576000848401525b50505050565b6000600282049050600182168061413e57607f821691505b60208210811415614152576141516141ff565b5b50919050565b6000614163826140dc565b91507fffffffffffffffffffffffffffffffffffffffffffffffffffffffffffffffff821415614196576141956141a1565b5b600182019050919050565b7f4e487b7100000000000000000000000000000000000000000000000000000000600052601160045260246000fd5b7f4e487b7100000000000000000000000000000000000000000000000000000000600052601260045260246000fd5b7f4e487b7100000000000000000000000000000000000000000000000000000000600052602260045260246000fd5b6000601f19601f8301169050919050565b7f45524332303a207472616e7366657220746f20746865207a65726f206164647260008201527f6573730000000000000000000000000000000000000000000000000000000000602082015250565b7f416d6f756e74206d757374206265206c657373207468616e20746f74616c207260008201527f65666c656374696f6e7300000000000000000000000000000000000000000000602082015250565b7f4f776e61626c653a206e6577206f776e657220697320746865207a65726f206160008201527f6464726573730000000000000000000000000000000000000000000000000000602082015250565b7f45524332303a20617070726f766520746f20746865207a65726f20616464726560008201527f7373000000000000000000000000000000000000000000000000000000000000602082015250565b7f536166654d6174683a206164646974696f6e206f766572666c6f770000000000600082015250565b7f4163636f756e7420697320616c7265616479206578636c756465640000000000600082015250565b7f416d6f756e74206d757374206265206c657373207468616e20737570706c7900600082015250565b7f5472616e7366657220616d6f756e74206578636565647320746865206d61785460008201527f78416d6f756e742e000000000000000000000000000000000000000000000000602082015250565b7f536166654d6174683a206d756c7469706c69636174696f6e206f766572666c6f60008201527f7700000000000000000000000000000000000000000000000000000000000000602082015250565b7f4f776e61626c653a2063616c6c6572206973206e6f7420746865206f776e6572600082015250565b7f5472616e7366657220616d6f756e74206d75737420626520677265617465722060008201527f7468616e207a65726f0000000000000000000000000000000000000000000000602082015250565b7f45524332303a207472616e736665722066726f6d20746865207a65726f20616460008201527f6472657373000000000000000000000000000000000000000000000000000000602082015250565b7f45524332303a20617070726f76652066726f6d20746865207a65726f2061646460008201527f7265737300000000000000000000000000000000000000000000000000000000602082015250565b7f4578636c75646564206164647265737365732063616e6e6f742063616c6c207460008201527f6869732066756e6374696f6e0000000000000000000000000000000000000000602082015250565b6146028161409e565b811461460d57600080fd5b50565b614619816140b0565b811461462457600080fd5b50565b614630816140dc565b811461463b57600080fd5b5056fe45524332303a207472616e7366657220616d6f756e74206578636565647320616c6c6f77616e636545524332303a2064656372656173656420616c6c6f77616e63652062656c6f77207a65726fa264697066735822122013120df1d6460fe9003cf9caa612dc8d294db40cb1ce5bc5c49f79504df6176064736f6c63430008040033"}}