{
  "opcodeHash": "0x483b4f274919ca2dd69cdb142ebf523e500f475602e7575eead2cb2064fe88fa",
  "metalessHash": "0x091b9d165d749b8a41723476efd614cd7a6982dbd80861972768255cc181598a",
  "runtimeHash": "0xc20d00297a3befa0693f8a1919fc5eab21ec98192fe2203d5e0690764196d505",
  "encodedMetadata": [
    {
      "ipfs": "/ipfs/QmeCVaB7vw5S97BLa42fCLLNbzW46fQSLhZJ98GWYP7iTN",
      "solc": "0.8.7"
    }
  ],
  "abi": [
    {
      "inputs": [
        {
          "internalType": "string",
          "name": "_name",
          "type": "string"
        },
        {
          "internalType": "string",
          "name": "_symbol",
          "type": "string"
        },
        {
          "internalType": "string",
          "name": "_initBaseURI",
          "type": "string"
        },
        {
          "internalType": "string",
          "name": "_initNotRevealedUri",
          "type": "string"
        }
      ],
      "stateMutability": "nonpayable",
      "type": "constructor"
    },
    {
      "anonymous": false,
      "inputs": [
        {
          "indexed": true,
          "internalType": "address",
          "name": "owner",
          "type": "address"
        },
        {
          "indexed": true,
          "internalType": "address",
          "name": "approved",
          "type": "address"
        },
        {
          "indexed": true,
          "internalType": "uint256",
          "name": "tokenId",
          "type": "uint256"
        }
      ],
      "name": "Approval",
      "type": "event"
    },
    {
      "anonymous": false,
      "inputs": [
        {
          "indexed": true,
          "internalType": "address",
          "name": "owner",
          "type": "address"
        },
        {
          "indexed": true,
          "internalType": "address",
          "name": "operator",
          "type": "address"
        },
        {
          "indexed": false,
          "internalType": "bool",
          "name": "approved",
          "type": "bool"
        }
      ],
      "name": "ApprovalForAll",
      "type": "event"
    },
    {
      "anonymous": false,
      "inputs": [
        {
          "indexed": true,
          "internalType": "address",
          "name": "previousOwner",
          "type": "address"
        },
        {
          "indexed": true,
          "internalType": "address",
          "name": "newOwner",
          "type": "address"
        }
      ],
      "name": "OwnershipTransferred",
      "type": "event"
    },
    {
      "anonymous": false,
      "inputs": [
        {
          "indexed": true,
          "internalType": "address",
          "name": "from",
          "type": "address"
        },
        {
          "indexed": true,
          "internalType": "address",
          "name": "to",
          "type": "address"
        },
        {
          "indexed": true,
          "internalType": "uint256",
          "name": "tokenId",
          "type": "uint256"
        }
      ],
      "name": "Transfer",
      "type": "event"
    },
    {
      "inputs": [],
      "name": "WSOP_PROVENANCE",
      "outputs": [
        {
          "internalType": "string",
          "name": "",
          "type": "string"
        }
      ],
      "stateMutability": "view",
      "type": "function"
    },
    {
      "inputs": [
        {
          "internalType": "address",
          "name": "to",
          "type": "address"
        },
        {
          "internalType": "uint256",
          "name": "tokenId",
          "type": "uint256"
        }
      ],
      "name": "approve",
      "outputs": [],
      "stateMutability": "nonpayable",
      "type": "function"
    },
    {
      "inputs": [
        {
          "internalType": "address",
          "name": "owner",
          "type": "address"
        }
      ],
      "name": "balanceOf",
      "outputs": [
        {
          "internalType": "uint256",
          "name": "",
          "type": "uint256"
        }
      ],
      "stateMutability": "view",
      "type": "function"
    },
    {
      "inputs": [],
      "name": "baseExtension",
      "outputs": [
        {
          "internalType": "string",
          "name": "",
          "type": "string"
        }
      ],
      "stateMutability": "view",
      "type": "function"
    },
    {
      "inputs": [],
      "name": "cost",
      "outputs": [
        {
          "internalType": "uint256",
          "name": "",
          "type": "uint256"
        }
      ],
      "stateMutability": "view",
      "type": "function"
    },
    {
      "inputs": [
        {
          "internalType": "uint256",
          "name": "tokenId",
          "type": "uint256"
        }
      ],
      "name": "getApproved",
      "outputs": [
        {
          "internalType": "address",
          "name": "",
          "type": "address"
        }
      ],
      "stateMutability": "view",
      "type": "function"
    },
    {
      "inputs": [
        {
          "internalType": "address",
          "name": "owner",
          "type": "address"
        },
        {
          "internalType": "address",
          "name": "operator",
          "type": "address"
        }
      ],
      "name": "isApprovedForAll",
      "outputs": [
        {
          "internalType": "bool",
          "name": "",
          "type": "bool"
        }
      ],
      "stateMutability": "view",
      "type": "function"
    },
    {
      "inputs": [],
      "name": "isPresale",
      "outputs": [
        {
          "internalType": "bool",
          "name": "",
          "type": "bool"
        }
      ],
      "stateMutability": "view",
      "type": "function"
    },
    {
      "inputs": [
        {
          "internalType": "address",
          "name": "_user",
          "type": "address"
        }
      ],
      "name": "isWhitelisted",
      "outputs": [
        {
          "internalType": "bool",
          "name": "",
          "type": "bool"
        }
      ],
      "stateMutability": "view",
      "type": "function"
    },
    {
      "inputs": [],
      "name": "maxMintAmount",
      "outputs": [
        {
          "internalType": "uint256",
          "name": "",
          "type": "uint256"
        }
      ],
      "stateMutability": "view",
      "type": "function"
    },
    {
      "inputs": [],
      "name": "maxSupply",
      "outputs": [
        {
          "internalType": "uint256",
          "name": "",
          "type": "uint256"
        }
      ],
      "stateMutability": "view",
      "type": "function"
    },
    {
      "inputs": [
        {
          "internalType": "uint256",
          "name": "_mintAmount",
          "type": "uint256"
        }
      ],
      "name": "mint",
      "outputs": [],
      "stateMutability": "payable",
      "type": "function"
    },
    {
      "inputs": [],
      "name": "name",
      "outputs": [
        {
          "internalType": "string",
          "name": "",
          "type": "string"
        }
      ],
      "stateMutability": "view",
      "type": "function"
    },
    {
      "inputs": [],
      "name": "notRevealedUri",
      "outputs": [
        {
          "internalType": "string",
          "name": "",
          "type": "string"
        }
      ],
      "stateMutability": "view",
      "type": "function"
    },
    {
      "inputs": [],
      "name": "owner",
      "outputs": [
        {
          "internalType": "address",
          "name": "",
          "type": "address"
        }
      ],
      "stateMutability": "view",
      "type": "function"
    },
    {
      "inputs": [
        {
          "internalType": "uint256",
          "name": "tokenId",
          "type": "uint256"
        }
      ],
      "name": "ownerOf",
      "outputs": [
        {
          "internalType": "address",
          "name": "",
          "type": "address"
        }
      ],
      "stateMutability": "view",
      "type": "function"
    },
    {
      "inputs": [
        {
          "internalType": "bool",
          "name": "_state",
          "type": "bool"
        }
      ],
      "name": "pause",
      "outputs": [],
      "stateMutability": "nonpayable",
      "type": "function"
    },
    {
      "inputs": [],
      "name": "paused",
      "outputs": [
        {
          "internalType": "bool",
          "name": "",
          "type": "bool"
        }
      ],
      "stateMutability": "view",
      "type": "function"
    },
    {
      "inputs": [],
      "name": "presaleCost",
      "outputs": [
        {
          "internalType": "uint256",
          "name": "",
          "type": "uint256"
        }
      ],
      "stateMutability": "view",
      "type": "function"
    },
    {
      "inputs": [],
      "name": "presaleMaxMintAmount",
      "outputs": [
        {
          "internalType": "uint256",
          "name": "",
          "type": "uint256"
        }
      ],
      "stateMutability": "view",
      "type": "function"
    },
    {
      "inputs": [],
      "name": "presaleNftPerAddressLimit",
      "outputs": [
        {
          "internalType": "uint256",
          "name": "",
          "type": "uint256"
        }
      ],
      "stateMutability": "view",
      "type": "function"
    },
    {
      "inputs": [],
      "name": "renounceOwnership",
      "outputs": [],
      "stateMutability": "nonpayable",
      "type": "function"
    },
    {
      "inputs": [],
      "name": "revealed",
      "outputs": [
        {
          "internalType": "bool",
          "name": "",
          "type": "bool"
        }
      ],
      "stateMutability": "view",
      "type": "function"
    },
    {
      "inputs": [
        {
          "internalType": "address",
          "name": "from",
          "type": "address"
        },
        {
          "internalType": "address",
          "name": "to",
          "type": "address"
        },
        {
          "internalType": "uint256",
          "name": "tokenId",
          "type": "uint256"
        }
      ],
      "name": "safeTransferFrom",
      "outputs": [],
      "stateMutability": "nonpayable",
      "type": "function"
    },
    {
      "inputs": [
        {
          "internalType": "address",
          "name": "from",
          "type": "address"
        },
        {
          "internalType": "address",
          "name": "to",
          "type": "address"
        },
        {
          "internalType": "uint256",
          "name": "tokenId",
          "type": "uint256"
        },
        {
          "internalType": "bytes",
          "name": "_data",
          "type": "bytes"
        }
      ],
      "name": "safeTransferFrom",
      "outputs": [],
      "stateMutability": "nonpayable",
      "type": "function"
    },
    {
      "inputs": [
        {
          "internalType": "address",
          "name": "operator",
          "type": "address"
        },
        {
          "internalType": "bool",
          "name": "approved",
          "type": "bool"
        }
      ],
      "name": "setApprovalForAll",
      "outputs": [],
      "stateMutability": "nonpayable",
      "type": "function"
    },
    {
      "inputs": [
        {
          "internalType": "string",
          "name": "_newBaseExtension",
          "type": "string"
        }
      ],
      "name": "setBaseExtension",
      "outputs": [],
      "stateMutability": "nonpayable",
      "type": "function"
    },
    {
      "inputs": [
        {
          "internalType": "string",
          "name": "_newBaseURI",
          "type": "string"
        }
      ],
      "name": "setBaseURI",
      "outputs": [],
      "stateMutability": "nonpayable",
      "type": "function"
    },
    {
      "inputs": [
        {
          "internalType": "string",
          "name": "_notRevealedURI",
          "type": "string"
        }
      ],
      "name": "setNotRevealedURI",
      "outputs": [],
      "stateMutability": "nonpayable",
      "type": "function"
    },
    {
      "inputs": [
        {
          "internalType": "bool",
          "name": "_state",
          "type": "bool"
        }
      ],
      "name": "setPresale",
      "outputs": [],
      "stateMutability": "nonpayable",
      "type": "function"
    },
    {
      "inputs": [
        {
          "internalType": "string",
          "name": "provenanceHash",
          "type": "string"
        }
      ],
      "name": "setProvenanceHash",
      "outputs": [],
      "stateMutability": "nonpayable",
      "type": "function"
    },
    {
      "inputs": [],
      "name": "setRevealed",
      "outputs": [],
      "stateMutability": "nonpayable",
      "type": "function"
    },
    {
      "inputs": [
        {
          "internalType": "uint256",
          "name": "_newStartingIndex",
          "type": "uint256"
        }
      ],
      "name": "setStartingIndex",
      "outputs": [],
      "stateMutability": "nonpayable",
      "type": "function"
    },
    {
      "inputs": [],
      "name": "startingIndex",
      "outputs": [
        {
          "internalType": "uint256",
          "name": "",
          "type": "uint256"
        }
      ],
      "stateMutability": "view",
      "type": "function"
    },
    {
      "inputs": [
        {
          "internalType": "bytes4",
          "name": "interfaceId",
          "type": "bytes4"
        }
      ],
      "name": "supportsInterface",
      "outputs": [
        {
          "internalType": "bool",
          "name": "",
          "type": "bool"
        }
      ],
      "stateMutability": "view",
      "type": "function"
    },
    {
      "inputs": [],
      "name": "symbol",
      "outputs": [
        {
          "internalType": "string",
          "name": "",
          "type": "string"
        }
      ],
      "stateMutability": "view",
      "type": "function"
    },
    {
      "inputs": [
        {
          "internalType": "uint256",
          "name": "index",
          "type": "uint256"
        }
      ],
      "name": "tokenByIndex",
      "outputs": [
        {
          "internalType": "uint256",
          "name": "",
          "type": "uint256"
        }
      ],
      "stateMutability": "view",
      "type": "function"
    },
    {
      "inputs": [
        {
          "internalType": "address",
          "name": "owner",
          "type": "address"
        },
        {
          "internalType": "uint256",
          "name": "index",
          "type": "uint256"
        }
      ],
      "name": "tokenOfOwnerByIndex",
      "outputs": [
        {
          "internalType": "uint256",
          "name": "",
          "type": "uint256"
        }
      ],
      "stateMutability": "view",
      "type": "function"
    },
    {
      "inputs": [
        {
          "internalType": "uint256",
          "name": "tokenId",
          "type": "uint256"
        }
      ],
      "name": "tokenURI",
      "outputs": [
        {
          "internalType": "string",
          "name": "",
          "type": "string"
        }
      ],
      "stateMutability": "view",
      "type": "function"
    },
    {
      "inputs": [],
      "name": "totalSupply",
      "outputs": [
        {
          "internalType": "uint256",
          "name": "",
          "type": "uint256"
        }
      ],
      "stateMutability": "view",
      "type": "function"
    },
    {
      "inputs": [
        {
          "internalType": "address",
          "name": "from",
          "type": "address"
        },
        {
          "internalType": "address",
          "name": "to",
          "type": "address"
        },
        {
          "internalType": "uint256",
          "name": "tokenId",
          "type": "uint256"
        }
      ],
      "name": "transferFrom",
      "outputs": [],
      "stateMutability": "nonpayable",
      "type": "function"
    },
    {
      "inputs": [
        {
          "internalType": "address",
          "name": "newOwner",
          "type": "address"
        }
      ],
      "name": "transferOwnership",
      "outputs": [],
      "stateMutability": "nonpayable",
      "type": "function"
    },
    {
      "inputs": [
        {
          "internalType": "address",
          "name": "_owner",
          "type": "address"
        }
      ],
      "name": "walletOfOwner",
      "outputs": [
        {
          "internalType": "uint256[]",
          "name": "",
          "type": "uint256[]"
        }
      ],
      "stateMutability": "view",
      "type": "function"
    },
    {
      "inputs": [
        {
          "internalType": "address[]",
          "name": "_users",
          "type": "address[]"
        }
      ],
      "name": "whitelistUsers",
      "outputs": [],
      "stateMutability": "nonpayable",
      "type": "function"
    },
    {
      "inputs": [
        {
          "internalType": "uint256",
          "name": "",
          "type": "uint256"
        }
      ],
      "name": "whitelistedAddresses",
      "outputs": [
        {
          "internalType": "address",
          "name": "",
          "type": "address"
        }
      ],
      "stateMutability": "view",
      "type": "function"
    },
    {
      "inputs": [],
      "name": "withdraw",
      "outputs": [],
      "stateMutability": "payable",
      "type": "function"
    }
  ],
  "bytecode": {
    "object": "60c06040526005608081905264173539b7b760d91b60a09081526200002891600c919062000241565b506040805160208101918290526000908190526200004991600e9162000241565b50668e1bc9bf040000600f5566470de4df82000060105561271260115560146012819055600a6013819055905560006015556016805462ffffff1916620100011790553480156200009957600080fd5b50604051620030bb380380620030bb833981016040819052620000bc916200039e565b835184908490620000d590600090602085019062000241565b508051620000eb90600190602084019062000241565b50505062000108620001026200012860201b60201c565b6200012c565b62000113826200017e565b6200011e81620001e6565b50505050620004aa565b3390565b600a80546001600160a01b038381166001600160a01b0319831681179093556040519116919082907f8be0079c531659141344cd1fd0a4f28419497f9722a3daafe3b4186f6b6457e090600090a35050565b600a546001600160a01b03163314620001cd5760405162461bcd60e51b815260206004820181905260248201526000805160206200309b83398151915260448201526064015b60405180910390fd5b8051620001e290600b90602084019062000241565b5050565b600a546001600160a01b03163314620002315760405162461bcd60e51b815260206004820181905260248201526000805160206200309b8339815191526044820152606401620001c4565b8051620001e290600d9060208401905b8280546200024f9062000457565b90600052602060002090601f016020900481019282620002735760008555620002be565b82601f106200028e57805160ff1916838001178555620002be565b82800160010185558215620002be579182015b82811115620002be578251825591602001919060010190620002a1565b50620002cc929150620002d0565b5090565b5b80821115620002cc5760008155600101620002d1565b600082601f830112620002f957600080fd5b81516001600160401b038082111562000316576200031662000494565b604051601f8301601f19908116603f0116810190828211818310171562000341576200034162000494565b816040528381526020925086838588010111156200035e57600080fd5b600091505b8382101562000382578582018301518183018401529082019062000363565b83821115620003945760008385830101525b9695505050505050565b60008060008060808587031215620003b557600080fd5b84516001600160401b0380821115620003cd57600080fd5b620003db88838901620002e7565b95506020870151915080821115620003f257600080fd5b6200040088838901620002e7565b945060408701519150808211156200041757600080fd5b6200042588838901620002e7565b935060608701519150808211156200043c57600080fd5b506200044b87828801620002e7565b91505092959194509250565b600181811c908216806200046c57607f821691505b602082108114156200048e57634e487b7160e01b600052602260045260246000fd5b50919050565b634e487b7160e01b600052604160045260246000fd5b612be180620004ba6000396000f3fe60806040526004361061027d5760003560e01c806370a082311161014f578063ba4e5c49116100c1578063d5abeb011161007a578063d5abeb0114610717578063da3ef23f1461072d578063e985e9c51461074d578063edec5f2714610796578063f2c4ce1e146107b6578063f2fde38b146107d657600080fd5b8063ba4e5c4914610677578063c0a961e514610697578063c54e73e3146106ac578063c6682862146106cc578063c87b56dd146106e1578063cb774d471461070157600080fd5b806395364a841161011357806395364a84146105d957806395d89b41146105f9578063a0712d681461060e578063a22cb46514610621578063ac95633c14610641578063b88d4fde1461065757600080fd5b806370a0823114610550578063715018a61461057057806372fe71771461058557806388f2ebcb1461059b5780638da5cb5b146105bb57600080fd5b80632a23d07d116101f3578063438b6300116101ac578063438b63001461048a5780634f6ccce7146104b757806351830227146104d757806355f804b3146104f65780635c975abb146105165780636352211e1461053057600080fd5b80632a23d07d146103f75780632f745c591461040d5780633af32abf1461042d5780633bd649681461044d5780633ccfd60b1461046257806342842e0e1461046a57600080fd5b8063095ea7b311610245578063095ea7b314610348578063109695231461036857806313faede61461038857806318160ddd146103ac578063239c70ae146103c157806323b872dd146103d757600080fd5b806301ffc9a71461028257806302329a29146102b757806306fdde03146102d9578063081812fc146102fb578063081c8c4414610333575b600080fd5b34801561028e57600080fd5b506102a261029d366004612737565b6107f6565b60405190151581526020015b60405180910390f35b3480156102c357600080fd5b506102d76102d236600461271c565b610821565b005b3480156102e557600080fd5b506102ee610867565b6040516102ae9190612944565b34801561030757600080fd5b5061031b6103163660046127ba565b6108f9565b6040516001600160a01b0390911681526020016102ae565b34801561033f57600080fd5b506102ee61098e565b34801561035457600080fd5b506102d761036336600461267d565b610a1c565b34801561037457600080fd5b506102d7610383366004612771565b610b32565b34801561039457600080fd5b5061039e600f5481565b6040519081526020016102ae565b3480156103b857600080fd5b5060085461039e565b3480156103cd57600080fd5b5061039e60125481565b3480156103e357600080fd5b506102d76103f236600461259b565b610b73565b34801561040357600080fd5b5061039e60105481565b34801561041957600080fd5b5061039e61042836600461267d565b610ba4565b34801561043957600080fd5b506102a261044836600461254d565b610c3a565b34801561045957600080fd5b506102d7610ca4565b6102d7610cdf565b34801561047657600080fd5b506102d761048536600461259b565b61107f565b34801561049657600080fd5b506104aa6104a536600461254d565b61109a565b6040516102ae9190612900565b3480156104c357600080fd5b5061039e6104d23660046127ba565b61113c565b3480156104e357600080fd5b506016546102a290610100900460ff1681565b34801561050257600080fd5b506102d7610511366004612771565b6111cf565b34801561052257600080fd5b506016546102a29060ff1681565b34801561053c57600080fd5b5061031b61054b3660046127ba565b61120c565b34801561055c57600080fd5b5061039e61056b36600461254d565b611283565b34801561057c57600080fd5b506102d761130a565b34801561059157600080fd5b5061039e60135481565b3480156105a757600080fd5b506102d76105b63660046127ba565b611340565b3480156105c757600080fd5b50600a546001600160a01b031661031b565b3480156105e557600080fd5b506016546102a29062010000900460ff1681565b34801561060557600080fd5b506102ee6113bf565b6102d761061c3660046127ba565b6113ce565b34801561062d57600080fd5b506102d761063c366004612653565b611562565b34801561064d57600080fd5b5061039e60145481565b34801561066357600080fd5b506102d76106723660046125d7565b611627565b34801561068357600080fd5b5061031b6106923660046127ba565b61165f565b3480156106a357600080fd5b506102ee611689565b3480156106b857600080fd5b506102d76106c736600461271c565b611696565b3480156106d857600080fd5b506102ee6116dc565b3480156106ed57600080fd5b506102ee6106fc3660046127ba565b6116e9565b34801561070d57600080fd5b5061039e60155481565b34801561072357600080fd5b5061039e60115481565b34801561073957600080fd5b506102d7610748366004612771565b611868565b34801561075957600080fd5b506102a2610768366004612568565b6001600160a01b03918216600090815260056020908152604080832093909416825291909152205460ff1690565b3480156107a257600080fd5b506102d76107b13660046126a7565b6118a5565b3480156107c257600080fd5b506102d76107d1366004612771565b6118e7565b3480156107e257600080fd5b506102d76107f136600461254d565b611924565b60006001600160e01b0319821663780e9d6360e01b148061081b575061081b826119bf565b92915050565b600a546001600160a01b031633146108545760405162461bcd60e51b815260040161084b906129a9565b60405180910390fd5b6016805460ff1916911515919091179055565b60606000805461087690612abd565b80601f01602080910402602001604051908101604052809291908181526020018280546108a290612abd565b80156108ef5780601f106108c4576101008083540402835291602001916108ef565b820191906000526020600020905b8154815290600101906020018083116108d257829003601f168201915b5050505050905090565b6000818152600260205260408120546001600160a01b03166109725760405162461bcd60e51b815260206004820152602c60248201527f4552433732313a20617070726f76656420717565727920666f72206e6f6e657860448201526b34b9ba32b73a103a37b5b2b760a11b606482015260840161084b565b506000908152600460205260409020546001600160a01b031690565b600d805461099b90612abd565b80601f01602080910402602001604051908101604052809291908181526020018280546109c790612abd565b8015610a145780601f106109e957610100808354040283529160200191610a14565b820191906000526020600020905b8154815290600101906020018083116109f757829003601f168201915b505050505081565b6000610a278261120c565b9050806001600160a01b0316836001600160a01b03161415610a955760405162461bcd60e51b815260206004820152602160248201527f4552433732313a20617070726f76616c20746f2063757272656e74206f776e656044820152603960f91b606482015260840161084b565b336001600160a01b0382161480610ab15750610ab18133610768565b610b235760405162461bcd60e51b815260206004820152603860248201527f4552433732313a20617070726f76652063616c6c6572206973206e6f74206f7760448201527f6e6572206e6f7220617070726f76656420666f7220616c6c0000000000000000606482015260840161084b565b610b2d8383611a0f565b505050565b600a546001600160a01b03163314610b5c5760405162461bcd60e51b815260040161084b906129a9565b8051610b6f90600e9060208401906123a1565b5050565b610b7d3382611a7d565b610b995760405162461bcd60e51b815260040161084b906129de565b610b2d838383611b74565b6000610baf83611283565b8210610c115760405162461bcd60e51b815260206004820152602b60248201527f455243373231456e756d657261626c653a206f776e657220696e646578206f7560448201526a74206f6620626f756e647360a81b606482015260840161084b565b506001600160a01b03919091166000908152600660209081526040808320938352929052205490565b6000805b601754811015610c9b57826001600160a01b031660178281548110610c6557610c65612b69565b6000918252602090912001546001600160a01b03161415610c895750600192915050565b80610c9381612af8565b915050610c3e565b50600092915050565b600a546001600160a01b03163314610cce5760405162461bcd60e51b815260040161084b906129a9565b6016805461ff001916610100179055565b600a546001600160a01b03163314610d095760405162461bcd60e51b815260040161084b906129a9565b47600073426884c1f0a87711fbbca056e051f28d07f78be0612710610d30846101f4612a5b565b610d3a9190612a47565b604051600081818185875af1925050503d8060008114610d76576040519150601f19603f3d011682016040523d82523d6000602084013e610d7b565b606091505b5050905080610d8957600080fd5b600073ca7eba15f9cc1521f3c3b2f10c9b3ee098c3674c612710610daf85610ff0612a5b565b610db99190612a47565b604051600081818185875af1925050503d8060008114610df5576040519150601f19603f3d011682016040523d82523d6000602084013e610dfa565b606091505b5050905080610e0857600080fd5b6000738bf5c1a91ab5a5b1f14e013b269339fe9536e101612710610e2e866108e8612a5b565b610e389190612a47565b604051600081818185875af1925050503d8060008114610e74576040519150601f19603f3d011682016040523d82523d6000602084013e610e79565b606091505b5050905080610e8757600080fd5b6000733a0fe89b2de53f6df205a48cc55b5ff5bc2d1f2a612710610ead876107d0612a5b565b610eb79190612a47565b604051600081818185875af1925050503d8060008114610ef3576040519150601f19603f3d011682016040523d82523d6000602084013e610ef8565b606091505b5050905080610f0657600080fd5b600073b3e72f1b93b1eea98193217c7c2eb8b3623414d8612710610f2c88610299612a5b565b610f369190612a47565b604051600081818185875af1925050503d8060008114610f72576040519150601f19603f3d011682016040523d82523d6000602084013e610f77565b606091505b5050905080610f8557600080fd5b600073bd9a13864bb4eeb6b6ac8ee60ade92403b950652612710610fab896101db612a5b565b610fb59190612a47565b604051600081818185875af1925050503d8060008114610ff1576040519150601f19603f3d011682016040523d82523d6000602084013e610ff6565b606091505b505090508061100457600080fd5b6000611018600a546001600160a01b031690565b6001600160a01b03164760405160006040518083038185875af1925050503d8060008114611062576040519150601f19603f3d011682016040523d82523d6000602084013e611067565b606091505b505090508061107557600080fd5b5050505050505050565b610b2d83838360405180602001604052806000815250611627565b606060006110a783611283565b905060008167ffffffffffffffff8111156110c4576110c4612b7f565b6040519080825280602002602001820160405280156110ed578160200160208202803683370190505b50905060005b82811015611134576111058582610ba4565b82828151811061111757611117612b69565b60209081029190910101528061112c81612af8565b9150506110f3565b509392505050565b600061114760085490565b82106111aa5760405162461bcd60e51b815260206004820152602c60248201527f455243373231456e756d657261626c653a20676c6f62616c20696e646578206f60448201526b7574206f6620626f756e647360a01b606482015260840161084b565b600882815481106111bd576111bd612b69565b90600052602060002001549050919050565b600a546001600160a01b031633146111f95760405162461bcd60e51b815260040161084b906129a9565b8051610b6f90600b9060208401906123a1565b6000818152600260205260408120546001600160a01b03168061081b5760405162461bcd60e51b815260206004820152602960248201527f4552433732313a206f776e657220717565727920666f72206e6f6e657869737460448201526832b73a103a37b5b2b760b91b606482015260840161084b565b60006001600160a01b0382166112ee5760405162461bcd60e51b815260206004820152602a60248201527f4552433732313a2062616c616e636520717565727920666f7220746865207a65604482015269726f206164647265737360b01b606482015260840161084b565b506001600160a01b031660009081526003602052604090205490565b600a546001600160a01b031633146113345760405162461bcd60e51b815260040161084b906129a9565b61133e6000611d1f565b565b600a546001600160a01b0316331461136a5760405162461bcd60e51b815260040161084b906129a9565b601554156113ba5760405162461bcd60e51b815260206004820152601d60248201527f5374617274696e6720696e64657820697320616c726561647920736574000000604482015260640161084b565b601555565b60606001805461087690612abd565b60165460ff1615806113ea5750600a546001600160a01b031633145b6113f357600080fd5b60006113fe60085490565b90506000821161140d57600080fd5b600a546001600160a01b031633146115335760165462010000900460ff166114755760125482111561143e57600080fd5b60115461144b8383612a2f565b111561145657600080fd5b81600f546114649190612a5b565b34101561147057600080fd5b611533565b61147e33610c3a565b6114ca5760405162461bcd60e51b815260206004820152601760248201527f75736572206973206e6f742077686974656c6973746564000000000000000000604482015260640161084b565b60006114d533611283565b6014549091506114e58483612a2f565b11156114f057600080fd5b6013548311156114ff57600080fd5b60115461150c8484612a2f565b111561151757600080fd5b826010546115259190612a5b565b34101561153157600080fd5b505b60015b828111610b2d576115503361154b8385612a2f565b611d71565b8061155a81612af8565b915050611536565b6001600160a01b0382163314156115bb5760405162461bcd60e51b815260206004820152601960248201527f4552433732313a20617070726f766520746f2063616c6c657200000000000000604482015260640161084b565b3360008181526005602090815260408083206001600160a01b03871680855290835292819020805460ff191686151590811790915590519081529192917f17307eab39ab6107e8899845ad3d59bd9653f200f220920489ca2b5937696c31910160405180910390a35050565b6116313383611a7d565b61164d5760405162461bcd60e51b815260040161084b906129de565b61165984848484611d8b565b50505050565b6017818154811061166f57600080fd5b6000918252602090912001546001600160a01b0316905081565b600e805461099b90612abd565b600a546001600160a01b031633146116c05760405162461bcd60e51b815260040161084b906129a9565b60168054911515620100000262ff000019909216919091179055565b600c805461099b90612abd565b6000818152600260205260409020546060906001600160a01b03166117685760405162461bcd60e51b815260206004820152602f60248201527f4552433732314d657461646174613a2055524920717565727920666f72206e6f60448201526e3732bc34b9ba32b73a103a37b5b2b760891b606482015260840161084b565b601654610100900460ff1661180957600d805461178490612abd565b80601f01602080910402602001604051908101604052809291908181526020018280546117b090612abd565b80156117fd5780601f106117d2576101008083540402835291602001916117fd565b820191906000526020600020905b8154815290600101906020018083116117e057829003601f168201915b50505050509050919050565b6000611813611dbe565b905060008151116118335760405180602001604052806000815250611861565b8061183d84611dcd565b600c604051602001611851939291906127ff565b6040516020818303038152906040525b9392505050565b600a546001600160a01b031633146118925760405162461bcd60e51b815260040161084b906129a9565b8051610b6f90600c9060208401906123a1565b600a546001600160a01b031633146118cf5760405162461bcd60e51b815260040161084b906129a9565b6118db60176000612425565b610b2d60178383612443565b600a546001600160a01b031633146119115760405162461bcd60e51b815260040161084b906129a9565b8051610b6f90600d9060208401906123a1565b600a546001600160a01b0316331461194e5760405162461bcd60e51b815260040161084b906129a9565b6001600160a01b0381166119b35760405162461bcd60e51b815260206004820152602660248201527f4f776e61626c653a206e6577206f776e657220697320746865207a65726f206160448201526564647265737360d01b606482015260840161084b565b6119bc81611d1f565b50565b60006001600160e01b031982166380ac58cd60e01b14806119f057506001600160e01b03198216635b5e139f60e01b145b8061081b57506301ffc9a760e01b6001600160e01b031983161461081b565b600081815260046020526040902080546001600160a01b0319166001600160a01b0384169081179091558190611a448261120c565b6001600160a01b03167f8c5be1e5ebec7d5bd14f71427d1e84f3dd0314c0f7b2291e5b200ac8c7c3b92560405160405180910390a45050565b6000818152600260205260408120546001600160a01b0316611af65760405162461bcd60e51b815260206004820152602c60248201527f4552433732313a206f70657261746f7220717565727920666f72206e6f6e657860448201526b34b9ba32b73a103a37b5b2b760a11b606482015260840161084b565b6000611b018361120c565b9050806001600160a01b0316846001600160a01b03161480611b3c5750836001600160a01b0316611b31846108f9565b6001600160a01b0316145b80611b6c57506001600160a01b0380821660009081526005602090815260408083209388168352929052205460ff165b949350505050565b826001600160a01b0316611b878261120c565b6001600160a01b031614611bef5760405162461bcd60e51b815260206004820152602960248201527f4552433732313a207472616e73666572206f6620746f6b656e2074686174206960448201526839903737ba1037bbb760b91b606482015260840161084b565b6001600160a01b038216611c515760405162461bcd60e51b8152602060048201526024808201527f4552433732313a207472616e7366657220746f20746865207a65726f206164646044820152637265737360e01b606482015260840161084b565b611c5c838383611ecb565b611c67600082611a0f565b6001600160a01b0383166000908152600360205260408120805460019290611c90908490612a7a565b90915550506001600160a01b0382166000908152600360205260408120805460019290611cbe908490612a2f565b909155505060008181526002602052604080822080546001600160a01b0319166001600160a01b0386811691821790925591518493918716917fddf252ad1be2c89b69c2b068fc378daa952ba7f163c4a11628f55a4df523b3ef91a4505050565b600a80546001600160a01b038381166001600160a01b0319831681179093556040519116919082907f8be0079c531659141344cd1fd0a4f28419497f9722a3daafe3b4186f6b6457e090600090a35050565b610b6f828260405180602001604052806000815250611f83565b611d96848484611b74565b611da284848484611fb6565b6116595760405162461bcd60e51b815260040161084b90612957565b6060600b805461087690612abd565b606081611df15750506040805180820190915260018152600360fc1b602082015290565b8160005b8115611e1b5780611e0581612af8565b9150611e149050600a83612a47565b9150611df5565b60008167ffffffffffffffff811115611e3657611e36612b7f565b6040519080825280601f01601f191660200182016040528015611e60576020820181803683370190505b5090505b8415611b6c57611e75600183612a7a565b9150611e82600a86612b13565b611e8d906030612a2f565b60f81b818381518110611ea257611ea2612b69565b60200101906001600160f81b031916908160001a905350611ec4600a86612a47565b9450611e64565b6001600160a01b038316611f2657611f2181600880546000838152600960205260408120829055600182018355919091527ff3f7a9fe364faab93b216da50a3214154f22a0a2b415b23a84c8169e8b636ee30155565b611f49565b816001600160a01b0316836001600160a01b031614611f4957611f4983826120c3565b6001600160a01b038216611f6057610b2d81612160565b826001600160a01b0316826001600160a01b031614610b2d57610b2d828261220f565b611f8d8383612253565b611f9a6000848484611fb6565b610b2d5760405162461bcd60e51b815260040161084b90612957565b60006001600160a01b0384163b156120b857604051630a85bd0160e11b81526001600160a01b0385169063150b7a0290611ffa9033908990889088906004016128c3565b602060405180830381600087803b15801561201457600080fd5b505af1925050508015612044575060408051601f3d908101601f1916820190925261204191810190612754565b60015b61209e573d808015612072576040519150601f19603f3d011682016040523d82523d6000602084013e612077565b606091505b5080516120965760405162461bcd60e51b815260040161084b90612957565b805181602001fd5b6001600160e01b031916630a85bd0160e11b149050611b6c565b506001949350505050565b600060016120d084611283565b6120da9190612a7a565b60008381526007602052604090205490915080821461212d576001600160a01b03841660009081526006602090815260408083208584528252808320548484528184208190558352600790915290208190555b5060009182526007602090815260408084208490556001600160a01b039094168352600681528383209183525290812055565b60085460009061217290600190612a7a565b6000838152600960205260408120546008805493945090928490811061219a5761219a612b69565b9060005260206000200154905080600883815481106121bb576121bb612b69565b60009182526020808320909101929092558281526009909152604080822084905585825281205560088054806121f3576121f3612b53565b6001900381819060005260206000200160009055905550505050565b600061221a83611283565b6001600160a01b039093166000908152600660209081526040808320868452825280832085905593825260079052919091209190915550565b6001600160a01b0382166122a95760405162461bcd60e51b815260206004820181905260248201527f4552433732313a206d696e7420746f20746865207a65726f2061646472657373604482015260640161084b565b6000818152600260205260409020546001600160a01b03161561230e5760405162461bcd60e51b815260206004820152601c60248201527f4552433732313a20746f6b656e20616c7265616479206d696e74656400000000604482015260640161084b565b61231a60008383611ecb565b6001600160a01b0382166000908152600360205260408120805460019290612343908490612a2f565b909155505060008181526002602052604080822080546001600160a01b0319166001600160a01b03861690811790915590518392907fddf252ad1be2c89b69c2b068fc378daa952ba7f163c4a11628f55a4df523b3ef908290a45050565b8280546123ad90612abd565b90600052602060002090601f0160209004810192826123cf5760008555612415565b82601f106123e857805160ff1916838001178555612415565b82800160010185558215612415579182015b828111156124155782518255916020019190600101906123fa565b50612421929150612496565b5090565b50805460008255906000526020600020908101906119bc9190612496565b828054828255906000526020600020908101928215612415579160200282015b828111156124155781546001600160a01b0319166001600160a01b03843516178255602090920191600190910190612463565b5b808211156124215760008155600101612497565b600067ffffffffffffffff808411156124c6576124c6612b7f565b604051601f8501601f19908116603f011681019082821181831017156124ee576124ee612b7f565b8160405280935085815286868601111561250757600080fd5b858560208301376000602087830101525050509392505050565b80356001600160a01b038116811461253857600080fd5b919050565b8035801515811461253857600080fd5b60006020828403121561255f57600080fd5b61186182612521565b6000806040838503121561257b57600080fd5b61258483612521565b915061259260208401612521565b90509250929050565b6000806000606084860312156125b057600080fd5b6125b984612521565b92506125c760208501612521565b9150604084013590509250925092565b600080600080608085870312156125ed57600080fd5b6125f685612521565b935061260460208601612521565b925060408501359150606085013567ffffffffffffffff81111561262757600080fd5b8501601f8101871361263857600080fd5b612647878235602084016124ab565b91505092959194509250565b6000806040838503121561266657600080fd5b61266f83612521565b91506125926020840161253d565b6000806040838503121561269057600080fd5b61269983612521565b946020939093013593505050565b600080602083850312156126ba57600080fd5b823567ffffffffffffffff808211156126d257600080fd5b818501915085601f8301126126e657600080fd5b8135818111156126f557600080fd5b8660208260051b850101111561270a57600080fd5b60209290920196919550909350505050565b60006020828403121561272e57600080fd5b6118618261253d565b60006020828403121561274957600080fd5b813561186181612b95565b60006020828403121561276657600080fd5b815161186181612b95565b60006020828403121561278357600080fd5b813567ffffffffffffffff81111561279a57600080fd5b8201601f810184136127ab57600080fd5b611b6c848235602084016124ab565b6000602082840312156127cc57600080fd5b5035919050565b600081518084526127eb816020860160208601612a91565b601f01601f19169290920160200192915050565b6000845160206128128285838a01612a91565b8551918401916128258184848a01612a91565b8554920191600090600181811c908083168061284257607f831692505b85831081141561286057634e487b7160e01b85526022600452602485fd5b8080156128745760018114612885576128b2565b60ff198516885283880195506128b2565b60008b81526020902060005b858110156128aa5781548a820152908401908801612891565b505083880195505b50939b9a5050505050505050505050565b6001600160a01b03858116825284166020820152604081018390526080606082018190526000906128f6908301846127d3565b9695505050505050565b6020808252825182820181905260009190848201906040850190845b818110156129385783518352928401929184019160010161291c565b50909695505050505050565b60208152600061186160208301846127d3565b60208082526032908201527f4552433732313a207472616e7366657220746f206e6f6e20455243373231526560408201527131b2b4bb32b91034b6b83632b6b2b73a32b960711b606082015260800190565b6020808252818101527f4f776e61626c653a2063616c6c6572206973206e6f7420746865206f776e6572604082015260600190565b60208082526031908201527f4552433732313a207472616e736665722063616c6c6572206973206e6f74206f6040820152701ddb995c881b9bdc88185c1c1c9bdd9959607a1b606082015260800190565b60008219821115612a4257612a42612b27565b500190565b600082612a5657612a56612b3d565b500490565b6000816000190483118215151615612a7557612a75612b27565b500290565b600082821015612a8c57612a8c612b27565b500390565b60005b83811015612aac578181015183820152602001612a94565b838111156116595750506000910152565b600181811c90821680612ad157607f821691505b60208210811415612af257634e487b7160e01b600052602260045260246000fd5b50919050565b6000600019821415612b0c57612b0c612b27565b5060010190565b600082612b2257612b22612b3d565b500690565b634e487b7160e01b600052601160045260246000fd5b634e487b7160e01b600052601260045260246000fd5b634e487b7160e01b600052603160045260246000fd5b634e487b7160e01b600052603260045260246000fd5b634e487b7160e01b600052604160045260246000fd5b6001600160e01b0319811681146119bc57600080fdfea264697066735822122049ad9a270872f64cc5712933a6a4dc2c08dc8e616b506a707316934d9bd7339364736f6c634300080700334f776e61626c653a2063616c6c6572206973206e6f7420746865206f776e6572"
  }
}