{"compiler":"v0.6.2+commit.bacdbe57","opcodeHash":"0x40b1f249017b23309928b072ebbded68eba9da71b238decc1e72e2917aee4318","metalessHash":"0x78bba8914f1f00049a12c284e1debd2efa45b7b06acc08e0522458bdb1a6bc00","runtimeHash":"0x99ac3cbebeba3a4668a2c909643f2bf87f3c9ddd0c30e74782199ce4f14e6f7b","encodedMetadata":[{"ipfs":"/ipfs/QmZBSQtCUEDxbb9EVbuvfV129aXg7e8bRBLi7Nhrj2ogv4","solc":"0.6.2"}],"abi":[{"inputs":[],"stateMutability":"nonpayable","type":"constructor"},{"anonymous":false,"inputs":[{"indexed":true,"internalType":"address","name":"owner","type":"address"},{"indexed":true,"internalType":"address","name":"spender","type":"address"},{"indexed":false,"internalType":"uint256","name":"value","type":"uint256"}],"name":"Approval","type":"event"},{"anonymous":false,"inputs":[{"indexed":true,"internalType":"address","name":"previousOwner","type":"address"},{"indexed":true,"internalType":"address","name":"newOwner","type":"address"}],"name":"OwnershipTransferred","type":"event"},{"anonymous":false,"inputs":[{"indexed":true,"internalType":"address","name":"from","type":"address"},{"indexed":true,"internalType":"address","name":"to","type":"address"},{"indexed":false,"internalType":"uint256","name":"value","type":"uint256"}],"name":"Transfer","type":"event"},{"inputs":[{"internalType":"address","name":"owner","type":"address"},{"internalType":"address","name":"spender","type":"address"}],"name":"allowance","outputs":[{"internalType":"uint256","name":"","type":"uint256"}],"stateMutability":"view","type":"function"},{"inputs":[{"internalType":"address","name":"spender","type":"address"},{"internalType":"uint256","name":"amount","type":"uint256"}],"name":"approve","outputs":[{"internalType":"bool","name":"","type":"bool"}],"stateMutability":"nonpayable","type":"function"},{"inputs":[{"internalType":"address","name":"account","type":"address"}],"name":"balanceOf","outputs":[{"internalType":"uint256","name":"","type":"uint256"}],"stateMutability":"view","type":"function"},{"inputs":[],"name":"decimals","outputs":[{"internalType":"uint8","name":"","type":"uint8"}],"stateMutability":"view","type":"function"},{"inputs":[{"internalType":"address","name":"spender","type":"address"},{"internalType":"uint256","name":"subtractedValue","type":"uint256"}],"name":"decreaseAllowance","outputs":[{"internalType":"bool","name":"","type":"bool"}],"stateMutability":"nonpayable","type":"function"},{"inputs":[{"internalType":"uint256","name":"tAmount","type":"uint256"}],"name":"deliver","outputs":[],"stateMutability":"nonpayable","type":"function"},{"inputs":[{"internalType":"address","name":"account","type":"address"}],"name":"excludeAccount","outputs":[],"stateMutability":"nonpayable","type":"function"},{"inputs":[{"internalType":"address","name":"account","type":"address"}],"name":"includeAccount","outputs":[],"stateMutability":"nonpayable","type":"function"},{"inputs":[{"internalType":"address","name":"spender","type":"address"},{"internalType":"uint256","name":"addedValue","type":"uint256"}],"name":"increaseAllowance","outputs":[{"internalType":"bool","name":"","type":"bool"}],"stateMutability":"nonpayable","type":"function"},{"inputs":[{"internalType":"address","name":"account","type":"address"}],"name":"isExcluded","outputs":[{"internalType":"bool","name":"","type":"bool"}],"stateMutability":"view","type":"function"},{"inputs":[],"name":"name","outputs":[{"internalType":"string","name":"","type":"string"}],"stateMutability":"view","type":"function"},{"inputs":[],"name":"owner","outputs":[{"internalType":"address","name":"","type":"address"}],"stateMutability":"view","type":"function"},{"inputs":[{"internalType":"uint256","name":"tAmount","type":"uint256"},{"internalType":"bool","name":"deductTransferFee","type":"bool"}],"name":"reflectionFromToken","outputs":[{"internalType":"uint256","name":"","type":"uint256"}],"stateMutability":"view","type":"function"},{"inputs":[],"name":"renounceOwnership","outputs":[],"stateMutability":"nonpayable","type":"function"},{"inputs":[],"name":"symbol","outputs":[{"internalType":"string","name":"","type":"string"}],"stateMutability":"view","type":"function"},{"inputs":[{"internalType":"uint256","name":"rAmount","type":"uint256"}],"name":"tokenFromReflection","outputs":[{"internalType":"uint256","name":"","type":"uint256"}],"stateMutability":"view","type":"function"},{"inputs":[],"name":"totalBurn","outputs":[{"internalType":"uint256","name":"","type":"uint256"}],"stateMutability":"view","type":"function"},{"inputs":[],"name":"totalFees","outputs":[{"internalType":"uint256","name":"","type":"uint256"}],"stateMutability":"view","type":"function"},{"inputs":[],"name":"totalSupply","outputs":[{"internalType":"uint256","name":"","type":"uint256"}],"stateMutability":"view","type":"function"},{"inputs":[{"internalType":"address","name":"recipient","type":"address"},{"internalType":"uint256","name":"amount","type":"uint256"}],"name":"transfer","outputs":[{"internalType":"bool","name":"","type":"bool"}],"stateMutability":"nonpayable","type":"function"},{"inputs":[{"internalType":"address","name":"sender","type":"address"},{"internalType":"address","name":"recipient","type":"address"},{"internalType":"uint256","name":"amount","type":"uint256"}],"name":"transferFrom","outputs":[{"internalType":"bool","name":"","type":"bool"}],"stateMutability":"nonpayable","type":"function"},{"inputs":[{"internalType":"address","name":"newOwner","type":"address"}],"name":"transferOwnership","outputs":[],"stateMutability":"nonpayable","type":"function"}],"bytecode":{"object":"608060405269d3c21bcecceda1000000600855600854600019816200002057fe5b06600019036009556040518060400160405280600681526020017f4245415645520000000000000000000000000000000000000000000000000000815250600c90805190602001906200007592919062000290565b506040518060400160405280600681526020017f4245415645520000000000000000000000000000000000000000000000000000815250600d9080519060200190620000c392919062000290565b506009600e60006101000a81548160ff021916908360ff1602179055506003600f55600360105569d3c21bcecceda10000006011553480156200010557600080fd5b506000620001186200028860201b60201c565b9050806000806101000a81548173ffffffffffffffffffffffffffffffffffffffff021916908373ffffffffffffffffffffffffffffffffffffffff1602179055508073ffffffffffffffffffffffffffffffffffffffff16600073ffffffffffffffffffffffffffffffffffffffff167f8be0079c531659141344cd1fd0a4f28419497f9722a3daafe3b4186f6b6457e060405160405180910390a35060095460036000620001cd6200028860201b60201c565b73ffffffffffffffffffffffffffffffffffffffff1673ffffffffffffffffffffffffffffffffffffffff168152602001908152602001600020819055506200021b6200028860201b60201c565b73ffffffffffffffffffffffffffffffffffffffff16600073ffffffffffffffffffffffffffffffffffffffff167fddf252ad1be2c89b69c2b068fc378daa952ba7f163c4a11628f55a4df523b3ef6008546040518082815260200191505060405180910390a36200033f565b600033905090565b828054600181600116156101000203166002900490600052602060002090601f016020900481019282601f10620002d357805160ff191683800117855562000304565b8280016001018555821562000304579182015b8281111562000303578251825591602001919060010190620002e6565b5b50905062000313919062000317565b5090565b6200033c91905b80821115620003385760008160009055506001016200031e565b5090565b90565b6136cf806200034f6000396000f3fe608060405234801561001057600080fd5b50600436106101425760003560e01c806370a08231116100b8578063a9059cbb1161007c578063a9059cbb146105ed578063cba0e99614610653578063dd62ed3e146106af578063f2cc0c1814610727578063f2fde38b1461076b578063f84354f1146107af57610142565b806370a0823114610458578063715018a6146104b05780638da5cb5b146104ba57806395d89b4114610504578063a457c2d71461058757610142565b80632d8381191161010a5780632d838119146102f2578063313ce5671461033457806339509351146103585780633bd5d173146103be5780633c9f861d146103ec5780634549b0391461040a57610142565b806306fdde0314610147578063095ea7b3146101ca57806313114a9d1461023057806318160ddd1461024e57806323b872dd1461026c575b600080fd5b61014f6107f3565b6040518080602001828103825283818151815260200191508051906020019080838360005b8381101561018f578082015181840152602081019050610174565b50505050905090810190601f1680156101bc5780820380516001836020036101000a031916815260200191505b509250505060405180910390f35b610216600480360360408110156101e057600080fd5b81019080803573ffffffffffffffffffffffffffffffffffffffff16906020019092919080359060200190929190505050610895565b604051808215151515815260200191505060405180910390f35b6102386108b3565b6040518082815260200191505060405180910390f35b6102566108bd565b6040518082815260200191505060405180910390f35b6102d86004803603606081101561028257600080fd5b81019080803573ffffffffffffffffffffffffffffffffffffffff169060200190929190803573ffffffffffffffffffffffffffffffffffffffff169060200190929190803590602001909291905050506108c7565b604051808215151515815260200191505060405180910390f35b61031e6004803603602081101561030857600080fd5b81019080803590602001909291905050506109a0565b6040518082815260200191505060405180910390f35b61033c610a24565b604051808260ff1660ff16815260200191505060405180910390f35b6103a46004803603604081101561036e57600080fd5b81019080803573ffffffffffffffffffffffffffffffffffffffff16906020019092919080359060200190929190505050610a3b565b604051808215151515815260200191505060405180910390f35b6103ea600480360360208110156103d457600080fd5b8101908080359060200190929190505050610aee565b005b6103f4610c7f565b6040518082815260200191505060405180910390f35b6104426004803603604081101561042057600080fd5b8101908080359060200190929190803515159060200190929190505050610c89565b6040518082815260200191505060405180910390f35b61049a6004803603602081101561046e57600080fd5b81019080803573ffffffffffffffffffffffffffffffffffffffff169060200190929190505050610d40565b6040518082815260200191505060405180910390f35b6104b8610e2b565b005b6104c2610fb3565b604051808273ffffffffffffffffffffffffffffffffffffffff1673ffffffffffffffffffffffffffffffffffffffff16815260200191505060405180910390f35b61050c610fdc565b6040518080602001828103825283818151815260200191508051906020019080838360005b8381101561054c578082015181840152602081019050610531565b50505050905090810190601f1680156105795780820380516001836020036101000a031916815260200191505b509250505060405180910390f35b6105d36004803603604081101561059d57600080fd5b81019080803573ffffffffffffffffffffffffffffffffffffffff1690602001909291908035906020019092919050505061107e565b604051808215151515815260200191505060405180910390f35b6106396004803603604081101561060357600080fd5b81019080803573ffffffffffffffffffffffffffffffffffffffff1690602001909291908035906020019092919050505061114b565b604051808215151515815260200191505060405180910390f35b6106956004803603602081101561066957600080fd5b81019080803573ffffffffffffffffffffffffffffffffffffffff169060200190929190505050611169565b604051808215151515815260200191505060405180910390f35b610711600480360360408110156106c557600080fd5b81019080803573ffffffffffffffffffffffffffffffffffffffff169060200190929190803573ffffffffffffffffffffffffffffffffffffffff1690602001909291905050506111bf565b6040518082815260200191505060405180910390f35b6107696004803603602081101561073d57600080fd5b81019080803573ffffffffffffffffffffffffffffffffffffffff169060200190929190505050611246565b005b6107ad6004803603602081101561078157600080fd5b81019080803573ffffffffffffffffffffffffffffffffffffffff1690602001909291905050506115fa565b005b6107f1600480360360208110156107c557600080fd5b81019080803573ffffffffffffffffffffffffffffffffffffffff169060200190929190505050611807565b005b6060600c8054600181600116156101000203166002900480601f01602080910402602001604051908101604052809291908181526020018280546001816001161561010002031660029004801561088b5780601f106108605761010080835404028352916020019161088b565b820191906000526020600020905b81548152906001019060200180831161086e57829003601f168201915b5050505050905090565b60006108a96108a2611b95565b8484611b9d565b6001905092915050565b6000600a54905090565b6000600854905090565b60006108d4848484611d94565b610995846108e0611b95565b6109908560405180606001604052806028815260200161358d60289139600560008b73ffffffffffffffffffffffffffffffffffffffff1673ffffffffffffffffffffffffffffffffffffffff1681526020019081526020016000206000610946611b95565b73ffffffffffffffffffffffffffffffffffffffff1673ffffffffffffffffffffffffffffffffffffffff168152602001908152602001600020546122c49092919063ffffffff16565b611b9d565b600190509392505050565b60006009548211156109fd576040517f08c379a000000000000000000000000000000000000000000000000000000000815260040180806020018281038252602a8152602001806134d2602a913960400191505060405180910390fd5b6000610a07612384565b9050610a1c81846123af90919063ffffffff16565b915050919050565b6000600e60009054906101000a900460ff16905090565b6000610ae4610a48611b95565b84610adf8560056000610a59611b95565b73ffffffffffffffffffffffffffffffffffffffff1673ffffffffffffffffffffffffffffffffffffffff16815260200190815260200160002060008973ffffffffffffffffffffffffffffffffffffffff1673ffffffffffffffffffffffffffffffffffffffff168152602001908152602001600020546123f990919063ffffffff16565b611b9d565b6001905092915050565b6000610af8611b95565b9050600660008273ffffffffffffffffffffffffffffffffffffffff1673ffffffffffffffffffffffffffffffffffffffff16815260200190815260200160002060009054906101000a900460ff1615610b9d576040517f08c379a000000000000000000000000000000000000000000000000000000000815260040180806020018281038252602c815260200180613649602c913960400191505060405180910390fd5b6000610ba883612481565b50505050509050610c0181600360008573ffffffffffffffffffffffffffffffffffffffff1673ffffffffffffffffffffffffffffffffffffffff168152602001908152602001600020546124e990919063ffffffff16565b600360008473ffffffffffffffffffffffffffffffffffffffff1673ffffffffffffffffffffffffffffffffffffffff16815260200190815260200160002081905550610c59816009546124e990919063ffffffff16565b600981905550610c7483600a546123f990919063ffffffff16565b600a81905550505050565b6000600b54905090565b6000600854831115610d03576040517f08c379a000000000000000000000000000000000000000000000000000000000815260040180806020018281038252601f8152602001807f416d6f756e74206d757374206265206c657373207468616e20737570706c790081525060200191505060405180910390fd5b81610d23576000610d1384612481565b5050505050905080915050610d3a565b6000610d2e84612481565b50505050915050809150505b92915050565b6000600660008373ffffffffffffffffffffffffffffffffffffffff1673ffffffffffffffffffffffffffffffffffffffff16815260200190815260200160002060009054906101000a900460ff1615610ddb57600460008373ffffffffffffffffffffffffffffffffffffffff1673ffffffffffffffffffffffffffffffffffffffff168152602001908152602001600020549050610e26565b610e23600360008473ffffffffffffffffffffffffffffffffffffffff1673ffffffffffffffffffffffffffffffffffffffff168152602001908152602001600020546109a0565b90505b919050565b610e33611b95565b73ffffffffffffffffffffffffffffffffffffffff166000809054906101000a900473ffffffffffffffffffffffffffffffffffffffff1673ffffffffffffffffffffffffffffffffffffffff1614610ef4576040517f08c379a00000000000000000000000000000000000000000000000000000000081526004018080602001828103825260208152602001807f4f776e61626c653a2063616c6c6572206973206e6f7420746865206f776e657281525060200191505060405180910390fd5b600073ffffffffffffffffffffffffffffffffffffffff166000809054906101000a900473ffffffffffffffffffffffffffffffffffffffff1673ffffffffffffffffffffffffffffffffffffffff167f8be0079c531659141344cd1fd0a4f28419497f9722a3daafe3b4186f6b6457e060405160405180910390a360008060006101000a81548173ffffffffffffffffffffffffffffffffffffffff021916908373ffffffffffffffffffffffffffffffffffffffff160217905550565b60008060009054906101000a900473ffffffffffffffffffffffffffffffffffffffff16905090565b6060600d8054600181600116156101000203166002900480601f0160208091040260200160405190810160405280929190818152602001828054600181600116156101000203166002900480156110745780601f1061104957610100808354040283529160200191611074565b820191906000526020600020905b81548152906001019060200180831161105757829003601f168201915b5050505050905090565b600061114161108b611b95565b8461113c8560405180606001604052806025815260200161367560259139600560006110b5611b95565b73ffffffffffffffffffffffffffffffffffffffff1673ffffffffffffffffffffffffffffffffffffffff16815260200190815260200160002060008a73ffffffffffffffffffffffffffffffffffffffff1673ffffffffffffffffffffffffffffffffffffffff168152602001908152602001600020546122c49092919063ffffffff16565b611b9d565b6001905092915050565b600061115f611158611b95565b8484611d94565b6001905092915050565b6000600660008373ffffffffffffffffffffffffffffffffffffffff1673ffffffffffffffffffffffffffffffffffffffff16815260200190815260200160002060009054906101000a900460ff169050919050565b6000600560008473ffffffffffffffffffffffffffffffffffffffff1673ffffffffffffffffffffffffffffffffffffffff16815260200190815260200160002060008373ffffffffffffffffffffffffffffffffffffffff1673ffffffffffffffffffffffffffffffffffffffff16815260200190815260200160002054905092915050565b61124e611b95565b73ffffffffffffffffffffffffffffffffffffffff166000809054906101000a900473ffffffffffffffffffffffffffffffffffffffff1673ffffffffffffffffffffffffffffffffffffffff161461130f576040517f08c379a00000000000000000000000000000000000000000000000000000000081526004018080602001828103825260208152602001807f4f776e61626c653a2063616c6c6572206973206e6f7420746865206f776e657281525060200191505060405180910390fd5b737a250d5630b4cf539739df2c5dacb4c659f2488d73ffffffffffffffffffffffffffffffffffffffff168173ffffffffffffffffffffffffffffffffffffffff1614156113a8576040517f08c379a00000000000000000000000000000000000000000000000000000000081526004018080602001828103825260228152602001806136276022913960400191505060405180910390fd5b600660008273ffffffffffffffffffffffffffffffffffffffff1673ffffffffffffffffffffffffffffffffffffffff16815260200190815260200160002060009054906101000a900460ff1615611468576040517f08c379a000000000000000000000000000000000000000000000000000000000815260040180806020018281038252601b8152602001807f4163636f756e7420697320616c7265616479206578636c75646564000000000081525060200191505060405180910390fd5b6000600360008373ffffffffffffffffffffffffffffffffffffffff1673ffffffffffffffffffffffffffffffffffffffff16815260200190815260200160002054111561153c576114f8600360008373ffffffffffffffffffffffffffffffffffffffff1673ffffffffffffffffffffffffffffffffffffffff168152602001908152602001600020546109a0565b600460008373ffffffffffffffffffffffffffffffffffffffff1673ffffffffffffffffffffffffffffffffffffffff168152602001908152602001600020819055505b6001600660008373ffffffffffffffffffffffffffffffffffffffff1673ffffffffffffffffffffffffffffffffffffffff16815260200190815260200160002060006101000a81548160ff0219169083151502179055506007819080600181540180825580915050600190039060005260206000200160009091909190916101000a81548173ffffffffffffffffffffffffffffffffffffffff021916908373ffffffffffffffffffffffffffffffffffffffff16021790555050565b611602611b95565b73ffffffffffffffffffffffffffffffffffffffff166000809054906101000a900473ffffffffffffffffffffffffffffffffffffffff1673ffffffffffffffffffffffffffffffffffffffff16146116c3576040517f08c379a00000000000000000000000000000000000000000000000000000000081526004018080602001828103825260208152602001807f4f776e61626c653a2063616c6c6572206973206e6f7420746865206f776e657281525060200191505060405180910390fd5b600073ffffffffffffffffffffffffffffffffffffffff168173ffffffffffffffffffffffffffffffffffffffff161415611749576040517f08c379a00000000000000000000000000000000000000000000000000000000081526004018080602001828103825260268152602001806134fc6026913960400191505060405180910390fd5b8073ffffffffffffffffffffffffffffffffffffffff166000809054906101000a900473ffffffffffffffffffffffffffffffffffffffff1673ffffffffffffffffffffffffffffffffffffffff167f8be0079c531659141344cd1fd0a4f28419497f9722a3daafe3b4186f6b6457e060405160405180910390a3806000806101000a81548173ffffffffffffffffffffffffffffffffffffffff021916908373ffffffffffffffffffffffffffffffffffffffff16021790555050565b61180f611b95565b73ffffffffffffffffffffffffffffffffffffffff166000809054906101000a900473ffffffffffffffffffffffffffffffffffffffff1673ffffffffffffffffffffffffffffffffffffffff16146118d0576040517f08c379a00000000000000000000000000000000000000000000000000000000081526004018080602001828103825260208152602001807f4f776e61626c653a2063616c6c6572206973206e6f7420746865206f776e657281525060200191505060405180910390fd5b600660008273ffffffffffffffffffffffffffffffffffffffff1673ffffffffffffffffffffffffffffffffffffffff16815260200190815260200160002060009054906101000a900460ff1661198f576040517f08c379a000000000000000000000000000000000000000000000000000000000815260040180806020018281038252601b8152602001807f4163636f756e7420697320616c7265616479206578636c75646564000000000081525060200191505060405180910390fd5b60008090505b600780549050811015611b91578173ffffffffffffffffffffffffffffffffffffffff16600782815481106119c657fe5b9060005260206000200160009054906101000a900473ffffffffffffffffffffffffffffffffffffffff1673ffffffffffffffffffffffffffffffffffffffff161415611b8457600760016007805490500381548110611a2257fe5b9060005260206000200160009054906101000a900473ffffffffffffffffffffffffffffffffffffffff1660078281548110611a5a57fe5b9060005260206000200160006101000a81548173ffffffffffffffffffffffffffffffffffffffff021916908373ffffffffffffffffffffffffffffffffffffffff1602179055506000600460008473ffffffffffffffffffffffffffffffffffffffff1673ffffffffffffffffffffffffffffffffffffffff168152602001908152602001600020819055506000600660008473ffffffffffffffffffffffffffffffffffffffff1673ffffffffffffffffffffffffffffffffffffffff16815260200190815260200160002060006101000a81548160ff0219169083151502179055506007805480611b4a57fe5b6001900381819060005260206000200160006101000a81549073ffffffffffffffffffffffffffffffffffffffff02191690559055611b91565b8080600101915050611995565b5050565b600033905090565b600073ffffffffffffffffffffffffffffffffffffffff168373ffffffffffffffffffffffffffffffffffffffff161415611c23576040517f08c379a00000000000000000000000000000000000000000000000000000000081526004018080602001828103825260248152602001806136036024913960400191505060405180910390fd5b600073ffffffffffffffffffffffffffffffffffffffff168273ffffffffffffffffffffffffffffffffffffffff161415611ca9576040517f08c379a00000000000000000000000000000000000000000000000000000000081526004018080602001828103825260228152602001806135226022913960400191505060405180910390fd5b80600560008573ffffffffffffffffffffffffffffffffffffffff1673ffffffffffffffffffffffffffffffffffffffff16815260200190815260200160002060008473ffffffffffffffffffffffffffffffffffffffff1673ffffffffffffffffffffffffffffffffffffffff168152602001908152602001600020819055508173ffffffffffffffffffffffffffffffffffffffff168373ffffffffffffffffffffffffffffffffffffffff167f8c5be1e5ebec7d5bd14f71427d1e84f3dd0314c0f7b2291e5b200ac8c7c3b925836040518082815260200191505060405180910390a3505050565b600073ffffffffffffffffffffffffffffffffffffffff168373ffffffffffffffffffffffffffffffffffffffff161415611e1a576040517f08c379a00000000000000000000000000000000000000000000000000000000081526004018080602001828103825260258152602001806135de6025913960400191505060405180910390fd5b600073ffffffffffffffffffffffffffffffffffffffff168273ffffffffffffffffffffffffffffffffffffffff161415611ea0576040517f08c379a00000000000000000000000000000000000000000000000000000000081526004018080602001828103825260238152602001806134af6023913960400191505060405180910390fd5b60008111611ef9576040517f08c379a00000000000000000000000000000000000000000000000000000000081526004018080602001828103825260298152602001806135b56029913960400191505060405180910390fd5b611f01610fb3565b73ffffffffffffffffffffffffffffffffffffffff168373ffffffffffffffffffffffffffffffffffffffff1614158015611f6f5750611f3f610fb3565b73ffffffffffffffffffffffffffffffffffffffff168273ffffffffffffffffffffffffffffffffffffffff1614155b15611fd057601154811115611fcf576040517f08c379a00000000000000000000000000000000000000000000000000000000081526004018080602001828103825260288152602001806135446028913960400191505060405180910390fd5b5b600660008473ffffffffffffffffffffffffffffffffffffffff1673ffffffffffffffffffffffffffffffffffffffff16815260200190815260200160002060009054906101000a900460ff1680156120735750600660008373ffffffffffffffffffffffffffffffffffffffff1673ffffffffffffffffffffffffffffffffffffffff16815260200190815260200160002060009054906101000a900460ff16155b1561208857612083838383612533565b6122bf565b600660008473ffffffffffffffffffffffffffffffffffffffff1673ffffffffffffffffffffffffffffffffffffffff16815260200190815260200160002060009054906101000a900460ff1615801561212b5750600660008373ffffffffffffffffffffffffffffffffffffffff1673ffffffffffffffffffffffffffffffffffffffff16815260200190815260200160002060009054906101000a900460ff165b156121405761213b8383836127b1565b6122be565b600660008473ffffffffffffffffffffffffffffffffffffffff1673ffffffffffffffffffffffffffffffffffffffff16815260200190815260200160002060009054906101000a900460ff161580156121e45750600660008373ffffffffffffffffffffffffffffffffffffffff1673ffffffffffffffffffffffffffffffffffffffff16815260200190815260200160002060009054906101000a900460ff16155b156121f9576121f4838383612a2f565b6122bd565b600660008473ffffffffffffffffffffffffffffffffffffffff1673ffffffffffffffffffffffffffffffffffffffff16815260200190815260200160002060009054906101000a900460ff16801561229b5750600660008373ffffffffffffffffffffffffffffffffffffffff1673ffffffffffffffffffffffffffffffffffffffff16815260200190815260200160002060009054906101000a900460ff165b156122b0576122ab838383612c18565b6122bc565b6122bb838383612a2f565b5b5b5b5b505050565b6000838311158290612371576040517f08c379a00000000000000000000000000000000000000000000000000000000081526004018080602001828103825283818151815260200191508051906020019080838360005b8381101561233657808201518184015260208101905061231b565b50505050905090810190601f1680156123635780820380516001836020036101000a031916815260200191505b509250505060405180910390fd5b5060008385039050809150509392505050565b6000806000612391612f2b565b915091506123a881836123af90919063ffffffff16565b9250505090565b60006123f183836040518060400160405280601a81526020017f536166654d6174683a206469766973696f6e206279207a65726f0000000000008152506131bf565b905092915050565b600080828401905083811015612477576040517f08c379a000000000000000000000000000000000000000000000000000000000815260040180806020018281038252601b8152602001807f536166654d6174683a206164646974696f6e206f766572666c6f77000000000081525060200191505060405180910390fd5b8091505092915050565b600080600080600080600080600061249e8a600f54601054613285565b92509250925060006124ae612384565b905060008060006124c18e87878761331b565b9250925092508282828989899c509c509c509c509c509c505050505050505091939550919395565b600061252b83836040518060400160405280601e81526020017f536166654d6174683a207375627472616374696f6e206f766572666c6f7700008152506122c4565b905092915050565b600061253d612384565b905060008060008060008061255188612481565b955095509550955095509550600061257288836133a490919063ffffffff16565b90506125c689600460008e73ffffffffffffffffffffffffffffffffffffffff1673ffffffffffffffffffffffffffffffffffffffff168152602001908152602001600020546124e990919063ffffffff16565b600460008d73ffffffffffffffffffffffffffffffffffffffff1673ffffffffffffffffffffffffffffffffffffffff1681526020019081526020016000208190555061265b87600360008e73ffffffffffffffffffffffffffffffffffffffff1673ffffffffffffffffffffffffffffffffffffffff168152602001908152602001600020546124e990919063ffffffff16565b600360008d73ffffffffffffffffffffffffffffffffffffffff1673ffffffffffffffffffffffffffffffffffffffff168152602001908152602001600020819055506126f086600360008d73ffffffffffffffffffffffffffffffffffffffff1673ffffffffffffffffffffffffffffffffffffffff168152602001908152602001600020546123f990919063ffffffff16565b600360008c73ffffffffffffffffffffffffffffffffffffffff1673ffffffffffffffffffffffffffffffffffffffff1681526020019081526020016000208190555061273f8582858561342a565b8973ffffffffffffffffffffffffffffffffffffffff168b73ffffffffffffffffffffffffffffffffffffffff167fddf252ad1be2c89b69c2b068fc378daa952ba7f163c4a11628f55a4df523b3ef866040518082815260200191505060405180910390a35050505050505050505050565b60006127bb612384565b90506000806000806000806127cf88612481565b95509550955095509550955060006127f088836133a490919063ffffffff16565b905061284487600360008e73ffffffffffffffffffffffffffffffffffffffff1673ffffffffffffffffffffffffffffffffffffffff168152602001908152602001600020546124e990919063ffffffff16565b600360008d73ffffffffffffffffffffffffffffffffffffffff1673ffffffffffffffffffffffffffffffffffffffff168152602001908152602001600020819055506128d984600460008d73ffffffffffffffffffffffffffffffffffffffff1673ffffffffffffffffffffffffffffffffffffffff168152602001908152602001600020546123f990919063ffffffff16565b600460008c73ffffffffffffffffffffffffffffffffffffffff1673ffffffffffffffffffffffffffffffffffffffff1681526020019081526020016000208190555061296e86600360008d73ffffffffffffffffffffffffffffffffffffffff1673ffffffffffffffffffffffffffffffffffffffff168152602001908152602001600020546123f990919063ffffffff16565b600360008c73ffffffffffffffffffffffffffffffffffffffff1673ffffffffffffffffffffffffffffffffffffffff168152602001908152602001600020819055506129bd8582858561342a565b8973ffffffffffffffffffffffffffffffffffffffff168b73ffffffffffffffffffffffffffffffffffffffff167fddf252ad1be2c89b69c2b068fc378daa952ba7f163c4a11628f55a4df523b3ef866040518082815260200191505060405180910390a35050505050505050505050565b6000612a39612384565b9050600080600080600080612a4d88612481565b9550955095509550955095506000612a6e88836133a490919063ffffffff16565b9050612ac287600360008e73ffffffffffffffffffffffffffffffffffffffff1673ffffffffffffffffffffffffffffffffffffffff168152602001908152602001600020546124e990919063ffffffff16565b600360008d73ffffffffffffffffffffffffffffffffffffffff1673ffffffffffffffffffffffffffffffffffffffff16815260200190815260200160002081905550612b5786600360008d73ffffffffffffffffffffffffffffffffffffffff1673ffffffffffffffffffffffffffffffffffffffff168152602001908152602001600020546123f990919063ffffffff16565b600360008c73ffffffffffffffffffffffffffffffffffffffff1673ffffffffffffffffffffffffffffffffffffffff16815260200190815260200160002081905550612ba68582858561342a565b8973ffffffffffffffffffffffffffffffffffffffff168b73ffffffffffffffffffffffffffffffffffffffff167fddf252ad1be2c89b69c2b068fc378daa952ba7f163c4a11628f55a4df523b3ef866040518082815260200191505060405180910390a35050505050505050505050565b6000612c22612384565b9050600080600080600080612c3688612481565b9550955095509550955095506000612c5788836133a490919063ffffffff16565b9050612cab89600460008e73ffffffffffffffffffffffffffffffffffffffff1673ffffffffffffffffffffffffffffffffffffffff168152602001908152602001600020546124e990919063ffffffff16565b600460008d73ffffffffffffffffffffffffffffffffffffffff1673ffffffffffffffffffffffffffffffffffffffff16815260200190815260200160002081905550612d4087600360008e73ffffffffffffffffffffffffffffffffffffffff1673ffffffffffffffffffffffffffffffffffffffff168152602001908152602001600020546124e990919063ffffffff16565b600360008d73ffffffffffffffffffffffffffffffffffffffff1673ffffffffffffffffffffffffffffffffffffffff16815260200190815260200160002081905550612dd584600460008d73ffffffffffffffffffffffffffffffffffffffff1673ffffffffffffffffffffffffffffffffffffffff168152602001908152602001600020546123f990919063ffffffff16565b600460008c73ffffffffffffffffffffffffffffffffffffffff1673ffffffffffffffffffffffffffffffffffffffff16815260200190815260200160002081905550612e6a86600360008d73ffffffffffffffffffffffffffffffffffffffff1673ffffffffffffffffffffffffffffffffffffffff168152602001908152602001600020546123f990919063ffffffff16565b600360008c73ffffffffffffffffffffffffffffffffffffffff1673ffffffffffffffffffffffffffffffffffffffff16815260200190815260200160002081905550612eb98582858561342a565b8973ffffffffffffffffffffffffffffffffffffffff168b73ffffffffffffffffffffffffffffffffffffffff167fddf252ad1be2c89b69c2b068fc378daa952ba7f163c4a11628f55a4df523b3ef866040518082815260200191505060405180910390a35050505050505050505050565b600080600060095490506000600854905060008090505b60078054905081101561318257826003600060078481548110612f6157fe5b9060005260206000200160009054906101000a900473ffffffffffffffffffffffffffffffffffffffff1673ffffffffffffffffffffffffffffffffffffffff1673ffffffffffffffffffffffffffffffffffffffff1681526020019081526020016000205411806130485750816004600060078481548110612fe057fe5b9060005260206000200160009054906101000a900473ffffffffffffffffffffffffffffffffffffffff1673ffffffffffffffffffffffffffffffffffffffff1673ffffffffffffffffffffffffffffffffffffffff16815260200190815260200160002054115b1561305f57600954600854945094505050506131bb565b6130e8600360006007848154811061307357fe5b9060005260206000200160009054906101000a900473ffffffffffffffffffffffffffffffffffffffff1673ffffffffffffffffffffffffffffffffffffffff1673ffffffffffffffffffffffffffffffffffffffff16815260200190815260200160002054846124e990919063ffffffff16565b925061317360046000600784815481106130fe57fe5b9060005260206000200160009054906101000a900473ffffffffffffffffffffffffffffffffffffffff1673ffffffffffffffffffffffffffffffffffffffff1673ffffffffffffffffffffffffffffffffffffffff16815260200190815260200160002054836124e990919063ffffffff16565b91508080600101915050612f42565b5061319a6008546009546123af90919063ffffffff16565b8210156131b2576009546008549350935050506131bb565b81819350935050505b9091565b6000808311829061326b576040517f08c379a00000000000000000000000000000000000000000000000000000000081526004018080602001828103825283818151815260200191508051906020019080838360005b83811015613230578082015181840152602081019050613215565b50505050905090810190601f16801561325d5780820380516001836020036101000a031916815260200191505b509250505060405180910390fd5b50600083858161327757fe5b049050809150509392505050565b6000806000806132b160646132a3888a6133a490919063ffffffff16565b6123af90919063ffffffff16565b905060006132db60646132cd888b6133a490919063ffffffff16565b6123af90919063ffffffff16565b90506000613304826132f6858c6124e990919063ffffffff16565b6124e990919063ffffffff16565b905080838395509550955050505093509350939050565b60008060008061333485896133a490919063ffffffff16565b9050600061334b86896133a490919063ffffffff16565b9050600061336287896133a490919063ffffffff16565b9050600061338b8261337d85876124e990919063ffffffff16565b6124e990919063ffffffff16565b9050838184965096509650505050509450945094915050565b6000808314156133b75760009050613424565b60008284029050828482816133c857fe5b041461341f576040517f08c379a000000000000000000000000000000000000000000000000000000000815260040180806020018281038252602181526020018061356c6021913960400191505060405180910390fd5b809150505b92915050565b61345183613443866009546124e990919063ffffffff16565b6124e990919063ffffffff16565b60098190555061346c82600a546123f990919063ffffffff16565b600a8190555061348781600b546123f990919063ffffffff16565b600b819055506134a2816008546124e990919063ffffffff16565b6008819055505050505056fe45524332303a207472616e7366657220746f20746865207a65726f2061646472657373416d6f756e74206d757374206265206c657373207468616e20746f74616c207265666c656374696f6e734f776e61626c653a206e6577206f776e657220697320746865207a65726f206164647265737345524332303a20617070726f766520746f20746865207a65726f20616464726573735472616e7366657220616d6f756e74206578636565647320746865206d61785478416d6f756e742e536166654d6174683a206d756c7469706c69636174696f6e206f766572666c6f7745524332303a207472616e7366657220616d6f756e74206578636565647320616c6c6f77616e63655472616e7366657220616d6f756e74206d7573742062652067726561746572207468616e207a65726f45524332303a207472616e736665722066726f6d20746865207a65726f206164647265737345524332303a20617070726f76652066726f6d20746865207a65726f206164647265737357652063616e206e6f74206578636c75646520556e697377617020726f757465722e4578636c75646564206164647265737365732063616e6e6f742063616c6c20746869732066756e6374696f6e45524332303a2064656372656173656420616c6c6f77616e63652062656c6f77207a65726fa264697066735822122009c03f7861ec4140e24aa7f1756f7f57d9231321781ae6a693f51fd15cc5785b64736f6c63430006020033"}}