{
  "opcodeHash": "0x1779d2d1f4858c023d6af6778cde9df57c6ed3243ec56f4eeabaa83fbb7d0cf0",
  "metalessHash": "0x18ece59f28096071d4a95750ae6d4e618987e869b82b891891b2acf53c2a0227",
  "runtimeHash": "0x36f7781b843817d93f9a3a77f9aa849504cf7bb568fa1e3b9f63cce620a78641",
  "encodedMetadata": [
    {
      "ipfs": "/ipfs/QmbBzFfmKwnsaK5KAtYYSCGqNJSTU9JfwR59NTLV2GnPeP",
      "solc": "0.6.6"
    }
  ],
  "abi": [
    {
      "inputs": [],
      "stateMutability": "nonpayable",
      "type": "constructor"
    },
    {
      "anonymous": false,
      "inputs": [
        {
          "indexed": true,
          "internalType": "address",
          "name": "_from",
          "type": "address"
        },
        {
          "indexed": false,
          "internalType": "uint256",
          "name": "_value",
          "type": "uint256"
        }
      ],
      "name": "Deposit",
      "type": "event"
    },
    {
      "anonymous": false,
      "inputs": [
        {
          "indexed": false,
          "internalType": "bytes32",
          "name": "_hashAction",
          "type": "bytes32"
        },
        {
          "indexed": false,
          "internalType": "bool",
          "name": "_vote",
          "type": "bool"
        }
      ],
      "name": "Voted",
      "type": "event"
    },
    {
      "inputs": [
        {
          "internalType": "bytes32",
          "name": "",
          "type": "bytes32"
        }
      ],
      "name": "actions",
      "outputs": [
        {
          "internalType": "bool",
          "name": "exists",
          "type": "bool"
        },
        {
          "internalType": "bytes32",
          "name": "hash",
          "type": "bytes32"
        },
        {
          "internalType": "uint256",
          "name": "blockNumber",
          "type": "uint256"
        },
        {
          "internalType": "address payable",
          "name": "plaintiff",
          "type": "address"
        },
        {
          "internalType": "address",
          "name": "defendant",
          "type": "address"
        },
        {
          "internalType": "address",
          "name": "arbitrator",
          "type": "address"
        },
        {
          "internalType": "bool",
          "name": "voted",
          "type": "bool"
        },
        {
          "internalType": "bool",
          "name": "vote",
          "type": "bool"
        },
        {
          "internalType": "uint256",
          "name": "ipfsLength",
          "type": "uint256"
        }
      ],
      "stateMutability": "view",
      "type": "function"
    },
    {
      "inputs": [
        {
          "internalType": "address",
          "name": "",
          "type": "address"
        }
      ],
      "name": "actionsBook",
      "outputs": [
        {
          "internalType": "bool",
          "name": "exists",
          "type": "bool"
        },
        {
          "internalType": "uint256",
          "name": "bookHashesPlaintiffLength",
          "type": "uint256"
        },
        {
          "internalType": "uint256",
          "name": "bookHashesDefendantLength",
          "type": "uint256"
        },
        {
          "internalType": "uint256",
          "name": "bookHashesArbitratorLength",
          "type": "uint256"
        }
      ],
      "stateMutability": "view",
      "type": "function"
    },
    {
      "inputs": [],
      "name": "actionsCount",
      "outputs": [
        {
          "internalType": "uint256",
          "name": "",
          "type": "uint256"
        }
      ],
      "stateMutability": "view",
      "type": "function"
    },
    {
      "inputs": [
        {
          "internalType": "uint256",
          "name": "",
          "type": "uint256"
        }
      ],
      "name": "actionsList",
      "outputs": [
        {
          "internalType": "bytes32",
          "name": "",
          "type": "bytes32"
        }
      ],
      "stateMutability": "view",
      "type": "function"
    },
    {
      "inputs": [
        {
          "internalType": "uint256",
          "name": "",
          "type": "uint256"
        }
      ],
      "name": "arbitrators",
      "outputs": [
        {
          "internalType": "address",
          "name": "",
          "type": "address"
        }
      ],
      "stateMutability": "view",
      "type": "function"
    },
    {
      "inputs": [
        {
          "internalType": "address",
          "name": "_address",
          "type": "address"
        }
      ],
      "name": "bookHashesArbitrator",
      "outputs": [
        {
          "internalType": "bytes32[]",
          "name": "",
          "type": "bytes32[]"
        }
      ],
      "stateMutability": "view",
      "type": "function"
    },
    {
      "inputs": [
        {
          "internalType": "address",
          "name": "_address",
          "type": "address"
        }
      ],
      "name": "bookHashesDefendant",
      "outputs": [
        {
          "internalType": "bytes32[]",
          "name": "",
          "type": "bytes32[]"
        }
      ],
      "stateMutability": "view",
      "type": "function"
    },
    {
      "inputs": [
        {
          "internalType": "address",
          "name": "_address",
          "type": "address"
        }
      ],
      "name": "bookHashesPlaintiff",
      "outputs": [
        {
          "internalType": "bytes32[]",
          "name": "",
          "type": "bytes32[]"
        }
      ],
      "stateMutability": "view",
      "type": "function"
    },
    {
      "inputs": [
        {
          "internalType": "bytes32",
          "name": "_hashAction",
          "type": "bytes32"
        },
        {
          "internalType": "address",
          "name": "_defendant",
          "type": "address"
        }
      ],
      "name": "createAction",
      "outputs": [],
      "stateMutability": "payable",
      "type": "function"
    },
    {
      "inputs": [],
      "name": "getBalance",
      "outputs": [
        {
          "internalType": "uint256",
          "name": "",
          "type": "uint256"
        }
      ],
      "stateMutability": "view",
      "type": "function"
    },
    {
      "inputs": [
        {
          "internalType": "bytes32",
          "name": "_hashAction",
          "type": "bytes32"
        },
        {
          "internalType": "uint256",
          "name": "_order",
          "type": "uint256"
        }
      ],
      "name": "getDocument",
      "outputs": [
        {
          "internalType": "string",
          "name": "",
          "type": "string"
        }
      ],
      "stateMutability": "view",
      "type": "function"
    },
    {
      "inputs": [
        {
          "internalType": "bytes32",
          "name": "_hashAction",
          "type": "bytes32"
        }
      ],
      "name": "getDocumentLength",
      "outputs": [
        {
          "internalType": "uint256",
          "name": "",
          "type": "uint256"
        }
      ],
      "stateMutability": "view",
      "type": "function"
    },
    {
      "inputs": [
        {
          "internalType": "bytes32",
          "name": "_hashAction",
          "type": "bytes32"
        }
      ],
      "name": "selectedArbiter",
      "outputs": [
        {
          "internalType": "address",
          "name": "",
          "type": "address"
        }
      ],
      "stateMutability": "view",
      "type": "function"
    },
    {
      "inputs": [
        {
          "internalType": "bytes32",
          "name": "_hashAction",
          "type": "bytes32"
        },
        {
          "internalType": "string",
          "name": "_ipfsHash",
          "type": "string"
        }
      ],
      "name": "sendDocument",
      "outputs": [],
      "stateMutability": "nonpayable",
      "type": "function"
    },
    {
      "inputs": [
        {
          "internalType": "bytes32",
          "name": "_hashAction",
          "type": "bytes32"
        },
        {
          "internalType": "string",
          "name": "_ipfsHash",
          "type": "string"
        }
      ],
      "name": "submitAction",
      "outputs": [],
      "stateMutability": "nonpayable",
      "type": "function"
    },
    {
      "inputs": [
        {
          "internalType": "address payable",
          "name": "_address",
          "type": "address"
        },
        {
          "internalType": "uint256",
          "name": "_fee",
          "type": "uint256"
        }
      ],
      "name": "transfer",
      "outputs": [],
      "stateMutability": "nonpayable",
      "type": "function"
    },
    {
      "inputs": [
        {
          "internalType": "bytes32",
          "name": "_hashAction",
          "type": "bytes32"
        },
        {
          "internalType": "bool",
          "name": "_vote",
          "type": "bool"
        }
      ],
      "name": "vote",
      "outputs": [],
      "stateMutability": "nonpayable",
      "type": "function"
    }
  ],
  "bytecode": {
    "object": "60806040523480156200001157600080fd5b506040518060600160405280738bc74ff2860270bc3305efc38f88dce4c15e53a173ffffffffffffffffffffffffffffffffffffffff1673ffffffffffffffffffffffffffffffffffffffff16815260200172e64163b622490a023adb804d6c1adf16f65d8673ffffffffffffffffffffffffffffffffffffffff1673ffffffffffffffffffffffffffffffffffffffff168152602001732d6eccf5a635064135579b128e75d68eec204b1673ffffffffffffffffffffffffffffffffffffffff1673ffffffffffffffffffffffffffffffffffffffff168152506000906003620000fe92919062000166565b50738bc74ff2860270bc3305efc38f88dce4c15e53a1600260006101000a81548173ffffffffffffffffffffffffffffffffffffffff021916908373ffffffffffffffffffffffffffffffffffffffff1602179055506000805490506001819055506200023b565b828054828255906000526020600020908101928215620001e2579160200282015b82811115620001e15782518260006101000a81548173ffffffffffffffffffffffffffffffffffffffff021916908373ffffffffffffffffffffffffffffffffffffffff1602179055509160200191906001019062000187565b5b509050620001f19190620001f5565b5090565b6200023891905b808211156200023457600081816101000a81549073ffffffffffffffffffffffffffffffffffffffff021916905550600101620001fc565b5090565b90565b612155806200024b6000396000f3fe6080604052600436106100fe5760003560e01c80638190c9c311610095578063a6430cc011610064578063a6430cc0146106e5578063a9059cbb14610760578063afc46617146107bb578063c66b581414610861578063f3abde32146108af576100fe565b80638190c9c3146104fb5780639399a8a8146105a15780639bccfe49146106735780639f2ce6781461069e576100fe565b806359ec4e46116100d157806359ec4e461461029e5780635f0183031461031c578063710fd5d51461036b57806376883a601461043d576100fe565b806312065fe014610103578063433521f81461012e578063453c26c8146101d4578063504ac3831461024f575b600080fd5b34801561010f57600080fd5b506101186109c6565b6040518082815260200191505060405180910390f35b34801561013a57600080fd5b5061017d6004803603602081101561015157600080fd5b81019080803573ffffffffffffffffffffffffffffffffffffffff169060200190929190505050610a93565b6040518080602001828103825283818151815260200191508051906020019060200280838360005b838110156101c05780820151818401526020810190506101a5565b505050509050019250505060405180910390f35b3480156101e057600080fd5b5061020d600480360360208110156101f757600080fd5b8101908080359060200190929190505050610b2d565b604051808273ffffffffffffffffffffffffffffffffffffffff1673ffffffffffffffffffffffffffffffffffffffff16815260200191505060405180910390f35b34801561025b57600080fd5b506102886004803603602081101561027257600080fd5b8101908080359060200190929190505050610c10565b6040518082815260200191505060405180910390f35b3480156102aa57600080fd5b506102ed600480360360208110156102c157600080fd5b81019080803573ffffffffffffffffffffffffffffffffffffffff169060200190929190505050610c31565b604051808515151515815260200184815260200183815260200182815260200194505050505060405180910390f35b34801561032857600080fd5b506103556004803603602081101561033f57600080fd5b8101908080359060200190929190505050610c6e565b6040518082815260200191505060405180910390f35b34801561037757600080fd5b5061043b6004803603604081101561038e57600080fd5b8101908080359060200190929190803590602001906401000000008111156103b557600080fd5b8201836020820111156103c757600080fd5b803590602001918460018302840111640100000000831117156103e957600080fd5b91908080601f016020809104026020016040519081016040528093929190818152602001838380828437600081840152601f19601f820116905080830192505050505050509192919290505050610d2b565b005b34801561044957600080fd5b506104806004803603604081101561046057600080fd5b8101908080359060200190929190803590602001909291905050506110f3565b6040518080602001828103825283818151815260200191508051906020019080838360005b838110156104c05780820151818401526020810190506104a5565b50505050905090810190601f1680156104ed5780820380516001836020036101000a031916815260200191505b509250505060405180910390f35b34801561050757600080fd5b5061054a6004803603602081101561051e57600080fd5b81019080803573ffffffffffffffffffffffffffffffffffffffff16906020019092919050505061125e565b6040518080602001828103825283818151815260200191508051906020019060200280838360005b8381101561058d578082015181840152602081019050610572565b505050509050019250505060405180910390f35b3480156105ad57600080fd5b50610671600480360360408110156105c457600080fd5b8101908080359060200190929190803590602001906401000000008111156105eb57600080fd5b8201836020820111156105fd57600080fd5b8035906020019184600183028401116401000000008311171561061f57600080fd5b91908080601f016020809104026020016040519081016040528093929190818152602001838380828437600081840152601f19601f8201169050808301925050505050505091929192905050506112f8565b005b34801561067f57600080fd5b506106886115b3565b6040518082815260200191505060405180910390f35b3480156106aa57600080fd5b506106e3600480360360408110156106c157600080fd5b81019080803590602001909291908035151590602001909291905050506115b9565b005b3480156106f157600080fd5b5061071e6004803603602081101561070857600080fd5b810190808035906020019092919050505061186e565b604051808273ffffffffffffffffffffffffffffffffffffffff1673ffffffffffffffffffffffffffffffffffffffff16815260200191505060405180910390f35b34801561076c57600080fd5b506107b96004803603604081101561078357600080fd5b81019080803573ffffffffffffffffffffffffffffffffffffffff169060200190929190803590602001909291905050506118aa565b005b3480156107c757600080fd5b5061080a600480360360208110156107de57600080fd5b81019080803573ffffffffffffffffffffffffffffffffffffffff1690602001909291905050506119ab565b6040518080602001828103825283818151815260200191508051906020019060200280838360005b8381101561084d578082015181840152602081019050610832565b505050509050019250505060405180910390f35b6108ad6004803603604081101561087757600080fd5b8101908080359060200190929190803573ffffffffffffffffffffffffffffffffffffffff169060200190929190505050611a45565b005b3480156108bb57600080fd5b506108e8600480360360208110156108d257600080fd5b8101908080359060200190929190505050611f37565b604051808a1515151581526020018981526020018881526020018773ffffffffffffffffffffffffffffffffffffffff1673ffffffffffffffffffffffffffffffffffffffff1681526020018673ffffffffffffffffffffffffffffffffffffffff1673ffffffffffffffffffffffffffffffffffffffff1681526020018573ffffffffffffffffffffffffffffffffffffffff1673ffffffffffffffffffffffffffffffffffffffff1681526020018415151515815260200183151515158152602001828152602001995050505050505050505060405180910390f35b60003373ffffffffffffffffffffffffffffffffffffffff16600260009054906101000a900473ffffffffffffffffffffffffffffffffffffffff1673ffffffffffffffffffffffffffffffffffffffff1614610a8b576040517f08c379a00000000000000000000000000000000000000000000000000000000081526004018080602001828103825260188152602001807f4f6e6c79206f776e65722063616e2073656520666565732e000000000000000081525060200191505060405180910390fd5b600354905090565b6060600760008373ffffffffffffffffffffffffffffffffffffffff1673ffffffffffffffffffffffffffffffffffffffff168152602001908152602001600020600201805480602002602001604051908101604052809291908181526020018280548015610b2157602002820191906000526020600020905b815481526020019060010190808311610b0d575b50505050509050919050565b60008060016006600085815260200190815260200160002060020154019050438110610bc1576040517f08c379a00000000000000000000000000000000000000000000000000000000081526004018080602001828103825260168152602001807f5761697420666f72206f7468657220626c6f636b732e0000000000000000000081525060200191505060405180910390fd5b6000600154824060001c81610bd257fe5b0681548110610bdd57fe5b9060005260206000200160009054906101000a900473ffffffffffffffffffffffffffffffffffffffff16915050919050565b60048181548110610c1d57fe5b906000526020600020016000915090505481565b60076020528060005260406000206000915090508060000160009054906101000a900460ff16908060040154908060050154908060060154905084565b6000600115156006600084815260200190815260200160002060000160009054906101000a900460ff16151514610d0d576040517f08c379a00000000000000000000000000000000000000000000000000000000081526004018080602001828103825260178152602001807f436f6e747261637420646f65736e27742065786973742e00000000000000000081525060200191505060405180910390fd5b60066000838152602001908152602001600020600701549050919050565b600115156006600084815260200190815260200160002060000160009054906101000a900460ff16151514610dc8576040517f08c379a00000000000000000000000000000000000000000000000000000000081526004018080602001828103825260178152602001807f436f6e747261637420646f65736e27742065786973742e00000000000000000081525060200191505060405180910390fd5b3373ffffffffffffffffffffffffffffffffffffffff166006600084815260200190815260200160002060030160009054906101000a900473ffffffffffffffffffffffffffffffffffffffff1673ffffffffffffffffffffffffffffffffffffffff1614610e82576040517f08c379a00000000000000000000000000000000000000000000000000000000081526004018080602001828103825260258152602001806120fb6025913960400191505060405180910390fd5b6000610e8d83610c6e565b14610f00576040517f08c379a000000000000000000000000000000000000000000000000000000000815260040180806020018281038252601b8152602001807f416374696f6e2068617320746f206265207375626d69747465642e000000000081525060200191505060405180910390fd5b6000610f0b83610b2d565b90506001600760008373ffffffffffffffffffffffffffffffffffffffff1673ffffffffffffffffffffffffffffffffffffffff16815260200190815260200160002060000160006101000a81548160ff021916908315150217905550600760008273ffffffffffffffffffffffffffffffffffffffff1673ffffffffffffffffffffffffffffffffffffffff168152602001908152602001600020600301839080600181540180825580915050600190039060005260206000200160009091909190915055600760008273ffffffffffffffffffffffffffffffffffffffff1673ffffffffffffffffffffffffffffffffffffffff16815260200190815260200160002060060160008154809291906001019190505550806006600085815260200190815260200160002060050160006101000a81548173ffffffffffffffffffffffffffffffffffffffff021916908373ffffffffffffffffffffffffffffffffffffffff16021790555060066000848152602001908152602001600020600601829080600181540180825580915050600190039060005260206000200160009091909190915090805190602001906110c792919061200c565b506006600084815260200190815260200160002060070160008154809291906001019190505550505050565b6060600115156006600085815260200190815260200160002060000160009054906101000a900460ff16151514611192576040517f08c379a00000000000000000000000000000000000000000000000000000000081526004018080602001828103825260178152602001807f436f6e747261637420646f65736e27742065786973742e00000000000000000081525060200191505060405180910390fd5b6006600084815260200190815260200160002060060182815481106111b357fe5b906000526020600020018054600181600116156101000203166002900480601f0160208091040260200160405190810160405280929190818152602001828054600181600116156101000203166002900480156112515780601f1061122657610100808354040283529160200191611251565b820191906000526020600020905b81548152906001019060200180831161123457829003601f168201915b5050505050905092915050565b6060600760008373ffffffffffffffffffffffffffffffffffffffff1673ffffffffffffffffffffffffffffffffffffffff1681526020019081526020016000206003018054806020026020016040519081016040528092919081815260200182805480156112ec57602002820191906000526020600020905b8154815260200190600101908083116112d8575b50505050509050919050565b600115156006600084815260200190815260200160002060000160009054906101000a900460ff16151514611395576040517f08c379a00000000000000000000000000000000000000000000000000000000081526004018080602001828103825260178152602001807f436f6e747261637420646f65736e27742065786973742e00000000000000000081525060200191505060405180910390fd5b3373ffffffffffffffffffffffffffffffffffffffff166006600084815260200190815260200160002060030160009054906101000a900473ffffffffffffffffffffffffffffffffffffffff1673ffffffffffffffffffffffffffffffffffffffff16148061146657503373ffffffffffffffffffffffffffffffffffffffff166006600084815260200190815260200160002060040160009054906101000a900473ffffffffffffffffffffffffffffffffffffffff1673ffffffffffffffffffffffffffffffffffffffff16145b6114bb576040517f08c379a00000000000000000000000000000000000000000000000000000000081526004018080602001828103825260218152602001806120da6021913960400191505060405180910390fd5b60006114c683610c6e565b11611539576040517f08c379a000000000000000000000000000000000000000000000000000000000815260040180806020018281038252601b8152602001807f416374696f6e2068617320746f206265207375626d69747465642e000000000081525060200191505060405180910390fd5b600660008381526020019081526020016000206006018190806001815401808255809150506001900390600052602060002001600090919091909150908051906020019061158892919061200c565b5060066000838152602001908152602001600020600701600081548092919060010191905055505050565b60055481565b600115156006600084815260200190815260200160002060000160009054906101000a900460ff16151514611656576040517f08c379a00000000000000000000000000000000000000000000000000000000081526004018080602001828103825260148152602001807f416374696f6e2073686f756c642065786973742e00000000000000000000000081525060200191505060405180910390fd5b600015156006600084815260200190815260200160002060050160149054906101000a900460ff161515146116f3576040517f08c379a00000000000000000000000000000000000000000000000000000000081526004018080602001828103825260148152602001807f566f74652068617365206265656e20646f6e652e00000000000000000000000081525060200191505060405180910390fd5b6006600083815260200190815260200160002060050160009054906101000a900473ffffffffffffffffffffffffffffffffffffffff1673ffffffffffffffffffffffffffffffffffffffff163373ffffffffffffffffffffffffffffffffffffffff16146117ca576040517f08c379a000000000000000000000000000000000000000000000000000000000815260040180806020018281038252601d8152602001807f596f7520617265206e6f742073656c656374656420617262697465722e00000081525060200191505060405180910390fd5b806006600084815260200190815260200160002060050160156101000a81548160ff02191690831515021790555060016006600084815260200190815260200160002060050160146101000a81548160ff0219169083151502179055507ff06bc37b406a13ac2d758c5f946e15c0a1cf713b226a433f8f824b657956b35a828260405180838152602001821515151581526020019250505060405180910390a15050565b6000818154811061187b57fe5b906000526020600020016000915054906101000a900473ffffffffffffffffffffffffffffffffffffffff1681565b3373ffffffffffffffffffffffffffffffffffffffff16600260009054906101000a900473ffffffffffffffffffffffffffffffffffffffff1673ffffffffffffffffffffffffffffffffffffffff1614611950576040517f08c379a00000000000000000000000000000000000000000000000000000000081526004018080602001828103825260288152602001806120b26028913960400191505060405180910390fd5b8173ffffffffffffffffffffffffffffffffffffffff166108fc829081150290604051600060405180830381858888f19350505050158015611996573d6000803e3d6000fd5b50806003600082825403925050819055505050565b6060600760008373ffffffffffffffffffffffffffffffffffffffff1673ffffffffffffffffffffffffffffffffffffffff168152602001908152602001600020600101805480602002602001604051908101604052809291908181526020018280548015611a3957602002820191906000526020600020905b815481526020019060010190808311611a25575b50505050509050919050565b600015156006600084815260200190815260200160002060000160009054906101000a900460ff16151514611ae2576040517f08c379a000000000000000000000000000000000000000000000000000000000815260040180806020018281038252600e8152602001807f416374696f6e206578697374732e00000000000000000000000000000000000081525060200191505060405180910390fd5b6611c37937e08000341015611b5f576040517f08c379a000000000000000000000000000000000000000000000000000000000815260040180806020018281038252600f8152602001807f46656520697320746f6f206c6f772e000000000000000000000000000000000081525060200191505060405180910390fd5b600560008154809291906001019190505550600482908060018154018082558091505060019003906000526020600020016000909190919091505560016006600084815260200190815260200160002060000160006101000a81548160ff021916908315150217905550436006600084815260200190815260200160002060020181905550336006600084815260200190815260200160002060030160006101000a81548173ffffffffffffffffffffffffffffffffffffffff021916908373ffffffffffffffffffffffffffffffffffffffff160217905550806006600084815260200190815260200160002060040160006101000a81548173ffffffffffffffffffffffffffffffffffffffff021916908373ffffffffffffffffffffffffffffffffffffffff1602179055508160066000848152602001908152602001600020600101819055506001600760003373ffffffffffffffffffffffffffffffffffffffff1673ffffffffffffffffffffffffffffffffffffffff16815260200190815260200160002060000160006101000a81548160ff021916908315150217905550600760003373ffffffffffffffffffffffffffffffffffffffff1673ffffffffffffffffffffffffffffffffffffffff168152602001908152602001600020600101829080600181540180825580915050600190039060005260206000200160009091909190915055600760003373ffffffffffffffffffffffffffffffffffffffff1673ffffffffffffffffffffffffffffffffffffffff168152602001908152602001600020600401600081548092919060010191905055506001600760008373ffffffffffffffffffffffffffffffffffffffff1673ffffffffffffffffffffffffffffffffffffffff16815260200190815260200160002060000160006101000a81548160ff021916908315150217905550600760008273ffffffffffffffffffffffffffffffffffffffff1673ffffffffffffffffffffffffffffffffffffffff168152602001908152602001600020600201829080600181540180825580915050600190039060005260206000200160009091909190915055600760008273ffffffffffffffffffffffffffffffffffffffff1673ffffffffffffffffffffffffffffffffffffffff16815260200190815260200160002060050160008154809291906001019190505550346003600082825401925050819055503373ffffffffffffffffffffffffffffffffffffffff167fe1fffcc4923d04b559f4d29a8bfc6cda04eb5b0d3c460751c2402c5c5cc9109c346040518082815260200191505060405180910390a25050565b60066020528060005260406000206000915090508060000160009054906101000a900460ff16908060010154908060020154908060030160009054906101000a900473ffffffffffffffffffffffffffffffffffffffff16908060040160009054906101000a900473ffffffffffffffffffffffffffffffffffffffff16908060050160009054906101000a900473ffffffffffffffffffffffffffffffffffffffff16908060050160149054906101000a900460ff16908060050160159054906101000a900460ff16908060070154905089565b828054600181600116156101000203166002900490600052602060002090601f016020900481019282601f1061204d57805160ff191683800117855561207b565b8280016001018555821561207b579182015b8281111561207a57825182559160200191906001019061205f565b5b509050612088919061208c565b5090565b6120ae91905b808211156120aa576000816000905550600101612092565b5090565b9056fe4f6e6c79206f776e65722063616e2073656e6420636f696e732066726f6d20636f6e74726163742e4f6e6c792070617274792063616e207375626d6974206120646f63756d656e742e4f6e6c7920706c61696e746966662063616e207375626d69742074686520616374696f6e2ea26469706673582212203e64c2a596a868d6ebb2b6f06003974191b40af52b333d1bec6a7704efe1b65b64736f6c63430006060033"
  }
}