{"compiler":"v0.5.17+commit.d19bba13","opcodeHash":"0x36e5fbd66b7b88495a25d429733e39a4ac170b3b76e5ae3e51b0972a18630b0f","metalessHash":"0x4865730cbf5a39d7a6886c399c614156a5d29311f6c184777bca04ef21f932fa","runtimeHash":"0x4426023aa83a75baa8180a4723617807404a283fa3063783eea9498833170c32","encodedMetadata":[{"bzzr1":"/swarm/bzzr1/722c4869f5827b6dc171f1567663ff50bbfacbe0b0d03c4093beea5b6b750f11","solc":"0.5.17"}],"abi":[{"inputs":[{"internalType":"address","name":"mario","type":"address"},{"internalType":"address","name":"usdt","type":"address"}],"payable":false,"stateMutability":"nonpayable","type":"constructor"},{"anonymous":false,"inputs":[{"indexed":true,"internalType":"address","name":"uaddress","type":"address"},{"indexed":false,"internalType":"uint256","name":"level","type":"uint256"},{"indexed":false,"internalType":"uint256","name":"amount","type":"uint256"},{"indexed":false,"internalType":"uint256","name":"award","type":"uint256"}],"name":"AllotLevelAward","type":"event"},{"anonymous":false,"inputs":[{"indexed":true,"internalType":"address","name":"uaddress","type":"address"},{"indexed":true,"internalType":"address","name":"raddress","type":"address"},{"indexed":false,"internalType":"uint256","name":"award","type":"uint256"},{"indexed":false,"internalType":"uint8","name":"gen","type":"uint8"}],"name":"AllotRecommend","type":"event"},{"anonymous":false,"inputs":[{"indexed":true,"internalType":"address","name":"uaddress","type":"address"},{"indexed":false,"internalType":"uint256","name":"award","type":"uint256"},{"indexed":false,"internalType":"uint256","name":"lastMass","type":"uint256"},{"indexed":false,"internalType":"uint256","name":"targetMass","type":"uint256"}],"name":"AllotSelfTeam","type":"event"},{"anonymous":false,"inputs":[{"indexed":true,"internalType":"address","name":"operator","type":"address"},{"indexed":false,"internalType":"uint256","name":"level","type":"uint256"},{"indexed":false,"internalType":"uint256","name":"price","type":"uint256"},{"indexed":false,"internalType":"uint256","name":"num","type":"uint256"},{"indexed":false,"internalType":"uint256","name":"earn","type":"uint256"},{"indexed":false,"internalType":"uint256","name":"tenancy","type":"uint256"},{"indexed":false,"internalType":"uint256[3]","name":"sharePercent","type":"uint256[3]"},{"indexed":false,"internalType":"bytes32","name":"name","type":"bytes32"}],"name":"InitMill","type":"event"},{"anonymous":false,"inputs":[{"indexed":true,"internalType":"address","name":"previousOwner","type":"address"},{"indexed":true,"internalType":"address","name":"newOwner","type":"address"}],"name":"OwnershipTransferred","type":"event"},{"anonymous":false,"inputs":[{"indexed":true,"internalType":"address","name":"uaddress","type":"address"},{"indexed":true,"internalType":"address","name":"raddress","type":"address"}],"name":"Regist","type":"event"},{"anonymous":false,"inputs":[{"indexed":true,"internalType":"address","name":"operator","type":"address"},{"indexed":false,"internalType":"uint256","name":"level","type":"uint256"},{"indexed":false,"internalType":"uint256","name":"price","type":"uint256"},{"indexed":false,"internalType":"uint256","name":"num","type":"uint256"},{"indexed":false,"internalType":"uint256","name":"earn","type":"uint256"},{"indexed":false,"internalType":"uint256","name":"tenancy","type":"uint256"},{"indexed":false,"internalType":"uint256[3]","name":"sharePercent","type":"uint256[3]"},{"indexed":false,"internalType":"bytes32","name":"name","type":"bytes32"}],"name":"SetMill","type":"event"},{"anonymous":false,"inputs":[{"indexed":true,"internalType":"address","name":"operator","type":"address"},{"indexed":false,"internalType":"string","name":"notice","type":"string"}],"name":"SetNotice","type":"event"},{"anonymous":false,"inputs":[{"indexed":true,"internalType":"address","name":"uaddress","type":"address"},{"indexed":false,"internalType":"bool","name":"status","type":"bool"}],"name":"SetPermission","type":"event"},{"anonymous":false,"inputs":[{"indexed":true,"internalType":"address","name":"operator","type":"address"},{"indexed":false,"internalType":"uint256","name":"_withdrawals","type":"uint256"},{"indexed":false,"internalType":"uint256","name":"_withdrawFee","type":"uint256"},{"indexed":false,"internalType":"uint256","name":"_withdrawLimit","type":"uint256"}],"name":"SetWithdrawals","type":"event"},{"anonymous":false,"inputs":[{"indexed":true,"internalType":"address","name":"uaddress","type":"address"},{"indexed":false,"internalType":"uint8","name":"level","type":"uint8"},{"indexed":false,"internalType":"uint256","name":"amount","type":"uint256"}],"name":"Subscribe","type":"event"},{"anonymous":false,"inputs":[{"indexed":true,"internalType":"address","name":"operator","type":"address"},{"indexed":true,"internalType":"address","name":"to","type":"address"},{"indexed":false,"internalType":"uint256","name":"amount","type":"uint256"}],"name":"TakeOf","type":"event"},{"anonymous":false,"inputs":[{"indexed":true,"internalType":"address","name":"uaddress","type":"address"},{"indexed":false,"internalType":"uint256","name":"mining","type":"uint256"},{"indexed":false,"internalType":"uint256","name":"share","type":"uint256"},{"indexed":false,"internalType":"uint256","name":"recommend1","type":"uint256"},{"indexed":false,"internalType":"uint256","name":"recommend2","type":"uint256"}],"name":"Withdraw","type":"event"},{"constant":true,"inputs":[],"name":"USDT","outputs":[{"internalType":"address","name":"","type":"address"}],"payable":false,"stateMutability":"view","type":"function"},{"constant":false,"inputs":[{"internalType":"address","name":"uaddress","type":"address"}],"name":"active","outputs":[{"internalType":"bool","name":"","type":"bool"}],"payable":false,"stateMutability":"nonpayable","type":"function"},{"constant":true,"inputs":[{"internalType":"uint256","name":"","type":"uint256"}],"name":"addressIndexs","outputs":[{"internalType":"address","name":"","type":"address"}],"payable":false,"stateMutability":"view","type":"function"},{"constant":true,"inputs":[],"name":"depositAmount","outputs":[{"internalType":"uint256","name":"","type":"uint256"}],"payable":false,"stateMutability":"view","type":"function"},{"constant":true,"inputs":[],"name":"duration","outputs":[{"internalType":"uint256","name":"","type":"uint256"}],"payable":false,"stateMutability":"view","type":"function"},{"constant":true,"inputs":[{"internalType":"address","name":"","type":"address"}],"name":"earns","outputs":[{"internalType":"uint256","name":"mining","type":"uint256"},{"internalType":"uint256","name":"recommend1","type":"uint256"},{"internalType":"uint256","name":"recommend2","type":"uint256"},{"internalType":"uint256","name":"share","type":"uint256"}],"payable":false,"stateMutability":"view","type":"function"},{"constant":true,"inputs":[{"internalType":"uint256","name":"","type":"uint256"},{"internalType":"uint256","name":"","type":"uint256"}],"name":"expirationMills","outputs":[{"internalType":"uint256","name":"","type":"uint256"}],"payable":false,"stateMutability":"view","type":"function"},{"constant":true,"inputs":[],"name":"findCharge","outputs":[{"internalType":"uint256[]","name":"yesterdayMills","type":"uint256[]"},{"internalType":"uint256[]","name":"currentMills","type":"uint256[]"},{"internalType":"uint256","name":"todayNeed","type":"uint256"},{"internalType":"uint256","name":"tomorrowNeed","type":"uint256"}],"payable":false,"stateMutability":"view","type":"function"},{"constant":true,"inputs":[{"internalType":"address","name":"uaddress","type":"address"}],"name":"findEarn","outputs":[{"internalType":"uint256","name":"","type":"uint256"},{"internalType":"uint256","name":"","type":"uint256"},{"internalType":"uint256","name":"","type":"uint256"},{"internalType":"uint256","name":"","type":"uint256"}],"payable":false,"stateMutability":"view","type":"function"},{"constant":true,"inputs":[],"name":"getMills","outputs":[{"internalType":"uint256[]","name":"prices","type":"uint256[]"},{"internalType":"uint256[]","name":"nums","type":"uint256[]"},{"internalType":"uint256[]","name":"rates","type":"uint256[]"},{"internalType":"uint256[]","name":"tenancy","type":"uint256[]"},{"internalType":"bytes32[]","name":"names","type":"bytes32[]"},{"internalType":"uint256[]","name":"residues","type":"uint256[]"}],"payable":false,"stateMutability":"view","type":"function"},{"constant":true,"inputs":[],"name":"getOperators","outputs":[{"internalType":"address[]","name":"_operators","type":"address[]"},{"internalType":"bool[]","name":"_permissions","type":"bool[]"}],"payable":false,"stateMutability":"view","type":"function"},{"constant":true,"inputs":[{"internalType":"address","name":"uaddress","type":"address"}],"name":"getPersonalStats","outputs":[{"internalType":"uint256[13]","name":"stats","type":"uint256[13]"}],"payable":false,"stateMutability":"view","type":"function"},{"constant":true,"inputs":[{"internalType":"address","name":"uaddress","type":"address"}],"name":"getTeamStats","outputs":[{"internalType":"uint256[3]","name":"stats","type":"uint256[3]"},{"internalType":"address[]","name":"","type":"address[]"},{"internalType":"uint256[]","name":"","type":"uint256[]"}],"payable":false,"stateMutability":"view","type":"function"},{"constant":true,"inputs":[],"name":"getWithdrawals","outputs":[{"internalType":"uint256","name":"","type":"uint256"},{"internalType":"uint256","name":"","type":"uint256"},{"internalType":"uint256","name":"","type":"uint256"}],"payable":false,"stateMutability":"view","type":"function"},{"constant":true,"inputs":[{"internalType":"uint256","name":"","type":"uint256"},{"internalType":"uint256","name":"","type":"uint256"}],"name":"increasedMills","outputs":[{"internalType":"uint256","name":"","type":"uint256"}],"payable":false,"stateMutability":"view","type":"function"},{"constant":false,"inputs":[{"internalType":"uint256","name":"price","type":"uint256"},{"internalType":"uint256","name":"num","type":"uint256"},{"internalType":"uint256","name":"earn","type":"uint256"},{"internalType":"uint256","name":"tenancy","type":"uint256"},{"internalType":"uint256[3]","name":"sharePercent","type":"uint256[3]"},{"internalType":"bytes32","name":"name","type":"bytes32"}],"name":"initMill","outputs":[{"internalType":"uint256","name":"level","type":"uint256"}],"payable":false,"stateMutability":"nonpayable","type":"function"},{"constant":true,"inputs":[],"name":"isOwner","outputs":[{"internalType":"bool","name":"","type":"bool"}],"payable":false,"stateMutability":"view","type":"function"},{"constant":true,"inputs":[],"name":"levels","outputs":[{"internalType":"uint256","name":"","type":"uint256"}],"payable":false,"stateMutability":"view","type":"function"},{"constant":true,"inputs":[{"internalType":"uint256","name":"","type":"uint256"}],"name":"millNums","outputs":[{"internalType":"uint256","name":"","type":"uint256"}],"payable":false,"stateMutability":"view","type":"function"},{"constant":true,"inputs":[{"internalType":"uint256","name":"","type":"uint256"}],"name":"mills","outputs":[{"internalType":"uint256","name":"price","type":"uint256"},{"internalType":"uint256","name":"num","type":"uint256"},{"internalType":"uint256","name":"earn","type":"uint256"},{"internalType":"uint256","name":"tenancy","type":"uint256"},{"internalType":"bytes32","name":"name","type":"bytes32"}],"payable":false,"stateMutability":"view","type":"function"},{"constant":true,"inputs":[{"internalType":"uint256","name":"","type":"uint256"}],"name":"operators","outputs":[{"internalType":"address","name":"","type":"address"}],"payable":false,"stateMutability":"view","type":"function"},{"constant":true,"inputs":[],"name":"overview","outputs":[{"internalType":"uint256[4]","name":"stats","type":"uint256[4]"},{"internalType":"uint256[]","name":"","type":"uint256[]"}],"payable":false,"stateMutability":"view","type":"function"},{"constant":true,"inputs":[],"name":"owner","outputs":[{"internalType":"address","name":"","type":"address"}],"payable":false,"stateMutability":"view","type":"function"},{"constant":false,"inputs":[],"name":"renounceOwnership","outputs":[],"payable":false,"stateMutability":"nonpayable","type":"function"},{"constant":false,"inputs":[{"internalType":"uint256","name":"level","type":"uint256"},{"internalType":"uint256","name":"price","type":"uint256"},{"internalType":"uint256","name":"num","type":"uint256"},{"internalType":"uint256","name":"earn","type":"uint256"},{"internalType":"uint256","name":"tenancy","type":"uint256"},{"internalType":"uint256[3]","name":"sharePercent","type":"uint256[3]"},{"internalType":"bytes32","name":"name","type":"bytes32"}],"name":"setMill","outputs":[],"payable":false,"stateMutability":"nonpayable","type":"function"},{"constant":false,"inputs":[{"internalType":"address","name":"uaddress","type":"address"},{"internalType":"bool","name":"status","type":"bool"}],"name":"setPermission","outputs":[],"payable":false,"stateMutability":"nonpayable","type":"function"},{"constant":false,"inputs":[{"internalType":"uint256","name":"_withdrawals","type":"uint256"},{"internalType":"uint256","name":"_withdrawFee","type":"uint256"},{"internalType":"uint256","name":"_withdrawLimit","type":"uint256"}],"name":"setWithdrawals","outputs":[],"payable":false,"stateMutability":"nonpayable","type":"function"},{"constant":false,"inputs":[{"internalType":"uint8","name":"level","type":"uint8"}],"name":"subscribe","outputs":[{"internalType":"bool","name":"","type":"bool"}],"payable":false,"stateMutability":"nonpayable","type":"function"},{"constant":false,"inputs":[{"internalType":"address","name":"to","type":"address"},{"internalType":"uint256","name":"amount","type":"uint256"}],"name":"takeOf","outputs":[],"payable":false,"stateMutability":"nonpayable","type":"function"},{"constant":true,"inputs":[],"name":"timePointer","outputs":[{"internalType":"uint256","name":"","type":"uint256"}],"payable":false,"stateMutability":"view","type":"function"},{"constant":false,"inputs":[{"internalType":"address","name":"to","type":"address"},{"internalType":"address","name":"token","type":"address"}],"name":"transferAll","outputs":[],"payable":false,"stateMutability":"nonpayable","type":"function"},{"constant":false,"inputs":[{"internalType":"address","name":"newOwner","type":"address"}],"name":"transferOwnership","outputs":[],"payable":false,"stateMutability":"nonpayable","type":"function"},{"constant":true,"inputs":[{"internalType":"address","name":"","type":"address"}],"name":"umbrellas","outputs":[{"internalType":"uint256","name":"headcount","type":"uint256"},{"internalType":"uint256","name":"performance","type":"uint256"}],"payable":false,"stateMutability":"view","type":"function"},{"constant":true,"inputs":[],"name":"userCounter","outputs":[{"internalType":"uint256","name":"","type":"uint256"}],"payable":false,"stateMutability":"view","type":"function"},{"constant":true,"inputs":[{"internalType":"address","name":"","type":"address"}],"name":"users","outputs":[{"internalType":"uint256","name":"id","type":"uint256"},{"internalType":"address","name":"referer","type":"address"},{"internalType":"uint256","name":"mass","type":"uint256"},{"internalType":"uint256","name":"secondRecommendNum","type":"uint256"},{"internalType":"uint256","name":"level","type":"uint256"},{"internalType":"uint256","name":"upgradeTime","type":"uint256"},{"internalType":"uint256","name":"teamTotalAward","type":"uint256"}],"payable":false,"stateMutability":"view","type":"function"},{"constant":true,"inputs":[{"internalType":"address","name":"","type":"address"}],"name":"uwithdrawals","outputs":[{"internalType":"uint256","name":"mining","type":"uint256"},{"internalType":"uint256","name":"recommend1","type":"uint256"},{"internalType":"uint256","name":"recommend2","type":"uint256"},{"internalType":"uint256","name":"share","type":"uint256"},{"internalType":"uint256","name":"withdrawTime","type":"uint256"}],"payable":false,"stateMutability":"view","type":"function"},{"constant":false,"inputs":[],"name":"withdraw","outputs":[{"internalType":"uint256","name":"award","type":"uint256"}],"payable":false,"stateMutability":"nonpayable","type":"function"},{"constant":true,"inputs":[{"internalType":"uint256","name":"","type":"uint256"},{"internalType":"address","name":"","type":"address"}],"name":"withdrawRecords","outputs":[{"internalType":"uint256","name":"","type":"uint256"}],"payable":false,"stateMutability":"view","type":"function"}],"bytecode":{"object":"6101606040526000608090815263b2d05e0060a05264012a05f20060c052640218711a0060e05264037e11d600610100526404a817c800610120526406fc23ac00610140526200005490600190600762000da7565b503480156200006257600080fd5b50604051620058ad380380620058ad833981810160405260408110156200008857600080fd5b5080516020909101516000620000a66001600160e01b03620003d016565b600080546001600160a01b0319166001600160a01b0383169081178255604051929350917f8be0079c531659141344cd1fd0a4f28419497f9722a3daafe3b4186f6b6457e0908290a350620001063360016001600160e01b03620003d516565b62000143600080600080604051806060016040528060008152602001600081526020016000815250644b6f6f706160d81b6200051360201b60201c565b50620001896305f5e100610384600d629e340060405180606001604052806000815260200160008152602001600081525064596f73686960d81b6200051360201b60201c565b50620001cf630bebc2006101f4600c62ed4e0060405180606001604052806008815260200160048152602001600081525064576172696f60d81b6200051360201b60201c565b5062000217631dcd65006101f4600b63018b8200604051806060016040528060088152602001600481526020016001815250652137bbb9b2b960d11b6200051360201b60201c565b506200025d633b9aca0061012c600b6301da9c0060405180606001604052806008815260200160048152602001600181525063151bd85960e21b6200051360201b60201c565b50620002a363b2d05e006078600b6301da9c00604051806060016040528060088152602001600481526020016001815250640a0cac2c6d60db1b6200051360201b60201c565b50620002ec64012a05f2006032600b6301da9c00604051806060016040528060088152602001600481526020016001815250665061756c696e6560c81b6200051360201b60201c565b50620003336402540be4006014600a6301da9c0060405180606001604052806008815260200160048152602001600181525064446169737960d81b6200051360201b60201c565b506200037a6406fc23ac00600c600a6301da9c00604051806060016040528060088152602001600481526020016001815250644d6172696f60d81b6200051360201b60201c565b506200039360636000806001600160e01b036200069116565b620003a98260006001600160e01b036200073d16565b601080546001600160a01b0319166001600160a01b03929092169190911790555062000f6e565b335b90565b620003e86001600160e01b036200097616565b6200043a576040805162461bcd60e51b815260206004820181905260248201527f4f776e61626c653a2063616c6c6572206973206e6f7420746865206f776e6572604482015290519081900360640190fd5b6001600160a01b0382166000908152600f602090815260408220805460ff19168415151790556200047990600d908590620009a5811b62003d2c17901c565b905080620004cd57600980546001810182556000919091527f6e1540171b6c0c960b71a7020d9f60077f6af931a8bbf590da0223dacf75c7af0180546001600160a01b0319166001600160a01b0385161790555b60408051831515815290516001600160a01b038516917fe6d671a3906961986125edddc2b9a39e26eb96566c2aae09b945535477b61ed6919081900360200190a2505050565b336000908152600f602052604081205460ff1662000568576040805162461bcd60e51b815260206004820152600d60248201526c1858d8d95cdcc819195b9a5959609a1b604482015290519081900360640190fd5b6008620005838888888888886001600160e01b03620009ce16565b815460018181018085556000948552602094859020845160089094020192835593830151908201556040820151600282015560608201516003808301919091556080830151620005d99160048401919062000dea565b5060a082015181600701555050506008805490509050336001600160a01b03167f8737f6db3e4f9f160a1b5feeed2147498ac97020431f8a6674afd9686d9ef06a828989898989896040518088815260200187815260200186815260200185815260200184815260200183600360200280838360005b83811015620006695781810151838201526020016200064f565b5050505090500182815260200197505050505050505060405180910390a29695505050505050565b336000908152600f602052604090205460ff16620006e6576040805162461bcd60e51b815260206004820152600d60248201526c1858d8d95cdcc819195b9a5959609a1b604482015290519081900360640190fd5b600a839055600b829055600c8190556040805184815260208101849052808201839052905133917f0b1b4c023dc60fa9cfe6c5dec69455f4078e29a6c80fcb29379e4532f83d132a919081900360600190a2505050565b6001600160a01b03811660009081526011602052604090206002810154600311620007af576040805162461bcd60e51b815260206004820152601a60248201527f65786365656420746865205245434f4d4d454e445f4c494d4954000000000000604482015290519081900360640190fd5b620007c483836001600160e01b0362000a0716565b6001600160a01b0384811660009081526011602090815260409182902084518155848201516001820180546001600160a01b031916919095161790935590830151805162000819926002850192019062000e1a565b50606082015160038201556080820151600482015560a0820151600582015560c0820151600682015560e09091015160079091015560028101805460018082018355600092835260209092200180546001600160a01b0319166001600160a01b0386811691909117909155908201541615620008b7576001808201546001600160a01b03166000908152601160205260409020600401805490910190555b620008cf82600060016001600160e01b0362000a8c16565b600080805260166020527f0263c2b778d062355049effc2dece97bc6547ff8a88a3258daa512061c2153dd80546001019055601890620009176001600160e01b0362000b2e16565b81526020808201929092526040908101600090812081805290925280822080546001019055516001600160a01b0380851692908616917fe2623df8e961a83404fc5d094f42e47c8b62b9f8a49a7c8014db5fe0d49234c29190a3505050565b600080546001600160a01b0316620009966001600160e01b03620003d016565b6001600160a01b031614905090565b6000620009c5836001600160a01b0384166001600160e01b0362000b4d16565b90505b92915050565b620009d862000e80565b506040805160c0810182529687526020870195909552938501929092526060840152608083015260a082015290565b62000a1162000ebe565b50601a8054600101808255600090815260156020908152604080832080546001600160a01b0319166001600160a01b0397881617905580516101008101825293548452939094169382019390935260609181018290529081018290526080810182905260a081018290524260c082015260e081019190915290565b8260005b600f81101562000b27576001600160a01b03821662000aaf5762000b27565b821562000adb576001600160a01b03821660009081526013602052604090208054600101905562000afd565b6001600160a01b03821660009081526013602052604090206001018054850190555b6001600160a01b039182166000908152601160205260409020600190810154909216910162000a90565b5050505050565b600062000b48635fedf5806001600160e01b0362000ba516565b905090565b600062000b6483836001600160e01b0362000bf716565b62000b9c57508154600181810184556000848152602080822090930184905584548482528286019093526040902091909155620009c8565b506000620009c8565b60008142101562000bb95750600062000bf2565b62000bef6201518062000bdb844262000c0f60201b620033ef1790919060201c565b62000c5960201b62003b631790919060201c565b90505b919050565b60009081526001919091016020526040902054151590565b6000620009c583836040518060400160405280601e81526020017f536166654d6174683a207375627472616374696f6e206f766572666c6f77000081525062000ca360201b60201c565b6000620009c583836040518060400160405280601a81526020017f536166654d6174683a206469766973696f6e206279207a65726f00000000000081525062000d3e60201b60201c565b6000818484111562000d365760405162461bcd60e51b81526004018080602001828103825283818151815260200191508051906020019080838360005b8381101562000cfa57818101518382015260200162000ce0565b50505050905090810190601f16801562000d285780820380516001836020036101000a031916815260200191505b509250505060405180910390fd5b505050900390565b6000818362000d905760405162461bcd60e51b815260206004820181815283516024840152835190928392604490910191908501908083836000831562000cfa57818101518382015260200162000ce0565b50600083858162000d9d57fe5b0495945050505050565b826007810192821562000dd8579160200282015b8281111562000dd857825182559160200191906001019062000dbb565b5062000de692915062000f0c565b5090565b826003810192821562000dd8579160200282018281111562000dd857825182559160200191906001019062000dbb565b82805482825590600052602060002090810192821562000e72579160200282015b8281111562000e7257825182546001600160a01b0319166001600160a01b0390911617825560209092019160019091019062000e3b565b5062000de692915062000f29565b6040518060c001604052806000815260200160008152602001600081526020016000815260200162000eb162000f50565b8152600060209091015290565b6040518061010001604052806000815260200160006001600160a01b031681526020016060815260200160008152602001600081526020016000815260200160008152602001600081525090565b620003d291905b8082111562000de6576000815560010162000f13565b620003d291905b8082111562000de65780546001600160a01b031916815560010162000f30565b60405180606001604052806003906020820280388339509192915050565b61492f8062000f7e6000396000f3fe608060405234801561001057600080fd5b50600436106102325760003560e01c8063600d330811610130578063bad7f7e2116100b8578063e28d49061161007c578063e28d490614610b64578063ec6263c014610b81578063f0c37a5914610baf578063f2fde38b14610bb7578063f322dc2e14610bdd57610232565b8063bad7f7e214610ab7578063c07e909514610ad4578063c186edac14610af1578063c54e44eb14610b30578063decf4a1d14610b3857610232565b80638da5cb5b116100ff5780638da5cb5b146109515780638f32d59b14610959578063a27c742514610961578063a87430ba14610969578063afce88ec146109cf57610232565b8063600d330814610812578063715018a6146108c15780637693af5d146108c95780637d03360a1461092857610232565b80633a2056f1116101be57806349f6a4131161018257806349f6a413146107575780634b14e003146107905780634ea71327146107be5780634ecf518b146107e457806350d6c1e8146107ec57610232565b80633a2056f11461063d5780633ccfd60b146106c25780633dec1b4c146106ca578063419759f51461071b57806349c7e6391461072357610232565b80631b931459116102055780631b9314591461032757806327a099d81461034a5780632982259b146103eb5780632dc240921461045c578063311eb3cc1461048857610232565b806307097923146102375780630b67824d1461026c5780630fb5a6b4146102d357806318b0333c146102db575b600080fd5b61025a6004803603604081101561024d57600080fd5b5080359060200135610c03565b60408051918252519081900360200190f35b61025a600480360361010081101561028357600080fd5b6040805160608181018352843594602081013594938101359382820135939082019260e083019190608084019060039083908390808284376000920191909152509194505090359150610c209050565b61025a610d8e565b610301600480360360208110156102f157600080fd5b50356001600160a01b0316610da3565b604080519485526020850193909352838301919091526060830152519081900360800190f35b61025a6004803603604081101561033d57600080fd5b5080359060200135610dca565b610352610de7565b604051808060200180602001838103835285818151815260200191508051906020019060200280838360005b8381101561039657818101518382015260200161037e565b50505050905001838103825284818151815260200191508051906020019060200280838360005b838110156103d55781810151838201526020016103bd565b5050505090500194505050505060405180910390f35b61045a600480360361012081101561040257600080fd5b60408051606081810183528435946020810135949381013593828201359360808301359391830192916101008301919060a084019060039083908390808284376000920191909152509194505090359150610eb59050565b005b61025a6004803603604081101561047257600080fd5b50803590602001356001600160a01b0316611061565b61049061107e565b6040518080602001806020018060200180602001806020018060200187810387528d818151815260200191508051906020019060200280838360005b838110156104e45781810151838201526020016104cc565b5050505090500187810386528c818151815260200191508051906020019060200280838360005b8381101561052357818101518382015260200161050b565b5050505090500187810385528b818151815260200191508051906020019060200280838360005b8381101561056257818101518382015260200161054a565b5050505090500187810384528a818151815260200191508051906020019060200280838360005b838110156105a1578181015183820152602001610589565b50505050905001878103835289818151815260200191508051906020019060200280838360005b838110156105e05781810151838201526020016105c8565b50505050905001878103825288818151815260200191508051906020019060200280838360005b8381101561061f578181015183820152602001610607565b505050509050019c5050505050505050505050505060405180910390f35b6106456113ad565b6040518083608080838360005b8381101561066a578181015183820152602001610652565b5050505090500180602001828103825283818151815260200191508051906020019060200280838360005b838110156106ad578181015183820152602001610695565b50505050905001935050505060405180910390f35b61025a61145a565b6106f0600480360360208110156106e057600080fd5b50356001600160a01b03166117be565b6040805195865260208601949094528484019290925260608401526080830152519081900360a00190f35b61025a6117ed565b6107436004803603602081101561073957600080fd5b503560ff166117f3565b604080519115158252519081900360200190f35b6107746004803603602081101561076d57600080fd5b5035611d9d565b604080516001600160a01b039092168252519081900360200190f35b61045a600480360360408110156107a657600080fd5b506001600160a01b0381358116916020013516611db8565b610743600480360360208110156107d457600080fd5b50356001600160a01b0316611f15565b61025a61213c565b6107f4612142565b60408051938452602084019290925282820152519081900360600190f35b61081a612150565b604051808060200180602001858152602001848152602001838103835287818151815260200191508051906020019060200280838360005b8381101561086a578181015183820152602001610852565b50505050905001838103825286818151815260200191508051906020019060200280838360005b838110156108a9578181015183820152602001610891565b50505050905001965050505050505060405180910390f35b61045a612532565b6108ef600480360360208110156108df57600080fd5b50356001600160a01b03166125c3565b60405180826101a080838360005b838110156109155781810151838201526020016108fd565b5050505090500191505060405180910390f35b61045a6004803603606081101561093e57600080fd5b50803590602081013590604001356127b4565b61077461285f565b61074361286e565b61025a612892565b61098f6004803603602081101561097f57600080fd5b50356001600160a01b0316612898565b604080519788526001600160a01b039096166020880152868601949094526060860192909252608085015260a084015260c0830152519081900360e00190f35b6109f5600480360360208110156109e557600080fd5b50356001600160a01b03166128df565b6040518084606080838360005b83811015610a1a578181015183820152602001610a02565b505050509050018060200180602001838103835285818151815260200191508051906020019060200280838360005b83811015610a61578181015183820152602001610a49565b50505050905001838103825284818151815260200191508051906020019060200280838360005b83811015610aa0578181015183820152602001610a88565b505050509050019550505050505060405180910390f35b6106f060048036036020811015610acd57600080fd5b5035612acc565b61025a60048036036020811015610aea57600080fd5b5035612b0a565b610b1760048036036020811015610b0757600080fd5b50356001600160a01b0316612b1c565b6040805192835260208301919091528051918290030190f35b610774612b35565b61045a60048036036040811015610b4e57600080fd5b506001600160a01b038135169060200135612b44565b61077460048036036020811015610b7a57600080fd5b5035612be6565b61045a60048036036040811015610b9757600080fd5b506001600160a01b0381351690602001351515612c0d565b61025a612d1c565b61045a60048036036020811015610bcd57600080fd5b50356001600160a01b0316612d22565b61030160048036036020811015610bf357600080fd5b50356001600160a01b0316612d75565b601860209081526000928352604080842090915290825290205481565b336000908152600f602052604081205460ff16610c74576040805162461bcd60e51b815260206004820152600d60248201526c1858d8d95cdcc819195b9a5959609a1b604482015290519081900360640190fd5b6008610c84888888888888612f27565b815460018181018085556000948552602094859020845160089094020192835593830151908201556040820151600282015560608201516003808301919091556080830151610cd891600484019190614633565b5060a082015181600701555050506008805490509050336001600160a01b03167f8737f6db3e4f9f160a1b5feeed2147498ac97020431f8a6674afd9686d9ef06a828989898989896040518088815260200187815260200186815260200185815260200184815260200183600360200280838360005b83811015610d66578181015183820152602001610d4e565b5050505090500182815260200197505050505050505060405180910390a29695505050505050565b6000610d9d635fedf580612f5e565b90505b90565b60126020526000908152604090208054600182015460028301546003909301549192909184565b601760209081526000928352604080842090915290825290205481565b60608060005b600954811015610eb05760098181548110610e0457fe5b9060005260206000200160009054906101000a90046001600160a01b0316838281518110610e2e57fe5b60200260200101906001600160a01b031690816001600160a01b031681525050600f600060098381548110610e5f57fe5b60009182526020808320909101546001600160a01b03168352820192909252604001902054825160ff90911690839083908110610e9857fe5b91151560209283029190910190910152600101610ded565b509091565b336000908152600f602052604090205460ff16610f09576040805162461bcd60e51b815260206004820152600d60248201526c1858d8d95cdcc819195b9a5959609a1b604482015290519081900360640190fd5b60008711610f4c576040805162461bcd60e51b815260206004820152600b60248201526a1b9bdd08185b1b1bddd95960aa1b604482015290519081900360640190fd5b610f5a868686868686612f27565b60088881548110610f6757fe5b906000526020600020906008020160008201518160000155602082015181600101556040820151816002015560608201518160030155608082015181600401906003610fb4929190614633565b5060a08201518160070155905050336001600160a01b03167fbd1d63f9601aa7e3b397933efd8f5c98ca50bdd6ffd99a065e99479dd757350a888888888888886040518088815260200187815260200186815260200185815260200184815260200183600360200280838360005b8381101561103a578181015183820152602001611022565b5050505090500182815260200197505050505050505060405180910390a250505050505050565b601960209081526000928352604080842090915290825290205481565b606080606080606080600061109161213c565b9050806040519080825280602002602001820160405280156110bd578160200160208202803883390190505b509650806040519080825280602002602001820160405280156110ea578160200160208202803883390190505b50955080604051908082528060200260200182016040528015611117578160200160208202803883390190505b50945080604051908082528060200260200182016040528015611144578160200160208202803883390190505b50935080604051908082528060200260200182016040528015611171578160200160208202803883390190505b5092508060405190808252806020026020018201604052801561119e578160200160208202803883390190505b50915060005b818110156112f257600881815481106111b957fe5b9060005260206000209060080201600001548882815181106111d757fe5b602002602001018181525050600881815481106111f057fe5b90600052602060002090600802016001015487828151811061120e57fe5b6020026020010181815250506008818154811061122757fe5b90600052602060002090600802016002015486828151811061124557fe5b6020026020010181815250506008818154811061125e57fe5b90600052602060002090600802016003015485828151811061127c57fe5b6020026020010181815250506008818154811061129557fe5b9060005260206000209060080201600701548482815181106112b357fe5b60200260200101818152505060166000828152602001908152602001600020548382815181106112df57fe5b60209081029190910101526001016111a4565b50601c54600a810190611303610d8e565b82111561131557611312610d8e565b91505b818110156113a25760015b838110156113995760008281526017602090815260408083208484529091529020548551819087908490811061135257fe5b602002602001015111611366576000611379565b6000828152601660205260409020548190035b86838151811061138557fe5b602090810291909101015250600101611320565b50600101611315565b505050909192939495565b6113b5614671565b601b548152601054604080516370a0823160e01b815230600482015290516060926001600160a01b0316916370a08231916024808301926020929190829003018186803b15801561140557600080fd5b505afa158015611419573d6000803e3d6000fd5b505050506040513d602081101561142f57600080fd5b505160208301526060600080611443612150565b604089019190915260608801529596945050505050565b3360009081526011602052604081206006810154600590910154829161147f91612f8e565b9050804211156114b15761149233612fca565b3360009081526011602052604081206005810191909155426006909101555b6114b9610d8e565b601c54101561156d57601c54600a016114d0610d8e565b8111156114e2576114df610d8e565b90505b80601c54101561156b5760015b6114f761213c565b81101561155c57601c5460009081526017602090815260408083208484528252808320546016909252909120548110611531576000611544565b6000828152601660205260409020548190035b600083815260166020526040902055506001016114ef565b50601c805460010190556114e2565b505b600a546019600061157c610d8e565b815260208082019290925260409081016000908120338252909252902054106115ec576040805162461bcd60e51b815260206004820152601f60248201527f546865207769746864726177616c206c696d6974206973207265616368656400604482015290519081900360640190fd5b6000806000806115fb33612d75565b929650909450925090506116278161161b8481888863ffffffff61320e16565b9063ffffffff61320e16565b9550600c54861015611680576040805162461bcd60e51b815260206004820152601760248201527f54686520616d6f756e7420697320746f6f20736d616c6c000000000000000000604482015290519081900360640190fd5b600b5486116116d6576040805162461bcd60e51b815260206004820152601c60248201527f496e73756666696369656e742068616e646c696e672063686172676500000000604482015290519081900360640190fd5b6010546116ed906001600160a01b03163388613268565b601960006116f9610d8e565b81526020808201929092526040908101600090812033808352908452828220805460019081019091556014855283832042600482015580548a018155600380820180548901905581830180548b019055600291820180548a019055601287528585208581559283018590559082018490550191909155815187815292830184905282820186905260608301859052905190917fe08737ac48a1dab4b1a46c7dc9398bd5bfc6d7ad6fabb7cd8caa254de14def35919081900360800190a2505050505090565b601460205260009081526040902080546001820154600283015460038401546004909401549293919290919085565b601b5481565b3360009081526011602052604081206006810154600590910154829161181891612f8e565b90508042111561184a5761182b33612fca565b3360009081526011602052604081206005810191909155426006909101555b611852610d8e565b601c54101561190657601c54600a01611869610d8e565b81111561187b57611878610d8e565b90505b80601c5410156119045760015b61189061213c565b8110156118f557601c54600090815260176020908152604080832084845282528083205460169092529091205481106118ca5760006118dd565b6000828152601660205260409020548190035b60008381526016602052604090205550600101611888565b50601c8054600101905561187b565b505b61190e61468f565b60088460ff168154811061191e57fe5b90600052602060002090600802016040518060c0016040529081600082015481526020016001820154815260200160028201548152602001600382015481526020016004820160038060200260405190810160405280929190826003801561199b576020028201915b815481526020019060010190808311611987575b5050505050815260200160078201548152505090508060200151601660008660ff1681526020019081526020016000205410611a0d576040805162461bcd60e51b815260206004820152600c60248201526b131858dac81bd9881b5a5b1b60a21b604482015290519081900360640190fd5b611a16336133d2565b611a5d576040805162461bcd60e51b8152602060048201526013602482015272155cd95c881b9bdd081c9959da5cdd195c9959606a1b604482015290519081900360640190fd5b611a6561213c565b8460ff1610611aa9576040805162461bcd60e51b815260206004820152600b60248201526a195c9c9bdc881b195d995b60aa1b604482015290519081900360640190fd5b336000908152601160205260409020600581015460ff861611611b05576040805162461bcd60e51b815260206004820152600f60248201526e12185cc81899595b881bdc195b9959608a1b604482015290519081900360640190fd5b6000611b3a6008836005015481548110611b1b57fe5b600091825260209091206008909102015484519063ffffffff6133ef16565b601054909150611b55906001600160a01b0316333084613431565b611b5f338261358e565b611b6933826135e5565b611b7233612fca565b600582015460068301546000611b888284612f8e565b90506000611b99428b60ff16612f8e565b9050600060176000611baa85612f5e565b81526020019081526020016000206000868152602001908152602001600020541115611c035760176000611bdd84612f5e565b815260208082019290925260409081016000908120878252909252902080546000190190555b60176000611c1083612f5e565b81526020808201929092526040908101600090812060ff8e168252909252812080546001019055601890611c42610d8e565b81526020808201929092526040908101600090812060ff8e168252909252902080546001019055611c7283612f5e565b611c7a610d8e565b1415611ce657600060186000611c8e610d8e565b81526020019081526020016000206000868152602001908152602001600020541115611ce65760186000611cc0610d8e565b815260208082019290925260409081016000908120878252909252902080546000190190555b60ff8a166000908152601660205260408082208054600101905585825290205415611d2257600084815260166020526040902080546000190190555b60ff8a1660058701554260068701556001860154611d4b906001600160a01b0316866000613732565b601b8054860190556040805160ff8c16815260208101879052815133927f1a69cb28c10e7b49b43703f3ac8677176274f7c23b6f75a3d7d47287ef7269df928290030190a25050505050505050919050565b6015602052600090815260409020546001600160a01b031681565b611dc061286e565b611dff576040805162461bcd60e51b81526020600482018190526024820152600080516020614894833981519152604482015290519081900360640190fd5b604080516370a0823160e01b815230600482015290516000916001600160a01b038416916370a0823191602480820192602092909190829003018186803b158015611e4957600080fd5b505afa158015611e5d573d6000803e3d6000fd5b505050506040513d6020811015611e7357600080fd5b50511115611f0757611f078183836001600160a01b03166370a08231306040518263ffffffff1660e01b815260040180826001600160a01b03166001600160a01b0316815260200191505060206040518083038186803b158015611ed657600080fd5b505afa158015611eea573d6000803e3d6000fd5b505050506040513d6020811015611f0057600080fd5b5051613268565b611f1182476137c7565b5050565b6000611f1f610d8e565b601c541015611fd357601c54600a01611f36610d8e565b811115611f4857611f45610d8e565b90505b80601c541015611fd15760015b611f5d61213c565b811015611fc257601c5460009081526017602090815260408083208484528252808320546016909252909120548110611f97576000611faa565b6000828152601660205260409020548190035b60008381526016602052604090205550600101611f55565b50601c80546001019055611f48565b505b611fdc336133d2565b61202d576040805162461bcd60e51b815260206004820152601d60248201527f596f7572206163636f756e74206973206e6f7420616374697661746564000000604482015290519081900360640190fd5b336001600160a01b038316141561208b576040805162461bcd60e51b815260206004820152601760248201527f63616e277420616374697661746520796f757273656c66000000000000000000604482015290519081900360640190fd5b612094826133d2565b156120e6576040805162461bcd60e51b815260206004820152601c60248201527f54686973207573657220686173206265656e2061637469766174656400000000604482015290519081900360640190fd5b6120ef826138ba565b1561212d576040805162461bcd60e51b81526020600482015260096024820152686e6f7420616c6c6f7760b81b604482015290519081900360640190fd5b61213782336138f6565b919050565b60085490565b600a54600b54600c54909192565b6060806000806000601c54905061216561213c565b60405190808252806020026020018201604052801561218e578160200160208202803883390190505b50945061219961213c565b6040519080825280602002602001820160405280156121c2578160200160208202803883390190505b50935060015b6121d061213c565b81101561252a5760008181526016602052604090205485518690839081106121f457fe5b6020026020010181815250505b612209610d8e565b82101561228b57601c5460009081526017602090815260408083208484529091529020548551819087908490811061223d57fe5b602002602001015111612251576000612268565b8086838151811061225e57fe5b6020026020010151035b86838151811061227457fe5b602090810291909101015250600190910190612201565b60186000612297610d8e565b81526020019081526020016000206000828152602001908152602001600020548582815181106122c357fe5b6020026020010151116122d7576000612319565b601860006122e3610d8e565b815260200190815260200160002060008281526020019081526020016000205485828151811061230f57fe5b6020026020010151035b86828151811061232557fe5b60200260200101818152505061233961468f565b6008828154811061234657fe5b90600052602060002090600802016040518060c001604052908160008201548152602001600182015481526020016002820154815260200160038201548152602001600482016003806020026040519081016040528092919082600380156123c3576020028201915b8154815260200190600101908083116123af575b505050505081526020016007820154815250509050600061242a8884815181106123e957fe5b602002602001015161241e6103e861241286604001518760000151613b0a90919063ffffffff16565b9063ffffffff613b6316565b9063ffffffff613b0a16565b9050600061246688858151811061243d57fe5b602002602001015161241e6103e861241287604001518860000151613b0a90919063ffffffff16565b905060005b60038110156124f6576124af6124a26103e86124128760800151856003811061249057fe5b6020020151879063ffffffff613b0a16565b899063ffffffff61320e16565b97506124ec6124df6103e8612412876080015185600381106124cd57fe5b6020020151869063ffffffff613b0a16565b889063ffffffff61320e16565b965060010161246b565b50612507878363ffffffff61320e16565b9650612519868263ffffffff61320e16565b955050600190920191506121c89050565b505090919293565b61253a61286e565b612579576040805162461bcd60e51b81526020600482018190526024820152600080516020614894833981519152604482015290519081900360640190fd5b600080546040516001600160a01b03909116907f8be0079c531659141344cd1fd0a4f28419497f9722a3daafe3b4186f6b6457e0908390a3600080546001600160a01b0319169055565b6125cb6146cb565b6125d36146ea565b6001600160a01b03808416600090815260116020908152604091829020825161010081018452815481526001820154909416848301526002810180548451818502810185018652818152929486019383018282801561265b57602002820191906000526020600020905b81546001600160a01b0316815260019091019060200180831161263d575b505050505081526020016003820154815260200160048201548152602001600582015481526020016006820154815260200160078201548152505090506126a0614738565b506001600160a01b0383166000908152601460209081526040808320815160a0810183528154815260018201549381019390935260028101549183019190915260038101546060830152600401546080820152825190918490602002015260408201515183600160200201526080820151836002602002015260a0820151836003602002015260c082015160a083015161273a9190612f8e565b42111561274957600060608401525b60008060008061275888612d75565b60808b019390935260a08a019190915260c0808a019190915260e0890191909152855161010089015260208601516101208901526040860151610140890152606090950151610160880152505050500151610180820152919050565b336000908152600f602052604090205460ff16612808576040805162461bcd60e51b815260206004820152600d60248201526c1858d8d95cdcc819195b9a5959609a1b604482015290519081900360640190fd5b600a839055600b829055600c8190556040805184815260208101849052808201839052905133917f0b1b4c023dc60fa9cfe6c5dec69455f4078e29a6c80fcb29379e4532f83d132a919081900360600190a2505050565b6000546001600160a01b031690565b600080546001600160a01b0316612883613ba5565b6001600160a01b031614905090565b601c5481565b601160205260009081526040902080546001820154600383015460048401546005850154600686015460079096015494956001600160a01b03909416949293919290919087565b6128e7614767565b6060806128f26146ea565b6001600160a01b03808616600090815260116020908152604091829020825161010081018452815481526001820154909416848301526002810180548451818502810185018652818152929486019383018282801561297a57602002820191906000526020600020905b81546001600160a01b0316815260019091019060200180831161295c575b505050505081526020016003820154815260200160048201548152602001600582015481526020016006820154815260200160078201548152505090506000806129c387613ba9565b818852602080890182905260e08601516040808b01919091528087015151815181815281840281019093019091529294509092506060918015612a10578160200160208202803883390190505b5090506060846040015151604051908082528060200260200182016040528015612a44578160200160208202803883390190505b5060408601519250905060005b82518160ff161015612abe5760116000848360ff1681518110612a7057fe5b60200260200101516001600160a01b03166001600160a01b0316815260200190815260200160002060030154828260ff1681518110612aab57fe5b6020908102919091010152600101612a51565b509698909750945050505050565b60088181548110612ad957fe5b6000918252602090912060089091020180546001820154600283015460038401546007909401549294509092909185565b60166020526000908152604090205481565b6013602052600090815260409020805460019091015482565b6010546001600160a01b031681565b612b4c61286e565b612b8b576040805162461bcd60e51b81526020600482018190526024820152600080516020614894833981519152604482015290519081900360640190fd5b601054612ba2906001600160a01b03168383613268565b6040805182815290516001600160a01b0384169133917f2e1ec31f91a02042b00b71a4cba8deb59cf5612d0cdeffb83900205dda39783a9181900360200190a35050565b60098181548110612bf357fe5b6000918252602090912001546001600160a01b0316905081565b612c1561286e565b612c54576040805162461bcd60e51b81526020600482018190526024820152600080516020614894833981519152604482015290519081900360640190fd5b6001600160a01b0382166000908152600f60205260408120805460ff1916831515179055612c83600d84613d2c565b905080612cd657600980546001810182556000919091527f6e1540171b6c0c960b71a7020d9f60077f6af931a8bbf590da0223dacf75c7af0180546001600160a01b0319166001600160a01b0385161790555b60408051831515815290516001600160a01b038516917fe6d671a3906961986125edddc2b9a39e26eb96566c2aae09b945535477b61ed6919081900360200190a2505050565b601a5481565b612d2a61286e565b612d69576040805162461bcd60e51b81526020600482018190526024820152600080516020614894833981519152604482015290519081900360640190fd5b612d7281613d41565b50565b600080600080612d83614785565b506001600160a01b0385166000908152601260209081526040918290208251608081018452815481526001820154928101929092526002810154928201929092526003909101546060820152612dd76146ea565b6001600160a01b038088166000908152601160209081526040918290208251610100810184528154815260018201549094168483015260028101805484518185028101850186528181529294860193830182828015612e5f57602002820191906000526020600020905b81546001600160a01b03168152600190910190602001808311612e41575b505050505081526020016003820154815260200160048201548152602001600582015481526020016006820154815260200160078201548152505090506000612ed8836060015161161b8a601460008d6001600160a01b03166001600160a01b0316815260200190815260200160002060040154613de1565b83516001600160a01b038a1660009081526014602052604081206004015492935091612f0a919061161b908690613f25565b6020850151604090950151909a9499509750909550919350505050565b612f2f61468f565b506040805160c0810182529687526020870195909552938501929092526060840152608083015260a082015290565b600081421015612f7057506000612137565b612f8762015180612412428563ffffffff6133ef16565b9050612137565b6000612fc160088381548110612fa057fe5b9060005260206000209060080201600301548461320e90919063ffffffff16565b90505b92915050565b6001600160a01b03808216600090815260116020908152604080832081516101008101835281548152600182015490951685840152600281018054835181860281018601855281815295966130c696909593948601939092919083018282801561305d57602002820191906000526020600020905b81546001600160a01b0316815260019091019060200180831161303f575b505050505081526020016003820154815260200160048201548152602001600582015481526020016006820154815260200160078201548152505060146000856001600160a01b03166001600160a01b0316815260200190815260200160002060040154613f25565b6001600160a01b03808416600090815260126020908152604080832080548601905560119091528120600101549293509116905b60038160ff161015613208576001600160a01b03821661311957613208565b6001600160a01b0382166000908152601160205260408120600581015460088054929392909190811061314857fe5b90600052602060002090600802016004018360ff166003811061316757fe5b0154905060006131836103e8612412888563ffffffff613b0a16565b6001600160a01b038616600081815260126020908152604091829020600301805485019055600587015482519081529081018a9052808201849052905192935090917fd1f05a09bae2fd9132c4a9e70006b85605ca6adc2662b5f32ab3c4117413bf149181900360600190a250506001908101546001600160a01b03169250016130fa565b50505050565b600082820183811015612fc1576040805162461bcd60e51b815260206004820152601b60248201527f536166654d6174683a206164646974696f6e206f766572666c6f770000000000604482015290519081900360640190fd5b604080516001600160a01b038481166024830152604480830185905283518084039091018152606490920183526020820180516001600160e01b031663a9059cbb60e01b178152925182516000946060949389169392918291908083835b602083106132e55780518252601f1990920191602091820191016132c6565b6001836020036101000a0380198251168184511680821785525050505050509050019150506000604051808303816000865af19150503d8060008114613347576040519150601f19603f3d011682016040523d82523d6000602084013e61334c565b606091505b509150915081801561337a57508051158061337a575080806020019051602081101561337757600080fd5b50515b6133cb576040805162461bcd60e51b815260206004820152601f60248201527f5472616e7366657248656c7065723a205452414e534645525f4641494c454400604482015290519081900360640190fd5b5050505050565b6001600160a01b0316600090815260116020526040902054151590565b6000612fc183836040518060400160405280601e81526020017f536166654d6174683a207375627472616374696f6e206f766572666c6f770000815250613fb0565b604080516001600160a01b0385811660248301528481166044830152606480830185905283518084039091018152608490920183526020820180516001600160e01b03166323b872dd60e01b17815292518251600094606094938a169392918291908083835b602083106134b65780518252601f199092019160209182019101613497565b6001836020036101000a0380198251168184511680821785525050505050509050019150506000604051808303816000865af19150503d8060008114613518576040519150601f19603f3d011682016040523d82523d6000602084013e61351d565b606091505b509150915081801561354b57508051158061354b575080806020019051602081101561354857600080fd5b50515b6135865760405162461bcd60e51b81526004018080602001828103825260248152602001806148d76024913960400191505060405180910390fd5b505050505050565b6135988282614047565b6001600160a01b038083166000908152601160205260409020600101546135c0911682614047565b6001600160a01b03909116600090815260116020526040902060030180549091019055565b6001600160a01b0380831660009081526011602052604090206001015416801561372d576000613621606461241285600663ffffffff613b0a16565b6001600160a01b03808416600081815260126020908152604091829020600190810180548701905582518681529182015281519495509193928816927f6b4e54b55edc35e740a645d0a51b009e7bb7120b71a60943e5c2e7c3380a7ad19281900390910190a36001600160a01b038083166000908152601160205260409020600101541680156133cb5760006136c3606461241287600463ffffffff613b0a16565b6001600160a01b03808416600081815260126020908152604091829020600290810180548701905582518681529182015281519495509193928a16927f6b4e54b55edc35e740a645d0a51b009e7bb7120b71a60943e5c2e7c3380a7ad19281900390910190a35050505b505050565b8260005b600f8110156133cb576001600160a01b038216613752576133cb565b821561377c576001600160a01b03821660009081526013602052604090208054600101905561379e565b6001600160a01b03821660009081526013602052604090206001018054850190555b6001600160a01b0391821660009081526011602052604090206001908101549092169101613736565b604080516000808252602082019092526001600160a01b0384169083906040518082805190602001908083835b602083106138135780518252601f1990920191602091820191016137f4565b6001836020036101000a03801982511681845116808217855250505050505090500191505060006040518083038185875af1925050503d8060008114613875576040519150601f19603f3d011682016040523d82523d6000602084013e61387a565b606091505b505090508061372d5760405162461bcd60e51b81526004018080602001828103825260238152602001806148b46023913960400191505060405180910390fd5b6000813f7fc5d2460186f7233c927e7db2dcc703c0e500b653ca82273b7bfad8045d85a47081158015906138ee5750808214155b949350505050565b6001600160a01b03811660009081526011602052604090206002810154600311613967576040805162461bcd60e51b815260206004820152601a60248201527f65786365656420746865205245434f4d4d454e445f4c494d4954000000000000604482015290519081900360640190fd5b61397183836141f4565b6001600160a01b0384811660009081526011602090815260409182902084518155848201516001820180546001600160a01b03191691909516179093559083015180516139c492600285019201906147ad565b50606082015160038201556080820151600482015560a0820151600582015560c0820151600682015560e09091015160079091015560028101805460018082018355600092835260209092200180546001600160a01b0319166001600160a01b0386811691909117909155908201541615613a61576001808201546001600160a01b03166000908152601160205260409020600401805490910190555b613a6e8260006001613732565b600080805260166020527f0263c2b778d062355049effc2dece97bc6547ff8a88a3258daa512061c2153dd80546001019055601890613aab610d8e565b81526020808201929092526040908101600090812081805290925280822080546001019055516001600160a01b0380851692908616917fe2623df8e961a83404fc5d094f42e47c8b62b9f8a49a7c8014db5fe0d49234c29190a3505050565b600082613b1957506000612fc4565b82820282848281613b2657fe5b0414612fc15760405162461bcd60e51b81526004018080602001828103825260218152602001806148736021913960400191505060405180910390fd5b6000612fc183836040518060400160405280601a81526020017f536166654d6174683a206469766973696f6e206279207a65726f000000000000815250614277565b3390565b600080613bb46146ea565b6001600160a01b038085166000908152601160209081526040918290208251610100810184528154815260018201549094168483015260028101805484518185028101850186528181529294860193830182828015613c3c57602002820191906000526020600020905b81546001600160a01b03168152600190910190602001808311613c1e575b5050505050815260200160038201548152602001600482015481526020016005820154815260200160068201548152602001600782015481525050905080606001518301925060608160400151905060008090505b81518160ff161015613ced5760116000838360ff1681518110613cb057fe5b60200260200101516001600160a01b03166001600160a01b0316815260200190815260200160002060030154850194508080600101915050613c91565b5060005b60078160ff161015613d245760018160ff1660078110613d0d57fe5b01548510613d1c578060ff1693505b600101613cf1565b505050915091565b6000612fc1836001600160a01b0384166142dc565b6001600160a01b038116613d865760405162461bcd60e51b815260040180806020018281038252602681526020018061484d6026913960400191505060405180910390fd5b600080546040516001600160a01b03808516939216917f8be0079c531659141344cd1fd0a4f28419497f9722a3daafe3b4186f6b6457e091a3600080546001600160a01b0319166001600160a01b0392909216919091179055565b6001600160a01b03821660009081526011602090815260408083206002018054825181850281018501909352808352606093830182828015613e4c57602002820191906000526020600020905b81546001600160a01b03168152600190910190602001808311613e2e575b50505050509050613e5b614767565b6001600160a01b038516600090815260116020526040902060050154600880549091908110613e8657fe5b60009182526020909120604080516060810191829052926008029091016004019060039082845b815481526020019060010190808311613ead575050505050905060005b60038160ff161015613f1c5760006060613ef9858885878760ff1660038110613eef57fe5b6020020151614326565b91509150818601955060028360ff161015613f12578094505b5050600101613eca565b50505092915050565b60c0820151600090828111613f3a5782613f3c565b805b92506000613f7560088660a0015181548110613f5457fe5b9060005260206000209060080201600301548361320e90919063ffffffff16565b9050804211613f845742613f86565b805b905080841015613fa457613f9f84828760a00151614539565b613fa7565b60005b95945050505050565b6000818484111561403f5760405162461bcd60e51b81526004018080602001828103825283818151815260200191508051906020019080838360005b83811015614004578181015183820152602001613fec565b50505050905090810190601f1680156140315780820380516001836020036101000a031916815260200191505b509250505060405180910390fd5b505050900390565b6001600160a01b03821615611f11576001600160a01b03821660009081526011602052604090206002015460031415611f115760008061408684613ba9565b909250905080600083816140a0828863ffffffff61320e16565b90506006841015614141575b600684101561414157600184600101600781106140c557fe5b015481116140f1576140ea8361161b60646124128861241e878963ffffffff6133ef16565b9250614141565b6141208361161b60646124128861241e8860018c6001016007811061411257fe5b01549063ffffffff6133ef16565b92506001846001016007811061413257fe5b015491506001909301926140ac565b836006141561416a576141678361161b60646124128861241e878963ffffffff6133ef16565b92505b82156141ea57601054614187906001600160a01b03168985613268565b6001600160a01b038816600081815260116020908152604091829020600701805487019055815186815290810185905280820184905290517f07f4228164e36d485c060424960f16ef14272e91845e3da798cb8cf270d57b359181900360600190a25b5050505050505050565b6141fc6146ea565b50601a8054600101808255600090815260156020908152604080832080546001600160a01b0319166001600160a01b0397881617905580516101008101825293548452939094169382019390935260609181018290529081018290526080810182905260a081018290524260c082015260e081019190915290565b600081836142c65760405162461bcd60e51b8152602060048201818152835160248401528351909283926044909101919085019080838360008315614004578181015183820152602001613fec565b5060008385816142d257fe5b0495945050505050565b60006142e8838361461b565b61431e57508154600181810184556000848152602080822090930184905584548482528286019093526040902091909155612fc4565b506000612fc4565b6000606060028460ff161015614368578551600302604051908082528060200260200182016040528015614364578160200160208202803883390190505b5090505b60005b86518160ff16101561452f5760006001600160a01b0316878260ff168151811061439157fe5b60200260200101516001600160a01b031614614527576143af6146ea565b60116000898460ff16815181106143c257fe5b6020908102919091018101516001600160a01b039081168352828201939093526040918201600020825161010081018452815481526001820154909416848301526002810180548451818502810185018652818152929486019383018282801561445557602002820191906000526020600020905b81546001600160a01b03168152600190910190602001808311614437575b50505050508152602001600382015481526020016004820154815260200160058201548152602001600682015481526020016007820154815250509050600061449e8289613f25565b90506144b66103e8612412838963ffffffff613b0a16565b8451950194156145245760005b8260400151518160ff1610156145225782604001518160ff16815181106144e657fe5b60200260200101518582866003020160ff168151811061450257fe5b6001600160a01b03909216602092830291909101909101526001016144c3565b505b50505b60010161436b565b5094509492505050565b600061454361468f565b6008838154811061455057fe5b90600052602060002090600802016040518060c001604052908160008201548152602001600182015481526020016002820154815260200160038201548152602001600482016003806020026040519081016040528092919082600380156145cd576020028201915b8154815260200190600101908083116145b9575b505050505081526020016007820154815250509050613fa76103e861241262015180612412856040015161241e61460d8c8c6133ef90919063ffffffff16565b88519063ffffffff613b0a16565b60009081526001919091016020526040902054151590565b8260038101928215614661579160200282015b82811115614661578251825591602001919060010190614646565b5061466d92915061480e565b5090565b60405180608001604052806004906020820280388339509192915050565b6040518060c00160405280600081526020016000815260200160008152602001600081526020016146be614767565b8152600060209091015290565b604051806101a00160405280600d906020820280388339509192915050565b6040518061010001604052806000815260200160006001600160a01b031681526020016060815260200160008152602001600081526020016000815260200160008152602001600081525090565b6040518060a0016040528060008152602001600081526020016000815260200160008152602001600081525090565b60405180606001604052806003906020820280388339509192915050565b6040518060800160405280600081526020016000815260200160008152602001600081525090565b828054828255906000526020600020908101928215614802579160200282015b8281111561480257825182546001600160a01b0319166001600160a01b039091161782556020909201916001909101906147cd565b5061466d929150614828565b610da091905b8082111561466d5760008155600101614814565b610da091905b8082111561466d5780546001600160a01b031916815560010161482e56fe4f776e61626c653a206e6577206f776e657220697320746865207a65726f2061646472657373536166654d6174683a206d756c7469706c69636174696f6e206f766572666c6f774f776e61626c653a2063616c6c6572206973206e6f7420746865206f776e65725472616e7366657248656c7065723a204554485f5452414e534645525f4641494c45445472616e7366657248656c7065723a205452414e534645525f46524f4d5f4641494c4544a265627a7a723158200d5fad91e366af17134a9c108ece1bb2cfc4845a0f4149a9818a1c237ea3fb2d64736f6c63430005110032"}}