{"compiler":"v0.6.12+commit.27d51765","opcodeHash":"0x06245e81a5bcf7ed02f3ce8c501caeeccf03ead6d746f3c1808509b70277f4fd","metalessHash":"0x55f413e996eaa906cec2af32ad8738e89caedd0163bf936ffc5d991c5a734331","runtimeHash":"0x31bc7e39d588fefa23be5f1cdfe0fb119a41a4898385769c643d54f8fac911d5","encodedMetadata":[{"ipfs":"/ipfs/QmcWZvgHm6nRUiSagqiA5j8A7Uwx49jNwCYiEXqNCiX5VT","solc":"0.6.12"}],"abi":[{"inputs":[],"stateMutability":"nonpayable","type":"constructor"},{"anonymous":false,"inputs":[{"indexed":true,"internalType":"address","name":"owner","type":"address"},{"indexed":true,"internalType":"address","name":"spender","type":"address"},{"indexed":false,"internalType":"uint256","name":"value","type":"uint256"}],"name":"Approval","type":"event"},{"anonymous":false,"inputs":[{"indexed":true,"internalType":"address","name":"previousOwner","type":"address"},{"indexed":true,"internalType":"address","name":"newOwner","type":"address"}],"name":"OwnershipTransferred","type":"event"},{"anonymous":false,"inputs":[{"indexed":true,"internalType":"address","name":"from","type":"address"},{"indexed":true,"internalType":"address","name":"to","type":"address"},{"indexed":false,"internalType":"uint256","name":"value","type":"uint256"}],"name":"Transfer","type":"event"},{"inputs":[],"name":"_getMaxTxAmount","outputs":[{"internalType":"uint256","name":"","type":"uint256"}],"stateMutability":"view","type":"function"},{"inputs":[{"internalType":"uint256","name":"burnFee","type":"uint256"}],"name":"_setBurnFee","outputs":[],"stateMutability":"nonpayable","type":"function"},{"inputs":[{"internalType":"uint256","name":"maxTxAmount","type":"uint256"}],"name":"_setMaxTxAmount","outputs":[],"stateMutability":"nonpayable","type":"function"},{"inputs":[{"internalType":"uint256","name":"taxFee","type":"uint256"}],"name":"_setTaxFee","outputs":[],"stateMutability":"nonpayable","type":"function"},{"inputs":[{"internalType":"address","name":"owner","type":"address"},{"internalType":"address","name":"spender","type":"address"}],"name":"allowance","outputs":[{"internalType":"uint256","name":"","type":"uint256"}],"stateMutability":"view","type":"function"},{"inputs":[{"internalType":"address","name":"spender","type":"address"},{"internalType":"uint256","name":"amount","type":"uint256"}],"name":"approve","outputs":[{"internalType":"bool","name":"","type":"bool"}],"stateMutability":"nonpayable","type":"function"},{"inputs":[{"internalType":"address","name":"account","type":"address"}],"name":"balanceOf","outputs":[{"internalType":"uint256","name":"","type":"uint256"}],"stateMutability":"view","type":"function"},{"inputs":[],"name":"burnFee","outputs":[{"internalType":"uint256","name":"","type":"uint256"}],"stateMutability":"view","type":"function"},{"inputs":[],"name":"decimals","outputs":[{"internalType":"uint8","name":"","type":"uint8"}],"stateMutability":"view","type":"function"},{"inputs":[{"internalType":"address","name":"spender","type":"address"},{"internalType":"uint256","name":"subtractedValue","type":"uint256"}],"name":"decreaseAllowance","outputs":[{"internalType":"bool","name":"","type":"bool"}],"stateMutability":"nonpayable","type":"function"},{"inputs":[{"internalType":"uint256","name":"tAmount","type":"uint256"}],"name":"deliver","outputs":[],"stateMutability":"nonpayable","type":"function"},{"inputs":[{"internalType":"address","name":"account","type":"address"}],"name":"excludeAccount","outputs":[],"stateMutability":"nonpayable","type":"function"},{"inputs":[{"internalType":"address","name":"account","type":"address"}],"name":"includeAccount","outputs":[],"stateMutability":"nonpayable","type":"function"},{"inputs":[{"internalType":"address","name":"spender","type":"address"},{"internalType":"uint256","name":"addedValue","type":"uint256"}],"name":"increaseAllowance","outputs":[{"internalType":"bool","name":"","type":"bool"}],"stateMutability":"nonpayable","type":"function"},{"inputs":[{"internalType":"address","name":"account","type":"address"}],"name":"isExcluded","outputs":[{"internalType":"bool","name":"","type":"bool"}],"stateMutability":"view","type":"function"},{"inputs":[{"internalType":"address[]","name":"receivers","type":"address[]"},{"internalType":"uint256[]","name":"amounts","type":"uint256[]"}],"name":"multiTransfer","outputs":[],"stateMutability":"nonpayable","type":"function"},{"inputs":[],"name":"name","outputs":[{"internalType":"string","name":"","type":"string"}],"stateMutability":"view","type":"function"},{"inputs":[],"name":"owner","outputs":[{"internalType":"address","name":"","type":"address"}],"stateMutability":"view","type":"function"},{"inputs":[{"internalType":"uint256","name":"tAmount","type":"uint256"},{"internalType":"bool","name":"deductTransferFee","type":"bool"}],"name":"reflectionFromToken","outputs":[{"internalType":"uint256","name":"","type":"uint256"}],"stateMutability":"view","type":"function"},{"inputs":[],"name":"renounceOwnership","outputs":[],"stateMutability":"nonpayable","type":"function"},{"inputs":[],"name":"symbol","outputs":[{"internalType":"string","name":"","type":"string"}],"stateMutability":"view","type":"function"},{"inputs":[],"name":"taxFee","outputs":[{"internalType":"uint256","name":"","type":"uint256"}],"stateMutability":"view","type":"function"},{"inputs":[{"internalType":"uint256","name":"rAmount","type":"uint256"}],"name":"tokenFromReflection","outputs":[{"internalType":"uint256","name":"","type":"uint256"}],"stateMutability":"view","type":"function"},{"inputs":[],"name":"totalBurn","outputs":[{"internalType":"uint256","name":"","type":"uint256"}],"stateMutability":"view","type":"function"},{"inputs":[],"name":"totalFees","outputs":[{"internalType":"uint256","name":"","type":"uint256"}],"stateMutability":"view","type":"function"},{"inputs":[],"name":"totalSupply","outputs":[{"internalType":"uint256","name":"","type":"uint256"}],"stateMutability":"view","type":"function"},{"inputs":[{"internalType":"address","name":"recipient","type":"address"},{"internalType":"uint256","name":"amount","type":"uint256"}],"name":"transfer","outputs":[{"internalType":"bool","name":"","type":"bool"}],"stateMutability":"nonpayable","type":"function"},{"inputs":[{"internalType":"address","name":"sender","type":"address"},{"internalType":"address","name":"recipient","type":"address"},{"internalType":"uint256","name":"amount","type":"uint256"}],"name":"transferFrom","outputs":[{"internalType":"bool","name":"","type":"bool"}],"stateMutability":"nonpayable","type":"function"},{"inputs":[{"internalType":"address","name":"newOwner","type":"address"}],"name":"transferOwnership","outputs":[],"stateMutability":"nonpayable","type":"function"}],"bytecode":{"object":"6b022a3604c73c55eb5e0000006006556a560f364bfdb07e73ffffff1960075560c0604052600b60808190526a4d6f6f6e4675636b65727360a81b60a09081526200004e91600a919062000193565b506040805180820190915260048082526326a325a960e11b60209092019182526200007c91600b9162000193565b50600c805460ff191660121790556005600d556004600e556a1bb5e6a38fd11891800000600f55348015620000b057600080fd5b506000620000bd6200018f565b600080546001600160a01b0319166001600160a01b0383169081178255604051929350917f8be0079c531659141344cd1fd0a4f28419497f9722a3daafe3b4186f6b6457e0908290a35060075460016000620001186200018f565b6001600160a01b031681526020810191909152604001600020556200013c6200018f565b6001600160a01b031660006001600160a01b03167fddf252ad1be2c89b69c2b068fc378daa952ba7f163c4a11628f55a4df523b3ef6006546040518082815260200191505060405180910390a36200022f565b3390565b828054600181600116156101000203166002900490600052602060002090601f016020900481019282601f10620001d657805160ff191683800117855562000206565b8280016001018555821562000206579182015b8281111562000206578251825591602001919060010190620001e9565b506200021492915062000218565b5090565b5b8082111562000214576000815560010162000219565b612102806200023f6000396000f3fe608060405234801561001057600080fd5b50600436106101cf5760003560e01c80635880b87311610104578063a9059cbb116100a2578063f2fde38b11610071578063f2fde38b1461064e578063f7a9159114610674578063f84354f11461067c578063fce589d8146106a2576101cf565b8063a9059cbb146105a8578063cba0e996146105d4578063dd62ed3e146105fa578063f2cc0c1814610628576101cf565b80638da5cb5b116100de5780638da5cb5b1461054857806395d89b411461056c578063a071dcf414610574578063a457c2d71461057c576101cf565b80635880b873146104fd57806370a082311461051a578063715018a614610540576101cf565b80632d838119116101715780633b6b19611161014b5780633b6b1961146104965780633bd5d173146104b35780633c9f861d146104d05780634549b039146104d8576101cf565b80632d8381191461042f578063313ce5671461044c578063395093511461046a576101cf565b806318160ddd116101ad57806318160ddd146102ab5780631bbae6e0146102b35780631e89d545146102d257806323b872dd146103f9576101cf565b806306fdde03146101d4578063095ea7b31461025157806313114a9d14610291575b600080fd5b6101dc6106aa565b6040805160208082528351818301528351919283929083019185019080838360005b838110156102165781810151838201526020016101fe565b50505050905090810190601f1680156102435780820380516001836020036101000a031916815260200191505b509250505060405180910390f35b61027d6004803603604081101561026757600080fd5b506001600160a01b038135169060200135610740565b604080519115158252519081900360200190f35b61029961075e565b60408051918252519081900360200190f35b610299610764565b6102d0600480360360208110156102c957600080fd5b503561076a565b005b6102d0600480360360408110156102e857600080fd5b81019060208101813564010000000081111561030357600080fd5b82018360208201111561031557600080fd5b8035906020019184602083028401116401000000008311171561033757600080fd5b919080806020026020016040519081016040528093929190818152602001838360200280828437600092019190915250929594936020810193503591505064010000000081111561038757600080fd5b82018360208201111561039957600080fd5b803590602001918460208302840111640100000000831117156103bb57600080fd5b9190808060200260200160405190810160405280939291908181526020018383602002808284376000920191909152509295506107d1945050505050565b61027d6004803603606081101561040f57600080fd5b506001600160a01b0381358116916020810135909116906040013561081b565b6102996004803603602081101561044557600080fd5b50356108a2565b610454610904565b6040805160ff9092168252519081900360200190f35b61027d6004803603604081101561048057600080fd5b506001600160a01b03813516906020013561090d565b6102d0600480360360208110156104ac57600080fd5b503561095b565b6102d0600480360360208110156104c957600080fd5b5035610a0e565b610299610ae8565b610299600480360360408110156104ee57600080fd5b50803590602001351515610aee565b6102d06004803603602081101561051357600080fd5b5035610b80565b6102996004803603602081101561053057600080fd5b50356001600160a01b0316610c33565b6102d0610c95565b610550610d37565b604080516001600160a01b039092168252519081900360200190f35b6101dc610d46565b610299610da7565b61027d6004803603604081101561059257600080fd5b506001600160a01b038135169060200135610dad565b61027d600480360360408110156105be57600080fd5b506001600160a01b038135169060200135610e15565b61027d600480360360208110156105ea57600080fd5b50356001600160a01b0316610e29565b6102996004803603604081101561061057600080fd5b506001600160a01b0381358116916020013516610e47565b6102d06004803603602081101561063e57600080fd5b50356001600160a01b0316610e72565b6102d06004803603602081101561066457600080fd5b50356001600160a01b0316611054565b61029961114c565b6102d06004803603602081101561069257600080fd5b50356001600160a01b0316611152565b610299611313565b600a8054604080516020601f60026000196101006001881615020190951694909404938401819004810282018101909252828152606093909290918301828280156107365780601f1061070b57610100808354040283529160200191610736565b820191906000526020600020905b81548152906001019060200180831161071957829003601f168201915b5050505050905090565b600061075461074d611319565b848461131d565b5060015b92915050565b60085490565b60065490565b610772611319565b6000546001600160a01b039081169116146107c2576040805162461bcd60e51b81526020600482018190526024820152600080516020611fcc833981519152604482015290519081900360640190fd5b670de0b6b3a764000002600f55565b60005b82518110156108165761080d8382815181106107ec57fe5b602002602001015183838151811061080057fe5b6020026020010151610e15565b506001016107d4565b505050565b6000610828848484611409565b61089884610834611319565b61089385604051806060016040528060288152602001611f35602891396001600160a01b038a16600090815260036020526040812090610872611319565b6001600160a01b0316815260208101919091526040016000205491906116ae565b61131d565b5060019392505050565b60006007548211156108e55760405162461bcd60e51b8152600401808060200182810382526026815260200180611f856026913960400191505060405180910390fd5b60006108ef611745565b90506108fb8382611768565b9150505b919050565b600c5460ff1690565b600061075461091a611319565b84610893856003600061092b611319565b6001600160a01b03908116825260208083019390935260409182016000908120918c1681529252902054906117b1565b610963611319565b6000546001600160a01b039081169116146109b3576040805162461bcd60e51b81526020600482018190526024820152600080516020611fcc833981519152604482015290519081900360640190fd5b600a811115610a09576040805162461bcd60e51b815260206004820152601b60248201527f6275726e4665652073686f756c6420626520696e2030202d2031300000000000604482015290519081900360640190fd5b600e55565b6000610a18611319565b6001600160a01b03811660009081526004602052604090205490915060ff1615610a735760405162461bcd60e51b815260040180806020018281038252602c81526020018061207f602c913960400191505060405180910390fd5b6000610a7e8361180b565b505050506001600160a01b038416600090815260016020526040902054919250610aaa91905082611868565b6001600160a01b038316600090815260016020526040902055600754610ad09082611868565b600755600854610ae090846117b1565b600855505050565b60095490565b6000600654831115610b47576040805162461bcd60e51b815260206004820152601f60248201527f416d6f756e74206d757374206265206c657373207468616e20737570706c7900604482015290519081900360640190fd5b81610b66576000610b578461180b565b50939550610758945050505050565b6000610b718461180b565b50929550610758945050505050565b610b88611319565b6000546001600160a01b03908116911614610bd8576040805162461bcd60e51b81526020600482018190526024820152600080516020611fcc833981519152604482015290519081900360640190fd5b600a811115610c2e576040805162461bcd60e51b815260206004820152601a60248201527f7461784665652073686f756c6420626520696e2030202d203130000000000000604482015290519081900360640190fd5b600d55565b6001600160a01b03811660009081526004602052604081205460ff1615610c7357506001600160a01b0381166000908152600260205260409020546108ff565b6001600160a01b038216600090815260016020526040902054610758906108a2565b610c9d611319565b6000546001600160a01b03908116911614610ced576040805162461bcd60e51b81526020600482018190526024820152600080516020611fcc833981519152604482015290519081900360640190fd5b600080546040516001600160a01b03909116907f8be0079c531659141344cd1fd0a4f28419497f9722a3daafe3b4186f6b6457e0908390a3600080546001600160a01b0319169055565b6000546001600160a01b031690565b600b8054604080516020601f60026000196101006001881615020190951694909404938401819004810282018101909252828152606093909290918301828280156107365780601f1061070b57610100808354040283529160200191610736565b600d5490565b6000610754610dba611319565b84610893856040518060600160405280602581526020016120386025913960036000610de4611319565b6001600160a01b03908116825260208083019390935260409182016000908120918d168152925290205491906116ae565b6000610754610e22611319565b8484611409565b6001600160a01b031660009081526004602052604090205460ff1690565b6001600160a01b03918216600090815260036020908152604080832093909416825291909152205490565b610e7a611319565b6000546001600160a01b03908116911614610eca576040805162461bcd60e51b81526020600482018190526024820152600080516020611fcc833981519152604482015290519081900360640190fd5b73d3ce6898ec2252713f96fc21921cebfca27501d26001600160a01b0382161415610f265760405162461bcd60e51b815260040180806020018281038252602281526020018061205d6022913960400191505060405180910390fd5b6001600160a01b03811660009081526004602052604090205460ff1615610f94576040805162461bcd60e51b815260206004820152601b60248201527f4163636f756e7420697320616c7265616479206578636c756465640000000000604482015290519081900360640190fd5b6001600160a01b03811660009081526001602052604090205415610fee576001600160a01b038116600090815260016020526040902054610fd4906108a2565b6001600160a01b0382166000908152600260205260409020555b6001600160a01b03166000818152600460205260408120805460ff191660019081179091556005805491820181559091527f036b6384b5eca791c62761152d0c79bb0604c104a5fb6f4eb0703f3154bb3db00180546001600160a01b0319169091179055565b61105c611319565b6000546001600160a01b039081169116146110ac576040805162461bcd60e51b81526020600482018190526024820152600080516020611fcc833981519152604482015290519081900360640190fd5b6001600160a01b0381166110f15760405162461bcd60e51b8152600401808060200182810382526026815260200180611f0f6026913960400191505060405180910390fd5b600080546040516001600160a01b03808516939216917f8be0079c531659141344cd1fd0a4f28419497f9722a3daafe3b4186f6b6457e091a3600080546001600160a01b0319166001600160a01b0392909216919091179055565b600f5490565b61115a611319565b6000546001600160a01b039081169116146111aa576040805162461bcd60e51b81526020600482018190526024820152600080516020611fcc833981519152604482015290519081900360640190fd5b6001600160a01b03811660009081526004602052604090205460ff16611217576040805162461bcd60e51b815260206004820152601b60248201527f4163636f756e7420697320616c7265616479206578636c756465640000000000604482015290519081900360640190fd5b60005b60055481101561130f57816001600160a01b03166005828154811061123b57fe5b6000918252602090912001546001600160a01b031614156113075760058054600019810190811061126857fe5b600091825260209091200154600580546001600160a01b03909216918390811061128e57fe5b600091825260208083209190910180546001600160a01b0319166001600160a01b039485161790559184168152600282526040808220829055600490925220805460ff1916905560058054806112e057fe5b600082815260209020810160001990810180546001600160a01b031916905501905561130f565b60010161121a565b5050565b600e5490565b3390565b6001600160a01b0383166113625760405162461bcd60e51b8152600401808060200182810382526024815260200180611eeb6024913960400191505060405180910390fd5b6001600160a01b0382166113a75760405162461bcd60e51b81526004018080602001828103825260228152602001806120ab6022913960400191505060405180910390fd5b6001600160a01b03808416600081815260036020908152604080832094871680845294825291829020859055815185815291517f8c5be1e5ebec7d5bd14f71427d1e84f3dd0314c0f7b2291e5b200ac8c7c3b9259281900390910190a3505050565b6001600160a01b03831661144e5760405162461bcd60e51b8152600401808060200182810382526025815260200180611ec66025913960400191505060405180910390fd5b6001600160a01b0382166114935760405162461bcd60e51b81526004018080602001828103825260238152602001806120156023913960400191505060405180910390fd5b600081116114d25760405162461bcd60e51b8152600401808060200182810382526029815260200180611fec6029913960400191505060405180910390fd5b6114da610d37565b6001600160a01b0316836001600160a01b03161415801561151457506114fe610d37565b6001600160a01b0316826001600160a01b031614155b1561155a57600f5481111561155a5760405162461bcd60e51b8152600401808060200182810382526028815260200180611f5d6028913960400191505060405180910390fd5b6001600160a01b03831660009081526004602052604090205460ff16801561159b57506001600160a01b03821660009081526004602052604090205460ff16155b156115b0576115ab8383836118aa565b610816565b6001600160a01b03831660009081526004602052604090205460ff161580156115f157506001600160a01b03821660009081526004602052604090205460ff165b15611601576115ab8383836119ea565b6001600160a01b03831660009081526004602052604090205460ff1615801561164357506001600160a01b03821660009081526004602052604090205460ff16155b15611653576115ab838383611ab4565b6001600160a01b03831660009081526004602052604090205460ff16801561169357506001600160a01b03821660009081526004602052604090205460ff165b156116a3576115ab838383611b19565b610816838383611ab4565b6000818484111561173d5760405162461bcd60e51b81526004018080602001828103825283818151815260200191508051906020019080838360005b838110156117025781810151838201526020016116ea565b50505050905090810190601f16801561172f5780820380516001836020036101000a031916815260200191505b509250505060405180910390fd5b505050900390565b6000806000611752611bad565b90925090506117618282611768565b9250505090565b60006117aa83836040518060400160405280601a81526020017f536166654d6174683a206469766973696f6e206279207a65726f000000000000815250611d10565b9392505050565b6000828201838110156117aa576040805162461bcd60e51b815260206004820152601b60248201527f536166654d6174683a206164646974696f6e206f766572666c6f770000000000604482015290519081900360640190fd5b60008060008060008060008060006118288a600d54600e54611d75565b9250925092506000611838611745565b9050600080600061184b8e878787611dca565b919e509c509a509598509396509194505050505091939550919395565b60006117aa83836040518060400160405280601e81526020017f536166654d6174683a207375627472616374696f6e206f766572666c6f7700008152506116ae565b60006118b4611745565b90506000806000806000806118c88861180b565b95509550955095509550955060006118e98883611e1a90919063ffffffff16565b6001600160a01b038c1660009081526002602052604090205490915061190f908a611868565b6001600160a01b038c1660009081526002602090815260408083209390935560019052205461193e9088611868565b6001600160a01b03808d1660009081526001602052604080822093909355908c168152205461196d90876117b1565b6001600160a01b038b1660009081526001602052604090205561199285828585611e73565b896001600160a01b03168b6001600160a01b03167fddf252ad1be2c89b69c2b068fc378daa952ba7f163c4a11628f55a4df523b3ef866040518082815260200191505060405180910390a35050505050505050505050565b60006119f4611745565b9050600080600080600080611a088861180b565b9550955095509550955095506000611a298883611e1a90919063ffffffff16565b6001600160a01b038c16600090815260016020526040902054909150611a4f9088611868565b6001600160a01b03808d16600090815260016020908152604080832094909455918d16815260029091522054611a8590856117b1565b6001600160a01b038b1660009081526002602090815260408083209390935560019052205461196d90876117b1565b6000611abe611745565b9050600080600080600080611ad28861180b565b9550955095509550955095506000611af38883611e1a90919063ffffffff16565b6001600160a01b038c1660009081526001602052604090205490915061193e9088611868565b6000611b23611745565b9050600080600080600080611b378861180b565b9550955095509550955095506000611b588883611e1a90919063ffffffff16565b6001600160a01b038c16600090815260026020526040902054909150611b7e908a611868565b6001600160a01b038c16600090815260026020908152604080832093909355600190522054611a4f9088611868565b6007546006546000918291825b600554811015611cde57826001600060058481548110611bd657fe5b60009182526020808320909101546001600160a01b031683528201929092526040019020541180611c3b5750816002600060058481548110611c1457fe5b60009182526020808320909101546001600160a01b03168352820192909252604001902054115b15611c525760075460065494509450505050611d0c565b611c926001600060058481548110611c6657fe5b60009182526020808320909101546001600160a01b031683528201929092526040019020548490611868565b9250611cd46002600060058481548110611ca857fe5b60009182526020808320909101546001600160a01b031683528201929092526040019020548390611868565b9150600101611bba565b50600654600754611cee91611768565b821015611d0657600754600654935093505050611d0c565b90925090505b9091565b60008183611d5f5760405162461bcd60e51b81526020600482018181528351602484015283519092839260449091019190850190808383600083156117025781810151838201526020016116ea565b506000838581611d6b57fe5b0495945050505050565b6000808080611d8f6064611d898989611e1a565b90611768565b90506000611da26064611d898a89611e1a565b90506000611dba82611db48b86611868565b90611868565b9992985090965090945050505050565b6000808080611dd98886611e1a565b90506000611de78887611e1a565b90506000611df58888611e1a565b90506000611e0782611db48686611868565b939b939a50919850919650505050505050565b600082611e2957506000610758565b82820282848281611e3657fe5b04146117aa5760405162461bcd60e51b8152600401808060200182810382526021815260200180611fab6021913960400191505060405180910390fd5b611e8c83611db48660075461186890919063ffffffff16565b600755600854611e9c90836117b1565b600855600954611eac90826117b1565b600955600654611ebc9082611868565b6006555050505056fe42455032303a207472616e736665722066726f6d20746865207a65726f206164647265737342455032303a20617070726f76652066726f6d20746865207a65726f20616464726573734f776e61626c653a206e6577206f776e657220697320746865207a65726f206164647265737342455032303a207472616e7366657220616d6f756e74206578636565647320616c6c6f77616e63655472616e7366657220616d6f756e74206578636565647320746865206d61785478416d6f756e742e416d6f756e74206d757374206265206c657373207468616e20746f74616c2054657374657233536166654d6174683a206d756c7469706c69636174696f6e206f766572666c6f774f776e61626c653a2063616c6c6572206973206e6f7420746865206f776e65725472616e7366657220616d6f756e74206d7573742062652067726561746572207468616e207a65726f42455032303a207472616e7366657220746f20746865207a65726f206164647265737342455032303a2064656372656173656420616c6c6f77616e63652062656c6f77207a65726f57652063616e206e6f74206578636c75646520556e697377617020726f757465722e4578636c75646564206164647265737365732063616e6e6f742063616c6c20746869732066756e6374696f6e42455032303a20617070726f766520746f20746865207a65726f2061646472657373a26469706673582212206e0a28c8e3e4157a04c1c23db62aee6f3dcfb0d9cec62294a2af17ca8d202da164736f6c634300060c0033"}}