{"compiler":"v0.8.4+commit.c7e474f2","opcodeHash":"0x11656d0a6d152785013fd574a658c8ffac8278d4f566c4a4d7719bee61163b1a","metalessHash":"0xcc00c6bd11f9f1bba735cd8e6bea8f9cc5d2804921e4c1d492575e9b5a24e30b","runtimeHash":"0x354ab43bbd7b579e4e7fc99e022f0dcab033d41c811e050d00a3f6e1bc1d68a6","encodedMetadata":[{"ipfs":"/ipfs/QmcE3Kbo8RA56PJYD55zEPqTrpp4KiCMscxMWqGGnwRcBM","solc":"0.8.4"}],"abi":[{"inputs":[],"stateMutability":"nonpayable","type":"constructor"},{"anonymous":false,"inputs":[{"indexed":true,"internalType":"address","name":"owner","type":"address"},{"indexed":true,"internalType":"address","name":"spender","type":"address"},{"indexed":false,"internalType":"uint256","name":"value","type":"uint256"}],"name":"Approval","type":"event"},{"anonymous":false,"inputs":[{"indexed":true,"internalType":"address","name":"previousOwner","type":"address"},{"indexed":true,"internalType":"address","name":"newOwner","type":"address"}],"name":"OwnershipTransferred","type":"event"},{"anonymous":false,"inputs":[{"indexed":true,"internalType":"address","name":"from","type":"address"},{"indexed":true,"internalType":"address","name":"to","type":"address"},{"indexed":false,"internalType":"uint256","name":"value","type":"uint256"}],"name":"Transfer","type":"event"},{"inputs":[],"name":"_decimals","outputs":[{"internalType":"uint8","name":"","type":"uint8"}],"stateMutability":"view","type":"function"},{"inputs":[],"name":"_name","outputs":[{"internalType":"string","name":"","type":"string"}],"stateMutability":"view","type":"function"},{"inputs":[],"name":"_symbol","outputs":[{"internalType":"string","name":"","type":"string"}],"stateMutability":"view","type":"function"},{"inputs":[{"internalType":"address","name":"owner","type":"address"},{"internalType":"address","name":"spender","type":"address"}],"name":"allowance","outputs":[{"internalType":"uint256","name":"","type":"uint256"}],"stateMutability":"view","type":"function"},{"inputs":[{"internalType":"address","name":"spender","type":"address"},{"internalType":"uint256","name":"amount","type":"uint256"}],"name":"approve","outputs":[{"internalType":"bool","name":"","type":"bool"}],"stateMutability":"nonpayable","type":"function"},{"inputs":[{"internalType":"address","name":"account","type":"address"}],"name":"balanceOf","outputs":[{"internalType":"uint256","name":"","type":"uint256"}],"stateMutability":"view","type":"function"},{"inputs":[{"internalType":"uint256","name":"amount","type":"uint256"}],"name":"burn","outputs":[{"internalType":"bool","name":"","type":"bool"}],"stateMutability":"nonpayable","type":"function"},{"inputs":[],"name":"decimals","outputs":[{"internalType":"uint8","name":"","type":"uint8"}],"stateMutability":"view","type":"function"},{"inputs":[{"internalType":"address","name":"spender","type":"address"},{"internalType":"uint256","name":"subtractedValue","type":"uint256"}],"name":"decreaseAllowance","outputs":[{"internalType":"bool","name":"","type":"bool"}],"stateMutability":"nonpayable","type":"function"},{"inputs":[],"name":"getOwner","outputs":[{"internalType":"address","name":"","type":"address"}],"stateMutability":"view","type":"function"},{"inputs":[{"internalType":"address","name":"spender","type":"address"},{"internalType":"uint256","name":"addedValue","type":"uint256"}],"name":"increaseAllowance","outputs":[{"internalType":"bool","name":"","type":"bool"}],"stateMutability":"nonpayable","type":"function"},{"inputs":[],"name":"name","outputs":[{"internalType":"string","name":"","type":"string"}],"stateMutability":"view","type":"function"},{"inputs":[],"name":"owner","outputs":[{"internalType":"address","name":"","type":"address"}],"stateMutability":"view","type":"function"},{"inputs":[],"name":"renounceOwnership","outputs":[],"stateMutability":"nonpayable","type":"function"},{"inputs":[],"name":"symbol","outputs":[{"internalType":"string","name":"","type":"string"}],"stateMutability":"view","type":"function"},{"inputs":[],"name":"totalSupply","outputs":[{"internalType":"uint256","name":"","type":"uint256"}],"stateMutability":"view","type":"function"},{"inputs":[{"internalType":"address","name":"recipient","type":"address"},{"internalType":"uint256","name":"amount","type":"uint256"}],"name":"transfer","outputs":[{"internalType":"bool","name":"","type":"bool"}],"stateMutability":"nonpayable","type":"function"},{"inputs":[{"internalType":"address","name":"sender","type":"address"},{"internalType":"address","name":"recipient","type":"address"},{"internalType":"uint256","name":"amount","type":"uint256"}],"name":"transferFrom","outputs":[{"internalType":"bool","name":"","type":"bool"}],"stateMutability":"nonpayable","type":"function"},{"inputs":[{"internalType":"address","name":"newOwner","type":"address"}],"name":"transferOwnership","outputs":[],"stateMutability":"nonpayable","type":"function"}],"bytecode":{"object":"60806040523480156200001157600080fd5b50600080546001600160a01b031916339081178255604051909182917f8be0079c531659141344cd1fd0a4f28419497f9722a3daafe3b4186f6b6457e0908290a35060408051808201909152600c8082526b2337b635b4ba37aa37b5b2b760a11b6020909201918252620000889160069162000258565b5060408051808201909152600480825263464f4c4b60e01b6020909201918252620000b69160059162000258565b506004805460ff191660121790556a295be96e64066972000000620000dc3382620000e3565b5062000360565b6001600160a01b0382166200013f5760405162461bcd60e51b815260206004820152601f60248201527f42455032303a206d696e7420746f20746865207a65726f20616464726573730060448201526064015b60405180910390fd5b6200015b81600354620001ee60201b6200063b1790919060201c565b6003556001600160a01b038216600090815260016020908152604090912054620001909183906200063b620001ee821b17901c565b6001600160a01b0383166000818152600160205260408082209390935591519091907fddf252ad1be2c89b69c2b068fc378daa952ba7f163c4a11628f55a4df523b3ef90620001e29085815260200190565b60405180910390a35050565b600080620001fd8385620002fe565b905083811015620002515760405162461bcd60e51b815260206004820152601b60248201527f536166654d6174683a206164646974696f6e206f766572666c6f770000000000604482015260640162000136565b9392505050565b828054620002669062000323565b90600052602060002090601f0160209004810192826200028a5760008555620002d5565b82601f10620002a557805160ff1916838001178555620002d5565b82800160010185558215620002d5579182015b82811115620002d5578251825591602001919060010190620002b8565b50620002e3929150620002e7565b5090565b5b80821115620002e35760008155600101620002e8565b600082198211156200031e57634e487b7160e01b81526011600452602481fd5b500190565b600181811c908216806200033857607f821691505b602082108114156200035a57634e487b7160e01b600052602260045260246000fd5b50919050565b610e1580620003706000396000f3fe608060405234801561001057600080fd5b50600436106101215760003560e01c8063715018a6116100ad578063a9059cbb11610071578063a9059cbb1461025c578063b09f12661461026f578063d28d885214610277578063dd62ed3e1461027f578063f2fde38b146102b857600080fd5b8063715018a614610201578063893d20e81461020b5780638da5cb5b1461023057806395d89b4114610241578063a457c2d71461024957600080fd5b8063313ce567116100f4578063313ce5671461018c57806332424aa3146101a557806339509351146101b257806342966c68146101c557806370a08231146101d857600080fd5b806306fdde0314610126578063095ea7b31461014457806318160ddd1461016757806323b872dd14610179575b600080fd5b61012e6102cb565b60405161013b9190610c77565b60405180910390f35b610157610152366004610c36565b61035d565b604051901515815260200161013b565b6003545b60405190815260200161013b565b610157610187366004610bfb565b610373565b60045460ff165b60405160ff909116815260200161013b565b6004546101939060ff1681565b6101576101c0366004610c36565b6103dc565b6101576101d3366004610c5f565b610412565b61016b6101e6366004610baf565b6001600160a01b031660009081526001602052604090205490565b610209610426565b005b6000546001600160a01b03165b6040516001600160a01b03909116815260200161013b565b6000546001600160a01b0316610218565b61012e6104cf565b610157610257366004610c36565b6104de565b61015761026a366004610c36565b61052d565b61012e61053a565b61012e6105c8565b61016b61028d366004610bc9565b6001600160a01b03918216600090815260026020908152604080832093909416825291909152205490565b6102096102c6366004610baf565b6105d5565b6060600680546102da90610cf9565b80601f016020809104026020016040519081016040528092919081815260200182805461030690610cf9565b80156103535780601f1061032857610100808354040283529160200191610353565b820191906000526020600020905b81548152906001019060200180831161033657829003601f168201915b5050505050905090565b600061036a3384846106a1565b50600192915050565b60006103808484846107c6565b6103d284336103cd85604051806060016040528060288152602001610d4b602891396001600160a01b038a166000908152600260209081526040808320338452909152902054919061094c565b6106a1565b5060019392505050565b3360008181526002602090815260408083206001600160a01b0387168452909152812054909161036a9185906103cd908661063b565b600061041e3383610986565b506001919050565b6000546001600160a01b031633146104855760405162461bcd60e51b815260206004820181905260248201527f4f776e61626c653a2063616c6c6572206973206e6f7420746865206f776e657260448201526064015b60405180910390fd5b600080546040516001600160a01b03909116907f8be0079c531659141344cd1fd0a4f28419497f9722a3daafe3b4186f6b6457e0908390a3600080546001600160a01b0319169055565b6060600580546102da90610cf9565b600061036a33846103cd85604051806060016040528060258152602001610d99602591393360009081526002602090815260408083206001600160a01b038d168452909152902054919061094c565b600061036a3384846107c6565b6005805461054790610cf9565b80601f016020809104026020016040519081016040528092919081815260200182805461057390610cf9565b80156105c05780601f10610595576101008083540402835291602001916105c0565b820191906000526020600020905b8154815290600101906020018083116105a357829003601f168201915b505050505081565b6006805461054790610cf9565b6000546001600160a01b0316331461062f5760405162461bcd60e51b815260206004820181905260248201527f4f776e61626c653a2063616c6c6572206973206e6f7420746865206f776e6572604482015260640161047c565b61063881610a91565b50565b6000806106488385610cca565b90508381101561069a5760405162461bcd60e51b815260206004820152601b60248201527f536166654d6174683a206164646974696f6e206f766572666c6f770000000000604482015260640161047c565b9392505050565b6001600160a01b0383166107035760405162461bcd60e51b8152602060048201526024808201527f42455032303a20617070726f76652066726f6d20746865207a65726f206164646044820152637265737360e01b606482015260840161047c565b6001600160a01b0382166107645760405162461bcd60e51b815260206004820152602260248201527f42455032303a20617070726f766520746f20746865207a65726f206164647265604482015261737360f01b606482015260840161047c565b6001600160a01b0383811660008181526002602090815260408083209487168084529482529182902085905590518481527f8c5be1e5ebec7d5bd14f71427d1e84f3dd0314c0f7b2291e5b200ac8c7c3b92591015b60405180910390a3505050565b6001600160a01b03831661082a5760405162461bcd60e51b815260206004820152602560248201527f42455032303a207472616e736665722066726f6d20746865207a65726f206164604482015264647265737360d81b606482015260840161047c565b6001600160a01b03821661088c5760405162461bcd60e51b815260206004820152602360248201527f42455032303a207472616e7366657220746f20746865207a65726f206164647260448201526265737360e81b606482015260840161047c565b6108c981604051806060016040528060268152602001610d73602691396001600160a01b038616600090815260016020526040902054919061094c565b6001600160a01b0380851660009081526001602052604080822093909355908416815220546108f8908261063b565b6001600160a01b0380841660008181526001602052604090819020939093559151908516907fddf252ad1be2c89b69c2b068fc378daa952ba7f163c4a11628f55a4df523b3ef906107b99085815260200190565b600081848411156109705760405162461bcd60e51b815260040161047c9190610c77565b50600061097d8486610ce2565b95945050505050565b6001600160a01b0382166109e65760405162461bcd60e51b815260206004820152602160248201527f42455032303a206275726e2066726f6d20746865207a65726f206164647265736044820152607360f81b606482015260840161047c565b610a2381604051806060016040528060228152602001610dbe602291396001600160a01b038516600090815260016020526040902054919061094c565b6001600160a01b038316600090815260016020526040902055600354610a499082610b51565b6003556040518181526000906001600160a01b038416907fddf252ad1be2c89b69c2b068fc378daa952ba7f163c4a11628f55a4df523b3ef9060200160405180910390a35050565b6001600160a01b038116610af65760405162461bcd60e51b815260206004820152602660248201527f4f776e61626c653a206e6577206f776e657220697320746865207a65726f206160448201526564647265737360d01b606482015260840161047c565b600080546040516001600160a01b03808516939216917f8be0079c531659141344cd1fd0a4f28419497f9722a3daafe3b4186f6b6457e091a3600080546001600160a01b0319166001600160a01b0392909216919091179055565b600061069a83836040518060400160405280601e81526020017f536166654d6174683a207375627472616374696f6e206f766572666c6f77000081525061094c565b80356001600160a01b0381168114610baa57600080fd5b919050565b600060208284031215610bc0578081fd5b61069a82610b93565b60008060408385031215610bdb578081fd5b610be483610b93565b9150610bf260208401610b93565b90509250929050565b600080600060608486031215610c0f578081fd5b610c1884610b93565b9250610c2660208501610b93565b9150604084013590509250925092565b60008060408385031215610c48578182fd5b610c5183610b93565b946020939093013593505050565b600060208284031215610c70578081fd5b5035919050565b6000602080835283518082850152825b81811015610ca357858101830151858201604001528201610c87565b81811115610cb45783604083870101525b50601f01601f1916929092016040019392505050565b60008219821115610cdd57610cdd610d34565b500190565b600082821015610cf457610cf4610d34565b500390565b600181811c90821680610d0d57607f821691505b60208210811415610d2e57634e487b7160e01b600052602260045260246000fd5b50919050565b634e487b7160e01b600052601160045260246000fdfe42455032303a207472616e7366657220616d6f756e74206578636565647320616c6c6f77616e636542455032303a207472616e7366657220616d6f756e7420657863656564732062616c616e636542455032303a2064656372656173656420616c6c6f77616e63652062656c6f77207a65726f42455032303a206275726e20616d6f756e7420657863656564732062616c616e6365a2646970667358221220cdfbdd723516562b8cc333aa7ac9aa376d185aae603213e396d94ecb00a4c7d864736f6c63430008040033"}}