{
  "opcodeHash": "0xc9ee258cc1b77ded16f5b639f728e3a1e73cc61e9c96e7a415ae20a18b7bd26d",
  "metalessHash": "0xa3f7d67c3885a3fafced4b1d6774223737f3e66d3740f24eb52611e8d5bcf043",
  "runtimeHash": "0xcff927e46db924ad337bf7b72ad94e99402a8267e03d0fb72e5cc9a2a96648c2",
  "encodedMetadata": [
    {
      "ipfs": "/ipfs/QmVytkSQQt7aQYpkAJr1gvL1CdbyueGKeEdDjErmREte5b",
      "solc": "0.6.0"
    }
  ],
  "abi": [
    {
      "inputs": [],
      "name": "getCETHAddress",
      "outputs": [
        {
          "internalType": "address",
          "name": "",
          "type": "address"
        }
      ],
      "stateMutability": "pure",
      "type": "function"
    },
    {
      "inputs": [],
      "name": "getCompReadAddress",
      "outputs": [
        {
          "internalType": "address",
          "name": "",
          "type": "address"
        }
      ],
      "stateMutability": "pure",
      "type": "function"
    },
    {
      "inputs": [],
      "name": "getCompToken",
      "outputs": [
        {
          "internalType": "contract TokenInterface",
          "name": "",
          "type": "address"
        }
      ],
      "stateMutability": "pure",
      "type": "function"
    },
    {
      "inputs": [
        {
          "internalType": "address",
          "name": "owner",
          "type": "address"
        },
        {
          "internalType": "address[]",
          "name": "cAddress",
          "type": "address[]"
        }
      ],
      "name": "getCompoundData",
      "outputs": [
        {
          "components": [
            {
              "internalType": "uint256",
              "name": "tokenPriceInEth",
              "type": "uint256"
            },
            {
              "internalType": "uint256",
              "name": "tokenPriceInUsd",
              "type": "uint256"
            },
            {
              "internalType": "uint256",
              "name": "exchangeRateStored",
              "type": "uint256"
            },
            {
              "internalType": "uint256",
              "name": "balanceOfUser",
              "type": "uint256"
            },
            {
              "internalType": "uint256",
              "name": "borrowBalanceStoredUser",
              "type": "uint256"
            },
            {
              "internalType": "uint256",
              "name": "supplyRatePerBlock",
              "type": "uint256"
            },
            {
              "internalType": "uint256",
              "name": "borrowRatePerBlock",
              "type": "uint256"
            }
          ],
          "internalType": "struct Helpers.CompData[]",
          "name": "",
          "type": "tuple[]"
        }
      ],
      "stateMutability": "view",
      "type": "function"
    },
    {
      "inputs": [],
      "name": "getComptroller",
      "outputs": [
        {
          "internalType": "contract ComptrollerLensInterface",
          "name": "",
          "type": "address"
        }
      ],
      "stateMutability": "pure",
      "type": "function"
    },
    {
      "inputs": [],
      "name": "getOracleAddress",
      "outputs": [
        {
          "internalType": "address",
          "name": "",
          "type": "address"
        }
      ],
      "stateMutability": "pure",
      "type": "function"
    },
    {
      "inputs": [
        {
          "internalType": "address",
          "name": "owner",
          "type": "address"
        },
        {
          "internalType": "address[]",
          "name": "cAddress",
          "type": "address[]"
        }
      ],
      "name": "getPosition",
      "outputs": [
        {
          "components": [
            {
              "internalType": "uint256",
              "name": "tokenPriceInEth",
              "type": "uint256"
            },
            {
              "internalType": "uint256",
              "name": "tokenPriceInUsd",
              "type": "uint256"
            },
            {
              "internalType": "uint256",
              "name": "exchangeRateStored",
              "type": "uint256"
            },
            {
              "internalType": "uint256",
              "name": "balanceOfUser",
              "type": "uint256"
            },
            {
              "internalType": "uint256",
              "name": "borrowBalanceStoredUser",
              "type": "uint256"
            },
            {
              "internalType": "uint256",
              "name": "supplyRatePerBlock",
              "type": "uint256"
            },
            {
              "internalType": "uint256",
              "name": "borrowRatePerBlock",
              "type": "uint256"
            }
          ],
          "internalType": "struct Helpers.CompData[]",
          "name": "",
          "type": "tuple[]"
        },
        {
          "components": [
            {
              "internalType": "uint256",
              "name": "balance",
              "type": "uint256"
            },
            {
              "internalType": "uint256",
              "name": "votes",
              "type": "uint256"
            },
            {
              "internalType": "address",
              "name": "delegate",
              "type": "address"
            },
            {
              "internalType": "uint256",
              "name": "allocated",
              "type": "uint256"
            }
          ],
          "internalType": "struct CompReadInterface.CompBalanceMetadataExt",
          "name": "",
          "type": "tuple"
        }
      ],
      "stateMutability": "nonpayable",
      "type": "function"
    },
    {
      "inputs": [
        {
          "internalType": "contract CTokenInterface",
          "name": "cToken",
          "type": "address"
        }
      ],
      "name": "getPriceInEth",
      "outputs": [
        {
          "internalType": "uint256",
          "name": "priceInETH",
          "type": "uint256"
        },
        {
          "internalType": "uint256",
          "name": "priceInUSD",
          "type": "uint256"
        }
      ],
      "stateMutability": "view",
      "type": "function"
    },
    {
      "inputs": [],
      "name": "name",
      "outputs": [
        {
          "internalType": "string",
          "name": "",
          "type": "string"
        }
      ],
      "stateMutability": "view",
      "type": "function"
    }
  ],
  "bytecode": {
    "object": "608060405234801561001057600080fd5b50610ca8806100206000396000f3fe608060405234801561001057600080fd5b50600436106100935760003560e01c806370a58ec61161006657806370a58ec61461011857806379feab871461012d578063b18b78dd14610135578063c9ce5d861461013d578063e5cc7da41461014557610093565b806303d2862b1461009857806306fdde03146100c157806334ff2eeb146100d65780635ba81c87146100f7575b600080fd5b6100ab6100a6366004610941565b61014d565b6040516100b89190610b0c565b60405180910390f35b6100c9610467565b6040516100b89190610b8b565b6100e96100e43660046109f6565b610499565b6040516100b8929190610c05565b61010a610105366004610941565b6106e4565b6040516100b8929190610b1f565b61012061079a565b6040516100b89190610af8565b6101206107b2565b6101206107ca565b6101206107e2565b6101206107fa565b606080825160405190808252806020026020018201604052801561018b57816020015b6101786108a5565b8152602001906001900390816101705790505b50905060005b835181101561045d5760008482815181106101a857fe5b602002602001015190506000806101be83610499565b915091506040518060e00160405280838152602001828152602001846001600160a01b031663182df0f56040518163ffffffff1660e01b815260040160206040518083038186803b15801561021257600080fd5b505afa158015610226573d6000803e3d6000fd5b505050506040513d601f19601f8201168201806040525061024a9190810190610a61565b8152602001846001600160a01b03166370a082318b6040518263ffffffff1660e01b815260040161027b9190610af8565b60206040518083038186803b15801561029357600080fd5b505afa1580156102a7573d6000803e3d6000fd5b505050506040513d601f19601f820116820180604052506102cb9190810190610a61565b8152602001846001600160a01b03166395dd91938b6040518263ffffffff1660e01b81526004016102fc9190610af8565b60206040518083038186803b15801561031457600080fd5b505afa158015610328573d6000803e3d6000fd5b505050506040513d601f19601f8201168201806040525061034c9190810190610a61565b8152602001846001600160a01b031663ae9d70b06040518163ffffffff1660e01b815260040160206040518083038186803b15801561038a57600080fd5b505afa15801561039e573d6000803e3d6000fd5b505050506040513d601f19601f820116820180604052506103c29190810190610a61565b8152602001846001600160a01b031663f8f9da286040518163ffffffff1660e01b815260040160206040518083038186803b15801561040057600080fd5b505afa158015610414573d6000803e3d6000fd5b505050506040513d601f19601f820116820180604052506104389190810190610a61565b81525085858151811061044757fe5b6020908102919091010152505050600101610191565b5090505b92915050565b60405180604001604052806016815260200175436f6d706f756e642d5265736f6c7665722d76312e3160501b81525081565b6000806000836001600160a01b03166104b06107e2565b6001600160a01b0316146105a457836001600160a01b0316636f307dc36040518163ffffffff1660e01b815260040160206040518083038186803b1580156104f757600080fd5b505afa15801561050b573d6000803e3d6000fd5b505050506040513d601f19601f8201168201806040525061052f919081019061091e565b6001600160a01b031663313ce5676040518163ffffffff1660e01b815260040160206040518083038186803b15801561056757600080fd5b505afa15801561057b573d6000803e3d6000fd5b505050506040513d601f19601f8201168201806040525061059f9190810190610a61565b6105a7565b60125b905060006105b36107ca565b6001600160a01b031663fc57d4df866040518263ffffffff1660e01b81526004016105de9190610af8565b60206040518083038186803b1580156105f657600080fd5b505afa15801561060a573d6000803e3d6000fd5b505050506040513d601f19601f8201168201806040525061062e9190810190610a61565b9050600061063a6107ca565b6001600160a01b031663fc57d4df6106506107e2565b6040518263ffffffff1660e01b815260040161066c9190610af8565b60206040518083038186803b15801561068457600080fd5b505afa158015610698573d6000803e3d6000fd5b505050506040513d601f19601f820116820180604052506106bc9190810190610a61565b905082601203600a0a82816106cd57fe5b0493506106da8482610812565b9450505050915091565b60606106ee6108e2565b6106f8848461014d565b6107006107fa565b6001600160a01b0316631ea6374161071661079a565b61071e6107b2565b886040518463ffffffff1660e01b815260040161073d93929190610b68565b608060405180830381600087803b15801561075757600080fd5b505af115801561076b573d6000803e3d6000fd5b505050506040513d601f19601f8201168201806040525061078f9190810190610a12565b915091509250929050565b73c00e94cb662c3520282e6f5717214004a7f2688890565b733d9819210a31b4961b30ef54be2aed79b9c9cd3b90565b739b8eb8b3d6e2e0db36f41455185fef7049a35cae90565b734ddc2d193948926d02f9b1fe9e1daa0718270ed590565b73d513d22422a3062bd342ae374b4b9c20e0a9a07490565b60008161083361082a85670de0b6b3a7640000610842565b60028504610882565b8161083a57fe5b049392505050565b600081158061085d5750508082028282828161085a57fe5b04145b6104615760405162461bcd60e51b815260040161087990610bde565b60405180910390fd5b808201828110156104615760405162461bcd60e51b815260040161087990610bde565b6040518060e00160405280600081526020016000815260200160008152602001600081526020016000815260200160008152602001600081525090565b6040518060800160405280600081526020016000815260200160006001600160a01b03168152602001600081525090565b803561046181610c5a565b60006020828403121561092f578081fd5b815161093a81610c5a565b9392505050565b60008060408385031215610953578081fd5b823561095e81610c5a565b915060208381013567ffffffffffffffff81111561097a578283fd5b80850186601f82011261098b578384fd5b803591506109a061099b83610c3a565b610c13565b82815283810190828501858502840186018a10156109bc578687fd5b8693505b848410156109e6576109d28a82610913565b8352600193909301929185019185016109c0565b5080955050505050509250929050565b600060208284031215610a07578081fd5b813561093a81610c5a565b600060808284031215610a23578081fd5b610a2d6080610c13565b82518152602083015160208201526040830151610a4981610c5a565b60408201526060928301519281019290925250919050565b600060208284031215610a72578081fd5b5051919050565b6000815180845260208401935060208301825b82811015610aee578151805187526020810151602088015260408101516040880152606081015160608801526080810151608088015260a081015160a088015260c081015160c08801525060e086019550602082019150600181019050610a8c565b5093949350505050565b6001600160a01b0391909116815260200190565b60006020825261093a6020830184610a79565b600060a08252610b3260a0830185610a79565b9050825160208301526020830151604083015260018060a01b036040840151166060830152606083015160808301529392505050565b6001600160a01b0393841681529183166020830152909116604082015260600190565b6000602082528251806020840152815b81811015610bb85760208186018101516040868401015201610b9b565b81811115610bc95782604083860101525b50601f01601f19169190910160400192915050565b6020808252600d908201526c6d6174682d6e6f742d7361666560981b604082015260600190565b918252602082015260400190565b60405181810167ffffffffffffffff81118282101715610c3257600080fd5b604052919050565b600067ffffffffffffffff821115610c50578081fd5b5060209081020190565b6001600160a01b0381168114610c6f57600080fd5b5056fea2646970667358221220a9c59b75abdd4dc24c5e8d00c858c40f1f8c847272b88cd7c59551612dd26c5064736f6c63430006000033"
  }
}