{
  "opcodeHash": "0xd2228fa7d8774fbc0c879de66543c7fc3bf39438563d09ca53c646eb15ba2853",
  "metalessHash": "0x01f0d74fbe56be4e7abe5414532e925ddfc9ea94d76b143f6fb1d7bdc555590d",
  "runtimeHash": "0xb86f286356a6b6005ea6c95e9e698c213a383a3ef59ed689dd44ef7f2bc578bf",
  "encodedMetadata": [
    {
      "ipfs": "/ipfs/QmSzeYXA6QBkajtkobW1n4XgnGndjemDXDzuahpBCkdG6n",
      "solc": "0.7.6"
    }
  ],
  "abi": [
    {
      "inputs": [],
      "stateMutability": "nonpayable",
      "type": "constructor"
    },
    {
      "inputs": [],
      "name": "approveMarkets",
      "outputs": [],
      "stateMutability": "nonpayable",
      "type": "function"
    },
    {
      "inputs": [
        {
          "internalType": "address",
          "name": "cyrepay",
          "type": "address"
        },
        {
          "internalType": "address",
          "name": "repay",
          "type": "address"
        },
        {
          "internalType": "uint256",
          "name": "ramt",
          "type": "uint256"
        },
        {
          "internalType": "address",
          "name": "cywithdraw",
          "type": "address"
        },
        {
          "internalType": "address",
          "name": "uwithdraw",
          "type": "address"
        },
        {
          "internalType": "uint256",
          "name": "wamt",
          "type": "uint256"
        }
      ],
      "name": "close",
      "outputs": [],
      "stateMutability": "nonpayable",
      "type": "function"
    },
    {
      "inputs": [],
      "name": "enterMarkets",
      "outputs": [],
      "stateMutability": "nonpayable",
      "type": "function"
    },
    {
      "inputs": [
        {
          "internalType": "address",
          "name": "to",
          "type": "address"
        },
        {
          "internalType": "uint256",
          "name": "value",
          "type": "uint256"
        },
        {
          "internalType": "bytes",
          "name": "data",
          "type": "bytes"
        }
      ],
      "name": "execute",
      "outputs": [
        {
          "internalType": "bool",
          "name": "",
          "type": "bool"
        },
        {
          "internalType": "bytes",
          "name": "",
          "type": "bytes"
        }
      ],
      "stateMutability": "nonpayable",
      "type": "function"
    },
    {
      "inputs": [
        {
          "internalType": "address",
          "name": "cylong",
          "type": "address"
        },
        {
          "internalType": "address",
          "name": "long",
          "type": "address"
        },
        {
          "internalType": "uint256",
          "name": "lamt",
          "type": "uint256"
        },
        {
          "internalType": "address",
          "name": "cyshort",
          "type": "address"
        },
        {
          "internalType": "address",
          "name": "short",
          "type": "address"
        },
        {
          "internalType": "uint256",
          "name": "samt",
          "type": "uint256"
        },
        {
          "internalType": "address",
          "name": "cymargin",
          "type": "address"
        },
        {
          "internalType": "uint256",
          "name": "mamt",
          "type": "uint256"
        }
      ],
      "name": "open",
      "outputs": [],
      "stateMutability": "nonpayable",
      "type": "function"
    },
    {
      "inputs": [
        {
          "internalType": "address",
          "name": "sender",
          "type": "address"
        },
        {
          "internalType": "uint256",
          "name": "amount0",
          "type": "uint256"
        },
        {
          "internalType": "uint256",
          "name": "amount1",
          "type": "uint256"
        },
        {
          "internalType": "bytes",
          "name": "data",
          "type": "bytes"
        }
      ],
      "name": "uniswapV2Call",
      "outputs": [],
      "stateMutability": "nonpayable",
      "type": "function"
    },
    {
      "inputs": [
        {
          "internalType": "address",
          "name": "token",
          "type": "address"
        },
        {
          "internalType": "uint256",
          "name": "amount",
          "type": "uint256"
        }
      ],
      "name": "withdraw",
      "outputs": [],
      "stateMutability": "nonpayable",
      "type": "function"
    }
  ],
  "bytecode": {
    "object": "60806040523480156200001157600080fd5b50600080546001600160a01b031916331790556200002e62000034565b62000287565b733d5bc3c8d13dcb8bf317092d84783c2697ae92586001600160a01b031663c2998238733d5bc3c8d13dcb8bf317092d84783c2697ae92586001600160a01b031663b0772d0b6040518163ffffffff1660e01b815260040160006040518083038186803b158015620000a557600080fd5b505afa158015620000ba573d6000803e3d6000fd5b505050506040513d6000823e601f3d908101601f191682016040526020811015620000e457600080fd5b81019080805160405193929190846401000000008211156200010557600080fd5b9083019060208201858111156200011b57600080fd5b82518660208202830111640100000000821117156200013957600080fd5b82525081516020918201928201910280838360005b83811015620001685781810151838201526020016200014e565b505050509050016040525050506040518263ffffffff1660e01b81526004018080602001828103825283818151815260200191508051906020019060200280838360005b83811015620001c6578181015183820152602001620001ac565b5050505090500192505050600060405180830381600087803b158015620001ec57600080fd5b505af115801562000201573d6000803e3d6000fd5b505060408051630ede4edd60e41b815273bdf447b39d152d6a234b4c02772b8ab5d1783f7260048201529051733d5bc3c8d13dcb8bf317092d84783c2697ae9258935063ede4edd09250602480830192600092919082900301818387803b1580156200026c57600080fd5b505af115801562000281573d6000803e3d6000fd5b50505050565b61187e80620002976000396000f3fe608060405234801561001057600080fd5b506004361061007d5760003560e01c80635f6556e91161005b5780635f6556e9146101605780636c775dac14610168578063b61d27f6146101c1578063f3fef3a3146102c55761007d565b806310d1e85c1461008257806319008bc71461010e578063562ea0e714610158575b600080fd5b61010c6004803603608081101561009857600080fd5b6001600160a01b038235169160208101359160408201359190810190608081016060820135600160201b8111156100ce57600080fd5b8201836020820111156100e057600080fd5b803590602001918460018302840111600160201b8311171561010157600080fd5b5090925090506102f1565b005b61010c600480360360c081101561012457600080fd5b506001600160a01b038135811691602081013582169160408201359160608101358216916080820135169060a001356103a4565b61010c6105a1565b61010c6107c6565b61010c600480360361010081101561017f57600080fd5b506001600160a01b03813581169160208101358216916040820135916060810135821691608082013581169160a08101359160c0820135169060e00135610a09565b610244600480360360608110156101d757600080fd5b6001600160a01b0382351691602081013591810190606081016040820135600160201b81111561020657600080fd5b82018360208201111561021857600080fd5b803590602001918460018302840111600160201b8311171561023957600080fd5b509092509050610a4d565b60405180831515815260200180602001828103825283818151815260200191508051906020019080838360005b83811015610289578181015183820152602001610271565b50505050905090810190601f1680156102b65780820380516001836020036101000a031916815260200191505b50935050505060405180910390f35b61010c600480360360408110156102db57600080fd5b506001600160a01b038135169060200135610ade565b6001600160a01b038516301461030657600080fd5b600080600080600080600080898961010081101561032357600080fd5b506001600160a01b038135811699506020820135811698506040820135975060608201358116965060808201358116955060a082013516935060c0810135925060e001351580159150610385576103808887878f878c888b610b09565b610395565b6103958887878f878c888b610d03565b50505050505050505050505050565b6000546001600160a01b031633146103bb57600080fd5b60006001600160a01b0386166000805160206117c9833981519152146103ef576000805160206117c98339815191526103f1565b825b905060006103ff8783610ed0565b9050600080836001600160a01b0316896001600160a01b03161061042557600088610429565b8760005b91509150826001600160a01b031663022c0d9f8383308e8e8e8a8f8f8f600060405160200180896001600160a01b03168152602001886001600160a01b03168152602001878152602001866001600160a01b03168152602001856001600160a01b03168152602001846001600160a01b031681526020018381526020018215158152602001985050505050505050506040516020818303038152906040526040518563ffffffff1660e01b815260040180858152602001848152602001836001600160a01b0316815260200180602001828103825283818151815260200191508051906020019080838360005b8381101561052e578181015183820152602001610516565b50505050905090810190601f16801561055b5780820380516001836020036101000a031916815260200191505b5095505050505050600060405180830381600087803b15801561057d57600080fd5b505af1158015610591573d6000803e3d6000fd5b5050505050505050505050505050565b6000733d5bc3c8d13dcb8bf317092d84783c2697ae92586001600160a01b031663b0772d0b6040518163ffffffff1660e01b815260040160006040518083038186803b1580156105f057600080fd5b505afa158015610604573d6000803e3d6000fd5b505050506040513d6000823e601f3d908101601f19168201604052602081101561062d57600080fd5b8101908080516040519392919084600160201b82111561064c57600080fd5b90830190602082018581111561066157600080fd5b82518660208202830111600160201b8211171561067d57600080fd5b82525081516020918201928201910280838360005b838110156106aa578181015183820152602001610692565b50505050905001604052505050905060005b81518110156107c2578181815181106106d157fe5b60200260200101516001600160a01b031673bdf447b39d152d6a234b4c02772b8ab5d1783f726001600160a01b0316146107ba57600082828151811061071357fe5b60200260200101516001600160a01b0316636f307dc36040518163ffffffff1660e01b815260040160206040518083038186803b15801561075357600080fd5b505afa158015610767573d6000803e3d6000fd5b505050506040513d602081101561077d57600080fd5b505183519091506107b89084908490811061079457fe5b6020026020010151600019836001600160a01b0316610fb59092919063ffffffff16565b505b6001016106bc565b5050565b733d5bc3c8d13dcb8bf317092d84783c2697ae92586001600160a01b031663c2998238733d5bc3c8d13dcb8bf317092d84783c2697ae92586001600160a01b031663b0772d0b6040518163ffffffff1660e01b815260040160006040518083038186803b15801561083657600080fd5b505afa15801561084a573d6000803e3d6000fd5b505050506040513d6000823e601f3d908101601f19168201604052602081101561087357600080fd5b8101908080516040519392919084600160201b82111561089257600080fd5b9083019060208201858111156108a757600080fd5b82518660208202830111600160201b821117156108c357600080fd5b82525081516020918201928201910280838360005b838110156108f05781810151838201526020016108d8565b505050509050016040525050506040518263ffffffff1660e01b81526004018080602001828103825283818151815260200191508051906020019060200280838360005b8381101561094c578181015183820152602001610934565b5050505090500192505050600060405180830381600087803b15801561097157600080fd5b505af1158015610985573d6000803e3d6000fd5b505060408051630ede4edd60e41b815273bdf447b39d152d6a234b4c02772b8ab5d1783f7260048201529051733d5bc3c8d13dcb8bf317092d84783c2697ae9258935063ede4edd09250602480830192600092919082900301818387803b1580156109ef57600080fd5b505af1158015610a03573d6000803e3d6000fd5b50505050565b6000546001600160a01b03163314610a2057600080fd5b610a356001600160a01b0383163330846110cd565b610a43888888888888611127565b5050505050505050565b600080546060906001600160a01b03163314610a6857600080fd5b600080876001600160a01b0316878787604051808383808284376040519201945060009350909150508083038185875af1925050503d8060008114610ac9576040519150601f19603f3d011682016040523d82523d6000602084013e610ace565b606091505b5090999098509650505050505050565b6000546001600160a01b03163314610af557600080fd5b6107c26001600160a01b0383163383611273565b610b1e6001600160a01b038416896000610fb5565b610b346001600160a01b03841689600019610fb5565b876001600160a01b031663a0712d68886040518263ffffffff1660e01b815260040180828152602001915050600060405180830381600087803b158015610b7a57600080fd5b505af1158015610b8e573d6000803e3d6000fd5b50505050600080876001600160a01b0316630902f1ac6040518163ffffffff1660e01b815260040160606040518083038186803b158015610bce57600080fd5b505afa158015610be2573d6000803e3d6000fd5b505050506040513d6060811015610bf857600080fd5b5080516020909101516001600160701b03918216935016905060008088610c20578383610c23565b82845b915091506000610c348c84846112c5565b90506001600160a01b0389166000805160206117c98339815191521480610c7157506001600160a01b0388166000805160206117c9833981519152145b15610cf65786811115610c8357600080fd5b856001600160a01b031663c5ebeaec826040518263ffffffff1660e01b815260040180828152602001915050600060405180830381600087803b158015610cc957600080fd5b505af1158015610cdd573d6000803e3d6000fd5b50610380925050506001600160a01b038a168c83611273565b610395898289898f6112ed565b610d186001600160a01b038416896000610fb5565b610d2e6001600160a01b03841689600019610fb5565b876001600160a01b0316630e752702886040518263ffffffff1660e01b815260040180828152602001915050600060405180830381600087803b158015610d7457600080fd5b505af1158015610d88573d6000803e3d6000fd5b50505050600080876001600160a01b0316630902f1ac6040518163ffffffff1660e01b815260040160606040518083038186803b158015610dc857600080fd5b505afa158015610ddc573d6000803e3d6000fd5b505050506040513d6060811015610df257600080fd5b5080516020909101516001600160701b03918216935016905060008088610e1a578383610e1d565b82845b915091506000610e2e8c84846112c5565b90506001600160a01b0389166000805160206117c98339815191521480610e6b57506001600160a01b0388166000805160206117c9833981519152145b15610ec35786811115610e7d57600080fd5b856001600160a01b031663852a12e3826040518263ffffffff1660e01b815260040180828152602001915050600060405180830381600087803b158015610cc957600080fd5b610395898289898f611449565b6000806000836001600160a01b0316856001600160a01b031610610ef5578385610ef8565b84845b604080516bffffffffffffffffffffffff19606094851b81166020808401919091529390941b9093166034840152805160288185030181526048840182528051908301206001600160f81b0319606885015273302bb91e38d9638984317de928b85ddf3a793cab60621b6069850152607d8401527fe18a34eb0e04b04f7a0ac29a6e80748dca96319b42c54d679cb821dca90c6303609d808501919091528151808503909101815260bd9093019052815191012095945050505050565b80158061103b575060408051636eb1769f60e11b81523060048201526001600160a01b03848116602483015291519185169163dd62ed3e91604480820192602092909190829003018186803b15801561100d57600080fd5b505afa158015611021573d6000803e3d6000fd5b505050506040513d602081101561103757600080fd5b5051155b6110765760405162461bcd60e51b81526004018080602001828103825260368152602001806118136036913960400191505060405180910390fd5b604080516001600160a01b038416602482015260448082018490528251808303909101815260649091019091526020810180516001600160e01b031663095ea7b360e01b1790526110c89084906114ca565b505050565b604080516001600160a01b0380861660248301528416604482015260648082018490528251808303909101815260849091019091526020810180516001600160e01b03166323b872dd60e01b179052610a039085906114ca565b6000806000805160206117c98339815191526001600160a01b0388161061115057600086611154565b8560005b909250905060006001600160a01b0388166000805160206117c98339815191521461118d576000805160206117c983398151915261118f565b845b9050600061119d8983610ed0565b604080516001600160a01b038d81166020808401919091528d821683850152606083018d905284821660808085018290528d841660a0860152928c1660c085015260e084018b90526001610100808601919091528551808603909101815261012085019586905263022c0d9f60e01b90955261012484018a815261014485018a9052306101648601819052610184860194855286516101a48701528651979850919663022c0d9f968c968c9694959194926101c4909101918501908083836000831561052e578181015183820152602001610516565b604080516001600160a01b038416602482015260448082018490528251808303909101815260649091019091526020810180516001600160e01b031663a9059cbb60e01b1790526110c89084906114ca565b60006103e8838502026103e5858403028082816112de57fe5b04600101925050509392505050565b6000611307866000805160206117c9833981519152610ed0565b9050600080611317888489611681565b915091508581111561132857600080fd5b846001600160a01b031663c5ebeaec826040518263ffffffff1660e01b815260040180828152602001915050600060405180830381600087803b15801561136e57600080fd5b505af1158015611382573d6000803e3d6000fd5b50505050600080896001600160a01b0316846001600160a01b0316146113aa578860006113ae565b6000895b90925090506113c76001600160a01b038b168685611273565b604080516000808252602082019283905263022c0d9f60e01b835260248201858152604483018590526001600160a01b038a81166064850152608060848501908152845160a48601819052918b169563022c0d9f95899589958f9592949093909260c4860192819084908490831561052e578181015183820152602001610516565b6000611463866000805160206117c9833981519152610ed0565b9050600080611473888489611681565b915091508581111561148457600080fd5b846001600160a01b031663852a12e3826040518263ffffffff1660e01b815260040180828152602001915050600060405180830381600087803b15801561136e57600080fd5b6114dc826001600160a01b031661178c565b61152d576040805162461bcd60e51b815260206004820152601f60248201527f5361666545524332303a2063616c6c20746f206e6f6e2d636f6e747261637400604482015290519081900360640190fd5b600080836001600160a01b0316836040518082805190602001908083835b6020831061156a5780518252601f19909201916020918201910161154b565b6001836020036101000a0380198251168184511680821785525050505050509050019150506000604051808303816000865af19150503d80600081146115cc576040519150601f19603f3d011682016040523d82523d6000602084013e6115d1565b606091505b509150915081611628576040805162461bcd60e51b815260206004820181905260248201527f5361666545524332303a206c6f772d6c6576656c2063616c6c206661696c6564604482015290519081900360640190fd5b805115610a035780806020019051602081101561164457600080fd5b5051610a035760405162461bcd60e51b815260040180806020018281038252602a8152602001806117e9602a913960400191505060405180910390fd5b600080806000805160206117c98339815191526001600160a01b038716106116b8576000805160206117c9833981519152866116c9565b856000805160206117c98339815191525b509050600080866001600160a01b0316630902f1ac6040518163ffffffff1660e01b815260040160606040518083038186803b15801561170857600080fd5b505afa15801561171c573d6000803e3d6000fd5b505050506040513d606081101561173257600080fd5b5080516020909101516001600160701b0391821693501690506000806001600160a01b03858116908b161461176857828461176b565b83835b915091508461177b8984846112c5565b965096505050505050935093915050565b6000813f7fc5d2460186f7233c927e7db2dcc703c0e500b653ca82273b7bfad8045d85a4708181148015906117c057508115155b94935050505056fe000000000000000000000000c02aaa39b223fe8d0a0e5c4f27ead9083c756cc25361666545524332303a204552433230206f7065726174696f6e20646964206e6f7420737563636565645361666545524332303a20617070726f76652066726f6d206e6f6e2d7a65726f20746f206e6f6e2d7a65726f20616c6c6f77616e6365a2646970667358221220e6b8942c1d2b2cabb56bec29cfe7db88f61b638e9d48ed114d8fb7eed307e1fd64736f6c63430007060033"
  }
}