{"compiler":"v0.8.4+commit.c7e474f2","opcodeHash":"0x586589cba43801863346d7795f84da32a1128df0ef94fbfc6727c9a5ee99c214","metalessHash":"0x27860059ffa78152f69983d9b774240763a7c874acad668b174b826301f99df0","runtimeHash":"0x08c6481c4d0a93f035e7dcee46da6d486c1a0e104ed6a2ad111eee70a63893e4","encodedMetadata":[{"ipfs":"/ipfs/QmU6qhUPbjL14dZE6MkWWAZqczUZ7bnQo6H8yTcLSz3SA1","solc":"0.8.4"}],"abi":[{"inputs":[],"name":"claimFounderStatus","outputs":[],"stateMutability":"nonpayable","type":"function"},{"inputs":[{"internalType":"address","name":"a","type":"address"}],"name":"getProvider","outputs":[{"internalType":"uint256","name":"","type":"uint256"},{"internalType":"bool","name":"","type":"bool"},{"internalType":"uint256","name":"","type":"uint256"},{"internalType":"uint256","name":"","type":"uint256"},{"internalType":"uint256","name":"","type":"uint256"}],"stateMutability":"view","type":"function"},{"inputs":[],"name":"getRewards","outputs":[],"stateMutability":"nonpayable","type":"function"},{"inputs":[{"internalType":"address","name":"a","type":"address"}],"name":"getVoter","outputs":[{"internalType":"uint128","name":"","type":"uint128"},{"internalType":"uint128","name":"","type":"uint128"},{"internalType":"uint128","name":"","type":"uint128"},{"internalType":"uint128","name":"","type":"uint128"},{"internalType":"uint128","name":"","type":"uint128"},{"internalType":"uint128","name":"","type":"uint128"}],"stateMutability":"view","type":"function"},{"inputs":[{"internalType":"uint256","name":"foundingETH","type":"uint256"},{"internalType":"address","name":"tkn","type":"address"}],"name":"init","outputs":[],"stateMutability":"nonpayable","type":"function"},{"inputs":[{"internalType":"bool","name":"ok","type":"bool"},{"internalType":"address","name":"tkn","type":"address"},{"internalType":"uint256","name":"amount","type":"uint256"}],"name":"lockFor6Months","outputs":[],"stateMutability":"nonpayable","type":"function"},{"inputs":[{"internalType":"uint256","name":"amount","type":"uint256"}],"name":"stake","outputs":[],"stateMutability":"nonpayable","type":"function"},{"inputs":[],"name":"unlock","outputs":[],"stateMutability":"nonpayable","type":"function"},{"inputs":[{"internalType":"bool","name":"ok","type":"bool"},{"internalType":"uint256","name":"amount","type":"uint256"}],"name":"unstakeLp","outputs":[],"stateMutability":"nonpayable","type":"function"}],"bytecode":{"object":"608060405234801561001057600080fd5b50612e45806100206000396000f3fe608060405234801561001057600080fd5b50600436106100935760003560e01c8063a694fc3a11610066578063a694fc3a1461010e578063a69df4b51461012a578063b792e6ec14610134578063cd4134d014610150578063d4f50f981461015a57610093565b80630572b0cc146100985780633c99aff8146100a257806355f21eb7146100be578063a1883692146100f2575b600080fd5b6100a061018f565b005b6100bc60048036038101906100b7919061271e565b61019a565b005b6100d860048036038101906100d3919061267d565b61052a565b6040516100e995949392919061296b565b60405180910390f35b61010c600480360381019061010791906126cf565b61074d565b005b6101286004803603810190610123919061275a565b610c6e565b005b610132611274565b005b61014e600480360381019061014991906127ac565b6115fe565b005b6101586117e1565b005b610174600480360381019061016f919061267d565b611b69565b6040516101869695949392919061290a565b60405180910390f35b61019833611dc1565b565b60008060008060006101ab3361052a565b945094509450945094508581836101c29190612ba0565b101580156101d4575060011515871515145b6101dd57600080fd5b4385146101ee576101ed33611dc1565b5b85826101fa9190612ba0565b600460003373ffffffffffffffffffffffffffffffffffffffff1673ffffffffffffffffffffffffffffffffffffffff16815260200190815260200160002060010160006101000a8154816fffffffffffffffffffffffffffffffff02191690836fffffffffffffffffffffffffffffffff16021790555060008287856102819190612acd565b61028b9190612a9c565b905080846102999190612ba0565b600460003373ffffffffffffffffffffffffffffffffffffffff1673ffffffffffffffffffffffffffffffffffffffff16815260200190815260200160002060000160076101000a8154816fffffffffffffffffffffffffffffffff02191690836fffffffffffffffffffffffffffffffff16021790555060008060011515871515141561038157600380549050905060036001826103389190612ba0565b8154811061036f577f4e487b7100000000000000000000000000000000000000000000000000000000600052603260045260246000fd5b90600052602060002001549150610441565b600280549050905060026001826103989190612ba0565b815481106103cf577f4e487b7100000000000000000000000000000000000000000000000000000000600052603260045260246000fd5b906000526020600020015491506402540be400896103ed9190612a9c565b600160158282829054906101000a90046affffffffffffffffffffff166104149190612bd4565b92506101000a8154816affffffffffffffffffffff02191690836affffffffffffffffffffff1602179055505b60008061044d8461233d565b5091509150848161045e9190612c08565b905061046c82828b86612374565b600160009054906101000a900473ffffffffffffffffffffffffffffffffffffffff1673ffffffffffffffffffffffffffffffffffffffff1663a9059cbb338d6040518363ffffffff1660e01b81526004016104c99291906128e1565b602060405180830381600087803b1580156104e357600080fd5b505af11580156104f7573d6000803e3d6000fd5b505050506040513d601f19601f8201168201806040525081019061051b91906126a6565b50505050505050505050505050565b6000806000806000600460008773ffffffffffffffffffffffffffffffffffffffff1673ffffffffffffffffffffffffffffffffffffffff16815260200190815260200160002060000160009054906101000a900463ffffffff16600460008873ffffffffffffffffffffffffffffffffffffffff1673ffffffffffffffffffffffffffffffffffffffff16815260200190815260200160002060000160069054906101000a900460ff16600460008973ffffffffffffffffffffffffffffffffffffffff1673ffffffffffffffffffffffffffffffffffffffff16815260200190815260200160002060000160079054906101000a90046fffffffffffffffffffffffffffffffff16600460008a73ffffffffffffffffffffffffffffffffffffffff1673ffffffffffffffffffffffffffffffffffffffff16815260200190815260200160002060010160009054906101000a90046fffffffffffffffffffffffffffffffff16600460008b73ffffffffffffffffffffffffffffffffffffffff1673ffffffffffffffffffffffffffffffffffffffff16815260200190815260200160002060010160109054906101000a90046fffffffffffffffffffffffffffffffff168463ffffffff169450826fffffffffffffffffffffffffffffffff169250816fffffffffffffffffffffffffffffffff169150806fffffffffffffffffffffffffffffffff1690509450945094509450945091939590929450565b600115158315151480156107615750600081115b61076a57600080fd5b600160009054906101000a900473ffffffffffffffffffffffffffffffffffffffff1673ffffffffffffffffffffffffffffffffffffffff168273ffffffffffffffffffffffffffffffffffffffff1614156109d15780600460003373ffffffffffffffffffffffffffffffffffffffff1673ffffffffffffffffffffffffffffffffffffffff16815260200190815260200160002060010160109054906101000a90046fffffffffffffffffffffffffffffffff16600460003373ffffffffffffffffffffffffffffffffffffffff1673ffffffffffffffffffffffffffffffffffffffff16815260200190815260200160002060010160009054906101000a90046fffffffffffffffffffffffffffffffff166108899190612b6c565b6fffffffffffffffffffffffffffffffff1610156108a657600080fd5b620f4240436108b59190612a04565b600460003373ffffffffffffffffffffffffffffffffffffffff1673ffffffffffffffffffffffffffffffffffffffff16815260200190815260200160002060020160006101000a8154816fffffffffffffffffffffffffffffffff02191690836fffffffffffffffffffffffffffffffff16021790555080600460003373ffffffffffffffffffffffffffffffffffffffff1673ffffffffffffffffffffffffffffffffffffffff16815260200190815260200160002060010160108282829054906101000a90046fffffffffffffffffffffffffffffffff1661099a91906129be565b92506101000a8154816fffffffffffffffffffffffffffffffff02191690836fffffffffffffffffffffffffffffffff1602179055505b731565616e3994353482eb032f7583469f5e0bcbec73ffffffffffffffffffffffffffffffffffffffff168273ffffffffffffffffffffffffffffffffffffffff161415610c6957808273ffffffffffffffffffffffffffffffffffffffff166370a08231336040518263ffffffff1660e01b8152600401610a53919061288f565b60206040518083038186803b158015610a6b57600080fd5b505afa158015610a7f573d6000803e3d6000fd5b505050506040513d601f19601f82011682018060405250810190610aa39190612783565b1015610aae57600080fd5b620f424043610abd9190612a04565b600560003373ffffffffffffffffffffffffffffffffffffffff1673ffffffffffffffffffffffffffffffffffffffff16815260200190815260200160002060000160106101000a8154816fffffffffffffffffffffffffffffffff02191690836fffffffffffffffffffffffffffffffff16021790555080600560003373ffffffffffffffffffffffffffffffffffffffff1673ffffffffffffffffffffffffffffffffffffffff16815260200190815260200160002060000160008282829054906101000a90046fffffffffffffffffffffffffffffffff16610ba291906129be565b92506101000a8154816fffffffffffffffffffffffffffffffff02191690836fffffffffffffffffffffffffffffffff1602179055508173ffffffffffffffffffffffffffffffffffffffff166323b872dd3330846040518463ffffffff1660e01b8152600401610c15939291906128aa565b602060405180830381600087803b158015610c2f57600080fd5b505af1158015610c43573d6000803e3d6000fd5b505050506040513d601f19601f82011682018060405250810190610c6791906126a6565b505b505050565b6000600160009054906101000a900473ffffffffffffffffffffffffffffffffffffffff169050600060028054905090506000600460003373ffffffffffffffffffffffffffffffffffffffff1673ffffffffffffffffffffffffffffffffffffffff16815260200190815260200160002060000160009054906101000a900463ffffffff1663ffffffff16905060001515600460003373ffffffffffffffffffffffffffffffffffffffff1673ffffffffffffffffffffffffffffffffffffffff16815260200190815260200160002060000160069054906101000a900460ff161515148015610de75750838373ffffffffffffffffffffffffffffffffffffffff166370a08231336040518263ffffffff1660e01b8152600401610d94919061288f565b60206040518083038186803b158015610dac57600080fd5b505afa158015610dc0573d6000803e3d6000fd5b505050506040513d601f19601f82011682018060405250810190610de49190612783565b10155b610df057600080fd5b8273ffffffffffffffffffffffffffffffffffffffff166323b872dd3330876040518463ffffffff1660e01b8152600401610e2d939291906128aa565b602060405180830381600087803b158015610e4757600080fd5b505af1158015610e5b573d6000803e3d6000fd5b505050506040513d601f19601f82011682018060405250810190610e7f91906126a6565b506000811415610eef5743600460003373ffffffffffffffffffffffffffffffffffffffff1673ffffffffffffffffffffffffffffffffffffffff16815260200190815260200160002060000160006101000a81548163ffffffff021916908363ffffffff160217905550610f01565b438114610f0057610eff33611dc1565b5b5b60006002600184610f129190612ba0565b81548110610f49577f4e487b7100000000000000000000000000000000000000000000000000000000600052603260045260246000fd5b90600052602060002001549050600080610f628361233d565b50915091508681610f739190612a5a565b9050610f828282600088612374565b600280549050600460003373ffffffffffffffffffffffffffffffffffffffff1673ffffffffffffffffffffffffffffffffffffffff16815260200190815260200160002060000160046101000a81548161ffff021916908361ffff16021790555060006402540be400600160159054906101000a90046affffffffffffffffffffff166110109190612b27565b6affffffffffffffffffffff169050878161102b9190612a04565b90506402540be4008161103e9190612a9c565b600160156101000a8154816affffffffffffffffffffff02191690836affffffffffffffffffffff160217905550600081731565616e3994353482eb032f7583469f5e0bcbec73ffffffffffffffffffffffffffffffffffffffff166370a082318a6040518263ffffffff1660e01b81526004016110bc919061288f565b60206040518083038186803b1580156110d457600080fd5b505afa1580156110e8573d6000803e3d6000fd5b505050506040513d601f19601f8201168201806040525081019061110c9190612783565b8a6111179190612acd565b6111219190612a9c565b905080600460003373ffffffffffffffffffffffffffffffffffffffff1673ffffffffffffffffffffffffffffffffffffffff16815260200190815260200160002060000160078282829054906101000a90046fffffffffffffffffffffffffffffffff1661119091906129be565b92506101000a8154816fffffffffffffffffffffffffffffffff02191690836fffffffffffffffffffffffffffffffff16021790555088600460003373ffffffffffffffffffffffffffffffffffffffff1673ffffffffffffffffffffffffffffffffffffffff16815260200190815260200160002060010160008282829054906101000a90046fffffffffffffffffffffffffffffffff1661123391906129be565b92506101000a8154816fffffffffffffffffffffffffffffffff02191690836fffffffffffffffffffffffffffffffff160217905550505050505050505050565b6000600460003373ffffffffffffffffffffffffffffffffffffffff1673ffffffffffffffffffffffffffffffffffffffff16815260200190815260200160002060010160109054906101000a90046fffffffffffffffffffffffffffffffff166fffffffffffffffffffffffffffffffff161180156113645750600460003373ffffffffffffffffffffffffffffffffffffffff1673ffffffffffffffffffffffffffffffffffffffff16815260200190815260200160002060020160009054906101000a90046fffffffffffffffffffffffffffffffff166fffffffffffffffffffffffffffffffff164310155b156113e4576000600460003373ffffffffffffffffffffffffffffffffffffffff1673ffffffffffffffffffffffffffffffffffffffff16815260200190815260200160002060010160106101000a8154816fffffffffffffffffffffffffffffffff02191690836fffffffffffffffffffffffffffffffff1602179055505b6000600560003373ffffffffffffffffffffffffffffffffffffffff1673ffffffffffffffffffffffffffffffffffffffff16815260200190815260200160002060000160009054906101000a90046fffffffffffffffffffffffffffffffff166fffffffffffffffffffffffffffffffff1690506000811180156114d95750600560003373ffffffffffffffffffffffffffffffffffffffff1673ffffffffffffffffffffffffffffffffffffffff16815260200190815260200160002060000160109054906101000a90046fffffffffffffffffffffffffffffffff166fffffffffffffffffffffffffffffffff164310155b156115fb57731565616e3994353482eb032f7583469f5e0bcbec73ffffffffffffffffffffffffffffffffffffffff1663a9059cbb33836040518363ffffffff1660e01b815260040161152d9291906128e1565b602060405180830381600087803b15801561154757600080fd5b505af115801561155b573d6000803e3d6000fd5b505050506040513d601f19601f8201168201806040525081019061157f91906126a6565b506000600560003373ffffffffffffffffffffffffffffffffffffffff1673ffffffffffffffffffffffffffffffffffffffff16815260200190815260200160002060000160006101000a8154816fffffffffffffffffffffffffffffffff02191690836fffffffffffffffffffffffffffffffff1602179055505b50565b73901628cf11454aff335770e8a9407cccab3675be73ffffffffffffffffffffffffffffffffffffffff163373ffffffffffffffffffffffffffffffffffffffff16148015611660575060001515600160149054906101000a900460ff161515145b61166957600080fd5b816000806101000a8154816fffffffffffffffffffffffffffffffff02191690836fffffffffffffffffffffffffffffffff1602179055508073ffffffffffffffffffffffffffffffffffffffff166370a08231306040518263ffffffff1660e01b81526004016116da919061288f565b60206040518083038186803b1580156116f257600080fd5b505afa158015611706573d6000803e3d6000fd5b505050506040513d601f19601f8201168201806040525081019061172a9190612783565b600060106101000a8154816fffffffffffffffffffffffffffffffff02191690836fffffffffffffffffffffffffffffffff16021790555080600160006101000a81548173ffffffffffffffffffffffffffffffffffffffff021916908373ffffffffffffffffffffffffffffffffffffffff16021790555060018060146101000a81548160ff0219169083151502179055506117c86000806124ba565b6117dd69d3c21bcecceda100000060016124ba565b5050565b600073901628cf11454aff335770e8a9407cccab3675be73ffffffffffffffffffffffffffffffffffffffff166342e94c90336040518263ffffffff1660e01b8152600401611830919061288f565b60206040518083038186803b15801561184857600080fd5b505afa15801561185c573d6000803e3d6000fd5b505050506040513d601f19601f820116820180604052508101906118809190612783565b90506000811161188f57600080fd5b60011515600160149054906101000a900460ff161515148015611905575060001515600460003373ffffffffffffffffffffffffffffffffffffffff1673ffffffffffffffffffffffffffffffffffffffff16815260200190815260200160002060000160069054906101000a900460ff161515145b61190e57600080fd5b6001600460003373ffffffffffffffffffffffffffffffffffffffff1673ffffffffffffffffffffffffffffffffffffffff16815260200190815260200160002060000160066101000a81548160ff02191690831515021790555060008060009054906101000a90046fffffffffffffffffffffffffffffffff166fffffffffffffffffffffffffffffffff16905060008183600060109054906101000a90046fffffffffffffffffffffffffffffffff166fffffffffffffffffffffffffffffffff166119dc9190612acd565b6119e69190612a9c565b905060008269d3c21bcecceda100000085611a019190612acd565b611a0b9190612a9c565b905081600460003373ffffffffffffffffffffffffffffffffffffffff1673ffffffffffffffffffffffffffffffffffffffff16815260200190815260200160002060010160006101000a8154816fffffffffffffffffffffffffffffffff02191690836fffffffffffffffffffffffffffffffff16021790555080600460003373ffffffffffffffffffffffffffffffffffffffff1673ffffffffffffffffffffffffffffffffffffffff16815260200190815260200160002060000160076101000a8154816fffffffffffffffffffffffffffffffff02191690836fffffffffffffffffffffffffffffffff16021790555062c0df00600460003373ffffffffffffffffffffffffffffffffffffffff1673ffffffffffffffffffffffffffffffffffffffff16815260200190815260200160002060000160006101000a81548163ffffffff021916908363ffffffff16021790555050505050565b600080600080600080600460008873ffffffffffffffffffffffffffffffffffffffff1673ffffffffffffffffffffffffffffffffffffffff16815260200190815260200160002060000160079054906101000a90046fffffffffffffffffffffffffffffffff16600460008973ffffffffffffffffffffffffffffffffffffffff1673ffffffffffffffffffffffffffffffffffffffff16815260200190815260200160002060010160009054906101000a90046fffffffffffffffffffffffffffffffff16600460008a73ffffffffffffffffffffffffffffffffffffffff1673ffffffffffffffffffffffffffffffffffffffff16815260200190815260200160002060010160109054906101000a90046fffffffffffffffffffffffffffffffff16600460008b73ffffffffffffffffffffffffffffffffffffffff1673ffffffffffffffffffffffffffffffffffffffff16815260200190815260200160002060020160009054906101000a90046fffffffffffffffffffffffffffffffff16600560008c73ffffffffffffffffffffffffffffffffffffffff1673ffffffffffffffffffffffffffffffffffffffff16815260200190815260200160002060000160009054906101000a90046fffffffffffffffffffffffffffffffff16600560008d73ffffffffffffffffffffffffffffffffffffffff1673ffffffffffffffffffffffffffffffffffffffff16815260200190815260200160002060000160109054906101000a90046fffffffffffffffffffffffffffffffff1695509550955095509550955091939550919395565b6000600460008373ffffffffffffffffffffffffffffffffffffffff1673ffffffffffffffffffffffffffffffffffffffff16815260200190815260200160002060000160009054906101000a900463ffffffff1663ffffffff1690506000600460008473ffffffffffffffffffffffffffffffffffffffff1673ffffffffffffffffffffffffffffffffffffffff16815260200190815260200160002060000160049054906101000a900461ffff1661ffff1690506000600460008573ffffffffffffffffffffffffffffffffffffffff1673ffffffffffffffffffffffffffffffffffffffff16815260200190815260200160002060000160069054906101000a900460ff1690506000600460008673ffffffffffffffffffffffffffffffffffffffff1673ffffffffffffffffffffffffffffffffffffffff16815260200190815260200160002060000160079054906101000a90046fffffffffffffffffffffffffffffffff166fffffffffffffffffffffffffffffffff169050834311611f4c57600080fd5b43600460008773ffffffffffffffffffffffffffffffffffffffff1673ffffffffffffffffffffffffffffffffffffffff16815260200190815260200160002060000160006101000a81548163ffffffff021916908363ffffffff1602179055506000611fb7612557565b90506000806000806000808815611fd5576003805490509150611fde565b60028054905091505b600082118015611ff95750600182611ff69190612ba0565b8a105b1561219e5760008a90505b8281101561212f57891561205e576003818154811061204c577f4e487b7100000000000000000000000000000000000000000000000000000000600052603260045260246000fd5b906000526020600020015493506120a6565b60028181548110612098577f4e487b7100000000000000000000000000000000000000000000000000000000600052603260045260246000fd5b906000526020600020015493505b6120af8461233d565b8269ffffffffffffffffffff169250816bffffffffffffffffffffffff1691508069ffffffffffffffffffff1690508097508198508299505050506001836120f79190612ba0565b811415612102578b96505b61210f8787878c8c6125c8565b8261211a9190612a04565b9150808061212790612ce5565b915050612004565b5060018261213d9190612ba0565b600460008e73ffffffffffffffffffffffffffffffffffffffff1673ffffffffffffffffffffffffffffffffffffffff16815260200190815260200160002060000160046101000a81548161ffff021916908361ffff160217905550612278565b88156121fc5760036001836121b39190612ba0565b815481106121ea577f4e487b7100000000000000000000000000000000000000000000000000000000600052603260045260246000fd5b90600052602060002001549250612250565b600260018361220b9190612ba0565b81548110612242577f4e487b7100000000000000000000000000000000000000000000000000000000600052603260045260246000fd5b906000526020600020015492505b605083901b60a01c6bffffffffffffffffffffffff1694506122758b86438b8b6125c8565b90505b6000733e6ae87673424b1a1111e7f8180294b57be3647673ffffffffffffffffffffffffffffffffffffffff16637387f44d8e846040518363ffffffff1660e01b81526004016122c99291906128e1565b602060405180830381600087803b1580156122e357600080fd5b505af11580156122f7573d6000803e3d6000fd5b505050506040513d601f19601f8201168201806040525081019061231b91906126a6565b9050600115158115151461232e57600080fd5b50505050505050505050505050565b6000806000808460b01c90506000605086901b60a01c9050600060b087901b60b01c90508282829550955095505050509193909250565b60008469ffffffffffffffffffff1662013b00436123929190612ba0565b11156123a8576001436123a59190612ba0565b90505b60008585836040516020016123bf93929190612852565b60405160208183030381529060405290506000602082015190508415612439578060036001866123ef9190612ba0565b81548110612426577f4e487b7100000000000000000000000000000000000000000000000000000000600052603260045260246000fd5b906000526020600020018190555061248f565b8060026001866124499190612ba0565b81548110612480577f4e487b7100000000000000000000000000000000000000000000000000000000600052603260045260246000fd5b90600052602060002001819055505b60008311156124b1576124b0866bffffffffffffffffffffffff16866124ba565b5b50505050505050565b6000438360006040516020016124d293929190612852565b6040516020818303038152906040529050600060208201519050600115158315151415612527576003819080600181540180825580915050600190039060005260206000200160009091909190915055612551565b60028190806001815401808255809150506001900390600052602060002001600090919091909150555b50505050565b60008067012a6d8e112200009050600062989680436125769190612a9c565b905060018111156125c0576000600190505b818110156125be57600460038461259f9190612acd565b6125a99190612a9c565b925080806125b690612ce5565b915050612588565b505b819250505090565b6000808414156125d6574393505b600086856125e49190612ba0565b9050858385836125f49190612acd565b6125fe9190612acd565b6126089190612a9c565b91505095945050505050565b60008135905061262381612dca565b92915050565b60008135905061263881612de1565b92915050565b60008151905061264d81612de1565b92915050565b60008135905061266281612df8565b92915050565b60008151905061267781612df8565b92915050565b60006020828403121561268f57600080fd5b600061269d84828501612614565b91505092915050565b6000602082840312156126b857600080fd5b60006126c68482850161263e565b91505092915050565b6000806000606084860312156126e457600080fd5b60006126f286828701612629565b935050602061270386828701612614565b925050604061271486828701612653565b9150509250925092565b6000806040838503121561273157600080fd5b600061273f85828601612629565b925050602061275085828601612653565b9150509250929050565b60006020828403121561276c57600080fd5b600061277a84828501612653565b91505092915050565b60006020828403121561279557600080fd5b60006127a384828501612668565b91505092915050565b600080604083850312156127bf57600080fd5b60006127cd85828601612653565b92505060206127de85828601612614565b9150509250929050565b6127f181612c3c565b82525050565b61280081612c4e565b82525050565b61280f81612c5a565b82525050565b61281e81612c96565b82525050565b61283561283082612ca0565b612d2e565b82525050565b61284c61284782612ccd565b612d40565b82525050565b600061285e8286612824565b600a8201915061286e828561283b565b600c8201915061287e8284612824565b600a82019150819050949350505050565b60006020820190506128a460008301846127e8565b92915050565b60006060820190506128bf60008301866127e8565b6128cc60208301856127e8565b6128d96040830184612815565b949350505050565b60006040820190506128f660008301856127e8565b6129036020830184612815565b9392505050565b600060c08201905061291f6000830189612806565b61292c6020830188612806565b6129396040830187612806565b6129466060830186612806565b6129536080830185612806565b61296060a0830184612806565b979650505050505050565b600060a0820190506129806000830188612815565b61298d60208301876127f7565b61299a6040830186612815565b6129a76060830185612815565b6129b46080830184612815565b9695505050505050565b60006129c982612c5a565b91506129d483612c5a565b9250826fffffffffffffffffffffffffffffffff038211156129f9576129f8612d52565b5b828201905092915050565b6000612a0f82612c96565b9150612a1a83612c96565b9250827fffffffffffffffffffffffffffffffffffffffffffffffffffffffffffffffff03821115612a4f57612a4e612d52565b5b828201905092915050565b6000612a6582612ccd565b9150612a7083612ccd565b9250826bffffffffffffffffffffffff03821115612a9157612a90612d52565b5b828201905092915050565b6000612aa782612c96565b9150612ab283612c96565b925082612ac257612ac1612d81565b5b828204905092915050565b6000612ad882612c96565b9150612ae383612c96565b9250817fffffffffffffffffffffffffffffffffffffffffffffffffffffffffffffffff0483118215151615612b1c57612b1b612d52565b5b828202905092915050565b6000612b3282612cb6565b9150612b3d83612cb6565b9250816affffffffffffffffffffff0483118215151615612b6157612b60612d52565b5b828202905092915050565b6000612b7782612c5a565b9150612b8283612c5a565b925082821015612b9557612b94612d52565b5b828203905092915050565b6000612bab82612c96565b9150612bb683612c96565b925082821015612bc957612bc8612d52565b5b828203905092915050565b6000612bdf82612cb6565b9150612bea83612cb6565b925082821015612bfd57612bfc612d52565b5b828203905092915050565b6000612c1382612ccd565b9150612c1e83612ccd565b925082821015612c3157612c30612d52565b5b828203905092915050565b6000612c4782612c76565b9050919050565b60008115159050919050565b60006fffffffffffffffffffffffffffffffff82169050919050565b600073ffffffffffffffffffffffffffffffffffffffff82169050919050565b6000819050919050565b600069ffffffffffffffffffff82169050919050565b60006affffffffffffffffffffff82169050919050565b60006bffffffffffffffffffffffff82169050919050565b6000612cf082612c96565b91507fffffffffffffffffffffffffffffffffffffffffffffffffffffffffffffffff821415612d2357612d22612d52565b5b600182019050919050565b6000612d3982612dbd565b9050919050565b6000612d4b82612db0565b9050919050565b7f4e487b7100000000000000000000000000000000000000000000000000000000600052601160045260246000fd5b7f4e487b7100000000000000000000000000000000000000000000000000000000600052601260045260246000fd5b60008160a01b9050919050565b60008160b01b9050919050565b612dd381612c3c565b8114612dde57600080fd5b50565b612dea81612c4e565b8114612df557600080fd5b50565b612e0181612c96565b8114612e0c57600080fd5b5056fea264697066735822122021a770db213169222fe3d72044dfc0eac378d747502df547405a0acca1dd3a5964736f6c63430008040033"}}