{"compiler":"v0.6.12+commit.27d51765","opcodeHash":"0xc9b7c4c66917ac9ad327dd1294af0de38eb8719f169a6f0a2c8626af047444af","metalessHash":"0x3589c0080123505dec372a287a7e158b49fa6a6b38cad9441141f906f50ea843","runtimeHash":"0xc567fcd14aa02eefffe802babcd54b9408014895130765d252ca54de777579ab","encodedMetadata":[{"ipfs":"/ipfs/QmTq8dYEsWYb3qeCDtoE1D6dZKzoKK95KG9ciHAJcrG1Yt","solc":"0.6.12"}],"abi":[{"inputs":[{"internalType":"address","name":"oneBond_","type":"address"},{"internalType":"address","name":"lptoken_","type":"address"},{"internalType":"uint256","name":"starttime_","type":"uint256"}],"stateMutability":"nonpayable","type":"constructor"},{"anonymous":false,"inputs":[{"indexed":true,"internalType":"address","name":"previousOperator","type":"address"},{"indexed":true,"internalType":"address","name":"newOperator","type":"address"}],"name":"OperatorTransferred","type":"event"},{"anonymous":false,"inputs":[{"indexed":true,"internalType":"address","name":"previousOwner","type":"address"},{"indexed":true,"internalType":"address","name":"newOwner","type":"address"}],"name":"OwnershipTransferred","type":"event"},{"anonymous":false,"inputs":[{"indexed":false,"internalType":"uint256","name":"reward","type":"uint256"}],"name":"RewardAdded","type":"event"},{"anonymous":false,"inputs":[{"indexed":true,"internalType":"address","name":"user","type":"address"},{"indexed":false,"internalType":"uint256","name":"reward","type":"uint256"}],"name":"RewardPaid","type":"event"},{"anonymous":false,"inputs":[{"indexed":true,"internalType":"address","name":"user","type":"address"},{"indexed":false,"internalType":"uint256","name":"amount","type":"uint256"}],"name":"Staked","type":"event"},{"anonymous":false,"inputs":[{"indexed":true,"internalType":"address","name":"user","type":"address"},{"indexed":false,"internalType":"uint256","name":"amount","type":"uint256"}],"name":"Withdrawn","type":"event"},{"inputs":[],"name":"DURATION","outputs":[{"internalType":"uint256","name":"","type":"uint256"}],"stateMutability":"view","type":"function"},{"inputs":[{"internalType":"address","name":"account","type":"address"}],"name":"balanceOf","outputs":[{"internalType":"uint256","name":"","type":"uint256"}],"stateMutability":"view","type":"function"},{"inputs":[{"internalType":"address","name":"account","type":"address"}],"name":"earned","outputs":[{"internalType":"uint256","name":"","type":"uint256"}],"stateMutability":"view","type":"function"},{"inputs":[],"name":"exit","outputs":[],"stateMutability":"nonpayable","type":"function"},{"inputs":[],"name":"getReward","outputs":[],"stateMutability":"nonpayable","type":"function"},{"inputs":[],"name":"hasReward","outputs":[{"internalType":"bool","name":"","type":"bool"}],"stateMutability":"view","type":"function"},{"inputs":[],"name":"isOperator","outputs":[{"internalType":"bool","name":"","type":"bool"}],"stateMutability":"view","type":"function"},{"inputs":[],"name":"lastRewardAmount","outputs":[{"internalType":"uint256","name":"","type":"uint256"}],"stateMutability":"view","type":"function"},{"inputs":[],"name":"lastTimeRewardApplicable","outputs":[{"internalType":"uint256","name":"","type":"uint256"}],"stateMutability":"view","type":"function"},{"inputs":[],"name":"lastUpdateTime","outputs":[{"internalType":"uint256","name":"","type":"uint256"}],"stateMutability":"view","type":"function"},{"inputs":[],"name":"lpt","outputs":[{"internalType":"contract IERC20","name":"","type":"address"}],"stateMutability":"view","type":"function"},{"inputs":[{"internalType":"uint256","name":"reward","type":"uint256"}],"name":"notifyRewardAmount","outputs":[],"stateMutability":"nonpayable","type":"function"},{"inputs":[],"name":"oneBond","outputs":[{"internalType":"contract IERC20","name":"","type":"address"}],"stateMutability":"view","type":"function"},{"inputs":[],"name":"operator","outputs":[{"internalType":"address","name":"","type":"address"}],"stateMutability":"view","type":"function"},{"inputs":[],"name":"owner","outputs":[{"internalType":"address","name":"","type":"address"}],"stateMutability":"view","type":"function"},{"inputs":[],"name":"periodFinish","outputs":[{"internalType":"uint256","name":"","type":"uint256"}],"stateMutability":"view","type":"function"},{"inputs":[],"name":"renounceOwnership","outputs":[],"stateMutability":"nonpayable","type":"function"},{"inputs":[],"name":"rewardPerToken","outputs":[{"internalType":"uint256","name":"","type":"uint256"}],"stateMutability":"view","type":"function"},{"inputs":[],"name":"rewardPerTokenStored","outputs":[{"internalType":"uint256","name":"","type":"uint256"}],"stateMutability":"view","type":"function"},{"inputs":[],"name":"rewardRate","outputs":[{"internalType":"uint256","name":"","type":"uint256"}],"stateMutability":"view","type":"function"},{"inputs":[{"internalType":"address","name":"","type":"address"}],"name":"rewards","outputs":[{"internalType":"uint256","name":"","type":"uint256"}],"stateMutability":"view","type":"function"},{"inputs":[{"internalType":"uint256","name":"amount","type":"uint256"}],"name":"stake","outputs":[],"stateMutability":"nonpayable","type":"function"},{"inputs":[],"name":"starttime","outputs":[{"internalType":"uint256","name":"","type":"uint256"}],"stateMutability":"view","type":"function"},{"inputs":[],"name":"totalSupply","outputs":[{"internalType":"uint256","name":"","type":"uint256"}],"stateMutability":"view","type":"function"},{"inputs":[{"internalType":"address","name":"newOperator_","type":"address"}],"name":"transferOperator","outputs":[],"stateMutability":"nonpayable","type":"function"},{"inputs":[{"internalType":"address","name":"newOwner","type":"address"}],"name":"transferOwnership","outputs":[],"stateMutability":"nonpayable","type":"function"},{"inputs":[{"internalType":"address","name":"","type":"address"}],"name":"userRewardPerTokenPaid","outputs":[{"internalType":"uint256","name":"","type":"uint256"}],"stateMutability":"view","type":"function"},{"inputs":[{"internalType":"uint256","name":"amount","type":"uint256"}],"name":"withdraw","outputs":[],"stateMutability":"nonpayable","type":"function"}],"bytecode":{"object":"60806040526170806006556000600855600060095534801561002057600080fd5b506040516116183803806116188339818101604052606081101561004357600080fd5b5080516020820151604090920151909190600061005e610138565b600380546001600160a01b0319166001600160a01b038316908117909155604051919250906000907f8be0079c531659141344cd1fd0a4f28419497f9722a3daafe3b4186f6b6457e0908290a3506100b4610138565b600480546001600160a01b0319166001600160a01b0392831617908190556040519116906000907f74da04524d50c64947f5dd5381ef1a4dca5cba8ed1d816243f9e48aa0b5617ed908290a3600580546001600160a01b039485166001600160a01b031991821617909155600080549390941692169190911790915560075561013c565b3390565b6114cd8061014b6000396000f3fe608060405234801561001057600080fd5b50600436106101c35760003560e01c806380faa57d116100f9578063cd3daf9d11610097578063dff1624111610071578063dff16241146103a1578063e9fad8ee146103a9578063ebe2b12b146103b1578063f2fde38b146103b9576101c3565b8063cd3daf9d14610389578063ce5fc8d014610391578063df136d6514610399576101c3565b80638da5cb5b116100d35780638da5cb5b14610354578063a694fc3a1461035c578063bafedcaa14610379578063c8f33c9114610381576101c3565b806380faa57d1461031e5780638b876347146103265780638da588971461034c576101c3565b80633c6b16ab11610166578063570ca73511610140578063570ca735146102e057806370a08231146102e8578063715018a61461030e5780637b0a47ee14610316576101c3565b80633c6b16ab1461029f5780633d18b912146102bc5780634456eda2146102c4576101c3565b806318160ddd116101a257806318160ddd1461024a5780631be052891461025257806329605e771461025a5780632e1a7d4d14610282576101c3565b80628cc262146101c857806304bf1117146102005780630700037d14610224575b600080fd5b6101ee600480360360208110156101de57600080fd5b50356001600160a01b03166103df565b60408051918252519081900360200190f35b61020861044d565b604080516001600160a01b039092168252519081900360200190f35b6101ee6004803603602081101561023a57600080fd5b50356001600160a01b031661045c565b6101ee61046e565b6101ee610475565b6102806004803603602081101561027057600080fd5b50356001600160a01b031661047b565b005b6102806004803603602081101561029857600080fd5b50356104f1565b610280600480360360208110156102b557600080fd5b5035610636565b6102806107fb565b6102cc61091e565b604080519115158252519081900360200190f35b610208610944565b6101ee600480360360208110156102fe57600080fd5b50356001600160a01b0316610953565b61028061096e565b6101ee610a22565b6101ee610a28565b6101ee6004803603602081101561033c57600080fd5b50356001600160a01b0316610a3b565b6101ee610a4d565b610208610a53565b6102806004803603602081101561037257600080fd5b5035610a62565b6101ee610ba7565b6101ee610bad565b6101ee610bb3565b610208610c01565b6101ee610c10565b6102cc610c16565b610280610c1f565b6101ee610c3a565b610280600480360360208110156103cf57600080fd5b50356001600160a01b0316610c40565b6001600160a01b0381166000908152600e6020908152604080832054600d909252822054610447919061044190670de0b6b3a76400009061043b9061042c90610426610bb3565b90610d4b565b61043588610953565b90610d94565b90610ded565b90610e2f565b92915050565b6005546001600160a01b031681565b600e6020526000908152604090205481565b6001545b90565b60065481565b610483610e89565b6003546001600160a01b039081169116146104e5576040805162461bcd60e51b815260206004820181905260248201527f4f776e61626c653a2063616c6c6572206973206e6f7420746865206f776e6572604482015290519081900360640190fd5b6104ee81610e8d565b50565b336104fa610bb3565b600b55610505610a28565b600a556001600160a01b0381161561054c57610520816103df565b6001600160a01b0382166000908152600e6020908152604080832093909355600b54600d909152919020555b60075442101561059e576040805162461bcd60e51b815260206004820152601860248201527713d39094995dd85c99141bdbdb0e881b9bdd081cdd185c9d60421b604482015290519081900360640190fd5b600082116105f3576040805162461bcd60e51b815260206004820181905260248201527f4f4e42526577617264506f6f6c3a2043616e6e6f742077697468647261772030604482015290519081900360640190fd5b6105fc82610f2a565b60408051838152905133917f7084f5476618d8e60b11ef0d7d3f06914655adb8793e28ff7f018d4c76d505d5919081900360200190a25050565b6004546001600160a01b0316331461067f5760405162461bcd60e51b815260040180806020018281038252602481526020018061144a6024913960400191505060405180910390fd5b6000610689610bb3565b600b55610694610a28565b600a556001600160a01b038116156106db576106af816103df565b6001600160a01b0382166000908152600e6020908152604080832093909355600b54600d909152919020555b600c82905560075442111561079a57600854421061070957600654610701908390610ded565b60095561074c565b6008546000906107199042610d4b565b9050600061073260095483610d9490919063ffffffff16565b6006549091506107469061043b8684610e2f565b60095550505b42600a81905560065461075f9190610e2f565b6008556040805183815290517fde88a922e0d3b88b24e9623efeb464919c6bf9f66857a65e2bfcf2ce87a9433d9181900360200190a16107f7565b6006546107a8908390610ded565b600955600754600a8190556006546107c09190610e2f565b6008556040805183815290517fde88a922e0d3b88b24e9623efeb464919c6bf9f66857a65e2bfcf2ce87a9433d9181900360200190a15b5050565b33610804610bb3565b600b5561080f610a28565b600a556001600160a01b038116156108565761082a816103df565b6001600160a01b0382166000908152600e6020908152604080832093909355600b54600d909152919020555b6007544210156108a8576040805162461bcd60e51b815260206004820152601860248201527713d39094995dd85c99141bdbdb0e881b9bdd081cdd185c9d60421b604482015290519081900360640190fd5b60006108b3336103df565b905080156107f757336000818152600e60205260408120556005546108e4916001600160a01b039091169083610f7b565b60408051828152905133917fe2403640ba68fed3a2f88b7557551d1993f84b99bb10ff833f0cf8db0c5e0486919081900360200190a25050565b6004546000906001600160a01b0316610935610e89565b6001600160a01b031614905090565b6004546001600160a01b031690565b6001600160a01b031660009081526002602052604090205490565b610976610e89565b6003546001600160a01b039081169116146109d8576040805162461bcd60e51b815260206004820181905260248201527f4f776e61626c653a2063616c6c6572206973206e6f7420746865206f776e6572604482015290519081900360640190fd5b6003546040516000916001600160a01b0316907f8be0079c531659141344cd1fd0a4f28419497f9722a3daafe3b4186f6b6457e0908390a3600380546001600160a01b0319169055565b60095481565b6000610a3642600854610fd2565b905090565b600d6020526000908152604090205481565b60075481565b6003546001600160a01b031690565b33610a6b610bb3565b600b55610a76610a28565b600a556001600160a01b03811615610abd57610a91816103df565b6001600160a01b0382166000908152600e6020908152604080832093909355600b54600d909152919020555b600754421015610b0f576040805162461bcd60e51b815260206004820152601860248201527713d39094995dd85c99141bdbdb0e881b9bdd081cdd185c9d60421b604482015290519081900360640190fd5b60008211610b64576040805162461bcd60e51b815260206004820152601d60248201527f4f4e42526577617264506f6f6c3a2043616e6e6f74207374616b652030000000604482015290519081900360640190fd5b610b6d82610fe8565b60408051838152905133917f9e71bc8eea02a63969f509818f2dafb9254532904319f9dbda79b67bd34a5f3d919081900360200190a25050565b600c5481565b600a5481565b6000610bbd61046e565b610bca5750600b54610472565b610a36610bf8610bd861046e565b61043b670de0b6b3a7640000610435600954610435600a54610426610a28565b600b5490610e2f565b6000546001600160a01b031681565b600b5481565b60085442111590565b610c30610c2b33610953565b6104f1565b610c386107fb565b565b60085481565b610c48610e89565b6003546001600160a01b03908116911614610caa576040805162461bcd60e51b815260206004820181905260248201527f4f776e61626c653a2063616c6c6572206973206e6f7420746865206f776e6572604482015290519081900360640190fd5b6001600160a01b038116610cef5760405162461bcd60e51b81526004018080602001828103825260268152602001806113d66026913960400191505060405180910390fd5b6003546040516001600160a01b038084169216907f8be0079c531659141344cd1fd0a4f28419497f9722a3daafe3b4186f6b6457e090600090a3600380546001600160a01b0319166001600160a01b0392909216919091179055565b6000610d8d83836040518060400160405280601e81526020017f536166654d6174683a207375627472616374696f6e206f766572666c6f77000081525061103e565b9392505050565b600082610da357506000610447565b82820282848281610db057fe5b0414610d8d5760405162461bcd60e51b81526004018080602001828103825260218152602001806114296021913960400191505060405180910390fd5b6000610d8d83836040518060400160405280601a81526020017f536166654d6174683a206469766973696f6e206279207a65726f0000000000008152506110d5565b600082820183811015610d8d576040805162461bcd60e51b815260206004820152601b60248201527f536166654d6174683a206164646974696f6e206f766572666c6f770000000000604482015290519081900360640190fd5b3390565b6001600160a01b038116610ed25760405162461bcd60e51b815260040180806020018281038252602d8152602001806113fc602d913960400191505060405180910390fd5b6040516001600160a01b038216906000907f74da04524d50c64947f5dd5381ef1a4dca5cba8ed1d816243f9e48aa0b5617ed908290a3600480546001600160a01b0319166001600160a01b0392909216919091179055565b600154610f379082610d4b565b60015533600090815260026020526040902054610f549082610d4b565b3360008181526002602052604081209290925590546104ee916001600160a01b0390911690835b604080516001600160a01b038416602482015260448082018490528251808303909101815260649091019091526020810180516001600160e01b031663a9059cbb60e01b179052610fcd90849061113a565b505050565b6000818310610fe15781610d8d565b5090919050565b600154610ff59082610e2f565b600155336000908152600260205260409020546110129082610e2f565b3360008181526002602052604081209290925590546104ee916001600160a01b039091169030846111eb565b600081848411156110cd5760405162461bcd60e51b81526004018080602001828103825283818151815260200191508051906020019080838360005b8381101561109257818101518382015260200161107a565b50505050905090810190601f1680156110bf5780820380516001836020036101000a031916815260200191505b509250505060405180910390fd5b505050900390565b600081836111245760405162461bcd60e51b815260206004820181815283516024840152835190928392604490910191908501908083836000831561109257818101518382015260200161107a565b50600083858161113057fe5b0495945050505050565b606061118f826040518060400160405280602081526020017f5361666545524332303a206c6f772d6c6576656c2063616c6c206661696c6564815250856001600160a01b031661124b9092919063ffffffff16565b805190915015610fcd578080602001905160208110156111ae57600080fd5b5051610fcd5760405162461bcd60e51b815260040180806020018281038252602a81526020018061146e602a913960400191505060405180910390fd5b604080516001600160a01b0380861660248301528416604482015260648082018490528251808303909101815260849091019091526020810180516001600160e01b03166323b872dd60e01b17905261124590859061113a565b50505050565b606061125a8484600085611262565b949350505050565b606061126d856113cf565b6112be576040805162461bcd60e51b815260206004820152601d60248201527f416464726573733a2063616c6c20746f206e6f6e2d636f6e7472616374000000604482015290519081900360640190fd5b60006060866001600160a01b031685876040518082805190602001908083835b602083106112fd5780518252601f1990920191602091820191016112de565b6001836020036101000a03801982511681845116808217855250505050505090500191505060006040518083038185875af1925050503d806000811461135f576040519150601f19603f3d011682016040523d82523d6000602084013e611364565b606091505b5091509150811561137857915061125a9050565b8051156113885780518082602001fd5b60405162461bcd60e51b815260206004820181815286516024840152865187939192839260440191908501908083836000831561109257818101518382015260200161107a565b3b15159056fe4f776e61626c653a206e6577206f776e657220697320746865207a65726f20616464726573736f70657261746f723a207a65726f206164647265737320676976656e20666f72206e6577206f70657261746f72536166654d6174683a206d756c7469706c69636174696f6e206f766572666c6f776f70657261746f723a2063616c6c6572206973206e6f7420746865206f70657261746f725361666545524332303a204552433230206f7065726174696f6e20646964206e6f742073756363656564a26469706673582212206cf493aa9da945d8aba6d90d1501f2db6fade997b5ea090a01416c9616a5570064736f6c634300060c0033"}}