{"compiler":"v0.6.12+commit.27d51765","opcodeHash":"0x4aa865c7795e73f0901f4afc775c6e1c3a836fa3d55b36dbbbab3991b7ec4981","metalessHash":"0xd0dc4f805f9aa834061a21d914a9c664d4d08b07a3d36693e7a3516b5d5579e6","runtimeHash":"0x808474dcb69c8011f3a5fa9870b33e16840e368eb48850ace4b17223793fd6f7","encodedMetadata":[{"ipfs":"/ipfs/QmckEjPiZaiVrysotibc72Ygn43NiD2J7wYhNVi9p3VqvY","solc":"0.6.12"}],"abi":[{"anonymous":false,"inputs":[{"indexed":true,"internalType":"address","name":"previousOwner","type":"address"},{"indexed":true,"internalType":"address","name":"newOwner","type":"address"}],"name":"OwnershipTransferred","type":"event"},{"stateMutability":"payable","type":"fallback"},{"inputs":[],"name":"_WETH","outputs":[{"internalType":"contract IWETH","name":"","type":"address"}],"stateMutability":"view","type":"function"},{"inputs":[],"name":"_feeApprover","outputs":[{"internalType":"contract IFeeApprover","name":"","type":"address"}],"stateMutability":"view","type":"function"},{"inputs":[],"name":"_pornToken","outputs":[{"internalType":"address","name":"","type":"address"}],"stateMutability":"view","type":"function"},{"inputs":[],"name":"_pornVault","outputs":[{"internalType":"contract IPornVault","name":"","type":"address"}],"stateMutability":"view","type":"function"},{"inputs":[],"name":"_pornWETHPair","outputs":[{"internalType":"address","name":"","type":"address"}],"stateMutability":"view","type":"function"},{"inputs":[{"internalType":"address payable","name":"to","type":"address"},{"internalType":"bool","name":"autoStake","type":"bool"}],"name":"addLiquidityETHOnly","outputs":[],"stateMutability":"payable","type":"function"},{"inputs":[{"internalType":"address","name":"feeApprover","type":"address"}],"name":"changeFeeApprover","outputs":[],"stateMutability":"nonpayable","type":"function"},{"inputs":[{"internalType":"address","name":"pornVault","type":"address"}],"name":"changePVault","outputs":[],"stateMutability":"nonpayable","type":"function"},{"inputs":[{"internalType":"uint256","name":"ethAmt","type":"uint256"}],"name":"getLPTokenPerEthUnit","outputs":[{"internalType":"uint256","name":"liquidity","type":"uint256"}],"stateMutability":"view","type":"function"},{"inputs":[{"internalType":"address","name":"","type":"address"}],"name":"hardPORN","outputs":[{"internalType":"uint256","name":"","type":"uint256"}],"stateMutability":"view","type":"function"},{"inputs":[],"name":"initialize","outputs":[],"stateMutability":"nonpayable","type":"function"},{"inputs":[],"name":"owner","outputs":[{"internalType":"address","name":"","type":"address"}],"stateMutability":"view","type":"function"},{"inputs":[],"name":"refreshApproval","outputs":[],"stateMutability":"nonpayable","type":"function"},{"inputs":[],"name":"renounceOwnership","outputs":[],"stateMutability":"nonpayable","type":"function"},{"inputs":[{"internalType":"address","name":"newOwner","type":"address"}],"name":"transferOwnership","outputs":[],"stateMutability":"nonpayable","type":"function"}],"bytecode":{"object":"6080604052609880546001600160a01b0319908116733e33995883e5ab9911973c8f1023b82363f5e2ed17909155609980548216731ada27ea4d66d4ef127ba3fd5daeb625c0c6be33179055609a8054821673449a67f57ef4505bc03b1a5233c1b68af4cad4c3179055609b8054821673a0b5b75241e8882e4b1b9dad49e11691ba3d14fe179055609c805490911673c02aaa39b223fe8d0a0e5c4f27ead9083c756cc21790553480156100b257600080fd5b506119e3806100c26000396000f3fe6080604052600436106100e85760003560e01c8063715018a61161008a578063bf33a1f511610059578063bf33a1f51461028f578063d6b89a03146102a4578063e0af3616146102ce578063f2fde38b146102e3576100e8565b8063715018a61461023b5780638129fc1c146102505780638c9e6c6b146102655780638da5cb5b1461027a576100e8565b806322d5b25c116100c657806322d5b25c1461019957806333ef28c8146101ae5780634601723a146101c357806368e3b6f2146101f6576100e8565b80630c57af6c1461010757806311148f44146101355780631765bd9b14610168575b609c546001600160a01b0316331461010557610105336000610316565b005b6101056004803603604081101561011d57600080fd5b506001600160a01b0381351690602001351515610316565b34801561014157600080fd5b506101056004803603602081101561015857600080fd5b50356001600160a01b031661065c565b34801561017457600080fd5b5061017d6106d6565b604080516001600160a01b039092168252519081900360200190f35b3480156101a557600080fd5b5061017d6106e5565b3480156101ba57600080fd5b5061017d6106f4565b3480156101cf57600080fd5b50610105600480360360208110156101e657600080fd5b50356001600160a01b0316610703565b34801561020257600080fd5b506102296004803603602081101561021957600080fd5b50356001600160a01b031661077d565b60408051918252519081900360200190f35b34801561024757600080fd5b5061010561078f565b34801561025c57600080fd5b50610105610831565b34801561027157600080fd5b5061017d6108e3565b34801561028657600080fd5b5061017d6108f2565b34801561029b57600080fd5b50610105610901565b3480156102b057600080fd5b50610229600480360360208110156102c757600080fd5b5035610989565b3480156102da57600080fd5b5061017d610af8565b3480156102ef57600080fd5b506101056004803603602081101561030657600080fd5b50356001600160a01b0316610b07565b6001600160a01b038216610363576040805162461bcd60e51b815260206004820152600f60248201526e496e76616c6964206164647265737360881b604482015290519081900360640190fd5b3360009081526097602052604090205461037d9034610c00565b3360009081526097602052604081209190915561039b346002610c63565b9050600081116103f2576040805162461bcd60e51b815260206004820152601760248201527f496e73756666696369656e742045544820616d6f756e74000000000000000000604482015290519081900360640190fd5b609c60009054906101000a90046001600160a01b03166001600160a01b031663d0e30db0346040518263ffffffff1660e01b81526004016000604051808303818588803b15801561044257600080fd5b505af1158015610456573d6000803e3d6000fd5b5050505050600080610466610ca5565b915091506000610477848484610d92565b609c546099546040805163a9059cbb60e01b81526001600160a01b03928316600482015260248101899052905193945091169163a9059cbb916044808201926020929091908290030181600087803b1580156104d257600080fd5b505af11580156104e6573d6000803e3d6000fd5b505050506040513d60208110156104fc57600080fd5b5050609c54609854600091829161051f916001600160a01b039081169116610e6a565b6099546098549294509092506001600160a01b039081169163022c0d9f9180861691161461054e576000610550565b845b6098546001600160a01b0385811691161461056c57600061056e565b855b604080516001600160e01b031960e086901b1681526004810193909352602483019190915230604483015260806064830152600060848301819052905160c48084019382900301818387803b1580156105c657600080fd5b505af11580156105da573d6000803e3d6000fd5b505050506105ea83878a8a610f48565b609a60009054906101000a90046001600160a01b03166001600160a01b031663fff6cae96040518163ffffffff1660e01b8152600401600060405180830381600087803b15801561063a57600080fd5b505af115801561064e573d6000803e3d6000fd5b505050505050505050505050565b6106646113e8565b6065546001600160a01b039081169116146106b4576040805162461bcd60e51b81526020600482018190526024820152600080516020611910833981519152604482015290519081900360640190fd5b609b80546001600160a01b0319166001600160a01b0392909216919091179055565b6098546001600160a01b031681565b609a546001600160a01b031681565b609b546001600160a01b031681565b61070b6113e8565b6065546001600160a01b0390811691161461075b576040805162461bcd60e51b81526020600482018190526024820152600080516020611910833981519152604482015290519081900360640190fd5b609a80546001600160a01b0319166001600160a01b0392909216919091179055565b60976020526000908152604090205481565b6107976113e8565b6065546001600160a01b039081169116146107e7576040805162461bcd60e51b81526020600482018190526024820152600080516020611910833981519152604482015290519081900360640190fd5b6065546040516000916001600160a01b0316907f8be0079c531659141344cd1fd0a4f28419497f9722a3daafe3b4186f6b6457e0908390a3606580546001600160a01b0319169055565b600054610100900460ff168061084a575061084a6113ec565b80610858575060005460ff16155b6108935760405162461bcd60e51b815260040180806020018281038252602e815260200180611930602e913960400191505060405180910390fd5b600054610100900460ff161580156108be576000805460ff1961ff0019909116610100171660011790555b6108c66113f2565b6108ce610901565b80156108e0576000805461ff00191690555b50565b6099546001600160a01b031681565b6065546001600160a01b031690565b609954609b546040805163095ea7b360e01b81526001600160a01b03928316600482015260001960248201529051919092169163095ea7b39160448083019260209291908290030181600087803b15801561095b57600080fd5b505af115801561096f573d6000803e3d6000fd5b505050506040513d602081101561098557600080fd5b5050565b6000806000610996610ca5565b909250905060006109b26109ab866002610c63565b8484610d92565b90506000609960009054906101000a90046001600160a01b03166001600160a01b03166318160ddd6040518163ffffffff1660e01b815260040160206040518083038186803b158015610a0457600080fd5b505afa158015610a18573d6000803e3d6000fd5b505050506040513d6020811015610a2e57600080fd5b5051609c54609854919250600091610a52916001600160a01b039081169116610e6a565b5060985490915060009081906001600160a01b03808516911614610a8157610a7b896002610c63565b85610a8d565b84610a8d8a6002610c63565b609854919350915060009081906001600160a01b03868116911614610ab3578888610ab6565b87895b9092509050610ae982610ac9868961148f565b81610ad057fe5b0482610adc868a61148f565b81610ae357fe5b046114e8565b9b9a5050505050505050505050565b609c546001600160a01b031681565b610b0f6113e8565b6065546001600160a01b03908116911614610b5f576040805162461bcd60e51b81526020600482018190526024820152600080516020611910833981519152604482015290519081900360640190fd5b6001600160a01b038116610ba45760405162461bcd60e51b815260040180806020018281038252602681526020018061187c6026913960400191505060405180910390fd5b6065546040516001600160a01b038084169216907f8be0079c531659141344cd1fd0a4f28419497f9722a3daafe3b4186f6b6457e090600090a3606580546001600160a01b0319166001600160a01b0392909216919091179055565b600082820183811015610c5a576040805162461bcd60e51b815260206004820152601b60248201527f536166654d6174683a206164646974696f6e206f766572666c6f770000000000604482015290519081900360640190fd5b90505b92915050565b6000610c5a83836040518060400160405280601a81526020017f536166654d6174683a206469766973696f6e206279207a65726f0000000000008152506114fe565b609c5460985460009182918291610cc8916001600160a01b039182169116610e6a565b509050600080609960009054906101000a90046001600160a01b03166001600160a01b0316630902f1ac6040518163ffffffff1660e01b815260040160606040518083038186803b158015610d1c57600080fd5b505afa158015610d30573d6000803e3d6000fd5b505050506040513d6060811015610d4657600080fd5b5080516020909101516098546dffffffffffffffffffffffffffff9283169450911691506001600160a01b03848116911614610d83578181610d86565b80825b90969095509350505050565b6000808411610dd25760405162461bcd60e51b815260040180806020018281038252602b815260200180611983602b913960400191505060405180910390fd5b600083118015610de25750600082115b610e1d5760405162461bcd60e51b81526004018080602001828103825260288152602001806118c76028913960400191505060405180910390fd5b6000610e2b856103e561148f565b90506000610e39828561148f565b90506000610e5383610e4d886103e861148f565b90610c00565b9050808281610e5e57fe5b04979650505050505050565b600080826001600160a01b0316846001600160a01b03161415610ebe5760405162461bcd60e51b81526004018080602001828103825260258152602001806118a26025913960400191505060405180910390fd5b826001600160a01b0316846001600160a01b031610610ede578284610ee1565b83835b90925090506001600160a01b038216610f41576040805162461bcd60e51b815260206004820152601e60248201527f556e697377617056324c6962726172793a205a45524f5f414444524553530000604482015290519081900360640190fd5b9250929050565b600080610f53610ca5565b915091506000610f648684846115a0565b9050600087821115610f8557610f7b8884866115a0565b9050879150610f88565b50855b609c546099546040805163a9059cbb60e01b81526001600160a01b039283166004820152602481018590529051919092169163a9059cbb9160448083019260209291908290030181600087803b158015610fe157600080fd5b505af1158015610ff5573d6000803e3d6000fd5b505050506040513d602081101561100b57600080fd5b505161101357fe5b6098546099546040805163a9059cbb60e01b81526001600160a01b039283166004820152602481018690529051919092169163a9059cbb9160448083019260209291908290030181600087803b15801561106c57600080fd5b505af1158015611080573d6000803e3d6000fd5b505050506040513d602081101561109657600080fd5b505161109e57fe5b841561121657609954604080516335313c2160e11b815230600482015290516001600160a01b0390921691636a627842916024808201926020929091908290030181600087803b1580156110f157600080fd5b505af1158015611105573d6000803e3d6000fd5b505050506040513d602081101561111b57600080fd5b5050609b54609954604080516370a0823160e01b815230600482015290516001600160a01b0393841693634cf5fbf5938b9360009391909216916370a08231916024808301926020929190829003018186803b15801561117a57600080fd5b505afa15801561118e573d6000803e3d6000fd5b505050506040513d60208110156111a457600080fd5b5051604080516001600160e01b031960e087901b1681526001600160a01b0390941660048501526024840192909252604483015251606480830192600092919082900301818387803b1580156111f957600080fd5b505af115801561120d573d6000803e3d6000fd5b50505050611292565b609954604080516335313c2160e11b81526001600160a01b03898116600483015291519190921691636a6278429160248083019260209291908290030181600087803b15801561126557600080fd5b505af1158015611279573d6000803e3d6000fd5b505050506040513d602081101561128f57600080fd5b50505b81881115611329576098546001600160a01b031663a9059cbb876112b68b86611646565b6040518363ffffffff1660e01b815260040180836001600160a01b0316815260200182815260200192505050602060405180830381600087803b1580156112fc57600080fd5b505af1158015611310573d6000803e3d6000fd5b505050506040513d602081101561132657600080fd5b50505b808711156113de57600061133d8883611646565b609c5460408051632e1a7d4d60e01b81526004810184905290519293506001600160a01b0390911691632e1a7d4d9160248082019260009290919082900301818387803b15801561138d57600080fd5b505af11580156113a1573d6000803e3d6000fd5b50506040516001600160a01b038a16925083156108fc02915083906000818181858888f193505050501580156113db573d6000803e3d6000fd5b50505b5050505050505050565b3390565b303b1590565b600054610100900460ff168061140b575061140b6113ec565b80611419575060005460ff16155b6114545760405162461bcd60e51b815260040180806020018281038252602e815260200180611930602e913960400191505060405180910390fd5b600054610100900460ff1615801561147f576000805460ff1961ff0019909116610100171660011790555b611487611688565b6108ce611728565b60008261149e57506000610c5d565b828202828482816114ab57fe5b0414610c5a5760405162461bcd60e51b81526004018080602001828103825260218152602001806118ef6021913960400191505060405180910390fd5b60008183106114f75781610c5a565b5090919050565b6000818361158a5760405162461bcd60e51b81526004018080602001828103825283818151815260200191508051906020019080838360005b8381101561154f578181015183820152602001611537565b50505050905090810190601f16801561157c5780820380516001836020036101000a031916815260200191505b509250505060405180910390fd5b50600083858161159657fe5b0495945050505050565b60008084116115e05760405162461bcd60e51b815260040180806020018281038252602581526020018061195e6025913960400191505060405180910390fd5b6000831180156115f05750600082115b61162b5760405162461bcd60e51b81526004018080602001828103825260288152602001806118c76028913960400191505060405180910390fd5b82611636858461148f565b8161163d57fe5b04949350505050565b6000610c5a83836040518060400160405280601e81526020017f536166654d6174683a207375627472616374696f6e206f766572666c6f770000815250611821565b600054610100900460ff16806116a157506116a16113ec565b806116af575060005460ff16155b6116ea5760405162461bcd60e51b815260040180806020018281038252602e815260200180611930602e913960400191505060405180910390fd5b600054610100900460ff161580156108ce576000805460ff1961ff00199091166101001716600117905580156108e0576000805461ff001916905550565b600054610100900460ff168061174157506117416113ec565b8061174f575060005460ff16155b61178a5760405162461bcd60e51b815260040180806020018281038252602e815260200180611930602e913960400191505060405180910390fd5b600054610100900460ff161580156117b5576000805460ff1961ff0019909116610100171660011790555b60006117bf6113e8565b606580546001600160a01b0319166001600160a01b038316908117909155604051919250906000907f8be0079c531659141344cd1fd0a4f28419497f9722a3daafe3b4186f6b6457e0908290a35080156108e0576000805461ff001916905550565b600081848411156118735760405162461bcd60e51b815260206004820181815283516024840152835190928392604490910191908501908083836000831561154f578181015183820152602001611537565b50505090039056fe4f776e61626c653a206e6577206f776e657220697320746865207a65726f2061646472657373556e697377617056324c6962726172793a204944454e544943414c5f414444524553534553556e697377617056324c6962726172793a20494e53554646494349454e545f4c4951554944495459536166654d6174683a206d756c7469706c69636174696f6e206f766572666c6f774f776e61626c653a2063616c6c6572206973206e6f7420746865206f776e6572436f6e747261637420696e7374616e63652068617320616c7265616479206265656e20696e697469616c697a6564556e697377617056324c6962726172793a20494e53554646494349454e545f414d4f554e54556e697377617056324c6962726172793a20494e53554646494349454e545f494e5055545f414d4f554e54a264697066735822122032840ab3fb89a7ee05a31906314b3601108b820fc4e4b6ad23dcd7a78052874864736f6c634300060c0033"}}