{
  "opcodeHash": "0x3bc96872ad64efcf644d9711e03e0bbc4bb9ad44bf2c056f80e66e388185c2ab",
  "metalessHash": "0xf8e46df5f6e385651189a3b11c022c43dc7ad6535cfdbba75b258c2f49cd4e4f",
  "runtimeHash": "0x88306c510368181d79ad75f3f87abab1e01343cb1cbcb8a6d940c2a97091de23",
  "encodedMetadata": [
    {
      "ipfs": "/ipfs/Qmceb2PugQNXpQFBDzbeXn7e1mfxaHjDs4Jhdmr4ruk5Ms",
      "solc": "0.6.12"
    }
  ],
  "abi": [
    {
      "inputs": [
        {
          "internalType": "address",
          "name": "decentralizeCash_",
          "type": "address"
        },
        {
          "internalType": "address",
          "name": "stakeToken_",
          "type": "address"
        },
        {
          "internalType": "uint256",
          "name": "starttime_",
          "type": "uint256"
        },
        {
          "internalType": "address",
          "name": "devAddr_",
          "type": "address"
        }
      ],
      "stateMutability": "nonpayable",
      "type": "constructor"
    },
    {
      "anonymous": false,
      "inputs": [
        {
          "indexed": true,
          "internalType": "address",
          "name": "previousOwner",
          "type": "address"
        },
        {
          "indexed": true,
          "internalType": "address",
          "name": "newOwner",
          "type": "address"
        }
      ],
      "name": "OwnershipTransferred",
      "type": "event"
    },
    {
      "anonymous": false,
      "inputs": [
        {
          "indexed": false,
          "internalType": "uint256",
          "name": "reward",
          "type": "uint256"
        }
      ],
      "name": "RewardAdded",
      "type": "event"
    },
    {
      "anonymous": false,
      "inputs": [
        {
          "indexed": true,
          "internalType": "address",
          "name": "user",
          "type": "address"
        },
        {
          "indexed": false,
          "internalType": "uint256",
          "name": "reward",
          "type": "uint256"
        }
      ],
      "name": "RewardPaid",
      "type": "event"
    },
    {
      "anonymous": false,
      "inputs": [
        {
          "indexed": true,
          "internalType": "address",
          "name": "user",
          "type": "address"
        },
        {
          "indexed": false,
          "internalType": "uint256",
          "name": "amount",
          "type": "uint256"
        }
      ],
      "name": "Staked",
      "type": "event"
    },
    {
      "anonymous": false,
      "inputs": [
        {
          "indexed": true,
          "internalType": "address",
          "name": "user",
          "type": "address"
        },
        {
          "indexed": false,
          "internalType": "uint256",
          "name": "amount",
          "type": "uint256"
        }
      ],
      "name": "Withdrawn",
      "type": "event"
    },
    {
      "inputs": [],
      "name": "DURATION",
      "outputs": [
        {
          "internalType": "uint256",
          "name": "",
          "type": "uint256"
        }
      ],
      "stateMutability": "view",
      "type": "function"
    },
    {
      "inputs": [
        {
          "internalType": "address",
          "name": "account",
          "type": "address"
        }
      ],
      "name": "balanceOf",
      "outputs": [
        {
          "internalType": "uint256",
          "name": "",
          "type": "uint256"
        }
      ],
      "stateMutability": "view",
      "type": "function"
    },
    {
      "inputs": [],
      "name": "decentralizeCash",
      "outputs": [
        {
          "internalType": "contract IERC20",
          "name": "",
          "type": "address"
        }
      ],
      "stateMutability": "view",
      "type": "function"
    },
    {
      "inputs": [
        {
          "internalType": "address",
          "name": "",
          "type": "address"
        }
      ],
      "name": "deposits",
      "outputs": [
        {
          "internalType": "uint256",
          "name": "",
          "type": "uint256"
        }
      ],
      "stateMutability": "view",
      "type": "function"
    },
    {
      "inputs": [],
      "name": "devAddr",
      "outputs": [
        {
          "internalType": "address",
          "name": "",
          "type": "address"
        }
      ],
      "stateMutability": "view",
      "type": "function"
    },
    {
      "inputs": [
        {
          "internalType": "address",
          "name": "account",
          "type": "address"
        }
      ],
      "name": "earned",
      "outputs": [
        {
          "internalType": "uint256",
          "name": "",
          "type": "uint256"
        }
      ],
      "stateMutability": "view",
      "type": "function"
    },
    {
      "inputs": [],
      "name": "exit",
      "outputs": [],
      "stateMutability": "nonpayable",
      "type": "function"
    },
    {
      "inputs": [],
      "name": "getReward",
      "outputs": [],
      "stateMutability": "nonpayable",
      "type": "function"
    },
    {
      "inputs": [],
      "name": "lastTimeRewardApplicable",
      "outputs": [
        {
          "internalType": "uint256",
          "name": "",
          "type": "uint256"
        }
      ],
      "stateMutability": "view",
      "type": "function"
    },
    {
      "inputs": [],
      "name": "lastUpdateTime",
      "outputs": [
        {
          "internalType": "uint256",
          "name": "",
          "type": "uint256"
        }
      ],
      "stateMutability": "view",
      "type": "function"
    },
    {
      "inputs": [
        {
          "internalType": "uint256",
          "name": "reward",
          "type": "uint256"
        }
      ],
      "name": "notifyRewardAmount",
      "outputs": [],
      "stateMutability": "nonpayable",
      "type": "function"
    },
    {
      "inputs": [],
      "name": "owner",
      "outputs": [
        {
          "internalType": "address",
          "name": "",
          "type": "address"
        }
      ],
      "stateMutability": "view",
      "type": "function"
    },
    {
      "inputs": [],
      "name": "periodFinish",
      "outputs": [
        {
          "internalType": "uint256",
          "name": "",
          "type": "uint256"
        }
      ],
      "stateMutability": "view",
      "type": "function"
    },
    {
      "inputs": [],
      "name": "renounceOwnership",
      "outputs": [],
      "stateMutability": "nonpayable",
      "type": "function"
    },
    {
      "inputs": [],
      "name": "rewardDistribution",
      "outputs": [
        {
          "internalType": "address",
          "name": "",
          "type": "address"
        }
      ],
      "stateMutability": "view",
      "type": "function"
    },
    {
      "inputs": [],
      "name": "rewardPerToken",
      "outputs": [
        {
          "internalType": "uint256",
          "name": "",
          "type": "uint256"
        }
      ],
      "stateMutability": "view",
      "type": "function"
    },
    {
      "inputs": [],
      "name": "rewardPerTokenStored",
      "outputs": [
        {
          "internalType": "uint256",
          "name": "",
          "type": "uint256"
        }
      ],
      "stateMutability": "view",
      "type": "function"
    },
    {
      "inputs": [],
      "name": "rewardRate",
      "outputs": [
        {
          "internalType": "uint256",
          "name": "",
          "type": "uint256"
        }
      ],
      "stateMutability": "view",
      "type": "function"
    },
    {
      "inputs": [
        {
          "internalType": "address",
          "name": "",
          "type": "address"
        }
      ],
      "name": "rewards",
      "outputs": [
        {
          "internalType": "uint256",
          "name": "",
          "type": "uint256"
        }
      ],
      "stateMutability": "view",
      "type": "function"
    },
    {
      "inputs": [
        {
          "internalType": "address",
          "name": "_rewardDistribution",
          "type": "address"
        }
      ],
      "name": "setRewardDistribution",
      "outputs": [],
      "stateMutability": "nonpayable",
      "type": "function"
    },
    {
      "inputs": [
        {
          "internalType": "uint256",
          "name": "amount",
          "type": "uint256"
        }
      ],
      "name": "stake",
      "outputs": [],
      "stateMutability": "nonpayable",
      "type": "function"
    },
    {
      "inputs": [],
      "name": "stakeToken",
      "outputs": [
        {
          "internalType": "contract IERC20",
          "name": "",
          "type": "address"
        }
      ],
      "stateMutability": "view",
      "type": "function"
    },
    {
      "inputs": [],
      "name": "starttime",
      "outputs": [
        {
          "internalType": "uint256",
          "name": "",
          "type": "uint256"
        }
      ],
      "stateMutability": "view",
      "type": "function"
    },
    {
      "inputs": [],
      "name": "totalSupply",
      "outputs": [
        {
          "internalType": "uint256",
          "name": "",
          "type": "uint256"
        }
      ],
      "stateMutability": "view",
      "type": "function"
    },
    {
      "inputs": [
        {
          "internalType": "address",
          "name": "newOwner",
          "type": "address"
        }
      ],
      "name": "transferOwnership",
      "outputs": [],
      "stateMutability": "nonpayable",
      "type": "function"
    },
    {
      "inputs": [
        {
          "internalType": "address",
          "name": "",
          "type": "address"
        }
      ],
      "name": "userRewardPerTokenPaid",
      "outputs": [
        {
          "internalType": "uint256",
          "name": "",
          "type": "uint256"
        }
      ],
      "stateMutability": "view",
      "type": "function"
    },
    {
      "inputs": [
        {
          "internalType": "uint256",
          "name": "amount",
          "type": "uint256"
        }
      ],
      "name": "withdraw",
      "outputs": [],
      "stateMutability": "nonpayable",
      "type": "function"
    }
  ],
  "bytecode": {
    "object": "6080604052620697806006556000600855600060095534801561002157600080fd5b506040516116003803806116008339818101604052608081101561004457600080fd5b508051602082015160408301516060909301519192909160006100656100fb565b600380546001600160a01b0319166001600160a01b038316908117909155604051919250906000907f8be0079c531659141344cd1fd0a4f28419497f9722a3daafe3b4186f6b6457e0908290a350600580546001600160a01b039586166001600160a01b0319918216179091556000805494861694821694909417909355600791909155600c80549190931691161790556100ff565b3390565b6114f28061010e6000396000f3fe608060405234801561001057600080fd5b50600436106101a85760003560e01c806380faa57d116100f9578063da09c72c11610097578063e9fad8ee11610071578063e9fad8ee1461036a578063ebe2b12b14610372578063f2fde38b1461037a578063fc7e286d146103a0576101a8565b8063da09c72c14610352578063df136d651461035a578063e7e4472514610362576101a8565b80638da5cb5b116100d35780638da5cb5b1461031d578063a694fc3a14610325578063c8f33c9114610342578063cd3daf9d1461034a576101a8565b806380faa57d146102e75780638b876347146102ef5780638da5889714610315576101a8565b80632e1a7d4d1161016657806351ed6a301161014057806351ed6a30146102a957806370a08231146102b1578063715018a6146102d75780637b0a47ee146102df576101a8565b80632e1a7d4d146102675780633c6b16ab146102845780633d18b912146102a1576101a8565b80628cc262146101ad5780630700037d146101e55780630d68b7611461020b578063101114cf1461023357806318160ddd146102575780631be052891461025f575b600080fd5b6101d3600480360360208110156101c357600080fd5b50356001600160a01b03166103c6565b60408051918252519081900360200190f35b6101d3600480360360208110156101fb57600080fd5b50356001600160a01b0316610434565b6102316004803603602081101561022157600080fd5b50356001600160a01b0316610446565b005b61023b6104d2565b604080516001600160a01b039092168252519081900360200190f35b6101d36104e1565b6101d36104e8565b6102316004803603602081101561027d57600080fd5b50356104ee565b6102316004803603602081101561029a57600080fd5b503561065a565b61023161082a565b61023b610978565b6101d3600480360360208110156102c757600080fd5b50356001600160a01b0316610987565b6102316109a2565b6101d3610a56565b6101d3610a5c565b6101d36004803603602081101561030557600080fd5b50356001600160a01b0316610a6f565b6101d3610a81565b61023b610a87565b6102316004803603602081101561033b57600080fd5b5035610a96565b6101d3610c50565b6101d3610c56565b61023b610ca4565b6101d3610cb3565b61023b610cb9565b610231610cc8565b6101d3610ce3565b6102316004803603602081101561039057600080fd5b50356001600160a01b0316610ce9565b6101d3600480360360208110156103b657600080fd5b50356001600160a01b0316610df4565b6001600160a01b0381166000908152600e6020908152604080832054600d90925282205461042e919061042890670de0b6b3a764000090610422906104139061040d610c56565b90610e06565b61041c88610987565b90610e4f565b90610ea8565b90610eea565b92915050565b600e6020526000908152604090205481565b61044e610f44565b6003546001600160a01b039081169116146104b0576040805162461bcd60e51b815260206004820181905260248201527f4f776e61626c653a2063616c6c6572206973206e6f7420746865206f776e6572604482015290519081900360640190fd5b600480546001600160a01b0319166001600160a01b0392909216919091179055565b6004546001600160a01b031681565b6001545b90565b60065481565b336104f7610c56565b600b55610502610a5c565b600a556001600160a01b038116156105495761051d816103c6565b6001600160a01b0382166000908152600e6020908152604080832093909355600b54600d909152919020555b600754421015610598576040805162461bcd60e51b81526020600482015260156024820152741110d0d09050d41bdbdb0e881b9bdd081cdd185c9d605a1b604482015290519081900360640190fd5b600082116105ed576040805162461bcd60e51b815260206004820152601d60248201527f444343424143506f6f6c3a2043616e6e6f742077697468647261772030000000604482015290519081900360640190fd5b336000908152600f60205260409020546106079083610e06565b336000908152600f602052604090205561062082610f48565b60408051838152905133917f7084f5476618d8e60b11ef0d7d3f06914655adb8793e28ff7f018d4c76d505d5919081900360200190a25050565b6004546001600160a01b031661066e610f44565b6001600160a01b0316146106b35760405162461bcd60e51b81526004018080602001828103825260218152602001806114726021913960400191505060405180910390fd5b60006106bd610c56565b600b556106c8610a5c565b600a556001600160a01b0381161561070f576106e3816103c6565b6001600160a01b0382166000908152600e6020908152604080832093909355600b54600d909152919020555b6007544211156107c957600854421061073857600654610730908390610ea8565b60095561077b565b6008546000906107489042610e06565b9050600061076160095483610e4f90919063ffffffff16565b600654909150610775906104228684610eea565b60095550505b42600a81905560065461078e9190610eea565b6008556040805183815290517fde88a922e0d3b88b24e9623efeb464919c6bf9f66857a65e2bfcf2ce87a9433d9181900360200190a1610826565b6006546107d7908390610ea8565b600955600754600a8190556006546107ef9190610eea565b6008556040805183815290517fde88a922e0d3b88b24e9623efeb464919c6bf9f66857a65e2bfcf2ce87a9433d9181900360200190a15b5050565b33610833610c56565b600b5561083e610a5c565b600a556001600160a01b0381161561088557610859816103c6565b6001600160a01b0382166000908152600e6020908152604080832093909355600b54600d909152919020555b6007544210156108d4576040805162461bcd60e51b81526020600482015260156024820152741110d0d09050d41bdbdb0e881b9bdd081cdd185c9d605a1b604482015290519081900360640190fd5b60006108df336103c6565b9050801561082657336000818152600e602052604081205561091e9061090b606461042285605f610e4f565b6005546001600160a01b03169190610fa0565b600c5461093e906001600160a01b031661090b6064610422856005610e4f565b60408051828152905133917fe2403640ba68fed3a2f88b7557551d1993f84b99bb10ff833f0cf8db0c5e0486919081900360200190a25050565b6000546001600160a01b031681565b6001600160a01b031660009081526002602052604090205490565b6109aa610f44565b6003546001600160a01b03908116911614610a0c576040805162461bcd60e51b815260206004820181905260248201527f4f776e61626c653a2063616c6c6572206973206e6f7420746865206f776e6572604482015290519081900360640190fd5b6003546040516000916001600160a01b0316907f8be0079c531659141344cd1fd0a4f28419497f9722a3daafe3b4186f6b6457e0908390a3600380546001600160a01b0319169055565b60095481565b6000610a6a42600854610ff7565b905090565b600d6020526000908152604090205481565b60075481565b6003546001600160a01b031690565b33610a9f610c56565b600b55610aaa610a5c565b600a556001600160a01b03811615610af157610ac5816103c6565b6001600160a01b0382166000908152600e6020908152604080832093909355600b54600d909152919020555b600754421015610b40576040805162461bcd60e51b81526020600482015260156024820152741110d0d09050d41bdbdb0e881b9bdd081cdd185c9d605a1b604482015290519081900360640190fd5b60008211610b95576040805162461bcd60e51b815260206004820152601a60248201527f444343424143506f6f6c3a2043616e6e6f74207374616b652030000000000000604482015290519081900360640190fd5b336000908152600f6020526040812054610baf9084610eea565b905069054b40b1f852bda00000811115610bfa5760405162461bcd60e51b81526004018080602001828103825260308152602001806113fb6030913960400191505060405180910390fd5b336000908152600f60205260409020819055610c158361100d565b60408051848152905133917f9e71bc8eea02a63969f509818f2dafb9254532904319f9dbda79b67bd34a5f3d919081900360200190a2505050565b600a5481565b6000610c606104e1565b610c6d5750600b546104e5565b610a6a610c9b610c7b6104e1565b610422670de0b6b3a764000061041c60095461041c600a5461040d610a5c565b600b5490610eea565b600c546001600160a01b031681565b600b5481565b6005546001600160a01b031681565b610cd9610cd433610987565b6104ee565b610ce161082a565b565b60085481565b610cf1610f44565b6003546001600160a01b03908116911614610d53576040805162461bcd60e51b815260206004820181905260248201527f4f776e61626c653a2063616c6c6572206973206e6f7420746865206f776e6572604482015290519081900360640190fd5b6001600160a01b038116610d985760405162461bcd60e51b815260040180806020018281038252602681526020018061142b6026913960400191505060405180910390fd5b6003546040516001600160a01b038084169216907f8be0079c531659141344cd1fd0a4f28419497f9722a3daafe3b4186f6b6457e090600090a3600380546001600160a01b0319166001600160a01b0392909216919091179055565b600f6020526000908152604090205481565b6000610e4883836040518060400160405280601e81526020017f536166654d6174683a207375627472616374696f6e206f766572666c6f770000815250611063565b9392505050565b600082610e5e5750600061042e565b82820282848281610e6b57fe5b0414610e485760405162461bcd60e51b81526004018080602001828103825260218152602001806114516021913960400191505060405180910390fd5b6000610e4883836040518060400160405280601a81526020017f536166654d6174683a206469766973696f6e206279207a65726f0000000000008152506110fa565b600082820183811015610e48576040805162461bcd60e51b815260206004820152601b60248201527f536166654d6174683a206164646974696f6e206f766572666c6f770000000000604482015290519081900360640190fd5b3390565b600154610f559082610e06565b60015533600090815260026020526040902054610f729082610e06565b336000818152600260205260408120929092559054610f9d916001600160a01b039091169083610fa0565b50565b604080516001600160a01b038416602482015260448082018490528251808303909101815260649091019091526020810180516001600160e01b031663a9059cbb60e01b179052610ff290849061115f565b505050565b60008183106110065781610e48565b5090919050565b60015461101a9082610eea565b600155336000908152600260205260409020546110379082610eea565b336000818152600260205260408120929092559054610f9d916001600160a01b03909116903084611210565b600081848411156110f25760405162461bcd60e51b81526004018080602001828103825283818151815260200191508051906020019080838360005b838110156110b757818101518382015260200161109f565b50505050905090810190601f1680156110e45780820380516001836020036101000a031916815260200191505b509250505060405180910390fd5b505050900390565b600081836111495760405162461bcd60e51b81526020600482018181528351602484015283519092839260449091019190850190808383600083156110b757818101518382015260200161109f565b50600083858161115557fe5b0495945050505050565b60606111b4826040518060400160405280602081526020017f5361666545524332303a206c6f772d6c6576656c2063616c6c206661696c6564815250856001600160a01b03166112709092919063ffffffff16565b805190915015610ff2578080602001905160208110156111d357600080fd5b5051610ff25760405162461bcd60e51b815260040180806020018281038252602a815260200180611493602a913960400191505060405180910390fd5b604080516001600160a01b0380861660248301528416604482015260648082018490528251808303909101815260849091019091526020810180516001600160e01b03166323b872dd60e01b17905261126a90859061115f565b50505050565b606061127f8484600085611287565b949350505050565b6060611292856113f4565b6112e3576040805162461bcd60e51b815260206004820152601d60248201527f416464726573733a2063616c6c20746f206e6f6e2d636f6e7472616374000000604482015290519081900360640190fd5b60006060866001600160a01b031685876040518082805190602001908083835b602083106113225780518252601f199092019160209182019101611303565b6001836020036101000a03801982511681845116808217855250505050505090500191505060006040518083038185875af1925050503d8060008114611384576040519150601f19603f3d011682016040523d82523d6000602084013e611389565b606091505b5091509150811561139d57915061127f9050565b8051156113ad5780518082602001fd5b60405162461bcd60e51b81526020600482018181528651602484015286518793919283926044019190850190808383600083156110b757818101518382015260200161109f565b3b15159056fe444343424143506f6f6c3a206465706f73697420616d6f756e742065786365656473206d6178696d756d2032353030304f776e61626c653a206e6577206f776e657220697320746865207a65726f2061646472657373536166654d6174683a206d756c7469706c69636174696f6e206f766572666c6f7743616c6c6572206973206e6f742072657761726420646973747269627574696f6e5361666545524332303a204552433230206f7065726174696f6e20646964206e6f742073756363656564a264697066735822122050992e0140481585f8985a331d230d3f9d1ec2151bf7e7b95c714c10bf42c8fc64736f6c634300060c0033"
  }
}