{
  "opcodeHash": "0xe726aebf79cd2fe06947a3159bdb20543847ff3a4cb4a6edfaeedc22fb0970ec",
  "metalessHash": "0xab19720cd15c9ab5a9ab58daa200d3230ea8856dc068394ba80732764498bbf6",
  "runtimeHash": "0xaeff60fae9fa1648ab711321e0d6182b2fc314bb1c3a081d83136bc622666aad",
  "encodedMetadata": [
    {
      "ipfs": "/ipfs/Qmb9vDzBLehFD4ec9A9YN1ApWSBJVBdCgdpDGYTdCaXHYy",
      "solc": "0.6.12"
    }
  ],
  "abi": [
    {
      "inputs": [],
      "stateMutability": "nonpayable",
      "type": "constructor"
    },
    {
      "anonymous": false,
      "inputs": [
        {
          "indexed": true,
          "internalType": "address",
          "name": "owner",
          "type": "address"
        },
        {
          "indexed": true,
          "internalType": "address",
          "name": "spender",
          "type": "address"
        },
        {
          "indexed": false,
          "internalType": "uint256",
          "name": "value",
          "type": "uint256"
        }
      ],
      "name": "Approval",
      "type": "event"
    },
    {
      "anonymous": false,
      "inputs": [
        {
          "indexed": true,
          "internalType": "address",
          "name": "previousOwner",
          "type": "address"
        },
        {
          "indexed": true,
          "internalType": "address",
          "name": "newOwner",
          "type": "address"
        }
      ],
      "name": "OwnershipTransferred",
      "type": "event"
    },
    {
      "anonymous": false,
      "inputs": [
        {
          "indexed": true,
          "internalType": "address",
          "name": "from",
          "type": "address"
        },
        {
          "indexed": true,
          "internalType": "address",
          "name": "to",
          "type": "address"
        },
        {
          "indexed": false,
          "internalType": "uint256",
          "name": "value",
          "type": "uint256"
        }
      ],
      "name": "Transfer",
      "type": "event"
    },
    {
      "inputs": [
        {
          "internalType": "address",
          "name": "owner",
          "type": "address"
        },
        {
          "internalType": "address",
          "name": "spender",
          "type": "address"
        }
      ],
      "name": "allowance",
      "outputs": [
        {
          "internalType": "uint256",
          "name": "",
          "type": "uint256"
        }
      ],
      "stateMutability": "view",
      "type": "function"
    },
    {
      "inputs": [
        {
          "internalType": "address",
          "name": "spender",
          "type": "address"
        },
        {
          "internalType": "uint256",
          "name": "amount",
          "type": "uint256"
        }
      ],
      "name": "approve",
      "outputs": [
        {
          "internalType": "bool",
          "name": "",
          "type": "bool"
        }
      ],
      "stateMutability": "nonpayable",
      "type": "function"
    },
    {
      "inputs": [
        {
          "internalType": "address",
          "name": "account",
          "type": "address"
        }
      ],
      "name": "balanceOf",
      "outputs": [
        {
          "internalType": "uint256",
          "name": "",
          "type": "uint256"
        }
      ],
      "stateMutability": "view",
      "type": "function"
    },
    {
      "inputs": [],
      "name": "decimals",
      "outputs": [
        {
          "internalType": "uint8",
          "name": "",
          "type": "uint8"
        }
      ],
      "stateMutability": "view",
      "type": "function"
    },
    {
      "inputs": [
        {
          "internalType": "address",
          "name": "spender",
          "type": "address"
        },
        {
          "internalType": "uint256",
          "name": "subtractedValue",
          "type": "uint256"
        }
      ],
      "name": "decreaseAllowance",
      "outputs": [
        {
          "internalType": "bool",
          "name": "",
          "type": "bool"
        }
      ],
      "stateMutability": "nonpayable",
      "type": "function"
    },
    {
      "inputs": [
        {
          "internalType": "address",
          "name": "account",
          "type": "address"
        }
      ],
      "name": "excludeAccount",
      "outputs": [],
      "stateMutability": "nonpayable",
      "type": "function"
    },
    {
      "inputs": [
        {
          "internalType": "address",
          "name": "account",
          "type": "address"
        }
      ],
      "name": "includeAccount",
      "outputs": [],
      "stateMutability": "nonpayable",
      "type": "function"
    },
    {
      "inputs": [
        {
          "internalType": "address",
          "name": "spender",
          "type": "address"
        },
        {
          "internalType": "uint256",
          "name": "addedValue",
          "type": "uint256"
        }
      ],
      "name": "increaseAllowance",
      "outputs": [
        {
          "internalType": "bool",
          "name": "",
          "type": "bool"
        }
      ],
      "stateMutability": "nonpayable",
      "type": "function"
    },
    {
      "inputs": [
        {
          "internalType": "address",
          "name": "account",
          "type": "address"
        }
      ],
      "name": "isExcluded",
      "outputs": [
        {
          "internalType": "bool",
          "name": "",
          "type": "bool"
        }
      ],
      "stateMutability": "view",
      "type": "function"
    },
    {
      "inputs": [],
      "name": "name",
      "outputs": [
        {
          "internalType": "string",
          "name": "",
          "type": "string"
        }
      ],
      "stateMutability": "view",
      "type": "function"
    },
    {
      "inputs": [],
      "name": "owner",
      "outputs": [
        {
          "internalType": "address",
          "name": "",
          "type": "address"
        }
      ],
      "stateMutability": "view",
      "type": "function"
    },
    {
      "inputs": [
        {
          "internalType": "uint256",
          "name": "tAmount",
          "type": "uint256"
        }
      ],
      "name": "reflect",
      "outputs": [],
      "stateMutability": "nonpayable",
      "type": "function"
    },
    {
      "inputs": [
        {
          "internalType": "uint256",
          "name": "tAmount",
          "type": "uint256"
        },
        {
          "internalType": "bool",
          "name": "deductTransferFee",
          "type": "bool"
        }
      ],
      "name": "reflectionFromToken",
      "outputs": [
        {
          "internalType": "uint256",
          "name": "",
          "type": "uint256"
        }
      ],
      "stateMutability": "view",
      "type": "function"
    },
    {
      "inputs": [],
      "name": "renounceOwnership",
      "outputs": [],
      "stateMutability": "nonpayable",
      "type": "function"
    },
    {
      "inputs": [],
      "name": "symbol",
      "outputs": [
        {
          "internalType": "string",
          "name": "",
          "type": "string"
        }
      ],
      "stateMutability": "view",
      "type": "function"
    },
    {
      "inputs": [
        {
          "internalType": "uint256",
          "name": "rAmount",
          "type": "uint256"
        }
      ],
      "name": "tokenFromReflection",
      "outputs": [
        {
          "internalType": "uint256",
          "name": "",
          "type": "uint256"
        }
      ],
      "stateMutability": "view",
      "type": "function"
    },
    {
      "inputs": [],
      "name": "totalFees",
      "outputs": [
        {
          "internalType": "uint256",
          "name": "",
          "type": "uint256"
        }
      ],
      "stateMutability": "view",
      "type": "function"
    },
    {
      "inputs": [],
      "name": "totalSupply",
      "outputs": [
        {
          "internalType": "uint256",
          "name": "",
          "type": "uint256"
        }
      ],
      "stateMutability": "view",
      "type": "function"
    },
    {
      "inputs": [
        {
          "internalType": "address",
          "name": "recipient",
          "type": "address"
        },
        {
          "internalType": "uint256",
          "name": "amount",
          "type": "uint256"
        }
      ],
      "name": "transfer",
      "outputs": [
        {
          "internalType": "bool",
          "name": "",
          "type": "bool"
        }
      ],
      "stateMutability": "nonpayable",
      "type": "function"
    },
    {
      "inputs": [
        {
          "internalType": "address",
          "name": "sender",
          "type": "address"
        },
        {
          "internalType": "address",
          "name": "recipient",
          "type": "address"
        },
        {
          "internalType": "uint256",
          "name": "amount",
          "type": "uint256"
        }
      ],
      "name": "transferFrom",
      "outputs": [
        {
          "internalType": "bool",
          "name": "",
          "type": "bool"
        }
      ],
      "stateMutability": "nonpayable",
      "type": "function"
    },
    {
      "inputs": [
        {
          "internalType": "address",
          "name": "newOwner",
          "type": "address"
        }
      ],
      "name": "transferOwnership",
      "outputs": [],
      "stateMutability": "nonpayable",
      "type": "function"
    }
  ],
  "bytecode": {
    "object": "60806040526c0c9f2c9cd04674edea40000000600019816200001d57fe5b066000190360065561dead600760006101000a81548173ffffffffffffffffffffffffffffffffffffffff021916908373ffffffffffffffffffffffffffffffffffffffff16021790555073f4d0429afbab16101e67c77146065e3fb1972d78600860006101000a81548173ffffffffffffffffffffffffffffffffffffffff021916908373ffffffffffffffffffffffffffffffffffffffff160217905550738581973532b49194c3496da1a34e3ca0a9221041600960006101000a81548173ffffffffffffffffffffffffffffffffffffffff021916908373ffffffffffffffffffffffffffffffffffffffff1602179055506040518060400160405280600b81526020017f426173656456696b696e67000000000000000000000000000000000000000000815250600b90805190602001906200015f929190620006d2565b506040518060400160405280600381526020017f4253560000000000000000000000000000000000000000000000000000000000815250600c9080519060200190620001ad929190620006d2565b506012600d60006101000a81548160ff021916908360ff160217905550348015620001d757600080fd5b506000620001ea620006ca60201b60201c565b9050806000806101000a81548173ffffffffffffffffffffffffffffffffffffffff021916908373ffffffffffffffffffffffffffffffffffffffff1602179055508073ffffffffffffffffffffffffffffffffffffffff16600073ffffffffffffffffffffffffffffffffffffffff167f8be0079c531659141344cd1fd0a4f28419497f9722a3daafe3b4186f6b6457e060405160405180910390a3506002600654816200029557fe5b0460016000600760009054906101000a900473ffffffffffffffffffffffffffffffffffffffff1673ffffffffffffffffffffffffffffffffffffffff1673ffffffffffffffffffffffffffffffffffffffff1681526020019081526020016000208190555060196103e8600654816200030b57fe5b040260016000600860009054906101000a900473ffffffffffffffffffffffffffffffffffffffff1673ffffffffffffffffffffffffffffffffffffffff1673ffffffffffffffffffffffffffffffffffffffff1681526020019081526020016000208190555060196103e8600654816200038257fe5b040260016000600960009054906101000a900473ffffffffffffffffffffffffffffffffffffffff1673ffffffffffffffffffffffffffffffffffffffff1673ffffffffffffffffffffffffffffffffffffffff16815260200190815260200160002081905550602d606460065481620003f857fe5b0402600160006200040e620006ca60201b60201c565b73ffffffffffffffffffffffffffffffffffffffff1673ffffffffffffffffffffffffffffffffffffffff16815260200190815260200160002081905550600760009054906101000a900473ffffffffffffffffffffffffffffffffffffffff1673ffffffffffffffffffffffffffffffffffffffff16600073ffffffffffffffffffffffffffffffffffffffff167fddf252ad1be2c89b69c2b068fc378daa952ba7f163c4a11628f55a4df523b3ef60026c0c9f2c9cd04674edea4000000081620004d657fe5b046040518082815260200191505060405180910390a3600860009054906101000a900473ffffffffffffffffffffffffffffffffffffffff1673ffffffffffffffffffffffffffffffffffffffff16600073ffffffffffffffffffffffffffffffffffffffff167fddf252ad1be2c89b69c2b068fc378daa952ba7f163c4a11628f55a4df523b3ef60196103e86c0c9f2c9cd04674edea40000000816200057957fe5b04026040518082815260200191505060405180910390a3600960009054906101000a900473ffffffffffffffffffffffffffffffffffffffff1673ffffffffffffffffffffffffffffffffffffffff16600073ffffffffffffffffffffffffffffffffffffffff167fddf252ad1be2c89b69c2b068fc378daa952ba7f163c4a11628f55a4df523b3ef60196103e86c0c9f2c9cd04674edea40000000816200061d57fe5b04026040518082815260200191505060405180910390a362000644620006ca60201b60201c565b73ffffffffffffffffffffffffffffffffffffffff16600073ffffffffffffffffffffffffffffffffffffffff167fddf252ad1be2c89b69c2b068fc378daa952ba7f163c4a11628f55a4df523b3ef602d60646c0c9f2c9cd04674edea4000000081620006ad57fe5b04026040518082815260200191505060405180910390a362000778565b600033905090565b828054600181600116156101000203166002900490600052602060002090601f016020900481019282601f106200071557805160ff191683800117855562000746565b8280016001018555821562000746579182015b828111156200074557825182559160200191906001019062000728565b5b50905062000755919062000759565b5090565b5b80821115620007745760008160009055506001016200075a565b5090565b61337b80620007886000396000f3fe608060405234801561001057600080fd5b50600436106101375760003560e01c806370a08231116100b8578063a9059cbb1161007c578063a9059cbb146105a3578063cba0e99614610607578063dd62ed3e14610661578063f2cc0c18146106d9578063f2fde38b1461071d578063f84354f11461076157610137565b806370a0823114610426578063715018a61461047e5780638da5cb5b1461048857806395d89b41146104bc578063a457c2d71461053f57610137565b806323b872dd116100ff57806323b872dd1461028d5780632d83811914610311578063313ce5671461035357806339509351146103745780634549b039146103d857610137565b8063053ab1821461013c57806306fdde031461016a578063095ea7b3146101ed57806313114a9d1461025157806318160ddd1461026f575b600080fd5b6101686004803603602081101561015257600080fd5b81019080803590602001909291905050506107a5565b005b610172610935565b6040518080602001828103825283818151815260200191508051906020019080838360005b838110156101b2578082015181840152602081019050610197565b50505050905090810190601f1680156101df5780820380516001836020036101000a031916815260200191505b509250505060405180910390f35b6102396004803603604081101561020357600080fd5b81019080803573ffffffffffffffffffffffffffffffffffffffff169060200190929190803590602001909291905050506109d7565b60405180821515815260200191505060405180910390f35b6102596109f5565b6040518082815260200191505060405180910390f35b6102776109ff565b6040518082815260200191505060405180910390f35b6102f9600480360360608110156102a357600080fd5b81019080803573ffffffffffffffffffffffffffffffffffffffff169060200190929190803573ffffffffffffffffffffffffffffffffffffffff16906020019092919080359060200190929190505050610a14565b60405180821515815260200191505060405180910390f35b61033d6004803603602081101561032757600080fd5b8101908080359060200190929190505050610aed565b6040518082815260200191505060405180910390f35b61035b610b71565b604051808260ff16815260200191505060405180910390f35b6103c06004803603604081101561038a57600080fd5b81019080803573ffffffffffffffffffffffffffffffffffffffff16906020019092919080359060200190929190505050610b88565b60405180821515815260200191505060405180910390f35b610410600480360360408110156103ee57600080fd5b8101908080359060200190929190803515159060200190929190505050610c3b565b6040518082815260200191505060405180910390f35b6104686004803603602081101561043c57600080fd5b81019080803573ffffffffffffffffffffffffffffffffffffffff169060200190929190505050610cfb565b6040518082815260200191505060405180910390f35b610486610de6565b005b610490610f6c565b604051808273ffffffffffffffffffffffffffffffffffffffff16815260200191505060405180910390f35b6104c4610f95565b6040518080602001828103825283818151815260200191508051906020019080838360005b838110156105045780820151818401526020810190506104e9565b50505050905090810190601f1680156105315780820380516001836020036101000a031916815260200191505b509250505060405180910390f35b61058b6004803603604081101561055557600080fd5b81019080803573ffffffffffffffffffffffffffffffffffffffff16906020019092919080359060200190929190505050611037565b60405180821515815260200191505060405180910390f35b6105ef600480360360408110156105b957600080fd5b81019080803573ffffffffffffffffffffffffffffffffffffffff16906020019092919080359060200190929190505050611104565b60405180821515815260200191505060405180910390f35b6106496004803603602081101561061d57600080fd5b81019080803573ffffffffffffffffffffffffffffffffffffffff169060200190929190505050611122565b60405180821515815260200191505060405180910390f35b6106c36004803603604081101561067757600080fd5b81019080803573ffffffffffffffffffffffffffffffffffffffff169060200190929190803573ffffffffffffffffffffffffffffffffffffffff169060200190929190505050611178565b6040518082815260200191505060405180910390f35b61071b600480360360208110156106ef57600080fd5b81019080803573ffffffffffffffffffffffffffffffffffffffff1690602001909291905050506111ff565b005b61075f6004803603602081101561073357600080fd5b81019080803573ffffffffffffffffffffffffffffffffffffffff169060200190929190505050611519565b005b6107a36004803603602081101561077757600080fd5b81019080803573ffffffffffffffffffffffffffffffffffffffff169060200190929190505050611724565b005b60006107af611aae565b9050600460008273ffffffffffffffffffffffffffffffffffffffff1673ffffffffffffffffffffffffffffffffffffffff16815260200190815260200160002060009054906101000a900460ff1615610854576040517f08c379a000000000000000000000000000000000000000000000000000000000815260040180806020018281038252602c8152602001806132f5602c913960400191505060405180910390fd5b600061085f83611ab6565b5050505090506108b781600160008573ffffffffffffffffffffffffffffffffffffffff1673ffffffffffffffffffffffffffffffffffffffff16815260200190815260200160002054611b0e90919063ffffffff16565b600160008473ffffffffffffffffffffffffffffffffffffffff1673ffffffffffffffffffffffffffffffffffffffff1681526020019081526020016000208190555061090f81600654611b0e90919063ffffffff16565b60068190555061092a83600a54611b5890919063ffffffff16565b600a81905550505050565b6060600b8054600181600116156101000203166002900480601f0160208091040260200160405190810160405280929190818152602001828054600181600116156101000203166002900480156109cd5780601f106109a2576101008083540402835291602001916109cd565b820191906000526020600020905b8154815290600101906020018083116109b057829003601f168201915b5050505050905090565b60006109eb6109e4611aae565b8484611be0565b6001905092915050565b6000600a54905090565b60006c0c9f2c9cd04674edea40000000905090565b6000610a21848484611dd7565b610ae284610a2d611aae565b610add8560405180606001604052806028815260200161325b60289139600360008b73ffffffffffffffffffffffffffffffffffffffff1673ffffffffffffffffffffffffffffffffffffffff1681526020019081526020016000206000610a93611aae565b73ffffffffffffffffffffffffffffffffffffffff1673ffffffffffffffffffffffffffffffffffffffff168152602001908152602001600020546122309092919063ffffffff16565b611be0565b600190509392505050565b6000600654821115610b4a576040517f08c379a000000000000000000000000000000000000000000000000000000000815260040180806020018281038252602a8152602001806131c8602a913960400191505060405180910390fd5b6000610b546122f0565b9050610b69818461231b90919063ffffffff16565b915050919050565b6000600d60009054906101000a900460ff16905090565b6000610c31610b95611aae565b84610c2c8560036000610ba6611aae565b73ffffffffffffffffffffffffffffffffffffffff1673ffffffffffffffffffffffffffffffffffffffff16815260200190815260200160002060008973ffffffffffffffffffffffffffffffffffffffff1673ffffffffffffffffffffffffffffffffffffffff16815260200190815260200160002054611b5890919063ffffffff16565b611be0565b6001905092915050565b60006c0c9f2c9cd04674edea40000000831115610cc0576040517f08c379a000000000000000000000000000000000000000000000000000000000815260040180806020018281038252601f8152602001807f416d6f756e74206d757374206265206c657373207468616e20737570706c790081525060200191505060405180910390fd5b81610cdf576000610cd084611ab6565b50505050905080915050610cf5565b6000610cea84611ab6565b505050915050809150505b92915050565b6000600460008373ffffffffffffffffffffffffffffffffffffffff1673ffffffffffffffffffffffffffffffffffffffff16815260200190815260200160002060009054906101000a900460ff1615610d9657600260008373ffffffffffffffffffffffffffffffffffffffff1673ffffffffffffffffffffffffffffffffffffffff168152602001908152602001600020549050610de1565b610dde600160008473ffffffffffffffffffffffffffffffffffffffff1673ffffffffffffffffffffffffffffffffffffffff16815260200190815260200160002054610aed565b90505b919050565b610dee611aae565b73ffffffffffffffffffffffffffffffffffffffff1660008054906101000a900473ffffffffffffffffffffffffffffffffffffffff1673ffffffffffffffffffffffffffffffffffffffff1614610eae576040517f08c379a00000000000000000000000000000000000000000000000000000000081526004018080602001828103825260208152602001807f4f776e61626c653a2063616c6c6572206973206e6f7420746865206f776e657281525060200191505060405180910390fd5b600073ffffffffffffffffffffffffffffffffffffffff1660008054906101000a900473ffffffffffffffffffffffffffffffffffffffff1673ffffffffffffffffffffffffffffffffffffffff167f8be0079c531659141344cd1fd0a4f28419497f9722a3daafe3b4186f6b6457e060405160405180910390a360008060006101000a81548173ffffffffffffffffffffffffffffffffffffffff021916908373ffffffffffffffffffffffffffffffffffffffff160217905550565b60008060009054906101000a900473ffffffffffffffffffffffffffffffffffffffff16905090565b6060600c8054600181600116156101000203166002900480601f01602080910402602001604051908101604052809291908181526020018280546001816001161561010002031660029004801561102d5780601f106110025761010080835404028352916020019161102d565b820191906000526020600020905b81548152906001019060200180831161101057829003601f168201915b5050505050905090565b60006110fa611044611aae565b846110f585604051806060016040528060258152602001613321602591396003600061106e611aae565b73ffffffffffffffffffffffffffffffffffffffff1673ffffffffffffffffffffffffffffffffffffffff16815260200190815260200160002060008a73ffffffffffffffffffffffffffffffffffffffff1673ffffffffffffffffffffffffffffffffffffffff168152602001908152602001600020546122309092919063ffffffff16565b611be0565b6001905092915050565b6000611118611111611aae565b8484611dd7565b6001905092915050565b6000600460008373ffffffffffffffffffffffffffffffffffffffff1673ffffffffffffffffffffffffffffffffffffffff16815260200190815260200160002060009054906101000a900460ff169050919050565b6000600360008473ffffffffffffffffffffffffffffffffffffffff1673ffffffffffffffffffffffffffffffffffffffff16815260200190815260200160002060008373ffffffffffffffffffffffffffffffffffffffff1673ffffffffffffffffffffffffffffffffffffffff16815260200190815260200160002054905092915050565b611207611aae565b73ffffffffffffffffffffffffffffffffffffffff1660008054906101000a900473ffffffffffffffffffffffffffffffffffffffff1673ffffffffffffffffffffffffffffffffffffffff16146112c7576040517f08c379a00000000000000000000000000000000000000000000000000000000081526004018080602001828103825260208152602001807f4f776e61626c653a2063616c6c6572206973206e6f7420746865206f776e657281525060200191505060405180910390fd5b600460008273ffffffffffffffffffffffffffffffffffffffff1673ffffffffffffffffffffffffffffffffffffffff16815260200190815260200160002060009054906101000a900460ff1615611387576040517f08c379a000000000000000000000000000000000000000000000000000000000815260040180806020018281038252601b8152602001807f4163636f756e7420697320616c7265616479206578636c75646564000000000081525060200191505060405180910390fd5b6000600160008373ffffffffffffffffffffffffffffffffffffffff1673ffffffffffffffffffffffffffffffffffffffff16815260200190815260200160002054111561145b57611417600160008373ffffffffffffffffffffffffffffffffffffffff1673ffffffffffffffffffffffffffffffffffffffff16815260200190815260200160002054610aed565b600260008373ffffffffffffffffffffffffffffffffffffffff1673ffffffffffffffffffffffffffffffffffffffff168152602001908152602001600020819055505b6001600460008373ffffffffffffffffffffffffffffffffffffffff1673ffffffffffffffffffffffffffffffffffffffff16815260200190815260200160002060006101000a81548160ff0219169083151502179055506005819080600181540180825580915050600190039060005260206000200160009091909190916101000a81548173ffffffffffffffffffffffffffffffffffffffff021916908373ffffffffffffffffffffffffffffffffffffffff16021790555050565b611521611aae565b73ffffffffffffffffffffffffffffffffffffffff1660008054906101000a900473ffffffffffffffffffffffffffffffffffffffff1673ffffffffffffffffffffffffffffffffffffffff16146115e1576040517f08c379a00000000000000000000000000000000000000000000000000000000081526004018080602001828103825260208152602001807f4f776e61626c653a2063616c6c6572206973206e6f7420746865206f776e657281525060200191505060405180910390fd5b600073ffffffffffffffffffffffffffffffffffffffff168173ffffffffffffffffffffffffffffffffffffffff161415611667576040517f08c379a00000000000000000000000000000000000000000000000000000000081526004018080602001828103825260268152602001806131f26026913960400191505060405180910390fd5b8073ffffffffffffffffffffffffffffffffffffffff1660008054906101000a900473ffffffffffffffffffffffffffffffffffffffff1673ffffffffffffffffffffffffffffffffffffffff167f8be0079c531659141344cd1fd0a4f28419497f9722a3daafe3b4186f6b6457e060405160405180910390a3806000806101000a81548173ffffffffffffffffffffffffffffffffffffffff021916908373ffffffffffffffffffffffffffffffffffffffff16021790555050565b61172c611aae565b73ffffffffffffffffffffffffffffffffffffffff1660008054906101000a900473ffffffffffffffffffffffffffffffffffffffff1673ffffffffffffffffffffffffffffffffffffffff16146117ec576040517f08c379a00000000000000000000000000000000000000000000000000000000081526004018080602001828103825260208152602001807f4f776e61626c653a2063616c6c6572206973206e6f7420746865206f776e657281525060200191505060405180910390fd5b600460008273ffffffffffffffffffffffffffffffffffffffff1673ffffffffffffffffffffffffffffffffffffffff16815260200190815260200160002060009054906101000a900460ff166118ab576040517f08c379a000000000000000000000000000000000000000000000000000000000815260040180806020018281038252601b8152602001807f4163636f756e7420697320616c7265616479206578636c75646564000000000081525060200191505060405180910390fd5b60005b600580549050811015611aaa578173ffffffffffffffffffffffffffffffffffffffff16600582815481106118df57fe5b9060005260206000200160009054906101000a900473ffffffffffffffffffffffffffffffffffffffff1673ffffffffffffffffffffffffffffffffffffffff161415611a9d5760056001600580549050038154811061193b57fe5b9060005260206000200160009054906101000a900473ffffffffffffffffffffffffffffffffffffffff166005828154811061197357fe5b9060005260206000200160006101000a81548173ffffffffffffffffffffffffffffffffffffffff021916908373ffffffffffffffffffffffffffffffffffffffff1602179055506000600260008473ffffffffffffffffffffffffffffffffffffffff1673ffffffffffffffffffffffffffffffffffffffff168152602001908152602001600020819055506000600460008473ffffffffffffffffffffffffffffffffffffffff1673ffffffffffffffffffffffffffffffffffffffff16815260200190815260200160002060006101000a81548160ff0219169083151502179055506005805480611a6357fe5b6001900381819060005260206000200160006101000a81549073ffffffffffffffffffffffffffffffffffffffff02191690559055611aaa565b80806001019150506118ae565b5050565b600033905090565b6000806000806000806000611aca88612365565b915091506000611ad86122f0565b90506000806000611aea8c86866123b7565b92509250925082828288889a509a509a509a509a5050505050505091939590929450565b6000611b5083836040518060400160405280601e81526020017f536166654d6174683a207375627472616374696f6e206f766572666c6f770000815250612230565b905092915050565b600080828401905083811015611bd6576040517f08c379a000000000000000000000000000000000000000000000000000000000815260040180806020018281038252601b8152602001807f536166654d6174683a206164646974696f6e206f766572666c6f77000000000081525060200191505060405180910390fd5b8091505092915050565b600073ffffffffffffffffffffffffffffffffffffffff168373ffffffffffffffffffffffffffffffffffffffff161415611c66576040517f08c379a00000000000000000000000000000000000000000000000000000000081526004018080602001828103825260248152602001806132d16024913960400191505060405180910390fd5b600073ffffffffffffffffffffffffffffffffffffffff168273ffffffffffffffffffffffffffffffffffffffff161415611cec576040517f08c379a00000000000000000000000000000000000000000000000000000000081526004018080602001828103825260228152602001806132186022913960400191505060405180910390fd5b80600360008573ffffffffffffffffffffffffffffffffffffffff1673ffffffffffffffffffffffffffffffffffffffff16815260200190815260200160002060008473ffffffffffffffffffffffffffffffffffffffff1673ffffffffffffffffffffffffffffffffffffffff168152602001908152602001600020819055508173ffffffffffffffffffffffffffffffffffffffff168373ffffffffffffffffffffffffffffffffffffffff167f8c5be1e5ebec7d5bd14f71427d1e84f3dd0314c0f7b2291e5b200ac8c7c3b925836040518082815260200191505060405180910390a3505050565b600073ffffffffffffffffffffffffffffffffffffffff168373ffffffffffffffffffffffffffffffffffffffff161415611e5d576040517f08c379a00000000000000000000000000000000000000000000000000000000081526004018080602001828103825260258152602001806132ac6025913960400191505060405180910390fd5b600073ffffffffffffffffffffffffffffffffffffffff168273ffffffffffffffffffffffffffffffffffffffff161415611ee3576040517f08c379a00000000000000000000000000000000000000000000000000000000081526004018080602001828103825260238152602001806131a56023913960400191505060405180910390fd5b60008111611f3c576040517f08c379a00000000000000000000000000000000000000000000000000000000081526004018080602001828103825260298152602001806132836029913960400191505060405180910390fd5b600460008473ffffffffffffffffffffffffffffffffffffffff1673ffffffffffffffffffffffffffffffffffffffff16815260200190815260200160002060009054906101000a900460ff168015611fdf5750600460008373ffffffffffffffffffffffffffffffffffffffff1673ffffffffffffffffffffffffffffffffffffffff16815260200190815260200160002060009054906101000a900460ff16155b15611ff457611fef838383612415565b61222b565b600460008473ffffffffffffffffffffffffffffffffffffffff1673ffffffffffffffffffffffffffffffffffffffff16815260200190815260200160002060009054906101000a900460ff161580156120975750600460008373ffffffffffffffffffffffffffffffffffffffff1673ffffffffffffffffffffffffffffffffffffffff16815260200190815260200160002060009054906101000a900460ff165b156120ac576120a7838383612668565b61222a565b600460008473ffffffffffffffffffffffffffffffffffffffff1673ffffffffffffffffffffffffffffffffffffffff16815260200190815260200160002060009054906101000a900460ff161580156121505750600460008373ffffffffffffffffffffffffffffffffffffffff1673ffffffffffffffffffffffffffffffffffffffff16815260200190815260200160002060009054906101000a900460ff16155b15612165576121608383836128bb565b612229565b600460008473ffffffffffffffffffffffffffffffffffffffff1673ffffffffffffffffffffffffffffffffffffffff16815260200190815260200160002060009054906101000a900460ff1680156122075750600460008373ffffffffffffffffffffffffffffffffffffffff1673ffffffffffffffffffffffffffffffffffffffff16815260200190815260200160002060009054906101000a900460ff165b1561221c57612217838383612a79565b612228565b6122278383836128bb565b5b5b5b5b505050565b60008383111582906122dd576040517f08c379a00000000000000000000000000000000000000000000000000000000081526004018080602001828103825283818151815260200191508051906020019080838360005b838110156122a2578082015181840152602081019050612287565b50505050905090810190601f1680156122cf5780820380516001836020036101000a031916815260200191505b509250505060405180910390fd5b5060008385039050809150509392505050565b60008060006122fd612d61565b91509150612314818361231b90919063ffffffff16565b9250505090565b600061235d83836040518060400160405280601a81526020017f536166654d6174683a206469766973696f6e206279207a65726f00000000000081525061301e565b905092915050565b6000806000612391600261238360648761231b90919063ffffffff16565b6130e490919063ffffffff16565b905060006123a88286611b0e90919063ffffffff16565b90508082935093505050915091565b6000806000806123d085886130e490919063ffffffff16565b905060006123e786886130e490919063ffffffff16565b905060006123fe8284611b0e90919063ffffffff16565b905082818395509550955050505093509350939050565b600080600080600061242686611ab6565b9450945094509450945061248286600260008b73ffffffffffffffffffffffffffffffffffffffff1673ffffffffffffffffffffffffffffffffffffffff16815260200190815260200160002054611b0e90919063ffffffff16565b600260008a73ffffffffffffffffffffffffffffffffffffffff1673ffffffffffffffffffffffffffffffffffffffff1681526020019081526020016000208190555061251785600160008b73ffffffffffffffffffffffffffffffffffffffff1673ffffffffffffffffffffffffffffffffffffffff16815260200190815260200160002054611b0e90919063ffffffff16565b600160008a73ffffffffffffffffffffffffffffffffffffffff1673ffffffffffffffffffffffffffffffffffffffff168152602001908152602001600020819055506125ac84600160008a73ffffffffffffffffffffffffffffffffffffffff1673ffffffffffffffffffffffffffffffffffffffff16815260200190815260200160002054611b5890919063ffffffff16565b600160008973ffffffffffffffffffffffffffffffffffffffff1673ffffffffffffffffffffffffffffffffffffffff168152602001908152602001600020819055506125f9838261316a565b8673ffffffffffffffffffffffffffffffffffffffff168873ffffffffffffffffffffffffffffffffffffffff167fddf252ad1be2c89b69c2b068fc378daa952ba7f163c4a11628f55a4df523b3ef846040518082815260200191505060405180910390a35050505050505050565b600080600080600061267986611ab6565b945094509450945094506126d585600160008b73ffffffffffffffffffffffffffffffffffffffff1673ffffffffffffffffffffffffffffffffffffffff16815260200190815260200160002054611b0e90919063ffffffff16565b600160008a73ffffffffffffffffffffffffffffffffffffffff1673ffffffffffffffffffffffffffffffffffffffff1681526020019081526020016000208190555061276a82600260008a73ffffffffffffffffffffffffffffffffffffffff1673ffffffffffffffffffffffffffffffffffffffff16815260200190815260200160002054611b5890919063ffffffff16565b600260008973ffffffffffffffffffffffffffffffffffffffff1673ffffffffffffffffffffffffffffffffffffffff168152602001908152602001600020819055506127ff84600160008a73ffffffffffffffffffffffffffffffffffffffff1673ffffffffffffffffffffffffffffffffffffffff16815260200190815260200160002054611b5890919063ffffffff16565b600160008973ffffffffffffffffffffffffffffffffffffffff1673ffffffffffffffffffffffffffffffffffffffff1681526020019081526020016000208190555061284c838261316a565b8673ffffffffffffffffffffffffffffffffffffffff168873ffffffffffffffffffffffffffffffffffffffff167fddf252ad1be2c89b69c2b068fc378daa952ba7f163c4a11628f55a4df523b3ef846040518082815260200191505060405180910390a35050505050505050565b60008060008060006128cc86611ab6565b9450945094509450945061292885600160008b73ffffffffffffffffffffffffffffffffffffffff1673ffffffffffffffffffffffffffffffffffffffff16815260200190815260200160002054611b0e90919063ffffffff16565b600160008a73ffffffffffffffffffffffffffffffffffffffff1673ffffffffffffffffffffffffffffffffffffffff168152602001908152602001600020819055506129bd84600160008a73ffffffffffffffffffffffffffffffffffffffff1673ffffffffffffffffffffffffffffffffffffffff16815260200190815260200160002054611b5890919063ffffffff16565b600160008973ffffffffffffffffffffffffffffffffffffffff1673ffffffffffffffffffffffffffffffffffffffff16815260200190815260200160002081905550612a0a838261316a565b8673ffffffffffffffffffffffffffffffffffffffff168873ffffffffffffffffffffffffffffffffffffffff167fddf252ad1be2c89b69c2b068fc378daa952ba7f163c4a11628f55a4df523b3ef846040518082815260200191505060405180910390a35050505050505050565b6000806000806000612a8a86611ab6565b94509450945094509450612ae686600260008b73ffffffffffffffffffffffffffffffffffffffff1673ffffffffffffffffffffffffffffffffffffffff16815260200190815260200160002054611b0e90919063ffffffff16565b600260008a73ffffffffffffffffffffffffffffffffffffffff1673ffffffffffffffffffffffffffffffffffffffff16815260200190815260200160002081905550612b7b85600160008b73ffffffffffffffffffffffffffffffffffffffff1673ffffffffffffffffffffffffffffffffffffffff16815260200190815260200160002054611b0e90919063ffffffff16565b600160008a73ffffffffffffffffffffffffffffffffffffffff1673ffffffffffffffffffffffffffffffffffffffff16815260200190815260200160002081905550612c1082600260008a73ffffffffffffffffffffffffffffffffffffffff1673ffffffffffffffffffffffffffffffffffffffff16815260200190815260200160002054611b5890919063ffffffff16565b600260008973ffffffffffffffffffffffffffffffffffffffff1673ffffffffffffffffffffffffffffffffffffffff16815260200190815260200160002081905550612ca584600160008a73ffffffffffffffffffffffffffffffffffffffff1673ffffffffffffffffffffffffffffffffffffffff16815260200190815260200160002054611b5890919063ffffffff16565b600160008973ffffffffffffffffffffffffffffffffffffffff1673ffffffffffffffffffffffffffffffffffffffff16815260200190815260200160002081905550612cf2838261316a565b8673ffffffffffffffffffffffffffffffffffffffff168873ffffffffffffffffffffffffffffffffffffffff167fddf252ad1be2c89b69c2b068fc378daa952ba7f163c4a11628f55a4df523b3ef846040518082815260200191505060405180910390a35050505050505050565b6000806000600654905060006c0c9f2c9cd04674edea40000000905060005b600580549050811015612fcb57826001600060058481548110612d9f57fe5b9060005260206000200160009054906101000a900473ffffffffffffffffffffffffffffffffffffffff1673ffffffffffffffffffffffffffffffffffffffff1673ffffffffffffffffffffffffffffffffffffffff168152602001908152602001600020541180612e865750816002600060058481548110612e1e57fe5b9060005260206000200160009054906101000a900473ffffffffffffffffffffffffffffffffffffffff1673ffffffffffffffffffffffffffffffffffffffff1673ffffffffffffffffffffffffffffffffffffffff16815260200190815260200160002054115b15612ea8576006546c0c9f2c9cd04674edea400000009450945050505061301a565b612f316001600060058481548110612ebc57fe5b9060005260206000200160009054906101000a900473ffffffffffffffffffffffffffffffffffffffff1673ffffffffffffffffffffffffffffffffffffffff1673ffffffffffffffffffffffffffffffffffffffff1681526020019081526020016000205484611b0e90919063ffffffff16565b9250612fbc6002600060058481548110612f4757fe5b9060005260206000200160009054906101000a900473ffffffffffffffffffffffffffffffffffffffff1673ffffffffffffffffffffffffffffffffffffffff1673ffffffffffffffffffffffffffffffffffffffff1681526020019081526020016000205483611b0e90919063ffffffff16565b91508080600101915050612d80565b50612fee6c0c9f2c9cd04674edea4000000060065461231b90919063ffffffff16565b821015613011576006546c0c9f2c9cd04674edea4000000093509350505061301a565b81819350935050505b9091565b600080831182906130ca576040517f08c379a00000000000000000000000000000000000000000000000000000000081526004018080602001828103825283818151815260200191508051906020019080838360005b8381101561308f578082015181840152602081019050613074565b50505050905090810190601f1680156130bc5780820380516001836020036101000a031916815260200191505b509250505060405180910390fd5b5060008385816130d657fe5b049050809150509392505050565b6000808314156130f75760009050613164565b600082840290508284828161310857fe5b041461315f576040517f08c379a000000000000000000000000000000000000000000000000000000000815260040180806020018281038252602181526020018061323a6021913960400191505060405180910390fd5b809150505b92915050565b61317f82600654611b0e90919063ffffffff16565b60068190555061319a81600a54611b5890919063ffffffff16565b600a81905550505056fe45524332303a207472616e7366657220746f20746865207a65726f2061646472657373416d6f756e74206d757374206265206c657373207468616e20746f74616c207265666c656374696f6e734f776e61626c653a206e6577206f776e657220697320746865207a65726f206164647265737345524332303a20617070726f766520746f20746865207a65726f2061646472657373536166654d6174683a206d756c7469706c69636174696f6e206f766572666c6f7745524332303a207472616e7366657220616d6f756e74206578636565647320616c6c6f77616e63655472616e7366657220616d6f756e74206d7573742062652067726561746572207468616e207a65726f45524332303a207472616e736665722066726f6d20746865207a65726f206164647265737345524332303a20617070726f76652066726f6d20746865207a65726f20616464726573734578636c75646564206164647265737365732063616e6e6f742063616c6c20746869732066756e6374696f6e45524332303a2064656372656173656420616c6c6f77616e63652062656c6f77207a65726fa2646970667358221220788f7787256798c83b81cfb3bfe06340b6f126b8dd10b055cff2390f8e1d5d0e64736f6c634300060c0033"
  }
}