{"compiler":"v0.8.0+commit.c7dfd78e","opcodeHash":"0xe1c7c07b4c5bcec3701e40f9e74e6613c3d5ffb194d3e6382b24739234dc2ddf","metalessHash":"0x914b2174ae7e6c7c5424978d6589855a6efb3fa059a8c64567adf2b7d7c490c1","runtimeHash":"0xed1298616c0b4c129123f0bfcf897c98f4511ae79e293b32392623c10f5cb87d","encodedMetadata":[{"ipfs":"/ipfs/QmamdP2fLaPAMBqY5D9ceWjgZKwteJU8GtQMydVVbzNP5P","solc":"0.8.0"}],"abi":[{"inputs":[{"internalType":"string","name":"name_","type":"string"},{"internalType":"string","name":"symbol_","type":"string"},{"internalType":"address","name":"_rewardsWallet","type":"address"}],"stateMutability":"nonpayable","type":"constructor"},{"anonymous":false,"inputs":[{"indexed":true,"internalType":"address","name":"owner","type":"address"},{"indexed":true,"internalType":"address","name":"spender","type":"address"},{"indexed":false,"internalType":"uint256","name":"value","type":"uint256"}],"name":"Approval","type":"event"},{"anonymous":false,"inputs":[{"indexed":true,"internalType":"address","name":"previousOwner","type":"address"},{"indexed":true,"internalType":"address","name":"newOwner","type":"address"}],"name":"OwnershipTransferred","type":"event"},{"anonymous":false,"inputs":[{"indexed":true,"internalType":"address","name":"from","type":"address"},{"indexed":true,"internalType":"address","name":"to","type":"address"},{"indexed":false,"internalType":"uint256","name":"value","type":"uint256"}],"name":"Transfer","type":"event"},{"anonymous":false,"inputs":[{"indexed":false,"internalType":"address","name":"owner","type":"address"},{"indexed":false,"internalType":"uint256","name":"amount","type":"uint256"}],"name":"Unlocked","type":"event"},{"inputs":[{"internalType":"address","name":"owner","type":"address"},{"internalType":"address","name":"spender","type":"address"}],"name":"allowance","outputs":[{"internalType":"uint256","name":"","type":"uint256"}],"stateMutability":"view","type":"function"},{"inputs":[{"internalType":"address","name":"spender","type":"address"},{"internalType":"uint256","name":"amount","type":"uint256"}],"name":"approve","outputs":[{"internalType":"bool","name":"","type":"bool"}],"stateMutability":"nonpayable","type":"function"},{"inputs":[{"internalType":"address","name":"account","type":"address"}],"name":"balanceOf","outputs":[{"internalType":"uint256","name":"","type":"uint256"}],"stateMutability":"view","type":"function"},{"inputs":[],"name":"decimals","outputs":[{"internalType":"uint8","name":"","type":"uint8"}],"stateMutability":"view","type":"function"},{"inputs":[{"internalType":"address","name":"spender","type":"address"},{"internalType":"uint256","name":"subtractedValue","type":"uint256"}],"name":"decreaseAllowance","outputs":[{"internalType":"bool","name":"","type":"bool"}],"stateMutability":"nonpayable","type":"function"},{"inputs":[{"internalType":"address","name":"spender","type":"address"},{"internalType":"uint256","name":"addedValue","type":"uint256"}],"name":"increaseAllowance","outputs":[{"internalType":"bool","name":"","type":"bool"}],"stateMutability":"nonpayable","type":"function"},{"inputs":[],"name":"name","outputs":[{"internalType":"string","name":"","type":"string"}],"stateMutability":"view","type":"function"},{"inputs":[],"name":"owner","outputs":[{"internalType":"address","name":"","type":"address"}],"stateMutability":"view","type":"function"},{"inputs":[],"name":"renounceOwnership","outputs":[],"stateMutability":"nonpayable","type":"function"},{"inputs":[],"name":"rewardsWallet","outputs":[{"internalType":"address","name":"","type":"address"}],"stateMutability":"view","type":"function"},{"inputs":[],"name":"symbol","outputs":[{"internalType":"string","name":"","type":"string"}],"stateMutability":"view","type":"function"},{"inputs":[],"name":"totalSupply","outputs":[{"internalType":"uint256","name":"","type":"uint256"}],"stateMutability":"view","type":"function"},{"inputs":[{"internalType":"address","name":"recipient","type":"address"},{"internalType":"uint256","name":"amount","type":"uint256"}],"name":"transfer","outputs":[{"internalType":"bool","name":"","type":"bool"}],"stateMutability":"nonpayable","type":"function"},{"inputs":[{"internalType":"address","name":"sender","type":"address"},{"internalType":"address","name":"recipient","type":"address"},{"internalType":"uint256","name":"amount","type":"uint256"}],"name":"transferFrom","outputs":[{"internalType":"bool","name":"","type":"bool"}],"stateMutability":"nonpayable","type":"function"},{"inputs":[{"internalType":"address","name":"newOwner","type":"address"}],"name":"transferOwnership","outputs":[],"stateMutability":"nonpayable","type":"function"},{"inputs":[],"name":"unlockRemainingToken","outputs":[],"stateMutability":"nonpayable","type":"function"}],"bytecode":{"object":"60806040523480156200001157600080fd5b506040516200272a3803806200272a833981810160405281019062000037919062000545565b6000620000496200025660201b60201c565b9050806000806101000a81548173ffffffffffffffffffffffffffffffffffffffff021916908373ffffffffffffffffffffffffffffffffffffffff1602179055508073ffffffffffffffffffffffffffffffffffffffff16600073ffffffffffffffffffffffffffffffffffffffff167f8be0079c531659141344cd1fd0a4f28419497f9722a3daafe3b4186f6b6457e060405160405180910390a3508260049080519060200190620000ff9291906200040c565b508160059080519060200190620001189291906200040c565b5080600660006101000a81548173ffffffffffffffffffffffffffffffffffffffff021916908373ffffffffffffffffffffffffffffffffffffffff16021790555060006a084595161401484a000000905060006a0422ca8b0a00a42500000090506200018c30836200025e60201b60201c565b80600160003073ffffffffffffffffffffffffffffffffffffffff1673ffffffffffffffffffffffffffffffffffffffff1681526020019081526020016000206000828254620001dd9190620007cd565b925050819055508060016000620001f96200025660201b60201c565b73ffffffffffffffffffffffffffffffffffffffff1673ffffffffffffffffffffffffffffffffffffffff1681526020019081526020016000206000828254620002449190620006d7565b92505081905550505050505062000988565b600033905090565b600073ffffffffffffffffffffffffffffffffffffffff168273ffffffffffffffffffffffffffffffffffffffff161415620002d1576040517f08c379a0000000000000000000000000000000000000000000000000000000008152600401620002c89062000620565b60405180910390fd5b620002e560008383620003c660201b60201c565b50508060036000828254620002fb9190620006d7565b9250508190555080600160008473ffffffffffffffffffffffffffffffffffffffff1673ffffffffffffffffffffffffffffffffffffffff1681526020019081526020016000206000828254620003539190620006d7565b925050819055508173ffffffffffffffffffffffffffffffffffffffff16600073ffffffffffffffffffffffffffffffffffffffff167fddf252ad1be2c89b69c2b068fc378daa952ba7f163c4a11628f55a4df523b3ef83604051620003ba919062000642565b60405180910390a35050565b60008060006064600485620003dc91906200076c565b620003e8919062000734565b905060008185620003fa9190620007cd565b90508082935093505050935093915050565b8280546200041a906200087c565b90600052602060002090601f0160209004810192826200043e57600085556200048a565b82601f106200045957805160ff19168380011785556200048a565b828001600101855582156200048a579182015b82811115620004895782518255916020019190600101906200046c565b5b5090506200049991906200049d565b5090565b5b80821115620004b85760008160009055506001016200049e565b5090565b6000620004d3620004cd8462000693565b6200065f565b905082815260208101848484011115620004ec57600080fd5b620004f984828562000846565b509392505050565b60008151905062000512816200096e565b92915050565b600082601f8301126200052a57600080fd5b81516200053c848260208601620004bc565b91505092915050565b6000806000606084860312156200055b57600080fd5b600084015167ffffffffffffffff8111156200057657600080fd5b620005848682870162000518565b935050602084015167ffffffffffffffff811115620005a257600080fd5b620005b08682870162000518565b9250506040620005c38682870162000501565b9150509250925092565b6000620005dc601f83620006c6565b91507f45524332303a206d696e7420746f20746865207a65726f2061646472657373006000830152602082019050919050565b6200061a816200083c565b82525050565b600060208201905081810360008301526200063b81620005cd565b9050919050565b60006020820190506200065960008301846200060f565b92915050565b6000604051905081810181811067ffffffffffffffff821117156200068957620006886200093f565b5b8060405250919050565b600067ffffffffffffffff821115620006b157620006b06200093f565b5b601f19601f8301169050602081019050919050565b600082825260208201905092915050565b6000620006e4826200083c565b9150620006f1836200083c565b9250827fffffffffffffffffffffffffffffffffffffffffffffffffffffffffffffffff03821115620007295762000728620008b2565b5b828201905092915050565b600062000741826200083c565b91506200074e836200083c565b925082620007615762000760620008e1565b5b828204905092915050565b600062000779826200083c565b915062000786836200083c565b9250817fffffffffffffffffffffffffffffffffffffffffffffffffffffffffffffffff0483118215151615620007c257620007c1620008b2565b5b828202905092915050565b6000620007da826200083c565b9150620007e7836200083c565b925082821015620007fd57620007fc620008b2565b5b828203905092915050565b600062000815826200081c565b9050919050565b600073ffffffffffffffffffffffffffffffffffffffff82169050919050565b6000819050919050565b60005b838110156200086657808201518184015260208101905062000849565b8381111562000876576000848401525b50505050565b600060028204905060018216806200089557607f821691505b60208210811415620008ac57620008ab62000910565b5b50919050565b7f4e487b7100000000000000000000000000000000000000000000000000000000600052601160045260246000fd5b7f4e487b7100000000000000000000000000000000000000000000000000000000600052601260045260246000fd5b7f4e487b7100000000000000000000000000000000000000000000000000000000600052602260045260246000fd5b7f4e487b7100000000000000000000000000000000000000000000000000000000600052604160045260246000fd5b620009798162000808565b81146200098557600080fd5b50565b611d9280620009986000396000f3fe608060405234801561001057600080fd5b50600436106101005760003560e01c806370a0823111610097578063a457c2d711610066578063a457c2d71461028d578063a9059cbb146102bd578063dd62ed3e146102ed578063f2fde38b1461031d57610100565b806370a0823114610217578063715018a6146102475780638da5cb5b1461025157806395d89b411461026f57610100565b8063313ce567116100d3578063313ce567146101a157806339509351146101bf578063474c8712146101ef5780635b35f9c9146101f957610100565b806306fdde0314610105578063095ea7b31461012357806318160ddd1461015357806323b872dd14610171575b600080fd5b61010d610339565b60405161011a919061190d565b60405180910390f35b61013d60048036038101906101389190611427565b6103cb565b60405161014a91906118f2565b60405180910390f35b61015b6103e9565b6040516101689190611a6f565b60405180910390f35b61018b600480360381019061018691906113d8565b6103f3565b60405161019891906118f2565b60405180910390f35b6101a9610571565b6040516101b69190611a8a565b60405180910390f35b6101d960048036038101906101d49190611427565b61057a565b6040516101e691906118f2565b60405180910390f35b6101f7610626565b005b61020161080e565b60405161020e91906118ae565b60405180910390f35b610231600480360381019061022c9190611373565b610834565b60405161023e9190611a6f565b60405180910390f35b61024f61087d565b005b6102596109b7565b60405161026691906118ae565b60405180910390f35b6102776109e0565b604051610284919061190d565b60405180910390f35b6102a760048036038101906102a29190611427565b610a72565b6040516102b491906118f2565b60405180910390f35b6102d760048036038101906102d29190611427565b610be4565b6040516102e491906118f2565b60405180910390f35b6103076004803603810190610302919061139c565b610c02565b6040516103149190611a6f565b60405180910390f35b61033760048036038101906103329190611373565b610c89565b005b60606004805461034890611c5e565b80601f016020809104026020016040519081016040528092919081815260200182805461037490611c5e565b80156103c15780601f10610396576101008083540402835291602001916103c1565b820191906000526020600020905b8154815290600101906020018083116103a457829003601f168201915b5050505050905090565b60006103df6103d8610e32565b8484610e3a565b6001905092915050565b6000600354905090565b6000610400848484611005565b81600260008673ffffffffffffffffffffffffffffffffffffffff1673ffffffffffffffffffffffffffffffffffffffff168152602001908152602001600020600061044a610e32565b73ffffffffffffffffffffffffffffffffffffffff1673ffffffffffffffffffffffffffffffffffffffff1681526020019081526020016000205410156104c6576040517f08c379a00000000000000000000000000000000000000000000000000000000081526004016104bd906119cf565b60405180910390fd5b610566846104d2610e32565b84600260008973ffffffffffffffffffffffffffffffffffffffff1673ffffffffffffffffffffffffffffffffffffffff168152602001908152602001600020600061051c610e32565b73ffffffffffffffffffffffffffffffffffffffff1673ffffffffffffffffffffffffffffffffffffffff168152602001908152602001600020546105619190611ba2565b610e3a565b600190509392505050565b60006012905090565b600061061c610587610e32565b848460026000610595610e32565b73ffffffffffffffffffffffffffffffffffffffff1673ffffffffffffffffffffffffffffffffffffffff16815260200190815260200160002060008873ffffffffffffffffffffffffffffffffffffffff1673ffffffffffffffffffffffffffffffffffffffff168152602001908152602001600020546106179190611ac1565b610e3a565b6001905092915050565b61062e610e32565b73ffffffffffffffffffffffffffffffffffffffff1661064c6109b7565b73ffffffffffffffffffffffffffffffffffffffff16146106a2576040517f08c379a0000000000000000000000000000000000000000000000000000000008152600401610699906119ef565b60405180910390fd5b6000600160003073ffffffffffffffffffffffffffffffffffffffff1673ffffffffffffffffffffffffffffffffffffffff16815260200190815260200160002054905060008111610729576040517f08c379a0000000000000000000000000000000000000000000000000000000008152600401610720906119af565b60405180910390fd5b6000600160003073ffffffffffffffffffffffffffffffffffffffff1673ffffffffffffffffffffffffffffffffffffffff16815260200190815260200160002081905550806001600061077b610e32565b73ffffffffffffffffffffffffffffffffffffffff1673ffffffffffffffffffffffffffffffffffffffff16815260200190815260200160002060008282546107c49190611ac1565b925050819055507f0f0bc5b519ddefdd8e5f9e6423433aa2b869738de2ae34d58ebc796fc749fa0d6107f4610e32565b826040516108039291906118c9565b60405180910390a150565b600660009054906101000a900473ffffffffffffffffffffffffffffffffffffffff1681565b6000600160008373ffffffffffffffffffffffffffffffffffffffff1673ffffffffffffffffffffffffffffffffffffffff168152602001908152602001600020549050919050565b610885610e32565b73ffffffffffffffffffffffffffffffffffffffff166108a36109b7565b73ffffffffffffffffffffffffffffffffffffffff16146108f9576040517f08c379a00000000000000000000000000000000000000000000000000000000081526004016108f0906119ef565b60405180910390fd5b600073ffffffffffffffffffffffffffffffffffffffff1660008054906101000a900473ffffffffffffffffffffffffffffffffffffffff1673ffffffffffffffffffffffffffffffffffffffff167f8be0079c531659141344cd1fd0a4f28419497f9722a3daafe3b4186f6b6457e060405160405180910390a360008060006101000a81548173ffffffffffffffffffffffffffffffffffffffff021916908373ffffffffffffffffffffffffffffffffffffffff160217905550565b60008060009054906101000a900473ffffffffffffffffffffffffffffffffffffffff16905090565b6060600580546109ef90611c5e565b80601f0160208091040260200160405190810160405280929190818152602001828054610a1b90611c5e565b8015610a685780601f10610a3d57610100808354040283529160200191610a68565b820191906000526020600020905b815481529060010190602001808311610a4b57829003601f168201915b5050505050905090565b60008160026000610a81610e32565b73ffffffffffffffffffffffffffffffffffffffff1673ffffffffffffffffffffffffffffffffffffffff16815260200190815260200160002060008573ffffffffffffffffffffffffffffffffffffffff1673ffffffffffffffffffffffffffffffffffffffff168152602001908152602001600020541015610b3a576040517f08c379a0000000000000000000000000000000000000000000000000000000008152600401610b3190611a4f565b60405180910390fd5b610bda610b45610e32565b848460026000610b53610e32565b73ffffffffffffffffffffffffffffffffffffffff1673ffffffffffffffffffffffffffffffffffffffff16815260200190815260200160002060008873ffffffffffffffffffffffffffffffffffffffff1673ffffffffffffffffffffffffffffffffffffffff16815260200190815260200160002054610bd59190611ba2565b610e3a565b6001905092915050565b6000610bf8610bf1610e32565b8484611005565b6001905092915050565b6000600260008473ffffffffffffffffffffffffffffffffffffffff1673ffffffffffffffffffffffffffffffffffffffff16815260200190815260200160002060008373ffffffffffffffffffffffffffffffffffffffff1673ffffffffffffffffffffffffffffffffffffffff16815260200190815260200160002054905092915050565b610c91610e32565b73ffffffffffffffffffffffffffffffffffffffff16610caf6109b7565b73ffffffffffffffffffffffffffffffffffffffff1614610d05576040517f08c379a0000000000000000000000000000000000000000000000000000000008152600401610cfc906119ef565b60405180910390fd5b600073ffffffffffffffffffffffffffffffffffffffff168173ffffffffffffffffffffffffffffffffffffffff161415610d75576040517f08c379a0000000000000000000000000000000000000000000000000000000008152600401610d6c9061194f565b60405180910390fd5b8073ffffffffffffffffffffffffffffffffffffffff1660008054906101000a900473ffffffffffffffffffffffffffffffffffffffff1673ffffffffffffffffffffffffffffffffffffffff167f8be0079c531659141344cd1fd0a4f28419497f9722a3daafe3b4186f6b6457e060405160405180910390a3806000806101000a81548173ffffffffffffffffffffffffffffffffffffffff021916908373ffffffffffffffffffffffffffffffffffffffff16021790555050565b600033905090565b600073ffffffffffffffffffffffffffffffffffffffff168373ffffffffffffffffffffffffffffffffffffffff161415610eaa576040517f08c379a0000000000000000000000000000000000000000000000000000000008152600401610ea190611a2f565b60405180910390fd5b600073ffffffffffffffffffffffffffffffffffffffff168273ffffffffffffffffffffffffffffffffffffffff161415610f1a576040517f08c379a0000000000000000000000000000000000000000000000000000000008152600401610f119061196f565b60405180910390fd5b80600260008573ffffffffffffffffffffffffffffffffffffffff1673ffffffffffffffffffffffffffffffffffffffff16815260200190815260200160002060008473ffffffffffffffffffffffffffffffffffffffff1673ffffffffffffffffffffffffffffffffffffffff168152602001908152602001600020819055508173ffffffffffffffffffffffffffffffffffffffff168373ffffffffffffffffffffffffffffffffffffffff167f8c5be1e5ebec7d5bd14f71427d1e84f3dd0314c0f7b2291e5b200ac8c7c3b92583604051610ff89190611a6f565b60405180910390a3505050565b600073ffffffffffffffffffffffffffffffffffffffff168373ffffffffffffffffffffffffffffffffffffffff161415611075576040517f08c379a000000000000000000000000000000000000000000000000000000000815260040161106c90611a0f565b60405180910390fd5b600073ffffffffffffffffffffffffffffffffffffffff168273ffffffffffffffffffffffffffffffffffffffff1614156110e5576040517f08c379a00000000000000000000000000000000000000000000000000000000081526004016110dc9061192f565b60405180910390fd5b6000806110f3858585611309565b9150915082600160008773ffffffffffffffffffffffffffffffffffffffff1673ffffffffffffffffffffffffffffffffffffffff168152602001908152602001600020541015611179576040517f08c379a00000000000000000000000000000000000000000000000000000000081526004016111709061198f565b60405180910390fd5b82600160008773ffffffffffffffffffffffffffffffffffffffff1673ffffffffffffffffffffffffffffffffffffffff16815260200190815260200160002060008282546111c89190611ba2565b9250508190555081600160008673ffffffffffffffffffffffffffffffffffffffff1673ffffffffffffffffffffffffffffffffffffffff168152602001908152602001600020600082825461121e9190611ac1565b925050819055508060016000600660009054906101000a900473ffffffffffffffffffffffffffffffffffffffff1673ffffffffffffffffffffffffffffffffffffffff1673ffffffffffffffffffffffffffffffffffffffff16815260200190815260200160002060008282546112969190611ac1565b925050819055508373ffffffffffffffffffffffffffffffffffffffff168573ffffffffffffffffffffffffffffffffffffffff167fddf252ad1be2c89b69c2b068fc378daa952ba7f163c4a11628f55a4df523b3ef856040516112fa9190611a6f565b60405180910390a35050505050565b6000806000606460048561131d9190611b48565b6113279190611b17565b9050600081856113379190611ba2565b90508082935093505050935093915050565b60008135905061135881611d2e565b92915050565b60008135905061136d81611d45565b92915050565b60006020828403121561138557600080fd5b600061139384828501611349565b91505092915050565b600080604083850312156113af57600080fd5b60006113bd85828601611349565b92505060206113ce85828601611349565b9150509250929050565b6000806000606084860312156113ed57600080fd5b60006113fb86828701611349565b935050602061140c86828701611349565b925050604061141d8682870161135e565b9150509250925092565b6000806040838503121561143a57600080fd5b600061144885828601611349565b92505060206114598582860161135e565b9150509250929050565b61146c81611bd6565b82525050565b61147b81611be8565b82525050565b600061148c82611aa5565b6114968185611ab0565b93506114a6818560208601611c2b565b6114af81611d1d565b840191505092915050565b60006114c7602383611ab0565b91507f45524332303a207472616e7366657220746f20746865207a65726f206164647260008301527f65737300000000000000000000000000000000000000000000000000000000006020830152604082019050919050565b600061152d602683611ab0565b91507f4f776e61626c653a206e6577206f776e657220697320746865207a65726f206160008301527f64647265737300000000000000000000000000000000000000000000000000006020830152604082019050919050565b6000611593602283611ab0565b91507f45524332303a20617070726f766520746f20746865207a65726f20616464726560008301527f73730000000000000000000000000000000000000000000000000000000000006020830152604082019050919050565b60006115f9602683611ab0565b91507f45524332303a207472616e7366657220616d6f756e742065786365656473206260008301527f616c616e636500000000000000000000000000000000000000000000000000006020830152604082019050919050565b600061165f602d83611ab0565b91507f476173696679546f6b656e3a20546f6b656e206861766520616c72656164792060008301527f6265656e20756e6c6f636b6564000000000000000000000000000000000000006020830152604082019050919050565b60006116c5602883611ab0565b91507f45524332303a207472616e7366657220616d6f756e742065786365656473206160008301527f6c6c6f77616e63650000000000000000000000000000000000000000000000006020830152604082019050919050565b600061172b602083611ab0565b91507f4f776e61626c653a2063616c6c6572206973206e6f7420746865206f776e65726000830152602082019050919050565b600061176b602583611ab0565b91507f45524332303a207472616e736665722066726f6d20746865207a65726f20616460008301527f64726573730000000000000000000000000000000000000000000000000000006020830152604082019050919050565b60006117d1602483611ab0565b91507f45524332303a20617070726f76652066726f6d20746865207a65726f2061646460008301527f72657373000000000000000000000000000000000000000000000000000000006020830152604082019050919050565b6000611837602583611ab0565b91507f45524332303a2064656372656173656420616c6c6f77616e63652062656c6f7760008301527f207a65726f0000000000000000000000000000000000000000000000000000006020830152604082019050919050565b61189981611c14565b82525050565b6118a881611c1e565b82525050565b60006020820190506118c36000830184611463565b92915050565b60006040820190506118de6000830185611463565b6118eb6020830184611890565b9392505050565b60006020820190506119076000830184611472565b92915050565b600060208201905081810360008301526119278184611481565b905092915050565b60006020820190508181036000830152611948816114ba565b9050919050565b6000602082019050818103600083015261196881611520565b9050919050565b6000602082019050818103600083015261198881611586565b9050919050565b600060208201905081810360008301526119a8816115ec565b9050919050565b600060208201905081810360008301526119c881611652565b9050919050565b600060208201905081810360008301526119e8816116b8565b9050919050565b60006020820190508181036000830152611a088161171e565b9050919050565b60006020820190508181036000830152611a288161175e565b9050919050565b60006020820190508181036000830152611a48816117c4565b9050919050565b60006020820190508181036000830152611a688161182a565b9050919050565b6000602082019050611a846000830184611890565b92915050565b6000602082019050611a9f600083018461189f565b92915050565b600081519050919050565b600082825260208201905092915050565b6000611acc82611c14565b9150611ad783611c14565b9250827fffffffffffffffffffffffffffffffffffffffffffffffffffffffffffffffff03821115611b0c57611b0b611c90565b5b828201905092915050565b6000611b2282611c14565b9150611b2d83611c14565b925082611b3d57611b3c611cbf565b5b828204905092915050565b6000611b5382611c14565b9150611b5e83611c14565b9250817fffffffffffffffffffffffffffffffffffffffffffffffffffffffffffffffff0483118215151615611b9757611b96611c90565b5b828202905092915050565b6000611bad82611c14565b9150611bb883611c14565b925082821015611bcb57611bca611c90565b5b828203905092915050565b6000611be182611bf4565b9050919050565b60008115159050919050565b600073ffffffffffffffffffffffffffffffffffffffff82169050919050565b6000819050919050565b600060ff82169050919050565b60005b83811015611c49578082015181840152602081019050611c2e565b83811115611c58576000848401525b50505050565b60006002820490506001821680611c7657607f821691505b60208210811415611c8a57611c89611cee565b5b50919050565b7f4e487b7100000000000000000000000000000000000000000000000000000000600052601160045260246000fd5b7f4e487b7100000000000000000000000000000000000000000000000000000000600052601260045260246000fd5b7f4e487b7100000000000000000000000000000000000000000000000000000000600052602260045260246000fd5b6000601f19601f8301169050919050565b611d3781611bd6565b8114611d4257600080fd5b50565b611d4e81611c14565b8114611d5957600080fd5b5056fea26469706673582212207ddd9f7bf977d826e0e6dae119a8a3401049b4a4436ad05a39e2f46d4dff722e64736f6c63430008000033"}}