{"compiler":"v0.6.12+commit.27d51765","opcodeHash":"0x241e8c9e70d541e54e0c5e7961092f0ef95ebfa90e7804565f7025de39ada5de","metalessHash":"0x665b37bc28e038c435f6f8517cc1a409faadd575375c052f83f8971bb9988a13","runtimeHash":"0xf9e72c5310d1ff78c99f7e5319c66dacf06671f2ac95daa794cf7566a31ec612","encodedMetadata":[{"ipfs":"/ipfs/QmaW3i5igaUBQGL4eBdu1N3xaCRHtgxJsYHNcqVeqppxh7","solc":"0.6.12"}],"abi":[{"inputs":[{"internalType":"address","name":"_optionMarketLibrary","type":"address"},{"internalType":"address","name":"_optionTokenLibrary","type":"address"}],"stateMutability":"nonpayable","type":"constructor"},{"inputs":[{"internalType":"address","name":"_baseToken","type":"address"},{"internalType":"address","name":"_quoteToken","type":"address"},{"internalType":"address","name":"_oracle","type":"address"},{"internalType":"uint256[]","name":"_strikePrices","type":"uint256[]"},{"internalType":"uint256","name":"_expiryTime","type":"uint256"},{"internalType":"bool","name":"_isPut","type":"bool"},{"internalType":"uint256","name":"_tradingFee","type":"uint256"},{"internalType":"uint256","name":"_balanceCap","type":"uint256"},{"internalType":"uint256","name":"_disputePeriod","type":"uint256"}],"name":"createMarket","outputs":[{"internalType":"address","name":"","type":"address"}],"stateMutability":"nonpayable","type":"function"},{"inputs":[{"internalType":"string","name":"underlying","type":"string"},{"internalType":"uint256","name":"expiryTime","type":"uint256"},{"internalType":"bool","name":"isPut","type":"bool"}],"name":"getMarketSymbol","outputs":[{"internalType":"string","name":"","type":"string"}],"stateMutability":"pure","type":"function"},{"inputs":[{"internalType":"string","name":"underlying","type":"string"},{"internalType":"uint256","name":"strikePrice","type":"uint256"},{"internalType":"uint256","name":"expiryTime","type":"uint256"},{"internalType":"bool","name":"isPut","type":"bool"},{"internalType":"bool","name":"isLong","type":"bool"}],"name":"getOptionSymbol","outputs":[{"internalType":"string","name":"","type":"string"}],"stateMutability":"pure","type":"function"},{"inputs":[{"internalType":"uint256","name":"","type":"uint256"}],"name":"markets","outputs":[{"internalType":"address","name":"","type":"address"}],"stateMutability":"view","type":"function"},{"inputs":[],"name":"numMarkets","outputs":[{"internalType":"uint256","name":"","type":"uint256"}],"stateMutability":"view","type":"function"},{"inputs":[],"name":"optionMarketLibrary","outputs":[{"internalType":"address","name":"","type":"address"}],"stateMutability":"view","type":"function"},{"inputs":[],"name":"optionTokenLibary","outputs":[{"internalType":"address","name":"","type":"address"}],"stateMutability":"view","type":"function"}],"bytecode":{"object":"608060405234801561001057600080fd5b50604051620021bd380380620021bd8339818101604052604081101561003557600080fd5b50805160209091015160016000556001600160a01b0382166100895760405162461bcd60e51b815260040180806020018281038252602b81526020018062002192602b913960400191505060405180910390fd5b6001600160a01b0381166100cf5760405162461bcd60e51b8152600401808060200182810382526029815260200180620021696029913960400191505060405180910390fd5b600180546001600160a01b039384166001600160a01b0319918216179091556002805492909316911617905561205e806200010b6000396000f3fe608060405234801561001057600080fd5b506004361061007d5760003560e01c8063793e5a0d1161005b578063793e5a0d146102b4578063b1283e771461036d578063ce79049b1461038a578063eebdc5cf146103925761007d565b806326e04f9d1461008257806352ca97a71461009c5780635359a01a14610194575b600080fd5b61008a61039a565b60408051918252519081900360200190f35b61017860048036036101208110156100b357600080fd5b6001600160a01b0382358116926020810135821692604082013590921691810190608081016060820135600160201b8111156100ee57600080fd5b82018360208201111561010057600080fd5b803590602001918460208302840111600160201b8311171561012157600080fd5b919080806020026020016040519081016040528093929190818152602001838360200280828437600092019190915250929550508235935050506020810135151590604081013590606081013590608001356103a0565b604080516001600160a01b039092168252519081900360200190f35b61023f600480360360608110156101aa57600080fd5b810190602081018135600160201b8111156101c457600080fd5b8201836020820111156101d657600080fd5b803590602001918460018302840111600160201b831117156101f757600080fd5b91908080601f0160208091040260200160405190810160405280939291908181526020018383808284376000920191909152509295505082359350505060200135151561055f565b6040805160208082528351818301528351919283929083019185019080838360005b83811015610279578181015183820152602001610261565b50505050905090810190601f1680156102a65780820380516001836020036101000a031916815260200191505b509250505060405180910390f35b61023f600480360360a08110156102ca57600080fd5b810190602081018135600160201b8111156102e457600080fd5b8201836020820111156102f657600080fd5b803590602001918460018302840111600160201b8311171561031757600080fd5b91908080601f0160208091040260200160405190810160405280939291908181526020018383808284376000920191909152509295505082359350505060208101359060408101351515906060013515156107a3565b6101786004803603602081101561038357600080fd5b5035610a8e565b610178610ab5565b610178610ac4565b60035490565b6000600260005414156103fa576040805162461bcd60e51b815260206004820152601f60248201527f5265656e7472616e637947756172643a207265656e7472616e742063616c6c00604482015290519081900360640190fd5b6002600055600480546001600160a01b0319166001600160a01b038a16179055865161042d9060059060208a0190611fc8565b5060068690556007805460ff1916861515179081905560088590556009849055600a839055600b80546001600160a01b0319166001600160a01b038d1617905560ff1661047a578961047c565b885b600c80546001600160a01b0319166001600160a01b0392831617908190556104a49116610ad3565b61052757600c60009054906101000a90046001600160a01b03166001600160a01b031663313ce5676040518163ffffffff1660e01b815260040160206040518083038186803b1580156104f657600080fd5b505afa15801561050a573d6000803e3d6000fd5b505050506040513d602081101561052057600080fd5b505161052a565b60125b600c60146101000a81548160ff021916908360ff16021790555061054c610ae4565b60016000559a9950505050505050505050565b6060600080600061056f86610de7565b925092509250606061058083610e06565b5090506060866105a957604051806040016040528060018152602001604360f81b8152506105c4565b604051806040016040528060018152602001600560fc1b8152505b9050886105d08461119f565b836105da88611248565b8460405160200180806202628160ed1b81525060030186805190602001908083835b6020831061061b5780518252601f1990920191602091820191016105fc565b6001836020036101000a03801982511681845116808217855250505050505090500180600160fd1b81525060010185805190602001908083835b602083106106745780518252601f199092019160209182019101610655565b51815160209384036101000a600019018019909216911617905287519190930192870191508083835b602083106106bc5780518252601f19909201916020918201910161069d565b51815160209384036101000a600019018019909216911617905286519190930192860191508083835b602083106107045780518252601f1990920191602091820191016106e5565b6001836020036101000a03801982511681845116808217855250505050505090500180600160fd1b81525060010182805190602001908083835b6020831061075d5780518252601f19909201916020918201910161073e565b6001836020036101000a03801982511681845116808217855250505050505090500195505050505050604051602081830303815290604052955050505050509392505050565b6060806107af86611323565b905060008060006107bf88610de7565b92509250925060606107d083610e06565b50905060608861081f57876107ff5760405180604001604052806002815260200161534360f01b81525061081a565b604051806040016040528060018152602001604360f81b8152505b61085f565b876108445760405180604001604052806002815260200161053560f41b81525061085f565b604051806040016040528060018152602001600560fc1b8152505b90508b61086b8461119f565b8361087588611248565b89856040516020018087805190602001908083835b602083106108a95780518252601f19909201916020918201910161088a565b6001836020036101000a03801982511681845116808217855250505050505090500180600160fd1b81525060010186805190602001908083835b602083106109025780518252601f1990920191602091820191016108e3565b51815160209384036101000a600019018019909216911617905288519190930192880191508083835b6020831061094a5780518252601f19909201916020918201910161092b565b51815160209384036101000a600019018019909216911617905287519190930192870191508083835b602083106109925780518252601f199092019160209182019101610973565b6001836020036101000a03801982511681845116808217855250505050505090500180600160fd1b81525060010183805190602001908083835b602083106109eb5780518252601f1990920191602091820191016109cc565b6001836020036101000a03801982511681845116808217855250505050505090500180600160fd1b81525060010182805190602001908083835b60208310610a445780518252601f199092019160209182019101610a25565b6001836020036101000a0380198251168184511680821785525050505050509050019650505050505050604051602081830303815290604052965050505050505095945050505050565b60038181548110610a9b57fe5b6000918252602090912001546001600160a01b0316905081565b6001546001600160a01b031681565b6002546001600160a01b031681565b6001600160a01b038116155b919050565b6001546000908190610afe906001600160a01b031661148b565b60038054600180820183556000929092527fc2575a0e9e593c00f959f8c92f12db2869c3395a3b0502d05e2516446f71f85b0180546001600160a01b0319166001600160a01b03848116918217909255600c5460045494955085949193638dcb18f7939182169290911690610b749086906114dd565b610b7f8760006114dd565b600654600754600854600954600a54600b546005959460ff1693929190610bc090610bb2906001600160a01b0316611721565b60065460075460ff1661055f565b6040518c63ffffffff1660e01b8152600401808c6001600160a01b031681526020018b6001600160a01b031681526020018060200180602001806020018a815260200189151581526020018881526020018781526020018681526020018060200185810385528e818151815260200191508051906020019060200280838360005b83811015610c59578181015183820152602001610c41565b5050505090500185810384528d818151815260200191508051906020019060200280838360005b83811015610c98578181015183820152602001610c80565b5050505090500185810383528c8181548152602001915080548015610cdc57602002820191906000526020600020905b815481526020019060010190808311610cc8575b5050858103825286518152865160209182019188019080838360005b83811015610d10578181015183820152602001610cf8565b50505050905090810190601f168015610d3d5780820380516001836020036101000a031916815260200191505b509f50505050505050505050505050505050600060405180830381600087803b158015610d6957600080fd5b505af1158015610d7d573d6000803e3d6000fd5b50506040805163f2fde38b60e01b815233600482015290516001600160a01b038516935063f2fde38b9250602480830192600092919082900301818387803b158015610dc857600080fd5b505af1158015610ddc573d6000803e3d6000fd5b509394505050505090565b60008080610df9620151808504611b5c565b9196909550909350915050565b6060808260011415610e5757604051806040016040528060038152602001622520a760e91b815250604051806040016040528060078152602001664a616e7561727960c81b8152509150915061119a565b8260021415610ea657604051806040016040528060038152602001622322a160e91b81525060405180604001604052806008815260200167466562727561727960c01b8152509150915061119a565b8260031415610ef2576040518060400160405280600381526020016226a0a960e91b8152506040518060400160405280600581526020016409ac2e4c6d60db1b8152509150915061119a565b8260041415610f3e576040518060400160405280600381526020016220a82960e91b81525060405180604001604052806005815260200164105c1c9a5b60da1b8152509150915061119a565b8260051415610f8857604051806040016040528060038152602001624d415960e81b815250604051806040016040528060038152602001624d617960e81b8152509150915061119a565b8260061415610fd35760405180604001604052806003815260200162252aa760e91b815250604051806040016040528060048152602001634a756e6560e01b8152509150915061119a565b826007141561101e576040518060400160405280600381526020016212955360ea1b815250604051806040016040528060048152602001634a756c7960e01b8152509150915061119a565b826008141561106b576040518060400160405280600381526020016241554760e81b81525060405180604001604052806006815260200165105d59dd5cdd60d21b8152509150915061119a565b82600914156110bb576040518060400160405280600381526020016205345560ec1b8152506040518060400160405280600981526020016829b2b83a32b6b132b960b91b8152509150915061119a565b82600a1415611109576040518060400160405280600381526020016213d0d560ea1b8152506040518060400160405280600781526020016627b1ba37b132b960c91b8152509150915061119a565b82600b141561115857604051806040016040528060038152602001622727ab60e91b815250604051806040016040528060088152602001672737bb32b6b132b960c11b8152509150915061119a565b6040518060400160405280600381526020016244454360e81b815250604051806040016040528060088152602001672232b1b2b6b132b960c11b815250915091505b915091565b606060638211156111b1576064820691505b60606111bc83611248565b9050600a83101561124257806040516020018080600360fc1b81525060010182805190602001908083835b602083106112065780518252601f1990920191602091820191016111e7565b6001836020036101000a038019825116818451168082178552505050505050905001915050604051602081830303815290604052915050610adf565b92915050565b60608161126d57506040805180820190915260018152600360fc1b6020820152610adf565b8160005b811561128557600101600a82049150611271565b60608167ffffffffffffffff8111801561129e57600080fd5b506040519080825280601f01601f1916602001820160405280156112c9576020820181803683370190505b50859350905060001982015b831561131a57600a840660300160f81b828280600190039350815181106112f857fe5b60200101906001600160f81b031916908160001a905350600a840493506112d5565b50949350505050565b6060600061133983670de0b6b3a7640000611bf2565b9050600061134f84670de0b6b3a7640000611c3b565b9050606061135c82611248565b90508261136d579250610adf915050565b60005b61137b84600a611bf2565b61138d57600a84049350600101611370565b80601203600a0a8401935060606113a385611248565b90506113b58160016013859003611c7d565b9050606083826040516020018083805190602001908083835b602083106113ed5780518252601f1990920191602091820191016113ce565b6001836020036101000a03801982511681845116808217855250505050505090500180601760f91b81525060010182805190602001908083835b602083106114465780518252601f199092019160209182019101611427565b6001836020036101000a038019825116818451168082178552505050505050905001925050506040516020818303038152906040529050809650505050505050919050565b6000808260601b9050604051733d602d80600a3d3981f3363d3d373d3d3d363d7360601b81528160148201526e5af43d82803e903d91602b57fd5bf360881b60288201526037816000f0949350505050565b60055460609067ffffffffffffffff811180156114f957600080fd5b50604051908082528060200260200182016040528015611523578160200160208202803683370190505b50905060005b60055481101561171a57600254611548906001600160a01b031661148b565b82828151811061155457fe5b6001600160a01b039283166020918202929092010152600b546060916115a69161157e9116611721565b6005848154811061158b57fe5b60009182526020909120015460065460075460ff16886107a3565b90508282815181106115b457fe5b60200260200101516001600160a01b031663f6d2ee86868384600c60149054906101000a900460ff166040518563ffffffff1660e01b815260040180856001600160a01b0316815260200180602001806020018460ff168152602001838103835286818151815260200191508051906020019080838360005b8381101561164557818101518382015260200161162d565b50505050905090810190601f1680156116725780820380516001836020036101000a031916815260200191505b50838103825285518152855160209182019187019080838360005b838110156116a557818101518382015260200161168d565b50505050905090810190601f1680156116d25780820380516001836020036101000a031916815260200191505b509650505050505050600060405180830381600087803b1580156116f557600080fd5b505af1158015611709573d6000803e3d6000fd5b505060019093019250611529915050565b5092915050565b606061172c82610ad3565b15611751575060408051808201909152600381526208aa8960eb1b6020820152610adf565b60408051600481526024810182526020810180516001600160e01b03166395d89b4160e01b178152915181516000936060936001600160a01b03881693614e2093919290918291908083835b602083106117bc5780518252601f19909201916020918201910161179d565b6001836020036101000a0380198251168184511680821785525050505050509050019150506000604051808303818686fa925050503d806000811461181d576040519150601f19603f3d011682016040523d82523d6000602084013e611822565b606091505b5091509150816118fc5760408051600481526024810182526020810180516001600160e01b0316631eedf1af60e31b178152915181516001600160a01b03881693614e209392918291908083835b6020831061188f5780518252601f199092019160209182019101611870565b6001836020036101000a0380198251168184511680821785525050505050509050019150506000604051808303818686fa925050503d80600081146118f0576040519150601f19603f3d011682016040523d82523d6000602084013e6118f5565b606091505b5090925090505b81801561190b57506060815110155b15611a285760008082806020019051604081101561192857600080fd5b5080516020918201519093509150821480156119445750600081115b801561195257506101008111155b15611a255782806020019051602081101561196c57600080fd5b8101908080516040519392919084600160201b82111561198b57600080fd5b9083019060208201858111156119a057600080fd5b8251600160201b8111828201881017156119b957600080fd5b82525081516020918201929091019080838360005b838110156119e65781810151838201526020016119ce565b50505050905090810190601f168015611a135780820380516001836020036101000a031916815260200191505b50604052505050945050505050610adf565b50505b818015611a36575080516020145b15611b4b5760005b815181108015611a6c5750602060f81b828281518110611a5a57fe5b01602001516001600160f81b03191610155b8015611a965750607e60f81b828281518110611a8457fe5b01602001516001600160f81b03191611155b15611aa357600101611a3e565b8015611b495760608167ffffffffffffffff81118015611ac257600080fd5b506040519080825280601f01601f191660200182016040528015611aed576020820181803683370190505b50905060005b82811015611b3d57838181518110611b0757fe5b602001015160f81c60f81b828281518110611b1e57fe5b60200101906001600160f81b031916908160001a905350600101611af3565b509350610adf92505050565b505b611b5484611d18565b949350505050565b60008080836226496581018262023ab1600483020590506004600362023ab18302010590910390600062164b09610fa0600185010205905060046105b58202058303601f019250600061098f8460500281611bb357fe5b0590506000605061098f83020585039050600b820560301994909401606402929092018301996002600c90940290910392909201975095509350505050565b6000611c3483836040518060400160405280601881526020017f536166654d6174683a206d6f64756c6f206279207a65726f0000000000000000815250611d4e565b9392505050565b6000611c3483836040518060400160405280601a81526020017f536166654d6174683a206469766973696f6e206279207a65726f000000000000815250611ded565b60608083830367ffffffffffffffff81118015611c9957600080fd5b506040519080825280601f01601f191660200182016040528015611cc4576020820181803683370190505b50905060005b84840381101561131a578581860181518110611ce257fe5b602001015160f81c60f81b828281518110611cf957fe5b60200101906001600160f81b031916908160001a905350600101611cca565b60606112428260405160200180826001600160a01b031660601b8152601401915050604051602081830303815290604052611e52565b60008183611dda5760405162461bcd60e51b81526004018080602001828103825283818151815260200191508051906020019080838360005b83811015611d9f578181015183820152602001611d87565b50505050905090810190601f168015611dcc5780820380516001836020036101000a031916815260200191505b509250505060405180910390fd5b50828481611de457fe5b06949350505050565b60008183611e3c5760405162461bcd60e51b8152602060048201818152835160248401528351909283926044909101919085019080838360008315611d9f578181015183820152602001611d87565b506000838581611e4857fe5b0495945050505050565b606080825160020260020167ffffffffffffffff81118015611e7357600080fd5b506040519080825280601f01601f191660200182016040528015611e9e576020820181803683370190505b509050600360fc1b81600081518110611eb357fe5b60200101906001600160f81b031916908160001a905350600f60fb1b81600181518110611edc57fe5b60200101906001600160f81b031916908160001a905350600260005b8451811015611fbf5760006004868381518110611f1157fe5b602001015160f81c60f81b60f81c60ff16901c60ff1690506000868381518110611f3757fe5b60209101015160f81c600f169050600a8204602702826030010160f81b858580600101965081518110611f6657fe5b60200101906001600160f81b031916908160001a905350600a8104602702816030010160f81b858580600101965081518110611f9e57fe5b60200101906001600160f81b031916908160001a9053505050600101611ef8565b50909392505050565b828054828255906000526020600020908101928215612003579160200282015b82811115612003578251825591602001919060010190611fe8565b5061200f929150612013565b5090565b5b8082111561200f576000815560010161201456fea2646970667358221220e3d90c82d3549ee16a8bc0c1ca9565abcd69d0cd1be3ec85d5391d6020f1527964736f6c634300060c00336f7074696f6e546f6b656e4c69626172792073686f756c64206e6f74206265206164647265737320306f7074696f6e4d61726b65744c6962726172792073686f756c64206e6f7420626520616464726573732030"}}