{"compiler":"v0.6.12+commit.27d51765","opcodeHash":"0xed60cf652e4eb58829088a60571877e0b4337df22b868fb9b2756fd311eea3d6","metalessHash":"0xe1d2a3145aea63466085cb8384e8f58ddb479cd8268d86ef56acaedf89c66603","runtimeHash":"0x63404cd73d40243806cc43a0fc3710893eb401b904a45925fa56098ac0b7a815","encodedMetadata":[{"ipfs":"/ipfs/QmWRTBqaqvJLxMwJoEG5ZkwoE1FgE2c1jpaehcFxJDDRCV","solc":"0.6.12"}],"abi":[{"inputs":[],"stateMutability":"nonpayable","type":"constructor"},{"inputs":[{"internalType":"uint256","name":"_amount","type":"uint256"},{"internalType":"uint256","name":"_lock","type":"uint256"}],"name":"lockToken","outputs":[],"stateMutability":"nonpayable","type":"function"},{"inputs":[{"internalType":"address","name":"","type":"address"},{"internalType":"uint256","name":"","type":"uint256"}],"name":"userToTokenLocks","outputs":[{"internalType":"address","name":"owner","type":"address"},{"internalType":"uint256","name":"amount","type":"uint256"},{"internalType":"uint256","name":"unlockDate","type":"uint256"}],"stateMutability":"view","type":"function"},{"inputs":[{"internalType":"uint256","name":"_index","type":"uint256"}],"name":"withdrawLockedToken","outputs":[],"stateMutability":"nonpayable","type":"function"}],"bytecode":{"object":"608060405234801561001057600080fd5b50732bbf4f7b8ab300db01d45662769821da6e400ef46000806101000a81548173ffffffffffffffffffffffffffffffffffffffff021916908373ffffffffffffffffffffffffffffffffffffffff1602179055506106f8806100746000396000f3fe608060405234801561001057600080fd5b50600436106100415760003560e01c80638d01857b146100465780638e48c01614610074578063baa34110146100fa575b600080fd5b6100726004803603602081101561005c57600080fd5b8101908080359060200190929190505050610132565b005b6100c06004803603604081101561008a57600080fd5b81019080803573ffffffffffffffffffffffffffffffffffffffff169060200190929190803590602001909291905050506103ea565b604051808473ffffffffffffffffffffffffffffffffffffffff168152602001838152602001828152602001935050505060405180910390f35b6101306004803603604081101561011057600080fd5b81019080803590602001909291908035906020019092919050505061044e565b005b61013a61068b565b600160003373ffffffffffffffffffffffffffffffffffffffff1673ffffffffffffffffffffffffffffffffffffffff168152602001908152602001600020828154811061018457fe5b90600052602060002090600302016040518060600160405290816000820160009054906101000a900473ffffffffffffffffffffffffffffffffffffffff1673ffffffffffffffffffffffffffffffffffffffff1673ffffffffffffffffffffffffffffffffffffffff1681526020016001820154815260200160028201548152505090508060400151421015610283576040517f08c379a000000000000000000000000000000000000000000000000000000000815260040180806020018281038252601a8152602001807f556e6c6f636b2064617465206e6f74207061737365642079657400000000000081525060200191505060405180910390fd5b60008054906101000a900473ffffffffffffffffffffffffffffffffffffffff1673ffffffffffffffffffffffffffffffffffffffff1663a9059cbb3383602001516040518363ffffffff1660e01b8152600401808373ffffffffffffffffffffffffffffffffffffffff16815260200182815260200192505050602060405180830381600087803b15801561031857600080fd5b505af115801561032c573d6000803e3d6000fd5b505050506040513d602081101561034257600080fd5b810190808051906020019092919050505050600160003373ffffffffffffffffffffffffffffffffffffffff1673ffffffffffffffffffffffffffffffffffffffff168152602001908152602001600020828154811061039e57fe5b9060005260206000209060030201600080820160006101000a81549073ffffffffffffffffffffffffffffffffffffffff02191690556001820160009055600282016000905550505050565b6001602052816000526040600020818154811061040357fe5b9060005260206000209060030201600091509150508060000160009054906101000a900473ffffffffffffffffffffffffffffffffffffffff16908060010154908060020154905083565b60008111801561045e5750600481105b61046757600080fd5b60008054906101000a900473ffffffffffffffffffffffffffffffffffffffff1673ffffffffffffffffffffffffffffffffffffffff166323b872dd3330856040518463ffffffff1660e01b8152600401808473ffffffffffffffffffffffffffffffffffffffff1681526020018373ffffffffffffffffffffffffffffffffffffffff1681526020018281526020019350505050602060405180830381600087803b15801561051657600080fd5b505af115801561052a573d6000803e3d6000fd5b505050506040513d602081101561054057600080fd5b8101908080519060200190929190505050506000600182141561056857640757ee3500420190505b600282141561057c57640eaf43d380420190505b600382141561059057641607320880420190505b600160003373ffffffffffffffffffffffffffffffffffffffff1673ffffffffffffffffffffffffffffffffffffffff16815260200190815260200160002060405180606001604052803373ffffffffffffffffffffffffffffffffffffffff16815260200185815260200183815250908060018154018082558091505060019003906000526020600020906003020160009091909190915060008201518160000160006101000a81548173ffffffffffffffffffffffffffffffffffffffff021916908373ffffffffffffffffffffffffffffffffffffffff16021790555060208201518160010155604082015181600201555050505050565b6040518060600160405280600073ffffffffffffffffffffffffffffffffffffffff1681526020016000815260200160008152509056fea26469706673582212204934c7cf83888ec84f0f5f7f59f88a3325f4c10a534acc0f146474cc558f2f9564736f6c634300060c0033"}}