{"compiler":"v0.6.6+commit.6c089d02","opcodeHash":"0xd8b13ecf4b46fb16314c3dddc0edb839d2389b7078c7ccd04834302056e8a6d8","metalessHash":"0x208cad9db68a10e31748d6f0c6f027f0cb33b84418a5948326b580e4fb7186e7","runtimeHash":"0x9d10d1a798f534afe7d860e0f572cb3b4eb319fa637cde094db89b44b42397eb","encodedMetadata":[{"ipfs":"/ipfs/QmfFhXT9TGT7W1YXcAueu7TYeS2VRxf7PYuyic86kXYXEw","solc":"0.6.6"}],"abi":[{"inputs":[],"stateMutability":"payable","type":"constructor"},{"inputs":[],"name":"DAI","outputs":[{"internalType":"address","name":"","type":"address"}],"stateMutability":"view","type":"function"},{"inputs":[],"name":"SAI","outputs":[{"internalType":"address","name":"","type":"address"}],"stateMutability":"view","type":"function"},{"inputs":[],"name":"USDC","outputs":[{"internalType":"address","name":"","type":"address"}],"stateMutability":"view","type":"function"},{"inputs":[],"name":"WETH","outputs":[{"internalType":"address","name":"","type":"address"}],"stateMutability":"view","type":"function"},{"inputs":[{"internalType":"address","name":"token","type":"address"}],"name":"balanceOf","outputs":[{"internalType":"uint256","name":"balance","type":"uint256"}],"stateMutability":"view","type":"function"},{"inputs":[{"internalType":"address","name":"","type":"address"},{"components":[{"internalType":"address","name":"owner","type":"address"},{"internalType":"uint256","name":"number","type":"uint256"}],"internalType":"struct Structs.Info","name":"","type":"tuple"},{"internalType":"bytes","name":"_data","type":"bytes"}],"name":"callFunction","outputs":[],"stateMutability":"nonpayable","type":"function"},{"inputs":[{"internalType":"address","name":"","type":"address"}],"name":"currencies","outputs":[{"internalType":"uint256","name":"","type":"uint256"}],"stateMutability":"view","type":"function"},{"inputs":[],"name":"dBUSD","outputs":[{"internalType":"address","name":"","type":"address"}],"stateMutability":"view","type":"function"},{"inputs":[],"name":"dDAI","outputs":[{"internalType":"address","name":"","type":"address"}],"stateMutability":"view","type":"function"},{"inputs":[],"name":"dETHADDR","outputs":[{"internalType":"address","name":"","type":"address"}],"stateMutability":"view","type":"function"},{"inputs":[],"name":"dHBTC","outputs":[{"internalType":"address","name":"","type":"address"}],"stateMutability":"view","type":"function"},{"inputs":[],"name":"dSAI","outputs":[{"internalType":"address","name":"","type":"address"}],"stateMutability":"view","type":"function"},{"inputs":[],"name":"dUSDC","outputs":[{"internalType":"address","name":"","type":"address"}],"stateMutability":"view","type":"function"},{"inputs":[],"name":"dUSDT","outputs":[{"internalType":"address","name":"","type":"address"}],"stateMutability":"view","type":"function"},{"inputs":[],"name":"dWBTC","outputs":[{"internalType":"address","name":"","type":"address"}],"stateMutability":"view","type":"function"},{"inputs":[{"internalType":"address","name":"tokenB","type":"address"}],"name":"getAmountBAndloop","outputs":[{"internalType":"uint256","name":"amountB","type":"uint256"},{"internalType":"uint256","name":"loop","type":"uint256"}],"stateMutability":"view","type":"function"},{"inputs":[{"internalType":"address","name":"_flashToken","type":"address"},{"internalType":"uint256","name":"_flashAmount","type":"uint256"},{"internalType":"uint8","name":"aid","type":"uint8"}],"name":"getFlashloan","outputs":[],"stateMutability":"nonpayable","type":"function"},{"inputs":[{"internalType":"uint16","name":"marketID","type":"uint16"}],"name":"getMarketPair","outputs":[{"internalType":"address","name":"tokenA","type":"address"},{"internalType":"address","name":"tokenB","type":"address"}],"stateMutability":"view","type":"function"},{"inputs":[{"internalType":"address","name":"token","type":"address"}],"name":"isDDEXETHAddr","outputs":[{"internalType":"bool","name":"","type":"bool"}],"stateMutability":"view","type":"function"},{"inputs":[{"internalType":"address","name":"tokenA","type":"address"},{"internalType":"uint256","name":"amountA","type":"uint256"},{"internalType":"address","name":"tokenB","type":"address"},{"internalType":"uint16","name":"marketID","type":"uint16"},{"internalType":"uint256","name":"loop","type":"uint256"}],"name":"looprc","outputs":[],"stateMutability":"nonpayable","type":"function"},{"inputs":[],"name":"maxLoop","outputs":[{"internalType":"uint256","name":"","type":"uint256"}],"stateMutability":"view","type":"function"},{"inputs":[{"internalType":"uint256","name":"loop","type":"uint256"}],"name":"setMaxLoop","outputs":[],"stateMutability":"nonpayable","type":"function"},{"inputs":[{"internalType":"address","name":"token","type":"address"}],"name":"tokenToMarketId","outputs":[{"internalType":"uint256","name":"","type":"uint256"}],"stateMutability":"view","type":"function"},{"inputs":[{"internalType":"address","name":"token","type":"address"},{"internalType":"uint256","name":"amount","type":"uint256"}],"name":"withdraw","outputs":[],"stateMutability":"nonpayable","type":"function"},{"stateMutability":"payable","type":"receive"}],"bytecode":{"object":"6080604052731e0447b19bb6ecfdae1e4ae1694b0c3659614e4e6000806101000a81548173ffffffffffffffffffffffffffffffffffffffff021916908373ffffffffffffffffffffffffffffffffffffffff16021790555073c02aaa39b223fe8d0a0e5c4f27ead9083c756cc2600160006101000a81548173ffffffffffffffffffffffffffffffffffffffff021916908373ffffffffffffffffffffffffffffffffffffffff1602179055507389d24a6b4ccb1b6faa2625fe562bdd9a23260359600260006101000a81548173ffffffffffffffffffffffffffffffffffffffff021916908373ffffffffffffffffffffffffffffffffffffffff16021790555073a0b86991c6218b36c1d19d4a2e9eb0ce3606eb48600360006101000a81548173ffffffffffffffffffffffffffffffffffffffff021916908373ffffffffffffffffffffffffffffffffffffffff160217905550736b175474e89094c44da98b954eedeac495271d0f600460006101000a81548173ffffffffffffffffffffffffffffffffffffffff021916908373ffffffffffffffffffffffffffffffffffffffff16021790555073241e82c79452f51fbfc89fac6d912e021db1a3b7600660006101000a81548173ffffffffffffffffffffffffffffffffffffffff021916908373ffffffffffffffffffffffffffffffffffffffff160217905550600e600760006101000a81548173ffffffffffffffffffffffffffffffffffffffff021916908373ffffffffffffffffffffffffffffffffffffffff16021790555073dac17f958d2ee523a2206206994597c13d831ec7600860006101000a81548173ffffffffffffffffffffffffffffffffffffffff021916908373ffffffffffffffffffffffffffffffffffffffff1602179055507389d24a6b4ccb1b6faa2625fe562bdd9a23260359600960006101000a81548173ffffffffffffffffffffffffffffffffffffffff021916908373ffffffffffffffffffffffffffffffffffffffff160217905550732260fac5e5542a773aa44fbcfedf7c193bc2c599600a60006101000a81548173ffffffffffffffffffffffffffffffffffffffff021916908373ffffffffffffffffffffffffffffffffffffffff160217905550736b175474e89094c44da98b954eedeac495271d0f600b60006101000a81548173ffffffffffffffffffffffffffffffffffffffff021916908373ffffffffffffffffffffffffffffffffffffffff16021790555073a0b86991c6218b36c1d19d4a2e9eb0ce3606eb48600c60006101000a81548173ffffffffffffffffffffffffffffffffffffffff021916908373ffffffffffffffffffffffffffffffffffffffff160217905550730316eb71485b0ab14103307bf65a021042c6d380600d60006101000a81548173ffffffffffffffffffffffffffffffffffffffff021916908373ffffffffffffffffffffffffffffffffffffffff160217905550734fabb145d64652a948d72533023f6e7a623c7c53600e60006101000a81548173ffffffffffffffffffffffffffffffffffffffff021916908373ffffffffffffffffffffffffffffffffffffffff1602179055506001600f55600160056000600160009054906101000a900473ffffffffffffffffffffffffffffffffffffffff1673ffffffffffffffffffffffffffffffffffffffff1673ffffffffffffffffffffffffffffffffffffffff16815260200190815260200160002081905550600260056000600260009054906101000a900473ffffffffffffffffffffffffffffffffffffffff1673ffffffffffffffffffffffffffffffffffffffff1673ffffffffffffffffffffffffffffffffffffffff16815260200190815260200160002081905550600360056000600360009054906101000a900473ffffffffffffffffffffffffffffffffffffffff1673ffffffffffffffffffffffffffffffffffffffff1673ffffffffffffffffffffffffffffffffffffffff16815260200190815260200160002081905550600460056000600460009054906101000a900473ffffffffffffffffffffffffffffffffffffffff1673ffffffffffffffffffffffffffffffffffffffff1673ffffffffffffffffffffffffffffffffffffffff1681526020019081526020016000208190555033601060006101000a81548173ffffffffffffffffffffffffffffffffffffffff021916908373ffffffffffffffffffffffffffffffffffffffff16021790555061320a806106876000396000f3fe60806040526004361061014f5760003560e01c80638b418713116100b6578063b82687881161006f578063b82687881461048f578063b8d5efee146104cc578063e0bab4c41461050a578063ed4fe58914610535578063f3fef3a314610560578063fd3560921461058957610156565b80638b418713146103915780639b3bff30146103ba5780639e8acda9146103e5578063a9639be01461040e578063ad5c464814610439578063b73ba0a71461046457610156565b806370a082311161010857806370a082311461026b5780637b4d6587146102a85780637caf9ae5146102d35780637ff1e2731461031057806386cb67431461033b57806389a302711461036657610156565b806305f6711f1461015b578063122d42c3146101845780634b3fb7f8146101af57806351f4ff7a146101da5780636005035d146102055780636036cba31461022e57610156565b3661015657005b600080fd5b34801561016757600080fd5b50610182600480360381019061017d919061266e565b6105c7565b005b34801561019057600080fd5b506101996105e5565b6040516101a69190612bfe565b60405180910390f35b3480156101bb57600080fd5b506101c461060b565b6040516101d19190612bfe565b60405180910390f35b3480156101e657600080fd5b506101ef610631565b6040516101fc9190612bfe565b60405180910390f35b34801561021157600080fd5b5061022c60048036038101906102279190612556565b610657565b005b34801561023a57600080fd5b5061025560048036038101906102509190612422565b610dda565b6040516102629190612e45565b60405180910390f35b34801561027757600080fd5b50610292600480360381019061028d9190612422565b610df2565b60405161029f9190612e45565b60405180910390f35b3480156102b457600080fd5b506102bd610ec0565b6040516102ca9190612bfe565b60405180910390f35b3480156102df57600080fd5b506102fa60048036038101906102f59190612422565b610ee6565b6040516103079190612d93565b60405180910390f35b34801561031c57600080fd5b50610325610f40565b6040516103329190612bfe565b60405180910390f35b34801561034757600080fd5b50610350610f66565b60405161035d9190612bfe565b60405180910390f35b34801561037257600080fd5b5061037b610f8c565b6040516103889190612bfe565b60405180910390f35b34801561039d57600080fd5b506103b860048036038101906103b391906124ae565b610fb2565b005b3480156103c657600080fd5b506103cf61148f565b6040516103dc9190612bfe565b60405180910390f35b3480156103f157600080fd5b5061040c600480360381019061040791906125cd565b6114b5565b005b34801561041a57600080fd5b5061042361157e565b6040516104309190612bfe565b60405180910390f35b34801561044557600080fd5b5061044e6115a4565b60405161045b9190612bfe565b60405180910390f35b34801561047057600080fd5b506104796115ca565b6040516104869190612bfe565b60405180910390f35b34801561049b57600080fd5b506104b660048036038101906104b19190612422565b6115f0565b6040516104c39190612e45565b60405180910390f35b3480156104d857600080fd5b506104f360048036038101906104ee9190612422565b611685565b604051610501929190612e60565b60405180910390f35b34801561051657600080fd5b5061051f6118a4565b60405161052c9190612bfe565b60405180910390f35b34801561054157600080fd5b5061054a6118ca565b6040516105579190612e45565b60405180910390f35b34801561056c57600080fd5b506105876004803603810190610582919061251a565b6118d0565b005b34801561059557600080fd5b506105b060048036038101906105ab9190612645565b611abb565b6040516105be929190612c5d565b60405180910390f35b80600f819055506001600f5410156105e2576001600f819055505b50565b600c60009054906101000a900473ffffffffffffffffffffffffffffffffffffffff1681565b600260009054906101000a900473ffffffffffffffffffffffffffffffffffffffff1681565b600d60009054906101000a900473ffffffffffffffffffffffffffffffffffffffff1681565b6000600190505b818111610dd2576000600660009054906101000a900473ffffffffffffffffffffffffffffffffffffffff1673ffffffffffffffffffffffffffffffffffffffff1663101424d9866040518263ffffffff1660e01b81526004016106c29190612bfe565b60206040518083038186803b1580156106da57600080fd5b505afa1580156106ee573d6000803e3d6000fd5b505050506040513d601f19601f820116820180604052508101906107129190612697565b90506000600760009054906101000a900473ffffffffffffffffffffffffffffffffffffffff1673ffffffffffffffffffffffffffffffffffffffff168673ffffffffffffffffffffffffffffffffffffffff1614156107ab57600660009054906101000a900473ffffffffffffffffffffffffffffffffffffffff1673ffffffffffffffffffffffffffffffffffffffff1631610857565b8573ffffffffffffffffffffffffffffffffffffffff166370a08231600660009054906101000a900473ffffffffffffffffffffffffffffffffffffffff166040518263ffffffff1660e01b81526004016108069190612bfe565b60206040518083038186803b15801561081e57600080fd5b505afa158015610832573d6000803e3d6000fd5b505050506040513d601f19601f820116820180604052508101906108569190612697565b5b90506000828210610879576103e86103d484028161087157fe5b04905061088c565b6103e86103d483028161088857fe5b0490505b600081141561089d57505050610dd2565b6060600567ffffffffffffffff811180156108b757600080fd5b506040519080825280602002602001820160405280156108f157816020015b6108de6121e5565b8152602001906001900390816108d65790505b5090506108fc6121e5565b60008160000190600681111561090e57fe5b9081600681111561091b57fe5b815250508a8a604051602001610932929190612ccc565b6040516020818303038152906040528160200181905250808260008151811061095757fe5b60200260200101819052505061096b6121e5565b60038160000190600681111561097d57fe5b9081600681111561098a57fe5b815250508789846040516020016109a393929190612e0e565b604051602081830303815290604052816020018190525080826001815181106109c857fe5b6020026020010181905250506109dc6121e5565b6109e461220a565b6001816000019060018111156109f657fe5b90816001811115610a0357fe5b8152505088816020019061ffff16908161ffff168152505030816040019073ffffffffffffffffffffffffffffffffffffffff16908173ffffffffffffffffffffffffffffffffffffffff1681525050610a5b61220a565b600081600001906001811115610a6d57fe5b90816001811115610a7a57fe5b815250506000816020019061ffff16908161ffff168152505030816040019073ffffffffffffffffffffffffffffffffffffffff16908173ffffffffffffffffffffffffffffffffffffffff1681525050600283600001906006811115610add57fe5b90816006811115610aea57fe5b815250508a828287604051602001610b059493929190612c86565b60405160208183030381529060405283602001819052508284600281518110610b2a57fe5b6020026020010181905250505050610b406121e5565b600181600001906006811115610b5257fe5b90816006811115610b5f57fe5b815250508883604051602001610b76929190612ccc565b60405160208183030381529060405281602001819052508082600381518110610b9b57fe5b602002602001018190525050610baf6121e5565b600181600001906006811115610bc157fe5b90816006811115610bce57fe5b815250508a8a604051602001610be5929190612ccc565b60405160208183030381529060405281602001819052508082600481518110610c0a57fe5b6020026020010181905250506000600760009054906101000a900473ffffffffffffffffffffffffffffffffffffffff1673ffffffffffffffffffffffffffffffffffffffff168b73ffffffffffffffffffffffffffffffffffffffff1614610c74576000610c76565b895b90506000811415610d32578a73ffffffffffffffffffffffffffffffffffffffff1663095ea7b3600660009054906101000a900473ffffffffffffffffffffffffffffffffffffffff168c6040518363ffffffff1660e01b8152600401610cde929190612ccc565b602060405180830381600087803b158015610cf857600080fd5b505af1158015610d0c573d6000803e3d6000fd5b505050506040513d601f19601f82011682018060405250810190610d30919061261c565b505b600660009054906101000a900473ffffffffffffffffffffffffffffffffffffffff1673ffffffffffffffffffffffffffffffffffffffff16638059cf3b82846040518363ffffffff1660e01b8152600401610d8e9190612d71565b6000604051808303818588803b158015610da757600080fd5b505af1158015610dbb573d6000803e3d6000fd5b50505050505050838060010194505050505061065e565b505050505050565b60056020528060005260406000206000915090505481565b60008073ffffffffffffffffffffffffffffffffffffffff168273ffffffffffffffffffffffffffffffffffffffff1614610eb7578173ffffffffffffffffffffffffffffffffffffffff166370a08231306040518263ffffffff1660e01b8152600401610e609190612c19565b60206040518083038186803b158015610e7857600080fd5b505afa158015610e8c573d6000803e3d6000fd5b505050506040513d601f19601f82011682018060405250810190610eb09190612697565b9050610ebb565b4790505b919050565b600b60009054906101000a900473ffffffffffffffffffffffffffffffffffffffff1681565b6000600760009054906101000a900473ffffffffffffffffffffffffffffffffffffffff1673ffffffffffffffffffffffffffffffffffffffff168273ffffffffffffffffffffffffffffffffffffffff16149050919050565b600960009054906101000a900473ffffffffffffffffffffffffffffffffffffffff1681565b600760009054906101000a900473ffffffffffffffffffffffffffffffffffffffff1681565b600360009054906101000a900473ffffffffffffffffffffffffffffffffffffffff1681565b6000809054906101000a900473ffffffffffffffffffffffffffffffffffffffff1673ffffffffffffffffffffffffffffffffffffffff163373ffffffffffffffffffffffffffffffffffffffff1614611041576040517f08c379a000000000000000000000000000000000000000000000000000000000815260040161103890612dae565b60405180910390fd5b6000806000808585810190611056919061244b565b935093509350935060008473ffffffffffffffffffffffffffffffffffffffff166370a08231306040518263ffffffff1660e01b81526004016110999190612c19565b60206040518083038186803b1580156110b157600080fd5b505afa1580156110c5573d6000803e3d6000fd5b505050506040513d601f19601f820116820180604052508101906110e99190612697565b9050838382031461112f576040517f08c379a000000000000000000000000000000000000000000000000000000000815260040161112690612dce565b60405180910390fd5b600160009054906101000a900473ffffffffffffffffffffffffffffffffffffffff1673ffffffffffffffffffffffffffffffffffffffff168573ffffffffffffffffffffffffffffffffffffffff16141561121357600160009054906101000a900473ffffffffffffffffffffffffffffffffffffffff1673ffffffffffffffffffffffffffffffffffffffff16632e1a7d4d856040518263ffffffff1660e01b81526004016111e09190612e45565b600060405180830381600087803b1580156111fa57600080fd5b505af115801561120e573d6000803e3d6000fd5b505050505b60008060018460ff16141561125757600080905061123081611abb565b5080935050600061124084611685565b9150506112508489868585610657565b5050611320565b60028460ff16141561129b57600080905061127181611abb565b8093508194505050600061128483611685565b9150506112948489858585610657565b505061131f565b60038460ff1614156112de576000600490506112b681611abb565b90508092505060006112c783611685565b9150506112d78389858585610657565b505061131e565b60048460ff16141561131d576000600390506112f981611abb565b905080925050600061130a83611685565b91505061131a8389858585610657565b50505b5b5b5b600160009054906101000a900473ffffffffffffffffffffffffffffffffffffffff1673ffffffffffffffffffffffffffffffffffffffff168773ffffffffffffffffffffffffffffffffffffffff16141561144257600160009054906101000a900473ffffffffffffffffffffffffffffffffffffffff1673ffffffffffffffffffffffffffffffffffffffff1663d0e30db060c888016040518263ffffffff1660e01b81526004016000604051808303818588803b1580156113e357600080fd5b505af11580156113f7573d6000803e3d6000fd5b505050505061140581610ee6565b15611427576114226000614e2061141c6000610df2565b036118d0565b61143d565b61143c8160c861143684610df2565b036118d0565b5b611482565b61144b81610ee6565b1561146957611464600061145f6000610df2565b6118d0565b611481565b6114808160c88861147985610df2565b03036118d0565b5b5b5050505050505050505050565b600860009054906101000a900473ffffffffffffffffffffffffffffffffffffffff1681565b60008373ffffffffffffffffffffffffffffffffffffffff166370a08231306040518263ffffffff1660e01b81526004016114f09190612c19565b60206040518083038186803b15801561150857600080fd5b505afa15801561151c573d6000803e3d6000fd5b505050506040513d601f19601f820116820180604052508101906115409190612697565b905060608484838560405160200161155b9493929190612cf5565b6040516020818303038152906040529050611577858583611d48565b5050505050565b600a60009054906101000a900473ffffffffffffffffffffffffffffffffffffffff1681565b600160009054906101000a900473ffffffffffffffffffffffffffffffffffffffff1681565b600e60009054906101000a900473ffffffffffffffffffffffffffffffffffffffff1681565b600080600560008473ffffffffffffffffffffffffffffffffffffffff1673ffffffffffffffffffffffffffffffffffffffff1681526020019081526020016000205490506000811415611679576040517f08c379a000000000000000000000000000000000000000000000000000000000815260040161167090612dee565b60405180910390fd5b60018103915050919050565b6000806000600660009054906101000a900473ffffffffffffffffffffffffffffffffffffffff1673ffffffffffffffffffffffffffffffffffffffff1663101424d9856040518263ffffffff1660e01b81526004016116e59190612bfe565b60206040518083038186803b1580156116fd57600080fd5b505afa158015611711573d6000803e3d6000fd5b505050506040513d601f19601f820116820180604052508101906117359190612697565b90506000600760009054906101000a900473ffffffffffffffffffffffffffffffffffffffff1673ffffffffffffffffffffffffffffffffffffffff168573ffffffffffffffffffffffffffffffffffffffff1614156117ce57600660009054906101000a900473ffffffffffffffffffffffffffffffffffffffff1673ffffffffffffffffffffffffffffffffffffffff163161187a565b8473ffffffffffffffffffffffffffffffffffffffff166370a08231600660009054906101000a900473ffffffffffffffffffffffffffffffffffffffff166040518263ffffffff1660e01b81526004016118299190612bfe565b60206040518083038186803b15801561184157600080fd5b505afa158015611855573d6000803e3d6000fd5b505050506040513d601f19601f820116820180604052508101906118799190612697565b5b9050819350600182828161188a57fe5b04019250600f54831061189d57600f5492505b5050915091565b600460009054906101000a900473ffffffffffffffffffffffffffffffffffffffff1681565b600f5481565b6000809050600073ffffffffffffffffffffffffffffffffffffffff168373ffffffffffffffffffffffffffffffffffffffff1614611a02578273ffffffffffffffffffffffffffffffffffffffff166370a08231306040518263ffffffff1660e01b81526004016119429190612c19565b60206040518083038186803b15801561195a57600080fd5b505afa15801561196e573d6000803e3d6000fd5b505050506040513d601f19601f820116820180604052508101906119929190612697565b9050601060009054906101000a900473ffffffffffffffffffffffffffffffffffffffff1673ffffffffffffffffffffffffffffffffffffffff166108fc839081150290604051600060405180830381858888f193505050501580156119fc573d6000803e3d6000fd5b50611ab6565b4790508273ffffffffffffffffffffffffffffffffffffffff1663a9059cbb601060009054906101000a900473ffffffffffffffffffffffffffffffffffffffff16846040518363ffffffff1660e01b8152600401611a62929190612c34565b602060405180830381600087803b158015611a7c57600080fd5b505af1158015611a90573d6000803e3d6000fd5b505050506040513d601f19601f82011682018060405250810190611ab4919061261c565b505b505050565b60008060008361ffff161415611b1a57600760009054906101000a900473ffffffffffffffffffffffffffffffffffffffff16600860009054906101000a900473ffffffffffffffffffffffffffffffffffffffff1691509150611d43565b60018361ffff161415611b7657600760009054906101000a900473ffffffffffffffffffffffffffffffffffffffff16600960009054906101000a900473ffffffffffffffffffffffffffffffffffffffff1691509150611d43565b60028361ffff161415611bd257600a60009054906101000a900473ffffffffffffffffffffffffffffffffffffffff16600860009054906101000a900473ffffffffffffffffffffffffffffffffffffffff1691509150611d43565b60038361ffff161415611c2e57600760009054906101000a900473ffffffffffffffffffffffffffffffffffffffff16600b60009054906101000a900473ffffffffffffffffffffffffffffffffffffffff1691509150611d43565b60048361ffff161415611c8a57600760009054906101000a900473ffffffffffffffffffffffffffffffffffffffff16600c60009054906101000a900473ffffffffffffffffffffffffffffffffffffffff1691509150611d43565b60058361ffff161415611ce657600d60009054906101000a900473ffffffffffffffffffffffffffffffffffffffff16600860009054906101000a900473ffffffffffffffffffffffffffffffffffffffff1691509150611d43565b60068361ffff161415611d4257600760009054906101000a900473ffffffffffffffffffffffffffffffffffffffff16600e60009054906101000a900473ffffffffffffffffffffffffffffffffffffffff1691509150611d43565b5b915091565b8273ffffffffffffffffffffffffffffffffffffffff1663095ea7b36000809054906101000a900473ffffffffffffffffffffffffffffffffffffffff16600285016040518363ffffffff1660e01b8152600401611da7929190612ccc565b602060405180830381600087803b158015611dc157600080fd5b505af1158015611dd5573d6000803e3d6000fd5b505050506040513d601f19601f82011682018060405250810190611df9919061261c565b506060600167ffffffffffffffff81118015611e1457600080fd5b50604051908082528060200260200182016040528015611e4e57816020015b611e3b612250565b815260200190600190039081611e335790505b5090506060600367ffffffffffffffff81118015611e6b57600080fd5b50604051908082528060200260200182016040528015611ea557816020015b611e92612280565b815260200190600190039081611e8a5790505b50905060405180604001604052803073ffffffffffffffffffffffffffffffffffffffff168152602001600081525082600081518110611ee157fe5b6020026020010181905250611ef46122ec565b6040518060800160405280600015158152602001600080811115611f1457fe5b8152602001600080811115611f2557fe5b8152602001868152509050611f38612280565b600181600001906008811115611f4a57fe5b90816008811115611f5757fe5b815250506000816020018181525050818160400181905250611f78876115f0565b816060018181525050308160a0019073ffffffffffffffffffffffffffffffffffffffff16908173ffffffffffffffffffffffffffffffffffffffff16815250508083600081518110611fc757fe5b6020026020010181905250611fda612280565b600881600001906008811115611fec57fe5b90816008811115611ff957fe5b815250506000816020018181525050308160a0019073ffffffffffffffffffffffffffffffffffffffff16908173ffffffffffffffffffffffffffffffffffffffff1681525050858160e00181905250808460018151811061205757fe5b602002602001018190525061206a612280565b6120726122ec565b604051806080016040528060011515815260200160008081111561209257fe5b81526020016000808111156120a357fe5b815260200160028b0181525090506000826000019060088111156120c357fe5b908160088111156120d057fe5b8152505060008260200181815250508082604001819052506120f18a6115f0565b826060018181525050308260a0019073ffffffffffffffffffffffffffffffffffffffff16908173ffffffffffffffffffffffffffffffffffffffff1681525050818660028151811061214057fe5b60200260200101819052506000809054906101000a900473ffffffffffffffffffffffffffffffffffffffff1673ffffffffffffffffffffffffffffffffffffffff1663a67a6a4588886040518363ffffffff1660e01b81526004016121a7929190612d3a565b600060405180830381600087803b1580156121c157600080fd5b505af11580156121d5573d6000803e3d6000fd5b5050505050505050505050505050565b6040518060400160405280600060068111156121fd57fe5b8152602001606081525090565b60405180606001604052806000600181111561222257fe5b8152602001600061ffff168152602001600073ffffffffffffffffffffffffffffffffffffffff1681525090565b6040518060400160405280600073ffffffffffffffffffffffffffffffffffffffff168152602001600081525090565b6040518061010001604052806000600881111561229957fe5b8152602001600081526020016122ad6122ec565b81526020016000815260200160008152602001600073ffffffffffffffffffffffffffffffffffffffff16815260200160008152602001606081525090565b604051806080016040528060001515815260200160008081111561230c57fe5b815260200160008081111561231d57fe5b8152602001600081525090565b6000813590506123398161314a565b92915050565b60008135905061234e81613161565b92915050565b60008151905061236381613178565b92915050565b60008083601f84011261237b57600080fd5b8235905067ffffffffffffffff81111561239457600080fd5b6020830191508360018202830111156123ac57600080fd5b9250929050565b6000604082840312156123c557600080fd5b81905092915050565b6000813590506123dd8161318f565b92915050565b6000813590506123f2816131a6565b92915050565b600081519050612407816131a6565b92915050565b60008135905061241c816131bd565b92915050565b60006020828403121561243457600080fd5b60006124428482850161232a565b91505092915050565b6000806000806080858703121561246157600080fd5b600061246f8782880161233f565b9450506020612480878288016123e3565b9350506040612491878288016123e3565b92505060606124a28782880161240d565b91505092959194509250565b600080600080608085870312156124c457600080fd5b60006124d28782880161232a565b94505060206124e3878288016123b3565b935050606085013567ffffffffffffffff81111561250057600080fd5b61250c87828801612369565b925092505092959194509250565b6000806040838503121561252d57600080fd5b600061253b8582860161232a565b925050602061254c858286016123e3565b9150509250929050565b600080600080600060a0868803121561256e57600080fd5b600061257c8882890161232a565b955050602061258d888289016123e3565b945050604061259e8882890161232a565b93505060606125af888289016123ce565b92505060806125c0888289016123e3565b9150509295509295909350565b6000806000606084860312156125e257600080fd5b60006125f08682870161232a565b9350506020612601868287016123e3565b92505060406126128682870161240d565b9150509250925092565b60006020828403121561262e57600080fd5b600061263c84828501612354565b91505092915050565b60006020828403121561265757600080fd5b6000612665848285016123ce565b91505092915050565b60006020828403121561268057600080fd5b600061268e848285016123e3565b91505092915050565b6000602082840312156126a957600080fd5b60006126b7848285016123f8565b91505092915050565b60006126cc83836129fd565b905092915050565b60006126e08383612b47565b60408301905092915050565b60006126f88383612b76565b905092915050565b61270981613035565b82525050565b61271881612f61565b82525050565b61272781612f61565b82525050565b600061273882612eb9565b6127428185612f0c565b93508360208202850161275485612e89565b8060005b85811015612790578484038952815161277185826126c0565b945061277c83612ee5565b925060208a01995050600181019050612758565b50829750879550505050505092915050565b60006127ad82612ec4565b6127b78185612f1d565b93506127c283612e99565b8060005b838110156127f35781516127da88826126d4565b97506127e583612ef2565b9250506001810190506127c6565b5085935050505092915050565b600061280b82612ecf565b6128158185612f2e565b93508360208202850161282785612ea9565b8060005b85811015612863578484038952815161284485826126ec565b945061284f83612eff565b925060208a0199505060018101905061282b565b50829750879550505050505092915050565b61287e81612f85565b82525050565b61288d81612f85565b82525050565b600061289e82612eda565b6128a88185612f3f565b93506128b88185602086016130c5565b6128c1816130f8565b840191505092915050565b6128d581613047565b82525050565b6128e481613059565b82525050565b6128f38161306b565b82525050565b6129028161307d565b82525050565b6129118161308f565b82525050565b6000612924602c83612f50565b91507f466c6173684c6f616e3a20636f756c642062652063616c6c656420627920447960008301527f447820706f6f6c206f6e6c7900000000000000000000000000000000000000006020830152604082019050919050565b600061298a601d83612f50565b91507f636f6e747261637420646964206e6f742067657420746865206c6f616e0000006000830152602082019050919050565b60006129ca601c83612f50565b91507f466c6173684c6f616e3a20556e737570706f7274656420746f6b656e000000006000830152602082019050919050565b600061016083016000830151612a1660008601826128cc565b506020830151612a296020860182612bd1565b506040830151612a3c6040860182612ab0565b506060830151612a4f60c0860182612bd1565b506080830151612a6260e0860182612bd1565b5060a0830151612a7661010086018261270f565b5060c0830151612a8a610120860182612bd1565b5060e0830151848203610140860152612aa38282612893565b9150508091505092915050565b608082016000820151612ac66000850182612875565b506020820151612ad960208501826128db565b506040820151612aec60408501826128ea565b506060820151612aff6060850182612bd1565b50505050565b606082016000820151612b1b60008501826128f9565b506020820151612b2e6020850182612bb3565b506040820151612b41604085018261270f565b50505050565b604082016000820151612b5d600085018261270f565b506020820151612b706020850182612bd1565b50505050565b6000604083016000830151612b8e6000860182612908565b5060208301518482036020860152612ba68282612893565b9150508091505092915050565b612bbc81612ff0565b82525050565b612bcb81612ff0565b82525050565b612bda8161301e565b82525050565b612be98161301e565b82525050565b612bf881613028565b82525050565b6000602082019050612c13600083018461271e565b92915050565b6000602082019050612c2e6000830184612700565b92915050565b6000604082019050612c496000830185612700565b612c566020830184612be0565b9392505050565b6000604082019050612c72600083018561271e565b612c7f602083018461271e565b9392505050565b600061010082019050612c9c600083018761271e565b612ca96020830186612b05565b612cb66080830185612b05565b612cc360e0830184612be0565b95945050505050565b6000604082019050612ce1600083018561271e565b612cee6020830184612be0565b9392505050565b6000608082019050612d0a600083018761271e565b612d176020830186612be0565b612d246040830185612be0565b612d316060830184612bef565b95945050505050565b60006040820190508181036000830152612d5481856127a2565b90508181036020830152612d68818461272d565b90509392505050565b60006020820190508181036000830152612d8b8184612800565b905092915050565b6000602082019050612da86000830184612884565b92915050565b60006020820190508181036000830152612dc781612917565b9050919050565b60006020820190508181036000830152612de78161297d565b9050919050565b60006020820190508181036000830152612e07816129bd565b9050919050565b6000606082019050612e236000830186612bc2565b612e30602083018561271e565b612e3d6040830184612be0565b949350505050565b6000602082019050612e5a6000830184612be0565b92915050565b6000604082019050612e756000830185612be0565b612e826020830184612be0565b9392505050565b6000819050602082019050919050565b6000819050602082019050919050565b6000819050602082019050919050565b600081519050919050565b600081519050919050565b600081519050919050565b600081519050919050565b6000602082019050919050565b6000602082019050919050565b6000602082019050919050565b600082825260208201905092915050565b600082825260208201905092915050565b600082825260208201905092915050565b600082825260208201905092915050565b600082825260208201905092915050565b6000612f6c82612ffe565b9050919050565b6000612f7e82612ffe565b9050919050565b60008115159050919050565b6000819050612f9f82613109565b919050565b6000819050612fb282613116565b919050565b6000819050612fc582613123565b919050565b6000819050612fd882613130565b919050565b6000819050612feb8261313d565b919050565b600061ffff82169050919050565b600073ffffffffffffffffffffffffffffffffffffffff82169050919050565b6000819050919050565b600060ff82169050919050565b6000613040826130a1565b9050919050565b600061305282612f91565b9050919050565b600061306482612fa4565b9050919050565b600061307682612fb7565b9050919050565b600061308882612fca565b9050919050565b600061309a82612fdd565b9050919050565b60006130ac826130b3565b9050919050565b60006130be82612ffe565b9050919050565b60005b838110156130e35780820151818401526020810190506130c8565b838111156130f2576000848401525b50505050565b6000601f19601f8301169050919050565b6009811061311357fe5b50565b6001811061312057fe5b50565b6001811061312d57fe5b50565b6002811061313a57fe5b50565b6007811061314757fe5b50565b61315381612f61565b811461315e57600080fd5b50565b61316a81612f73565b811461317557600080fd5b50565b61318181612f85565b811461318c57600080fd5b50565b61319881612ff0565b81146131a357600080fd5b50565b6131af8161301e565b81146131ba57600080fd5b50565b6131c681613028565b81146131d157600080fd5b5056fea264697066735822122083092f1b0326e150981d6127db73f90ac2f0a72151e8540bacb66435ad9c236664736f6c63430006060033"}}