{"compiler":"v0.7.6+commit.7338295f","opcodeHash":"0x095c24ae8017b2ac3a2e90fd0f892fc3bfa1ac99bfc7796c8a0dc1216635ef7e","metalessHash":"0x9a5c0a335315d413130eb5456efc8ed52447ca2b8e8f94c8f0eeeaeba7a05fa9","runtimeHash":"0x2fb81e8819be7f4227ab64b688af1d30af9f129ee2dc005567e047bc254dcbe0","encodedMetadata":[{"ipfs":"/ipfs/QmRD2suUueKnsX4bG9QCUji8wG3eTYDNR6AJNojx1JER38","solc":"0.7.6"}],"abi":[{"inputs":[{"internalType":"uint96","name":"minimum_votes","type":"uint96"},{"internalType":"contract IComp","name":"token_address","type":"address"}],"stateMutability":"nonpayable","type":"constructor"},{"inputs":[{"internalType":"address","name":"msg_sender","type":"address"},{"internalType":"address","name":"target_contract","type":"address"},{"internalType":"bytes4","name":"target_identifier","type":"bytes4"},{"internalType":"bytes","name":"target_data","type":"bytes"}],"name":"isApprovedForFreeVoting","outputs":[{"internalType":"bool","name":"","type":"bool"}],"stateMutability":"view","type":"function"},{"inputs":[],"name":"minimumVotes","outputs":[{"internalType":"uint96","name":"","type":"uint96"}],"stateMutability":"view","type":"function"},{"inputs":[],"name":"token","outputs":[{"internalType":"contract IComp","name":"","type":"address"}],"stateMutability":"view","type":"function"}],"bytecode":{"object":"608060405234801561001057600080fd5b506040516106d13803806106d183398181016040528101906100329190610093565b816000806101000a8154816bffffffffffffffffffffffff02191690836bffffffffffffffffffffffff1602179055505050610159565b6000815190506100788161012b565b92915050565b60008151905061008d81610142565b92915050565b600080604083850312156100a657600080fd5b60006100b48582860161007e565b92505060206100c585828601610069565b9150509250929050565b60006100da826100f3565b9050919050565b60006100ec826100cf565b9050919050565b600073ffffffffffffffffffffffffffffffffffffffff82169050919050565b60006bffffffffffffffffffffffff82169050919050565b610134816100e1565b811461013f57600080fd5b50565b61014b81610113565b811461015657600080fd5b50565b610569806101686000396000f3fe608060405234801561001057600080fd5b50600436106100415760003560e01c80636407e0d4146100465780636a6ca3ac14610064578063fc0c546a14610094575b600080fd5b61004e6100b2565b60405161005b91906103bb565b60405180910390f35b61007e6004803603810190610079919061028a565b6100ce565b60405161008b9190610385565b60405180910390f35b61009c6101bd565b6040516100a991906103a0565b60405180910390f35b60008054906101000a90046bffffffffffffffffffffffff1681565b60008060009054906101000a90046bffffffffffffffffffffffff166bffffffffffffffffffffffff166000600c9054906101000a900473ffffffffffffffffffffffffffffffffffffffff1673ffffffffffffffffffffffffffffffffffffffff1663b4b5ea57876040518263ffffffff1660e01b8152600401610153919061036a565b60206040518083038186803b15801561016b57600080fd5b505afa15801561017f573d6000803e3d6000fd5b505050506040513d601f19601f820116820180604052508101906101a39190610305565b6bffffffffffffffffffffffff1610159050949350505050565b6000600c9054906101000a900473ffffffffffffffffffffffffffffffffffffffff1681565b60006101f66101f184610407565b6103d6565b90508281526020810184848401111561020e57600080fd5b6102198482856104dd565b509392505050565b600081359050610230816104ee565b92915050565b60008135905061024581610505565b92915050565b600082601f83011261025c57600080fd5b813561026c8482602086016101e3565b91505092915050565b6000815190506102848161051c565b92915050565b600080600080608085870312156102a057600080fd5b60006102ae87828801610221565b94505060206102bf87828801610221565b93505060406102d087828801610236565b925050606085013567ffffffffffffffff8111156102ed57600080fd5b6102f98782880161024b565b91505092959194509250565b60006020828403121561031757600080fd5b600061032584828501610275565b91505092915050565b61033781610437565b82525050565b61034681610449565b82525050565b610355816104b9565b82525050565b610364816104a1565b82525050565b600060208201905061037f600083018461032e565b92915050565b600060208201905061039a600083018461033d565b92915050565b60006020820190506103b5600083018461034c565b92915050565b60006020820190506103d0600083018461035b565b92915050565b6000604051905081810181811067ffffffffffffffff821117156103fd576103fc6104ec565b5b8060405250919050565b600067ffffffffffffffff821115610422576104216104ec565b5b601f19601f8301169050602081019050919050565b600061044282610481565b9050919050565b60008115159050919050565b60007fffffffff0000000000000000000000000000000000000000000000000000000082169050919050565b600073ffffffffffffffffffffffffffffffffffffffff82169050919050565b60006bffffffffffffffffffffffff82169050919050565b60006104c4826104cb565b9050919050565b60006104d682610481565b9050919050565b82818337600083830152505050565bfe5b6104f781610437565b811461050257600080fd5b50565b61050e81610455565b811461051957600080fd5b50565b610525816104a1565b811461053057600080fd5b5056fea264697066735822122017298c2c4645c3cd98cea75d349649e85e04c09d8c5448b49e393d61c215f95764736f6c63430007060033"}}