{"compiler":"v0.7.6+commit.7338295f","opcodeHash":"0x7fb2024f5a258e99090e78e20ba610413e207f19b4cd4acedaced4340776d04d","metalessHash":"0x11ea7aa7fae94d9a72fd245f0db238f67dcdb6ef5a671e27ac06dfb2c4ebb97e","runtimeHash":"0x52aba28aa8aff2ba67be83b5df72d031f1f46e422dab6b295d41e04942eead6a","encodedMetadata":[{"ipfs":"/ipfs/QmVgQtjMiy4oXeeCVmLA2rKpYxmYQjnz9gec2jxcztNHsN","solc":"0.7.6"}],"abi":[{"inputs":[],"stateMutability":"nonpayable","type":"constructor"},{"anonymous":false,"inputs":[{"indexed":true,"internalType":"address","name":"owner","type":"address"},{"indexed":true,"internalType":"address","name":"approved","type":"address"},{"indexed":true,"internalType":"uint256","name":"tokenId","type":"uint256"}],"name":"Approval","type":"event"},{"anonymous":false,"inputs":[{"indexed":true,"internalType":"address","name":"owner","type":"address"},{"indexed":true,"internalType":"address","name":"operator","type":"address"},{"indexed":false,"internalType":"bool","name":"approved","type":"bool"}],"name":"ApprovalForAll","type":"event"},{"anonymous":false,"inputs":[{"indexed":true,"internalType":"address","name":"previousOwner","type":"address"},{"indexed":true,"internalType":"address","name":"newOwner","type":"address"}],"name":"OwnershipTransferred","type":"event"},{"anonymous":false,"inputs":[{"indexed":true,"internalType":"address","name":"from","type":"address"},{"indexed":true,"internalType":"address","name":"to","type":"address"},{"indexed":true,"internalType":"uint256","name":"tokenId","type":"uint256"}],"name":"Transfer","type":"event"},{"anonymous":false,"inputs":[{"indexed":false,"internalType":"address","name":"ethAddress","type":"address"}],"name":"excaliburMinted","type":"event"},{"anonymous":false,"inputs":[{"indexed":false,"internalType":"address","name":"ethAddress","type":"address"},{"indexed":false,"internalType":"uint256","name":"tokenId","type":"uint256"}],"name":"kingMakerMinted","type":"event"},{"anonymous":false,"inputs":[{"indexed":false,"internalType":"string","name":"_licenseText","type":"string"}],"name":"licenseisLocked","type":"event"},{"inputs":[],"name":"EXCALIBUR_BOUNTY_1","outputs":[{"internalType":"uint256","name":"","type":"uint256"}],"stateMutability":"view","type":"function"},{"inputs":[],"name":"EXCALIBUR_BOUNTY_2","outputs":[{"internalType":"uint256","name":"","type":"uint256"}],"stateMutability":"view","type":"function"},{"inputs":[],"name":"EXCALIBUR_BOUNTY_3","outputs":[{"internalType":"uint256","name":"","type":"uint256"}],"stateMutability":"view","type":"function"},{"inputs":[],"name":"EXCALIBUR_BOUNTY_4","outputs":[{"internalType":"uint256","name":"","type":"uint256"}],"stateMutability":"view","type":"function"},{"inputs":[],"name":"EXCALIBUR_BOUNTY_5","outputs":[{"internalType":"uint256","name":"","type":"uint256"}],"stateMutability":"view","type":"function"},{"inputs":[],"name":"EXCALIBUR_BOUNTY_6","outputs":[{"internalType":"uint256","name":"","type":"uint256"}],"stateMutability":"view","type":"function"},{"inputs":[],"name":"FREE_MINT_KINGMAKERS","outputs":[{"internalType":"uint256","name":"","type":"uint256"}],"stateMutability":"view","type":"function"},{"inputs":[],"name":"KING_MAKERS_PROVENANCE","outputs":[{"internalType":"string","name":"","type":"string"}],"stateMutability":"view","type":"function"},{"inputs":[],"name":"KING_MAKERS_RESERVE","outputs":[{"internalType":"uint256","name":"","type":"uint256"}],"stateMutability":"view","type":"function"},{"inputs":[],"name":"KING_MAKER_PRICE","outputs":[{"internalType":"uint256","name":"","type":"uint256"}],"stateMutability":"view","type":"function"},{"inputs":[],"name":"LICENSE_TEXT","outputs":[{"internalType":"string","name":"","type":"string"}],"stateMutability":"view","type":"function"},{"inputs":[],"name":"MAX_KINGMAKERS","outputs":[{"internalType":"uint256","name":"","type":"uint256"}],"stateMutability":"view","type":"function"},{"inputs":[],"name":"MAX_KINGMAKER_PURCHASE","outputs":[{"internalType":"uint256","name":"","type":"uint256"}],"stateMutability":"view","type":"function"},{"inputs":[],"name":"MIN_SELL_TARGET_FOR_BOUNTY_1","outputs":[{"internalType":"uint256","name":"","type":"uint256"}],"stateMutability":"view","type":"function"},{"inputs":[],"name":"MIN_SELL_TARGET_FOR_BOUNTY_2","outputs":[{"internalType":"uint256","name":"","type":"uint256"}],"stateMutability":"view","type":"function"},{"inputs":[],"name":"MIN_SELL_TARGET_FOR_BOUNTY_3","outputs":[{"internalType":"uint256","name":"","type":"uint256"}],"stateMutability":"view","type":"function"},{"inputs":[],"name":"MIN_SELL_TARGET_FOR_BOUNTY_4","outputs":[{"internalType":"uint256","name":"","type":"uint256"}],"stateMutability":"view","type":"function"},{"inputs":[],"name":"MIN_SELL_TARGET_FOR_BOUNTY_5","outputs":[{"internalType":"uint256","name":"","type":"uint256"}],"stateMutability":"view","type":"function"},{"inputs":[],"name":"MIN_SELL_TARGET_FOR_BOUNTY_6","outputs":[{"internalType":"uint256","name":"","type":"uint256"}],"stateMutability":"view","type":"function"},{"inputs":[{"internalType":"address","name":"to","type":"address"},{"internalType":"uint256","name":"tokenId","type":"uint256"}],"name":"approve","outputs":[],"stateMutability":"nonpayable","type":"function"},{"inputs":[{"internalType":"address","name":"owner","type":"address"}],"name":"balanceOf","outputs":[{"internalType":"uint256","name":"","type":"uint256"}],"stateMutability":"view","type":"function"},{"inputs":[],"name":"baseURI","outputs":[{"internalType":"string","name":"","type":"string"}],"stateMutability":"view","type":"function"},{"inputs":[{"internalType":"string","name":"_license","type":"string"}],"name":"changeLicense","outputs":[],"stateMutability":"nonpayable","type":"function"},{"inputs":[],"name":"flipSaleState","outputs":[],"stateMutability":"nonpayable","type":"function"},{"inputs":[{"internalType":"uint256","name":"tokenId","type":"uint256"}],"name":"getApproved","outputs":[{"internalType":"address","name":"","type":"address"}],"stateMutability":"view","type":"function"},{"inputs":[],"name":"hasExcaliburBeenMinted","outputs":[{"internalType":"bool","name":"","type":"bool"}],"stateMutability":"view","type":"function"},{"inputs":[{"internalType":"address","name":"owner","type":"address"},{"internalType":"address","name":"operator","type":"address"}],"name":"isApprovedForAll","outputs":[{"internalType":"bool","name":"","type":"bool"}],"stateMutability":"view","type":"function"},{"inputs":[],"name":"isSaleActive","outputs":[{"internalType":"bool","name":"","type":"bool"}],"stateMutability":"view","type":"function"},{"inputs":[],"name":"lockLicense","outputs":[],"stateMutability":"nonpayable","type":"function"},{"inputs":[{"internalType":"address payable","name":"_to","type":"address"}],"name":"mintExcalibur","outputs":[],"stateMutability":"payable","type":"function"},{"inputs":[{"internalType":"uint256","name":"numberOfTokens","type":"uint256"}],"name":"mintKingMaker","outputs":[],"stateMutability":"payable","type":"function"},{"inputs":[],"name":"name","outputs":[{"internalType":"string","name":"","type":"string"}],"stateMutability":"view","type":"function"},{"inputs":[],"name":"owner","outputs":[{"internalType":"address","name":"","type":"address"}],"stateMutability":"view","type":"function"},{"inputs":[{"internalType":"uint256","name":"tokenId","type":"uint256"}],"name":"ownerOf","outputs":[{"internalType":"address","name":"","type":"address"}],"stateMutability":"view","type":"function"},{"inputs":[],"name":"renounceOwnership","outputs":[],"stateMutability":"nonpayable","type":"function"},{"inputs":[{"internalType":"address","name":"_to","type":"address"},{"internalType":"uint256","name":"_reserveAmount","type":"uint256"}],"name":"reserveKingMakers","outputs":[],"stateMutability":"nonpayable","type":"function"},{"inputs":[{"internalType":"address","name":"from","type":"address"},{"internalType":"address","name":"to","type":"address"},{"internalType":"uint256","name":"tokenId","type":"uint256"}],"name":"safeTransferFrom","outputs":[],"stateMutability":"nonpayable","type":"function"},{"inputs":[{"internalType":"address","name":"from","type":"address"},{"internalType":"address","name":"to","type":"address"},{"internalType":"uint256","name":"tokenId","type":"uint256"},{"internalType":"bytes","name":"_data","type":"bytes"}],"name":"safeTransferFrom","outputs":[],"stateMutability":"nonpayable","type":"function"},{"inputs":[{"internalType":"address","name":"operator","type":"address"},{"internalType":"bool","name":"approved","type":"bool"}],"name":"setApprovalForAll","outputs":[],"stateMutability":"nonpayable","type":"function"},{"inputs":[{"internalType":"string","name":"baseURI","type":"string"}],"name":"setBaseURI","outputs":[],"stateMutability":"nonpayable","type":"function"},{"inputs":[{"internalType":"uint256","name":"price","type":"uint256"}],"name":"setKingMakerPrice","outputs":[],"stateMutability":"nonpayable","type":"function"},{"inputs":[{"internalType":"string","name":"provenanceHash","type":"string"}],"name":"setProvenanceHash","outputs":[],"stateMutability":"nonpayable","type":"function"},{"inputs":[{"internalType":"bytes4","name":"interfaceId","type":"bytes4"}],"name":"supportsInterface","outputs":[{"internalType":"bool","name":"","type":"bool"}],"stateMutability":"view","type":"function"},{"inputs":[],"name":"symbol","outputs":[{"internalType":"string","name":"","type":"string"}],"stateMutability":"view","type":"function"},{"inputs":[{"internalType":"uint256","name":"index","type":"uint256"}],"name":"tokenByIndex","outputs":[{"internalType":"uint256","name":"","type":"uint256"}],"stateMutability":"view","type":"function"},{"inputs":[{"internalType":"uint256","name":"_id","type":"uint256"}],"name":"tokenLicense","outputs":[{"internalType":"string","name":"","type":"string"}],"stateMutability":"view","type":"function"},{"inputs":[{"internalType":"address","name":"owner","type":"address"},{"internalType":"uint256","name":"index","type":"uint256"}],"name":"tokenOfOwnerByIndex","outputs":[{"internalType":"uint256","name":"","type":"uint256"}],"stateMutability":"view","type":"function"},{"inputs":[{"internalType":"uint256","name":"tokenId","type":"uint256"}],"name":"tokenURI","outputs":[{"internalType":"string","name":"","type":"string"}],"stateMutability":"view","type":"function"},{"inputs":[{"internalType":"address","name":"_owner","type":"address"}],"name":"tokensOfOwner","outputs":[{"internalType":"uint256[]","name":"","type":"uint256[]"}],"stateMutability":"view","type":"function"},{"inputs":[],"name":"totalSupply","outputs":[{"internalType":"uint256","name":"","type":"uint256"}],"stateMutability":"view","type":"function"},{"inputs":[{"internalType":"address","name":"from","type":"address"},{"internalType":"address","name":"to","type":"address"},{"internalType":"uint256","name":"tokenId","type":"uint256"}],"name":"transferFrom","outputs":[],"stateMutability":"nonpayable","type":"function"},{"inputs":[{"internalType":"address","name":"newOwner","type":"address"}],"name":"transferOwnership","outputs":[],"stateMutability":"nonpayable","type":"function"},{"inputs":[],"name":"withdraw","outputs":[],"stateMutability":"nonpayable","type":"function"}],"bytecode":{"object":"608060405260405180602001604052806000815250600b90805190602001906200002b9291906200035a565b5060405180602001604052806000815250600c9080519060200190620000539291906200035a565b506000600d60006101000a81548160ff0219169083151502179055506658d15e17628000600e5560fa600f556000601060006101000a81548160ff0219169083151502179055506001601060016101000a81548160ff021916908315150217905550348015620000c257600080fd5b506040518060400160405280600a81526020017f4b696e674d616b657273000000000000000000000000000000000000000000008152506040518060400160405280600281526020017f4b4d000000000000000000000000000000000000000000000000000000000000815250620001476301ffc9a760e01b6200027a60201b60201c565b81600690805190602001906200015f9291906200035a565b508060079080519060200190620001789291906200035a565b50620001916380ac58cd60e01b6200027a60201b60201c565b620001a9635b5e139f60e01b6200027a60201b60201c565b620001c163780e9d6360e01b6200027a60201b60201c565b50506000620001d56200035260201b60201c565b905080600a60006101000a81548173ffffffffffffffffffffffffffffffffffffffff021916908373ffffffffffffffffffffffffffffffffffffffff1602179055508073ffffffffffffffffffffffffffffffffffffffff16600073ffffffffffffffffffffffffffffffffffffffff167f8be0079c531659141344cd1fd0a4f28419497f9722a3daafe3b4186f6b6457e060405160405180910390a35062000485565b63ffffffff60e01b817bffffffffffffffffffffffffffffffffffffffffffffffffffffffff19161415620002e6576040517f08c379a0000000000000000000000000000000000000000000000000000000008152600401620002dd9062000452565b60405180910390fd5b6001600080837bffffffffffffffffffffffffffffffffffffffffffffffffffffffff19167bffffffffffffffffffffffffffffffffffffffffffffffffffffffff1916815260200190815260200160002060006101000a81548160ff02191690831515021790555050565b600033905090565b828054600181600116156101000203166002900490600052602060002090601f016020900481019282620003925760008555620003de565b82601f10620003ad57805160ff1916838001178555620003de565b82800160010185558215620003de579182015b82811115620003dd578251825591602001919060010190620003c0565b5b509050620003ed9190620003f1565b5090565b5b808211156200040c576000816000905550600101620003f2565b5090565b60006200041f601c8362000474565b91507f4552433136353a20696e76616c696420696e74657266616365206964000000006000830152602082019050919050565b600060208201905081810360008301526200046d8162000410565b9050919050565b600082825260208201905092915050565b615b1180620004956000396000f3fe60806040526004361061031a5760003560e01c80638da5cb5b116101ab578063bd538b87116100f7578063e985e9c511610095578063f2fde38b1161006f578063f2fde38b14610b8c578063f831227d14610bb5578063fc5d6b0014610be0578063fcceaab414610c0b5761031a565b8063e985e9c514610afb578063ea04b42414610b38578063ed44835614610b615761031a565b8063d22c1486116100d1578063d22c148614610a3f578063d30802ac14610a6a578063d9b137b214610a93578063de99ac8914610ad05761031a565b8063bd538b87146109c0578063bf4702fc146109eb578063c87b56dd14610a025761031a565b8063a15648b111610164578063b7b026151161013e578063b7b0261514610916578063b7f91dad14610941578063b88d4fde1461096c578063ba7a1f04146109955761031a565b8063a15648b1146108a8578063a22cb465146108c4578063b09904b5146108ed5761031a565b80638da5cb5b146107a65780638e5b6a48146107d157806395d89b41146107fc57806399d4be69146108275780639a7b0e7d146108525780639c3e72bd1461087d5761031a565b806334918dfd1161026a5780636352211e11610223578063715018a6116101fd578063715018a61461070b57806379db40231461072257806383d721a71461074d5780638462151c146107695761031a565b80636352211e146106665780636c0360eb146106a357806370a08231146106ce5761031a565b806334918dfd1461057e5780633ccfd60b1461059557806342842e0e146105ac5780634f6ccce7146105d557806355f804b314610612578063564566a81461063b5761031a565b806319aac80d116102d7578063282c07c9116102b1578063282c07c9146104c05780632baee3b8146104eb5780632f745c5914610516578063304e99dc146105535761031a565b806319aac80d1461044157806323b872dd1461046c57806325dbf9a5146104955761031a565b806301ffc9a71461031f57806306fdde031461035c578063081812fc14610387578063095ea7b3146103c457806310969523146103ed57806318160ddd14610416575b600080fd5b34801561032b57600080fd5b506103466004803603810190610341919061425d565b610c36565b60405161035391906152b5565b60405180910390f35b34801561036857600080fd5b50610371610c9d565b60405161037e91906152d0565b60405180910390f35b34801561039357600080fd5b506103ae60048036038101906103a991906142f0565b610d3f565b6040516103bb91906151bf565b60405180910390f35b3480156103d057600080fd5b506103eb60048036038101906103e69190614221565b610dc4565b005b3480156103f957600080fd5b50610414600480360381019061040f91906142af565b610edc565b005b34801561042257600080fd5b5061042b610f72565b60405161043891906157b4565b60405180910390f35b34801561044d57600080fd5b50610456610f83565b60405161046391906157b4565b60405180910390f35b34801561047857600080fd5b50610493600480360381019061048e919061411b565b610f89565b005b3480156104a157600080fd5b506104aa610fe9565b6040516104b791906157b4565b60405180910390f35b3480156104cc57600080fd5b506104d5610fef565b6040516104e291906157b4565b60405180910390f35b3480156104f757600080fd5b50610500610ffb565b60405161050d91906152b5565b60405180910390f35b34801561052257600080fd5b5061053d60048036038101906105389190614221565b61100e565b60405161054a91906157b4565b60405180910390f35b34801561055f57600080fd5b50610568611069565b60405161057591906157b4565b60405180910390f35b34801561058a57600080fd5b5061059361106f565b005b3480156105a157600080fd5b506105aa611117565b005b3480156105b857600080fd5b506105d360048036038101906105ce919061411b565b6111e2565b005b3480156105e157600080fd5b506105fc60048036038101906105f791906142f0565b611202565b60405161060991906157b4565b60405180910390f35b34801561061e57600080fd5b50610639600480360381019061063491906142af565b611225565b005b34801561064757600080fd5b506106506112ad565b60405161065d91906152b5565b60405180910390f35b34801561067257600080fd5b5061068d600480360381019061068891906142f0565b6112c0565b60405161069a91906151bf565b60405180910390f35b3480156106af57600080fd5b506106b86112f7565b6040516106c591906152d0565b60405180910390f35b3480156106da57600080fd5b506106f560048036038101906106f0919061408d565b611399565b60405161070291906157b4565b60405180910390f35b34801561071757600080fd5b50610720611458565b005b34801561072e57600080fd5b50610737611595565b60405161074491906157b4565b60405180910390f35b610767600480360381019061076291906142f0565b61159b565b005b34801561077557600080fd5b50610790600480360381019061078b919061408d565b611813565b60405161079d9190615293565b60405180910390f35b3480156107b257600080fd5b506107bb61190c565b6040516107c891906151bf565b60405180910390f35b3480156107dd57600080fd5b506107e6611936565b6040516107f391906157b4565b60405180910390f35b34801561080857600080fd5b5061081161193b565b60405161081e91906152d0565b60405180910390f35b34801561083357600080fd5b5061083c6119dd565b60405161084991906157b4565b60405180910390f35b34801561085e57600080fd5b506108676119e3565b60405161087491906157b4565b60405180910390f35b34801561088957600080fd5b506108926119ef565b60405161089f91906152d0565b60405180910390f35b6108c260048036038101906108bd91906140b6565b611a8d565b005b3480156108d057600080fd5b506108eb60048036038101906108e691906141e5565b612264565b005b3480156108f957600080fd5b50610914600480360381019061090f91906142af565b6123e5565b005b34801561092257600080fd5b5061092b6124d1565b60405161093891906157b4565b60405180910390f35b34801561094d57600080fd5b506109566124d7565b60405161096391906157b4565b60405180910390f35b34801561097857600080fd5b50610993600480360381019061098e919061416a565b6124dc565b005b3480156109a157600080fd5b506109aa61253e565b6040516109b791906157b4565b60405180910390f35b3480156109cc57600080fd5b506109d561254a565b6040516109e291906152d0565b60405180910390f35b3480156109f757600080fd5b50610a006125e8565b005b348015610a0e57600080fd5b50610a296004803603810190610a2491906142f0565b6126b9565b604051610a3691906152d0565b60405180910390f35b348015610a4b57600080fd5b50610a5461283c565b604051610a6191906157b4565b60405180910390f35b348015610a7657600080fd5b50610a916004803603810190610a8c9190614221565b612848565b005b348015610a9f57600080fd5b50610aba6004803603810190610ab591906142f0565b6129b4565b604051610ac791906152d0565b60405180910390f35b348015610adc57600080fd5b50610ae5612aa1565b604051610af291906157b4565b60405180910390f35b348015610b0757600080fd5b50610b226004803603810190610b1d91906140df565b612aa7565b604051610b2f91906152b5565b60405180910390f35b348015610b4457600080fd5b50610b5f6004803603810190610b5a91906142f0565b612b3b565b005b348015610b6d57600080fd5b50610b76612bda565b604051610b8391906157b4565b60405180910390f35b348015610b9857600080fd5b50610bb36004803603810190610bae919061408d565b612be0565b005b348015610bc157600080fd5b50610bca612d8c565b604051610bd791906157b4565b60405180910390f35b348015610bec57600080fd5b50610bf5612d98565b604051610c0291906157b4565b60405180910390f35b348015610c1757600080fd5b50610c20612da4565b604051610c2d91906157b4565b60405180910390f35b6000806000837bffffffffffffffffffffffffffffffffffffffffffffffffffffffff19167bffffffffffffffffffffffffffffffffffffffffffffffffffffffff1916815260200190815260200160002060009054906101000a900460ff169050919050565b606060068054600181600116156101000203166002900480601f016020809104026020016040519081016040528092919081815260200182805460018160011615610100020316600290048015610d355780601f10610d0a57610100808354040283529160200191610d35565b820191906000526020600020905b815481529060010190602001808311610d1857829003601f168201915b5050505050905090565b6000610d4a82612daa565b610d89576040517f08c379a0000000000000000000000000000000000000000000000000000000008152600401610d8090615634565b60405180910390fd5b6004600083815260200190815260200160002060009054906101000a900473ffffffffffffffffffffffffffffffffffffffff169050919050565b6000610dcf826112c0565b90508073ffffffffffffffffffffffffffffffffffffffff168373ffffffffffffffffffffffffffffffffffffffff161415610e40576040517f08c379a0000000000000000000000000000000000000000000000000000000008152600401610e37906156b4565b60405180910390fd5b8073ffffffffffffffffffffffffffffffffffffffff16610e5f612dc7565b73ffffffffffffffffffffffffffffffffffffffff161480610e8e5750610e8d81610e88612dc7565b612aa7565b5b610ecd576040517f08c379a0000000000000000000000000000000000000000000000000000000008152600401610ec490615594565b60405180910390fd5b610ed78383612dcf565b505050565b610ee4612dc7565b73ffffffffffffffffffffffffffffffffffffffff16610f0261190c565b73ffffffffffffffffffffffffffffffffffffffff1614610f58576040517f08c379a0000000000000000000000000000000000000000000000000000000008152600401610f4f90615654565b60405180910390fd5b80600b9080519060200190610f6e929190613e94565b5050565b6000610f7e6002612e88565b905090565b6103e881565b610f9a610f94612dc7565b82612e9d565b610fd9576040517f08c379a0000000000000000000000000000000000000000000000000000000008152600401610fd090615714565b60405180910390fd5b610fe4838383612f7b565b505050565b61177081565b674563918244f4000081565b601060009054906101000a900460ff1681565b600061106182600160008673ffffffffffffffffffffffffffffffffffffffff1673ffffffffffffffffffffffffffffffffffffffff16815260200190815260200160002061319290919063ffffffff16565b905092915050565b61271081565b611077612dc7565b73ffffffffffffffffffffffffffffffffffffffff1661109561190c565b73ffffffffffffffffffffffffffffffffffffffff16146110eb576040517f08c379a00000000000000000000000000000000000000000000000000000000081526004016110e290615654565b60405180910390fd5b601060019054906101000a900460ff1615601060016101000a81548160ff021916908315150217905550565b61111f612dc7565b73ffffffffffffffffffffffffffffffffffffffff1661113d61190c565b73ffffffffffffffffffffffffffffffffffffffff1614611193576040517f08c379a000000000000000000000000000000000000000000000000000000000815260040161118a90615654565b60405180910390fd5b60004790503373ffffffffffffffffffffffffffffffffffffffff166108fc829081150290604051600060405180830381858888f193505050501580156111de573d6000803e3d6000fd5b5050565b6111fd838383604051806020016040528060008152506124dc565b505050565b6000806112198360026131ac90919063ffffffff16565b50905080915050919050565b61122d612dc7565b73ffffffffffffffffffffffffffffffffffffffff1661124b61190c565b73ffffffffffffffffffffffffffffffffffffffff16146112a1576040517f08c379a000000000000000000000000000000000000000000000000000000000815260040161129890615654565b60405180910390fd5b6112aa816131d8565b50565b601060019054906101000a900460ff1681565b60006112f082604051806060016040528060298152602001615ab36029913960026131f29092919063ffffffff16565b9050919050565b606060098054600181600116156101000203166002900480601f01602080910402602001604051908101604052809291908181526020018280546001816001161561010002031660029004801561138f5780601f106113645761010080835404028352916020019161138f565b820191906000526020600020905b81548152906001019060200180831161137257829003601f168201915b5050505050905090565b60008073ffffffffffffffffffffffffffffffffffffffff168273ffffffffffffffffffffffffffffffffffffffff16141561140a576040517f08c379a0000000000000000000000000000000000000000000000000000000008152600401611401906155b4565b60405180910390fd5b611451600160008473ffffffffffffffffffffffffffffffffffffffff1673ffffffffffffffffffffffffffffffffffffffff168152602001908152602001600020613211565b9050919050565b611460612dc7565b73ffffffffffffffffffffffffffffffffffffffff1661147e61190c565b73ffffffffffffffffffffffffffffffffffffffff16146114d4576040517f08c379a00000000000000000000000000000000000000000000000000000000081526004016114cb90615654565b60405180910390fd5b600073ffffffffffffffffffffffffffffffffffffffff16600a60009054906101000a900473ffffffffffffffffffffffffffffffffffffffff1673ffffffffffffffffffffffffffffffffffffffff167f8be0079c531659141344cd1fd0a4f28419497f9722a3daafe3b4186f6b6457e060405160405180910390a36000600a60006101000a81548173ffffffffffffffffffffffffffffffffffffffff021916908373ffffffffffffffffffffffffffffffffffffffff160217905550565b6101f481565b601060019054906101000a900460ff166115ea576040517f08c379a00000000000000000000000000000000000000000000000000000000081526004016115e190615414565b60405180910390fd5b60016115f4610f72565b101561164a5760008111801561160a5750600181145b611649576040517f08c379a000000000000000000000000000000000000000000000000000000000815260040161164090615554565b60405180910390fd5b5b6001611654610f72565b106116aa5760008111801561166a5750600a8111155b6116a9576040517f08c379a00000000000000000000000000000000000000000000000000000000081526004016116a090615794565b60405180910390fd5b5b60016116b4610f72565b10611711576116ce81600e5461322690919063ffffffff16565b341015611710576040517f08c379a000000000000000000000000000000000000000000000000000000000815260040161170790615494565b60405180910390fd5b5b611727600161271061329690919063ffffffff16565b61174182611733610f72565b6132e690919063ffffffff16565b1115611782576040517f08c379a0000000000000000000000000000000000000000000000000000000008152600401611779906153f4565b60405180910390fd5b60005b8181101561180f5760006117aa600161179c610f72565b6132e690919063ffffffff16565b90506127106117b7610f72565b1015611801576117c7338261333b565b7f82835ea25ccfef5e19aa13fadaec2a0f2e1fbbcd0d09dbca27b70624b09b113233826040516117f8929190615241565b60405180910390a15b508080600101915050611785565b5050565b6060600061182083611399565b9050600081141561187b57600067ffffffffffffffff8111801561184357600080fd5b506040519080825280602002602001820160405280156118725781602001602082028036833780820191505090505b50915050611907565b60008167ffffffffffffffff8111801561189457600080fd5b506040519080825280602002602001820160405280156118c35781602001602082028036833780820191505090505b50905060005b82811015611900576118db858261100e565b8282815181106118e757fe5b60200260200101818152505080806001019150506118c9565b8193505050505b919050565b6000600a60009054906101000a900473ffffffffffffffffffffffffffffffffffffffff16905090565b600a81565b606060078054600181600116156101000203166002900480601f0160208091040260200160405190810160405280929190818152602001828054600181600116156101000203166002900480156119d35780601f106119a8576101008083540402835291602001916119d3565b820191906000526020600020905b8154815290600101906020018083116119b657829003601f168201915b5050505050905090565b610fa081565b670de0b6b3a764000081565b600c8054600181600116156101000203166002900480601f016020809104026020016040519081016040528092919081815260200182805460018160011615610100020316600290048015611a855780601f10611a5a57610100808354040283529160200191611a85565b820191906000526020600020905b815481529060010190602001808311611a6857829003601f168201915b505050505081565b611a95612dc7565b73ffffffffffffffffffffffffffffffffffffffff16611ab361190c565b73ffffffffffffffffffffffffffffffffffffffff1614611b09576040517f08c379a0000000000000000000000000000000000000000000000000000000008152600401611b0090615654565b60405180910390fd5b601060009054906101000a900460ff1615611b59576040517f08c379a0000000000000000000000000000000000000000000000000000000008152600401611b5090615574565b60405180910390fd5b6101f4611b64610f72565b1015611bc857611b7581600061333b565b6001601060006101000a81548160ff0219169083151502179055507fb4a21726ec29ac7853cdc5a2e951b23991d9c4b3c079fb95ffe3b873575030fb81604051611bbf91906151da565b60405180910390a15b6101f4611bd3610f72565b10158015611be957506103e8611be7610f72565b105b15611ce557670de0b6b3a76400003414611c38576040517f08c379a0000000000000000000000000000000000000000000000000000000008152600401611c2f906154d4565b60405180910390fd5b611c4381600061333b565b6001601060006101000a81548160ff0219169083151502179055507fb4a21726ec29ac7853cdc5a2e951b23991d9c4b3c079fb95ffe3b873575030fb81604051611c8d91906151da565b60405180910390a18073ffffffffffffffffffffffffffffffffffffffff166108fc670de0b6b3a76400009081150290604051600060405180830381858888f19350505050158015611ce3573d6000803e3d6000fd5b505b6103e8611cf0610f72565b10158015611d0657506107d0611d04610f72565b105b15611e0257671bc16d674ec800003414611d55576040517f08c379a0000000000000000000000000000000000000000000000000000000008152600401611d4c906156d4565b60405180910390fd5b611d6081600061333b565b6001601060006101000a81548160ff0219169083151502179055507fb4a21726ec29ac7853cdc5a2e951b23991d9c4b3c079fb95ffe3b873575030fb81604051611daa91906151da565b60405180910390a18073ffffffffffffffffffffffffffffffffffffffff166108fc671bc16d674ec800009081150290604051600060405180830381858888f19350505050158015611e00573d6000803e3d6000fd5b505b6107d0611e0d610f72565b10158015611e235750610fa0611e21610f72565b105b15611f1f576729a2241af62c00003414611e72576040517f08c379a0000000000000000000000000000000000000000000000000000000008152600401611e69906153b4565b60405180910390fd5b611e7d81600061333b565b6001601060006101000a81548160ff0219169083151502179055507fb4a21726ec29ac7853cdc5a2e951b23991d9c4b3c079fb95ffe3b873575030fb81604051611ec791906151da565b60405180910390a18073ffffffffffffffffffffffffffffffffffffffff166108fc6729a2241af62c00009081150290604051600060405180830381858888f19350505050158015611f1d573d6000803e3d6000fd5b505b610fa0611f2a610f72565b10158015611f405750611770611f3e610f72565b105b1561203c57673782dace9d9000003414611f8f576040517f08c379a0000000000000000000000000000000000000000000000000000000008152600401611f8690615754565b60405180910390fd5b611f9a81600061333b565b6001601060006101000a81548160ff0219169083151502179055507fb4a21726ec29ac7853cdc5a2e951b23991d9c4b3c079fb95ffe3b873575030fb81604051611fe491906151da565b60405180910390a18073ffffffffffffffffffffffffffffffffffffffff166108fc673782dace9d9000009081150290604051600060405180830381858888f1935050505015801561203a573d6000803e3d6000fd5b505b611770612047610f72565b1015801561205d5750611f4061205b610f72565b105b1561215957674563918244f4000034146120ac576040517f08c379a00000000000000000000000000000000000000000000000000000000081526004016120a390615774565b60405180910390fd5b6120b781600061333b565b6001601060006101000a81548160ff0219169083151502179055507fb4a21726ec29ac7853cdc5a2e951b23991d9c4b3c079fb95ffe3b873575030fb8160405161210191906151da565b60405180910390a18073ffffffffffffffffffffffffffffffffffffffff166108fc674563918244f400009081150290604051600060405180830381858888f19350505050158015612157573d6000803e3d6000fd5b505b611f40612164610f72565b10612261576753444835ec5800003410156121b4576040517f08c379a00000000000000000000000000000000000000000000000000000000081526004016121ab90615514565b60405180910390fd5b6121bf81600061333b565b6001601060006101000a81548160ff0219169083151502179055507fb4a21726ec29ac7853cdc5a2e951b23991d9c4b3c079fb95ffe3b873575030fb8160405161220991906151da565b60405180910390a18073ffffffffffffffffffffffffffffffffffffffff166108fc6753444835ec5800009081150290604051600060405180830381858888f1935050505015801561225f573d6000803e3d6000fd5b505b50565b61226c612dc7565b73ffffffffffffffffffffffffffffffffffffffff168273ffffffffffffffffffffffffffffffffffffffff1614156122da576040517f08c379a00000000000000000000000000000000000000000000000000000000081526004016122d190615474565b60405180910390fd5b80600560006122e7612dc7565b73ffffffffffffffffffffffffffffffffffffffff1673ffffffffffffffffffffffffffffffffffffffff16815260200190815260200160002060008473ffffffffffffffffffffffffffffffffffffffff1673ffffffffffffffffffffffffffffffffffffffff16815260200190815260200160002060006101000a81548160ff0219169083151502179055508173ffffffffffffffffffffffffffffffffffffffff16612394612dc7565b73ffffffffffffffffffffffffffffffffffffffff167f17307eab39ab6107e8899845ad3d59bd9653f200f220920489ca2b5937696c31836040516123d991906152b5565b60405180910390a35050565b6123ed612dc7565b73ffffffffffffffffffffffffffffffffffffffff1661240b61190c565b73ffffffffffffffffffffffffffffffffffffffff1614612461576040517f08c379a000000000000000000000000000000000000000000000000000000000815260040161245890615654565b60405180910390fd5b60001515600d60009054906101000a900460ff161515146124b7576040517f08c379a00000000000000000000000000000000000000000000000000000000081526004016124ae906156f4565b60405180910390fd5b80600c90805190602001906124cd929190613e94565b5050565b6107d081565b600181565b6124ed6124e7612dc7565b83612e9d565b61252c576040517f08c379a000000000000000000000000000000000000000000000000000000000815260040161252390615714565b60405180910390fd5b61253884848484613359565b50505050565b6753444835ec58000081565b600b8054600181600116156101000203166002900480601f0160208091040260200160405190810160405280929190818152602001828054600181600116156101000203166002900480156125e05780601f106125b5576101008083540402835291602001916125e0565b820191906000526020600020905b8154815290600101906020018083116125c357829003601f168201915b505050505081565b6125f0612dc7565b73ffffffffffffffffffffffffffffffffffffffff1661260e61190c565b73ffffffffffffffffffffffffffffffffffffffff1614612664576040517f08c379a000000000000000000000000000000000000000000000000000000000815260040161265b90615654565b60405180910390fd5b6001600d60006101000a81548160ff0219169083151502179055507f92423ccd40e13759d50d24569dcbaccb20ade47247f3cf3e3951a9f29d2048b0600c6040516126af91906152f2565b60405180910390a1565b60606126c482612daa565b612703576040517f08c379a00000000000000000000000000000000000000000000000000000000081526004016126fa90615694565b60405180910390fd5b6000600860008481526020019081526020016000208054600181600116156101000203166002900480601f0160208091040260200160405190810160405280929190818152602001828054600181600116156101000203166002900480156127ac5780601f10612781576101008083540402835291602001916127ac565b820191906000526020600020905b81548152906001019060200180831161278f57829003601f168201915b5050505050905060006127bd6112f7565b90506000815114156127d3578192505050612837565b6000825111156128085780826040516020016127f092919061519b565b60405160208183030381529060405292505050612837565b80612812856133b5565b60405160200161282392919061519b565b604051602081830303815290604052925050505b919050565b671bc16d674ec8000081565b612850612dc7565b73ffffffffffffffffffffffffffffffffffffffff1661286e61190c565b73ffffffffffffffffffffffffffffffffffffffff16146128c4576040517f08c379a00000000000000000000000000000000000000000000000000000000081526004016128bb90615654565b60405180910390fd5b60006128e160016128d3610f72565b6132e690919063ffffffff16565b90506000821180156128f55750600f548211155b612934576040517f08c379a000000000000000000000000000000000000000000000000000000000815260040161292b90615434565b60405180910390fd5b60005b828110156129935761294b8482840161333b565b7f82835ea25ccfef5e19aa13fadaec2a0f2e1fbbcd0d09dbca27b70624b09b11328482840160405161297e92919061526a565b60405180910390a18080600101915050612937565b506129a982600f5461329690919063ffffffff16565b600f81905550505050565b60606129be610f72565b82106129ff576040517f08c379a00000000000000000000000000000000000000000000000000000000081526004016129f690615334565b60405180910390fd5b600c8054600181600116156101000203166002900480601f016020809104026020016040519081016040528092919081815260200182805460018160011615610100020316600290048015612a955780601f10612a6a57610100808354040283529160200191612a95565b820191906000526020600020905b815481529060010190602001808311612a7857829003601f168201915b50505050509050919050565b600f5481565b6000600560008473ffffffffffffffffffffffffffffffffffffffff1673ffffffffffffffffffffffffffffffffffffffff16815260200190815260200160002060008373ffffffffffffffffffffffffffffffffffffffff1673ffffffffffffffffffffffffffffffffffffffff16815260200190815260200160002060009054906101000a900460ff16905092915050565b612b43612dc7565b73ffffffffffffffffffffffffffffffffffffffff16612b6161190c565b73ffffffffffffffffffffffffffffffffffffffff1614612bb7576040517f08c379a0000000000000000000000000000000000000000000000000000000008152600401612bae90615654565b60405180910390fd5b612bd166038d7ea4c680008261322690919063ffffffff16565b600e8190555050565b611f4081565b612be8612dc7565b73ffffffffffffffffffffffffffffffffffffffff16612c0661190c565b73ffffffffffffffffffffffffffffffffffffffff1614612c5c576040517f08c379a0000000000000000000000000000000000000000000000000000000008152600401612c5390615654565b60405180910390fd5b600073ffffffffffffffffffffffffffffffffffffffff168173ffffffffffffffffffffffffffffffffffffffff161415612ccc576040517f08c379a0000000000000000000000000000000000000000000000000000000008152600401612cc390615374565b60405180910390fd5b8073ffffffffffffffffffffffffffffffffffffffff16600a60009054906101000a900473ffffffffffffffffffffffffffffffffffffffff1673ffffffffffffffffffffffffffffffffffffffff167f8be0079c531659141344cd1fd0a4f28419497f9722a3daafe3b4186f6b6457e060405160405180910390a380600a60006101000a81548173ffffffffffffffffffffffffffffffffffffffff021916908373ffffffffffffffffffffffffffffffffffffffff16021790555050565b6729a2241af62c000081565b673782dace9d90000081565b600e5481565b6000612dc08260026134fc90919063ffffffff16565b9050919050565b600033905090565b816004600083815260200190815260200160002060006101000a81548173ffffffffffffffffffffffffffffffffffffffff021916908373ffffffffffffffffffffffffffffffffffffffff160217905550808273ffffffffffffffffffffffffffffffffffffffff16612e42836112c0565b73ffffffffffffffffffffffffffffffffffffffff167f8c5be1e5ebec7d5bd14f71427d1e84f3dd0314c0f7b2291e5b200ac8c7c3b92560405160405180910390a45050565b6000612e9682600001613516565b9050919050565b6000612ea882612daa565b612ee7576040517f08c379a0000000000000000000000000000000000000000000000000000000008152600401612ede90615534565b60405180910390fd5b6000612ef2836112c0565b90508073ffffffffffffffffffffffffffffffffffffffff168473ffffffffffffffffffffffffffffffffffffffff161480612f6157508373ffffffffffffffffffffffffffffffffffffffff16612f4984610d3f565b73ffffffffffffffffffffffffffffffffffffffff16145b80612f725750612f718185612aa7565b5b91505092915050565b8273ffffffffffffffffffffffffffffffffffffffff16612f9b826112c0565b73ffffffffffffffffffffffffffffffffffffffff1614612ff1576040517f08c379a0000000000000000000000000000000000000000000000000000000008152600401612fe890615674565b60405180910390fd5b600073ffffffffffffffffffffffffffffffffffffffff168273ffffffffffffffffffffffffffffffffffffffff161415613061576040517f08c379a000000000000000000000000000000000000000000000000000000000815260040161305890615454565b60405180910390fd5b61306c838383613527565b613077600082612dcf565b6130c881600160008673ffffffffffffffffffffffffffffffffffffffff1673ffffffffffffffffffffffffffffffffffffffff16815260200190815260200160002061352c90919063ffffffff16565b5061311a81600160008573ffffffffffffffffffffffffffffffffffffffff1673ffffffffffffffffffffffffffffffffffffffff16815260200190815260200160002061354690919063ffffffff16565b50613131818360026135609092919063ffffffff16565b50808273ffffffffffffffffffffffffffffffffffffffff168473ffffffffffffffffffffffffffffffffffffffff167fddf252ad1be2c89b69c2b068fc378daa952ba7f163c4a11628f55a4df523b3ef60405160405180910390a4505050565b60006131a18360000183613595565b60001c905092915050565b6000806000806131bf8660000186613602565b915091508160001c8160001c9350935050509250929050565b80600990805190602001906131ee929190613e94565b5050565b6000613205846000018460001b84613685565b60001c90509392505050565b600061321f82600001613716565b9050919050565b6000808314156132395760009050613290565b600082840290508284828161324a57fe5b041461328b576040517f08c379a000000000000000000000000000000000000000000000000000000000815260040161328290615614565b60405180910390fd5b809150505b92915050565b6000828211156132db576040517f08c379a00000000000000000000000000000000000000000000000000000000081526004016132d2906154b4565b60405180910390fd5b818303905092915050565b600080828401905083811015613331576040517f08c379a0000000000000000000000000000000000000000000000000000000008152600401613328906153d4565b60405180910390fd5b8091505092915050565b613355828260405180602001604052806000815250613727565b5050565b613364848484612f7b565b61337084848484613782565b6133af576040517f08c379a00000000000000000000000000000000000000000000000000000000081526004016133a690615354565b60405180910390fd5b50505050565b606060008214156133fd576040518060400160405280600181526020017f300000000000000000000000000000000000000000000000000000000000000081525090506134f7565b600082905060005b60008214613427578080600101915050600a828161341f57fe5b049150613405565b60008167ffffffffffffffff8111801561344057600080fd5b506040519080825280601f01601f1916602001820160405280156134735781602001600182028036833780820191505090505b50905060006001830390508593505b600084146134ef57600a848161349457fe5b0660300160f81b828280600190039350815181106134ae57fe5b60200101907effffffffffffffffffffffffffffffffffffffffffffffffffffffffffffff1916908160001a905350600a84816134e757fe5b049350613482565b819450505050505b919050565b600061350e836000018360001b6138e6565b905092915050565b600081600001805490509050919050565b505050565b600061353e836000018360001b613909565b905092915050565b6000613558836000018360001b6139f1565b905092915050565b600061358c846000018460001b8473ffffffffffffffffffffffffffffffffffffffff1660001b613a61565b90509392505050565b6000818360000180549050116135e0576040517f08c379a00000000000000000000000000000000000000000000000000000000081526004016135d790615314565b60405180910390fd5b8260000182815481106135ef57fe5b9060005260206000200154905092915050565b6000808284600001805490501161364e576040517f08c379a0000000000000000000000000000000000000000000000000000000008152600401613645906155d4565b60405180910390fd5b600084600001848154811061365f57fe5b906000526020600020906002020190508060000154816001015492509250509250929050565b600080846001016000858152602001908152602001600020549050600081141583906136e7576040517f08c379a00000000000000000000000000000000000000000000000000000000081526004016136de91906152d0565b60405180910390fd5b508460000160018203815481106136fa57fe5b9060005260206000209060020201600101549150509392505050565b600081600001805490509050919050565b6137318383613b3d565b61373e6000848484613782565b61377d576040517f08c379a000000000000000000000000000000000000000000000000000000000815260040161377490615354565b60405180910390fd5b505050565b60006137a38473ffffffffffffffffffffffffffffffffffffffff16613ccb565b6137b057600190506138de565b600061387763150b7a0260e01b6137c5612dc7565b8887876040516024016137db94939291906151f5565b604051602081830303815290604052907bffffffffffffffffffffffffffffffffffffffffffffffffffffffff19166020820180517bffffffffffffffffffffffffffffffffffffffffffffffffffffffff8381831617835250505050604051806060016040528060328152602001615a81603291398773ffffffffffffffffffffffffffffffffffffffff16613cde9092919063ffffffff16565b905060008180602001905181019061388f9190614286565b905063150b7a0260e01b7bffffffffffffffffffffffffffffffffffffffffffffffffffffffff1916817bffffffffffffffffffffffffffffffffffffffffffffffffffffffff191614925050505b949350505050565b600080836001016000848152602001908152602001600020541415905092915050565b600080836001016000848152602001908152602001600020549050600081146139e5576000600182039050600060018660000180549050039050600086600001828154811061395457fe5b906000526020600020015490508087600001848154811061397157fe5b90600052602060002001819055506001830187600101600083815260200190815260200160002081905550866000018054806139a957fe5b600190038181906000526020600020016000905590558660010160008781526020019081526020016000206000905560019450505050506139eb565b60009150505b92915050565b60006139fd8383613cf6565b613a56578260000182908060018154018082558091505060019003906000526020600020016000909190919091505582600001805490508360010160008481526020019081526020016000208190555060019050613a5b565b600090505b92915050565b6000808460010160008581526020019081526020016000205490506000811415613b0857846000016040518060400160405280868152602001858152509080600181540180825580915050600190039060005260206000209060020201600090919091909150600082015181600001556020820151816001015550508460000180549050856001016000868152602001908152602001600020819055506001915050613b36565b82856000016001830381548110613b1b57fe5b90600052602060002090600202016001018190555060009150505b9392505050565b600073ffffffffffffffffffffffffffffffffffffffff168273ffffffffffffffffffffffffffffffffffffffff161415613bad576040517f08c379a0000000000000000000000000000000000000000000000000000000008152600401613ba4906155f4565b60405180910390fd5b613bb681612daa565b15613bf6576040517f08c379a0000000000000000000000000000000000000000000000000000000008152600401613bed90615394565b60405180910390fd5b613c0260008383613527565b613c5381600160008573ffffffffffffffffffffffffffffffffffffffff1673ffffffffffffffffffffffffffffffffffffffff16815260200190815260200160002061354690919063ffffffff16565b50613c6a818360026135609092919063ffffffff16565b50808273ffffffffffffffffffffffffffffffffffffffff16600073ffffffffffffffffffffffffffffffffffffffff167fddf252ad1be2c89b69c2b068fc378daa952ba7f163c4a11628f55a4df523b3ef60405160405180910390a45050565b600080823b905060008111915050919050565b6060613ced8484600085613d19565b90509392505050565b600080836001016000848152602001908152602001600020541415905092915050565b606082471015613d5e576040517f08c379a0000000000000000000000000000000000000000000000000000000008152600401613d55906154f4565b60405180910390fd5b613d6785613ccb565b613da6576040517f08c379a0000000000000000000000000000000000000000000000000000000008152600401613d9d90615734565b60405180910390fd5b6000808673ffffffffffffffffffffffffffffffffffffffff168587604051613dcf9190615184565b60006040518083038185875af1925050503d8060008114613e0c576040519150601f19603f3d011682016040523d82523d6000602084013e613e11565b606091505b5091509150613e21828286613e2d565b92505050949350505050565b60608315613e3d57829050613e8d565b600083511115613e505782518084602001fd5b816040517f08c379a0000000000000000000000000000000000000000000000000000000008152600401613e8491906152d0565b60405180910390fd5b9392505050565b828054600181600116156101000203166002900490600052602060002090601f016020900481019282613eca5760008555613f11565b82601f10613ee357805160ff1916838001178555613f11565b82800160010185558215613f11579182015b82811115613f10578251825591602001919060010190613ef5565b5b509050613f1e9190613f22565b5090565b5b80821115613f3b576000816000905550600101613f23565b5090565b6000613f52613f4d84615800565b6157cf565b905082815260208101848484011115613f6a57600080fd5b613f758482856159b8565b509392505050565b6000613f90613f8b84615830565b6157cf565b905082815260208101848484011115613fa857600080fd5b613fb38482856159b8565b509392505050565b600081359050613fca81615a0d565b92915050565b600081359050613fdf81615a24565b92915050565b600081359050613ff481615a3b565b92915050565b60008135905061400981615a52565b92915050565b60008151905061401e81615a52565b92915050565b600082601f83011261403557600080fd5b8135614045848260208601613f3f565b91505092915050565b600082601f83011261405f57600080fd5b813561406f848260208601613f7d565b91505092915050565b60008135905061408781615a69565b92915050565b60006020828403121561409f57600080fd5b60006140ad84828501613fbb565b91505092915050565b6000602082840312156140c857600080fd5b60006140d684828501613fd0565b91505092915050565b600080604083850312156140f257600080fd5b600061410085828601613fbb565b925050602061411185828601613fbb565b9150509250929050565b60008060006060848603121561413057600080fd5b600061413e86828701613fbb565b935050602061414f86828701613fbb565b925050604061416086828701614078565b9150509250925092565b6000806000806080858703121561418057600080fd5b600061418e87828801613fbb565b945050602061419f87828801613fbb565b93505060406141b087828801614078565b925050606085013567ffffffffffffffff8111156141cd57600080fd5b6141d987828801614024565b91505092959194509250565b600080604083850312156141f857600080fd5b600061420685828601613fbb565b925050602061421785828601613fe5565b9150509250929050565b6000806040838503121561423457600080fd5b600061424285828601613fbb565b925050602061425385828601614078565b9150509250929050565b60006020828403121561426f57600080fd5b600061427d84828501613ffa565b91505092915050565b60006020828403121561429857600080fd5b60006142a68482850161400f565b91505092915050565b6000602082840312156142c157600080fd5b600082013567ffffffffffffffff8111156142db57600080fd5b6142e78482850161404e565b91505092915050565b60006020828403121561430257600080fd5b600061431084828501614078565b91505092915050565b60006143258383615166565b60208301905092915050565b61433a81615982565b82525050565b6143498161590e565b82525050565b614358816158fc565b82525050565b600061436982615885565b61437381856158b3565b935061437e83615860565b8060005b838110156143af5781516143968882614319565b97506143a1836158a6565b925050600181019050614382565b5085935050505092915050565b6143c581615920565b82525050565b60006143d682615890565b6143e081856158c4565b93506143f08185602086016159c7565b6143f9816159fc565b840191505092915050565b600061440f82615890565b61441981856158d5565b93506144298185602086016159c7565b80840191505092915050565b60006144408261589b565b61444a81856158e0565b935061445a8185602086016159c7565b614463816159fc565b840191505092915050565b60006144798261589b565b61448381856158f1565b93506144938185602086016159c7565b80840191505092915050565b6000815460018116600081146144bc57600181146144e257614526565b607f60028304166144cd81876158e0565b955060ff198316865260208601935050614526565b600282046144f081876158e0565b95506144fb85615870565b60005b8281101561451d578154818901526001820191506020810190506144fe565b80880195505050505b505092915050565b600061453b6022836158e0565b91507f456e756d657261626c655365743a20696e646578206f7574206f6620626f756e60008301527f64730000000000000000000000000000000000000000000000000000000000006020830152604082019050919050565b60006145a1601f836158e0565b91507f43484f4f53452041204b494e474d414b45522057495448494e2052414e4745006000830152602082019050919050565b60006145e16032836158e0565b91507f4552433732313a207472616e7366657220746f206e6f6e20455243373231526560008301527f63656976657220696d706c656d656e74657200000000000000000000000000006020830152604082019050919050565b60006146476026836158e0565b91507f4f776e61626c653a206e6577206f776e657220697320746865207a65726f206160008301527f64647265737300000000000000000000000000000000000000000000000000006020830152604082019050919050565b60006146ad601c836158e0565b91507f4552433732313a20746f6b656e20616c7265616479206d696e746564000000006000830152602082019050919050565b60006146ed6019836158e0565b91507f45746865722076616c7565206d757374206265203320455448000000000000006000830152602082019050919050565b600061472d601b836158e0565b91507f536166654d6174683a206164646974696f6e206f766572666c6f7700000000006000830152602082019050919050565b600061476d602e836158e0565b91507f507572636861736520776f756c6420657863656564206d617820737570706c7960008301527f206f66204b696e674d616b6572730000000000000000000000000000000000006020830152604082019050919050565b60006147d36025836158e0565b91507f53616c65206d7573742062652061637469766520746f206d696e74204b696e6760008301527f4d616b65720000000000000000000000000000000000000000000000000000006020830152604082019050919050565b60006148396020836158e0565b91507f4e6f7420656e6f7567682072657365727665206c65667420666f72207465616d6000830152602082019050919050565b60006148796024836158e0565b91507f4552433732313a207472616e7366657220746f20746865207a65726f2061646460008301527f72657373000000000000000000000000000000000000000000000000000000006020830152604082019050919050565b60006148df6019836158e0565b91507f4552433732313a20617070726f766520746f2063616c6c6572000000000000006000830152602082019050919050565b600061491f601f836158e0565b91507f45746865722076616c75652073656e74206973206e6f7420636f7272656374006000830152602082019050919050565b600061495f601e836158e0565b91507f536166654d6174683a207375627472616374696f6e206f766572666c6f7700006000830152602082019050919050565b600061499f6019836158e0565b91507f45746865722076616c7565206d757374206265203120455448000000000000006000830152602082019050919050565b60006149df6026836158e0565b91507f416464726573733a20696e73756666696369656e742062616c616e636520666f60008301527f722063616c6c00000000000000000000000000000000000000000000000000006020830152604082019050919050565b6000614a456021836158e0565b91507f45746865722076616c7565206d757374206265203620455448206f72206d6f7260008301527f65000000000000000000000000000000000000000000000000000000000000006020830152604082019050919050565b6000614aab602c836158e0565b91507f4552433732313a206f70657261746f7220717565727920666f72206e6f6e657860008301527f697374656e7420746f6b656e00000000000000000000000000000000000000006020830152604082019050919050565b6000614b116020836158e0565b91507f43616e206f6e6c79206d696e74203120746f6b656e7320617420612074696d656000830152602082019050919050565b6000614b51602b836158e0565b91507f457863616c69627572206d757374206e6f74206861766520616c72656164792060008301527f6265656e206d696e7465640000000000000000000000000000000000000000006020830152604082019050919050565b6000614bb76038836158e0565b91507f4552433732313a20617070726f76652063616c6c6572206973206e6f74206f7760008301527f6e6572206e6f7220617070726f76656420666f7220616c6c00000000000000006020830152604082019050919050565b6000614c1d602a836158e0565b91507f4552433732313a2062616c616e636520717565727920666f7220746865207a6560008301527f726f2061646472657373000000000000000000000000000000000000000000006020830152604082019050919050565b6000614c836022836158e0565b91507f456e756d657261626c654d61703a20696e646578206f7574206f6620626f756e60008301527f64730000000000000000000000000000000000000000000000000000000000006020830152604082019050919050565b6000614ce96020836158e0565b91507f4552433732313a206d696e7420746f20746865207a65726f20616464726573736000830152602082019050919050565b6000614d296021836158e0565b91507f536166654d6174683a206d756c7469706c69636174696f6e206f766572666c6f60008301527f77000000000000000000000000000000000000000000000000000000000000006020830152604082019050919050565b6000614d8f602c836158e0565b91507f4552433732313a20617070726f76656420717565727920666f72206e6f6e657860008301527f697374656e7420746f6b656e00000000000000000000000000000000000000006020830152604082019050919050565b6000614df56020836158e0565b91507f4f776e61626c653a2063616c6c6572206973206e6f7420746865206f776e65726000830152602082019050919050565b6000614e356029836158e0565b91507f4552433732313a207472616e73666572206f6620746f6b656e2074686174206960008301527f73206e6f74206f776e00000000000000000000000000000000000000000000006020830152604082019050919050565b6000614e9b602f836158e0565b91507f4552433732314d657461646174613a2055524920717565727920666f72206e6f60008301527f6e6578697374656e7420746f6b656e00000000000000000000000000000000006020830152604082019050919050565b6000614f016021836158e0565b91507f4552433732313a20617070726f76616c20746f2063757272656e74206f776e6560008301527f72000000000000000000000000000000000000000000000000000000000000006020830152604082019050919050565b6000614f676019836158e0565b91507f45746865722076616c7565206d757374206265203220455448000000000000006000830152602082019050919050565b6000614fa76016836158e0565b91507f4c6963656e736520616c7265616479206c6f636b6564000000000000000000006000830152602082019050919050565b6000614fe76031836158e0565b91507f4552433732313a207472616e736665722063616c6c6572206973206e6f74206f60008301527f776e6572206e6f7220617070726f7665640000000000000000000000000000006020830152604082019050919050565b600061504d601d836158e0565b91507f416464726573733a2063616c6c20746f206e6f6e2d636f6e74726163740000006000830152602082019050919050565b600061508d6019836158e0565b91507f45746865722076616c7565206d757374206265203420455448000000000000006000830152602082019050919050565b60006150cd6019836158e0565b91507f45746865722076616c7565206d757374206265203520455448000000000000006000830152602082019050919050565b600061510d6021836158e0565b91507f43616e206f6e6c79206d696e7420313020746f6b656e7320617420612074696d60008301527f65000000000000000000000000000000000000000000000000000000000000006020830152604082019050919050565b61516f81615978565b82525050565b61517e81615978565b82525050565b60006151908284614404565b915081905092915050565b60006151a7828561446e565b91506151b3828461446e565b91508190509392505050565b60006020820190506151d4600083018461434f565b92915050565b60006020820190506151ef6000830184614331565b92915050565b600060808201905061520a6000830187614340565b615217602083018661434f565b6152246040830185615175565b818103606083015261523681846143cb565b905095945050505050565b60006040820190506152566000830185614331565b6152636020830184615175565b9392505050565b600060408201905061527f600083018561434f565b61528c6020830184615175565b9392505050565b600060208201905081810360008301526152ad818461435e565b905092915050565b60006020820190506152ca60008301846143bc565b92915050565b600060208201905081810360008301526152ea8184614435565b905092915050565b6000602082019050818103600083015261530c818461449f565b905092915050565b6000602082019050818103600083015261532d8161452e565b9050919050565b6000602082019050818103600083015261534d81614594565b9050919050565b6000602082019050818103600083015261536d816145d4565b9050919050565b6000602082019050818103600083015261538d8161463a565b9050919050565b600060208201905081810360008301526153ad816146a0565b9050919050565b600060208201905081810360008301526153cd816146e0565b9050919050565b600060208201905081810360008301526153ed81614720565b9050919050565b6000602082019050818103600083015261540d81614760565b9050919050565b6000602082019050818103600083015261542d816147c6565b9050919050565b6000602082019050818103600083015261544d8161482c565b9050919050565b6000602082019050818103600083015261546d8161486c565b9050919050565b6000602082019050818103600083015261548d816148d2565b9050919050565b600060208201905081810360008301526154ad81614912565b9050919050565b600060208201905081810360008301526154cd81614952565b9050919050565b600060208201905081810360008301526154ed81614992565b9050919050565b6000602082019050818103600083015261550d816149d2565b9050919050565b6000602082019050818103600083015261552d81614a38565b9050919050565b6000602082019050818103600083015261554d81614a9e565b9050919050565b6000602082019050818103600083015261556d81614b04565b9050919050565b6000602082019050818103600083015261558d81614b44565b9050919050565b600060208201905081810360008301526155ad81614baa565b9050919050565b600060208201905081810360008301526155cd81614c10565b9050919050565b600060208201905081810360008301526155ed81614c76565b9050919050565b6000602082019050818103600083015261560d81614cdc565b9050919050565b6000602082019050818103600083015261562d81614d1c565b9050919050565b6000602082019050818103600083015261564d81614d82565b9050919050565b6000602082019050818103600083015261566d81614de8565b9050919050565b6000602082019050818103600083015261568d81614e28565b9050919050565b600060208201905081810360008301526156ad81614e8e565b9050919050565b600060208201905081810360008301526156cd81614ef4565b9050919050565b600060208201905081810360008301526156ed81614f5a565b9050919050565b6000602082019050818103600083015261570d81614f9a565b9050919050565b6000602082019050818103600083015261572d81614fda565b9050919050565b6000602082019050818103600083015261574d81615040565b9050919050565b6000602082019050818103600083015261576d81615080565b9050919050565b6000602082019050818103600083015261578d816150c0565b9050919050565b600060208201905081810360008301526157ad81615100565b9050919050565b60006020820190506157c96000830184615175565b92915050565b6000604051905081810181811067ffffffffffffffff821117156157f6576157f56159fa565b5b8060405250919050565b600067ffffffffffffffff82111561581b5761581a6159fa565b5b601f19601f8301169050602081019050919050565b600067ffffffffffffffff82111561584b5761584a6159fa565b5b601f19601f8301169050602081019050919050565b6000819050602082019050919050565b60008190508160005260206000209050919050565b600081519050919050565b600081519050919050565b600081519050919050565b6000602082019050919050565b600082825260208201905092915050565b600082825260208201905092915050565b600081905092915050565b600082825260208201905092915050565b600081905092915050565b600061590782615958565b9050919050565b600061591982615958565b9050919050565b60008115159050919050565b60007fffffffff0000000000000000000000000000000000000000000000000000000082169050919050565b600073ffffffffffffffffffffffffffffffffffffffff82169050919050565b6000819050919050565b600061598d82615994565b9050919050565b600061599f826159a6565b9050919050565b60006159b182615958565b9050919050565b82818337600083830152505050565b60005b838110156159e55780820151818401526020810190506159ca565b838111156159f4576000848401525b50505050565bfe5b6000601f19601f8301169050919050565b615a16816158fc565b8114615a2157600080fd5b50565b615a2d8161590e565b8114615a3857600080fd5b50565b615a4481615920565b8114615a4f57600080fd5b50565b615a5b8161592c565b8114615a6657600080fd5b50565b615a7281615978565b8114615a7d57600080fd5b5056fe4552433732313a207472616e7366657220746f206e6f6e20455243373231526563656976657220696d706c656d656e7465724552433732313a206f776e657220717565727920666f72206e6f6e6578697374656e7420746f6b656ea264697066735822122057ba7c150674fd2b5b32b8360a0847c0df9ff4d5c9b14326159dcd5c12bd046b64736f6c63430007060033"}}