{
  "opcodeHash": "0x689458ab9aef2a0a5fdb80a1dc6cacba1f5400c1f5054318d5f3d41361f3750d",
  "metalessHash": "0x096999991c9bea0aaa4adf42bee3184ed3ab112e12c01323b4fb94131f385390",
  "runtimeHash": "0x6d2344e48198bc175f65ea60dc8e140621c8a7d4960fecd5750932d8cc4a025a",
  "encodedMetadata": [
    {
      "bzzr1": "/swarm/bzzr1/567c6625bfb5d42ffa3ff16e78e5ee8f5d6e1837b70f333d00c15aa802aa10f5",
      "solc": "0.5.17"
    }
  ],
  "abi": [
    {
      "inputs": [],
      "payable": false,
      "stateMutability": "nonpayable",
      "type": "constructor"
    },
    {
      "anonymous": false,
      "inputs": [
        {
          "indexed": true,
          "internalType": "address",
          "name": "owner",
          "type": "address"
        },
        {
          "indexed": true,
          "internalType": "address",
          "name": "spender",
          "type": "address"
        },
        {
          "indexed": false,
          "internalType": "uint256",
          "name": "value",
          "type": "uint256"
        }
      ],
      "name": "Approval",
      "type": "event"
    },
    {
      "anonymous": false,
      "inputs": [
        {
          "indexed": true,
          "internalType": "address",
          "name": "previousOwner",
          "type": "address"
        },
        {
          "indexed": true,
          "internalType": "address",
          "name": "newOwner",
          "type": "address"
        }
      ],
      "name": "OwnershipTransferred",
      "type": "event"
    },
    {
      "anonymous": false,
      "inputs": [
        {
          "indexed": true,
          "internalType": "address",
          "name": "from",
          "type": "address"
        },
        {
          "indexed": true,
          "internalType": "address",
          "name": "to",
          "type": "address"
        },
        {
          "indexed": false,
          "internalType": "uint256",
          "name": "value",
          "type": "uint256"
        }
      ],
      "name": "Transfer",
      "type": "event"
    },
    {
      "payable": true,
      "stateMutability": "payable",
      "type": "fallback"
    },
    {
      "constant": true,
      "inputs": [
        {
          "internalType": "uint256",
          "name": "",
          "type": "uint256"
        }
      ],
      "name": "advisorMap",
      "outputs": [
        {
          "internalType": "uint256",
          "name": "",
          "type": "uint256"
        }
      ],
      "payable": false,
      "stateMutability": "view",
      "type": "function"
    },
    {
      "constant": true,
      "inputs": [
        {
          "internalType": "uint256",
          "name": "",
          "type": "uint256"
        }
      ],
      "name": "airdropMap",
      "outputs": [
        {
          "internalType": "uint256",
          "name": "",
          "type": "uint256"
        }
      ],
      "payable": false,
      "stateMutability": "view",
      "type": "function"
    },
    {
      "constant": true,
      "inputs": [
        {
          "internalType": "address",
          "name": "owner",
          "type": "address"
        },
        {
          "internalType": "address",
          "name": "spender",
          "type": "address"
        }
      ],
      "name": "allowance",
      "outputs": [
        {
          "internalType": "uint256",
          "name": "",
          "type": "uint256"
        }
      ],
      "payable": false,
      "stateMutability": "view",
      "type": "function"
    },
    {
      "constant": false,
      "inputs": [
        {
          "internalType": "address",
          "name": "spender",
          "type": "address"
        },
        {
          "internalType": "uint256",
          "name": "amount",
          "type": "uint256"
        }
      ],
      "name": "approve",
      "outputs": [
        {
          "internalType": "bool",
          "name": "",
          "type": "bool"
        }
      ],
      "payable": false,
      "stateMutability": "nonpayable",
      "type": "function"
    },
    {
      "constant": true,
      "inputs": [
        {
          "internalType": "address",
          "name": "account",
          "type": "address"
        }
      ],
      "name": "balanceOf",
      "outputs": [
        {
          "internalType": "uint256",
          "name": "",
          "type": "uint256"
        }
      ],
      "payable": false,
      "stateMutability": "view",
      "type": "function"
    },
    {
      "constant": false,
      "inputs": [
        {
          "internalType": "uint256",
          "name": "_amount",
          "type": "uint256"
        }
      ],
      "name": "burn",
      "outputs": [],
      "payable": false,
      "stateMutability": "nonpayable",
      "type": "function"
    },
    {
      "constant": true,
      "inputs": [],
      "name": "decimals",
      "outputs": [
        {
          "internalType": "uint8",
          "name": "",
          "type": "uint8"
        }
      ],
      "payable": false,
      "stateMutability": "view",
      "type": "function"
    },
    {
      "constant": false,
      "inputs": [
        {
          "internalType": "address",
          "name": "spender",
          "type": "address"
        },
        {
          "internalType": "uint256",
          "name": "subtractedValue",
          "type": "uint256"
        }
      ],
      "name": "decreaseAllowance",
      "outputs": [
        {
          "internalType": "bool",
          "name": "",
          "type": "bool"
        }
      ],
      "payable": false,
      "stateMutability": "nonpayable",
      "type": "function"
    },
    {
      "constant": true,
      "inputs": [
        {
          "internalType": "uint256",
          "name": "",
          "type": "uint256"
        }
      ],
      "name": "foundationMap",
      "outputs": [
        {
          "internalType": "uint256",
          "name": "",
          "type": "uint256"
        }
      ],
      "payable": false,
      "stateMutability": "view",
      "type": "function"
    },
    {
      "constant": true,
      "inputs": [
        {
          "internalType": "address",
          "name": "lockedAddress",
          "type": "address"
        }
      ],
      "name": "getAvailableBalance",
      "outputs": [
        {
          "internalType": "uint256",
          "name": "_amount",
          "type": "uint256"
        }
      ],
      "payable": false,
      "stateMutability": "view",
      "type": "function"
    },
    {
      "constant": true,
      "inputs": [],
      "name": "getBurnedAmountTotal",
      "outputs": [
        {
          "internalType": "uint256",
          "name": "_amount",
          "type": "uint256"
        }
      ],
      "payable": false,
      "stateMutability": "view",
      "type": "function"
    },
    {
      "constant": true,
      "inputs": [],
      "name": "getCirculatingSupplyTotal",
      "outputs": [
        {
          "internalType": "uint256",
          "name": "_amount",
          "type": "uint256"
        }
      ],
      "payable": false,
      "stateMutability": "view",
      "type": "function"
    },
    {
      "constant": true,
      "inputs": [],
      "name": "getLockedAddresses",
      "outputs": [
        {
          "internalType": "address[]",
          "name": "",
          "type": "address[]"
        }
      ],
      "payable": false,
      "stateMutability": "view",
      "type": "function"
    },
    {
      "constant": true,
      "inputs": [],
      "name": "getLockedAddressesCurrently",
      "outputs": [
        {
          "internalType": "address[]",
          "name": "",
          "type": "address[]"
        }
      ],
      "payable": false,
      "stateMutability": "view",
      "type": "function"
    },
    {
      "constant": true,
      "inputs": [
        {
          "internalType": "address",
          "name": "lockedAddress",
          "type": "address"
        }
      ],
      "name": "getLockedAmount",
      "outputs": [
        {
          "internalType": "uint256",
          "name": "_amount",
          "type": "uint256"
        }
      ],
      "payable": false,
      "stateMutability": "view",
      "type": "function"
    },
    {
      "constant": true,
      "inputs": [],
      "name": "getLockedAmountTotal",
      "outputs": [
        {
          "internalType": "uint256",
          "name": "_amount",
          "type": "uint256"
        }
      ],
      "payable": false,
      "stateMutability": "view",
      "type": "function"
    },
    {
      "constant": true,
      "inputs": [],
      "name": "getNumberOfLockedAddresses",
      "outputs": [
        {
          "internalType": "uint256",
          "name": "_count",
          "type": "uint256"
        }
      ],
      "payable": false,
      "stateMutability": "view",
      "type": "function"
    },
    {
      "constant": true,
      "inputs": [],
      "name": "getNumberOfLockedAddressesCurrently",
      "outputs": [
        {
          "internalType": "uint256",
          "name": "_count",
          "type": "uint256"
        }
      ],
      "payable": false,
      "stateMutability": "view",
      "type": "function"
    },
    {
      "constant": false,
      "inputs": [
        {
          "internalType": "address",
          "name": "spender",
          "type": "address"
        },
        {
          "internalType": "uint256",
          "name": "addedValue",
          "type": "uint256"
        }
      ],
      "name": "increaseAllowance",
      "outputs": [
        {
          "internalType": "bool",
          "name": "",
          "type": "bool"
        }
      ],
      "payable": false,
      "stateMutability": "nonpayable",
      "type": "function"
    },
    {
      "constant": true,
      "inputs": [],
      "name": "isOwner",
      "outputs": [
        {
          "internalType": "bool",
          "name": "",
          "type": "bool"
        }
      ],
      "payable": false,
      "stateMutability": "view",
      "type": "function"
    },
    {
      "constant": true,
      "inputs": [
        {
          "internalType": "address",
          "name": "",
          "type": "address"
        },
        {
          "internalType": "uint256",
          "name": "",
          "type": "uint256"
        }
      ],
      "name": "lockList",
      "outputs": [
        {
          "internalType": "uint256",
          "name": "releaseDate",
          "type": "uint256"
        },
        {
          "internalType": "uint256",
          "name": "amount",
          "type": "uint256"
        }
      ],
      "payable": false,
      "stateMutability": "view",
      "type": "function"
    },
    {
      "constant": true,
      "inputs": [],
      "name": "name",
      "outputs": [
        {
          "internalType": "string",
          "name": "",
          "type": "string"
        }
      ],
      "payable": false,
      "stateMutability": "view",
      "type": "function"
    },
    {
      "constant": true,
      "inputs": [],
      "name": "owner",
      "outputs": [
        {
          "internalType": "address",
          "name": "",
          "type": "address"
        }
      ],
      "payable": false,
      "stateMutability": "view",
      "type": "function"
    },
    {
      "constant": false,
      "inputs": [],
      "name": "renounceOwnership",
      "outputs": [],
      "payable": false,
      "stateMutability": "nonpayable",
      "type": "function"
    },
    {
      "constant": true,
      "inputs": [
        {
          "internalType": "uint256",
          "name": "",
          "type": "uint256"
        }
      ],
      "name": "reserveMap",
      "outputs": [
        {
          "internalType": "uint256",
          "name": "",
          "type": "uint256"
        }
      ],
      "payable": false,
      "stateMutability": "view",
      "type": "function"
    },
    {
      "constant": true,
      "inputs": [],
      "name": "symbol",
      "outputs": [
        {
          "internalType": "string",
          "name": "",
          "type": "string"
        }
      ],
      "payable": false,
      "stateMutability": "view",
      "type": "function"
    },
    {
      "constant": true,
      "inputs": [],
      "name": "totalSupply",
      "outputs": [
        {
          "internalType": "uint256",
          "name": "",
          "type": "uint256"
        }
      ],
      "payable": false,
      "stateMutability": "view",
      "type": "function"
    },
    {
      "constant": false,
      "inputs": [
        {
          "internalType": "address",
          "name": "_receiver",
          "type": "address"
        },
        {
          "internalType": "uint256",
          "name": "_amount",
          "type": "uint256"
        }
      ],
      "name": "transfer",
      "outputs": [
        {
          "internalType": "bool",
          "name": "success",
          "type": "bool"
        }
      ],
      "payable": false,
      "stateMutability": "nonpayable",
      "type": "function"
    },
    {
      "constant": false,
      "inputs": [
        {
          "internalType": "address",
          "name": "_from",
          "type": "address"
        },
        {
          "internalType": "address",
          "name": "_receiver",
          "type": "address"
        },
        {
          "internalType": "uint256",
          "name": "_amount",
          "type": "uint256"
        }
      ],
      "name": "transferFrom",
      "outputs": [
        {
          "internalType": "bool",
          "name": "",
          "type": "bool"
        }
      ],
      "payable": false,
      "stateMutability": "nonpayable",
      "type": "function"
    },
    {
      "constant": false,
      "inputs": [
        {
          "internalType": "address",
          "name": "newOwner",
          "type": "address"
        }
      ],
      "name": "transferOwnership",
      "outputs": [],
      "payable": false,
      "stateMutability": "nonpayable",
      "type": "function"
    },
    {
      "constant": false,
      "inputs": [
        {
          "internalType": "address",
          "name": "_receiver",
          "type": "address"
        },
        {
          "internalType": "uint256",
          "name": "_amount",
          "type": "uint256"
        },
        {
          "internalType": "uint256",
          "name": "_releaseDate",
          "type": "uint256"
        }
      ],
      "name": "transferWithLock",
      "outputs": [
        {
          "internalType": "bool",
          "name": "success",
          "type": "bool"
        }
      ],
      "payable": false,
      "stateMutability": "nonpayable",
      "type": "function"
    }
  ],
  "bytecode": {
    "object": "608060405273278406d5a5198203ecc54b6a4b3612f174a73f69600760006101000a81548173ffffffffffffffffffffffffffffffffffffffff021916908373ffffffffffffffffffffffffffffffffffffffff1602179055507372ebac03226b1937094c09ca3c181b52630695d5600860006101000a81548173ffffffffffffffffffffffffffffffffffffffff021916908373ffffffffffffffffffffffffffffffffffffffff16021790555073b6f85f280e30c4f2b2739e62da8166471a170d23600960006101000a81548173ffffffffffffffffffffffffffffffffffffffff021916908373ffffffffffffffffffffffffffffffffffffffff16021790555073638551d8b1a5c582bec4ca978a894ca1b830157e600a60006101000a81548173ffffffffffffffffffffffffffffffffffffffff021916908373ffffffffffffffffffffffffffffffffffffffff160217905550735b4774c795a35269fbc858f84b2242d86fef75ed600b60006101000a81548173ffffffffffffffffffffffffffffffffffffffff021916908373ffffffffffffffffffffffffffffffffffffffff160217905550348015620001ba57600080fd5b5060405180606001604052806022815260200162003c11602291396040518060400160405280600481526020017f5649444200000000000000000000000000000000000000000000000000000000815250600882600090805190602001906200022592919062001301565b5081600190805190602001906200023e92919062001301565b5080600260006101000a81548160ff021916908360ff16021790555050505060006200026f6200097c60201b60201c565b905080600660006101000a81548173ffffffffffffffffffffffffffffffffffffffff021916908373ffffffffffffffffffffffffffffffffffffffff1602179055508073ffffffffffffffffffffffffffffffffffffffff16600073ffffffffffffffffffffffffffffffffffffffff167f8be0079c531659141344cd1fd0a4f28419497f9722a3daafe3b4186f6b6457e060405160405180910390a3506360c3f900600e600060018152602001908152602001600020819055506361b53b80600e6000600281526020019081526020016000208190555063604aaf00600f600060018152602001908152602001600020819055506360c3f900600f6000600281526020019081526020016000208190555063613d4300600f600060038152602001908152602001600020819055506361b53b80600f6000600481526020019081526020016000208190555063622be280600f600060058152602001908152602001600020819055506362a52c80600f6000600681526020019081526020016000208190555063631e7680600f600060078152602001908152602001600020819055506363966f00600f6000600881526020019081526020016000208190555063640d1600600f600060098152602001908152602001600020819055506364866000600f6000600a8152602001908152602001600020819055506364ffaa00600f6000600b815260200190815260200160002081905550636577a280600f6000600c8152602001908152602001600020819055506365ef9b00600f6000600d815260200190815260200160002081905550636668e500600f6000600e8152602001908152602001600020819055506366e22f00600f6000600f81526020019081526020016000208190555063675a2780600f6000601081526020019081526020016000208190555063604aaf006010600060018152602001908152602001600020819055506360c3f90060106000600281526020019081526020016000208190555063613d43006010600060038152602001908152602001600020819055506361b53b8060106000600481526020019081526020016000208190555063622be2806010600060058152602001908152602001600020819055506362a52c806010600060068152602001908152602001600020819055506361b53b80601160006001815260200190815260200160002081905550620005f36200098460201b60201c565b60ff16600a0a633b9aca0002600c8190555062000628620006196200099b60201b60201c565b600c54620009c560201b60201c565b6200067c600760009054906101000a900473ffffffffffffffffffffffffffffffffffffffff166200065f6200098460201b60201c565b60ff16600a0a631dcd65000262000b9160201b620022171760201c565b50620006d0600a60009054906101000a900473ffffffffffffffffffffffffffffffffffffffff16620006b46200098460201b60201c565b60ff16600a0a629896800262000b9160201b620022171760201c565b5062000725600b60009054906101000a900473ffffffffffffffffffffffffffffffffffffffff16620007086200098460201b60201c565b60ff16600a0a63017d78400262000b9160201b620022171760201c565b506000600190505b60028111620007a85762000799600860009054906101000a900473ffffffffffffffffffffffffffffffffffffffff166200076d6200098460201b60201c565b60ff16600a0a630773594002600e60008581526020019081526020016000205462000bbf60201b60201c565b5080806001019150506200072d565b506000600190505b601081116200082a576200081b600960009054906101000a900473ffffffffffffffffffffffffffffffffffffffff16620007f06200098460201b60201c565b60ff16600a0a6277359402600f60008581526020019081526020016000205462000bbf60201b60201c565b508080600101915050620007b0565b506000600190505b60058111620008ac576200089d600a60009054906101000a900473ffffffffffffffffffffffffffffffffffffffff16620008726200098460201b60201c565b60ff16600a0a627f281502600f60008581526020019081526020016000205462000bbf60201b60201c565b50808060010191505062000832565b5062000910600a60009054906101000a900473ffffffffffffffffffffffffffffffffffffffff16620008e46200098460201b60201c565b60ff16600a0a627f281702600f6000600681526020019081526020016000205462000bbf60201b60201c565b5062000975600b60009054906101000a900473ffffffffffffffffffffffffffffffffffffffff16620009486200098460201b60201c565b60ff16600a0a6302625a000260116000600181526020019081526020016000205462000bbf60201b60201c565b50620013ca565b600033905090565b6000600260009054906101000a900460ff16905090565b6000600660009054906101000a900473ffffffffffffffffffffffffffffffffffffffff16905090565b600073ffffffffffffffffffffffffffffffffffffffff168273ffffffffffffffffffffffffffffffffffffffff16141562000a69576040517f08c379a000000000000000000000000000000000000000000000000000000000815260040180806020018281038252601f8152602001807f45524332303a206d696e7420746f20746865207a65726f20616464726573730081525060200191505060405180910390fd5b62000a858160055462000ee760201b62001f151790919060201c565b60058190555062000ae481600360008573ffffffffffffffffffffffffffffffffffffffff1673ffffffffffffffffffffffffffffffffffffffff1681526020019081526020016000205462000ee760201b62001f151790919060201c565b600360008473ffffffffffffffffffffffffffffffffffffffff1673ffffffffffffffffffffffffffffffffffffffff168152602001908152602001600020819055508173ffffffffffffffffffffffffffffffffffffffff16600073ffffffffffffffffffffffffffffffffffffffff167fddf252ad1be2c89b69c2b068fc378daa952ba7f163c4a11628f55a4df523b3ef836040518082815260200191505060405180910390a35050565b600062000bb562000ba76200097c60201b60201c565b848462000f7060201b60201c565b6001905092915050565b6000600860009054906101000a900473ffffffffffffffffffffffffffffffffffffffff1673ffffffffffffffffffffffffffffffffffffffff163373ffffffffffffffffffffffffffffffffffffffff16148062000c6b5750600960009054906101000a900473ffffffffffffffffffffffffffffffffffffffff1673ffffffffffffffffffffffffffffffffffffffff163373ffffffffffffffffffffffffffffffffffffffff16145b8062000cc45750600a60009054906101000a900473ffffffffffffffffffffffffffffffffffffffff1673ffffffffffffffffffffffffffffffffffffffff163373ffffffffffffffffffffffffffffffffffffffff16145b8062000d1d5750600b60009054906101000a900473ffffffffffffffffffffffffffffffffffffffff1673ffffffffffffffffffffffffffffffffffffffff163373ffffffffffffffffffffffffffffffffffffffff16145b8062000d63575062000d346200099b60201b60201c565b73ffffffffffffffffffffffffffffffffffffffff163373ffffffffffffffffffffffffffffffffffffffff16145b62000d6d57600080fd5b62000d8533858562000f7060201b620022351760201c565b6000600d60008673ffffffffffffffffffffffffffffffffffffffff1673ffffffffffffffffffffffffffffffffffffffff16815260200190815260200160002080549050141562000e385760128490806001815401808255809150509060018203906000526020600020016000909192909190916101000a81548173ffffffffffffffffffffffffffffffffffffffff021916908373ffffffffffffffffffffffffffffffffffffffff160217905550505b62000e4262001388565b6040518060400160405280848152602001858152509050600d60008673ffffffffffffffffffffffffffffffffffffffff1673ffffffffffffffffffffffffffffffffffffffff1681526020019081526020016000208190806001815401808255809150509060018203906000526020600020906002020160009091929091909150600082015181600001556020820151816001015550505060019150509392505050565b60008082840190508381101562000f66576040517f08c379a000000000000000000000000000000000000000000000000000000000815260040180806020018281038252601b8152602001807f536166654d6174683a206164646974696f6e206f766572666c6f77000000000081525060200191505060405180910390fd5b8091505092915050565b600073ffffffffffffffffffffffffffffffffffffffff168373ffffffffffffffffffffffffffffffffffffffff16141562000ff8576040517f08c379a000000000000000000000000000000000000000000000000000000000815260040180806020018281038252602581526020018062003c336025913960400191505060405180910390fd5b600073ffffffffffffffffffffffffffffffffffffffff168273ffffffffffffffffffffffffffffffffffffffff16141562001080576040517f08c379a000000000000000000000000000000000000000000000000000000000815260040180806020018281038252602381526020018062003bc86023913960400191505060405180910390fd5b620010f48160405180606001604052806026815260200162003beb60269139600360008773ffffffffffffffffffffffffffffffffffffffff1673ffffffffffffffffffffffffffffffffffffffff168152602001908152602001600020546200123d60201b62002157179092919060201c565b600360008573ffffffffffffffffffffffffffffffffffffffff1673ffffffffffffffffffffffffffffffffffffffff168152602001908152602001600020819055506200119081600360008573ffffffffffffffffffffffffffffffffffffffff1673ffffffffffffffffffffffffffffffffffffffff1681526020019081526020016000205462000ee760201b62001f151790919060201c565b600360008473ffffffffffffffffffffffffffffffffffffffff1673ffffffffffffffffffffffffffffffffffffffff168152602001908152602001600020819055508173ffffffffffffffffffffffffffffffffffffffff168373ffffffffffffffffffffffffffffffffffffffff167fddf252ad1be2c89b69c2b068fc378daa952ba7f163c4a11628f55a4df523b3ef836040518082815260200191505060405180910390a3505050565b6000838311158290620012ee576040517f08c379a00000000000000000000000000000000000000000000000000000000081526004018080602001828103825283818151815260200191508051906020019080838360005b83811015620012b257808201518184015260208101905062001295565b50505050905090810190601f168015620012e05780820380516001836020036101000a031916815260200191505b509250505060405180910390fd5b5060008385039050809150509392505050565b828054600181600116156101000203166002900490600052602060002090601f016020900481019282601f106200134457805160ff191683800117855562001375565b8280016001018555821562001375579182015b828111156200137457825182559160200191906001019062001357565b5b509050620013849190620013a2565b5090565b604051806040016040528060008152602001600081525090565b620013c791905b80821115620013c3576000816000905550600101620013a9565b5090565b90565b6127ee80620013da6000396000f3fe6080604052600436106101d85760003560e01c8063728e9e2411610102578063a9059cbb11610095578063c8eb119711610064578063c8eb119714610aaa578063dd62ed3e14610b20578063de6baccb14610ba5578063f2fde38b14610c22576101d8565b8063a9059cbb1461092d578063b7ca28f7146109a0578063c2091cfb146109ef578063c454ea8a14610a5b576101d8565b80638f32d59b116100d15780638f32d59b14610796578063929ec537146107c557806395d89b411461082a578063a457c2d7146108ba576101d8565b8063728e9e241461067d57806372d47d36146106a85780638da5cb5b146107145780638e94ae5f1461076b576101d8565b80632c41f2a61161017a57806342966c681161014957806342966c68146105615780636c24a76f1461059c57806370a0823114610601578063715018a614610666576101d8565b80632c41f2a6146104435780632ca9fe8a1461046e578063313ce567146104bd57806339509351146104ee576101d8565b80630d6b44eb116101b65780630d6b44eb1461032f57806318160ddd1461035a5780631ec4280a1461038557806323b872dd146103b0576101d8565b806306fdde03146101dd578063095ea7b31461026d5780630c241466146102e0575b600080fd5b3480156101e957600080fd5b506101f2610c73565b6040518080602001828103825283818151815260200191508051906020019080838360005b83811015610232578082015181840152602081019050610217565b50505050905090810190601f16801561025f5780820380516001836020036101000a031916815260200191505b509250505060405180910390f35b34801561027957600080fd5b506102c66004803603604081101561029057600080fd5b81019080803573ffffffffffffffffffffffffffffffffffffffff16906020019092919080359060200190929190505050610d15565b604051808215151515815260200191505060405180910390f35b3480156102ec57600080fd5b506103196004803603602081101561030357600080fd5b8101908080359060200190929190505050610d33565b6040518082815260200191505060405180910390f35b34801561033b57600080fd5b50610344610d4b565b6040518082815260200191505060405180910390f35b34801561036657600080fd5b5061036f610dcb565b6040518082815260200191505060405180910390f35b34801561039157600080fd5b5061039a610dd5565b6040518082815260200191505060405180910390f35b3480156103bc57600080fd5b50610429600480360360608110156103d357600080fd5b81019080803573ffffffffffffffffffffffffffffffffffffffff169060200190929190803573ffffffffffffffffffffffffffffffffffffffff16906020019092919080359060200190929190505050610df8565b604051808215151515815260200191505060405180910390f35b34801561044f57600080fd5b50610458610eac565b6040518082815260200191505060405180910390f35b34801561047a57600080fd5b506104a76004803603602081101561049157600080fd5b8101908080359060200190929190505050610ed4565b6040518082815260200191505060405180910390f35b3480156104c957600080fd5b506104d2610eec565b604051808260ff1660ff16815260200191505060405180910390f35b3480156104fa57600080fd5b506105476004803603604081101561051157600080fd5b81019080803573ffffffffffffffffffffffffffffffffffffffff16906020019092919080359060200190929190505050610f03565b604051808215151515815260200191505060405180910390f35b34801561056d57600080fd5b5061059a6004803603602081101561058457600080fd5b8101908080359060200190929190505050610fb6565b005b3480156105a857600080fd5b506105eb600480360360208110156105bf57600080fd5b81019080803573ffffffffffffffffffffffffffffffffffffffff169060200190929190505050610fc3565b6040518082815260200191505060405180910390f35b34801561060d57600080fd5b506106506004803603602081101561062457600080fd5b81019080803573ffffffffffffffffffffffffffffffffffffffff169060200190929190505050610ffa565b6040518082815260200191505060405180910390f35b34801561067257600080fd5b5061067b611043565b005b34801561068957600080fd5b5061069261117e565b6040518082815260200191505060405180910390f35b3480156106b457600080fd5b506106bd61118b565b6040518080602001828103825283818151815260200191508051906020019060200280838360005b838110156107005780820151818401526020810190506106e5565b505050509050019250505060405180910390f35b34801561072057600080fd5b50610729611219565b604051808273ffffffffffffffffffffffffffffffffffffffff1673ffffffffffffffffffffffffffffffffffffffff16815260200191505060405180910390f35b34801561077757600080fd5b50610780611243565b6040518082815260200191505060405180910390f35b3480156107a257600080fd5b506107ab6112cc565b604051808215151515815260200191505060405180910390f35b3480156107d157600080fd5b50610814600480360360208110156107e857600080fd5b81019080803573ffffffffffffffffffffffffffffffffffffffff16906020019092919050505061132b565b6040518082815260200191505060405180910390f35b34801561083657600080fd5b5061083f611463565b6040518080602001828103825283818151815260200191508051906020019080838360005b8381101561087f578082015181840152602081019050610864565b50505050905090810190601f1680156108ac5780820380516001836020036101000a031916815260200191505b509250505060405180910390f35b3480156108c657600080fd5b50610913600480360360408110156108dd57600080fd5b81019080803573ffffffffffffffffffffffffffffffffffffffff16906020019092919080359060200190929190505050611505565b604051808215151515815260200191505060405180910390f35b34801561093957600080fd5b506109866004803603604081101561095057600080fd5b81019080803573ffffffffffffffffffffffffffffffffffffffff169060200190929190803590602001909291905050506115d2565b604051808215151515815260200191505060405180910390f35b3480156109ac57600080fd5b506109d9600480360360208110156109c357600080fd5b8101908080359060200190929190505050611634565b6040518082815260200191505060405180910390f35b3480156109fb57600080fd5b50610a0461164c565b6040518080602001828103825283818151815260200191508051906020019060200280838360005b83811015610a47578082015181840152602081019050610a2c565b505050509050019250505060405180910390f35b348015610a6757600080fd5b50610a9460048036036020811015610a7e57600080fd5b8101908080359060200190929190505050611785565b6040518082815260200191505060405180910390f35b348015610ab657600080fd5b50610b0360048036036040811015610acd57600080fd5b81019080803573ffffffffffffffffffffffffffffffffffffffff1690602001909291908035906020019092919050505061179d565b604051808381526020018281526020019250505060405180910390f35b348015610b2c57600080fd5b50610b8f60048036036040811015610b4357600080fd5b81019080803573ffffffffffffffffffffffffffffffffffffffff169060200190929190803573ffffffffffffffffffffffffffffffffffffffff1690602001909291905050506117db565b6040518082815260200191505060405180910390f35b348015610bb157600080fd5b50610c0860048036036060811015610bc857600080fd5b81019080803573ffffffffffffffffffffffffffffffffffffffff1690602001909291908035906020019092919080359060200190929190505050611862565b604051808215151515815260200191505060405180910390f35b348015610c2e57600080fd5b50610c7160048036036020811015610c4557600080fd5b81019080803573ffffffffffffffffffffffffffffffffffffffff169060200190929190505050611b6d565b005b606060008054600181600116156101000203166002900480601f016020809104026020016040519081016040528092919081815260200182805460018160011615610100020316600290048015610d0b5780601f10610ce057610100808354040283529160200191610d0b565b820191906000526020600020905b815481529060010190602001808311610cee57829003601f168201915b5050505050905090565b6000610d29610d22611bf3565b8484611bfb565b6001905092915050565b600e6020528060005260406000206000915090505481565b6000806000905060008090505b601280549050811015610dc3576000610da760128381548110610d7757fe5b9060005260206000200160009054906101000a900473ffffffffffffffffffffffffffffffffffffffff1661132b565b1115610db65781806001019250505b8080600101915050610d58565b508091505090565b6000600554905090565b6000610df3610de2610dcb565b600c54611df290919063ffffffff16565b905090565b60008073ffffffffffffffffffffffffffffffffffffffff168473ffffffffffffffffffffffffffffffffffffffff161415610e3357600080fd5b600073ffffffffffffffffffffffffffffffffffffffff168373ffffffffffffffffffffffffffffffffffffffff161415610e6d57600080fd5b610e7784336117db565b821115610e8357600080fd5b610e8c84610fc3565b821115610e9857600080fd5b610ea3848484611e3c565b90509392505050565b6000610ecf610eb9611243565b610ec1610dcb565b611df290919063ffffffff16565b905090565b60116020528060005260406000206000915090505481565b6000600260009054906101000a900460ff16905090565b6000610fac610f10611bf3565b84610fa78560046000610f21611bf3565b73ffffffffffffffffffffffffffffffffffffffff1673ffffffffffffffffffffffffffffffffffffffff16815260200190815260200160002060008973ffffffffffffffffffffffffffffffffffffffff1673ffffffffffffffffffffffffffffffffffffffff16815260200190815260200160002054611f1590919063ffffffff16565b611bfb565b6001905092915050565b610fc03382611f9d565b50565b600080610fcf83610ffa565b90506000610fdc8461132b565b9050610ff18183611df290919063ffffffff16565b92505050919050565b6000600360008373ffffffffffffffffffffffffffffffffffffffff1673ffffffffffffffffffffffffffffffffffffffff168152602001908152602001600020549050919050565b61104b6112cc565b6110bd576040517f08c379a00000000000000000000000000000000000000000000000000000000081526004018080602001828103825260208152602001807f4f776e61626c653a2063616c6c6572206973206e6f7420746865206f776e657281525060200191505060405180910390fd5b600073ffffffffffffffffffffffffffffffffffffffff16600660009054906101000a900473ffffffffffffffffffffffffffffffffffffffff1673ffffffffffffffffffffffffffffffffffffffff167f8be0079c531659141344cd1fd0a4f28419497f9722a3daafe3b4186f6b6457e060405160405180910390a36000600660006101000a81548173ffffffffffffffffffffffffffffffffffffffff021916908373ffffffffffffffffffffffffffffffffffffffff160217905550565b6000601280549050905090565b6060601280548060200260200160405190810160405280929190818152602001828054801561120f57602002820191906000526020600020905b8160009054906101000a900473ffffffffffffffffffffffffffffffffffffffff1673ffffffffffffffffffffffffffffffffffffffff16815260200190600101908083116111c5575b5050505050905090565b6000600660009054906101000a900473ffffffffffffffffffffffffffffffffffffffff16905090565b6000806000905060008090505b6012805490508110156112c457600061129f6012838154811061126f57fe5b9060005260206000200160009054906101000a900473ffffffffffffffffffffffffffffffffffffffff1661132b565b90506112b48184611f1590919063ffffffff16565b9250508080600101915050611250565b508091505090565b6000600660009054906101000a900473ffffffffffffffffffffffffffffffffffffffff1673ffffffffffffffffffffffffffffffffffffffff1661130f611bf3565b73ffffffffffffffffffffffffffffffffffffffff1614905090565b6000806000905060008090505b600d60008573ffffffffffffffffffffffffffffffffffffffff1673ffffffffffffffffffffffffffffffffffffffff1681526020019081526020016000208054905081101561145957600d60008573ffffffffffffffffffffffffffffffffffffffff1673ffffffffffffffffffffffffffffffffffffffff16815260200190815260200160002081815481106113cc57fe5b90600052602060002090600202016000015442101561144c576000600d60008673ffffffffffffffffffffffffffffffffffffffff1673ffffffffffffffffffffffffffffffffffffffff168152602001908152602001600020828154811061143157fe5b90600052602060002090600202016001015490508083019250505b8080600101915050611338565b5080915050919050565b606060018054600181600116156101000203166002900480601f0160208091040260200160405190810160405280929190818152602001828054600181600116156101000203166002900480156114fb5780601f106114d0576101008083540402835291602001916114fb565b820191906000526020600020905b8154815290600101906020018083116114de57829003601f168201915b5050505050905090565b60006115c8611512611bf3565b846115c385604051806060016040528060258152602001612795602591396004600061153c611bf3565b73ffffffffffffffffffffffffffffffffffffffff1673ffffffffffffffffffffffffffffffffffffffff16815260200190815260200160002060008a73ffffffffffffffffffffffffffffffffffffffff1673ffffffffffffffffffffffffffffffffffffffff168152602001908152602001600020546121579092919063ffffffff16565b611bfb565b6001905092915050565b60008073ffffffffffffffffffffffffffffffffffffffff168373ffffffffffffffffffffffffffffffffffffffff16141561160d57600080fd5b61161633610fc3565b82111561162257600080fd5b61162c8383612217565b905092915050565b600f6020528060005260406000206000915090505481565b606080611657610d4b565b6040519080825280602002602001820160405280156116855781602001602082028038833980820191505090505b509050600080905060008090505b60128054905081101561177c5760006116e2601283815481106116b257fe5b9060005260206000200160009054906101000a900473ffffffffffffffffffffffffffffffffffffffff1661132b565b111561176f57601281815481106116f557fe5b9060005260206000200160009054906101000a900473ffffffffffffffffffffffffffffffffffffffff1683838151811061172c57fe5b602002602001019073ffffffffffffffffffffffffffffffffffffffff16908173ffffffffffffffffffffffffffffffffffffffff168152505081806001019250505b8080600101915050611693565b50819250505090565b60106020528060005260406000206000915090505481565b600d60205281600052604060002081815481106117b657fe5b9060005260206000209060020201600091509150508060000154908060010154905082565b6000600460008473ffffffffffffffffffffffffffffffffffffffff1673ffffffffffffffffffffffffffffffffffffffff16815260200190815260200160002060008373ffffffffffffffffffffffffffffffffffffffff1673ffffffffffffffffffffffffffffffffffffffff16815260200190815260200160002054905092915050565b6000600860009054906101000a900473ffffffffffffffffffffffffffffffffffffffff1673ffffffffffffffffffffffffffffffffffffffff163373ffffffffffffffffffffffffffffffffffffffff16148061190d5750600960009054906101000a900473ffffffffffffffffffffffffffffffffffffffff1673ffffffffffffffffffffffffffffffffffffffff163373ffffffffffffffffffffffffffffffffffffffff16145b806119655750600a60009054906101000a900473ffffffffffffffffffffffffffffffffffffffff1673ffffffffffffffffffffffffffffffffffffffff163373ffffffffffffffffffffffffffffffffffffffff16145b806119bd5750600b60009054906101000a900473ffffffffffffffffffffffffffffffffffffffff1673ffffffffffffffffffffffffffffffffffffffff163373ffffffffffffffffffffffffffffffffffffffff16145b806119fa57506119cb611219565b73ffffffffffffffffffffffffffffffffffffffff163373ffffffffffffffffffffffffffffffffffffffff16145b611a0357600080fd5b611a0e338585612235565b6000600d60008673ffffffffffffffffffffffffffffffffffffffff1673ffffffffffffffffffffffffffffffffffffffff168152602001908152602001600020805490501415611ac05760128490806001815401808255809150509060018203906000526020600020016000909192909190916101000a81548173ffffffffffffffffffffffffffffffffffffffff021916908373ffffffffffffffffffffffffffffffffffffffff160217905550505b611ac8612635565b6040518060400160405280848152602001858152509050600d60008673ffffffffffffffffffffffffffffffffffffffff1673ffffffffffffffffffffffffffffffffffffffff1681526020019081526020016000208190806001815401808255809150509060018203906000526020600020906002020160009091929091909150600082015181600001556020820151816001015550505060019150509392505050565b611b756112cc565b611be7576040517f08c379a00000000000000000000000000000000000000000000000000000000081526004018080602001828103825260208152602001807f4f776e61626c653a2063616c6c6572206973206e6f7420746865206f776e657281525060200191505060405180910390fd5b611bf0816124ef565b50565b600033905090565b600073ffffffffffffffffffffffffffffffffffffffff168373ffffffffffffffffffffffffffffffffffffffff161415611c81576040517f08c379a00000000000000000000000000000000000000000000000000000000081526004018080602001828103825260248152602001806127716024913960400191505060405180910390fd5b600073ffffffffffffffffffffffffffffffffffffffff168273ffffffffffffffffffffffffffffffffffffffff161415611d07576040517f08c379a00000000000000000000000000000000000000000000000000000000081526004018080602001828103825260228152602001806126bb6022913960400191505060405180910390fd5b80600460008573ffffffffffffffffffffffffffffffffffffffff1673ffffffffffffffffffffffffffffffffffffffff16815260200190815260200160002060008473ffffffffffffffffffffffffffffffffffffffff1673ffffffffffffffffffffffffffffffffffffffff168152602001908152602001600020819055508173ffffffffffffffffffffffffffffffffffffffff168373ffffffffffffffffffffffffffffffffffffffff167f8c5be1e5ebec7d5bd14f71427d1e84f3dd0314c0f7b2291e5b200ac8c7c3b925836040518082815260200191505060405180910390a3505050565b6000611e3483836040518060400160405280601e81526020017f536166654d6174683a207375627472616374696f6e206f766572666c6f770000815250612157565b905092915050565b6000611e49848484612235565b611f0a84611e55611bf3565b611f058560405180606001604052806028815260200161270360289139600460008b73ffffffffffffffffffffffffffffffffffffffff1673ffffffffffffffffffffffffffffffffffffffff1681526020019081526020016000206000611ebb611bf3565b73ffffffffffffffffffffffffffffffffffffffff1673ffffffffffffffffffffffffffffffffffffffff168152602001908152602001600020546121579092919063ffffffff16565b611bfb565b600190509392505050565b600080828401905083811015611f93576040517f08c379a000000000000000000000000000000000000000000000000000000000815260040180806020018281038252601b8152602001807f536166654d6174683a206164646974696f6e206f766572666c6f77000000000081525060200191505060405180910390fd5b8091505092915050565b600073ffffffffffffffffffffffffffffffffffffffff168273ffffffffffffffffffffffffffffffffffffffff161415612023576040517f08c379a000000000000000000000000000000000000000000000000000000000815260040180806020018281038252602181526020018061272b6021913960400191505060405180910390fd5b61208f8160405180606001604052806022815260200161267360229139600360008673ffffffffffffffffffffffffffffffffffffffff1673ffffffffffffffffffffffffffffffffffffffff168152602001908152602001600020546121579092919063ffffffff16565b600360008473ffffffffffffffffffffffffffffffffffffffff1673ffffffffffffffffffffffffffffffffffffffff168152602001908152602001600020819055506120e781600554611df290919063ffffffff16565b600581905550600073ffffffffffffffffffffffffffffffffffffffff168273ffffffffffffffffffffffffffffffffffffffff167fddf252ad1be2c89b69c2b068fc378daa952ba7f163c4a11628f55a4df523b3ef836040518082815260200191505060405180910390a35050565b6000838311158290612204576040517f08c379a00000000000000000000000000000000000000000000000000000000081526004018080602001828103825283818151815260200191508051906020019080838360005b838110156121c95780820151818401526020810190506121ae565b50505050905090810190601f1680156121f65780820380516001836020036101000a031916815260200191505b509250505060405180910390fd5b5060008385039050809150509392505050565b600061222b612224611bf3565b8484612235565b6001905092915050565b600073ffffffffffffffffffffffffffffffffffffffff168373ffffffffffffffffffffffffffffffffffffffff1614156122bb576040517f08c379a000000000000000000000000000000000000000000000000000000000815260040180806020018281038252602581526020018061274c6025913960400191505060405180910390fd5b600073ffffffffffffffffffffffffffffffffffffffff168273ffffffffffffffffffffffffffffffffffffffff161415612341576040517f08c379a00000000000000000000000000000000000000000000000000000000081526004018080602001828103825260238152602001806126506023913960400191505060405180910390fd5b6123ad816040518060600160405280602681526020016126dd60269139600360008773ffffffffffffffffffffffffffffffffffffffff1673ffffffffffffffffffffffffffffffffffffffff168152602001908152602001600020546121579092919063ffffffff16565b600360008573ffffffffffffffffffffffffffffffffffffffff1673ffffffffffffffffffffffffffffffffffffffff1681526020019081526020016000208190555061244281600360008573ffffffffffffffffffffffffffffffffffffffff1673ffffffffffffffffffffffffffffffffffffffff16815260200190815260200160002054611f1590919063ffffffff16565b600360008473ffffffffffffffffffffffffffffffffffffffff1673ffffffffffffffffffffffffffffffffffffffff168152602001908152602001600020819055508173ffffffffffffffffffffffffffffffffffffffff168373ffffffffffffffffffffffffffffffffffffffff167fddf252ad1be2c89b69c2b068fc378daa952ba7f163c4a11628f55a4df523b3ef836040518082815260200191505060405180910390a3505050565b600073ffffffffffffffffffffffffffffffffffffffff168173ffffffffffffffffffffffffffffffffffffffff161415612575576040517f08c379a00000000000000000000000000000000000000000000000000000000081526004018080602001828103825260268152602001806126956026913960400191505060405180910390fd5b8073ffffffffffffffffffffffffffffffffffffffff16600660009054906101000a900473ffffffffffffffffffffffffffffffffffffffff1673ffffffffffffffffffffffffffffffffffffffff167f8be0079c531659141344cd1fd0a4f28419497f9722a3daafe3b4186f6b6457e060405160405180910390a380600660006101000a81548173ffffffffffffffffffffffffffffffffffffffff021916908373ffffffffffffffffffffffffffffffffffffffff16021790555050565b60405180604001604052806000815260200160008152509056fe45524332303a207472616e7366657220746f20746865207a65726f206164647265737345524332303a206275726e20616d6f756e7420657863656564732062616c616e63654f776e61626c653a206e6577206f776e657220697320746865207a65726f206164647265737345524332303a20617070726f766520746f20746865207a65726f206164647265737345524332303a207472616e7366657220616d6f756e7420657863656564732062616c616e636545524332303a207472616e7366657220616d6f756e74206578636565647320616c6c6f77616e636545524332303a206275726e2066726f6d20746865207a65726f206164647265737345524332303a207472616e736665722066726f6d20746865207a65726f206164647265737345524332303a20617070726f76652066726f6d20746865207a65726f206164647265737345524332303a2064656372656173656420616c6c6f77616e63652062656c6f77207a65726fa265627a7a723158203eb952d50c4b33e8d94b04ba1ab7bdbcd9e8f044e8e3eae2756b11e6cbd8469c64736f6c6343000511003245524332303a207472616e7366657220746f20746865207a65726f206164647265737345524332303a207472616e7366657220616d6f756e7420657863656564732062616c616e6365564e444320496e7465726e6174696f6e616c204469676974616c2042616e6b696e6745524332303a207472616e736665722066726f6d20746865207a65726f2061646472657373"
  }
}