{"compiler":"v0.7.4+commit.3f05b770","opcodeHash":"0xe3480913a8836c252838faf3e18ac077d99f5d773ba39560d68f1c17a572f21d","metalessHash":"0x68809a7eda12b954213e7948286c7accad7ff4b0f1435b537c1b9f88ed15ac87","runtimeHash":"0x08afdf8a422dbe2bead98a147911ea104185b48ec1fa9aff68a4906cf6e4490d","encodedMetadata":[{"ipfs":"/ipfs/QmaAF3FjZuMaB1t8VUtmdjpKFa3j3LYVKnVm5qn6u9vikK","solc":"0.7.4"}],"abi":[{"anonymous":false,"inputs":[],"name":"BoxClosed","type":"event"},{"anonymous":false,"inputs":[],"name":"BoxOpened","type":"event"},{"anonymous":false,"inputs":[{"indexed":false,"internalType":"address","name":"beneficiary","type":"address"},{"indexed":false,"internalType":"uint256","name":"value","type":"uint256"},{"indexed":false,"internalType":"uint256","name":"timeStamp","type":"uint256"}],"name":"FundsReleasedToBeneficiary","type":"event"},{"anonymous":false,"inputs":[{"indexed":false,"internalType":"address","name":"tokenAddress","type":"address"},{"indexed":false,"internalType":"address","name":"beneficiary","type":"address"},{"indexed":false,"internalType":"uint256","name":"duration","type":"uint256"},{"indexed":false,"internalType":"uint256","name":"periods","type":"uint256"}],"name":"Initialized","type":"event"},{"anonymous":false,"inputs":[{"indexed":true,"internalType":"address","name":"previousOwner","type":"address"},{"indexed":true,"internalType":"address","name":"newOwner","type":"address"}],"name":"OwnershipTransferred","type":"event"},{"anonymous":false,"inputs":[{"indexed":false,"internalType":"uint256","name":"paymentSize","type":"uint256"},{"indexed":false,"internalType":"uint256","name":"startTime","type":"uint256"},{"indexed":false,"internalType":"uint256","name":"paymentsRemaining","type":"uint256"}],"name":"PaymentsUpdatedOnDeposit","type":"event"},{"inputs":[{"internalType":"uint256","name":"amountIn","type":"uint256"}],"name":"approveERC","outputs":[{"internalType":"bool","name":"","type":"bool"}],"stateMutability":"nonpayable","type":"function"},{"inputs":[{"internalType":"address","name":"beneficiary","type":"address"}],"name":"changeBeneficiary","outputs":[],"stateMutability":"nonpayable","type":"function"},{"inputs":[{"internalType":"address","name":"erc","type":"address"}],"name":"changeToken","outputs":[],"stateMutability":"nonpayable","type":"function"},{"inputs":[{"internalType":"uint256","name":"amount","type":"uint256"}],"name":"deposit","outputs":[],"stateMutability":"nonpayable","type":"function"},{"inputs":[],"name":"getBalance","outputs":[{"internalType":"uint256","name":"","type":"uint256"}],"stateMutability":"view","type":"function"},{"inputs":[],"name":"getBeneficiary","outputs":[{"internalType":"address","name":"","type":"address"}],"stateMutability":"view","type":"function"},{"inputs":[],"name":"getElapsedReward","outputs":[{"internalType":"uint256","name":"","type":"uint256"},{"internalType":"uint256","name":"","type":"uint256"},{"internalType":"uint256","name":"","type":"uint256"}],"stateMutability":"view","type":"function"},{"inputs":[],"name":"getPaymentSize","outputs":[{"internalType":"uint256","name":"","type":"uint256"}],"stateMutability":"view","type":"function"},{"inputs":[],"name":"getStatus","outputs":[{"internalType":"string","name":"","type":"string"}],"stateMutability":"view","type":"function"},{"inputs":[],"name":"getTimeRemaining","outputs":[{"internalType":"uint256","name":"","type":"uint256"}],"stateMutability":"view","type":"function"},{"inputs":[],"name":"getToken","outputs":[{"internalType":"address","name":"","type":"address"}],"stateMutability":"view","type":"function"},{"inputs":[{"internalType":"address","name":"tokenAddress","type":"address"},{"internalType":"address","name":"beneficiary","type":"address"},{"internalType":"uint256","name":"duration","type":"uint256"},{"internalType":"uint256","name":"durationMultiple","type":"uint256"},{"internalType":"uint256","name":"p","type":"uint256"}],"name":"initialize","outputs":[],"stateMutability":"nonpayable","type":"function"},{"inputs":[],"name":"owner","outputs":[{"internalType":"address","name":"","type":"address"}],"stateMutability":"view","type":"function"},{"inputs":[],"name":"release","outputs":[],"stateMutability":"nonpayable","type":"function"},{"inputs":[],"name":"renounceOwnership","outputs":[],"stateMutability":"nonpayable","type":"function"},{"inputs":[{"internalType":"address","name":"newOwner","type":"address"}],"name":"transferOwnership","outputs":[],"stateMutability":"nonpayable","type":"function"}],"bytecode":{"object":"608060405260006006556000600755600060085534801561001f57600080fd5b50600061002a610079565b600080546001600160a01b0319166001600160a01b0383169081178255604051929350917f8be0079c531659141344cd1fd0a4f28419497f9722a3daafe3b4186f6b6457e0908290a35061007d565b3390565b6113328061008c6000396000f3fe608060405234801561001057600080fd5b50600436106101005760003560e01c8063715018a611610097578063d13f90b411610066578063d13f90b414610284578063dac6270d146102c6578063dc070657146102ce578063f2fde38b146102f457610100565b8063715018a61461024f57806386d1a69f146102575780638da5cb5b1461025f578063b6b55f251461026757610100565b8063565a2e2c116100d3578063565a2e2c146101c85780636041344f146101d057806366829b16146101f65780636f7bbb5b1461021e57610100565b806312065fe01461010557806321df0da71461011f5780634e69d56014610143578063555e94f7146101c0575b600080fd5b61010d61031a565b60408051918252519081900360200190f35b610127610397565b604080516001600160a01b039092168252519081900360200190f35b61014b6103a6565b6040805160208082528351818301528351919283929083019185019080838360005b8381101561018557818101518382015260200161016d565b50505050905090810190601f1680156101b25780820380516001836020036101000a031916815260200191505b509250505060405180910390f35b61010d610473565b61012761049c565b6101d86104ab565b60408051938452602084019290925282820152519081900360600190f35b61021c6004803603602081101561020c57600080fd5b50356001600160a01b03166105df565b005b61023b6004803603602081101561023457600080fd5b5035610698565b604080519115158252519081900360200190f35b61021c61071d565b61021c6107bf565b6101276109db565b61021c6004803603602081101561027d57600080fd5b50356109ea565b61021c600480360360a081101561029a57600080fd5b506001600160a01b03813581169160208101359091169060408101359060608101359060800135610bc1565b61010d610e0d565b61021c600480360360208110156102e457600080fd5b50356001600160a01b0316610e31565b61021c6004803603602081101561030a57600080fd5b50356001600160a01b0316610eea565b600254604080516370a0823160e01b815230600482015290516000926001600160a01b0316916370a08231916024808301926020929190829003018186803b15801561036557600080fd5b505afa158015610379573d6000803e3d6000fd5b505050506040513d602081101561038f57600080fd5b505190505b90565b6002546001600160a01b031690565b600254604080516370a0823160e01b815230600482015290516060926000926001600160a01b03909116916370a0823191602480820192602092909190829003018186803b1580156103f757600080fd5b505afa15801561040b573d6000803e3d6000fd5b505050506040513d602081101561042157600080fd5b50511115610450575060408051808201909152600a815269109bde0810db1bdcd95960b21b6020820152610394565b506040805180820190915260088152672137bc1027b832b760c11b602082015290565b60008061047e61031a565b6005541161048e57600554610496565b61049661031a565b91505090565b6003546001600160a01b031690565b6000806000600154600014156104cc575050600754600654600092506105da565b60006001546007544203816104dd57fe5b049050806104f9576000600754600654935093509350506105da565b6006548111610508578061050c565b6006545b60065490915042906000906105219084610fe2565b600254604080516370a0823160e01b815230600482015290519293506000926001600160a01b03909216916370a0823191602480820192602092909190829003018186803b15801561057257600080fd5b505afa158015610586573d6000803e3d6000fd5b505050506040513d602081101561059c57600080fd5b50516005549091506000906105b1908661102d565b90506105ce8282116105c357816105c5565b825b60085490611086565b97509295509093505050505b909192565b6105e76110e0565b6000546001600160a01b03908116911614610637576040805162461bcd60e51b81526020600482018190526024820152600080516020611229833981519152604482015290519081900360640190fd5b600654156106765760405162461bcd60e51b815260040180806020018281038252603f815260200180611279603f913960400191505060405180910390fd5b600280546001600160a01b0319166001600160a01b0392909216919091179055565b6002546040805163095ea7b360e01b81523060048201526024810184905290516000926001600160a01b03169163095ea7b391604480830192602092919082900301818787803b1580156106eb57600080fd5b505af11580156106ff573d6000803e3d6000fd5b505050506040513d602081101561071557600080fd5b505192915050565b6107256110e0565b6000546001600160a01b03908116911614610775576040805162461bcd60e51b81526020600482018190526024820152600080516020611229833981519152604482015290519081900360640190fd5b600080546040516001600160a01b03909116907f8be0079c531659141344cd1fd0a4f28419497f9722a3daafe3b4186f6b6457e0908390a3600080546001600160a01b0319169055565b6007544210156108005760405162461bcd60e51b815260040180806020018281038252603281526020018061118f6032913960400191505060405180910390fd5b6108086110e4565b60088054600090915580156108e4576002546003546040805163a9059cbb60e01b81526001600160a01b039283166004820152602481018590529051919092169163a9059cbb9160448083019260209291908290030181600087803b15801561087057600080fd5b505af1158015610884573d6000803e3d6000fd5b505050506040513d602081101561089a57600080fd5b50516108e4576040805162461bcd60e51b81526020600482015260146024820152731c995b19585cd948199d5b991cc819985a5b195960621b604482015290519081900360640190fd5b600254604080516370a0823160e01b815230600482015290516000926001600160a01b0316916370a08231916024808301926020929190829003018186803b15801561092f57600080fd5b505afa158015610943573d6000803e3d6000fd5b505050506040513d602081101561095957600080fd5b505190508061098c576040517fe49b5c05d81a6a78fafec12ea4875cdb7b73a65c84ad17a77045ad73eae3145e90600090a15b600354604080516001600160a01b039092168252602082018490524282820152517f9bd82e051713c4f9fbc39346b2d6901e1c5250f750bb526781f116d15d46f0f29181900360600190a15050565b6000546001600160a01b031690565b600254604080516323b872dd60e01b81523360048201523060248201526044810184905290516001600160a01b03909216916323b872dd916064808201926020929091908290030181600087803b158015610a4457600080fd5b505af1158015610a58573d6000803e3d6000fd5b505050506040513d6020811015610a6e57600080fd5b5051610ab3576040805162461bcd60e51b815260206004820152600f60248201526e1d1c985b9cd9995c8819985a5b1959608a1b604482015290519081900360640190fd5b600254604080516370a0823160e01b815230600482015290516000926001600160a01b0316916370a08231916024808301926020929190829003018186803b158015610afe57600080fd5b505afa158015610b12573d6000803e3d6000fd5b505050506040513d6020811015610b2857600080fd5b5051600654909150610b3f57600454600655426007555b6006548181610b4a57fe5b04600581905560075460065460408051938452602084019290925282820152517f809ddd73fba007b10377633695958cc9ab0c34b75ac62ee2926b99a57f4db8299181900360600190a16040517f9f49231b1d20fb8f49fbf3784e332f4fc12eabd7410db4b9d15ecce092ac1f6a90600090a15050565b610bc96110e0565b6000546001600160a01b03908116911614610c19576040805162461bcd60e51b81526020600482018190526024820152600080516020611229833981519152604482015290519081900360640190fd5b610c216107bf565b60065415610c605760405162461bcd60e51b81526004018080602001828103825260308152602001806112496030913960400191505060405180910390fd5b600083118015610c705750600081115b610cab5760405162461bcd60e51b81526004018080602001828103825260218152602001806112086021913960400191505060405180910390fd5b600280546001600160a01b038088166001600160a01b031992831617909255600380549287169290911691909117905560088311610da75782610cf2576001829055610da2565b6001831415610d0757603c8202600155610da2565b6002831415610d1d57610e108202600155610da2565b6003831415610d3457620151808202600155610da2565b6004831415610d4b5762093a808202600155610da2565b6005831415610d625762278d008202600155610da2565b6006831415610d7a576301dfe2008202600155610da2565b6007831415610d91576277f8808202600155610da2565b6008831415610da25762eff1006001555b610dad565b60018390555b6004819055600154604080516001600160a01b038089168252871660208201528082019290925260608201839052517f80a4f91a1411c5f4e795a325f8a70cfa7b44e183d7210a793e00a248056638819181900360800190a15050505050565b6001546007546000910142811115610e29574290039050610394565b600091505090565b610e396110e0565b6000546001600160a01b03908116911614610e89576040805162461bcd60e51b81526020600482018190526024820152600080516020611229833981519152604482015290519081900360640190fd5b60065415610ec85760405162461bcd60e51b81526004018080602001828103825260458152602001806112b86045913960600191505060405180910390fd5b600380546001600160a01b0319166001600160a01b0392909216919091179055565b610ef26110e0565b6000546001600160a01b03908116911614610f42576040805162461bcd60e51b81526020600482018190526024820152600080516020611229833981519152604482015290519081900360640190fd5b6001600160a01b038116610f875760405162461bcd60e51b81526004018080602001828103825260268152602001806111c16026913960400191505060405180910390fd5b600080546040516001600160a01b03808516939216917f8be0079c531659141344cd1fd0a4f28419497f9722a3daafe3b4186f6b6457e091a3600080546001600160a01b0319166001600160a01b0392909216919091179055565b600061102483836040518060400160405280601e81526020017f536166654d6174683a207375627472616374696f6e206f766572666c6f7700008152506110f7565b90505b92915050565b60008261103c57506000611027565b8282028284828161104957fe5b04146110245760405162461bcd60e51b81526004018080602001828103825260218152602001806111e76021913960400191505060405180910390fd5b600082820183811015611024576040805162461bcd60e51b815260206004820152601b60248201527f536166654d6174683a206164646974696f6e206f766572666c6f770000000000604482015290519081900360640190fd5b3390565b6110ec6104ab565b600655600755600855565b600081848411156111865760405162461bcd60e51b81526004018080602001828103825283818151815260200191508051906020019080838360005b8381101561114b578181015183820152602001611133565b50505050905090810190601f1680156111785780820380516001836020036101000a031916815260200191505b509250505060405180910390fd5b50505090039056fe546f6b656e54696d656c6f636b3a2063757272656e742074696d65206973206265666f72652072656c656173652074696d654f776e61626c653a206e6577206f776e657220697320746865207a65726f2061646472657373536166654d6174683a206d756c7469706c69636174696f6e206f766572666c6f7765706f636820706172616d6574657273206d75737420626520706f7369746976654f776e61626c653a2063616c6c6572206973206e6f7420746865206f776e657263616e6e6f7420696e697469616c697a6520647572696e67206163746976652076657374696e67207363686564756c65546f6b656e54696d656c6f636b3a2063616e6e6f74206368616e676520746f6b656e207768696c6520746f6b656e2062616c616e636520706f736974697665546f6b656e54696d656c6f636b3a2063616e6e6f74206368616e67652062656e6566696369617279207768696c6520746f6b656e2062616c616e636520706f736974697665a264697066735822122014c91c6a28aca44da899be755f83024c1511ab1082d4c8731df2370401c8a4bd64736f6c63430007040033"}}