{
  "opcodeHash": "0x543cc2fb3be3aa27cc8a3206cfc4a47974cf7e4f60bead2a919fd63dd77be047",
  "metalessHash": "0x033fb024e09c698a3ae797b5f6e86c8bdb141e08143f46f711fdab24643fc0db",
  "runtimeHash": "0x7cfd0f5ef6f8ad4978b23abb2200de9bf4c6c8b1eb72f54912c63dc2476c6831",
  "encodedMetadata": [
    {
      "ipfs": "/ipfs/QmdmrReT2UXW1hzFmDtM3yY9GYN3Gzh5UjPS6yTrbxneBd",
      "solc": "0.7.0"
    }
  ],
  "abi": [
    {
      "anonymous": false,
      "inputs": [
        {
          "indexed": false,
          "internalType": "address[]",
          "name": "assets",
          "type": "address[]"
        },
        {
          "indexed": false,
          "internalType": "uint256",
          "name": "amt",
          "type": "uint256"
        },
        {
          "indexed": false,
          "internalType": "uint256",
          "name": "getId",
          "type": "uint256"
        },
        {
          "indexed": false,
          "internalType": "uint256",
          "name": "setId",
          "type": "uint256"
        }
      ],
      "name": "LogClaimed",
      "type": "event"
    },
    {
      "inputs": [
        {
          "internalType": "address[]",
          "name": "assets",
          "type": "address[]"
        },
        {
          "internalType": "uint256",
          "name": "amt",
          "type": "uint256"
        },
        {
          "internalType": "uint256",
          "name": "getId",
          "type": "uint256"
        },
        {
          "internalType": "uint256",
          "name": "setId",
          "type": "uint256"
        }
      ],
      "name": "claim",
      "outputs": [],
      "stateMutability": "payable",
      "type": "function"
    },
    {
      "inputs": [],
      "name": "connectorID",
      "outputs": [
        {
          "internalType": "uint256",
          "name": "_type",
          "type": "uint256"
        },
        {
          "internalType": "uint256",
          "name": "_id",
          "type": "uint256"
        }
      ],
      "stateMutability": "pure",
      "type": "function"
    },
    {
      "inputs": [],
      "name": "name",
      "outputs": [
        {
          "internalType": "string",
          "name": "",
          "type": "string"
        }
      ],
      "stateMutability": "view",
      "type": "function"
    }
  ],
  "bytecode": {
    "object": "608060405234801561001057600080fd5b506104f4806100206000396000f3fe6080604052600436106100345760003560e01c806306fdde0314610039578063608e630b146100c9578063eb15f78114610160575b600080fd5b34801561004557600080fd5b5061004e610192565b6040518080602001828103825283818151815260200191508051906020019080838360005b8381101561008e578082015181840152602081019050610073565b50505050905090810190601f1680156100bb5780820380516001836020036101000a031916815260200191505b509250505060405180910390f35b61015e600480360360808110156100df57600080fd5b81019080803590602001906401000000008111156100fc57600080fd5b82018360208201111561010e57600080fd5b8035906020019184602083028401116401000000008311171561013057600080fd5b90919293919293908035906020019092919080359060200190929190803590602001909291905050506101cb565b005b34801561016c57600080fd5b5061017561035d565b604051808381526020018281526020019250505060405180910390f35b6040518060400160405280601281526020017f416176652d496e63656e74697665732d7631000000000000000000000000000081525081565b60006101d78385610370565b905060008686905011610252576040517f08c379a000000000000000000000000000000000000000000000000000000000815260040180806020018281038252600e8152602001807f696e76616c69642d61737365747300000000000000000000000000000000000081525060200191505060405180910390fd5b73d784927ff2f95ba542bfc824c8a8a98f3495f6b573ffffffffffffffffffffffffffffffffffffffff16633111e7b3878784306040518563ffffffff1660e01b815260040180806020018481526020018373ffffffffffffffffffffffffffffffffffffffff1681526020018281038252868682818152602001925060200280828437600081840152601f19601f82011690508083019250505095505050505050602060405180830381600087803b15801561030e57600080fd5b505af1158015610322573d6000803e3d6000fd5b505050506040513d602081101561033857600080fd5b81019080805190602001909291905050509050610355828261042a565b505050505050565b6000806001605c80925081935050509091565b600080831461042057738a5419cfc711b2343c17a6abf4b2bafabb06957f73ffffffffffffffffffffffffffffffffffffffff1663a9c70eaa846040518263ffffffff1660e01b815260040180828152602001915050602060405180830381600087803b1580156103e057600080fd5b505af11580156103f4573d6000803e3d6000fd5b505050506040513d602081101561040a57600080fd5b8101908080519060200190929190505050610422565b815b905092915050565b600082146104ba57738a5419cfc711b2343c17a6abf4b2bafabb06957f73ffffffffffffffffffffffffffffffffffffffff166361e3c94483836040518363ffffffff1660e01b81526004018083815260200182815260200192505050600060405180830381600087803b1580156104a157600080fd5b505af11580156104b5573d6000803e3d6000fd5b505050505b505056fea2646970667358221220d65dbc3a68ef23212be1f4c363975f2820aac1b7627b595d73535513b5fc9e7f64736f6c63430007000033"
  }
}