{"compiler":"v0.7.5+commit.eb77ed08","opcodeHash":"0x1e253cbf6a4821b3c08c9454ad527e082d6e0068fb99d209b978b7968eb7aadf","metalessHash":"0x62bb5f0df9f14be0964c880ff69b1c936a4a21001828ee3e23dcde4faaeb95d5","runtimeHash":"0x82d5b26d54e3dcfa0d7098b51ab1141d16d70ad23c67c4531f6194dc36bbf448","encodedMetadata":[{"ipfs":"/ipfs/QmPepmQyixNvjjnu5vxWpMxSvjrQdbdi1fD2X25MPCF1zU","solc":"0.7.5"}],"abi":[{"inputs":[{"internalType":"address","name":"_BTRFLY","type":"address"},{"internalType":"address","name":"_OHM","type":"address"},{"internalType":"address","name":"_sOHM","type":"address"},{"internalType":"address","name":"_CVX","type":"address"},{"internalType":"address","name":"_CRV","type":"address"},{"internalType":"uint256","name":"_OHMFloor","type":"uint256"},{"internalType":"uint256","name":"_CVXFloor","type":"uint256"},{"internalType":"uint256","name":"_CRVFloor","type":"uint256"},{"internalType":"uint256","name":"_newBlocksNeededForQueue","type":"uint256"}],"stateMutability":"nonpayable","type":"constructor"},{"anonymous":false,"inputs":[{"indexed":true,"internalType":"enum REDACTEDTreasury.MANAGING","name":"managing","type":"uint8"},{"indexed":false,"internalType":"address","name":"activated","type":"address"},{"indexed":false,"internalType":"bool","name":"result","type":"bool"}],"name":"ChangeActivated","type":"event"},{"anonymous":false,"inputs":[{"indexed":true,"internalType":"enum REDACTEDTreasury.MANAGING","name":"managing","type":"uint8"},{"indexed":false,"internalType":"address","name":"queued","type":"address"}],"name":"ChangeQueued","type":"event"},{"anonymous":false,"inputs":[{"indexed":true,"internalType":"address","name":"debtor","type":"address"},{"indexed":true,"internalType":"address","name":"token","type":"address"},{"indexed":false,"internalType":"uint256","name":"amount","type":"uint256"},{"indexed":false,"internalType":"uint256","name":"value","type":"uint256"}],"name":"CreateDebt","type":"event"},{"anonymous":false,"inputs":[{"indexed":true,"internalType":"address","name":"token","type":"address"},{"indexed":false,"internalType":"uint256","name":"amount","type":"uint256"},{"indexed":false,"internalType":"uint256","name":"value","type":"uint256"}],"name":"Deposit","type":"event"},{"anonymous":false,"inputs":[{"indexed":true,"internalType":"address","name":"previousOwner","type":"address"},{"indexed":true,"internalType":"address","name":"newOwner","type":"address"}],"name":"OwnershipPulled","type":"event"},{"anonymous":false,"inputs":[{"indexed":true,"internalType":"address","name":"previousOwner","type":"address"},{"indexed":true,"internalType":"address","name":"newOwner","type":"address"}],"name":"OwnershipPushed","type":"event"},{"anonymous":false,"inputs":[{"indexed":true,"internalType":"address","name":"debtor","type":"address"},{"indexed":true,"internalType":"address","name":"token","type":"address"},{"indexed":false,"internalType":"uint256","name":"amount","type":"uint256"},{"indexed":false,"internalType":"uint256","name":"value","type":"uint256"}],"name":"RepayDebt","type":"event"},{"anonymous":false,"inputs":[{"indexed":true,"internalType":"uint256","name":"totalReserves","type":"uint256"}],"name":"ReservesAudited","type":"event"},{"anonymous":false,"inputs":[{"indexed":true,"internalType":"address","name":"token","type":"address"},{"indexed":false,"internalType":"uint256","name":"amount","type":"uint256"}],"name":"ReservesManaged","type":"event"},{"anonymous":false,"inputs":[{"indexed":true,"internalType":"uint256","name":"totalReserves","type":"uint256"}],"name":"ReservesUpdated","type":"event"},{"anonymous":false,"inputs":[{"indexed":true,"internalType":"address","name":"caller","type":"address"},{"indexed":true,"internalType":"address","name":"recipient","type":"address"},{"indexed":false,"internalType":"uint256","name":"amount","type":"uint256"}],"name":"RewardsMinted","type":"event"},{"anonymous":false,"inputs":[{"indexed":true,"internalType":"address","name":"token","type":"address"},{"indexed":false,"internalType":"uint256","name":"amount","type":"uint256"},{"indexed":false,"internalType":"address","name":"niceGuy","type":"address"}],"name":"Simp","type":"event"},{"anonymous":false,"inputs":[{"indexed":true,"internalType":"address","name":"token","type":"address"},{"indexed":false,"internalType":"uint256","name":"amount","type":"uint256"},{"indexed":false,"internalType":"uint256","name":"value","type":"uint256"}],"name":"Withdrawal","type":"event"},{"anonymous":false,"inputs":[{"indexed":false,"internalType":"address","name":"token","type":"address"},{"indexed":false,"internalType":"uint256","name":"value","type":"uint256"}],"name":"tokenValueSet","type":"event"},{"inputs":[],"name":"BTRFLY","outputs":[{"internalType":"address","name":"","type":"address"}],"stateMutability":"view","type":"function"},{"inputs":[{"internalType":"address","name":"","type":"address"}],"name":"LiquidityDepositorQueue","outputs":[{"internalType":"uint256","name":"","type":"uint256"}],"stateMutability":"view","type":"function"},{"inputs":[{"internalType":"address","name":"","type":"address"}],"name":"LiquidityManagerQueue","outputs":[{"internalType":"uint256","name":"","type":"uint256"}],"stateMutability":"view","type":"function"},{"inputs":[{"internalType":"address","name":"","type":"address"}],"name":"LiquidityTokenQueue","outputs":[{"internalType":"uint256","name":"","type":"uint256"}],"stateMutability":"view","type":"function"},{"inputs":[{"internalType":"address","name":"","type":"address"}],"name":"ReserveManagerQueue","outputs":[{"internalType":"uint256","name":"","type":"uint256"}],"stateMutability":"view","type":"function"},{"inputs":[],"name":"auditReserves","outputs":[],"stateMutability":"nonpayable","type":"function"},{"inputs":[],"name":"blocksNeededForQueue","outputs":[{"internalType":"uint256","name":"","type":"uint256"}],"stateMutability":"view","type":"function"},{"inputs":[{"internalType":"address","name":"","type":"address"}],"name":"bondCalculator","outputs":[{"internalType":"address","name":"","type":"address"}],"stateMutability":"view","type":"function"},{"inputs":[],"name":"deactivateAndreMode","outputs":[],"stateMutability":"nonpayable","type":"function"},{"inputs":[{"internalType":"address","name":"","type":"address"}],"name":"debtorBalance","outputs":[{"internalType":"uint256","name":"","type":"uint256"}],"stateMutability":"view","type":"function"},{"inputs":[{"internalType":"address","name":"","type":"address"}],"name":"debtorQueue","outputs":[{"internalType":"uint256","name":"","type":"uint256"}],"stateMutability":"view","type":"function"},{"inputs":[{"internalType":"uint256","name":"","type":"uint256"}],"name":"debtors","outputs":[{"internalType":"address","name":"","type":"address"}],"stateMutability":"view","type":"function"},{"inputs":[{"internalType":"uint256","name":"_amount","type":"uint256"},{"internalType":"address","name":"_token","type":"address"},{"internalType":"uint256","name":"_profit","type":"uint256"}],"name":"deposit","outputs":[{"internalType":"uint256","name":"send_","type":"uint256"}],"stateMutability":"nonpayable","type":"function"},{"inputs":[],"name":"excessReserves","outputs":[{"internalType":"uint256","name":"","type":"uint256"}],"stateMutability":"view","type":"function"},{"inputs":[{"internalType":"address","name":"_token","type":"address"}],"name":"getFloor","outputs":[{"internalType":"uint256","name":"","type":"uint256"}],"stateMutability":"view","type":"function"},{"inputs":[{"internalType":"uint256","name":"_amount","type":"uint256"},{"internalType":"address","name":"_token","type":"address"}],"name":"incurDebt","outputs":[],"stateMutability":"nonpayable","type":"function"},{"inputs":[{"internalType":"address","name":"","type":"address"}],"name":"isDebtor","outputs":[{"internalType":"bool","name":"","type":"bool"}],"stateMutability":"view","type":"function"},{"inputs":[{"internalType":"address","name":"","type":"address"}],"name":"isLiquidityDepositor","outputs":[{"internalType":"bool","name":"","type":"bool"}],"stateMutability":"view","type":"function"},{"inputs":[{"internalType":"address","name":"","type":"address"}],"name":"isLiquidityManager","outputs":[{"internalType":"bool","name":"","type":"bool"}],"stateMutability":"view","type":"function"},{"inputs":[{"internalType":"address","name":"","type":"address"}],"name":"isLiquidityToken","outputs":[{"internalType":"bool","name":"","type":"bool"}],"stateMutability":"view","type":"function"},{"inputs":[{"internalType":"address","name":"","type":"address"}],"name":"isReserveDepositor","outputs":[{"internalType":"bool","name":"","type":"bool"}],"stateMutability":"view","type":"function"},{"inputs":[{"internalType":"address","name":"","type":"address"}],"name":"isReserveManager","outputs":[{"internalType":"bool","name":"","type":"bool"}],"stateMutability":"view","type":"function"},{"inputs":[{"internalType":"address","name":"","type":"address"}],"name":"isReserveSpender","outputs":[{"internalType":"bool","name":"","type":"bool"}],"stateMutability":"view","type":"function"},{"inputs":[{"internalType":"address","name":"","type":"address"}],"name":"isReserveToken","outputs":[{"internalType":"bool","name":"","type":"bool"}],"stateMutability":"view","type":"function"},{"inputs":[{"internalType":"address","name":"","type":"address"}],"name":"isRewardManager","outputs":[{"internalType":"bool","name":"","type":"bool"}],"stateMutability":"view","type":"function"},{"inputs":[{"internalType":"uint256","name":"","type":"uint256"}],"name":"liquidityDepositors","outputs":[{"internalType":"address","name":"","type":"address"}],"stateMutability":"view","type":"function"},{"inputs":[{"internalType":"uint256","name":"","type":"uint256"}],"name":"liquidityManagers","outputs":[{"internalType":"address","name":"","type":"address"}],"stateMutability":"view","type":"function"},{"inputs":[{"internalType":"uint256","name":"","type":"uint256"}],"name":"liquidityTokens","outputs":[{"internalType":"address","name":"","type":"address"}],"stateMutability":"view","type":"function"},{"inputs":[{"internalType":"address","name":"_token","type":"address"},{"internalType":"uint256","name":"_amount","type":"uint256"}],"name":"manage","outputs":[],"stateMutability":"nonpayable","type":"function"},{"inputs":[],"name":"manager","outputs":[{"internalType":"address","name":"","type":"address"}],"stateMutability":"view","type":"function"},{"inputs":[{"internalType":"address","name":"_recipient","type":"address"},{"internalType":"uint256","name":"_amount","type":"uint256"}],"name":"mintRewards","outputs":[],"stateMutability":"nonpayable","type":"function"},{"inputs":[{"internalType":"address","name":"","type":"address"}],"name":"nativeFloorPrice","outputs":[{"internalType":"uint256","name":"","type":"uint256"}],"stateMutability":"view","type":"function"},{"inputs":[],"name":"newBlocksNeededForQueue","outputs":[{"internalType":"uint256","name":"","type":"uint256"}],"stateMutability":"view","type":"function"},{"inputs":[],"name":"pullManagement","outputs":[],"stateMutability":"nonpayable","type":"function"},{"inputs":[{"internalType":"address","name":"newOwner_","type":"address"}],"name":"pushManagement","outputs":[],"stateMutability":"nonpayable","type":"function"},{"inputs":[{"internalType":"enum REDACTEDTreasury.MANAGING","name":"_managing","type":"uint8"},{"internalType":"address","name":"_address","type":"address"}],"name":"queue","outputs":[{"internalType":"bool","name":"","type":"bool"}],"stateMutability":"nonpayable","type":"function"},{"inputs":[],"name":"renounceManagement","outputs":[],"stateMutability":"nonpayable","type":"function"},{"inputs":[{"internalType":"uint256","name":"_amount","type":"uint256"}],"name":"repayDebtWithBTRFLY","outputs":[],"stateMutability":"nonpayable","type":"function"},{"inputs":[{"internalType":"uint256","name":"_amount","type":"uint256"},{"internalType":"address","name":"_token","type":"address"}],"name":"repayDebtWithReserve","outputs":[],"stateMutability":"nonpayable","type":"function"},{"inputs":[{"internalType":"address","name":"","type":"address"}],"name":"reserveDepositorQueue","outputs":[{"internalType":"uint256","name":"","type":"uint256"}],"stateMutability":"view","type":"function"},{"inputs":[{"internalType":"uint256","name":"","type":"uint256"}],"name":"reserveDepositors","outputs":[{"internalType":"address","name":"","type":"address"}],"stateMutability":"view","type":"function"},{"inputs":[{"internalType":"uint256","name":"","type":"uint256"}],"name":"reserveManagers","outputs":[{"internalType":"address","name":"","type":"address"}],"stateMutability":"view","type":"function"},{"inputs":[{"internalType":"address","name":"","type":"address"}],"name":"reserveSpenderQueue","outputs":[{"internalType":"uint256","name":"","type":"uint256"}],"stateMutability":"view","type":"function"},{"inputs":[{"internalType":"uint256","name":"","type":"uint256"}],"name":"reserveSpenders","outputs":[{"internalType":"address","name":"","type":"address"}],"stateMutability":"view","type":"function"},{"inputs":[{"internalType":"address","name":"","type":"address"}],"name":"reserveTokenQueue","outputs":[{"internalType":"uint256","name":"","type":"uint256"}],"stateMutability":"view","type":"function"},{"inputs":[{"internalType":"uint256","name":"","type":"uint256"}],"name":"reserveTokens","outputs":[{"internalType":"address","name":"","type":"address"}],"stateMutability":"view","type":"function"},{"inputs":[{"internalType":"address","name":"","type":"address"}],"name":"rewardManagerQueue","outputs":[{"internalType":"uint256","name":"","type":"uint256"}],"stateMutability":"view","type":"function"},{"inputs":[{"internalType":"uint256","name":"","type":"uint256"}],"name":"rewardManagers","outputs":[{"internalType":"address","name":"","type":"address"}],"stateMutability":"view","type":"function"},{"inputs":[],"name":"sBTRFLY","outputs":[{"internalType":"address","name":"","type":"address"}],"stateMutability":"view","type":"function"},{"inputs":[],"name":"sBTRFLYQueue","outputs":[{"internalType":"uint256","name":"","type":"uint256"}],"stateMutability":"view","type":"function"},{"inputs":[{"internalType":"address","name":"_token","type":"address"},{"internalType":"uint256","name":"_value","type":"uint256"}],"name":"setFloor","outputs":[],"stateMutability":"nonpayable","type":"function"},{"inputs":[{"internalType":"uint256","name":"_amount","type":"uint256"},{"internalType":"address","name":"_token","type":"address"}],"name":"simp","outputs":[],"stateMutability":"nonpayable","type":"function"},{"inputs":[{"internalType":"enum REDACTEDTreasury.MANAGING","name":"_managing","type":"uint8"},{"internalType":"address","name":"_address","type":"address"},{"internalType":"address","name":"_calculator","type":"address"}],"name":"toggle","outputs":[{"internalType":"bool","name":"","type":"bool"}],"stateMutability":"nonpayable","type":"function"},{"inputs":[],"name":"totalDebt","outputs":[{"internalType":"uint256","name":"","type":"uint256"}],"stateMutability":"view","type":"function"},{"inputs":[],"name":"totalReserves","outputs":[{"internalType":"uint256","name":"","type":"uint256"}],"stateMutability":"view","type":"function"},{"inputs":[{"internalType":"address","name":"_token","type":"address"},{"internalType":"uint256","name":"_amount","type":"uint256"}],"name":"valueOf","outputs":[{"internalType":"uint256","name":"value_","type":"uint256"}],"stateMutability":"view","type":"function"},{"inputs":[{"internalType":"uint256","name":"_amount","type":"uint256"},{"internalType":"address","name":"_token","type":"address"}],"name":"withdraw","outputs":[],"stateMutability":"nonpayable","type":"function"}],"bytecode":{"object":"60c060405234801561001057600080fd5b5060405162003b7838038062003b78833981810160405261012081101561003657600080fd5b50805160208201516040808401516060850151608086015160a087015160c088015160e089015161010090990151600080546001600160a01b03191633178082559751999a989996989597949693959294929391926001600160a01b0316917fea8258f2d9ddb679928cf34b78cf645b7feda9acc828e4dd82d014eaae270eba908290a36001600160a01b0389166100cd57600080fd5b886001600160a01b03166080816001600160a01b031660601b815250506001600460008a6001600160a01b03166001600160a01b0316815260200190815260200160002060006101000a81548160ff0219169083151502179055506003889080600181540180825580915050600190039060005260206000200160009091909190916101000a8154816001600160a01b0302191690836001600160a01b0316021790555083600660008a6001600160a01b03166001600160a01b0316815260200190815260200160002081905550600160046000896001600160a01b03166001600160a01b0316815260200190815260200160002060006101000a81548160ff0219169083151502179055506003879080600181540180825580915050600190039060005260206000200160009091909190916101000a8154816001600160a01b0302191690836001600160a01b0316021790555083600660008a6001600160a01b03166001600160a01b0316815260200190815260200160002081905550600160046000886001600160a01b03166001600160a01b0316815260200190815260200160002060006101000a81548160ff0219169083151502179055506003869080600181540180825580915050600190039060005260206000200160009091909190916101000a8154816001600160a01b0302191690836001600160a01b031602179055508260066000886001600160a01b03166001600160a01b0316815260200190815260200160002081905550600160046000876001600160a01b03166001600160a01b0316815260200190815260200160002060006101000a81548160ff0219169083151502179055506003859080600181540180825580915050600190039060005260206000200160009091909190916101000a8154816001600160a01b0302191690836001600160a01b031602179055508160066000876001600160a01b03166001600160a01b031681526020019081526020016000208190555060006002819055508060a0818152505050505050505050505060805160601c60a0516137626200041660003980611b3752806126a9525080610b7b5280610f1d528061139552806114e1528061157d52806116315280611c195280611f7f52506137626000f3fe608060405234801561001057600080fd5b50600436106103825760003560e01c806387d67dff116101de578063c99c7d931161010f578063ebd83cd8116100ad578063fbfd393b1161007c578063fbfd393b14610a35578063fc7b9c1814610a6c578063fd1ec01014610a74578063fff9ee8714610a9157610382565b8063ebd83cd8146109bb578063ec7ad1a2146109e1578063ee4e19a1146109e9578063fb93958814610a0f57610382565b8063d07f390f116100e9578063d07f390f14610932578063d796ffb81461093a578063df89b34414610966578063e83afee31461098c57610382565b8063c99c7d93146108c3578063cd85641a146108ef578063d031370b1461091557610382565b8063a569e5711161017c578063b5b1d56011610156578063b5b1d56014610846578063bc157ac114610863578063c24ad43e14610895578063c81d37dd146108bb57610382565b8063a569e571146107d4578063ab319c9a146107fa578063b1bd38b01461082057610382565b80638f840ddd116101b85780638f840ddd14610778578063932cc8c3146107805780639e5722f9146107a6578063a1210a2d146107ae57610382565b806387d67dff1461070f5780638f59c727146107355780638f6a7b571461075b57610382565b8063437f7912116102b857806368c31dd51161025657806370a0502a1161023057806370a0502a14610689578063788c6c01146106a657806383f67ba4146106cc578063869871bf146106f257610382565b806368c31dd51461061a5780636a20de92146106405780636b5e40a71461066c57610382565b8063481c6a7511610292578063481c6a75146105dc5780634e83423c146105e45780635a96ac0a1461060a5780635bc42af51461061257610382565b8063437f79121461056d578063441b9e3d1461058a57806346f68ee9146105b657610382565b806312422d231161032557806322443c10116102ff57806322443c101461051a57806324793cea146105225780632a186a781461053f5780632b7ce5001461056557610382565b806312422d231461049c5780631af4da70146104c85780631eec5a9a146104ee57610382565b8063094a865111610361578063094a8651146103f65780630b0eee301461042e5780630c3513a81461045a578063124154ca1461046257610382565b8062f714ce146103875780630619aff1146103b5578063089208d8146103ee575b600080fd5b6103b36004803603604081101561039d57600080fd5b50803590602001356001600160a01b0316610ab7565b005b6103d2600480360360208110156103cb57600080fd5b5035610c8e565b604080516001600160a01b039092168252519081900360200190f35b6103b3610cb8565b61041c6004803603602081101561040c57600080fd5b50356001600160a01b0316610d4f565b60408051918252519081900360200190f35b6103b36004803603604081101561044457600080fd5b506001600160a01b038135169060200135610d61565b61041c610f10565b6104886004803603602081101561047857600080fd5b50356001600160a01b0316610fb4565b604080519115158252519081900360200190f35b6103b3600480360360408110156104b257600080fd5b50803590602001356001600160a01b0316610fc9565b6103d2600480360360208110156104de57600080fd5b50356001600160a01b0316611299565b61041c6004803603604081101561050457600080fd5b506001600160a01b0381351690602001356112b4565b6103d26114df565b6103b36004803603602081101561053857600080fd5b5035611503565b61041c6004803603602081101561055557600080fd5b50356001600160a01b0316611682565b6103b3611694565b6103d26004803603602081101561058357600080fd5b503561180a565b6103b3600480360360408110156105a057600080fd5b50803590602001356001600160a01b031661181a565b6103b3600480360360208110156105cc57600080fd5b50356001600160a01b031661192d565b6103d2611a1a565b610488600480360360208110156105fa57600080fd5b50356001600160a01b0316611a29565b6103b3611a3e565b6103b3611ae8565b6104886004803603602081101561063057600080fd5b50356001600160a01b0316611b5b565b6103b36004803603604081101561065657600080fd5b506001600160a01b038135169060200135611b70565b6103d26004803603602081101561068257600080fd5b5035611cea565b6103d26004803603602081101561069f57600080fd5b5035611cfa565b61041c600480360360208110156106bc57600080fd5b50356001600160a01b0316611d0a565b61041c600480360360208110156106e257600080fd5b50356001600160a01b0316611d1c565b6103d26004803603602081101561070857600080fd5b5035611d37565b6104886004803603602081101561072557600080fd5b50356001600160a01b0316611d47565b61041c6004803603602081101561074b57600080fd5b50356001600160a01b0316611d5c565b6103d26004803603602081101561077157600080fd5b5035611d6e565b61041c611d7e565b61041c6004803603602081101561079657600080fd5b50356001600160a01b0316611d84565b6103d2611d96565b610488600480360360208110156107c457600080fd5b50356001600160a01b0316611da5565b610488600480360360208110156107ea57600080fd5b50356001600160a01b0316611dba565b61041c6004803603602081101561081057600080fd5b50356001600160a01b0316611dcf565b61041c6004803603602081101561083657600080fd5b50356001600160a01b0316611de1565b6103d26004803603602081101561085c57600080fd5b5035611df3565b61041c6004803603606081101561087957600080fd5b508035906001600160a01b036020820135169060400135611e03565b61041c600480360360208110156108ab57600080fd5b50356001600160a01b0316612081565b61041c612093565b6103b3600480360360408110156108d957600080fd5b506001600160a01b038135169060200135612099565b61041c6004803603602081101561090557600080fd5b50356001600160a01b0316612194565b6103d26004803603602081101561092b57600080fd5b50356121a6565b61041c6121b6565b6103b36004803603604081101561095057600080fd5b50803590602001356001600160a01b03166121bc565b6104886004803603602081101561097c57600080fd5b50356001600160a01b031661233f565b610488600480360360408110156109a257600080fd5b50803560ff1690602001356001600160a01b0316612354565b610488600480360360208110156109d157600080fd5b50356001600160a01b0316612692565b61041c6126a7565b610488600480360360208110156109ff57600080fd5b50356001600160a01b03166126cb565b61041c60048036036020811015610a2557600080fd5b50356001600160a01b03166126e0565b61048860048036036060811015610a4b57600080fd5b5060ff813516906001600160a01b03602082013581169160400135166126f1565b61041c612fac565b6103d260048036036020811015610a8a57600080fd5b5035612fb2565b61041c60048036036020811015610aa757600080fd5b50356001600160a01b0316612fc2565b6001600160a01b03811660009081526004602052604090205460ff16610b13576040805162461bcd60e51b815260206004820152600c60248201526b139bdd081858d8d95c1d195960a21b604482015290519081900360640190fd5b336000908152600b602052604090205460ff161515600114610b6b576040805162461bcd60e51b815260206004820152600c60248201526b139bdd08185c1c1c9bdd995960a21b604482015290519081900360640190fd5b6000610b7782846112b4565b90507f00000000000000000000000000000000000000000000000000000000000000006001600160a01b03166379cc679033836040518363ffffffff1660e01b815260040180836001600160a01b0316815260200182815260200192505050600060405180830381600087803b158015610bf057600080fd5b505af1158015610c04573d6000803e3d6000fd5b5050602354610c169250905082612fd4565b60238190556040516000805160206136e383398151915290600090a2610c466001600160a01b0383163385613016565b604080518481526020810183905281516001600160a01b038516927fdf273cb619d95419a9cd0ec88123a0538c85064229baa6363788f743fff90deb928290030190a2505050565b60148181548110610c9e57600080fd5b6000918252602090912001546001600160a01b0316905081565b6000546001600160a01b03163314610d05576040805162461bcd60e51b815260206004820181905260248201526000805160206136c3833981519152604482015290519081900360640190fd5b600080546040516001600160a01b03909116907fea8258f2d9ddb679928cf34b78cf645b7feda9acc828e4dd82d014eaae270eba908390a3600080546001600160a01b0319169055565b601d6020526000908152604090205481565b6001600160a01b0382166000908152600e602052604090205460ff1615610dda573360009081526018602052604090205460ff16610dd5576040805162461bcd60e51b815260206004820152600c60248201526b139bdd08185c1c1c9bdd995960a21b604482015290519081900360640190fd5b610e2d565b3360009081526015602052604090205460ff16610e2d576040805162461bcd60e51b815260206004820152600c60248201526b139bdd08185c1c1c9bdd995960a21b604482015290519081900360640190fd5b6000610e3983836112b4565b9050610e43610f10565b811115610e8f576040805162461bcd60e51b8152602060048201526015602482015274496e73756666696369656e7420726573657276657360581b604482015290519081900360640190fd5b602354610e9c9082612fd4565b60238190556040516000805160206136e383398151915290600090a2610ecc6001600160a01b0384163384613016565b6040805183815290516001600160a01b038516917f2bb2640731848fe9820ba48dbc978c1fc9bbd5f11b948bfab05b7dee3378fd80919081900360200190a2505050565b6000610faf610fa66024547f00000000000000000000000000000000000000000000000000000000000000006001600160a01b03166318160ddd6040518163ffffffff1660e01b815260040160206040518083038186803b158015610f7457600080fd5b505afa158015610f88573d6000803e3d6000fd5b505050506040513d6020811015610f9e57600080fd5b505190612fd4565b60235490612fd4565b905090565b60086020526000908152604090205460ff1681565b336000908152601b602052604090205460ff1661101c576040805162461bcd60e51b815260206004820152600c60248201526b139bdd08185c1c1c9bdd995960a21b604482015290519081900360640190fd5b6001600160a01b03811660009081526004602052604090205460ff16611078576040805162461bcd60e51b815260206004820152600c60248201526b139bdd081858d8d95c1d195960a21b604482015290519081900360640190fd5b600061108482846112b4565b602154604080516370a0823160e01b815233600482015290519293506000926001600160a01b03909216916370a0823191602480820192602092909190829003018186803b1580156110d557600080fd5b505afa1580156110e9573d6000803e3d6000fd5b505050506040513d60208110156110ff57600080fd5b5051336000908152601d602052604081205491925090611120908390612fd4565b90508083111561116c576040805162461bcd60e51b8152602060048201526012602482015271115e18d959591cc81919589d081b1a5b5a5d60721b604482015290519081900360640190fd5b336000908152601d6020526040902054611186908461306d565b336000908152601d60205260409020556024546111a3908461306d565b6024556023546111b39084612fd4565b60238190556040516000805160206136e383398151915290600090a26040805163a9059cbb60e01b81523360048201526024810187905290516001600160a01b0386169163a9059cbb9160448083019260209291908290030181600087803b15801561121e57600080fd5b505af1158015611232573d6000803e3d6000fd5b505050506040513d602081101561124857600080fd5b5050604080518681526020810185905281516001600160a01b0387169233927f7e1a939bed137a819b5d2979822c67f877689f7a863d5e4cb57cdca97b2977d6929081900390910190a35050505050565b6013602052600090815260409020546001600160a01b031681565b6001600160a01b03821660009081526004602052604081205460ff16156114285761142160066000856001600160a01b03166001600160a01b0316815260200190815260200160002054611415633b9aca0061141b876001600160a01b031663313ce5676040518163ffffffff1660e01b815260040160206040518083038186803b15801561134257600080fd5b505afa158015611356573d6000803e3d6000fd5b505050506040513d602081101561136c57600080fd5b50516040805163313ce56760e01b8152905160ff909216600a0a91611415916001600160a01b037f0000000000000000000000000000000000000000000000000000000000000000169163313ce56791600480820192602092909190829003018186803b1580156113dc57600080fd5b505afa1580156113f0573d6000803e3d6000fd5b505050506040513d602081101561140657600080fd5b5051899060ff16600a0a6130c7565b90613120565b906130c7565b90506114d9565b6001600160a01b0383166000908152600e602052604090205460ff16156114d9576001600160a01b03808416600081815260136020908152604091829020548251634249719f60e01b815260048101949094526024840187905291519190931692634249719f9260448082019391829003018186803b1580156114aa57600080fd5b505afa1580156114be573d6000803e3d6000fd5b505050506040513d60208110156114d457600080fd5b505190505b92915050565b7f000000000000000000000000000000000000000000000000000000000000000081565b336000908152601b602052604090205460ff16611556576040805162461bcd60e51b815260206004820152600c60248201526b139bdd08185c1c1c9bdd995960a21b604482015290519081900360640190fd5b6040805163079cc67960e41b81523360048201526024810183905290516001600160a01b037f000000000000000000000000000000000000000000000000000000000000000016916379cc679091604480830192600092919082900301818387803b1580156115c457600080fd5b505af11580156115d8573d6000803e3d6000fd5b5050336000908152601d60205260409020546115f79250905082612fd4565b336000908152601d60205260409020556024546116149082612fd4565b602455604080518281526020810183905281516001600160a01b037f0000000000000000000000000000000000000000000000000000000000000000169233927fc6d98eecfc9c78ab62c89a82950079b54874749f1f6f24090f7acc758bc2f309929081900390910190a350565b60066020526000908152604090205481565b6000805b60035481101561176c5761176261175b600383815481106116b557fe5b600091825260209091200154600380546001600160a01b0390921691859081106116db57fe5b60009182526020918290200154604080516370a0823160e01b815230600482015290516001600160a01b03909216926370a0823192602480840193829003018186803b15801561172a57600080fd5b505afa15801561173e573d6000803e3d6000fd5b505050506040513d602081101561175457600080fd5b50516112b4565b839061306d565b9150600101611698565b5060005b600d548110156117bd576117b361175b600d838154811061178d57fe5b600091825260209091200154600d80546001600160a01b0390921691859081106116db57fe5b9150600101611770565b50602381905560405181906000805160206136e383398151915290600090a260405181907fec691f09f6924b27932253f85caf99bacc30360cc0e50a1cc4d2acc24601446690600090a250565b600a8181548110610c9e57600080fd5b6001600160a01b03811660009081526004602052604090205460ff168061185957506001600160a01b0381166000908152600e602052604090205460ff165b611899576040805162461bcd60e51b815260206004820152600c60248201526b139bdd081858d8d95c1d195960a21b604482015290519081900360640190fd5b6118ae6001600160a01b038216333085613162565b60006118ba82846112b4565b6023549091506118ca908261306d565b60238190556040516000805160206136e383398151915290600090a26040805184815233602082015281516001600160a01b038516927f74af5e21416172c4018da0bd43190a10fbb3f7901101907929a85a069d9e4f94928290030190a2505050565b6000546001600160a01b0316331461197a576040805162461bcd60e51b815260206004820181905260248201526000805160206136c3833981519152604482015290519081900360640190fd5b6001600160a01b0381166119bf5760405162461bcd60e51b81526004018080602001828103825260268152602001806136346026913960400191505060405180910390fd5b600080546040516001600160a01b03808516939216917fea8258f2d9ddb679928cf34b78cf645b7feda9acc828e4dd82d014eaae270eba91a3600180546001600160a01b0319166001600160a01b0392909216919091179055565b6000546001600160a01b031690565b601f6020526000908152604090205460ff1681565b6001546001600160a01b03163314611a875760405162461bcd60e51b815260040180806020018281038252602281526020018061365a6022913960400191505060405180910390fd5b600154600080546040516001600160a01b0393841693909116917faa151555690c956fc3ea32f106bb9f119b5237a061eaa8557cff3e51e3792c8d91a3600154600080546001600160a01b0319166001600160a01b03909216919091179055565b6000546001600160a01b03163314611b35576040805162461bcd60e51b815260206004820181905260248201526000805160206136c3833981519152604482015290519081900360640190fd5b7f0000000000000000000000000000000000000000000000000000000000000000600255565b60046020526000908152604090205460ff1681565b336000908152601f602052604090205460ff16611bc3576040805162461bcd60e51b815260206004820152600c60248201526b139bdd08185c1c1c9bdd995960a21b604482015290519081900360640190fd5b611bcb610f10565b811115611c17576040805162461bcd60e51b8152602060048201526015602482015274496e73756666696369656e7420726573657276657360581b604482015290519081900360640190fd5b7f00000000000000000000000000000000000000000000000000000000000000006001600160a01b03166340c10f1983836040518363ffffffff1660e01b815260040180836001600160a01b0316815260200182815260200192505050600060405180830381600087803b158015611c8e57600080fd5b505af1158015611ca2573d6000803e3d6000fd5b50506040805184815290516001600160a01b03861693503392507ffa8ccab40e7da8146c2304cd0950334fd30a6ba093abe86261aa13911fed849c9181900360200190a35050565b60078181548110610c9e57600080fd5b60178181548110610c9e57600080fd5b60056020526000908152604090205481565b6001600160a01b031660009081526006602052604090205490565b601a8181548110610c9e57600080fd5b600b6020526000908152604090205460ff1681565b600f6020526000908152604090205481565b60108181548110610c9e57600080fd5b60235481565b60096020526000908152604090205481565b6021546001600160a01b031681565b60116020526000908152604090205460ff1681565b600e6020526000908152604090205460ff1681565b60196020526000908152604090205481565b60166020526000908152604090205481565b601e8181548110610c9e57600080fd5b6001600160a01b03821660009081526004602052604081205460ff1680611e4257506001600160a01b0383166000908152600e602052604090205460ff165b611e82576040805162461bcd60e51b815260206004820152600c60248201526b139bdd081858d8d95c1d195960a21b604482015290519081900360640190fd5b611e976001600160a01b038416333087613162565b6001600160a01b03831660009081526004602052604090205460ff1615611f10573360009081526008602052604090205460ff16611f0b576040805162461bcd60e51b815260206004820152600c60248201526b139bdd08185c1c1c9bdd995960a21b604482015290519081900360640190fd5b611f63565b3360009081526011602052604090205460ff16611f63576040805162461bcd60e51b815260206004820152600c60248201526b139bdd08185c1c1c9bdd995960a21b604482015290519081900360640190fd5b6000611f6f84866112b4565b9050611f7b8184612fd4565b91507f00000000000000000000000000000000000000000000000000000000000000006001600160a01b03166340c10f1933846040518363ffffffff1660e01b815260040180836001600160a01b0316815260200182815260200192505050600060405180830381600087803b158015611ff457600080fd5b505af1158015612008573d6000803e3d6000fd5b505060235461201a925090508261306d565b60238190556040516000805160206136e383398151915290600090a2604080518681526020810183905281516001600160a01b038716927f90890809c654f11d6e72a28fa60149770a0d11ec6c92319d6ceb2bb0a4ea1a15928290030190a2509392505050565b600c6020526000908152604090205481565b60225481565b6000546001600160a01b031633146120e6576040805162461bcd60e51b815260206004820181905260248201526000805160206136c3833981519152604482015290519081900360640190fd5b6001600160a01b0382166000908152600660205260409020541561213b5760405162461bcd60e51b815260040180806020018281038252602681526020018061367c6026913960400191505060405180910390fd5b6001600160a01b0382166000818152600660209081526040918290208490558151928352820183905280517f3338cd46289b179104f17582d19068f0b9dacabfc55ef6e4e98f1df99d5165fb9281900390910190a15050565b601c6020526000908152604090205481565b60038181548110610c9e57600080fd5b60025481565b336000908152601b602052604090205460ff1661220f576040805162461bcd60e51b815260206004820152600c60248201526b139bdd08185c1c1c9bdd995960a21b604482015290519081900360640190fd5b6001600160a01b03811660009081526004602052604090205460ff1661226b576040805162461bcd60e51b815260206004820152600c60248201526b139bdd081858d8d95c1d195960a21b604482015290519081900360640190fd5b6122806001600160a01b038216333085613162565b600061228c82846112b4565b336000908152601d60205260409020549091506122a99082612fd4565b336000908152601d60205260409020556024546122c69082612fd4565b6024556023546122d6908261306d565b60238190556040516000805160206136e383398151915290600090a2604080518481526020810183905281516001600160a01b0385169233927fc6d98eecfc9c78ab62c89a82950079b54874749f1f6f24090f7acc758bc2f309929081900390910190a3505050565b60186020526000908152604090205460ff1681565b600080546001600160a01b031633146123a2576040805162461bcd60e51b815260206004820181905260248201526000805160206136c3833981519152604482015290519081900360640190fd5b6001600160a01b0382166123b557600080fd5b60008360098111156123c357fe5b14156123f5576002546123d790439061306d565b6001600160a01b038316600090815260096020526040902055612641565b600183600981111561240357fe5b14156124355760025461241790439061306d565b6001600160a01b0383166000908152600c6020526040902055612641565b600283600981111561244357fe5b14156124755760025461245790439061306d565b6001600160a01b038316600090815260056020526040902055612641565b600383600981111561248357fe5b14156124c6576124a86124a1600280546130c790919063ffffffff16565b439061306d565b6001600160a01b038316600090815260166020526040902055612641565b60048360098111156124d457fe5b1415612506576002546124e890439061306d565b6001600160a01b038316600090815260126020526040902055612641565b600583600981111561251457fe5b14156125465760025461252890439061306d565b6001600160a01b0383166000908152600f6020526040902055612641565b600683600981111561255457fe5b1415612590576125726124a1600280546130c790919063ffffffff16565b6001600160a01b038316600090815260196020526040902055612641565b600783600981111561259e57fe5b14156125d0576002546125b290439061306d565b6001600160a01b0383166000908152601c6020526040902055612641565b60088360098111156125de57fe5b141561260f576002546125f290439061306d565b6001600160a01b0383166000908152602080526040902055612641565b600983600981111561261d57fe5b14156126395760025461263190439061306d565b602255612641565b5060006114d9565b82600981111561264d57fe5b604080516001600160a01b038516815290517f0e4f2c4b5bc209d509bc3d49348c787fefadc66a79351b470599ac0f5be52eaf9181900360200190a250600192915050565b60156020526000908152604090205460ff1681565b7f000000000000000000000000000000000000000000000000000000000000000081565b601b6020526000908152604090205460ff1681565b602080526000908152604090205481565b600080546001600160a01b0316331461273f576040805162461bcd60e51b815260206004820181905260248201526000805160206136c3833981519152604482015290519081900360640190fd5b6001600160a01b03831661275257600080fd5b60008085600981111561276157fe5b141561281d5761277460096008866131c2565b156127ed576001600160a01b03841660009081526009602052604081205561279d6007856132ac565b6127ed57600780546001810182556000919091527fa66cc928b5edb82af9bd49922954155ab7b0942694bea4ce44661d9a8736c6880180546001600160a01b0319166001600160a01b0386161790555b506001600160a01b0383166000908152600860205260409020805460ff81161560ff199091168117909155612f4e565b600185600981111561282b57fe5b14156128e75761283e600c600b866131c2565b156128b7576001600160a01b0384166000908152600c6020526040812055612867600a856132ac565b6128b757600a80546001810182556000919091527fc65a7bb8d6351c1cf70c95a316cc6a92839c986682d98bc35f958f4883f9d2a80180546001600160a01b0319166001600160a01b0386161790555b506001600160a01b0383166000908152600b60205260409020805460ff81161560ff199091168117909155612f4e565b60028560098111156128f557fe5b14156129b15761290860056004866131c2565b15612981576001600160a01b0384166000908152600560205260408120556129316003856132ac565b61298157600380546001810182556000919091527fc2575a0e9e593c00f959f8c92f12db2869c3395a3b0502d05e2516446f71f85b0180546001600160a01b0319166001600160a01b0386161790555b506001600160a01b0383166000908152600460205260409020805460ff81161560ff199091168117909155612f4e565b60038560098111156129bf57fe5b1415612ab8576129d260166015866131c2565b15612a8857601480546001810182557fce6d7b5282bd9a3661ae061feed1dbda4e52ab073b1f9285be6e155d9c38d4ec0180546001600160a01b0319166001600160a01b038716908117909155600090815260166020526040812055612a3890856132ac565b612a8857601480546001810182556000919091527fce6d7b5282bd9a3661ae061feed1dbda4e52ab073b1f9285be6e155d9c38d4ec0180546001600160a01b0319166001600160a01b0386161790555b506001600160a01b0383166000908152601560205260409020805460ff81161560ff199091168117909155612f4e565b6004856009811115612ac657fe5b1415612bbf57612ad960126011866131c2565b15612b8f57601080546001810182557f1b6847dc741a1b0cd08d278845f9d819d87b734759afb55fe2de5cb82a9ae6720180546001600160a01b0319166001600160a01b038716908117909155600090815260126020526040812055612b3f90856132ac565b612b8f57601080546001810182556000919091527f1b6847dc741a1b0cd08d278845f9d819d87b734759afb55fe2de5cb82a9ae6720180546001600160a01b0319166001600160a01b0386161790555b506001600160a01b0383166000908152601160205260409020805460ff81161560ff199091168117909155612f4e565b6005856009811115612bcd57fe5b1415612cab57612be0600f600e866131c2565b15612c59576001600160a01b0384166000908152600f6020526040812055612c09600d856132ac565b612c5957600d80546001810182556000919091527fd7b6990105719101dabeb77144f2a3385c8033acd3af97e9423a695e81ad1eb50180546001600160a01b0319166001600160a01b0386161790555b506001600160a01b038381166000908152600e60209081526040808320805460ff81161560ff199091168117909155601390925290912080546001600160a01b03191692851692909217909155612f4e565b6006856009811115612cb957fe5b1415612d7557612ccc60196018866131c2565b15612d45576001600160a01b038416600090815260196020526040812055612cf56017856132ac565b612d4557601780546001810182556000919091527fc624b66cc0138b8fabc209247f72d758e1cf3343756d543badbf24212bed8c150180546001600160a01b0319166001600160a01b0386161790555b506001600160a01b0383166000908152601860205260409020805460ff81161560ff199091168117909155612f4e565b6007856009811115612d8357fe5b1415612e3f57612d96601c601b866131c2565b15612e0f576001600160a01b0384166000908152601c6020526040812055612dbf601a856132ac565b612e0f57601a80546001810182556000919091527f057c384a7d1c54f3a1b2e5e67b2617b8224fdfd1ea7234eea573a6ff665ff63e0180546001600160a01b0319166001600160a01b0386161790555b506001600160a01b0383166000908152601b60205260409020805460ff81161560ff199091168117909155612f4e565b6008856009811115612e4d57fe5b1415612f0857612e606020601f866131c2565b15612ed8576001600160a01b0384166000908152602080526040812055612e88601e856132ac565b612ed857601e80546001810182556000919091527f50bb669a95c7b50b7e8a6f09454034b2b14cf2b85c730dca9a539ca82cb6e3500180546001600160a01b0319166001600160a01b0386161790555b506001600160a01b0383166000908152601f60205260409020805460ff81161560ff199091168117909155612f4e565b6009856009811115612f1657fe5b1415612f4457506000602255602180546001600160a01b0319166001600160a01b0385161790556001612f4e565b6000915050612fa5565b846009811115612f5a57fe5b604080516001600160a01b0387168152831515602082015281517f0dcacb7e392f3d6a216ed2660e3dcfd40b7793d33591db2ba185a6b8e44fc477929181900390910190a260019150505b9392505050565b60245481565b600d8181548110610c9e57600080fd5b60126020526000908152604090205481565b6000612fa583836040518060400160405280601e81526020017f536166654d6174683a207375627472616374696f6e206f766572666c6f7700008152506132fc565b604080516001600160a01b038416602482015260448082018490528251808303909101815260649091019091526020810180516001600160e01b031663a9059cbb60e01b179052613068908490613393565b505050565b600082820183811015612fa5576040805162461bcd60e51b815260206004820152601b60248201527f536166654d6174683a206164646974696f6e206f766572666c6f770000000000604482015290519081900360640190fd5b6000826130d6575060006114d9565b828202828482816130e357fe5b0414612fa55760405162461bcd60e51b81526004018080602001828103825260218152602001806136a26021913960400191505060405180910390fd5b6000612fa583836040518060400160405280601a81526020017f536166654d6174683a206469766973696f6e206279207a65726f000000000000815250613444565b604080516001600160a01b0380861660248301528416604482015260648082018490528251808303909101815260849091019091526020810180516001600160e01b03166323b872dd60e01b1790526131bc908590613393565b50505050565b6001600160a01b03811660009081526020839052604081205460ff166132a2576001600160a01b038216600090815260208590526040902054613239576040805162461bcd60e51b815260206004820152600a6024820152694d75737420717565756560b01b604482015290519081900360640190fd5b6001600160a01b03821660009081526020859052604090205443101561329a576040805162461bcd60e51b8152602060048201526011602482015270145d595d59481b9bdd08195e1c1a5c9959607a1b604482015290519081900360640190fd5b506001612fa5565b5060009392505050565b6000805b83548110156132a257826001600160a01b03168482815481106132cf57fe5b6000918252602090912001546001600160a01b031614156132f45760019150506114d9565b6001016132b0565b6000818484111561338b5760405162461bcd60e51b81526004018080602001828103825283818151815260200191508051906020019080838360005b83811015613350578181015183820152602001613338565b50505050905090810190601f16801561337d5780820380516001836020036101000a031916815260200191505b509250505060405180910390fd5b505050900390565b60606133e8826040518060400160405280602081526020017f5361666545524332303a206c6f772d6c6576656c2063616c6c206661696c6564815250856001600160a01b03166134a99092919063ffffffff16565b8051909150156130685780806020019051602081101561340757600080fd5b50516130685760405162461bcd60e51b815260040180806020018281038252602a815260200180613703602a913960400191505060405180910390fd5b600081836134935760405162461bcd60e51b8152602060048201818152835160248401528351909283926044909101919085019080838360008315613350578181015183820152602001613338565b50600083858161349f57fe5b0495945050505050565b60606134b884846000856134c0565b949350505050565b60606134cb8561362d565b61351c576040805162461bcd60e51b815260206004820152601d60248201527f416464726573733a2063616c6c20746f206e6f6e2d636f6e7472616374000000604482015290519081900360640190fd5b60006060866001600160a01b031685876040518082805190602001908083835b6020831061355b5780518252601f19909201916020918201910161353c565b6001836020036101000a03801982511681845116808217855250505050505090500191505060006040518083038185875af1925050503d80600081146135bd576040519150601f19603f3d011682016040523d82523d6000602084013e6135c2565b606091505b509150915081156135d65791506134b89050565b8051156135e65780518082602001fd5b60405162461bcd60e51b8152602060048201818152865160248401528651879391928392604401919085019080838360008315613350578181015183820152602001613338565b3b15159056fe4f776e61626c653a206e6577206f776e657220697320746865207a65726f20616464726573734f776e61626c653a206d757374206265206e6577206f776e657220746f2070756c6c546f6b656e20666c6f6f722076616c75652063616e206f6e6c7920626520736574206f6e6365536166654d6174683a206d756c7469706c69636174696f6e206f766572666c6f774f776e61626c653a2063616c6c6572206973206e6f7420746865206f776e657293bb8edd35984706eee1b92541281f7f62d33c01c5b2ec0929a113603bd21d665361666545524332303a204552433230206f7065726174696f6e20646964206e6f742073756363656564a2646970667358221220f0eaff8c5f0c1d78ec626b5678d94fb7c5fa8df8000115072355522091283daa64736f6c63430007050033"}}