{"compiler":"v0.8.9+commit.e5eed63a","opcodeHash":"0xcddfd60625895586f251935f7d143f846780ebcf1d30c7e27d7d2b9d07f08300","metalessHash":"0xa6bb91f381bf4b2f42784901ed42feeb994c49d8da8e5f063db7022ecb4f60d3","runtimeHash":"0x26be784f4739ddafbd2df79b132bb40b8336b5bf6683d2398df6b130056b77c3","encodedMetadata":[{"ipfs":"/ipfs/QmU8xcfZCw51kzTufcK7sCd9BoNcTRbuhRCk1fD7oa86i9","solc":"0.8.9"}],"abi":[{"inputs":[{"internalType":"address[]","name":"owners_","type":"address[]"}],"stateMutability":"nonpayable","type":"constructor"},{"inputs":[{"internalType":"address","name":"nftAddress","type":"address"},{"internalType":"uint256","name":"txAmount","type":"uint256"},{"internalType":"uint256","name":"mintAmount","type":"uint256"},{"internalType":"uint256","name":"price","type":"uint256"},{"internalType":"bytes","name":"data","type":"bytes"},{"internalType":"uint256","name":"e","type":"uint256"}],"name":"mintMul","outputs":[],"stateMutability":"payable","type":"function"},{"inputs":[{"internalType":"address","name":"operator","type":"address"},{"internalType":"address","name":"from","type":"address"},{"internalType":"uint256","name":"tokenId","type":"uint256"},{"internalType":"bytes","name":"data","type":"bytes"}],"name":"onERC721Received","outputs":[{"internalType":"bytes4","name":"","type":"bytes4"}],"stateMutability":"pure","type":"function"},{"inputs":[{"internalType":"address","name":"","type":"address"}],"name":"owners","outputs":[{"internalType":"bool","name":"","type":"bool"}],"stateMutability":"view","type":"function"},{"inputs":[{"internalType":"address","name":"nftAddress","type":"address"},{"internalType":"address","name":"to","type":"address"},{"internalType":"uint256[]","name":"tokenIDs","type":"uint256[]"}],"name":"transferSelfNFTs","outputs":[],"stateMutability":"nonpayable","type":"function"},{"stateMutability":"payable","type":"receive"}],"bytecode":{"object":"60806040523480156200001157600080fd5b5060405162000ea938038062000ea98339818101604052810190620000379190620002c4565b60005b8151811015620000ce5760016000808484815181106200005f576200005e62000315565b5b602002602001015173ffffffffffffffffffffffffffffffffffffffff1673ffffffffffffffffffffffffffffffffffffffff16815260200190815260200160002060006101000a81548160ff0219169083151502179055508080620000c5906200037d565b9150506200003a565b5050620003cb565b6000604051905090565b600080fd5b600080fd5b600080fd5b6000601f19601f8301169050919050565b7f4e487b7100000000000000000000000000000000000000000000000000000000600052604160045260246000fd5b6200013a82620000ef565b810181811067ffffffffffffffff821117156200015c576200015b62000100565b5b80604052505050565b600062000171620000d6565b90506200017f82826200012f565b919050565b600067ffffffffffffffff821115620001a257620001a162000100565b5b602082029050602081019050919050565b600080fd5b600073ffffffffffffffffffffffffffffffffffffffff82169050919050565b6000620001e582620001b8565b9050919050565b620001f781620001d8565b81146200020357600080fd5b50565b6000815190506200021781620001ec565b92915050565b6000620002346200022e8462000184565b62000165565b905080838252602082019050602084028301858111156200025a5762000259620001b3565b5b835b8181101562000287578062000272888262000206565b8452602084019350506020810190506200025c565b5050509392505050565b600082601f830112620002a957620002a8620000ea565b5b8151620002bb8482602086016200021d565b91505092915050565b600060208284031215620002dd57620002dc620000e0565b5b600082015167ffffffffffffffff811115620002fe57620002fd620000e5565b5b6200030c8482850162000291565b91505092915050565b7f4e487b7100000000000000000000000000000000000000000000000000000000600052603260045260246000fd5b7f4e487b7100000000000000000000000000000000000000000000000000000000600052601160045260246000fd5b6000819050919050565b60006200038a8262000373565b91507fffffffffffffffffffffffffffffffffffffffffffffffffffffffffffffffff821415620003c057620003bf62000344565b5b600182019050919050565b610ace80620003db6000396000f3fe6080604052600436106100435760003560e01c8063014d12581461004f578063022914a714610078578063150b7a02146100b5578063aa4d6089146100f25761004a565b3661004a57005b600080fd5b34801561005b57600080fd5b506100766004803603810190610071919061057d565b61010e565b005b34801561008457600080fd5b5061009f600480360381019061009a91906105f1565b610249565b6040516100ac9190610639565b60405180910390f35b3480156100c157600080fd5b506100dc60048036038101906100d791906106e0565b610269565b6040516100e991906107a3565b60405180910390f35b61010c600480360381019061010791906107be565b610280565b005b6000803373ffffffffffffffffffffffffffffffffffffffff1673ffffffffffffffffffffffffffffffffffffffff16815260200190815260200160002060009054906101000a900460ff16610199576040517f08c379a0000000000000000000000000000000000000000000000000000000008152600401610190906108ca565b60405180910390fd5b60005b82829050811015610242578473ffffffffffffffffffffffffffffffffffffffff166323b872dd30868686868181106101d8576101d76108ea565b5b905060200201356040518463ffffffff1660e01b81526004016101fd93929190610937565b600060405180830381600087803b15801561021757600080fd5b505af115801561022b573d6000803e3d6000fd5b50505050808061023a9061099d565b91505061019c565b5050505050565b60006020528060005260406000206000915054906101000a900460ff1681565b60008063150b7a0260e01b91505095945050505050565b6000803373ffffffffffffffffffffffffffffffffffffffff1673ffffffffffffffffffffffffffffffffffffffff16815260200190815260200160002060009054906101000a900460ff1661030b576040517f08c379a0000000000000000000000000000000000000000000000000000000008152600401610302906108ca565b60405180910390fd5b60005b868110156103af5760008873ffffffffffffffffffffffffffffffffffffffff16878761033b91906109e6565b868660405161034b929190610a7f565b60006040518083038185875af1925050503d8060008114610388576040519150601f19603f3d011682016040523d82523d6000602084013e61038d565b606091505b505090508061039b57600080fd5b5080806103a79061099d565b91505061030e565b506000811115610456578047111561040d574173ffffffffffffffffffffffffffffffffffffffff166108fc829081150290604051600060405180830381858888f19350505050158015610407573d6000803e3d6000fd5b50610455565b4173ffffffffffffffffffffffffffffffffffffffff166108fc479081150290604051600060405180830381858888f19350505050158015610453573d6000803e3d6000fd5b505b5b60004711156104a7573373ffffffffffffffffffffffffffffffffffffffff166108fc479081150290604051600060405180830381858888f193505050501580156104a5573d6000803e3d6000fd5b505b50505050505050565b600080fd5b600080fd5b600073ffffffffffffffffffffffffffffffffffffffff82169050919050565b60006104e5826104ba565b9050919050565b6104f5816104da565b811461050057600080fd5b50565b600081359050610512816104ec565b92915050565b600080fd5b600080fd5b600080fd5b60008083601f84011261053d5761053c610518565b5b8235905067ffffffffffffffff81111561055a5761055961051d565b5b60208301915083602082028301111561057657610575610522565b5b9250929050565b60008060008060608587031215610597576105966104b0565b5b60006105a587828801610503565b94505060206105b687828801610503565b935050604085013567ffffffffffffffff8111156105d7576105d66104b5565b5b6105e387828801610527565b925092505092959194509250565b600060208284031215610607576106066104b0565b5b600061061584828501610503565b91505092915050565b60008115159050919050565b6106338161061e565b82525050565b600060208201905061064e600083018461062a565b92915050565b6000819050919050565b61066781610654565b811461067257600080fd5b50565b6000813590506106848161065e565b92915050565b60008083601f8401126106a05761069f610518565b5b8235905067ffffffffffffffff8111156106bd576106bc61051d565b5b6020830191508360018202830111156106d9576106d8610522565b5b9250929050565b6000806000806000608086880312156106fc576106fb6104b0565b5b600061070a88828901610503565b955050602061071b88828901610503565b945050604061072c88828901610675565b935050606086013567ffffffffffffffff81111561074d5761074c6104b5565b5b6107598882890161068a565b92509250509295509295909350565b60007fffffffff0000000000000000000000000000000000000000000000000000000082169050919050565b61079d81610768565b82525050565b60006020820190506107b86000830184610794565b92915050565b600080600080600080600060c0888a0312156107dd576107dc6104b0565b5b60006107eb8a828b01610503565b97505060206107fc8a828b01610675565b965050604061080d8a828b01610675565b955050606061081e8a828b01610675565b945050608088013567ffffffffffffffff81111561083f5761083e6104b5565b5b61084b8a828b0161068a565b935093505060a061085e8a828b01610675565b91505092959891949750929550565b600082825260208201905092915050565b7f6e6f74206f776e65720000000000000000000000000000000000000000000000600082015250565b60006108b460098361086d565b91506108bf8261087e565b602082019050919050565b600060208201905081810360008301526108e3816108a7565b9050919050565b7f4e487b7100000000000000000000000000000000000000000000000000000000600052603260045260246000fd5b610922816104da565b82525050565b61093181610654565b82525050565b600060608201905061094c6000830186610919565b6109596020830185610919565b6109666040830184610928565b949350505050565b7f4e487b7100000000000000000000000000000000000000000000000000000000600052601160045260246000fd5b60006109a882610654565b91507fffffffffffffffffffffffffffffffffffffffffffffffffffffffffffffffff8214156109db576109da61096e565b5b600182019050919050565b60006109f182610654565b91506109fc83610654565b9250817fffffffffffffffffffffffffffffffffffffffffffffffffffffffffffffffff0483118215151615610a3557610a3461096e565b5b828202905092915050565b600081905092915050565b82818337600083830152505050565b6000610a668385610a40565b9350610a73838584610a4b565b82840190509392505050565b6000610a8c828486610a5a565b9150819050939250505056fea264697066735822122024792a444d480f3ca341618ec58744739272b92ce669f3dec99357deb393407664736f6c63430008090033"}}