{
  "opcodeHash": "0xc52c614f6e8e5887d93740fbd8e52801efd24dfbf99cffcaefb80c7b127e74c8",
  "metalessHash": "0xc758fc8325e3b8d7ce80a8480cc6445991367df04fec1fde825d9b7a52c3bbc2",
  "runtimeHash": "0xf386732573eb4b6d257d9296f91a425ce451e7919fa4050da77d32f0637d239c",
  "encodedMetadata": [
    {
      "bzzr1": "/swarm/bzzr1/cd2316d3621075a97f0944abb703d2c7811cb443c151fba24e10bc4e21f95381",
      "solc": "0.5.17"
    }
  ],
  "abi": [
    {
      "anonymous": false,
      "inputs": [
        {
          "indexed": true,
          "internalType": "uint256",
          "name": "epoch",
          "type": "uint256"
        },
        {
          "indexed": false,
          "internalType": "uint256",
          "name": "block",
          "type": "uint256"
        },
        {
          "indexed": false,
          "internalType": "uint256",
          "name": "timestamp",
          "type": "uint256"
        }
      ],
      "name": "Advance",
      "type": "event"
    },
    {
      "anonymous": false,
      "inputs": [
        {
          "indexed": true,
          "internalType": "address",
          "name": "account",
          "type": "address"
        },
        {
          "indexed": false,
          "internalType": "uint256",
          "name": "start",
          "type": "uint256"
        },
        {
          "indexed": false,
          "internalType": "uint256",
          "name": "value",
          "type": "uint256"
        },
        {
          "indexed": false,
          "internalType": "uint256",
          "name": "valueUnderlying",
          "type": "uint256"
        }
      ],
      "name": "Bond",
      "type": "event"
    },
    {
      "anonymous": false,
      "inputs": [
        {
          "indexed": true,
          "internalType": "address",
          "name": "owner",
          "type": "address"
        },
        {
          "indexed": true,
          "internalType": "address",
          "name": "spender",
          "type": "address"
        },
        {
          "indexed": false,
          "internalType": "uint256",
          "name": "value",
          "type": "uint256"
        }
      ],
      "name": "CouponApproval",
      "type": "event"
    },
    {
      "anonymous": false,
      "inputs": [
        {
          "indexed": true,
          "internalType": "address",
          "name": "account",
          "type": "address"
        },
        {
          "indexed": true,
          "internalType": "uint256",
          "name": "epoch",
          "type": "uint256"
        },
        {
          "indexed": false,
          "internalType": "uint256",
          "name": "couponAmount",
          "type": "uint256"
        }
      ],
      "name": "CouponBurn",
      "type": "event"
    },
    {
      "anonymous": false,
      "inputs": [
        {
          "indexed": true,
          "internalType": "uint256",
          "name": "epoch",
          "type": "uint256"
        },
        {
          "indexed": false,
          "internalType": "uint256",
          "name": "couponsExpired",
          "type": "uint256"
        },
        {
          "indexed": false,
          "internalType": "uint256",
          "name": "lessRedeemable",
          "type": "uint256"
        },
        {
          "indexed": false,
          "internalType": "uint256",
          "name": "lessDebt",
          "type": "uint256"
        },
        {
          "indexed": false,
          "internalType": "uint256",
          "name": "newBonded",
          "type": "uint256"
        }
      ],
      "name": "CouponExpiration",
      "type": "event"
    },
    {
      "anonymous": false,
      "inputs": [
        {
          "indexed": true,
          "internalType": "address",
          "name": "account",
          "type": "address"
        },
        {
          "indexed": true,
          "internalType": "uint256",
          "name": "epoch",
          "type": "uint256"
        },
        {
          "indexed": false,
          "internalType": "uint256",
          "name": "dollarAmount",
          "type": "uint256"
        },
        {
          "indexed": false,
          "internalType": "uint256",
          "name": "couponAmount",
          "type": "uint256"
        }
      ],
      "name": "CouponPurchase",
      "type": "event"
    },
    {
      "anonymous": false,
      "inputs": [
        {
          "indexed": true,
          "internalType": "address",
          "name": "account",
          "type": "address"
        },
        {
          "indexed": true,
          "internalType": "uint256",
          "name": "epoch",
          "type": "uint256"
        },
        {
          "indexed": false,
          "internalType": "uint256",
          "name": "couponAmount",
          "type": "uint256"
        }
      ],
      "name": "CouponRedemption",
      "type": "event"
    },
    {
      "anonymous": false,
      "inputs": [
        {
          "indexed": true,
          "internalType": "address",
          "name": "from",
          "type": "address"
        },
        {
          "indexed": true,
          "internalType": "address",
          "name": "to",
          "type": "address"
        },
        {
          "indexed": true,
          "internalType": "uint256",
          "name": "epoch",
          "type": "uint256"
        },
        {
          "indexed": false,
          "internalType": "uint256",
          "name": "value",
          "type": "uint256"
        }
      ],
      "name": "CouponTransfer",
      "type": "event"
    },
    {
      "anonymous": false,
      "inputs": [
        {
          "indexed": true,
          "internalType": "address",
          "name": "account",
          "type": "address"
        },
        {
          "indexed": false,
          "internalType": "uint256",
          "name": "value",
          "type": "uint256"
        }
      ],
      "name": "Deposit",
      "type": "event"
    },
    {
      "anonymous": false,
      "inputs": [
        {
          "indexed": true,
          "internalType": "address",
          "name": "account",
          "type": "address"
        },
        {
          "indexed": false,
          "internalType": "uint256",
          "name": "amount",
          "type": "uint256"
        }
      ],
      "name": "Incentivization",
      "type": "event"
    },
    {
      "anonymous": false,
      "inputs": [
        {
          "indexed": true,
          "internalType": "uint256",
          "name": "epoch",
          "type": "uint256"
        },
        {
          "indexed": false,
          "internalType": "uint256",
          "name": "price",
          "type": "uint256"
        },
        {
          "indexed": false,
          "internalType": "uint256",
          "name": "newDebt",
          "type": "uint256"
        }
      ],
      "name": "SupplyDecrease",
      "type": "event"
    },
    {
      "anonymous": false,
      "inputs": [
        {
          "indexed": true,
          "internalType": "uint256",
          "name": "epoch",
          "type": "uint256"
        },
        {
          "indexed": false,
          "internalType": "uint256",
          "name": "price",
          "type": "uint256"
        },
        {
          "indexed": false,
          "internalType": "uint256",
          "name": "newRedeemable",
          "type": "uint256"
        },
        {
          "indexed": false,
          "internalType": "uint256",
          "name": "lessDebt",
          "type": "uint256"
        },
        {
          "indexed": false,
          "internalType": "uint256",
          "name": "newBonded",
          "type": "uint256"
        }
      ],
      "name": "SupplyIncrease",
      "type": "event"
    },
    {
      "anonymous": false,
      "inputs": [
        {
          "indexed": true,
          "internalType": "uint256",
          "name": "epoch",
          "type": "uint256"
        }
      ],
      "name": "SupplyNeutral",
      "type": "event"
    },
    {
      "anonymous": false,
      "inputs": [
        {
          "indexed": true,
          "internalType": "address",
          "name": "from",
          "type": "address"
        },
        {
          "indexed": true,
          "internalType": "address",
          "name": "to",
          "type": "address"
        },
        {
          "indexed": false,
          "internalType": "uint256",
          "name": "value",
          "type": "uint256"
        }
      ],
      "name": "Transfer",
      "type": "event"
    },
    {
      "anonymous": false,
      "inputs": [
        {
          "indexed": true,
          "internalType": "address",
          "name": "account",
          "type": "address"
        },
        {
          "indexed": false,
          "internalType": "uint256",
          "name": "start",
          "type": "uint256"
        },
        {
          "indexed": false,
          "internalType": "uint256",
          "name": "value",
          "type": "uint256"
        },
        {
          "indexed": false,
          "internalType": "uint256",
          "name": "valueUnderlying",
          "type": "uint256"
        }
      ],
      "name": "Unbond",
      "type": "event"
    },
    {
      "anonymous": false,
      "inputs": [
        {
          "indexed": true,
          "internalType": "address",
          "name": "account",
          "type": "address"
        },
        {
          "indexed": false,
          "internalType": "uint256",
          "name": "value",
          "type": "uint256"
        }
      ],
      "name": "Withdraw",
      "type": "event"
    },
    {
      "constant": false,
      "inputs": [],
      "name": "advance",
      "outputs": [],
      "payable": false,
      "stateMutability": "nonpayable",
      "type": "function"
    },
    {
      "constant": true,
      "inputs": [
        {
          "internalType": "address",
          "name": "owner",
          "type": "address"
        },
        {
          "internalType": "address",
          "name": "spender",
          "type": "address"
        }
      ],
      "name": "allowance",
      "outputs": [
        {
          "internalType": "uint256",
          "name": "",
          "type": "uint256"
        }
      ],
      "payable": false,
      "stateMutability": "view",
      "type": "function"
    },
    {
      "constant": true,
      "inputs": [
        {
          "internalType": "address",
          "name": "owner",
          "type": "address"
        },
        {
          "internalType": "address",
          "name": "spender",
          "type": "address"
        }
      ],
      "name": "allowanceCoupons",
      "outputs": [
        {
          "internalType": "uint256",
          "name": "",
          "type": "uint256"
        }
      ],
      "payable": false,
      "stateMutability": "view",
      "type": "function"
    },
    {
      "constant": false,
      "inputs": [
        {
          "internalType": "address",
          "name": "spender",
          "type": "address"
        },
        {
          "internalType": "uint256",
          "name": "amount",
          "type": "uint256"
        }
      ],
      "name": "approve",
      "outputs": [
        {
          "internalType": "bool",
          "name": "",
          "type": "bool"
        }
      ],
      "payable": false,
      "stateMutability": "nonpayable",
      "type": "function"
    },
    {
      "constant": false,
      "inputs": [
        {
          "internalType": "address",
          "name": "spender",
          "type": "address"
        },
        {
          "internalType": "uint256",
          "name": "amount",
          "type": "uint256"
        }
      ],
      "name": "approveCoupons",
      "outputs": [],
      "payable": false,
      "stateMutability": "nonpayable",
      "type": "function"
    },
    {
      "constant": true,
      "inputs": [
        {
          "internalType": "address",
          "name": "candidate",
          "type": "address"
        }
      ],
      "name": "approveFor",
      "outputs": [
        {
          "internalType": "uint256",
          "name": "",
          "type": "uint256"
        }
      ],
      "payable": false,
      "stateMutability": "view",
      "type": "function"
    },
    {
      "constant": true,
      "inputs": [
        {
          "internalType": "address",
          "name": "account",
          "type": "address"
        }
      ],
      "name": "balanceOf",
      "outputs": [
        {
          "internalType": "uint256",
          "name": "",
          "type": "uint256"
        }
      ],
      "payable": false,
      "stateMutability": "view",
      "type": "function"
    },
    {
      "constant": true,
      "inputs": [
        {
          "internalType": "address",
          "name": "account",
          "type": "address"
        }
      ],
      "name": "balanceOfBonded",
      "outputs": [
        {
          "internalType": "uint256",
          "name": "",
          "type": "uint256"
        }
      ],
      "payable": false,
      "stateMutability": "view",
      "type": "function"
    },
    {
      "constant": true,
      "inputs": [
        {
          "internalType": "address",
          "name": "account",
          "type": "address"
        },
        {
          "internalType": "uint256",
          "name": "epoch",
          "type": "uint256"
        }
      ],
      "name": "balanceOfCoupons",
      "outputs": [
        {
          "internalType": "uint256",
          "name": "",
          "type": "uint256"
        }
      ],
      "payable": false,
      "stateMutability": "view",
      "type": "function"
    },
    {
      "constant": true,
      "inputs": [
        {
          "internalType": "address",
          "name": "account",
          "type": "address"
        }
      ],
      "name": "balanceOfStaged",
      "outputs": [
        {
          "internalType": "uint256",
          "name": "",
          "type": "uint256"
        }
      ],
      "payable": false,
      "stateMutability": "view",
      "type": "function"
    },
    {
      "constant": false,
      "inputs": [
        {
          "internalType": "uint256",
          "name": "value",
          "type": "uint256"
        }
      ],
      "name": "bond",
      "outputs": [],
      "payable": false,
      "stateMutability": "nonpayable",
      "type": "function"
    },
    {
      "constant": true,
      "inputs": [
        {
          "internalType": "uint256",
          "name": "epoch",
          "type": "uint256"
        }
      ],
      "name": "bootstrappingAt",
      "outputs": [
        {
          "internalType": "bool",
          "name": "",
          "type": "bool"
        }
      ],
      "payable": false,
      "stateMutability": "view",
      "type": "function"
    },
    {
      "constant": true,
      "inputs": [
        {
          "internalType": "uint256",
          "name": "amount",
          "type": "uint256"
        }
      ],
      "name": "couponPremium",
      "outputs": [
        {
          "internalType": "uint256",
          "name": "",
          "type": "uint256"
        }
      ],
      "payable": false,
      "stateMutability": "view",
      "type": "function"
    },
    {
      "constant": true,
      "inputs": [
        {
          "internalType": "uint256",
          "name": "couponEpoch",
          "type": "uint256"
        },
        {
          "internalType": "uint256",
          "name": "couponAmount",
          "type": "uint256"
        }
      ],
      "name": "couponRedemptionPenalty",
      "outputs": [
        {
          "internalType": "uint256",
          "name": "",
          "type": "uint256"
        }
      ],
      "payable": false,
      "stateMutability": "view",
      "type": "function"
    },
    {
      "constant": true,
      "inputs": [
        {
          "internalType": "uint256",
          "name": "epoch",
          "type": "uint256"
        }
      ],
      "name": "couponsExpiration",
      "outputs": [
        {
          "internalType": "uint256",
          "name": "",
          "type": "uint256"
        }
      ],
      "payable": false,
      "stateMutability": "view",
      "type": "function"
    },
    {
      "constant": true,
      "inputs": [],
      "name": "decimals",
      "outputs": [
        {
          "internalType": "uint8",
          "name": "",
          "type": "uint8"
        }
      ],
      "payable": false,
      "stateMutability": "view",
      "type": "function"
    },
    {
      "constant": false,
      "inputs": [
        {
          "internalType": "uint256",
          "name": "value",
          "type": "uint256"
        }
      ],
      "name": "deposit",
      "outputs": [],
      "payable": false,
      "stateMutability": "nonpayable",
      "type": "function"
    },
    {
      "constant": true,
      "inputs": [],
      "name": "dev",
      "outputs": [
        {
          "internalType": "address",
          "name": "",
          "type": "address"
        }
      ],
      "payable": false,
      "stateMutability": "view",
      "type": "function"
    },
    {
      "constant": true,
      "inputs": [],
      "name": "dollar",
      "outputs": [
        {
          "internalType": "contract IDollar",
          "name": "",
          "type": "address"
        }
      ],
      "payable": false,
      "stateMutability": "view",
      "type": "function"
    },
    {
      "constant": true,
      "inputs": [],
      "name": "epoch",
      "outputs": [
        {
          "internalType": "uint256",
          "name": "",
          "type": "uint256"
        }
      ],
      "payable": false,
      "stateMutability": "view",
      "type": "function"
    },
    {
      "constant": true,
      "inputs": [],
      "name": "epochTime",
      "outputs": [
        {
          "internalType": "uint256",
          "name": "",
          "type": "uint256"
        }
      ],
      "payable": false,
      "stateMutability": "view",
      "type": "function"
    },
    {
      "constant": true,
      "inputs": [
        {
          "internalType": "uint256",
          "name": "epoch",
          "type": "uint256"
        }
      ],
      "name": "expiringCoupons",
      "outputs": [
        {
          "internalType": "uint256",
          "name": "",
          "type": "uint256"
        }
      ],
      "payable": false,
      "stateMutability": "view",
      "type": "function"
    },
    {
      "constant": true,
      "inputs": [
        {
          "internalType": "uint256",
          "name": "epoch",
          "type": "uint256"
        },
        {
          "internalType": "uint256",
          "name": "i",
          "type": "uint256"
        }
      ],
      "name": "expiringCouponsAtIndex",
      "outputs": [
        {
          "internalType": "uint256",
          "name": "",
          "type": "uint256"
        }
      ],
      "payable": false,
      "stateMutability": "view",
      "type": "function"
    },
    {
      "constant": true,
      "inputs": [
        {
          "internalType": "address",
          "name": "account",
          "type": "address"
        }
      ],
      "name": "fluidUntil",
      "outputs": [
        {
          "internalType": "uint256",
          "name": "",
          "type": "uint256"
        }
      ],
      "payable": false,
      "stateMutability": "view",
      "type": "function"
    },
    {
      "constant": true,
      "inputs": [],
      "name": "implementation",
      "outputs": [
        {
          "internalType": "address",
          "name": "impl",
          "type": "address"
        }
      ],
      "payable": false,
      "stateMutability": "view",
      "type": "function"
    },
    {
      "constant": false,
      "inputs": [],
      "name": "initialize",
      "outputs": [],
      "payable": false,
      "stateMutability": "nonpayable",
      "type": "function"
    },
    {
      "constant": true,
      "inputs": [
        {
          "internalType": "address",
          "name": "candidate",
          "type": "address"
        }
      ],
      "name": "isInitialized",
      "outputs": [
        {
          "internalType": "bool",
          "name": "",
          "type": "bool"
        }
      ],
      "payable": false,
      "stateMutability": "view",
      "type": "function"
    },
    {
      "constant": true,
      "inputs": [
        {
          "internalType": "address",
          "name": "candidate",
          "type": "address"
        }
      ],
      "name": "isNominated",
      "outputs": [
        {
          "internalType": "bool",
          "name": "",
          "type": "bool"
        }
      ],
      "payable": false,
      "stateMutability": "view",
      "type": "function"
    },
    {
      "constant": true,
      "inputs": [
        {
          "internalType": "address",
          "name": "account",
          "type": "address"
        }
      ],
      "name": "lockedUntil",
      "outputs": [
        {
          "internalType": "uint256",
          "name": "",
          "type": "uint256"
        }
      ],
      "payable": false,
      "stateMutability": "view",
      "type": "function"
    },
    {
      "constant": true,
      "inputs": [],
      "name": "name",
      "outputs": [
        {
          "internalType": "string",
          "name": "",
          "type": "string"
        }
      ],
      "payable": false,
      "stateMutability": "view",
      "type": "function"
    },
    {
      "constant": true,
      "inputs": [],
      "name": "oracle",
      "outputs": [
        {
          "internalType": "contract IOracle",
          "name": "",
          "type": "address"
        }
      ],
      "payable": false,
      "stateMutability": "view",
      "type": "function"
    },
    {
      "constant": true,
      "inputs": [
        {
          "internalType": "uint256",
          "name": "epoch",
          "type": "uint256"
        }
      ],
      "name": "outstandingCoupons",
      "outputs": [
        {
          "internalType": "uint256",
          "name": "",
          "type": "uint256"
        }
      ],
      "payable": false,
      "stateMutability": "view",
      "type": "function"
    },
    {
      "constant": true,
      "inputs": [
        {
          "internalType": "address",
          "name": "candidate",
          "type": "address"
        }
      ],
      "name": "periodFor",
      "outputs": [
        {
          "internalType": "uint256",
          "name": "",
          "type": "uint256"
        }
      ],
      "payable": false,
      "stateMutability": "view",
      "type": "function"
    },
    {
      "constant": true,
      "inputs": [],
      "name": "pool",
      "outputs": [
        {
          "internalType": "address",
          "name": "",
          "type": "address"
        }
      ],
      "payable": false,
      "stateMutability": "view",
      "type": "function"
    },
    {
      "constant": false,
      "inputs": [
        {
          "internalType": "uint256",
          "name": "dollarAmount",
          "type": "uint256"
        }
      ],
      "name": "purchaseCoupons",
      "outputs": [
        {
          "internalType": "uint256",
          "name": "",
          "type": "uint256"
        }
      ],
      "payable": false,
      "stateMutability": "nonpayable",
      "type": "function"
    },
    {
      "constant": true,
      "inputs": [
        {
          "internalType": "address",
          "name": "account",
          "type": "address"
        },
        {
          "internalType": "address",
          "name": "candidate",
          "type": "address"
        }
      ],
      "name": "recordedVote",
      "outputs": [
        {
          "internalType": "enum Candidate.Vote",
          "name": "",
          "type": "uint8"
        }
      ],
      "payable": false,
      "stateMutability": "view",
      "type": "function"
    },
    {
      "constant": false,
      "inputs": [
        {
          "internalType": "uint256",
          "name": "couponEpoch",
          "type": "uint256"
        },
        {
          "internalType": "uint256",
          "name": "couponAmount",
          "type": "uint256"
        },
        {
          "internalType": "uint256",
          "name": "minOutput",
          "type": "uint256"
        }
      ],
      "name": "redeemCoupons",
      "outputs": [],
      "payable": false,
      "stateMutability": "nonpayable",
      "type": "function"
    },
    {
      "constant": false,
      "inputs": [
        {
          "internalType": "uint256",
          "name": "couponEpoch",
          "type": "uint256"
        },
        {
          "internalType": "uint256",
          "name": "couponAmount",
          "type": "uint256"
        }
      ],
      "name": "redeemCoupons",
      "outputs": [],
      "payable": false,
      "stateMutability": "nonpayable",
      "type": "function"
    },
    {
      "constant": true,
      "inputs": [
        {
          "internalType": "address",
          "name": "candidate",
          "type": "address"
        }
      ],
      "name": "rejectFor",
      "outputs": [
        {
          "internalType": "uint256",
          "name": "",
          "type": "uint256"
        }
      ],
      "payable": false,
      "stateMutability": "view",
      "type": "function"
    },
    {
      "constant": true,
      "inputs": [
        {
          "internalType": "address",
          "name": "candidate",
          "type": "address"
        }
      ],
      "name": "startFor",
      "outputs": [
        {
          "internalType": "uint256",
          "name": "",
          "type": "uint256"
        }
      ],
      "payable": false,
      "stateMutability": "view",
      "type": "function"
    },
    {
      "constant": true,
      "inputs": [
        {
          "internalType": "address",
          "name": "account",
          "type": "address"
        }
      ],
      "name": "statusOf",
      "outputs": [
        {
          "internalType": "enum Account.Status",
          "name": "",
          "type": "uint8"
        }
      ],
      "payable": false,
      "stateMutability": "view",
      "type": "function"
    },
    {
      "constant": true,
      "inputs": [],
      "name": "symbol",
      "outputs": [
        {
          "internalType": "string",
          "name": "",
          "type": "string"
        }
      ],
      "payable": false,
      "stateMutability": "view",
      "type": "function"
    },
    {
      "constant": true,
      "inputs": [],
      "name": "totalBonded",
      "outputs": [
        {
          "internalType": "uint256",
          "name": "",
          "type": "uint256"
        }
      ],
      "payable": false,
      "stateMutability": "view",
      "type": "function"
    },
    {
      "constant": true,
      "inputs": [
        {
          "internalType": "uint256",
          "name": "epoch",
          "type": "uint256"
        }
      ],
      "name": "totalBondedAt",
      "outputs": [
        {
          "internalType": "uint256",
          "name": "",
          "type": "uint256"
        }
      ],
      "payable": false,
      "stateMutability": "view",
      "type": "function"
    },
    {
      "constant": true,
      "inputs": [],
      "name": "totalCoupons",
      "outputs": [
        {
          "internalType": "uint256",
          "name": "",
          "type": "uint256"
        }
      ],
      "payable": false,
      "stateMutability": "view",
      "type": "function"
    },
    {
      "constant": true,
      "inputs": [],
      "name": "totalDebt",
      "outputs": [
        {
          "internalType": "uint256",
          "name": "",
          "type": "uint256"
        }
      ],
      "payable": false,
      "stateMutability": "view",
      "type": "function"
    },
    {
      "constant": true,
      "inputs": [],
      "name": "totalNet",
      "outputs": [
        {
          "internalType": "uint256",
          "name": "",
          "type": "uint256"
        }
      ],
      "payable": false,
      "stateMutability": "view",
      "type": "function"
    },
    {
      "constant": true,
      "inputs": [],
      "name": "totalRedeemable",
      "outputs": [
        {
          "internalType": "uint256",
          "name": "",
          "type": "uint256"
        }
      ],
      "payable": false,
      "stateMutability": "view",
      "type": "function"
    },
    {
      "constant": true,
      "inputs": [],
      "name": "totalStaged",
      "outputs": [
        {
          "internalType": "uint256",
          "name": "",
          "type": "uint256"
        }
      ],
      "payable": false,
      "stateMutability": "view",
      "type": "function"
    },
    {
      "constant": true,
      "inputs": [],
      "name": "totalSupply",
      "outputs": [
        {
          "internalType": "uint256",
          "name": "",
          "type": "uint256"
        }
      ],
      "payable": false,
      "stateMutability": "view",
      "type": "function"
    },
    {
      "constant": false,
      "inputs": [
        {
          "internalType": "address",
          "name": "recipient",
          "type": "address"
        },
        {
          "internalType": "uint256",
          "name": "amount",
          "type": "uint256"
        }
      ],
      "name": "transfer",
      "outputs": [
        {
          "internalType": "bool",
          "name": "",
          "type": "bool"
        }
      ],
      "payable": false,
      "stateMutability": "nonpayable",
      "type": "function"
    },
    {
      "constant": false,
      "inputs": [
        {
          "internalType": "address",
          "name": "sender",
          "type": "address"
        },
        {
          "internalType": "address",
          "name": "recipient",
          "type": "address"
        },
        {
          "internalType": "uint256",
          "name": "epoch",
          "type": "uint256"
        },
        {
          "internalType": "uint256",
          "name": "amount",
          "type": "uint256"
        }
      ],
      "name": "transferCoupons",
      "outputs": [],
      "payable": false,
      "stateMutability": "nonpayable",
      "type": "function"
    },
    {
      "constant": false,
      "inputs": [
        {
          "internalType": "address",
          "name": "sender",
          "type": "address"
        },
        {
          "internalType": "address",
          "name": "recipient",
          "type": "address"
        },
        {
          "internalType": "uint256",
          "name": "amount",
          "type": "uint256"
        }
      ],
      "name": "transferFrom",
      "outputs": [
        {
          "internalType": "bool",
          "name": "",
          "type": "bool"
        }
      ],
      "payable": false,
      "stateMutability": "nonpayable",
      "type": "function"
    },
    {
      "constant": false,
      "inputs": [
        {
          "internalType": "uint256",
          "name": "value",
          "type": "uint256"
        }
      ],
      "name": "unbond",
      "outputs": [],
      "payable": false,
      "stateMutability": "nonpayable",
      "type": "function"
    },
    {
      "constant": false,
      "inputs": [
        {
          "internalType": "uint256",
          "name": "value",
          "type": "uint256"
        }
      ],
      "name": "unbondUnderlying",
      "outputs": [],
      "payable": false,
      "stateMutability": "nonpayable",
      "type": "function"
    },
    {
      "constant": true,
      "inputs": [
        {
          "internalType": "address",
          "name": "candidate",
          "type": "address"
        }
      ],
      "name": "votesFor",
      "outputs": [
        {
          "internalType": "uint256",
          "name": "",
          "type": "uint256"
        }
      ],
      "payable": false,
      "stateMutability": "view",
      "type": "function"
    },
    {
      "constant": false,
      "inputs": [
        {
          "internalType": "uint256",
          "name": "value",
          "type": "uint256"
        }
      ],
      "name": "withdraw",
      "outputs": [],
      "payable": false,
      "stateMutability": "nonpayable",
      "type": "function"
    }
  ],
  "bytecode": {
    "object": "608060405234801561001057600080fd5b50613d11806100206000396000f3fe608060405234801561001057600080fd5b50600436106103825760003560e01c8063825ad607116101de578063b6b55f251161010f578063d8f54138116100ad578063ea105ac71161007c578063ea105ac714610709578063f1b7cf4914610711578063fc7b9c1814610724578063ffbe3b731461072c57610382565b8063d8f54138146106c2578063dd62ed3e146106d5578063df9a2b1c146106e3578063e5f55c7e146106f657610382565b8063c9aff70c116100e9578063c9aff70c14610681578063cf02377914610694578063d60b347f1461069c578063d6a9cf08146106af57610382565b8063b6b55f2514610648578063bc0b1df61461065b578063bc7513e21461066e57610382565b80639a649edc1161017c578063a1eb31e811610156578063a1eb31e81461061a578063a50cd8e71461062d578063a6c409f114610640578063a9059cbb146103ba57610382565b80639a649edc146105ec5780639bc289f1146105f45780639f6e1b261461060757610382565b806391cca3db116101b857806391cca3db146105b657806395d89b41146105be57806397a5d5b5146105c65780639940686e146105d957610382565b8063825ad6071461058857806386cf9f141461059b578063900cf0cf146105ae57610382565b80633a3e6c81116102b85780635c60da1b1161025657806370a082311161023057806370a082311461055257806375d5024b146105655780637dc0d1d0146105785780638129fc1c1461058057610382565b80635c60da1b14610524578063646680221461052c5780636a39e3281461053f57610382565b80634c736099116102925780634c736099146104e15780635053e461146104f457806351adeb57146104fc57806351bf21d81461051157610382565b80633a3e6c81146104a65780633fbba9a6146104b957806344d96e95146104d957610382565b80631edbcf6c116103255780632e1a7d4d116102ff5780632e1a7d4d146104585780632f7f889e1461046b578063313ce5671461047e578063353a420c1461049357610382565b80631edbcf6c1461042a57806323b872dd1461043257806327de9e321461044557610382565b806310e95b6c1161036157806310e95b6c146103da57806315e14bf6146103fa57806316f0115b1461040d57806318160ddd1461042257610382565b80625edd371461038757806306fdde031461039c578063095ea7b3146103ba575b600080fd5b61039a610395366004613547565b61073f565b005b6103a4610862565b6040516103b19190613a14565b60405180910390f35b6103cd6103c83660046135a8565b61089a565b6040516103b191906139ea565b6103ed6103e8366004613644565b6108a3565b6040516103b19190613a85565b6103ed6104083660046134a2565b6108bb565b6104156108d9565b6040516103b1919061397d565b6103ed6108e8565b6103ed6108ee565b6103cd6104403660046134fa565b6108f4565b61039a610453366004613644565b6108fe565b61039a610466366004613644565b610a48565b61039a6104793660046135a8565b610b80565b610486610c00565b6040516103b19190613af1565b6103ed6104a13660046134a2565b610c05565b6103cd6104b43660046134a2565b610c23565b6104cc6104c73660046134c0565b610c40565b6040516103b19190613a06565b6103ed610c73565b6103ed6104ef366004613680565b610c79565b6103ed610ca9565b610504610ccc565b6040516103b191906139f8565b6103ed61051f3660046134a2565b610cdb565b610415610cf9565b6103ed61053a3660046134a2565b610d1e565b6103ed61054d366004613644565b610d3c565b6103ed6105603660046134a2565b610d51565b6103cd610573366004613644565b610d6f565b610504610d82565b61039a610d91565b6103ed6105963660046134a2565b610e04565b6103ed6105a93660046134a2565b610e44565b6103ed610e5f565b610415610e65565b6103a4610e7d565b6104cc6105d43660046134a2565b610e9d565b61039a6105e7366004613644565b610f02565b6103ed610fd0565b6103ed6106023660046134a2565b610fd6565b6103ed6106153660046134c0565b610ff4565b6103ed610628366004613680565b611023565b6103ed61063b3660046134a2565b611149565b6103ed611160565b61039a610656366004613644565b6111f6565b61039a61066936600461369f565b6112ce565b6103ed61067c3660046135a8565b611402565b6103ed61068f366004613644565b611446565b6103ed61145b565b6103cd6106aa3660046134a2565b611461565b61039a6106bd366004613680565b611482565b6103ed6106d0366004613644565b61157e565b6103ed6103c83660046134c0565b61039a6106f1366004613644565b611609565b6103ed610704366004613644565b6116c7565b61039a6117b9565b6103ed61071f3660046134a2565b61186c565b6103ed611887565b6103ed61073a366004613644565b61188d565b6001600160a01b03841661076e5760405162461bcd60e51b815260040161076590613a65565b60405180910390fd5b6001600160a01b0383166107945760405162461bcd60e51b815260040161076590613a35565b6107b8848383604051806060016040528060238152602001613bf06023913961189f565b6107c383838361194a565b336001600160a01b038516148015906107e757506000196107e48533610ff4565b14155b1561081057610810843383604051806060016040528060248152602001613c37602491396119f1565b81836001600160a01b0316856001600160a01b03167f0f1dbb1ccbe57a1590c7baad7b01d581b730c9ebc535dcde4345e6db424063d8846040516108549190613a85565b60405180910390a450505050565b60408051808201909152601881527f466f726569676e20536574202d204555524f205374616b65000000000000000060208201525b90565b60005b92915050565b6000818152600d60205260409020600201545b919050565b6001600160a01b03166000908152600e602052604090206001015490565b600b546001600160a01b031690565b60035490565b60065490565b60005b9392505050565b3361094560025b61090e83610e9d565b600281111561091957fe5b1415692832b936b4b9b9b4b7b760b11b72139bdd08199c9bde995b881bdc88199b1d5a59606a1b611a62565b61094e33611abc565b600061098161095c33610d51565b61097561096833610e04565b869063ffffffff611aee16565b9063ffffffff611b2816565b905061098d3382611b6a565b6109af81604051806060016040528060228152602001613c5b60229139611bc6565b6109ef33846040518060400160405280601d81526020017f426f6e64696e673a20696e73756666696369656e742062616c616e6365000000815250611be1565b337f93530ac0ee8c50e696e13c5ac62355d0c0ba4bd943620d5bda1eb08b64ae7512610a2a6001610a1e610e5f565b9063ffffffff611c8c16565b8584604051610a3b93929190613aa1565b60405180910390a2505050565b33610a9060015b610a5883610e9d565b6002811115610a6357fe5b1415692832b936b4b9b9b4b7b760b11b73139bdd08199c9bde995b881bdc881b1bd8dad95960621b611a62565b610a98610ccc565b6001600160a01b031663a9059cbb33846040518363ffffffff1660e01b8152600401610ac59291906139b3565b602060405180830381600087803b158015610adf57600080fd5b505af1158015610af3573d6000803e3d6000fd5b505050506040513d601f19601f82011682018060405250610b1791908101906135d8565b50610b3b3383604051806060016040528060248152602001613c1360249139611cb1565b336001600160a01b03167f884edad9ce6fa2440d8a54cc123490eb96d2768479d49ff9c7366125a942436483604051610b749190613a85565b60405180910390a25050565b6001600160a01b038216610ba65760405162461bcd60e51b815260040161076590613a55565b610bb1338383611d10565b816001600160a01b0316336001600160a01b03167f8ff27e6b95060c1ca851e7c2c28af8b413eb1a8bcb637b0290da9543a709cce383604051610bf49190613a85565b60405180910390a35050565b601290565b6001600160a01b03166000908152600e602052604090206003015490565b6001600160a01b03166000908152600e6020526040902054151590565b6001600160a01b038082166000908152600e60209081526040808320938616835260049093019052205460ff1692915050565b60045490565b6000828152600d60205260408120600301805483908110610c9657fe5b9060005260206000200154905092915050565b6000610cb361340f565b610cbb611d40565b9050610cc681611d6f565b91505090565b6009546001600160a01b031690565b6001600160a01b03166000908152600c602052604090206004015490565b7f360894a13ba1a3210667c828492db98dca3e2076cc3735a920a3ca505d382bbc5490565b6001600160a01b03166000908152600e602052604090206002015490565b6000908152600d602052604090206003015490565b6001600160a01b03166000908152600c602052604090206001015490565b6000610d79611d91565b90911115919050565b600a546001600160a01b031690565b610dca610d9f6106aa610cf9565b15692832b936b4b9b9b4b7b760b11b72105b1c9958591e481a5b9a5d1a585b1a5e9959606a1b611a62565b610dda610dd5610cf9565b611d96565b610e027376d394ea49910fc2f22cc61972942a9e8a8bde5369021e19e0c9bab2400000611dbd565b565b600080610e0f6108e8565b905080610e205760009150506108b6565b6108f781610975610e3086610d51565b610e38610c73565b9063ffffffff611aee16565b6001600160a01b03166000908152600c602052604090205490565b60025490565b73fccc146b160b0bb812578fc2b2a33766e6f14ab590565b60408051808201909152600681526546534555525360d01b602082015290565b6000610ea7610e5f565b6001600160a01b0383166000908152600c60205260409020600501541115610ed1575060026108b6565b6001600160a01b0382166000908152600c6020526040902060040154610ef5610e5f565b101561089a57600161089d565b33610f0d6002610905565b610f1633611abc565b6000610f20610c73565b15610f4057610f3b610f30610c73565b6109756109686108e8565b610f58565b610f58610f4b611e69565b849063ffffffff611aee16565b9050610f643382611e70565b610f6d83611f0c565b610f903384604051806060016040528060248152602001613c1360249139611cb1565b337f44002fdef5a0c2d2e4e05572e9780b95aef97e0e93ffd7cc076b09fa78ff2b46610fbf6001610a1e610e5f565b8386604051610a3b93929190613aa1565b60085490565b6001600160a01b03166000908152600c602052604090206005015490565b6001600160a01b039182166000908152600c602090815260408083209390941682526003909201909152205490565b60008061102e611d40565b60400151428161103a57fe5b069050600084611048610e5f565b0390506000611055611f25565b8261105e611f25565b03611067611f2b565b028161106f57fe5b04905080831115611086576000935050505061089d565b61108e613430565b6110e16040518060200160405280856110a5611f25565b038152506110d560405180602001604052806110bf611f25565b90526110c9611f31565b9063ffffffff611f5316565b9063ffffffff611f8a16565b90506110eb613430565b60408051602080820183528786038252825190810190925284825261111b916110d590859063ffffffff611f5316565b604080516020810190915288815290915061113c908263ffffffff611f8a16565b5198975050505050505050565b600061089d61115783610c05565b610a1e84610d1e565b60006111f161116d611887565b611175610ccc565b6001600160a01b03166318160ddd6040518163ffffffff1660e01b815260040160206040518083038186803b1580156111ad57600080fd5b505afa1580156111c1573d6000803e3d6000fd5b505050506040513d601f19601f820116820180604052506111e59190810190613662565b9063ffffffff611fb816565b905090565b336112016001610a4f565b611209610ccc565b6001600160a01b03166323b872dd3330856040518463ffffffff1660e01b81526004016112389392919061398b565b602060405180830381600087803b15801561125257600080fd5b505af1158015611266573d6000803e3d6000fd5b505050506040513d601f19601f8201168201806040525061128a91908101906135d8565b506112953383611b6a565b336001600160a01b03167fe1fffcc4923d04b559f4d29a8bfc6cda04eb5b0d3c460751c2402c5c5cc9109c83604051610b749190613a85565b60026112dc846111e5610e5f565b10156112fa5760405162461bcd60e51b815260040161076590613a75565b61131e338484604051806060016040528060238152602001613bf06023913961189f565b600061132a8484611023565b9050808303611366838210156513585c9ad95d60d21b7f496e73756666696369656e74206f757470757420616d6f756e74000000000000611a62565b6113703382611ffa565b81156113b95784336001600160a01b03167f1cd1213d4276c260e84170b4a39025dc8398fbf744edee0709261769b456b94b846040516113b09190613a85565b60405180910390a35b84336001600160a01b03167f46e9903ae8ac9e9f0c9bc321b05965c1c036e7d4783758703f5cdfc4133c51b6836040516113f39190613a85565b60405180910390a35050505050565b600061140d82611446565b6114195750600061089d565b506001600160a01b03919091166000908152600c6020908152604080832093835260029093019052205490565b6000908152600d602052604090206001015490565b60055490565b6001600160a01b03166000908152600e602052604090206005015460ff1690565b6002611490836111e5610e5f565b10156114ae5760405162461bcd60e51b815260040161076590613a75565b6114d2338383604051806060016040528060238152602001613bf06023913961189f565b60006114de8383611023565b90508082036114ed3382611ffa565b81156115365783336001600160a01b03167f1cd1213d4276c260e84170b4a39025dc8398fbf744edee0709261769b456b94b8460405161152d9190613a85565b60405180910390a35b83336001600160a01b03167f46e9903ae8ac9e9f0c9bc321b05965c1c036e7d4783758703f5cdfc4133c51b6836040516115709190613a85565b60405180910390a350505050565b600061089d61158b610ccc565b6001600160a01b03166318160ddd6040518163ffffffff1660e01b815260040160206040518083038186803b1580156115c357600080fd5b505afa1580156115d7573d6000803e3d6000fd5b505050506040513d601f19601f820116820180604052506115fb9190810190613662565b611603611887565b846120a4565b336116146002610905565b61161d33611abc565b600061162a610f30610c73565b90506116363384611b6a565b61165883604051806060016040528060228152602001613c5b60229139611bc6565b61169833826040518060400160405280601d81526020017f426f6e64696e673a20696e73756666696369656e742062616c616e6365000000815250611be1565b337f93530ac0ee8c50e696e13c5ac62355d0c0ba4bd943620d5bda1eb08b64ae7512610fbf6001610a1e610e5f565b6000611700600083116513585c9ad95d60d21b7f4d757374207075726368617365206e6f6e2d7a65726f20616d6f756e74000000611a62565b6117308261170c611887565b10156513585c9ad95d60d21b6e139bdd08195b9bdd59da081919589d608a1b611a62565b600061173a610e5f565b9050600061175761174a8561157e565b859063ffffffff611c8c16565b905061176333856120d1565b61176e33838361194a565b81336001600160a01b03167fbce252db29f761f815dc2e9ea60005af065efba6eb619d2a0b2a113fdeb6141486846040516117aa929190613a93565b60405180910390a39392505050565b60006117c36121e2565b90506117cf3382611dbd565b336001600160a01b03167fbb4f656853bc420ad6e4321622c07eefb4ed40e3f91b35553ce14a6dff4c0981826040516118089190613a85565b60405180910390a26118186121ef565b61182061223a565b611828612350565b611830610e5f565b7fc30b728d1c19e5db3678b8ea9e9a063a5655071e1a325c2f7fdbca48baa906004342604051611861929190613a93565b60405180910390a250565b6001600160a01b03166000908152600e602052604090205490565b60075490565b6000908152600d602052604090205490565b6001600160a01b0384166000908152600c602090815260408083208684526002019091529020546118d790838363ffffffff6123aa16565b6001600160a01b0385166000908152600c60209081526040808320878452600201825280832093909355600d9052206001015461191b90838363ffffffff6123aa16565b6000848152600d602052604090206001015560085461194190838363ffffffff6123aa16565b60085550505050565b6001600160a01b0383166000908152600c60209081526040808320858452600201909152902054611981908263ffffffff611c8c16565b6001600160a01b0384166000908152600c60209081526040808320868452600201825280832093909355600d905220600101546119c4908263ffffffff611c8c16565b6000838152600d60205260409020600101556008546119e9908263ffffffff611c8c16565b600855505050565b6001600160a01b038085166000908152600c602090815260408083209387168352600390930190522054611a2c90838363ffffffff6123aa16565b6001600160a01b039485166000908152600c60209081526040808320969097168252600390950190945293909220929092555050565b82611ab757611a70826123d6565b6101d160f51b611a7f836123d6565b604051602001611a919392919061394c565b60408051601f198184030181529082905262461bcd60e51b825261076591600401613a14565b505050565b611acf611ac7612456565b610a1e610e5f565b6001600160a01b039091166000908152600c6020526040902060040155565b600082611afd5750600061089d565b82820282848281611b0a57fe5b04146108f75760405162461bcd60e51b815260040161076590613a45565b60006108f783836040518060400160405280601a81526020017f536166654d6174683a206469766973696f6e206279207a65726f00000000000081525061245b565b6001600160a01b0382166000908152600c6020526040902054611b93908263ffffffff611c8c16565b6001600160a01b0383166000908152600c6020526040902055600554611bbf908263ffffffff611c8c16565b6005555050565b600454611bda90838363ffffffff6123aa16565b6004555050565b6001600160a01b0383166000908152600c6020526040902060010154611c0e90838363ffffffff6123aa16565b6001600160a01b0384166000908152600c6020526040902060010155600354611c3e90838363ffffffff6123aa16565b6003556040516000906001600160a01b038516907fddf252ad1be2c89b69c2b068fc378daa952ba7f163c4a11628f55a4df523b3ef90611c7f908690613a85565b60405180910390a3505050565b6000828201838110156108f75760405162461bcd60e51b815260040161076590613a25565b6001600160a01b0383166000908152600c6020526040902054611cdb90838363ffffffff6123aa16565b6001600160a01b0384166000908152600c6020526040902055600554611d0890838363ffffffff6123aa16565b600555505050565b6001600160a01b039283166000908152600c60209081526040808320949095168252600390930190925291902055565b611d4861340f565b604051806060016040528060008152602001635fffdde08152602001611c20815250905090565b600061089d8260000151610a1e846040015161097586602001516111e5612492565b607890565b6001600160a01b03166000908152600e60205260409020600501805460ff19166001179055565b611dc5610ccc565b6001600160a01b03166340c10f1983836040518363ffffffff1660e01b8152600401611df29291906139dc565b602060405180830381600087803b158015611e0c57600080fd5b505af1158015611e20573d6000803e3d6000fd5b505050506040513d601f19601f82011682018060405250611e4491908101906135d8565b50611e50610573610e5f565b611e5d57611e5d81612496565b611e656124b3565b5050565b620f424090565b6001600160a01b0382166000908152600c6020526040902060010154611e9c908263ffffffff611c8c16565b6001600160a01b0383166000908152600c6020526040902060010155600354611ecb908263ffffffff611c8c16565b6003556040516001600160a01b038316906000907fddf252ad1be2c89b69c2b068fc378daa952ba7f163c4a11628f55a4df523b3ef90610bf4908590613a85565b600454611f1f908263ffffffff611c8c16565b60045550565b61016890565b610e1090565b611f39613430565b5060408051602081019091526706f05b59d3b20000815290565b611f5b613430565b6040518060200160405280611f818560000151670de0b6b3a76400008660000151612586565b90529392505050565b611f92613430565b6040518060200160405280611f8185600001518560000151670de0b6b3a7640000612586565b60006108f783836040518060400160405280601e81526020017f536166654d6174683a207375627472616374696f6e206f766572666c6f7700008152506123aa565b612002610ccc565b6001600160a01b031663a9059cbb83836040518363ffffffff1660e01b815260040161202f9291906139dc565b602060405180830381600087803b15801561204957600080fd5b505af115801561205d573d6000803e3d6000fd5b505050506040513d601f19601f8201168201806040525061208191908101906135d8565b50611e5d816040518060600160405280602a8152602001613ca5602a913961259c565b60006120c96120c4836120b88787876125b7565b9063ffffffff61272416565b61274b565b949350505050565b6120d9610ccc565b6001600160a01b03166323b872dd8330846040518463ffffffff1660e01b8152600401612108939291906139ce565b602060405180830381600087803b15801561212257600080fd5b505af1158015612136573d6000803e3d6000fd5b505050506040513d601f19601f8201168201806040525061215a91908101906135d8565b50612163610ccc565b6001600160a01b03166342966c68826040518263ffffffff1660e01b815260040161218e9190613a85565b600060405180830381600087803b1580156121a857600080fd5b505af11580156121bc573d6000803e3d6000fd5b50505050611e5d81604051806060016040528060288152602001613c7d60289139612768565b6802b5e3af16b188000090565b61222a6121fa610e5f565b612202610ca9565b1166426f6e64696e6760c81b720a6e8d2d8d840c6eae4e4cadce840cae0dec6d606b1b611a62565b612232612783565b610e026127aa565b612242613430565b61224a610d82565b6001600160a01b03166332f22d0c6040518163ffffffff1660e01b815260040160206040518083038186803b15801561228257600080fd5b505afa158015612296573d6000803e3d6000fd5b505050506040513d601f19601f820116820180604052506122ba91908101906135f6565b90506122c4613430565b6122cc6127c3565b90506122de818363ffffffff6128fb16565b156122fc576122eb612911565b6122f58183612918565b5050610e02565b61230c818363ffffffff6129dc16565b1561231b576122f581836129f0565b612323610e5f565b6040517fff7db5a0dc69b02c191ba632db46961b7d0daa1bd30709ddba9b80ad0a15d2c090600090a25050565b60005b61235e61054d610e5f565b8110156123865761237e612379612373610e5f565b83610c79565b612a7d565b600101612353565b506000612394611ac7611f25565b90506123a76123a1610e5f565b82612b18565b50565b600081848411156123ce5760405162461bcd60e51b81526004016107659190613a14565b505050900390565b606080826040516020016123ea9190613937565b60408051601f19818403018152919052905060205b801561243f5781516000199091019082908290811061241a57fe5b01602001516001600160f81b0319161561243a57600101815290506108b6565b6123ff565b505060408051600081526020810190915292915050565b602490565b6000818361247c5760405162461bcd60e51b81526004016107659190613a14565b50600083858161248857fe5b0495945050505050565b4290565b61249f81612b4a565b6124af6124aa612b63565b612b85565b6123a75b610e026124d46124c16108ee565b610a1e6124cc61145b565b610a1e610c73565b6124dc610ccc565b6001600160a01b03166370a08231306040518263ffffffff1660e01b8152600401612507919061397d565b60206040518083038186803b15801561251f57600080fd5b505afa158015612533573d6000803e3d6000fd5b505050506040513d601f19601f820116820180604052506125579190810190613662565b10156a21b7b6b83a3937b63632b960a91b74496e636f6e73697374656e742062616c616e63657360581b611a62565b60006120c982610975868663ffffffff611aee16565b6006546125b090838363ffffffff6123aa16565b6006555050565b6125bf613430565b6125c7613430565b6125d18486612c3e565b90506125db613430565b6125e3612b63565b905060006125f7878663ffffffff611fb816565b9050600061260b878763ffffffff611fb816565b9050612615613430565b61261f8284612c3e565b9050612631858563ffffffff6128fb16565b1561270d57612646818563ffffffff6128fb16565b156126605761265484612c64565b955050505050506108f7565b612668613430565b6126728286612cb0565b905061267c613430565b61268c868463ffffffff612d0d16565b9050612696613430565b61269f87612c64565b90506126a9613430565b6126b9898963ffffffff612d0d16565b90506126fd6126ce848363ffffffff612d3616565b6110c96126e1858563ffffffff611f8a16565b6126f1888863ffffffff611f8a16565b9063ffffffff612d3616565b99505050505050505050506108f7565b6127178186612cb0565b9998505050505050505050565b61272c613430565b604080516020810190915283518190611f81908563ffffffff611aee16565b805160009061089d90670de0b6b3a764000063ffffffff611b2816565b60075461277c90838363ffffffff6123aa16565b6007555050565b61278b6108e8565b600d6000612797610e5f565b8152602081019190915260400160002055565b6002546127be90600163ffffffff611c8c16565b600255565b6127cb613430565b6127d3613430565b60006127dd610d82565b6001600160a01b031663d4a3e9d76040518163ffffffff1660e01b81526004016040805180830381600087803b15801561281657600080fd5b505af115801561282a573d6000803e3d6000fd5b505050506040513d601f19601f8201168201806040525061284e9190810190613614565b9150915061286261057360016111e5610e5f565b156128785761286f612d5f565b92505050610897565b806128f557612885610d82565b6001600160a01b03166332f22d0c6040518163ffffffff1660e01b815260040160206040518083038186803b1580156128bd57600080fd5b505afa1580156128d1573d6000803e3d6000fd5b505050506040513d601f19601f8201168201806040525061286f91908101906135f6565b50905090565b60006129078383612d81565b6002149392505050565b6000600755565b612920613430565b61295861295361292e612db3565b6110c9612939612dd5565b875187516129479190612c3e565b9063ffffffff612d0d16565b612df7565b905060006129776120c461296a611160565b849063ffffffff61272416565b9050600080600061298784612e2b565b925092509250612995610e5f565b87516040517f32fcaa1e76ed9517f4749d8ec9a77dd5e7329456d740b9bf9665d900eef5e283916129cb91879087908790613abc565b60405180910390a250505050505050565b60006129e88383612d81565b159392505050565b6129f8613430565b612a18612953612a1085600001518560000151612c3e565b612947612dd5565b90506000612a2a6120c461296a611160565b9050612a3581612496565b612a3d610e5f565b84516040517f5e139d4b8080a4a00dcc151e8217694aeebae893936326aa22096924a990667791612a6f918590613a93565b60405180910390a250505050565b6000612a8882611446565b905060008080612a9785612f97565b6000612aa16108ee565b90506000612aad610fd0565b905080821115612ae257612ac7828263ffffffff611fb816565b9450612ad285612fda565b612adb85612e2b565b9095509350505b867f753df65b37159bf237ae1fca97ba1bd57cf83bc9498f271a514a4d7bafe87bda878787876040516129cb9493929190613abc565b6000828152600d6020908152604080832060020184905592825291812060030180546001810182559082529190200155565b600754612b5d908263ffffffff611c8c16565b60075550565b612b6b613430565b5060408051602081019091526704db732547630000815290565b6000612c056120c4612b95610ccc565b6001600160a01b03166318160ddd6040518163ffffffff1660e01b815260040160206040518083038186803b158015612bcd57600080fd5b505afa158015612be1573d6000803e3d6000fd5b505050506040513d601f19601f8201168201806040525061296a9190810190613662565b90506000612c11611887565b905081811115611ab7576000612c2d828463ffffffff611fb816565b9050612c3881613061565b50505050565b612c46613430565b6040518060200160405280611f8185670de0b6b3a764000086612586565b612c6c613430565b61089d612c7b60016003612c3e565b612947612ca8612c9e6002612c9288612947612dd5565b9063ffffffff6130a016565b6110d560036130f6565b6110c9612dd5565b612cb8613430565b612cc8838363ffffffff61312a16565b15612cdd57612cd683612c64565b905061089d565b6108f7612cec60016003612c3e565b612947612ca8612cfe87612947612dd5565b6110d5612c9e88612947612dd5565b612d15613430565b6040805160208101909152825184518291611f81919063ffffffff611fb816565b612d3e613430565b6040805160208101909152825184518291611f81919063ffffffff611c8c16565b612d67613430565b506040805160208101909152671b33519d8fc40000815290565b805182516000911415612d965750600161089d565b8151835111612da6576000612da9565b60025b60ff169392505050565b612dbb613430565b50604080516020810190915267a688906bd8b00000815290565b612ddd613430565b506040805160208101909152670de0b6b3a7640000815290565b612dff613430565b612e07613430565b612e0f613131565b9050612e21838263ffffffff6128fb16565b61089d57826108f7565b6000808080808080612e3b6108ee565b90506000612e47610fd0565b905080821015612f0457612e61818363ffffffff611fb816565b9450612e89612e786064612e73613153565b611fb8565b61097587606463ffffffff611aee16565b9450888511612e985784612e9a565b885b9450612eb96064610975612eac613153565b889063ffffffff611aee16565b9250612ecb858463ffffffff611fb816565b9450612ed683613158565b612edf856131ec565b612eef898463ffffffff611fb816565b9850612f01898663ffffffff611fb816565b98505b6000612f0e611887565b905060008a118015612f205750600081115b15612f5257898111612f325780612f34565b895b9450612f3f85613061565b612f4f8a8663ffffffff611fb816565b99505b612f5a610c73565b612f6357600099505b8915612f7257612f728a61327d565b8585612f848c8763ffffffff611c8c16565b9850985098505050505050509193909250565b6000612fa282611446565b905080612faf57506123a7565b600854612fc2908263ffffffff611fb816565b600855506000908152600d6020526040812060010155565b612fe2610ccc565b6001600160a01b03166342966c68826040518263ffffffff1660e01b815260040161300d9190613a85565b600060405180830381600087803b15801561302757600080fd5b505af115801561303b573d6000803e3d6000fd5b505050506124af816040518060600160405280602a8152602001613ca5602a913961259c565b6124af816040518060400160405280601c81526020017f436f6d7074726f6c6c65723a206e6f7420656e6f756768206465627400000000815250612768565b6130a8613430565b816130b757612cd660016130f6565b6130bf613430565b5060408051602081019091528351815260015b838110156130ee576130e48286611f8a565b91506001016130d2565b509392505050565b6130fe613430565b60408051602081019091528061312284670de0b6b3a764000063ffffffff611aee16565b905292915050565b5190511490565b613139613430565b50604080516020810190915267016345785d8a0000815290565b602890565b80156123a757613166610ccc565b6001600160a01b03166340c10f1961317c6108d9565b836040518363ffffffff1660e01b815260040161319a9291906139dc565b602060405180830381600087803b1580156131b457600080fd5b505af11580156131c8573d6000803e3d6000fd5b505050506040513d601f19601f82011682018060405250611e6591908101906135d8565b6131f4610ccc565b6001600160a01b03166340c10f1930836040518363ffffffff1660e01b81526004016132219291906139dc565b602060405180830381600087803b15801561323b57600080fd5b505af115801561324f573d6000803e3d6000fd5b505050506040513d601f19601f8201168201806040525061327391908101906135d8565b506124af8161333b565b6132c0600061328a610c73565b116a21b7b6b83a3937b63632b960a91b7f43616e74206d696e7420746f20656d70747920706f6f6c000000000000000000611a62565b60006132df60646109756132d2613153565b859063ffffffff611aee16565b905060008183116132f1576000613301565b613301838363ffffffff611fb816565b9050600061331684606463ffffffff611b2816565b905061332183613158565b61332a82613354565b613333816133eb565b612c386124b3565b60065461334e908263ffffffff611c8c16565b60065550565b80156123a757613362610ccc565b6001600160a01b03166340c10f1930836040518363ffffffff1660e01b815260040161338f9291906139dc565b602060405180830381600087803b1580156133a957600080fd5b505af11580156133bd573d6000803e3d6000fd5b505050506040513d601f19601f820116820180604052506133e191908101906135d8565b506123a781611f0c565b80156123a7576133f9610ccc565b6001600160a01b03166340c10f1961317c610e65565b60405180606001604052806000815260200160008152602001600081525090565b6040518060200160405280600081525090565b803561089d81613bc9565b805161089d81613bdd565b60006020828403121561346b57600080fd5b6134756020613aff565b905060006134838484613497565b82525092915050565b803561089d81613be6565b805161089d81613be6565b6000602082840312156134b457600080fd5b60006120c98484613443565b600080604083850312156134d357600080fd5b60006134df8585613443565b92505060206134f085828601613443565b9150509250929050565b60008060006060848603121561350f57600080fd5b600061351b8686613443565b935050602061352c86828701613443565b925050604061353d8682870161348c565b9150509250925092565b6000806000806080858703121561355d57600080fd5b60006135698787613443565b945050602061357a87828801613443565b935050604061358b8782880161348c565b925050606061359c8782880161348c565b91505092959194509250565b600080604083850312156135bb57600080fd5b60006135c78585613443565b92505060206134f08582860161348c565b6000602082840312156135ea57600080fd5b60006120c9848461344e565b60006020828403121561360857600080fd5b60006120c98484613459565b6000806040838503121561362757600080fd5b60006136338585613459565b92505060206134f08582860161344e565b60006020828403121561365657600080fd5b60006120c9848461348c565b60006020828403121561367457600080fd5b60006120c98484613497565b6000806040838503121561369357600080fd5b60006135c7858561348c565b6000806000606084860312156136b457600080fd5b60006136c0868661348c565b935050602061352c8682870161348c565b6136da81613b6c565b82525050565b6136da81613b33565b6136da81613b3e565b6136da6136fe82613b43565b610897565b6136da6136fe82610897565b600061371a82613b26565b61372481856108b6565b9350613734818560208601613b89565b9290920192915050565b6136da81613b73565b6136da81613b7e565b600061375b82613b26565b6137658185613b2a565b9350613775818560208601613b89565b61377e81613bb5565b9093019392505050565b6000613795601b83613b2a565b7f536166654d6174683a206164646974696f6e206f766572666c6f770000000000815260200192915050565b60006137ce602b83613b2a565b7f4d61726b65743a20436f75706f6e207472616e7366657220746f20746865207a81526a65726f206164647265737360a81b602082015260400192915050565b600061381b602183613b2a565b7f536166654d6174683a206d756c7469706c69636174696f6e206f766572666c6f8152607760f81b602082015260400192915050565b600061385e602a83613b2a565b7f4d61726b65743a20436f75706f6e20617070726f766520746f20746865207a65815269726f206164647265737360b01b602082015260400192915050565b60006138aa602d83613b2a565b7f4d61726b65743a20436f75706f6e207472616e736665722066726f6d2074686581526c207a65726f206164647265737360981b602082015260400192915050565b60006138f9601b83613b2a565b7f4d61726b65743a20546f6f206561726c7920746f2072656465656d0000000000815260200192915050565b6136da81610897565b6136da81613b66565b60006139438284613703565b50602001919050565b6000613958828661370f565b915061396482856136f2565b600282019150613974828461370f565b95945050505050565b6020810161089d82846136e0565b6060810161399982866136d1565b6139a660208301856136e0565b6120c96040830184613925565b604081016139c182856136d1565b6108f76020830184613925565b6060810161399982866136e0565b604081016139c182856136e0565b6020810161089d82846136e9565b6020810161089d828461373e565b6020810161089d8284613747565b602080825281016108f78184613750565b6020808252810161089d81613788565b6020808252810161089d816137c1565b6020808252810161089d8161380e565b6020808252810161089d81613851565b6020808252810161089d8161389d565b6020808252810161089d816138ec565b6020810161089d8284613925565b604081016139c18285613925565b60608101613aaf8286613925565b6139a66020830185613925565b60808101613aca8287613925565b613ad76020830186613925565b613ae46040830185613925565b6139746060830184613925565b6020810161089d828461392e565b60405181810167ffffffffffffffff81118282101715613b1e57600080fd5b604052919050565b5190565b90815260200190565b600061089d82613b5a565b151590565b6001600160f01b03191690565b806108b681613bbf565b6001600160a01b031690565b60ff1690565b600061089d825b600061089d82613b33565b600061089d82613b50565b60005b83811015613ba4578181015183820152602001613b8c565b83811115612c385750506000910152565b601f01601f191690565b600381106123a757fe5b613bd281613b33565b81146123a757600080fd5b613bd281613b3e565b613bd28161089756fe4d61726b65743a20496e73756666696369656e7420636f75706f6e2062616c616e6365426f6e64696e673a20696e73756666696369656e74207374616765642062616c616e63654d61726b65743a20496e73756666696369656e7420636f75706f6e20617070726f76616c426f6e64696e673a20696e73756666696369656e7420746f74616c20626f6e646564436f6d7074726f6c6c65723a206e6f7420656e6f756768206f75747374616e64696e672064656274436f6d7074726f6c6c65723a206e6f7420656e6f7567682072656465656d61626c652062616c616e6365a365627a7a72315820c018e6e6f8bd4a269ca4e49898eb3040a3c2b50b7b6cf9ed4a71d86e88ee16d46c6578706572696d656e74616cf564736f6c63430005110040"
  }
}