{"compiler":"v0.7.6+commit.7338295f","opcodeHash":"0x6e5e9f10c29cb08f10685919290c8e6f4a72a70ef70e59fdaa65be3b5b5c9cbc","metalessHash":"0xec6cc2566c3dc0cc26d161df8e2e14ec218ec02d1858b6362e559769b2c502b8","runtimeHash":"0x3498e73037d56ac9319809757b5e480812e80ef583945d5caa02d04cfae77b30","encodedMetadata":[{"ipfs":"/ipfs/QmWEK785kpLveEHQafqtmFSuZe2B1uCbMoqqYCrfepefko","solc":"0.7.6"}],"abi":[{"inputs":[{"internalType":"address","name":"wa1","type":"address"},{"internalType":"address","name":"wa2","type":"address"},{"internalType":"address","name":"wa3","type":"address"}],"stateMutability":"nonpayable","type":"constructor"},{"anonymous":false,"inputs":[{"indexed":true,"internalType":"address","name":"owner","type":"address"},{"indexed":true,"internalType":"address","name":"approved","type":"address"},{"indexed":true,"internalType":"uint256","name":"tokenId","type":"uint256"}],"name":"Approval","type":"event"},{"anonymous":false,"inputs":[{"indexed":true,"internalType":"address","name":"owner","type":"address"},{"indexed":true,"internalType":"address","name":"operator","type":"address"},{"indexed":false,"internalType":"bool","name":"approved","type":"bool"}],"name":"ApprovalForAll","type":"event"},{"anonymous":false,"inputs":[{"indexed":true,"internalType":"address","name":"minter","type":"address"},{"indexed":true,"internalType":"uint256","name":"id","type":"uint256"}],"name":"CreateLOKNFT","type":"event"},{"anonymous":false,"inputs":[{"indexed":true,"internalType":"address","name":"previousOwner","type":"address"},{"indexed":true,"internalType":"address","name":"newOwner","type":"address"}],"name":"OwnershipTransferred","type":"event"},{"anonymous":false,"inputs":[{"indexed":true,"internalType":"address","name":"from","type":"address"},{"indexed":true,"internalType":"address","name":"to","type":"address"},{"indexed":true,"internalType":"uint256","name":"tokenId","type":"uint256"}],"name":"Transfer","type":"event"},{"inputs":[{"internalType":"address","name":"to","type":"address"},{"internalType":"uint256","name":"tokenId","type":"uint256"}],"name":"approve","outputs":[],"stateMutability":"nonpayable","type":"function"},{"inputs":[{"internalType":"address","name":"owner","type":"address"}],"name":"balanceOf","outputs":[{"internalType":"uint256","name":"","type":"uint256"}],"stateMutability":"view","type":"function"},{"inputs":[],"name":"baseURI","outputs":[{"internalType":"string","name":"","type":"string"}],"stateMutability":"view","type":"function"},{"inputs":[{"internalType":"address[]","name":"mintAddressList","type":"address[]"},{"internalType":"uint256[]","name":"quantityList","type":"uint256[]"}],"name":"batchMintByOwner","outputs":[],"stateMutability":"nonpayable","type":"function"},{"inputs":[],"name":"currentIdTracker","outputs":[{"internalType":"uint256","name":"","type":"uint256"}],"stateMutability":"view","type":"function"},{"inputs":[{"internalType":"uint256","name":"_tokenId","type":"uint256"}],"name":"exists","outputs":[{"internalType":"bool","name":"","type":"bool"}],"stateMutability":"view","type":"function"},{"inputs":[{"internalType":"uint256","name":"tokenId","type":"uint256"}],"name":"getApproved","outputs":[{"internalType":"address","name":"","type":"address"}],"stateMutability":"view","type":"function"},{"inputs":[{"internalType":"address","name":"_owner","type":"address"}],"name":"getTokensOfOwner","outputs":[{"internalType":"uint256[]","name":"","type":"uint256[]"}],"stateMutability":"view","type":"function"},{"inputs":[{"internalType":"address","name":"owner","type":"address"},{"internalType":"address","name":"operator","type":"address"}],"name":"isApprovedForAll","outputs":[{"internalType":"bool","name":"","type":"bool"}],"stateMutability":"view","type":"function"},{"inputs":[],"name":"maxPrivateSaleMintQuantity","outputs":[{"internalType":"uint256","name":"","type":"uint256"}],"stateMutability":"view","type":"function"},{"inputs":[],"name":"maxPublicSaleMintQuantity","outputs":[{"internalType":"uint256","name":"","type":"uint256"}],"stateMutability":"view","type":"function"},{"inputs":[{"internalType":"address","name":"_to","type":"address"},{"internalType":"uint256","name":"mintQuantity","type":"uint256"}],"name":"mintByOwner","outputs":[],"stateMutability":"nonpayable","type":"function"},{"inputs":[],"name":"mintPrice","outputs":[{"internalType":"uint256","name":"","type":"uint256"}],"stateMutability":"view","type":"function"},{"inputs":[],"name":"name","outputs":[{"internalType":"string","name":"","type":"string"}],"stateMutability":"view","type":"function"},{"inputs":[],"name":"owner","outputs":[{"internalType":"address","name":"","type":"address"}],"stateMutability":"view","type":"function"},{"inputs":[{"internalType":"uint256","name":"tokenId","type":"uint256"}],"name":"ownerOf","outputs":[{"internalType":"address","name":"","type":"address"}],"stateMutability":"view","type":"function"},{"inputs":[{"internalType":"uint256","name":"mintQuantity","type":"uint256"}],"name":"privateMintByUser","outputs":[],"stateMutability":"payable","type":"function"},{"inputs":[],"name":"privateSaleIsActive","outputs":[{"internalType":"bool","name":"","type":"bool"}],"stateMutability":"view","type":"function"},{"inputs":[{"internalType":"uint256","name":"mintQuantity","type":"uint256"}],"name":"publicMintByUser","outputs":[],"stateMutability":"payable","type":"function"},{"inputs":[],"name":"publicSaleIsActive","outputs":[{"internalType":"bool","name":"","type":"bool"}],"stateMutability":"view","type":"function"},{"inputs":[],"name":"renounceOwnership","outputs":[],"stateMutability":"nonpayable","type":"function"},{"inputs":[{"internalType":"address","name":"from","type":"address"},{"internalType":"address","name":"to","type":"address"},{"internalType":"uint256","name":"tokenId","type":"uint256"}],"name":"safeTransferFrom","outputs":[],"stateMutability":"nonpayable","type":"function"},{"inputs":[{"internalType":"address","name":"from","type":"address"},{"internalType":"address","name":"to","type":"address"},{"internalType":"uint256","name":"tokenId","type":"uint256"},{"internalType":"bytes","name":"_data","type":"bytes"}],"name":"safeTransferFrom","outputs":[],"stateMutability":"nonpayable","type":"function"},{"inputs":[{"internalType":"address","name":"operator","type":"address"},{"internalType":"bool","name":"approved","type":"bool"}],"name":"setApprovalForAll","outputs":[],"stateMutability":"nonpayable","type":"function"},{"inputs":[{"internalType":"string","name":"baseURI","type":"string"}],"name":"setBaseURI","outputs":[],"stateMutability":"nonpayable","type":"function"},{"inputs":[{"internalType":"bool","name":"saleStatus","type":"bool"}],"name":"setPrivateSaleStatus","outputs":[],"stateMutability":"nonpayable","type":"function"},{"inputs":[{"internalType":"bool","name":"saleStatus","type":"bool"}],"name":"setPublicSaleStatus","outputs":[],"stateMutability":"nonpayable","type":"function"},{"inputs":[{"internalType":"uint256","name":"newTotalSaleElement","type":"uint256"}],"name":"setTotalSaleElement","outputs":[],"stateMutability":"nonpayable","type":"function"},{"inputs":[{"internalType":"bytes4","name":"interfaceId","type":"bytes4"}],"name":"supportsInterface","outputs":[{"internalType":"bool","name":"","type":"bool"}],"stateMutability":"view","type":"function"},{"inputs":[],"name":"symbol","outputs":[{"internalType":"string","name":"","type":"string"}],"stateMutability":"view","type":"function"},{"inputs":[{"internalType":"uint256","name":"index","type":"uint256"}],"name":"tokenByIndex","outputs":[{"internalType":"uint256","name":"","type":"uint256"}],"stateMutability":"view","type":"function"},{"inputs":[{"internalType":"address","name":"owner","type":"address"},{"internalType":"uint256","name":"index","type":"uint256"}],"name":"tokenOfOwnerByIndex","outputs":[{"internalType":"uint256","name":"","type":"uint256"}],"stateMutability":"view","type":"function"},{"inputs":[{"internalType":"uint256","name":"tokenId","type":"uint256"}],"name":"tokenURI","outputs":[{"internalType":"string","name":"","type":"string"}],"stateMutability":"view","type":"function"},{"inputs":[],"name":"totalMint","outputs":[{"internalType":"uint256","name":"","type":"uint256"}],"stateMutability":"view","type":"function"},{"inputs":[],"name":"totalSaleElement","outputs":[{"internalType":"uint256","name":"","type":"uint256"}],"stateMutability":"view","type":"function"},{"inputs":[],"name":"totalSupply","outputs":[{"internalType":"uint256","name":"","type":"uint256"}],"stateMutability":"view","type":"function"},{"inputs":[{"internalType":"address","name":"from","type":"address"},{"internalType":"address","name":"to","type":"address"},{"internalType":"uint256","name":"tokenId","type":"uint256"}],"name":"transferFrom","outputs":[],"stateMutability":"nonpayable","type":"function"},{"inputs":[{"internalType":"address","name":"newOwner","type":"address"}],"name":"transferOwnership","outputs":[],"stateMutability":"nonpayable","type":"function"},{"inputs":[{"internalType":"address[]","name":"addressList","type":"address[]"}],"name":"updateWhiteList","outputs":[],"stateMutability":"nonpayable","type":"function"},{"inputs":[{"internalType":"address","name":"","type":"address"}],"name":"userWhiteList","outputs":[{"internalType":"bool","name":"","type":"bool"}],"stateMutability":"view","type":"function"},{"inputs":[],"name":"wallet1","outputs":[{"internalType":"address","name":"","type":"address"}],"stateMutability":"view","type":"function"},{"inputs":[],"name":"wallet2","outputs":[{"internalType":"address","name":"","type":"address"}],"stateMutability":"view","type":"function"},{"inputs":[],"name":"wallet3","outputs":[{"internalType":"address","name":"","type":"address"}],"stateMutability":"view","type":"function"},{"inputs":[],"name":"withdrawAll","outputs":[],"stateMutability":"nonpayable","type":"function"}],"bytecode":{"object":"60806040523480156200001157600080fd5b50604051620038d5380380620038d5833981810160405260608110156200003757600080fd5b50805160208083015160409384015184518086018652600c81526b4c696f6e204b696e67646f6d60a01b81850152855180870190965260068652651313d2d3919560d21b938601939093529293909291906200009a6301ffc9a760e01b620001b0565b8151620000af90600690602085019062000239565b508051620000c590600790602084019062000239565b50620000d86380ac58cd60e01b620001b0565b620000ea635b5e139f60e01b620001b0565b620000fc63780e9d6360e01b620001b0565b50600090506200010b62000235565b600a80546001600160a01b0319166001600160a01b038316908117909155604051919250906000907f8be0079c531659141344cd1fd0a4f28419497f9722a3daafe3b4186f6b6457e0908290a35060108054600e80546001600160a01b039687166001600160a01b031991821617909155600f8054958716959091169490941790935592166001600160b01b0319909116179055612710600d556000600c55620002e5565b6001600160e01b0319808216141562000210576040805162461bcd60e51b815260206004820152601c60248201527f4552433136353a20696e76616c696420696e7465726661636520696400000000604482015290519081900360640190fd5b6001600160e01b0319166000908152602081905260409020805460ff19166001179055565b3390565b828054600181600116156101000203166002900490600052602060002090601f016020900481019282620002715760008555620002bc565b82601f106200028c57805160ff1916838001178555620002bc565b82800160010185558215620002bc579182015b82811115620002bc5782518255916020019190600101906200029f565b50620002ca929150620002ce565b5090565b5b80821115620002ca5760008155600101620002cf565b6135e080620002f56000396000f3fe6080604052600436106102675760003560e01c80636352211e11610144578063a4f79a77116100b6578063d2cf60d71161007a578063d2cf60d7146109f0578063db8ff1fd14610a23578063e985e9c514610b53578063f2fde38b14610b8e578063f999e05d14610bc1578063fc682b5c14610c6f57610267565b8063a4f79a7714610897578063ae464f1c146108ac578063b423fe67146108c9578063b88d4fde146108f5578063c87b56dd146109c657610267565b806372e0e8ba1161010857806372e0e8ba146107f357806373482ae514610808578063853828b61461081d5780638da5cb5b1461083257806395d89b4114610847578063a22cb4651461085c57610267565b80636352211e146107575780636817c76c146107815780636c0360eb1461079657806370a08231146107ab578063715018a6146107de57610267565b8063287b038b116101dd57806348f7892b116101a157806348f7892b1461059d5780634f558e79146105ba5780634f6ccce7146105e457806355f804b31461060e57806359a7715a146106bf5780635de6dc55146106d457610267565b8063287b038b146104a75780632f745c59146104d35780633542aee21461050c5780633c918bae1461054557806342842e0e1461055a57610267565b80630b8d0a281161022f5780630b8d0a28146103d45780630fcf2e75146103e957806318160ddd146103fe5780631a026c96146104255780631a15e3f61461043a57806323b872dd1461046457610267565b806301ffc9a71461026c57806304737a01146102b457806306fdde03146102c9578063081812fc14610353578063095ea7b314610399575b600080fd5b34801561027857600080fd5b506102a06004803603602081101561028f57600080fd5b50356001600160e01b031916610c84565b604080519115158252519081900360200190f35b3480156102c057600080fd5b506102a0610ca7565b3480156102d557600080fd5b506102de610cb7565b6040805160208082528351818301528351919283929083019185019080838360005b83811015610318578181015183820152602001610300565b50505050905090810190601f1680156103455780820380516001836020036101000a031916815260200191505b509250505060405180910390f35b34801561035f57600080fd5b5061037d6004803603602081101561037657600080fd5b5035610d4d565b604080516001600160a01b039092168252519081900360200190f35b3480156103a557600080fd5b506103d2600480360360408110156103bc57600080fd5b506001600160a01b038135169060200135610daf565b005b3480156103e057600080fd5b5061037d610e8a565b3480156103f557600080fd5b506102a0610e99565b34801561040a57600080fd5b50610413610ea9565b60408051918252519081900360200190f35b34801561043157600080fd5b5061037d610eba565b34801561044657600080fd5b506103d26004803603602081101561045d57600080fd5b5035610ec9565b34801561047057600080fd5b506103d26004803603606081101561048757600080fd5b506001600160a01b03813581169160208101359091169060400135610f30565b3480156104b357600080fd5b506103d2600480360360208110156104ca57600080fd5b50351515610f87565b3480156104df57600080fd5b50610413600480360360408110156104f657600080fd5b506001600160a01b038135169060200135611007565b34801561051857600080fd5b506103d26004803603604081101561052f57600080fd5b506001600160a01b038135169060200135611032565b34801561055157600080fd5b5061037d611157565b34801561056657600080fd5b506103d26004803603606081101561057d57600080fd5b506001600160a01b03813581169160208101359091169060400135611166565b6103d2600480360360208110156105b357600080fd5b5035611181565b3480156105c657600080fd5b506102a0600480360360208110156105dd57600080fd5b5035611399565b3480156105f057600080fd5b506104136004803603602081101561060757600080fd5b50356113a4565b34801561061a57600080fd5b506103d26004803603602081101561063157600080fd5b810190602081018135600160201b81111561064b57600080fd5b82018360208201111561065d57600080fd5b803590602001918460018302840111600160201b8311171561067e57600080fd5b91908080601f0160208091040260200160405190810160405280939291908181526020018383808284376000920191909152509295506113ba945050505050565b3480156106cb57600080fd5b50610413611428565b3480156106e057600080fd5b50610707600480360360208110156106f757600080fd5b50356001600160a01b0316611432565b60408051602080825283518183015283519192839290830191858101910280838360005b8381101561074357818101518382015260200161072b565b505050509050019250505060405180910390f35b34801561076357600080fd5b5061037d6004803603602081101561077a57600080fd5b50356114bb565b34801561078d57600080fd5b506104136114e3565b3480156107a257600080fd5b506102de6114ee565b3480156107b757600080fd5b50610413600480360360208110156107ce57600080fd5b50356001600160a01b031661154f565b3480156107ea57600080fd5b506103d26115b7565b3480156107ff57600080fd5b50610413611663565b34801561081457600080fd5b50610413611669565b34801561082957600080fd5b506103d261166f565b34801561083e57600080fd5b5061037d611922565b34801561085357600080fd5b506102de611931565b34801561086857600080fd5b506103d26004803603604081101561087f57600080fd5b506001600160a01b0381351690602001351515611992565b3480156108a357600080fd5b50610413611a97565b6103d2600480360360208110156108c257600080fd5b5035611a9c565b3480156108d557600080fd5b506103d2600480360360208110156108ec57600080fd5b50351515611d7b565b34801561090157600080fd5b506103d26004803603608081101561091857600080fd5b6001600160a01b03823581169260208101359091169160408201359190810190608081016060820135600160201b81111561095257600080fd5b82018360208201111561096457600080fd5b803590602001918460018302840111600160201b8311171561098557600080fd5b91908080601f016020809104026020016040519081016040528093929190818152602001838380828437600092019190915250929550611dfb945050505050565b3480156109d257600080fd5b506102de600480360360208110156109e957600080fd5b5035611e53565b3480156109fc57600080fd5b506102a060048036036020811015610a1357600080fd5b50356001600160a01b03166120d4565b348015610a2f57600080fd5b506103d260048036036040811015610a4657600080fd5b810190602081018135600160201b811115610a6057600080fd5b820183602082011115610a7257600080fd5b803590602001918460208302840111600160201b83111715610a9357600080fd5b9190808060200260200160405190810160405280939291908181526020018383602002808284376000920191909152509295949360208101935035915050600160201b811115610ae257600080fd5b820183602082011115610af457600080fd5b803590602001918460208302840111600160201b83111715610b1557600080fd5b9190808060200260200160405190810160405280939291908181526020018383602002808284376000920191909152509295506120e9945050505050565b348015610b5f57600080fd5b506102a060048036036040811015610b7657600080fd5b506001600160a01b03813581169160200135166121e5565b348015610b9a57600080fd5b506103d260048036036020811015610bb157600080fd5b50356001600160a01b0316612213565b348015610bcd57600080fd5b506103d260048036036020811015610be457600080fd5b810190602081018135600160201b811115610bfe57600080fd5b820183602082011115610c1057600080fd5b803590602001918460208302840111600160201b83111715610c3157600080fd5b919080806020026020016040519081016040528093929190818152602001838360200280828437600092019190915250929550612316945050505050565b348015610c7b57600080fd5b506104136123d4565b6001600160e01b0319811660009081526020819052604090205460ff165b919050565b601054600160a81b900460ff1681565b60068054604080516020601f6002600019610100600188161502019095169490940493840181900481028201810190925282815260609390929091830182828015610d435780601f10610d1857610100808354040283529160200191610d43565b820191906000526020600020905b815481529060010190602001808311610d2657829003601f168201915b5050505050905090565b6000610d58826123d9565b610d935760405162461bcd60e51b815260040180806020018281038252602c8152602001806134b5602c913960400191505060405180910390fd5b506000908152600460205260409020546001600160a01b031690565b6000610dba826114bb565b9050806001600160a01b0316836001600160a01b03161415610e0d5760405162461bcd60e51b81526004018080602001828103825260218152602001806135596021913960400191505060405180910390fd5b806001600160a01b0316610e1f6123e6565b6001600160a01b03161480610e405750610e4081610e3b6123e6565b6121e5565b610e7b5760405162461bcd60e51b81526004018080602001828103825260388152602001806133e76038913960400191505060405180910390fd5b610e8583836123ea565b505050565b600f546001600160a01b031681565b601054600160a01b900460ff1681565b6000610eb56002612458565b905090565b600e546001600160a01b031681565b610ed16123e6565b6001600160a01b0316610ee2611922565b6001600160a01b031614610f2b576040805162461bcd60e51b815260206004820181905260248201526000805160206134e1833981519152604482015290519081900360640190fd5b600d55565b610f41610f3b6123e6565b82612463565b610f7c5760405162461bcd60e51b815260040180806020018281038252603181526020018061357a6031913960400191505060405180910390fd5b610e85838383612507565b610f8f6123e6565b6001600160a01b0316610fa0611922565b6001600160a01b031614610fe9576040805162461bcd60e51b815260206004820181905260248201526000805160206134e1833981519152604482015290519081900360640190fd5b60108054911515600160a81b0260ff60a81b19909216919091179055565b6001600160a01b03821660009081526001602052604081206110299083612653565b90505b92915050565b61103a6123e6565b6001600160a01b031661104b611922565b6001600160a01b031614611094576040805162461bcd60e51b815260206004820181905260248201526000805160206134e1833981519152604482015290519081900360640190fd5b600061109e61265f565b9050600d548111156110e5576040805162461bcd60e51b815260206004820152600b60248201526a141c995cd85b1948115b9960aa1b604482015290519081900360640190fd5b600d548282011115611135576040805162461bcd60e51b81526020600482015260146024820152734d6178204c696d697420546f2050726573616c6560601b604482015290519081900360640190fd5b60005b828110156111515761114984612665565b600101611138565b50505050565b6010546001600160a01b031681565b610e8583838360405180602001604052806000815250611dfb565b601054600160a01b900460ff1615156001146111e4576040805162461bcd60e51b815260206004820152601960248201527f5075626c69632053616c65206973206e6f742061637469766500000000000000604482015290519081900360640190fd5b60006111ee61265f565b90506000821161122f5760405162461bcd60e51b815260040180806020018281038252602681526020018061334b6026913960400191505060405180910390fd5b600d54811115611274576040805162461bcd60e51b815260206004820152600b60248201526a141c995cd85b1948115b9960aa1b604482015290519081900360640190fd5b600d5482820111156112c7576040805162461bcd60e51b81526020600482015260176024820152764d6178204c696d697420546f20546f74616c2053616c6560481b604482015290519081900360640190fd5b601e82111561131d576040805162461bcd60e51b815260206004820152601a60248201527f45786365656473205075626c69632053616c6520416d6f756e74000000000000604482015290519081900360640190fd5b3461132f66f8b0a10e470000846126c7565b1115611376576040805162461bcd60e51b8152602060048201526011602482015270131bddc8141c9a58d948151bc8135a5b9d607a1b604482015290519081900360640190fd5b60005b82811015610e855761139161138c6123e6565b612665565b600101611379565b600061102c826123d9565b6000806113b2600284612720565b509392505050565b6113c26123e6565b6001600160a01b03166113d3611922565b6001600160a01b03161461141c576040805162461bcd60e51b815260206004820181905260248201526000805160206134e1833981519152604482015290519081900360640190fd5b6114258161273c565b50565b6000610eb561265f565b6060600061143f8361154f565b905060008167ffffffffffffffff8111801561145a57600080fd5b50604051908082528060200260200182016040528015611484578160200160208202803683370190505b50905060005b828110156113b25761149c8582611007565b8282815181106114a857fe5b602090810291909101015260010161148a565b600061102c82604051806060016040528060298152602001613449602991396002919061274f565b66f8b0a10e47000081565b60098054604080516020601f6002600019610100600188161502019095169490940493840181900481028201810190925282815260609390929091830182828015610d435780601f10610d1857610100808354040283529160200191610d43565b60006001600160a01b0382166115965760405162461bcd60e51b815260040180806020018281038252602a81526020018061341f602a913960400191505060405180910390fd5b6001600160a01b038216600090815260016020526040902061102c90612458565b6115bf6123e6565b6001600160a01b03166115d0611922565b6001600160a01b031614611619576040805162461bcd60e51b815260206004820181905260248201526000805160206134e1833981519152604482015290519081900360640190fd5b600a546040516000916001600160a01b0316907f8be0079c531659141344cd1fd0a4f28419497f9722a3daafe3b4186f6b6457e0908390a3600a80546001600160a01b0319169055565b600d5481565b600c5481565b6116776123e6565b6001600160a01b0316611688611922565b6001600160a01b0316146116d1576040805162461bcd60e51b815260206004820181905260248201526000805160206134e1833981519152604482015290519081900360640190fd5b478060006116ed6127106116e7846117706126c7565b90612766565b90506116f982826127cd565b9150600061170f6127106116e786610bb86126c7565b905061171b83826127cd565b600e5460405191945084916000916001600160a01b03169085908381818185875af1925050503d806000811461176d576040519150601f19603f3d011682016040523d82523d6000602084013e611772565b606091505b50509050806117c8576040805162461bcd60e51b815260206004820152601b60248201527f5769746864726177204661696c656420546f2057616c6c6574312e0000000000604482015290519081900360640190fd5b600f546040516000916001600160a01b03169085908381818185875af1925050503d8060008114611815576040519150601f19603f3d011682016040523d82523d6000602084013e61181a565b606091505b5050905080611870576040805162461bcd60e51b815260206004820152601a60248201527f5769746864726177204661696c656420546f2057616c6c657432000000000000604482015290519081900360640190fd5b6010546040516000916001600160a01b03169085908381818185875af1925050503d80600081146118bd576040519150601f19603f3d011682016040523d82523d6000602084013e6118c2565b606091505b5050905080611918576040805162461bcd60e51b815260206004820152601a60248201527f5769746864726177204661696c656420546f2057616c6c657433000000000000604482015290519081900360640190fd5b5050505050505050565b600a546001600160a01b031690565b60078054604080516020601f6002600019610100600188161502019095169490940493840181900481028201810190925282815260609390929091830182828015610d435780601f10610d1857610100808354040283529160200191610d43565b61199a6123e6565b6001600160a01b0316826001600160a01b03161415611a00576040805162461bcd60e51b815260206004820152601960248201527f4552433732313a20617070726f766520746f2063616c6c657200000000000000604482015290519081900360640190fd5b8060056000611a0d6123e6565b6001600160a01b03908116825260208083019390935260409182016000908120918716808252919093529120805460ff191692151592909217909155611a516123e6565b6001600160a01b03167f17307eab39ab6107e8899845ad3d59bd9653f200f220920489ca2b5937696c318360405180821515815260200191505060405180910390a35050565b601e81565b601054600160a81b900460ff161515600114611aff576040805162461bcd60e51b815260206004820152601a60248201527f507269766174652053616c65206973206e6f7420616374697665000000000000604482015290519081900360640190fd5b336000908152600b602052604090205460ff161515600114611b68576040805162461bcd60e51b815260206004820152601860248201527f596f75277265206e6f7420696e207768697465206c6973740000000000000000604482015290519081900360640190fd5b6000611b7261265f565b90506000611b86611b816123e6565b61154f565b905060008311611bc75760405162461bcd60e51b815260040180806020018281038252602681526020018061334b6026913960400191505060405180910390fd5b600d54821115611c0c576040805162461bcd60e51b815260206004820152600b60248201526a141c995cd85b1948115b9960aa1b604482015290519081900360640190fd5b600d548383011115611c5f576040805162461bcd60e51b81526020600482015260176024820152764d6178204c696d697420546f20546f74616c2053616c6560481b604482015290519081900360640190fd5b6005831115611cb5576040805162461bcd60e51b815260206004820152601b60248201527f4578636565647320507269766174652053616c6520416d6f756e740000000000604482015290519081900360640190fd5b60058382011115611d04576040805162461bcd60e51b81526020600482015260146024820152734d6178204c696d697420546f2050726573616c6560601b604482015290519081900360640190fd5b34611d1666f8b0a10e470000856126c7565b1115611d5d576040805162461bcd60e51b8152602060048201526011602482015270131bddc8141c9a58d948151bc8135a5b9d607a1b604482015290519081900360640190fd5b60005b8381101561115157611d7361138c6123e6565b600101611d60565b611d836123e6565b6001600160a01b0316611d94611922565b6001600160a01b031614611ddd576040805162461bcd60e51b815260206004820181905260248201526000805160206134e1833981519152604482015290519081900360640190fd5b60108054911515600160a01b0260ff60a01b19909216919091179055565b611e0c611e066123e6565b83612463565b611e475760405162461bcd60e51b815260040180806020018281038252603181526020018061357a6031913960400191505060405180910390fd5b6111518484848461282a565b6060611e5e826123d9565b611e995760405162461bcd60e51b815260040180806020018281038252602f81526020018061352a602f913960400191505060405180910390fd5b60008281526008602090815260408083208054825160026001831615610100026000190190921691909104601f810185900485028201850190935282815292909190830182828015611f2c5780601f10611f0157610100808354040283529160200191611f2c565b820191906000526020600020905b815481529060010190602001808311611f0f57829003601f168201915b505050505090506000611f3d6114ee565b9050805160001415611f5157509050610ca2565b8151156120125780826040516020018083805190602001908083835b60208310611f8c5780518252601f199092019160209182019101611f6d565b51815160209384036101000a600019018019909216911617905285519190930192850191508083835b60208310611fd45780518252601f199092019160209182019101611fb5565b6001836020036101000a0380198251168184511680821785525050505050509050019250505060405160208183030381529060405292505050610ca2565b8061201c8561287c565b6040516020018083805190602001908083835b6020831061204e5780518252601f19909201916020918201910161202f565b51815160209384036101000a600019018019909216911617905285519190930192850191508083835b602083106120965780518252601f199092019160209182019101612077565b6001836020036101000a0380198251168184511680821785525050505050509050019250505060405160208183030381529060405292505050919050565b600b6020526000908152604090205460ff1681565b6120f16123e6565b6001600160a01b0316612102611922565b6001600160a01b03161461214b576040805162461bcd60e51b815260206004820181905260248201526000805160206134e1833981519152604482015290519081900360640190fd5b80518251146121a1576040805162461bcd60e51b815260206004820152601960248201527f546865206c656e6774682073686f756c642062652073616d6500000000000000604482015290519081900360640190fd5b60005b8251811015610e85576121dd8382815181106121bc57fe5b60200260200101518383815181106121d057fe5b6020026020010151611032565b6001016121a4565b6001600160a01b03918216600090815260056020908152604080832093909416825291909152205460ff1690565b61221b6123e6565b6001600160a01b031661222c611922565b6001600160a01b031614612275576040805162461bcd60e51b815260206004820181905260248201526000805160206134e1833981519152604482015290519081900360640190fd5b6001600160a01b0381166122ba5760405162461bcd60e51b81526004018080602001828103825260268152602001806133256026913960400191505060405180910390fd5b600a546040516001600160a01b038084169216907f8be0079c531659141344cd1fd0a4f28419497f9722a3daafe3b4186f6b6457e090600090a3600a80546001600160a01b0319166001600160a01b0392909216919091179055565b61231e6123e6565b6001600160a01b031661232f611922565b6001600160a01b031614612378576040805162461bcd60e51b815260206004820181905260248201526000805160206134e1833981519152604482015290519081900360640190fd5b60005b81518110156123d0576001600b600084848151811061239657fe5b6020908102919091018101516001600160a01b03168252810191909152604001600020805460ff191691151591909117905560010161237b565b5050565b600581565b600061102c600283612957565b3390565b600081815260046020526040902080546001600160a01b0319166001600160a01b038416908117909155819061241f826114bb565b6001600160a01b03167f8c5be1e5ebec7d5bd14f71427d1e84f3dd0314c0f7b2291e5b200ac8c7c3b92560405160405180910390a45050565b600061102c82612963565b600061246e826123d9565b6124a95760405162461bcd60e51b815260040180806020018281038252602c8152602001806133bb602c913960400191505060405180910390fd5b60006124b4836114bb565b9050806001600160a01b0316846001600160a01b031614806124ef5750836001600160a01b03166124e484610d4d565b6001600160a01b0316145b806124ff57506124ff81856121e5565b949350505050565b826001600160a01b031661251a826114bb565b6001600160a01b03161461255f5760405162461bcd60e51b81526004018080602001828103825260298152602001806135016029913960400191505060405180910390fd5b6001600160a01b0382166125a45760405162461bcd60e51b81526004018080602001828103825260248152602001806133716024913960400191505060405180910390fd5b6125af838383610e85565b6125ba6000826123ea565b6001600160a01b03831660009081526001602052604090206125dc9082612967565b506001600160a01b03821660009081526001602052604090206125ff9082612973565b5061260c6002828461297f565b5080826001600160a01b0316846001600160a01b03167fddf252ad1be2c89b69c2b068fc378daa952ba7f163c4a11628f55a4df523b3ef60405160405180910390a4505050565b60006110298383612995565b600c5490565b600061266f61265f565b600c549091506126809060016129f9565b600c5561268d8282612a53565b60405181906001600160a01b038416907f31547150897739004cd3c1910b8cb83ce3237566d6647332520f833bbb6b36ba90600090a35050565b6000826126d65750600061102c565b828202828482816126e357fe5b04146110295760405162461bcd60e51b81526004018080602001828103825260218152602001806134946021913960400191505060405180910390fd5b600080808061272f8686612a6d565b9097909650945050505050565b80516123d090600990602084019061322f565b600061275c848484612ae8565b90505b9392505050565b60008082116127bc576040805162461bcd60e51b815260206004820152601a60248201527f536166654d6174683a206469766973696f6e206279207a65726f000000000000604482015290519081900360640190fd5b8183816127c557fe5b049392505050565b600082821115612824576040805162461bcd60e51b815260206004820152601e60248201527f536166654d6174683a207375627472616374696f6e206f766572666c6f770000604482015290519081900360640190fd5b50900390565b612835848484612507565b61284184848484612bb2565b6111515760405162461bcd60e51b81526004018080602001828103825260328152602001806132f36032913960400191505060405180910390fd5b6060816128a157506040805180820190915260018152600360fc1b6020820152610ca2565b8160005b81156128b957600101600a820491506128a5565b60008167ffffffffffffffff811180156128d257600080fd5b506040519080825280601f01601f1916602001820160405280156128fd576020820181803683370190505b50859350905060001982015b831561294e57600a840660300160f81b8282806001900393508151811061292c57fe5b60200101906001600160f81b031916908160001a905350600a84049350612909565b50949350505050565b60006110298383612d1a565b5490565b60006110298383612d32565b60006110298383612df8565b600061275c84846001600160a01b038516612e42565b815460009082106129d75760405162461bcd60e51b81526004018080602001828103825260228152602001806132d16022913960400191505060405180910390fd5b8260000182815481106129e657fe5b9060005260206000200154905092915050565b600082820183811015611029576040805162461bcd60e51b815260206004820152601b60248201527f536166654d6174683a206164646974696f6e206f766572666c6f770000000000604482015290519081900360640190fd5b6123d0828260405180602001604052806000815250612ed9565b815460009081908310612ab15760405162461bcd60e51b81526004018080602001828103825260228152602001806134726022913960400191505060405180910390fd5b6000846000018481548110612ac257fe5b906000526020600020906002020190508060000154816001015492509250509250929050565b60008281526001840160205260408120548281612b835760405162461bcd60e51b81526004018080602001828103825283818151815260200191508051906020019080838360005b83811015612b48578181015183820152602001612b30565b50505050905090810190601f168015612b755780820380516001836020036101000a031916815260200191505b509250505060405180910390fd5b50846000016001820381548110612b9657fe5b9060005260206000209060020201600101549150509392505050565b6000612bc6846001600160a01b0316612f2b565b612bd2575060016124ff565b6000612ce0630a85bd0160e11b612be76123e6565b88878760405160240180856001600160a01b03168152602001846001600160a01b0316815260200183815260200180602001828103825283818151815260200191508051906020019080838360005b83811015612c4e578181015183820152602001612c36565b50505050905090810190601f168015612c7b5780820380516001836020036101000a031916815260200191505b5095505050505050604051602081830303815290604052906001600160e01b0319166020820180516001600160e01b0383818316178352505050506040518060600160405280603281526020016132f3603291396001600160a01b0388169190612f31565b90506000818060200190516020811015612cf957600080fd5b50516001600160e01b031916630a85bd0160e11b1492505050949350505050565b60009081526001919091016020526040902054151590565b60008181526001830160205260408120548015612dee5783546000198083019190810190600090879083908110612d6557fe5b9060005260206000200154905080876000018481548110612d8257fe5b600091825260208083209091019290925582815260018981019092526040902090840190558654879080612db257fe5b6001900381819060005260206000200160009055905586600101600087815260200190815260200160002060009055600194505050505061102c565b600091505061102c565b6000612e048383612d1a565b612e3a5750815460018181018455600084815260208082209093018490558454848252828601909352604090209190915561102c565b50600061102c565b600082815260018401602052604081205480612ea757505060408051808201825283815260208082018481528654600181810189556000898152848120955160029093029095019182559151908201558654868452818801909252929091205561275f565b82856000016001830381548110612eba57fe5b906000526020600020906002020160010181905550600091505061275f565b612ee38383612f40565b612ef06000848484612bb2565b610e855760405162461bcd60e51b81526004018080602001828103825260328152602001806132f36032913960400191505060405180910390fd5b3b151590565b606061275c848460008561306e565b6001600160a01b038216612f9b576040805162461bcd60e51b815260206004820181905260248201527f4552433732313a206d696e7420746f20746865207a65726f2061646472657373604482015290519081900360640190fd5b612fa4816123d9565b15612ff6576040805162461bcd60e51b815260206004820152601c60248201527f4552433732313a20746f6b656e20616c7265616479206d696e74656400000000604482015290519081900360640190fd5b61300260008383610e85565b6001600160a01b03821660009081526001602052604090206130249082612973565b506130316002828461297f565b5060405181906001600160a01b038416906000907fddf252ad1be2c89b69c2b068fc378daa952ba7f163c4a11628f55a4df523b3ef908290a45050565b6060824710156130af5760405162461bcd60e51b81526004018080602001828103825260268152602001806133956026913960400191505060405180910390fd5b6130b885612f2b565b613109576040805162461bcd60e51b815260206004820152601d60248201527f416464726573733a2063616c6c20746f206e6f6e2d636f6e7472616374000000604482015290519081900360640190fd5b600080866001600160a01b031685876040518082805190602001908083835b602083106131475780518252601f199092019160209182019101613128565b6001836020036101000a03801982511681845116808217855250505050505090500191505060006040518083038185875af1925050503d80600081146131a9576040519150601f19603f3d011682016040523d82523d6000602084013e6131ae565b606091505b50915091506131be8282866131c9565b979650505050505050565b606083156131d857508161275f565b8251156131e85782518084602001fd5b60405162461bcd60e51b8152602060048201818152845160248401528451859391928392604401919085019080838360008315612b48578181015183820152602001612b30565b828054600181600116156101000203166002900490600052602060002090601f01602090048101928261326557600085556132ab565b82601f1061327e57805160ff19168380011785556132ab565b828001600101855582156132ab579182015b828111156132ab578251825591602001919060010190613290565b506132b79291506132bb565b5090565b5b808211156132b757600081556001016132bc56fe456e756d657261626c655365743a20696e646578206f7574206f6620626f756e64734552433732313a207472616e7366657220746f206e6f6e20455243373231526563656976657220696d706c656d656e7465724f776e61626c653a206e6577206f776e657220697320746865207a65726f20616464726573734d696e74205175616e746974792073686f756c64206265206d6f7265207468616e207a65726f4552433732313a207472616e7366657220746f20746865207a65726f2061646472657373416464726573733a20696e73756666696369656e742062616c616e636520666f722063616c6c4552433732313a206f70657261746f7220717565727920666f72206e6f6e6578697374656e7420746f6b656e4552433732313a20617070726f76652063616c6c6572206973206e6f74206f776e6572206e6f7220617070726f76656420666f7220616c6c4552433732313a2062616c616e636520717565727920666f7220746865207a65726f20616464726573734552433732313a206f776e657220717565727920666f72206e6f6e6578697374656e7420746f6b656e456e756d657261626c654d61703a20696e646578206f7574206f6620626f756e6473536166654d6174683a206d756c7469706c69636174696f6e206f766572666c6f774552433732313a20617070726f76656420717565727920666f72206e6f6e6578697374656e7420746f6b656e4f776e61626c653a2063616c6c6572206973206e6f7420746865206f776e65724552433732313a207472616e73666572206f6620746f6b656e2074686174206973206e6f74206f776e4552433732314d657461646174613a2055524920717565727920666f72206e6f6e6578697374656e7420746f6b656e4552433732313a20617070726f76616c20746f2063757272656e74206f776e65724552433732313a207472616e736665722063616c6c6572206973206e6f74206f776e6572206e6f7220617070726f766564a2646970667358221220aaf81a34fa0fdf53e59677897c6fcdb5248ae77593b491ce0a3567c98333cc1b64736f6c63430007060033"}}