{
  "opcodeHash": "0x6c36bc7f888a9652bf6fb2fe21deda40527e6599f9caf261df7a91f9e209305c",
  "metalessHash": "0xfae58b33ef738c48037f1a1d539cb4cb174fac1d4aa609701931c8eb3264ae2a",
  "runtimeHash": "0xf09fb2d76b2e26d9899423183ec84c980cf3330961f7d0c27ce3e94630e389b3",
  "encodedMetadata": [
    {
      "ipfs": "/ipfs/QmbLLWaNfpx5DGSESzdKXbY81mR1yfiYfE9iPk5BKotZL4",
      "solc": "0.8.11"
    }
  ],
  "abi": [
    {
      "inputs": [
        {
          "internalType": "string",
          "name": "_name",
          "type": "string"
        },
        {
          "internalType": "string",
          "name": "_symbol",
          "type": "string"
        },
        {
          "internalType": "address",
          "name": "_proxyRegistryAddress",
          "type": "address"
        }
      ],
      "stateMutability": "nonpayable",
      "type": "constructor"
    },
    {
      "anonymous": false,
      "inputs": [
        {
          "indexed": true,
          "internalType": "address",
          "name": "account",
          "type": "address"
        },
        {
          "indexed": true,
          "internalType": "address",
          "name": "operator",
          "type": "address"
        },
        {
          "indexed": false,
          "internalType": "bool",
          "name": "approved",
          "type": "bool"
        }
      ],
      "name": "ApprovalForAll",
      "type": "event"
    },
    {
      "anonymous": false,
      "inputs": [
        {
          "indexed": true,
          "internalType": "address",
          "name": "operator",
          "type": "address"
        },
        {
          "indexed": true,
          "internalType": "address",
          "name": "from",
          "type": "address"
        },
        {
          "indexed": true,
          "internalType": "address",
          "name": "to",
          "type": "address"
        },
        {
          "indexed": false,
          "internalType": "uint256[]",
          "name": "ids",
          "type": "uint256[]"
        },
        {
          "indexed": false,
          "internalType": "uint256[]",
          "name": "values",
          "type": "uint256[]"
        }
      ],
      "name": "TransferBatch",
      "type": "event"
    },
    {
      "anonymous": false,
      "inputs": [
        {
          "indexed": true,
          "internalType": "address",
          "name": "operator",
          "type": "address"
        },
        {
          "indexed": true,
          "internalType": "address",
          "name": "from",
          "type": "address"
        },
        {
          "indexed": true,
          "internalType": "address",
          "name": "to",
          "type": "address"
        },
        {
          "indexed": false,
          "internalType": "uint256",
          "name": "id",
          "type": "uint256"
        },
        {
          "indexed": false,
          "internalType": "uint256",
          "name": "value",
          "type": "uint256"
        }
      ],
      "name": "TransferSingle",
      "type": "event"
    },
    {
      "anonymous": false,
      "inputs": [
        {
          "indexed": false,
          "internalType": "string",
          "name": "value",
          "type": "string"
        },
        {
          "indexed": true,
          "internalType": "uint256",
          "name": "id",
          "type": "uint256"
        }
      ],
      "name": "URI",
      "type": "event"
    },
    {
      "inputs": [
        {
          "internalType": "address",
          "name": "account",
          "type": "address"
        },
        {
          "internalType": "uint256",
          "name": "id",
          "type": "uint256"
        }
      ],
      "name": "balanceOf",
      "outputs": [
        {
          "internalType": "uint256",
          "name": "",
          "type": "uint256"
        }
      ],
      "stateMutability": "view",
      "type": "function"
    },
    {
      "inputs": [
        {
          "internalType": "address[]",
          "name": "accounts",
          "type": "address[]"
        },
        {
          "internalType": "uint256[]",
          "name": "ids",
          "type": "uint256[]"
        }
      ],
      "name": "balanceOfBatch",
      "outputs": [
        {
          "internalType": "uint256[]",
          "name": "",
          "type": "uint256[]"
        }
      ],
      "stateMutability": "view",
      "type": "function"
    },
    {
      "inputs": [
        {
          "internalType": "address",
          "name": "account",
          "type": "address"
        },
        {
          "internalType": "address",
          "name": "operator",
          "type": "address"
        }
      ],
      "name": "isApprovedForAll",
      "outputs": [
        {
          "internalType": "bool",
          "name": "",
          "type": "bool"
        }
      ],
      "stateMutability": "view",
      "type": "function"
    },
    {
      "inputs": [
        {
          "internalType": "uint256",
          "name": "amount",
          "type": "uint256"
        },
        {
          "internalType": "string",
          "name": "metadataHash",
          "type": "string"
        }
      ],
      "name": "mint",
      "outputs": [
        {
          "internalType": "uint256",
          "name": "",
          "type": "uint256"
        }
      ],
      "stateMutability": "nonpayable",
      "type": "function"
    },
    {
      "inputs": [],
      "name": "name",
      "outputs": [
        {
          "internalType": "string",
          "name": "",
          "type": "string"
        }
      ],
      "stateMutability": "view",
      "type": "function"
    },
    {
      "inputs": [],
      "name": "proxyRegistryAddress",
      "outputs": [
        {
          "internalType": "address",
          "name": "",
          "type": "address"
        }
      ],
      "stateMutability": "view",
      "type": "function"
    },
    {
      "inputs": [
        {
          "internalType": "address",
          "name": "from",
          "type": "address"
        },
        {
          "internalType": "address",
          "name": "to",
          "type": "address"
        },
        {
          "internalType": "uint256[]",
          "name": "ids",
          "type": "uint256[]"
        },
        {
          "internalType": "uint256[]",
          "name": "amounts",
          "type": "uint256[]"
        },
        {
          "internalType": "bytes",
          "name": "data",
          "type": "bytes"
        }
      ],
      "name": "safeBatchTransferFrom",
      "outputs": [],
      "stateMutability": "nonpayable",
      "type": "function"
    },
    {
      "inputs": [
        {
          "internalType": "address",
          "name": "from",
          "type": "address"
        },
        {
          "internalType": "address",
          "name": "to",
          "type": "address"
        },
        {
          "internalType": "uint256",
          "name": "id",
          "type": "uint256"
        },
        {
          "internalType": "uint256",
          "name": "amount",
          "type": "uint256"
        },
        {
          "internalType": "bytes",
          "name": "data",
          "type": "bytes"
        }
      ],
      "name": "safeTransferFrom",
      "outputs": [],
      "stateMutability": "nonpayable",
      "type": "function"
    },
    {
      "inputs": [
        {
          "internalType": "address",
          "name": "operator",
          "type": "address"
        },
        {
          "internalType": "bool",
          "name": "approved",
          "type": "bool"
        }
      ],
      "name": "setApprovalForAll",
      "outputs": [],
      "stateMutability": "nonpayable",
      "type": "function"
    },
    {
      "inputs": [
        {
          "internalType": "bytes4",
          "name": "interfaceId",
          "type": "bytes4"
        }
      ],
      "name": "supportsInterface",
      "outputs": [
        {
          "internalType": "bool",
          "name": "",
          "type": "bool"
        }
      ],
      "stateMutability": "view",
      "type": "function"
    },
    {
      "inputs": [],
      "name": "symbol",
      "outputs": [
        {
          "internalType": "string",
          "name": "",
          "type": "string"
        }
      ],
      "stateMutability": "view",
      "type": "function"
    },
    {
      "inputs": [
        {
          "internalType": "uint256",
          "name": "id",
          "type": "uint256"
        }
      ],
      "name": "uri",
      "outputs": [
        {
          "internalType": "string",
          "name": "",
          "type": "string"
        }
      ],
      "stateMutability": "view",
      "type": "function"
    }
  ],
  "bytecode": {
    "object": "60806040526040518060400160405280601c81526020017f68747470733a2f2f697066732e696e667572612e696f2f697066732f00000000815250600690805190602001906200005192919062000106565b5060006007553480156200006457600080fd5b50604051620031eb380380620031eb83398181016040528101906200008a9190620003b8565b8260009080519060200190620000a292919062000106565b508160019080519060200190620000bb92919062000106565b5080600260006101000a81548173ffffffffffffffffffffffffffffffffffffffff021916908373ffffffffffffffffffffffffffffffffffffffff160217905550505050620004b7565b828054620001149062000481565b90600052602060002090601f01602090048101928262000138576000855562000184565b82601f106200015357805160ff191683800117855562000184565b8280016001018555821562000184579182015b828111156200018357825182559160200191906001019062000166565b5b50905062000193919062000197565b5090565b5b80821115620001b257600081600090555060010162000198565b5090565b6000604051905090565b600080fd5b600080fd5b600080fd5b600080fd5b6000601f19601f8301169050919050565b7f4e487b7100000000000000000000000000000000000000000000000000000000600052604160045260246000fd5b6200021f82620001d4565b810181811067ffffffffffffffff82111715620002415762000240620001e5565b5b80604052505050565b600062000256620001b6565b905062000264828262000214565b919050565b600067ffffffffffffffff821115620002875762000286620001e5565b5b6200029282620001d4565b9050602081019050919050565b60005b83811015620002bf578082015181840152602081019050620002a2565b83811115620002cf576000848401525b50505050565b6000620002ec620002e68462000269565b6200024a565b9050828152602081018484840111156200030b576200030a620001cf565b5b620003188482856200029f565b509392505050565b600082601f830112620003385762000337620001ca565b5b81516200034a848260208601620002d5565b91505092915050565b600073ffffffffffffffffffffffffffffffffffffffff82169050919050565b6000620003808262000353565b9050919050565b620003928162000373565b81146200039e57600080fd5b50565b600081519050620003b28162000387565b92915050565b600080600060608486031215620003d457620003d3620001c0565b5b600084015167ffffffffffffffff811115620003f557620003f4620001c5565b5b620004038682870162000320565b935050602084015167ffffffffffffffff811115620004275762000426620001c5565b5b620004358682870162000320565b92505060406200044886828701620003a1565b9150509250925092565b7f4e487b7100000000000000000000000000000000000000000000000000000000600052602260045260246000fd5b600060028204905060018216806200049a57607f821691505b60208210811415620004b157620004b062000452565b5b50919050565b612d2480620004c76000396000f3fe608060405234801561001057600080fd5b50600436106100b35760003560e01c806377097fc81161007157806377097fc8146101b257806395d89b41146101e2578063a22cb46514610200578063cd7c03261461021c578063e985e9c51461023a578063f242432a1461026a576100b3565b8062fdd58e146100b857806301ffc9a7146100e857806306fdde03146101185780630e89341c146101365780632eb2c2d6146101665780634e1273f414610182575b600080fd5b6100d260048036038101906100cd9190611928565b610286565b6040516100df9190611977565b60405180910390f35b61010260048036038101906100fd91906119ea565b6102e1565b60405161010f9190611a32565b60405180910390f35b61012061041b565b60405161012d9190611ae6565b60405180910390f35b610150600480360381019061014b9190611b08565b6104a9565b60405161015d9190611ae6565b60405180910390f35b610180600480360381019061017b9190611d32565b610617565b005b61019c60048036038101906101979190611ec4565b6106aa565b6040516101a99190611ffa565b60405180910390f35b6101cc60048036038101906101c791906120bd565b6107c3565b6040516101d99190611977565b60405180910390f35b6101ea610831565b6040516101f79190611ae6565b60405180910390f35b61021a60048036038101906102159190612145565b6108bf565b005b6102246108ce565b6040516102319190612194565b60405180910390f35b610254600480360381019061024f91906121af565b6108f4565b6040516102619190611a32565b60405180910390f35b610284600480360381019061027f91906121ef565b610a67565b005b60006003600083815260200190815260200160002060008473ffffffffffffffffffffffffffffffffffffffff1673ffffffffffffffffffffffffffffffffffffffff16815260200190815260200160002054905092915050565b60007fd9b67a26000000000000000000000000000000000000000000000000000000007bffffffffffffffffffffffffffffffffffffffffffffffffffffffff1916827bffffffffffffffffffffffffffffffffffffffffffffffffffffffff191614806103ac57507f0e89341c000000000000000000000000000000000000000000000000000000007bffffffffffffffffffffffffffffffffffffffffffffffffffffffff1916827bffffffffffffffffffffffffffffffffffffffffffffffffffffffff1916145b8061041457507f01ffc9a7000000000000000000000000000000000000000000000000000000007bffffffffffffffffffffffffffffffffffffffffffffffffffffffff1916827bffffffffffffffffffffffffffffffffffffffffffffffffffffffff1916145b9050919050565b60008054610428906122b5565b80601f0160208091040260200160405190810160405280929190818152602001828054610454906122b5565b80156104a15780601f10610476576101008083540402835291602001916104a1565b820191906000526020600020905b81548152906001019060200180831161048457829003601f168201915b505050505081565b6060610610600680546104bb906122b5565b80601f01602080910402602001604051908101604052809291908181526020018280546104e7906122b5565b80156105345780601f1061050957610100808354040283529160200191610534565b820191906000526020600020905b81548152906001019060200180831161051757829003601f168201915b5050505050600460008581526020019081526020016000208054610557906122b5565b80601f0160208091040260200160405190810160405280929190818152602001828054610583906122b5565b80156105d05780601f106105a5576101008083540402835291602001916105d0565b820191906000526020600020905b8154815290600101906020018083116105b357829003601f168201915b50505050506040518060400160405280601781526020017f3f66696c656e616d653d6d657461646174612e6a736f6e000000000000000000815250610afa565b9050919050565b3373ffffffffffffffffffffffffffffffffffffffff168573ffffffffffffffffffffffffffffffffffffffff161480610657575061065685336108f4565b5b610696576040517f08c379a000000000000000000000000000000000000000000000000000000000815260040161068d90612359565b60405180910390fd5b6106a38585858585610b29565b5050505050565b606081518351146106f0576040517f08c379a00000000000000000000000000000000000000000000000000000000081526004016106e7906123eb565b60405180910390fd5b6000835167ffffffffffffffff81111561070d5761070c611b3a565b5b60405190808252806020026020018201604052801561073b5781602001602082028036833780820191505090505b50905060005b84518110156107b8576107888582815181106107605761075f61240b565b5b602002602001015185838151811061077b5761077a61240b565b5b6020026020010151610286565b82828151811061079b5761079a61240b565b5b602002602001018181525050806107b190612469565b9050610741565b508091505092915050565b6000600760008154809291906107d890612469565b9190505550600060075490508260046000838152602001908152602001600020908051906020019061080b9291906117dd565b5061082733828660405180602001604052806000815250610e39565b8091505092915050565b6001805461083e906122b5565b80601f016020809104026020016040519081016040528092919081815260200182805461086a906122b5565b80156108b75780601f1061088c576101008083540402835291602001916108b7565b820191906000526020600020905b81548152906001019060200180831161089a57829003601f168201915b505050505081565b6108ca338383610fc9565b5050565b600260009054906101000a900473ffffffffffffffffffffffffffffffffffffffff1681565b600080600260009054906101000a900473ffffffffffffffffffffffffffffffffffffffff1690508273ffffffffffffffffffffffffffffffffffffffff168173ffffffffffffffffffffffffffffffffffffffff1663c4552791866040518263ffffffff1660e01b815260040161096c9190612194565b602060405180830381865afa158015610989573d6000803e3d6000fd5b505050506040513d601f19601f820116820180604052508101906109ad91906124f0565b73ffffffffffffffffffffffffffffffffffffffff1614156109d3576001915050610a61565b600560008573ffffffffffffffffffffffffffffffffffffffff1673ffffffffffffffffffffffffffffffffffffffff16815260200190815260200160002060008473ffffffffffffffffffffffffffffffffffffffff1673ffffffffffffffffffffffffffffffffffffffff16815260200190815260200160002060009054906101000a900460ff169150505b92915050565b3373ffffffffffffffffffffffffffffffffffffffff168573ffffffffffffffffffffffffffffffffffffffff161480610aa75750610aa685336108f4565b5b610ae6576040517f08c379a0000000000000000000000000000000000000000000000000000000008152600401610add9061258f565b60405180910390fd5b610af38585858585611136565b5050505050565b6060838383604051602001610b11939291906125eb565b60405160208183030381529060405290509392505050565b8151835114610b6d576040517f08c379a0000000000000000000000000000000000000000000000000000000008152600401610b649061268e565b60405180910390fd5b600073ffffffffffffffffffffffffffffffffffffffff168473ffffffffffffffffffffffffffffffffffffffff161415610bdd576040517f08c379a0000000000000000000000000000000000000000000000000000000008152600401610bd490612720565b60405180910390fd5b6000339050610bf08187878787876113b4565b60005b8451811015610da4576000858281518110610c1157610c1061240b565b5b602002602001015190506000858381518110610c3057610c2f61240b565b5b6020026020010151905060006003600084815260200190815260200160002060008b73ffffffffffffffffffffffffffffffffffffffff1673ffffffffffffffffffffffffffffffffffffffff16815260200190815260200160002054905081811015610cd2576040517f08c379a0000000000000000000000000000000000000000000000000000000008152600401610cc9906127b2565b60405180910390fd5b8181036003600085815260200190815260200160002060008c73ffffffffffffffffffffffffffffffffffffffff1673ffffffffffffffffffffffffffffffffffffffff16815260200190815260200160002081905550816003600085815260200190815260200160002060008b73ffffffffffffffffffffffffffffffffffffffff1673ffffffffffffffffffffffffffffffffffffffff1681526020019081526020016000206000828254610d8991906127d2565b9250508190555050505080610d9d90612469565b9050610bf3565b508473ffffffffffffffffffffffffffffffffffffffff168673ffffffffffffffffffffffffffffffffffffffff168273ffffffffffffffffffffffffffffffffffffffff167f4a39dc06d4c0dbc64b70af90fd698a233a518aa5d07e595d983b8c0526c8f7fb8787604051610e1b929190612828565b60405180910390a4610e318187878787876113bc565b505050505050565b600073ffffffffffffffffffffffffffffffffffffffff168473ffffffffffffffffffffffffffffffffffffffff161415610ea9576040517f08c379a0000000000000000000000000000000000000000000000000000000008152600401610ea0906128d1565b60405180910390fd5b6000339050610ecd81600087610ebe8861157e565b610ec78861157e565b876113b4565b826003600086815260200190815260200160002060008773ffffffffffffffffffffffffffffffffffffffff1673ffffffffffffffffffffffffffffffffffffffff1681526020019081526020016000206000828254610f2d91906127d2565b925050819055508473ffffffffffffffffffffffffffffffffffffffff16600073ffffffffffffffffffffffffffffffffffffffff168273ffffffffffffffffffffffffffffffffffffffff167fc3d58168c5ae7397731d063d5bbf3d657854427343f4c083240f7aacaa2d0f628787604051610fab9291906128f1565b60405180910390a4610fc2816000878787876115f8565b5050505050565b8173ffffffffffffffffffffffffffffffffffffffff168373ffffffffffffffffffffffffffffffffffffffff161415611038576040517f08c379a000000000000000000000000000000000000000000000000000000000815260040161102f9061298c565b60405180910390fd5b80600560008573ffffffffffffffffffffffffffffffffffffffff1673ffffffffffffffffffffffffffffffffffffffff16815260200190815260200160002060008473ffffffffffffffffffffffffffffffffffffffff1673ffffffffffffffffffffffffffffffffffffffff16815260200190815260200160002060006101000a81548160ff0219169083151502179055508173ffffffffffffffffffffffffffffffffffffffff168373ffffffffffffffffffffffffffffffffffffffff167f17307eab39ab6107e8899845ad3d59bd9653f200f220920489ca2b5937696c31836040516111299190611a32565b60405180910390a3505050565b600073ffffffffffffffffffffffffffffffffffffffff168473ffffffffffffffffffffffffffffffffffffffff1614156111a6576040517f08c379a000000000000000000000000000000000000000000000000000000000815260040161119d90612720565b60405180910390fd5b60003390506111c98187876111ba8861157e565b6111c38861157e565b876113b4565b60006003600086815260200190815260200160002060008873ffffffffffffffffffffffffffffffffffffffff1673ffffffffffffffffffffffffffffffffffffffff16815260200190815260200160002054905083811015611261576040517f08c379a0000000000000000000000000000000000000000000000000000000008152600401611258906127b2565b60405180910390fd5b8381036003600087815260200190815260200160002060008973ffffffffffffffffffffffffffffffffffffffff1673ffffffffffffffffffffffffffffffffffffffff16815260200190815260200160002081905550836003600087815260200190815260200160002060008873ffffffffffffffffffffffffffffffffffffffff1673ffffffffffffffffffffffffffffffffffffffff168152602001908152602001600020600082825461131891906127d2565b925050819055508573ffffffffffffffffffffffffffffffffffffffff168773ffffffffffffffffffffffffffffffffffffffff168373ffffffffffffffffffffffffffffffffffffffff167fc3d58168c5ae7397731d063d5bbf3d657854427343f4c083240f7aacaa2d0f6288886040516113959291906128f1565b60405180910390a46113ab8288888888886115f8565b50505050505050565b505050505050565b6113c5846117ba565b15611576578373ffffffffffffffffffffffffffffffffffffffff1663bc197c8187878686866040518663ffffffff1660e01b815260040161140b959493929190612a01565b6020604051808303816000875af192505050801561144757506040513d601f19601f820116820180604052508101906114449190612a7e565b60015b6114ed57611453612ab8565b806308c379a014156114b05750611468612ada565b8061147357506114b2565b806040517f08c379a00000000000000000000000000000000000000000000000000000000081526004016114a79190611ae6565b60405180910390fd5b505b6040517f08c379a00000000000000000000000000000000000000000000000000000000081526004016114e490612be2565b60405180910390fd5b63bc197c8160e01b7bffffffffffffffffffffffffffffffffffffffffffffffffffffffff1916817bffffffffffffffffffffffffffffffffffffffffffffffffffffffff191614611574576040517f08c379a000000000000000000000000000000000000000000000000000000000815260040161156b90612c74565b60405180910390fd5b505b505050505050565b60606000600167ffffffffffffffff81111561159d5761159c611b3a565b5b6040519080825280602002602001820160405280156115cb5781602001602082028036833780820191505090505b50905082816000815181106115e3576115e261240b565b5b60200260200101818152505080915050919050565b611601846117ba565b156117b2578373ffffffffffffffffffffffffffffffffffffffff1663f23a6e6187878686866040518663ffffffff1660e01b8152600401611647959493929190612c94565b6020604051808303816000875af192505050801561168357506040513d601f19601f820116820180604052508101906116809190612a7e565b60015b6117295761168f612ab8565b806308c379a014156116ec57506116a4612ada565b806116af57506116ee565b806040517f08c379a00000000000000000000000000000000000000000000000000000000081526004016116e39190611ae6565b60405180910390fd5b505b6040517f08c379a000000000000000000000000000000000000000000000000000000000815260040161172090612be2565b60405180910390fd5b63f23a6e6160e01b7bffffffffffffffffffffffffffffffffffffffffffffffffffffffff1916817bffffffffffffffffffffffffffffffffffffffffffffffffffffffff1916146117b0576040517f08c379a00000000000000000000000000000000000000000000000000000000081526004016117a790612c74565b60405180910390fd5b505b505050505050565b6000808273ffffffffffffffffffffffffffffffffffffffff163b119050919050565b8280546117e9906122b5565b90600052602060002090601f01602090048101928261180b5760008555611852565b82601f1061182457805160ff1916838001178555611852565b82800160010185558215611852579182015b82811115611851578251825591602001919060010190611836565b5b50905061185f9190611863565b5090565b5b8082111561187c576000816000905550600101611864565b5090565b6000604051905090565b600080fd5b600080fd5b600073ffffffffffffffffffffffffffffffffffffffff82169050919050565b60006118bf82611894565b9050919050565b6118cf816118b4565b81146118da57600080fd5b50565b6000813590506118ec816118c6565b92915050565b6000819050919050565b611905816118f2565b811461191057600080fd5b50565b600081359050611922816118fc565b92915050565b6000806040838503121561193f5761193e61188a565b5b600061194d858286016118dd565b925050602061195e85828601611913565b9150509250929050565b611971816118f2565b82525050565b600060208201905061198c6000830184611968565b92915050565b60007fffffffff0000000000000000000000000000000000000000000000000000000082169050919050565b6119c781611992565b81146119d257600080fd5b50565b6000813590506119e4816119be565b92915050565b600060208284031215611a00576119ff61188a565b5b6000611a0e848285016119d5565b91505092915050565b60008115159050919050565b611a2c81611a17565b82525050565b6000602082019050611a476000830184611a23565b92915050565b600081519050919050565b600082825260208201905092915050565b60005b83811015611a87578082015181840152602081019050611a6c565b83811115611a96576000848401525b50505050565b6000601f19601f8301169050919050565b6000611ab882611a4d565b611ac28185611a58565b9350611ad2818560208601611a69565b611adb81611a9c565b840191505092915050565b60006020820190508181036000830152611b008184611aad565b905092915050565b600060208284031215611b1e57611b1d61188a565b5b6000611b2c84828501611913565b91505092915050565b600080fd5b7f4e487b7100000000000000000000000000000000000000000000000000000000600052604160045260246000fd5b611b7282611a9c565b810181811067ffffffffffffffff82111715611b9157611b90611b3a565b5b80604052505050565b6000611ba4611880565b9050611bb08282611b69565b919050565b600067ffffffffffffffff821115611bd057611bcf611b3a565b5b602082029050602081019050919050565b600080fd5b6000611bf9611bf484611bb5565b611b9a565b90508083825260208201905060208402830185811115611c1c57611c1b611be1565b5b835b81811015611c455780611c318882611913565b845260208401935050602081019050611c1e565b5050509392505050565b600082601f830112611c6457611c63611b35565b5b8135611c74848260208601611be6565b91505092915050565b600080fd5b600067ffffffffffffffff821115611c9d57611c9c611b3a565b5b611ca682611a9c565b9050602081019050919050565b82818337600083830152505050565b6000611cd5611cd084611c82565b611b9a565b905082815260208101848484011115611cf157611cf0611c7d565b5b611cfc848285611cb3565b509392505050565b600082601f830112611d1957611d18611b35565b5b8135611d29848260208601611cc2565b91505092915050565b600080600080600060a08688031215611d4e57611d4d61188a565b5b6000611d5c888289016118dd565b9550506020611d6d888289016118dd565b945050604086013567ffffffffffffffff811115611d8e57611d8d61188f565b5b611d9a88828901611c4f565b935050606086013567ffffffffffffffff811115611dbb57611dba61188f565b5b611dc788828901611c4f565b925050608086013567ffffffffffffffff811115611de857611de761188f565b5b611df488828901611d04565b9150509295509295909350565b600067ffffffffffffffff821115611e1c57611e1b611b3a565b5b602082029050602081019050919050565b6000611e40611e3b84611e01565b611b9a565b90508083825260208201905060208402830185811115611e6357611e62611be1565b5b835b81811015611e8c5780611e7888826118dd565b845260208401935050602081019050611e65565b5050509392505050565b600082601f830112611eab57611eaa611b35565b5b8135611ebb848260208601611e2d565b91505092915050565b60008060408385031215611edb57611eda61188a565b5b600083013567ffffffffffffffff811115611ef957611ef861188f565b5b611f0585828601611e96565b925050602083013567ffffffffffffffff811115611f2657611f2561188f565b5b611f3285828601611c4f565b9150509250929050565b600081519050919050565b600082825260208201905092915050565b6000819050602082019050919050565b611f71816118f2565b82525050565b6000611f838383611f68565b60208301905092915050565b6000602082019050919050565b6000611fa782611f3c565b611fb18185611f47565b9350611fbc83611f58565b8060005b83811015611fed578151611fd48882611f77565b9750611fdf83611f8f565b925050600181019050611fc0565b5085935050505092915050565b600060208201905081810360008301526120148184611f9c565b905092915050565b600067ffffffffffffffff82111561203757612036611b3a565b5b61204082611a9c565b9050602081019050919050565b600061206061205b8461201c565b611b9a565b90508281526020810184848401111561207c5761207b611c7d565b5b612087848285611cb3565b509392505050565b600082601f8301126120a4576120a3611b35565b5b81356120b484826020860161204d565b91505092915050565b600080604083850312156120d4576120d361188a565b5b60006120e285828601611913565b925050602083013567ffffffffffffffff8111156121035761210261188f565b5b61210f8582860161208f565b9150509250929050565b61212281611a17565b811461212d57600080fd5b50565b60008135905061213f81612119565b92915050565b6000806040838503121561215c5761215b61188a565b5b600061216a858286016118dd565b925050602061217b85828601612130565b9150509250929050565b61218e816118b4565b82525050565b60006020820190506121a96000830184612185565b92915050565b600080604083850312156121c6576121c561188a565b5b60006121d4858286016118dd565b92505060206121e5858286016118dd565b9150509250929050565b600080600080600060a0868803121561220b5761220a61188a565b5b6000612219888289016118dd565b955050602061222a888289016118dd565b945050604061223b88828901611913565b935050606061224c88828901611913565b925050608086013567ffffffffffffffff81111561226d5761226c61188f565b5b61227988828901611d04565b9150509295509295909350565b7f4e487b7100000000000000000000000000000000000000000000000000000000600052602260045260246000fd5b600060028204905060018216806122cd57607f821691505b602082108114156122e1576122e0612286565b5b50919050565b7f455243313135353a207472616e736665722063616c6c6572206973206e6f742060008201527f6f776e6572206e6f7220617070726f7665640000000000000000000000000000602082015250565b6000612343603283611a58565b915061234e826122e7565b604082019050919050565b6000602082019050818103600083015261237281612336565b9050919050565b7f455243313135353a206163636f756e747320616e6420696473206c656e67746860008201527f206d69736d617463680000000000000000000000000000000000000000000000602082015250565b60006123d5602983611a58565b91506123e082612379565b604082019050919050565b60006020820190508181036000830152612404816123c8565b9050919050565b7f4e487b7100000000000000000000000000000000000000000000000000000000600052603260045260246000fd5b7f4e487b7100000000000000000000000000000000000000000000000000000000600052601160045260246000fd5b6000612474826118f2565b91507fffffffffffffffffffffffffffffffffffffffffffffffffffffffffffffffff8214156124a7576124a661243a565b5b600182019050919050565b60006124bd826118b4565b9050919050565b6124cd816124b2565b81146124d857600080fd5b50565b6000815190506124ea816124c4565b92915050565b6000602082840312156125065761250561188a565b5b6000612514848285016124db565b91505092915050565b7f455243313135353a2063616c6c6572206973206e6f74206f776e6572206e6f7260008201527f20617070726f7665640000000000000000000000000000000000000000000000602082015250565b6000612579602983611a58565b91506125848261251d565b604082019050919050565b600060208201905081810360008301526125a88161256c565b9050919050565b600081905092915050565b60006125c582611a4d565b6125cf81856125af565b93506125df818560208601611a69565b80840191505092915050565b60006125f782866125ba565b915061260382856125ba565b915061260f82846125ba565b9150819050949350505050565b7f455243313135353a2069647320616e6420616d6f756e7473206c656e6774682060008201527f6d69736d61746368000000000000000000000000000000000000000000000000602082015250565b6000612678602883611a58565b91506126838261261c565b604082019050919050565b600060208201905081810360008301526126a78161266b565b9050919050565b7f455243313135353a207472616e7366657220746f20746865207a65726f20616460008201527f6472657373000000000000000000000000000000000000000000000000000000602082015250565b600061270a602583611a58565b9150612715826126ae565b604082019050919050565b60006020820190508181036000830152612739816126fd565b9050919050565b7f455243313135353a20696e73756666696369656e742062616c616e636520666f60008201527f72207472616e7366657200000000000000000000000000000000000000000000602082015250565b600061279c602a83611a58565b91506127a782612740565b604082019050919050565b600060208201905081810360008301526127cb8161278f565b9050919050565b60006127dd826118f2565b91506127e8836118f2565b9250827fffffffffffffffffffffffffffffffffffffffffffffffffffffffffffffffff0382111561281d5761281c61243a565b5b828201905092915050565b600060408201905081810360008301526128428185611f9c565b905081810360208301526128568184611f9c565b90509392505050565b7f455243313135353a206d696e7420746f20746865207a65726f2061646472657360008201527f7300000000000000000000000000000000000000000000000000000000000000602082015250565b60006128bb602183611a58565b91506128c68261285f565b604082019050919050565b600060208201905081810360008301526128ea816128ae565b9050919050565b60006040820190506129066000830185611968565b6129136020830184611968565b9392505050565b7f455243313135353a2073657474696e6720617070726f76616c2073746174757360008201527f20666f722073656c660000000000000000000000000000000000000000000000602082015250565b6000612976602983611a58565b91506129818261291a565b604082019050919050565b600060208201905081810360008301526129a581612969565b9050919050565b600081519050919050565b600082825260208201905092915050565b60006129d3826129ac565b6129dd81856129b7565b93506129ed818560208601611a69565b6129f681611a9c565b840191505092915050565b600060a082019050612a166000830188612185565b612a236020830187612185565b8181036040830152612a358186611f9c565b90508181036060830152612a498185611f9c565b90508181036080830152612a5d81846129c8565b90509695505050505050565b600081519050612a78816119be565b92915050565b600060208284031215612a9457612a9361188a565b5b6000612aa284828501612a69565b91505092915050565b60008160e01c9050919050565b600060033d1115612ad75760046000803e612ad4600051612aab565b90505b90565b600060443d1015612aea57612b6d565b612af2611880565b60043d036004823e80513d602482011167ffffffffffffffff82111715612b1a575050612b6d565b808201805167ffffffffffffffff811115612b385750505050612b6d565b80602083010160043d038501811115612b55575050505050612b6d565b612b6482602001850186611b69565b82955050505050505b90565b7f455243313135353a207472616e7366657220746f206e6f6e204552433131353560008201527f526563656976657220696d706c656d656e746572000000000000000000000000602082015250565b6000612bcc603483611a58565b9150612bd782612b70565b604082019050919050565b60006020820190508181036000830152612bfb81612bbf565b9050919050565b7f455243313135353a204552433131353552656365697665722072656a6563746560008201527f6420746f6b656e73000000000000000000000000000000000000000000000000602082015250565b6000612c5e602883611a58565b9150612c6982612c02565b604082019050919050565b60006020820190508181036000830152612c8d81612c51565b9050919050565b600060a082019050612ca96000830188612185565b612cb66020830187612185565b612cc36040830186611968565b612cd06060830185611968565b8181036080830152612ce281846129c8565b9050969550505050505056fea264697066735822122052e899d6115cd38b7ec15e5bb64cfdac581d1ada8f20f8ddef5a780d3e35792e64736f6c634300080b0033"
  }
}