{"compiler":"v0.8.10+commit.fc410830","opcodeHash":"0x7dece02e5b414aa397728a4627a4f8b109d7442564e4a696df30f5ed8bf4ca03","metalessHash":"0x6b27fb8c6c1a7f2825e7d1aaacc8cc86639285c145cf996eb27069bacc65e57d","runtimeHash":"0xedd200eb43f054a0e2e326769f4a2e76fe8ae8a634c7c0f173caf322dc4fd29f","encodedMetadata":[{"ipfs":"/ipfs/QmVExbsuRZmY4p3FEX93hVKayPSddD9UE6Jm5qDk7ZJ7JY","solc":"0.8.10"}],"abi":[{"inputs":[],"name":"claimStep","outputs":[],"stateMutability":"nonpayable","type":"function"},{"inputs":[],"name":"currentStep","outputs":[{"internalType":"uint256","name":"","type":"uint256"}],"stateMutability":"view","type":"function"},{"inputs":[],"name":"initialClaim","outputs":[],"stateMutability":"nonpayable","type":"function"},{"inputs":[],"name":"kwallet","outputs":[{"internalType":"address","name":"","type":"address"}],"stateMutability":"view","type":"function"},{"inputs":[],"name":"nextPayment","outputs":[{"internalType":"uint256","name":"paymentDate","type":"uint256"}],"stateMutability":"view","type":"function"},{"inputs":[],"name":"stepAmount","outputs":[{"internalType":"uint256","name":"","type":"uint256"}],"stateMutability":"view","type":"function"},{"inputs":[],"name":"stepSize","outputs":[{"internalType":"uint256","name":"","type":"uint256"}],"stateMutability":"view","type":"function"}],"bytecode":{"object":"6080604052600080546001600160a01b031990811673aa8330fb2b4d5d07abfe7a72262752a8505c6b371790915560018054909116734ecc91ccad7b4b78489792818814e995f562a9471781556002556927b46536c66c8e30000060035562278d006004556361a569806005556006805460ff1916905534801561008257600080fd5b50610450806100926000396000f3fe608060405234801561001057600080fd5b506004361061007d5760003560e01c80633eed066c1161005b5780633eed066c146100af5780635bc34f71146100b95780639859a9dd146100c2578063b8bb1c57146100ed57600080fd5b80631989488b146100825780632d3780261461009e57806336ebafe9146100a6575b600080fd5b61008b60035481565b6040519081526020015b60405180910390f35b61008b6100f5565b61008b60045481565b6100b7610119565b005b61008b60025481565b6001546100d5906001600160a01b031681565b6040516001600160a01b039091168152602001610095565b6100b76102bb565b600060045460025461010791906103ba565b60055461011491906103d9565b905090565b6000600554116101705760405162461bcd60e51b815260206004820152601b60248201527f436f6e7472616374206973206e6f7420696e697469616c697a6564000000000060448201526064015b60405180910390fd5b600060045460025461018291906103ba565b60055461018f91906103d9565b90504281106101e05760405162461bcd60e51b815260206004820152601d60248201527f4d757374207761697420746865206e65787420636c61696d20646174650000006044820152606401610167565b6001600260008282546101f391906103d9565b909155505060005460015460035460405163a9059cbb60e01b81526001600160a01b039283166004820152602481019190915291169063a9059cbb906044016020604051808303816000875af1158015610251573d6000803e3d6000fd5b505050506040513d601f19601f8201168201806040525081019061027591906103f1565b6102b85760405162461bcd60e51b815260206004820152601460248201527322a9219918103a3930b739b332b91032b93937b960611b6044820152606401610167565b50565b60065460ff16156102cb57600080fd5b42600554106103135760405162461bcd60e51b81526020600482015260146024820152734d757374207761697420636c61696d206461746560601b6044820152606401610167565b6006805460ff19166001908117909155600054905460405163a9059cbb60e01b81526001600160a01b0391821660048201526934f086f3b33b68400000602482015291169063a9059cbb906044016020604051808303816000875af1158015610380573d6000803e3d6000fd5b505050506040513d601f19601f820116820180604052508101906102b891906103f1565b634e487b7160e01b600052601160045260246000fd5b60008160001904831182151516156103d4576103d46103a4565b500290565b600082198211156103ec576103ec6103a4565b500190565b60006020828403121561040357600080fd5b8151801515811461041357600080fd5b939250505056fea2646970667358221220e688d247ed635cb27f994742b5e32cf79df1084d2112f2639556e99e86c1011064736f6c634300080a0033"}}