{
  "opcodeHash": "0xe1969ef00827f026545fd7166bffbfe0313bf98715b9ef1132f5866024b77a73",
  "metalessHash": "0x25da2daca0974d694b531a6e687d967b7276142d77bfe84c45d2087440c53511",
  "runtimeHash": "0xb07f2e76ce72d0a88514902a7f96dd5471b8aba82dc5cc566ea0be732bb89efb",
  "encodedMetadata": [
    {
      "ipfs": "/ipfs/QmcfazwXeYcjjqjFgFqEtfy1qAFmxSLzBSExfha1aJVUb2",
      "solc": "0.6.12"
    }
  ],
  "abi": [
    {
      "inputs": [],
      "name": "AAVE_REFERRAL_CODE",
      "outputs": [
        {
          "internalType": "uint16",
          "name": "",
          "type": "uint16"
        }
      ],
      "stateMutability": "view",
      "type": "function"
    },
    {
      "inputs": [],
      "name": "AUTOMATIC_SERVICE_FEE",
      "outputs": [
        {
          "internalType": "uint256",
          "name": "",
          "type": "uint256"
        }
      ],
      "stateMutability": "view",
      "type": "function"
    },
    {
      "inputs": [],
      "name": "BASIC_PROXY",
      "outputs": [
        {
          "internalType": "address",
          "name": "",
          "type": "address"
        }
      ],
      "stateMutability": "view",
      "type": "function"
    },
    {
      "inputs": [],
      "name": "BOT_REGISTRY_ADDRESS",
      "outputs": [
        {
          "internalType": "address",
          "name": "",
          "type": "address"
        }
      ],
      "stateMutability": "view",
      "type": "function"
    },
    {
      "inputs": [],
      "name": "DISCOUNT_ADDR",
      "outputs": [
        {
          "internalType": "address",
          "name": "",
          "type": "address"
        }
      ],
      "stateMutability": "view",
      "type": "function"
    },
    {
      "inputs": [],
      "name": "ETH_ADDR",
      "outputs": [
        {
          "internalType": "address",
          "name": "",
          "type": "address"
        }
      ],
      "stateMutability": "view",
      "type": "function"
    },
    {
      "inputs": [],
      "name": "MANUAL_SERVICE_FEE",
      "outputs": [
        {
          "internalType": "uint256",
          "name": "",
          "type": "uint256"
        }
      ],
      "stateMutability": "view",
      "type": "function"
    },
    {
      "inputs": [],
      "name": "NINETY_NINE_PERCENT_WEI",
      "outputs": [
        {
          "internalType": "uint256",
          "name": "",
          "type": "uint256"
        }
      ],
      "stateMutability": "view",
      "type": "function"
    },
    {
      "inputs": [],
      "name": "PULL_TOKENS_PROXY",
      "outputs": [
        {
          "internalType": "address",
          "name": "",
          "type": "address"
        }
      ],
      "stateMutability": "view",
      "type": "function"
    },
    {
      "inputs": [],
      "name": "STABLE_ID",
      "outputs": [
        {
          "internalType": "uint256",
          "name": "",
          "type": "uint256"
        }
      ],
      "stateMutability": "view",
      "type": "function"
    },
    {
      "inputs": [],
      "name": "VARIABLE_ID",
      "outputs": [
        {
          "internalType": "uint256",
          "name": "",
          "type": "uint256"
        }
      ],
      "stateMutability": "view",
      "type": "function"
    },
    {
      "inputs": [],
      "name": "WALLET_ADDR",
      "outputs": [
        {
          "internalType": "address payable",
          "name": "",
          "type": "address"
        }
      ],
      "stateMutability": "view",
      "type": "function"
    },
    {
      "inputs": [],
      "name": "WETH_ADDRESS",
      "outputs": [
        {
          "internalType": "address",
          "name": "",
          "type": "address"
        }
      ],
      "stateMutability": "view",
      "type": "function"
    },
    {
      "inputs": [],
      "name": "admin",
      "outputs": [
        {
          "internalType": "address",
          "name": "",
          "type": "address"
        }
      ],
      "stateMutability": "view",
      "type": "function"
    },
    {
      "inputs": [
        {
          "internalType": "address",
          "name": "",
          "type": "address"
        },
        {
          "components": [
            {
              "internalType": "address",
              "name": "owner",
              "type": "address"
            },
            {
              "internalType": "uint256",
              "name": "number",
              "type": "uint256"
            }
          ],
          "internalType": "struct Account.Info",
          "name": "",
          "type": "tuple"
        },
        {
          "internalType": "bytes",
          "name": "data",
          "type": "bytes"
        }
      ],
      "name": "callFunction",
      "outputs": [],
      "stateMutability": "nonpayable",
      "type": "function"
    },
    {
      "inputs": [],
      "name": "kill",
      "outputs": [],
      "stateMutability": "nonpayable",
      "type": "function"
    },
    {
      "inputs": [],
      "name": "owner",
      "outputs": [
        {
          "internalType": "address",
          "name": "",
          "type": "address"
        }
      ],
      "stateMutability": "view",
      "type": "function"
    },
    {
      "inputs": [
        {
          "internalType": "address",
          "name": "_admin",
          "type": "address"
        }
      ],
      "name": "setAdminByAdmin",
      "outputs": [],
      "stateMutability": "nonpayable",
      "type": "function"
    },
    {
      "inputs": [
        {
          "internalType": "address",
          "name": "_admin",
          "type": "address"
        }
      ],
      "name": "setAdminByOwner",
      "outputs": [],
      "stateMutability": "nonpayable",
      "type": "function"
    },
    {
      "inputs": [
        {
          "internalType": "address",
          "name": "_owner",
          "type": "address"
        }
      ],
      "name": "setOwnerByAdmin",
      "outputs": [],
      "stateMutability": "nonpayable",
      "type": "function"
    },
    {
      "inputs": [
        {
          "internalType": "address",
          "name": "_token",
          "type": "address"
        },
        {
          "internalType": "uint256",
          "name": "_amount",
          "type": "uint256"
        }
      ],
      "name": "withdrawStuckFunds",
      "outputs": [],
      "stateMutability": "nonpayable",
      "type": "function"
    },
    {
      "stateMutability": "payable",
      "type": "receive"
    }
  ],
  "bytecode": {
    "object": "608060405234801561001057600080fd5b50600080546001600160a01b03199081163317909155600180549091167325efa336886c74ea8e282ac466bdcd0199f85bb91790556118f2806100546000396000f3fe60806040526004361061012e5760003560e01c80637753f47b116100ab578063a7304bf71161006f578063a7304bf714610342578063ab3fd5a114610362578063d4f922dc14610377578063deca5f881461038c578063f851a440146103ac578063fd5452ca146103c1576101b1565b80637753f47b146102ce5780637b925ab1146102e3578063870e44d9146102f85780638b4187131461030d5780638da5cb5b1461032d576101b1565b80633a128322116100f25780633a1283221461025a57806341c0e1b51461027a578063441697521461028f5780634d2ab9dc146102a4578063526d6461146102b9576101b1565b8063040141e5146101b657806304c9805c146101e157806305a363de146102035780631e48907b146102255780632ba38bcb14610245576101b1565b366101b1576000546001600160a01b03163314156101af5773c02aaa39b223fe8d0a0e5c4f27ead9083c756cc26001600160a01b031663d0e30db0476040518263ffffffff1660e01b81526004016000604051808303818588803b15801561019557600080fd5b505af11580156101a9573d6000803e3d6000fd5b50505050505b005b600080fd5b3480156101c257600080fd5b506101cb6103d6565b6040516101d8919061169d565b60405180910390f35b3480156101ed57600080fd5b506101f66103ee565b6040516101d891906117a1565b34801561020f57600080fd5b506102186103f4565b6040516101d8919061183e565b34801561023157600080fd5b506101af610240366004611398565b6103f9565b34801561025157600080fd5b506101f6610432565b34801561026657600080fd5b506101af610275366004611568565b610437565b34801561028657600080fd5b506101af6104d0565b34801561029b57600080fd5b506101cb6104f5565b3480156102b057600080fd5b506101f661050d565b3480156102c557600080fd5b506101cb610513565b3480156102da57600080fd5b506101cb61052b565b3480156102ef57600080fd5b506101cb610543565b34801561030457600080fd5b506101f661055b565b34801561031957600080fd5b506101af61032836600461148d565b610567565b34801561033957600080fd5b506101cb610e15565b34801561034e57600080fd5b506101af61035d366004611398565b610e24565b34801561036e57600080fd5b506101cb610e5d565b34801561038357600080fd5b506101f6610e75565b34801561039857600080fd5b506101af6103a7366004611398565b610e7a565b3480156103b857600080fd5b506101cb610ea7565b3480156103cd57600080fd5b506101cb610eb6565b73c02aaa39b223fe8d0a0e5c4f27ead9083c756cc281565b61014d81565b604081565b6001546001600160a01b0316331461041057600080fd5b600080546001600160a01b0319166001600160a01b0392909216919091179055565b600181565b6000546001600160a01b0316331461044e57600080fd5b73eeeeeeeeeeeeeeeeeeeeeeeeeeeeeeeeeeeeeeee6001600160a01b03831614156104b257600080546040516001600160a01b039091169183156108fc02918491818181858888f193505050501580156104ac573d6000803e3d6000fd5b506104cc565b6000546104cc906001600160a01b03848116911683610ece565b5050565b6000546001600160a01b031633146104e757600080fd5b6000546001600160a01b0316ff5b73322d58b9e75a6918f7e7849aee0ff09369977e0881565b61019081565b73637726f8b08a7abe3ae3acab01a80e2d8ddef77b81565b73eeeeeeeeeeeeeeeeeeeeeeeeeeeeeeeeeeeeeeee81565b731b14e8d511c9a4395425314f849bd737baf8208f81565b670dbd2fc137a3000081565b60008060008060008580602001905181019061058391906113d7565b945094509450945094506000816001600160a01b0316638da5cb5b6040518163ffffffff1660e01b815260040160206040518083038186803b1580156105c857600080fd5b505afa1580156105dc573d6000803e3d6000fd5b505050506040513d601f19601f8201168201806040525081019061060091906113bb565b604051632e1a7d4d60e01b815290915073c02aaa39b223fe8d0a0e5c4f27ead9083c756cc290632e1a7d4d9061063a9086906004016117a1565b600060405180830381600087803b15801561065457600080fd5b505af1158015610668573d6000803e3d6000fd5b50505050600061067787610f29565b9050600080846001600160a01b0316631cff79cd8773c17c8eb12ba24d62e69fd57cbd504eef418867f98c73eeeeeeeeeeeeeeeeeeeeeeeeeeeeeeeeeeeeeeee8b6040516024016106ca939291906116cb565b60408051601f198184030181529181526020820180516001600160e01b0316638340f54960e01b1790525160e085901b6001600160e01b0319168152610714929190600401611748565b6020604051808303818588803b15801561072d57600080fd5b505af1158015610741573d6000803e3d6000fd5b50505050506040513d601f19601f8201168201806040525081019061076691906115b3565b50600080846001600160a01b03166328dd2d018a886040518363ffffffff1660e01b81526004016107989291906116b1565b6101206040518083038186803b1580156107b157600080fd5b505afa1580156107c5573d6000803e3d6000fd5b505050506040513d601f19601f820116820180604052508101906107e991906115cb565b505050505050925092505060008211156108da57866001600160a01b0316631cff79cd73c17c8eb12ba24d62e69fd57cbd504eef418867f98d8c86600160405160240161083994939291906116ef565b60408051601f198184030181529181526020820180516001600160e01b031663fbf3773960e01b1790525160e084901b6001600160e01b0319168152610883929190600401611748565b602060405180830381600087803b15801561089d57600080fd5b505af11580156108b1573d6000803e3d6000fd5b505050506040513d601f19601f820116820180604052508101906108d591906115b3565b508193505b80156109bd57866001600160a01b0316631cff79cd73c17c8eb12ba24d62e69fd57cbd504eef418867f98d8c85600260405160240161091c94939291906116ef565b60408051601f198184030181529181526020820180516001600160e01b031663fbf3773960e01b1790525160e084901b6001600160e01b0319168152610966929190600401611748565b602060405180830381600087803b15801561098057600080fd5b505af1158015610994573d6000803e3d6000fd5b505050506040513d601f19601f820116820180604052508101906109b891906115b3565b508092505b505080156109d4576109d48986838a886002610fb2565b81156109e9576109e98986848a886001610fb2565b6040516334924edb60e21b81526000906001600160a01b0385169063d2493b6c90610a18908c9060040161169d565b60606040518083038186803b158015610a3057600080fd5b505afa158015610a44573d6000803e3d6000fd5b505050506040513d601f19601f82011682018060405250810190610a689190611441565b50509050856001600160a01b0316631cff79cd7345431b79f783e0bf0fe7ef32d06a3e061780bfc483846001600160a01b03166370a082318a6040518263ffffffff1660e01b8152600401610abd919061169d565b60206040518083038186803b158015610ad557600080fd5b505afa158015610ae9573d6000803e3d6000fd5b505050506040513d601f19601f82011682018060405250810190610b0d91906115b3565b604051602401610b1e929190611788565b60408051601f198184030181529181526020820180516001600160e01b0316633ab69e7360e21b1790525160e084901b6001600160e01b0319168152610b68929190600401611748565b602060405180830381600087803b158015610b8257600080fd5b505af1158015610b96573d6000803e3d6000fd5b505050506040513d601f19601f82011682018060405250810190610bba91906115b3565b50856001600160a01b0316631cff79cd73c17c8eb12ba24d62e69fd57cbd504eef418867f98c8c604051602401610bf29291906116b1565b60408051601f198184030181529181526020820180516001600160e01b03166311ef95df60e21b1790525160e084901b6001600160e01b0319168152610c3c929190600401611748565b602060405180830381600087803b158015610c5657600080fd5b505af1158015610c6a573d6000803e3d6000fd5b505050506040513d601f19601f82011682018060405250810190610c8e91906115b3565b50856001600160a01b0316631cff79cd73c17c8eb12ba24d62e69fd57cbd504eef418867f98c73eeeeeeeeeeeeeeeeeeeeeeeeeeeeeeeeeeeeeeee8b604051602401610cdc939291906116cb565b60408051601f198184030181529181526020820180516001600160e01b0316636ce5768960e11b1790525160e084901b6001600160e01b0319168152610d26929190600401611748565b602060405180830381600087803b158015610d4057600080fd5b505af1158015610d54573d6000803e3d6000fd5b505050506040513d601f19601f82011682018060405250810190610d7891906115b3565b5073c02aaa39b223fe8d0a0e5c4f27ead9083c756cc26001600160a01b031663d0e30db0476040518263ffffffff1660e01b81526004016000604051808303818588803b158015610dc857600080fd5b505af1158015610ddc573d6000803e3d6000fd5b50610e06935073c02aaa39b223fe8d0a0e5c4f27ead9083c756cc292508991505060028a01610ece565b50505050505050505050505050565b6000546001600160a01b031681565b6001546001600160a01b03163314610e3b57600080fd5b600180546001600160a01b0319166001600160a01b0392909216919091179055565b7345431b79f783e0bf0fe7ef32d06a3e061780bfc481565b600281565b6000546001600160a01b03163314610e9157600080fd5b6001546001600160a01b031615610e3b57600080fd5b6001546001600160a01b031681565b73c17c8eb12ba24d62e69fd57cbd504eef418867f981565b610f248363a9059cbb60e01b8484604051602401610eed929190611788565b60408051601f198184030181529190526020810180516001600160e01b03166001600160e01b0319909316929092179091526111ad565b505050565b6040516321f8a72160e01b81526000906001600160a01b038316906321f8a72190610f5c90600160f81b906004016117a1565b60206040518083038186803b158015610f7457600080fd5b505afa158015610f88573d6000803e3d6000fd5b505050506040513d601f19601f82011682018060405250810190610fac91906113bb565b92915050565b6001600160a01b03831673eeeeeeeeeeeeeeeeeeeeeeeeeeeeeeeeeeeeeeee146110c957610fea6001600160a01b0384168686611245565b846001600160a01b0316631cff79cd73c17c8eb12ba24d62e69fd57cbd504eef418867f98886888688604051602401611027959493929190611718565b60408051601f198184030181529181526020820180516001600160e01b031663bb24cdf760e01b1790525160e084901b6001600160e01b0319168152611071929190600401611748565b602060405180830381600087803b15801561108b57600080fd5b505af115801561109f573d6000803e3d6000fd5b505050506040513d601f19601f820116820180604052508101906110c391906115b3565b506111a5565b846001600160a01b0316631cff79cd8573c17c8eb12ba24d62e69fd57cbd504eef418867f98987898789604051602401611107959493929190611718565b60408051601f198184030181529181526020820180516001600160e01b031663bb24cdf760e01b1790525160e085901b6001600160e01b0319168152611151929190600401611748565b6020604051808303818588803b15801561116a57600080fd5b505af115801561117e573d6000803e3d6000fd5b50505050506040513d601f19601f820116820180604052508101906111a391906115b3565b505b505050505050565b6060611202826040518060400160405280602081526020017f5361666545524332303a206c6f772d6c6576656c2063616c6c206661696c6564815250856001600160a01b03166112849092919063ffffffff16565b805190915015610f2457808060200190518101906112209190611593565b610f245760405162461bcd60e51b815260040161123c906117f4565b60405180910390fd5b6112658363095ea7b360e01b846000604051602401610eed92919061176c565b610f248363095ea7b360e01b8484604051602401610eed929190611788565b6060611293848460008561129b565b949350505050565b60606112a68561135f565b6112c25760405162461bcd60e51b815260040161123c906117bd565b60006060866001600160a01b031685876040516112df9190611681565b60006040518083038185875af1925050503d806000811461131c576040519150601f19603f3d011682016040523d82523d6000602084013e611321565b606091505b509150915081156113355791506112939050565b8051156113455780518082602001fd5b8360405162461bcd60e51b815260040161123c91906117aa565b6000813f7fc5d2460186f7233c927e7db2dcc703c0e500b653ca82273b7bfad8045d85a470818114801590611293575050151592915050565b6000602082840312156113a9578081fd5b81356113b4816118a4565b9392505050565b6000602082840312156113cc578081fd5b81516113b4816118a4565b600080600080600060a086880312156113ee578081fd5b85516113f9816118a4565b602087015190955061140a816118a4565b604087015190945061141b816118a4565b606087015160808801519194509250611433816118a4565b809150509295509295909350565b600080600060608486031215611455578283fd5b8351611460816118a4565b6020850151909350611471816118a4565b6040850151909250611482816118a4565b809150509250925092565b600080600083850360808112156114a2578384fd5b84356114ad816118a4565b93506020601f19604083820112156114c3578485fd5b6114cd604061184d565b9250818701356114dc816118a4565b835260408701358284015291935060608601359167ffffffffffffffff80841115611505578485fd5b838801935088601f850112611518578485fd5b833581811115611526578586fd5b6115368484601f8401160161184d565b9250808352898482870101111561154b578586fd5b808486018585013782019092019390935250929591945092509050565b6000806040838503121561157a578182fd5b8235611585816118a4565b946020939093013593505050565b6000602082840312156115a4578081fd5b815180151581146113b4578182fd5b6000602082840312156115c4578081fd5b5051919050565b60008060008060008060008060006101208a8c0312156115e9578384fd5b8951985060208a0151975060408a0151965060608a0151955060808a0151945060a08a0151935060c08a0151925060e08a015164ffffffffff8116811461162e578283fd5b6101008b01519092508015158114611644578182fd5b809150509295985092959850929598565b6000815180845261166d816020860160208601611874565b601f01601f19169290920160200192915050565b60008251611693818460208701611874565b9190910192915050565b6001600160a01b0391909116815260200190565b6001600160a01b0392831681529116602082015260400190565b6001600160a01b039384168152919092166020820152604081019190915260600190565b6001600160a01b0394851681529290931660208301526040820152606081019190915260800190565b6001600160a01b039586168152938516602085015260408401929092526060830152909116608082015260a00190565b6001600160a01b038316815260406020820181905260009061129390830184611655565b6001600160a01b0392909216825260ff16602082015260400190565b6001600160a01b03929092168252602082015260400190565b90815260200190565b6000602082526113b46020830184611655565b6020808252601d908201527f416464726573733a2063616c6c20746f206e6f6e2d636f6e7472616374000000604082015260600190565b6020808252602a908201527f5361666545524332303a204552433230206f7065726174696f6e20646964206e6040820152691bdd081cdd58d8d9595960b21b606082015260800190565b61ffff91909116815260200190565b60405181810167ffffffffffffffff8111828210171561186c57600080fd5b604052919050565b60005b8381101561188f578181015183820152602001611877565b8381111561189e576000848401525b50505050565b6001600160a01b03811681146118b957600080fd5b5056fea26469706673582212202100eec3d5c6361b31e8411e5942fae502eabf5f5e2c831409727ac74eba94b664736f6c634300060c0033"
  }
}