{"compiler":"v0.6.12+commit.27d51765","opcodeHash":"0x0e0f33ef6512dff92744434710df2790a3c5ead5d9d36922fa311944b4150e76","metalessHash":"0x12ce5e3a2ed86419d10ce7f4c4a28bc5c4301958da90708cf6e5b66f25b86f55","runtimeHash":"0xc0ab79b6655d55ccde2bd56aa672cdabddfc3ef2f4d84574f4c203d7a406dfba","encodedMetadata":[{"ipfs":"/ipfs/QmZyqv9JxaUWdJhMLhjZ8XbNQEuSwHRAyhAitY1xPEVxdC","solc":"0.6.12"}],"abi":[{"inputs":[],"stateMutability":"nonpayable","type":"constructor"},{"anonymous":false,"inputs":[{"indexed":false,"internalType":"address","name":"proxy","type":"address"}],"name":"ProxyCreated","type":"event"},{"inputs":[],"name":"create","outputs":[{"internalType":"contract Ticket","name":"","type":"address"}],"stateMutability":"nonpayable","type":"function"},{"inputs":[{"internalType":"address","name":"_logic","type":"address"},{"internalType":"bytes","name":"_data","type":"bytes"}],"name":"deployMinimal","outputs":[{"internalType":"address","name":"proxy","type":"address"}],"stateMutability":"nonpayable","type":"function"},{"inputs":[],"name":"instance","outputs":[{"internalType":"contract Ticket","name":"","type":"address"}],"stateMutability":"view","type":"function"}],"bytecode":{"object":"608060405234801561001057600080fd5b5060405161001d9061005f565b604051809103906000f080158015610039573d6000803e3d6000fd5b50600080546001600160a01b0319166001600160a01b039290921691909117905561006c565b6125f5806103b283390190565b6103378061007b6000396000f3fe608060405234801561001057600080fd5b50600436106100415760003560e01c8063022ec09514610046578063b3eeb5e21461006a578063efc81a8c14610120575b600080fd5b61004e610128565b604080516001600160a01b039092168252519081900360200190f35b61004e6004803603604081101561008057600080fd5b6001600160a01b0382351691908101906040810160208201356401000000008111156100ab57600080fd5b8201836020820111156100bd57600080fd5b803590602001918460018302840111640100000000831117156100df57600080fd5b91908080601f016020809104026020016040519081016040528093929190818152602001838380828437600092019190915250929550610137945050505050565b61004e6102b3565b6000546001600160a01b031681565b6000808360601b9050604051733d602d80600a3d3981f3363d3d373d3d3d363d7360601b81528160148201526e5af43d82803e903d91602b57fd5bf360881b60288201526037816000f0604080516001600160a01b038316815290519194507efffc2da0b561cae30d9826d37709e9421c4725faebc226cbbb7ef5fc5e7349925081900360200190a18251156102ac576000826001600160a01b0316846040518082805190602001908083835b602083106102035780518252601f1990920191602091820191016101e4565b6001836020036101000a0380198251168184511680821785525050505050509050019150506000604051808303816000865af19150503d8060008114610265576040519150601f19603f3d011682016040523d82523d6000602084013e61026a565b606091505b50509050806102aa5760405162461bcd60e51b81526004018080602001828103825260248152602001806102de6024913960400191505060405180910390fd5b505b5092915050565b6000805460408051602081019091528281526102d8916001600160a01b031690610137565b90509056fe50726f7879466163746f72792f636f6e7374727563746f722d63616c6c2d6661696c6564a2646970667358221220acf7b7f1d7bd84a0c74cb7784ac9552bc475e2ef89744ddecafaf94516a90d9f64736f6c634300060c0033608060405234801561001057600080fd5b506125d5806100206000396000f3fe608060405234801561001057600080fd5b50600436106101375760003560e01c806370a08231116100b8578063a457c2d71161007c578063a457c2d7146103de578063a9059cbb1461040a578063d505accf14610436578063dd62ed3e14610487578063de7ea79d146104b5578063f77c4791146105f357610137565b806370a08231146103385780637ecebe001461035e578063885d194d1461038457806390596dd1146103aa57806395d89b41146103d657610137565b80633644e515116100ff5780633644e51514610267578063395093511461026f5780633b3041471461029b5780635d7b0758146102d4578063631b5dfb1461030257610137565b806306fdde031461013c578063095ea7b3146101b957806318160ddd146101f957806323b872dd14610213578063313ce56714610249575b600080fd5b6101446105fb565b6040805160208082528351818301528351919283929083019185019080838360005b8381101561017e578181015183820152602001610166565b50505050905090810190601f1680156101ab5780820380516001836020036101000a031916815260200191505b509250505060405180910390f35b6101e5600480360360408110156101cf57600080fd5b506001600160a01b038135169060200135610691565b604080519115158252519081900360200190f35b6102016106ae565b60408051918252519081900360200190f35b6101e56004803603606081101561022957600080fd5b506001600160a01b038135811691602081013590911690604001356106b4565b61025161073b565b6040805160ff9092168252519081900360200190f35b610201610744565b6101e56004803603604081101561028557600080fd5b506001600160a01b038135169060200135610753565b6102b8600480360360208110156102b157600080fd5b50356107a1565b604080516001600160a01b039092168252519081900360200190f35b610300600480360360408110156102ea57600080fd5b506001600160a01b0381351690602001356107f0565b005b6103006004803603606081101561031857600080fd5b506001600160a01b0381358116916020810135909116906040013561086d565b6102016004803603602081101561034e57600080fd5b50356001600160a01b0316610943565b6102016004803603602081101561037457600080fd5b50356001600160a01b031661095e565b6102016004803603602081101561039a57600080fd5b50356001600160a01b0316610985565b610300600480360360408110156103c057600080fd5b506001600160a01b0381351690602001356109aa565b610144610a23565b6101e5600480360360408110156103f457600080fd5b506001600160a01b038135169060200135610a84565b6101e56004803603604081101561042057600080fd5b506001600160a01b038135169060200135610aec565b610300600480360360e081101561044c57600080fd5b506001600160a01b03813581169160208101359091169060408101359060608101359060ff6080820135169060a08101359060c00135610b00565b6102016004803603604081101561049d57600080fd5b506001600160a01b0381358116916020013516610ca3565b610300600480360360808110156104cb57600080fd5b8101906020810181356401000000008111156104e657600080fd5b8201836020820111156104f857600080fd5b8035906020019184600183028401116401000000008311171561051a57600080fd5b91908080601f016020809104026020016040519081016040528093929190818152602001838380828437600092019190915250929594936020810193503591505064010000000081111561056d57600080fd5b82018360208201111561057f57600080fd5b803590602001918460018302840111640100000000831117156105a157600080fd5b91908080601f0160208091040260200160405190810160405280939291908181526020018383808284376000920191909152509295505050813560ff16925050602001356001600160a01b0316610cce565b6102b8610d9b565b60368054604080516020601f60026000196101006001881615020190951694909404938401819004810282018101909252828152606093909290918301828280156106875780601f1061065c57610100808354040283529160200191610687565b820191906000526020600020905b81548152906001019060200180831161066a57829003601f168201915b5050505050905090565b60006106a561069e610daa565b8484610dae565b50600192915050565b60355490565b60006106c1848484610e9a565b610731846106cd610daa565b61072c856040518060600160405280602881526020016124c8602891396001600160a01b038a1660009081526034602052604081209061070b610daa565b6001600160a01b031681526020810191909152604001600020549190610ff7565b610dae565b5060019392505050565b60385460ff1690565b600061074e61108e565b905090565b60006106a5610760610daa565b8461072c8560346000610771610daa565b6001600160a01b03908116825260208083019390935260409182016000908120918c1681529252902054906110c9565b6000806107ac6106ae565b90506000816107bd575060006107e9565b60006107c98584611123565b90506107e560cd6000805160206124a8833981519152836111c9565b9150505b9392505050565b60cc546001600160a01b0316610804610daa565b6001600160a01b03161461085f576040805162461bcd60e51b815260206004820152601f60248201527f436f6e74726f6c6c6564546f6b656e2f6f6e6c792d636f6e74726f6c6c657200604482015290519081900360640190fd5b610869828261128c565b5050565b60cc546001600160a01b0316610881610daa565b6001600160a01b0316146108dc576040805162461bcd60e51b815260206004820152601f60248201527f436f6e74726f6c6c6564546f6b656e2f6f6e6c792d636f6e74726f6c6c657200604482015290519081900360640190fd5b816001600160a01b0316836001600160a01b031614610934576000610925826040518060600160405280602181526020016124f06021913961091e8688610ca3565b9190610ff7565b9050610932838583610dae565b505b61093e828261137e565b505050565b6001600160a01b031660009081526033602052604090205490565b6001600160a01b038116600090815260996020526040812061097f9061147a565b92915050565b600061097f60cd6000805160206124a88339815191526001600160a01b03851661147e565b60cc546001600160a01b03166109be610daa565b6001600160a01b031614610a19576040805162461bcd60e51b815260206004820152601f60248201527f436f6e74726f6c6c6564546f6b656e2f6f6e6c792d636f6e74726f6c6c657200604482015290519081900360640190fd5b610869828261137e565b60378054604080516020601f60026000196101006001881615020190951694909404938401819004810282018101909252828152606093909290918301828280156106875780601f1061065c57610100808354040283529160200191610687565b60006106a5610a91610daa565b8461072c8560405180606001604052806025815260200161257b6025913960346000610abb610daa565b6001600160a01b03908116825260208083019390935260409182016000908120918d16815292529020549190610ff7565b60006106a5610af9610daa565b8484610e9a565b83421115610b55576040805162461bcd60e51b815260206004820152601d60248201527f45524332305065726d69743a206578706972656420646561646c696e65000000604482015290519081900360640190fd5b6000609a54888888610b8a609960008e6001600160a01b03166001600160a01b0316815260200190815260200160002061147a565b8960405160200180878152602001866001600160a01b03168152602001856001600160a01b0316815260200184815260200183815260200182815260200196505050505050506040516020818303038152906040528051906020012090506000610bf3826114ce565b90506000610c038287878761151a565b9050896001600160a01b0316816001600160a01b031614610c6b576040805162461bcd60e51b815260206004820152601e60248201527f45524332305065726d69743a20696e76616c6964207369676e61747572650000604482015290519081900360640190fd5b6001600160a01b038a166000908152609960205260409020610c8c90611698565b610c978a8a8a610dae565b50505050505050505050565b6001600160a01b03918216600090815260346020908152604080832093909416825291909152205490565b600054610100900460ff1680610ce75750610ce76116a1565b80610cf5575060005460ff16155b610d305760405162461bcd60e51b815260040180806020018281038252602e815260200180612458602e913960400191505060405180910390fd5b600054610100900460ff16158015610d5b576000805460ff1961ff0019909116610100171660011790555b610d67858585856116b2565b610d8260cd6000805160206124a883398151915260056117ab565b8015610d94576000805461ff00191690555b5050505050565b60cc546001600160a01b031681565b3390565b6001600160a01b038316610df35760405162461bcd60e51b81526004018080602001828103825260248152602001806125576024913960400191505060405180910390fd5b6001600160a01b038216610e385760405162461bcd60e51b81526004018080602001828103825260228152602001806123ee6022913960400191505060405180910390fd5b6001600160a01b03808416600081815260346020908152604080832094871680845294825291829020859055815185815291517f8c5be1e5ebec7d5bd14f71427d1e84f3dd0314c0f7b2291e5b200ac8c7c3b9259281900390910190a3505050565b6001600160a01b038316610edf5760405162461bcd60e51b81526004018080602001828103825260258152602001806125326025913960400191505060405180910390fd5b6001600160a01b038216610f245760405162461bcd60e51b81526004018080602001828103825260238152602001806123a96023913960400191505060405180910390fd5b610f2f8383836118b7565b610f6c81604051806060016040528060268152602001612410602691396001600160a01b0386166000908152603360205260409020549190610ff7565b6001600160a01b038085166000908152603360205260408082209390935590841681522054610f9b90826110c9565b6001600160a01b0380841660008181526033602090815260409182902094909455805185815290519193928716927fddf252ad1be2c89b69c2b068fc378daa952ba7f163c4a11628f55a4df523b3ef92918290030190a3505050565b600081848411156110865760405162461bcd60e51b81526004018080602001828103825283818151815260200191508051906020019080838360005b8381101561104b578181015183820152602001611033565b50505050905090810190601f1680156110785780820380516001836020036101000a031916815260200191505b509250505060405180910390fd5b505050900390565b600061074e7f8b73c3c69bb8fe3d512ecc4cf759cc79239f7b179b0ffacaa9a75d522b39400f6110bc61197d565b6110c4611983565b611989565b6000828201838110156107e9576040805162461bcd60e51b815260206004820152601b60248201527f536166654d6174683a206164646974696f6e206f766572666c6f770000000000604482015290519081900360640190fd5b6000808211611171576040805162461bcd60e51b8152602060048201526015602482015274155b9a599bdc9b54985b990bdb5a5b8b589bdd5b99605a1b604482015290519081900360640190fd5b600082836000038161117f57fe5b069050835b818110611190576111b6565b604080516020808201939093528151808203840181529082019091528051910120611184565b8381816111bf57fe5b0695945050505050565b60008281526020849052604081206002810180548391829182906111e957fe5b906000526020600020015485816111fc57fe5b0690505b60028301548354830260010110156112715760015b8354811161126b5760008184866000015402019050600085600201828154811061123b57fe5b90600052602060002001549050808410611259578084039350611261565b50925061126b565b5050600101611215565b50611200565b50600090815260049091016020526040902054949350505050565b6001600160a01b0382166112e7576040805162461bcd60e51b815260206004820152601f60248201527f45524332303a206d696e7420746f20746865207a65726f206164647265737300604482015290519081900360640190fd5b6112f3600083836118b7565b60355461130090826110c9565b6035556001600160a01b03821660009081526033602052604090205461132690826110c9565b6001600160a01b03831660008181526033602090815260408083209490945583518581529351929391927fddf252ad1be2c89b69c2b068fc378daa952ba7f163c4a11628f55a4df523b3ef9281900390910190a35050565b6001600160a01b0382166113c35760405162461bcd60e51b81526004018080602001828103825260218152602001806125116021913960400191505060405180910390fd5b6113cf826000836118b7565b61140c816040518060600160405280602281526020016123cc602291396001600160a01b0385166000908152603360205260409020549190610ff7565b6001600160a01b03831660009081526033602052604090205560355461143290826119eb565b6035556040805182815290516000916001600160a01b038516917fddf252ad1be2c89b69c2b068fc378daa952ba7f163c4a11628f55a4df523b3ef9181900360200190a35050565b5490565b60008281526020848152604080832084845260038101909252822054806114a857600092506114c5565b8160020181815481106114b757fe5b906000526020600020015492505b50509392505050565b60006114d861108e565b82604051602001808061190160f01b81525060020183815260200182815260200192505050604051602081830303815290604052805190602001209050919050565b60007f7fffffffffffffffffffffffffffffff5d576e7357a4501ddfe92f46681b20a082111561157b5760405162461bcd60e51b81526004018080602001828103825260228152602001806124366022913960400191505060405180910390fd5b8360ff16601b148061159057508360ff16601c145b6115cb5760405162461bcd60e51b81526004018080602001828103825260228152602001806124866022913960400191505060405180910390fd5b600060018686868660405160008152602001604052604051808581526020018460ff1681526020018381526020018281526020019450505050506020604051602081039080840390855afa158015611627573d6000803e3d6000fd5b5050604051601f1901519150506001600160a01b03811661168f576040805162461bcd60e51b815260206004820152601860248201527f45434453413a20696e76616c6964207369676e61747572650000000000000000604482015290519081900360640190fd5b95945050505050565b80546001019055565b60006116ac30611a48565b15905090565b600054610100900460ff16806116cb57506116cb6116a1565b806116d9575060005460ff16155b6117145760405162461bcd60e51b815260040180806020018281038252602e815260200180612458602e913960400191505060405180910390fd5b600054610100900460ff1615801561173f576000805460ff1961ff0019909116610100171660011790555b6117498585611a4e565b6117876040518060400160405280601c81526020017f506f6f6c546f67657468657220436f6e74726f6c6c6564546f6b656e00000000815250611b03565b60cc80546001600160a01b0319166001600160a01b038416179055610d8283611bd9565b6000828152602084905260409020805415611804576040805162461bcd60e51b81526020600482015260146024820152732a3932b29030b63932b0b23c9032bc34b9ba399760611b604482015290519081900360640190fd5b60018211611859576040805162461bcd60e51b815260206004820152601b60248201527f4b206d7573742062652067726561746572207468616e206f6e652e0000000000604482015290519081900360640190fd5b818155604080516000815260208101918290525161187b9160018401916122db565b50604080516000815260208101918290525161189b9160028401916122db565b5060020180546001810182556000918252602082200155505050565b6118c2838383611bef565b816001600160a01b0316836001600160a01b031614156118e15761093e565b6001600160a01b0383161561192d576000611905826118ff86610943565b906119eb565b905061192b60cd6000805160206124a8833981519152836001600160a01b038816611c69565b505b6001600160a01b0382161561093e5760006119518261194b85610943565b906110c9565b905061197760cd6000805160206124a8833981519152836001600160a01b038716611c69565b50505050565b60655490565b60665490565b6000838383611996611f4d565b3060405160200180868152602001858152602001848152602001838152602001826001600160a01b03168152602001955050505050506040516020818303038152906040528051906020012090509392505050565b600082821115611a42576040805162461bcd60e51b815260206004820152601e60248201527f536166654d6174683a207375627472616374696f6e206f766572666c6f770000604482015290519081900360640190fd5b50900390565b3b151590565b600054610100900460ff1680611a675750611a676116a1565b80611a75575060005460ff16155b611ab05760405162461bcd60e51b815260040180806020018281038252602e815260200180612458602e913960400191505060405180910390fd5b600054610100900460ff16158015611adb576000805460ff1961ff0019909116610100171660011790555b611ae3611f51565b611aed8383611ff3565b801561093e576000805461ff0019169055505050565b600054610100900460ff1680611b1c5750611b1c6116a1565b80611b2a575060005460ff16155b611b655760405162461bcd60e51b815260040180806020018281038252602e815260200180612458602e913960400191505060405180910390fd5b600054610100900460ff16158015611b90576000805460ff1961ff0019909116610100171660011790555b611b98611f51565b611bbb82604051806040016040528060018152602001603160f81b8152506120cb565b611bc48261218b565b8015610869576000805461ff00191690555050565b6038805460ff191660ff92909216919091179055565b60cc5460408051637cbab1c760e01b81526001600160a01b03868116600483015285811660248301526044820185905291519190921691637cbab1c791606480830192600092919082900301818387803b158015611c4c57600080fd5b505af1158015611c60573d6000803e3d6000fd5b50505050505050565b600083815260208581526040808320848452600381019092529091205480611e00578315611dfb576001820154611d67575060028101805460018082018355600092835260209092208101859055908114801590611cd357508154600019820181611cd057fe5b06155b15611d625781546000908281611ce557fe5b0460008181526004850160205260409020546002850180549293509091600185019190819085908110611d1457fe5b60009182526020808320909101548354600181018555938352818320909301929092559384526004860180825260408086208690558486526003880183528086208490559285529052909120555b611dc8565b6001820180546000198101908110611d7b57fe5b9060005260206000200154905081600101805480611d9557fe5b6001900381819060005260206000200160009055905583826002018281548110611dbb57fe5b6000918252602090912001555b60008381526003830160209081526040808320849055838352600485019091529020839055611dfb868683600188612251565b611f45565b83611e91576000826002018281548110611e1657fe5b906000526020600020015490506000836002018381548110611e3457fe5b6000918252602080832090910192909255600180860180549182018155825282822001849055858152600385018252604080822082905584825260048601909252908120819055611e8b9088908890859085612251565b50611f45565b816002018181548110611ea057fe5b90600052602060002001548414611f4557600084836002018381548110611ec357fe5b906000526020600020015411159050600081611efa5785846002018481548110611ee957fe5b906000526020600020015403611f17565b836002018381548110611f0957fe5b906000526020600020015486035b905085846002018481548110611f2957fe5b600091825260209091200155611f428888858585612251565b50505b505050505050565b4690565b600054610100900460ff1680611f6a5750611f6a6116a1565b80611f78575060005460ff16155b611fb35760405162461bcd60e51b815260040180806020018281038252602e815260200180612458602e913960400191505060405180910390fd5b600054610100900460ff16158015611fde576000805460ff1961ff0019909116610100171660011790555b8015611ff0576000805461ff00191690555b50565b600054610100900460ff168061200c575061200c6116a1565b8061201a575060005460ff16155b6120555760405162461bcd60e51b815260040180806020018281038252602e815260200180612458602e913960400191505060405180910390fd5b600054610100900460ff16158015612080576000805460ff1961ff0019909116610100171660011790555b8251612093906036906020860190612326565b5081516120a7906037906020850190612326565b506038805460ff19166012179055801561093e576000805461ff0019169055505050565b600054610100900460ff16806120e457506120e46116a1565b806120f2575060005460ff16155b61212d5760405162461bcd60e51b815260040180806020018281038252602e815260200180612458602e913960400191505060405180910390fd5b600054610100900460ff16158015612158576000805460ff1961ff0019909116610100171660011790555b8251602080850191909120835191840191909120606591909155606655801561093e576000805461ff0019169055505050565b600054610100900460ff16806121a457506121a46116a1565b806121b2575060005460ff16155b6121ed5760405162461bcd60e51b815260040180806020018281038252602e815260200180612458602e913960400191505060405180910390fd5b600054610100900460ff16158015612218576000805460ff1961ff0019909116610100171660011790555b7f6e71edae12b1b97f4d1f60370fef10105fa2faae0126114a169c64845d6126c9609a558015610869576000805461ff00191690555050565b6000848152602086905260409020835b8015611c6057815460001982018161227557fe5b0490508361229e578282600201828154811061228d57fe5b9060005260206000200154036122bb565b828260020182815481106122ae57fe5b9060005260206000200154015b8260020182815481106122ca57fe5b600091825260209091200155612261565b828054828255906000526020600020908101928215612316579160200282015b828111156123165782518255916020019190600101906122fb565b50612322929150612393565b5090565b828054600181600116156101000203166002900490600052602060002090601f016020900481019282601f1061236757805160ff1916838001178555612316565b8280016001018555821561231657918201828111156123165782518255916020019190600101906122fb565b5b80821115612322576000815560010161239456fe45524332303a207472616e7366657220746f20746865207a65726f206164647265737345524332303a206275726e20616d6f756e7420657863656564732062616c616e636545524332303a20617070726f766520746f20746865207a65726f206164647265737345524332303a207472616e7366657220616d6f756e7420657863656564732062616c616e636545434453413a20696e76616c6964207369676e6174757265202773272076616c7565496e697469616c697a61626c653a20636f6e747261637420697320616c726561647920696e697469616c697a656445434453413a20696e76616c6964207369676e6174757265202776272076616c7565af45c4fb9ef70911e5444b8eedce607366e494224d52e6feab07fbd62a53b26f45524332303a207472616e7366657220616d6f756e74206578636565647320616c6c6f77616e6365436f6e74726f6c6c6564546f6b656e2f657863656564732d616c6c6f77616e636545524332303a206275726e2066726f6d20746865207a65726f206164647265737345524332303a207472616e736665722066726f6d20746865207a65726f206164647265737345524332303a20617070726f76652066726f6d20746865207a65726f206164647265737345524332303a2064656372656173656420616c6c6f77616e63652062656c6f77207a65726fa264697066735822122034f837a5f36ca4b0e5dfe6a88b18473452aa58f62e013e49e6c4080eb8f05e2364736f6c634300060c0033"}}