{"compiler":"v0.8.7+commit.e28d00a7","opcodeHash":"0x479692f2e43d7759369ab39fbeb2de9e07f2067e4d52e76b0541c16f60bba301","metalessHash":"0x468be743e1fe6e203aee99659f37a71ced134f3e6052ad9bc98fd45e9205564f","runtimeHash":"0xd234c78f770b04b375e4c043b9eb1c31c09cb862446fcc81c7b693749ca6be86","encodedMetadata":[{"ipfs":"/ipfs/QmUwtEDcrr4jLaof7YaTvvy3VRWiBnZ7PrfaAAq3NiNW1C","solc":"0.8.7"}],"abi":[{"inputs":[{"internalType":"string","name":"_baseUrl","type":"string"},{"internalType":"string","name":"_notRevealedUrl","type":"string"}],"stateMutability":"nonpayable","type":"constructor"},{"anonymous":false,"inputs":[{"indexed":true,"internalType":"address","name":"owner","type":"address"},{"indexed":true,"internalType":"address","name":"approved","type":"address"},{"indexed":true,"internalType":"uint256","name":"tokenId","type":"uint256"}],"name":"Approval","type":"event"},{"anonymous":false,"inputs":[{"indexed":true,"internalType":"address","name":"owner","type":"address"},{"indexed":true,"internalType":"address","name":"operator","type":"address"},{"indexed":false,"internalType":"bool","name":"approved","type":"bool"}],"name":"ApprovalForAll","type":"event"},{"anonymous":false,"inputs":[{"indexed":true,"internalType":"address","name":"previousOwner","type":"address"},{"indexed":true,"internalType":"address","name":"newOwner","type":"address"}],"name":"OwnershipTransferred","type":"event"},{"anonymous":false,"inputs":[{"indexed":true,"internalType":"address","name":"from","type":"address"},{"indexed":true,"internalType":"address","name":"to","type":"address"},{"indexed":true,"internalType":"uint256","name":"tokenId","type":"uint256"}],"name":"Transfer","type":"event"},{"inputs":[{"internalType":"address[]","name":"_airdropAddresses","type":"address[]"}],"name":"airdrop","outputs":[],"stateMutability":"nonpayable","type":"function"},{"inputs":[{"internalType":"address","name":"to","type":"address"},{"internalType":"uint256","name":"tokenId","type":"uint256"}],"name":"approve","outputs":[],"stateMutability":"nonpayable","type":"function"},{"inputs":[{"internalType":"address","name":"owner","type":"address"}],"name":"balanceOf","outputs":[{"internalType":"uint256","name":"","type":"uint256"}],"stateMutability":"view","type":"function"},{"inputs":[],"name":"baseURI","outputs":[{"internalType":"string","name":"","type":"string"}],"stateMutability":"view","type":"function"},{"inputs":[],"name":"cost","outputs":[{"internalType":"uint256","name":"","type":"uint256"}],"stateMutability":"view","type":"function"},{"inputs":[{"internalType":"uint256","name":"tokenId","type":"uint256"}],"name":"getApproved","outputs":[{"internalType":"address","name":"","type":"address"}],"stateMutability":"view","type":"function"},{"inputs":[],"name":"getTotalMints","outputs":[{"internalType":"uint256","name":"","type":"uint256"}],"stateMutability":"view","type":"function"},{"inputs":[{"internalType":"address","name":"_to","type":"address"},{"internalType":"uint256","name":"_mintAmount","type":"uint256"}],"name":"gift","outputs":[],"stateMutability":"nonpayable","type":"function"},{"inputs":[{"internalType":"address","name":"owner","type":"address"},{"internalType":"address","name":"operator","type":"address"}],"name":"isApprovedForAll","outputs":[{"internalType":"bool","name":"","type":"bool"}],"stateMutability":"view","type":"function"},{"inputs":[],"name":"maxMintAmountPerTransaction","outputs":[{"internalType":"uint16","name":"","type":"uint16"}],"stateMutability":"view","type":"function"},{"inputs":[],"name":"maxMintAmountPerWallet","outputs":[{"internalType":"uint16","name":"","type":"uint16"}],"stateMutability":"view","type":"function"},{"inputs":[],"name":"maxSupply","outputs":[{"internalType":"uint256","name":"","type":"uint256"}],"stateMutability":"view","type":"function"},{"inputs":[{"internalType":"uint256","name":"_mintAmount","type":"uint256"}],"name":"mint","outputs":[],"stateMutability":"payable","type":"function"},{"inputs":[],"name":"name","outputs":[{"internalType":"string","name":"","type":"string"}],"stateMutability":"view","type":"function"},{"inputs":[],"name":"notRevealedUri","outputs":[{"internalType":"string","name":"","type":"string"}],"stateMutability":"view","type":"function"},{"inputs":[],"name":"owner","outputs":[{"internalType":"address","name":"","type":"address"}],"stateMutability":"view","type":"function"},{"inputs":[{"internalType":"uint256","name":"tokenId","type":"uint256"}],"name":"ownerOf","outputs":[{"internalType":"address","name":"","type":"address"}],"stateMutability":"view","type":"function"},{"inputs":[],"name":"paused","outputs":[{"internalType":"bool","name":"","type":"bool"}],"stateMutability":"view","type":"function"},{"inputs":[],"name":"renounceOwnership","outputs":[],"stateMutability":"nonpayable","type":"function"},{"inputs":[],"name":"revealed","outputs":[{"internalType":"bool","name":"","type":"bool"}],"stateMutability":"view","type":"function"},{"inputs":[{"internalType":"address","name":"from","type":"address"},{"internalType":"address","name":"to","type":"address"},{"internalType":"uint256","name":"tokenId","type":"uint256"}],"name":"safeTransferFrom","outputs":[],"stateMutability":"nonpayable","type":"function"},{"inputs":[{"internalType":"address","name":"from","type":"address"},{"internalType":"address","name":"to","type":"address"},{"internalType":"uint256","name":"tokenId","type":"uint256"},{"internalType":"bytes","name":"_data","type":"bytes"}],"name":"safeTransferFrom","outputs":[],"stateMutability":"nonpayable","type":"function"},{"inputs":[{"internalType":"address","name":"operator","type":"address"},{"internalType":"bool","name":"approved","type":"bool"}],"name":"setApprovalForAll","outputs":[],"stateMutability":"nonpayable","type":"function"},{"inputs":[{"internalType":"string","name":"_newBaseURI","type":"string"}],"name":"setBaseURI","outputs":[],"stateMutability":"nonpayable","type":"function"},{"inputs":[{"internalType":"uint256","name":"_newCost","type":"uint256"}],"name":"setCost","outputs":[],"stateMutability":"nonpayable","type":"function"},{"inputs":[{"internalType":"uint16","name":"_amount","type":"uint16"}],"name":"setMaxMintAmountPerWallet","outputs":[],"stateMutability":"nonpayable","type":"function"},{"inputs":[{"internalType":"uint256","name":"_supply","type":"uint256"}],"name":"setMaxSupply","outputs":[],"stateMutability":"nonpayable","type":"function"},{"inputs":[{"internalType":"string","name":"_notRevealedURI","type":"string"}],"name":"setNotRevealedURI","outputs":[],"stateMutability":"nonpayable","type":"function"},{"inputs":[{"internalType":"uint16","name":"_amount","type":"uint16"}],"name":"setmaxMintAmountPerTransaction","outputs":[],"stateMutability":"nonpayable","type":"function"},{"inputs":[{"internalType":"bytes4","name":"interfaceId","type":"bytes4"}],"name":"supportsInterface","outputs":[{"internalType":"bool","name":"","type":"bool"}],"stateMutability":"view","type":"function"},{"inputs":[],"name":"symbol","outputs":[{"internalType":"string","name":"","type":"string"}],"stateMutability":"view","type":"function"},{"inputs":[],"name":"togglePause","outputs":[],"stateMutability":"nonpayable","type":"function"},{"inputs":[],"name":"toggleReveal","outputs":[],"stateMutability":"nonpayable","type":"function"},{"inputs":[{"internalType":"uint256","name":"index","type":"uint256"}],"name":"tokenByIndex","outputs":[{"internalType":"uint256","name":"","type":"uint256"}],"stateMutability":"view","type":"function"},{"inputs":[{"internalType":"address","name":"owner","type":"address"},{"internalType":"uint256","name":"index","type":"uint256"}],"name":"tokenOfOwnerByIndex","outputs":[{"internalType":"uint256","name":"","type":"uint256"}],"stateMutability":"view","type":"function"},{"inputs":[{"internalType":"uint256","name":"tokenId","type":"uint256"}],"name":"tokenURI","outputs":[{"internalType":"string","name":"","type":"string"}],"stateMutability":"view","type":"function"},{"inputs":[],"name":"totalAirdrops","outputs":[{"internalType":"uint256","name":"","type":"uint256"}],"stateMutability":"view","type":"function"},{"inputs":[],"name":"totalSupply","outputs":[{"internalType":"uint256","name":"","type":"uint256"}],"stateMutability":"view","type":"function"},{"inputs":[{"internalType":"address","name":"from","type":"address"},{"internalType":"address","name":"to","type":"address"},{"internalType":"uint256","name":"tokenId","type":"uint256"}],"name":"transferFrom","outputs":[],"stateMutability":"nonpayable","type":"function"},{"inputs":[{"internalType":"address","name":"newOwner","type":"address"}],"name":"transferOwnership","outputs":[],"stateMutability":"nonpayable","type":"function"},{"inputs":[{"internalType":"address","name":"_owner","type":"address"}],"name":"walletOfOwner","outputs":[{"internalType":"uint256[]","name":"","type":"uint256[]"}],"stateMutability":"view","type":"function"},{"inputs":[],"name":"withdraw","outputs":[],"stateMutability":"payable","type":"function"}],"bytecode":{"object":"6080604052600e805463ffffffff1916620a000a179055611388600f5566d529ae9e8600006010556011805461ffff191690553480156200003f57600080fd5b5060405162002c0f38038062002c0f8339810160408190526200006291620002c7565b60408051808201825260078152664d45544146414d60c81b6020808301918252835180850190945260048452634d54464d60e01b908401528151919291620000ad916000916200016a565b508051620000c39060019060208401906200016a565b505050620000e0620000da6200011460201b60201c565b62000118565b8151620000f590600b9060208501906200016a565b5080516200010b90600c9060208401906200016a565b50505062000384565b3390565b600a80546001600160a01b038381166001600160a01b0319831681179093556040519116919082907f8be0079c531659141344cd1fd0a4f28419497f9722a3daafe3b4186f6b6457e090600090a35050565b828054620001789062000331565b90600052602060002090601f0160209004810192826200019c5760008555620001e7565b82601f10620001b757805160ff1916838001178555620001e7565b82800160010185558215620001e7579182015b82811115620001e7578251825591602001919060010190620001ca565b50620001f5929150620001f9565b5090565b5b80821115620001f55760008155600101620001fa565b600082601f8301126200022257600080fd5b81516001600160401b03808211156200023f576200023f6200036e565b604051601f8301601f19908116603f011681019082821181831017156200026a576200026a6200036e565b816040528381526020925086838588010111156200028757600080fd5b600091505b83821015620002ab57858201830151818301840152908201906200028c565b83821115620002bd5760008385830101525b9695505050505050565b60008060408385031215620002db57600080fd5b82516001600160401b0380821115620002f357600080fd5b620003018683870162000210565b935060208501519150808211156200031857600080fd5b50620003278582860162000210565b9150509250929050565b600181811c908216806200034657607f821691505b602082108114156200036857634e487b7160e01b600052602260045260246000fd5b50919050565b634e487b7160e01b600052604160045260246000fd5b61287b80620003946000396000f3fe6080604052600436106102515760003560e01c80636f8b44b011610139578063bbb89744116100b6578063cef117291161007a578063cef1172914610696578063d5abeb01146106b6578063e97800cb146106cc578063e985e9c5146106ec578063f2c4ce1e14610735578063f2fde38b1461075557600080fd5b8063bbb89744146105f2578063bc951b9114610620578063c4ae316814610641578063c87b56dd14610656578063cbce4c971461067657600080fd5b806395d89b41116100fd57806395d89b4114610575578063971a1ca21461058a578063a0712d681461059f578063a22cb465146105b2578063b88d4fde146105d257600080fd5b80636f8b44b0146104e257806370a0823114610502578063715018a614610522578063729ad39e146105375780638da5cb5b1461055757600080fd5b806342842e0e116101d257806355f804b31161019657806355f804b3146104495780635b8ad429146104695780635c975abb1461047e5780636352211e146104985780636c0360eb146104b85780636ec0dfe5146104cd57600080fd5b806342842e0e1461039d578063438b6300146103bd57806344a0d68a146103ea5780634f6ccce71461040a578063518302271461042a57600080fd5b806313faede61161021957806313faede61461031c57806318160ddd1461034057806323b872dd146103555780632f745c59146103755780633ccfd60b1461039557600080fd5b806301ffc9a71461025657806306fdde031461028b578063081812fc146102ad578063081c8c44146102e5578063095ea7b3146102fa575b600080fd5b34801561026257600080fd5b50610276610271366004612411565b610775565b60405190151581526020015b60405180910390f35b34801561029757600080fd5b506102a06107a0565b60405161028291906125ad565b3480156102b957600080fd5b506102cd6102c83660046124b8565b610832565b6040516001600160a01b039091168152602001610282565b3480156102f157600080fd5b506102a06108cc565b34801561030657600080fd5b5061031a610315366004612333565b61095a565b005b34801561032857600080fd5b5061033260105481565b604051908152602001610282565b34801561034c57600080fd5b50600854610332565b34801561036157600080fd5b5061031a61037036600461223f565b610a70565b34801561038157600080fd5b50610332610390366004612333565b610aa1565b61031a610b37565b3480156103a957600080fd5b5061031a6103b836600461223f565b610bd5565b3480156103c957600080fd5b506103dd6103d83660046121f1565b610bf0565b6040516102829190612569565b3480156103f657600080fd5b5061031a6104053660046124b8565b610c92565b34801561041657600080fd5b506103326104253660046124b8565b610cc1565b34801561043657600080fd5b5060115461027690610100900460ff1681565b34801561045557600080fd5b5061031a61046436600461244b565b610d54565b34801561047557600080fd5b5061031a610d95565b34801561048a57600080fd5b506011546102769060ff1681565b3480156104a457600080fd5b506102cd6104b33660046124b8565b610ddc565b3480156104c457600080fd5b506102a0610e53565b3480156104d957600080fd5b50610332610e60565b3480156104ee57600080fd5b5061031a6104fd3660046124b8565b610e7d565b34801561050e57600080fd5b5061033261051d3660046121f1565b610eac565b34801561052e57600080fd5b5061031a610f33565b34801561054357600080fd5b5061031a61055236600461235d565b610f69565b34801561056357600080fd5b50600a546001600160a01b03166102cd565b34801561058157600080fd5b506102a0611003565b34801561059657600080fd5b50610332611012565b61031a6105ad3660046124b8565b61101d565b3480156105be57600080fd5b5061031a6105cd3660046122f7565b611265565b3480156105de57600080fd5b5061031a6105ed36600461227b565b611270565b3480156105fe57600080fd5b50600e5461060d9061ffff1681565b60405161ffff9091168152602001610282565b34801561062c57600080fd5b50600e5461060d9062010000900461ffff1681565b34801561064d57600080fd5b5061031a6112a8565b34801561066257600080fd5b506102a06106713660046124b8565b6112e6565b34801561068257600080fd5b5061031a610691366004612333565b611467565b3480156106a257600080fd5b5061031a6106b1366004612494565b6114d7565b3480156106c257600080fd5b50610332600f5481565b3480156106d857600080fd5b5061031a6106e7366004612494565b611521565b3480156106f857600080fd5b5061027661070736600461220c565b6001600160a01b03918216600090815260056020908152604080832093909416825291909152205460ff1690565b34801561074157600080fd5b5061031a61075036600461244b565b611563565b34801561076157600080fd5b5061031a6107703660046121f1565b6115a0565b60006001600160e01b0319821663780e9d6360e01b148061079a575061079a82611638565b92915050565b6060600080546107af90612757565b80601f01602080910402602001604051908101604052809291908181526020018280546107db90612757565b80156108285780601f106107fd57610100808354040283529160200191610828565b820191906000526020600020905b81548152906001019060200180831161080b57829003601f168201915b5050505050905090565b6000818152600260205260408120546001600160a01b03166108b05760405162461bcd60e51b815260206004820152602c60248201527f4552433732313a20617070726f76656420717565727920666f72206e6f6e657860448201526b34b9ba32b73a103a37b5b2b760a11b60648201526084015b60405180910390fd5b506000908152600460205260409020546001600160a01b031690565b600c80546108d990612757565b80601f016020809104026020016040519081016040528092919081815260200182805461090590612757565b80156109525780601f1061092757610100808354040283529160200191610952565b820191906000526020600020905b81548152906001019060200180831161093557829003601f168201915b505050505081565b600061096582610ddc565b9050806001600160a01b0316836001600160a01b031614156109d35760405162461bcd60e51b815260206004820152602160248201527f4552433732313a20617070726f76616c20746f2063757272656e74206f776e656044820152603960f91b60648201526084016108a7565b336001600160a01b03821614806109ef57506109ef8133610707565b610a615760405162461bcd60e51b815260206004820152603860248201527f4552433732313a20617070726f76652063616c6c6572206973206e6f74206f7760448201527f6e6572206e6f7220617070726f76656420666f7220616c6c000000000000000060648201526084016108a7565b610a6b8383611688565b505050565b610a7a33826116f6565b610a965760405162461bcd60e51b81526004016108a790612647565b610a6b8383836117ed565b6000610aac83610eac565b8210610b0e5760405162461bcd60e51b815260206004820152602b60248201527f455243373231456e756d657261626c653a206f776e657220696e646578206f7560448201526a74206f6620626f756e647360a81b60648201526084016108a7565b506001600160a01b03919091166000908152600660209081526040808320938352929052205490565b600a546001600160a01b03163314610b615760405162461bcd60e51b81526004016108a790612612565b6000610b75600a546001600160a01b031690565b6001600160a01b03164760405160006040518083038185875af1925050503d8060008114610bbf576040519150601f19603f3d011682016040523d82523d6000602084013e610bc4565b606091505b5050905080610bd257600080fd5b50565b610a6b83838360405180602001604052806000815250611270565b60606000610bfd83610eac565b905060008167ffffffffffffffff811115610c1a57610c1a612819565b604051908082528060200260200182016040528015610c43578160200160208202803683370190505b50905060005b82811015610c8a57610c5b8582610aa1565b828281518110610c6d57610c6d612803565b602090810291909101015280610c8281612792565b915050610c49565b509392505050565b600a546001600160a01b03163314610cbc5760405162461bcd60e51b81526004016108a790612612565b601055565b6000610ccc60085490565b8210610d2f5760405162461bcd60e51b815260206004820152602c60248201527f455243373231456e756d657261626c653a20676c6f62616c20696e646578206f60448201526b7574206f6620626f756e647360a01b60648201526084016108a7565b60088281548110610d4257610d42612803565b90600052602060002001549050919050565b600a546001600160a01b03163314610d7e5760405162461bcd60e51b81526004016108a790612612565b8051610d9190600b9060208401906120e9565b5050565b600a546001600160a01b03163314610dbf5760405162461bcd60e51b81526004016108a790612612565b6011805461ff001981166101009182900460ff1615909102179055565b6000818152600260205260408120546001600160a01b03168061079a5760405162461bcd60e51b815260206004820152602960248201527f4552433732313a206f776e657220717565727920666f72206e6f6e657869737460448201526832b73a103a37b5b2b760b91b60648201526084016108a7565b600b80546108d990612757565b6000610e6b600d5490565b600854610e789190612714565b905090565b600a546001600160a01b03163314610ea75760405162461bcd60e51b81526004016108a790612612565b600f55565b60006001600160a01b038216610f175760405162461bcd60e51b815260206004820152602a60248201527f4552433732313a2062616c616e636520717565727920666f7220746865207a65604482015269726f206164647265737360b01b60648201526084016108a7565b506001600160a01b031660009081526003602052604090205490565b600a546001600160a01b03163314610f5d5760405162461bcd60e51b81526004016108a790612612565b610f676000611998565b565b600a546001600160a01b03163314610f935760405162461bcd60e51b81526004016108a790612612565b60005b8151811015610d91576000610faa60085490565b90506000838381518110610fc057610fc0612803565b60200260200101519050610fe081836001610fdb91906126c9565b6119ea565b610fee600d80546001019055565b50508080610ffb90612792565b915050610f96565b6060600180546107af90612757565b6000610e78600d5490565b600061102860085490565b905061103c600a546001600160a01b031690565b6001600160a01b0316336001600160a01b03161461123b57600061105f33610eac565b60115490915060ff161561107257600080fd5b600083116110ce5760405162461bcd60e51b8152602060048201526024808201527f4d696e7420616d6f756e742073686f756c642062652067726561746572207468604482015263616e203160e01b60648201526084016108a7565b600e5461ffff168311156111345760405162461bcd60e51b815260206004820152602760248201527f536f72727920796f752063616e74206d696e74207468697320616d6f756e74206044820152666174206f6e636560c81b60648201526084016108a7565b600f5461114184846126c9565b11156111845760405162461bcd60e51b815260206004820152601260248201527145786365656473204d617820537570706c7960701b60448201526064016108a7565b600e5462010000900461ffff1661119b84836126c9565b11156111e95760405162461bcd60e51b815260206004820152601860248201527f536f72727920796f752063616e74206d696e74206d6f7265000000000000000060448201526064016108a7565b826010546111f791906126f5565b3410156112395760405162461bcd60e51b815260206004820152601060248201526f496e7375666669656e742066756e647360801b60448201526064016108a7565b505b60015b828111610a6b5761125333610fdb83856126c9565b8061125d81612792565b91505061123e565b610d91338383611a04565b61127a33836116f6565b6112965760405162461bcd60e51b81526004016108a790612647565b6112a284848484611ad3565b50505050565b600a546001600160a01b031633146112d25760405162461bcd60e51b81526004016108a790612612565b6011805460ff19811660ff90911615179055565b6000818152600260205260409020546060906001600160a01b03166113655760405162461bcd60e51b815260206004820152602f60248201527f4552433732314d657461646174613a2055524920717565727920666f72206e6f60448201526e3732bc34b9ba32b73a103a37b5b2b760891b60648201526084016108a7565b601154610100900460ff1661140657600c805461138190612757565b80601f01602080910402602001604051908101604052809291908181526020018280546113ad90612757565b80156113fa5780601f106113cf576101008083540402835291602001916113fa565b820191906000526020600020905b8154815290600101906020018083116113dd57829003601f168201915b50505050509050919050565b6000611410611b06565b90506000815111611430576040518060200160405280600081525061145b565b8061143a84611b15565b60405160200161144b9291906124fd565b6040516020818303038152906040525b9392505050565b919050565b600a546001600160a01b031633146114915760405162461bcd60e51b81526004016108a790612612565b60015b818111610a6b5760006114a660085490565b90506114b684610fdb84846126c9565b6114c4600d80546001019055565b50806114cf81612792565b915050611494565b600a546001600160a01b031633146115015760405162461bcd60e51b81526004016108a790612612565b600e805461ffff909216620100000263ffff000019909216919091179055565b600a546001600160a01b0316331461154b5760405162461bcd60e51b81526004016108a790612612565b600e805461ffff191661ffff92909216919091179055565b600a546001600160a01b0316331461158d5760405162461bcd60e51b81526004016108a790612612565b8051610d9190600c9060208401906120e9565b600a546001600160a01b031633146115ca5760405162461bcd60e51b81526004016108a790612612565b6001600160a01b03811661162f5760405162461bcd60e51b815260206004820152602660248201527f4f776e61626c653a206e6577206f776e657220697320746865207a65726f206160448201526564647265737360d01b60648201526084016108a7565b610bd281611998565b60006001600160e01b031982166380ac58cd60e01b148061166957506001600160e01b03198216635b5e139f60e01b145b8061079a57506301ffc9a760e01b6001600160e01b031983161461079a565b600081815260046020526040902080546001600160a01b0319166001600160a01b03841690811790915581906116bd82610ddc565b6001600160a01b03167f8c5be1e5ebec7d5bd14f71427d1e84f3dd0314c0f7b2291e5b200ac8c7c3b92560405160405180910390a45050565b6000818152600260205260408120546001600160a01b031661176f5760405162461bcd60e51b815260206004820152602c60248201527f4552433732313a206f70657261746f7220717565727920666f72206e6f6e657860448201526b34b9ba32b73a103a37b5b2b760a11b60648201526084016108a7565b600061177a83610ddc565b9050806001600160a01b0316846001600160a01b031614806117b55750836001600160a01b03166117aa84610832565b6001600160a01b0316145b806117e557506001600160a01b0380821660009081526005602090815260408083209388168352929052205460ff165b949350505050565b826001600160a01b031661180082610ddc565b6001600160a01b0316146118685760405162461bcd60e51b815260206004820152602960248201527f4552433732313a207472616e73666572206f6620746f6b656e2074686174206960448201526839903737ba1037bbb760b91b60648201526084016108a7565b6001600160a01b0382166118ca5760405162461bcd60e51b8152602060048201526024808201527f4552433732313a207472616e7366657220746f20746865207a65726f206164646044820152637265737360e01b60648201526084016108a7565b6118d5838383611c13565b6118e0600082611688565b6001600160a01b0383166000908152600360205260408120805460019290611909908490612714565b90915550506001600160a01b03821660009081526003602052604081208054600192906119379084906126c9565b909155505060008181526002602052604080822080546001600160a01b0319166001600160a01b0386811691821790925591518493918716917fddf252ad1be2c89b69c2b068fc378daa952ba7f163c4a11628f55a4df523b3ef91a4505050565b600a80546001600160a01b038381166001600160a01b0319831681179093556040519116919082907f8be0079c531659141344cd1fd0a4f28419497f9722a3daafe3b4186f6b6457e090600090a35050565b610d91828260405180602001604052806000815250611ccb565b816001600160a01b0316836001600160a01b03161415611a665760405162461bcd60e51b815260206004820152601960248201527f4552433732313a20617070726f766520746f2063616c6c65720000000000000060448201526064016108a7565b6001600160a01b03838116600081815260056020908152604080832094871680845294825291829020805460ff191686151590811790915591519182527f17307eab39ab6107e8899845ad3d59bd9653f200f220920489ca2b5937696c31910160405180910390a3505050565b611ade8484846117ed565b611aea84848484611cfe565b6112a25760405162461bcd60e51b81526004016108a7906125c0565b6060600b80546107af90612757565b606081611b395750506040805180820190915260018152600360fc1b602082015290565b8160005b8115611b635780611b4d81612792565b9150611b5c9050600a836126e1565b9150611b3d565b60008167ffffffffffffffff811115611b7e57611b7e612819565b6040519080825280601f01601f191660200182016040528015611ba8576020820181803683370190505b5090505b84156117e557611bbd600183612714565b9150611bca600a866127ad565b611bd59060306126c9565b60f81b818381518110611bea57611bea612803565b60200101906001600160f81b031916908160001a905350611c0c600a866126e1565b9450611bac565b6001600160a01b038316611c6e57611c6981600880546000838152600960205260408120829055600182018355919091527ff3f7a9fe364faab93b216da50a3214154f22a0a2b415b23a84c8169e8b636ee30155565b611c91565b816001600160a01b0316836001600160a01b031614611c9157611c918382611e0b565b6001600160a01b038216611ca857610a6b81611ea8565b826001600160a01b0316826001600160a01b031614610a6b57610a6b8282611f57565b611cd58383611f9b565b611ce26000848484611cfe565b610a6b5760405162461bcd60e51b81526004016108a7906125c0565b60006001600160a01b0384163b15611e0057604051630a85bd0160e11b81526001600160a01b0385169063150b7a0290611d4290339089908890889060040161252c565b602060405180830381600087803b158015611d5c57600080fd5b505af1925050508015611d8c575060408051601f3d908101601f19168201909252611d899181019061242e565b60015b611de6573d808015611dba576040519150601f19603f3d011682016040523d82523d6000602084013e611dbf565b606091505b508051611dde5760405162461bcd60e51b81526004016108a7906125c0565b805181602001fd5b6001600160e01b031916630a85bd0160e11b1490506117e5565b506001949350505050565b60006001611e1884610eac565b611e229190612714565b600083815260076020526040902054909150808214611e75576001600160a01b03841660009081526006602090815260408083208584528252808320548484528184208190558352600790915290208190555b5060009182526007602090815260408084208490556001600160a01b039094168352600681528383209183525290812055565b600854600090611eba90600190612714565b60008381526009602052604081205460088054939450909284908110611ee257611ee2612803565b906000526020600020015490508060088381548110611f0357611f03612803565b6000918252602080832090910192909255828152600990915260408082208490558582528120556008805480611f3b57611f3b6127ed565b6001900381819060005260206000200160009055905550505050565b6000611f6283610eac565b6001600160a01b039093166000908152600660209081526040808320868452825280832085905593825260079052919091209190915550565b6001600160a01b038216611ff15760405162461bcd60e51b815260206004820181905260248201527f4552433732313a206d696e7420746f20746865207a65726f206164647265737360448201526064016108a7565b6000818152600260205260409020546001600160a01b0316156120565760405162461bcd60e51b815260206004820152601c60248201527f4552433732313a20746f6b656e20616c7265616479206d696e7465640000000060448201526064016108a7565b61206260008383611c13565b6001600160a01b038216600090815260036020526040812080546001929061208b9084906126c9565b909155505060008181526002602052604080822080546001600160a01b0319166001600160a01b03861690811790915590518392907fddf252ad1be2c89b69c2b068fc378daa952ba7f163c4a11628f55a4df523b3ef908290a45050565b8280546120f590612757565b90600052602060002090601f016020900481019282612117576000855561215d565b82601f1061213057805160ff191683800117855561215d565b8280016001018555821561215d579182015b8281111561215d578251825591602001919060010190612142565b5061216992915061216d565b5090565b5b80821115612169576000815560010161216e565b600067ffffffffffffffff83111561219c5761219c612819565b6121af601f8401601f1916602001612698565b90508281528383830111156121c357600080fd5b828260208301376000602084830101529392505050565b80356001600160a01b038116811461146257600080fd5b60006020828403121561220357600080fd5b61145b826121da565b6000806040838503121561221f57600080fd5b612228836121da565b9150612236602084016121da565b90509250929050565b60008060006060848603121561225457600080fd5b61225d846121da565b925061226b602085016121da565b9150604084013590509250925092565b6000806000806080858703121561229157600080fd5b61229a856121da565b93506122a8602086016121da565b925060408501359150606085013567ffffffffffffffff8111156122cb57600080fd5b8501601f810187136122dc57600080fd5b6122eb87823560208401612182565b91505092959194509250565b6000806040838503121561230a57600080fd5b612313836121da565b91506020830135801515811461232857600080fd5b809150509250929050565b6000806040838503121561234657600080fd5b61234f836121da565b946020939093013593505050565b6000602080838503121561237057600080fd5b823567ffffffffffffffff8082111561238857600080fd5b818501915085601f83011261239c57600080fd5b8135818111156123ae576123ae612819565b8060051b91506123bf848301612698565b8181528481019084860184860187018a10156123da57600080fd5b600095505b83861015612404576123f0816121da565b8352600195909501949186019186016123df565b5098975050505050505050565b60006020828403121561242357600080fd5b813561145b8161282f565b60006020828403121561244057600080fd5b815161145b8161282f565b60006020828403121561245d57600080fd5b813567ffffffffffffffff81111561247457600080fd5b8201601f8101841361248557600080fd5b6117e584823560208401612182565b6000602082840312156124a657600080fd5b813561ffff8116811461145b57600080fd5b6000602082840312156124ca57600080fd5b5035919050565b600081518084526124e981602086016020860161272b565b601f01601f19169290920160200192915050565b6000835161250f81846020880161272b565b83519083019061252381836020880161272b565b01949350505050565b6001600160a01b038581168252841660208201526040810183905260806060820181905260009061255f908301846124d1565b9695505050505050565b6020808252825182820181905260009190848201906040850190845b818110156125a157835183529284019291840191600101612585565b50909695505050505050565b60208152600061145b60208301846124d1565b60208082526032908201527f4552433732313a207472616e7366657220746f206e6f6e20455243373231526560408201527131b2b4bb32b91034b6b83632b6b2b73a32b960711b606082015260800190565b6020808252818101527f4f776e61626c653a2063616c6c6572206973206e6f7420746865206f776e6572604082015260600190565b60208082526031908201527f4552433732313a207472616e736665722063616c6c6572206973206e6f74206f6040820152701ddb995c881b9bdc88185c1c1c9bdd9959607a1b606082015260800190565b604051601f8201601f1916810167ffffffffffffffff811182821017156126c1576126c1612819565b604052919050565b600082198211156126dc576126dc6127c1565b500190565b6000826126f0576126f06127d7565b500490565b600081600019048311821515161561270f5761270f6127c1565b500290565b600082821015612726576127266127c1565b500390565b60005b8381101561274657818101518382015260200161272e565b838111156112a25750506000910152565b600181811c9082168061276b57607f821691505b6020821081141561278c57634e487b7160e01b600052602260045260246000fd5b50919050565b60006000198214156127a6576127a66127c1565b5060010190565b6000826127bc576127bc6127d7565b500690565b634e487b7160e01b600052601160045260246000fd5b634e487b7160e01b600052601260045260246000fd5b634e487b7160e01b600052603160045260246000fd5b634e487b7160e01b600052603260045260246000fd5b634e487b7160e01b600052604160045260246000fd5b6001600160e01b031981168114610bd257600080fdfea2646970667358221220b8bbca7bcd308be44ee58400c64395ee96670c22389d7d1809ff20d7fb12b94664736f6c63430008070033"}}