{
  "opcodeHash": "0x3f85b9ff5e51af25081ac54fd78910c415a3861199c188846c902891fb52f790",
  "metalessHash": "0x206ccfe96c7f4555a114a0cb94a1d02c58b0fd4a45226e0406c9072f28543a2e",
  "runtimeHash": "0x6c082386f857781fd7625f0a2b25a2587cda7ecb9c24aee581369c5dec56c614",
  "encodedMetadata": [
    {
      "ipfs": "/ipfs/QmQgWK4WQxzbW629YptDSLaujBDYnRo9jXCikD5cZZskrb",
      "solc": "0.6.6"
    }
  ],
  "abi": [
    {
      "inputs": [],
      "stateMutability": "nonpayable",
      "type": "constructor"
    },
    {
      "anonymous": false,
      "inputs": [
        {
          "indexed": true,
          "internalType": "address",
          "name": "owner",
          "type": "address"
        },
        {
          "indexed": true,
          "internalType": "address",
          "name": "spender",
          "type": "address"
        },
        {
          "indexed": false,
          "internalType": "uint256",
          "name": "value",
          "type": "uint256"
        }
      ],
      "name": "Approval",
      "type": "event"
    },
    {
      "anonymous": false,
      "inputs": [
        {
          "indexed": true,
          "internalType": "address",
          "name": "_oldOwner",
          "type": "address"
        },
        {
          "indexed": true,
          "internalType": "address",
          "name": "_newOwner",
          "type": "address"
        }
      ],
      "name": "OwnerChanged",
      "type": "event"
    },
    {
      "anonymous": false,
      "inputs": [
        {
          "indexed": true,
          "internalType": "address",
          "name": "from",
          "type": "address"
        },
        {
          "indexed": true,
          "internalType": "address",
          "name": "to",
          "type": "address"
        },
        {
          "indexed": false,
          "internalType": "uint256",
          "name": "value",
          "type": "uint256"
        }
      ],
      "name": "Transfer",
      "type": "event"
    },
    {
      "inputs": [
        {
          "internalType": "address",
          "name": "",
          "type": "address"
        },
        {
          "internalType": "address",
          "name": "",
          "type": "address"
        }
      ],
      "name": "allowance",
      "outputs": [
        {
          "internalType": "uint256",
          "name": "",
          "type": "uint256"
        }
      ],
      "stateMutability": "view",
      "type": "function"
    },
    {
      "inputs": [
        {
          "internalType": "address",
          "name": "spender",
          "type": "address"
        },
        {
          "internalType": "uint256",
          "name": "value",
          "type": "uint256"
        }
      ],
      "name": "approve",
      "outputs": [
        {
          "internalType": "bool",
          "name": "",
          "type": "bool"
        }
      ],
      "stateMutability": "nonpayable",
      "type": "function"
    },
    {
      "inputs": [
        {
          "internalType": "address",
          "name": "",
          "type": "address"
        }
      ],
      "name": "balanceOf",
      "outputs": [
        {
          "internalType": "uint256",
          "name": "",
          "type": "uint256"
        }
      ],
      "stateMutability": "view",
      "type": "function"
    },
    {
      "inputs": [],
      "name": "config",
      "outputs": [
        {
          "internalType": "address",
          "name": "",
          "type": "address"
        }
      ],
      "stateMutability": "view",
      "type": "function"
    },
    {
      "inputs": [],
      "name": "decimals",
      "outputs": [
        {
          "internalType": "uint8",
          "name": "",
          "type": "uint8"
        }
      ],
      "stateMutability": "view",
      "type": "function"
    },
    {
      "inputs": [],
      "name": "name",
      "outputs": [
        {
          "internalType": "string",
          "name": "",
          "type": "string"
        }
      ],
      "stateMutability": "view",
      "type": "function"
    },
    {
      "inputs": [],
      "name": "owner",
      "outputs": [
        {
          "internalType": "address",
          "name": "",
          "type": "address"
        }
      ],
      "stateMutability": "view",
      "type": "function"
    },
    {
      "inputs": [
        {
          "internalType": "address",
          "name": "_config",
          "type": "address"
        }
      ],
      "name": "setupConfig",
      "outputs": [],
      "stateMutability": "nonpayable",
      "type": "function"
    },
    {
      "inputs": [],
      "name": "symbol",
      "outputs": [
        {
          "internalType": "string",
          "name": "",
          "type": "string"
        }
      ],
      "stateMutability": "view",
      "type": "function"
    },
    {
      "inputs": [],
      "name": "totalSupply",
      "outputs": [
        {
          "internalType": "uint256",
          "name": "",
          "type": "uint256"
        }
      ],
      "stateMutability": "view",
      "type": "function"
    },
    {
      "inputs": [
        {
          "internalType": "address",
          "name": "to",
          "type": "address"
        },
        {
          "internalType": "uint256",
          "name": "value",
          "type": "uint256"
        }
      ],
      "name": "transfer",
      "outputs": [
        {
          "internalType": "bool",
          "name": "",
          "type": "bool"
        }
      ],
      "stateMutability": "nonpayable",
      "type": "function"
    },
    {
      "inputs": [
        {
          "internalType": "address",
          "name": "from",
          "type": "address"
        },
        {
          "internalType": "address",
          "name": "to",
          "type": "address"
        },
        {
          "internalType": "uint256",
          "name": "value",
          "type": "uint256"
        }
      ],
      "name": "transferFrom",
      "outputs": [
        {
          "internalType": "bool",
          "name": "",
          "type": "bool"
        }
      ],
      "stateMutability": "nonpayable",
      "type": "function"
    }
  ],
  "bytecode": {
    "object": "60c0604052600a60808190526920a0a0a0902a37b5b2b760b11b60a090815261002b91600291906100ae565b50604080518082019091526004808252634141414160e01b6020909201918252610057916003916100ae565b506004805460ff191660121790556a0878678326eac90000000060055534801561008057600080fd5b50600180546001600160a01b0319163390811790915560055460009182526006602052604090912055610149565b828054600181600116156101000203166002900490600052602060002090601f016020900481019282601f106100ef57805160ff191683800117855561011c565b8280016001018555821561011c579182015b8281111561011c578251825591602001919060010190610101565b5061012892915061012c565b5090565b61014691905b808211156101285760008155600101610132565b90565b61093a806101586000396000f3fe608060405234801561001057600080fd5b50600436106100b45760003560e01c806370a082311161007157806370a082311461014957806379502c551461015c5780638da5cb5b1461017157806395d89b4114610179578063a9059cbb14610181578063dd62ed3e14610194576100b4565b806306fdde03146100b9578063095ea7b3146100d757806318160ddd146100f757806323b872dd1461010c578063313ce5671461011f5780633d50f2e014610134575b600080fd5b6100c16101a7565b6040516100ce91906107b4565b60405180910390f35b6100ea6100e536600461076a565b610232565b6040516100ce91906107a9565b6100ff61029c565b6040516100ce91906108d5565b6100ea61011a36600461072a565b6102a2565b61012761035b565b6040516100ce91906108de565b6101476101423660046106ba565b610364565b005b6100ff6101573660046106ba565b610445565b610164610457565b6040516100ce9190610795565b610164610466565b6100c1610475565b6100ea61018f36600461076a565b6104d0565b6100ff6101a23660046106f2565b6104e6565b6002805460408051602060018416156101000260001901909316849004601f8101849004840282018401909252818152929183018282801561022a5780601f106101ff5761010080835404028352916020019161022a565b820191906000526020600020905b81548152906001019060200180831161020d57829003601f168201915b505050505081565b3360008181526007602090815260408083206001600160a01b038716808552925280832085905551919290917f8c5be1e5ebec7d5bd14f71427d1e84f3dd0314c0f7b2291e5b200ac8c7c3b9259061028b9086906108d5565b60405180910390a350600192915050565b60055481565b6001600160a01b03831660009081526007602090815260408083203384529091528120548211156102ee5760405162461bcd60e51b81526004016102e590610807565b60405180910390fd5b6001600160a01b0384166000908152600760209081526040808320338452909152902054610322908363ffffffff61050316565b6001600160a01b038516600090815260076020908152604080832033845290915290205561035184848461054c565b5060019392505050565b60045460ff1681565b6001546001600160a01b0316331461038e5760405162461bcd60e51b81526004016102e5906108ac565b600080546001600160a01b0319166001600160a01b0383811691909117918290556040805163ca4b208b60e01b81529051929091169163ca4b208b91600480820192602092909190829003018186803b1580156103ea57600080fd5b505afa1580156103fe573d6000803e3d6000fd5b505050506040513d601f19601f8201168201806040525081019061042291906106d6565b600180546001600160a01b0319166001600160a01b039290921691909117905550565b60066020526000908152604090205481565b6000546001600160a01b031681565b6001546001600160a01b031681565b6003805460408051602060026001851615610100026000190190941693909304601f8101849004840282018401909252818152929183018282801561022a5780601f106101ff5761010080835404028352916020019161022a565b60006104dd33848461054c565b50600192915050565b600760209081526000928352604080842090915290825290205481565b600061054583836040518060400160405280601e81526020017f536166654d6174683a207375627472616374696f6e206f766572666c6f770000815250610669565b9392505050565b6001600160a01b0383166000908152600660205260409020548111156105845760405162461bcd60e51b81526004016102e590610875565b6001600160a01b0383166000908152600660205260409020546105ad908263ffffffff61050316565b6001600160a01b0380851660009081526006602052604080822093909355908416815220546105e2908263ffffffff61069516565b6001600160a01b03831660008181526006602052604090209190915561061957600554610615908263ffffffff61050316565b6005555b816001600160a01b0316836001600160a01b03167fddf252ad1be2c89b69c2b068fc378daa952ba7f163c4a11628f55a4df523b3ef8360405161065c91906108d5565b60405180910390a3505050565b6000818484111561068d5760405162461bcd60e51b81526004016102e591906107b4565b505050900390565b6000828201838110156105455760405162461bcd60e51b81526004016102e59061083e565b6000602082840312156106cb578081fd5b8135610545816108ec565b6000602082840312156106e7578081fd5b8151610545816108ec565b60008060408385031215610704578081fd5b823561070f816108ec565b9150602083013561071f816108ec565b809150509250929050565b60008060006060848603121561073e578081fd5b8335610749816108ec565b92506020840135610759816108ec565b929592945050506040919091013590565b6000806040838503121561077c578182fd5b8235610787816108ec565b946020939093013593505050565b6001600160a01b0391909116815260200190565b901515815260200190565b6000602080835283518082850152825b818110156107e0578581018301518582016040015282016107c4565b818111156107f15783604083870101525b50601f01601f1916929092016040019392505050565b6020808252601c908201527f414141413a20494e53554646494349454e545f414c4c4f57414e434500000000604082015260600190565b6020808252601b908201527f536166654d6174683a206164646974696f6e206f766572666c6f770000000000604082015260600190565b6020808252601a908201527f414141413a20494e53554646494349454e545f42414c414e4345000000000000604082015260600190565b6020808252600f908201526e27aba722a9102327a92124a22222a760891b604082015260600190565b90815260200190565b60ff91909116815260200190565b6001600160a01b038116811461090157600080fd5b5056fea264697066735822122030db0d9515563004ccac0dbfdb6d33bc59d259b88d426a1b65f836ea64a3859464736f6c63430006060033"
  }
}