{"compiler":"v0.8.10+commit.fc410830","opcodeHash":"0x99c7787e624f0969ad9a657df19845a568383dfba96f2f736c204a90bd1012d5","metalessHash":"0xe37b38214e086d2875342a872ed685b73d4299e51eb1b5002ff48c8f618d5ac8","runtimeHash":"0x19d823284f81f538210678ea72d7ccbf39b53b240beb8e06da22c939eb80f93a","encodedMetadata":[{"ipfs":"/ipfs/QmT3S6uJWHCUDdyojHF47zLL3uA9XcdwtZeBTWyzzs4ego","solc":"0.8.10"}],"abi":[{"inputs":[{"internalType":"string","name":"name","type":"string"},{"internalType":"string","name":"symbol","type":"string"}],"stateMutability":"nonpayable","type":"constructor"},{"anonymous":false,"inputs":[{"indexed":true,"internalType":"address","name":"owner","type":"address"},{"indexed":true,"internalType":"address","name":"approved","type":"address"},{"indexed":true,"internalType":"uint256","name":"tokenId","type":"uint256"}],"name":"Approval","type":"event"},{"anonymous":false,"inputs":[{"indexed":true,"internalType":"address","name":"owner","type":"address"},{"indexed":true,"internalType":"address","name":"operator","type":"address"},{"indexed":false,"internalType":"bool","name":"approved","type":"bool"}],"name":"ApprovalForAll","type":"event"},{"anonymous":false,"inputs":[{"indexed":true,"internalType":"address","name":"previousOwner","type":"address"},{"indexed":true,"internalType":"address","name":"newOwner","type":"address"}],"name":"OwnershipTransferred","type":"event"},{"anonymous":false,"inputs":[{"indexed":true,"internalType":"address","name":"from","type":"address"},{"indexed":true,"internalType":"address","name":"to","type":"address"},{"indexed":true,"internalType":"uint256","name":"tokenId","type":"uint256"}],"name":"Transfer","type":"event"},{"inputs":[],"name":"HoldersSaleIsActive","outputs":[{"internalType":"bool","name":"","type":"bool"}],"stateMutability":"view","type":"function"},{"inputs":[],"name":"HoldersSalePrice","outputs":[{"internalType":"uint256","name":"","type":"uint256"}],"stateMutability":"view","type":"function"},{"inputs":[{"internalType":"uint256[]","name":"TOADZ_IDs","type":"uint256[]"}],"name":"MintTapePublic","outputs":[],"stateMutability":"payable","type":"function"},{"inputs":[{"internalType":"uint256[]","name":"TOADZ_IDs","type":"uint256[]"}],"name":"MintTapeToadzHolders","outputs":[],"stateMutability":"payable","type":"function"},{"inputs":[{"internalType":"address","name":"","type":"address"}],"name":"MintedWallets","outputs":[{"internalType":"uint256","name":"","type":"uint256"}],"stateMutability":"view","type":"function"},{"inputs":[],"name":"PublicSaleIsActive","outputs":[{"internalType":"bool","name":"","type":"bool"}],"stateMutability":"view","type":"function"},{"inputs":[],"name":"PublicSalePrice","outputs":[{"internalType":"uint256","name":"","type":"uint256"}],"stateMutability":"view","type":"function"},{"inputs":[{"internalType":"uint256","name":"","type":"uint256"}],"name":"TapesMinted","outputs":[{"internalType":"bool","name":"","type":"bool"}],"stateMutability":"view","type":"function"},{"inputs":[{"internalType":"address","name":"to","type":"address"},{"internalType":"uint256","name":"tokenId","type":"uint256"}],"name":"approve","outputs":[],"stateMutability":"nonpayable","type":"function"},{"inputs":[{"internalType":"address","name":"owner","type":"address"}],"name":"balanceOf","outputs":[{"internalType":"uint256","name":"","type":"uint256"}],"stateMutability":"view","type":"function"},{"inputs":[],"name":"flipHoldersSaleState","outputs":[],"stateMutability":"nonpayable","type":"function"},{"inputs":[],"name":"flipPublicSaleState","outputs":[],"stateMutability":"nonpayable","type":"function"},{"inputs":[{"internalType":"uint256","name":"tokenId","type":"uint256"}],"name":"getApproved","outputs":[{"internalType":"address","name":"","type":"address"}],"stateMutability":"view","type":"function"},{"inputs":[{"internalType":"address","name":"owner","type":"address"},{"internalType":"address","name":"operator","type":"address"}],"name":"isApprovedForAll","outputs":[{"internalType":"bool","name":"","type":"bool"}],"stateMutability":"view","type":"function"},{"inputs":[],"name":"name","outputs":[{"internalType":"string","name":"","type":"string"}],"stateMutability":"view","type":"function"},{"inputs":[],"name":"owner","outputs":[{"internalType":"address","name":"","type":"address"}],"stateMutability":"view","type":"function"},{"inputs":[{"internalType":"uint256","name":"tokenId","type":"uint256"}],"name":"ownerOf","outputs":[{"internalType":"address","name":"","type":"address"}],"stateMutability":"view","type":"function"},{"inputs":[],"name":"renounceOwnership","outputs":[],"stateMutability":"nonpayable","type":"function"},{"inputs":[{"internalType":"address","name":"from","type":"address"},{"internalType":"address","name":"to","type":"address"},{"internalType":"uint256","name":"tokenId","type":"uint256"}],"name":"safeTransferFrom","outputs":[],"stateMutability":"nonpayable","type":"function"},{"inputs":[{"internalType":"address","name":"from","type":"address"},{"internalType":"address","name":"to","type":"address"},{"internalType":"uint256","name":"tokenId","type":"uint256"},{"internalType":"bytes","name":"_data","type":"bytes"}],"name":"safeTransferFrom","outputs":[],"stateMutability":"nonpayable","type":"function"},{"inputs":[{"internalType":"address","name":"operator","type":"address"},{"internalType":"bool","name":"approved","type":"bool"}],"name":"setApprovalForAll","outputs":[],"stateMutability":"nonpayable","type":"function"},{"inputs":[{"internalType":"string","name":"uri","type":"string"}],"name":"setBaseURI","outputs":[],"stateMutability":"nonpayable","type":"function"},{"inputs":[{"internalType":"uint256","name":"newPrice","type":"uint256"}],"name":"setHoldersSalePrice","outputs":[],"stateMutability":"nonpayable","type":"function"},{"inputs":[{"internalType":"uint256","name":"newPrice","type":"uint256"}],"name":"setPublicSalePrice","outputs":[],"stateMutability":"nonpayable","type":"function"},{"inputs":[{"internalType":"bytes4","name":"interfaceId","type":"bytes4"}],"name":"supportsInterface","outputs":[{"internalType":"bool","name":"","type":"bool"}],"stateMutability":"view","type":"function"},{"inputs":[],"name":"symbol","outputs":[{"internalType":"string","name":"","type":"string"}],"stateMutability":"view","type":"function"},{"inputs":[{"internalType":"uint256","name":"index","type":"uint256"}],"name":"tokenByIndex","outputs":[{"internalType":"uint256","name":"","type":"uint256"}],"stateMutability":"view","type":"function"},{"inputs":[{"internalType":"address","name":"owner","type":"address"},{"internalType":"uint256","name":"index","type":"uint256"}],"name":"tokenOfOwnerByIndex","outputs":[{"internalType":"uint256","name":"tokenId","type":"uint256"}],"stateMutability":"view","type":"function"},{"inputs":[{"internalType":"uint256","name":"tokenId","type":"uint256"}],"name":"tokenURI","outputs":[{"internalType":"string","name":"","type":"string"}],"stateMutability":"view","type":"function"},{"inputs":[{"internalType":"address","name":"owner","type":"address"}],"name":"tokensOfOwner","outputs":[{"internalType":"uint256[]","name":"","type":"uint256[]"}],"stateMutability":"view","type":"function"},{"inputs":[],"name":"totalSupply","outputs":[{"internalType":"uint256","name":"","type":"uint256"}],"stateMutability":"view","type":"function"},{"inputs":[{"internalType":"address","name":"from","type":"address"},{"internalType":"address","name":"to","type":"address"},{"internalType":"uint256","name":"tokenId","type":"uint256"}],"name":"transferFrom","outputs":[],"stateMutability":"nonpayable","type":"function"},{"inputs":[{"internalType":"address","name":"newOwner","type":"address"}],"name":"transferOwnership","outputs":[],"stateMutability":"nonpayable","type":"function"},{"inputs":[],"name":"whoOwnsTheMusic","outputs":[{"internalType":"string","name":"","type":"string"}],"stateMutability":"pure","type":"function"},{"inputs":[],"name":"withdraw","outputs":[],"stateMutability":"nonpayable","type":"function"}],"bytecode":{"object":"60a0604052731cb1a5e65610aeff2551a50f76a87a7d3fb649c66080526008805461ffff19169055662386f26fc1000060095566470de4df820000600a553480156200004a57600080fd5b5060405162002b5138038062002b518339810160408190526200006d916200028f565b815182908290620000869060009060208501906200011c565b5080516200009c9060019060208401906200011c565b505050620000b9620000b3620000c660201b60201c565b620000ca565b5050600160065562000336565b3390565b600580546001600160a01b038381166001600160a01b0319831681179093556040519116919082907f8be0079c531659141344cd1fd0a4f28419497f9722a3daafe3b4186f6b6457e090600090a35050565b8280546200012a90620002f9565b90600052602060002090601f0160209004810192826200014e576000855562000199565b82601f106200016957805160ff191683800117855562000199565b8280016001018555821562000199579182015b82811115620001995782518255916020019190600101906200017c565b50620001a7929150620001ab565b5090565b5b80821115620001a75760008155600101620001ac565b634e487b7160e01b600052604160045260246000fd5b600082601f830112620001ea57600080fd5b81516001600160401b0380821115620002075762000207620001c2565b604051601f8301601f19908116603f01168101908282118183101715620002325762000232620001c2565b816040528381526020925086838588010111156200024f57600080fd5b600091505b8382101562000273578582018301518183018401529082019062000254565b83821115620002855760008385830101525b9695505050505050565b60008060408385031215620002a357600080fd5b82516001600160401b0380821115620002bb57600080fd5b620002c986838701620001d8565b93506020850151915080821115620002e057600080fd5b50620002ef85828601620001d8565b9150509250929050565b600181811c908216806200030e57607f821691505b602082108114156200033057634e487b7160e01b600052602260045260246000fd5b50919050565b6080516127ff62000352600039600061075e01526127ff6000f3fe6080604052600436106102045760003560e01c8063791a251911610118578063b0daea8e116100a0578063c87b56dd1161006f578063c87b56dd146105a7578063d2a2c797146105c7578063e985e9c5146105f4578063f2fde38b1461063d578063f9eb47ab1461065d57600080fd5b8063b0daea8e14610521578063b3536ef114610541578063b88d4fde14610557578063b8c21b6c1461057757600080fd5b8063903b4e85116100e7578063903b4e85146104a357806395d89b41146104b8578063a10866ef146104cd578063a22cb465146104e2578063a774c9201461050257600080fd5b8063791a2519146104255780637c3190dc146104455780638462151c146104585780638da5cb5b1461048557600080fd5b80633ccfd60b1161019b5780634f6ccce71161016a5780634f6ccce71461039057806355f804b3146103b05780636352211e146103d057806370a08231146103f0578063715018a61461041057600080fd5b80633ccfd60b1461032c5780633d45844a146103415780633fa37a951461035657806342842e0e1461037057600080fd5b8063095ea7b3116101d7578063095ea7b3146102ad57806318160ddd146102cd57806323b872dd146102ec5780632f745c591461030c57600080fd5b806301ffc9a71461020957806303e2dda61461023e57806306fdde0314610253578063081812fc14610275575b600080fd5b34801561021557600080fd5b50610229610224366004612074565b610673565b60405190151581526020015b60405180910390f35b61025161024c3660046120d8565b61069e565b005b34801561025f57600080fd5b506102686109b9565b60405161023591906121d6565b34801561028157600080fd5b506102956102903660046121e9565b610a4b565b6040516001600160a01b039091168152602001610235565b3480156102b957600080fd5b506102516102c8366004612217565b610ad3565b3480156102d957600080fd5b506002545b604051908152602001610235565b3480156102f857600080fd5b50610251610307366004612243565b610be9565b34801561031857600080fd5b506102de610327366004612217565b610c1a565b34801561033857600080fd5b50610251610cc9565b34801561034d57600080fd5b50610251610d12565b34801561036257600080fd5b506008546102299060ff1681565b34801561037c57600080fd5b5061025161038b366004612243565b610d50565b34801561039c57600080fd5b506102de6103ab3660046121e9565b610d6b565b3480156103bc57600080fd5b506102516103cb3660046122dc565b610dc8565b3480156103dc57600080fd5b506102956103eb3660046121e9565b610e09565b3480156103fc57600080fd5b506102de61040b366004612325565b610e95565b34801561041c57600080fd5b50610251610f67565b34801561043157600080fd5b506102516104403660046121e9565b610f9d565b6102516104533660046120d8565b610fcc565b34801561046457600080fd5b50610478610473366004612325565b611386565b6040516102359190612342565b34801561049157600080fd5b506005546001600160a01b0316610295565b3480156104af57600080fd5b50610268611450565b3480156104c457600080fd5b50610268611470565b3480156104d957600080fd5b5061025161147f565b3480156104ee57600080fd5b506102516104fd366004612386565b6114c6565b34801561050e57600080fd5b5060085461022990610100900460ff1681565b34801561052d57600080fd5b5061025161053c3660046121e9565b61158b565b34801561054d57600080fd5b506102de600a5481565b34801561056357600080fd5b506102516105723660046123c4565b6115ba565b34801561058357600080fd5b506102296105923660046121e9565b600b6020526000908152604090205460ff1681565b3480156105b357600080fd5b506102686105c23660046121e9565b6115f2565b3480156105d357600080fd5b506102de6105e2366004612325565b600c6020526000908152604090205481565b34801561060057600080fd5b5061022961060f366004612444565b6001600160a01b03918216600090815260046020908152604080832093909416825291909152205460ff1690565b34801561064957600080fd5b50610251610658366004612325565b6116d0565b34801561066957600080fd5b506102de60095481565b60006001600160e01b0319821663780e9d6360e01b1480610698575061069882611768565b92915050565b600260065414156106f65760405162461bcd60e51b815260206004820152601f60248201527f5265656e7472616e637947756172643a207265656e7472616e742063616c6c0060448201526064015b60405180910390fd5b600260065560085460ff166107465760405162461bcd60e51b815260206004820152601660248201527553616c652069736e277420616374697665207965742160501b60448201526064016106ed565b60005b81518110156108c857336001600160a01b03167f00000000000000000000000000000000000000000000000000000000000000006001600160a01b0316636352211e84848151811061079d5761079d612472565b60200260200101516040518263ffffffff1660e01b81526004016107c391815260200190565b602060405180830381865afa1580156107e0573d6000803e3d6000fd5b505050506040513d601f19601f820116820180604052508101906108049190612488565b6001600160a01b0316146108655760405162461bcd60e51b815260206004820152602260248201527f596f7520646f6e2774206f776e206f6e65206f66207468652043727970746f61604482015261323d60f11b60648201526084016106ed565b600b600083838151811061087b5761087b612472565b60209081029190910181015182528101919091526040016000205460ff16156108b65760405162461bcd60e51b81526004016106ed906124a5565b806108c081612502565b915050610749565b50600081516009546108da919061251d565b90503481146109225760405162461bcd60e51b815260206004820152601460248201527322ba34103b30b63ab29034b731b7b93932b1ba1760611b60448201526064016106ed565b60005b82518110156109af57600083828151811061094257610942612472565b6020026020010151905061095633826117b8565b6001600b600086858151811061096e5761096e612472565b6020026020010151815260200190815260200160002060006101000a81548160ff0219169083151502179055505080806109a790612502565b915050610925565b5050600160065550565b6060600080546109c89061253c565b80601f01602080910402602001604051908101604052809291908181526020018280546109f49061253c565b8015610a415780601f10610a1657610100808354040283529160200191610a41565b820191906000526020600020905b815481529060010190602001808311610a2457829003601f168201915b5050505050905090565b6000610a56826117d2565b610ab75760405162461bcd60e51b815260206004820152602c60248201527f4552433732313a20617070726f76656420717565727920666f72206e6f6e657860448201526b34b9ba32b73a103a37b5b2b760a11b60648201526084016106ed565b506000908152600360205260409020546001600160a01b031690565b6000610ade82610e09565b9050806001600160a01b0316836001600160a01b03161415610b4c5760405162461bcd60e51b815260206004820152602160248201527f4552433732313a20617070726f76616c20746f2063757272656e74206f776e656044820152603960f91b60648201526084016106ed565b336001600160a01b0382161480610b685750610b68813361060f565b610bda5760405162461bcd60e51b815260206004820152603860248201527f4552433732313a20617070726f76652063616c6c6572206973206e6f74206f7760448201527f6e6572206e6f7220617070726f76656420666f7220616c6c000000000000000060648201526084016106ed565b610be4838361181c565b505050565b610bf3338261188a565b610c0f5760405162461bcd60e51b81526004016106ed90612577565b610be4838383611974565b6000610c2583610e95565b8210610c435760405162461bcd60e51b81526004016106ed906125c8565b6000805b600254811015610cb05760028181548110610c6457610c64612472565b6000918252602090912001546001600160a01b0386811691161415610ca05783821415610c945791506106989050565b610c9d82612502565b91505b610ca981612502565b9050610c47565b5060405162461bcd60e51b81526004016106ed906125c8565b6005546001600160a01b03163314610cf35760405162461bcd60e51b81526004016106ed906125f8565b47610d0f610d096005546001600160a01b031690565b82611aca565b50565b6005546001600160a01b03163314610d3c5760405162461bcd60e51b81526004016106ed906125f8565b6008805460ff19811660ff90911615179055565b610be4838383604051806020016040528060008152506115ba565b6000610d7660025490565b8210610dc45760405162461bcd60e51b815260206004820152601760248201527f455243373231456e756d3a20676c6f62616c20696f6f6200000000000000000060448201526064016106ed565b5090565b6005546001600160a01b03163314610df25760405162461bcd60e51b81526004016106ed906125f8565b8051610e05906007906020840190611fce565b5050565b60008060028381548110610e1f57610e1f612472565b6000918252602090912001546001600160a01b03169050806106985760405162461bcd60e51b815260206004820152602960248201527f4552433732313a206f776e657220717565727920666f72206e6f6e657869737460448201526832b73a103a37b5b2b760b91b60648201526084016106ed565b60006001600160a01b038216610f005760405162461bcd60e51b815260206004820152602a60248201527f4552433732313a2062616c616e636520717565727920666f7220746865207a65604482015269726f206164647265737360b01b60648201526084016106ed565b600254600090815b81811015610f5e5760028181548110610f2357610f23612472565b6000918252602090912001546001600160a01b0386811691161415610f4e57610f4b83612502565b92505b610f5781612502565b9050610f08565b50909392505050565b6005546001600160a01b03163314610f915760405162461bcd60e51b81526004016106ed906125f8565b610f9b6000611be3565b565b6005546001600160a01b03163314610fc75760405162461bcd60e51b81526004016106ed906125f8565b600a55565b6002600654141561101f5760405162461bcd60e51b815260206004820152601f60248201527f5265656e7472616e637947756172643a207265656e7472616e742063616c6c0060448201526064016106ed565b6002600655600854610100900460ff166110745760405162461bcd60e51b815260206004820152601660248201527553616c652069736e277420616374697665207965742160501b60448201526064016106ed565b611b3961108060025490565b825161108c919061262d565b11156110ed5760405162461bcd60e51b815260206004820152602a60248201527f507572636861736520776f756c6420657863656564206d617820737570706c796044820152691037b3102a30b832b99760b11b60648201526084016106ed565b8051336000908152600c602052604090205460039161110b9161262d565b111561116a5760405162461bcd60e51b815260206004820152602860248201527f456163682077616c6c65742063616e206f6e6c79206d696e7420757020746f2060448201526719902a30b832b99760c11b60648201526084016106ed565b60005b815181101561126957611b3982828151811061118b5761118b612472565b6020026020010151111580156111ba575060008282815181106111b0576111b0612472565b6020026020010151115b6112065760405162461bcd60e51b815260206004820152601760248201527f54686174205461706520646f65736e742065786973742e00000000000000000060448201526064016106ed565b600b600083838151811061121c5761121c612472565b60209081029190910181015182528101919091526040016000205460ff16156112575760405162461bcd60e51b81526004016106ed906124a5565b8061126181612502565b91505061116d565b5060008151600a5461127b919061251d565b90503481146112c35760405162461bcd60e51b815260206004820152601460248201527322ba34103b30b63ab29034b731b7b93932b1ba1760611b60448201526064016106ed565b60005b82518110156113505760008382815181106112e3576112e3612472565b602002602001015190506112f733826117b8565b6001600b600086858151811061130f5761130f612472565b6020026020010151815260200190815260200160002060006101000a81548160ff02191690831515021790555050808061134890612502565b9150506112c6565b508151336000908152600c602052604090205461136d919061262d565b336000908152600c602052604090205550506001600655565b606061139182610e95565b6000106113b05760405162461bcd60e51b81526004016106ed906125c8565b60006113bb83610e95565b905060008167ffffffffffffffff8111156113d8576113d8612091565b604051908082528060200260200182016040528015611401578160200160208202803683370190505b50905060005b82811015611448576114198582610c1a565b82828151811061142b5761142b612472565b60209081029190910101528061144081612502565b915050611407565b509392505050565b606060405180608001604052806054815260200161277660549139905090565b6060600180546109c89061253c565b6005546001600160a01b031633146114a95760405162461bcd60e51b81526004016106ed906125f8565b6008805461ff001981166101009182900460ff1615909102179055565b6001600160a01b03821633141561151f5760405162461bcd60e51b815260206004820152601960248201527f4552433732313a20617070726f766520746f2063616c6c65720000000000000060448201526064016106ed565b3360008181526004602090815260408083206001600160a01b03871680855290835292819020805460ff191686151590811790915590519081529192917f17307eab39ab6107e8899845ad3d59bd9653f200f220920489ca2b5937696c31910160405180910390a35050565b6005546001600160a01b031633146115b55760405162461bcd60e51b81526004016106ed906125f8565b600955565b6115c4338361188a565b6115e05760405162461bcd60e51b81526004016106ed90612577565b6115ec84848484611c35565b50505050565b6060611b3982111580156116065750600082115b806116345750811580159061161e57506303567e0182105b80156116345750611632620f42408361265b565b155b6116745760405162461bcd60e51b81526020600482015260116024820152702737b732bc34b9ba32b73a103a37b5b2b760791b60448201526064016106ed565b600061167e611c68565b9050600081511161169e57604051806020016040528060008152506116c9565b806116a884611c77565b6040516020016116b992919061266f565b6040516020818303038152906040525b9392505050565b6005546001600160a01b031633146116fa5760405162461bcd60e51b81526004016106ed906125f8565b6001600160a01b03811661175f5760405162461bcd60e51b815260206004820152602660248201527f4f776e61626c653a206e6577206f776e657220697320746865207a65726f206160448201526564647265737360d01b60648201526084016106ed565b610d0f81611be3565b60006001600160e01b031982166380ac58cd60e01b148061179957506001600160e01b03198216635b5e139f60e01b145b8061069857506301ffc9a760e01b6001600160e01b0319831614610698565b610e05828260405180602001604052806000815250611d75565b60025460009082108015610698575060006001600160a01b0316600283815481106117ff576117ff612472565b6000918252602090912001546001600160a01b0316141592915050565b600081815260036020526040902080546001600160a01b0319166001600160a01b038416908117909155819061185182610e09565b6001600160a01b03167f8c5be1e5ebec7d5bd14f71427d1e84f3dd0314c0f7b2291e5b200ac8c7c3b92560405160405180910390a45050565b6000611895826117d2565b6118f65760405162461bcd60e51b815260206004820152602c60248201527f4552433732313a206f70657261746f7220717565727920666f72206e6f6e657860448201526b34b9ba32b73a103a37b5b2b760a11b60648201526084016106ed565b600061190183610e09565b9050806001600160a01b0316846001600160a01b0316148061193c5750836001600160a01b031661193184610a4b565b6001600160a01b0316145b8061196c57506001600160a01b0380821660009081526004602090815260408083209388168352929052205460ff165b949350505050565b826001600160a01b031661198782610e09565b6001600160a01b0316146119ef5760405162461bcd60e51b815260206004820152602960248201527f4552433732313a207472616e73666572206f6620746f6b656e2074686174206960448201526839903737ba1037bbb760b91b60648201526084016106ed565b6001600160a01b038216611a515760405162461bcd60e51b8152602060048201526024808201527f4552433732313a207472616e7366657220746f20746865207a65726f206164646044820152637265737360e01b60648201526084016106ed565b611a5c60008261181c565b8160028281548110611a7057611a70612472565b6000918252602082200180546001600160a01b0319166001600160a01b03938416179055604051839285811692908716917fddf252ad1be2c89b69c2b068fc378daa952ba7f163c4a11628f55a4df523b3ef9190a4505050565b80471015611b1a5760405162461bcd60e51b815260206004820152601d60248201527f416464726573733a20696e73756666696369656e742062616c616e636500000060448201526064016106ed565b6000826001600160a01b03168260405160006040518083038185875af1925050503d8060008114611b67576040519150601f19603f3d011682016040523d82523d6000602084013e611b6c565b606091505b5050905080610be45760405162461bcd60e51b815260206004820152603a60248201527f416464726573733a20756e61626c6520746f2073656e642076616c75652c207260448201527f6563697069656e74206d6179206861766520726576657274656400000000000060648201526084016106ed565b600580546001600160a01b038381166001600160a01b0319831681179093556040519116919082907f8be0079c531659141344cd1fd0a4f28419497f9722a3daafe3b4186f6b6457e090600090a35050565b611c40848484611974565b611c4c84848484611da8565b6115ec5760405162461bcd60e51b81526004016106ed9061269e565b6060600780546109c89061253c565b606081611c9b5750506040805180820190915260018152600360fc1b602082015290565b8160005b8115611cc55780611caf81612502565b9150611cbe9050600a836126f0565b9150611c9f565b60008167ffffffffffffffff811115611ce057611ce0612091565b6040519080825280601f01601f191660200182016040528015611d0a576020820181803683370190505b5090505b841561196c57611d1f600183612704565b9150611d2c600a8661265b565b611d3790603061262d565b60f81b818381518110611d4c57611d4c612472565b60200101906001600160f81b031916908160001a905350611d6e600a866126f0565b9450611d0e565b611d7f8383611ea6565b611d8c6000848484611da8565b610be45760405162461bcd60e51b81526004016106ed9061269e565b60006001600160a01b0384163b15611e9b57604051630a85bd0160e11b81526001600160a01b0385169063150b7a0290611dec90339089908890889060040161271b565b6020604051808303816000875af1925050508015611e27575060408051601f3d908101601f19168201909252611e2491810190612758565b60015b611e81573d808015611e55576040519150601f19603f3d011682016040523d82523d6000602084013e611e5a565b606091505b508051611e795760405162461bcd60e51b81526004016106ed9061269e565b805181602001fd5b6001600160e01b031916630a85bd0160e11b14905061196c565b506001949350505050565b6001600160a01b038216611efc5760405162461bcd60e51b815260206004820181905260248201527f4552433732313a206d696e7420746f20746865207a65726f206164647265737360448201526064016106ed565b611f05816117d2565b15611f525760405162461bcd60e51b815260206004820152601c60248201527f4552433732313a20746f6b656e20616c7265616479206d696e7465640000000060448201526064016106ed565b6002805460018101825560009182527f405787fa12a823e0f2b7631cc41b3ba8828b3321ca811111fa75cd3aa3bb5ace0180546001600160a01b0319166001600160a01b0385169081179091556040518392907fddf252ad1be2c89b69c2b068fc378daa952ba7f163c4a11628f55a4df523b3ef908290a45050565b828054611fda9061253c565b90600052602060002090601f016020900481019282611ffc5760008555612042565b82601f1061201557805160ff1916838001178555612042565b82800160010185558215612042579182015b82811115612042578251825591602001919060010190612027565b50610dc49291505b80821115610dc4576000815560010161204a565b6001600160e01b031981168114610d0f57600080fd5b60006020828403121561208657600080fd5b81356116c98161205e565b634e487b7160e01b600052604160045260246000fd5b604051601f8201601f1916810167ffffffffffffffff811182821017156120d0576120d0612091565b604052919050565b600060208083850312156120eb57600080fd5b823567ffffffffffffffff8082111561210357600080fd5b818501915085601f83011261211757600080fd5b81358181111561212957612129612091565b8060051b915061213a8483016120a7565b818152918301840191848101908884111561215457600080fd5b938501935b8385101561217257843582529385019390850190612159565b98975050505050505050565b60005b83811015612199578181015183820152602001612181565b838111156115ec5750506000910152565b600081518084526121c281602086016020860161217e565b601f01601f19169290920160200192915050565b6020815260006116c960208301846121aa565b6000602082840312156121fb57600080fd5b5035919050565b6001600160a01b0381168114610d0f57600080fd5b6000806040838503121561222a57600080fd5b823561223581612202565b946020939093013593505050565b60008060006060848603121561225857600080fd5b833561226381612202565b9250602084013561227381612202565b929592945050506040919091013590565b600067ffffffffffffffff83111561229e5761229e612091565b6122b1601f8401601f19166020016120a7565b90508281528383830111156122c557600080fd5b828260208301376000602084830101529392505050565b6000602082840312156122ee57600080fd5b813567ffffffffffffffff81111561230557600080fd5b8201601f8101841361231657600080fd5b61196c84823560208401612284565b60006020828403121561233757600080fd5b81356116c981612202565b6020808252825182820181905260009190848201906040850190845b8181101561237a5783518352928401929184019160010161235e565b50909695505050505050565b6000806040838503121561239957600080fd5b82356123a481612202565b9150602083013580151581146123b957600080fd5b809150509250929050565b600080600080608085870312156123da57600080fd5b84356123e581612202565b935060208501356123f581612202565b925060408501359150606085013567ffffffffffffffff81111561241857600080fd5b8501601f8101871361242957600080fd5b61243887823560208401612284565b91505092959194509250565b6000806040838503121561245757600080fd5b823561246281612202565b915060208301356123b981612202565b634e487b7160e01b600052603260045260246000fd5b60006020828403121561249a57600080fd5b81516116c981612202565b60208082526027908201527f546865205461706520666f72207468617420546f616420686173206265656e2060408201526618db185a5b595960ca1b606082015260800190565b634e487b7160e01b600052601160045260246000fd5b6000600019821415612516576125166124ec565b5060010190565b6000816000190483118215151615612537576125376124ec565b500290565b600181811c9082168061255057607f821691505b6020821081141561257157634e487b7160e01b600052602260045260246000fd5b50919050565b60208082526031908201527f4552433732313a207472616e736665722063616c6c6572206973206e6f74206f6040820152701ddb995c881b9bdc88185c1c1c9bdd9959607a1b606082015260800190565b60208082526016908201527522a9219b9918a2b73ab69d1037bbb732b91034b7b7b160511b604082015260600190565b6020808252818101527f4f776e61626c653a2063616c6c6572206973206e6f7420746865206f776e6572604082015260600190565b60008219821115612640576126406124ec565b500190565b634e487b7160e01b600052601260045260246000fd5b60008261266a5761266a612645565b500690565b6000835161268181846020880161217e565b83519083019061269581836020880161217e565b01949350505050565b60208082526032908201527f4552433732313a207472616e7366657220746f206e6f6e20455243373231526560408201527131b2b4bb32b91034b6b83632b6b2b73a32b960711b606082015260800190565b6000826126ff576126ff612645565b500490565b600082821015612716576127166124ec565b500390565b6001600160a01b038581168252841660208201526040810183905260806060820181905260009061274e908301846121aa565b9695505050505050565b60006020828403121561276a57600080fd5b81516116c98161205e56fe436f7079726967687420667265652e204e6f206f6e65206f776e732074686973206d757369632e204974277320666f722065766572796f6e652e2054616b6520697420616e64206d616b6520697420676f6f642ea2646970667358221220644d5aca8c0ec5c5b57b55a6e5aec27742065ec9ddced294fe76738293b2663464736f6c634300080a0033"}}