{"compiler":"v0.6.6+commit.6c089d02","opcodeHash":"0x9c5ef428aeb0c3f70c98864dd535d5143d0b1ed8aa7f726a1cef86892db3a773","metalessHash":"0x649332534ddfc9e41f4fd29ca2228ee43ce2b5ca0364335dbb1b9983813fd953","runtimeHash":"0x6a949aa722086738031a446d241c6716e84ae8251b6913370335ce3632c7fb2b","encodedMetadata":[{"ipfs":"/ipfs/QmbPTgNLVGVyWhzxUeqarf4bDT3cys3S9oAgxNUQhUNNWv","solc":"0.6.6"}],"abi":[{"inputs":[{"internalType":"address","name":"_investToken","type":"address"},{"internalType":"address","name":"_admin","type":"address"},{"internalType":"address","name":"_tokenToBeUsed","type":"address"},{"internalType":"address","name":"_refundAllocation","type":"address"}],"stateMutability":"nonpayable","type":"constructor"},{"anonymous":false,"inputs":[{"indexed":true,"internalType":"address","name":"_playerAddress","type":"address"},{"indexed":true,"internalType":"uint256","name":"amount","type":"uint256"},{"indexed":true,"internalType":"uint256","name":"timeStamp","type":"uint256"}],"name":"dailyPayoutEvent","type":"event"},{"anonymous":false,"inputs":[{"indexed":true,"internalType":"address","name":"_playerAddress","type":"address"},{"indexed":true,"internalType":"uint256","name":"_amount","type":"uint256"}],"name":"investmentEvent","type":"event"},{"anonymous":false,"inputs":[{"indexed":true,"internalType":"address","name":"owner","type":"address"},{"indexed":true,"internalType":"address","name":"newOwner","type":"address"}],"name":"ownershipTransferred","type":"event"},{"anonymous":false,"inputs":[{"indexed":true,"internalType":"address","name":"_playerAddress","type":"address"},{"indexed":true,"internalType":"address","name":"_referrer","type":"address"},{"indexed":true,"internalType":"uint256","name":"amount","type":"uint256"},{"indexed":false,"internalType":"uint256","name":"timeStamp","type":"uint256"}],"name":"referralCommissionEvent","type":"event"},{"anonymous":false,"inputs":[{"indexed":true,"internalType":"address","name":"_playerAddress","type":"address"},{"indexed":true,"internalType":"address","name":"_referrer","type":"address"}],"name":"registerUserEvent","type":"event"},{"anonymous":false,"inputs":[{"indexed":true,"internalType":"address","name":"_playerAddress","type":"address"},{"indexed":true,"internalType":"uint256","name":"_amount","type":"uint256"}],"name":"roundAwardsEvent","type":"event"},{"anonymous":false,"inputs":[{"indexed":true,"internalType":"address","name":"_playerAddress","type":"address"},{"indexed":true,"internalType":"uint256","name":"amount","type":"uint256"},{"indexed":true,"internalType":"uint256","name":"timeStamp","type":"uint256"}],"name":"withdrawEvent","type":"event"},{"inputs":[{"internalType":"address","name":"_adminAddress","type":"address"}],"name":"addAdmin","outputs":[{"internalType":"address[]","name":"","type":"address[]"}],"stateMutability":"nonpayable","type":"function"},{"inputs":[{"internalType":"address","name":"_leaderAddress","type":"address"}],"name":"addLeader","outputs":[],"stateMutability":"nonpayable","type":"function"},{"inputs":[{"internalType":"uint256","name":"","type":"uint256"}],"name":"admins","outputs":[{"internalType":"address","name":"","type":"address"}],"stateMutability":"view","type":"function"},{"inputs":[],"name":"currUserID","outputs":[{"internalType":"uint256","name":"","type":"uint256"}],"stateMutability":"view","type":"function"},{"inputs":[],"name":"drawPool","outputs":[],"stateMutability":"nonpayable","type":"function"},{"inputs":[],"name":"investToken","outputs":[{"internalType":"contract IERC20","name":"","type":"address"}],"stateMutability":"view","type":"function"},{"inputs":[{"internalType":"address","name":"","type":"address"}],"name":"isLeader","outputs":[{"internalType":"bool","name":"","type":"bool"}],"stateMutability":"view","type":"function"},{"inputs":[{"internalType":"uint256","name":"","type":"uint256"}],"name":"lastTopSponsors","outputs":[{"internalType":"uint256","name":"amt","type":"uint256"},{"internalType":"address","name":"addr","type":"address"}],"stateMutability":"view","type":"function"},{"inputs":[{"internalType":"uint256","name":"","type":"uint256"}],"name":"lastTopSponsorsWinningAmount","outputs":[{"internalType":"uint256","name":"","type":"uint256"}],"stateMutability":"view","type":"function"},{"inputs":[],"name":"m1","outputs":[{"internalType":"uint256","name":"","type":"uint256"}],"stateMutability":"view","type":"function"},{"inputs":[],"name":"m2","outputs":[{"internalType":"uint256","name":"","type":"uint256"}],"stateMutability":"view","type":"function"},{"inputs":[],"name":"owner","outputs":[{"internalType":"address","name":"","type":"address"}],"stateMutability":"view","type":"function"},{"inputs":[{"internalType":"address","name":"","type":"address"}],"name":"player","outputs":[{"internalType":"uint256","name":"id","type":"uint256"},{"internalType":"uint256","name":"totalInvestment","type":"uint256"},{"internalType":"uint256","name":"directsIncome","type":"uint256"},{"internalType":"uint256","name":"roiReferralIncome","type":"uint256"},{"internalType":"uint256","name":"currInvestment","type":"uint256"},{"internalType":"uint256","name":"dailyIncome","type":"uint256"},{"internalType":"uint256","name":"lastSettledTime","type":"uint256"},{"internalType":"uint256","name":"incomeLimitLeft","type":"uint256"},{"internalType":"uint256","name":"sponsorPoolIncome","type":"uint256"},{"internalType":"uint256","name":"referralCount","type":"uint256"},{"internalType":"address","name":"referrer","type":"address"},{"internalType":"uint256","name":"totalVolETH","type":"uint256"}],"stateMutability":"view","type":"function"},{"inputs":[{"internalType":"address","name":"","type":"address"}],"name":"playerEarnings","outputs":[{"internalType":"uint256","name":"withdrawableAmount","type":"uint256"},{"internalType":"uint256","name":"lockedAmount","type":"uint256"}],"stateMutability":"view","type":"function"},{"inputs":[{"internalType":"address","name":"","type":"address"},{"internalType":"uint256","name":"","type":"uint256"}],"name":"plyrRnds_","outputs":[{"internalType":"uint256","name":"ethVolume","type":"uint256"}],"stateMutability":"view","type":"function"},{"inputs":[],"name":"refundAllocation","outputs":[{"internalType":"address","name":"","type":"address"}],"stateMutability":"view","type":"function"},{"inputs":[{"internalType":"uint256","name":"_referrerID","type":"uint256"}],"name":"registerUser","outputs":[],"stateMutability":"payable","type":"function"},{"inputs":[{"internalType":"address","name":"_adminAddress","type":"address"}],"name":"removeAdmin","outputs":[{"internalType":"address[]","name":"","type":"address[]"}],"stateMutability":"nonpayable","type":"function"},{"inputs":[{"internalType":"uint256","name":"","type":"uint256"}],"name":"round","outputs":[{"internalType":"uint256","name":"startTime","type":"uint256"},{"internalType":"uint256","name":"endTime","type":"uint256"},{"internalType":"bool","name":"ended","type":"bool"},{"internalType":"uint256","name":"pool","type":"uint256"}],"stateMutability":"view","type":"function"},{"inputs":[],"name":"roundID","outputs":[{"internalType":"uint256","name":"","type":"uint256"}],"stateMutability":"view","type":"function"},{"inputs":[],"name":"takeRemainingTVOTokens","outputs":[],"stateMutability":"nonpayable","type":"function"},{"inputs":[],"name":"tevvoToken","outputs":[{"internalType":"contract Token","name":"","type":"address"}],"stateMutability":"view","type":"function"},{"inputs":[{"internalType":"uint256","name":"","type":"uint256"}],"name":"topSponsors","outputs":[{"internalType":"uint256","name":"amt","type":"uint256"},{"internalType":"address","name":"addr","type":"address"}],"stateMutability":"view","type":"function"},{"inputs":[],"name":"totalDeposit","outputs":[{"internalType":"uint256","name":"","type":"uint256"}],"stateMutability":"view","type":"function"},{"inputs":[],"name":"totalWithdrawn","outputs":[{"internalType":"uint256","name":"","type":"uint256"}],"stateMutability":"view","type":"function"},{"inputs":[{"internalType":"address","name":"newOwner","type":"address"}],"name":"transferOwnership","outputs":[],"stateMutability":"nonpayable","type":"function"},{"inputs":[{"internalType":"uint256","name":"","type":"uint256"}],"name":"userList","outputs":[{"internalType":"address","name":"","type":"address"}],"stateMutability":"view","type":"function"},{"inputs":[{"internalType":"uint256","name":"_amount","type":"uint256"},{"internalType":"address","name":"_receiver","type":"address"},{"internalType":"uint256","name":"_numberUI","type":"uint256"}],"name":"withdrawAdminFees","outputs":[],"stateMutability":"nonpayable","type":"function"},{"inputs":[],"name":"withdrawEarnings","outputs":[],"stateMutability":"nonpayable","type":"function"}],"bytecode":{"object":"6080604052600260045562015180600555620151806006556005600755601e600855600a6009556000600c556000600d556000600e556000600f5567016345785d8a000060295534801561005257600080fd5b5060405161358f38038061358f8339818101604052608081101561007557600080fd5b50805160208083015160408085015160609095015160028054336001600160a01b0319918216179091556003805482166001600160a01b03938416179055600080548216968316969096178655600180548216978316979097178755600a878155427ffcc3d43705633578a5e8f1b6d6f38d08eb8cb891174edcc94b1a54972a1aebbd81905560055481017ffcc3d43705633578a5e8f1b6d6f38d08eb8cb891174edcc94b1a54972a1aebbe556028601055601e60115560146012819055601392909255600b8054909901808a5593909516808852602c87528488209384556969e10de76676d080000060078501556006840195909555600990920191909155602e845281852069032d26d12e980b600000905594548452602a9092529082208054909316179091556133e19081906101ae90396000f3fe6080604052600436106101c25760003560e01c80638da5cb5b116100f7578063d4841d5e11610095578063e7204ffb11610064578063e7204ffb1461069a578063f1340382146106af578063f2fde38b146106e2578063f6153ccd14610715576101c2565b8063d4841d5e146105ea578063d6d0037514610614578063db512e851461063e578063e20ce6ba14610685576101c2565b8063a4bb170d116100d1578063a4bb170d14610596578063a77f92ff146105ab578063b73c6ce9146105c0578063badf822b146105d5576101c2565b80638da5cb5b1461054257806391aa69ca146105575780639f4216e81461056c576101c2565b80634b31971311610164578063704802751161013e57806370480275146104a6578063791eacca146104d95780637efbf89d146105185780638b02fbf41461052d576101c2565b80634b319713146103aa5780634c54e1b5146103bf57806369f927731461045a576101c2565b80631bbfae0e116101a05780631bbfae0e146102b757806334d5f37b146102d657806336bfa47b14610326578063452b381d14610371576101c2565b806314bfd6d0146101c757806314f8b4241461020d5780631785f53c14610234575b600080fd5b3480156101d357600080fd5b506101f1600480360360208110156101ea57600080fd5b503561072a565b604080516001600160a01b039092168252519081900360200190f35b34801561021957600080fd5b50610222610751565b60408051918252519081900360200190f35b34801561024057600080fd5b506102676004803603602081101561025757600080fd5b50356001600160a01b0316610757565b60408051602080825283518183015283519192839290830191858101910280838360005b838110156102a357818101518382015260200161028b565b505050509050019250505060405180910390f35b6102d4600480360360208110156102cd57600080fd5b503561090b565b005b3480156102e257600080fd5b50610300600480360360208110156102f957600080fd5b5035611115565b604080519485526020850193909352901515838301526060830152519081900360800190f35b34801561033257600080fd5b506103506004803603602081101561034957600080fd5b5035611142565b604080519283526001600160a01b0390911660208301528051918290030190f35b34801561037d57600080fd5b506102226004803603604081101561039457600080fd5b506001600160a01b03813516906020013561116a565b3480156103b657600080fd5b50610222611187565b3480156103cb57600080fd5b506103f2600480360360208110156103e257600080fd5b50356001600160a01b031661118d565b604080519c8d5260208d019b909b528b8b019990995260608b019790975260808a019590955260a089019390935260c088019190915260e08701526101008601526101208501526001600160a01b031661014084015261016083015251908190036101800190f35b34801561046657600080fd5b5061048d6004803603602081101561047d57600080fd5b50356001600160a01b03166111f8565b6040805192835260208301919091528051918290030190f35b3480156104b257600080fd5b50610267600480360360208110156104c957600080fd5b50356001600160a01b0316611211565b3480156104e557600080fd5b506102d4600480360360608110156104fc57600080fd5b508035906001600160a01b036020820135169060400135611317565b34801561052457600080fd5b506101f1611451565b34801561053957600080fd5b506101f1611460565b34801561054e57600080fd5b506101f161146f565b34801561056357600080fd5b5061022261147e565b34801561057857600080fd5b506101f16004803603602081101561058f57600080fd5b5035611484565b3480156105a257600080fd5b5061022261149f565b3480156105b757600080fd5b506102226114a5565b3480156105cc57600080fd5b506102d46114ab565b3480156105e157600080fd5b506101f16116e1565b3480156105f657600080fd5b506103506004803603602081101561060d57600080fd5b50356116f0565b34801561062057600080fd5b506102226004803603602081101561063757600080fd5b50356116fd565b34801561064a57600080fd5b506106716004803603602081101561066157600080fd5b50356001600160a01b0316611711565b604080519115158252519081900360200190f35b34801561069157600080fd5b506102d4611726565b3480156106a657600080fd5b506102d4611873565b3480156106bb57600080fd5b506102d4600480360360208110156106d257600080fd5b50356001600160a01b03166118c9565b3480156106ee57600080fd5b506102d46004803603602081101561070557600080fd5b50356001600160a01b031661199e565b34801561072157600080fd5b506102226119f6565b6028818154811061073757fe5b6000918252602090912001546001600160a01b0316905081565b600a5481565b6002546060906001600160a01b031633146107a6576040805162461bcd60e51b815260206004820152600a60248201526937b7363c9027bbb732b960b11b604482015290519081900360640190fd5b60005b6028548110156108a757826001600160a01b0316602882815481106107ca57fe5b6000918252602090912001546001600160a01b0316141561089f576028805460001981019081106107f757fe5b600091825260209091200154602880546001600160a01b03909216918390811061081d57fe5b600091825260209091200180546001600160a01b0319166001600160a01b039290921691909117905560288054600019810190811061085857fe5b600091825260209091200180546001600160a01b0319169055602880548061087c57fe5b600082815260209020810160001990810180546001600160a01b03191690550190555b6001016107a9565b5060288054806020026020016040519081016040528092919081815260200182805480156108fe57602002820191906000526020600020905b81546001600160a01b031681526001909101906020018083116108e0575b505050505090505b919050565b3467016345785d8a000081101580610921575080155b61095c5760405162461bcd60e51b81526004018080602001828103825260268152602001806132d66026913960400191505060405180910390fd5b3467016345785d8a000081061580610972575080155b6109c3576040805162461bcd60e51b815260206004820152601860248201527f4f6e6c7920696e206d756c7469706c6573206f6620302e310000000000000000604482015290519081900360640190fd5b6000831180156109d55750600b548311155b610a1e576040805162461bcd60e51b8152602060048201526015602482015274125b98dbdc9c9958dd08149959995c9c995c881251605a1b604482015290519081900360640190fd5b60003411610a73576040805162461bcd60e51b815260206004820152601760248201527f536f7272792c20696e636f727265637420616d6f756e74000000000000000000604482015290519081900360640190fd5b6000838152602a6020908152604080832054338452602c909252909120546001600160a01b03909116903490610d1357600b805460010190819055336000908152602c60205260409020908155426006820155600401819055600954600854610af49190610ae890849063ffffffff6119fc16565b9063ffffffff611a5e16565b336000908152602c60205260409020600781019190915560018101829055600a0180546001600160a01b0319166001600160a01b038416179055600954610b4090610ae883600f6119fc565b336000818152602e6020908152604080832094909455600b548252602a815283822080546001600160a01b0319169093179092556001600160a01b0385168152602c9091522060090154610b9b90600163ffffffff611aa016565b6001600160a01b038084166000818152602c6020526040902060090192909255600254161415610c3f57610c07610bde6064610ae884601463ffffffff6119fc16565b600280546001600160a01b03166000908152602c6020526040902001549063ffffffff611aa016565b600280546001600160a01b039081166000908152602c6020526040808220840194909455915416815220600b01805482019055610cd8565b6001600160a01b0382166000908152602f60209081526040808320600a548452909152902054610c75908263ffffffff611aa016565b6001600160a01b0383166000818152602f60209081526040808320600a548452825280832094909455918152602c90915220600b01805482019055610cb982611afa565b50600054610cd8906001600160a01b031633308463ffffffff611edc16565b6040516001600160a01b0383169033907fddb5b955685e49590bf27ea3575cf7aea7a942422afa776dba9c6fd4ff3e655a90600090a3610f84565b610d1b6114ab565b336000908152602e6020908152604080832060010154602c9092529091206007015491019015610d92576040805162461bcd60e51b815260206004820152601860248201527f6c696d6974206973207374696c6c2072656d61696e696e670000000000000000604482015290519081900360640190fd5b600954336000908152602c6020526040902060040154610dbe9190610ae890600f63ffffffff6119fc16565b336000908152602e602052604090206001015414610ddb57600080fd5b336000908152602c60208181526040808420600a810154602e84529185206001019490945591905242600683015560049091018290556009546008546001600160a01b039092169350610e3391610ae89084906119fc565b336000908152602c60205260409020600781019190915560010154610e5e908263ffffffff611aa016565b336000908152602c6020526040902060010155600954610e8990610ae883600f63ffffffff6119fc16565b336000908152602e60205260409020556002546001600160a01b0383811691161415610f0057610ec8610bde6064610ae884601463ffffffff6119fc16565b600280546001600160a01b039081166000908152602c6020526040808220840194909455915416815220600b01805482019055610f84565b6001600160a01b0382166000908152602f60209081526040808320600a548452909152902054610f36908263ffffffff611aa016565b6001600160a01b0383166000908152602f60209081526040808320600a548452909152902055610f6582611afa565b50600054610f84906001600160a01b031633308463ffffffff611edc16565b610fc2610fa16064610ae8600754856119fc90919063ffffffff16565b600a546000908152602b60205260409020600301549063ffffffff611aa016565b600a546000908152602b602052604090206003015560025460045461101c916001600160a01b03169061100390606490610ae890869063ffffffff6119fc16565b6000546001600160a01b0316919063ffffffff611f3616565b60005b6028548110156110675761105f6028828154811061103957fe5b6000918252602090912001546001600160a01b031661100384606463ffffffff611a5e16565b60010161101f565b5060038054611094916001600160a01b039091169061100390606490610ae890869063ffffffff6119fc16565b600a546000908152602b6020526040902060010154421180156110cc5750600a546000908152602b602052604090206002015460ff16155b156110d9576110d9611f88565b600e805482019055604051819033907f1c58ec20c926cc585eaf181eaf11cb4eb553acc2fda2d960f36b962c17e8e75390600090a35050505050565b602b6020526000908152604090208054600182015460028301546003909301549192909160ff9091169084565b6014816004811061114f57fe5b6002020180546001909101549091506001600160a01b031682565b602f60209081526000928352604080842090915290825290205481565b600f5481565b602c60205260009081526040902080546001820154600283015460038401546004850154600586015460068701546007880154600889015460098a0154600a8b0154600b909b0154999a9899979896979596949593949293919290916001600160a01b03909116908c565b602e602052600090815260409020805460019091015482565b6002546060906001600160a01b03163314611260576040805162461bcd60e51b815260206004820152600a60248201526937b7363c9027bbb732b960b11b604482015290519081900360640190fd5b602854600511156112b757602880546001810182556000919091527fe16da923a2d88192e5070f37b4571d58682c0d66212ec634d495f33de3f77ab50180546001600160a01b0319166001600160a01b0384161790555b60288054806020026020016040519081016040528092919081815260200182805480156108fe576020028201919060005260206000209081546001600160a01b031681526001909101906020018083116108e05750505050509050919050565b6002546001600160a01b03163314611363576040805162461bcd60e51b815260206004820152600a60248201526937b7363c9027bbb732b960b11b604482015290519081900360640190fd5b806001148015611375575082600c5410155b156113da5782156113d5578247106113d557600c5461139a908463ffffffff61208716565b600c556040516001600160a01b0383169084156108fc029085906000818181858888f193505050501580156113d3573d6000803e3d6000fd5b505b61144c565b8060021480156113ec575082600d5410155b1561144c57821561144c5782471061144c57600d54611411908463ffffffff61208716565b600d556040516001600160a01b0383169084156108fc029085906000818181858888f1935050505015801561144a573d6000803e3d6000fd5b505b505050565b6003546001600160a01b031681565b6001546001600160a01b031681565b6002546001600160a01b031681565b600d5481565b602a602052600090815260409020546001600160a01b031681565b600b5481565b600c5481565b336114b5816120c9565b6001600160a01b038082166000908152602c60209081526040808320600881015460038201546002830154600590930154865485516370a0823160e01b81523060048201529551919094019091019091019591909116926370a082319260248082019391829003018186803b15801561152d57600080fd5b505afa158015611541573d6000803e3d6000fd5b505050506040513d602081101561155757600080fd5b505190508181101561159a5760405162461bcd60e51b81526004018080602001828103825260218152602001806133676021913960400191505060405180910390fd5b811561169c57336000908152602e602052604090205482116115d157336000908152602e6020526040902080548390039055611614565b336000908152602e60205260409020546115f290839063ffffffff61208716565b336000908152602e602052604081206001810180549093019092558154915591505b6001600160a01b038084166000908152602c60205260408120600581018290556002810182905560038101829055600801819055600f805485019055546116639116338463ffffffff611f3616565b4282846001600160a01b03167f3f5274d9edd3b530545223adc84dcf865f2433783bc200984750bd356af5725360405160405180910390a45b600a546000908152602b6020526040902060010154421180156116d45750600a546000908152602b602052604090206002015460ff16155b1561144c5761144c611f88565b6000546001600160a01b031681565b601c816004811061114f57fe5b6024816004811061170a57fe5b0154905081565b602d6020526000908152604090205460ff1681565b6002546001600160a01b03163314611772576040805162461bcd60e51b815260206004820152600a60248201526937b7363c9027bbb732b960b11b604482015290519081900360640190fd5b600154600254604080516370a0823160e01b815230600482015290516001600160a01b039384169363a9059cbb93169184916370a0823191602480820192602092909190829003018186803b1580156117ca57600080fd5b505afa1580156117de573d6000803e3d6000fd5b505050506040513d60208110156117f457600080fd5b5051604080516001600160e01b031960e086901b1681526001600160a01b03909316600484015260248301919091525160448083019260209291908290030181600087803b15801561184557600080fd5b505af1158015611859573d6000803e3d6000fd5b505050506040513d602081101561186f57600080fd5b5050565b6002546001600160a01b031633146118bf576040805162461bcd60e51b815260206004820152600a60248201526937b7363c9027bbb732b960b11b604482015290519081900360640190fd5b6118c7611f88565b565b6002546001600160a01b03163314611915576040805162461bcd60e51b815260206004820152600a60248201526937b7363c9027bbb732b960b11b604482015290519081900360640190fd5b6001600160a01b0381166000908152602d602052604090205460ff161561197a576040805162461bcd60e51b81526020600482015260146024820152731b195859195c88185b1c9958591e48185919195960621b604482015290519081900360640190fd5b6001600160a01b03166000908152602d60205260409020805460ff19166001179055565b6002546001600160a01b031633146119ea576040805162461bcd60e51b815260206004820152600a60248201526937b7363c9027bbb732b960b11b604482015290519081900360640190fd5b6119f3816123dd565b50565b600e5481565b600082611a0b57506000611a58565b82820282848281611a1857fe5b0414611a555760405162461bcd60e51b81526004018080602001828103825260218152602001806132fc6021913960400191505060405180910390fd5b90505b92915050565b6000611a5583836040518060400160405280601a81526020017f536166654d6174683a206469766973696f6e206279207a65726f00000000000081525061247e565b600082820183811015611a55576040805162461bcd60e51b815260206004820152601b60248201527f536166654d6174683a206164646974696f6e206f766572666c6f770000000000604482015290519081900360640190fd5b60006001600160a01b038216611b1257506000610906565b6001600160a01b0382166000908152602f60209081526040808320600a548452909152902054601a548111611b4b576000915050610906565b6015546014546017546016546019546018546001600160a01b0395861695938416939091169084871115611d7f576015546001600160a01b038a811691161415611bab5786601460005b6002020155506001965061090695505050505050565b6017546001600160a01b038a811691161415611c0b57601580546001600160a01b0319166001600160a01b038b1617905586601460006002020155601780546001600160a01b0319166001600160a01b0388161790558460146001611b95565b6019546001600160a01b038a811691161415611cbb57601580546001600160a01b0319166001600160a01b038b1617905586601460006002020155601780546001600160a01b0319166001600160a01b03881617905584601460015b6002020160000181905550836014600260048110611c8157fe5b6002020160010160006101000a8154816001600160a01b0302191690836001600160a01b03160217905550826014600260048110611b9557fe5b601580546001600160a01b0319166001600160a01b038b1617905586601460006002020155601780546001600160a01b0319166001600160a01b03881617905584601460015b6002020160000181905550836014600260048110611d1b57fe5b6002020160010160006101000a8154816001600160a01b0302191690836001600160a01b03160217905550826014600260048110611d5557fe5b6002020155601b80546001600160a01b0319166001600160a01b0384161790558060146003611b95565b601654871115611e09576017546001600160a01b038a811691161415611da9578660146001611b95565b6019546001600160a01b038a811691161415611de457601780546001600160a01b0319166001600160a01b038b161790558660146001611c67565b601780546001600160a01b0319166001600160a01b038b161790558660146001611d01565b601854871115611e81576019546001600160a01b038a811691161415611e33578660146002611b95565b601980546001600160a01b0319166001600160a01b038b16179055866014600280020155601b80546001600160a01b0319166001600160a01b03841617905580601460036002020155611ed0565b601a54871115611ed057601b546001600160a01b038a811691161415611eab578660146003611b95565b601b80546001600160a01b0319166001600160a01b038b161790558660146003611b95565b50505050505050919050565b604080516001600160a01b0380861660248301528416604482015260648082018490528251808303909101815260849091019091526020810180516001600160e01b03166323b872dd60e01b17905261144a908590612520565b604080516001600160a01b038416602482015260448082018490528251808303909101815260649091019091526020810180516001600160e01b031663a9059cbb60e01b17905261144c908490612520565b600a546000818152602b6020526040902060030154678ac7230489e800008110612042576000828152602b60205260408120600201805460ff19166001179055611fd06125d1565b600a805460019081019091559093016000818152602b602052604090204290819055600554919492506120089163ffffffff611aa016565b6000848152602b602052604090206001015561202a828263ffffffff61208716565b6000848152602b60205260409020600301555061186f565b6000828152602b602052604090204290819055600554612068919063ffffffff611aa016565b6000928352602b60205260409092206001810192909255600390910155565b6000611a5583836040518060400160405280601e81526020017f536166654d6174683a207375627472616374696f6e206f766572666c6f770000815250612b87565b600680546001600160a01b0383166000908152602c602052604081209092015482910142111561144c576001600160a01b0383166000908152602c602052604081206006015461212090429063ffffffff61208716565b90506000612147600654610ae8600654858161213857fe5b8691900663ffffffff61208716565b6001600160a01b0386166000908152602c6020526040902060040154909450925061217983602863ffffffff611a5e16565b905061218b818563ffffffff6119fc16565b6001600160a01b0386166000908152602c602052604090206007015410612323576121e76121bf828663ffffffff6119fc16565b6001600160a01b0387166000908152602c60205260409020600701549063ffffffff61208716565b6001600160a01b0386166000908152602c602052604090206007015561223e612216828663ffffffff6119fc16565b6001600160a01b0387166000908152602c60205260409020600501549063ffffffff611aa016565b6001600160a01b0386166000908152602c60205260409020600501556006546122a49061227c90848161226d57fe5b8591900663ffffffff61208716565b6001600160a01b0387166000908152602c60205260409020600601549063ffffffff611aa016565b6001600160a01b0386166000908152602c6020526040902060060155426122d1828663ffffffff6119fc16565b6040516001600160a01b038816907f8c5a7dbdaf6119ca6207af55c8ed2aa8d5e9396e53ae2bf20ce1eaf826cef71a90600090a461231e85612319838763ffffffff6119fc16565b612be1565b6123d6565b6001600160a01b0385166000908152602c6020526040902060070154156123d6576001600160a01b0385166000908152602c6020526040812060078101805492905560050154612379908263ffffffff611aa016565b6001600160a01b0387166000818152602c60205260408082206005810194909455426006909401849055518492917f8c5a7dbdaf6119ca6207af55c8ed2aa8d5e9396e53ae2bf20ce1eaf826cef71a91a46123d48682612be1565b505b5050505050565b6001600160a01b0381166124225760405162461bcd60e51b81526004018080602001828103825260248152602001806133886024913960400191505060405180910390fd5b6002546040516001600160a01b038084169216907f7699c77f2404f9b6bbd003861bb4af8ae70b205e19e73d7ec7fe4590db59a6b790600090a3600280546001600160a01b0319166001600160a01b0392909216919091179055565b6000818361250a5760405162461bcd60e51b81526004018080602001828103825283818151815260200191508051906020019080838360005b838110156124cf5781810151838201526020016124b7565b50505050905090810190601f1680156124fc5780820380516001836020036101000a031916815260200191505b509250505060405180910390fd5b50600083858161251657fe5b0495945050505050565b6060612575826040518060400160405280602081526020017f5361666545524332303a206c6f772d6c6576656c2063616c6c206661696c6564815250856001600160a01b031661314b9092919063ffffffff16565b80519091501561144c5780806020019051602081101561259457600080fd5b505161144c5760405162461bcd60e51b815260040180806020018281038252602a81526020018061331d602a913960400191505060405180910390fd5b600a80546000908152602b60205260408120600301549091829161260191606491610ae89163ffffffff6119fc16565b90506000805b6004811015612b805760006014826004811061261f57fe5b60020201600101546001600160a01b031614612b78576126596064610ae86010846004811061264a57fe5b0154869063ffffffff6119fc16565b602c60006014846004811061266a57fe5b60020201600101546001600160a01b031681526020810191909152604001600020600701541061281b576126f76126bb6064610ae8601085600481106126ac57fe5b0154879063ffffffff6119fc16565b602c6000601485600481106126cc57fe5b60020201600101546001600160a01b0316815260208101919091526040016000206007015490612087565b602c60006014846004811061270857fe5b60020201600101546001600160a01b031681526020810191909152604001600020600701556127816127456064610ae8601085600481106126ac57fe5b602c60006014856004811061275657fe5b60020201600101546001600160a01b0316815260208101919091526040016000206008015490611aa0565b602c60006014846004811061279257fe5b60020201600101546001600160a01b031681526020810191909152604001600020600801556127cc6064610ae86010846004811061264a57fe5b601482600481106127d957fe5b60020201600101546040516001600160a01b03909116907f253871ee597f4c36a5bfe1659499041a734f154acc85ca011a1c97c803c06eeb90600090a3612a64565b602c60006014836004811061282c57fe5b60020201600101546001600160a01b0316815260208101919091526040016000206007015415612a48576128ba602c60006014846004811061286a57fe5b6002020160010160009054906101000a90046001600160a01b03166001600160a01b03166001600160a01b0316815260200190815260200160002060070154602c60006014856004811061275657fe5b602c6000601484600481106128cb57fe5b6002020160010160009054906101000a90046001600160a01b03166001600160a01b03166001600160a01b0316815260200190815260200160002060080181905550612988612979602c60006014856004811061292457fe5b60020201600101546001600160a01b0316815260208101919091526040016000206007015461296d6064610ae86010876004811061295e57fe5b0154899063ffffffff6119fc16565b9063ffffffff61208716565b600d549063ffffffff611aa016565b600d55602c60006014836004811061299c57fe5b60020201600101546001600160a01b03168152602081019190915260400160002060070154601482600481106129ce57fe5b60020201600101546040516001600160a01b03909116907f253871ee597f4c36a5bfe1659499041a734f154acc85ca011a1c97c803c06eeb90600090a36000602c600060148460048110612a1e57fe5b60020201600101546001600160a01b03168152602081019190915260400160002060070155612a64565b612a606129796064610ae8601085600481106126ac57fe5b600d555b612a89612a7c6064610ae8601085600481106126ac57fe5b839063ffffffff611aa016565b915060148160048110612a9857fe5b60020201600101546001600160a01b0316601c8260048110612ab657fe5b6002020160010160006101000a8154816001600160a01b0302191690836001600160a01b0316021790555060148160048110612aee57fe5b6002020154601c8260048110612b0057fe5b6002020155612b1a6064610ae86010846004811061264a57fe5b60248260048110612b2757fe5b0155600060148260048110612b3857fe5b6002020160010160006101000a8154816001600160a01b0302191690836001600160a01b03160217905550600060148260048110612b7257fe5b60020201555b600101612607565b5091505090565b60008184841115612bd95760405162461bcd60e51b81526020600482018181528351602484015283519092839260449091019190850190808383600083156124cf5781810151838201526020016124b7565b505050900390565b6001600160a01b038083166000908152602c60205260408120600a015490911690612c1383600263ffffffff611a5e16565b905060005b60198110156123d6576001600160a01b038316156130d65780612e9e57612c4684600263ffffffff611a5e16565b6001600160a01b0384166000908152602c602052604090206007015410612d6657612ca3612c7b85600263ffffffff611a5e16565b6001600160a01b0385166000908152602c60205260409020600701549063ffffffff61208716565b6001600160a01b0384166000908152602c6020526040902060070155612cfb612cd385600263ffffffff611a5e16565b6001600160a01b0385166000908152602c60205260409020600301549063ffffffff611aa016565b6001600160a01b0384166000908152602c6020526040902060030155612d2884600263ffffffff611a5e16565b836001600160a01b0316866001600160a01b0316600080516020613347833981519152426040518082815260200191505060405180910390a4612e76565b6001600160a01b0383166000908152602c602052604090206007015415612e5e576001600160a01b0383166000908152602c602052604090206007810154600390910154612db99163ffffffff611aa016565b6001600160a01b0384166000908152602c60205260409020600381019190915560070154612df6906129799061296d87600263ffffffff611a5e16565b600d556001600160a01b038084166000818152602c6020908152604091829020600701548251428152925190948a169260008051602061334783398151915292908290030190a46001600160a01b0383166000908152602c6020526040812060070155612e76565b612e7261297985600263ffffffff611a5e16565b600d555b612e97612e8a85600263ffffffff611a5e16565b839063ffffffff61208716565b91506130d1565b6001600160a01b0383166000908152602c602052604090206009015460018201116130b957612ed484601463ffffffff611a5e16565b6001600160a01b0384166000908152602c602052604090206007015410612fa457612f09612c7b85601463ffffffff611a5e16565b6001600160a01b0384166000908152602c6020526040902060070155612f39612cd385601463ffffffff611a5e16565b6001600160a01b0384166000908152602c6020526040902060030155612f6684601463ffffffff611a5e16565b836001600160a01b0316866001600160a01b0316600080516020613347833981519152426040518082815260200191505060405180910390a46130b4565b6001600160a01b0383166000908152602c60205260409020600701541561309c576001600160a01b0383166000908152602c602052604090206007810154600390910154612ff79163ffffffff611aa016565b6001600160a01b0384166000908152602c60205260409020600381019190915560070154613034906129799061296d87601463ffffffff611a5e16565b600d556001600160a01b038084166000818152602c6020908152604091829020600701548251428152925190948a169260008051602061334783398151915292908290030190a46001600160a01b0383166000908152602c60205260408120600701556130b4565b6130b061297985601463ffffffff611a5e16565b600d555b6130d1565b6130cd61297985601463ffffffff611a5e16565b600d555b613122565b61311a6129798361310e6130f188601463ffffffff611a5e16565b61310260198763ffffffff61208716565b9063ffffffff6119fc16565b9063ffffffff611aa016565b600d556123d6565b6001600160a01b039283166000908152602c60205260409020600a015490921691600101612c18565b606061315a8484600085613162565b949350505050565b606061316d856132cf565b6131be576040805162461bcd60e51b815260206004820152601d60248201527f416464726573733a2063616c6c20746f206e6f6e2d636f6e7472616374000000604482015290519081900360640190fd5b60006060866001600160a01b031685876040518082805190602001908083835b602083106131fd5780518252601f1990920191602091820191016131de565b6001836020036101000a03801982511681845116808217855250505050505090500191505060006040518083038185875af1925050503d806000811461325f576040519150601f19603f3d011682016040523d82523d6000602084013e613264565b606091505b5091509150811561327857915061315a9050565b8051156132885780518082602001fd5b60405162461bcd60e51b81526020600482018181528651602484015286518793919283926044019190850190808383600083156124cf5781810151838201526020016124b7565b3b15159056fe4d696e696d756d20636f6e747269627574696f6e20616d6f756e7420697320302e3120455448536166654d6174683a206d756c7469706c69636174696f6e206f766572666c6f775361666545524332303a204552433230206f7065726174696f6e20646964206e6f742073756363656564e8a8de0c33658c3de38a3892af2c86397248fb25ae303545885fd8775df213174f6f70732c2073686f7274206f6620616d6f756e7420696e20636f6e74726163744e6577206f776e65722063616e6e6f7420626520746865207a65726f2061646472657373a264697066735822122039d01747d5bd94f61d3df5fc31173fb3006dc35a92550464d497621343d173dc64736f6c63430006060033"}}