{"compiler":"v0.5.17+commit.d19bba13","opcodeHash":"0xc35278e3e366b9ed51363486482b8f311517d8451862b7479f01582c518743e2","metalessHash":"0xced8e44c7a5e116fa0db7c061dbf27325b25e545237210f341f0a2e53e5492b0","runtimeHash":"0x617d4401479f3ba98cd1972b9ad4672b491a8c32019c50c162f2f7780fbd6229","encodedMetadata":[{"bzzr1":"/swarm/bzzr1/74c757f77e6d6bdf5807b56773e6f04435d521662d946eb3d13f9989f57b5e07","solc":"0.5.17"}],"abi":[{"anonymous":false,"inputs":[{"indexed":true,"internalType":"address","name":"owner","type":"address"},{"indexed":true,"internalType":"address","name":"spender","type":"address"},{"indexed":false,"internalType":"uint256","name":"value","type":"uint256"}],"name":"Approval","type":"event"},{"anonymous":false,"inputs":[{"indexed":false,"internalType":"uint256","name":"oldValue","type":"uint256"},{"indexed":false,"internalType":"uint256","name":"newValue","type":"uint256"}],"name":"IncomeRateChanged","type":"event"},{"anonymous":false,"inputs":[{"indexed":true,"internalType":"address","name":"previousOwner","type":"address"},{"indexed":true,"internalType":"address","name":"newOwner","type":"address"}],"name":"OwnershipTransferred","type":"event"},{"anonymous":false,"inputs":[{"indexed":true,"internalType":"address","name":"previousSetter","type":"address"},{"indexed":true,"internalType":"address","name":"newSetter","type":"address"}],"name":"ParamSetterChanged","type":"event"},{"anonymous":false,"inputs":[],"name":"Paused","type":"event"},{"anonymous":false,"inputs":[{"indexed":false,"internalType":"uint256","name":"reward","type":"uint256"}],"name":"RewardAdded","type":"event"},{"anonymous":false,"inputs":[{"indexed":true,"internalType":"address","name":"from","type":"address"},{"indexed":true,"internalType":"address","name":"to","type":"address"},{"indexed":false,"internalType":"uint256","name":"value","type":"uint256"}],"name":"Transfer","type":"event"},{"anonymous":false,"inputs":[],"name":"Unpaused","type":"event"},{"constant":true,"inputs":[],"name":"DOMAIN_SEPARATOR","outputs":[{"internalType":"bytes32","name":"","type":"bytes32"}],"payable":false,"stateMutability":"view","type":"function"},{"constant":true,"inputs":[],"name":"PERMIT_TYPEHASH","outputs":[{"internalType":"bytes32","name":"","type":"bytes32"}],"payable":false,"stateMutability":"view","type":"function"},{"constant":false,"inputs":[{"internalType":"uint256","name":"hashRate","type":"uint256"}],"name":"addHashRate","outputs":[],"payable":false,"stateMutability":"nonpayable","type":"function"},{"constant":true,"inputs":[{"internalType":"address","name":"","type":"address"},{"internalType":"address","name":"","type":"address"}],"name":"allowance","outputs":[{"internalType":"uint256","name":"","type":"uint256"}],"payable":false,"stateMutability":"view","type":"function"},{"constant":false,"inputs":[{"internalType":"address","name":"spender","type":"address"},{"internalType":"uint256","name":"value","type":"uint256"}],"name":"approve","outputs":[{"internalType":"bool","name":"","type":"bool"}],"payable":false,"stateMutability":"nonpayable","type":"function"},{"constant":true,"inputs":[{"internalType":"address","name":"","type":"address"}],"name":"balanceOf","outputs":[{"internalType":"uint256","name":"","type":"uint256"}],"payable":false,"stateMutability":"view","type":"function"},{"constant":true,"inputs":[],"name":"btcParam","outputs":[{"internalType":"address","name":"","type":"address"}],"payable":false,"stateMutability":"view","type":"function"},{"constant":false,"inputs":[{"internalType":"address","name":"to","type":"address"},{"internalType":"uint256","name":"amount","type":"uint256"}],"name":"claimIncome","outputs":[],"payable":false,"stateMutability":"nonpayable","type":"function"},{"constant":false,"inputs":[{"internalType":"address","name":"to","type":"address"},{"internalType":"uint256","name":"amount","type":"uint256"}],"name":"claimReward","outputs":[],"payable":false,"stateMutability":"nonpayable","type":"function"},{"constant":true,"inputs":[],"name":"decimals","outputs":[{"internalType":"uint8","name":"","type":"uint8"}],"payable":false,"stateMutability":"view","type":"function"},{"constant":true,"inputs":[],"name":"depreciationNumerator","outputs":[{"internalType":"uint256","name":"","type":"uint256"}],"payable":false,"stateMutability":"view","type":"function"},{"constant":true,"inputs":[],"name":"elecPowerPerTHSec","outputs":[{"internalType":"uint256","name":"","type":"uint256"}],"payable":false,"stateMutability":"view","type":"function"},{"constant":true,"inputs":[],"name":"electricCharge","outputs":[{"internalType":"uint256","name":"","type":"uint256"}],"payable":false,"stateMutability":"view","type":"function"},{"constant":true,"inputs":[],"name":"getCurWorkingRate","outputs":[{"internalType":"uint256","name":"","type":"uint256"}],"payable":false,"stateMutability":"view","type":"function"},{"constant":true,"inputs":[],"name":"getHistoryWorkingRate","outputs":[{"internalType":"uint256","name":"","type":"uint256"}],"payable":false,"stateMutability":"view","type":"function"},{"constant":true,"inputs":[],"name":"getIncomeBTCInWeiPerSec","outputs":[{"internalType":"uint256","name":"","type":"uint256"}],"payable":false,"stateMutability":"view","type":"function"},{"constant":true,"inputs":[],"name":"getPowerConsumptionBTCInWeiPerSec","outputs":[{"internalType":"uint256","name":"","type":"uint256"}],"payable":false,"stateMutability":"view","type":"function"},{"constant":false,"inputs":[{"internalType":"address","name":"_token","type":"address"},{"internalType":"uint256","name":"_amount","type":"uint256"}],"name":"inCaseTokensGetStuck","outputs":[],"payable":false,"stateMutability":"nonpayable","type":"function"},{"constant":true,"inputs":[],"name":"incomeRate","outputs":[{"internalType":"uint256","name":"","type":"uint256"}],"payable":false,"stateMutability":"view","type":"function"},{"constant":true,"inputs":[],"name":"incomeToken","outputs":[{"internalType":"contract IERC20","name":"","type":"address"}],"payable":false,"stateMutability":"view","type":"function"},{"constant":false,"inputs":[{"internalType":"string","name":"name","type":"string"},{"internalType":"string","name":"symbol","type":"string"},{"internalType":"address","name":"newOwner","type":"address"},{"internalType":"address","name":"_paramSetter","type":"address"},{"internalType":"address","name":"_stakingPool","type":"address"},{"internalType":"address","name":"_lpStakingPool","type":"address"},{"internalType":"address","name":"_minter","type":"address"},{"internalType":"address","name":"_btcParam","type":"address"},{"internalType":"address","name":"_incomeToken","type":"address"},{"internalType":"address","name":"_rewardsToken","type":"address"},{"internalType":"uint256","name":"_elecPowerPerTHSec","type":"uint256"},{"internalType":"uint256","name":"_startMiningTime","type":"uint256"},{"internalType":"uint256","name":"_electricCharge","type":"uint256"},{"internalType":"uint256","name":"_minerPoolFeeNumerator","type":"uint256"},{"internalType":"uint256","name":"_totalHashRate","type":"uint256"}],"name":"initialize","outputs":[],"payable":false,"stateMutability":"nonpayable","type":"function"},{"constant":true,"inputs":[],"name":"lpStakingPool","outputs":[{"internalType":"address","name":"","type":"address"}],"payable":false,"stateMutability":"view","type":"function"},{"constant":true,"inputs":[],"name":"lpStakingRewardRate","outputs":[{"internalType":"uint256","name":"","type":"uint256"}],"payable":false,"stateMutability":"view","type":"function"},{"constant":true,"inputs":[],"name":"minerPoolFeeNumerator","outputs":[{"internalType":"uint256","name":"","type":"uint256"}],"payable":false,"stateMutability":"view","type":"function"},{"constant":false,"inputs":[{"internalType":"address","name":"to","type":"address"},{"internalType":"uint256","name":"value","type":"uint256"}],"name":"mint","outputs":[],"payable":false,"stateMutability":"nonpayable","type":"function"},{"constant":true,"inputs":[],"name":"minter","outputs":[{"internalType":"address","name":"","type":"address"}],"payable":false,"stateMutability":"view","type":"function"},{"constant":true,"inputs":[],"name":"name","outputs":[{"internalType":"string","name":"","type":"string"}],"payable":false,"stateMutability":"view","type":"function"},{"constant":true,"inputs":[{"internalType":"address","name":"","type":"address"}],"name":"nonces","outputs":[{"internalType":"uint256","name":"","type":"uint256"}],"payable":false,"stateMutability":"view","type":"function"},{"constant":false,"inputs":[{"internalType":"uint256","name":"reward","type":"uint256"}],"name":"notifyRewardAmount","outputs":[],"payable":false,"stateMutability":"nonpayable","type":"function"},{"constant":true,"inputs":[],"name":"owner","outputs":[{"internalType":"address","name":"","type":"address"}],"payable":false,"stateMutability":"view","type":"function"},{"constant":true,"inputs":[],"name":"paramSetter","outputs":[{"internalType":"address","name":"","type":"address"}],"payable":false,"stateMutability":"view","type":"function"},{"constant":false,"inputs":[],"name":"pause","outputs":[],"payable":false,"stateMutability":"nonpayable","type":"function"},{"constant":true,"inputs":[],"name":"paused","outputs":[{"internalType":"bool","name":"","type":"bool"}],"payable":false,"stateMutability":"view","type":"function"},{"constant":false,"inputs":[{"internalType":"address","name":"owner","type":"address"},{"internalType":"address","name":"spender","type":"address"},{"internalType":"uint256","name":"value","type":"uint256"},{"internalType":"uint256","name":"deadline","type":"uint256"},{"internalType":"uint8","name":"v","type":"uint8"},{"internalType":"bytes32","name":"r","type":"bytes32"},{"internalType":"bytes32","name":"s","type":"bytes32"}],"name":"permit","outputs":[],"payable":false,"stateMutability":"nonpayable","type":"function"},{"constant":true,"inputs":[],"name":"remainingAmount","outputs":[{"internalType":"uint256","name":"","type":"uint256"}],"payable":false,"stateMutability":"view","type":"function"},{"constant":true,"inputs":[],"name":"rewardPeriodFinish","outputs":[{"internalType":"uint256","name":"","type":"uint256"}],"payable":false,"stateMutability":"view","type":"function"},{"constant":true,"inputs":[],"name":"rewardRate","outputs":[{"internalType":"uint256","name":"","type":"uint256"}],"payable":false,"stateMutability":"view","type":"function"},{"constant":true,"inputs":[],"name":"rewardsDuration","outputs":[{"internalType":"uint256","name":"","type":"uint256"}],"payable":false,"stateMutability":"view","type":"function"},{"constant":true,"inputs":[],"name":"rewardsToken","outputs":[{"internalType":"contract IERC20","name":"","type":"address"}],"payable":false,"stateMutability":"view","type":"function"},{"constant":false,"inputs":[{"internalType":"address","name":"_btcParam","type":"address"}],"name":"setBtcParam","outputs":[],"payable":false,"stateMutability":"nonpayable","type":"function"},{"constant":false,"inputs":[{"internalType":"uint256","name":"_depreciationNumerator","type":"uint256"}],"name":"setDepreciationNumerator","outputs":[],"payable":false,"stateMutability":"nonpayable","type":"function"},{"constant":false,"inputs":[{"internalType":"uint256","name":"_electricCharge","type":"uint256"}],"name":"setElectricCharge","outputs":[],"payable":false,"stateMutability":"nonpayable","type":"function"},{"constant":false,"inputs":[{"internalType":"uint256","name":"_minerPoolFeeNumerator","type":"uint256"}],"name":"setMinerPoolFeeNumerator","outputs":[],"payable":false,"stateMutability":"nonpayable","type":"function"},{"constant":false,"inputs":[{"internalType":"address","name":"_paramSetter","type":"address"}],"name":"setParamSetter","outputs":[],"payable":false,"stateMutability":"nonpayable","type":"function"},{"constant":false,"inputs":[{"internalType":"uint256","name":"_stakingRewardRatio","type":"uint256"}],"name":"setStakingRewardRatio","outputs":[],"payable":false,"stateMutability":"nonpayable","type":"function"},{"constant":false,"inputs":[{"internalType":"uint256","name":"_startMiningTime","type":"uint256"}],"name":"setStartMiningTime","outputs":[],"payable":false,"stateMutability":"nonpayable","type":"function"},{"constant":false,"inputs":[{"internalType":"uint256","name":"_workingHashRate","type":"uint256"}],"name":"setWorkingHashRate","outputs":[],"payable":false,"stateMutability":"nonpayable","type":"function"},{"constant":true,"inputs":[],"name":"stakingPool","outputs":[{"internalType":"address","name":"","type":"address"}],"payable":false,"stateMutability":"view","type":"function"},{"constant":true,"inputs":[],"name":"stakingRewardRate","outputs":[{"internalType":"uint256","name":"","type":"uint256"}],"payable":false,"stateMutability":"view","type":"function"},{"constant":true,"inputs":[],"name":"stakingRewardRatio","outputs":[{"internalType":"uint256","name":"","type":"uint256"}],"payable":false,"stateMutability":"view","type":"function"},{"constant":true,"inputs":[],"name":"startMiningTime","outputs":[{"internalType":"uint256","name":"","type":"uint256"}],"payable":false,"stateMutability":"view","type":"function"},{"constant":true,"inputs":[],"name":"symbol","outputs":[{"internalType":"string","name":"","type":"string"}],"payable":false,"stateMutability":"view","type":"function"},{"constant":true,"inputs":[],"name":"totalHashRate","outputs":[{"internalType":"uint256","name":"","type":"uint256"}],"payable":false,"stateMutability":"view","type":"function"},{"constant":true,"inputs":[],"name":"totalSupply","outputs":[{"internalType":"uint256","name":"","type":"uint256"}],"payable":false,"stateMutability":"view","type":"function"},{"constant":false,"inputs":[{"internalType":"address","name":"to","type":"address"},{"internalType":"uint256","name":"value","type":"uint256"}],"name":"transfer","outputs":[{"internalType":"bool","name":"","type":"bool"}],"payable":false,"stateMutability":"nonpayable","type":"function"},{"constant":false,"inputs":[{"internalType":"address","name":"from","type":"address"},{"internalType":"address","name":"to","type":"address"},{"internalType":"uint256","name":"value","type":"uint256"}],"name":"transferFrom","outputs":[{"internalType":"bool","name":"","type":"bool"}],"payable":false,"stateMutability":"nonpayable","type":"function"},{"constant":false,"inputs":[{"internalType":"address","name":"newOwner","type":"address"}],"name":"transferOwnership","outputs":[],"payable":false,"stateMutability":"nonpayable","type":"function"},{"constant":false,"inputs":[],"name":"unpause","outputs":[],"payable":false,"stateMutability":"nonpayable","type":"function"},{"constant":false,"inputs":[],"name":"updateIncomeRate","outputs":[],"payable":false,"stateMutability":"nonpayable","type":"function"},{"constant":true,"inputs":[],"name":"workerNumLastUpdateTime","outputs":[{"internalType":"uint256","name":"","type":"uint256"}],"payable":false,"stateMutability":"view","type":"function"},{"constant":true,"inputs":[],"name":"workingHashRate","outputs":[{"internalType":"uint256","name":"","type":"uint256"}],"payable":false,"stateMutability":"view","type":"function"},{"constant":true,"inputs":[],"name":"workingRateNumerator","outputs":[{"internalType":"uint256","name":"","type":"uint256"}],"payable":false,"stateMutability":"view","type":"function"}],"bytecode":{"object":"608060405234801561001057600080fd5b50615551806100206000396000f3fe608060405234801561001057600080fd5b50600436106103ba5760003560e01c806370a08231116101f4578063b0eb10931161011a578063d505accf116100ad578063eb6ee0a11161007c578063eb6ee0a11461128b578063f2fde38b146112d5578063f6e15f0414611319578063f97fd56914611337576103ba565b8063d505accf1461112e578063d840ce0e146111c7578063da3b6b35146111f5578063dd62ed3e14611213576103ba565b8063bc66ce0a116100e9578063bc66ce0a1461102e578063c232e1c814611078578063c6d758cb14611096578063d1af0c7d146110e4576103ba565b8063b0eb109314610f8a578063b48ffbb114610fa8578063b728926214610fc6578063b8ec0e2a14610fe4576103ba565b80639a29160911610192578063aa3119ee11610161578063aa3119ee14610eb6578063aa3166b414610ed4578063ab50cbc314610f18578063ae41428914610f5c576103ba565b80639a29160914610de65780639dabe39d14610e04578063a50a1fe614610e32578063a9059cbb14610e50576103ba565b80638456cb59116101ce5780638456cb5914610cc55780638da5cb5b14610ccf57806394cc699e14610d1957806395d89b4114610d63576103ba565b806370a0823114610bf75780637b0a47ee14610c4f5780637ecebe0014610c6d576103ba565b8063314d794d116102e45780634460b4df116102775780636117d0a9116102465780636117d0a9146108e8578063627ec052146109365780636499f1b2146109545780636b9e499c14610bd9576103ba565b80634460b4df1461085c5780634f3fc2df1461088a57806357adfc2d146108a85780635c975abb146108c6576103ba565b80633c6b16ab116102b35780633c6b16ab146107b85780633f4ba83a146107e657806340c10f19146107f05780634430dfce1461083e576103ba565b8063314d794d1461073057806331d9cbf81461074e5780633644e5151461077c578063386a95251461079a576103ba565b806317fd06a21161035c578063279084a61161032b578063279084a6146106a25780632a5a771d146106c057806330adf81f146106ee578063313ce5671461070c576103ba565b806317fd06a2146105c657806318160ddd146105f45780631b75fbe81461061257806323b872dd1461061c576103ba565b8063095ea7b311610398578063095ea7b3146104aa5780630c56ae3b14610510578063174e31c41461055a57806317e0ab89146105a8576103ba565b80630226cb84146103bf57806306fdde03146103dd5780630754617214610460575b600080fd5b6103c7611355565b6040518082815260200191505060405180910390f35b6103e56114c2565b6040518080602001828103825283818151815260200191508051906020019080838360005b8381101561042557808201518184015260208101905061040a565b50505050905090810190601f1680156104525780820380516001836020036101000a031916815260200191505b509250505060405180910390f35b610468611560565b604051808273ffffffffffffffffffffffffffffffffffffffff1673ffffffffffffffffffffffffffffffffffffffff16815260200191505060405180910390f35b6104f6600480360360408110156104c057600080fd5b81019080803573ffffffffffffffffffffffffffffffffffffffff16906020019092919080359060200190929190505050611586565b604051808215151515815260200191505060405180910390f35b61051861159d565b604051808273ffffffffffffffffffffffffffffffffffffffff1673ffffffffffffffffffffffffffffffffffffffff16815260200191505060405180910390f35b6105a66004803603604081101561057057600080fd5b81019080803573ffffffffffffffffffffffffffffffffffffffff169060200190929190803590602001909291905050506115c3565b005b6105b06117d2565b6040518082815260200191505060405180910390f35b6105f2600480360360208110156105dc57600080fd5b81019080803590602001909291905050506117d8565b005b6105fc611945565b6040518082815260200191505060405180910390f35b61061a61194b565b005b6106886004803603606081101561063257600080fd5b81019080803573ffffffffffffffffffffffffffffffffffffffff169060200190929190803573ffffffffffffffffffffffffffffffffffffffff16906020019092919080359060200190929190505050611a28565b604051808215151515815260200191505060405180910390f35b6106aa611c75565b6040518082815260200191505060405180910390f35b6106ec600480360360208110156106d657600080fd5b8101908080359060200190929190505050611c7b565b005b6106f6611e15565b6040518082815260200191505060405180910390f35b610714611e3c565b604051808260ff1660ff16815260200191505060405180910390f35b610738611e41565b6040518082815260200191505060405180910390f35b61077a6004803603602081101561076457600080fd5b8101908080359060200190929190505050611e47565b005b61078461207f565b6040518082815260200191505060405180910390f35b6107a2612085565b6040518082815260200191505060405180910390f35b6107e4600480360360208110156107ce57600080fd5b810190808035906020019092919050505061208b565b005b6107ee6123a9565b005b61083c6004803603604081101561080657600080fd5b81019080803573ffffffffffffffffffffffffffffffffffffffff16906020019092919080359060200190929190505050612476565b005b61084661264e565b6040518082815260200191505060405180910390f35b6108886004803603602081101561087257600080fd5b8101908080359060200190929190505050612654565b005b61089261281a565b6040518082815260200191505060405180910390f35b6108b061284b565b6040518082815260200191505060405180910390f35b6108ce612973565b604051808215151515815260200191505060405180910390f35b610934600480360360408110156108fe57600080fd5b81019080803573ffffffffffffffffffffffffffffffffffffffff16906020019092919080359060200190929190505050612989565b005b61093e612b98565b6040518082815260200191505060405180910390f35b610bd760048036036101e081101561096b57600080fd5b810190808035906020019064010000000081111561098857600080fd5b82018360208201111561099a57600080fd5b803590602001918460018302840111640100000000831117156109bc57600080fd5b91908080601f016020809104026020016040519081016040528093929190818152602001838380828437600081840152601f19601f82011690508083019250505050505050919291929080359060200190640100000000811115610a1f57600080fd5b820183602082011115610a3157600080fd5b80359060200191846001830284011164010000000083111715610a5357600080fd5b91908080601f016020809104026020016040519081016040528093929190818152602001838380828437600081840152601f19601f820116905080830192505050505050509192919290803573ffffffffffffffffffffffffffffffffffffffff169060200190929190803573ffffffffffffffffffffffffffffffffffffffff169060200190929190803573ffffffffffffffffffffffffffffffffffffffff169060200190929190803573ffffffffffffffffffffffffffffffffffffffff169060200190929190803573ffffffffffffffffffffffffffffffffffffffff169060200190929190803573ffffffffffffffffffffffffffffffffffffffff169060200190929190803573ffffffffffffffffffffffffffffffffffffffff169060200190929190803573ffffffffffffffffffffffffffffffffffffffff1690602001909291908035906020019092919080359060200190929190803590602001909291908035906020019092919080359060200190929190505050612c55565b005b610be16131a0565b6040518082815260200191505060405180910390f35b610c3960048036036020811015610c0d57600080fd5b81019080803573ffffffffffffffffffffffffffffffffffffffff1690602001909291905050506131a6565b6040518082815260200191505060405180910390f35b610c576131be565b6040518082815260200191505060405180910390f35b610caf60048036036020811015610c8357600080fd5b81019080803573ffffffffffffffffffffffffffffffffffffffff1690602001909291905050506131c4565b6040518082815260200191505060405180910390f35b610ccd6131dc565b005b610cd76132a9565b604051808273ffffffffffffffffffffffffffffffffffffffff1673ffffffffffffffffffffffffffffffffffffffff16815260200191505060405180910390f35b610d216132cf565b604051808273ffffffffffffffffffffffffffffffffffffffff1673ffffffffffffffffffffffffffffffffffffffff16815260200191505060405180910390f35b610d6b6132f5565b6040518080602001828103825283818151815260200191508051906020019080838360005b83811015610dab578082015181840152602081019050610d90565b50505050905090810190601f168015610dd85780820380516001836020036101000a031916815260200191505b509250505060405180910390f35b610dee613393565b6040518082815260200191505060405180910390f35b610e3060048036036020811015610e1a57600080fd5b81019080803590602001909291905050506133ad565b005b610e3a6134fa565b6040518082815260200191505060405180910390f35b610e9c60048036036040811015610e6657600080fd5b81019080803573ffffffffffffffffffffffffffffffffffffffff16906020019092919080359060200190929190505050613532565b604051808215151515815260200191505060405180910390f35b610ebe6135cb565b6040518082815260200191505060405180910390f35b610f1660048036036020811015610eea57600080fd5b81019080803573ffffffffffffffffffffffffffffffffffffffff1690602001909291905050506135d1565b005b610f5a60048036036020811015610f2e57600080fd5b81019080803573ffffffffffffffffffffffffffffffffffffffff1690602001909291905050506137f7565b005b610f8860048036036020811015610f7257600080fd5b81019080803590602001909291905050506139ca565b005b610f92613b1e565b6040518082815260200191505060405180910390f35b610fb0613b24565b6040518082815260200191505060405180910390f35b610fce613b2a565b6040518082815260200191505060405180910390f35b610fec613b30565b604051808273ffffffffffffffffffffffffffffffffffffffff1673ffffffffffffffffffffffffffffffffffffffff16815260200191505060405180910390f35b611036613b56565b604051808273ffffffffffffffffffffffffffffffffffffffff1673ffffffffffffffffffffffffffffffffffffffff16815260200191505060405180910390f35b611080613b7c565b6040518082815260200191505060405180910390f35b6110e2600480360360408110156110ac57600080fd5b81019080803573ffffffffffffffffffffffffffffffffffffffff16906020019092919080359060200190929190505050613b82565b005b6110ec613c74565b604051808273ffffffffffffffffffffffffffffffffffffffff1673ffffffffffffffffffffffffffffffffffffffff16815260200191505060405180910390f35b6111c5600480360360e081101561114457600080fd5b81019080803573ffffffffffffffffffffffffffffffffffffffff169060200190929190803573ffffffffffffffffffffffffffffffffffffffff1690602001909291908035906020019092919080359060200190929190803560ff1690602001909291908035906020019092919080359060200190929190505050613c9a565b005b6111f3600480360360208110156111dd57600080fd5b8101908080359060200190929190505050613fde565b005b6111fd6141a3565b6040518082815260200191505060405180910390f35b6112756004803603604081101561122957600080fd5b81019080803573ffffffffffffffffffffffffffffffffffffffff169060200190929190803573ffffffffffffffffffffffffffffffffffffffff1690602001909291905050506141a9565b6040518082815260200191505060405180910390f35b6112936141ce565b604051808273ffffffffffffffffffffffffffffffffffffffff1673ffffffffffffffffffffffffffffffffffffffff16815260200191505060405180910390f35b611317600480360360208110156112eb57600080fd5b81019080803573ffffffffffffffffffffffffffffffffffffffff1690602001909291905050506141f4565b005b61132161441a565b6040518082815260200191505060405180910390f35b61133f614420565b6040518082815260200191505060405180910390f35b600080600d60009054906101000a900473ffffffffffffffffffffffffffffffffffffffff1673ffffffffffffffffffffffffffffffffffffffff1663a8ad52d16040518163ffffffff1660e01b815260040160206040518083038186803b1580156113c057600080fd5b505afa1580156113d4573d6000803e3d6000fd5b505050506040513d60208110156113ea57600080fd5b81019080805190602001909291905050509050600081146114b9576000670de0b6b3a7640000905060006103e8905060006114566103e86114488461143a87600e5461444890919063ffffffff16565b6144ce90919063ffffffff16565b6144ce90919063ffffffff16565b9050600061149685611488620f424061147a6010548761444890919063ffffffff16565b6144ce90919063ffffffff16565b6144ce90919063ffffffff16565b90506114ad610e10826144ce90919063ffffffff16565b955050505050506114bf565b60009150505b90565b60018054600181600116156101000203166002900480601f0160208091040260200160405190810160405280929190818152602001828054600181600116156101000203166002900480156115585780601f1061152d57610100808354040283529160200191611558565b820191906000526020600020905b81548152906001019060200180831161153b57829003601f168201915b505050505081565b600a60009054906101000a900473ffffffffffffffffffffffffffffffffffffffff1681565b6000611593338484614518565b6001905092915050565b600b60009054906101000a900473ffffffffffffffffffffffffffffffffffffffff1681565b600073ffffffffffffffffffffffffffffffffffffffff168273ffffffffffffffffffffffffffffffffffffffff161415611666576040517f08c379a00000000000000000000000000000000000000000000000000000000081526004018080602001828103825260168152602001807f746f20697320746865207a65726f20616464726573730000000000000000000081525060200191505060405180910390fd5b600b60009054906101000a900473ffffffffffffffffffffffffffffffffffffffff1673ffffffffffffffffffffffffffffffffffffffff163373ffffffffffffffffffffffffffffffffffffffff16148061170f5750600c60009054906101000a900473ffffffffffffffffffffffffffffffffffffffff1673ffffffffffffffffffffffffffffffffffffffff163373ffffffffffffffffffffffffffffffffffffffff16145b611781576040517f08c379a000000000000000000000000000000000000000000000000000000000815260040180806020018281038252600e8152602001807f4e6f207065726d697373696f6e7300000000000000000000000000000000000081525060200191505060405180910390fd5b6117ce8282601960009054906101000a900473ffffffffffffffffffffffffffffffffffffffff1673ffffffffffffffffffffffffffffffffffffffff166146039092919063ffffffff16565b5050565b60115481565b600960009054906101000a900473ffffffffffffffffffffffffffffffffffffffff1673ffffffffffffffffffffffffffffffffffffffff163373ffffffffffffffffffffffffffffffffffffffff161461189b576040517f08c379a000000000000000000000000000000000000000000000000000000000815260040180806020018281038252600c8152602001807f21706172616d536574746572000000000000000000000000000000000000000081525060200191505060405180910390fd5b806014541415611913576040517f08c379a00000000000000000000000000000000000000000000000000000000081526004018080602001828103825260158152602001807f73616d6520776f726b696e6748617368526174652e000000000000000000000081525060200191505060405180910390fd5b600f5442111561193357611925612b98565b601381905550426016819055505b8060148190555061194261194b565b50565b60035481565b600f544211156119665761195d6146d4565b6119656147af565b5b600060185490506000611977611355565b9050600061198361284b565b9050818111156119d95760006119a2838361488a90919063ffffffff16565b90506119cd6015546119bf6014548461444890919063ffffffff16565b6144ce90919063ffffffff16565b601881905550506119e2565b60006018819055505b7fbcdc19a9d06e9389ef3cac53244ab619448a240601652339b4adf14f6a844c2b83601854604051808381526020018281526020019250505060405180910390a1505050565b60008060009054906101000a900460ff1615611aac576040517f08c379a00000000000000000000000000000000000000000000000000000000081526004018080602001828103825260108152602001807f5061757361626c653a207061757365640000000000000000000000000000000081525060200191505060405180910390fd5b7fffffffffffffffffffffffffffffffffffffffffffffffffffffffffffffffff600560008673ffffffffffffffffffffffffffffffffffffffff1673ffffffffffffffffffffffffffffffffffffffff16815260200190815260200160002060003373ffffffffffffffffffffffffffffffffffffffff1673ffffffffffffffffffffffffffffffffffffffff1681526020019081526020016000205414611c5f57611bde82600560008773ffffffffffffffffffffffffffffffffffffffff1673ffffffffffffffffffffffffffffffffffffffff16815260200190815260200160002060003373ffffffffffffffffffffffffffffffffffffffff1673ffffffffffffffffffffffffffffffffffffffff1681526020019081526020016000205461488a90919063ffffffff16565b600560008673ffffffffffffffffffffffffffffffffffffffff1673ffffffffffffffffffffffffffffffffffffffff16815260200190815260200160002060003373ffffffffffffffffffffffffffffffffffffffff1673ffffffffffffffffffffffffffffffffffffffff168152602001908152602001600020819055505b611c6a8484846148d4565b600190509392505050565b601c5481565b600960009054906101000a900473ffffffffffffffffffffffffffffffffffffffff1673ffffffffffffffffffffffffffffffffffffffff163373ffffffffffffffffffffffffffffffffffffffff1614611d3e576040517f08c379a000000000000000000000000000000000000000000000000000000000815260040180806020018281038252600c8152602001807f21706172616d536574746572000000000000000000000000000000000000000081525060200191505060405180910390fd5b60008111611db4576040517f08c379a00000000000000000000000000000000000000000000000000000000081526004018080602001828103825260148152602001807f68617368526174652063616e6e6f74206265203000000000000000000000000081525060200191505060405180910390fd5b611df1611de0601454611dd26015548561444890919063ffffffff16565b6144ce90919063ffffffff16565b601554614a6890919063ffffffff16565b601581905550611e0c81601454614a6890919063ffffffff16565b60148190555050565b7f6e71edae12b1b97f4d1f60370fef10105fa2faae0126114a169c64845d6126c960001b81565b601281565b601d5481565b600960009054906101000a900473ffffffffffffffffffffffffffffffffffffffff1673ffffffffffffffffffffffffffffffffffffffff163373ffffffffffffffffffffffffffffffffffffffff1614611f0a576040517f08c379a000000000000000000000000000000000000000000000000000000000815260040180806020018281038252600c8152602001807f21706172616d536574746572000000000000000000000000000000000000000081525060200191505060405180910390fd5b80600f541415611f82576040517f08c379a00000000000000000000000000000000000000000000000000000000081526004018080602001828103825260158152602001807f73616d652073746172744d696e696e6754696d652e000000000000000000000081525060200191505060405180910390fd5b42600f5411611ff9576040517f08c379a00000000000000000000000000000000000000000000000000000000081526004018080602001828103825260158152602001807f616c7265616479207374617274206d696e696e672e000000000000000000000081525060200191505060405180910390fd5b42811161206e576040517f08c379a00000000000000000000000000000000000000000000000000000000081526004018080602001828103825260198152602001807f6e6f6e6c6567616c2073746172744d696e696e6754696d652e0000000000000081525060200191505060405180910390fd5b80600f819055508060168190555050565b60065481565b601b5481565b600860019054906101000a900473ffffffffffffffffffffffffffffffffffffffff1673ffffffffffffffffffffffffffffffffffffffff163373ffffffffffffffffffffffffffffffffffffffff161461214e576040517f08c379a00000000000000000000000000000000000000000000000000000000081526004018080602001828103825260068152602001807f216f776e6572000000000000000000000000000000000000000000000000000081525060200191505060405180910390fd5b612156614af0565b61215e614bcb565b601c5442106121875761217c601b54826144ce90919063ffffffff16565b601a819055506121e9565b600061219e42601c5461488a90919063ffffffff16565b905060006121b7601a548361444890919063ffffffff16565b90506121e0601b546121d28386614a6890919063ffffffff16565b6144ce90919063ffffffff16565b601a8190555050505b6000601960009054906101000a900473ffffffffffffffffffffffffffffffffffffffff1673ffffffffffffffffffffffffffffffffffffffff166370a08231306040518263ffffffff1660e01b8152600401808273ffffffffffffffffffffffffffffffffffffffff1673ffffffffffffffffffffffffffffffffffffffff16815260200191505060206040518083038186803b15801561228a57600080fd5b505afa15801561229e573d6000803e3d6000fd5b505050506040513d60208110156122b457600080fd5b810190808051906020019092919050505090506122dc601b54826144ce90919063ffffffff16565b601a541115612353576040517f08c379a00000000000000000000000000000000000000000000000000000000081526004018080602001828103825260188152602001807f50726f76696465642072657761726420746f6f2068696768000000000000000081525060200191505060405180910390fd5b612368601b5442614a6890919063ffffffff16565b601c819055507fde88a922e0d3b88b24e9623efeb464919c6bf9f66857a65e2bfcf2ce87a9433d826040518082815260200191505060405180910390a15050565b600860019054906101000a900473ffffffffffffffffffffffffffffffffffffffff1673ffffffffffffffffffffffffffffffffffffffff163373ffffffffffffffffffffffffffffffffffffffff161461246c576040517f08c379a00000000000000000000000000000000000000000000000000000000081526004018080602001828103825260068152602001807f216f776e6572000000000000000000000000000000000000000000000000000081525060200191505060405180910390fd5b612474614ca6565b565b6000809054906101000a900460ff16156124f8576040517f08c379a00000000000000000000000000000000000000000000000000000000081526004018080602001828103825260108152602001807f5061757361626c653a207061757365640000000000000000000000000000000081525060200191505060405180910390fd5b600a60009054906101000a900473ffffffffffffffffffffffffffffffffffffffff1673ffffffffffffffffffffffffffffffffffffffff163373ffffffffffffffffffffffffffffffffffffffff16146125bb576040517f08c379a00000000000000000000000000000000000000000000000000000000081526004018080602001828103825260078152602001807f216d696e7465720000000000000000000000000000000000000000000000000081525060200191505060405180910390fd5b6125c36134fa565b811115612638576040517f08c379a00000000000000000000000000000000000000000000000000000000081526004018080602001828103825260168152602001807f6e6f742073756666696369656e7420737570706c792e0000000000000000000081525060200191505060405180910390fd5b6126428282614cee565b61264a6147af565b5050565b60145481565b600960009054906101000a900473ffffffffffffffffffffffffffffffffffffffff1673ffffffffffffffffffffffffffffffffffffffff163373ffffffffffffffffffffffffffffffffffffffff1614612717576040517f08c379a000000000000000000000000000000000000000000000000000000000815260040180806020018281038252600c8152602001807f21706172616d536574746572000000000000000000000000000000000000000081525060200191505060405180910390fd5b80601254141561278f576040517f08c379a000000000000000000000000000000000000000000000000000000000815260040180806020018281038252601b8152602001807f73616d6520646570726563696174696f6e4e756d657261746f722e000000000081525060200191505060405180910390fd5b620f4240811115612808576040517f08c379a00000000000000000000000000000000000000000000000000000000081526004018080602001828103825260168152602001807f6e6f6e6c6567616c20646570726563696174696f6e2e0000000000000000000081525060200191505060405180910390fd5b8060128190555061281761194b565b50565b60006128466064612838601d54601a5461444890919063ffffffff16565b6144ce90919063ffffffff16565b905090565b600080620f4240905060008090506000600d60009054906101000a900473ffffffffffffffffffffffffffffffffffffffff1673ffffffffffffffffffffffffffffffffffffffff16634747109b6040518163ffffffff1660e01b815260040160206040518083038186803b1580156128c357600080fd5b505afa1580156128d7573d6000803e3d6000fd5b505050506040513d60208110156128ed57600080fd5b810190808051906020019092919050505090506129398361292b61291c6011548761488a90919063ffffffff16565b8461444890919063ffffffff16565b6144ce90919063ffffffff16565b91505060008090506129688361295a6012548561444890919063ffffffff16565b6144ce90919063ffffffff16565b905080935050505090565b60008060009054906101000a900460ff16905090565b600073ffffffffffffffffffffffffffffffffffffffff168273ffffffffffffffffffffffffffffffffffffffff161415612a2c576040517f08c379a00000000000000000000000000000000000000000000000000000000081526004018080602001828103825260168152602001807f746f20697320746865207a65726f20616464726573730000000000000000000081525060200191505060405180910390fd5b600b60009054906101000a900473ffffffffffffffffffffffffffffffffffffffff1673ffffffffffffffffffffffffffffffffffffffff163373ffffffffffffffffffffffffffffffffffffffff161480612ad55750600c60009054906101000a900473ffffffffffffffffffffffffffffffffffffffff1673ffffffffffffffffffffffffffffffffffffffff163373ffffffffffffffffffffffffffffffffffffffff16145b612b47576040517f08c379a000000000000000000000000000000000000000000000000000000000815260040180806020018281038252600e8152602001807f4e6f207065726d697373696f6e7300000000000000000000000000000000000081525060200191505060405180910390fd5b612b948282601760009054906101000a900473ffffffffffffffffffffffffffffffffffffffff1673ffffffffffffffffffffffffffffffffffffffff166146039092919063ffffffff16565b5050565b6000600f54421115612c4d576000612bbb6016544261488a90919063ffffffff16565b90506000612c15612bdc612bcd613393565b8461444890919063ffffffff16565b612c07601354612bf9600f5460165461488a90919063ffffffff16565b61444890919063ffffffff16565b614a6890919063ffffffff16565b90506000612c2e600f544261488a90919063ffffffff16565b9050612c4381836144ce90919063ffffffff16565b9350505050612c52565b600090505b90565b600860009054906101000a900460ff1615612cd8576040517f08c379a00000000000000000000000000000000000000000000000000000000081526004018080602001828103825260198152602001807f546f6b656e20616c726561647920696e697469616c697a65640000000000000081525060200191505060405180910390fd5b600073ffffffffffffffffffffffffffffffffffffffff168d73ffffffffffffffffffffffffffffffffffffffff161415612d7b576040517f08c379a000000000000000000000000000000000000000000000000000000000815260040180806020018281038252601d8152602001807f6e6577206f776e657220697320746865207a65726f206164647265737300000081525060200191505060405180910390fd5b600073ffffffffffffffffffffffffffffffffffffffff168c73ffffffffffffffffffffffffffffffffffffffff161415612e1e576040517f08c379a00000000000000000000000000000000000000000000000000000000081526004018080602001828103825260208152602001807f5f706172616d53657474657220697320746865207a65726f206164647265737381525060200191505060405180910390fd5b428411612e93576040517f08c379a00000000000000000000000000000000000000000000000000000000081526004018080602001828103825260198152602001807f6e6f6e6c6567616c2073746172744d696e696e6754696d652e0000000000000081525060200191505060405180910390fd5b620f42408210612f0b576040517f08c379a000000000000000000000000000000000000000000000000000000000815260040180806020018281038252601f8152602001807f6e6f6e6c6567616c206d696e6572506f6f6c4665654e756d657261746f722e0081525060200191505060405180910390fd5b6001600860006101000a81548160ff021916908315150217905550612f308f8f614e08565b8c600860016101000a81548173ffffffffffffffffffffffffffffffffffffffff021916908373ffffffffffffffffffffffffffffffffffffffff1602179055508b600960006101000a81548173ffffffffffffffffffffffffffffffffffffffff021916908373ffffffffffffffffffffffffffffffffffffffff1602179055508a600b60006101000a81548173ffffffffffffffffffffffffffffffffffffffff021916908373ffffffffffffffffffffffffffffffffffffffff16021790555089600c60006101000a81548173ffffffffffffffffffffffffffffffffffffffff021916908373ffffffffffffffffffffffffffffffffffffffff16021790555088600a60006101000a81548173ffffffffffffffffffffffffffffffffffffffff021916908373ffffffffffffffffffffffffffffffffffffffff16021790555087600d60006101000a81548173ffffffffffffffffffffffffffffffffffffffff021916908373ffffffffffffffffffffffffffffffffffffffff16021790555086601760006101000a81548173ffffffffffffffffffffffffffffffffffffffff021916908373ffffffffffffffffffffffffffffffffffffffff16021790555085601960006101000a81548173ffffffffffffffffffffffffffffffffffffffff021916908373ffffffffffffffffffffffffffffffffffffffff16021790555084600e8190555083600f8190555082601081905550816011819055508060158190555062278d00601b819055506014601d81905550620f424060128190555080601481905550600f5460168190555061318f61194b565b505050505050505050505050505050565b60105481565b60046020528060005260406000206000915090505481565b601a5481565b60076020528060005260406000206000915090505481565b600860019054906101000a900473ffffffffffffffffffffffffffffffffffffffff1673ffffffffffffffffffffffffffffffffffffffff163373ffffffffffffffffffffffffffffffffffffffff161461329f576040517f08c379a00000000000000000000000000000000000000000000000000000000081526004018080602001828103825260068152602001807f216f776e6572000000000000000000000000000000000000000000000000000081525060200191505060405180910390fd5b6132a7614f76565b565b600860019054906101000a900473ffffffffffffffffffffffffffffffffffffffff1681565b600c60009054906101000a900473ffffffffffffffffffffffffffffffffffffffff1681565b60028054600181600116156101000203166002900480601f01602080910402602001604051908101604052809291908181526020018280546001816001161561010002031660029004801561338b5780601f106133605761010080835404028352916020019161338b565b820191906000526020600020905b81548152906001019060200180831161336e57829003601f168201915b505050505081565b6000601554601454620f424002816133a757fe5b04905090565b600960009054906101000a900473ffffffffffffffffffffffffffffffffffffffff1673ffffffffffffffffffffffffffffffffffffffff163373ffffffffffffffffffffffffffffffffffffffff1614613470576040517f08c379a000000000000000000000000000000000000000000000000000000000815260040180806020018281038252600c8152602001807f21706172616d536574746572000000000000000000000000000000000000000081525060200191505060405180910390fd5b8060105414156134e8576040517f08c379a00000000000000000000000000000000000000000000000000000000081526004018080602001828103825260148152602001807f73616d6520656c6563747269634368617267652e00000000000000000000000081525060200191505060405180910390fd5b806010819055506134f761194b565b50565b600061352d60035461351f670de0b6b3a764000060155461444890919063ffffffff16565b61488a90919063ffffffff16565b905090565b60008060009054906101000a900460ff16156135b6576040517f08c379a00000000000000000000000000000000000000000000000000000000081526004018080602001828103825260108152602001807f5061757361626c653a207061757365640000000000000000000000000000000081525060200191505060405180910390fd5b6135c13384846148d4565b6001905092915050565b60185481565b600860019054906101000a900473ffffffffffffffffffffffffffffffffffffffff1673ffffffffffffffffffffffffffffffffffffffff163373ffffffffffffffffffffffffffffffffffffffff1614613694576040517f08c379a00000000000000000000000000000000000000000000000000000000081526004018080602001828103825260068152602001807f216f776e6572000000000000000000000000000000000000000000000000000081525060200191505060405180910390fd5b600073ffffffffffffffffffffffffffffffffffffffff168173ffffffffffffffffffffffffffffffffffffffff161415613737576040517f08c379a00000000000000000000000000000000000000000000000000000000081526004018080602001828103825260208152602001807f706172616d2073657474657220697320746865207a65726f206164647265737381525060200191505060405180910390fd5b8073ffffffffffffffffffffffffffffffffffffffff16600960009054906101000a900473ffffffffffffffffffffffffffffffffffffffff1673ffffffffffffffffffffffffffffffffffffffff167fbdb27c45e7cebea53416bc78c5bfc5014c1efa4cfd3a2cc9398aeb9aaa617fb560405160405180910390a380600960006101000a81548173ffffffffffffffffffffffffffffffffffffffff021916908373ffffffffffffffffffffffffffffffffffffffff16021790555050565b600960009054906101000a900473ffffffffffffffffffffffffffffffffffffffff1673ffffffffffffffffffffffffffffffffffffffff163373ffffffffffffffffffffffffffffffffffffffff16146138ba576040517f08c379a000000000000000000000000000000000000000000000000000000000815260040180806020018281038252600c8152602001807f21706172616d536574746572000000000000000000000000000000000000000081525060200191505060405180910390fd5b8073ffffffffffffffffffffffffffffffffffffffff16600d60009054906101000a900473ffffffffffffffffffffffffffffffffffffffff1673ffffffffffffffffffffffffffffffffffffffff16141561397e576040517f08c379a000000000000000000000000000000000000000000000000000000000815260040180806020018281038252600e8152602001807f73616d6520627463506172616d2e00000000000000000000000000000000000081525060200191505060405180910390fd5b80600d60006101000a81548173ffffffffffffffffffffffffffffffffffffffff021916908373ffffffffffffffffffffffffffffffffffffffff1602179055506139c761194b565b50565b600860019054906101000a900473ffffffffffffffffffffffffffffffffffffffff1673ffffffffffffffffffffffffffffffffffffffff163373ffffffffffffffffffffffffffffffffffffffff1614613a8d576040517f08c379a00000000000000000000000000000000000000000000000000000000081526004018080602001828103825260068152602001807f216f776e6572000000000000000000000000000000000000000000000000000081525060200191505060405180910390fd5b6064811115613b04576040517f08c379a000000000000000000000000000000000000000000000000000000000815260040180806020018281038252601b8152602001807f696c6c6567616c205f7374616b696e67526577617264526174696f000000000081525060200191505060405180910390fd5b613b0c614af0565b613b14614bcb565b80601d8190555050565b600f5481565b600e5481565b60165481565b600d60009054906101000a900473ffffffffffffffffffffffffffffffffffffffff1681565b601760009054906101000a900473ffffffffffffffffffffffffffffffffffffffff1681565b60135481565b600860019054906101000a900473ffffffffffffffffffffffffffffffffffffffff1673ffffffffffffffffffffffffffffffffffffffff163373ffffffffffffffffffffffffffffffffffffffff1614613c45576040517f08c379a00000000000000000000000000000000000000000000000000000000081526004018080602001828103825260068152602001807f216f776e6572000000000000000000000000000000000000000000000000000081525060200191505060405180910390fd5b613c7033828473ffffffffffffffffffffffffffffffffffffffff166146039092919063ffffffff16565b5050565b601960009054906101000a900473ffffffffffffffffffffffffffffffffffffffff1681565b42841015613d10576040517f08c379a00000000000000000000000000000000000000000000000000000000081526004018080602001828103825260168152602001807f486173685261746545524332303a20455850495245440000000000000000000081525060200191505060405180910390fd5b60006006547f6e71edae12b1b97f4d1f60370fef10105fa2faae0126114a169c64845d6126c960001b898989600760008e73ffffffffffffffffffffffffffffffffffffffff1673ffffffffffffffffffffffffffffffffffffffff1681526020019081526020016000206000815480929190600101919050558a604051602001808781526020018673ffffffffffffffffffffffffffffffffffffffff1673ffffffffffffffffffffffffffffffffffffffff1681526020018573ffffffffffffffffffffffffffffffffffffffff1673ffffffffffffffffffffffffffffffffffffffff16815260200184815260200183815260200182815260200196505050505050506040516020818303038152906040528051906020012060405160200180807f190100000000000000000000000000000000000000000000000000000000000081525060020183815260200182815260200192505050604051602081830303815290604052805190602001209050600060018286868660405160008152602001604052604051808581526020018460ff1660ff1681526020018381526020018281526020019450505050506020604051602081039080840390855afa158015613ee2573d6000803e3d6000fd5b505050602060405103519050600073ffffffffffffffffffffffffffffffffffffffff168173ffffffffffffffffffffffffffffffffffffffff1614158015613f5657508873ffffffffffffffffffffffffffffffffffffffff168173ffffffffffffffffffffffffffffffffffffffff16145b613fc8576040517f08c379a00000000000000000000000000000000000000000000000000000000081526004018080602001828103825260208152602001807f486173685261746545524332303a20494e56414c49445f5349474e415455524581525060200191505060405180910390fd5b613fd3898989614518565b505050505050505050565b600960009054906101000a900473ffffffffffffffffffffffffffffffffffffffff1673ffffffffffffffffffffffffffffffffffffffff163373ffffffffffffffffffffffffffffffffffffffff16146140a1576040517f08c379a000000000000000000000000000000000000000000000000000000000815260040180806020018281038252600c8152602001807f21706172616d536574746572000000000000000000000000000000000000000081525060200191505060405180910390fd5b806011541415614119576040517f08c379a00000000000000000000000000000000000000000000000000000000081526004018080602001828103825260128152602001807f73616d65206d696e6572506f6f6c4665652e000000000000000000000000000081525060200191505060405180910390fd5b620f42408110614191576040517f08c379a00000000000000000000000000000000000000000000000000000000081526004018080602001828103825260168152602001807f6e6f6e6c6567616c206d696e6572506f6f6c4665652e0000000000000000000081525060200191505060405180910390fd5b806011819055506141a061194b565b50565b60155481565b6005602052816000526040600020602052806000526040600020600091509150505481565b600960009054906101000a900473ffffffffffffffffffffffffffffffffffffffff1681565b600860019054906101000a900473ffffffffffffffffffffffffffffffffffffffff1673ffffffffffffffffffffffffffffffffffffffff163373ffffffffffffffffffffffffffffffffffffffff16146142b7576040517f08c379a00000000000000000000000000000000000000000000000000000000081526004018080602001828103825260068152602001807f216f776e6572000000000000000000000000000000000000000000000000000081525060200191505060405180910390fd5b600073ffffffffffffffffffffffffffffffffffffffff168173ffffffffffffffffffffffffffffffffffffffff16141561435a576040517f08c379a000000000000000000000000000000000000000000000000000000000815260040180806020018281038252601d8152602001807f6e6577206f776e657220697320746865207a65726f206164647265737300000081525060200191505060405180910390fd5b8073ffffffffffffffffffffffffffffffffffffffff16600860019054906101000a900473ffffffffffffffffffffffffffffffffffffffff1673ffffffffffffffffffffffffffffffffffffffff167f8be0079c531659141344cd1fd0a4f28419497f9722a3daafe3b4186f6b6457e060405160405180910390a380600860016101000a81548173ffffffffffffffffffffffffffffffffffffffff021916908373ffffffffffffffffffffffffffffffffffffffff16021790555050565b60125481565b60008061442b61281a565b905061444281601a5461488a90919063ffffffff16565b91505090565b60008083141561445b57600090506144c8565b600082840290508284828161446c57fe5b04146144c3576040517f08c379a00000000000000000000000000000000000000000000000000000000081526004018080602001828103825260218152602001806154d26021913960400191505060405180910390fd5b809150505b92915050565b600061451083836040518060400160405280601a81526020017f536166654d6174683a206469766973696f6e206279207a65726f000000000000815250614fbe565b905092915050565b80600560008573ffffffffffffffffffffffffffffffffffffffff1673ffffffffffffffffffffffffffffffffffffffff16815260200190815260200160002060008473ffffffffffffffffffffffffffffffffffffffff1673ffffffffffffffffffffffffffffffffffffffff168152602001908152602001600020819055508173ffffffffffffffffffffffffffffffffffffffff168373ffffffffffffffffffffffffffffffffffffffff167f8c5be1e5ebec7d5bd14f71427d1e84f3dd0314c0f7b2291e5b200ac8c7c3b925836040518082815260200191505060405180910390a3505050565b6146cf838473ffffffffffffffffffffffffffffffffffffffff1663a9059cbb905060e01b8484604051602401808373ffffffffffffffffffffffffffffffffffffffff1673ffffffffffffffffffffffffffffffffffffffff16815260200182815260200192505050604051602081830303815290604052907bffffffffffffffffffffffffffffffffffffffffffffffffffffffff19166020820180517bffffffffffffffffffffffffffffffffffffffffffffffffffffffff8381831617835250505050615084565b505050565b600073ffffffffffffffffffffffffffffffffffffffff16600b60009054906101000a900473ffffffffffffffffffffffffffffffffffffffff1673ffffffffffffffffffffffffffffffffffffffff16146147ad57600b60009054906101000a900473ffffffffffffffffffffffffffffffffffffffff1673ffffffffffffffffffffffffffffffffffffffff1663f11316366040518163ffffffff1660e01b8152600401600060405180830381600087803b15801561479457600080fd5b505af11580156147a8573d6000803e3d6000fd5b505050505b565b600073ffffffffffffffffffffffffffffffffffffffff16600c60009054906101000a900473ffffffffffffffffffffffffffffffffffffffff1673ffffffffffffffffffffffffffffffffffffffff161461488857600c60009054906101000a900473ffffffffffffffffffffffffffffffffffffffff1673ffffffffffffffffffffffffffffffffffffffff166347aec8366040518163ffffffff1660e01b8152600401600060405180830381600087803b15801561486f57600080fd5b505af1158015614883573d6000803e3d6000fd5b505050505b565b60006148cc83836040518060400160405280601e81526020017f536166654d6174683a207375627472616374696f6e206f766572666c6f7700008152506152cf565b905092915050565b61492681600460008673ffffffffffffffffffffffffffffffffffffffff1673ffffffffffffffffffffffffffffffffffffffff1681526020019081526020016000205461488a90919063ffffffff16565b600460008573ffffffffffffffffffffffffffffffffffffffff1673ffffffffffffffffffffffffffffffffffffffff168152602001908152602001600020819055506149bb81600460008573ffffffffffffffffffffffffffffffffffffffff1673ffffffffffffffffffffffffffffffffffffffff16815260200190815260200160002054614a6890919063ffffffff16565b600460008473ffffffffffffffffffffffffffffffffffffffff1673ffffffffffffffffffffffffffffffffffffffff168152602001908152602001600020819055508173ffffffffffffffffffffffffffffffffffffffff168373ffffffffffffffffffffffffffffffffffffffff167fddf252ad1be2c89b69c2b068fc378daa952ba7f163c4a11628f55a4df523b3ef836040518082815260200191505060405180910390a3505050565b600080828401905083811015614ae6576040517f08c379a000000000000000000000000000000000000000000000000000000000815260040180806020018281038252601b8152602001807f536166654d6174683a206164646974696f6e206f766572666c6f77000000000081525060200191505060405180910390fd5b8091505092915050565b600073ffffffffffffffffffffffffffffffffffffffff16600b60009054906101000a900473ffffffffffffffffffffffffffffffffffffffff1673ffffffffffffffffffffffffffffffffffffffff1614614bc957600b60009054906101000a900473ffffffffffffffffffffffffffffffffffffffff1673ffffffffffffffffffffffffffffffffffffffff166390d093696040518163ffffffff1660e01b8152600401600060405180830381600087803b158015614bb057600080fd5b505af1158015614bc4573d6000803e3d6000fd5b505050505b565b600073ffffffffffffffffffffffffffffffffffffffff16600c60009054906101000a900473ffffffffffffffffffffffffffffffffffffffff1673ffffffffffffffffffffffffffffffffffffffff1614614ca457600c60009054906101000a900473ffffffffffffffffffffffffffffffffffffffff1673ffffffffffffffffffffffffffffffffffffffff1663a52994e76040518163ffffffff1660e01b8152600401600060405180830381600087803b158015614c8b57600080fd5b505af1158015614c9f573d6000803e3d6000fd5b505050505b565b60008060006101000a81548160ff0219169083151502179055507fa45f47fdea8a1efdd9029a5691c7f759c32b7c698632b563573e155625d1693360405160405180910390a1565b614d0381600354614a6890919063ffffffff16565b600381905550614d5b81600460008573ffffffffffffffffffffffffffffffffffffffff1673ffffffffffffffffffffffffffffffffffffffff16815260200190815260200160002054614a6890919063ffffffff16565b600460008473ffffffffffffffffffffffffffffffffffffffff1673ffffffffffffffffffffffffffffffffffffffff168152602001908152602001600020819055508173ffffffffffffffffffffffffffffffffffffffff16600073ffffffffffffffffffffffffffffffffffffffff167fddf252ad1be2c89b69c2b068fc378daa952ba7f163c4a11628f55a4df523b3ef836040518082815260200191505060405180910390a35050565b8160019080519060200190614e1e9291906153da565b508060029080519060200190614e359291906153da565b5060004690506040518080615480605291396052019050604051809103902060016040518082805460018160011615610100020316600290048015614eb15780601f10614e8f576101008083540402835291820191614eb1565b820191906000526020600020905b815481529060010190602001808311614e9d575b505091505060405180910390206040518060400160405280600181526020017f3100000000000000000000000000000000000000000000000000000000000000815250805190602001208330604051602001808681526020018581526020018481526020018381526020018273ffffffffffffffffffffffffffffffffffffffff1673ffffffffffffffffffffffffffffffffffffffff1681526020019550505050505060405160208183030381529060405280519060200120600681905550505050565b60016000806101000a81548160ff0219169083151502179055507f9e87fac88ff661f02d44f95383c817fece4bce600a3dab7a54406878b965e75260405160405180910390a1565b6000808311829061506a576040517f08c379a00000000000000000000000000000000000000000000000000000000081526004018080602001828103825283818151815260200191508051906020019080838360005b8381101561502f578082015181840152602081019050615014565b50505050905090810190601f16801561505c5780820380516001836020036101000a031916815260200191505b509250505060405180910390fd5b50600083858161507657fe5b049050809150509392505050565b6150a38273ffffffffffffffffffffffffffffffffffffffff1661538f565b615115576040517f08c379a000000000000000000000000000000000000000000000000000000000815260040180806020018281038252601f8152602001807f5361666545524332303a2063616c6c20746f206e6f6e2d636f6e74726163740081525060200191505060405180910390fd5b600060608373ffffffffffffffffffffffffffffffffffffffff16836040518082805190602001908083835b602083106151645780518252602082019150602081019050602083039250615141565b6001836020036101000a0380198251168184511680821785525050505050509050019150506000604051808303816000865af19150503d80600081146151c6576040519150601f19603f3d011682016040523d82523d6000602084013e6151cb565b606091505b509150915081615243576040517f08c379a00000000000000000000000000000000000000000000000000000000081526004018080602001828103825260208152602001807f5361666545524332303a206c6f772d6c6576656c2063616c6c206661696c656481525060200191505060405180910390fd5b6000815111156152c95780806020019051602081101561526257600080fd5b81019080805190602001909291905050506152c8576040517f08c379a000000000000000000000000000000000000000000000000000000000815260040180806020018281038252602a8152602001806154f3602a913960400191505060405180910390fd5b5b50505050565b600083831115829061537c576040517f08c379a00000000000000000000000000000000000000000000000000000000081526004018080602001828103825283818151815260200191508051906020019080838360005b83811015615341578082015181840152602081019050615326565b50505050905090810190601f16801561536e5780820380516001836020036101000a031916815260200191505b509250505060405180910390fd5b5060008385039050809150509392505050565b60008060007fc5d2460186f7233c927e7db2dcc703c0e500b653ca82273b7bfad8045d85a47060001b9050833f91508082141580156153d157506000801b8214155b92505050919050565b828054600181600116156101000203166002900490600052602060002090601f016020900481019282601f1061541b57805160ff1916838001178555615449565b82800160010185558215615449579182015b8281111561544857825182559160200191906001019061542d565b5b509050615456919061545a565b5090565b61547c91905b80821115615478576000816000905550600101615460565b5090565b9056fe454950373132446f6d61696e28737472696e67206e616d652c737472696e672076657273696f6e2c75696e7432353620636861696e49642c6164647265737320766572696679696e67436f6e747261637429536166654d6174683a206d756c7469706c69636174696f6e206f766572666c6f775361666545524332303a204552433230206f7065726174696f6e20646964206e6f742073756363656564a265627a7a72315820bb0d826b05653ab9e6a72218bb3b1e6f99f02b4ec3ec1bfc18c86268def841c164736f6c63430005110032"}}