{
  "opcodeHash": "0xba43a31f979442f00c0f86d3317b4fec0a2b4e1496173a70aa4fb8661a690857",
  "metalessHash": "0x60202f22b9e4c05d034de204eba79c921ed63334faace3e0b1177f9b9793e8ed",
  "runtimeHash": "0xe7ae46b8fb934694cb81cc7449336c7ef739347218e469c237285fb7fa655904",
  "encodedMetadata": [
    {
      "ipfs": "/ipfs/QmaZ7yQ83vRrRNtB9qjnAYJojHC7DfCwSHNx1N5jtLo5ea",
      "solc": "0.8.6"
    }
  ],
  "abi": [
    {
      "inputs": [],
      "stateMutability": "nonpayable",
      "type": "constructor"
    },
    {
      "anonymous": false,
      "inputs": [
        {
          "indexed": true,
          "internalType": "address",
          "name": "owner",
          "type": "address"
        },
        {
          "indexed": true,
          "internalType": "address",
          "name": "spender",
          "type": "address"
        },
        {
          "indexed": false,
          "internalType": "uint256",
          "name": "value",
          "type": "uint256"
        }
      ],
      "name": "Approval",
      "type": "event"
    },
    {
      "anonymous": false,
      "inputs": [
        {
          "indexed": true,
          "internalType": "address",
          "name": "from",
          "type": "address"
        },
        {
          "indexed": true,
          "internalType": "address",
          "name": "to",
          "type": "address"
        },
        {
          "indexed": false,
          "internalType": "uint256",
          "name": "value",
          "type": "uint256"
        }
      ],
      "name": "Transfer",
      "type": "event"
    },
    {
      "inputs": [
        {
          "internalType": "address",
          "name": "owner",
          "type": "address"
        },
        {
          "internalType": "address",
          "name": "spender",
          "type": "address"
        }
      ],
      "name": "allowance",
      "outputs": [
        {
          "internalType": "uint256",
          "name": "",
          "type": "uint256"
        }
      ],
      "stateMutability": "view",
      "type": "function"
    },
    {
      "inputs": [
        {
          "internalType": "address",
          "name": "spender",
          "type": "address"
        },
        {
          "internalType": "uint256",
          "name": "amount",
          "type": "uint256"
        }
      ],
      "name": "approve",
      "outputs": [
        {
          "internalType": "bool",
          "name": "",
          "type": "bool"
        }
      ],
      "stateMutability": "nonpayable",
      "type": "function"
    },
    {
      "inputs": [
        {
          "internalType": "address",
          "name": "account",
          "type": "address"
        }
      ],
      "name": "balanceOf",
      "outputs": [
        {
          "internalType": "uint256",
          "name": "",
          "type": "uint256"
        }
      ],
      "stateMutability": "view",
      "type": "function"
    },
    {
      "inputs": [],
      "name": "cap",
      "outputs": [
        {
          "internalType": "uint256",
          "name": "",
          "type": "uint256"
        }
      ],
      "stateMutability": "view",
      "type": "function"
    },
    {
      "inputs": [],
      "name": "decimals",
      "outputs": [
        {
          "internalType": "uint8",
          "name": "",
          "type": "uint8"
        }
      ],
      "stateMutability": "view",
      "type": "function"
    },
    {
      "inputs": [
        {
          "internalType": "address",
          "name": "spender",
          "type": "address"
        },
        {
          "internalType": "uint256",
          "name": "subtractedValue",
          "type": "uint256"
        }
      ],
      "name": "decreaseAllowance",
      "outputs": [
        {
          "internalType": "bool",
          "name": "",
          "type": "bool"
        }
      ],
      "stateMutability": "nonpayable",
      "type": "function"
    },
    {
      "inputs": [
        {
          "internalType": "address",
          "name": "spender",
          "type": "address"
        },
        {
          "internalType": "uint256",
          "name": "addedValue",
          "type": "uint256"
        }
      ],
      "name": "increaseAllowance",
      "outputs": [
        {
          "internalType": "bool",
          "name": "",
          "type": "bool"
        }
      ],
      "stateMutability": "nonpayable",
      "type": "function"
    },
    {
      "inputs": [
        {
          "internalType": "address",
          "name": "_to",
          "type": "address"
        },
        {
          "internalType": "uint256",
          "name": "_amount",
          "type": "uint256"
        }
      ],
      "name": "mintAspenTokens",
      "outputs": [],
      "stateMutability": "nonpayable",
      "type": "function"
    },
    {
      "inputs": [],
      "name": "name",
      "outputs": [
        {
          "internalType": "string",
          "name": "",
          "type": "string"
        }
      ],
      "stateMutability": "view",
      "type": "function"
    },
    {
      "inputs": [],
      "name": "owner",
      "outputs": [
        {
          "internalType": "address",
          "name": "",
          "type": "address"
        }
      ],
      "stateMutability": "view",
      "type": "function"
    },
    {
      "inputs": [],
      "name": "symbol",
      "outputs": [
        {
          "internalType": "string",
          "name": "",
          "type": "string"
        }
      ],
      "stateMutability": "view",
      "type": "function"
    },
    {
      "inputs": [],
      "name": "totalSupply",
      "outputs": [
        {
          "internalType": "uint256",
          "name": "",
          "type": "uint256"
        }
      ],
      "stateMutability": "view",
      "type": "function"
    },
    {
      "inputs": [
        {
          "internalType": "address",
          "name": "recipient",
          "type": "address"
        },
        {
          "internalType": "uint256",
          "name": "amount",
          "type": "uint256"
        }
      ],
      "name": "transfer",
      "outputs": [
        {
          "internalType": "bool",
          "name": "",
          "type": "bool"
        }
      ],
      "stateMutability": "nonpayable",
      "type": "function"
    },
    {
      "inputs": [
        {
          "internalType": "address",
          "name": "sender",
          "type": "address"
        },
        {
          "internalType": "address",
          "name": "recipient",
          "type": "address"
        },
        {
          "internalType": "uint256",
          "name": "amount",
          "type": "uint256"
        }
      ],
      "name": "transferFrom",
      "outputs": [
        {
          "internalType": "bool",
          "name": "",
          "type": "bool"
        }
      ],
      "stateMutability": "nonpayable",
      "type": "function"
    }
  ],
  "bytecode": {
    "object": "60a06040526360da355a6005553480156200001957600080fd5b506302aea5406040518060400160405280600481526020017f74657374000000000000000000000000000000000000000000000000000000008152506040518060400160405280600481526020017f54455354000000000000000000000000000000000000000000000000000000008152508160039080519060200190620000a3929190620002d9565b508060049080519060200190620000bc929190620002d9565b5050506000811162000105576040517f08c379a0000000000000000000000000000000000000000000000000000000008152600401620000fc90620003e8565b60405180910390fd5b806080818152505050620001283362e4e1c06200016f60201b620008b61760201c565b33600660006101000a81548173ffffffffffffffffffffffffffffffffffffffff021916908373ffffffffffffffffffffffffffffffffffffffff160217905550620005a7565b600073ffffffffffffffffffffffffffffffffffffffff168273ffffffffffffffffffffffffffffffffffffffff161415620001e2576040517f08c379a0000000000000000000000000000000000000000000000000000000008152600401620001d9906200040a565b60405180910390fd5b620001f660008383620002d460201b60201c565b80600260008282546200020a91906200045a565b92505081905550806000808473ffffffffffffffffffffffffffffffffffffffff1673ffffffffffffffffffffffffffffffffffffffff16815260200190815260200160002060008282546200026191906200045a565b925050819055508173ffffffffffffffffffffffffffffffffffffffff16600073ffffffffffffffffffffffffffffffffffffffff167fddf252ad1be2c89b69c2b068fc378daa952ba7f163c4a11628f55a4df523b3ef83604051620002c891906200042c565b60405180910390a35050565b505050565b828054620002e790620004c1565b90600052602060002090601f0160209004810192826200030b576000855562000357565b82601f106200032657805160ff191683800117855562000357565b8280016001018555821562000357579182015b828111156200035657825182559160200191906001019062000339565b5b5090506200036691906200036a565b5090565b5b80821115620003855760008160009055506001016200036b565b5090565b60006200039860158362000449565b9150620003a58262000555565b602082019050919050565b6000620003bf601f8362000449565b9150620003cc826200057e565b602082019050919050565b620003e281620004b7565b82525050565b60006020820190508181036000830152620004038162000389565b9050919050565b600060208201905081810360008301526200042581620003b0565b9050919050565b6000602082019050620004436000830184620003d7565b92915050565b600082825260208201905092915050565b60006200046782620004b7565b91506200047483620004b7565b9250827fffffffffffffffffffffffffffffffffffffffffffffffffffffffffffffffff03821115620004ac57620004ab620004f7565b5b828201905092915050565b6000819050919050565b60006002820490506001821680620004da57607f821691505b60208210811415620004f157620004f062000526565b5b50919050565b7f4e487b7100000000000000000000000000000000000000000000000000000000600052601160045260246000fd5b7f4e487b7100000000000000000000000000000000000000000000000000000000600052602260045260246000fd5b7f45524332304361707065643a2063617020697320300000000000000000000000600082015250565b7f45524332303a206d696e7420746f20746865207a65726f206164647265737300600082015250565b608051611806620005c3600039600061054d01526118066000f3fe608060405234801561001057600080fd5b50600436106100ea5760003560e01c8063395093511161008c57806395d89b411161006657806395d89b4114610261578063a457c2d71461027f578063a9059cbb146102af578063dd62ed3e146102df576100ea565b806339509351146101e357806370a08231146102135780638da5cb5b14610243576100ea565b806323b872dd116100c857806323b872dd1461015b57806327dc2b7b1461018b578063313ce567146101a7578063355274ea146101c5576100ea565b806306fdde03146100ef578063095ea7b31461010d57806318160ddd1461013d575b600080fd5b6100f761030f565b60405161010491906111db565b60405180910390f35b61012760048036038101906101229190610fb5565b6103a1565b60405161013491906111c0565b60405180910390f35b6101456103bf565b604051610152919061131d565b60405180910390f35b61017560048036038101906101709190610f62565b6103c9565b60405161018291906111c0565b60405180910390f35b6101a560048036038101906101a09190610fb5565b6104ca565b005b6101af610540565b6040516101bc9190611338565b60405180910390f35b6101cd610549565b6040516101da919061131d565b60405180910390f35b6101fd60048036038101906101f89190610fb5565b610571565b60405161020a91906111c0565b60405180910390f35b61022d60048036038101906102289190610ef5565b61061d565b60405161023a919061131d565b60405180910390f35b61024b610665565b60405161025891906111a5565b60405180910390f35b61026961068b565b60405161027691906111db565b60405180910390f35b61029960048036038101906102949190610fb5565b61071d565b6040516102a691906111c0565b60405180910390f35b6102c960048036038101906102c49190610fb5565b610811565b6040516102d691906111c0565b60405180910390f35b6102f960048036038101906102f49190610f22565b61082f565b604051610306919061131d565b60405180910390f35b60606003805461031e90611481565b80601f016020809104026020016040519081016040528092919081815260200182805461034a90611481565b80156103975780601f1061036c57610100808354040283529160200191610397565b820191906000526020600020905b81548152906001019060200180831161037a57829003601f168201915b5050505050905090565b60006103b56103ae610a0a565b8484610a12565b6001905092915050565b6000600254905090565b60006103d6848484610bdd565b6000600160008673ffffffffffffffffffffffffffffffffffffffff1673ffffffffffffffffffffffffffffffffffffffff1681526020019081526020016000206000610421610a0a565b73ffffffffffffffffffffffffffffffffffffffff1673ffffffffffffffffffffffffffffffffffffffff168152602001908152602001600020549050828110156104a1576040517f08c379a00000000000000000000000000000000000000000000000000000000081526004016104989061125d565b60405180910390fd5b6104be856104ad610a0a565b85846104b991906113c5565b610a12565b60019150509392505050565b600660009054906101000a900473ffffffffffffffffffffffffffffffffffffffff1673ffffffffffffffffffffffffffffffffffffffff163373ffffffffffffffffffffffffffffffffffffffff161461052457600080fd5b600554421161053257600080fd5b61053c8282610e5c565b5050565b60006012905090565b60007f0000000000000000000000000000000000000000000000000000000000000000905090565b600061061361057e610a0a565b84846001600061058c610a0a565b73ffffffffffffffffffffffffffffffffffffffff1673ffffffffffffffffffffffffffffffffffffffff16815260200190815260200160002060008873ffffffffffffffffffffffffffffffffffffffff1673ffffffffffffffffffffffffffffffffffffffff1681526020019081526020016000205461060e919061136f565b610a12565b6001905092915050565b60008060008373ffffffffffffffffffffffffffffffffffffffff1673ffffffffffffffffffffffffffffffffffffffff168152602001908152602001600020549050919050565b600660009054906101000a900473ffffffffffffffffffffffffffffffffffffffff1681565b60606004805461069a90611481565b80601f01602080910402602001604051908101604052809291908181526020018280546106c690611481565b80156107135780601f106106e857610100808354040283529160200191610713565b820191906000526020600020905b8154815290600101906020018083116106f657829003601f168201915b5050505050905090565b6000806001600061072c610a0a565b73ffffffffffffffffffffffffffffffffffffffff1673ffffffffffffffffffffffffffffffffffffffff16815260200190815260200160002060008573ffffffffffffffffffffffffffffffffffffffff1673ffffffffffffffffffffffffffffffffffffffff168152602001908152602001600020549050828110156107e9576040517f08c379a00000000000000000000000000000000000000000000000000000000081526004016107e0906112dd565b60405180910390fd5b6108066107f4610a0a565b85858461080191906113c5565b610a12565b600191505092915050565b600061082561081e610a0a565b8484610bdd565b6001905092915050565b6000600160008473ffffffffffffffffffffffffffffffffffffffff1673ffffffffffffffffffffffffffffffffffffffff16815260200190815260200160002060008373ffffffffffffffffffffffffffffffffffffffff1673ffffffffffffffffffffffffffffffffffffffff16815260200190815260200160002054905092915050565b600073ffffffffffffffffffffffffffffffffffffffff168273ffffffffffffffffffffffffffffffffffffffff161415610926576040517f08c379a000000000000000000000000000000000000000000000000000000000815260040161091d906112fd565b60405180910390fd5b61093260008383610ec6565b8060026000828254610944919061136f565b92505081905550806000808473ffffffffffffffffffffffffffffffffffffffff1673ffffffffffffffffffffffffffffffffffffffff1681526020019081526020016000206000828254610999919061136f565b925050819055508173ffffffffffffffffffffffffffffffffffffffff16600073ffffffffffffffffffffffffffffffffffffffff167fddf252ad1be2c89b69c2b068fc378daa952ba7f163c4a11628f55a4df523b3ef836040516109fe919061131d565b60405180910390a35050565b600033905090565b600073ffffffffffffffffffffffffffffffffffffffff168373ffffffffffffffffffffffffffffffffffffffff161415610a82576040517f08c379a0000000000000000000000000000000000000000000000000000000008152600401610a79906112bd565b60405180910390fd5b600073ffffffffffffffffffffffffffffffffffffffff168273ffffffffffffffffffffffffffffffffffffffff161415610af2576040517f08c379a0000000000000000000000000000000000000000000000000000000008152600401610ae99061121d565b60405180910390fd5b80600160008573ffffffffffffffffffffffffffffffffffffffff1673ffffffffffffffffffffffffffffffffffffffff16815260200190815260200160002060008473ffffffffffffffffffffffffffffffffffffffff1673ffffffffffffffffffffffffffffffffffffffff168152602001908152602001600020819055508173ffffffffffffffffffffffffffffffffffffffff168373ffffffffffffffffffffffffffffffffffffffff167f8c5be1e5ebec7d5bd14f71427d1e84f3dd0314c0f7b2291e5b200ac8c7c3b92583604051610bd0919061131d565b60405180910390a3505050565b600073ffffffffffffffffffffffffffffffffffffffff168373ffffffffffffffffffffffffffffffffffffffff161415610c4d576040517f08c379a0000000000000000000000000000000000000000000000000000000008152600401610c449061127d565b60405180910390fd5b600073ffffffffffffffffffffffffffffffffffffffff168273ffffffffffffffffffffffffffffffffffffffff161415610cbd576040517f08c379a0000000000000000000000000000000000000000000000000000000008152600401610cb4906111fd565b60405180910390fd5b610cc8838383610ec6565b60008060008573ffffffffffffffffffffffffffffffffffffffff1673ffffffffffffffffffffffffffffffffffffffff16815260200190815260200160002054905081811015610d4e576040517f08c379a0000000000000000000000000000000000000000000000000000000008152600401610d459061123d565b60405180910390fd5b8181610d5a91906113c5565b6000808673ffffffffffffffffffffffffffffffffffffffff1673ffffffffffffffffffffffffffffffffffffffff16815260200190815260200160002081905550816000808573ffffffffffffffffffffffffffffffffffffffff1673ffffffffffffffffffffffffffffffffffffffff1681526020019081526020016000206000828254610dea919061136f565b925050819055508273ffffffffffffffffffffffffffffffffffffffff168473ffffffffffffffffffffffffffffffffffffffff167fddf252ad1be2c89b69c2b068fc378daa952ba7f163c4a11628f55a4df523b3ef84604051610e4e919061131d565b60405180910390a350505050565b610e64610549565b81610e6d6103bf565b610e77919061136f565b1115610eb8576040517f08c379a0000000000000000000000000000000000000000000000000000000008152600401610eaf9061129d565b60405180910390fd5b610ec282826108b6565b5050565b505050565b600081359050610eda816117a2565b92915050565b600081359050610eef816117b9565b92915050565b600060208284031215610f0b57610f0a611511565b5b6000610f1984828501610ecb565b91505092915050565b60008060408385031215610f3957610f38611511565b5b6000610f4785828601610ecb565b9250506020610f5885828601610ecb565b9150509250929050565b600080600060608486031215610f7b57610f7a611511565b5b6000610f8986828701610ecb565b9350506020610f9a86828701610ecb565b9250506040610fab86828701610ee0565b9150509250925092565b60008060408385031215610fcc57610fcb611511565b5b6000610fda85828601610ecb565b9250506020610feb85828601610ee0565b9150509250929050565b610ffe816113f9565b82525050565b61100d8161140b565b82525050565b600061101e82611353565b611028818561135e565b935061103881856020860161144e565b61104181611516565b840191505092915050565b600061105960238361135e565b915061106482611527565b604082019050919050565b600061107c60228361135e565b915061108782611576565b604082019050919050565b600061109f60268361135e565b91506110aa826115c5565b604082019050919050565b60006110c260288361135e565b91506110cd82611614565b604082019050919050565b60006110e560258361135e565b91506110f082611663565b604082019050919050565b600061110860198361135e565b9150611113826116b2565b602082019050919050565b600061112b60248361135e565b9150611136826116db565b604082019050919050565b600061114e60258361135e565b91506111598261172a565b604082019050919050565b6000611171601f8361135e565b915061117c82611779565b602082019050919050565b61119081611437565b82525050565b61119f81611441565b82525050565b60006020820190506111ba6000830184610ff5565b92915050565b60006020820190506111d56000830184611004565b92915050565b600060208201905081810360008301526111f58184611013565b905092915050565b600060208201905081810360008301526112168161104c565b9050919050565b600060208201905081810360008301526112368161106f565b9050919050565b6000602082019050818103600083015261125681611092565b9050919050565b60006020820190508181036000830152611276816110b5565b9050919050565b60006020820190508181036000830152611296816110d8565b9050919050565b600060208201905081810360008301526112b6816110fb565b9050919050565b600060208201905081810360008301526112d68161111e565b9050919050565b600060208201905081810360008301526112f681611141565b9050919050565b6000602082019050818103600083015261131681611164565b9050919050565b60006020820190506113326000830184611187565b92915050565b600060208201905061134d6000830184611196565b92915050565b600081519050919050565b600082825260208201905092915050565b600061137a82611437565b915061138583611437565b9250827fffffffffffffffffffffffffffffffffffffffffffffffffffffffffffffffff038211156113ba576113b96114b3565b5b828201905092915050565b60006113d082611437565b91506113db83611437565b9250828210156113ee576113ed6114b3565b5b828203905092915050565b600061140482611417565b9050919050565b60008115159050919050565b600073ffffffffffffffffffffffffffffffffffffffff82169050919050565b6000819050919050565b600060ff82169050919050565b60005b8381101561146c578082015181840152602081019050611451565b8381111561147b576000848401525b50505050565b6000600282049050600182168061149957607f821691505b602082108114156114ad576114ac6114e2565b5b50919050565b7f4e487b7100000000000000000000000000000000000000000000000000000000600052601160045260246000fd5b7f4e487b7100000000000000000000000000000000000000000000000000000000600052602260045260246000fd5b600080fd5b6000601f19601f8301169050919050565b7f45524332303a207472616e7366657220746f20746865207a65726f206164647260008201527f6573730000000000000000000000000000000000000000000000000000000000602082015250565b7f45524332303a20617070726f766520746f20746865207a65726f20616464726560008201527f7373000000000000000000000000000000000000000000000000000000000000602082015250565b7f45524332303a207472616e7366657220616d6f756e742065786365656473206260008201527f616c616e63650000000000000000000000000000000000000000000000000000602082015250565b7f45524332303a207472616e7366657220616d6f756e742065786365656473206160008201527f6c6c6f77616e6365000000000000000000000000000000000000000000000000602082015250565b7f45524332303a207472616e736665722066726f6d20746865207a65726f20616460008201527f6472657373000000000000000000000000000000000000000000000000000000602082015250565b7f45524332304361707065643a2063617020657863656564656400000000000000600082015250565b7f45524332303a20617070726f76652066726f6d20746865207a65726f2061646460008201527f7265737300000000000000000000000000000000000000000000000000000000602082015250565b7f45524332303a2064656372656173656420616c6c6f77616e63652062656c6f7760008201527f207a65726f000000000000000000000000000000000000000000000000000000602082015250565b7f45524332303a206d696e7420746f20746865207a65726f206164647265737300600082015250565b6117ab816113f9565b81146117b657600080fd5b50565b6117c281611437565b81146117cd57600080fd5b5056fea2646970667358221220b02ef7a1e0299e59a96100eb5978a02cb9c8c71b0adc9d8cb507ffd9318ccea064736f6c63430008060033"
  }
}