{"compiler":"v0.6.11+commit.5ef660b1","opcodeHash":"0x5671ac2e9b1ac7e60cdbb240db44bc7732cc65dc749612fd8ed8bbc25f1848ee","metalessHash":"0x8d471204ef06d64476b7b16a994fa027648b09ee1b6a31814a011f1f03025203","runtimeHash":"0x6f7325a5df7e208243d9bb48df2fcdd7fffe92a4fcbc41c1d16ccd6594f8adde","encodedMetadata":[{"ipfs":"/ipfs/QmfC81bucfP4oJjTu3r2h9bUsfD7S2s6DNSfkhykRzcYp2","solc":"0.6.11"}],"abi":[{"anonymous":false,"inputs":[{"indexed":true,"internalType":"address","name":"owner","type":"address"},{"indexed":true,"internalType":"address","name":"spender","type":"address"},{"indexed":false,"internalType":"uint256","name":"value","type":"uint256"}],"name":"Approval","type":"event"},{"anonymous":false,"inputs":[{"indexed":true,"internalType":"address","name":"previousOwner","type":"address"},{"indexed":true,"internalType":"address","name":"newOwner","type":"address"}],"name":"OwnershipTransferred","type":"event"},{"anonymous":false,"inputs":[{"indexed":false,"internalType":"address","name":"account","type":"address"}],"name":"Paused","type":"event"},{"anonymous":false,"inputs":[{"indexed":true,"internalType":"address","name":"from","type":"address"},{"indexed":true,"internalType":"address","name":"to","type":"address"},{"indexed":false,"internalType":"uint256","name":"value","type":"uint256"}],"name":"Transfer","type":"event"},{"anonymous":false,"inputs":[{"indexed":false,"internalType":"address","name":"account","type":"address"}],"name":"Unpaused","type":"event"},{"inputs":[{"internalType":"string","name":"name","type":"string"},{"internalType":"string","name":"symbol","type":"string"},{"internalType":"address payable","name":"ownerAccount","type":"address"},{"internalType":"uint256","name":"totalSupply","type":"uint256"},{"internalType":"uint256","name":"unitsOneEthCanBuy","type":"uint256"},{"internalType":"uint8","name":"decimals","type":"uint8"},{"internalType":"uint256","name":"maxEthCapToBuyToken","type":"uint256"}],"name":"__NexxoTokensUpgrade1_init","outputs":[],"stateMutability":"nonpayable","type":"function"},{"inputs":[{"internalType":"address","name":"owner","type":"address"},{"internalType":"address","name":"spender","type":"address"}],"name":"allowance","outputs":[{"internalType":"uint256","name":"","type":"uint256"}],"stateMutability":"view","type":"function"},{"inputs":[{"internalType":"address","name":"spender","type":"address"},{"internalType":"uint256","name":"amount","type":"uint256"}],"name":"approve","outputs":[{"internalType":"bool","name":"","type":"bool"}],"stateMutability":"nonpayable","type":"function"},{"inputs":[{"internalType":"address","name":"account","type":"address"}],"name":"balanceOf","outputs":[{"internalType":"uint256","name":"","type":"uint256"}],"stateMutability":"view","type":"function"},{"inputs":[{"internalType":"address","name":"walletAddress","type":"address"}],"name":"blockWalletAddress","outputs":[{"internalType":"bool","name":"success","type":"bool"}],"stateMutability":"nonpayable","type":"function"},{"inputs":[{"internalType":"uint256","name":"amount","type":"uint256"}],"name":"burn","outputs":[],"stateMutability":"nonpayable","type":"function"},{"inputs":[{"internalType":"address","name":"account","type":"address"},{"internalType":"uint256","name":"amount","type":"uint256"}],"name":"burnFrom","outputs":[],"stateMutability":"nonpayable","type":"function"},{"inputs":[],"name":"decimals","outputs":[{"internalType":"uint8","name":"","type":"uint8"}],"stateMutability":"view","type":"function"},{"inputs":[{"internalType":"address","name":"spender","type":"address"},{"internalType":"uint256","name":"subtractedValue","type":"uint256"}],"name":"decreaseAllowance","outputs":[{"internalType":"bool","name":"","type":"bool"}],"stateMutability":"nonpayable","type":"function"},{"inputs":[],"name":"getBlockedAddressCount","outputs":[{"internalType":"uint256","name":"blockedWalletAddressCount","type":"uint256"}],"stateMutability":"view","type":"function"},{"inputs":[],"name":"getBlockedAddressList","outputs":[{"internalType":"address[]","name":"","type":"address[]"}],"stateMutability":"view","type":"function"},{"inputs":[{"internalType":"address","name":"spender","type":"address"},{"internalType":"uint256","name":"addedValue","type":"uint256"}],"name":"increaseAllowance","outputs":[{"internalType":"bool","name":"","type":"bool"}],"stateMutability":"nonpayable","type":"function"},{"inputs":[],"name":"initalCapacity","outputs":[{"internalType":"uint256","name":"","type":"uint256"}],"stateMutability":"view","type":"function"},{"inputs":[],"name":"maxEthCapToBuyToken","outputs":[{"internalType":"uint256","name":"","type":"uint256"}],"stateMutability":"view","type":"function"},{"inputs":[],"name":"name","outputs":[{"internalType":"string","name":"","type":"string"}],"stateMutability":"view","type":"function"},{"inputs":[],"name":"owner","outputs":[{"internalType":"address","name":"","type":"address"}],"stateMutability":"view","type":"function"},{"inputs":[],"name":"ownerWallet","outputs":[{"internalType":"address payable","name":"","type":"address"}],"stateMutability":"view","type":"function"},{"inputs":[],"name":"pause","outputs":[],"stateMutability":"nonpayable","type":"function"},{"inputs":[],"name":"paused","outputs":[{"internalType":"bool","name":"","type":"bool"}],"stateMutability":"view","type":"function"},{"inputs":[],"name":"renounceOwnership","outputs":[],"stateMutability":"nonpayable","type":"function"},{"inputs":[{"internalType":"uint256","name":"newEthCapToBuy","type":"uint256"}],"name":"setMaxEthCapToBuyToken","outputs":[{"internalType":"bool","name":"","type":"bool"}],"stateMutability":"nonpayable","type":"function"},{"inputs":[],"name":"symbol","outputs":[{"internalType":"string","name":"","type":"string"}],"stateMutability":"view","type":"function"},{"inputs":[],"name":"totalEthInWei","outputs":[{"internalType":"uint256","name":"","type":"uint256"}],"stateMutability":"view","type":"function"},{"inputs":[],"name":"totalSupply","outputs":[{"internalType":"uint256","name":"","type":"uint256"}],"stateMutability":"view","type":"function"},{"inputs":[{"internalType":"address","name":"to","type":"address"},{"internalType":"uint256","name":"tokens","type":"uint256"}],"name":"transfer","outputs":[{"internalType":"bool","name":"success","type":"bool"}],"stateMutability":"nonpayable","type":"function"},{"inputs":[{"internalType":"address","name":"from","type":"address"},{"internalType":"address","name":"to","type":"address"},{"internalType":"uint256","name":"tokens","type":"uint256"}],"name":"transferFrom","outputs":[{"internalType":"bool","name":"success","type":"bool"}],"stateMutability":"nonpayable","type":"function"},{"inputs":[{"internalType":"address","name":"newOwner","type":"address"}],"name":"transferOwnership","outputs":[],"stateMutability":"nonpayable","type":"function"},{"inputs":[{"internalType":"address","name":"walletAddress","type":"address"}],"name":"unblockWalletAddress","outputs":[{"internalType":"bool","name":"success","type":"bool"}],"stateMutability":"nonpayable","type":"function"},{"inputs":[],"name":"unitsOneEthCanBuy","outputs":[{"internalType":"uint256","name":"","type":"uint256"}],"stateMutability":"view","type":"function"},{"inputs":[],"name":"unpause","outputs":[],"stateMutability":"nonpayable","type":"function"},{"stateMutability":"payable","type":"receive"}],"bytecode":{"object":"608060405234801561001057600080fd5b506142fe806100206000396000f3fe6080604052600436106101d15760003560e01c806370a08231116100f7578063933ba41311610095578063b0849e9d11610064578063b0849e9d14610dfc578063c51f37f414610e4f578063dd62ed3e14610ebb578063f2fde38b14610f40576104ac565b8063933ba41314610c5b57806395d89b4114610c86578063a457c2d714610d16578063a9059cbb14610d89576104ac565b80638456cb59116100d15780638456cb5914610b6b5780638541248514610b825780638da5cb5b14610bad5780639335dcb714610c04576104ac565b806370a0823114610a94578063715018a614610af957806379cc679014610b10576104ac565b806339f9b0091161016f5780634eaaf6281161013e5780634eaaf628146109a65780635c975abb146109d157806365f2bc2e14610a005780636fe019e514610a2b576104ac565b806339f9b009146108c05780633f20ea96146109295780633f4ba83a1461095457806342966c681461096b576104ac565b8063230e8ece116101ab578063230e8ece146105df57806323b872dd14610789578063313ce5671461081c578063395093511461084d576104ac565b806306fdde03146104b1578063095ea7b31461054157806318160ddd146105b4576104ac565b366104ac57606560009054906101000a900460ff1615610259576040517f08c379a00000000000000000000000000000000000000000000000000000000081526004018080602001828103825260108152602001807f5061757361626c653a207061757365640000000000000000000000000000000081525060200191505060405180910390fd5b610269610264610f91565b610f99565b156102dc576040517f08c379a00000000000000000000000000000000000000000000000000000000081526004018080602001828103825260188152602001807f5f6d736753656e646572282920697320626c6f636b65642e000000000000000081525060200191505060405180910390fd5b6102e4611064565b341061033b576040517f08c379a00000000000000000000000000000000000000000000000000000000081526004018080602001828103825260308152602001806142996030913960400191505060405180910390fd5b61034d3461034761106e565b01611078565b50600061035861108a565b340290508061036d610368611094565b6110be565b10156103c4576040517f08c379a00000000000000000000000000000000000000000000000000000000081526004018080602001828103825260278152602001806141e36027913960400191505060405180910390fd5b6103d56103cf611094565b82611107565b506103e76103e1610f91565b826111a8565b506103f0610f91565b73ffffffffffffffffffffffffffffffffffffffff1661040e611094565b73ffffffffffffffffffffffffffffffffffffffff167fddf252ad1be2c89b69c2b068fc378daa952ba7f163c4a11628f55a4df523b3ef836040518082815260200191505060405180910390a3610463611094565b73ffffffffffffffffffffffffffffffffffffffff166108fc349081150290604051600060405180830381858888f193505050501580156104a8573d6000803e3d6000fd5b5050005b600080fd5b3480156104bd57600080fd5b506104c6611249565b6040518080602001828103825283818151815260200191508051906020019080838360005b838110156105065780820151818401526020810190506104eb565b50505050905090810190601f1680156105335780820380516001836020036101000a031916815260200191505b509250505060405180910390f35b34801561054d57600080fd5b5061059a6004803603604081101561056457600080fd5b81019080803573ffffffffffffffffffffffffffffffffffffffff169060200190929190803590602001909291905050506112eb565b604051808215151515815260200191505060405180910390f35b3480156105c057600080fd5b506105c9611309565b6040518082815260200191505060405180910390f35b3480156105eb57600080fd5b50610787600480360360e081101561060257600080fd5b810190808035906020019064010000000081111561061f57600080fd5b82018360208201111561063157600080fd5b8035906020019184600183028401116401000000008311171561065357600080fd5b91908080601f016020809104026020016040519081016040528093929190818152602001838380828437600081840152601f19601f820116905080830192505050505050509192919290803590602001906401000000008111156106b657600080fd5b8201836020820111156106c857600080fd5b803590602001918460018302840111640100000000831117156106ea57600080fd5b91908080601f016020809104026020016040519081016040528093929190818152602001838380828437600081840152601f19601f820116905080830192505050505050509192919290803573ffffffffffffffffffffffffffffffffffffffff1690602001909291908035906020019092919080359060200190929190803560ff16906020019092919080359060200190929190505050611313565b005b34801561079557600080fd5b50610802600480360360608110156107ac57600080fd5b81019080803573ffffffffffffffffffffffffffffffffffffffff169060200190929190803573ffffffffffffffffffffffffffffffffffffffff16906020019092919080359060200190929190505050611438565b604051808215151515815260200191505060405180910390f35b34801561082857600080fd5b506108316115c9565b604051808260ff1660ff16815260200191505060405180910390f35b34801561085957600080fd5b506108a66004803603604081101561087057600080fd5b81019080803573ffffffffffffffffffffffffffffffffffffffff169060200190929190803590602001909291905050506115e0565b604051808215151515815260200191505060405180910390f35b3480156108cc57600080fd5b5061090f600480360360208110156108e357600080fd5b81019080803573ffffffffffffffffffffffffffffffffffffffff169060200190929190505050611693565b604051808215151515815260200191505060405180910390f35b34801561093557600080fd5b5061093e611064565b6040518082815260200191505060405180910390f35b34801561096057600080fd5b506109696118fe565b005b34801561097757600080fd5b506109a46004803603602081101561098e57600080fd5b8101908080359060200190929190505050611a54565b005b3480156109b257600080fd5b506109bb611b32565b6040518082815260200191505060405180910390f35b3480156109dd57600080fd5b506109e6611c0a565b604051808215151515815260200191505060405180910390f35b348015610a0c57600080fd5b50610a1561108a565b6040518082815260200191505060405180910390f35b348015610a3757600080fd5b50610a7a60048036036020811015610a4e57600080fd5b81019080803573ffffffffffffffffffffffffffffffffffffffff169060200190929190505050611c21565b604051808215151515815260200191505060405180910390f35b348015610aa057600080fd5b50610ae360048036036020811015610ab757600080fd5b81019080803573ffffffffffffffffffffffffffffffffffffffff1690602001909291905050506110be565b6040518082815260200191505060405180910390f35b348015610b0557600080fd5b50610b0e611f41565b005b348015610b1c57600080fd5b50610b6960048036036040811015610b3357600080fd5b81019080803573ffffffffffffffffffffffffffffffffffffffff169060200190929190803590602001909291905050506120cc565b005b348015610b7757600080fd5b50610b806121a4565b005b348015610b8e57600080fd5b50610b976122fb565b6040518082815260200191505060405180910390f35b348015610bb957600080fd5b50610bc2612305565b604051808273ffffffffffffffffffffffffffffffffffffffff1673ffffffffffffffffffffffffffffffffffffffff16815260200191505060405180910390f35b348015610c1057600080fd5b50610c19611094565b604051808273ffffffffffffffffffffffffffffffffffffffff1673ffffffffffffffffffffffffffffffffffffffff16815260200191505060405180910390f35b348015610c6757600080fd5b50610c7061106e565b6040518082815260200191505060405180910390f35b348015610c9257600080fd5b50610c9b61232f565b6040518080602001828103825283818151815260200191508051906020019080838360005b83811015610cdb578082015181840152602081019050610cc0565b50505050905090810190601f168015610d085780820380516001836020036101000a031916815260200191505b509250505060405180910390f35b348015610d2257600080fd5b50610d6f60048036036040811015610d3957600080fd5b81019080803573ffffffffffffffffffffffffffffffffffffffff169060200190929190803590602001909291905050506123d1565b604051808215151515815260200191505060405180910390f35b348015610d9557600080fd5b50610de260048036036040811015610dac57600080fd5b81019080803573ffffffffffffffffffffffffffffffffffffffff1690602001909291908035906020019092919050505061249e565b604051808215151515815260200191505060405180910390f35b348015610e0857600080fd5b50610e3560048036036020811015610e1f57600080fd5b8101908080359060200190929190505050612634565b604051808215151515815260200191505060405180910390f35b348015610e5b57600080fd5b50610e64612786565b6040518080602001828103825283818151815260200191508051906020019060200280838360005b83811015610ea7578082015181840152602081019050610e8c565b505050509050019250505060405180910390f35b348015610ec757600080fd5b50610f2a60048036036040811015610ede57600080fd5b81019080803573ffffffffffffffffffffffffffffffffffffffff169060200190929190803573ffffffffffffffffffffffffffffffffffffffff1690602001909291905050506128df565b6040518082815260200191505060405180910390f35b348015610f4c57600080fd5b50610f8f60048036036020811015610f6357600080fd5b81019080803573ffffffffffffffffffffffffffffffffffffffff169060200190929190505050612966565b005b600033905090565b600080610101805490501415610fb2576000905061105f565b8173ffffffffffffffffffffffffffffffffffffffff1661010161010060008573ffffffffffffffffffffffffffffffffffffffff1673ffffffffffffffffffffffffffffffffffffffff168152602001908152602001600020600101548154811061101a57fe5b9060005260206000200160009054906101000a900473ffffffffffffffffffffffffffffffffffffffff1673ffffffffffffffffffffffffffffffffffffffff161490505b919050565b600060ff54905090565b600060fd54905090565b60008160fd8190555060019050919050565b600060fe54905090565b600060fc60009054906101000a900473ffffffffffffffffffffffffffffffffffffffff16905090565b600060c960008373ffffffffffffffffffffffffffffffffffffffff1673ffffffffffffffffffffffffffffffffffffffff168152602001908152602001600020549050919050565b600061115b8260c960008673ffffffffffffffffffffffffffffffffffffffff1673ffffffffffffffffffffffffffffffffffffffff16815260200190815260200160002054612b7690919063ffffffff16565b60c960008573ffffffffffffffffffffffffffffffffffffffff1673ffffffffffffffffffffffffffffffffffffffff168152602001908152602001600020819055506001905092915050565b60006111fc8260c960008673ffffffffffffffffffffffffffffffffffffffff1673ffffffffffffffffffffffffffffffffffffffff16815260200190815260200160002054612bc090919063ffffffff16565b60c960008573ffffffffffffffffffffffffffffffffffffffff1673ffffffffffffffffffffffffffffffffffffffff168152602001908152602001600020819055506001905092915050565b606060cc8054600181600116156101000203166002900480601f0160208091040260200160405190810160405280929190818152602001828054600181600116156101000203166002900480156112e15780601f106112b6576101008083540402835291602001916112e1565b820191906000526020600020905b8154815290600101906020018083116112c457829003601f168201915b5050505050905090565b60006112ff6112f8610f91565b8484612c48565b6001905092915050565b600060cb54905090565b600060019054906101000a900460ff16806113325750611331612e3f565b5b8061134957506000809054906101000a900460ff16155b61139e576040517f08c379a000000000000000000000000000000000000000000000000000000000815260040180806020018281038252602e815260200180614194602e913960400191505060405180910390fd5b60008060019054906101000a900460ff1615905080156113ee576001600060016101000a81548160ff02191690831515021790555060016000806101000a81548160ff0219169083151502179055505b6113f6612e56565b611401888885612f65565b61140d8686868561307a565b801561142e5760008060016101000a81548160ff0219169083151502179055505b5050505050505050565b6000606560009054906101000a900460ff16156114bd576040517f08c379a00000000000000000000000000000000000000000000000000000000081526004018080602001828103825260108152602001807f5061757361626c653a207061757365640000000000000000000000000000000081525060200191505060405180910390fd5b6114c684610f99565b15611539576040517f08c379a00000000000000000000000000000000000000000000000000000000081526004018080602001828103825260188152602001807f66726f6d2d6164647265737320697320626c6f636b65642e000000000000000081525060200191505060405180910390fd5b61154283610f99565b156115b5576040517f08c379a00000000000000000000000000000000000000000000000000000000081526004018080602001828103825260168152602001807f746f2d6164647265737320697320626c6f636b65642e0000000000000000000081525060200191505060405180910390fd5b6115c08484846131dd565b90509392505050565b600060ce60009054906101000a900460ff16905090565b60006116896115ed610f91565b846116848560ca60006115fe610f91565b73ffffffffffffffffffffffffffffffffffffffff1673ffffffffffffffffffffffffffffffffffffffff16815260200190815260200160002060008973ffffffffffffffffffffffffffffffffffffffff1673ffffffffffffffffffffffffffffffffffffffff16815260200190815260200160002054612bc090919063ffffffff16565b612c48565b6001905092915050565b600061169d610f91565b73ffffffffffffffffffffffffffffffffffffffff16609760009054906101000a900473ffffffffffffffffffffffffffffffffffffffff1673ffffffffffffffffffffffffffffffffffffffff161461175f576040517f08c379a00000000000000000000000000000000000000000000000000000000081526004018080602001828103825260208152602001807f4f776e61626c653a2063616c6c6572206973206e6f7420746865206f776e657281525060200191505060405180910390fd5b61176882610f99565b156117be576040517f08c379a00000000000000000000000000000000000000000000000000000000081526004018080602001828103825260218152602001806142536021913960400191505060405180910390fd5b8161010060008473ffffffffffffffffffffffffffffffffffffffff1673ffffffffffffffffffffffffffffffffffffffff16815260200190815260200160002060000160006101000a81548173ffffffffffffffffffffffffffffffffffffffff021916908373ffffffffffffffffffffffffffffffffffffffff160217905550610101829080600181540180825580915050600190039060005260206000200160009091909190916101000a81548173ffffffffffffffffffffffffffffffffffffffff021916908373ffffffffffffffffffffffffffffffffffffffff1602179055506001610101805490500361010060008473ffffffffffffffffffffffffffffffffffffffff1673ffffffffffffffffffffffffffffffffffffffff1681526020019081526020016000206001018190555060019050919050565b606560009054906101000a900460ff16611980576040517f08c379a00000000000000000000000000000000000000000000000000000000081526004018080602001828103825260148152602001807f5061757361626c653a206e6f742070617573656400000000000000000000000081525060200191505060405180910390fd5b611988610f91565b73ffffffffffffffffffffffffffffffffffffffff16609760009054906101000a900473ffffffffffffffffffffffffffffffffffffffff1673ffffffffffffffffffffffffffffffffffffffff1614611a4a576040517f08c379a00000000000000000000000000000000000000000000000000000000081526004018080602001828103825260208152602001807f4f776e61626c653a2063616c6c6572206973206e6f7420746865206f776e657281525060200191505060405180910390fd5b611a526132b6565b565b611a5c610f91565b73ffffffffffffffffffffffffffffffffffffffff16609760009054906101000a900473ffffffffffffffffffffffffffffffffffffffff1673ffffffffffffffffffffffffffffffffffffffff1614611b1e576040517f08c379a00000000000000000000000000000000000000000000000000000000081526004018080602001828103825260208152602001807f4f776e61626c653a2063616c6c6572206973206e6f7420746865206f776e657281525060200191505060405180910390fd5b611b2f611b29610f91565b826133bf565b50565b6000611b3c610f91565b73ffffffffffffffffffffffffffffffffffffffff16609760009054906101000a900473ffffffffffffffffffffffffffffffffffffffff1673ffffffffffffffffffffffffffffffffffffffff1614611bfe576040517f08c379a00000000000000000000000000000000000000000000000000000000081526004018080602001828103825260208152602001807f4f776e61626c653a2063616c6c6572206973206e6f7420746865206f776e657281525060200191505060405180910390fd5b61010180549050905090565b6000606560009054906101000a900460ff16905090565b6000611c2b610f91565b73ffffffffffffffffffffffffffffffffffffffff16609760009054906101000a900473ffffffffffffffffffffffffffffffffffffffff1673ffffffffffffffffffffffffffffffffffffffff1614611ced576040517f08c379a00000000000000000000000000000000000000000000000000000000081526004018080602001828103825260208152602001807f4f776e61626c653a2063616c6c6572206973206e6f7420746865206f776e657281525060200191505060405180910390fd5b611cf682610f99565b611d4b576040517f08c379a00000000000000000000000000000000000000000000000000000000081526004018080602001828103825260218152602001806140986021913960400191505060405180910390fd5b6000610101805490501415611dc8576040517f08c379a000000000000000000000000000000000000000000000000000000000815260040180806020018281038252601c8152602001807f626c6f636b6564416464726573734c69737420697320656d7074792e0000000081525060200191505060405180910390fd5b600061010060008473ffffffffffffffffffffffffffffffffffffffff1673ffffffffffffffffffffffffffffffffffffffff16815260200190815260200160002060010154905060006101016001610101805490500381548110611e2957fe5b9060005260206000200160009054906101000a900473ffffffffffffffffffffffffffffffffffffffff169050806101018381548110611e6557fe5b9060005260206000200160006101000a81548173ffffffffffffffffffffffffffffffffffffffff021916908373ffffffffffffffffffffffffffffffffffffffff1602179055508161010060008373ffffffffffffffffffffffffffffffffffffffff1673ffffffffffffffffffffffffffffffffffffffff16815260200190815260200160002060010181905550610101805480611f0157fe5b6001900381819060005260206000200160006101000a81549073ffffffffffffffffffffffffffffffffffffffff02191690559055600192505050919050565b611f49610f91565b73ffffffffffffffffffffffffffffffffffffffff16609760009054906101000a900473ffffffffffffffffffffffffffffffffffffffff1673ffffffffffffffffffffffffffffffffffffffff161461200b576040517f08c379a00000000000000000000000000000000000000000000000000000000081526004018080602001828103825260208152602001807f4f776e61626c653a2063616c6c6572206973206e6f7420746865206f776e657281525060200191505060405180910390fd5b600073ffffffffffffffffffffffffffffffffffffffff16609760009054906101000a900473ffffffffffffffffffffffffffffffffffffffff1673ffffffffffffffffffffffffffffffffffffffff167f8be0079c531659141344cd1fd0a4f28419497f9722a3daafe3b4186f6b6457e060405160405180910390a36000609760006101000a81548173ffffffffffffffffffffffffffffffffffffffff021916908373ffffffffffffffffffffffffffffffffffffffff160217905550565b6120d4610f91565b73ffffffffffffffffffffffffffffffffffffffff16609760009054906101000a900473ffffffffffffffffffffffffffffffffffffffff1673ffffffffffffffffffffffffffffffffffffffff1614612196576040517f08c379a00000000000000000000000000000000000000000000000000000000081526004018080602001828103825260208152602001807f4f776e61626c653a2063616c6c6572206973206e6f7420746865206f776e657281525060200191505060405180910390fd5b6121a082826133bf565b5050565b606560009054906101000a900460ff1615612227576040517f08c379a00000000000000000000000000000000000000000000000000000000081526004018080602001828103825260108152602001807f5061757361626c653a207061757365640000000000000000000000000000000081525060200191505060405180910390fd5b61222f610f91565b73ffffffffffffffffffffffffffffffffffffffff16609760009054906101000a900473ffffffffffffffffffffffffffffffffffffffff1673ffffffffffffffffffffffffffffffffffffffff16146122f1576040517f08c379a00000000000000000000000000000000000000000000000000000000081526004018080602001828103825260208152602001807f4f776e61626c653a2063616c6c6572206973206e6f7420746865206f776e657281525060200191505060405180910390fd5b6122f9613585565b565b600060fb54905090565b6000609760009054906101000a900473ffffffffffffffffffffffffffffffffffffffff16905090565b606060cd8054600181600116156101000203166002900480601f0160208091040260200160405190810160405280929190818152602001828054600181600116156101000203166002900480156123c75780601f1061239c576101008083540402835291602001916123c7565b820191906000526020600020905b8154815290600101906020018083116123aa57829003601f168201915b5050505050905090565b60006124946123de610f91565b8461248f856040518060600160405280602581526020016142746025913960ca6000612408610f91565b73ffffffffffffffffffffffffffffffffffffffff1673ffffffffffffffffffffffffffffffffffffffff16815260200190815260200160002060008a73ffffffffffffffffffffffffffffffffffffffff1673ffffffffffffffffffffffffffffffffffffffff1681526020019081526020016000205461368f9092919063ffffffff16565b612c48565b6001905092915050565b6000606560009054906101000a900460ff1615612523576040517f08c379a00000000000000000000000000000000000000000000000000000000081526004018080602001828103825260108152602001807f5061757361626c653a207061757365640000000000000000000000000000000081525060200191505060405180910390fd5b61252c83610f99565b1561259f576040517f08c379a00000000000000000000000000000000000000000000000000000000081526004018080602001828103825260168152602001807f746f2d6164647265737320697320626c6f636b65642e0000000000000000000081525060200191505060405180910390fd5b6125af6125aa610f91565b610f99565b15612622576040517f08c379a00000000000000000000000000000000000000000000000000000000081526004018080602001828103825260188152602001807f5f6d736753656e646572282920697320626c6f636b65642e000000000000000081525060200191505060405180910390fd5b61262c838361374f565b905092915050565b600061263e610f91565b73ffffffffffffffffffffffffffffffffffffffff16609760009054906101000a900473ffffffffffffffffffffffffffffffffffffffff1673ffffffffffffffffffffffffffffffffffffffff1614612700576040517f08c379a00000000000000000000000000000000000000000000000000000000081526004018080602001828103825260208152602001807f4f776e61626c653a2063616c6c6572206973206e6f7420746865206f776e657281525060200191505060405180910390fd5b60008211612776576040517f08c379a000000000000000000000000000000000000000000000000000000000815260040180806020018281038252601a8152602001807f4d7573742062652067726561746572207468616e207a65726f2e00000000000081525060200191505060405180910390fd5b8160ff8190555060019050919050565b6060612790610f91565b73ffffffffffffffffffffffffffffffffffffffff16609760009054906101000a900473ffffffffffffffffffffffffffffffffffffffff1673ffffffffffffffffffffffffffffffffffffffff1614612852576040517f08c379a00000000000000000000000000000000000000000000000000000000081526004018080602001828103825260208152602001807f4f776e61626c653a2063616c6c6572206973206e6f7420746865206f776e657281525060200191505060405180910390fd5b6101018054806020026020016040519081016040528092919081815260200182805480156128d557602002820191906000526020600020905b8160009054906101000a900473ffffffffffffffffffffffffffffffffffffffff1673ffffffffffffffffffffffffffffffffffffffff168152602001906001019080831161288b575b5050505050905090565b600060ca60008473ffffffffffffffffffffffffffffffffffffffff1673ffffffffffffffffffffffffffffffffffffffff16815260200190815260200160002060008373ffffffffffffffffffffffffffffffffffffffff1673ffffffffffffffffffffffffffffffffffffffff16815260200190815260200160002054905092915050565b61296e610f91565b73ffffffffffffffffffffffffffffffffffffffff16609760009054906101000a900473ffffffffffffffffffffffffffffffffffffffff1673ffffffffffffffffffffffffffffffffffffffff1614612a30576040517f08c379a00000000000000000000000000000000000000000000000000000000081526004018080602001828103825260208152602001807f4f776e61626c653a2063616c6c6572206973206e6f7420746865206f776e657281525060200191505060405180910390fd5b600073ffffffffffffffffffffffffffffffffffffffff168173ffffffffffffffffffffffffffffffffffffffff161415612ab6576040517f08c379a00000000000000000000000000000000000000000000000000000000081526004018080602001828103825260268152602001806140fe6026913960400191505060405180910390fd5b8073ffffffffffffffffffffffffffffffffffffffff16609760009054906101000a900473ffffffffffffffffffffffffffffffffffffffff1673ffffffffffffffffffffffffffffffffffffffff167f8be0079c531659141344cd1fd0a4f28419497f9722a3daafe3b4186f6b6457e060405160405180910390a380609760006101000a81548173ffffffffffffffffffffffffffffffffffffffff021916908373ffffffffffffffffffffffffffffffffffffffff16021790555050565b6000612bb883836040518060400160405280601e81526020017f536166654d6174683a207375627472616374696f6e206f766572666c6f77000081525061368f565b905092915050565b600080828401905083811015612c3e576040517f08c379a000000000000000000000000000000000000000000000000000000000815260040180806020018281038252601b8152602001807f536166654d6174683a206164646974696f6e206f766572666c6f77000000000081525060200191505060405180910390fd5b8091505092915050565b600073ffffffffffffffffffffffffffffffffffffffff168373ffffffffffffffffffffffffffffffffffffffff161415612cce576040517f08c379a000000000000000000000000000000000000000000000000000000000815260040180806020018281038252602481526020018061422f6024913960400191505060405180910390fd5b600073ffffffffffffffffffffffffffffffffffffffff168273ffffffffffffffffffffffffffffffffffffffff161415612d54576040517f08c379a00000000000000000000000000000000000000000000000000000000081526004018080602001828103825260228152602001806141246022913960400191505060405180910390fd5b8060ca60008573ffffffffffffffffffffffffffffffffffffffff1673ffffffffffffffffffffffffffffffffffffffff16815260200190815260200160002060008473ffffffffffffffffffffffffffffffffffffffff1673ffffffffffffffffffffffffffffffffffffffff168152602001908152602001600020819055508173ffffffffffffffffffffffffffffffffffffffff168373ffffffffffffffffffffffffffffffffffffffff167f8c5be1e5ebec7d5bd14f71427d1e84f3dd0314c0f7b2291e5b200ac8c7c3b925836040518082815260200191505060405180910390a3505050565b6000803090506000813b9050600081149250505090565b600060019054906101000a900460ff1680612e755750612e74612e3f565b5b80612e8c57506000809054906101000a900460ff16155b612ee1576040517f08c379a000000000000000000000000000000000000000000000000000000000815260040180806020018281038252602e815260200180614194602e913960400191505060405180910390fd5b60008060019054906101000a900460ff161590508015612f31576001600060016101000a81548160ff02191690831515021790555060016000806101000a81548160ff0219169083151502179055505b612f3961376d565b612f4161386c565b8015612f625760008060016101000a81548160ff0219169083151502179055505b50565b600060019054906101000a900460ff1680612f845750612f83612e3f565b5b80612f9b57506000809054906101000a900460ff16155b612ff0576040517f08c379a000000000000000000000000000000000000000000000000000000000815260040180806020018281038252602e815260200180614194602e913960400191505060405180910390fd5b60008060019054906101000a900460ff161590508015613040576001600060016101000a81548160ff02191690831515021790555060016000806101000a81548160ff0219169083151502179055505b61304861376d565b613053848484613a14565b80156130745760008060016101000a81548160ff0219169083151502179055505b50505050565b600060019054906101000a900460ff16806130995750613098612e3f565b5b806130b057506000809054906101000a900460ff16155b613105576040517f08c379a000000000000000000000000000000000000000000000000000000000815260040180806020018281038252602e815260200180614194602e913960400191505060405180910390fd5b60008060019054906101000a900460ff161590508015613155576001600060016101000a81548160ff02191690831515021790555060016000806101000a81548160ff0219169083151502179055505b8360fb819055508460fc60006101000a81548173ffffffffffffffffffffffffffffffffffffffff021916908373ffffffffffffffffffffffffffffffffffffffff1602179055508260fe819055508160ff819055506131b58585613b5f565b80156131d65760008060016101000a81548160ff0219169083151502179055505b5050505050565b60006131ea848484613d28565b6132ab846131f6610f91565b6132a68560405180606001604052806028815260200161416c6028913960ca60008b73ffffffffffffffffffffffffffffffffffffffff1673ffffffffffffffffffffffffffffffffffffffff168152602001908152602001600020600061325c610f91565b73ffffffffffffffffffffffffffffffffffffffff1673ffffffffffffffffffffffffffffffffffffffff1681526020019081526020016000205461368f9092919063ffffffff16565b612c48565b600190509392505050565b606560009054906101000a900460ff16613338576040517f08c379a00000000000000000000000000000000000000000000000000000000081526004018080602001828103825260148152602001807f5061757361626c653a206e6f742070617573656400000000000000000000000081525060200191505060405180910390fd5b6000606560006101000a81548160ff0219169083151502179055507f5db9ee0a495bf2e6ff9c91a7834c1ba4fdd244a5e8aa4e537bd38aeae4b073aa61337c610f91565b604051808273ffffffffffffffffffffffffffffffffffffffff1673ffffffffffffffffffffffffffffffffffffffff16815260200191505060405180910390a1565b600073ffffffffffffffffffffffffffffffffffffffff168273ffffffffffffffffffffffffffffffffffffffff161415613445576040517f08c379a00000000000000000000000000000000000000000000000000000000081526004018080602001828103825260218152602001806141c26021913960400191505060405180910390fd5b61345182600083613fed565b6134bd816040518060600160405280602281526020016140dc6022913960c960008673ffffffffffffffffffffffffffffffffffffffff1673ffffffffffffffffffffffffffffffffffffffff1681526020019081526020016000205461368f9092919063ffffffff16565b60c960008473ffffffffffffffffffffffffffffffffffffffff1673ffffffffffffffffffffffffffffffffffffffff168152602001908152602001600020819055506135158160cb54612b7690919063ffffffff16565b60cb81905550600073ffffffffffffffffffffffffffffffffffffffff168273ffffffffffffffffffffffffffffffffffffffff167fddf252ad1be2c89b69c2b068fc378daa952ba7f163c4a11628f55a4df523b3ef836040518082815260200191505060405180910390a35050565b606560009054906101000a900460ff1615613608576040517f08c379a00000000000000000000000000000000000000000000000000000000081526004018080602001828103825260108152602001807f5061757361626c653a207061757365640000000000000000000000000000000081525060200191505060405180910390fd5b6001606560006101000a81548160ff0219169083151502179055507f62e78cea01bee320cd4e420270b5ea74000d11b0c9f74754ebdbfc544b05a25861364c610f91565b604051808273ffffffffffffffffffffffffffffffffffffffff1673ffffffffffffffffffffffffffffffffffffffff16815260200191505060405180910390a1565b600083831115829061373c576040517f08c379a00000000000000000000000000000000000000000000000000000000081526004018080602001828103825283818151815260200191508051906020019080838360005b838110156137015780820151818401526020810190506136e6565b50505050905090810190601f16801561372e5780820380516001836020036101000a031916815260200191505b509250505060405180910390fd5b5060008385039050809150509392505050565b600061376361375c610f91565b8484613d28565b6001905092915050565b600060019054906101000a900460ff168061378c575061378b612e3f565b5b806137a357506000809054906101000a900460ff16155b6137f8576040517f08c379a000000000000000000000000000000000000000000000000000000000815260040180806020018281038252602e815260200180614194602e913960400191505060405180910390fd5b60008060019054906101000a900460ff161590508015613848576001600060016101000a81548160ff02191690831515021790555060016000806101000a81548160ff0219169083151502179055505b80156138695760008060016101000a81548160ff0219169083151502179055505b50565b600060019054906101000a900460ff168061388b575061388a612e3f565b5b806138a257506000809054906101000a900460ff16155b6138f7576040517f08c379a000000000000000000000000000000000000000000000000000000000815260040180806020018281038252602e815260200180614194602e913960400191505060405180910390fd5b60008060019054906101000a900460ff161590508015613947576001600060016101000a81548160ff02191690831515021790555060016000806101000a81548160ff0219169083151502179055505b6000613951610f91565b905080609760006101000a81548173ffffffffffffffffffffffffffffffffffffffff021916908373ffffffffffffffffffffffffffffffffffffffff1602179055508073ffffffffffffffffffffffffffffffffffffffff16600073ffffffffffffffffffffffffffffffffffffffff167f8be0079c531659141344cd1fd0a4f28419497f9722a3daafe3b4186f6b6457e060405160405180910390a3508015613a115760008060016101000a81548160ff0219169083151502179055505b50565b600060019054906101000a900460ff1680613a335750613a32612e3f565b5b80613a4a57506000809054906101000a900460ff16155b613a9f576040517f08c379a000000000000000000000000000000000000000000000000000000000815260040180806020018281038252602e815260200180614194602e913960400191505060405180910390fd5b60008060019054906101000a900460ff161590508015613aef576001600060016101000a81548160ff02191690831515021790555060016000806101000a81548160ff0219169083151502179055505b8360cc9080519060200190613b05929190613ff2565b508260cd9080519060200190613b1c929190613ff2565b508160ce60006101000a81548160ff021916908360ff1602179055508015613b595760008060016101000a81548160ff0219169083151502179055505b50505050565b600073ffffffffffffffffffffffffffffffffffffffff168273ffffffffffffffffffffffffffffffffffffffff161415613c02576040517f08c379a000000000000000000000000000000000000000000000000000000000815260040180806020018281038252601f8152602001807f45524332303a206d696e7420746f20746865207a65726f20616464726573730081525060200191505060405180910390fd5b613c0e60008383613fed565b613c238160cb54612bc090919063ffffffff16565b60cb81905550613c7b8160c960008573ffffffffffffffffffffffffffffffffffffffff1673ffffffffffffffffffffffffffffffffffffffff16815260200190815260200160002054612bc090919063ffffffff16565b60c960008473ffffffffffffffffffffffffffffffffffffffff1673ffffffffffffffffffffffffffffffffffffffff168152602001908152602001600020819055508173ffffffffffffffffffffffffffffffffffffffff16600073ffffffffffffffffffffffffffffffffffffffff167fddf252ad1be2c89b69c2b068fc378daa952ba7f163c4a11628f55a4df523b3ef836040518082815260200191505060405180910390a35050565b600073ffffffffffffffffffffffffffffffffffffffff168373ffffffffffffffffffffffffffffffffffffffff161415613dae576040517f08c379a000000000000000000000000000000000000000000000000000000000815260040180806020018281038252602581526020018061420a6025913960400191505060405180910390fd5b600073ffffffffffffffffffffffffffffffffffffffff168273ffffffffffffffffffffffffffffffffffffffff161415613e34576040517f08c379a00000000000000000000000000000000000000000000000000000000081526004018080602001828103825260238152602001806140b96023913960400191505060405180910390fd5b613e3f838383613fed565b613eab816040518060600160405280602681526020016141466026913960c960008773ffffffffffffffffffffffffffffffffffffffff1673ffffffffffffffffffffffffffffffffffffffff1681526020019081526020016000205461368f9092919063ffffffff16565b60c960008573ffffffffffffffffffffffffffffffffffffffff1673ffffffffffffffffffffffffffffffffffffffff16815260200190815260200160002081905550613f408160c960008573ffffffffffffffffffffffffffffffffffffffff1673ffffffffffffffffffffffffffffffffffffffff16815260200190815260200160002054612bc090919063ffffffff16565b60c960008473ffffffffffffffffffffffffffffffffffffffff1673ffffffffffffffffffffffffffffffffffffffff168152602001908152602001600020819055508173ffffffffffffffffffffffffffffffffffffffff168373ffffffffffffffffffffffffffffffffffffffff167fddf252ad1be2c89b69c2b068fc378daa952ba7f163c4a11628f55a4df523b3ef836040518082815260200191505060405180910390a3505050565b505050565b828054600181600116156101000203166002900490600052602060002090601f016020900481019282601f1061403357805160ff1916838001178555614061565b82800160010185558215614061579182015b82811115614060578251825591602001919060010190614045565b5b50905061406e9190614072565b5090565b61409491905b80821115614090576000816000905550600101614078565b5090565b9056fe77616c6c657441646472657373206973206e6f7420626c6f636b6564207965742e45524332303a207472616e7366657220746f20746865207a65726f206164647265737345524332303a206275726e20616d6f756e7420657863656564732062616c616e63654f776e61626c653a206e6577206f776e657220697320746865207a65726f206164647265737345524332303a20617070726f766520746f20746865207a65726f206164647265737345524332303a207472616e7366657220616d6f756e7420657863656564732062616c616e636545524332303a207472616e7366657220616d6f756e74206578636565647320616c6c6f77616e6365436f6e747261637420696e7374616e63652068617320616c7265616479206265656e20696e697469616c697a656445524332303a206275726e2066726f6d20746865207a65726f2061646472657373437573746f6d2d546f6b656e203a20616d6f756e74206d6f7265207468616e2062616c616e636545524332303a207472616e736665722066726f6d20746865207a65726f206164647265737345524332303a20617070726f76652066726f6d20746865207a65726f206164647265737377616c6c65744164647265737320697320616c726561647920626c6f636b65642e45524332303a2064656372656173656420616c6c6f77616e63652062656c6f77207a65726f457468657220776f7274682069732067726561746572207468616e206d6178457468436170546f427579546f6b656e2ea26469706673582212200ff817d8a3b4c5572e4ea4970627139d12744e6e667d913011bacea58d941b1564736f6c634300060b0033"}}