{
  "opcodeHash": "0xff9459f879d96cfc75c14fb8780dc8e7ef8ac018520e82863ad7bfd1fcc43d69",
  "metalessHash": "0xdb2e91dfd942095da16bbe01498da1d77aab854d234b29b5f57b59ec770d9549",
  "runtimeHash": "0x6209494da05b95bdd456329749c006814daaf809f07df043b056f3fc9bf338ec",
  "encodedMetadata": [
    {
      "bzzr0": "/swarm/bzzr0/18bfdf554ffd6b3b078e8ec8e8e9aee8a6b34525c1778ea0b1ba349e0b145b6c"
    }
  ],
  "abi": [
    {
      "constant": true,
      "inputs": [
        {
          "name": "customerAddress",
          "type": "address"
        }
      ],
      "name": "dividendsOf",
      "outputs": [
        {
          "name": "",
          "type": "uint256"
        }
      ],
      "payable": false,
      "stateMutability": "view",
      "type": "function"
    },
    {
      "constant": false,
      "inputs": [
        {
          "name": "amount",
          "type": "uint256"
        },
        {
          "name": "withdrawAfter",
          "type": "bool"
        }
      ],
      "name": "sell",
      "outputs": [
        {
          "name": "",
          "type": "uint256"
        }
      ],
      "payable": false,
      "stateMutability": "nonpayable",
      "type": "function"
    },
    {
      "constant": true,
      "inputs": [],
      "name": "name",
      "outputs": [
        {
          "name": "",
          "type": "string"
        }
      ],
      "payable": false,
      "stateMutability": "view",
      "type": "function"
    },
    {
      "constant": false,
      "inputs": [
        {
          "name": "spender",
          "type": "address"
        },
        {
          "name": "value",
          "type": "uint256"
        }
      ],
      "name": "approve",
      "outputs": [
        {
          "name": "",
          "type": "bool"
        }
      ],
      "payable": false,
      "stateMutability": "nonpayable",
      "type": "function"
    },
    {
      "constant": true,
      "inputs": [
        {
          "name": "accountHolder",
          "type": "address"
        }
      ],
      "name": "gauntletTypeOf",
      "outputs": [
        {
          "name": "stakeAmount",
          "type": "uint256"
        },
        {
          "name": "gType",
          "type": "uint256"
        },
        {
          "name": "end",
          "type": "uint256"
        }
      ],
      "payable": false,
      "stateMutability": "view",
      "type": "function"
    },
    {
      "constant": true,
      "inputs": [
        {
          "name": "ethereumToSpend",
          "type": "uint256"
        }
      ],
      "name": "calculateTokensReceived",
      "outputs": [
        {
          "name": "",
          "type": "uint256"
        }
      ],
      "payable": false,
      "stateMutability": "view",
      "type": "function"
    },
    {
      "constant": true,
      "inputs": [],
      "name": "totalSupply",
      "outputs": [
        {
          "name": "",
          "type": "uint256"
        }
      ],
      "payable": false,
      "stateMutability": "view",
      "type": "function"
    },
    {
      "constant": false,
      "inputs": [
        {
          "name": "ethToReinvest",
          "type": "uint256"
        }
      ],
      "name": "reinvestPartial",
      "outputs": [
        {
          "name": "",
          "type": "uint256"
        }
      ],
      "payable": false,
      "stateMutability": "nonpayable",
      "type": "function"
    },
    {
      "constant": true,
      "inputs": [
        {
          "name": "tokensToSell",
          "type": "uint256"
        }
      ],
      "name": "calculateEthereumReceived",
      "outputs": [
        {
          "name": "",
          "type": "uint256"
        }
      ],
      "payable": false,
      "stateMutability": "view",
      "type": "function"
    },
    {
      "constant": false,
      "inputs": [
        {
          "name": "from",
          "type": "address"
        },
        {
          "name": "to",
          "type": "address"
        },
        {
          "name": "value",
          "type": "uint256"
        }
      ],
      "name": "transferFrom",
      "outputs": [
        {
          "name": "success",
          "type": "bool"
        }
      ],
      "payable": false,
      "stateMutability": "nonpayable",
      "type": "function"
    },
    {
      "constant": false,
      "inputs": [
        {
          "name": "to",
          "type": "address"
        },
        {
          "name": "ignore",
          "type": "bool"
        }
      ],
      "name": "ignoreTokenFallback",
      "outputs": [],
      "payable": false,
      "stateMutability": "nonpayable",
      "type": "function"
    },
    {
      "constant": true,
      "inputs": [],
      "name": "decimals",
      "outputs": [
        {
          "name": "",
          "type": "uint8"
        }
      ],
      "payable": false,
      "stateMutability": "view",
      "type": "function"
    },
    {
      "constant": true,
      "inputs": [],
      "name": "myDividends",
      "outputs": [
        {
          "name": "",
          "type": "uint256"
        }
      ],
      "payable": false,
      "stateMutability": "view",
      "type": "function"
    },
    {
      "constant": false,
      "inputs": [
        {
          "name": "amount",
          "type": "uint256"
        },
        {
          "name": "extGauntlet",
          "type": "address"
        }
      ],
      "name": "acquireExternalGauntlet",
      "outputs": [],
      "payable": false,
      "stateMutability": "nonpayable",
      "type": "function"
    },
    {
      "constant": false,
      "inputs": [],
      "name": "withdraw",
      "outputs": [],
      "payable": false,
      "stateMutability": "nonpayable",
      "type": "function"
    },
    {
      "constant": true,
      "inputs": [],
      "name": "myGauntletType",
      "outputs": [
        {
          "name": "stakeAmount",
          "type": "uint256"
        },
        {
          "name": "gType",
          "type": "uint256"
        },
        {
          "name": "end",
          "type": "uint256"
        }
      ],
      "payable": false,
      "stateMutability": "view",
      "type": "function"
    },
    {
      "constant": false,
      "inputs": [],
      "name": "allowIgnoreTokenFallback",
      "outputs": [],
      "payable": false,
      "stateMutability": "nonpayable",
      "type": "function"
    },
    {
      "constant": true,
      "inputs": [],
      "name": "stakingRequirement",
      "outputs": [
        {
          "name": "",
          "type": "uint256"
        }
      ],
      "payable": false,
      "stateMutability": "view",
      "type": "function"
    },
    {
      "constant": true,
      "inputs": [],
      "name": "baseBITX",
      "outputs": [
        {
          "name": "",
          "type": "address"
        }
      ],
      "payable": false,
      "stateMutability": "view",
      "type": "function"
    },
    {
      "constant": true,
      "inputs": [
        {
          "name": "includeReferralBonus",
          "type": "bool"
        }
      ],
      "name": "myDividends",
      "outputs": [
        {
          "name": "",
          "type": "uint256"
        }
      ],
      "payable": false,
      "stateMutability": "view",
      "type": "function"
    },
    {
      "constant": false,
      "inputs": [
        {
          "name": "r",
          "type": "uint256"
        }
      ],
      "name": "setReferralRequirement",
      "outputs": [],
      "payable": false,
      "stateMutability": "nonpayable",
      "type": "function"
    },
    {
      "constant": true,
      "inputs": [],
      "name": "lastTotalBalance",
      "outputs": [
        {
          "name": "",
          "type": "uint256"
        }
      ],
      "payable": false,
      "stateMutability": "view",
      "type": "function"
    },
    {
      "constant": true,
      "inputs": [
        {
          "name": "accountHolder",
          "type": "address"
        }
      ],
      "name": "balanceOf",
      "outputs": [
        {
          "name": "balance",
          "type": "uint256"
        }
      ],
      "payable": false,
      "stateMutability": "view",
      "type": "function"
    },
    {
      "constant": true,
      "inputs": [
        {
          "name": "customerAddress",
          "type": "address"
        },
        {
          "name": "includeReferralBonus",
          "type": "bool"
        }
      ],
      "name": "dividendsOf",
      "outputs": [
        {
          "name": "",
          "type": "uint256"
        }
      ],
      "payable": false,
      "stateMutability": "view",
      "type": "function"
    },
    {
      "constant": true,
      "inputs": [
        {
          "name": "customerAddress",
          "type": "address"
        }
      ],
      "name": "refBonusOf",
      "outputs": [
        {
          "name": "",
          "type": "uint256"
        }
      ],
      "payable": false,
      "stateMutability": "view",
      "type": "function"
    },
    {
      "constant": true,
      "inputs": [],
      "name": "refHandlerAddress",
      "outputs": [
        {
          "name": "",
          "type": "address"
        }
      ],
      "payable": false,
      "stateMutability": "view",
      "type": "function"
    },
    {
      "constant": true,
      "inputs": [],
      "name": "symbol",
      "outputs": [
        {
          "name": "",
          "type": "string"
        }
      ],
      "payable": false,
      "stateMutability": "view",
      "type": "function"
    },
    {
      "constant": false,
      "inputs": [
        {
          "name": "amount",
          "type": "uint256"
        },
        {
          "name": "gType",
          "type": "uint8"
        },
        {
          "name": "end",
          "type": "uint256"
        }
      ],
      "name": "acquireGauntlet",
      "outputs": [],
      "payable": false,
      "stateMutability": "nonpayable",
      "type": "function"
    },
    {
      "constant": false,
      "inputs": [],
      "name": "donateDividends",
      "outputs": [],
      "payable": true,
      "stateMutability": "payable",
      "type": "function"
    },
    {
      "constant": false,
      "inputs": [
        {
          "name": "ref",
          "type": "address"
        }
      ],
      "name": "setReferrer",
      "outputs": [],
      "payable": false,
      "stateMutability": "nonpayable",
      "type": "function"
    },
    {
      "constant": false,
      "inputs": [
        {
          "name": "n",
          "type": "string"
        },
        {
          "name": "s",
          "type": "string"
        }
      ],
      "name": "rebrand",
      "outputs": [],
      "payable": false,
      "stateMutability": "nonpayable",
      "type": "function"
    },
    {
      "constant": false,
      "inputs": [
        {
          "name": "to",
          "type": "address"
        },
        {
          "name": "value",
          "type": "uint256"
        }
      ],
      "name": "transfer",
      "outputs": [
        {
          "name": "",
          "type": "bool"
        }
      ],
      "payable": false,
      "stateMutability": "nonpayable",
      "type": "function"
    },
    {
      "constant": true,
      "inputs": [],
      "name": "totalBalance",
      "outputs": [
        {
          "name": "",
          "type": "uint256"
        }
      ],
      "payable": false,
      "stateMutability": "view",
      "type": "function"
    },
    {
      "constant": false,
      "inputs": [
        {
          "name": "shitCoin",
          "type": "address"
        }
      ],
      "name": "takeShitcoin",
      "outputs": [],
      "payable": false,
      "stateMutability": "nonpayable",
      "type": "function"
    },
    {
      "constant": true,
      "inputs": [],
      "name": "myRefBonus",
      "outputs": [
        {
          "name": "",
          "type": "uint256"
        }
      ],
      "payable": false,
      "stateMutability": "view",
      "type": "function"
    },
    {
      "constant": false,
      "inputs": [
        {
          "name": "ethToReinvest",
          "type": "uint256"
        },
        {
          "name": "withdrawAfter",
          "type": "bool"
        }
      ],
      "name": "reinvestPartial",
      "outputs": [
        {
          "name": "tokensCreated",
          "type": "uint256"
        }
      ],
      "payable": false,
      "stateMutability": "nonpayable",
      "type": "function"
    },
    {
      "constant": false,
      "inputs": [
        {
          "name": "to",
          "type": "address"
        },
        {
          "name": "value",
          "type": "uint256"
        },
        {
          "name": "data",
          "type": "bytes"
        }
      ],
      "name": "transfer",
      "outputs": [
        {
          "name": "",
          "type": "bool"
        }
      ],
      "payable": false,
      "stateMutability": "nonpayable",
      "type": "function"
    },
    {
      "constant": true,
      "inputs": [
        {
          "name": "from",
          "type": "address"
        },
        {
          "name": "value",
          "type": "uint256"
        },
        {
          "name": "data",
          "type": "bytes"
        }
      ],
      "name": "tokenFallback",
      "outputs": [],
      "payable": false,
      "stateMutability": "pure",
      "type": "function"
    },
    {
      "constant": true,
      "inputs": [],
      "name": "myBalance",
      "outputs": [
        {
          "name": "",
          "type": "uint256"
        }
      ],
      "payable": false,
      "stateMutability": "view",
      "type": "function"
    },
    {
      "constant": true,
      "inputs": [
        {
          "name": "",
          "type": "address"
        }
      ],
      "name": "savedReferral",
      "outputs": [
        {
          "name": "",
          "type": "address"
        }
      ],
      "payable": false,
      "stateMutability": "view",
      "type": "function"
    },
    {
      "constant": true,
      "inputs": [
        {
          "name": "sugardaddy",
          "type": "address"
        },
        {
          "name": "spender",
          "type": "address"
        }
      ],
      "name": "allowance",
      "outputs": [
        {
          "name": "remaining",
          "type": "uint256"
        }
      ],
      "payable": false,
      "stateMutability": "view",
      "type": "function"
    },
    {
      "constant": false,
      "inputs": [
        {
          "name": "amount",
          "type": "uint256"
        }
      ],
      "name": "sell",
      "outputs": [
        {
          "name": "",
          "type": "uint256"
        }
      ],
      "payable": false,
      "stateMutability": "nonpayable",
      "type": "function"
    },
    {
      "constant": false,
      "inputs": [],
      "name": "exit",
      "outputs": [],
      "payable": false,
      "stateMutability": "nonpayable",
      "type": "function"
    },
    {
      "constant": true,
      "inputs": [
        {
          "name": "accountHolder",
          "type": "address"
        }
      ],
      "name": "usableBalanceOf",
      "outputs": [
        {
          "name": "balance",
          "type": "uint256"
        }
      ],
      "payable": false,
      "stateMutability": "view",
      "type": "function"
    },
    {
      "constant": false,
      "inputs": [],
      "name": "acceptNewOwner",
      "outputs": [],
      "payable": false,
      "stateMutability": "nonpayable",
      "type": "function"
    },
    {
      "constant": false,
      "inputs": [
        {
          "name": "referrerAddress",
          "type": "address"
        }
      ],
      "name": "buy",
      "outputs": [
        {
          "name": "",
          "type": "uint256"
        }
      ],
      "payable": true,
      "stateMutability": "payable",
      "type": "function"
    },
    {
      "constant": true,
      "inputs": [],
      "name": "myUsableBalance",
      "outputs": [
        {
          "name": "balance",
          "type": "uint256"
        }
      ],
      "payable": false,
      "stateMutability": "view",
      "type": "function"
    },
    {
      "constant": false,
      "inputs": [
        {
          "name": "o",
          "type": "address"
        }
      ],
      "name": "setNewOwner",
      "outputs": [],
      "payable": false,
      "stateMutability": "nonpayable",
      "type": "function"
    },
    {
      "constant": false,
      "inputs": [
        {
          "name": "to",
          "type": "address"
        },
        {
          "name": "value",
          "type": "uint256"
        },
        {
          "name": "data",
          "type": "bytes"
        },
        {
          "name": "func",
          "type": "string"
        }
      ],
      "name": "transfer",
      "outputs": [
        {
          "name": "",
          "type": "bool"
        }
      ],
      "payable": false,
      "stateMutability": "nonpayable",
      "type": "function"
    },
    {
      "constant": false,
      "inputs": [],
      "name": "reinvest",
      "outputs": [
        {
          "name": "",
          "type": "uint256"
        }
      ],
      "payable": false,
      "stateMutability": "nonpayable",
      "type": "function"
    },
    {
      "inputs": [
        {
          "name": "h",
          "type": "address"
        }
      ],
      "payable": false,
      "stateMutability": "nonpayable",
      "type": "constructor"
    },
    {
      "payable": true,
      "stateMutability": "payable",
      "type": "fallback"
    },
    {
      "anonymous": false,
      "inputs": [
        {
          "indexed": true,
          "name": "tokenOwner",
          "type": "address"
        },
        {
          "indexed": true,
          "name": "spender",
          "type": "address"
        },
        {
          "indexed": false,
          "name": "tokens",
          "type": "uint256"
        }
      ],
      "name": "Approval",
      "type": "event"
    },
    {
      "anonymous": false,
      "inputs": [
        {
          "indexed": true,
          "name": "from",
          "type": "address"
        },
        {
          "indexed": true,
          "name": "to",
          "type": "address"
        },
        {
          "indexed": false,
          "name": "value",
          "type": "uint256"
        }
      ],
      "name": "Transfer",
      "type": "event"
    },
    {
      "anonymous": false,
      "inputs": [
        {
          "indexed": true,
          "name": "from",
          "type": "address"
        },
        {
          "indexed": true,
          "name": "to",
          "type": "address"
        },
        {
          "indexed": false,
          "name": "value",
          "type": "uint256"
        },
        {
          "indexed": true,
          "name": "data",
          "type": "bytes"
        }
      ],
      "name": "Transfer",
      "type": "event"
    },
    {
      "anonymous": false,
      "inputs": [
        {
          "indexed": true,
          "name": "accountHolder",
          "type": "address"
        },
        {
          "indexed": false,
          "name": "ethereumSpent",
          "type": "uint256"
        },
        {
          "indexed": false,
          "name": "tokensCreated",
          "type": "uint256"
        },
        {
          "indexed": false,
          "name": "tokensGiven",
          "type": "uint256"
        },
        {
          "indexed": true,
          "name": "referrer",
          "type": "address"
        },
        {
          "indexed": true,
          "name": "bitFlags",
          "type": "uint8"
        }
      ],
      "name": "onTokenPurchase",
      "type": "event"
    },
    {
      "anonymous": false,
      "inputs": [
        {
          "indexed": true,
          "name": "accountHolder",
          "type": "address"
        },
        {
          "indexed": false,
          "name": "tokensDestroyed",
          "type": "uint256"
        },
        {
          "indexed": false,
          "name": "ethereumEarned",
          "type": "uint256"
        }
      ],
      "name": "onTokenSell",
      "type": "event"
    },
    {
      "anonymous": false,
      "inputs": [
        {
          "indexed": true,
          "name": "accountHolder",
          "type": "address"
        },
        {
          "indexed": false,
          "name": "earningsWithdrawn",
          "type": "uint256"
        },
        {
          "indexed": false,
          "name": "refBonusWithdrawn",
          "type": "uint256"
        },
        {
          "indexed": true,
          "name": "reinvestment",
          "type": "bool"
        }
      ],
      "name": "onWithdraw",
      "type": "event"
    },
    {
      "anonymous": false,
      "inputs": [
        {
          "indexed": true,
          "name": "donator",
          "type": "address"
        },
        {
          "indexed": false,
          "name": "ethereumDonated",
          "type": "uint256"
        }
      ],
      "name": "onDonatedDividends",
      "type": "event"
    },
    {
      "anonymous": false,
      "inputs": [
        {
          "indexed": true,
          "name": "strongHands",
          "type": "address"
        },
        {
          "indexed": false,
          "name": "stakeAmount",
          "type": "uint256"
        },
        {
          "indexed": true,
          "name": "gauntletType",
          "type": "uint8"
        },
        {
          "indexed": false,
          "name": "end",
          "type": "uint256"
        }
      ],
      "name": "onGauntletAcquired",
      "type": "event"
    },
    {
      "anonymous": false,
      "inputs": [
        {
          "indexed": true,
          "name": "strongHands",
          "type": "address"
        },
        {
          "indexed": false,
          "name": "stakeAmount",
          "type": "uint256"
        },
        {
          "indexed": true,
          "name": "extGauntlet",
          "type": "address"
        }
      ],
      "name": "onExternalGauntletAcquired",
      "type": "event"
    }
  ],
  "bytecode": {
    "object": "6080604052600060035560006004553480156200001b57600080fd5b5060405160208062005c2f833981018060405260208110156200003d57600080fd5b50516040805180820190915260098082527f4269745820476f6c6400000000000000000000000000000000000000000000006020909201918252620000859160119162000208565b506040805180820190915260048082527f42585447000000000000000000000000000000000000000000000000000000006020909201918252620000cc9160129162000208565b506013805460ff19166012179055600060145560058054600160a060020a03808416600160a060020a03199092169190911791829055604080517f56d399e8000000000000000000000000000000000000000000000000000000008152905192909116916356d399e891600480820192602092909190829003018186803b1580156200015757600080fd5b505afa1580156200016c573d6000803e3d6000fd5b505050506040513d60208110156200018357600080fd5b5051600255600554600160a060020a03166200019e6200028d565b600160a060020a03909116815260405190819003602001906000f080158015620001cc573d6000803e3d6000fd5b5060068054600160a060020a0392909216600160a060020a0319928316179055600b805460ff19169055600080549091163317905550620002be565b828054600181600116156101000203166002900490600052602060002090601f016020900481019282601f106200024b57805160ff19168380011785556200027b565b828001600101855582156200027b579182015b828111156200027b5782518255916020019190600101906200025e565b50620002899291506200029e565b5090565b604051610e4e8062004de183390190565b620002bb91905b80821115620002895760008155600101620002a5565b90565b614b1380620002ce6000396000f3fe608060405260043610610254577c0100000000000000000000000000000000000000000000000000000000600035046265318b81146102b6578063010dbfec146102fb57806306fdde031461032d578063095ea7b3146103b75780630f66d0821461040457806310d0ffdd1461045557806318160ddd1461047f5780631d54e16e1461049457806322609373146104be57806323b872dd146104e85780632c23f91a1461052b578063313ce567146105665780633151ecfc14610591578063365db060146105a65780633ccfd60b146105df57806341e2cdf4146105f45780634f0925101461060957806356d399e81461061e57806361d5775414610633578063688abbf7146106645780636addf029146106905780636b5cb95e146106ba57806370a08231146106cf57806374a76816146107025780637b169f8c1461073d57806382ea872c1461077057806395d89b41146107855780639de6c1621461079a5780639e4ba75b146107d3578063a18a7bfc146107db578063a615237e1461080e578063a9059cbb14610948578063ad7a672f14610981578063ade342ab14610996578063ba61ee09146109c9578063bc2c5873146109de578063be45fd6214610a10578063c0ee0b8a14610ad8578063c9116b6914610ba0578063d259930014610bb5578063dd62ed3e14610be8578063e4849b3214610c23578063e9fad8ee14610c4d578063ebec775214610c62578063f05a781d14610c95578063f088d54714610caa578063f30c929614610cd0578063f5a1f5b414610ce5578063f6368f8a14610d18578063fdb5a03e14610e67575b600554600160a060020a0316331480159061027a5750600654600160a060020a03163314155b156102b45760003411156102a557600480543401905561029b600080610e7c565b6004805434900390555b6102b23334600080610f08565b505b005b3480156102c257600080fd5b506102e9600480360360208110156102d957600080fd5b5035600160a060020a0316611baf565b60408051918252519081900360200190f35b34801561030757600080fd5b506102e96004803603604081101561031e57600080fd5b50803590602001351515611bc4565b34801561033957600080fd5b50610342611c6e565b6040805160208082528351818301528351919283929083019185019080838360005b8381101561037c578181015183820152602001610364565b50505050905090810190601f1680156103a95780820380516001836020036101000a031916815260200191505b509250505060405180910390f35b3480156103c357600080fd5b506103f0600480360360408110156103da57600080fd5b50600160a060020a038135169060200135611cfc565b604080519115158252519081900360200190f35b34801561041057600080fd5b506104376004803603602081101561042757600080fd5b5035600160a060020a0316611ddc565b60408051938452602084019290925282820152519081900360600190f35b34801561046157600080fd5b506102e96004803603602081101561047857600080fd5b5035611e4f565b34801561048b57600080fd5b506102e9611ee6565b3480156104a057600080fd5b506102e9600480360360208110156104b757600080fd5b5035611eec565b3480156104ca57600080fd5b506102e9600480360360208110156104e157600080fd5b5035611ef9565b3480156104f457600080fd5b506103f06004803603606081101561050b57600080fd5b50600160a060020a03813581169160208101359091169060400135611f5e565b34801561053757600080fd5b506102b46004803603604081101561054e57600080fd5b50600160a060020a03813516906020013515156120c6565b34801561057257600080fd5b5061057b612171565b6040805160ff9092168252519081900360200190f35b34801561059d57600080fd5b506102e961217a565b3480156105b257600080fd5b506102b4600480360360408110156105c957600080fd5b5080359060200135600160a060020a031661218d565b3480156105eb57600080fd5b506102b46121a2565b34801561060057600080fd5b50610437612226565b34801561061557600080fd5b506102b461223f565b34801561062a57600080fd5b506102e9612265565b34801561063f57600080fd5b5061064861226b565b60408051600160a060020a039092168252519081900360200190f35b34801561067057600080fd5b506102e96004803603602081101561068757600080fd5b5035151561227a565b34801561069c57600080fd5b506102b4600480360360208110156106b357600080fd5b5035612286565b3480156106c657600080fd5b506102e96122a2565b3480156106db57600080fd5b506102e9600480360360208110156106f257600080fd5b5035600160a060020a03166122a8565b34801561070e57600080fd5b506102e96004803603604081101561072557600080fd5b50600160a060020a03813516906020013515156122c3565b34801561074957600080fd5b506102e96004803603602081101561076057600080fd5b5035600160a060020a0316612323565b34801561077c57600080fd5b5061064861233e565b34801561079157600080fd5b5061034261234d565b3480156107a657600080fd5b506102b4600480360360608110156107bd57600080fd5b5080359060ff60208201351690604001356123a8565b6102b4612cd0565b3480156107e757600080fd5b506102b4600480360360208110156107fe57600080fd5b5035600160a060020a0316612d13565b34801561081a57600080fd5b506102b46004803603604081101561083157600080fd5b81019060208101813564010000000081111561084c57600080fd5b82018360208201111561085e57600080fd5b8035906020019184600183028401116401000000008311171561088057600080fd5b91908080601f01602080910402602001604051908101604052809392919081815260200183838082843760009201919091525092959493602081019350359150506401000000008111156108d357600080fd5b8201836020820111156108e557600080fd5b8035906020019184600183028401116401000000008311171561090757600080fd5b91908080601f016020809104026020016040519081016040528093929190818152602001838380828437600092019190915250929550612d4f945050505050565b34801561095457600080fd5b506103f06004803603604081101561096b57600080fd5b50600160a060020a038135169060200135612d92565b34801561098d57600080fd5b506102e9612de7565b3480156109a257600080fd5b506102b4600480360360208110156109b957600080fd5b5035600160a060020a0316612f0b565b3480156109d557600080fd5b506102e96130af565b3480156109ea57600080fd5b506102e960048036036040811015610a0157600080fd5b508035906020013515156130c2565b348015610a1c57600080fd5b506103f060048036036060811015610a3357600080fd5b600160a060020a0382351691602081013591810190606081016040820135640100000000811115610a6357600080fd5b820183602082011115610a7557600080fd5b80359060200191846001830284011164010000000083111715610a9757600080fd5b91908080601f01602080910402602001604051908101604052809392919081815260200183838082843760009201919091525092955061326e945050505050565b348015610ae457600080fd5b506102b460048036036060811015610afb57600080fd5b600160a060020a0382351691602081013591810190606081016040820135640100000000811115610b2b57600080fd5b820183602082011115610b3d57600080fd5b80359060200191846001830284011164010000000083111715610b5f57600080fd5b91908080601f016020809104026020016040519081016040528093929190818152602001838380828437600092019190915250929550613299945050505050565b348015610bac57600080fd5b506102e9613300565b348015610bc157600080fd5b5061064860048036036020811015610bd857600080fd5b5035600160a060020a0316613313565b348015610bf457600080fd5b506102e960048036036040811015610c0b57600080fd5b50600160a060020a038135811691602001351661332e565b348015610c2f57600080fd5b506102e960048036036020811015610c4657600080fd5b5035613359565b348015610c5957600080fd5b506102b46133d3565b348015610c6e57600080fd5b506102e960048036036020811015610c8557600080fd5b5035600160a060020a0316613413565b348015610ca157600080fd5b506102b461347d565b6102e960048036036020811015610cc057600080fd5b5035600160a060020a03166134b5565b348015610cdc57600080fd5b506102e96134e9565b348015610cf157600080fd5b506102b460048036036020811015610d0857600080fd5b5035600160a060020a03166134f4565b348015610d2457600080fd5b506103f060048036036080811015610d3b57600080fd5b600160a060020a0382351691602081013591810190606081016040820135640100000000811115610d6b57600080fd5b820183602082011115610d7d57600080fd5b80359060200191846001830284011164010000000083111715610d9f57600080fd5b91908080601f0160208091040260200160405190810160405280939291908181526020018383808284376000920191909152509295949360208101935035915050640100000000811115610df257600080fd5b820183602082011115610e0457600080fd5b80359060200191846001830284011164010000000083111715610e2657600080fd5b91908080601f01602080910402602001604051908101604052809392919081815260200183838082843760009201919091525092955061353a945050505050565b348015610e7357600080fd5b506102e961354b565b60006014541115610f04576000610e91612de7565b60045490915081036000811115610f01578315610ec757600160a060020a03831660009081526008602052604090208054850190555b610ef56014546801000000000000000086840302811515610ee457fe5b60035491900463ffffffff6135c916565b60035560048054820190555b50505b5050565b600080600560009054906101000a9004600160a060020a0316600160a060020a03166356d399e86040518163ffffffff167c010000000000000000000000000000000000000000000000000000000002815260040160206040518083038186803b158015610f7557600080fd5b505afa158015610f89573d6000803e3d6000fd5b505050506040513d6020811015610f9f57600080fd5b505190506002600a860404600080600160a060020a0387161515610fdb57600160a060020a03808a166000908152600960205260409020541696505b600554600654604080517f70a08231000000000000000000000000000000000000000000000000000000008152600160a060020a039283166004820152905160009392909216916370a0823191602480820192602092909190829003018186803b15801561104857600080fd5b505afa15801561105c573d6000803e3d6000fd5b505050506040513d602081101561107257600080fd5b50519050600160a060020a038a81169089161415611093576001915061121f565b600160a060020a03881615156110ac576001925061121f565b600254600160a060020a0389166000908152600f60205260409020541080159061116d5750848110158061116d5750600554604080517f70a0823100000000000000000000000000000000000000000000000000000000815230600482015290518792600160a060020a0316916370a08231916024808301926020929190829003018186803b15801561113e57600080fd5b505afa158015611152573d6000803e3d6000fd5b505050506040513d602081101561116857600080fd5b505110155b156111775761121f565b600554604080517f70a08231000000000000000000000000000000000000000000000000000000008152600160a060020a038b811660048301529151889392909216916370a0823191602480820192602092909190829003018186803b1580156111e057600080fd5b505afa1580156111f4573d6000803e3d6000fd5b505050506040513d602081101561120a57600080fd5b50511061121a576001925061121f565b600191505b600554604080517f18160ddd0000000000000000000000000000000000000000000000000000000081529051600092600160a060020a0316916318160ddd916004808301926020929190829003018186803b15801561127d57600080fd5b505afa158015611291573d6000803e3d6000fd5b505050506040513d60208110156112a757600080fd5b50519050858210156115f55787156114b057600660009054906101000a9004600160a060020a0316600160a060020a031663ad7a672f6040518163ffffffff167c010000000000000000000000000000000000000000000000000000000002815260040160206040518083038186803b15801561132357600080fd5b505afa158015611337573d6000803e3d6000fd5b505050506040513d602081101561134d57600080fd5b5051915089821015611427579089039030318211156113eb57600560009054906101000a9004600160a060020a0316600160a060020a0316633ccfd60b6040518163ffffffff167c0100000000000000000000000000000000000000000000000000000000028152600401600060405180830381600087803b1580156113d257600080fd5b505af11580156113e6573d6000803e3d6000fd5b505050505b600654604051600160a060020a039091169083156108fc029084906000818181858888f19350505050158015611425573d6000803e3d6000fd5b505b600654604080517f27c2e437000000000000000000000000000000000000000000000000000000008152600060048201819052602482018e90529151600160a060020a03909316926327c2e4379260448084019391929182900301818387803b15801561149357600080fd5b505af11580156114a7573d6000803e3d6000fd5b50505050611559565b600654600160a060020a031663ec8ac4d88b856114d957866114d257306114d4565b8b5b6114dc565b60005b6040518363ffffffff167c01000000000000000000000000000000000000000000000000000000000281526004018082600160a060020a0316600160a060020a031681526020019150506000604051808303818588803b15801561153f57600080fd5b505af1158015611553573d6000803e3d6000fd5b50505050505b600554600654604080517f70a08231000000000000000000000000000000000000000000000000000000008152600160a060020a039283166004820152905191909216916370a08231916024808301926020929190829003018186803b1580156115c257600080fd5b505afa1580156115d6573d6000803e3d6000fd5b505050506040513d60208110156115ec57600080fd5b5051915061187c565b87156117b45730318a1180156116995750600554604080517f688abbf7000000000000000000000000000000000000000000000000000000008152600160048201529051600092600160a060020a03169163688abbf7916024808301926020929190829003018186803b15801561166b57600080fd5b505afa15801561167f573d6000803e3d6000fd5b505050506040513d602081101561169557600080fd5b5051115b1561172357600560009054906101000a9004600160a060020a0316600160a060020a0316633ccfd60b6040518163ffffffff167c0100000000000000000000000000000000000000000000000000000000028152600401600060405180830381600087803b15801561170a57600080fd5b505af115801561171e573d6000803e3d6000fd5b505050505b30318a11156117b457600654604080517f64a197f30000000000000000000000000000000000000000000000000000000081523060048201819052318d0360248201529051600160a060020a03909216916364a197f39160448082019260009290919082900301818387803b15801561179b57600080fd5b505af11580156117af573d6000803e3d6000fd5b505050505b600554600160a060020a031663f088d5478b856117e857866117e157600654600160a060020a03166117e3565b8b5b6117eb565b60005b6040518363ffffffff167c01000000000000000000000000000000000000000000000000000000000281526004018082600160a060020a0316600160a060020a031681526020019150506020604051808303818588803b15801561184e57600080fd5b505af1158015611862573d6000803e3d6000fd5b50505050506040513d602081101561187957600080fd5b50505b600554604080517f18160ddd00000000000000000000000000000000000000000000000000000000815290518392600160a060020a0316916318160ddd916004808301926020929190829003018186803b1580156118d957600080fd5b505afa1580156118ed573d6000803e3d6000fd5b505050506040513d602081101561190357600080fd5b5051601480549290910391820190819055600554604080517f949e8acd00000000000000000000000000000000000000000000000000000000815290519394506000938692600160a060020a03169163949e8acd916004808301926020929190829003018186803b15801561197757600080fd5b505afa15801561198b573d6000803e3d6000fd5b505050506040513d60208110156119a157600080fd5b5051600095500103905083156119b8576001831792505b84156119c5576002831792505b88156119d2576004831792505b8260ff168a600160a060020a03168d600160a060020a03167f815415bfeceef6daa3628de56840fbe7d8bfe09cb247b08b17e7f844c7e808478e868660405180848152602001838152602001828152602001935050505060405180910390a4600160a060020a038c166000818152600f6020908152604091829020805495850195860190556014805485019055815185815291517fc5d2460186f7233c927e7db2dcc703c0e500b653ca82273b7bfad8045d85a470939230927fe19260aff97b920c7df27010903aeb9c8d2be5d310a2c67824cf3f15396e4c1692918290030190a4604080518381529051600160a060020a038e169130917fddf252ad1be2c89b69c2b068fc378daa952ba7f163c4a11628f55a4df523b3ef9181900360200190a3600354600160a060020a038d166000908152600760205260409020805491840290910190558815611b3657600454611b32908c63ffffffff6135dc16565b6004555b611b558580611b425750845b611b4c5786611b4f565b60005b8b610e7c565b600160a060020a038a1615611ba057600160a060020a038c81166000908152600960205260409020805473ffffffffffffffffffffffffffffffffffffffff1916918c169190911790555b509a9950505050505050505050565b6000611bbc8260016122c3565b90505b919050565b6000808311611c3457604080517f08c379a000000000000000000000000000000000000000000000000000000000815260206004820152601a60248201527f596f75206861766520746f2073656c6c20736f6d657468696e67000000000000604482015290519081900360640190fd5b6000611c4033856135ee565b9050828015611c5957506000611c573360016122c3565b115b15611c6757611c6733613a87565b9392505050565b6011805460408051602060026001851615610100026000190190941693909304601f81018490048402820184019092528181529291830182828015611cf45780601f10611cc957610100808354040283529160200191611cf4565b820191906000526020600020905b815481529060010190602001808311611cd757829003601f168201915b505050505081565b600081611d0833613af7565b1015611d7557604080517f08c379a000000000000000000000000000000000000000000000000000000000815260206004820152601f60248201527f496e73756666696369656e742062616c616e636520746f20617070726f766500604482015290519081900360640190fd5b336000818152601060209081526040808320600160a060020a03881680855290835292819020869055805186815290519293927f8c5be1e5ebec7d5bd14f71427d1e84f3dd0314c0f7b2291e5b200ac8c7c3b925929181900390910190a350600192915050565b6000806000611dea84613c22565b15611e1257505050600160a060020a0381166000908152600d60205260408120548190611e48565b505050600160a060020a0381166000908152600c6020908152604080832054600e835281842054600d90935292205460ff909116905b9193909250565b600554604080517f10d0ffdd000000000000000000000000000000000000000000000000000000008152600481018490529051600092600160a060020a0316916310d0ffdd916024808301926020929190829003018186803b158015611eb457600080fd5b505afa158015611ec8573d6000803e3d6000fd5b505050506040513d6020811015611ede57600080fd5b505192915050565b60145481565b6000611bbc8260016130c2565b600554604080517f22609373000000000000000000000000000000000000000000000000000000008152600481018490529051600092600160a060020a0316916322609373916024808301926020929190829003018186803b158015611eb457600080fd5b600160a060020a0383166000908152601060209081526040808320338452909152812054818111611ff057604080517f08c379a000000000000000000000000000000000000000000000000000000000815260206004820152600c60248201527f4e6f7420617070726f7665640000000000000000000000000000000000000000604482015290519081900360640190fd5b8281101561205f57604080517f08c379a000000000000000000000000000000000000000000000000000000000815260206004820152601360248201527f4f766572207370656e64696e67206c696d697400000000000000000000000000604482015290519081900360640190fd5b61206f818463ffffffff6135dc16565b600160a060020a03861660009081526010602090815260408083203384528252808320939093558251808201845282815283519182019093528181526120bb9288928892889291613e22565b506001949350505050565b600b5460ff16151561213957604080517f08c379a000000000000000000000000000000000000000000000000000000000815260206004820152601960248201527f546869732066756e6374696f6e2069732064697361626c656400000000000000604482015290519081900360640190fd5b336000908152600a60209081526040808320600160a060020a0395909516835293905291909120805460ff1916911515919091179055565b60135460ff1681565b60006121873360016122c3565b90505b90565b610f0482600383600160a060020a03166123a8565b60006121af3360016122c3565b1161221b57604080517f08c379a000000000000000000000000000000000000000000000000000000000815260206004820152601860248201527f4e6f206469766964656e647320746f2077697468647261770000000000000000604482015290519081900360640190fd5b61222433613a87565b565b600080600061223433611ddc565b925092509250909192565b600054600160a060020a0316331461225657600080fd5b600b805460ff19166001179055565b60025490565b600554600160a060020a031690565b6000611bbc33836122c3565b600054600160a060020a0316331461229d57600080fd5b600255565b60045481565b600160a060020a03166000908152600f602052604090205490565b600160a060020a038216600090815260076020908152604080832054600f90925282205460035468010000000000000000910291909103048215611c6757600160a060020a03841660009081526008602052604090205401905092915050565b600160a060020a031660009081526008602052604090205490565b600654600160a060020a031690565b6012805460408051602060026001851615610100026000190190941693909304601f81018490048402820184019092528181529291830182828015611cf45780601f10611cc957610100808354040283529160200191611cf4565b336000908152600f602052604090205483111561242657604080517f08c379a000000000000000000000000000000000000000000000000000000000815260206004820152601460248201527f496e73756666696369656e742062616c616e6365000000000000000000000000604482015290519081900360640190fd5b336000908152600e602090815260408083208054600c8085528386208054600d875294909620805460ff8a811660ff198616179095559088905594529387905590921691908215156128cc578460ff16600114156125395762017bb042018410156124f257604080517f08c379a000000000000000000000000000000000000000000000000000000000815260206004820181905260248201527f4761756e746c65742074696d65206d757374206265203e3d2034207765656b73604482015290519081900360640190fd5b6040805187815260208101869052815160ff88169233927fa9990927036c19f74afbaf4840fd3ee8fa7a6f72d787106800bbc215c1bcc538929081900390910190a36128c7565b8460ff166002141561268d57600554604080517f18160ddd0000000000000000000000000000000000000000000000000000000081529051600092600160a060020a0316916318160ddd916004808301926020929190829003018186803b1580156125a357600080fd5b505afa1580156125b7573d6000803e3d6000fd5b505050506040513d60208110156125cd57600080fd5b5051905060058104810185101561264557604080517f08c379a000000000000000000000000000000000000000000000000000000000815260206004820152601b60248201527f4761756e746c6574206d757374206d616b6520612070726f6669740000000000604482015290519081900360640190fd5b6040805188815260208101879052815160ff89169233927fa9990927036c19f74afbaf4840fd3ee8fa7a6f72d787106800bbc215c1bcc538929081900390910190a3506128c7565b8460ff166003141561286057600160a060020a0384111561270f57604080517f08c379a000000000000000000000000000000000000000000000000000000000815260206004820152600f60248201527f496e76616c696420616464726573730000000000000000000000000000000000604482015290519081900360640190fd5b604080517f127b0efd000000000000000000000000000000000000000000000000000000008152336004820152600060248201819052604482018990529151600160a060020a0387169263127b0efd92606480820193602093909283900390910190829087803b15801561278257600080fd5b505af1158015612796573d6000803e3d6000fd5b505050506040513d60208110156127ac57600080fd5b5051151561281b57604080517f08c379a000000000000000000000000000000000000000000000000000000000815260206004820152601e60248201527f45787465726e616c206761756e746c657420636865636b206661696c65640000604482015290519081900360640190fd5b604080518781529051600160a060020a0386169133917ffd485e840ff263867a8e752aa5182c86e69052b8d3b7ca0f0e2092927f4a41259181900360200190a36128c7565b604080517f08c379a000000000000000000000000000000000000000000000000000000000815260206004820152601560248201527f496e76616c6964206761756e746c657420747970650000000000000000000000604482015290519081900360640190fd5b612cc8565b8260031415612b1157600360ff86161461294757604080517f08c379a000000000000000000000000000000000000000000000000000000000815260206004820152601e60248201527f4e6577206761756e746c6574206d7573742062652073616d6520747970650000604482015290519081900360640190fd5b336000908152600d602052604090205484146129c457604080517f08c379a000000000000000000000000000000000000000000000000000000000815260206004820152601e60248201527f4d7573742062652073616d652065787465726e616c206761756e746c65740000604482015290519081900360640190fd5b604080517f127b0efd00000000000000000000000000000000000000000000000000000000815233600482015260248101849052604481018890529051600160a060020a0386169163127b0efd9160648083019260209291908290030181600087803b158015612a3357600080fd5b505af1158015612a47573d6000803e3d6000fd5b505050506040513d6020811015612a5d57600080fd5b50511515612acc57604080517f08c379a000000000000000000000000000000000000000000000000000000000815260206004820152601e60248201527f45787465726e616c206761756e746c657420636865636b206661696c65640000604482015290519081900360640190fd5b604080518781529051600160a060020a0386169133917ffd485e840ff263867a8e752aa5182c86e69052b8d3b7ca0f0e2092927f4a41259181900360200190a3612cc8565b60ff85168314612b8257604080517f08c379a000000000000000000000000000000000000000000000000000000000815260206004820152601e60248201527f4e6577206761756e746c6574206d7573742062652073616d6520747970650000604482015290519081900360640190fd5b808411612bf057604080517f08c379a000000000000000000000000000000000000000000000000000000000815260206004820152601b60248201527f4761756e746c6574206d75737420626520616e20757067726164650000000000604482015290519081900360640190fd5b81861015612c8557604080517f08c379a000000000000000000000000000000000000000000000000000000000815260206004820152602260248201527f4e6577206761756e746c6574206d75737420686f6c64206d6f726520746f6b6560448201527f6e73000000000000000000000000000000000000000000000000000000000000606482015290519081900360840190fd5b6040805187815260208101869052815160ff88169233927fa9990927036c19f74afbaf4840fd3ee8fa7a6f72d787106800bbc215c1bcc538929081900390910190a35b505050505050565b612cdb600080610e7c565b60408051348152905133917fce52884489674b3dab23b5fa20d06b50095e888dcab638e6a31276c442a0bf6b919081900360200190a2565b336000908152600960205260409020805473ffffffffffffffffffffffffffffffffffffffff1916600160a060020a0392909216919091179055565b600054600160a060020a03163314612d6657600080fd5b8151612d79906011906020850190614a4f565b508051612d8d906012906020840190614a4f565b505050565b604080516020818101835260008083528351808301855281815233808352600a8452858320600160a060020a0389168452909352938120549093612dde93879287929060ff1615613e22565b50600192915050565b600654604080517fad7a672f0000000000000000000000000000000000000000000000000000000081529051600092600160a060020a03169163ad7a672f916004808301926020929190829003018186803b158015612e4557600080fd5b505afa158015612e59573d6000803e3d6000fd5b505050506040513d6020811015612e6f57600080fd5b5051600554604080517f688abbf7000000000000000000000000000000000000000000000000000000008152600160048201529051600160a060020a039092169163688abbf791602480820192602092909190829003018186803b158015612ed657600080fd5b505afa158015612eea573d6000803e3d6000fd5b505050506040513d6020811015612f0057600080fd5b505130310101905090565b600554600160a060020a0382811691161415612f8857604080517f08c379a000000000000000000000000000000000000000000000000000000000815260206004820152601560248201527f424954582069736e277420612073686974636f696e0000000000000000000000604482015290519081900360640190fd5b604080517f70a0823100000000000000000000000000000000000000000000000000000000815230600482015290518291600160a060020a0383169163a9059cbb91339184916370a08231916024808301926020929190829003018186803b158015612ff357600080fd5b505afa158015613007573d6000803e3d6000fd5b505050506040513d602081101561301d57600080fd5b5051604080517c010000000000000000000000000000000000000000000000000000000063ffffffff8616028152600160a060020a03909316600484015260248301919091525160448083019260209291908290030181600087803b15801561308557600080fd5b505af1158015613099573d6000803e3d6000fd5b505050506040513d6020811015610f0157600080fd5b3360009081526008602052604090205490565b6000336130cf8280610e7c565b60006130dc8260006122c3565b600160a060020a0383166000908152600860205260408120549192508082840188111561319057604080517f08c379a000000000000000000000000000000000000000000000000000000000815260206004820152602560248201527f496e73756666696369656e742062616c616e636520666f72207265696e76657360448201527f746d656e74000000000000000000000000000000000000000000000000000000606482015290519081900360840190fd5b828811156131cf575050600160a060020a03831660009081526007602052604090208054828803680100000000000000008102909101909155816131d2565b50865b600160a060020a0385166000818152600860209081526040918290208054859003905581518581529081018490528151600193927f2c0790d4cb2a4cd6281eeb9a251fcfb577eacacbf422f94ff8a2888b924b167b928290030190a361323c858960006001610f08565b9550868015613255575060006132533360016122c3565b115b156132635761326333613a87565b505050505092915050565b600061328f3385858560206040519081016040528060008152506001613e22565b5060019392505050565b604080517f08c379a000000000000000000000000000000000000000000000000000000000815260206004820152601c60248201527f4920646f6e27742077616e7420796f75722073686974636f696e732100000000604482015290519081900360640190fd5b336000908152600f602052604090205490565b600960205260009081526040902054600160a060020a031681565b600160a060020a03918216600090815260106020908152604080832093909416825291909152205490565b60008082116133c957604080517f08c379a000000000000000000000000000000000000000000000000000000000815260206004820152601a60248201527f596f75206861766520746f2073656c6c20736f6d657468696e67000000000000604482015290519081900360640190fd5b611bbc33836135ee565b336000818152600f6020526040812054908111156133f7576133f582826135ee565b505b60006134048360016122c3565b1115610f0457610f0482613a87565b600061341e82613c22565b156134425750600160a060020a0381166000908152600f6020526040902054611bbf565b600160a060020a0382166000908152600c6020908152604080832054600f909252909120546134769163ffffffff6135dc16565b9050611bbf565b600154600160a060020a0316331461349457600080fd5b6000805473ffffffffffffffffffffffffffffffffffffffff191633179055565b6000803411156134dc5760048054340190556134d2600080610e7c565b6004805434900390555b611bbc3334846000610f08565b600061218733613413565b600054600160a060020a0316331461350b57600080fd5b6001805473ffffffffffffffffffffffffffffffffffffffff1916600160a060020a0392909216919091179055565b60006120bb33868686866001613e22565b6000336135588280610e7c565b60008061356483614563565b60408051838152602081018390528151939550919350600192600160a060020a038716927f2c0790d4cb2a4cd6281eeb9a251fcfb577eacacbf422f94ff8a2888b924b167b92908290030190a36135c18382840160006001610f08565b935050505090565b818101828110156135d657fe5b92915050565b6000828211156135e857fe5b50900390565b6000816135fa84613af7565b101561366757604080517f08c379a000000000000000000000000000000000000000000000000000000000815260206004820152601460248201527f496e73756666696369656e742062616c616e6365000000000000000000000000604482015290519081900360640190fd5b613672600080610e7c565b600554604080517f949e8acd0000000000000000000000000000000000000000000000000000000081529051600092600160a060020a03169163949e8acd916004808301926020929190829003018186803b1580156136d057600080fd5b505afa1580156136e4573d6000803e3d6000fd5b505050506040513d60208110156136fa57600080fd5b5051600554604080517f22609373000000000000000000000000000000000000000000000000000000008152600481018790529051929350600092600160a060020a0390921691632260937391602480820192602092909190829003018186803b15801561376757600080fd5b505afa15801561377b573d6000803e3d6000fd5b505050506040513d602081101561379157600080fd5b50516004805482019055905083821061382757600554604080517fe4849b32000000000000000000000000000000000000000000000000000000008152600481018790529051600160a060020a039092169163e4849b329160248082019260009290919082900301818387803b15801561380a57600080fd5b505af115801561381e573d6000803e3d6000fd5b5050505061392f565b60008211156138af57600554604080517fe4849b32000000000000000000000000000000000000000000000000000000008152600481018590529051600160a060020a039092169163e4849b329160248082019260009290919082900301818387803b15801561389657600080fd5b505af11580156138aa573d6000803e3d6000fd5b505050505b600654604080517f6c11bcd300000000000000000000000000000000000000000000000000000000815284870360048201529051600160a060020a0390921691636c11bcd39160248082019260009290919082900301818387803b15801561391657600080fd5b505af115801561392a573d6000803e3d6000fd5b505050505b600354600160a060020a038616600090815260076020526040902054908502680100000000000000008302019061396c908263ffffffff6145b916565b600160a060020a038716600081815260076020908152604080832094909455600f815290839020805489900390556014805489900390558251888152908101859052825191927fc4823739c5787d2ca17e404aa47d5569ae71dfb49cbf21b3f6152ed238a3113992918290030190a26040805186815290517fc5d2460186f7233c927e7db2dcc703c0e500b653ca82273b7bfad8045d85a470913091600160a060020a038a16917fe19260aff97b920c7df27010903aeb9c8d2be5d310a2c67824cf3f15396e4c16919081900360200190a46040805186815290513091600160a060020a038916917fddf252ad1be2c89b69c2b068fc378daa952ba7f163c4a11628f55a4df523b3ef9181900360200190a350949350505050565b613a92600080610e7c565b600080613a9e83614563565b60408051838152602081018390528151939550919350600092600160a060020a038716927f2c0790d4cb2a4cd6281eeb9a251fcfb577eacacbf422f94ff8a2888b924b167b92908290030190a3612d8d838284016145c6565b6000613b0282613c22565b15613bf957600160a060020a0382166000908152600e602052604090205460ff1660031415613b71576040805160008082529151600160a060020a038516917ffd485e840ff263867a8e752aa5182c86e69052b8d3b7ca0f0e2092927f4a4125919081900360200190a3613bbe565b600082600160a060020a03167fa9990927036c19f74afbaf4840fd3ee8fa7a6f72d787106800bbc215c1bcc538600080604051808381526020018281526020019250505060405180910390a35b50600160a060020a0381166000908152600e60209081526040808320805460ff19169055600c8252808320839055600f909152902054611bbf565b50600160a060020a03166000908152600c6020908152604080832054600f909252909120540390565b600160a060020a0381166000908152600e602052604081205460ff1615613e1a57600160a060020a0382166000908152600e602052604090205460ff1660011415613c895750600160a060020a0381166000908152600d6020526040902054421015611bbf565b600160a060020a0382166000908152600e602052604090205460ff1660021415613d5057600160a060020a038083166000908152600d60209081526040918290205460055483517f18160ddd0000000000000000000000000000000000000000000000000000000081529351919416926318160ddd926004808301939192829003018186803b158015613d1b57600080fd5b505afa158015613d2f573d6000803e3d6000fd5b505050506040513d6020811015613d4557600080fd5b505110159050611bbf565b600160a060020a0382166000908152600e602052604090205460ff1660031415613e1a57600160a060020a038083166000818152600d60209081526040918290205482517f1308d2c2000000000000000000000000000000000000000000000000000000008152600481019490945291519190931692631308d2c29260248082019391829003018186803b158015613de757600080fd5b505afa158015613dfb573d6000803e3d6000fd5b505050506040513d6020811015613e1157600080fd5b50519050611bbf565b506000919050565b83613e2c87613af7565b1015613e9957604080517f08c379a000000000000000000000000000000000000000000000000000000000815260206004820152601460248201527f496e73756666696369656e742062616c616e6365000000000000000000000000604482015290519081900360640190fd5b600654600160a060020a0386811691161415613f1657604080517f08c379a000000000000000000000000000000000000000000000000000000000815260206004820152601960248201527f4d7920736c61766520646f65736e277420676574207061696400000000000000604482015290519081900360640190fd5b600554600160a060020a0386811691161415613f9357604080517f08c379a000000000000000000000000000000000000000000000000000000000815260206004820152601a60248201527f4249545820686173206e6f206e65656420666f72207468657365000000000000604482015290519081900360640190fd5b600160a060020a0385163014156140a95783151561409457826040518082805190602001908083835b60208310613fdb5780518252601f199092019160209182019101613fbc565b51815160209384036101000a6000190180199092169116179052604080519290940182900382208a83529351939550600160a060020a038b811695508c16937fe19260aff97b920c7df27010903aeb9c8d2be5d310a2c67824cf3f15396e4c169350918290030190a484600160a060020a031686600160a060020a03167fddf252ad1be2c89b69c2b068fc378daa952ba7f163c4a11628f55a4df523b3ef866040518082815260200191505060405180910390a36140a0565b61409e86856135ee565b505b6128c786613a87565b6140b4600080610e7c565b600160a060020a0386166000908152600f60205260409020546140dd908563ffffffff6135dc16565b600160a060020a038088166000908152600f60205260408082209390935590871681522054614112908563ffffffff6135c916565b600160a060020a038681166000818152600f602090815260408083209590955560038054948c16835260079091528482208054948a02909403909355915490825291902080549186029091019055808015614171575061417185614a47565b156144775781511515614274576040517fc0ee0b8a000000000000000000000000000000000000000000000000000000008152600160a060020a03878116600483019081526024830187905260606044840190815286516064850152865189949385169363c0ee0b8a938c938b938b9360840190602085019080838360005b838110156142085781810151838201526020016141f0565b50505050905090810190601f1680156142355780820380516001836020036101000a031916815260200191505b50945050505050600060405180830381600087803b15801561425657600080fd5b505af115801561426a573d6000803e3d6000fd5b5050505050614477565b6000606086600160a060020a03166000858a89896040516024018084600160a060020a0316600160a060020a0316815260200183815260200180602001828103825283818151815260200191508051906020019080838360005b838110156142e65781810151838201526020016142ce565b50505050905090810190601f1680156143135780820380516001836020036101000a031916815260200191505b50945050505050604051602081830303815290604052906040518082805190602001908083835b602083106143595780518252601f19909201916020918201910161433a565b51815160001960209485036101000a01908116901991909116179052604080519490920184900390932092860180517bffffffffffffffffffffffffffffffffffffffffffffffffffffffff167fffffffff0000000000000000000000000000000000000000000000000000000090941693909317835251855190945084935090508083835b602083106143fe5780518252601f1990920191602091820191016143df565b6001836020036101000a03801982511681845116808217855250505050505090500191505060006040518083038185875af1925050503d8060008114614460576040519150601f19603f3d011682016040523d82523d6000602084013e614465565b606091505b50909250905081151561447457fe5b50505b826040518082805190602001908083835b602083106144a75780518252601f199092019160209182019101614488565b51815160209384036101000a6000190180199092169116179052604080519290940182900382208a83529351939550600160a060020a038b811695508c16937fe19260aff97b920c7df27010903aeb9c8d2be5d310a2c67824cf3f15396e4c169350918290030190a484600160a060020a031686600160a060020a03167fddf252ad1be2c89b69c2b068fc378daa952ba7f163c4a11628f55a4df523b3ef866040518082815260200191505060405180910390a3505050505050565b60008060006145738460006122c3565b600160a060020a039490941660009081526008602081815260408084208054600784529185208054680100000000000000008b0201905592909152919055939492505050565b808203828113156135d657fe5b600654604080517fad7a672f0000000000000000000000000000000000000000000000000000000081529051600092600160a060020a03169163ad7a672f916004808301926020929190829003018186803b15801561462457600080fd5b505afa158015614638573d6000803e3d6000fd5b505050506040513d602081101561464e57600080fd5b5051600554604080517f688abbf7000000000000000000000000000000000000000000000000000000008152600160048201529051929350303192600092600160a060020a03169163688abbf7916024808301926020929190829003018186803b1580156146bb57600080fd5b505afa1580156146cf573d6000803e3d6000fd5b505050506040513d60208110156146e557600080fd5b50518201905083831061477d57600654604080517f64a197f3000000000000000000000000000000000000000000000000000000008152600160a060020a03888116600483015260248201889052915191909216916364a197f391604480830192600092919082900301818387803b15801561476057600080fd5b505af1158015614774573d6000803e3d6000fd5b50505050614a2a565b83811061484d578382101561481157600560009054906101000a9004600160a060020a0316600160a060020a0316633ccfd60b6040518163ffffffff167c0100000000000000000000000000000000000000000000000000000000028152600401600060405180830381600087803b1580156147f857600080fd5b505af115801561480c573d6000803e3d6000fd5b505050505b604051600160a060020a0386169085156108fc029086906000818181858888f19350505050158015614847573d6000803e3d6000fd5b50614a2a565b600654604080517f64a197f3000000000000000000000000000000000000000000000000000000008152600160a060020a03888116600483015260248201879052915191909216916364a197f391604480830192600092919082900301818387803b1580156148bb57600080fd5b505af11580156148cf573d6000803e3d6000fd5b5050600554604080517f688abbf700000000000000000000000000000000000000000000000000000000815260016004820152905160009450600160a060020a03909216925063688abbf7916024808301926020929190829003018186803b15801561493a57600080fd5b505afa15801561494e573d6000803e3d6000fd5b505050506040513d602081101561496457600080fd5b505111156149f157600560009054906101000a9004600160a060020a0316600160a060020a0316633ccfd60b6040518163ffffffff167c0100000000000000000000000000000000000000000000000000000000028152600401600060405180830381600087803b1580156149d857600080fd5b505af11580156149ec573d6000803e3d6000fd5b505050505b604051600160a060020a0386169084860380156108fc02916000818181858888f19350505050158015614a28573d6000803e3d6000fd5b505b600454614a3d908563ffffffff6135dc16565b6004555050505050565b6000903b1190565b828054600181600116156101000203166002900490600052602060002090601f016020900481019282601f10614a9057805160ff1916838001178555614abd565b82800160010185558215614abd579182015b82811115614abd578251825591602001919060010190614aa2565b50614ac9929150614acd565b5090565b61218a91905b80821115614ac95760008155600101614ad356fea165627a7a723058202d8b2bad9fe06b1621be3e533db6143d514a5ff543283fdad2a2ffcd4a4a67440029608060405234801561001057600080fd5b50604051602080610e4e8339810180604052602081101561003057600080fd5b505160018054600160a060020a03909216600160a060020a03199283161790556000805490911633179055610de48061006a6000396000f3fe608060405260043610610087577c0100000000000000000000000000000000000000000000000000000000600035046327c2e437811461013357806364a197f3146101795780636c11bcd3146101bf5780639ddf840d146101e9578063ad7a672f146101fe578063ade342ab14610225578063c0ee0b8a14610265578063ec8ac4d81461033a575b60015473ffffffffffffffffffffffffffffffffffffffff163314806100c4575060005473ffffffffffffffffffffffffffffffffffffffff1633145b151561013157604080517f08c379a000000000000000000000000000000000000000000000000000000000815260206004820152601c60248201527f4e6f2c204920646f6e27742061636365707420646f6e6174696f6e7300000000604482015290519081900360640190fd5b005b34801561013f57600080fd5b506101316004803603604081101561015657600080fd5b5073ffffffffffffffffffffffffffffffffffffffff813516906020013561036d565b34801561018557600080fd5b506101316004803603604081101561019c57600080fd5b5073ffffffffffffffffffffffffffffffffffffffff8135169060200135610569565b3480156101cb57600080fd5b50610131600480360360208110156101e257600080fd5b5035610705565b3480156101f557600080fd5b50610131610849565b34801561020a57600080fd5b5061021361098f565b60408051918252519081900360200190f35b34801561023157600080fd5b506101316004803603602081101561024857600080fd5b503573ffffffffffffffffffffffffffffffffffffffff16610a38565b34801561027157600080fd5b506101316004803603606081101561028857600080fd5b73ffffffffffffffffffffffffffffffffffffffff823516916020810135918101906060810160408201356401000000008111156102c557600080fd5b8201836020820111156102d757600080fd5b803590602001918460018302840111640100000000831117156102f957600080fd5b91908080601f016020809104026020016040519081016040528093929190818152602001838380828437600092019190915250929550610c03945050505050565b6101316004803603602081101561035057600080fd5b503573ffffffffffffffffffffffffffffffffffffffff16610c6a565b60005473ffffffffffffffffffffffffffffffffffffffff16331461041957604080517f08c379a000000000000000000000000000000000000000000000000000000000815260206004820152602660248201527f43616e206f6e6c7920626520657865637574656420627920706172656e74207060448201527f726f636573730000000000000000000000000000000000000000000000000000606482015290519081900360840190fd5b30318111156104c157600160009054906101000a900473ffffffffffffffffffffffffffffffffffffffff1673ffffffffffffffffffffffffffffffffffffffff16633ccfd60b6040518163ffffffff167c0100000000000000000000000000000000000000000000000000000000028152600401600060405180830381600087803b1580156104a857600080fd5b505af11580156104bc573d6000803e3d6000fd5b505050505b600154604080517ff088d54700000000000000000000000000000000000000000000000000000000815273ffffffffffffffffffffffffffffffffffffffff85811660048301529151919092169163f088d54791849160248082019260209290919082900301818588803b15801561053857600080fd5b505af115801561054c573d6000803e3d6000fd5b50505050506040513d602081101561056357600080fd5b50505050565b60005473ffffffffffffffffffffffffffffffffffffffff16331461061557604080517f08c379a000000000000000000000000000000000000000000000000000000000815260206004820152602660248201527f43616e206f6e6c7920626520657865637574656420627920706172656e74207060448201527f726f636573730000000000000000000000000000000000000000000000000000606482015290519081900360840190fd5b30318111156106bd57600160009054906101000a900473ffffffffffffffffffffffffffffffffffffffff1673ffffffffffffffffffffffffffffffffffffffff16633ccfd60b6040518163ffffffff167c0100000000000000000000000000000000000000000000000000000000028152600401600060405180830381600087803b1580156106a457600080fd5b505af11580156106b8573d6000803e3d6000fd5b505050505b60405173ffffffffffffffffffffffffffffffffffffffff83169082156108fc029083906000818181858888f19350505050158015610700573d6000803e3d6000fd5b505050565b60005473ffffffffffffffffffffffffffffffffffffffff1633146107b157604080517f08c379a000000000000000000000000000000000000000000000000000000000815260206004820152602660248201527f43616e206f6e6c7920626520657865637574656420627920706172656e74207060448201527f726f636573730000000000000000000000000000000000000000000000000000606482015290519081900360840190fd5b600081111561084657600154604080517fe4849b3200000000000000000000000000000000000000000000000000000000815260048101849052905173ffffffffffffffffffffffffffffffffffffffff9092169163e4849b329160248082019260009290919082900301818387803b15801561082d57600080fd5b505af1158015610841573d6000803e3d6000fd5b505050505b50565b60005473ffffffffffffffffffffffffffffffffffffffff1633146108f557604080517f08c379a000000000000000000000000000000000000000000000000000000000815260206004820152602660248201527f43616e206f6e6c7920626520657865637574656420627920706172656e74207060448201527f726f636573730000000000000000000000000000000000000000000000000000606482015290519081900360840190fd5b600160009054906101000a900473ffffffffffffffffffffffffffffffffffffffff1673ffffffffffffffffffffffffffffffffffffffff16633ccfd60b6040518163ffffffff167c0100000000000000000000000000000000000000000000000000000000028152600401600060405180830381600087803b15801561097b57600080fd5b505af1158015610563573d6000803e3d6000fd5b60018054604080517f688abbf700000000000000000000000000000000000000000000000000000000815260048101939093525160009273ffffffffffffffffffffffffffffffffffffffff9092169163688abbf7916024808301926020929190829003018186803b158015610a0457600080fd5b505afa158015610a18573d6000803e3d6000fd5b505050506040513d6020811015610a2e57600080fd5b5051303101905090565b60015473ffffffffffffffffffffffffffffffffffffffff82811691161415610ac257604080517f08c379a000000000000000000000000000000000000000000000000000000000815260206004820152601560248201527f424954582069736e277420612073686974636f696e0000000000000000000000604482015290519081900360640190fd5b604080517f70a082310000000000000000000000000000000000000000000000000000000081523060048201529051829173ffffffffffffffffffffffffffffffffffffffff83169163a9059cbb91339184916370a08231916024808301926020929190829003018186803b158015610b3a57600080fd5b505afa158015610b4e573d6000803e3d6000fd5b505050506040513d6020811015610b6457600080fd5b5051604080517c010000000000000000000000000000000000000000000000000000000063ffffffff861602815273ffffffffffffffffffffffffffffffffffffffff909316600484015260248301919091525160448083019260209291908290030181600087803b158015610bd957600080fd5b505af1158015610bed573d6000803e3d6000fd5b505050506040513d602081101561056357600080fd5b604080517f08c379a000000000000000000000000000000000000000000000000000000000815260206004820152601c60248201527f4920646f6e27742077616e7420796f75722073686974636f696e732100000000604482015290519081900360640190fd5b60005473ffffffffffffffffffffffffffffffffffffffff163314610d1657604080517f08c379a000000000000000000000000000000000000000000000000000000000815260206004820152602660248201527f43616e206f6e6c7920626520657865637574656420627920706172656e74207060448201527f726f636573730000000000000000000000000000000000000000000000000000606482015290519081900360840190fd5b600154604080517ff088d54700000000000000000000000000000000000000000000000000000000815273ffffffffffffffffffffffffffffffffffffffff84811660048301529151919092169163f088d54791349160248082019260209290919082900301818588803b158015610d8d57600080fd5b505af1158015610da1573d6000803e3d6000fd5b50505050506040513d602081101561070057600080fdfea165627a7a72305820bbfb6535590f4c0e7c428cd4b40924ad0c498cc6e703764837224444c83dc1fd0029"
  }
}