{"compiler":"v0.8.7+commit.e28d00a7","opcodeHash":"0xadb7c32f736bc2b79285eabfa1983482501136f4ba0b63df3a0deb240a5873da","metalessHash":"0x5c0554c2e0426f975fe93ff7ef875ba16ae3b2a75aedd9bcb916e3e12c82857a","runtimeHash":"0x92f19fd233b7ec2fa7ee3a78ba3041bf607c584db0b652e7d3ae11133805a2ef","encodedMetadata":[{"ipfs":"/ipfs/QmaaH4ejc2dzEP1oKRMP9cN69jvdHjuJmNEFyWSmQ4jtKL","solc":"0.8.7"}],"abi":[{"inputs":[{"internalType":"string","name":"_name","type":"string"},{"internalType":"string","name":"_symbol","type":"string"},{"internalType":"string","name":"_initBaseURI","type":"string"},{"internalType":"string","name":"_initNotRevealedUri","type":"string"}],"stateMutability":"nonpayable","type":"constructor"},{"anonymous":false,"inputs":[{"indexed":true,"internalType":"address","name":"owner","type":"address"},{"indexed":true,"internalType":"address","name":"approved","type":"address"},{"indexed":true,"internalType":"uint256","name":"tokenId","type":"uint256"}],"name":"Approval","type":"event"},{"anonymous":false,"inputs":[{"indexed":true,"internalType":"address","name":"owner","type":"address"},{"indexed":true,"internalType":"address","name":"operator","type":"address"},{"indexed":false,"internalType":"bool","name":"approved","type":"bool"}],"name":"ApprovalForAll","type":"event"},{"anonymous":false,"inputs":[{"indexed":true,"internalType":"address","name":"previousOwner","type":"address"},{"indexed":true,"internalType":"address","name":"newOwner","type":"address"}],"name":"OwnershipTransferred","type":"event"},{"anonymous":false,"inputs":[{"indexed":true,"internalType":"address","name":"from","type":"address"},{"indexed":true,"internalType":"address","name":"to","type":"address"},{"indexed":true,"internalType":"uint256","name":"tokenId","type":"uint256"}],"name":"Transfer","type":"event"},{"inputs":[{"internalType":"address[]","name":"_accounts","type":"address[]"}],"name":"addToFreeMint","outputs":[],"stateMutability":"nonpayable","type":"function"},{"inputs":[{"internalType":"address[]","name":"_accounts","type":"address[]"}],"name":"addToWhitelist","outputs":[],"stateMutability":"nonpayable","type":"function"},{"inputs":[{"internalType":"address","name":"","type":"address"}],"name":"addressFreeMintedBalance","outputs":[{"internalType":"uint256","name":"","type":"uint256"}],"stateMutability":"view","type":"function"},{"inputs":[{"internalType":"address","name":"","type":"address"}],"name":"addressMintedBalance","outputs":[{"internalType":"uint256","name":"","type":"uint256"}],"stateMutability":"view","type":"function"},{"inputs":[],"name":"allowFreeMint","outputs":[{"internalType":"bool","name":"","type":"bool"}],"stateMutability":"view","type":"function"},{"inputs":[{"internalType":"address","name":"to","type":"address"},{"internalType":"uint256","name":"tokenId","type":"uint256"}],"name":"approve","outputs":[],"stateMutability":"nonpayable","type":"function"},{"inputs":[{"internalType":"address","name":"owner","type":"address"}],"name":"balanceOf","outputs":[{"internalType":"uint256","name":"","type":"uint256"}],"stateMutability":"view","type":"function"},{"inputs":[],"name":"baseExtension","outputs":[{"internalType":"string","name":"","type":"string"}],"stateMutability":"view","type":"function"},{"inputs":[],"name":"baseURI","outputs":[{"internalType":"string","name":"","type":"string"}],"stateMutability":"view","type":"function"},{"inputs":[],"name":"cost","outputs":[{"internalType":"uint256","name":"","type":"uint256"}],"stateMutability":"view","type":"function"},{"inputs":[],"name":"daoAccount","outputs":[{"internalType":"address payable","name":"","type":"address"}],"stateMutability":"view","type":"function"},{"inputs":[],"name":"daoShare","outputs":[{"internalType":"uint256","name":"","type":"uint256"}],"stateMutability":"view","type":"function"},{"inputs":[{"internalType":"uint256","name":"","type":"uint256"}],"name":"freeMintedAddresses","outputs":[{"internalType":"address","name":"","type":"address"}],"stateMutability":"view","type":"function"},{"inputs":[{"internalType":"uint256","name":"tokenId","type":"uint256"}],"name":"getApproved","outputs":[{"internalType":"address","name":"","type":"address"}],"stateMutability":"view","type":"function"},{"inputs":[{"internalType":"address","name":"owner","type":"address"},{"internalType":"address","name":"operator","type":"address"}],"name":"isApprovedForAll","outputs":[{"internalType":"bool","name":"","type":"bool"}],"stateMutability":"view","type":"function"},{"inputs":[{"internalType":"address","name":"_user","type":"address"}],"name":"isFreeMinted","outputs":[{"internalType":"bool","name":"","type":"bool"}],"stateMutability":"view","type":"function"},{"inputs":[{"internalType":"address","name":"_account","type":"address"}],"name":"isWhitelisted","outputs":[{"internalType":"bool","name":"","type":"bool"}],"stateMutability":"view","type":"function"},{"inputs":[],"name":"maxFreeMintAmount","outputs":[{"internalType":"uint256","name":"","type":"uint256"}],"stateMutability":"view","type":"function"},{"inputs":[],"name":"maxMintAmount","outputs":[{"internalType":"uint256","name":"","type":"uint256"}],"stateMutability":"view","type":"function"},{"inputs":[],"name":"maxSupply","outputs":[{"internalType":"uint256","name":"","type":"uint256"}],"stateMutability":"view","type":"function"},{"inputs":[{"internalType":"uint256","name":"_mintAmount","type":"uint256"}],"name":"mint","outputs":[],"stateMutability":"payable","type":"function"},{"inputs":[],"name":"name","outputs":[{"internalType":"string","name":"","type":"string"}],"stateMutability":"view","type":"function"},{"inputs":[],"name":"nftPerAddressLimit","outputs":[{"internalType":"uint256","name":"","type":"uint256"}],"stateMutability":"view","type":"function"},{"inputs":[],"name":"notRevealedUri","outputs":[{"internalType":"string","name":"","type":"string"}],"stateMutability":"view","type":"function"},{"inputs":[],"name":"onlyWhitelisted","outputs":[{"internalType":"bool","name":"","type":"bool"}],"stateMutability":"view","type":"function"},{"inputs":[],"name":"owner","outputs":[{"internalType":"address","name":"","type":"address"}],"stateMutability":"view","type":"function"},{"inputs":[{"internalType":"uint256","name":"tokenId","type":"uint256"}],"name":"ownerOf","outputs":[{"internalType":"address","name":"","type":"address"}],"stateMutability":"view","type":"function"},{"inputs":[{"internalType":"bool","name":"_state","type":"bool"}],"name":"pause","outputs":[],"stateMutability":"nonpayable","type":"function"},{"inputs":[],"name":"paused","outputs":[{"internalType":"bool","name":"","type":"bool"}],"stateMutability":"view","type":"function"},{"inputs":[{"internalType":"address[]","name":"_accounts","type":"address[]"}],"name":"removeFreeMint","outputs":[],"stateMutability":"nonpayable","type":"function"},{"inputs":[{"internalType":"address[]","name":"_accounts","type":"address[]"}],"name":"removeWhitelist","outputs":[],"stateMutability":"nonpayable","type":"function"},{"inputs":[],"name":"renounceOwnership","outputs":[],"stateMutability":"nonpayable","type":"function"},{"inputs":[],"name":"reveal","outputs":[],"stateMutability":"nonpayable","type":"function"},{"inputs":[],"name":"revealed","outputs":[{"internalType":"bool","name":"","type":"bool"}],"stateMutability":"view","type":"function"},{"inputs":[{"internalType":"address","name":"from","type":"address"},{"internalType":"address","name":"to","type":"address"},{"internalType":"uint256","name":"tokenId","type":"uint256"}],"name":"safeTransferFrom","outputs":[],"stateMutability":"nonpayable","type":"function"},{"inputs":[{"internalType":"address","name":"from","type":"address"},{"internalType":"address","name":"to","type":"address"},{"internalType":"uint256","name":"tokenId","type":"uint256"},{"internalType":"bytes","name":"_data","type":"bytes"}],"name":"safeTransferFrom","outputs":[],"stateMutability":"nonpayable","type":"function"},{"inputs":[{"internalType":"bool","name":"_state","type":"bool"}],"name":"setAllowFreeMint","outputs":[],"stateMutability":"nonpayable","type":"function"},{"inputs":[{"internalType":"address","name":"operator","type":"address"},{"internalType":"bool","name":"approved","type":"bool"}],"name":"setApprovalForAll","outputs":[],"stateMutability":"nonpayable","type":"function"},{"inputs":[{"internalType":"string","name":"_newBaseExtension","type":"string"}],"name":"setBaseExtension","outputs":[],"stateMutability":"nonpayable","type":"function"},{"inputs":[{"internalType":"string","name":"_newBaseURI","type":"string"}],"name":"setBaseURI","outputs":[],"stateMutability":"nonpayable","type":"function"},{"inputs":[{"internalType":"uint256","name":"_newCost","type":"uint256"}],"name":"setCost","outputs":[],"stateMutability":"nonpayable","type":"function"},{"inputs":[{"internalType":"address","name":"_newAccount","type":"address"}],"name":"setDaoAccount","outputs":[],"stateMutability":"nonpayable","type":"function"},{"inputs":[{"internalType":"uint256","name":"_newShare","type":"uint256"}],"name":"setDaoShare","outputs":[],"stateMutability":"nonpayable","type":"function"},{"inputs":[{"internalType":"uint256","name":"_newMaxFreeMintAmount","type":"uint256"}],"name":"setMaxFreeMintAmount","outputs":[],"stateMutability":"nonpayable","type":"function"},{"inputs":[{"internalType":"uint256","name":"_newMaxMintAmount","type":"uint256"}],"name":"setMaxMintAmount","outputs":[],"stateMutability":"nonpayable","type":"function"},{"inputs":[{"internalType":"uint256","name":"_newMaxSupply","type":"uint256"}],"name":"setMaxSupply","outputs":[],"stateMutability":"nonpayable","type":"function"},{"inputs":[{"internalType":"uint256","name":"_limit","type":"uint256"}],"name":"setNftPerAddressLimit","outputs":[],"stateMutability":"nonpayable","type":"function"},{"inputs":[{"internalType":"string","name":"_notRevealedURI","type":"string"}],"name":"setNotRevealedURI","outputs":[],"stateMutability":"nonpayable","type":"function"},{"inputs":[{"internalType":"bool","name":"_state","type":"bool"}],"name":"setOnlyWhitelisted","outputs":[],"stateMutability":"nonpayable","type":"function"},{"inputs":[{"internalType":"bytes4","name":"interfaceId","type":"bytes4"}],"name":"supportsInterface","outputs":[{"internalType":"bool","name":"","type":"bool"}],"stateMutability":"view","type":"function"},{"inputs":[],"name":"symbol","outputs":[{"internalType":"string","name":"","type":"string"}],"stateMutability":"view","type":"function"},{"inputs":[{"internalType":"uint256","name":"index","type":"uint256"}],"name":"tokenByIndex","outputs":[{"internalType":"uint256","name":"","type":"uint256"}],"stateMutability":"view","type":"function"},{"inputs":[{"internalType":"address","name":"owner","type":"address"},{"internalType":"uint256","name":"index","type":"uint256"}],"name":"tokenOfOwnerByIndex","outputs":[{"internalType":"uint256","name":"","type":"uint256"}],"stateMutability":"view","type":"function"},{"inputs":[{"internalType":"uint256","name":"tokenId","type":"uint256"}],"name":"tokenURI","outputs":[{"internalType":"string","name":"","type":"string"}],"stateMutability":"view","type":"function"},{"inputs":[],"name":"totalSupply","outputs":[{"internalType":"uint256","name":"","type":"uint256"}],"stateMutability":"view","type":"function"},{"inputs":[{"internalType":"address","name":"from","type":"address"},{"internalType":"address","name":"to","type":"address"},{"internalType":"uint256","name":"tokenId","type":"uint256"}],"name":"transferFrom","outputs":[],"stateMutability":"nonpayable","type":"function"},{"inputs":[{"internalType":"address","name":"newOwner","type":"address"}],"name":"transferOwnership","outputs":[],"stateMutability":"nonpayable","type":"function"},{"inputs":[{"internalType":"address","name":"_owner","type":"address"}],"name":"walletOfOwner","outputs":[{"internalType":"uint256[]","name":"","type":"uint256[]"}],"stateMutability":"view","type":"function"},{"inputs":[{"internalType":"uint256","name":"","type":"uint256"}],"name":"whitelistedAddresses","outputs":[{"internalType":"address","name":"","type":"address"}],"stateMutability":"view","type":"function"},{"inputs":[],"name":"withdraw","outputs":[],"stateMutability":"payable","type":"function"}],"bytecode":{"object":"60c06040526005608081905264173539b7b760d91b60a09081526200002891600c919062000219565b5066f8b0a10e470000600e55611e61600f8190556014601081905560026011556012919091556000601355805463ffffffff191663010100001790553480156200007157600080fd5b50604051620038de380380620038de833981016040819052620000949162000376565b835184908490620000ad90600090602085019062000219565b508051620000c390600190602084019062000219565b505050620000e0620000da6200010060201b60201c565b62000104565b620000eb8262000156565b620000f681620001be565b5050505062000482565b3390565b600a80546001600160a01b038381166001600160a01b0319831681179093556040519116919082907f8be0079c531659141344cd1fd0a4f28419497f9722a3daafe3b4186f6b6457e090600090a35050565b600a546001600160a01b03163314620001a55760405162461bcd60e51b81526020600482018190526024820152600080516020620038be83398151915260448201526064015b60405180910390fd5b8051620001ba90600b90602084019062000219565b5050565b600a546001600160a01b03163314620002095760405162461bcd60e51b81526020600482018190526024820152600080516020620038be83398151915260448201526064016200019c565b8051620001ba90600d9060208401905b82805462000227906200042f565b90600052602060002090601f0160209004810192826200024b576000855562000296565b82601f106200026657805160ff191683800117855562000296565b8280016001018555821562000296579182015b828111156200029657825182559160200191906001019062000279565b50620002a4929150620002a8565b5090565b5b80821115620002a45760008155600101620002a9565b600082601f830112620002d157600080fd5b81516001600160401b0380821115620002ee57620002ee6200046c565b604051601f8301601f19908116603f011681019082821181831017156200031957620003196200046c565b816040528381526020925086838588010111156200033657600080fd5b600091505b838210156200035a57858201830151818301840152908201906200033b565b838211156200036c5760008385830101525b9695505050505050565b600080600080608085870312156200038d57600080fd5b84516001600160401b0380821115620003a557600080fd5b620003b388838901620002bf565b95506020870151915080821115620003ca57600080fd5b620003d888838901620002bf565b94506040870151915080821115620003ef57600080fd5b620003fd88838901620002bf565b935060608701519150808211156200041457600080fd5b506200042387828801620002bf565b91505092959194509250565b600181811c908216806200044457607f821691505b602082108114156200046657634e487b7160e01b600052602260045260246000fd5b50919050565b634e487b7160e01b600052604160045260246000fd5b61342c80620004926000396000f3fe6080604052600436106103975760003560e01c80636352211e116101dc578063a0712d6811610102578063c771dbd0116100a0578063da3ef23f1161006f578063da3ef23f14610a54578063e985e9c514610a74578063f2c4ce1e14610abd578063f2fde38b14610add57600080fd5b8063c771dbd0146109de578063c87b56dd146109fe578063d0eb26b014610a1e578063d5abeb0114610a3e57600080fd5b8063b88d4fde116100dc578063b88d4fde14610973578063ba4e5c4914610993578063ba7d2c76146109b3578063c6682862146109c957600080fd5b8063a0712d681461092b578063a22cb4651461093e578063a475b5dd1461095e57600080fd5b80637f6497831161017a57806395d89b411161014957806395d89b41146108c05780639a307fa5146108d55780639c70b512146108f55780639d3d41de1461091557600080fd5b80637f6497831461084457806388d19f1b146108645780638da5cb5b1461087a578063914ede261461089857600080fd5b80636fadc3ca116101b65780636fadc3ca146107c257806370a08231146107e2578063715018a6146108025780637c6b172d1461081757600080fd5b80636352211e1461076d5780636c0360eb1461078d5780636f8b44b0146107a257600080fd5b80632f745c59116102c15780634f6ccce71161025f5780635ba199921161022e5780635ba19992146106f25780635c975abb146107135780635d729df51461072d578063631307a61461074d57600080fd5b80634f6ccce7146106735780635021c5931461069357806351830227146106b357806355f804b3146106d257600080fd5b80633ccfd60b1161029b5780633ccfd60b146105fe57806342842e0e14610606578063438b63001461062657806344a0d68a1461065357600080fd5b80632f745c591461059e5780633af32abf146105be5780633c952764146105de57600080fd5b806313faede611610339578063239c70ae11610308578063239c70ae1461052857806323b872dd1461053e5780632aba38321461055e5780632c10e68a1461057e57600080fd5b806313faede6146104a257806318160ddd146104c657806318cae269146104db578063232452161461050857600080fd5b8063081812fc11610375578063081812fc14610415578063081c8c441461044d578063088a4ed014610462578063095ea7b31461048257600080fd5b806301ffc9a71461039c57806302329a29146103d157806306fdde03146103f3575b600080fd5b3480156103a857600080fd5b506103bc6103b7366004612f52565b610afd565b60405190151581526020015b60405180910390f35b3480156103dd57600080fd5b506103f16103ec366004612f37565b610b28565b005b3480156103ff57600080fd5b50610408610b6e565b6040516103c8919061315f565b34801561042157600080fd5b50610435610430366004612fd5565b610c00565b6040516001600160a01b0390911681526020016103c8565b34801561045957600080fd5b50610408610c95565b34801561046e57600080fd5b506103f161047d366004612fd5565b610d23565b34801561048e57600080fd5b506103f161049d366004612e98565b610d52565b3480156104ae57600080fd5b506104b8600e5481565b6040519081526020016103c8565b3480156104d257600080fd5b506008546104b8565b3480156104e757600080fd5b506104b86104f6366004612d68565b60186020526000908152604090205481565b34801561051457600080fd5b506103f1610523366004612ec2565b610e68565b34801561053457600080fd5b506104b860105481565b34801561054a57600080fd5b506103f1610559366004612db6565b610f77565b34801561056a57600080fd5b506103f1610579366004612fd5565b610fa8565b34801561058a57600080fd5b506103f1610599366004612d68565b610fd7565b3480156105aa57600080fd5b506104b86105b9366004612e98565b61102f565b3480156105ca57600080fd5b506103bc6105d9366004612d68565b6110c5565b3480156105ea57600080fd5b506103f16105f9366004612f37565b61112f565b6103f1611175565b34801561061257600080fd5b506103f1610621366004612db6565b61129e565b34801561063257600080fd5b50610646610641366004612d68565b6112b9565b6040516103c8919061311b565b34801561065f57600080fd5b506103f161066e366004612fd5565b61135b565b34801561067f57600080fd5b506104b861068e366004612fd5565b61138a565b34801561069f57600080fd5b506104356106ae366004612fd5565b61141d565b3480156106bf57600080fd5b506014546103bc90610100900460ff1681565b3480156106de57600080fd5b506103f16106ed366004612f8c565b611447565b3480156106fe57600080fd5b506014546103bc906301000000900460ff1681565b34801561071f57600080fd5b506014546103bc9060ff1681565b34801561073957600080fd5b506103bc610748366004612d68565b611488565b34801561075957600080fd5b506103f1610768366004612f37565b6114e9565b34801561077957600080fd5b50610435610788366004612fd5565b611531565b34801561079957600080fd5b506104086115a8565b3480156107ae57600080fd5b506103f16107bd366004612fd5565b6115b5565b3480156107ce57600080fd5b506103f16107dd366004612fd5565b6115e4565b3480156107ee57600080fd5b506104b86107fd366004612d68565b611613565b34801561080e57600080fd5b506103f161169a565b34801561082357600080fd5b506104b8610832366004612d68565b60176020526000908152604090205481565b34801561085057600080fd5b506103f161085f366004612ec2565b6116d0565b34801561087057600080fd5b506104b860135481565b34801561088657600080fd5b50600a546001600160a01b0316610435565b3480156108a457600080fd5b506014546104359064010000000090046001600160a01b031681565b3480156108cc57600080fd5b506104086117be565b3480156108e157600080fd5b506103f16108f0366004612ec2565b6117cd565b34801561090157600080fd5b506014546103bc9062010000900460ff1681565b34801561092157600080fd5b506104b860115481565b6103f1610939366004612fd5565b6118dc565b34801561094a57600080fd5b506103f1610959366004612e6e565b611d4e565b34801561096a57600080fd5b506103f1611e13565b34801561097f57600080fd5b506103f161098e366004612df2565b611e4e565b34801561099f57600080fd5b506104356109ae366004612fd5565b611e80565b3480156109bf57600080fd5b506104b860125481565b3480156109d557600080fd5b50610408611e90565b3480156109ea57600080fd5b506103f16109f9366004612ec2565b611e9d565b348015610a0a57600080fd5b50610408610a19366004612fd5565b611f8b565b348015610a2a57600080fd5b506103f1610a39366004612fd5565b61210a565b348015610a4a57600080fd5b506104b8600f5481565b348015610a6057600080fd5b506103f1610a6f366004612f8c565b612139565b348015610a8057600080fd5b506103bc610a8f366004612d83565b6001600160a01b03918216600090815260056020908152604080832093909416825291909152205460ff1690565b348015610ac957600080fd5b506103f1610ad8366004612f8c565b612176565b348015610ae957600080fd5b506103f1610af8366004612d68565b6121b3565b60006001600160e01b0319821663780e9d6360e01b1480610b225750610b228261224b565b92915050565b600a546001600160a01b03163314610b5b5760405162461bcd60e51b8152600401610b52906131c4565b60405180910390fd5b6014805460ff1916911515919091179055565b606060008054610b7d90613308565b80601f0160208091040260200160405190810160405280929190818152602001828054610ba990613308565b8015610bf65780601f10610bcb57610100808354040283529160200191610bf6565b820191906000526020600020905b815481529060010190602001808311610bd957829003601f168201915b5050505050905090565b6000818152600260205260408120546001600160a01b0316610c795760405162461bcd60e51b815260206004820152602c60248201527f4552433732313a20617070726f76656420717565727920666f72206e6f6e657860448201526b34b9ba32b73a103a37b5b2b760a11b6064820152608401610b52565b506000908152600460205260409020546001600160a01b031690565b600d8054610ca290613308565b80601f0160208091040260200160405190810160405280929190818152602001828054610cce90613308565b8015610d1b5780601f10610cf057610100808354040283529160200191610d1b565b820191906000526020600020905b815481529060010190602001808311610cfe57829003601f168201915b505050505081565b600a546001600160a01b03163314610d4d5760405162461bcd60e51b8152600401610b52906131c4565b601055565b6000610d5d82611531565b9050806001600160a01b0316836001600160a01b03161415610dcb5760405162461bcd60e51b815260206004820152602160248201527f4552433732313a20617070726f76616c20746f2063757272656e74206f776e656044820152603960f91b6064820152608401610b52565b336001600160a01b0382161480610de75750610de78133610a8f565b610e595760405162461bcd60e51b815260206004820152603860248201527f4552433732313a20617070726f76652063616c6c6572206973206e6f74206f7760448201527f6e6572206e6f7220617070726f76656420666f7220616c6c00000000000000006064820152608401610b52565b610e63838361229b565b505050565b600a546001600160a01b03163314610e925760405162461bcd60e51b8152600401610b52906131c4565b80610eaf5760405162461bcd60e51b8152600401610b529061324a565b60005b81811015610e635760005b601554811015610f6457838383818110610ed957610ed96133b4565b9050602002016020810190610eee9190612d68565b6001600160a01b031660158281548110610f0a57610f0a6133b4565b6000918252602090912001546001600160a01b03161415610f525760158181548110610f3857610f386133b4565b600091825260209091200180546001600160a01b03191690555b80610f5c81613343565b915050610ebd565b5080610f6f81613343565b915050610eb2565b610f813382612309565b610f9d5760405162461bcd60e51b8152600401610b52906131f9565b610e63838383612400565b600a546001600160a01b03163314610fd25760405162461bcd60e51b8152600401610b52906131c4565b601155565b600a546001600160a01b031633146110015760405162461bcd60e51b8152600401610b52906131c4565b601480546001600160a01b0390921664010000000002640100000000600160c01b0319909216919091179055565b600061103a83611613565b821061109c5760405162461bcd60e51b815260206004820152602b60248201527f455243373231456e756d657261626c653a206f776e657220696e646578206f7560448201526a74206f6620626f756e647360a81b6064820152608401610b52565b506001600160a01b03919091166000908152600660209081526040808320938352929052205490565b6000805b60155481101561112657826001600160a01b0316601582815481106110f0576110f06133b4565b6000918252602090912001546001600160a01b031614156111145750600192915050565b8061111e81613343565b9150506110c9565b50600092915050565b600a546001600160a01b031633146111595760405162461bcd60e51b8152600401610b52906131c4565b60148054911515620100000262ff000019909216919091179055565b600a546001600160a01b0316331461119f5760405162461bcd60e51b8152600401610b52906131c4565b6013541561122a5760145460135460009164010000000090046001600160a01b0316906064906111cf90476132a6565b6111d99190613292565b604051600081818185875af1925050503d8060008114611215576040519150601f19603f3d011682016040523d82523d6000602084013e61121a565b606091505b505090508061122857600080fd5b505b600061123e600a546001600160a01b031690565b6001600160a01b03164760405160006040518083038185875af1925050503d8060008114611288576040519150601f19603f3d011682016040523d82523d6000602084013e61128d565b606091505b505090508061129b57600080fd5b50565b610e6383838360405180602001604052806000815250611e4e565b606060006112c683611613565b905060008167ffffffffffffffff8111156112e3576112e36133ca565b60405190808252806020026020018201604052801561130c578160200160208202803683370190505b50905060005b8281101561135357611324858261102f565b828281518110611336576113366133b4565b60209081029190910101528061134b81613343565b915050611312565b509392505050565b600a546001600160a01b031633146113855760405162461bcd60e51b8152600401610b52906131c4565b600e55565b600061139560085490565b82106113f85760405162461bcd60e51b815260206004820152602c60248201527f455243373231456e756d657261626c653a20676c6f62616c20696e646578206f60448201526b7574206f6620626f756e647360a01b6064820152608401610b52565b6008828154811061140b5761140b6133b4565b90600052602060002001549050919050565b6016818154811061142d57600080fd5b6000918252602090912001546001600160a01b0316905081565b600a546001600160a01b031633146114715760405162461bcd60e51b8152600401610b52906131c4565b805161148490600b906020840190612c2d565b5050565b6000805b60165481101561112657826001600160a01b0316601682815481106114b3576114b36133b4565b6000918252602090912001546001600160a01b031614156114d75750600192915050565b806114e181613343565b91505061148c565b600a546001600160a01b031633146115135760405162461bcd60e51b8152600401610b52906131c4565b6014805491151563010000000263ff00000019909216919091179055565b6000818152600260205260408120546001600160a01b031680610b225760405162461bcd60e51b815260206004820152602960248201527f4552433732313a206f776e657220717565727920666f72206e6f6e657869737460448201526832b73a103a37b5b2b760b91b6064820152608401610b52565b600b8054610ca290613308565b600a546001600160a01b031633146115df5760405162461bcd60e51b8152600401610b52906131c4565b600f55565b600a546001600160a01b0316331461160e5760405162461bcd60e51b8152600401610b52906131c4565b601355565b60006001600160a01b03821661167e5760405162461bcd60e51b815260206004820152602a60248201527f4552433732313a2062616c616e636520717565727920666f7220746865207a65604482015269726f206164647265737360b01b6064820152608401610b52565b506001600160a01b031660009081526003602052604090205490565b600a546001600160a01b031633146116c45760405162461bcd60e51b8152600401610b52906131c4565b6116ce60006125ab565b565b600a546001600160a01b031633146116fa5760405162461bcd60e51b8152600401610b52906131c4565b806117175760405162461bcd60e51b8152600401610b529061324a565b60005b81811015610e635761174c838383818110611737576117376133b4565b90506020020160208101906105d99190612d68565b6117ac576015838383818110611764576117646133b4565b90506020020160208101906117799190612d68565b81546001810183556000928352602090922090910180546001600160a01b0319166001600160a01b039092169190911790555b806117b681613343565b91505061171a565b606060018054610b7d90613308565b600a546001600160a01b031633146117f75760405162461bcd60e51b8152600401610b52906131c4565b806118145760405162461bcd60e51b8152600401610b529061324a565b60005b81811015610e635760005b6016548110156118c95783838381811061183e5761183e6133b4565b90506020020160208101906118539190612d68565b6001600160a01b03166016828154811061186f5761186f6133b4565b6000918252602090912001546001600160a01b031614156118b7576016818154811061189d5761189d6133b4565b600091825260209091200180546001600160a01b03191690555b806118c181613343565b915050611822565b50806118d481613343565b915050611817565b60006118e760085490565b9050600082116119395760405162461bcd60e51b815260206004820152601b60248201527f6e65656420746f206d696e74206174206c656173742031204e465400000000006044820152606401610b52565b600f54611946838361327a565b111561198d5760405162461bcd60e51b81526020600482015260166024820152751b585e08139195081b1a5b5a5d08195e18d95959195960521b6044820152606401610b52565b33600081815260176020526040902054600a5490916001600160a01b0390911614611c945760145460ff16156119fe5760405162461bcd60e51b81526020600482015260166024820152751d1a194818dbdb9d1c9858dd081a5cc81c185d5cd95960521b6044820152606401610b52565b601054831115611a5c5760405162461bcd60e51b8152602060048201526024808201527f6d6178206d696e7420616d6f756e74207065722073657373696f6e20657863656044820152631959195960e21b6064820152608401610b52565b60145462010000900460ff16151560011415611b3457611a7b336110c5565b611ac75760405162461bcd60e51b815260206004820152601760248201527f55736572206973206e6f742077686974656c69737465640000000000000000006044820152606401610b52565b33600090815260186020526040902054601254611ae4858361327a565b1115611b325760405162461bcd60e51b815260206004820152601c60248201527f6d6178204e4654207065722061646472657373206578636565646564000000006044820152606401610b52565b505b6014546301000000900460ff1615156001148015611b5c5750611b5633611488565b15156001145b15611c4257601154611b6e848361327a565b11611bc6573415611bc15760405162461bcd60e51b815260206004820152601f60248201527f46726565206d696e747320646f65736e2774206e65656420616d6f756e742e006044820152606401610b52565b611c94565b82600e54611bd491906132a6565b341015611bc15760405162461bcd60e51b815260206004820152603660248201527f4d61782046726565204e465420706572206164647265737320657863656564656044820152753217102732b2b210333ab73239903a379036b4b73a1760511b6064820152608401610b52565b82600e54611c5091906132a6565b341015611c945760405162461bcd60e51b8152602060048201526012602482015271496e73756666696369656e742066756e647360701b6044820152606401610b52565b60015b838111611d4857336000908152601860205260408120805491611cb983613343565b90915550506014546301000000900460ff1615156001148015611ce65750611ce033611488565b15156001145b8015611cfd5750601154611cfa858461327a565b11155b15611d2357336000908152601760205260408120805491611d1d83613343565b91905055505b611d3633611d31838661327a565b6125fd565b80611d4081613343565b915050611c97565b50505050565b6001600160a01b038216331415611da75760405162461bcd60e51b815260206004820152601960248201527f4552433732313a20617070726f766520746f2063616c6c6572000000000000006044820152606401610b52565b3360008181526005602090815260408083206001600160a01b03871680855290835292819020805460ff191686151590811790915590519081529192917f17307eab39ab6107e8899845ad3d59bd9653f200f220920489ca2b5937696c31910160405180910390a35050565b600a546001600160a01b03163314611e3d5760405162461bcd60e51b8152600401610b52906131c4565b6014805461ff001916610100179055565b611e583383612309565b611e745760405162461bcd60e51b8152600401610b52906131f9565b611d4884848484612617565b6015818154811061142d57600080fd5b600c8054610ca290613308565b600a546001600160a01b03163314611ec75760405162461bcd60e51b8152600401610b52906131c4565b80611ee45760405162461bcd60e51b8152600401610b529061324a565b60005b81811015610e6357611f19838383818110611f0457611f046133b4565b90506020020160208101906107489190612d68565b611f79576016838383818110611f3157611f316133b4565b9050602002016020810190611f469190612d68565b81546001810183556000928352602090922090910180546001600160a01b0319166001600160a01b039092169190911790555b80611f8381613343565b915050611ee7565b6000818152600260205260409020546060906001600160a01b031661200a5760405162461bcd60e51b815260206004820152602f60248201527f4552433732314d657461646174613a2055524920717565727920666f72206e6f60448201526e3732bc34b9ba32b73a103a37b5b2b760891b6064820152608401610b52565b601454610100900460ff166120ab57600d805461202690613308565b80601f016020809104026020016040519081016040528092919081815260200182805461205290613308565b801561209f5780601f106120745761010080835404028352916020019161209f565b820191906000526020600020905b81548152906001019060200180831161208257829003601f168201915b50505050509050919050565b60006120b561264a565b905060008151116120d55760405180602001604052806000815250612103565b806120df84612659565b600c6040516020016120f39392919061301a565b6040516020818303038152906040525b9392505050565b600a546001600160a01b031633146121345760405162461bcd60e51b8152600401610b52906131c4565b601255565b600a546001600160a01b031633146121635760405162461bcd60e51b8152600401610b52906131c4565b805161148490600c906020840190612c2d565b600a546001600160a01b031633146121a05760405162461bcd60e51b8152600401610b52906131c4565b805161148490600d906020840190612c2d565b600a546001600160a01b031633146121dd5760405162461bcd60e51b8152600401610b52906131c4565b6001600160a01b0381166122425760405162461bcd60e51b815260206004820152602660248201527f4f776e61626c653a206e6577206f776e657220697320746865207a65726f206160448201526564647265737360d01b6064820152608401610b52565b61129b816125ab565b60006001600160e01b031982166380ac58cd60e01b148061227c57506001600160e01b03198216635b5e139f60e01b145b80610b2257506301ffc9a760e01b6001600160e01b0319831614610b22565b600081815260046020526040902080546001600160a01b0319166001600160a01b03841690811790915581906122d082611531565b6001600160a01b03167f8c5be1e5ebec7d5bd14f71427d1e84f3dd0314c0f7b2291e5b200ac8c7c3b92560405160405180910390a45050565b6000818152600260205260408120546001600160a01b03166123825760405162461bcd60e51b815260206004820152602c60248201527f4552433732313a206f70657261746f7220717565727920666f72206e6f6e657860448201526b34b9ba32b73a103a37b5b2b760a11b6064820152608401610b52565b600061238d83611531565b9050806001600160a01b0316846001600160a01b031614806123c85750836001600160a01b03166123bd84610c00565b6001600160a01b0316145b806123f857506001600160a01b0380821660009081526005602090815260408083209388168352929052205460ff165b949350505050565b826001600160a01b031661241382611531565b6001600160a01b03161461247b5760405162461bcd60e51b815260206004820152602960248201527f4552433732313a207472616e73666572206f6620746f6b656e2074686174206960448201526839903737ba1037bbb760b91b6064820152608401610b52565b6001600160a01b0382166124dd5760405162461bcd60e51b8152602060048201526024808201527f4552433732313a207472616e7366657220746f20746865207a65726f206164646044820152637265737360e01b6064820152608401610b52565b6124e8838383612757565b6124f360008261229b565b6001600160a01b038316600090815260036020526040812080546001929061251c9084906132c5565b90915550506001600160a01b038216600090815260036020526040812080546001929061254a90849061327a565b909155505060008181526002602052604080822080546001600160a01b0319166001600160a01b0386811691821790925591518493918716917fddf252ad1be2c89b69c2b068fc378daa952ba7f163c4a11628f55a4df523b3ef91a4505050565b600a80546001600160a01b038381166001600160a01b0319831681179093556040519116919082907f8be0079c531659141344cd1fd0a4f28419497f9722a3daafe3b4186f6b6457e090600090a35050565b61148482826040518060200160405280600081525061280f565b612622848484612400565b61262e84848484612842565b611d485760405162461bcd60e51b8152600401610b5290613172565b6060600b8054610b7d90613308565b60608161267d5750506040805180820190915260018152600360fc1b602082015290565b8160005b81156126a7578061269181613343565b91506126a09050600a83613292565b9150612681565b60008167ffffffffffffffff8111156126c2576126c26133ca565b6040519080825280601f01601f1916602001820160405280156126ec576020820181803683370190505b5090505b84156123f8576127016001836132c5565b915061270e600a8661335e565b61271990603061327a565b60f81b81838151811061272e5761272e6133b4565b60200101906001600160f81b031916908160001a905350612750600a86613292565b94506126f0565b6001600160a01b0383166127b2576127ad81600880546000838152600960205260408120829055600182018355919091527ff3f7a9fe364faab93b216da50a3214154f22a0a2b415b23a84c8169e8b636ee30155565b6127d5565b816001600160a01b0316836001600160a01b0316146127d5576127d5838261294f565b6001600160a01b0382166127ec57610e63816129ec565b826001600160a01b0316826001600160a01b031614610e6357610e638282612a9b565b6128198383612adf565b6128266000848484612842565b610e635760405162461bcd60e51b8152600401610b5290613172565b60006001600160a01b0384163b1561294457604051630a85bd0160e11b81526001600160a01b0385169063150b7a02906128869033908990889088906004016130de565b602060405180830381600087803b1580156128a057600080fd5b505af19250505080156128d0575060408051601f3d908101601f191682019092526128cd91810190612f6f565b60015b61292a573d8080156128fe576040519150601f19603f3d011682016040523d82523d6000602084013e612903565b606091505b5080516129225760405162461bcd60e51b8152600401610b5290613172565b805181602001fd5b6001600160e01b031916630a85bd0160e11b1490506123f8565b506001949350505050565b6000600161295c84611613565b61296691906132c5565b6000838152600760205260409020549091508082146129b9576001600160a01b03841660009081526006602090815260408083208584528252808320548484528184208190558352600790915290208190555b5060009182526007602090815260408084208490556001600160a01b039094168352600681528383209183525290812055565b6008546000906129fe906001906132c5565b60008381526009602052604081205460088054939450909284908110612a2657612a266133b4565b906000526020600020015490508060088381548110612a4757612a476133b4565b6000918252602080832090910192909255828152600990915260408082208490558582528120556008805480612a7f57612a7f61339e565b6001900381819060005260206000200160009055905550505050565b6000612aa683611613565b6001600160a01b039093166000908152600660209081526040808320868452825280832085905593825260079052919091209190915550565b6001600160a01b038216612b355760405162461bcd60e51b815260206004820181905260248201527f4552433732313a206d696e7420746f20746865207a65726f20616464726573736044820152606401610b52565b6000818152600260205260409020546001600160a01b031615612b9a5760405162461bcd60e51b815260206004820152601c60248201527f4552433732313a20746f6b656e20616c7265616479206d696e746564000000006044820152606401610b52565b612ba660008383612757565b6001600160a01b0382166000908152600360205260408120805460019290612bcf90849061327a565b909155505060008181526002602052604080822080546001600160a01b0319166001600160a01b03861690811790915590518392907fddf252ad1be2c89b69c2b068fc378daa952ba7f163c4a11628f55a4df523b3ef908290a45050565b828054612c3990613308565b90600052602060002090601f016020900481019282612c5b5760008555612ca1565b82601f10612c7457805160ff1916838001178555612ca1565b82800160010185558215612ca1579182015b82811115612ca1578251825591602001919060010190612c86565b50612cad929150612cb1565b5090565b5b80821115612cad5760008155600101612cb2565b600067ffffffffffffffff80841115612ce157612ce16133ca565b604051601f8501601f19908116603f01168101908282118183101715612d0957612d096133ca565b81604052809350858152868686011115612d2257600080fd5b858560208301376000602087830101525050509392505050565b80356001600160a01b0381168114612d5357600080fd5b919050565b80358015158114612d5357600080fd5b600060208284031215612d7a57600080fd5b61210382612d3c565b60008060408385031215612d9657600080fd5b612d9f83612d3c565b9150612dad60208401612d3c565b90509250929050565b600080600060608486031215612dcb57600080fd5b612dd484612d3c565b9250612de260208501612d3c565b9150604084013590509250925092565b60008060008060808587031215612e0857600080fd5b612e1185612d3c565b9350612e1f60208601612d3c565b925060408501359150606085013567ffffffffffffffff811115612e4257600080fd5b8501601f81018713612e5357600080fd5b612e6287823560208401612cc6565b91505092959194509250565b60008060408385031215612e8157600080fd5b612e8a83612d3c565b9150612dad60208401612d58565b60008060408385031215612eab57600080fd5b612eb483612d3c565b946020939093013593505050565b60008060208385031215612ed557600080fd5b823567ffffffffffffffff80821115612eed57600080fd5b818501915085601f830112612f0157600080fd5b813581811115612f1057600080fd5b8660208260051b8501011115612f2557600080fd5b60209290920196919550909350505050565b600060208284031215612f4957600080fd5b61210382612d58565b600060208284031215612f6457600080fd5b8135612103816133e0565b600060208284031215612f8157600080fd5b8151612103816133e0565b600060208284031215612f9e57600080fd5b813567ffffffffffffffff811115612fb557600080fd5b8201601f81018413612fc657600080fd5b6123f884823560208401612cc6565b600060208284031215612fe757600080fd5b5035919050565b600081518084526130068160208601602086016132dc565b601f01601f19169290920160200192915050565b60008451602061302d8285838a016132dc565b8551918401916130408184848a016132dc565b8554920191600090600181811c908083168061305d57607f831692505b85831081141561307b57634e487b7160e01b85526022600452602485fd5b80801561308f57600181146130a0576130cd565b60ff198516885283880195506130cd565b60008b81526020902060005b858110156130c55781548a8201529084019088016130ac565b505083880195505b50939b9a5050505050505050505050565b6001600160a01b038581168252841660208201526040810183905260806060820181905260009061311190830184612fee565b9695505050505050565b6020808252825182820181905260009190848201906040850190845b8181101561315357835183529284019291840191600101613137565b50909695505050505050565b6020815260006121036020830184612fee565b60208082526032908201527f4552433732313a207472616e7366657220746f206e6f6e20455243373231526560408201527131b2b4bb32b91034b6b83632b6b2b73a32b960711b606082015260800190565b6020808252818101527f4f776e61626c653a2063616c6c6572206973206e6f7420746865206f776e6572604082015260600190565b60208082526031908201527f4552433732313a207472616e736665722063616c6c6572206973206e6f74206f6040820152701ddb995c881b9bdc88185c1c1c9bdd9959607a1b606082015260800190565b602080825260169082015275496e76616c6964206163636f756e747320617272617960501b604082015260600190565b6000821982111561328d5761328d613372565b500190565b6000826132a1576132a1613388565b500490565b60008160001904831182151516156132c0576132c0613372565b500290565b6000828210156132d7576132d7613372565b500390565b60005b838110156132f75781810151838201526020016132df565b83811115611d485750506000910152565b600181811c9082168061331c57607f821691505b6020821081141561333d57634e487b7160e01b600052602260045260246000fd5b50919050565b600060001982141561335757613357613372565b5060010190565b60008261336d5761336d613388565b500690565b634e487b7160e01b600052601160045260246000fd5b634e487b7160e01b600052601260045260246000fd5b634e487b7160e01b600052603160045260246000fd5b634e487b7160e01b600052603260045260246000fd5b634e487b7160e01b600052604160045260246000fd5b6001600160e01b03198116811461129b57600080fdfea2646970667358221220c06cb80ec161fd0b55cc7474433ab55207b2d1fb037f8d6527d89c7cea5ed8d964736f6c634300080700334f776e61626c653a2063616c6c6572206973206e6f7420746865206f776e6572"}}