{"compiler":"v0.8.4+commit.c7e474f2","opcodeHash":"0x589d1325b72dad114a7a9f3f658f73bce93b37aa3a1d405dc914d7a8de63894e","metalessHash":"0xdab5d83af24f4c8e158e4770617a4e4155112c1684622d7e37c7a68aafc382d4","runtimeHash":"0x777ae0424394d830364b94ebe202ae4c3179b9f48e4e0b3864f7e805470328bd","encodedMetadata":[{"ipfs":"/ipfs/QmSb4HZtG6sGWRxpHmd8dFzE8GJTpZ4HuRw4db3fvAS5Hc","solc":"0.8.4"}],"abi":[{"anonymous":false,"inputs":[{"indexed":true,"internalType":"address","name":"owner","type":"address"},{"indexed":true,"internalType":"address","name":"spender","type":"address"},{"indexed":false,"internalType":"uint256","name":"value","type":"uint256"}],"name":"Approval","type":"event"},{"anonymous":false,"inputs":[{"indexed":false,"internalType":"address","name":"account","type":"address"}],"name":"Paused","type":"event"},{"anonymous":false,"inputs":[{"indexed":true,"internalType":"bytes32","name":"role","type":"bytes32"},{"indexed":true,"internalType":"bytes32","name":"previousAdminRole","type":"bytes32"},{"indexed":true,"internalType":"bytes32","name":"newAdminRole","type":"bytes32"}],"name":"RoleAdminChanged","type":"event"},{"anonymous":false,"inputs":[{"indexed":true,"internalType":"bytes32","name":"role","type":"bytes32"},{"indexed":true,"internalType":"address","name":"account","type":"address"},{"indexed":true,"internalType":"address","name":"sender","type":"address"}],"name":"RoleGranted","type":"event"},{"anonymous":false,"inputs":[{"indexed":true,"internalType":"bytes32","name":"role","type":"bytes32"},{"indexed":true,"internalType":"address","name":"account","type":"address"},{"indexed":true,"internalType":"address","name":"sender","type":"address"}],"name":"RoleRevoked","type":"event"},{"anonymous":false,"inputs":[{"indexed":true,"internalType":"address","name":"from","type":"address"},{"indexed":true,"internalType":"address","name":"to","type":"address"},{"indexed":false,"internalType":"uint256","name":"value","type":"uint256"}],"name":"Transfer","type":"event"},{"anonymous":false,"inputs":[{"indexed":false,"internalType":"address","name":"account","type":"address"}],"name":"Unpaused","type":"event"},{"inputs":[],"name":"DEFAULT_ADMIN_ROLE","outputs":[{"internalType":"bytes32","name":"","type":"bytes32"}],"stateMutability":"view","type":"function"},{"inputs":[],"name":"MINTER_ROLE","outputs":[{"internalType":"bytes32","name":"","type":"bytes32"}],"stateMutability":"view","type":"function"},{"inputs":[],"name":"PAUSER_ROLE","outputs":[{"internalType":"bytes32","name":"","type":"bytes32"}],"stateMutability":"view","type":"function"},{"inputs":[{"internalType":"address","name":"owner","type":"address"},{"internalType":"address","name":"spender","type":"address"}],"name":"allowance","outputs":[{"internalType":"uint256","name":"","type":"uint256"}],"stateMutability":"view","type":"function"},{"inputs":[{"internalType":"address","name":"spender","type":"address"},{"internalType":"uint256","name":"amount","type":"uint256"}],"name":"approve","outputs":[{"internalType":"bool","name":"","type":"bool"}],"stateMutability":"nonpayable","type":"function"},{"inputs":[{"internalType":"address","name":"account","type":"address"}],"name":"balanceOf","outputs":[{"internalType":"uint256","name":"","type":"uint256"}],"stateMutability":"view","type":"function"},{"inputs":[],"name":"decimals","outputs":[{"internalType":"uint8","name":"","type":"uint8"}],"stateMutability":"view","type":"function"},{"inputs":[{"internalType":"address","name":"spender","type":"address"},{"internalType":"uint256","name":"subtractedValue","type":"uint256"}],"name":"decreaseAllowance","outputs":[{"internalType":"bool","name":"","type":"bool"}],"stateMutability":"nonpayable","type":"function"},{"inputs":[{"internalType":"bytes32","name":"role","type":"bytes32"}],"name":"getRoleAdmin","outputs":[{"internalType":"bytes32","name":"","type":"bytes32"}],"stateMutability":"view","type":"function"},{"inputs":[{"internalType":"bytes32","name":"role","type":"bytes32"},{"internalType":"address","name":"account","type":"address"}],"name":"grantRole","outputs":[],"stateMutability":"nonpayable","type":"function"},{"inputs":[{"internalType":"bytes32","name":"role","type":"bytes32"},{"internalType":"address","name":"account","type":"address"}],"name":"hasRole","outputs":[{"internalType":"bool","name":"","type":"bool"}],"stateMutability":"view","type":"function"},{"inputs":[{"internalType":"address","name":"spender","type":"address"},{"internalType":"uint256","name":"addedValue","type":"uint256"}],"name":"increaseAllowance","outputs":[{"internalType":"bool","name":"","type":"bool"}],"stateMutability":"nonpayable","type":"function"},{"inputs":[],"name":"initialize","outputs":[],"stateMutability":"nonpayable","type":"function"},{"inputs":[{"internalType":"address","name":"to","type":"address"},{"internalType":"uint256","name":"amount","type":"uint256"}],"name":"mint","outputs":[],"stateMutability":"nonpayable","type":"function"},{"inputs":[],"name":"name","outputs":[{"internalType":"string","name":"","type":"string"}],"stateMutability":"view","type":"function"},{"inputs":[],"name":"pause","outputs":[],"stateMutability":"nonpayable","type":"function"},{"inputs":[],"name":"paused","outputs":[{"internalType":"bool","name":"","type":"bool"}],"stateMutability":"view","type":"function"},{"inputs":[{"internalType":"bytes32","name":"role","type":"bytes32"},{"internalType":"address","name":"account","type":"address"}],"name":"renounceRole","outputs":[],"stateMutability":"nonpayable","type":"function"},{"inputs":[{"internalType":"bytes32","name":"role","type":"bytes32"},{"internalType":"address","name":"account","type":"address"}],"name":"revokeRole","outputs":[],"stateMutability":"nonpayable","type":"function"},{"inputs":[{"internalType":"bytes4","name":"interfaceId","type":"bytes4"}],"name":"supportsInterface","outputs":[{"internalType":"bool","name":"","type":"bool"}],"stateMutability":"view","type":"function"},{"inputs":[],"name":"symbol","outputs":[{"internalType":"string","name":"","type":"string"}],"stateMutability":"view","type":"function"},{"inputs":[],"name":"totalSupply","outputs":[{"internalType":"uint256","name":"","type":"uint256"}],"stateMutability":"view","type":"function"},{"inputs":[{"internalType":"address","name":"recipient","type":"address"},{"internalType":"uint256","name":"amount","type":"uint256"}],"name":"transfer","outputs":[{"internalType":"bool","name":"","type":"bool"}],"stateMutability":"nonpayable","type":"function"},{"inputs":[{"internalType":"address","name":"sender","type":"address"},{"internalType":"address","name":"recipient","type":"address"},{"internalType":"uint256","name":"amount","type":"uint256"}],"name":"transferFrom","outputs":[{"internalType":"bool","name":"","type":"bool"}],"stateMutability":"nonpayable","type":"function"},{"inputs":[],"name":"unpause","outputs":[],"stateMutability":"nonpayable","type":"function"}],"bytecode":{"object":"608060405234801561001057600080fd5b5061314a806100206000396000f3fe608060405234801561001057600080fd5b50600436106101735760003560e01c80635c975abb116100de578063a217fddf11610097578063d539139311610071578063d53913931461044e578063d547741f1461046c578063dd62ed3e14610488578063e63ab1e9146104b857610173565b8063a217fddf146103d0578063a457c2d7146103ee578063a9059cbb1461041e57610173565b80635c975abb1461032057806370a082311461033e5780638129fc1c1461036e5780638456cb591461037857806391d148541461038257806395d89b41146103b257610173565b80632f2ff15d116101305780632f2ff15d14610274578063313ce5671461029057806336568abe146102ae57806339509351146102ca5780633f4ba83a146102fa57806340c10f191461030457610173565b806301ffc9a71461017857806306fdde03146101a8578063095ea7b3146101c657806318160ddd146101f657806323b872dd14610214578063248a9ca314610244575b600080fd5b610192600480360381019061018d919061252d565b6104d6565b60405161019f919061286d565b60405180910390f35b6101b0610550565b6040516101bd91906128a3565b60405180910390f35b6101e060048036038101906101db919061248c565b6105e2565b6040516101ed919061286d565b60405180910390f35b6101fe610600565b60405161020b9190612a65565b60405180910390f35b61022e6004803603810190610229919061243d565b61060a565b60405161023b919061286d565b60405180910390f35b61025e600480360381019061025991906124c8565b610702565b60405161026b9190612888565b60405180910390f35b61028e600480360381019061028991906124f1565b610722565b005b61029861074b565b6040516102a59190612a80565b60405180910390f35b6102c860048036038101906102c391906124f1565b610754565b005b6102e460048036038101906102df919061248c565b6107d7565b6040516102f1919061286d565b60405180910390f35b610302610883565b005b61031e6004803603810190610319919061248c565b6108c0565b005b610328610901565b604051610335919061286d565b60405180910390f35b610358600480360381019061035391906123d8565b610918565b6040516103659190612a65565b60405180910390f35b610376610961565b005b610380610b1f565b005b61039c600480360381019061039791906124f1565b610b5c565b6040516103a9919061286d565b60405180910390f35b6103ba610bc7565b6040516103c791906128a3565b60405180910390f35b6103d8610c59565b6040516103e59190612888565b60405180910390f35b6104086004803603810190610403919061248c565b610c60565b604051610415919061286d565b60405180910390f35b6104386004803603810190610433919061248c565b610d4b565b604051610445919061286d565b60405180910390f35b610456610d69565b6040516104639190612888565b60405180910390f35b610486600480360381019061048191906124f1565b610d8d565b005b6104a2600480360381019061049d9190612401565b610db6565b6040516104af9190612a65565b60405180910390f35b6104c0610e3d565b6040516104cd9190612888565b60405180910390f35b60007f7965db0b000000000000000000000000000000000000000000000000000000007bffffffffffffffffffffffffffffffffffffffffffffffffffffffff1916827bffffffffffffffffffffffffffffffffffffffffffffffffffffffff19161480610549575061054882610e61565b5b9050919050565b60606036805461055f90612c5a565b80601f016020809104026020016040519081016040528092919081815260200182805461058b90612c5a565b80156105d85780601f106105ad576101008083540402835291602001916105d8565b820191906000526020600020905b8154815290600101906020018083116105bb57829003601f168201915b5050505050905090565b60006105f66105ef610ecb565b8484610ed3565b6001905092915050565b6000603554905090565b600061061784848461109e565b6000603460008673ffffffffffffffffffffffffffffffffffffffff1673ffffffffffffffffffffffffffffffffffffffff1681526020019081526020016000206000610662610ecb565b73ffffffffffffffffffffffffffffffffffffffff1673ffffffffffffffffffffffffffffffffffffffff168152602001908152602001600020549050828110156106e2576040517f08c379a00000000000000000000000000000000000000000000000000000000081526004016106d9906129a5565b60405180910390fd5b6106f6856106ee610ecb565b858403610ed3565b60019150509392505050565b600060c96000838152602001908152602001600020600101549050919050565b61072b82610702565b61073c81610737610ecb565b611322565b61074683836113bf565b505050565b60006012905090565b61075c610ecb565b73ffffffffffffffffffffffffffffffffffffffff168173ffffffffffffffffffffffffffffffffffffffff16146107c9576040517f08c379a00000000000000000000000000000000000000000000000000000000081526004016107c090612a25565b60405180910390fd5b6107d382826114a0565b5050565b60006108796107e4610ecb565b8484603460006107f2610ecb565b73ffffffffffffffffffffffffffffffffffffffff1673ffffffffffffffffffffffffffffffffffffffff16815260200190815260200160002060008873ffffffffffffffffffffffffffffffffffffffff1673ffffffffffffffffffffffffffffffffffffffff168152602001908152602001600020546108749190612ac2565b610ed3565b6001905092915050565b7f65d7a28e3265b37a6474929f336521b332c1681b933f6cb9f3376673440d862a6108b5816108b0610ecb565b611322565b6108bd611582565b50565b7f9f2df0fed2c77648de5860a4cc508cd0818c85b8b8a1ab4ceeef8d981c8956a66108f2816108ed610ecb565b611322565b6108fc8383611624565b505050565b6000606560009054906101000a900460ff16905090565b6000603360008373ffffffffffffffffffffffffffffffffffffffff1673ffffffffffffffffffffffffffffffffffffffff168152602001908152602001600020549050919050565b600060019054906101000a900460ff1680610987575060008054906101000a900460ff16155b6109c6576040517f08c379a00000000000000000000000000000000000000000000000000000000081526004016109bd90612985565b60405180910390fd5b60008060019054906101000a900460ff161590508015610a16576001600060016101000a81548160ff02191690831515021790555060016000806101000a81548160ff0219169083151502179055505b610a8a6040518060400160405280600481526020017f45524f53000000000000000000000000000000000000000000000000000000008152506040518060400160405280600381526020017f45524f0000000000000000000000000000000000000000000000000000000000815250611785565b610a92611872565b610a9a61195b565b610aa76000801b33611a4c565b610ad17f65d7a28e3265b37a6474929f336521b332c1681b933f6cb9f3376673440d862a33611a4c565b610afb7f9f2df0fed2c77648de5860a4cc508cd0818c85b8b8a1ab4ceeef8d981c8956a633611a4c565b8015610b1c5760008060016101000a81548160ff0219169083151502179055505b50565b7f65d7a28e3265b37a6474929f336521b332c1681b933f6cb9f3376673440d862a610b5181610b4c610ecb565b611322565b610b59611a5a565b50565b600060c9600084815260200190815260200160002060000160008373ffffffffffffffffffffffffffffffffffffffff1673ffffffffffffffffffffffffffffffffffffffff16815260200190815260200160002060009054906101000a900460ff16905092915050565b606060378054610bd690612c5a565b80601f0160208091040260200160405190810160405280929190818152602001828054610c0290612c5a565b8015610c4f5780601f10610c2457610100808354040283529160200191610c4f565b820191906000526020600020905b815481529060010190602001808311610c3257829003601f168201915b5050505050905090565b6000801b81565b60008060346000610c6f610ecb565b73ffffffffffffffffffffffffffffffffffffffff1673ffffffffffffffffffffffffffffffffffffffff16815260200190815260200160002060008573ffffffffffffffffffffffffffffffffffffffff1673ffffffffffffffffffffffffffffffffffffffff16815260200190815260200160002054905082811015610d2c576040517f08c379a0000000000000000000000000000000000000000000000000000000008152600401610d2390612a05565b60405180910390fd5b610d40610d37610ecb565b85858403610ed3565b600191505092915050565b6000610d5f610d58610ecb565b848461109e565b6001905092915050565b7f9f2df0fed2c77648de5860a4cc508cd0818c85b8b8a1ab4ceeef8d981c8956a681565b610d9682610702565b610da781610da2610ecb565b611322565b610db183836114a0565b505050565b6000603460008473ffffffffffffffffffffffffffffffffffffffff1673ffffffffffffffffffffffffffffffffffffffff16815260200190815260200160002060008373ffffffffffffffffffffffffffffffffffffffff1673ffffffffffffffffffffffffffffffffffffffff16815260200190815260200160002054905092915050565b7f65d7a28e3265b37a6474929f336521b332c1681b933f6cb9f3376673440d862a81565b60007f01ffc9a7000000000000000000000000000000000000000000000000000000007bffffffffffffffffffffffffffffffffffffffffffffffffffffffff1916827bffffffffffffffffffffffffffffffffffffffffffffffffffffffff1916149050919050565b600033905090565b600073ffffffffffffffffffffffffffffffffffffffff168373ffffffffffffffffffffffffffffffffffffffff161415610f43576040517f08c379a0000000000000000000000000000000000000000000000000000000008152600401610f3a906129e5565b60405180910390fd5b600073ffffffffffffffffffffffffffffffffffffffff168273ffffffffffffffffffffffffffffffffffffffff161415610fb3576040517f08c379a0000000000000000000000000000000000000000000000000000000008152600401610faa90612925565b60405180910390fd5b80603460008573ffffffffffffffffffffffffffffffffffffffff1673ffffffffffffffffffffffffffffffffffffffff16815260200190815260200160002060008473ffffffffffffffffffffffffffffffffffffffff1673ffffffffffffffffffffffffffffffffffffffff168152602001908152602001600020819055508173ffffffffffffffffffffffffffffffffffffffff168373ffffffffffffffffffffffffffffffffffffffff167f8c5be1e5ebec7d5bd14f71427d1e84f3dd0314c0f7b2291e5b200ac8c7c3b925836040516110919190612a65565b60405180910390a3505050565b600073ffffffffffffffffffffffffffffffffffffffff168373ffffffffffffffffffffffffffffffffffffffff16141561110e576040517f08c379a0000000000000000000000000000000000000000000000000000000008152600401611105906129c5565b60405180910390fd5b600073ffffffffffffffffffffffffffffffffffffffff168273ffffffffffffffffffffffffffffffffffffffff16141561117e576040517f08c379a0000000000000000000000000000000000000000000000000000000008152600401611175906128e5565b60405180910390fd5b611189838383611afd565b6000603360008573ffffffffffffffffffffffffffffffffffffffff1673ffffffffffffffffffffffffffffffffffffffff16815260200190815260200160002054905081811015611210576040517f08c379a000000000000000000000000000000000000000000000000000000000815260040161120790612945565b60405180910390fd5b818103603360008673ffffffffffffffffffffffffffffffffffffffff1673ffffffffffffffffffffffffffffffffffffffff1681526020019081526020016000208190555081603360008573ffffffffffffffffffffffffffffffffffffffff1673ffffffffffffffffffffffffffffffffffffffff16815260200190815260200160002060008282546112a59190612ac2565b925050819055508273ffffffffffffffffffffffffffffffffffffffff168473ffffffffffffffffffffffffffffffffffffffff167fddf252ad1be2c89b69c2b068fc378daa952ba7f163c4a11628f55a4df523b3ef846040516113099190612a65565b60405180910390a361131c848484611b55565b50505050565b61132c8282610b5c565b6113bb576113518173ffffffffffffffffffffffffffffffffffffffff166014611b5a565b61135f8360001c6020611b5a565b604051602001611370929190612818565b6040516020818303038152906040526040517f08c379a00000000000000000000000000000000000000000000000000000000081526004016113b291906128a3565b60405180910390fd5b5050565b6113c98282610b5c565b61149c57600160c9600084815260200190815260200160002060000160008373ffffffffffffffffffffffffffffffffffffffff1673ffffffffffffffffffffffffffffffffffffffff16815260200190815260200160002060006101000a81548160ff021916908315150217905550611441610ecb565b73ffffffffffffffffffffffffffffffffffffffff168173ffffffffffffffffffffffffffffffffffffffff16837f2f8788117e7eff1d82e926ec794901d17c78024a50270940304540a733656f0d60405160405180910390a45b5050565b6114aa8282610b5c565b1561157e57600060c9600084815260200190815260200160002060000160008373ffffffffffffffffffffffffffffffffffffffff1673ffffffffffffffffffffffffffffffffffffffff16815260200190815260200160002060006101000a81548160ff021916908315150217905550611523610ecb565b73ffffffffffffffffffffffffffffffffffffffff168173ffffffffffffffffffffffffffffffffffffffff16837ff6391f5c32d9c69d2a47ea670b442974b53935d1edc7fd64eb21e047a839171b60405160405180910390a45b5050565b61158a610901565b6115c9576040517f08c379a00000000000000000000000000000000000000000000000000000000081526004016115c090612905565b60405180910390fd5b6000606560006101000a81548160ff0219169083151502179055507f5db9ee0a495bf2e6ff9c91a7834c1ba4fdd244a5e8aa4e537bd38aeae4b073aa61160d610ecb565b60405161161a9190612852565b60405180910390a1565b600073ffffffffffffffffffffffffffffffffffffffff168273ffffffffffffffffffffffffffffffffffffffff161415611694576040517f08c379a000000000000000000000000000000000000000000000000000000000815260040161168b90612a45565b60405180910390fd5b6116a060008383611afd565b80603560008282546116b29190612ac2565b9250508190555080603360008473ffffffffffffffffffffffffffffffffffffffff1673ffffffffffffffffffffffffffffffffffffffff16815260200190815260200160002060008282546117089190612ac2565b925050819055508173ffffffffffffffffffffffffffffffffffffffff16600073ffffffffffffffffffffffffffffffffffffffff167fddf252ad1be2c89b69c2b068fc378daa952ba7f163c4a11628f55a4df523b3ef8360405161176d9190612a65565b60405180910390a361178160008383611b55565b5050565b600060019054906101000a900460ff16806117ab575060008054906101000a900460ff16155b6117ea576040517f08c379a00000000000000000000000000000000000000000000000000000000081526004016117e190612985565b60405180910390fd5b60008060019054906101000a900460ff16159050801561183a576001600060016101000a81548160ff02191690831515021790555060016000806101000a81548160ff0219169083151502179055505b611842611e54565b61184c8383611f2d565b801561186d5760008060016101000a81548160ff0219169083151502179055505b505050565b600060019054906101000a900460ff1680611898575060008054906101000a900460ff16155b6118d7576040517f08c379a00000000000000000000000000000000000000000000000000000000081526004016118ce90612985565b60405180910390fd5b60008060019054906101000a900460ff161590508015611927576001600060016101000a81548160ff02191690831515021790555060016000806101000a81548160ff0219169083151502179055505b61192f611e54565b611937612036565b80156119585760008060016101000a81548160ff0219169083151502179055505b50565b600060019054906101000a900460ff1680611981575060008054906101000a900460ff16155b6119c0576040517f08c379a00000000000000000000000000000000000000000000000000000000081526004016119b790612985565b60405180910390fd5b60008060019054906101000a900460ff161590508015611a10576001600060016101000a81548160ff02191690831515021790555060016000806101000a81548160ff0219169083151502179055505b611a18611e54565b611a2061212a565b611a28612203565b8015611a495760008060016101000a81548160ff0219169083151502179055505b50565b611a5682826113bf565b5050565b611a62610901565b15611aa2576040517f08c379a0000000000000000000000000000000000000000000000000000000008152600401611a9990612965565b60405180910390fd5b6001606560006101000a81548160ff0219169083151502179055507f62e78cea01bee320cd4e420270b5ea74000d11b0c9f74754ebdbfc544b05a258611ae6610ecb565b604051611af39190612852565b60405180910390a1565b611b05610901565b15611b45576040517f08c379a0000000000000000000000000000000000000000000000000000000008152600401611b3c90612965565b60405180910390fd5b611b508383836122dc565b505050565b505050565b606060006002836002611b6d9190612b18565b611b779190612ac2565b67ffffffffffffffff811115611bb6577f4e487b7100000000000000000000000000000000000000000000000000000000600052604160045260246000fd5b6040519080825280601f01601f191660200182016040528015611be85781602001600182028036833780820191505090505b5090507f300000000000000000000000000000000000000000000000000000000000000081600081518110611c46577f4e487b7100000000000000000000000000000000000000000000000000000000600052603260045260246000fd5b60200101907effffffffffffffffffffffffffffffffffffffffffffffffffffffffffffff1916908160001a9053507f780000000000000000000000000000000000000000000000000000000000000081600181518110611cd0577f4e487b7100000000000000000000000000000000000000000000000000000000600052603260045260246000fd5b60200101907effffffffffffffffffffffffffffffffffffffffffffffffffffffffffffff1916908160001a90535060006001846002611d109190612b18565b611d1a9190612ac2565b90505b6001811115611e06577f3031323334353637383961626364656600000000000000000000000000000000600f861660108110611d82577f4e487b7100000000000000000000000000000000000000000000000000000000600052603260045260246000fd5b1a60f81b828281518110611dbf577f4e487b7100000000000000000000000000000000000000000000000000000000600052603260045260246000fd5b60200101907effffffffffffffffffffffffffffffffffffffffffffffffffffffffffffff1916908160001a905350600485901c945080611dff90612c30565b9050611d1d565b5060008414611e4a576040517f08c379a0000000000000000000000000000000000000000000000000000000008152600401611e41906128c5565b60405180910390fd5b8091505092915050565b600060019054906101000a900460ff1680611e7a575060008054906101000a900460ff16155b611eb9576040517f08c379a0000000000000000000000000000000000000000000000000000000008152600401611eb090612985565b60405180910390fd5b60008060019054906101000a900460ff161590508015611f09576001600060016101000a81548160ff02191690831515021790555060016000806101000a81548160ff0219169083151502179055505b8015611f2a5760008060016101000a81548160ff0219169083151502179055505b50565b600060019054906101000a900460ff1680611f53575060008054906101000a900460ff16155b611f92576040517f08c379a0000000000000000000000000000000000000000000000000000000008152600401611f8990612985565b60405180910390fd5b60008060019054906101000a900460ff161590508015611fe2576001600060016101000a81548160ff02191690831515021790555060016000806101000a81548160ff0219169083151502179055505b8260369080519060200190611ff89291906122e1565b50816037908051906020019061200f9291906122e1565b5080156120315760008060016101000a81548160ff0219169083151502179055505b505050565b600060019054906101000a900460ff168061205c575060008054906101000a900460ff16155b61209b576040517f08c379a000000000000000000000000000000000000000000000000000000000815260040161209290612985565b60405180910390fd5b60008060019054906101000a900460ff1615905080156120eb576001600060016101000a81548160ff02191690831515021790555060016000806101000a81548160ff0219169083151502179055505b6000606560006101000a81548160ff02191690831515021790555080156121275760008060016101000a81548160ff0219169083151502179055505b50565b600060019054906101000a900460ff1680612150575060008054906101000a900460ff16155b61218f576040517f08c379a000000000000000000000000000000000000000000000000000000000815260040161218690612985565b60405180910390fd5b60008060019054906101000a900460ff1615905080156121df576001600060016101000a81548160ff02191690831515021790555060016000806101000a81548160ff0219169083151502179055505b80156122005760008060016101000a81548160ff0219169083151502179055505b50565b600060019054906101000a900460ff1680612229575060008054906101000a900460ff16155b612268576040517f08c379a000000000000000000000000000000000000000000000000000000000815260040161225f90612985565b60405180910390fd5b60008060019054906101000a900460ff1615905080156122b8576001600060016101000a81548160ff02191690831515021790555060016000806101000a81548160ff0219169083151502179055505b80156122d95760008060016101000a81548160ff0219169083151502179055505b50565b505050565b8280546122ed90612c5a565b90600052602060002090601f01602090048101928261230f5760008555612356565b82601f1061232857805160ff1916838001178555612356565b82800160010185558215612356579182015b8281111561235557825182559160200191906001019061233a565b5b5090506123639190612367565b5090565b5b80821115612380576000816000905550600101612368565b5090565b600081359050612393816130b8565b92915050565b6000813590506123a8816130cf565b92915050565b6000813590506123bd816130e6565b92915050565b6000813590506123d2816130fd565b92915050565b6000602082840312156123ea57600080fd5b60006123f884828501612384565b91505092915050565b6000806040838503121561241457600080fd5b600061242285828601612384565b925050602061243385828601612384565b9150509250929050565b60008060006060848603121561245257600080fd5b600061246086828701612384565b935050602061247186828701612384565b9250506040612482868287016123c3565b9150509250925092565b6000806040838503121561249f57600080fd5b60006124ad85828601612384565b92505060206124be858286016123c3565b9150509250929050565b6000602082840312156124da57600080fd5b60006124e884828501612399565b91505092915050565b6000806040838503121561250457600080fd5b600061251285828601612399565b925050602061252385828601612384565b9150509250929050565b60006020828403121561253f57600080fd5b600061254d848285016123ae565b91505092915050565b61255f81612b72565b82525050565b61256e81612b84565b82525050565b61257d81612b90565b82525050565b600061258e82612a9b565b6125988185612aa6565b93506125a8818560208601612bfd565b6125b181612cea565b840191505092915050565b60006125c782612a9b565b6125d18185612ab7565b93506125e1818560208601612bfd565b80840191505092915050565b60006125fa602083612aa6565b915061260582612cfb565b602082019050919050565b600061261d602383612aa6565b915061262882612d24565b604082019050919050565b6000612640601483612aa6565b915061264b82612d73565b602082019050919050565b6000612663602283612aa6565b915061266e82612d9c565b604082019050919050565b6000612686602683612aa6565b915061269182612deb565b604082019050919050565b60006126a9601083612aa6565b91506126b482612e3a565b602082019050919050565b60006126cc602e83612aa6565b91506126d782612e63565b604082019050919050565b60006126ef602883612aa6565b91506126fa82612eb2565b604082019050919050565b6000612712602583612aa6565b915061271d82612f01565b604082019050919050565b6000612735602483612aa6565b915061274082612f50565b604082019050919050565b6000612758601783612ab7565b915061276382612f9f565b601782019050919050565b600061277b602583612aa6565b915061278682612fc8565b604082019050919050565b600061279e601183612ab7565b91506127a982613017565b601182019050919050565b60006127c1602f83612aa6565b91506127cc82613040565b604082019050919050565b60006127e4601f83612aa6565b91506127ef8261308f565b602082019050919050565b61280381612be6565b82525050565b61281281612bf0565b82525050565b60006128238261274b565b915061282f82856125bc565b915061283a82612791565b915061284682846125bc565b91508190509392505050565b60006020820190506128676000830184612556565b92915050565b60006020820190506128826000830184612565565b92915050565b600060208201905061289d6000830184612574565b92915050565b600060208201905081810360008301526128bd8184612583565b905092915050565b600060208201905081810360008301526128de816125ed565b9050919050565b600060208201905081810360008301526128fe81612610565b9050919050565b6000602082019050818103600083015261291e81612633565b9050919050565b6000602082019050818103600083015261293e81612656565b9050919050565b6000602082019050818103600083015261295e81612679565b9050919050565b6000602082019050818103600083015261297e8161269c565b9050919050565b6000602082019050818103600083015261299e816126bf565b9050919050565b600060208201905081810360008301526129be816126e2565b9050919050565b600060208201905081810360008301526129de81612705565b9050919050565b600060208201905081810360008301526129fe81612728565b9050919050565b60006020820190508181036000830152612a1e8161276e565b9050919050565b60006020820190508181036000830152612a3e816127b4565b9050919050565b60006020820190508181036000830152612a5e816127d7565b9050919050565b6000602082019050612a7a60008301846127fa565b92915050565b6000602082019050612a956000830184612809565b92915050565b600081519050919050565b600082825260208201905092915050565b600081905092915050565b6000612acd82612be6565b9150612ad883612be6565b9250827fffffffffffffffffffffffffffffffffffffffffffffffffffffffffffffffff03821115612b0d57612b0c612c8c565b5b828201905092915050565b6000612b2382612be6565b9150612b2e83612be6565b9250817fffffffffffffffffffffffffffffffffffffffffffffffffffffffffffffffff0483118215151615612b6757612b66612c8c565b5b828202905092915050565b6000612b7d82612bc6565b9050919050565b60008115159050919050565b6000819050919050565b60007fffffffff0000000000000000000000000000000000000000000000000000000082169050919050565b600073ffffffffffffffffffffffffffffffffffffffff82169050919050565b6000819050919050565b600060ff82169050919050565b60005b83811015612c1b578082015181840152602081019050612c00565b83811115612c2a576000848401525b50505050565b6000612c3b82612be6565b91506000821415612c4f57612c4e612c8c565b5b600182039050919050565b60006002820490506001821680612c7257607f821691505b60208210811415612c8657612c85612cbb565b5b50919050565b7f4e487b7100000000000000000000000000000000000000000000000000000000600052601160045260246000fd5b7f4e487b7100000000000000000000000000000000000000000000000000000000600052602260045260246000fd5b6000601f19601f8301169050919050565b7f537472696e67733a20686578206c656e67746820696e73756666696369656e74600082015250565b7f45524332303a207472616e7366657220746f20746865207a65726f206164647260008201527f6573730000000000000000000000000000000000000000000000000000000000602082015250565b7f5061757361626c653a206e6f7420706175736564000000000000000000000000600082015250565b7f45524332303a20617070726f766520746f20746865207a65726f20616464726560008201527f7373000000000000000000000000000000000000000000000000000000000000602082015250565b7f45524332303a207472616e7366657220616d6f756e742065786365656473206260008201527f616c616e63650000000000000000000000000000000000000000000000000000602082015250565b7f5061757361626c653a2070617573656400000000000000000000000000000000600082015250565b7f496e697469616c697a61626c653a20636f6e747261637420697320616c72656160008201527f647920696e697469616c697a6564000000000000000000000000000000000000602082015250565b7f45524332303a207472616e7366657220616d6f756e742065786365656473206160008201527f6c6c6f77616e6365000000000000000000000000000000000000000000000000602082015250565b7f45524332303a207472616e736665722066726f6d20746865207a65726f20616460008201527f6472657373000000000000000000000000000000000000000000000000000000602082015250565b7f45524332303a20617070726f76652066726f6d20746865207a65726f2061646460008201527f7265737300000000000000000000000000000000000000000000000000000000602082015250565b7f416363657373436f6e74726f6c3a206163636f756e7420000000000000000000600082015250565b7f45524332303a2064656372656173656420616c6c6f77616e63652062656c6f7760008201527f207a65726f000000000000000000000000000000000000000000000000000000602082015250565b7f206973206d697373696e6720726f6c6520000000000000000000000000000000600082015250565b7f416363657373436f6e74726f6c3a2063616e206f6e6c792072656e6f756e636560008201527f20726f6c657320666f722073656c660000000000000000000000000000000000602082015250565b7f45524332303a206d696e7420746f20746865207a65726f206164647265737300600082015250565b6130c181612b72565b81146130cc57600080fd5b50565b6130d881612b90565b81146130e357600080fd5b50565b6130ef81612b9a565b81146130fa57600080fd5b50565b61310681612be6565b811461311157600080fd5b5056fea2646970667358221220d8096714aa4aee5aee7dd6c7952e049e9d12a6b32080515c2932c45597fd5c1664736f6c63430008040033"}}