{"compiler":"v0.8.10+commit.fc410830","opcodeHash":"0xd382b4e2021475d1299e3e8e7f64c863233b9798656fffb3113eb84598b13953","metalessHash":"0xa4d33282f7d7b97d8050255d8edd0fcfbf6ed21fd3afd4932013dc2bb615fd5a","runtimeHash":"0x9e1c979011993394746e3008c1d8a75fd976a3ef7421ba4fad16edf4542df462","encodedMetadata":[{"ipfs":"/ipfs/QmSheeYTfJquAjWTrLMbMQruUTCGXz5uNNZxRBaumECHiZ","solc":"0.8.10"}],"abi":[{"inputs":[],"name":"routerAddress","outputs":[{"internalType":"address","name":"","type":"address"}],"stateMutability":"view","type":"function"},{"inputs":[{"internalType":"address","name":"_newRouterAddress","type":"address"}],"name":"setRouterAddress","outputs":[],"stateMutability":"nonpayable","type":"function"},{"inputs":[{"internalType":"address","name":"inputToken","type":"address"},{"internalType":"uint256","name":"inputAmount","type":"uint256"},{"internalType":"uint256","name":"minReturn","type":"uint256"},{"internalType":"address","name":"receiver","type":"address"}],"name":"uniswapV2TokenForETH","outputs":[{"internalType":"uint256","name":"bought","type":"uint256"}],"stateMutability":"nonpayable","type":"function"},{"inputs":[{"internalType":"address","name":"inputToken","type":"address"},{"internalType":"uint256","name":"inputAmount","type":"uint256"},{"internalType":"address","name":"outputToken","type":"address"},{"internalType":"uint256","name":"minReturn","type":"uint256"},{"internalType":"address","name":"receiver","type":"address"}],"name":"uniswapV2TokenForToken","outputs":[{"internalType":"uint256","name":"bought","type":"uint256"}],"stateMutability":"nonpayable","type":"function"}],"bytecode":{"object":"608060405234801561001057600080fd5b50610e79806100206000396000f3fe608060405234801561001057600080fd5b506004361061004c5760003560e01c80633268cc561461005157806341cb87fc14610076578063cb9a10b01461008b578063ee011dbd146100ac575b600080fd5b6100596100bf565b6040516001600160a01b0390911681526020015b60405180910390f35b610089610084366004610a1f565b6100ce565b005b61009e610099366004610a3c565b610116565b60405190815260200161006d565b61009e6100ba366004610a9b565b610139565b60006100c961015a565b905090565b6100d6610188565b7f6023bb0274fe66aeaa1b1ef7cfb0461c035a3c748c1abc50dafe5a7e55b0184c80546001600160a01b0319166001600160a01b03831617905550565b50565b6000610120610188565b61012f86868686866001610216565b9695505050505050565b6000610143610188565b610151858585856001610433565b95945050505050565b7f6023bb0274fe66aeaa1b1ef7cfb0461c035a3c748c1abc50dafe5a7e55b0184c546001600160a01b031690565b7fc8fcad8db84d3cc18b4c41d551ea0ee66dd599cde068d998e57d5e09332c131c600401546001600160a01b031633146102145760405162461bcd60e51b815260206004820152602260248201527f4c69624469616d6f6e643a204d75737420626520636f6e7472616374206f776e60448201526132b960f11b60648201526084015b60405180910390fd5b565b60008061022161015a565b90508061022f89828a6106a6565b604080516002808252606082018352600092602083019080368337019050509050898160008151811061026457610264610afb565b60200260200101906001600160a01b031690816001600160a01b031681525050878160018151811061029857610298610afb565b6001600160a01b03928316602091820292909201015282166338ed17398a89848a6102c4426001610b27565b6040518663ffffffff1660e01b81526004016102e4959493929190610b3f565b6000604051808303816000875af192505050801561032457506040513d6000823e601f3d908101601f191682016040526103219190810190610bdd565b60015b6103fb57610330610c84565b806308c379a0141561039b5750610345610ca0565b80610350575061039d565b851561039557610395816040518060400160405280601881526020017f737761704578616374546f6b656e73466f72546f6b656e730000000000000000815250610780565b50610426565b505b84156103f65760405162461bcd60e51b815260206004820152602260248201527f737761704578616374546f6b656e73466f72546f6b656e733a756e646566696e604482015261195960f21b606482015260840161020b565b610426565b806001825161040a9190610d2a565b8151811061041a5761041a610afb565b60200260200101519450505b5050509695505050505050565b60008061043e61015a565b90508061044c8882896106a6565b6000816001600160a01b031663ad5c46486040518163ffffffff1660e01b8152600401602060405180830381865afa15801561048c573d6000803e3d6000fd5b505050506040513d601f19601f820116820180604052508101906104b09190610d41565b604080516002808252606082018352929350600092909160208301908036833701905050905089816000815181106104ea576104ea610afb565b60200260200101906001600160a01b031690816001600160a01b031681525050818160018151811061051e5761051e610afb565b6001600160a01b03928316602091820292909201015283166318cbafe58a8a848b61054a426001610b27565b6040518663ffffffff1660e01b815260040161056a959493929190610b3f565b6000604051808303816000875af19250505080156105aa57506040513d6000823e601f3d908101601f191682016040526105a79190810190610bdd565b60015b61066e576105b6610c84565b806308c379a0141561061957506105cb610ca0565b806105d6575061061b565b86156106135761061381604051806040016040528060158152602001740e6eec2e08af0c2c6e8a8ded6cadce68cdee48aa89605b1b815250610780565b50610699565b505b85156106695760405162461bcd60e51b815260206004820152601f60248201527f737761704578616374546f6b656e73466f724554483a756e646566696e656400604482015260640161020b565b610699565b806001825161067d9190610d2a565b8151811061068d5761068d610afb565b60200260200101519550505b5050505095945050505050565b604051636eb1769f60e11b81523060048201526001600160a01b038381166024830152600091839186169063dd62ed3e90604401602060405180830381865afa1580156106f7573d6000803e3d6000fd5b505050506040513d601f19601f8201168201806040525081019061071b9190610d5e565b6107259190610b27565b604080516001600160a01b038616602482015260448082018490528251808303909101815260649091019091526020810180516001600160e01b031663095ea7b360e01b17905290915061077a9085906107b9565b50505050565b8082604051602001610793929190610da3565b60408051601f198184030181529082905262461bcd60e51b825261020b91600401610dd2565b600061080e826040518060400160405280602081526020017f5361666545524332303a206c6f772d6c6576656c2063616c6c206661696c6564815250856001600160a01b03166108909092919063ffffffff16565b80519091501561088b578080602001905181019061082c9190610e05565b61088b5760405162461bcd60e51b815260206004820152602a60248201527f5361666545524332303a204552433230206f7065726174696f6e20646964206e6044820152691bdd081cdd58d8d9595960b21b606482015260840161020b565b505050565b606061089f84846000856108a9565b90505b9392505050565b60608247101561090a5760405162461bcd60e51b815260206004820152602660248201527f416464726573733a20696e73756666696369656e742062616c616e636520666f6044820152651c8818d85b1b60d21b606482015260840161020b565b843b6109585760405162461bcd60e51b815260206004820152601d60248201527f416464726573733a2063616c6c20746f206e6f6e2d636f6e7472616374000000604482015260640161020b565b600080866001600160a01b031685876040516109749190610e27565b60006040518083038185875af1925050503d80600081146109b1576040519150601f19603f3d011682016040523d82523d6000602084013e6109b6565b606091505b50915091506109c68282866109d1565b979650505050505050565b606083156109e05750816108a2565b8251156109f05782518084602001fd5b8160405162461bcd60e51b815260040161020b9190610dd2565b6001600160a01b038116811461011357600080fd5b600060208284031215610a3157600080fd5b81356108a281610a0a565b600080600080600060a08688031215610a5457600080fd5b8535610a5f81610a0a565b9450602086013593506040860135610a7681610a0a565b9250606086013591506080860135610a8d81610a0a565b809150509295509295909350565b60008060008060808587031215610ab157600080fd5b8435610abc81610a0a565b935060208501359250604085013591506060850135610ada81610a0a565b939692955090935050565b634e487b7160e01b600052604160045260246000fd5b634e487b7160e01b600052603260045260246000fd5b634e487b7160e01b600052601160045260246000fd5b60008219821115610b3a57610b3a610b11565b500190565b600060a082018783526020878185015260a0604085015281875180845260c086019150828901935060005b81811015610b8f5784516001600160a01b031683529383019391830191600101610b6a565b50506001600160a01b03969096166060850152505050608001529392505050565b601f8201601f1916810167ffffffffffffffff81118282101715610bd657610bd6610ae5565b6040525050565b60006020808385031215610bf057600080fd5b825167ffffffffffffffff80821115610c0857600080fd5b818501915085601f830112610c1c57600080fd5b815181811115610c2e57610c2e610ae5565b8060051b9150604051610c4385840182610bb0565b81815291830184019184810188841115610c5c57600080fd5b938501935b83851015610c785784518152938501938501610c61565b50979650505050505050565b600060033d1115610c9d5760046000803e5060005160e01c5b90565b600060443d1015610cae5790565b6040516003193d81016004833e81513d67ffffffffffffffff8160248401118184111715610cde57505050505090565b8285019150815181811115610cf65750505050505090565b843d8701016020828501011115610d105750505050505090565b610d1f60208286010187610bb0565b509095945050505050565b600082821015610d3c57610d3c610b11565b500390565b600060208284031215610d5357600080fd5b81516108a281610a0a565b600060208284031215610d7057600080fd5b5051919050565b60005b83811015610d92578181015183820152602001610d7a565b8381111561077a5750506000910152565b60008351610db5818460208801610d77565b835190830190610dc9818360208801610d77565b01949350505050565b6020815260008251806020840152610df1816040850160208701610d77565b601f01601f19169190910160400192915050565b600060208284031215610e1757600080fd5b815180151581146108a257600080fd5b60008251610e39818460208701610d77565b919091019291505056fea264697066735822122040cfe00eea3e4f6f4f8092593ef5f81f6ab51333bc5061451c140f88037ec23264736f6c634300080a0033"}}