{
  "opcodeHash": "0x162d5071e0d5ff5e16e6ed0a1c44b86e6d159d1ec1bc269b764756a3fef2a0ba",
  "metalessHash": "0xe9f7a0329e879fd56602c4b6ed00a97c968d1442e56c9948c7a85efe44c59f4a",
  "runtimeHash": "0x87c1e89688709b57366bea4775d14427769e2886e2d47896354736562e7e5d88",
  "encodedMetadata": [
    {
      "ipfs": "/ipfs/QmbmPZGUVD2VffwwZHsyJ5y3L7vNcqzrv7bmfSsyDQ884k",
      "solc": "0.8.10"
    }
  ],
  "abi": [
    {
      "inputs": [
        {
          "internalType": "contract IEFIL",
          "name": "_efil",
          "type": "address"
        }
      ],
      "stateMutability": "nonpayable",
      "type": "constructor"
    },
    {
      "anonymous": false,
      "inputs": [
        {
          "indexed": false,
          "internalType": "string",
          "name": "",
          "type": "string"
        },
        {
          "indexed": false,
          "internalType": "address",
          "name": "",
          "type": "address"
        },
        {
          "indexed": false,
          "internalType": "uint256",
          "name": "",
          "type": "uint256"
        }
      ],
      "name": "Minted",
      "type": "event"
    },
    {
      "anonymous": false,
      "inputs": [
        {
          "indexed": true,
          "internalType": "address",
          "name": "previousOwner",
          "type": "address"
        },
        {
          "indexed": true,
          "internalType": "address",
          "name": "newOwner",
          "type": "address"
        }
      ],
      "name": "OwnershipTransferred",
      "type": "event"
    },
    {
      "anonymous": false,
      "inputs": [
        {
          "indexed": false,
          "internalType": "address",
          "name": "originalPoster",
          "type": "address"
        },
        {
          "indexed": false,
          "internalType": "address",
          "name": "newPoster",
          "type": "address"
        }
      ],
      "name": "PosterChanged",
      "type": "event"
    },
    {
      "inputs": [],
      "name": "efil",
      "outputs": [
        {
          "internalType": "contract IEFIL",
          "name": "",
          "type": "address"
        }
      ],
      "stateMutability": "view",
      "type": "function"
    },
    {
      "inputs": [
        {
          "internalType": "address",
          "name": "recipient",
          "type": "address"
        },
        {
          "internalType": "uint256",
          "name": "amount",
          "type": "uint256"
        },
        {
          "internalType": "string",
          "name": "collectionCid",
          "type": "string"
        }
      ],
      "name": "mint",
      "outputs": [],
      "stateMutability": "nonpayable",
      "type": "function"
    },
    {
      "inputs": [],
      "name": "owner",
      "outputs": [
        {
          "internalType": "address",
          "name": "",
          "type": "address"
        }
      ],
      "stateMutability": "view",
      "type": "function"
    },
    {
      "inputs": [],
      "name": "poster",
      "outputs": [
        {
          "internalType": "address",
          "name": "",
          "type": "address"
        }
      ],
      "stateMutability": "view",
      "type": "function"
    },
    {
      "inputs": [],
      "name": "renounceOwnership",
      "outputs": [],
      "stateMutability": "nonpayable",
      "type": "function"
    },
    {
      "inputs": [
        {
          "internalType": "address",
          "name": "_poster",
          "type": "address"
        }
      ],
      "name": "setPoster",
      "outputs": [],
      "stateMutability": "nonpayable",
      "type": "function"
    },
    {
      "inputs": [
        {
          "internalType": "address",
          "name": "newOwner",
          "type": "address"
        }
      ],
      "name": "transferOwnership",
      "outputs": [],
      "stateMutability": "nonpayable",
      "type": "function"
    }
  ],
  "bytecode": {
    "object": "608060405234801561001057600080fd5b506040516107b43803806107b483398101604081905261002f916100ad565b6100383361005d565b600280546001600160a01b0319166001600160a01b03929092169190911790556100dd565b600080546001600160a01b038381166001600160a01b0319831681178455604051919092169283917f8be0079c531659141344cd1fd0a4f28419497f9722a3daafe3b4186f6b6457e09190a35050565b6000602082840312156100bf57600080fd5b81516001600160a01b03811681146100d657600080fd5b9392505050565b6106c8806100ec6000396000f3fe608060405234801561001057600080fd5b506004361061007d5760003560e01c8063809597211161005b57806380959721146100ce5780638da5cb5b146100e1578063d3fc9864146100f2578063f2fde38b1461010557600080fd5b8063299a424814610082578063715018a6146100b157806373bbb71c146100bb575b600080fd5b600254610095906001600160a01b031681565b6040516001600160a01b03909116815260200160405180910390f35b6100b9610118565b005b6100b96100c93660046104c3565b610157565b600154610095906001600160a01b031681565b6000546001600160a01b0316610095565b6100b96101003660046104fb565b610240565b6100b96101133660046104c3565b6103bc565b6000546001600160a01b0316331461014b5760405162461bcd60e51b8152600401610142906105c6565b60405180910390fd5b6101556000610457565b565b6000546001600160a01b031633146101815760405162461bcd60e51b8152600401610142906105c6565b6001600160a01b0381166101d75760405162461bcd60e51b815260206004820152601760248201527f616464726573732073686f756c64206e6f7420626520300000000000000000006044820152606401610142565b600154604080516001600160a01b03928316815291831660208301527f32487a31d5a41d672510a2a1aa50e214e52d5d25fd9a9e94dfa66f4349f8840f910160405180910390a1600180546001600160a01b0319166001600160a01b0392909216919091179055565b6001546001600160a01b031633146102875760405162461bcd60e51b815260206004820152600a6024820152693737ba103837b9ba32b960b11b6044820152606401610142565b600381604051610297919061062b565b9081526040519081900360200190205460ff16156102e85760405162461bcd60e51b815260206004820152600e60248201526d185b1c9958591e481b5a5b9d195960921b6044820152606401610142565b60016003826040516102fa919061062b565b908152604051908190036020018120805492151560ff19909316929092179091556002546340c10f1960e01b82526001600160a01b0385811660048401526024830185905216906340c10f1990604401600060405180830381600087803b15801561036457600080fd5b505af1158015610378573d6000803e3d6000fd5b505050507f93169c1e6cb740fad37306949effd1abda48dce91920b293b59ac5511775bda48184846040516103af93929190610647565b60405180910390a1505050565b6000546001600160a01b031633146103e65760405162461bcd60e51b8152600401610142906105c6565b6001600160a01b03811661044b5760405162461bcd60e51b815260206004820152602660248201527f4f776e61626c653a206e6577206f776e657220697320746865207a65726f206160448201526564647265737360d01b6064820152608401610142565b61045481610457565b50565b600080546001600160a01b038381166001600160a01b0319831681178455604051919092169283917f8be0079c531659141344cd1fd0a4f28419497f9722a3daafe3b4186f6b6457e09190a35050565b80356001600160a01b03811681146104be57600080fd5b919050565b6000602082840312156104d557600080fd5b6104de826104a7565b9392505050565b634e487b7160e01b600052604160045260246000fd5b60008060006060848603121561051057600080fd5b610519846104a7565b925060208401359150604084013567ffffffffffffffff8082111561053d57600080fd5b818601915086601f83011261055157600080fd5b813581811115610563576105636104e5565b604051601f8201601f19908116603f0116810190838211818310171561058b5761058b6104e5565b816040528281528960208487010111156105a457600080fd5b8260208601602083013760006020848301015280955050505050509250925092565b6020808252818101527f4f776e61626c653a2063616c6c6572206973206e6f7420746865206f776e6572604082015260600190565b60005b838110156106165781810151838201526020016105fe565b83811115610625576000848401525b50505050565b6000825161063d8184602087016105fb565b9190910192915050565b60608152600084518060608401526106668160808501602089016105fb565b6001600160a01b039490941660208301525060408101919091526080601f909201601f1916010191905056fea2646970667358221220496e8d215fe2c458d71da3a4bb4d58ae8e404290f075a3bca8623ef417d1d34c64736f6c634300080a0033"
  }
}