{
  "opcodeHash": "0xe42eaaeff59b327e1bdb203c70135cf0a0da93b03cacdba1649f576db0b72bf4",
  "metalessHash": "0xbc94d3768e04899cb993d8b89facae09904d698c7949e079236fbbfe7c1d0099",
  "runtimeHash": "0x6558e27993d994185598e15f5fc0ff3821b72c5dbe6d0433df751669405847bb",
  "encodedMetadata": [
    {
      "ipfs": "/ipfs/QmQi98qT7trKevaFkXS6a6eEVsHkegpju35whiing6tMYv",
      "solc": "0.7.6"
    }
  ],
  "abi": [
    {
      "inputs": [
        {
          "internalType": "address[]",
          "name": "_pairs",
          "type": "address[]"
        },
        {
          "internalType": "address",
          "name": "_mainToken",
          "type": "address"
        },
        {
          "internalType": "address",
          "name": "_epochController",
          "type": "address"
        },
        {
          "internalType": "uint256",
          "name": "_maxEpochPeriod",
          "type": "uint256"
        },
        {
          "internalType": "uint256",
          "name": "_updatePeriod",
          "type": "uint256"
        },
        {
          "internalType": "uint256",
          "name": "_lastUpdateHour",
          "type": "uint256"
        },
        {
          "internalType": "address",
          "name": "_pairFactory",
          "type": "address"
        },
        {
          "internalType": "address",
          "name": "_defaultOracle",
          "type": "address"
        },
        {
          "internalType": "uint256",
          "name": "_oracleReserveMinimum",
          "type": "uint256"
        }
      ],
      "stateMutability": "nonpayable",
      "type": "constructor"
    },
    {
      "anonymous": false,
      "inputs": [
        {
          "indexed": true,
          "internalType": "address",
          "name": "previousOwner",
          "type": "address"
        },
        {
          "indexed": true,
          "internalType": "address",
          "name": "newOwner",
          "type": "address"
        }
      ],
      "name": "OwnershipTransferred",
      "type": "event"
    },
    {
      "anonymous": false,
      "inputs": [
        {
          "indexed": false,
          "internalType": "uint256",
          "name": "priceCumulativeLast",
          "type": "uint256"
        }
      ],
      "name": "Updated",
      "type": "event"
    },
    {
      "inputs": [
        {
          "internalType": "address",
          "name": "_pair",
          "type": "address"
        }
      ],
      "name": "addPair",
      "outputs": [],
      "stateMutability": "nonpayable",
      "type": "function"
    },
    {
      "inputs": [],
      "name": "blockTimestampCumulativeLast",
      "outputs": [
        {
          "internalType": "uint32",
          "name": "",
          "type": "uint32"
        }
      ],
      "stateMutability": "view",
      "type": "function"
    },
    {
      "inputs": [],
      "name": "blockTimestampLast",
      "outputs": [
        {
          "internalType": "uint32",
          "name": "",
          "type": "uint32"
        }
      ],
      "stateMutability": "view",
      "type": "function"
    },
    {
      "inputs": [
        {
          "internalType": "address",
          "name": "",
          "type": "address"
        }
      ],
      "name": "chainLinkOracle",
      "outputs": [
        {
          "internalType": "address",
          "name": "",
          "type": "address"
        }
      ],
      "stateMutability": "view",
      "type": "function"
    },
    {
      "inputs": [
        {
          "internalType": "address",
          "name": "_token",
          "type": "address"
        },
        {
          "internalType": "uint256",
          "name": "_amountIn",
          "type": "uint256"
        }
      ],
      "name": "consult",
      "outputs": [
        {
          "internalType": "uint144",
          "name": "_amountOut",
          "type": "uint144"
        }
      ],
      "stateMutability": "view",
      "type": "function"
    },
    {
      "inputs": [
        {
          "internalType": "address",
          "name": "_sideToken",
          "type": "address"
        },
        {
          "internalType": "uint256",
          "name": "_amountIn",
          "type": "uint256"
        }
      ],
      "name": "consultDollarPrice",
      "outputs": [
        {
          "internalType": "uint256",
          "name": "",
          "type": "uint256"
        }
      ],
      "stateMutability": "view",
      "type": "function"
    },
    {
      "inputs": [
        {
          "internalType": "uint256",
          "name": "",
          "type": "uint256"
        }
      ],
      "name": "decimalFactors",
      "outputs": [
        {
          "internalType": "uint256",
          "name": "",
          "type": "uint256"
        }
      ],
      "stateMutability": "view",
      "type": "function"
    },
    {
      "inputs": [],
      "name": "epoch",
      "outputs": [
        {
          "internalType": "uint256",
          "name": "",
          "type": "uint256"
        }
      ],
      "stateMutability": "view",
      "type": "function"
    },
    {
      "inputs": [],
      "name": "epochController",
      "outputs": [
        {
          "internalType": "address",
          "name": "",
          "type": "address"
        }
      ],
      "stateMutability": "view",
      "type": "function"
    },
    {
      "inputs": [
        {
          "internalType": "uint256",
          "name": "",
          "type": "uint256"
        }
      ],
      "name": "epochDollarPrice",
      "outputs": [
        {
          "internalType": "uint256",
          "name": "",
          "type": "uint256"
        }
      ],
      "stateMutability": "view",
      "type": "function"
    },
    {
      "inputs": [],
      "name": "factory",
      "outputs": [
        {
          "internalType": "address",
          "name": "",
          "type": "address"
        }
      ],
      "stateMutability": "view",
      "type": "function"
    },
    {
      "inputs": [
        {
          "internalType": "contract IERC20",
          "name": "_token",
          "type": "address"
        },
        {
          "internalType": "uint256",
          "name": "_amount",
          "type": "uint256"
        },
        {
          "internalType": "address",
          "name": "_to",
          "type": "address"
        }
      ],
      "name": "governanceRecoverUnsupported",
      "outputs": [],
      "stateMutability": "nonpayable",
      "type": "function"
    },
    {
      "inputs": [
        {
          "internalType": "uint256",
          "name": "",
          "type": "uint256"
        }
      ],
      "name": "isToken0s",
      "outputs": [
        {
          "internalType": "bool",
          "name": "",
          "type": "bool"
        }
      ],
      "stateMutability": "view",
      "type": "function"
    },
    {
      "inputs": [],
      "name": "lastUpdateHour",
      "outputs": [
        {
          "internalType": "uint256",
          "name": "",
          "type": "uint256"
        }
      ],
      "stateMutability": "view",
      "type": "function"
    },
    {
      "inputs": [],
      "name": "mainToken",
      "outputs": [
        {
          "internalType": "address",
          "name": "",
          "type": "address"
        }
      ],
      "stateMutability": "view",
      "type": "function"
    },
    {
      "inputs": [
        {
          "internalType": "uint256",
          "name": "",
          "type": "uint256"
        }
      ],
      "name": "mainTokenWeights",
      "outputs": [
        {
          "internalType": "uint32",
          "name": "",
          "type": "uint32"
        }
      ],
      "stateMutability": "view",
      "type": "function"
    },
    {
      "inputs": [],
      "name": "maxEpochPeriod",
      "outputs": [
        {
          "internalType": "uint256",
          "name": "",
          "type": "uint256"
        }
      ],
      "stateMutability": "view",
      "type": "function"
    },
    {
      "inputs": [],
      "name": "nextEpochLength",
      "outputs": [
        {
          "internalType": "uint256",
          "name": "",
          "type": "uint256"
        }
      ],
      "stateMutability": "view",
      "type": "function"
    },
    {
      "inputs": [],
      "name": "nextEpochPoint",
      "outputs": [
        {
          "internalType": "uint256",
          "name": "",
          "type": "uint256"
        }
      ],
      "stateMutability": "view",
      "type": "function"
    },
    {
      "inputs": [],
      "name": "nextUpdateHour",
      "outputs": [
        {
          "internalType": "uint256",
          "name": "",
          "type": "uint256"
        }
      ],
      "stateMutability": "view",
      "type": "function"
    },
    {
      "inputs": [],
      "name": "operator",
      "outputs": [
        {
          "internalType": "address",
          "name": "",
          "type": "address"
        }
      ],
      "stateMutability": "view",
      "type": "function"
    },
    {
      "inputs": [],
      "name": "oracleReserveMinimum",
      "outputs": [
        {
          "internalType": "uint256",
          "name": "",
          "type": "uint256"
        }
      ],
      "stateMutability": "view",
      "type": "function"
    },
    {
      "inputs": [],
      "name": "owner",
      "outputs": [
        {
          "internalType": "address",
          "name": "",
          "type": "address"
        }
      ],
      "stateMutability": "view",
      "type": "function"
    },
    {
      "inputs": [
        {
          "internalType": "uint256",
          "name": "",
          "type": "uint256"
        }
      ],
      "name": "pairs",
      "outputs": [
        {
          "internalType": "contract IValueLiquidPair",
          "name": "",
          "type": "address"
        }
      ],
      "stateMutability": "view",
      "type": "function"
    },
    {
      "inputs": [],
      "name": "priceAverage",
      "outputs": [
        {
          "internalType": "uint224",
          "name": "_x",
          "type": "uint224"
        }
      ],
      "stateMutability": "view",
      "type": "function"
    },
    {
      "inputs": [],
      "name": "priceCumulative",
      "outputs": [
        {
          "internalType": "uint256",
          "name": "",
          "type": "uint256"
        }
      ],
      "stateMutability": "view",
      "type": "function"
    },
    {
      "inputs": [],
      "name": "priceCumulativeLast",
      "outputs": [
        {
          "internalType": "uint256",
          "name": "",
          "type": "uint256"
        }
      ],
      "stateMutability": "view",
      "type": "function"
    },
    {
      "inputs": [
        {
          "internalType": "uint256",
          "name": "",
          "type": "uint256"
        }
      ],
      "name": "priceMainCumulativeLast",
      "outputs": [
        {
          "internalType": "uint256",
          "name": "",
          "type": "uint256"
        }
      ],
      "stateMutability": "view",
      "type": "function"
    },
    {
      "inputs": [
        {
          "internalType": "address",
          "name": "_pair",
          "type": "address"
        }
      ],
      "name": "removePair",
      "outputs": [],
      "stateMutability": "nonpayable",
      "type": "function"
    },
    {
      "inputs": [],
      "name": "renounceOwnership",
      "outputs": [],
      "stateMutability": "nonpayable",
      "type": "function"
    },
    {
      "inputs": [
        {
          "internalType": "address",
          "name": "_token",
          "type": "address"
        },
        {
          "internalType": "address",
          "name": "_priceFeed",
          "type": "address"
        }
      ],
      "name": "setChainLinkOracle",
      "outputs": [],
      "stateMutability": "nonpayable",
      "type": "function"
    },
    {
      "inputs": [
        {
          "internalType": "address",
          "name": "_epochController",
          "type": "address"
        }
      ],
      "name": "setEpochController",
      "outputs": [],
      "stateMutability": "nonpayable",
      "type": "function"
    },
    {
      "inputs": [
        {
          "internalType": "uint256",
          "name": "_lastUpdateHour",
          "type": "uint256"
        }
      ],
      "name": "setLastUpdateHour",
      "outputs": [],
      "stateMutability": "nonpayable",
      "type": "function"
    },
    {
      "inputs": [
        {
          "internalType": "uint256",
          "name": "_maxEpochPeriod",
          "type": "uint256"
        }
      ],
      "name": "setMaxEpochPeriod",
      "outputs": [],
      "stateMutability": "nonpayable",
      "type": "function"
    },
    {
      "inputs": [
        {
          "internalType": "address",
          "name": "_operator",
          "type": "address"
        }
      ],
      "name": "setOperator",
      "outputs": [],
      "stateMutability": "nonpayable",
      "type": "function"
    },
    {
      "inputs": [
        {
          "internalType": "uint256",
          "name": "_oracleReserveMinimum",
          "type": "uint256"
        }
      ],
      "name": "setOracleReserveMinimum",
      "outputs": [],
      "stateMutability": "nonpayable",
      "type": "function"
    },
    {
      "inputs": [
        {
          "internalType": "address",
          "name": "newOwner",
          "type": "address"
        }
      ],
      "name": "transferOwnership",
      "outputs": [],
      "stateMutability": "nonpayable",
      "type": "function"
    },
    {
      "inputs": [
        {
          "internalType": "uint256",
          "name": "_amountIn",
          "type": "uint256"
        }
      ],
      "name": "twap",
      "outputs": [
        {
          "internalType": "uint144",
          "name": "_amountOut",
          "type": "uint144"
        }
      ],
      "stateMutability": "view",
      "type": "function"
    },
    {
      "inputs": [
        {
          "internalType": "address",
          "name": "_sideToken",
          "type": "address"
        },
        {
          "internalType": "uint256",
          "name": "_amountIn",
          "type": "uint256"
        }
      ],
      "name": "twapDollarPrice",
      "outputs": [
        {
          "internalType": "uint256",
          "name": "",
          "type": "uint256"
        }
      ],
      "stateMutability": "view",
      "type": "function"
    },
    {
      "inputs": [],
      "name": "update",
      "outputs": [],
      "stateMutability": "nonpayable",
      "type": "function"
    },
    {
      "inputs": [],
      "name": "updateCumulative",
      "outputs": [],
      "stateMutability": "nonpayable",
      "type": "function"
    },
    {
      "inputs": [],
      "name": "updatePeriod",
      "outputs": [
        {
          "internalType": "uint256",
          "name": "",
          "type": "uint256"
        }
      ],
      "stateMutability": "view",
      "type": "function"
    }
  ],
  "bytecode": {
    "object": "60806040523480156200001157600080fd5b50604051620037d5380380620037d583398181016040526101208110156200003857600080fd5b81019080805160405193929190846401000000008211156200005957600080fd5b9083019060208201858111156200006f57600080fd5b82518660208202830111640100000000821117156200008d57600080fd5b82525081516020918201928201910280838360005b83811015620000bc578181015183820152602001620000a2565b505050509190910160409081526020830151908301516060840151608085015160a086015160c087015160e0880151610100909801519599509397509195909450909260006200010b620006da565b600080546001600160a01b0319166001600160a01b0383169081178255604051929350917f8be0079c531659141344cd1fd0a4f28419497f9722a3daafe3b4186f6b6457e0908290a35060005b8951811015620006395760008a82815181106200017157fe5b60200260200101519050600080826001600160a01b0316630902f1ac6040518163ffffffff1660e01b815260040160606040518083038186803b158015620001b857600080fd5b505afa158015620001cd573d6000803e3d6000fd5b505050506040513d6060811015620001e457600080fd5b5080516020909101516001600160701b03918216935016905081158015906200020c57508015155b6200025e576040805162461bcd60e51b815260206004820152601c60248201527f4f7261636c654d756c7469506169723a204e4f5f524553455256455300000000604482015290519081900360640190fd5b5050600e805460018101825560009182527fbb7b4a454dc3493923482f07822329ed19e8244eff582cc204f8554c3620c3fd0180546001600160a01b0319166001600160a01b0384811691821790925560408051630dfe168160e01b81529051928e1692630dfe168191600480820192602092909190829003018186803b158015620002e957600080fd5b505afa158015620002fe573d6000803e3d6000fd5b505050506040513d60208110156200031557600080fd5b5051600b805460018082019092557f0175b7a638427703f0dbe7bb9bbf987a2551717b34e79f33b5b1008d1fa01db96020820401805460ff601f9093166101000a92830219166001600160a01b03909416949094149081029290921790925560108054928301815560009081527f1b6847dc741a1b0cd08d278845f9d819d87b734759afb55fe2de5cb82a9ae6729092018290559150816200041f57826001600160a01b0316630dfe16816040518163ffffffff1660e01b815260040160206040518083038186803b158015620003eb57600080fd5b505afa15801562000400573d6000803e3d6000fd5b505050506040513d60208110156200041757600080fd5b505162000488565b826001600160a01b031663d21220a76040518163ffffffff1660e01b815260040160206040518083038186803b1580156200045957600080fd5b505afa1580156200046e573d6000803e3d6000fd5b505050506040513d60208110156200048557600080fd5b50515b6001600160a01b031663313ce5676040518163ffffffff1660e01b815260040160206040518083038186803b158015620004c157600080fd5b505afa158015620004d6573d6000803e3d6000fd5b505050506040513d6020811015620004ed57600080fd5b505160ff169050600c6200050f601283620006de602090811b620027ce17901c565b600a0a908060018154018082558091505060019003906000526020600020016000909190919091505550600080876001600160a01b031663ca2229798f87815181106200055857fe5b60200260200101516040518263ffffffff1660e01b815260040180826001600160a01b0316815260200191505060606040518083038186803b1580156200059e57600080fd5b505afa158015620005b3573d6000803e3d6000fd5b505050506040513d6060811015620005ca57600080fd5b5080516020909101519092509050600d83620005e75781620005e9565b825b815460018082018455600093845260209093206008820401805460079092166004026101000a63ffffffff8181021990931693909216919091029190911790559490940193506200015892505050565b50600480546001600160a01b03199081166001600160a01b03998a1617909155600596909655600693909355600793909355600280548516918616919091179055600a80548416958516959095179094556000805260096020527fec8156718a8372b1db44bb411437d0870f3e3790d4a08526d024ce1b0b668f6b8054831691909316179091556003919091556001805433921691909117905550620007ca565b3390565b60006200072883836040518060400160405280601e81526020017f536166654d6174683a207375627472616374696f6e206f766572666c6f7700008152506200072f60201b60201c565b9392505050565b60008184841115620007c25760405162461bcd60e51b81526004018080602001828103825283818151815260200191508051906020019080838360005b83811015620007865781810151838201526020016200076c565b50505050905090810190601f168015620007b45780820380516001836020036101000a031916815260200191505b509250505060405180910390fd5b505050900390565b612ffb80620007da6000396000f3fe608060405234801561001057600080fd5b50600436106102de5760003560e01c8063a2e6204511610186578063c4cb8dbb116100e3578063da303d9d11610097578063f2fde38b11610071578063f2fde38b14610772578063f44f6ad5146107a5578063ff8c2a04146107c2576102de565b8063da303d9d14610729578063e39b80c414610731578063eb3091b114610739576102de565b8063c5967c26116100c8578063c5967c26146106fc578063c5b3334b14610704578063d8e690cf1461070c576102de565b8063c4cb8dbb146106b9578063c5700a02146106f4576102de565b8063b3ab15fb1161013a578063ba54d3ec1161011f578063ba54d3ec14610645578063c2b7bbb61461067e578063c45a0155146106b1576102de565b8063b3ab15fb146105f5578063b91ac78814610628576102de565b8063a674ce441161016b578063a674ce441461059d578063a83627de146105ba578063af6c9c1d146105c2576102de565b8063a2e6204514610574578063a545e48a1461057c576102de565b8063570ca7351161023f5780636d242c38116101f35780638da5cb5b116101cd5780638da5cb5b1461055c578063900cf0cf14610564578063981cc0dc1461056c576102de565b80636d242c381461051a578063715018a614610537578063842b96ec1461053f576102de565b8063662953171161022457806366295317146104a75780636bfb05f9146104c45780636c1b80e3146104fd576102de565b8063570ca7351461046c5780635a9c064414610474576102de565b80632f43c1bc116102965780633ddac9531161027b5780633ddac953146103c15780633fc15f151461042157806354575af414610429576102de565b80632f43c1bc146103885780633c62cf3314610390576102de565b80630abb3e0b116102c75780630abb3e0b1461032e5780631598dae3146103365780631dd54e9814610355576102de565b806303df4868146102e357806307284ce914610314575b600080fd5b6102eb6107ca565b6040805173ffffffffffffffffffffffffffffffffffffffff9092168252519081900360200190f35b61031c6107e6565b60408051918252519081900360200190f35b61031c610881565b6103536004803603602081101561034c57600080fd5b5035610887565b005b6102eb6004803603602081101561036b57600080fd5b503573ffffffffffffffffffffffffffffffffffffffff1661096d565b61031c610995565b6103ad600480360360208110156103a657600080fd5b503561099b565b604080519115158252519081900360200190f35b6103fa600480360360408110156103d757600080fd5b5073ffffffffffffffffffffffffffffffffffffffff81351690602001356109cf565b6040805171ffffffffffffffffffffffffffffffffffff9092168252519081900360200190f35b6102eb610b1d565b6103536004803603606081101561043f57600080fd5b5073ffffffffffffffffffffffffffffffffffffffff813581169160208101359160409091013516610b39565b6102eb610c4b565b6103536004803603602081101561048a57600080fd5b503573ffffffffffffffffffffffffffffffffffffffff16610c67565b61031c600480360360208110156104bd57600080fd5b5035610d1e565b61031c600480360360408110156104da57600080fd5b5073ffffffffffffffffffffffffffffffffffffffff8135169060200135610d3f565b6103fa6004803603602081101561051357600080fd5b5035610f0a565b6103536004803603602081101561053057600080fd5b5035610fbd565b6103536110a4565b6103536004803603602081101561055557600080fd5b50356111a4565b6102eb611219565b61031c611235565b61031c61129f565b6103536112a5565b61058461146b565b6040805163ffffffff9092168252519081900360200190f35b610584600480360360208110156105b357600080fd5b5035611477565b61031c6114b1565b610353600480360360208110156105d857600080fd5b503573ffffffffffffffffffffffffffffffffffffffff166114b7565b6103536004803603602081101561060b57600080fd5b503573ffffffffffffffffffffffffffffffffffffffff166118ac565b6102eb6004803603602081101561063e57600080fd5b5035611963565b61031c6004803603604081101561065b57600080fd5b5073ffffffffffffffffffffffffffffffffffffffff813516906020013561199a565b6103536004803603602081101561069457600080fd5b503573ffffffffffffffffffffffffffffffffffffffff16611b0f565b6102eb612189565b610353600480360360408110156106cf57600080fd5b5073ffffffffffffffffffffffffffffffffffffffff813581169160200135166121a5565b610584612268565b61031c61227c565b61031c6122e6565b61031c6004803603602081101561072257600080fd5b5035612304565b610353612314565b61031c612602565b610741612608565b604080517bffffffffffffffffffffffffffffffffffffffffffffffffffffffff9092168252519081900360200190f35b6103536004803603602081101561078857600080fd5b503573ffffffffffffffffffffffffffffffffffffffff1661262c565b61031c600480360360208110156107bb57600080fd5b50356127b6565b61031c6127c8565b60045473ffffffffffffffffffffffffffffffffffffffff1681565b6000600460009054906101000a900473ffffffffffffffffffffffffffffffffffffffff1673ffffffffffffffffffffffffffffffffffffffff166307284ce96040518163ffffffff1660e01b815260040160206040518083038186803b15801561085057600080fd5b505afa158015610864573d6000803e3d6000fd5b505050506040513d602081101561087a57600080fd5b5051905090565b600f5481565b60015473ffffffffffffffffffffffffffffffffffffffff1633146108f7576040517f08c379a000000000000000000000000000000000000000000000000000000000815260040180806020018281038252602b815260200180612f78602b913960400191505060405180910390fd5b610e1081061561096857604080517f08c379a000000000000000000000000000000000000000000000000000000000815260206004820152601c60248201527f5f6c617374557064617465486f7572206973206e6f742076616c696400000000604482015290519081900360640190fd5b600655565b60096020526000908152604090205473ffffffffffffffffffffffffffffffffffffffff1681565b60115481565b600b81815481106109ab57600080fd5b9060005260206000209060209182820401919006915054906101000a900460ff1681565b600a5460009073ffffffffffffffffffffffffffffffffffffffff848116911614610a5b57604080517f08c379a000000000000000000000000000000000000000000000000000000000815260206004820152601e60248201527f4f7261636c654d756c7469506169723a20494e56414c49445f544f4b454e0000604482015290519081900360640190fd5b600554601354610a7e90429063ffffffff6401000000009091048116906127ce16565b1115610ad5576040517f08c379a0000000000000000000000000000000000000000000000000000000008152600401808060200182810382526022815260200180612f356022913960400191505060405180910390fd5b60408051602081019091526012547bffffffffffffffffffffffffffffffffffffffffffffffffffffffff168152610b1690610b119084612810565b6128bd565b9392505050565b600a5473ffffffffffffffffffffffffffffffffffffffff1681565b60015473ffffffffffffffffffffffffffffffffffffffff163314610ba9576040517f08c379a000000000000000000000000000000000000000000000000000000000815260040180806020018281038252602b815260200180612f78602b913960400191505060405180910390fd5b8273ffffffffffffffffffffffffffffffffffffffff1663a9059cbb82846040518363ffffffff1660e01b8152600401808373ffffffffffffffffffffffffffffffffffffffff16815260200182815260200192505050602060405180830381600087803b158015610c1a57600080fd5b505af1158015610c2e573d6000803e3d6000fd5b505050506040513d6020811015610c4457600080fd5b5050505050565b60015473ffffffffffffffffffffffffffffffffffffffff1681565b60015473ffffffffffffffffffffffffffffffffffffffff163314610cd7576040517f08c379a000000000000000000000000000000000000000000000000000000000815260040180806020018281038252602b815260200180612f78602b913960400191505060405180910390fd5b600480547fffffffffffffffffffffffff00000000000000000000000000000000000000001673ffffffffffffffffffffffffffffffffffffffff92909216919091179055565b600c8181548110610d2e57600080fd5b600091825260209091200154905081565b73ffffffffffffffffffffffffffffffffffffffff80831660009081526009602052604081205490911680610db157506000805260096020527fec8156718a8372b1db44bb411437d0870f3e3790d4a08526d024ce1b0b668f6b5473ffffffffffffffffffffffffffffffffffffffff165b73ffffffffffffffffffffffffffffffffffffffff8116610e3357604080517f08c379a000000000000000000000000000000000000000000000000000000000815260206004820152601e60248201527f4f7261636c654d756c7469506169723a204e6f20707269636520666565640000604482015290519081900360640190fd5b60008173ffffffffffffffffffffffffffffffffffffffff166350d25bcd6040518163ffffffff1660e01b815260040160206040518083038186803b158015610e7b57600080fd5b505afa158015610e8f573d6000803e3d6000fd5b505050506040513d6020811015610ea557600080fd5b5051600a54909150600090610ed09073ffffffffffffffffffffffffffffffffffffffff16866109cf565b9050610efe6305f5e100610ef871ffffffffffffffffffffffffffffffffffff8416856128c4565b90612937565b93505050505b92915050565b60135460009063ffffffff640100000000820481169181169190910390811615610f8157610f7c610b118460405180602001604052808563ffffffff16601154600f540381610f5557fe5b047bffffffffffffffffffffffffffffffffffffffffffffffffffffffff16905290612810565b610b16565b60408051602081019091526012547bffffffffffffffffffffffffffffffffffffffffffffffffffffffff168152610b1690610b119085612810565b60015473ffffffffffffffffffffffffffffffffffffffff16331461102d576040517f08c379a000000000000000000000000000000000000000000000000000000000815260040180806020018281038252602b815260200180612f78602b913960400191505060405180910390fd5b6202a30081111561109f57604080517f08c379a000000000000000000000000000000000000000000000000000000000815260206004820152601c60248201527f5f6d617845706f6368506572696f64206973206e6f742076616c696400000000604482015290519081900360640190fd5b600555565b6110ac612979565b60005473ffffffffffffffffffffffffffffffffffffffff90811691161461113557604080517f08c379a000000000000000000000000000000000000000000000000000000000815260206004820181905260248201527f4f776e61626c653a2063616c6c6572206973206e6f7420746865206f776e6572604482015290519081900360640190fd5b6000805460405173ffffffffffffffffffffffffffffffffffffffff909116907f8be0079c531659141344cd1fd0a4f28419497f9722a3daafe3b4186f6b6457e0908390a3600080547fffffffffffffffffffffffff0000000000000000000000000000000000000000169055565b60015473ffffffffffffffffffffffffffffffffffffffff163314611214576040517f08c379a000000000000000000000000000000000000000000000000000000000815260040180806020018281038252602b815260200180612f78602b913960400191505060405180910390fd5b600355565b60005473ffffffffffffffffffffffffffffffffffffffff1690565b6000600460009054906101000a900473ffffffffffffffffffffffffffffffffffffffff1673ffffffffffffffffffffffffffffffffffffffff1663900cf0cf6040518163ffffffff1660e01b815260040160206040518083038186803b15801561085057600080fd5b60065481565b6112ad61227c565b42101561131b57604080517f08c379a000000000000000000000000000000000000000000000000000000000815260206004820152601f60248201527f4f7261636c654d756c7469506169723a206e6f74206f70656e65642079657400604482015290519081900360640190fd5b611323612314565b60135463ffffffff80821691640100000000900481168203908116611349575050611469565b6000600f54905060405180602001604052808363ffffffff1660115484038161136e57fe5b047bffffffffffffffffffffffffffffffffffffffffffffffffffffffff9081169091529051601280547fffffffff0000000000000000000000000000000000000000000000000000000016919092161790556011819055601380547fffffffffffffffffffffffffffffffffffffffffffffffff00000000ffffffff1664010000000063ffffffff8616021790556114106000670de0b6b3a7640000610d3f565b6008600061141c611235565b8152602001908152602001600020819055507f208509800c5cb9707f116ef96a1d456499ab9fa3c8edc1cdf381fe5216d5b173816040518082815260200191505060405180910390a15050505b565b60135463ffffffff1681565b600d818154811061148757600080fd5b9060005260206000209060089182820401919006600402915054906101000a900463ffffffff1681565b60075481565b60015473ffffffffffffffffffffffffffffffffffffffff163314611527576040517f08c379a000000000000000000000000000000000000000000000000000000000815260040180806020018281038252602b815260200180612f78602b913960400191505060405180910390fd5b600e547fffffffffffffffffffffffffffffffffffffffffffffffffffffffffffffffff0160005b600e548110156118a7578273ffffffffffffffffffffffffffffffffffffffff16600e828154811061157d57fe5b60009182526020909120015473ffffffffffffffffffffffffffffffffffffffff16141561189f57600e82815481106115b257fe5b600091825260209091200154600e805473ffffffffffffffffffffffffffffffffffffffff90921691839081106115e557fe5b9060005260206000200160006101000a81548173ffffffffffffffffffffffffffffffffffffffff021916908373ffffffffffffffffffffffffffffffffffffffff160217905550600b828154811061163a57fe5b90600052602060002090602091828204019190069054906101000a900460ff16600b828154811061166757fe5b90600052602060002090602091828204019190066101000a81548160ff0219169083151502179055506010828154811061169d57fe5b9060005260206000200154601082815481106116b557fe5b9060005260206000200181905550600c82815481106116d057fe5b9060005260206000200154600c82815481106116e857fe5b9060005260206000200181905550600d828154811061170357fe5b90600052602060002090600891828204019190066004029054906101000a900463ffffffff16600d828154811061173657fe5b90600052602060002090600891828204019190066004026101000a81548163ffffffff021916908363ffffffff160217905550600e80548061177457fe5b60008281526020902081017fffffffffffffffffffffffffffffffffffffffffffffffffffffffffffffffff90810180547fffffffffffffffffffffffff0000000000000000000000000000000000000000169055019055600b8054806117d757fe5b60019003818190600052602060002090602091828204019190066101000a81549060ff02191690559055600d80548061180c57fe5b60008281526020902060087fffffffffffffffffffffffffffffffffffffffffffffffffffffffffffffffff90920191820401805463ffffffff600460078516026101000a02191690559055601080548061186357fe5b60019003818190600052602060002001600090559055600c80548061188457fe5b600190038181906000526020600020016000905590556118a7565b60010161154f565b505050565b60015473ffffffffffffffffffffffffffffffffffffffff16331461191c576040517f08c379a000000000000000000000000000000000000000000000000000000000815260040180806020018281038252602b815260200180612f78602b913960400191505060405180910390fd5b600180547fffffffffffffffffffffffff00000000000000000000000000000000000000001673ffffffffffffffffffffffffffffffffffffffff92909216919091179055565b600e818154811061197357600080fd5b60009182526020909120015473ffffffffffffffffffffffffffffffffffffffff16905081565b73ffffffffffffffffffffffffffffffffffffffff80831660009081526009602052604081205490911680611a0c57506000805260096020527fec8156718a8372b1db44bb411437d0870f3e3790d4a08526d024ce1b0b668f6b5473ffffffffffffffffffffffffffffffffffffffff165b73ffffffffffffffffffffffffffffffffffffffff8116611a8e57604080517f08c379a000000000000000000000000000000000000000000000000000000000815260206004820152601e60248201527f4f7261636c654d756c7469506169723a204e6f20707269636520666565640000604482015290519081900360640190fd5b60008173ffffffffffffffffffffffffffffffffffffffff166350d25bcd6040518163ffffffff1660e01b815260040160206040518083038186803b158015611ad657600080fd5b505afa158015611aea573d6000803e3d6000fd5b505050506040513d6020811015611b0057600080fd5b505190506000610ed085610f0a565b60015473ffffffffffffffffffffffffffffffffffffffff163314611b7f576040517f08c379a000000000000000000000000000000000000000000000000000000000815260040180806020018281038252602b815260200180612f78602b913960400191505060405180910390fd5b60008190506000808273ffffffffffffffffffffffffffffffffffffffff16630902f1ac6040518163ffffffff1660e01b815260040160606040518083038186803b158015611bcd57600080fd5b505afa158015611be1573d6000803e3d6000fd5b505050506040513d6060811015611bf757600080fd5b5080516020909101516dffffffffffffffffffffffffffff91821693501690508115801590611c2557508015155b611c9057604080517f08c379a000000000000000000000000000000000000000000000000000000000815260206004820152601c60248201527f4f7261636c654d756c7469506169723a204e4f5f524553455256455300000000604482015290519081900360640190fd5b600e805460018101825560009182527fbb7b4a454dc3493923482f07822329ed19e8244eff582cc204f8554c3620c3fd0180547fffffffffffffffffffffffff00000000000000000000000000000000000000001673ffffffffffffffffffffffffffffffffffffffff868116918217909255600a54604080517f0dfe168100000000000000000000000000000000000000000000000000000000815290519190931692630dfe1681916004808301926020929190829003018186803b158015611d5957600080fd5b505afa158015611d6d573d6000803e3d6000fd5b505050506040513d6020811015611d8357600080fd5b5051600b80546001810182556000919091527f0175b7a638427703f0dbe7bb9bbf987a2551717b34e79f33b5b1008d1fa01db96020820401805460ff601f9093166101000a928302191673ffffffffffffffffffffffffffffffffffffffff90931693909314908102919091179091559050601081611e73578473ffffffffffffffffffffffffffffffffffffffff16635a3d54936040518163ffffffff1660e01b815260040160206040518083038186803b158015611e4257600080fd5b505afa158015611e56573d6000803e3d6000fd5b505050506040513d6020811015611e6c57600080fd5b5051611ee6565b8473ffffffffffffffffffffffffffffffffffffffff16635909c0d56040518163ffffffff1660e01b815260040160206040518083038186803b158015611eb957600080fd5b505afa158015611ecd573d6000803e3d6000fd5b505050506040513d6020811015611ee357600080fd5b50515b8154600181018355600092835260208320015581611f75578473ffffffffffffffffffffffffffffffffffffffff16630dfe16816040518163ffffffff1660e01b815260040160206040518083038186803b158015611f4457600080fd5b505afa158015611f58573d6000803e3d6000fd5b505050506040513d6020811015611f6e57600080fd5b5051611fe8565b8473ffffffffffffffffffffffffffffffffffffffff1663d21220a76040518163ffffffff1660e01b815260040160206040518083038186803b158015611fbb57600080fd5b505afa158015611fcf573d6000803e3d6000fd5b505050506040513d6020811015611fe557600080fd5b50515b73ffffffffffffffffffffffffffffffffffffffff1663313ce5676040518163ffffffff1660e01b815260040160206040518083038186803b15801561202d57600080fd5b505afa158015612041573d6000803e3d6000fd5b505050506040513d602081101561205757600080fd5b505160ff169050600c61206b6012836127ce565b8154600181018355600092835260208320600a9290920a910155600254604080517fca22297900000000000000000000000000000000000000000000000000000000815273ffffffffffffffffffffffffffffffffffffffff8a8116600483015291519394508493919092169163ca222979916024808301926060929190829003018186803b1580156120fd57600080fd5b505afa158015612111573d6000803e3d6000fd5b505050506040513d606081101561212757600080fd5b5080516020909101519092509050600d836121425781612144565b825b8154600181018355600092835260209092206008830401805460079093166004026101000a63ffffffff81810219909416929093169290920217905550505050505050565b60025473ffffffffffffffffffffffffffffffffffffffff1681565b60015473ffffffffffffffffffffffffffffffffffffffff163314612215576040517f08c379a000000000000000000000000000000000000000000000000000000000815260040180806020018281038252602b815260200180612f78602b913960400191505060405180910390fd5b73ffffffffffffffffffffffffffffffffffffffff918216600090815260096020526040902080547fffffffffffffffffffffffff00000000000000000000000000000000000000001691909216179055565b601354640100000000900463ffffffff1681565b6000600460009054906101000a900473ffffffffffffffffffffffffffffffffffffffff1673ffffffffffffffffffffffffffffffffffffffff1663c5967c266040518163ffffffff1660e01b815260040160206040518083038186803b15801561085057600080fd5b60006122ff60075460065461297d90919063ffffffff16565b905090565b60108181548110610d2e57600080fd5b600754600654600090612327908361297d565b90508042106125fe57601354600090819063ffffffff428116911681146125d25760005b600e54811015612509576000806123f4600e848154811061236857fe5b600091825260209091200154600b805473ffffffffffffffffffffffffffffffffffffffff909216918690811061239b57fe5b90600052602060002090602091828204019190069054906101000a900460ff16600d86815481106123c857fe5b90600052602060002090600891828204019190066004029054906101000a900463ffffffff16876129f1565b92505091506000600c848154811061240857fe5b6000918252602082200154915061241f83836128c4565b905060035481101561249257604080517f08c379a000000000000000000000000000000000000000000000000000000000815260206004820152600c60248201527f216d696e20726573657276650000000000000000000000000000000000000000604482015290519081900360640190fd5b6124d16124ca6124a285856128c4565b601088815481106124af57fe5b906000526020600020015487036128c490919063ffffffff16565b899061297d565b97506124dd878461297d565b965083601086815481106124ed57fe5b60009182526020909120015550506001909201915061234b9050565b506dffffffffffffffffffffffffffff82111561258757604080517f08c379a000000000000000000000000000000000000000000000000000000000815260206004820152601960248201527f4f7261636c654d756c7469506169723a204f564552464c4f5700000000000000604482015290519081900360640190fd5b81156125d2576125978383612937565b600f8054919091019055601380547fffffffffffffffffffffffffffffffffffffffffffffffffffffffff000000001663ffffffff83161790555b6125dc848661297d565b4210156125ed576006849055610c44565b6125f7848661297d565b93506125d2565b5050565b60055481565b6012547bffffffffffffffffffffffffffffffffffffffffffffffffffffffff1681565b612634612979565b60005473ffffffffffffffffffffffffffffffffffffffff9081169116146126bd57604080517f08c379a000000000000000000000000000000000000000000000000000000000815260206004820181905260248201527f4f776e61626c653a2063616c6c6572206973206e6f7420746865206f776e6572604482015290519081900360640190fd5b73ffffffffffffffffffffffffffffffffffffffff8116612729576040517f08c379a0000000000000000000000000000000000000000000000000000000008152600401808060200182810382526026815260200180612f0f6026913960400191505060405180910390fd5b6000805460405173ffffffffffffffffffffffffffffffffffffffff808516939216917f8be0079c531659141344cd1fd0a4f28419497f9722a3daafe3b4186f6b6457e091a3600080547fffffffffffffffffffffffff00000000000000000000000000000000000000001673ffffffffffffffffffffffffffffffffffffffff92909216919091179055565b60086020526000908152604090205481565b60035481565b6000610b1683836040518060400160405280601e81526020017f536166654d6174683a207375627472616374696f6e206f766572666c6f770000815250612cc1565b612818612ee9565b600082158061285357505082517bffffffffffffffffffffffffffffffffffffffffffffffffffffffff168281029083828161285057fe5b04145b6128a8576040517f08c379a0000000000000000000000000000000000000000000000000000000008152600401808060200182810382526023815260200180612fa36023913960400191505060405180910390fd5b60408051602081019091529081529392505050565b5160701c90565b6000826128d357506000610f04565b828202828482816128e057fe5b0414610b16576040517f08c379a0000000000000000000000000000000000000000000000000000000008152600401808060200182810382526021815260200180612f576021913960400191505060405180910390fd5b6000610b1683836040518060400160405280601a81526020017f536166654d6174683a206469766973696f6e206279207a65726f000000000000815250612d72565b3390565b600082820183811015610b1657604080517f08c379a000000000000000000000000000000000000000000000000000000000815260206004820152601b60248201527f536166654d6174683a206164646974696f6e206f766572666c6f770000000000604482015290519081900360640190fd5b6000806000808615612b2b578773ffffffffffffffffffffffffffffffffffffffff16630902f1ac6040518163ffffffff1660e01b815260040160606040518083038186803b158015612a4357600080fd5b505afa158015612a57573d6000803e3d6000fd5b505050506040513d6060811015612a6d57600080fd5b50805160208083015160409384015184517f5909c0d500000000000000000000000000000000000000000000000000000000815294516dffffffffffffffffffffffffffff9485169850939091169550935073ffffffffffffffffffffffffffffffffffffffff8b1692635909c0d59260048083019392829003018186803b158015612af857600080fd5b505afa158015612b0c573d6000803e3d6000fd5b505050506040513d6020811015612b2257600080fd5b50519350612c56565b8773ffffffffffffffffffffffffffffffffffffffff16630902f1ac6040518163ffffffff1660e01b815260040160606040518083038186803b158015612b7157600080fd5b505afa158015612b85573d6000803e3d6000fd5b505050506040513d6060811015612b9b57600080fd5b50805160208083015160409384015184517f5a3d549300000000000000000000000000000000000000000000000000000000815294516dffffffffffffffffffffffffffff928316985091909316955091935073ffffffffffffffffffffffffffffffffffffffff8b1692635a3d54939260048083019392829003018186803b158015612c2757600080fd5b505afa158015612c3b573d6000803e3d6000fd5b505050506040513d6020811015612c5157600080fd5b505193505b8463ffffffff168163ffffffff1614612cb65780850363ffffffff606488900381168502908089168502908316612c8d8284612df1565b517bffffffffffffffffffffffffffffffffffffffffffffffffffffffff160296909601955050505b509450945094915050565b60008184841115612d6a576040517f08c379a00000000000000000000000000000000000000000000000000000000081526004018080602001828103825283818151815260200191508051906020019080838360005b83811015612d2f578181015183820152602001612d17565b50505050905090810190601f168015612d5c5780820380516001836020036101000a031916815260200191505b509250505060405180910390fd5b505050900390565b60008183612ddb576040517f08c379a0000000000000000000000000000000000000000000000000000000008152602060048201818152835160248401528351909283926044909101919085019080838360008315612d2f578181015183820152602001612d17565b506000838581612de757fe5b0495945050505050565b612df9612efc565b6000826dffffffffffffffffffffffffffff1611612e7857604080517f08c379a000000000000000000000000000000000000000000000000000000000815260206004820152601760248201527f4669786564506f696e743a204449565f42595f5a45524f000000000000000000604482015290519081900360640190fd5b6040805160208101909152806dffffffffffffffffffffffffffff84167bffffffffffffffffffffffffffff0000000000000000000000000000607087901b1681612ebf57fe5b047bffffffffffffffffffffffffffffffffffffffffffffffffffffffff16815250905092915050565b6040518060200160405280600081525090565b6040805160208101909152600081529056fe4f776e61626c653a206e6577206f776e657220697320746865207a65726f20616464726573734f7261636c654d756c7469506169723a205072696365206f75742d6f662d64617465536166654d6174683a206d756c7469706c69636174696f6e206f766572666c6f774f7261636c654d756c7469506169723a2063616c6c6572206973206e6f7420746865206f70657261746f724669786564506f696e743a204d554c5449504c49434154494f4e5f4f564552464c4f57a264697066735822122062cd4a27ed2dbcea2b68319be9c7b6188c5abc6fb2cb5e06c3e111b771c041d864736f6c63430007060033"
  }
}