{
  "opcodeHash": "0x1d7a93374bcf44fc981670de607a72f312dbc43db1058076d1fcf524c40ba31e",
  "metalessHash": "0x5a5cbda43a216d11a60073fd0cd4881692c25764a27e632ab6a3acdfdcd35232",
  "runtimeHash": "0x8a6e008bb43124b2771aa2add08686bd27c2c9a1588162ea8bb0ef8b6aaa617a",
  "encodedMetadata": [
    {
      "ipfs": "/ipfs/Qmdh5hSphwekdcbQwAbTgLQaxQTjjuiFnTr3snBEy4p3Jf",
      "solc": "0.6.12"
    }
  ],
  "abi": [
    {
      "inputs": [],
      "name": "alcx",
      "outputs": [
        {
          "internalType": "address",
          "name": "",
          "type": "address"
        }
      ],
      "stateMutability": "view",
      "type": "function"
    },
    {
      "inputs": [],
      "name": "sushiRouter",
      "outputs": [
        {
          "internalType": "address",
          "name": "",
          "type": "address"
        }
      ],
      "stateMutability": "view",
      "type": "function"
    },
    {
      "inputs": [],
      "name": "unlimitedApprove",
      "outputs": [],
      "stateMutability": "nonpayable",
      "type": "function"
    }
  ],
  "bytecode": {
    "object": "6080604052600080546001600160a01b031990811673dbdb4d16eda451d0503b854cf79d55697f90c8df179091556001805490911673d9e1ce17f2641f24ae83637ab66a2cca9c378b9f17905534801561005857600080fd5b5061015b806100686000396000f3fe608060405234801561001057600080fd5b50600436106100415760003560e01c80630927c3bb146100465780636d13582c1461006a57806399f1f6a314610072575b600080fd5b61004e61007c565b604080516001600160a01b039092168252519081900360200190f35b61004e61008b565b61007a61009a565b005b6000546001600160a01b031681565b6001546001600160a01b031681565b600080546001546040805163095ea7b360e01b81526001600160a01b03928316600482015260001960248201529051919092169263095ea7b392604480820193602093909283900390910190829087803b1580156100f757600080fd5b505af115801561010b573d6000803e3d6000fd5b505050506040513d602081101561012157600080fd5b505056fea264697066735822122067dbfe6ca857617e437a32342c1b900fc2306de826398c05f2ae481f1251a81b64736f6c634300060c0033"
  }
}