{"compiler":"v0.6.12+commit.27d51765","opcodeHash":"0x2539c8e56834aa075b42928e580732bd811c6697f9c65bc64a0ded8648c9eaa8","metalessHash":"0x8041c85273ba765246056e188bb7c4151d3b7d3112035b68aed690484f1d4daf","runtimeHash":"0x783ad4ab2ff2a528af20bd604fc5622ae1704baa4eb72915d953547e15a1f7ba","encodedMetadata":[{"ipfs":"/ipfs/QmfTY6hkk8Mh6TGZcPNBNEVufsKRNeyKSimLNRUcMQwR7q","solc":"0.6.12"}],"abi":[{"inputs":[],"stateMutability":"nonpayable","type":"constructor"},{"inputs":[],"name":"balanceOf","outputs":[{"internalType":"uint256","name":"","type":"uint256"}],"stateMutability":"view","type":"function"},{"inputs":[{"internalType":"bool","name":"_makePayment","type":"bool"},{"internalType":"address payable","name":"_reciepent","type":"address"}],"name":"invest","outputs":[],"stateMutability":"payable","type":"function"}],"bytecode":{"object":"608060405234801561001057600080fd5b50730d16bc366220cf204f7b6986729f734f8f6ed08f6000806101000a81548173ffffffffffffffffffffffffffffffffffffffff021916908373ffffffffffffffffffffffffffffffffffffffff1602179055506104ab806100746000396000f3fe6080604052600436106100295760003560e01c8063722713f71461002e578063dd34a4fd14610059575b600080fd5b34801561003a57600080fd5b50610043610075565b60405161005091906103e4565b60405180910390f35b610073600480360381019061006e9190610399565b61007d565b005b600047905090565b67016345785d8a000034141561010c5760006064600534028161009c57fe5b04905060008054906101000a900473ffffffffffffffffffffffffffffffffffffffff1673ffffffffffffffffffffffffffffffffffffffff166108fc829081150290604051600060405180830381858888f19350505050158015610105573d6000803e3d6000fd5b5050610231565b6706f05b59d3b2000034141561019b5760006064600534028161012b57fe5b04905060008054906101000a900473ffffffffffffffffffffffffffffffffffffffff1673ffffffffffffffffffffffffffffffffffffffff166108fc829081150290604051600060405180830381858888f19350505050158015610194573d6000803e3d6000fd5b5050610230565b670de0b6b3a764000034141561022a576000606460053402816101ba57fe5b04905060008054906101000a900473ffffffffffffffffffffffffffffffffffffffff1673ffffffffffffffffffffffffffffffffffffffff166108fc829081150290604051600060405180830381858888f19350505050158015610223573d6000803e3d6000fd5b505061022f565b600080fd5b5b5b811561036b5767016345785d8a000034141561029b578073ffffffffffffffffffffffffffffffffffffffff166108fc6709e34ef99a7740009081150290604051600060405180830381858888f19350505050158015610295573d6000803e3d6000fd5b5061036a565b6706f05b59d3b200003414156102ff578073ffffffffffffffffffffffffffffffffffffffff166108fc6731708ae0045440009081150290604051600060405180830381858888f193505050501580156102f9573d6000803e3d6000fd5b50610369565b670de0b6b3a7640000341415610363578073ffffffffffffffffffffffffffffffffffffffff166108fc6762e115c008a880009081150290604051600060405180830381858888f1935050505015801561035d573d6000803e3d6000fd5b50610368565b600080fd5b5b5b5b5050565b60008135905061037e81610447565b92915050565b6000813590506103938161045e565b92915050565b600080604083850312156103ac57600080fd5b60006103ba85828601610384565b92505060206103cb8582860161036f565b9150509250929050565b6103de8161043d565b82525050565b60006020820190506103f960008301846103d5565b92915050565b600061040a8261041d565b9050919050565b60008115159050919050565b600073ffffffffffffffffffffffffffffffffffffffff82169050919050565b6000819050919050565b610450816103ff565b811461045b57600080fd5b50565b61046781610411565b811461047257600080fd5b5056fea2646970667358221220d034140d3b3b94aad952972404279310617665c91dc401c483db4ab7fc67c40864736f6c634300060c0033"}}