{
  "opcodeHash": "0x9894bef72298ed49945faf6d8a17dc5b1f6c63e182cdda5e058a285824a0e80a",
  "metalessHash": "0x644e0c562bc6931faa7d6de49dc738179b81509527d8d1345473c3e69d5d6a43",
  "runtimeHash": "0xcd39393f0d21f2ce565aee319ddd9a78de8ed0abf01180004e1c575b68186343",
  "encodedMetadata": [
    {
      "ipfs": "/ipfs/QmRyyd6AR7MBcKiC29zSarXAAXuz3teK6L37GgVMMsDdsd",
      "solc": "0.6.12"
    }
  ],
  "abi": [
    {
      "anonymous": false,
      "inputs": [
        {
          "indexed": false,
          "internalType": "address",
          "name": "account",
          "type": "address"
        },
        {
          "indexed": false,
          "internalType": "uint256",
          "name": "unwrappedAmount",
          "type": "uint256"
        }
      ],
      "name": "Unwrapped",
      "type": "event"
    },
    {
      "inputs": [
        {
          "internalType": "address",
          "name": "account",
          "type": "address"
        }
      ],
      "name": "unwrapAllWETHFor",
      "outputs": [],
      "stateMutability": "nonpayable",
      "type": "function"
    },
    {
      "stateMutability": "payable",
      "type": "receive"
    }
  ],
  "bytecode": {
    "object": "608060405273c02aaa39b223fe8d0a0e5c4f27ead9083c756cc26000806101000a81548173ffffffffffffffffffffffffffffffffffffffff021916908373ffffffffffffffffffffffffffffffffffffffff16021790555034801561006457600080fd5b5061045f806100746000396000f3fe6080604052600436106100225760003560e01c80636d8267721461002e57610029565b3661002957005b600080fd5b34801561003a57600080fd5b5061007d6004803603602081101561005157600080fd5b81019080803573ffffffffffffffffffffffffffffffffffffffff16906020019092919050505061007f565b005b60008060009054906101000a900473ffffffffffffffffffffffffffffffffffffffff1673ffffffffffffffffffffffffffffffffffffffff166370a08231836040518263ffffffff1660e01b8152600401808273ffffffffffffffffffffffffffffffffffffffff16815260200191505060206040518083038186803b15801561010957600080fd5b505afa15801561011d573d6000803e3d6000fd5b505050506040513d602081101561013357600080fd5b8101908080519060200190929190505050905060008111156103ee5760008054906101000a900473ffffffffffffffffffffffffffffffffffffffff1673ffffffffffffffffffffffffffffffffffffffff166323b872dd8330846040518463ffffffff1660e01b8152600401808473ffffffffffffffffffffffffffffffffffffffff1681526020018373ffffffffffffffffffffffffffffffffffffffff1681526020018281526020019350505050602060405180830381600087803b1580156101fe57600080fd5b505af1158015610212573d6000803e3d6000fd5b505050506040513d602081101561022857600080fd5b810190808051906020019092919050505061028e576040517f08c379a00000000000000000000000000000000000000000000000000000000081526004018080602001828103825260378152602001806103f36037913960400191505060405180910390fd5b60008054906101000a900473ffffffffffffffffffffffffffffffffffffffff1673ffffffffffffffffffffffffffffffffffffffff16632e1a7d4d826040518263ffffffff1660e01b815260040180828152602001915050600060405180830381600087803b15801561030157600080fd5b505af1158015610315573d6000803e3d6000fd5b50505050600047905060008373ffffffffffffffffffffffffffffffffffffffff168260405180600001905060006040518083038185875af1925050503d806000811461037e576040519150601f19603f3d011682016040523d82523d6000602084013e610383565b606091505b5050905080610396573d6000803e3d6000fd5b7f95ae649bfaaef9def56a52f4fb2d9e8fa5496bb7082930e442c74cc76b03dcb38483604051808373ffffffffffffffffffffffffffffffffffffffff1681526020018281526020019250505060405180910390a150505b505056fe57455448207472616e7366657220696e206661696c656420e28094206861732074686520616c6c6f77616e6365206265656e207365743fa2646970667358221220a24eef9dd101d550da629b0f9d059174a13fd08d542d55df5a2ee56a4975918c64736f6c634300060c0033"
  }
}