{
  "opcodeHash": "0xe63de24c99070011b29f90bd7c3f112111bb7b20eb34e2f6b753cc42e820b85c",
  "metalessHash": "0x2aa95fdce7469002ccd9ee883bc4bd3136043a341e7705ca39bd4e8c33ec3016",
  "runtimeHash": "0xe2975ed35b9a6421ac076ad32d872afbd83840819e1bbb98ababe96fa7542774",
  "encodedMetadata": [
    {
      "ipfs": "/ipfs/QmSeFY97HrBdNzJ4CZHrqLzRkchZHKAYZMAkgUYp8rYAZA",
      "solc": "0.8.4"
    }
  ],
  "abi": [
    {
      "inputs": [],
      "stateMutability": "nonpayable",
      "type": "constructor"
    },
    {
      "anonymous": false,
      "inputs": [
        {
          "indexed": true,
          "internalType": "address",
          "name": "owner",
          "type": "address"
        },
        {
          "indexed": true,
          "internalType": "address",
          "name": "spender",
          "type": "address"
        },
        {
          "indexed": false,
          "internalType": "uint256",
          "name": "value",
          "type": "uint256"
        }
      ],
      "name": "Approval",
      "type": "event"
    },
    {
      "anonymous": false,
      "inputs": [
        {
          "indexed": false,
          "internalType": "uint256",
          "name": "_maxTxAmount",
          "type": "uint256"
        }
      ],
      "name": "MaxTxAmountUpdated",
      "type": "event"
    },
    {
      "anonymous": false,
      "inputs": [
        {
          "indexed": true,
          "internalType": "address",
          "name": "previousOwner",
          "type": "address"
        },
        {
          "indexed": true,
          "internalType": "address",
          "name": "newOwner",
          "type": "address"
        }
      ],
      "name": "OwnershipTransferred",
      "type": "event"
    },
    {
      "anonymous": false,
      "inputs": [
        {
          "indexed": true,
          "internalType": "address",
          "name": "from",
          "type": "address"
        },
        {
          "indexed": true,
          "internalType": "address",
          "name": "to",
          "type": "address"
        },
        {
          "indexed": false,
          "internalType": "uint256",
          "name": "value",
          "type": "uint256"
        }
      ],
      "name": "Transfer",
      "type": "event"
    },
    {
      "inputs": [
        {
          "internalType": "address",
          "name": "owner",
          "type": "address"
        },
        {
          "internalType": "address",
          "name": "spender",
          "type": "address"
        }
      ],
      "name": "allowance",
      "outputs": [
        {
          "internalType": "uint256",
          "name": "",
          "type": "uint256"
        }
      ],
      "stateMutability": "view",
      "type": "function"
    },
    {
      "inputs": [
        {
          "internalType": "address",
          "name": "spender",
          "type": "address"
        },
        {
          "internalType": "uint256",
          "name": "amount",
          "type": "uint256"
        }
      ],
      "name": "approve",
      "outputs": [
        {
          "internalType": "bool",
          "name": "",
          "type": "bool"
        }
      ],
      "stateMutability": "nonpayable",
      "type": "function"
    },
    {
      "inputs": [
        {
          "internalType": "address",
          "name": "account",
          "type": "address"
        }
      ],
      "name": "balanceOf",
      "outputs": [
        {
          "internalType": "uint256",
          "name": "",
          "type": "uint256"
        }
      ],
      "stateMutability": "view",
      "type": "function"
    },
    {
      "inputs": [],
      "name": "decimals",
      "outputs": [
        {
          "internalType": "uint8",
          "name": "",
          "type": "uint8"
        }
      ],
      "stateMutability": "pure",
      "type": "function"
    },
    {
      "inputs": [
        {
          "internalType": "address",
          "name": "notbot",
          "type": "address"
        }
      ],
      "name": "delBot",
      "outputs": [],
      "stateMutability": "nonpayable",
      "type": "function"
    },
    {
      "inputs": [],
      "name": "manualsend",
      "outputs": [],
      "stateMutability": "nonpayable",
      "type": "function"
    },
    {
      "inputs": [],
      "name": "manualswap",
      "outputs": [],
      "stateMutability": "nonpayable",
      "type": "function"
    },
    {
      "inputs": [],
      "name": "name",
      "outputs": [
        {
          "internalType": "string",
          "name": "",
          "type": "string"
        }
      ],
      "stateMutability": "pure",
      "type": "function"
    },
    {
      "inputs": [],
      "name": "openTrading",
      "outputs": [],
      "stateMutability": "nonpayable",
      "type": "function"
    },
    {
      "inputs": [],
      "name": "owner",
      "outputs": [
        {
          "internalType": "address",
          "name": "",
          "type": "address"
        }
      ],
      "stateMutability": "view",
      "type": "function"
    },
    {
      "inputs": [],
      "name": "renounceOwnership",
      "outputs": [],
      "stateMutability": "nonpayable",
      "type": "function"
    },
    {
      "inputs": [
        {
          "internalType": "address[]",
          "name": "bots_",
          "type": "address[]"
        }
      ],
      "name": "setBots",
      "outputs": [],
      "stateMutability": "nonpayable",
      "type": "function"
    },
    {
      "inputs": [
        {
          "internalType": "bool",
          "name": "onoff",
          "type": "bool"
        }
      ],
      "name": "setCooldownEnabled",
      "outputs": [],
      "stateMutability": "nonpayable",
      "type": "function"
    },
    {
      "inputs": [
        {
          "internalType": "uint256",
          "name": "fee",
          "type": "uint256"
        }
      ],
      "name": "setFeeAmountOne",
      "outputs": [],
      "stateMutability": "nonpayable",
      "type": "function"
    },
    {
      "inputs": [
        {
          "internalType": "uint256",
          "name": "fee",
          "type": "uint256"
        }
      ],
      "name": "setFeeAmountTwo",
      "outputs": [],
      "stateMutability": "nonpayable",
      "type": "function"
    },
    {
      "inputs": [],
      "name": "symbol",
      "outputs": [
        {
          "internalType": "string",
          "name": "",
          "type": "string"
        }
      ],
      "stateMutability": "pure",
      "type": "function"
    },
    {
      "inputs": [],
      "name": "totalSupply",
      "outputs": [
        {
          "internalType": "uint256",
          "name": "",
          "type": "uint256"
        }
      ],
      "stateMutability": "pure",
      "type": "function"
    },
    {
      "inputs": [
        {
          "internalType": "address",
          "name": "recipient",
          "type": "address"
        },
        {
          "internalType": "uint256",
          "name": "amount",
          "type": "uint256"
        }
      ],
      "name": "transfer",
      "outputs": [
        {
          "internalType": "bool",
          "name": "",
          "type": "bool"
        }
      ],
      "stateMutability": "nonpayable",
      "type": "function"
    },
    {
      "inputs": [
        {
          "internalType": "address",
          "name": "sender",
          "type": "address"
        },
        {
          "internalType": "address",
          "name": "recipient",
          "type": "address"
        },
        {
          "internalType": "uint256",
          "name": "amount",
          "type": "uint256"
        }
      ],
      "name": "transferFrom",
      "outputs": [
        {
          "internalType": "bool",
          "name": "",
          "type": "bool"
        }
      ],
      "stateMutability": "nonpayable",
      "type": "function"
    },
    {
      "stateMutability": "payable",
      "type": "receive"
    }
  ],
  "bytecode": {
    "object": "608060405269d3c21bcecceda10000006000196200001e919062000534565b6000196200002d9190620004ef565b6008556005600a556005600b5573c71c57d21724221d4b967182ff34d2de78cc4160600c60006101000a81548173ffffffffffffffffffffffffffffffffffffffff021916908373ffffffffffffffffffffffffffffffffffffffff16021790555073c71c57d21724221d4b967182ff34d2de78cc4160600d60006101000a81548173ffffffffffffffffffffffffffffffffffffffff021916908373ffffffffffffffffffffffffffffffffffffffff1602179055506000600f60156101000a81548160ff0219169083151502179055506000600f60166101000a81548160ff0219169083151502179055506000600f60176101000a81548160ff02191690831515021790555069d3c21bcecceda10000006010553480156200015057600080fd5b506000620001636200049060201b60201c565b9050806000806101000a81548173ffffffffffffffffffffffffffffffffffffffff021916908373ffffffffffffffffffffffffffffffffffffffff1602179055508073ffffffffffffffffffffffffffffffffffffffff16600073ffffffffffffffffffffffffffffffffffffffff167f8be0079c531659141344cd1fd0a4f28419497f9722a3daafe3b4186f6b6457e060405160405180910390a35060085460026000620002186200049060201b60201c565b73ffffffffffffffffffffffffffffffffffffffff1673ffffffffffffffffffffffffffffffffffffffff168152602001908152602001600020819055506001600560006200026c6200049860201b60201c565b73ffffffffffffffffffffffffffffffffffffffff1673ffffffffffffffffffffffffffffffffffffffff16815260200190815260200160002060006101000a81548160ff021916908315150217905550600160056000600d60009054906101000a900473ffffffffffffffffffffffffffffffffffffffff1673ffffffffffffffffffffffffffffffffffffffff1673ffffffffffffffffffffffffffffffffffffffff16815260200190815260200160002060006101000a81548160ff021916908315150217905550600160056000600c60009054906101000a900473ffffffffffffffffffffffffffffffffffffffff1673ffffffffffffffffffffffffffffffffffffffff1673ffffffffffffffffffffffffffffffffffffffff16815260200190815260200160002060006101000a81548160ff0219169083151502179055506001600560003073ffffffffffffffffffffffffffffffffffffffff1673ffffffffffffffffffffffffffffffffffffffff16815260200190815260200160002060006101000a81548160ff021916908315150217905550620004196200049060201b60201c565b73ffffffffffffffffffffffffffffffffffffffff16600073ffffffffffffffffffffffffffffffffffffffff167fddf252ad1be2c89b69c2b068fc378daa952ba7f163c4a11628f55a4df523b3ef69d3c21bcecceda1000000604051620004829190620004d2565b60405180910390a3620005ca565b600033905090565b60008060009054906101000a900473ffffffffffffffffffffffffffffffffffffffff16905090565b620004cc816200052a565b82525050565b6000602082019050620004e96000830184620004c1565b92915050565b6000620004fc826200052a565b915062000509836200052a565b9250828210156200051f576200051e6200056c565b5b828203905092915050565b6000819050919050565b600062000541826200052a565b91506200054e836200052a565b9250826200056157620005606200059b565b5b828206905092915050565b7f4e487b7100000000000000000000000000000000000000000000000000000000600052601160045260246000fd5b7f4e487b7100000000000000000000000000000000000000000000000000000000600052601260045260246000fd5b61349e80620005da6000396000f3fe6080604052600436106101185760003560e01c8063715018a6116100a0578063b515566a11610064578063b515566a14610398578063c3c8cd80146103c1578063c9567bf9146103d8578063cfe81ba0146103ef578063dd62ed3e146104185761011f565b8063715018a6146102c5578063842b7c08146102dc5780638da5cb5b1461030557806395d89b4114610330578063a9059cbb1461035b5761011f565b8063273123b7116100e7578063273123b7146101f4578063313ce5671461021d5780635932ead1146102485780636fc3eaec1461027157806370a08231146102885761011f565b806306fdde0314610124578063095ea7b31461014f57806318160ddd1461018c57806323b872dd146101b75761011f565b3661011f57005b600080fd5b34801561013057600080fd5b50610139610455565b6040516101469190612baf565b60405180910390f35b34801561015b57600080fd5b50610176600480360381019061017191906126f5565b610492565b6040516101839190612b94565b60405180910390f35b34801561019857600080fd5b506101a16104b0565b6040516101ae9190612d31565b60405180910390f35b3480156101c357600080fd5b506101de60048036038101906101d991906126a6565b6104c2565b6040516101eb9190612b94565b60405180910390f35b34801561020057600080fd5b5061021b60048036038101906102169190612618565b61059b565b005b34801561022957600080fd5b5061023261068b565b60405161023f9190612da6565b60405180910390f35b34801561025457600080fd5b5061026f600480360381019061026a9190612772565b610694565b005b34801561027d57600080fd5b50610286610746565b005b34801561029457600080fd5b506102af60048036038101906102aa9190612618565b6107b8565b6040516102bc9190612d31565b60405180910390f35b3480156102d157600080fd5b506102da610809565b005b3480156102e857600080fd5b5061030360048036038101906102fe91906127c4565b61095c565b005b34801561031157600080fd5b5061031a6109fd565b6040516103279190612ac6565b60405180910390f35b34801561033c57600080fd5b50610345610a26565b6040516103529190612baf565b60405180910390f35b34801561036757600080fd5b50610382600480360381019061037d91906126f5565b610a63565b60405161038f9190612b94565b60405180910390f35b3480156103a457600080fd5b506103bf60048036038101906103ba9190612731565b610a81565b005b3480156103cd57600080fd5b506103d6610bd1565b005b3480156103e457600080fd5b506103ed610c4b565b005b3480156103fb57600080fd5b50610416600480360381019061041191906127c4565b6111ab565b005b34801561042457600080fd5b5061043f600480360381019061043a919061266a565b61124c565b60405161044c9190612d31565b60405180910390f35b60606040518060400160405280600981526020017f50656e676f2d696e750000000000000000000000000000000000000000000000815250905090565b60006104a661049f6112d3565b84846112db565b6001905092915050565b600069d3c21bcecceda1000000905090565b60006104cf8484846114a6565b610590846104db6112d3565b61058b8560405180606001604052806028815260200161344160289139600460008b73ffffffffffffffffffffffffffffffffffffffff1673ffffffffffffffffffffffffffffffffffffffff16815260200190815260200160002060006105416112d3565b73ffffffffffffffffffffffffffffffffffffffff1673ffffffffffffffffffffffffffffffffffffffff168152602001908152602001600020546119849092919063ffffffff16565b6112db565b600190509392505050565b6105a36112d3565b73ffffffffffffffffffffffffffffffffffffffff1660008054906101000a900473ffffffffffffffffffffffffffffffffffffffff1673ffffffffffffffffffffffffffffffffffffffff1614610630576040517f08c379a000000000000000000000000000000000000000000000000000000000815260040161062790612c91565b60405180910390fd5b6000600660008373ffffffffffffffffffffffffffffffffffffffff1673ffffffffffffffffffffffffffffffffffffffff16815260200190815260200160002060006101000a81548160ff02191690831515021790555050565b60006009905090565b61069c6112d3565b73ffffffffffffffffffffffffffffffffffffffff1660008054906101000a900473ffffffffffffffffffffffffffffffffffffffff1673ffffffffffffffffffffffffffffffffffffffff1614610729576040517f08c379a000000000000000000000000000000000000000000000000000000000815260040161072090612c91565b60405180910390fd5b80600f60176101000a81548160ff02191690831515021790555050565b600c60009054906101000a900473ffffffffffffffffffffffffffffffffffffffff1673ffffffffffffffffffffffffffffffffffffffff166107876112d3565b73ffffffffffffffffffffffffffffffffffffffff16146107a757600080fd5b60004790506107b5816119e8565b50565b6000610802600260008473ffffffffffffffffffffffffffffffffffffffff1673ffffffffffffffffffffffffffffffffffffffff16815260200190815260200160002054611ae3565b9050919050565b6108116112d3565b73ffffffffffffffffffffffffffffffffffffffff1660008054906101000a900473ffffffffffffffffffffffffffffffffffffffff1673ffffffffffffffffffffffffffffffffffffffff161461089e576040517f08c379a000000000000000000000000000000000000000000000000000000000815260040161089590612c91565b60405180910390fd5b600073ffffffffffffffffffffffffffffffffffffffff1660008054906101000a900473ffffffffffffffffffffffffffffffffffffffff1673ffffffffffffffffffffffffffffffffffffffff167f8be0079c531659141344cd1fd0a4f28419497f9722a3daafe3b4186f6b6457e060405160405180910390a360008060006101000a81548173ffffffffffffffffffffffffffffffffffffffff021916908373ffffffffffffffffffffffffffffffffffffffff160217905550565b600d60009054906101000a900473ffffffffffffffffffffffffffffffffffffffff1673ffffffffffffffffffffffffffffffffffffffff1661099d6112d3565b73ffffffffffffffffffffffffffffffffffffffff16146109f3576040517f08c379a00000000000000000000000000000000000000000000000000000000081526004016109ea90612bf1565b60405180910390fd5b80600a8190555050565b60008060009054906101000a900473ffffffffffffffffffffffffffffffffffffffff16905090565b60606040518060400160405280600981526020017f50656e676f2d696e750000000000000000000000000000000000000000000000815250905090565b6000610a77610a706112d3565b84846114a6565b6001905092915050565b610a896112d3565b73ffffffffffffffffffffffffffffffffffffffff1660008054906101000a900473ffffffffffffffffffffffffffffffffffffffff1673ffffffffffffffffffffffffffffffffffffffff1614610b16576040517f08c379a0000000000000000000000000000000000000000000000000000000008152600401610b0d90612c91565b60405180910390fd5b60005b8151811015610bcd57600160066000848481518110610b61577f4e487b7100000000000000000000000000000000000000000000000000000000600052603260045260246000fd5b602002602001015173ffffffffffffffffffffffffffffffffffffffff1673ffffffffffffffffffffffffffffffffffffffff16815260200190815260200160002060006101000a81548160ff0219169083151502179055508080610bc590613047565b915050610b19565b5050565b600c60009054906101000a900473ffffffffffffffffffffffffffffffffffffffff1673ffffffffffffffffffffffffffffffffffffffff16610c126112d3565b73ffffffffffffffffffffffffffffffffffffffff1614610c3257600080fd5b6000610c3d306107b8565b9050610c4881611b51565b50565b610c536112d3565b73ffffffffffffffffffffffffffffffffffffffff1660008054906101000a900473ffffffffffffffffffffffffffffffffffffffff1673ffffffffffffffffffffffffffffffffffffffff1614610ce0576040517f08c379a0000000000000000000000000000000000000000000000000000000008152600401610cd790612c91565b60405180910390fd5b600f60149054906101000a900460ff1615610d30576040517f08c379a0000000000000000000000000000000000000000000000000000000008152600401610d2790612d11565b60405180910390fd5b6000737a250d5630b4cf539739df2c5dacb4c659f2488d905080600e60006101000a81548173ffffffffffffffffffffffffffffffffffffffff021916908373ffffffffffffffffffffffffffffffffffffffff160217905550610dc130600e60009054906101000a900473ffffffffffffffffffffffffffffffffffffffff1669d3c21bcecceda10000006112db565b8073ffffffffffffffffffffffffffffffffffffffff1663c45a01556040518163ffffffff1660e01b815260040160206040518083038186803b158015610e0757600080fd5b505afa158015610e1b573d6000803e3d6000fd5b505050506040513d601f19601f82011682018060405250810190610e3f9190612641565b73ffffffffffffffffffffffffffffffffffffffff1663c9c65396308373ffffffffffffffffffffffffffffffffffffffff1663ad5c46486040518163ffffffff1660e01b815260040160206040518083038186803b158015610ea157600080fd5b505afa158015610eb5573d6000803e3d6000fd5b505050506040513d601f19601f82011682018060405250810190610ed99190612641565b6040518363ffffffff1660e01b8152600401610ef6929190612ae1565b602060405180830381600087803b158015610f1057600080fd5b505af1158015610f24573d6000803e3d6000fd5b505050506040513d601f19601f82011682018060405250810190610f489190612641565b600f60006101000a81548173ffffffffffffffffffffffffffffffffffffffff021916908373ffffffffffffffffffffffffffffffffffffffff160217905550600e60009054906101000a900473ffffffffffffffffffffffffffffffffffffffff1673ffffffffffffffffffffffffffffffffffffffff1663f305d7194730610fd1306107b8565b600080610fdc6109fd565b426040518863ffffffff1660e01b8152600401610ffe96959493929190612b33565b6060604051808303818588803b15801561101757600080fd5b505af115801561102b573d6000803e3d6000fd5b50505050506040513d601f19601f8201168201806040525081019061105091906127ed565b5050506001600f60166101000a81548160ff0219169083151502179055506001600f60176101000a81548160ff0219169083151502179055506a295be96e640669720000006010819055506001600f60146101000a81548160ff021916908315150217905550600f60009054906101000a900473ffffffffffffffffffffffffffffffffffffffff1673ffffffffffffffffffffffffffffffffffffffff1663095ea7b3600e60009054906101000a900473ffffffffffffffffffffffffffffffffffffffff167fffffffffffffffffffffffffffffffffffffffffffffffffffffffffffffffff6040518363ffffffff1660e01b8152600401611155929190612b0a565b602060405180830381600087803b15801561116f57600080fd5b505af1158015611183573d6000803e3d6000fd5b505050506040513d601f19601f820116820180604052508101906111a7919061279b565b5050565b600d60009054906101000a900473ffffffffffffffffffffffffffffffffffffffff1673ffffffffffffffffffffffffffffffffffffffff166111ec6112d3565b73ffffffffffffffffffffffffffffffffffffffff1614611242576040517f08c379a000000000000000000000000000000000000000000000000000000000815260040161123990612bf1565b60405180910390fd5b80600b8190555050565b6000600460008473ffffffffffffffffffffffffffffffffffffffff1673ffffffffffffffffffffffffffffffffffffffff16815260200190815260200160002060008373ffffffffffffffffffffffffffffffffffffffff1673ffffffffffffffffffffffffffffffffffffffff16815260200190815260200160002054905092915050565b600033905090565b600073ffffffffffffffffffffffffffffffffffffffff168373ffffffffffffffffffffffffffffffffffffffff16141561134b576040517f08c379a000000000000000000000000000000000000000000000000000000000815260040161134290612cf1565b60405180910390fd5b600073ffffffffffffffffffffffffffffffffffffffff168273ffffffffffffffffffffffffffffffffffffffff1614156113bb576040517f08c379a00000000000000000000000000000000000000000000000000000000081526004016113b290612c31565b60405180910390fd5b80600460008573ffffffffffffffffffffffffffffffffffffffff1673ffffffffffffffffffffffffffffffffffffffff16815260200190815260200160002060008473ffffffffffffffffffffffffffffffffffffffff1673ffffffffffffffffffffffffffffffffffffffff168152602001908152602001600020819055508173ffffffffffffffffffffffffffffffffffffffff168373ffffffffffffffffffffffffffffffffffffffff167f8c5be1e5ebec7d5bd14f71427d1e84f3dd0314c0f7b2291e5b200ac8c7c3b925836040516114999190612d31565b60405180910390a3505050565b600073ffffffffffffffffffffffffffffffffffffffff168373ffffffffffffffffffffffffffffffffffffffff161415611516576040517f08c379a000000000000000000000000000000000000000000000000000000000815260040161150d90612cd1565b60405180910390fd5b600073ffffffffffffffffffffffffffffffffffffffff168273ffffffffffffffffffffffffffffffffffffffff161415611586576040517f08c379a000000000000000000000000000000000000000000000000000000000815260040161157d90612bd1565b60405180910390fd5b600081116115c9576040517f08c379a00000000000000000000000000000000000000000000000000000000081526004016115c090612cb1565b60405180910390fd5b6115d16109fd565b73ffffffffffffffffffffffffffffffffffffffff168373ffffffffffffffffffffffffffffffffffffffff161415801561163f575061160f6109fd565b73ffffffffffffffffffffffffffffffffffffffff168273ffffffffffffffffffffffffffffffffffffffff1614155b1561197457600660008473ffffffffffffffffffffffffffffffffffffffff1673ffffffffffffffffffffffffffffffffffffffff16815260200190815260200160002060009054906101000a900460ff161580156116e85750600660008373ffffffffffffffffffffffffffffffffffffffff1673ffffffffffffffffffffffffffffffffffffffff16815260200190815260200160002060009054906101000a900460ff16155b6116f157600080fd5b600f60009054906101000a900473ffffffffffffffffffffffffffffffffffffffff1673ffffffffffffffffffffffffffffffffffffffff168373ffffffffffffffffffffffffffffffffffffffff1614801561179c5750600e60009054906101000a900473ffffffffffffffffffffffffffffffffffffffff1673ffffffffffffffffffffffffffffffffffffffff168273ffffffffffffffffffffffffffffffffffffffff1614155b80156117f25750600560008373ffffffffffffffffffffffffffffffffffffffff1673ffffffffffffffffffffffffffffffffffffffff16815260200190815260200160002060009054906101000a900460ff16155b801561180a5750600f60179054906101000a900460ff165b156118ba5760105481111561181e57600080fd5b42600760008473ffffffffffffffffffffffffffffffffffffffff1673ffffffffffffffffffffffffffffffffffffffff168152602001908152602001600020541061186957600080fd5b601e426118769190612e67565b600760008473ffffffffffffffffffffffffffffffffffffffff1673ffffffffffffffffffffffffffffffffffffffff168152602001908152602001600020819055505b60006118c5306107b8565b9050600f60159054906101000a900460ff161580156119325750600f60009054906101000a900473ffffffffffffffffffffffffffffffffffffffff1673ffffffffffffffffffffffffffffffffffffffff168473ffffffffffffffffffffffffffffffffffffffff1614155b801561194a5750600f60169054906101000a900460ff165b156119725761195881611b51565b600047905060008111156119705761196f476119e8565b5b505b505b61197f838383611e4b565b505050565b60008383111582906119cc576040517f08c379a00000000000000000000000000000000000000000000000000000000081526004016119c39190612baf565b60405180910390fd5b50600083856119db9190612f48565b9050809150509392505050565b600c60009054906101000a900473ffffffffffffffffffffffffffffffffffffffff1673ffffffffffffffffffffffffffffffffffffffff166108fc611a38600284611e5b90919063ffffffff16565b9081150290604051600060405180830381858888f19350505050158015611a63573d6000803e3d6000fd5b50600d60009054906101000a900473ffffffffffffffffffffffffffffffffffffffff1673ffffffffffffffffffffffffffffffffffffffff166108fc611ab4600284611e5b90919063ffffffff16565b9081150290604051600060405180830381858888f19350505050158015611adf573d6000803e3d6000fd5b5050565b6000600854821115611b2a576040517f08c379a0000000000000000000000000000000000000000000000000000000008152600401611b2190612c11565b60405180910390fd5b6000611b34611ea5565b9050611b498184611e5b90919063ffffffff16565b915050919050565b6001600f60156101000a81548160ff0219169083151502179055506000600267ffffffffffffffff811115611baf577f4e487b7100000000000000000000000000000000000000000000000000000000600052604160045260246000fd5b604051908082528060200260200182016040528015611bdd5781602001602082028036833780820191505090505b5090503081600081518110611c1b577f4e487b7100000000000000000000000000000000000000000000000000000000600052603260045260246000fd5b602002602001019073ffffffffffffffffffffffffffffffffffffffff16908173ffffffffffffffffffffffffffffffffffffffff1681525050600e60009054906101000a900473ffffffffffffffffffffffffffffffffffffffff1673ffffffffffffffffffffffffffffffffffffffff1663ad5c46486040518163ffffffff1660e01b815260040160206040518083038186803b158015611cbd57600080fd5b505afa158015611cd1573d6000803e3d6000fd5b505050506040513d601f19601f82011682018060405250810190611cf59190612641565b81600181518110611d2f577f4e487b7100000000000000000000000000000000000000000000000000000000600052603260045260246000fd5b602002602001019073ffffffffffffffffffffffffffffffffffffffff16908173ffffffffffffffffffffffffffffffffffffffff1681525050611d9630600e60009054906101000a900473ffffffffffffffffffffffffffffffffffffffff16846112db565b600e60009054906101000a900473ffffffffffffffffffffffffffffffffffffffff1673ffffffffffffffffffffffffffffffffffffffff1663791ac9478360008430426040518663ffffffff1660e01b8152600401611dfa959493929190612d4c565b600060405180830381600087803b158015611e1457600080fd5b505af1158015611e28573d6000803e3d6000fd5b50505050506000600f60156101000a81548160ff02191690831515021790555050565b611e56838383611ed0565b505050565b6000611e9d83836040518060400160405280601a81526020017f536166654d6174683a206469766973696f6e206279207a65726f00000000000081525061209b565b905092915050565b6000806000611eb26120fe565b91509150611ec98183611e5b90919063ffffffff16565b9250505090565b600080600080600080611ee287612163565b955095509550955095509550611f4086600260008c73ffffffffffffffffffffffffffffffffffffffff1673ffffffffffffffffffffffffffffffffffffffff168152602001908152602001600020546121cb90919063ffffffff16565b600260008b73ffffffffffffffffffffffffffffffffffffffff1673ffffffffffffffffffffffffffffffffffffffff16815260200190815260200160002081905550611fd585600260008b73ffffffffffffffffffffffffffffffffffffffff1673ffffffffffffffffffffffffffffffffffffffff1681526020019081526020016000205461221590919063ffffffff16565b600260008a73ffffffffffffffffffffffffffffffffffffffff1673ffffffffffffffffffffffffffffffffffffffff1681526020019081526020016000208190555061202181612273565b61202b8483612330565b8773ffffffffffffffffffffffffffffffffffffffff168973ffffffffffffffffffffffffffffffffffffffff167fddf252ad1be2c89b69c2b068fc378daa952ba7f163c4a11628f55a4df523b3ef856040516120889190612d31565b60405180910390a3505050505050505050565b600080831182906120e2576040517f08c379a00000000000000000000000000000000000000000000000000000000081526004016120d99190612baf565b60405180910390fd5b50600083856120f19190612ebd565b9050809150509392505050565b60008060006008549050600069d3c21bcecceda1000000905061213669d3c21bcecceda1000000600854611e5b90919063ffffffff16565b8210156121565760085469d3c21bcecceda100000093509350505061215f565b81819350935050505b9091565b60008060008060008060008060006121808a600a54600b5461236a565b9250925092506000612190611ea5565b905060008060006121a38e878787612400565b9250925092508282828989899c509c509c509c509c509c505050505050505091939550919395565b600061220d83836040518060400160405280601e81526020017f536166654d6174683a207375627472616374696f6e206f766572666c6f770000815250611984565b905092915050565b60008082846122249190612e67565b905083811015612269576040517f08c379a000000000000000000000000000000000000000000000000000000000815260040161226090612c51565b60405180910390fd5b8091505092915050565b600061227d611ea5565b90506000612294828461248990919063ffffffff16565b90506122e881600260003073ffffffffffffffffffffffffffffffffffffffff1673ffffffffffffffffffffffffffffffffffffffff1681526020019081526020016000205461221590919063ffffffff16565b600260003073ffffffffffffffffffffffffffffffffffffffff1673ffffffffffffffffffffffffffffffffffffffff16815260200190815260200160002081905550505050565b612345826008546121cb90919063ffffffff16565b6008819055506123608160095461221590919063ffffffff16565b6009819055505050565b6000806000806123966064612388888a61248990919063ffffffff16565b611e5b90919063ffffffff16565b905060006123c060646123b2888b61248990919063ffffffff16565b611e5b90919063ffffffff16565b905060006123e9826123db858c6121cb90919063ffffffff16565b6121cb90919063ffffffff16565b905080838395509550955050505093509350939050565b600080600080612419858961248990919063ffffffff16565b90506000612430868961248990919063ffffffff16565b90506000612447878961248990919063ffffffff16565b905060006124708261246285876121cb90919063ffffffff16565b6121cb90919063ffffffff16565b9050838184965096509650505050509450945094915050565b60008083141561249c57600090506124fe565b600082846124aa9190612eee565b90508284826124b99190612ebd565b146124f9576040517f08c379a00000000000000000000000000000000000000000000000000000000081526004016124f090612c71565b60405180910390fd5b809150505b92915050565b600061251761251284612de6565b612dc1565b9050808382526020820190508285602086028201111561253657600080fd5b60005b85811015612566578161254c8882612570565b845260208401935060208301925050600181019050612539565b5050509392505050565b60008135905061257f816133fb565b92915050565b600081519050612594816133fb565b92915050565b600082601f8301126125ab57600080fd5b81356125bb848260208601612504565b91505092915050565b6000813590506125d381613412565b92915050565b6000815190506125e881613412565b92915050565b6000813590506125fd81613429565b92915050565b60008151905061261281613429565b92915050565b60006020828403121561262a57600080fd5b600061263884828501612570565b91505092915050565b60006020828403121561265357600080fd5b600061266184828501612585565b91505092915050565b6000806040838503121561267d57600080fd5b600061268b85828601612570565b925050602061269c85828601612570565b9150509250929050565b6000806000606084860312156126bb57600080fd5b60006126c986828701612570565b93505060206126da86828701612570565b92505060406126eb868287016125ee565b9150509250925092565b6000806040838503121561270857600080fd5b600061271685828601612570565b9250506020612727858286016125ee565b9150509250929050565b60006020828403121561274357600080fd5b600082013567ffffffffffffffff81111561275d57600080fd5b6127698482850161259a565b91505092915050565b60006020828403121561278457600080fd5b6000612792848285016125c4565b91505092915050565b6000602082840312156127ad57600080fd5b60006127bb848285016125d9565b91505092915050565b6000602082840312156127d657600080fd5b60006127e4848285016125ee565b91505092915050565b60008060006060848603121561280257600080fd5b600061281086828701612603565b935050602061282186828701612603565b925050604061283286828701612603565b9150509250925092565b60006128488383612854565b60208301905092915050565b61285d81612f7c565b82525050565b61286c81612f7c565b82525050565b600061287d82612e22565b6128878185612e45565b935061289283612e12565b8060005b838110156128c35781516128aa888261283c565b97506128b583612e38565b925050600181019050612896565b5085935050505092915050565b6128d981612f8e565b82525050565b6128e881612fd1565b82525050565b60006128f982612e2d565b6129038185612e56565b9350612913818560208601612fe3565b61291c8161311d565b840191505092915050565b6000612934602383612e56565b915061293f8261312e565b604082019050919050565b6000612957600c83612e56565b91506129628261317d565b602082019050919050565b600061297a602a83612e56565b9150612985826131a6565b604082019050919050565b600061299d602283612e56565b91506129a8826131f5565b604082019050919050565b60006129c0601b83612e56565b91506129cb82613244565b602082019050919050565b60006129e3602183612e56565b91506129ee8261326d565b604082019050919050565b6000612a06602083612e56565b9150612a11826132bc565b602082019050919050565b6000612a29602983612e56565b9150612a34826132e5565b604082019050919050565b6000612a4c602583612e56565b9150612a5782613334565b604082019050919050565b6000612a6f602483612e56565b9150612a7a82613383565b604082019050919050565b6000612a92601783612e56565b9150612a9d826133d2565b602082019050919050565b612ab181612fba565b82525050565b612ac081612fc4565b82525050565b6000602082019050612adb6000830184612863565b92915050565b6000604082019050612af66000830185612863565b612b036020830184612863565b9392505050565b6000604082019050612b1f6000830185612863565b612b2c6020830184612aa8565b9392505050565b600060c082019050612b486000830189612863565b612b556020830188612aa8565b612b6260408301876128df565b612b6f60608301866128df565b612b7c6080830185612863565b612b8960a0830184612aa8565b979650505050505050565b6000602082019050612ba960008301846128d0565b92915050565b60006020820190508181036000830152612bc981846128ee565b905092915050565b60006020820190508181036000830152612bea81612927565b9050919050565b60006020820190508181036000830152612c0a8161294a565b9050919050565b60006020820190508181036000830152612c2a8161296d565b9050919050565b60006020820190508181036000830152612c4a81612990565b9050919050565b60006020820190508181036000830152612c6a816129b3565b9050919050565b60006020820190508181036000830152612c8a816129d6565b9050919050565b60006020820190508181036000830152612caa816129f9565b9050919050565b60006020820190508181036000830152612cca81612a1c565b9050919050565b60006020820190508181036000830152612cea81612a3f565b9050919050565b60006020820190508181036000830152612d0a81612a62565b9050919050565b60006020820190508181036000830152612d2a81612a85565b9050919050565b6000602082019050612d466000830184612aa8565b92915050565b600060a082019050612d616000830188612aa8565b612d6e60208301876128df565b8181036040830152612d808186612872565b9050612d8f6060830185612863565b612d9c6080830184612aa8565b9695505050505050565b6000602082019050612dbb6000830184612ab7565b92915050565b6000612dcb612ddc565b9050612dd78282613016565b919050565b6000604051905090565b600067ffffffffffffffff821115612e0157612e006130ee565b5b602082029050602081019050919050565b6000819050602082019050919050565b600081519050919050565b600081519050919050565b6000602082019050919050565b600082825260208201905092915050565b600082825260208201905092915050565b6000612e7282612fba565b9150612e7d83612fba565b9250827fffffffffffffffffffffffffffffffffffffffffffffffffffffffffffffffff03821115612eb257612eb1613090565b5b828201905092915050565b6000612ec882612fba565b9150612ed383612fba565b925082612ee357612ee26130bf565b5b828204905092915050565b6000612ef982612fba565b9150612f0483612fba565b9250817fffffffffffffffffffffffffffffffffffffffffffffffffffffffffffffffff0483118215151615612f3d57612f3c613090565b5b828202905092915050565b6000612f5382612fba565b9150612f5e83612fba565b925082821015612f7157612f70613090565b5b828203905092915050565b6000612f8782612f9a565b9050919050565b60008115159050919050565b600073ffffffffffffffffffffffffffffffffffffffff82169050919050565b6000819050919050565b600060ff82169050919050565b6000612fdc82612fba565b9050919050565b60005b83811015613001578082015181840152602081019050612fe6565b83811115613010576000848401525b50505050565b61301f8261311d565b810181811067ffffffffffffffff8211171561303e5761303d6130ee565b5b80604052505050565b600061305282612fba565b91507fffffffffffffffffffffffffffffffffffffffffffffffffffffffffffffffff82141561308557613084613090565b5b600182019050919050565b7f4e487b7100000000000000000000000000000000000000000000000000000000600052601160045260246000fd5b7f4e487b7100000000000000000000000000000000000000000000000000000000600052601260045260246000fd5b7f4e487b7100000000000000000000000000000000000000000000000000000000600052604160045260246000fd5b6000601f19601f8301169050919050565b7f45524332303a207472616e7366657220746f20746865207a65726f206164647260008201527f6573730000000000000000000000000000000000000000000000000000000000602082015250565b7f556e617574686f72697a65640000000000000000000000000000000000000000600082015250565b7f416d6f756e74206d757374206265206c657373207468616e20746f74616c207260008201527f65666c656374696f6e7300000000000000000000000000000000000000000000602082015250565b7f45524332303a20617070726f766520746f20746865207a65726f20616464726560008201527f7373000000000000000000000000000000000000000000000000000000000000602082015250565b7f536166654d6174683a206164646974696f6e206f766572666c6f770000000000600082015250565b7f536166654d6174683a206d756c7469706c69636174696f6e206f766572666c6f60008201527f7700000000000000000000000000000000000000000000000000000000000000602082015250565b7f4f776e61626c653a2063616c6c6572206973206e6f7420746865206f776e6572600082015250565b7f5472616e7366657220616d6f756e74206d75737420626520677265617465722060008201527f7468616e207a65726f0000000000000000000000000000000000000000000000602082015250565b7f45524332303a207472616e736665722066726f6d20746865207a65726f20616460008201527f6472657373000000000000000000000000000000000000000000000000000000602082015250565b7f45524332303a20617070726f76652066726f6d20746865207a65726f2061646460008201527f7265737300000000000000000000000000000000000000000000000000000000602082015250565b7f74726164696e6720697320616c7265616479206f70656e000000000000000000600082015250565b61340481612f7c565b811461340f57600080fd5b50565b61341b81612f8e565b811461342657600080fd5b50565b61343281612fba565b811461343d57600080fd5b5056fe45524332303a207472616e7366657220616d6f756e74206578636565647320616c6c6f77616e6365a26469706673582212209ce68f4c9eceafa9b2f8f45301fc3951fbb7a1ef337d7ec75b264f79d361ed3364736f6c63430008040033"
  }
}