{"compiler":"v0.4.23+commit.124ca40d","opcodeHash":"0x3e9c95d2ef27852368815480d077b2f3d345a4509cdb9a113b7ff58b795f8e88","metalessHash":"0xfd1c6668642737cd438464527e3a8d7871d0b3dff4e32b8ceed066dcd22424a7","runtimeHash":"0xe31615909bd51a724085eeadb134cdbdba0cfc6ec5722aba1dab75e6262dc67a","encodedMetadata":[{"bzzr0":"/swarm/bzzr0/c8231ec5f25cdd61d2b3bfe17b2418300966cfa5fe1552bf4d0941fadf2f49f6"}],"abi":[{"constant":true,"inputs":[],"name":"duration","outputs":[{"name":"","type":"uint256"}],"payable":false,"stateMutability":"view","type":"function"},{"constant":true,"inputs":[],"name":"cliff","outputs":[{"name":"","type":"uint256"}],"payable":false,"stateMutability":"view","type":"function"},{"constant":true,"inputs":[],"name":"totalShares","outputs":[{"name":"","type":"uint256"}],"payable":false,"stateMutability":"view","type":"function"},{"constant":true,"inputs":[],"name":"vestedAmount","outputs":[{"name":"","type":"uint256"}],"payable":false,"stateMutability":"view","type":"function"},{"constant":false,"inputs":[],"name":"releaseAllTokens","outputs":[],"payable":false,"stateMutability":"nonpayable","type":"function"},{"constant":true,"inputs":[],"name":"releasableAmount","outputs":[{"name":"","type":"uint256"}],"payable":false,"stateMutability":"view","type":"function"},{"constant":false,"inputs":[],"name":"renounceOwnership","outputs":[],"payable":false,"stateMutability":"nonpayable","type":"function"},{"constant":true,"inputs":[],"name":"owner","outputs":[{"name":"","type":"address"}],"payable":false,"stateMutability":"view","type":"function"},{"constant":true,"inputs":[{"name":"_amount","type":"uint256"},{"name":"_beneficiary","type":"address"}],"name":"calculateShares","outputs":[{"name":"","type":"uint256"}],"payable":false,"stateMutability":"view","type":"function"},{"constant":false,"inputs":[{"name":"_beneficiary","type":"address"},{"name":"_sharesAmount","type":"uint256"}],"name":"addBeneficiary","outputs":[],"payable":false,"stateMutability":"nonpayable","type":"function"},{"constant":true,"inputs":[],"name":"start","outputs":[{"name":"","type":"uint256"}],"payable":false,"stateMutability":"view","type":"function"},{"constant":true,"inputs":[{"name":"","type":"address"}],"name":"shares","outputs":[{"name":"","type":"uint256"}],"payable":false,"stateMutability":"view","type":"function"},{"constant":true,"inputs":[{"name":"","type":"uint256"}],"name":"beneficiaries","outputs":[{"name":"","type":"address"}],"payable":false,"stateMutability":"view","type":"function"},{"constant":false,"inputs":[{"name":"_newOwner","type":"address"}],"name":"transferOwnership","outputs":[],"payable":false,"stateMutability":"nonpayable","type":"function"},{"constant":true,"inputs":[],"name":"token","outputs":[{"name":"","type":"address"}],"payable":false,"stateMutability":"view","type":"function"},{"inputs":[{"name":"_token","type":"address"},{"name":"_start","type":"uint256"},{"name":"_cliff","type":"uint256"},{"name":"_duration","type":"uint256"}],"payable":false,"stateMutability":"nonpayable","type":"constructor"},{"anonymous":false,"inputs":[{"indexed":false,"name":"beneficiary","type":"address"},{"indexed":false,"name":"amount","type":"uint256"}],"name":"Released","type":"event"},{"anonymous":false,"inputs":[{"indexed":true,"name":"previousOwner","type":"address"}],"name":"OwnershipRenounced","type":"event"},{"anonymous":false,"inputs":[{"indexed":true,"name":"previousOwner","type":"address"},{"indexed":true,"name":"newOwner","type":"address"}],"name":"OwnershipTransferred","type":"event"}],"bytecode":{"object":"6080604052600060065534801561001557600080fd5b506040516080806113ae83398101806040528101908080519060200190929190805190602001909291908051906020019092919080519060200190929190505050336000806101000a81548173ffffffffffffffffffffffffffffffffffffffff021916908373ffffffffffffffffffffffffffffffffffffffff160217905550808211151515610134576040517f08c379a000000000000000000000000000000000000000000000000000000000815260040180806020018281038252602a8152602001807f436c6966662068617320746f206265206c6f776572206f7220657175616c207481526020017f6f206475726174696f6e0000000000000000000000000000000000000000000081525060400191505060405180910390fd5b83600160006101000a81548173ffffffffffffffffffffffffffffffffffffffff021916908373ffffffffffffffffffffffffffffffffffffffff1602179055508060048190555061019c82846101b264010000000002610e7e179091906401000000009004565b60028190555082600381905550505050506101ce565b600081830190508281101515156101c557fe5b80905092915050565b6111d1806101dd6000396000f3006080604052600436106100db576000357c0100000000000000000000000000000000000000000000000000000000900463ffffffff1680630fb5a6b4146100e057806313d033c01461010b5780633a98ef391461013657806344b1231f1461016157806344fdbf5b1461018c5780635b940081146101a3578063715018a6146101ce5780638da5cb5b146101e557806395f2da5d1461023c57806396074e701461029d578063be9a6555146102ea578063ce7c2ac214610315578063efeb5e581461036c578063f2fde38b146103d9578063fc0c546a1461041c575b600080fd5b3480156100ec57600080fd5b506100f5610473565b6040518082815260200191505060405180910390f35b34801561011757600080fd5b50610120610479565b6040518082815260200191505060405180910390f35b34801561014257600080fd5b5061014b61047f565b6040518082815260200191505060405180910390f35b34801561016d57600080fd5b50610176610541565b6040518082815260200191505060405180910390f35b34801561019857600080fd5b506101a16106d4565b005b3480156101af57600080fd5b506101b86108c2565b6040518082815260200191505060405180910390f35b3480156101da57600080fd5b506101e36108e5565b005b3480156101f157600080fd5b506101fa6109e7565b604051808273ffffffffffffffffffffffffffffffffffffffff1673ffffffffffffffffffffffffffffffffffffffff16815260200191505060405180910390f35b34801561024857600080fd5b5061028760048036038101908080359060200190929190803573ffffffffffffffffffffffffffffffffffffffff169060200190929190505050610a0c565b6040518082815260200191505060405180910390f35b3480156102a957600080fd5b506102e8600480360381019080803573ffffffffffffffffffffffffffffffffffffffff16906020019092919080359060200190929190505050610a81565b005b3480156102f657600080fd5b506102ff610d95565b6040518082815260200191505060405180910390f35b34801561032157600080fd5b50610356600480360381019080803573ffffffffffffffffffffffffffffffffffffffff169060200190929190505050610d9b565b6040518082815260200191505060405180910390f35b34801561037857600080fd5b5061039760048036038101908080359060200190929190505050610db3565b604051808273ffffffffffffffffffffffffffffffffffffffff1673ffffffffffffffffffffffffffffffffffffffff16815260200191505060405180910390f35b3480156103e557600080fd5b5061041a600480360381019080803573ffffffffffffffffffffffffffffffffffffffff169060200190929190505050610df1565b005b34801561042857600080fd5b50610431610e58565b604051808273ffffffffffffffffffffffffffffffffffffffff1673ffffffffffffffffffffffffffffffffffffffff16815260200191505060405180910390f35b60045481565b60025481565b600080600080600092506007805490509150600090505b8181101561053857610529600560006007848154811015156104b457fe5b9060005260206000200160009054906101000a900473ffffffffffffffffffffffffffffffffffffffff1673ffffffffffffffffffffffffffffffffffffffff1673ffffffffffffffffffffffffffffffffffffffff1681526020019081526020016000205484610e7e90919063ffffffff16565b92508080600101915050610496565b82935050505090565b6000806000600160009054906101000a900473ffffffffffffffffffffffffffffffffffffffff1673ffffffffffffffffffffffffffffffffffffffff166370a08231306040518263ffffffff167c0100000000000000000000000000000000000000000000000000000000028152600401808273ffffffffffffffffffffffffffffffffffffffff1673ffffffffffffffffffffffffffffffffffffffff168152602001915050602060405180830381600087803b15801561060357600080fd5b505af1158015610617573d6000803e3d6000fd5b505050506040513d602081101561062d57600080fd5b8101908080519060200190929190505050915061065560065483610e7e90919063ffffffff16565b905060025442101561066a57600092506106cf565b610681600454600354610e7e90919063ffffffff16565b42101515610691578092506106cf565b6106cc6004546106be6106af60035442610e9a90919063ffffffff16565b84610eb390919063ffffffff16565b610eeb90919063ffffffff16565b92505b505090565b60008060008060009054906101000a900473ffffffffffffffffffffffffffffffffffffffff1673ffffffffffffffffffffffffffffffffffffffff163373ffffffffffffffffffffffffffffffffffffffff16148061077357506000600560003373ffffffffffffffffffffffffffffffffffffffff1673ffffffffffffffffffffffffffffffffffffffff16815260200190815260200160002054115b15156107e7576040517f08c379a000000000000000000000000000000000000000000000000000000000815260040180806020018281038252601a8152602001807f596f752063616e6e6f742072656c6561736520746f6b656e732100000000000081525060200191505060405180910390fd5b6107ef6108c2565b925060008311156108bd57600780549050915061081783600654610e7e90919063ffffffff16565b600681905550600090505b818110156108bc576108af60078281548110151561083c57fe5b9060005260206000200160009054906101000a900473ffffffffffffffffffffffffffffffffffffffff166108aa8560078581548110151561087a57fe5b9060005260206000200160009054906101000a900473ffffffffffffffffffffffffffffffffffffffff16610a0c565b610f01565b8080600101915050610822565b5b505050565b60006108e06006546108d2610541565b610e9a90919063ffffffff16565b905090565b6000809054906101000a900473ffffffffffffffffffffffffffffffffffffffff1673ffffffffffffffffffffffffffffffffffffffff163373ffffffffffffffffffffffffffffffffffffffff1614151561094057600080fd5b6000809054906101000a900473ffffffffffffffffffffffffffffffffffffffff1673ffffffffffffffffffffffffffffffffffffffff167ff8df31144d9c2f0f6b59d69b8b98abd5459d07f2742c4df920b25aae33c6482060405160405180910390a260008060006101000a81548173ffffffffffffffffffffffffffffffffffffffff021916908373ffffffffffffffffffffffffffffffffffffffff160217905550565b6000809054906101000a900473ffffffffffffffffffffffffffffffffffffffff1681565b6000610a79610a1961047f565b610a6b600560008673ffffffffffffffffffffffffffffffffffffffff1673ffffffffffffffffffffffffffffffffffffffff1681526020019081526020016000205486610eb390919063ffffffff16565b610eeb90919063ffffffff16565b905092915050565b6000809054906101000a900473ffffffffffffffffffffffffffffffffffffffff1673ffffffffffffffffffffffffffffffffffffffff163373ffffffffffffffffffffffffffffffffffffffff16141515610adc57600080fd5b600073ffffffffffffffffffffffffffffffffffffffff168273ffffffffffffffffffffffffffffffffffffffff1614151515610ba7576040517f08c379a00000000000000000000000000000000000000000000000000000000081526004018080602001828103825260258152602001807f5468652062656e6566696369617279277320616464726573732063616e6e6f7481526020017f206265203000000000000000000000000000000000000000000000000000000081525060400191505060405180910390fd5b600081111515610c45576040517f08c379a00000000000000000000000000000000000000000000000000000000081526004018080602001828103825260268152602001807f53686172657320616d6f756e742068617320746f20626520677265617465722081526020017f7468616e2030000000000000000000000000000000000000000000000000000081525060400191505060405180910390fd5b610c4d6106d4565b6000600560008473ffffffffffffffffffffffffffffffffffffffff1673ffffffffffffffffffffffffffffffffffffffff168152602001908152602001600020541415610cfc5760078290806001815401808255809150509060018203906000526020600020016000909192909190916101000a81548173ffffffffffffffffffffffffffffffffffffffff021916908373ffffffffffffffffffffffffffffffffffffffff160217905550505b610d4e81600560008573ffffffffffffffffffffffffffffffffffffffff1673ffffffffffffffffffffffffffffffffffffffff16815260200190815260200160002054610e7e90919063ffffffff16565b600560008473ffffffffffffffffffffffffffffffffffffffff1673ffffffffffffffffffffffffffffffffffffffff168152602001908152602001600020819055505050565b60035481565b60056020528060005260406000206000915090505481565b600781815481101515610dc257fe5b906000526020600020016000915054906101000a900473ffffffffffffffffffffffffffffffffffffffff1681565b6000809054906101000a900473ffffffffffffffffffffffffffffffffffffffff1673ffffffffffffffffffffffffffffffffffffffff163373ffffffffffffffffffffffffffffffffffffffff16141515610e4c57600080fd5b610e5581610fbd565b50565b600160009054906101000a900473ffffffffffffffffffffffffffffffffffffffff1681565b60008183019050828110151515610e9157fe5b80905092915050565b6000828211151515610ea857fe5b818303905092915050565b600080831415610ec65760009050610ee5565b8183029050818382811515610ed757fe5b04141515610ee157fe5b8090505b92915050565b60008183811515610ef857fe5b04905092915050565b610f4e8282600160009054906101000a900473ffffffffffffffffffffffffffffffffffffffff1673ffffffffffffffffffffffffffffffffffffffff166110b79092919063ffffffff16565b7fb21fb52d5749b80f3182f8c6992236b5e5576681880914484d7f4c9b062e619e8282604051808373ffffffffffffffffffffffffffffffffffffffff1673ffffffffffffffffffffffffffffffffffffffff1681526020018281526020019250505060405180910390a15050565b600073ffffffffffffffffffffffffffffffffffffffff168173ffffffffffffffffffffffffffffffffffffffff1614151515610ff957600080fd5b8073ffffffffffffffffffffffffffffffffffffffff166000809054906101000a900473ffffffffffffffffffffffffffffffffffffffff1673ffffffffffffffffffffffffffffffffffffffff167f8be0079c531659141344cd1fd0a4f28419497f9722a3daafe3b4186f6b6457e060405160405180910390a3806000806101000a81548173ffffffffffffffffffffffffffffffffffffffff021916908373ffffffffffffffffffffffffffffffffffffffff16021790555050565b8273ffffffffffffffffffffffffffffffffffffffff1663a9059cbb83836040518363ffffffff167c0100000000000000000000000000000000000000000000000000000000028152600401808373ffffffffffffffffffffffffffffffffffffffff1673ffffffffffffffffffffffffffffffffffffffff16815260200182815260200192505050602060405180830381600087803b15801561115a57600080fd5b505af115801561116e573d6000803e3d6000fd5b505050506040513d602081101561118457600080fd5b810190808051906020019092919050505015156111a057600080fd5b5050505600a165627a7a72305820600dccc1bae0d458e8e605a4183b70ef764d51fedd48e6542fb90be9d9ee177a0029"}}