{"compiler":"v0.6.12+commit.27d51765","opcodeHash":"0x7422526baa0d28ea6f1e37b23dc548d604b7af49539f67411b68bc7238714f24","metalessHash":"0xae0f95fe0383d579837d769b81dc467470c73981cc3cf1fa7900e037f94984e6","runtimeHash":"0xdad22cfbacb4b3adc2a15c084c78de572dfa676ed839eead1e841f4ad2ac5215","encodedMetadata":[{"ipfs":"/ipfs/QmbnxCbD1FNTq5wsNyHMvViZ795xepGydDNyfeJZpBCeRd","solc":"0.6.12"}],"abi":[{"inputs":[{"internalType":"contract TokenInterface","name":"_weth","type":"address"}],"stateMutability":"nonpayable","type":"constructor"},{"inputs":[{"internalType":"address","name":"addr","type":"address"}],"name":"addAddressToWhitelist","outputs":[],"stateMutability":"nonpayable","type":"function"},{"inputs":[{"internalType":"address","name":"_indexToken","type":"address"},{"internalType":"address","name":"_tokenWethPool","type":"address"},{"internalType":"bool","name":"_isUniswap","type":"bool"},{"internalType":"bool","name":"_hasCommunityFee","type":"bool"}],"name":"addTrader","outputs":[],"stateMutability":"nonpayable","type":"function"},{"inputs":[{"internalType":"uint256","name":"_pid","type":"uint256"},{"internalType":"uint256","name":"minAmountOut","type":"uint256"},{"internalType":"contract IUniswapV2Pair[]","name":"_pairs","type":"address[]"},{"internalType":"bool","name":"useCHI","type":"bool"}],"name":"buy_and_redeem_tc_","outputs":[],"stateMutability":"payable","type":"function"},{"inputs":[{"internalType":"contract BPoolInterface","name":"indexToken","type":"address"},{"internalType":"uint256","name":"_ethValue","type":"uint256"},{"internalType":"contract IUniswapV2Pair[]","name":"_pairs","type":"address[]"}],"name":"calcSwapEthToIndexInputs","outputs":[{"internalType":"uint256[]","name":"ethInUniswap","type":"uint256[]"},{"internalType":"uint256","name":"poolOut","type":"uint256"}],"stateMutability":"view","type":"function"},{"inputs":[{"internalType":"contract BPoolInterface","name":"indexToken","type":"address"},{"internalType":"uint256","name":"_poolAmountIn","type":"uint256"},{"internalType":"bool","name":"_hasCommunityFee","type":"bool"},{"internalType":"contract IUniswapV2Pair[]","name":"_pairs","type":"address[]"}],"name":"calcSwapIndexToEthInputs","outputs":[{"internalType":"uint256[]","name":"tokensOutIndex","type":"uint256[]"},{"internalType":"uint256[]","name":"ethOutUniswap","type":"uint256[]"},{"internalType":"uint256","name":"totalEthOut","type":"uint256"}],"stateMutability":"view","type":"function"},{"inputs":[],"name":"chi","outputs":[{"internalType":"contract IFreeFromUpTo","name":"","type":"address"}],"stateMutability":"view","type":"function"},{"inputs":[{"internalType":"uint256","name":"_pid","type":"uint256"},{"internalType":"uint256","name":"_poolAmountOut","type":"uint256"},{"internalType":"uint256","name":"minAmountOut","type":"uint256"},{"internalType":"contract IUniswapV2Pair[]","name":"_pairs","type":"address[]"},{"internalType":"bool","name":"useCHI","type":"bool"}],"name":"mint_and_sell_4bY","outputs":[],"stateMutability":"payable","type":"function"},{"inputs":[],"name":"owner","outputs":[{"internalType":"address","name":"","type":"address"}],"stateMutability":"view","type":"function"},{"inputs":[{"internalType":"address","name":"addr","type":"address"}],"name":"removeAddressFromWhitelist","outputs":[],"stateMutability":"nonpayable","type":"function"},{"inputs":[{"internalType":"uint256","name":"","type":"uint256"}],"name":"trader","outputs":[{"internalType":"address","name":"indexToken","type":"address"},{"internalType":"address","name":"tokenWethPool","type":"address"},{"internalType":"bool","name":"isUniswap","type":"bool"},{"internalType":"bool","name":"hasCommunityFee","type":"bool"}],"stateMutability":"view","type":"function"},{"inputs":[{"internalType":"address","name":"newOwner","type":"address"}],"name":"transferOwnership","outputs":[],"stateMutability":"nonpayable","type":"function"},{"inputs":[{"internalType":"uint256","name":"_pid","type":"uint256"},{"internalType":"address","name":"_indexToken","type":"address"},{"internalType":"address","name":"_tokenWethPool","type":"address"},{"internalType":"bool","name":"_isUniswap","type":"bool"},{"internalType":"bool","name":"_hasCommunityFee","type":"bool"}],"name":"updateTrader","outputs":[],"stateMutability":"nonpayable","type":"function"},{"inputs":[],"name":"weth","outputs":[{"internalType":"contract TokenInterface","name":"","type":"address"}],"stateMutability":"view","type":"function"},{"inputs":[{"internalType":"address","name":"","type":"address"}],"name":"whitelist","outputs":[{"internalType":"bool","name":"","type":"bool"}],"stateMutability":"view","type":"function"},{"inputs":[{"internalType":"contract IERC20","name":"token","type":"address"}],"name":"withdrawErc20","outputs":[],"stateMutability":"nonpayable","type":"function"},{"inputs":[],"name":"withdrawEth_cfq","outputs":[],"stateMutability":"nonpayable","type":"function"},{"stateMutability":"payable","type":"receive"}],"bytecode":{"object":"608060405234801561001057600080fd5b5060405162004f5a38038062004f5a8339818101604052602081101561003557600080fd5b5051600280546001600160a01b039092166001600160a01b03199283161790553360008181526001602081905260408220805460ff19169091179055805490921617905566470de4df820000600355614ec680620000946000396000f3fe6080604052600436106100f35760003560e01c80638da5cb5b1161008a578063c92aecc411610059578063c92aecc414610607578063e07995651461061c578063f2fde38b1461066f578063fae41604146106a25761010e565b80638da5cb5b1461051a5780639b19251a1461052f578063a8b4b94914610576578063c7e42b1b146105d45761010e565b80633fc8cef3116100c65780633fc8cef31461037e57806342a96cd7146103af5780637ad9bac91461049a5780637b9417c8146104e75761010e565b8061021b146101135780613a3714610196578063286dd3f5146102125780633f279471146102455761010e565b3661010e573332146101045761010c565b61010c6106b7565b005b600080fd5b61010c600480360360a081101561012957600080fd5b81359160208101359160408201359190810190608081016060820135600160201b81111561015657600080fd5b82018360208201111561016857600080fd5b803590602001918460208302840111600160201b8311171561018957600080fd5b9193509150351515610837565b61010c600480360360808110156101ac57600080fd5b813591602081013591810190606081016040820135600160201b8111156101d257600080fd5b8201836020820111156101e457600080fd5b803590602001918460208302840111600160201b8311171561020557600080fd5b9193509150351515610a1b565b34801561021e57600080fd5b5061010c6004803603602081101561023557600080fd5b50356001600160a01b0316610c11565b34801561025157600080fd5b506102de6004803603608081101561026857600080fd5b6001600160a01b0382351691602081013591604082013515159190810190608081016060820135600160201b8111156102a057600080fd5b8201836020820111156102b257600080fd5b803590602001918460208302840111600160201b831117156102d357600080fd5b509092509050610cbd565b604051808060200180602001848152602001838103835286818151815260200191508051906020019060200280838360005b83811015610328578181015183820152602001610310565b50505050905001838103825285818151815260200191508051906020019060200280838360005b8381101561036757818101518382015260200161034f565b505050509050019550505050505060405180910390f35b34801561038a57600080fd5b506103936112e8565b604080516001600160a01b039092168252519081900360200190f35b3480156103bb57600080fd5b5061043f600480360360608110156103d257600080fd5b6001600160a01b0382351691602081013591810190606081016040820135600160201b81111561040157600080fd5b82018360208201111561041357600080fd5b803590602001918460208302840111600160201b8311171561043457600080fd5b5090925090506112f7565b6040518080602001838152602001828103825284818151815260200191508051906020019060200280838360005b8381101561048557818101518382015260200161046d565b50505050905001935050505060405180910390f35b3480156104a657600080fd5b5061010c600480360360808110156104bd57600080fd5b506001600160a01b0381358116916020810135909116906040810135151590606001351515611adc565b3480156104f357600080fd5b5061010c6004803603602081101561050a57600080fd5b50356001600160a01b0316611c28565b34801561052657600080fd5b50610393611cd6565b34801561053b57600080fd5b506105626004803603602081101561055257600080fd5b50356001600160a01b0316611ce5565b604080519115158252519081900360200190f35b34801561058257600080fd5b506105a06004803603602081101561059957600080fd5b5035611cfa565b604080516001600160a01b039586168152939094166020840152901515828401521515606082015290519081900360800190f35b3480156105e057600080fd5b5061010c600480360360208110156105f757600080fd5b50356001600160a01b0316611d47565b34801561061357600080fd5b50610393611eac565b34801561062857600080fd5b5061010c600480360360a081101561063f57600080fd5b508035906001600160a01b0360208201358116916040810135909116906060810135151590608001351515611ebe565b34801561067b57600080fd5b5061010c6004803603602081101561069257600080fd5b50356001600160a01b031661201e565b3480156106ae57600080fd5b5061010c6120ec565b600254604080516370a0823160e01b815230600482015290516000926001600160a01b0316916370a08231916024808301926020929190829003018186803b15801561070257600080fd5b505afa158015610716573d6000803e3d6000fd5b505050506040513d602081101561072c57600080fd5b50519050801561079c5760025460408051632e1a7d4d60e01b81526004810184905290516001600160a01b0390921691632e1a7d4d9160248082019260009290919082900301818387803b15801561078357600080fd5b505af1158015610797573d6000803e3d6000fd5b505050505b47801561083357604051600090339083908381818185875af1925050503d80600081146107e5576040519150601f19603f3d011682016040523d82523d6000602084013e6107ea565b606091505b5050905080610831576040805162461bcd60e51b815260206004820152600e60248201526d11549497d1551217d1905253115160921b604482015290519081900360640190fd5b505b5050565b3360009081526001602052604090205460ff168061085f57506000546001600160a01b031633145b61089e576040805162461bcd60e51b815260206004820152600b60248201526a1393d517d0531313d5d15160aa1b604482015290519081900360640190fd5b8080156109ba5760005a9050600488815481106108b757fe5b906000526020600020906002020160010160149054906101000a900460ff16156108ed576108e888888888886121e3565b6108fa565b6108fa888888888861282f565b6109026106b7565b6000601036025a8361520801030190506d4946c0e9f43f4dee607b0ef1fa1c6001600160a01b031663079d229f3361a3db8461374a018161093f57fe5b046040518363ffffffff1660e01b815260040180836001600160a01b0316815260200182815260200192505050602060405180830381600087803b15801561098657600080fd5b505af115801561099a573d6000803e3d6000fd5b505050506040513d60208110156109b057600080fd5b50610a1292505050565b600487815481106109c757fe5b906000526020600020906002020160010160149054906101000a900460ff16156109fd576109f887878787876121e3565b610a0a565b610a0a878787878761282f565b610a126106b7565b50505050505050565b3360009081526001602052604090205460ff1680610a4357506000546001600160a01b031633145b610a82576040805162461bcd60e51b815260206004820152600b60248201526a1393d517d0531313d5d15160aa1b604482015290519081900360640190fd5b808015610bac5760005a9050600060048881548110610a9d57fe5b906000526020600020906002020160010160149054906101000a900460ff1615610ad257610acb8888612f00565b9050610adf565b610adc88886133e1565b90505b610aeb888288886136ad565b610af36106b7565b506000601036025a8361520801030190506d4946c0e9f43f4dee607b0ef1fa1c6001600160a01b031663079d229f3361a3db8461374a0181610b3157fe5b046040518363ffffffff1660e01b815260040180836001600160a01b0316815260200182815260200192505050602060405180830381600087803b158015610b7857600080fd5b505af1158015610b8c573d6000803e3d6000fd5b505050506040513d6020811015610ba257600080fd5b50610c0992505050565b600060048781548110610bbb57fe5b906000526020600020906002020160010160149054906101000a900460ff1615610bf057610be98787612f00565b9050610bfd565b610bfa87876133e1565b90505b610a0a878287876136ad565b505050505050565b3360009081526001602052604090205460ff1680610c3957506000546001600160a01b031633145b610c78576040805162461bcd60e51b815260206004820152600b60248201526a1393d517d0531313d5d15160aa1b604482015290519081900360640190fd5b6001600160a01b03811660009081526001602052604090205460ff1615610cba576001600160a01b0381166000908152600160205260409020805460ff191690555b50565b60608060006060886001600160a01b031663cc77828d6040518163ffffffff1660e01b815260040160006040518083038186803b158015610cfd57600080fd5b505afa158015610d11573d6000803e3d6000fd5b505050506040513d6000823e601f3d908101601f191682016040526020811015610d3a57600080fd5b8101908080516040519392919084600160201b821115610d5957600080fd5b908301906020820185811115610d6e57600080fd5b82518660208202830111600160201b82111715610d8a57600080fd5b82525081516020918201928201910280838360005b83811015610db7578181015183820152602001610d9f565b505050509050016040525050509050805167ffffffffffffffff81118015610dde57600080fd5b50604051908082528060200260200182016040528015610e08578160200160208202803683370190505b509350805167ffffffffffffffff81118015610e2357600080fd5b50604051908082528060200260200182016040528015610e4d578160200160208202803683370190505b50925060008715610f495760008a6001600160a01b03166390ad688b6040518163ffffffff1660e01b815260040160806040518083038186803b158015610e9357600080fd5b505afa158015610ea7573d6000803e3d6000fd5b505050506040513d6080811015610ebd57600080fd5b506040908101518151631122d04760e11b8152600481018d90526024810182905230604482015282519193506001600160a01b038e1692632245a08e92606480840193829003018186803b158015610f1457600080fd5b505afa158015610f28573d6000803e3d6000fd5b505050506040513d6040811015610f3e57600080fd5b50519150610f4c9050565b50875b6000610fce8b6001600160a01b03166318160ddd6040518163ffffffff1660e01b815260040160206040518083038186803b158015610f8a57600080fd5b505afa158015610f9e573d6000803e3d6000fd5b505050506040513d6020811015610fb457600080fd5b5051610fc884670de0b6b3a7640000613db1565b90613e13565b90506000935060005b83518110156112d957611082670de0b6b3a7640000610fc88e6001600160a01b031663f8b2cb4f88868151811061100a57fe5b60200260200101516040518263ffffffff1660e01b815260040180826001600160a01b0316815260200191505060206040518083038186803b15801561104f57600080fd5b505afa158015611063573d6000803e3d6000fd5b505050506040513d602081101561107957600080fd5b50518590613db1565b87828151811061108e57fe5b60200260200101818152505060008060008b8b858181106110ab57fe5b905060200201356001600160a01b03166001600160a01b0316630dfe16816040518163ffffffff1660e01b815260040160206040518083038186803b1580156110f357600080fd5b505afa158015611107573d6000803e3d6000fd5b505050506040513d602081101561111d57600080fd5b50516002549091506001600160a01b03808316911614156111d4578b8b8581811061114457fe5b905060200201356001600160a01b03166001600160a01b0316630902f1ac6040518163ffffffff1660e01b815260040160606040518083038186803b15801561118c57600080fd5b505afa1580156111a0573d6000803e3d6000fd5b505050506040513d60608110156111b657600080fd5b5080516020909101516001600160701b03908116945016915061126c565b8b8b858181106111e057fe5b905060200201356001600160a01b03166001600160a01b0316630902f1ac6040518163ffffffff1660e01b815260040160606040518083038186803b15801561122857600080fd5b505afa15801561123c573d6000803e3d6000fd5b505050506040513d606081101561125257600080fd5b5080516020909101516001600160701b0391821694501691505b61128a8a858151811061127b57fe5b60200260200101518484613e55565b89858151811061129657fe5b6020026020010181815250506112c88985815181106112b157fe5b602002602001015189613f2d90919063ffffffff16565b97505060019092019150610fd79050565b50505050955095509592505050565b6002546001600160a01b031681565b606060006060866001600160a01b031663cc77828d6040518163ffffffff1660e01b815260040160006040518083038186803b15801561133657600080fd5b505afa15801561134a573d6000803e3d6000fd5b505050506040513d6000823e601f3d908101601f19168201604052602081101561137357600080fd5b8101908080516040519392919084600160201b82111561139257600080fd5b9083019060208201858111156113a757600080fd5b82518660208202830111600160201b821117156113c357600080fd5b82525081516020918201928201910280838360005b838110156113f05781810151838201526020016113d8565b5050505090500160405250505090506060815167ffffffffffffffff8111801561141957600080fd5b5060405190808252806020026020018201604052801561145357816020015b611440614d78565b8152602001906001900390816114385790505b509050600080896001600160a01b03166318160ddd6040518163ffffffff1660e01b815260040160206040518083038186803b15801561149257600080fd5b505afa1580156114a6573d6000803e3d6000fd5b505050506040513d60208110156114bc57600080fd5b81019080805190602001909291905050509050600061158982610fc8670de0b6b3a76400006115838f6001600160a01b031663f8b2cb4f8b60008151811061150057fe5b60200260200101516040518263ffffffff1660e01b815260040180826001600160a01b0316815260200191505060206040518083038186803b15801561154557600080fd5b505afa158015611559573d6000803e3d6000fd5b505050506040513d602081101561156f57600080fd5b5051610fc888670de0b6b3a7640000613db1565b90613db1565b905060005b85518110156118b9576115c1670de0b6b3a7640000610fc88e6001600160a01b031663f8b2cb4f8a868151811061100a57fe5b8582815181106115cd57fe5b60209081029190910101515260008a8a838181106115e757fe5b905060200201356001600160a01b03166001600160a01b0316630dfe16816040518163ffffffff1660e01b815260040160206040518083038186803b15801561162f57600080fd5b505afa158015611643573d6000803e3d6000fd5b505050506040513d602081101561165957600080fd5b50516002549091506001600160a01b0380831691161415611748578a8a8381811061168057fe5b905060200201356001600160a01b03166001600160a01b0316630902f1ac6040518163ffffffff1660e01b815260040160606040518083038186803b1580156116c857600080fd5b505afa1580156116dc573d6000803e3d6000fd5b505050506040513d60608110156116f257600080fd5b50805160209091015187516001600160701b03928316929091169088908590811061171957fe5b602002602001015160600188858151811061173057fe5b60209081029190910101516040019190915252611818565b8a8a8381811061175457fe5b905060200201356001600160a01b03166001600160a01b0316630902f1ac6040518163ffffffff1660e01b815260040160606040518083038186803b15801561179c57600080fd5b505afa1580156117b0573d6000803e3d6000fd5b505050506040513d60608110156117c657600080fd5b50805160209091015187516001600160701b0392831692909116908890859081106117ed57fe5b602002602001015160400188858151811061180457fe5b602090810291909101015160600191909152525b61186886838151811061182757fe5b60200260200101516000015187848151811061183f57fe5b60200260200101516060015188858151811061185757fe5b602002602001015160400151613f87565b86838151811061187457fe5b602002602001015160200181815250506118ae86838151811061189357fe5b60200260200101516020015186613f2d90919063ffffffff16565b94505060010161158e565b505050825167ffffffffffffffff811180156118d457600080fd5b506040519080825280602002602001820160405280156118fe578160200160208202803683370190505b50945060005b835181101561197857611959670de0b6b3a7640000610fc861195285610fc8670de0b6b3a764000089888151811061193857fe5b602002602001015160200151613db190919063ffffffff16565b8c90613db1565b86828151811061196557fe5b6020908102919091010152600101611904565b5060006119bd670de0b6b3a7640000610fc861199685828e85613db1565b866000815181106119a357fe5b602002602001015160000151613db190919063ffffffff16565b9050611acd8a6001600160a01b031663f8b2cb4f866000815181106119de57fe5b60200260200101516040518263ffffffff1660e01b815260040180826001600160a01b0316815260200191505060206040518083038186803b158015611a2357600080fd5b505afa158015611a37573d6000803e3d6000fd5b505050506040513d6020811015611a4d57600080fd5b8101908080519060200190929190505050610fc8838d6001600160a01b03166318160ddd6040518163ffffffff1660e01b815260040160206040518083038186803b158015611a9b57600080fd5b505afa158015611aaf573d6000803e3d6000fd5b505050506040513d6020811015611ac557600080fd5b505190613db1565b94505050505094509492505050565b3360009081526001602052604090205460ff1680611b0457506000546001600160a01b031633145b611b43576040805162461bcd60e51b815260206004820152600b60248201526a1393d517d0531313d5d15160aa1b604482015290519081900360640190fd5b604080516080810182526001600160a01b039586168152938516602085019081529215159084019081529015156060840190815260048054600181018255600091909152935160029094027f8a35acfbc15ff81a39ae7d344fd709f28e8600b4aa8c65c6b64bfe7fe36bd19b810180549587166001600160a01b031996871617905592517f8a35acfbc15ff81a39ae7d344fd709f28e8600b4aa8c65c6b64bfe7fe36bd19c9093018054925191511515600160a81b0260ff60a81b19921515600160a01b0260ff60a01b19959097169390951692909217929092169390931716179055565b3360009081526001602052604090205460ff1680611c5057506000546001600160a01b031633145b611c8f576040805162461bcd60e51b815260206004820152600b60248201526a1393d517d0531313d5d15160aa1b604482015290519081900360640190fd5b6001600160a01b03811660009081526001602052604090205460ff16610cba576001600160a01b03166000908152600160208190526040909120805460ff19169091179055565b6000546001600160a01b031681565b60016020526000908152604090205460ff1681565b60048181548110611d0757fe5b6000918252602090912060029091020180546001909101546001600160a01b0391821692509081169060ff600160a01b8204811691600160a81b90041684565b3360009081526001602052604090205460ff1680611d6f57506000546001600160a01b031633145b611dae576040805162461bcd60e51b815260206004820152600b60248201526a1393d517d0531313d5d15160aa1b604482015290519081900360640190fd5b6000816001600160a01b03166370a08231306040518263ffffffff1660e01b815260040180826001600160a01b0316815260200191505060206040518083038186803b158015611dfd57600080fd5b505afa158015611e11573d6000803e3d6000fd5b505050506040513d6020811015611e2757600080fd5b50516040805163a9059cbb60e01b81523360048201526024810183905290519192506001600160a01b0384169163a9059cbb916044808201926020929091908290030181600087803b158015611e7c57600080fd5b505af1158015611e90573d6000803e3d6000fd5b505050506040513d6020811015611ea657600080fd5b50505050565b6d4946c0e9f43f4dee607b0ef1fa1c81565b3360009081526001602052604090205460ff1680611ee657506000546001600160a01b031633145b611f25576040805162461bcd60e51b815260206004820152600b60248201526a1393d517d0531313d5d15160aa1b604482015290519081900360640190fd5b8360048681548110611f3357fe5b906000526020600020906002020160000160006101000a8154816001600160a01b0302191690836001600160a01b031602179055508260048681548110611f7657fe5b906000526020600020906002020160010160006101000a8154816001600160a01b0302191690836001600160a01b031602179055508160048681548110611fb957fe5b906000526020600020906002020160010160146101000a81548160ff0219169083151502179055508060048681548110611fef57fe5b906000526020600020906002020160010160156101000a81548160ff0219169083151502179055505050505050565b3360009081526001602052604090205460ff168061204657506000546001600160a01b031633145b612085576040805162461bcd60e51b815260206004820152600b60248201526a1393d517d0531313d5d15160aa1b604482015290519081900360640190fd5b6001600160a01b0381166120ca5760405162461bcd60e51b8152600401808060200182810382526026815260200180614da16026913960400191505060405180910390fd5b600080546001600160a01b0319166001600160a01b0392909216919091179055565b3360009081526001602052604090205460ff168061211457506000546001600160a01b031633145b612153576040805162461bcd60e51b815260206004820152600b60248201526a1393d517d0531313d5d15160aa1b604482015290519081900360640190fd5b604051600090339047908381818185875af1925050503d8060008114612195576040519150601f19603f3d011682016040523d82523d6000602084013e61219a565b606091505b5050905080610cba576040805162461bcd60e51b815260206004820152601060248201526f2a3930b739b332b9103330b4b632b21760811b604482015290519081900360640190fd5b6000600486815481106121f257fe5b60009182526020822060029091020154600480546001600160a01b039092169350908890811061221e57fe5b906000526020600020906002020160010160009054906101000a90046001600160a01b031690506000816001600160a01b0316630dfe16816040518163ffffffff1660e01b815260040160206040518083038186803b15801561228057600080fd5b505afa158015612294573d6000803e3d6000fd5b505050506040513d60208110156122aa57600080fd5b5051600254909150600090819081906001600160a01b038086169116141561234d57846001600160a01b0316630902f1ac6040518163ffffffff1660e01b815260040160606040518083038186803b15801561230557600080fd5b505afa158015612319573d6000803e3d6000fd5b505050506040513d606081101561232f57600080fd5b5080516020909101516001600160701b0390811694501691506123ca565b846001600160a01b0316630902f1ac6040518163ffffffff1660e01b815260040160606040518083038186803b15801561238657600080fd5b505afa15801561239a573d6000803e3d6000fd5b505050506040513d60608110156123b057600080fd5b5080516020909101516001600160701b0391821694501691505b600060048c815481106123d957fe5b906000526020600020906002020160010160159054906101000a900460ff16156124f1576000876001600160a01b03166390ad688b6040518163ffffffff1660e01b815260040160806040518083038186803b15801561243857600080fd5b505afa15801561244c573d6000803e3d6000fd5b505050506040513d608081101561246257600080fd5b506020015160408051631122d04760e11b8152600481018f90526024810183905230604482015281519293506001600160a01b038b1692632245a08e92606480840193919291829003018186803b1580156124bc57600080fd5b505afa1580156124d0573d6000803e3d6000fd5b505050506040513d60408110156124e657600080fd5b505191506124f49050565b50895b6124ff818585613e55565b915089821015612542576040805162461bcd60e51b81526020600482015260096024820152681b1a5b5a5d081bdd5d60ba1b604482015290519081900360640190fd5b600260009054906101000a90046001600160a01b03166001600160a01b031663d0e30db0346040518263ffffffff1660e01b81526004016000604051808303818588803b15801561259257600080fd5b505af11580156125a6573d6000803e3d6000fd5b50505050506125b7878c8b8b61405f565b866001600160a01b031663a9059cbb87836040518363ffffffff1660e01b815260040180836001600160a01b0316815260200182815260200192505050602060405180830381600087803b15801561260e57600080fd5b505af1158015612622573d6000803e3d6000fd5b505050506040513d602081101561263857600080fd5b50506002546001600160a01b038681169116141561273b57604080516000808252602082019283905263022c0d9f60e01b835260248201858152604483018290523060648401819052608060848501908152845160a486018190526001600160a01b038d169663022c0d9f968a969590939092909160c48501918083838a5b838110156126cf5781810151838201526020016126b7565b50505050905090810190601f1680156126fc5780820380516001836020036101000a031916815260200191505b5095505050505050600060405180830381600087803b15801561271e57600080fd5b505af1158015612732573d6000803e3d6000fd5b50505050612821565b604080516000808252602082019283905263022c0d9f60e01b835260248201818152604483018690523060648401819052608060848501908152845160a486018190526001600160a01b038d169663022c0d9f968a9590939092909160c48501918083838b5b838110156127b95781810151838201526020016127a1565b50505050905090810190601f1680156127e65780820380516001836020036101000a031916815260200191505b5095505050505050600060405180830381600087803b15801561280857600080fd5b505af115801561281c573d6000803e3d6000fd5b505050505b505050505050505050505050565b60006004868154811061283e57fe5b60009182526020822060029091020154600480546001600160a01b039092169350908890811061286a57fe5b60009182526020822060016002909202010154600480546001600160a01b03909216935082918a90811061289a57fe5b906000526020600020906002020160010160159054906101000a900460ff16156129b2576000846001600160a01b03166390ad688b6040518163ffffffff1660e01b815260040160806040518083038186803b1580156128f957600080fd5b505afa15801561290d573d6000803e3d6000fd5b505050506040513d608081101561292357600080fd5b506020015160408051631122d04760e11b8152600481018c90526024810183905230604482015281519293506001600160a01b03881692632245a08e92606480840193919291829003018186803b15801561297d57600080fd5b505afa158015612991573d6000803e3d6000fd5b505050506040513d60408110156129a757600080fd5b505191506129b59050565b50865b826001600160a01b031663ba9530a6846001600160a01b031663f8b2cb4f876040518263ffffffff1660e01b815260040180826001600160a01b0316815260200191505060206040518083038186803b158015612a1157600080fd5b505afa158015612a25573d6000803e3d6000fd5b505050506040513d6020811015612a3b57600080fd5b505160408051634a46c67360e11b81526001600160a01b03898116600483015291519188169163948d8ce691602480820192602092909190829003018186803b158015612a8757600080fd5b505afa158015612a9b573d6000803e3d6000fd5b505050506040513d6020811015612ab157600080fd5b50516002546040805163f8b2cb4f60e01b81526001600160a01b03928316600482015290519189169163f8b2cb4f91602480820192602092909190829003018186803b158015612b0057600080fd5b505afa158015612b14573d6000803e3d6000fd5b505050506040513d6020811015612b2a57600080fd5b505160025460408051634a46c67360e11b81526001600160a01b0392831660048201529051918a169163948d8ce691602480820192602092909190829003018186803b158015612b7957600080fd5b505afa158015612b8d573d6000803e3d6000fd5b505050506040513d6020811015612ba357600080fd5b505160408051631a995bed60e31b8152905188916001600160a01b038c169163d4cadf6891600480820192602092909190829003018186803b158015612be857600080fd5b505afa158015612bfc573d6000803e3d6000fd5b505050506040513d6020811015612c1257600080fd5b5051604080516001600160e01b031960e08a901b1681526004810197909752602487019590955260448601939093526064850191909152608484015260a48301525160c4808301926020929190829003018186803b158015612c7357600080fd5b505afa158015612c87573d6000803e3d6000fd5b505050506040513d6020811015612c9d57600080fd5b5051915086821015612ce2576040805162461bcd60e51b81526020600482015260096024820152681b1a5b5a5d081bdd5d60ba1b604482015290519081900360640190fd5b600260009054906101000a90046001600160a01b03166001600160a01b031663d0e30db0346040518263ffffffff1660e01b81526004016000604051808303818588803b158015612d3257600080fd5b505af1158015612d46573d6000803e3d6000fd5b5050505050612d578489888861405f565b60408051636eb1769f60e11b81523060048201526001600160a01b0385811660248301529151839287169163dd62ed3e916044808301926020929190829003018186803b158015612da757600080fd5b505afa158015612dbb573d6000803e3d6000fd5b505050506040513d6020811015612dd157600080fd5b50511015612e5f57836001600160a01b031663095ea7b3846000196040518363ffffffff1660e01b815260040180836001600160a01b0316815260200182815260200192505050602060405180830381600087803b158015612e3257600080fd5b505af1158015612e46573d6000803e3d6000fd5b505050506040513d6020811015612e5c57600080fd5b50505b60025460408051638201aa3f60e01b81526001600160a01b038781166004830152602482018590529283166044820152606481018a90526000196084820152815192861692638201aa3f9260a4808401939192918290030181600087803b158015612ec957600080fd5b505af1158015612edd573d6000803e3d6000fd5b505050506040513d6040811015612ef357600080fd5b5050505050505050505050565b60008060048481548110612f1057fe5b906000526020600020906002020160010160009054906101000a90046001600160a01b031690506000816001600160a01b0316630dfe16816040518163ffffffff1660e01b815260040160206040518083038186803b158015612f7257600080fd5b505afa158015612f86573d6000803e3d6000fd5b505050506040513d6020811015612f9c57600080fd5b505160025490915060009081906001600160a01b038085169116141561303d57836001600160a01b0316630902f1ac6040518163ffffffff1660e01b815260040160606040518083038186803b158015612ff557600080fd5b505afa158015613009573d6000803e3d6000fd5b505050506040513d606081101561301f57600080fd5b5080516020909101516001600160701b0390811693501690506130ba565b836001600160a01b0316630902f1ac6040518163ffffffff1660e01b815260040160606040518083038186803b15801561307657600080fd5b505afa15801561308a573d6000803e3d6000fd5b505050506040513d60608110156130a057600080fd5b5080516020909101516001600160701b0391821693501690505b6130c5348284613e55565b945085851015613108576040805162461bcd60e51b81526020600482015260096024820152681b1a5b5a5d081bdd5d60ba1b604482015290519081900360640190fd5b600260009054906101000a90046001600160a01b03166001600160a01b031663d0e30db0346040518263ffffffff1660e01b81526004016000604051808303818588803b15801561315857600080fd5b505af115801561316c573d6000803e3d6000fd5b50506002546040805163a9059cbb60e01b81526001600160a01b038a81166004830152346024830152915191909216945063a9059cbb9350604480830193506020928290030181600087803b1580156131c457600080fd5b505af11580156131d8573d6000803e3d6000fd5b505050506040513d60208110156131ee57600080fd5b50506002546001600160a01b03848116911614156132f057604080516000808252602082019283905263022c0d9f60e01b835260248201818152604483018990523060648401819052608060848501908152845160a486018190526001600160a01b038b169663022c0d9f968d9590939092909160c48501918083838b5b8381101561328457818101518382015260200161326c565b50505050905090810190601f1680156132b15780820380516001836020036101000a031916815260200191505b5095505050505050600060405180830381600087803b1580156132d357600080fd5b505af11580156132e7573d6000803e3d6000fd5b505050506133d7565b604080516000808252602082019283905263022c0d9f60e01b835260248201888152604483018290523060648401819052608060848501908152845160a486018190526001600160a01b038b169663022c0d9f968d969590939092909160c48501918083838a5b8381101561336f578181015183820152602001613357565b50505050905090810190601f16801561339c5780820380516001836020036101000a031916815260200191505b5095505050505050600060405180830381600087803b1580156133be57600080fd5b505af11580156133d2573d6000803e3d6000fd5b505050505b5050505092915050565b600080600484815481106133f157fe5b60009182526020822060029091020154600480546001600160a01b039092169350908690811061341d57fe5b60009182526020822060029182020160010154905460408051630d0e30db60e41b815290516001600160a01b039384169550929091169263d0e30db0923492600480820193929182900301818588803b15801561347957600080fd5b505af115801561348d573d6000803e3d6000fd5b505060025460408051636eb1769f60e11b81523060048201526001600160a01b038781166024830152915134965091909216935063dd62ed3e92506044808301926020929190829003018186803b1580156134e757600080fd5b505afa1580156134fb573d6000803e3d6000fd5b505050506040513d602081101561351157600080fd5b5051101561359d576002546040805163095ea7b360e01b81526001600160a01b03848116600483015260001960248301529151919092169163095ea7b39160448083019260209291908290030181600087803b15801561357057600080fd5b505af1158015613584573d6000803e3d6000fd5b505050506040513d602081101561359a57600080fd5b50505b60025460408051638201aa3f60e01b81526001600160a01b0392831660048201523460248201528483166044820152606481018790526000196084820152815192841692638201aa3f9260a4808401939192918290030181600087803b15801561360657600080fd5b505af115801561361a573d6000803e3d6000fd5b505050506040513d604081101561363057600080fd5b5050604080516370a0823160e01b815230600482015290516001600160a01b038416916370a08231916024808301926020929190829003018186803b15801561367857600080fd5b505afa15801561368c573d6000803e3d6000fd5b505050506040513d60208110156136a257600080fd5b505195945050505050565b6000600485815481106136bc57fe5b600091825260208220600290910201546040805163cc77828d60e01b815290516001600160a01b039092169350606092849263cc77828d926004808201939291829003018186803b15801561371057600080fd5b505afa158015613724573d6000803e3d6000fd5b505050506040513d6000823e601f3d908101601f19168201604052602081101561374d57600080fd5b8101908080516040519392919084600160201b82111561376c57600080fd5b90830190602082018581111561378157600080fd5b82518660208202830111600160201b8211171561379d57600080fd5b82525081516020918201928201910280838360005b838110156137ca5781810151838201526020016137b2565b50505050905001604052505050905060008151905060608061381a858960048c815481106137f457fe5b906000526020600020906002020160010160159054906101000a900460ff168a8a610cbd565b509150915087856001600160a01b031663dd62ed3e30886040518363ffffffff1660e01b815260040180836001600160a01b03168152602001826001600160a01b031681526020019250505060206040518083038186803b15801561387e57600080fd5b505afa158015613892573d6000803e3d6000fd5b505050506040513d60208110156138a857600080fd5b5051101561392e576040805163095ea7b360e01b81526001600160a01b038716600482018190526000196024830152915163095ea7b3916044808201926020929091908290030181600087803b15801561390157600080fd5b505af1158015613915573d6000803e3d6000fd5b505050506040513d602081101561392b57600080fd5b50505b6040805163b02f0b7360e01b8152600481018a8152602482019283528451604483015284516001600160a01b0389169363b02f0b73938d938893909291606401906020808601910280838360005b8381101561399457818101518382015260200161397c565b505050509050019350505050600060405180830381600087803b1580156139ba57600080fd5b505af11580156139ce573d6000803e3d6000fd5b5050505060005b83811015613da557613a3c8888838181106139ec57fe5b905060200201356001600160a01b0316848381518110613a0857fe5b6020026020010151878481518110613a1c57fe5b60200260200101516001600160a01b03166144cb9092919063ffffffff16565b6000888883818110613a4a57fe5b905060200201356001600160a01b03166001600160a01b0316630dfe16816040518163ffffffff1660e01b815260040160206040518083038186803b158015613a9257600080fd5b505afa158015613aa6573d6000803e3d6000fd5b505050506040513d6020811015613abc57600080fd5b50518651909150869083908110613acf57fe5b60200260200101516001600160a01b0316816001600160a01b03161415613c4857888883818110613afc57fe5b905060200201356001600160a01b03166001600160a01b031663022c0d9f6000858581518110613b2857fe5b602002602001015130600067ffffffffffffffff81118015613b4957600080fd5b506040519080825280601f01601f191660200182016040528015613b74576020820181803683370190505b506040518563ffffffff1660e01b815260040180858152602001848152602001836001600160a01b0316815260200180602001828103825283818151815260200191508051906020019080838360005b83811015613bdc578181015183820152602001613bc4565b50505050905090810190601f168015613c095780820380516001836020036101000a031916815260200191505b5095505050505050600060405180830381600087803b158015613c2b57600080fd5b505af1158015613c3f573d6000803e3d6000fd5b50505050613d9c565b888883818110613c5457fe5b905060200201356001600160a01b03166001600160a01b031663022c0d9f848481518110613c7e57fe5b6020026020010151600030600067ffffffffffffffff81118015613ca157600080fd5b506040519080825280601f01601f191660200182016040528015613ccc576020820181803683370190505b506040518563ffffffff1660e01b815260040180858152602001848152602001836001600160a01b0316815260200180602001828103825283818151815260200191508051906020019080838360005b83811015613d34578181015183820152602001613d1c565b50505050905090810190601f168015613d615780820380516001836020036101000a031916815260200191505b5095505050505050600060405180830381600087803b158015613d8357600080fd5b505af1158015613d97573d6000803e3d6000fd5b505050505b506001016139d5565b50505050505050505050565b600082613dc057506000613e0d565b82820282848281613dcd57fe5b0414613e0a5760405162461bcd60e51b8152600401808060200182810382526021815260200180614e1b6021913960400191505060405180910390fd5b90505b92915050565b6000613e0a83836040518060400160405280601a81526020017f536166654d6174683a206469766973696f6e206279207a65726f00000000000081525061451d565b6000808411613e955760405162461bcd60e51b815260040180806020018281038252602b815260200180614e66602b913960400191505060405180910390fd5b600083118015613ea55750600082115b613ee05760405162461bcd60e51b8152600401808060200182810382526028815260200180614df36028913960400191505060405180910390fd5b6000613eee856103e56145bf565b90506000613efc82856145bf565b90506000613f1683613f10886103e86145bf565b90614622565b9050808281613f2157fe5b04979650505050505050565b600082820183811015613e0a576040805162461bcd60e51b815260206004820152601b60248201527f536166654d6174683a206164646974696f6e206f766572666c6f770000000000604482015290519081900360640190fd5b6000808411613fc75760405162461bcd60e51b815260040180806020018281038252602c815260200180614dc7602c913960400191505060405180910390fd5b600083118015613fd75750600082115b6140125760405162461bcd60e51b8152600401808060200182810382526028815260200180614df36028913960400191505060405180910390fd5b600061402a6103e861402486886145bf565b906145bf565b9050600061403e6103e56140248689614671565b9050614055600182848161404e57fe5b0490614622565b9695505050505050565b60006140a8600a6140a2876001600160a01b03166318160ddd6040518163ffffffff1660e01b815260040160206040518083038186803b15801561154557600080fd5b90613f2d565b90506060856001600160a01b031663cc77828d6040518163ffffffff1660e01b815260040160006040518083038186803b1580156140e557600080fd5b505afa1580156140f9573d6000803e3d6000fd5b505050506040513d6000823e601f3d908101601f19168201604052602081101561412257600080fd5b8101908080516040519392919084600160201b82111561414157600080fd5b90830190602082018581111561415657600080fd5b82518660208202830111600160201b8211171561417257600080fd5b82525081516020918201928201910280838360005b8381101561419f578181015183820152602001614187565b50505050905001604052505050905060008151905060608167ffffffffffffffff811180156141cd57600080fd5b506040519080825280602002602001820160405280156141f7578160200160208202803683370190505b5090506000805b8381101561441b576000806142438c88858151811061421957fe5b60200260200101518c8c8781811061422d57fe5b905060200201356001600160a01b03168b6146c1565b915091506142788a8a8581811061425657fe5b6002546001600160a01b039081169360209092029190910135169050836144cb565b61429d8a8a8581811061428757fe5b905060200201356001600160a01b0316836148f1565b818584815181106142aa57fe5b60209081029190910101526142bf8482613f2d565b93508483815181106142cd57fe5b60200260200101518784815181106142e157fe5b60200260200101516001600160a01b031663dd62ed3e308f6040518363ffffffff1660e01b815260040180836001600160a01b03168152602001826001600160a01b031681526020019250505060206040518083038186803b15801561434657600080fd5b505afa15801561435a573d6000803e3d6000fd5b505050506040513d602081101561437057600080fd5b505110156144115786838151811061438457fe5b60200260200101516001600160a01b031663095ea7b38d6000196040518363ffffffff1660e01b815260040180836001600160a01b0316815260200182815260200192505050602060405180830381600087803b1580156143e457600080fd5b505af11580156143f8573d6000803e3d6000fd5b505050506040513d602081101561440e57600080fd5b50505b50506001016141fe565b50604080516313da703560e21b8152600481018a8152602482019283528451604483015284516001600160a01b038d1693634f69c0d4938d938893909291606401906020808601910280838360005b8381101561448257818101518382015260200161446a565b505050509050019350505050600060405180830381600087803b1580156144a857600080fd5b505af11580156144bc573d6000803e3d6000fd5b50505050505050505050505050565b604080516001600160a01b038416602482015260448082018490528251808303909101815260649091019091526020810180516001600160e01b031663a9059cbb60e01b179052610831908490614b3d565b600081836145a95760405162461bcd60e51b81526004018080602001828103825283818151815260200191508051906020019080838360005b8381101561456e578181015183820152602001614556565b50505050905090810190601f16801561459b5780820380516001836020036101000a031916815260200191505b509250505060405180910390fd5b5060008385816145b557fe5b0495945050505050565b60008115806145da575050808202828282816145d757fe5b04145b613e0d576040805162461bcd60e51b815260206004820152601460248201527364732d6d6174682d6d756c2d6f766572666c6f7760601b604482015290519081900360640190fd5b80820182811015613e0d576040805162461bcd60e51b815260206004820152601460248201527364732d6d6174682d6164642d6f766572666c6f7760601b604482015290519081900360640190fd5b80820382811115613e0d576040805162461bcd60e51b815260206004820152601560248201527464732d6d6174682d7375622d756e646572666c6f7760581b604482015290519081900360640190fd5b6000806000846001600160a01b0316630dfe16816040518163ffffffff1660e01b815260040160206040518083038186803b1580156146ff57600080fd5b505afa158015614713573d6000803e3d6000fd5b505050506040513d602081101561472957600080fd5b505160025490915060009081906001600160a01b03808516911614156147ca57866001600160a01b0316630902f1ac6040518163ffffffff1660e01b815260040160606040518083038186803b15801561478257600080fd5b505afa158015614796573d6000803e3d6000fd5b505050506040513d60608110156147ac57600080fd5b5080516020909101516001600160701b039182169350169050614847565b866001600160a01b0316630902f1ac6040518163ffffffff1660e01b815260040160606040518083038186803b15801561480357600080fd5b505afa158015614817573d6000803e3d6000fd5b505050506040513d606081101561482d57600080fd5b5080516020909101516001600160701b0390811693501690505b6148d6670de0b6b3a7640000610fc88b6001600160a01b031663f8b2cb4f8c6040518263ffffffff1660e01b815260040180826001600160a01b0316815260200191505060206040518083038186803b1580156148a357600080fd5b505afa1580156148b7573d6000803e3d6000fd5b505050506040513d60208110156148cd57600080fd5b50518990613db1565b94506148e3858383613f87565b935050505094509492505050565b6000826001600160a01b0316630dfe16816040518163ffffffff1660e01b815260040160206040518083038186803b15801561492c57600080fd5b505afa158015614940573d6000803e3d6000fd5b505050506040513d602081101561495657600080fd5b50516002549091506001600160a01b0380831691161415614a5b57604080516000808252602082019283905263022c0d9f60e01b835260248201818152604483018690523060648401819052608060848501908152845160a486018190526001600160a01b038a169663022c0d9f968a9590939092909160c48501918083838b5b838110156149ef5781810151838201526020016149d7565b50505050905090810190601f168015614a1c5780820380516001836020036101000a031916815260200191505b5095505050505050600060405180830381600087803b158015614a3e57600080fd5b505af1158015614a52573d6000803e3d6000fd5b50505050610831565b604080516000808252602082019283905263022c0d9f60e01b835260248201858152604483018290523060648401819052608060848501908152845160a486018190526001600160a01b038a169663022c0d9f968a969590939092909160c48501918083838a5b83811015614ada578181015183820152602001614ac2565b50505050905090810190601f168015614b075780820380516001836020036101000a031916815260200191505b5095505050505050600060405180830381600087803b158015614b2957600080fd5b505af1158015610a12573d6000803e3d6000fd5b6060614b92826040518060400160405280602081526020017f5361666545524332303a206c6f772d6c6576656c2063616c6c206661696c6564815250856001600160a01b0316614bee9092919063ffffffff16565b80519091501561083157808060200190516020811015614bb157600080fd5b50516108315760405162461bcd60e51b815260040180806020018281038252602a815260200180614e3c602a913960400191505060405180910390fd5b6060614bfd8484600085614c05565b949350505050565b6060614c1085614d72565b614c61576040805162461bcd60e51b815260206004820152601d60248201527f416464726573733a2063616c6c20746f206e6f6e2d636f6e7472616374000000604482015290519081900360640190fd5b60006060866001600160a01b031685876040518082805190602001908083835b60208310614ca05780518252601f199092019160209182019101614c81565b6001836020036101000a03801982511681845116808217855250505050505090500191505060006040518083038185875af1925050503d8060008114614d02576040519150601f19603f3d011682016040523d82523d6000602084013e614d07565b606091505b50915091508115614d1b579150614bfd9050565b805115614d2b5780518082602001fd5b60405162461bcd60e51b815260206004820181815286516024840152865187939192839260440191908501908083836000831561456e578181015183820152602001614556565b3b151590565b604051806080016040528060008152602001600081526020016000815260200160008152509056fe4f776e61626c653a206e6577206f776e657220697320746865207a65726f2061646472657373556e697377617056324c6962726172793a20494e53554646494349454e545f4f55545055545f414d4f554e54556e697377617056324c6962726172793a20494e53554646494349454e545f4c4951554944495459536166654d6174683a206d756c7469706c69636174696f6e206f766572666c6f775361666545524332303a204552433230206f7065726174696f6e20646964206e6f742073756363656564556e697377617056324c6962726172793a20494e53554646494349454e545f494e5055545f414d4f554e54a2646970667358221220ae4b29454b6126bd6ac30c1cc599f8a22358878992df79b6bdddf19b576a5e6464736f6c634300060c0033"}}