{
  "opcodeHash": "0x425ecfc07b31348c146e8b2fd44813e4349b52aa44f0d162ae72ed50050fa348",
  "metalessHash": "0x72aa2556bc35019808f0c017a6c171eec3f1be5ed90e5a0c1cfe37bda93909a0",
  "runtimeHash": "0x216dda173cbf86163259eddc6a8e3c7d2224e67c00bab70f25f3f59dab05b912",
  "encodedMetadata": [
    {
      "ipfs": "/ipfs/QmVsXKgdRN144yqCqzDaA6CmTbZgkNt6KRdXuCQMaovfze",
      "solc": "0.8.0"
    }
  ],
  "abi": [
    {
      "inputs": [],
      "stateMutability": "nonpayable",
      "type": "constructor"
    },
    {
      "anonymous": false,
      "inputs": [
        {
          "indexed": true,
          "internalType": "address",
          "name": "owner",
          "type": "address"
        },
        {
          "indexed": true,
          "internalType": "address",
          "name": "approved",
          "type": "address"
        },
        {
          "indexed": true,
          "internalType": "uint256",
          "name": "tokenId",
          "type": "uint256"
        }
      ],
      "name": "Approval",
      "type": "event"
    },
    {
      "anonymous": false,
      "inputs": [
        {
          "indexed": true,
          "internalType": "address",
          "name": "owner",
          "type": "address"
        },
        {
          "indexed": true,
          "internalType": "address",
          "name": "operator",
          "type": "address"
        },
        {
          "indexed": false,
          "internalType": "bool",
          "name": "approved",
          "type": "bool"
        }
      ],
      "name": "ApprovalForAll",
      "type": "event"
    },
    {
      "anonymous": false,
      "inputs": [
        {
          "indexed": true,
          "internalType": "address",
          "name": "previousOwner",
          "type": "address"
        },
        {
          "indexed": true,
          "internalType": "address",
          "name": "newOwner",
          "type": "address"
        }
      ],
      "name": "OwnershipTransferred",
      "type": "event"
    },
    {
      "anonymous": false,
      "inputs": [
        {
          "indexed": true,
          "internalType": "address",
          "name": "from",
          "type": "address"
        },
        {
          "indexed": true,
          "internalType": "address",
          "name": "to",
          "type": "address"
        },
        {
          "indexed": true,
          "internalType": "uint256",
          "name": "tokenId",
          "type": "uint256"
        }
      ],
      "name": "Transfer",
      "type": "event"
    },
    {
      "inputs": [
        {
          "internalType": "address",
          "name": "to",
          "type": "address"
        },
        {
          "internalType": "uint256",
          "name": "tokenId",
          "type": "uint256"
        }
      ],
      "name": "approve",
      "outputs": [],
      "stateMutability": "nonpayable",
      "type": "function"
    },
    {
      "inputs": [
        {
          "internalType": "address",
          "name": "owner",
          "type": "address"
        }
      ],
      "name": "balanceOf",
      "outputs": [
        {
          "internalType": "uint256",
          "name": "",
          "type": "uint256"
        }
      ],
      "stateMutability": "view",
      "type": "function"
    },
    {
      "inputs": [],
      "name": "claim",
      "outputs": [],
      "stateMutability": "nonpayable",
      "type": "function"
    },
    {
      "inputs": [
        {
          "internalType": "uint256",
          "name": "tokenId",
          "type": "uint256"
        }
      ],
      "name": "getApproved",
      "outputs": [
        {
          "internalType": "address",
          "name": "",
          "type": "address"
        }
      ],
      "stateMutability": "view",
      "type": "function"
    },
    {
      "inputs": [
        {
          "internalType": "uint256",
          "name": "tokenId",
          "type": "uint256"
        }
      ],
      "name": "getCharisma",
      "outputs": [
        {
          "internalType": "string",
          "name": "",
          "type": "string"
        }
      ],
      "stateMutability": "view",
      "type": "function"
    },
    {
      "inputs": [
        {
          "internalType": "uint256",
          "name": "tokenId",
          "type": "uint256"
        }
      ],
      "name": "getConstitution",
      "outputs": [
        {
          "internalType": "string",
          "name": "",
          "type": "string"
        }
      ],
      "stateMutability": "view",
      "type": "function"
    },
    {
      "inputs": [
        {
          "internalType": "uint256",
          "name": "tokenId",
          "type": "uint256"
        }
      ],
      "name": "getDexterity",
      "outputs": [
        {
          "internalType": "string",
          "name": "",
          "type": "string"
        }
      ],
      "stateMutability": "view",
      "type": "function"
    },
    {
      "inputs": [
        {
          "internalType": "uint256",
          "name": "tokenId",
          "type": "uint256"
        }
      ],
      "name": "getHealth",
      "outputs": [
        {
          "internalType": "string",
          "name": "",
          "type": "string"
        }
      ],
      "stateMutability": "view",
      "type": "function"
    },
    {
      "inputs": [
        {
          "internalType": "uint256",
          "name": "tokenId",
          "type": "uint256"
        }
      ],
      "name": "getIntelligence",
      "outputs": [
        {
          "internalType": "string",
          "name": "",
          "type": "string"
        }
      ],
      "stateMutability": "view",
      "type": "function"
    },
    {
      "inputs": [
        {
          "internalType": "uint256",
          "name": "tokenId",
          "type": "uint256"
        }
      ],
      "name": "getMana",
      "outputs": [
        {
          "internalType": "string",
          "name": "",
          "type": "string"
        }
      ],
      "stateMutability": "view",
      "type": "function"
    },
    {
      "inputs": [
        {
          "internalType": "uint256",
          "name": "tokenId",
          "type": "uint256"
        }
      ],
      "name": "getStrength",
      "outputs": [
        {
          "internalType": "string",
          "name": "",
          "type": "string"
        }
      ],
      "stateMutability": "view",
      "type": "function"
    },
    {
      "inputs": [
        {
          "internalType": "uint256",
          "name": "tokenId",
          "type": "uint256"
        }
      ],
      "name": "getWisdom",
      "outputs": [
        {
          "internalType": "string",
          "name": "",
          "type": "string"
        }
      ],
      "stateMutability": "view",
      "type": "function"
    },
    {
      "inputs": [
        {
          "internalType": "address",
          "name": "owner",
          "type": "address"
        },
        {
          "internalType": "address",
          "name": "operator",
          "type": "address"
        }
      ],
      "name": "isApprovedForAll",
      "outputs": [
        {
          "internalType": "bool",
          "name": "",
          "type": "bool"
        }
      ],
      "stateMutability": "view",
      "type": "function"
    },
    {
      "inputs": [],
      "name": "name",
      "outputs": [
        {
          "internalType": "string",
          "name": "",
          "type": "string"
        }
      ],
      "stateMutability": "view",
      "type": "function"
    },
    {
      "inputs": [],
      "name": "owner",
      "outputs": [
        {
          "internalType": "address",
          "name": "",
          "type": "address"
        }
      ],
      "stateMutability": "view",
      "type": "function"
    },
    {
      "inputs": [],
      "name": "ownerClaim",
      "outputs": [],
      "stateMutability": "nonpayable",
      "type": "function"
    },
    {
      "inputs": [
        {
          "internalType": "uint256",
          "name": "tokenId",
          "type": "uint256"
        }
      ],
      "name": "ownerOf",
      "outputs": [
        {
          "internalType": "address",
          "name": "",
          "type": "address"
        }
      ],
      "stateMutability": "view",
      "type": "function"
    },
    {
      "inputs": [],
      "name": "renounceOwnership",
      "outputs": [],
      "stateMutability": "nonpayable",
      "type": "function"
    },
    {
      "inputs": [
        {
          "internalType": "address",
          "name": "from",
          "type": "address"
        },
        {
          "internalType": "address",
          "name": "to",
          "type": "address"
        },
        {
          "internalType": "uint256",
          "name": "tokenId",
          "type": "uint256"
        }
      ],
      "name": "safeTransferFrom",
      "outputs": [],
      "stateMutability": "nonpayable",
      "type": "function"
    },
    {
      "inputs": [
        {
          "internalType": "address",
          "name": "from",
          "type": "address"
        },
        {
          "internalType": "address",
          "name": "to",
          "type": "address"
        },
        {
          "internalType": "uint256",
          "name": "tokenId",
          "type": "uint256"
        },
        {
          "internalType": "bytes",
          "name": "_data",
          "type": "bytes"
        }
      ],
      "name": "safeTransferFrom",
      "outputs": [],
      "stateMutability": "nonpayable",
      "type": "function"
    },
    {
      "inputs": [
        {
          "internalType": "address",
          "name": "operator",
          "type": "address"
        },
        {
          "internalType": "bool",
          "name": "approved",
          "type": "bool"
        }
      ],
      "name": "setApprovalForAll",
      "outputs": [],
      "stateMutability": "nonpayable",
      "type": "function"
    },
    {
      "inputs": [
        {
          "internalType": "bytes4",
          "name": "interfaceId",
          "type": "bytes4"
        }
      ],
      "name": "supportsInterface",
      "outputs": [
        {
          "internalType": "bool",
          "name": "",
          "type": "bool"
        }
      ],
      "stateMutability": "view",
      "type": "function"
    },
    {
      "inputs": [],
      "name": "symbol",
      "outputs": [
        {
          "internalType": "string",
          "name": "",
          "type": "string"
        }
      ],
      "stateMutability": "view",
      "type": "function"
    },
    {
      "inputs": [
        {
          "internalType": "uint256",
          "name": "index",
          "type": "uint256"
        }
      ],
      "name": "tokenByIndex",
      "outputs": [
        {
          "internalType": "uint256",
          "name": "",
          "type": "uint256"
        }
      ],
      "stateMutability": "view",
      "type": "function"
    },
    {
      "inputs": [
        {
          "internalType": "address",
          "name": "owner",
          "type": "address"
        },
        {
          "internalType": "uint256",
          "name": "index",
          "type": "uint256"
        }
      ],
      "name": "tokenOfOwnerByIndex",
      "outputs": [
        {
          "internalType": "uint256",
          "name": "",
          "type": "uint256"
        }
      ],
      "stateMutability": "view",
      "type": "function"
    },
    {
      "inputs": [
        {
          "internalType": "uint256",
          "name": "tokenId",
          "type": "uint256"
        }
      ],
      "name": "tokenURI",
      "outputs": [
        {
          "internalType": "string",
          "name": "",
          "type": "string"
        }
      ],
      "stateMutability": "view",
      "type": "function"
    },
    {
      "inputs": [],
      "name": "totalSupply",
      "outputs": [
        {
          "internalType": "uint256",
          "name": "",
          "type": "uint256"
        }
      ],
      "stateMutability": "view",
      "type": "function"
    },
    {
      "inputs": [
        {
          "internalType": "address",
          "name": "from",
          "type": "address"
        },
        {
          "internalType": "address",
          "name": "to",
          "type": "address"
        },
        {
          "internalType": "uint256",
          "name": "tokenId",
          "type": "uint256"
        }
      ],
      "name": "transferFrom",
      "outputs": [],
      "stateMutability": "nonpayable",
      "type": "function"
    },
    {
      "inputs": [
        {
          "internalType": "address",
          "name": "newOwner",
          "type": "address"
        }
      ],
      "name": "transferOwnership",
      "outputs": [],
      "stateMutability": "nonpayable",
      "type": "function"
    }
  ],
  "bytecode": {
    "object": "600b6103e08181526a04865616c7468202b3130360ac1b6104005260809081526104208281526a04865616c7468202b3138360ac1b6104405260a0526104608281526a04865616c7468202b3235360ac1b6104805260c0526104a08281526a04865616c7468202b3334360ac1b6104c05260e0526104e08281526a04865616c7468202b3430360ac1b61050052610100526105208281526a04865616c7468202b3431360ac1b61054052610120526105608281526a04865616c7468202b3438360ac1b61058052610140526105a08281526a04865616c7468202b3530360ac1b6105c052610160526105e08281526a04865616c7468202b3532360ac1b61060052610180526106208281526a04865616c7468202b3632360ac1b610640526101a0526106608281526a04865616c7468202b3732360ac1b610680526101c0526106a08281526a04865616c7468202b3733360ac1b6106c0526101e0526106e08281526a04865616c7468202b3736360ac1b61070052610200526107208281526a04865616c7468202b3738360ac1b61074052610220526107608281526a04865616c7468202b3838360ac1b61078052610240526107a08281526a04865616c7468202b3839360ac1b6107c052610260526107e08281526a04865616c7468202b3931360ac1b61080052610280526108209182526a04865616c7468202b3933360ac1b610840526102a091909152600c6108608181526b04865616c7468202b313031360a41b610880526102c0526108a08181526b04865616c7468202b313033360a41b6108c0526102e0526108e08181526b04865616c7468202b313130360a41b61090052610300526109208181526b04865616c7468202b313134360a41b61094052610320526109608181526b04865616c7468202b313234360a41b61098052610340526109a08181526b04865616c7468202b313237360a41b6109c052610360526109e08181526b04865616c7468202b313337360a41b610a005261038052610a208181526b04865616c7468202b313433360a41b610a40526103a052610aa0604052610a608181526b04865616c7468202b313436360a41b610a80526103c0526200032f91601b62001d08565b50604080516103408101825260076103008201818152664d616e61202d3560c81b6103208401528252825180840184528181526626b0b73090169960c91b60208281019190915280840191909152835180850185528281526613585b98480acd60ca1b8183015283850152835180850185529182526609ac2dcc24056760cb1b8282015260608301919091528251808401845260088082526726b0b7309015989b60c11b8284018190526080850192909252845180860186528181528084019290925260a084019190915283518085018552818152674d616e61202b313960c01b8184015260c084015283518085018552818152674d616e61202b323760c01b8184015260e084015283518085018552818152674d616e61202b333560c01b8184015261010084015283518085018552818152674d616e61202b343360c01b81840152610120840152835180850185528181526713585b98480acd0d60c21b8184015261014084015283518085018552818152674d616e61202b343560c01b81840152610160840152835180850185528181526726b0b73090159a9960c11b81840152610180840152835180850185528181526709ac2dcc240566a760c31b818401526101a0840152835180850185528181526704d616e61202b36360c41b818401526101c084015283518085018552818152674d616e61202b363360c01b818401526101e0840152835180850185528181526704d616e61202b37360c41b818401819052610200850191909152845180860186528281528084019190915261022084015283518085018552818152674d616e61202b373760c01b81840152610240840152835180850185528181526726b0b73090159c1960c11b818401819052610260850191909152845180860186528281528084019190915261028084015283518085018552818152674d616e61202b383560c01b818401526102a0840152835180850185528181526726b0b73090159c1b60c11b818401526102c0840152835180850190945283526713585b98480ace4d60c21b908301526102e08101919091526200064390600d90601862001d6c565b50604080516103a081018252600b61036082018181526a537472656e677468202d3560a81b6103808401528252825180840184528181526a0537472656e677468202b360ac1b60208281019190915280840191909152835180850185529182526a14dd1c995b99dd1a080acd60aa1b828201528284019190915282518084018452600c8082526b0537472656e677468202b31360a41b828401526060840191909152835180850185528181526b29ba3932b733ba341015989960a11b818401526080840152835180850185528181526b0537472656e677468202b32360a41b8184015260a0840152835180850185528181526b0a6e8e4cadccee8d0405664760a31b8184015260c0840152835180850185528181526b29ba3932b733ba341015999b60a11b8184015260e0840152835180850185528181526b537472656e677468202b343760a01b81840152610100840152835180850185528181526b29ba3932b733ba3410159a9960a11b81840152610120840152835180850185528181526b0a6e8e4cadccee8d040566a760a31b81840152610140840152835180850185528181526b29ba3932b733ba3410159b1960a11b81840152610160840152835180850185528181526b537472656e677468202b363960a01b81840152610180840152835180850185528181526b537472656e677468202b373560a01b818401526101a0840152835180850185528181526b29ba3932b733ba3410159c1960a11b818401526101c0840152835180850185529081526b14dd1c995b99dd1a080ace4d60a21b818301526101e083015282518084018452600d8082526c29ba3932b733ba34101598981960991b82840152610200840191909152835180850185528181526c0a6e8e4cadccee8d0405662607609b1b81840152610220840152835180850185528181526c29ba3932b733ba34101598989960991b81840152610240840152835180850185528181526c29ba3932b733ba34101598989b60991b81840152610260840152835180850185528181526c537472656e677468202b31313760981b81840152610280840152835180850185528181526c0a6e8e4cadccee8d0405662627609b1b818401526102a0840152835180850185528181526c29ba3932b733ba34101598991b60991b818401526102c0840152835180850185528181526c537472656e677468202b31323760981b818401526102e0840152835180850185528181526c29ba3932b733ba34101598999960991b81840152610300840152835180850185528181526c29ba3932b733ba341015989a1960991b81840152610320840152835180850190945283526c537472656e677468202b31343960981b9083015261034081019190915262000a4090600e90601b62001d08565b506040805161036081018252601061032082018181526f436f6e737469747574696f6e202d323560801b6103408401528252825180840184528181526f0436f6e737469747574696f6e202d32360841b60208281019190915280840191909152835180850185528281526f436f6e737469747574696f6e202d313160801b818301528385015283518085018552600f8082526e0436f6e737469747574696f6e202b3608c1b828401526060850191909152845180860186528381526f10dbdb9cdd1a5d1d5d1a5bdb880acc4d60821b818401526080850152845180860186528381526f436f6e737469747574696f6e202b323960801b8184015260a0850152845180860186528381526f436f6e737469747574696f6e202b333560801b8184015260c0850152845180860186528381526f436f6e737469747574696f6e202b343760801b8184015260e0850152845180860186528381526f21b7b739ba34ba3aba34b7b710159b1b60811b81840152610100850152845180860186528381526f436f6e737469747574696f6e202b373160801b81840152610120850152845180860186528381526f21b7b739ba34ba3aba34b7b710159b9b60811b81840152610140850152845180860186529283526f10dbdb9cdd1a5d1d5d1a5bdb880ace4d60821b838301526101608401929092528351808501855260118082527021b7b739ba34ba3aba34b7b7101598989b60791b828401526101808501919091528451808601865281815270436f6e737469747574696f6e202b31323160781b818401526101a0850152845180860186528181527010dbdb9cdd1a5d1d5d1a5bdb880acc4ccd607a1b818401526101c08501528451808601865281815270436f6e737469747574696f6e202b31353160781b818401526101e08501528451808601865281815270436f6e737469747574696f6e202b31353760781b81840152610200850152845180860186528181527010dbdb9cdd1a5d1d5d1a5bdb880acc4d8d607a1b818401526102208501528451808601865281815270436f6e737469747574696f6e202b31373760781b81840152610240850152845180860186528181527021b7b739ba34ba3aba34b7b71015989c1960791b81840152610260850152845180860186528181527021b7b739ba34ba3aba34b7b71015989c9b60791b81840152610280850152845180860186528181527010dbdb9cdd1a5d1d5d1a5bdb880acc8c0d607a1b818401526102a0850152845180860186528181527010dbdb9cdd1a5d1d5d1a5bdb880acc8c8d607a1b818401526102c08501528451808601865281815270436f6e737469747574696f6e202b32323560781b818401526102e08501528451808601909552845270436f6e737469747574696f6e202b32343960781b9084015261030082019290925262000e5b9190601962001dbe565b50604080516103e081018252600d6103a082018181526c446578746572697479202d313560981b6103c0840152825282518084018452600c81526b2232bc3a32b934ba3c90169960a11b60208281019190915280840191909152835180850185528281526c446578746572697479202b313760981b8183015283850152835180850185528281526c088caf0e8cae4d2e8f24056627609b1b818301526060840152835180850185528281526c446578746572697479202b343760981b818301526080840152835180850185528281526c446578746572697479202b373760981b8183015260a0840152835180850185529182526c446578746572697479202b393760981b8282015260c083019190915282518084018452600e8082526d446578746572697479202b31333360901b8284015260e0840191909152835180850185528181526d11195e1d195c9a5d1e480acc4d8d60921b81840152610100840152835180850185528181526d2232bc3a32b934ba3c9015989b9b60911b81840152610120840152835180850185528181526d446578746572697479202b31393760901b81840152610140840152835180850185528181526d2232bc3a32b934ba3c901599191960911b81840152610160840152835180850185528181526d446578746572697479202b32353160901b81840152610180840152835180850185528181526d446578746572697479202b32363160901b818401526101a0840152835180850185528181526d446578746572697479202b32393160901b818401526101c0840152835180850185528181526d446578746572697479202b33303560901b818401526101e0840152835180850185528181526d446578746572697479202b33313960901b81840152610200840152835180850185528181526d446578746572697479202b33323360901b81840152610220840152835180850185528181526d2232bc3a32b934ba3c901599991b60911b81840152610240840152835180850185528181526d446578746572697479202b33343960901b81840152610260840152835180850185528181526d446578746572697479202b33363560901b81840152610280840152835180850185528181526d2232bc3a32b934ba3c9015999c1b60911b818401526102a0840152835180850185528181526d446578746572697479202b34303960901b818401526102c0840152835180850185528181526d2232bc3a32b934ba3c90159a189960911b818401526102e0840152835180850185528181526d2232bc3a32b934ba3c90159a1a1b60911b81840152610300840152835180850185528181526d446578746572697479202b34353360901b81840152610320840152835180850185528181526d0446578746572697479202b3437360941b81840152610340840152835180850185528181526d446578746572697479202b34373560901b81840152610360840152835180850190945283526d446578746572697479202b34383760901b90830152610380810191909152620012c690601090601d62001e10565b50604080516102e08101825260106102a082018181526f0496e74656c6c6967656e6365202d31360841b6102c0840152825282518084018452600f8082526e24b73a32b63634b3b2b731b290169b60891b60208381019190915280850192909252845180860186528181526e496e74656c6c6967656e6365202d3560881b8184015284860152845180860186528181526e496e74656c6c6967656e6365202d3360881b818401526060850152845180860186528181526e496e74656c6c6967656e6365202d3160881b818401526080850152845180860186529081526e24b73a32b63634b3b2b731b290159b60891b8183015260a0840152835180850185528281526f496e74656c6c6967656e6365202b313160801b8183015260c0840152835180850185528281526f496e74656c6c6967656e6365202b313760801b8183015260e0840152835180850185528281526f496e74656c6c6967656e6365202b323360801b81830152610100840152835180850185528281526f496e74656c6c6967656e6365202b323560801b81830152610120840152835180850185528281526f496e74656c6c6967656e6365202b333360801b81830152610140840152835180850185528281526f496e74656c6c6967656e6365202b333960801b81830152610160840152835180850185528281526f092dce8cad8d8d2cecadcc6ca405668760831b81830152610180840152835180850185528281526f496e74656c6c6967656e6365202b353560801b818301526101a0840152835180850185528281526f496e74656c6c6967656e6365202b363360801b818301526101c0840152835180850185528281526f496e74656c6c6967656e6365202b363760801b818301526101e0840152835180850185528281526f496e74656c6c6967656e6365202b373560801b81830152610200840152835180850185528281526f496e74656c6c6967656e6365202b373960801b81830152610220840152835180850185528281526f496e74656c6c6967656e6365202b383160801b81830152610240840152835180850185528281526f496e74656c6c6967656e6365202b383960801b8183015261026084015283518085019094529083526f496e74656c6c6967656e6365202b393360801b908301526102808101919091526200162890601190601562001e62565b50604080516102e081018252600a6102a0820181815269576973646f6d202d313560b01b6102c084015282528251808401845281815269576973646f6d202d313360b01b602082810191909152808401919091528351808501855282815269576973646f6d202d313160b01b818301528385015283518085018552600980825268576973646f6d202d3960b81b82840152606085019190915284518086018652818152680aed2e6c8deda405a760bb1b81840152608085015284518086018652818152682bb4b9b237b690169b60b91b8184015260a0850152845180860186528181526815da5cd91bdb480b4d60ba1b8184015260c085015284518086018652818152682bb4b9b237b690169960b91b8184015260e08501528451808601865281815268576973646f6d202d3160b81b818401526101008501528451808601865281815268576973646f6d202b3160b81b8184015261012085015284518086018652818152682bb4b9b237b690159960b91b818401526101408501528451808601865281815268576973646f6d202b3360b81b81840152610160850152845180860186528181526815da5cd91bdb480acd60ba1b818401526101808501528451808601865281815268576973646f6d202b3560b81b818401526101a085015284518086018652818152682bb4b9b237b690159b60b91b818401526101c08501528451808601865281815268576973646f6d202b3760b81b818401526101e08501528451808601865290815268576973646f6d202b3960b81b8183015261020084015283518085018552828152690576973646f6d202b31360b41b8183015261022084015283518085018552828152692bb4b9b237b69015989960b11b818301526102408401528351808501855282815269576973646f6d202b313360b01b8183015261026084015283518085019094529083526915da5cd91bdb480acc4d60b21b908301526102808101919091526200190690601290601562001e62565b50604080516102c081018252600c61028082018181526b04368617269736d61202b31360a41b6102a08401528252825180840184528181526b04368617269736d61202b35360a41b60208281019190915280840191909152835180850185529182526b04368617269736d61202b36360a41b828201528284019190915282518084018452600d8082526c04368617269736d61202b31303609c1b828401526060840191909152835180850185528181526c04368617269736d61202b31313609c1b818401526080840152835180850185528181526c04368617269736d61202b31353609c1b8184015260a0840152835180850185528181526c04368617269736d61202b31383609c1b8184015260c0840152835180850185528181526c04368617269736d61202b32303609c1b8184015260e0840152835180850185528181526c04368617269736d61202b32343609c1b81840152610100840152835180850185528181526c04368617269736d61202b32363609c1b81840152610120840152835180850185528181526c04368617269736d61202b32393609c1b81840152610140840152835180850185528181526c04368617269736d61202b33333609c1b81840152610160840152835180850185528181526c04368617269736d61202b33353609c1b81840152610180840152835180850185528181526c04368617269736d61202b33363609c1b818401526101a0840152835180850185528181526c04368617269736d61202b34303609c1b818401526101c0840152835180850185528181526c04368617269736d61202b34343609c1b818401526101e0840152835180850185528181526c04368617269736d61202b34373609c1b81840152610200840152835180850185528181526c04368617269736d61202b35313609c1b81840152610220840152835180850185528181526c04368617269736d61202b35353609c1b81840152610240840152835180850190945283526c04368617269736d61202b35383609c1b9083015261026081019190915262001c0b90601390601462001eb4565b50611e6160155534801562001c1f57600080fd5b5060405180604001604052806008815260200167109d5999931bdbdd60c21b81525060405180604001604052806008815260200167109551919313d3d560c21b815250816000908051906020019062001c7a92919062001f06565b50805162001c9090600190602084019062001f06565b50506001600a555062001cac62001ca662001cb2565b62001cb6565b6200204b565b3390565b600b80546001600160a01b038381166001600160a01b0319831681179093556040519116919082907f8be0079c531659141344cd1fd0a4f28419497f9722a3daafe3b4186f6b6457e090600090a35050565b82805482825590600052602060002090810192821562001d5a579160200282015b8281111562001d5a578251805162001d4991849160209091019062001f06565b509160200191906001019062001d29565b5062001d6892915062001f91565b5090565b82805482825590600052602060002090810192821562001d5a579160200282015b8281111562001d5a578251805162001dad91849160209091019062001f06565b509160200191906001019062001d8d565b82805482825590600052602060002090810192821562001d5a579160200282015b8281111562001d5a578251805162001dff91849160209091019062001f06565b509160200191906001019062001ddf565b82805482825590600052602060002090810192821562001d5a579160200282015b8281111562001d5a578251805162001e5191849160209091019062001f06565b509160200191906001019062001e31565b82805482825590600052602060002090810192821562001d5a579160200282015b8281111562001d5a578251805162001ea391849160209091019062001f06565b509160200191906001019062001e83565b82805482825590600052602060002090810192821562001d5a579160200282015b8281111562001d5a578251805162001ef591849160209091019062001f06565b509160200191906001019062001ed5565b82805462001f14906200200e565b90600052602060002090601f01602090048101928262001f38576000855562001f83565b82601f1062001f5357805160ff191683800117855562001f83565b8280016001018555821562001f83579182015b8281111562001f8357825182559160200191906001019062001f66565b5062001d6892915062001fb2565b8082111562001d6857600062001fa8828262001fc9565b5060010162001f91565b5b8082111562001d68576000815560010162001fb3565b50805462001fd7906200200e565b6000825580601f1062001feb57506200200b565b601f0160209004906000526020600020908101906200200b919062001fb2565b50565b6002810460018216806200202357607f821691505b602082108114156200204557634e487b7160e01b600052602260045260246000fd5b50919050565b612ed9806200205b6000396000f3fe608060405234801561001057600080fd5b50600436106101cf5760003560e01c80636352211e11610104578063b88d4fde116100a2578063e53fbda611610071578063e53fbda6146103a1578063e985e9c5146103b4578063f2fde38b146103c7578063f3a4aba9146103da576101cf565b8063b88d4fde14610355578063baa5b27f14610368578063c87b56dd1461037b578063e15f22551461038e576101cf565b8063744e94aa116100de578063744e94aa1461031f5780638da5cb5b1461033257806395d89b411461033a578063a22cb46514610342576101cf565b80636352211e146102f157806370a0823114610304578063715018a614610317576101cf565b80632f745c591161017157806342842e0e1161014b57806342842e0e146102bb5780634dbe5889146102ce5780634e71d92d146102d65780634f6ccce7146102de576101cf565b80632f745c591461028257806330799dc6146102955780633fc70f2c146102a8576101cf565b8063095ea7b3116101ad578063095ea7b31461023257806318160ddd1461024757806323b872dd1461025c5780632df78d311461026f576101cf565b806301ffc9a7146101d457806306fdde03146101fd578063081812fc14610212575b600080fd5b6101e76101e23660046121eb565b6103ed565b6040516101f491906125c4565b60405180910390f35b61020561041a565b6040516101f491906125cf565b610225610220366004612223565b6104ac565b6040516101f49190612573565b6102456102403660046121c2565b6104f8565b005b61024f610590565b6040516101f49190612af1565b61024561026a366004612081565b610596565b61020561027d366004612223565b6105ce565b61024f6102903660046121c2565b6106cc565b6102056102a3366004612223565b61071e565b6102056102b6366004612223565b610811565b6102456102c9366004612081565b610904565b61024561091f565b6102456109e2565b61024f6102ec366004612223565b610a5d565b6102256102ff366004612223565b610ab8565b61024f61031236600461202e565b610aed565b610245610b31565b61020561032d366004612223565b610b7c565b610225610c6d565b610205610c7c565b610245610350366004612188565b610c8b565b6102456103633660046120bc565b610d59565b610205610376366004612223565b610d98565b610205610389366004612223565b610e91565b61020561039c366004612223565b611139565b6102056103af366004612223565b61122f565b6101e76103c236600461204f565b611324565b6102456103d536600461202e565b611352565b6102056103e8366004612223565b6113c3565b60006001600160e01b0319821663780e9d6360e01b14806104125750610412826114bc565b90505b919050565b60606000805461042990612b88565b80601f016020809104026020016040519081016040528092919081815260200182805461045590612b88565b80156104a25780601f10610477576101008083540402835291602001916104a2565b820191906000526020600020905b81548152906001019060200180831161048557829003601f168201915b5050505050905090565b60006104b7826114fc565b6104dc5760405162461bcd60e51b81526004016104d3906128e8565b60405180910390fd5b506000908152600460205260409020546001600160a01b031690565b600061050382610ab8565b9050806001600160a01b0316836001600160a01b031614156105375760405162461bcd60e51b81526004016104d3906129dc565b806001600160a01b0316610549611519565b6001600160a01b031614806105655750610565816103c2611519565b6105815760405162461bcd60e51b81526004016104d3906127c3565b61058b838361151d565b505050565b60085490565b6105a76105a1611519565b8261158b565b6105c35760405162461bcd60e51b81526004016104d390612a1d565b61058b838383611610565b606061041282604051806040016040528060088152602001674368617269736d6160c01b8152506013805480602002602001604051908101604052809291908181526020016000905b828210156106c357838290600052602060002001805461063690612b88565b80601f016020809104026020016040519081016040528092919081815260200182805461066290612b88565b80156106af5780601f10610684576101008083540402835291602001916106af565b820191906000526020600020905b81548152906001019060200180831161069257829003601f168201915b505050505081526020019060010190610617565b5050505061173d565b60006106d783610aed565b82106106f55760405162461bcd60e51b81526004016104d3906125e2565b506001600160a01b03919091166000908152600660209081526040808320938352929052205490565b60606104128260405180604001604052806006815260200165576973646f6d60d01b8152506012805480602002602001604051908101604052809291908181526020016000905b828210156106c357838290600052602060002001805461078490612b88565b80601f01602080910402602001604051908101604052809291908181526020018280546107b090612b88565b80156107fd5780601f106107d2576101008083540402835291602001916107fd565b820191906000526020600020905b8154815290600101906020018083116107e057829003601f168201915b505050505081526020019060010190610765565b60606104128260405180604001604052806006815260200165090cac2d8e8d60d31b815250600c805480602002602001604051908101604052809291908181526020016000905b828210156106c357838290600052602060002001805461087790612b88565b80601f01602080910402602001604051908101604052809291908181526020018280546108a390612b88565b80156108f05780601f106108c5576101008083540402835291602001916108f0565b820191906000526020600020905b8154815290600101906020018083116108d357829003601f168201915b505050505081526020019060010190610858565b61058b83838360405180602001604052806000815250610d59565b6002600a5414156109425760405162461bcd60e51b81526004016104d390612aba565b6002600a5561094f611519565b6001600160a01b0316610960610c6d565b6001600160a01b0316146109865760405162461bcd60e51b81526004016104d390612934565b601554610994906001612afa565b6015819055611e611080156109ac5750611f41601554105b6109c85760405162461bcd60e51b81526004016104d390612969565b6109db6109d3610c6d565b6015546117b9565b6001600a55565b6002600a541415610a055760405162461bcd60e51b81526004016104d390612aba565b6002600a55601454610a18906001612afa565b601481905515801590610a2e5750611e62601454105b610a4a5760405162461bcd60e51b81526004016104d390612969565b6109db610a55611519565b6014546117b9565b6000610a67610590565b8210610a855760405162461bcd60e51b81526004016104d390612a6e565b60088281548110610aa657634e487b7160e01b600052603260045260246000fd5b90600052602060002001549050919050565b6000818152600260205260408120546001600160a01b0316806104125760405162461bcd60e51b81526004016104d39061286a565b60006001600160a01b038216610b155760405162461bcd60e51b81526004016104d390612820565b506001600160a01b031660009081526003602052604090205490565b610b39611519565b6001600160a01b0316610b4a610c6d565b6001600160a01b031614610b705760405162461bcd60e51b81526004016104d390612934565b610b7a60006117d7565b565b606061041282604051806040016040528060048152602001634d616e6160e01b815250600d805480602002602001604051908101604052809291908181526020016000905b828210156106c3578382906000526020600020018054610be090612b88565b80601f0160208091040260200160405190810160405280929190818152602001828054610c0c90612b88565b8015610c595780601f10610c2e57610100808354040283529160200191610c59565b820191906000526020600020905b815481529060010190602001808311610c3c57829003601f168201915b505050505081526020019060010190610bc1565b600b546001600160a01b031690565b60606001805461042990612b88565b610c93611519565b6001600160a01b0316826001600160a01b03161415610cc45760405162461bcd60e51b81526004016104d390612740565b8060056000610cd1611519565b6001600160a01b03908116825260208083019390935260409182016000908120918716808252919093529120805460ff191692151592909217909155610d15611519565b6001600160a01b03167f17307eab39ab6107e8899845ad3d59bd9653f200f220920489ca2b5937696c3183604051610d4d91906125c4565b60405180910390a35050565b610d6a610d64611519565b8361158b565b610d865760405162461bcd60e51b81526004016104d390612a1d565b610d9284848484611829565b50505050565b6060610412826040518060400160405280600c81526020016b496e74656c6c6967656e636560a01b8152506011805480602002602001604051908101604052809291908181526020016000905b828210156106c3578382906000526020600020018054610e0490612b88565b80601f0160208091040260200160405190810160405280929190818152602001828054610e3090612b88565b8015610e7d5780601f10610e5257610100808354040283529160200191610e7d565b820191906000526020600020905b815481529060010190602001808311610e6057829003601f168201915b505050505081526020019060010190610de5565b6060610e9b611fef565b60405180610120016040528060fd8152602001612d1660fd91398152610ec083610811565b8160016020020181905250604051806060016040528060288152602001612e7c602891396040820152610ef283610b7c565b6060808301919091526040805191820190526028808252612c4b60208301396080820152610f1f8361122f565b60a082015260408051606081019091526028808252612cc5602083013960c0820152610f4a836113c3565b60e082015260408051606081019091526029808252612ced6020830139610100820152610f7683611139565b61012082015260408051606081019091526029808252612c9c6020830139610140820152610fa383610d98565b61016082015260408051606081019091526029808252612e136020830139610180820152610fd08361071e565b6101a082015260408051606081019091526029808252612c7360208301396101c0820152610ffd836105ce565b6101e0820152604080518082018252600d81526c1e17ba32bc3a1f1e17b9bb339f60991b602080830191909152610200840191909152825181840151838501516060860151608087015160a088015160c089015160e08a01516101008b0151995160009a61106d9a9091016122dc565b60408051808303601f19018152908290526101208401516101408501516101608601516101808701516101a08801516101c08901516101e08a01516102008b01519799506110c0988a98906020016122dc565b6040516020818303038152906040529050600061110d6110df8661185c565b6110e884611977565b6040516020016110f992919061239c565b604051602081830303815290604052611977565b905080604051602001611120919061252e565b60408051808303601f1901815291905295945050505050565b6060610412826040518060400160405280600981526020016844657874657269747960b81b8152506010805480602002602001604051908101604052809291908181526020016000905b828210156106c35783829060005260206000200180546111a290612b88565b80601f01602080910402602001604051908101604052809291908181526020018280546111ce90612b88565b801561121b5780601f106111f05761010080835404028352916020019161121b565b820191906000526020600020905b8154815290600101906020018083116111fe57829003601f168201915b505050505081526020019060010190611183565b606061041282604051806040016040528060088152602001670a6e8e4cadccee8d60c31b815250600e805480602002602001604051908101604052809291908181526020016000905b828210156106c357838290600052602060002001805461129790612b88565b80601f01602080910402602001604051908101604052809291908181526020018280546112c390612b88565b80156113105780601f106112e557610100808354040283529160200191611310565b820191906000526020600020905b8154815290600101906020018083116112f357829003601f168201915b505050505081526020019060010190611278565b6001600160a01b03918216600090815260056020908152604080832093909416825291909152205460ff1690565b61135a611519565b6001600160a01b031661136b610c6d565b6001600160a01b0316146113915760405162461bcd60e51b81526004016104d390612934565b6001600160a01b0381166113b75760405162461bcd60e51b81526004016104d39061267f565b6113c0816117d7565b50565b6060610412826040518060400160405280600c81526020016b21b7b739ba34ba3aba34b7b760a11b815250600f805480602002602001604051908101604052809291908181526020016000905b828210156106c357838290600052602060002001805461142f90612b88565b80601f016020809104026020016040519081016040528092919081815260200182805461145b90612b88565b80156114a85780601f1061147d576101008083540402835291602001916114a8565b820191906000526020600020905b81548152906001019060200180831161148b57829003601f168201915b505050505081526020019060010190611410565b60006001600160e01b031982166380ac58cd60e01b14806114ed57506001600160e01b03198216635b5e139f60e01b145b80610412575061041282611aeb565b6000908152600260205260409020546001600160a01b0316151590565b3390565b600081815260046020526040902080546001600160a01b0319166001600160a01b038416908117909155819061155282610ab8565b6001600160a01b03167f8c5be1e5ebec7d5bd14f71427d1e84f3dd0314c0f7b2291e5b200ac8c7c3b92560405160405180910390a45050565b6000611596826114fc565b6115b25760405162461bcd60e51b81526004016104d390612777565b60006115bd83610ab8565b9050806001600160a01b0316846001600160a01b031614806115f85750836001600160a01b03166115ed846104ac565b6001600160a01b0316145b8061160857506116088185611324565b949350505050565b826001600160a01b031661162382610ab8565b6001600160a01b0316146116495760405162461bcd60e51b81526004016104d390612993565b6001600160a01b03821661166f5760405162461bcd60e51b81526004016104d3906126fc565b61167a838383611b04565b61168560008261151d565b6001600160a01b03831660009081526003602052604081208054600192906116ae908490612b45565b90915550506001600160a01b03821660009081526003602052604081208054600192906116dc908490612afa565b909155505060008181526002602052604080822080546001600160a01b0319166001600160a01b0386811691821790925591518493918716917fddf252ad1be2c89b69c2b068fc378daa952ba7f163c4a11628f55a4df523b3ef91a4505050565b606060006117738461174e8761185c565b60405160200161175f9291906122ad565b604051602081830303815290604052611b8d565b90506000838451836117859190612bde565b815181106117a357634e487b7160e01b600052603260045260246000fd5b6020026020010151905080925050509392505050565b6117d3828260405180602001604052806000815250611bbe565b5050565b600b80546001600160a01b038381166001600160a01b0319831681179093556040519116919082907f8be0079c531659141344cd1fd0a4f28419497f9722a3daafe3b4186f6b6457e090600090a35050565b611834848484611610565b61184084848484611bf1565b610d925760405162461bcd60e51b81526004016104d39061262d565b60608161188157506040805180820190915260018152600360fc1b6020820152610415565b8160005b81156118ab578061189581612bc3565b91506118a49050600a83612b12565b9150611885565b60008167ffffffffffffffff8111156118d457634e487b7160e01b600052604160045260246000fd5b6040519080825280601f01601f1916602001820160405280156118fe576020820181803683370190505b5090505b841561160857611913600183612b45565b9150611920600a86612bde565b61192b906030612afa565b60f81b81838151811061194e57634e487b7160e01b600052603260045260246000fd5b60200101906001600160f81b031916908160001a905350611970600a86612b12565b9450611902565b805160609080611997575050604080516020810190915260008152610415565b600060036119a6836002612afa565b6119b09190612b12565b6119bb906004612b26565b905060006119ca826020612afa565b67ffffffffffffffff8111156119f057634e487b7160e01b600052604160045260246000fd5b6040519080825280601f01601f191660200182016040528015611a1a576020820181803683370190505b5090506000604051806060016040528060408152602001612e3c604091399050600181016020830160005b86811015611aa6576003818a01810151603f601282901c8116860151600c83901c8216870151600684901c831688015192909316870151600891821b60ff94851601821b92841692909201901b91160160e01b835260049092019101611a45565b506003860660018114611ac05760028114611ad157611add565b613d3d60f01b600119830152611add565b603d60f81b6000198301525b505050918152949350505050565b6001600160e01b031981166301ffc9a760e01b14919050565b611b0f83838361058b565b6001600160a01b038316611b2b57611b2681611d0c565b611b4e565b816001600160a01b0316836001600160a01b031614611b4e57611b4e8382611d50565b6001600160a01b038216611b6a57611b6581611ded565b61058b565b826001600160a01b0316826001600160a01b03161461058b5761058b8282611ec6565b600081604051602001611ba09190612291565b60408051601f19818403018152919052805160209091012092915050565b611bc88383611f0a565b611bd56000848484611bf1565b61058b5760405162461bcd60e51b81526004016104d39061262d565b6000611c05846001600160a01b0316611fe9565b15611d0157836001600160a01b031663150b7a02611c21611519565b8786866040518563ffffffff1660e01b8152600401611c439493929190612587565b602060405180830381600087803b158015611c5d57600080fd5b505af1925050508015611c8d575060408051601f3d908101601f19168201909252611c8a91810190612207565b60015b611ce7573d808015611cbb576040519150601f19603f3d011682016040523d82523d6000602084013e611cc0565b606091505b508051611cdf5760405162461bcd60e51b81526004016104d39061262d565b805181602001fd5b6001600160e01b031916630a85bd0160e11b149050611608565b506001949350505050565b600880546000838152600960205260408120829055600182018355919091527ff3f7a9fe364faab93b216da50a3214154f22a0a2b415b23a84c8169e8b636ee30155565b60006001611d5d84610aed565b611d679190612b45565b600083815260076020526040902054909150808214611dba576001600160a01b03841660009081526006602090815260408083208584528252808320548484528184208190558352600790915290208190555b5060009182526007602090815260408084208490556001600160a01b039094168352600681528383209183525290812055565b600854600090611dff90600190612b45565b60008381526009602052604081205460088054939450909284908110611e3557634e487b7160e01b600052603260045260246000fd5b906000526020600020015490508060088381548110611e6457634e487b7160e01b600052603260045260246000fd5b6000918252602080832090910192909255828152600990915260408082208490558582528120556008805480611eaa57634e487b7160e01b600052603160045260246000fd5b6001900381819060005260206000200160009055905550505050565b6000611ed183610aed565b6001600160a01b039093166000908152600660209081526040808320868452825280832085905593825260079052919091209190915550565b6001600160a01b038216611f305760405162461bcd60e51b81526004016104d3906128b3565b611f39816114fc565b15611f565760405162461bcd60e51b81526004016104d3906126c5565b611f6260008383611b04565b6001600160a01b0382166000908152600360205260408120805460019290611f8b908490612afa565b909155505060008181526002602052604080822080546001600160a01b0319166001600160a01b03861690811790915590518392907fddf252ad1be2c89b69c2b068fc378daa952ba7f163c4a11628f55a4df523b3ef908290a45050565b3b151590565b6040518061022001604052806011905b6060815260200190600190039081611fff5790505090565b80356001600160a01b038116811461041557600080fd5b60006020828403121561203f578081fd5b61204882612017565b9392505050565b60008060408385031215612061578081fd5b61206a83612017565b915061207860208401612017565b90509250929050565b600080600060608486031215612095578081fd5b61209e84612017565b92506120ac60208501612017565b9150604084013590509250925092565b600080600080608085870312156120d1578081fd5b6120da85612017565b935060206120e9818701612017565b935060408601359250606086013567ffffffffffffffff8082111561210c578384fd5b818801915088601f83011261211f578384fd5b81358181111561213157612131612c1e565b604051601f8201601f191681018501838111828210171561215457612154612c1e565b60405281815283820185018b101561216a578586fd5b81858501868301379081019093019390935250939692955090935050565b6000806040838503121561219a578182fd5b6121a383612017565b9150602083013580151581146121b7578182fd5b809150509250929050565b600080604083850312156121d4578182fd5b6121dd83612017565b946020939093013593505050565b6000602082840312156121fc578081fd5b813561204881612c34565b600060208284031215612218578081fd5b815161204881612c34565b600060208284031215612234578081fd5b5035919050565b60008151808452612253816020860160208601612b5c565b601f01601f19169290920160200192915050565b60008151612279818560208601612b5c565b9290920192915050565b61227d60f01b815260020190565b600082516122a3818460208701612b5c565b9190910192915050565b600083516122bf818460208801612b5c565b8351908301906122d3818360208801612b5c565b01949350505050565b60008a516122ee818460208f01612b5c565b8a516123008183860160208f01612b5c565b8a519184010190612315818360208e01612b5c565b89516123278183850160208e01612b5c565b895192909101019061233d818360208c01612b5c565b8751910190612350818360208b01612b5c565b86516123628183850160208b01612b5c565b8651929091010190612378818360208901612b5c565b845161238a8183850160208901612b5c565b9101019b9a5050505050505050505050565b6e7b226e616d65223a2022426167202360881b815282516000906123c781600f850160208801612b5c565b7f222c20226465736372697074696f6e223a2022427566664c6f6f742069732072600f918401918201527f616e646f6d697a65642067656e657261746564206275666620666f7220616476602f8201527f656e74757265727320616e642073746f726564206f6e20636861696e2e205765604f8201527f20776f756c64206a757374206c696b6520746f2072656d696e64206576657279606f8201527f6f6e65207468617420427566664c6f6f74206973206f70656e20666f72204652608f8201527f4545206d696e74696e6721204d6178696d756d20737570706c79206f6620383060af8201527f303021205374696c6c206d6f7265207468616e203730303020617661696c616260cf8201527f6c6521222c2022696d616765223a2022646174613a696d6167652f7376672b7860ef820152691b5b0ed8985cd94d8d0b60b21b61010f820152612525612520610119830186612267565b612283565b95945050505050565b60007f646174613a6170706c69636174696f6e2f6a736f6e3b6261736536342c0000008252825161256681601d850160208701612b5c565b91909101601d0192915050565b6001600160a01b0391909116815260200190565b6001600160a01b03858116825284166020820152604081018390526080606082018190526000906125ba9083018461223b565b9695505050505050565b901515815260200190565b600060208252612048602083018461223b565b6020808252602b908201527f455243373231456e756d657261626c653a206f776e657220696e646578206f7560408201526a74206f6620626f756e647360a81b606082015260800190565b60208082526032908201527f4552433732313a207472616e7366657220746f206e6f6e20455243373231526560408201527131b2b4bb32b91034b6b83632b6b2b73a32b960711b606082015260800190565b60208082526026908201527f4f776e61626c653a206e6577206f776e657220697320746865207a65726f206160408201526564647265737360d01b606082015260800190565b6020808252601c908201527f4552433732313a20746f6b656e20616c7265616479206d696e74656400000000604082015260600190565b60208082526024908201527f4552433732313a207472616e7366657220746f20746865207a65726f206164646040820152637265737360e01b606082015260800190565b60208082526019908201527f4552433732313a20617070726f766520746f2063616c6c657200000000000000604082015260600190565b6020808252602c908201527f4552433732313a206f70657261746f7220717565727920666f72206e6f6e657860408201526b34b9ba32b73a103a37b5b2b760a11b606082015260800190565b60208082526038908201527f4552433732313a20617070726f76652063616c6c6572206973206e6f74206f7760408201527f6e6572206e6f7220617070726f76656420666f7220616c6c0000000000000000606082015260800190565b6020808252602a908201527f4552433732313a2062616c616e636520717565727920666f7220746865207a65604082015269726f206164647265737360b01b606082015260800190565b60208082526029908201527f4552433732313a206f776e657220717565727920666f72206e6f6e657869737460408201526832b73a103a37b5b2b760b91b606082015260800190565b6020808252818101527f4552433732313a206d696e7420746f20746865207a65726f2061646472657373604082015260600190565b6020808252602c908201527f4552433732313a20617070726f76656420717565727920666f72206e6f6e657860408201526b34b9ba32b73a103a37b5b2b760a11b606082015260800190565b6020808252818101527f4f776e61626c653a2063616c6c6572206973206e6f7420746865206f776e6572604082015260600190565b60208082526010908201526f151bdad95b881251081a5b9d985b1a5960821b604082015260600190565b60208082526029908201527f4552433732313a207472616e73666572206f6620746f6b656e2074686174206960408201526839903737ba1037bbb760b91b606082015260800190565b60208082526021908201527f4552433732313a20617070726f76616c20746f2063757272656e74206f776e656040820152603960f91b606082015260800190565b60208082526031908201527f4552433732313a207472616e736665722063616c6c6572206973206e6f74206f6040820152701ddb995c881b9bdc88185c1c1c9bdd9959607a1b606082015260800190565b6020808252602c908201527f455243373231456e756d657261626c653a20676c6f62616c20696e646578206f60408201526b7574206f6620626f756e647360a01b606082015260800190565b6020808252601f908201527f5265656e7472616e637947756172643a207265656e7472616e742063616c6c00604082015260600190565b90815260200190565b60008219821115612b0d57612b0d612bf2565b500190565b600082612b2157612b21612c08565b500490565b6000816000190483118215151615612b4057612b40612bf2565b500290565b600082821015612b5757612b57612bf2565b500390565b60005b83811015612b77578181015183820152602001612b5f565b83811115610d925750506000910152565b600281046001821680612b9c57607f821691505b60208210811415612bbd57634e487b7160e01b600052602260045260246000fd5b50919050565b6000600019821415612bd757612bd7612bf2565b5060010190565b600082612bed57612bed612c08565b500690565b634e487b7160e01b600052601160045260246000fd5b634e487b7160e01b600052601260045260246000fd5b634e487b7160e01b600052604160045260246000fd5b6001600160e01b0319811681146113c057600080fdfe3c2f746578743e3c7465787420783d2231302220793d2236302220636c6173733d2262617365223e3c2f746578743e3c7465787420783d2231302220793d223136302220636c6173733d2262617365223e3c2f746578743e3c7465787420783d2231302220793d223132302220636c6173733d2262617365223e3c2f746578743e3c7465787420783d2231302220793d2238302220636c6173733d2262617365223e3c2f746578743e3c7465787420783d2231302220793d223130302220636c6173733d2262617365223e3c73766720786d6c6e733d22687474703a2f2f7777772e77332e6f72672f323030302f73766722207072657365727665417370656374526174696f3d22784d696e594d696e206d656574222076696577426f783d223020302033353020333530223e3c7374796c653e2e62617365207b2066696c6c3a2077686974653b20666f6e742d66616d696c793a2073657269663b20666f6e742d73697a653a20313470783b207d3c2f7374796c653e3c726563742077696474683d223130302522206865696768743d2231303025222066696c6c3d22626c61636b22202f3e3c7465787420783d2231302220793d2232302220636c6173733d2262617365223e3c2f746578743e3c7465787420783d2231302220793d223134302220636c6173733d2262617365223e4142434445464748494a4b4c4d4e4f505152535455565758595a6162636465666768696a6b6c6d6e6f707172737475767778797a303132333435363738392b2f3c2f746578743e3c7465787420783d2231302220793d2234302220636c6173733d2262617365223ea2646970667358221220acdcd4e9d31568b9603e4b95d51c905ad9a3605a84c8cb3843c29fd8438c7d2a64736f6c63430008000033"
  }
}