{"compiler":"v0.6.12+commit.27d51765","opcodeHash":"0xc1e560be6c3e02bb33fb8ba73022836c54b140eaab48f2dcafb21784019c6f2a","metalessHash":"0xfcffb9fb6425c5762ae6d37d6ca5eebbb7089b8b1db8f810409d80cc7fba5678","runtimeHash":"0x79cc808d337c9ef03e54cd60eee9c9b84f208f55dd26c339e6b29897ce1faee6","encodedMetadata":[{"ipfs":"/ipfs/QmTjC2bwzXekrZBpof5jjqyRUHpo7XFhG1HRbeB7xhPsj9","solc":"0.6.12"}],"abi":[{"inputs":[],"stateMutability":"nonpayable","type":"constructor"},{"anonymous":false,"inputs":[{"indexed":true,"internalType":"address","name":"owner","type":"address"},{"indexed":true,"internalType":"address","name":"spender","type":"address"},{"indexed":false,"internalType":"uint256","name":"value","type":"uint256"}],"name":"Approval","type":"event"},{"anonymous":false,"inputs":[{"indexed":true,"internalType":"address","name":"previousOwner","type":"address"},{"indexed":true,"internalType":"address","name":"newOwner","type":"address"}],"name":"OwnershipTransferred","type":"event"},{"anonymous":false,"inputs":[{"indexed":true,"internalType":"address","name":"from","type":"address"},{"indexed":true,"internalType":"address","name":"to","type":"address"},{"indexed":false,"internalType":"uint256","name":"value","type":"uint256"}],"name":"Transfer","type":"event"},{"inputs":[{"internalType":"uint256","name":"burnFee","type":"uint256"}],"name":"_setBurnFee","outputs":[],"stateMutability":"nonpayable","type":"function"},{"inputs":[{"internalType":"uint256","name":"maxTxAmount","type":"uint256"}],"name":"_setMaxTxAmount","outputs":[],"stateMutability":"nonpayable","type":"function"},{"inputs":[{"internalType":"uint256","name":"taxFee","type":"uint256"}],"name":"_setTaxFee","outputs":[],"stateMutability":"nonpayable","type":"function"},{"inputs":[{"internalType":"address","name":"owner","type":"address"},{"internalType":"address","name":"spender","type":"address"}],"name":"allowance","outputs":[{"internalType":"uint256","name":"","type":"uint256"}],"stateMutability":"view","type":"function"},{"inputs":[{"internalType":"address","name":"spender","type":"address"},{"internalType":"uint256","name":"amount","type":"uint256"}],"name":"approve","outputs":[{"internalType":"bool","name":"","type":"bool"}],"stateMutability":"nonpayable","type":"function"},{"inputs":[{"internalType":"address","name":"account","type":"address"}],"name":"balanceOf","outputs":[{"internalType":"uint256","name":"","type":"uint256"}],"stateMutability":"view","type":"function"},{"inputs":[],"name":"decimals","outputs":[{"internalType":"uint8","name":"","type":"uint8"}],"stateMutability":"view","type":"function"},{"inputs":[{"internalType":"address","name":"spender","type":"address"},{"internalType":"uint256","name":"subtractedValue","type":"uint256"}],"name":"decreaseAllowance","outputs":[{"internalType":"bool","name":"","type":"bool"}],"stateMutability":"nonpayable","type":"function"},{"inputs":[{"internalType":"uint256","name":"tAmount","type":"uint256"}],"name":"deliver","outputs":[],"stateMutability":"nonpayable","type":"function"},{"inputs":[{"internalType":"address","name":"account","type":"address"}],"name":"excludeAccount","outputs":[],"stateMutability":"nonpayable","type":"function"},{"inputs":[],"name":"geUnlockTime","outputs":[{"internalType":"uint256","name":"","type":"uint256"}],"stateMutability":"view","type":"function"},{"inputs":[{"internalType":"address","name":"account","type":"address"}],"name":"includeAccount","outputs":[],"stateMutability":"nonpayable","type":"function"},{"inputs":[{"internalType":"address","name":"spender","type":"address"},{"internalType":"uint256","name":"addedValue","type":"uint256"}],"name":"increaseAllowance","outputs":[{"internalType":"bool","name":"","type":"bool"}],"stateMutability":"nonpayable","type":"function"},{"inputs":[{"internalType":"address","name":"account","type":"address"}],"name":"isExcluded","outputs":[{"internalType":"bool","name":"","type":"bool"}],"stateMutability":"view","type":"function"},{"inputs":[{"internalType":"uint256","name":"time","type":"uint256"}],"name":"lock","outputs":[],"stateMutability":"nonpayable","type":"function"},{"inputs":[],"name":"name","outputs":[{"internalType":"string","name":"","type":"string"}],"stateMutability":"view","type":"function"},{"inputs":[],"name":"owner","outputs":[{"internalType":"address","name":"","type":"address"}],"stateMutability":"view","type":"function"},{"inputs":[{"internalType":"uint256","name":"tAmount","type":"uint256"},{"internalType":"bool","name":"deductTransferFee","type":"bool"}],"name":"reflectionFromToken","outputs":[{"internalType":"uint256","name":"","type":"uint256"}],"stateMutability":"view","type":"function"},{"inputs":[],"name":"renounceOwnership","outputs":[],"stateMutability":"nonpayable","type":"function"},{"inputs":[],"name":"symbol","outputs":[{"internalType":"string","name":"","type":"string"}],"stateMutability":"view","type":"function"},{"inputs":[{"internalType":"uint256","name":"rAmount","type":"uint256"}],"name":"tokenFromReflection","outputs":[{"internalType":"uint256","name":"","type":"uint256"}],"stateMutability":"view","type":"function"},{"inputs":[],"name":"totalBurn","outputs":[{"internalType":"uint256","name":"","type":"uint256"}],"stateMutability":"view","type":"function"},{"inputs":[],"name":"totalFees","outputs":[{"internalType":"uint256","name":"","type":"uint256"}],"stateMutability":"view","type":"function"},{"inputs":[],"name":"totalSupply","outputs":[{"internalType":"uint256","name":"","type":"uint256"}],"stateMutability":"view","type":"function"},{"inputs":[{"internalType":"address","name":"recipient","type":"address"},{"internalType":"uint256","name":"amount","type":"uint256"}],"name":"transfer","outputs":[{"internalType":"bool","name":"","type":"bool"}],"stateMutability":"nonpayable","type":"function"},{"inputs":[{"internalType":"address","name":"sender","type":"address"},{"internalType":"address","name":"recipient","type":"address"},{"internalType":"uint256","name":"amount","type":"uint256"}],"name":"transferFrom","outputs":[{"internalType":"bool","name":"","type":"bool"}],"stateMutability":"nonpayable","type":"function"},{"inputs":[{"internalType":"address","name":"newOwner","type":"address"}],"name":"transferOwnership","outputs":[],"stateMutability":"nonpayable","type":"function"},{"inputs":[],"name":"unlock","outputs":[],"stateMutability":"nonpayable","type":"function"}],"bytecode":{"object":"608060405268056bc75e2d63100000600855600854600019816200001f57fe5b06600019036009556040518060400160405280600981526020017f53686f67756e496e750000000000000000000000000000000000000000000000815250600c9080519060200190620000749291906200028d565b506040518060400160405280600681526020017f53484f47554e0000000000000000000000000000000000000000000000000000815250600d9080519060200190620000c29291906200028d565b506009600e60006101000a81548160ff021916908360ff1602179055506003600f5560036010556714d1120d7b1600006011553480156200010257600080fd5b506000620001156200028560201b60201c565b9050806000806101000a81548173ffffffffffffffffffffffffffffffffffffffff021916908373ffffffffffffffffffffffffffffffffffffffff1602179055508073ffffffffffffffffffffffffffffffffffffffff16600073ffffffffffffffffffffffffffffffffffffffff167f8be0079c531659141344cd1fd0a4f28419497f9722a3daafe3b4186f6b6457e060405160405180910390a35060095460036000620001ca6200028560201b60201c565b73ffffffffffffffffffffffffffffffffffffffff1673ffffffffffffffffffffffffffffffffffffffff16815260200190815260200160002081905550620002186200028560201b60201c565b73ffffffffffffffffffffffffffffffffffffffff16600073ffffffffffffffffffffffffffffffffffffffff167fddf252ad1be2c89b69c2b068fc378daa952ba7f163c4a11628f55a4df523b3ef6008546040518082815260200191505060405180910390a362000333565b600033905090565b828054600181600116156101000203166002900490600052602060002090601f016020900481019282601f10620002d057805160ff191683800117855562000301565b8280016001018555821562000301579182015b8281111562000300578251825591602001919060010190620002e3565b5b50905062000310919062000314565b5090565b5b808211156200032f57600081600090555060010162000315565b5090565b613eb180620003436000396000f3fe608060405234801561001057600080fd5b50600436106101c45760003560e01c806370a08231116100f9578063b6c5232411610097578063dd62ed3e11610071578063dd62ed3e146107ec578063f2cc0c1814610864578063f2fde38b146108a8578063f84354f1146108ec576101c4565b8063b6c5232414610746578063cba0e99614610764578063dd467064146107be576101c4565b806395d89b41116100d357806395d89b41146105f1578063a457c2d714610674578063a69df4b5146106d8578063a9059cbb146106e2576101c4565b806370a082311461055b578063715018a6146105b35780638da5cb5b146105bd576101c4565b8063313ce567116101665780633bd5d173116101405780633bd5d173146104935780633c9f861d146104c15780634549b039146104df5780635880b8731461052d576101c4565b8063313ce567146103e057806339509351146104015780633b6b196114610465576101c4565b806318160ddd116101a257806318160ddd146102ce5780631bbae6e0146102ec57806323b872dd1461031a5780632d8381191461039e576101c4565b806306fdde03146101c9578063095ea7b31461024c57806313114a9d146102b0575b600080fd5b6101d1610930565b6040518080602001828103825283818151815260200191508051906020019080838360005b838110156102115780820151818401526020810190506101f6565b50505050905090810190601f16801561023e5780820380516001836020036101000a031916815260200191505b509250505060405180910390f35b6102986004803603604081101561026257600080fd5b81019080803573ffffffffffffffffffffffffffffffffffffffff169060200190929190803590602001909291905050506109d2565b60405180821515815260200191505060405180910390f35b6102b86109f0565b6040518082815260200191505060405180910390f35b6102d66109fa565b6040518082815260200191505060405180910390f35b6103186004803603602081101561030257600080fd5b8101908080359060200190929190505050610a04565b005b6103866004803603606081101561033057600080fd5b81019080803573ffffffffffffffffffffffffffffffffffffffff169060200190929190803573ffffffffffffffffffffffffffffffffffffffff16906020019092919080359060200190929190505050610ad6565b60405180821515815260200191505060405180910390f35b6103ca600480360360208110156103b457600080fd5b8101908080359060200190929190505050610baf565b6040518082815260200191505060405180910390f35b6103e8610c33565b604051808260ff16815260200191505060405180910390f35b61044d6004803603604081101561041757600080fd5b81019080803573ffffffffffffffffffffffffffffffffffffffff16906020019092919080359060200190929190505050610c4a565b60405180821515815260200191505060405180910390f35b6104916004803603602081101561047b57600080fd5b8101908080359060200190929190505050610cfd565b005b6104bf600480360360208110156104a957600080fd5b8101908080359060200190929190505050610dcf565b005b6104c9610f60565b6040518082815260200191505060405180910390f35b610517600480360360408110156104f557600080fd5b8101908080359060200190929190803515159060200190929190505050610f6a565b6040518082815260200191505060405180910390f35b6105596004803603602081101561054357600080fd5b8101908080359060200190929190505050611021565b005b61059d6004803603602081101561057157600080fd5b81019080803573ffffffffffffffffffffffffffffffffffffffff1690602001909291905050506110f3565b6040518082815260200191505060405180910390f35b6105bb6111de565b005b6105c5611364565b604051808273ffffffffffffffffffffffffffffffffffffffff16815260200191505060405180910390f35b6105f961138d565b6040518080602001828103825283818151815260200191508051906020019080838360005b8381101561063957808201518184015260208101905061061e565b50505050905090810190601f1680156106665780820380516001836020036101000a031916815260200191505b509250505060405180910390f35b6106c06004803603604081101561068a57600080fd5b81019080803573ffffffffffffffffffffffffffffffffffffffff1690602001909291908035906020019092919050505061142f565b60405180821515815260200191505060405180910390f35b6106e06114fc565b005b61072e600480360360408110156106f857600080fd5b81019080803573ffffffffffffffffffffffffffffffffffffffff16906020019092919080359060200190929190505050611719565b60405180821515815260200191505060405180910390f35b61074e611737565b6040518082815260200191505060405180910390f35b6107a66004803603602081101561077a57600080fd5b81019080803573ffffffffffffffffffffffffffffffffffffffff169060200190929190505050611741565b60405180821515815260200191505060405180910390f35b6107ea600480360360208110156107d457600080fd5b8101908080359060200190929190505050611797565b005b61084e6004803603604081101561080257600080fd5b81019080803573ffffffffffffffffffffffffffffffffffffffff169060200190929190803573ffffffffffffffffffffffffffffffffffffffff169060200190929190505050611988565b6040518082815260200191505060405180910390f35b6108a66004803603602081101561087a57600080fd5b81019080803573ffffffffffffffffffffffffffffffffffffffff169060200190929190505050611a0f565b005b6108ea600480360360208110156108be57600080fd5b81019080803573ffffffffffffffffffffffffffffffffffffffff169060200190929190505050611dc2565b005b61092e6004803603602081101561090257600080fd5b81019080803573ffffffffffffffffffffffffffffffffffffffff169060200190929190505050611fcd565b005b6060600c8054600181600116156101000203166002900480601f0160208091040260200160405190810160405280929190818152602001828054600181600116156101000203166002900480156109c85780601f1061099d576101008083540402835291602001916109c8565b820191906000526020600020905b8154815290600101906020018083116109ab57829003601f168201915b5050505050905090565b60006109e66109df612357565b848461235f565b6001905092915050565b6000600a54905090565b6000600854905090565b610a0c612357565b73ffffffffffffffffffffffffffffffffffffffff1660008054906101000a900473ffffffffffffffffffffffffffffffffffffffff1673ffffffffffffffffffffffffffffffffffffffff1614610acc576040517f08c379a00000000000000000000000000000000000000000000000000000000081526004018080602001828103825260208152602001807f4f776e61626c653a2063616c6c6572206973206e6f7420746865206f776e657281525060200191505060405180910390fd5b8060118190555050565b6000610ae3848484612556565b610ba484610aef612357565b610b9f85604051806060016040528060288152602001613d4c60289139600560008b73ffffffffffffffffffffffffffffffffffffffff1673ffffffffffffffffffffffffffffffffffffffff1681526020019081526020016000206000610b55612357565b73ffffffffffffffffffffffffffffffffffffffff1673ffffffffffffffffffffffffffffffffffffffff16815260200190815260200160002054612a869092919063ffffffff16565b61235f565b600190509392505050565b6000600954821115610c0c576040517f08c379a000000000000000000000000000000000000000000000000000000000815260040180806020018281038252602a815260200180613c91602a913960400191505060405180910390fd5b6000610c16612b46565b9050610c2b8184612b7190919063ffffffff16565b915050919050565b6000600e60009054906101000a900460ff16905090565b6000610cf3610c57612357565b84610cee8560056000610c68612357565b73ffffffffffffffffffffffffffffffffffffffff1673ffffffffffffffffffffffffffffffffffffffff16815260200190815260200160002060008973ffffffffffffffffffffffffffffffffffffffff1673ffffffffffffffffffffffffffffffffffffffff16815260200190815260200160002054612bbb90919063ffffffff16565b61235f565b6001905092915050565b610d05612357565b73ffffffffffffffffffffffffffffffffffffffff1660008054906101000a900473ffffffffffffffffffffffffffffffffffffffff1673ffffffffffffffffffffffffffffffffffffffff1614610dc5576040517f08c379a00000000000000000000000000000000000000000000000000000000081526004018080602001828103825260208152602001807f4f776e61626c653a2063616c6c6572206973206e6f7420746865206f776e657281525060200191505060405180910390fd5b8060108190555050565b6000610dd9612357565b9050600660008273ffffffffffffffffffffffffffffffffffffffff1673ffffffffffffffffffffffffffffffffffffffff16815260200190815260200160002060009054906101000a900460ff1615610e7e576040517f08c379a000000000000000000000000000000000000000000000000000000000815260040180806020018281038252602c815260200180613e08602c913960400191505060405180910390fd5b6000610e8983612c43565b50505050509050610ee281600360008573ffffffffffffffffffffffffffffffffffffffff1673ffffffffffffffffffffffffffffffffffffffff16815260200190815260200160002054612cab90919063ffffffff16565b600360008473ffffffffffffffffffffffffffffffffffffffff1673ffffffffffffffffffffffffffffffffffffffff16815260200190815260200160002081905550610f3a81600954612cab90919063ffffffff16565b600981905550610f5583600a54612bbb90919063ffffffff16565b600a81905550505050565b6000600b54905090565b6000600854831115610fe4576040517f08c379a000000000000000000000000000000000000000000000000000000000815260040180806020018281038252601f8152602001807f416d6f756e74206d757374206265206c657373207468616e20737570706c790081525060200191505060405180910390fd5b81611004576000610ff484612c43565b505050505090508091505061101b565b600061100f84612c43565b50505050915050809150505b92915050565b611029612357565b73ffffffffffffffffffffffffffffffffffffffff1660008054906101000a900473ffffffffffffffffffffffffffffffffffffffff1673ffffffffffffffffffffffffffffffffffffffff16146110e9576040517f08c379a00000000000000000000000000000000000000000000000000000000081526004018080602001828103825260208152602001807f4f776e61626c653a2063616c6c6572206973206e6f7420746865206f776e657281525060200191505060405180910390fd5b80600f8190555050565b6000600660008373ffffffffffffffffffffffffffffffffffffffff1673ffffffffffffffffffffffffffffffffffffffff16815260200190815260200160002060009054906101000a900460ff161561118e57600460008373ffffffffffffffffffffffffffffffffffffffff1673ffffffffffffffffffffffffffffffffffffffff1681526020019081526020016000205490506111d9565b6111d6600360008473ffffffffffffffffffffffffffffffffffffffff1673ffffffffffffffffffffffffffffffffffffffff16815260200190815260200160002054610baf565b90505b919050565b6111e6612357565b73ffffffffffffffffffffffffffffffffffffffff1660008054906101000a900473ffffffffffffffffffffffffffffffffffffffff1673ffffffffffffffffffffffffffffffffffffffff16146112a6576040517f08c379a00000000000000000000000000000000000000000000000000000000081526004018080602001828103825260208152602001807f4f776e61626c653a2063616c6c6572206973206e6f7420746865206f776e657281525060200191505060405180910390fd5b600073ffffffffffffffffffffffffffffffffffffffff1660008054906101000a900473ffffffffffffffffffffffffffffffffffffffff1673ffffffffffffffffffffffffffffffffffffffff167f8be0079c531659141344cd1fd0a4f28419497f9722a3daafe3b4186f6b6457e060405160405180910390a360008060006101000a81548173ffffffffffffffffffffffffffffffffffffffff021916908373ffffffffffffffffffffffffffffffffffffffff160217905550565b60008060009054906101000a900473ffffffffffffffffffffffffffffffffffffffff16905090565b6060600d8054600181600116156101000203166002900480601f0160208091040260200160405190810160405280929190818152602001828054600181600116156101000203166002900480156114255780601f106113fa57610100808354040283529160200191611425565b820191906000526020600020905b81548152906001019060200180831161140857829003601f168201915b5050505050905090565b60006114f261143c612357565b846114ed85604051806060016040528060258152602001613e576025913960056000611466612357565b73ffffffffffffffffffffffffffffffffffffffff1673ffffffffffffffffffffffffffffffffffffffff16815260200190815260200160002060008a73ffffffffffffffffffffffffffffffffffffffff1673ffffffffffffffffffffffffffffffffffffffff16815260200190815260200160002054612a869092919063ffffffff16565b61235f565b6001905092915050565b3373ffffffffffffffffffffffffffffffffffffffff16600160009054906101000a900473ffffffffffffffffffffffffffffffffffffffff1673ffffffffffffffffffffffffffffffffffffffff16146115a2576040517f08c379a0000000000000000000000000000000000000000000000000000000008152600401808060200182810382526023815260200180613e346023913960400191505060405180910390fd5b6002544211611619576040517f08c379a000000000000000000000000000000000000000000000000000000000815260040180806020018281038252601f8152602001807f436f6e7472616374206973206c6f636b656420756e74696c203720646179730081525060200191505060405180910390fd5b600160009054906101000a900473ffffffffffffffffffffffffffffffffffffffff1673ffffffffffffffffffffffffffffffffffffffff1660008054906101000a900473ffffffffffffffffffffffffffffffffffffffff1673ffffffffffffffffffffffffffffffffffffffff167f8be0079c531659141344cd1fd0a4f28419497f9722a3daafe3b4186f6b6457e060405160405180910390a3600160009054906101000a900473ffffffffffffffffffffffffffffffffffffffff166000806101000a81548173ffffffffffffffffffffffffffffffffffffffff021916908373ffffffffffffffffffffffffffffffffffffffff160217905550565b600061172d611726612357565b8484612556565b6001905092915050565b6000600254905090565b6000600660008373ffffffffffffffffffffffffffffffffffffffff1673ffffffffffffffffffffffffffffffffffffffff16815260200190815260200160002060009054906101000a900460ff169050919050565b61179f612357565b73ffffffffffffffffffffffffffffffffffffffff1660008054906101000a900473ffffffffffffffffffffffffffffffffffffffff1673ffffffffffffffffffffffffffffffffffffffff161461185f576040517f08c379a00000000000000000000000000000000000000000000000000000000081526004018080602001828103825260208152602001807f4f776e61626c653a2063616c6c6572206973206e6f7420746865206f776e657281525060200191505060405180910390fd5b60008054906101000a900473ffffffffffffffffffffffffffffffffffffffff16600160006101000a81548173ffffffffffffffffffffffffffffffffffffffff021916908373ffffffffffffffffffffffffffffffffffffffff16021790555060008060006101000a81548173ffffffffffffffffffffffffffffffffffffffff021916908373ffffffffffffffffffffffffffffffffffffffff160217905550804201600281905550600073ffffffffffffffffffffffffffffffffffffffff1660008054906101000a900473ffffffffffffffffffffffffffffffffffffffff1673ffffffffffffffffffffffffffffffffffffffff167f8be0079c531659141344cd1fd0a4f28419497f9722a3daafe3b4186f6b6457e060405160405180910390a350565b6000600560008473ffffffffffffffffffffffffffffffffffffffff1673ffffffffffffffffffffffffffffffffffffffff16815260200190815260200160002060008373ffffffffffffffffffffffffffffffffffffffff1673ffffffffffffffffffffffffffffffffffffffff16815260200190815260200160002054905092915050565b611a17612357565b73ffffffffffffffffffffffffffffffffffffffff1660008054906101000a900473ffffffffffffffffffffffffffffffffffffffff1673ffffffffffffffffffffffffffffffffffffffff1614611ad7576040517f08c379a00000000000000000000000000000000000000000000000000000000081526004018080602001828103825260208152602001807f4f776e61626c653a2063616c6c6572206973206e6f7420746865206f776e657281525060200191505060405180910390fd5b737a250d5630b4cf539739df2c5dacb4c659f2488d73ffffffffffffffffffffffffffffffffffffffff168173ffffffffffffffffffffffffffffffffffffffff161415611b70576040517f08c379a0000000000000000000000000000000000000000000000000000000008152600401808060200182810382526022815260200180613de66022913960400191505060405180910390fd5b600660008273ffffffffffffffffffffffffffffffffffffffff1673ffffffffffffffffffffffffffffffffffffffff16815260200190815260200160002060009054906101000a900460ff1615611c30576040517f08c379a000000000000000000000000000000000000000000000000000000000815260040180806020018281038252601b8152602001807f4163636f756e7420697320616c7265616479206578636c75646564000000000081525060200191505060405180910390fd5b6000600360008373ffffffffffffffffffffffffffffffffffffffff1673ffffffffffffffffffffffffffffffffffffffff168152602001908152602001600020541115611d0457611cc0600360008373ffffffffffffffffffffffffffffffffffffffff1673ffffffffffffffffffffffffffffffffffffffff16815260200190815260200160002054610baf565b600460008373ffffffffffffffffffffffffffffffffffffffff1673ffffffffffffffffffffffffffffffffffffffff168152602001908152602001600020819055505b6001600660008373ffffffffffffffffffffffffffffffffffffffff1673ffffffffffffffffffffffffffffffffffffffff16815260200190815260200160002060006101000a81548160ff0219169083151502179055506007819080600181540180825580915050600190039060005260206000200160009091909190916101000a81548173ffffffffffffffffffffffffffffffffffffffff021916908373ffffffffffffffffffffffffffffffffffffffff16021790555050565b611dca612357565b73ffffffffffffffffffffffffffffffffffffffff1660008054906101000a900473ffffffffffffffffffffffffffffffffffffffff1673ffffffffffffffffffffffffffffffffffffffff1614611e8a576040517f08c379a00000000000000000000000000000000000000000000000000000000081526004018080602001828103825260208152602001807f4f776e61626c653a2063616c6c6572206973206e6f7420746865206f776e657281525060200191505060405180910390fd5b600073ffffffffffffffffffffffffffffffffffffffff168173ffffffffffffffffffffffffffffffffffffffff161415611f10576040517f08c379a0000000000000000000000000000000000000000000000000000000008152600401808060200182810382526026815260200180613cbb6026913960400191505060405180910390fd5b8073ffffffffffffffffffffffffffffffffffffffff1660008054906101000a900473ffffffffffffffffffffffffffffffffffffffff1673ffffffffffffffffffffffffffffffffffffffff167f8be0079c531659141344cd1fd0a4f28419497f9722a3daafe3b4186f6b6457e060405160405180910390a3806000806101000a81548173ffffffffffffffffffffffffffffffffffffffff021916908373ffffffffffffffffffffffffffffffffffffffff16021790555050565b611fd5612357565b73ffffffffffffffffffffffffffffffffffffffff1660008054906101000a900473ffffffffffffffffffffffffffffffffffffffff1673ffffffffffffffffffffffffffffffffffffffff1614612095576040517f08c379a00000000000000000000000000000000000000000000000000000000081526004018080602001828103825260208152602001807f4f776e61626c653a2063616c6c6572206973206e6f7420746865206f776e657281525060200191505060405180910390fd5b600660008273ffffffffffffffffffffffffffffffffffffffff1673ffffffffffffffffffffffffffffffffffffffff16815260200190815260200160002060009054906101000a900460ff16612154576040517f08c379a000000000000000000000000000000000000000000000000000000000815260040180806020018281038252601b8152602001807f4163636f756e7420697320616c7265616479206578636c75646564000000000081525060200191505060405180910390fd5b60005b600780549050811015612353578173ffffffffffffffffffffffffffffffffffffffff166007828154811061218857fe5b9060005260206000200160009054906101000a900473ffffffffffffffffffffffffffffffffffffffff1673ffffffffffffffffffffffffffffffffffffffff161415612346576007600160078054905003815481106121e457fe5b9060005260206000200160009054906101000a900473ffffffffffffffffffffffffffffffffffffffff166007828154811061221c57fe5b9060005260206000200160006101000a81548173ffffffffffffffffffffffffffffffffffffffff021916908373ffffffffffffffffffffffffffffffffffffffff1602179055506000600460008473ffffffffffffffffffffffffffffffffffffffff1673ffffffffffffffffffffffffffffffffffffffff168152602001908152602001600020819055506000600660008473ffffffffffffffffffffffffffffffffffffffff1673ffffffffffffffffffffffffffffffffffffffff16815260200190815260200160002060006101000a81548160ff021916908315150217905550600780548061230c57fe5b6001900381819060005260206000200160006101000a81549073ffffffffffffffffffffffffffffffffffffffff02191690559055612353565b8080600101915050612157565b5050565b600033905090565b600073ffffffffffffffffffffffffffffffffffffffff168373ffffffffffffffffffffffffffffffffffffffff1614156123e5576040517f08c379a0000000000000000000000000000000000000000000000000000000008152600401808060200182810382526024815260200180613dc26024913960400191505060405180910390fd5b600073ffffffffffffffffffffffffffffffffffffffff168273ffffffffffffffffffffffffffffffffffffffff16141561246b576040517f08c379a0000000000000000000000000000000000000000000000000000000008152600401808060200182810382526022815260200180613ce16022913960400191505060405180910390fd5b80600560008573ffffffffffffffffffffffffffffffffffffffff1673ffffffffffffffffffffffffffffffffffffffff16815260200190815260200160002060008473ffffffffffffffffffffffffffffffffffffffff1673ffffffffffffffffffffffffffffffffffffffff168152602001908152602001600020819055508173ffffffffffffffffffffffffffffffffffffffff168373ffffffffffffffffffffffffffffffffffffffff167f8c5be1e5ebec7d5bd14f71427d1e84f3dd0314c0f7b2291e5b200ac8c7c3b925836040518082815260200191505060405180910390a3505050565b600073ffffffffffffffffffffffffffffffffffffffff168373ffffffffffffffffffffffffffffffffffffffff1614156125dc576040517f08c379a0000000000000000000000000000000000000000000000000000000008152600401808060200182810382526025815260200180613d9d6025913960400191505060405180910390fd5b600073ffffffffffffffffffffffffffffffffffffffff168273ffffffffffffffffffffffffffffffffffffffff161415612662576040517f08c379a0000000000000000000000000000000000000000000000000000000008152600401808060200182810382526023815260200180613c6e6023913960400191505060405180910390fd5b600081116126bb576040517f08c379a0000000000000000000000000000000000000000000000000000000008152600401808060200182810382526029815260200180613d746029913960400191505060405180910390fd5b6126c3611364565b73ffffffffffffffffffffffffffffffffffffffff168373ffffffffffffffffffffffffffffffffffffffff16141580156127315750612701611364565b73ffffffffffffffffffffffffffffffffffffffff168273ffffffffffffffffffffffffffffffffffffffff1614155b1561279257601154811115612791576040517f08c379a0000000000000000000000000000000000000000000000000000000008152600401808060200182810382526028815260200180613d036028913960400191505060405180910390fd5b5b600660008473ffffffffffffffffffffffffffffffffffffffff1673ffffffffffffffffffffffffffffffffffffffff16815260200190815260200160002060009054906101000a900460ff1680156128355750600660008373ffffffffffffffffffffffffffffffffffffffff1673ffffffffffffffffffffffffffffffffffffffff16815260200190815260200160002060009054906101000a900460ff16155b1561284a57612845838383612cf5565b612a81565b600660008473ffffffffffffffffffffffffffffffffffffffff1673ffffffffffffffffffffffffffffffffffffffff16815260200190815260200160002060009054906101000a900460ff161580156128ed5750600660008373ffffffffffffffffffffffffffffffffffffffff1673ffffffffffffffffffffffffffffffffffffffff16815260200190815260200160002060009054906101000a900460ff165b15612902576128fd838383612f73565b612a80565b600660008473ffffffffffffffffffffffffffffffffffffffff1673ffffffffffffffffffffffffffffffffffffffff16815260200190815260200160002060009054906101000a900460ff161580156129a65750600660008373ffffffffffffffffffffffffffffffffffffffff1673ffffffffffffffffffffffffffffffffffffffff16815260200190815260200160002060009054906101000a900460ff16155b156129bb576129b68383836131f1565b612a7f565b600660008473ffffffffffffffffffffffffffffffffffffffff1673ffffffffffffffffffffffffffffffffffffffff16815260200190815260200160002060009054906101000a900460ff168015612a5d5750600660008373ffffffffffffffffffffffffffffffffffffffff1673ffffffffffffffffffffffffffffffffffffffff16815260200190815260200160002060009054906101000a900460ff165b15612a7257612a6d8383836133da565b612a7e565b612a7d8383836131f1565b5b5b5b5b505050565b6000838311158290612b33576040517f08c379a00000000000000000000000000000000000000000000000000000000081526004018080602001828103825283818151815260200191508051906020019080838360005b83811015612af8578082015181840152602081019050612add565b50505050905090810190601f168015612b255780820380516001836020036101000a031916815260200191505b509250505060405180910390fd5b5060008385039050809150509392505050565b6000806000612b536136ed565b91509150612b6a8183612b7190919063ffffffff16565b9250505090565b6000612bb383836040518060400160405280601a81526020017f536166654d6174683a206469766973696f6e206279207a65726f00000000000081525061397e565b905092915050565b600080828401905083811015612c39576040517f08c379a000000000000000000000000000000000000000000000000000000000815260040180806020018281038252601b8152602001807f536166654d6174683a206164646974696f6e206f766572666c6f77000000000081525060200191505060405180910390fd5b8091505092915050565b6000806000806000806000806000612c608a600f54601054613a44565b9250925092506000612c70612b46565b90506000806000612c838e878787613ada565b9250925092508282828989899c509c509c509c509c509c505050505050505091939550919395565b6000612ced83836040518060400160405280601e81526020017f536166654d6174683a207375627472616374696f6e206f766572666c6f770000815250612a86565b905092915050565b6000612cff612b46565b9050600080600080600080612d1388612c43565b9550955095509550955095506000612d348883613b6390919063ffffffff16565b9050612d8889600460008e73ffffffffffffffffffffffffffffffffffffffff1673ffffffffffffffffffffffffffffffffffffffff16815260200190815260200160002054612cab90919063ffffffff16565b600460008d73ffffffffffffffffffffffffffffffffffffffff1673ffffffffffffffffffffffffffffffffffffffff16815260200190815260200160002081905550612e1d87600360008e73ffffffffffffffffffffffffffffffffffffffff1673ffffffffffffffffffffffffffffffffffffffff16815260200190815260200160002054612cab90919063ffffffff16565b600360008d73ffffffffffffffffffffffffffffffffffffffff1673ffffffffffffffffffffffffffffffffffffffff16815260200190815260200160002081905550612eb286600360008d73ffffffffffffffffffffffffffffffffffffffff1673ffffffffffffffffffffffffffffffffffffffff16815260200190815260200160002054612bbb90919063ffffffff16565b600360008c73ffffffffffffffffffffffffffffffffffffffff1673ffffffffffffffffffffffffffffffffffffffff16815260200190815260200160002081905550612f0185828585613be9565b8973ffffffffffffffffffffffffffffffffffffffff168b73ffffffffffffffffffffffffffffffffffffffff167fddf252ad1be2c89b69c2b068fc378daa952ba7f163c4a11628f55a4df523b3ef866040518082815260200191505060405180910390a35050505050505050505050565b6000612f7d612b46565b9050600080600080600080612f9188612c43565b9550955095509550955095506000612fb28883613b6390919063ffffffff16565b905061300687600360008e73ffffffffffffffffffffffffffffffffffffffff1673ffffffffffffffffffffffffffffffffffffffff16815260200190815260200160002054612cab90919063ffffffff16565b600360008d73ffffffffffffffffffffffffffffffffffffffff1673ffffffffffffffffffffffffffffffffffffffff1681526020019081526020016000208190555061309b84600460008d73ffffffffffffffffffffffffffffffffffffffff1673ffffffffffffffffffffffffffffffffffffffff16815260200190815260200160002054612bbb90919063ffffffff16565b600460008c73ffffffffffffffffffffffffffffffffffffffff1673ffffffffffffffffffffffffffffffffffffffff1681526020019081526020016000208190555061313086600360008d73ffffffffffffffffffffffffffffffffffffffff1673ffffffffffffffffffffffffffffffffffffffff16815260200190815260200160002054612bbb90919063ffffffff16565b600360008c73ffffffffffffffffffffffffffffffffffffffff1673ffffffffffffffffffffffffffffffffffffffff1681526020019081526020016000208190555061317f85828585613be9565b8973ffffffffffffffffffffffffffffffffffffffff168b73ffffffffffffffffffffffffffffffffffffffff167fddf252ad1be2c89b69c2b068fc378daa952ba7f163c4a11628f55a4df523b3ef866040518082815260200191505060405180910390a35050505050505050505050565b60006131fb612b46565b905060008060008060008061320f88612c43565b95509550955095509550955060006132308883613b6390919063ffffffff16565b905061328487600360008e73ffffffffffffffffffffffffffffffffffffffff1673ffffffffffffffffffffffffffffffffffffffff16815260200190815260200160002054612cab90919063ffffffff16565b600360008d73ffffffffffffffffffffffffffffffffffffffff1673ffffffffffffffffffffffffffffffffffffffff1681526020019081526020016000208190555061331986600360008d73ffffffffffffffffffffffffffffffffffffffff1673ffffffffffffffffffffffffffffffffffffffff16815260200190815260200160002054612bbb90919063ffffffff16565b600360008c73ffffffffffffffffffffffffffffffffffffffff1673ffffffffffffffffffffffffffffffffffffffff1681526020019081526020016000208190555061336885828585613be9565b8973ffffffffffffffffffffffffffffffffffffffff168b73ffffffffffffffffffffffffffffffffffffffff167fddf252ad1be2c89b69c2b068fc378daa952ba7f163c4a11628f55a4df523b3ef866040518082815260200191505060405180910390a35050505050505050505050565b60006133e4612b46565b90506000806000806000806133f888612c43565b95509550955095509550955060006134198883613b6390919063ffffffff16565b905061346d89600460008e73ffffffffffffffffffffffffffffffffffffffff1673ffffffffffffffffffffffffffffffffffffffff16815260200190815260200160002054612cab90919063ffffffff16565b600460008d73ffffffffffffffffffffffffffffffffffffffff1673ffffffffffffffffffffffffffffffffffffffff1681526020019081526020016000208190555061350287600360008e73ffffffffffffffffffffffffffffffffffffffff1673ffffffffffffffffffffffffffffffffffffffff16815260200190815260200160002054612cab90919063ffffffff16565b600360008d73ffffffffffffffffffffffffffffffffffffffff1673ffffffffffffffffffffffffffffffffffffffff1681526020019081526020016000208190555061359784600460008d73ffffffffffffffffffffffffffffffffffffffff1673ffffffffffffffffffffffffffffffffffffffff16815260200190815260200160002054612bbb90919063ffffffff16565b600460008c73ffffffffffffffffffffffffffffffffffffffff1673ffffffffffffffffffffffffffffffffffffffff1681526020019081526020016000208190555061362c86600360008d73ffffffffffffffffffffffffffffffffffffffff1673ffffffffffffffffffffffffffffffffffffffff16815260200190815260200160002054612bbb90919063ffffffff16565b600360008c73ffffffffffffffffffffffffffffffffffffffff1673ffffffffffffffffffffffffffffffffffffffff1681526020019081526020016000208190555061367b85828585613be9565b8973ffffffffffffffffffffffffffffffffffffffff168b73ffffffffffffffffffffffffffffffffffffffff167fddf252ad1be2c89b69c2b068fc378daa952ba7f163c4a11628f55a4df523b3ef866040518082815260200191505060405180910390a35050505050505050505050565b600080600060095490506000600854905060005b6007805490508110156139415782600360006007848154811061372057fe5b9060005260206000200160009054906101000a900473ffffffffffffffffffffffffffffffffffffffff1673ffffffffffffffffffffffffffffffffffffffff1673ffffffffffffffffffffffffffffffffffffffff168152602001908152602001600020541180613807575081600460006007848154811061379f57fe5b9060005260206000200160009054906101000a900473ffffffffffffffffffffffffffffffffffffffff1673ffffffffffffffffffffffffffffffffffffffff1673ffffffffffffffffffffffffffffffffffffffff16815260200190815260200160002054115b1561381e576009546008549450945050505061397a565b6138a7600360006007848154811061383257fe5b9060005260206000200160009054906101000a900473ffffffffffffffffffffffffffffffffffffffff1673ffffffffffffffffffffffffffffffffffffffff1673ffffffffffffffffffffffffffffffffffffffff1681526020019081526020016000205484612cab90919063ffffffff16565b925061393260046000600784815481106138bd57fe5b9060005260206000200160009054906101000a900473ffffffffffffffffffffffffffffffffffffffff1673ffffffffffffffffffffffffffffffffffffffff1673ffffffffffffffffffffffffffffffffffffffff1681526020019081526020016000205483612cab90919063ffffffff16565b91508080600101915050613701565b50613959600854600954612b7190919063ffffffff16565b8210156139715760095460085493509350505061397a565b81819350935050505b9091565b60008083118290613a2a576040517f08c379a00000000000000000000000000000000000000000000000000000000081526004018080602001828103825283818151815260200191508051906020019080838360005b838110156139ef5780820151818401526020810190506139d4565b50505050905090810190601f168015613a1c5780820380516001836020036101000a031916815260200191505b509250505060405180910390fd5b506000838581613a3657fe5b049050809150509392505050565b600080600080613a706064613a62888a613b6390919063ffffffff16565b612b7190919063ffffffff16565b90506000613a9a6064613a8c888b613b6390919063ffffffff16565b612b7190919063ffffffff16565b90506000613ac382613ab5858c612cab90919063ffffffff16565b612cab90919063ffffffff16565b905080838395509550955050505093509350939050565b600080600080613af38589613b6390919063ffffffff16565b90506000613b0a8689613b6390919063ffffffff16565b90506000613b218789613b6390919063ffffffff16565b90506000613b4a82613b3c8587612cab90919063ffffffff16565b612cab90919063ffffffff16565b9050838184965096509650505050509450945094915050565b600080831415613b765760009050613be3565b6000828402905082848281613b8757fe5b0414613bde576040517f08c379a0000000000000000000000000000000000000000000000000000000008152600401808060200182810382526021815260200180613d2b6021913960400191505060405180910390fd5b809150505b92915050565b613c1083613c0286600954612cab90919063ffffffff16565b612cab90919063ffffffff16565b600981905550613c2b82600a54612bbb90919063ffffffff16565b600a81905550613c4681600b54612bbb90919063ffffffff16565b600b81905550613c6181600854612cab90919063ffffffff16565b6008819055505050505056fe45524332303a207472616e7366657220746f20746865207a65726f2061646472657373416d6f756e74206d757374206265206c657373207468616e20746f74616c207265666c656374696f6e734f776e61626c653a206e6577206f776e657220697320746865207a65726f206164647265737345524332303a20617070726f766520746f20746865207a65726f20616464726573735472616e7366657220616d6f756e74206578636565647320746865206d61785478416d6f756e742e536166654d6174683a206d756c7469706c69636174696f6e206f766572666c6f7745524332303a207472616e7366657220616d6f756e74206578636565647320616c6c6f77616e63655472616e7366657220616d6f756e74206d7573742062652067726561746572207468616e207a65726f45524332303a207472616e736665722066726f6d20746865207a65726f206164647265737345524332303a20617070726f76652066726f6d20746865207a65726f206164647265737357652063616e206e6f74206578636c75646520556e697377617020726f757465722e4578636c75646564206164647265737365732063616e6e6f742063616c6c20746869732066756e6374696f6e596f7520646f6e27742068617665207065726d697373696f6e20746f20756e6c6f636b45524332303a2064656372656173656420616c6c6f77616e63652062656c6f77207a65726fa2646970667358221220b65cde5342064f31df707c72e458ddf0dfe1eb7330f0507a11b68fa0b864dc4964736f6c634300060c0033"}}