{
  "opcodeHash": "0x5303cfd224ba84a257ce2a245428ee6c0aa17a07aba825c032f0dd9da005dc93",
  "metalessHash": "0x25d9ae043ae8c075717c6d614ef06da3903a625c5f33bec6b6bbdfe7fbb34922",
  "runtimeHash": "0x1b3dfa44cdfe22c58a9995d44850860486a99cd158da92e0478f0567f3bb80f4",
  "encodedMetadata": [
    {
      "ipfs": "/ipfs/QmYqKUre7HYXwqxTMV51TRdpgULzfrFDWCtw4HUE1dW7po",
      "solc": "0.8.9"
    }
  ],
  "abi": [
    {
      "inputs": [
        {
          "internalType": "string",
          "name": "baseURI",
          "type": "string"
        }
      ],
      "stateMutability": "nonpayable",
      "type": "constructor"
    },
    {
      "anonymous": false,
      "inputs": [
        {
          "indexed": true,
          "internalType": "address",
          "name": "owner",
          "type": "address"
        },
        {
          "indexed": true,
          "internalType": "address",
          "name": "approved",
          "type": "address"
        },
        {
          "indexed": true,
          "internalType": "uint256",
          "name": "tokenId",
          "type": "uint256"
        }
      ],
      "name": "Approval",
      "type": "event"
    },
    {
      "anonymous": false,
      "inputs": [
        {
          "indexed": true,
          "internalType": "address",
          "name": "owner",
          "type": "address"
        },
        {
          "indexed": true,
          "internalType": "address",
          "name": "operator",
          "type": "address"
        },
        {
          "indexed": false,
          "internalType": "bool",
          "name": "approved",
          "type": "bool"
        }
      ],
      "name": "ApprovalForAll",
      "type": "event"
    },
    {
      "anonymous": false,
      "inputs": [
        {
          "indexed": true,
          "internalType": "address",
          "name": "previousOwner",
          "type": "address"
        },
        {
          "indexed": true,
          "internalType": "address",
          "name": "newOwner",
          "type": "address"
        }
      ],
      "name": "OwnershipTransferred",
      "type": "event"
    },
    {
      "anonymous": false,
      "inputs": [
        {
          "indexed": false,
          "internalType": "string",
          "name": "_value",
          "type": "string"
        },
        {
          "indexed": true,
          "internalType": "uint256",
          "name": "_id",
          "type": "uint256"
        }
      ],
      "name": "PermanentURI",
      "type": "event"
    },
    {
      "anonymous": false,
      "inputs": [
        {
          "indexed": true,
          "internalType": "address",
          "name": "from",
          "type": "address"
        },
        {
          "indexed": true,
          "internalType": "address",
          "name": "to",
          "type": "address"
        },
        {
          "indexed": true,
          "internalType": "uint256",
          "name": "tokenId",
          "type": "uint256"
        }
      ],
      "name": "Transfer",
      "type": "event"
    },
    {
      "inputs": [
        {
          "internalType": "bytes4",
          "name": "interfaceId",
          "type": "bytes4"
        }
      ],
      "name": "_supportsRoyaltyInterfaces",
      "outputs": [
        {
          "internalType": "bool",
          "name": "",
          "type": "bool"
        }
      ],
      "stateMutability": "pure",
      "type": "function"
    },
    {
      "inputs": [
        {
          "internalType": "address",
          "name": "to",
          "type": "address"
        },
        {
          "internalType": "uint256",
          "name": "tokenId",
          "type": "uint256"
        }
      ],
      "name": "approve",
      "outputs": [],
      "stateMutability": "nonpayable",
      "type": "function"
    },
    {
      "inputs": [
        {
          "internalType": "address",
          "name": "owner",
          "type": "address"
        }
      ],
      "name": "balanceOf",
      "outputs": [
        {
          "internalType": "uint256",
          "name": "",
          "type": "uint256"
        }
      ],
      "stateMutability": "view",
      "type": "function"
    },
    {
      "inputs": [
        {
          "internalType": "uint256",
          "name": "tokenId",
          "type": "uint256"
        }
      ],
      "name": "burn",
      "outputs": [],
      "stateMutability": "nonpayable",
      "type": "function"
    },
    {
      "inputs": [
        {
          "internalType": "uint256",
          "name": "tokenId",
          "type": "uint256"
        }
      ],
      "name": "getApproved",
      "outputs": [
        {
          "internalType": "address",
          "name": "",
          "type": "address"
        }
      ],
      "stateMutability": "view",
      "type": "function"
    },
    {
      "inputs": [
        {
          "internalType": "uint256",
          "name": "tokenId",
          "type": "uint256"
        }
      ],
      "name": "getFeeBps",
      "outputs": [
        {
          "internalType": "uint256[]",
          "name": "",
          "type": "uint256[]"
        }
      ],
      "stateMutability": "view",
      "type": "function"
    },
    {
      "inputs": [
        {
          "internalType": "uint256",
          "name": "tokenId",
          "type": "uint256"
        }
      ],
      "name": "getFeeRecipients",
      "outputs": [
        {
          "internalType": "address payable[]",
          "name": "",
          "type": "address[]"
        }
      ],
      "stateMutability": "view",
      "type": "function"
    },
    {
      "inputs": [
        {
          "internalType": "uint256",
          "name": "tokenId",
          "type": "uint256"
        }
      ],
      "name": "getFees",
      "outputs": [
        {
          "internalType": "address payable[]",
          "name": "",
          "type": "address[]"
        },
        {
          "internalType": "uint256[]",
          "name": "",
          "type": "uint256[]"
        }
      ],
      "stateMutability": "view",
      "type": "function"
    },
    {
      "inputs": [
        {
          "internalType": "address",
          "name": "owner",
          "type": "address"
        },
        {
          "internalType": "address",
          "name": "operator",
          "type": "address"
        }
      ],
      "name": "isApprovedForAll",
      "outputs": [
        {
          "internalType": "bool",
          "name": "",
          "type": "bool"
        }
      ],
      "stateMutability": "view",
      "type": "function"
    },
    {
      "inputs": [
        {
          "internalType": "address",
          "name": "to",
          "type": "address"
        },
        {
          "internalType": "uint256",
          "name": "tokenId",
          "type": "uint256"
        },
        {
          "internalType": "string",
          "name": "_tokenURI",
          "type": "string"
        },
        {
          "internalType": "address payable",
          "name": "receiver",
          "type": "address"
        },
        {
          "internalType": "uint256",
          "name": "basisPoints",
          "type": "uint256"
        },
        {
          "internalType": "uint8",
          "name": "v",
          "type": "uint8"
        },
        {
          "internalType": "bytes32",
          "name": "r",
          "type": "bytes32"
        },
        {
          "internalType": "bytes32",
          "name": "s",
          "type": "bytes32"
        }
      ],
      "name": "mint",
      "outputs": [],
      "stateMutability": "nonpayable",
      "type": "function"
    },
    {
      "inputs": [
        {
          "internalType": "address",
          "name": "to",
          "type": "address"
        },
        {
          "internalType": "uint256",
          "name": "tokenId",
          "type": "uint256"
        },
        {
          "internalType": "string[]",
          "name": "_tokenURIs",
          "type": "string[]"
        },
        {
          "internalType": "address payable",
          "name": "receiver",
          "type": "address"
        },
        {
          "internalType": "uint256",
          "name": "basisPoints",
          "type": "uint256"
        },
        {
          "internalType": "uint8",
          "name": "v",
          "type": "uint8"
        },
        {
          "internalType": "bytes32",
          "name": "r",
          "type": "bytes32"
        },
        {
          "internalType": "bytes32",
          "name": "s",
          "type": "bytes32"
        }
      ],
      "name": "mintBulk",
      "outputs": [],
      "stateMutability": "nonpayable",
      "type": "function"
    },
    {
      "inputs": [
        {
          "internalType": "address",
          "name": "_to",
          "type": "address"
        },
        {
          "internalType": "uint256",
          "name": "tokenId",
          "type": "uint256"
        },
        {
          "internalType": "string[]",
          "name": "_tokenURIs",
          "type": "string[]"
        },
        {
          "internalType": "address payable",
          "name": "receiver",
          "type": "address"
        },
        {
          "internalType": "uint256",
          "name": "basisPoints",
          "type": "uint256"
        },
        {
          "internalType": "uint8",
          "name": "v",
          "type": "uint8"
        },
        {
          "internalType": "bytes32",
          "name": "r",
          "type": "bytes32"
        },
        {
          "internalType": "bytes32",
          "name": "s",
          "type": "bytes32"
        }
      ],
      "name": "mintBulkVerisart",
      "outputs": [],
      "stateMutability": "nonpayable",
      "type": "function"
    },
    {
      "inputs": [
        {
          "internalType": "address",
          "name": "_to",
          "type": "address"
        },
        {
          "internalType": "uint256",
          "name": "tokenId",
          "type": "uint256"
        },
        {
          "internalType": "string",
          "name": "_tokenURI",
          "type": "string"
        },
        {
          "internalType": "address payable",
          "name": "receiver",
          "type": "address"
        },
        {
          "internalType": "uint256",
          "name": "basisPoints",
          "type": "uint256"
        },
        {
          "internalType": "uint8",
          "name": "v",
          "type": "uint8"
        },
        {
          "internalType": "bytes32",
          "name": "r",
          "type": "bytes32"
        },
        {
          "internalType": "bytes32",
          "name": "s",
          "type": "bytes32"
        }
      ],
      "name": "mintVerisart",
      "outputs": [],
      "stateMutability": "nonpayable",
      "type": "function"
    },
    {
      "inputs": [],
      "name": "name",
      "outputs": [
        {
          "internalType": "string",
          "name": "",
          "type": "string"
        }
      ],
      "stateMutability": "view",
      "type": "function"
    },
    {
      "inputs": [],
      "name": "owner",
      "outputs": [
        {
          "internalType": "address",
          "name": "",
          "type": "address"
        }
      ],
      "stateMutability": "view",
      "type": "function"
    },
    {
      "inputs": [
        {
          "internalType": "uint256",
          "name": "tokenId",
          "type": "uint256"
        }
      ],
      "name": "ownerOf",
      "outputs": [
        {
          "internalType": "address",
          "name": "",
          "type": "address"
        }
      ],
      "stateMutability": "view",
      "type": "function"
    },
    {
      "inputs": [],
      "name": "renounceOwnership",
      "outputs": [],
      "stateMutability": "nonpayable",
      "type": "function"
    },
    {
      "inputs": [
        {
          "internalType": "uint256",
          "name": "tokenId",
          "type": "uint256"
        },
        {
          "internalType": "uint256",
          "name": "value",
          "type": "uint256"
        }
      ],
      "name": "royaltyInfo",
      "outputs": [
        {
          "internalType": "address",
          "name": "",
          "type": "address"
        },
        {
          "internalType": "uint256",
          "name": "",
          "type": "uint256"
        }
      ],
      "stateMutability": "view",
      "type": "function"
    },
    {
      "inputs": [
        {
          "internalType": "address",
          "name": "from",
          "type": "address"
        },
        {
          "internalType": "address",
          "name": "to",
          "type": "address"
        },
        {
          "internalType": "uint256",
          "name": "tokenId",
          "type": "uint256"
        }
      ],
      "name": "safeTransferFrom",
      "outputs": [],
      "stateMutability": "nonpayable",
      "type": "function"
    },
    {
      "inputs": [
        {
          "internalType": "address",
          "name": "from",
          "type": "address"
        },
        {
          "internalType": "address",
          "name": "to",
          "type": "address"
        },
        {
          "internalType": "uint256",
          "name": "tokenId",
          "type": "uint256"
        },
        {
          "internalType": "bytes",
          "name": "_data",
          "type": "bytes"
        }
      ],
      "name": "safeTransferFrom",
      "outputs": [],
      "stateMutability": "nonpayable",
      "type": "function"
    },
    {
      "inputs": [
        {
          "internalType": "address",
          "name": "operator",
          "type": "address"
        },
        {
          "internalType": "bool",
          "name": "approved",
          "type": "bool"
        }
      ],
      "name": "setApprovalForAll",
      "outputs": [],
      "stateMutability": "nonpayable",
      "type": "function"
    },
    {
      "inputs": [
        {
          "internalType": "bytes4",
          "name": "interfaceId",
          "type": "bytes4"
        }
      ],
      "name": "supportsInterface",
      "outputs": [
        {
          "internalType": "bool",
          "name": "",
          "type": "bool"
        }
      ],
      "stateMutability": "view",
      "type": "function"
    },
    {
      "inputs": [],
      "name": "symbol",
      "outputs": [
        {
          "internalType": "string",
          "name": "",
          "type": "string"
        }
      ],
      "stateMutability": "view",
      "type": "function"
    },
    {
      "inputs": [
        {
          "internalType": "uint256",
          "name": "index",
          "type": "uint256"
        }
      ],
      "name": "tokenByIndex",
      "outputs": [
        {
          "internalType": "uint256",
          "name": "",
          "type": "uint256"
        }
      ],
      "stateMutability": "view",
      "type": "function"
    },
    {
      "inputs": [
        {
          "internalType": "address",
          "name": "owner",
          "type": "address"
        },
        {
          "internalType": "uint256",
          "name": "index",
          "type": "uint256"
        }
      ],
      "name": "tokenOfOwnerByIndex",
      "outputs": [
        {
          "internalType": "uint256",
          "name": "",
          "type": "uint256"
        }
      ],
      "stateMutability": "view",
      "type": "function"
    },
    {
      "inputs": [
        {
          "internalType": "uint256",
          "name": "tokenId",
          "type": "uint256"
        }
      ],
      "name": "tokenURI",
      "outputs": [
        {
          "internalType": "string",
          "name": "",
          "type": "string"
        }
      ],
      "stateMutability": "view",
      "type": "function"
    },
    {
      "inputs": [],
      "name": "totalSupply",
      "outputs": [
        {
          "internalType": "uint256",
          "name": "",
          "type": "uint256"
        }
      ],
      "stateMutability": "view",
      "type": "function"
    },
    {
      "inputs": [
        {
          "internalType": "address",
          "name": "from",
          "type": "address"
        },
        {
          "internalType": "address",
          "name": "to",
          "type": "address"
        },
        {
          "internalType": "uint256",
          "name": "tokenId",
          "type": "uint256"
        }
      ],
      "name": "transferFrom",
      "outputs": [],
      "stateMutability": "nonpayable",
      "type": "function"
    },
    {
      "inputs": [
        {
          "internalType": "address",
          "name": "newOwner",
          "type": "address"
        }
      ],
      "name": "transferOwnership",
      "outputs": [],
      "stateMutability": "nonpayable",
      "type": "function"
    }
  ],
  "bytecode": {
    "object": "60806040523480156200001157600080fd5b506040516200307c3803806200307c8339810160408190526200003491620001e1565b604080518082018252600881526715995c9a5cd85c9d60c21b6020808301918252835180850190945260038452622b22a960e91b9084015281519192916200007f9160009162000125565b5080516200009590600190602084019062000125565b505050620000b2620000ac620000cf60201b60201c565b620000d3565b8051620000c790600e90602084019062000125565b5050620002fa565b3390565b600b80546001600160a01b038381166001600160a01b0319831681179093556040519116919082907f8be0079c531659141344cd1fd0a4f28419497f9722a3daafe3b4186f6b6457e090600090a35050565b8280546200013390620002bd565b90600052602060002090601f016020900481019282620001575760008555620001a2565b82601f106200017257805160ff1916838001178555620001a2565b82800160010185558215620001a2579182015b82811115620001a257825182559160200191906001019062000185565b50620001b0929150620001b4565b5090565b5b80821115620001b05760008155600101620001b5565b634e487b7160e01b600052604160045260246000fd5b60006020808385031215620001f557600080fd5b82516001600160401b03808211156200020d57600080fd5b818501915085601f8301126200022257600080fd5b815181811115620002375762000237620001cb565b604051601f8201601f19908116603f01168101908382118183101715620002625762000262620001cb565b8160405282815288868487010111156200027b57600080fd5b600093505b828410156200029f578484018601518185018701529285019262000280565b82841115620002b15760008684830101525b98975050505050505050565b600181811c90821680620002d257607f821691505b60208210811415620002f457634e487b7160e01b600052602260045260246000fd5b50919050565b612d72806200030a6000396000f3fe608060405234801561001057600080fd5b50600436106101cf5760003560e01c80634f6ccce71161010457806395d89b41116100a2578063c87b56dd11610071578063c87b56dd14610400578063d5a06d4c14610413578063e985e9c514610434578063f2fde38b1461047057600080fd5b806395d89b41146103b2578063a22cb465146103ba578063b88d4fde146103cd578063b9c4d9fb146103e057600080fd5b8063715018a6116100de578063715018a614610373578063729afc1f1461037b5780638c05a2331461038e5780638da5cb5b146103a157600080fd5b80634f6ccce71461033a5780636352211e1461034d57806370a082311461036057600080fd5b806323b872dd11610171578063307b52a61161014b578063307b52a6146102ee578063331584631461030157806342842e0e1461031457806342966c681461032757600080fd5b806323b872dd146102965780632a55205a146102a95780632f745c59146102db57600080fd5b8063095ea7b3116101ad578063095ea7b31461023c5780630ebd4c7f14610251578063152fcb2e1461027157806318160ddd1461028457600080fd5b806301ffc9a7146101d457806306fdde03146101fc578063081812fc14610211575b600080fd5b6101e76101e23660046123c4565b610483565b60405190151581526020015b60405180910390f35b6102046104a3565b6040516101f39190612439565b61022461021f36600461244c565b610535565b6040516001600160a01b0390911681526020016101f3565b61024f61024a36600461247a565b6105c2565b005b61026461025f36600461244c565b6106d8565b6040516101f391906124e1565b6101e761027f3660046123c4565b610755565b6008545b6040519081526020016101f3565b61024f6102a43660046124f4565b6107a6565b6102bc6102b7366004612535565b6107d8565b604080516001600160a01b0390931683526020830191909152016101f3565b6102886102e936600461247a565b610815565b61024f6102fc366004612637565b6108ab565b61024f61030f366004612767565b6109b6565b61024f6103223660046124f4565b610a5d565b61024f61033536600461244c565b610a78565b61028861034836600461244c565b610af2565b61022461035b36600461244c565b610b85565b61028861036e3660046127cf565b610bfc565b61024f610c83565b61024f610389366004612637565b610cb9565b61024f61039c366004612767565b610d54565b600b546001600160a01b0316610224565b610204610e54565b61024f6103c83660046127ec565b610e63565b61024f6103db36600461282a565b610f28565b6103f36103ee36600461244c565b610f60565b6040516101f391906128e3565b61020461040e36600461244c565b610fe3565b61042661042136600461244c565b610fee565b6040516101f39291906128f6565b6101e7610442366004612924565b6001600160a01b03918216600090815260056020908152604080832093909416825291909152205460ff1690565b61024f61047e3660046127cf565b6110c5565b600061048e8261115d565b8061049d575061049d82610755565b92915050565b6060600080546104b290612952565b80601f01602080910402602001604051908101604052809291908181526020018280546104de90612952565b801561052b5780601f106105005761010080835404028352916020019161052b565b820191906000526020600020905b81548152906001019060200180831161050e57829003601f168201915b5050505050905090565b600061054082611182565b6105a65760405162461bcd60e51b815260206004820152602c60248201527f4552433732313a20617070726f76656420717565727920666f72206e6f6e657860448201526b34b9ba32b73a103a37b5b2b760a11b60648201526084015b60405180910390fd5b506000908152600460205260409020546001600160a01b031690565b60006105cd82610b85565b9050806001600160a01b0316836001600160a01b0316141561063b5760405162461bcd60e51b815260206004820152602160248201527f4552433732313a20617070726f76616c20746f2063757272656e74206f776e656044820152603960f91b606482015260840161059d565b336001600160a01b038216148061065757506106578133610442565b6106c95760405162461bcd60e51b815260206004820152603860248201527f4552433732313a20617070726f76652063616c6c6572206973206e6f74206f7760448201527f6e6572206e6f7220617070726f76656420666f7220616c6c0000000000000000606482015260840161059d565b6106d3838361119f565b505050565b60606106e38261120d565b6106ff5760405162461bcd60e51b815260040161059d9061298d565b60408051600180825281830190925260009160208083019080368337019050506000848152600d602052604090205490915081600081518110610744576107446129b8565b602090810291909101015292915050565b60006001600160e01b03198216632dde656160e21b148061078657506001600160e01b031982166335681b5360e21b145b8061049d57506001600160e01b0319821663152a902d60e11b1492915050565b6107b1335b82611218565b6107cd5760405162461bcd60e51b815260040161059d906129ce565b6106d3838383611302565b6000806107e48461120d565b6108005760405162461bcd60e51b815260040161059d9061298d565b61080a84846114ad565b915091509250929050565b600061082083610bfc565b82106108825760405162461bcd60e51b815260206004820152602b60248201527f455243373231456e756d657261626c653a206f776e657220696e646578206f7560448201526a74206f6620626f756e647360a81b606482015260840161059d565b506001600160a01b03919091166000908152600660209081526040808320938352929052205490565b8361271181106108cd5760405162461bcd60e51b815260040161059d90612a1f565b6108da88888686866114f4565b6001600160a01b03166108f5600b546001600160a01b031690565b6001600160a01b0316146109465760405162461bcd60e51b815260206004820152601860248201527715985b1a59081cda59db985d1d5c99481c995c5d5a5c995960421b604482015260640161059d565b336001600160a01b038a161461099e5760405162461bcd60e51b815260206004820152601b60248201527f43616e206f6e6c79206d696e7420746f206d73672e73656e6465720000000000604482015260640161059d565b6109ab898989898961158e565b505050505050505050565b600b546001600160a01b031633146109e05760405162461bcd60e51b815260040161059d90612a56565b836127118110610a025760405162461bcd60e51b815260040161059d90612a1f565b6000610a1189898787876115e3565b9050896001600160a01b0316816001600160a01b031614610a445760405162461bcd60e51b815260040161059d90612a8b565b610a51818a8a8a8a6116e6565b50505050505050505050565b6106d383838360405180602001604052806000815250610f28565b610a81336107ab565b610ae65760405162461bcd60e51b815260206004820152603060248201527f4552433732314275726e61626c653a2063616c6c6572206973206e6f74206f7760448201526f1b995c881b9bdc88185c1c1c9bdd995960821b606482015260840161059d565b610aef81611752565b50565b6000610afd60085490565b8210610b605760405162461bcd60e51b815260206004820152602c60248201527f455243373231456e756d657261626c653a20676c6f62616c20696e646578206f60448201526b7574206f6620626f756e647360a01b606482015260840161059d565b60088281548110610b7357610b736129b8565b90600052602060002001549050919050565b6000818152600260205260408120546001600160a01b03168061049d5760405162461bcd60e51b815260206004820152602960248201527f4552433732313a206f776e657220717565727920666f72206e6f6e657869737460448201526832b73a103a37b5b2b760b91b606482015260840161059d565b60006001600160a01b038216610c675760405162461bcd60e51b815260206004820152602a60248201527f4552433732313a2062616c616e636520717565727920666f7220746865207a65604482015269726f206164647265737360b01b606482015260840161059d565b506001600160a01b031660009081526003602052604090205490565b600b546001600160a01b03163314610cad5760405162461bcd60e51b815260040161059d90612a56565b610cb7600061175b565b565b600b546001600160a01b03163314610ce35760405162461bcd60e51b815260040161059d90612a56565b836127118110610d055760405162461bcd60e51b815260040161059d90612a1f565b6000610d1489898787876117ad565b9050896001600160a01b0316816001600160a01b031614610d475760405162461bcd60e51b815260040161059d90612a8b565b610a51818a8a8a8a61158e565b836127118110610d765760405162461bcd60e51b815260040161059d90612a1f565b610d8388888686866117ff565b6001600160a01b0316610d9e600b546001600160a01b031690565b6001600160a01b031614610def5760405162461bcd60e51b815260206004820152601860248201527715985b1a59081cda59db985d1d5c99481c995c5d5a5c995960421b604482015260640161059d565b336001600160a01b038a1614610e475760405162461bcd60e51b815260206004820152601b60248201527f43616e206f6e6c79206d696e7420746f206d73672e73656e6465720000000000604482015260640161059d565b6109ab89898989896116e6565b6060600180546104b290612952565b6001600160a01b038216331415610ebc5760405162461bcd60e51b815260206004820152601960248201527f4552433732313a20617070726f766520746f2063616c6c657200000000000000604482015260640161059d565b3360008181526005602090815260408083206001600160a01b03871680855290835292819020805460ff191686151590811790915590519081529192917f17307eab39ab6107e8899845ad3d59bd9653f200f220920489ca2b5937696c31910160405180910390a35050565b610f323383611218565b610f4e5760405162461bcd60e51b815260040161059d906129ce565b610f5a84848484611817565b50505050565b6060610f6b8261120d565b610f875760405162461bcd60e51b815260040161059d9061298d565b60408051600180825281830190925260009160208083019080368337019050509050610fb28361184a565b81600081518110610fc557610fc56129b8565b6001600160a01b039092166020928302919091019091015292915050565b606061049d82611895565b606080610ffa8361120d565b6110165760405162461bcd60e51b815260040161059d9061298d565b6040805160018082528183019092526000916020808301908036833750506040805160018082528183019092529293506000929150602080830190803683370190505090506110648561184a565b82600081518110611077576110776129b8565b6001600160a01b039092166020928302919091018201526000868152600d9091526040902054816000815181106110b0576110b06129b8565b60209081029190910101529094909350915050565b600b546001600160a01b031633146110ef5760405162461bcd60e51b815260040161059d90612a56565b6001600160a01b0381166111545760405162461bcd60e51b815260206004820152602660248201527f4f776e61626c653a206e6577206f776e657220697320746865207a65726f206160448201526564647265737360d01b606482015260840161059d565b610aef8161175b565b60006001600160e01b0319821663780e9d6360e01b148061049d575061049d826119f7565b6000908152600260205260409020546001600160a01b0316151590565b600081815260046020526040902080546001600160a01b0319166001600160a01b03841690811790915581906111d482610b85565b6001600160a01b03167f8c5be1e5ebec7d5bd14f71427d1e84f3dd0314c0f7b2291e5b200ac8c7c3b92560405160405180910390a45050565b600061049d82611182565b600061122382611182565b6112845760405162461bcd60e51b815260206004820152602c60248201527f4552433732313a206f70657261746f7220717565727920666f72206e6f6e657860448201526b34b9ba32b73a103a37b5b2b760a11b606482015260840161059d565b600061128f83610b85565b9050806001600160a01b0316846001600160a01b031614806112ca5750836001600160a01b03166112bf84610535565b6001600160a01b0316145b806112fa57506001600160a01b0380821660009081526005602090815260408083209388168352929052205460ff165b949350505050565b826001600160a01b031661131582610b85565b6001600160a01b03161461137d5760405162461bcd60e51b815260206004820152602960248201527f4552433732313a207472616e73666572206f6620746f6b656e2074686174206960448201526839903737ba1037bbb760b91b606482015260840161059d565b6001600160a01b0382166113df5760405162461bcd60e51b8152602060048201526024808201527f4552433732313a207472616e7366657220746f20746865207a65726f206164646044820152637265737360e01b606482015260840161059d565b6113ea838383611a47565b6113f560008261119f565b6001600160a01b038316600090815260036020526040812080546001929061141e908490612ae2565b90915550506001600160a01b038216600090815260036020526040812080546001929061144c908490612af9565b909155505060008181526002602052604080822080546001600160a01b0319166001600160a01b0386811691821790925591518493918716917fddf252ad1be2c89b69c2b068fc378daa952ba7f163c4a11628f55a4df523b3ef91a4505050565b60008060006114bb8561184a565b6000868152600d60205260409020549091508190612710906114de908790612b11565b6114e89190612b46565b92509250509250929050565b60008030878760405160200161150c93929190612b5a565b60408051601f198184030181528282528051602091820120600080855291840180845281905260ff89169284019290925260608301879052608083018690529092509060019060a0016020604051602081039080840390855afa158015611577573d6000803e3d6000fd5b5050604051601f1901519998505050505050505050565b60005b83518110156115db576115c9866115a88388612af9565b8684815181106115ba576115ba6129b8565b602002602001015186866116e6565b806115d381612bd3565b915050611591565b505050505050565b6000806040518060400160405280601c81526020017f19457468657265756d205369676e6564204d6573736167653a0a3332000000008152509050600030888860405160200161163593929190612bee565b60405160208183030381529060405280519060200120905060008282604051602001611662929190612c15565b60408051601f198184030181528282528051602091820120600080855291840180845281905260ff8b169284019290925260608301899052608083018890529092509060019060a0016020604051602081039080840390855afa1580156116cd573d6000803e3d6000fd5b5050604051601f1901519b9a5050505050505050505050565b6116f08585611a52565b6116fa8484611a70565b801561170b5761170b848383611afb565b837fa109ba539900bf1b633f956d63c96fc89b814c7287f7aa50a9216d0b5565720761173686610fe3565b6040516117439190612439565b60405180910390a25050505050565b610aef81611b41565b600b80546001600160a01b038381166001600160a01b0319831681179093556040519116919082907f8be0079c531659141344cd1fd0a4f28419497f9722a3daafe3b4186f6b6457e090600090a35050565b6000806040518060400160405280601c81526020017f19457468657265756d205369676e6564204d6573736167653a0a3332000000008152509050600030888860405160200161163593929190612b5a565b60008030878760405160200161150c93929190612bee565b611822848484611302565b61182e84848484611b81565b610f5a5760405162461bcd60e51b815260040161059d90612c37565b6000818152600d6020908152604080832054600c9092528220546001600160a01b031681158061188157506001600160a01b038116155b1561188e576112fa611c8e565b9392505050565b60606118a082611182565b6119065760405162461bcd60e51b815260206004820152603160248201527f45524337323155524953746f726167653a2055524920717565727920666f72206044820152703737b732bc34b9ba32b73a103a37b5b2b760791b606482015260840161059d565b6000828152600a60205260408120805461191f90612952565b80601f016020809104026020016040519081016040528092919081815260200182805461194b90612952565b80156119985780601f1061196d57610100808354040283529160200191611998565b820191906000526020600020905b81548152906001019060200180831161197b57829003601f168201915b5050505050905060006119a9611ca7565b90508051600014156119bc575092915050565b8151156119ee5780826040516020016119d6929190612c89565b60405160208183030381529060405292505050919050565b6112fa84611cb6565b60006001600160e01b031982166380ac58cd60e01b1480611a2857506001600160e01b03198216635b5e139f60e01b145b8061049d57506301ffc9a760e01b6001600160e01b031983161461049d565b6106d3838383611d80565b611a6c828260405180602001604052806000815250611e38565b5050565b611a7982611182565b611adc5760405162461bcd60e51b815260206004820152602e60248201527f45524337323155524953746f726167653a2055524920736574206f66206e6f6e60448201526d32bc34b9ba32b73a103a37b5b2b760911b606482015260840161059d565b6000828152600a6020908152604090912082516106d3928401906122df565b60008111611b0857600080fd5b6000928352600c6020908152604080852080546001600160a01b0319166001600160a01b039590951694909417909355600d9052912055565b611b4a81611e6b565b6000818152600a602052604090208054611b6390612952565b159050610aef576000818152600a60205260408120610aef91612363565b60006001600160a01b0384163b15611c8357604051630a85bd0160e11b81526001600160a01b0385169063150b7a0290611bc5903390899088908890600401612cb8565b602060405180830381600087803b158015611bdf57600080fd5b505af1925050508015611c0f575060408051601f3d908101601f19168201909252611c0c91810190612cf5565b60015b611c69573d808015611c3d576040519150601f19603f3d011682016040523d82523d6000602084013e611c42565b606091505b508051611c615760405162461bcd60e51b815260040161059d90612c37565b805181602001fd5b6001600160e01b031916630a85bd0160e11b1490506112fa565b506001949350505050565b6000611ca2600b546001600160a01b031690565b905090565b6060600e80546104b290612952565b6060611cc182611182565b611d255760405162461bcd60e51b815260206004820152602f60248201527f4552433732314d657461646174613a2055524920717565727920666f72206e6f60448201526e3732bc34b9ba32b73a103a37b5b2b760891b606482015260840161059d565b6000611d2f611ca7565b90506000815111611d4f576040518060200160405280600081525061188e565b80611d5984611f12565b604051602001611d6a929190612c89565b6040516020818303038152906040529392505050565b6001600160a01b038316611ddb57611dd681600880546000838152600960205260408120829055600182018355919091527ff3f7a9fe364faab93b216da50a3214154f22a0a2b415b23a84c8169e8b636ee30155565b611dfe565b816001600160a01b0316836001600160a01b031614611dfe57611dfe8382612010565b6001600160a01b038216611e15576106d3816120ad565b826001600160a01b0316826001600160a01b0316146106d3576106d3828261215c565b611e4283836121a0565b611e4f6000848484611b81565b6106d35760405162461bcd60e51b815260040161059d90612c37565b6000611e7682610b85565b9050611e8481600084611a47565b611e8f60008361119f565b6001600160a01b0381166000908152600360205260408120805460019290611eb8908490612ae2565b909155505060008281526002602052604080822080546001600160a01b0319169055518391906001600160a01b038416907fddf252ad1be2c89b69c2b068fc378daa952ba7f163c4a11628f55a4df523b3ef908390a45050565b606081611f365750506040805180820190915260018152600360fc1b602082015290565b8160005b8115611f605780611f4a81612bd3565b9150611f599050600a83612b46565b9150611f3a565b60008167ffffffffffffffff811115611f7b57611f7b612557565b6040519080825280601f01601f191660200182016040528015611fa5576020820181803683370190505b5090505b84156112fa57611fba600183612ae2565b9150611fc7600a86612d12565b611fd2906030612af9565b60f81b818381518110611fe757611fe76129b8565b60200101906001600160f81b031916908160001a905350612009600a86612b46565b9450611fa9565b6000600161201d84610bfc565b6120279190612ae2565b60008381526007602052604090205490915080821461207a576001600160a01b03841660009081526006602090815260408083208584528252808320548484528184208190558352600790915290208190555b5060009182526007602090815260408084208490556001600160a01b039094168352600681528383209183525290812055565b6008546000906120bf90600190612ae2565b600083815260096020526040812054600880549394509092849081106120e7576120e76129b8565b906000526020600020015490508060088381548110612108576121086129b8565b600091825260208083209091019290925582815260099091526040808220849055858252812055600880548061214057612140612d26565b6001900381819060005260206000200160009055905550505050565b600061216783610bfc565b6001600160a01b039093166000908152600660209081526040808320868452825280832085905593825260079052919091209190915550565b6001600160a01b0382166121f65760405162461bcd60e51b815260206004820181905260248201527f4552433732313a206d696e7420746f20746865207a65726f2061646472657373604482015260640161059d565b6121ff81611182565b1561224c5760405162461bcd60e51b815260206004820152601c60248201527f4552433732313a20746f6b656e20616c7265616479206d696e74656400000000604482015260640161059d565b61225860008383611a47565b6001600160a01b0382166000908152600360205260408120805460019290612281908490612af9565b909155505060008181526002602052604080822080546001600160a01b0319166001600160a01b03861690811790915590518392907fddf252ad1be2c89b69c2b068fc378daa952ba7f163c4a11628f55a4df523b3ef908290a45050565b8280546122eb90612952565b90600052602060002090601f01602090048101928261230d5760008555612353565b82601f1061232657805160ff1916838001178555612353565b82800160010185558215612353579182015b82811115612353578251825591602001919060010190612338565b5061235f929150612399565b5090565b50805461236f90612952565b6000825580601f1061237f575050565b601f016020900490600052602060002090810190610aef91905b5b8082111561235f576000815560010161239a565b6001600160e01b031981168114610aef57600080fd5b6000602082840312156123d657600080fd5b813561188e816123ae565b60005b838110156123fc5781810151838201526020016123e4565b83811115610f5a5750506000910152565b600081518084526124258160208601602086016123e1565b601f01601f19169290920160200192915050565b60208152600061188e602083018461240d565b60006020828403121561245e57600080fd5b5035919050565b6001600160a01b0381168114610aef57600080fd5b6000806040838503121561248d57600080fd5b823561249881612465565b946020939093013593505050565b600081518084526020808501945080840160005b838110156124d6578151875295820195908201906001016124ba565b509495945050505050565b60208152600061188e60208301846124a6565b60008060006060848603121561250957600080fd5b833561251481612465565b9250602084013561252481612465565b929592945050506040919091013590565b6000806040838503121561254857600080fd5b50508035926020909101359150565b634e487b7160e01b600052604160045260246000fd5b604051601f8201601f1916810167ffffffffffffffff8111828210171561259657612596612557565b604052919050565b600067ffffffffffffffff8311156125b8576125b8612557565b6125cb601f8401601f191660200161256d565b90508281528383830111156125df57600080fd5b828260208301376000602084830101529392505050565b600082601f83011261260757600080fd5b61188e8383356020850161259e565b803561262181612465565b919050565b803560ff8116811461262157600080fd5b600080600080600080600080610100898b03121561265457600080fd5b61265e8935612465565b883597506020890135965067ffffffffffffffff60408a0135111561268257600080fd5b604089013589018a601f82011261269857600080fd5b67ffffffffffffffff813511156126b1576126b1612557565b6126c16020823560051b0161256d565b81358082526020808301929160051b8401018d8111156126e057600080fd5b602084015b818110156127215767ffffffffffffffff8135111561270357600080fd5b6127138f602083358801016125f6565b8452602093840193016126e5565b505080985050505061273560608a01612616565b94506080890135935061274a60a08a01612626565b925060c0890135915060e089013590509295985092959890939650565b600080600080600080600080610100898b03121561278457600080fd5b883561278f81612465565b975060208901359650604089013567ffffffffffffffff8111156127b257600080fd5b6127be8b828c016125f6565b965050606089013561273581612465565b6000602082840312156127e157600080fd5b813561188e81612465565b600080604083850312156127ff57600080fd5b823561280a81612465565b91506020830135801515811461281f57600080fd5b809150509250929050565b6000806000806080858703121561284057600080fd5b843561284b81612465565b9350602085013561285b81612465565b925060408501359150606085013567ffffffffffffffff81111561287e57600080fd5b8501601f8101871361288f57600080fd5b61289e8782356020840161259e565b91505092959194509250565b600081518084526020808501945080840160005b838110156124d65781516001600160a01b0316875295820195908201906001016128be565b60208152600061188e60208301846128aa565b60408152600061290960408301856128aa565b828103602084015261291b81856124a6565b95945050505050565b6000806040838503121561293757600080fd5b823561294281612465565b9150602083013561281f81612465565b600181811c9082168061296657607f821691505b6020821081141561298757634e487b7160e01b600052602260045260246000fd5b50919050565b6020808252601190820152702737b732bc34b9ba32b73a103a37b5b2b760791b604082015260600190565b634e487b7160e01b600052603260045260246000fd5b60208082526031908201527f4552433732313a207472616e736665722063616c6c6572206973206e6f74206f6040820152701ddb995c881b9bdc88185c1c1c9bdd9959607a1b606082015260800190565b6020808252601c908201527f546f74616c20726f79616c746965732065786365656473203130302500000000604082015260600190565b6020808252818101527f4f776e61626c653a2063616c6c6572206973206e6f7420746865206f776e6572604082015260600190565b60208082526021908201527f5369676e61747572652077726f6e6720666f722065787065637465642060746f6040820152600360fd1b606082015260800190565b634e487b7160e01b600052601160045260246000fd5b600082821015612af457612af4612acc565b500390565b60008219821115612b0c57612b0c612acc565b500190565b6000816000190483118215151615612b2b57612b2b612acc565b500290565b634e487b7160e01b600052601260045260246000fd5b600082612b5557612b55612b30565b500490565b60006060820160018060a01b0386168352602085818501526060604085015281855180845260808601915060808160051b870101935082870160005b82811015612bc457607f19888703018452612bb286835161240d565b95509284019290840190600101612b96565b50939998505050505050505050565b6000600019821415612be757612be7612acc565b5060010190565b60018060a01b038416815282602082015260606040820152600061291b606083018461240d565b60008351612c278184602088016123e1565b9190910191825250602001919050565b60208082526032908201527f4552433732313a207472616e7366657220746f206e6f6e20455243373231526560408201527131b2b4bb32b91034b6b83632b6b2b73a32b960711b606082015260800190565b60008351612c9b8184602088016123e1565b835190830190612caf8183602088016123e1565b01949350505050565b6001600160a01b0385811682528416602082015260408101839052608060608201819052600090612ceb9083018461240d565b9695505050505050565b600060208284031215612d0757600080fd5b815161188e816123ae565b600082612d2157612d21612b30565b500690565b634e487b7160e01b600052603160045260246000fdfea26469706673582212209b87739f8181ca98ef28ec70cb493d1a6014fa9a802767e08e69a3343c11282364736f6c63430008090033"
  }
}