{"compiler":"v0.6.12+commit.27d51765","opcodeHash":"0x9403645953dbce65e1eec8139755a583d1be321bd1834988f9c14bf2fc782ea8","metalessHash":"0xec0251d5189debd04ee00bc21a45e76996995485bf5521784e581341fc3aa754","runtimeHash":"0x3f1ab382ec0892b8bea91148c0710f2b6d5dd8183e9507b1aada371cccdf1da5","encodedMetadata":[{"ipfs":"/ipfs/Qmf5pGutUg1cfEkC5B9DSDMXcbo9Z4zm42bAgLHTuwL1f4","solc":"0.6.12"}],"abi":[{"inputs":[{"internalType":"address","name":"_operator","type":"address"},{"internalType":"address","name":"_farm","type":"address"},{"internalType":"address","name":"_yield","type":"address"},{"internalType":"address","name":"_dapp","type":"address"},{"internalType":"address","name":"_target","type":"address"},{"internalType":"uint256","name":"_pid","type":"uint256"}],"name":"claim","outputs":[],"stateMutability":"nonpayable","type":"function"},{"inputs":[{"internalType":"address","name":"_lpToken","type":"address"},{"internalType":"address","name":"_farm","type":"address"},{"internalType":"address","name":"_yield","type":"address"},{"internalType":"uint256","name":"_pid","type":"uint256"}],"name":"compound","outputs":[],"stateMutability":"nonpayable","type":"function"},{"inputs":[{"internalType":"address","name":"_lpToken","type":"address"},{"internalType":"address","name":"_farm","type":"address"},{"internalType":"uint256","name":"_amount","type":"uint256"},{"internalType":"uint256","name":"_pid","type":"uint256"}],"name":"deposit","outputs":[],"stateMutability":"nonpayable","type":"function"},{"inputs":[{"internalType":"address","name":"_operator","type":"address"},{"internalType":"address","name":"_lpToken","type":"address"},{"internalType":"address","name":"_farm","type":"address"},{"internalType":"address","name":"_yield","type":"address"},{"internalType":"address","name":"_dapp","type":"address"},{"internalType":"address","name":"_target","type":"address"},{"internalType":"uint256","name":"_pid","type":"uint256"}],"name":"emergencyExit","outputs":[],"stateMutability":"nonpayable","type":"function"},{"inputs":[{"internalType":"address","name":"_operator","type":"address"},{"internalType":"address","name":"_lpToken","type":"address"},{"internalType":"address","name":"_farm","type":"address"},{"internalType":"address","name":"_yield","type":"address"},{"internalType":"address","name":"_dapp","type":"address"},{"internalType":"address","name":"_target","type":"address"},{"internalType":"uint256","name":"_pid","type":"uint256"}],"name":"exit","outputs":[],"stateMutability":"nonpayable","type":"function"},{"inputs":[{"internalType":"address","name":"_launcher","type":"address"}],"name":"initialize","outputs":[],"stateMutability":"nonpayable","type":"function"},{"inputs":[{"internalType":"address","name":"_farm","type":"address"},{"internalType":"uint256","name":"_pid","type":"uint256"}],"name":"inspect","outputs":[{"internalType":"uint256","name":"","type":"uint256"},{"internalType":"uint256","name":"","type":"uint256"},{"internalType":"uint256","name":"","type":"uint256"}],"stateMutability":"view","type":"function"},{"inputs":[],"name":"uniswapRouterV2","outputs":[{"internalType":"address","name":"","type":"address"}],"stateMutability":"view","type":"function"}],"bytecode":{"object":"608060405234801561001057600080fd5b5061330a806100206000396000f3fe608060405234801561001057600080fd5b50600436106100885760003560e01c8063399558de1161005b578063399558de146102d1578063568f567a146103bf578063596fa9e3146104ad578063c4d66de8146104e157610088565b806305d162401461008d5780630b46c4e0146100fd57806320e8c5651461018b5780632f12989a14610203575b600080fd5b6100d9600480360360408110156100a357600080fd5b81019080803573ffffffffffffffffffffffffffffffffffffffff16906020019092919080359060200190929190505050610525565b60405180848152602001838152602001828152602001935050505060405180910390f35b6101896004803603608081101561011357600080fd5b81019080803573ffffffffffffffffffffffffffffffffffffffff169060200190929190803573ffffffffffffffffffffffffffffffffffffffff169060200190929190803573ffffffffffffffffffffffffffffffffffffffff16906020019092919080359060200190929190505050610645565b005b610201600480360360808110156101a157600080fd5b81019080803573ffffffffffffffffffffffffffffffffffffffff169060200190929190803573ffffffffffffffffffffffffffffffffffffffff169060200190929190803590602001909291908035906020019092919050505061092e565b005b6102cf600480360360c081101561021957600080fd5b81019080803573ffffffffffffffffffffffffffffffffffffffff169060200190929190803573ffffffffffffffffffffffffffffffffffffffff169060200190929190803573ffffffffffffffffffffffffffffffffffffffff169060200190929190803573ffffffffffffffffffffffffffffffffffffffff169060200190929190803573ffffffffffffffffffffffffffffffffffffffff16906020019092919080359060200190929190505050610af2565b005b6103bd600480360360e08110156102e757600080fd5b81019080803573ffffffffffffffffffffffffffffffffffffffff169060200190929190803573ffffffffffffffffffffffffffffffffffffffff169060200190929190803573ffffffffffffffffffffffffffffffffffffffff169060200190929190803573ffffffffffffffffffffffffffffffffffffffff169060200190929190803573ffffffffffffffffffffffffffffffffffffffff169060200190929190803573ffffffffffffffffffffffffffffffffffffffff16906020019092919080359060200190929190505050610d1a565b005b6104ab600480360360e08110156103d557600080fd5b81019080803573ffffffffffffffffffffffffffffffffffffffff169060200190929190803573ffffffffffffffffffffffffffffffffffffffff169060200190929190803573ffffffffffffffffffffffffffffffffffffffff169060200190929190803573ffffffffffffffffffffffffffffffffffffffff169060200190929190803573ffffffffffffffffffffffffffffffffffffffff169060200190929190803573ffffffffffffffffffffffffffffffffffffffff16906020019092919080359060200190929190505050610fe4565b005b6104b56112f0565b604051808273ffffffffffffffffffffffffffffffffffffffff16815260200191505060405180910390f35b610523600480360360208110156104f757600080fd5b81019080803573ffffffffffffffffffffffffffffffffffffffff169060200190929190505050611308565b005b6000806000610532613224565b8573ffffffffffffffffffffffffffffffffffffffff166393f1a40b86306040518363ffffffff1660e01b8152600401808381526020018273ffffffffffffffffffffffffffffffffffffffff16815260200192505050604080518083038186803b1580156105a057600080fd5b505afa1580156105b4573d6000803e3d6000fd5b505050506040513d60408110156105ca57600080fd5b810190808051906020019092919080519060200190929190505050826000600281106105f257fe5b602002018360016002811061060357fe5b60200201828152508281525050508060006002811061061e57fe5b60200201518160016002811061063057fe5b60200201516000935093509350509250925092565b600060029054906101000a900473ffffffffffffffffffffffffffffffffffffffff1673ffffffffffffffffffffffffffffffffffffffff163373ffffffffffffffffffffffffffffffffffffffff16146106e3576040517f08c379a0000000000000000000000000000000000000000000000000000000008152600401808060200182810382526000815260200160200191505060405180910390fd5b8273ffffffffffffffffffffffffffffffffffffffff1663441a3e708260006040518363ffffffff1660e01b81526004018083815260200182815260200192505050600060405180830381600087803b15801561073f57600080fd5b505af1158015610753573d6000803e3d6000fd5b505050506107618483611448565b60008473ffffffffffffffffffffffffffffffffffffffff166370a08231306040518263ffffffff1660e01b8152600401808273ffffffffffffffffffffffffffffffffffffffff16815260200191505060206040518083038186803b1580156107ca57600080fd5b505afa1580156107de573d6000803e3d6000fd5b505050506040513d60208110156107f457600080fd5b810190808051906020019092919050505090508473ffffffffffffffffffffffffffffffffffffffff1663095ea7b385836040518363ffffffff1660e01b8152600401808373ffffffffffffffffffffffffffffffffffffffff16815260200182815260200192505050602060405180830381600087803b15801561087857600080fd5b505af115801561088c573d6000803e3d6000fd5b505050506040513d60208110156108a257600080fd5b8101908080519060200190929190505050508373ffffffffffffffffffffffffffffffffffffffff1663e2bbb15883836040518363ffffffff1660e01b81526004018083815260200182815260200192505050600060405180830381600087803b15801561090f57600080fd5b505af1158015610923573d6000803e3d6000fd5b505050505050505050565b600060029054906101000a900473ffffffffffffffffffffffffffffffffffffffff1673ffffffffffffffffffffffffffffffffffffffff163373ffffffffffffffffffffffffffffffffffffffff16146109cc576040517f08c379a0000000000000000000000000000000000000000000000000000000008152600401808060200182810382526000815260200160200191505060405180910390fd5b8373ffffffffffffffffffffffffffffffffffffffff1663095ea7b384846040518363ffffffff1660e01b8152600401808373ffffffffffffffffffffffffffffffffffffffff16815260200182815260200192505050602060405180830381600087803b158015610a3d57600080fd5b505af1158015610a51573d6000803e3d6000fd5b505050506040513d6020811015610a6757600080fd5b8101908080519060200190929190505050508273ffffffffffffffffffffffffffffffffffffffff1663e2bbb15882846040518363ffffffff1660e01b81526004018083815260200182815260200192505050600060405180830381600087803b158015610ad457600080fd5b505af1158015610ae8573d6000803e3d6000fd5b5050505050505050565b600060029054906101000a900473ffffffffffffffffffffffffffffffffffffffff1673ffffffffffffffffffffffffffffffffffffffff163373ffffffffffffffffffffffffffffffffffffffff1614610b90576040517f08c379a0000000000000000000000000000000000000000000000000000000008152600401808060200182810382526000815260200160200191505060405180910390fd5b8473ffffffffffffffffffffffffffffffffffffffff1663441a3e708260006040518363ffffffff1660e01b81526004018083815260200182815260200192505050600060405180830381600087803b158015610bec57600080fd5b505af1158015610c00573d6000803e3d6000fd5b50505050610c10868585856123fe565b600073ffffffffffffffffffffffffffffffffffffffff168373ffffffffffffffffffffffffffffffffffffffff161415610d1257610d11868373ffffffffffffffffffffffffffffffffffffffff166370a08231306040518263ffffffff1660e01b8152600401808273ffffffffffffffffffffffffffffffffffffffff16815260200191505060206040518083038186803b158015610cb057600080fd5b505afa158015610cc4573d6000803e3d6000fd5b505050506040513d6020811015610cda57600080fd5b81019080805190602001909291905050508473ffffffffffffffffffffffffffffffffffffffff16612ba89092919063ffffffff16565b5b505050505050565b600060029054906101000a900473ffffffffffffffffffffffffffffffffffffffff1673ffffffffffffffffffffffffffffffffffffffff163373ffffffffffffffffffffffffffffffffffffffff1614610db8576040517f08c379a0000000000000000000000000000000000000000000000000000000008152600401808060200182810382526000815260200160200191505060405180910390fd5b60008573ffffffffffffffffffffffffffffffffffffffff166393f1a40b83306040518363ffffffff1660e01b8152600401808381526020018273ffffffffffffffffffffffffffffffffffffffff16815260200192505050604080518083038186803b158015610e2857600080fd5b505afa158015610e3c573d6000803e3d6000fd5b505050506040513d6040811015610e5257600080fd5b8101908080519060200190929190805190602001909291905050505090508573ffffffffffffffffffffffffffffffffffffffff1663441a3e7083836040518363ffffffff1660e01b81526004018083815260200182815260200192505050600060405180830381600087803b158015610ecb57600080fd5b505af1158015610edf573d6000803e3d6000fd5b50505050610faf888673ffffffffffffffffffffffffffffffffffffffff166370a08231306040518263ffffffff1660e01b8152600401808273ffffffffffffffffffffffffffffffffffffffff16815260200191505060206040518083038186803b158015610f4e57600080fd5b505afa158015610f62573d6000803e3d6000fd5b505050506040513d6020811015610f7857600080fd5b81019080805190602001909291905050508773ffffffffffffffffffffffffffffffffffffffff16612ba89092919063ffffffff16565b610fda88828973ffffffffffffffffffffffffffffffffffffffff16612ba89092919063ffffffff16565b5050505050505050565b600060029054906101000a900473ffffffffffffffffffffffffffffffffffffffff1673ffffffffffffffffffffffffffffffffffffffff163373ffffffffffffffffffffffffffffffffffffffff1614611082576040517f08c379a0000000000000000000000000000000000000000000000000000000008152600401808060200182810382526000815260200160200191505060405180910390fd5b60008573ffffffffffffffffffffffffffffffffffffffff166393f1a40b83306040518363ffffffff1660e01b8152600401808381526020018273ffffffffffffffffffffffffffffffffffffffff16815260200192505050604080518083038186803b1580156110f257600080fd5b505afa158015611106573d6000803e3d6000fd5b505050506040513d604081101561111c57600080fd5b8101908080519060200190929190805190602001909291905050505090508573ffffffffffffffffffffffffffffffffffffffff1663441a3e7083836040518363ffffffff1660e01b81526004018083815260200182815260200192505050600060405180830381600087803b15801561119557600080fd5b505af11580156111a9573d6000803e3d6000fd5b505050506111b9888686866123fe565b600073ffffffffffffffffffffffffffffffffffffffff168473ffffffffffffffffffffffffffffffffffffffff1614156112bb576112ba888473ffffffffffffffffffffffffffffffffffffffff166370a08231306040518263ffffffff1660e01b8152600401808273ffffffffffffffffffffffffffffffffffffffff16815260200191505060206040518083038186803b15801561125957600080fd5b505afa15801561126d573d6000803e3d6000fd5b505050506040513d602081101561128357600080fd5b81019080805190602001909291905050508573ffffffffffffffffffffffffffffffffffffffff16612ba89092919063ffffffff16565b5b6112e688828973ffffffffffffffffffffffffffffffffffffffff16612ba89092919063ffffffff16565b5050505050505050565b737a250d5630b4cf539739df2c5dacb4c659f2488d81565b600060019054906101000a900460ff16806113275750611326612c4a565b5b8061133d575060008054906101000a900460ff16155b611392576040517f08c379a000000000000000000000000000000000000000000000000000000000815260040180806020018281038252602e815260200180613247602e913960400191505060405180910390fd5b60008060019054906101000a900460ff1615905080156113e2576001600060016101000a81548160ff02191690831515021790555060016000806101000a81548160ff0219169083151502179055505b81600060026101000a81548173ffffffffffffffffffffffffffffffffffffffff021916908373ffffffffffffffffffffffffffffffffffffffff16021790555080156114445760008060016101000a81548160ff0219169083151502179055505b5050565b6000737a250d5630b4cf539739df2c5dacb4c659f2488d73ffffffffffffffffffffffffffffffffffffffff1663ad5c46486040518163ffffffff1660e01b815260040160206040518083038186803b1580156114a457600080fd5b505afa1580156114b8573d6000803e3d6000fd5b505050506040513d60208110156114ce57600080fd5b8101908080519060200190929190505050905060008273ffffffffffffffffffffffffffffffffffffffff166370a08231306040518263ffffffff1660e01b8152600401808273ffffffffffffffffffffffffffffffffffffffff16815260200191505060206040518083038186803b15801561154a57600080fd5b505afa15801561155e573d6000803e3d6000fd5b505050506040513d602081101561157457600080fd5b8101908080519060200190929190505050905060006002828161159357fe5b04905060008373ffffffffffffffffffffffffffffffffffffffff168673ffffffffffffffffffffffffffffffffffffffff16630dfe16816040518163ffffffff1660e01b815260040160206040518083038186803b1580156115f557600080fd5b505afa158015611609573d6000803e3d6000fd5b505050506040513d602081101561161f57600080fd5b810190808051906020019092919050505073ffffffffffffffffffffffffffffffffffffffff1614156116d4578573ffffffffffffffffffffffffffffffffffffffff1663d21220a76040518163ffffffff1660e01b815260040160206040518083038186803b15801561169257600080fd5b505afa1580156116a6573d6000803e3d6000fd5b505050506040513d60208110156116bc57600080fd5b81019080805190602001909291905050509050611758565b8573ffffffffffffffffffffffffffffffffffffffff16630dfe16816040518163ffffffff1660e01b815260040160206040518083038186803b15801561171a57600080fd5b505afa15801561172e573d6000803e3d6000fd5b505050506040513d602081101561174457600080fd5b810190808051906020019092919050505090505b611798737a250d5630b4cf539739df2c5dacb4c659f2488d60008773ffffffffffffffffffffffffffffffffffffffff16612c619092919063ffffffff16565b6117d7737a250d5630b4cf539739df2c5dacb4c659f2488d838773ffffffffffffffffffffffffffffffffffffffff16612c619092919063ffffffff16565b6060600267ffffffffffffffff811180156117f157600080fd5b506040519080825280602002602001820160405280156118205781602001602082028036833780820191505090505b509050858160008151811061183157fe5b602002602001019073ffffffffffffffffffffffffffffffffffffffff16908173ffffffffffffffffffffffffffffffffffffffff1681525050848160018151811061187957fe5b602002602001019073ffffffffffffffffffffffffffffffffffffffff16908173ffffffffffffffffffffffffffffffffffffffff1681525050737a250d5630b4cf539739df2c5dacb4c659f2488d73ffffffffffffffffffffffffffffffffffffffff16635c11d7958460008430426040518663ffffffff1660e01b815260040180868152602001858152602001806020018473ffffffffffffffffffffffffffffffffffffffff168152602001838152602001828103825285818151815260200191508051906020019060200280838360005b8381101561196957808201518184015260208101905061194e565b505050509050019650505050505050600060405180830381600087803b15801561199257600080fd5b505af11580156119a6573d6000803e3d6000fd5b5050505060008573ffffffffffffffffffffffffffffffffffffffff166370a08231306040518263ffffffff1660e01b8152600401808273ffffffffffffffffffffffffffffffffffffffff16815260200191505060206040518083038186803b158015611a1357600080fd5b505afa158015611a27573d6000803e3d6000fd5b505050506040513d6020811015611a3d57600080fd5b810190808051906020019092919050505090508673ffffffffffffffffffffffffffffffffffffffff168373ffffffffffffffffffffffffffffffffffffffff1614612077578673ffffffffffffffffffffffffffffffffffffffff166370a08231306040518263ffffffff1660e01b8152600401808273ffffffffffffffffffffffffffffffffffffffff16815260200191505060206040518083038186803b158015611aea57600080fd5b505afa158015611afe573d6000803e3d6000fd5b505050506040513d6020811015611b1457600080fd5b81019080805190602001909291905050509450611b67737a250d5630b4cf539739df2c5dacb4c659f2488d60008973ffffffffffffffffffffffffffffffffffffffff16612c619092919063ffffffff16565b611ba6737a250d5630b4cf539739df2c5dacb4c659f2488d868973ffffffffffffffffffffffffffffffffffffffff16612c619092919063ffffffff16565b6060600267ffffffffffffffff81118015611bc057600080fd5b50604051908082528060200260200182016040528015611bef5781602001602082028036833780820191505090505b5090508781600081518110611c0057fe5b602002602001019073ffffffffffffffffffffffffffffffffffffffff16908173ffffffffffffffffffffffffffffffffffffffff16815250508681600181518110611c4857fe5b602002602001019073ffffffffffffffffffffffffffffffffffffffff16908173ffffffffffffffffffffffffffffffffffffffff1681525050737a250d5630b4cf539739df2c5dacb4c659f2488d73ffffffffffffffffffffffffffffffffffffffff16635c11d7958760008430426040518663ffffffff1660e01b815260040180868152602001858152602001806020018473ffffffffffffffffffffffffffffffffffffffff168152602001838152602001828103825285818151815260200191508051906020019060200280838360005b83811015611d38578082015181840152602081019050611d1d565b505050509050019650505050505050600060405180830381600087803b158015611d6157600080fd5b505af1158015611d75573d6000803e3d6000fd5b505050506000828873ffffffffffffffffffffffffffffffffffffffff166370a08231306040518263ffffffff1660e01b8152600401808273ffffffffffffffffffffffffffffffffffffffff16815260200191505060206040518083038186803b158015611de357600080fd5b505afa158015611df7573d6000803e3d6000fd5b505050506040513d6020811015611e0d57600080fd5b8101908080519060200190929190505050039050611e61737a250d5630b4cf539739df2c5dacb4c659f2488d60008a73ffffffffffffffffffffffffffffffffffffffff16612c619092919063ffffffff16565b611ea0737a250d5630b4cf539739df2c5dacb4c659f2488d828a73ffffffffffffffffffffffffffffffffffffffff16612c619092919063ffffffff16565b6060600267ffffffffffffffff81118015611eba57600080fd5b50604051908082528060200260200182016040528015611ee95781602001602082028036833780820191505090505b5090508881600081518110611efa57fe5b602002602001019073ffffffffffffffffffffffffffffffffffffffff16908173ffffffffffffffffffffffffffffffffffffffff16815250508581600181518110611f4257fe5b602002602001019073ffffffffffffffffffffffffffffffffffffffff16908173ffffffffffffffffffffffffffffffffffffffff1681525050737a250d5630b4cf539739df2c5dacb4c659f2488d73ffffffffffffffffffffffffffffffffffffffff16635c11d7958360008430426040518663ffffffff1660e01b815260040180868152602001858152602001806020018473ffffffffffffffffffffffffffffffffffffffff168152602001838152602001828103825285818151815260200191508051906020019060200280838360005b83811015612032578082015181840152602081019050612017565b505050509050019650505050505050600060405180830381600087803b15801561205b57600080fd5b505af115801561206f573d6000803e3d6000fd5b505050505050505b8573ffffffffffffffffffffffffffffffffffffffff166370a08231306040518263ffffffff1660e01b8152600401808273ffffffffffffffffffffffffffffffffffffffff16815260200191505060206040518083038186803b1580156120de57600080fd5b505afa1580156120f2573d6000803e3d6000fd5b505050506040513d602081101561210857600080fd5b8101908080519060200190929190505050905060008373ffffffffffffffffffffffffffffffffffffffff166370a08231306040518263ffffffff1660e01b8152600401808273ffffffffffffffffffffffffffffffffffffffff16815260200191505060206040518083038186803b15801561218457600080fd5b505afa158015612198573d6000803e3d6000fd5b505050506040513d60208110156121ae57600080fd5b81019080805190602001909291905050509050612201737a250d5630b4cf539739df2c5dacb4c659f2488d60008973ffffffffffffffffffffffffffffffffffffffff16612c619092919063ffffffff16565b612240737a250d5630b4cf539739df2c5dacb4c659f2488d838973ffffffffffffffffffffffffffffffffffffffff16612c619092919063ffffffff16565b612280737a250d5630b4cf539739df2c5dacb4c659f2488d60008673ffffffffffffffffffffffffffffffffffffffff16612c619092919063ffffffff16565b6122bf737a250d5630b4cf539739df2c5dacb4c659f2488d828673ffffffffffffffffffffffffffffffffffffffff16612c619092919063ffffffff16565b737a250d5630b4cf539739df2c5dacb4c659f2488d73ffffffffffffffffffffffffffffffffffffffff1663e8e337008589848660008030426040518963ffffffff1660e01b8152600401808973ffffffffffffffffffffffffffffffffffffffff1681526020018873ffffffffffffffffffffffffffffffffffffffff1681526020018781526020018681526020018581526020018481526020018373ffffffffffffffffffffffffffffffffffffffff16815260200182815260200198505050505050505050606060405180830381600087803b1580156123a157600080fd5b505af11580156123b5573d6000803e3d6000fd5b505050506040513d60608110156123cb57600080fd5b81019080805190602001909291908051906020019092919080519060200190929190505050505050505050505050505050565b6000737a250d5630b4cf539739df2c5dacb4c659f2488d73ffffffffffffffffffffffffffffffffffffffff1663ad5c46486040518163ffffffff1660e01b815260040160206040518083038186803b15801561245a57600080fd5b505afa15801561246e573d6000803e3d6000fd5b505050506040513d602081101561248457600080fd5b810190808051906020019092919050505090508073ffffffffffffffffffffffffffffffffffffffff168473ffffffffffffffffffffffffffffffffffffffff16146127c55760008473ffffffffffffffffffffffffffffffffffffffff166370a08231306040518263ffffffff1660e01b8152600401808273ffffffffffffffffffffffffffffffffffffffff16815260200191505060206040518083038186803b15801561253357600080fd5b505afa158015612547573d6000803e3d6000fd5b505050506040513d602081101561255d57600080fd5b810190808051906020019092919050505090506125b0737a250d5630b4cf539739df2c5dacb4c659f2488d60008773ffffffffffffffffffffffffffffffffffffffff16612c619092919063ffffffff16565b6125ef737a250d5630b4cf539739df2c5dacb4c659f2488d828773ffffffffffffffffffffffffffffffffffffffff16612c619092919063ffffffff16565b6060600267ffffffffffffffff8111801561260957600080fd5b506040519080825280602002602001820160405280156126385781602001602082028036833780820191505090505b509050858160008151811061264957fe5b602002602001019073ffffffffffffffffffffffffffffffffffffffff16908173ffffffffffffffffffffffffffffffffffffffff1681525050828160018151811061269157fe5b602002602001019073ffffffffffffffffffffffffffffffffffffffff16908173ffffffffffffffffffffffffffffffffffffffff1681525050737a250d5630b4cf539739df2c5dacb4c659f2488d73ffffffffffffffffffffffffffffffffffffffff16635c11d7958360008430426040518663ffffffff1660e01b815260040180868152602001858152602001806020018473ffffffffffffffffffffffffffffffffffffffff168152602001838152602001828103825285818151815260200191508051906020019060200280838360005b83811015612781578082015181840152602081019050612766565b505050509050019650505050505050600060405180830381600087803b1580156127aa57600080fd5b505af11580156127be573d6000803e3d6000fd5b5050505050505b60008173ffffffffffffffffffffffffffffffffffffffff166370a08231306040518263ffffffff1660e01b8152600401808273ffffffffffffffffffffffffffffffffffffffff16815260200191505060206040518083038186803b15801561282e57600080fd5b505afa158015612842573d6000803e3d6000fd5b505050506040513d602081101561285857600080fd5b810190808051906020019092919050505090506128ab737a250d5630b4cf539739df2c5dacb4c659f2488d60008473ffffffffffffffffffffffffffffffffffffffff16612c619092919063ffffffff16565b6128ea737a250d5630b4cf539739df2c5dacb4c659f2488d828473ffffffffffffffffffffffffffffffffffffffff16612c619092919063ffffffff16565b6060600267ffffffffffffffff8111801561290457600080fd5b506040519080825280602002602001820160405280156129335781602001602082028036833780820191505090505b509050828160008151811061294457fe5b602002602001019073ffffffffffffffffffffffffffffffffffffffff16908173ffffffffffffffffffffffffffffffffffffffff1681525050838160018151811061298c57fe5b602002602001019073ffffffffffffffffffffffffffffffffffffffff16908173ffffffffffffffffffffffffffffffffffffffff1681525050737a250d5630b4cf539739df2c5dacb4c659f2488d73ffffffffffffffffffffffffffffffffffffffff16635c11d7958360008430426040518663ffffffff1660e01b815260040180868152602001858152602001806020018473ffffffffffffffffffffffffffffffffffffffff168152602001838152602001828103825285818151815260200191508051906020019060200280838360005b83811015612a7c578082015181840152602081019050612a61565b505050509050019650505050505050600060405180830381600087803b158015612aa557600080fd5b505af1158015612ab9573d6000803e3d6000fd5b50505050600073ffffffffffffffffffffffffffffffffffffffff168573ffffffffffffffffffffffffffffffffffffffff1614612b9f57612b9e84868673ffffffffffffffffffffffffffffffffffffffff166370a08231306040518263ffffffff1660e01b8152600401808273ffffffffffffffffffffffffffffffffffffffff16815260200191505060206040518083038186803b158015612b5d57600080fd5b505afa158015612b71573d6000803e3d6000fd5b505050506040513d6020811015612b8757600080fd5b81019080805190602001909291905050508a612e26565b5b50505050505050565b612c458363a9059cbb60e01b8484604051602401808373ffffffffffffffffffffffffffffffffffffffff16815260200182815260200192505050604051602081830303815290604052907bffffffffffffffffffffffffffffffffffffffffffffffffffffffff19166020820180517bffffffffffffffffffffffffffffffffffffffffffffffffffffffff8381831617835250505050612f04565b505050565b6000803090506000813b9050600081149250505090565b6000811480612d2f575060008373ffffffffffffffffffffffffffffffffffffffff1663dd62ed3e30856040518363ffffffff1660e01b8152600401808373ffffffffffffffffffffffffffffffffffffffff1681526020018273ffffffffffffffffffffffffffffffffffffffff1681526020019250505060206040518083038186803b158015612cf257600080fd5b505afa158015612d06573d6000803e3d6000fd5b505050506040513d6020811015612d1c57600080fd5b8101908080519060200190929190505050145b612d84576040517f08c379a000000000000000000000000000000000000000000000000000000000815260040180806020018281038252603681526020018061329f6036913960400191505060405180910390fd5b612e218363095ea7b360e01b8484604051602401808373ffffffffffffffffffffffffffffffffffffffff16815260200182815260200192505050604051602081830303815290604052907bffffffffffffffffffffffffffffffffffffffffffffffffffffffff19166020820180517bffffffffffffffffffffffffffffffffffffffffffffffffffffffff8381831617835250505050612f04565b505050565b612e5183838673ffffffffffffffffffffffffffffffffffffffff16612c619092919063ffffffff16565b8273ffffffffffffffffffffffffffffffffffffffff1663a3a8573a83836040518363ffffffff1660e01b8152600401808381526020018273ffffffffffffffffffffffffffffffffffffffff16815260200192505050602060405180830381600087803b158015612ec257600080fd5b505af1158015612ed6573d6000803e3d6000fd5b505050506040513d6020811015612eec57600080fd5b81019080805190602001909291905050505050505050565b6060612f66826040518060400160405280602081526020017f5361666545524332303a206c6f772d6c6576656c2063616c6c206661696c65648152508573ffffffffffffffffffffffffffffffffffffffff16612ff39092919063ffffffff16565b9050600081511115612fee57808060200190516020811015612f8757600080fd5b8101908080519060200190929190505050612fed576040517f08c379a000000000000000000000000000000000000000000000000000000000815260040180806020018281038252602a815260200180613275602a913960400191505060405180910390fd5b5b505050565b6060613002848460008561300b565b90509392505050565b606061301685613211565b613088576040517f08c379a000000000000000000000000000000000000000000000000000000000815260040180806020018281038252601d8152602001807f416464726573733a2063616c6c20746f206e6f6e2d636f6e747261637400000081525060200191505060405180910390fd5b600060608673ffffffffffffffffffffffffffffffffffffffff1685876040518082805190602001908083835b602083106130d857805182526020820191506020810190506020830392506130b5565b6001836020036101000a03801982511681845116808217855250505050505090500191505060006040518083038185875af1925050503d806000811461313a576040519150601f19603f3d011682016040523d82523d6000602084013e61313f565b606091505b50915091508115613154578092505050613209565b6000815111156131675780518082602001fd5b836040517f08c379a00000000000000000000000000000000000000000000000000000000081526004018080602001828103825283818151815260200191508051906020019080838360005b838110156131ce5780820151818401526020810190506131b3565b50505050905090810190601f1680156131fb5780820380516001836020036101000a031916815260200191505b509250505060405180910390fd5b949350505050565b600080823b905060008111915050919050565b604051806040016040528060029060208202803683378082019150509050509056fe496e697469616c697a61626c653a20636f6e747261637420697320616c726561647920696e697469616c697a65645361666545524332303a204552433230206f7065726174696f6e20646964206e6f7420737563636565645361666545524332303a20617070726f76652066726f6d206e6f6e2d7a65726f20746f206e6f6e2d7a65726f20616c6c6f77616e6365a2646970667358221220fce07df0a085f68109e3f2495089ade6061d07f06ef19905943271ece3d61c3664736f6c634300060c0033"}}