{"compiler":"v0.7.4+commit.3f05b770","opcodeHash":"0x6ad18da0a90b2b85b116d2d97ce9ce4a97bee84d82bcdff5f97f742b9b4242d7","metalessHash":"0x26b8b3669379dbd4bb417c6a30a9e9344212ed1cd021d3254ba18994a4e8c566","runtimeHash":"0x85bd8d1f7be4322ac3877d8eb8cdacc0a3ae29db320fc8c787da74c6b0766ee0","encodedMetadata":[{"ipfs":"/ipfs/QmdVogeuGTwr7rYnvnS1QvFB3PMFse3huhXgC4zXrcgSdr","solc":"0.7.4"}],"abi":[{"inputs":[{"internalType":"address","name":"_sfi_address","type":"address"},{"internalType":"address","name":"_team_address","type":"address"},{"internalType":"bool","name":"epoch_cycle_reset","type":"bool"}],"stateMutability":"nonpayable","type":"constructor"},{"anonymous":false,"inputs":[{"indexed":false,"internalType":"address","name":"who","type":"address"},{"indexed":false,"internalType":"address","name":"to","type":"address"},{"indexed":false,"internalType":"address","name":"token","type":"address"},{"indexed":false,"internalType":"uint256","name":"amount","type":"uint256"}],"name":"ErcSwept","type":"event"},{"inputs":[],"name":"SFI_address","outputs":[{"internalType":"address","name":"","type":"address"}],"stateMutability":"view","type":"function"},{"inputs":[{"internalType":"uint256","name":"","type":"uint256"}],"name":"adapters","outputs":[{"internalType":"address","name":"","type":"address"}],"stateMutability":"view","type":"function"},{"inputs":[{"internalType":"address","name":"adapter_address","type":"address"}],"name":"add_adapter","outputs":[],"stateMutability":"nonpayable","type":"function"},{"inputs":[{"internalType":"address","name":"pool_address","type":"address"}],"name":"add_pool","outputs":[],"stateMutability":"nonpayable","type":"function"},{"inputs":[],"name":"delete_adapters","outputs":[],"stateMutability":"nonpayable","type":"function"},{"inputs":[],"name":"deploy_all_capital","outputs":[],"stateMutability":"nonpayable","type":"function"},{"inputs":[{"internalType":"uint256","name":"pool_index","type":"uint256"},{"internalType":"uint256","name":"adapter_index","type":"uint256"}],"name":"deploy_all_capital_single_pool","outputs":[],"stateMutability":"nonpayable","type":"function"},{"inputs":[],"name":"deploy_interval","outputs":[{"internalType":"uint256","name":"","type":"uint256"}],"stateMutability":"view","type":"function"},{"inputs":[],"name":"epoch_cycle","outputs":[{"internalType":"uint256","name":"start_date","type":"uint256"},{"internalType":"uint256","name":"duration","type":"uint256"}],"stateMutability":"view","type":"function"},{"inputs":[{"internalType":"uint256","name":"","type":"uint256"}],"name":"epoch_wound_down","outputs":[{"internalType":"bool","name":"","type":"bool"}],"stateMutability":"view","type":"function"},{"inputs":[{"internalType":"address","name":"_token","type":"address"},{"internalType":"address","name":"_to","type":"address"}],"name":"erc_sweep","outputs":[],"stateMutability":"nonpayable","type":"function"},{"inputs":[{"internalType":"uint256","name":"index","type":"uint256"}],"name":"get_adapter_address","outputs":[{"internalType":"address","name":"","type":"address"}],"stateMutability":"view","type":"function"},{"inputs":[{"internalType":"address","name":"adapter_address","type":"address"}],"name":"get_adapter_index","outputs":[{"internalType":"uint256","name":"","type":"uint256"}],"stateMutability":"view","type":"function"},{"inputs":[],"name":"get_current_epoch","outputs":[{"internalType":"uint256","name":"","type":"uint256"}],"stateMutability":"view","type":"function"},{"inputs":[{"internalType":"uint256","name":"epoch","type":"uint256"}],"name":"get_epoch_end","outputs":[{"internalType":"uint256","name":"","type":"uint256"}],"stateMutability":"view","type":"function"},{"inputs":[{"internalType":"uint256","name":"epoch","type":"uint256"}],"name":"get_seconds_until_epoch_end","outputs":[{"internalType":"uint256","name":"","type":"uint256"}],"stateMutability":"view","type":"function"},{"inputs":[],"name":"governance","outputs":[{"internalType":"address","name":"","type":"address"}],"stateMutability":"view","type":"function"},{"inputs":[],"name":"last_deploy","outputs":[{"internalType":"uint256","name":"","type":"uint256"}],"stateMutability":"view","type":"function"},{"inputs":[{"internalType":"uint256","name":"","type":"uint256"}],"name":"pool_SFI_rewards","outputs":[{"internalType":"uint256","name":"","type":"uint256"}],"stateMutability":"view","type":"function"},{"inputs":[{"internalType":"uint256","name":"","type":"uint256"}],"name":"pools","outputs":[{"internalType":"address","name":"","type":"address"}],"stateMutability":"view","type":"function"},{"inputs":[],"name":"select_adapter_for_liquidity_removal","outputs":[{"internalType":"address","name":"","type":"address"}],"stateMutability":"view","type":"function"},{"inputs":[{"internalType":"address","name":"base_asset_address","type":"address"}],"name":"select_best_adapter","outputs":[{"internalType":"address","name":"","type":"address"}],"stateMutability":"view","type":"function"},{"inputs":[{"internalType":"address","name":"to","type":"address"}],"name":"set_governance","outputs":[],"stateMutability":"nonpayable","type":"function"},{"inputs":[{"internalType":"address","name":"to","type":"address"}],"name":"set_team_address","outputs":[],"stateMutability":"nonpayable","type":"function"},{"inputs":[],"name":"team_address","outputs":[{"internalType":"address","name":"","type":"address"}],"stateMutability":"view","type":"function"},{"inputs":[],"name":"v01_final_deploy","outputs":[],"stateMutability":"nonpayable","type":"function"},{"inputs":[{"internalType":"uint256","name":"epoch","type":"uint256"}],"name":"wind_down_epoch","outputs":[],"stateMutability":"nonpayable","type":"function"},{"inputs":[{"internalType":"uint256","name":"pool","type":"uint256"},{"internalType":"uint256","name":"epoch","type":"uint256"}],"name":"wind_down_pool","outputs":[],"stateMutability":"nonpayable","type":"function"}],"bytecode":{"object":"6101e060405260c8608081815261019a60a081905260d260c0819052606460e05261010052600a61012052603261014081905261016091909152610180526101a09190915260196101c0526200005a90600790600b62000146565b5060408051808201909152635f9ebf60808252621275006020909201829052600b55600c553480156200008c57600080fd5b5060405162004a0238038062004a0283398181016040526060811015620000b257600080fd5b508051602082015160409092015160008054336001600160a01b0319918216179091556001805482166001600160a01b038087169190911790915560028054909216908416179055610e10600a559091908062000113576212750062000117565b6107085b62ffffff16600c55806200013057635f9ebf6062000139565b600c5460040242035b600b5550620001b3915050565b8280548282559060005260206000209081019282156200018a579160200282015b828111156200018a578251829061ffff1690559160200191906001019062000167565b50620001989291506200019c565b5090565b5b808211156200019857600081556001016200019d565b61483f80620001c36000396000f3fe608060405234801561001057600080fd5b50600436106101c45760003560e01c8063a684b599116100f9578063d074950311610097578063e653be7411610071578063e653be74146104d6578063e7dbe771146104de578063f04af652146104e6578063fd82106214610503576101c4565b8063d07495031461047e578063d0c87c1e146104b1578063df4cbfd8146104b9576101c4565b8063b613ab97116100d3578063b613ab97146103d8578063c45a2fe31461040b578063ccb063071461042e578063cdaa608d1461044b576101c4565b8063a684b59914610382578063ab3a1cc0146103b3578063ac4afa38146103bb576101c4565b80634ef501ac116101665780637f912610116101405780637f91261014610322578063837a9bc7146103555780638f32cf0c1461035d57806392e4d08214610365576101c4565b80634ef501ac146102f55780635aa6e6751461031257806372deebf31461031a576101c4565b80630efb8dbd116101a25780630efb8dbd146102745780631816f314146102915780632a0ccc88146102b25780632b666fcf146102ba576101c4565b806305221575146101c9578063070313fa146101e35780630823262814610218575b600080fd5b6101d1610526565b60408051918252519081900360200190f35b610216600480360360208110156101f957600080fd5b503573ffffffffffffffffffffffffffffffffffffffff1661052c565b005b61024b6004803603602081101561022e57600080fd5b503573ffffffffffffffffffffffffffffffffffffffff166105e3565b6040805173ffffffffffffffffffffffffffffffffffffffff9092168252519081900360200190f35b6101d16004803603602081101561028a57600080fd5b5035610687565b6102996106b5565b6040805192835260208301919091528051918290030190f35b61024b6106be565b610216600480360360408110156102d057600080fd5b5073ffffffffffffffffffffffffffffffffffffffff813581169160200135166106da565b61024b6004803603602081101561030b57600080fd5b5035610883565b61024b6108ba565b6102166108d6565b6101d16004803603602081101561033857600080fd5b503573ffffffffffffffffffffffffffffffffffffffff16610dc8565b6101d1610df0565b61024b610e78565b6101d16004803603602081101561037b57600080fd5b5035610e94565b61039f6004803603602081101561039857600080fd5b5035610eb5565b604080519115158252519081900360200190f35b610216610eca565b61024b600480360360208110156103d157600080fd5b5035611440565b610216600480360360208110156103ee57600080fd5b503573ffffffffffffffffffffffffffffffffffffffff16611450565b6102166004803603604081101561042157600080fd5b508035906020013561155c565b61024b6004803603602081101561044457600080fd5b5035611821565b6102166004803603602081101561046157600080fd5b503573ffffffffffffffffffffffffffffffffffffffff16611830565b6102166004803603602081101561049457600080fd5b503573ffffffffffffffffffffffffffffffffffffffff1661191f565b6101d1611a1c565b6101d1600480360360208110156104cf57600080fd5b5035611a22565b610216611a4e565b61024b611acc565b610216600480360360208110156104fc57600080fd5b5035611b03565b6102166004803603604081101561051957600080fd5b5080359060200135612db5565b60095481565b60005473ffffffffffffffffffffffffffffffffffffffff16331461059c576040517f08c379a000000000000000000000000000000000000000000000000000000000815260040180806020018281038252602281526020018061477a6022913960400191505060405180910390fd5b600080547fffffffffffffffffffffffff00000000000000000000000000000000000000001673ffffffffffffffffffffffffffffffffffffffff92909216919091179055565b600073ffffffffffffffffffffffffffffffffffffffff8216610651576040517f08c379a000000000000000000000000000000000000000000000000000000000815260040180806020018281038252602581526020018061472f6025913960400191505060405180910390fd5b600460008154811061065f57fe5b60009182526020909120015473ffffffffffffffffffffffffffffffffffffffff1692915050565b600c546000906106af906106a6906106a0856001614156565b906141d1565b600b5490614156565b92915050565b600b54600c5482565b60025473ffffffffffffffffffffffffffffffffffffffff1681565b60005473ffffffffffffffffffffffffffffffffffffffff16331461076057604080517f08c379a000000000000000000000000000000000000000000000000000000000815260206004820152601260248201527f6d75737420626520676f7665726e616e63650000000000000000000000000000604482015290519081900360640190fd5b604080517f70a082310000000000000000000000000000000000000000000000000000000081523060048201529051839160009173ffffffffffffffffffffffffffffffffffffffff8416916370a08231916024808301926020929190829003018186803b1580156107d157600080fd5b505afa1580156107e5573d6000803e3d6000fd5b505050506040513d60208110156107fb57600080fd5b5051905061082073ffffffffffffffffffffffffffffffffffffffff83168483614244565b6040805133815273ffffffffffffffffffffffffffffffffffffffff80861660208301528616818301526060810183905290517f2c4e64c7c0957a81c0076a0a3f3c7d9f0a5d6158292071c794436f829d12cfb79181900360800190a150505050565b6004818154811061089357600080fd5b60009182526020909120015473ffffffffffffffffffffffffffffffffffffffff16905081565b60005473ffffffffffffffffffffffffffffffffffffffff1681565b600a546009540142101561094b57604080517f08c379a000000000000000000000000000000000000000000000000000000000815260206004820152601460248201527f6465706c6f792063616c6c20746f6f20736f6f6e000000000000000000000000604482015290519081900360640190fd5b426009819055506000600360008154811061096257fe5b6000918252602080832090910154604080517fa72b6c30000000000000000000000000000000000000000000000000000000008152905173ffffffffffffffffffffffffffffffffffffffff9092169450849263a72b6c3092600480840193829003018186803b1580156109d557600080fd5b505afa1580156109e9573d6000803e3d6000fd5b505050506040513d60208110156109ff57600080fd5b50516003805491925060009173ffffffffffffffffffffffffffffffffffffffff8416916370a08231918490610a3157fe5b60009182526020918290200154604080517fffffffff0000000000000000000000000000000000000000000000000000000060e086901b16815273ffffffffffffffffffffffffffffffffffffffff90921660048301525160248083019392829003018186803b158015610aa457600080fd5b505afa158015610ab8573d6000803e3d6000fd5b505050506040513d6020811015610ace57600080fd5b50511115610b8b578173ffffffffffffffffffffffffffffffffffffffff16634c1a42596004600081548110610b0057fe5b6000918252602082200154604080517fffffffff0000000000000000000000000000000000000000000000000000000060e086901b16815273ffffffffffffffffffffffffffffffffffffffff9092166004830152516024808301939282900301818387803b158015610b7257600080fd5b505af1158015610b86573d6000803e3d6000fd5b505050505b6003600981548110610b9957fe5b60009182526020918290200154604080517fa72b6c30000000000000000000000000000000000000000000000000000000008152905173ffffffffffffffffffffffffffffffffffffffff9092169450849263a72b6c3092600480840193829003018186803b158015610c0b57600080fd5b505afa158015610c1f573d6000803e3d6000fd5b505050506040513d6020811015610c3557600080fd5b50516003805491925060009173ffffffffffffffffffffffffffffffffffffffff8416916370a08231916009908110610c6a57fe5b60009182526020918290200154604080517fffffffff0000000000000000000000000000000000000000000000000000000060e086901b16815273ffffffffffffffffffffffffffffffffffffffff90921660048301525160248083019392829003018186803b158015610cdd57600080fd5b505afa158015610cf1573d6000803e3d6000fd5b505050506040513d6020811015610d0757600080fd5b50511115610dc4578173ffffffffffffffffffffffffffffffffffffffff16634c1a42596004600181548110610d3957fe5b6000918252602082200154604080517fffffffff0000000000000000000000000000000000000000000000000000000060e086901b16815273ffffffffffffffffffffffffffffffffffffffff9092166004830152516024808301939282900301818387803b158015610dab57600080fd5b505af1158015610dbf573d6000803e3d6000fd5b505050505b5050565b73ffffffffffffffffffffffffffffffffffffffff1660009081526005602052604090205490565b600b546000904211610e6357604080517f08c379a000000000000000000000000000000000000000000000000000000000815260206004820152600e60248201527f6265666f72652065706f63682030000000000000000000000000000000000000604482015290519081900360640190fd5b600c54600b54420381610e7257fe5b04905090565b60015473ffffffffffffffffffffffffffffffffffffffff1681565b60078181548110610ea457600080fd5b600091825260209091200154905081565b60086020526000908152604090205460ff1681565b60005473ffffffffffffffffffffffffffffffffffffffff163314610f5057604080517f08c379a000000000000000000000000000000000000000000000000000000000815260206004820152601260248201527f6d75737420626520676f7665726e616e63650000000000000000000000000000604482015290519081900360640190fd5b60006003600081548110610f6057fe5b6000918252602080832090910154604080517fa72b6c30000000000000000000000000000000000000000000000000000000008152905173ffffffffffffffffffffffffffffffffffffffff9092169450849263a72b6c3092600480840193829003018186803b158015610fd357600080fd5b505afa158015610fe7573d6000803e3d6000fd5b505050506040513d6020811015610ffd57600080fd5b50516003805491925060009173ffffffffffffffffffffffffffffffffffffffff8416916370a0823191849061102f57fe5b60009182526020918290200154604080517fffffffff0000000000000000000000000000000000000000000000000000000060e086901b16815273ffffffffffffffffffffffffffffffffffffffff90921660048301525160248083019392829003018186803b1580156110a257600080fd5b505afa1580156110b6573d6000803e3d6000fd5b505050506040513d60208110156110cc57600080fd5b50511115611189578173ffffffffffffffffffffffffffffffffffffffff16634c1a425960046000815481106110fe57fe5b6000918252602082200154604080517fffffffff0000000000000000000000000000000000000000000000000000000060e086901b16815273ffffffffffffffffffffffffffffffffffffffff9092166004830152516024808301939282900301818387803b15801561117057600080fd5b505af1158015611184573d6000803e3d6000fd5b505050505b600360098154811061119757fe5b60009182526020918290200154604080517fa72b6c30000000000000000000000000000000000000000000000000000000008152905173ffffffffffffffffffffffffffffffffffffffff9092169450849263a72b6c3092600480840193829003018186803b15801561120957600080fd5b505afa15801561121d573d6000803e3d6000fd5b505050506040513d602081101561123357600080fd5b50516003805491925060009173ffffffffffffffffffffffffffffffffffffffff8416916370a0823191600990811061126857fe5b60009182526020918290200154604080517fffffffff0000000000000000000000000000000000000000000000000000000060e086901b16815273ffffffffffffffffffffffffffffffffffffffff90921660048301525160248083019392829003018186803b1580156112db57600080fd5b505afa1580156112ef573d6000803e3d6000fd5b505050506040513d602081101561130557600080fd5b505111156113c2578173ffffffffffffffffffffffffffffffffffffffff16634c1a4259600460018154811061133757fe5b6000918252602082200154604080517fffffffff0000000000000000000000000000000000000000000000000000000060e086901b16815273ffffffffffffffffffffffffffffffffffffffff9092166004830152516024808301939282900301818387803b1580156113a957600080fd5b505af11580156113bd573d6000803e3d6000fd5b505050505b60005b60035481101561143b578273ffffffffffffffffffffffffffffffffffffffff1663fc0e74d16040518163ffffffff1660e01b8152600401600060405180830381600087803b15801561141757600080fd5b505af115801561142b573d6000803e3d6000fd5b5050600190920191506113c59050565b505050565b6003818154811061089357600080fd5b60005473ffffffffffffffffffffffffffffffffffffffff1633146114d657604080517f08c379a000000000000000000000000000000000000000000000000000000000815260206004820152601f60248201527f6164645f616461707465723a206d75737420626520676f7665726e616e636500604482015290519081900360640190fd5b6004805473ffffffffffffffffffffffffffffffffffffffff9092166000818152600560205260408120849055600184018355919091527f8a35acfbc15ff81a39ae7d344fd709f28e8600b4aa8c65c6b64bfe7fe36bd19b90910180547fffffffffffffffffffffffff0000000000000000000000000000000000000000169091179055565b60005473ffffffffffffffffffffffffffffffffffffffff1633146115e257604080517f08c379a000000000000000000000000000000000000000000000000000000000815260206004820152601260248201527f6d75737420626520676f7665726e616e63650000000000000000000000000000604482015290519081900360640190fd5b6000600383815481106115f157fe5b6000918252602080832090910154604080517fa72b6c30000000000000000000000000000000000000000000000000000000008152905173ffffffffffffffffffffffffffffffffffffffff9092169450849263a72b6c3092600480840193829003018186803b15801561166457600080fd5b505afa158015611678573d6000803e3d6000fd5b505050506040513d602081101561168e57600080fd5b50516003805491925060009173ffffffffffffffffffffffffffffffffffffffff8416916370a0823191889081106116c257fe5b60009182526020918290200154604080517fffffffff0000000000000000000000000000000000000000000000000000000060e086901b16815273ffffffffffffffffffffffffffffffffffffffff90921660048301525160248083019392829003018186803b15801561173557600080fd5b505afa158015611749573d6000803e3d6000fd5b505050506040513d602081101561175f57600080fd5b5051111561181b578173ffffffffffffffffffffffffffffffffffffffff16634c1a42596004858154811061179057fe5b6000918252602082200154604080517fffffffff0000000000000000000000000000000000000000000000000000000060e086901b16815273ffffffffffffffffffffffffffffffffffffffff9092166004830152516024808301939282900301818387803b15801561180257600080fd5b505af1158015611816573d6000803e3d6000fd5b505050505b50505050565b60006004828154811061065f57fe5b60005473ffffffffffffffffffffffffffffffffffffffff1633148061186d575060015473ffffffffffffffffffffffffffffffffffffffff1633145b6118d857604080517f08c379a000000000000000000000000000000000000000000000000000000000815260206004820152600a60248201527f7065726d697373696f6e00000000000000000000000000000000000000000000604482015290519081900360640190fd5b600180547fffffffffffffffffffffffff00000000000000000000000000000000000000001673ffffffffffffffffffffffffffffffffffffffff92909216919091179055565b60005473ffffffffffffffffffffffffffffffffffffffff1633146119a557604080517f08c379a000000000000000000000000000000000000000000000000000000000815260206004820152601c60248201527f6164645f706f6f6c3a206d75737420626520676f7665726e616e636500000000604482015290519081900360640190fd5b600380546001810182556000919091527fc2575a0e9e593c00f959f8c92f12db2869c3395a3b0502d05e2516446f71f85b0180547fffffffffffffffffffffffff00000000000000000000000000000000000000001673ffffffffffffffffffffffffffffffffffffffff92909216919091179055565b600a5481565b60006106af42611a486106a6600b600101546106a060018861415690919063ffffffff16565b906142d1565b60005473ffffffffffffffffffffffffffffffffffffffff163314611abe576040517f08c379a00000000000000000000000000000000000000000000000000000000081526004018080602001828103825260238152602001806147bd6023913960400191505060405180910390fd5b611aca600460006146f4565b565b60006004600081548110611adc57fe5b60009182526020909120015473ffffffffffffffffffffffffffffffffffffffff16905090565b80600414611b7257604080517f08c379a000000000000000000000000000000000000000000000000000000000815260206004820152601260248201527f76312e343a206f6e6c792065706f636820340000000000000000000000000000604482015290519081900360640190fd5b60008181526008602052604090205460ff1615611bf057604080517f08c379a000000000000000000000000000000000000000000000000000000000815260206004820152601860248201527f65706f636820616c726561647920776f756e6420646f776e0000000000000000604482015290519081900360640190fd5b60015473ffffffffffffffffffffffffffffffffffffffff163314611c7657604080517f08c379a000000000000000000000000000000000000000000000000000000000815260206004820152600c60248201527f6d757374206265207465616d0000000000000000000000000000000000000000604482015290519081900360640190fd5b6000611c80610df0565b9050808210611cf057604080517f08c379a000000000000000000000000000000000000000000000000000000000815260206004820152601d60248201527f63616e6e6f742077696e6420646f776e206675747572652065706f6368000000604482015290519081900360640190fd5b60008281526008602052604080822080547fffffffffffffffffffffffffffffffffffffffffffffffffffffffffffffff00166001908117909155600254905482517fc21b27c700000000000000000000000000000000000000000000000000000000815273ffffffffffffffffffffffffffffffffffffffff918216600482015269021e19e0c9bab2400000871c6024820181905293519394919092169263c21b27c792604480820193929182900301818387803b158015611db257600080fd5b505af1158015611dc6573d6000803e3d6000fd5b505060025460038054680ad78ebc5ac6200000945073ffffffffffffffffffffffffffffffffffffffff909216925063c21b27c791600090611e0457fe5b6000918252602082200154604080517fffffffff0000000000000000000000000000000000000000000000000000000060e086901b16815273ffffffffffffffffffffffffffffffffffffffff909216600483015260248201869052516044808301939282900301818387803b158015611e7d57600080fd5b505af1158015611e91573d6000803e3d6000fd5b505050506003600081548110611ea357fe5b6000918252602082200154604080517f80e0f15f0000000000000000000000000000000000000000000000000000000081526004810188905260248101859052905173ffffffffffffffffffffffffffffffffffffffff909216926380e0f15f9260448084019382900301818387803b158015611f1f57600080fd5b505af1158015611f33573d6000803e3d6000fd5b505060025460038054681639e49bba16280000945073ffffffffffffffffffffffffffffffffffffffff909216925063c21b27c7916001908110611f7357fe5b6000918252602082200154604080517fffffffff0000000000000000000000000000000000000000000000000000000060e086901b16815273ffffffffffffffffffffffffffffffffffffffff909216600483015260248201869052516044808301939282900301818387803b158015611fec57600080fd5b505af1158015612000573d6000803e3d6000fd5b50505050600360018154811061201257fe5b6000918252602082200154604080517f80e0f15f0000000000000000000000000000000000000000000000000000000081526004810189905260248101859052905173ffffffffffffffffffffffffffffffffffffffff909216926380e0f15f9260448084019382900301818387803b15801561208e57600080fd5b505af11580156120a2573d6000803e3d6000fd5b50506002805460038054680b6255df5f50080000955073ffffffffffffffffffffffffffffffffffffffff909216935063c21b27c792909181106120e257fe5b6000918252602082200154604080517fffffffff0000000000000000000000000000000000000000000000000000000060e086901b16815273ffffffffffffffffffffffffffffffffffffffff909216600483015260248201869052516044808301939282900301818387803b15801561215b57600080fd5b505af115801561216f573d6000803e3d6000fd5b50505050600360028154811061218157fe5b6000918252602082200154604080517f80e0f15f000000000000000000000000000000000000000000000000000000008152600481018a905260248101859052905173ffffffffffffffffffffffffffffffffffffffff909216926380e0f15f9260448084019382900301818387803b1580156121fd57600080fd5b505af1158015612211573d6000803e3d6000fd5b50506002546003805468056bc75e2d63100000945073ffffffffffffffffffffffffffffffffffffffff909216925063c21b27c7918190811061225057fe5b6000918252602082200154604080517fffffffff0000000000000000000000000000000000000000000000000000000060e086901b16815273ffffffffffffffffffffffffffffffffffffffff909216600483015260248201869052516044808301939282900301818387803b1580156122c957600080fd5b505af11580156122dd573d6000803e3d6000fd5b50505050600380815481106122ee57fe5b6000918252602082200154604080517f80e0f15f000000000000000000000000000000000000000000000000000000008152600481018b905260248101859052905173ffffffffffffffffffffffffffffffffffffffff909216926380e0f15f9260448084019382900301818387803b15801561236a57600080fd5b505af115801561237e573d6000803e3d6000fd5b505060025460038054680b6255df5f50080000945073ffffffffffffffffffffffffffffffffffffffff909216925063c21b27c79160049081106123be57fe5b6000918252602082200154604080517fffffffff0000000000000000000000000000000000000000000000000000000060e086901b16815273ffffffffffffffffffffffffffffffffffffffff909216600483015260248201869052516044808301939282900301818387803b15801561243757600080fd5b505af115801561244b573d6000803e3d6000fd5b50505050600360048154811061245d57fe5b6000918252602082200154604080517f80e0f15f000000000000000000000000000000000000000000000000000000008152600481018c905260248101859052905173ffffffffffffffffffffffffffffffffffffffff909216926380e0f15f9260448084019382900301818387803b1580156124d957600080fd5b505af11580156124ed573d6000803e3d6000fd5b505060025460038054678ac7230489e80000945073ffffffffffffffffffffffffffffffffffffffff909216925063c21b27c791600590811061252c57fe5b6000918252602082200154604080517fffffffff0000000000000000000000000000000000000000000000000000000060e086901b16815273ffffffffffffffffffffffffffffffffffffffff909216600483015260248201869052516044808301939282900301818387803b1580156125a557600080fd5b505af11580156125b9573d6000803e3d6000fd5b5050505060036005815481106125cb57fe5b6000918252602082200154604080517f80e0f15f000000000000000000000000000000000000000000000000000000008152600481018d905260248101859052905173ffffffffffffffffffffffffffffffffffffffff909216926380e0f15f9260448084019382900301818387803b15801561264757600080fd5b505af115801561265b573d6000803e3d6000fd5b5050600254600380546802b5e3af16b1880000945073ffffffffffffffffffffffffffffffffffffffff909216925063c21b27c791600690811061269b57fe5b6000918252602082200154604080517fffffffff0000000000000000000000000000000000000000000000000000000060e086901b16815273ffffffffffffffffffffffffffffffffffffffff909216600483015260248201869052516044808301939282900301818387803b15801561271457600080fd5b505af1158015612728573d6000803e3d6000fd5b50505050600360068154811061273a57fe5b6000918252602082200154604080517f80e0f15f000000000000000000000000000000000000000000000000000000008152600481018e905260248101859052905173ffffffffffffffffffffffffffffffffffffffff909216926380e0f15f9260448084019382900301818387803b1580156127b657600080fd5b505af11580156127ca573d6000803e3d6000fd5b505060025460038054681639e49bba16280000945073ffffffffffffffffffffffffffffffffffffffff909216925063c21b27c791600790811061280a57fe5b6000918252602082200154604080517fffffffff0000000000000000000000000000000000000000000000000000000060e086901b16815273ffffffffffffffffffffffffffffffffffffffff909216600483015260248201869052516044808301939282900301818387803b15801561288357600080fd5b505af1158015612897573d6000803e3d6000fd5b5050505060036007815481106128a957fe5b6000918252602082200154604080517f80e0f15f000000000000000000000000000000000000000000000000000000008152600481018f905260248101859052905173ffffffffffffffffffffffffffffffffffffffff909216926380e0f15f9260448084019382900301818387803b15801561292557600080fd5b505af1158015612939573d6000803e3d6000fd5b5050600254600380546802b5e3af16b1880000945073ffffffffffffffffffffffffffffffffffffffff909216925063c21b27c791600890811061297957fe5b6000918252602082200154604080517fffffffff0000000000000000000000000000000000000000000000000000000060e086901b16815273ffffffffffffffffffffffffffffffffffffffff909216600483015260248201869052516044808301939282900301818387803b1580156129f257600080fd5b505af1158015612a06573d6000803e3d6000fd5b505050506003600881548110612a1857fe5b9060005260206000200160009054906101000a900473ffffffffffffffffffffffffffffffffffffffff1673ffffffffffffffffffffffffffffffffffffffff166380e0f15f8d836040518363ffffffff1660e01b81526004018083815260200182815260200192505050600060405180830381600087803b158015612a9d57600080fd5b505af1158015612ab1573d6000803e3d6000fd5b505060025460038054680ad78ebc5ac6200000945073ffffffffffffffffffffffffffffffffffffffff909216925063c21b27c7916009908110612af157fe5b6000918252602082200154604080517fffffffff0000000000000000000000000000000000000000000000000000000060e086901b16815273ffffffffffffffffffffffffffffffffffffffff909216600483015260248201869052516044808301939282900301818387803b158015612b6a57600080fd5b505af1158015612b7e573d6000803e3d6000fd5b505050506003600981548110612b9057fe5b9060005260206000200160009054906101000a900473ffffffffffffffffffffffffffffffffffffffff1673ffffffffffffffffffffffffffffffffffffffff166380e0f15f8e836040518363ffffffff1660e01b81526004018083815260200182815260200192505050600060405180830381600087803b158015612c1557600080fd5b505af1158015612c29573d6000803e3d6000fd5b50506002546003805468015af1d78b58c40000945073ffffffffffffffffffffffffffffffffffffffff909216925063c21b27c791600a908110612c6957fe5b6000918252602082200154604080517fffffffff0000000000000000000000000000000000000000000000000000000060e086901b16815273ffffffffffffffffffffffffffffffffffffffff909216600483015260248201869052516044808301939282900301818387803b158015612ce257600080fd5b505af1158015612cf6573d6000803e3d6000fd5b505050506003600a81548110612d0857fe5b9060005260206000200160009054906101000a900473ffffffffffffffffffffffffffffffffffffffff1673ffffffffffffffffffffffffffffffffffffffff166380e0f15f8f836040518363ffffffff1660e01b81526004018083815260200182815260200192505050600060405180830381600087803b158015612d8d57600080fd5b505af1158015612da1573d6000803e3d6000fd5b505050505050505050505050505050505050565b60015473ffffffffffffffffffffffffffffffffffffffff163314612e3b57604080517f08c379a000000000000000000000000000000000000000000000000000000000815260206004820152600c60248201527f6d757374206265207465616d0000000000000000000000000000000000000000604482015290519081900360640190fd5b80600414612eaa57604080517f08c379a000000000000000000000000000000000000000000000000000000000815260206004820152601260248201527f76312e343a206f6e6c792065706f636820340000000000000000000000000000604482015290519081900360640190fd5b6000612eb4610df0565b9050808210612f2457604080517f08c379a000000000000000000000000000000000000000000000000000000000815260206004820152601d60248201527f63616e6e6f742077696e6420646f776e206675747572652065706f6368000000604482015290519081900360640190fd5b7fffffffffffffffffffffffffffffffffffffffffffffffffffffffffffffffff8314156130885760008281526008602052604090205460ff1615612fca57604080517f08c379a000000000000000000000000000000000000000000000000000000000815260206004820152601860248201527f65706f636820616c726561647920776f756e6420646f776e0000000000000000604482015290519081900360640190fd5b60015473ffffffffffffffffffffffffffffffffffffffff16331461305057604080517f08c379a000000000000000000000000000000000000000000000000000000000815260206004820152600c60248201527f6d757374206265207465616d0000000000000000000000000000000000000000604482015290519081900360640190fd5b600082815260086020526040902080547fffffffffffffffffffffffffffffffffffffffffffffffffffffffffffffff001660011790555b600254600154604080517fc21b27c700000000000000000000000000000000000000000000000000000000815273ffffffffffffffffffffffffffffffffffffffff928316600482015269021e19e0c9bab2400000861c6024820181905291519193929092169163c21b27c791604480830192600092919082900301818387803b15801561311557600080fd5b505af1158015613129573d6000803e3d6000fd5b5050505083600014156132a35760025460038054680ad78ebc5ac62000009273ffffffffffffffffffffffffffffffffffffffff169163c21b27c79160009061316e57fe5b6000918252602082200154604080517fffffffff0000000000000000000000000000000000000000000000000000000060e086901b16815273ffffffffffffffffffffffffffffffffffffffff909216600483015260248201869052516044808301939282900301818387803b1580156131e757600080fd5b505af11580156131fb573d6000803e3d6000fd5b50505050600360008154811061320d57fe5b6000918252602082200154604080517f80e0f15f0000000000000000000000000000000000000000000000000000000081526004810188905260248101859052905173ffffffffffffffffffffffffffffffffffffffff909216926380e0f15f9260448084019382900301818387803b15801561328957600080fd5b505af115801561329d573d6000803e3d6000fd5b50505050505b836001141561341b5760025460038054681639e49bba162800009273ffffffffffffffffffffffffffffffffffffffff169163c21b27c79160019081106132e657fe5b6000918252602082200154604080517fffffffff0000000000000000000000000000000000000000000000000000000060e086901b16815273ffffffffffffffffffffffffffffffffffffffff909216600483015260248201869052516044808301939282900301818387803b15801561335f57600080fd5b505af1158015613373573d6000803e3d6000fd5b50505050600360018154811061338557fe5b6000918252602082200154604080517f80e0f15f0000000000000000000000000000000000000000000000000000000081526004810188905260248101859052905173ffffffffffffffffffffffffffffffffffffffff909216926380e0f15f9260448084019382900301818387803b15801561340157600080fd5b505af1158015613415573d6000803e3d6000fd5b50505050505b8360021415613594576002805460038054680b6255df5f500800009373ffffffffffffffffffffffffffffffffffffffff9093169263c21b27c79291811061345f57fe5b6000918252602082200154604080517fffffffff0000000000000000000000000000000000000000000000000000000060e086901b16815273ffffffffffffffffffffffffffffffffffffffff909216600483015260248201869052516044808301939282900301818387803b1580156134d857600080fd5b505af11580156134ec573d6000803e3d6000fd5b5050505060036002815481106134fe57fe5b6000918252602082200154604080517f80e0f15f0000000000000000000000000000000000000000000000000000000081526004810188905260248101859052905173ffffffffffffffffffffffffffffffffffffffff909216926380e0f15f9260448084019382900301818387803b15801561357a57600080fd5b505af115801561358e573d6000803e3d6000fd5b50505050505b836003141561370a576002546003805468056bc75e2d631000009273ffffffffffffffffffffffffffffffffffffffff169163c21b27c791819081106135d657fe5b6000918252602082200154604080517fffffffff0000000000000000000000000000000000000000000000000000000060e086901b16815273ffffffffffffffffffffffffffffffffffffffff909216600483015260248201869052516044808301939282900301818387803b15801561364f57600080fd5b505af1158015613663573d6000803e3d6000fd5b505050506003808154811061367457fe5b6000918252602082200154604080517f80e0f15f0000000000000000000000000000000000000000000000000000000081526004810188905260248101859052905173ffffffffffffffffffffffffffffffffffffffff909216926380e0f15f9260448084019382900301818387803b1580156136f057600080fd5b505af1158015613704573d6000803e3d6000fd5b50505050505b83600414156138825760025460038054680b6255df5f500800009273ffffffffffffffffffffffffffffffffffffffff169163c21b27c791600490811061374d57fe5b6000918252602082200154604080517fffffffff0000000000000000000000000000000000000000000000000000000060e086901b16815273ffffffffffffffffffffffffffffffffffffffff909216600483015260248201869052516044808301939282900301818387803b1580156137c657600080fd5b505af11580156137da573d6000803e3d6000fd5b5050505060036004815481106137ec57fe5b6000918252602082200154604080517f80e0f15f0000000000000000000000000000000000000000000000000000000081526004810188905260248101859052905173ffffffffffffffffffffffffffffffffffffffff909216926380e0f15f9260448084019382900301818387803b15801561386857600080fd5b505af115801561387c573d6000803e3d6000fd5b50505050505b83600514156139f95760025460038054678ac7230489e800009273ffffffffffffffffffffffffffffffffffffffff169163c21b27c79160059081106138c457fe5b6000918252602082200154604080517fffffffff0000000000000000000000000000000000000000000000000000000060e086901b16815273ffffffffffffffffffffffffffffffffffffffff909216600483015260248201869052516044808301939282900301818387803b15801561393d57600080fd5b505af1158015613951573d6000803e3d6000fd5b50505050600360058154811061396357fe5b6000918252602082200154604080517f80e0f15f0000000000000000000000000000000000000000000000000000000081526004810188905260248101859052905173ffffffffffffffffffffffffffffffffffffffff909216926380e0f15f9260448084019382900301818387803b1580156139df57600080fd5b505af11580156139f3573d6000803e3d6000fd5b50505050505b8360061415613b7157600254600380546802b5e3af16b18800009273ffffffffffffffffffffffffffffffffffffffff169163c21b27c7916006908110613a3c57fe5b6000918252602082200154604080517fffffffff0000000000000000000000000000000000000000000000000000000060e086901b16815273ffffffffffffffffffffffffffffffffffffffff909216600483015260248201869052516044808301939282900301818387803b158015613ab557600080fd5b505af1158015613ac9573d6000803e3d6000fd5b505050506003600681548110613adb57fe5b6000918252602082200154604080517f80e0f15f0000000000000000000000000000000000000000000000000000000081526004810188905260248101859052905173ffffffffffffffffffffffffffffffffffffffff909216926380e0f15f9260448084019382900301818387803b158015613b5757600080fd5b505af1158015613b6b573d6000803e3d6000fd5b50505050505b8360071415613ce95760025460038054681639e49bba162800009273ffffffffffffffffffffffffffffffffffffffff169163c21b27c7916007908110613bb457fe5b6000918252602082200154604080517fffffffff0000000000000000000000000000000000000000000000000000000060e086901b16815273ffffffffffffffffffffffffffffffffffffffff909216600483015260248201869052516044808301939282900301818387803b158015613c2d57600080fd5b505af1158015613c41573d6000803e3d6000fd5b505050506003600781548110613c5357fe5b6000918252602082200154604080517f80e0f15f0000000000000000000000000000000000000000000000000000000081526004810188905260248101859052905173ffffffffffffffffffffffffffffffffffffffff909216926380e0f15f9260448084019382900301818387803b158015613ccf57600080fd5b505af1158015613ce3573d6000803e3d6000fd5b50505050505b8360081415613e6157600254600380546802b5e3af16b18800009273ffffffffffffffffffffffffffffffffffffffff169163c21b27c7916008908110613d2c57fe5b6000918252602082200154604080517fffffffff0000000000000000000000000000000000000000000000000000000060e086901b16815273ffffffffffffffffffffffffffffffffffffffff909216600483015260248201869052516044808301939282900301818387803b158015613da557600080fd5b505af1158015613db9573d6000803e3d6000fd5b505050506003600881548110613dcb57fe5b6000918252602082200154604080517f80e0f15f0000000000000000000000000000000000000000000000000000000081526004810188905260248101859052905173ffffffffffffffffffffffffffffffffffffffff909216926380e0f15f9260448084019382900301818387803b158015613e4757600080fd5b505af1158015613e5b573d6000803e3d6000fd5b50505050505b8360091415613fd95760025460038054680ad78ebc5ac62000009273ffffffffffffffffffffffffffffffffffffffff169163c21b27c7916009908110613ea457fe5b6000918252602082200154604080517fffffffff0000000000000000000000000000000000000000000000000000000060e086901b16815273ffffffffffffffffffffffffffffffffffffffff909216600483015260248201869052516044808301939282900301818387803b158015613f1d57600080fd5b505af1158015613f31573d6000803e3d6000fd5b505050506003600981548110613f4357fe5b6000918252602082200154604080517f80e0f15f0000000000000000000000000000000000000000000000000000000081526004810188905260248101859052905173ffffffffffffffffffffffffffffffffffffffff909216926380e0f15f9260448084019382900301818387803b158015613fbf57600080fd5b505af1158015613fd3573d6000803e3d6000fd5b50505050505b83600a141561181b576002546003805468015af1d78b58c400009273ffffffffffffffffffffffffffffffffffffffff169163c21b27c791600a90811061401c57fe5b6000918252602082200154604080517fffffffff0000000000000000000000000000000000000000000000000000000060e086901b16815273ffffffffffffffffffffffffffffffffffffffff909216600483015260248201869052516044808301939282900301818387803b15801561409557600080fd5b505af11580156140a9573d6000803e3d6000fd5b505050506003600a815481106140bb57fe5b6000918252602082200154604080517f80e0f15f0000000000000000000000000000000000000000000000000000000081526004810188905260248101859052905173ffffffffffffffffffffffffffffffffffffffff909216926380e0f15f9260448084019382900301818387803b15801561413757600080fd5b505af115801561414b573d6000803e3d6000fd5b505050505050505050565b6000828201838110156141ca57604080517f08c379a000000000000000000000000000000000000000000000000000000000815260206004820152601b60248201527f536166654d6174683a206164646974696f6e206f766572666c6f770000000000604482015290519081900360640190fd5b9392505050565b6000826141e0575060006106af565b828202828482816141ed57fe5b04146141ca576040517f08c379a000000000000000000000000000000000000000000000000000000000815260040180806020018281038252602181526020018061479c6021913960400191505060405180910390fd5b6040805173ffffffffffffffffffffffffffffffffffffffff8416602482015260448082018490528251808303909101815260649091019091526020810180517bffffffffffffffffffffffffffffffffffffffffffffffffffffffff167fa9059cbb0000000000000000000000000000000000000000000000000000000017905261143b908490614313565b60006141ca83836040518060400160405280601e81526020017f536166654d6174683a207375627472616374696f6e206f766572666c6f7700008152506143eb565b6060614375826040518060400160405280602081526020017f5361666545524332303a206c6f772d6c6576656c2063616c6c206661696c65648152508573ffffffffffffffffffffffffffffffffffffffff1661449c9092919063ffffffff16565b80519091501561143b5780806020019051602081101561439457600080fd5b505161143b576040517f08c379a000000000000000000000000000000000000000000000000000000000815260040180806020018281038252602a8152602001806147e0602a913960400191505060405180910390fd5b60008184841115614494576040517f08c379a00000000000000000000000000000000000000000000000000000000081526004018080602001828103825283818151815260200191508051906020019080838360005b83811015614459578181015183820152602001614441565b50505050905090810190601f1680156144865780820380516001836020036101000a031916815260200191505b509250505060405180910390fd5b505050900390565b60606144ab84846000856144b3565b949350505050565b60608247101561450e576040517f08c379a00000000000000000000000000000000000000000000000000000000081526004018080602001828103825260268152602001806147546026913960400191505060405180910390fd5b6145178561466e565b61458257604080517f08c379a000000000000000000000000000000000000000000000000000000000815260206004820152601d60248201527f416464726573733a2063616c6c20746f206e6f6e2d636f6e7472616374000000604482015290519081900360640190fd5b600060608673ffffffffffffffffffffffffffffffffffffffff1685876040518082805190602001908083835b602083106145ec57805182527fffffffffffffffffffffffffffffffffffffffffffffffffffffffffffffffe090920191602091820191016145af565b6001836020036101000a03801982511681845116808217855250505050505090500191505060006040518083038185875af1925050503d806000811461464e576040519150601f19603f3d011682016040523d82523d6000602084013e614653565b606091505b5091509150614663828286614674565b979650505050505050565b3b151590565b606083156146835750816141ca565b8251156146935782518084602001fd5b6040517f08c379a0000000000000000000000000000000000000000000000000000000008152602060048201818152845160248401528451859391928392604401919085019080838360008315614459578181015183820152602001614441565b50805460008255906000526020600020908101906147129190614715565b50565b5b8082111561472a5760008155600101614716565b509056fe63616e2774206861766520616e206164617074657220666f72203078302061646472657373416464726573733a20696e73756666696369656e742062616c616e636520666f722063616c6c7365745f676f7665726e616e63653a206d75737420626520676f7665726e616e6365536166654d6174683a206d756c7469706c69636174696f6e206f766572666c6f7764656c6574655f61646170746572733a206d75737420626520676f7665726e616e63655361666545524332303a204552433230206f7065726174696f6e20646964206e6f742073756363656564a26469706673582212205e2e8195757d9dce0090ab44e8567c37ddd776ab602ccbef1e5611fcad1216ad64736f6c63430007040033"}}