{"compiler":"v0.6.12+commit.27d51765","opcodeHash":"0xcc32032c3a2ce76ea8c9894fdcc944619ad1e1ad4998e47a197973297433bb3b","metalessHash":"0xb44651ef889fa9e3ce5dae219b09b8ea67d6484e6674e295e3190b121c364549","runtimeHash":"0x83a81bde6a2c777d8f5a9f4645d12311f0eaad5c5d264e0e09ba8dfa919f4d44","encodedMetadata":[{"ipfs":"/ipfs/QmUo7Aw38znpQ4jGhHcCeWcQjqJgEwJv4MeQHX82pjkHmf","solc":"0.6.12"}],"abi":[{"inputs":[],"stateMutability":"nonpayable","type":"constructor"},{"anonymous":false,"inputs":[{"indexed":true,"internalType":"address","name":"owner","type":"address"},{"indexed":true,"internalType":"address","name":"spender","type":"address"},{"indexed":false,"internalType":"uint256","name":"value","type":"uint256"}],"name":"Approval","type":"event"},{"anonymous":false,"inputs":[{"indexed":false,"internalType":"uint256","name":"minTokensBeforeSwap","type":"uint256"}],"name":"MinTokensBeforeSwapUpdated","type":"event"},{"anonymous":false,"inputs":[{"indexed":true,"internalType":"address","name":"previousOwner","type":"address"},{"indexed":true,"internalType":"address","name":"newOwner","type":"address"}],"name":"OwnershipTransferred","type":"event"},{"anonymous":false,"inputs":[{"indexed":false,"internalType":"bool","name":"enabled","type":"bool"}],"name":"SwapEnabledUpdated","type":"event"},{"anonymous":false,"inputs":[{"indexed":true,"internalType":"address","name":"from","type":"address"},{"indexed":true,"internalType":"address","name":"to","type":"address"},{"indexed":false,"internalType":"uint256","name":"value","type":"uint256"}],"name":"Transfer","type":"event"},{"inputs":[],"name":"_getETHBalance","outputs":[{"internalType":"uint256","name":"balance","type":"uint256"}],"stateMutability":"view","type":"function"},{"inputs":[],"name":"_marketingWalletAddress","outputs":[{"internalType":"address payable","name":"","type":"address"}],"stateMutability":"view","type":"function"},{"inputs":[{"internalType":"uint256","name":"marketingFee","type":"uint256"}],"name":"_setMarketingFee","outputs":[],"stateMutability":"nonpayable","type":"function"},{"inputs":[{"internalType":"address payable","name":"marketingWalletAddress","type":"address"}],"name":"_setMarketingWallet","outputs":[],"stateMutability":"nonpayable","type":"function"},{"inputs":[{"internalType":"uint256","name":"maxTxAmount","type":"uint256"}],"name":"_setMaxTxAmount","outputs":[],"stateMutability":"nonpayable","type":"function"},{"inputs":[{"internalType":"uint256","name":"numOfTokensToExchangeForMarketing","type":"uint256"}],"name":"_setNumOfTokensToExchangeForMarketing","outputs":[],"stateMutability":"nonpayable","type":"function"},{"inputs":[{"internalType":"uint256","name":"taxFee","type":"uint256"}],"name":"_setTaxFee","outputs":[],"stateMutability":"nonpayable","type":"function"},{"inputs":[{"internalType":"address","name":"owner","type":"address"},{"internalType":"address","name":"spender","type":"address"}],"name":"allowance","outputs":[{"internalType":"uint256","name":"","type":"uint256"}],"stateMutability":"view","type":"function"},{"inputs":[{"internalType":"address","name":"spender","type":"address"},{"internalType":"uint256","name":"amount","type":"uint256"}],"name":"approve","outputs":[{"internalType":"bool","name":"","type":"bool"}],"stateMutability":"nonpayable","type":"function"},{"inputs":[{"internalType":"address","name":"account","type":"address"}],"name":"balanceOf","outputs":[{"internalType":"uint256","name":"","type":"uint256"}],"stateMutability":"view","type":"function"},{"inputs":[],"name":"decimals","outputs":[{"internalType":"uint8","name":"","type":"uint8"}],"stateMutability":"view","type":"function"},{"inputs":[{"internalType":"address","name":"spender","type":"address"},{"internalType":"uint256","name":"subtractedValue","type":"uint256"}],"name":"decreaseAllowance","outputs":[{"internalType":"bool","name":"","type":"bool"}],"stateMutability":"nonpayable","type":"function"},{"inputs":[{"internalType":"uint256","name":"tAmount","type":"uint256"}],"name":"deliver","outputs":[],"stateMutability":"nonpayable","type":"function"},{"inputs":[{"internalType":"address","name":"account","type":"address"}],"name":"excludeFromReward","outputs":[],"stateMutability":"nonpayable","type":"function"},{"inputs":[],"name":"geUnlockTime","outputs":[{"internalType":"uint256","name":"","type":"uint256"}],"stateMutability":"view","type":"function"},{"inputs":[{"internalType":"address","name":"account","type":"address"}],"name":"includeInReward","outputs":[],"stateMutability":"nonpayable","type":"function"},{"inputs":[{"internalType":"address","name":"spender","type":"address"},{"internalType":"uint256","name":"addedValue","type":"uint256"}],"name":"increaseAllowance","outputs":[{"internalType":"bool","name":"","type":"bool"}],"stateMutability":"nonpayable","type":"function"},{"inputs":[{"internalType":"address","name":"account","type":"address"}],"name":"isExcludedFromFee","outputs":[{"internalType":"bool","name":"","type":"bool"}],"stateMutability":"view","type":"function"},{"inputs":[{"internalType":"address","name":"account","type":"address"}],"name":"isExcludedFromReward","outputs":[{"internalType":"bool","name":"","type":"bool"}],"stateMutability":"view","type":"function"},{"inputs":[{"internalType":"uint256","name":"time","type":"uint256"}],"name":"lock","outputs":[],"stateMutability":"nonpayable","type":"function"},{"inputs":[],"name":"manualSend","outputs":[],"stateMutability":"nonpayable","type":"function"},{"inputs":[],"name":"manualSwap","outputs":[],"stateMutability":"nonpayable","type":"function"},{"inputs":[{"internalType":"uint256","name":"amount","type":"uint256"}],"name":"manualSwapAmount","outputs":[],"stateMutability":"nonpayable","type":"function"},{"inputs":[{"internalType":"uint256","name":"amount","type":"uint256"}],"name":"manualSwapAndSend","outputs":[],"stateMutability":"nonpayable","type":"function"},{"inputs":[],"name":"name","outputs":[{"internalType":"string","name":"","type":"string"}],"stateMutability":"view","type":"function"},{"inputs":[],"name":"owner","outputs":[{"internalType":"address","name":"","type":"address"}],"stateMutability":"view","type":"function"},{"inputs":[{"internalType":"uint256","name":"tokenAmount","type":"uint256"}],"name":"recoverTokens","outputs":[],"stateMutability":"nonpayable","type":"function"},{"inputs":[{"internalType":"uint256","name":"tAmount","type":"uint256"},{"internalType":"bool","name":"deductTransferFee","type":"bool"}],"name":"reflectionFromToken","outputs":[{"internalType":"uint256","name":"","type":"uint256"}],"stateMutability":"view","type":"function"},{"inputs":[],"name":"renounceOwnership","outputs":[],"stateMutability":"nonpayable","type":"function"},{"inputs":[{"internalType":"address","name":"account","type":"address"},{"internalType":"bool","name":"excluded","type":"bool"}],"name":"setExcludeFromFee","outputs":[],"stateMutability":"nonpayable","type":"function"},{"inputs":[{"internalType":"bool","name":"enabled","type":"bool"}],"name":"setSwapEnabled","outputs":[],"stateMutability":"nonpayable","type":"function"},{"inputs":[],"name":"swapEnabled","outputs":[{"internalType":"bool","name":"","type":"bool"}],"stateMutability":"view","type":"function"},{"inputs":[],"name":"symbol","outputs":[{"internalType":"string","name":"","type":"string"}],"stateMutability":"view","type":"function"},{"inputs":[{"internalType":"uint256","name":"rAmount","type":"uint256"}],"name":"tokenFromReflection","outputs":[{"internalType":"uint256","name":"","type":"uint256"}],"stateMutability":"view","type":"function"},{"inputs":[],"name":"totalFees","outputs":[{"internalType":"uint256","name":"","type":"uint256"}],"stateMutability":"view","type":"function"},{"inputs":[],"name":"totalSupply","outputs":[{"internalType":"uint256","name":"","type":"uint256"}],"stateMutability":"view","type":"function"},{"inputs":[{"internalType":"address","name":"recipient","type":"address"},{"internalType":"uint256","name":"amount","type":"uint256"}],"name":"transfer","outputs":[{"internalType":"bool","name":"","type":"bool"}],"stateMutability":"nonpayable","type":"function"},{"inputs":[{"internalType":"address","name":"sender","type":"address"},{"internalType":"address","name":"recipient","type":"address"},{"internalType":"uint256","name":"amount","type":"uint256"}],"name":"transferFrom","outputs":[{"internalType":"bool","name":"","type":"bool"}],"stateMutability":"nonpayable","type":"function"},{"inputs":[{"internalType":"address","name":"newOwner","type":"address"}],"name":"transferOwnership","outputs":[],"stateMutability":"nonpayable","type":"function"},{"inputs":[],"name":"uniswapV2Pair","outputs":[{"internalType":"address","name":"","type":"address"}],"stateMutability":"view","type":"function"},{"inputs":[],"name":"uniswapV2Router","outputs":[{"internalType":"contract IUniswapV2Router02","name":"","type":"address"}],"stateMutability":"view","type":"function"},{"inputs":[],"name":"unlock","outputs":[],"stateMutability":"nonpayable","type":"function"},{"stateMutability":"payable","type":"receive"}],"bytecode":{"object":"69152d02c7e14af6800000600b5569085afffa6ff50bffffff19600c90815561010060405260c08190526b21b7b6b337b93a1021b7b4b760a11b60e09081526200004d91600e919062000771565b506040805180820190915260078082526610dbdb599bdc9d60ca1b60209092019182526200007e91600f9162000771565b506010805460ff1916600917905560026011819055600160128190556013919091556014556015805461ffff60a01b196001600160a01b031990911673d2435beca24b42aa473815edb4ab1f919ae542db1716600160a81b179055600b54601655670de0b6b3a7640000601755348015620000f857600080fd5b506000620001056200075e565b600080546001600160a01b0319166001600160a01b0383169081178255604051929350917f8be0079c531659141344cd1fd0a4f28419497f9722a3daafe3b4186f6b6457e0908290a350600c5460036000620001606200075e565b6001600160a01b03166001600160a01b03168152602001908152602001600020819055506000737a250d5630b4cf539739df2c5dacb4c659f2488d9050806001600160a01b031663c45a01556040518163ffffffff1660e01b815260040160206040518083038186803b158015620001d757600080fd5b505afa158015620001ec573d6000803e3d6000fd5b505050506040513d60208110156200020357600080fd5b5051604080516315ab88c960e31b815290516001600160a01b039283169263c9c653969230929186169163ad5c464891600480820192602092909190829003018186803b1580156200025457600080fd5b505afa15801562000269573d6000803e3d6000fd5b505050506040513d60208110156200028057600080fd5b5051604080516001600160e01b031960e086901b1681526001600160a01b0393841660048201529290911660248301525160448083019260209291908290030181600087803b158015620002d357600080fd5b505af1158015620002e8573d6000803e3d6000fd5b505050506040513d6020811015620002ff57600080fd5b50516001600160601b0319606091821b811660a0529082901b166080526001600660006200032c62000762565b6001600160a01b0316815260208082019290925260409081016000908120805494151560ff199586161790553081526006835290812080548416600190811790915560099092527f404b5b762e8059f6055e90a7bf5e88e1e2f628911a8da7857df40bf26352e2128054841683179055600a805480840182557fc65a7bb8d6351c1cf70c95a316cc6a92839c986682d98bc35f958f4883f9d2a890810180546001600160a01b031990811673a1cec245c456dd1bd9f2815a6955fef44eb4191b179091557f82951a08c86bbc382122443ed556bc8073b7e0bdf3bbfb811f503389aad35bfc8054871686179055825480860184558201805482167327f9adb26d532a41d97e00206114e429ad58c6791790557f3ee2bfab112ce489483443731da982ac406a17d09137224e74d494a6037142ad805487168617905582548086018455820180548216739282dc5c422fa91ff2f6ff3a0b45b7bf97cf78e71790557fb7baecc9aa863a1182bccd59d3b8aaee484658aee9400a94283dad2dbafd9d1d80548716861790558254808601845582018054821673fad95b6089c53a0d1d861eabfaadd8901b0f85331790557fab5495752a9187414227aebaa8b39a4bffdb32802987cba6aff3f20498292a7180548716861790558254808601845582018054821673fe9d99ef02e905127239e85a611c29ad32c31c2f1790557f942ebcb2565846ab429e313119fc37882c100e43cc02a57b5525c115ad4f72998054871686179055825480860184558201805482167359341bc6b4f3ace878574b05914f43309dd678c71790557f11c8caefcbc9afecd5b2153811f415fe306a1f3884466a0ddf30ba3939464b1e80548716861790558254808601845582018054821673136f4b5b6a306091b280e3f251fa0e21b1280cd51790557f5285ca56d5238f5cab5f1f0e88c2f05725198ebf90836644148c3ad2ae4350dd80548716861790558254808601845582018054821673f1ca09ce745bfa38258b26cd839ef0e8de062a401790557f63311b9fe935901487e2709d823f9feaee35256550ebb1a20dea871df42b7600805487168617905582548086018455820180548216738719c2829944150f59e3428ca24f6fc018e438901790557ff1094c410968a21d81ae0bddb783a54ddd1d40925fb4944787cb37532e24c12380548716861790558254808601845582018054821673a8e0771582ea33a9d8e6d2ccb65a8d10bd0ea5171790557f1b4ff325b507f000c86886ba6b3c0ac86d817073e665a7d9d453685df18672128054909616851790955581549384018255915201805490911673f3daa7465273587aec8b2d2706335e06068ccce41790556200070a6200075e565b6001600160a01b031660006001600160a01b03167fddf252ad1be2c89b69c2b068fc378daa952ba7f163c4a11628f55a4df523b3ef600b546040518082815260200191505060405180910390a3506200080d565b3390565b6000546001600160a01b031690565b828054600181600116156101000203166002900490600052602060002090601f016020900481019282601f10620007b457805160ff1916838001178555620007e4565b82800160010185558215620007e4579182015b82811115620007e4578251825591602001919060010190620007c7565b50620007f2929150620007f6565b5090565b5b80821115620007f25760008155600101620007f7565b60805160601c60a05160601c6130d3620008506000398061112c5280611fab52806120cd525080610a4052806123df528061249752806124be52506130d36000f3fe6080604052600436106102555760003560e01c80635880b87311610139578063a69df4b5116100b6578063dd4670641161007a578063dd46706414610896578063dd62ed3e146108c0578063e01af92c146108fb578063f2fde38b14610927578063f42938901461095a578063f815a8421461096f5761025c565b8063a69df4b5146107ce578063a9059cbb146107e3578063af9549e01461081c578063b6c5232414610857578063d8f0c8c01461086c5761025c565b806388f82020116100fd57806388f820201461070e5780638da5cb5b1461074157806395d89b4114610756578063a457c2d71461076b578063a52fe9bb146107a45761025c565b80635880b8731461065d5780636ddd17131461068757806370a082311461069c578063715018a6146106cf57806388e0853e146106e45761025c565b8063313ce567116101d25780634549b039116101965780634549b03914610571578063474fe03f146105a357806349bd5a5e146105cd57806351bc3c85146105e257806352390c02146105f75780635342acb41461062a5761025c565b8063313ce5671461049b5780633685d419146104c657806339509351146104f95780633bd5d173146105325780634144d9e41461055c5761025c565b80631bbae6e0116102195780631bbae6e0146103a55780631ff53b60146103d157806323b872dd146104045780632d8381191461044757806330599fc5146104715761025c565b806306fdde0314610261578063095ea7b3146102eb57806313114a9d146103385780631694505e1461035f57806318160ddd146103905761025c565b3661025c57005b600080fd5b34801561026d57600080fd5b50610276610984565b6040805160208082528351818301528351919283929083019185019080838360005b838110156102b0578181015183820152602001610298565b50505050905090810190601f1680156102dd5780820380516001836020036101000a031916815260200191505b509250505060405180910390f35b3480156102f757600080fd5b506103246004803603604081101561030e57600080fd5b506001600160a01b038135169060200135610a1a565b604080519115158252519081900360200190f35b34801561034457600080fd5b5061034d610a38565b60408051918252519081900360200190f35b34801561036b57600080fd5b50610374610a3e565b604080516001600160a01b039092168252519081900360200190f35b34801561039c57600080fd5b5061034d610a62565b3480156103b157600080fd5b506103cf600480360360208110156103c857600080fd5b5035610a68565b005b3480156103dd57600080fd5b506103cf600480360360208110156103f457600080fd5b50356001600160a01b0316610b08565b34801561041057600080fd5b506103246004803603606081101561042757600080fd5b506001600160a01b03813581169160208101359091169060400135610b82565b34801561045357600080fd5b5061034d6004803603602081101561046a57600080fd5b5035610c09565b34801561047d57600080fd5b506103cf6004803603602081101561049457600080fd5b5035610c6b565b3480156104a757600080fd5b506104b0610cea565b6040805160ff9092168252519081900360200190f35b3480156104d257600080fd5b506103cf600480360360208110156104e957600080fd5b50356001600160a01b0316610cf3565b34801561050557600080fd5b506103246004803603604081101561051c57600080fd5b506001600160a01b038135169060200135610eb4565b34801561053e57600080fd5b506103cf6004803603602081101561055557600080fd5b5035610f02565b34801561056857600080fd5b50610374610fdc565b34801561057d57600080fd5b5061034d6004803603604081101561059457600080fd5b50803590602001351515610feb565b3480156105af57600080fd5b506103cf600480360360208110156105c657600080fd5b503561107d565b3480156105d957600080fd5b5061037461112a565b3480156105ee57600080fd5b506103cf61114e565b34801561060357600080fd5b506103cf6004803603602081101561061a57600080fd5b50356001600160a01b03166111bc565b34801561063657600080fd5b506103246004803603602081101561064d57600080fd5b50356001600160a01b031661139e565b34801561066957600080fd5b506103cf6004803603602081101561068057600080fd5b50356113bc565b34801561069357600080fd5b5061032461146f565b3480156106a857600080fd5b5061034d600480360360208110156106bf57600080fd5b50356001600160a01b031661147f565b3480156106db57600080fd5b506103cf6114e1565b3480156106f057600080fd5b506103cf6004803603602081101561070757600080fd5b5035611571565b34801561071a57600080fd5b506103246004803603602081101561073157600080fd5b50356001600160a01b03166115da565b34801561074d57600080fd5b506103746115f8565b34801561076257600080fd5b50610276611607565b34801561077757600080fd5b506103246004803603604081101561078e57600080fd5b506001600160a01b038135169060200135611668565b3480156107b057600080fd5b506103cf600480360360208110156107c757600080fd5b50356116d0565b3480156107da57600080fd5b506103cf611783565b3480156107ef57600080fd5b506103246004803603604081101561080657600080fd5b506001600160a01b038135169060200135611871565b34801561082857600080fd5b506103cf6004803603604081101561083f57600080fd5b506001600160a01b0381351690602001351515611885565b34801561086357600080fd5b5061034d611908565b34801561087857600080fd5b506103cf6004803603602081101561088f57600080fd5b503561190e565b3480156108a257600080fd5b506103cf600480360360208110156108b957600080fd5b50356119ae565b3480156108cc57600080fd5b5061034d600480360360408110156108e357600080fd5b506001600160a01b0381358116916020013516611a4c565b34801561090757600080fd5b506103cf6004803603602081101561091e57600080fd5b50351515611a77565b34801561093357600080fd5b506103cf6004803603602081101561094a57600080fd5b50356001600160a01b0316611aed565b34801561096657600080fd5b506103cf611bd3565b34801561097b57600080fd5b5061034d611c35565b600e8054604080516020601f6002600019610100600188161502019095169490940493840181900481028201810190925282815260609390929091830182828015610a105780601f106109e557610100808354040283529160200191610a10565b820191906000526020600020905b8154815290600101906020018083116109f357829003601f168201915b5050505050905090565b6000610a2e610a27611c39565b8484611c3d565b5060015b92915050565b600d5490565b7f000000000000000000000000000000000000000000000000000000000000000081565b600b5490565b610a70611c39565b6000546001600160a01b03908116911614610ac0576040805162461bcd60e51b81526020600482018190526024820152600080516020612f14833981519152604482015290519081900360640190fd5b633b9aca00811015610b035760405162461bcd60e51b815260040180806020018281038252602c815260200180612e9f602c913960400191505060405180910390fd5b601655565b610b10611c39565b6000546001600160a01b03908116911614610b60576040805162461bcd60e51b81526020600482018190526024820152600080516020612f14833981519152604482015290519081900360640190fd5b601580546001600160a01b0319166001600160a01b0392909216919091179055565b6000610b8f848484611d29565b610bff84610b9b611c39565b610bfa85604051806060016040528060288152602001612eec602891396001600160a01b038a16600090815260056020526040812090610bd9611c39565b6001600160a01b031681526020810191909152604001600020549190612181565b611c3d565b5060019392505050565b6000600c54821115610c4c5760405162461bcd60e51b815260040180806020018281038252602a815260200180612dd6602a913960400191505060405180910390fd5b6000610c56612218565b9050610c62838261223b565b9150505b919050565b610c73611c39565b6000546001600160a01b03908116911614610cc3576040805162461bcd60e51b81526020600482018190526024820152600080516020612f14833981519152604482015290519081900360640190fd5b610cd530610ccf6115f8565b83611c3d565b610ce730610ce16115f8565b83611d29565b50565b60105460ff1690565b610cfb611c39565b6000546001600160a01b03908116911614610d4b576040805162461bcd60e51b81526020600482018190526024820152600080516020612f14833981519152604482015290519081900360640190fd5b6001600160a01b03811660009081526007602052604090205460ff16610db8576040805162461bcd60e51b815260206004820152601b60248201527f4163636f756e7420697320616c7265616479206578636c756465640000000000604482015290519081900360640190fd5b60005b600854811015610eb057816001600160a01b031660088281548110610ddc57fe5b6000918252602090912001546001600160a01b03161415610ea857600880546000198101908110610e0957fe5b600091825260209091200154600880546001600160a01b039092169183908110610e2f57fe5b600091825260208083209190910180546001600160a01b0319166001600160a01b039485161790559184168152600482526040808220829055600790925220805460ff191690556008805480610e8157fe5b600082815260209020810160001990810180546001600160a01b0319169055019055610eb0565b600101610dbb565b5050565b6000610a2e610ec1611c39565b84610bfa8560056000610ed2611c39565b6001600160a01b03908116825260208083019390935260409182016000908120918c168152925290205490612284565b6000610f0c611c39565b6001600160a01b03811660009081526007602052604090205490915060ff1615610f675760405162461bcd60e51b815260040180806020018281038252602c81526020018061302a602c913960400191505060405180910390fd5b6000610f72836122de565b505050506001600160a01b038416600090815260036020526040902054919250610f9e9190508261233a565b6001600160a01b038316600090815260036020526040902055600c54610fc4908261233a565b600c55600d54610fd49084612284565b600d55505050565b6015546001600160a01b031681565b6000600b54831115611044576040805162461bcd60e51b815260206004820152601f60248201527f416d6f756e74206d757374206265206c657373207468616e20737570706c7900604482015290519081900360640190fd5b81611063576000611054846122de565b50939550610a32945050505050565b600061106e846122de565b50929550610a32945050505050565b611085611c39565b6000546001600160a01b039081169116146110d5576040805162461bcd60e51b81526020600482018190526024820152600080516020612f14833981519152604482015290519081900360640190fd5b60006110e03061147f565b9050818110156111215760405162461bcd60e51b815260040180806020018281038252602e815260200180612da8602e913960400191505060405180910390fd5b610eb08261237c565b7f000000000000000000000000000000000000000000000000000000000000000081565b611156611c39565b6000546001600160a01b039081169116146111a6576040805162461bcd60e51b81526020600482018190526024820152600080516020612f14833981519152604482015290519081900360640190fd5b60006111b13061147f565b9050610ce78161237c565b6111c4611c39565b6000546001600160a01b03908116911614611214576040805162461bcd60e51b81526020600482018190526024820152600080516020612f14833981519152604482015290519081900360640190fd5b737a250d5630b4cf539739df2c5dacb4c659f2488d6001600160a01b03821614156112705760405162461bcd60e51b81526004018080602001828103825260228152602001806130086022913960400191505060405180910390fd5b6001600160a01b03811660009081526007602052604090205460ff16156112de576040805162461bcd60e51b815260206004820152601b60248201527f4163636f756e7420697320616c7265616479206578636c756465640000000000604482015290519081900360640190fd5b6001600160a01b03811660009081526003602052604090205415611338576001600160a01b03811660009081526003602052604090205461131e90610c09565b6001600160a01b0382166000908152600460205260409020555b6001600160a01b03166000818152600760205260408120805460ff191660019081179091556008805491820181559091527ff3f7a9fe364faab93b216da50a3214154f22a0a2b415b23a84c8169e8b636ee30180546001600160a01b0319169091179055565b6001600160a01b031660009081526006602052604090205460ff1690565b6113c4611c39565b6000546001600160a01b03908116911614611414576040805162461bcd60e51b81526020600482018190526024820152600080516020612f14833981519152604482015290519081900360640190fd5b600a81111561146a576040805162461bcd60e51b815260206004820152601a60248201527f7461784665652073686f756c6420626520696e2030202d203130000000000000604482015290519081900360640190fd5b601155565b601554600160a81b900460ff1681565b6001600160a01b03811660009081526007602052604081205460ff16156114bf57506001600160a01b038116600090815260046020526040902054610c66565b6001600160a01b038216600090815260036020526040902054610a3290610c09565b6114e9611c39565b6000546001600160a01b03908116911614611539576040805162461bcd60e51b81526020600482018190526024820152600080516020612f14833981519152604482015290519081900360640190fd5b600080546040516001600160a01b0390911690600080516020612f34833981519152908390a3600080546001600160a01b0319169055565b611579611c39565b6000546001600160a01b039081169116146115c9576040805162461bcd60e51b81526020600482018190526024820152600080516020612f14833981519152604482015290519081900360640190fd5b6115d28161107d565b610ce7611bd3565b6001600160a01b031660009081526007602052604090205460ff1690565b6000546001600160a01b031690565b600f8054604080516020601f6002600019610100600188161502019095169490940493840181900481028201810190925282815260609390929091830182828015610a105780601f106109e557610100808354040283529160200191610a10565b6000610a2e611675611c39565b84610bfa85604051806060016040528060258152602001613079602591396005600061169f611c39565b6001600160a01b03908116825260208083019390935260409182016000908120918d16815292529020549190612181565b6116d8611c39565b6000546001600160a01b03908116911614611728576040805162461bcd60e51b81526020600482018190526024820152600080516020612f14833981519152604482015290519081900360640190fd5b600b81111561177e576040805162461bcd60e51b815260206004820181905260248201527f6d61726b6574696e674665652073686f756c6420626520696e2030202d203131604482015290519081900360640190fd5b601255565b6001546001600160a01b031633146117cc5760405162461bcd60e51b81526004018080602001828103825260238152602001806130566023913960400191505060405180910390fd5b6002544211611822576040805162461bcd60e51b815260206004820152601f60248201527f436f6e7472616374206973206c6f636b656420756e74696c2037206461797300604482015290519081900360640190fd5b600154600080546040516001600160a01b039384169390911691600080516020612f3483398151915291a3600154600080546001600160a01b0319166001600160a01b03909216919091179055565b6000610a2e61187e611c39565b8484611d29565b61188d611c39565b6000546001600160a01b039081169116146118dd576040805162461bcd60e51b81526020600482018190526024820152600080516020612f14833981519152604482015290519081900360640190fd5b6001600160a01b03919091166000908152600660205260409020805460ff1916911515919091179055565b60025490565b611916611c39565b6000546001600160a01b03908116911614611966576040805162461bcd60e51b81526020600482018190526024820152600080516020612f14833981519152604482015290519081900360640190fd5b633b9aca008110156119a95760405162461bcd60e51b8152600401808060200182810382526042815260200180612f546042913960600191505060405180910390fd5b601755565b6119b6611c39565b6000546001600160a01b03908116911614611a06576040805162461bcd60e51b81526020600482018190526024820152600080516020612f14833981519152604482015290519081900360640190fd5b60008054600180546001600160a01b03199081166001600160a01b038416179091551681554282016002556040518190600080516020612f34833981519152908290a350565b6001600160a01b03918216600090815260056020908152604080832093909416825291909152205490565b611a7f611c39565b6000546001600160a01b03908116911614611acf576040805162461bcd60e51b81526020600482018190526024820152600080516020612f14833981519152604482015290519081900360640190fd5b60158054911515600160a81b0260ff60a81b19909216919091179055565b611af5611c39565b6000546001600160a01b03908116911614611b45576040805162461bcd60e51b81526020600482018190526024820152600080516020612f14833981519152604482015290519081900360640190fd5b6001600160a01b038116611b8a5760405162461bcd60e51b8152600401808060200182810382526026815260200180612e006026913960400191505060405180910390fd5b600080546040516001600160a01b0380851693921691600080516020612f3483398151915291a3600080546001600160a01b0319166001600160a01b0392909216919091179055565b611bdb611c39565b6000546001600160a01b03908116911614611c2b576040805162461bcd60e51b81526020600482018190526024820152600080516020612f14833981519152604482015290519081900360640190fd5b47610ce7816125b3565b4790565b3390565b6001600160a01b038316611c825760405162461bcd60e51b8152600401808060200182810382526024815260200180612fe46024913960400191505060405180910390fd5b6001600160a01b038216611cc75760405162461bcd60e51b8152600401808060200182810382526022815260200180612e266022913960400191505060405180910390fd5b6001600160a01b03808416600081815260056020908152604080832094871680845294825291829020859055815185815291517f8c5be1e5ebec7d5bd14f71427d1e84f3dd0314c0f7b2291e5b200ac8c7c3b9259281900390910190a3505050565b6001600160a01b038316611d6e5760405162461bcd60e51b8152600401808060200182810382526025815260200180612fbf6025913960400191505060405180910390fd5b6001600160a01b038216611db35760405162461bcd60e51b8152600401808060200182810382526023815260200180612d856023913960400191505060405180910390fd5b60008111611df25760405162461bcd60e51b8152600401808060200182810382526029815260200180612f966029913960400191505060405180910390fd5b6001600160a01b03831660009081526009602052604090205460ff1615611e5a576040805162461bcd60e51b8152602060048201526017602482015276596f752068617665206e6f20706f77657220686572652160481b604482015290519081900360640190fd5b6001600160a01b03821660009081526009602052604090205460ff1615611ec2576040805162461bcd60e51b8152602060048201526017602482015276596f752068617665206e6f20706f77657220686572652160481b604482015290519081900360640190fd5b3260009081526009602052604090205460ff1615611f21576040805162461bcd60e51b8152602060048201526017602482015276596f752068617665206e6f20706f77657220686572652160481b604482015290519081900360640190fd5b611f296115f8565b6001600160a01b0316836001600160a01b031614158015611f635750611f4d6115f8565b6001600160a01b0316826001600160a01b031614155b1561207557601654811115611fa95760405162461bcd60e51b8152600401808060200182810382526028815260200180612e776028913960400191505060405180910390fd5b7f00000000000000000000000000000000000000000000000000000000000000006001600160a01b0316836001600160a01b0316141561207557601654611fef8361147f565b111561202c5760405162461bcd60e51b815260040180806020018281038252602f815260200180612e48602f913960400191505060405180910390fd5b6016546120383261147f565b11156120755760405162461bcd60e51b815260040180806020018281038252602f815260200180612e48602f913960400191505060405180910390fd5b60006120803061147f565b9050601654811061209057506016545b6017546015549082101590600160a01b900460ff161580156120bb5750601554600160a81b900460ff165b80156120c45750805b801561210257507f00000000000000000000000000000000000000000000000000000000000000006001600160a01b0316856001600160a01b031614155b15612122576121108261237c565b47801561212057612120476125b3565b505b6001600160a01b03851660009081526006602052604090205460019060ff168061216457506001600160a01b03851660009081526006602052604090205460ff165b1561216d575060005b612179868686846125ed565b505050505050565b600081848411156122105760405162461bcd60e51b81526004018080602001828103825283818151815260200191508051906020019080838360005b838110156121d55781810151838201526020016121bd565b50505050905090810190601f1680156122025780820380516001836020036101000a031916815260200191505b509250505060405180910390fd5b505050900390565b6000806000612225612761565b9092509050612234828261223b565b9250505090565b600061227d83836040518060400160405280601a81526020017f536166654d6174683a206469766973696f6e206279207a65726f0000000000008152506128c4565b9392505050565b60008282018381101561227d576040805162461bcd60e51b815260206004820152601b60248201527f536166654d6174683a206164646974696f6e206f766572666c6f770000000000604482015290519081900360640190fd5b60008060008060008060008060006122fb8a601154601254612929565b925092509250600061230b612218565b9050600080600061231d8e878661297e565b919e509c509a509598509396509194505050505091939550919395565b600061227d83836040518060400160405280601e81526020017f536166654d6174683a207375627472616374696f6e206f766572666c6f770000815250612181565b6015805460ff60a01b1916600160a01b179055604080516002808252606080830184529260208301908036833701905050905030816000815181106123bd57fe5b60200260200101906001600160a01b031690816001600160a01b0316815250507f00000000000000000000000000000000000000000000000000000000000000006001600160a01b031663ad5c46486040518163ffffffff1660e01b815260040160206040518083038186803b15801561243657600080fd5b505afa15801561244a573d6000803e3d6000fd5b505050506040513d602081101561246057600080fd5b505181518290600190811061247157fe5b60200260200101906001600160a01b031690816001600160a01b0316815250506124bc307f000000000000000000000000000000000000000000000000000000000000000084611c3d565b7f00000000000000000000000000000000000000000000000000000000000000006001600160a01b031663791ac9478360008430426040518663ffffffff1660e01b81526004018086815260200185815260200180602001846001600160a01b03168152602001838152602001828103825285818151815260200191508051906020019060200280838360005b83811015612561578181015183820152602001612549565b505050509050019650505050505050600060405180830381600087803b15801561258a57600080fd5b505af115801561259e573d6000803e3d6000fd5b50506015805460ff60a01b1916905550505050565b6015546040516001600160a01b039091169082156108fc029083906000818181858888f19350505050158015610eb0573d6000803e3d6000fd5b806125fa576125fa6129ba565b6001600160a01b03841660009081526007602052604090205460ff16801561263b57506001600160a01b03831660009081526007602052604090205460ff16155b156126505761264b8484846129ec565b61274e565b6001600160a01b03841660009081526007602052604090205460ff1615801561269157506001600160a01b03831660009081526007602052604090205460ff165b156126a15761264b848484612b10565b6001600160a01b03841660009081526007602052604090205460ff161580156126e357506001600160a01b03831660009081526007602052604090205460ff16155b156126f35761264b848484612bb9565b6001600160a01b03841660009081526007602052604090205460ff16801561273357506001600160a01b03831660009081526007602052604090205460ff165b156127435761264b848484612bfd565b61274e848484612bb9565b8061275b5761275b612c70565b50505050565b600c54600b546000918291825b6008548110156128925782600360006008848154811061278a57fe5b60009182526020808320909101546001600160a01b0316835282019290925260400190205411806127ef57508160046000600884815481106127c857fe5b60009182526020808320909101546001600160a01b03168352820192909252604001902054115b1561280657600c54600b54945094505050506128c0565b612846600360006008848154811061281a57fe5b60009182526020808320909101546001600160a01b03168352820192909252604001902054849061233a565b9250612888600460006008848154811061285c57fe5b60009182526020808320909101546001600160a01b03168352820192909252604001902054839061233a565b915060010161276e565b50600b54600c546128a29161223b565b8210156128ba57600c54600b549350935050506128c0565b90925090505b9091565b600081836129135760405162461bcd60e51b81526020600482018181528351602484015283519092839260449091019190850190808383600083156121d55781810151838201526020016121bd565b50600083858161291f57fe5b0495945050505050565b6000808080612943606461293d8989612c7e565b9061223b565b90506000612956606461293d8a89612c7e565b9050600061296e826129688b8661233a565b9061233a565b9992985090965090945050505050565b600080808061298d8786612c7e565b9050600061299b8787612c7e565b905060006129a9838361233a565b929992985090965090945050505050565b6011541580156129ca5750601254155b156129d4576129ea565b6011805460135560128054601455600091829055555b565b6000806000806000806129fe876122de565b6001600160a01b038f16600090815260046020526040902054959b50939950919750955093509150612a30908861233a565b6001600160a01b038a16600090815260046020908152604080832093909355600390522054612a5f908761233a565b6001600160a01b03808b1660009081526003602052604080822093909355908a1681522054612a8e9086612284565b6001600160a01b038916600090815260036020526040902055612ab081612cd7565b612aba8483612d60565b876001600160a01b0316896001600160a01b03167fddf252ad1be2c89b69c2b068fc378daa952ba7f163c4a11628f55a4df523b3ef856040518082815260200191505060405180910390a3505050505050505050565b600080600080600080612b22876122de565b6001600160a01b038f16600090815260036020526040902054959b50939950919750955093509150612b54908761233a565b6001600160a01b03808b16600090815260036020908152604080832094909455918b16815260049091522054612b8a9084612284565b6001600160a01b038916600090815260046020908152604080832093909355600390522054612a8e9086612284565b600080600080600080612bcb876122de565b6001600160a01b038f16600090815260036020526040902054959b50939950919750955093509150612a5f908761233a565b600080600080600080612c0f876122de565b6001600160a01b038f16600090815260046020526040902054959b50939950919750955093509150612c41908861233a565b6001600160a01b038a16600090815260046020908152604080832093909355600390522054612b54908761233a565b601354601155601454601255565b600082612c8d57506000610a32565b82820282848281612c9a57fe5b041461227d5760405162461bcd60e51b8152600401808060200182810382526021815260200180612ecb6021913960400191505060405180910390fd5b6000612ce1612218565b90506000612cef8383612c7e565b30600090815260036020526040902054909150612d0c9082612284565b3060009081526003602090815260408083209390935560079052205460ff1615612d5b5730600090815260046020526040902054612d4a9084612284565b306000908152600460205260409020555b505050565b600c54612d6d908361233a565b600c55600d54612d7d9082612284565b600d55505056fe45524332303a207472616e7366657220746f20746865207a65726f2061646472657373636f6e74726163742062616c616e63652073686f756c642062652067726561746572207468656e20616d6f756e74416d6f756e74206d757374206265206c657373207468616e20746f74616c207265666c656374696f6e734f776e61626c653a206e6577206f776e657220697320746865207a65726f206164647265737345524332303a20617070726f766520746f20746865207a65726f2061646472657373416c726561647920626f75676874206d61785478416d6f756e742c20776169742074696c6c20636865636b206f66665472616e7366657220616d6f756e74206578636565647320746865206d61785478416d6f756e742e6d61785478416d6f756e742073686f756c642062652067726561746572207468616e20746f74616c20316539536166654d6174683a206d756c7469706c69636174696f6e206f766572666c6f7745524332303a207472616e7366657220616d6f756e74206578636565647320616c6c6f77616e63654f776e61626c653a2063616c6c6572206973206e6f7420746865206f776e65728be0079c531659141344cd1fd0a4f28419497f9722a3daafe3b4186f6b6457e06e756d4f66546f6b656e73546f45786368616e6765466f724d61726b6574696e672073686f756c642062652067726561746572207468616e20746f74616c203165395472616e7366657220616d6f756e74206d7573742062652067726561746572207468616e207a65726f45524332303a207472616e736665722066726f6d20746865207a65726f206164647265737345524332303a20617070726f76652066726f6d20746865207a65726f206164647265737357652063616e206e6f74206578636c75646520556e697377617020726f757465722e4578636c75646564206164647265737365732063616e6e6f742063616c6c20746869732066756e6374696f6e596f7520646f6e27742068617665207065726d697373696f6e20746f20756e6c6f636b45524332303a2064656372656173656420616c6c6f77616e63652062656c6f77207a65726fa26469706673582212207a918f6a075c2382ea22480807cb84a50cad5f6e49b62f8a306653ba11fdb3ce64736f6c634300060c0033"}}