{
  "opcodeHash": "0x096810c2e5f7cf63d684edab60682f3b23c451b73cc2b753685e334350e64052",
  "metalessHash": "0xbea22f333c4d36b6743bd550d3020d92d86e3f741a86a850becacecd3684692b",
  "runtimeHash": "0x23ed7c78b6a475b6fd6ca79b32bc5e9c227244b80d07d799221b4a2ada0c8376",
  "encodedMetadata": [
    {
      "ipfs": "/ipfs/QmR6SEie7gRzWH4nwNwsgnrLmSA6WGZVU6tgzkSLYyS4pf",
      "solc": "0.6.12"
    }
  ],
  "abi": [
    {
      "inputs": [
        {
          "internalType": "contract IStrategy",
          "name": "_strategy",
          "type": "address"
        }
      ],
      "stateMutability": "nonpayable",
      "type": "constructor"
    },
    {
      "anonymous": false,
      "inputs": [
        {
          "indexed": true,
          "internalType": "address",
          "name": "owner",
          "type": "address"
        },
        {
          "indexed": true,
          "internalType": "address",
          "name": "spender",
          "type": "address"
        },
        {
          "indexed": false,
          "internalType": "uint256",
          "name": "value",
          "type": "uint256"
        }
      ],
      "name": "Approval",
      "type": "event"
    },
    {
      "anonymous": false,
      "inputs": [
        {
          "indexed": true,
          "internalType": "address",
          "name": "previousOwner",
          "type": "address"
        },
        {
          "indexed": true,
          "internalType": "address",
          "name": "newOwner",
          "type": "address"
        }
      ],
      "name": "OwnershipTransferred",
      "type": "event"
    },
    {
      "anonymous": false,
      "inputs": [
        {
          "indexed": true,
          "internalType": "address",
          "name": "from",
          "type": "address"
        },
        {
          "indexed": true,
          "internalType": "address",
          "name": "to",
          "type": "address"
        },
        {
          "indexed": false,
          "internalType": "uint256",
          "name": "value",
          "type": "uint256"
        }
      ],
      "name": "Transfer",
      "type": "event"
    },
    {
      "inputs": [],
      "name": "FXS_FRAX_SUSHI_LP",
      "outputs": [
        {
          "internalType": "address",
          "name": "",
          "type": "address"
        }
      ],
      "stateMutability": "view",
      "type": "function"
    },
    {
      "inputs": [
        {
          "internalType": "address",
          "name": "owner",
          "type": "address"
        },
        {
          "internalType": "address",
          "name": "spender",
          "type": "address"
        }
      ],
      "name": "allowance",
      "outputs": [
        {
          "internalType": "uint256",
          "name": "",
          "type": "uint256"
        }
      ],
      "stateMutability": "view",
      "type": "function"
    },
    {
      "inputs": [
        {
          "internalType": "address",
          "name": "spender",
          "type": "address"
        },
        {
          "internalType": "uint256",
          "name": "amount",
          "type": "uint256"
        }
      ],
      "name": "approve",
      "outputs": [
        {
          "internalType": "bool",
          "name": "",
          "type": "bool"
        }
      ],
      "stateMutability": "nonpayable",
      "type": "function"
    },
    {
      "inputs": [],
      "name": "balance",
      "outputs": [
        {
          "internalType": "uint256",
          "name": "",
          "type": "uint256"
        }
      ],
      "stateMutability": "view",
      "type": "function"
    },
    {
      "inputs": [
        {
          "internalType": "address",
          "name": "account",
          "type": "address"
        }
      ],
      "name": "balanceOf",
      "outputs": [
        {
          "internalType": "uint256",
          "name": "",
          "type": "uint256"
        }
      ],
      "stateMutability": "view",
      "type": "function"
    },
    {
      "inputs": [],
      "name": "decimals",
      "outputs": [
        {
          "internalType": "uint8",
          "name": "",
          "type": "uint8"
        }
      ],
      "stateMutability": "view",
      "type": "function"
    },
    {
      "inputs": [
        {
          "internalType": "address",
          "name": "spender",
          "type": "address"
        },
        {
          "internalType": "uint256",
          "name": "subtractedValue",
          "type": "uint256"
        }
      ],
      "name": "decreaseAllowance",
      "outputs": [
        {
          "internalType": "bool",
          "name": "",
          "type": "bool"
        }
      ],
      "stateMutability": "nonpayable",
      "type": "function"
    },
    {
      "inputs": [
        {
          "internalType": "uint256",
          "name": "_amount",
          "type": "uint256"
        }
      ],
      "name": "deposit",
      "outputs": [],
      "stateMutability": "nonpayable",
      "type": "function"
    },
    {
      "inputs": [],
      "name": "depositAll",
      "outputs": [],
      "stateMutability": "nonpayable",
      "type": "function"
    },
    {
      "inputs": [],
      "name": "earn",
      "outputs": [],
      "stateMutability": "nonpayable",
      "type": "function"
    },
    {
      "inputs": [
        {
          "internalType": "uint256",
          "name": "_amount",
          "type": "uint256"
        },
        {
          "internalType": "uint256",
          "name": "_secs",
          "type": "uint256"
        }
      ],
      "name": "earnLocked",
      "outputs": [],
      "stateMutability": "nonpayable",
      "type": "function"
    },
    {
      "inputs": [],
      "name": "getRatio",
      "outputs": [
        {
          "internalType": "uint256",
          "name": "",
          "type": "uint256"
        }
      ],
      "stateMutability": "view",
      "type": "function"
    },
    {
      "inputs": [
        {
          "internalType": "address",
          "name": "spender",
          "type": "address"
        },
        {
          "internalType": "uint256",
          "name": "addedValue",
          "type": "uint256"
        }
      ],
      "name": "increaseAllowance",
      "outputs": [
        {
          "internalType": "bool",
          "name": "",
          "type": "bool"
        }
      ],
      "stateMutability": "nonpayable",
      "type": "function"
    },
    {
      "inputs": [],
      "name": "locked",
      "outputs": [
        {
          "internalType": "bool",
          "name": "",
          "type": "bool"
        }
      ],
      "stateMutability": "view",
      "type": "function"
    },
    {
      "inputs": [],
      "name": "migrate",
      "outputs": [],
      "stateMutability": "nonpayable",
      "type": "function"
    },
    {
      "inputs": [],
      "name": "name",
      "outputs": [
        {
          "internalType": "string",
          "name": "",
          "type": "string"
        }
      ],
      "stateMutability": "view",
      "type": "function"
    },
    {
      "inputs": [],
      "name": "owner",
      "outputs": [
        {
          "internalType": "address",
          "name": "",
          "type": "address"
        }
      ],
      "stateMutability": "view",
      "type": "function"
    },
    {
      "inputs": [],
      "name": "renounceOwnership",
      "outputs": [],
      "stateMutability": "nonpayable",
      "type": "function"
    },
    {
      "inputs": [],
      "name": "strategy",
      "outputs": [
        {
          "internalType": "address",
          "name": "",
          "type": "address"
        }
      ],
      "stateMutability": "view",
      "type": "function"
    },
    {
      "inputs": [],
      "name": "symbol",
      "outputs": [
        {
          "internalType": "string",
          "name": "",
          "type": "string"
        }
      ],
      "stateMutability": "view",
      "type": "function"
    },
    {
      "inputs": [],
      "name": "token",
      "outputs": [
        {
          "internalType": "contract IERC20",
          "name": "",
          "type": "address"
        }
      ],
      "stateMutability": "view",
      "type": "function"
    },
    {
      "inputs": [],
      "name": "totalSupply",
      "outputs": [
        {
          "internalType": "uint256",
          "name": "",
          "type": "uint256"
        }
      ],
      "stateMutability": "view",
      "type": "function"
    },
    {
      "inputs": [
        {
          "internalType": "address",
          "name": "recipient",
          "type": "address"
        },
        {
          "internalType": "uint256",
          "name": "amount",
          "type": "uint256"
        }
      ],
      "name": "transfer",
      "outputs": [
        {
          "internalType": "bool",
          "name": "",
          "type": "bool"
        }
      ],
      "stateMutability": "nonpayable",
      "type": "function"
    },
    {
      "inputs": [
        {
          "internalType": "address",
          "name": "sender",
          "type": "address"
        },
        {
          "internalType": "address",
          "name": "recipient",
          "type": "address"
        },
        {
          "internalType": "uint256",
          "name": "amount",
          "type": "uint256"
        }
      ],
      "name": "transferFrom",
      "outputs": [
        {
          "internalType": "bool",
          "name": "",
          "type": "bool"
        }
      ],
      "stateMutability": "nonpayable",
      "type": "function"
    },
    {
      "inputs": [
        {
          "internalType": "address",
          "name": "newOwner",
          "type": "address"
        }
      ],
      "name": "transferOwnership",
      "outputs": [],
      "stateMutability": "nonpayable",
      "type": "function"
    },
    {
      "inputs": [
        {
          "internalType": "uint256",
          "name": "_shares",
          "type": "uint256"
        }
      ],
      "name": "withdraw",
      "outputs": [],
      "stateMutability": "nonpayable",
      "type": "function"
    },
    {
      "inputs": [],
      "name": "withdrawAll",
      "outputs": [],
      "stateMutability": "nonpayable",
      "type": "function"
    },
    {
      "inputs": [
        {
          "internalType": "bytes32",
          "name": "kek_id",
          "type": "bytes32"
        }
      ],
      "name": "withdrawLocked",
      "outputs": [],
      "stateMutability": "nonpayable",
      "type": "function"
    }
  ],
  "bytecode": {
    "object": "60806040526007805460ff60a01b19169055600880546001600160a01b03191673c218001e3d102e3d1de9bf2c0f7d9626d76c6f301790553480156200004457600080fd5b506040516200232f3803806200232f833981810160405260208110156200006a57600080fd5b5051604080516c119e1cd19c985e17dd985d5b1d609a1b6020828101919091528251808303600d018152602d83018452670ec8cf0e68ce4c2f60c31b604d8401528351603581850301815260559093019093528251620000d19160039190850190620002f3565b508051620000e7906004906020840190620002f3565b50506005805460ff1916601217905550600062000103620002d9565b60058054610100600160a81b0319166101006001600160a01b03841690810291909117909155604051919250906000907f8be0079c531659141344cd1fd0a4f28419497f9722a3daafe3b4186f6b6457e0908290a3506200023c816001600160a01b0316631f1fcd516040518163ffffffff1660e01b815260040160206040518083038186803b1580156200019757600080fd5b505afa158015620001ac573d6000803e3d6000fd5b505050506040513d6020811015620001c357600080fd5b50516040805163313ce56760e01b815290516001600160a01b039092169163313ce56791600480820192602092909190829003018186803b1580156200020857600080fd5b505afa1580156200021d573d6000803e3d6000fd5b505050506040513d60208110156200023457600080fd5b5051620002dd565b806001600160a01b0316631f1fcd516040518163ffffffff1660e01b815260040160206040518083038186803b1580156200027657600080fd5b505afa1580156200028b573d6000803e3d6000fd5b505050506040513d6020811015620002a257600080fd5b5051600680546001600160a01b039283166001600160a01b031991821617909155600780549390921692169190911790556200038f565b3390565b6005805460ff191660ff92909216919091179055565b828054600181600116156101000203166002900490600052602060002090601f016020900481019282601f106200033657805160ff191683800117855562000366565b8280016001018555821562000366579182015b828111156200036657825182559160200191906001019062000349565b506200037492915062000378565b5090565b5b8082111562000374576000815560010162000379565b611f90806200039f6000396000f3fe608060405234801561001057600080fd5b50600436106101c45760003560e01c8063a457c2d7116100f9578063d389800f11610097578063e199d68b11610071578063e199d68b14610499578063ec1ebd7a146104bc578063f2fde38b146104c4578063fc0c546a146104ea576101c4565b8063d389800f1461045b578063dd62ed3e14610463578063de5f626814610491576101c4565b8063a9fcee00116100d3578063a9fcee0014610426578063b69ef8a81461042e578063b6b55f2514610436578063cf30901214610453576101c4565b8063a457c2d7146103c6578063a8c62e76146103f2578063a9059cbb146103fa576101c4565b806351e3fc1711610166578063853828b611610140578063853828b61461038a5780638da5cb5b146103925780638fd3ab80146103b657806395d89b41146103be576101c4565b806351e3fc171461033f57806370a082311461035c578063715018a614610382576101c4565b806323b872dd116101a257806323b872dd146102a05780632e1a7d4d146102d6578063313ce567146102f55780633950935114610313576101c4565b806306fdde03146101c9578063095ea7b31461024657806318160ddd14610286575b600080fd5b6101d16104f2565b6040805160208082528351818301528351919283929083019185019080838360005b8381101561020b5781810151838201526020016101f3565b50505050905090810190601f1680156102385780820380516001836020036101000a031916815260200191505b509250505060405180910390f35b6102726004803603604081101561025c57600080fd5b506001600160a01b038135169060200135610588565b604080519115158252519081900360200190f35b61028e6105a6565b60408051918252519081900360200190f35b610272600480360360608110156102b657600080fd5b506001600160a01b038135811691602081013590911690604001356105ac565b6102f3600480360360208110156102ec57600080fd5b5035610633565b005b6102fd610817565b6040805160ff9092168252519081900360200190f35b6102726004803603604081101561032957600080fd5b506001600160a01b038135169060200135610820565b6102f36004803603602081101561035557600080fd5b503561086e565b61028e6004803603602081101561037257600080fd5b50356001600160a01b0316610943565b6102f361095e565b6102f3610a0b565b61039a610a1e565b604080516001600160a01b039092168252519081900360200190f35b6102f3610a32565b6101d1610ba3565b610272600480360360408110156103dc57600080fd5b506001600160a01b038135169060200135610c04565b61039a610c6c565b6102726004803603604081101561041057600080fd5b506001600160a01b038135169060200135610c7b565b61039a610c8f565b61028e610c9e565b6102f36004803603602081101561044c57600080fd5b5035610d9f565b610272610f41565b6102f3610f51565b61028e6004803603604081101561047957600080fd5b506001600160a01b0381358116916020013516611038565b6102f3611063565b6102f3600480360360408110156104af57600080fd5b50803590602001356110e0565b61028e6112bb565b6102f3600480360360208110156104da57600080fd5b50356001600160a01b03166112dc565b61039a6113e5565b60038054604080516020601f600260001961010060018816150201909516949094049384018190048102820181019092528281526060939092909183018282801561057e5780601f106105535761010080835404028352916020019161057e565b820191906000526020600020905b81548152906001019060200180831161056157829003601f168201915b5050505050905090565b600061059c6105956113f4565b84846113f8565b5060015b92915050565b60025490565b60006105b98484846114e4565b610629846105c56113f4565b61062485604051806060016040528060288152602001611e5a602891396001600160a01b038a166000908152600160205260408120906106036113f4565b6001600160a01b03168152602081019190915260400160002054919061163f565b6113f8565b5060019392505050565b60006106586106406105a6565b6106528461064c610c9e565b906116d6565b90611736565b90506106643383611778565b600654604080516370a0823160e01b815230600482015290516000926001600160a01b0316916370a08231916024808301926020929190829003018186803b1580156106af57600080fd5b505afa1580156106c3573d6000803e3d6000fd5b505050506040513d60208110156106d957600080fd5b50519050818110156107fb5760006106f18383611874565b60075460408051632e1a7d4d60e01b81526004810184905290519293506001600160a01b0390911691632e1a7d4d9160248082019260009290919082900301818387803b15801561074157600080fd5b505af1158015610755573d6000803e3d6000fd5b5050600654604080516370a0823160e01b81523060048201529051600094506001600160a01b0390921692506370a08231916024808301926020929190829003018186803b1580156107a657600080fd5b505afa1580156107ba573d6000803e3d6000fd5b505050506040513d60208110156107d057600080fd5b5051905060006107e08285611874565b9050828110156107f7576107f484826118b6565b94505b5050505b600654610812906001600160a01b03163384611910565b505050565b60055460ff1690565b600061059c61082d6113f4565b84610624856001600061083e6113f4565b6001600160a01b03908116825260208083019390935260409182016000908120918c1681529252902054906118b6565b6108766113f4565b60055461010090046001600160a01b039081169116146108cb576040805162461bcd60e51b81526020600482018190526024820152600080516020611e82833981519152604482015290519081900360640190fd5b600754604080516351e3fc1760e01b81526004810184905290516001600160a01b03909216916351e3fc17916024808201926020929091908290030181600087803b15801561091957600080fd5b505af115801561092d573d6000803e3d6000fd5b505050506040513d602081101561081257600080fd5b6001600160a01b031660009081526020819052604090205490565b6109666113f4565b60055461010090046001600160a01b039081169116146109bb576040805162461bcd60e51b81526020600482018190526024820152600080516020611e82833981519152604482015290519081900360640190fd5b60055460405160009161010090046001600160a01b0316907f8be0079c531659141344cd1fd0a4f28419497f9722a3daafe3b4186f6b6457e0908390a360058054610100600160a81b0319169055565b610a1c610a1733610943565b610633565b565b60055461010090046001600160a01b031690565b610a3a6113f4565b60055461010090046001600160a01b03908116911614610a8f576040805162461bcd60e51b81526020600482018190526024820152600080516020611e82833981519152604482015290519081900360640190fd5b600654604080516370a0823160e01b815230600482015290516000926001600160a01b0316916370a08231916024808301926020929190829003018186803b158015610ada57600080fd5b505afa158015610aee573d6000803e3d6000fd5b505050506040513d6020811015610b0457600080fd5b505190508015610b2b57600754600654610b2b916001600160a01b03918216911683611910565b600854600680546001600160a01b0319166001600160a01b039283161790556007546040805163011fa75760e71b815290519190921691638fd3ab8091600480830192600092919082900301818387803b158015610b8857600080fd5b505af1158015610b9c573d6000803e3d6000fd5b5050505050565b60048054604080516020601f600260001961010060018816150201909516949094049384018190048102820181019092528281526060939092909183018282801561057e5780601f106105535761010080835404028352916020019161057e565b600061059c610c116113f4565b8461062485604051806060016040528060258152602001611f366025913960016000610c3b6113f4565b6001600160a01b03908116825260208083019390935260409182016000908120918d1681529252902054919061163f565b6007546001600160a01b031681565b600061059c610c886113f4565b84846114e4565b6008546001600160a01b031681565b6000610d9a600760009054906101000a90046001600160a01b03166001600160a01b031663722713f76040518163ffffffff1660e01b815260040160206040518083038186803b158015610cf157600080fd5b505afa158015610d05573d6000803e3d6000fd5b505050506040513d6020811015610d1b57600080fd5b5051600654604080516370a0823160e01b815230600482015290516001600160a01b03909216916370a0823191602480820192602092909190829003018186803b158015610d6857600080fd5b505afa158015610d7c573d6000803e3d6000fd5b505050506040513d6020811015610d9257600080fd5b5051906118b6565b905090565b333214610de2576040805162461bcd60e51b815260206004820152600c60248201526b6e6f20636f6e74726163747360a01b604482015290519081900360640190fd5b6000610dec610c9e565b600654604080516370a0823160e01b815230600482015290519293506000926001600160a01b03909216916370a0823191602480820192602092909190829003018186803b158015610e3d57600080fd5b505afa158015610e51573d6000803e3d6000fd5b505050506040513d6020811015610e6757600080fd5b5051600654909150610e84906001600160a01b0316333086611962565b600654604080516370a0823160e01b815230600482015290516000926001600160a01b0316916370a08231916024808301926020929190829003018186803b158015610ecf57600080fd5b505afa158015610ee3573d6000803e3d6000fd5b505050506040513d6020811015610ef957600080fd5b50519050610f078183611874565b93506000610f136105a6565b610f1e575083610f37565b610f3484610652610f2d6105a6565b88906116d6565b90505b610b9c33826119c2565b600754600160a01b900460ff1681565b600654604080516370a0823160e01b815230600482015290516000926001600160a01b0316916370a08231916024808301926020929190829003018186803b158015610f9c57600080fd5b505afa158015610fb0573d6000803e3d6000fd5b505050506040513d6020811015610fc657600080fd5b5051600754600654919250610fe8916001600160a01b03908116911683611910565b600760009054906101000a90046001600160a01b03166001600160a01b031663d0e30db06040518163ffffffff1660e01b8152600401600060405180830381600087803b158015610b8857600080fd5b6001600160a01b03918216600090815260016020908152604080832093909416825291909152205490565b600654604080516370a0823160e01b81523360048201529051610a1c926001600160a01b0316916370a08231916024808301926020929190829003018186803b1580156110af57600080fd5b505afa1580156110c3573d6000803e3d6000fd5b505050506040513d60208110156110d957600080fd5b5051610d9f565b6110e86113f4565b60055461010090046001600160a01b0390811691161461113d576040805162461bcd60e51b81526020600482018190526024820152600080516020611e82833981519152604482015290519081900360640190fd5b600654604080516370a0823160e01b815230600482015290516000926001600160a01b0316916370a08231916024808301926020929190829003018186803b15801561118857600080fd5b505afa15801561119c573d6000803e3d6000fd5b505050506040513d60208110156111b257600080fd5b50519050828110156112345760006111ca8483611874565b60075460408051632e1a7d4d60e01b81526004810184905290519293506001600160a01b0390911691632e1a7d4d9160248082019260009290919082900301818387803b15801561121a57600080fd5b505af115801561122e573d6000803e3d6000fd5b50505050505b600754600654611251916001600160a01b03918216911685611910565b60075460408051638c1acc2960e01b81526004810185905290516001600160a01b0390921691638c1acc299160248082019260009290919082900301818387803b15801561129e57600080fd5b505af11580156112b2573d6000803e3d6000fd5b50505050505050565b6000610d9a6112c86105a6565b610652670de0b6b3a764000061064c610c9e565b6112e46113f4565b60055461010090046001600160a01b03908116911614611339576040805162461bcd60e51b81526020600482018190526024820152600080516020611e82833981519152604482015290519081900360640190fd5b6001600160a01b03811661137e5760405162461bcd60e51b8152600401808060200182810382526026815260200180611dcb6026913960400191505060405180910390fd5b6005546040516001600160a01b0380841692610100900416907f8be0079c531659141344cd1fd0a4f28419497f9722a3daafe3b4186f6b6457e090600090a3600580546001600160a01b0390921661010002610100600160a81b0319909216919091179055565b6006546001600160a01b031681565b3390565b6001600160a01b03831661143d5760405162461bcd60e51b8152600401808060200182810382526024815260200180611ee86024913960400191505060405180910390fd5b6001600160a01b0382166114825760405162461bcd60e51b8152600401808060200182810382526022815260200180611df16022913960400191505060405180910390fd5b6001600160a01b03808416600081815260016020908152604080832094871680845294825291829020859055815185815291517f8c5be1e5ebec7d5bd14f71427d1e84f3dd0314c0f7b2291e5b200ac8c7c3b9259281900390910190a3505050565b6001600160a01b0383166115295760405162461bcd60e51b8152600401808060200182810382526025815260200180611ec36025913960400191505060405180910390fd5b6001600160a01b03821661156e5760405162461bcd60e51b8152600401808060200182810382526023815260200180611d866023913960400191505060405180910390fd5b611579838383610812565b6115b681604051806060016040528060268152602001611e13602691396001600160a01b038616600090815260208190526040902054919061163f565b6001600160a01b0380851660009081526020819052604080822093909355908416815220546115e590826118b6565b6001600160a01b038084166000818152602081815260409182902094909455805185815290519193928716927fddf252ad1be2c89b69c2b068fc378daa952ba7f163c4a11628f55a4df523b3ef92918290030190a3505050565b600081848411156116ce5760405162461bcd60e51b81526004018080602001828103825283818151815260200191508051906020019080838360005b8381101561169357818101518382015260200161167b565b50505050905090810190601f1680156116c05780820380516001836020036101000a031916815260200191505b509250505060405180910390fd5b505050900390565b6000826116e5575060006105a0565b828202828482816116f257fe5b041461172f5760405162461bcd60e51b8152600401808060200182810382526021815260200180611e396021913960400191505060405180910390fd5b9392505050565b600061172f83836040518060400160405280601a81526020017f536166654d6174683a206469766973696f6e206279207a65726f000000000000815250611ab2565b6001600160a01b0382166117bd5760405162461bcd60e51b8152600401808060200182810382526021815260200180611ea26021913960400191505060405180910390fd5b6117c982600083610812565b61180681604051806060016040528060228152602001611da9602291396001600160a01b038516600090815260208190526040902054919061163f565b6001600160a01b03831660009081526020819052604090205560025461182c9082611874565b6002556040805182815290516000916001600160a01b038516917fddf252ad1be2c89b69c2b068fc378daa952ba7f163c4a11628f55a4df523b3ef9181900360200190a35050565b600061172f83836040518060400160405280601e81526020017f536166654d6174683a207375627472616374696f6e206f766572666c6f77000081525061163f565b60008282018381101561172f576040805162461bcd60e51b815260206004820152601b60248201527f536166654d6174683a206164646974696f6e206f766572666c6f770000000000604482015290519081900360640190fd5b604080516001600160a01b038416602482015260448082018490528251808303909101815260649091019091526020810180516001600160e01b031663a9059cbb60e01b179052610812908490611b17565b604080516001600160a01b0380861660248301528416604482015260648082018490528251808303909101815260849091019091526020810180516001600160e01b03166323b872dd60e01b1790526119bc908590611b17565b50505050565b6001600160a01b038216611a1d576040805162461bcd60e51b815260206004820152601f60248201527f45524332303a206d696e7420746f20746865207a65726f206164647265737300604482015290519081900360640190fd5b611a2960008383610812565b600254611a3690826118b6565b6002556001600160a01b038216600090815260208190526040902054611a5c90826118b6565b6001600160a01b0383166000818152602081815260408083209490945583518581529351929391927fddf252ad1be2c89b69c2b068fc378daa952ba7f163c4a11628f55a4df523b3ef9281900390910190a35050565b60008183611b015760405162461bcd60e51b815260206004820181815283516024840152835190928392604490910191908501908083836000831561169357818101518382015260200161167b565b506000838581611b0d57fe5b0495945050505050565b6060611b6c826040518060400160405280602081526020017f5361666545524332303a206c6f772d6c6576656c2063616c6c206661696c6564815250856001600160a01b0316611bc89092919063ffffffff16565b80519091501561081257808060200190516020811015611b8b57600080fd5b50516108125760405162461bcd60e51b815260040180806020018281038252602a815260200180611f0c602a913960400191505060405180910390fd5b6060611bd78484600085611bdf565b949350505050565b6060611bea85611d4c565b611c3b576040805162461bcd60e51b815260206004820152601d60248201527f416464726573733a2063616c6c20746f206e6f6e2d636f6e7472616374000000604482015290519081900360640190fd5b60006060866001600160a01b031685876040518082805190602001908083835b60208310611c7a5780518252601f199092019160209182019101611c5b565b6001836020036101000a03801982511681845116808217855250505050505090500191505060006040518083038185875af1925050503d8060008114611cdc576040519150601f19603f3d011682016040523d82523d6000602084013e611ce1565b606091505b50915091508115611cf5579150611bd79050565b805115611d055780518082602001fd5b60405162461bcd60e51b815260206004820181815286516024840152865187939192839260440191908501908083836000831561169357818101518382015260200161167b565b6000813f7fc5d2460186f7233c927e7db2dcc703c0e500b653ca82273b7bfad8045d85a470818114801590611bd757505015159291505056fe45524332303a207472616e7366657220746f20746865207a65726f206164647265737345524332303a206275726e20616d6f756e7420657863656564732062616c616e63654f776e61626c653a206e6577206f776e657220697320746865207a65726f206164647265737345524332303a20617070726f766520746f20746865207a65726f206164647265737345524332303a207472616e7366657220616d6f756e7420657863656564732062616c616e6365536166654d6174683a206d756c7469706c69636174696f6e206f766572666c6f7745524332303a207472616e7366657220616d6f756e74206578636565647320616c6c6f77616e63654f776e61626c653a2063616c6c6572206973206e6f7420746865206f776e657245524332303a206275726e2066726f6d20746865207a65726f206164647265737345524332303a207472616e736665722066726f6d20746865207a65726f206164647265737345524332303a20617070726f76652066726f6d20746865207a65726f20616464726573735361666545524332303a204552433230206f7065726174696f6e20646964206e6f74207375636365656445524332303a2064656372656173656420616c6c6f77616e63652062656c6f77207a65726fa2646970667358221220afa2e41ff15d54462655d84c12d81dff6f2bae0fc693f98769657dcde2405eb664736f6c634300060c0033"
  }
}