{
  "opcodeHash": "0x8c602b17b249e1a3c9ee2637f4c6f3b06359140522ebde3a89f8e9bbc9c0eb62",
  "metalessHash": "0xf12b30fff43b023fceabb9dae92696f806e615158430959e59a35a27df541530",
  "runtimeHash": "0x35edda83afaae0b4f6b8a2c5ed38ba489c51a0a1fb671a90a410d266bfd5dbe1",
  "encodedMetadata": [
    {
      "ipfs": "/ipfs/QmbmoyrN5r73kSyH1hAnzAciJJHBWqN8fcgykuqyKvNjrc",
      "solc": "0.6.12"
    }
  ],
  "abi": [
    {
      "inputs": [
        {
          "internalType": "address",
          "name": "_executor",
          "type": "address"
        }
      ],
      "stateMutability": "payable",
      "type": "constructor"
    },
    {
      "inputs": [
        {
          "internalType": "address payable",
          "name": "_to",
          "type": "address"
        },
        {
          "internalType": "uint256",
          "name": "_value",
          "type": "uint256"
        },
        {
          "internalType": "bytes",
          "name": "_data",
          "type": "bytes"
        }
      ],
      "name": "call",
      "outputs": [
        {
          "internalType": "bytes",
          "name": "",
          "type": "bytes"
        }
      ],
      "stateMutability": "payable",
      "type": "function"
    },
    {
      "inputs": [
        {
          "internalType": "uint256",
          "name": "_wethAmountToFirstMarket",
          "type": "uint256"
        },
        {
          "internalType": "uint256",
          "name": "_ethAmountToCoinbase",
          "type": "uint256"
        },
        {
          "internalType": "address[]",
          "name": "_targets",
          "type": "address[]"
        },
        {
          "internalType": "bytes[]",
          "name": "_payloads",
          "type": "bytes[]"
        }
      ],
      "name": "uniswapWeth",
      "outputs": [],
      "stateMutability": "payable",
      "type": "function"
    },
    {
      "inputs": [],
      "name": "withdrawEth",
      "outputs": [],
      "stateMutability": "nonpayable",
      "type": "function"
    },
    {
      "inputs": [
        {
          "internalType": "uint256",
          "name": "amount",
          "type": "uint256"
        }
      ],
      "name": "withdrawEthAmount",
      "outputs": [],
      "stateMutability": "nonpayable",
      "type": "function"
    },
    {
      "inputs": [
        {
          "internalType": "address",
          "name": "token",
          "type": "address"
        }
      ],
      "name": "withdrawToken",
      "outputs": [],
      "stateMutability": "nonpayable",
      "type": "function"
    },
    {
      "inputs": [
        {
          "internalType": "address",
          "name": "token",
          "type": "address"
        },
        {
          "internalType": "uint256",
          "name": "amount",
          "type": "uint256"
        }
      ],
      "name": "withdrawTokenAmount",
      "outputs": [],
      "stateMutability": "nonpayable",
      "type": "function"
    },
    {
      "stateMutability": "payable",
      "type": "receive"
    }
  ],
  "bytecode": {
    "object": "60c0604052604051620013be380380620013be833981810160405281019062000029919062000137565b3373ffffffffffffffffffffffffffffffffffffffff1660808173ffffffffffffffffffffffffffffffffffffffff1660601b815250508073ffffffffffffffffffffffffffffffffffffffff1660a08173ffffffffffffffffffffffffffffffffffffffff1660601b815250506000341115620001195773c02aaa39b223fe8d0a0e5c4f27ead9083c756cc273ffffffffffffffffffffffffffffffffffffffff1663d0e30db0346040518263ffffffff1660e01b81526004016000604051808303818588803b158015620000fe57600080fd5b505af115801562000113573d6000803e3d6000fd5b50505050505b50620001b1565b600081519050620001318162000197565b92915050565b6000602082840312156200014a57600080fd5b60006200015a8482850162000120565b91505092915050565b6000620001708262000177565b9050919050565b600073ffffffffffffffffffffffffffffffffffffffff82169050919050565b620001a28162000163565b8114620001ae57600080fd5b50565b60805160601c60a05160601c6111cf620001ef6000398061060152508061014552806101e952806103055280610476528061051752506111cf6000f3fe6080604052600436106100595760003560e01c806326094363146100655780636dbf2fa01461008e57806389476069146100be578063a0ef91df146100e7578063b354a5b7146100fe578063ecd494b31461012757610060565b3661006057005b600080fd5b34801561007157600080fd5b5061008c60048036038101906100879190610d0f565b610143565b005b6100a860048036038101906100a39190610c3e565b6101e5565b6040516100b59190610f4d565b60405180910390f35b3480156100ca57600080fd5b506100e560048036038101906100e09190610c15565b610303565b005b3480156100f357600080fd5b506100fc610474565b005b34801561010a57600080fd5b5061012560048036038101906101209190610caa565b610515565b005b610141600480360381019061013c9190610d61565b6105ff565b005b7f000000000000000000000000000000000000000000000000000000000000000073ffffffffffffffffffffffffffffffffffffffff163373ffffffffffffffffffffffffffffffffffffffff161461019b57600080fd5b3373ffffffffffffffffffffffffffffffffffffffff166108fc829081150290604051600060405180830381858888f193505050501580156101e1573d6000803e3d6000fd5b5050565b60607f000000000000000000000000000000000000000000000000000000000000000073ffffffffffffffffffffffffffffffffffffffff163373ffffffffffffffffffffffffffffffffffffffff161461023f57600080fd5b600073ffffffffffffffffffffffffffffffffffffffff168573ffffffffffffffffffffffffffffffffffffffff16141561027957600080fd5b600060608673ffffffffffffffffffffffffffffffffffffffff168686866040516102a5929190610eb0565b60006040518083038185875af1925050503d80600081146102e2576040519150601f19603f3d011682016040523d82523d6000602084013e6102e7565b606091505b5091509150816102f657600080fd5b8092505050949350505050565b7f000000000000000000000000000000000000000000000000000000000000000073ffffffffffffffffffffffffffffffffffffffff163373ffffffffffffffffffffffffffffffffffffffff161461035b57600080fd5b8073ffffffffffffffffffffffffffffffffffffffff1663a9059cbb338373ffffffffffffffffffffffffffffffffffffffff166370a08231306040518263ffffffff1660e01b81526004016103b19190610ee0565b60206040518083038186803b1580156103c957600080fd5b505afa1580156103dd573d6000803e3d6000fd5b505050506040513d601f19601f820116820180604052508101906104019190610d38565b6040518363ffffffff1660e01b815260040161041e929190610efb565b602060405180830381600087803b15801561043857600080fd5b505af115801561044c573d6000803e3d6000fd5b505050506040513d601f19601f820116820180604052508101906104709190610ce6565b5050565b7f000000000000000000000000000000000000000000000000000000000000000073ffffffffffffffffffffffffffffffffffffffff163373ffffffffffffffffffffffffffffffffffffffff16146104cc57600080fd5b3373ffffffffffffffffffffffffffffffffffffffff166108fc479081150290604051600060405180830381858888f19350505050158015610512573d6000803e3d6000fd5b50565b7f000000000000000000000000000000000000000000000000000000000000000073ffffffffffffffffffffffffffffffffffffffff163373ffffffffffffffffffffffffffffffffffffffff161461056d57600080fd5b8173ffffffffffffffffffffffffffffffffffffffff1663a9059cbb33836040518363ffffffff1660e01b81526004016105a8929190610efb565b602060405180830381600087803b1580156105c257600080fd5b505af11580156105d6573d6000803e3d6000fd5b505050506040513d601f19601f820116820180604052508101906105fa9190610ce6565b505050565b7f000000000000000000000000000000000000000000000000000000000000000073ffffffffffffffffffffffffffffffffffffffff163373ffffffffffffffffffffffffffffffffffffffff161461065757600080fd5b805182511461066557600080fd5b600073c02aaa39b223fe8d0a0e5c4f27ead9083c756cc273ffffffffffffffffffffffffffffffffffffffff166370a08231306040518263ffffffff1660e01b81526004016106b49190610ee0565b60206040518083038186803b1580156106cc57600080fd5b505afa1580156106e0573d6000803e3d6000fd5b505050506040513d601f19601f820116820180604052508101906107049190610d38565b905073c02aaa39b223fe8d0a0e5c4f27ead9083c756cc273ffffffffffffffffffffffffffffffffffffffff1663a9059cbb8460008151811061074357fe5b6020026020010151876040518363ffffffff1660e01b8152600401610769929190610f24565b602060405180830381600087803b15801561078357600080fd5b505af1158015610797573d6000803e3d6000fd5b505050506040513d601f19601f820116820180604052508101906107bb9190610ce6565b5060005b835181101561087757600060608583815181106107d857fe5b602002602001015173ffffffffffffffffffffffffffffffffffffffff1685848151811061080257fe5b60200260200101516040516108179190610ec9565b6000604051808303816000865af19150503d8060008114610854576040519150601f19603f3d011682016040523d82523d6000602084013e610859565b606091505b50915091508161086857600080fd5b505080806001019150506107bf565b50600073c02aaa39b223fe8d0a0e5c4f27ead9083c756cc273ffffffffffffffffffffffffffffffffffffffff166370a08231306040518263ffffffff1660e01b81526004016108c79190610ee0565b60206040518083038186803b1580156108df57600080fd5b505afa1580156108f3573d6000803e3d6000fd5b505050506040513d601f19601f820116820180604052508101906109179190610d38565b9050848201811161092757600080fd5b6000851415610937575050610a11565b6000479050858110156109c65773c02aaa39b223fe8d0a0e5c4f27ead9083c756cc273ffffffffffffffffffffffffffffffffffffffff16632e1a7d4d8288036040518263ffffffff1660e01b81526004016109939190610f6f565b600060405180830381600087803b1580156109ad57600080fd5b505af11580156109c1573d6000803e3d6000fd5b505050505b4173ffffffffffffffffffffffffffffffffffffffff166108fc879081150290604051600060405180830381858888f19350505050158015610a0c573d6000803e3d6000fd5b505050505b50505050565b600081359050610a268161113d565b92915050565b600081359050610a3b81611154565b92915050565b600082601f830112610a5257600080fd5b8135610a65610a6082610fb7565b610f8a565b91508181835260208401935060208101905083856020840282011115610a8a57600080fd5b60005b83811015610aba5781610aa08882610a17565b845260208401935060208301925050600181019050610a8d565b5050505092915050565b600082601f830112610ad557600080fd5b8135610ae8610ae382610fdf565b610f8a565b9150818183526020840193506020810190508360005b83811015610b2e5781358601610b148882610b97565b845260208401935060208301925050600181019050610afe565b5050505092915050565b600081519050610b478161116b565b92915050565b60008083601f840112610b5f57600080fd5b8235905067ffffffffffffffff811115610b7857600080fd5b602083019150836001820283011115610b9057600080fd5b9250929050565b600082601f830112610ba857600080fd5b8135610bbb610bb682611007565b610f8a565b91508082526020830160208301858383011115610bd757600080fd5b610be28382846110ea565b50505092915050565b600081359050610bfa81611182565b92915050565b600081519050610c0f81611182565b92915050565b600060208284031215610c2757600080fd5b6000610c3584828501610a17565b91505092915050565b60008060008060608587031215610c5457600080fd5b6000610c6287828801610a2c565b9450506020610c7387828801610beb565b935050604085013567ffffffffffffffff811115610c9057600080fd5b610c9c87828801610b4d565b925092505092959194509250565b60008060408385031215610cbd57600080fd5b6000610ccb85828601610a17565b9250506020610cdc85828601610beb565b9150509250929050565b600060208284031215610cf857600080fd5b6000610d0684828501610b38565b91505092915050565b600060208284031215610d2157600080fd5b6000610d2f84828501610beb565b91505092915050565b600060208284031215610d4a57600080fd5b6000610d5884828501610c00565b91505092915050565b60008060008060808587031215610d7757600080fd5b6000610d8587828801610beb565b9450506020610d9687828801610beb565b935050604085013567ffffffffffffffff811115610db357600080fd5b610dbf87828801610a41565b925050606085013567ffffffffffffffff811115610ddc57600080fd5b610de887828801610ac4565b91505092959194509250565b610dfd816110b4565b82525050565b610e0c8161105a565b82525050565b6000610e1e838561104f565b9350610e2b8385846110ea565b82840190509392505050565b6000610e4282611033565b610e4c818561103e565b9350610e5c8185602086016110f9565b610e658161112c565b840191505092915050565b6000610e7b82611033565b610e85818561104f565b9350610e958185602086016110f9565b80840191505092915050565b610eaa816110aa565b82525050565b6000610ebd828486610e12565b91508190509392505050565b6000610ed58284610e70565b915081905092915050565b6000602082019050610ef56000830184610df4565b92915050565b6000604082019050610f106000830185610df4565b610f1d6020830184610ea1565b9392505050565b6000604082019050610f396000830185610e03565b610f466020830184610ea1565b9392505050565b60006020820190508181036000830152610f678184610e37565b905092915050565b6000602082019050610f846000830184610ea1565b92915050565b6000604051905081810181811067ffffffffffffffff82111715610fad57600080fd5b8060405250919050565b600067ffffffffffffffff821115610fce57600080fd5b602082029050602081019050919050565b600067ffffffffffffffff821115610ff657600080fd5b602082029050602081019050919050565b600067ffffffffffffffff82111561101e57600080fd5b601f19601f8301169050602081019050919050565b600081519050919050565b600082825260208201905092915050565b600081905092915050565b60006110658261108a565b9050919050565b60006110778261108a565b9050919050565b60008115159050919050565b600073ffffffffffffffffffffffffffffffffffffffff82169050919050565b6000819050919050565b60006110bf826110c6565b9050919050565b60006110d1826110d8565b9050919050565b60006110e38261108a565b9050919050565b82818337600083830152505050565b60005b838110156111175780820151818401526020810190506110fc565b83811115611126576000848401525b50505050565b6000601f19601f8301169050919050565b6111468161105a565b811461115157600080fd5b50565b61115d8161106c565b811461116857600080fd5b50565b6111748161107e565b811461117f57600080fd5b50565b61118b816110aa565b811461119657600080fd5b5056fea264697066735822122045e551849ac4f19fc4449e37dd3270c80107cacae5c882265e003b12b74b298364736f6c634300060c0033"
  }
}