{
  "opcodeHash": "0x423227d087ed300b0e8ec95cab28cc238f30b1c811a254e3acd2562691529fe6",
  "metalessHash": "0x72ec3da03cd32f6de902f59fdef06e56e63ac5ac277c7ceaea30c402c774fa38",
  "runtimeHash": "0x1508b0a17ea93134b13bde264e1b1285785e80b9d542ce3d4d1c82d5e0cf6034",
  "encodedMetadata": [
    {
      "ipfs": "/ipfs/QmQjJVVMXcMZm8wByuZDMy9Wgem72RbdUHn2tkLM4iBqz9",
      "solc": "0.7.4"
    }
  ],
  "abi": [
    {
      "inputs": [],
      "stateMutability": "nonpayable",
      "type": "constructor"
    },
    {
      "inputs": [],
      "name": "retrieve",
      "outputs": [
        {
          "internalType": "string",
          "name": "",
          "type": "string"
        }
      ],
      "stateMutability": "view",
      "type": "function"
    },
    {
      "inputs": [
        {
          "internalType": "string",
          "name": "mysvg",
          "type": "string"
        }
      ],
      "name": "store",
      "outputs": [],
      "stateMutability": "nonpayable",
      "type": "function"
    }
  ],
  "bytecode": {
    "object": "608060405234801561001057600080fd5b5033600160006101000a81548173ffffffffffffffffffffffffffffffffffffffff021916908373ffffffffffffffffffffffffffffffffffffffff160217905550610370806100616000396000f3fe608060405234801561001057600080fd5b50600436106100365760003560e01c8063131a06801461003b5780632e64cec1146100f6575b600080fd5b6100f46004803603602081101561005157600080fd5b810190808035906020019064010000000081111561006e57600080fd5b82018360208201111561008057600080fd5b803590602001918460018302840111640100000000831117156100a257600080fd5b91908080601f016020809104026020016040519081016040528093929190818152602001838380828437600081840152601f19601f820116905080830192505050505050509192919290505050610179565b005b6100fe6101ed565b6040518080602001828103825283818151815260200191508051906020019080838360005b8381101561013e578082015181840152602081019050610123565b50505050905090810190601f16801561016b5780820380516001836020036101000a031916815260200191505b509250505060405180910390f35b600160009054906101000a900473ffffffffffffffffffffffffffffffffffffffff1673ffffffffffffffffffffffffffffffffffffffff163373ffffffffffffffffffffffffffffffffffffffff16146101d357600080fd5b80600090805190602001906101e992919061028f565b5050565b606060008054600181600116156101000203166002900480601f0160208091040260200160405190810160405280929190818152602001828054600181600116156101000203166002900480156102855780601f1061025a57610100808354040283529160200191610285565b820191906000526020600020905b81548152906001019060200180831161026857829003601f168201915b5050505050905090565b828054600181600116156101000203166002900490600052602060002090601f0160209004810192826102c5576000855561030c565b82601f106102de57805160ff191683800117855561030c565b8280016001018555821561030c579182015b8281111561030b5782518255916020019190600101906102f0565b5b509050610319919061031d565b5090565b5b8082111561033657600081600090555060010161031e565b509056fea2646970667358221220eca218629386ca8c62392055afad7dfa054973f2cf2376198fe0618d3cfccda364736f6c63430007040033"
  }
}