{"compiler":"v0.6.12+commit.27d51765","opcodeHash":"0x62b52945e32cd759f2c310636035b9a901782207a88ba7e54839d7d209804278","metalessHash":"0xb45d9a0650dbb498f0f4b22eac97f206b3e1d7b0241aebf6c2b3def9fcb680c6","runtimeHash":"0xa7a91d57c1ee6ac621a368cc877fb6a64cd27d174ec0c415e9d5467506c985f3","encodedMetadata":[{"ipfs":"/ipfs/QmPR73Ja9VaEtRDTUXJXgM89SNrAVW6z1kcRmPqhTBioaH","solc":"0.6.12"}],"abi":[{"inputs":[{"internalType":"address","name":"_governance","type":"address"},{"internalType":"address","name":"_strategist","type":"address"},{"internalType":"address","name":"_controller","type":"address"}],"stateMutability":"nonpayable","type":"constructor"},{"inputs":[],"name":"balanceOf","outputs":[{"internalType":"uint256","name":"","type":"uint256"}],"stateMutability":"view","type":"function"},{"inputs":[],"name":"balanceOfPool","outputs":[{"internalType":"uint256","name":"","type":"uint256"}],"stateMutability":"view","type":"function"},{"inputs":[],"name":"balanceOfWant","outputs":[{"internalType":"uint256","name":"","type":"uint256"}],"stateMutability":"view","type":"function"},{"inputs":[],"name":"brine","outputs":[],"stateMutability":"nonpayable","type":"function"},{"inputs":[],"name":"burn","outputs":[{"internalType":"address","name":"","type":"address"}],"stateMutability":"view","type":"function"},{"inputs":[],"name":"burnFee","outputs":[{"internalType":"uint256","name":"","type":"uint256"}],"stateMutability":"view","type":"function"},{"inputs":[],"name":"burnMax","outputs":[{"internalType":"uint256","name":"","type":"uint256"}],"stateMutability":"view","type":"function"},{"inputs":[],"name":"controller","outputs":[{"internalType":"address","name":"","type":"address"}],"stateMutability":"view","type":"function"},{"inputs":[],"name":"deposit","outputs":[],"stateMutability":"nonpayable","type":"function"},{"inputs":[{"internalType":"address","name":"_target","type":"address"},{"internalType":"bytes","name":"_data","type":"bytes"}],"name":"execute","outputs":[{"internalType":"bytes","name":"response","type":"bytes"}],"stateMutability":"payable","type":"function"},{"inputs":[],"name":"getName","outputs":[{"internalType":"string","name":"","type":"string"}],"stateMutability":"pure","type":"function"},{"inputs":[],"name":"governance","outputs":[{"internalType":"address","name":"","type":"address"}],"stateMutability":"view","type":"function"},{"inputs":[],"name":"harvest","outputs":[],"stateMutability":"nonpayable","type":"function"},{"inputs":[],"name":"keepUNI","outputs":[{"internalType":"uint256","name":"","type":"uint256"}],"stateMutability":"view","type":"function"},{"inputs":[],"name":"keepUNIMax","outputs":[{"internalType":"uint256","name":"","type":"uint256"}],"stateMutability":"view","type":"function"},{"inputs":[],"name":"performanceFee","outputs":[{"internalType":"uint256","name":"","type":"uint256"}],"stateMutability":"view","type":"function"},{"inputs":[],"name":"performanceMax","outputs":[{"internalType":"uint256","name":"","type":"uint256"}],"stateMutability":"view","type":"function"},{"inputs":[],"name":"pickle","outputs":[{"internalType":"address","name":"","type":"address"}],"stateMutability":"view","type":"function"},{"inputs":[],"name":"rewards","outputs":[{"internalType":"address","name":"","type":"address"}],"stateMutability":"view","type":"function"},{"inputs":[{"internalType":"uint256","name":"_burnFee","type":"uint256"}],"name":"setBurnFee","outputs":[],"stateMutability":"nonpayable","type":"function"},{"inputs":[{"internalType":"address","name":"_controller","type":"address"}],"name":"setController","outputs":[],"stateMutability":"nonpayable","type":"function"},{"inputs":[{"internalType":"address","name":"_governance","type":"address"}],"name":"setGovernance","outputs":[],"stateMutability":"nonpayable","type":"function"},{"inputs":[{"internalType":"uint256","name":"_keepUNI","type":"uint256"}],"name":"setKeepUNI","outputs":[],"stateMutability":"nonpayable","type":"function"},{"inputs":[{"internalType":"uint256","name":"_performanceFee","type":"uint256"}],"name":"setPerformanceFee","outputs":[],"stateMutability":"nonpayable","type":"function"},{"inputs":[{"internalType":"address","name":"_strategist","type":"address"}],"name":"setStrategist","outputs":[],"stateMutability":"nonpayable","type":"function"},{"inputs":[{"internalType":"uint256","name":"_withdrawalFee","type":"uint256"}],"name":"setWithdrawalFee","outputs":[],"stateMutability":"nonpayable","type":"function"},{"inputs":[],"name":"strategist","outputs":[{"internalType":"address","name":"","type":"address"}],"stateMutability":"view","type":"function"},{"inputs":[],"name":"uni","outputs":[{"internalType":"address","name":"","type":"address"}],"stateMutability":"view","type":"function"},{"inputs":[],"name":"univ2Router2","outputs":[{"internalType":"address","name":"","type":"address"}],"stateMutability":"view","type":"function"},{"inputs":[],"name":"usdt","outputs":[{"internalType":"address","name":"","type":"address"}],"stateMutability":"view","type":"function"},{"inputs":[],"name":"want","outputs":[{"internalType":"address","name":"","type":"address"}],"stateMutability":"view","type":"function"},{"inputs":[],"name":"weth","outputs":[{"internalType":"address","name":"","type":"address"}],"stateMutability":"view","type":"function"},{"inputs":[{"internalType":"uint256","name":"_amount","type":"uint256"}],"name":"withdraw","outputs":[],"stateMutability":"nonpayable","type":"function"},{"inputs":[{"internalType":"contract IERC20","name":"_asset","type":"address"}],"name":"withdraw","outputs":[{"internalType":"uint256","name":"balance","type":"uint256"}],"stateMutability":"nonpayable","type":"function"},{"inputs":[],"name":"withdrawAll","outputs":[{"internalType":"uint256","name":"balance","type":"uint256"}],"stateMutability":"nonpayable","type":"function"},{"inputs":[],"name":"withdrawalFee","outputs":[{"internalType":"uint256","name":"","type":"uint256"}],"stateMutability":"view","type":"function"},{"inputs":[],"name":"withdrawalMax","outputs":[{"internalType":"uint256","name":"","type":"uint256"}],"stateMutability":"view","type":"function"}],"bytecode":{"object":"6080604052600080546001600160a01b031916737a250d5630b4cf539739df2c5dacb4c659f2488d17815560015561012c6002556096600355603260045534801561004957600080fd5b506040516129f13803806129f18339818101604052606081101561006c57600080fd5b5080516020820151604090920151600580546001600160a01b03199081166001600160a01b03948516179091556007805482169484169490941790935560068054909316911617905561292d806100c46000396000f3fe60806040526004361061021a5760003560e01c8063853828b611610123578063c7b9d530116100ab578063e0af073f1161006f578063e0af073f146106a7578063edc9af95146106bc578063f3887eee146106d1578063f77c4791146106e6578063fce589d8146106fb5761021a565b8063c7b9d53014610620578063d0e30db014610653578063d5c1ff731461021f578063d925c76e14610668578063dec456411461067d5761021a565b80639ec5a894116100f25780639ec5a89414610584578063ab033ea914610599578063ac1e5025146105cc578063b9e37489146105f6578063c1a3d44c1461060b5761021a565b8063853828b61461051257806387788782146105275780638bc7e8c41461053c57806392eefe9b146105515761021a565b806344df8e70116101a65780635aa6e675116101755780635aa6e675146104be5780635c131d701461021f57806370897b23146104d3578063722713f7146104fd5780637cc791131461021f5761021a565b806344df8e70146104375780634641257d1461044c5780634bf2c7c91461046157806351cff8d91461048b5761021a565b80631f1fcd51116101ed5780631f1fcd511461039b5780631fe4a686146103cc5780632e1a7d4d146103e15780632f48ab7d1461040d5780633fc8cef3146104225761021a565b80630afad5c41461021f578063115880861461024657806317d7de7c1461025b5780631cff79cd146102e5575b600080fd5b34801561022b57600080fd5b50610234610710565b60408051918252519081900360200190f35b34801561025257600080fd5b50610234610716565b34801561026757600080fd5b5061027061079c565b6040805160208082528351818301528351919283929083019185019080838360005b838110156102aa578181015183820152602001610292565b50505050905090810190601f1680156102d75780820380516001836020036101000a031916815260200191505b509250505060405180910390f35b610270600480360360408110156102fb57600080fd5b6001600160a01b03823516919081019060408101602082013564010000000081111561032657600080fd5b82018360208201111561033857600080fd5b8035906020019184600183028401116401000000008311171561035a57600080fd5b91908080601f0160208091040260200160405190810160405280939291908181526020018383808284376000920191909152509295506107cc945050505050565b3480156103a757600080fd5b506103b06108c6565b604080516001600160a01b039092168252519081900360200190f35b3480156103d857600080fd5b506103b06108d8565b3480156103ed57600080fd5b5061040b6004803603602081101561040457600080fd5b50356108e7565b005b34801561041957600080fd5b506103b0610b87565b34801561042e57600080fd5b506103b0610b9f565b34801561044357600080fd5b506103b0610bb1565b34801561045857600080fd5b5061040b610bb7565b34801561046d57600080fd5b5061040b6004803603602081101561048457600080fd5b503561164d565b34801561049757600080fd5b50610234600480360360208110156104ae57600080fd5b50356001600160a01b031661169f565b3480156104ca57600080fd5b506103b06117d8565b3480156104df57600080fd5b5061040b600480360360208110156104f657600080fd5b50356117e7565b34801561050957600080fd5b50610234611839565b34801561051e57600080fd5b50610234611859565b34801561053357600080fd5b50610234611a16565b34801561054857600080fd5b50610234611a1c565b34801561055d57600080fd5b5061040b6004803603602081101561057457600080fd5b50356001600160a01b0316611a22565b34801561059057600080fd5b506103b0611a91565b3480156105a557600080fd5b5061040b600480360360208110156105bc57600080fd5b50356001600160a01b0316611aa9565b3480156105d857600080fd5b5061040b600480360360208110156105ef57600080fd5b5035611b18565b34801561060257600080fd5b506103b0611b6a565b34801561061757600080fd5b50610234611b79565b34801561062c57600080fd5b5061040b6004803603602081101561064357600080fd5b50356001600160a01b0316611bc8565b34801561065f57600080fd5b5061040b611c37565b34801561067457600080fd5b50610234611deb565b34801561068957600080fd5b5061040b600480360360208110156106a057600080fd5b5035611df1565b3480156106b357600080fd5b5061040b611e43565b3480156106c857600080fd5b506103b0611e4d565b3480156106dd57600080fd5b506103b0611e65565b3480156106f257600080fd5b506103b0611e7d565b34801561070757600080fd5b50610234611e8c565b61271081565b604080516370a0823160e01b81523060048201529051600091736c3e4cb2e96b01f4b866965a91ed4437839a121a916370a0823191602480820192602092909190829003018186803b15801561076b57600080fd5b505afa15801561077f573d6000803e3d6000fd5b505050506040513d602081101561079557600080fd5b5051905090565b6040805180820190915260168152755374726174656779556e69457468557364744c70563160501b602082015290565b6007546060906001600160a01b03163314806107f257506005546001600160a01b031633145b610831576040805162461bcd60e51b815260206004820152600b60248201526a21676f7665726e616e636560a81b604482015290519081900360640190fd5b6001600160a01b038316610876576040805162461bcd60e51b8152602060048201526007602482015266085d185c99d95d60ca1b604482015290519081900360640190fd5b600080835160208501866113885a03f43d6040519250601f19601f6020830101168301604052808352806000602085013e8115600181146108b6576108bd565b8160208501fd5b50505092915050565b60008051602061285783398151915281565b6007546001600160a01b031681565b6006546001600160a01b03163314610934576040805162461bcd60e51b815260206004820152600b60248201526a10b1b7b73a3937b63632b960a91b604482015290519081900360640190fd5b604080516370a0823160e01b81523060048201529051600091600080516020612857833981519152916370a0823191602480820192602092909190829003018186803b15801561098357600080fd5b505afa158015610997573d6000803e3d6000fd5b505050506040513d60208110156109ad57600080fd5b50519050818110156109da576109cb6109c68383611e92565b611edd565b91506109d78282611f57565b91505b60006109fd6127106109f760045486611fb190919063ffffffff16565b9061200a565b9050610a92600660009054906101000a90046001600160a01b03166001600160a01b0316639ec5a8946040518163ffffffff1660e01b815260040160206040518083038186803b158015610a5057600080fd5b505afa158015610a64573d6000803e3d6000fd5b505050506040513d6020811015610a7a57600080fd5b5051600080516020612857833981519152908361204c565b60065460408051636535246160e11b8152600080516020612857833981519152600482015290516000926001600160a01b03169163ca6a48c2916024808301926020929190829003018186803b158015610aeb57600080fd5b505afa158015610aff573d6000803e3d6000fd5b505050506040513d6020811015610b1557600080fd5b505190506001600160a01b038116610b5d576040805162461bcd60e51b8152602060048083019190915260248201526310b530b960e11b604482015290519081900360640190fd5b610b8181610b6b8685611e92565b600080516020612857833981519152919061204c565b50505050565b73dac17f958d2ee523a2206206994597c13d831ec781565b60008051602061283783398151915281565b61dead81565b736c3e4cb2e96b01f4b866965a91ed4437839a121a6001600160a01b0316633d18b9126040518163ffffffff1660e01b8152600401600060405180830381600087803b158015610c0657600080fd5b505af1158015610c1a573d6000803e3d6000fd5b5050604080516370a0823160e01b8152306004820152905160009350731f9840a85d5af5bf1d1762f925bdaddc4201f98492506370a0823191602480820192602092909190829003018186803b158015610c7357600080fd5b505afa158015610c87573d6000803e3d6000fd5b505050506040513d6020811015610c9d57600080fd5b505190508015610d97576000610cc46127106109f760015485611fb190919063ffffffff16565b9050610d5f600660009054906101000a90046001600160a01b03166001600160a01b0316639ec5a8946040518163ffffffff1660e01b815260040160206040518083038186803b158015610d1757600080fd5b505afa158015610d2b573d6000803e3d6000fd5b505050506040513d6020811015610d4157600080fd5b5051731f9840a85d5af5bf1d1762f925bdaddc4201f984908361204c565b610d95731f9840a85d5af5bf1d1762f925bdaddc4201f984600080516020612837833981519152610d908585611e92565b6120a3565b505b604080516370a0823160e01b81523060048201529051600091600080516020612837833981519152916370a0823191602480820192602092909190829003018186803b158015610de657600080fd5b505afa158015610dfa573d6000803e3d6000fd5b505050506040513d6020811015610e1057600080fd5b505190508015610fac576000610e376127106109f760035485611fb190919063ffffffff16565b9050610e6660008051602061283783398151915273429881672b9ae42b8eba0e26cd9c73711b891ca5836120a3565b604080516370a0823160e01b8152306004820152905173429881672b9ae42b8eba0e26cd9c73711b891ca59163a9059cbb9161dead9184916370a0823191602480820192602092909190829003018186803b158015610ec457600080fd5b505afa158015610ed8573d6000803e3d6000fd5b505050506040513d6020811015610eee57600080fd5b5051604080516001600160e01b031960e086901b1681526001600160a01b03909316600484015260248301919091525160448083019260209291908290030181600087803b158015610f3f57600080fd5b505af1158015610f53573d6000803e3d6000fd5b505050506040513d6020811015610f6957600080fd5b50610f7690508282611e92565b9150610faa60008051602061283783398151915273dac17f958d2ee523a2206206994597c13d831ec7610d9085600261200a565b505b604080516370a0823160e01b81523060048201529051600080516020612837833981519152916370a08231916024808301926020929190829003018186803b158015610ff757600080fd5b505afa15801561100b573d6000803e3d6000fd5b505050506040513d602081101561102157600080fd5b5051604080516370a0823160e01b8152306004820152905191925060009173dac17f958d2ee523a2206206994597c13d831ec7916370a08231916024808301926020929190829003018186803b15801561107a57600080fd5b505afa15801561108e573d6000803e3d6000fd5b505050506040513d60208110156110a457600080fd5b5051905081158015906110b75750600081115b1561153a57600080546110e391600080516020612837833981519152916001600160a01b0316906123e1565b60005461110990600080516020612837833981519152906001600160a01b0316846123e1565b600080546040805163095ea7b360e01b81526001600160a01b039092166004830152602482018490525173dac17f958d2ee523a2206206994597c13d831ec79263095ea7b3926044808201939182900301818387803b15801561116b57600080fd5b505af115801561117f573d6000803e3d6000fd5b5050600080546040805162e8e33760e81b8152600080516020612837833981519152600482015273dac17f958d2ee523a2206206994597c13d831ec7602482015260448101889052606481018790526084810184905260a481018490523060c4820152603c420160e482015290516001600160a01b03909216945063e8e337009350610104808201936060939283900390910190829087803b15801561122457600080fd5b505af1158015611238573d6000803e3d6000fd5b505050506040513d606081101561124e57600080fd5b5050600654604080516327b16a2560e21b815290516000805160206128378339815191529263a9059cbb926001600160a01b0390911691639ec5a89491600480820192602092909190829003018186803b1580156112ab57600080fd5b505afa1580156112bf573d6000803e3d6000fd5b505050506040513d60208110156112d557600080fd5b5051604080516370a0823160e01b81523060048201529051600080516020612837833981519152916370a08231916024808301926020929190829003018186803b15801561132257600080fd5b505afa158015611336573d6000803e3d6000fd5b505050506040513d602081101561134c57600080fd5b5051604080516001600160e01b031960e086901b1681526001600160a01b03909316600484015260248301919091525160448083019260209291908290030181600087803b15801561139d57600080fd5b505af11580156113b1573d6000803e3d6000fd5b505050506040513d60208110156113c757600080fd5b5050600654604080516327b16a2560e21b8152905173dac17f958d2ee523a2206206994597c13d831ec79263a9059cbb926001600160a01b0390911691639ec5a89491600480820192602092909190829003018186803b15801561142a57600080fd5b505afa15801561143e573d6000803e3d6000fd5b505050506040513d602081101561145457600080fd5b5051604080516370a0823160e01b8152306004820152905173dac17f958d2ee523a2206206994597c13d831ec7916370a08231916024808301926020929190829003018186803b1580156114a757600080fd5b505afa1580156114bb573d6000803e3d6000fd5b505050506040513d60208110156114d157600080fd5b5051604080516001600160e01b031960e086901b1681526001600160a01b039093166004840152602483019190915251604480830192600092919082900301818387803b15801561152157600080fd5b505af1158015611535573d6000803e3d6000fd5b505050505b604080516370a0823160e01b81523060048201529051600091600080516020612857833981519152916370a0823191602480820192602092909190829003018186803b15801561158957600080fd5b505afa15801561159d573d6000803e3d6000fd5b505050506040513d60208110156115b357600080fd5b505190508015610b8157600654604080516327b16a2560e21b81529051611645926001600160a01b031691639ec5a894916004808301926020929190829003018186803b15801561160357600080fd5b505afa158015611617573d6000803e3d6000fd5b505050506040513d602081101561162d57600080fd5b5051600254610b6b90612710906109f7908690611fb1565b610b81611c37565b6005546001600160a01b0316331461169a576040805162461bcd60e51b815260206004820152600b60248201526a21676f7665726e616e636560a81b604482015290519081900360640190fd5b600355565b6006546000906001600160a01b031633146116ef576040805162461bcd60e51b815260206004820152600b60248201526a10b1b7b73a3937b63632b960a91b604482015290519081900360640190fd5b6000805160206128578339815191526001600160a01b0383161415611744576040805162461bcd60e51b815260206004808301919091526024820152631dd85b9d60e21b604482015290519081900360640190fd5b604080516370a0823160e01b815230600482015290516001600160a01b038416916370a08231916024808301926020929190829003018186803b15801561178a57600080fd5b505afa15801561179e573d6000803e3d6000fd5b505050506040513d60208110156117b457600080fd5b50516006549091506117d3906001600160a01b0384811691168361204c565b919050565b6005546001600160a01b031681565b6005546001600160a01b03163314611834576040805162461bcd60e51b815260206004820152600b60248201526a21676f7665726e616e636560a81b604482015290519081900360640190fd5b600255565b6000611854611846610716565b61184e611b79565b90611f57565b905090565b6006546000906001600160a01b031633146118a9576040805162461bcd60e51b815260206004820152600b60248201526a10b1b7b73a3937b63632b960a91b604482015290519081900360640190fd5b6118b16124f4565b604080516370a0823160e01b81523060048201529051600080516020612857833981519152916370a08231916024808301926020929190829003018186803b1580156118fc57600080fd5b505afa158015611910573d6000803e3d6000fd5b505050506040513d602081101561192657600080fd5b505160065460408051636535246160e11b8152600080516020612857833981519152600482015290519293506000926001600160a01b039092169163ca6a48c291602480820192602092909190829003018186803b15801561198757600080fd5b505afa15801561199b573d6000803e3d6000fd5b505050506040513d60208110156119b157600080fd5b505190506001600160a01b0381166119f9576040805162461bcd60e51b8152602060048083019190915260248201526310b530b960e11b604482015290519081900360640190fd5b611a12600080516020612857833981519152828461204c565b5090565b60025481565b60045481565b6005546001600160a01b03163314611a6f576040805162461bcd60e51b815260206004820152600b60248201526a21676f7665726e616e636560a81b604482015290519081900360640190fd5b600680546001600160a01b0319166001600160a01b0392909216919091179055565b736c3e4cb2e96b01f4b866965a91ed4437839a121a81565b6005546001600160a01b03163314611af6576040805162461bcd60e51b815260206004820152600b60248201526a21676f7665726e616e636560a81b604482015290519081900360640190fd5b600580546001600160a01b0319166001600160a01b0392909216919091179055565b6005546001600160a01b03163314611b65576040805162461bcd60e51b815260206004820152600b60248201526a21676f7665726e616e636560a81b604482015290519081900360640190fd5b600455565b6000546001600160a01b031681565b604080516370a0823160e01b81523060048201529051600091600080516020612857833981519152916370a0823191602480820192602092909190829003018186803b15801561076b57600080fd5b6005546001600160a01b03163314611c15576040805162461bcd60e51b815260206004820152600b60248201526a21676f7665726e616e636560a81b604482015290519081900360640190fd5b600780546001600160a01b0319166001600160a01b0392909216919091179055565b604080516370a0823160e01b81523060048201529051600091600080516020612857833981519152916370a0823191602480820192602092909190829003018186803b158015611c8657600080fd5b505afa158015611c9a573d6000803e3d6000fd5b505050506040513d6020811015611cb057600080fd5b505190508015611de857611ce8600080516020612857833981519152736c3e4cb2e96b01f4b866965a91ed4437839a121a60006123e1565b6040805163095ea7b360e01b8152736c3e4cb2e96b01f4b866965a91ed4437839a121a60048201526024810183905290516000805160206128578339815191529163095ea7b39160448083019260209291908290030181600087803b158015611d5057600080fd5b505af1158015611d64573d6000803e3d6000fd5b505050506040513d6020811015611d7a57600080fd5b50506040805163534a7e1d60e11b8152600481018390529051736c3e4cb2e96b01f4b866965a91ed4437839a121a9163a694fc3a91602480830192600092919082900301818387803b158015611dcf57600080fd5b505af1158015611de3573d6000803e3d6000fd5b505050505b50565b60015481565b6005546001600160a01b03163314611e3e576040805162461bcd60e51b815260206004820152600b60248201526a21676f7665726e616e636560a81b604482015290519081900360640190fd5b600155565b611e4b610bb7565b565b731f9840a85d5af5bf1d1762f925bdaddc4201f98481565b73429881672b9ae42b8eba0e26cd9c73711b891ca581565b6006546001600160a01b031681565b60035481565b6000611ed483836040518060400160405280601e81526020017f536166654d6174683a207375627472616374696f6e206f766572666c6f7700008152506124ff565b90505b92915050565b6000736c3e4cb2e96b01f4b866965a91ed4437839a121a6001600160a01b0316632e1a7d4d836040518263ffffffff1660e01b815260040180828152602001915050600060405180830381600087803b158015611f3957600080fd5b505af1158015611f4d573d6000803e3d6000fd5b5093949350505050565b600082820183811015611ed4576040805162461bcd60e51b815260206004820152601b60248201527f536166654d6174683a206164646974696f6e206f766572666c6f770000000000604482015290519081900360640190fd5b600082611fc057506000611ed7565b82820282848281611fcd57fe5b0414611ed45760405162461bcd60e51b81526004018080602001828103825260218152602001806128776021913960400191505060405180910390fd5b6000611ed483836040518060400160405280601a81526020017f536166654d6174683a206469766973696f6e206279207a65726f000000000000815250612596565b604080516001600160a01b038416602482015260448082018490528251808303909101815260649091019091526020810180516001600160e01b031663a9059cbb60e01b17905261209e9084906125fb565b505050565b600080546120be916001600160a01b038681169216906123e1565b6000546120d8906001600160a01b038581169116836123e1565b60606001600160a01b038416600080516020612837833981519152148061211557506001600160a01b038316600080516020612837833981519152145b1561219b576040805160028082526060820183529091602083019080368337019050509050838160008151811061214857fe5b60200260200101906001600160a01b031690816001600160a01b031681525050828160018151811061217657fe5b60200260200101906001600160a01b031690816001600160a01b031681525050612255565b60408051600380825260808201909252906020820160608036833701905050905083816000815181106121ca57fe5b60200260200101906001600160a01b031690816001600160a01b0316815250506000805160206128378339815191528160018151811061220657fe5b60200260200101906001600160a01b031690816001600160a01b031681525050828160028151811061223457fe5b60200260200101906001600160a01b031690816001600160a01b0316815250505b600080546001600160a01b0316906338ed1739908490843061227842603c611f57565b6040518663ffffffff1660e01b81526004018086815260200185815260200180602001846001600160a01b03168152602001838152602001828103825285818151815260200191508051906020019060200280838360005b838110156122e85781810151838201526020016122d0565b505050509050019650505050505050600060405180830381600087803b15801561231157600080fd5b505af1158015612325573d6000803e3d6000fd5b505050506040513d6000823e601f3d908101601f19168201604052602081101561234e57600080fd5b810190808051604051939291908464010000000082111561236e57600080fd5b90830190602082018581111561238357600080fd5b82518660208202830111640100000000821117156123a057600080fd5b82525081516020918201928201910280838360005b838110156123cd5781810151838201526020016123b5565b505050509050016040525050505050505050565b801580612467575060408051636eb1769f60e11b81523060048201526001600160a01b03848116602483015291519185169163dd62ed3e91604480820192602092909190829003018186803b15801561243957600080fd5b505afa15801561244d573d6000803e3d6000fd5b505050506040513d602081101561246357600080fd5b5051155b6124a25760405162461bcd60e51b81526004018080602001828103825260368152602001806128c26036913960400191505060405180910390fd5b604080516001600160a01b038416602482015260448082018490528251808303909101815260649091019091526020810180516001600160e01b031663095ea7b360e01b17905261209e9084906125fb565b611de86109c6610716565b6000818484111561258e5760405162461bcd60e51b81526004018080602001828103825283818151815260200191508051906020019080838360005b8381101561255357818101518382015260200161253b565b50505050905090810190601f1680156125805780820380516001836020036101000a031916815260200191505b509250505060405180910390fd5b505050900390565b600081836125e55760405162461bcd60e51b815260206004820181815283516024840152835190928392604490910191908501908083836000831561255357818101518382015260200161253b565b5060008385816125f157fe5b0495945050505050565b6060612650826040518060400160405280602081526020017f5361666545524332303a206c6f772d6c6576656c2063616c6c206661696c6564815250856001600160a01b03166126ac9092919063ffffffff16565b80519091501561209e5780806020019051602081101561266f57600080fd5b505161209e5760405162461bcd60e51b815260040180806020018281038252602a815260200180612898602a913960400191505060405180910390fd5b60606126bb84846000856126c3565b949350505050565b60606126ce85612830565b61271f576040805162461bcd60e51b815260206004820152601d60248201527f416464726573733a2063616c6c20746f206e6f6e2d636f6e7472616374000000604482015290519081900360640190fd5b60006060866001600160a01b031685876040518082805190602001908083835b6020831061275e5780518252601f19909201916020918201910161273f565b6001836020036101000a03801982511681845116808217855250505050505090500191505060006040518083038185875af1925050503d80600081146127c0576040519150601f19603f3d011682016040523d82523d6000602084013e6127c5565b606091505b509150915081156127d95791506126bb9050565b8051156127e95780518082602001fd5b60405162461bcd60e51b815260206004820181815286516024840152865187939192839260440191908501908083836000831561255357818101518382015260200161253b565b3b15159056fe000000000000000000000000c02aaa39b223fe8d0a0e5c4f27ead9083c756cc20000000000000000000000000d4a11d5eeaac28ec3f61d100daf4d40471f1852536166654d6174683a206d756c7469706c69636174696f6e206f766572666c6f775361666545524332303a204552433230206f7065726174696f6e20646964206e6f7420737563636565645361666545524332303a20617070726f76652066726f6d206e6f6e2d7a65726f20746f206e6f6e2d7a65726f20616c6c6f77616e6365a26469706673582212201c4e00d4507183bff7f64605e1d88c2e651935221e0efa34c77cb427a637025f64736f6c634300060c0033"}}