{
  "opcodeHash": "0x01305a8ab2d491d826a6761f4bfe1ed23672ec7e0d31a737316c5721f9b0c9d6",
  "metalessHash": "0x6b3c18ffc168456d8cadf6f9bb74443852143defd937bf226660a47b71fece50",
  "runtimeHash": "0xaa347deb8f166eeabc6495523711d7da6ab7702f0017b0ce8e93410ce25ecdf7",
  "encodedMetadata": [
    {
      "ipfs": "/ipfs/Qmc2GnDeM3U5LbMkY1jcB1pcuCKebfJAW7c2QB9awX2eQ9",
      "solc": "0.8.9"
    }
  ],
  "abi": [
    {
      "inputs": [],
      "stateMutability": "payable",
      "type": "constructor"
    },
    {
      "anonymous": false,
      "inputs": [
        {
          "indexed": true,
          "internalType": "address",
          "name": "owner",
          "type": "address"
        },
        {
          "indexed": true,
          "internalType": "address",
          "name": "spender",
          "type": "address"
        },
        {
          "indexed": false,
          "internalType": "uint256",
          "name": "value",
          "type": "uint256"
        }
      ],
      "name": "Approval",
      "type": "event"
    },
    {
      "anonymous": false,
      "inputs": [
        {
          "indexed": true,
          "internalType": "address",
          "name": "sniper",
          "type": "address"
        }
      ],
      "name": "BoughtEarly",
      "type": "event"
    },
    {
      "anonymous": false,
      "inputs": [
        {
          "indexed": false,
          "internalType": "address",
          "name": "excludedAddress",
          "type": "address"
        }
      ],
      "name": "ExcludeFromFee",
      "type": "event"
    },
    {
      "anonymous": false,
      "inputs": [
        {
          "indexed": false,
          "internalType": "address",
          "name": "excludedAddress",
          "type": "address"
        }
      ],
      "name": "ExcludeFromReward",
      "type": "event"
    },
    {
      "anonymous": false,
      "inputs": [
        {
          "indexed": false,
          "internalType": "address",
          "name": "includedAddress",
          "type": "address"
        }
      ],
      "name": "IncludeInFee",
      "type": "event"
    },
    {
      "anonymous": false,
      "inputs": [
        {
          "indexed": false,
          "internalType": "address",
          "name": "includedAddress",
          "type": "address"
        }
      ],
      "name": "IncludeInReward",
      "type": "event"
    },
    {
      "anonymous": false,
      "inputs": [
        {
          "indexed": false,
          "internalType": "uint256",
          "name": "timestamp",
          "type": "uint256"
        }
      ],
      "name": "OwnerForcedSwapBack",
      "type": "event"
    },
    {
      "anonymous": false,
      "inputs": [
        {
          "indexed": true,
          "internalType": "address",
          "name": "previousOwner",
          "type": "address"
        },
        {
          "indexed": true,
          "internalType": "address",
          "name": "newOwner",
          "type": "address"
        }
      ],
      "name": "OwnershipTransferred",
      "type": "event"
    },
    {
      "anonymous": false,
      "inputs": [
        {
          "indexed": true,
          "internalType": "address",
          "name": "notsnipersupposedly",
          "type": "address"
        }
      ],
      "name": "RemovedSniper",
      "type": "event"
    },
    {
      "anonymous": false,
      "inputs": [
        {
          "indexed": false,
          "internalType": "address",
          "name": "pair",
          "type": "address"
        },
        {
          "indexed": false,
          "internalType": "bool",
          "name": "value",
          "type": "bool"
        }
      ],
      "name": "SetAutomatedMarketMakerPair",
      "type": "event"
    },
    {
      "anonymous": false,
      "inputs": [
        {
          "indexed": false,
          "internalType": "uint256",
          "name": "marketingFee",
          "type": "uint256"
        },
        {
          "indexed": false,
          "internalType": "uint256",
          "name": "liquidityFee",
          "type": "uint256"
        },
        {
          "indexed": false,
          "internalType": "uint256",
          "name": "reflectFee",
          "type": "uint256"
        }
      ],
      "name": "SetBuyFee",
      "type": "event"
    },
    {
      "anonymous": false,
      "inputs": [
        {
          "indexed": false,
          "internalType": "uint256",
          "name": "marketingFee",
          "type": "uint256"
        },
        {
          "indexed": false,
          "internalType": "uint256",
          "name": "liquidityFee",
          "type": "uint256"
        },
        {
          "indexed": false,
          "internalType": "uint256",
          "name": "reflectFee",
          "type": "uint256"
        }
      ],
      "name": "SetSellFee",
      "type": "event"
    },
    {
      "anonymous": false,
      "inputs": [
        {
          "indexed": false,
          "internalType": "uint256",
          "name": "tokensSwapped",
          "type": "uint256"
        },
        {
          "indexed": false,
          "internalType": "uint256",
          "name": "ethReceived",
          "type": "uint256"
        },
        {
          "indexed": false,
          "internalType": "uint256",
          "name": "tokensIntoLiquidity",
          "type": "uint256"
        }
      ],
      "name": "SwapAndLiquify",
      "type": "event"
    },
    {
      "anonymous": false,
      "inputs": [
        {
          "indexed": false,
          "internalType": "bool",
          "name": "enabled",
          "type": "bool"
        }
      ],
      "name": "SwapAndLiquifyEnabledUpdated",
      "type": "event"
    },
    {
      "anonymous": false,
      "inputs": [
        {
          "indexed": false,
          "internalType": "uint256",
          "name": "amountIn",
          "type": "uint256"
        },
        {
          "indexed": false,
          "internalType": "address[]",
          "name": "path",
          "type": "address[]"
        }
      ],
      "name": "SwapETHForTokens",
      "type": "event"
    },
    {
      "anonymous": false,
      "inputs": [
        {
          "indexed": false,
          "internalType": "uint256",
          "name": "amountIn",
          "type": "uint256"
        },
        {
          "indexed": false,
          "internalType": "address[]",
          "name": "path",
          "type": "address[]"
        }
      ],
      "name": "SwapTokensForETH",
      "type": "event"
    },
    {
      "anonymous": false,
      "inputs": [
        {
          "indexed": true,
          "internalType": "address",
          "name": "from",
          "type": "address"
        },
        {
          "indexed": true,
          "internalType": "address",
          "name": "to",
          "type": "address"
        },
        {
          "indexed": false,
          "internalType": "uint256",
          "name": "value",
          "type": "uint256"
        }
      ],
      "name": "Transfer",
      "type": "event"
    },
    {
      "anonymous": false,
      "inputs": [
        {
          "indexed": false,
          "internalType": "address",
          "name": "token",
          "type": "address"
        },
        {
          "indexed": false,
          "internalType": "uint256",
          "name": "amount",
          "type": "uint256"
        }
      ],
      "name": "TransferForeignToken",
      "type": "event"
    },
    {
      "anonymous": false,
      "inputs": [
        {
          "indexed": false,
          "internalType": "address",
          "name": "liquidity",
          "type": "address"
        }
      ],
      "name": "UpdatedLiquidityAddress",
      "type": "event"
    },
    {
      "anonymous": false,
      "inputs": [
        {
          "indexed": false,
          "internalType": "address",
          "name": "marketing",
          "type": "address"
        }
      ],
      "name": "UpdatedMarketingAddress",
      "type": "event"
    },
    {
      "inputs": [],
      "name": "_buyLiquidityFee",
      "outputs": [
        {
          "internalType": "uint256",
          "name": "",
          "type": "uint256"
        }
      ],
      "stateMutability": "view",
      "type": "function"
    },
    {
      "inputs": [],
      "name": "_buyMarketingFee",
      "outputs": [
        {
          "internalType": "uint256",
          "name": "",
          "type": "uint256"
        }
      ],
      "stateMutability": "view",
      "type": "function"
    },
    {
      "inputs": [],
      "name": "_buyTaxFee",
      "outputs": [
        {
          "internalType": "uint256",
          "name": "",
          "type": "uint256"
        }
      ],
      "stateMutability": "view",
      "type": "function"
    },
    {
      "inputs": [
        {
          "internalType": "address",
          "name": "",
          "type": "address"
        }
      ],
      "name": "_isExcludedMaxTransactionAmount",
      "outputs": [
        {
          "internalType": "bool",
          "name": "",
          "type": "bool"
        }
      ],
      "stateMutability": "view",
      "type": "function"
    },
    {
      "inputs": [],
      "name": "_liquidityTokensToSwap",
      "outputs": [
        {
          "internalType": "uint256",
          "name": "",
          "type": "uint256"
        }
      ],
      "stateMutability": "view",
      "type": "function"
    },
    {
      "inputs": [],
      "name": "_marketingTokensToSwap",
      "outputs": [
        {
          "internalType": "uint256",
          "name": "",
          "type": "uint256"
        }
      ],
      "stateMutability": "view",
      "type": "function"
    },
    {
      "inputs": [],
      "name": "_sellLiquidityFee",
      "outputs": [
        {
          "internalType": "uint256",
          "name": "",
          "type": "uint256"
        }
      ],
      "stateMutability": "view",
      "type": "function"
    },
    {
      "inputs": [],
      "name": "_sellMarketingFee",
      "outputs": [
        {
          "internalType": "uint256",
          "name": "",
          "type": "uint256"
        }
      ],
      "stateMutability": "view",
      "type": "function"
    },
    {
      "inputs": [],
      "name": "_sellTaxFee",
      "outputs": [
        {
          "internalType": "uint256",
          "name": "",
          "type": "uint256"
        }
      ],
      "stateMutability": "view",
      "type": "function"
    },
    {
      "inputs": [
        {
          "internalType": "address",
          "name": "owner",
          "type": "address"
        },
        {
          "internalType": "address",
          "name": "spender",
          "type": "address"
        }
      ],
      "name": "allowance",
      "outputs": [
        {
          "internalType": "uint256",
          "name": "",
          "type": "uint256"
        }
      ],
      "stateMutability": "view",
      "type": "function"
    },
    {
      "inputs": [
        {
          "internalType": "address",
          "name": "spender",
          "type": "address"
        },
        {
          "internalType": "uint256",
          "name": "amount",
          "type": "uint256"
        }
      ],
      "name": "approve",
      "outputs": [
        {
          "internalType": "bool",
          "name": "",
          "type": "bool"
        }
      ],
      "stateMutability": "nonpayable",
      "type": "function"
    },
    {
      "inputs": [
        {
          "internalType": "address",
          "name": "",
          "type": "address"
        }
      ],
      "name": "automatedMarketMakerPairs",
      "outputs": [
        {
          "internalType": "bool",
          "name": "",
          "type": "bool"
        }
      ],
      "stateMutability": "view",
      "type": "function"
    },
    {
      "inputs": [
        {
          "internalType": "address",
          "name": "account",
          "type": "address"
        }
      ],
      "name": "balanceOf",
      "outputs": [
        {
          "internalType": "uint256",
          "name": "",
          "type": "uint256"
        }
      ],
      "stateMutability": "view",
      "type": "function"
    },
    {
      "inputs": [
        {
          "internalType": "address",
          "name": "",
          "type": "address"
        }
      ],
      "name": "boughtEarly",
      "outputs": [
        {
          "internalType": "bool",
          "name": "",
          "type": "bool"
        }
      ],
      "stateMutability": "view",
      "type": "function"
    },
    {
      "inputs": [],
      "name": "decimals",
      "outputs": [
        {
          "internalType": "uint8",
          "name": "",
          "type": "uint8"
        }
      ],
      "stateMutability": "pure",
      "type": "function"
    },
    {
      "inputs": [
        {
          "internalType": "address",
          "name": "spender",
          "type": "address"
        },
        {
          "internalType": "uint256",
          "name": "subtractedValue",
          "type": "uint256"
        }
      ],
      "name": "decreaseAllowance",
      "outputs": [
        {
          "internalType": "bool",
          "name": "",
          "type": "bool"
        }
      ],
      "stateMutability": "nonpayable",
      "type": "function"
    },
    {
      "inputs": [],
      "name": "devAddress",
      "outputs": [
        {
          "internalType": "address payable",
          "name": "",
          "type": "address"
        }
      ],
      "stateMutability": "view",
      "type": "function"
    },
    {
      "inputs": [],
      "name": "disableTransferDelay",
      "outputs": [
        {
          "internalType": "bool",
          "name": "",
          "type": "bool"
        }
      ],
      "stateMutability": "nonpayable",
      "type": "function"
    },
    {
      "inputs": [],
      "name": "earlyBuyPenaltyEnd",
      "outputs": [
        {
          "internalType": "uint256",
          "name": "",
          "type": "uint256"
        }
      ],
      "stateMutability": "view",
      "type": "function"
    },
    {
      "inputs": [
        {
          "internalType": "address",
          "name": "account",
          "type": "address"
        }
      ],
      "name": "excludeFromFee",
      "outputs": [],
      "stateMutability": "nonpayable",
      "type": "function"
    },
    {
      "inputs": [
        {
          "internalType": "address",
          "name": "updAds",
          "type": "address"
        },
        {
          "internalType": "bool",
          "name": "isEx",
          "type": "bool"
        }
      ],
      "name": "excludeFromMaxTransaction",
      "outputs": [],
      "stateMutability": "nonpayable",
      "type": "function"
    },
    {
      "inputs": [
        {
          "internalType": "address",
          "name": "account",
          "type": "address"
        }
      ],
      "name": "excludeFromReward",
      "outputs": [],
      "stateMutability": "nonpayable",
      "type": "function"
    },
    {
      "inputs": [],
      "name": "forceSwapBack",
      "outputs": [],
      "stateMutability": "nonpayable",
      "type": "function"
    },
    {
      "inputs": [],
      "name": "getTime",
      "outputs": [
        {
          "internalType": "uint256",
          "name": "",
          "type": "uint256"
        }
      ],
      "stateMutability": "view",
      "type": "function"
    },
    {
      "inputs": [],
      "name": "getUnlockTime",
      "outputs": [
        {
          "internalType": "uint256",
          "name": "",
          "type": "uint256"
        }
      ],
      "stateMutability": "view",
      "type": "function"
    },
    {
      "inputs": [
        {
          "internalType": "address",
          "name": "account",
          "type": "address"
        }
      ],
      "name": "includeInFee",
      "outputs": [],
      "stateMutability": "nonpayable",
      "type": "function"
    },
    {
      "inputs": [
        {
          "internalType": "address",
          "name": "account",
          "type": "address"
        }
      ],
      "name": "includeInReward",
      "outputs": [],
      "stateMutability": "nonpayable",
      "type": "function"
    },
    {
      "inputs": [
        {
          "internalType": "address",
          "name": "spender",
          "type": "address"
        },
        {
          "internalType": "uint256",
          "name": "addedValue",
          "type": "uint256"
        }
      ],
      "name": "increaseAllowance",
      "outputs": [
        {
          "internalType": "bool",
          "name": "",
          "type": "bool"
        }
      ],
      "stateMutability": "nonpayable",
      "type": "function"
    },
    {
      "inputs": [
        {
          "internalType": "address",
          "name": "account",
          "type": "address"
        }
      ],
      "name": "isExcludedFromFee",
      "outputs": [
        {
          "internalType": "bool",
          "name": "",
          "type": "bool"
        }
      ],
      "stateMutability": "view",
      "type": "function"
    },
    {
      "inputs": [
        {
          "internalType": "address",
          "name": "account",
          "type": "address"
        }
      ],
      "name": "isExcludedFromReward",
      "outputs": [
        {
          "internalType": "bool",
          "name": "",
          "type": "bool"
        }
      ],
      "stateMutability": "view",
      "type": "function"
    },
    {
      "inputs": [],
      "name": "launch",
      "outputs": [
        {
          "internalType": "bool",
          "name": "",
          "type": "bool"
        }
      ],
      "stateMutability": "nonpayable",
      "type": "function"
    },
    {
      "inputs": [],
      "name": "limitsInEffect",
      "outputs": [
        {
          "internalType": "bool",
          "name": "",
          "type": "bool"
        }
      ],
      "stateMutability": "view",
      "type": "function"
    },
    {
      "inputs": [],
      "name": "liquidityAddress",
      "outputs": [
        {
          "internalType": "address payable",
          "name": "",
          "type": "address"
        }
      ],
      "stateMutability": "view",
      "type": "function"
    },
    {
      "inputs": [],
      "name": "marketingAddress",
      "outputs": [
        {
          "internalType": "address payable",
          "name": "",
          "type": "address"
        }
      ],
      "stateMutability": "view",
      "type": "function"
    },
    {
      "inputs": [],
      "name": "maxTransactionAmount",
      "outputs": [
        {
          "internalType": "uint256",
          "name": "",
          "type": "uint256"
        }
      ],
      "stateMutability": "view",
      "type": "function"
    },
    {
      "inputs": [],
      "name": "maxWalletAmount",
      "outputs": [
        {
          "internalType": "uint256",
          "name": "",
          "type": "uint256"
        }
      ],
      "stateMutability": "view",
      "type": "function"
    },
    {
      "inputs": [],
      "name": "minimumTokensBeforeSwapAmount",
      "outputs": [
        {
          "internalType": "uint256",
          "name": "",
          "type": "uint256"
        }
      ],
      "stateMutability": "view",
      "type": "function"
    },
    {
      "inputs": [],
      "name": "name",
      "outputs": [
        {
          "internalType": "string",
          "name": "",
          "type": "string"
        }
      ],
      "stateMutability": "pure",
      "type": "function"
    },
    {
      "inputs": [],
      "name": "owner",
      "outputs": [
        {
          "internalType": "address",
          "name": "",
          "type": "address"
        }
      ],
      "stateMutability": "view",
      "type": "function"
    },
    {
      "inputs": [
        {
          "internalType": "uint256",
          "name": "tAmount",
          "type": "uint256"
        },
        {
          "internalType": "bool",
          "name": "deductTransferFee",
          "type": "bool"
        }
      ],
      "name": "reflectionFromToken",
      "outputs": [
        {
          "internalType": "uint256",
          "name": "",
          "type": "uint256"
        }
      ],
      "stateMutability": "view",
      "type": "function"
    },
    {
      "inputs": [
        {
          "internalType": "address",
          "name": "account",
          "type": "address"
        }
      ],
      "name": "removeBoughtEarly",
      "outputs": [],
      "stateMutability": "nonpayable",
      "type": "function"
    },
    {
      "inputs": [],
      "name": "removeLimits",
      "outputs": [
        {
          "internalType": "bool",
          "name": "",
          "type": "bool"
        }
      ],
      "stateMutability": "nonpayable",
      "type": "function"
    },
    {
      "inputs": [],
      "name": "renounceOwnership",
      "outputs": [],
      "stateMutability": "nonpayable",
      "type": "function"
    },
    {
      "inputs": [
        {
          "internalType": "address",
          "name": "pair",
          "type": "address"
        },
        {
          "internalType": "bool",
          "name": "value",
          "type": "bool"
        }
      ],
      "name": "setAutomatedMarketMakerPair",
      "outputs": [],
      "stateMutability": "nonpayable",
      "type": "function"
    },
    {
      "inputs": [
        {
          "internalType": "uint256",
          "name": "buyTaxFee",
          "type": "uint256"
        },
        {
          "internalType": "uint256",
          "name": "buyLiquidityFee",
          "type": "uint256"
        },
        {
          "internalType": "uint256",
          "name": "buyMarketingFee",
          "type": "uint256"
        }
      ],
      "name": "setBuyFee",
      "outputs": [],
      "stateMutability": "nonpayable",
      "type": "function"
    },
    {
      "inputs": [
        {
          "internalType": "uint256",
          "name": "gas",
          "type": "uint256"
        }
      ],
      "name": "setGasPriceLimit",
      "outputs": [],
      "stateMutability": "nonpayable",
      "type": "function"
    },
    {
      "inputs": [
        {
          "internalType": "address",
          "name": "_liquidityAddress",
          "type": "address"
        }
      ],
      "name": "setLiquidityAddress",
      "outputs": [],
      "stateMutability": "nonpayable",
      "type": "function"
    },
    {
      "inputs": [
        {
          "internalType": "address",
          "name": "_marketingAddress",
          "type": "address"
        }
      ],
      "name": "setMarketingAddress",
      "outputs": [],
      "stateMutability": "nonpayable",
      "type": "function"
    },
    {
      "inputs": [
        {
          "internalType": "uint256",
          "name": "sellTaxFee",
          "type": "uint256"
        },
        {
          "internalType": "uint256",
          "name": "sellLiquidityFee",
          "type": "uint256"
        },
        {
          "internalType": "uint256",
          "name": "sellMarketingFee",
          "type": "uint256"
        }
      ],
      "name": "setSellFee",
      "outputs": [],
      "stateMutability": "nonpayable",
      "type": "function"
    },
    {
      "inputs": [
        {
          "internalType": "bool",
          "name": "_enabled",
          "type": "bool"
        }
      ],
      "name": "setSwapAndLiquifyEnabled",
      "outputs": [],
      "stateMutability": "nonpayable",
      "type": "function"
    },
    {
      "inputs": [],
      "name": "swapAndLiquifyEnabled",
      "outputs": [
        {
          "internalType": "bool",
          "name": "",
          "type": "bool"
        }
      ],
      "stateMutability": "view",
      "type": "function"
    },
    {
      "inputs": [],
      "name": "symbol",
      "outputs": [
        {
          "internalType": "string",
          "name": "",
          "type": "string"
        }
      ],
      "stateMutability": "pure",
      "type": "function"
    },
    {
      "inputs": [
        {
          "internalType": "uint256",
          "name": "rAmount",
          "type": "uint256"
        }
      ],
      "name": "tokenFromReflection",
      "outputs": [
        {
          "internalType": "uint256",
          "name": "",
          "type": "uint256"
        }
      ],
      "stateMutability": "view",
      "type": "function"
    },
    {
      "inputs": [],
      "name": "totalFees",
      "outputs": [
        {
          "internalType": "uint256",
          "name": "",
          "type": "uint256"
        }
      ],
      "stateMutability": "view",
      "type": "function"
    },
    {
      "inputs": [],
      "name": "totalSupply",
      "outputs": [
        {
          "internalType": "uint256",
          "name": "",
          "type": "uint256"
        }
      ],
      "stateMutability": "pure",
      "type": "function"
    },
    {
      "inputs": [],
      "name": "tradingActive",
      "outputs": [
        {
          "internalType": "bool",
          "name": "",
          "type": "bool"
        }
      ],
      "stateMutability": "view",
      "type": "function"
    },
    {
      "inputs": [],
      "name": "tradingActiveBlock",
      "outputs": [
        {
          "internalType": "uint256",
          "name": "",
          "type": "uint256"
        }
      ],
      "stateMutability": "view",
      "type": "function"
    },
    {
      "inputs": [
        {
          "internalType": "address",
          "name": "recipient",
          "type": "address"
        },
        {
          "internalType": "uint256",
          "name": "amount",
          "type": "uint256"
        }
      ],
      "name": "transfer",
      "outputs": [
        {
          "internalType": "bool",
          "name": "",
          "type": "bool"
        }
      ],
      "stateMutability": "nonpayable",
      "type": "function"
    },
    {
      "inputs": [],
      "name": "transferDelayEnabled",
      "outputs": [
        {
          "internalType": "bool",
          "name": "",
          "type": "bool"
        }
      ],
      "stateMutability": "view",
      "type": "function"
    },
    {
      "inputs": [
        {
          "internalType": "address",
          "name": "_token",
          "type": "address"
        },
        {
          "internalType": "address",
          "name": "_to",
          "type": "address"
        }
      ],
      "name": "transferForeignToken",
      "outputs": [
        {
          "internalType": "bool",
          "name": "_sent",
          "type": "bool"
        }
      ],
      "stateMutability": "nonpayable",
      "type": "function"
    },
    {
      "inputs": [
        {
          "internalType": "address",
          "name": "sender",
          "type": "address"
        },
        {
          "internalType": "address",
          "name": "recipient",
          "type": "address"
        },
        {
          "internalType": "uint256",
          "name": "amount",
          "type": "uint256"
        }
      ],
      "name": "transferFrom",
      "outputs": [
        {
          "internalType": "bool",
          "name": "",
          "type": "bool"
        }
      ],
      "stateMutability": "nonpayable",
      "type": "function"
    },
    {
      "inputs": [
        {
          "internalType": "address",
          "name": "newOwner",
          "type": "address"
        }
      ],
      "name": "transferOwnership",
      "outputs": [],
      "stateMutability": "nonpayable",
      "type": "function"
    },
    {
      "inputs": [],
      "name": "uniswapV2Pair",
      "outputs": [
        {
          "internalType": "address",
          "name": "",
          "type": "address"
        }
      ],
      "stateMutability": "view",
      "type": "function"
    },
    {
      "inputs": [],
      "name": "uniswapV2Router",
      "outputs": [
        {
          "internalType": "contract IUniswapV2Router02",
          "name": "",
          "type": "address"
        }
      ],
      "stateMutability": "view",
      "type": "function"
    },
    {
      "inputs": [],
      "name": "withdrawStuckETH",
      "outputs": [],
      "stateMutability": "nonpayable",
      "type": "function"
    },
    {
      "stateMutability": "payable",
      "type": "receive"
    }
  ],
  "bytecode": {
    "object": "6080604052600680546001600160a01b031916734260fa13b6eec1fca080f74aa06bfae77a4de5ce179055600b805461010161ffff199091161790556200005369d3c21bcecceda10000006000196200042f565b62000061906000196200045c565b600f55601154601255601454601555600260178190556004601881905560076019819055601a92909255601b55601c556000601d8190556025805460ff1916600117905564746a528800602655602a805461ffff60a81b19169055620000c43390565b600080546001600160a01b0319166001600160a01b0383169081178255604051929350917f8be0079c531659141344cd1fd0a4f28419497f9722a3daafe3b4186f6b6457e0908290a3506103e8600f5462000120919062000476565b6200012d9060286200048d565b6006546001600160a01b0316600090815260076020526040902055600f546200015a906103e89062000476565b62000168906103c06200048d565b306000908152600760205260409020556103e86200019269d3c21bcecceda1000000600f6200048d565b6200019e919062000476565b6022556103e8620001bb69d3c21bcecceda1000000601e6200048d565b620001c7919062000476565b602355612710620001e469d3c21bcecceda100000060056200048d565b620001f0919062000476565b602855600380546001600160a01b031990811673468b1b06e9264ba997e2d88ecdca41fdfc55785d1790915560048054909116734260fa13b6eec1fca080f74aa06bfae77a4de5ce1790556200024e6000546001600160a01b031690565b600580546001600160a01b0319166001600160a01b039283161781556000805483168152600c6020526040808220805460ff199081166001908117909255308452828420805482168317905560035486168452828420805482168317905593548516835290822080549093161790915554620002cd911660016200038f565b620002da3060016200038f565b620002e961dead60016200038f565b6006546001600160a01b03166000600080516020620045668339815191526103e86200032169d3c21bcecceda100000060286200048d565b6200032d919062000476565b60405190815260200160405180910390a3306000600080516020620045668339815191526103e86200036c69d3c21bcecceda10000006103c06200048d565b62000378919062000476565b60405190815260200160405180910390a3620004af565b6000546001600160a01b03163314620003ee5760405162461bcd60e51b815260206004820181905260248201527f4f776e61626c653a2063616c6c6572206973206e6f7420746865206f776e6572604482015260640160405180910390fd5b6001600160a01b03919091166000908152602460205260409020805460ff1916911515919091179055565b634e487b7160e01b600052601260045260246000fd5b60008262000441576200044162000419565b500690565b634e487b7160e01b600052601160045260246000fd5b60008282101562000471576200047162000446565b500390565b60008262000488576200048862000419565b500490565b6000816000190483118215151615620004aa57620004aa62000446565b500290565b6140a780620004bf6000396000f3fe6080604052600436106103d25760003560e01c8063602bc62b116101fd578063a9059cbb11610118578063c8c8ebe4116100ab578063ea2f0b371161007a578063ea2f0b3714610b77578063ee40166e14610b97578063efcc52de14610bad578063f2fde38b14610bc3578063f5648a4f14610be357600080fd5b8063c8c8ebe414610af0578063dc44b6a014610b06578063dd62ed3e14610b1c578063e884f26014610b6257600080fd5b8063c49b9a80116100e7578063c49b9a8014610a8a578063c5d2418914610aaa578063c860795214610ac0578063c876d0b914610ad657600080fd5b8063a9059cbb14610a03578063aa4bde2814610a23578063b62496f514610a39578063bbc0c74214610a6957600080fd5b806388f82020116101905780639a7a23d61161015f5780639a7a23d61461098e578063a073d37f146109ae578063a457c2d7146109c3578063a5ece941146109e357600080fd5b806388f82020146108e65780638da5cb5b1461091f578063906e9dd01461093d57806395d89b411461095d57600080fd5b80637571336a116101cc5780637571336a146108605780638366e79a1461088057806385ecfd28146108a057806388790a68146108d057600080fd5b8063602bc62b1461080157806370a0823114610816578063715018a614610836578063751039fc1461084b57600080fd5b80633221c93f116102ed5780634a62bb6511610280578063525fa81f1161024f578063525fa81f146107755780635342acb414610795578063557ed1ba146107ce5780635bb988c9146107e157600080fd5b80634a62bb65146107005780634a74bb021461071f57806351f205e41461074057806352390c021461075557600080fd5b80634047ea3e116102bc5780634047ea3e1461068a578063437823ec146106a05780634549b039146106c057806349bd5a5e146106e057600080fd5b80633221c93f1461060a5780633685d4191461062a578063395093511461064a5780633ad10ef61461066a57600080fd5b80631d865c301161036557806324171f321161033457806324171f321461059857806325519cf2146105ae5780632d838119146105ce578063313ce567146105ee57600080fd5b80631d865c301461052c5780631fc851bd1461054c578063200a692d1461056257806323b872dd1461057857600080fd5b806310d5de53116103a157806310d5de531461048857806313114a9d146104b85780631694505e146104d757806318160ddd1461050f57600080fd5b806301339c21146103de57806306fdde03146104085780630923160214610446578063095ea7b31461046857600080fd5b366103d957005b600080fd5b3480156103ea57600080fd5b506103f3610bf8565b60405190151581526020015b60405180910390f35b34801561041457600080fd5b5060408051808201909152600c81526b4b756e6f6963686958496e7560a01b60208201525b6040516103ff9190613c3d565b34801561045257600080fd5b50610466610461366004613c92565b610f33565b005b34801561047457600080fd5b506103f3610483366004613cc3565b610f7f565b34801561049457600080fd5b506103f36104a3366004613cef565b60246020526000908152604090205460ff1681565b3480156104c457600080fd5b506010545b6040519081526020016103ff565b3480156104e357600080fd5b506029546104f7906001600160a01b031681565b6040516001600160a01b0390911681526020016103ff565b34801561051b57600080fd5b5069d3c21bcecceda10000006104c9565b34801561053857600080fd5b50610466610547366004613d0c565b610f96565b34801561055857600080fd5b506104c9601f5481565b34801561056e57600080fd5b506104c9601a5481565b34801561058457600080fd5b506103f3610593366004613d38565b61107b565b3480156105a457600080fd5b506104c960215481565b3480156105ba57600080fd5b506104666105c9366004613d0c565b6110e4565b3480156105da57600080fd5b506104c96105e9366004613c92565b6111c0565b3480156105fa57600080fd5b50604051600981526020016103ff565b34801561061657600080fd5b506005546104f7906001600160a01b031681565b34801561063657600080fd5b50610466610645366004613cef565b611244565b34801561065657600080fd5b506103f3610665366004613cc3565b6113fb565b34801561067657600080fd5b506004546104f7906001600160a01b031681565b34801561069657600080fd5b506104c960205481565b3480156106ac57600080fd5b506104666106bb366004613cef565b611431565b3480156106cc57600080fd5b506104c96106db366004613d87565b6114b6565b3480156106ec57600080fd5b50602a546104f7906001600160a01b031681565b34801561070c57600080fd5b50600b546103f390610100900460ff1681565b34801561072b57600080fd5b50602a546103f390600160a81b900460ff1681565b34801561074c57600080fd5b5061046661154b565b34801561076157600080fd5b50610466610770366004613cef565b611644565b34801561078157600080fd5b50610466610790366004613cef565b611832565b3480156107a157600080fd5b506103f36107b0366004613cef565b6001600160a01b03166000908152600c602052604090205460ff1690565b3480156107da57600080fd5b50426104c9565b3480156107ed57600080fd5b506104666107fc366004613cef565b611928565b34801561080d57600080fd5b506002546104c9565b34801561082257600080fd5b506104c9610831366004613cef565b61199b565b34801561084257600080fd5b506104666119fa565b34801561085757600080fd5b506103f3611a6e565b34801561086c57600080fd5b5061046661087b366004613db7565b611ab4565b34801561088c57600080fd5b506103f361089b366004613de5565b611b09565b3480156108ac57600080fd5b506103f36108bb366004613cef565b601e6020526000908152604090205460ff1681565b3480156108dc57600080fd5b506104c9601b5481565b3480156108f257600080fd5b506103f3610901366004613cef565b6001600160a01b03166000908152600d602052604090205460ff1690565b34801561092b57600080fd5b506000546001600160a01b03166104f7565b34801561094957600080fd5b50610466610958366004613cef565b611d2f565b34801561096957600080fd5b506040805180820190915260088152674b554e4f58494e5560c01b6020820152610439565b34801561099a57600080fd5b506104666109a9366004613db7565b611e3b565b3480156109ba57600080fd5b506028546104c9565b3480156109cf57600080fd5b506103f36109de366004613cc3565b611ef3565b3480156109ef57600080fd5b506003546104f7906001600160a01b031681565b348015610a0f57600080fd5b506103f3610a1e366004613cc3565b611f42565b348015610a2f57600080fd5b506104c960235481565b348015610a4557600080fd5b506103f3610a54366004613cef565b60276020526000908152604090205460ff1681565b348015610a7557600080fd5b50602a546103f390600160b01b900460ff1681565b348015610a9657600080fd5b50610466610aa5366004613e13565b611f4f565b348015610ab657600080fd5b506104c960195481565b348015610acc57600080fd5b506104c9601c5481565b348015610ae257600080fd5b50600b546103f39060ff1681565b348015610afc57600080fd5b506104c960225481565b348015610b1257600080fd5b506104c960185481565b348015610b2857600080fd5b506104c9610b37366004613de5565b6001600160a01b03918216600090815260096020908152604080832093909416825291909152205490565b348015610b6e57600080fd5b506103f3611fc6565b348015610b8357600080fd5b50610466610b92366004613cef565b612001565b348015610ba357600080fd5b506104c9601d5481565b348015610bb957600080fd5b506104c960175481565b348015610bcf57600080fd5b50610466610bde366004613cef565b61207c565b348015610bef57600080fd5b50610466612166565b600080546001600160a01b03163314610c2c5760405162461bcd60e51b8152600401610c2390613e30565b60405180910390fd5b602a54600160b01b900460ff1615610c9a5760405162461bcd60e51b815260206004820152602b60248201527f54726164696e6720697320616c7265616479206163746976652c2063616e6e6f60448201526a3a103932b630bab731b41760a91b6064820152608401610c23565b610ca261224b565b737a250d5630b4cf539739df2c5dacb4c659f2488d610cc2816001611ab4565b602980546001600160a01b0319166001600160a01b038316908117909155610cf690309069d3c21bcecceda10000006122a0565b806001600160a01b031663c45a01556040518163ffffffff1660e01b815260040160206040518083038186803b158015610d2f57600080fd5b505afa158015610d43573d6000803e3d6000fd5b505050506040513d601f19601f82011682018060405250810190610d679190613e65565b6001600160a01b031663c9c6539630836001600160a01b031663ad5c46486040518163ffffffff1660e01b815260040160206040518083038186803b158015610daf57600080fd5b505afa158015610dc3573d6000803e3d6000fd5b505050506040513d601f19601f82011682018060405250810190610de79190613e65565b6040516001600160e01b031960e085901b1681526001600160a01b03928316600482015291166024820152604401602060405180830381600087803b158015610e2f57600080fd5b505af1158015610e43573d6000803e3d6000fd5b505050506040513d601f19601f82011682018060405250810190610e679190613e65565b602a80546001600160a01b0319166001600160a01b03929092169182179055610e91906001611ab4565b602a54610ea8906001600160a01b031660016123c4565b60004711610f045760405162461bcd60e51b815260206004820152602360248201527f4d757374206861766520455448206f6e20636f6e747261637420746f206c61756044820152620dcc6d60eb1b6064820152608401610c23565b610f16610f103061199b565b4761241f565b600654610f2b906001600160a01b031661207c565b600191505090565b6000546001600160a01b03163314610f5d5760405162461bcd60e51b8152600401610c2390613e30565b60c8811015610f6b57600080fd5b610f7981633b9aca00613e98565b60265550565b6000610f8c3384846122a0565b5060015b92915050565b6000546001600160a01b03163314610fc05760405162461bcd60e51b8152600401610c2390613e30565b601a839055601b829055601c819055600f81610fdc8486613eb7565b610fe69190613eb7565b11156110345760405162461bcd60e51b815260206004820152601e60248201527f4d757374206b6565702073656c6c2074617865732062656c6f772031352500006044820152606401610c23565b60408051828152602081018490529081018490527f5ff33e060dbf96ff8c11eeadaaa320b34884dc8af8156d77ab6134d2bece22c3906060015b60405180910390a1505050565b60006110888484846124e2565b6110da84336110d585604051806060016040528060288152602001614025602891396001600160a01b038a1660009081526009602090815260408083203384529091529020549190612e78565b6122a0565b5060019392505050565b6000546001600160a01b0316331461110e5760405162461bcd60e51b8152600401610c2390613e30565b601783905560188290556019819055600f8161112a8486613eb7565b6111349190613eb7565b11156111825760405162461bcd60e51b815260206004820152601d60248201527f4d757374206b656570206275792074617865732062656c6f77203135250000006044820152606401610c23565b60408051828152602081018490529081018490527f4b44023290188702187818a2359a9d40279e516e5e9bbade40c321936a7736209060600161106e565b6000600f548211156112275760405162461bcd60e51b815260206004820152602a60248201527f416d6f756e74206d757374206265206c657373207468616e20746f74616c207260448201526965666c656374696f6e7360b01b6064820152608401610c23565b6000611231612eb2565b905061123d8382612ed5565b9392505050565b6000546001600160a01b0316331461126e5760405162461bcd60e51b8152600401610c2390613e30565b6001600160a01b0381166000908152600d602052604090205460ff166112d65760405162461bcd60e51b815260206004820152601760248201527f4163636f756e74206973206e6f74206578636c756465640000000000000000006044820152606401610c23565b60005b600e548110156113f757816001600160a01b0316600e828154811061130057611300613ecf565b6000918252602090912001546001600160a01b031614156113e557600e805461132b90600190613ee5565b8154811061133b5761133b613ecf565b600091825260209091200154600e80546001600160a01b03909216918390811061136757611367613ecf565b600091825260208083209190910180546001600160a01b0319166001600160a01b039485161790559184168152600882526040808220829055600d90925220805460ff19169055600e8054806113bf576113bf613efc565b600082815260209020810160001990810180546001600160a01b03191690550190555050565b806113ef81613f12565b9150506112d9565b5050565b3360008181526009602090815260408083206001600160a01b03871684529091528120549091610f8c9185906110d59086612f17565b6000546001600160a01b0316331461145b5760405162461bcd60e51b8152600401610c2390613e30565b6001600160a01b0381166000818152600c6020908152604091829020805460ff1916600117905590519182527f58c3e0504c69d3a92726966f152a771e0f8f6ad4daca1ae9055a38aba1fd2b6291015b60405180910390a150565b600069d3c21bcecceda10000008311156115125760405162461bcd60e51b815260206004820152601f60248201527f416d6f756e74206d757374206265206c657373207468616e20737570706c79006044820152606401610c23565b8161153157600061152284612f76565b50939550610f90945050505050565b600061153c84612f76565b50929550610f90945050505050565b6000546001600160a01b031633146115755760405162461bcd60e51b8152600401610c2390613e30565b60006115803061199b565b9050611597606469d3c21bcecceda1000000613f2d565b81101561160c5760405162461bcd60e51b815260206004820152603e60248201527f43616e206f6e6c792073776170206261636b206966206d6f7265207468616e2060448201527f3125206f6620746f6b656e7320737475636b206f6e20636f6e747261637400006064820152608401610c23565b611614612fc5565b6040514281527f1b56c383f4f48fc992e45667ea4eabae777b9cca68b516a9562d8cda78f1bb32906020016114ab565b6000546001600160a01b0316331461166e5760405162461bcd60e51b8152600401610c2390613e30565b6001600160a01b0381166000908152600d602052604090205460ff16156116d75760405162461bcd60e51b815260206004820152601b60248201527f4163636f756e7420697320616c7265616479206578636c7564656400000000006044820152606401610c23565b600e546032906116e8906001613eb7565b11156117725760405162461bcd60e51b815260206004820152604d60248201527f43616e6e6f74206578636c756465206d6f7265207468616e203530206163636f60448201527f756e74732e2020496e636c75646520612070726576696f75736c79206578636c60648201526c3ab232b21030b2323932b9b99760991b608482015260a401610c23565b6001600160a01b038116600090815260076020526040902054156117cc576001600160a01b0381166000908152600760205260409020546117b2906111c0565b6001600160a01b0382166000908152600860205260409020555b6001600160a01b03166000818152600d60205260408120805460ff19166001908117909155600e805491820181559091527fbb7b4a454dc3493923482f07822329ed19e8244eff582cc204f8554c3620c3fd0180546001600160a01b0319169091179055565b6000546001600160a01b0316331461185c5760405162461bcd60e51b8152600401610c2390613e30565b6001600160a01b0381166118c05760405162461bcd60e51b815260206004820152602560248201527f5f6c69717569646974794164647265737320616464726573732063616e6e6f74604482015264020626520360dc1b6064820152608401610c23565b600580546001600160a01b0319166001600160a01b0383169081179091556000818152600c6020908152604091829020805460ff1916600117905590519182527f217742673c85d2f459a37c99960c860122cdadf529374b41418d2718cae7726f91016114ab565b6000546001600160a01b031633146119525760405162461bcd60e51b8152600401610c2390613e30565b6001600160a01b0381166000818152601e6020526040808220805460ff19169055517fccaa6e1cfd4cf9506fa856fdc8e0a00894b2621ece1d60ab36209873305944989190a250565b6001600160a01b0381166000908152600d602052604081205460ff16156119d857506001600160a01b031660009081526008602052604090205490565b6001600160a01b038216600090815260076020526040902054610f90906111c0565b6000546001600160a01b03163314611a245760405162461bcd60e51b8152600401610c2390613e30565b600080546040516001600160a01b03909116907f8be0079c531659141344cd1fd0a4f28419497f9722a3daafe3b4186f6b6457e0908390a3600080546001600160a01b0319169055565b600080546001600160a01b03163314611a995760405162461bcd60e51b8152600401610c2390613e30565b50600b80546025805460ff1916905561ffff19169055600190565b6000546001600160a01b03163314611ade5760405162461bcd60e51b8152600401610c2390613e30565b6001600160a01b03919091166000908152602460205260409020805460ff1916911515919091179055565b600080546001600160a01b03163314611b345760405162461bcd60e51b8152600401610c2390613e30565b6001600160a01b038316611b8a5760405162461bcd60e51b815260206004820152601a60248201527f5f746f6b656e20616464726573732063616e6e6f7420626520300000000000006044820152606401610c23565b6001600160a01b038316301415611be35760405162461bcd60e51b815260206004820152601c60248201527f43616e2774207769746864726177206e617469766520746f6b656e73000000006044820152606401610c23565b6040516370a0823160e01b81523060048201526000906001600160a01b038516906370a082319060240160206040518083038186803b158015611c2557600080fd5b505afa158015611c39573d6000803e3d6000fd5b505050506040513d601f19601f82011682018060405250810190611c5d9190613f4f565b60405163a9059cbb60e01b81526001600160a01b038581166004830152602482018390529192509085169063a9059cbb90604401602060405180830381600087803b158015611cab57600080fd5b505af1158015611cbf573d6000803e3d6000fd5b505050506040513d601f19601f82011682018060405250810190611ce39190613f68565b604080516001600160a01b0387168152602081018490529193507fdeda980967fcead7b61e78ac46a4da14274af29e894d4d61e8b81ec38ab3e438910160405180910390a15092915050565b6000546001600160a01b03163314611d595760405162461bcd60e51b8152600401610c2390613e30565b6001600160a01b038116611dbd5760405162461bcd60e51b815260206004820152602560248201527f5f6d61726b6574696e674164647265737320616464726573732063616e6e6f74604482015264020626520360dc1b6064820152608401610c23565b600380546001600160a01b039081166000908152600c60209081526040808320805460ff1990811690915585546001600160a01b031916948716948517909555838352918290208054909416600117909355519081527fd1e7d6a3390dd5008bd1c57798817b9f806e4c417264e7d3d67e42e784dc24a991016114ab565b6000546001600160a01b03163314611e655760405162461bcd60e51b8152600401610c2390613e30565b602a546001600160a01b0383811691161415611ee95760405162461bcd60e51b815260206004820152603960248201527f54686520706169722063616e6e6f742062652072656d6f7665642066726f6d2060448201527f6175746f6d617465644d61726b65744d616b65725061697273000000000000006064820152608401610c23565b6113f782826123c4565b6000610f8c33846110d58560405180606001604052806025815260200161404d602591393360009081526009602090815260408083206001600160a01b038d1684529091529020549190612e78565b6000610f8c3384846124e2565b6000546001600160a01b03163314611f795760405162461bcd60e51b8152600401610c2390613e30565b602a8054821515600160a81b0260ff60a81b199091161790556040517f53726dfcaf90650aa7eb35524f4d3220f07413c8d6cb404cc8c18bf5591bc159906114ab90831515815260200190565b600080546001600160a01b03163314611ff15760405162461bcd60e51b8152600401610c2390613e30565b50600b805460ff19169055600190565b6000546001600160a01b0316331461202b5760405162461bcd60e51b8152600401610c2390613e30565b6001600160a01b0381166000818152600c6020908152604091829020805460ff1916905590519182527f4f6a6b6efe34ec6478021aa9fb7f6980e78ea3a10c74074a8ce49d5d3ebf1f7e91016114ab565b6000546001600160a01b031633146120a65760405162461bcd60e51b8152600401610c2390613e30565b6001600160a01b03811661210b5760405162461bcd60e51b815260206004820152602660248201527f4f776e61626c653a206e6577206f776e657220697320746865207a65726f206160448201526564647265737360d01b6064820152608401610c23565b600080546040516001600160a01b03808516939216917f8be0079c531659141344cd1fd0a4f28419497f9722a3daafe3b4186f6b6457e091a3600080546001600160a01b0319166001600160a01b0392909216919091179055565b6000546001600160a01b031633146121905760405162461bcd60e51b8152600401610c2390613e30565b602a54600160b01b900460ff16156121fe5760405162461bcd60e51b815260206004820152602b60248201527f43616e206f6e6c792077697468647261772069662074726164696e672068617360448201526a1b89dd081cdd185c9d195960aa1b6064820152608401610c23565b604051600090339047908381818185875af1925050503d8060008114612240576040519150601f19603f3d011682016040523d82523d6000602084013e612245565b606091505b50505050565b6000546001600160a01b031633146122755760405162461bcd60e51b8152600401610c2390613e30565b602a805461ffff60a81b191661010160a81b17905543601d5561229b4262278d00613eb7565b601f55565b6001600160a01b0383166123025760405162461bcd60e51b8152602060048201526024808201527f45524332303a20617070726f76652066726f6d20746865207a65726f206164646044820152637265737360e01b6064820152608401610c23565b6001600160a01b0382166123635760405162461bcd60e51b815260206004820152602260248201527f45524332303a20617070726f766520746f20746865207a65726f206164647265604482015261737360f01b6064820152608401610c23565b6001600160a01b0383811660008181526009602090815260408083209487168084529482529182902085905590518481527f8c5be1e5ebec7d5bd14f71427d1e84f3dd0314c0f7b2291e5b200ac8c7c3b925910160405180910390a3505050565b6001600160a01b038216600090815260276020908152604080832080548515801560ff19928316811790935560249094529190932080549091169092179091556124115761241182611644565b806113f7576113f782611244565b6029546124379030906001600160a01b0316846122a0565b60295460055460405163f305d71960e01b81523060048201526024810185905260006044820181905260648201526001600160a01b0391821660848201524260a482015291169063f305d71990839060c4016060604051808303818588803b1580156124a257600080fd5b505af11580156124b6573d6000803e3d6000fd5b50505050506040513d601f19601f820116820180604052508101906124db9190613f85565b5050505050565b6001600160a01b0383166125465760405162461bcd60e51b815260206004820152602560248201527f45524332303a207472616e736665722066726f6d20746865207a65726f206164604482015264647265737360d81b6064820152608401610c23565b6001600160a01b0382166125a85760405162461bcd60e51b815260206004820152602360248201527f45524332303a207472616e7366657220746f20746865207a65726f206164647260448201526265737360e81b6064820152608401610c23565b6000811161260a5760405162461bcd60e51b815260206004820152602960248201527f5472616e7366657220616d6f756e74206d7573742062652067726561746572206044820152687468616e207a65726f60b81b6064820152608401610c23565b602a54600160b01b900460ff166126a6576001600160a01b0383166000908152600c602052604090205460ff168061265a57506001600160a01b0382166000908152600c602052604090205460ff165b6126a65760405162461bcd60e51b815260206004820152601a60248201527f54726164696e67206973206e6f7420616374697665207965742e0000000000006044820152606401610c23565b600b54610100900460ff1615612b52576000546001600160a01b038481169116148015906126e257506000546001600160a01b03838116911614155b80156126f657506001600160a01b03821615155b801561270d57506001600160a01b03821661dead14155b80156127235750602a54600160a01b900460ff16155b15612b52576000546001600160a01b038481169116148015906127545750602a546001600160a01b03838116911614155b80156127615750601d5443145b156127b0576001600160a01b0382166000818152601e6020526040808220805460ff19166001179055517fb90badc1cf1c52268f4fa9afb5276aebf640bcca3300cdfc9cf37db17daa13e29190a25b60255460ff1680156127da57506001600160a01b03831660009081526027602052604090205460ff165b15612831576026543a11156128315760405162461bcd60e51b815260206004820152601860248201527f4761732070726963652065786365656473206c696d69742e00000000000000006044820152606401610c23565b600b5460ff1615612965576000546001600160a01b0383811691161480159061286857506029546001600160a01b03838116911614155b80156128825750602a546001600160a01b03838116911614155b15612965576001600160a01b0382166000908152600a6020526040902054431180156128bc5750326000908152600a602052604090205443115b6129405760405162461bcd60e51b815260206004820152604960248201527f5f7472616e736665723a3a205472616e736665722044656c617920656e61626c60448201527f65642e20204f6e6c79206f6e652070757263686173652070657220626c6f636b6064820152681030b63637bbb2b21760b91b608482015260a401610c23565b6001600160a01b0382166000908152600a602052604080822043908190553283529120555b6001600160a01b03831660009081526027602052604090205460ff1680156129a657506001600160a01b03821660009081526024602052604090205460ff16155b15612a2057602254811115612a1b5760405162461bcd60e51b815260206004820152603560248201527f427579207472616e7366657220616d6f756e742065786365656473207468652060448201527436b0bc2a3930b739b0b1ba34b7b720b6b7bab73a1760591b6064820152608401610c23565b612ad7565b6001600160a01b03821660009081526027602052604090205460ff168015612a6157506001600160a01b03831660009081526024602052604090205460ff16155b15612ad757602254811115612ad75760405162461bcd60e51b815260206004820152603660248201527f53656c6c207472616e7366657220616d6f756e742065786365656473207468656044820152751036b0bc2a3930b739b0b1ba34b7b720b6b7bab73a1760511b6064820152608401610c23565b6001600160a01b03821660009081526024602052604090205460ff16612b525760235481612b048461199b565b612b0e9190613eb7565b1115612b525760405162461bcd60e51b815260206004820152601360248201527213585e081dd85b1b195d08195e18d959591959606a1b6044820152606401610c23565b6000612b6b602154602054612f1790919063ffffffff16565b90506000612b783061199b565b602854602a5491925082101590600160a01b900460ff16158015612ba55750602a54600160a81b900460ff165b8015612bc65750602a54600090612bc4906001600160a01b031661199b565b115b8015612bd25750600083115b8015612bf757506001600160a01b0385166000908152600c602052604090205460ff16155b8015612c1c57506001600160a01b0386166000908152600c602052604090205460ff16155b8015612c4057506001600160a01b03851660009081526027602052604090205460ff165b8015612c495750805b15612c5657612c56612fc5565b6001600160a01b0386166000908152600c602052604090205460019060ff1680612c9857506001600160a01b0386166000908152600c602052604090205460ff165b15612caa575060036016556000612e63565b6001600160a01b03871660009081526027602052604090205460ff1615612cf657612cd3613218565b601754601155601954601854612ce99190613eb7565b6014556001601655612e63565b6001600160a01b03861660009081526027602052604090205460ff1615612d9357612d1f613218565b601a54601155601c54601b54612d359190613eb7565b60145560026016556001600160a01b0387166000908152601e602052604090205460ff168015612d66575042601f54115b15612d8e57601154612d79906007613e98565b601155601454612d8a906007613e98565b6014555b612e63565b6001600160a01b0387166000908152601e602052604090205460ff161580612dbd575042601f5411155b612e555760405162461bcd60e51b815260206004820152605960248201527f536e69706572732063616e2774207472616e7366657220746f6b656e7320746f60448201527f2073656c6c206368656170657220756e74696c2070656e616c74792074696d6560648201527f6672616d65206973206f7665722e2020444d2061204d6f642e00000000000000608482015260a401610c23565b612e5d613218565b60036016555b612e6f87878784613246565b50505050505050565b60008184841115612e9c5760405162461bcd60e51b8152600401610c239190613c3d565b506000612ea98486613ee5565b95945050505050565b6000806000612ebf61336b565b9092509050612ece8282612ed5565b9250505090565b600061123d83836040518060400160405280601a81526020017f536166654d6174683a206469766973696f6e206279207a65726f00000000000081525061350b565b600080612f248385613eb7565b90508381101561123d5760405162461bcd60e51b815260206004820152601b60248201527f536166654d6174683a206164646974696f6e206f766572666c6f7700000000006044820152606401610c23565b6000806000806000806000806000612f8d8a613539565b9250925092506000806000612fab8d8686612fa6612eb2565b61357b565b919f909e50909c50959a5093985091965092945050505050565b602a805460ff60a01b1916600160a01b1790556000612fe33061199b565b90506000602154602054612ff79190613eb7565b905060006130116002602054612ed590919063ffffffff16565b9050600061301f84836135cb565b90504761302b8261360d565b600061303747836135cb565b9050600061305a866130546021548561377690919063ffffffff16565b90612ed5565b9050600061306883836135cb565b905060006002613079846001613e98565b6130839190613f2d565b905061308f8184613ee5565b60006020819055602181905560035460405192955090916001600160a01b039091169085908381818185875af1925050503d80600081146130ec576040519150601f19603f3d011682016040523d82523d6000602084013e6130f1565b606091505b50506004546040519192506001600160a01b0316908390600081818185875af1925050503d8060008114613141576040519150601f19603f3d011682016040523d82523d6000602084013e613146565b606091505b505080915050613156888461241f565b60408051888152602081018590529081018990527f17bbfb9a6069321b6ded73bd96327c9e6b7212a5cd51ff219cd61370acafb5619060600160405180910390a167016345785d8a00004711156131ff576003546040516001600160a01b03909116904790600081818185875af1925050503d80600081146131f4576040519150601f19603f3d011682016040523d82523d6000602084013e6131f9565b606091505b50909150505b5050602a805460ff60a01b191690555050505050505050565b6011541580156132285750601454155b1561322f57565b601180546012556014805460155560009182905555565b8061325357613253613218565b6001600160a01b0384166000908152600d602052604090205460ff16801561329457506001600160a01b0383166000908152600d602052604090205460ff16155b156132a9576132a48484846137f5565b613355565b6001600160a01b0384166000908152600d602052604090205460ff161580156132ea57506001600160a01b0383166000908152600d602052604090205460ff165b156132fa576132a484848461391b565b6001600160a01b0384166000908152600d602052604090205460ff16801561333a57506001600160a01b0383166000908152600d602052604090205460ff165b1561334a576132a48484846139c4565b613355848484613a37565b8061224557612245601254601155601554601455565b600f54600090819069d3c21bcecceda1000000825b600e548110156134cc578260076000600e84815481106133a2576133a2613ecf565b60009182526020808320909101546001600160a01b03168352820192909252604001902054118061340d57508160086000600e84815481106133e6576133e6613ecf565b60009182526020808320909101546001600160a01b03168352820192909252604001902054115b1561342a575050600f549369d3c21bcecceda10000009350915050565b61347060076000600e848154811061344457613444613ecf565b60009182526020808320909101546001600160a01b0316835282019290925260400190205484906135cb565b92506134b860086000600e848154811061348c5761348c613ecf565b60009182526020808320909101546001600160a01b0316835282019290925260400190205483906135cb565b9150806134c481613f12565b915050613380565b50600f546134e49069d3c21bcecceda1000000612ed5565b821015613502575050600f549269d3c21bcecceda100000092509050565b90939092509050565b6000818361352c5760405162461bcd60e51b8152600401610c239190613c3d565b506000612ea98486613f2d565b60008060008061354885613a7b565b9050600061355586613a97565b9050600061356d8261356789866135cb565b906135cb565b979296509094509092505050565b600080808061358a8886613776565b905060006135988887613776565b905060006135a68888613776565b905060006135b88261356786866135cb565b939b939a50919850919650505050505050565b600061123d83836040518060400160405280601e81526020017f536166654d6174683a207375627472616374696f6e206f766572666c6f770000815250612e78565b604080516002808252606082018352600092602083019080368337019050509050308160008151811061364257613642613ecf565b6001600160a01b03928316602091820292909201810191909152602954604080516315ab88c960e31b81529051919093169263ad5c4648926004808301939192829003018186803b15801561369657600080fd5b505afa1580156136aa573d6000803e3d6000fd5b505050506040513d601f19601f820116820180604052508101906136ce9190613e65565b816001815181106136e1576136e1613ecf565b6001600160a01b03928316602091820292909201015260295461370791309116846122a0565b60295460405163791ac94760e01b81526001600160a01b039091169063791ac94790613740908590600090869030904290600401613fb3565b600060405180830381600087803b15801561375a57600080fd5b505af115801561376e573d6000803e3d6000fd5b505050505050565b60008261378557506000610f90565b60006137918385613e98565b90508261379e8583613f2d565b1461123d5760405162461bcd60e51b815260206004820152602160248201527f536166654d6174683a206d756c7469706c69636174696f6e206f766572666c6f6044820152607760f81b6064820152608401610c23565b60008060008060008061380787612f76565b6001600160a01b038f16600090815260086020526040902054959b5093995091975095509350915061383990886135cb565b6001600160a01b038a1660009081526008602090815260408083209390935560079052205461386890876135cb565b6001600160a01b03808b1660009081526007602052604080822093909355908a16815220546138979086612f17565b6001600160a01b0389166000908152600760205260409020556138b981613ab3565b6138c38483613c19565b876001600160a01b0316896001600160a01b03167fddf252ad1be2c89b69c2b068fc378daa952ba7f163c4a11628f55a4df523b3ef8560405161390891815260200190565b60405180910390a3505050505050505050565b60008060008060008061392d87612f76565b6001600160a01b038f16600090815260076020526040902054959b5093995091975095509350915061395f90876135cb565b6001600160a01b03808b16600090815260076020908152604080832094909455918b168152600890915220546139959084612f17565b6001600160a01b0389166000908152600860209081526040808320939093556007905220546138979086612f17565b6000806000806000806139d687612f76565b6001600160a01b038f16600090815260086020526040902054959b50939950919750955093509150613a0890886135cb565b6001600160a01b038a1660009081526008602090815260408083209390935560079052205461395f90876135cb565b600080600080600080613a4987612f76565b6001600160a01b038f16600090815260076020526040902054959b5093995091975095509350915061386890876135cb565b6000610f9060646130546011548561377690919063ffffffff16565b6000610f9060646130546014548561377690919063ffffffff16565b60016016541415613b2457601454601854613ace9083613e98565b613ad89190613f2d565b60206000828254613ae99190613eb7565b9091555050601454601954613afe9083613e98565b613b089190613f2d565b60216000828254613b199190613eb7565b90915550613b909050565b60026016541415613b9057601454601b54613b3f9083613e98565b613b499190613f2d565b60206000828254613b5a9190613eb7565b9091555050601454601c54613b6f9083613e98565b613b799190613f2d565b60216000828254613b8a9190613eb7565b90915550505b6000613b9a612eb2565b90506000613ba88383613776565b30600090815260076020526040902054909150613bc59082612f17565b30600090815260076020908152604080832093909355600d9052205460ff1615613c145730600090815260086020526040902054613c039084612f17565b306000908152600860205260409020555b505050565b600f54613c2690836135cb565b600f55601054613c369082612f17565b6010555050565b600060208083528351808285015260005b81811015613c6a57858101830151858201604001528201613c4e565b81811115613c7c576000604083870101525b50601f01601f1916929092016040019392505050565b600060208284031215613ca457600080fd5b5035919050565b6001600160a01b0381168114613cc057600080fd5b50565b60008060408385031215613cd657600080fd5b8235613ce181613cab565b946020939093013593505050565b600060208284031215613d0157600080fd5b813561123d81613cab565b600080600060608486031215613d2157600080fd5b505081359360208301359350604090920135919050565b600080600060608486031215613d4d57600080fd5b8335613d5881613cab565b92506020840135613d6881613cab565b929592945050506040919091013590565b8015158114613cc057600080fd5b60008060408385031215613d9a57600080fd5b823591506020830135613dac81613d79565b809150509250929050565b60008060408385031215613dca57600080fd5b8235613dd581613cab565b91506020830135613dac81613d79565b60008060408385031215613df857600080fd5b8235613e0381613cab565b91506020830135613dac81613cab565b600060208284031215613e2557600080fd5b813561123d81613d79565b6020808252818101527f4f776e61626c653a2063616c6c6572206973206e6f7420746865206f776e6572604082015260600190565b600060208284031215613e7757600080fd5b815161123d81613cab565b634e487b7160e01b600052601160045260246000fd5b6000816000190483118215151615613eb257613eb2613e82565b500290565b60008219821115613eca57613eca613e82565b500190565b634e487b7160e01b600052603260045260246000fd5b600082821015613ef757613ef7613e82565b500390565b634e487b7160e01b600052603160045260246000fd5b6000600019821415613f2657613f26613e82565b5060010190565b600082613f4a57634e487b7160e01b600052601260045260246000fd5b500490565b600060208284031215613f6157600080fd5b5051919050565b600060208284031215613f7a57600080fd5b815161123d81613d79565b600080600060608486031215613f9a57600080fd5b8351925060208401519150604084015190509250925092565b600060a082018783526020878185015260a0604085015281875180845260c086019150828901935060005b818110156140035784516001600160a01b031683529383019391830191600101613fde565b50506001600160a01b0396909616606085015250505060800152939250505056fe45524332303a207472616e7366657220616d6f756e74206578636565647320616c6c6f77616e636545524332303a2064656372656173656420616c6c6f77616e63652062656c6f77207a65726fa2646970667358221220cfc548559412ed224fe5740aa47e145e599f4e633f2b17f8ddaeef4dcb3a4f2364736f6c63430008090033ddf252ad1be2c89b69c2b068fc378daa952ba7f163c4a11628f55a4df523b3ef"
  }
}