{
  "opcodeHash": "0xa43d8480f05004031119eafc11697849c79793c59012b9b3b267054acc61069e",
  "metalessHash": "0xf8d5fb509395487fd879581a4bdebc9c6ebb169953109c20daec9777226fc6fc",
  "runtimeHash": "0x51b57a6b8f1e3212642cbefcd809d0c2c27240984fb28fd97535bc42cb9ba2b2",
  "encodedMetadata": [
    {
      "ipfs": "/ipfs/QmQhHofLst68pWhDk1w1RNMQY2H37zULDvwbGcK2B8mKQz",
      "solc": "0.8.7"
    }
  ],
  "abi": [
    {
      "inputs": [
        {
          "internalType": "address",
          "name": "creator_",
          "type": "address"
        }
      ],
      "stateMutability": "nonpayable",
      "type": "constructor"
    },
    {
      "anonymous": false,
      "inputs": [
        {
          "indexed": true,
          "internalType": "address",
          "name": "account",
          "type": "address"
        },
        {
          "indexed": true,
          "internalType": "address",
          "name": "sender",
          "type": "address"
        }
      ],
      "name": "AdminApproved",
      "type": "event"
    },
    {
      "anonymous": false,
      "inputs": [
        {
          "indexed": true,
          "internalType": "address",
          "name": "account",
          "type": "address"
        },
        {
          "indexed": true,
          "internalType": "address",
          "name": "sender",
          "type": "address"
        }
      ],
      "name": "AdminRevoked",
      "type": "event"
    },
    {
      "anonymous": false,
      "inputs": [
        {
          "indexed": true,
          "internalType": "address",
          "name": "previousOwner",
          "type": "address"
        },
        {
          "indexed": true,
          "internalType": "address",
          "name": "newOwner",
          "type": "address"
        }
      ],
      "name": "OwnershipTransferred",
      "type": "event"
    },
    {
      "anonymous": false,
      "inputs": [
        {
          "indexed": false,
          "internalType": "address",
          "name": "account",
          "type": "address"
        }
      ],
      "name": "Paused",
      "type": "event"
    },
    {
      "anonymous": false,
      "inputs": [
        {
          "indexed": false,
          "internalType": "address",
          "name": "account",
          "type": "address"
        }
      ],
      "name": "Unpaused",
      "type": "event"
    },
    {
      "inputs": [
        {
          "internalType": "address[]",
          "name": "receivers",
          "type": "address[]"
        },
        {
          "internalType": "string[]",
          "name": "uris",
          "type": "string[]"
        }
      ],
      "name": "airdropURIs",
      "outputs": [],
      "stateMutability": "nonpayable",
      "type": "function"
    },
    {
      "inputs": [
        {
          "internalType": "address",
          "name": "admin",
          "type": "address"
        }
      ],
      "name": "approveAdmin",
      "outputs": [],
      "stateMutability": "nonpayable",
      "type": "function"
    },
    {
      "inputs": [
        {
          "internalType": "address",
          "name": "from",
          "type": "address"
        },
        {
          "internalType": "address",
          "name": "to",
          "type": "address"
        },
        {
          "internalType": "uint256",
          "name": "tokenId",
          "type": "uint256"
        }
      ],
      "name": "approveTransfer",
      "outputs": [
        {
          "internalType": "bool",
          "name": "",
          "type": "bool"
        }
      ],
      "stateMutability": "nonpayable",
      "type": "function"
    },
    {
      "inputs": [],
      "name": "getAdmins",
      "outputs": [
        {
          "internalType": "address[]",
          "name": "admins",
          "type": "address[]"
        }
      ],
      "stateMutability": "view",
      "type": "function"
    },
    {
      "inputs": [
        {
          "internalType": "address",
          "name": "admin",
          "type": "address"
        }
      ],
      "name": "isAdmin",
      "outputs": [
        {
          "internalType": "bool",
          "name": "",
          "type": "bool"
        }
      ],
      "stateMutability": "view",
      "type": "function"
    },
    {
      "inputs": [],
      "name": "numMinted",
      "outputs": [
        {
          "internalType": "uint256",
          "name": "",
          "type": "uint256"
        }
      ],
      "stateMutability": "view",
      "type": "function"
    },
    {
      "inputs": [],
      "name": "owner",
      "outputs": [
        {
          "internalType": "address",
          "name": "",
          "type": "address"
        }
      ],
      "stateMutability": "view",
      "type": "function"
    },
    {
      "inputs": [],
      "name": "pause",
      "outputs": [],
      "stateMutability": "nonpayable",
      "type": "function"
    },
    {
      "inputs": [],
      "name": "paused",
      "outputs": [
        {
          "internalType": "bool",
          "name": "",
          "type": "bool"
        }
      ],
      "stateMutability": "view",
      "type": "function"
    },
    {
      "inputs": [],
      "name": "renounceOwnership",
      "outputs": [],
      "stateMutability": "nonpayable",
      "type": "function"
    },
    {
      "inputs": [
        {
          "internalType": "address",
          "name": "admin",
          "type": "address"
        }
      ],
      "name": "revokeAdmin",
      "outputs": [],
      "stateMutability": "nonpayable",
      "type": "function"
    },
    {
      "inputs": [
        {
          "internalType": "address",
          "name": "creator",
          "type": "address"
        },
        {
          "internalType": "bool",
          "name": "enabled",
          "type": "bool"
        }
      ],
      "name": "setApproveTransfer",
      "outputs": [],
      "stateMutability": "nonpayable",
      "type": "function"
    },
    {
      "inputs": [
        {
          "internalType": "string",
          "name": "uri",
          "type": "string"
        },
        {
          "internalType": "bool",
          "name": "identical",
          "type": "bool"
        }
      ],
      "name": "setBaseTokenURI",
      "outputs": [],
      "stateMutability": "nonpayable",
      "type": "function"
    },
    {
      "inputs": [
        {
          "internalType": "uint256[]",
          "name": "tokenIds",
          "type": "uint256[]"
        },
        {
          "internalType": "string[]",
          "name": "uris",
          "type": "string[]"
        }
      ],
      "name": "setTokenURI",
      "outputs": [],
      "stateMutability": "nonpayable",
      "type": "function"
    },
    {
      "inputs": [
        {
          "internalType": "string",
          "name": "prefix",
          "type": "string"
        }
      ],
      "name": "setTokenURIPrefix",
      "outputs": [],
      "stateMutability": "nonpayable",
      "type": "function"
    },
    {
      "inputs": [
        {
          "internalType": "bytes4",
          "name": "interfaceId",
          "type": "bytes4"
        }
      ],
      "name": "supportsInterface",
      "outputs": [
        {
          "internalType": "bool",
          "name": "",
          "type": "bool"
        }
      ],
      "stateMutability": "view",
      "type": "function"
    },
    {
      "inputs": [
        {
          "internalType": "address",
          "name": "newOwner",
          "type": "address"
        }
      ],
      "name": "transferOwnership",
      "outputs": [],
      "stateMutability": "nonpayable",
      "type": "function"
    },
    {
      "inputs": [],
      "name": "unpause",
      "outputs": [],
      "stateMutability": "nonpayable",
      "type": "function"
    }
  ],
  "bytecode": {
    "object": "60806040523480156200001157600080fd5b50604051620031d0380380620031d0833981810160405281019062000037919062000426565b80620000586200004c6200016260201b60201c565b6200016a60201b60201c565b60008060146101000a81548160ff021916908315150217905550620000a9817f9088c207000000000000000000000000000000000000000000000000000000006200022e60201b620011d61760201c565b80620000cf5750620000ce8163478c853060e01b6200022e60201b620011d61760201c565b5b62000111576040517f08c379a000000000000000000000000000000000000000000000000000000000815260040162000108906200052f565b60405180910390fd5b80600160006101000a81548173ffffffffffffffffffffffffffffffffffffffff021916908373ffffffffffffffffffffffffffffffffffffffff16021790555050600060048190555050620006a2565b600033905090565b60008060009054906101000a900473ffffffffffffffffffffffffffffffffffffffff169050816000806101000a81548173ffffffffffffffffffffffffffffffffffffffff021916908373ffffffffffffffffffffffffffffffffffffffff1602179055508173ffffffffffffffffffffffffffffffffffffffff168173ffffffffffffffffffffffffffffffffffffffff167f8be0079c531659141344cd1fd0a4f28419497f9722a3daafe3b4186f6b6457e060405160405180910390a35050565b600062000241836200026460201b60201c565b80156200025c57506200025b8383620002c260201b60201c565b5b905092915050565b600062000298827f01ffc9a700000000000000000000000000000000000000000000000000000000620002c260201b60201c565b8015620002bb5750620002b98263ffffffff60e01b620002c260201b60201c565b155b9050919050565b6000806301ffc9a760e01b83604051602401620002e0919062000512565b604051602081830303815290604052907bffffffffffffffffffffffffffffffffffffffffffffffffffffffff19166020820180517bffffffffffffffffffffffffffffffffffffffffffffffffffffffff838183161783525050505090506000808573ffffffffffffffffffffffffffffffffffffffff16617530846040516200036c9190620004f9565b6000604051808303818686fa925050503d8060008114620003aa576040519150601f19603f3d011682016040523d82523d6000602084013e620003af565b606091505b5091509150602081511015620003cc5760009350505050620003f2565b818015620003ec575080806020019051810190620003eb919062000458565b5b93505050505b92915050565b60008151905062000409816200066e565b92915050565b600081519050620004208162000688565b92915050565b6000602082840312156200043f576200043e6200061a565b5b60006200044f84828501620003f8565b91505092915050565b6000602082840312156200047157620004706200061a565b5b600062000481848285016200040f565b91505092915050565b620004958162000598565b82525050565b6000620004a88262000551565b620004b481856200055c565b9350620004c6818560208601620005e4565b80840191505092915050565b6000620004e1602a8362000567565b9150620004ee826200061f565b604082019050919050565b60006200050782846200049b565b915081905092915050565b60006020820190506200052960008301846200048a565b92915050565b600060208201905081810360008301526200054a81620004d2565b9050919050565b600081519050919050565b600081905092915050565b600082825260208201905092915050565b60006200058582620005c4565b9050919050565b60008115159050919050565b60007fffffffff0000000000000000000000000000000000000000000000000000000082169050919050565b600073ffffffffffffffffffffffffffffffffffffffff82169050919050565b60005b8381101562000604578082015181840152602081019050620005e7565b8381111562000614576000848401525b50505050565b600080fd5b7f436f6e7472616374206d75737420696d706c656d656e7420494552433732314360008201527f726561746f72436f726500000000000000000000000000000000000000000000602082015250565b620006798162000578565b81146200068557600080fd5b50565b62000693816200058c565b81146200069f57600080fd5b50565b612b1e80620006b26000396000f3fe608060405234801561001057600080fd5b50600436106101165760003560e01c806382580805116100a257806399e0dd7c1161007157806399e0dd7c14610293578063aafb2d44146102af578063d52079b4146102cb578063e5426933146102e9578063f2fde38b1461030557610116565b8063825808051461021f5780638456cb591461024f5780638da5cb5b146102595780638dceb35f1461027757610116565b806331ae450b116100e957806331ae450b146101b35780633f4ba83a146101d15780635c975abb146101db5780636d73e669146101f9578063715018a61461021557610116565b806301ffc9a71461011b5780631b95a2271461014b57806324d7806c146101675780632d34567014610197575b600080fd5b61013560048036038101906101309190611da9565b610321565b60405161014291906122e0565b60405180910390f35b61016560048036038101906101609190611c3a565b6103ab565b005b610181600480360381019061017c9190611bba565b610513565b60405161018e91906122e0565b60405180910390f35b6101b160048036038101906101ac9190611bba565b61056d565b005b6101bb610675565b6040516101c89190612283565b60405180910390f35b6101d9610757565b005b6101e36107f1565b6040516101f091906122e0565b60405180910390f35b610213600480360381019061020e9190611bba565b610807565b005b61021d61090e565b005b61023960048036038101906102349190611be7565b610996565b60405161024691906122e0565b60405180910390f35b610257610a9b565b005b610261610b35565b60405161026e9190612236565b60405180910390f35b610291600480360381019061028c9190611c7a565b610b5e565b005b6102ad60048036038101906102a89190611dd6565b610d76565b005b6102c960048036038101906102c49190611cfb565b610e85565b005b6102d3610fae565b6040516102e0919061248c565b60405180910390f35b61030360048036038101906102fe9190611e23565b610fb8565b005b61031f600480360381019061031a9190611bba565b6110de565b005b60007fe9dc6375000000000000000000000000000000000000000000000000000000007bffffffffffffffffffffffffffffffffffffffffffffffffffffffff1916827bffffffffffffffffffffffffffffffffffffffffffffffffffffffff191614806103945750610393826111fb565b5b806103a457506103a382611275565b5b9050919050565b3373ffffffffffffffffffffffffffffffffffffffff166103ca610b35565b73ffffffffffffffffffffffffffffffffffffffff1614806103fc57506103fb3360026112ef90919063ffffffff16565b5b61043b576040517f08c379a00000000000000000000000000000000000000000000000000000000081526004016104329061246c565b60405180910390fd5b610465827f9088c207000000000000000000000000000000000000000000000000000000006111d6565b6104a4576040517f08c379a000000000000000000000000000000000000000000000000000000000815260040161049b906123ec565b60405180910390fd5b8173ffffffffffffffffffffffffffffffffffffffff1663ac0c8cfa826040518263ffffffff1660e01b81526004016104dd91906122e0565b600060405180830381600087803b1580156104f757600080fd5b505af115801561050b573d6000803e3d6000fd5b505050505050565b60008173ffffffffffffffffffffffffffffffffffffffff16610534610b35565b73ffffffffffffffffffffffffffffffffffffffff16148061056657506105658260026112ef90919063ffffffff16565b5b9050919050565b61057561131f565b73ffffffffffffffffffffffffffffffffffffffff16610593610b35565b73ffffffffffffffffffffffffffffffffffffffff16146105e9576040517f08c379a00000000000000000000000000000000000000000000000000000000081526004016105e09061240c565b60405180910390fd5b6105fd8160026112ef90919063ffffffff16565b15610672573373ffffffffffffffffffffffffffffffffffffffff168173ffffffffffffffffffffffffffffffffffffffff167f7c0c3c84c67c85fcac635147348bfe374c24a1a93d0366d1cfe9d8853cbf89d560405160405180910390a361067081600261132790919063ffffffff16565b505b50565b60606106816002611357565b67ffffffffffffffff81111561069a5761069961282d565b5b6040519080825280602002602001820160405280156106c85781602001602082028036833780820191505090505b50905060005b6106d86002611357565b811015610753576106f381600261136c90919063ffffffff16565b828281518110610706576107056127fe565b5b602002602001019073ffffffffffffffffffffffffffffffffffffffff16908173ffffffffffffffffffffffffffffffffffffffff1681525050808061074b90612757565b9150506106ce565b5090565b3373ffffffffffffffffffffffffffffffffffffffff16610776610b35565b73ffffffffffffffffffffffffffffffffffffffff1614806107a857506107a73360026112ef90919063ffffffff16565b5b6107e7576040517f08c379a00000000000000000000000000000000000000000000000000000000081526004016107de9061246c565b60405180910390fd5b6107ef611386565b565b60008060149054906101000a900460ff16905090565b61080f61131f565b73ffffffffffffffffffffffffffffffffffffffff1661082d610b35565b73ffffffffffffffffffffffffffffffffffffffff1614610883576040517f08c379a000000000000000000000000000000000000000000000000000000000815260040161087a9061240c565b60405180910390fd5b6108978160026112ef90919063ffffffff16565b61090b573373ffffffffffffffffffffffffffffffffffffffff168173ffffffffffffffffffffffffffffffffffffffff167f7e1a1a08d52e4ba0e21554733d66165fd5151f99460116223d9e3a608eec5cb160405160405180910390a361090981600261142790919063ffffffff16565b505b50565b61091661131f565b73ffffffffffffffffffffffffffffffffffffffff16610934610b35565b73ffffffffffffffffffffffffffffffffffffffff161461098a576040517f08c379a00000000000000000000000000000000000000000000000000000000081526004016109819061240c565b60405180910390fd5b6109946000611457565b565b6000600160009054906101000a900473ffffffffffffffffffffffffffffffffffffffff1673ffffffffffffffffffffffffffffffffffffffff163373ffffffffffffffffffffffffffffffffffffffff1614610a28576040517f08c379a0000000000000000000000000000000000000000000000000000000008152600401610a1f906123ac565b60405180910390fd5b610a306107f1565b1580610a415750610a4083610513565b5b80610a515750610a5084610513565b5b610a90576040517f08c379a0000000000000000000000000000000000000000000000000000000008152600401610a879061242c565b60405180910390fd5b600190509392505050565b3373ffffffffffffffffffffffffffffffffffffffff16610aba610b35565b73ffffffffffffffffffffffffffffffffffffffff161480610aec5750610aeb3360026112ef90919063ffffffff16565b5b610b2b576040517f08c379a0000000000000000000000000000000000000000000000000000000008152600401610b229061246c565b60405180910390fd5b610b3361151b565b565b60008060009054906101000a900473ffffffffffffffffffffffffffffffffffffffff16905090565b3373ffffffffffffffffffffffffffffffffffffffff16610b7d610b35565b73ffffffffffffffffffffffffffffffffffffffff161480610baf5750610bae3360026112ef90919063ffffffff16565b5b610bee576040517f08c379a0000000000000000000000000000000000000000000000000000000008152600401610be59061246c565b60405180910390fd5b818190508484905014610c36576040517f08c379a0000000000000000000000000000000000000000000000000000000008152600401610c2d9061244c565b60405180910390fd5b60005b84849050811015610d5357600160009054906101000a900473ffffffffffffffffffffffffffffffffffffffff1673ffffffffffffffffffffffffffffffffffffffff1663fe2e1f58868684818110610c9557610c946127fe565b5b9050602002016020810190610caa9190611bba565b858585818110610cbd57610cbc6127fe565b5b9050602002810190610ccf91906124a7565b6040518463ffffffff1660e01b8152600401610ced93929190612251565b602060405180830381600087803b158015610d0757600080fd5b505af1158015610d1b573d6000803e3d6000fd5b505050506040513d601f19601f82011682018060405250810190610d3f9190611e83565b508080610d4b90612757565b915050610c39565b508383905060046000828254610d699190612617565b9250508190555050505050565b610d7e61131f565b73ffffffffffffffffffffffffffffffffffffffff16610d9c610b35565b73ffffffffffffffffffffffffffffffffffffffff1614610df2576040517f08c379a0000000000000000000000000000000000000000000000000000000008152600401610de99061240c565b60405180910390fd5b600160009054906101000a900473ffffffffffffffffffffffffffffffffffffffff1673ffffffffffffffffffffffffffffffffffffffff166366d1e9d083836040518363ffffffff1660e01b8152600401610e4f929190612316565b600060405180830381600087803b158015610e6957600080fd5b505af1158015610e7d573d6000803e3d6000fd5b505050505050565b3373ffffffffffffffffffffffffffffffffffffffff16610ea4610b35565b73ffffffffffffffffffffffffffffffffffffffff161480610ed65750610ed53360026112ef90919063ffffffff16565b5b610f15576040517f08c379a0000000000000000000000000000000000000000000000000000000008152600401610f0c9061246c565b60405180910390fd5b600160009054906101000a900473ffffffffffffffffffffffffffffffffffffffff1673ffffffffffffffffffffffffffffffffffffffff166361e5bc6b858585856040518563ffffffff1660e01b8152600401610f7694939291906122a5565b600060405180830381600087803b158015610f9057600080fd5b505af1158015610fa4573d6000803e3d6000fd5b5050505050505050565b6000600454905090565b3373ffffffffffffffffffffffffffffffffffffffff16610fd7610b35565b73ffffffffffffffffffffffffffffffffffffffff16148061100957506110083360026112ef90919063ffffffff16565b5b611048576040517f08c379a000000000000000000000000000000000000000000000000000000000815260040161103f9061246c565b60405180910390fd5b600160009054906101000a900473ffffffffffffffffffffffffffffffffffffffff1673ffffffffffffffffffffffffffffffffffffffff166382dcc0c88484846040518463ffffffff1660e01b81526004016110a79392919061233a565b600060405180830381600087803b1580156110c157600080fd5b505af11580156110d5573d6000803e3d6000fd5b50505050505050565b6110e661131f565b73ffffffffffffffffffffffffffffffffffffffff16611104610b35565b73ffffffffffffffffffffffffffffffffffffffff161461115a576040517f08c379a00000000000000000000000000000000000000000000000000000000081526004016111519061240c565b60405180910390fd5b600073ffffffffffffffffffffffffffffffffffffffff168173ffffffffffffffffffffffffffffffffffffffff1614156111ca576040517f08c379a00000000000000000000000000000000000000000000000000000000081526004016111c19061238c565b60405180910390fd5b6111d381611457565b50565b60006111e1836115be565b80156111f357506111f2838361160b565b5b905092915050565b60007f553e757e000000000000000000000000000000000000000000000000000000007bffffffffffffffffffffffffffffffffffffffffffffffffffffffff1916827bffffffffffffffffffffffffffffffffffffffffffffffffffffffff1916148061126e575061126d82611736565b5b9050919050565b60007f99cdaa22000000000000000000000000000000000000000000000000000000007bffffffffffffffffffffffffffffffffffffffffffffffffffffffff1916827bffffffffffffffffffffffffffffffffffffffffffffffffffffffff191614806112e857506112e7826117a0565b5b9050919050565b6000611317836000018373ffffffffffffffffffffffffffffffffffffffff1660001b611801565b905092915050565b600033905090565b600061134f836000018373ffffffffffffffffffffffffffffffffffffffff1660001b611824565b905092915050565b600061136582600001611938565b9050919050565b600061137b8360000183611949565b60001c905092915050565b61138e6107f1565b6113cd576040517f08c379a00000000000000000000000000000000000000000000000000000000081526004016113c49061236c565b60405180910390fd5b60008060146101000a81548160ff0219169083151502179055507f5db9ee0a495bf2e6ff9c91a7834c1ba4fdd244a5e8aa4e537bd38aeae4b073aa61141061131f565b60405161141d9190612236565b60405180910390a1565b600061144f836000018373ffffffffffffffffffffffffffffffffffffffff1660001b611974565b905092915050565b60008060009054906101000a900473ffffffffffffffffffffffffffffffffffffffff169050816000806101000a81548173ffffffffffffffffffffffffffffffffffffffff021916908373ffffffffffffffffffffffffffffffffffffffff1602179055508173ffffffffffffffffffffffffffffffffffffffff168173ffffffffffffffffffffffffffffffffffffffff167f8be0079c531659141344cd1fd0a4f28419497f9722a3daafe3b4186f6b6457e060405160405180910390a35050565b6115236107f1565b15611563576040517f08c379a000000000000000000000000000000000000000000000000000000000815260040161155a906123cc565b60405180910390fd5b6001600060146101000a81548160ff0219169083151502179055507f62e78cea01bee320cd4e420270b5ea74000d11b0c9f74754ebdbfc544b05a2586115a761131f565b6040516115b49190612236565b60405180910390a1565b60006115ea827f01ffc9a70000000000000000000000000000000000000000000000000000000061160b565b801561160457506116028263ffffffff60e01b61160b565b155b9050919050565b6000806301ffc9a760e01b8360405160240161162791906122fb565b604051602081830303815290604052907bffffffffffffffffffffffffffffffffffffffffffffffffffffffff19166020820180517bffffffffffffffffffffffffffffffffffffffffffffffffffffffff838183161783525050505090506000808573ffffffffffffffffffffffffffffffffffffffff16617530846040516116b1919061221f565b6000604051808303818686fa925050503d80600081146116ed576040519150601f19603f3d011682016040523d82523d6000602084013e6116f2565b606091505b509150915060208151101561170d5760009350505050611730565b81801561172a5750808060200190518101906117299190611d7c565b5b93505050505b92915050565b60007f01ffc9a7000000000000000000000000000000000000000000000000000000007bffffffffffffffffffffffffffffffffffffffffffffffffffffffff1916827bffffffffffffffffffffffffffffffffffffffffffffffffffffffff1916149050919050565b6000637005caad60e01b7bffffffffffffffffffffffffffffffffffffffffffffffffffffffff1916827bffffffffffffffffffffffffffffffffffffffffffffffffffffffff191614806117fa57506117f9826111fb565b5b9050919050565b600080836001016000848152602001908152602001600020541415905092915050565b6000808360010160008481526020019081526020016000205490506000811461192c576000600182611856919061266d565b905060006001866000018054905061186e919061266d565b90508181146118dd57600086600001828154811061188f5761188e6127fe565b5b90600052602060002001549050808760000184815481106118b3576118b26127fe565b5b90600052602060002001819055508387600101600083815260200190815260200160002081905550505b856000018054806118f1576118f06127cf565b5b600190038181906000526020600020016000905590558560010160008681526020019081526020016000206000905560019350505050611932565b60009150505b92915050565b600081600001805490509050919050565b6000826000018281548110611961576119606127fe565b5b9060005260206000200154905092915050565b60006119808383611801565b6119d95782600001829080600181540180825580915050600190039060005260206000200160009091909190915055826000018054905083600101600084815260200190815260200160002081905550600190506119de565b600090505b92915050565b6000813590506119f381612a8c565b92915050565b60008083601f840112611a0f57611a0e612866565b5b8235905067ffffffffffffffff811115611a2c57611a2b612861565b5b602083019150836020820283011115611a4857611a4761287a565b5b9250929050565b60008083601f840112611a6557611a64612866565b5b8235905067ffffffffffffffff811115611a8257611a81612861565b5b602083019150836020820283011115611a9e57611a9d61287a565b5b9250929050565b60008083601f840112611abb57611aba612866565b5b8235905067ffffffffffffffff811115611ad857611ad7612861565b5b602083019150836020820283011115611af457611af361287a565b5b9250929050565b600081359050611b0a81612aa3565b92915050565b600081519050611b1f81612aa3565b92915050565b600081359050611b3481612aba565b92915050565b60008083601f840112611b5057611b4f612866565b5b8235905067ffffffffffffffff811115611b6d57611b6c612861565b5b602083019150836001820283011115611b8957611b8861287a565b5b9250929050565b600081359050611b9f81612ad1565b92915050565b600081519050611bb481612ad1565b92915050565b600060208284031215611bd057611bcf612893565b5b6000611bde848285016119e4565b91505092915050565b600080600060608486031215611c0057611bff612893565b5b6000611c0e868287016119e4565b9350506020611c1f868287016119e4565b9250506040611c3086828701611b90565b9150509250925092565b60008060408385031215611c5157611c50612893565b5b6000611c5f858286016119e4565b9250506020611c7085828601611afb565b9150509250929050565b60008060008060408587031215611c9457611c93612893565b5b600085013567ffffffffffffffff811115611cb257611cb1612884565b5b611cbe878288016119f9565b9450945050602085013567ffffffffffffffff811115611ce157611ce0612884565b5b611ced87828801611a4f565b925092505092959194509250565b60008060008060408587031215611d1557611d14612893565b5b600085013567ffffffffffffffff811115611d3357611d32612884565b5b611d3f87828801611aa5565b9450945050602085013567ffffffffffffffff811115611d6257611d61612884565b5b611d6e87828801611a4f565b925092505092959194509250565b600060208284031215611d9257611d91612893565b5b6000611da084828501611b10565b91505092915050565b600060208284031215611dbf57611dbe612893565b5b6000611dcd84828501611b25565b91505092915050565b60008060208385031215611ded57611dec612893565b5b600083013567ffffffffffffffff811115611e0b57611e0a612884565b5b611e1785828601611b3a565b92509250509250929050565b600080600060408486031215611e3c57611e3b612893565b5b600084013567ffffffffffffffff811115611e5a57611e59612884565b5b611e6686828701611b3a565b93509350506020611e7986828701611afb565b9150509250925092565b600060208284031215611e9957611e98612893565b5b6000611ea784828501611ba5565b91505092915050565b6000611ebc8383611ede565b60208301905092915050565b6000611ed584848461207b565b90509392505050565b611ee7816126a1565b82525050565b611ef6816126a1565b82525050565b6000611f0782612524565b611f118185612554565b9350611f1c8361250a565b8060005b83811015611f4d578151611f348882611eb0565b9750611f3f8361253a565b925050600181019050611f20565b5085935050505092915050565b6000611f668385612565565b935083602084028501611f788461251a565b8060005b87811015611fbe578484038952611f9382846125b4565b611f9e868284611ec8565b9550611fa984612547565b935060208b019a505050600181019050611f7c565b50829750879450505050509392505050565b6000611fdc8385612576565b93507f07ffffffffffffffffffffffffffffffffffffffffffffffffffffffffffffff83111561200f5761200e612889565b5b602083029250612020838584612715565b82840190509392505050565b612035816126b3565b82525050565b612044816126bf565b82525050565b60006120558261252f565b61205f8185612587565b935061206f818560208601612724565b80840191505092915050565b60006120878385612592565b9350612094838584612715565b61209d83612898565b840190509392505050565b60006120b483856125a3565b93506120c1838584612715565b6120ca83612898565b840190509392505050565b60006120e26014836125a3565b91506120ed826128a9565b602082019050919050565b60006121056026836125a3565b9150612110826128d2565b604082019050919050565b6000612128600e836125a3565b915061213382612921565b602082019050919050565b600061214b6010836125a3565b91506121568261294a565b602082019050919050565b600061216e6029836125a3565b915061217982612973565b604082019050919050565b60006121916020836125a3565b915061219c826129c2565b602082019050919050565b60006121b4601e836125a3565b91506121bf826129eb565b602082019050919050565b60006121d7600f836125a3565b91506121e282612a14565b602082019050919050565b60006121fa6024836125a3565b915061220582612a3d565b604082019050919050565b6122198161270b565b82525050565b600061222b828461204a565b915081905092915050565b600060208201905061224b6000830184611eed565b92915050565b60006040820190506122666000830186611eed565b81810360208301526122798184866120a8565b9050949350505050565b6000602082019050818103600083015261229d8184611efc565b905092915050565b600060408201905081810360008301526122c0818688611fd0565b905081810360208301526122d5818486611f5a565b905095945050505050565b60006020820190506122f5600083018461202c565b92915050565b6000602082019050612310600083018461203b565b92915050565b600060208201905081810360008301526123318184866120a8565b90509392505050565b600060408201905081810360008301526123558185876120a8565b9050612364602083018461202c565b949350505050565b60006020820190508181036000830152612385816120d5565b9050919050565b600060208201905081810360008301526123a5816120f8565b9050919050565b600060208201905081810360008301526123c58161211b565b9050919050565b600060208201905081810360008301526123e58161213e565b9050919050565b6000602082019050818103600083015261240581612161565b9050919050565b6000602082019050818103600083015261242581612184565b9050919050565b60006020820190508181036000830152612445816121a7565b9050919050565b60006020820190508181036000830152612465816121ca565b9050919050565b60006020820190508181036000830152612485816121ed565b9050919050565b60006020820190506124a16000830184612210565b92915050565b600080833560016020038436030381126124c4576124c3612870565b5b80840192508235915067ffffffffffffffff8211156124e6576124e561286b565b5b6020830192506001820236038313156125025761250161287f565b5b509250929050565b6000819050602082019050919050565b6000819050919050565b600081519050919050565b600081519050919050565b6000602082019050919050565b6000602082019050919050565b600082825260208201905092915050565b600082825260208201905092915050565b600082825260208201905092915050565b600081905092915050565b600082825260208201905092915050565b600082825260208201905092915050565b600080833560016020038436030381126125d1576125d061288e565b5b83810192508235915060208301925067ffffffffffffffff8211156125f9576125f861285c565b5b60018202360384131561260f5761260e612875565b5b509250929050565b60006126228261270b565b915061262d8361270b565b9250827fffffffffffffffffffffffffffffffffffffffffffffffffffffffffffffffff03821115612662576126616127a0565b5b828201905092915050565b60006126788261270b565b91506126838361270b565b925082821015612696576126956127a0565b5b828203905092915050565b60006126ac826126eb565b9050919050565b60008115159050919050565b60007fffffffff0000000000000000000000000000000000000000000000000000000082169050919050565b600073ffffffffffffffffffffffffffffffffffffffff82169050919050565b6000819050919050565b82818337600083830152505050565b60005b83811015612742578082015181840152602081019050612727565b83811115612751576000848401525b50505050565b60006127628261270b565b91507fffffffffffffffffffffffffffffffffffffffffffffffffffffffffffffffff821415612795576127946127a0565b5b600182019050919050565b7f4e487b7100000000000000000000000000000000000000000000000000000000600052601160045260246000fd5b7f4e487b7100000000000000000000000000000000000000000000000000000000600052603160045260246000fd5b7f4e487b7100000000000000000000000000000000000000000000000000000000600052603260045260246000fd5b7f4e487b7100000000000000000000000000000000000000000000000000000000600052604160045260246000fd5b600080fd5b600080fd5b600080fd5b600080fd5b600080fd5b600080fd5b600080fd5b600080fd5b600080fd5b600080fd5b600080fd5b600080fd5b6000601f19601f8301169050919050565b7f5061757361626c653a206e6f7420706175736564000000000000000000000000600082015250565b7f4f776e61626c653a206e6577206f776e657220697320746865207a65726f206160008201527f6464726573730000000000000000000000000000000000000000000000000000602082015250565b7f496e76616c69642063616c6c6572000000000000000000000000000000000000600082015250565b7f5061757361626c653a2070617573656400000000000000000000000000000000600082015250565b7f63726561746f72206d75737420696d706c656d656e742049455243373231437260008201527f6561746f72436f72650000000000000000000000000000000000000000000000602082015250565b7f4f776e61626c653a2063616c6c6572206973206e6f7420746865206f776e6572600082015250565b7f546f6b656e73206172656e2774207472616e7366657261626c65206e6f770000600082015250565b7f4c656e677468206d69736d617463680000000000000000000000000000000000600082015250565b7f41646d696e436f6e74726f6c3a204d757374206265206f776e6572206f72206160008201527f646d696e00000000000000000000000000000000000000000000000000000000602082015250565b612a95816126a1565b8114612aa057600080fd5b50565b612aac816126b3565b8114612ab757600080fd5b50565b612ac3816126bf565b8114612ace57600080fd5b50565b612ada8161270b565b8114612ae557600080fd5b5056fea2646970667358221220bbb4ddd1f9bf2dc66d205d64e5753f0e1b511fef1ded4b8ef30cfc97680e268a64736f6c63430008070033"
  }
}