{"compiler":"v0.8.6+commit.11564f7e","opcodeHash":"0x3cf3d239030d077018636916149129cf9ba2a96e77a82260d07ab63464c3a52a","metalessHash":"0xc3a2c863facc7c81d31cdd323a1271a69b7c1911ebcd9555b82a9b9231bf84a0","runtimeHash":"0xe6b7899ea29a1b39e23eb1b00d57b3ebe0b7f660e6440ce6a43c7854cd20bb3a","encodedMetadata":[{"ipfs":"/ipfs/QmZWhiEqjdFXBHQUyZ8UGFdPLr6Xwz5gyWZD6CRcXwXmtA","solc":"0.8.6"}],"abi":[{"inputs":[{"internalType":"address","name":"to","type":"address"}],"stateMutability":"nonpayable","type":"constructor"},{"anonymous":false,"inputs":[{"indexed":true,"internalType":"address","name":"owner","type":"address"},{"indexed":true,"internalType":"address","name":"spender","type":"address"},{"indexed":false,"internalType":"uint256","name":"value","type":"uint256"}],"name":"Approval","type":"event"},{"anonymous":false,"inputs":[{"indexed":true,"internalType":"bytes32","name":"role","type":"bytes32"},{"indexed":true,"internalType":"bytes32","name":"previousAdminRole","type":"bytes32"},{"indexed":true,"internalType":"bytes32","name":"newAdminRole","type":"bytes32"}],"name":"RoleAdminChanged","type":"event"},{"anonymous":false,"inputs":[{"indexed":true,"internalType":"bytes32","name":"role","type":"bytes32"},{"indexed":true,"internalType":"address","name":"account","type":"address"},{"indexed":true,"internalType":"address","name":"sender","type":"address"}],"name":"RoleGranted","type":"event"},{"anonymous":false,"inputs":[{"indexed":true,"internalType":"bytes32","name":"role","type":"bytes32"},{"indexed":true,"internalType":"address","name":"account","type":"address"},{"indexed":true,"internalType":"address","name":"sender","type":"address"}],"name":"RoleRevoked","type":"event"},{"anonymous":false,"inputs":[{"indexed":false,"internalType":"uint256","name":"id","type":"uint256"}],"name":"Snapshot","type":"event"},{"anonymous":false,"inputs":[{"indexed":true,"internalType":"address","name":"from","type":"address"},{"indexed":true,"internalType":"address","name":"to","type":"address"},{"indexed":false,"internalType":"uint256","name":"value","type":"uint256"},{"indexed":false,"internalType":"bytes","name":"data","type":"bytes"}],"name":"Transfer","type":"event"},{"anonymous":false,"inputs":[{"indexed":true,"internalType":"address","name":"from","type":"address"},{"indexed":true,"internalType":"address","name":"to","type":"address"},{"indexed":false,"internalType":"uint256","name":"value","type":"uint256"}],"name":"Transfer","type":"event"},{"inputs":[],"name":"BURNER_ROLE","outputs":[{"internalType":"bytes32","name":"","type":"bytes32"}],"stateMutability":"view","type":"function"},{"inputs":[],"name":"DEFAULT_ADMIN_ROLE","outputs":[{"internalType":"bytes32","name":"","type":"bytes32"}],"stateMutability":"view","type":"function"},{"inputs":[],"name":"ERC712_VERSION","outputs":[{"internalType":"string","name":"","type":"string"}],"stateMutability":"view","type":"function"},{"inputs":[],"name":"INITIAL_SUPPLY","outputs":[{"internalType":"uint256","name":"","type":"uint256"}],"stateMutability":"view","type":"function"},{"inputs":[{"internalType":"address","name":"owner","type":"address"},{"internalType":"address","name":"spender","type":"address"}],"name":"allowance","outputs":[{"internalType":"uint256","name":"","type":"uint256"}],"stateMutability":"view","type":"function"},{"inputs":[{"internalType":"address","name":"spender","type":"address"},{"internalType":"uint256","name":"amount","type":"uint256"}],"name":"approve","outputs":[{"internalType":"bool","name":"","type":"bool"}],"stateMutability":"nonpayable","type":"function"},{"inputs":[{"internalType":"address","name":"account","type":"address"}],"name":"balanceOf","outputs":[{"internalType":"uint256","name":"","type":"uint256"}],"stateMutability":"view","type":"function"},{"inputs":[{"internalType":"address","name":"account","type":"address"},{"internalType":"uint256","name":"snapshotId","type":"uint256"}],"name":"balanceOfAt","outputs":[{"internalType":"uint256","name":"","type":"uint256"}],"stateMutability":"view","type":"function"},{"inputs":[{"internalType":"uint256","name":"amount","type":"uint256"}],"name":"burn","outputs":[],"stateMutability":"nonpayable","type":"function"},{"inputs":[],"name":"decimals","outputs":[{"internalType":"uint8","name":"","type":"uint8"}],"stateMutability":"view","type":"function"},{"inputs":[{"internalType":"address","name":"spender","type":"address"},{"internalType":"uint256","name":"subtractedValue","type":"uint256"}],"name":"decreaseAllowance","outputs":[{"internalType":"bool","name":"","type":"bool"}],"stateMutability":"nonpayable","type":"function"},{"inputs":[],"name":"getChainId","outputs":[{"internalType":"uint256","name":"","type":"uint256"}],"stateMutability":"view","type":"function"},{"inputs":[],"name":"getDomainSeperator","outputs":[{"internalType":"bytes32","name":"","type":"bytes32"}],"stateMutability":"view","type":"function"},{"inputs":[{"internalType":"bytes32","name":"role","type":"bytes32"}],"name":"getRoleAdmin","outputs":[{"internalType":"bytes32","name":"","type":"bytes32"}],"stateMutability":"view","type":"function"},{"inputs":[{"internalType":"bytes32","name":"role","type":"bytes32"},{"internalType":"address","name":"account","type":"address"}],"name":"grantRole","outputs":[],"stateMutability":"nonpayable","type":"function"},{"inputs":[{"internalType":"bytes32","name":"role","type":"bytes32"},{"internalType":"address","name":"account","type":"address"}],"name":"hasRole","outputs":[{"internalType":"bool","name":"","type":"bool"}],"stateMutability":"view","type":"function"},{"inputs":[{"internalType":"address","name":"spender","type":"address"},{"internalType":"uint256","name":"addedValue","type":"uint256"}],"name":"increaseAllowance","outputs":[{"internalType":"bool","name":"","type":"bool"}],"stateMutability":"nonpayable","type":"function"},{"inputs":[],"name":"name","outputs":[{"internalType":"string","name":"","type":"string"}],"stateMutability":"view","type":"function"},{"inputs":[{"internalType":"bytes32","name":"role","type":"bytes32"},{"internalType":"address","name":"account","type":"address"}],"name":"renounceRole","outputs":[],"stateMutability":"nonpayable","type":"function"},{"inputs":[{"internalType":"bytes32","name":"role","type":"bytes32"},{"internalType":"address","name":"account","type":"address"}],"name":"revokeRole","outputs":[],"stateMutability":"nonpayable","type":"function"},{"inputs":[],"name":"snapshot","outputs":[],"stateMutability":"nonpayable","type":"function"},{"inputs":[{"internalType":"bytes4","name":"interfaceId","type":"bytes4"}],"name":"supportsInterface","outputs":[{"internalType":"bool","name":"","type":"bool"}],"stateMutability":"view","type":"function"},{"inputs":[],"name":"symbol","outputs":[{"internalType":"string","name":"","type":"string"}],"stateMutability":"view","type":"function"},{"inputs":[],"name":"totalSupply","outputs":[{"internalType":"uint256","name":"","type":"uint256"}],"stateMutability":"view","type":"function"},{"inputs":[{"internalType":"uint256","name":"snapshotId","type":"uint256"}],"name":"totalSupplyAt","outputs":[{"internalType":"uint256","name":"","type":"uint256"}],"stateMutability":"view","type":"function"},{"inputs":[{"internalType":"address","name":"recipient","type":"address"},{"internalType":"uint256","name":"amount","type":"uint256"}],"name":"transfer","outputs":[{"internalType":"bool","name":"","type":"bool"}],"stateMutability":"nonpayable","type":"function"},{"inputs":[{"internalType":"address","name":"_to","type":"address"},{"internalType":"uint256","name":"_value","type":"uint256"},{"internalType":"bytes","name":"_data","type":"bytes"}],"name":"transferAndCall","outputs":[{"internalType":"bool","name":"success","type":"bool"}],"stateMutability":"nonpayable","type":"function"},{"inputs":[{"internalType":"address","name":"sender","type":"address"},{"internalType":"address","name":"recipient","type":"address"},{"internalType":"uint256","name":"amount","type":"uint256"}],"name":"transferFrom","outputs":[{"internalType":"bool","name":"","type":"bool"}],"stateMutability":"nonpayable","type":"function"}],"bytecode":{"object":"60806040526000600a60006101000a81548160ff0219169083151502179055503480156200002c57600080fd5b5060405162003c8938038062003c89833981810160405281019062000052919062000925565b6040518060400160405280600981526020017f54737420546f6b656e00000000000000000000000000000000000000000000008152506040518060400160405280600381526020017f54535400000000000000000000000000000000000000000000000000000000008152508160039080519060200190620000d69291906200085e565b508060049080519060200190620000ef9291906200085e565b50505062000110816b033b2e3c9fd0803ce80000006200017260201b60201c565b620001566040518060400160405280600981526020017f54737420546f6b656e0000000000000000000000000000000000000000000000815250620002d760201b60201c565b6200016b6000801b826200035960201b60201c565b5062000cbb565b600073ffffffffffffffffffffffffffffffffffffffff168273ffffffffffffffffffffffffffffffffffffffff161415620001e5576040517f08c379a0000000000000000000000000000000000000000000000000000000008152600401620001dc9062000a57565b60405180910390fd5b620001f9600083836200036f60201b60201c565b80600260008282546200020d919062000aa7565b92505081905550806000808473ffffffffffffffffffffffffffffffffffffffff1673ffffffffffffffffffffffffffffffffffffffff168152602001908152602001600020600082825462000264919062000aa7565b925050819055508173ffffffffffffffffffffffffffffffffffffffff16600073ffffffffffffffffffffffffffffffffffffffff167fddf252ad1be2c89b69c2b068fc378daa952ba7f163c4a11628f55a4df523b3ef83604051620002cb919062000a79565b60405180910390a35050565b600a60009054906101000a900460ff16156200032a576040517f08c379a0000000000000000000000000000000000000000000000000000000008152600401620003219062000a35565b60405180910390fd5b6200033b816200046a60201b60201c565b6001600a60006101000a81548160ff02191690831515021790555050565b6200036b82826200051960201b60201c565b5050565b620003878383836200060b60201b620010711760201c565b600073ffffffffffffffffffffffffffffffffffffffff168373ffffffffffffffffffffffffffffffffffffffff161415620003e457620003ce826200061060201b60201c565b620003de6200067360201b60201c565b62000465565b600073ffffffffffffffffffffffffffffffffffffffff168273ffffffffffffffffffffffffffffffffffffffff16141562000441576200042b836200061060201b60201c565b6200043b6200067360201b60201c565b62000464565b62000452836200061060201b60201c565b62000463826200061060201b60201c565b5b5b505050565b6040518060800160405280604f815260200162003c3a604f91398051906020012081805190602001206040518060400160405280600181526020017f31000000000000000000000000000000000000000000000000000000000000008152508051906020012030620004e16200069760201b60201c565b60001b604051602001620004fa959493929190620009d8565b60405160208183030381529060405280519060200120600b8190555050565b6200052b8282620006a460201b60201c565b620006075760016009600084815260200190815260200160002060000160008373ffffffffffffffffffffffffffffffffffffffff1673ffffffffffffffffffffffffffffffffffffffff16815260200190815260200160002060006101000a81548160ff021916908315150217905550620005ac6200070f60201b60201c565b73ffffffffffffffffffffffffffffffffffffffff168173ffffffffffffffffffffffffffffffffffffffff16837f2f8788117e7eff1d82e926ec794901d17c78024a50270940304540a733656f0d60405160405180910390a45b5050565b505050565b62000670600560008373ffffffffffffffffffffffffffffffffffffffff1673ffffffffffffffffffffffffffffffffffffffff16815260200190815260200160002062000664836200071760201b60201c565b6200075f60201b60201c565b50565b62000695600662000689620007f260201b60201c565b6200075f60201b60201c565b565b6000804690508091505090565b60006009600084815260200190815260200160002060000160008373ffffffffffffffffffffffffffffffffffffffff1673ffffffffffffffffffffffffffffffffffffffff16815260200190815260200160002060009054906101000a900460ff16905092915050565b600033905090565b60008060008373ffffffffffffffffffffffffffffffffffffffff1673ffffffffffffffffffffffffffffffffffffffff168152602001908152602001600020549050919050565b6000620007786008620007fc60201b620010761760201c565b9050806200078f846000016200080a60201b60201c565b1015620007ed5782600001819080600181540180825580915050600190039060005260206000200160009091909190915055826001018290806001815401808255809150506001900390600052602060002001600090919091909150555b505050565b6000600254905090565b600081600001549050919050565b6000808280549050141562000823576000905062000859565b816001838054905062000837919062000b04565b815481106200084b576200084a62000c1b565b5b906000526020600020015490505b919050565b8280546200086c9062000b87565b90600052602060002090601f016020900481019282620008905760008555620008dc565b82601f10620008ab57805160ff1916838001178555620008dc565b82800160010185558215620008dc579182015b82811115620008db578251825591602001919060010190620008be565b5b509050620008eb9190620008ef565b5090565b5b808211156200090a576000816000905550600101620008f0565b5090565b6000815190506200091f8162000ca1565b92915050565b6000602082840312156200093e576200093d62000c4a565b5b60006200094e848285016200090e565b91505092915050565b620009628162000b3f565b82525050565b620009738162000b53565b82525050565b600062000988600e8362000a96565b9150620009958262000c4f565b602082019050919050565b6000620009af601f8362000a96565b9150620009bc8262000c78565b602082019050919050565b620009d28162000b7d565b82525050565b600060a082019050620009ef600083018862000968565b620009fe602083018762000968565b62000a0d604083018662000968565b62000a1c606083018562000957565b62000a2b608083018462000968565b9695505050505050565b6000602082019050818103600083015262000a508162000979565b9050919050565b6000602082019050818103600083015262000a7281620009a0565b9050919050565b600060208201905062000a906000830184620009c7565b92915050565b600082825260208201905092915050565b600062000ab48262000b7d565b915062000ac18362000b7d565b9250827fffffffffffffffffffffffffffffffffffffffffffffffffffffffffffffffff0382111562000af95762000af862000bbd565b5b828201905092915050565b600062000b118262000b7d565b915062000b1e8362000b7d565b92508282101562000b345762000b3362000bbd565b5b828203905092915050565b600062000b4c8262000b5d565b9050919050565b6000819050919050565b600073ffffffffffffffffffffffffffffffffffffffff82169050919050565b6000819050919050565b6000600282049050600182168062000ba057607f821691505b6020821081141562000bb75762000bb662000bec565b5b50919050565b7f4e487b7100000000000000000000000000000000000000000000000000000000600052601160045260246000fd5b7f4e487b7100000000000000000000000000000000000000000000000000000000600052602260045260246000fd5b7f4e487b7100000000000000000000000000000000000000000000000000000000600052603260045260246000fd5b600080fd5b7f616c726561647920696e69746564000000000000000000000000000000000000600082015250565b7f45524332303a206d696e7420746f20746865207a65726f206164647265737300600082015250565b62000cac8162000b3f565b811462000cb857600080fd5b50565b612f6f8062000ccb6000396000f3fe608060405234801561001057600080fd5b50600436106101c45760003560e01c806339509351116100f95780639711715a11610097578063a457c2d711610071578063a457c2d714610533578063a9059cbb14610563578063d547741f14610593578063dd62ed3e146105af576101c4565b80639711715a146104db578063981b24d0146104e5578063a217fddf14610515576101c4565b80634ee2cd7e116100d35780634ee2cd7e1461042d57806370a082311461045d57806391d148541461048d57806395d89b41146104bd576101c4565b806339509351146103b15780634000aea0146103e157806342966c6814610411576101c4565b8063248a9ca3116101665780632ff2e9dc116101405780632ff2e9dc1461033b578063313ce567146103595780633408e4701461037757806336568abe14610395576101c4565b8063248a9ca3146102d1578063282c51f3146103015780632f2ff15d1461031f576101c4565b80630f7e5970116101a25780630f7e59701461024757806318160ddd1461026557806320379ee51461028357806323b872dd146102a1576101c4565b806301ffc9a7146101c957806306fdde03146101f9578063095ea7b314610217575b600080fd5b6101e360048036038101906101de919061201c565b6105df565b6040516101f091906123c4565b60405180910390f35b610201610659565b60405161020e91906123fa565b60405180910390f35b610231600480360381019061022c9190611f00565b6106eb565b60405161023e91906123c4565b60405180910390f35b61024f610709565b60405161025c91906123fa565b60405180910390f35b61026d610742565b60405161027a919061263c565b60405180910390f35b61028b61074c565b60405161029891906123df565b60405180910390f35b6102bb60048036038101906102b69190611ead565b610756565b6040516102c891906123c4565b60405180910390f35b6102eb60048036038101906102e69190611faf565b610857565b6040516102f891906123df565b60405180910390f35b610309610877565b60405161031691906123df565b60405180910390f35b61033960048036038101906103349190611fdc565b61089b565b005b610343610901565b604051610350919061263c565b60405180910390f35b610361610911565b60405161036e9190612687565b60405180910390f35b61037f61091a565b60405161038c919061263c565b60405180910390f35b6103af60048036038101906103aa9190611fdc565b610927565b005b6103cb60048036038101906103c69190611f00565b6109aa565b6040516103d891906123c4565b60405180910390f35b6103fb60048036038101906103f69190611f40565b610a56565b60405161040891906123c4565b60405180910390f35b61042b60048036038101906104269190612049565b610b67565b005b61044760048036038101906104429190611f00565b610c27565b604051610454919061263c565b60405180910390f35b61047760048036038101906104729190611e40565b610c97565b604051610484919061263c565b60405180910390f35b6104a760048036038101906104a29190611fdc565b610cdf565b6040516104b491906123c4565b60405180910390f35b6104c5610d4a565b6040516104d291906123fa565b60405180910390f35b6104e3610ddc565b005b6104ff60048036038101906104fa9190612049565b610e3a565b60405161050c919061263c565b60405180910390f35b61051d610e6b565b60405161052a91906123df565b60405180910390f35b61054d60048036038101906105489190611f00565b610e72565b60405161055a91906123c4565b60405180910390f35b61057d60048036038101906105789190611f00565b610f66565b60405161058a91906123c4565b60405180910390f35b6105ad60048036038101906105a89190611fdc565b610f84565b005b6105c960048036038101906105c49190611e6d565b610fea565b6040516105d6919061263c565b60405180910390f35b60007f7965db0b000000000000000000000000000000000000000000000000000000007bffffffffffffffffffffffffffffffffffffffffffffffffffffffff1916827bffffffffffffffffffffffffffffffffffffffffffffffffffffffff19161480610652575061065182611084565b5b9050919050565b606060038054610668906128b8565b80601f0160208091040260200160405190810160405280929190818152602001828054610694906128b8565b80156106e15780601f106106b6576101008083540402835291602001916106e1565b820191906000526020600020905b8154815290600101906020018083116106c457829003601f168201915b5050505050905090565b60006106ff6106f86110ee565b84846110f6565b6001905092915050565b6040518060400160405280600181526020017f310000000000000000000000000000000000000000000000000000000000000081525081565b6000600254905090565b6000600b54905090565b60006107638484846112c1565b6000600160008673ffffffffffffffffffffffffffffffffffffffff1673ffffffffffffffffffffffffffffffffffffffff16815260200190815260200160002060006107ae6110ee565b73ffffffffffffffffffffffffffffffffffffffff1673ffffffffffffffffffffffffffffffffffffffff1681526020019081526020016000205490508281101561082e576040517f08c379a00000000000000000000000000000000000000000000000000000000081526004016108259061253c565b60405180910390fd5b61084b8561083a6110ee565b858461084691906127b7565b6110f6565b60019150509392505050565b600060096000838152602001908152602001600020600101549050919050565b7f3c11d16cbaffd01df69ce1c404f6340ee057498f5f00246190ea54220576a84881565b6108b46108a783610857565b6108af6110ee565b610cdf565b6108f3576040517f08c379a00000000000000000000000000000000000000000000000000000000081526004016108ea9061247c565b60405180910390fd5b6108fd8282611540565b5050565b6b033b2e3c9fd0803ce800000081565b60006012905090565b6000804690508091505090565b61092f6110ee565b73ffffffffffffffffffffffffffffffffffffffff168173ffffffffffffffffffffffffffffffffffffffff161461099c576040517f08c379a00000000000000000000000000000000000000000000000000000000081526004016109939061261c565b60405180910390fd5b6109a68282611621565b5050565b6000610a4c6109b76110ee565b8484600160006109c56110ee565b73ffffffffffffffffffffffffffffffffffffffff1673ffffffffffffffffffffffffffffffffffffffff16815260200190815260200160002060008873ffffffffffffffffffffffffffffffffffffffff1673ffffffffffffffffffffffffffffffffffffffff16815260200190815260200160002054610a479190612730565b6110f6565b6001905092915050565b6000610a628484610f66565b508373ffffffffffffffffffffffffffffffffffffffff16610a826110ee565b73ffffffffffffffffffffffffffffffffffffffff167fe19260aff97b920c7df27010903aeb9c8d2be5d310a2c67824cf3f15396e4c168585604051610ac9929190612657565b60405180910390a3610ada84611703565b15610b5c5760008490508073ffffffffffffffffffffffffffffffffffffffff1663a4c0ed36610b086110ee565b86866040518463ffffffff1660e01b8152600401610b2893929190612386565b600060405180830381600087803b158015610b4257600080fd5b505af1158015610b56573d6000803e3d6000fd5b50505050505b600190509392505050565b610b987f3c11d16cbaffd01df69ce1c404f6340ee057498f5f00246190ea54220576a848610b936110ee565b610cdf565b610bd7576040517f08c379a0000000000000000000000000000000000000000000000000000000008152600401610bce9061251c565b60405180910390fd5b60008111610c1a576040517f08c379a0000000000000000000000000000000000000000000000000000000008152600401610c11906125dc565b60405180910390fd5b610c243382611716565b50565b6000806000610c7484600560008873ffffffffffffffffffffffffffffffffffffffff1673ffffffffffffffffffffffffffffffffffffffff1681526020019081526020016000206118ea565b9150915081610c8b57610c8685610c97565b610c8d565b805b9250505092915050565b60008060008373ffffffffffffffffffffffffffffffffffffffff1673ffffffffffffffffffffffffffffffffffffffff168152602001908152602001600020549050919050565b60006009600084815260200190815260200160002060000160008373ffffffffffffffffffffffffffffffffffffffff1673ffffffffffffffffffffffffffffffffffffffff16815260200190815260200160002060009054906101000a900460ff16905092915050565b606060048054610d59906128b8565b80601f0160208091040260200160405190810160405280929190818152602001828054610d85906128b8565b8015610dd25780601f10610da757610100808354040283529160200191610dd2565b820191906000526020600020905b815481529060010190602001808311610db557829003601f168201915b5050505050905090565b610df06000801b610deb6110ee565b610cdf565b610e2f576040517f08c379a0000000000000000000000000000000000000000000000000000000008152600401610e269061241c565b60405180910390fd5b610e376119e2565b50565b6000806000610e4a8460066118ea565b9150915081610e6057610e5b610742565b610e62565b805b92505050919050565b6000801b81565b60008060016000610e816110ee565b73ffffffffffffffffffffffffffffffffffffffff1673ffffffffffffffffffffffffffffffffffffffff16815260200190815260200160002060008573ffffffffffffffffffffffffffffffffffffffff1673ffffffffffffffffffffffffffffffffffffffff16815260200190815260200160002054905082811015610f3e576040517f08c379a0000000000000000000000000000000000000000000000000000000008152600401610f35906125fc565b60405180910390fd5b610f5b610f496110ee565b858584610f5691906127b7565b6110f6565b600191505092915050565b6000610f7a610f736110ee565b84846112c1565b6001905092915050565b610f9d610f9083610857565b610f986110ee565b610cdf565b610fdc576040517f08c379a0000000000000000000000000000000000000000000000000000000008152600401610fd3906124fc565b60405180910390fd5b610fe68282611621565b5050565b6000600160008473ffffffffffffffffffffffffffffffffffffffff1673ffffffffffffffffffffffffffffffffffffffff16815260200190815260200160002060008373ffffffffffffffffffffffffffffffffffffffff1673ffffffffffffffffffffffffffffffffffffffff16815260200190815260200160002054905092915050565b505050565b600081600001549050919050565b60007f01ffc9a7000000000000000000000000000000000000000000000000000000007bffffffffffffffffffffffffffffffffffffffffffffffffffffffff1916827bffffffffffffffffffffffffffffffffffffffffffffffffffffffff1916149050919050565b600033905090565b600073ffffffffffffffffffffffffffffffffffffffff168373ffffffffffffffffffffffffffffffffffffffff161415611166576040517f08c379a000000000000000000000000000000000000000000000000000000000815260040161115d9061259c565b60405180910390fd5b600073ffffffffffffffffffffffffffffffffffffffff168273ffffffffffffffffffffffffffffffffffffffff1614156111d6576040517f08c379a00000000000000000000000000000000000000000000000000000000081526004016111cd906124bc565b60405180910390fd5b80600160008573ffffffffffffffffffffffffffffffffffffffff1673ffffffffffffffffffffffffffffffffffffffff16815260200190815260200160002060008473ffffffffffffffffffffffffffffffffffffffff1673ffffffffffffffffffffffffffffffffffffffff168152602001908152602001600020819055508173ffffffffffffffffffffffffffffffffffffffff168373ffffffffffffffffffffffffffffffffffffffff167f8c5be1e5ebec7d5bd14f71427d1e84f3dd0314c0f7b2291e5b200ac8c7c3b925836040516112b4919061263c565b60405180910390a3505050565b600073ffffffffffffffffffffffffffffffffffffffff168373ffffffffffffffffffffffffffffffffffffffff161415611331576040517f08c379a00000000000000000000000000000000000000000000000000000000081526004016113289061257c565b60405180910390fd5b600073ffffffffffffffffffffffffffffffffffffffff168273ffffffffffffffffffffffffffffffffffffffff1614156113a1576040517f08c379a00000000000000000000000000000000000000000000000000000000081526004016113989061245c565b60405180910390fd5b6113ac838383611a3a565b60008060008573ffffffffffffffffffffffffffffffffffffffff1673ffffffffffffffffffffffffffffffffffffffff16815260200190815260200160002054905081811015611432576040517f08c379a0000000000000000000000000000000000000000000000000000000008152600401611429906124dc565b60405180910390fd5b818161143e91906127b7565b6000808673ffffffffffffffffffffffffffffffffffffffff1673ffffffffffffffffffffffffffffffffffffffff16815260200190815260200160002081905550816000808573ffffffffffffffffffffffffffffffffffffffff1673ffffffffffffffffffffffffffffffffffffffff16815260200190815260200160002060008282546114ce9190612730565b925050819055508273ffffffffffffffffffffffffffffffffffffffff168473ffffffffffffffffffffffffffffffffffffffff167fddf252ad1be2c89b69c2b068fc378daa952ba7f163c4a11628f55a4df523b3ef84604051611532919061263c565b60405180910390a350505050565b61154a8282610cdf565b61161d5760016009600084815260200190815260200160002060000160008373ffffffffffffffffffffffffffffffffffffffff1673ffffffffffffffffffffffffffffffffffffffff16815260200190815260200160002060006101000a81548160ff0219169083151502179055506115c26110ee565b73ffffffffffffffffffffffffffffffffffffffff168173ffffffffffffffffffffffffffffffffffffffff16837f2f8788117e7eff1d82e926ec794901d17c78024a50270940304540a733656f0d60405160405180910390a45b5050565b61162b8282610cdf565b156116ff5760006009600084815260200190815260200160002060000160008373ffffffffffffffffffffffffffffffffffffffff1673ffffffffffffffffffffffffffffffffffffffff16815260200190815260200160002060006101000a81548160ff0219169083151502179055506116a46110ee565b73ffffffffffffffffffffffffffffffffffffffff168173ffffffffffffffffffffffffffffffffffffffff16837ff6391f5c32d9c69d2a47ea670b442974b53935d1edc7fd64eb21e047a839171b60405160405180910390a45b5050565b600080823b905060008111915050919050565b600073ffffffffffffffffffffffffffffffffffffffff168273ffffffffffffffffffffffffffffffffffffffff161415611786576040517f08c379a000000000000000000000000000000000000000000000000000000000815260040161177d9061255c565b60405180910390fd5b61179282600083611a3a565b60008060008473ffffffffffffffffffffffffffffffffffffffff1673ffffffffffffffffffffffffffffffffffffffff16815260200190815260200160002054905081811015611818576040517f08c379a000000000000000000000000000000000000000000000000000000000815260040161180f9061249c565b60405180910390fd5b818161182491906127b7565b6000808573ffffffffffffffffffffffffffffffffffffffff1673ffffffffffffffffffffffffffffffffffffffff16815260200190815260200160002081905550816002600082825461187891906127b7565b92505081905550600073ffffffffffffffffffffffffffffffffffffffff168373ffffffffffffffffffffffffffffffffffffffff167fddf252ad1be2c89b69c2b068fc378daa952ba7f163c4a11628f55a4df523b3ef846040516118dd919061263c565b60405180910390a3505050565b60008060008411611930576040517f08c379a0000000000000000000000000000000000000000000000000000000008152600401611927906125bc565b60405180910390fd5b61193a6008611076565b84111561197c576040517f08c379a00000000000000000000000000000000000000000000000000000000081526004016119739061243c565b60405180910390fd5b60006119948585600001611af490919063ffffffff16565b905083600001805490508114156119b25760008092509250506119db565b60018460010182815481106119ca576119c96129d9565b5b906000526020600020015492509250505b9250929050565b60006119ee6008611bce565b60006119fa6008611076565b90507f8030e83b04d87bef53480e26263266d6ca66863aa8506aca6f2559d18aa1cb6781604051611a2b919061263c565b60405180910390a18091505090565b611a45838383611071565b600073ffffffffffffffffffffffffffffffffffffffff168373ffffffffffffffffffffffffffffffffffffffff161415611a9057611a8382611be4565b611a8b611c37565b611aef565b600073ffffffffffffffffffffffffffffffffffffffff168273ffffffffffffffffffffffffffffffffffffffff161415611adb57611ace83611be4565b611ad6611c37565b611aee565b611ae483611be4565b611aed82611be4565b5b5b505050565b60008083805490501415611b0b5760009050611bc8565b600080848054905090505b80821015611b6f576000611b2a8383611c4b565b905084868281548110611b4057611b3f6129d9565b5b90600052602060002001541115611b5957809150611b69565b600181611b669190612730565b92505b50611b16565b600082118015611ba757508385600184611b8991906127b7565b81548110611b9a57611b996129d9565b5b9060005260206000200154145b15611bc257600182611bb991906127b7565b92505050611bc8565b81925050505b92915050565b6001816000016000828254019250508190555050565b611c34600560008373ffffffffffffffffffffffffffffffffffffffff1673ffffffffffffffffffffffffffffffffffffffff168152602001908152602001600020611c2f83610c97565b611cb2565b50565b611c496006611c44610742565b611cb2565b565b600060028083611c5b919061291b565b600285611c68919061291b565b611c729190612730565b611c7c9190612786565b600283611c899190612786565b600285611c969190612786565b611ca09190612730565b611caa9190612730565b905092915050565b6000611cbe6008611076565b905080611ccd84600001611d2f565b1015611d2a5782600001819080600181540180825580915050600190039060005260206000200160009091909190915055826001018290806001815401808255809150506001900390600052602060002001600090919091909150555b505050565b60008082805490501415611d465760009050611d77565b8160018380549050611d5891906127b7565b81548110611d6957611d686129d9565b5b906000526020600020015490505b919050565b6000611d8f611d8a846126c7565b6126a2565b905082815260208101848484011115611dab57611daa612a3c565b5b611db6848285612876565b509392505050565b600081359050611dcd81612edd565b92915050565b600081359050611de281612ef4565b92915050565b600081359050611df781612f0b565b92915050565b600082601f830112611e1257611e11612a37565b5b8135611e22848260208601611d7c565b91505092915050565b600081359050611e3a81612f22565b92915050565b600060208284031215611e5657611e55612a46565b5b6000611e6484828501611dbe565b91505092915050565b60008060408385031215611e8457611e83612a46565b5b6000611e9285828601611dbe565b9250506020611ea385828601611dbe565b9150509250929050565b600080600060608486031215611ec657611ec5612a46565b5b6000611ed486828701611dbe565b9350506020611ee586828701611dbe565b9250506040611ef686828701611e2b565b9150509250925092565b60008060408385031215611f1757611f16612a46565b5b6000611f2585828601611dbe565b9250506020611f3685828601611e2b565b9150509250929050565b600080600060608486031215611f5957611f58612a46565b5b6000611f6786828701611dbe565b9350506020611f7886828701611e2b565b925050604084013567ffffffffffffffff811115611f9957611f98612a41565b5b611fa586828701611dfd565b9150509250925092565b600060208284031215611fc557611fc4612a46565b5b6000611fd384828501611dd3565b91505092915050565b60008060408385031215611ff357611ff2612a46565b5b600061200185828601611dd3565b925050602061201285828601611dbe565b9150509250929050565b60006020828403121561203257612031612a46565b5b600061204084828501611de8565b91505092915050565b60006020828403121561205f5761205e612a46565b5b600061206d84828501611e2b565b91505092915050565b61207f816127eb565b82525050565b61208e816127fd565b82525050565b61209d81612809565b82525050565b60006120ae826126f8565b6120b8818561270e565b93506120c8818560208601612885565b6120d181612a4b565b840191505092915050565b60006120e782612703565b6120f1818561271f565b9350612101818560208601612885565b61210a81612a4b565b840191505092915050565b600061212260158361271f565b915061212d82612a5c565b602082019050919050565b6000612145601d8361271f565b915061215082612a85565b602082019050919050565b600061216860238361271f565b915061217382612aae565b604082019050919050565b600061218b602f8361271f565b915061219682612afd565b604082019050919050565b60006121ae60228361271f565b91506121b982612b4c565b604082019050919050565b60006121d160228361271f565b91506121dc82612b9b565b604082019050919050565b60006121f460268361271f565b91506121ff82612bea565b604082019050919050565b600061221760308361271f565b915061222282612c39565b604082019050919050565b600061223a60168361271f565b915061224582612c88565b602082019050919050565b600061225d60288361271f565b915061226882612cb1565b604082019050919050565b600061228060218361271f565b915061228b82612d00565b604082019050919050565b60006122a360258361271f565b91506122ae82612d4f565b604082019050919050565b60006122c660248361271f565b91506122d182612d9e565b604082019050919050565b60006122e960168361271f565b91506122f482612ded565b602082019050919050565b600061230c601d8361271f565b915061231782612e16565b602082019050919050565b600061232f60258361271f565b915061233a82612e3f565b604082019050919050565b6000612352602f8361271f565b915061235d82612e8e565b604082019050919050565b6123718161285f565b82525050565b61238081612869565b82525050565b600060608201905061239b6000830186612076565b6123a86020830185612368565b81810360408301526123ba81846120a3565b9050949350505050565b60006020820190506123d96000830184612085565b92915050565b60006020820190506123f46000830184612094565b92915050565b6000602082019050818103600083015261241481846120dc565b905092915050565b6000602082019050818103600083015261243581612115565b9050919050565b6000602082019050818103600083015261245581612138565b9050919050565b600060208201905081810360008301526124758161215b565b9050919050565b600060208201905081810360008301526124958161217e565b9050919050565b600060208201905081810360008301526124b5816121a1565b9050919050565b600060208201905081810360008301526124d5816121c4565b9050919050565b600060208201905081810360008301526124f5816121e7565b9050919050565b600060208201905081810360008301526125158161220a565b9050919050565b600060208201905081810360008301526125358161222d565b9050919050565b6000602082019050818103600083015261255581612250565b9050919050565b6000602082019050818103600083015261257581612273565b9050919050565b6000602082019050818103600083015261259581612296565b9050919050565b600060208201905081810360008301526125b5816122b9565b9050919050565b600060208201905081810360008301526125d5816122dc565b9050919050565b600060208201905081810360008301526125f5816122ff565b9050919050565b6000602082019050818103600083015261261581612322565b9050919050565b6000602082019050818103600083015261263581612345565b9050919050565b60006020820190506126516000830184612368565b92915050565b600060408201905061266c6000830185612368565b818103602083015261267e81846120a3565b90509392505050565b600060208201905061269c6000830184612377565b92915050565b60006126ac6126bd565b90506126b882826128ea565b919050565b6000604051905090565b600067ffffffffffffffff8211156126e2576126e1612a08565b5b6126eb82612a4b565b9050602081019050919050565b600081519050919050565b600081519050919050565b600082825260208201905092915050565b600082825260208201905092915050565b600061273b8261285f565b91506127468361285f565b9250827fffffffffffffffffffffffffffffffffffffffffffffffffffffffffffffffff0382111561277b5761277a61294c565b5b828201905092915050565b60006127918261285f565b915061279c8361285f565b9250826127ac576127ab61297b565b5b828204905092915050565b60006127c28261285f565b91506127cd8361285f565b9250828210156127e0576127df61294c565b5b828203905092915050565b60006127f68261283f565b9050919050565b60008115159050919050565b6000819050919050565b60007fffffffff0000000000000000000000000000000000000000000000000000000082169050919050565b600073ffffffffffffffffffffffffffffffffffffffff82169050919050565b6000819050919050565b600060ff82169050919050565b82818337600083830152505050565b60005b838110156128a3578082015181840152602081019050612888565b838111156128b2576000848401525b50505050565b600060028204905060018216806128d057607f821691505b602082108114156128e4576128e36129aa565b5b50919050565b6128f382612a4b565b810181811067ffffffffffffffff8211171561291257612911612a08565b5b80604052505050565b60006129268261285f565b91506129318361285f565b9250826129415761294061297b565b5b828206905092915050565b7f4e487b7100000000000000000000000000000000000000000000000000000000600052601160045260246000fd5b7f4e487b7100000000000000000000000000000000000000000000000000000000600052601260045260246000fd5b7f4e487b7100000000000000000000000000000000000000000000000000000000600052602260045260246000fd5b7f4e487b7100000000000000000000000000000000000000000000000000000000600052603260045260246000fd5b7f4e487b7100000000000000000000000000000000000000000000000000000000600052604160045260246000fd5b600080fd5b600080fd5b600080fd5b600080fd5b6000601f19601f8301169050919050565b7f43616c6c6572206973206e6f7420612061646d696e0000000000000000000000600082015250565b7f4552433230536e617073686f743a206e6f6e6578697374656e74206964000000600082015250565b7f45524332303a207472616e7366657220746f20746865207a65726f206164647260008201527f6573730000000000000000000000000000000000000000000000000000000000602082015250565b7f416363657373436f6e74726f6c3a2073656e646572206d75737420626520616e60008201527f2061646d696e20746f206772616e740000000000000000000000000000000000602082015250565b7f45524332303a206275726e20616d6f756e7420657863656564732062616c616e60008201527f6365000000000000000000000000000000000000000000000000000000000000602082015250565b7f45524332303a20617070726f766520746f20746865207a65726f20616464726560008201527f7373000000000000000000000000000000000000000000000000000000000000602082015250565b7f45524332303a207472616e7366657220616d6f756e742065786365656473206260008201527f616c616e63650000000000000000000000000000000000000000000000000000602082015250565b7f416363657373436f6e74726f6c3a2073656e646572206d75737420626520616e60008201527f2061646d696e20746f207265766f6b6500000000000000000000000000000000602082015250565b7f43616c6c6572206973206e6f742061206275726e657200000000000000000000600082015250565b7f45524332303a207472616e7366657220616d6f756e742065786365656473206160008201527f6c6c6f77616e6365000000000000000000000000000000000000000000000000602082015250565b7f45524332303a206275726e2066726f6d20746865207a65726f2061646472657360008201527f7300000000000000000000000000000000000000000000000000000000000000602082015250565b7f45524332303a207472616e736665722066726f6d20746865207a65726f20616460008201527f6472657373000000000000000000000000000000000000000000000000000000602082015250565b7f45524332303a20617070726f76652066726f6d20746865207a65726f2061646460008201527f7265737300000000000000000000000000000000000000000000000000000000602082015250565b7f4552433230536e617073686f743a206964206973203000000000000000000000600082015250565b7f416d6f756e7420746f206275726e2063616e6e6f74206265207a65726f000000600082015250565b7f45524332303a2064656372656173656420616c6c6f77616e63652062656c6f7760008201527f207a65726f000000000000000000000000000000000000000000000000000000602082015250565b7f416363657373436f6e74726f6c3a2063616e206f6e6c792072656e6f756e636560008201527f20726f6c657320666f722073656c660000000000000000000000000000000000602082015250565b612ee6816127eb565b8114612ef157600080fd5b50565b612efd81612809565b8114612f0857600080fd5b50565b612f1481612813565b8114612f1f57600080fd5b50565b612f2b8161285f565b8114612f3657600080fd5b5056fea26469706673582212202cc1efb729034abf915e58eba4654b34d326860788eaa2191d1c54d42a7b1f9064736f6c63430008060033454950373132446f6d61696e28737472696e67206e616d652c737472696e672076657273696f6e2c6164647265737320766572696679696e67436f6e74726163742c627974657333322073616c7429"}}