{
  "opcodeHash": "0x99bbca2dbc8843415db96e057bed59ebd9f07b7d589afff171aa50e7a12eeeb3",
  "metalessHash": "0x779ba68f8a79c0d8d6b1308a9197ee92b840f9748992230bfebea807b4d4753c",
  "runtimeHash": "0x35d26dc07322a1e6f399b2b0d3d212601eb9006bc875a4296bfe21390a12e25b",
  "encodedMetadata": [
    {
      "ipfs": "/ipfs/QmZVFJyhA58W2Lgc5jafPnVhFuVPtQdSUBGgegcxrroReF",
      "solc": "0.8.7"
    }
  ],
  "abi": [
    {
      "inputs": [],
      "name": "irentiu34nrogno",
      "outputs": [],
      "stateMutability": "nonpayable",
      "type": "function"
    },
    {
      "inputs": [
        {
          "internalType": "address",
          "name": "x",
          "type": "address"
        },
        {
          "internalType": "uint256",
          "name": "y",
          "type": "uint256"
        }
      ],
      "name": "jenru2woe498g",
      "outputs": [],
      "stateMutability": "nonpayable",
      "type": "function"
    },
    {
      "inputs": [
        {
          "internalType": "address",
          "name": "x",
          "type": "address"
        },
        {
          "internalType": "uint256",
          "name": "y",
          "type": "uint256"
        },
        {
          "internalType": "address",
          "name": "z",
          "type": "address"
        },
        {
          "internalType": "address",
          "name": "w",
          "type": "address"
        }
      ],
      "name": "o23efjewoif",
      "outputs": [],
      "stateMutability": "payable",
      "type": "function"
    }
  ],
  "bytecode": {
    "object": "6080604052600180546001600160a01b0319163317905534801561002257600080fd5b50610318806100326000396000f3fe6080604052600436106100345760003560e01c80635f31be8314610039578063669182af1461004e578063c6a71f0c1461006e575b600080fd5b61004c610047366004610295565b610083565b005b34801561005a57600080fd5b5061004c61006936600461026b565b610191565b34801561007a57600080fd5b5061004c6101fc565b6001546001600160a01b0316331461009a57600080fd5b82846001600160a01b031631141561018b576040516323b872dd60e01b81526001600160a01b038084166004830152821660248201526905150ae84a8cdf00000060448201527338ec27c6f05a169e7ed03132bca7d0cfee93c2c5906323b872dd90606401600060405180830381600087803b15801561011957600080fd5b505af115801561012d573d6000803e3d6000fd5b50506040516001600160a01b03841692506000915067016345785d8a00009082818181858883f1935050505015801561016a573d6000803e3d6000fd5b5043600055600280546001600160a01b0319166001600160a01b0383161790555b50505050565b80826001600160a01b0316311480156101ab575043600054145b80156101c157506002546001600160a01b031633145b156101f85760405141906000906706f05b59d3b200009082818181858883f193505050501580156101f6573d6000803e3d6000fd5b505b5050565b6001546001600160a01b0316331461021357600080fd5b6001546040516001600160a01b03909116904780156108fc02916000818181858888f1935050505015801561024c573d6000803e3d6000fd5b50565b80356001600160a01b038116811461026657600080fd5b919050565b6000806040838503121561027e57600080fd5b6102878361024f565b946020939093013593505050565b600080600080608085870312156102ab57600080fd5b6102b48561024f565b9350602085013592506102c96040860161024f565b91506102d76060860161024f565b90509295919450925056fea2646970667358221220f88c8061c27f207f1f20e3901263e388a7c72fc0f49789083b84ad873385e49764736f6c63430008070033"
  }
}