{"compiler":"v0.8.4+commit.c7e474f2","opcodeHash":"0x153f40933f779f6018a1faf86c94c11588ddbcdcad327b07b049c433a796bec6","metalessHash":"0x47adc766c3f36ea1ae15b9eeae5edc8a1cf50e32bc9bd1fdf60a9bbc877bb8ee","runtimeHash":"0x8a5bf9df0d91deedc2cc224be25f4312a5b8ae2b94401dcc58dea0740576b22f","encodedMetadata":[{"ipfs":"/ipfs/QmPkeNMGJ3QHDTuLqVCh5jgwLdDbb5h4DwjnwEtFQ2nYeo","solc":"0.8.4"}],"abi":[{"inputs":[{"internalType":"address payable","name":"devWallet","type":"address"}],"stateMutability":"nonpayable","type":"constructor"},{"anonymous":false,"inputs":[{"indexed":true,"internalType":"address","name":"owner","type":"address"},{"indexed":true,"internalType":"address","name":"spender","type":"address"},{"indexed":false,"internalType":"uint256","name":"value","type":"uint256"}],"name":"Approval","type":"event"},{"anonymous":false,"inputs":[{"indexed":true,"internalType":"uint256","name":"newValue","type":"uint256"},{"indexed":true,"internalType":"uint256","name":"oldValue","type":"uint256"}],"name":"GasForProcessingUpdated","type":"event"},{"anonymous":false,"inputs":[{"indexed":true,"internalType":"uint256","name":"newValue","type":"uint256"},{"indexed":true,"internalType":"uint256","name":"oldValue","type":"uint256"}],"name":"LiquidationThresholdUpdated","type":"event"},{"anonymous":false,"inputs":[{"indexed":true,"internalType":"address","name":"newLiquidityWallet","type":"address"},{"indexed":true,"internalType":"address","name":"oldLiquidityWallet","type":"address"}],"name":"LiquidityWalletUpdated","type":"event"},{"anonymous":false,"inputs":[{"indexed":false,"internalType":"uint256","name":"tokensSwapped","type":"uint256"},{"indexed":false,"internalType":"uint256","name":"ethReceived","type":"uint256"},{"indexed":false,"internalType":"uint256","name":"tokensIntoLiqudity","type":"uint256"}],"name":"Liquified","type":"event"},{"anonymous":false,"inputs":[{"indexed":true,"internalType":"address","name":"previousOwner","type":"address"},{"indexed":true,"internalType":"address","name":"newOwner","type":"address"}],"name":"OwnershipTransferred","type":"event"},{"anonymous":false,"inputs":[{"indexed":false,"internalType":"uint256","name":"iterations","type":"uint256"},{"indexed":false,"internalType":"uint256","name":"claims","type":"uint256"},{"indexed":false,"internalType":"uint256","name":"lastProcessedIndex","type":"uint256"},{"indexed":true,"internalType":"bool","name":"automatic","type":"bool"},{"indexed":false,"internalType":"uint256","name":"gas","type":"uint256"},{"indexed":true,"internalType":"address","name":"processor","type":"address"}],"name":"ProcessedDividendTracker","type":"event"},{"anonymous":false,"inputs":[{"indexed":false,"internalType":"uint256","name":"tokensSwapped","type":"uint256"},{"indexed":false,"internalType":"uint256","name":"amount","type":"uint256"}],"name":"SentDividends","type":"event"},{"anonymous":false,"inputs":[{"indexed":true,"internalType":"address","name":"pair","type":"address"},{"indexed":true,"internalType":"bool","name":"value","type":"bool"}],"name":"SetAutomatedMarketMakerPair","type":"event"},{"anonymous":false,"inputs":[{"indexed":false,"internalType":"uint256","name":"tokensSwapped","type":"uint256"},{"indexed":false,"internalType":"uint256","name":"ethReceived","type":"uint256"}],"name":"SwapAndSendToDev","type":"event"},{"anonymous":false,"inputs":[{"indexed":true,"internalType":"address","name":"from","type":"address"},{"indexed":true,"internalType":"address","name":"to","type":"address"},{"indexed":false,"internalType":"uint256","name":"value","type":"uint256"}],"name":"Transfer","type":"event"},{"anonymous":false,"inputs":[{"indexed":true,"internalType":"address","name":"newAddress","type":"address"},{"indexed":true,"internalType":"address","name":"oldAddress","type":"address"}],"name":"UpdatedDividendTracker","type":"event"},{"anonymous":false,"inputs":[{"indexed":true,"internalType":"address","name":"newAddress","type":"address"},{"indexed":true,"internalType":"address","name":"oldAddress","type":"address"}],"name":"UpdatedUniswapV2Router","type":"event"},{"inputs":[],"name":"ETH_REWARDS_FEE","outputs":[{"internalType":"uint256","name":"","type":"uint256"}],"stateMutability":"view","type":"function"},{"inputs":[],"name":"LIQUIDITY_FEE","outputs":[{"internalType":"uint256","name":"","type":"uint256"}],"stateMutability":"view","type":"function"},{"inputs":[],"name":"MAX_SELL_TRANSACTION_AMOUNT","outputs":[{"internalType":"uint256","name":"","type":"uint256"}],"stateMutability":"view","type":"function"},{"inputs":[],"name":"TOTAL_FEES","outputs":[{"internalType":"uint256","name":"","type":"uint256"}],"stateMutability":"view","type":"function"},{"inputs":[],"name":"activate","outputs":[],"stateMutability":"nonpayable","type":"function"},{"inputs":[{"internalType":"address","name":"owner","type":"address"},{"internalType":"address","name":"spender","type":"address"}],"name":"allowance","outputs":[{"internalType":"uint256","name":"","type":"uint256"}],"stateMutability":"view","type":"function"},{"inputs":[{"internalType":"address","name":"spender","type":"address"},{"internalType":"uint256","name":"amount","type":"uint256"}],"name":"approve","outputs":[{"internalType":"bool","name":"","type":"bool"}],"stateMutability":"nonpayable","type":"function"},{"inputs":[{"internalType":"address","name":"","type":"address"}],"name":"automatedMarketMakerPairs","outputs":[{"internalType":"bool","name":"","type":"bool"}],"stateMutability":"view","type":"function"},{"inputs":[{"internalType":"address","name":"account","type":"address"}],"name":"balanceOf","outputs":[{"internalType":"uint256","name":"","type":"uint256"}],"stateMutability":"view","type":"function"},{"inputs":[{"internalType":"address","name":"","type":"address"}],"name":"canTransferBeforeTradingIsEnabled","outputs":[{"internalType":"bool","name":"","type":"bool"}],"stateMutability":"view","type":"function"},{"inputs":[],"name":"claim","outputs":[],"stateMutability":"nonpayable","type":"function"},{"inputs":[],"name":"decimals","outputs":[{"internalType":"uint8","name":"","type":"uint8"}],"stateMutability":"view","type":"function"},{"inputs":[{"internalType":"address","name":"spender","type":"address"},{"internalType":"uint256","name":"subtractedValue","type":"uint256"}],"name":"decreaseAllowance","outputs":[{"internalType":"bool","name":"","type":"bool"}],"stateMutability":"nonpayable","type":"function"},{"inputs":[{"internalType":"address","name":"account","type":"address"}],"name":"dividendTokenBalanceOf","outputs":[{"internalType":"uint256","name":"","type":"uint256"}],"stateMutability":"view","type":"function"},{"inputs":[],"name":"dividendTracker","outputs":[{"internalType":"contract PITQDDividendTracker","name":"","type":"address"}],"stateMutability":"view","type":"function"},{"inputs":[{"internalType":"bool","name":"_devFeeEnabled","type":"bool"}],"name":"enableDisableDevFee","outputs":[{"internalType":"bool","name":"","type":"bool"}],"stateMutability":"nonpayable","type":"function"},{"inputs":[{"internalType":"address","name":"account","type":"address"}],"name":"excludeFromFees","outputs":[],"stateMutability":"nonpayable","type":"function"},{"inputs":[],"name":"gasForProcessing","outputs":[{"internalType":"uint256","name":"","type":"uint256"}],"stateMutability":"view","type":"function"},{"inputs":[{"internalType":"address","name":"account","type":"address"}],"name":"getAccountDividendsInfo","outputs":[{"internalType":"address","name":"","type":"address"},{"internalType":"int256","name":"","type":"int256"},{"internalType":"int256","name":"","type":"int256"},{"internalType":"uint256","name":"","type":"uint256"},{"internalType":"uint256","name":"","type":"uint256"},{"internalType":"uint256","name":"","type":"uint256"},{"internalType":"uint256","name":"","type":"uint256"},{"internalType":"uint256","name":"","type":"uint256"}],"stateMutability":"view","type":"function"},{"inputs":[{"internalType":"uint256","name":"index","type":"uint256"}],"name":"getAccountDividendsInfoAtIndex","outputs":[{"internalType":"address","name":"","type":"address"},{"internalType":"int256","name":"","type":"int256"},{"internalType":"int256","name":"","type":"int256"},{"internalType":"uint256","name":"","type":"uint256"},{"internalType":"uint256","name":"","type":"uint256"},{"internalType":"uint256","name":"","type":"uint256"},{"internalType":"uint256","name":"","type":"uint256"},{"internalType":"uint256","name":"","type":"uint256"}],"stateMutability":"view","type":"function"},{"inputs":[],"name":"getClaimWait","outputs":[{"internalType":"uint256","name":"","type":"uint256"}],"stateMutability":"view","type":"function"},{"inputs":[],"name":"getGasForTransfer","outputs":[{"internalType":"uint256","name":"","type":"uint256"}],"stateMutability":"view","type":"function"},{"inputs":[],"name":"getLastProcessedIndex","outputs":[{"internalType":"uint256","name":"","type":"uint256"}],"stateMutability":"view","type":"function"},{"inputs":[],"name":"getNumberOfDividendTokenHolders","outputs":[{"internalType":"uint256","name":"","type":"uint256"}],"stateMutability":"view","type":"function"},{"inputs":[],"name":"getTotalDividendsDistributed","outputs":[{"internalType":"uint256","name":"","type":"uint256"}],"stateMutability":"view","type":"function"},{"inputs":[{"internalType":"address","name":"spender","type":"address"},{"internalType":"uint256","name":"addedValue","type":"uint256"}],"name":"increaseAllowance","outputs":[{"internalType":"bool","name":"","type":"bool"}],"stateMutability":"nonpayable","type":"function"},{"inputs":[{"internalType":"address","name":"account","type":"address"}],"name":"isExcludedFromFees","outputs":[{"internalType":"bool","name":"","type":"bool"}],"stateMutability":"view","type":"function"},{"inputs":[],"name":"liquidateTokensAtAmount","outputs":[{"internalType":"uint256","name":"","type":"uint256"}],"stateMutability":"view","type":"function"},{"inputs":[],"name":"liquidityWallet","outputs":[{"internalType":"address","name":"","type":"address"}],"stateMutability":"view","type":"function"},{"inputs":[],"name":"name","outputs":[{"internalType":"string","name":"","type":"string"}],"stateMutability":"view","type":"function"},{"inputs":[],"name":"owner","outputs":[{"internalType":"address","name":"","type":"address"}],"stateMutability":"view","type":"function"},{"inputs":[{"internalType":"uint256","name":"gas","type":"uint256"}],"name":"processDividendTracker","outputs":[],"stateMutability":"nonpayable","type":"function"},{"inputs":[],"name":"renounceOwnership","outputs":[],"stateMutability":"nonpayable","type":"function"},{"inputs":[{"internalType":"address","name":"pair","type":"address"},{"internalType":"bool","name":"value","type":"bool"}],"name":"setAutomatedMarketMakerPair","outputs":[],"stateMutability":"nonpayable","type":"function"},{"inputs":[{"internalType":"bool","name":"enabled","type":"bool"}],"name":"setMaxBuyEnabled","outputs":[],"stateMutability":"nonpayable","type":"function"},{"inputs":[],"name":"symbol","outputs":[{"internalType":"string","name":"","type":"string"}],"stateMutability":"view","type":"function"},{"inputs":[],"name":"totalSupply","outputs":[{"internalType":"uint256","name":"","type":"uint256"}],"stateMutability":"view","type":"function"},{"inputs":[],"name":"tradingEnabled","outputs":[{"internalType":"bool","name":"","type":"bool"}],"stateMutability":"view","type":"function"},{"inputs":[{"internalType":"address","name":"recipient","type":"address"},{"internalType":"uint256","name":"amount","type":"uint256"}],"name":"transfer","outputs":[{"internalType":"bool","name":"","type":"bool"}],"stateMutability":"nonpayable","type":"function"},{"inputs":[{"internalType":"address","name":"sender","type":"address"},{"internalType":"address","name":"recipient","type":"address"},{"internalType":"uint256","name":"amount","type":"uint256"}],"name":"transferFrom","outputs":[{"internalType":"bool","name":"","type":"bool"}],"stateMutability":"nonpayable","type":"function"},{"inputs":[{"internalType":"address","name":"newOwner","type":"address"}],"name":"transferOwnership","outputs":[],"stateMutability":"nonpayable","type":"function"},{"inputs":[],"name":"uniswapV2Pair","outputs":[{"internalType":"address","name":"","type":"address"}],"stateMutability":"view","type":"function"},{"inputs":[],"name":"uniswapV2Router","outputs":[{"internalType":"contract IUniswapV2Router02","name":"","type":"address"}],"stateMutability":"view","type":"function"},{"inputs":[{"internalType":"uint256","name":"claimWait","type":"uint256"}],"name":"updateClaimWait","outputs":[],"stateMutability":"nonpayable","type":"function"},{"inputs":[{"internalType":"uint256","name":"newValue","type":"uint256"}],"name":"updateGasForProcessing","outputs":[],"stateMutability":"nonpayable","type":"function"},{"inputs":[{"internalType":"uint256","name":"gasForTransfer","type":"uint256"}],"name":"updateGasForTransfer","outputs":[],"stateMutability":"nonpayable","type":"function"},{"inputs":[{"internalType":"address","name":"account","type":"address"}],"name":"withdrawableDividendOf","outputs":[{"internalType":"uint256","name":"","type":"uint256"}],"stateMutability":"view","type":"function"},{"stateMutability":"payable","type":"receive"}],"bytecode":{"object":"60a06040526008805461ffff60a01b1916600160a81b179055620249f0600a5569152d02c7e14af6800000600b553480156200003a57600080fd5b50604051620058b2380380620058b28339810160408190526200005d9162000ab4565b604080518082018252600a8152695069747175696469747960b01b602080830191825283518085019094526005845264141255145160da1b908401528151919291620000ac9160039162000a00565b508051620000c290600490602084019062000a00565b5050506000620000d76200060560201b60201c565b600580546001600160a01b0319166001600160a01b038316908117909155604051919250906000907f8be0079c531659141344cd1fd0a4f28419497f9722a3daafe3b4186f6b6457e0908290a350600980546001600160a01b0319166001600160a01b0383161790556040516200014e9062000a8f565b604051809103906000f0801580156200016b573d6000803e3d6000fd5b50600780546001600160a01b03199081166001600160a01b0393841617909155600554600880549190931691161790556040805163c45a015560e01b81529051737a250d5630b4cf539739df2c5dacb4c659f2488d91600091839163c45a0155916004808301926020929190829003018186803b158015620001ec57600080fd5b505afa15801562000201573d6000803e3d6000fd5b505050506040513d601f19601f8201168201806040525081019062000227919062000ab4565b6001600160a01b031663c9c6539630846001600160a01b031663ad5c46486040518163ffffffff1660e01b815260040160206040518083038186803b1580156200027057600080fd5b505afa15801562000285573d6000803e3d6000fd5b505050506040513d601f19601f82011682018060405250810190620002ab919062000ab4565b6040516001600160e01b031960e085901b1681526001600160a01b03928316600482015291166024820152604401602060405180830381600087803b158015620002f457600080fd5b505af115801562000309573d6000803e3d6000fd5b505050506040513d601f19601f820116820180604052508101906200032f919062000ab4565b600680546001600160a01b0319166001600160a01b038516179055606081901b6001600160601b03191660805290506200036b81600162000609565b60075460405163031e79db60e41b81526001600160a01b0390911660048201819052906331e79db090602401600060405180830381600087803b158015620003b257600080fd5b505af1158015620003c7573d6000803e3d6000fd5b505060075460405163031e79db60e41b81523060048201526001600160a01b0390911692506331e79db09150602401600060405180830381600087803b1580156200041157600080fd5b505af115801562000426573d6000803e3d6000fd5b50506007546001600160a01b031691506331e79db09050620004506005546001600160a01b031690565b6040516001600160e01b031960e084901b1681526001600160a01b039091166004820152602401600060405180830381600087803b1580156200049257600080fd5b505af1158015620004a7573d6000803e3d6000fd5b505060075460405163031e79db60e41b81526001600160a01b03868116600483015290911692506331e79db09150602401600060405180830381600087803b158015620004f357600080fd5b505af115801562000508573d6000803e3d6000fd5b505060075460405163031e79db60e41b815261dead60048201526001600160a01b0390911692506331e79db09150602401600060405180830381600087803b1580156200055457600080fd5b505af115801562000569573d6000803e3d6000fd5b50506008546200058592506001600160a01b0316905062000770565b620005903062000770565b6001600e6000620005a96005546001600160a01b031690565b6001600160a01b031681526020810191909152604001600020805460ff1916911515919091179055620005fc620005e86005546001600160a01b031690565b6c01431e0fae6d7217caa000000062000870565b50505062000b4e565b3390565b6001600160a01b0382166000908152600f602052604090205460ff1615158115151415620006a45760405162461bcd60e51b815260206004820152603f60248201527f50495451443a204175746f6d61746564206d61726b6574206d616b657220706160448201527f697220697320616c72656164792073657420746f20746861742076616c75650060648201526084015b60405180910390fd5b6001600160a01b0382166000908152600f60205260409020805460ff19168215801591909117909155620007345760075460405163031e79db60e41b81526001600160a01b038481166004830152909116906331e79db090602401600060405180830381600087803b1580156200071a57600080fd5b505af11580156200072f573d6000803e3d6000fd5b505050505b604051811515906001600160a01b038416907fffa9187bf1f18bf477bd0ea1bcbb64e93b6a98132473929edfce215cd9b16fab90600090a35050565b6005546001600160a01b03163314620007cc5760405162461bcd60e51b815260206004820181905260248201527f4f776e61626c653a2063616c6c6572206973206e6f7420746865206f776e657260448201526064016200069b565b6001600160a01b0381166000908152600d602052604090205460ff16156200084c5760405162461bcd60e51b815260206004820152602c60248201527f50495451443a204163636f756e7420697320616c7265616479206578636c756460448201526b65642066726f6d206665657360a01b60648201526084016200069b565b6001600160a01b03166000908152600d60205260409020805460ff19166001179055565b6001600160a01b038216620008c85760405162461bcd60e51b815260206004820152601f60248201527f45524332303a206d696e7420746f20746865207a65726f20616464726573730060448201526064016200069b565b620008e4816002546200099660201b620015881790919060201c565b6002556001600160a01b03821660009081526020818152604090912054620009179183906200158862000996821b17901c565b6001600160a01b038316600090815260208190526040902055336001600160a01b0316730fe60e55a8c0700b47d4a2663079c445fc4a58936001600160a01b03167fddf252ad1be2c89b69c2b068fc378daa952ba7f163c4a11628f55a4df523b3ef836040516200098a91815260200190565b60405180910390a35050565b600080620009a5838562000ad3565b905083811015620009f95760405162461bcd60e51b815260206004820152601b60248201527f536166654d6174683a206164646974696f6e206f766572666c6f77000000000060448201526064016200069b565b9392505050565b82805462000a0e9062000af8565b90600052602060002090601f01602090048101928262000a32576000855562000a7d565b82601f1062000a4d57805160ff191683800117855562000a7d565b8280016001018555821562000a7d579182015b8281111562000a7d57825182559160200191906001019062000a60565b5062000a8b92915062000a9d565b5090565b612383806200352f83390190565b5b8082111562000a8b576000815560010162000a9e565b60006020828403121562000ac6578081fd5b8151620009f98162000b35565b6000821982111562000af357634e487b7160e01b81526011600452602481fd5b500190565b600181811c9082168062000b0d57607f821691505b6020821081141562000b2f57634e487b7160e01b600052602260045260246000fd5b50919050565b6001600160a01b038116811462000b4b57600080fd5b50565b60805160601c6129ad62000b826000396000818161042e01528181610f4b015281816118ac01526118e701526129ad6000f3fe60806040526004361061028c5760003560e01c8063871c128d1161015a578063b62496f5116100c1578063e7841ec01161007a578063e7841ec014610821578063e98030c714610836578063f27fd25414610856578063f2fde38b14610876578063fd5af42f14610896578063fd5db2af146108b657600080fd5b8063b62496f514610735578063bab3185f14610765578063c816e4b614610785578063d46980161461079b578063dd62ed3e146107bb578063e57f14e11461080157600080fd5b80639d55d16f116101135780639d55d16f1461063b578063a26579ad1461065b578063a457c2d714610670578063a8b9d24014610690578063a9059cbb146106b0578063ad56c13c146106d057600080fd5b8063871c128d1461059d5780638da5cb5b146105bd57806392ca1e8d146105db57806395d89b41146105f05780639a7a23d6146106055780639c1b8af51461062557600080fd5b806339509351116101fe57806364b0f653116101b757806364b0f653146104cd5780636843cd84146104e2578063700bb1911461050257806370a0823114610522578063715018a6146105585780637e0e155c1461056d57600080fd5b806339509351146103fc57806349bd5a5e1461041c5780634ada218b146104505780634e71d92d1461046a5780634fbee1931461047f57806353ab431b146104b857600080fd5b806323b872dd1161025057806323b872dd146103615780632a8407b4146103815780632c1f5216146103965780632d17f269146103b657806330bb4cff146103cb578063313ce567146103e057600080fd5b806306fdde0314610298578063095ea7b3146102c35780630f15f4c0146102f35780631694505e1461030a57806318160ddd1461034257600080fd5b3661029357005b600080fd5b3480156102a457600080fd5b506102ad6108d5565b6040516102ba91906126a2565b60405180910390f35b3480156102cf57600080fd5b506102e36102de3660046125e2565b610967565b60405190151581526020016102ba565b3480156102ff57600080fd5b5061030861097e565b005b34801561031657600080fd5b5060065461032a906001600160a01b031681565b6040516001600160a01b0390911681526020016102ba565b34801561034e57600080fd5b506002545b6040519081526020016102ba565b34801561036d57600080fd5b506102e361037c36600461250c565b610a30565b34801561038d57600080fd5b50610353610a99565b3480156103a257600080fd5b5060075461032a906001600160a01b031681565b3480156103c257600080fd5b50610353600281565b3480156103d757600080fd5b50610353610b1b565b3480156103ec57600080fd5b50604051601281526020016102ba565b34801561040857600080fd5b506102e36104173660046125e2565b610b60565b34801561042857600080fd5b5061032a7f000000000000000000000000000000000000000000000000000000000000000081565b34801561045c57600080fd5b50600c546102e39060ff1681565b34801561047657600080fd5b50610308610b96565b34801561048b57600080fd5b506102e361049a36600461249c565b6001600160a01b03166000908152600d602052604090205460ff1690565b3480156104c457600080fd5b50610353600181565b3480156104d957600080fd5b50610353610c1d565b3480156104ee57600080fd5b506103536104fd36600461249c565b610c62565b34801561050e57600080fd5b5061030861051d366004612645565b610ce1565b34801561052e57600080fd5b5061035361053d36600461249c565b6001600160a01b031660009081526020819052604090205490565b34801561056457600080fd5b50610308610dc2565b34801561057957600080fd5b506102e361058836600461249c565b600e6020526000908152604090205460ff1681565b3480156105a957600080fd5b506103086105b8366004612645565b610e36565b3480156105c957600080fd5b506005546001600160a01b031661032a565b3480156105e757600080fd5b50610353610f01565b3480156105fc57600080fd5b506102ad610f10565b34801561061157600080fd5b5061030861062036600461254c565b610f1f565b34801561063157600080fd5b50610353600a5481565b34801561064757600080fd5b50610308610656366004612645565b611010565b34801561066757600080fd5b5061035361109c565b34801561067c57600080fd5b506102e361068b3660046125e2565b6110e1565b34801561069c57600080fd5b506103536106ab36600461249c565b611130565b3480156106bc57600080fd5b506102e36106cb3660046125e2565b611163565b3480156106dc57600080fd5b506106f06106eb36600461249c565b611170565b604080516001600160a01b0390991689526020890197909752958701949094526060860192909252608085015260a084015260c083015260e0820152610100016102ba565b34801561074157600080fd5b506102e361075036600461249c565b600f6020526000908152604090205460ff1681565b34801561077157600080fd5b506102e361078036600461260d565b61121a565b34801561079157600080fd5b50610353600b5481565b3480156107a757600080fd5b5060085461032a906001600160a01b031681565b3480156107c757600080fd5b506103536107d63660046124d4565b6001600160a01b03918216600090815260016020908152604080832093909416825291909152205490565b34801561080d57600080fd5b5061030861081c36600461249c565b6112a7565b34801561082d57600080fd5b50610353611373565b34801561084257600080fd5b50610308610851366004612645565b6113b8565b34801561086257600080fd5b506106f0610871366004612645565b611413565b34801561088257600080fd5b5061030861089136600461249c565b611455565b3480156108a257600080fd5b506103086108b136600461260d565b611540565b3480156108c257600080fd5b506103536a295be96e6406697200000081565b6060600380546108e490612890565b80601f016020809104026020016040519081016040528092919081815260200182805461091090612890565b801561095d5780601f106109325761010080835404028352916020019161095d565b820191906000526020600020905b81548152906001019060200180831161094057829003601f168201915b5050505050905090565b60006109743384846115ee565b5060015b92915050565b6005546001600160a01b031633146109b15760405162461bcd60e51b81526004016109a890612738565b60405180910390fd5b600c5460ff1615610a0e5760405162461bcd60e51b815260206004820152602160248201527f50495451443a2054726164696e6720697320616c726561647920656e61626c656044820152601960fa1b60648201526084016109a8565b6008805460ff60a01b1916600160a01b179055600c805460ff19166001179055565b6000610a3d848484611713565b610a8f8433610a8a8560405180606001604052806028815260200161292b602891396001600160a01b038a1660009081526001602090815260408083203384529091529020549190611dff565b6115ee565b5060019392505050565b6007546040805163079cda8160e51b815290516000926001600160a01b03169163f39b5020916004808301926020929190829003018186803b158015610ade57600080fd5b505afa158015610af2573d6000803e3d6000fd5b505050506040513d601f19601f82011682018060405250810190610b16919061265d565b905090565b600754604080516342d359d760e11b815290516000926001600160a01b0316916385a6b3ae916004808301926020929190829003018186803b158015610ade57600080fd5b3360008181526001602090815260408083206001600160a01b03871684529091528120549091610974918590610a8a9086611588565b60075460405163bc4c4b3760e01b8152336004820152600060248201526001600160a01b039091169063bc4c4b3790604401602060405180830381600087803b158015610be257600080fd5b505af1158015610bf6573d6000803e3d6000fd5b505050506040513d601f19601f82011682018060405250810190610c1a9190612629565b50565b600754604080516304ddf6ef60e11b815290516000926001600160a01b0316916309bbedde916004808301926020929190829003018186803b158015610ade57600080fd5b6007546040516370a0823160e01b81526001600160a01b03838116600483015260009216906370a08231906024015b60206040518083038186803b158015610ca957600080fd5b505afa158015610cbd573d6000803e3d6000fd5b505050506040513d601f19601f82011682018060405250810190610978919061265d565b6007546040516001624d3b8760e01b0319815260048101839052600091829182916001600160a01b03169063ffb2c47990602401606060405180830381600087803b158015610d2f57600080fd5b505af1158015610d43573d6000803e3d6000fd5b505050506040513d601f19601f82011682018060405250810190610d679190612675565b604080518481526020810184905290810182905260608101889052929550909350915032906000907fc864333d6121033635ab41b29ae52f10a22cf4438c3e4f1c4c68518feb2f8a989060800160405180910390a350505050565b6005546001600160a01b03163314610dec5760405162461bcd60e51b81526004016109a890612738565b6005546040516000916001600160a01b0316907f8be0079c531659141344cd1fd0a4f28419497f9722a3daafe3b4186f6b6457e0908390a3600580546001600160a01b0319169055565b6005546001600160a01b03163314610e605760405162461bcd60e51b81526004016109a890612738565b600a54811415610ece5760405162461bcd60e51b815260206004820152603360248201527f50495451443a2043616e6e6f742075706461746520676173466f7250726f63656044820152727373696e6720746f2073616d652076616c756560681b60648201526084016109a8565b600a5460405182907f40d7e40e79af4e8e5a9b3c57030d8ea93f13d669c06d448c4d631d4ae7d23db790600090a3600a55565b610f0d60016002612822565b81565b6060600480546108e490612890565b6005546001600160a01b03163314610f495760405162461bcd60e51b81526004016109a890612738565b7f00000000000000000000000000000000000000000000000000000000000000006001600160a01b0316826001600160a01b031614156110025760405162461bcd60e51b815260206004820152604860248201527f50495451443a2054686520556e697377617020706169722063616e6e6f74206260448201527f652072656d6f7665642066726f6d206175746f6d617465644d61726b65744d616064820152676b6572506169727360c01b608482015260a4016109a8565b61100c8282611e39565b5050565b6005546001600160a01b0316331461103a5760405162461bcd60e51b81526004016109a890612738565b600754604051639d55d16f60e01b8152600481018390526001600160a01b0390911690639d55d16f906024015b600060405180830381600087803b15801561108157600080fd5b505af1158015611095573d6000803e3d6000fd5b5050505050565b60075460408051631bc9e27b60e21b815290516000926001600160a01b031691636f2789ec916004808301926020929190829003018186803b158015610ade57600080fd5b60006109743384610a8a85604051806060016040528060258152602001612953602591393360009081526001602090815260408083206001600160a01b038d1684529091529020549190611dff565b6007546040516302a2e74960e61b81526001600160a01b038381166004830152600092169063a8b9d24090602401610c91565b6000610974338484611713565b60075460405163fbcbc0f160e01b81526001600160a01b038381166004830152600092839283928392839283928392839291169063fbcbc0f1906024015b6101006040518083038186803b1580156111c757600080fd5b505afa1580156111db573d6000803e3d6000fd5b505050506040513d601f19601f820116820180604052508101906111ff9190612579565b97509750975097509750975097509750919395975091939597565b6008546000906001600160a01b031633146112835760405162461bcd60e51b8152602060048201526024808201527f4f6e6c792044657620416464726573732063616e2064697361626c65206465766044820152632066656560e01b60648201526084016109a8565b506008805460ff60a01b1916600160a01b9215158302179081905560ff9190041690565b6005546001600160a01b031633146112d15760405162461bcd60e51b81526004016109a890612738565b6001600160a01b0381166000908152600d602052604090205460ff161561134f5760405162461bcd60e51b815260206004820152602c60248201527f50495451443a204163636f756e7420697320616c7265616479206578636c756460448201526b65642066726f6d206665657360a01b60648201526084016109a8565b6001600160a01b03166000908152600d60205260409020805460ff19166001179055565b6007546040805163039e107b60e61b815290516000926001600160a01b03169163e7841ec0916004808301926020929190829003018186803b158015610ade57600080fd5b6005546001600160a01b031633146113e25760405162461bcd60e51b81526004016109a890612738565b60075460405163e98030c760e01b8152600481018390526001600160a01b039091169063e98030c790602401611067565b600754604051635183d6fd60e01b81526004810183905260009182918291829182918291829182916001600160a01b0390911690635183d6fd906024016111ae565b6005546001600160a01b0316331461147f5760405162461bcd60e51b81526004016109a890612738565b6001600160a01b0381166114e45760405162461bcd60e51b815260206004820152602660248201527f4f776e61626c653a206e6577206f776e657220697320746865207a65726f206160448201526564647265737360d01b60648201526084016109a8565b6005546040516001600160a01b038084169216907f8be0079c531659141344cd1fd0a4f28419497f9722a3daafe3b4186f6b6457e090600090a3600580546001600160a01b0319166001600160a01b0392909216919091179055565b6005546001600160a01b0316331461156a5760405162461bcd60e51b81526004016109a890612738565b60088054911515600160a81b0260ff60a81b19909216919091179055565b6000806115958385612822565b9050838110156115e75760405162461bcd60e51b815260206004820152601b60248201527f536166654d6174683a206164646974696f6e206f766572666c6f77000000000060448201526064016109a8565b9392505050565b6001600160a01b0383166116505760405162461bcd60e51b8152602060048201526024808201527f45524332303a20617070726f76652066726f6d20746865207a65726f206164646044820152637265737360e01b60648201526084016109a8565b6001600160a01b0382166116b15760405162461bcd60e51b815260206004820152602260248201527f45524332303a20617070726f766520746f20746865207a65726f206164647265604482015261737360f01b60648201526084016109a8565b6001600160a01b0383811660008181526001602090815260408083209487168084529482529182902085905590518481527f8c5be1e5ebec7d5bd14f71427d1e84f3dd0314c0f7b2291e5b200ac8c7c3b92591015b60405180910390a3505050565b6001600160a01b0383166117395760405162461bcd60e51b81526004016109a89061276d565b6001600160a01b03821661175f5760405162461bcd60e51b81526004016109a8906126f5565b6005546001600160a01b0384811691161480159061178b57506005546001600160a01b03838116911614155b80156117a05750600854600160a81b900460ff165b15611811576a295be96e640669720000008111156118115760405162461bcd60e51b815260206004820152602860248201527f5472616e7366657220616d6f756e74206578636565647320746865206d6178546044820152673c20b6b7bab73a1760c11b60648201526084016109a8565b600c5460ff16806118aa576001600160a01b0384166000908152600e602052604090205460ff166118aa5760405162461bcd60e51b815260206004820152603f60248201527f50495451443a2054686973206163636f756e742063616e6e6f742073656e642060448201527f746f6b656e7320756e74696c2074726164696e6720697320656e61626c65640060648201526084016109a8565b7f00000000000000000000000000000000000000000000000000000000000000006001600160a01b0316846001600160a01b0316148061191b57507f00000000000000000000000000000000000000000000000000000000000000006001600160a01b0316836001600160a01b0316145b80156119245750805b508161193c5761193684846000611f97565b50505050565b600654600160a01b900460ff161580156119535750805b801561197757506001600160a01b0383166000908152600f602052604090205460ff165b801561199157506006546001600160a01b03858116911614155b80156119b657506001600160a01b0383166000908152600d602052604090205460ff16155b15611a3c576a295be96e64066972000000821115611a3c5760405162461bcd60e51b815260206004820152603d60248201527f53656c6c207472616e7366657220616d6f756e7420657863656564732074686560448201527f204d41585f53454c4c5f5452414e53414354494f4e5f414d4f554e542e00000060648201526084016109a8565b30600090815260208190526040902054600b54811015828015611a5c5750805b8015611a715750600854600160a01b900460ff165b8015611a875750600654600160a01b900460ff16155b8015611aac57506001600160a01b0386166000908152600f602052604090205460ff16155b8015611ac657506008546001600160a01b03878116911614155b8015611ae057506008546001600160a01b03868116911614155b15611b4e576006805460ff60a01b1916600160a01b1790556000611b1a611b0960016002612822565b611b148560016120a0565b9061211f565b9050611b2581612161565b30600090815260208190526040902054611b3e816121ff565b50506006805460ff60a01b191690555b6000838015611b675750600654600160a01b900460ff16155b6001600160a01b0388166000908152600d602052604090205490915060ff1680611ba957506001600160a01b0386166000908152600d602052604090205460ff165b15611bb2575060005b8015611bf0576000611bd56064611b14611bce60016002612822565b89906120a0565b9050611be186826122a7565b9550611bee883083611f97565b505b611bfb878787611f97565b6007546001600160a01b031663e30443bc88611c2c816001600160a01b031660009081526020819052604090205490565b6040516001600160e01b031960e085901b1681526001600160a01b0390921660048301526024820152604401600060405180830381600087803b158015611c7257600080fd5b505af1925050508015611c83575060015b506007546001600160a01b031663e30443bc87611cb5816001600160a01b031660009081526020819052604090205490565b6040516001600160e01b031960e085901b1681526001600160a01b0390921660048301526024820152604401600060405180830381600087803b158015611cfb57600080fd5b505af1925050508015611d0c575060015b50600654600160a01b900460ff16611df657600a546007546040516001624d3b8760e01b03198152600481018390526001600160a01b039091169063ffb2c47990602401606060405180830381600087803b158015611d6a57600080fd5b505af1925050508015611d9a575060408051601f3d908101601f19168201909252611d9791810190612675565b60015b611da357611df4565b60408051848152602081018490529081018290526060810185905232906001907fc864333d6121033635ab41b29ae52f10a22cf4438c3e4f1c4c68518feb2f8a989060800160405180910390a35050505b505b50505050505050565b60008184841115611e235760405162461bcd60e51b81526004016109a891906126a2565b506000611e308486612879565b95945050505050565b6001600160a01b0382166000908152600f602052604090205460ff1615158115151415611ece5760405162461bcd60e51b815260206004820152603f60248201527f50495451443a204175746f6d61746564206d61726b6574206d616b657220706160448201527f697220697320616c72656164792073657420746f20746861742076616c75650060648201526084016109a8565b6001600160a01b0382166000908152600f60205260409020805460ff19168215801591909117909155611f5b5760075460405163031e79db60e41b81526001600160a01b038481166004830152909116906331e79db090602401600060405180830381600087803b158015611f4257600080fd5b505af1158015611f56573d6000803e3d6000fd5b505050505b604051811515906001600160a01b038416907fffa9187bf1f18bf477bd0ea1bcbb64e93b6a98132473929edfce215cd9b16fab90600090a35050565b6001600160a01b038316611fbd5760405162461bcd60e51b81526004016109a89061276d565b6001600160a01b038216611fe35760405162461bcd60e51b81526004016109a8906126f5565b61202081604051806060016040528060268152602001612905602691396001600160a01b0386166000908152602081905260409020549190611dff565b6001600160a01b03808516600090815260208190526040808220939093559084168152205461204f9082611588565b6001600160a01b038381166000818152602081815260409182902094909455518481529092918616917fddf252ad1be2c89b69c2b068fc378daa952ba7f163c4a11628f55a4df523b3ef9101611706565b6000826120af57506000610978565b60006120bb838561285a565b9050826120c8858361283a565b146115e75760405162461bcd60e51b815260206004820152602160248201527f536166654d6174683a206d756c7469706c69636174696f6e206f766572666c6f6044820152607760f81b60648201526084016109a8565b60006115e783836040518060400160405280601a81526020017f536166654d6174683a206469766973696f6e206279207a65726f0000000000008152506122e9565b804761216c82612317565b600061217847836122a7565b6040519091507320749ef8afc04a7b82b31fca2f57ffeedfd2236890819083156108fc029084906000818181858888f193505050501580156121be573d6000803e3d6000fd5b5060408051868152602081018490527f98024b0e201aa667dd34d5242eaa5ec55bd223ff5dad2fb1fd9a11e35f86f05f910160405180910390a15050505050565b61220881612317565b60075460405147916000916001600160a01b039091169083908381818185875af1925050503d8060008114612259576040519150601f19603f3d011682016040523d82523d6000602084013e61225e565b606091505b5050905080156122a25760408051848152602081018490527f5e8c953468549261e19b5df2c0776259d823043f64befbef757760c2800c07ca910160405180910390a15b505050565b60006115e783836040518060400160405280601e81526020017f536166654d6174683a207375627472616374696f6e206f766572666c6f770000815250611dff565b6000818361230a5760405162461bcd60e51b81526004016109a891906126a2565b506000611e30848661283a565b604080516002808252606082018352600092602083019080368337019050509050308160008151811061235a57634e487b7160e01b600052603260045260246000fd5b6001600160a01b03928316602091820292909201810191909152600654604080516315ab88c960e31b81529051919093169263ad5c4648926004808301939192829003018186803b1580156123ae57600080fd5b505afa1580156123c2573d6000803e3d6000fd5b505050506040513d601f19601f820116820180604052508101906123e691906124b8565b8160018151811061240757634e487b7160e01b600052603260045260246000fd5b6001600160a01b03928316602091820292909201015260065461242d91309116846115ee565b60065460405163791ac94760e01b81526001600160a01b039091169063791ac947906124669085906000908690309042906004016127b2565b600060405180830381600087803b15801561248057600080fd5b505af1158015612494573d6000803e3d6000fd5b505050505050565b6000602082840312156124ad578081fd5b81356115e7816128e1565b6000602082840312156124c9578081fd5b81516115e7816128e1565b600080604083850312156124e6578081fd5b82356124f1816128e1565b91506020830135612501816128e1565b809150509250929050565b600080600060608486031215612520578081fd5b833561252b816128e1565b9250602084013561253b816128e1565b929592945050506040919091013590565b6000806040838503121561255e578182fd5b8235612569816128e1565b91506020830135612501816128f6565b600080600080600080600080610100898b031215612595578384fd5b88516125a0816128e1565b809850506020890151965060408901519550606089015194506080890151935060a0890151925060c0890151915060e089015190509295985092959890939650565b600080604083850312156125f4578182fd5b82356125ff816128e1565b946020939093013593505050565b60006020828403121561261e578081fd5b81356115e7816128f6565b60006020828403121561263a578081fd5b81516115e7816128f6565b600060208284031215612656578081fd5b5035919050565b60006020828403121561266e578081fd5b5051919050565b600080600060608486031215612689578283fd5b8351925060208401519150604084015190509250925092565b6000602080835283518082850152825b818110156126ce578581018301518582016040015282016126b2565b818111156126df5783604083870101525b50601f01601f1916929092016040019392505050565b60208082526023908201527f45524332303a207472616e7366657220746f20746865207a65726f206164647260408201526265737360e81b606082015260800190565b6020808252818101527f4f776e61626c653a2063616c6c6572206973206e6f7420746865206f776e6572604082015260600190565b60208082526025908201527f45524332303a207472616e736665722066726f6d20746865207a65726f206164604082015264647265737360d81b606082015260800190565b600060a082018783526020878185015260a0604085015281875180845260c0860191508289019350845b818110156128015784516001600160a01b0316835293830193918301916001016127dc565b50506001600160a01b03969096166060850152505050608001529392505050565b60008219821115612835576128356128cb565b500190565b60008261285557634e487b7160e01b81526012600452602481fd5b500490565b6000816000190483118215151615612874576128746128cb565b500290565b60008282101561288b5761288b6128cb565b500390565b600181811c908216806128a457607f821691505b602082108114156128c557634e487b7160e01b600052602260045260246000fd5b50919050565b634e487b7160e01b600052601160045260246000fd5b6001600160a01b0381168114610c1a57600080fd5b8015158114610c1a57600080fdfe45524332303a207472616e7366657220616d6f756e7420657863656564732062616c616e636545524332303a207472616e7366657220616d6f756e74206578636565647320616c6c6f77616e636545524332303a2064656372656173656420616c6c6f77616e63652062656c6f77207a65726fa2646970667358221220a6fb5f137b27684692f8649572ce95a89ea4b920eafb87d4e5470b7aa8d81f9c64736f6c6343000804003360806040523480156200001157600080fd5b5060408051808201825260168082527f50495451445f4469766964656e645f547261636b657200000000000000000000602080840182815285518087019096529285528401528151919291839183916200006e91600391620000e0565b50805162000084906004906020840190620000e0565b5050610bb86008555050600a80546001600160a01b0319163390811790915560405190915081906000907f8be0079c531659141344cd1fd0a4f28419497f9722a3daafe3b4186f6b6457e0908290a350611c20601255620001c3565b828054620000ee9062000186565b90600052602060002090601f0160209004810192826200011257600085556200015d565b82601f106200012d57805160ff19168380011785556200015d565b828001600101855582156200015d579182015b828111156200015d57825182559160200191906001019062000140565b506200016b9291506200016f565b5090565b5b808211156200016b576000815560010162000170565b600181811c908216806200019b57607f821691505b60208210811415620001bd57634e487b7160e01b600052602260045260246000fd5b50919050565b6121b080620001d36000396000f3fe60806040526004361061021e5760003560e01c806385a6b3ae11610123578063bc4c4b37116100ab578063e98030c71161006f578063e98030c714610695578063f2fde38b146106b5578063f39b5020146106d5578063fbcbc0f1146106eb578063ffb2c4791461070b57600080fd5b8063bc4c4b37146105dc578063c38f9cad146105fc578063dd62ed3e1461061a578063e30443bc14610660578063e7841ec01461068057600080fd5b80639d55d16f116100f25780639d55d16f14610526578063a457c2d714610546578063a8b9d24014610566578063a9059cbb14610586578063aafd847a146105a657600080fd5b806385a6b3ae146104b35780638da5cb5b146104c957806391b89fba146104f157806395d89b411461051157600080fd5b8063313ce567116101a65780635183d6fd116101755780635183d6fd146103d85780636a4740021461043d5780636f2789ec1461045257806370a0823114610468578063715018a61461049e57600080fd5b8063313ce5671461034c57806331e79db01461036857806339509351146103885780634e7b827f146103a857600080fd5b806318160ddd116101ed57806318160ddd146102b4578063226cfa3d146102c957806323b872dd146102f657806327ce0147146103165780633009a6091461033657600080fd5b806303c833021461023257806306fdde031461023a578063095ea7b31461026557806309bbedde1461029557600080fd5b3661022d5761022b610746565b005b600080fd5b61022b610746565b34801561024657600080fd5b5061024f6107d9565b60405161025c9190611f11565b60405180910390f35b34801561027157600080fd5b50610285610280366004611e49565b61086b565b604051901515815260200161025c565b3480156102a157600080fd5b50600b545b60405190815260200161025c565b3480156102c057600080fd5b506002546102a6565b3480156102d557600080fd5b506102a66102e4366004611dd5565b60116020526000908152604090205481565b34801561030257600080fd5b50610285610311366004611ea1565b610882565b34801561032257600080fd5b506102a6610331366004611dd5565b6108eb565b34801561034257600080fd5b506102a6600f5481565b34801561035857600080fd5b506040516012815260200161025c565b34801561037457600080fd5b5061022b610383366004611dd5565b610947565b34801561039457600080fd5b506102856103a3366004611e49565b610a77565b3480156103b457600080fd5b506102856103c3366004611dd5565b60106020526000908152604090205460ff1681565b3480156103e457600080fd5b506103f86103f3366004611ef9565b610aad565b604080516001600160a01b0390991689526020890197909752958701949094526060860192909252608085015260a084015260c083015260e08201526101000161025c565b34801561044957600080fd5b5061022b610c1f565b34801561045e57600080fd5b506102a660125481565b34801561047457600080fd5b506102a6610483366004611dd5565b6001600160a01b031660009081526020819052604090205490565b3480156104aa57600080fd5b5061022b610cc3565b3480156104bf57600080fd5b506102a660095481565b3480156104d557600080fd5b50600a546040516001600160a01b03909116815260200161025c565b3480156104fd57600080fd5b506102a661050c366004611dd5565b610d37565b34801561051d57600080fd5b5061024f610d42565b34801561053257600080fd5b5061022b610541366004611ef9565b610d51565b34801561055257600080fd5b50610285610561366004611e49565b610e31565b34801561057257600080fd5b506102a6610581366004611dd5565b610e80565b34801561059257600080fd5b506102856105a1366004611e49565b610eac565b3480156105b257600080fd5b506102a66105c1366004611dd5565b6001600160a01b031660009081526007602052604090205490565b3480156105e857600080fd5b506102856105f7366004611e0d565b610eb9565b34801561060857600080fd5b506102a669152d02c7e14af680000081565b34801561062657600080fd5b506102a6610635366004611e74565b6001600160a01b03918216600090815260016020908152604080832093909416825291909152205490565b34801561066c57600080fd5b5061022b61067b366004611e49565b610f67565b34801561068c57600080fd5b50600f546102a6565b3480156106a157600080fd5b5061022b6106b0366004611ef9565b6110dd565b3480156106c157600080fd5b5061022b6106d0366004611dd5565b61124d565b3480156106e157600080fd5b506102a660085481565b3480156106f757600080fd5b506103f8610706366004611dd5565b611338565b34801561071757600080fd5b5061072b610726366004611ef9565b6114b0565b6040805193845260208401929092529082015260600161025c565b600061075160025490565b1161075b57600080fd5b34156107d75761078e61076d60025490565b61077b34600160801b6115d9565b6107859190611ff2565b6005549061165f565b60055560405134815233907fa493a9229478c3fcd73f66d2cdeb7f94fd0f341da924d1054236d784541165119060200160405180910390a26009546107d3903461165f565b6009555b565b6060600380546107e890612087565b80601f016020809104026020016040519081016040528092919081815260200182805461081490612087565b80156108615780601f1061083657610100808354040283529160200191610861565b820191906000526020600020905b81548152906001019060200180831161084457829003601f168201915b5050505050905090565b60006108783384846116be565b5060015b92915050565b600061088f8484846117e2565b6108e184336108dc8560405180606001604052806028815260200161212e602891396001600160a01b038a166000908152600160209081526040808320338452909152902054919061183f565b6116be565b5060019392505050565b6001600160a01b03811660009081526006602090815260408083205491839052822054600554600160801b9261093d92610938926109329161092d91906115d9565b611879565b90611889565b6118c7565b61087c9190611ff2565b600a546001600160a01b0316331461097a5760405162461bcd60e51b815260040161097190611f64565b60405180910390fd5b6001600160a01b03811660009081526010602052604090205460ff16156109a057600080fd5b6001600160a01b0381166000908152601060205260408120805460ff191660011790556109ce9082906118da565b60405163131836e760e21b8152600b60048201526001600160a01b038216602482015273a0b9c9ca52539f1d53cb54521863c08e9739000690634c60db9c9060440160006040518083038186803b158015610a2857600080fd5b505af4158015610a3c573d6000803e3d6000fd5b50506040516001600160a01b03841692507fbc358c1a6bbec2cf1d21c2fb5a564b55d7828e32fb5da64adf3c5479264650109150600090a250565b3360008181526001602090815260408083206001600160a01b038716845290915281205490916108789185906108dc908661165f565b600080600080600080600080600b73a0b9c9ca52539f1d53cb54521863c08e9739000663deb3d89690916040518263ffffffff1660e01b8152600401610af591815260200190565b60206040518083038186803b158015610b0d57600080fd5b505af4158015610b21573d6000803e3d6000fd5b505050506040513d601f19601f82011682018060405250810190610b459190611ee1565b8910610b6a575060009650600019955085945086935083925082915081905080610c14565b6040516368d54f3f60e11b8152600b6004820152602481018a905260009073a0b9c9ca52539f1d53cb54521863c08e973900069063d1aa9e7e9060440160206040518083038186803b158015610bbf57600080fd5b505af4158015610bd3573d6000803e3d6000fd5b505050506040513d601f19601f82011682018060405250810190610bf79190611df1565b9050610c0281611338565b98509850985098509850985098509850505b919395975091939597565b60405162461bcd60e51b815260206004820152606760248201527f50495451445f4469766964656e645f547261636b65723a20776974686472617760448201527f4469766964656e642064697361626c65642e20557365207468652027636c616960648201527f6d272066756e6374696f6e206f6e20746865206d61696e20504954514420636f608482015266373a3930b1ba1760c91b60a482015260c401610971565b600a546001600160a01b03163314610ced5760405162461bcd60e51b815260040161097190611f64565b600a546040516000916001600160a01b0316907f8be0079c531659141344cd1fd0a4f28419497f9722a3daafe3b4186f6b6457e0908390a3600a80546001600160a01b0319169055565b600061087c82610e80565b6060600480546107e890612087565b600a546001600160a01b03163314610d7b5760405162461bcd60e51b815260040161097190611f64565b600854811415610dfe5760405162461bcd60e51b815260206004820152604260248201527f50495451445f4469766964656e645f547261636b65723a2043616e6e6f74207560448201527f706461746520676173466f725472616e7366657220746f2073616d652076616c606482015261756560f01b608482015260a401610971565b60085460405182907f5e2963a3d7c88b344b101641f89a2f7da9734fc777ed11ad0097b2775a9e9d1790600090a3600855565b600061087833846108dc85604051806060016040528060258152602001612156602591393360009081526001602090815260408083206001600160a01b038d168452909152902054919061183f565b6001600160a01b03811660009081526007602052604081205461087c90610ea6846108eb565b90611939565b60006108783384846117e2565b600a546000906001600160a01b03163314610ee65760405162461bcd60e51b815260040161097190611f64565b6000610ef18461197b565b90508015610f5d576001600160a01b038416600081815260116020526040908190204290555184151591907fa2c38e2d2fb7e3e1912d937fd1ca11ed6d51864dee4cfa7a7bf02becd7acf09290610f4b9085815260200190565b60405180910390a3600191505061087c565b5060009392505050565b600a546001600160a01b03163314610f915760405162461bcd60e51b815260040161097190611f64565b6001600160a01b03821660009081526010602052604090205460ff1615610fb6575050565b69152d02c7e14af6800000811061104f57610fd182826118da565b604051632f0ad01760e21b8152600b60048201526001600160a01b03831660248201526044810182905273a0b9c9ca52539f1d53cb54521863c08e973900069063bc2b405c9060640160006040518083038186803b15801561103257600080fd5b505af4158015611046573d6000803e3d6000fd5b505050506110cd565b61105a8260006118da565b60405163131836e760e21b8152600b60048201526001600160a01b038316602482015273a0b9c9ca52539f1d53cb54521863c08e9739000690634c60db9c9060440160006040518083038186803b1580156110b457600080fd5b505af41580156110c8573d6000803e3d6000fd5b505050505b6110d8826001610eb9565b505050565b600a546001600160a01b031633146111075760405162461bcd60e51b815260040161097190611f64565b610e10811015801561111c5750620151808111155b6111a25760405162461bcd60e51b815260206004820152604b60248201527f50495451445f4469766964656e645f547261636b65723a20636c61696d57616960448201527f74206d757374206265207570646174656420746f206265747765656e2031206160648201526a6e6420323420686f75727360a81b608482015260a401610971565b60125481141561121a5760405162461bcd60e51b815260206004820152603d60248201527f50495451445f4469766964656e645f547261636b65723a2043616e6e6f74207560448201527f706461746520636c61696d5761697420746f2073616d652076616c75650000006064820152608401610971565b60125460405182907f474ea64804364a1e29a4487ddb63c3342a2dd826ccd8acf48825e680a0e6f20f90600090a3601255565b600a546001600160a01b031633146112775760405162461bcd60e51b815260040161097190611f64565b6001600160a01b0381166112dc5760405162461bcd60e51b815260206004820152602660248201527f4f776e61626c653a206e6577206f776e657220697320746865207a65726f206160448201526564647265737360d01b6064820152608401610971565b600a546040516001600160a01b038084169216907f8be0079c531659141344cd1fd0a4f28419497f9722a3daafe3b4186f6b6457e090600090a3600a80546001600160a01b0319166001600160a01b0392909216919091179055565b6040516317e142d160e01b8152600b60048201526001600160a01b0382166024820152819060009081908190819081908190819073a0b9c9ca52539f1d53cb54521863c08e97390006906317e142d19060440160206040518083038186803b1580156113a357600080fd5b505af41580156113b7573d6000803e3d6000fd5b505050506040513d601f19601f820116820180604052508101906113db9190611ee1565b965060001995506000871261143d57600f5487111561140957600f54611402908890611abe565b955061143d565b600f54600b546000911061141e57600061142d565b600f54600b5461142d91611939565b90506114398882611889565b9650505b61144688610e80565b9450611451886108eb565b6001600160a01b03891660009081526011602052604090205490945092508261147b576000611489565b60125461148990849061165f565b91504282116114995760006114a3565b6114a38242611939565b9050919395975091939597565b600b5460009081908190806114d0575050600f54600092508291506115d2565b600f546000805a90506000805b89841080156114eb57508582105b156115c157846114fa816120c2565b600b549096508610905061150d57600094505b6000600b600001868154811061153357634e487b7160e01b600052603260045260246000fd5b60009182526020808320909101546001600160a01b0316808352601190915260409091205490915061156490611afb565b1561158757611574816001610eb9565b156115875781611583816120c2565b9250505b82611591816120c2565b93505060005a9050808511156115b8576115b56115ae8683611939565b879061165f565b95505b93506114dd9050565b600f85905590975095509193505050505b9193909250565b6000826115e85750600061087c565b60006115f48385612012565b9050826116018583611ff2565b146116585760405162461bcd60e51b815260206004820152602160248201527f536166654d6174683a206d756c7469706c69636174696f6e206f766572666c6f6044820152607760f81b6064820152608401610971565b9392505050565b60008061166c8385611fda565b9050838110156116585760405162461bcd60e51b815260206004820152601b60248201527f536166654d6174683a206164646974696f6e206f766572666c6f7700000000006044820152606401610971565b6001600160a01b0383166117205760405162461bcd60e51b8152602060048201526024808201527f45524332303a20617070726f76652066726f6d20746865207a65726f206164646044820152637265737360e01b6064820152608401610971565b6001600160a01b0382166117815760405162461bcd60e51b815260206004820152602260248201527f45524332303a20617070726f766520746f20746865207a65726f206164647265604482015261737360f01b6064820152608401610971565b6001600160a01b0383811660008181526001602090815260408083209487168084529482529182902085905590518481527f8c5be1e5ebec7d5bd14f71427d1e84f3dd0314c0f7b2291e5b200ac8c7c3b925910160405180910390a3505050565b60405162461bcd60e51b815260206004820152602c60248201527f50495451445f4469766964656e645f547261636b65723a204e6f207472616e7360448201526b19995c9cc8185b1b1bddd95960a21b6064820152608401610971565b600081848411156118635760405162461bcd60e51b81526004016109719190611f11565b5060006118708486612070565b95945050505050565b6000818181121561087c57600080fd5b6000806118968385611f99565b9050600083121580156118a95750838112155b806118be57506000831280156118be57508381125b61165857600080fd5b6000808212156118d657600080fd5b5090565b6001600160a01b038216600090815260208190526040902054808211156119195760006119078383611939565b90506119138482611b22565b50505050565b808210156110d857600061192d8284611939565b90506119138482611b86565b600061165883836040518060400160405280601e81526020017f536166654d6174683a207375627472616374696f6e206f766572666c6f77000081525061183f565b60008061198783610e80565b90508015611ab5576001600160a01b0383166000908152600760205260409020546119b2908261165f565b6001600160a01b038416600081815260076020526040908190209290925590517fee503bee2bb6a87e57bc57db795f98137327401a0e7b7ce42e37926cc1a9ca4d90611a019084815260200190565b60405180910390a26008546040516000916001600160a01b03861691849084818181858888f193505050503d8060008114611a58576040519150601f19603f3d011682016040523d82523d6000602084013e611a5d565b606091505b5050905080611aae576001600160a01b038416600090815260076020526040902054611a899083611939565b6001600160a01b03909416600090815260076020526040812094909455509192915050565b5092915050565b50600092915050565b600080611acb8385612031565b905060008312158015611ade5750838113155b806118be57506000831280156118be575083811361165857600080fd5b600042821115611b0d57506000919050565b601254611b1a4284611939565b101592915050565b611b2c8282611bca565b611b66611b4761092d836005546115d990919063ffffffff16565b6001600160a01b03841660009081526006602052604090205490611abe565b6001600160a01b0390921660009081526006602052604090209190915550565b611b908282611cd1565b611b66611bab61092d836005546115d990919063ffffffff16565b6001600160a01b03841660009081526006602052604090205490611889565b6001600160a01b038216611c205760405162461bcd60e51b815260206004820152601f60248201527f45524332303a206d696e7420746f20746865207a65726f2061646472657373006044820152606401610971565b600254611c2d908261165f565b6002556001600160a01b038216600090815260208190526040902054611c53908261165f565b6001600160a01b038316600090815260208190526040902055336001600160a01b0316730fe60e55a8c0700b47d4a2663079c445fc4a58936001600160a01b03167fddf252ad1be2c89b69c2b068fc378daa952ba7f163c4a11628f55a4df523b3ef83604051611cc591815260200190565b60405180910390a35050565b6001600160a01b038216611d315760405162461bcd60e51b815260206004820152602160248201527f45524332303a206275726e2066726f6d20746865207a65726f206164647265736044820152607360f81b6064820152608401610971565b611d6e8160405180606001604052806022815260200161210c602291396001600160a01b038516600090815260208190526040902054919061183f565b6001600160a01b038316600090815260208190526040902055600254611d949082611939565b6002556040518181526000906001600160a01b038416907fddf252ad1be2c89b69c2b068fc378daa952ba7f163c4a11628f55a4df523b3ef90602001611cc5565b600060208284031215611de6578081fd5b8135611658816120f3565b600060208284031215611e02578081fd5b8151611658816120f3565b60008060408385031215611e1f578081fd5b8235611e2a816120f3565b915060208301358015158114611e3e578182fd5b809150509250929050565b60008060408385031215611e5b578182fd5b8235611e66816120f3565b946020939093013593505050565b60008060408385031215611e86578182fd5b8235611e91816120f3565b91506020830135611e3e816120f3565b600080600060608486031215611eb5578081fd5b8335611ec0816120f3565b92506020840135611ed0816120f3565b929592945050506040919091013590565b600060208284031215611ef2578081fd5b5051919050565b600060208284031215611f0a578081fd5b5035919050565b6000602080835283518082850152825b81811015611f3d57858101830151858201604001528201611f21565b81811115611f4e5783604083870101525b50601f01601f1916929092016040019392505050565b6020808252818101527f4f776e61626c653a2063616c6c6572206973206e6f7420746865206f776e6572604082015260600190565b600080821280156001600160ff1b0384900385131615611fbb57611fbb6120dd565b600160ff1b8390038412811615611fd457611fd46120dd565b50500190565b60008219821115611fed57611fed6120dd565b500190565b60008261200d57634e487b7160e01b81526012600452602481fd5b500490565b600081600019048311821515161561202c5761202c6120dd565b500290565b60008083128015600160ff1b85018412161561204f5761204f6120dd565b6001600160ff1b038401831381161561206a5761206a6120dd565b50500390565b600082821015612082576120826120dd565b500390565b600181811c9082168061209b57607f821691505b602082108114156120bc57634e487b7160e01b600052602260045260246000fd5b50919050565b60006000198214156120d6576120d66120dd565b5060010190565b634e487b7160e01b600052601160045260246000fd5b6001600160a01b038116811461210857600080fd5b5056fe45524332303a206275726e20616d6f756e7420657863656564732062616c616e636545524332303a207472616e7366657220616d6f756e74206578636565647320616c6c6f77616e636545524332303a2064656372656173656420616c6c6f77616e63652062656c6f77207a65726fa2646970667358221220a3560e9f951c04dde14df466590c918c45a32ed7a923883cbb5b4e0e47ea2c1964736f6c63430008040033"}}