{
  "opcodeHash": "0x8bb4878414db68dd8ceb98408bc863d9344b60ce0671c9092caa1fe655186974",
  "metalessHash": "0x24a3100c03f24e8e88d076bfbefd372885ea2e5b1fd23ffd43732fad5b7f3788",
  "runtimeHash": "0x0ecbc1dd691880f87e7de2119c989c6aa19fdd57b1c17fb83254acab8a603654",
  "encodedMetadata": [
    {
      "ipfs": "/ipfs/QmPLV6orjAzktaaBoH8rP1h92vfwVccrtC3JuSaZmMPzYr",
      "solc": "0.6.10"
    }
  ],
  "abi": [
    {
      "inputs": [
        {
          "internalType": "address",
          "name": "manager",
          "type": "address"
        }
      ],
      "stateMutability": "nonpayable",
      "type": "constructor"
    },
    {
      "anonymous": false,
      "inputs": [
        {
          "indexed": true,
          "internalType": "address",
          "name": "owner",
          "type": "address"
        },
        {
          "indexed": true,
          "internalType": "address",
          "name": "spender",
          "type": "address"
        },
        {
          "indexed": false,
          "internalType": "uint256",
          "name": "value",
          "type": "uint256"
        }
      ],
      "name": "Approval",
      "type": "event"
    },
    {
      "anonymous": false,
      "inputs": [
        {
          "indexed": true,
          "internalType": "address",
          "name": "previousOwner",
          "type": "address"
        },
        {
          "indexed": true,
          "internalType": "address",
          "name": "newOwner",
          "type": "address"
        }
      ],
      "name": "OwnershipTransferred",
      "type": "event"
    },
    {
      "anonymous": false,
      "inputs": [
        {
          "indexed": true,
          "internalType": "address",
          "name": "from",
          "type": "address"
        },
        {
          "indexed": true,
          "internalType": "address",
          "name": "to",
          "type": "address"
        },
        {
          "indexed": false,
          "internalType": "uint256",
          "name": "value",
          "type": "uint256"
        }
      ],
      "name": "Transfer",
      "type": "event"
    },
    {
      "inputs": [
        {
          "internalType": "address",
          "name": "minterAddress",
          "type": "address"
        }
      ],
      "name": "addMinter",
      "outputs": [],
      "stateMutability": "nonpayable",
      "type": "function"
    },
    {
      "inputs": [
        {
          "internalType": "address",
          "name": "owner",
          "type": "address"
        },
        {
          "internalType": "address",
          "name": "spender",
          "type": "address"
        }
      ],
      "name": "allowance",
      "outputs": [
        {
          "internalType": "uint256",
          "name": "",
          "type": "uint256"
        }
      ],
      "stateMutability": "view",
      "type": "function"
    },
    {
      "inputs": [
        {
          "internalType": "address",
          "name": "spender",
          "type": "address"
        },
        {
          "internalType": "uint256",
          "name": "value",
          "type": "uint256"
        }
      ],
      "name": "approve",
      "outputs": [
        {
          "internalType": "bool",
          "name": "",
          "type": "bool"
        }
      ],
      "stateMutability": "nonpayable",
      "type": "function"
    },
    {
      "inputs": [
        {
          "internalType": "address",
          "name": "owner",
          "type": "address"
        }
      ],
      "name": "balanceOf",
      "outputs": [
        {
          "internalType": "uint256",
          "name": "",
          "type": "uint256"
        }
      ],
      "stateMutability": "view",
      "type": "function"
    },
    {
      "inputs": [
        {
          "internalType": "uint256",
          "name": "value",
          "type": "uint256"
        }
      ],
      "name": "burn",
      "outputs": [],
      "stateMutability": "nonpayable",
      "type": "function"
    },
    {
      "inputs": [
        {
          "internalType": "address",
          "name": "from",
          "type": "address"
        },
        {
          "internalType": "uint256",
          "name": "value",
          "type": "uint256"
        }
      ],
      "name": "burnFrom",
      "outputs": [],
      "stateMutability": "nonpayable",
      "type": "function"
    },
    {
      "inputs": [],
      "name": "decimals",
      "outputs": [
        {
          "internalType": "uint8",
          "name": "",
          "type": "uint8"
        }
      ],
      "stateMutability": "view",
      "type": "function"
    },
    {
      "inputs": [
        {
          "internalType": "address",
          "name": "spender",
          "type": "address"
        },
        {
          "internalType": "uint256",
          "name": "subtractedValue",
          "type": "uint256"
        }
      ],
      "name": "decreaseAllowance",
      "outputs": [
        {
          "internalType": "bool",
          "name": "",
          "type": "bool"
        }
      ],
      "stateMutability": "nonpayable",
      "type": "function"
    },
    {
      "inputs": [
        {
          "internalType": "address",
          "name": "user",
          "type": "address"
        }
      ],
      "name": "freeze",
      "outputs": [],
      "stateMutability": "nonpayable",
      "type": "function"
    },
    {
      "inputs": [
        {
          "internalType": "address",
          "name": "",
          "type": "address"
        }
      ],
      "name": "freezed",
      "outputs": [
        {
          "internalType": "bool",
          "name": "",
          "type": "bool"
        }
      ],
      "stateMutability": "view",
      "type": "function"
    },
    {
      "inputs": [
        {
          "internalType": "address",
          "name": "spender",
          "type": "address"
        },
        {
          "internalType": "uint256",
          "name": "addedValue",
          "type": "uint256"
        }
      ],
      "name": "increaseAllowance",
      "outputs": [
        {
          "internalType": "bool",
          "name": "",
          "type": "bool"
        }
      ],
      "stateMutability": "nonpayable",
      "type": "function"
    },
    {
      "inputs": [],
      "name": "initalSupply",
      "outputs": [
        {
          "internalType": "uint256",
          "name": "",
          "type": "uint256"
        }
      ],
      "stateMutability": "view",
      "type": "function"
    },
    {
      "inputs": [],
      "name": "isOwner",
      "outputs": [
        {
          "internalType": "bool",
          "name": "",
          "type": "bool"
        }
      ],
      "stateMutability": "view",
      "type": "function"
    },
    {
      "inputs": [
        {
          "internalType": "address",
          "name": "to",
          "type": "address"
        },
        {
          "internalType": "uint256",
          "name": "value",
          "type": "uint256"
        }
      ],
      "name": "mint",
      "outputs": [
        {
          "internalType": "bool",
          "name": "",
          "type": "bool"
        }
      ],
      "stateMutability": "nonpayable",
      "type": "function"
    },
    {
      "inputs": [
        {
          "internalType": "address",
          "name": "",
          "type": "address"
        }
      ],
      "name": "minter",
      "outputs": [
        {
          "internalType": "bool",
          "name": "",
          "type": "bool"
        }
      ],
      "stateMutability": "view",
      "type": "function"
    },
    {
      "inputs": [],
      "name": "name",
      "outputs": [
        {
          "internalType": "string",
          "name": "",
          "type": "string"
        }
      ],
      "stateMutability": "view",
      "type": "function"
    },
    {
      "inputs": [],
      "name": "owner",
      "outputs": [
        {
          "internalType": "address",
          "name": "",
          "type": "address"
        }
      ],
      "stateMutability": "view",
      "type": "function"
    },
    {
      "inputs": [],
      "name": "pause",
      "outputs": [],
      "stateMutability": "nonpayable",
      "type": "function"
    },
    {
      "inputs": [],
      "name": "paused",
      "outputs": [
        {
          "internalType": "bool",
          "name": "",
          "type": "bool"
        }
      ],
      "stateMutability": "view",
      "type": "function"
    },
    {
      "inputs": [
        {
          "internalType": "address",
          "name": "minterAddress",
          "type": "address"
        }
      ],
      "name": "removeMinter",
      "outputs": [],
      "stateMutability": "nonpayable",
      "type": "function"
    },
    {
      "inputs": [],
      "name": "renounceOwnership",
      "outputs": [],
      "stateMutability": "nonpayable",
      "type": "function"
    },
    {
      "inputs": [],
      "name": "symbol",
      "outputs": [
        {
          "internalType": "string",
          "name": "",
          "type": "string"
        }
      ],
      "stateMutability": "view",
      "type": "function"
    },
    {
      "inputs": [],
      "name": "totalSupply",
      "outputs": [
        {
          "internalType": "uint256",
          "name": "",
          "type": "uint256"
        }
      ],
      "stateMutability": "view",
      "type": "function"
    },
    {
      "inputs": [
        {
          "internalType": "address",
          "name": "to",
          "type": "address"
        },
        {
          "internalType": "uint256",
          "name": "value",
          "type": "uint256"
        }
      ],
      "name": "transfer",
      "outputs": [
        {
          "internalType": "bool",
          "name": "",
          "type": "bool"
        }
      ],
      "stateMutability": "nonpayable",
      "type": "function"
    },
    {
      "inputs": [
        {
          "internalType": "address",
          "name": "from",
          "type": "address"
        },
        {
          "internalType": "address",
          "name": "to",
          "type": "address"
        },
        {
          "internalType": "uint256",
          "name": "value",
          "type": "uint256"
        }
      ],
      "name": "transferFrom",
      "outputs": [
        {
          "internalType": "bool",
          "name": "",
          "type": "bool"
        }
      ],
      "stateMutability": "nonpayable",
      "type": "function"
    },
    {
      "inputs": [
        {
          "internalType": "address",
          "name": "newOwner",
          "type": "address"
        }
      ],
      "name": "transferOwnership",
      "outputs": [],
      "stateMutability": "nonpayable",
      "type": "function"
    },
    {
      "inputs": [
        {
          "internalType": "address",
          "name": "user",
          "type": "address"
        }
      ],
      "name": "unfreeze",
      "outputs": [],
      "stateMutability": "nonpayable",
      "type": "function"
    },
    {
      "inputs": [],
      "name": "unpause",
      "outputs": [],
      "stateMutability": "nonpayable",
      "type": "function"
    }
  ],
  "bytecode": {
    "object": "608060405234801561001057600080fd5b5060405161145f38038061145f8339818101604052602081101561003357600080fd5b5051600380546001600160a01b0319166001600160a01b0380841691909117918290556040518392909116906000907f8be0079c531659141344cd1fd0a4f28419497f9722a3daafe3b4186f6b6457e0908290a3506001600160a01b031660009081526020819052604090206a52b7d2dcc80cd2e40000009081905560025561139e806100c16000396000f3fe608060405234801561001057600080fd5b50600436106101c45760003560e01c806370a08231116100f957806395d89b4111610097578063a9059cbb11610071578063a9059cbb14610521578063ce4a7a831461054d578063dd62ed3e14610555578063f2fde38b14610583576101c4565b806395d89b41146104c7578063983b2d56146104cf578063a457c2d7146104f5576101c4565b80638456cb59116100d35780638456cb591461046d5780638d1fdf2f146104755780638da5cb5b1461049b5780638f32d59b146104bf576101c4565b806370a0823114610413578063715018a61461043957806379cc679014610441576101c4565b80633dd08c381161016657806340c10f191161014057806340c10f191461039c57806342966c68146103c857806345c8b1a6146103e55780635c975abb1461040b576101c4565b80633dd08c38146103485780633f4ba83a1461036e578063406f11f514610376576101c4565b806323b872dd116101a257806323b872dd146102a05780633092afd5146102d6578063313ce567146102fe578063395093511461031c576101c4565b806306fdde03146101c9578063095ea7b31461024657806318160ddd14610286575b600080fd5b6101d16105a9565b6040805160208082528351818301528351919283929083019185019080838360005b8381101561020b5781810151838201526020016101f3565b50505050905090810190601f1680156102385780820380516001836020036101000a031916815260200191505b509250505060405180910390f35b6102726004803603604081101561025c57600080fd5b506001600160a01b0381351690602001356105ca565b604080519115158252519081900360200190f35b61028e610633565b60408051918252519081900360200190f35b610272600480360360608110156102b657600080fd5b506001600160a01b03813581169160208101359091169060400135610639565b6102fc600480360360208110156102ec57600080fd5b50356001600160a01b0316610730565b005b6103066107a0565b6040805160ff9092168252519081900360200190f35b6102726004803603604081101561033257600080fd5b506001600160a01b0381351690602001356107a5565b6102726004803603602081101561035e57600080fd5b50356001600160a01b0316610807565b6102fc61081c565b6102726004803603602081101561038c57600080fd5b50356001600160a01b031661087a565b610272600480360360408110156103b257600080fd5b506001600160a01b03813516906020013561088f565b6102fc600480360360208110156103de57600080fd5b50356108fd565b6102fc600480360360208110156103fb57600080fd5b50356001600160a01b031661090a565b61027261097a565b61028e6004803603602081101561042957600080fd5b50356001600160a01b031661098a565b6102fc6109a5565b6102fc6004803603604081101561045757600080fd5b506001600160a01b038135169060200135610a3e565b6102fc610a4c565b6102fc6004803603602081101561048b57600080fd5b50356001600160a01b0316610ab0565b6104a3610b23565b604080516001600160a01b039092168252519081900360200190f35b610272610b32565b6101d1610b43565b6102fc600480360360208110156104e557600080fd5b50356001600160a01b0316610b62565b6102726004803603604081101561050b57600080fd5b506001600160a01b038135169060200135610bd5565b6102726004803603604081101561053757600080fd5b506001600160a01b038135169060200135610c37565b61028e610d1c565b61028e6004803603604081101561056b57600080fd5b506001600160a01b0381358116916020013516610d2b565b6102fc6004803603602081101561059957600080fd5b50356001600160a01b0316610d56565b6040518060400160405280600581526020016442656c6c6160d81b81525081565b600354600090600160a01b900460ff1615610622576040805162461bcd60e51b81526020600482015260136024820152724369726c756c6174696f6e207061757365642160681b604482015290519081900360640190fd5b61062c8383610dae565b9392505050565b60025490565b600354600090600160a01b900460ff1615610691576040805162461bcd60e51b81526020600482015260136024820152724369726c756c6174696f6e207061757365642160681b604482015290519081900360640190fd5b6001600160a01b03841660009081526004602052604090205460ff161580156106d357506001600160a01b03831660009081526004602052604090205460ff16155b61071d576040805162461bcd60e51b81526020600482015260166024820152751d185c99d95d081d5cd95c881a5cc8199c99595e995960521b604482015290519081900360640190fd5b610728848484610dbb565b949350505050565b610738610b32565b61077f576040805162461bcd60e51b815260206004820152601360248201527213db9b1e481bdddb995c8818d85b8818d85b1b606a1b604482015290519081900360640190fd5b6001600160a01b03166000908152600560205260409020805460ff19169055565b601281565b600354600090600160a01b900460ff16156107fd576040805162461bcd60e51b81526020600482015260136024820152724369726c756c6174696f6e207061757365642160681b604482015290519081900360640190fd5b61062c8383610e12565b60056020526000908152604090205460ff1681565b610824610b32565b61086b576040805162461bcd60e51b815260206004820152601360248201527213db9b1e481bdddb995c8818d85b8818d85b1b606a1b604482015290519081900360640190fd5b6003805460ff60a01b19169055565b60046020526000908152604090205460ff1681565b3360009081526005602052604081205460ff166108ea576040805162461bcd60e51b815260206004820152601460248201527313db9b1e481b5a5b9d195c8818d85b8818d85b1b60621b604482015290519081900360640190fd5b6108f48383610e4e565b50600192915050565b6109073382610ef6565b50565b610912610b32565b610959576040805162461bcd60e51b815260206004820152601360248201527213db9b1e481bdddb995c8818d85b8818d85b1b606a1b604482015290519081900360640190fd5b6001600160a01b03166000908152600460205260409020805460ff19169055565b600354600160a01b900460ff1681565b6001600160a01b031660009081526020819052604090205490565b6109ad610b32565b6109f4576040805162461bcd60e51b815260206004820152601360248201527213db9b1e481bdddb995c8818d85b8818d85b1b606a1b604482015290519081900360640190fd5b6003546040516000916001600160a01b0316907f8be0079c531659141344cd1fd0a4f28419497f9722a3daafe3b4186f6b6457e0908390a3600380546001600160a01b0319169055565b610a488282610f9d565b5050565b610a54610b32565b610a9b576040805162461bcd60e51b815260206004820152601360248201527213db9b1e481bdddb995c8818d85b8818d85b1b606a1b604482015290519081900360640190fd5b6003805460ff60a01b1916600160a01b179055565b610ab8610b32565b610aff576040805162461bcd60e51b815260206004820152601360248201527213db9b1e481bdddb995c8818d85b8818d85b1b606a1b604482015290519081900360640190fd5b6001600160a01b03166000908152600460205260409020805460ff19166001179055565b6003546001600160a01b031690565b6003546001600160a01b0316331490565b6040518060400160405280600381526020016210915360ea1b81525081565b610b6a610b32565b610bb1576040805162461bcd60e51b815260206004820152601360248201527213db9b1e481bdddb995c8818d85b8818d85b1b606a1b604482015290519081900360640190fd5b6001600160a01b03166000908152600560205260409020805460ff19166001179055565b600354600090600160a01b900460ff1615610c2d576040805162461bcd60e51b81526020600482015260136024820152724369726c756c6174696f6e207061757365642160681b604482015290519081900360640190fd5b61062c8383610fe2565b600354600090600160a01b900460ff1615610c8f576040805162461bcd60e51b81526020600482015260136024820152724369726c756c6174696f6e207061757365642160681b604482015290519081900360640190fd5b3360009081526004602052604090205460ff16158015610cc857506001600160a01b03831660009081526004602052604090205460ff16155b610d12576040805162461bcd60e51b81526020600482015260166024820152751d185c99d95d081d5cd95c881a5cc8199c99595e995960521b604482015290519081900360640190fd5b61062c838361101e565b6a52b7d2dcc80cd2e400000081565b6001600160a01b03918216600090815260016020908152604080832093909416825291909152205490565b610d5e610b32565b610da5576040805162461bcd60e51b815260206004820152601360248201527213db9b1e481bdddb995c8818d85b8818d85b1b606a1b604482015290519081900360640190fd5b6109078161102b565b60006108f43384846110e2565b6000610dc884848461116a565b6001600160a01b038416600090815260016020908152604080832033808552925290912054610e08918691610e03908663ffffffff61123516565b6110e2565b5060019392505050565b3360008181526001602090815260408083206001600160a01b038716845290915281205490916108f4918590610e03908663ffffffff61127716565b6001600160a01b038216610e6157600080fd5b600254610e74908263ffffffff61127716565b6002556001600160a01b038216600090815260208190526040902054610ea0908263ffffffff61127716565b6001600160a01b0383166000818152602081815260408083209490945583518581529351929391927fddf252ad1be2c89b69c2b068fc378daa952ba7f163c4a11628f55a4df523b3ef9281900390910190a35050565b6001600160a01b038216610f0957600080fd5b600254610f1c908263ffffffff61123516565b6002556001600160a01b038216600090815260208190526040902054610f48908263ffffffff61123516565b6001600160a01b038316600081815260208181526040808320949094558351858152935191937fddf252ad1be2c89b69c2b068fc378daa952ba7f163c4a11628f55a4df523b3ef929081900390910190a35050565b610fa78282610ef6565b6001600160a01b038216600090815260016020908152604080832033808552925290912054610a48918491610e03908563ffffffff61123516565b3360008181526001602090815260408083206001600160a01b038716845290915281205490916108f4918590610e03908663ffffffff61123516565b60006108f433848461116a565b6001600160a01b038116611086576040805162461bcd60e51b815260206004820152601d60248201527f4f776e65722073686f756c64206e6f7420626520302061646472657373000000604482015290519081900360640190fd5b6003546040516001600160a01b038084169216907f8be0079c531659141344cd1fd0a4f28419497f9722a3daafe3b4186f6b6457e090600090a3600380546001600160a01b0319166001600160a01b0392909216919091179055565b6001600160a01b0382166110f557600080fd5b6001600160a01b03831661110857600080fd5b6001600160a01b03808416600081815260016020908152604080832094871680845294825291829020859055815185815291517f8c5be1e5ebec7d5bd14f71427d1e84f3dd0314c0f7b2291e5b200ac8c7c3b9259281900390910190a3505050565b6001600160a01b03821661117d57600080fd5b6001600160a01b0383166000908152602081905260409020546111a6908263ffffffff61123516565b6001600160a01b0380851660009081526020819052604080822093909355908416815220546111db908263ffffffff61127716565b6001600160a01b038084166000818152602081815260409182902094909455805185815290519193928716927fddf252ad1be2c89b69c2b068fc378daa952ba7f163c4a11628f55a4df523b3ef92918290030190a3505050565b600061062c83836040518060400160405280601e81526020017f536166654d6174683a207375627472616374696f6e206f766572666c6f7700008152506112d1565b60008282018381101561062c576040805162461bcd60e51b815260206004820152601b60248201527f536166654d6174683a206164646974696f6e206f766572666c6f770000000000604482015290519081900360640190fd5b600081848411156113605760405162461bcd60e51b81526004018080602001828103825283818151815260200191508051906020019080838360005b8381101561132557818101518382015260200161130d565b50505050905090810190601f1680156113525780820380516001836020036101000a031916815260200191505b509250505060405180910390fd5b50505090039056fea26469706673582212206449374bce2b32c61d401ec499dacdc6b31b92641d1a6d7d37a73028143af4cf64736f6c634300060a0033"
  }
}