{
  "opcodeHash": "0x1baf926da229706611bfdcd1f8720dbd346d06286f027ff1900d1d13596e0206",
  "metalessHash": "0xa44949e90801bd8c74e2a29093c86ac7b4101fb07b0e4d88282303dac882e3c2",
  "runtimeHash": "0x9769e7c28ae35ce3a6ebc9009c643f937adf6c8c682037936e5b3f41ff513b90",
  "encodedMetadata": [
    {
      "bzzr1": "/swarm/bzzr1/3d5dd478345e3c7cd00b935b400f126684d7f8611173c472798d17bb84ab0279",
      "solc": "0.5.17"
    }
  ],
  "abi": [
    {
      "anonymous": false,
      "inputs": [
        {
          "indexed": false,
          "internalType": "bytes32",
          "name": "stashId",
          "type": "bytes32"
        },
        {
          "indexed": false,
          "internalType": "address",
          "name": "delegatedCluster",
          "type": "address"
        },
        {
          "indexed": false,
          "internalType": "bytes32[]",
          "name": "tokens",
          "type": "bytes32[]"
        },
        {
          "indexed": false,
          "internalType": "uint256[]",
          "name": "amounts",
          "type": "uint256[]"
        }
      ],
      "name": "AddedToStash",
      "type": "event"
    },
    {
      "anonymous": false,
      "inputs": [
        {
          "indexed": false,
          "internalType": "bytes32",
          "name": "selector",
          "type": "bytes32"
        },
        {
          "indexed": false,
          "internalType": "uint256",
          "name": "prevLockTime",
          "type": "uint256"
        },
        {
          "indexed": false,
          "internalType": "uint256",
          "name": "updatedLockTime",
          "type": "uint256"
        }
      ],
      "name": "LockTimeUpdated",
      "type": "event"
    },
    {
      "anonymous": false,
      "inputs": [
        {
          "indexed": true,
          "internalType": "address",
          "name": "previousOwner",
          "type": "address"
        },
        {
          "indexed": true,
          "internalType": "address",
          "name": "newOwner",
          "type": "address"
        }
      ],
      "name": "OwnershipTransferred",
      "type": "event"
    },
    {
      "anonymous": false,
      "inputs": [
        {
          "indexed": false,
          "internalType": "bytes32",
          "name": "stashId",
          "type": "bytes32"
        },
        {
          "indexed": false,
          "internalType": "address",
          "name": "updatedCluster",
          "type": "address"
        }
      ],
      "name": "Redelegated",
      "type": "event"
    },
    {
      "anonymous": false,
      "inputs": [
        {
          "indexed": false,
          "internalType": "bytes32",
          "name": "stashId",
          "type": "bytes32"
        },
        {
          "indexed": false,
          "internalType": "address",
          "name": "currentCluster",
          "type": "address"
        },
        {
          "indexed": false,
          "internalType": "address",
          "name": "updatedCluster",
          "type": "address"
        },
        {
          "indexed": false,
          "internalType": "uint256",
          "name": "redelegatesAt",
          "type": "uint256"
        }
      ],
      "name": "RedelegationRequested",
      "type": "event"
    },
    {
      "anonymous": false,
      "inputs": [
        {
          "indexed": false,
          "internalType": "bytes32",
          "name": "stashId",
          "type": "bytes32"
        },
        {
          "indexed": true,
          "internalType": "address",
          "name": "staker",
          "type": "address"
        }
      ],
      "name": "StashClosed",
      "type": "event"
    },
    {
      "anonymous": false,
      "inputs": [
        {
          "indexed": true,
          "internalType": "address",
          "name": "creator",
          "type": "address"
        },
        {
          "indexed": false,
          "internalType": "bytes32",
          "name": "stashId",
          "type": "bytes32"
        },
        {
          "indexed": false,
          "internalType": "uint256",
          "name": "stashIndex",
          "type": "uint256"
        },
        {
          "indexed": false,
          "internalType": "bytes32[]",
          "name": "tokens",
          "type": "bytes32[]"
        },
        {
          "indexed": false,
          "internalType": "uint256[]",
          "name": "amounts",
          "type": "uint256[]"
        }
      ],
      "name": "StashCreated",
      "type": "event"
    },
    {
      "anonymous": false,
      "inputs": [
        {
          "indexed": false,
          "internalType": "bytes32",
          "name": "stashId",
          "type": "bytes32"
        },
        {
          "indexed": false,
          "internalType": "address",
          "name": "delegatedCluster",
          "type": "address"
        }
      ],
      "name": "StashDelegated",
      "type": "event"
    },
    {
      "anonymous": false,
      "inputs": [
        {
          "indexed": false,
          "internalType": "bytes32",
          "name": "stashId",
          "type": "bytes32"
        },
        {
          "indexed": false,
          "internalType": "address",
          "name": "undelegatedCluster",
          "type": "address"
        },
        {
          "indexed": false,
          "internalType": "uint256",
          "name": "undelegatesAt",
          "type": "uint256"
        }
      ],
      "name": "StashUndelegated",
      "type": "event"
    },
    {
      "anonymous": false,
      "inputs": [
        {
          "indexed": false,
          "internalType": "bytes32",
          "name": "stashId",
          "type": "bytes32"
        },
        {
          "indexed": false,
          "internalType": "bytes32[]",
          "name": "tokens",
          "type": "bytes32[]"
        },
        {
          "indexed": false,
          "internalType": "uint256[]",
          "name": "amounts",
          "type": "uint256[]"
        }
      ],
      "name": "StashWithdrawn",
      "type": "event"
    },
    {
      "anonymous": false,
      "inputs": [
        {
          "indexed": false,
          "internalType": "bytes32",
          "name": "tokenId",
          "type": "bytes32"
        },
        {
          "indexed": false,
          "internalType": "address",
          "name": "tokenAddress",
          "type": "address"
        }
      ],
      "name": "TokenAdded",
      "type": "event"
    },
    {
      "anonymous": false,
      "inputs": [
        {
          "indexed": false,
          "internalType": "bytes32",
          "name": "tokenId",
          "type": "bytes32"
        }
      ],
      "name": "TokenRemoved",
      "type": "event"
    },
    {
      "anonymous": false,
      "inputs": [
        {
          "indexed": false,
          "internalType": "bytes32",
          "name": "tokenId",
          "type": "bytes32"
        },
        {
          "indexed": false,
          "internalType": "address",
          "name": "tokenAddress",
          "type": "address"
        }
      ],
      "name": "TokenUpdated",
      "type": "event"
    },
    {
      "constant": false,
      "inputs": [
        {
          "internalType": "bytes32",
          "name": "_stashId",
          "type": "bytes32"
        },
        {
          "internalType": "bytes32[]",
          "name": "_tokens",
          "type": "bytes32[]"
        },
        {
          "internalType": "uint256[]",
          "name": "_amounts",
          "type": "uint256[]"
        }
      ],
      "name": "addToStash",
      "outputs": [],
      "payable": false,
      "stateMutability": "nonpayable",
      "type": "function"
    },
    {
      "constant": false,
      "inputs": [
        {
          "internalType": "address",
          "name": "_MPONDTokenAddress",
          "type": "address"
        }
      ],
      "name": "changeMPONDTokenAddress",
      "outputs": [],
      "payable": false,
      "stateMutability": "nonpayable",
      "type": "function"
    },
    {
      "constant": false,
      "inputs": [
        {
          "internalType": "bytes32[]",
          "name": "_tokens",
          "type": "bytes32[]"
        },
        {
          "internalType": "uint256[]",
          "name": "_amounts",
          "type": "uint256[]"
        }
      ],
      "name": "createStash",
      "outputs": [
        {
          "internalType": "bytes32",
          "name": "",
          "type": "bytes32"
        }
      ],
      "payable": false,
      "stateMutability": "nonpayable",
      "type": "function"
    },
    {
      "constant": false,
      "inputs": [
        {
          "internalType": "bytes32[]",
          "name": "_tokens",
          "type": "bytes32[]"
        },
        {
          "internalType": "uint256[]",
          "name": "_amounts",
          "type": "uint256[]"
        },
        {
          "internalType": "address",
          "name": "_delegatedCluster",
          "type": "address"
        }
      ],
      "name": "createStashAndDelegate",
      "outputs": [],
      "payable": false,
      "stateMutability": "nonpayable",
      "type": "function"
    },
    {
      "constant": false,
      "inputs": [
        {
          "internalType": "bytes32",
          "name": "_stashId",
          "type": "bytes32"
        },
        {
          "internalType": "address",
          "name": "_delegatedCluster",
          "type": "address"
        }
      ],
      "name": "delegateStash",
      "outputs": [],
      "payable": false,
      "stateMutability": "nonpayable",
      "type": "function"
    },
    {
      "constant": false,
      "inputs": [
        {
          "internalType": "bytes32",
          "name": "_tokenId",
          "type": "bytes32"
        }
      ],
      "name": "disableToken",
      "outputs": [],
      "payable": false,
      "stateMutability": "nonpayable",
      "type": "function"
    },
    {
      "constant": false,
      "inputs": [
        {
          "internalType": "bytes32",
          "name": "_tokenId",
          "type": "bytes32"
        },
        {
          "internalType": "address",
          "name": "_address",
          "type": "address"
        }
      ],
      "name": "enableToken",
      "outputs": [],
      "payable": false,
      "stateMutability": "nonpayable",
      "type": "function"
    },
    {
      "constant": true,
      "inputs": [
        {
          "internalType": "bytes32",
          "name": "_stashId",
          "type": "bytes32"
        },
        {
          "internalType": "bytes32",
          "name": "_tokenId",
          "type": "bytes32"
        }
      ],
      "name": "getTokenAmountInStash",
      "outputs": [
        {
          "internalType": "uint256",
          "name": "",
          "type": "uint256"
        }
      ],
      "payable": false,
      "stateMutability": "view",
      "type": "function"
    },
    {
      "constant": false,
      "inputs": [
        {
          "internalType": "bytes32[]",
          "name": "_tokenIds",
          "type": "bytes32[]"
        },
        {
          "internalType": "address[]",
          "name": "_tokenAddresses",
          "type": "address[]"
        },
        {
          "internalType": "address",
          "name": "_MPONDTokenAddress",
          "type": "address"
        },
        {
          "internalType": "address",
          "name": "_clusterRegistryAddress",
          "type": "address"
        },
        {
          "internalType": "address",
          "name": "_rewardDelegatorsAddress",
          "type": "address"
        },
        {
          "internalType": "address",
          "name": "_owner",
          "type": "address"
        }
      ],
      "name": "initialize",
      "outputs": [],
      "payable": false,
      "stateMutability": "nonpayable",
      "type": "function"
    },
    {
      "constant": false,
      "inputs": [
        {
          "internalType": "address",
          "name": "sender",
          "type": "address"
        }
      ],
      "name": "initialize",
      "outputs": [],
      "payable": false,
      "stateMutability": "nonpayable",
      "type": "function"
    },
    {
      "constant": true,
      "inputs": [],
      "name": "isOwner",
      "outputs": [
        {
          "internalType": "bool",
          "name": "",
          "type": "bool"
        }
      ],
      "payable": false,
      "stateMutability": "view",
      "type": "function"
    },
    {
      "constant": true,
      "inputs": [
        {
          "internalType": "bytes32",
          "name": "",
          "type": "bytes32"
        }
      ],
      "name": "lockWaitTime",
      "outputs": [
        {
          "internalType": "uint256",
          "name": "",
          "type": "uint256"
        }
      ],
      "payable": false,
      "stateMutability": "view",
      "type": "function"
    },
    {
      "constant": true,
      "inputs": [
        {
          "internalType": "bytes32",
          "name": "",
          "type": "bytes32"
        }
      ],
      "name": "locks",
      "outputs": [
        {
          "internalType": "uint256",
          "name": "unlockBlock",
          "type": "uint256"
        },
        {
          "internalType": "uint256",
          "name": "iValue",
          "type": "uint256"
        }
      ],
      "payable": false,
      "stateMutability": "view",
      "type": "function"
    },
    {
      "constant": true,
      "inputs": [],
      "name": "owner",
      "outputs": [
        {
          "internalType": "address",
          "name": "",
          "type": "address"
        }
      ],
      "payable": false,
      "stateMutability": "view",
      "type": "function"
    },
    {
      "constant": false,
      "inputs": [
        {
          "internalType": "bytes32",
          "name": "_stashId",
          "type": "bytes32"
        }
      ],
      "name": "redelegateStash",
      "outputs": [],
      "payable": false,
      "stateMutability": "nonpayable",
      "type": "function"
    },
    {
      "constant": false,
      "inputs": [],
      "name": "renounceOwnership",
      "outputs": [],
      "payable": false,
      "stateMutability": "nonpayable",
      "type": "function"
    },
    {
      "constant": false,
      "inputs": [
        {
          "internalType": "bytes32",
          "name": "_stashId",
          "type": "bytes32"
        },
        {
          "internalType": "address",
          "name": "_newCluster",
          "type": "address"
        }
      ],
      "name": "requestStashRedelegation",
      "outputs": [],
      "payable": false,
      "stateMutability": "nonpayable",
      "type": "function"
    },
    {
      "constant": true,
      "inputs": [],
      "name": "rewardDelegators",
      "outputs": [
        {
          "internalType": "contract IRewardDelegators",
          "name": "",
          "type": "address"
        }
      ],
      "payable": false,
      "stateMutability": "view",
      "type": "function"
    },
    {
      "constant": true,
      "inputs": [],
      "name": "stashIndex",
      "outputs": [
        {
          "internalType": "uint256",
          "name": "",
          "type": "uint256"
        }
      ],
      "payable": false,
      "stateMutability": "view",
      "type": "function"
    },
    {
      "constant": true,
      "inputs": [
        {
          "internalType": "bytes32",
          "name": "",
          "type": "bytes32"
        }
      ],
      "name": "stashes",
      "outputs": [
        {
          "internalType": "address",
          "name": "staker",
          "type": "address"
        },
        {
          "internalType": "address",
          "name": "delegatedCluster",
          "type": "address"
        },
        {
          "internalType": "uint256",
          "name": "undelegatesAt",
          "type": "uint256"
        }
      ],
      "payable": false,
      "stateMutability": "view",
      "type": "function"
    },
    {
      "constant": false,
      "inputs": [
        {
          "internalType": "address",
          "name": "newOwner",
          "type": "address"
        }
      ],
      "name": "transferOwnership",
      "outputs": [],
      "payable": false,
      "stateMutability": "nonpayable",
      "type": "function"
    },
    {
      "constant": false,
      "inputs": [
        {
          "internalType": "bytes32",
          "name": "_stashId",
          "type": "bytes32"
        }
      ],
      "name": "undelegateStash",
      "outputs": [],
      "payable": false,
      "stateMutability": "nonpayable",
      "type": "function"
    },
    {
      "constant": false,
      "inputs": [
        {
          "internalType": "address",
          "name": "_updatedClusterRegistry",
          "type": "address"
        }
      ],
      "name": "updateClusterRegistry",
      "outputs": [],
      "payable": false,
      "stateMutability": "nonpayable",
      "type": "function"
    },
    {
      "constant": false,
      "inputs": [
        {
          "internalType": "bytes32",
          "name": "_selector",
          "type": "bytes32"
        },
        {
          "internalType": "uint256",
          "name": "_updatedWaitTime",
          "type": "uint256"
        }
      ],
      "name": "updateLockWaitTime",
      "outputs": [],
      "payable": false,
      "stateMutability": "nonpayable",
      "type": "function"
    },
    {
      "constant": false,
      "inputs": [
        {
          "internalType": "address",
          "name": "_updatedRewardDelegator",
          "type": "address"
        }
      ],
      "name": "updateRewardDelegators",
      "outputs": [],
      "payable": false,
      "stateMutability": "nonpayable",
      "type": "function"
    },
    {
      "constant": false,
      "inputs": [
        {
          "internalType": "bytes32",
          "name": "_stashId",
          "type": "bytes32"
        }
      ],
      "name": "withdrawStash",
      "outputs": [],
      "payable": false,
      "stateMutability": "nonpayable",
      "type": "function"
    },
    {
      "constant": false,
      "inputs": [
        {
          "internalType": "bytes32",
          "name": "_stashId",
          "type": "bytes32"
        },
        {
          "internalType": "bytes32[]",
          "name": "_tokens",
          "type": "bytes32[]"
        },
        {
          "internalType": "uint256[]",
          "name": "_amounts",
          "type": "uint256[]"
        }
      ],
      "name": "withdrawStash",
      "outputs": [],
      "payable": false,
      "stateMutability": "nonpayable",
      "type": "function"
    }
  ],
  "bytecode": {
    "object": "60806040526150cf806100136000396000f3fe608060405234801561001057600080fd5b50600436106101b95760003560e01c80637a099cce116100f9578063bf3e116b11610097578063c5ccd69711610071578063c5ccd6971461038a578063ed5e84371461039d578063f2fde38b146103be578063fff0d190146103d1576101b9565b8063bf3e116b14610351578063c0403fb114610364578063c4d66de814610377576101b9565b80638f32d59b116100d35780638f32d59b146102f45780639a5e0e6014610309578063a76f955f1461031c578063a8834f4e1461033e576101b9565b80637a099cce146102b95780638616e44d146102cc5780638da5cb5b146102df576101b9565b8063452a6279116101665780634c8e7d81116101405780634c8e7d81146102785780635dc47b571461028b5780636dd3266d1461029e578063715018a6146102b1576101b9565b8063452a62791461023f57806347ae58b31461025257806348ad857214610265576101b9565b80631efd4106116101975780631efd41061461020457806338e6cc38146102175780633fa364cd1461022a576101b9565b80630312015c146101be57806315c5dfa5146101d35780631a282d99146101f1575b600080fd5b6101d16101cc3660046135f2565b6103e4565b005b6101db6106fe565b6040516101e89190614be2565b60405180910390f35b6101d16101ff3660046137ab565b610704565b6101d1610212366004613597565b610c51565b6101d16102253660046137c9565b610d23565b610232611197565b6040516101e89190614ccf565b6101d161024d3660046137ab565b6111b3565b6101d1610260366004613597565b611590565b6101db6102733660046137ab565b611662565b6101d16102863660046137ab565b611674565b6101d16102993660046137ab565b611781565b6101d16102ac3660046137c9565b611c0a565b6101d1611e5c565b6101d16102c7366004613597565b611f09565b6101d16102da3660046137f9565b611fda565b6102e7612312565b6040516101e89190614b0f565b6102fc61232e565b6040516101e89190614bd4565b6101db61031736600461386c565b61236e565b61032f61032a3660046137ab565b612392565b6040516101e893929190614b76565b6101d161034c3660046137f9565b6123cd565b6101d161035f366004613711565b6126e7565b6101db6103723660046136a8565b612705565b6101d1610385366004613597565b6129b3565b6101d16103983660046137c9565b612b1d565b6103b06103ab3660046137ab565b612cef565b6040516101e8929190614f3e565b6101d16103cc366004613597565b612d08565b6101d16103df36600461386c565b612d52565b600054610100900460ff16806103fd57506103fd612ded565b8061040b575060005460ff16155b61044a576040517f08c379a000000000000000000000000000000000000000000000000000000000815260040161044190614e7e565b60405180910390fd5b600054610100900460ff161580156104b057600080547fffffffffffffffffffffffffffffffffffffffffffffffffffffffffffffff007fffffffffffffffffffffffffffffffffffffffffffffffffffffffffffff00ff909116610100171660011790555b85518751146104eb576040517f08c379a000000000000000000000000000000000000000000000000000000000815260040161044190614dde565b60005b875181101561065a57604051806040016040528088838151811061050e57fe5b602002602001015173ffffffffffffffffffffffffffffffffffffffff16815260200160011515815250606860008a848151811061054857fe5b602090810291909101810151825281810192909252604001600020825181549390920151151574010000000000000000000000000000000000000000027fffffffffffffffffffffff00ffffffffffffffffffffffffffffffffffffffff73ffffffffffffffffffffffffffffffffffffffff9093167fffffffffffffffffffffffff0000000000000000000000000000000000000000909416939093179190911691909117905587517f662cc3305b9b4ea3a5fd06717cdaece79b6ac0a7734fd44eabe0f37951dc587c9089908390811061062057fe5b602002602001015188838151811061063457fe5b602002602001015160405161064a929190614bf0565b60405180910390a16001016104ee565b506069805473ffffffffffffffffffffffffffffffffffffffff8088167fffffffffffffffffffffffff000000000000000000000000000000000000000092831617909255606b8054878416908316179055606c8054928616929091169190911790556106c6826129b3565b80156106f557600080547fffffffffffffffffffffffffffffffffffffffffffffffffffffffffffff00ff1690555b50505050505050565b60675481565b61070c61337c565b506000818152606660209081526040918290208251606081018452815473ffffffffffffffffffffffffffffffffffffffff908116825260018301541692810183905260039091015492810192909252610792576040517f08c379a000000000000000000000000000000000000000000000000000000000815260040161044190614eae565b60006040516107a090614aef565b60405190819003812083516107b792602001614abe565b604080517fffffffffffffffffffffffffffffffffffffffffffffffffffffffffffffffe081840301815291815281516020928301206000818152606d90935291205490915043811115610837576040517f08c379a000000000000000000000000000000000000000000000000000000000815260040161044190614e1e565b6000828152606d60205260409081902060010154606b5491517f51ce9fae000000000000000000000000000000000000000000000000000000008152909173ffffffffffffffffffffffffffffffffffffffff16906351ce9fae906108a0908490600401614b0f565b602060405180830381600087803b1580156108ba57600080fd5b505af11580156108ce573d6000803e3d6000fd5b505050506040513d601f19601f820116820180604052506108f2919081019061378d565b610928576040517f08c379a000000000000000000000000000000000000000000000000000000000815260040161044190614efe565b606c54604080517f2cd76758000000000000000000000000000000000000000000000000000000008152905160609273ffffffffffffffffffffffffffffffffffffffff1691632cd76758916004808301926000929190829003018186803b15801561099357600080fd5b505afa1580156109a7573d6000803e3d6000fd5b505050506040513d6000823e601f3d9081017fffffffffffffffffffffffffffffffffffffffffffffffffffffffffffffffe01682016040526109ed91908101906135bd565b905060608151604051908082528060200260200182016040528015610a1c578160200160208202803883390190505b50905060005b8251811015610a8557606660008981526020019081526020016000206002016000848381518110610a4f57fe5b6020026020010151815260200190815260200160002054828281518110610a7257fe5b6020908102919091010152600101610a22565b50606c54865160208801516040517f9a943e0000000000000000000000000000000000000000000000000000000000815273ffffffffffffffffffffffffffffffffffffffff90931692639a943e0092610ae792909187908790600401614b68565b600060405180830381600087803b158015610b0157600080fd5b505af1158015610b15573d6000803e3d6000fd5b5050606c5488516040517f242ae35800000000000000000000000000000000000000000000000000000000815273ffffffffffffffffffffffffffffffffffffffff909216935063242ae3589250610b7591879087908790600401614b68565b600060405180830381600087803b158015610b8f57600080fd5b505af1158015610ba3573d6000803e3d6000fd5b5050506000888152606660209081526040808320600190810180547fffffffffffffffffffffffff00000000000000000000000000000000000000001673ffffffffffffffffffffffffffffffffffffffff8a16179055898452606d90925280832083815590910191909155517f63c996749362048abd5162a384284583851200b5c4cb4ae2fa1ebb09815289059150610c409089908690614bf0565b60405180910390a150505050505050565b610c5961232e565b610c8f576040517f08c379a000000000000000000000000000000000000000000000000000000000815260040161044190614e6e565b73ffffffffffffffffffffffffffffffffffffffff8116610cdc576040517f08c379a000000000000000000000000000000000000000000000000000000000815260040161044190614e0e565b606b80547fffffffffffffffffffffffff00000000000000000000000000000000000000001673ffffffffffffffffffffffffffffffffffffffff92909216919091179055565b610d2b61337c565b506000828152606660209081526040918290208251606081018452815473ffffffffffffffffffffffffffffffffffffffff908116808352600184015490911693820193909352600390910154928101929092523314610db7576040517f08c379a000000000000000000000000000000000000000000000000000000000815260040161044190614cee565b606b546040517f51ce9fae00000000000000000000000000000000000000000000000000000000815273ffffffffffffffffffffffffffffffffffffffff909116906351ce9fae90610e0d908590600401614b0f565b602060405180830381600087803b158015610e2757600080fd5b505af1158015610e3b573d6000803e3d6000fd5b505050506040513d601f19601f82011682018060405250610e5f919081019061378d565b610e95576040517f08c379a000000000000000000000000000000000000000000000000000000000815260040161044190614e4e565b602081015173ffffffffffffffffffffffffffffffffffffffff1615610ee7576040517f08c379a000000000000000000000000000000000000000000000000000000000815260040161044190614d0e565b4381604001511115610f25576040517f08c379a000000000000000000000000000000000000000000000000000000000815260040161044190614d8e565b6000838152606660205260408082206001810180547fffffffffffffffffffffffff00000000000000000000000000000000000000001673ffffffffffffffffffffffffffffffffffffffff878116919091179091556003909101839055606c5482517f2cd7675800000000000000000000000000000000000000000000000000000000815292516060949190921692632cd767589260048083019392829003018186803b158015610fd657600080fd5b505afa158015610fea573d6000803e3d6000fd5b505050506040513d6000823e601f3d9081017fffffffffffffffffffffffffffffffffffffffffffffffffffffffffffffffe016820160405261103091908101906135bd565b90506060815160405190808252806020026020018201604052801561105f578160200160208202803883390190505b50905060005b82518110156110c85760666000878152602001908152602001600020600201600084838151811061109257fe5b60200260200101518152602001908152602001600020548282815181106110b557fe5b6020908102919091010152600101611065565b50606c546040517f242ae35800000000000000000000000000000000000000000000000000000000815273ffffffffffffffffffffffffffffffffffffffff9091169063242ae35890611125903390889087908790600401614b1d565b600060405180830381600087803b15801561113f57600080fd5b505af1158015611153573d6000803e3d6000fd5b505050507f1d7a1ceec042fe10baf115a3343fbc7647382acfb27b3bb9d63877a592627c818585604051611188929190614bf0565b60405180910390a15050505050565b606c5473ffffffffffffffffffffffffffffffffffffffff1681565b6111bb61337c565b506000818152606660209081526040918290208251606081018452815473ffffffffffffffffffffffffffffffffffffffff908116808352600184015490911693820193909352600390910154928101929092523314611247576040517f08c379a000000000000000000000000000000000000000000000000000000000815260040161044190614dfe565b602081015173ffffffffffffffffffffffffffffffffffffffff1615611299576040517f08c379a000000000000000000000000000000000000000000000000000000000815260040161044190614f1e565b43816040015111156112d7576040517f08c379a000000000000000000000000000000000000000000000000000000000815260040161044190614f0e565b606c54604080517f2cd76758000000000000000000000000000000000000000000000000000000008152905160609273ffffffffffffffffffffffffffffffffffffffff1691632cd76758916004808301926000929190829003018186803b15801561134257600080fd5b505afa158015611356573d6000803e3d6000fd5b505050506040513d6000823e601f3d9081017fffffffffffffffffffffffffffffffffffffffffffffffffffffffffffffffe016820160405261139c91908101906135bd565b9050606081516040519080825280602002602001820160405280156113cb578160200160208202803883390190505b50905060005b82518110156114c5576066600086815260200190815260200160002060020160008483815181106113fe57fe5b602002602001015181526020019081526020016000205482828151811061142157fe5b60200260200101818152505081818151811061143957fe5b60200260200101516000141561144e576114bd565b60666000868152602001908152602001600020600201600084838151811061147257fe5b60200260200101518152602001908152602001600020600090556114bd83828151811061149b57fe5b60200260200101518383815181106114af57fe5b602002602001015133612df3565b6001016113d1565b5060008481526066602052604080822080547fffffffffffffffffffffffff000000000000000000000000000000000000000016815560030191909155517ff7b17d83b1c6d7f3c428e708ce63a8afc9ce528790694f379bd32da3b09d58509061153490869085908590614c65565b60405180910390a13373ffffffffffffffffffffffffffffffffffffffff167f44ec1f9e039c512541fb6904909fc8b3fd32a960374888656587103a37a0c0f8856040516115829190614be2565b60405180910390a250505050565b61159861232e565b6115ce576040517f08c379a000000000000000000000000000000000000000000000000000000000815260040161044190614e6e565b73ffffffffffffffffffffffffffffffffffffffff811661161b576040517f08c379a000000000000000000000000000000000000000000000000000000000815260040161044190614d3e565b606c80547fffffffffffffffffffffffff00000000000000000000000000000000000000001673ffffffffffffffffffffffffffffffffffffffff92909216919091179055565b606e6020526000908152604090205481565b61167c61232e565b6116b2576040517f08c379a000000000000000000000000000000000000000000000000000000000815260040161044190614e6e565b60008181526068602052604090205474010000000000000000000000000000000000000000900460ff16611712576040517f08c379a000000000000000000000000000000000000000000000000000000000815260040161044190614cfe565b6000818152606860205260409081902080547fffffffffffffffffffffff00ffffffffffffffffffffffffffffffffffffffff169055517f27b51627532fe8cd0df946e5a9590efb06cc367d3d611c1e4084c7e1dccb3ab490611776908390614be2565b60405180910390a150565b61178961337c565b506000818152606660209081526040918290208251606081018452815473ffffffffffffffffffffffffffffffffffffffff908116808352600184015490911693820193909352600390910154928101929092523314611815576040517f08c379a000000000000000000000000000000000000000000000000000000000815260040161044190614e3e565b602081015173ffffffffffffffffffffffffffffffffffffffff16611866576040517f08c379a000000000000000000000000000000000000000000000000000000000815260040161044190614ece565b606c54604080517f625aa555000000000000000000000000000000000000000000000000000000008152905160009273ffffffffffffffffffffffffffffffffffffffff169163625aa55591600480830192602092919082900301818787803b1580156118d257600080fd5b505af11580156118e6573d6000803e3d6000fd5b505050506040513d601f19601f8201168201806040525061190a919081019061389c565b9050600061191e438363ffffffff61302116565b6000858152606660205260408082206003810184905560010180547fffffffffffffffffffffffff0000000000000000000000000000000000000000169055519192509061196b90614aef565b604051908190038120611982913390602001614abe565b604080517fffffffffffffffffffffffffffffffffffffffffffffffffffffffffffffffe081840301815291815281516020928301206000818152606d909352912054909150156119e3576000818152606d60205260408120818155600101555b606c54604080517f2cd76758000000000000000000000000000000000000000000000000000000008152905160609273ffffffffffffffffffffffffffffffffffffffff1691632cd76758916004808301926000929190829003018186803b158015611a4e57600080fd5b505afa158015611a62573d6000803e3d6000fd5b505050506040513d6000823e601f3d9081017fffffffffffffffffffffffffffffffffffffffffffffffffffffffffffffffe0168201604052611aa891908101906135bd565b905060608151604051908082528060200260200182016040528015611ad7578160200160208202803883390190505b50905060005b8251811015611b4057606660008981526020019081526020016000206002016000848381518110611b0a57fe5b6020026020010151815260200190815260200160002054828281518110611b2d57fe5b6020908102919091010152600101611add565b50606c5460208701516040517f9a943e0000000000000000000000000000000000000000000000000000000000815273ffffffffffffffffffffffffffffffffffffffff90921691639a943e0091611ba19133919087908790600401614b1d565b600060405180830381600087803b158015611bbb57600080fd5b505af1158015611bcf573d6000803e3d6000fd5b505050507f910aaad05eef8babc75a5bbd3987092b49f6dcd0fd06c860d9af177b650c562587876020015186604051610c4093929190614c57565b611c1261337c565b506000828152606660209081526040918290208251606081018452815473ffffffffffffffffffffffffffffffffffffffff908116808352600184015490911693820193909352600390910154928101929092523314611c9e576040517f08c379a000000000000000000000000000000000000000000000000000000000815260040161044190614d1e565b602081015173ffffffffffffffffffffffffffffffffffffffff16611cef576040517f08c379a000000000000000000000000000000000000000000000000000000000815260040161044190614ede565b6000604051611cfd90614aef565b604051908190038120611d14913390602001614abe565b604080517fffffffffffffffffffffffffffffffffffffffffffffffffffffffffffffffe081840301815291815281516020928301206000818152606d9093529120549091508015611d92576040517f08c379a000000000000000000000000000000000000000000000000000000000815260040161044190614dee565b6000611dcd606e6000604051611da790614aef565b60405180910390208152602001908152602001600020544361302190919063ffffffff16565b60408051808201825282815273ffffffffffffffffffffffffffffffffffffffff881660208083019182526000888152606d825284902092518355905160019092019190915586015190519192507fcc9ff84a5150218e8e56d3d43cfd422a96d5994a3877a760afc1f85dcbab545d91611e4c91899189908690614c0b565b60405180910390a1505050505050565b611e6461232e565b611e9a576040517f08c379a000000000000000000000000000000000000000000000000000000000815260040161044190614e6e565b60335460405160009173ffffffffffffffffffffffffffffffffffffffff16907f8be0079c531659141344cd1fd0a4f28419497f9722a3daafe3b4186f6b6457e0908390a3603380547fffffffffffffffffffffffff0000000000000000000000000000000000000000169055565b611f1161232e565b611f47576040517f08c379a000000000000000000000000000000000000000000000000000000000815260040161044190614e6e565b60698054606a805473ffffffffffffffffffffffffffffffffffffffff8084167fffffffffffffffffffffffff0000000000000000000000000000000000000000928316179092559091169083161790556040517f2aada7c835843a942d6bae43540591b084921c87edbb049c55d49d114424279490611fc690614ae4565b604051908190038120611776918490614bf0565b611fe261337c565b506000838152606660209081526040918290208251606081018452815473ffffffffffffffffffffffffffffffffffffffff90811680835260018401549091169382019390935260039091015492810192909252331461206e576040517f08c379a000000000000000000000000000000000000000000000000000000000815260040161044190614dae565b43816040015111156120ac576040517f08c379a000000000000000000000000000000000000000000000000000000000815260040161044190614d9e565b81518351146120e7576040517f08c379a000000000000000000000000000000000000000000000000000000000815260040161044190614dce565b602081015173ffffffffffffffffffffffffffffffffffffffff161561219a57606c5460208201516040517f242ae35800000000000000000000000000000000000000000000000000000000815273ffffffffffffffffffffffffffffffffffffffff9092169163242ae358916121679133919088908890600401614b1d565b600060405180830381600087803b15801561218157600080fd5b505af1158015612195573d6000803e3d6000fd5b505050505b60005b83518110156122ca5760008482815181106121b457fe5b6020908102919091018101516000818152606890925260409091205490915074010000000000000000000000000000000000000000900460ff16612224576040517f08c379a000000000000000000000000000000000000000000000000000000000815260040161044190614d6e565b83828151811061223057fe5b60200260200101516000146122c15761228284838151811061224e57fe5b602090810291909101810151600089815260668352604080822086835260020190935291909120549063ffffffff61302116565b600087815260666020908152604080832085845260020190915290205583516122c19082908690859081106122b357fe5b602002602001015133613067565b5060010161219d565b507f08fc62a716797765934c34e699a0dd8276e455b0dd6e2831d026bb7764a3945c84826020015185856040516123049493929190614c49565b60405180910390a150505050565b60335473ffffffffffffffffffffffffffffffffffffffff1690565b60335460009073ffffffffffffffffffffffffffffffffffffffff16612352613215565b73ffffffffffffffffffffffffffffffffffffffff1614905090565b60008281526066602090815260408083208484526002019091529020545b92915050565b60666020526000908152604090208054600182015460039092015473ffffffffffffffffffffffffffffffffffffffff918216929091169083565b6123d561337c565b506000838152606660209081526040918290208251606081018452815473ffffffffffffffffffffffffffffffffffffffff908116808352600184015490911693820193909352600390910154928101929092523314612461576040517f08c379a000000000000000000000000000000000000000000000000000000000815260040161044190614dfe565b602081015173ffffffffffffffffffffffffffffffffffffffff16156124b3576040517f08c379a000000000000000000000000000000000000000000000000000000000815260040161044190614f1e565b43816040015111156124f1576040517f08c379a000000000000000000000000000000000000000000000000000000000815260040161044190614f0e565b815183511461252c576040517f08c379a000000000000000000000000000000000000000000000000000000000815260040161044190614dbe565b60005b83518110156126b357600060666000878152602001908152602001600020600201600086848151811061255e57fe5b6020026020010151815260200190815260200160002054905083828151811061258357fe5b60200260200101518110156125c4576040517f08c379a000000000000000000000000000000000000000000000000000000000815260040161044190614eee565b8382815181106125d057fe5b60200260200101518114156126225760666000878152602001908152602001600020600201600086848151811061260357fe5b6020026020010151815260200190815260200160002060009055612687565b61264884838151811061263157fe5b60200260200101518261321990919063ffffffff16565b60666000888152602001908152602001600020600201600087858151811061266c57fe5b60200260200101518152602001908152602001600020819055505b6126aa85838151811061269657fe5b60200260200101518584815181106114af57fe5b5060010161252f565b507ff7b17d83b1c6d7f3c428e708ce63a8afc9ce528790694f379bd32da3b09d585084848460405161230493929190614c65565b60006126f38484612705565b90506126ff8183610d23565b50505050565b60008151835114612742576040517f08c379a000000000000000000000000000000000000000000000000000000000815260040161044190614d5e565b825161277a576040517f08c379a000000000000000000000000000000000000000000000000000000000815260040161044190614e2e565b606754604051600090612791908390602001614afa565b604080517fffffffffffffffffffffffffffffffffffffffffffffffffffffffffffffffe08184030181529190528051602090910120905060005b855181101561292a5760008682815181106127e357fe5b6020026020010151905060008683815181106127fb57fe5b6020908102919091018101516000848152606890925260409091205490915074010000000000000000000000000000000000000000900460ff1661286b576040517f08c379a000000000000000000000000000000000000000000000000000000000815260040161044190614e9e565b6000848152606660209081526040808320858452600201909152902054156128bf576040517f08c379a000000000000000000000000000000000000000000000000000000000815260040161044190614d2e565b806128f6576040517f08c379a000000000000000000000000000000000000000000000000000000000815260040161044190614ebe565b60008481526066602090815260408083208584526002019091529020819055612920828233613067565b50506001016127cc565b506000818152606660205260409081902080547fffffffffffffffffffffffff0000000000000000000000000000000000000000163390811790915590517f614d6f8319493a3bb5dd50287615457dd869414d3d6b96136f80ac1c1ef2428d9061299b90849086908a908a90614c99565b60405180910390a26001909101606755905092915050565b600054610100900460ff16806129cc57506129cc612ded565b806129da575060005460ff16155b612a10576040517f08c379a000000000000000000000000000000000000000000000000000000000815260040161044190614e7e565b600054610100900460ff16158015612a7657600080547fffffffffffffffffffffffffffffffffffffffffffffffffffffffffffffff007fffffffffffffffffffffffffffffffffffffffffffffffffffffffffffff00ff909116610100171660011790555b603380547fffffffffffffffffffffffff00000000000000000000000000000000000000001673ffffffffffffffffffffffffffffffffffffffff84811691909117918290556040519116906000907f8be0079c531659141344cd1fd0a4f28419497f9722a3daafe3b4186f6b6457e0908290a38015612b1957600080547fffffffffffffffffffffffffffffffffffffffffffffffffffffffffffff00ff1690555b5050565b612b2561232e565b612b5b576040517f08c379a000000000000000000000000000000000000000000000000000000000815260040161044190614e6e565b60008281526068602052604090205474010000000000000000000000000000000000000000900460ff1615612bbc576040517f08c379a000000000000000000000000000000000000000000000000000000000815260040161044190614e8e565b73ffffffffffffffffffffffffffffffffffffffff8116612c09576040517f08c379a000000000000000000000000000000000000000000000000000000000815260040161044190614f2e565b60408051808201825273ffffffffffffffffffffffffffffffffffffffff80841682526001602080840191825260008781526068909152849020925183549151151574010000000000000000000000000000000000000000027fffffffffffffffffffffff00ffffffffffffffffffffffffffffffffffffffff919093167fffffffffffffffffffffffff00000000000000000000000000000000000000009092169190911716179055517f662cc3305b9b4ea3a5fd06717cdaece79b6ac0a7734fd44eabe0f37951dc587c90612ce39084908490614bf0565b60405180910390a15050565b606d602052600090815260409020805460019091015482565b612d1061232e565b612d46576040517f08c379a000000000000000000000000000000000000000000000000000000000815260040161044190614e6e565b612d4f8161325b565b50565b612d5a61232e565b612d90576040517f08c379a000000000000000000000000000000000000000000000000000000000815260040161044190614e6e565b6000828152606e6020526040908190205490517f5793ae75ad4ae6b7dc6492360b49ac802ad3f243d386419158aa87761383df5a91612dd3918591908590614cb4565b60405180910390a16000918252606e602052604090912055565b303b1590565b81612dfd5761301c565b60008381526068602052604090205460695473ffffffffffffffffffffffffffffffffffffffff9182169116811415612ebf576069546040517fe1032b8300000000000000000000000000000000000000000000000000000000815273ffffffffffffffffffffffffffffffffffffffff9091169063e1032b8390612e889085908790600401614bb9565b600060405180830381600087803b158015612ea257600080fd5b505af1158015612eb6573d6000803e3d6000fd5b50505050612f6d565b606a5473ffffffffffffffffffffffffffffffffffffffff82811691161415612f6d57606a546040517fe1032b8300000000000000000000000000000000000000000000000000000000815273ffffffffffffffffffffffffffffffffffffffff9091169063e1032b8390612f3a9085908790600401614bb9565b600060405180830381600087803b158015612f5457600080fd5b505af1158015612f68573d6000803e3d6000fd5b505050505b6040517fa9059cbb00000000000000000000000000000000000000000000000000000000815273ffffffffffffffffffffffffffffffffffffffff82169063a9059cbb90612fc19085908790600401614b9e565b602060405180830381600087803b158015612fdb57600080fd5b505af1158015612fef573d6000803e3d6000fd5b505050506040513d601f19601f82011682018060405250613013919081019061378d565b6126ff57600080fd5b505050565b600082820183811015613060576040517f08c379a000000000000000000000000000000000000000000000000000000000815260040161044190614d7e565b9392505050565b816130715761301c565b600083815260686020526040908190205490517f23b872dd00000000000000000000000000000000000000000000000000000000815273ffffffffffffffffffffffffffffffffffffffff9091169081906323b872dd906130da90859030908890600401614b76565b602060405180830381600087803b1580156130f457600080fd5b505af1158015613108573d6000803e3d6000fd5b505050506040513d601f19601f8201168201806040525061312c919081019061378d565b613162576040517f08c379a000000000000000000000000000000000000000000000000000000000815260040161044190614e5e565b60695473ffffffffffffffffffffffffffffffffffffffff828116911614156126ff576069546040517f8b41166c00000000000000000000000000000000000000000000000000000000815273ffffffffffffffffffffffffffffffffffffffff90911690638b41166c906131dd9085908790600401614bb9565b600060405180830381600087803b1580156131f757600080fd5b505af115801561320b573d6000803e3d6000fd5b5050505050505050565b3390565b600061306083836040518060400160405280601e81526020017f536166654d6174683a207375627472616374696f6e206f766572666c6f770000815250613336565b73ffffffffffffffffffffffffffffffffffffffff81166132a8576040517f08c379a000000000000000000000000000000000000000000000000000000000815260040161044190614d4e565b60335460405173ffffffffffffffffffffffffffffffffffffffff8084169216907f8be0079c531659141344cd1fd0a4f28419497f9722a3daafe3b4186f6b6457e090600090a3603380547fffffffffffffffffffffffff00000000000000000000000000000000000000001673ffffffffffffffffffffffffffffffffffffffff92909216919091179055565b60008184841115613374576040517f08c379a00000000000000000000000000000000000000000000000000000000081526004016104419190614cdd565b505050900390565b604080516060810182526000808252602082018190529181019190915290565b803561238c81615066565b600082601f8301126133b857600080fd5b81356133cb6133c682614f73565b614f4c565b915081818352602084019350602081019050838560208402820111156133f057600080fd5b60005b8381101561341c5781613406888261339c565b84525060209283019291909101906001016133f3565b5050505092915050565b600082601f83011261343757600080fd5b81356134456133c682614f73565b9150818183526020840193506020810190508385602084028201111561346a57600080fd5b60005b8381101561341c57816134808882613581565b845250602092830192919091019060010161346d565b600082601f8301126134a757600080fd5b81516134b56133c682614f73565b915081818352602084019350602081019050838560208402820111156134da57600080fd5b60005b8381101561341c57816134f0888261358c565b84525060209283019291909101906001016134dd565b600082601f83011261351757600080fd5b81356135256133c682614f73565b9150818183526020840193506020810190508385602084028201111561354a57600080fd5b60005b8381101561341c57816135608882613581565b845250602092830192919091019060010161354d565b805161238c8161507a565b803561238c81615083565b805161238c81615083565b6000602082840312156135a957600080fd5b60006135b5848461339c565b949350505050565b6000602082840312156135cf57600080fd5b815167ffffffffffffffff8111156135e657600080fd5b6135b584828501613496565b60008060008060008060c0878903121561360b57600080fd5b863567ffffffffffffffff81111561362257600080fd5b61362e89828a01613426565b965050602087013567ffffffffffffffff81111561364b57600080fd5b61365789828a016133a7565b955050604061366889828a0161339c565b945050606061367989828a0161339c565b935050608061368a89828a0161339c565b92505060a061369b89828a0161339c565b9150509295509295509295565b600080604083850312156136bb57600080fd5b823567ffffffffffffffff8111156136d257600080fd5b6136de85828601613426565b925050602083013567ffffffffffffffff8111156136fb57600080fd5b61370785828601613506565b9150509250929050565b60008060006060848603121561372657600080fd5b833567ffffffffffffffff81111561373d57600080fd5b61374986828701613426565b935050602084013567ffffffffffffffff81111561376657600080fd5b61377286828701613506565b92505060406137838682870161339c565b9150509250925092565b60006020828403121561379f57600080fd5b60006135b58484613576565b6000602082840312156137bd57600080fd5b60006135b58484613581565b600080604083850312156137dc57600080fd5b60006137e88585613581565b92505060206137078582860161339c565b60008060006060848603121561380e57600080fd5b600061381a8686613581565b935050602084013567ffffffffffffffff81111561383757600080fd5b61384386828701613426565b925050604084013567ffffffffffffffff81111561386057600080fd5b61378386828701613506565b6000806040838503121561387f57600080fd5b600061388b8585613581565b925050602061370785828601613581565b6000602082840312156138ae57600080fd5b60006135b5848461358c565b60006138c683836139a7565b505060200190565b6138d781614fe9565b82525050565b6138d76138e982614fac565b615027565b6138d781614fac565b600061390282614f9a565b61390c8185614f9e565b935061391783614f94565b8060005b8381101561394557815161392f88826138ba565b975061393a83614f94565b92505060010161391b565b509495945050505050565b600061395b82614f9a565b6139658185614f9e565b935061397083614f94565b8060005b8381101561394557815161398888826138ba565b975061399383614f94565b925050600101613974565b6138d781614fb7565b6138d781614fbc565b6138d76139bc82614fbc565b614fbc565b6138d781614ff0565b60006139d582614f9a565b6139df8185614f9e565b93506139ef818560208601614ffb565b6139f881615038565b9093019392505050565b6000613a0f604883614f9e565b7f5374616b654d616e616765723a64656c65676174655374617368202d204f6e6c81527f79207374616b65722063616e2064656c656761746520737461736820746f206160208201527f20636c7573746572000000000000000000000000000000000000000000000000604082015260600192915050565b6000613a94603283614f9e565b7f5374616b654d616e616765723a64697361626c65546f6b656e202d20546f6b6581527f6e20616c72656164792064697361626c65640000000000000000000000000000602082015260400192915050565b6000613af3606a83614f9e565b7f5374616b654d616e616765723a64656c65676174655374617368202d2073746181527f736820616c72656164792064656c65676174656420746f20616e6f746865722060208201527f636c75737465722e20506c6561736520756e64656c65676174652066726f6d2060408201527f64656c65676174696e6700000000000000000000000000000000000000000000606082015260800192915050565b6000613b9e605b83614f9e565b7f5374616b654d616e616765723a726571756573745374617368526564656c656781527f6174696f6e202d204f6e6c79207374616b65722063616e20726564656c65676160208201527f746520737461736820746f20616e6f7468657220636c75737465720000000000604082015260600192915050565b6000613c23604e83614f9e565b7f5374616b654d616e616765723a6372656174655374617368202d2043616e277481527f20616464207468652073616d6520746f6b656e207477696365207768696c652060208201527f6372656174696e67207374617368000000000000000000000000000000000000604082015260600192915050565b6000613ca8604a83614f9e565b7f5374616b654d616e616765723a75706461746552657761726444656c6567617481527f6f7273202d2052657761726444656c656761746f72732061646472657373206360208201527f616e6e6f74206265203000000000000000000000000000000000000000000000604082015260600192915050565b6000613d2d602683614f9e565b7f4f776e61626c653a206e6577206f776e657220697320746865207a65726f206181527f6464726573730000000000000000000000000000000000000000000000000000602082015260400192915050565b6000613d8c605983614f9e565b7f5374616b654d616e616765723a6372656174655374617368202d20656163682081527f746f6b656e49642073686f756c642068617665206120636f72726573706f6e6460208201527f696e6720616d6f756e7420616e64207669636520766572736100000000000000604082015260600192915050565b6000613e11602983614f9e565b7f5374616b654d616e616765723a616464546f5374617368202d20496e76616c6981527f6420746f6b656e49640000000000000000000000000000000000000000000000602082015260400192915050565b6000613e70601b83614f9e565b7f536166654d6174683a206164646974696f6e206f766572666c6f770000000000815260200192915050565b6000613ea9603983614f9e565b7f5374616b654d616e616765723a64656c65676174655374617368202d2073746181527f7368206973206e6f742079657420756e64656c65676174656400000000000000602082015260400192915050565b6000613f08604083614f9e565b7f5374616b654d616e616765723a616464546f5374617368202d2043616e27742081527f61646420746f20737461736820647572696e6720756e64656c65676174696f6e602082015260400192915050565b6000613f67604583614f9e565b7f5374616b654d616e616765723a616464546f5374617368202d204f6e6c79207381527f74616b65722063616e2064656c656761746520737461736820746f206120636c60208201527f7573746572000000000000000000000000000000000000000000000000000000604082015260600192915050565b6000613fec605b83614f9e565b7f5374616b654d616e616765723a77697468647261775374617368202d2045616381527f6820746f6b656e49642073686f756c642068617665206120636f72726573706f60208201527f6e64696e6720616d6f756e7420616e6420766963652076657273610000000000604082015260600192915050565b6000614071605883614f9e565b7f5374616b654d616e616765723a616464546f5374617368202d2045616368207481527f6f6b656e49642073686f756c642068617665206120636f72726573706f6e646960208201527f6e6720616d6f756e7420616e6420766963652076657273610000000000000000604082015260600192915050565b60006140f6605e83614f9e565b7f5374616b654d616e616765723a696e697469616c697a65202d2065616368207481527f6f6b656e49642073686f756c642068617665206120636f72726573706f6e646960208201527f6e6720746f6b656e4164647265737320616e6420766963652076657273610000604082015260600192915050565b600061417b606f83614f9e565b7f5374616b656d616e616765723a726571756573745374617368526564656c656781527f6174696f6e202d20506c6561736520636c6f736520746865206578697374696e60208201527f6720726564656c65676174696f6e2072657175657374206265666f726520706c60408201527f6163696e672061206e6577206f6e650000000000000000000000000000000000606082015260800192915050565b6000614226603b83614f9e565b7f5374616b654d616e616765723a77697468647261775374617368202d204f6e6c81527f79207374616b65722063616e2077697468647261772073746173680000000000602082015260400192915050565b6000614285604983614f9e565b7f5374616b654d616e616765723a757064617465436c757374657252656769737481527f7279202d20436c7573746572205265676973747279206164647265737320636160208201527f6e6e6f7420626520300000000000000000000000000000000000000000000000604082015260600192915050565b600061430a604683614f9e565b7f5374616b654d616e616765723a726564656c65676174655374617368202d205281527f6564656c65676174696f6e20706572696f64206973206e6f742079657420636f60208201527f6d706c6574650000000000000000000000000000000000000000000000000000604082015260600192915050565b600061438f603c83614f9e565b7f5374616b654d616e616765723a6372656174655374617368202d20737461736881527f206d75737420686176652061746c65617374206f6e6520746f6b656e00000000602082015260400192915050565b60006143ee603f83614f9e565b7f5374616b654d616e616765723a756e64656c65676174655374617368202d204f81527f6e6c79207374616b65722063616e20756e64656c656761746520737461736800602082015260400192915050565b600061444d604383614f9e565b7f5374616b654d616e616765723a64656c65676174655374617368202d2064656c81527f65676174656420636c75737465722061646472657373206973206e6f7420766160208201527f6c69640000000000000000000000000000000000000000000000000000000000604082015260600192915050565b60006144d2602383614f9e565b7f5374616b654d616e616765723a204552433230207472616e736665722066616981527f6c65640000000000000000000000000000000000000000000000000000000000602082015260400192915050565b6000614531602083614f9e565b7f4f776e61626c653a2063616c6c6572206973206e6f7420746865206f776e6572815260200192915050565b600061456a600583614fa7565b7f4d504f4e44000000000000000000000000000000000000000000000000000000815260050192915050565b60006145a3602e83614f9e565b7f436f6e747261637420696e7374616e63652068617320616c726561647920626581527f656e20696e697469616c697a6564000000000000000000000000000000000000602082015260400192915050565b6000614602603083614f9e565b7f5374616b654d616e616765723a656e61626c65546f6b656e202d20546f6b656e81527f20616c726561647920656e61626c656400000000000000000000000000000000602082015260400192915050565b6000614661602a83614f9e565b7f5374616b654d616e616765723a6372656174655374617368202d20496e76616c81527f696420746f6b656e496400000000000000000000000000000000000000000000602082015260400192915050565b60006146c0603a83614f9e565b7f5374616b654d616e616765723a726564656c65676174655374617368202d205381527f74617368206e6f7420616c72656164792064656c656761746564000000000000602082015260400192915050565b600061471f603983614f9e565b7f5374616b654d616e616765723a6372656174655374617368202d2043616e277481527f2061646420746f6b656e732077697468203020616d6f756e7400000000000000602082015260400192915050565b600061477e604483614f9e565b7f5374616b654d616e616765723a756e64656c65676174655374617368202d207381527f74617368206973206e6f742064656c65676174656420746f20616e7920636c7560208201527f7374657200000000000000000000000000000000000000000000000000000000604082015260600192915050565b6000614803604383614f9e565b7f5374616b654d616e616765723a726571756573745374617368526564656c656781527f6174696f6e202d205374617368206e6f7420616c72656164792064656c65676160208201527f7465640000000000000000000000000000000000000000000000000000000000604082015260600192915050565b6000614888601183614fa7565b7f524544454c45474154494f4e5f4c4f434b000000000000000000000000000000815260110192915050565b60006148c1603383614f9e565b7f5374616b654d616e616765723a77697468647261775374617368202d2062616c81527f616e6365206e6f742073756666696369656e7400000000000000000000000000602082015260400192915050565b6000614920604083614f9e565b7f5374616b654d616e616765723a726564656c65676174655374617368202d206381527f616e27742064656c656761746520746f20696e76616c696420636c7573746572602082015260400192915050565b600061497f603983614f9e565b7f5374616b654d616e616765723a77697468647261775374617368202d2073746181527f7368206973206e6f742079657420756e64656c65676174656400000000000000602082015260400192915050565b60006149de605483614f9e565b7f5374616b654d616e616765723a77697468647261775374617368202d2053746181527f73682069732064656c6567617465642e20506c6561736520756e64656c65676160208201527f7465206265666f7265207769746864726177616c000000000000000000000000604082015260600192915050565b6000614a63603383614f9e565b7f5374616b654d616e616765723a656e61626c65546f6b656e202d205a65726f2081527f61646472657373206e6f7420616c6c6f77656400000000000000000000000000602082015260400192915050565b6138d781614fd8565b6000614aca82856139b0565b602082019150614ada82846138dd565b5060140192915050565b600061238c8261455d565b600061238c8261487b565b6000614b0682846139b0565b50602001919050565b6020810161238c82846138ee565b60808101614b2b82876138ce565b614b3860208301866138ee565b8181036040830152614b4a81856138f7565b90508181036060830152614b5e8184613950565b9695505050505050565b60808101614b2b82876138ee565b60608101614b8482866138ee565b614b9160208301856138ee565b6135b560408301846139a7565b60408101614bac82856138ee565b61306060208301846139a7565b60408101614bc782856138ee565b6130606020830184614ab5565b6020810161238c828461399e565b6020810161238c82846139a7565b60408101614bfe82856139a7565b61306060208301846138ee565b60808101614c1982876139a7565b614c2660208301866138ee565b614c3360408301856138ee565b614c4060608301846139a7565b95945050505050565b60808101614b2b82876139a7565b60608101614b8482866139a7565b60608101614c7382866139a7565b8181036020830152614c8581856138f7565b90508181036040830152614c408184613950565b60808101614ca782876139a7565b614b3860208301866139a7565b60608101614cc282866139a7565b614b9160208301856139a7565b6020810161238c82846139c1565b6020808252810161306081846139ca565b6020808252810161238c81613a02565b6020808252810161238c81613a87565b6020808252810161238c81613ae6565b6020808252810161238c81613b91565b6020808252810161238c81613c16565b6020808252810161238c81613c9b565b6020808252810161238c81613d20565b6020808252810161238c81613d7f565b6020808252810161238c81613e04565b6020808252810161238c81613e63565b6020808252810161238c81613e9c565b6020808252810161238c81613efb565b6020808252810161238c81613f5a565b6020808252810161238c81613fdf565b6020808252810161238c81614064565b6020808252810161238c816140e9565b6020808252810161238c8161416e565b6020808252810161238c81614219565b6020808252810161238c81614278565b6020808252810161238c816142fd565b6020808252810161238c81614382565b6020808252810161238c816143e1565b6020808252810161238c81614440565b6020808252810161238c816144c5565b6020808252810161238c81614524565b6020808252810161238c81614596565b6020808252810161238c816145f5565b6020808252810161238c81614654565b6020808252810161238c816146b3565b6020808252810161238c81614712565b6020808252810161238c81614771565b6020808252810161238c816147f6565b6020808252810161238c816148b4565b6020808252810161238c81614913565b6020808252810161238c81614972565b6020808252810161238c816149d1565b6020808252810161238c81614a56565b60408101614bac82856139a7565b60405181810167ffffffffffffffff81118282101715614f6b57600080fd5b604052919050565b600067ffffffffffffffff821115614f8a57600080fd5b5060209081020190565b60200190565b5190565b90815260200190565b919050565b600061238c82614fbf565b151590565b90565b73ffffffffffffffffffffffffffffffffffffffff1690565b6bffffffffffffffffffffffff1690565b600061238c825b600061238c82614fac565b60005b83811015615016578181015183820152602001614ffe565b838111156126ff5750506000910152565b600061238c82600061238c82615060565b601f017fffffffffffffffffffffffffffffffffffffffffffffffffffffffffffffffe01690565b60601b90565b61506f81614fac565b8114612d4f57600080fd5b61506f81614fb7565b61506f81614fbc56fea365627a7a72315820685fcc63fbed7d0f98805ae6b0ab573747cc8493e389a77b28bfae91c95cc3456c6578706572696d656e74616cf564736f6c63430005110040"
  }
}