{
  "opcodeHash": "0x9fd8de8ab9eaf6e599b70d63f6131ac6a4777734f017b65f5259e594e7a61bae",
  "metalessHash": "0xa50ce70e2ff2344c65f5b8db76727d95e5ae1e09636d307b7de7a127730693f7",
  "runtimeHash": "0x0c9acc474fbcbf7f5cd74b8aebadd539c08cb250998cc9842347b8f889f49bbb",
  "encodedMetadata": [
    {
      "ipfs": "/ipfs/QmNmYKMad1zBbJEVmNtSdTNR6VkyitKn2Hh2BZ6xiiA4xM",
      "solc": "0.6.12"
    }
  ],
  "abi": [
    {
      "inputs": [
        {
          "internalType": "address",
          "name": "_cash",
          "type": "address"
        },
        {
          "internalType": "address",
          "name": "_bond",
          "type": "address"
        },
        {
          "internalType": "address",
          "name": "_share",
          "type": "address"
        },
        {
          "internalType": "address",
          "name": "_oracle",
          "type": "address"
        },
        {
          "internalType": "address",
          "name": "_shareBoardroom",
          "type": "address"
        },
        {
          "internalType": "address",
          "name": "_lpBoardroom",
          "type": "address"
        },
        {
          "internalType": "address",
          "name": "_bondRewardPool",
          "type": "address"
        },
        {
          "internalType": "address",
          "name": "_fund",
          "type": "address"
        },
        {
          "internalType": "uint256",
          "name": "_startTime",
          "type": "uint256"
        }
      ],
      "stateMutability": "nonpayable",
      "type": "constructor"
    },
    {
      "anonymous": false,
      "inputs": [
        {
          "indexed": false,
          "internalType": "uint256",
          "name": "timestamp",
          "type": "uint256"
        },
        {
          "indexed": false,
          "internalType": "uint256",
          "name": "seigniorage",
          "type": "uint256"
        }
      ],
      "name": "BoardroomFunded",
      "type": "event"
    },
    {
      "anonymous": false,
      "inputs": [
        {
          "indexed": false,
          "internalType": "uint256",
          "name": "timestamp",
          "type": "uint256"
        },
        {
          "indexed": false,
          "internalType": "uint256",
          "name": "seigniorage",
          "type": "uint256"
        }
      ],
      "name": "BondReward",
      "type": "event"
    },
    {
      "anonymous": false,
      "inputs": [
        {
          "indexed": true,
          "internalType": "address",
          "name": "from",
          "type": "address"
        },
        {
          "indexed": false,
          "internalType": "uint256",
          "name": "amount",
          "type": "uint256"
        }
      ],
      "name": "BoughtBonds",
      "type": "event"
    },
    {
      "anonymous": false,
      "inputs": [
        {
          "indexed": true,
          "internalType": "address",
          "name": "operator",
          "type": "address"
        },
        {
          "indexed": false,
          "internalType": "address",
          "name": "newFund",
          "type": "address"
        }
      ],
      "name": "ContributionPoolChanged",
      "type": "event"
    },
    {
      "anonymous": false,
      "inputs": [
        {
          "indexed": false,
          "internalType": "uint256",
          "name": "timestamp",
          "type": "uint256"
        },
        {
          "indexed": false,
          "internalType": "uint256",
          "name": "seigniorage",
          "type": "uint256"
        }
      ],
      "name": "ContributionPoolFunded",
      "type": "event"
    },
    {
      "anonymous": false,
      "inputs": [
        {
          "indexed": true,
          "internalType": "address",
          "name": "operator",
          "type": "address"
        },
        {
          "indexed": false,
          "internalType": "uint256",
          "name": "newRate",
          "type": "uint256"
        }
      ],
      "name": "ContributionPoolRateChanged",
      "type": "event"
    },
    {
      "anonymous": false,
      "inputs": [
        {
          "indexed": true,
          "internalType": "address",
          "name": "operator",
          "type": "address"
        },
        {
          "indexed": false,
          "internalType": "uint256",
          "name": "newRate",
          "type": "uint256"
        }
      ],
      "name": "DebtAddRateChanged",
      "type": "event"
    },
    {
      "anonymous": false,
      "inputs": [
        {
          "indexed": true,
          "internalType": "address",
          "name": "executor",
          "type": "address"
        },
        {
          "indexed": false,
          "internalType": "uint256",
          "name": "at",
          "type": "uint256"
        }
      ],
      "name": "Initialized",
      "type": "event"
    },
    {
      "anonymous": false,
      "inputs": [
        {
          "indexed": true,
          "internalType": "address",
          "name": "operator",
          "type": "address"
        },
        {
          "indexed": false,
          "internalType": "uint256",
          "name": "newRate",
          "type": "uint256"
        }
      ],
      "name": "MaxDebtRateChanged",
      "type": "event"
    },
    {
      "anonymous": false,
      "inputs": [
        {
          "indexed": true,
          "internalType": "address",
          "name": "operator",
          "type": "address"
        },
        {
          "indexed": false,
          "internalType": "uint256",
          "name": "newRate",
          "type": "uint256"
        }
      ],
      "name": "MaxInflationRateChanged",
      "type": "event"
    },
    {
      "anonymous": false,
      "inputs": [
        {
          "indexed": true,
          "internalType": "address",
          "name": "target",
          "type": "address"
        }
      ],
      "name": "Migration",
      "type": "event"
    },
    {
      "anonymous": false,
      "inputs": [
        {
          "indexed": true,
          "internalType": "address",
          "name": "previousOperator",
          "type": "address"
        },
        {
          "indexed": true,
          "internalType": "address",
          "name": "newOperator",
          "type": "address"
        }
      ],
      "name": "OperatorTransferred",
      "type": "event"
    },
    {
      "anonymous": false,
      "inputs": [
        {
          "indexed": true,
          "internalType": "address",
          "name": "previousOwner",
          "type": "address"
        },
        {
          "indexed": true,
          "internalType": "address",
          "name": "newOwner",
          "type": "address"
        }
      ],
      "name": "OwnershipTransferred",
      "type": "event"
    },
    {
      "anonymous": false,
      "inputs": [
        {
          "indexed": true,
          "internalType": "address",
          "name": "from",
          "type": "address"
        },
        {
          "indexed": false,
          "internalType": "uint256",
          "name": "amount",
          "type": "uint256"
        }
      ],
      "name": "RedeemedBonds",
      "type": "event"
    },
    {
      "anonymous": false,
      "inputs": [
        {
          "indexed": false,
          "internalType": "uint256",
          "name": "timestamp",
          "type": "uint256"
        },
        {
          "indexed": false,
          "internalType": "uint256",
          "name": "seigniorage",
          "type": "uint256"
        }
      ],
      "name": "TreasuryFunded",
      "type": "event"
    },
    {
      "inputs": [],
      "name": "allocateSeigniorage",
      "outputs": [],
      "stateMutability": "nonpayable",
      "type": "function"
    },
    {
      "inputs": [],
      "name": "bond",
      "outputs": [
        {
          "internalType": "address",
          "name": "",
          "type": "address"
        }
      ],
      "stateMutability": "view",
      "type": "function"
    },
    {
      "inputs": [],
      "name": "bondPriceOnONC",
      "outputs": [
        {
          "internalType": "uint256",
          "name": "",
          "type": "uint256"
        }
      ],
      "stateMutability": "view",
      "type": "function"
    },
    {
      "inputs": [],
      "name": "bondPriceOnONCDelta",
      "outputs": [
        {
          "internalType": "uint256",
          "name": "",
          "type": "uint256"
        }
      ],
      "stateMutability": "view",
      "type": "function"
    },
    {
      "inputs": [],
      "name": "bondRewardPool",
      "outputs": [
        {
          "internalType": "address",
          "name": "",
          "type": "address"
        }
      ],
      "stateMutability": "view",
      "type": "function"
    },
    {
      "inputs": [
        {
          "internalType": "uint256",
          "name": "amount",
          "type": "uint256"
        }
      ],
      "name": "buyBonds",
      "outputs": [],
      "stateMutability": "nonpayable",
      "type": "function"
    },
    {
      "inputs": [],
      "name": "cash",
      "outputs": [
        {
          "internalType": "address",
          "name": "",
          "type": "address"
        }
      ],
      "stateMutability": "view",
      "type": "function"
    },
    {
      "inputs": [],
      "name": "cashPriceBondReward",
      "outputs": [
        {
          "internalType": "uint256",
          "name": "",
          "type": "uint256"
        }
      ],
      "stateMutability": "view",
      "type": "function"
    },
    {
      "inputs": [],
      "name": "cashPriceCeiling",
      "outputs": [
        {
          "internalType": "uint256",
          "name": "",
          "type": "uint256"
        }
      ],
      "stateMutability": "view",
      "type": "function"
    },
    {
      "inputs": [],
      "name": "cashPriceFloor",
      "outputs": [
        {
          "internalType": "uint256",
          "name": "",
          "type": "uint256"
        }
      ],
      "stateMutability": "view",
      "type": "function"
    },
    {
      "inputs": [],
      "name": "cashPriceOne",
      "outputs": [
        {
          "internalType": "uint256",
          "name": "",
          "type": "uint256"
        }
      ],
      "stateMutability": "view",
      "type": "function"
    },
    {
      "inputs": [],
      "name": "debtAddRate",
      "outputs": [
        {
          "internalType": "uint256",
          "name": "",
          "type": "uint256"
        }
      ],
      "stateMutability": "view",
      "type": "function"
    },
    {
      "inputs": [],
      "name": "fund",
      "outputs": [
        {
          "internalType": "address",
          "name": "",
          "type": "address"
        }
      ],
      "stateMutability": "view",
      "type": "function"
    },
    {
      "inputs": [],
      "name": "fundAllocationRate",
      "outputs": [
        {
          "internalType": "uint256",
          "name": "",
          "type": "uint256"
        }
      ],
      "stateMutability": "view",
      "type": "function"
    },
    {
      "inputs": [],
      "name": "getCurrentEpoch",
      "outputs": [
        {
          "internalType": "uint256",
          "name": "",
          "type": "uint256"
        }
      ],
      "stateMutability": "view",
      "type": "function"
    },
    {
      "inputs": [],
      "name": "getDebt",
      "outputs": [
        {
          "internalType": "uint256",
          "name": "",
          "type": "uint256"
        }
      ],
      "stateMutability": "view",
      "type": "function"
    },
    {
      "inputs": [],
      "name": "getOraclePrice",
      "outputs": [
        {
          "internalType": "uint256",
          "name": "",
          "type": "uint256"
        }
      ],
      "stateMutability": "view",
      "type": "function"
    },
    {
      "inputs": [],
      "name": "getPeriod",
      "outputs": [
        {
          "internalType": "uint256",
          "name": "",
          "type": "uint256"
        }
      ],
      "stateMutability": "view",
      "type": "function"
    },
    {
      "inputs": [],
      "name": "getReserve",
      "outputs": [
        {
          "internalType": "uint256",
          "name": "",
          "type": "uint256"
        }
      ],
      "stateMutability": "view",
      "type": "function"
    },
    {
      "inputs": [],
      "name": "getStartTime",
      "outputs": [
        {
          "internalType": "uint256",
          "name": "",
          "type": "uint256"
        }
      ],
      "stateMutability": "view",
      "type": "function"
    },
    {
      "inputs": [
        {
          "internalType": "uint256",
          "name": "_accumulatedSeigniorage",
          "type": "uint256"
        },
        {
          "internalType": "uint256",
          "name": "_accumulatedDebt",
          "type": "uint256"
        },
        {
          "internalType": "uint256",
          "name": "_bondPriceOnONC",
          "type": "uint256"
        }
      ],
      "name": "initialize",
      "outputs": [],
      "stateMutability": "nonpayable",
      "type": "function"
    },
    {
      "inputs": [],
      "name": "initialized",
      "outputs": [
        {
          "internalType": "bool",
          "name": "",
          "type": "bool"
        }
      ],
      "stateMutability": "view",
      "type": "function"
    },
    {
      "inputs": [],
      "name": "isOperator",
      "outputs": [
        {
          "internalType": "bool",
          "name": "",
          "type": "bool"
        }
      ],
      "stateMutability": "view",
      "type": "function"
    },
    {
      "inputs": [],
      "name": "legacyTreasury",
      "outputs": [
        {
          "internalType": "address",
          "name": "",
          "type": "address"
        }
      ],
      "stateMutability": "view",
      "type": "function"
    },
    {
      "inputs": [],
      "name": "lpBoardroom",
      "outputs": [
        {
          "internalType": "address",
          "name": "",
          "type": "address"
        }
      ],
      "stateMutability": "view",
      "type": "function"
    },
    {
      "inputs": [],
      "name": "maxDebtRate",
      "outputs": [
        {
          "internalType": "uint256",
          "name": "",
          "type": "uint256"
        }
      ],
      "stateMutability": "view",
      "type": "function"
    },
    {
      "inputs": [],
      "name": "maxInflationRate",
      "outputs": [
        {
          "internalType": "uint256",
          "name": "",
          "type": "uint256"
        }
      ],
      "stateMutability": "view",
      "type": "function"
    },
    {
      "inputs": [
        {
          "internalType": "address",
          "name": "target",
          "type": "address"
        }
      ],
      "name": "migrate",
      "outputs": [],
      "stateMutability": "nonpayable",
      "type": "function"
    },
    {
      "inputs": [],
      "name": "migrated",
      "outputs": [
        {
          "internalType": "bool",
          "name": "",
          "type": "bool"
        }
      ],
      "stateMutability": "view",
      "type": "function"
    },
    {
      "inputs": [],
      "name": "minBondPriceOnONC",
      "outputs": [
        {
          "internalType": "uint256",
          "name": "",
          "type": "uint256"
        }
      ],
      "stateMutability": "view",
      "type": "function"
    },
    {
      "inputs": [],
      "name": "nextEpochPoint",
      "outputs": [
        {
          "internalType": "uint256",
          "name": "",
          "type": "uint256"
        }
      ],
      "stateMutability": "view",
      "type": "function"
    },
    {
      "inputs": [],
      "name": "operator",
      "outputs": [
        {
          "internalType": "address",
          "name": "",
          "type": "address"
        }
      ],
      "stateMutability": "view",
      "type": "function"
    },
    {
      "inputs": [],
      "name": "oracle",
      "outputs": [
        {
          "internalType": "address",
          "name": "",
          "type": "address"
        }
      ],
      "stateMutability": "view",
      "type": "function"
    },
    {
      "inputs": [],
      "name": "owner",
      "outputs": [
        {
          "internalType": "address",
          "name": "",
          "type": "address"
        }
      ],
      "stateMutability": "view",
      "type": "function"
    },
    {
      "inputs": [
        {
          "internalType": "uint256",
          "name": "amount",
          "type": "uint256"
        }
      ],
      "name": "redeemBonds",
      "outputs": [],
      "stateMutability": "nonpayable",
      "type": "function"
    },
    {
      "inputs": [],
      "name": "renounceOwnership",
      "outputs": [],
      "stateMutability": "nonpayable",
      "type": "function"
    },
    {
      "inputs": [
        {
          "internalType": "uint256",
          "name": "rate",
          "type": "uint256"
        }
      ],
      "name": "setDebtAddRate",
      "outputs": [],
      "stateMutability": "nonpayable",
      "type": "function"
    },
    {
      "inputs": [
        {
          "internalType": "address",
          "name": "newFund",
          "type": "address"
        }
      ],
      "name": "setFund",
      "outputs": [],
      "stateMutability": "nonpayable",
      "type": "function"
    },
    {
      "inputs": [
        {
          "internalType": "uint256",
          "name": "rate",
          "type": "uint256"
        }
      ],
      "name": "setFundAllocationRate",
      "outputs": [],
      "stateMutability": "nonpayable",
      "type": "function"
    },
    {
      "inputs": [
        {
          "internalType": "address",
          "name": "_legacyTreasury",
          "type": "address"
        }
      ],
      "name": "setLegacyTreasury",
      "outputs": [],
      "stateMutability": "nonpayable",
      "type": "function"
    },
    {
      "inputs": [
        {
          "internalType": "uint256",
          "name": "rate",
          "type": "uint256"
        }
      ],
      "name": "setMaxDebtRate",
      "outputs": [],
      "stateMutability": "nonpayable",
      "type": "function"
    },
    {
      "inputs": [
        {
          "internalType": "uint256",
          "name": "rate",
          "type": "uint256"
        }
      ],
      "name": "setMaxInflationRate",
      "outputs": [],
      "stateMutability": "nonpayable",
      "type": "function"
    },
    {
      "inputs": [
        {
          "internalType": "uint256",
          "name": "_period",
          "type": "uint256"
        }
      ],
      "name": "setPeriod",
      "outputs": [],
      "stateMutability": "nonpayable",
      "type": "function"
    },
    {
      "inputs": [
        {
          "internalType": "uint256",
          "name": "_starttime",
          "type": "uint256"
        }
      ],
      "name": "setStarttime",
      "outputs": [],
      "stateMutability": "nonpayable",
      "type": "function"
    },
    {
      "inputs": [],
      "name": "share",
      "outputs": [
        {
          "internalType": "address",
          "name": "",
          "type": "address"
        }
      ],
      "stateMutability": "view",
      "type": "function"
    },
    {
      "inputs": [],
      "name": "shareBoardroom",
      "outputs": [
        {
          "internalType": "address",
          "name": "",
          "type": "address"
        }
      ],
      "stateMutability": "view",
      "type": "function"
    },
    {
      "inputs": [
        {
          "internalType": "address",
          "name": "newOperator_",
          "type": "address"
        }
      ],
      "name": "transferOperator",
      "outputs": [],
      "stateMutability": "nonpayable",
      "type": "function"
    },
    {
      "inputs": [
        {
          "internalType": "address",
          "name": "newOwner",
          "type": "address"
        }
      ],
      "name": "transferOwnership",
      "outputs": [],
      "stateMutability": "nonpayable",
      "type": "function"
    }
  ],
  "bytecode": {
    "object": "60806040526006805461ffff191690556000601281905560135560026017819055600a6018556019556014601a553480156200003a57600080fd5b50604051620040be380380620040be83398181016040526101208110156200006157600080fd5b508051602082015160408301516060840151608085015160a086015160c087015160e08801516101009098015196979596949593949293919290919061708081600080620000ae620002b6565b600180546001600160a01b0319166001600160a01b038316908117909155604051919250906000907f8be0079c531659141344cd1fd0a4f28419497f9722a3daafe3b4186f6b6457e0908290a35062000106620002b6565b600280546001600160a01b0319166001600160a01b0392831617908190556040519116906000907f74da04524d50c64947f5dd5381ef1a4dca5cba8ed1d816243f9e48aa0b5617ed908290a3600392909255600455600555600780546001600160a01b03199081166001600160a01b038c8116919091179092556008805482168b84161790556009805482168a8416179055600d80548216898416179055600a80548216888416179055600b80548216878416179055600c80549091168583161790556006805462010000600160b01b0319166201000092851692909202919091179055670de0b6b3a7640000600e8190556200022e906064906200021a90606690620002ba602090811b620031ff17901c565b6200032160201b620032611790919060201c565b600f819055506200025760646200021a600e546062620002ba60201b620031ff1790919060201c565b6010819055506200028060646200021a600e54605f620002ba60201b620031ff1790919060201c565b6011555050670de0b6b3a764000060145550506706f05b59d3b20000601555505066470de4df8200006016555062000412915050565b3390565b600082620002cb575060006200031b565b82820282848281620002d957fe5b0414620003185760405162461bcd60e51b81526004018080602001828103825260218152602001806200409d6021913960400191505060405180910390fd5b90505b92915050565b60006200031883836040518060400160405280601a81526020017f536166654d6174683a206469766973696f6e206279207a65726f0000000000008152506200036b60201b60201c565b60008183620003fb5760405162461bcd60e51b81526004018080602001828103825283818151815260200191508051906020019080838360005b83811015620003bf578181015183820152602001620003a5565b50505050905090810190601f168015620003ed5780820380516001836020036101000a031916815260200191505b509250505060405180910390fd5b5060008385816200040857fe5b0495945050505050565b613c7b80620004226000396000f3fe608060405234801561001057600080fd5b50600436106102a05760003560e01c80636b19ad1611610167578063a9cfc46e116100ce578063c5967c2611610087578063c5967c2614610547578063c828371e1461054f578063ce5494bb14610557578063d1bb06e41461057d578063e189ce1414610585578063f2fde38b146105a2576102a0565b8063a9cfc46e14610517578063aef0006b1461051f578063b60d428814610527578063b97dd9e21461052f578063c1aa390014610537578063c52e88ca1461053f576102a0565b80638da5cb5b116101205780638da5cb5b146104bd578063904b8b66146104c557806395b1828a146104e2578063961be391146104ff5780639a2f5f7714610507578063a8d5fd651461050f576102a0565b80636b19ad161461046c578063715018a614610474578063796da7af1461047c5780637dc0d1d01461048457806380d859111461048c5780638502935a146104b5576102a0565b80631cfddd181161020b578063570ca735116101c4578063570ca7351461042757806357fee4df1461042f57806359bf5d39146104375780635b7561791461043f57806364c9ec6f146104475780636913c33e1461044f576102a0565b80631cfddd18146103d95780631ed24195146103e157806323ced135146103e957806329605e77146103f15780632c678c64146104175780634456eda21461041f576102a0565b8063100ac47c1161025d578063100ac47c1461036b57806310c4df741461037357806311dd8f1e1461039057806314a6bf0f146103ad578063158ef93e146103b557806315bb8fae146103d1576102a0565b8063040d3494146102a55780630457ab8c146102cd5780630922482c146102ea5780630e21750f1461030e5780630f3a9f65146103345780630f9f238714610351575b600080fd5b6102cb600480360360208110156102bb57600080fd5b50356001600160a01b03166105c8565b005b6102cb600480360360208110156102e357600080fd5b5035610633565b6102f261071a565b604080516001600160a01b039092168252519081900360200190f35b6102cb6004803603602081101561032457600080fd5b50356001600160a01b0316610729565b6102cb6004803603602081101561034a57600080fd5b50356107d3565b610359610821565b60408051918252519081900360200190f35b610359610827565b6102cb6004803603602081101561038957600080fd5b503561082d565b6102cb600480360360208110156103a657600080fd5b50356108b4565b61035961093b565b6103bd610941565b604080519115158252519081900360200190f35b61035961094f565b610359610955565b61035961095b565b610359610961565b6102cb6004803603602081101561040757600080fd5b50356001600160a01b0316610967565b6103bd6109cb565b6103bd6109d4565b6102f26109fa565b610359610a09565b610359610a0f565b6102cb610a15565b6102f2611685565b6102cb6004803603602081101561046557600080fd5b5035611694565b61035961171b565b6102cb611721565b6103596117c3565b6102f26117e0565b6102cb600480360360608110156104a257600080fd5b50803590602081013590604001356117ef565b6103596118fc565b6102f2611902565b6102cb600480360360208110156104db57600080fd5b5035611911565b6102cb600480360360208110156104f857600080fd5b5035611fd4565b6102f261205b565b6102f261206a565b6102f2612079565b610359612088565b61035961208e565b6102f2612094565b6103596120a9565b6103596120af565b6102f26120b5565b6103596120c4565b6103596120e9565b6102cb6004803603602081101561056d57600080fd5b50356001600160a01b03166120ef565b6102f2612ad7565b6102cb6004803603602081101561059b57600080fd5b5035612ae6565b6102cb600480360360208110156105b857600080fd5b50356001600160a01b0316613106565b6002546001600160a01b031633146106115760405162461bcd60e51b8152600401808060200182810382526024815260200180613b9c6024913960400191505060405180910390fd5b601b80546001600160a01b0319166001600160a01b0392909216919091179055565b61063b6132a3565b6001546001600160a01b0390811691161461068b576040805162461bcd60e51b81526020600482018190526024820152600080516020613b4c833981519152604482015290519081900360640190fd5b42600454116106d1576040805162461bcd60e51b815260206004820152600d60248201526c185b1c9958591e481cdd185c9d609a1b604482015290519081900360640190fd5b428111610715576040805162461bcd60e51b815260206004820152600d60248201526c696e76616c696420706172616d60981b604482015290519081900360640190fd5b600455565b600c546001600160a01b031681565b6002546001600160a01b031633146107725760405162461bcd60e51b8152600401808060200182810382526024815260200180613b9c6024913960400191505060405180910390fd5b600680546001600160a01b03831662010000810262010000600160b01b031990921691909117909155604080519182525133917f970b0c70d6e9879d19345f9dbfd8bacae71546478b8bb2d8a56ad8927d3d436e919081900360200190a250565b6002546001600160a01b0316331461081c5760405162461bcd60e51b8152600401808060200182810382526024815260200180613b9c6024913960400191505060405180910390fd5b600355565b60105481565b60145481565b6002546001600160a01b031633146108765760405162461bcd60e51b8152600401808060200182810382526024815260200180613b9c6024913960400191505060405180910390fd5b601881905560408051828152905133917fe344886237060fdc30b875bcd8c08660b7b8b7bc04f9bfa6d85dcebcaaca5d0e919081900360200190a250565b6002546001600160a01b031633146108fd5760405162461bcd60e51b8152600401808060200182810382526024815260200180613b9c6024913960400191505060405180910390fd5b601a81905560408051828152905133917fc5a18e1e1ce8593a56e8f43ad6b1638097e7b62ad8cf3ed2660b7cc4e562d9b4919081900360200190a250565b60135490565b600654610100900460ff1681565b60115481565b60195481565b60035490565b600f5481565b61096f6132a3565b6001546001600160a01b039081169116146109bf576040805162461bcd60e51b81526020600482018190526024820152600080516020613b4c833981519152604482015290519081900360640190fd5b6109c8816132a7565b50565b60065460ff1681565b6002546000906001600160a01b03166109eb6132a3565b6001600160a01b031614905090565b6002546001600160a01b031690565b60155481565b60125490565b610a1d613344565b15610a595760405162461bcd60e51b8152600401808060200182810382526026815260200180613bea6026913960400191505060405180910390fd5b610a61613363565b15610a9d5760405162461bcd60e51b8152600401808060200182810382526026815260200180613bea6026913960400191505060405180910390fd5b60065460ff1615610aea576040805162461bcd60e51b8152602060048201526012602482015271151c99585cdd5c9e4e881b5a59dc985d195960721b604482015290519081900360640190fd5b600454421015610b3a576040805162461bcd60e51b8152602060048201526016602482015275115c1bd8da0e881b9bdd081cdd185c9d1959081e595d60521b604482015290519081900360640190fd5b610b426120c4565b421015610b8b576040805162461bcd60e51b8152602060048201526012602482015271115c1bd8da0e881b9bdd08185b1b1bddd95960721b604482015290519081900360640190fd5b6007546040805163570ca73560e01b8152905130926001600160a01b03169163570ca735916004808301926020929190829003018186803b158015610bcf57600080fd5b505afa158015610be3573d6000803e3d6000fd5b505050506040513d6020811015610bf957600080fd5b50516001600160a01b0316148015610c8757506008546040805163570ca73560e01b8152905130926001600160a01b03169163570ca735916004808301926020929190829003018186803b158015610c5057600080fd5b505afa158015610c64573d6000803e3d6000fd5b505050506040513d6020811015610c7a57600080fd5b50516001600160a01b0316145b8015610d0957506009546040805163570ca73560e01b8152905130926001600160a01b03169163570ca735916004808301926020929190829003018186803b158015610cd257600080fd5b505afa158015610ce6573d6000803e3d6000fd5b505050506040513d6020811015610cfc57600080fd5b50516001600160a01b0316145b8015610d8b5750600a546040805163570ca73560e01b8152905130926001600160a01b03169163570ca735916004808301926020929190829003018186803b158015610d5457600080fd5b505afa158015610d68573d6000803e3d6000fd5b505050506040513d6020811015610d7e57600080fd5b50516001600160a01b0316145b8015610e0d5750600b546040805163570ca73560e01b8152905130926001600160a01b03169163570ca735916004808301926020929190829003018186803b158015610dd657600080fd5b505afa158015610dea573d6000803e3d6000fd5b505050506040513d6020811015610e0057600080fd5b50516001600160a01b0316145b8015610e8f5750600c546040805163570ca73560e01b8152905130926001600160a01b03169163570ca735916004808301926020929190829003018186803b158015610e5857600080fd5b505afa158015610e6c573d6000803e3d6000fd5b505050506040513d6020811015610e8257600080fd5b50516001600160a01b0316145b610ece576040805162461bcd60e51b815260206004820152601e6024820152600080516020613b2c833981519152604482015290519081900360640190fd5b610ed6613382565b600d54600090610eee906001600160a01b03166133e2565b90506000610f78601254600760009054906101000a90046001600160a01b03166001600160a01b03166318160ddd6040518163ffffffff1660e01b815260040160206040518083038186803b158015610f4657600080fd5b505afa158015610f5a573d6000803e3d6000fd5b505050506040513d6020811015610f7057600080fd5b50519061349e565b9050601154821161113357600061100a6064600860009054906101000a90046001600160a01b03166001600160a01b03166318160ddd6040518163ffffffff1660e01b815260040160206040518083038186803b158015610fd857600080fd5b505afa158015610fec573d6000803e3d6000fd5b505050506040513d602081101561100257600080fd5b505190613261565b600854600c54604080516340c10f1960e01b81526001600160a01b0392831660048201526024810185905290519394509116916340c10f19916044808201926020929091908290030181600087803b15801561106557600080fd5b505af1158015611079573d6000803e3d6000fd5b505050506040513d602081101561108f57600080fd5b5050600c5460408051633c6b16ab60e01b81526004810184905290516001600160a01b0390921691633c6b16ab9160248082019260009290919082900301818387803b1580156110de57600080fd5b505af11580156110f2573d6000803e3d6000fd5b5050604080514281526020810185905281517f111ff7c68ae6f398665e79c3ddff95e1609bcf1913d22ee48d505ecf088562639450908190039091019150a1505b60105482116111c457600061115e6064611158601954856131ff90919063ffffffff16565b90613261565b9050600061117c6064611158601a54866131ff90919063ffffffff16565b60135490915061118c90836134e0565b601381905581101561119e5760138190555b6016546014546111ad9161349e565b6014819055601554106111c1576015546014555b50505b6010548211156111e0576000601355670de0b6b3a76400006014555b600f5482116111f0575050611639565b6000611207600e548461349e90919063ffffffff16565b90506000611221670de0b6b3a764000061115885856131ff565b9050600061123f6064611158601854876131ff90919063ffffffff16565b90508082111561124d578091505b600754604080516340c10f1960e01b81523060048201526024810185905290516001600160a01b03909216916340c10f19916044808201926020929091908290030181600087803b1580156112a157600080fd5b505af11580156112b5573d6000803e3d6000fd5b505050506040513d60208110156112cb57600080fd5b50506017546000906112e5906064906111589086906131ff565b905080156113f857600654600754611311916001600160a01b039182169162010000909104168361353a565b60065460075460408051635ff03ed360e11b81526001600160a01b0392831660048201526024810185905260606044820152602060648201527f54726561737572793a20536569676e696f7261676520416c6c6f636174696f6e60848201529051620100009093049091169163bfe07da69160a48082019260009290919082900301818387803b1580156113a457600080fd5b505af11580156113b8573d6000803e3d6000fd5b5050604080514281526020810185905281517f4caa64211297e9263667fef70732dc65ca7a8e8c60dc72539ed94518628212d09450908190039091019150a15b611402838261349e565b92506000611463611414856002613261565b601254600854604080516318160ddd60e01b8152905161145e93926001600160a01b0316916318160ddd916004808301926020929190829003018186803b158015610f4657600080fd5b613652565b905080156114b75760125461147890826134e0565b601255604080514281526020810183905281517ff705142bf09f04297640495ddf7c59b7fd6f51894c5aea9602d631cf05f0efc2929181900390910190a15b60006114c3858361349e565b905080156116305760006114dd600a6111588460066131ff565b905060006114eb838361349e565b600a5460075491925061150b916001600160a01b0390811691168461353a565b600a54604080516397ffe1d760e01b81526004810185905290516001600160a01b03909216916397ffe1d79160248082019260009290919082900301818387803b15801561155857600080fd5b505af115801561156c573d6000803e3d6000fd5b5050600b5460075461158d93506001600160a01b039081169250168361353a565b600b54604080516397ffe1d760e01b81526004810184905290516001600160a01b03909216916397ffe1d79160248082019260009290919082900301818387803b1580156115da57600080fd5b505af11580156115ee573d6000803e3d6000fd5b5050604080514281526020810187905281517f03ca7276ab7799bf73fb79d27ff0610cd7049574f2508ef8445162833d439aea9450908190039091019150a150505b50505050505050505b6005546116479060016134e0565b600555436000908152602081815260408083203284529091528082208054600160ff1991821681179092553384529190922080549091169091179055565b6008546001600160a01b031681565b6002546001600160a01b031633146116dd5760405162461bcd60e51b8152600401808060200182810382526024815260200180613b9c6024913960400191505060405180910390fd5b601981905560408051828152905133917ff36ed3a90cdf84bb7d1a733a0830c68b75d4690503031cce77d2c98081e15728919081900360200190a250565b601a5481565b6117296132a3565b6001546001600160a01b03908116911614611779576040805162461bcd60e51b81526020600482018190526024820152600080516020613b4c833981519152604482015290519081900360640190fd5b6001546040516000916001600160a01b0316907f8be0079c531659141344cd1fd0a4f28419497f9722a3daafe3b4186f6b6457e0908390a3600180546001600160a01b0319169055565b600d546000906117db906001600160a01b03166133e2565b905090565b600d546001600160a01b031681565b600654610100900460ff1615611844576040805162461bcd60e51b8152602060048201526015602482015274151c99585cdd5c9e4e881a5b9a5d1a585b1a5e9959605a1b604482015290519081900360640190fd5b601b546001600160a01b031633146118a3576040805162461bcd60e51b815260206004820152601c60248201527f54726561737572793a206f6e206c656761637920747265617375727900000000604482015290519081900360640190fd5b6012839055601382905560148190556006805461ff00191661010017905560408051438152905133917f25ff68dd81b34665b5ba7e553ee5511bf6812e12adb4a7e2c0d9e26b3099ce79919081900360200190a2505050565b60185481565b6001546001600160a01b031690565b611919613344565b156119555760405162461bcd60e51b8152600401808060200182810382526026815260200180613bea6026913960400191505060405180910390fd5b61195d613363565b156119995760405162461bcd60e51b8152600401808060200182810382526026815260200180613bea6026913960400191505060405180910390fd5b60065460ff16156119e6576040805162461bcd60e51b8152602060048201526012602482015271151c99585cdd5c9e4e881b5a59dc985d195960721b604482015290519081900360640190fd5b600454421015611a36576040805162461bcd60e51b8152602060048201526016602482015275115c1bd8da0e881b9bdd081cdd185c9d1959081e595d60521b604482015290519081900360640190fd5b6007546040805163570ca73560e01b8152905130926001600160a01b03169163570ca735916004808301926020929190829003018186803b158015611a7a57600080fd5b505afa158015611a8e573d6000803e3d6000fd5b505050506040513d6020811015611aa457600080fd5b50516001600160a01b0316148015611b3257506008546040805163570ca73560e01b8152905130926001600160a01b03169163570ca735916004808301926020929190829003018186803b158015611afb57600080fd5b505afa158015611b0f573d6000803e3d6000fd5b505050506040513d6020811015611b2557600080fd5b50516001600160a01b0316145b8015611bb457506009546040805163570ca73560e01b8152905130926001600160a01b03169163570ca735916004808301926020929190829003018186803b158015611b7d57600080fd5b505afa158015611b91573d6000803e3d6000fd5b505050506040513d6020811015611ba757600080fd5b50516001600160a01b0316145b8015611c365750600a546040805163570ca73560e01b8152905130926001600160a01b03169163570ca735916004808301926020929190829003018186803b158015611bff57600080fd5b505afa158015611c13573d6000803e3d6000fd5b505050506040513d6020811015611c2957600080fd5b50516001600160a01b0316145b8015611cb85750600b546040805163570ca73560e01b8152905130926001600160a01b03169163570ca735916004808301926020929190829003018186803b158015611c8157600080fd5b505afa158015611c95573d6000803e3d6000fd5b505050506040513d6020811015611cab57600080fd5b50516001600160a01b0316145b8015611d3a5750600c546040805163570ca73560e01b8152905130926001600160a01b03169163570ca735916004808301926020929190829003018186803b158015611d0357600080fd5b505afa158015611d17573d6000803e3d6000fd5b505050506040513d6020811015611d2d57600080fd5b50516001600160a01b0316145b611d79576040805162461bcd60e51b815260206004820152601e6024820152600080516020613b2c833981519152604482015290519081900360640190fd5b600d54600090611d91906001600160a01b03166133e2565b9050600e548110611dd35760405162461bcd60e51b8152600401808060200182810382526032815260200180613a466032913960400191505060405180910390fd5b6000611dfc8361145e670de0b6b3a76400006111586014546013546131ff90919063ffffffff16565b905060008111611e3d5760405162461bcd60e51b8152600401808060200182810382526030815260200180613b6c6030913960400191505060405180910390fd5b601454600090611e599061115884670de0b6b3a76400006131ff565b6007546040805163079cc67960e41b81523360048201526024810186905290519293506001600160a01b03909116916379cc67909160448082019260009290919082900301818387803b158015611eaf57600080fd5b505af1158015611ec3573d6000803e3d6000fd5b5050600854604080516340c10f1960e01b81523360048201526024810186905290516001600160a01b0390921693506340c10f1992506044808201926020929091908290030181600087803b158015611f1b57600080fd5b505af1158015611f2f573d6000803e3d6000fd5b505050506040513d6020811015611f4557600080fd5b5050601354611f54908261349e565b601355611f5f613382565b60408051838152905133917fdbf5270c3cf4729fec4fdac76fda864aa4f3d14d657ad21772ac28f627141ed9919081900360200190a25050436000908152602081815260408083203284529091528082208054600160ff19918216811790925533845291909220805490911690911790555050565b6002546001600160a01b0316331461201d5760405162461bcd60e51b8152600401808060200182810382526024815260200180613b9c6024913960400191505060405180910390fd5b601781905560408051828152905133917f25ba333c9a98f8f18bb40ff507a4a1fb423614f442759c754d038a9de3f81cf3919081900360200190a250565b6007546001600160a01b031681565b600b546001600160a01b031681565b6009546001600160a01b031681565b600e5481565b60165481565b6006546201000090046001600160a01b031681565b60055490565b60175481565b600a546001600160a01b031681565b60006117db6120e06003546005546131ff90919063ffffffff16565b600454906134e0565b60045490565b6002546001600160a01b031633146121385760405162461bcd60e51b8152600401808060200182810382526024815260200180613b9c6024913960400191505060405180910390fd5b6007546040805163570ca73560e01b8152905130926001600160a01b03169163570ca735916004808301926020929190829003018186803b15801561217c57600080fd5b505afa158015612190573d6000803e3d6000fd5b505050506040513d60208110156121a657600080fd5b50516001600160a01b031614801561223457506008546040805163570ca73560e01b8152905130926001600160a01b03169163570ca735916004808301926020929190829003018186803b1580156121fd57600080fd5b505afa158015612211573d6000803e3d6000fd5b505050506040513d602081101561222757600080fd5b50516001600160a01b0316145b80156122b657506009546040805163570ca73560e01b8152905130926001600160a01b03169163570ca735916004808301926020929190829003018186803b15801561227f57600080fd5b505afa158015612293573d6000803e3d6000fd5b505050506040513d60208110156122a957600080fd5b50516001600160a01b0316145b80156123385750600a546040805163570ca73560e01b8152905130926001600160a01b03169163570ca735916004808301926020929190829003018186803b15801561230157600080fd5b505afa158015612315573d6000803e3d6000fd5b505050506040513d602081101561232b57600080fd5b50516001600160a01b0316145b80156123ba5750600b546040805163570ca73560e01b8152905130926001600160a01b03169163570ca735916004808301926020929190829003018186803b15801561238357600080fd5b505afa158015612397573d6000803e3d6000fd5b505050506040513d60208110156123ad57600080fd5b50516001600160a01b0316145b801561243c5750600c546040805163570ca73560e01b8152905130926001600160a01b03169163570ca735916004808301926020929190829003018186803b15801561240557600080fd5b505afa158015612419573d6000803e3d6000fd5b505050506040513d602081101561242f57600080fd5b50516001600160a01b0316145b61247b576040805162461bcd60e51b815260206004820152601e6024820152600080516020613b2c833981519152604482015290519081900360640190fd5b60065460ff16156124c8576040805162461bcd60e51b8152602060048201526012602482015271151c99585cdd5c9e4e881b5a59dc985d195960721b604482015290519081900360640190fd5b600754604080516329605e7760e01b81526001600160a01b038481166004830152915191909216916329605e7791602480830192600092919082900301818387803b15801561251657600080fd5b505af115801561252a573d6000803e3d6000fd5b50506007546040805163f2fde38b60e01b81526001600160a01b038681166004830152915191909216935063f2fde38b9250602480830192600092919082900301818387803b15801561257c57600080fd5b505af1158015612590573d6000803e3d6000fd5b5050600754604080516370a0823160e01b815230600482015290516001600160a01b03909216935063a9059cbb9250849184916370a08231916024808301926020929190829003018186803b1580156125e857600080fd5b505afa1580156125fc573d6000803e3d6000fd5b505050506040513d602081101561261257600080fd5b5051604080516001600160e01b031960e086901b1681526001600160a01b03909316600484015260248301919091525160448083019260209291908290030181600087803b15801561266357600080fd5b505af1158015612677573d6000803e3d6000fd5b505050506040513d602081101561268d57600080fd5b5050600854604080516329605e7760e01b81526001600160a01b038481166004830152915191909216916329605e7791602480830192600092919082900301818387803b1580156126dd57600080fd5b505af11580156126f1573d6000803e3d6000fd5b50506008546040805163f2fde38b60e01b81526001600160a01b038681166004830152915191909216935063f2fde38b9250602480830192600092919082900301818387803b15801561274357600080fd5b505af1158015612757573d6000803e3d6000fd5b5050600854604080516370a0823160e01b815230600482015290516001600160a01b03909216935063a9059cbb9250849184916370a08231916024808301926020929190829003018186803b1580156127af57600080fd5b505afa1580156127c3573d6000803e3d6000fd5b505050506040513d60208110156127d957600080fd5b5051604080516001600160e01b031960e086901b1681526001600160a01b03909316600484015260248301919091525160448083019260209291908290030181600087803b15801561282a57600080fd5b505af115801561283e573d6000803e3d6000fd5b505050506040513d602081101561285457600080fd5b5050600954604080516329605e7760e01b81526001600160a01b038481166004830152915191909216916329605e7791602480830192600092919082900301818387803b1580156128a457600080fd5b505af11580156128b8573d6000803e3d6000fd5b50506009546040805163f2fde38b60e01b81526001600160a01b038681166004830152915191909216935063f2fde38b9250602480830192600092919082900301818387803b15801561290a57600080fd5b505af115801561291e573d6000803e3d6000fd5b5050600954604080516370a0823160e01b815230600482015290516001600160a01b03909216935063a9059cbb9250849184916370a08231916024808301926020929190829003018186803b15801561297657600080fd5b505afa15801561298a573d6000803e3d6000fd5b505050506040513d60208110156129a057600080fd5b5051604080516001600160e01b031960e086901b1681526001600160a01b03909316600484015260248301919091525160448083019260209291908290030181600087803b1580156129f157600080fd5b505af1158015612a05573d6000803e3d6000fd5b505050506040513d6020811015612a1b57600080fd5b5050601254601354601454604080516380d8591160e01b8152600481019490945260248401929092526044830152516001600160a01b038316916380d8591191606480830192600092919082900301818387803b158015612a7b57600080fd5b505af1158015612a8f573d6000803e3d6000fd5b50506006805460ff1916600117905550506040516001600160a01b038216907f0caca70b66aed56b0630989a049110023c5a3f37e0ea4b6ce96fc747663f3ebc90600090a250565b601b546001600160a01b031681565b612aee613344565b15612b2a5760405162461bcd60e51b8152600401808060200182810382526026815260200180613bea6026913960400191505060405180910390fd5b612b32613363565b15612b6e5760405162461bcd60e51b8152600401808060200182810382526026815260200180613bea6026913960400191505060405180910390fd5b60065460ff1615612bbb576040805162461bcd60e51b8152602060048201526012602482015271151c99585cdd5c9e4e881b5a59dc985d195960721b604482015290519081900360640190fd5b600454421015612c0b576040805162461bcd60e51b8152602060048201526016602482015275115c1bd8da0e881b9bdd081cdd185c9d1959081e595d60521b604482015290519081900360640190fd5b6007546040805163570ca73560e01b8152905130926001600160a01b03169163570ca735916004808301926020929190829003018186803b158015612c4f57600080fd5b505afa158015612c63573d6000803e3d6000fd5b505050506040513d6020811015612c7957600080fd5b50516001600160a01b0316148015612d0757506008546040805163570ca73560e01b8152905130926001600160a01b03169163570ca735916004808301926020929190829003018186803b158015612cd057600080fd5b505afa158015612ce4573d6000803e3d6000fd5b505050506040513d6020811015612cfa57600080fd5b50516001600160a01b0316145b8015612d8957506009546040805163570ca73560e01b8152905130926001600160a01b03169163570ca735916004808301926020929190829003018186803b158015612d5257600080fd5b505afa158015612d66573d6000803e3d6000fd5b505050506040513d6020811015612d7c57600080fd5b50516001600160a01b0316145b8015612e0b5750600a546040805163570ca73560e01b8152905130926001600160a01b03169163570ca735916004808301926020929190829003018186803b158015612dd457600080fd5b505afa158015612de8573d6000803e3d6000fd5b505050506040513d6020811015612dfe57600080fd5b50516001600160a01b0316145b8015612e8d5750600b546040805163570ca73560e01b8152905130926001600160a01b03169163570ca735916004808301926020929190829003018186803b158015612e5657600080fd5b505afa158015612e6a573d6000803e3d6000fd5b505050506040513d6020811015612e8057600080fd5b50516001600160a01b0316145b8015612f0f5750600c546040805163570ca73560e01b8152905130926001600160a01b03169163570ca735916004808301926020929190829003018186803b158015612ed857600080fd5b505afa158015612eec573d6000803e3d6000fd5b505050506040513d6020811015612f0257600080fd5b50516001600160a01b0316145b612f4e576040805162461bcd60e51b815260206004820152601e6024820152600080516020613b2c833981519152604482015290519081900360640190fd5b600d54600090612f66906001600160a01b03166133e2565b9050600e548111612fa85760405162461bcd60e51b8152600401808060200182810382526030815260200180613aa56030913960400191505060405180910390fd5b6000612fb660125484613652565b905060008111612ff75760405162461bcd60e51b815260040180806020018281038252602e815260200180613a18602e913960400191505060405180910390fd5b601254613004908261349e565b6012556008546040805163079cc67960e41b81523360048201526024810184905290516001600160a01b03909216916379cc67909160448082019260009290919082900301818387803b15801561305a57600080fd5b505af115801561306e573d6000803e3d6000fd5b505060075461308a92506001600160a01b031690503383613668565b613092613382565b60408051828152905133917f9c3478f12dce08d85673d802af16ed5b9ebab8420ffd7b145d65d3157084b2ce919081900360200190a25050436000908152602081815260408083203284529091528082208054600160ff199182168117909255338452919092208054909116909117905550565b61310e6132a3565b6001546001600160a01b0390811691161461315e576040805162461bcd60e51b81526020600482018190526024820152600080516020613b4c833981519152604482015290519081900360640190fd5b6001600160a01b0381166131a35760405162461bcd60e51b81526004018080602001828103825260268152602001806139f26026913960400191505060405180910390fd5b6001546040516001600160a01b038084169216907f8be0079c531659141344cd1fd0a4f28419497f9722a3daafe3b4186f6b6457e090600090a3600180546001600160a01b0319166001600160a01b0392909216919091179055565b60008261320e5750600061325b565b8282028284828161321b57fe5b04146132585760405162461bcd60e51b8152600401808060200182810382526021815260200180613ad56021913960400191505060405180910390fd5b90505b92915050565b600061325883836040518060400160405280601a81526020017f536166654d6174683a206469766973696f6e206279207a65726f0000000000008152506136ba565b3390565b6001600160a01b0381166132ec5760405162461bcd60e51b815260040180806020018281038252602d815260200180613a78602d913960400191505060405180910390fd5b6040516001600160a01b038216906000907f74da04524d50c64947f5dd5381ef1a4dca5cba8ed1d816243f9e48aa0b5617ed908290a3600280546001600160a01b0319166001600160a01b0392909216919091179055565b4360009081526020818152604080832032845290915290205460ff1690565b4360009081526020818152604080832033845290915290205460ff1690565b600d60009054906101000a90046001600160a01b03166001600160a01b031663a2e620456040518163ffffffff1660e01b8152600401600060405180830381600087803b1580156133d257600080fd5b505af19250505080156109c85750565b60075460408051633ddac95360e01b81526001600160a01b039283166004820152670de0b6b3a764000060248201529051600092841691633ddac953916044808301926020929190829003018186803b15801561343e57600080fd5b505afa92505050801561346357506040513d602081101561345e57600080fd5b505160015b61325b5760405162461bcd60e51b8152600401808060200182810382526036815260200180613af66036913960400191505060405180910390fd5b600061325883836040518060400160405280601e81526020017f536166654d6174683a207375627472616374696f6e206f766572666c6f77000081525061375c565b600082820183811015613258576040805162461bcd60e51b815260206004820152601b60248201527f536166654d6174683a206164646974696f6e206f766572666c6f770000000000604482015290519081900360640190fd5b8015806135c0575060408051636eb1769f60e11b81523060048201526001600160a01b03848116602483015291519185169163dd62ed3e91604480820192602092909190829003018186803b15801561359257600080fd5b505afa1580156135a6573d6000803e3d6000fd5b505050506040513d60208110156135bc57600080fd5b5051155b6135fb5760405162461bcd60e51b8152600401808060200182810382526036815260200180613c106036913960400191505060405180910390fd5b604080516001600160a01b038416602482015260448082018490528251808303909101815260649091019091526020810180516001600160e01b031663095ea7b360e01b17905261364d9084906137b6565b505050565b60008183106136615781613258565b5090919050565b604080516001600160a01b038416602482015260448082018490528251808303909101815260649091019091526020810180516001600160e01b031663a9059cbb60e01b17905261364d9084906137b6565b600081836137465760405162461bcd60e51b81526004018080602001828103825283818151815260200191508051906020019080838360005b8381101561370b5781810151838201526020016136f3565b50505050905090810190601f1680156137385780820380516001836020036101000a031916815260200191505b509250505060405180910390fd5b50600083858161375257fe5b0495945050505050565b600081848411156137ae5760405162461bcd60e51b815260206004820181815283516024840152835190928392604490910191908501908083836000831561370b5781810151838201526020016136f3565b505050900390565b606061380b826040518060400160405280602081526020017f5361666545524332303a206c6f772d6c6576656c2063616c6c206661696c6564815250856001600160a01b03166138679092919063ffffffff16565b80519091501561364d5780806020019051602081101561382a57600080fd5b505161364d5760405162461bcd60e51b815260040180806020018281038252602a815260200180613bc0602a913960400191505060405180910390fd5b6060613876848460008561387e565b949350505050565b6060613889856139eb565b6138da576040805162461bcd60e51b815260206004820152601d60248201527f416464726573733a2063616c6c20746f206e6f6e2d636f6e7472616374000000604482015290519081900360640190fd5b60006060866001600160a01b031685876040518082805190602001908083835b602083106139195780518252601f1990920191602091820191016138fa565b6001836020036101000a03801982511681845116808217855250505050505090500191505060006040518083038185875af1925050503d806000811461397b576040519150601f19603f3d011682016040523d82523d6000602084013e613980565b606091505b509150915081156139945791506138769050565b8051156139a45780518082602001fd5b60405162461bcd60e51b815260206004820181815286516024840152865187939192839260440191908501908083836000831561370b5781810151838201526020016136f3565b3b15159056fe4f776e61626c653a206e6577206f776e657220697320746865207a65726f206164647265737354726561737572793a2063616e6e6f742072656465656d20626f6e64732077697468207a65726f20616d6f756e7454726561737572793a20636173685072696365206e6f7420656c696769626c6520666f7220626f6e642070757263686173656f70657261746f723a207a65726f206164647265737320676976656e20666f72206e6577206f70657261746f7254726561737572793a20636173685072696365206e6f7420656c696769626c6520666f7220626f6e642072656465656d536166654d6174683a206d756c7469706c69636174696f6e206f766572666c6f7754726561737572793a206661696c656420746f20636f6e73756c7420636173682070726963652066726f6d20746865206f7261636c6554726561737572793a206e656564206d6f7265207065726d697373696f6e00004f776e61626c653a2063616c6c6572206973206e6f7420746865206f776e657254726561737572793a2063616e6e6f7420707572636861736520626f6e64732077697468207a65726f20616d6f756e746f70657261746f723a2063616c6c6572206973206e6f7420746865206f70657261746f725361666545524332303a204552433230206f7065726174696f6e20646964206e6f742073756363656564436f6e747261637447756172643a206f6e6520626c6f636b2c206f6e652066756e6374696f6e5361666545524332303a20617070726f76652066726f6d206e6f6e2d7a65726f20746f206e6f6e2d7a65726f20616c6c6f77616e6365a264697066735822122063918c172aa00297cacaa3b156d231c842abdb4992c192472852364405e8deea64736f6c634300060c0033536166654d6174683a206d756c7469706c69636174696f6e206f766572666c6f77"
  }
}