{"compiler":"v0.6.2+commit.bacdbe57","opcodeHash":"0x3b55016666b356d24e3537181d2c1eb33da893aac7f06dbe564dbb59a2ba9245","metalessHash":"0x8774bf62389fb8d484607f45e047bfdd5fc96a017d7713f57dca30a6ab800023","runtimeHash":"0x4a15248dffa86598651c7e215ade9804cb5fd35662076a1b91bad29809940f1a","encodedMetadata":[{"ipfs":"/ipfs/QmRjDNWWmgbBeD3RcNgLAj34684NT9cF2QD4ancX9WxeHE","solc":"0.6.2"}],"abi":[{"inputs":[{"internalType":"bool","name":"enabled","type":"bool"},{"internalType":"bool","name":"restricted","type":"bool"}],"stateMutability":"nonpayable","type":"constructor"},{"anonymous":false,"inputs":[{"indexed":true,"internalType":"address","name":"previousOwner","type":"address"},{"indexed":true,"internalType":"address","name":"newOwner","type":"address"}],"name":"OwnershipTransferred","type":"event"},{"inputs":[{"internalType":"address","name":"token","type":"address"}],"name":"burntTokenIds","outputs":[{"internalType":"uint256[]","name":"","type":"uint256[]"}],"stateMutability":"view","type":"function"},{"inputs":[],"name":"burntTokens","outputs":[{"internalType":"address[]","name":"","type":"address[]"}],"stateMutability":"view","type":"function"},{"inputs":[{"internalType":"address","name":"token","type":"address"},{"internalType":"uint256","name":"tokenId","type":"uint256"}],"name":"canBurn","outputs":[{"internalType":"bool","name":"","type":"bool"}],"stateMutability":"view","type":"function"},{"inputs":[{"internalType":"address","name":"token","type":"address"},{"internalType":"uint256[]","name":"tokenIds","type":"uint256[]"}],"name":"configureBurnRestricted","outputs":[],"stateMutability":"nonpayable","type":"function"},{"inputs":[{"internalType":"address","name":"","type":"address"},{"internalType":"address","name":"","type":"address"},{"internalType":"uint256","name":"tokenId","type":"uint256"},{"internalType":"bytes","name":"","type":"bytes"}],"name":"onERC721Received","outputs":[{"internalType":"bytes4","name":"","type":"bytes4"}],"stateMutability":"nonpayable","type":"function"},{"inputs":[],"name":"owner","outputs":[{"internalType":"address","name":"","type":"address"}],"stateMutability":"view","type":"function"},{"inputs":[],"name":"renounceOwnership","outputs":[],"stateMutability":"nonpayable","type":"function"},{"inputs":[{"internalType":"bool","name":"enabled","type":"bool"}],"name":"setBurnEnabled","outputs":[],"stateMutability":"nonpayable","type":"function"},{"inputs":[{"internalType":"bool","name":"restricted","type":"bool"}],"name":"setBurnRestricted","outputs":[],"stateMutability":"nonpayable","type":"function"},{"inputs":[{"internalType":"bytes4","name":"interfaceId","type":"bytes4"}],"name":"supportsInterface","outputs":[{"internalType":"bool","name":"","type":"bool"}],"stateMutability":"view","type":"function"},{"inputs":[{"internalType":"address","name":"newOwner","type":"address"}],"name":"transferOwnership","outputs":[],"stateMutability":"nonpayable","type":"function"}],"bytecode":{"object":"60806040523480156200001157600080fd5b50604051620018df380380620018df833981810160405260408110156200003757600080fd5b8101908080519060200190929190805190602001909291905050506200006a6301ffc9a760e01b6200018960201b60201c565b60006200007c6200029260201b60201c565b905080600160006101000a81548173ffffffffffffffffffffffffffffffffffffffff021916908373ffffffffffffffffffffffffffffffffffffffff1602179055508073ffffffffffffffffffffffffffffffffffffffff16600073ffffffffffffffffffffffffffffffffffffffff167f8be0079c531659141344cd1fd0a4f28419497f9722a3daafe3b4186f6b6457e060405160405180910390a3506200013363f4f9572860e01b6200018960201b60201c565b81600460006101000a81548160ff02191690831515021790555080600460016101000a81548160ff021916908315150217905550801562000181576005600081548092919060010191905055505b50506200029a565b63ffffffff60e01b817bffffffffffffffffffffffffffffffffffffffffffffffffffffffff1916141562000226576040517f08c379a000000000000000000000000000000000000000000000000000000000815260040180806020018281038252601c8152602001807f4552433136353a20696e76616c696420696e746572666163652069640000000081525060200191505060405180910390fd5b6001600080837bffffffffffffffffffffffffffffffffffffffffffffffffffffffff19167bffffffffffffffffffffffffffffffffffffffffffffffffffffffff1916815260200190815260200160002060006101000a81548160ff02191690831515021790555050565b600033905090565b61163580620002aa6000396000f3fe608060405234801561001057600080fd5b50600436106100a95760003560e01c80637b2c835f116100715780637b2c835f1461030a5780638da5cb5b1461033a5780639c28a34814610384578063f2fde38b1461041d578063fa20e77d14610461578063ff074c26146104c0576100a9565b806301ffc9a7146100ae578063150b7a02146101135780634645b6dc1461026a578063509f6ab8146102d0578063715018a614610300575b600080fd5b6100f9600480360360208110156100c457600080fd5b8101908080357bffffffffffffffffffffffffffffffffffffffffffffffffffffffff19169060200190929190505050610598565b604051808215151515815260200191505060405180910390f35b6102166004803603608081101561012957600080fd5b81019080803573ffffffffffffffffffffffffffffffffffffffff169060200190929190803573ffffffffffffffffffffffffffffffffffffffff169060200190929190803590602001909291908035906020019064010000000081111561019057600080fd5b8201836020820111156101a257600080fd5b803590602001918460018302840111640100000000831117156101c457600080fd5b91908080601f016020809104026020016040519081016040528093929190818152602001838380828437600081840152601f19601f8201169050808301925050505050505091929192905050506105ff565b60405180827bffffffffffffffffffffffffffffffffffffffffffffffffffffffff19167bffffffffffffffffffffffffffffffffffffffffffffffffffffffff1916815260200191505060405180910390f35b6102b66004803603604081101561028057600080fd5b81019080803573ffffffffffffffffffffffffffffffffffffffff16906020019092919080359060200190929190505050610810565b604051808215151515815260200191505060405180910390f35b6102fe600480360360208110156102e657600080fd5b81019080803515159060200190929190505050610a92565b005b610308610c00565b005b6103386004803603602081101561032057600080fd5b81019080803515159060200190929190505050610d70565b005b610342610ec5565b604051808273ffffffffffffffffffffffffffffffffffffffff1673ffffffffffffffffffffffffffffffffffffffff16815260200191505060405180910390f35b6103c66004803603602081101561039a57600080fd5b81019080803573ffffffffffffffffffffffffffffffffffffffff169060200190929190505050610eef565b6040518080602001828103825283818151815260200191508051906020019060200280838360005b838110156104095780820151818401526020810190506103ee565b505050509050019250505060405180910390f35b61045f6004803603602081101561043357600080fd5b81019080803573ffffffffffffffffffffffffffffffffffffffff169060200190929190505050610f86565b005b61046961117b565b6040518080602001828103825283818151815260200191508051906020019060200280838360005b838110156104ac578082015181840152602081019050610491565b505050509050019250505060405180910390f35b610596600480360360408110156104d657600080fd5b81019080803573ffffffffffffffffffffffffffffffffffffffff1690602001909291908035906020019064010000000081111561051357600080fd5b82018360208201111561052557600080fd5b8035906020019184602083028401116401000000008311171561054757600080fd5b919080806020026020016040519081016040528093929190818152602001838360200280828437600081840152601f19601f820116905080830192505050505050509192919290505050611209565b005b6000806000837bffffffffffffffffffffffffffffffffffffffffffffffffffffffff19167bffffffffffffffffffffffffffffffffffffffffffffffffffffffff1916815260200190815260200160002060009054906101000a900460ff169050919050565b600061060b3384610810565b61061457600080fd5b3373ffffffffffffffffffffffffffffffffffffffff166323b872dd3061dead866040518463ffffffff1660e01b8152600401808473ffffffffffffffffffffffffffffffffffffffff1673ffffffffffffffffffffffffffffffffffffffff1681526020018373ffffffffffffffffffffffffffffffffffffffff1673ffffffffffffffffffffffffffffffffffffffff1681526020018281526020019350505050600060405180830381600087803b1580156106d157600080fd5b505af11580156106e5573d6000803e3d6000fd5b505050506000600260003373ffffffffffffffffffffffffffffffffffffffff1673ffffffffffffffffffffffffffffffffffffffff168152602001908152602001600020805490501415610798576003339080600181540180825580915050600190039060005260206000200160009091909190916101000a81548173ffffffffffffffffffffffffffffffffffffffff021916908373ffffffffffffffffffffffffffffffffffffffff1602179055505b600260003373ffffffffffffffffffffffffffffffffffffffff1673ffffffffffffffffffffffffffffffffffffffff16815260200190815260200160002083908060018154018082558091505060019003906000526020600020016000909190919091505563150b7a0260e01b9050949350505050565b6000600460009054906101000a900460ff16610877576040517f08c379a00000000000000000000000000000000000000000000000000000000081526004018080602001828103825260308152602001806115ad6030913960400191505060405180910390fd5b600460019054906101000a900460ff1615610a8857600554600660008573ffffffffffffffffffffffffffffffffffffffff1673ffffffffffffffffffffffffffffffffffffffff1681526020019081526020016000206000015414610928576040517f08c379a000000000000000000000000000000000000000000000000000000000815260040180806020018281038252602c815260200180611581602c913960400191505060405180910390fd5b600660008473ffffffffffffffffffffffffffffffffffffffff1673ffffffffffffffffffffffffffffffffffffffff16815260200190815260200160002060030160009054906101000a900460ff16610a8757600660008473ffffffffffffffffffffffffffffffffffffffff1673ffffffffffffffffffffffffffffffffffffffff16815260200190815260200160002060010154600660008573ffffffffffffffffffffffffffffffffffffffff1673ffffffffffffffffffffffffffffffffffffffff16815260200190815260200160002060020160008481526020019081526020016000205414610a86576040517f08c379a000000000000000000000000000000000000000000000000000000000815260040180806020018281038252601f8152602001807f43616e6e6f74206275726e2e20546f6b656e206e6f7420616c6c6f7765642e0081525060200191505060405180910390fd5b5b5b6001905092915050565b610a9a611552565b73ffffffffffffffffffffffffffffffffffffffff16610ab8610ec5565b73ffffffffffffffffffffffffffffffffffffffff1614610b41576040517f08c379a00000000000000000000000000000000000000000000000000000000081526004018080602001828103825260208152602001807f4f776e61626c653a2063616c6c6572206973206e6f7420746865206f776e657281525060200191505060405180910390fd5b600460019054906101000a900460ff1615158115151415610bca576040517f08c379a000000000000000000000000000000000000000000000000000000000815260040180806020018281038252601d8152602001807f416c72656164792073657420746f2061737369676e65642076616c756500000081525060200191505060405180910390fd5b80600460016101000a81548160ff0219169083151502179055508015610bfd576005600081548092919060010191905055505b50565b610c08611552565b73ffffffffffffffffffffffffffffffffffffffff16610c26610ec5565b73ffffffffffffffffffffffffffffffffffffffff1614610caf576040517f08c379a00000000000000000000000000000000000000000000000000000000081526004018080602001828103825260208152602001807f4f776e61626c653a2063616c6c6572206973206e6f7420746865206f776e657281525060200191505060405180910390fd5b600073ffffffffffffffffffffffffffffffffffffffff16600160009054906101000a900473ffffffffffffffffffffffffffffffffffffffff1673ffffffffffffffffffffffffffffffffffffffff167f8be0079c531659141344cd1fd0a4f28419497f9722a3daafe3b4186f6b6457e060405160405180910390a36000600160006101000a81548173ffffffffffffffffffffffffffffffffffffffff021916908373ffffffffffffffffffffffffffffffffffffffff160217905550565b610d78611552565b73ffffffffffffffffffffffffffffffffffffffff16610d96610ec5565b73ffffffffffffffffffffffffffffffffffffffff1614610e1f576040517f08c379a00000000000000000000000000000000000000000000000000000000081526004018080602001828103825260208152602001807f4f776e61626c653a2063616c6c6572206973206e6f7420746865206f776e657281525060200191505060405180910390fd5b600460009054906101000a900460ff1615158115151415610ea8576040517f08c379a000000000000000000000000000000000000000000000000000000000815260040180806020018281038252601d8152602001807f416c72656164792073657420746f2061737369676e65642076616c756500000081525060200191505060405180910390fd5b80600460006101000a81548160ff02191690831515021790555050565b6000600160009054906101000a900473ffffffffffffffffffffffffffffffffffffffff16905090565b6060600260008373ffffffffffffffffffffffffffffffffffffffff1673ffffffffffffffffffffffffffffffffffffffff168152602001908152602001600020805480602002602001604051908101604052809291908181526020018280548015610f7a57602002820191906000526020600020905b815481526020019060010190808311610f66575b50505050509050919050565b610f8e611552565b73ffffffffffffffffffffffffffffffffffffffff16610fac610ec5565b73ffffffffffffffffffffffffffffffffffffffff1614611035576040517f08c379a00000000000000000000000000000000000000000000000000000000081526004018080602001828103825260208152602001807f4f776e61626c653a2063616c6c6572206973206e6f7420746865206f776e657281525060200191505060405180910390fd5b600073ffffffffffffffffffffffffffffffffffffffff168173ffffffffffffffffffffffffffffffffffffffff1614156110bb576040517f08c379a000000000000000000000000000000000000000000000000000000000815260040180806020018281038252602681526020018061155b6026913960400191505060405180910390fd5b8073ffffffffffffffffffffffffffffffffffffffff16600160009054906101000a900473ffffffffffffffffffffffffffffffffffffffff1673ffffffffffffffffffffffffffffffffffffffff167f8be0079c531659141344cd1fd0a4f28419497f9722a3daafe3b4186f6b6457e060405160405180910390a380600160006101000a81548173ffffffffffffffffffffffffffffffffffffffff021916908373ffffffffffffffffffffffffffffffffffffffff16021790555050565b606060038054806020026020016040519081016040528092919081815260200182805480156111ff57602002820191906000526020600020905b8160009054906101000a900473ffffffffffffffffffffffffffffffffffffffff1673ffffffffffffffffffffffffffffffffffffffff16815260200190600101908083116111b5575b5050505050905090565b611211611552565b73ffffffffffffffffffffffffffffffffffffffff1661122f610ec5565b73ffffffffffffffffffffffffffffffffffffffff16146112b8576040517f08c379a00000000000000000000000000000000000000000000000000000000081526004018080602001828103825260208152602001807f4f776e61626c653a2063616c6c6572206973206e6f7420746865206f776e657281525060200191505060405180910390fd5b600460019054906101000a900460ff1661131d576040517f08c379a00000000000000000000000000000000000000000000000000000000081526004018080602001828103825260238152602001806115dd6023913960400191505060405180910390fd5b600554600660008473ffffffffffffffffffffffffffffffffffffffff1673ffffffffffffffffffffffffffffffffffffffff16815260200190815260200160002060000181905550600660008373ffffffffffffffffffffffffffffffffffffffff1673ffffffffffffffffffffffffffffffffffffffff168152602001908152602001600020600101600081548092919060010191905055506000600660008473ffffffffffffffffffffffffffffffffffffffff1673ffffffffffffffffffffffffffffffffffffffff1681526020019081526020016000206001015490506000825111156114f1576000600660008573ffffffffffffffffffffffffffffffffffffffff1673ffffffffffffffffffffffffffffffffffffffff16815260200190815260200160002060030160006101000a81548160ff02191690831515021790555060008090505b82518110156114eb5781600660008673ffffffffffffffffffffffffffffffffffffffff1673ffffffffffffffffffffffffffffffffffffffff16815260200190815260200160002060020160008584815181106114c457fe5b6020026020010151815260200190815260200160002081905550808060010191505061146a565b5061154d565b6001600660008573ffffffffffffffffffffffffffffffffffffffff1673ffffffffffffffffffffffffffffffffffffffff16815260200190815260200160002060030160006101000a81548160ff0219169083151502179055505b505050565b60003390509056fe4f776e61626c653a206e6577206f776e657220697320746865207a65726f206164647265737343616e6e6f74206275726e2e205265737472696374696f6e73206e6f742073657420666f7220746f6b656e2e4275726e696e672064697361626c65642e20506c6561736520636f6e7461637420636f6e7472616374206f776e65722e4d75737420656e61626c65206275726e207265737472696374696f6e2066697273742ea2646970667358221220b91c9e801be7abf95c25224e475d861653928c164b5cd2a88788ef4ed75c5d7264736f6c63430006020033"}}