{
  "opcodeHash": "0x305f8c714d89cd59374b9857948089171f1985901f4eb62dfe65fe9a794138dd",
  "metalessHash": "0x75902405dccce0940a892d8887a08fb5fc7a798abf9ddb1824d4c3bd9f05a209",
  "runtimeHash": "0x278bd853b15d2c5931218c6227360cd60d8dfe1285f1f0873c9c5493c67ceea0",
  "encodedMetadata": [
    {
      "ipfs": "/ipfs/QmchnS4FB4R4q367B8iS64eAS6zDzG1n5TrXjcmH5451yf",
      "solc": "0.7.4"
    }
  ],
  "abi": [
    {
      "inputs": [
        {
          "internalType": "address",
          "name": "_governor",
          "type": "address"
        }
      ],
      "stateMutability": "nonpayable",
      "type": "constructor"
    },
    {
      "anonymous": false,
      "inputs": [
        {
          "indexed": true,
          "internalType": "address",
          "name": "",
          "type": "address"
        }
      ],
      "name": "Blacklist",
      "type": "event"
    },
    {
      "anonymous": false,
      "inputs": [
        {
          "indexed": true,
          "internalType": "address",
          "name": "from",
          "type": "address"
        },
        {
          "indexed": true,
          "internalType": "address",
          "name": "to",
          "type": "address"
        }
      ],
      "name": "ChangeGovernor",
      "type": "event"
    },
    {
      "anonymous": false,
      "inputs": [
        {
          "indexed": true,
          "internalType": "address",
          "name": "",
          "type": "address"
        }
      ],
      "name": "Whitelist",
      "type": "event"
    },
    {
      "inputs": [
        {
          "internalType": "address",
          "name": "_user",
          "type": "address"
        }
      ],
      "name": "blacklist",
      "outputs": [
        {
          "internalType": "bool",
          "name": "",
          "type": "bool"
        }
      ],
      "stateMutability": "nonpayable",
      "type": "function"
    },
    {
      "inputs": [],
      "name": "governor",
      "outputs": [
        {
          "internalType": "address",
          "name": "",
          "type": "address"
        }
      ],
      "stateMutability": "view",
      "type": "function"
    },
    {
      "inputs": [
        {
          "internalType": "address",
          "name": "_newGovernor",
          "type": "address"
        }
      ],
      "name": "transferGovernor",
      "outputs": [
        {
          "internalType": "bool",
          "name": "",
          "type": "bool"
        }
      ],
      "stateMutability": "nonpayable",
      "type": "function"
    },
    {
      "inputs": [
        {
          "internalType": "address",
          "name": "_user",
          "type": "address"
        }
      ],
      "name": "whitelist",
      "outputs": [
        {
          "internalType": "bool",
          "name": "",
          "type": "bool"
        }
      ],
      "stateMutability": "nonpayable",
      "type": "function"
    },
    {
      "inputs": [
        {
          "internalType": "address",
          "name": "_user",
          "type": "address"
        }
      ],
      "name": "whitelisted",
      "outputs": [
        {
          "internalType": "bool",
          "name": "",
          "type": "bool"
        }
      ],
      "stateMutability": "view",
      "type": "function"
    }
  ],
  "bytecode": {
    "object": "608060405234801561001057600080fd5b506040516104f13803806104f18339818101604052602081101561003357600080fd5b5051600080546001600160a01b039092166001600160a01b031990921691909117905561048c806100656000396000f3fe608060405234801561001057600080fd5b50600436106100575760003560e01c80630c340a241461005c5780639b19251a14610080578063b8cc9ce6146100ba578063d936547e146100e0578063f9f92be414610106575b600080fd5b61006461012c565b604080516001600160a01b039092168252519081900360200190f35b6100a66004803603602081101561009657600080fd5b50356001600160a01b031661013b565b604080519115158252519081900360200190f35b6100a6600480360360208110156100d057600080fd5b50356001600160a01b031661023a565b6100a6600480360360208110156100f657600080fd5b50356001600160a01b031661033f565b6100a66004803603602081101561011c57600080fd5b50356001600160a01b031661035d565b6000546001600160a01b031681565b600080546001600160a01b03163314610191576040805162461bcd60e51b815260206004820152601360248201527221b0b63632b9102737ba1023b7bb32b93737b960691b604482015290519081900360640190fd5b6001600160a01b0382166101e6576040805162461bcd60e51b815260206004820152601760248201527643616e27742062652061207a65726f206164647265737360481b604482015290519081900360640190fd5b6001600160a01b0382166000818152600160208190526040808320805460ff1916909217909155517feb73900b98b6a3e2b8b01708fe544760cf570d21e7fbe5225f24e48b5b2b432e9190a2506001919050565b600080546001600160a01b03163314610290576040805162461bcd60e51b815260206004820152601360248201527221b0b63632b9102737ba1023b7bb32b93737b960691b604482015290519081900360640190fd5b6001600160a01b0382166102eb576040805162461bcd60e51b815260206004820152601860248201527f43616e6e6f742062652061207a65726f20616464726573730000000000000000604482015290519081900360640190fd5b600080546001600160a01b038481166001600160a01b0319831681178455604051919092169283917e355779987285d4d75ca85a340086a1243f46cf4fba5927b1f7fc9d5dd8b9d09190a350600192915050565b6001600160a01b031660009081526001602052604090205460ff1690565b600080546001600160a01b031633146103b3576040805162461bcd60e51b815260206004820152601360248201527221b0b63632b9102737ba1023b7bb32b93737b960691b604482015290519081900360640190fd5b6001600160a01b038216610408576040805162461bcd60e51b815260206004820152601760248201527643616e27742062652061207a65726f206164647265737360481b604482015290519081900360640190fd5b6001600160a01b038216600081815260016020526040808220805460ff19169055517f7811ed4e4b787e4f0f046ffb4a5ec1e064b0eb6d191ffabb66270ed8be89b3259190a250600191905056fea2646970667358221220ac7049ab976b1c49399beae0755e4c18fae518826be37224b0cfb1e6f5b3579464736f6c63430007040033"
  }
}