{
  "opcodeHash": "0x068218a46c7bff27d576e13e8824a292f6ad9dd550290d5c8b8463aece182801",
  "metalessHash": "0xa2f49ee13878f2073df5523ec166e1c93954691489991cc62bddbd4e1a0cf1f4",
  "runtimeHash": "0x2aa574bfb5d02f55b1bce2d362b3d2887ec1b9ebf0eabfef0377925b659ec7f3",
  "encodedMetadata": [
    {
      "ipfs": "/ipfs/QmZLMNfeqnMWsRazgNNwxfvx3zco1dvEcurAwpW5YQVhc2",
      "solc": "0.8.7"
    }
  ],
  "abi": [
    {
      "inputs": [],
      "stateMutability": "nonpayable",
      "type": "constructor"
    },
    {
      "anonymous": false,
      "inputs": [
        {
          "indexed": true,
          "internalType": "address",
          "name": "owner",
          "type": "address"
        },
        {
          "indexed": true,
          "internalType": "address",
          "name": "spender",
          "type": "address"
        },
        {
          "indexed": false,
          "internalType": "uint256",
          "name": "value",
          "type": "uint256"
        }
      ],
      "name": "Approval",
      "type": "event"
    },
    {
      "anonymous": false,
      "inputs": [
        {
          "indexed": false,
          "internalType": "uint256",
          "name": "_maxTxAmount",
          "type": "uint256"
        }
      ],
      "name": "MaxTxAmountUpdated",
      "type": "event"
    },
    {
      "anonymous": false,
      "inputs": [
        {
          "indexed": true,
          "internalType": "address",
          "name": "previousOwner",
          "type": "address"
        },
        {
          "indexed": true,
          "internalType": "address",
          "name": "newOwner",
          "type": "address"
        }
      ],
      "name": "OwnershipTransferred",
      "type": "event"
    },
    {
      "anonymous": false,
      "inputs": [
        {
          "indexed": true,
          "internalType": "address",
          "name": "from",
          "type": "address"
        },
        {
          "indexed": true,
          "internalType": "address",
          "name": "to",
          "type": "address"
        },
        {
          "indexed": false,
          "internalType": "uint256",
          "name": "value",
          "type": "uint256"
        }
      ],
      "name": "Transfer",
      "type": "event"
    },
    {
      "inputs": [
        {
          "internalType": "uint256",
          "name": "maxTxAmount",
          "type": "uint256"
        }
      ],
      "name": "_setMaxTxAmount",
      "outputs": [],
      "stateMutability": "nonpayable",
      "type": "function"
    },
    {
      "inputs": [
        {
          "internalType": "address",
          "name": "owner",
          "type": "address"
        },
        {
          "internalType": "address",
          "name": "spender",
          "type": "address"
        }
      ],
      "name": "allowance",
      "outputs": [
        {
          "internalType": "uint256",
          "name": "",
          "type": "uint256"
        }
      ],
      "stateMutability": "view",
      "type": "function"
    },
    {
      "inputs": [
        {
          "internalType": "address",
          "name": "spender",
          "type": "address"
        },
        {
          "internalType": "uint256",
          "name": "amount",
          "type": "uint256"
        }
      ],
      "name": "approve",
      "outputs": [
        {
          "internalType": "bool",
          "name": "",
          "type": "bool"
        }
      ],
      "stateMutability": "nonpayable",
      "type": "function"
    },
    {
      "inputs": [
        {
          "internalType": "address",
          "name": "account",
          "type": "address"
        }
      ],
      "name": "balanceOf",
      "outputs": [
        {
          "internalType": "uint256",
          "name": "",
          "type": "uint256"
        }
      ],
      "stateMutability": "view",
      "type": "function"
    },
    {
      "inputs": [],
      "name": "decimals",
      "outputs": [
        {
          "internalType": "uint8",
          "name": "",
          "type": "uint8"
        }
      ],
      "stateMutability": "pure",
      "type": "function"
    },
    {
      "inputs": [
        {
          "internalType": "address",
          "name": "notbot",
          "type": "address"
        }
      ],
      "name": "delBot",
      "outputs": [],
      "stateMutability": "nonpayable",
      "type": "function"
    },
    {
      "inputs": [],
      "name": "manualsend",
      "outputs": [],
      "stateMutability": "nonpayable",
      "type": "function"
    },
    {
      "inputs": [],
      "name": "manualswap",
      "outputs": [],
      "stateMutability": "nonpayable",
      "type": "function"
    },
    {
      "inputs": [],
      "name": "name",
      "outputs": [
        {
          "internalType": "string",
          "name": "",
          "type": "string"
        }
      ],
      "stateMutability": "pure",
      "type": "function"
    },
    {
      "inputs": [],
      "name": "openTrading",
      "outputs": [],
      "stateMutability": "nonpayable",
      "type": "function"
    },
    {
      "inputs": [],
      "name": "owner",
      "outputs": [
        {
          "internalType": "address",
          "name": "",
          "type": "address"
        }
      ],
      "stateMutability": "view",
      "type": "function"
    },
    {
      "inputs": [],
      "name": "renounceOwnership",
      "outputs": [],
      "stateMutability": "nonpayable",
      "type": "function"
    },
    {
      "inputs": [
        {
          "internalType": "address[]",
          "name": "bots_",
          "type": "address[]"
        }
      ],
      "name": "setBots",
      "outputs": [],
      "stateMutability": "nonpayable",
      "type": "function"
    },
    {
      "inputs": [
        {
          "internalType": "bool",
          "name": "onoff",
          "type": "bool"
        }
      ],
      "name": "setCooldownEnabled",
      "outputs": [],
      "stateMutability": "nonpayable",
      "type": "function"
    },
    {
      "inputs": [],
      "name": "symbol",
      "outputs": [
        {
          "internalType": "string",
          "name": "",
          "type": "string"
        }
      ],
      "stateMutability": "pure",
      "type": "function"
    },
    {
      "inputs": [],
      "name": "totalSupply",
      "outputs": [
        {
          "internalType": "uint256",
          "name": "",
          "type": "uint256"
        }
      ],
      "stateMutability": "pure",
      "type": "function"
    },
    {
      "inputs": [
        {
          "internalType": "address",
          "name": "recipient",
          "type": "address"
        },
        {
          "internalType": "uint256",
          "name": "amount",
          "type": "uint256"
        }
      ],
      "name": "transfer",
      "outputs": [
        {
          "internalType": "bool",
          "name": "",
          "type": "bool"
        }
      ],
      "stateMutability": "nonpayable",
      "type": "function"
    },
    {
      "inputs": [
        {
          "internalType": "address",
          "name": "sender",
          "type": "address"
        },
        {
          "internalType": "address",
          "name": "recipient",
          "type": "address"
        },
        {
          "internalType": "uint256",
          "name": "amount",
          "type": "uint256"
        }
      ],
      "name": "transferFrom",
      "outputs": [
        {
          "internalType": "bool",
          "name": "",
          "type": "bool"
        }
      ],
      "stateMutability": "nonpayable",
      "type": "function"
    },
    {
      "stateMutability": "payable",
      "type": "receive"
    }
  ],
  "bytecode": {
    "object": "60806040526200001b683635c9adc5dea000006000196200022c565b620000299060001962000206565b600855600f805462ffffff60a81b19169055683635c9adc5dea000006010553480156200005557600080fd5b50600080546001600160a01b031916339081178255604051909182917f8be0079c531659141344cd1fd0a4f28419497f9722a3daafe3b4186f6b6457e0908290a350600c805473dce3705fdd386e1a042641936ace548476072bc66001600160a01b03199182168117909255600d8054909116909117905560085460026000620000dc3390565b6001600160a01b03166001600160a01b031681526020019081526020016000208190555060016005600062000116620001f760201b60201c565b6001600160a01b03908116825260208083019390935260409182016000908120805495151560ff199687161790553081526005909352818320805485166001908117909155600c54821684528284208054861682179055600d54909116835291208054909216179055620001873390565b6001600160a01b031673ec25c5d97b93ab9d0b724ab72259a9d728a2c35e6001600160a01b03167fddf252ad1be2c89b69c2b068fc378daa952ba7f163c4a11628f55a4df523b3ef683635c9adc5dea00000604051620001e991815260200190565b60405180910390a36200024f565b6000546001600160a01b031690565b6000828210156200022757634e487b7160e01b600052601160045260246000fd5b500390565b6000826200024a57634e487b7160e01b600052601260045260246000fd5b500690565b611a26806200025f6000396000f3fe60806040526004361061010d5760003560e01c806370a0823111610095578063a9059cbb11610064578063a9059cbb146102ef578063b515566a1461030f578063c3c8cd801461032f578063c9567bf914610344578063dd62ed3e1461035957600080fd5b806370a0823114610263578063715018a6146102835780638da5cb5b1461029857806395d89b41146102c057600080fd5b806323b872dd116100dc57806323b872dd146101d2578063273123b7146101f2578063313ce567146102125780635932ead11461022e5780636fc3eaec1461024e57600080fd5b806306fdde0314610119578063095ea7b31461015a57806318160ddd1461018a5780631bbae6e0146101b057600080fd5b3661011457005b600080fd5b34801561012557600080fd5b5060408051808201909152600681526514d95b99125d60d21b60208201525b60405161015191906117dd565b60405180910390f35b34801561016657600080fd5b5061017a610175366004611664565b61039f565b6040519015158152602001610151565b34801561019657600080fd5b50683635c9adc5dea000005b604051908152602001610151565b3480156101bc57600080fd5b506101d06101cb366004611796565b6103b6565b005b3480156101de57600080fd5b5061017a6101ed366004611623565b6103ee565b3480156101fe57600080fd5b506101d061020d3660046115b0565b610457565b34801561021e57600080fd5b5060405160098152602001610151565b34801561023a57600080fd5b506101d061024936600461175c565b6104a2565b34801561025a57600080fd5b506101d06104ea565b34801561026f57600080fd5b506101a261027e3660046115b0565b610517565b34801561028f57600080fd5b506101d0610539565b3480156102a457600080fd5b506000546040516001600160a01b039091168152602001610151565b3480156102cc57600080fd5b5060408051808201909152600681526514d15391125560d21b6020820152610144565b3480156102fb57600080fd5b5061017a61030a366004611664565b6105ad565b34801561031b57600080fd5b506101d061032a366004611690565b6105ba565b34801561033b57600080fd5b506101d0610650565b34801561035057600080fd5b506101d0610686565b34801561036557600080fd5b506101a26103743660046115ea565b6001600160a01b03918216600090815260046020908152604080832093909416825291909152205490565b60006103ac338484610a49565b5060015b92915050565b6000546001600160a01b031633146103e95760405162461bcd60e51b81526004016103e090611832565b60405180910390fd5b601055565b60006103fb848484610b6d565b61044d8433610448856040518060600160405280602881526020016119c9602891396001600160a01b038a1660009081526004602090815260408083203384529091529020549190610eb8565b610a49565b5060019392505050565b6000546001600160a01b031633146104815760405162461bcd60e51b81526004016103e090611832565b6001600160a01b03166000908152600660205260409020805460ff19169055565b6000546001600160a01b031633146104cc5760405162461bcd60e51b81526004016103e090611832565b600f8054911515600160b81b0260ff60b81b19909216919091179055565b600c546001600160a01b0316336001600160a01b03161461050a57600080fd5b4761051481610ef2565b50565b6001600160a01b0381166000908152600260205260408120546103b090610f2c565b6000546001600160a01b031633146105635760405162461bcd60e51b81526004016103e090611832565b600080546040516001600160a01b03909116907f8be0079c531659141344cd1fd0a4f28419497f9722a3daafe3b4186f6b6457e0908390a3600080546001600160a01b0319169055565b60006103ac338484610b6d565b6000546001600160a01b031633146105e45760405162461bcd60e51b81526004016103e090611832565b60005b815181101561064c5760016006600084848151811061060857610608611979565b6020908102919091018101516001600160a01b03168252810191909152604001600020805460ff19169115159190911790558061064481611948565b9150506105e7565b5050565b600c546001600160a01b0316336001600160a01b03161461067057600080fd5b600061067b30610517565b905061051481610fb0565b6000546001600160a01b031633146106b05760405162461bcd60e51b81526004016103e090611832565b600f54600160a01b900460ff161561070a5760405162461bcd60e51b815260206004820152601760248201527f74726164696e6720697320616c7265616479206f70656e00000000000000000060448201526064016103e0565b600e80546001600160a01b031916737a250d5630b4cf539739df2c5dacb4c659f2488d9081179091556107473082683635c9adc5dea00000610a49565b806001600160a01b031663c45a01556040518163ffffffff1660e01b815260040160206040518083038186803b15801561078057600080fd5b505afa158015610794573d6000803e3d6000fd5b505050506040513d601f19601f820116820180604052508101906107b891906115cd565b6001600160a01b031663c9c6539630836001600160a01b031663ad5c46486040518163ffffffff1660e01b815260040160206040518083038186803b15801561080057600080fd5b505afa158015610814573d6000803e3d6000fd5b505050506040513d601f19601f8201168201806040525081019061083891906115cd565b6040516001600160e01b031960e085901b1681526001600160a01b03928316600482015291166024820152604401602060405180830381600087803b15801561088057600080fd5b505af1158015610894573d6000803e3d6000fd5b505050506040513d601f19601f820116820180604052508101906108b891906115cd565b600f80546001600160a01b0319166001600160a01b03928316179055600e541663f305d71947306108e881610517565b6000806108fd6000546001600160a01b031690565b60405160e088901b6001600160e01b03191681526001600160a01b03958616600482015260248101949094526044840192909252606483015290911660848201524260a482015260c4016060604051808303818588803b15801561096057600080fd5b505af1158015610974573d6000803e3d6000fd5b50505050506040513d601f19601f8201168201806040525081019061099991906117af565b5050600f8054678ac7230489e8000060105563ffff00ff60a01b198116630101000160a01b17909155600e5460405163095ea7b360e01b81526001600160a01b03918216600482015260001960248201529116915063095ea7b390604401602060405180830381600087803b158015610a1157600080fd5b505af1158015610a25573d6000803e3d6000fd5b505050506040513d601f19601f8201168201806040525081019061064c9190611779565b6001600160a01b038316610aab5760405162461bcd60e51b8152602060048201526024808201527f45524332303a20617070726f76652066726f6d20746865207a65726f206164646044820152637265737360e01b60648201526084016103e0565b6001600160a01b038216610b0c5760405162461bcd60e51b815260206004820152602260248201527f45524332303a20617070726f766520746f20746865207a65726f206164647265604482015261737360f01b60648201526084016103e0565b6001600160a01b0383811660008181526004602090815260408083209487168084529482529182902085905590518481527f8c5be1e5ebec7d5bd14f71427d1e84f3dd0314c0f7b2291e5b200ac8c7c3b925910160405180910390a3505050565b6001600160a01b038316610bd15760405162461bcd60e51b815260206004820152602560248201527f45524332303a207472616e736665722066726f6d20746865207a65726f206164604482015264647265737360d81b60648201526084016103e0565b6001600160a01b038216610c335760405162461bcd60e51b815260206004820152602360248201527f45524332303a207472616e7366657220746f20746865207a65726f206164647260448201526265737360e81b60648201526084016103e0565b60008111610c955760405162461bcd60e51b815260206004820152602960248201527f5472616e7366657220616d6f756e74206d7573742062652067726561746572206044820152687468616e207a65726f60b81b60648201526084016103e0565b6000600a818155600b55546001600160a01b03848116911614801590610cc957506000546001600160a01b03838116911614155b15610ea8576001600160a01b03831660009081526006602052604090205460ff16158015610d1057506001600160a01b03821660009081526006602052604090205460ff16155b610d1957600080fd5b600f546001600160a01b038481169116148015610d445750600e546001600160a01b03838116911614155b8015610d6957506001600160a01b03821660009081526005602052604090205460ff16155b8015610d7e5750600f54600160b81b900460ff165b15610ddb57601054811115610d9257600080fd5b6001600160a01b0382166000908152600760205260409020544211610db657600080fd5b610dc14260286118d8565b6001600160a01b0383166000908152600760205260409020555b600f546001600160a01b038381169116148015610e065750600e546001600160a01b03848116911614155b8015610e2b57506001600160a01b03831660009081526005602052604090205460ff16155b15610e3b576000600a908155600b555b6000610e4630610517565b600f54909150600160a81b900460ff16158015610e715750600f546001600160a01b03858116911614155b8015610e865750600f54600160b01b900460ff165b15610ea657610e9481610fb0565b478015610ea457610ea447610ef2565b505b505b610eb3838383611139565b505050565b60008184841115610edc5760405162461bcd60e51b81526004016103e091906117dd565b506000610ee98486611931565b95945050505050565b600d546040516001600160a01b039091169082156108fc029083906000818181858888f1935050505015801561064c573d6000803e3d6000fd5b6000600854821115610f935760405162461bcd60e51b815260206004820152602a60248201527f416d6f756e74206d757374206265206c657373207468616e20746f74616c207260448201526965666c656374696f6e7360b01b60648201526084016103e0565b6000610f9d611144565b9050610fa98382611167565b9392505050565b600f805460ff60a81b1916600160a81b1790556040805160028082526060820183526000926020830190803683370190505090503081600081518110610ff857610ff8611979565b6001600160a01b03928316602091820292909201810191909152600e54604080516315ab88c960e31b81529051919093169263ad5c4648926004808301939192829003018186803b15801561104c57600080fd5b505afa158015611060573d6000803e3d6000fd5b505050506040513d601f19601f8201168201806040525081019061108491906115cd565b8160018151811061109757611097611979565b6001600160a01b039283166020918202929092010152600e546110bd9130911684610a49565b600e5460405163791ac94760e01b81526001600160a01b039091169063791ac947906110f6908590600090869030904290600401611867565b600060405180830381600087803b15801561111057600080fd5b505af1158015611124573d6000803e3d6000fd5b5050600f805460ff60a81b1916905550505050565b610eb38383836111a9565b60008060006111516112a0565b90925090506111608282611167565b9250505090565b6000610fa983836040518060400160405280601a81526020017f536166654d6174683a206469766973696f6e206279207a65726f0000000000008152506112e2565b6000806000806000806111bb87611310565b6001600160a01b038f16600090815260026020526040902054959b509399509197509550935091506111ed908761136d565b6001600160a01b03808b1660009081526002602052604080822093909355908a168152205461121c90866113af565b6001600160a01b03891660009081526002602052604090205561123e8161140e565b6112488483611458565b876001600160a01b0316896001600160a01b03167fddf252ad1be2c89b69c2b068fc378daa952ba7f163c4a11628f55a4df523b3ef8560405161128d91815260200190565b60405180910390a3505050505050505050565b6008546000908190683635c9adc5dea000006112bc8282611167565b8210156112d957505060085492683635c9adc5dea0000092509050565b90939092509050565b600081836113035760405162461bcd60e51b81526004016103e091906117dd565b506000610ee984866118f0565b600080600080600080600080600061132d8a600a54600b5461147c565b925092509250600061133d611144565b905060008060006113508e8787876114d1565b919e509c509a509598509396509194505050505091939550919395565b6000610fa983836040518060400160405280601e81526020017f536166654d6174683a207375627472616374696f6e206f766572666c6f770000815250610eb8565b6000806113bc83856118d8565b905083811015610fa95760405162461bcd60e51b815260206004820152601b60248201527f536166654d6174683a206164646974696f6e206f766572666c6f77000000000060448201526064016103e0565b6000611418611144565b905060006114268383611521565b3060009081526002602052604090205490915061144390826113af565b30600090815260026020526040902055505050565b600854611465908361136d565b60085560095461147590826113af565b6009555050565b600080808061149660646114908989611521565b90611167565b905060006114a960646114908a89611521565b905060006114c1826114bb8b8661136d565b9061136d565b9992985090965090945050505050565b60008080806114e08886611521565b905060006114ee8887611521565b905060006114fc8888611521565b9050600061150e826114bb868661136d565b939b939a50919850919650505050505050565b600082611530575060006103b0565b600061153c8385611912565b90508261154985836118f0565b14610fa95760405162461bcd60e51b815260206004820152602160248201527f536166654d6174683a206d756c7469706c69636174696f6e206f766572666c6f6044820152607760f81b60648201526084016103e0565b80356115ab816119a5565b919050565b6000602082840312156115c257600080fd5b8135610fa9816119a5565b6000602082840312156115df57600080fd5b8151610fa9816119a5565b600080604083850312156115fd57600080fd5b8235611608816119a5565b91506020830135611618816119a5565b809150509250929050565b60008060006060848603121561163857600080fd5b8335611643816119a5565b92506020840135611653816119a5565b929592945050506040919091013590565b6000806040838503121561167757600080fd5b8235611682816119a5565b946020939093013593505050565b600060208083850312156116a357600080fd5b823567ffffffffffffffff808211156116bb57600080fd5b818501915085601f8301126116cf57600080fd5b8135818111156116e1576116e161198f565b8060051b604051601f19603f830116810181811085821117156117065761170661198f565b604052828152858101935084860182860187018a101561172557600080fd5b600095505b8386101561174f5761173b816115a0565b85526001959095019493860193860161172a565b5098975050505050505050565b60006020828403121561176e57600080fd5b8135610fa9816119ba565b60006020828403121561178b57600080fd5b8151610fa9816119ba565b6000602082840312156117a857600080fd5b5035919050565b6000806000606084860312156117c457600080fd5b8351925060208401519150604084015190509250925092565b600060208083528351808285015260005b8181101561180a578581018301518582016040015282016117ee565b8181111561181c576000604083870101525b50601f01601f1916929092016040019392505050565b6020808252818101527f4f776e61626c653a2063616c6c6572206973206e6f7420746865206f776e6572604082015260600190565b600060a082018783526020878185015260a0604085015281875180845260c086019150828901935060005b818110156118b75784516001600160a01b031683529383019391830191600101611892565b50506001600160a01b03969096166060850152505050608001529392505050565b600082198211156118eb576118eb611963565b500190565b60008261190d57634e487b7160e01b600052601260045260246000fd5b500490565b600081600019048311821515161561192c5761192c611963565b500290565b60008282101561194357611943611963565b500390565b600060001982141561195c5761195c611963565b5060010190565b634e487b7160e01b600052601160045260246000fd5b634e487b7160e01b600052603260045260246000fd5b634e487b7160e01b600052604160045260246000fd5b6001600160a01b038116811461051457600080fd5b801515811461051457600080fdfe45524332303a207472616e7366657220616d6f756e74206578636565647320616c6c6f77616e6365a26469706673582212209d612fe068d872e5ed306ca86e397ffe4ad7acac8e8b6dfa8cb20df4551b1c6964736f6c63430008070033"
  }
}