{
  "opcodeHash": "0x26e5bdf228b268e76c9ddee78191797ae791f80db1fa3d567776a35a0f8960ac",
  "metalessHash": "0x96ef401949f8d0a85b922461e2cb5c3f26f78f977bc62f85573a94aa19e12cf8",
  "runtimeHash": "0xd25080d0b90659bed99ac7ec05e97831883ac355dbdc867b4dccda845c78b5ce",
  "encodedMetadata": [
    {
      "ipfs": "/ipfs/QmWGuxkm54bquDRJZniDyXBWeiob9X6KACveqGRvzEuBsk",
      "solc": "0.6.12"
    }
  ],
  "abi": [
    {
      "anonymous": false,
      "inputs": [
        {
          "indexed": true,
          "internalType": "address",
          "name": "previousOwner",
          "type": "address"
        },
        {
          "indexed": true,
          "internalType": "address",
          "name": "newOwner",
          "type": "address"
        }
      ],
      "name": "OwnershipTransferred",
      "type": "event"
    },
    {
      "anonymous": false,
      "inputs": [
        {
          "indexed": false,
          "internalType": "address",
          "name": "winner",
          "type": "address"
        },
        {
          "indexed": false,
          "internalType": "uint256",
          "name": "id",
          "type": "uint256"
        }
      ],
      "name": "PunkDropped",
      "type": "event"
    },
    {
      "inputs": [
        {
          "internalType": "string",
          "name": "_seed",
          "type": "string"
        }
      ],
      "name": "dropPunk",
      "outputs": [],
      "stateMutability": "nonpayable",
      "type": "function"
    },
    {
      "inputs": [
        {
          "internalType": "uint256",
          "name": "_id",
          "type": "uint256"
        }
      ],
      "name": "evacPunk",
      "outputs": [],
      "stateMutability": "nonpayable",
      "type": "function"
    },
    {
      "inputs": [
        {
          "internalType": "address[]",
          "name": "_addresses",
          "type": "address[]"
        }
      ],
      "name": "logAddresses",
      "outputs": [],
      "stateMutability": "nonpayable",
      "type": "function"
    },
    {
      "inputs": [
        {
          "internalType": "uint256[]",
          "name": "_ids",
          "type": "uint256[]"
        }
      ],
      "name": "logSet",
      "outputs": [],
      "stateMutability": "nonpayable",
      "type": "function"
    },
    {
      "inputs": [],
      "name": "owner",
      "outputs": [
        {
          "internalType": "address",
          "name": "",
          "type": "address"
        }
      ],
      "stateMutability": "view",
      "type": "function"
    },
    {
      "inputs": [
        {
          "internalType": "uint256",
          "name": "",
          "type": "uint256"
        }
      ],
      "name": "punkSet",
      "outputs": [
        {
          "internalType": "uint256",
          "name": "",
          "type": "uint256"
        }
      ],
      "stateMutability": "view",
      "type": "function"
    },
    {
      "inputs": [],
      "name": "punksToDrop",
      "outputs": [
        {
          "internalType": "uint256",
          "name": "",
          "type": "uint256"
        }
      ],
      "stateMutability": "view",
      "type": "function"
    },
    {
      "inputs": [],
      "name": "renounceOwnership",
      "outputs": [],
      "stateMutability": "nonpayable",
      "type": "function"
    },
    {
      "inputs": [
        {
          "internalType": "uint256",
          "name": "",
          "type": "uint256"
        }
      ],
      "name": "tickets",
      "outputs": [
        {
          "internalType": "address",
          "name": "",
          "type": "address"
        }
      ],
      "stateMutability": "view",
      "type": "function"
    },
    {
      "inputs": [],
      "name": "ticketsLeft",
      "outputs": [
        {
          "internalType": "uint256",
          "name": "",
          "type": "uint256"
        }
      ],
      "stateMutability": "view",
      "type": "function"
    },
    {
      "inputs": [
        {
          "internalType": "address",
          "name": "newOwner",
          "type": "address"
        }
      ],
      "name": "transferOwnership",
      "outputs": [],
      "stateMutability": "nonpayable",
      "type": "function"
    }
  ],
  "bytecode": {
    "object": "6080604052600180546001600160a01b03191673b47e3cd837ddf8e4c57f05d70ab865de6e193bbb17905534801561003657600080fd5b506000610041610090565b600080546001600160a01b0319166001600160a01b0383169081178255604051929350917f8be0079c531659141344cd1fd0a4f28419497f9722a3daafe3b4186f6b6457e0908290a350610094565b3390565b610a57806100a36000396000f3fe608060405234801561001057600080fd5b50600436106100a95760003560e01c8063715018a611610071578063715018a6146101985780638ad8be9b146101a05780638c2a1dd8146102105780638da5cb5b14610280578063e150718c14610288578063f2fde38b146102a5576100a9565b8063394976fd146100ae5780633a38765c146100dd5780634f75acda146100e557806350b44712146101575780636cab5e5b14610190575b600080fd5b6100cb600480360360208110156100c457600080fd5b50356102cb565b60408051918252519081900360200190f35b6100cb6102dd565b610155600480360360208110156100fb57600080fd5b81019060208101813564010000000081111561011657600080fd5b82018360208201111561012857600080fd5b8035906020019184602083028401116401000000008311171561014a57600080fd5b5090925090506102e3565b005b6101746004803603602081101561016d57600080fd5b50356103e4565b604080516001600160a01b039092168252519081900360200190f35b6100cb6103ff565b610155610405565b610155600480360360208110156101b657600080fd5b8101906020810181356401000000008111156101d157600080fd5b8201836020820111156101e357600080fd5b8035906020019184602083028401116401000000008311171561020557600080fd5b5090925090506104a7565b6101556004803603602081101561022657600080fd5b81019060208101813564010000000081111561024157600080fd5b82018360208201111561025357600080fd5b8035906020019184600183028401116401000000008311171561027557600080fd5b5090925090506105a6565b6101746107e9565b6101556004803603602081101561029e57600080fd5b50356107f8565b610155600480360360208110156102bb57600080fd5b50356001600160a01b03166108be565b60036020526000908152604090205481565b60025481565b6102eb6109b6565b6000546001600160a01b0390811691161461033b576040805162461bcd60e51b81526020600482018190526024820152600080516020610a02833981519152604482015290519081900360640190fd5b600454609682820111156103805760405162461bcd60e51b81526004018080602001828103825260218152602001806109bb6021913960400191505060405180910390fd5b60005b828110156103d65783838281811061039757fe5b838501600090815260056020908152604090912080546001600160a01b0319166001600160a01b03929093029490940135161790915550600101610383565b505060048054909101905550565b6005602052600090815260409020546001600160a01b031681565b60045481565b61040d6109b6565b6000546001600160a01b0390811691161461045d576040805162461bcd60e51b81526020600482018190526024820152600080516020610a02833981519152604482015290519081900360640190fd5b600080546040516001600160a01b03909116907f8be0079c531659141344cd1fd0a4f28419497f9722a3daafe3b4186f6b6457e0908390a3600080546001600160a01b0319169055565b6104af6109b6565b6000546001600160a01b039081169116146104ff576040805162461bcd60e51b81526020600482018190526024820152600080516020610a02833981519152604482015290519081900360640190fd5b6002546096828201111561055a576040805162461bcd60e51b815260206004820181905260248201527f50756e6b44726f703a20546f6f206d616e79206c6f676765642070756e6b732e604482015290519081900360640190fd5b60005b828110156105985783838281811061057157fe5b8484016000908152600360209081526040909120910292909201359091555060010161055d565b505060028054909101905550565b6105ae6109b6565b6000546001600160a01b039081169116146105fe576040805162461bcd60e51b81526020600482018190526024820152600080516020610a02833981519152604482015290519081900360640190fd5b600060025411610655576040805162461bcd60e51b815260206004820152601860248201527f50756e6b44726f703a205061727479206973206f7665722e0000000000000000604482015290519081900360640190fd5b600082826040516020018083838082843780830192505050925050506040516020818303038152906040528051906020012060001c9050600060036000600254848161069d57fe5b068152602001908152602001600020549050600360006001600254038152602001908152602001600020546003600060025485816106d757fe5b0681526020808201929092526040908101600090812093909355600280546000199081018552600384528285208590556004805482018652600590945282852080546001600160a01b03198116909155845482018555825490910190915560015482516322dca8bb60e21b81526001600160a01b039283169481018590526024810187905292519394911692638b72a2ec92604480820193929182900301818387803b15801561078657600080fd5b505af115801561079a573d6000803e3d6000fd5b5050604080516001600160a01b03851681526020810186905281517f849f9c706740663aa76056f54ca0774b88835345538c9a7b4444a62dd422a7fa9450908190039091019150a15050505050565b6000546001600160a01b031690565b6108006109b6565b6000546001600160a01b03908116911614610850576040805162461bcd60e51b81526020600482018190526024820152600080516020610a02833981519152604482015290519081900360640190fd5b600154604080516322dca8bb60e21b81523360048201526024810184905290516001600160a01b0390921691638b72a2ec9160448082019260009290919082900301818387803b1580156108a357600080fd5b505af11580156108b7573d6000803e3d6000fd5b5050505050565b6108c66109b6565b6000546001600160a01b03908116911614610916576040805162461bcd60e51b81526020600482018190526024820152600080516020610a02833981519152604482015290519081900360640190fd5b6001600160a01b03811661095b5760405162461bcd60e51b81526004018080602001828103825260268152602001806109dc6026913960400191505060405180910390fd5b600080546040516001600160a01b03808516939216917f8be0079c531659141344cd1fd0a4f28419497f9722a3daafe3b4186f6b6457e091a3600080546001600160a01b0319166001600160a01b0392909216919091179055565b339056fe50756e6b44726f703a20546f6f206d616e79206c6f67676564207469636b6574734f776e61626c653a206e6577206f776e657220697320746865207a65726f20616464726573734f776e61626c653a2063616c6c6572206973206e6f7420746865206f776e6572a26469706673582212202ccf9889c176981fada85ee6adb77358296edbdd49007f4950750d57b9c6d92f64736f6c634300060c0033"
  }
}