{
  "opcodeHash": "0x915f449fc3483daca6f53a4d83b0aa82c62072567760093cc3e01df635df6f34",
  "metalessHash": "0x204171ba9eb8c034d2510cf83c39297f199d9bf75777cafb13a9011369c92c69",
  "runtimeHash": "0xf508ed0190a93e8edc07e0170ada180599d5297a9e67a2f94f2c0d7363c020cd",
  "encodedMetadata": [
    {
      "ipfs": "/ipfs/QmNaMZ9s1zTiwJvYGrFoqNcst9nUd6F4FGUvGm5WnMMQAM",
      "solc": "0.6.2"
    }
  ],
  "abi": [
    {
      "inputs": [],
      "stateMutability": "nonpayable",
      "type": "constructor"
    },
    {
      "inputs": [
        {
          "internalType": "uint256",
          "name": "_requirement",
          "type": "uint256"
        }
      ],
      "name": "check",
      "outputs": [
        {
          "internalType": "uint256",
          "name": "",
          "type": "uint256"
        }
      ],
      "stateMutability": "view",
      "type": "function"
    },
    {
      "inputs": [],
      "name": "execute",
      "outputs": [],
      "stateMutability": "nonpayable",
      "type": "function"
    },
    {
      "inputs": [],
      "name": "stackID",
      "outputs": [
        {
          "internalType": "uint256",
          "name": "",
          "type": "uint256"
        }
      ],
      "stateMutability": "view",
      "type": "function"
    },
    {
      "inputs": [
        {
          "internalType": "uint256",
          "name": "",
          "type": "uint256"
        },
        {
          "internalType": "uint256",
          "name": "",
          "type": "uint256"
        }
      ],
      "name": "stackMap",
      "outputs": [
        {
          "internalType": "uint256",
          "name": "",
          "type": "uint256"
        }
      ],
      "stateMutability": "view",
      "type": "function"
    }
  ],
  "bytecode": {
    "object": "608060405234801561001057600080fd5b50604051806060016040528061011861ffff16815260200161011961ffff16815260200161011a61ffff1681525060008080815260200190815260200160002090600361005e929190610379565b50604051806060016040528061011b61ffff16815260200161011c61ffff16815260200161011d61ffff16815250600080600181526020019081526020016000209060036100ad929190610379565b50604051806060016040528061011e61ffff16815260200161011f61ffff16815260200161012061ffff16815250600080600281526020019081526020016000209060036100fc929190610379565b50604051806060016040528061012161ffff168152602001608761ffff16815260200161011461ffff168152506000806003815260200190815260200160002090600361014a929190610379565b50604051806060016040528061011561ffff16815260200161011661ffff16815260200161011761ffff1681525060008060048152602001908152602001600020906003610199929190610379565b50604051806060016040528061012261ffff16815260200161012361ffff16815260200161012461ffff16815250600080600581526020019081526020016000209060036101e8929190610379565b50604051806060016040528061012661ffff16815260200161012761ffff16815260200161012861ffff1681525060008060068152602001908152602001600020906003610237929190610379565b50604051806060016040528061011161ffff16815260200161012961ffff16815260200161011261ffff1681525060008060078152602001908152602001600020906003610286929190610379565b50604051806060016040528061012a61ffff16815260200161011361ffff16815260200161012b61ffff16815250600080600881526020019081526020016000209060036102d5929190610379565b50604051806060016040528061012c61ffff16815260200161012d61ffff16815260200161013761ffff1681525060008060098152602001908152602001600020906003610324929190610379565b50604051806060016040528061013c61ffff16815260200161014b61ffff16815260200161014c61ffff16815250600080600a8152602001908152602001600020906003610373929190610379565b506103e4565b82600381019282156103ae579160200282015b828111156103ad578251829061ffff1690559160200191906001019061038c565b5b5090506103bb91906103bf565b5090565b6103e191905b808211156103dd5760008160009055506001016103c5565b5090565b90565b6104c0806103f36000396000f3fe608060405234801561001057600080fd5b506004361061004c5760003560e01c80632d7851d4146100515780635f72f4501461006f57806361461954146100b15780639a01be80146100bb575b600080fd5b610059610107565b6040518082815260200191505060405180910390f35b61009b6004803603602081101561008557600080fd5b810190808035906020019092919050505061010d565b6040518082815260200191505060405180910390f35b6100b961025b565b005b6100f1600480360360408110156100d157600080fd5b810190808035906020019092919080359060200190929190505050610443565b6040518082815260200191505060405180910390f35b60015481565b6000610117610468565b6000806001548152602001908152602001600020600380602002604051908101604052809291908260038015610162576020028201915b81548152602001906001019080831161014e575b50505050509050600080600090505b600381101561023b5773a2482ccff8432ee68b9a26a30fcdd2782bd81bed73ffffffffffffffffffffffffffffffffffffffff16631681d1588483600381106101b657fe5b60200201516040518263ffffffff1660e01b81526004018082815260200191505060206040518083038186803b1580156101ef57600080fd5b505afa158015610203573d6000803e3d6000fd5b505050506040513d602081101561021957600080fd5b8101908080519060200190929190505050820191508080600101915050610171565b5083811061024e57600092505050610256565b808403925050505b919050565b610263610468565b60008060015481526020019081526020016000206003806020026040519081016040528092919082600380156102ae576020028201915b81548152602001906001019080831161029a575b5050505050905060008090505b600381101561041957600073a2482ccff8432ee68b9a26a30fcdd2782bd81bed73ffffffffffffffffffffffffffffffffffffffff16631681d15884846003811061030257fe5b60200201516040518263ffffffff1660e01b81526004018082815260200191505060206040518083038186803b15801561033b57600080fd5b505afa15801561034f573d6000803e3d6000fd5b505050506040513d602081101561036557600080fd5b8101908080519060200190929190505050111561040c5773b4345a489e4af3a33f81df5fb26e88ffeced648973ffffffffffffffffffffffffffffffffffffffff166337bdc99b8383600381106103b857fe5b60200201516040518263ffffffff1660e01b815260040180828152602001915050600060405180830381600087803b1580156103f357600080fd5b505af1158015610407573d6000803e3d6000fd5b505050505b80806001019150506102bb565b50600160008154809291906001019190505550600a60015411156104405760006001819055505b50565b6000602052816000526040600020816003811061045c57fe5b01600091509150505481565b604051806060016040528060039060208202803883398082019150509050509056fea2646970667358221220d291b83337a2b19b73b011503333f4387e37168839c55cae978fd78068627fb764736f6c63430006020033"
  }
}