{"compiler":"v0.6.6+commit.6c089d02","opcodeHash":"0x9e44329a7070126ee51f8651e37b4dda3b6d8ffbc7c5e96128f2eeaca96c85be","metalessHash":"0x58c2e5ac8b909754d6d7c620b0683243da08a90bfa5b51c4190f10fc88832f01","runtimeHash":"0x8cf54409a10f57aba8f441ea6172514b58679b55a158398191e518419ed36247","encodedMetadata":[{"ipfs":"/ipfs/QmdmvHTsM2rGB9iT3JKBG2NqSARNprW66DYuunXRuxRKp4","solc":"0.6.6"}],"abi":[{"inputs":[],"stateMutability":"nonpayable","type":"constructor"},{"anonymous":false,"inputs":[{"indexed":true,"internalType":"address","name":"owner","type":"address"},{"indexed":true,"internalType":"address","name":"spender","type":"address"},{"indexed":false,"internalType":"uint256","name":"value","type":"uint256"}],"name":"Approval","type":"event"},{"anonymous":false,"inputs":[{"indexed":true,"internalType":"uint256","name":"_investAmount","type":"uint256"},{"indexed":true,"internalType":"uint256","name":"_shareAmount","type":"uint256"},{"indexed":false,"internalType":"address","name":"sender","type":"address"}],"name":"Deposit","type":"event"},{"anonymous":false,"inputs":[{"indexed":true,"internalType":"address","name":"previousOwner","type":"address"},{"indexed":true,"internalType":"address","name":"newOwner","type":"address"}],"name":"OwnershipTransferred","type":"event"},{"anonymous":false,"inputs":[{"indexed":true,"internalType":"address","name":"from","type":"address"},{"indexed":true,"internalType":"address","name":"to","type":"address"},{"indexed":false,"internalType":"uint256","name":"value","type":"uint256"}],"name":"Transfer","type":"event"},{"anonymous":false,"inputs":[{"indexed":true,"internalType":"uint256","name":"_shareAmount","type":"uint256"},{"indexed":true,"internalType":"uint256","name":"_withdrawAmount","type":"uint256"},{"indexed":false,"internalType":"address","name":"sender","type":"address"}],"name":"Withdraw","type":"event"},{"inputs":[{"internalType":"address","name":"owner","type":"address"},{"internalType":"address","name":"spender","type":"address"}],"name":"allowance","outputs":[{"internalType":"uint256","name":"","type":"uint256"}],"stateMutability":"view","type":"function"},{"inputs":[{"internalType":"address","name":"spender","type":"address"},{"internalType":"uint256","name":"amount","type":"uint256"}],"name":"approve","outputs":[{"internalType":"bool","name":"","type":"bool"}],"stateMutability":"nonpayable","type":"function"},{"inputs":[{"internalType":"address","name":"account","type":"address"}],"name":"balanceOf","outputs":[{"internalType":"uint256","name":"","type":"uint256"}],"stateMutability":"view","type":"function"},{"inputs":[],"name":"coin","outputs":[{"internalType":"address","name":"","type":"address"}],"stateMutability":"view","type":"function"},{"inputs":[],"name":"controller","outputs":[{"internalType":"address","name":"","type":"address"}],"stateMutability":"view","type":"function"},{"inputs":[],"name":"decimals","outputs":[{"internalType":"uint8","name":"","type":"uint8"}],"stateMutability":"view","type":"function"},{"inputs":[{"internalType":"address","name":"spender","type":"address"},{"internalType":"uint256","name":"subtractedValue","type":"uint256"}],"name":"decreaseAllowance","outputs":[{"internalType":"bool","name":"","type":"bool"}],"stateMutability":"nonpayable","type":"function"},{"inputs":[{"internalType":"uint256","name":"_amount","type":"uint256"}],"name":"deposit","outputs":[],"stateMutability":"nonpayable","type":"function"},{"inputs":[],"name":"deposit","outputs":[{"internalType":"address","name":"","type":"address"}],"stateMutability":"view","type":"function"},{"inputs":[],"name":"feeRate","outputs":[{"internalType":"uint256","name":"","type":"uint256"}],"stateMutability":"view","type":"function"},{"inputs":[],"name":"feeTo","outputs":[{"internalType":"address","name":"","type":"address"}],"stateMutability":"view","type":"function"},{"inputs":[{"internalType":"address","name":"spender","type":"address"},{"internalType":"uint256","name":"addedValue","type":"uint256"}],"name":"increaseAllowance","outputs":[{"internalType":"bool","name":"","type":"bool"}],"stateMutability":"nonpayable","type":"function"},{"inputs":[],"name":"intermediator","outputs":[{"internalType":"address","name":"","type":"address"}],"stateMutability":"view","type":"function"},{"inputs":[],"name":"lp","outputs":[{"internalType":"address","name":"","type":"address"}],"stateMutability":"view","type":"function"},{"inputs":[],"name":"name","outputs":[{"internalType":"string","name":"","type":"string"}],"stateMutability":"view","type":"function"},{"inputs":[],"name":"owner","outputs":[{"internalType":"address","name":"","type":"address"}],"stateMutability":"view","type":"function"},{"inputs":[],"name":"poolCoin","outputs":[{"internalType":"address","name":"","type":"address"}],"stateMutability":"view","type":"function"},{"inputs":[],"name":"poolName","outputs":[{"internalType":"string","name":"","type":"string"}],"stateMutability":"view","type":"function"},{"inputs":[],"name":"renounceOwnership","outputs":[],"stateMutability":"nonpayable","type":"function"},{"inputs":[],"name":"reward","outputs":[{"internalType":"address","name":"","type":"address"}],"stateMutability":"view","type":"function"},{"inputs":[{"internalType":"address","name":"_reward","type":"address"},{"internalType":"address","name":"_coin","type":"address"},{"internalType":"address","name":"_lp","type":"address"},{"internalType":"address","name":"_deposit","type":"address"},{"internalType":"address","name":"_stake","type":"address"},{"internalType":"address","name":"_intermediator","type":"address"}],"name":"setAddr","outputs":[],"stateMutability":"nonpayable","type":"function"},{"inputs":[{"internalType":"address","name":"_controller","type":"address"}],"name":"setController","outputs":[],"stateMutability":"nonpayable","type":"function"},{"inputs":[{"internalType":"uint256","name":"_feeRate","type":"uint256"}],"name":"setFeeRate","outputs":[],"stateMutability":"nonpayable","type":"function"},{"inputs":[{"internalType":"address","name":"_feeTo","type":"address"}],"name":"setFeeTo","outputs":[],"stateMutability":"nonpayable","type":"function"},{"inputs":[{"internalType":"address","name":"_uni","type":"address"}],"name":"setUniAddr","outputs":[],"stateMutability":"nonpayable","type":"function"},{"inputs":[],"name":"stake","outputs":[{"internalType":"address","name":"","type":"address"}],"stateMutability":"view","type":"function"},{"inputs":[],"name":"symbol","outputs":[{"internalType":"string","name":"","type":"string"}],"stateMutability":"view","type":"function"},{"inputs":[],"name":"totalSupply","outputs":[{"internalType":"uint256","name":"","type":"uint256"}],"stateMutability":"view","type":"function"},{"inputs":[{"internalType":"address","name":"recipient","type":"address"},{"internalType":"uint256","name":"amount","type":"uint256"}],"name":"transfer","outputs":[{"internalType":"bool","name":"","type":"bool"}],"stateMutability":"nonpayable","type":"function"},{"inputs":[{"internalType":"address","name":"sender","type":"address"},{"internalType":"address","name":"recipient","type":"address"},{"internalType":"uint256","name":"amount","type":"uint256"}],"name":"transferFrom","outputs":[{"internalType":"bool","name":"","type":"bool"}],"stateMutability":"nonpayable","type":"function"},{"inputs":[{"internalType":"address","name":"newOwner","type":"address"}],"name":"transferOwnership","outputs":[],"stateMutability":"nonpayable","type":"function"},{"inputs":[],"name":"uniAddr","outputs":[{"internalType":"address","name":"","type":"address"}],"stateMutability":"view","type":"function"},{"inputs":[{"internalType":"uint256","name":"_amount","type":"uint256"},{"internalType":"bool","name":"withoutClaim","type":"bool"}],"name":"withdraw","outputs":[],"stateMutability":"nonpayable","type":"function"}],"bytecode":{"object":"60806040526101f4600b55737a250d5630b4cf539739df2c5dacb4c659f2488d600c60006101000a81548173ffffffffffffffffffffffffffffffffffffffff021916908373ffffffffffffffffffffffffffffffffffffffff1602179055503480156200006c57600080fd5b506040518060400160405280600c81526020017f486172766573742d55534454000000000000000000000000000000000000000081525073dac17f958d2ee523a2206206994597c13d831ec76040518060400160405280601b81526020017f7469636b65742073747562206f662048617276657374205553445400000000008152506040518060400160405280600981526020017f74732d482d55534454000000000000000000000000000000000000000000000081525073c7ee21406bb581e741fbb8b21f213188433d9f2f73ffffffffffffffffffffffffffffffffffffffff1663313ce5676040518163ffffffff1660e01b815260040160206040518083038186803b1580156200017f57600080fd5b505afa15801562000194573d6000803e3d6000fd5b505050506040513d6020811015620001ab57600080fd5b81019080805190602001909291905050508260039080519060200190620001d492919062000820565b508160049080519060200190620001ed92919062000820565b5080600560006101000a81548160ff021916908360ff16021790555050505060006200021e620003f160201b60201c565b905080600560016101000a81548173ffffffffffffffffffffffffffffffffffffffff021916908373ffffffffffffffffffffffffffffffffffffffff1602179055508073ffffffffffffffffffffffffffffffffffffffff16600073ffffffffffffffffffffffffffffffffffffffff167f8be0079c531659141344cd1fd0a4f28419497f9722a3daafe3b4186f6b6457e060405160405180910390a3506001600681905550620002d5620003f160201b60201c565b600960006101000a81548173ffffffffffffffffffffffffffffffffffffffff021916908373ffffffffffffffffffffffffffffffffffffffff16021790555081600790805190602001906200032d92919062000820565b5080600860006101000a81548173ffffffffffffffffffffffffffffffffffffffff021916908373ffffffffffffffffffffffffffffffffffffffff1602179055505050620003eb73a0246c9032bc3a600820415ae600c6388619a14d73dac17f958d2ee523a2206206994597c13d831ec773c7ee21406bb581e741fbb8b21f213188433d9f2f80735bd997039fff16f653ef15d1428f2c791519f58d73a0b86991c6218b36c1d19d4a2e9eb0ce3606eb48620003f960201b60201c565b620008cf565b600033905090565b62000409620003f160201b60201c565b73ffffffffffffffffffffffffffffffffffffffff16600560019054906101000a900473ffffffffffffffffffffffffffffffffffffffff1673ffffffffffffffffffffffffffffffffffffffff1614620004cc576040517f08c379a00000000000000000000000000000000000000000000000000000000081526004018080602001828103825260208152602001807f4f776e61626c653a2063616c6c6572206973206e6f7420746865206f776e657281525060200191505060405180910390fd5b600073ffffffffffffffffffffffffffffffffffffffff168673ffffffffffffffffffffffffffffffffffffffff1614158015620005375750600073ffffffffffffffffffffffffffffffffffffffff168573ffffffffffffffffffffffffffffffffffffffff1614155b8015620005715750600073ffffffffffffffffffffffffffffffffffffffff168473ffffffffffffffffffffffffffffffffffffffff1614155b8015620005ab5750600073ffffffffffffffffffffffffffffffffffffffff168373ffffffffffffffffffffffffffffffffffffffff1614155b8015620005e55750600073ffffffffffffffffffffffffffffffffffffffff168273ffffffffffffffffffffffffffffffffffffffff1614155b80156200061f5750600073ffffffffffffffffffffffffffffffffffffffff168173ffffffffffffffffffffffffffffffffffffffff1614155b62000692576040517f08c379a000000000000000000000000000000000000000000000000000000000815260040180806020018281038252600f8152602001807f696e76616c69642061646472657373000000000000000000000000000000000081525060200191505060405180910390fd5b85600d60006101000a81548173ffffffffffffffffffffffffffffffffffffffff021916908373ffffffffffffffffffffffffffffffffffffffff16021790555084600e60006101000a81548173ffffffffffffffffffffffffffffffffffffffff021916908373ffffffffffffffffffffffffffffffffffffffff16021790555083600f60006101000a81548173ffffffffffffffffffffffffffffffffffffffff021916908373ffffffffffffffffffffffffffffffffffffffff16021790555082601060006101000a81548173ffffffffffffffffffffffffffffffffffffffff021916908373ffffffffffffffffffffffffffffffffffffffff16021790555081601160006101000a81548173ffffffffffffffffffffffffffffffffffffffff021916908373ffffffffffffffffffffffffffffffffffffffff16021790555080601260006101000a81548173ffffffffffffffffffffffffffffffffffffffff021916908373ffffffffffffffffffffffffffffffffffffffff160217905550505050505050565b828054600181600116156101000203166002900490600052602060002090601f016020900481019282601f106200086357805160ff191683800117855562000894565b8280016001018555821562000894579182015b828111156200089357825182559160200191906001019062000876565b5b509050620008a39190620008a7565b5090565b620008cc91905b80821115620008c8576000816000905550600101620008ae565b5090565b90565b614f0580620008df6000396000f3fe608060405234801561001057600080fd5b50600436106101fb5760003560e01c80638da5cb5b1161011a578063a9059cbb116100ad578063dd62ed3e1161007c578063dd62ed3e14610acc578063f2fde38b14610b44578063f3466dfa14610b88578063f46901ed14610c0b578063f77c479114610c4f576101fb565b8063a9059cbb146109a4578063b6b55f2514610a0a578063c44c434414610a38578063d0e30db014610a82576101fb565b806395d89b41116100e957806395d89b41146107b9578063978bbdb91461083c578063a457c2d71461085a578063a870679d146108c0576101fb565b80638da5cb5b1461069d5780638e93888a146106e757806392eefe9b1461073157806393f0cc2214610775576101fb565b8063313ce5671161019257806345596e2e1161016157806345596e2e146105c357806370a08231146105f1578063715018a6146106495780637b158f3814610653576101fb565b8063313ce567146104b557806338d07436146104d957806339509351146105135780633a4b66f114610579576101fb565b806318160ddd116101ce57806318160ddd1461037d578063228cb7331461039b57806323b872dd146103e5578063313c06a01461046b576101fb565b8063017e7e581461020057806306fdde031461024a578063095ea7b3146102cd57806311df999514610333575b600080fd5b610208610c99565b604051808273ffffffffffffffffffffffffffffffffffffffff1673ffffffffffffffffffffffffffffffffffffffff16815260200191505060405180910390f35b610252610cbf565b6040518080602001828103825283818151815260200191508051906020019080838360005b83811015610292578082015181840152602081019050610277565b50505050905090810190601f1680156102bf5780820380516001836020036101000a031916815260200191505b509250505060405180910390f35b610319600480360360408110156102e357600080fd5b81019080803573ffffffffffffffffffffffffffffffffffffffff16906020019092919080359060200190929190505050610d61565b604051808215151515815260200191505060405180910390f35b61033b610d7f565b604051808273ffffffffffffffffffffffffffffffffffffffff1673ffffffffffffffffffffffffffffffffffffffff16815260200191505060405180910390f35b610385610da5565b6040518082815260200191505060405180910390f35b6103a3610daf565b604051808273ffffffffffffffffffffffffffffffffffffffff1673ffffffffffffffffffffffffffffffffffffffff16815260200191505060405180910390f35b610451600480360360608110156103fb57600080fd5b81019080803573ffffffffffffffffffffffffffffffffffffffff169060200190929190803573ffffffffffffffffffffffffffffffffffffffff16906020019092919080359060200190929190505050610dd5565b604051808215151515815260200191505060405180910390f35b610473610eae565b604051808273ffffffffffffffffffffffffffffffffffffffff1673ffffffffffffffffffffffffffffffffffffffff16815260200191505060405180910390f35b6104bd610ed4565b604051808260ff1660ff16815260200191505060405180910390f35b610511600480360360408110156104ef57600080fd5b8101908080359060200190929190803515159060200190929190505050610eeb565b005b61055f6004803603604081101561052957600080fd5b81019080803573ffffffffffffffffffffffffffffffffffffffff169060200190929190803590602001909291905050506115ee565b604051808215151515815260200191505060405180910390f35b6105816116a1565b604051808273ffffffffffffffffffffffffffffffffffffffff1673ffffffffffffffffffffffffffffffffffffffff16815260200191505060405180910390f35b6105ef600480360360208110156105d957600080fd5b81019080803590602001909291905050506116c7565b005b6106336004803603602081101561060757600080fd5b81019080803573ffffffffffffffffffffffffffffffffffffffff169060200190929190505050611820565b6040518082815260200191505060405180910390f35b610651611868565b005b61065b6119f3565b604051808273ffffffffffffffffffffffffffffffffffffffff1673ffffffffffffffffffffffffffffffffffffffff16815260200191505060405180910390f35b6106a5611a19565b604051808273ffffffffffffffffffffffffffffffffffffffff1673ffffffffffffffffffffffffffffffffffffffff16815260200191505060405180910390f35b6106ef611a43565b604051808273ffffffffffffffffffffffffffffffffffffffff1673ffffffffffffffffffffffffffffffffffffffff16815260200191505060405180910390f35b6107736004803603602081101561074757600080fd5b81019080803573ffffffffffffffffffffffffffffffffffffffff169060200190929190505050611a69565b005b6107b76004803603602081101561078b57600080fd5b81019080803573ffffffffffffffffffffffffffffffffffffffff169060200190929190505050611c1a565b005b6107c1611d28565b6040518080602001828103825283818151815260200191508051906020019080838360005b838110156108015780820151818401526020810190506107e6565b50505050905090810190601f16801561082e5780820380516001836020036101000a031916815260200191505b509250505060405180910390f35b610844611dca565b6040518082815260200191505060405180910390f35b6108a66004803603604081101561087057600080fd5b81019080803573ffffffffffffffffffffffffffffffffffffffff16906020019092919080359060200190929190505050611dd0565b604051808215151515815260200191505060405180910390f35b6109a2600480360360c08110156108d657600080fd5b81019080803573ffffffffffffffffffffffffffffffffffffffff169060200190929190803573ffffffffffffffffffffffffffffffffffffffff169060200190929190803573ffffffffffffffffffffffffffffffffffffffff169060200190929190803573ffffffffffffffffffffffffffffffffffffffff169060200190929190803573ffffffffffffffffffffffffffffffffffffffff169060200190929190803573ffffffffffffffffffffffffffffffffffffffff169060200190929190505050611e9d565b005b6109f0600480360360408110156109ba57600080fd5b81019080803573ffffffffffffffffffffffffffffffffffffffff169060200190929190803590602001909291905050506122b5565b604051808215151515815260200191505060405180910390f35b610a3660048036036020811015610a2057600080fd5b81019080803590602001909291905050506122d3565b005b610a40612845565b604051808273ffffffffffffffffffffffffffffffffffffffff1673ffffffffffffffffffffffffffffffffffffffff16815260200191505060405180910390f35b610a8a61286b565b604051808273ffffffffffffffffffffffffffffffffffffffff1673ffffffffffffffffffffffffffffffffffffffff16815260200191505060405180910390f35b610b2e60048036036040811015610ae257600080fd5b81019080803573ffffffffffffffffffffffffffffffffffffffff169060200190929190803573ffffffffffffffffffffffffffffffffffffffff169060200190929190505050612891565b6040518082815260200191505060405180910390f35b610b8660048036036020811015610b5a57600080fd5b81019080803573ffffffffffffffffffffffffffffffffffffffff169060200190929190505050612918565b005b610b90612b28565b6040518080602001828103825283818151815260200191508051906020019080838360005b83811015610bd0578082015181840152602081019050610bb5565b50505050905090810190601f168015610bfd5780820380516001836020036101000a031916815260200191505b509250505060405180910390f35b610c4d60048036036020811015610c2157600080fd5b81019080803573ffffffffffffffffffffffffffffffffffffffff169060200190929190505050612bc6565b005b610c57612d77565b604051808273ffffffffffffffffffffffffffffffffffffffff1673ffffffffffffffffffffffffffffffffffffffff16815260200191505060405180910390f35b600960009054906101000a900473ffffffffffffffffffffffffffffffffffffffff1681565b606060038054600181600116156101000203166002900480601f016020809104026020016040519081016040528092919081815260200182805460018160011615610100020316600290048015610d575780601f10610d2c57610100808354040283529160200191610d57565b820191906000526020600020905b815481529060010190602001808311610d3a57829003601f168201915b5050505050905090565b6000610d75610d6e612d9d565b8484612da5565b6001905092915050565b600e60009054906101000a900473ffffffffffffffffffffffffffffffffffffffff1681565b6000600254905090565b600d60009054906101000a900473ffffffffffffffffffffffffffffffffffffffff1681565b6000610de2848484612f9c565b610ea384610dee612d9d565b610e9e85604051806060016040528060288152602001614db960289139600160008b73ffffffffffffffffffffffffffffffffffffffff1673ffffffffffffffffffffffffffffffffffffffff1681526020019081526020016000206000610e54612d9d565b73ffffffffffffffffffffffffffffffffffffffff1673ffffffffffffffffffffffffffffffffffffffff1681526020019081526020016000205461325d9092919063ffffffff16565b612da5565b600190509392505050565b600f60009054906101000a900473ffffffffffffffffffffffffffffffffffffffff1681565b6000600560009054906101000a900460ff16905090565b60026006541415610f64576040517f08c379a000000000000000000000000000000000000000000000000000000000815260040180806020018281038252601f8152602001807f5265656e7472616e637947756172643a207265656e7472616e742063616c6c0081525060200191505060405180910390fd5b6002600681905550600082118015610f8b575081610f88610f83612d9d565b611820565b10155b610fe0576040517f08c379a0000000000000000000000000000000000000000000000000000000008152600401808060200182810382526027815260200180614d4b6027913960400191505060405180910390fd5b806112ec576000600860009054906101000a900473ffffffffffffffffffffffffffffffffffffffff1673ffffffffffffffffffffffffffffffffffffffff166370a08231306040518263ffffffff1660e01b8152600401808273ffffffffffffffffffffffffffffffffffffffff1673ffffffffffffffffffffffffffffffffffffffff16815260200191505060206040518083038186803b15801561108657600080fd5b505afa15801561109a573d6000803e3d6000fd5b505050506040513d60208110156110b057600080fd5b810190808051906020019092919050505090506110cb61331d565b5060006111ba82600860009054906101000a900473ffffffffffffffffffffffffffffffffffffffff1673ffffffffffffffffffffffffffffffffffffffff166370a08231306040518263ffffffff1660e01b8152600401808273ffffffffffffffffffffffffffffffffffffffff1673ffffffffffffffffffffffffffffffffffffffff16815260200191505060206040518083038186803b15801561117157600080fd5b505afa158015611185573d6000803e3d6000fd5b505050506040513d602081101561119b57600080fd5b810190808051906020019092919050505061362a90919063ffffffff16565b905060008111156112e95760006111f06127106111e2600b548561367490919063ffffffff16565b6136fa90919063ffffffff16565b9050600a60009054906101000a900473ffffffffffffffffffffffffffffffffffffffff1673ffffffffffffffffffffffffffffffffffffffff16611233612d9d565b73ffffffffffffffffffffffffffffffffffffffff16146112be576112bd600960009054906101000a900473ffffffffffffffffffffffffffffffffffffffff1682600860009054906101000a900473ffffffffffffffffffffffffffffffffffffffff1673ffffffffffffffffffffffffffffffffffffffff166137449092919063ffffffff16565b5b60006112db6112d6838561362a90919063ffffffff16565b6137fc565b90506112e681613a0d565b50505b50505b60006112f6613b3e565b90506000611326611305610da5565b611318868561367490919063ffffffff16565b6136fa90919063ffffffff16565b90506000600860009054906101000a900473ffffffffffffffffffffffffffffffffffffffff1673ffffffffffffffffffffffffffffffffffffffff166370a08231306040518263ffffffff1660e01b8152600401808273ffffffffffffffffffffffffffffffffffffffff1673ffffffffffffffffffffffffffffffffffffffff16815260200191505060206040518083038186803b1580156113c957600080fd5b505afa1580156113dd573d6000803e3d6000fd5b505050506040513d60208110156113f357600080fd5b81019080805190602001909291905050509050600061141183613c1f565b905061141c81613d8f565b600061150a83600860009054906101000a900473ffffffffffffffffffffffffffffffffffffffff1673ffffffffffffffffffffffffffffffffffffffff166370a08231306040518263ffffffff1660e01b8152600401808273ffffffffffffffffffffffffffffffffffffffff1673ffffffffffffffffffffffffffffffffffffffff16815260200191505060206040518083038186803b1580156114c157600080fd5b505afa1580156114d5573d6000803e3d6000fd5b505050506040513d60208110156114eb57600080fd5b810190808051906020019092919050505061362a90919063ffffffff16565b905061151d611517612d9d565b88613ec0565b611571611528612d9d565b82600860009054906101000a900473ffffffffffffffffffffffffffffffffffffffff1673ffffffffffffffffffffffffffffffffffffffff166137449092919063ffffffff16565b80877f71ef96c43343734b1d843bb85d52ef329f5e9143e4d35827771e3b0dd90c5f8461159c612d9d565b604051808273ffffffffffffffffffffffffffffffffffffffff1673ffffffffffffffffffffffffffffffffffffffff16815260200191505060405180910390a3505050505060016006819055505050565b60006116976115fb612d9d565b84611692856001600061160c612d9d565b73ffffffffffffffffffffffffffffffffffffffff1673ffffffffffffffffffffffffffffffffffffffff16815260200190815260200160002060008973ffffffffffffffffffffffffffffffffffffffff1673ffffffffffffffffffffffffffffffffffffffff1681526020019081526020016000205461408490919063ffffffff16565b612da5565b6001905092915050565b601160009054906101000a900473ffffffffffffffffffffffffffffffffffffffff1681565b6116cf612d9d565b73ffffffffffffffffffffffffffffffffffffffff16600560019054906101000a900473ffffffffffffffffffffffffffffffffffffffff1673ffffffffffffffffffffffffffffffffffffffff1614611791576040517f08c379a00000000000000000000000000000000000000000000000000000000081526004018080602001828103825260208152602001807f4f776e61626c653a2063616c6c6572206973206e6f7420746865206f776e657281525060200191505060405180910390fd5b600081101580156117a457506103e88111155b611816576040517f08c379a000000000000000000000000000000000000000000000000000000000815260040180806020018281038252600f8152602001807f696e76616c69642066656552617465000000000000000000000000000000000081525060200191505060405180910390fd5b80600b8190555050565b60008060008373ffffffffffffffffffffffffffffffffffffffff1673ffffffffffffffffffffffffffffffffffffffff168152602001908152602001600020549050919050565b611870612d9d565b73ffffffffffffffffffffffffffffffffffffffff16600560019054906101000a900473ffffffffffffffffffffffffffffffffffffffff1673ffffffffffffffffffffffffffffffffffffffff1614611932576040517f08c379a00000000000000000000000000000000000000000000000000000000081526004018080602001828103825260208152602001807f4f776e61626c653a2063616c6c6572206973206e6f7420746865206f776e657281525060200191505060405180910390fd5b600073ffffffffffffffffffffffffffffffffffffffff16600560019054906101000a900473ffffffffffffffffffffffffffffffffffffffff1673ffffffffffffffffffffffffffffffffffffffff167f8be0079c531659141344cd1fd0a4f28419497f9722a3daafe3b4186f6b6457e060405160405180910390a36000600560016101000a81548173ffffffffffffffffffffffffffffffffffffffff021916908373ffffffffffffffffffffffffffffffffffffffff160217905550565b600c60009054906101000a900473ffffffffffffffffffffffffffffffffffffffff1681565b6000600560019054906101000a900473ffffffffffffffffffffffffffffffffffffffff16905090565b601260009054906101000a900473ffffffffffffffffffffffffffffffffffffffff1681565b611a71612d9d565b73ffffffffffffffffffffffffffffffffffffffff16600560019054906101000a900473ffffffffffffffffffffffffffffffffffffffff1673ffffffffffffffffffffffffffffffffffffffff1614611b33576040517f08c379a00000000000000000000000000000000000000000000000000000000081526004018080602001828103825260208152602001807f4f776e61626c653a2063616c6c6572206973206e6f7420746865206f776e657281525060200191505060405180910390fd5b600073ffffffffffffffffffffffffffffffffffffffff168173ffffffffffffffffffffffffffffffffffffffff161415611bd6576040517f08c379a000000000000000000000000000000000000000000000000000000000815260040180806020018281038252601a8152602001807f696e76616c696420636f6e74726f6c6c6572206164647265737300000000000081525060200191505060405180910390fd5b80600a60006101000a81548173ffffffffffffffffffffffffffffffffffffffff021916908373ffffffffffffffffffffffffffffffffffffffff16021790555050565b611c22612d9d565b73ffffffffffffffffffffffffffffffffffffffff16600560019054906101000a900473ffffffffffffffffffffffffffffffffffffffff1673ffffffffffffffffffffffffffffffffffffffff1614611ce4576040517f08c379a00000000000000000000000000000000000000000000000000000000081526004018080602001828103825260208152602001807f4f776e61626c653a2063616c6c6572206973206e6f7420746865206f776e657281525060200191505060405180910390fd5b80600c60006101000a81548173ffffffffffffffffffffffffffffffffffffffff021916908373ffffffffffffffffffffffffffffffffffffffff16021790555050565b606060048054600181600116156101000203166002900480601f016020809104026020016040519081016040528092919081815260200182805460018160011615610100020316600290048015611dc05780601f10611d9557610100808354040283529160200191611dc0565b820191906000526020600020905b815481529060010190602001808311611da357829003601f168201915b5050505050905090565b600b5481565b6000611e93611ddd612d9d565b84611e8e85604051806060016040528060258152602001614eab6025913960016000611e07612d9d565b73ffffffffffffffffffffffffffffffffffffffff1673ffffffffffffffffffffffffffffffffffffffff16815260200190815260200160002060008a73ffffffffffffffffffffffffffffffffffffffff1673ffffffffffffffffffffffffffffffffffffffff1681526020019081526020016000205461325d9092919063ffffffff16565b612da5565b6001905092915050565b611ea5612d9d565b73ffffffffffffffffffffffffffffffffffffffff16600560019054906101000a900473ffffffffffffffffffffffffffffffffffffffff1673ffffffffffffffffffffffffffffffffffffffff1614611f67576040517f08c379a00000000000000000000000000000000000000000000000000000000081526004018080602001828103825260208152602001807f4f776e61626c653a2063616c6c6572206973206e6f7420746865206f776e657281525060200191505060405180910390fd5b600073ffffffffffffffffffffffffffffffffffffffff168673ffffffffffffffffffffffffffffffffffffffff1614158015611fd15750600073ffffffffffffffffffffffffffffffffffffffff168573ffffffffffffffffffffffffffffffffffffffff1614155b801561200a5750600073ffffffffffffffffffffffffffffffffffffffff168473ffffffffffffffffffffffffffffffffffffffff1614155b80156120435750600073ffffffffffffffffffffffffffffffffffffffff168373ffffffffffffffffffffffffffffffffffffffff1614155b801561207c5750600073ffffffffffffffffffffffffffffffffffffffff168273ffffffffffffffffffffffffffffffffffffffff1614155b80156120b55750600073ffffffffffffffffffffffffffffffffffffffff168173ffffffffffffffffffffffffffffffffffffffff1614155b612127576040517f08c379a000000000000000000000000000000000000000000000000000000000815260040180806020018281038252600f8152602001807f696e76616c69642061646472657373000000000000000000000000000000000081525060200191505060405180910390fd5b85600d60006101000a81548173ffffffffffffffffffffffffffffffffffffffff021916908373ffffffffffffffffffffffffffffffffffffffff16021790555084600e60006101000a81548173ffffffffffffffffffffffffffffffffffffffff021916908373ffffffffffffffffffffffffffffffffffffffff16021790555083600f60006101000a81548173ffffffffffffffffffffffffffffffffffffffff021916908373ffffffffffffffffffffffffffffffffffffffff16021790555082601060006101000a81548173ffffffffffffffffffffffffffffffffffffffff021916908373ffffffffffffffffffffffffffffffffffffffff16021790555081601160006101000a81548173ffffffffffffffffffffffffffffffffffffffff021916908373ffffffffffffffffffffffffffffffffffffffff16021790555080601260006101000a81548173ffffffffffffffffffffffffffffffffffffffff021916908373ffffffffffffffffffffffffffffffffffffffff160217905550505050505050565b60006122c96122c2612d9d565b8484612f9c565b6001905092915050565b6002600654141561234c576040517f08c379a000000000000000000000000000000000000000000000000000000000815260040180806020018281038252601f8152602001807f5265656e7472616e637947756172643a207265656e7472616e742063616c6c0081525060200191505060405180910390fd5b6002600681905550600081116123ca576040517f08c379a000000000000000000000000000000000000000000000000000000000815260040180806020018281038252600e8152602001807f696e76616c696420616d6f756e7400000000000000000000000000000000000081525060200191505060405180910390fd5b6124206123d5612d9d565b3083600860009054906101000a900473ffffffffffffffffffffffffffffffffffffffff1673ffffffffffffffffffffffffffffffffffffffff1661410c909392919063ffffffff16565b600080600860009054906101000a900473ffffffffffffffffffffffffffffffffffffffff1673ffffffffffffffffffffffffffffffffffffffff166370a08231306040518263ffffffff1660e01b8152600401808273ffffffffffffffffffffffffffffffffffffffff1673ffffffffffffffffffffffffffffffffffffffff16815260200191505060206040518083038186803b1580156124c257600080fd5b505afa1580156124d6573d6000803e3d6000fd5b505050506040513d60208110156124ec57600080fd5b8101908080519060200190929190505050905061250761331d565b9150600a60009054906101000a900473ffffffffffffffffffffffffffffffffffffffff1673ffffffffffffffffffffffffffffffffffffffff1661254a612d9d565b73ffffffffffffffffffffffffffffffffffffffff16146126ee576000600860009054906101000a900473ffffffffffffffffffffffffffffffffffffffff1673ffffffffffffffffffffffffffffffffffffffff166370a08231306040518263ffffffff1660e01b8152600401808273ffffffffffffffffffffffffffffffffffffffff1673ffffffffffffffffffffffffffffffffffffffff16815260200191505060206040518083038186803b15801561260657600080fd5b505afa15801561261a573d6000803e3d6000fd5b505050506040513d602081101561263057600080fd5b810190808051906020019092919050505090506126ec600960009054906101000a900473ffffffffffffffffffffffffffffffffffffffff166126a4612710612696600b54612688888861362a90919063ffffffff16565b61367490919063ffffffff16565b6136fa90919063ffffffff16565b600860009054906101000a900473ffffffffffffffffffffffffffffffffffffffff1673ffffffffffffffffffffffffffffffffffffffff166137449092919063ffffffff16565b505b600061270b612706848661408490919063ffffffff16565b6137fc565b905061271681613a0d565b600061274f61272e858761408490919063ffffffff16565b612741878561367490919063ffffffff16565b6136fa90919063ffffffff16565b905060008061275c610da5565b141561276a578190506127b8565b6000612774613b3e565b90506127b461278c848361362a90919063ffffffff16565b6127a6612797610da5565b8661367490919063ffffffff16565b6136fa90919063ffffffff16565b9150505b6127c96127c3612d9d565b826141f9565b80867fd68606c673aecac7ce24ec44fd7d77b401356dfd76fe9b36cb58e579c4220aed6127f4612d9d565b604051808273ffffffffffffffffffffffffffffffffffffffff1673ffffffffffffffffffffffffffffffffffffffff16815260200191505060405180910390a35050505050600160068190555050565b600860009054906101000a900473ffffffffffffffffffffffffffffffffffffffff1681565b601060009054906101000a900473ffffffffffffffffffffffffffffffffffffffff1681565b6000600160008473ffffffffffffffffffffffffffffffffffffffff1673ffffffffffffffffffffffffffffffffffffffff16815260200190815260200160002060008373ffffffffffffffffffffffffffffffffffffffff1673ffffffffffffffffffffffffffffffffffffffff16815260200190815260200160002054905092915050565b612920612d9d565b73ffffffffffffffffffffffffffffffffffffffff16600560019054906101000a900473ffffffffffffffffffffffffffffffffffffffff1673ffffffffffffffffffffffffffffffffffffffff16146129e2576040517f08c379a00000000000000000000000000000000000000000000000000000000081526004018080602001828103825260208152602001807f4f776e61626c653a2063616c6c6572206973206e6f7420746865206f776e657281525060200191505060405180910390fd5b600073ffffffffffffffffffffffffffffffffffffffff168173ffffffffffffffffffffffffffffffffffffffff161415612a68576040517f08c379a0000000000000000000000000000000000000000000000000000000008152600401808060200182810382526026815260200180614d036026913960400191505060405180910390fd5b8073ffffffffffffffffffffffffffffffffffffffff16600560019054906101000a900473ffffffffffffffffffffffffffffffffffffffff1673ffffffffffffffffffffffffffffffffffffffff167f8be0079c531659141344cd1fd0a4f28419497f9722a3daafe3b4186f6b6457e060405160405180910390a380600560016101000a81548173ffffffffffffffffffffffffffffffffffffffff021916908373ffffffffffffffffffffffffffffffffffffffff16021790555050565b60078054600181600116156101000203166002900480601f016020809104026020016040519081016040528092919081815260200182805460018160011615610100020316600290048015612bbe5780601f10612b9357610100808354040283529160200191612bbe565b820191906000526020600020905b815481529060010190602001808311612ba157829003601f168201915b505050505081565b612bce612d9d565b73ffffffffffffffffffffffffffffffffffffffff16600560019054906101000a900473ffffffffffffffffffffffffffffffffffffffff1673ffffffffffffffffffffffffffffffffffffffff1614612c90576040517f08c379a00000000000000000000000000000000000000000000000000000000081526004018080602001828103825260208152602001807f4f776e61626c653a2063616c6c6572206973206e6f7420746865206f776e657281525060200191505060405180910390fd5b600073ffffffffffffffffffffffffffffffffffffffff168173ffffffffffffffffffffffffffffffffffffffff161415612d33576040517f08c379a00000000000000000000000000000000000000000000000000000000081526004018080602001828103825260158152602001807f696e76616c696420666565546f2061646472657373000000000000000000000081525060200191505060405180910390fd5b80600960006101000a81548173ffffffffffffffffffffffffffffffffffffffff021916908373ffffffffffffffffffffffffffffffffffffffff16021790555050565b600a60009054906101000a900473ffffffffffffffffffffffffffffffffffffffff1681565b600033905090565b600073ffffffffffffffffffffffffffffffffffffffff168373ffffffffffffffffffffffffffffffffffffffff161415612e2b576040517f08c379a0000000000000000000000000000000000000000000000000000000008152600401808060200182810382526024815260200180614e276024913960400191505060405180910390fd5b600073ffffffffffffffffffffffffffffffffffffffff168273ffffffffffffffffffffffffffffffffffffffff161415612eb1576040517f08c379a0000000000000000000000000000000000000000000000000000000008152600401808060200182810382526022815260200180614d296022913960400191505060405180910390fd5b80600160008573ffffffffffffffffffffffffffffffffffffffff1673ffffffffffffffffffffffffffffffffffffffff16815260200190815260200160002060008473ffffffffffffffffffffffffffffffffffffffff1673ffffffffffffffffffffffffffffffffffffffff168152602001908152602001600020819055508173ffffffffffffffffffffffffffffffffffffffff168373ffffffffffffffffffffffffffffffffffffffff167f8c5be1e5ebec7d5bd14f71427d1e84f3dd0314c0f7b2291e5b200ac8c7c3b925836040518082815260200191505060405180910390a3505050565b600073ffffffffffffffffffffffffffffffffffffffff168373ffffffffffffffffffffffffffffffffffffffff161415613022576040517f08c379a0000000000000000000000000000000000000000000000000000000008152600401808060200182810382526025815260200180614e026025913960400191505060405180910390fd5b600073ffffffffffffffffffffffffffffffffffffffff168273ffffffffffffffffffffffffffffffffffffffff1614156130a8576040517f08c379a0000000000000000000000000000000000000000000000000000000008152600401808060200182810382526023815260200180614cbe6023913960400191505060405180910390fd5b6130b38383836143c0565b61311e81604051806060016040528060268152602001614d72602691396000808773ffffffffffffffffffffffffffffffffffffffff1673ffffffffffffffffffffffffffffffffffffffff1681526020019081526020016000205461325d9092919063ffffffff16565b6000808573ffffffffffffffffffffffffffffffffffffffff1673ffffffffffffffffffffffffffffffffffffffff168152602001908152602001600020819055506131b1816000808573ffffffffffffffffffffffffffffffffffffffff1673ffffffffffffffffffffffffffffffffffffffff1681526020019081526020016000205461408490919063ffffffff16565b6000808473ffffffffffffffffffffffffffffffffffffffff1673ffffffffffffffffffffffffffffffffffffffff168152602001908152602001600020819055508173ffffffffffffffffffffffffffffffffffffffff168373ffffffffffffffffffffffffffffffffffffffff167fddf252ad1be2c89b69c2b068fc378daa952ba7f163c4a11628f55a4df523b3ef836040518082815260200191505060405180910390a3505050565b600083831115829061330a576040517f08c379a00000000000000000000000000000000000000000000000000000000081526004018080602001828103825283818151815260200191508051906020019080838360005b838110156132cf5780820151818401526020810190506132b4565b50505050905090810190601f1680156132fc5780820380516001836020036101000a031916815260200191505b509250505060405180910390fd5b5060008385039050809150509392505050565b6000601160009054906101000a900473ffffffffffffffffffffffffffffffffffffffff1673ffffffffffffffffffffffffffffffffffffffff16633d18b9126040518163ffffffff1660e01b8152600401600060405180830381600087803b15801561338957600080fd5b505af115801561339d573d6000803e3d6000fd5b505050506000600d60009054906101000a900473ffffffffffffffffffffffffffffffffffffffff1673ffffffffffffffffffffffffffffffffffffffff166370a08231306040518263ffffffff1660e01b8152600401808273ffffffffffffffffffffffffffffffffffffffff1673ffffffffffffffffffffffffffffffffffffffff16815260200191505060206040518083038186803b15801561344257600080fd5b505afa158015613456573d6000803e3d6000fd5b505050506040513d602081101561346c57600080fd5b810190808051906020019092919050505090506000811115613625576060600367ffffffffffffffff811180156134a257600080fd5b506040519080825280602002602001820160405280156134d15781602001602082028036833780820191505090505b509050600d60009054906101000a900473ffffffffffffffffffffffffffffffffffffffff168160008151811061350457fe5b602002602001019073ffffffffffffffffffffffffffffffffffffffff16908173ffffffffffffffffffffffffffffffffffffffff1681525050601260009054906101000a900473ffffffffffffffffffffffffffffffffffffffff168160018151811061356e57fe5b602002602001019073ffffffffffffffffffffffffffffffffffffffff16908173ffffffffffffffffffffffffffffffffffffffff1681525050600e60009054906101000a900473ffffffffffffffffffffffffffffffffffffffff16816002815181106135d857fe5b602002602001019073ffffffffffffffffffffffffffffffffffffffff16908173ffffffffffffffffffffffffffffffffffffffff168152505061361c81836143c5565b92505050613627565b505b90565b600061366c83836040518060400160405280601e81526020017f536166654d6174683a207375627472616374696f6e206f766572666c6f77000081525061325d565b905092915050565b60008083141561368757600090506136f4565b600082840290508284828161369857fe5b04146136ef576040517f08c379a0000000000000000000000000000000000000000000000000000000008152600401808060200182810382526021815260200180614d986021913960400191505060405180910390fd5b809150505b92915050565b600061373c83836040518060400160405280601a81526020017f536166654d6174683a206469766973696f6e206279207a65726f000000000000815250614698565b905092915050565b6137f78363a9059cbb60e01b8484604051602401808373ffffffffffffffffffffffffffffffffffffffff1673ffffffffffffffffffffffffffffffffffffffff16815260200182815260200192505050604051602081830303815290604052907bffffffffffffffffffffffffffffffffffffffffffffffffffffffff19166020820180517bffffffffffffffffffffffffffffffffffffffffffffffffffffffff838183161783525050505061475e565b505050565b6000600e60009054906101000a900473ffffffffffffffffffffffffffffffffffffffff16601060009054906101000a900473ffffffffffffffffffffffffffffffffffffffff16836138718260008573ffffffffffffffffffffffffffffffffffffffff1661484d9092919063ffffffff16565b61389c82828573ffffffffffffffffffffffffffffffffffffffff1661484d9092919063ffffffff16565b601060009054906101000a900473ffffffffffffffffffffffffffffffffffffffff1673ffffffffffffffffffffffffffffffffffffffff1663b6b55f25866040518263ffffffff1660e01b815260040180828152602001915050600060405180830381600087803b15801561391157600080fd5b505af1158015613925573d6000803e3d6000fd5b50505050600f60009054906101000a900473ffffffffffffffffffffffffffffffffffffffff1673ffffffffffffffffffffffffffffffffffffffff166370a08231306040518263ffffffff1660e01b8152600401808273ffffffffffffffffffffffffffffffffffffffff1673ffffffffffffffffffffffffffffffffffffffff16815260200191505060206040518083038186803b1580156139c857600080fd5b505afa1580156139dc573d6000803e3d6000fd5b505050506040513d60208110156139f257600080fd5b81019080805190602001909291905050509350505050919050565b600f60009054906101000a900473ffffffffffffffffffffffffffffffffffffffff16601160009054906101000a900473ffffffffffffffffffffffffffffffffffffffff1682613a808260008573ffffffffffffffffffffffffffffffffffffffff1661484d9092919063ffffffff16565b613aab82828573ffffffffffffffffffffffffffffffffffffffff1661484d9092919063ffffffff16565b601160009054906101000a900473ffffffffffffffffffffffffffffffffffffffff1673ffffffffffffffffffffffffffffffffffffffff1663a694fc3a856040518263ffffffff1660e01b815260040180828152602001915050600060405180830381600087803b158015613b2057600080fd5b505af1158015613b34573d6000803e3d6000fd5b5050505050505050565b6000601160009054906101000a900473ffffffffffffffffffffffffffffffffffffffff1673ffffffffffffffffffffffffffffffffffffffff166370a08231306040518263ffffffff1660e01b8152600401808273ffffffffffffffffffffffffffffffffffffffff1673ffffffffffffffffffffffffffffffffffffffff16815260200191505060206040518083038186803b158015613bdf57600080fd5b505afa158015613bf3573d6000803e3d6000fd5b505050506040513d6020811015613c0957600080fd5b8101908080519060200190929190505050905090565b6000601160009054906101000a900473ffffffffffffffffffffffffffffffffffffffff1673ffffffffffffffffffffffffffffffffffffffff16632e1a7d4d836040518263ffffffff1660e01b815260040180828152602001915050600060405180830381600087803b158015613c9657600080fd5b505af1158015613caa573d6000803e3d6000fd5b50505050600f60009054906101000a900473ffffffffffffffffffffffffffffffffffffffff1673ffffffffffffffffffffffffffffffffffffffff166370a08231306040518263ffffffff1660e01b8152600401808273ffffffffffffffffffffffffffffffffffffffff1673ffffffffffffffffffffffffffffffffffffffff16815260200191505060206040518083038186803b158015613d4d57600080fd5b505afa158015613d61573d6000803e3d6000fd5b505050506040513d6020811015613d7757600080fd5b81019080805190602001909291905050509050919050565b600f60009054906101000a900473ffffffffffffffffffffffffffffffffffffffff16601060009054906101000a900473ffffffffffffffffffffffffffffffffffffffff1682613e028260008573ffffffffffffffffffffffffffffffffffffffff1661484d9092919063ffffffff16565b613e2d82828573ffffffffffffffffffffffffffffffffffffffff1661484d9092919063ffffffff16565b601060009054906101000a900473ffffffffffffffffffffffffffffffffffffffff1673ffffffffffffffffffffffffffffffffffffffff16632e1a7d4d856040518263ffffffff1660e01b815260040180828152602001915050600060405180830381600087803b158015613ea257600080fd5b505af1158015613eb6573d6000803e3d6000fd5b5050505050505050565b600073ffffffffffffffffffffffffffffffffffffffff168273ffffffffffffffffffffffffffffffffffffffff161415613f46576040517f08c379a0000000000000000000000000000000000000000000000000000000008152600401808060200182810382526021815260200180614de16021913960400191505060405180910390fd5b613f52826000836143c0565b613fbd81604051806060016040528060228152602001614ce1602291396000808673ffffffffffffffffffffffffffffffffffffffff1673ffffffffffffffffffffffffffffffffffffffff1681526020019081526020016000205461325d9092919063ffffffff16565b6000808473ffffffffffffffffffffffffffffffffffffffff1673ffffffffffffffffffffffffffffffffffffffff168152602001908152602001600020819055506140148160025461362a90919063ffffffff16565b600281905550600073ffffffffffffffffffffffffffffffffffffffff168273ffffffffffffffffffffffffffffffffffffffff167fddf252ad1be2c89b69c2b068fc378daa952ba7f163c4a11628f55a4df523b3ef836040518082815260200191505060405180910390a35050565b600080828401905083811015614102576040517f08c379a000000000000000000000000000000000000000000000000000000000815260040180806020018281038252601b8152602001807f536166654d6174683a206164646974696f6e206f766572666c6f77000000000081525060200191505060405180910390fd5b8091505092915050565b6141f3846323b872dd60e01b858585604051602401808473ffffffffffffffffffffffffffffffffffffffff1673ffffffffffffffffffffffffffffffffffffffff1681526020018373ffffffffffffffffffffffffffffffffffffffff1673ffffffffffffffffffffffffffffffffffffffff1681526020018281526020019350505050604051602081830303815290604052907bffffffffffffffffffffffffffffffffffffffffffffffffffffffff19166020820180517bffffffffffffffffffffffffffffffffffffffffffffffffffffffff838183161783525050505061475e565b50505050565b600073ffffffffffffffffffffffffffffffffffffffff168273ffffffffffffffffffffffffffffffffffffffff16141561429c576040517f08c379a000000000000000000000000000000000000000000000000000000000815260040180806020018281038252601f8152602001807f45524332303a206d696e7420746f20746865207a65726f20616464726573730081525060200191505060405180910390fd5b6142a8600083836143c0565b6142bd8160025461408490919063ffffffff16565b600281905550614314816000808573ffffffffffffffffffffffffffffffffffffffff1673ffffffffffffffffffffffffffffffffffffffff1681526020019081526020016000205461408490919063ffffffff16565b6000808473ffffffffffffffffffffffffffffffffffffffff1673ffffffffffffffffffffffffffffffffffffffff168152602001908152602001600020819055508173ffffffffffffffffffffffffffffffffffffffff16600073ffffffffffffffffffffffffffffffffffffffff167fddf252ad1be2c89b69c2b068fc378daa952ba7f163c4a11628f55a4df523b3ef836040518082815260200191505060405180910390a35050565b505050565b6000614429600c60009054906101000a900473ffffffffffffffffffffffffffffffffffffffff166000856000815181106143fc57fe5b602002602001015173ffffffffffffffffffffffffffffffffffffffff1661484d9092919063ffffffff16565b61448a600c60009054906101000a900473ffffffffffffffffffffffffffffffffffffffff16838560008151811061445d57fe5b602002602001015173ffffffffffffffffffffffffffffffffffffffff1661484d9092919063ffffffff16565b6060600c60009054906101000a900473ffffffffffffffffffffffffffffffffffffffff1673ffffffffffffffffffffffffffffffffffffffff166338ed173984600087306144e46102584261408490919063ffffffff16565b6040518663ffffffff1660e01b815260040180868152602001858152602001806020018473ffffffffffffffffffffffffffffffffffffffff1673ffffffffffffffffffffffffffffffffffffffff168152602001838152602001828103825285818151815260200191508051906020019060200280838360005b8381101561457a57808201518184015260208101905061455f565b505050509050019650505050505050600060405180830381600087803b1580156145a357600080fd5b505af11580156145b7573d6000803e3d6000fd5b505050506040513d6000823e3d601f19601f8201168201806040525060208110156145e157600080fd5b810190808051604051939291908464010000000082111561460157600080fd5b8382019150602082018581111561461757600080fd5b825186602082028301116401000000008211171561463457600080fd5b8083526020830192505050908051906020019060200280838360005b8381101561466b578082015181840152602081019050614650565b5050505090500160405250505090508060028151811061468757fe5b602002602001015191505092915050565b60008083118290614744576040517f08c379a00000000000000000000000000000000000000000000000000000000081526004018080602001828103825283818151815260200191508051906020019080838360005b838110156147095780820151818401526020810190506146ee565b50505050905090810190601f1680156147365780820380516001836020036101000a031916815260200191505b509250505060405180910390fd5b50600083858161475057fe5b049050809150509392505050565b60606147c0826040518060400160405280602081526020017f5361666545524332303a206c6f772d6c6576656c2063616c6c206661696c65648152508573ffffffffffffffffffffffffffffffffffffffff16614a549092919063ffffffff16565b9050600081511115614848578080602001905160208110156147e157600080fd5b8101908080519060200190929190505050614847576040517f08c379a000000000000000000000000000000000000000000000000000000000815260040180806020018281038252602a815260200180614e4b602a913960400191505060405180910390fd5b5b505050565b6000811480614947575060008373ffffffffffffffffffffffffffffffffffffffff1663dd62ed3e30856040518363ffffffff1660e01b8152600401808373ffffffffffffffffffffffffffffffffffffffff1673ffffffffffffffffffffffffffffffffffffffff1681526020018273ffffffffffffffffffffffffffffffffffffffff1673ffffffffffffffffffffffffffffffffffffffff1681526020019250505060206040518083038186803b15801561490a57600080fd5b505afa15801561491e573d6000803e3d6000fd5b505050506040513d602081101561493457600080fd5b8101908080519060200190929190505050145b61499c576040517f08c379a0000000000000000000000000000000000000000000000000000000008152600401808060200182810382526036815260200180614e756036913960400191505060405180910390fd5b614a4f8363095ea7b360e01b8484604051602401808373ffffffffffffffffffffffffffffffffffffffff1673ffffffffffffffffffffffffffffffffffffffff16815260200182815260200192505050604051602081830303815290604052907bffffffffffffffffffffffffffffffffffffffffffffffffffffffff19166020820180517bffffffffffffffffffffffffffffffffffffffffffffffffffffffff838183161783525050505061475e565b505050565b6060614a638484600085614a6c565b90509392505050565b6060614a7785614c72565b614ae9576040517f08c379a000000000000000000000000000000000000000000000000000000000815260040180806020018281038252601d8152602001807f416464726573733a2063616c6c20746f206e6f6e2d636f6e747261637400000081525060200191505060405180910390fd5b600060608673ffffffffffffffffffffffffffffffffffffffff1685876040518082805190602001908083835b60208310614b395780518252602082019150602081019050602083039250614b16565b6001836020036101000a03801982511681845116808217855250505050505090500191505060006040518083038185875af1925050503d8060008114614b9b576040519150601f19603f3d011682016040523d82523d6000602084013e614ba0565b606091505b50915091508115614bb5578092505050614c6a565b600081511115614bc85780518082602001fd5b836040517f08c379a00000000000000000000000000000000000000000000000000000000081526004018080602001828103825283818151815260200191508051906020019080838360005b83811015614c2f578082015181840152602081019050614c14565b50505050905090810190601f168015614c5c5780820380516001836020036101000a031916815260200191505b509250505060405180910390fd5b949350505050565b60008060007fc5d2460186f7233c927e7db2dcc703c0e500b653ca82273b7bfad8045d85a47060001b9050833f9150808214158015614cb457506000801b8214155b9250505091905056fe45524332303a207472616e7366657220746f20746865207a65726f206164647265737345524332303a206275726e20616d6f756e7420657863656564732062616c616e63654f776e61626c653a206e6577206f776e657220697320746865207a65726f206164647265737345524332303a20617070726f766520746f20746865207a65726f2061646472657373696e76616c6964205f616d6f756e74206f7220696e73756666696369656e742062616c616e636545524332303a207472616e7366657220616d6f756e7420657863656564732062616c616e6365536166654d6174683a206d756c7469706c69636174696f6e206f766572666c6f7745524332303a207472616e7366657220616d6f756e74206578636565647320616c6c6f77616e636545524332303a206275726e2066726f6d20746865207a65726f206164647265737345524332303a207472616e736665722066726f6d20746865207a65726f206164647265737345524332303a20617070726f76652066726f6d20746865207a65726f20616464726573735361666545524332303a204552433230206f7065726174696f6e20646964206e6f7420737563636565645361666545524332303a20617070726f76652066726f6d206e6f6e2d7a65726f20746f206e6f6e2d7a65726f20616c6c6f77616e636545524332303a2064656372656173656420616c6c6f77616e63652062656c6f77207a65726fa264697066735822122029983b3208c9b6d8e1944afc80ff329459b28e1168b1310542a1cb1b0f04a01864736f6c63430006060033"}}