{
  "opcodeHash": "0x584eb5f01b37b2f5fd27062b1d74451dc1c59c175bbd13648a9cff4fe62e6b8d",
  "metalessHash": "0x574218a0b6f6d6acea51eb96f70e597060324b0784a6ab434d790a4312890adb",
  "runtimeHash": "0xc2b59aebcabc31d346f7653d9549eac379792733e8a5cab70868562021bda013",
  "encodedMetadata": [
    {
      "ipfs": "/ipfs/QmfK8zS4p9JWV9eqDtLHYMyzURKe11ysHyXuEb6pdLBek1",
      "solc": "0.8.4"
    }
  ],
  "abi": [
    {
      "inputs": [
        {
          "internalType": "address payable",
          "name": "FeeAddress",
          "type": "address"
        },
        {
          "internalType": "address payable",
          "name": "FeeAddress2",
          "type": "address"
        },
        {
          "internalType": "address payable",
          "name": "FeeAddress3",
          "type": "address"
        }
      ],
      "stateMutability": "nonpayable",
      "type": "constructor"
    },
    {
      "anonymous": false,
      "inputs": [
        {
          "indexed": true,
          "internalType": "address",
          "name": "owner",
          "type": "address"
        },
        {
          "indexed": true,
          "internalType": "address",
          "name": "spender",
          "type": "address"
        },
        {
          "indexed": false,
          "internalType": "uint256",
          "name": "value",
          "type": "uint256"
        }
      ],
      "name": "Approval",
      "type": "event"
    },
    {
      "anonymous": false,
      "inputs": [
        {
          "indexed": false,
          "internalType": "bool",
          "name": "_cooldown",
          "type": "bool"
        }
      ],
      "name": "CooldownEnabledUpdated",
      "type": "event"
    },
    {
      "anonymous": false,
      "inputs": [
        {
          "indexed": false,
          "internalType": "uint256",
          "name": "_maxBuyAmount",
          "type": "uint256"
        }
      ],
      "name": "MaxBuyAmountUpdated",
      "type": "event"
    },
    {
      "anonymous": false,
      "inputs": [
        {
          "indexed": true,
          "internalType": "address",
          "name": "previousOwner",
          "type": "address"
        },
        {
          "indexed": true,
          "internalType": "address",
          "name": "newOwner",
          "type": "address"
        }
      ],
      "name": "OwnershipTransferred",
      "type": "event"
    },
    {
      "anonymous": false,
      "inputs": [
        {
          "indexed": true,
          "internalType": "address",
          "name": "from",
          "type": "address"
        },
        {
          "indexed": true,
          "internalType": "address",
          "name": "to",
          "type": "address"
        },
        {
          "indexed": false,
          "internalType": "uint256",
          "name": "value",
          "type": "uint256"
        }
      ],
      "name": "Transfer",
      "type": "event"
    },
    {
      "inputs": [
        {
          "internalType": "address",
          "name": "account",
          "type": "address"
        }
      ],
      "name": "addBotToBlackList",
      "outputs": [],
      "stateMutability": "nonpayable",
      "type": "function"
    },
    {
      "inputs": [],
      "name": "addLiquidity",
      "outputs": [],
      "stateMutability": "nonpayable",
      "type": "function"
    },
    {
      "inputs": [
        {
          "internalType": "address",
          "name": "owner",
          "type": "address"
        },
        {
          "internalType": "address",
          "name": "spender",
          "type": "address"
        }
      ],
      "name": "allowance",
      "outputs": [
        {
          "internalType": "uint256",
          "name": "",
          "type": "uint256"
        }
      ],
      "stateMutability": "view",
      "type": "function"
    },
    {
      "inputs": [],
      "name": "amountInPool",
      "outputs": [
        {
          "internalType": "uint256",
          "name": "",
          "type": "uint256"
        }
      ],
      "stateMutability": "view",
      "type": "function"
    },
    {
      "inputs": [
        {
          "internalType": "address",
          "name": "spender",
          "type": "address"
        },
        {
          "internalType": "uint256",
          "name": "amount",
          "type": "uint256"
        }
      ],
      "name": "approve",
      "outputs": [
        {
          "internalType": "bool",
          "name": "",
          "type": "bool"
        }
      ],
      "stateMutability": "nonpayable",
      "type": "function"
    },
    {
      "inputs": [
        {
          "internalType": "address",
          "name": "account",
          "type": "address"
        }
      ],
      "name": "balanceOf",
      "outputs": [
        {
          "internalType": "uint256",
          "name": "",
          "type": "uint256"
        }
      ],
      "stateMutability": "view",
      "type": "function"
    },
    {
      "inputs": [],
      "name": "cooldownEnabled",
      "outputs": [
        {
          "internalType": "bool",
          "name": "",
          "type": "bool"
        }
      ],
      "stateMutability": "view",
      "type": "function"
    },
    {
      "inputs": [],
      "name": "decimals",
      "outputs": [
        {
          "internalType": "uint8",
          "name": "",
          "type": "uint8"
        }
      ],
      "stateMutability": "pure",
      "type": "function"
    },
    {
      "inputs": [
        {
          "internalType": "address",
          "name": "account",
          "type": "address"
        }
      ],
      "name": "excludeAccount",
      "outputs": [],
      "stateMutability": "nonpayable",
      "type": "function"
    },
    {
      "inputs": [
        {
          "internalType": "address",
          "name": "account",
          "type": "address"
        }
      ],
      "name": "includeAccount",
      "outputs": [],
      "stateMutability": "nonpayable",
      "type": "function"
    },
    {
      "inputs": [
        {
          "internalType": "address",
          "name": "account",
          "type": "address"
        }
      ],
      "name": "isBlackListed",
      "outputs": [
        {
          "internalType": "bool",
          "name": "",
          "type": "bool"
        }
      ],
      "stateMutability": "view",
      "type": "function"
    },
    {
      "inputs": [
        {
          "internalType": "address",
          "name": "account",
          "type": "address"
        }
      ],
      "name": "isExcluded",
      "outputs": [
        {
          "internalType": "bool",
          "name": "",
          "type": "bool"
        }
      ],
      "stateMutability": "view",
      "type": "function"
    },
    {
      "inputs": [],
      "name": "manualsend",
      "outputs": [],
      "stateMutability": "nonpayable",
      "type": "function"
    },
    {
      "inputs": [],
      "name": "manualswap",
      "outputs": [],
      "stateMutability": "nonpayable",
      "type": "function"
    },
    {
      "inputs": [],
      "name": "name",
      "outputs": [
        {
          "internalType": "string",
          "name": "",
          "type": "string"
        }
      ],
      "stateMutability": "pure",
      "type": "function"
    },
    {
      "inputs": [],
      "name": "openTrading",
      "outputs": [],
      "stateMutability": "nonpayable",
      "type": "function"
    },
    {
      "inputs": [],
      "name": "owner",
      "outputs": [
        {
          "internalType": "address",
          "name": "",
          "type": "address"
        }
      ],
      "stateMutability": "view",
      "type": "function"
    },
    {
      "inputs": [
        {
          "internalType": "address",
          "name": "account",
          "type": "address"
        }
      ],
      "name": "removeBotFromBlackList",
      "outputs": [],
      "stateMutability": "nonpayable",
      "type": "function"
    },
    {
      "inputs": [],
      "name": "renounceOwnership",
      "outputs": [],
      "stateMutability": "nonpayable",
      "type": "function"
    },
    {
      "inputs": [
        {
          "internalType": "bool",
          "name": "onoff",
          "type": "bool"
        }
      ],
      "name": "setCooldownEnabled",
      "outputs": [],
      "stateMutability": "nonpayable",
      "type": "function"
    },
    {
      "inputs": [
        {
          "internalType": "address",
          "name": "account",
          "type": "address"
        },
        {
          "internalType": "bool",
          "name": "excluded",
          "type": "bool"
        }
      ],
      "name": "setExcludeFromFee",
      "outputs": [],
      "stateMutability": "nonpayable",
      "type": "function"
    },
    {
      "inputs": [
        {
          "internalType": "bool",
          "name": "enabled",
          "type": "bool"
        }
      ],
      "name": "setFriezaHour",
      "outputs": [],
      "stateMutability": "nonpayable",
      "type": "function"
    },
    {
      "inputs": [
        {
          "internalType": "uint256",
          "name": "maxBuy",
          "type": "uint256"
        },
        {
          "internalType": "uint256",
          "name": "maxSell",
          "type": "uint256"
        }
      ],
      "name": "setTX",
      "outputs": [],
      "stateMutability": "nonpayable",
      "type": "function"
    },
    {
      "inputs": [],
      "name": "symbol",
      "outputs": [
        {
          "internalType": "string",
          "name": "",
          "type": "string"
        }
      ],
      "stateMutability": "pure",
      "type": "function"
    },
    {
      "inputs": [],
      "name": "thisBalance",
      "outputs": [
        {
          "internalType": "uint256",
          "name": "",
          "type": "uint256"
        }
      ],
      "stateMutability": "view",
      "type": "function"
    },
    {
      "inputs": [
        {
          "internalType": "address",
          "name": "buyer",
          "type": "address"
        }
      ],
      "name": "timeToBuy",
      "outputs": [
        {
          "internalType": "uint256",
          "name": "",
          "type": "uint256"
        }
      ],
      "stateMutability": "view",
      "type": "function"
    },
    {
      "inputs": [],
      "name": "totalSupply",
      "outputs": [
        {
          "internalType": "uint256",
          "name": "",
          "type": "uint256"
        }
      ],
      "stateMutability": "pure",
      "type": "function"
    },
    {
      "inputs": [
        {
          "internalType": "address",
          "name": "recipient",
          "type": "address"
        },
        {
          "internalType": "uint256",
          "name": "amount",
          "type": "uint256"
        }
      ],
      "name": "transfer",
      "outputs": [
        {
          "internalType": "bool",
          "name": "",
          "type": "bool"
        }
      ],
      "stateMutability": "nonpayable",
      "type": "function"
    },
    {
      "inputs": [
        {
          "internalType": "address",
          "name": "sender",
          "type": "address"
        },
        {
          "internalType": "address",
          "name": "recipient",
          "type": "address"
        },
        {
          "internalType": "uint256",
          "name": "amount",
          "type": "uint256"
        }
      ],
      "name": "transferFrom",
      "outputs": [
        {
          "internalType": "bool",
          "name": "",
          "type": "bool"
        }
      ],
      "stateMutability": "nonpayable",
      "type": "function"
    },
    {
      "stateMutability": "payable",
      "type": "receive"
    }
  ],
  "bytecode": {
    "object": "60806040526200001a67016345785d8a000060001962000a08565b6200002890600019620009e4565b600b556001600d8190556008600e819055601091909155601181905560128190556013556019805461ffff60a81b1916600160a81b1790553480156200006d57600080fd5b50604051620033ac380380620033ac83398101604081905262000090916200099b565b600080546001600160a01b031916339081178255604051909182917f8be0079c531659141344cd1fd0a4f28419497f9722a3daafe3b4186f6b6457e0908290a350601680546001600160a01b038086166001600160a01b0319928316179092556017805492851692909116919091179055600b5460026000620001103390565b6001600160a01b03166001600160a01b03168152602001908152602001600020819055506001600560006200014a6200096f60201b60201c565b6001600160a01b03908116825260208083019390935260409182016000908120805495151560ff199687161790553081526005845282812080548616600190811790915588831682528382208054871682179055878316825283822080548716821790559186168152918220805485168217905560089092527fdc32a335f21fe9b2cef7f9beb85e916a657b0d50aaa45f5ac9d624aa150101b380548416831790556009805480840182557f6e1540171b6c0c960b71a7020d9f60077f6af931a8bbf590da0223dacf75c7af90810180546001600160a01b03199081167366f049111958809841bbe4b81c034da2d953aa0c179091557f5afb22bd27b767b7d4d1ab7515bc17e3a4d6dd5c901a437e9722349b39efcdfc8054871686179055825480860184558201805482166f5736775feb0c8568e7dee77222a268801790557ff2d16d45ea2dc9157c60503cdbe6a26123912e1a52139ab4faf3d91bf39aebce8054871686179055825480860184558201805482166e3b3cc22af3ae1eac0440bcee416b401790557fb584dc31c365bcf6f553d60a984b04ad620753a9e43696d21335bea1b3728aa680548716861781558354808701855583018054831673d8e83d3d1a91dfefafd8b854511c44685a20fa3d9081179091557f2955fa92c8cbfdc2d1b62af1d295d2e30d66af94c72fa0087027a7a4269cfdb180548916881790558454808801865584018054841673bcc7f6355bc08f6b7d3a41322ce46271183147631790557fb6ed04278b774710d42ec9c129f97e6183d7b6e55e08226a8e9fa29a9336f9e1805489168817905584548088018655840180548416731d6e8bac6ea3730825bde4b005ed7b2b39a2932d1790557ffe66911fd8ee2ae9dbcbf308e0218636afef1c432b5d5c4c1a3eff3e2a3ff1018054891688179055845480880186558401805484166e35b5e5ad9019092c665357240f594e1790557f7e2904a6a48e604007785ad465c9a07ffbbb4804abc5f5fb3a151f64c6fe6e4a805489168817905584548088018655840180548416731315c6c26123383a2eb369a53fb72c4b9f227eec1790558154881687179091558354808701855583018054831690911790557f12d8608112bb818ff1ed30b92bb56960590fe20bca7be7305c97df444ebd13638054871686179055825480860184558201805482167390484bb9bc05fd3b5ff1fe412a492676cd81790c1790557f1404537361a41d763b83a307967861eb529f800e555ff5d152096a878636eabd80548716861790558254808601845582018054821673a62c5ba4d3c95b3ddb247eabaa2c8e56bac9d6da1790557fdfe2bf5142473e7b37d88fd792cd734cfe82d5c7883a9063e5392c413d7b07368054871686179055825480860184558201805482167342c1b5e32d625b6c618a02ae15189035e0a92fe71790557f375015a6034648b595434d1c4e912171c67c8c2b1b604e4ab4fd782bbec44e1980548716861790558254808601845582018054821673a94e56efc384088717bb6edcccec289a72ec23811790557fdde3677c91f0b25e4400fbd1cc0edb46285f0369ce9451d82d6f43064b56971c80548716861790558254808601845582018054821673f13ffadd3682fed42183af8f3f0b409a9a0fde311790557f3b6af5fc420f776b778596a0bcc73d6adc4fff7c7163619756f13e590ac978dc80548716861790558254808601845582018054821673376a6efe8e98f3ae2af230b3d45b8cc5e962bc271790557feb8ff550748a724450674543460afe2dcd14d67463540b8b700f2439fafd7c5680548716861790558254808601845582018054821673ee2a9147ffc94a73f6b945a6db532f8466b788301790557fbde19cd6889df07105a42f3b1077cd970df322855e99d813a5770d2df5eaf74480548716861790558254808601845582018054821673de2a6d80989c3992e11b155430c3f59792ff8bb71790557f5f0cf6cec47dbd6c5d7dcf79aa1832e04334aa9b889d2c54e7bd8e0a7a1d738f805487168617905582548086018455820180548216731e62a12d4981e428d3f4f28df261fdcb2ce743da1790557f07ca1b3077f110a71865403e9af81eabcbbf45cdee6abe6ce8d89be396657c20805487168617905582548086018455820180548216735136a9a5d077ae4247c7706b577f77153c32a01c1790557fa91d2805f78c999710926e2979a7537bd8bba61da68d9c1cda9e992b08b4bde1805487168617905582548086018455820180548216730e388888309d64e97f97a4740ec9ed3dadca71be1790557f8fd681806bbe6a4057eabf28df345fa24a520320fcebdd1eb9490910eae0621e80548716861790558254808601845582018054821673255d9ba73a51e02d26a5ab90d534db8a80974a121790557f5ff1c853d1fa51e2354f22edca0a3d88d86e798354f66334f1dbe0a16cdf787680548716861790558254808601845582018054821673a682a66ea044aa1dc3ee315f6c36414f73054b471790557fc73664087767092d0609826a6816f58a754d84eb0c5d153afb3f53882596d0bf8054871686179055825480860184558201805482167380e09203480a49f3cf30a4714246f7af622ba4701790557fe5d5da23872b29cca98b9c4583c8014128d6fdf7ef7a5e15edaafa3f8f581e18805490961685179095558154938401825591520180549091167312e48b837ab8cb9104c5b95700363547ba81c8a4179055620009103390565b6001600160a01b031660006001600160a01b03167fddf252ad1be2c89b69c2b068fc378daa952ba7f163c4a11628f55a4df523b3ef67016345785d8a00006040516200095e91815260200190565b60405180910390a350505062000a29565b6000546001600160a01b031690565b80516001600160a01b03811681146200099657600080fd5b919050565b600080600060608486031215620009b0578283fd5b620009bb846200097e565b9250620009cb602085016200097e565b9150620009db604085016200097e565b90509250925092565b60008282101562000a0357634e487b7160e01b81526011600452602481fd5b500390565b60008262000a2457634e487b7160e01b81526012600452602481fd5b500690565b6129738062000a396000396000f3fe6080604052600436106101c65760003560e01c80638da5cb5b116100f7578063c9567bf911610095578063e47d606011610064578063e47d606014610539578063e8078d9414610572578063f2cc0c1814610587578063f84354f1146105a757600080fd5b8063c9567bf914610490578063cba0e996146104a5578063db92dbb6146104de578063dd62ed3e146104f357600080fd5b8063a985ceef116100d1578063a985ceef1461041c578063af9549e01461043b578063bdd06e351461045b578063c3c8cd801461047b57600080fd5b80638da5cb5b146103a557806395d89b41146103cd578063a9059cbb146103fc57600080fd5b80634303443d116101645780636fc3eaec1161013e5780636fc3eaec1461033b57806370a0823114610350578063715018a6146103705780637ded4d6a1461038557600080fd5b80634303443d146102db5780635932ead1146102fb57806368a3a6a51461031b57600080fd5b806323b872dd116101a057806323b872dd1461026857806327f3a72a14610288578063313ce5671461029d5780634126f695146102b957600080fd5b806306fdde03146101d2578063095ea7b31461021357806318160ddd1461024357600080fd5b366101cd57005b600080fd5b3480156101de57600080fd5b50604080518082019091526006815265467269657a6160d01b60208201525b60405161020a919061275b565b60405180910390f35b34801561021f57600080fd5b5061023361022e3660046126aa565b6105c7565b604051901515815260200161020a565b34801561024f57600080fd5b5067016345785d8a00005b60405190815260200161020a565b34801561027457600080fd5b5061023361028336600461263d565b6105de565b34801561029457600080fd5b5061025a610647565b3480156102a957600080fd5b506040516009815260200161020a565b3480156102c557600080fd5b506102d96102d436600461270d565b610657565b005b3480156102e757600080fd5b506102d96102f63660046125cd565b610695565b34801561030757600080fd5b506102d96103163660046126d5565b610807565b34801561032757600080fd5b5061025a6103363660046125cd565b61088c565b34801561034757600080fd5b506102d96108af565b34801561035c57600080fd5b5061025a61036b3660046125cd565b6108dc565b34801561037c57600080fd5b506102d96108fe565b34801561039157600080fd5b506102d96103a03660046125cd565b610972565b3480156103b157600080fd5b506000546040516001600160a01b03909116815260200161020a565b3480156103d957600080fd5b50604080518082019091526006815265465249455a4160d01b60208201526101fd565b34801561040857600080fd5b506102336104173660046126aa565b610b58565b34801561042857600080fd5b50601954600160a81b900460ff16610233565b34801561044757600080fd5b506102d961045636600461267d565b610b65565b34801561046757600080fd5b506102d96104763660046126d5565b610bba565b34801561048757600080fd5b506102d9610c04565b34801561049c57600080fd5b506102d9610c3a565b3480156104b157600080fd5b506102336104c03660046125cd565b6001600160a01b031660009081526006602052604090205460ff1690565b3480156104ea57600080fd5b5061025a610c87565b3480156104ff57600080fd5b5061025a61050e366004612605565b6001600160a01b03918216600090815260046020908152604080832093909416825291909152205490565b34801561054557600080fd5b506102336105543660046125cd565b6001600160a01b031660009081526008602052604090205460ff1690565b34801561057e57600080fd5b506102d9610c9f565b34801561059357600080fd5b506102d96105a23660046125cd565b611058565b3480156105b357600080fd5b506102d96105c23660046125cd565b611223565b60006105d43384846113e8565b5060015b92915050565b60006105eb84848461150c565b61063d843361063885604051806060016040528060288152602001612916602891396001600160a01b038a16600090815260046020908152604080832033845290915290205491906119c7565b6113e8565b5060019392505050565b6000610652306108dc565b905090565b6000546001600160a01b0316331461068a5760405162461bcd60e51b8152600401610681906127ae565b60405180910390fd5b601491909155601555565b6000546001600160a01b031633146106bf5760405162461bcd60e51b8152600401610681906127ae565b737a250d5630b4cf539739df2c5dacb4c659f2488d6001600160a01b03821614156107385760405162461bcd60e51b8152602060048201526024808201527f57652063616e206e6f7420626c61636b6c69737420556e697377617020726f756044820152633a32b91760e11b6064820152608401610681565b6001600160a01b03811660009081526008602052604090205460ff16156107a15760405162461bcd60e51b815260206004820152601e60248201527f4163636f756e7420697320616c726561647920626c61636b6c697374656400006044820152606401610681565b6001600160a01b03166000818152600860205260408120805460ff191660019081179091556009805491820181559091527f6e1540171b6c0c960b71a7020d9f60077f6af931a8bbf590da0223dacf75c7af0180546001600160a01b0319169091179055565b6000546001600160a01b031633146108315760405162461bcd60e51b8152600401610681906127ae565b6019805460ff60a81b1916600160a81b8315158102919091179182905560405160ff9190920416151581527f0d63187a8abb5b4d1bb562e1163897386b0a88ee72e0799dd105bd0fd6f287069060200160405180910390a150565b6001600160a01b0381166000908152600a60205260408120546105d890426128aa565b6016546001600160a01b0316336001600160a01b0316146108cf57600080fd5b476108d981611a01565b50565b6001600160a01b0381166000908152600260205260408120546105d890611a86565b6000546001600160a01b031633146109285760405162461bcd60e51b8152600401610681906127ae565b600080546040516001600160a01b03909116907f8be0079c531659141344cd1fd0a4f28419497f9722a3daafe3b4186f6b6457e0908390a3600080546001600160a01b0319169055565b6000546001600160a01b0316331461099c5760405162461bcd60e51b8152600401610681906127ae565b6001600160a01b03811660009081526008602052604090205460ff16610a045760405162461bcd60e51b815260206004820152601a60248201527f4163636f756e74206973206e6f7420626c61636b6c69737465640000000000006044820152606401610681565b60005b600954811015610b5457816001600160a01b031660098281548110610a3c57634e487b7160e01b600052603260045260246000fd5b6000918252602090912001546001600160a01b03161415610b425760098054610a67906001906128aa565b81548110610a8557634e487b7160e01b600052603260045260246000fd5b600091825260209091200154600980546001600160a01b039092169183908110610abf57634e487b7160e01b600052603260045260246000fd5b600091825260208083209190910180546001600160a01b0319166001600160a01b039485161790559184168152600890915260409020805460ff191690556009805480610b1c57634e487b7160e01b600052603160045260246000fd5b600082815260209020810160001990810180546001600160a01b03191690550190555050565b80610b4c816128c1565b915050610a07565b5050565b60006105d433848461150c565b6000546001600160a01b03163314610b8f5760405162461bcd60e51b8152600401610681906127ae565b6001600160a01b03919091166000908152600560205260409020805460ff1916911515919091179055565b6000546001600160a01b03163314610be45760405162461bcd60e51b8152600401610681906127ae565b8015610bf7576010601355600060125550565b6008601381905560125550565b6016546001600160a01b0316336001600160a01b031614610c2457600080fd5b6000610c2f306108dc565b90506108d981611b0a565b6000546001600160a01b03163314610c645760405162461bcd60e51b8152600401610681906127ae565b6019805460ff60a01b1916600160a01b179055610c8242605a612853565b601a55565b601954600090610652906001600160a01b03166108dc565b6000546001600160a01b03163314610cc95760405162461bcd60e51b8152600401610681906127ae565b601954600160a01b900460ff1615610d235760405162461bcd60e51b815260206004820152601760248201527f74726164696e6720697320616c7265616479206f70656e0000000000000000006044820152606401610681565b601880546001600160a01b031916737a250d5630b4cf539739df2c5dacb4c659f2488d908117909155610d5f308267016345785d8a00006113e8565b806001600160a01b031663c45a01556040518163ffffffff1660e01b815260040160206040518083038186803b158015610d9857600080fd5b505afa158015610dac573d6000803e3d6000fd5b505050506040513d601f19601f82011682018060405250810190610dd091906125e9565b6001600160a01b031663c9c6539630836001600160a01b031663ad5c46486040518163ffffffff1660e01b815260040160206040518083038186803b158015610e1857600080fd5b505afa158015610e2c573d6000803e3d6000fd5b505050506040513d601f19601f82011682018060405250810190610e5091906125e9565b6040516001600160e01b031960e085901b1681526001600160a01b03928316600482015291166024820152604401602060405180830381600087803b158015610e9857600080fd5b505af1158015610eac573d6000803e3d6000fd5b505050506040513d601f19601f82011682018060405250810190610ed091906125e9565b601980546001600160a01b0319166001600160a01b039283161790556018541663f305d7194730610f00816108dc565b600080610f156000546001600160a01b031690565b60405160e088901b6001600160e01b03191681526001600160a01b03958616600482015260248101949094526044840192909252606483015290911660848201524260a482015260c4016060604051808303818588803b158015610f7857600080fd5b505af1158015610f8c573d6000803e3d6000fd5b50505050506040513d601f19601f82011682018060405250810190610fb1919061272e565b505067016345785d8a00006014555066038d7ea4c6800060155542600f5560195460185460405163095ea7b360e01b81526001600160a01b039182166004820152600019602482015291169063095ea7b390604401602060405180830381600087803b15801561102057600080fd5b505af1158015611034573d6000803e3d6000fd5b505050506040513d601f19601f82011682018060405250810190610b5491906126f1565b6000546001600160a01b031633146110825760405162461bcd60e51b8152600401610681906127ae565b737a250d5630b4cf539739df2c5dacb4c659f2488d6001600160a01b03821614156110fa5760405162461bcd60e51b815260206004820152602260248201527f57652063616e206e6f74206578636c75646520556e697377617020726f757465604482015261391760f11b6064820152608401610681565b6001600160a01b03811660009081526006602052604090205460ff16156111635760405162461bcd60e51b815260206004820152601b60248201527f4163636f756e7420697320616c7265616479206578636c7564656400000000006044820152606401610681565b6001600160a01b038116600090815260026020526040902054156111bd576001600160a01b0381166000908152600260205260409020546111a390611a86565b6001600160a01b0382166000908152600360205260409020555b6001600160a01b03166000818152600660205260408120805460ff191660019081179091556007805491820181559091527fa66cc928b5edb82af9bd49922954155ab7b0942694bea4ce44661d9a8736c6880180546001600160a01b0319169091179055565b6000546001600160a01b0316331461124d5760405162461bcd60e51b8152600401610681906127ae565b6001600160a01b03811660009081526006602052604090205460ff166112b55760405162461bcd60e51b815260206004820152601b60248201527f4163636f756e7420697320616c7265616479206578636c7564656400000000006044820152606401610681565b60005b600754811015610b5457816001600160a01b0316600782815481106112ed57634e487b7160e01b600052603260045260246000fd5b6000918252602090912001546001600160a01b031614156113d65760078054611318906001906128aa565b8154811061133657634e487b7160e01b600052603260045260246000fd5b600091825260209091200154600780546001600160a01b03909216918390811061137057634e487b7160e01b600052603260045260246000fd5b600091825260208083209190910180546001600160a01b0319166001600160a01b039485161790559184168152600382526040808220829055600690925220805460ff191690556007805480610b1c57634e487b7160e01b600052603160045260246000fd5b806113e0816128c1565b9150506112b8565b6001600160a01b03831661144a5760405162461bcd60e51b8152602060048201526024808201527f45524332303a20617070726f76652066726f6d20746865207a65726f206164646044820152637265737360e01b6064820152608401610681565b6001600160a01b0382166114ab5760405162461bcd60e51b815260206004820152602260248201527f45524332303a20617070726f766520746f20746865207a65726f206164647265604482015261737360f01b6064820152608401610681565b6001600160a01b0383811660008181526004602090815260408083209487168084529482529182902085905590518481527f8c5be1e5ebec7d5bd14f71427d1e84f3dd0314c0f7b2291e5b200ac8c7c3b925910160405180910390a3505050565b6001600160a01b0383166115705760405162461bcd60e51b815260206004820152602560248201527f45524332303a207472616e736665722066726f6d20746865207a65726f206164604482015264647265737360d81b6064820152608401610681565b6001600160a01b0382166115d25760405162461bcd60e51b815260206004820152602360248201527f45524332303a207472616e7366657220746f20746865207a65726f206164647260448201526265737360e81b6064820152608401610681565b600081116116345760405162461bcd60e51b815260206004820152602960248201527f5472616e7366657220616d6f756e74206d7573742062652067726561746572206044820152687468616e207a65726f60b81b6064820152608401610681565b6001600160a01b03821660009081526008602052604090205460ff16156116975760405162461bcd60e51b8152602060048201526017602482015276596f752068617665206e6f20706f77657220686572652160481b6044820152606401610681565b3360009081526008602052604090205460ff16156116f15760405162461bcd60e51b8152602060048201526017602482015276596f752068617665206e6f20706f77657220686572652160481b6044820152606401610681565b6000546001600160a01b0384811691161480159061171d57506000546001600160a01b03838116911614155b1561196a57601954600160a81b900460ff161561179d57336000908152600a602052604090206002015460ff1661179d5760408051606081018252600080825260208083018281526001848601818152338552600a909352949092209251835590519282019290925590516002909101805460ff19169115159190911790555b6019546001600160a01b0384811691161480156117c857506018546001600160a01b03838116911614155b80156117ed57506001600160a01b03821660009081526005602052604090205460ff16155b1561188757601954600160a01b900460ff1661184b5760405162461bcd60e51b815260206004820152601860248201527f54726164696e67206e6f742079657420656e61626c65642e00000000000000006044820152606401610681565b60145481111561185a57600080fd5b6000600d55601254600e55601954600160a81b900460ff16156118875742601a54111561188757605a600e555b6019546001600160a01b0383811691161480156118b257506018546001600160a01b03848116911614155b80156118d757506001600160a01b03831660009081526005602052604090205460ff16155b156118f7576015548111156118eb57600080fd5b6000600d55601354600e555b6000611902306108dc565b601954909150600160b01b900460ff1615801561192d57506019546001600160a01b03858116911614155b80156119425750601954600160a01b900460ff165b156119685780156119565761195681611b0a565b4780156119665761196647611a01565b505b505b6001600160a01b03831660009081526005602052604090205460019060ff16806119ac57506001600160a01b03831660009081526005602052604090205460ff165b156119b5575060005b6119c184848484611caf565b50505050565b600081848411156119eb5760405162461bcd60e51b8152600401610681919061275b565b5060006119f884866128aa565b95945050505050565b6016546001600160a01b03166108fc611a1b836002611e26565b6040518115909202916000818181858888f19350505050158015611a43573d6000803e3d6000fd5b506017546001600160a01b03166108fc611a5e836002611e26565b6040518115909202916000818181858888f19350505050158015610b54573d6000803e3d6000fd5b6000600b54821115611aed5760405162461bcd60e51b815260206004820152602a60248201527f416d6f756e74206d757374206265206c657373207468616e20746f74616c207260448201526965666c656374696f6e7360b01b6064820152608401610681565b6000611af7611e68565b9050611b038382611e26565b9392505050565b6019805460ff60b01b1916600160b01b1790556040805160028082526060820183526000926020830190803683370190505090503081600081518110611b6057634e487b7160e01b600052603260045260246000fd5b6001600160a01b03928316602091820292909201810191909152601854604080516315ab88c960e31b81529051919093169263ad5c4648926004808301939192829003018186803b158015611bb457600080fd5b505afa158015611bc8573d6000803e3d6000fd5b505050506040513d601f19601f82011682018060405250810190611bec91906125e9565b81600181518110611c0d57634e487b7160e01b600052603260045260246000fd5b6001600160a01b039283166020918202929092010152601854611c3391309116846113e8565b60185460405163791ac94760e01b81526001600160a01b039091169063791ac94790611c6c9085906000908690309042906004016127e3565b600060405180830381600087803b158015611c8657600080fd5b505af1158015611c9a573d6000803e3d6000fd5b50506019805460ff60b01b1916905550505050565b80611cbc57611cbc611e8b565b6001600160a01b03841660009081526006602052604090205460ff168015611cfd57506001600160a01b03831660009081526006602052604090205460ff16155b15611d1257611d0d848484611eb9565b611e10565b6001600160a01b03841660009081526006602052604090205460ff16158015611d5357506001600160a01b03831660009081526006602052604090205460ff165b15611d6357611d0d848484611fdf565b6001600160a01b03841660009081526006602052604090205460ff16158015611da557506001600160a01b03831660009081526006602052604090205460ff16155b15611db557611d0d848484612088565b6001600160a01b03841660009081526006602052604090205460ff168015611df557506001600160a01b03831660009081526006602052604090205460ff165b15611e0557611d0d8484846120cc565b611e10848484612088565b806119c1576119c1601054600d55601154600e55565b6000611b0383836040518060400160405280601a81526020017f536166654d6174683a206469766973696f6e206279207a65726f00000000000081525061213f565b6000806000611e7561216d565b9092509050611e848282611e26565b9250505090565b600d54158015611e9b5750600e54155b15611ea257565b600d8054601055600e805460115560009182905555565b600080600080600080611ecb8761233d565b6001600160a01b038f16600090815260036020526040902054959b50939950919750955093509150611efd908861239a565b6001600160a01b038a16600090815260036020908152604080832093909355600290522054611f2c908761239a565b6001600160a01b03808b1660009081526002602052604080822093909355908a1681522054611f5b90866123dc565b6001600160a01b038916600090815260026020526040902055611f7d8161243b565b611f878483612485565b876001600160a01b0316896001600160a01b03167fddf252ad1be2c89b69c2b068fc378daa952ba7f163c4a11628f55a4df523b3ef85604051611fcc91815260200190565b60405180910390a3505050505050505050565b600080600080600080611ff18761233d565b6001600160a01b038f16600090815260026020526040902054959b50939950919750955093509150612023908761239a565b6001600160a01b03808b16600090815260026020908152604080832094909455918b1681526003909152205461205990846123dc565b6001600160a01b038916600090815260036020908152604080832093909355600290522054611f5b90866123dc565b60008060008060008061209a8761233d565b6001600160a01b038f16600090815260026020526040902054959b50939950919750955093509150611f2c908761239a565b6000806000806000806120de8761233d565b6001600160a01b038f16600090815260036020526040902054959b50939950919750955093509150612110908861239a565b6001600160a01b038a16600090815260036020908152604080832093909355600290522054612023908761239a565b600081836121605760405162461bcd60e51b8152600401610681919061275b565b5060006119f8848661286b565b600b54600090819067016345785d8a0000825b600754811015612302578260026000600784815481106121b057634e487b7160e01b600052603260045260246000fd5b60009182526020808320909101546001600160a01b031683528201929092526040019020541180612229575081600360006007848154811061220257634e487b7160e01b600052603260045260246000fd5b60009182526020808320909101546001600160a01b03168352820192909252604001902054115b15612244575050600b549367016345785d8a00009350915050565b612298600260006007848154811061226c57634e487b7160e01b600052603260045260246000fd5b60009182526020808320909101546001600160a01b03168352820192909252604001902054849061239a565b92506122ee60036000600784815481106122c257634e487b7160e01b600052603260045260246000fd5b60009182526020808320909101546001600160a01b03168352820192909252604001902054839061239a565b9150806122fa816128c1565b915050612180565b50600b546123189067016345785d8a0000611e26565b821015612334575050600b549267016345785d8a000092509050565b90939092509050565b600080600080600080600080600061235a8a600d54600e546124a9565b925092509250600061236a611e68565b9050600080600061237d8e8787876124fe565b919e509c509a509598509396509194505050505091939550919395565b6000611b0383836040518060400160405280601e81526020017f536166654d6174683a207375627472616374696f6e206f766572666c6f7700008152506119c7565b6000806123e98385612853565b905083811015611b035760405162461bcd60e51b815260206004820152601b60248201527f536166654d6174683a206164646974696f6e206f766572666c6f7700000000006044820152606401610681565b6000612445611e68565b90506000612453838361254e565b3060009081526002602052604090205490915061247090826123dc565b30600090815260026020526040902055505050565b600b54612492908361239a565b600b55600c546124a290826123dc565b600c555050565b60008080806124c360646124bd898961254e565b90611e26565b905060006124d660646124bd8a8961254e565b905060006124ee826124e88b8661239a565b9061239a565b9992985090965090945050505050565b600080808061250d888661254e565b9050600061251b888761254e565b90506000612529888861254e565b9050600061253b826124e8868661239a565b939b939a50919850919650505050505050565b60008261255d575060006105d8565b6000612569838561288b565b905082612576858361286b565b14611b035760405162461bcd60e51b815260206004820152602160248201527f536166654d6174683a206d756c7469706c69636174696f6e206f766572666c6f6044820152607760f81b6064820152608401610681565b6000602082840312156125de578081fd5b8135611b03816128f2565b6000602082840312156125fa578081fd5b8151611b03816128f2565b60008060408385031215612617578081fd5b8235612622816128f2565b91506020830135612632816128f2565b809150509250929050565b600080600060608486031215612651578081fd5b833561265c816128f2565b9250602084013561266c816128f2565b929592945050506040919091013590565b6000806040838503121561268f578182fd5b823561269a816128f2565b9150602083013561263281612907565b600080604083850312156126bc578182fd5b82356126c7816128f2565b946020939093013593505050565b6000602082840312156126e6578081fd5b8135611b0381612907565b600060208284031215612702578081fd5b8151611b0381612907565b6000806040838503121561271f578182fd5b50508035926020909101359150565b600080600060608486031215612742578283fd5b8351925060208401519150604084015190509250925092565b6000602080835283518082850152825b818110156127875785810183015185820160400152820161276b565b818111156127985783604083870101525b50601f01601f1916929092016040019392505050565b6020808252818101527f4f776e61626c653a2063616c6c6572206973206e6f7420746865206f776e6572604082015260600190565b600060a082018783526020878185015260a0604085015281875180845260c0860191508289019350845b818110156128325784516001600160a01b03168352938301939183019160010161280d565b50506001600160a01b03969096166060850152505050608001529392505050565b60008219821115612866576128666128dc565b500190565b60008261288657634e487b7160e01b81526012600452602481fd5b500490565b60008160001904831182151516156128a5576128a56128dc565b500290565b6000828210156128bc576128bc6128dc565b500390565b60006000198214156128d5576128d56128dc565b5060010190565b634e487b7160e01b600052601160045260246000fd5b6001600160a01b03811681146108d957600080fd5b80151581146108d957600080fdfe45524332303a207472616e7366657220616d6f756e74206578636565647320616c6c6f77616e6365a264697066735822122075f8ff18a1ccc882bc64a74817f286f8269dd46e3f49a69b24ff9d92707930f464736f6c63430008040033"
  }
}