{"compiler":"v0.4.24+commit.e67f0147","opcodeHash":"0x777a60ab6eafe6f425610210a8c73050f8587895f17584908dae0409efb677db","metalessHash":"0x6886c13d2f8a812453b79640410707426ba1397ec41aa120779c83b74e78fa94","runtimeHash":"0x292bebb37324b8ce0c18d732a3863e2957edf7f44801c0548673eda0094946ae","encodedMetadata":[{"bzzr0":"/swarm/bzzr0/ea084ce35f6b1adc83dfc078ffa02330673b2199844243f576b560d21194be2c"}],"abi":[{"constant":true,"inputs":[],"name":"name","outputs":[{"name":"","type":"string"}],"payable":false,"stateMutability":"view","type":"function"},{"constant":false,"inputs":[{"name":"_spender","type":"address"},{"name":"_value","type":"uint256"}],"name":"approve","outputs":[{"name":"success","type":"bool"}],"payable":false,"stateMutability":"nonpayable","type":"function"},{"constant":true,"inputs":[],"name":"totalSupply","outputs":[{"name":"","type":"uint256"}],"payable":false,"stateMutability":"view","type":"function"},{"constant":false,"inputs":[{"name":"_from","type":"address"},{"name":"_to","type":"address"},{"name":"_value","type":"uint256"}],"name":"transferFrom","outputs":[{"name":"success","type":"bool"}],"payable":false,"stateMutability":"nonpayable","type":"function"},{"constant":true,"inputs":[],"name":"decimals","outputs":[{"name":"","type":"uint8"}],"payable":false,"stateMutability":"view","type":"function"},{"constant":false,"inputs":[{"name":"amount","type":"uint256"}],"name":"withdrawEther","outputs":[],"payable":false,"stateMutability":"nonpayable","type":"function"},{"constant":false,"inputs":[{"name":"_value","type":"uint256"}],"name":"burn","outputs":[{"name":"success","type":"bool"}],"payable":false,"stateMutability":"nonpayable","type":"function"},{"constant":false,"inputs":[{"name":"_value","type":"uint256"}],"name":"unfreeze","outputs":[{"name":"success","type":"bool"}],"payable":false,"stateMutability":"nonpayable","type":"function"},{"constant":true,"inputs":[{"name":"","type":"address"}],"name":"balanceOf","outputs":[{"name":"","type":"uint256"}],"payable":false,"stateMutability":"view","type":"function"},{"constant":true,"inputs":[],"name":"owner","outputs":[{"name":"","type":"address"}],"payable":false,"stateMutability":"view","type":"function"},{"constant":true,"inputs":[],"name":"symbol","outputs":[{"name":"","type":"string"}],"payable":false,"stateMutability":"view","type":"function"},{"constant":false,"inputs":[{"name":"_to","type":"address"},{"name":"_value","type":"uint256"}],"name":"transfer","outputs":[],"payable":false,"stateMutability":"nonpayable","type":"function"},{"constant":true,"inputs":[{"name":"","type":"address"}],"name":"freezeOf","outputs":[{"name":"","type":"uint256"}],"payable":false,"stateMutability":"view","type":"function"},{"constant":false,"inputs":[{"name":"_value","type":"uint256"}],"name":"freeze","outputs":[{"name":"success","type":"bool"}],"payable":false,"stateMutability":"nonpayable","type":"function"},{"constant":true,"inputs":[{"name":"","type":"address"},{"name":"","type":"address"}],"name":"allowance","outputs":[{"name":"","type":"uint256"}],"payable":false,"stateMutability":"view","type":"function"},{"constant":false,"inputs":[{"name":"newOwner","type":"address"}],"name":"transferOwnership","outputs":[],"payable":false,"stateMutability":"nonpayable","type":"function"},{"inputs":[{"name":"tokenName","type":"string"},{"name":"tokenSymbol","type":"string"},{"name":"tokenOwner","type":"address"}],"payable":false,"stateMutability":"nonpayable","type":"constructor"},{"payable":true,"stateMutability":"payable","type":"fallback"},{"anonymous":false,"inputs":[{"indexed":true,"name":"from","type":"address"},{"indexed":true,"name":"to","type":"address"},{"indexed":false,"name":"value","type":"uint256"}],"name":"Transfer","type":"event"},{"anonymous":false,"inputs":[{"indexed":true,"name":"from","type":"address"},{"indexed":false,"name":"value","type":"uint256"}],"name":"Burn","type":"event"},{"anonymous":false,"inputs":[{"indexed":true,"name":"from","type":"address"},{"indexed":false,"name":"value","type":"uint256"}],"name":"Freeze","type":"event"},{"anonymous":false,"inputs":[{"indexed":true,"name":"from","type":"address"},{"indexed":false,"name":"value","type":"uint256"}],"name":"Unfreeze","type":"event"}],"bytecode":{"object":"60806040523480156200001157600080fd5b506040516200193e3803806200193e833981018060405281019080805182019291906020018051820192919060200180519060200190929190505050336000806101000a81548173ffffffffffffffffffffffffffffffffffffffff021916908373ffffffffffffffffffffffffffffffffffffffff1602179055506008600360006101000a81548160ff021916908360ff160217905550600360009054906101000a900460ff1660ff16600a0a633b9aca0002600481905550600454600560008373ffffffffffffffffffffffffffffffffffffffff1673ffffffffffffffffffffffffffffffffffffffff168152602001908152602001600020819055508260019080519060200190620001299291906200018c565b508160029080519060200190620001429291906200018c565b50806000806101000a81548173ffffffffffffffffffffffffffffffffffffffff021916908373ffffffffffffffffffffffffffffffffffffffff1602179055505050506200023b565b828054600181600116156101000203166002900490600052602060002090601f016020900481019282601f10620001cf57805160ff191683800117855562000200565b8280016001018555821562000200579182015b82811115620001ff578251825591602001919060010190620001e2565b5b5090506200020f919062000213565b5090565b6200023891905b80821115620002345760008160009055506001016200021a565b5090565b90565b6116f3806200024b6000396000f3006080604052600436106100e6576000357c0100000000000000000000000000000000000000000000000000000000900463ffffffff16806306fdde03146100e8578063095ea7b31461017857806318160ddd146101dd57806323b872dd14610208578063313ce5671461028d5780633bed33ce146102be57806342966c68146102eb5780636623fc461461033057806370a08231146103755780638da5cb5b146103cc57806395d89b4114610423578063a9059cbb146104b3578063cd4217c114610500578063d7a78db814610557578063dd62ed3e1461059c578063f2fde38b14610613575b005b3480156100f457600080fd5b506100fd610656565b6040518080602001828103825283818151815260200191508051906020019080838360005b8381101561013d578082015181840152602081019050610122565b50505050905090810190601f16801561016a5780820380516001836020036101000a031916815260200191505b509250505060405180910390f35b34801561018457600080fd5b506101c3600480360381019080803573ffffffffffffffffffffffffffffffffffffffff169060200190929190803590602001909291905050506106f4565b604051808215151515815260200191505060405180910390f35b3480156101e957600080fd5b506101f26107dd565b6040518082815260200191505060405180910390f35b34801561021457600080fd5b50610273600480360381019080803573ffffffffffffffffffffffffffffffffffffffff169060200190929190803573ffffffffffffffffffffffffffffffffffffffff169060200190929190803590602001909291905050506107e3565b604051808215151515815260200191505060405180910390f35b34801561029957600080fd5b506102a2610c40565b604051808260ff1660ff16815260200191505060405180910390f35b3480156102ca57600080fd5b506102e960048036038101908080359060200190929190505050610c53565b005b3480156102f757600080fd5b5061031660048036038101908080359060200190929190505050610cf8565b604051808215151515815260200191505060405180910390f35b34801561033c57600080fd5b5061035b60048036038101908080359060200190929190505050610e5e565b604051808215151515815260200191505060405180910390f35b34801561038157600080fd5b506103b6600480360381019080803573ffffffffffffffffffffffffffffffffffffffff16906020019092919050505061103e565b6040518082815260200191505060405180910390f35b3480156103d857600080fd5b506103e1611056565b604051808273ffffffffffffffffffffffffffffffffffffffff1673ffffffffffffffffffffffffffffffffffffffff16815260200191505060405180910390f35b34801561042f57600080fd5b5061043861107b565b6040518080602001828103825283818151815260200191508051906020019080838360005b8381101561047857808201518184015260208101905061045d565b50505050905090810190601f1680156104a55780820380516001836020036101000a031916815260200191505b509250505060405180910390f35b3480156104bf57600080fd5b506104fe600480360381019080803573ffffffffffffffffffffffffffffffffffffffff16906020019092919080359060200190929190505050611119565b005b34801561050c57600080fd5b50610541600480360381019080803573ffffffffffffffffffffffffffffffffffffffff1690602001909291905050506113d4565b6040518082815260200191505060405180910390f35b34801561056357600080fd5b50610582600480360381019080803590602001909291905050506113ec565b604051808215151515815260200191505060405180910390f35b3480156105a857600080fd5b506105fd600480360381019080803573ffffffffffffffffffffffffffffffffffffffff169060200190929190803573ffffffffffffffffffffffffffffffffffffffff1690602001909291905050506115cc565b6040518082815260200191505060405180910390f35b34801561061f57600080fd5b50610654600480360381019080803573ffffffffffffffffffffffffffffffffffffffff1690602001909291905050506115f1565b005b60018054600181600116156101000203166002900480601f0160208091040260200160405190810160405280929190818152602001828054600181600116156101000203166002900480156106ec5780601f106106c1576101008083540402835291602001916106ec565b820191906000526020600020905b8154815290600101906020018083116106cf57829003601f168201915b505050505081565b6000808211151561070457600080fd5b81600560003373ffffffffffffffffffffffffffffffffffffffff1673ffffffffffffffffffffffffffffffffffffffff168152602001908152602001600020541015151561075257600080fd5b81600760003373ffffffffffffffffffffffffffffffffffffffff1673ffffffffffffffffffffffffffffffffffffffff16815260200190815260200160002060008573ffffffffffffffffffffffffffffffffffffffff1673ffffffffffffffffffffffffffffffffffffffff168152602001908152602001600020819055506001905092915050565b60045481565b60008073ffffffffffffffffffffffffffffffffffffffff168373ffffffffffffffffffffffffffffffffffffffff161415151561082057600080fd5b60008211151561082f57600080fd5b81600560008673ffffffffffffffffffffffffffffffffffffffff1673ffffffffffffffffffffffffffffffffffffffff168152602001908152602001600020541015151561087d57600080fd5b600560008473ffffffffffffffffffffffffffffffffffffffff1673ffffffffffffffffffffffffffffffffffffffff1681526020019081526020016000205482600560008673ffffffffffffffffffffffffffffffffffffffff1673ffffffffffffffffffffffffffffffffffffffff16815260200190815260200160002054011015151561090c57600080fd5b600760008573ffffffffffffffffffffffffffffffffffffffff1673ffffffffffffffffffffffffffffffffffffffff16815260200190815260200160002060003373ffffffffffffffffffffffffffffffffffffffff1673ffffffffffffffffffffffffffffffffffffffff16815260200190815260200160002054821115151561099757600080fd5b6109e982600560008773ffffffffffffffffffffffffffffffffffffffff1673ffffffffffffffffffffffffffffffffffffffff1681526020019081526020016000205461168f90919063ffffffff16565b600560008673ffffffffffffffffffffffffffffffffffffffff1673ffffffffffffffffffffffffffffffffffffffff16815260200190815260200160002081905550610a7e82600560008673ffffffffffffffffffffffffffffffffffffffff1673ffffffffffffffffffffffffffffffffffffffff168152602001908152602001600020546116ab90919063ffffffff16565b600560008573ffffffffffffffffffffffffffffffffffffffff1673ffffffffffffffffffffffffffffffffffffffff16815260200190815260200160002081905550610b5082600760008773ffffffffffffffffffffffffffffffffffffffff1673ffffffffffffffffffffffffffffffffffffffff16815260200190815260200160002060003373ffffffffffffffffffffffffffffffffffffffff1673ffffffffffffffffffffffffffffffffffffffff1681526020019081526020016000205461168f90919063ffffffff16565b600760008673ffffffffffffffffffffffffffffffffffffffff1673ffffffffffffffffffffffffffffffffffffffff16815260200190815260200160002060003373ffffffffffffffffffffffffffffffffffffffff1673ffffffffffffffffffffffffffffffffffffffff168152602001908152602001600020819055508273ffffffffffffffffffffffffffffffffffffffff168473ffffffffffffffffffffffffffffffffffffffff167fddf252ad1be2c89b69c2b068fc378daa952ba7f163c4a11628f55a4df523b3ef846040518082815260200191505060405180910390a3600190509392505050565b600360009054906101000a900460ff1681565b6000809054906101000a900473ffffffffffffffffffffffffffffffffffffffff1673ffffffffffffffffffffffffffffffffffffffff163373ffffffffffffffffffffffffffffffffffffffff16141515610cae57600080fd5b3373ffffffffffffffffffffffffffffffffffffffff166108fc829081150290604051600060405180830381858888f19350505050158015610cf4573d6000803e3d6000fd5b5050565b600081600560003373ffffffffffffffffffffffffffffffffffffffff1673ffffffffffffffffffffffffffffffffffffffff1681526020019081526020016000205410151515610d4857600080fd5b600082111515610d5757600080fd5b610da982600560003373ffffffffffffffffffffffffffffffffffffffff1673ffffffffffffffffffffffffffffffffffffffff1681526020019081526020016000205461168f90919063ffffffff16565b600560003373ffffffffffffffffffffffffffffffffffffffff1673ffffffffffffffffffffffffffffffffffffffff16815260200190815260200160002081905550610e018260045461168f90919063ffffffff16565b6004819055503373ffffffffffffffffffffffffffffffffffffffff167fcc16f5dbb4873280815c1ee09dbd06736cffcc184412cf7a71a0fdb75d397ca5836040518082815260200191505060405180910390a260019050919050565b600081600660003373ffffffffffffffffffffffffffffffffffffffff1673ffffffffffffffffffffffffffffffffffffffff1681526020019081526020016000205410151515610eae57600080fd5b600082111515610ebd57600080fd5b610f0f82600660003373ffffffffffffffffffffffffffffffffffffffff1673ffffffffffffffffffffffffffffffffffffffff1681526020019081526020016000205461168f90919063ffffffff16565b600660003373ffffffffffffffffffffffffffffffffffffffff1673ffffffffffffffffffffffffffffffffffffffff16815260200190815260200160002081905550610fa482600560003373ffffffffffffffffffffffffffffffffffffffff1673ffffffffffffffffffffffffffffffffffffffff168152602001908152602001600020546116ab90919063ffffffff16565b600560003373ffffffffffffffffffffffffffffffffffffffff1673ffffffffffffffffffffffffffffffffffffffff168152602001908152602001600020819055503373ffffffffffffffffffffffffffffffffffffffff167f2cfce4af01bcb9d6cf6c84ee1b7c491100b8695368264146a94d71e10a63083f836040518082815260200191505060405180910390a260019050919050565b60056020528060005260406000206000915090505481565b6000809054906101000a900473ffffffffffffffffffffffffffffffffffffffff1681565b60028054600181600116156101000203166002900480601f0160208091040260200160405190810160405280929190818152602001828054600181600116156101000203166002900480156111115780601f106110e657610100808354040283529160200191611111565b820191906000526020600020905b8154815290600101906020018083116110f457829003601f168201915b505050505081565b600073ffffffffffffffffffffffffffffffffffffffff168273ffffffffffffffffffffffffffffffffffffffff161415151561115557600080fd5b60008111151561116457600080fd5b80600560003373ffffffffffffffffffffffffffffffffffffffff1673ffffffffffffffffffffffffffffffffffffffff16815260200190815260200160002054101515156111b257600080fd5b600560008373ffffffffffffffffffffffffffffffffffffffff1673ffffffffffffffffffffffffffffffffffffffff1681526020019081526020016000205481600560008573ffffffffffffffffffffffffffffffffffffffff1673ffffffffffffffffffffffffffffffffffffffff16815260200190815260200160002054011015151561124157600080fd5b61129381600560003373ffffffffffffffffffffffffffffffffffffffff1673ffffffffffffffffffffffffffffffffffffffff1681526020019081526020016000205461168f90919063ffffffff16565b600560003373ffffffffffffffffffffffffffffffffffffffff1673ffffffffffffffffffffffffffffffffffffffff1681526020019081526020016000208190555061132881600560008573ffffffffffffffffffffffffffffffffffffffff1673ffffffffffffffffffffffffffffffffffffffff168152602001908152602001600020546116ab90919063ffffffff16565b600560008473ffffffffffffffffffffffffffffffffffffffff1673ffffffffffffffffffffffffffffffffffffffff168152602001908152602001600020819055508173ffffffffffffffffffffffffffffffffffffffff163373ffffffffffffffffffffffffffffffffffffffff167fddf252ad1be2c89b69c2b068fc378daa952ba7f163c4a11628f55a4df523b3ef836040518082815260200191505060405180910390a35050565b60066020528060005260406000206000915090505481565b600081600560003373ffffffffffffffffffffffffffffffffffffffff1673ffffffffffffffffffffffffffffffffffffffff168152602001908152602001600020541015151561143c57600080fd5b60008211151561144b57600080fd5b61149d82600560003373ffffffffffffffffffffffffffffffffffffffff1673ffffffffffffffffffffffffffffffffffffffff1681526020019081526020016000205461168f90919063ffffffff16565b600560003373ffffffffffffffffffffffffffffffffffffffff1673ffffffffffffffffffffffffffffffffffffffff1681526020019081526020016000208190555061153282600660003373ffffffffffffffffffffffffffffffffffffffff1673ffffffffffffffffffffffffffffffffffffffff168152602001908152602001600020546116ab90919063ffffffff16565b600660003373ffffffffffffffffffffffffffffffffffffffff1673ffffffffffffffffffffffffffffffffffffffff168152602001908152602001600020819055503373ffffffffffffffffffffffffffffffffffffffff167ff97a274face0b5517365ad396b1fdba6f68bd3135ef603e44272adba3af5a1e0836040518082815260200191505060405180910390a260019050919050565b6007602052816000526040600020602052806000526040600020600091509150505481565b6000809054906101000a900473ffffffffffffffffffffffffffffffffffffffff1673ffffffffffffffffffffffffffffffffffffffff163373ffffffffffffffffffffffffffffffffffffffff1614151561164c57600080fd5b806000806101000a81548173ffffffffffffffffffffffffffffffffffffffff021916908373ffffffffffffffffffffffffffffffffffffffff16021790555050565b60008282111515156116a057600080fd5b818303905092915050565b600081830190508281101515156116c157600080fd5b929150505600a165627a7a72305820baa4e171ce880ba917be1d385698abceaf05e827f4b588e0fa89a573505d4ef90029"}}