{
  "opcodeHash": "0xed4eb41212426442eb9b02dfbc7b6d3b3a0e55848297e07c5ed89f8a4f634cf8",
  "metalessHash": "0x2d2cc07402c50e59c9be5c57752e487e57796fb828b558167656c0ed877c4c8c",
  "runtimeHash": "0x0575c55bafb17a4f1ecfdf5c9899a1e14fbae68d999bff237244e9d09adb0b56",
  "encodedMetadata": [
    {
      "bzzr0": "/swarm/bzzr0/0fab1ac4cb6f598e6bdccae37eeb4d9efd570eeec5437fb38cced859eca6e54c"
    }
  ],
  "abi": [
    {
      "constant": false,
      "inputs": [],
      "name": "build",
      "outputs": [
        {
          "name": "proxy",
          "type": "address"
        }
      ],
      "payable": false,
      "stateMutability": "nonpayable",
      "type": "function"
    },
    {
      "constant": true,
      "inputs": [
        {
          "name": "",
          "type": "address"
        }
      ],
      "name": "proxies",
      "outputs": [
        {
          "name": "",
          "type": "address"
        }
      ],
      "payable": false,
      "stateMutability": "view",
      "type": "function"
    },
    {
      "constant": false,
      "inputs": [
        {
          "name": "owner",
          "type": "address"
        }
      ],
      "name": "build",
      "outputs": [
        {
          "name": "proxy",
          "type": "address"
        }
      ],
      "payable": false,
      "stateMutability": "nonpayable",
      "type": "function"
    },
    {
      "inputs": [
        {
          "name": "factory_",
          "type": "address"
        }
      ],
      "payable": false,
      "stateMutability": "nonpayable",
      "type": "constructor"
    }
  ],
  "bytecode": {
    "object": "608060405234801561001057600080fd5b506040516020806105f58339810180604052810190808051906020019092919050505080600160006101000a81548173ffffffffffffffffffffffffffffffffffffffff021916908373ffffffffffffffffffffffffffffffffffffffff16021790555050610571806100846000396000f300608060405260043610610057576000357c0100000000000000000000000000000000000000000000000000000000900463ffffffff1680638e1a55fc1461005c578063c4552791146100b3578063f3701da214610136575b600080fd5b34801561006857600080fd5b506100716101b9565b604051808273ffffffffffffffffffffffffffffffffffffffff1673ffffffffffffffffffffffffffffffffffffffff16815260200191505060405180910390f35b3480156100bf57600080fd5b506100f4600480360381019080803573ffffffffffffffffffffffffffffffffffffffff1690602001909291905050506101c9565b604051808273ffffffffffffffffffffffffffffffffffffffff1673ffffffffffffffffffffffffffffffffffffffff16815260200191505060405180910390f35b34801561014257600080fd5b50610177600480360381019080803573ffffffffffffffffffffffffffffffffffffffff1690602001909291905050506101fc565b604051808273ffffffffffffffffffffffffffffffffffffffff1673ffffffffffffffffffffffffffffffffffffffff16815260200191505060405180910390f35b60006101c4336101fc565b905090565b60006020528060005260406000206000915054906101000a900473ffffffffffffffffffffffffffffffffffffffff1681565b60008073ffffffffffffffffffffffffffffffffffffffff166000808473ffffffffffffffffffffffffffffffffffffffff1673ffffffffffffffffffffffffffffffffffffffff16815260200190815260200160002060009054906101000a900473ffffffffffffffffffffffffffffffffffffffff1673ffffffffffffffffffffffffffffffffffffffff1614806103be57508173ffffffffffffffffffffffffffffffffffffffff166000808473ffffffffffffffffffffffffffffffffffffffff1673ffffffffffffffffffffffffffffffffffffffff16815260200190815260200160002060009054906101000a900473ffffffffffffffffffffffffffffffffffffffff1673ffffffffffffffffffffffffffffffffffffffff16638da5cb5b6040518163ffffffff167c0100000000000000000000000000000000000000000000000000000000028152600401602060405180830381600087803b15801561036a57600080fd5b505af115801561037e573d6000803e3d6000fd5b505050506040513d602081101561039457600080fd5b810190808051906020019092919050505073ffffffffffffffffffffffffffffffffffffffff1614155b15156103c957600080fd5b600160009054906101000a900473ffffffffffffffffffffffffffffffffffffffff1673ffffffffffffffffffffffffffffffffffffffff1663f3701da2836040518263ffffffff167c0100000000000000000000000000000000000000000000000000000000028152600401808273ffffffffffffffffffffffffffffffffffffffff1673ffffffffffffffffffffffffffffffffffffffff168152602001915050602060405180830381600087803b15801561048657600080fd5b505af115801561049a573d6000803e3d6000fd5b505050506040513d60208110156104b057600080fd5b81019080805190602001909291905050509050806000808473ffffffffffffffffffffffffffffffffffffffff1673ffffffffffffffffffffffffffffffffffffffff16815260200190815260200160002060006101000a81548173ffffffffffffffffffffffffffffffffffffffff021916908373ffffffffffffffffffffffffffffffffffffffff1602179055509190505600a165627a7a723058201ed19e5906c85594d421356a36ea9fa90f194e6ba05fc1bcf67862191fca45780029"
  }
}