{"compiler":"v0.6.6+commit.6c089d02","opcodeHash":"0x69bf61c1bd2c078d06abd65e70361852d2efdf966e90c77ec117e0cf7f64e578","metalessHash":"0xa148352fab364efcc895990b1eb3f6041729810e6e7c1d3e7793d8f997a8e5ce","runtimeHash":"0xd8f233aec5e48a6263267f1f05fce187604b5a6375da40e508324861e648badd","encodedMetadata":[{"ipfs":"/ipfs/QmRishGbWMfibhuPypSibax5Jbmcnf5CXjoJWsUfrdsAba","solc":"0.6.6"}],"abi":[{"inputs":[],"stateMutability":"nonpayable","type":"constructor"},{"inputs":[{"internalType":"uint256","name":"tips","type":"uint256"},{"internalType":"bytes","name":"swapdata","type":"bytes"}],"name":"arbswapn","outputs":[],"stateMutability":"payable","type":"function"},{"inputs":[{"internalType":"bytes32[5]","name":"info","type":"bytes32[5]"}],"name":"arbswapnfive","outputs":[],"stateMutability":"payable","type":"function"},{"inputs":[{"internalType":"bytes32[4]","name":"info","type":"bytes32[4]"}],"name":"arbswapnfour","outputs":[],"stateMutability":"payable","type":"function"},{"inputs":[{"internalType":"bytes32[6]","name":"info","type":"bytes32[6]"}],"name":"arbswapnsix","outputs":[],"stateMutability":"payable","type":"function"},{"inputs":[],"name":"deposit","outputs":[],"stateMutability":"payable","type":"function"},{"inputs":[],"name":"owner","outputs":[{"internalType":"address payable","name":"","type":"address"}],"stateMutability":"view","type":"function"},{"inputs":[{"internalType":"uint256","name":"amountin","type":"uint256"},{"internalType":"address[]","name":"pools","type":"address[]"},{"internalType":"address[]","name":"tokens","type":"address[]"},{"internalType":"uint256[]","name":"flags","type":"uint256[]"}],"name":"simulateoutput","outputs":[{"internalType":"uint256[]","name":"amounts","type":"uint256[]"}],"stateMutability":"nonpayable","type":"function"},{"inputs":[{"internalType":"int256","name":"amount0Delta","type":"int256"},{"internalType":"int256","name":"amount1Delta","type":"int256"},{"internalType":"bytes","name":"_data","type":"bytes"}],"name":"uniswapV3SwapCallback","outputs":[],"stateMutability":"nonpayable","type":"function"},{"inputs":[],"name":"withdrawethall","outputs":[],"stateMutability":"nonpayable","type":"function"},{"inputs":[{"internalType":"uint256","name":"amount","type":"uint256"}],"name":"withdrawethamount","outputs":[],"stateMutability":"nonpayable","type":"function"},{"inputs":[{"internalType":"address","name":"tokenaddr","type":"address"},{"internalType":"uint256","name":"amount","type":"uint256"}],"name":"withdrawtoken","outputs":[],"stateMutability":"nonpayable","type":"function"},{"inputs":[{"internalType":"address","name":"tokenaddr","type":"address"}],"name":"withdrawtokenall","outputs":[],"stateMutability":"nonpayable","type":"function"},{"stateMutability":"payable","type":"receive"}],"bytecode":{"object":"6080604052600180546001600160a01b031990811673b27308f9f90d607463bb33ea1bebb41c27ce5ab61791829055600280549091166001600160a01b039290921691909117905534801561005357600080fd5b50600080546001600160a01b03191633179055611ef6806100756000396000f3fe6080604052600436106100ab5760003560e01c8063c90ee9f711610064578063c90ee9f71461015f578063d0e30db014610172578063d2b58fb61461017a578063d52005cb1461019a578063e6c31644146101ad578063fa461e33146101da576100b2565b806367fb03cd146100b75780636f1854d4146100cc5780637fc359d4146100df5780638cd40c9d146100ff5780638da5cb5b1461011f578063b9a3daf91461014a576100b2565b366100b257005b600080fd5b6100ca6100c5366004611804565b6101fa565b005b6100ca6100da36600461182a565b6104de565b3480156100eb57600080fd5b506100ca6100fa3660046118de565b610549565b34801561010b57600080fd5b506100ca61011a3660046117da565b610591565b34801561012b57600080fd5b506101346105c0565b6040516101419190611be6565b60405180910390f35b34801561015657600080fd5b506100ca6105cf565b6100ca61016d3660046119f4565b610612565b6100ca610af6565b34801561018657600080fd5b506100ca6101953660046117b8565b610af8565b6100ca6101a836600461184a565b610b9d565b3480156101b957600080fd5b506101cd6101c836600461190e565b610c0e565b6040516101419190611cb6565b3480156101e657600080fd5b506100ca6101f536600461188d565b610d7a565b34431115610207576104db565b3373777777218f0e4dd543d31732c1e2fdd8617ed0d0146102435760405162461bcd60e51b815260040161023a90611e0d565b60405180910390fd5b6040805160609161026891843591602080870135929187013591878701359101611b2c565b60405160208183030381529060405290506000600561028883601361125f565b60ff16901c60011660ff166001149050600060066102a784601361125f565b60ff16901c60ff16905060006102be84602061126d565b905060008060046102d087600061125f565b60ff16901c60ff169050808414156102ea573091506102fd565b6102fa868560210260200161126d565b91505b6060600087604051602001610313929190611d33565b60405160208183030381529060405290506000602061033389601461127c565b6001600160801b0316901c6001600160601b03166001600160801b03169050600080866001600160a01b031663128acb08878b868d6103865773fffd8963efd1fc6a506488495d951d5263988d2561038d565b6401000276a45b896040518663ffffffff1660e01b81526004016103ae959493929190611c57565b6040805180830381600087803b1580156103c757600080fd5b505af11580156103db573d6000803e3d6000fd5b505050506040513d601f19601f820116820180604052508101906103ff919061186a565b91509150600060046104128c601361125f565b60ff16901c60011660ff16600114905080156104cf57891561048157601861043b8c600a611284565b6001600160601b0316901c68ffffffffffffffffff166001600160601b031682600003101561047c5760405162461bcd60e51b815260040161023a90611dae565b6104cf565b601861048e8c600a611284565b6001600160601b0316901c68ffffffffffffffffff166001600160601b03168360000310156104cf5760405162461bcd60e51b815260040161023a90611dae565b50505050505050505050505b50565b344311156104eb576104db565b3373777777218f0e4dd543d31732c1e2fdd8617ed0d01461051e5760405162461bcd60e51b815260040161023a90611e0d565b6040805160609161026891843591602080870135929187013591878701359160808901359101611b47565b6000546001600160a01b0316331461056057600080fd5b604051339082156108fc029083906000818181858888f1935050505015801561058d573d6000803e3d6000fd5b5050565b6000546001600160a01b031633146105a857600080fd5b60005461058d9083906001600160a01b03168361128c565b6000546001600160a01b031681565b6000546001600160a01b031633146105e657600080fd5b60405133904780156108fc02916000818181858888f193505050501580156104db573d6000803e3d6000fd5b3443111561061f57610af1565b60005a6040516370a0823160e01b815290915060009073c02aaa39b223fe8d0a0e5c4f27ead9083c756cc2906370a082319061065f903090600401611be6565b60206040518083038186803b15801561067757600080fd5b505afa15801561068b573d6000803e3d6000fd5b505050506040513d601f19601f820116820180604052508101906106af91906118f6565b9050600060056106f786868080601f0160208091040260200160405190810160405280939291908181526020018383808284376000920191909152506013925061125f915050565b60ff16901c60011660ff1660011490506000600661074d87878080601f0160208091040260200160405190810160405280939291908181526020018383808284376000920191909152506013925061125f915050565b60ff16901c60ff169050600061079b87878080601f0160208091040260200160405190810160405280939291908181526020018383808284376000920191909152506020925061126d915050565b905060008060046107e18a8a8080601f0160208091040260200160405190810160405280939291908181526020018383808284376000920182905250925061125f915050565b60ff16901c60ff169050808414156107fb57309150610843565b61084089898080601f0160208091040260200160405190810160405280939291908181526020018383808284376000920191909152505050506021860260200161126d565b91505b606060008a8a60405160200161085b93929190611cfa565b60408051601f198184030181526020601f8d018190048102840181019092528b835292506000916108a7908d8d808386018382808284376000920191909152506014925061127c915050565b6001600160801b0316901c6001600160601b03166001600160801b03169050846001600160a01b031663128acb088589848b6108f75773fffd8963efd1fc6a506488495d951d5263988d256108fe565b6401000276a45b876040518663ffffffff1660e01b815260040161091f959493929190611c57565b6040805180830381600087803b15801561093857600080fd5b505af115801561094c573d6000803e3d6000fd5b505050506040513d601f19601f82011682018060405250810190610970919061186a565b5050604051632e1a7d4d60e01b815273c02aaa39b223fe8d0a0e5c4f27ead9083c756cc290632e1a7d4d906109a9908f90600401611e2b565b600060405180830381600087803b1580156109c357600080fd5b505af11580156109d7573d6000803e3d6000fd5b5050604080516000815260208101918290524193508f92506109f891611b92565b60006040518083038185875af1925050503d8060008114610a35576040519150601f19603f3d011682016040523d82523d6000602084013e610a3a565b606091505b5050505a89033a02880173c02aaa39b223fe8d0a0e5c4f27ead9083c756cc26001600160a01b03166370a08231306040518263ffffffff1660e01b8152600401610a849190611be6565b60206040518083038186803b158015610a9c57600080fd5b505afa158015610ab0573d6000803e3d6000fd5b505050506040513d601f19601f82011682018060405250810190610ad491906118f6565b116104cf5760405162461bcd60e51b815260040161023a90611def565b505050565b565b6000546001600160a01b03163314610b0f57600080fd5b6000546040516370a0823160e01b81526104db9183916001600160a01b03918216918316906370a0823190610b48903090600401611be6565b60206040518083038186803b158015610b6057600080fd5b505afa158015610b74573d6000803e3d6000fd5b505050506040513d601f19601f82011682018060405250810190610b9891906118f6565b61128c565b3373777777218f0e4dd543d31732c1e2fdd8617ed0d014610bd05760405162461bcd60e51b815260040161023a90611e0d565b34431115610bdd576104db565b6040805160609161026891843591602080870135929187013591878701359160808901359160a08a01359101611b6a565b6060835167ffffffffffffffff81118015610c2857600080fd5b50604051908082528060200260200182016040528015610c52578160200160208202803683370190505b50905060005b8251811015610d71576080838281518110610c6f57fe5b6020026020010151901c60001415610cfc57610cdc858281518110610c9057fe5b6020026020010151858360010181518110610ca757fe5b60200260200101516001600160a01b0316868481518110610cc457fe5b60200260200101516001600160a01b0316108861138e565b955085828281518110610ceb57fe5b602002602001018181525050610d69565b610d4d848281518110610d0b57fe5b6020026020010151858360010181518110610d2257fe5b6020026020010151858481518110610d3657fe5b60200260200101516001600160801b031689611463565b955085828281518110610d5c57fe5b6020026020010181815250505b600101610c58565b50949350505050565b60006060610d8a83850185611a3e565b915091506000806004610d9e84600061125f565b60ff16901c60ff1690506000610dbf848660020284602102601301016114f7565b61ffff1690506000610dd7858760210260130161125f565b600f81169150600380821691600290811c90911690600090610df9898361125f565b60ff16901c60031660ff169350610e60731f98431c8ad98523631ae4a59f267346ea31f984610e5b610e3b8b87601402896002028c602102601301010161126d565b610e558c876014028a6002028d602102601301010161126d565b896114ff565b611555565b9050336001600160a01b03821614610e7757600080fd5b838960010114156110e1576018610e8f896001611284565b6001600160601b0316901c68ffffffffffffffffff166001600160601b03169250610ebb88600061125f565b6003169150610ed0886020602185020161126d565b9050610ef173c02aaa39b223fe8d0a0e5c4f27ead9083c756cc2828561128c565b85841415610f0757505050505050505050611259565b600189015b868110156110d2576004610f268a8360210260130161125f565b60ff16901c60ff16935086841415610f4057309150610f53565b610f50898560210260200161126d565b91505b6020610f658a8360210260140161127c565b6001600160801b0316901c6001600160601b03166001600160801b03169350610f94898260210260130161125f565b60031660ff166001141561104657610fb2898260210260200161126d565b6001600160a01b031663022c0d9f60008685826040519080825280601f01601f191660200182016040528015610fef576020820181803683370190505b506040518563ffffffff1660e01b815260040161100f9493929190611d57565b600060405180830381600087803b15801561102957600080fd5b505af115801561103d573d6000803e3d6000fd5b505050506110ca565b611056898260210260200161126d565b604080516000808252602082019283905263022c0d9f60e01b9092526001600160a01b03929092169163022c0d9f9161109791889190879060248101611d57565b600060405180830381600087803b1580156110b157600080fd5b505af11580156110c5573d6000803e3d6000fd5b505050505b600101610f0c565b50505050505050505050611259565b8860010198506110f7888a60210260130161125f565b60ff169250600683901c9150600583901c600116925082600114965060608989604051602001611128929190611e34565b6040516020818303038152906040529050868314156111495730915061115c565b611159898460210260200161126d565b91505b600061116e8a8c60210260200161126d565b905060206111828b8d60210260140161127c565b6001600160801b0316901c6001600160601b03166001600160801b03169550806001600160a01b031663128acb08848b898d6111d25773fffd8963efd1fc6a506488495d951d5263988d256111d9565b6401000276a45b876040518663ffffffff1660e01b81526004016111fa959493929190611c57565b6040805180830381600087803b15801561121357600080fd5b505af1158015611227573d6000803e3d6000fd5b505050506040513d601f19601f8201168201806040525081019061124b919061186a565b505050505050505050505050505b50505050565b818101600101515b92915050565b0160200151600160601b900490565b016010015190565b01600c015190565b604080518082018252601981527f7472616e7366657228616464726573732c75696e743235362900000000000000602090910152516000906060906001600160a01b038616907fa9059cbb2ab09eb219583f4a59a5d0623ade346d962bcd4e46b11da047c9049b906113049087908790602401611c9d565b60408051601f198184030181529181526020820180516001600160e01b03166001600160e01b03199094169390931790925290516113429190611b92565b6000604051808303816000865af19150503d806000811461137f576040519150601f19603f3d011682016040523d82523d6000602084013e611384565b606091505b5050505050505050565b60408051600481526024810182526020810180516001600160e01b0316630240bc6b60e21b17905290516000916060916001600160a01b038716916113d291611b92565b600060405180830381855afa9150503d806000811461140d576040519150601f19603f3d011682016040523d82523d6000602084013e611412565b606091505b50905080915050600080828060200190518101906114309190611ad3565b509150915060008087611444578284611447565b83835b915091506114568783836115e0565b9998505050505050505050565b60025460405163f7729d4360e01b81526000916001600160a01b03169063f7729d439061149c9088908890889088908890600401611c22565b602060405180830381600087803b1580156114b657600080fd5b505af11580156114ca573d6000803e3d6000fd5b505050506040513d601f19601f820116820180604052508101906114ee91906118f6565b95945050505050565b016002015190565b6115076116c4565b826001600160a01b0316846001600160a01b03161115611525579192915b50604080516060810182526001600160a01b03948516815292909316602083015262ffffff169181019190915290565b60008282600001518360200151846040015160405160200161157993929190611bfa565b60408051601f198184030181529082905280516020918201206115c1939290917fe34f199b19b2b4f47f68442619d555527d244f78a3297ea89325f843f87b8b549101611bae565b60408051601f1981840301815291905280516020909101209392505050565b60008084116116015760405162461bcd60e51b815260040161023a90611d8e565b6000831180156116115750600082115b61162d5760405162461bcd60e51b815260040161023a90611dcc565b6000611641856103e563ffffffff61169216565b90506000611655828563ffffffff61169216565b9050600061167b8361166f886103e863ffffffff61169216565b9063ffffffff6116b716565b905080828161168657fe5b04979650505050505050565b6000826116a157506000611267565b50818102818382816116af57fe5b041461126757fe5b8181018281101561126757fe5b604080516060810182526000808252602082018190529181019190915290565b80356001600160a01b038116811461126757600080fd5b600082601f83011261170b578081fd5b813561171e61171982611e74565b611e4d565b81815291506020808301908481018184028601820187101561173f57600080fd5b60005b848110156117665761175488836116e4565b84529282019290820190600101611742565b505050505092915050565b60008083601f840112611782578182fd5b50813567ffffffffffffffff811115611799578182fd5b6020830191508360208285010111156117b157600080fd5b9250929050565b6000602082840312156117c9578081fd5b6117d383836116e4565b9392505050565b600080604083850312156117ec578081fd5b6117f684846116e4565b946020939093013593505050565b600060808284031215611815578081fd5b82608083011115611824578081fd5b50919050565b600060a0828403121561183b578081fd5b8260a083011115611824578081fd5b600060c0828403121561185b578081fd5b8260c083011115611824578081fd5b6000806040838503121561187c578182fd5b505080516020909101519092909150565b600080600080606085870312156118a2578182fd5b8435935060208501359250604085013567ffffffffffffffff8111156118c6578283fd5b6118d287828801611771565b95989497509550505050565b6000602082840312156118ef578081fd5b5035919050565b600060208284031215611907578081fd5b5051919050565b60008060008060808587031215611923578384fd5b8435935060208086013567ffffffffffffffff80821115611942578586fd5b61194e89838a016116fb565b95506040880135915080821115611963578485fd5b61196f89838a016116fb565b94506060880135915080821115611984578384fd5b5080870188601f820112611996578384fd5b803591506119a661171983611e74565b82815283810190828501858502840186018c10156119c2578687fd5b8693505b848410156119e45780358352600193909301929185019185016119c6565b50979a9699509497505050505050565b600080600060408486031215611a08578283fd5b83359250602084013567ffffffffffffffff811115611a25578283fd5b611a3186828701611771565b9497909650939450505050565b60008060408385031215611a50578081fd5b8235915060208084013567ffffffffffffffff80821115611a6f578384fd5b81860187601f820112611a80578485fd5b8035925081831115611a90578485fd5b611aa2601f8401601f19168501611e4d565b91508282528784848301011115611ab7578485fd5b8284820185840137509081019091019190915290939092509050565b600080600060608486031215611ae7578081fd5b8351925060208401519150604084015190509250925092565b60008151808452611b18816020860160208601611e94565b601f01601f19169290920160200192915050565b93845260208401929092526040830152606082015260800190565b948552602085019390935260408401919091526060830152608082015260a00190565b958652602086019490945260408501929092526060840152608083015260a082015260c00190565b60008251611ba4818460208701611e94565b9190910192915050565b6001600160f81b0319815260609390931b6bffffffffffffffffffffffff191660018401526015830191909152603582015260550190565b6001600160a01b0391909116815260200190565b6001600160a01b03938416815291909216602082015262ffffff909116604082015260600190565b6001600160a01b039586168152938516602085015262ffffff9290921660408401526060830152909116608082015260a00190565b6001600160a01b0386811682528515156020830152604082018590528316606082015260a060808201819052600090611c9290830184611b00565b979650505050505050565b6001600160a01b03929092168252602082015260400190565b6020808252825182820181905260009190848201906040850190845b81811015611cee57835183529284019291840191600101611cd2565b50909695505050505050565b600060ff851682526040602083015282604083015282846060840137818301606090810191909152601f909201601f1916010192915050565b600060ff8416825260406020830152611d4f6040830184611b00565b949350505050565b600085825284602083015260018060a01b038416604083015260806060830152611d846080830184611b00565b9695505050505050565b602080825260069082015265105353d5539560d21b604082015260600190565b6020808252600490820152631cda1a5d60e21b604082015260600190565b6020808252600990820152684c495155494449545960b81b604082015260600190565b6020808252600490820152633230b6b760e11b604082015260600190565b6020808252600490820152636675636b60e01b604082015260600190565b90815260200190565b600083825260406020830152611d4f6040830184611b00565b60405181810167ffffffffffffffff81118282101715611e6c57600080fd5b604052919050565b600067ffffffffffffffff821115611e8a578081fd5b5060209081020190565b60005b83811015611eaf578181015183820152602001611e97565b83811115611259575050600091015256fea2646970667358221220e5e12babc81788de397104350284c5d6ec3ebacbce2dec3ddd40aeb761fc80fc64736f6c63430006060033"}}