{
  "opcodeHash": "0xc849a90dd819f5fffaa60d66d242101529eafcafc8a14420800c6c13481a24a7",
  "metalessHash": "0x7bbf6f2585556f07e08969dd158be9068fb6dc6f5ce0551698370785333d55ad",
  "runtimeHash": "0x921c99552182f6fd992098aedaf25ec5efe913aee511036b627ae0a64c4a72b0",
  "encodedMetadata": [
    {
      "ipfs": "/ipfs/QmW6BuAM8VXenJohxE4YM3TfJU4QnGimsf52JWbSq9c8p2",
      "solc": "0.8.7"
    }
  ],
  "abi": [
    {
      "inputs": [
        {
          "internalType": "string",
          "name": "_name",
          "type": "string"
        },
        {
          "internalType": "string",
          "name": "_symbol",
          "type": "string"
        },
        {
          "internalType": "string",
          "name": "_initBaseURI",
          "type": "string"
        },
        {
          "internalType": "string",
          "name": "_initNotRevealedUri",
          "type": "string"
        }
      ],
      "stateMutability": "nonpayable",
      "type": "constructor"
    },
    {
      "anonymous": false,
      "inputs": [
        {
          "indexed": true,
          "internalType": "address",
          "name": "owner",
          "type": "address"
        },
        {
          "indexed": true,
          "internalType": "address",
          "name": "approved",
          "type": "address"
        },
        {
          "indexed": true,
          "internalType": "uint256",
          "name": "tokenId",
          "type": "uint256"
        }
      ],
      "name": "Approval",
      "type": "event"
    },
    {
      "anonymous": false,
      "inputs": [
        {
          "indexed": true,
          "internalType": "address",
          "name": "owner",
          "type": "address"
        },
        {
          "indexed": true,
          "internalType": "address",
          "name": "operator",
          "type": "address"
        },
        {
          "indexed": false,
          "internalType": "bool",
          "name": "approved",
          "type": "bool"
        }
      ],
      "name": "ApprovalForAll",
      "type": "event"
    },
    {
      "anonymous": false,
      "inputs": [
        {
          "indexed": true,
          "internalType": "address",
          "name": "previousOwner",
          "type": "address"
        },
        {
          "indexed": true,
          "internalType": "address",
          "name": "newOwner",
          "type": "address"
        }
      ],
      "name": "OwnershipTransferred",
      "type": "event"
    },
    {
      "anonymous": false,
      "inputs": [
        {
          "indexed": true,
          "internalType": "address",
          "name": "from",
          "type": "address"
        },
        {
          "indexed": true,
          "internalType": "address",
          "name": "to",
          "type": "address"
        },
        {
          "indexed": true,
          "internalType": "uint256",
          "name": "tokenId",
          "type": "uint256"
        }
      ],
      "name": "Transfer",
      "type": "event"
    },
    {
      "inputs": [
        {
          "internalType": "address",
          "name": "to",
          "type": "address"
        },
        {
          "internalType": "uint256",
          "name": "tokenId",
          "type": "uint256"
        }
      ],
      "name": "approve",
      "outputs": [],
      "stateMutability": "nonpayable",
      "type": "function"
    },
    {
      "inputs": [
        {
          "internalType": "address",
          "name": "owner",
          "type": "address"
        }
      ],
      "name": "balanceOf",
      "outputs": [
        {
          "internalType": "uint256",
          "name": "",
          "type": "uint256"
        }
      ],
      "stateMutability": "view",
      "type": "function"
    },
    {
      "inputs": [],
      "name": "baseExtension",
      "outputs": [
        {
          "internalType": "string",
          "name": "",
          "type": "string"
        }
      ],
      "stateMutability": "view",
      "type": "function"
    },
    {
      "inputs": [],
      "name": "cost",
      "outputs": [
        {
          "internalType": "uint256",
          "name": "",
          "type": "uint256"
        }
      ],
      "stateMutability": "view",
      "type": "function"
    },
    {
      "inputs": [
        {
          "internalType": "uint256",
          "name": "tokenId",
          "type": "uint256"
        }
      ],
      "name": "getApproved",
      "outputs": [
        {
          "internalType": "address",
          "name": "",
          "type": "address"
        }
      ],
      "stateMutability": "view",
      "type": "function"
    },
    {
      "inputs": [
        {
          "internalType": "address",
          "name": "owner",
          "type": "address"
        },
        {
          "internalType": "address",
          "name": "operator",
          "type": "address"
        }
      ],
      "name": "isApprovedForAll",
      "outputs": [
        {
          "internalType": "bool",
          "name": "",
          "type": "bool"
        }
      ],
      "stateMutability": "view",
      "type": "function"
    },
    {
      "inputs": [],
      "name": "maxMintAmount",
      "outputs": [
        {
          "internalType": "uint256",
          "name": "",
          "type": "uint256"
        }
      ],
      "stateMutability": "view",
      "type": "function"
    },
    {
      "inputs": [],
      "name": "maxSupply",
      "outputs": [
        {
          "internalType": "uint256",
          "name": "",
          "type": "uint256"
        }
      ],
      "stateMutability": "view",
      "type": "function"
    },
    {
      "inputs": [
        {
          "internalType": "uint256",
          "name": "_mintAmount",
          "type": "uint256"
        }
      ],
      "name": "mint",
      "outputs": [],
      "stateMutability": "payable",
      "type": "function"
    },
    {
      "inputs": [
        {
          "internalType": "uint256",
          "name": "_mintAmount",
          "type": "uint256"
        }
      ],
      "name": "mintForOwner",
      "outputs": [],
      "stateMutability": "nonpayable",
      "type": "function"
    },
    {
      "inputs": [],
      "name": "name",
      "outputs": [
        {
          "internalType": "string",
          "name": "",
          "type": "string"
        }
      ],
      "stateMutability": "view",
      "type": "function"
    },
    {
      "inputs": [],
      "name": "notRevealedUri",
      "outputs": [
        {
          "internalType": "string",
          "name": "",
          "type": "string"
        }
      ],
      "stateMutability": "view",
      "type": "function"
    },
    {
      "inputs": [],
      "name": "owner",
      "outputs": [
        {
          "internalType": "address",
          "name": "",
          "type": "address"
        }
      ],
      "stateMutability": "view",
      "type": "function"
    },
    {
      "inputs": [
        {
          "internalType": "uint256",
          "name": "tokenId",
          "type": "uint256"
        }
      ],
      "name": "ownerOf",
      "outputs": [
        {
          "internalType": "address",
          "name": "",
          "type": "address"
        }
      ],
      "stateMutability": "view",
      "type": "function"
    },
    {
      "inputs": [
        {
          "internalType": "bool",
          "name": "_state",
          "type": "bool"
        }
      ],
      "name": "pause",
      "outputs": [],
      "stateMutability": "nonpayable",
      "type": "function"
    },
    {
      "inputs": [],
      "name": "paused",
      "outputs": [
        {
          "internalType": "bool",
          "name": "",
          "type": "bool"
        }
      ],
      "stateMutability": "view",
      "type": "function"
    },
    {
      "inputs": [],
      "name": "renounceOwnership",
      "outputs": [],
      "stateMutability": "nonpayable",
      "type": "function"
    },
    {
      "inputs": [],
      "name": "reveal",
      "outputs": [],
      "stateMutability": "nonpayable",
      "type": "function"
    },
    {
      "inputs": [],
      "name": "revealed",
      "outputs": [
        {
          "internalType": "bool",
          "name": "",
          "type": "bool"
        }
      ],
      "stateMutability": "view",
      "type": "function"
    },
    {
      "inputs": [
        {
          "internalType": "address",
          "name": "from",
          "type": "address"
        },
        {
          "internalType": "address",
          "name": "to",
          "type": "address"
        },
        {
          "internalType": "uint256",
          "name": "tokenId",
          "type": "uint256"
        }
      ],
      "name": "safeTransferFrom",
      "outputs": [],
      "stateMutability": "nonpayable",
      "type": "function"
    },
    {
      "inputs": [
        {
          "internalType": "address",
          "name": "from",
          "type": "address"
        },
        {
          "internalType": "address",
          "name": "to",
          "type": "address"
        },
        {
          "internalType": "uint256",
          "name": "tokenId",
          "type": "uint256"
        },
        {
          "internalType": "bytes",
          "name": "_data",
          "type": "bytes"
        }
      ],
      "name": "safeTransferFrom",
      "outputs": [],
      "stateMutability": "nonpayable",
      "type": "function"
    },
    {
      "inputs": [
        {
          "internalType": "address",
          "name": "operator",
          "type": "address"
        },
        {
          "internalType": "bool",
          "name": "approved",
          "type": "bool"
        }
      ],
      "name": "setApprovalForAll",
      "outputs": [],
      "stateMutability": "nonpayable",
      "type": "function"
    },
    {
      "inputs": [
        {
          "internalType": "string",
          "name": "_newBaseExtension",
          "type": "string"
        }
      ],
      "name": "setBaseExtension",
      "outputs": [],
      "stateMutability": "nonpayable",
      "type": "function"
    },
    {
      "inputs": [
        {
          "internalType": "string",
          "name": "_newBaseURI",
          "type": "string"
        }
      ],
      "name": "setBaseURI",
      "outputs": [],
      "stateMutability": "nonpayable",
      "type": "function"
    },
    {
      "inputs": [
        {
          "internalType": "uint256",
          "name": "_newCost",
          "type": "uint256"
        }
      ],
      "name": "setCost",
      "outputs": [],
      "stateMutability": "nonpayable",
      "type": "function"
    },
    {
      "inputs": [
        {
          "internalType": "string",
          "name": "_notRevealedURI",
          "type": "string"
        }
      ],
      "name": "setNotRevealedURI",
      "outputs": [],
      "stateMutability": "nonpayable",
      "type": "function"
    },
    {
      "inputs": [
        {
          "internalType": "uint256",
          "name": "_newmaxMintAmount",
          "type": "uint256"
        }
      ],
      "name": "setmaxMintAmount",
      "outputs": [],
      "stateMutability": "nonpayable",
      "type": "function"
    },
    {
      "inputs": [
        {
          "internalType": "bytes4",
          "name": "interfaceId",
          "type": "bytes4"
        }
      ],
      "name": "supportsInterface",
      "outputs": [
        {
          "internalType": "bool",
          "name": "",
          "type": "bool"
        }
      ],
      "stateMutability": "view",
      "type": "function"
    },
    {
      "inputs": [],
      "name": "symbol",
      "outputs": [
        {
          "internalType": "string",
          "name": "",
          "type": "string"
        }
      ],
      "stateMutability": "view",
      "type": "function"
    },
    {
      "inputs": [
        {
          "internalType": "uint256",
          "name": "index",
          "type": "uint256"
        }
      ],
      "name": "tokenByIndex",
      "outputs": [
        {
          "internalType": "uint256",
          "name": "",
          "type": "uint256"
        }
      ],
      "stateMutability": "view",
      "type": "function"
    },
    {
      "inputs": [
        {
          "internalType": "address",
          "name": "owner",
          "type": "address"
        },
        {
          "internalType": "uint256",
          "name": "index",
          "type": "uint256"
        }
      ],
      "name": "tokenOfOwnerByIndex",
      "outputs": [
        {
          "internalType": "uint256",
          "name": "",
          "type": "uint256"
        }
      ],
      "stateMutability": "view",
      "type": "function"
    },
    {
      "inputs": [
        {
          "internalType": "uint256",
          "name": "tokenId",
          "type": "uint256"
        }
      ],
      "name": "tokenURI",
      "outputs": [
        {
          "internalType": "string",
          "name": "",
          "type": "string"
        }
      ],
      "stateMutability": "view",
      "type": "function"
    },
    {
      "inputs": [],
      "name": "totalSupply",
      "outputs": [
        {
          "internalType": "uint256",
          "name": "",
          "type": "uint256"
        }
      ],
      "stateMutability": "view",
      "type": "function"
    },
    {
      "inputs": [
        {
          "internalType": "address",
          "name": "from",
          "type": "address"
        },
        {
          "internalType": "address",
          "name": "to",
          "type": "address"
        },
        {
          "internalType": "uint256",
          "name": "tokenId",
          "type": "uint256"
        }
      ],
      "name": "transferFrom",
      "outputs": [],
      "stateMutability": "nonpayable",
      "type": "function"
    },
    {
      "inputs": [
        {
          "internalType": "address",
          "name": "newOwner",
          "type": "address"
        }
      ],
      "name": "transferOwnership",
      "outputs": [],
      "stateMutability": "nonpayable",
      "type": "function"
    },
    {
      "inputs": [
        {
          "internalType": "address",
          "name": "_owner",
          "type": "address"
        }
      ],
      "name": "walletOfOwner",
      "outputs": [
        {
          "internalType": "uint256[]",
          "name": "",
          "type": "uint256[]"
        }
      ],
      "stateMutability": "view",
      "type": "function"
    },
    {
      "inputs": [],
      "name": "withdraw",
      "outputs": [],
      "stateMutability": "payable",
      "type": "function"
    }
  ],
  "bytecode": {
    "object": "60c06040526005608081905264173539b7b760d91b60a09081526200002891600c919062000203565b5067011c37937e080000600d55612710600e556005600f556010805461ffff191660011790553480156200005b57600080fd5b50604051620029e5380380620029e58339810160408190526200007e9162000360565b8351849084906200009790600090602085019062000203565b508051620000ad90600190602084019062000203565b505050620000ca620000c4620000ea60201b60201c565b620000ee565b620000d58262000140565b620000e081620001a8565b505050506200046c565b3390565b600a80546001600160a01b038381166001600160a01b0319831681179093556040519116919082907f8be0079c531659141344cd1fd0a4f28419497f9722a3daafe3b4186f6b6457e090600090a35050565b600a546001600160a01b031633146200018f5760405162461bcd60e51b81526020600482018190526024820152600080516020620029c583398151915260448201526064015b60405180910390fd5b8051620001a490600b90602084019062000203565b5050565b600a546001600160a01b03163314620001f35760405162461bcd60e51b81526020600482018190526024820152600080516020620029c5833981519152604482015260640162000186565b8051620001a49060119060208401905b828054620002119062000419565b90600052602060002090601f01602090048101928262000235576000855562000280565b82601f106200025057805160ff191683800117855562000280565b8280016001018555821562000280579182015b828111156200028057825182559160200191906001019062000263565b506200028e92915062000292565b5090565b5b808211156200028e576000815560010162000293565b600082601f830112620002bb57600080fd5b81516001600160401b0380821115620002d857620002d862000456565b604051601f8301601f19908116603f0116810190828211818310171562000303576200030362000456565b816040528381526020925086838588010111156200032057600080fd5b600091505b8382101562000344578582018301518183018401529082019062000325565b83821115620003565760008385830101525b9695505050505050565b600080600080608085870312156200037757600080fd5b84516001600160401b03808211156200038f57600080fd5b6200039d88838901620002a9565b95506020870151915080821115620003b457600080fd5b620003c288838901620002a9565b94506040870151915080821115620003d957600080fd5b620003e788838901620002a9565b93506060870151915080821115620003fe57600080fd5b506200040d87828801620002a9565b91505092959194509250565b600181811c908216806200042e57607f821691505b602082108114156200045057634e487b7160e01b600052602260045260246000fd5b50919050565b634e487b7160e01b600052604160045260246000fd5b612549806200047c6000396000f3fe60806040526004361061021a5760003560e01c80635c975abb11610123578063a22cb465116100ab578063d5abeb011161006f578063d5abeb01146105e7578063da3ef23f146105fd578063e985e9c51461061d578063f2c4ce1e14610666578063f2fde38b1461068657600080fd5b8063a22cb4651461055d578063a475b5dd1461057d578063b88d4fde14610592578063c6682862146105b2578063c87b56dd146105c757600080fd5b8063715018a6116100f2578063715018a6146104e25780637f00c7a6146104f75780638da5cb5b1461051757806395d89b4114610535578063a0712d681461054a57600080fd5b80635c975abb146104685780636352211e1461048257806363bc312a146104a257806370a08231146104c257600080fd5b806323b872dd116101a6578063438b630011610175578063438b6300146103bc57806344a0d68a146103e95780634f6ccce714610409578063518302271461042957806355f804b31461044857600080fd5b806323b872dd146103545780632f745c59146103745780633ccfd60b1461039457806342842e0e1461039c57600080fd5b8063081c8c44116101ed578063081c8c44146102d0578063095ea7b3146102e557806313faede61461030557806318160ddd14610329578063239c70ae1461033e57600080fd5b806301ffc9a71461021f57806302329a291461025457806306fdde0314610276578063081812fc14610298575b600080fd5b34801561022b57600080fd5b5061023f61023a36600461209f565b6106a6565b60405190151581526020015b60405180910390f35b34801561026057600080fd5b5061027461026f366004612084565b6106d1565b005b34801561028257600080fd5b5061028b610717565b60405161024b91906122ac565b3480156102a457600080fd5b506102b86102b3366004612122565b6107a9565b6040516001600160a01b03909116815260200161024b565b3480156102dc57600080fd5b5061028b61083e565b3480156102f157600080fd5b5061027461030036600461205a565b6108cc565b34801561031157600080fd5b5061031b600d5481565b60405190815260200161024b565b34801561033557600080fd5b5060085461031b565b34801561034a57600080fd5b5061031b600f5481565b34801561036057600080fd5b5061027461036f366004611f78565b6109e2565b34801561038057600080fd5b5061031b61038f36600461205a565b610a13565b610274610aa9565b3480156103a857600080fd5b506102746103b7366004611f78565b610bc5565b3480156103c857600080fd5b506103dc6103d7366004611f2a565b610be0565b60405161024b9190612268565b3480156103f557600080fd5b50610274610404366004612122565b610c82565b34801561041557600080fd5b5061031b610424366004612122565b610cb1565b34801561043557600080fd5b5060105461023f90610100900460ff1681565b34801561045457600080fd5b506102746104633660046120d9565b610d44565b34801561047457600080fd5b5060105461023f9060ff1681565b34801561048e57600080fd5b506102b861049d366004612122565b610d81565b3480156104ae57600080fd5b506102746104bd366004612122565b610df8565b3480156104ce57600080fd5b5061031b6104dd366004611f2a565b610ea3565b3480156104ee57600080fd5b50610274610f2a565b34801561050357600080fd5b50610274610512366004612122565b610f60565b34801561052357600080fd5b50600a546001600160a01b03166102b8565b34801561054157600080fd5b5061028b610f8f565b610274610558366004612122565b610f9e565b34801561056957600080fd5b50610274610578366004612030565b611034565b34801561058957600080fd5b506102746110f9565b34801561059e57600080fd5b506102746105ad366004611fb4565b611134565b3480156105be57600080fd5b5061028b61116c565b3480156105d357600080fd5b5061028b6105e2366004612122565b611179565b3480156105f357600080fd5b5061031b600e5481565b34801561060957600080fd5b506102746106183660046120d9565b6112f8565b34801561062957600080fd5b5061023f610638366004611f45565b6001600160a01b03918216600090815260056020908152604080832093909416825291909152205460ff1690565b34801561067257600080fd5b506102746106813660046120d9565b611335565b34801561069257600080fd5b506102746106a1366004611f2a565b611372565b60006001600160e01b0319821663780e9d6360e01b14806106cb57506106cb8261140d565b92915050565b600a546001600160a01b031633146107045760405162461bcd60e51b81526004016106fb90612311565b60405180910390fd5b6010805460ff1916911515919091179055565b60606000805461072690612425565b80601f016020809104026020016040519081016040528092919081815260200182805461075290612425565b801561079f5780601f106107745761010080835404028352916020019161079f565b820191906000526020600020905b81548152906001019060200180831161078257829003601f168201915b5050505050905090565b6000818152600260205260408120546001600160a01b03166108225760405162461bcd60e51b815260206004820152602c60248201527f4552433732313a20617070726f76656420717565727920666f72206e6f6e657860448201526b34b9ba32b73a103a37b5b2b760a11b60648201526084016106fb565b506000908152600460205260409020546001600160a01b031690565b6011805461084b90612425565b80601f016020809104026020016040519081016040528092919081815260200182805461087790612425565b80156108c45780601f10610899576101008083540402835291602001916108c4565b820191906000526020600020905b8154815290600101906020018083116108a757829003601f168201915b505050505081565b60006108d782610d81565b9050806001600160a01b0316836001600160a01b031614156109455760405162461bcd60e51b815260206004820152602160248201527f4552433732313a20617070726f76616c20746f2063757272656e74206f776e656044820152603960f91b60648201526084016106fb565b336001600160a01b038216148061096157506109618133610638565b6109d35760405162461bcd60e51b815260206004820152603860248201527f4552433732313a20617070726f76652063616c6c6572206973206e6f74206f7760448201527f6e6572206e6f7220617070726f76656420666f7220616c6c000000000000000060648201526084016106fb565b6109dd838361145d565b505050565b6109ec33826114cb565b610a085760405162461bcd60e51b81526004016106fb90612346565b6109dd8383836115c2565b6000610a1e83610ea3565b8210610a805760405162461bcd60e51b815260206004820152602b60248201527f455243373231456e756d657261626c653a206f776e657220696e646578206f7560448201526a74206f6620626f756e647360a81b60648201526084016106fb565b506001600160a01b03919091166000908152600660209081526040808320938352929052205490565b600a546001600160a01b03163314610ad35760405162461bcd60e51b81526004016106fb90612311565b60007397d348fe58478a1fa29de4726134815a578348806064610af74760326123c3565b610b0191906123af565b604051600081818185875af1925050503d8060008114610b3d576040519150601f19603f3d011682016040523d82523d6000602084013e610b42565b606091505b5050905080610b5057600080fd5b6000610b64600a546001600160a01b031690565b6001600160a01b03164760405160006040518083038185875af1925050503d8060008114610bae576040519150601f19603f3d011682016040523d82523d6000602084013e610bb3565b606091505b5050905080610bc157600080fd5b5050565b6109dd83838360405180602001604052806000815250611134565b60606000610bed83610ea3565b905060008167ffffffffffffffff811115610c0a57610c0a6124e7565b604051908082528060200260200182016040528015610c33578160200160208202803683370190505b50905060005b82811015610c7a57610c4b8582610a13565b828281518110610c5d57610c5d6124d1565b602090810291909101015280610c7281612460565b915050610c39565b509392505050565b600a546001600160a01b03163314610cac5760405162461bcd60e51b81526004016106fb90612311565b600d55565b6000610cbc60085490565b8210610d1f5760405162461bcd60e51b815260206004820152602c60248201527f455243373231456e756d657261626c653a20676c6f62616c20696e646578206f60448201526b7574206f6620626f756e647360a01b60648201526084016106fb565b60088281548110610d3257610d326124d1565b90600052602060002001549050919050565b600a546001600160a01b03163314610d6e5760405162461bcd60e51b81526004016106fb90612311565b8051610bc190600b906020840190611def565b6000818152600260205260408120546001600160a01b0316806106cb5760405162461bcd60e51b815260206004820152602960248201527f4552433732313a206f776e657220717565727920666f72206e6f6e657869737460448201526832b73a103a37b5b2b760b91b60648201526084016106fb565b600a546001600160a01b03163314610e225760405162461bcd60e51b81526004016106fb90612311565b6000610e2d60085490565b60105490915060ff1615610e4057600080fd5b60008211610e4d57600080fd5b600f54821115610e5c57600080fd5b600e54610e698383612397565b1115610e7457600080fd5b60015b8281116109dd57610e9133610e8c8385612397565b61176d565b80610e9b81612460565b915050610e77565b60006001600160a01b038216610f0e5760405162461bcd60e51b815260206004820152602a60248201527f4552433732313a2062616c616e636520717565727920666f7220746865207a65604482015269726f206164647265737360b01b60648201526084016106fb565b506001600160a01b031660009081526003602052604090205490565b600a546001600160a01b03163314610f545760405162461bcd60e51b81526004016106fb90612311565b610f5e6000611787565b565b600a546001600160a01b03163314610f8a5760405162461bcd60e51b81526004016106fb90612311565b600f55565b60606001805461072690612425565b6000610fa960085490565b60105490915060ff1615610fbc57600080fd5b60008211610fc957600080fd5b600f54821115610fd857600080fd5b6126de610fe58383612397565b1115610ff057600080fd5b81600d54610ffe91906123c3565b34101561100a57600080fd5b60015b8281116109dd5761102233610e8c8385612397565b8061102c81612460565b91505061100d565b6001600160a01b03821633141561108d5760405162461bcd60e51b815260206004820152601960248201527f4552433732313a20617070726f766520746f2063616c6c65720000000000000060448201526064016106fb565b3360008181526005602090815260408083206001600160a01b03871680855290835292819020805460ff191686151590811790915590519081529192917f17307eab39ab6107e8899845ad3d59bd9653f200f220920489ca2b5937696c31910160405180910390a35050565b600a546001600160a01b031633146111235760405162461bcd60e51b81526004016106fb90612311565b6010805461ff001916610100179055565b61113e33836114cb565b61115a5760405162461bcd60e51b81526004016106fb90612346565b611166848484846117d9565b50505050565b600c805461084b90612425565b6000818152600260205260409020546060906001600160a01b03166111f85760405162461bcd60e51b815260206004820152602f60248201527f4552433732314d657461646174613a2055524920717565727920666f72206e6f60448201526e3732bc34b9ba32b73a103a37b5b2b760891b60648201526084016106fb565b601054610100900460ff16611299576011805461121490612425565b80601f016020809104026020016040519081016040528092919081815260200182805461124090612425565b801561128d5780601f106112625761010080835404028352916020019161128d565b820191906000526020600020905b81548152906001019060200180831161127057829003601f168201915b50505050509050919050565b60006112a361180c565b905060008151116112c357604051806020016040528060008152506112f1565b806112cd8461181b565b600c6040516020016112e193929190612167565b6040516020818303038152906040525b9392505050565b600a546001600160a01b031633146113225760405162461bcd60e51b81526004016106fb90612311565b8051610bc190600c906020840190611def565b600a546001600160a01b0316331461135f5760405162461bcd60e51b81526004016106fb90612311565b8051610bc1906011906020840190611def565b600a546001600160a01b0316331461139c5760405162461bcd60e51b81526004016106fb90612311565b6001600160a01b0381166114015760405162461bcd60e51b815260206004820152602660248201527f4f776e61626c653a206e6577206f776e657220697320746865207a65726f206160448201526564647265737360d01b60648201526084016106fb565b61140a81611787565b50565b60006001600160e01b031982166380ac58cd60e01b148061143e57506001600160e01b03198216635b5e139f60e01b145b806106cb57506301ffc9a760e01b6001600160e01b03198316146106cb565b600081815260046020526040902080546001600160a01b0319166001600160a01b038416908117909155819061149282610d81565b6001600160a01b03167f8c5be1e5ebec7d5bd14f71427d1e84f3dd0314c0f7b2291e5b200ac8c7c3b92560405160405180910390a45050565b6000818152600260205260408120546001600160a01b03166115445760405162461bcd60e51b815260206004820152602c60248201527f4552433732313a206f70657261746f7220717565727920666f72206e6f6e657860448201526b34b9ba32b73a103a37b5b2b760a11b60648201526084016106fb565b600061154f83610d81565b9050806001600160a01b0316846001600160a01b0316148061158a5750836001600160a01b031661157f846107a9565b6001600160a01b0316145b806115ba57506001600160a01b0380821660009081526005602090815260408083209388168352929052205460ff165b949350505050565b826001600160a01b03166115d582610d81565b6001600160a01b03161461163d5760405162461bcd60e51b815260206004820152602960248201527f4552433732313a207472616e73666572206f6620746f6b656e2074686174206960448201526839903737ba1037bbb760b91b60648201526084016106fb565b6001600160a01b03821661169f5760405162461bcd60e51b8152602060048201526024808201527f4552433732313a207472616e7366657220746f20746865207a65726f206164646044820152637265737360e01b60648201526084016106fb565b6116aa838383611919565b6116b560008261145d565b6001600160a01b03831660009081526003602052604081208054600192906116de9084906123e2565b90915550506001600160a01b038216600090815260036020526040812080546001929061170c908490612397565b909155505060008181526002602052604080822080546001600160a01b0319166001600160a01b0386811691821790925591518493918716917fddf252ad1be2c89b69c2b068fc378daa952ba7f163c4a11628f55a4df523b3ef91a4505050565b610bc18282604051806020016040528060008152506119d1565b600a80546001600160a01b038381166001600160a01b0319831681179093556040519116919082907f8be0079c531659141344cd1fd0a4f28419497f9722a3daafe3b4186f6b6457e090600090a35050565b6117e48484846115c2565b6117f084848484611a04565b6111665760405162461bcd60e51b81526004016106fb906122bf565b6060600b805461072690612425565b60608161183f5750506040805180820190915260018152600360fc1b602082015290565b8160005b8115611869578061185381612460565b91506118629050600a836123af565b9150611843565b60008167ffffffffffffffff811115611884576118846124e7565b6040519080825280601f01601f1916602001820160405280156118ae576020820181803683370190505b5090505b84156115ba576118c36001836123e2565b91506118d0600a8661247b565b6118db906030612397565b60f81b8183815181106118f0576118f06124d1565b60200101906001600160f81b031916908160001a905350611912600a866123af565b94506118b2565b6001600160a01b0383166119745761196f81600880546000838152600960205260408120829055600182018355919091527ff3f7a9fe364faab93b216da50a3214154f22a0a2b415b23a84c8169e8b636ee30155565b611997565b816001600160a01b0316836001600160a01b031614611997576119978382611b11565b6001600160a01b0382166119ae576109dd81611bae565b826001600160a01b0316826001600160a01b0316146109dd576109dd8282611c5d565b6119db8383611ca1565b6119e86000848484611a04565b6109dd5760405162461bcd60e51b81526004016106fb906122bf565b60006001600160a01b0384163b15611b0657604051630a85bd0160e11b81526001600160a01b0385169063150b7a0290611a4890339089908890889060040161222b565b602060405180830381600087803b158015611a6257600080fd5b505af1925050508015611a92575060408051601f3d908101601f19168201909252611a8f918101906120bc565b60015b611aec573d808015611ac0576040519150601f19603f3d011682016040523d82523d6000602084013e611ac5565b606091505b508051611ae45760405162461bcd60e51b81526004016106fb906122bf565b805181602001fd5b6001600160e01b031916630a85bd0160e11b1490506115ba565b506001949350505050565b60006001611b1e84610ea3565b611b2891906123e2565b600083815260076020526040902054909150808214611b7b576001600160a01b03841660009081526006602090815260408083208584528252808320548484528184208190558352600790915290208190555b5060009182526007602090815260408084208490556001600160a01b039094168352600681528383209183525290812055565b600854600090611bc0906001906123e2565b60008381526009602052604081205460088054939450909284908110611be857611be86124d1565b906000526020600020015490508060088381548110611c0957611c096124d1565b6000918252602080832090910192909255828152600990915260408082208490558582528120556008805480611c4157611c416124bb565b6001900381819060005260206000200160009055905550505050565b6000611c6883610ea3565b6001600160a01b039093166000908152600660209081526040808320868452825280832085905593825260079052919091209190915550565b6001600160a01b038216611cf75760405162461bcd60e51b815260206004820181905260248201527f4552433732313a206d696e7420746f20746865207a65726f206164647265737360448201526064016106fb565b6000818152600260205260409020546001600160a01b031615611d5c5760405162461bcd60e51b815260206004820152601c60248201527f4552433732313a20746f6b656e20616c7265616479206d696e7465640000000060448201526064016106fb565b611d6860008383611919565b6001600160a01b0382166000908152600360205260408120805460019290611d91908490612397565b909155505060008181526002602052604080822080546001600160a01b0319166001600160a01b03861690811790915590518392907fddf252ad1be2c89b69c2b068fc378daa952ba7f163c4a11628f55a4df523b3ef908290a45050565b828054611dfb90612425565b90600052602060002090601f016020900481019282611e1d5760008555611e63565b82601f10611e3657805160ff1916838001178555611e63565b82800160010185558215611e63579182015b82811115611e63578251825591602001919060010190611e48565b50611e6f929150611e73565b5090565b5b80821115611e6f5760008155600101611e74565b600067ffffffffffffffff80841115611ea357611ea36124e7565b604051601f8501601f19908116603f01168101908282118183101715611ecb57611ecb6124e7565b81604052809350858152868686011115611ee457600080fd5b858560208301376000602087830101525050509392505050565b80356001600160a01b0381168114611f1557600080fd5b919050565b80358015158114611f1557600080fd5b600060208284031215611f3c57600080fd5b6112f182611efe565b60008060408385031215611f5857600080fd5b611f6183611efe565b9150611f6f60208401611efe565b90509250929050565b600080600060608486031215611f8d57600080fd5b611f9684611efe565b9250611fa460208501611efe565b9150604084013590509250925092565b60008060008060808587031215611fca57600080fd5b611fd385611efe565b9350611fe160208601611efe565b925060408501359150606085013567ffffffffffffffff81111561200457600080fd5b8501601f8101871361201557600080fd5b61202487823560208401611e88565b91505092959194509250565b6000806040838503121561204357600080fd5b61204c83611efe565b9150611f6f60208401611f1a565b6000806040838503121561206d57600080fd5b61207683611efe565b946020939093013593505050565b60006020828403121561209657600080fd5b6112f182611f1a565b6000602082840312156120b157600080fd5b81356112f1816124fd565b6000602082840312156120ce57600080fd5b81516112f1816124fd565b6000602082840312156120eb57600080fd5b813567ffffffffffffffff81111561210257600080fd5b8201601f8101841361211357600080fd5b6115ba84823560208401611e88565b60006020828403121561213457600080fd5b5035919050565b600081518084526121538160208601602086016123f9565b601f01601f19169290920160200192915050565b60008451602061217a8285838a016123f9565b85519184019161218d8184848a016123f9565b8554920191600090600181811c90808316806121aa57607f831692505b8583108114156121c857634e487b7160e01b85526022600452602485fd5b8080156121dc57600181146121ed5761221a565b60ff1985168852838801955061221a565b60008b81526020902060005b858110156122125781548a8201529084019088016121f9565b505083880195505b50939b9a5050505050505050505050565b6001600160a01b038581168252841660208201526040810183905260806060820181905260009061225e9083018461213b565b9695505050505050565b6020808252825182820181905260009190848201906040850190845b818110156122a057835183529284019291840191600101612284565b50909695505050505050565b6020815260006112f1602083018461213b565b60208082526032908201527f4552433732313a207472616e7366657220746f206e6f6e20455243373231526560408201527131b2b4bb32b91034b6b83632b6b2b73a32b960711b606082015260800190565b6020808252818101527f4f776e61626c653a2063616c6c6572206973206e6f7420746865206f776e6572604082015260600190565b60208082526031908201527f4552433732313a207472616e736665722063616c6c6572206973206e6f74206f6040820152701ddb995c881b9bdc88185c1c1c9bdd9959607a1b606082015260800190565b600082198211156123aa576123aa61248f565b500190565b6000826123be576123be6124a5565b500490565b60008160001904831182151516156123dd576123dd61248f565b500290565b6000828210156123f4576123f461248f565b500390565b60005b838110156124145781810151838201526020016123fc565b838111156111665750506000910152565b600181811c9082168061243957607f821691505b6020821081141561245a57634e487b7160e01b600052602260045260246000fd5b50919050565b60006000198214156124745761247461248f565b5060010190565b60008261248a5761248a6124a5565b500690565b634e487b7160e01b600052601160045260246000fd5b634e487b7160e01b600052601260045260246000fd5b634e487b7160e01b600052603160045260246000fd5b634e487b7160e01b600052603260045260246000fd5b634e487b7160e01b600052604160045260246000fd5b6001600160e01b03198116811461140a57600080fdfea264697066735822122027bbc976d611d781081b64623228df000f019a1b89c719564bdebd5cfee9e2cb64736f6c634300080700334f776e61626c653a2063616c6c6572206973206e6f7420746865206f776e6572"
  }
}