{
  "opcodeHash": "0x9fa71e855403580c1d4c23586799681663e346d0cee9c85fbeb14985bad35c7d",
  "metalessHash": "0xc1aec58e196ee3d6d9799be1ea7bdd97a6105b982f325db33be9a2bc4bfba899",
  "runtimeHash": "0x75b85efd73eccd0794c52bcc348654915659fb9c88898f68cdd1825f939ae924",
  "encodedMetadata": [
    {
      "ipfs": "/ipfs/QmVeCMasxZqXjfnfBH3P6s9YiP9PFD8KBkTU767UW11owj",
      "solc": "0.8.7"
    }
  ],
  "abi": [
    {
      "inputs": [
        {
          "internalType": "string",
          "name": "_name",
          "type": "string"
        },
        {
          "internalType": "string",
          "name": "_symbol",
          "type": "string"
        },
        {
          "internalType": "string",
          "name": "_initBaseURI",
          "type": "string"
        },
        {
          "internalType": "string",
          "name": "_initUnrevealedUri",
          "type": "string"
        }
      ],
      "stateMutability": "nonpayable",
      "type": "constructor"
    },
    {
      "anonymous": false,
      "inputs": [
        {
          "indexed": true,
          "internalType": "address",
          "name": "owner",
          "type": "address"
        },
        {
          "indexed": true,
          "internalType": "address",
          "name": "approved",
          "type": "address"
        },
        {
          "indexed": true,
          "internalType": "uint256",
          "name": "tokenId",
          "type": "uint256"
        }
      ],
      "name": "Approval",
      "type": "event"
    },
    {
      "anonymous": false,
      "inputs": [
        {
          "indexed": true,
          "internalType": "address",
          "name": "owner",
          "type": "address"
        },
        {
          "indexed": true,
          "internalType": "address",
          "name": "operator",
          "type": "address"
        },
        {
          "indexed": false,
          "internalType": "bool",
          "name": "approved",
          "type": "bool"
        }
      ],
      "name": "ApprovalForAll",
      "type": "event"
    },
    {
      "anonymous": false,
      "inputs": [
        {
          "indexed": true,
          "internalType": "address",
          "name": "previousOwner",
          "type": "address"
        },
        {
          "indexed": true,
          "internalType": "address",
          "name": "newOwner",
          "type": "address"
        }
      ],
      "name": "OwnershipTransferred",
      "type": "event"
    },
    {
      "anonymous": false,
      "inputs": [
        {
          "indexed": true,
          "internalType": "address",
          "name": "from",
          "type": "address"
        },
        {
          "indexed": true,
          "internalType": "address",
          "name": "to",
          "type": "address"
        },
        {
          "indexed": true,
          "internalType": "uint256",
          "name": "tokenId",
          "type": "uint256"
        }
      ],
      "name": "Transfer",
      "type": "event"
    },
    {
      "inputs": [],
      "name": "MAX_FREE_MINTS",
      "outputs": [
        {
          "internalType": "uint256",
          "name": "",
          "type": "uint256"
        }
      ],
      "stateMutability": "view",
      "type": "function"
    },
    {
      "inputs": [],
      "name": "MAX_MINTS_PER_TX",
      "outputs": [
        {
          "internalType": "uint256",
          "name": "",
          "type": "uint256"
        }
      ],
      "stateMutability": "view",
      "type": "function"
    },
    {
      "inputs": [],
      "name": "MAX_SUPPLY",
      "outputs": [
        {
          "internalType": "uint256",
          "name": "",
          "type": "uint256"
        }
      ],
      "stateMutability": "view",
      "type": "function"
    },
    {
      "inputs": [],
      "name": "PUBLIC_MINT_PRICE",
      "outputs": [
        {
          "internalType": "uint256",
          "name": "",
          "type": "uint256"
        }
      ],
      "stateMutability": "view",
      "type": "function"
    },
    {
      "inputs": [],
      "name": "UnrevealedURI",
      "outputs": [
        {
          "internalType": "string",
          "name": "",
          "type": "string"
        }
      ],
      "stateMutability": "view",
      "type": "function"
    },
    {
      "inputs": [
        {
          "internalType": "address",
          "name": "to",
          "type": "address"
        },
        {
          "internalType": "uint256",
          "name": "tokenId",
          "type": "uint256"
        }
      ],
      "name": "approve",
      "outputs": [],
      "stateMutability": "nonpayable",
      "type": "function"
    },
    {
      "inputs": [
        {
          "internalType": "address",
          "name": "owner",
          "type": "address"
        }
      ],
      "name": "balanceOf",
      "outputs": [
        {
          "internalType": "uint256",
          "name": "",
          "type": "uint256"
        }
      ],
      "stateMutability": "view",
      "type": "function"
    },
    {
      "inputs": [
        {
          "internalType": "uint256",
          "name": "tokenId",
          "type": "uint256"
        }
      ],
      "name": "getApproved",
      "outputs": [
        {
          "internalType": "address",
          "name": "",
          "type": "address"
        }
      ],
      "stateMutability": "view",
      "type": "function"
    },
    {
      "inputs": [],
      "name": "getLastTokenId",
      "outputs": [
        {
          "internalType": "uint256",
          "name": "",
          "type": "uint256"
        }
      ],
      "stateMutability": "view",
      "type": "function"
    },
    {
      "inputs": [
        {
          "internalType": "address",
          "name": "owner",
          "type": "address"
        },
        {
          "internalType": "address",
          "name": "operator",
          "type": "address"
        }
      ],
      "name": "isApprovedForAll",
      "outputs": [
        {
          "internalType": "bool",
          "name": "",
          "type": "bool"
        }
      ],
      "stateMutability": "view",
      "type": "function"
    },
    {
      "inputs": [],
      "name": "isPublicSaleActive",
      "outputs": [
        {
          "internalType": "bool",
          "name": "",
          "type": "bool"
        }
      ],
      "stateMutability": "view",
      "type": "function"
    },
    {
      "inputs": [],
      "name": "isRevealed",
      "outputs": [
        {
          "internalType": "bool",
          "name": "",
          "type": "bool"
        }
      ],
      "stateMutability": "view",
      "type": "function"
    },
    {
      "inputs": [
        {
          "internalType": "uint256",
          "name": "numberOfTokens",
          "type": "uint256"
        }
      ],
      "name": "mint",
      "outputs": [],
      "stateMutability": "payable",
      "type": "function"
    },
    {
      "inputs": [],
      "name": "name",
      "outputs": [
        {
          "internalType": "string",
          "name": "",
          "type": "string"
        }
      ],
      "stateMutability": "view",
      "type": "function"
    },
    {
      "inputs": [],
      "name": "owner",
      "outputs": [
        {
          "internalType": "address",
          "name": "",
          "type": "address"
        }
      ],
      "stateMutability": "view",
      "type": "function"
    },
    {
      "inputs": [
        {
          "internalType": "uint256",
          "name": "tokenId",
          "type": "uint256"
        }
      ],
      "name": "ownerOf",
      "outputs": [
        {
          "internalType": "address",
          "name": "",
          "type": "address"
        }
      ],
      "stateMutability": "view",
      "type": "function"
    },
    {
      "inputs": [],
      "name": "renounceOwnership",
      "outputs": [],
      "stateMutability": "nonpayable",
      "type": "function"
    },
    {
      "inputs": [
        {
          "internalType": "bool",
          "name": "_reveal",
          "type": "bool"
        }
      ],
      "name": "reveal",
      "outputs": [],
      "stateMutability": "nonpayable",
      "type": "function"
    },
    {
      "inputs": [
        {
          "internalType": "uint256",
          "name": "tokenId",
          "type": "uint256"
        },
        {
          "internalType": "uint256",
          "name": "salePrice",
          "type": "uint256"
        }
      ],
      "name": "royaltyInfo",
      "outputs": [
        {
          "internalType": "address",
          "name": "receiver",
          "type": "address"
        },
        {
          "internalType": "uint256",
          "name": "royaltyAmount",
          "type": "uint256"
        }
      ],
      "stateMutability": "view",
      "type": "function"
    },
    {
      "inputs": [
        {
          "internalType": "address",
          "name": "from",
          "type": "address"
        },
        {
          "internalType": "address",
          "name": "to",
          "type": "address"
        },
        {
          "internalType": "uint256",
          "name": "tokenId",
          "type": "uint256"
        }
      ],
      "name": "safeTransferFrom",
      "outputs": [],
      "stateMutability": "nonpayable",
      "type": "function"
    },
    {
      "inputs": [
        {
          "internalType": "address",
          "name": "from",
          "type": "address"
        },
        {
          "internalType": "address",
          "name": "to",
          "type": "address"
        },
        {
          "internalType": "uint256",
          "name": "tokenId",
          "type": "uint256"
        },
        {
          "internalType": "bytes",
          "name": "_data",
          "type": "bytes"
        }
      ],
      "name": "safeTransferFrom",
      "outputs": [],
      "stateMutability": "nonpayable",
      "type": "function"
    },
    {
      "inputs": [
        {
          "internalType": "address",
          "name": "operator",
          "type": "address"
        },
        {
          "internalType": "bool",
          "name": "approved",
          "type": "bool"
        }
      ],
      "name": "setApprovalForAll",
      "outputs": [],
      "stateMutability": "nonpayable",
      "type": "function"
    },
    {
      "inputs": [
        {
          "internalType": "string",
          "name": "_newBaseURI",
          "type": "string"
        }
      ],
      "name": "setBaseURI",
      "outputs": [],
      "stateMutability": "nonpayable",
      "type": "function"
    },
    {
      "inputs": [
        {
          "internalType": "bool",
          "name": "_isOpenSeaProxyActive",
          "type": "bool"
        }
      ],
      "name": "setIsOpenSeaProxyActive",
      "outputs": [],
      "stateMutability": "nonpayable",
      "type": "function"
    },
    {
      "inputs": [
        {
          "internalType": "bool",
          "name": "_isPublicSaleActive",
          "type": "bool"
        }
      ],
      "name": "setIsPublicSaleActive",
      "outputs": [],
      "stateMutability": "nonpayable",
      "type": "function"
    },
    {
      "inputs": [
        {
          "internalType": "string",
          "name": "_UnrevealedURI",
          "type": "string"
        }
      ],
      "name": "setUnrevealedURI",
      "outputs": [],
      "stateMutability": "nonpayable",
      "type": "function"
    },
    {
      "inputs": [
        {
          "internalType": "bytes4",
          "name": "interfaceId",
          "type": "bytes4"
        }
      ],
      "name": "supportsInterface",
      "outputs": [
        {
          "internalType": "bool",
          "name": "",
          "type": "bool"
        }
      ],
      "stateMutability": "view",
      "type": "function"
    },
    {
      "inputs": [],
      "name": "symbol",
      "outputs": [
        {
          "internalType": "string",
          "name": "",
          "type": "string"
        }
      ],
      "stateMutability": "view",
      "type": "function"
    },
    {
      "inputs": [
        {
          "internalType": "uint256",
          "name": "tokenId",
          "type": "uint256"
        }
      ],
      "name": "tokenURI",
      "outputs": [
        {
          "internalType": "string",
          "name": "",
          "type": "string"
        }
      ],
      "stateMutability": "view",
      "type": "function"
    },
    {
      "inputs": [],
      "name": "totalSupply",
      "outputs": [
        {
          "internalType": "uint256",
          "name": "",
          "type": "uint256"
        }
      ],
      "stateMutability": "view",
      "type": "function"
    },
    {
      "inputs": [
        {
          "internalType": "address",
          "name": "from",
          "type": "address"
        },
        {
          "internalType": "address",
          "name": "to",
          "type": "address"
        },
        {
          "internalType": "uint256",
          "name": "tokenId",
          "type": "uint256"
        }
      ],
      "name": "transferFrom",
      "outputs": [],
      "stateMutability": "nonpayable",
      "type": "function"
    },
    {
      "inputs": [
        {
          "internalType": "address",
          "name": "newOwner",
          "type": "address"
        }
      ],
      "name": "transferOwnership",
      "outputs": [],
      "stateMutability": "nonpayable",
      "type": "function"
    },
    {
      "inputs": [],
      "name": "withdraw",
      "outputs": [],
      "stateMutability": "nonpayable",
      "type": "function"
    },
    {
      "inputs": [
        {
          "internalType": "contract IERC20",
          "name": "token",
          "type": "address"
        }
      ],
      "name": "withdrawTokens",
      "outputs": [],
      "stateMutability": "nonpayable",
      "type": "function"
    }
  ],
  "bytecode": {
    "object": "6080604052600980546001600160a81b0319167401a5409ec958c83c3f309868babaca7c86dcb077c1179055600c805461ffff191690553480156200004357600080fd5b506040516200276c3803806200276c83398101604081905262000066916200034d565b8351849084906200007f906000906020850190620001f0565b50805162000095906001906020840190620001f0565b505050620000b2620000ac620000d760201b60201c565b620000db565b6001600755620000c2826200012d565b620000cd8162000195565b5050505062000459565b3390565b600680546001600160a01b038381166001600160a01b0319831681179093556040519116919082907f8be0079c531659141344cd1fd0a4f28419497f9722a3daafe3b4186f6b6457e090600090a35050565b6006546001600160a01b031633146200017c5760405162461bcd60e51b815260206004820181905260248201526000805160206200274c83398151915260448201526064015b60405180910390fd5b80516200019190600a906020840190620001f0565b5050565b6006546001600160a01b03163314620001e05760405162461bcd60e51b815260206004820181905260248201526000805160206200274c833981519152604482015260640162000173565b80516200019190600b9060208401905b828054620001fe9062000406565b90600052602060002090601f0160209004810192826200022257600085556200026d565b82601f106200023d57805160ff19168380011785556200026d565b828001600101855582156200026d579182015b828111156200026d57825182559160200191906001019062000250565b506200027b9291506200027f565b5090565b5b808211156200027b576000815560010162000280565b600082601f830112620002a857600080fd5b81516001600160401b0380821115620002c557620002c562000443565b604051601f8301601f19908116603f01168101908282118183101715620002f057620002f062000443565b816040528381526020925086838588010111156200030d57600080fd5b600091505b8382101562000331578582018301518183018401529082019062000312565b83821115620003435760008385830101525b9695505050505050565b600080600080608085870312156200036457600080fd5b84516001600160401b03808211156200037c57600080fd5b6200038a8883890162000296565b95506020870151915080821115620003a157600080fd5b620003af8883890162000296565b94506040870151915080821115620003c657600080fd5b620003d48883890162000296565b93506060870151915080821115620003eb57600080fd5b50620003fa8782880162000296565b91505092959194509250565b600181811c908216806200041b57607f821691505b602082108114156200043d57634e487b7160e01b600052602260045260246000fd5b50919050565b634e487b7160e01b600052604160045260246000fd5b6122e380620004696000396000f3fe6080604052600436106101f95760003560e01c80636bde26271161010d578063a22cb465116100a0578063c87b56dd1161006f578063c87b56dd1461056b578063e43082f71461058b578063e985e9c5146105ab578063f2fde38b146105cb578063fe2c7fee146105eb57600080fd5b8063a22cb46514610500578063b88d4fde14610520578063c6a91b4214610540578063c7a6b21e1461055557600080fd5b80638da5cb5b116100dc5780638da5cb5b1461049a578063940cd05b146104b857806395d89b41146104d8578063a0712d68146104ed57600080fd5b80636bde26271461044a57806370a0823114610465578063715018a61461048557806383c4c00d146102c457600080fd5b806328cad13d1161019057806342842e0e1161015f57806342842e0e146103ab57806349df728c146103cb57806354214f69146103eb57806355f804b31461040a5780636352211e1461042a57600080fd5b806328cad13d146103215780632a55205a1461034157806332cb6b0c146103805780633ccfd60b1461039657600080fd5b8063095ea7b3116101cc578063095ea7b3146102a257806318160ddd146102c45780631e84c413146102e757806323b872dd1461030157600080fd5b806301ffc9a7146101fe578063059705231461023357806306fdde0314610255578063081812fc1461026a575b600080fd5b34801561020a57600080fd5b5061021e610219366004611df5565b61060b565b60405190151581526020015b60405180910390f35b34801561023f57600080fd5b50610248610636565b60405161022a9190612039565b34801561026157600080fd5b506102486106c4565b34801561027657600080fd5b5061028a610285366004611e95565b610756565b6040516001600160a01b03909116815260200161022a565b3480156102ae57600080fd5b506102c26102bd366004611d8f565b6107f0565b005b3480156102d057600080fd5b506102d9610906565b60405190815260200161022a565b3480156102f357600080fd5b50600c5461021e9060ff1681565b34801561030d57600080fd5b506102c261031c366004611ca0565b610916565b34801561032d57600080fd5b506102c261033c366004611dbb565b610947565b34801561034d57600080fd5b5061036161035c366004611ec7565b610984565b604080516001600160a01b03909316835260208301919091520161022a565b34801561038c57600080fd5b506102d9610d0581565b3480156103a257600080fd5b506102c2610a02565b3480156103b757600080fd5b506102c26103c6366004611ca0565b610a5f565b3480156103d757600080fd5b506102c26103e6366004611c4a565b610a7a565b3480156103f757600080fd5b50600c5461021e90610100900460ff1681565b34801561041657600080fd5b506102c2610425366004611e4c565b610ba1565b34801561043657600080fd5b5061028a610445366004611e95565b610bde565b34801561045657600080fd5b506102d96658d15e1762800081565b34801561047157600080fd5b506102d9610480366004611c4a565b610c55565b34801561049157600080fd5b506102c2610cdc565b3480156104a657600080fd5b506006546001600160a01b031661028a565b3480156104c457600080fd5b506102c26104d3366004611dbb565b610d12565b3480156104e457600080fd5b50610248610d56565b6102c26104fb366004611e95565b610d65565b34801561050c57600080fd5b506102c261051b366004611d61565b610f6a565b34801561052c57600080fd5b506102c261053b366004611ce1565b610f75565b34801561054c57600080fd5b506102d9600581565b34801561056157600080fd5b506102d961037881565b34801561057757600080fd5b50610248610586366004611e95565b610fad565b34801561059757600080fd5b506102c26105a6366004611dbb565b6110de565b3480156105b757600080fd5b5061021e6105c6366004611c67565b611126565b3480156105d757600080fd5b506102c26105e6366004611c4a565b611212565b3480156105f757600080fd5b506102c2610606366004611e4c565b6112ad565b60006001600160e01b0319821663152a902d60e11b14806106305750610630826112ea565b92915050565b600b8054610643906121b2565b80601f016020809104026020016040519081016040528092919081815260200182805461066f906121b2565b80156106bc5780601f10610691576101008083540402835291602001916106bc565b820191906000526020600020905b81548152906001019060200180831161069f57829003601f168201915b505050505081565b6060600080546106d3906121b2565b80601f01602080910402602001604051908101604052809291908181526020018280546106ff906121b2565b801561074c5780601f106107215761010080835404028352916020019161074c565b820191906000526020600020905b81548152906001019060200180831161072f57829003601f168201915b5050505050905090565b6000818152600260205260408120546001600160a01b03166107d45760405162461bcd60e51b815260206004820152602c60248201527f4552433732313a20617070726f76656420717565727920666f72206e6f6e657860448201526b34b9ba32b73a103a37b5b2b760a11b60648201526084015b60405180910390fd5b506000908152600460205260409020546001600160a01b031690565b60006107fb82610bde565b9050806001600160a01b0316836001600160a01b031614156108695760405162461bcd60e51b815260206004820152602160248201527f4552433732313a20617070726f76616c20746f2063757272656e74206f776e656044820152603960f91b60648201526084016107cb565b336001600160a01b038216148061088557506108858133611126565b6108f75760405162461bcd60e51b815260206004820152603860248201527f4552433732313a20617070726f76652063616c6c6572206973206e6f74206f7760448201527f6e6572206e6f7220617070726f76656420666f7220616c6c000000000000000060648201526084016107cb565b610901838361133a565b505050565b600061091160085490565b905090565b61092033826113a8565b61093c5760405162461bcd60e51b81526004016107cb906120d3565b610901838383611477565b6006546001600160a01b031633146109715760405162461bcd60e51b81526004016107cb9061209e565b600c805460ff1916911515919091179055565b60008281526002602052604081205481906001600160a01b03166109e15760405162461bcd60e51b8152602060048201526014602482015273151bdad95b88191bd95cc81b9bdd08195e1a5cdd60621b60448201526064016107cb565b306109f76109f0856005611617565b606461162a565b915091509250929050565b6006546001600160a01b03163314610a2c5760405162461bcd60e51b81526004016107cb9061209e565b6040514790339082156108fc029083906000818181858888f19350505050158015610a5b573d6000803e3d6000fd5b5050565b61090183838360405180602001604052806000815250610f75565b6006546001600160a01b03163314610aa45760405162461bcd60e51b81526004016107cb9061209e565b6040516370a0823160e01b81523060048201526000906001600160a01b038316906370a082319060240160206040518083038186803b158015610ae657600080fd5b505afa158015610afa573d6000803e3d6000fd5b505050506040513d601f19601f82011682018060405250810190610b1e9190611eae565b60405163a9059cbb60e01b8152336004820152602481018290529091506001600160a01b0383169063a9059cbb90604401602060405180830381600087803b158015610b6957600080fd5b505af1158015610b7d573d6000803e3d6000fd5b505050506040513d601f19601f820116820180604052508101906109019190611dd8565b6006546001600160a01b03163314610bcb5760405162461bcd60e51b81526004016107cb9061209e565b8051610a5b90600a906020840190611b3b565b6000818152600260205260408120546001600160a01b0316806106305760405162461bcd60e51b815260206004820152602960248201527f4552433732313a206f776e657220717565727920666f72206e6f6e657869737460448201526832b73a103a37b5b2b760b91b60648201526084016107cb565b60006001600160a01b038216610cc05760405162461bcd60e51b815260206004820152602a60248201527f4552433732313a2062616c616e636520717565727920666f7220746865207a65604482015269726f206164647265737360b01b60648201526084016107cb565b506001600160a01b031660009081526003602052604090205490565b6006546001600160a01b03163314610d065760405162461bcd60e51b81526004016107cb9061209e565b610d106000611636565b565b6006546001600160a01b03163314610d3c5760405162461bcd60e51b81526004016107cb9061209e565b600c80549115156101000261ff0019909216919091179055565b6060600180546106d3906121b2565b60026007541415610db85760405162461bcd60e51b815260206004820152601f60248201527f5265656e7472616e637947756172643a207265656e7472616e742063616c6c0060448201526064016107cb565b60026007556658d15e1762800081610378610dd260085490565b1115610e305734610de38284612150565b14610e305760405162461bcd60e51b815260206004820152601860248201527f496e636f7272656374204554482076616c75652073656e74000000000000000060448201526064016107cb565b600c5460ff16610e825760405162461bcd60e51b815260206004820152601b60248201527f5075626c69632073616c6520686173206e6f742073746172746564000000000060448201526064016107cb565b82610d0581610e9060085490565b610e9a9190612124565b1115610ed35760405162461bcd60e51b815260206004820152600860248201526714dbdb19081bdd5d60c21b60448201526064016107cb565b836005811115610f2f5760405162461bcd60e51b815260206004820152602160248201527f52656163686564206d6178206d696e747320706572207472616e73616374696f6044820152603760f91b60648201526084016107cb565b60005b85811015610f5d57610f4b33610f46611688565b61169f565b80610f55816121ed565b915050610f32565b5050600160075550505050565b610a5b3383836116b9565b610f7f33836113a8565b610f9b5760405162461bcd60e51b81526004016107cb906120d3565b610fa784848484611788565b50505050565b6000818152600260205260409020546060906001600160a01b031661100b5760405162461bcd60e51b8152602060048201526014602482015273151bdad95b88191bd95cc81b9bdd08195e1a5cdd60621b60448201526064016107cb565b600c54610100900460ff166110ac57600b8054611027906121b2565b80601f0160208091040260200160405190810160405280929190818152602001828054611053906121b2565b80156110a05780601f10611075576101008083540402835291602001916110a0565b820191906000526020600020905b81548152906001019060200180831161108357829003601f168201915b50505050509050919050565b600a6110b7836117bb565b6040516020016110c8929190611f31565b6040516020818303038152906040529050919050565b6006546001600160a01b031633146111085760405162461bcd60e51b81526004016107cb9061209e565b60098054911515600160a01b0260ff60a01b19909216919091179055565b6009546000906001600160a01b03811690600160a01b900460ff1680156111d1575060405163c455279160e01b81526001600160a01b038581166004830152808516919083169063c45527919060240160206040518083038186803b15801561118e57600080fd5b505afa1580156111a2573d6000803e3d6000fd5b505050506040513d601f19601f820116820180604052508101906111c69190611e2f565b6001600160a01b0316145b156111e0576001915050610630565b6001600160a01b0380851660009081526005602090815260408083209387168352929052205460ff165b949350505050565b6006546001600160a01b0316331461123c5760405162461bcd60e51b81526004016107cb9061209e565b6001600160a01b0381166112a15760405162461bcd60e51b815260206004820152602660248201527f4f776e61626c653a206e6577206f776e657220697320746865207a65726f206160448201526564647265737360d01b60648201526084016107cb565b6112aa81611636565b50565b6006546001600160a01b031633146112d75760405162461bcd60e51b81526004016107cb9061209e565b8051610a5b90600b906020840190611b3b565b60006001600160e01b031982166380ac58cd60e01b148061131b57506001600160e01b03198216635b5e139f60e01b145b8061063057506301ffc9a760e01b6001600160e01b0319831614610630565b600081815260046020526040902080546001600160a01b0319166001600160a01b038416908117909155819061136f82610bde565b6001600160a01b03167f8c5be1e5ebec7d5bd14f71427d1e84f3dd0314c0f7b2291e5b200ac8c7c3b92560405160405180910390a45050565b6000818152600260205260408120546001600160a01b03166114215760405162461bcd60e51b815260206004820152602c60248201527f4552433732313a206f70657261746f7220717565727920666f72206e6f6e657860448201526b34b9ba32b73a103a37b5b2b760a11b60648201526084016107cb565b600061142c83610bde565b9050806001600160a01b0316846001600160a01b031614806114675750836001600160a01b031661145c84610756565b6001600160a01b0316145b8061120a575061120a8185611126565b826001600160a01b031661148a82610bde565b6001600160a01b0316146114f25760405162461bcd60e51b815260206004820152602960248201527f4552433732313a207472616e73666572206f6620746f6b656e2074686174206960448201526839903737ba1037bbb760b91b60648201526084016107cb565b6001600160a01b0382166115545760405162461bcd60e51b8152602060048201526024808201527f4552433732313a207472616e7366657220746f20746865207a65726f206164646044820152637265737360e01b60648201526084016107cb565b61155f60008261133a565b6001600160a01b038316600090815260036020526040812080546001929061158890849061216f565b90915550506001600160a01b03821660009081526003602052604081208054600192906115b6908490612124565b909155505060008181526002602052604080822080546001600160a01b0319166001600160a01b0386811691821790925591518493918716917fddf252ad1be2c89b69c2b068fc378daa952ba7f163c4a11628f55a4df523b3ef91a4505050565b60006116238284612150565b9392505050565b6000611623828461213c565b600680546001600160a01b038381166001600160a01b0319831681179093556040519116919082907f8be0079c531659141344cd1fd0a4f28419497f9722a3daafe3b4186f6b6457e090600090a35050565b6000611698600880546001019055565b5060085490565b610a5b8282604051806020016040528060008152506118b9565b816001600160a01b0316836001600160a01b0316141561171b5760405162461bcd60e51b815260206004820152601960248201527f4552433732313a20617070726f766520746f2063616c6c65720000000000000060448201526064016107cb565b6001600160a01b03838116600081815260056020908152604080832094871680845294825291829020805460ff191686151590811790915591519182527f17307eab39ab6107e8899845ad3d59bd9653f200f220920489ca2b5937696c31910160405180910390a3505050565b611793848484611477565b61179f848484846118ec565b610fa75760405162461bcd60e51b81526004016107cb9061204c565b6060816117df5750506040805180820190915260018152600360fc1b602082015290565b8160005b811561180957806117f3816121ed565b91506118029050600a8361213c565b91506117e3565b60008167ffffffffffffffff8111156118245761182461225e565b6040519080825280601f01601f19166020018201604052801561184e576020820181803683370190505b5090505b841561120a5761186360018361216f565b9150611870600a86612208565b61187b906030612124565b60f81b81838151811061189057611890612248565b60200101906001600160f81b031916908160001a9053506118b2600a8661213c565b9450611852565b6118c383836119f9565b6118d060008484846118ec565b6109015760405162461bcd60e51b81526004016107cb9061204c565b60006001600160a01b0384163b156119ee57604051630a85bd0160e11b81526001600160a01b0385169063150b7a0290611930903390899088908890600401611ffc565b602060405180830381600087803b15801561194a57600080fd5b505af192505050801561197a575060408051601f3d908101601f1916820190925261197791810190611e12565b60015b6119d4573d8080156119a8576040519150601f19603f3d011682016040523d82523d6000602084013e6119ad565b606091505b5080516119cc5760405162461bcd60e51b81526004016107cb9061204c565b805181602001fd5b6001600160e01b031916630a85bd0160e11b14905061120a565b506001949350505050565b6001600160a01b038216611a4f5760405162461bcd60e51b815260206004820181905260248201527f4552433732313a206d696e7420746f20746865207a65726f206164647265737360448201526064016107cb565b6000818152600260205260409020546001600160a01b031615611ab45760405162461bcd60e51b815260206004820152601c60248201527f4552433732313a20746f6b656e20616c7265616479206d696e7465640000000060448201526064016107cb565b6001600160a01b0382166000908152600360205260408120805460019290611add908490612124565b909155505060008181526002602052604080822080546001600160a01b0319166001600160a01b03861690811790915590518392907fddf252ad1be2c89b69c2b068fc378daa952ba7f163c4a11628f55a4df523b3ef908290a45050565b828054611b47906121b2565b90600052602060002090601f016020900481019282611b695760008555611baf565b82601f10611b8257805160ff1916838001178555611baf565b82800160010185558215611baf579182015b82811115611baf578251825591602001919060010190611b94565b50611bbb929150611bbf565b5090565b5b80821115611bbb5760008155600101611bc0565b600067ffffffffffffffff80841115611bef57611bef61225e565b604051601f8501601f19908116603f01168101908282118183101715611c1757611c1761225e565b81604052809350858152868686011115611c3057600080fd5b858560208301376000602087830101525050509392505050565b600060208284031215611c5c57600080fd5b813561162381612274565b60008060408385031215611c7a57600080fd5b8235611c8581612274565b91506020830135611c9581612274565b809150509250929050565b600080600060608486031215611cb557600080fd5b8335611cc081612274565b92506020840135611cd081612274565b929592945050506040919091013590565b60008060008060808587031215611cf757600080fd5b8435611d0281612274565b93506020850135611d1281612274565b925060408501359150606085013567ffffffffffffffff811115611d3557600080fd5b8501601f81018713611d4657600080fd5b611d5587823560208401611bd4565b91505092959194509250565b60008060408385031215611d7457600080fd5b8235611d7f81612274565b91506020830135611c9581612289565b60008060408385031215611da257600080fd5b8235611dad81612274565b946020939093013593505050565b600060208284031215611dcd57600080fd5b813561162381612289565b600060208284031215611dea57600080fd5b815161162381612289565b600060208284031215611e0757600080fd5b813561162381612297565b600060208284031215611e2457600080fd5b815161162381612297565b600060208284031215611e4157600080fd5b815161162381612274565b600060208284031215611e5e57600080fd5b813567ffffffffffffffff811115611e7557600080fd5b8201601f81018413611e8657600080fd5b61120a84823560208401611bd4565b600060208284031215611ea757600080fd5b5035919050565b600060208284031215611ec057600080fd5b5051919050565b60008060408385031215611eda57600080fd5b50508035926020909101359150565b60008151808452611f01816020860160208601612186565b601f01601f19169290920160200192915050565b60008151611f27818560208601612186565b9290920192915050565b600080845481600182811c915080831680611f4d57607f831692505b6020808410821415611f6d57634e487b7160e01b86526022600452602486fd5b818015611f815760018114611f9257611fbf565b60ff19861689528489019650611fbf565b60008b81526020902060005b86811015611fb75781548b820152908501908301611f9e565b505084890196505b505050505050611ff3611fe2611fdc83602f60f81b815260010190565b86611f15565b64173539b7b760d91b815260050190565b95945050505050565b6001600160a01b038581168252841660208201526040810183905260806060820181905260009061202f90830184611ee9565b9695505050505050565b6020815260006116236020830184611ee9565b60208082526032908201527f4552433732313a207472616e7366657220746f206e6f6e20455243373231526560408201527131b2b4bb32b91034b6b83632b6b2b73a32b960711b606082015260800190565b6020808252818101527f4f776e61626c653a2063616c6c6572206973206e6f7420746865206f776e6572604082015260600190565b60208082526031908201527f4552433732313a207472616e736665722063616c6c6572206973206e6f74206f6040820152701ddb995c881b9bdc88185c1c1c9bdd9959607a1b606082015260800190565b600082198211156121375761213761221c565b500190565b60008261214b5761214b612232565b500490565b600081600019048311821515161561216a5761216a61221c565b500290565b6000828210156121815761218161221c565b500390565b60005b838110156121a1578181015183820152602001612189565b83811115610fa75750506000910152565b600181811c908216806121c657607f821691505b602082108114156121e757634e487b7160e01b600052602260045260246000fd5b50919050565b60006000198214156122015761220161221c565b5060010190565b60008261221757612217612232565b500690565b634e487b7160e01b600052601160045260246000fd5b634e487b7160e01b600052601260045260246000fd5b634e487b7160e01b600052603260045260246000fd5b634e487b7160e01b600052604160045260246000fd5b6001600160a01b03811681146112aa57600080fd5b80151581146112aa57600080fd5b6001600160e01b0319811681146112aa57600080fdfea2646970667358221220628abc43e6daffd70f679af73863576264cab1a57b6d844bd9eca9404eb1ef2464736f6c634300080700334f776e61626c653a2063616c6c6572206973206e6f7420746865206f776e6572"
  }
}