{"compiler":"v0.6.12+commit.27d51765","opcodeHash":"0x410deac11b1afa993028b94ce8062935c0bdf7873d1e0fbf9b77d7345e22c538","metalessHash":"0x6acae447b0ccd0d676d9b5a07dd6c8e22a8ad8d62d972606c769be22ba4e93fa","runtimeHash":"0xb48dce2c586f41028f50f707ad2e60832b43ea22c789b68f9fc37833c1316623","encodedMetadata":[{"ipfs":"/ipfs/QmUrV7nHrw5cVQQjBgLHAViBkJXdx1H2vg3kagDn1t26rm","solc":"0.6.12"}],"abi":[{"inputs":[{"internalType":"address","name":"contractAddress","type":"address"},{"internalType":"bytes32","name":"rootHash","type":"bytes32"},{"internalType":"uint256","name":"totalDays","type":"uint256"}],"stateMutability":"nonpayable","type":"constructor"},{"anonymous":false,"inputs":[{"indexed":false,"internalType":"uint256","name":"index","type":"uint256"},{"indexed":false,"internalType":"address","name":"sender","type":"address"},{"indexed":false,"internalType":"uint256","name":"amount","type":"uint256"}],"name":"Claimed","type":"event"},{"anonymous":false,"inputs":[{"indexed":true,"internalType":"address","name":"previousOwner","type":"address"},{"indexed":true,"internalType":"address","name":"newOwner","type":"address"}],"name":"OwnershipTransferred","type":"event"},{"inputs":[],"name":"EXPIRY_TIME","outputs":[{"internalType":"uint256","name":"","type":"uint256"}],"stateMutability":"view","type":"function"},{"inputs":[],"name":"FLASH_CONTRACT","outputs":[{"internalType":"address","name":"","type":"address"}],"stateMutability":"view","type":"function"},{"inputs":[{"internalType":"uint256","name":"index","type":"uint256"},{"internalType":"address","name":"account","type":"address"},{"internalType":"uint256","name":"amount","type":"uint256"},{"internalType":"bytes32[]","name":"merkleProof","type":"bytes32[]"}],"name":"claim","outputs":[],"stateMutability":"nonpayable","type":"function"},{"inputs":[],"name":"destroy","outputs":[],"stateMutability":"nonpayable","type":"function"},{"inputs":[{"internalType":"uint256","name":"index","type":"uint256"}],"name":"isClaimed","outputs":[{"internalType":"bool","name":"","type":"bool"}],"stateMutability":"view","type":"function"},{"inputs":[],"name":"merkleRoot","outputs":[{"internalType":"bytes32","name":"","type":"bytes32"}],"stateMutability":"view","type":"function"},{"inputs":[],"name":"owner","outputs":[{"internalType":"address","name":"","type":"address"}],"stateMutability":"view","type":"function"},{"inputs":[],"name":"renounceOwnership","outputs":[],"stateMutability":"nonpayable","type":"function"},{"inputs":[{"internalType":"address","name":"newOwner","type":"address"}],"name":"transferOwnership","outputs":[],"stateMutability":"nonpayable","type":"function"},{"inputs":[{"internalType":"bytes32","name":"rootHash","type":"bytes32"},{"internalType":"uint256","name":"totalDays","type":"uint256"}],"name":"updateRootAndTime","outputs":[],"stateMutability":"nonpayable","type":"function"}],"bytecode":{"object":"608060405234801561001057600080fd5b50604051610f3c380380610f3c8339818101604052606081101561003357600080fd5b81019080805190602001909291908051906020019092919080519060200190929190505050600061006861015f60201b60201c565b9050806000806101000a81548173ffffffffffffffffffffffffffffffffffffffff021916908373ffffffffffffffffffffffffffffffffffffffff1602179055508073ffffffffffffffffffffffffffffffffffffffff16600073ffffffffffffffffffffffffffffffffffffffff167f8be0079c531659141344cd1fd0a4f28419497f9722a3daafe3b4186f6b6457e060405160405180910390a35082600260006101000a81548173ffffffffffffffffffffffffffffffffffffffff021916908373ffffffffffffffffffffffffffffffffffffffff16021790555081600381905550804201600181905550505050610167565b600033905090565b610dc6806101766000396000f3fe608060405234801561001057600080fd5b506004361061009e5760003560e01c806383197ef01161006657806383197ef0146101ca5780638da5cb5b146101d45780639e34070f14610208578063f2fde38b1461024c578063f735129c146102905761009e565b80630946e7b7146100a35780632e7ba6ef146100d75780632eb4a7ab146101845780634b602282146101a2578063715018a6146101c0575b600080fd5b6100ab6102c8565b604051808273ffffffffffffffffffffffffffffffffffffffff16815260200191505060405180910390f35b610182600480360360808110156100ed57600080fd5b8101908080359060200190929190803573ffffffffffffffffffffffffffffffffffffffff169060200190929190803590602001909291908035906020019064010000000081111561013e57600080fd5b82018360208201111561015057600080fd5b8035906020019184602083028401116401000000008311171561017257600080fd5b90919293919293905050506102ee565b005b61018c610630565b6040518082815260200191505060405180910390f35b6101aa610636565b6040518082815260200191505060405180910390f35b6101c861063c565b005b6101d26107c2565b005b6101dc610837565b604051808273ffffffffffffffffffffffffffffffffffffffff16815260200191505060405180910390f35b6102346004803603602081101561021e57600080fd5b8101908080359060200190929190505050610860565b60405180821515815260200191505060405180910390f35b61028e6004803603602081101561026257600080fd5b81019080803573ffffffffffffffffffffffffffffffffffffffff1690602001909291905050506108b2565b005b6102c6600480360360408110156102a657600080fd5b810190808035906020019092919080359060200190929190505050610abd565b005b600260009054906101000a900473ffffffffffffffffffffffffffffffffffffffff1681565b600154421115610349576040517f08c379a0000000000000000000000000000000000000000000000000000000008152600401808060200182810382526023815260200180610d2a6023913960400191505060405180910390fd5b61035285610860565b156103a8576040517f08c379a0000000000000000000000000000000000000000000000000000000008152600401808060200182810382526028815260200180610d026028913960400191505060405180910390fd5b6000858585604051602001808481526020018373ffffffffffffffffffffffffffffffffffffffff1660601b8152601401828152602001935050505060405160208183030381529060405280519060200120905061044a838380806020026020016040519081016040528093929190818152602001838360200280828437600081840152601f19601f8201169050808301925050505050505060035483610ba1565b61049f576040517f08c379a0000000000000000000000000000000000000000000000000000000008152600401808060200182810382526021815260200180610d4d6021913960400191505060405180910390fd5b6104a886610c56565b600260009054906101000a900473ffffffffffffffffffffffffffffffffffffffff1673ffffffffffffffffffffffffffffffffffffffff166340c10f1986866040518363ffffffff1660e01b8152600401808373ffffffffffffffffffffffffffffffffffffffff16815260200182815260200192505050602060405180830381600087803b15801561053b57600080fd5b505af115801561054f573d6000803e3d6000fd5b505050506040513d602081101561056557600080fd5b81019080805190602001909291905050506105cb576040517f08c379a0000000000000000000000000000000000000000000000000000000008152600401808060200182810382526023815260200180610d6e6023913960400191505060405180910390fd5b7f4ec90e965519d92681267467f775ada5bd214aa92c0dc93d90a5e880ce9ed026868686604051808481526020018373ffffffffffffffffffffffffffffffffffffffff168152602001828152602001935050505060405180910390a1505050505050565b60035481565b60015481565b610644610cac565b73ffffffffffffffffffffffffffffffffffffffff1660008054906101000a900473ffffffffffffffffffffffffffffffffffffffff1673ffffffffffffffffffffffffffffffffffffffff1614610704576040517f08c379a00000000000000000000000000000000000000000000000000000000081526004018080602001828103825260208152602001807f4f776e61626c653a2063616c6c6572206973206e6f7420746865206f776e657281525060200191505060405180910390fd5b600073ffffffffffffffffffffffffffffffffffffffff1660008054906101000a900473ffffffffffffffffffffffffffffffffffffffff1673ffffffffffffffffffffffffffffffffffffffff167f8be0079c531659141344cd1fd0a4f28419497f9722a3daafe3b4186f6b6457e060405160405180910390a360008060006101000a81548173ffffffffffffffffffffffffffffffffffffffff021916908373ffffffffffffffffffffffffffffffffffffffff160217905550565b60015442101561081d576040517f08c379a0000000000000000000000000000000000000000000000000000000008152600401808060200182810382526027815260200180610cb56027913960400191505060405180910390fd5b600073ffffffffffffffffffffffffffffffffffffffff16ff5b60008060009054906101000a900473ffffffffffffffffffffffffffffffffffffffff16905090565b600080610100838161086e57fe5b0490506000610100848161087e57fe5b0690506000600460008481526020019081526020016000205490506000826001901b90508081831614945050505050919050565b6108ba610cac565b73ffffffffffffffffffffffffffffffffffffffff1660008054906101000a900473ffffffffffffffffffffffffffffffffffffffff1673ffffffffffffffffffffffffffffffffffffffff161461097a576040517f08c379a00000000000000000000000000000000000000000000000000000000081526004018080602001828103825260208152602001807f4f776e61626c653a2063616c6c6572206973206e6f7420746865206f776e657281525060200191505060405180910390fd5b600073ffffffffffffffffffffffffffffffffffffffff168173ffffffffffffffffffffffffffffffffffffffff161415610a00576040517f08c379a0000000000000000000000000000000000000000000000000000000008152600401808060200182810382526026815260200180610cdc6026913960400191505060405180910390fd5b8073ffffffffffffffffffffffffffffffffffffffff1660008054906101000a900473ffffffffffffffffffffffffffffffffffffffff1673ffffffffffffffffffffffffffffffffffffffff167f8be0079c531659141344cd1fd0a4f28419497f9722a3daafe3b4186f6b6457e060405160405180910390a3806000806101000a81548173ffffffffffffffffffffffffffffffffffffffff021916908373ffffffffffffffffffffffffffffffffffffffff16021790555050565b610ac5610cac565b73ffffffffffffffffffffffffffffffffffffffff1660008054906101000a900473ffffffffffffffffffffffffffffffffffffffff1673ffffffffffffffffffffffffffffffffffffffff1614610b85576040517f08c379a00000000000000000000000000000000000000000000000000000000081526004018080602001828103825260208152602001807f4f776e61626c653a2063616c6c6572206973206e6f7420746865206f776e657281525060200191505060405180910390fd5b81600381905550804201600181905550610b9d61063c565b5050565b60008082905060005b8551811015610c48576000868281518110610bc157fe5b60200260200101519050808311610c085782816040516020018083815260200182815260200192505050604051602081830303815290604052805190602001209250610c3a565b808360405160200180838152602001828152602001925050506040516020818303038152906040528051906020012092505b508080600101915050610baa565b508381149150509392505050565b60006101008281610c6357fe5b04905060006101008381610c7357fe5b069050806001901b6004600084815260200190815260200160002054176004600084815260200190815260200160002081905550505050565b60003390509056fe4d65726b6c654469737472696275746f723a20446561646c696e65206e6f7420657870697265644f776e61626c653a206e6577206f776e657220697320746865207a65726f20616464726573734d65726b6c654469737472696275746f723a2044726f7020616c726561647920636c61696d65642e4d65726b6c654469737472696275746f723a20446561646c696e6520657870697265644d65726b6c654469737472696275746f723a20496e76616c69642070726f6f662e4d65726b6c654469737472696275746f723a205472616e73666572206661696c65642ea26469706673582212206586c358dc33bd4d69eb2982d046658f8eed7d3ef8ac28dbd3aa1667fb8e1db464736f6c634300060c0033"}}