{
  "opcodeHash": "0x07bc91073c394c051a1a1461f7454e2db1b760a94401fe8f7a63146a6ba3e370",
  "metalessHash": "0x42bccbba6b73a91016740304202ba8594d6992a27cc5c2432b1d992fd0e279f3",
  "runtimeHash": "0x97a9d789efbcf785e981ac324d54aac221d45f9872d26fc7cac82fc452c21aa2",
  "encodedMetadata": [
    {
      "ipfs": "/ipfs/QmQcxkuBmyxSDfn2doe8BhA1wj3924hhpoYaA6jP2rYB5e",
      "solc": "0.7.6"
    }
  ],
  "abi": [
    {
      "inputs": [],
      "name": "AAVE_LENDING_POOL",
      "outputs": [
        {
          "internalType": "address",
          "name": "",
          "type": "address"
        }
      ],
      "stateMutability": "view",
      "type": "function"
    },
    {
      "inputs": [],
      "name": "AAVE_REFERRAL_CODE",
      "outputs": [
        {
          "internalType": "uint16",
          "name": "",
          "type": "uint16"
        }
      ],
      "stateMutability": "view",
      "type": "function"
    },
    {
      "inputs": [],
      "name": "CALLBACK_SELECTOR",
      "outputs": [
        {
          "internalType": "bytes4",
          "name": "",
          "type": "bytes4"
        }
      ],
      "stateMutability": "view",
      "type": "function"
    },
    {
      "inputs": [],
      "name": "ERR_RETURN_INDEX_VALUE",
      "outputs": [
        {
          "internalType": "string",
          "name": "",
          "type": "string"
        }
      ],
      "stateMutability": "view",
      "type": "function"
    },
    {
      "inputs": [],
      "name": "ERR_SUB_INDEX_VALUE",
      "outputs": [
        {
          "internalType": "string",
          "name": "",
          "type": "string"
        }
      ],
      "stateMutability": "view",
      "type": "function"
    },
    {
      "inputs": [],
      "name": "ETH_ADDRESS",
      "outputs": [
        {
          "internalType": "address",
          "name": "",
          "type": "address"
        }
      ],
      "stateMutability": "view",
      "type": "function"
    },
    {
      "inputs": [],
      "name": "NO_PARAM_MAPPING",
      "outputs": [
        {
          "internalType": "uint8",
          "name": "",
          "type": "uint8"
        }
      ],
      "stateMutability": "view",
      "type": "function"
    },
    {
      "inputs": [],
      "name": "REGISTRY_ADDR",
      "outputs": [
        {
          "internalType": "address",
          "name": "",
          "type": "address"
        }
      ],
      "stateMutability": "view",
      "type": "function"
    },
    {
      "inputs": [],
      "name": "RETURN_MAX_INDEX_VALUE",
      "outputs": [
        {
          "internalType": "uint8",
          "name": "",
          "type": "uint8"
        }
      ],
      "stateMutability": "view",
      "type": "function"
    },
    {
      "inputs": [],
      "name": "RETURN_MIN_INDEX_VALUE",
      "outputs": [
        {
          "internalType": "uint8",
          "name": "",
          "type": "uint8"
        }
      ],
      "stateMutability": "view",
      "type": "function"
    },
    {
      "inputs": [],
      "name": "SUB_MAX_INDEX_VALUE",
      "outputs": [
        {
          "internalType": "uint8",
          "name": "",
          "type": "uint8"
        }
      ],
      "stateMutability": "view",
      "type": "function"
    },
    {
      "inputs": [],
      "name": "SUB_MIN_INDEX_VALUE",
      "outputs": [
        {
          "internalType": "uint8",
          "name": "",
          "type": "uint8"
        }
      ],
      "stateMutability": "view",
      "type": "function"
    },
    {
      "inputs": [],
      "name": "actionType",
      "outputs": [
        {
          "internalType": "uint8",
          "name": "",
          "type": "uint8"
        }
      ],
      "stateMutability": "pure",
      "type": "function"
    },
    {
      "inputs": [],
      "name": "addressesProvider",
      "outputs": [
        {
          "internalType": "contract ILendingPoolAddressesProviderV2",
          "name": "",
          "type": "address"
        }
      ],
      "stateMutability": "view",
      "type": "function"
    },
    {
      "inputs": [],
      "name": "adminVault",
      "outputs": [
        {
          "internalType": "contract AdminVault",
          "name": "",
          "type": "address"
        }
      ],
      "stateMutability": "view",
      "type": "function"
    },
    {
      "inputs": [
        {
          "internalType": "bytes[]",
          "name": "_callData",
          "type": "bytes[]"
        },
        {
          "internalType": "bytes[]",
          "name": "",
          "type": "bytes[]"
        },
        {
          "internalType": "uint8[]",
          "name": "",
          "type": "uint8[]"
        },
        {
          "internalType": "bytes32[]",
          "name": "",
          "type": "bytes32[]"
        }
      ],
      "name": "executeAction",
      "outputs": [
        {
          "internalType": "bytes32",
          "name": "",
          "type": "bytes32"
        }
      ],
      "stateMutability": "payable",
      "type": "function"
    },
    {
      "inputs": [
        {
          "internalType": "bytes[]",
          "name": "_callData",
          "type": "bytes[]"
        }
      ],
      "name": "executeActionDirect",
      "outputs": [],
      "stateMutability": "payable",
      "type": "function"
    },
    {
      "inputs": [
        {
          "internalType": "address[]",
          "name": "_assets",
          "type": "address[]"
        },
        {
          "internalType": "uint256[]",
          "name": "_amounts",
          "type": "uint256[]"
        },
        {
          "internalType": "uint256[]",
          "name": "_fees",
          "type": "uint256[]"
        },
        {
          "internalType": "address",
          "name": "_initiator",
          "type": "address"
        },
        {
          "internalType": "bytes",
          "name": "_params",
          "type": "bytes"
        }
      ],
      "name": "executeOperation",
      "outputs": [
        {
          "internalType": "bool",
          "name": "",
          "type": "bool"
        }
      ],
      "stateMutability": "nonpayable",
      "type": "function"
    },
    {
      "inputs": [],
      "name": "kill",
      "outputs": [],
      "stateMutability": "nonpayable",
      "type": "function"
    },
    {
      "inputs": [],
      "name": "logger",
      "outputs": [
        {
          "internalType": "contract DefisaverLogger",
          "name": "",
          "type": "address"
        }
      ],
      "stateMutability": "view",
      "type": "function"
    },
    {
      "inputs": [
        {
          "internalType": "bytes[]",
          "name": "_callData",
          "type": "bytes[]"
        }
      ],
      "name": "parseInputs",
      "outputs": [
        {
          "components": [
            {
              "internalType": "address[]",
              "name": "tokens",
              "type": "address[]"
            },
            {
              "internalType": "uint256[]",
              "name": "amounts",
              "type": "uint256[]"
            },
            {
              "internalType": "uint256[]",
              "name": "modes",
              "type": "uint256[]"
            },
            {
              "internalType": "address",
              "name": "onBehalfOf",
              "type": "address"
            },
            {
              "internalType": "address",
              "name": "flParamGetterAddr",
              "type": "address"
            },
            {
              "internalType": "bytes",
              "name": "flParamGetterData",
              "type": "bytes"
            }
          ],
          "internalType": "struct FLAaveV2.FLAaveV2Data",
          "name": "flData",
          "type": "tuple"
        }
      ],
      "stateMutability": "pure",
      "type": "function"
    },
    {
      "inputs": [],
      "name": "registry",
      "outputs": [
        {
          "internalType": "contract DFSRegistry",
          "name": "",
          "type": "address"
        }
      ],
      "stateMutability": "view",
      "type": "function"
    },
    {
      "inputs": [
        {
          "internalType": "address",
          "name": "_token",
          "type": "address"
        },
        {
          "internalType": "address",
          "name": "_receiver",
          "type": "address"
        },
        {
          "internalType": "uint256",
          "name": "_amount",
          "type": "uint256"
        }
      ],
      "name": "withdrawStuckFunds",
      "outputs": [],
      "stateMutability": "nonpayable",
      "type": "function"
    },
    {
      "stateMutability": "payable",
      "type": "receive"
    }
  ],
  "bytecode": {
    "object": "608060405234801561001057600080fd5b506001600055612278806100256000396000f3fe6080604052600436106101445760003560e01c8063920f5c84116100b6578063ca5ff7801161006f578063ca5ff7801461032d578063d3c2e7ed1461034d578063e4dde9ab1461021e578063e910afb214610362578063f24ccbfe14610384578063f8e2fb00146103995761014b565b8063920f5c841461027f5780639864dcdd146102ac5780639ce3e919146102c1578063a734f06e146102e3578063c579d490146102f8578063c72c4d10146103185761014b565b80632fa13cb8116101085780632fa13cb8146101f457806341c0e1b5146102095780637b1039991461021e5780638b56046b146102405780638bcb6216146102555780638cedca711461026a5761014b565b80630336fd901461015057806305a363de146101865780630f2eee42146101a85780631afd15be146101ca578063247492f8146101df5761014b565b3661014b57005b600080fd5b34801561015c57600080fd5b5061017061016b366004611865565b6103ae565b60405161017d919061200c565b60405180910390f35b34801561019257600080fd5b5061019b6104e2565b60405161017d919061216d565b3480156101b457600080fd5b506101bd6104e7565b60405161017d919061217c565b6101dd6101d8366004611865565b6104ec565b005b3480156101eb57600080fd5b506101bd6104ef565b34801561020057600080fd5b506101bd6104f4565b34801561021557600080fd5b506101dd6104f9565b34801561022a57600080fd5b506102336105ba565b60405161017d9190611cfe565b34801561024c57600080fd5b506102336105d2565b34801561026157600080fd5b506101bd6105ea565b34801561027657600080fd5b506102336105ef565b34801561028b57600080fd5b5061029f61029a36600461174d565b610607565b60405161017d9190611eab565b3480156102b857600080fd5b506101bd610997565b3480156102cd57600080fd5b506102d661099c565b60405161017d9190611ebf565b3480156102ef57600080fd5b506102336109a7565b34801561030457600080fd5b506101dd610313366004611656565b6109bf565b34801561032457600080fd5b50610233610aee565b61034061033b366004611898565b610b06565b60405161017d9190611eb6565b34801561035957600080fd5b506101bd610bf4565b34801561036e57600080fd5b50610377610bf9565b60405161017d9190611ed4565b34801561039057600080fd5b50610233610c32565b3480156103a557600080fd5b50610377610c4a565b6103b661126b565b816000815181106103c357fe5b60200260200101518060200190518101906103de919061199d565b60208201528151829060019081106103f257fe5b602002602001015180602001905181019061040d9190611696565b815281518290600290811061041e57fe5b6020026020010151806020019051810190610439919061199d565b604082015281518290600390811061044d57fe5b60200260200101518060200190518101906104689190611633565b6001600160a01b0316606082015281518290600490811061048557fe5b60200260200101518060200190518101906104a09190611633565b6001600160a01b031660808201528151829060059081106104bd57fe5b60200260200101518060200190518101906104d89190611a08565b60a0820152919050565b604081565b608081565b50565b600090565b600081565b336001600160a01b031673ccf3d848e08b94478ed8f46ffead3008faf581fd6001600160a01b031663f851a4406040518163ffffffff1660e01b815260040160206040518083038186803b15801561055057600080fd5b505afa158015610564573d6000803e3d6000fd5b505050506040513d601f19601f820116820180604052508101906105889190611633565b6001600160a01b0316146105b75760405162461bcd60e51b81526004016105ae90611f15565b60405180910390fd5b33ff5b73d6049e1f5f3eff1f921f5532af1a1632ba23929c81565b737d2768de32b0b80b7a3454c06bdac94a69ddc7a981565b600181565b73ccf3d848e08b94478ed8f46ffead3008faf581fd81565b60006002600054141561062c5760405162461bcd60e51b81526004016105ae90611fd5565b600260005560408051808201909152601481527310d85b1b195c881b9bdd0818585d99481c1bdbdb60621b602082015233737d2768de32b0b80b7a3454c06bdac94a69ddc7a9146106905760405162461bcd60e51b81526004016105ae9190611ed4565b5060408051808201909152601e81527f464c2074616b6572206d757374206265207468697320636f6e7472616374000060208201526001600160a01b03841630146106ee5760405162461bcd60e51b81526004016105ae9190611ed4565b50600080838060200190518101906107069190611a3b565b9150915060005b88518110156107635761075a8289838151811061072657fe5b60200260200101518b848151811061073a57fe5b60200260200101516001600160a01b0316610c7b9092919063ffffffff16565b5060010161070d565b5060405163266774db60e11b815260009073d6049e1f5f3eff1f921f5532af1a1632ba23929c90634ccee9b6906107be907fcec38b05fe06a488e2de01744d7ff3b8ac89eb607661ed3d7a4b16544d0c7a7290600401611eb6565b60206040518083038186803b1580156107d657600080fd5b505afa1580156107ea573d6000803e3d6000fd5b505050506040513d601f19601f8201168201806040525081019061080e9190611633565b9050816001600160a01b0316631cff79cd478363d6741b9e60e01b8761085c8e60008151811061083a57fe5b60200260200101518e60008151811061084f57fe5b6020026020010151610d41565b60405161086d9291906024016120a5565b60408051601f198184030181529181526020820180516001600160e01b03166001600160e01b03199485161790525160e086901b90921682526108b39291600401611de5565b6020604051808303818588803b1580156108cc57600080fd5b505af11580156108e0573d6000803e3d6000fd5b50505050506040513d601f19601f8201168201806040525081019061090591906119f0565b5060005b895181101561098157610979737d2768de32b0b80b7a3454c06bdac94a69ddc7a961094d8b848151811061093957fe5b60200260200101518b858151811061084f57fe5b8c848151811061095957fe5b60200260200101516001600160a01b0316610d6a9092919063ffffffff16565b600101610909565b5060019350505050600160005595945050505050565b607f81565b636b3a0dcf60e11b81565b73eeeeeeeeeeeeeeeeeeeeeeeeeeeeeeeeeeeeeeee81565b336001600160a01b031673ccf3d848e08b94478ed8f46ffead3008faf581fd6001600160a01b0316638da5cb5b6040518163ffffffff1660e01b815260040160206040518083038186803b158015610a1657600080fd5b505afa158015610a2a573d6000803e3d6000fd5b505050506040513d601f19601f82011682018060405250810190610a4e9190611633565b6001600160a01b031614610a745760405162461bcd60e51b81526004016105ae90611ee7565b73eeeeeeeeeeeeeeeeeeeeeeeeeeeeeeeeeeeeeeee6001600160a01b0384161415610ad5576040516001600160a01b0383169082156108fc029083906000818181858888f19350505050158015610acf573d6000803e3d6000fd5b50610ae9565b610ae96001600160a01b0384168383610e2e565b505050565b73b53c1a33016b2dc2ff3653530bff1848a515c8c581565b600080610b12866103ae565b60808101519091506001600160a01b031615610bbe57608081015160a0820151604051630570e64760e11b81526001600160a01b0390921691630ae1cc8e91610b5d91600401611ed4565b60006040518083038186803b158015610b7557600080fd5b505afa158015610b89573d6000803e3d6000fd5b505050506040513d6000823e601f3d908101601f19168201604052610bb191908101906116c9565b6040840152602083015281525b600086600188510381518110610bd057fe5b602002602001015190506000610be68383610e84565b93505050505b949350505050565b60ff81565b6040518060400160405280601881526020017f57726f6e672072657475726e20696e6465782076616c7565000000000000000081525081565b735c55b921f590a89c1ebe84df170e655a82b6212681565b6040518060400160405280601581526020017457726f6e672073756220696e6465782076616c756560581b81525081565b6000600019821415610c9457610c918430610fd7565b91505b6001600160a01b03831615801590610cb557506001600160a01b0383163014155b8015610cc057508115155b15610d3a576001600160a01b03841673eeeeeeeeeeeeeeeeeeeeeeeeeeeeeeeeeeeeeeee14610d0257610cfd6001600160a01b0385168484610e2e565b610d3a565b6040516001600160a01b0384169083156108fc029084906000818181858888f19350505050158015610d38573d6000803e3d6000fd5b505b5092915050565b80820182811015610d645760405162461bcd60e51b81526004016105ae90611f43565b92915050565b6001600160a01b03831673eeeeeeeeeeeeeeeeeeeeeeeeeeeeeeeeeeeeeeee1415610d9457610ae9565b604051636eb1769f60e11b815281906001600160a01b0385169063dd62ed3e90610dc49030908790600401611e09565b60206040518083038186803b158015610ddc57600080fd5b505afa158015610df0573d6000803e3d6000fd5b505050506040513d601f19601f82011682018060405250810190610e1491906119f0565b1015610ae957610ae96001600160a01b0384168383611092565b610ae98363a9059cbb60e01b8484604051602401610e4d929190611e3f565b60408051601f198184030181529190526020810180516001600160e01b03166001600160e01b0319909316929092179091526110d1565b815160208301516040808501516060860151825163ab9c4b5d60e01b8152600095737d2768de32b0b80b7a3454c06bdac94a69ddc7a99563ab9c4b5d95610ed995309593949293909290918b91600401611d67565b600060405180830381600087803b158015610ef357600080fd5b505af1158015610f07573d6000803e3d6000fd5b50505050735c55b921f590a89c1ebe84df170e655a82b621266001600160a01b031663d061ce5030338660000151876020015188604001518960600151604051602001610f579493929190611e58565b6040516020818303038152906040526040518463ffffffff1660e01b8152600401610f8493929190611d12565b600060405180830381600087803b158015610f9e57600080fd5b505af1158015610fb2573d6000803e3d6000fd5b505050508260200151600081518110610fc757fe5b6020026020010151905092915050565b60006001600160a01b03831673eeeeeeeeeeeeeeeeeeeeeeeeeeeeeeeeeeeeeeee141561100f57506001600160a01b03811631610d64565b6040516370a0823160e01b81526001600160a01b038416906370a082319061103b908590600401611cfe565b60206040518083038186803b15801561105357600080fd5b505afa158015611067573d6000803e3d6000fd5b505050506040513d601f19601f8201168201806040525081019061108b91906119f0565b9050610d64565b6110b28363095ea7b360e01b846000604051602401610e4d929190611e23565b610ae98363095ea7b360e01b8484604051602401610e4d929190611e3f565b6000611126826040518060400160405280602081526020017f5361666545524332303a206c6f772d6c6576656c2063616c6c206661696c6564815250856001600160a01b03166111609092919063ffffffff16565b805190915015610ae9578080602001905181019061114491906119d0565b610ae95760405162461bcd60e51b81526004016105ae90611f8b565b6060610bec848460008560606111758561122d565b6111915760405162461bcd60e51b81526004016105ae90611f54565b600080866001600160a01b031685876040516111ad9190611ce2565b60006040518083038185875af1925050503d80600081146111ea576040519150601f19603f3d011682016040523d82523d6000602084013e6111ef565b606091505b50915091508115611203579150610bec9050565b8051156112135780518082602001fd5b8360405162461bcd60e51b81526004016105ae9190611ed4565b6000813f7fc5d2460186f7233c927e7db2dcc703c0e500b653ca82273b7bfad8045d85a47081811480159061126157508115155b925050505b919050565b6040518060c0016040528060608152602001606081526020016060815260200160006001600160a01b0316815260200160006001600160a01b03168152602001606081525090565b80356112668161221e565b80516112668161221e565b600082601f8301126112d9578081fd5b815160206112ee6112e9836121ae565b61218a565b828152818101908583018385028701840188101561130a578586fd5b855b8581101561133157815161131f8161221e565b8452928401929084019060010161130c565b5090979650505050505050565b600082601f83011261134e578081fd5b8151602061135e6112e9836121ae565b82815281810190858301855b85811015611331578151880189603f820112611384578788fd5b858101516113946112e9826121ae565b81815287810190604084018b5b848110156113cb576113b98f604084518901016115f0565b8452928a0192908a01906001016113a1565b50508752505050928401929084019060010161136a565b600082601f8301126113f2578081fd5b815160206114026112e9836121ae565b82815281810190858301855b85811015611331578151880189603f820112611428578788fd5b85810151604061143a6112e9836121ae565b828152888101908483018a8502860184018f1015611456578c8dfd5b8c95505b84861015611484578051935061146f84612233565b83835260019590950194918a01918a0161145a565b50885250505093850193509084019060010161140e565b600082601f8301126114ab578081fd5b813560206114bb6112e9836121ae565b82815281810190858301838502870184018810156114d7578586fd5b855b85811015611331578135845292840192908401906001016114d9565b600082601f830112611505578081fd5b815160206115156112e9836121ae565b8281528181019085830183850287018401881015611531578586fd5b855b8581101561133157815184529284019290840190600101611533565b600082601f83011261155f578081fd5b8135602061156f6112e9836121ae565b82815281810190858301855b8581101561133157611592898684358b01016115a4565b8452928401929084019060010161157b565b600082601f8301126115b4578081fd5b81356115c26112e9826121cc565b8181528460208386010111156115d6578283fd5b816020850160208301379081016020019190915292915050565b600082601f830112611600578081fd5b815161160e6112e9826121cc565b818152846020838601011115611622578283fd5b610bec8260208301602087016121ee565b600060208284031215611644578081fd5b815161164f8161221e565b9392505050565b60008060006060848603121561166a578182fd5b83356116758161221e565b925060208401356116858161221e565b929592945050506040919091013590565b6000602082840312156116a7578081fd5b815167ffffffffffffffff8111156116bd578182fd5b610bec848285016112c9565b6000806000606084860312156116dd578081fd5b835167ffffffffffffffff808211156116f4578283fd5b611700878388016112c9565b94506020860151915080821115611715578283fd5b611721878388016114f5565b93506040860151915080821115611736578283fd5b50611743868287016114f5565b9150509250925092565b600080600080600060a08688031215611764578283fd5b853567ffffffffffffffff8082111561177b578485fd5b818801915088601f83011261178e578485fd5b8135602061179e6112e9836121ae565b82815281810190858301838502870184018e10156117ba57898afd5b8996505b848710156117e55780356117d18161221e565b8352600196909601959183019183016117be565b50995050890135925050808211156117fb578485fd5b61180789838a0161149b565b9550604088013591508082111561181c578485fd5b61182889838a0161149b565b9450611836606089016112b3565b9350608088013591508082111561184b578283fd5b50611858888289016115a4565b9150509295509295909350565b600060208284031215611876578081fd5b813567ffffffffffffffff81111561188c578182fd5b610bec8482850161154f565b600080600080608085870312156118ad578182fd5b843567ffffffffffffffff808211156118c4578384fd5b6118d08883890161154f565b95506020915081870135818111156118e6578485fd5b6118f289828a0161154f565b955050604087013581811115611906578485fd5b8701601f81018913611916578485fd5b80356119246112e9826121ae565b81815284810190838601868402850187018d1015611940578889fd5b8894505b8385101561196b57803561195781612233565b835260019490940193918601918601611944565b5096505050506060870135915080821115611984578283fd5b506119918782880161149b565b91505092959194509250565b6000602082840312156119ae578081fd5b815167ffffffffffffffff8111156119c4578182fd5b610bec848285016114f5565b6000602082840312156119e1578081fd5b8151801515811461164f578182fd5b600060208284031215611a01578081fd5b5051919050565b600060208284031215611a19578081fd5b815167ffffffffffffffff811115611a2f578182fd5b610bec848285016115f0565b60008060408385031215611a4d578182fd5b825167ffffffffffffffff80821115611a64578384fd5b9084019060a08287031215611a77578384fd5b611a8160a061218a565b825182811115611a8f578586fd5b611a9b888286016115f0565b825250602083015182811115611aaf578586fd5b611abb8882860161133e565b602083015250604083015182811115611ad2578586fd5b611ade8882860161133e565b604083015250606083015182811115611af5578586fd5b611b01888286016114f5565b606083015250608083015182811115611b18578586fd5b611b24888286016113e2565b6080830152509350611b3b915050602084016112be565b90509250929050565b6000815180845260208085019450808401835b83811015611b7c5781516001600160a01b031687529582019590820190600101611b57565b509495945050505050565b6000815180845260208085018081965082840281019150828601855b85811015611c0c578284038952815180518086529086019086860190878102870188018a5b82811015611bf657601f19898303018452611be4828651611cb6565b948a0194938a01939150600101611bc8565b509b88019b965050509185019150600101611ba3565b5091979650505050505050565b6000815180845260208085018081965082840281019150828601855b85811015611c0c578284038952815180518086529086019086860190895b81811015611c7257835160ff1683529288019291880191600101611c53565b50509986019994505090840190600101611c35565b6000815180845260208085019450808401835b83811015611b7c57815187529582019590820190600101611c9a565b60008151808452611cce8160208601602086016121ee565b601f01601f19169290920160200192915050565b60008251611cf48184602087016121ee565b9190910192915050565b6001600160a01b0391909116815260200190565b6001600160a01b0384811682528316602082015260806040820181905260089082015267232620b0bb32ab1960c11b60a082015260c060608201819052600090611d5e90830184611cb6565b95945050505050565b600060018060a01b03808a16835260e06020840152611d8960e084018a611b44565b8381036040850152611d9b818a611c87565b90508381036060850152611daf8189611c87565b9050818716608085015283810360a0850152611dcb8187611cb6565b9250505061ffff831660c083015298975050505050505050565b6001600160a01b0383168152604060208201819052600090610bec90830184611cb6565b6001600160a01b0392831681529116602082015260400190565b6001600160a01b0392909216825260ff16602082015260400190565b6001600160a01b03929092168252602082015260400190565b600060808252611e6b6080830187611b44565b8281036020840152611e7d8187611c87565b90508281036040840152611e918186611c87565b91505060018060a01b038316606083015295945050505050565b901515815260200190565b90815260200190565b6001600160e01b031991909116815260200190565b60006020825261164f6020830184611cb6565b60208082526014908201527336b9b39739b2b73232b9103737ba1037bbb732b960611b604082015260600190565b60208082526014908201527336b9b39739b2b73232b9103737ba1030b236b4b760611b604082015260600190565b602080825260009082015260400190565b6020808252601d908201527f416464726573733a2063616c6c20746f206e6f6e2d636f6e7472616374000000604082015260600190565b6020808252602a908201527f5361666545524332303a204552433230206f7065726174696f6e20646964206e6040820152691bdd081cdd58d8d9595960b21b606082015260800190565b6020808252601f908201527f5265656e7472616e637947756172643a207265656e7472616e742063616c6c00604082015260600190565b600060208252825160c0602084015261202860e0840182611b44565b90506020840151601f19808584030160408601526120468383611c87565b925060408601519150808584030160608601526120638383611c87565b60608701516001600160a01b039081166080888101919091528801511660a08781019190915287015186820390920160c087015292509050611d5e8282611cb6565b600060408252835160a060408401526120c160e0840182611cb6565b9050602080860151603f19808685030160608701526120e08483611b87565b935060408801519150808685030160808701526120fd8483611b87565b6060890151878203830160a089015280518083529085019550869350908401905b8084101561213e578551825294840194600193909301929084019061211e565b5060808901519450818782030160c088015261215a8186611c19565b9550505050848185015250509392505050565b61ffff91909116815260200190565b60ff91909116815260200190565b60405181810167ffffffffffffffff811182821017156121a657fe5b604052919050565b600067ffffffffffffffff8211156121c257fe5b5060209081020190565b600067ffffffffffffffff8211156121e057fe5b50601f01601f191660200190565b60005b838110156122095781810151838201526020016121f1565b83811115612218576000848401525b50505050565b6001600160a01b03811681146104ec57600080fd5b60ff811681146104ec57600080fdfea26469706673582212207331ca00679b7e80152cefb52c1b7157678e88f03f6d97ddc18591ebe669b3f864736f6c63430007060033"
  }
}