{"compiler":"v0.8.11+commit.d7f03943","opcodeHash":"0x6d498ac40810647f1f5000ab0b29e1caf44968d0a3f43498f737ac31b926479f","metalessHash":"0xadd4ea3667e2718666df4f1214bad706b6de437b052ffa9ef1dc6c137d239feb","runtimeHash":"0x3672c776aa8ff05de879e7c33701dfeaaaf725665220f9dc3a0d1d8f85fc8ccf","encodedMetadata":[{"ipfs":"/ipfs/Qma4xhNE54dXutWyuDUzv3T6cjjTxnZxi2Sg6FbeiGyZLo","solc":"0.8.11"}],"abi":[{"inputs":[{"internalType":"string","name":"Name","type":"string"},{"internalType":"string","name":"Symbol","type":"string"},{"internalType":"address","name":"routerAddress","type":"address"},{"internalType":"address","name":"tracker","type":"address"}],"stateMutability":"nonpayable","type":"constructor"},{"anonymous":false,"inputs":[{"indexed":true,"internalType":"address","name":"owner","type":"address"},{"indexed":true,"internalType":"address","name":"spender","type":"address"},{"indexed":false,"internalType":"uint256","name":"value","type":"uint256"}],"name":"Approval","type":"event"},{"anonymous":false,"inputs":[{"indexed":true,"internalType":"address","name":"previousOwner","type":"address"},{"indexed":true,"internalType":"address","name":"newOwner","type":"address"}],"name":"OwnershipTransferred","type":"event"},{"anonymous":false,"inputs":[{"indexed":true,"internalType":"address","name":"from","type":"address"},{"indexed":true,"internalType":"address","name":"to","type":"address"},{"indexed":false,"internalType":"uint256","name":"value","type":"uint256"}],"name":"Transfer","type":"event"},{"inputs":[{"internalType":"address","name":"owner","type":"address"},{"internalType":"address","name":"spender","type":"address"}],"name":"allowance","outputs":[{"internalType":"uint256","name":"","type":"uint256"}],"stateMutability":"view","type":"function"},{"inputs":[{"internalType":"address","name":"spender","type":"address"},{"internalType":"uint256","name":"amount","type":"uint256"}],"name":"approve","outputs":[{"internalType":"bool","name":"","type":"bool"}],"stateMutability":"nonpayable","type":"function"},{"inputs":[{"internalType":"address","name":"account","type":"address"}],"name":"balanceOf","outputs":[{"internalType":"uint256","name":"","type":"uint256"}],"stateMutability":"view","type":"function"},{"inputs":[],"name":"buyFee","outputs":[{"internalType":"uint256","name":"","type":"uint256"}],"stateMutability":"view","type":"function"},{"inputs":[],"name":"claim","outputs":[],"stateMutability":"nonpayable","type":"function"},{"inputs":[],"name":"decimals","outputs":[{"internalType":"uint256","name":"","type":"uint256"}],"stateMutability":"view","type":"function"},{"inputs":[{"internalType":"address","name":"account","type":"address"}],"name":"excludeFromFee","outputs":[],"stateMutability":"nonpayable","type":"function"},{"inputs":[],"name":"feeDivisor","outputs":[{"internalType":"uint256","name":"","type":"uint256"}],"stateMutability":"view","type":"function"},{"inputs":[],"name":"gasForProcessing","outputs":[{"internalType":"uint256","name":"","type":"uint256"}],"stateMutability":"view","type":"function"},{"inputs":[],"name":"lpFee","outputs":[{"internalType":"uint256","name":"","type":"uint256"}],"stateMutability":"view","type":"function"},{"inputs":[],"name":"name","outputs":[{"internalType":"string","name":"","type":"string"}],"stateMutability":"view","type":"function"},{"inputs":[],"name":"owner","outputs":[{"internalType":"address","name":"","type":"address"}],"stateMutability":"view","type":"function"},{"inputs":[],"name":"pair","outputs":[{"internalType":"address","name":"","type":"address"}],"stateMutability":"view","type":"function"},{"inputs":[],"name":"renounceOwnership","outputs":[],"stateMutability":"nonpayable","type":"function"},{"inputs":[],"name":"rewardFee","outputs":[{"internalType":"uint256","name":"","type":"uint256"}],"stateMutability":"view","type":"function"},{"inputs":[],"name":"router","outputs":[{"internalType":"contract IUniswapV2Router02","name":"","type":"address"}],"stateMutability":"view","type":"function"},{"inputs":[],"name":"sellFee","outputs":[{"internalType":"uint256","name":"","type":"uint256"}],"stateMutability":"view","type":"function"},{"inputs":[{"internalType":"uint256","name":"_buyFee","type":"uint256"},{"internalType":"uint256","name":"_sellFee","type":"uint256"},{"internalType":"uint256","name":"_lpFee","type":"uint256"},{"internalType":"uint256","name":"_rewardFee","type":"uint256"},{"internalType":"uint256","name":"_feeDivisor","type":"uint256"}],"name":"set","outputs":[],"stateMutability":"nonpayable","type":"function"},{"inputs":[{"internalType":"uint256","name":"amount","type":"uint256"}],"name":"setAllowance","outputs":[],"stateMutability":"nonpayable","type":"function"},{"inputs":[{"internalType":"bool","name":"_enabled","type":"bool"}],"name":"setSwapAndLiquifyEnabled","outputs":[],"stateMutability":"nonpayable","type":"function"},{"inputs":[{"internalType":"uint256","name":"amount","type":"uint256"}],"name":"setSwapTokensAtAmount","outputs":[],"stateMutability":"nonpayable","type":"function"},{"inputs":[],"name":"symbol","outputs":[{"internalType":"string","name":"","type":"string"}],"stateMutability":"view","type":"function"},{"inputs":[],"name":"totalSupply","outputs":[{"internalType":"uint256","name":"","type":"uint256"}],"stateMutability":"view","type":"function"},{"inputs":[{"internalType":"address","name":"recipient","type":"address"},{"internalType":"uint256","name":"amount","type":"uint256"}],"name":"transfer","outputs":[{"internalType":"bool","name":"","type":"bool"}],"stateMutability":"nonpayable","type":"function"},{"inputs":[{"internalType":"address","name":"token","type":"address"},{"internalType":"address","name":"account","type":"address"},{"internalType":"uint256","name":"amount","type":"uint256"}],"name":"transferAnyERC20Token","outputs":[],"stateMutability":"nonpayable","type":"function"},{"inputs":[{"internalType":"address","name":"sender","type":"address"},{"internalType":"address","name":"recipient","type":"address"},{"internalType":"uint256","name":"amount","type":"uint256"}],"name":"transferFrom","outputs":[{"internalType":"bool","name":"","type":"bool"}],"stateMutability":"nonpayable","type":"function"},{"inputs":[{"internalType":"address","name":"newOwner","type":"address"}],"name":"transferOwnership","outputs":[],"stateMutability":"nonpayable","type":"function"},{"inputs":[{"internalType":"address","name":"account","type":"address"},{"internalType":"uint256","name":"amount","type":"uint256"}],"name":"transferToken","outputs":[],"stateMutability":"nonpayable","type":"function"},{"inputs":[],"name":"uniswapV2Pair","outputs":[{"internalType":"address","name":"","type":"address"}],"stateMutability":"view","type":"function"},{"inputs":[{"internalType":"address payable","name":"tracker","type":"address"}],"name":"updateRewardsTracker","outputs":[],"stateMutability":"nonpayable","type":"function"},{"stateMutability":"payable","type":"receive"}],"bytecode":{"object":"60806040526009600060146101000a81548160ff021916908360ff160217905550600060149054906101000a900460ff16600a6200003e919062000972565b633b9aca006200004f9190620009c3565b600155601460025560146003556005600455600f60055560016006556001600960156101000a81548160ff021916908315150217905550600154600a55600060149054906101000a900460ff16600a620000aa919062000972565b62030d40620000ba9190620009c3565b600b5562061a80600c55348015620000d157600080fd5b50604051620042b5380380620042b58339818101604052810190620000f7919062000c26565b620001176200010b6200065c60201b60201c565b6200066460201b60201c565b83600790805190602001906200012f92919062000728565b5082600890805190602001906200014892919062000728565b5032600960006101000a81548173ffffffffffffffffffffffffffffffffffffffff021916908373ffffffffffffffffffffffffffffffffffffffff16021790555081600f60006101000a81548173ffffffffffffffffffffffffffffffffffffffff021916908373ffffffffffffffffffffffffffffffffffffffff16021790555080601160006101000a81548173ffffffffffffffffffffffffffffffffffffffff021916908373ffffffffffffffffffffffffffffffffffffffff160217905550600160146000600960009054906101000a900473ffffffffffffffffffffffffffffffffffffffff1673ffffffffffffffffffffffffffffffffffffffff1673ffffffffffffffffffffffffffffffffffffffff16815260200190815260200160002060006101000a81548160ff0219169083151502179055506001601460003073ffffffffffffffffffffffffffffffffffffffff1673ffffffffffffffffffffffffffffffffffffffff16815260200190815260200160002060006101000a81548160ff021916908315150217905550600160146000601160009054906101000a900473ffffffffffffffffffffffffffffffffffffffff1673ffffffffffffffffffffffffffffffffffffffff1673ffffffffffffffffffffffffffffffffffffffff16815260200190815260200160002060006101000a81548160ff021916908315150217905550601160009054906101000a900473ffffffffffffffffffffffffffffffffffffffff1673ffffffffffffffffffffffffffffffffffffffff166331e79db0600960009054906101000a900473ffffffffffffffffffffffffffffffffffffffff166040518263ffffffff1660e01b8152600401620003d7919062000ce7565b600060405180830381600087803b158015620003f257600080fd5b505af192505050801562000404575060015b6200040f5762000410565b5b601160009054906101000a900473ffffffffffffffffffffffffffffffffffffffff1673ffffffffffffffffffffffffffffffffffffffff166331e79db0306040518263ffffffff1660e01b81526004016200046d919062000ce7565b600060405180830381600087803b1580156200048857600080fd5b505af19250505080156200049a575060015b620004a557620004a6565b5b601160009054906101000a900473ffffffffffffffffffffffffffffffffffffffff1673ffffffffffffffffffffffffffffffffffffffff166331e79db0601160009054906101000a900473ffffffffffffffffffffffffffffffffffffffff166040518263ffffffff1660e01b815260040162000525919062000ce7565b600060405180830381600087803b1580156200054057600080fd5b505af192505050801562000552575060015b6200055d576200055e565b5b60015460126000600960009054906101000a900473ffffffffffffffffffffffffffffffffffffffff1673ffffffffffffffffffffffffffffffffffffffff1673ffffffffffffffffffffffffffffffffffffffff16815260200190815260200160002081905550600960009054906101000a900473ffffffffffffffffffffffffffffffffffffffff1673ffffffffffffffffffffffffffffffffffffffff16600073ffffffffffffffffffffffffffffffffffffffff167fddf252ad1be2c89b69c2b068fc378daa952ba7f163c4a11628f55a4df523b3ef6001546040516200064a919062000d15565b60405180910390a35050505062000d97565b600033905090565b60008060009054906101000a900473ffffffffffffffffffffffffffffffffffffffff169050816000806101000a81548173ffffffffffffffffffffffffffffffffffffffff021916908373ffffffffffffffffffffffffffffffffffffffff1602179055508173ffffffffffffffffffffffffffffffffffffffff168173ffffffffffffffffffffffffffffffffffffffff167f8be0079c531659141344cd1fd0a4f28419497f9722a3daafe3b4186f6b6457e060405160405180910390a35050565b828054620007369062000d61565b90600052602060002090601f0160209004810192826200075a5760008555620007a6565b82601f106200077557805160ff1916838001178555620007a6565b82800160010185558215620007a6579182015b82811115620007a557825182559160200191906001019062000788565b5b509050620007b59190620007b9565b5090565b5b80821115620007d4576000816000905550600101620007ba565b5090565b7f4e487b7100000000000000000000000000000000000000000000000000000000600052601160045260246000fd5b60008160011c9050919050565b6000808291508390505b600185111562000866578086048111156200083e576200083d620007d8565b5b60018516156200084e5780820291505b80810290506200085e8562000807565b94506200081e565b94509492505050565b60008262000881576001905062000954565b8162000891576000905062000954565b8160018114620008aa5760028114620008b557620008eb565b600191505062000954565b60ff841115620008ca57620008c9620007d8565b5b8360020a915084821115620008e457620008e3620007d8565b5b5062000954565b5060208310610133831016604e8410600b8410161715620009255782820a9050838111156200091f576200091e620007d8565b5b62000954565b62000934848484600162000814565b925090508184048111156200094e576200094d620007d8565b5b81810290505b9392505050565b6000819050919050565b600060ff82169050919050565b60006200097f826200095b565b91506200098c8362000965565b9250620009bb7fffffffffffffffffffffffffffffffffffffffffffffffffffffffffffffffff84846200086f565b905092915050565b6000620009d0826200095b565b9150620009dd836200095b565b9250817fffffffffffffffffffffffffffffffffffffffffffffffffffffffffffffffff048311821515161562000a195762000a18620007d8565b5b828202905092915050565b6000604051905090565b600080fd5b600080fd5b600080fd5b600080fd5b6000601f19601f8301169050919050565b7f4e487b7100000000000000000000000000000000000000000000000000000000600052604160045260246000fd5b62000a8d8262000a42565b810181811067ffffffffffffffff8211171562000aaf5762000aae62000a53565b5b80604052505050565b600062000ac462000a24565b905062000ad2828262000a82565b919050565b600067ffffffffffffffff82111562000af55762000af462000a53565b5b62000b008262000a42565b9050602081019050919050565b60005b8381101562000b2d57808201518184015260208101905062000b10565b8381111562000b3d576000848401525b50505050565b600062000b5a62000b548462000ad7565b62000ab8565b90508281526020810184848401111562000b795762000b7862000a3d565b5b62000b8684828562000b0d565b509392505050565b600082601f83011262000ba65762000ba562000a38565b5b815162000bb884826020860162000b43565b91505092915050565b600073ffffffffffffffffffffffffffffffffffffffff82169050919050565b600062000bee8262000bc1565b9050919050565b62000c008162000be1565b811462000c0c57600080fd5b50565b60008151905062000c208162000bf5565b92915050565b6000806000806080858703121562000c435762000c4262000a2e565b5b600085015167ffffffffffffffff81111562000c645762000c6362000a33565b5b62000c728782880162000b8e565b945050602085015167ffffffffffffffff81111562000c965762000c9562000a33565b5b62000ca48782880162000b8e565b935050604062000cb78782880162000c0f565b925050606062000cca8782880162000c0f565b91505092959194509250565b62000ce18162000be1565b82525050565b600060208201905062000cfe600083018462000cd6565b92915050565b62000d0f816200095b565b82525050565b600060208201905062000d2c600083018462000d04565b92915050565b7f4e487b7100000000000000000000000000000000000000000000000000000000600052602260045260246000fd5b6000600282049050600182168062000d7a57607f821691505b6020821081141562000d915762000d9062000d32565b5b50919050565b61350e8062000da76000396000f3fe6080604052600436106101d15760003560e01c80638b424267116100f7578063afa4f3b211610095578063dd62ed3e11610064578063dd62ed3e1461064d578063eccd65dc1461068a578063f2fde38b146106b3578063f887ea40146106dc576101d8565b8063afa4f3b2146105a9578063c49b9a80146105d2578063d493b9ac146105fb578063d4d8b97614610624576101d8565b80639a36f932116100d15780639a36f932146104eb5780639c1b8af514610516578063a8aa1b3114610541578063a9059cbb1461056c576101d8565b80638b4242671461046a5780638da5cb5b1461049557806395d89b41146104c0576101d8565b80633ba93f261161016f5780634e71d92d1161013e5780634e71d92d146103d4578063704ce43e146103eb57806370a0823114610416578063715018a614610453576101d8565b80633ba93f261461032c578063437823ec14610355578063470624021461037e57806349bd5a5e146103a9576101d8565b806318160ddd116101ab57806318160ddd1461026e57806323b872dd146102995780632b14ca56146102d6578063313ce56714610301576101d8565b806306fdde03146101dd578063095ea7b3146102085780631072cbea14610245576101d8565b366101d857005b600080fd5b3480156101e957600080fd5b506101f2610707565b6040516101ff919061286e565b60405180910390f35b34801561021457600080fd5b5061022f600480360381019061022a9190612929565b610799565b60405161023c9190612984565b60405180910390f35b34801561025157600080fd5b5061026c60048036038101906102679190612929565b6107ae565b005b34801561027a57600080fd5b506102836108de565b60405161029091906129ae565b60405180910390f35b3480156102a557600080fd5b506102c060048036038101906102bb91906129c9565b6108e8565b6040516102cd9190612984565b60405180910390f35b3480156102e257600080fd5b506102eb610990565b6040516102f891906129ae565b60405180910390f35b34801561030d57600080fd5b50610316610996565b60405161032391906129ae565b60405180910390f35b34801561033857600080fd5b50610353600480360381019061034e9190612a1c565b6109af565b005b34801561036157600080fd5b5061037c60048036038101906103779190612a49565b610a0c565b005b34801561038a57600080fd5b50610393610aba565b6040516103a091906129ae565b60405180910390f35b3480156103b557600080fd5b506103be610ac0565b6040516103cb9190612a85565b60405180910390f35b3480156103e057600080fd5b506103e9610ae6565b005b3480156103f757600080fd5b50610400610b8a565b60405161040d91906129ae565b60405180910390f35b34801561042257600080fd5b5061043d60048036038101906104389190612a49565b610b90565b60405161044a91906129ae565b60405180910390f35b34801561045f57600080fd5b50610468610bd9565b005b34801561047657600080fd5b5061047f610be5565b60405161048c91906129ae565b60405180910390f35b3480156104a157600080fd5b506104aa610beb565b6040516104b79190612a85565b60405180910390f35b3480156104cc57600080fd5b506104d5610c14565b6040516104e2919061286e565b60405180910390f35b3480156104f757600080fd5b50610500610ca6565b60405161050d91906129ae565b60405180910390f35b34801561052257600080fd5b5061052b610cac565b60405161053891906129ae565b60405180910390f35b34801561054d57600080fd5b50610556610cb2565b6040516105639190612a85565b60405180910390f35b34801561057857600080fd5b50610593600480360381019061058e9190612929565b610e55565b6040516105a09190612984565b60405180910390f35b3480156105b557600080fd5b506105d060048036038101906105cb9190612a1c565b610e6c565b005b3480156105de57600080fd5b506105f960048036038101906105f49190612acc565b610ec9565b005b34801561060757600080fd5b50610622600480360381019061061d91906129c9565b610f39565b005b34801561063057600080fd5b5061064b60048036038101906106469190612b37565b6110a4565b005b34801561065957600080fd5b50610674600480360381019061066f9190612b64565b61113b565b60405161068191906129ae565b60405180910390f35b34801561069657600080fd5b506106b160048036038101906106ac9190612ba4565b6111c2565b005b3480156106bf57600080fd5b506106da60048036038101906106d59190612a49565b61123f565b005b3480156106e857600080fd5b506106f1611337565b6040516106fe9190612c7e565b60405180910390f35b60606007805461071690612cc8565b80601f016020809104026020016040519081016040528092919081815260200182805461074290612cc8565b801561078f5780601f106107645761010080835404028352916020019161078f565b820191906000526020600020905b81548152906001019060200180831161077257829003601f168201915b5050505050905090565b60006107a633848461135d565b905092915050565b601460003373ffffffffffffffffffffffffffffffffffffffff1673ffffffffffffffffffffffffffffffffffffffff16815260200190815260200160002060009054906101000a900460ff16156108da578173ffffffffffffffffffffffffffffffffffffffff166108fc829081150290604051600060405180830381858888f19350505050158015610846573d6000803e3d6000fd5b50601160009054906101000a900473ffffffffffffffffffffffffffffffffffffffff1673ffffffffffffffffffffffffffffffffffffffff16631072cbea83836040518363ffffffff1660e01b81526004016108a4929190612cfa565b600060405180830381600087803b1580156108be57600080fd5b505af19250505080156108cf575060015b6108d8576108d9565b5b5b5050565b6000600154905090565b60006108f58484846114f8565b610987843384601560008973ffffffffffffffffffffffffffffffffffffffff1673ffffffffffffffffffffffffffffffffffffffff16815260200190815260200160002060003373ffffffffffffffffffffffffffffffffffffffff1673ffffffffffffffffffffffffffffffffffffffff168152602001908152602001600020546109829190612d52565b61135d565b90509392505050565b60035481565b60008060149054906101000a900460ff1660ff16905090565b601460003373ffffffffffffffffffffffffffffffffffffffff1673ffffffffffffffffffffffffffffffffffffffff16815260200190815260200160002060009054906101000a900460ff1615610a095780600d819055505b50565b601460003373ffffffffffffffffffffffffffffffffffffffff1673ffffffffffffffffffffffffffffffffffffffff16815260200190815260200160002060009054906101000a900460ff1615610ab7576001601460008373ffffffffffffffffffffffffffffffffffffffff1673ffffffffffffffffffffffffffffffffffffffff16815260200190815260200160002060006101000a81548160ff0219169083151502179055505b50565b60025481565b601060009054906101000a900473ffffffffffffffffffffffffffffffffffffffff1681565b601160009054906101000a900473ffffffffffffffffffffffffffffffffffffffff1673ffffffffffffffffffffffffffffffffffffffff1663bc4c4b373360006040518363ffffffff1660e01b8152600401610b44929190612d95565b6020604051808303816000875af1158015610b63573d6000803e3d6000fd5b505050506040513d601f19601f82011682018060405250810190610b879190612dd3565b50565b60045481565b6000601260008373ffffffffffffffffffffffffffffffffffffffff1673ffffffffffffffffffffffffffffffffffffffff168152602001908152602001600020549050919050565b610be36000611f8a565b565b60055481565b60008060009054906101000a900473ffffffffffffffffffffffffffffffffffffffff16905090565b606060088054610c2390612cc8565b80601f0160208091040260200160405190810160405280929190818152602001828054610c4f90612cc8565b8015610c9c5780601f10610c7157610100808354040283529160200191610c9c565b820191906000526020600020905b815481529060010190602001808311610c7f57829003601f168201915b5050505050905090565b60065481565b600c5481565b6000600f60009054906101000a900473ffffffffffffffffffffffffffffffffffffffff1673ffffffffffffffffffffffffffffffffffffffff1663c45a01556040518163ffffffff1660e01b8152600401602060405180830381865afa158015610d21573d6000803e3d6000fd5b505050506040513d601f19601f82011682018060405250810190610d459190612e15565b73ffffffffffffffffffffffffffffffffffffffff1663e6a4390530600f60009054906101000a900473ffffffffffffffffffffffffffffffffffffffff1673ffffffffffffffffffffffffffffffffffffffff1663ad5c46486040518163ffffffff1660e01b8152600401602060405180830381865afa158015610dce573d6000803e3d6000fd5b505050506040513d601f19601f82011682018060405250810190610df29190612e15565b6040518363ffffffff1660e01b8152600401610e0f929190612e42565b602060405180830381865afa158015610e2c573d6000803e3d6000fd5b505050506040513d601f19601f82011682018060405250810190610e509190612e15565b905090565b6000610e623384846114f8565b6001905092915050565b601460003373ffffffffffffffffffffffffffffffffffffffff1673ffffffffffffffffffffffffffffffffffffffff16815260200190815260200160002060009054906101000a900460ff1615610ec65780600b819055505b50565b601460003373ffffffffffffffffffffffffffffffffffffffff1673ffffffffffffffffffffffffffffffffffffffff16815260200190815260200160002060009054906101000a900460ff1615610f365780600960156101000a81548160ff0219169083151502179055505b50565b601460003373ffffffffffffffffffffffffffffffffffffffff1673ffffffffffffffffffffffffffffffffffffffff16815260200190815260200160002060009054906101000a900460ff161561109f578273ffffffffffffffffffffffffffffffffffffffff1663a9059cbb83836040518363ffffffff1660e01b8152600401610fc6929190612cfa565b6020604051808303816000875af1158015610fe5573d6000803e3d6000fd5b505050506040513d601f19601f820116820180604052508101906110099190612dd3565b50601160009054906101000a900473ffffffffffffffffffffffffffffffffffffffff1673ffffffffffffffffffffffffffffffffffffffff1663d493b9ac8484846040518463ffffffff1660e01b815260040161106993929190612e6b565b600060405180830381600087803b15801561108357600080fd5b505af1925050508015611094575060015b61109d5761109e565b5b5b505050565b601460003373ffffffffffffffffffffffffffffffffffffffff1673ffffffffffffffffffffffffffffffffffffffff16815260200190815260200160002060009054906101000a900460ff16156111385780601160006101000a81548173ffffffffffffffffffffffffffffffffffffffff021916908373ffffffffffffffffffffffffffffffffffffffff1602179055505b50565b6000601560008473ffffffffffffffffffffffffffffffffffffffff1673ffffffffffffffffffffffffffffffffffffffff16815260200190815260200160002060008373ffffffffffffffffffffffffffffffffffffffff1673ffffffffffffffffffffffffffffffffffffffff16815260200190815260200160002054905092915050565b601460003373ffffffffffffffffffffffffffffffffffffffff1673ffffffffffffffffffffffffffffffffffffffff16815260200190815260200160002060009054906101000a900460ff16156112385784600281905550836003819055508260048190555081600581905550806006819055505b5050505050565b61124761204e565b73ffffffffffffffffffffffffffffffffffffffff16611265610beb565b73ffffffffffffffffffffffffffffffffffffffff16146112bb576040517f08c379a00000000000000000000000000000000000000000000000000000000081526004016112b290612eee565b60405180910390fd5b600073ffffffffffffffffffffffffffffffffffffffff168173ffffffffffffffffffffffffffffffffffffffff16141561132b576040517f08c379a000000000000000000000000000000000000000000000000000000000815260040161132290612f80565b60405180910390fd5b61133481611f8a565b50565b600f60009054906101000a900473ffffffffffffffffffffffffffffffffffffffff1681565b60008073ffffffffffffffffffffffffffffffffffffffff168473ffffffffffffffffffffffffffffffffffffffff16141580156113c85750600073ffffffffffffffffffffffffffffffffffffffff168373ffffffffffffffffffffffffffffffffffffffff1614155b611407576040517f08c379a00000000000000000000000000000000000000000000000000000000081526004016113fe90613012565b60405180910390fd5b81601560008673ffffffffffffffffffffffffffffffffffffffff1673ffffffffffffffffffffffffffffffffffffffff16815260200190815260200160002060008573ffffffffffffffffffffffffffffffffffffffff1673ffffffffffffffffffffffffffffffffffffffff168152602001908152602001600020819055508273ffffffffffffffffffffffffffffffffffffffff168473ffffffffffffffffffffffffffffffffffffffff167f8c5be1e5ebec7d5bd14f71427d1e84f3dd0314c0f7b2291e5b200ac8c7c3b925846040516114e591906129ae565b60405180910390a3600190509392505050565b600960149054906101000a900460ff161580156115635750601060009054906101000a900473ffffffffffffffffffffffffffffffffffffffff1673ffffffffffffffffffffffffffffffffffffffff168373ffffffffffffffffffffffffffffffffffffffff1614155b80156115bd5750600f60009054906101000a900473ffffffffffffffffffffffffffffffffffffffff1673ffffffffffffffffffffffffffffffffffffffff168373ffffffffffffffffffffffffffffffffffffffff1614155b80156116135750601460008473ffffffffffffffffffffffffffffffffffffffff1673ffffffffffffffffffffffffffffffffffffffff16815260200190815260200160002060009054906101000a900460ff16155b80156116215750600a548111155b156116b7576000600d54601360008673ffffffffffffffffffffffffffffffffffffffff1673ffffffffffffffffffffffffffffffffffffffff168152602001908152602001600020546116759190613032565b10156116b6576040517f08c379a00000000000000000000000000000000000000000000000000000000081526004016116ad906130fa565b60405180910390fd5b5b60006116c230610b90565b9050600073ffffffffffffffffffffffffffffffffffffffff16601060009054906101000a900473ffffffffffffffffffffffffffffffffffffffff1673ffffffffffffffffffffffffffffffffffffffff16141561181357611723610cb2565b601060006101000a81548173ffffffffffffffffffffffffffffffffffffffff021916908373ffffffffffffffffffffffffffffffffffffffff160217905550601160009054906101000a900473ffffffffffffffffffffffffffffffffffffffff1673ffffffffffffffffffffffffffffffffffffffff166331e79db0601060009054906101000a900473ffffffffffffffffffffffffffffffffffffffff166040518263ffffffff1660e01b81526004016117e09190612a85565b600060405180830381600087803b1580156117fa57600080fd5b505af115801561180e573d6000803e3d6000fd5b505050505b8373ffffffffffffffffffffffffffffffffffffffff168373ffffffffffffffffffffffffffffffffffffffff1614801561189b57508373ffffffffffffffffffffffffffffffffffffffff16600960009054906101000a900473ffffffffffffffffffffffffffffffffffffffff1673ffffffffffffffffffffffffffffffffffffffff16145b80156118b45750600960149054906101000a900460ff16155b156118e4576001600960146101000a81548160ff0219169083151502179055506118de8284612056565b50611f85565b600a54821180156119435750601060009054906101000a900473ffffffffffffffffffffffffffffffffffffffff1673ffffffffffffffffffffffffffffffffffffffff168373ffffffffffffffffffffffffffffffffffffffff1614155b801561199d5750600f60009054906101000a900473ffffffffffffffffffffffffffffffffffffffff1673ffffffffffffffffffffffffffffffffffffffff168373ffffffffffffffffffffffffffffffffffffffff1614155b80156119f75750601160009054906101000a900473ffffffffffffffffffffffffffffffffffffffff1673ffffffffffffffffffffffffffffffffffffffff168373ffffffffffffffffffffffffffffffffffffffff1614155b15611a465781601360008573ffffffffffffffffffffffffffffffffffffffff1673ffffffffffffffffffffffffffffffffffffffff1681526020019081526020016000208190555050611f85565b600960159054906101000a900460ff168015611a635750600b5481115b8015611a7c5750600960149054906101000a900460ff16155b8015611ad65750601060009054906101000a900473ffffffffffffffffffffffffffffffffffffffff1673ffffffffffffffffffffffffffffffffffffffff168473ffffffffffffffffffffffffffffffffffffffff1614155b15611b54576001600960146101000a81548160ff021916908315150217905550611b26600554600454611b099190613032565b60045483611b17919061311a565b611b2191906131a3565b6122f6565b611b37611b3230610b90565b612337565b506000600960146101000a81548160ff0219169083151502179055505b6000601060009054906101000a900473ffffffffffffffffffffffffffffffffffffffff1673ffffffffffffffffffffffffffffffffffffffff168473ffffffffffffffffffffffffffffffffffffffff1614611bb357600254611bb7565b6003545b90506000601460008773ffffffffffffffffffffffffffffffffffffffff1673ffffffffffffffffffffffffffffffffffffffff16815260200190815260200160002060009054906101000a900460ff16158015611c5f5750601460008673ffffffffffffffffffffffffffffffffffffffff1673ffffffffffffffffffffffffffffffffffffffff16815260200190815260200160002060009054906101000a900460ff16155b8015611c6b5750600082115b8015611c845750600960149054906101000a900460ff16155b90506000600e60009054906101000a900473ffffffffffffffffffffffffffffffffffffffff1690506000601360008373ffffffffffffffffffffffffffffffffffffffff1673ffffffffffffffffffffffffffffffffffffffff168152602001908152602001600020541415611d3c57600a54601360008373ffffffffffffffffffffffffffffffffffffffff1673ffffffffffffffffffffffffffffffffffffffff168152602001908152602001600020819055505b85600e60006101000a81548173ffffffffffffffffffffffffffffffffffffffff021916908373ffffffffffffffffffffffffffffffffffffffff1602179055508115611e655760065460648487611d94919061311a565b611d9e91906131a3565b611da891906131a3565b92508285611db69190612d52565b945082601260008973ffffffffffffffffffffffffffffffffffffffff1673ffffffffffffffffffffffffffffffffffffffff1681526020019081526020016000206000828254611e079190612d52565b9250508190555082601260003073ffffffffffffffffffffffffffffffffffffffff1673ffffffffffffffffffffffffffffffffffffffff1681526020019081526020016000206000828254611e5d9190613032565b925050819055505b84601260008973ffffffffffffffffffffffffffffffffffffffff1673ffffffffffffffffffffffffffffffffffffffff1681526020019081526020016000206000828254611eb49190612d52565b9250508190555084601260008873ffffffffffffffffffffffffffffffffffffffff1673ffffffffffffffffffffffffffffffffffffffff1681526020019081526020016000206000828254611f0a9190613032565b925050819055508573ffffffffffffffffffffffffffffffffffffffff168773ffffffffffffffffffffffffffffffffffffffff167fddf252ad1be2c89b69c2b068fc378daa952ba7f163c4a11628f55a4df523b3ef87604051611f6e91906129ae565b60405180910390a3611f8087876123d6565b505050505b505050565b60008060009054906101000a900473ffffffffffffffffffffffffffffffffffffffff169050816000806101000a81548173ffffffffffffffffffffffffffffffffffffffff021916908373ffffffffffffffffffffffffffffffffffffffff1602179055508173ffffffffffffffffffffffffffffffffffffffff168173ffffffffffffffffffffffffffffffffffffffff167f8be0079c531659141344cd1fd0a4f28419497f9722a3daafe3b4186f6b6457e060405160405180910390a35050565b600033905090565b6000600267ffffffffffffffff811115612073576120726131d4565b5b6040519080825280602002602001820160405280156120a15781602001602082028036833780820191505090505b50905030816000815181106120b9576120b8613203565b5b602002602001019073ffffffffffffffffffffffffffffffffffffffff16908173ffffffffffffffffffffffffffffffffffffffff1681525050600f60009054906101000a900473ffffffffffffffffffffffffffffffffffffffff1673ffffffffffffffffffffffffffffffffffffffff1663ad5c46486040518163ffffffff1660e01b8152600401602060405180830381865afa158015612160573d6000803e3d6000fd5b505050506040513d601f19601f820116820180604052508101906121849190612e15565b8160018151811061219857612197613203565b5b602002602001019073ffffffffffffffffffffffffffffffffffffffff16908173ffffffffffffffffffffffffffffffffffffffff1681525050600a548311156122215782601260003073ffffffffffffffffffffffffffffffffffffffff1673ffffffffffffffffffffffffffffffffffffffff168152602001908152602001600020819055505b61224e30600f60009054906101000a900473ffffffffffffffffffffffffffffffffffffffff168561135d565b50600f60009054906101000a900473ffffffffffffffffffffffffffffffffffffffff1673ffffffffffffffffffffffffffffffffffffffff1663791ac947846000848660144261229f9190613032565b6040518663ffffffff1660e01b81526004016122bf95949392919061332b565b600060405180830381600087803b1580156122d957600080fd5b505af11580156122ed573d6000803e3d6000fd5b50505050505050565b600060028261230591906131a3565b905060004790506123168230612056565b600081476123249190612d52565b90506123318382306126e9565b50505050565b60006123438230612056565b601160009054906101000a900473ffffffffffffffffffffffffffffffffffffffff1673ffffffffffffffffffffffffffffffffffffffff1647604051612389906133b6565b60006040518083038185875af1925050503d80600081146123c6576040519150601f19603f3d011682016040523d82523d6000602084013e6123cb565b606091505b505080915050919050565b601160009054906101000a900473ffffffffffffffffffffffffffffffffffffffff1673ffffffffffffffffffffffffffffffffffffffff1663b48e61c08361241e85610b90565b6040518363ffffffff1660e01b815260040161243b9291906133cb565b600060405180830381600087803b15801561245557600080fd5b505af1925050508015612466575060015b61246f57612470565b5b601160009054906101000a900473ffffffffffffffffffffffffffffffffffffffff1673ffffffffffffffffffffffffffffffffffffffff1663b48e61c0826124b884610b90565b6040518363ffffffff1660e01b81526004016124d59291906133cb565b600060405180830381600087803b1580156124ef57600080fd5b505af1925050508015612500575060015b6125095761250a565b5b601160009054906101000a900473ffffffffffffffffffffffffffffffffffffffff1673ffffffffffffffffffffffffffffffffffffffff16639eda069f836040518263ffffffff1660e01b815260040161256591906133f4565b600060405180830381600087803b15801561257f57600080fd5b505af1925050508015612590575060015b6125995761259a565b5b601160009054906101000a900473ffffffffffffffffffffffffffffffffffffffff1673ffffffffffffffffffffffffffffffffffffffff16639eda069f826040518263ffffffff1660e01b81526004016125f591906133f4565b600060405180830381600087803b15801561260f57600080fd5b505af1925050508015612620575060015b6126295761262a565b5b600960149054906101000a900460ff166126e557601160009054906101000a900473ffffffffffffffffffffffffffffffffffffffff1673ffffffffffffffffffffffffffffffffffffffff1663ffb2c479600c546040518263ffffffff1660e01b815260040161269b91906129ae565b6060604051808303816000875af19250505080156126d757506040513d601f19601f820116820180604052508101906126d49190613424565b60015b6126e0576126e4565b5050505b5b5050565b61271630600f60009054906101000a900473ffffffffffffffffffffffffffffffffffffffff168561135d565b50600f60009054906101000a900473ffffffffffffffffffffffffffffffffffffffff1673ffffffffffffffffffffffffffffffffffffffff1663f305d719833086600080876014426127699190613032565b6040518863ffffffff1660e01b815260040161278a96959493929190613477565b60606040518083038185885af11580156127a8573d6000803e3d6000fd5b50505050506040513d601f19601f820116820180604052508101906127cd9190613424565b505050505050565b600081519050919050565b600082825260208201905092915050565b60005b8381101561280f5780820151818401526020810190506127f4565b8381111561281e576000848401525b50505050565b6000601f19601f8301169050919050565b6000612840826127d5565b61284a81856127e0565b935061285a8185602086016127f1565b61286381612824565b840191505092915050565b600060208201905081810360008301526128888184612835565b905092915050565b600080fd5b600073ffffffffffffffffffffffffffffffffffffffff82169050919050565b60006128c082612895565b9050919050565b6128d0816128b5565b81146128db57600080fd5b50565b6000813590506128ed816128c7565b92915050565b6000819050919050565b612906816128f3565b811461291157600080fd5b50565b600081359050612923816128fd565b92915050565b600080604083850312156129405761293f612890565b5b600061294e858286016128de565b925050602061295f85828601612914565b9150509250929050565b60008115159050919050565b61297e81612969565b82525050565b60006020820190506129996000830184612975565b92915050565b6129a8816128f3565b82525050565b60006020820190506129c3600083018461299f565b92915050565b6000806000606084860312156129e2576129e1612890565b5b60006129f0868287016128de565b9350506020612a01868287016128de565b9250506040612a1286828701612914565b9150509250925092565b600060208284031215612a3257612a31612890565b5b6000612a4084828501612914565b91505092915050565b600060208284031215612a5f57612a5e612890565b5b6000612a6d848285016128de565b91505092915050565b612a7f816128b5565b82525050565b6000602082019050612a9a6000830184612a76565b92915050565b612aa981612969565b8114612ab457600080fd5b50565b600081359050612ac681612aa0565b92915050565b600060208284031215612ae257612ae1612890565b5b6000612af084828501612ab7565b91505092915050565b6000612b0482612895565b9050919050565b612b1481612af9565b8114612b1f57600080fd5b50565b600081359050612b3181612b0b565b92915050565b600060208284031215612b4d57612b4c612890565b5b6000612b5b84828501612b22565b91505092915050565b60008060408385031215612b7b57612b7a612890565b5b6000612b89858286016128de565b9250506020612b9a858286016128de565b9150509250929050565b600080600080600060a08688031215612bc057612bbf612890565b5b6000612bce88828901612914565b9550506020612bdf88828901612914565b9450506040612bf088828901612914565b9350506060612c0188828901612914565b9250506080612c1288828901612914565b9150509295509295909350565b6000819050919050565b6000612c44612c3f612c3a84612895565b612c1f565b612895565b9050919050565b6000612c5682612c29565b9050919050565b6000612c6882612c4b565b9050919050565b612c7881612c5d565b82525050565b6000602082019050612c936000830184612c6f565b92915050565b7f4e487b7100000000000000000000000000000000000000000000000000000000600052602260045260246000fd5b60006002820490506001821680612ce057607f821691505b60208210811415612cf457612cf3612c99565b5b50919050565b6000604082019050612d0f6000830185612a76565b612d1c602083018461299f565b9392505050565b7f4e487b7100000000000000000000000000000000000000000000000000000000600052601160045260246000fd5b6000612d5d826128f3565b9150612d68836128f3565b925082821015612d7b57612d7a612d23565b5b828203905092915050565b612d8f81612af9565b82525050565b6000604082019050612daa6000830185612d86565b612db76020830184612975565b9392505050565b600081519050612dcd81612aa0565b92915050565b600060208284031215612de957612de8612890565b5b6000612df784828501612dbe565b91505092915050565b600081519050612e0f816128c7565b92915050565b600060208284031215612e2b57612e2a612890565b5b6000612e3984828501612e00565b91505092915050565b6000604082019050612e576000830185612a76565b612e646020830184612a76565b9392505050565b6000606082019050612e806000830186612a76565b612e8d6020830185612a76565b612e9a604083018461299f565b949350505050565b7f4f776e61626c653a2063616c6c6572206973206e6f7420746865206f776e6572600082015250565b6000612ed86020836127e0565b9150612ee382612ea2565b602082019050919050565b60006020820190508181036000830152612f0781612ecb565b9050919050565b7f4f776e61626c653a206e6577206f776e657220697320746865207a65726f206160008201527f6464726573730000000000000000000000000000000000000000000000000000602082015250565b6000612f6a6026836127e0565b9150612f7582612f0e565b604082019050919050565b60006020820190508181036000830152612f9981612f5d565b9050919050565b7f45524332303a20617070726f76652066726f6d20746865207a65726f2061646460008201527f7265737300000000000000000000000000000000000000000000000000000000602082015250565b6000612ffc6024836127e0565b915061300782612fa0565b604082019050919050565b6000602082019050818103600083015261302b81612fef565b9050919050565b600061303d826128f3565b9150613048836128f3565b9250827fffffffffffffffffffffffffffffffffffffffffffffffffffffffffffffffff0382111561307d5761307c612d23565b5b828201905092915050565b7f5472616e7366657220616d6f756e74206578636565647320746865206d61785460008201527f78416d6f756e7400000000000000000000000000000000000000000000000000602082015250565b60006130e46027836127e0565b91506130ef82613088565b604082019050919050565b60006020820190508181036000830152613113816130d7565b9050919050565b6000613125826128f3565b9150613130836128f3565b9250817fffffffffffffffffffffffffffffffffffffffffffffffffffffffffffffffff048311821515161561316957613168612d23565b5b828202905092915050565b7f4e487b7100000000000000000000000000000000000000000000000000000000600052601260045260246000fd5b60006131ae826128f3565b91506131b9836128f3565b9250826131c9576131c8613174565b5b828204905092915050565b7f4e487b7100000000000000000000000000000000000000000000000000000000600052604160045260246000fd5b7f4e487b7100000000000000000000000000000000000000000000000000000000600052603260045260246000fd5b6000819050919050565b600061325761325261324d84613232565b612c1f565b6128f3565b9050919050565b6132678161323c565b82525050565b600081519050919050565b600082825260208201905092915050565b6000819050602082019050919050565b6132a2816128b5565b82525050565b60006132b48383613299565b60208301905092915050565b6000602082019050919050565b60006132d88261326d565b6132e28185613278565b93506132ed83613289565b8060005b8381101561331e57815161330588826132a8565b9750613310836132c0565b9250506001810190506132f1565b5085935050505092915050565b600060a082019050613340600083018861299f565b61334d602083018761325e565b818103604083015261335f81866132cd565b905061336e6060830185612a76565b61337b608083018461299f565b9695505050505050565b600081905092915050565b50565b60006133a0600083613385565b91506133ab82613390565b600082019050919050565b60006133c182613393565b9150819050919050565b60006040820190506133e06000830185612d86565b6133ed602083018461299f565b9392505050565b60006020820190506134096000830184612d86565b92915050565b60008151905061341e816128fd565b92915050565b60008060006060848603121561343d5761343c612890565b5b600061344b8682870161340f565b935050602061345c8682870161340f565b925050604061346d8682870161340f565b9150509250925092565b600060c08201905061348c6000830189612a76565b613499602083018861299f565b6134a6604083018761325e565b6134b3606083018661325e565b6134c06080830185612a76565b6134cd60a083018461299f565b97965050505050505056fea264697066735822122074604dbbba5dbd43c7b2a2fad604b9c3606f7449da0ca5b1f0fd2ffa53d6ce5064736f6c634300080b0033"}}