{
  "opcodeHash": "0xc58ce393605357b30109005ac574d66016a4ed653dc24331c59bd6feffef60d8",
  "metalessHash": "0x7b077b661ea8042fcea203d4ec2de2bb127e70b78ba6da3dedd91245d223d904",
  "runtimeHash": "0x8a62a411e1e82a46868195b37393dcde62ed541e401528e56a68a9815024e209",
  "encodedMetadata": [
    {
      "ipfs": "/ipfs/QmWXB79QgXjbpSGUFJ3SQoTv3FYUPaB2dKPd5LoVRJ8nLR",
      "solc": "0.6.12"
    }
  ],
  "abi": [
    {
      "inputs": [],
      "stateMutability": "payable",
      "type": "constructor"
    },
    {
      "anonymous": false,
      "inputs": [
        {
          "indexed": true,
          "internalType": "address",
          "name": "src",
          "type": "address"
        },
        {
          "indexed": true,
          "internalType": "address",
          "name": "guy",
          "type": "address"
        },
        {
          "indexed": false,
          "internalType": "uint256",
          "name": "wad",
          "type": "uint256"
        }
      ],
      "name": "Approval",
      "type": "event"
    },
    {
      "stateMutability": "payable",
      "type": "fallback"
    },
    {
      "inputs": [
        {
          "internalType": "address",
          "name": "account",
          "type": "address"
        }
      ],
      "name": "addSender",
      "outputs": [],
      "stateMutability": "nonpayable",
      "type": "function"
    },
    {
      "inputs": [],
      "name": "chi",
      "outputs": [
        {
          "internalType": "contract IFreeFromUpTo",
          "name": "",
          "type": "address"
        }
      ],
      "stateMutability": "view",
      "type": "function"
    },
    {
      "inputs": [
        {
          "internalType": "address",
          "name": "account",
          "type": "address"
        }
      ],
      "name": "removeSender",
      "outputs": [],
      "stateMutability": "nonpayable",
      "type": "function"
    },
    {
      "inputs": [
        {
          "internalType": "uint256",
          "name": "ethAmountInMax",
          "type": "uint256"
        },
        {
          "internalType": "address[]",
          "name": "path",
          "type": "address[]"
        },
        {
          "internalType": "uint256",
          "name": "tokenAmountOut",
          "type": "uint256"
        }
      ],
      "name": "swapEthForExactTokenUniswap",
      "outputs": [],
      "stateMutability": "payable",
      "type": "function"
    },
    {
      "inputs": [
        {
          "internalType": "uint256",
          "name": "ethAmountInMax",
          "type": "uint256"
        },
        {
          "internalType": "address[]",
          "name": "path",
          "type": "address[]"
        },
        {
          "internalType": "uint256",
          "name": "tokenAmountOut",
          "type": "uint256"
        },
        {
          "internalType": "uint256",
          "name": "numGasToken",
          "type": "uint256"
        }
      ],
      "name": "swapEthForExactTokenUniswapWithGasToken",
      "outputs": [],
      "stateMutability": "payable",
      "type": "function"
    },
    {
      "inputs": [
        {
          "internalType": "address[]",
          "name": "path",
          "type": "address[]"
        },
        {
          "internalType": "uint256",
          "name": "tokenAmountIn",
          "type": "uint256"
        },
        {
          "internalType": "uint256",
          "name": "ethAmountOutMin",
          "type": "uint256"
        }
      ],
      "name": "swapTokenForEthUniswap",
      "outputs": [],
      "stateMutability": "payable",
      "type": "function"
    },
    {
      "inputs": [
        {
          "internalType": "address[]",
          "name": "path",
          "type": "address[]"
        },
        {
          "internalType": "uint256",
          "name": "tokenAmountIn",
          "type": "uint256"
        },
        {
          "internalType": "uint256",
          "name": "ethAmountOutMin",
          "type": "uint256"
        },
        {
          "internalType": "uint256",
          "name": "numGasToken",
          "type": "uint256"
        }
      ],
      "name": "swapTokenForEthUniswapWithGasToken",
      "outputs": [],
      "stateMutability": "payable",
      "type": "function"
    },
    {
      "inputs": [
        {
          "internalType": "uint256",
          "name": "amount",
          "type": "uint256"
        }
      ],
      "name": "withdrawETH",
      "outputs": [],
      "stateMutability": "nonpayable",
      "type": "function"
    },
    {
      "inputs": [
        {
          "internalType": "address",
          "name": "tokenAddress",
          "type": "address"
        }
      ],
      "name": "withdrawToken",
      "outputs": [],
      "stateMutability": "nonpayable",
      "type": "function"
    }
  ],
  "bytecode": {
    "object": "608060405273c02aaa39b223fe8d0a0e5c4f27ead9083c756cc2600360006101000a81548173ffffffffffffffffffffffffffffffffffffffff021916908373ffffffffffffffffffffffffffffffffffffffff160217905550735c69bee701ef814a2b6a3edd4b1652cb9cc5aa6f600460006101000a81548173ffffffffffffffffffffffffffffffffffffffff021916908373ffffffffffffffffffffffffffffffffffffffff160217905550336000806101000a81548173ffffffffffffffffffffffffffffffffffffffff021916908373ffffffffffffffffffffffffffffffffffffffff160217905550737a250d5630b4cf539739df2c5dacb4c659f2488d600160006101000a81548173ffffffffffffffffffffffffffffffffffffffff021916908373ffffffffffffffffffffffffffffffffffffffff16021790555073d9e1ce17f2641f24ae83637ab66a2cca9c378b9f600260006101000a81548173ffffffffffffffffffffffffffffffffffffffff021916908373ffffffffffffffffffffffffffffffffffffffff1602179055506126ff806101a76000396000f3fe60806040526004361061008a5760003560e01c8063b2f8764311610059578063b2f876431461010a578063b697f53114610133578063c92aecc41461015c578063f14210a614610187578063f1d56a0d146101b05761008b565b8063320a28d71461008d57806364eaf48a146100a957806389476069146100c5578063ab31832a146100ee5761008b565b5b005b6100a760048036038101906100a29190611be4565b6101cc565b005b6100c360048036038101906100be9190611a5e565b6103b5565b005b3480156100d157600080fd5b506100ec60048036038101906100e791906119ce565b61074e565b005b610108600480360381019061010391906119f7565b61094f565b005b34801561011657600080fd5b50610131600480360381019061012c91906119ce565b610c4b565b005b34801561013f57600080fd5b5061015a600480360381019061015591906119ce565b610d34565b005b34801561016857600080fd5b50610171610e1d565b60405161017e9190612221565b60405180910390f35b34801561019357600080fd5b506101ae60048036038101906101a99190611b92565b610e2f565b005b6101ca60048036038101906101c59190611c4b565b610f4a565b005b60008054906101000a900473ffffffffffffffffffffffffffffffffffffffff1673ffffffffffffffffffffffffffffffffffffffff163373ffffffffffffffffffffffffffffffffffffffff16148061026f5750600560003373ffffffffffffffffffffffffffffffffffffffff1673ffffffffffffffffffffffffffffffffffffffff16815260200190815260200160002060009054906101000a900460ff165b6102ae576040517f08c379a00000000000000000000000000000000000000000000000000000000081526004016102a59061231e565b60405180910390fd5b826102dc600460009054906101000a900473ffffffffffffffffffffffffffffffffffffffff1683856111d0565b6000815181106102e857fe5b6020026020010151116103b057600160009054906101000a900473ffffffffffffffffffffffffffffffffffffffff1673ffffffffffffffffffffffffffffffffffffffff1663fb3bdb4184838530426040518663ffffffff1660e01b8152600401610357949392919061237e565b6000604051808303818588803b15801561037057600080fd5b505af1158015610384573d6000803e3d6000fd5b50505050506040513d6000823e3d601f19601f820116820180604052508101906103ae9190611ad9565b505b505050565b60008054906101000a900473ffffffffffffffffffffffffffffffffffffffff1673ffffffffffffffffffffffffffffffffffffffff163373ffffffffffffffffffffffffffffffffffffffff1614806104585750600560003373ffffffffffffffffffffffffffffffffffffffff1673ffffffffffffffffffffffffffffffffffffffff16815260200190815260200160002060009054906101000a900460ff165b610497576040517f08c379a000000000000000000000000000000000000000000000000000000000815260040161048e9061231e565b60405180910390fd5b6000846000815181106104a657fe5b60200260200101519050838173ffffffffffffffffffffffffffffffffffffffff166370a08231306040518263ffffffff1660e01b81526004016104ea91906121b4565b60206040518083038186803b15801561050257600080fd5b505afa158015610516573d6000803e3d6000fd5b505050506040513d601f19601f8201168201806040525081019061053a9190611bbb565b10610747578073ffffffffffffffffffffffffffffffffffffffff1663095ea7b3600160009054906101000a900473ffffffffffffffffffffffffffffffffffffffff16866040518363ffffffff1660e01b815260040161059c9291906121f8565b602060405180830381600087803b1580156105b657600080fd5b505af11580156105ca573d6000803e3d6000fd5b505050506040513d601f19601f820116820180604052508101906105ee9190611b1a565b50600160009054906101000a900473ffffffffffffffffffffffffffffffffffffffff1673ffffffffffffffffffffffffffffffffffffffff166318cbafe585858830426040518663ffffffff1660e01b81526004016106529594939291906123ca565b600060405180830381600087803b15801561066c57600080fd5b505af1158015610680573d6000803e3d6000fd5b505050506040513d6000823e3d601f19601f820116820180604052508101906106a99190611ad9565b506d4946c0e9f43f4dee607b0ef1fa1c73ffffffffffffffffffffffffffffffffffffffff1663079d229f33846040518363ffffffff1660e01b81526004016106f39291906121cf565b602060405180830381600087803b15801561070d57600080fd5b505af1158015610721573d6000803e3d6000fd5b505050506040513d601f19601f820116820180604052508101906107459190611bbb565b505b5050505050565b60008054906101000a900473ffffffffffffffffffffffffffffffffffffffff1673ffffffffffffffffffffffffffffffffffffffff163373ffffffffffffffffffffffffffffffffffffffff1614806107f15750600560003373ffffffffffffffffffffffffffffffffffffffff1673ffffffffffffffffffffffffffffffffffffffff16815260200190815260200160002060009054906101000a900460ff165b610830576040517f08c379a00000000000000000000000000000000000000000000000000000000081526004016108279061231e565b60405180910390fd5b60008190508073ffffffffffffffffffffffffffffffffffffffff1663a9059cbb338373ffffffffffffffffffffffffffffffffffffffff166370a08231306040518263ffffffff1660e01b815260040161088b91906121b4565b60206040518083038186803b1580156108a357600080fd5b505afa1580156108b7573d6000803e3d6000fd5b505050506040513d601f19601f820116820180604052508101906108db9190611bbb565b6040518363ffffffff1660e01b81526004016108f89291906121cf565b602060405180830381600087803b15801561091257600080fd5b505af1158015610926573d6000803e3d6000fd5b505050506040513d601f19601f8201168201806040525081019061094a9190611b1a565b505050565b60008054906101000a900473ffffffffffffffffffffffffffffffffffffffff1673ffffffffffffffffffffffffffffffffffffffff163373ffffffffffffffffffffffffffffffffffffffff1614806109f25750600560003373ffffffffffffffffffffffffffffffffffffffff1673ffffffffffffffffffffffffffffffffffffffff16815260200190815260200160002060009054906101000a900460ff165b610a31576040517f08c379a0000000000000000000000000000000000000000000000000000000008152600401610a289061231e565b60405180910390fd5b600083600081518110610a4057fe5b60200260200101519050828173ffffffffffffffffffffffffffffffffffffffff166370a08231306040518263ffffffff1660e01b8152600401610a8491906121b4565b60206040518083038186803b158015610a9c57600080fd5b505afa158015610ab0573d6000803e3d6000fd5b505050506040513d601f19601f82011682018060405250810190610ad49190611bbb565b10610c45578073ffffffffffffffffffffffffffffffffffffffff1663095ea7b3600160009054906101000a900473ffffffffffffffffffffffffffffffffffffffff16856040518363ffffffff1660e01b8152600401610b369291906121f8565b602060405180830381600087803b158015610b5057600080fd5b505af1158015610b64573d6000803e3d6000fd5b505050506040513d601f19601f82011682018060405250810190610b889190611b1a565b50600160009054906101000a900473ffffffffffffffffffffffffffffffffffffffff1673ffffffffffffffffffffffffffffffffffffffff166318cbafe584848730426040518663ffffffff1660e01b8152600401610bec9594939291906123ca565b600060405180830381600087803b158015610c0657600080fd5b505af1158015610c1a573d6000803e3d6000fd5b505050506040513d6000823e3d601f19601f82011682018060405250810190610c439190611ad9565b505b50505050565b60008054906101000a900473ffffffffffffffffffffffffffffffffffffffff1673ffffffffffffffffffffffffffffffffffffffff163373ffffffffffffffffffffffffffffffffffffffff1614610cd9576040517f08c379a0000000000000000000000000000000000000000000000000000000008152600401610cd09061235e565b60405180910390fd5b6000600560008373ffffffffffffffffffffffffffffffffffffffff1673ffffffffffffffffffffffffffffffffffffffff16815260200190815260200160002060006101000a81548160ff02191690831515021790555050565b60008054906101000a900473ffffffffffffffffffffffffffffffffffffffff1673ffffffffffffffffffffffffffffffffffffffff163373ffffffffffffffffffffffffffffffffffffffff1614610dc2576040517f08c379a0000000000000000000000000000000000000000000000000000000008152600401610db99061235e565b60405180910390fd5b6001600560008373ffffffffffffffffffffffffffffffffffffffff1673ffffffffffffffffffffffffffffffffffffffff16815260200190815260200160002060006101000a81548160ff02191690831515021790555050565b6d4946c0e9f43f4dee607b0ef1fa1c81565b60008054906101000a900473ffffffffffffffffffffffffffffffffffffffff1673ffffffffffffffffffffffffffffffffffffffff163373ffffffffffffffffffffffffffffffffffffffff161480610ed25750600560003373ffffffffffffffffffffffffffffffffffffffff1673ffffffffffffffffffffffffffffffffffffffff16815260200190815260200160002060009054906101000a900460ff165b610f11576040517f08c379a0000000000000000000000000000000000000000000000000000000008152600401610f089061231e565b60405180910390fd5b3373ffffffffffffffffffffffffffffffffffffffff166108fc829081150290604051600060405180830381858888f193505050505050565b60008054906101000a900473ffffffffffffffffffffffffffffffffffffffff1673ffffffffffffffffffffffffffffffffffffffff163373ffffffffffffffffffffffffffffffffffffffff161480610fed5750600560003373ffffffffffffffffffffffffffffffffffffffff1673ffffffffffffffffffffffffffffffffffffffff16815260200190815260200160002060009054906101000a900460ff165b61102c576040517f08c379a00000000000000000000000000000000000000000000000000000000081526004016110239061231e565b60405180910390fd5b8361105a600460009054906101000a900473ffffffffffffffffffffffffffffffffffffffff1684866111d0565b60008151811061106657fe5b6020026020010151116111ca57600160009054906101000a900473ffffffffffffffffffffffffffffffffffffffff1673ffffffffffffffffffffffffffffffffffffffff1663fb3bdb4185848630426040518663ffffffff1660e01b81526004016110d5949392919061237e565b6000604051808303818588803b1580156110ee57600080fd5b505af1158015611102573d6000803e3d6000fd5b50505050506040513d6000823e3d601f19601f8201168201806040525081019061112c9190611ad9565b506d4946c0e9f43f4dee607b0ef1fa1c73ffffffffffffffffffffffffffffffffffffffff1663079d229f33836040518363ffffffff1660e01b81526004016111769291906121cf565b602060405180830381600087803b15801561119057600080fd5b505af11580156111a4573d6000803e3d6000fd5b505050506040513d601f19601f820116820180604052508101906111c89190611bbb565b505b50505050565b6060600282511015611217576040517f08c379a000000000000000000000000000000000000000000000000000000000815260040161120e906122be565b60405180910390fd5b815167ffffffffffffffff8111801561122f57600080fd5b5060405190808252806020026020018201604052801561125e5781602001602082028036833780820191505090505b509050828160018351038151811061127257fe5b6020026020010181815250506000600183510390505b6000811115611315576000806112c8878660018603815181106112a757fe5b60200260200101518786815181106112bb57fe5b602002602001015161131d565b915091506112ea8484815181106112db57fe5b6020026020010151838361142f565b8460018503815181106112f957fe5b6020026020010181815250505050808060019003915050611288565b509392505050565b600080600061132c8585611540565b50905060008061133d88888861166e565b73ffffffffffffffffffffffffffffffffffffffff16630902f1ac6040518163ffffffff1660e01b815260040160606040518083038186803b15801561138257600080fd5b505afa158015611396573d6000803e3d6000fd5b505050506040513d601f19601f820116820180604052508101906113ba9190611b43565b506dffffffffffffffffffffffffffff1691506dffffffffffffffffffffffffffff1691508273ffffffffffffffffffffffffffffffffffffffff168773ffffffffffffffffffffffffffffffffffffffff161461141957808261141c565b81815b8095508196505050505050935093915050565b6000808411611473576040517f08c379a000000000000000000000000000000000000000000000000000000000815260040161146a9061227e565b60405180910390fd5b6000831180156114835750600082115b6114c2576040517f08c379a00000000000000000000000000000000000000000000000000000000081526004016114b9906122de565b60405180910390fd5b60006114eb6103e86114dd87876116e090919063ffffffff16565b6116e090919063ffffffff16565b905060006115166103e5611508888761175090919063ffffffff16565b6116e090919063ffffffff16565b9050611535600182848161152657fe5b0461179a90919063ffffffff16565b925050509392505050565b6000808273ffffffffffffffffffffffffffffffffffffffff168473ffffffffffffffffffffffffffffffffffffffff1614156115b2576040517f08c379a00000000000000000000000000000000000000000000000000000000081526004016115a99061229e565b60405180910390fd5b8273ffffffffffffffffffffffffffffffffffffffff168473ffffffffffffffffffffffffffffffffffffffff16106115ec5782846115ef565b83835b8092508193505050600073ffffffffffffffffffffffffffffffffffffffff168273ffffffffffffffffffffffffffffffffffffffff161415611667576040517f08c379a000000000000000000000000000000000000000000000000000000000815260040161165e9061233e565b60405180910390fd5b9250929050565b600080600061167d8585611540565b91509150858282604051602001611695929190612146565b604051602081830303815290604052805190602001206040516020016116bc929190612172565b6040516020818303038152906040528051906020012060001c925050509392505050565b6000808314156116f3576000905061174a565b600082840290508284828161170457fe5b0414611745576040517f08c379a000000000000000000000000000000000000000000000000000000000815260040161173c906122fe565b60405180910390fd5b809150505b92915050565b600061179283836040518060400160405280601e81526020017f536166654d6174683a207375627472616374696f6e206f766572666c6f7700008152506117ef565b905092915050565b6000808284019050838110156117e5576040517f08c379a00000000000000000000000000000000000000000000000000000000081526004016117dc9061225e565b60405180910390fd5b8091505092915050565b6000838311158290611837576040517f08c379a000000000000000000000000000000000000000000000000000000000815260040161182e919061223c565b60405180910390fd5b5060008385039050809150509392505050565b60008135905061185981612656565b92915050565b600082601f83011261187057600080fd5b813561188361187e82612451565b612424565b915081818352602084019350602081019050838560208402820111156118a857600080fd5b60005b838110156118d857816118be888261184a565b8452602084019350602083019250506001810190506118ab565b5050505092915050565b600082601f8301126118f357600080fd5b815161190661190182612479565b612424565b9150818183526020840193506020810190508385602084028201111561192b57600080fd5b60005b8381101561195b578161194188826119a4565b84526020840193506020830192505060018101905061192e565b5050505092915050565b6000815190506119748161266d565b92915050565b60008151905061198981612684565b92915050565b60008135905061199e8161269b565b92915050565b6000815190506119b38161269b565b92915050565b6000815190506119c8816126b2565b92915050565b6000602082840312156119e057600080fd5b60006119ee8482850161184a565b91505092915050565b600080600060608486031215611a0c57600080fd5b600084013567ffffffffffffffff811115611a2657600080fd5b611a328682870161185f565b9350506020611a438682870161198f565b9250506040611a548682870161198f565b9150509250925092565b60008060008060808587031215611a7457600080fd5b600085013567ffffffffffffffff811115611a8e57600080fd5b611a9a8782880161185f565b9450506020611aab8782880161198f565b9350506040611abc8782880161198f565b9250506060611acd8782880161198f565b91505092959194509250565b600060208284031215611aeb57600080fd5b600082015167ffffffffffffffff811115611b0557600080fd5b611b11848285016118e2565b91505092915050565b600060208284031215611b2c57600080fd5b6000611b3a84828501611965565b91505092915050565b600080600060608486031215611b5857600080fd5b6000611b668682870161197a565b9350506020611b778682870161197a565b9250506040611b88868287016119b9565b9150509250925092565b600060208284031215611ba457600080fd5b6000611bb28482850161198f565b91505092915050565b600060208284031215611bcd57600080fd5b6000611bdb848285016119a4565b91505092915050565b600080600060608486031215611bf957600080fd5b6000611c078682870161198f565b935050602084013567ffffffffffffffff811115611c2457600080fd5b611c308682870161185f565b9250506040611c418682870161198f565b9150509250925092565b60008060008060808587031215611c6157600080fd5b6000611c6f8782880161198f565b945050602085013567ffffffffffffffff811115611c8c57600080fd5b611c988782880161185f565b9350506040611ca98782880161198f565b9250506060611cba8782880161198f565b91505092959194509250565b6000611cd28383611ced565b60208301905092915050565b611ce78161257d565b82525050565b611cf681612501565b82525050565b611d0581612501565b82525050565b611d1c611d1782612501565b61260a565b82525050565b6000611d2d826124b1565b611d3781856124d4565b9350611d42836124a1565b8060005b83811015611d73578151611d5a8882611cc6565b9750611d65836124c7565b925050600181019050611d46565b5085935050505092915050565b611d91611d8c8261251f565b61261c565b82525050565b611da08161258f565b82525050565b6000611db1826124bc565b611dbb81856124e5565b9350611dcb8185602086016125d7565b611dd481612638565b840191505092915050565b6000611dec601b836124e5565b91507f536166654d6174683a206164646974696f6e206f766572666c6f7700000000006000830152602082019050919050565b6000611e2c602c836124e5565b91507f556e697377617056324c6962726172793a20494e53554646494349454e545f4f60008301527f55545055545f414d4f554e5400000000000000000000000000000000000000006020830152604082019050919050565b6000611e926025836124e5565b91507f556e697377617056324c6962726172793a204944454e544943414c5f4144445260008301527f45535345530000000000000000000000000000000000000000000000000000006020830152604082019050919050565b6000611ef86020836124f6565b91507f96e8ac4277198ff8b6f785478aa9a39f403cb768dd02cbee326c3e7da348845f6000830152602082019050919050565b6000611f38601e836124e5565b91507f556e697377617056324c6962726172793a20494e56414c49445f5041544800006000830152602082019050919050565b6000611f786028836124e5565b91507f556e697377617056324c6962726172793a20494e53554646494349454e545f4c60008301527f49515549444954590000000000000000000000000000000000000000000000006020830152604082019050919050565b6000611fde6001836124f6565b91507fff000000000000000000000000000000000000000000000000000000000000006000830152600182019050919050565b600061201e6021836124e5565b91507f536166654d6174683a206d756c7469706c69636174696f6e206f766572666c6f60008301527f77000000000000000000000000000000000000000000000000000000000000006020830152604082019050919050565b6000612084600a836124e5565b91507f6e6f742073656e646572000000000000000000000000000000000000000000006000830152602082019050919050565b60006120c4601e836124e5565b91507f556e697377617056324c6962726172793a205a45524f5f4144445245535300006000830152602082019050919050565b60006121046009836124e5565b91507f6e6f74206f776e657200000000000000000000000000000000000000000000006000830152602082019050919050565b61214081612563565b82525050565b60006121528285611d0b565b6014820191506121628284611d0b565b6014820191508190509392505050565b600061217d82611fd1565b91506121898285611d0b565b6014820191506121998284611d80565b6020820191506121a882611eeb565b91508190509392505050565b60006020820190506121c96000830184611cde565b92915050565b60006040820190506121e46000830185611cde565b6121f16020830184612137565b9392505050565b600060408201905061220d6000830185611cfc565b61221a6020830184612137565b9392505050565b60006020820190506122366000830184611d97565b92915050565b600060208201905081810360008301526122568184611da6565b905092915050565b6000602082019050818103600083015261227781611ddf565b9050919050565b6000602082019050818103600083015261229781611e1f565b9050919050565b600060208201905081810360008301526122b781611e85565b9050919050565b600060208201905081810360008301526122d781611f2b565b9050919050565b600060208201905081810360008301526122f781611f6b565b9050919050565b6000602082019050818103600083015261231781612011565b9050919050565b6000602082019050818103600083015261233781612077565b9050919050565b60006020820190508181036000830152612357816120b7565b9050919050565b60006020820190508181036000830152612377816120f7565b9050919050565b60006080820190506123936000830187612137565b81810360208301526123a58186611d22565b90506123b46040830185611cde565b6123c16060830184612137565b95945050505050565b600060a0820190506123df6000830188612137565b6123ec6020830187612137565b81810360408301526123fe8186611d22565b905061240d6060830185611cde565b61241a6080830184612137565b9695505050505050565b6000604051905081810181811067ffffffffffffffff8211171561244757600080fd5b8060405250919050565b600067ffffffffffffffff82111561246857600080fd5b602082029050602081019050919050565b600067ffffffffffffffff82111561249057600080fd5b602082029050602081019050919050565b6000819050602082019050919050565b600081519050919050565b600081519050919050565b6000602082019050919050565b600082825260208201905092915050565b600082825260208201905092915050565b600081905092915050565b600061250c82612543565b9050919050565b60008115159050919050565b6000819050919050565b60006dffffffffffffffffffffffffffff82169050919050565b600073ffffffffffffffffffffffffffffffffffffffff82169050919050565b6000819050919050565b600063ffffffff82169050919050565b6000612588826125b3565b9050919050565b600061259a826125a1565b9050919050565b60006125ac82612543565b9050919050565b60006125be826125c5565b9050919050565b60006125d082612543565b9050919050565b60005b838110156125f55780820151818401526020810190506125da565b83811115612604576000848401525b50505050565b600061261582612626565b9050919050565b6000819050919050565b600061263182612649565b9050919050565b6000601f19601f8301169050919050565b60008160601b9050919050565b61265f81612501565b811461266a57600080fd5b50565b61267681612513565b811461268157600080fd5b50565b61268d81612529565b811461269857600080fd5b50565b6126a481612563565b81146126af57600080fd5b50565b6126bb8161256d565b81146126c657600080fd5b5056fea264697066735822122067c51eecef7309563578a4856c1669bae67599cdb03a15ec363c7126e4210ac664736f6c634300060c0033"
  }
}