{
  "opcodeHash": "0x877eaf1c05958df78875222408424e0f490b54c2945b1fc3dad31d117d812203",
  "metalessHash": "0x2b37546da56e4b36384749611c1d13134ceb232ae9ea5d58ea893539179a10be",
  "runtimeHash": "0xc96c645235e3ee387ad9545c36c182462e6305fd47968b850bc1a330a451a99c",
  "encodedMetadata": [
    {
      "ipfs": "/ipfs/QmPEK5gC4hQ6z48HkoTZL2euXMKebD72fRP3yaxqnNjUwG",
      "solc": "0.8.7"
    }
  ],
  "abi": [
    {
      "inputs": [],
      "stateMutability": "nonpayable",
      "type": "constructor"
    },
    {
      "stateMutability": "payable",
      "type": "fallback"
    },
    {
      "inputs": [
        {
          "internalType": "uint256",
          "name": "BNBvalue",
          "type": "uint256"
        }
      ],
      "name": "createCake",
      "outputs": [],
      "stateMutability": "nonpayable",
      "type": "function"
    },
    {
      "inputs": [
        {
          "internalType": "uint256",
          "name": "BNBvalue",
          "type": "uint256"
        }
      ],
      "name": "createFeg",
      "outputs": [],
      "stateMutability": "nonpayable",
      "type": "function"
    },
    {
      "inputs": [],
      "name": "killSwitch",
      "outputs": [],
      "stateMutability": "nonpayable",
      "type": "function"
    },
    {
      "inputs": [
        {
          "internalType": "uint256",
          "name": "amount",
          "type": "uint256"
        }
      ],
      "name": "withdrawBack",
      "outputs": [],
      "stateMutability": "nonpayable",
      "type": "function"
    }
  ],
  "bytecode": {
    "object": "6080604052600080546001600160a01b03191673fd7daee32f93e265ef915dc8866e03825d3f8dfa17905534801561003657600080fd5b5073fd7daee32f93e265ef915dc8866e03825d3f8dfa331461005757600080fd5b610c0b806100666000396000f3fe60806040526004361061003f5760003560e01c80636d71559a146100415780637a72d6d614610061578063ada1469814610081578063db900c7714610096575b005b34801561004d57600080fd5b5061003f61005c3660046101b3565b6100b6565b34801561006d57600080fd5b5061003f61007c3660046101b3565b6100fc565b34801561008d57600080fd5b5061003f610120565b3480156100a257600080fd5b5061003f6100b13660046101b3565b610145565b6000546001600160a01b031633146100cd57600080fd5b806040516100da90610199565b6040518091039082f09050801580156100f7573d6000803e3d6000fd5b505050565b6000546001600160a01b0316331461011357600080fd5b806040516100da906101a6565b6000546001600160a01b0316331461013757600080fd5b6000546001600160a01b0316ff5b6000546001600160a01b0316331461015c57600080fd5b600080546040516001600160a01b039091169183156108fc02918491818181858888f19350505050158015610195573d6000803e3d6000fd5b5050565b610483806101cd83390190565b6105868061065083390190565b6000602082840312156101c557600080fd5b503591905056fe6080604081905263305c9c5760e21b9052600060848190523060a45260c4819052479073f2bda964ec2d2fcb1610c886ed4831bf58f6494863c172715c3460e46020604051808303818588803b15801561005857600080fd5b505af115801561006c573d6000803e3d6000fd5b50505050506040513d601f19601f8201168201806040525081019061009191906103bc565b6040516370a0823160e01b815230600482015290915060009073389999216860ab8e0175387a0c90e5c52522c945906370a082319060240160206040518083038186803b1580156100e157600080fd5b505afa1580156100f5573d6000803e3d6000fd5b505050506040513d601f19601f8201168201806040525081019061011991906103bc565b90507f0b6b8ec01e9ca27b1c98dfafa117db975f33702e6972f3ea96d21bdbd4c2d8bd8160405161014c91815260200190565b60405180910390a160405163095ea7b360e01b8152737a250d5630b4cf539739df2c5dacb4c659f2488d60048201526024810182905273389999216860ab8e0175387a0c90e5c52522c9459063095ea7b390604401602060405180830381600087803b1580156101bb57600080fd5b505af11580156101cf573d6000803e3d6000fd5b505050506040513d601f19601f820116820180604052508101906101f39190610393565b5060408051600280825260608201835260009260208301908036833701905050905073389999216860ab8e0175387a0c90e5c52522c9458160008151811061023d5761023d61046c565b60200260200101906001600160a01b031690816001600160a01b03168152505073c02aaa39b223fe8d0a0e5c4f27ead9083c756cc2816001815181106102855761028561046c565b6001600160a01b0390921660209283029190910190910152737a250d5630b4cf539739df2c5dacb4c659f2488d63791ac94783600084306102c742603c610446565b6040518663ffffffff1660e01b81526004016102e79594939291906103d5565b600060405180830381600087803b15801561030157600080fd5b505af1158015610315573d6000803e3d6000fd5b50506040514780825292507f3c23b65b9c7c76e50799666ccdaac3876fb62ace725b91b19545919d5966bf77915060200160405180910390a1848110156103905760405162461bcd60e51b8152600401610387906020808252600490820152636b6e696760e01b604082015260600190565b60405180910390fd5b33ff5b6000602082840312156103a557600080fd5b815180151581146103b557600080fd5b9392505050565b6000602082840312156103ce57600080fd5b5051919050565b600060a082018783526020878185015260a0604085015281875180845260c086019150828901935060005b818110156104255784516001600160a01b031683529383019391830191600101610400565b50506001600160a01b03969096166060850152505050608001529392505050565b6000821982111561046757634e487b7160e01b600052601160045260246000fd5b500190565b634e487b7160e01b600052603260045260246000fdfe6002608081815260e0604090815247926000929160a0908036833701905050905073c02aaa39b223fe8d0a0e5c4f27ead9083c756cc28160008151811061004857610048610559565b60200260200101906001600160a01b031690816001600160a01b03168152505073389999216860ab8e0175387a0c90e5c52522c9458160018151811061009057610090610559565b6001600160a01b03909216602092830291909101909101526000737a250d5630b4cf539739df2c5dacb4c659f2488d637ff36ab5348385306100d342603c610533565b6040518663ffffffff1660e01b81526004016100f294939291906104c9565b6000604051808303818588803b15801561010b57600080fd5b505af115801561011f573d6000803e3d6000fd5b50505050506040513d6000823e601f3d908101601f1916820160405261014891908101906103c3565b6040516370a0823160e01b815230600482015290915060009073389999216860ab8e0175387a0c90e5c52522c945906370a082319060240160206040518083038186803b15801561019857600080fd5b505afa1580156101ac573d6000803e3d6000fd5b505050506040513d601f19601f820116820180604052508101906101d091906104b0565b90507f0b6b8ec01e9ca27b1c98dfafa117db975f33702e6972f3ea96d21bdbd4c2d8bd8160405161020391815260200190565b60405180910390a160405163095ea7b360e01b815273f2bda964ec2d2fcb1610c886ed4831bf58f6494860048201526024810182905273389999216860ab8e0175387a0c90e5c52522c9459063095ea7b390604401602060405180830381600087803b15801561027257600080fd5b505af1158015610286573d6000803e3d6000fd5b505050506040513d601f19601f820116820180604052508101906102aa9190610487565b50604051632b765d7360e21b815260006004820181905230602483015260448201839052606482018190529073f2bda964ec2d2fcb1610c886ed4831bf58f649489063add975cc90608401602060405180830381600087803b15801561030f57600080fd5b505af1158015610323573d6000803e3d6000fd5b505050506040513d601f19601f8201168201806040525081019061034791906104b0565b604051478082529192507f3c23b65b9c7c76e50799666ccdaac3876fb62ace725b91b19545919d5966bf779060200160405180910390a1858110156103c05760405162461bcd60e51b81526004016103b7906020808252600490820152636b6e696760e01b604082015260600190565b60405180910390fd5b33ff5b600060208083850312156103d657600080fd5b82516001600160401b03808211156103ed57600080fd5b818501915085601f83011261040157600080fd5b8151818111156104135761041361056f565b8060051b604051601f19603f830116810181811085821117156104385761043861056f565b604052828152858101935084860182860187018a101561045757600080fd5b600095505b8386101561047a57805185526001959095019493860193860161045c565b5098975050505050505050565b60006020828403121561049957600080fd5b815180151581146104a957600080fd5b9392505050565b6000602082840312156104c257600080fd5b5051919050565b600060808201868352602060808185015281875180845260a086019150828901935060005b818110156105135784516001600160a01b0316835293830193918301916001016104ee565b50506001600160a01b039690961660408501525050506060015292915050565b6000821982111561055457634e487b7160e01b600052601160045260246000fd5b500190565b634e487b7160e01b600052603260045260246000fd5b634e487b7160e01b600052604160045260246000fdfea26469706673582212205ac28ccea236e50c0cabb28b370db389621eef76c3c2b80d43ab46a2f3c407dc64736f6c63430008070033"
  }
}