{"compiler":"v0.8.4+commit.c7e474f2","opcodeHash":"0x266ca2bd40e390f332b17521b2110a58d0bc3f3fb72f2c82aa95fc1d7e455424","metalessHash":"0xd84c37867b8e0a9085af91c69c8b417ee04b5b85521fcf93c0c2a2089e204e5b","runtimeHash":"0x4ad5a0d87028dc6b3c2f2dc428cd28d9844b288b1fa95b7fea1e4a427c03b29f","encodedMetadata":[{"ipfs":"/ipfs/QmUY8f4b4LS7iCqsb4crK394PS3JYhHj2gRQKFatKjhw8v","solc":"0.8.4"}],"abi":[{"inputs":[{"internalType":"string","name":"_uri","type":"string"},{"internalType":"string","name":"_contractName","type":"string"},{"internalType":"string","name":"_tokenSymbol","type":"string"},{"internalType":"uint256","name":"_maxMint","type":"uint256"}],"stateMutability":"nonpayable","type":"constructor"},{"anonymous":false,"inputs":[{"indexed":true,"internalType":"address","name":"owner","type":"address"},{"indexed":true,"internalType":"address","name":"approved","type":"address"},{"indexed":true,"internalType":"uint256","name":"tokenId","type":"uint256"}],"name":"Approval","type":"event"},{"anonymous":false,"inputs":[{"indexed":true,"internalType":"address","name":"owner","type":"address"},{"indexed":true,"internalType":"address","name":"operator","type":"address"},{"indexed":false,"internalType":"bool","name":"approved","type":"bool"}],"name":"ApprovalForAll","type":"event"},{"anonymous":false,"inputs":[{"indexed":true,"internalType":"address","name":"previousOwner","type":"address"},{"indexed":true,"internalType":"address","name":"newOwner","type":"address"}],"name":"OwnershipTransferred","type":"event"},{"anonymous":false,"inputs":[{"indexed":true,"internalType":"bytes32","name":"role","type":"bytes32"},{"indexed":true,"internalType":"bytes32","name":"previousAdminRole","type":"bytes32"},{"indexed":true,"internalType":"bytes32","name":"newAdminRole","type":"bytes32"}],"name":"RoleAdminChanged","type":"event"},{"anonymous":false,"inputs":[{"indexed":true,"internalType":"bytes32","name":"role","type":"bytes32"},{"indexed":true,"internalType":"address","name":"account","type":"address"},{"indexed":true,"internalType":"address","name":"sender","type":"address"}],"name":"RoleGranted","type":"event"},{"anonymous":false,"inputs":[{"indexed":true,"internalType":"bytes32","name":"role","type":"bytes32"},{"indexed":true,"internalType":"address","name":"account","type":"address"},{"indexed":true,"internalType":"address","name":"sender","type":"address"}],"name":"RoleRevoked","type":"event"},{"anonymous":false,"inputs":[{"indexed":true,"internalType":"address","name":"from","type":"address"},{"indexed":true,"internalType":"address","name":"to","type":"address"},{"indexed":true,"internalType":"uint256","name":"tokenId","type":"uint256"}],"name":"Transfer","type":"event"},{"inputs":[],"name":"DEFAULT_ADMIN_ROLE","outputs":[{"internalType":"bytes32","name":"","type":"bytes32"}],"stateMutability":"view","type":"function"},{"inputs":[],"name":"MINTER_ROLE","outputs":[{"internalType":"bytes32","name":"","type":"bytes32"}],"stateMutability":"view","type":"function"},{"inputs":[],"name":"PAUSER_ROLE","outputs":[{"internalType":"bytes32","name":"","type":"bytes32"}],"stateMutability":"view","type":"function"},{"inputs":[{"internalType":"address","name":"to","type":"address"},{"internalType":"uint256","name":"tokenId","type":"uint256"}],"name":"approve","outputs":[],"stateMutability":"nonpayable","type":"function"},{"inputs":[{"internalType":"address","name":"owner","type":"address"}],"name":"balanceOf","outputs":[{"internalType":"uint256","name":"","type":"uint256"}],"stateMutability":"view","type":"function"},{"inputs":[{"internalType":"uint256","name":"tokenId","type":"uint256"}],"name":"burn","outputs":[],"stateMutability":"nonpayable","type":"function"},{"inputs":[{"internalType":"uint256","name":"quantity","type":"uint256"}],"name":"canMint","outputs":[{"internalType":"bool","name":"","type":"bool"}],"stateMutability":"view","type":"function"},{"inputs":[{"internalType":"uint256","name":"tokenId","type":"uint256"}],"name":"getApproved","outputs":[{"internalType":"address","name":"","type":"address"}],"stateMutability":"view","type":"function"},{"inputs":[{"internalType":"bytes32","name":"role","type":"bytes32"}],"name":"getRoleAdmin","outputs":[{"internalType":"bytes32","name":"","type":"bytes32"}],"stateMutability":"view","type":"function"},{"inputs":[{"internalType":"bytes32","name":"role","type":"bytes32"},{"internalType":"address","name":"account","type":"address"}],"name":"grantRole","outputs":[],"stateMutability":"nonpayable","type":"function"},{"inputs":[{"internalType":"bytes32","name":"role","type":"bytes32"},{"internalType":"address","name":"account","type":"address"}],"name":"hasRole","outputs":[{"internalType":"bool","name":"","type":"bool"}],"stateMutability":"view","type":"function"},{"inputs":[{"internalType":"address","name":"owner","type":"address"},{"internalType":"address","name":"operator","type":"address"}],"name":"isApprovedForAll","outputs":[{"internalType":"bool","name":"","type":"bool"}],"stateMutability":"view","type":"function"},{"inputs":[{"internalType":"address","name":"to","type":"address"}],"name":"mint","outputs":[],"stateMutability":"nonpayable","type":"function"},{"inputs":[],"name":"name","outputs":[{"internalType":"string","name":"","type":"string"}],"stateMutability":"view","type":"function"},{"inputs":[],"name":"owner","outputs":[{"internalType":"address","name":"","type":"address"}],"stateMutability":"view","type":"function"},{"inputs":[{"internalType":"uint256","name":"tokenId","type":"uint256"}],"name":"ownerOf","outputs":[{"internalType":"address","name":"","type":"address"}],"stateMutability":"view","type":"function"},{"inputs":[],"name":"renounceOwnership","outputs":[],"stateMutability":"nonpayable","type":"function"},{"inputs":[{"internalType":"bytes32","name":"role","type":"bytes32"},{"internalType":"address","name":"account","type":"address"}],"name":"renounceRole","outputs":[],"stateMutability":"nonpayable","type":"function"},{"inputs":[{"internalType":"bytes32","name":"role","type":"bytes32"},{"internalType":"address","name":"account","type":"address"}],"name":"revokeRole","outputs":[],"stateMutability":"nonpayable","type":"function"},{"inputs":[{"internalType":"address","name":"from","type":"address"},{"internalType":"address","name":"to","type":"address"},{"internalType":"uint256","name":"tokenId","type":"uint256"}],"name":"safeTransferFrom","outputs":[],"stateMutability":"nonpayable","type":"function"},{"inputs":[{"internalType":"address","name":"from","type":"address"},{"internalType":"address","name":"to","type":"address"},{"internalType":"uint256","name":"tokenId","type":"uint256"},{"internalType":"bytes","name":"_data","type":"bytes"}],"name":"safeTransferFrom","outputs":[],"stateMutability":"nonpayable","type":"function"},{"inputs":[{"internalType":"address","name":"operator","type":"address"},{"internalType":"bool","name":"approved","type":"bool"}],"name":"setApprovalForAll","outputs":[],"stateMutability":"nonpayable","type":"function"},{"inputs":[{"internalType":"string","name":"uri","type":"string"}],"name":"setBaseURI","outputs":[],"stateMutability":"nonpayable","type":"function"},{"inputs":[{"internalType":"bytes4","name":"interfaceId","type":"bytes4"}],"name":"supportsInterface","outputs":[{"internalType":"bool","name":"","type":"bool"}],"stateMutability":"view","type":"function"},{"inputs":[],"name":"symbol","outputs":[{"internalType":"string","name":"","type":"string"}],"stateMutability":"view","type":"function"},{"inputs":[{"internalType":"uint256","name":"index","type":"uint256"}],"name":"tokenByIndex","outputs":[{"internalType":"uint256","name":"","type":"uint256"}],"stateMutability":"view","type":"function"},{"inputs":[{"internalType":"address","name":"owner","type":"address"},{"internalType":"uint256","name":"index","type":"uint256"}],"name":"tokenOfOwnerByIndex","outputs":[{"internalType":"uint256","name":"","type":"uint256"}],"stateMutability":"view","type":"function"},{"inputs":[{"internalType":"uint256","name":"tokenId","type":"uint256"}],"name":"tokenURI","outputs":[{"internalType":"string","name":"","type":"string"}],"stateMutability":"view","type":"function"},{"inputs":[],"name":"totalSupply","outputs":[{"internalType":"uint256","name":"","type":"uint256"}],"stateMutability":"view","type":"function"},{"inputs":[{"internalType":"address","name":"from","type":"address"},{"internalType":"address","name":"to","type":"address"},{"internalType":"uint256","name":"tokenId","type":"uint256"}],"name":"transferFrom","outputs":[],"stateMutability":"nonpayable","type":"function"},{"inputs":[{"internalType":"address","name":"newOwner","type":"address"}],"name":"transferOwnership","outputs":[],"stateMutability":"nonpayable","type":"function"}],"bytecode":{"object":"60806040523480156200001157600080fd5b5060405162002bed38038062002bed833981016040819052620000349162000315565b8251839083906200004d906000906020850190620001bc565b50805162000063906001906020840190620001bc565b505050620000806200007a620000b260201b60201c565b620000b6565b6200008d60003362000108565b600d8190558351620000a790600e906020870190620001bc565b5050505050620003fd565b3390565b600a80546001600160a01b038381166001600160a01b0319831681179093556040519116919082907f8be0079c531659141344cd1fd0a4f28419497f9722a3daafe3b4186f6b6457e090600090a35050565b62000114828262000118565b5050565b6000828152600b602090815260408083206001600160a01b038516845290915290205460ff1662000114576000828152600b602090815260408083206001600160a01b03851684529091529020805460ff19166001179055620001783390565b6001600160a01b0316816001600160a01b0316837f2f8788117e7eff1d82e926ec794901d17c78024a50270940304540a733656f0d60405160405180910390a45050565b828054620001ca90620003aa565b90600052602060002090601f016020900481019282620001ee576000855562000239565b82601f106200020957805160ff191683800117855562000239565b8280016001018555821562000239579182015b82811115620002395782518255916020019190600101906200021c565b50620002479291506200024b565b5090565b5b808211156200024757600081556001016200024c565b600082601f83011262000273578081fd5b81516001600160401b0380821115620002905762000290620003e7565b604051601f8301601f19908116603f01168101908282118183101715620002bb57620002bb620003e7565b81604052838152602092508683858801011115620002d7578485fd5b8491505b83821015620002fa5785820183015181830184015290820190620002db565b838211156200030b57848385830101525b9695505050505050565b600080600080608085870312156200032b578384fd5b84516001600160401b038082111562000342578586fd5b620003508883890162000262565b9550602087015191508082111562000366578485fd5b620003748883890162000262565b945060408701519150808211156200038a578384fd5b50620003998782880162000262565b606096909601519497939650505050565b600181811c90821680620003bf57607f821691505b60208210811415620003e157634e487b7160e01b600052602260045260246000fd5b50919050565b634e487b7160e01b600052604160045260246000fd5b6127e0806200040d6000396000f3fe608060405234801561001057600080fd5b50600436106101e55760003560e01c80636352211e1161010f578063a22cb465116100a2578063d547741f11610071578063d547741f14610442578063e63ab1e914610455578063e985e9c51461047c578063f2fde38b146104b857600080fd5b8063a22cb465146103e2578063b88d4fde146103f5578063c87b56dd14610408578063d53913931461041b57600080fd5b80638da5cb5b116100de5780638da5cb5b1461038857806391d148541461039957806395d89b41146103d2578063a217fddf146103da57600080fd5b80636352211e146103475780636a6278421461035a57806370a082311461036d578063715018a61461038057600080fd5b80632f2ff15d1161018757806342966c681161015657806342966c68146102fb5780634f6ccce71461030e57806355f804b3146103215780635dd871a31461033457600080fd5b80632f2ff15d146102af5780632f745c59146102c257806336568abe146102d557806342842e0e146102e857600080fd5b8063095ea7b3116101c3578063095ea7b31461025257806318160ddd1461026757806323b872dd14610279578063248a9ca31461028c57600080fd5b806301ffc9a7146101ea57806306fdde0314610212578063081812fc14610227575b600080fd5b6101fd6101f8366004612473565b6104cb565b60405190151581526020015b60405180910390f35b61021a6104dc565b6040516102099190612630565b61023a610235366004612439565b61056e565b6040516001600160a01b039091168152602001610209565b610265610260366004612410565b610619565b005b6008545b604051908152602001610209565b6102656102873660046122c6565b61074b565b61026b61029a366004612439565b6000908152600b602052604090206001015490565b6102656102bd366004612451565b6107d3565b61026b6102d0366004612410565b6107f9565b6102656102e3366004612451565b6108a1565b6102656102f63660046122c6565b61092d565b610265610309366004612439565b610948565b61026b61031c366004612439565b6109cf565b61026561032f3660046124ab565b610a81565b6101fd610342366004612439565b610ae7565b61023a610355366004612439565b610b08565b61026561036836600461227a565b610b93565b61026b61037b36600461227a565b610c7c565b610265610d16565b600a546001600160a01b031661023a565b6101fd6103a7366004612451565b6000918252600b602090815260408084206001600160a01b0393909316845291905290205460ff1690565b61021a610d7c565b61026b600081565b6102656103f03660046123d6565b610d8b565b610265610403366004612301565b610e50565b61021a610416366004612439565b610ede565b61026b7f9f2df0fed2c77648de5860a4cc508cd0818c85b8b8a1ab4ceeef8d981c8956a681565b610265610450366004612451565b610fc7565b61026b7f65d7a28e3265b37a6474929f336521b332c1681b933f6cb9f3376673440d862a81565b6101fd61048a366004612294565b6001600160a01b03918216600090815260056020908152604080832093909416825291909152205460ff1690565b6102656104c636600461227a565b610fed565b60006104d6826110cc565b92915050565b6060600080546104eb906126e8565b80601f0160208091040260200160405190810160405280929190818152602001828054610517906126e8565b80156105645780601f1061053957610100808354040283529160200191610564565b820191906000526020600020905b81548152906001019060200180831161054757829003601f168201915b5050505050905090565b6000818152600260205260408120546001600160a01b03166105fd5760405162461bcd60e51b815260206004820152602c60248201527f4552433732313a20617070726f76656420717565727920666f72206e6f6e657860448201527f697374656e7420746f6b656e000000000000000000000000000000000000000060648201526084015b60405180910390fd5b506000908152600460205260409020546001600160a01b031690565b600061062482610b08565b9050806001600160a01b0316836001600160a01b031614156106ae5760405162461bcd60e51b815260206004820152602160248201527f4552433732313a20617070726f76616c20746f2063757272656e74206f776e6560448201527f720000000000000000000000000000000000000000000000000000000000000060648201526084016105f4565b336001600160a01b03821614806106ca57506106ca813361048a565b61073c5760405162461bcd60e51b815260206004820152603860248201527f4552433732313a20617070726f76652063616c6c6572206973206e6f74206f7760448201527f6e6572206e6f7220617070726f76656420666f7220616c6c000000000000000060648201526084016105f4565b610746838361110a565b505050565b610756335b82611185565b6107c85760405162461bcd60e51b815260206004820152603160248201527f4552433732313a207472616e736665722063616c6c6572206973206e6f74206f60448201527f776e6572206e6f7220617070726f76656400000000000000000000000000000060648201526084016105f4565b61074683838361128d565b6000828152600b60205260409020600101546107ef8133611472565b61074683836114f2565b600061080483610c7c565b82106108785760405162461bcd60e51b815260206004820152602b60248201527f455243373231456e756d657261626c653a206f776e657220696e646578206f7560448201527f74206f6620626f756e647300000000000000000000000000000000000000000060648201526084016105f4565b506001600160a01b03919091166000908152600660209081526040808320938352929052205490565b6001600160a01b038116331461091f5760405162461bcd60e51b815260206004820152602f60248201527f416363657373436f6e74726f6c3a2063616e206f6e6c792072656e6f756e636560448201527f20726f6c657320666f722073656c66000000000000000000000000000000000060648201526084016105f4565b6109298282611594565b5050565b61074683838360405180602001604052806000815250610e50565b61095133610750565b6109c35760405162461bcd60e51b815260206004820152603060248201527f4552433732314275726e61626c653a2063616c6c6572206973206e6f74206f7760448201527f6e6572206e6f7220617070726f7665640000000000000000000000000000000060648201526084016105f4565b6109cc81611617565b50565b60006109da60085490565b8210610a4e5760405162461bcd60e51b815260206004820152602c60248201527f455243373231456e756d657261626c653a20676c6f62616c20696e646578206f60448201527f7574206f6620626f756e6473000000000000000000000000000000000000000060648201526084016105f4565b60088281548110610a6f57634e487b7160e01b600052603260045260246000fd5b90600052602060002001549050919050565b600a546001600160a01b03163314610adb5760405162461bcd60e51b815260206004820181905260248201527f4f776e61626c653a2063616c6c6572206973206e6f7420746865206f776e657260448201526064016105f4565b610746600e83836121c5565b6000600d5482610af6600c5490565b610b009190612643565b111592915050565b6000818152600260205260408120546001600160a01b0316806104d65760405162461bcd60e51b815260206004820152602960248201527f4552433732313a206f776e657220717565727920666f72206e6f6e657869737460448201527f656e7420746f6b656e000000000000000000000000000000000000000000000060648201526084016105f4565b610bbd7f9f2df0fed2c77648de5860a4cc508cd0818c85b8b8a1ab4ceeef8d981c8956a6336103a7565b610c095760405162461bcd60e51b815260206004820152601d60248201527f4d7573742068617665206d696e74657220726f6c6520746f206d696e7400000060448201526064016105f4565b600d54600c5410610c5c5760405162461bcd60e51b815260206004820152601060248201527f4d6178206d696e7420726561636865640000000000000000000000000000000060448201526064016105f4565b610c6e81610c69600c5490565b6116cb565b6109cc600c80546001019055565b60006001600160a01b038216610cfa5760405162461bcd60e51b815260206004820152602a60248201527f4552433732313a2062616c616e636520717565727920666f7220746865207a6560448201527f726f20616464726573730000000000000000000000000000000000000000000060648201526084016105f4565b506001600160a01b031660009081526003602052604090205490565b600a546001600160a01b03163314610d705760405162461bcd60e51b815260206004820181905260248201527f4f776e61626c653a2063616c6c6572206973206e6f7420746865206f776e657260448201526064016105f4565b610d7a6000611826565b565b6060600180546104eb906126e8565b6001600160a01b038216331415610de45760405162461bcd60e51b815260206004820152601960248201527f4552433732313a20617070726f766520746f2063616c6c65720000000000000060448201526064016105f4565b3360008181526005602090815260408083206001600160a01b03871680855290835292819020805460ff191686151590811790915590519081529192917f17307eab39ab6107e8899845ad3d59bd9653f200f220920489ca2b5937696c31910160405180910390a35050565b610e5a3383611185565b610ecc5760405162461bcd60e51b815260206004820152603160248201527f4552433732313a207472616e736665722063616c6c6572206973206e6f74206f60448201527f776e6572206e6f7220617070726f76656400000000000000000000000000000060648201526084016105f4565b610ed884848484611885565b50505050565b6000818152600260205260409020546060906001600160a01b0316610f6b5760405162461bcd60e51b815260206004820152602f60248201527f4552433732314d657461646174613a2055524920717565727920666f72206e6f60448201527f6e6578697374656e7420746f6b656e000000000000000000000000000000000060648201526084016105f4565b6000610f7561190e565b90506000815111610f955760405180602001604052806000815250610fc0565b80610f9f8461191d565b604051602001610fb0929190612544565b6040516020818303038152906040525b9392505050565b6000828152600b6020526040902060010154610fe38133611472565b6107468383611594565b600a546001600160a01b031633146110475760405162461bcd60e51b815260206004820181905260248201527f4f776e61626c653a2063616c6c6572206973206e6f7420746865206f776e657260448201526064016105f4565b6001600160a01b0381166110c35760405162461bcd60e51b815260206004820152602660248201527f4f776e61626c653a206e6577206f776e657220697320746865207a65726f206160448201527f646472657373000000000000000000000000000000000000000000000000000060648201526084016105f4565b6109cc81611826565b60006001600160e01b031982167f7965db0b0000000000000000000000000000000000000000000000000000000014806104d657506104d682611a6b565b6000818152600460205260409020805473ffffffffffffffffffffffffffffffffffffffff19166001600160a01b038416908117909155819061114c82610b08565b6001600160a01b03167f8c5be1e5ebec7d5bd14f71427d1e84f3dd0314c0f7b2291e5b200ac8c7c3b92560405160405180910390a45050565b6000818152600260205260408120546001600160a01b031661120f5760405162461bcd60e51b815260206004820152602c60248201527f4552433732313a206f70657261746f7220717565727920666f72206e6f6e657860448201527f697374656e7420746f6b656e000000000000000000000000000000000000000060648201526084016105f4565b600061121a83610b08565b9050806001600160a01b0316846001600160a01b031614806112555750836001600160a01b031661124a8461056e565b6001600160a01b0316145b8061128557506001600160a01b0380821660009081526005602090815260408083209388168352929052205460ff165b949350505050565b826001600160a01b03166112a082610b08565b6001600160a01b03161461131c5760405162461bcd60e51b815260206004820152602960248201527f4552433732313a207472616e73666572206f6620746f6b656e2074686174206960448201527f73206e6f74206f776e000000000000000000000000000000000000000000000060648201526084016105f4565b6001600160a01b0382166113975760405162461bcd60e51b8152602060048201526024808201527f4552433732313a207472616e7366657220746f20746865207a65726f2061646460448201527f726573730000000000000000000000000000000000000000000000000000000060648201526084016105f4565b6113a2838383611aa9565b6113ad60008261110a565b6001600160a01b03831660009081526003602052604081208054600192906113d690849061268e565b90915550506001600160a01b0382166000908152600360205260408120805460019290611404908490612643565b9091555050600081815260026020526040808220805473ffffffffffffffffffffffffffffffffffffffff19166001600160a01b0386811691821790925591518493918716917fddf252ad1be2c89b69c2b068fc378daa952ba7f163c4a11628f55a4df523b3ef91a4505050565b6000828152600b602090815260408083206001600160a01b038516845290915290205460ff16610929576114b0816001600160a01b03166014611ab4565b6114bb836020611ab4565b6040516020016114cc929190612573565b60408051601f198184030181529082905262461bcd60e51b82526105f491600401612630565b6000828152600b602090815260408083206001600160a01b038516845290915290205460ff16610929576000828152600b602090815260408083206001600160a01b03851684529091529020805460ff191660011790556115503390565b6001600160a01b0316816001600160a01b0316837f2f8788117e7eff1d82e926ec794901d17c78024a50270940304540a733656f0d60405160405180910390a45050565b6000828152600b602090815260408083206001600160a01b038516845290915290205460ff1615610929576000828152600b602090815260408083206001600160a01b0385168085529252808320805460ff1916905551339285917ff6391f5c32d9c69d2a47ea670b442974b53935d1edc7fd64eb21e047a839171b9190a45050565b600061162282610b08565b905061163081600084611aa9565b61163b60008361110a565b6001600160a01b038116600090815260036020526040812080546001929061166490849061268e565b9091555050600082815260026020526040808220805473ffffffffffffffffffffffffffffffffffffffff19169055518391906001600160a01b038416907fddf252ad1be2c89b69c2b068fc378daa952ba7f163c4a11628f55a4df523b3ef908390a45050565b6001600160a01b0382166117215760405162461bcd60e51b815260206004820181905260248201527f4552433732313a206d696e7420746f20746865207a65726f206164647265737360448201526064016105f4565b6000818152600260205260409020546001600160a01b0316156117865760405162461bcd60e51b815260206004820152601c60248201527f4552433732313a20746f6b656e20616c7265616479206d696e7465640000000060448201526064016105f4565b61179260008383611aa9565b6001600160a01b03821660009081526003602052604081208054600192906117bb908490612643565b9091555050600081815260026020526040808220805473ffffffffffffffffffffffffffffffffffffffff19166001600160a01b03861690811790915590518392907fddf252ad1be2c89b69c2b068fc378daa952ba7f163c4a11628f55a4df523b3ef908290a45050565b600a80546001600160a01b0383811673ffffffffffffffffffffffffffffffffffffffff19831681179093556040519116919082907f8be0079c531659141344cd1fd0a4f28419497f9722a3daafe3b4186f6b6457e090600090a35050565b61189084848461128d565b61189c84848484611d23565b610ed85760405162461bcd60e51b815260206004820152603260248201527f4552433732313a207472616e7366657220746f206e6f6e20455243373231526560448201527f63656976657220696d706c656d656e746572000000000000000000000000000060648201526084016105f4565b6060600e80546104eb906126e8565b60608161195d57505060408051808201909152600181527f3000000000000000000000000000000000000000000000000000000000000000602082015290565b8160005b8115611987578061197181612723565b91506119809050600a8361265b565b9150611961565b60008167ffffffffffffffff8111156119b057634e487b7160e01b600052604160045260246000fd5b6040519080825280601f01601f1916602001820160405280156119da576020820181803683370190505b5090505b8415611285576119ef60018361268e565b91506119fc600a8661273e565b611a07906030612643565b60f81b818381518110611a2a57634e487b7160e01b600052603260045260246000fd5b60200101907effffffffffffffffffffffffffffffffffffffffffffffffffffffffffffff1916908160001a905350611a64600a8661265b565b94506119de565b60006001600160e01b031982167f780e9d630000000000000000000000000000000000000000000000000000000014806104d657506104d682611eb8565b610746838383611f53565b60606000611ac383600261266f565b611ace906002612643565b67ffffffffffffffff811115611af457634e487b7160e01b600052604160045260246000fd5b6040519080825280601f01601f191660200182016040528015611b1e576020820181803683370190505b5090507f300000000000000000000000000000000000000000000000000000000000000081600081518110611b6357634e487b7160e01b600052603260045260246000fd5b60200101907effffffffffffffffffffffffffffffffffffffffffffffffffffffffffffff1916908160001a9053507f780000000000000000000000000000000000000000000000000000000000000081600181518110611bd457634e487b7160e01b600052603260045260246000fd5b60200101907effffffffffffffffffffffffffffffffffffffffffffffffffffffffffffff1916908160001a9053506000611c1084600261266f565b611c1b906001612643565b90505b6001811115611cd4577f303132333435363738396162636465660000000000000000000000000000000085600f1660108110611c6a57634e487b7160e01b600052603260045260246000fd5b1a60f81b828281518110611c8e57634e487b7160e01b600052603260045260246000fd5b60200101907effffffffffffffffffffffffffffffffffffffffffffffffffffffffffffff1916908160001a90535060049490941c93611ccd816126d1565b9050611c1e565b508315610fc05760405162461bcd60e51b815260206004820181905260248201527f537472696e67733a20686578206c656e67746820696e73756666696369656e7460448201526064016105f4565b60006001600160a01b0384163b15611ead576040517f150b7a020000000000000000000000000000000000000000000000000000000081526001600160a01b0385169063150b7a0290611d809033908990889088906004016125f4565b602060405180830381600087803b158015611d9a57600080fd5b505af1925050508015611dca575060408051601f3d908101601f19168201909252611dc79181019061248f565b60015b611e7a573d808015611df8576040519150601f19603f3d011682016040523d82523d6000602084013e611dfd565b606091505b508051611e725760405162461bcd60e51b815260206004820152603260248201527f4552433732313a207472616e7366657220746f206e6f6e20455243373231526560448201527f63656976657220696d706c656d656e746572000000000000000000000000000060648201526084016105f4565b805181602001fd5b6001600160e01b0319167f150b7a0200000000000000000000000000000000000000000000000000000000149050611285565b506001949350505050565b60006001600160e01b031982167f80ac58cd000000000000000000000000000000000000000000000000000000001480611f1b57506001600160e01b031982167f5b5e139f00000000000000000000000000000000000000000000000000000000145b806104d657507f01ffc9a7000000000000000000000000000000000000000000000000000000006001600160e01b03198316146104d6565b6001600160a01b038316611fae57611fa981600880546000838152600960205260408120829055600182018355919091527ff3f7a9fe364faab93b216da50a3214154f22a0a2b415b23a84c8169e8b636ee30155565b611fd1565b816001600160a01b0316836001600160a01b031614611fd157611fd1838261200b565b6001600160a01b038216611fe857610746816120a8565b826001600160a01b0316826001600160a01b031614610746576107468282612181565b6000600161201884610c7c565b612022919061268e565b600083815260076020526040902054909150808214612075576001600160a01b03841660009081526006602090815260408083208584528252808320548484528184208190558352600790915290208190555b5060009182526007602090815260408084208490556001600160a01b039094168352600681528383209183525290812055565b6008546000906120ba9060019061268e565b600083815260096020526040812054600880549394509092849081106120f057634e487b7160e01b600052603260045260246000fd5b90600052602060002001549050806008838154811061211f57634e487b7160e01b600052603260045260246000fd5b600091825260208083209091019290925582815260099091526040808220849055858252812055600880548061216557634e487b7160e01b600052603160045260246000fd5b6001900381819060005260206000200160009055905550505050565b600061218c83610c7c565b6001600160a01b039093166000908152600660209081526040808320868452825280832085905593825260079052919091209190915550565b8280546121d1906126e8565b90600052602060002090601f0160209004810192826121f35760008555612239565b82601f1061220c5782800160ff19823516178555612239565b82800160010185558215612239579182015b8281111561223957823582559160200191906001019061221e565b50612245929150612249565b5090565b5b80821115612245576000815560010161224a565b80356001600160a01b038116811461227557600080fd5b919050565b60006020828403121561228b578081fd5b610fc08261225e565b600080604083850312156122a6578081fd5b6122af8361225e565b91506122bd6020840161225e565b90509250929050565b6000806000606084860312156122da578081fd5b6122e38461225e565b92506122f16020850161225e565b9150604084013590509250925092565b60008060008060808587031215612316578081fd5b61231f8561225e565b935061232d6020860161225e565b925060408501359150606085013567ffffffffffffffff80821115612350578283fd5b818701915087601f830112612363578283fd5b8135818111156123755761237561277e565b604051601f8201601f19908116603f0116810190838211818310171561239d5761239d61277e565b816040528281528a60208487010111156123b5578586fd5b82602086016020830137918201602001949094529598949750929550505050565b600080604083850312156123e8578182fd5b6123f18361225e565b915060208301358015158114612405578182fd5b809150509250929050565b60008060408385031215612422578182fd5b61242b8361225e565b946020939093013593505050565b60006020828403121561244a578081fd5b5035919050565b60008060408385031215612463578182fd5b823591506122bd6020840161225e565b600060208284031215612484578081fd5b8135610fc081612794565b6000602082840312156124a0578081fd5b8151610fc081612794565b600080602083850312156124bd578182fd5b823567ffffffffffffffff808211156124d4578384fd5b818501915085601f8301126124e7578384fd5b8135818111156124f5578485fd5b866020828501011115612506578485fd5b60209290920196919550909350505050565b600081518084526125308160208601602086016126a5565b601f01601f19169290920160200192915050565b600083516125568184602088016126a5565b83519083019061256a8183602088016126a5565b01949350505050565b7f416363657373436f6e74726f6c3a206163636f756e74200000000000000000008152600083516125ab8160178501602088016126a5565b7f206973206d697373696e6720726f6c652000000000000000000000000000000060179184019182015283516125e88160288401602088016126a5565b01602801949350505050565b60006001600160a01b038087168352808616602084015250836040830152608060608301526126266080830184612518565b9695505050505050565b602081526000610fc06020830184612518565b6000821982111561265657612656612752565b500190565b60008261266a5761266a612768565b500490565b600081600019048311821515161561268957612689612752565b500290565b6000828210156126a0576126a0612752565b500390565b60005b838110156126c05781810151838201526020016126a8565b83811115610ed85750506000910152565b6000816126e0576126e0612752565b506000190190565b600181811c908216806126fc57607f821691505b6020821081141561271d57634e487b7160e01b600052602260045260246000fd5b50919050565b600060001982141561273757612737612752565b5060010190565b60008261274d5761274d612768565b500690565b634e487b7160e01b600052601160045260246000fd5b634e487b7160e01b600052601260045260246000fd5b634e487b7160e01b600052604160045260246000fd5b6001600160e01b0319811681146109cc57600080fdfea26469706673582212204cf2ff892902624fa1bf1d3cff88e979208ab2186de4226e41b67059cc8dc26164736f6c63430008040033"}}