{
  "opcodeHash": "0xeb8b1d0736094ee61157cb00ebbaa394b24b7f31729d5df933f52628f6e851b7",
  "metalessHash": "0xc1353d81ec003b1682b784edc442573f9e8edf7814786fa958471626743f7405",
  "runtimeHash": "0x60a3063a16106bee5bcd63d6c1b6c7264b9142e627faf779e86879b9012a4ecb",
  "encodedMetadata": [
    {
      "ipfs": "/ipfs/QmboPKfdnGPDRAxC5SdgqVz6Rdp5e47EP944ghnAiUWs19",
      "solc": "0.6.6"
    }
  ],
  "abi": [
    {
      "inputs": [
        {
          "internalType": "address",
          "name": "_name",
          "type": "address"
        }
      ],
      "stateMutability": "nonpayable",
      "type": "constructor"
    },
    {
      "inputs": [],
      "name": "getName",
      "outputs": [
        {
          "internalType": "address",
          "name": "",
          "type": "address"
        }
      ],
      "stateMutability": "view",
      "type": "function"
    },
    {
      "inputs": [],
      "name": "name",
      "outputs": [
        {
          "internalType": "address",
          "name": "",
          "type": "address"
        }
      ],
      "stateMutability": "view",
      "type": "function"
    }
  ],
  "bytecode": {
    "object": "608060405234801561001057600080fd5b506040516101e73803806101e78339818101604052602081101561003357600080fd5b8101908080519060200190929190505050806000806101000a81548173ffffffffffffffffffffffffffffffffffffffff021916908373ffffffffffffffffffffffffffffffffffffffff16021790555050610153806100946000396000f3fe608060405234801561001057600080fd5b50600436106100365760003560e01c806306fdde031461003b57806317d7de7c14610085575b600080fd5b6100436100cf565b604051808273ffffffffffffffffffffffffffffffffffffffff1673ffffffffffffffffffffffffffffffffffffffff16815260200191505060405180910390f35b61008d6100f4565b604051808273ffffffffffffffffffffffffffffffffffffffff1673ffffffffffffffffffffffffffffffffffffffff16815260200191505060405180910390f35b6000809054906101000a900473ffffffffffffffffffffffffffffffffffffffff1681565b60008060009054906101000a900473ffffffffffffffffffffffffffffffffffffffff1690509056fea2646970667358221220f706e20bcee2d0f63e340173e32bbcd0da60be4fe9b31d46b782c256d4c4926c64736f6c63430006060033"
  }
}