{
  "opcodeHash": "0x127c677fd90d87bd720214788cbc99f44abe592353d20fe09789fac98059aaf1",
  "metalessHash": "0x8285973b908dfcf54ed3671f8a715c5e1cde2925172d549f8f9f87cdd43e9e7c",
  "runtimeHash": "0x5fce57b592dcc2cdbf81c9eb33f475a6a32ac157ca0f778d2e454ae30e5983d1",
  "encodedMetadata": [
    {
      "ipfs": "/ipfs/QmPGYNpuNHR4UakZhBYcATV7yxBEusWGDKPHS9ozua9DTs",
      "solc": "0.6.12"
    }
  ],
  "abi": [
    {
      "inputs": [],
      "name": "AAVE_IMPORT",
      "outputs": [
        {
          "internalType": "address payable",
          "name": "",
          "type": "address"
        }
      ],
      "stateMutability": "view",
      "type": "function"
    },
    {
      "inputs": [],
      "name": "ElixyrsaverLoggerAddre",
      "outputs": [
        {
          "internalType": "address",
          "name": "",
          "type": "address"
        }
      ],
      "stateMutability": "view",
      "type": "function"
    },
    {
      "inputs": [],
      "name": "FACTORY_ADDRESS",
      "outputs": [
        {
          "internalType": "address",
          "name": "",
          "type": "address"
        }
      ],
      "stateMutability": "view",
      "type": "function"
    },
    {
      "inputs": [],
      "name": "PROXY_REGISTRY_ADDRESS",
      "outputs": [
        {
          "internalType": "address",
          "name": "",
          "type": "address"
        }
      ],
      "stateMutability": "view",
      "type": "function"
    },
    {
      "inputs": [],
      "name": "SOLO_MARGIN_ADDRESS",
      "outputs": [
        {
          "internalType": "address",
          "name": "",
          "type": "address"
        }
      ],
      "stateMutability": "view",
      "type": "function"
    },
    {
      "inputs": [],
      "name": "WETH_ADDR",
      "outputs": [
        {
          "internalType": "address",
          "name": "",
          "type": "address"
        }
      ],
      "stateMutability": "view",
      "type": "function"
    },
    {
      "inputs": [
        {
          "internalType": "address",
          "name": "_contractAddr",
          "type": "address"
        }
      ],
      "name": "givePermission",
      "outputs": [],
      "stateMutability": "nonpayable",
      "type": "function"
    },
    {
      "inputs": [
        {
          "internalType": "address",
          "name": "_market",
          "type": "address"
        },
        {
          "internalType": "address",
          "name": "_collateralToken",
          "type": "address"
        },
        {
          "internalType": "address",
          "name": "_borrowToken",
          "type": "address"
        },
        {
          "internalType": "uint256",
          "name": "_ethAmount",
          "type": "uint256"
        }
      ],
      "name": "importLoan",
      "outputs": [],
      "stateMutability": "nonpayable",
      "type": "function"
    },
    {
      "inputs": [
        {
          "internalType": "address",
          "name": "_contractAddr",
          "type": "address"
        }
      ],
      "name": "removePermission",
      "outputs": [],
      "stateMutability": "nonpayable",
      "type": "function"
    }
  ],
  "bytecode": {
    "object": "608060405234801561001057600080fd5b506117c8806100206000396000f3fe608060405234801561001057600080fd5b50600436106100935760003560e01c8063b2b3f23111610066578063b2b3f2311461010e578063d36b907d1461012a578063e074bb4714610148578063ef9486df14610164578063f91edd151461018257610093565b80633d391f70146100985780634d9fb18f146100b457806382dfc5f7146100d25780638823151b146100f0575b600080fd5b6100b260048036038101906100ad9190610dc7565b6101a0565b005b6100bc6103f2565b6040516100c991906112c5565b60405180910390f35b6100da61040a565b6040516100e791906112aa565b60405180910390f35b6100f8610422565b60405161010591906112aa565b60405180910390f35b61012860048036038101906101239190610df0565b61043a565b005b610132610812565b60405161013f91906112aa565b60405180910390f35b610162600480360381019061015d9190610dc7565b61082a565b005b61016c610981565b60405161017991906112aa565b60405180910390f35b61018a610999565b60405161019791906112aa565b60405180910390f35b60003073ffffffffffffffffffffffffffffffffffffffff1663bf7e214f6040518163ffffffff1660e01b815260040160206040518083038186803b1580156101e857600080fd5b505afa1580156101fc573d6000803e3d6000fd5b505050506040513d601f19601f820116820180604052508101906102209190610e7c565b90506000819050600073ffffffffffffffffffffffffffffffffffffffff168273ffffffffffffffffffffffffffffffffffffffff16141561035e5773f18cf8abebda2804c58ff2fd01e1ba4b406ed88373ffffffffffffffffffffffffffffffffffffffff166365688cc96040518163ffffffff1660e01b8152600401602060405180830381600087803b1580156102b857600080fd5b505af11580156102cc573d6000803e3d6000fd5b505050506040513d601f19601f820116820180604052508101906102f09190610ea5565b90503073ffffffffffffffffffffffffffffffffffffffff16637a9e5e4b826040518263ffffffff1660e01b815260040161032b9190611444565b600060405180830381600087803b15801561034557600080fd5b505af1158015610359573d6000803e3d6000fd5b505050505b8073ffffffffffffffffffffffffffffffffffffffff1663cbeea68c84307f1cff79cde515a86f6cc1adbebe8ae25888905561371faf11c8102211f56b48706040518463ffffffff1660e01b81526004016103bb939291906113ad565b600060405180830381600087803b1580156103d557600080fd5b505af11580156103e9573d6000803e3d6000fd5b50505050505050565b733149481367913b0a28f4934b9680cf89b4741e2c81565b73c02aaa39b223fe8d0a0e5c4f27ead9083c756cc281565b73f18cf8abebda2804c58ff2fd01e1ba4b406ed88381565b6000731e0447b19bb6ecfdae1e4ae1694b0c3659614e4e9050600061047273c02aaa39b223fe8d0a0e5c4f27ead9083c756cc26109b1565b9050600061047f846109b8565b905073c02aaa39b223fe8d0a0e5c4f27ead9083c756cc273ffffffffffffffffffffffffffffffffffffffff1663095ea7b3731e0447b19bb6ecfdae1e4ae1694b0c3659614e4e836040518363ffffffff1660e01b81526004016104e49291906113e4565b602060405180830381600087803b1580156104fe57600080fd5b505af1158015610512573d6000803e3d6000fd5b505050506040513d601f19601f820116820180604052508101906105369190610e53565b506060600367ffffffffffffffff8111801561055157600080fd5b5060405190808252806020026020018201604052801561058b57816020015b610578610c82565b8152602001906001900390816105705790505b5090506105ad8386733149481367913b0a28f4934b9680cf89b4741e2c6109d5565b816000815181106105ba57fe5b602002602001018190525061060a88888888306040516020016105e195949392919061135a565b604051602081830303815290604052733149481367913b0a28f4934b9680cf89b4741e2c610a8f565b8160018151811061061757fe5b602002602001018190525061062d838330610b3a565b8160028151811061063a57fe5b60200260200101819052506060600167ffffffffffffffff8111801561065f57600080fd5b5060405190808252806020026020018201604052801561069957816020015b610686610cee565b81526020019060019003908161067e5790505b5090506106a4610bf4565b816000815181106106b157fe5b60200260200101819052506106d9733149481367913b0a28f4934b9680cf89b4741e2c6101a0565b8473ffffffffffffffffffffffffffffffffffffffff1663a67a6a4582846040518363ffffffff1660e01b815260040161071492919061140d565b600060405180830381600087803b15801561072e57600080fd5b505af1158015610742573d6000803e3d6000fd5b50505050610763733149481367913b0a28f4934b9680cf89b4741e2c61082a565b734a35ccb1cb7f8388ce640128ae4a744dff42226e73ffffffffffffffffffffffffffffffffffffffff1663d061ce5030338b8b6040516020016107a89291906112e0565b6040516020818303038152906040526040518463ffffffff1660e01b81526004016107d593929190611309565b600060405180830381600087803b1580156107ef57600080fd5b505af1158015610803573d6000803e3d6000fd5b50505050505050505050505050565b731e0447b19bb6ecfdae1e4ae1694b0c3659614e4e81565b60003073ffffffffffffffffffffffffffffffffffffffff1663bf7e214f6040518163ffffffff1660e01b815260040160206040518083038186803b15801561087257600080fd5b505afa158015610886573d6000803e3d6000fd5b505050506040513d601f19601f820116820180604052508101906108aa9190610e7c565b9050600073ffffffffffffffffffffffffffffffffffffffff168173ffffffffffffffffffffffffffffffffffffffff1614156108e7575061097e565b60008190508073ffffffffffffffffffffffffffffffffffffffff16632bc3217d84307f1cff79cde515a86f6cc1adbebe8ae25888905561371faf11c8102211f56b48706040518463ffffffff1660e01b8152600401610949939291906113ad565b600060405180830381600087803b15801561096357600080fd5b505af1158015610977573d6000803e3d6000fd5b5050505050505b50565b73683e917f1f7c001d7512243150e906a655ac706b81565b734a35ccb1cb7f8388ce640128ae4a744dff42226e81565b6000919050565b60006109ce600283610c2d90919063ffffffff16565b9050919050565b6109dd610c82565b604051806101000160405280600160088111156109f657fe5b815260200160008152602001604051806080016040528060001515815260200160006001811115610a2357fe5b815260200160006001811115610a3557fe5b8152602001868152508152602001858152602001600081526020018373ffffffffffffffffffffffffffffffffffffffff168152602001600081526020016040518060200160405280600081525081525090509392505050565b610a97610c82565b604051806101000160405280600880811115610aaf57fe5b815260200160008152602001604051806080016040528060001515815260200160006001811115610adc57fe5b815260200160006001811115610aee57fe5b81526020016000815250815260200160008152602001600081526020018373ffffffffffffffffffffffffffffffffffffffff1681526020016000815260200184815250905092915050565b610b42610c82565b60405180610100016040528060006008811115610b5b57fe5b815260200160008152602001604051806080016040528060011515815260200160006001811115610b8857fe5b815260200160006001811115610b9a57fe5b8152602001868152508152602001858152602001600081526020018373ffffffffffffffffffffffffffffffffffffffff168152602001600081526020016040518060200160405280600081525081525090509392505050565b610bfc610cee565b60405180604001604052803073ffffffffffffffffffffffffffffffffffffffff1681526020016001815250905090565b600080828401905083811015610c78576040517f08c379a0000000000000000000000000000000000000000000000000000000008152600401610c6f9061145f565b60405180910390fd5b8091505092915050565b60405180610100016040528060006008811115610c9b57fe5b815260200160008152602001610caf610d1e565b81526020016000815260200160008152602001600073ffffffffffffffffffffffffffffffffffffffff16815260200160008152602001606081525090565b6040518060400160405280600073ffffffffffffffffffffffffffffffffffffffff168152602001600081525090565b604051806080016040528060001515815260200160006001811115610d3f57fe5b815260200160006001811115610d5157fe5b8152602001600081525090565b600081359050610d6d8161171f565b92915050565b600081519050610d8281611736565b92915050565b600081519050610d978161174d565b92915050565b600081519050610dac81611764565b92915050565b600081359050610dc18161177b565b92915050565b600060208284031215610dd957600080fd5b6000610de784828501610d5e565b91505092915050565b60008060008060808587031215610e0657600080fd5b6000610e1487828801610d5e565b9450506020610e2587828801610d5e565b9350506040610e3687828801610d5e565b9250506060610e4787828801610db2565b91505092959194509250565b600060208284031215610e6557600080fd5b6000610e7384828501610d73565b91505092915050565b600060208284031215610e8e57600080fd5b6000610e9c84828501610d88565b91505092915050565b600060208284031215610eb757600080fd5b6000610ec584828501610d9d565b91505092915050565b6000610eda8383611155565b905092915050565b6000610eee838361125d565b60408301905092915050565b610f0381611612565b82525050565b610f1281611541565b82525050565b610f218161152f565b82525050565b610f308161152f565b82525050565b6000610f418261149f565b610f4b81856114da565b935083602082028501610f5d8561147f565b8060005b85811015610f995784840389528151610f7a8582610ece565b9450610f85836114c0565b925060208a01995050600181019050610f61565b50829750879550505050505092915050565b6000610fb6826114aa565b610fc081856114eb565b9350610fcb8361148f565b8060005b83811015610ffc578151610fe38882610ee2565b9750610fee836114cd565b925050600181019050610fcf565b5085935050505092915050565b61101281611553565b82525050565b61102181611624565b82525050565b6000611032826114b5565b61103c81856114fc565b935061104c8185602086016116b4565b611055816116e7565b840191505092915050565b600061106b826114b5565b611075818561150d565b93506110858185602086016116b4565b61108e816116e7565b840191505092915050565b6110a281611636565b82525050565b6110b18161165a565b82525050565b6110c08161166c565b82525050565b6110cf8161167e565b82525050565b60006110e2601b8361151e565b91507f536166654d6174683a206164646974696f6e206f766572666c6f7700000000006000830152602082019050919050565b6000611122600a8361151e565b91507f41617665496d706f7274000000000000000000000000000000000000000000006000830152602082019050919050565b60006101608301600083015161116e60008601826110a8565b506020830151611181602086018261128c565b5060408301516111946040860182611208565b5060608301516111a760c086018261128c565b5060808301516111ba60e086018261128c565b5060a08301516111ce610100860182610f18565b5060c08301516111e261012086018261128c565b5060e08301518482036101408601526111fb8282611027565b9150508091505092915050565b60808201600082015161121e6000850182611009565b50602082015161123160208501826110b7565b50604082015161124460408501826110c6565b506060820151611257606085018261128c565b50505050565b6040820160008201516112736000850182610f18565b506020820151611286602085018261128c565b50505050565b61129581611608565b82525050565b6112a481611608565b82525050565b60006020820190506112bf6000830184610f27565b92915050565b60006020820190506112da6000830184610f09565b92915050565b60006040820190506112f56000830185610f27565b6113026020830184610f27565b9392505050565b600060808201905061131e6000830186610f27565b61132b6020830185610efa565b818103604083015261133c81611115565b905081810360608301526113508184611060565b9050949350505050565b600060a08201905061136f6000830188610f27565b61137c6020830187610f27565b6113896040830186610f27565b611396606083018561129b565b6113a36080830184610f27565b9695505050505050565b60006060820190506113c26000830186610f27565b6113cf6020830185610f27565b6113dc6040830184611018565b949350505050565b60006040820190506113f96000830185610f27565b611406602083018461129b565b9392505050565b600060408201905081810360008301526114278185610fab565b9050818103602083015261143b8184610f36565b90509392505050565b60006020820190506114596000830184611099565b92915050565b60006020820190508181036000830152611478816110d5565b9050919050565b6000819050602082019050919050565b6000819050602082019050919050565b600081519050919050565b600081519050919050565b600081519050919050565b6000602082019050919050565b6000602082019050919050565b600082825260208201905092915050565b600082825260208201905092915050565b600082825260208201905092915050565b600082825260208201905092915050565b600082825260208201905092915050565b600061153a826115e8565b9050919050565b600061154c826115e8565b9050919050565b60008115159050919050565b60007fffffffff0000000000000000000000000000000000000000000000000000000082169050919050565b60006115968261152f565b9050919050565b60006115a88261152f565b9050919050565b60008190506115bd826116f8565b919050565b60008190506115d082611705565b919050565b60008190506115e382611712565b919050565b600073ffffffffffffffffffffffffffffffffffffffff82169050919050565b6000819050919050565b600061161d82611690565b9050919050565b600061162f8261155f565b9050919050565b600061164182611648565b9050919050565b6000611653826115e8565b9050919050565b6000611665826115af565b9050919050565b6000611677826115c2565b9050919050565b6000611689826115d5565b9050919050565b600061169b826116a2565b9050919050565b60006116ad826115e8565b9050919050565b60005b838110156116d25780820151818401526020810190506116b7565b838111156116e1576000848401525b50505050565b6000601f19601f8301169050919050565b6009811061170257fe5b50565b6002811061170f57fe5b50565b6002811061171c57fe5b50565b6117288161152f565b811461173357600080fd5b50565b61173f81611553565b811461174a57600080fd5b50565b6117568161158b565b811461176157600080fd5b50565b61176d8161159d565b811461177857600080fd5b50565b61178481611608565b811461178f57600080fd5b5056fea2646970667358221220d119c7969f318c668de568c5f6ba901b1e16d2830c10437b58d5bc780c19609064736f6c634300060c0033"
  }
}