{
  "opcodeHash": "0x7686dc5abeda4230baa7bff44c43d150997b82711606c354a2b610894e5525aa",
  "metalessHash": "0xfda5b0f82e28376e98f3a436fc2d214d84ed8c96e3eceb0aac80341e58fc6921",
  "runtimeHash": "0x36ff7cc735cf4c8b3bc8deea79c49c16e8b8c82f9d4c29c86be3b9d943c16e15",
  "encodedMetadata": [
    {
      "bzzr1": "/swarm/bzzr1/b883cc4ef2053b72c56379785ce07d73cc5e126f396f40963349ad42e7d8dfea",
      "solc": "0.5.17"
    }
  ],
  "abi": [
    {
      "inputs": [
        {
          "internalType": "uint256",
          "name": "baseRatePerYear",
          "type": "uint256"
        },
        {
          "internalType": "uint256",
          "name": "multiplierPerYear",
          "type": "uint256"
        }
      ],
      "payable": false,
      "stateMutability": "nonpayable",
      "type": "constructor"
    },
    {
      "constant": true,
      "inputs": [],
      "name": "baseRatePerBlock",
      "outputs": [
        {
          "internalType": "uint256",
          "name": "",
          "type": "uint256"
        }
      ],
      "payable": false,
      "stateMutability": "view",
      "type": "function"
    },
    {
      "constant": true,
      "inputs": [],
      "name": "blocksPerYear",
      "outputs": [
        {
          "internalType": "uint256",
          "name": "",
          "type": "uint256"
        }
      ],
      "payable": false,
      "stateMutability": "view",
      "type": "function"
    },
    {
      "constant": true,
      "inputs": [
        {
          "internalType": "uint256",
          "name": "cash",
          "type": "uint256"
        },
        {
          "internalType": "uint256",
          "name": "borrows",
          "type": "uint256"
        },
        {
          "internalType": "uint256",
          "name": "reserves",
          "type": "uint256"
        }
      ],
      "name": "getBorrowRate",
      "outputs": [
        {
          "internalType": "uint256",
          "name": "",
          "type": "uint256"
        }
      ],
      "payable": false,
      "stateMutability": "view",
      "type": "function"
    },
    {
      "constant": true,
      "inputs": [
        {
          "internalType": "uint256",
          "name": "cash",
          "type": "uint256"
        },
        {
          "internalType": "uint256",
          "name": "borrows",
          "type": "uint256"
        },
        {
          "internalType": "uint256",
          "name": "reserves",
          "type": "uint256"
        }
      ],
      "name": "getBorrowRateAndUtilization",
      "outputs": [
        {
          "internalType": "uint256",
          "name": "",
          "type": "uint256"
        },
        {
          "internalType": "uint256",
          "name": "",
          "type": "uint256"
        }
      ],
      "payable": false,
      "stateMutability": "view",
      "type": "function"
    },
    {
      "constant": true,
      "inputs": [
        {
          "internalType": "uint256",
          "name": "cash",
          "type": "uint256"
        },
        {
          "internalType": "uint256",
          "name": "borrows",
          "type": "uint256"
        },
        {
          "internalType": "uint256",
          "name": "reserves",
          "type": "uint256"
        },
        {
          "internalType": "uint256",
          "name": "reserveFactorMantissa",
          "type": "uint256"
        }
      ],
      "name": "getSupplyRate",
      "outputs": [
        {
          "internalType": "uint256",
          "name": "",
          "type": "uint256"
        }
      ],
      "payable": false,
      "stateMutability": "view",
      "type": "function"
    },
    {
      "constant": true,
      "inputs": [],
      "name": "isInterestRateModel",
      "outputs": [
        {
          "internalType": "bool",
          "name": "",
          "type": "bool"
        }
      ],
      "payable": false,
      "stateMutability": "view",
      "type": "function"
    },
    {
      "constant": true,
      "inputs": [],
      "name": "multiplierPerBlock",
      "outputs": [
        {
          "internalType": "uint256",
          "name": "",
          "type": "uint256"
        }
      ],
      "payable": false,
      "stateMutability": "view",
      "type": "function"
    },
    {
      "constant": true,
      "inputs": [
        {
          "internalType": "uint256",
          "name": "cash",
          "type": "uint256"
        },
        {
          "internalType": "uint256",
          "name": "borrows",
          "type": "uint256"
        },
        {
          "internalType": "uint256",
          "name": "reserves",
          "type": "uint256"
        }
      ],
      "name": "utilizationRate",
      "outputs": [
        {
          "internalType": "uint256",
          "name": "",
          "type": "uint256"
        }
      ],
      "payable": false,
      "stateMutability": "pure",
      "type": "function"
    }
  ],
  "bytecode": {
    "object": "608060405234801561001057600080fd5b506040516107023803806107028339818101604052604081101561003357600080fd5b5080516020918201519091610056908390622014809061035661007c821b17901c565b600155610071816220148061007c602090811b61035617901c565b6000555061016d9050565b60006100c483836040518060400160405280601a81526020017f536166654d6174683a206469766973696f6e206279207a65726f0000000000008152506100cb60201b60201c565b9392505050565b600081836101575760405162461bcd60e51b81526004018080602001828103825283818151815260200191508051906020019080838360005b8381101561011c578181015183820152602001610104565b50505050905090810190601f1680156101495780820380516001836020036101000a031916815260200191505b509250505060405180910390fd5b50600083858161016357fe5b0495945050505050565b6105868061017c6000396000f3fe608060405234801561001057600080fd5b50600436106100885760003560e01c80638726bb891161005b5780638726bb891461014f578063a385fb9614610157578063b81688161461015f578063f14039de1461018e57610088565b806315f240531461008d5780631628f7c8146100c85780632191f92a1461010a5780636e71e2d814610126575b600080fd5b6100b6600480360360608110156100a357600080fd5b5080359060208101359060400135610196565b60408051918252519081900360200190f35b6100f1600480360360608110156100de57600080fd5b50803590602081013590604001356101b0565b6040805192835260208301919091528051918290030190f35b610112610211565b604080519115158252519081900360200190f35b6100b66004803603606081101561013c57600080fd5b5080359060208101359060400135610216565b6100b6610268565b6100b661026e565b6100b66004803603608081101561017557600080fd5b5080359060208101359060408101359060600135610275565b6100b66102ee565b6000806101a48585856101b0565b925050505b9392505050565b60008060006101c0868686610216565b905060006102036001546101f7670de0b6b3a76400006101eb600054876102f490919063ffffffff16565b9063ffffffff61035616565b9063ffffffff61039816565b919791965090945050505050565b600181565b600082610225575060006101a9565b6102606102488361023c878763ffffffff61039816565b9063ffffffff6103f216565b6101eb85670de0b6b3a764000063ffffffff6102f416565b949350505050565b60005481565b6220148081565b600080610290670de0b6b3a76400008463ffffffff6103f216565b90506000806102a08888886101b0565b909250905060006102c3670de0b6b3a76400006101eb848763ffffffff6102f416565b90506102e1670de0b6b3a76400006101eb858463ffffffff6102f416565b9998505050505050505050565b60015481565b60008261030357506000610350565b8282028284828161031057fe5b041461034d5760405162461bcd60e51b81526004018080602001828103825260218152602001806105316021913960400191505060405180910390fd5b90505b92915050565b600061034d83836040518060400160405280601a81526020017f536166654d6174683a206469766973696f6e206279207a65726f000000000000815250610434565b60008282018381101561034d576040805162461bcd60e51b815260206004820152601b60248201527f536166654d6174683a206164646974696f6e206f766572666c6f770000000000604482015290519081900360640190fd5b600061034d83836040518060400160405280601f81526020017f536166654d6174683a207375627472616374696f6e20756e646572666c6f77008152506104d6565b600081836104c05760405162461bcd60e51b81526004018080602001828103825283818151815260200191508051906020019080838360005b8381101561048557818101518382015260200161046d565b50505050905090810190601f1680156104b25780820380516001836020036101000a031916815260200191505b509250505060405180910390fd5b5060008385816104cc57fe5b0495945050505050565b600081848411156105285760405162461bcd60e51b815260206004820181815283516024840152835190928392604490910191908501908083836000831561048557818101518382015260200161046d565b50505090039056fe536166654d6174683a206d756c7469706c69636174696f6e206f766572666c6f77a265627a7a72315820860986d4535b845b7acce14645a9b0994878d0b9f1a9861aa48251a6cfaf098164736f6c63430005110032"
  }
}