{
  "opcodeHash": "0xabb8dce575e2daaf30f091579da24094f952b9b1980cc719621e5b1b95fbab5b",
  "metalessHash": "0xf240f04cf5766319b99d382a946210f76db07cc338e58c0230d38fa1db7f6129",
  "runtimeHash": "0xf4bcbe44374ddc936453963b8dd1d2b95c575bc6bf4bc5365d869c06bd2c9c4a",
  "encodedMetadata": [
    {
      "ipfs": "/ipfs/Qme4yerXNrquvBsejX5Je5Hqjc374Z7VoeyE1cAfBiwB8D",
      "solc": "0.6.11"
    },
    {
      "ipfs": "/ipfs/QmdxPdUpF8nwoRgvCW7FNv3mvuxGAy6kWKyZLxa12pRLpe",
      "solc": "0.6.11"
    }
  ],
  "abi": [
    {
      "anonymous": false,
      "inputs": [
        {
          "indexed": false,
          "internalType": "address",
          "name": "hodler",
          "type": "address"
        },
        {
          "indexed": false,
          "internalType": "address",
          "name": "asset",
          "type": "address"
        }
      ],
      "name": "Create",
      "type": "event"
    },
    {
      "inputs": [
        {
          "internalType": "uint256",
          "name": "",
          "type": "uint256"
        }
      ],
      "name": "allHodlers",
      "outputs": [
        {
          "internalType": "address",
          "name": "",
          "type": "address"
        }
      ],
      "stateMutability": "view",
      "type": "function"
    },
    {
      "inputs": [],
      "name": "allHodlersLength",
      "outputs": [
        {
          "internalType": "uint256",
          "name": "",
          "type": "uint256"
        }
      ],
      "stateMutability": "view",
      "type": "function"
    },
    {
      "inputs": [
        {
          "internalType": "address",
          "name": "asset",
          "type": "address"
        }
      ],
      "name": "createHodler",
      "outputs": [
        {
          "internalType": "address",
          "name": "",
          "type": "address"
        }
      ],
      "stateMutability": "nonpayable",
      "type": "function"
    },
    {
      "inputs": [
        {
          "internalType": "address",
          "name": "",
          "type": "address"
        },
        {
          "internalType": "uint256",
          "name": "",
          "type": "uint256"
        }
      ],
      "name": "hodler",
      "outputs": [
        {
          "internalType": "address",
          "name": "",
          "type": "address"
        }
      ],
      "stateMutability": "view",
      "type": "function"
    },
    {
      "inputs": [
        {
          "internalType": "address",
          "name": "",
          "type": "address"
        }
      ],
      "name": "index",
      "outputs": [
        {
          "internalType": "uint256",
          "name": "",
          "type": "uint256"
        }
      ],
      "stateMutability": "view",
      "type": "function"
    }
  ],
  "bytecode": {
    "object": "608060405234801561001057600080fd5b50612a13806100206000396000f3fe608060405234801561001057600080fd5b50600436106100575760003560e01c806318def8ef1461005c578063858af592146100b45780639b957b7414610122578063aca83eef14610140578063f6829228146101c4575b600080fd5b61009e6004803603602081101561007257600080fd5b81019080803573ffffffffffffffffffffffffffffffffffffffff169060200190929190505050610252565b6040518082815260200191505060405180910390f35b6100e0600480360360208110156100ca57600080fd5b810190808035906020019092919050505061026a565b604051808273ffffffffffffffffffffffffffffffffffffffff1673ffffffffffffffffffffffffffffffffffffffff16815260200191505060405180910390f35b61012a6102a6565b6040518082815260200191505060405180910390f35b6101826004803603602081101561015657600080fd5b81019080803573ffffffffffffffffffffffffffffffffffffffff1690602001909291905050506102b3565b604051808273ffffffffffffffffffffffffffffffffffffffff1673ffffffffffffffffffffffffffffffffffffffff16815260200191505060405180910390f35b610210600480360360408110156101da57600080fd5b81019080803573ffffffffffffffffffffffffffffffffffffffff169060200190929190803590602001909291905050506107e1565b604051808273ffffffffffffffffffffffffffffffffffffffff1673ffffffffffffffffffffffffffffffffffffffff16815260200191505060405180910390f35b60016020528060005260406000206000915090505481565b6002818154811061027757fe5b906000526020600020016000915054906101000a900473ffffffffffffffffffffffffffffffffffffffff1681565b6000600280549050905090565b60008073ffffffffffffffffffffffffffffffffffffffff168273ffffffffffffffffffffffffffffffffffffffff161415610357576040517f08c379a000000000000000000000000000000000000000000000000000000000815260040180806020018281038252601f8152602001807f486f646c6572466163746f72793a207a65726f20617373657420696e7075740081525060200191505060405180910390fd5b6000600160008473ffffffffffffffffffffffffffffffffffffffff1673ffffffffffffffffffffffffffffffffffffffff16815260200190815260200160002054905060018060008573ffffffffffffffffffffffffffffffffffffffff1673ffffffffffffffffffffffffffffffffffffffff1681526020019081526020016000206000828254019250508190555060008111156105575760008060008573ffffffffffffffffffffffffffffffffffffffff1673ffffffffffffffffffffffffffffffffffffffff168152602001908152602001600020600183038154811061043f57fe5b9060005260206000200160009054906101000a900473ffffffffffffffffffffffffffffffffffffffff169050600081905060008173ffffffffffffffffffffffffffffffffffffffff16631f2698ab6040518163ffffffff1660e01b815260040160206040518083038186803b1580156104b957600080fd5b505afa1580156104cd573d6000803e3d6000fd5b505050506040513d60208110156104e357600080fd5b810190808051906020019092919050505090506001151581151514610553576040517f08c379a000000000000000000000000000000000000000000000000000000000815260040180806020018281038252602c8152602001806129b2602c913960400191505060405180910390fd5b5050505b60006040516105659061082c565b604051809103906000f080158015610581573d6000803e3d6000fd5b5090508073ffffffffffffffffffffffffffffffffffffffff16634ec81af185683635c9adc5dea00000605060786040518563ffffffff1660e01b8152600401808573ffffffffffffffffffffffffffffffffffffffff1673ffffffffffffffffffffffffffffffffffffffff168152602001848152602001838152602001828152602001945050505050600060405180830381600087803b15801561062657600080fd5b505af115801561063a573d6000803e3d6000fd5b505050506000808573ffffffffffffffffffffffffffffffffffffffff1673ffffffffffffffffffffffffffffffffffffffff168152602001908152602001600020819080600181540180825580915050600190039060005260206000200160009091909190916101000a81548173ffffffffffffffffffffffffffffffffffffffff021916908373ffffffffffffffffffffffffffffffffffffffff1602179055506002819080600181540180825580915050600190039060005260206000200160009091909190916101000a81548173ffffffffffffffffffffffffffffffffffffffff021916908373ffffffffffffffffffffffffffffffffffffffff1602179055507f96b5b9b8a7193304150caccf9b80d150675fa3d6af57761d8d8ef1d6f9a1a9098185604051808373ffffffffffffffffffffffffffffffffffffffff1673ffffffffffffffffffffffffffffffffffffffff1681526020018273ffffffffffffffffffffffffffffffffffffffff1673ffffffffffffffffffffffffffffffffffffffff1681526020019250505060405180910390a18092505050919050565b600060205281600052604060002081815481106107fa57fe5b906000526020600020016000915091509054906101000a900473ffffffffffffffffffffffffffffffffffffffff1681565b6121788061083a8339019056fe60806040526001600e5534801561001557600080fd5b50612153806100256000396000f3fe608060405234801561001057600080fd5b50600436106101215760003560e01c8063431b0a5a116100ad578063834ee41711610071578063834ee4171461045957806387fba5221461047757806395d89b41146104955780639ff9c96f14610518578063b6b55f251461053657610121565b8063431b0a5a146102e7578063455fd6231461033f5780634ab49c1e1461035d5780634ec81af11461039f57806370a082311461040157610121565b8063196667e4116100f4578063196667e41461020b5780631f2698ab146102295780632e1a7d4d1461024b578063313ce5671461027957806338d52e0f1461029d57610121565b806306fdde031461012657806312fa6feb146101a9578063158ef93e146101cb57806318160ddd146101ed575b600080fd5b61012e610564565b6040518080602001828103825283818151815260200191508051906020019080838360005b8381101561016e578082015181840152602081019050610153565b50505050905090810190601f16801561019b5780820380516001836020036101000a031916815260200191505b509250505060405180910390f35b6101b1610602565b604051808215151515815260200191505060405180910390f35b6101d3610615565b604051808215151515815260200191505060405180910390f35b6101f5610628565b6040518082815260200191505060405180910390f35b61021361062e565b6040518082815260200191505060405180910390f35b610231610634565b604051808215151515815260200191505060405180910390f35b6102776004803603602081101561026157600080fd5b8101908080359060200190929190505050610647565b005b6102816109b8565b604051808260ff1660ff16815260200191505060405180910390f35b6102a56109cb565b604051808273ffffffffffffffffffffffffffffffffffffffff1673ffffffffffffffffffffffffffffffffffffffff16815260200191505060405180910390f35b610329600480360360208110156102fd57600080fd5b81019080803573ffffffffffffffffffffffffffffffffffffffff1690602001909291905050506109f1565b6040518082815260200191505060405180910390f35b610347610a09565b6040518082815260200191505060405180910390f35b6103896004803603602081101561037357600080fd5b8101908080359060200190929190505050610a0f565b6040518082815260200191505060405180910390f35b6103ff600480360360808110156103b557600080fd5b81019080803573ffffffffffffffffffffffffffffffffffffffff169060200190929190803590602001909291908035906020019092919080359060200190929190505050610c87565b005b6104436004803603602081101561041757600080fd5b81019080803573ffffffffffffffffffffffffffffffffffffffff16906020019092919050505061119d565b6040518082815260200191505060405180910390f35b6104616111b5565b6040518082815260200191505060405180910390f35b61047f6111bb565b6040518082815260200191505060405180910390f35b61049d6111c1565b6040518080602001828103825283818151815260200191508051906020019080838360005b838110156104dd5780820151818401526020810190506104c2565b50505050905090810190601f16801561050a5780820380516001836020036101000a031916815260200191505b509250505060405180910390f35b61052061125f565b6040518082815260200191505060405180910390f35b6105626004803603602081101561054c57600080fd5b8101908080359060200190929190505050611265565b005b60008054600181600116156101000203166002900480601f0160208091040260200160405190810160405280929190818152602001828054600181600116156101000203166002900480156105fa5780601f106105cf576101008083540402835291602001916105fa565b820191906000526020600020905b8154815290600101906020018083116105dd57829003601f168201915b505050505081565b600c60009054906101000a900460ff1681565b600660009054906101000a900460ff1681565b60035481565b60075481565b600a60009054906101000a900460ff1681565b6001600e54146106bf576040517f08c379a000000000000000000000000000000000000000000000000000000000815260040180806020018281038252600e8152602001807f486f646c65723a204c4f434b454400000000000000000000000000000000000081525060200191505060405180910390fd5b6000600e8190555060008111610720576040517f08c379a000000000000000000000000000000000000000000000000000000000815260040180806020018281038252602481526020018061205b6024913960400191505060405180910390fd5b60001515600c60009054906101000a900460ff161515146107a9576040517f08c379a000000000000000000000000000000000000000000000000000000000815260040180806020018281038252601b8152602001807f486f646c65725f77697468647261773a2067616d6520656e646564000000000081525060200191505060405180910390fd5b600060011515600a60009054906101000a900460ff161515146107d8578190506107d333836115a2565b61090e565b6107e182610a0f565b90506003546107fb836004546116bc90919063ffffffff16565b141561081d576001600c60006101000a81548160ff0219169083151502179055505b60008111610876576040517f08c379a00000000000000000000000000000000000000000000000000000000081526004018080602001828103825260248152602001806120066024913960400191505060405180910390fd5b610880338361173f565b6000600560003373ffffffffffffffffffffffffffffffffffffffff1673ffffffffffffffffffffffffffffffffffffffff16815260200190815260200160002054141561090d5742600d60003373ffffffffffffffffffffffffffffffffffffffff1673ffffffffffffffffffffffffffffffffffffffff168152602001908152602001600020819055505b5b61093b600660019054906101000a900473ffffffffffffffffffffffffffffffffffffffff163383611859565b3373ffffffffffffffffffffffffffffffffffffffff167fb97e775637eca8401af330efee0810af7079bafae27761741e09caa14db8d2728284600a60009054906101000a900460ff166040518084815260200183815260200182151515158152602001935050505060405180910390a2506001600e8190555050565b600260009054906101000a900460ff1681565b600660019054906101000a900473ffffffffffffffffffffffffffffffffffffffff1681565b600d6020528060005260406000206000915090505481565b60045481565b60008060035490506000610a30600854600954611a3590919063ffffffff16565b90506000610a95610a4c84600854611ab890919063ffffffff16565b610a87600354610a79600454610a6b8989611ab890919063ffffffff16565b611ab890919063ffffffff16565b611b4d90919063ffffffff16565b6116bc90919063ffffffff16565b90506000610aae866004546116bc90919063ffffffff16565b90506000610b11610aca86600854611ab890919063ffffffff16565b610b03600354610af586610ae78b8b611ab890919063ffffffff16565b611ab890919063ffffffff16565b611b4d90919063ffffffff16565b6116bc90919063ffffffff16565b90506000610b4d84610b3f6002610b318887611a3590919063ffffffff16565b611b4d90919063ffffffff16565b6116bc90919063ffffffff16565b90506000610b89610b68606489611ab890919063ffffffff16565b610b7b8b85611ab890919063ffffffff16565b611b4d90919063ffffffff16565b9050600354841415610c78576000600660019054906101000a900473ffffffffffffffffffffffffffffffffffffffff1690508073ffffffffffffffffffffffffffffffffffffffff166370a08231306040518263ffffffff1660e01b8152600401808273ffffffffffffffffffffffffffffffffffffffff1673ffffffffffffffffffffffffffffffffffffffff16815260200191505060206040518083038186803b158015610c3957600080fd5b505afa158015610c4d573d6000803e3d6000fd5b505050506040513d6020811015610c6357600080fd5b81019080805190602001909291905050509150505b80975050505050505050919050565b60001515600660009054906101000a900460ff16151514610cf3576040517f08c379a000000000000000000000000000000000000000000000000000000000815260040180806020018281038252602681526020018061207f6026913960400191505060405180910390fd5b6001600660006101000a81548160ff02191690831515021790555083600660016101000a81548173ffffffffffffffffffffffffffffffffffffffff021916908373ffffffffffffffffffffffffffffffffffffffff1602179055508260078190555081600881905550806009819055506060600660019054906101000a900473ffffffffffffffffffffffffffffffffffffffff1673ffffffffffffffffffffffffffffffffffffffff166306fdde036040518163ffffffff1660e01b815260040160006040518083038186803b158015610dce57600080fd5b505afa158015610de2573d6000803e3d6000fd5b505050506040513d6000823e3d601f19601f820116820180604052506020811015610e0c57600080fd5b8101908080516040519392919084640100000000821115610e2c57600080fd5b83820191506020820185811115610e4257600080fd5b8251866001820283011164010000000082111715610e5f57600080fd5b8083526020830192505050908051906020019080838360005b83811015610e93578082015181840152602081019050610e78565b50505050905090810190601f168015610ec05780820380516001836020036101000a031916815260200191505b506040525050509050610f086040518060400160405280600781526020017f486f646c6572200000000000000000000000000000000000000000000000000081525082611b6d565b60009080519060200190610f1d929190611f60565b506060600660019054906101000a900473ffffffffffffffffffffffffffffffffffffffff1673ffffffffffffffffffffffffffffffffffffffff166395d89b416040518163ffffffff1660e01b815260040160006040518083038186803b158015610f8857600080fd5b505afa158015610f9c573d6000803e3d6000fd5b505050506040513d6000823e3d601f19601f820116820180604052506020811015610fc657600080fd5b8101908080516040519392919084640100000000821115610fe657600080fd5b83820191506020820185811115610ffc57600080fd5b825186600182028301116401000000008211171561101957600080fd5b8083526020830192505050908051906020019080838360005b8381101561104d578082015181840152602081019050611032565b50505050905090810190601f16801561107a5780820380516001836020036101000a031916815260200191505b5060405250505090506110c26040518060400160405280600481526020017f686f646c0000000000000000000000000000000000000000000000000000000081525082611b6d565b600190805190602001906110d7929190611f60565b50600660019054906101000a900473ffffffffffffffffffffffffffffffffffffffff1673ffffffffffffffffffffffffffffffffffffffff1663313ce5676040518163ffffffff1660e01b815260040160206040518083038186803b15801561114057600080fd5b505afa158015611154573d6000803e3d6000fd5b505050506040513d602081101561116a57600080fd5b8101908080519060200190929190505050600260006101000a81548160ff021916908360ff160217905550505050505050565b60056020528060005260406000206000915090505481565b600b5481565b60085481565b60018054600181600116156101000203166002900480601f0160208091040260200160405190810160405280929190818152602001828054600181600116156101000203166002900480156112575780601f1061122c57610100808354040283529160200191611257565b820191906000526020600020905b81548152906001019060200180831161123a57829003601f168201915b505050505081565b60095481565b6001600e54146112dd576040517f08c379a000000000000000000000000000000000000000000000000000000000815260040180806020018281038252600e8152602001807f486f646c65723a204c4f434b454400000000000000000000000000000000000081525060200191505060405180910390fd5b6000600e819055506000811161133e576040517f08c379a00000000000000000000000000000000000000000000000000000000081526004018080602001828103825260228152602001806120a56022913960400191505060405180910390fd5b60001515600c60009054906101000a900460ff161515146113c7576040517f08c379a000000000000000000000000000000000000000000000000000000000815260040180806020018281038252601a8152602001807f486f646c65725f4465706f7369743a2067616d6520656e64656400000000000081525060200191505060405180910390fd5b60001515600a60009054906101000a900460ff16151514611450576040517f08c379a000000000000000000000000000000000000000000000000000000000815260040180806020018281038252601c8152602001807f486f646c65725f4465706f7369743a2067616d6520737461727465640000000081525060200191505060405180910390fd5b600754611468826003546116bc90919063ffffffff16565b10611511576114836002600754611ab890919063ffffffff16565b611498826003546116bc90919063ffffffff16565b106114ee576040517f08c379a000000000000000000000000000000000000000000000000000000000815260040180806020018281038252602a8152602001806120c7602a913960400191505060405180910390fd5b6001600a60006101000a81548160ff02191690831515021790555042600b819055505b61153f600660019054906101000a900473ffffffffffffffffffffffffffffffffffffffff16333084611c35565b6115493382611e46565b3373ffffffffffffffffffffffffffffffffffffffff167fe1fffcc4923d04b559f4d29a8bfc6cda04eb5b0d3c460751c2402c5c5cc9109c826040518082815260200191505060405180910390a26001600e8190555050565b6115f481600560008573ffffffffffffffffffffffffffffffffffffffff1673ffffffffffffffffffffffffffffffffffffffff16815260200190815260200160002054611a3590919063ffffffff16565b600560008473ffffffffffffffffffffffffffffffffffffffff1673ffffffffffffffffffffffffffffffffffffffff1681526020019081526020016000208190555061164c81600354611a3590919063ffffffff16565b600381905550600073ffffffffffffffffffffffffffffffffffffffff168273ffffffffffffffffffffffffffffffffffffffff167fddf252ad1be2c89b69c2b068fc378daa952ba7f163c4a11628f55a4df523b3ef836040518082815260200191505060405180910390a35050565b6000828284019150811015611739576040517f08c379a00000000000000000000000000000000000000000000000000000000081526004018080602001828103825260148152602001807f64732d6d6174682d6164642d6f766572666c6f7700000000000000000000000081525060200191505060405180910390fd5b92915050565b61179181600560008573ffffffffffffffffffffffffffffffffffffffff1673ffffffffffffffffffffffffffffffffffffffff16815260200190815260200160002054611a3590919063ffffffff16565b600560008473ffffffffffffffffffffffffffffffffffffffff1673ffffffffffffffffffffffffffffffffffffffff168152602001908152602001600020819055506117e9816004546116bc90919063ffffffff16565b600481905550600073ffffffffffffffffffffffffffffffffffffffff168273ffffffffffffffffffffffffffffffffffffffff167fddf252ad1be2c89b69c2b068fc378daa952ba7f163c4a11628f55a4df523b3ef836040518082815260200191505060405180910390a35050565b600060608473ffffffffffffffffffffffffffffffffffffffff1663a9059cbb8585604051602401808373ffffffffffffffffffffffffffffffffffffffff1673ffffffffffffffffffffffffffffffffffffffff168152602001828152602001925050506040516020818303038152906040529060e01b6020820180517bffffffffffffffffffffffffffffffffffffffffffffffffffffffff83818316178352505050506040518082805190602001908083835b60208310611932578051825260208201915060208101905060208303925061190f565b6001836020036101000a0380198251168184511680821785525050505050509050019150506000604051808303816000865af19150503d8060008114611994576040519150601f19603f3d011682016040523d82523d6000602084013e611999565b606091505b50915091508180156119d957506000815114806119d857508080602001905160208110156119c657600080fd5b81019080805190602001909291905050505b5b611a2e576040517f08c379a000000000000000000000000000000000000000000000000000000000815260040180806020018281038252602d8152602001806120f1602d913960400191505060405180910390fd5b5050505050565b6000828284039150811115611ab2576040517f08c379a00000000000000000000000000000000000000000000000000000000081526004018080602001828103825260158152602001807f64732d6d6174682d7375622d756e646572666c6f77000000000000000000000081525060200191505060405180910390fd5b92915050565b600080821480611ad55750828283850292508281611ad257fe5b04145b611b47576040517f08c379a00000000000000000000000000000000000000000000000000000000081526004018080602001828103825260148152602001807f64732d6d6174682d6d756c2d6f766572666c6f7700000000000000000000000081525060200191505060405180910390fd5b92915050565b6000808211611b5b57600080fd5b818381611b6457fe5b04905092915050565b606082826040516020018083805190602001908083835b60208310611ba75780518252602082019150602081019050602083039250611b84565b6001836020036101000a03801982511681845116808217855250505050505090500182805190602001908083835b60208310611bf85780518252602082019150602081019050602083039250611bd5565b6001836020036101000a03801982511681845116808217855250505050505090500192505050604051602081830303815290604052905092915050565b600060608573ffffffffffffffffffffffffffffffffffffffff166323b872dd868686604051602401808473ffffffffffffffffffffffffffffffffffffffff1673ffffffffffffffffffffffffffffffffffffffff1681526020018373ffffffffffffffffffffffffffffffffffffffff1673ffffffffffffffffffffffffffffffffffffffff16815260200182815260200193505050506040516020818303038152906040529060e01b6020820180517bffffffffffffffffffffffffffffffffffffffffffffffffffffffff83818316178352505050506040518082805190602001908083835b60208310611d425780518252602082019150602081019050602083039250611d1f565b6001836020036101000a0380198251168184511680821785525050505050509050019150506000604051808303816000865af19150503d8060008114611da4576040519150601f19603f3d011682016040523d82523d6000602084013e611da9565b606091505b5091509150818015611de95750600081511480611de85750808060200190516020811015611dd657600080fd5b81019080805190602001909291905050505b5b611e3e576040517f08c379a000000000000000000000000000000000000000000000000000000000815260040180806020018281038252603181526020018061202a6031913960400191505060405180910390fd5b505050505050565b611e5b816003546116bc90919063ffffffff16565b600381905550611eb381600560008573ffffffffffffffffffffffffffffffffffffffff1673ffffffffffffffffffffffffffffffffffffffff168152602001908152602001600020546116bc90919063ffffffff16565b600560008473ffffffffffffffffffffffffffffffffffffffff1673ffffffffffffffffffffffffffffffffffffffff168152602001908152602001600020819055508173ffffffffffffffffffffffffffffffffffffffff16600073ffffffffffffffffffffffffffffffffffffffff167fddf252ad1be2c89b69c2b068fc378daa952ba7f163c4a11628f55a4df523b3ef836040518082815260200191505060405180910390a35050565b828054600181600116156101000203166002900490600052602060002090601f016020900481019282601f10611fa157805160ff1916838001178555611fcf565b82800160010185558215611fcf579182015b82811115611fce578251825591602001919060010190611fb3565b5b509050611fdc9190611fe0565b5090565b61200291905b80821115611ffe576000816000905550600101611fe6565b5090565b9056fe486f646c65725f77697468647261773a207a65726f2061737365742077697468647261775472616e7366657248656c7065723a3a7472616e7366657246726f6d3a207472616e7366657246726f6d206661696c6564486f646c65725f77697468647261773a207a65726f20746f6b656e207769746864726177486f646c65725f696e697469616c697a653a20616c726561647920696e697469616c697a6564486f646c65725f4465706f7369743a207a65726f206173736574206465706f736974486f646c65725f4465706f7369743a2066696e616c206465706f736974206f7574206f662072616e67655472616e7366657248656c7065723a3a736166655472616e736665723a207472616e73666572206661696c6564a2646970667358221220dca73642f45dc86f5e2aa8857cc2b9939098ca05f1d255d51d7d1240ba979e1e64736f6c634300060b0033486f646c6572466163746f72793a2070726576696f757320686f646c657220646964206e6f74207374617274a2646970667358221220ca302939f33e97dca2ffbe6427e377c1ef194cd3461e3f95394be5cfb5f4f8ad64736f6c634300060b0033"
  }
}