{
  "opcodeHash": "0x3a24c79f8ddd04dc9d9d3ac2974d96fe41d88b2aa4116de68542bc47a5f8435d",
  "metalessHash": "0xde6bf7d39022117e5bff7c472aed7cb0aeb06865181997ad46d1faa949be9a83",
  "runtimeHash": "0x5faeaf9be404380d4fb7445db98b4caaa3cf2c9abb3f9fb1deb745b71d3b1909",
  "encodedMetadata": [
    {
      "ipfs": "/ipfs/QmQhKXoNfL478RfXjWx96oGjVS53R4dGu3qHFpveqV4hRD",
      "solc": "0.6.12"
    }
  ],
  "abi": [
    {
      "anonymous": false,
      "inputs": [
        {
          "indexed": false,
          "internalType": "address",
          "name": "affiliate",
          "type": "address"
        }
      ],
      "name": "AcceptAffiliate",
      "type": "event"
    },
    {
      "anonymous": false,
      "inputs": [
        {
          "indexed": true,
          "internalType": "address",
          "name": "owner",
          "type": "address"
        },
        {
          "indexed": true,
          "internalType": "address",
          "name": "spender",
          "type": "address"
        },
        {
          "indexed": false,
          "internalType": "uint256",
          "name": "value",
          "type": "uint256"
        }
      ],
      "name": "Approval",
      "type": "event"
    },
    {
      "anonymous": false,
      "inputs": [
        {
          "indexed": true,
          "internalType": "address",
          "name": "account",
          "type": "address"
        },
        {
          "indexed": false,
          "internalType": "uint256",
          "name": "shares",
          "type": "uint256"
        }
      ],
      "name": "Burn",
      "type": "event"
    },
    {
      "anonymous": false,
      "inputs": [
        {
          "indexed": true,
          "internalType": "address",
          "name": "account",
          "type": "address"
        },
        {
          "indexed": false,
          "internalType": "uint256",
          "name": "amount",
          "type": "uint256"
        }
      ],
      "name": "Deposit",
      "type": "event"
    },
    {
      "anonymous": false,
      "inputs": [
        {
          "indexed": true,
          "internalType": "address",
          "name": "account",
          "type": "address"
        },
        {
          "indexed": false,
          "internalType": "uint256",
          "name": "shares",
          "type": "uint256"
        }
      ],
      "name": "Mint",
      "type": "event"
    },
    {
      "anonymous": false,
      "inputs": [
        {
          "indexed": false,
          "internalType": "address",
          "name": "account",
          "type": "address"
        }
      ],
      "name": "Paused",
      "type": "event"
    },
    {
      "anonymous": false,
      "inputs": [
        {
          "indexed": false,
          "internalType": "address",
          "name": "affiliate",
          "type": "address"
        }
      ],
      "name": "PendingAffiliate",
      "type": "event"
    },
    {
      "anonymous": false,
      "inputs": [
        {
          "indexed": false,
          "internalType": "address",
          "name": "vault",
          "type": "address"
        }
      ],
      "name": "SetExperimentalVault",
      "type": "event"
    },
    {
      "anonymous": false,
      "inputs": [
        {
          "indexed": false,
          "internalType": "address",
          "name": "guardian",
          "type": "address"
        }
      ],
      "name": "SetGuardian",
      "type": "event"
    },
    {
      "anonymous": false,
      "inputs": [
        {
          "indexed": false,
          "internalType": "address",
          "name": "manager",
          "type": "address"
        }
      ],
      "name": "SetManager",
      "type": "event"
    },
    {
      "anonymous": false,
      "inputs": [
        {
          "indexed": true,
          "internalType": "address",
          "name": "from",
          "type": "address"
        },
        {
          "indexed": true,
          "internalType": "address",
          "name": "to",
          "type": "address"
        },
        {
          "indexed": false,
          "internalType": "uint256",
          "name": "value",
          "type": "uint256"
        }
      ],
      "name": "Transfer",
      "type": "event"
    },
    {
      "anonymous": false,
      "inputs": [
        {
          "indexed": false,
          "internalType": "address",
          "name": "account",
          "type": "address"
        }
      ],
      "name": "Unpaused",
      "type": "event"
    },
    {
      "anonymous": false,
      "inputs": [
        {
          "indexed": false,
          "internalType": "address",
          "name": "guestList",
          "type": "address"
        }
      ],
      "name": "UpdateGuestList",
      "type": "event"
    },
    {
      "anonymous": false,
      "inputs": [
        {
          "indexed": true,
          "internalType": "address",
          "name": "account",
          "type": "address"
        },
        {
          "indexed": false,
          "internalType": "uint256",
          "name": "amount",
          "type": "uint256"
        }
      ],
      "name": "Withdraw",
      "type": "event"
    },
    {
      "anonymous": false,
      "inputs": [
        {
          "indexed": true,
          "internalType": "address",
          "name": "recipient",
          "type": "address"
        },
        {
          "indexed": false,
          "internalType": "uint256",
          "name": "amount",
          "type": "uint256"
        }
      ],
      "name": "WithdrawalFee",
      "type": "event"
    },
    {
      "inputs": [],
      "name": "DOMAIN_SEPARATOR",
      "outputs": [
        {
          "internalType": "bytes32",
          "name": "",
          "type": "bytes32"
        }
      ],
      "stateMutability": "view",
      "type": "function"
    },
    {
      "inputs": [],
      "name": "DOMAIN_TYPEHASH",
      "outputs": [
        {
          "internalType": "bytes32",
          "name": "",
          "type": "bytes32"
        }
      ],
      "stateMutability": "view",
      "type": "function"
    },
    {
      "inputs": [],
      "name": "PERMIT_TYPEHASH",
      "outputs": [
        {
          "internalType": "bytes32",
          "name": "",
          "type": "bytes32"
        }
      ],
      "stateMutability": "view",
      "type": "function"
    },
    {
      "inputs": [],
      "name": "acceptAffiliate",
      "outputs": [],
      "stateMutability": "nonpayable",
      "type": "function"
    },
    {
      "inputs": [],
      "name": "affiliate",
      "outputs": [
        {
          "internalType": "address",
          "name": "",
          "type": "address"
        }
      ],
      "stateMutability": "view",
      "type": "function"
    },
    {
      "inputs": [],
      "name": "allVaults",
      "outputs": [
        {
          "internalType": "contract VaultAPI[]",
          "name": "",
          "type": "address[]"
        }
      ],
      "stateMutability": "view",
      "type": "function"
    },
    {
      "inputs": [
        {
          "internalType": "address",
          "name": "owner",
          "type": "address"
        },
        {
          "internalType": "address",
          "name": "spender",
          "type": "address"
        }
      ],
      "name": "allowance",
      "outputs": [
        {
          "internalType": "uint256",
          "name": "",
          "type": "uint256"
        }
      ],
      "stateMutability": "view",
      "type": "function"
    },
    {
      "inputs": [
        {
          "internalType": "address",
          "name": "spender",
          "type": "address"
        },
        {
          "internalType": "uint256",
          "name": "amount",
          "type": "uint256"
        }
      ],
      "name": "approve",
      "outputs": [
        {
          "internalType": "bool",
          "name": "",
          "type": "bool"
        }
      ],
      "stateMutability": "nonpayable",
      "type": "function"
    },
    {
      "inputs": [
        {
          "internalType": "address",
          "name": "account",
          "type": "address"
        }
      ],
      "name": "balanceOf",
      "outputs": [
        {
          "internalType": "uint256",
          "name": "",
          "type": "uint256"
        }
      ],
      "stateMutability": "view",
      "type": "function"
    },
    {
      "inputs": [],
      "name": "bestVault",
      "outputs": [
        {
          "internalType": "contract VaultAPI",
          "name": "",
          "type": "address"
        }
      ],
      "stateMutability": "view",
      "type": "function"
    },
    {
      "inputs": [],
      "name": "decimals",
      "outputs": [
        {
          "internalType": "uint8",
          "name": "",
          "type": "uint8"
        }
      ],
      "stateMutability": "view",
      "type": "function"
    },
    {
      "inputs": [
        {
          "internalType": "address",
          "name": "spender",
          "type": "address"
        },
        {
          "internalType": "uint256",
          "name": "subtractedValue",
          "type": "uint256"
        }
      ],
      "name": "decreaseAllowance",
      "outputs": [
        {
          "internalType": "bool",
          "name": "",
          "type": "bool"
        }
      ],
      "stateMutability": "nonpayable",
      "type": "function"
    },
    {
      "inputs": [
        {
          "internalType": "uint256",
          "name": "amount",
          "type": "uint256"
        }
      ],
      "name": "deposit",
      "outputs": [
        {
          "internalType": "uint256",
          "name": "deposited",
          "type": "uint256"
        }
      ],
      "stateMutability": "nonpayable",
      "type": "function"
    },
    {
      "inputs": [],
      "name": "deposit",
      "outputs": [
        {
          "internalType": "uint256",
          "name": "",
          "type": "uint256"
        }
      ],
      "stateMutability": "nonpayable",
      "type": "function"
    },
    {
      "inputs": [],
      "name": "disableExperimentalMode",
      "outputs": [],
      "stateMutability": "nonpayable",
      "type": "function"
    },
    {
      "inputs": [],
      "name": "experimentalMode",
      "outputs": [
        {
          "internalType": "bool",
          "name": "",
          "type": "bool"
        }
      ],
      "stateMutability": "view",
      "type": "function"
    },
    {
      "inputs": [],
      "name": "experimentalVault",
      "outputs": [
        {
          "internalType": "address",
          "name": "",
          "type": "address"
        }
      ],
      "stateMutability": "view",
      "type": "function"
    },
    {
      "inputs": [],
      "name": "guardian",
      "outputs": [
        {
          "internalType": "address",
          "name": "",
          "type": "address"
        }
      ],
      "stateMutability": "view",
      "type": "function"
    },
    {
      "inputs": [],
      "name": "guestList",
      "outputs": [
        {
          "internalType": "contract GuestListAPI",
          "name": "",
          "type": "address"
        }
      ],
      "stateMutability": "view",
      "type": "function"
    },
    {
      "inputs": [
        {
          "internalType": "address",
          "name": "spender",
          "type": "address"
        },
        {
          "internalType": "uint256",
          "name": "addedValue",
          "type": "uint256"
        }
      ],
      "name": "increaseAllowance",
      "outputs": [
        {
          "internalType": "bool",
          "name": "",
          "type": "bool"
        }
      ],
      "stateMutability": "nonpayable",
      "type": "function"
    },
    {
      "inputs": [
        {
          "internalType": "address",
          "name": "_token",
          "type": "address"
        },
        {
          "internalType": "address",
          "name": "_registry",
          "type": "address"
        },
        {
          "internalType": "string",
          "name": "name",
          "type": "string"
        },
        {
          "internalType": "string",
          "name": "symbol",
          "type": "string"
        },
        {
          "internalType": "address",
          "name": "_guardian",
          "type": "address"
        }
      ],
      "name": "initialize",
      "outputs": [],
      "stateMutability": "nonpayable",
      "type": "function"
    },
    {
      "inputs": [],
      "name": "manager",
      "outputs": [
        {
          "internalType": "address",
          "name": "",
          "type": "address"
        }
      ],
      "stateMutability": "view",
      "type": "function"
    },
    {
      "inputs": [
        {
          "internalType": "uint256",
          "name": "amount",
          "type": "uint256"
        },
        {
          "internalType": "uint256",
          "name": "maxMigrationLoss",
          "type": "uint256"
        }
      ],
      "name": "migrate",
      "outputs": [
        {
          "internalType": "uint256",
          "name": "",
          "type": "uint256"
        }
      ],
      "stateMutability": "nonpayable",
      "type": "function"
    },
    {
      "inputs": [
        {
          "internalType": "uint256",
          "name": "amount",
          "type": "uint256"
        }
      ],
      "name": "migrate",
      "outputs": [
        {
          "internalType": "uint256",
          "name": "",
          "type": "uint256"
        }
      ],
      "stateMutability": "nonpayable",
      "type": "function"
    },
    {
      "inputs": [],
      "name": "migrate",
      "outputs": [
        {
          "internalType": "uint256",
          "name": "",
          "type": "uint256"
        }
      ],
      "stateMutability": "nonpayable",
      "type": "function"
    },
    {
      "inputs": [],
      "name": "name",
      "outputs": [
        {
          "internalType": "string",
          "name": "",
          "type": "string"
        }
      ],
      "stateMutability": "view",
      "type": "function"
    },
    {
      "inputs": [
        {
          "internalType": "address",
          "name": "",
          "type": "address"
        }
      ],
      "name": "nonces",
      "outputs": [
        {
          "internalType": "uint256",
          "name": "",
          "type": "uint256"
        }
      ],
      "stateMutability": "view",
      "type": "function"
    },
    {
      "inputs": [],
      "name": "pause",
      "outputs": [],
      "stateMutability": "nonpayable",
      "type": "function"
    },
    {
      "inputs": [],
      "name": "paused",
      "outputs": [
        {
          "internalType": "bool",
          "name": "",
          "type": "bool"
        }
      ],
      "stateMutability": "view",
      "type": "function"
    },
    {
      "inputs": [],
      "name": "pendingAffiliate",
      "outputs": [
        {
          "internalType": "address",
          "name": "",
          "type": "address"
        }
      ],
      "stateMutability": "view",
      "type": "function"
    },
    {
      "inputs": [
        {
          "internalType": "address",
          "name": "owner",
          "type": "address"
        },
        {
          "internalType": "address",
          "name": "spender",
          "type": "address"
        },
        {
          "internalType": "uint256",
          "name": "amount",
          "type": "uint256"
        },
        {
          "internalType": "uint256",
          "name": "deadline",
          "type": "uint256"
        },
        {
          "internalType": "uint8",
          "name": "v",
          "type": "uint8"
        },
        {
          "internalType": "bytes32",
          "name": "r",
          "type": "bytes32"
        },
        {
          "internalType": "bytes32",
          "name": "s",
          "type": "bytes32"
        }
      ],
      "name": "permit",
      "outputs": [],
      "stateMutability": "nonpayable",
      "type": "function"
    },
    {
      "inputs": [],
      "name": "pricePerShare",
      "outputs": [
        {
          "internalType": "uint256",
          "name": "",
          "type": "uint256"
        }
      ],
      "stateMutability": "view",
      "type": "function"
    },
    {
      "inputs": [],
      "name": "registry",
      "outputs": [
        {
          "internalType": "contract RegistryAPI",
          "name": "",
          "type": "address"
        }
      ],
      "stateMutability": "view",
      "type": "function"
    },
    {
      "inputs": [
        {
          "internalType": "address",
          "name": "_affiliate",
          "type": "address"
        }
      ],
      "name": "setAffiliate",
      "outputs": [],
      "stateMutability": "nonpayable",
      "type": "function"
    },
    {
      "inputs": [
        {
          "internalType": "address",
          "name": "_experimentalVault",
          "type": "address"
        }
      ],
      "name": "setExperimentalVault",
      "outputs": [],
      "stateMutability": "nonpayable",
      "type": "function"
    },
    {
      "inputs": [
        {
          "internalType": "address",
          "name": "_guardian",
          "type": "address"
        }
      ],
      "name": "setGuardian",
      "outputs": [],
      "stateMutability": "nonpayable",
      "type": "function"
    },
    {
      "inputs": [
        {
          "internalType": "address",
          "name": "_guestList",
          "type": "address"
        }
      ],
      "name": "setGuestList",
      "outputs": [],
      "stateMutability": "nonpayable",
      "type": "function"
    },
    {
      "inputs": [
        {
          "internalType": "address",
          "name": "_manager",
          "type": "address"
        }
      ],
      "name": "setManager",
      "outputs": [],
      "stateMutability": "nonpayable",
      "type": "function"
    },
    {
      "inputs": [
        {
          "internalType": "address",
          "name": "_registry",
          "type": "address"
        }
      ],
      "name": "setRegistry",
      "outputs": [],
      "stateMutability": "nonpayable",
      "type": "function"
    },
    {
      "inputs": [
        {
          "internalType": "uint256",
          "name": "numShares",
          "type": "uint256"
        }
      ],
      "name": "shareValue",
      "outputs": [
        {
          "internalType": "uint256",
          "name": "",
          "type": "uint256"
        }
      ],
      "stateMutability": "view",
      "type": "function"
    },
    {
      "inputs": [],
      "name": "symbol",
      "outputs": [
        {
          "internalType": "string",
          "name": "",
          "type": "string"
        }
      ],
      "stateMutability": "view",
      "type": "function"
    },
    {
      "inputs": [],
      "name": "token",
      "outputs": [
        {
          "internalType": "contract IERC20Upgradeable",
          "name": "",
          "type": "address"
        }
      ],
      "stateMutability": "view",
      "type": "function"
    },
    {
      "inputs": [],
      "name": "totalAssets",
      "outputs": [
        {
          "internalType": "uint256",
          "name": "assets",
          "type": "uint256"
        }
      ],
      "stateMutability": "view",
      "type": "function"
    },
    {
      "inputs": [],
      "name": "totalSupply",
      "outputs": [
        {
          "internalType": "uint256",
          "name": "",
          "type": "uint256"
        }
      ],
      "stateMutability": "view",
      "type": "function"
    },
    {
      "inputs": [
        {
          "internalType": "address",
          "name": "account",
          "type": "address"
        }
      ],
      "name": "totalVaultBalance",
      "outputs": [
        {
          "internalType": "uint256",
          "name": "balance",
          "type": "uint256"
        }
      ],
      "stateMutability": "view",
      "type": "function"
    },
    {
      "inputs": [
        {
          "internalType": "address",
          "name": "account",
          "type": "address"
        }
      ],
      "name": "totalWrapperBalance",
      "outputs": [
        {
          "internalType": "uint256",
          "name": "balance",
          "type": "uint256"
        }
      ],
      "stateMutability": "view",
      "type": "function"
    },
    {
      "inputs": [
        {
          "internalType": "address",
          "name": "recipient",
          "type": "address"
        },
        {
          "internalType": "uint256",
          "name": "amount",
          "type": "uint256"
        }
      ],
      "name": "transfer",
      "outputs": [
        {
          "internalType": "bool",
          "name": "",
          "type": "bool"
        }
      ],
      "stateMutability": "nonpayable",
      "type": "function"
    },
    {
      "inputs": [
        {
          "internalType": "address",
          "name": "sender",
          "type": "address"
        },
        {
          "internalType": "address",
          "name": "recipient",
          "type": "address"
        },
        {
          "internalType": "uint256",
          "name": "amount",
          "type": "uint256"
        }
      ],
      "name": "transferFrom",
      "outputs": [
        {
          "internalType": "bool",
          "name": "",
          "type": "bool"
        }
      ],
      "stateMutability": "nonpayable",
      "type": "function"
    },
    {
      "inputs": [],
      "name": "unpause",
      "outputs": [],
      "stateMutability": "nonpayable",
      "type": "function"
    },
    {
      "inputs": [
        {
          "internalType": "uint256",
          "name": "shares",
          "type": "uint256"
        }
      ],
      "name": "withdraw",
      "outputs": [
        {
          "internalType": "uint256",
          "name": "withdrawn",
          "type": "uint256"
        }
      ],
      "stateMutability": "nonpayable",
      "type": "function"
    },
    {
      "inputs": [],
      "name": "withdraw",
      "outputs": [
        {
          "internalType": "uint256",
          "name": "",
          "type": "uint256"
        }
      ],
      "stateMutability": "nonpayable",
      "type": "function"
    },
    {
      "inputs": [],
      "name": "withdrawalFee",
      "outputs": [
        {
          "internalType": "uint256",
          "name": "",
          "type": "uint256"
        }
      ],
      "stateMutability": "view",
      "type": "function"
    }
  ],
  "bytecode": {
    "object": "608060405234801561001057600080fd5b506140c3806100206000396000f3fe608060405234801561001057600080fd5b506004361061030c5760003560e01c80636c31b5f01161019d578063a457c2d7116100e9578063d0e30db0116100a2578063dd62ed3e1161007c578063dd62ed3e146105dc578063e95b2de8146105ef578063f1c3693b146105f7578063fc0c546a146105ff5761030c565b8063d0e30db0146105ae578063d0ebdbe7146105b6578063d505accf146105c95761030c565b8063a457c2d714610552578063a9059cbb14610565578063a91ee0dc14610578578063b38a440e1461058b578063b6b55f2514610593578063c1d26e7e146105a65761030c565b80638a0dac4a1161015657806395d89b411161013057806395d89b4114610527578063974d8c931461052f57806399530b06146105425780639b9d8bac1461054a5761030c565b80638a0dac4a146105045780638bc7e8c4146105175780638fd3ab801461051f5761030c565b80636c31b5f0146104b357806370a08231146104bb57806376739c76146104ce5780637b103999146104e15780637ecebe00146104e95780638456cb59146104fc5761030c565b8063362925c21161025c578063452a93201161021557806346d55875116101ef57806346d5587514610488578063481c6a75146104905780635bf9b4a0146104985780635c975abb146104ab5761030c565b8063452a932014610458578063454b06081461046d57806345e05f43146104805761030c565b8063362925c2146104075780633644e5151461041a57806339509351146104225780633ccfd60b146104355780633e54bacb1461043d5780633f4ba83a146104505761030c565b806320606b70116102c95780632e1a7d4d116102a35780632e1a7d4d146103c457806330adf81f146103d757806330e5065e146103df578063313ce567146103f25761030c565b806320606b701461039657806323b872dd1461039e5780632bbb56d9146103b15761030c565b806301e1d11414610311578063063effeb1461032f57806306fdde0314610344578063095ea7b3146103595780630b5b78eb1461037957806318160ddd1461038e575b600080fd5b610319610607565b6040516103269190613a27565b60405180910390f35b6103376106be565b60405161032691906139cf565b61034c61073e565b6040516103269190613aae565b61036c610367366004613875565b6107d4565b6040516103269190613a1c565b61038c6103873660046136ba565b6107f2565b005b61031961085f565b610319610865565b61036c6103ac3660046137c5565b610889565b61038c6103bf3660046136ba565b610911565b6103196103d23660046138c0565b610979565b610319610a16565b6103196103ed3660046136ba565b610a3a565b6103fa610c14565b6040516103269190613f9a565b61038c61041536600461372a565b610c1d565b610319610e67565b61036c610430366004613875565b610e6d565b610319610ebb565b61031961044b3660046138f0565b610ef4565b61038c610f43565b610460610f8c565b6040516103269190613964565b61031961047b3660046138c0565b610f9b565b610460610ff1565b610460611000565b61046061100f565b6103196104a63660046136ba565b61101e565b61036c611045565b61038c611055565b6103196104c93660046136ba565b6110c5565b61038c6104dc3660046136ba565b6110e0565b610460611177565b6103196104f73660046136ba565b611186565b61038c611198565b61038c6105123660046136ba565b6111f4565b61031961125c565b610319611262565b61034c6112af565b61031961053d3660046138c0565b611310565b61031961131b565b61038c611342565b61036c610560366004613875565b611365565b61036c610573366004613875565b6113cd565b61038c6105863660046136ba565b6113e1565b610460611538565b6103196105a13660046138c0565b611547565b6104606116d1565b6103196116e5565b61038c6105c43660046136ba565b6117a4565b61038c6105d7366004613805565b61180c565b6103196105ea3660046136f2565b61198f565b6104606119ba565b61036c6119e7565b6104606119f0565b600060606106136106be565b905060005b81518110156106b9576106af82828151811061063057fe5b60200260200101516001600160a01b03166301e1d1146040518163ffffffff1660e01b815260040160206040518083038186803b15801561067057600080fd5b505afa158015610684573d6000803e3d6000fd5b505050506040513d601f19601f820116820180604052508101906106a891906138d8565b84906119ff565b9250600101610618565b505090565b60a15460609060ff1615610730576040805160018082528183019092526060916020808301908036833701905050905060a160019054906101000a90046001600160a01b03168160008151811061071157fe5b6001600160a01b0390921660209283029190910190910152905061073b565b610738611a24565b90505b90565b60368054604080516020601f60026000196101006001881615020190951694909404938401819004810282018101909252828152606093909290918301828280156107ca5780601f1061079f576101008083540402835291602001916107ca565b820191906000526020600020905b8154815290600101906020018083116107ad57829003601f168201915b5050505050905090565b60006107e86107e1611c8c565b8484611c90565b5060015b92915050565b609b546001600160a01b0316331461080957600080fd5b609d80546001600160a01b0319166001600160a01b0383161790556040517f6d674c311329fb38bbc96dc33d2aad03b9bf9fcfdd8f5e5054fda291a5b3c1f890610854908390613964565b60405180910390a150565b60355490565b7f8b73c3c69bb8fe3d512ecc4cf759cc79239f7b179b0ffacaa9a75d522b39400f81565b6000610896848484611d44565b610906846108a2611c8c565b61090185604051806060016040528060288152602001614041602891396001600160a01b038a166000908152603460205260408120906108e0611c8c565b6001600160a01b031681526020810191909152604001600020549190611e59565b611c90565b5060015b9392505050565b609b546001600160a01b0316331461092857600080fd5b609c80546001600160a01b0319166001600160a01b0383811691909117918290556040517f29c0eb4582e6a3d24fc98a377a0b2639174766893e23e63ecfee0e13e469d5bf92610854921690613964565b606754600090600160a01b900460ff16156109af5760405162461bcd60e51b81526004016109a690613c2b565b60405180910390fd5b6109c430336109bd85611e85565b6001611eba565b90506109d033836125b4565b336001600160a01b03167fcc16f5dbb4873280815c1ee09dbd06736cffcc184412cf7a71a0fdb75d397ca583604051610a099190613a27565b60405180910390a2919050565b7f6e71edae12b1b97f4d1f60370fef10105fa2faae0126114a169c64845d6126c981565b60006060610a466106be565b905060005b8151811015610c0d57610c036106a8838381518110610a6657fe5b60200260200101516001600160a01b031663313ce5676040518163ffffffff1660e01b815260040160206040518083038186803b158015610aa657600080fd5b505afa158015610aba573d6000803e3d6000fd5b505050506040513d601f19601f82011682018060405250810190610ade91906138d8565b600a0a610bfd858581518110610af057fe5b60200260200101516001600160a01b03166399530b066040518163ffffffff1660e01b815260040160206040518083038186803b158015610b3057600080fd5b505afa158015610b44573d6000803e3d6000fd5b505050506040513d601f19601f82011682018060405250810190610b6891906138d8565b868681518110610b7457fe5b60200260200101516001600160a01b03166370a082318a6040518263ffffffff1660e01b8152600401610ba79190613964565b60206040518083038186803b158015610bbf57600080fd5b505afa158015610bd3573d6000803e3d6000fd5b505050506040513d601f19601f82011682018060405250810190610bf791906138d8565b90612696565b906126d0565b9250600101610a4b565b5050919050565b60385460ff1690565b600054610100900460ff1680610c365750610c36612712565b80610c44575060005460ff16155b610c605760405162461bcd60e51b81526004016109a690613c55565b600054610100900460ff16158015610c8b576000805460ff1961ff0019909116610100171660011790555b610c958686612718565b610c9f84846127cd565b7f8b73c3c69bb8fe3d512ecc4cf759cc79239f7b179b0ffacaa9a75d522b39400f8480519060200120604051806040016040528060018152602001603160f81b81525080519060200120610cf1612863565b30604051602001610d06959493929190613a64565b60408051601f198184030181528282528051602091820120609955609b80546001600160a01b03199081163317909155609f80546001600160a01b038881169190931617905560655463313ce56760e01b85529251610dc394939091169263313ce567926004808301939192829003018186803b158015610d8657600080fd5b505afa158015610d9a573d6000803e3d6000fd5b505050506040513d601f19601f82011682018060405250810190610dbe9190613911565b612867565b609b546040517f9c892f99b84c7267551e8ee8cb21f24e8adfb50e6b19cf7deeb4b07306e9974291610e00916001600160a01b0390911690613964565b60405180910390a1609f546040517f31845eceb9cde510c7e8b37f76301c688feb70bc9653aa4c28a3734999840fd891610e45916001600160a01b0390911690613964565b60405180910390a18015610e5f576000805461ff00191690555b505050505050565b60995481565b60006107e8610e7a611c8c565b846109018560346000610e8b611c8c565b6001600160a01b03908116825260208083019390935260409182016000908120918c1681529252902054906119ff565b606754600090600160a01b900460ff1615610ee85760405162461bcd60e51b81526004016109a690613c2b565b6107386103d2336110c5565b609b546000906001600160a01b03163314610f0e57600080fd5b606754600160a01b900460ff1615610f385760405162461bcd60e51b81526004016109a690613c2b565b61090a30848461287d565b609e546001600160a01b0316331480610f665750609b546001600160a01b031633145b610f825760405162461bcd60e51b81526004016109a690613d49565b610f8a612a17565b565b609f546001600160a01b031681565b609b546000906001600160a01b03163314610fb557600080fd5b606754600160a01b900460ff1615610fdf5760405162461bcd60e51b81526004016109a690613c2b565b610fe93083612a83565b90505b919050565b609b546001600160a01b031681565b609d546001600160a01b031681565b609e546001600160a01b031681565b6000610fe961102b610c14565b60ff16600a0a610bfd61103c61131b565b610bf7866110c5565b606754600160a01b900460ff1690565b609c546001600160a01b0316331461106c57600080fd5b609b80546001600160a01b0319163317908190556040517f9c892f99b84c7267551e8ee8cb21f24e8adfb50e6b19cf7deeb4b07306e99742916110bb916001600160a01b039190911690613964565b60405180910390a1565b6001600160a01b031660009081526033602052604090205490565b609b546001600160a01b031633146110f757600080fd5b60a15461010090046001600160a01b03161561111257600080fd5b60a18054600160ff1990911617610100600160a81b0319166101006001600160a01b03848116820292909217928390556040517f20719aa21169b103c82ce7e8cfc22b4f1700962c8c93cf8a58ea13d5aa99544e936108549392900490911690613964565b6067546001600160a01b031681565b609a6020526000908152604090205481565b609f546001600160a01b03163314806111bb5750609e546001600160a01b031633145b806111d05750609b546001600160a01b031633145b6111ec5760405162461bcd60e51b81526004016109a690613d12565b610f8a612a91565b609b546001600160a01b0316331461120b57600080fd5b609f80546001600160a01b0319166001600160a01b0383811691909117918290556040517f31845eceb9cde510c7e8b37f76301c688feb70bc9653aa4c28a3734999840fd892610854921690613964565b60a05481565b609b546000906001600160a01b0316331461127c57600080fd5b606754600160a01b900460ff16156112a65760405162461bcd60e51b81526004016109a690613c2b565b61073830612af7565b60378054604080516020601f60026000196101006001881615020190951694909404938401819004810282018101909252828152606093909290918301828280156107ca5780601f1061079f576101008083540402835291602001916107ca565b6000610fe982611e85565b600061073861132861085f565b610bfd611333610c14565b60ff16600a0a610bf730610a3a565b609b546001600160a01b0316331461135957600080fd5b60a1805460ff19169055565b60006107e8611372611c8c565b8461090185604051806060016040528060258152602001614069602591396034600061139c611c8c565b6001600160a01b03908116825260208083019390935260409182016000908120918d16815292529020549190611e59565b60006107e86113da611c8c565b8484611d44565b606760009054906101000a90046001600160a01b03166001600160a01b0316635aa6e6756040518163ffffffff1660e01b815260040160206040518083038186803b15801561142f57600080fd5b505afa158015611443573d6000803e3d6000fd5b505050506040513d601f19601f8201168201806040525081019061146791906136d6565b6001600160a01b0316336001600160a01b03161461148457600080fd5b606780546001600160a01b0319166001600160a01b03838116919091179182905560408051635aa6e67560e01b815290519290911691635aa6e67591600480820192602092909190829003018186803b1580156114e057600080fd5b505afa1580156114f4573d6000803e3d6000fd5b505050506040513d601f19601f8201168201806040525081019061151891906136d6565b6001600160a01b0316336001600160a01b03161461153557600080fd5b50565b609c546001600160a01b031681565b606754600090600160a01b900460ff16156115745760405162461bcd60e51b81526004016109a690613c2b565b609d546001600160a01b03161561162357609d54604051632f6bb30760e11b81526001600160a01b0390911690635ed7660e906115b79033908690600401613978565b60206040518083038186803b1580156115cf57600080fd5b505afa1580156115e3573d6000803e3d6000fd5b505050506040513d601f19601f8201168201806040525081019061160791906138a0565b6116235760405162461bcd60e51b81526004016109a690613b94565b6116303330846001612b05565b9050600061163d82612f23565b90506116493382612f51565b336001600160a01b03167fe1fffcc4923d04b559f4d29a8bfc6cda04eb5b0d3c460751c2402c5c5cc9109c836040516116829190613a27565b60405180910390a2336001600160a01b03167f0f6798a560793a54c3bcfe86a93cde1e73087d944c0ea20544137d4121396885826040516116c39190613a27565b60405180910390a250919050565b60a15461010090046001600160a01b031681565b606754600090600160a01b900460ff16156117125760405162461bcd60e51b81526004016109a690613c2b565b6065546040516370a0823160e01b81526000916001600160a01b0316906370a0823190611743903390600401613964565b60206040518083038186803b15801561175b57600080fd5b505afa15801561176f573d6000803e3d6000fd5b505050506040513d601f19601f8201168201806040525081019061179391906138d8565b905061179e81611547565b91505090565b609b546001600160a01b031633146117bb57600080fd5b609e80546001600160a01b0319166001600160a01b0383811691909117918290556040517f54a6385aa0292b04e1ef8513253c17d1863f7cdfc87029d77fd55cc4c2e717e292610854921690613964565b6001600160a01b0387166118325760405162461bcd60e51b81526004016109a690613e4a565b834211156118525760405162461bcd60e51b81526004016109a690613c02565b6001600160a01b0387166000908152609a6020908152604080832080546001810190915590516118ad927f6e71edae12b1b97f4d1f60370fef10105fa2faae0126114a169c64845d6126c9928c928c928c92918c9101613a30565b6040516020818303038152906040528051906020012090506000609954826040516020016118dc929190613949565b6040516020818303038152906040528051906020012090506000600182878787604051600081526020016040526040516119199493929190613a90565b6020604051602081039080840390855afa15801561193b573d6000803e3d6000fd5b505050602060405103519050896001600160a01b0316816001600160a01b0316146119785760405162461bcd60e51b81526004016109a690613ca3565b6119838a8a8a611c90565b50505050505050505050565b6001600160a01b03918216600090815260346020908152604080832093909416825291909152205490565b60a15460009060ff16156119df575060a15461010090046001600160a01b031661073b565b610738613005565b60a15460ff1681565b6065546001600160a01b031681565b60008282018381101561090a5760405162461bcd60e51b81526004016109a690613bcb565b60665460675460655460405163f9c7bba560e01b8152606093926000926001600160a01b039182169263f9c7bba592611a61921690600401613964565b60206040518083038186803b158015611a7957600080fd5b505afa158015611a8d573d6000803e3d6000fd5b505050506040513d601f19601f82011682018060405250810190611ab191906138d8565b905080821415611b1f576066805480602002602001604051908101604052809291908181526020018280548015611b1157602002820191906000526020600020905b81546001600160a01b03168152600190910190602001808311611af3575b50505050509250505061073b565b60608167ffffffffffffffff81118015611b3857600080fd5b50604051908082528060200260200182016040528015611b62578160200160208202803683370190505b50905060005b83811015611bc75760668181548110611b7d57fe5b9060005260206000200160009054906101000a90046001600160a01b0316828281518110611ba757fe5b6001600160a01b0390921660209283029190910190910152600101611b68565b50825b82811015611c8457606754606554604051633ddfe34f60e11b81526001600160a01b0392831692637bbfc69e92611c08929116908590600401613978565b60206040518083038186803b158015611c2057600080fd5b505afa158015611c34573d6000803e3d6000fd5b505050506040513d601f19601f82011682018060405250810190611c5891906136d6565b828281518110611c6457fe5b6001600160a01b0390921660209283029190910190910152600101611bca565b509250505090565b3390565b6001600160a01b038316611cb65760405162461bcd60e51b81526004016109a690613e06565b6001600160a01b038216611cdc5760405162461bcd60e51b81526004016109a690613b52565b6001600160a01b0380841660008181526034602090815260408083209487168084529490915290819020849055517f8c5be1e5ebec7d5bd14f71427d1e84f3dd0314c0f7b2291e5b200ac8c7c3b92590611d37908590613a27565b60405180910390a3505050565b6001600160a01b038316611d6a5760405162461bcd60e51b81526004016109a690613dc1565b6001600160a01b038216611d905760405162461bcd60e51b81526004016109a690613ae1565b611d9b8383836127c8565b611dd88160405180606001604052806026815260200161401b602691396001600160a01b0386166000908152603360205260409020549190611e59565b6001600160a01b038085166000908152603360205260408082209390935590841681522054611e0790826119ff565b6001600160a01b0380841660008181526033602052604090819020939093559151908516907fddf252ad1be2c89b69c2b068fc378daa952ba7f163c4a11628f55a4df523b3ef90611d37908590613a27565b60008184841115611e7d5760405162461bcd60e51b81526004016109a69190613aae565b505050900390565b600080611e9061085f565b90508015611eb157611ea981610bfd85610bf730610a3a565b915050610fec565b82915050610fec565b600080611ec56119ba565b90506060611ed16106be565b60a15490915060ff16611ee757611ee78161308d565b60005b81518110156124415784158015611f255750826001600160a01b0316828281518110611f1257fe5b60200260200101516001600160a01b0316145b15611f2f57612439565b6000828281518110611f3d57fe5b60200260200101516001600160a01b03166370a082318a6040518263ffffffff1660e01b8152600401611f709190613964565b60206040518083038186803b158015611f8857600080fd5b505afa158015611f9c573d6000803e3d6000fd5b505050506040513d601f19601f82011682018060405250810190611fc091906138d8565b90506001600160a01b038916301461206f5761206c81848481518110611fe257fe5b60200260200101516001600160a01b031663dd62ed3e8c306040518363ffffffff1660e01b8152600401612017929190613991565b60206040518083038186803b15801561202f57600080fd5b505afa158015612043573d6000803e3d6000fd5b505050506040513d601f19601f8201168201806040525081019061206791906138d8565b6130af565b90505b6120bf8184848151811061207f57fe5b60200260200101516001600160a01b03166375de29026040518163ffffffff1660e01b815260040160206040518083038186803b15801561202f57600080fd5b90508015612437576001600160a01b038916301461216e578282815181106120e357fe5b60200260200101516001600160a01b03166323b872dd8a30846040518463ffffffff1660e01b815260040161211a939291906139ab565b602060405180830381600087803b15801561213457600080fd5b505af1158015612148573d6000803e3d6000fd5b505050506040513d601f19601f8201168201806040525081019061216c91906138a0565b505b600019871461239757600061229484848151811061218857fe5b60200260200101516001600160a01b03166399530b066040518163ffffffff1660e01b815260040160206040518083038186803b1580156121c857600080fd5b505afa1580156121dc573d6000803e3d6000fd5b505050506040513d601f19601f8201168201806040525081019061220091906138d8565b610bfd86868151811061220f57fe5b60200260200101516001600160a01b031663313ce5676040518163ffffffff1660e01b815260040160206040518083038186803b15801561224f57600080fd5b505afa158015612263573d6000803e3d6000fd5b505050506040513d601f19601f8201168201806040525081019061228791906138d8565b600a0a610bf78c8b6130c5565b90506000811180156122a557508181105b1561234c576123458484815181106122b957fe5b60200260200101516001600160a01b0316632e1a7d4d836040518263ffffffff1660e01b81526004016122ec9190613a27565b602060405180830381600087803b15801561230657600080fd5b505af115801561231a573d6000803e3d6000fd5b505050506040513d601f19601f8201168201806040525081019061233e91906138d8565b87906119ff565b9550612391565b61238e84848151811061235b57fe5b60200260200101516001600160a01b0316632e1a7d4d846040518263ffffffff1660e01b81526004016122ec9190613a27565b95505b5061242a565b6124278383815181106123a657fe5b60200260200101516001600160a01b0316633ccfd60b6040518163ffffffff1660e01b8152600401602060405180830381600087803b1580156123e857600080fd5b505af11580156123fc573d6000803e3d6000fd5b505050506040513d601f19601f8201168201806040525081019061242091906138d8565b86906119ff565b94505b8487116124375750612441565b505b600101611eea565b50848311156125835761245483866130c5565b606554604051636eb1769f60e11b81526001600160a01b039091169063dd62ed3e906124869030908790600401613991565b60206040518083038186803b15801561249e57600080fd5b505afa1580156124b2573d6000803e3d6000fd5b505050506040513d601f19601f820116820180604052508101906124d691906138d8565b10156124f5576065546124f5906001600160a01b031683600019613107565b6001600160a01b038216636e553f6561250e85886130c5565b896040518363ffffffff1660e01b815260040161252c929190613f83565b602060405180830381600087803b15801561254657600080fd5b505af115801561255a573d6000803e3d6000fd5b505050506040513d601f19601f8201168201806040525081019061257e91906138d8565b508492505b6001600160a01b03861630146125aa576065546125aa906001600160a01b03168785613201565b5050949350505050565b6001600160a01b0382166125da5760405162461bcd60e51b81526004016109a690613d80565b6125e6826000836127c8565b61262381604051806060016040528060228152602001613ff9602291396001600160a01b0385166000908152603360205260409020549190611e59565b6001600160a01b03831660009081526033602052604090205560355461264990826130c5565b6035556040516000906001600160a01b038416907fddf252ad1be2c89b69c2b068fc378daa952ba7f163c4a11628f55a4df523b3ef9061268a908590613a27565b60405180910390a35050565b6000826126a5575060006107ec565b828202828482816126b257fe5b041461090a5760405162461bcd60e51b81526004016109a690613cd1565b600061090a83836040518060400160405280601a81526020017f536166654d6174683a206469766973696f6e206279207a65726f000000000000815250613220565b303b1590565b600054610100900460ff16806127315750612731612712565b8061273f575060005460ff16155b61275b5760405162461bcd60e51b81526004016109a690613c55565b600054610100900460ff16158015612786576000805460ff1961ff0019909116610100171660011790555b606580546001600160a01b038086166001600160a01b031992831617909255606780549285169290911691909117905580156127c8576000805461ff00191690555b505050565b600054610100900460ff16806127e657506127e6612712565b806127f4575060005460ff16155b6128105760405162461bcd60e51b81526004016109a690613c55565b600054610100900460ff1615801561283b576000805460ff1961ff0019909116610100171660011790555b612843613257565b61284d83836132d9565b80156127c8576000805461ff0019169055505050565b4690565b6038805460ff191660ff92909216919091179055565b6000806128886119ba565b90506000816001600160a01b031663ecf708586040518163ffffffff1660e01b815260040160206040518083038186803b1580156128c557600080fd5b505afa1580156128d9573d6000803e3d6000fd5b505050506040513d601f19601f820116820180604052508101906128fd91906138d8565b90506000826001600160a01b03166301e1d1146040518163ffffffff1660e01b815260040160206040518083038186803b15801561293a57600080fd5b505afa15801561294e573d6000803e3d6000fd5b505050506040513d601f19601f8201168201806040525081019061297291906138d8565b9050808211612987576000935050505061090a565b856000198310801561299a575060001981105b156129bb5760006129ab84846130c5565b9050808211156129b9578091505b505b8015612a0c5760006129d08930846000611eba565b9050806129e55760009550505050505061090a565b6129f2308a836000612b05565b9550866129ff82886130c5565b1115612a0a57600080fd5b505b505050509392505050565b606754600160a01b900460ff16612a405760405162461bcd60e51b81526004016109a690613b24565b6067805460ff60a01b191690557f5db9ee0a495bf2e6ff9c91a7834c1ba4fdd244a5e8aa4e537bd38aeae4b073aa612a76611c8c565b6040516110bb9190613964565b600061090a8383600061287d565b606754600160a01b900460ff1615612abb5760405162461bcd60e51b81526004016109a690613c2b565b6067805460ff60a01b1916600160a01b1790557f62e78cea01bee320cd4e420270b5ea74000d11b0c9f74754ebdbfc544b05a258612a76611c8c565b6000610fe982600019612a83565b600080612b106119ba565b90508215612bd8576000198414612b3e57606554612b39906001600160a01b0316873087613392565b612bd8565b6065546040516370a0823160e01b8152612bd891889130916001600160a01b0316906370a0823190612b74908590600401613964565b60206040518083038186803b158015612b8c57600080fd5b505afa158015612ba0573d6000803e3d6000fd5b505050506040513d601f19601f82011682018060405250810190612bc491906138d8565b6065546001600160a01b0316929190613392565b606554604051636eb1769f60e11b815285916001600160a01b03169063dd62ed3e90612c0a9030908690600401613991565b60206040518083038186803b158015612c2257600080fd5b505afa158015612c36573d6000803e3d6000fd5b505050506040513d601f19601f82011682018060405250810190612c5a91906138d8565b1015612c9157606554612c78906001600160a01b0316826000613107565b606554612c91906001600160a01b031682600019613107565b6065546040516370a0823160e01b81526000916001600160a01b0316906370a0823190612cc2903090600401613964565b60206040518083038186803b158015612cda57600080fd5b505afa158015612cee573d6000803e3d6000fd5b505050506040513d601f19601f82011682018060405250810190612d1291906138d8565b90506001600160a01b0386163014612daa57604051636e553f6560e01b81526001600160a01b03831690636e553f6590612d529088908a90600401613f83565b602060405180830381600087803b158015612d6c57600080fd5b505af1158015612d80573d6000803e3d6000fd5b505050506040513d601f19601f82011682018060405250810190612da491906138d8565b50612e54565b6000198514612ddf5760405163b6b55f2560e01b81526001600160a01b0383169063b6b55f2590612d52908890600401613a27565b816001600160a01b031663d0e30db06040518163ffffffff1660e01b8152600401602060405180830381600087803b158015612e1a57600080fd5b505af1158015612e2e573d6000803e3d6000fd5b505050506040513d601f19601f82011682018060405250810190612e5291906138d8565b505b6065546040516370a0823160e01b81526000916001600160a01b0316906370a0823190612e85903090600401613964565b60206040518083038186803b158015612e9d57600080fd5b505afa158015612eb1573d6000803e3d6000fd5b505050506040513d601f19601f82011682018060405250810190612ed591906138d8565b9050612ee182826130c5565b93506001600160a01b0388163014801590612efc5750600081115b15612f1857606554612f18906001600160a01b03168983613201565b505050949350505050565b600080612f3983612f3330610a3a565b906130c5565b90508015611eb157611ea981610bfd85610bf761085f565b6001600160a01b038216612f775760405162461bcd60e51b81526004016109a690613f4c565b612f83600083836127c8565b603554612f9090826119ff565b6035556001600160a01b038216600090815260336020526040902054612fb690826119ff565b6001600160a01b0383166000818152603360205260408082209390935591519091907fddf252ad1be2c89b69c2b068fc378daa952ba7f163c4a11628f55a4df523b3ef9061268a908590613a27565b606754606554604051630e177dc760e41b81526000926001600160a01b039081169263e177dc709261303d9290911690600401613964565b60206040518083038186803b15801561305557600080fd5b505afa158015613069573d6000803e3d6000fd5b505050506040513d601f19601f8201168201806040525081019061073891906136d6565b606654815111156115355780516130ab906066906020840190613529565b5050565b60008183106130be578161090a565b5090919050565b600061090a83836040518060400160405280601e81526020017f536166654d6174683a207375627472616374696f6e206f766572666c6f770000815250611e59565b80158061318f5750604051636eb1769f60e11b81526001600160a01b0384169063dd62ed3e9061313d9030908690600401613991565b60206040518083038186803b15801561315557600080fd5b505afa158015613169573d6000803e3d6000fd5b505050506040513d601f19601f8201168201806040525081019061318d91906138d8565b155b6131ab5760405162461bcd60e51b81526004016109a690613ef6565b6127c88363095ea7b360e01b84846040516024016131ca929190613978565b60408051601f198184030181529190526020810180516001600160e01b03166001600160e01b0319909316929092179091526133b9565b6127c88363a9059cbb60e01b84846040516024016131ca929190613978565b600081836132415760405162461bcd60e51b81526004016109a69190613aae565b50600083858161324d57fe5b0495945050505050565b600054610100900460ff16806132705750613270612712565b8061327e575060005460ff16155b61329a5760405162461bcd60e51b81526004016109a690613c55565b600054610100900460ff161580156132c5576000805460ff1961ff0019909116610100171660011790555b8015611535576000805461ff001916905550565b600054610100900460ff16806132f257506132f2612712565b80613300575060005460ff16155b61331c5760405162461bcd60e51b81526004016109a690613c55565b600054610100900460ff16158015613347576000805460ff1961ff0019909116610100171660011790555b825161335a90603690602086019061358e565b50815161336e90603790602085019061358e565b506038805460ff1916601217905580156127c8576000805461ff0019169055505050565b6133b3846323b872dd60e01b8585856040516024016131ca939291906139ab565b50505050565b606061340e826040518060400160405280602081526020017f5361666545524332303a206c6f772d6c6576656c2063616c6c206661696c6564815250856001600160a01b03166134489092919063ffffffff16565b8051909150156127c8578080602001905181019061342c91906138a0565b6127c85760405162461bcd60e51b81526004016109a690613eac565b6060613457848460008561345f565b949350505050565b606061346a85613523565b6134865760405162461bcd60e51b81526004016109a690613e75565b60006060866001600160a01b031685876040516134a3919061392d565b60006040518083038185875af1925050503d80600081146134e0576040519150601f19603f3d011682016040523d82523d6000602084013e6134e5565b606091505b509150915081156134f95791506134579050565b8051156135095780518082602001fd5b8360405162461bcd60e51b81526004016109a69190613aae565b3b151590565b82805482825590600052602060002090810192821561357e579160200282015b8281111561357e57825182546001600160a01b0319166001600160a01b03909116178255602090920191600190910190613549565b5061358a929150613608565b5090565b828054600181600116156101000203166002900490600052602060002090601f016020900481019282601f106135cf57805160ff19168380011785556135fc565b828001600101855582156135fc579182015b828111156135fc5782518255916020019190600101906135e1565b5061358a929150613627565b5b8082111561358a5780546001600160a01b0319168155600101613609565b5b8082111561358a5760008155600101613628565b600082601f83011261364c578081fd5b813567ffffffffffffffff80821115613663578283fd5b604051601f8301601f191681016020018281118282101715613683578485fd5b60405282815292508284830160200186101561369e57600080fd5b8260208601602083013760006020848301015250505092915050565b6000602082840312156136cb578081fd5b813561090a81613fd4565b6000602082840312156136e7578081fd5b815161090a81613fd4565b60008060408385031215613704578081fd5b823561370f81613fd4565b9150602083013561371f81613fd4565b809150509250929050565b600080600080600060a08688031215613741578081fd5b853561374c81613fd4565b9450602086013561375c81613fd4565b9350604086013567ffffffffffffffff80821115613778578283fd5b61378489838a0161363c565b94506060880135915080821115613799578283fd5b506137a68882890161363c565b92505060808601356137b781613fd4565b809150509295509295909350565b6000806000606084860312156137d9578283fd5b83356137e481613fd4565b925060208401356137f481613fd4565b929592945050506040919091013590565b600080600080600080600060e0888a03121561381f578182fd5b873561382a81613fd4565b9650602088013561383a81613fd4565b95506040880135945060608801359350608088013561385881613fe9565b9699959850939692959460a0840135945060c09093013592915050565b60008060408385031215613887578182fd5b823561389281613fd4565b946020939093013593505050565b6000602082840312156138b1578081fd5b8151801515811461090a578182fd5b6000602082840312156138d1578081fd5b5035919050565b6000602082840312156138e9578081fd5b5051919050565b60008060408385031215613902578182fd5b50508035926020909101359150565b600060208284031215613922578081fd5b815161090a81613fe9565b6000825161393f818460208701613fa8565b9190910192915050565b61190160f01b81526002810192909252602282015260420190565b6001600160a01b0391909116815260200190565b6001600160a01b03929092168252602082015260400190565b6001600160a01b0392831681529116602082015260400190565b6001600160a01b039384168152919092166020820152604081019190915260600190565b6020808252825182820181905260009190848201906040850190845b81811015613a105783516001600160a01b0316835292840192918401916001016139eb565b50909695505050505050565b901515815260200190565b90815260200190565b9586526001600160a01b0394851660208701529290931660408501526060840152608083019190915260a082015260c00190565b9485526020850193909352604084019190915260608301526001600160a01b0316608082015260a00190565b93845260ff9290921660208401526040830152606082015260800190565b6000602082528251806020840152613acd816040850160208701613fa8565b601f01601f19169190910160400192915050565b60208082526023908201527f45524332303a207472616e7366657220746f20746865207a65726f206164647260408201526265737360e81b606082015260800190565b60208082526014908201527314185d5cd8589b194e881b9bdd081c185d5cd95960621b604082015260600190565b60208082526022908201527f45524332303a20617070726f766520746f20746865207a65726f206164647265604082015261737360f01b606082015260800190565b60208082526018908201527f67756573742d6c6973742d617574686f72697a6174696f6e0000000000000000604082015260600190565b6020808252601b908201527f536166654d6174683a206164646974696f6e206f766572666c6f770000000000604082015260600190565b6020808252600f908201526e1c195c9b5a5d0e88195e1c1a5c9959608a1b604082015260600190565b60208082526010908201526f14185d5cd8589b194e881c185d5cd95960821b604082015260600190565b6020808252602e908201527f496e697469616c697a61626c653a20636f6e747261637420697320616c72656160408201526d191e481a5b9a5d1a585b1a5e995960921b606082015260800190565b6020808252601490820152731c195c9b5a5d0e881d5b985d5d1a1bdc9a5e995960621b604082015260600190565b60208082526021908201527f536166654d6174683a206d756c7469706c69636174696f6e206f766572666c6f6040820152607760f81b606082015260800190565b60208082526017908201527f6f6e6c792d617574686f72697a65642d70617573657273000000000000000000604082015260600190565b60208082526019908201527f6f6e6c792d617574686f72697a65642d756e7061757365727300000000000000604082015260600190565b60208082526021908201527f45524332303a206275726e2066726f6d20746865207a65726f206164647265736040820152607360f81b606082015260800190565b60208082526025908201527f45524332303a207472616e736665722066726f6d20746865207a65726f206164604082015264647265737360d81b606082015260800190565b60208082526024908201527f45524332303a20617070726f76652066726f6d20746865207a65726f206164646040820152637265737360e01b606082015260800190565b6020808252601190820152707065726d69743a207369676e617475726560781b604082015260600190565b6020808252601d908201527f416464726573733a2063616c6c20746f206e6f6e2d636f6e7472616374000000604082015260600190565b6020808252602a908201527f5361666545524332303a204552433230206f7065726174696f6e20646964206e6040820152691bdd081cdd58d8d9595960b21b606082015260800190565b60208082526036908201527f5361666545524332303a20617070726f76652066726f6d206e6f6e2d7a65726f60408201527520746f206e6f6e2d7a65726f20616c6c6f77616e636560501b606082015260800190565b6020808252601f908201527f45524332303a206d696e7420746f20746865207a65726f206164647265737300604082015260600190565b9182526001600160a01b0316602082015260400190565b60ff91909116815260200190565b60005b83811015613fc3578181015183820152602001613fab565b838111156133b35750506000910152565b6001600160a01b038116811461153557600080fd5b60ff8116811461153557600080fdfe45524332303a206275726e20616d6f756e7420657863656564732062616c616e636545524332303a207472616e7366657220616d6f756e7420657863656564732062616c616e636545524332303a207472616e7366657220616d6f756e74206578636565647320616c6c6f77616e636545524332303a2064656372656173656420616c6c6f77616e63652062656c6f77207a65726fa2646970667358221220aa88008c74cf89b09900fea19634ce9ede63eebca1aa69ce56ff7d7f8ef69c6564736f6c634300060c0033"
  }
}