{"compiler":"v0.8.4+commit.c7e474f2","opcodeHash":"0x9818a104412d0ae4a0944cc34a8506de1fdde963ef4c5baceb8c63d28c93ee2f","metalessHash":"0xf6bd8b8bd3dd7f640f4e549ee7adfa95926dbf6192fbd69cfc39ae2a268961f7","runtimeHash":"0x44347e9f003f863caddf30532507a8fdaf39f3ba71229080fe4539a8e554b19d","encodedMetadata":[{"ipfs":"/ipfs/QmQY9kHQRY94MBCGRCdjBT66xaTJ3Em7f6qmmgn4wzjqww","solc":"0.8.4"}],"abi":[{"inputs":[],"stateMutability":"nonpayable","type":"constructor"},{"anonymous":false,"inputs":[{"indexed":true,"internalType":"address","name":"owner","type":"address"},{"indexed":true,"internalType":"address","name":"spender","type":"address"},{"indexed":false,"internalType":"uint256","name":"value","type":"uint256"}],"name":"Approval","type":"event"},{"anonymous":false,"inputs":[{"indexed":false,"internalType":"uint256","name":"_maxTxAmount","type":"uint256"}],"name":"MaxTxAmountUpdated","type":"event"},{"anonymous":false,"inputs":[{"indexed":true,"internalType":"address","name":"previousOwner","type":"address"},{"indexed":true,"internalType":"address","name":"newOwner","type":"address"}],"name":"OwnershipTransferred","type":"event"},{"anonymous":false,"inputs":[{"indexed":true,"internalType":"address","name":"from","type":"address"},{"indexed":true,"internalType":"address","name":"to","type":"address"},{"indexed":false,"internalType":"uint256","name":"value","type":"uint256"}],"name":"Transfer","type":"event"},{"inputs":[{"internalType":"address","name":"owner","type":"address"},{"internalType":"address","name":"spender","type":"address"}],"name":"allowance","outputs":[{"internalType":"uint256","name":"","type":"uint256"}],"stateMutability":"view","type":"function"},{"inputs":[{"internalType":"address","name":"spender","type":"address"},{"internalType":"uint256","name":"amount","type":"uint256"}],"name":"approve","outputs":[{"internalType":"bool","name":"","type":"bool"}],"stateMutability":"nonpayable","type":"function"},{"inputs":[{"internalType":"address","name":"account","type":"address"}],"name":"balanceOf","outputs":[{"internalType":"uint256","name":"","type":"uint256"}],"stateMutability":"view","type":"function"},{"inputs":[],"name":"decimals","outputs":[{"internalType":"uint8","name":"","type":"uint8"}],"stateMutability":"pure","type":"function"},{"inputs":[{"internalType":"address","name":"notbot","type":"address"}],"name":"delBot","outputs":[],"stateMutability":"nonpayable","type":"function"},{"inputs":[],"name":"manualsend","outputs":[],"stateMutability":"nonpayable","type":"function"},{"inputs":[],"name":"manualswap","outputs":[],"stateMutability":"nonpayable","type":"function"},{"inputs":[],"name":"name","outputs":[{"internalType":"string","name":"","type":"string"}],"stateMutability":"pure","type":"function"},{"inputs":[],"name":"openTrading","outputs":[],"stateMutability":"nonpayable","type":"function"},{"inputs":[],"name":"owner","outputs":[{"internalType":"address","name":"","type":"address"}],"stateMutability":"view","type":"function"},{"inputs":[],"name":"renounceOwnership","outputs":[],"stateMutability":"nonpayable","type":"function"},{"inputs":[{"internalType":"address[]","name":"bots_","type":"address[]"}],"name":"setBots","outputs":[],"stateMutability":"nonpayable","type":"function"},{"inputs":[{"internalType":"bool","name":"onoff","type":"bool"}],"name":"setCooldownEnabled","outputs":[],"stateMutability":"nonpayable","type":"function"},{"inputs":[],"name":"symbol","outputs":[{"internalType":"string","name":"","type":"string"}],"stateMutability":"pure","type":"function"},{"inputs":[],"name":"totalSupply","outputs":[{"internalType":"uint256","name":"","type":"uint256"}],"stateMutability":"pure","type":"function"},{"inputs":[{"internalType":"address","name":"recipient","type":"address"},{"internalType":"uint256","name":"amount","type":"uint256"}],"name":"transfer","outputs":[{"internalType":"bool","name":"","type":"bool"}],"stateMutability":"nonpayable","type":"function"},{"inputs":[{"internalType":"address","name":"sender","type":"address"},{"internalType":"address","name":"recipient","type":"address"},{"internalType":"uint256","name":"amount","type":"uint256"}],"name":"transferFrom","outputs":[{"internalType":"bool","name":"","type":"bool"}],"stateMutability":"nonpayable","type":"function"},{"stateMutability":"payable","type":"receive"}],"bytecode":{"object":"60806040526200001a670de0b6b3a764000060001962000227565b620000289060001962000203565b600855600f805462ffffff60a81b19169055670de0b6b3a76400006010553480156200005357600080fd5b50600080546001600160a01b031916339081178255604051909182917f8be0079c531659141344cd1fd0a4f28419497f9722a3daafe3b4186f6b6457e0908290a350600c805473af092ee2ff291e2223f475f791afd6cdeb07e2646001600160a01b03199182168117909255600d8054909116909117905560085460026000620000da3390565b6001600160a01b03166001600160a01b031681526020019081526020016000208190555060016005600062000114620001f460201b60201c565b6001600160a01b03908116825260208083019390935260409182016000908120805495151560ff199687161790553081526005909352818320805485166001908117909155600c54821684528284208054861682179055600d54909116835291208054909216179055620001853390565b6001600160a01b03167306965b0edf9a54bedd13624700a03ccec5f0fba36001600160a01b03167fddf252ad1be2c89b69c2b068fc378daa952ba7f163c4a11628f55a4df523b3ef670de0b6b3a7640000604051620001e691815260200190565b60405180910390a362000248565b6000546001600160a01b031690565b6000828210156200022257634e487b7160e01b81526011600452602481fd5b500390565b6000826200024357634e487b7160e01b81526012600452602481fd5b500690565b611a1780620002586000396000f3fe6080604052600436106101025760003560e01c806370a0823111610095578063a9059cbb11610064578063a9059cbb146102c8578063b515566a146102e8578063c3c8cd8014610308578063c9567bf91461031d578063dd62ed3e1461033257600080fd5b806370a082311461023a578063715018a61461025a5780638da5cb5b1461026f57806395d89b411461029757600080fd5b8063273123b7116100d1578063273123b7146101c7578063313ce567146101e95780635932ead1146102055780636fc3eaec1461022557600080fd5b806306fdde031461010e578063095ea7b31461015257806318160ddd1461018257806323b872dd146101a757600080fd5b3661010957005b600080fd5b34801561011a57600080fd5b5060408051808201909152600981526842616279205265666960b81b60208201525b60405161014991906117e9565b60405180910390f35b34801561015e57600080fd5b5061017261016d366004611692565b610378565b6040519015158152602001610149565b34801561018e57600080fd5b50670de0b6b3a76400005b604051908152602001610149565b3480156101b357600080fd5b506101726101c2366004611652565b61038f565b3480156101d357600080fd5b506101e76101e23660046115e2565b6103f8565b005b3480156101f557600080fd5b5060405160098152602001610149565b34801561021157600080fd5b506101e7610220366004611784565b61044c565b34801561023157600080fd5b506101e7610494565b34801561024657600080fd5b506101996102553660046115e2565b6104c1565b34801561026657600080fd5b506101e76104e3565b34801561027b57600080fd5b506000546040516001600160a01b039091168152602001610149565b3480156102a357600080fd5b50604080518082019091526008815267426162795265666960c01b602082015261013c565b3480156102d457600080fd5b506101726102e3366004611692565b610557565b3480156102f457600080fd5b506101e76103033660046116bd565b610564565b34801561031457600080fd5b506101e7610608565b34801561032957600080fd5b506101e761063e565b34801561033e57600080fd5b5061019961034d36600461161a565b6001600160a01b03918216600090815260046020908152604080832093909416825291909152205490565b60006103853384846109ff565b5060015b92915050565b600061039c848484610b23565b6103ee84336103e9856040518060600160405280602881526020016119ba602891396001600160a01b038a1660009081526004602090815260408083203384529091529020549190610e85565b6109ff565b5060019392505050565b6000546001600160a01b0316331461042b5760405162461bcd60e51b81526004016104229061183c565b60405180910390fd5b6001600160a01b03166000908152600660205260409020805460ff19169055565b6000546001600160a01b031633146104765760405162461bcd60e51b81526004016104229061183c565b600f8054911515600160b81b0260ff60b81b19909216919091179055565b600c546001600160a01b0316336001600160a01b0316146104b457600080fd5b476104be81610ebf565b50565b6001600160a01b03811660009081526002602052604081205461038990610f44565b6000546001600160a01b0316331461050d5760405162461bcd60e51b81526004016104229061183c565b600080546040516001600160a01b03909116907f8be0079c531659141344cd1fd0a4f28419497f9722a3daafe3b4186f6b6457e0908390a3600080546001600160a01b0319169055565b6000610385338484610b23565b6000546001600160a01b0316331461058e5760405162461bcd60e51b81526004016104229061183c565b60005b8151811015610604576001600660008484815181106105c057634e487b7160e01b600052603260045260246000fd5b6020908102919091018101516001600160a01b03168252810191909152604001600020805460ff1916911515919091179055806105fc8161194f565b915050610591565b5050565b600c546001600160a01b0316336001600160a01b03161461062857600080fd5b6000610633306104c1565b90506104be81610fc8565b6000546001600160a01b031633146106685760405162461bcd60e51b81526004016104229061183c565b600f54600160a01b900460ff16156106c25760405162461bcd60e51b815260206004820152601760248201527f74726164696e6720697320616c7265616479206f70656e0000000000000000006044820152606401610422565b600e80546001600160a01b031916737a250d5630b4cf539739df2c5dacb4c659f2488d9081179091556106fe3082670de0b6b3a76400006109ff565b806001600160a01b031663c45a01556040518163ffffffff1660e01b815260040160206040518083038186803b15801561073757600080fd5b505afa15801561074b573d6000803e3d6000fd5b505050506040513d601f19601f8201168201806040525081019061076f91906115fe565b6001600160a01b031663c9c6539630836001600160a01b031663ad5c46486040518163ffffffff1660e01b815260040160206040518083038186803b1580156107b757600080fd5b505afa1580156107cb573d6000803e3d6000fd5b505050506040513d601f19601f820116820180604052508101906107ef91906115fe565b6040516001600160e01b031960e085901b1681526001600160a01b03928316600482015291166024820152604401602060405180830381600087803b15801561083757600080fd5b505af115801561084b573d6000803e3d6000fd5b505050506040513d601f19601f8201168201806040525081019061086f91906115fe565b600f80546001600160a01b0319166001600160a01b03928316179055600e541663f305d719473061089f816104c1565b6000806108b46000546001600160a01b031690565b60405160e088901b6001600160e01b03191681526001600160a01b03958616600482015260248101949094526044840192909252606483015290911660848201524260a482015260c4016060604051808303818588803b15801561091757600080fd5b505af115801561092b573d6000803e3d6000fd5b50505050506040513d601f19601f8201168201806040525081019061095091906117bc565b5050600f8054666a94d74f43000060105563ffff00ff60a01b198116630101000160a01b17909155600e5460405163095ea7b360e01b81526001600160a01b03918216600482015260001960248201529116915063095ea7b390604401602060405180830381600087803b1580156109c757600080fd5b505af11580156109db573d6000803e3d6000fd5b505050506040513d601f19601f8201168201806040525081019061060491906117a0565b6001600160a01b038316610a615760405162461bcd60e51b8152602060048201526024808201527f45524332303a20617070726f76652066726f6d20746865207a65726f206164646044820152637265737360e01b6064820152608401610422565b6001600160a01b038216610ac25760405162461bcd60e51b815260206004820152602260248201527f45524332303a20617070726f766520746f20746865207a65726f206164647265604482015261737360f01b6064820152608401610422565b6001600160a01b0383811660008181526004602090815260408083209487168084529482529182902085905590518481527f8c5be1e5ebec7d5bd14f71427d1e84f3dd0314c0f7b2291e5b200ac8c7c3b925910160405180910390a3505050565b6001600160a01b038316610b875760405162461bcd60e51b815260206004820152602560248201527f45524332303a207472616e736665722066726f6d20746865207a65726f206164604482015264647265737360d81b6064820152608401610422565b6001600160a01b038216610be95760405162461bcd60e51b815260206004820152602360248201527f45524332303a207472616e7366657220746f20746865207a65726f206164647260448201526265737360e81b6064820152608401610422565b60008111610c4b5760405162461bcd60e51b815260206004820152602960248201527f5472616e7366657220616d6f756e74206d7573742062652067726561746572206044820152687468616e207a65726f60b81b6064820152608401610422565b6000600a55600f600b55610c676000546001600160a01b031690565b6001600160a01b0316836001600160a01b031614158015610c9657506000546001600160a01b03838116911614155b15610e75576001600160a01b03831660009081526006602052604090205460ff16158015610cdd57506001600160a01b03821660009081526006602052604090205460ff16155b610ce657600080fd5b600f546001600160a01b038481169116148015610d115750600e546001600160a01b03838116911614155b8015610d3657506001600160a01b03821660009081526005602052604090205460ff16155b8015610d4b5750600f54600160b81b900460ff165b15610da857601054811115610d5f57600080fd5b6001600160a01b0382166000908152600760205260409020544211610d8357600080fd5b610d8e42601e6118e1565b6001600160a01b0383166000908152600760205260409020555b600f546001600160a01b038381169116148015610dd35750600e546001600160a01b03848116911614155b8015610df857506001600160a01b03831660009081526005602052604090205460ff16155b15610e08576000600a55600f600b555b6000610e13306104c1565b600f54909150600160a81b900460ff16158015610e3e5750600f546001600160a01b03858116911614155b8015610e535750600f54600160b01b900460ff165b15610e7357610e6181610fc8565b478015610e7157610e7147610ebf565b505b505b610e8083838361116d565b505050565b60008184841115610ea95760405162461bcd60e51b815260040161042291906117e9565b506000610eb68486611938565b95945050505050565b600c546001600160a01b03166108fc610ed9836002611178565b6040518115909202916000818181858888f19350505050158015610f01573d6000803e3d6000fd5b50600d546001600160a01b03166108fc610f1c836002611178565b6040518115909202916000818181858888f19350505050158015610604573d6000803e3d6000fd5b6000600854821115610fab5760405162461bcd60e51b815260206004820152602a60248201527f416d6f756e74206d757374206265206c657373207468616e20746f74616c207260448201526965666c656374696f6e7360b01b6064820152608401610422565b6000610fb56111ba565b9050610fc18382611178565b9392505050565b600f805460ff60a81b1916600160a81b179055604080516002808252606082018352600092602083019080368337019050509050308160008151811061101e57634e487b7160e01b600052603260045260246000fd5b6001600160a01b03928316602091820292909201810191909152600e54604080516315ab88c960e31b81529051919093169263ad5c4648926004808301939192829003018186803b15801561107257600080fd5b505afa158015611086573d6000803e3d6000fd5b505050506040513d601f19601f820116820180604052508101906110aa91906115fe565b816001815181106110cb57634e487b7160e01b600052603260045260246000fd5b6001600160a01b039283166020918202929092010152600e546110f191309116846109ff565b600e5460405163791ac94760e01b81526001600160a01b039091169063791ac9479061112a908590600090869030904290600401611871565b600060405180830381600087803b15801561114457600080fd5b505af1158015611158573d6000803e3d6000fd5b5050600f805460ff60a81b1916905550505050565b610e808383836111dd565b6000610fc183836040518060400160405280601a81526020017f536166654d6174683a206469766973696f6e206279207a65726f0000000000008152506112d4565b60008060006111c7611302565b90925090506111d68282611178565b9250505090565b6000806000806000806111ef87611342565b6001600160a01b038f16600090815260026020526040902054959b50939950919750955093509150611221908761139f565b6001600160a01b03808b1660009081526002602052604080822093909355908a168152205461125090866113e1565b6001600160a01b03891660009081526002602052604090205561127281611440565b61127c848361148a565b876001600160a01b0316896001600160a01b03167fddf252ad1be2c89b69c2b068fc378daa952ba7f163c4a11628f55a4df523b3ef856040516112c191815260200190565b60405180910390a3505050505050505050565b600081836112f55760405162461bcd60e51b815260040161042291906117e9565b506000610eb684866118f9565b6008546000908190670de0b6b3a764000061131d8282611178565b82101561133957505060085492670de0b6b3a764000092509050565b90939092509050565b600080600080600080600080600061135f8a600a54600b546114ae565b925092509250600061136f6111ba565b905060008060006113828e878787611503565b919e509c509a509598509396509194505050505091939550919395565b6000610fc183836040518060400160405280601e81526020017f536166654d6174683a207375627472616374696f6e206f766572666c6f770000815250610e85565b6000806113ee83856118e1565b905083811015610fc15760405162461bcd60e51b815260206004820152601b60248201527f536166654d6174683a206164646974696f6e206f766572666c6f7700000000006044820152606401610422565b600061144a6111ba565b905060006114588383611553565b3060009081526002602052604090205490915061147590826113e1565b30600090815260026020526040902055505050565b600854611497908361139f565b6008556009546114a790826113e1565b6009555050565b60008080806114c860646114c28989611553565b90611178565b905060006114db60646114c28a89611553565b905060006114f3826114ed8b8661139f565b9061139f565b9992985090965090945050505050565b60008080806115128886611553565b905060006115208887611553565b9050600061152e8888611553565b90506000611540826114ed868661139f565b939b939a50919850919650505050505050565b60008261156257506000610389565b600061156e8385611919565b90508261157b85836118f9565b14610fc15760405162461bcd60e51b815260206004820152602160248201527f536166654d6174683a206d756c7469706c69636174696f6e206f766572666c6f6044820152607760f81b6064820152608401610422565b80356115dd81611996565b919050565b6000602082840312156115f3578081fd5b8135610fc181611996565b60006020828403121561160f578081fd5b8151610fc181611996565b6000806040838503121561162c578081fd5b823561163781611996565b9150602083013561164781611996565b809150509250929050565b600080600060608486031215611666578081fd5b833561167181611996565b9250602084013561168181611996565b929592945050506040919091013590565b600080604083850312156116a4578182fd5b82356116af81611996565b946020939093013593505050565b600060208083850312156116cf578182fd5b823567ffffffffffffffff808211156116e6578384fd5b818501915085601f8301126116f9578384fd5b81358181111561170b5761170b611980565b8060051b604051601f19603f8301168101818110858211171561173057611730611980565b604052828152858101935084860182860187018a101561174e578788fd5b8795505b8386101561177757611763816115d2565b855260019590950194938601938601611752565b5098975050505050505050565b600060208284031215611795578081fd5b8135610fc1816119ab565b6000602082840312156117b1578081fd5b8151610fc1816119ab565b6000806000606084860312156117d0578283fd5b8351925060208401519150604084015190509250925092565b6000602080835283518082850152825b81811015611815578581018301518582016040015282016117f9565b818111156118265783604083870101525b50601f01601f1916929092016040019392505050565b6020808252818101527f4f776e61626c653a2063616c6c6572206973206e6f7420746865206f776e6572604082015260600190565b600060a082018783526020878185015260a0604085015281875180845260c0860191508289019350845b818110156118c05784516001600160a01b03168352938301939183019160010161189b565b50506001600160a01b03969096166060850152505050608001529392505050565b600082198211156118f4576118f461196a565b500190565b60008261191457634e487b7160e01b81526012600452602481fd5b500490565b60008160001904831182151516156119335761193361196a565b500290565b60008282101561194a5761194a61196a565b500390565b60006000198214156119635761196361196a565b5060010190565b634e487b7160e01b600052601160045260246000fd5b634e487b7160e01b600052604160045260246000fd5b6001600160a01b03811681146104be57600080fd5b80151581146104be57600080fdfe45524332303a207472616e7366657220616d6f756e74206578636565647320616c6c6f77616e6365a26469706673582212209804c467e0167334881511f12404dddc5fec8b03b9c385f276ba23b66ad5a0c164736f6c63430008040033"}}