{"compiler":"v0.6.12+commit.27d51765","opcodeHash":"0xeefd3d4a4405261eb8eabed027ce4c92b65a88bd739cbdb81d5c644134c11c20","metalessHash":"0x6a472eaecd0ba26a52eb0df60a8ae14dc0c13e246beba05d64824bc81d64ca37","runtimeHash":"0x0d696d7066b39c8dcc563b701b352a10d3dff8920cd15a0b0620e89ab20f4b2d","encodedMetadata":[{"ipfs":"/ipfs/QmSAbUrDqj8oudokcaxBTCGruSYzf6Toqp6tB7x11zSCcf","solc":"0.6.12"}],"abi":[{"anonymous":false,"inputs":[{"indexed":false,"internalType":"string","name":"reason","type":"string"}],"name":"Error","type":"event"},{"anonymous":false,"inputs":[{"indexed":true,"internalType":"address","name":"previousOwner","type":"address"},{"indexed":true,"internalType":"address","name":"newOwner","type":"address"}],"name":"OwnershipTransferred","type":"event"},{"anonymous":false,"inputs":[{"indexed":false,"internalType":"address","name":"account","type":"address"}],"name":"Paused","type":"event"},{"anonymous":false,"inputs":[{"indexed":true,"internalType":"address","name":"sender","type":"address"},{"indexed":true,"internalType":"contract IERC20","name":"srcToken","type":"address"},{"indexed":true,"internalType":"contract IERC20","name":"dstToken","type":"address"},{"indexed":false,"internalType":"address","name":"dstReceiver","type":"address"},{"indexed":false,"internalType":"uint256","name":"amount","type":"uint256"},{"indexed":false,"internalType":"uint256","name":"spentAmount","type":"uint256"},{"indexed":false,"internalType":"uint256","name":"returnAmount","type":"uint256"},{"indexed":false,"internalType":"uint256","name":"minReturnAmount","type":"uint256"},{"indexed":false,"internalType":"uint256","name":"guaranteedAmount","type":"uint256"},{"indexed":false,"internalType":"address","name":"referrer","type":"address"}],"name":"Swapped","type":"event"},{"anonymous":false,"inputs":[{"indexed":false,"internalType":"address","name":"account","type":"address"}],"name":"Unpaused","type":"event"},{"inputs":[{"internalType":"contract IOneInchCaller","name":"caller","type":"address"},{"components":[{"internalType":"contract IERC20","name":"srcToken","type":"address"},{"internalType":"contract IERC20","name":"dstToken","type":"address"},{"internalType":"address","name":"srcReceiver","type":"address"},{"internalType":"address","name":"dstReceiver","type":"address"},{"internalType":"uint256","name":"amount","type":"uint256"},{"internalType":"uint256","name":"minReturnAmount","type":"uint256"},{"internalType":"uint256","name":"guaranteedAmount","type":"uint256"},{"internalType":"uint256","name":"flags","type":"uint256"},{"internalType":"address","name":"referrer","type":"address"},{"internalType":"bytes","name":"permit","type":"bytes"}],"internalType":"struct OneInczExchange.SwapDescription","name":"desc","type":"tuple"},{"components":[{"internalType":"uint256","name":"targetWithMandatory","type":"uint256"},{"internalType":"uint256","name":"gasLimit","type":"uint256"},{"internalType":"uint256","name":"value","type":"uint256"},{"internalType":"bytes","name":"data","type":"bytes"}],"internalType":"struct IOneInchCaller.CallDescription[]","name":"calls","type":"tuple[]"}],"name":"discountedSwap","outputs":[{"internalType":"uint256","name":"returnAmount","type":"uint256"}],"stateMutability":"payable","type":"function"},{"inputs":[],"name":"owner","outputs":[{"internalType":"address","name":"","type":"address"}],"stateMutability":"view","type":"function"},{"inputs":[],"name":"pause","outputs":[],"stateMutability":"nonpayable","type":"function"},{"inputs":[],"name":"paused","outputs":[{"internalType":"bool","name":"","type":"bool"}],"stateMutability":"view","type":"function"},{"inputs":[],"name":"renounceOwnership","outputs":[],"stateMutability":"nonpayable","type":"function"},{"inputs":[{"internalType":"contract IERC20","name":"token","type":"address"},{"internalType":"uint256","name":"amount","type":"uint256"}],"name":"rescueFunds","outputs":[],"stateMutability":"nonpayable","type":"function"},{"inputs":[{"internalType":"contract IOneInchCaller","name":"caller","type":"address"},{"components":[{"internalType":"contract IERC20","name":"srcToken","type":"address"},{"internalType":"contract IERC20","name":"dstToken","type":"address"},{"internalType":"address","name":"srcReceiver","type":"address"},{"internalType":"address","name":"dstReceiver","type":"address"},{"internalType":"uint256","name":"amount","type":"uint256"},{"internalType":"uint256","name":"minReturnAmount","type":"uint256"},{"internalType":"uint256","name":"guaranteedAmount","type":"uint256"},{"internalType":"uint256","name":"flags","type":"uint256"},{"internalType":"address","name":"referrer","type":"address"},{"internalType":"bytes","name":"permit","type":"bytes"}],"internalType":"struct OneInczExchange.SwapDescription","name":"desc","type":"tuple"},{"components":[{"internalType":"uint256","name":"targetWithMandatory","type":"uint256"},{"internalType":"uint256","name":"gasLimit","type":"uint256"},{"internalType":"uint256","name":"value","type":"uint256"},{"internalType":"bytes","name":"data","type":"bytes"}],"internalType":"struct IOneInchCaller.CallDescription[]","name":"calls","type":"tuple[]"}],"name":"swap","outputs":[{"internalType":"uint256","name":"returnAmount","type":"uint256"}],"stateMutability":"payable","type":"function"},{"inputs":[{"internalType":"address","name":"newOwner","type":"address"}],"name":"transferOwnership","outputs":[],"stateMutability":"nonpayable","type":"function"},{"inputs":[{"internalType":"contract IERC20","name":"token","type":"address"},{"internalType":"address payable","name":"_from","type":"address"},{"internalType":"address payable","name":"to","type":"address"},{"internalType":"uint256","name":"amount","type":"uint256"}],"name":"unibTransfer","outputs":[],"stateMutability":"nonpayable","type":"function"},{"inputs":[{"internalType":"address payable","name":"to","type":"address"},{"internalType":"uint256","name":"amount","type":"uint256"}],"name":"uniddTransfer","outputs":[],"stateMutability":"nonpayable","type":"function"}],"bytecode":{"object":"608060405234801561001057600080fd5b5060006100216100de60201b60201c565b9050806000806101000a81548173ffffffffffffffffffffffffffffffffffffffff021916908373ffffffffffffffffffffffffffffffffffffffff1602179055508073ffffffffffffffffffffffffffffffffffffffff16600073ffffffffffffffffffffffffffffffffffffffff167f8be0079c531659141344cd1fd0a4f28419497f9722a3daafe3b4186f6b6457e060405160405180910390a35060008060146101000a81548160ff0219169083151502179055506100e6565b600033905090565b611ba0806100f56000396000f3fe6080604052600436106100915760003560e01c80638456cb59116100595780638456cb591461015a5780638da5cb5b1461017157806390411a321461019c578063ce704db8146101cc578063f2fde38b146101f557610091565b80630e735b191461009657806334b0793b146100bf5780635c975abb146100ef578063715018a61461011a57806378e3214f14610131575b600080fd5b3480156100a257600080fd5b506100bd60048036038101906100b891906112d6565b61021e565b005b6100d960048036038101906100d49190611403565b6102fe565b6040516100e6919061199b565b60405180910390f35b3480156100fb57600080fd5b5061010461030c565b604051610111919061187e565b60405180910390f35b34801561012657600080fd5b5061012f610322565b005b34801561013d57600080fd5b50610158600480360381019061015391906113c7565b610475565b005b34801561016657600080fd5b5061016f610539565b005b34801561017d57600080fd5b506101866105d8565b6040516101939190611779565b60405180910390f35b6101b660048036038101906101b19190611403565b610601565b6040516101c3919061199b565b60405180910390f35b3480156101d857600080fd5b506101f360048036038101906101ee9190611364565b61084d565b005b34801561020157600080fd5b5061021c600480360381019061021791906112ad565b610978565b005b610226610b3a565b73ffffffffffffffffffffffffffffffffffffffff1660008054906101000a900473ffffffffffffffffffffffffffffffffffffffff1673ffffffffffffffffffffffffffffffffffffffff16146102b3576040517f08c379a00000000000000000000000000000000000000000000000000000000081526004016102aa9061191b565b60405180910390fd5b8173ffffffffffffffffffffffffffffffffffffffff166108fc829081150290604051600060405180830381858888f193505050501580156102f9573d6000803e3d6000fd5b505050565b600060019050949350505050565b60008060149054906101000a900460ff16905090565b61032a610b3a565b73ffffffffffffffffffffffffffffffffffffffff1660008054906101000a900473ffffffffffffffffffffffffffffffffffffffff1673ffffffffffffffffffffffffffffffffffffffff16146103b7576040517f08c379a00000000000000000000000000000000000000000000000000000000081526004016103ae9061191b565b60405180910390fd5b600073ffffffffffffffffffffffffffffffffffffffff1660008054906101000a900473ffffffffffffffffffffffffffffffffffffffff1673ffffffffffffffffffffffffffffffffffffffff167f8be0079c531659141344cd1fd0a4f28419497f9722a3daafe3b4186f6b6457e060405160405180910390a360008060006101000a81548173ffffffffffffffffffffffffffffffffffffffff021916908373ffffffffffffffffffffffffffffffffffffffff160217905550565b61047d610b3a565b73ffffffffffffffffffffffffffffffffffffffff1660008054906101000a900473ffffffffffffffffffffffffffffffffffffffff1673ffffffffffffffffffffffffffffffffffffffff161461050a576040517f08c379a00000000000000000000000000000000000000000000000000000000081526004016105019061191b565b60405180910390fd5b61053533828473ffffffffffffffffffffffffffffffffffffffff16610b429092919063ffffffff16565b5050565b610541610b3a565b73ffffffffffffffffffffffffffffffffffffffff1660008054906101000a900473ffffffffffffffffffffffffffffffffffffffff1673ffffffffffffffffffffffffffffffffffffffff16146105ce576040517f08c379a00000000000000000000000000000000000000000000000000000000081526004016105c59061191b565b60405180910390fd5b6105d6610bd7565b565b60008060009054906101000a900473ffffffffffffffffffffffffffffffffffffffff16905090565b60008060149054906101000a900460ff1615610652576040517f08c379a0000000000000000000000000000000000000000000000000000000008152600401610649906118db565b60405180910390fd5b60008460a0013511610699576040517f08c379a0000000000000000000000000000000000000000000000000000000008152600401610690906118fb565b60405180910390fd5b600083839050116106df576040517f08c379a00000000000000000000000000000000000000000000000000000000081526004016106d69061197b565b60405180910390fd5b60008460e00135905060008560000160208101906106fd919061133b565b90506000866020016020810190610714919061133b565b905060008073ffffffffffffffffffffffffffffffffffffffff1688606001602081019061074291906112ad565b73ffffffffffffffffffffffffffffffffffffffff16146107755787606001602081019061077091906112ad565b610777565b335b905060008060018616141561078d5760006107b7565b6107b6338573ffffffffffffffffffffffffffffffffffffffff16610c8290919063ffffffff16565b5b905060006107e4838573ffffffffffffffffffffffffffffffffffffffff16610c8290919063ffffffff16565b905060008a60800135905061082a8261081c868873ffffffffffffffffffffffffffffffffffffffff16610c8290919063ffffffff16565b610d4390919063ffffffff16565b975061083a8b878787858d610d8d565b6001975050505050505050949350505050565b610855610b3a565b73ffffffffffffffffffffffffffffffffffffffff1660008054906101000a900473ffffffffffffffffffffffffffffffffffffffff1673ffffffffffffffffffffffffffffffffffffffff16146108e2576040517f08c379a00000000000000000000000000000000000000000000000000000000081526004016108d99061191b565b60405180910390fd5b8373ffffffffffffffffffffffffffffffffffffffff166323b872dd8484846040518463ffffffff1660e01b815260040161091f939291906117af565b602060405180830381600087803b15801561093957600080fd5b505af115801561094d573d6000803e3d6000fd5b505050506040513d601f19601f820116820180604052508101906109719190611312565b5050505050565b610980610b3a565b73ffffffffffffffffffffffffffffffffffffffff1660008054906101000a900473ffffffffffffffffffffffffffffffffffffffff1673ffffffffffffffffffffffffffffffffffffffff1614610a0d576040517f08c379a0000000000000000000000000000000000000000000000000000000008152600401610a049061191b565b60405180910390fd5b600073ffffffffffffffffffffffffffffffffffffffff168173ffffffffffffffffffffffffffffffffffffffff161415610a7d576040517f08c379a0000000000000000000000000000000000000000000000000000000008152600401610a74906118bb565b60405180910390fd5b8073ffffffffffffffffffffffffffffffffffffffff1660008054906101000a900473ffffffffffffffffffffffffffffffffffffffff1673ffffffffffffffffffffffffffffffffffffffff167f8be0079c531659141344cd1fd0a4f28419497f9722a3daafe3b4186f6b6457e060405160405180910390a3806000806101000a81548173ffffffffffffffffffffffffffffffffffffffff021916908373ffffffffffffffffffffffffffffffffffffffff16021790555050565b600033905090565b6000811115610bd257610b5483610e3c565b15610ba5578173ffffffffffffffffffffffffffffffffffffffff166108fc829081150290604051600060405180830381858888f19350505050158015610b9f573d6000803e3d6000fd5b50610bd1565b610bd082828573ffffffffffffffffffffffffffffffffffffffff16610ebe9092919063ffffffff16565b5b5b505050565b600060149054906101000a900460ff1615610c27576040517f08c379a0000000000000000000000000000000000000000000000000000000008152600401610c1e906118db565b60405180910390fd5b6001600060146101000a81548160ff0219169083151502179055507f62e78cea01bee320cd4e420270b5ea74000d11b0c9f74754ebdbfc544b05a258610c6b610b3a565b604051610c789190611794565b60405180910390a1565b6000610c8d83610e3c565b15610cb1578173ffffffffffffffffffffffffffffffffffffffff16319050610d3d565b8273ffffffffffffffffffffffffffffffffffffffff166370a08231836040518263ffffffff1660e01b8152600401610cea9190611779565b60206040518083038186803b158015610d0257600080fd5b505afa158015610d16573d6000803e3d6000fd5b505050506040513d601f19601f82011682018060405250810190610d3a9190611487565b90505b92915050565b6000610d8583836040518060400160405280601e81526020017f536166654d6174683a207375627472616374696f6e206f766572666c6f770000815250610f44565b905092915050565b8373ffffffffffffffffffffffffffffffffffffffff168573ffffffffffffffffffffffffffffffffffffffff163373ffffffffffffffffffffffffffffffffffffffff167f76af224a143865a50b41496e1a73622698692c565c1214bc862f18e22d829c5e868a6080013587878d60a001358e60c001358f610100016020810190610e1991906112ad565b604051610e2c979695949392919061180f565b60405180910390a4505050505050565b60008073ffffffffffffffffffffffffffffffffffffffff168273ffffffffffffffffffffffffffffffffffffffff161480610eb7575073eeeeeeeeeeeeeeeeeeeeeeeeeeeeeeeeeeeeeeee73ffffffffffffffffffffffffffffffffffffffff168273ffffffffffffffffffffffffffffffffffffffff16145b9050919050565b610f3f8363a9059cbb60e01b8484604051602401610edd9291906117e6565b604051602081830303815290604052907bffffffffffffffffffffffffffffffffffffffffffffffffffffffff19166020820180517bffffffffffffffffffffffffffffffffffffffffffffffffffffffff8381831617835250505050610f9f565b505050565b6000838311158290610f8c576040517f08c379a0000000000000000000000000000000000000000000000000000000008152600401610f839190611899565b60405180910390fd5b5060008385039050809150509392505050565b6060611001826040518060400160405280602081526020017f5361666545524332303a206c6f772d6c6576656c2063616c6c206661696c65648152508573ffffffffffffffffffffffffffffffffffffffff166110669092919063ffffffff16565b905060008151111561106157808060200190518101906110219190611312565b611060576040517f08c379a00000000000000000000000000000000000000000000000000000000081526004016110579061195b565b60405180910390fd5b5b505050565b6060611075848460008561107e565b90509392505050565b6060611089856111a1565b6110c8576040517f08c379a00000000000000000000000000000000000000000000000000000000081526004016110bf9061193b565b60405180910390fd5b600060608673ffffffffffffffffffffffffffffffffffffffff1685876040516110f29190611762565b60006040518083038185875af1925050503d806000811461112f576040519150601f19603f3d011682016040523d82523d6000602084013e611134565b606091505b50915091508115611149578092505050611199565b60008151111561115c5780518082602001fd5b836040517f08c379a00000000000000000000000000000000000000000000000000000000081526004016111909190611899565b60405180910390fd5b949350505050565b600080823b905060008111915050919050565b6000813590506111c381611ae0565b92915050565b6000813590506111d881611af7565b92915050565b60008083601f8401126111f057600080fd5b8235905067ffffffffffffffff81111561120957600080fd5b60208301915083602082028301111561122157600080fd5b9250929050565b60008151905061123781611b0e565b92915050565b60008135905061124c81611b25565b92915050565b60008135905061126181611b3c565b92915050565b6000610140828403121561127a57600080fd5b81905092915050565b60008135905061129281611b53565b92915050565b6000815190506112a781611b53565b92915050565b6000602082840312156112bf57600080fd5b60006112cd848285016111b4565b91505092915050565b600080604083850312156112e957600080fd5b60006112f7858286016111c9565b925050602061130885828601611283565b9150509250929050565b60006020828403121561132457600080fd5b600061133284828501611228565b91505092915050565b60006020828403121561134d57600080fd5b600061135b8482850161123d565b91505092915050565b6000806000806080858703121561137a57600080fd5b60006113888782880161123d565b9450506020611399878288016111c9565b93505060406113aa878288016111c9565b92505060606113bb87828801611283565b91505092959194509250565b600080604083850312156113da57600080fd5b60006113e88582860161123d565b92505060206113f985828601611283565b9150509250929050565b6000806000806060858703121561141957600080fd5b600061142787828801611252565b945050602085013567ffffffffffffffff81111561144457600080fd5b61145087828801611267565b935050604085013567ffffffffffffffff81111561146d57600080fd5b611479878288016111de565b925092505092959194509250565b60006020828403121561149957600080fd5b60006114a784828501611298565b91505092915050565b6114b981611a66565b82525050565b6114c8816119e8565b82525050565b6114d781611a0c565b82525050565b60006114e8826119b6565b6114f281856119cc565b9350611502818560208601611a9c565b80840191505092915050565b6000611519826119c1565b61152381856119d7565b9350611533818560208601611a9c565b61153c81611acf565b840191505092915050565b60006115546026836119d7565b91507f4f776e61626c653a206e6577206f776e657220697320746865207a65726f206160008301527f64647265737300000000000000000000000000000000000000000000000000006020830152604082019050919050565b60006115ba6010836119d7565b91507f5061757361626c653a20706175736564000000000000000000000000000000006000830152602082019050919050565b60006115fa601a836119d7565b91507f4d696e2072657475726e2073686f756c64206e6f7420626520300000000000006000830152602082019050919050565b600061163a6020836119d7565b91507f4f776e61626c653a2063616c6c6572206973206e6f7420746865206f776e65726000830152602082019050919050565b600061167a601d836119d7565b91507f416464726573733a2063616c6c20746f206e6f6e2d636f6e74726163740000006000830152602082019050919050565b60006116ba602a836119d7565b91507f5361666545524332303a204552433230206f7065726174696f6e20646964206e60008301527f6f742073756363656564000000000000000000000000000000000000000000006020830152604082019050919050565b60006117206016836119d7565b91507f43616c6c20646174612073686f756c64206578697374000000000000000000006000830152602082019050919050565b61175c81611a5c565b82525050565b600061176e82846114dd565b915081905092915050565b600060208201905061178e60008301846114bf565b92915050565b60006020820190506117a960008301846114b0565b92915050565b60006060820190506117c460008301866114b0565b6117d160208301856114b0565b6117de6040830184611753565b949350505050565b60006040820190506117fb60008301856114bf565b6118086020830184611753565b9392505050565b600060e082019050611824600083018a6114bf565b6118316020830189611753565b61183e6040830188611753565b61184b6060830187611753565b6118586080830186611753565b61186560a0830185611753565b61187260c08301846114bf565b98975050505050505050565b600060208201905061189360008301846114ce565b92915050565b600060208201905081810360008301526118b3818461150e565b905092915050565b600060208201905081810360008301526118d481611547565b9050919050565b600060208201905081810360008301526118f4816115ad565b9050919050565b60006020820190508181036000830152611914816115ed565b9050919050565b600060208201905081810360008301526119348161162d565b9050919050565b600060208201905081810360008301526119548161166d565b9050919050565b60006020820190508181036000830152611974816116ad565b9050919050565b6000602082019050818103600083015261199481611713565b9050919050565b60006020820190506119b06000830184611753565b92915050565b600081519050919050565b600081519050919050565b600081905092915050565b600082825260208201905092915050565b60006119f382611a3c565b9050919050565b6000611a0582611a3c565b9050919050565b60008115159050919050565b6000611a23826119e8565b9050919050565b6000611a35826119e8565b9050919050565b600073ffffffffffffffffffffffffffffffffffffffff82169050919050565b6000819050919050565b6000611a7182611a78565b9050919050565b6000611a8382611a8a565b9050919050565b6000611a9582611a3c565b9050919050565b60005b83811015611aba578082015181840152602081019050611a9f565b83811115611ac9576000848401525b50505050565b6000601f19601f8301169050919050565b611ae9816119e8565b8114611af457600080fd5b50565b611b00816119fa565b8114611b0b57600080fd5b50565b611b1781611a0c565b8114611b2257600080fd5b50565b611b2e81611a18565b8114611b3957600080fd5b50565b611b4581611a2a565b8114611b5057600080fd5b50565b611b5c81611a5c565b8114611b6757600080fd5b5056fea26469706673582212209bda227352ba599f8610c2a5100194cc86a8ba0f844ac4c93b28a75aed17c9a264736f6c634300060c0033"}}