{
  "opcodeHash": "0x98b5f64f69dcebd2d0e166e0e047e2175f3cbc78887c53c627a74f148db4fce8",
  "metalessHash": "0xd4050b6aaeaa6a43b71c1378266b9833dab522fd9afb49ac031a52dadbbd1d61",
  "runtimeHash": "0xd5dc5a4fbf11171a1ff2eb25425963d40bc3db6b181fce455d5a018f2ef8c331",
  "encodedMetadata": [
    {
      "ipfs": "/ipfs/QmcfucacDEU9BYRfm45Xp1uqu5JrWKb8ysFGGi5BAVboav",
      "solc": "0.6.12"
    }
  ],
  "abi": [
    {
      "inputs": [
        {
          "internalType": "address",
          "name": "sender",
          "type": "address"
        },
        {
          "components": [
            {
              "internalType": "address",
              "name": "owner",
              "type": "address"
            },
            {
              "internalType": "uint256",
              "name": "number",
              "type": "uint256"
            }
          ],
          "internalType": "struct Account.Info",
          "name": "",
          "type": "tuple"
        },
        {
          "internalType": "bytes",
          "name": "dataToExecuteOn",
          "type": "bytes"
        }
      ],
      "name": "callFunction",
      "outputs": [],
      "stateMutability": "nonpayable",
      "type": "function"
    },
    {
      "inputs": [
        {
          "internalType": "address",
          "name": "receiver",
          "type": "address"
        },
        {
          "internalType": "address",
          "name": "tokenToLoan",
          "type": "address"
        },
        {
          "internalType": "uint256",
          "name": "flashLoanAmount",
          "type": "uint256"
        },
        {
          "internalType": "bytes",
          "name": "dataToExecuteOn",
          "type": "bytes"
        }
      ],
      "name": "getFlashLoan",
      "outputs": [],
      "stateMutability": "nonpayable",
      "type": "function"
    },
    {
      "inputs": [],
      "name": "getPlatform",
      "outputs": [
        {
          "internalType": "address",
          "name": "",
          "type": "address"
        }
      ],
      "stateMutability": "view",
      "type": "function"
    }
  ],
  "bytecode": {
    "object": "608060405234801561001057600080fd5b506112af806100206000396000f3fe608060405234801561001057600080fd5b50600436106100415760003560e01c80632fc1f190146100465780638b418713146100645780639ce4e72e14610079575b600080fd5b61004e61008c565b60405161005b9190610db2565b60405180910390f35b610077610072366004610b99565b6100a4565b005b610077610087366004610b2f565b6101d8565b731e0447b19bb6ecfdae1e4ae1694b0c3659614e4e90565b33731e0447b19bb6ecfdae1e4ae1694b0c3659614e4e146100e05760405162461bcd60e51b81526004016100d790610f56565b60405180910390fd5b6001600160a01b03831630146101085760405162461bcd60e51b81526004016100d79061107e565b610110610995565b818060200190518101906101249190610c42565b905080600001516001600160a01b0316846001600160a01b03161461015b5760405162461bcd60e51b81526004016100d790610f86565b80516020820151604080840151606085015160808601519251637b9b92c360e11b81526001600160a01b039095169463f7372586946101a09490939291600401610df9565b600060405180830381600087803b1580156101ba57600080fd5b505af11580156101ce573d6000803e3d6000fd5b5050505050505050565b60006101f8731e0447b19bb6ecfdae1e4ae1694b0c3659614e4e8561040b565b905060006102058461055c565b6040805160038082526080820190925291925060609190816020015b6102296109d6565b8152602001906001900390816102215790505090506102488386610571565b8160008151811061025557fe5b60200260200101819052506102c06040518060a00160405280896001600160a01b03168152602001886001600160a01b03168152602001878152602001848152602001868152506040516020016102ac9190611183565b6040516020818303038152906040526105fb565b816001815181106102cd57fe5b60200260200101819052506102e28383610669565b816002815181106102ef57fe5b6020908102919091010152604080516001808252818301909252606091816020015b610319610a28565b8152602001906001900390816103115790505090506103366106a4565b8160008151811061034357fe5b60209081029190910101526103766001600160a01b038816731e0447b19bb6ecfdae1e4ae1694b0c3659614e4e856106c4565b60405163a67a6a4560e01b8152731e0447b19bb6ecfdae1e4ae1694b0c3659614e4e9063a67a6a45906103af9084908690600401610e30565b600060405180830381600087803b1580156103c957600080fd5b505af11580156103dd573d6000803e3d6000fd5b506101ce925050506001600160a01b038816731e0447b19bb6ecfdae1e4ae1694b0c3659614e4e60006106c4565b6000808390506000816001600160a01b031663295c39a56040518163ffffffff1660e01b815260040160206040518083038186803b15801561044c57600080fd5b505afa158015610460573d6000803e3d6000fd5b505050506040513d601f19601f820116820180604052508101906104849190610ce5565b90506000805b8281101561053d5760405163062bd3e960e01b81526001600160a01b0385169063062bd3e9906104be9084906004016111d2565b60206040518083038186803b1580156104d657600080fd5b505afa1580156104ea573d6000803e3d6000fd5b505050506040513d601f19601f8201168201806040525081019061050e9190610b13565b9150856001600160a01b0316826001600160a01b0316141561053557935061055692505050565b60010161048a565b5060405162461bcd60e51b81526004016100d79061103a565b92915050565b60006105698260026107c3565b90505b919050565b6105796109d6565b604080516101008101825260018152600060208083018290528351608081018552828152929384019291908201905b81526020016000815260200185815250815260200184815260200160008152602001306001600160a01b031681526020016000815260200160405180602001604052806000815250815250905092915050565b6106036109d6565b6040805161010081018252600881526000602080830182905283516080810185528281529293840192919082019081526020016000815260006020918201819052918352820181905260408201819052306060830152608082015260a001929092525090565b6106716109d6565b604080516101008101825260008082526020808301829052835160808101855260018152929384019291908201906105a8565b6106ac610a28565b50604080518082019091523081526001602082015290565b80158061074c5750604051636eb1769f60e11b81526001600160a01b0384169063dd62ed3e906106fa9030908690600401610dc6565b60206040518083038186803b15801561071257600080fd5b505afa158015610726573d6000803e3d6000fd5b505050506040513d601f19601f8201168201806040525081019061074a9190610ce5565b155b6107685760405162461bcd60e51b81526004016100d79061112d565b6107be8363095ea7b360e01b8484604051602401610787929190610de0565b60408051601f198184030181529190526020810180516001600160e01b03166001600160e01b0319909316929092179091526107ef565b505050565b6000828201838110156107e85760405162461bcd60e51b81526004016100d790610fbd565b9392505050565b6060610844826040518060400160405280602081526020017f5361666545524332303a206c6f772d6c6576656c2063616c6c206661696c6564815250856001600160a01b031661087e9092919063ffffffff16565b8051909150156107be57808060200190518101906108629190610c22565b6107be5760405162461bcd60e51b81526004016100d7906110e3565b606061088d8484600085610895565b949350505050565b6060824710156108b75760405162461bcd60e51b81526004016100d790610ff4565b6108c085610956565b6108dc5760405162461bcd60e51b81526004016100d7906110ac565b60006060866001600160a01b031685876040516108f99190610d96565b60006040518083038185875af1925050503d8060008114610936576040519150601f19603f3d011682016040523d82523d6000602084013e61093b565b606091505b509150915061094b82828661095c565b979650505050505050565b3b151590565b6060831561096b5750816107e8565b82511561097b5782518084602001fd5b8160405162461bcd60e51b81526004016100d79190610f43565b6040518060a0016040528060006001600160a01b0316815260200160006001600160a01b031681526020016000815260200160008152602001606081525090565b6040805161010081018252600080825260208201529081016109f6610a3f565b8152602001600081526020016000815260200160006001600160a01b0316815260200160008152602001606081525090565b604080518082019091526000808252602082015290565b604080516080810190915260008082526020820190815260200160008152602001600081525090565b805161055681611261565b600082601f830112610a83578081fd5b8135610a96610a9182611202565b6111db565b9150808252836020828501011115610aad57600080fd5b8060208401602084013760009082016020015292915050565b600082601f830112610ad6578081fd5b8151610ae4610a9182611202565b9150808252836020828501011115610afb57600080fd5b610b0c816020840160208601611231565b5092915050565b600060208284031215610b24578081fd5b81516107e881611261565b60008060008060808587031215610b44578283fd5b8435610b4f81611261565b93506020850135610b5f81611261565b925060408501359150606085013567ffffffffffffffff811115610b81578182fd5b610b8d87828801610a73565b91505092959194509250565b60008060008385036080811215610bae578384fd5b8435610bb981611261565b93506040601f1982011215610bcc578283fd5b50610bd760406111db565b6020850135610be581611261565b8152604085013560208201529150606084013567ffffffffffffffff811115610c0c578182fd5b610c1886828701610a73565b9150509250925092565b600060208284031215610c33578081fd5b815180151581146107e8578182fd5b600060208284031215610c53578081fd5b815167ffffffffffffffff80821115610c6a578283fd5b9083019060a08286031215610c7d578283fd5b610c8760a06111db565b610c918684610a68565b8152610ca08660208501610a68565b60208201526040830151604082015260608301516060820152608083015182811115610cca578485fd5b610cd687828601610ac6565b60808301525095945050505050565b600060208284031215610cf6578081fd5b5051919050565b80516001600160a01b031682526020908101519082015260400190565b6001600160a01b03169052565b60008151808452610d3f816020860160208601611231565b601f01601f19169290920160200192915050565b60098110610d5d57fe5b9052565b805115158252610d746020820151611226565b6020830152610d866040820151611226565b6040830152606090810151910152565b60008251610da8818460208701611231565b9190910192915050565b6001600160a01b0391909116815260200190565b6001600160a01b0392831681529116602082015260400190565b6001600160a01b03929092168252602082015260400190565b600060018060a01b038616825284602083015283604083015260806060830152610e266080830184610d27565b9695505050505050565b60006040808301818452808651610e4781846111d2565b915060209250828801855b82811015610e7357610e65848351610cfd565b935090840190600101610e52565b5050508481038286015285518082528282019080840283018401888501875b83811015610f3357601f198684030185528151610160610eb3858351610d53565b888201518986015289820151610ecb8b870182610d61565b50606082015160c081818801526080840151915060e0828189015260a08501519250610efb610100890184610d1a565b908401516101208801529092015161014086018290529150610f1f81860183610d27565b968901969450505090860190600101610e92565b50909a9950505050505050505050565b6000602082526107e86020830184610d27565b602080825260169082015275447944783a20596f7520617265206e6f7420536f6c6f60501b604082015260600190565b6020808252601c908201527f447944783a205265636569766572206973206e6f742073656e64657200000000604082015260600190565b6020808252601b908201527f536166654d6174683a206164646974696f6e206f766572666c6f770000000000604082015260600190565b60208082526026908201527f416464726573733a20696e73756666696369656e742062616c616e636520666f6040820152651c8818d85b1b60d21b606082015260800190565b60208082526024908201527f4e6f206d61726b6574496420666f756e6420666f722070726f7669646564207460408201526337b5b2b760e11b606082015260800190565b602080825260149082015273223ca23c1d1024b73b30b634b21031b0b63632b960611b604082015260600190565b6020808252601d908201527f416464726573733a2063616c6c20746f206e6f6e2d636f6e7472616374000000604082015260600190565b6020808252602a908201527f5361666545524332303a204552433230206f7065726174696f6e20646964206e6040820152691bdd081cdd58d8d9595960b21b606082015260800190565b60208082526036908201527f5361666545524332303a20617070726f76652066726f6d206e6f6e2d7a65726f60408201527520746f206e6f6e2d7a65726f20616c6c6f77616e636560501b606082015260800190565b60006020825260018060a01b03808451166020840152806020850151166040840152506040830151606083015260608301516080830152608083015160a08084015261088d60c0840182610d27565b90815260200190565b60405181810167ffffffffffffffff811182821017156111fa57600080fd5b604052919050565b600067ffffffffffffffff821115611218578081fd5b50601f01601f191660200190565b806002811061056c57fe5b60005b8381101561124c578181015183820152602001611234565b8381111561125b576000848401525b50505050565b6001600160a01b038116811461127657600080fd5b5056fea26469706673582212204a9377c60188d349b09cac737a76ca10362e44be225dccd4715ec4d7c3b5507f64736f6c634300060c0033"
  }
}