{
  "opcodeHash": "0x971193978129bdd142547e0c83ba7f74ea67b626d915dcf346903e1e3dd21835",
  "metalessHash": "0x4c63dc135e47ab0609db74bd171f840be7daf3b9730d9bd3b133f43557b528b3",
  "runtimeHash": "0xbc407700e8186bccb0783a2f83d6b5ce0f592003df5e2d92e64e204232ae981b",
  "encodedMetadata": [
    {
      "ipfs": "/ipfs/QmYXz3NCZ7wyTXR9KZgvLdkgdxcKpaZUvr6QNUbfZxsfcM",
      "solc": "0.6.12"
    }
  ],
  "abi": [
    {
      "inputs": [],
      "name": "AAVE_REFERRAL_CODE",
      "outputs": [
        {
          "internalType": "uint16",
          "name": "",
          "type": "uint16"
        }
      ],
      "stateMutability": "view",
      "type": "function"
    },
    {
      "inputs": [],
      "name": "AUTOMATIC_SERVICE_FEE",
      "outputs": [
        {
          "internalType": "uint256",
          "name": "",
          "type": "uint256"
        }
      ],
      "stateMutability": "view",
      "type": "function"
    },
    {
      "inputs": [],
      "name": "BOT_REGISTRY_ADDRESS",
      "outputs": [
        {
          "internalType": "address",
          "name": "",
          "type": "address"
        }
      ],
      "stateMutability": "view",
      "type": "function"
    },
    {
      "inputs": [],
      "name": "DISCOUNT_ADDR",
      "outputs": [
        {
          "internalType": "address",
          "name": "",
          "type": "address"
        }
      ],
      "stateMutability": "view",
      "type": "function"
    },
    {
      "inputs": [],
      "name": "ETH_ADDR",
      "outputs": [
        {
          "internalType": "address",
          "name": "",
          "type": "address"
        }
      ],
      "stateMutability": "view",
      "type": "function"
    },
    {
      "inputs": [],
      "name": "MANUAL_SERVICE_FEE",
      "outputs": [
        {
          "internalType": "uint256",
          "name": "",
          "type": "uint256"
        }
      ],
      "stateMutability": "view",
      "type": "function"
    },
    {
      "inputs": [],
      "name": "NINETY_NINE_PERCENT_WEI",
      "outputs": [
        {
          "internalType": "uint256",
          "name": "",
          "type": "uint256"
        }
      ],
      "stateMutability": "view",
      "type": "function"
    },
    {
      "inputs": [],
      "name": "WALLET_ADDR",
      "outputs": [
        {
          "internalType": "address payable",
          "name": "",
          "type": "address"
        }
      ],
      "stateMutability": "view",
      "type": "function"
    },
    {
      "inputs": [],
      "name": "WETH_ADDRESS",
      "outputs": [
        {
          "internalType": "address",
          "name": "",
          "type": "address"
        }
      ],
      "stateMutability": "view",
      "type": "function"
    },
    {
      "inputs": [
        {
          "internalType": "address",
          "name": "_market",
          "type": "address"
        },
        {
          "internalType": "address[]",
          "name": "_tokens",
          "type": "address[]"
        }
      ],
      "name": "getCollFactors",
      "outputs": [
        {
          "internalType": "uint256[]",
          "name": "collFactors",
          "type": "uint256[]"
        }
      ],
      "stateMutability": "view",
      "type": "function"
    },
    {
      "inputs": [
        {
          "internalType": "address",
          "name": "_market",
          "type": "address"
        },
        {
          "internalType": "address[]",
          "name": "_tokenAddresses",
          "type": "address[]"
        }
      ],
      "name": "getFullTokensInfo",
      "outputs": [
        {
          "components": [
            {
              "internalType": "address",
              "name": "aTokenAddress",
              "type": "address"
            },
            {
              "internalType": "address",
              "name": "underlyingTokenAddress",
              "type": "address"
            },
            {
              "internalType": "uint256",
              "name": "supplyRate",
              "type": "uint256"
            },
            {
              "internalType": "uint256",
              "name": "borrowRateVariable",
              "type": "uint256"
            },
            {
              "internalType": "uint256",
              "name": "borrowRateStable",
              "type": "uint256"
            },
            {
              "internalType": "uint256",
              "name": "totalSupply",
              "type": "uint256"
            },
            {
              "internalType": "uint256",
              "name": "availableLiquidity",
              "type": "uint256"
            },
            {
              "internalType": "uint256",
              "name": "totalBorrow",
              "type": "uint256"
            },
            {
              "internalType": "uint256",
              "name": "collateralFactor",
              "type": "uint256"
            },
            {
              "internalType": "uint256",
              "name": "liquidationRatio",
              "type": "uint256"
            },
            {
              "internalType": "uint256",
              "name": "price",
              "type": "uint256"
            },
            {
              "internalType": "bool",
              "name": "usageAsCollateralEnabled",
              "type": "bool"
            }
          ],
          "internalType": "struct AaveLoanInfoV2.TokenInfoFull[]",
          "name": "tokens",
          "type": "tuple[]"
        }
      ],
      "stateMutability": "view",
      "type": "function"
    },
    {
      "inputs": [
        {
          "internalType": "address",
          "name": "_market",
          "type": "address"
        },
        {
          "internalType": "address",
          "name": "_user",
          "type": "address"
        }
      ],
      "name": "getLoanData",
      "outputs": [
        {
          "components": [
            {
              "internalType": "address",
              "name": "user",
              "type": "address"
            },
            {
              "internalType": "uint128",
              "name": "ratio",
              "type": "uint128"
            },
            {
              "internalType": "address[]",
              "name": "collAddr",
              "type": "address[]"
            },
            {
              "internalType": "address[]",
              "name": "borrowAddr",
              "type": "address[]"
            },
            {
              "internalType": "uint256[]",
              "name": "collAmounts",
              "type": "uint256[]"
            },
            {
              "internalType": "uint256[]",
              "name": "borrowStableAmounts",
              "type": "uint256[]"
            },
            {
              "internalType": "uint256[]",
              "name": "borrowVariableAmounts",
              "type": "uint256[]"
            }
          ],
          "internalType": "struct AaveLoanInfoV2.LoanData",
          "name": "data",
          "type": "tuple"
        }
      ],
      "stateMutability": "view",
      "type": "function"
    },
    {
      "inputs": [
        {
          "internalType": "address",
          "name": "_market",
          "type": "address"
        },
        {
          "internalType": "address[]",
          "name": "_users",
          "type": "address[]"
        }
      ],
      "name": "getLoanDataArr",
      "outputs": [
        {
          "components": [
            {
              "internalType": "address",
              "name": "user",
              "type": "address"
            },
            {
              "internalType": "uint128",
              "name": "ratio",
              "type": "uint128"
            },
            {
              "internalType": "address[]",
              "name": "collAddr",
              "type": "address[]"
            },
            {
              "internalType": "address[]",
              "name": "borrowAddr",
              "type": "address[]"
            },
            {
              "internalType": "uint256[]",
              "name": "collAmounts",
              "type": "uint256[]"
            },
            {
              "internalType": "uint256[]",
              "name": "borrowStableAmounts",
              "type": "uint256[]"
            },
            {
              "internalType": "uint256[]",
              "name": "borrowVariableAmounts",
              "type": "uint256[]"
            }
          ],
          "internalType": "struct AaveLoanInfoV2.LoanData[]",
          "name": "loans",
          "type": "tuple[]"
        }
      ],
      "stateMutability": "view",
      "type": "function"
    },
    {
      "inputs": [
        {
          "internalType": "address",
          "name": "_market",
          "type": "address"
        },
        {
          "internalType": "address[]",
          "name": "_tokens",
          "type": "address[]"
        }
      ],
      "name": "getPrices",
      "outputs": [
        {
          "internalType": "uint256[]",
          "name": "prices",
          "type": "uint256[]"
        }
      ],
      "stateMutability": "view",
      "type": "function"
    },
    {
      "inputs": [
        {
          "internalType": "address",
          "name": "_market",
          "type": "address"
        },
        {
          "internalType": "address",
          "name": "_user",
          "type": "address"
        }
      ],
      "name": "getRatio",
      "outputs": [
        {
          "internalType": "uint256",
          "name": "",
          "type": "uint256"
        }
      ],
      "stateMutability": "view",
      "type": "function"
    },
    {
      "inputs": [
        {
          "internalType": "address",
          "name": "_market",
          "type": "address"
        },
        {
          "internalType": "address[]",
          "name": "_users",
          "type": "address[]"
        }
      ],
      "name": "getRatios",
      "outputs": [
        {
          "internalType": "uint256[]",
          "name": "ratios",
          "type": "uint256[]"
        }
      ],
      "stateMutability": "view",
      "type": "function"
    },
    {
      "inputs": [
        {
          "internalType": "address",
          "name": "_market",
          "type": "address"
        },
        {
          "internalType": "address",
          "name": "_user",
          "type": "address"
        }
      ],
      "name": "getSafetyRatio",
      "outputs": [
        {
          "internalType": "uint256",
          "name": "",
          "type": "uint256"
        }
      ],
      "stateMutability": "view",
      "type": "function"
    },
    {
      "inputs": [
        {
          "internalType": "address",
          "name": "_market",
          "type": "address"
        },
        {
          "internalType": "address",
          "name": "_user",
          "type": "address"
        },
        {
          "internalType": "address[]",
          "name": "_tokens",
          "type": "address[]"
        }
      ],
      "name": "getTokenBalances",
      "outputs": [
        {
          "components": [
            {
              "internalType": "address",
              "name": "token",
              "type": "address"
            },
            {
              "internalType": "uint256",
              "name": "balance",
              "type": "uint256"
            },
            {
              "internalType": "uint256",
              "name": "borrowsStable",
              "type": "uint256"
            },
            {
              "internalType": "uint256",
              "name": "borrowsVariable",
              "type": "uint256"
            },
            {
              "internalType": "bool",
              "name": "enabledAsCollateral",
              "type": "bool"
            }
          ],
          "internalType": "struct AaveLoanInfoV2.UserToken[]",
          "name": "userTokens",
          "type": "tuple[]"
        }
      ],
      "stateMutability": "view",
      "type": "function"
    },
    {
      "inputs": [
        {
          "internalType": "address",
          "name": "_market",
          "type": "address"
        },
        {
          "internalType": "address[]",
          "name": "_tokenAddresses",
          "type": "address[]"
        }
      ],
      "name": "getTokensInfo",
      "outputs": [
        {
          "components": [
            {
              "internalType": "address",
              "name": "aTokenAddress",
              "type": "address"
            },
            {
              "internalType": "address",
              "name": "underlyingTokenAddress",
              "type": "address"
            },
            {
              "internalType": "uint256",
              "name": "collateralFactor",
              "type": "uint256"
            },
            {
              "internalType": "uint256",
              "name": "price",
              "type": "uint256"
            }
          ],
          "internalType": "struct AaveLoanInfoV2.TokenInfo[]",
          "name": "tokens",
          "type": "tuple[]"
        }
      ],
      "stateMutability": "view",
      "type": "function"
    }
  ],
  "bytecode": {
    "object": "608060405234801561001057600080fd5b50612386806100206000396000f3fe608060405234801561001057600080fd5b50600436106101215760003560e01c8063526d6461116100ad578063b4798b6011610071578063b4798b6014610224578063bb18fb6914610244578063d5a6debb14610264578063e297b0a714610277578063eed882311461028a57610121565b8063526d6461146101f15780637753f47b146101f95780637b925ab114610201578063870e44d9146102095780638dd136fd1461021157610121565b80631a2e4cba116100f45780631a2e4cba1461018e5780633613d527146101ae57806344169752146101c157806345f31bba146101c95780634d2ab9dc146101e957610121565b80630370036c14610126578063040141e51461014f57806304c9805c1461016457806305a363de14610179575b600080fd5b610139610134366004611b0e565b6102aa565b604051610146919061229b565b60405180910390f35b6101576103cf565b6040516101469190612057565b61016c6103e7565b60405161014691906122ae565b6101816103ed565b60405161014691906122ca565b6101a161019c366004611b0e565b6103f2565b60405161014691906121cd565b6101396101bc366004611b0e565b610706565b610157610806565b6101dc6101d7366004611a2b565b61081e565b60405161014691906122b7565b61016c610dd2565b610157610dd8565b610157610df0565b610157610e08565b61016c610e20565b61016c61021f366004611a2b565b610e2c565b610237610232366004611b0e565b610e3f565b60405161014691906120f8565b610257610252366004611b0e565b610f60565b6040516101469190612098565b610139610272366004611b0e565b611005565b61016c610285366004611a2b565b611093565b61029d610298366004611aaf565b6111c2565b6040516101469190612230565b606060006102b784611373565b905082516001600160401b03811180156102d057600080fd5b506040519080825280602002602001820160405280156102fa578160200160208202803683370190505b50915060005b83518110156103c757816001600160a01b0316633e15014185838151811061032457fe5b60200260200101516040518263ffffffff1660e01b81526004016103489190612057565b6101406040518083038186803b15801561036157600080fd5b505afa158015610375573d6000803e3d6000fd5b505050506040513d601f19601f820116820180604052508101906103999190611d3f565b50508a519697508a96899650861094506103b4935050505057fe5b6020908102919091010152600101610300565b505092915050565b73c02aaa39b223fe8d0a0e5c4f27ead9083c756cc281565b61014d81565b604081565b606060006103ff84611373565b90506000846001600160a01b031663fca513a86040518163ffffffff1660e01b815260040160206040518083038186803b15801561043c57600080fd5b505afa158015610450573d6000803e3d6000fd5b505050506040513d601f19601f820116820180604052508101906104749190611a0f565b905083516001600160401b038111801561048d57600080fd5b506040519080825280602002602001820160405280156104c757816020015b6104b4611840565b8152602001906001900390816104ac5790505b50925060005b84518110156106fd576000836001600160a01b0316633e1501418784815181106104f357fe5b60200260200101516040518263ffffffff1660e01b81526004016105179190612057565b6101406040518083038186803b15801561053057600080fd5b505afa158015610544573d6000803e3d6000fd5b505050506040513d601f19601f820116820180604052508101906105689190611d3f565b50505050505050509150506000846001600160a01b031663d2493b6c88858151811061059057fe5b60200260200101516040518263ffffffff1660e01b81526004016105b49190612057565b60606040518083038186803b1580156105cc57600080fd5b505afa1580156105e0573d6000803e3d6000fd5b505050506040513d601f19601f820116820180604052508101906106049190611a63565b505090506040518060800160405280826001600160a01b0316815260200188858151811061062e57fe5b60200260200101516001600160a01b03168152602001838152602001856001600160a01b031663b3596f078a878151811061066557fe5b60200260200101516040518263ffffffff1660e01b81526004016106899190612057565b60206040518083038186803b1580156106a157600080fd5b505afa1580156106b5573d6000803e3d6000fd5b505050506040513d601f19601f820116820180604052508101906106d99190611d27565b8152508684815181106106e857fe5b602090810291909101015250506001016104cd565b50505092915050565b60606000836001600160a01b031663fca513a86040518163ffffffff1660e01b815260040160206040518083038186803b15801561074357600080fd5b505afa158015610757573d6000803e3d6000fd5b505050506040513d601f19601f8201168201806040525081019061077b9190611a0f565b604051634e91ecf960e11b81529091506001600160a01b03821690639d23d9f2906107aa908690600401612085565b60006040518083038186803b1580156107c257600080fd5b505afa1580156107d6573d6000803e3d6000fd5b505050506040513d6000823e601f3d908101601f191682016040526107fe9190810190611c98565b949350505050565b73322d58b9e75a6918f7e7849aee0ff09369977e0881565b61082661187a565b600061083184611373565b90506000846001600160a01b031663fca513a86040518163ffffffff1660e01b815260040160206040518083038186803b15801561086e57600080fd5b505afa158015610882573d6000803e3d6000fd5b505050506040513d601f19601f820116820180604052508101906108a69190611a0f565b90506060826001600160a01b031663b316ff896040518163ffffffff1660e01b815260040160006040518083038186803b1580156108e357600080fd5b505afa1580156108f7573d6000803e3d6000fd5b505050506040513d6000823e601f3d908101601f1916820160405261091f9190810190611b5b565b90506040518060e00160405280866001600160a01b0316815260200160006001600160801b0316815260200182516001600160401b038111801561096257600080fd5b5060405190808252806020026020018201604052801561098c578160200160208202803683370190505b50815260200182516001600160401b03811180156109a957600080fd5b506040519080825280602002602001820160405280156109d3578160200160208202803683370190505b50815260200182516001600160401b03811180156109f057600080fd5b50604051908082528060200260200182016040528015610a1a578160200160208202803683370190505b50815260200182516001600160401b0381118015610a3757600080fd5b50604051908082528060200260200182016040528015610a61578160200160208202803683370190505b50815260200182516001600160401b0381118015610a7e57600080fd5b50604051908082528060200260200182016040528015610aa8578160200160208202803683370190505b509052935060008080805b8451816001600160401b03161015610dac57600085826001600160401b031681518110610adc57fe5b602002602001015160200151905060008060008a6001600160a01b03166328dd2d01858f6040518363ffffffff1660e01b8152600401610b1d92919061206b565b6101206040518083038186803b158015610b3657600080fd5b505afa158015610b4a573d6000803e3d6000fd5b505050506040513d601f19601f82011682018060405250810190610b6e9190611ea9565b50505050505092509250925060008a6001600160a01b031663b3596f07866040518263ffffffff1660e01b8152600401610ba89190612057565b60206040518083038186803b158015610bc057600080fd5b505afa158015610bd4573d6000803e3d6000fd5b505050506040513d601f19601f82011682018060405250810190610bf89190611d27565b90508315610c85576000610c0b866113fe565b601203600a0a610c1b868461149e565b029050858e604001518b6001600160401b031681518110610c3857fe5b60200260200101906001600160a01b031690816001600160a01b031681525050808e608001518b6001600160401b031681518110610c7257fe5b6020908102919091010152506001909801975b8215610d10576000610c96866113fe565b601203600a0a610ca6858461149e565b029050858e606001518a6001600160401b031681518110610cc357fe5b60200260200101906001600160a01b031690816001600160a01b031681525050808e60a001518a6001600160401b031681518110610cfd57fe5b6020908102919091010152506001909701965b8115610d9b576000610d21866113fe565b601203600a0a610d31848461149e565b029050858e60600151896001600160401b031681518110610d4e57fe5b60200260200101906001600160a01b031690816001600160a01b031681525050808e60c00151896001600160401b031681518110610d8857fe5b6020908102919091010152506001909601955b505060019093019250610ab3915050565b50610db78989611093565b6001600160801b031660208801525050505050505b92915050565b61019081565b73637726f8b08a7abe3ae3acab01a80e2d8ddef77b81565b73eeeeeeeeeeeeeeeeeeeeeeeeeeeeeeeeeeeeeeee81565b731b14e8d511c9a4395425314f849bd737baf8208f81565b670dbd2fc137a3000081565b6000610e388383611093565b9392505050565b60606000610e4c84611373565b90506000846001600160a01b031663fca513a86040518163ffffffff1660e01b815260040160206040518083038186803b158015610e8957600080fd5b505afa158015610e9d573d6000803e3d6000fd5b505050506040513d601f19601f82011682018060405250810190610ec19190611a0f565b905083516001600160401b0381118015610eda57600080fd5b50604051908082528060200260200182016040528015610f1457816020015b610f016118c9565b815260200190600190039081610ef95790505b50925060005b84518110156106fd57610f418383878481518110610f3457fe5b60200260200101516114d7565b848281518110610f4d57fe5b6020908102919091010152600101610f1a565b606081516001600160401b0381118015610f7957600080fd5b50604051908082528060200260200182016040528015610fb357816020015b610fa061187a565b815260200190600190039081610f985790505b50905060005b8251811015610ffe57610fdf84848381518110610fd257fe5b602002602001015161081e565b828281518110610feb57fe5b6020908102919091010152600101610fb9565b5092915050565b606081516001600160401b038111801561101e57600080fd5b50604051908082528060200260200182016040528015611048578160200160208202803683370190505b50905060005b8251811015610ffe576110748484838151811061106757fe5b6020026020010151611093565b82828151811061108057fe5b602090810291909101015260010161104e565b600080836001600160a01b0316630261bf8b6040518163ffffffff1660e01b815260040160206040518083038186803b1580156110cf57600080fd5b505afa1580156110e3573d6000803e3d6000fd5b505050506040513d601f19601f820116820180604052508101906111079190611a0f565b9050600080826001600160a01b031663bf92857c866040518263ffffffff1660e01b81526004016111389190612057565b60c06040518083038186803b15801561115057600080fd5b505afa158015611164573d6000803e3d6000fd5b505050506040513d601f19601f820116820180604052508101906111889190611de5565b505050925092505081600014156111a55760009350505050610dcc565b6111b86111b283836117ec565b836117fc565b9695505050505050565b606060006111cf85611373565b905082516001600160401b03811180156111e857600080fd5b5060405190808252806020026020018201604052801561122257816020015b61120f61193e565b8152602001906001900390816112075790505b50915060005b835181101561136a57600084828151811061123f57fe5b602002602001015190508084838151811061125657fe5b60209081029190910101516001600160a01b0391821690526040516328dd2d0160e01b8152908416906328dd2d01906112959084908a9060040161206b565b6101206040518083038186803b1580156112ae57600080fd5b505afa1580156112c2573d6000803e3d6000fd5b505050506040513d601f19601f820116820180604052508101906112e69190611ea9565b8c519095508c94508a9350831091506112fd905057fe5b602002602001015160200188878151811061131457fe5b602002602001015160400189888151811061132b57fe5b60200260200101516060018a898151811061134257fe5b6020908102919091010151931515608090940193909352929091529190525250600101611228565b50509392505050565b6040516321f8a72160e01b81526000906001600160a01b038316906321f8a721906113a690600160f81b906004016122ae565b60206040518083038186803b1580156113be57600080fd5b505afa1580156113d2573d6000803e3d6000fd5b505050506040513d601f19601f820116820180604052508101906113f69190611a0f565b90505b919050565b60006001600160a01b03821673eeeeeeeeeeeeeeeeeeeeeeeeeeeeeeeeeeeeeeee141561142d575060126113f9565b816001600160a01b031663313ce5676040518163ffffffff1660e01b815260040160206040518083038186803b15801561146657600080fd5b505afa15801561147a573d6000803e3d6000fd5b505050506040513d601f19601f820116820180604052508101906113f69190611d27565b6000670de0b6b3a76400006114c86114b6858561181c565b6002670de0b6b3a76400005b046117ec565b816114cf57fe5b049392505050565b6114df6118c9565b6000806000866001600160a01b0316633e150141866040518263ffffffff1660e01b81526004016115109190612057565b6101406040518083038186803b15801561152957600080fd5b505afa15801561153d573d6000803e3d6000fd5b505050506040513d601f19601f820116820180604052508101906115619190611d3f565b505050509550505093509350506000806000806000808c6001600160a01b03166335ea6a758c6040518263ffffffff1660e01b81526004016115a39190612057565b6101406040518083038186803b1580156115bc57600080fd5b505afa1580156115d0573d6000803e3d6000fd5b505050506040513d601f19601f820116820180604052508101906115f49190611e2e565b5050505095509550955095509550955060008d6001600160a01b031663d2493b6c8d6040518263ffffffff1660e01b81526004016116329190612057565b60606040518083038186803b15801561164a57600080fd5b505afa15801561165e573d6000803e3d6000fd5b505050506040513d601f19601f820116820180604052508101906116829190611a63565b50509050604051806101800160405280826001600160a01b031681526020018d6001600160a01b03168152602001858152602001848152602001838152602001826001600160a01b03166318160ddd6040518163ffffffff1660e01b815260040160206040518083038186803b1580156116fb57600080fd5b505afa15801561170f573d6000803e3d6000fd5b505050506040513d601f19601f820116820180604052508101906117339190611d27565b815260200188815260200187870181526020018b81526020018a81526020018e6001600160a01b031663b3596f078f6040518263ffffffff1660e01b815260040161177e9190612057565b60206040518083038186803b15801561179657600080fd5b505afa1580156117aa573d6000803e3d6000fd5b505050506040513d601f19601f820116820180604052508101906117ce9190611d27565b81526020018915158152509a50505050505050505050509392505050565b80820182811015610dcc57600080fd5b6000816114c861181485670de0b6b3a764000061181c565b6002856114c2565b60008115806118375750508082028282828161183457fe5b04145b610dcc57600080fd5b604051806080016040528060006001600160a01b0316815260200160006001600160a01b0316815260200160008152602001600081525090565b6040518060e0016040528060006001600160a01b0316815260200160006001600160801b0316815260200160608152602001606081526020016060815260200160608152602001606081525090565b60405180610180016040528060006001600160a01b0316815260200160006001600160a01b031681526020016000815260200160008152602001600081526020016000815260200160008152602001600081526020016000815260200160008152602001600081526020016000151581525090565b6040518060a0016040528060006001600160a01b031681526020016000815260200160008152602001600081526020016000151581525090565b8051610dcc8161232a565b600082601f830112611993578081fd5b81356119a66119a1826122ff565b6122d9565b8181529150602080830190848101818402860182018710156119c757600080fd5b60005b848110156119ef5781356119dd8161232a565b845292820192908201906001016119ca565b505050505092915050565b805164ffffffffff81168114610dcc57600080fd5b600060208284031215611a20578081fd5b8151610e388161232a565b60008060408385031215611a3d578081fd5b8235611a488161232a565b91506020830135611a588161232a565b809150509250929050565b600080600060608486031215611a77578081fd5b8351611a828161232a565b6020850151909350611a938161232a565b6040850151909250611aa48161232a565b809150509250925092565b600080600060608486031215611ac3578283fd5b8335611ace8161232a565b92506020840135611ade8161232a565b915060408401356001600160401b03811115611af8578182fd5b611b0486828701611983565b9150509250925092565b60008060408385031215611b20578182fd5b8235611b2b8161232a565b915060208301356001600160401b03811115611b45578182fd5b611b5185828601611983565b9150509250929050565b60006020808385031215611b6d578182fd5b82516001600160401b0380821115611b83578384fd5b818501915085601f830112611b96578384fd5b8151611ba46119a1826122ff565b81815284810190848601875b84811015611c895781518701601f196040828e0382011215611bd0578a8bfd5b611bda60406122d9565b8a83015189811115611bea578c8dfd5b8301603f81018f13611bfa578c8dfd5b8b8101518a811115611c0a578d8efd5b611c1a8d85601f840116016122d9565b93508084528f6040828401011115611c30578d8efd5b8d5b81811015611c4e57828101604001518582018f01528d01611c32565b81811115611c5e578e8e83870101525b505050818152611c718e60408501611978565b818c0152865250509287019290870190600101611bb0565b50909998505050505050505050565b60006020808385031215611caa578182fd5b82516001600160401b03811115611cbf578283fd5b8301601f81018513611ccf578283fd5b8051611cdd6119a1826122ff565b8181528381019083850185840285018601891015611cf9578687fd5b8694505b83851015611d1b578051835260019490940193918501918501611cfd565b50979650505050505050565b600060208284031215611d38578081fd5b5051919050565b6000806000806000806000806000806101408b8d031215611d5e578586fd5b8a51995060208b0151985060408b0151975060608b0151965060808b0151955060a08b0151611d8c81612342565b60c08c0151909550611d9d81612342565b60e08c0151909450611dae81612342565b6101008c0151909350611dc081612342565b6101208c0151909250611dd281612342565b809150509295989b9194979a5092959850565b60008060008060008060c08789031215611dfd578384fd5b865195506020870151945060408701519350606087015192506080870151915060a087015190509295509295509295565b6000806000806000806000806000806101408b8d031215611e4d578384fd5b8a51995060208b0151985060408b0151975060608b0151965060808b0151955060a08b0151945060c08b0151935060e08b015192506101008b01519150611e988c6101208d016119fa565b90509295989b9194979a5092959850565b60008060008060008060008060006101208a8c031215611ec7578283fd5b8951985060208a0151975060408a0151965060608a0151955060808a0151945060a08a0151935060c08a01519250611f028b60e08c016119fa565b91506101008a01518015158114611f17578182fd5b809150509295985092959850929598565b6001600160a01b03169052565b6000815180845260208085019450808401835b83811015611f6d5781516001600160a01b031687529582019590820190600101611f48565b509495945050505050565b6000815180845260208085019450808401835b83811015611f6d57815187529582019590820190600101611f8b565b15159052565b600060018060a01b0382511683526001600160801b036020830151166020840152604082015160e06040850152611fe760e0850182611f35565b9050606083015184820360608601526120008282611f35565b9150506080830151848203608086015261201a8282611f78565b91505060a083015184820360a08601526120348282611f78565b91505060c083015184820360c086015261204e8282611f78565b95945050505050565b6001600160a01b0391909116815260200190565b6001600160a01b0392831681529116602082015260400190565b600060208252610e386020830184611f35565b6000602080830181845280855180835260408601915060408482028701019250838701855b828110156120eb57603f198886030184526120d9858351611fad565b945092850192908501906001016120bd565b5092979650505050505050565b602080825282518282018190526000919060409081850190868401855b828110156121c057815161212a858251611f28565b8681015161213a88870182611f28565b508086015185870152606080820151908601526080808201519086015260a0808201519086015260c0808201519086015260e0808201519086015261010080820151908601526101208082015190860152610140808201519086015261016090810151906121aa81870183611fa7565b5050610180939093019290850190600101612115565b5091979650505050505050565b602080825282518282018190526000919060409081850190868401855b828110156121c057815180516001600160a01b039081168652878201511687860152858101518686015260609081015190850152608090930192908501906001016121ea565b602080825282518282018190526000919060409081850190868401855b828110156121c0578151612261815161231e565b8552808701518786015285810151868601526060808201519086015260809081015115159085015260a0909301929085019060010161224d565b600060208252610e386020830184611f78565b90815260200190565b600060208252610e386020830184611fad565b61ffff91909116815260200190565b6040518181016001600160401b03811182821017156122f757600080fd5b604052919050565b60006001600160401b03821115612314578081fd5b5060209081020190565b6001600160a01b031690565b6001600160a01b038116811461233f57600080fd5b50565b801515811461233f57600080fdfea264697066735822122055d3a9ff7ec5e4f1bc860a363ba6332e9070c5fc7b20c292ef684e2c143a0e2764736f6c634300060c0033"
  }
}