{
  "opcodeHash": "0x7d0fddeb540d1facc1eb4bf1f4ee24f14786c2ba0b56daa6f23fd6d370b70309",
  "metalessHash": "0x9a64f1f459167e99dae10b6aa04671902387b7036a80eec64d0171b3f0d4e964",
  "runtimeHash": "0xdb7ffecc282c0c368925fbf2d4e63ae63baa9b031b9b4f367791c6d2ed01856a",
  "encodedMetadata": [
    {
      "ipfs": "/ipfs/QmaHePFSR5ciErkzjGSf8CB7DVi5mUGPqRtgLbXeZDxGrh",
      "solc": "0.6.12"
    }
  ],
  "abi": [
    {
      "inputs": [],
      "stateMutability": "nonpayable",
      "type": "constructor"
    },
    {
      "inputs": [],
      "name": "Amplifier",
      "outputs": [
        {
          "internalType": "uint256",
          "name": "",
          "type": "uint256"
        }
      ],
      "stateMutability": "view",
      "type": "function"
    },
    {
      "inputs": [
        {
          "internalType": "uint256",
          "name": "",
          "type": "uint256"
        },
        {
          "internalType": "uint256",
          "name": "",
          "type": "uint256"
        }
      ],
      "name": "CDF",
      "outputs": [
        {
          "internalType": "uint32",
          "name": "",
          "type": "uint32"
        }
      ],
      "stateMutability": "view",
      "type": "function"
    },
    {
      "inputs": [
        {
          "internalType": "uint256",
          "name": "",
          "type": "uint256"
        }
      ],
      "name": "Durations",
      "outputs": [
        {
          "internalType": "uint32",
          "name": "",
          "type": "uint32"
        }
      ],
      "stateMutability": "view",
      "type": "function"
    },
    {
      "inputs": [],
      "name": "numDurations",
      "outputs": [
        {
          "internalType": "uint256",
          "name": "",
          "type": "uint256"
        }
      ],
      "stateMutability": "view",
      "type": "function"
    }
  ],
  "bytecode": {
    "object": "608060405260405180610140016040528061012c62ffffff16815260200161038462ffffff16815260200161070862ffffff168152602001610e1062ffffff1681526020016201518062ffffff1681526020016212750062ffffff16815260200162278d0062ffffff168152602001624f1a0062ffffff1681526020016276a70062ffffff16815260200162ed4e0062ffffff16815250600190600a6100a6929190611b62565b50604051806105200160405280600062ffffff16815260200161f05262ffffff1681526020016201e0a562ffffff1681526020016202d0f862ffffff1681526020016203c14b62ffffff1681526020016204b19e62ffffff1681526020016205a1f162ffffff1681526020016206924462ffffff1681526020016207829762ffffff168152602001620872ea62ffffff1681526020016209633d62ffffff168152602001620a539062ffffff168152602001620b43e362ffffff168152602001620c343662ffffff168152602001620d248962ffffff168152602001620e14dc62ffffff168152602001620f052f62ffffff168152602001620ff58262ffffff1681526020016210e5d562ffffff1681526020016211d62862ffffff1681526020016212c67b62ffffff1681526020016213b6ce62ffffff1681526020016214a72162ffffff1681526020016215977362ffffff168152602001621687c662ffffff1681526020016217781962ffffff1681526020016218686c62ffffff168152602001621958bf62ffffff168152602001621a491262ffffff168152602001621b396562ffffff168152602001621c29b762ffffff168152602001621d1a0a62ffffff168152602001621e0a5d62ffffff168152602001621efab062ffffff168152602001621feb0362ffffff1681526020016220db5562ffffff1681526020016221cba862ffffff1681526020016222bbfb62ffffff1681526020016223ac4e62ffffff16815260200162249ca062ffffff16815260200162258cf362ffffff1681525060029060296102fc929190611c11565b50604051806105200160405280600062ffffff1681526020016201a04062ffffff1681526020016203408162ffffff1681526020016204e0c262ffffff1681526020016206810362ffffff1681526020016208214462ffffff1681526020016209c18562ffffff168152602001620b61c662ffffff168152602001620d020762ffffff168152602001620ea24862ffffff1681526020016210428962ffffff1681526020016211e2c962ffffff1681526020016213830a62ffffff1681526020016215234b62ffffff1681526020016216c38c62ffffff168152602001621863cc62ffffff168152602001621a040d62ffffff168152602001621ba44e62ffffff168152602001621d448e62ffffff168152602001621ee4cf62ffffff1681526020016220851062ffffff1681526020016222255062ffffff1681526020016223c59162ffffff168152602001622565d162ffffff1681526020016227061262ffffff1681526020016228a65262ffffff168152602001622a469262ffffff168152602001622be6d362ffffff168152602001622d871362ffffff168152602001622f275362ffffff1681526020016230c79362ffffff168152602001623267d362ffffff1681526020016234081362ffffff1681526020016235a85362ffffff1681526020016237489362ffffff1681526020016238e8d362ffffff168152602001623a891262ffffff168152602001623c295262ffffff168152602001623dc99262ffffff168152602001623f69d162ffffff16815260200162410a1162ffffff168152506003906029610553929190611c11565b50604051806105200160405280600062ffffff16815260200162024cab62ffffff1681526020016204995762ffffff1681526020016206e60362ffffff168152602001620932af62ffffff168152602001620b7f5b62ffffff168152602001620dcc0762ffffff168152602001621018b362ffffff1681526020016212655e62ffffff1681526020016214b20a62ffffff1681526020016216feb662ffffff16815260200162194b6162ffffff168152602001621b980d62ffffff168152602001621de4b862ffffff1681526020016220316462ffffff16815260200162227e0f62ffffff1681526020016224cabb62ffffff1681526020016227176662ffffff1681526020016229641162ffffff168152602001622bb0bc62ffffff168152602001622dfd6762ffffff16815260200162304a1262ffffff168152602001623296bc62ffffff1681526020016234e36762ffffff1681526020016237301162ffffff16815260200162397cbb62ffffff168152602001623bc96662ffffff168152602001623e161062ffffff168152602001624062ba62ffffff1681526020016242af6362ffffff1681526020016244fc0d62ffffff168152602001624748b662ffffff1681526020016249956062ffffff168152602001624be20962ffffff168152602001624e2eb262ffffff16815260200162507b5a62ffffff1681526020016252c80362ffffff168152602001625514ab62ffffff1681526020016257615362ffffff1681526020016259adfb62ffffff168152602001625bfaa362ffffff1681525060049060296107aa929190611c11565b50604051806105200160405280600062ffffff1681526020016203408162ffffff1681526020016206810362ffffff1681526020016209c18562ffffff168152602001620d020762ffffff1681526020016210428962ffffff1681526020016213830a62ffffff1681526020016216c38c62ffffff168152602001621a040d62ffffff168152602001621d448e62ffffff1681526020016220851062ffffff1681526020016223c59162ffffff1681526020016227061262ffffff168152602001622a469262ffffff168152602001622d871362ffffff1681526020016230c79362ffffff1681526020016234081362ffffff1681526020016237489362ffffff168152602001623a891262ffffff168152602001623dc99262ffffff16815260200162410a1162ffffff16815260200162444a8f62ffffff16815260200162478b0e62ffffff168152602001624acb8c62ffffff168152602001624e0c0962ffffff16815260200162514c8762ffffff16815260200162548d0462ffffff1681526020016257cd8062ffffff168152602001625b0dfc62ffffff168152602001625e4e7862ffffff16815260200162618ef362ffffff1681526020016264cf6e62ffffff16815260200162680fe862ffffff168152602001626b506262ffffff168152602001626e90db62ffffff1681526020016271d15462ffffff168152602001627511cd62ffffff1681526020016278524462ffffff168152602001627b92bb62ffffff168152602001627ed33262ffffff168152602001628213a862ffffff168152506005906029610a01929190611c11565b50604051806105200160405280600063ffffffff168152602001620fee6f63ffffffff168152602001621fdcdc63ffffffff168152602001622fcb4663ffffffff168152602001623fb9ab63ffffffff168152602001624fa80963ffffffff168152602001625f965d63ffffffff168152602001626f84a763ffffffff168152602001627f72e463ffffffff168152602001628f611363ffffffff168152602001629f4f3263ffffffff16815260200162af3d3f63ffffffff16815260200162bf2b3963ffffffff16815260200162cf191d63ffffffff16815260200162df06e963ffffffff16815260200162eef49d63ffffffff16815260200162fee23663ffffffff16815260200163010ecfb263ffffffff16815260200163011ebd1063ffffffff16815260200163012eaa4e63ffffffff16815260200163013e976963ffffffff16815260200163014e846163ffffffff16815260200163015e713463ffffffff16815260200163016e5ddf63ffffffff16815260200163017e4a6163ffffffff16815260200163018e36b863ffffffff16815260200163019e22e363ffffffff1681526020016301ae0edf63ffffffff1681526020016301bdfaaa63ffffffff1681526020016301cde64463ffffffff1681526020016301ddd1aa63ffffffff1681526020016301edbcdb63ffffffff1681526020016301fda7d463ffffffff16815260200163020d929363ffffffff16815260200163021d7d1863ffffffff16815260200163022d676063ffffffff16815260200163023d516a63ffffffff16815260200163024d3b3363ffffffff16815260200163025d24bb63ffffffff16815260200163026d0dfe63ffffffff16815260200163027cf6fc63ffffffff168152506006906029610c99929190611cc0565b50604051806105200160405280600063ffffffff168152602001623b9c0c63ffffffff168152602001627737bb63ffffffff16815260200162b2d2af63ffffffff16815260200162ee6c8a63ffffffff16815260200163012a04ef63ffffffff1681526020016301659b7f63ffffffff1681526020016301a12fdd63ffffffff1681526020016301dcc1ad63ffffffff168152602001630218509063ffffffff168152602001630253dc2963ffffffff16815260200163028f641a63ffffffff1681526020016302cae80763ffffffff168152602001630306679263ffffffff168152602001630341e25d63ffffffff16815260200163037d580d63ffffffff1681526020016303b8c84463ffffffff1681526020016303f432a563ffffffff16815260200163042f96d463ffffffff16815260200163046af47363ffffffff1681526020016304a64b2763ffffffff1681526020016304e19a9263ffffffff16815260200163051ce25a63ffffffff168152602001630558222163ffffffff168152602001630593598b63ffffffff1681526020016305ce883d63ffffffff168152602001630609addc63ffffffff168152602001630644ca0b63ffffffff16815260200163067fdc7063ffffffff1681526020016306bae4af63ffffffff1681526020016306f5e26e63ffffffff168152602001630730d55163ffffffff16815260200163076bbcfe63ffffffff1681526020016307a6991b63ffffffff1681526020016307e1694e63ffffffff16815260200163081c2d3c63ffffffff168152602001630856e48c63ffffffff1681526020016308918ee563ffffffff1681526020016308cc2bed63ffffffff168152602001630906bb4c63ffffffff1681526020016309413ca863ffffffff168152506007906029610f3d929190611cc0565b50604051806105200160405280600063ffffffff1681526020016257425263ffffffff16815260200162ae838063ffffffff168152602001630105c26163ffffffff16815260200163015cfdd263ffffffff1681526020016301b434ac63ffffffff16815260200163020b65ca63ffffffff168152602001630262900763ffffffff1681526020016302b9b23f63ffffffff168152602001630310cb4c63ffffffff168152602001630367da0b63ffffffff1681526020016303bedd5763ffffffff168152602001630415d40f63ffffffff16815260200163046cbd0e63ffffffff1681526020016304c3973363ffffffff16815260200163051a615c63ffffffff1681526020016305711a6763ffffffff1681526020016305c7c13663ffffffff16815260200163061e54a763ffffffff168152602001630674d39c63ffffffff1681526020016306cb3cf863ffffffff1681526020016307218f9c63ffffffff168152602001630777ca6d63ffffffff1681526020016307cdec4e63ffffffff168152602001630823f42763ffffffff168152602001630879e0dc63ffffffff1681526020016308cfb15763ffffffff168152602001630925647f63ffffffff16815260200163097af93f63ffffffff1681526020016309d06e8163ffffffff168152602001630a25c33263ffffffff168152602001630a7af64063ffffffff168152602001630ad0069963ffffffff168152602001630b24f32d63ffffffff168152602001630b79baef63ffffffff168152602001630bce5cd163ffffffff168152602001630c22d7c863ffffffff168152602001630c772aca63ffffffff168152602001630ccb54ce63ffffffff168152602001630d1f54cd63ffffffff168152602001630d7329c363ffffffff1681525060089060296111e3929190611cc0565b50604051806105200160405280600063ffffffff168152602001627b66e363ffffffff16815260200162f6ca8863ffffffff16815260200163017227b063ffffffff1681526020016301ed7b1c63ffffffff168152602001630268c18f63ffffffff1681526020016302e3f7ce63ffffffff16815260200163035f1a9c63ffffffff1681526020016303da26c163ffffffff168152602001630455190463ffffffff1681526020016304cfee3163ffffffff16815260200163054aa31363ffffffff1681526020016305c5347b63ffffffff16815260200163063f9f3963ffffffff1681526020016306b9e02463ffffffff168152602001630733f41263ffffffff1681526020016307add7e163ffffffff168152602001630827887063ffffffff1681526020016308a102a163ffffffff16815260200163091a435e63ffffffff168152602001630993479263ffffffff168152602001630a0c0c2f63ffffffff168152602001630a848e2a63ffffffff168152602001630afcca7e63ffffffff168152602001630b74be2d63ffffffff168152602001630bec663c63ffffffff168152602001630c63bfb763ffffffff168152602001630cdac7b163ffffffff168152602001630d517b4263ffffffff168152602001630dc7d78963ffffffff168152602001630e3dd9ab63ffffffff168152602001630eb37ed563ffffffff168152602001630f28c43a63ffffffff168152602001630f9da71663ffffffff16815260200163101224aa63ffffffff1681526020016310863a4263ffffffff1681526020016310f9e52e63ffffffff16815260200163116d22c963ffffffff1681526020016311dff07663ffffffff1681526020016312524b9e63ffffffff1681526020016312c431b663ffffffff168152506009906029611489929190611cc0565b50604051806105200160405280600063ffffffff1681526020016297227363ffffffff16815260200163012e3eef63ffffffff1681526020016301c54f8063ffffffff16815260200163025c4e3163ffffffff1681526020016302f3351063ffffffff168152602001630389fe2d63ffffffff168152602001630420a39e63ffffffff1681526020016304b71f7a63ffffffff16815260200163054d6bde63ffffffff1681526020016305e382ef63ffffffff1681526020016306795ed563ffffffff16815260200163070ef9c063ffffffff1681526020016307a44de963ffffffff168152602001630839558f63ffffffff1681526020016308ce0afc63ffffffff168152602001630962688363ffffffff1681526020016309f6688063ffffffff168152602001630a8a055c63ffffffff168152602001630b1d398a63ffffffff168152602001630bafff8a63ffffffff168152602001630c4251e963ffffffff168152602001630cd42b4063ffffffff168152602001630d65863863ffffffff168152602001630df65d8763ffffffff168152602001630e86abf263ffffffff168152602001630f166c5063ffffffff168152602001630fa5998663ffffffff1681526020016310342e8a63ffffffff1681526020016310c2266463ffffffff16815260200163114f7c2f63ffffffff1681526020016311dc2b1563ffffffff1681526020016312682e5763ffffffff1681526020016312f3814563ffffffff16815260200163137e1f4663ffffffff16815260200163140803d563ffffffff1681526020016314912a8063ffffffff1681526020016315198eea63ffffffff1681526020016315a12cce63ffffffff168152602001631627fffb63ffffffff1681526020016316ae045563ffffffff16815250600a906029611730929190611cc0565b50604051806105200160405280600063ffffffff16815260200162d5bb2763ffffffff1681526020016301ab657163ffffffff168152602001630280ee0763ffffffff168152602001630356441763ffffffff16815260200163042b56dd63ffffffff16815260200163050015a563ffffffff1681526020016305d46fcd63ffffffff1681526020016306a854cc63ffffffff16815260200163077bb43563ffffffff16815260200163084e7dba63ffffffff168152602001630920a13063ffffffff1681526020016309f20e9263ffffffff168152602001630ac2b60863ffffffff168152602001630b9287e563ffffffff168152602001630c6174b163ffffffff168152602001630d2f6d2763ffffffff168152602001630dfc623a63ffffffff168152602001630ec8451b63ffffffff168152602001630f93073763ffffffff16815260200163105c9a4163ffffffff168152602001631124f02e63ffffffff1681526020016311ebfb3b63ffffffff1681526020016312b1adf163ffffffff168152602001631375fb2663ffffffff168152602001631438d60063ffffffff1681526020016314fa31f863ffffffff1681526020016315ba02db63ffffffff1681526020016316783ccd63ffffffff168152602001631734d44b63ffffffff1681526020016317efbe2e63ffffffff1681526020016318a8efac63ffffffff1681526020016319605e5863ffffffff168152602001631a16002763ffffffff168152602001631ac9cb6d63ffffffff168152602001631b7bb6e563ffffffff168152602001631c2bb9a963ffffffff168152602001631cd9cb3d63ffffffff168152602001631d85e38863ffffffff168152602001631e2ffad863ffffffff168152602001631ed809e363ffffffff16815250600b9060296119d7929190611cc0565b503480156119e457600080fd5b50600260008061012c8152602001908152602001600020908054611a09929190611d70565b5060036000806103848152602001908152602001600020908054611a2e929190611d70565b5060046000806107088152602001908152602001600020908054611a53929190611d70565b506005600080610e108152602001908152602001600020908054611a78929190611d70565b506006600080620151808152602001908152602001600020908054611a9e929190611d70565b506007600080621275008152602001908152602001600020908054611ac4929190611d70565b50600860008062278d008152602001908152602001600020908054611aea929190611d70565b506009600080624f1a008152602001908152602001600020908054611b10929190611d70565b50600a6000806276a7008152602001908152602001600020908054611b36929190611d70565b50600b60008062ed4e008152602001908152602001600020908054611b5c929190611d70565b50611dfb565b82805482825590600052602060002090600701600890048101928215611c005791602002820160005b83821115611bce57835183826101000a81548163ffffffff021916908362ffffff1602179055509260200192600401602081600301049283019260010302611b8b565b8015611bfe5782816101000a81549063ffffffff0219169055600401602081600301049283019260010302611bce565b505b509050611c0d9190611dd0565b5090565b82805482825590600052602060002090600701600890048101928215611caf5791602002820160005b83821115611c7d57835183826101000a81548163ffffffff021916908362ffffff1602179055509260200192600401602081600301049283019260010302611c3a565b8015611cad5782816101000a81549063ffffffff0219169055600401602081600301049283019260010302611c7d565b505b509050611cbc9190611dd0565b5090565b82805482825590600052602060002090600701600890048101928215611d5f5791602002820160005b83821115611d2d57835183826101000a81548163ffffffff021916908363ffffffff1602179055509260200192600401602081600301049283019260010302611ce9565b8015611d5d5782816101000a81549063ffffffff0219169055600401602081600301049283019260010302611d2d565b505b509050611d6c9190611dd0565b5090565b82805482825590600052602060002090600701600890048101928215611dbf576000526020600020916007016008900482015b82811115611dbe578254825591600101919060010190611da3565b5b509050611dcc9190611dd0565b5090565b5b80821115611df757600081816101000a81549063ffffffff021916905550600101611dd1565b5090565b6101ef80611e0a6000396000f3fe608060405234801561001057600080fd5b506004361061004c5760003560e01c806349b16dc71461005157806362fc946f146100a35780637dedd187146100eb5780639d3d760314610109575b600080fd5b6100876004803603604081101561006757600080fd5b810190808035906020019092919080359060200190929190505050610127565b604051808263ffffffff16815260200191505060405180910390f35b6100cf600480360360208110156100b957600080fd5b810190808035906020019092919050505061016d565b604051808263ffffffff16815260200191505060405180910390f35b6100f36101a4565b6040518082815260200191505060405180910390f35b6101116101b1565b6040518082815260200191505060405180910390f35b6000602052816000526040600020818154811061014057fe5b9060005260206000209060089182820401919006600402915091509054906101000a900463ffffffff1681565b6001818154811061017a57fe5b9060005260206000209060089182820401919006600402915054906101000a900463ffffffff1681565b6000600180549050905090565b633b9aca008156fea264697066735822122016d8e79cb765617f1837eb933cf204d510af2f0479fbf6ac02386fcef8e44e6264736f6c634300060c0033"
  }
}