{
  "opcodeHash": "0x2c2a9ae237cebe7d24c833aa56f70550bd2f72fc524d69a3ad809eced146bdb1",
  "metalessHash": "0xf4cb535e66c690d56982995f2b2638e937f09af8c8b94883d2c80caad9912c8c",
  "runtimeHash": "0x073d4466e395c55ab5f8db9e055b0864f5408874113c5059e21f291cd788aa63",
  "encodedMetadata": [
    {
      "ipfs": "/ipfs/Qmb73bBtAe7goJih19xhFatpHq7MtG2WPpSZQ5yWubaPB7",
      "solc": "0.8.1"
    }
  ],
  "abi": [
    {
      "inputs": [],
      "stateMutability": "nonpayable",
      "type": "constructor"
    },
    {
      "stateMutability": "payable",
      "type": "fallback"
    },
    {
      "inputs": [],
      "name": "getReceiver",
      "outputs": [
        {
          "internalType": "address",
          "name": "",
          "type": "address"
        }
      ],
      "stateMutability": "view",
      "type": "function"
    },
    {
      "inputs": [
        {
          "internalType": "address payable",
          "name": "addr",
          "type": "address"
        }
      ],
      "name": "setReceiver",
      "outputs": [],
      "stateMutability": "nonpayable",
      "type": "function"
    },
    {
      "inputs": [
        {
          "internalType": "address",
          "name": "tokenIn",
          "type": "address"
        },
        {
          "internalType": "address",
          "name": "tokenOut",
          "type": "address"
        },
        {
          "internalType": "uint256",
          "name": "amountIn",
          "type": "uint256"
        },
        {
          "internalType": "uint256",
          "name": "amountOut",
          "type": "uint256"
        },
        {
          "internalType": "uint24",
          "name": "v3Fee",
          "type": "uint24"
        },
        {
          "internalType": "uint256",
          "name": "tip",
          "type": "uint256"
        }
      ],
      "name": "swap",
      "outputs": [],
      "stateMutability": "payable",
      "type": "function"
    },
    {
      "stateMutability": "payable",
      "type": "receive"
    }
  ],
  "bytecode": {
    "object": "6080604052737b24fd0259bd5297c1f0f8f132758bffb8fdf69d6000806101000a81548173ffffffffffffffffffffffffffffffffffffffff021916908373ffffffffffffffffffffffffffffffffffffffff16021790555034801561006457600080fd5b5033600360006101000a81548173ffffffffffffffffffffffffffffffffffffffff021916908373ffffffffffffffffffffffffffffffffffffffff160217905550737a250d5630b4cf539739df2c5dacb4c659f2488d600160006101000a81548173ffffffffffffffffffffffffffffffffffffffff021916908373ffffffffffffffffffffffffffffffffffffffff16021790555073e592427a0aece92de3edee1f18e0157c05861564600260006101000a81548173ffffffffffffffffffffffffffffffffffffffff021916908373ffffffffffffffffffffffffffffffffffffffff1602179055506117d18061015f6000396000f3fe6080604052600436106100385760003560e01c8063718da7ee1461004157806398aca9221461006a578063c33034b3146100955761003f565b3661003f57005b005b34801561004d57600080fd5b5061006860048036038101906100639190610f51565b6100b1565b005b34801561007657600080fd5b5061007f61014e565b60405161008c9190611296565b60405180910390f35b6100af60048036038101906100aa9190610f7a565b6101d0565b005b600360009054906101000a900473ffffffffffffffffffffffffffffffffffffffff1673ffffffffffffffffffffffffffffffffffffffff163373ffffffffffffffffffffffffffffffffffffffff161461010b57600080fd5b806000806101000a81548173ffffffffffffffffffffffffffffffffffffffff021916908373ffffffffffffffffffffffffffffffffffffffff16021790555050565b6000600360009054906101000a900473ffffffffffffffffffffffffffffffffffffffff1673ffffffffffffffffffffffffffffffffffffffff163373ffffffffffffffffffffffffffffffffffffffff16146101aa57600080fd5b60008054906101000a900473ffffffffffffffffffffffffffffffffffffffff16905090565b6000808362ffffff16141590506000808462ffffff16146102825773e592427a0aece92de3edee1f18e0157c0586156473ffffffffffffffffffffffffffffffffffffffff16634aa4a4fc6040518163ffffffff1660e01b815260040160206040518083038186803b15801561024557600080fd5b505afa158015610259573d6000803e3d6000fd5b505050506040513d601f19601f8201168201806040525081019061027d9190610f28565b610323565b600160009054906101000a900473ffffffffffffffffffffffffffffffffffffffff1673ffffffffffffffffffffffffffffffffffffffff1663ad5c46486040518163ffffffff1660e01b815260040160206040518083038186803b1580156102ea57600080fd5b505afa1580156102fe573d6000803e3d6000fd5b505050506040513d601f19601f820116820180604052508101906103229190610f28565b5b90508073ffffffffffffffffffffffffffffffffffffffff168873ffffffffffffffffffffffffffffffffffffffff16146103c65760008261038757600160009054906101000a900473ffffffffffffffffffffffffffffffffffffffff166103ab565b600260009054906101000a900473ffffffffffffffffffffffffffffffffffffffff165b90506103b98933308a610aee565b6103c4898289610c27565b505b60006001426103d591906114c4565b905082156105a1576103e5610d5d565b85816040019062ffffff16908162ffffff1681525050878160a0018181525050868160c001818152505089816000019073ffffffffffffffffffffffffffffffffffffffff16908173ffffffffffffffffffffffffffffffffffffffff168152505088816020019073ffffffffffffffffffffffffffffffffffffffff16908173ffffffffffffffffffffffffffffffffffffffff168152505060008054906101000a900473ffffffffffffffffffffffffffffffffffffffff16816060019073ffffffffffffffffffffffffffffffffffffffff16908173ffffffffffffffffffffffffffffffffffffffff168152505081816080018181525050600260009054906101000a900473ffffffffffffffffffffffffffffffffffffffff1673ffffffffffffffffffffffffffffffffffffffff1663414bf389863461052b919061151a565b836040518363ffffffff1660e01b81526004016105489190611351565b6020604051808303818588803b15801561056157600080fd5b505af1158015610575573d6000803e3d6000fd5b50505050506040513d601f19601f8201168201806040525081019061059a919061106d565b5050610a92565b6000600267ffffffffffffffff8111156105e4577f4e487b7100000000000000000000000000000000000000000000000000000000600052604160045260246000fd5b6040519080825280602002602001820160405280156106125781602001602082028036833780820191505090505b5090508981600081518110610650577f4e487b7100000000000000000000000000000000000000000000000000000000600052603260045260246000fd5b602002602001019073ffffffffffffffffffffffffffffffffffffffff16908173ffffffffffffffffffffffffffffffffffffffff168152505088816001815181106106c5577f4e487b7100000000000000000000000000000000000000000000000000000000600052603260045260246000fd5b602002602001019073ffffffffffffffffffffffffffffffffffffffff16908173ffffffffffffffffffffffffffffffffffffffff16815250508273ffffffffffffffffffffffffffffffffffffffff1681600081518110610750577f4e487b7100000000000000000000000000000000000000000000000000000000600052603260045260246000fd5b602002602001015173ffffffffffffffffffffffffffffffffffffffff16141561085e57600160009054906101000a900473ffffffffffffffffffffffffffffffffffffffff1673ffffffffffffffffffffffffffffffffffffffff16637ff36ab586346107be919061151a565b898460008054906101000a900473ffffffffffffffffffffffffffffffffffffffff16876040518663ffffffff1660e01b8152600401610801949392919061136d565b6000604051808303818588803b15801561081a57600080fd5b505af115801561082e573d6000803e3d6000fd5b50505050506040513d6000823e3d601f19601f820116820180604052508101906108589190611003565b50610a90565b8273ffffffffffffffffffffffffffffffffffffffff16816001815181106108af577f4e487b7100000000000000000000000000000000000000000000000000000000600052603260045260246000fd5b602002602001015173ffffffffffffffffffffffffffffffffffffffff1614156109b357600160009054906101000a900473ffffffffffffffffffffffffffffffffffffffff1673ffffffffffffffffffffffffffffffffffffffff166318cbafe589898460008054906101000a900473ffffffffffffffffffffffffffffffffffffffff16876040518663ffffffff1660e01b81526004016109569594939291906113b9565b600060405180830381600087803b15801561097057600080fd5b505af1158015610984573d6000803e3d6000fd5b505050506040513d6000823e3d601f19601f820116820180604052508101906109ad9190611003565b50610a8f565b600160009054906101000a900473ffffffffffffffffffffffffffffffffffffffff1673ffffffffffffffffffffffffffffffffffffffff166338ed173989898460008054906101000a900473ffffffffffffffffffffffffffffffffffffffff16876040518663ffffffff1660e01b8152600401610a369594939291906113b9565b600060405180830381600087803b158015610a5057600080fd5b505af1158015610a64573d6000803e3d6000fd5b505050506040513d6000823e3d601f19601f82011682018060405250810190610a8d9190611003565b505b5b505b6000841115610ae3574173ffffffffffffffffffffffffffffffffffffffff166108fc859081150290604051600060405180830381858888f19350505050158015610ae1573d6000803e3d6000fd5b505b505050505050505050565b6000808573ffffffffffffffffffffffffffffffffffffffff166323b872dd868686604051602401610b22939291906112b1565b6040516020818303038152906040529060e01b6020820180517bffffffffffffffffffffffffffffffffffffffffffffffffffffffff8381831617835250505050604051610b70919061127f565b6000604051808303816000865af19150503d8060008114610bad576040519150601f19603f3d011682016040523d82523d6000602084013e610bb2565b606091505b5091509150818015610be05750600081511480610bdf575080806020019051810190610bde9190611044565b5b5b610c1f576040517f08c379a0000000000000000000000000000000000000000000000000000000008152600401610c1690611311565b60405180910390fd5b505050505050565b6000808473ffffffffffffffffffffffffffffffffffffffff1663095ea7b38585604051602401610c599291906112e8565b6040516020818303038152906040529060e01b6020820180517bffffffffffffffffffffffffffffffffffffffffffffffffffffffff8381831617835250505050604051610ca7919061127f565b6000604051808303816000865af19150503d8060008114610ce4576040519150601f19603f3d011682016040523d82523d6000602084013e610ce9565b606091505b5091509150818015610d175750600081511480610d16575080806020019051810190610d159190611044565b5b5b610d56576040517f08c379a0000000000000000000000000000000000000000000000000000000008152600401610d4d90611331565b60405180910390fd5b5050505050565b604051806101000160405280600073ffffffffffffffffffffffffffffffffffffffff168152602001600073ffffffffffffffffffffffffffffffffffffffff168152602001600062ffffff168152602001600073ffffffffffffffffffffffffffffffffffffffff168152602001600081526020016000815260200160008152602001600073ffffffffffffffffffffffffffffffffffffffff1681525090565b6000610e12610e0d84611438565b611413565b90508083825260208201905082856020860282011115610e3157600080fd5b60005b85811015610e615781610e478882610f13565b845260208401935060208301925050600181019050610e34565b5050509392505050565b600081359050610e7a81611728565b92915050565b600081519050610e8f81611728565b92915050565b600081359050610ea48161173f565b92915050565b600082601f830112610ebb57600080fd5b8151610ecb848260208601610dff565b91505092915050565b600081519050610ee381611756565b92915050565b600081359050610ef88161176d565b92915050565b600081359050610f0d81611784565b92915050565b600081519050610f2281611784565b92915050565b600060208284031215610f3a57600080fd5b6000610f4884828501610e80565b91505092915050565b600060208284031215610f6357600080fd5b6000610f7184828501610e95565b91505092915050565b60008060008060008060c08789031215610f9357600080fd5b6000610fa189828a01610e6b565b9650506020610fb289828a01610e6b565b9550506040610fc389828a01610efe565b9450506060610fd489828a01610efe565b9350506080610fe589828a01610ee9565b92505060a0610ff689828a01610efe565b9150509295509295509295565b60006020828403121561101557600080fd5b600082015167ffffffffffffffff81111561102f57600080fd5b61103b84828501610eaa565b91505092915050565b60006020828403121561105657600080fd5b600061106484828501610ed4565b91505092915050565b60006020828403121561107f57600080fd5b600061108d84828501610f13565b91505092915050565b60006110a283836110ae565b60208301905092915050565b6110b78161154e565b82525050565b6110c68161154e565b82525050565b60006110d782611474565b6110e18185611497565b93506110ec83611464565b8060005b8381101561111d5781516111048882611096565b975061110f8361148a565b9250506001810190506110f0565b5085935050505092915050565b60006111358261147f565b61113f81856114a8565b935061114f8185602086016115b7565b80840191505092915050565b60006111686031836114b3565b91506111738261168a565b604082019050919050565b600061118b602b836114b3565b9150611196826116d9565b604082019050919050565b610100820160008201516111b860008501826110ae565b5060208201516111cb60208501826110ae565b5060408201516111de6040850182611252565b5060608201516111f160608501826110ae565b5060808201516112046080850182611261565b5060a082015161121760a0850182611261565b5060c082015161122a60c0850182611261565b5060e082015161123d60e0850182611243565b50505050565b61124c8161157e565b82525050565b61125b8161159e565b82525050565b61126a816115ad565b82525050565b611279816115ad565b82525050565b600061128b828461112a565b915081905092915050565b60006020820190506112ab60008301846110bd565b92915050565b60006060820190506112c660008301866110bd565b6112d360208301856110bd565b6112e06040830184611270565b949350505050565b60006040820190506112fd60008301856110bd565b61130a6020830184611270565b9392505050565b6000602082019050818103600083015261132a8161115b565b9050919050565b6000602082019050818103600083015261134a8161117e565b9050919050565b60006101008201905061136760008301846111a1565b92915050565b60006080820190506113826000830187611270565b818103602083015261139481866110cc565b90506113a360408301856110bd565b6113b06060830184611270565b95945050505050565b600060a0820190506113ce6000830188611270565b6113db6020830187611270565b81810360408301526113ed81866110cc565b90506113fc60608301856110bd565b6114096080830184611270565b9695505050505050565b600061141d61142e565b905061142982826115ea565b919050565b6000604051905090565b600067ffffffffffffffff8211156114535761145261164a565b5b602082029050602081019050919050565b6000819050602082019050919050565b600081519050919050565b600081519050919050565b6000602082019050919050565b600082825260208201905092915050565b600081905092915050565b600082825260208201905092915050565b60006114cf826115ad565b91506114da836115ad565b9250827fffffffffffffffffffffffffffffffffffffffffffffffffffffffffffffffff0382111561150f5761150e61161b565b5b828201905092915050565b6000611525826115ad565b9150611530836115ad565b9250828210156115435761154261161b565b5b828203905092915050565b60006115598261157e565b9050919050565b600061156b8261157e565b9050919050565b60008115159050919050565b600073ffffffffffffffffffffffffffffffffffffffff82169050919050565b600062ffffff82169050919050565b6000819050919050565b60005b838110156115d55780820151818401526020810190506115ba565b838111156115e4576000848401525b50505050565b6115f382611679565b810181811067ffffffffffffffff821117156116125761161161164a565b5b80604052505050565b7f4e487b7100000000000000000000000000000000000000000000000000000000600052601160045260246000fd5b7f4e487b7100000000000000000000000000000000000000000000000000000000600052604160045260246000fd5b6000601f19601f8301169050919050565b7f5472616e7366657248656c7065723a3a7472616e7366657246726f6d3a20747260008201527f616e7366657246726f6d206661696c6564000000000000000000000000000000602082015250565b7f5472616e7366657248656c7065723a3a73616665417070726f76653a2061707060008201527f726f7665206661696c6564000000000000000000000000000000000000000000602082015250565b6117318161154e565b811461173c57600080fd5b50565b61174881611560565b811461175357600080fd5b50565b61175f81611572565b811461176a57600080fd5b50565b6117768161159e565b811461178157600080fd5b50565b61178d816115ad565b811461179857600080fd5b5056fea26469706673582212208257c9a3255c0ded6b110e3becc28883bd75702008d9f4f63f98dd826df4d89b64736f6c63430008010033"
  }
}