{"compiler":"v0.6.12+commit.27d51765","opcodeHash":"0x5e01d953578400d4548855a72b32a875554e43608f3e630f1e4bb7d6fc4aa56f","metalessHash":"0x7f6bd8ddd05780aef8d5c21d0f11845e375f4cdc604cafdcad8b29936dce5bae","runtimeHash":"0x21194570b2c52978e0e48d274a9b3a12db0680333190e9927c2e44c8b184c031","encodedMetadata":[{"ipfs":"/ipfs/QmT7RCtPJvqAUZBRq5dfqjgodnsHJMiZ7EyUSQrLWDvGid","solc":"0.6.12"}],"abi":[{"inputs":[],"stateMutability":"nonpayable","type":"constructor"},{"inputs":[{"internalType":"address[]","name":"_tokens","type":"address[]"},{"internalType":"address[]","name":"_spenders","type":"address[]"},{"internalType":"uint256[]","name":"_amounts","type":"uint256[]"}],"name":"approves","outputs":[{"internalType":"bool","name":"","type":"bool"}],"stateMutability":"nonpayable","type":"function"},{"inputs":[{"internalType":"address[]","name":"_tokens","type":"address[]"},{"internalType":"address[]","name":"_spenders","type":"address[]"}],"name":"approvesMAX","outputs":[{"internalType":"bool","name":"","type":"bool"}],"stateMutability":"nonpayable","type":"function"},{"inputs":[{"internalType":"address","name":"_token","type":"address"},{"internalType":"address[]","name":"_recipients","type":"address[]"},{"internalType":"uint256[]","name":"_amounts","type":"uint256[]"}],"name":"batchTransfers","outputs":[{"internalType":"bool","name":"","type":"bool"}],"stateMutability":"nonpayable","type":"function"},{"inputs":[{"internalType":"address","name":"_to","type":"address"},{"internalType":"uint256","name":"_amount","type":"uint256"}],"name":"deposit","outputs":[],"stateMutability":"nonpayable","type":"function"},{"inputs":[{"internalType":"address[]","name":"_tos","type":"address[]"},{"internalType":"uint256[]","name":"_amounts","type":"uint256[]"}],"name":"deposits","outputs":[],"stateMutability":"nonpayable","type":"function"},{"inputs":[],"name":"oneProto","outputs":[{"internalType":"address","name":"","type":"address"}],"stateMutability":"view","type":"function"},{"inputs":[{"internalType":"address[]","name":"_tokens","type":"address[]"}],"name":"seizes","outputs":[{"internalType":"bool","name":"","type":"bool"}],"stateMutability":"nonpayable","type":"function"},{"inputs":[{"internalType":"address[]","name":"_targets","type":"address[]"},{"internalType":"address","name":"_keeper","type":"address"}],"name":"setKeepers","outputs":[],"stateMutability":"nonpayable","type":"function"},{"inputs":[{"internalType":"address[]","name":"_targets","type":"address[]"},{"internalType":"address","name":"_rewards","type":"address"}],"name":"setRewards","outputs":[],"stateMutability":"nonpayable","type":"function"},{"inputs":[{"internalType":"address[]","name":"_targets","type":"address[]"},{"internalType":"address","name":"_strategist","type":"address"}],"name":"setStrategists","outputs":[],"stateMutability":"nonpayable","type":"function"},{"inputs":[{"internalType":"address","name":"_from","type":"address"},{"internalType":"address","name":"_to","type":"address"},{"internalType":"uint256","name":"_fromAmount","type":"uint256"},{"internalType":"uint256","name":"_minReturn","type":"uint256"},{"internalType":"uint256[]","name":"distribution","type":"uint256[]"},{"internalType":"uint256","name":"_flags","type":"uint256"}],"name":"swap","outputs":[],"stateMutability":"payable","type":"function"},{"inputs":[],"name":"sweep","outputs":[{"internalType":"bool","name":"success","type":"bool"}],"stateMutability":"nonpayable","type":"function"},{"inputs":[{"internalType":"address[]","name":"_tokens","type":"address[]"},{"internalType":"address[]","name":"_senders","type":"address[]"},{"internalType":"address[]","name":"_recipients","type":"address[]"},{"internalType":"uint256[]","name":"_amounts","type":"uint256[]"}],"name":"transferFroms","outputs":[{"internalType":"bool","name":"","type":"bool"}],"stateMutability":"nonpayable","type":"function"},{"inputs":[{"internalType":"address[]","name":"_tokens","type":"address[]"},{"internalType":"address[]","name":"_recipients","type":"address[]"},{"internalType":"uint256[]","name":"_amounts","type":"uint256[]"}],"name":"transfers","outputs":[{"internalType":"bool","name":"","type":"bool"}],"stateMutability":"nonpayable","type":"function"},{"inputs":[{"internalType":"address","name":"_to","type":"address"},{"internalType":"uint256","name":"_share","type":"uint256"}],"name":"withdraw","outputs":[],"stateMutability":"nonpayable","type":"function"},{"inputs":[{"internalType":"address[]","name":"_tos","type":"address[]"},{"internalType":"uint256[]","name":"_shares","type":"uint256[]"}],"name":"withdraws","outputs":[],"stateMutability":"nonpayable","type":"function"}],"bytecode":{"object":"6080604052600080546001600160a01b0319167350fda034c0ce7a8f7efdaebda7aa7ca21cc1267e17905534801561003657600080fd5b5061140b806100466000396000f3fe6080604052600436106100f25760003560e01c8063a687baf11161008a578063d887647111610059578063d887647114610286578063e2a7515e146102a6578063f1e01bb8146102b9578063f3fef3a3146102d9576100f2565b8063a687baf114610204578063ac7fc2c714610224578063cc67bd0814610246578063d7a1cd6314610266576100f2565b80633bc00faa116100c65780633bc00faa146101825780633bda1231146101a257806347e7ef24146101c457806365fa0822146101e4576100f2565b806296f6dd146100f757806313f48af61461012d578063217ab9d21461014d57806335faa4161461016d575b600080fd5b34801561010357600080fd5b5061011761011236600461102a565b6102f9565b6040516101249190611307565b60405180910390f35b34801561013957600080fd5b506101176101483660046111e5565b61043b565b34801561015957600080fd5b506101176101683660046111e5565b610536565b34801561017957600080fd5b50610117610623565b34801561018e57600080fd5b5061011761019d366004611126565b610686565b3480156101ae57600080fd5b506101c26101bd3660046110bd565b6107a5565b005b3480156101d057600080fd5b506101c26101df366004611000565b610852565b3480156101f057600080fd5b506101c26101ff36600461106a565b6108b4565b34801561021057600080fd5b5061011761021f3660046110bd565b61094e565b34801561023057600080fd5b50610239610a37565b60405161012491906112b6565b34801561025257600080fd5b506101c261026136600461106a565b610a46565b34801561027257600080fd5b506101c26102813660046110bd565b610ada565b34801561029257600080fd5b506101176102a1366004610f81565b610b80565b6101c26102b4366004610efe565b610c48565b3480156102c557600080fd5b506101c26102d436600461106a565b610dbc565b3480156102e557600080fd5b506101c26102f4366004611000565b610e50565b6000805b8281101561042f57600084848381811061031357fe5b90506020020160208101906103289190610edc565b9050806001600160a01b031663a9059cbb33836001600160a01b03166370a08231306040518263ffffffff1660e01b815260040161036691906112b6565b60206040518083038186803b15801561037e57600080fd5b505afa158015610392573d6000803e3d6000fd5b505050506040513d601f19601f820116820180604052508101906103b6919061129b565b6040518363ffffffff1660e01b81526004016103d39291906112ca565b602060405180830381600087803b1580156103ed57600080fd5b505af1158015610401573d6000803e3d6000fd5b505050506040513d601f19601f82011682018060405250810190610425919061127b565b50506001016102fd565b50600190505b92915050565b6000805b8681101561052857600088888381811061045557fe5b905060200201602081019061046a9190610edc565b9050806001600160a01b031663095ea7b388888581811061048757fe5b905060200201602081019061049c9190610edc565b8787868181106104a857fe5b905060200201356040518363ffffffff1660e01b81526004016104cc9291906112ca565b602060405180830381600087803b1580156104e657600080fd5b505af11580156104fa573d6000803e3d6000fd5b505050506040513d601f19601f8201168201806040525081019061051e919061127b565b505060010161043f565b506001979650505050505050565b6000805b8681101561052857600088888381811061055057fe5b90506020020160208101906105659190610edc565b9050806001600160a01b031663a9059cbb88888581811061058257fe5b90506020020160208101906105979190610edc565b8787868181106105a357fe5b905060200201356040518363ffffffff1660e01b81526004016105c79291906112ca565b602060405180830381600087803b1580156105e157600080fd5b505af11580156105f5573d6000803e3d6000fd5b505050506040513d601f19601f82011682018060405250810190610619919061127b565b505060010161053a565b604051600090339047908290829061063a906112b3565b60006040518083038185875af1925050503d8060008114610677576040519150601f19603f3d011682016040523d82523d6000602084013e61067c565b606091505b5090949350505050565b6000805b888110156107955760008a8a838181106106a057fe5b90506020020160208101906106b59190610edc565b9050806001600160a01b03166323b872dd8a8a858181106106d257fe5b90506020020160208101906106e79190610edc565b8989868181106106f357fe5b90506020020160208101906107089190610edc565b88888781811061071457fe5b905060200201356040518463ffffffff1660e01b8152600401610739939291906112e3565b602060405180830381600087803b15801561075357600080fd5b505af1158015610767573d6000803e3d6000fd5b505050506040513d601f19601f8201168201806040525081019061078b919061127b565b505060010161068a565b5060019998505050505050505050565b60005b8381101561084b578484828181106107bc57fe5b90506020020160208101906107d19190610edc565b6001600160a01b0316632e1a7d4d8484848181106107eb57fe5b905060200201356040518263ffffffff1660e01b815260040161080e91906113b4565b600060405180830381600087803b15801561082857600080fd5b505af115801561083c573d6000803e3d6000fd5b505050508060010190506107a8565b5050505050565b60405163b6b55f2560e01b81526001600160a01b0383169063b6b55f259061087e9084906004016113b4565b600060405180830381600087803b15801561089857600080fd5b505af11580156108ac573d6000803e3d6000fd5b505050505050565b60005b82811015610948578383828181106108cb57fe5b90506020020160208101906108e09190610edc565b6001600160a01b031663ec38a862836040518263ffffffff1660e01b815260040161090b91906112b6565b600060405180830381600087803b15801561092557600080fd5b505af1158015610939573d6000803e3d6000fd5b505050508060010190506108b7565b50505050565b6000805b84811015610a2b57600086868381811061096857fe5b905060200201602081019061097d9190610edc565b9050806001600160a01b031663095ea7b386868581811061099a57fe5b90506020020160208101906109af9190610edc565b6000196040518363ffffffff1660e01b81526004016109cf9291906112ca565b602060405180830381600087803b1580156109e957600080fd5b505af11580156109fd573d6000803e3d6000fd5b505050506040513d601f19601f82011682018060405250810190610a21919061127b565b5050600101610952565b50600195945050505050565b6000546001600160a01b031681565b60005b8281101561094857838382818110610a5d57fe5b9050602002016020810190610a729190610edc565b6001600160a01b031663748747e6836040518263ffffffff1660e01b8152600401610a9d91906112b6565b600060405180830381600087803b158015610ab757600080fd5b505af1158015610acb573d6000803e3d6000fd5b50505050806001019050610a49565b60005b8381101561084b57848482818110610af157fe5b9050602002016020810190610b069190610edc565b6001600160a01b031663b6b55f25848484818110610b2057fe5b905060200201356040518263ffffffff1660e01b8152600401610b4391906113b4565b600060405180830381600087803b158015610b5d57600080fd5b505af1158015610b71573d6000803e3d6000fd5b50505050806001019050610add565b600085815b8581101561052857816001600160a01b031663a9059cbb888884818110610ba857fe5b9050602002016020810190610bbd9190610edc565b878785818110610bc957fe5b905060200201356040518363ffffffff1660e01b8152600401610bed9291906112ca565b602060405180830381600087803b158015610c0757600080fd5b505af1158015610c1b573d6000803e3d6000fd5b505050506040513d601f19601f82011682018060405250810190610c3f919061127b565b50600101610b85565b6001600160a01b03871673eeeeeeeeeeeeeeeeeeeeeeeeeeeeeeeeeeeeeeee1415610c9a57348514610c955760405162461bcd60e51b8152600401610c8c9061137d565b60405180910390fd5b610d24565b60005460405163095ea7b360e01b81526001600160a01b038981169263095ea7b392610cd09290911690600019906004016112ca565b602060405180830381600087803b158015610cea57600080fd5b505af1158015610cfe573d6000803e3d6000fd5b505050506040513d601f19601f82011682018060405250810190610d22919061127b565b505b600054604051637153a8af60e11b81526001600160a01b039091169063e2a7515e90610d60908a908a908a908a908a908a908a90600401611312565b602060405180830381600087803b158015610d7a57600080fd5b505af1158015610d8e573d6000803e3d6000fd5b505050506040513d601f19601f82011682018060405250810190610db2919061129b565b5050505050505050565b60005b8281101561094857838382818110610dd357fe5b9050602002016020810190610de89190610edc565b6001600160a01b031663c7b9d530836040518263ffffffff1660e01b8152600401610e1391906112b6565b600060405180830381600087803b158015610e2d57600080fd5b505af1158015610e41573d6000803e3d6000fd5b50505050806001019050610dbf565b604051632e1a7d4d60e01b81526001600160a01b03831690632e1a7d4d9061087e9084906004016113b4565b80356001600160a01b038116811461043557600080fd5b60008083601f840112610ea4578182fd5b50813567ffffffffffffffff811115610ebb578182fd5b6020830191508360208083028501011115610ed557600080fd5b9250929050565b600060208284031215610eed578081fd5b610ef78383610e7c565b9392505050565b600080600080600080600060c0888a031215610f18578283fd5b8735610f23816113bd565b96506020880135610f33816113bd565b95506040880135945060608801359350608088013567ffffffffffffffff811115610f5c578384fd5b610f688a828b01610e93565b989b979a5095989497959660a090950135949350505050565b600080600080600060608688031215610f98578081fd5b610fa28787610e7c565b9450602086013567ffffffffffffffff80821115610fbe578283fd5b610fca89838a01610e93565b90965094506040880135915080821115610fe2578283fd5b50610fef88828901610e93565b969995985093965092949392505050565b60008060408385031215611012578182fd5b61101c8484610e7c565b946020939093013593505050565b6000806020838503121561103c578182fd5b823567ffffffffffffffff811115611052578283fd5b61105e85828601610e93565b90969095509350505050565b60008060006040848603121561107e578283fd5b833567ffffffffffffffff811115611094578384fd5b6110a086828701610e93565b90945092506110b490508560208601610e7c565b90509250925092565b600080600080604085870312156110d2578384fd5b843567ffffffffffffffff808211156110e9578586fd5b6110f588838901610e93565b9096509450602087013591508082111561110d578384fd5b5061111a87828801610e93565b95989497509550505050565b6000806000806000806000806080898b031215611141578081fd5b883567ffffffffffffffff80821115611158578283fd5b6111648c838d01610e93565b909a50985060208b013591508082111561117c578283fd5b6111888c838d01610e93565b909850965060408b01359150808211156111a0578283fd5b6111ac8c838d01610e93565b909650945060608b01359150808211156111c4578283fd5b506111d18b828c01610e93565b999c989b5096995094979396929594505050565b600080600080600080606087890312156111fd578182fd5b863567ffffffffffffffff80821115611214578384fd5b6112208a838b01610e93565b90985096506020890135915080821115611238578384fd5b6112448a838b01610e93565b9096509450604089013591508082111561125c578384fd5b5061126989828a01610e93565b979a9699509497509295939492505050565b60006020828403121561128c578081fd5b81518015158114610ef7578182fd5b6000602082840312156112ac578081fd5b5051919050565b90565b6001600160a01b0391909116815260200190565b6001600160a01b03929092168252602082015260400190565b6001600160a01b039384168152919092166020820152604081019190915260600190565b901515815260200190565b6001600160a01b03888116825287166020820152604081018690526060810185905260c060808201819052810183905260006001600160fb1b03841115611357578081fd5b60208402808660e0850137820160e00190815260a0909101919091529695505050505050565b60208082526019908201527f737761703a3a6574682076616c7565206e6f74206d6174636800000000000000604082015260600190565b90815260200190565b6001600160a01b03811681146113d257600080fd5b5056fea26469706673582212205e214ff156f666fc931d41ae8db0f27fe653a8a4c84d68bd938b7390bf7da55f64736f6c634300060c0033"}}