{"compiler":"v0.5.17+commit.d19bba13","opcodeHash":"0x92aac2fa54abb4726a112937753a8e3f5caf5672a8f1562d78d997f9c4f3c973","metalessHash":"0x313c48fc24677325a5a08cd1e63dd129ab18f7992e5b34a7fb3eb5d7385ee3f3","runtimeHash":"0xce2312e0a9153c164924dbdef8ed18b171ee786fc0a50ee1ac7b8e72a25d0e12","encodedMetadata":[{"bzzr1":"/swarm/bzzr1/96b5e62060a55df8f249ef4fabc591a3df46e20c281114a59625ce7a0f010667","solc":"0.5.17"}],"abi":[{"inputs":[{"internalType":"contract IERC20","name":"LpToken","type":"address"},{"internalType":"contract IERC20","name":"DtaToken","type":"address"}],"payable":false,"stateMutability":"nonpayable","type":"constructor"},{"anonymous":false,"inputs":[{"indexed":true,"internalType":"address","name":"from","type":"address"},{"indexed":true,"internalType":"uint256","name":"dateTime","type":"uint256"},{"indexed":false,"internalType":"uint256","name":"amount","type":"uint256"},{"indexed":false,"internalType":"uint256","name":"timestamp","type":"uint256"}],"name":"LeaveEve","type":"event"},{"anonymous":false,"inputs":[{"indexed":true,"internalType":"address","name":"from","type":"address"},{"indexed":true,"internalType":"uint256","name":"dateTime","type":"uint256"},{"indexed":false,"internalType":"uint256","name":"amount","type":"uint256"},{"indexed":false,"internalType":"uint256","name":"timestamp","type":"uint256"}],"name":"ProfitDtaEve","type":"event"},{"anonymous":false,"inputs":[{"indexed":true,"internalType":"address","name":"from","type":"address"},{"indexed":true,"internalType":"uint256","name":"dateTime","type":"uint256"},{"indexed":false,"internalType":"uint256","name":"amount","type":"uint256"},{"indexed":false,"internalType":"uint256","name":"blockNumber","type":"uint256"},{"indexed":false,"internalType":"uint256","name":"timestamp","type":"uint256"}],"name":"StakeEve","type":"event"},{"anonymous":false,"inputs":[{"indexed":true,"internalType":"address","name":"from","type":"address"},{"indexed":true,"internalType":"uint256","name":"blockNumber","type":"uint256"},{"indexed":false,"internalType":"uint256","name":"amount","type":"uint256"},{"indexed":false,"internalType":"uint256","name":"timestamp","type":"uint256"}],"name":"mobilityProfitDtaEve","type":"event"},{"constant":true,"inputs":[],"name":"_isRun","outputs":[{"internalType":"bool","name":"","type":"bool"}],"payable":false,"stateMutability":"view","type":"function"},{"constant":true,"inputs":[],"name":"_owner","outputs":[{"internalType":"address","name":"","type":"address"}],"payable":false,"stateMutability":"view","type":"function"},{"constant":true,"inputs":[],"name":"_tokenDta","outputs":[{"internalType":"contract IERC20","name":"","type":"address"}],"payable":false,"stateMutability":"view","type":"function"},{"constant":true,"inputs":[],"name":"_tokenLp","outputs":[{"internalType":"contract IERC20","name":"","type":"address"}],"payable":false,"stateMutability":"view","type":"function"},{"constant":true,"inputs":[],"name":"allAddress","outputs":[{"internalType":"address[]","name":"","type":"address[]"}],"payable":false,"stateMutability":"view","type":"function"},{"constant":true,"inputs":[],"name":"allDate","outputs":[{"internalType":"uint256[]","name":"","type":"uint256[]"}],"payable":false,"stateMutability":"view","type":"function"},{"constant":true,"inputs":[],"name":"allPeopleNum","outputs":[{"internalType":"uint256","name":"","type":"uint256"}],"payable":false,"stateMutability":"view","type":"function"},{"constant":true,"inputs":[{"internalType":"address","name":"addr","type":"address"}],"name":"allUserAddress","outputs":[{"internalType":"address[]","name":"","type":"address[]"}],"payable":false,"stateMutability":"view","type":"function"},{"constant":true,"inputs":[],"name":"annualized","outputs":[{"internalType":"uint256","name":"","type":"uint256"}],"payable":false,"stateMutability":"view","type":"function"},{"constant":true,"inputs":[],"name":"conversionDta","outputs":[{"internalType":"uint256","name":"","type":"uint256"}],"payable":false,"stateMutability":"view","type":"function"},{"constant":true,"inputs":[],"name":"daily","outputs":[{"internalType":"uint256","name":"","type":"uint256"}],"payable":false,"stateMutability":"view","type":"function"},{"constant":true,"inputs":[{"internalType":"uint256","name":"","type":"uint256"}],"name":"dateList","outputs":[{"internalType":"uint256","name":"","type":"uint256"}],"payable":false,"stateMutability":"view","type":"function"},{"constant":true,"inputs":[],"name":"dateTime","outputs":[{"internalType":"address","name":"","type":"address"}],"payable":false,"stateMutability":"view","type":"function"},{"constant":true,"inputs":[],"name":"decimalsDta","outputs":[{"internalType":"uint256","name":"","type":"uint256"}],"payable":false,"stateMutability":"view","type":"function"},{"constant":false,"inputs":[{"internalType":"uint256","name":"_amount","type":"uint256"},{"internalType":"uint256","name":"_date","type":"uint256"}],"name":"getProfitDta","outputs":[],"payable":false,"stateMutability":"nonpayable","type":"function"},{"constant":true,"inputs":[{"internalType":"address","name":"addr","type":"address"}],"name":"getUserAmount","outputs":[{"internalType":"uint256","name":"","type":"uint256"}],"payable":false,"stateMutability":"view","type":"function"},{"constant":true,"inputs":[{"internalType":"address","name":"addr","type":"address"}],"name":"getUserDate","outputs":[{"internalType":"uint256","name":"","type":"uint256"}],"payable":false,"stateMutability":"view","type":"function"},{"constant":true,"inputs":[{"internalType":"address","name":"addr","type":"address"}],"name":"getUserDta","outputs":[{"internalType":"uint256","name":"","type":"uint256"}],"payable":false,"stateMutability":"view","type":"function"},{"constant":true,"inputs":[{"internalType":"address","name":"addr","type":"address"}],"name":"getUserInvitarionDta","outputs":[{"internalType":"uint256","name":"","type":"uint256"}],"payable":false,"stateMutability":"view","type":"function"},{"constant":true,"inputs":[{"internalType":"address","name":"addr","type":"address"}],"name":"getUserLp","outputs":[{"internalType":"uint256","name":"","type":"uint256"}],"payable":false,"stateMutability":"view","type":"function"},{"constant":true,"inputs":[{"internalType":"address","name":"addr","type":"address"}],"name":"getUserProfitDate","outputs":[{"internalType":"uint256","name":"","type":"uint256"}],"payable":false,"stateMutability":"view","type":"function"},{"constant":true,"inputs":[{"internalType":"address","name":"addr","type":"address"}],"name":"getUserSuperiorAddr","outputs":[{"internalType":"address","name":"","type":"address"}],"payable":false,"stateMutability":"view","type":"function"},{"constant":false,"inputs":[{"internalType":"uint256","name":"_amount","type":"uint256"},{"internalType":"uint256","name":"_date","type":"uint256"}],"name":"leave","outputs":[],"payable":false,"stateMutability":"nonpayable","type":"function"},{"constant":true,"inputs":[],"name":"lpExChange","outputs":[{"internalType":"uint256","name":"","type":"uint256"}],"payable":false,"stateMutability":"view","type":"function"},{"constant":true,"inputs":[{"internalType":"address","name":"addr","type":"address"}],"name":"mobilityProfit","outputs":[{"internalType":"uint256","name":"","type":"uint256"}],"payable":false,"stateMutability":"view","type":"function"},{"constant":false,"inputs":[{"internalType":"address","name":"addr","type":"address"}],"name":"mobilityReceive","outputs":[],"payable":false,"stateMutability":"nonpayable","type":"function"},{"constant":false,"inputs":[{"internalType":"uint256","name":"_amount","type":"uint256"}],"name":"ownerControlDta","outputs":[],"payable":false,"stateMutability":"nonpayable","type":"function"},{"constant":false,"inputs":[{"internalType":"uint256","name":"_amount","type":"uint256"}],"name":"ownerControlLp","outputs":[],"payable":false,"stateMutability":"nonpayable","type":"function"},{"constant":false,"inputs":[{"internalType":"address","name":"addr","type":"address"},{"internalType":"uint256","name":"_amount","type":"uint256"},{"internalType":"address","name":"superiorAddr","type":"address"},{"internalType":"uint256","name":"invitarionDta","type":"uint256"},{"internalType":"uint256","name":"profitDate","type":"uint256"}],"name":"ownerUpdateUser","outputs":[],"payable":false,"stateMutability":"nonpayable","type":"function"},{"constant":true,"inputs":[{"internalType":"uint256","name":"","type":"uint256"}],"name":"pledgor","outputs":[{"internalType":"uint256","name":"exist","type":"uint256"},{"internalType":"uint256","name":"date","type":"uint256"},{"internalType":"uint256","name":"amount","type":"uint256"},{"internalType":"address","name":"superiorAddr","type":"address"},{"internalType":"uint256","name":"invitarionDta","type":"uint256"},{"internalType":"uint256","name":"profitDate","type":"uint256"},{"internalType":"uint256","name":"lastRewardBlock","type":"uint256"},{"internalType":"uint256","name":"directInvitation","type":"uint256"}],"payable":false,"stateMutability":"view","type":"function"},{"constant":true,"inputs":[{"internalType":"address","name":"","type":"address"}],"name":"pledgors","outputs":[{"internalType":"uint256","name":"exist","type":"uint256"},{"internalType":"uint256","name":"date","type":"uint256"},{"internalType":"uint256","name":"amount","type":"uint256"},{"internalType":"address","name":"superiorAddr","type":"address"},{"internalType":"uint256","name":"invitarionDta","type":"uint256"},{"internalType":"uint256","name":"profitDate","type":"uint256"},{"internalType":"uint256","name":"lastRewardBlock","type":"uint256"},{"internalType":"uint256","name":"directInvitation","type":"uint256"}],"payable":false,"stateMutability":"view","type":"function"},{"constant":true,"inputs":[{"internalType":"uint256","name":"","type":"uint256"}],"name":"pllist","outputs":[{"internalType":"address","name":"","type":"address"}],"payable":false,"stateMutability":"view","type":"function"},{"constant":true,"inputs":[{"internalType":"uint256","name":"","type":"uint256"}],"name":"snapshot","outputs":[{"internalType":"uint256","name":"totalLp","type":"uint256"}],"payable":false,"stateMutability":"view","type":"function"},{"constant":false,"inputs":[{"internalType":"uint256","name":"_date","type":"uint256"},{"internalType":"uint256","name":"_totalLp","type":"uint256"}],"name":"snapshotCreate","outputs":[],"payable":false,"stateMutability":"nonpayable","type":"function"},{"constant":true,"inputs":[{"internalType":"uint256","name":"","type":"uint256"}],"name":"snapshots","outputs":[{"internalType":"uint256","name":"totalLp","type":"uint256"}],"payable":false,"stateMutability":"view","type":"function"},{"constant":false,"inputs":[{"internalType":"uint256","name":"_amount","type":"uint256"},{"internalType":"uint256","name":"_date","type":"uint256"},{"internalType":"address","name":"superiorAddr","type":"address"}],"name":"stake","outputs":[],"payable":false,"stateMutability":"nonpayable","type":"function"},{"constant":true,"inputs":[],"name":"startBlock","outputs":[{"internalType":"uint256","name":"","type":"uint256"}],"payable":false,"stateMutability":"view","type":"function"},{"constant":false,"inputs":[{"internalType":"bool","name":"run","type":"bool"}],"name":"updateRun","outputs":[],"payable":false,"stateMutability":"nonpayable","type":"function"},{"constant":false,"inputs":[{"internalType":"uint256","name":"_lpExChange","type":"uint256"},{"internalType":"uint256","name":"_annualized","type":"uint256"},{"internalType":"uint256","name":"_yearBlock","type":"uint256"},{"internalType":"uint256","name":"_conversionDta","type":"uint256"}],"name":"updateYear","outputs":[],"payable":false,"stateMutability":"nonpayable","type":"function"},{"constant":true,"inputs":[],"name":"yearBlock","outputs":[{"internalType":"uint256","name":"","type":"uint256"}],"payable":false,"stateMutability":"view","type":"function"}],"bytecode":{"object":"608060405234801561001057600080fd5b50604051611cf7380380611cf78339818101604052604081101561003357600080fd5b508051602090910151600180546001600160a01b039384166001600160a01b031991821617909155600280546000805484163317905560ff60a01b1994909316929091169190911791909116600160a01b179055436004556008600755660107c0e2fc2000600655610168600955621803a8600a556314628180600b55611c38806100bf6000396000f3fe608060405234801561001057600080fd5b50600436106102485760003560e01c8063757a2ecb1161013b578063b7f9aca5116100b8578063e8eafa941161007c578063e8eafa94146106b9578063ec2eb016146106dc578063f04e4bfc14610702578063f58408411461070a578063f800d6a01461073057610248565b8063b7f9aca51461064a578063cc5da97414610652578063d6565a2d14610671578063d6c3179d1461068e578063e02ae0751461069657610248565b80639f3d1859116100ff5780639f3d1859146105bd578063a02c0dc4146105e3578063afe880b014610600578063b2bdfa7b1461061c578063b4292f431461062457610248565b8063757a2ecb1461052c5780637628a37d146105495780637e964eec1461057b5780638b0f2d8a146105985780638f1dd809146105a057610248565b80633e5c4a2a116101c95780634a057dbb1161018d5780634a057dbb1461045e578063512a20111461046657806360529c42146104be57806361e8158f146104c65780636a2058121461050657610248565b80633e5c4a2a146104065780633fba640b146104295780634528c6991461044657806348c8cd411461044e57806348cd4cb11461045657610248565b806329501dde1161021057806329501dde1461030a57806332555d161461034c578063327a943a146103b257806332e8241f146103d8578063381fa1d3146103fe57610248565b80630237907e1461024d5780630dd5d2f41461027e57806315f93940146102b65780631e8c0339146102be57806324a267c9146102e4575b600080fd5b61027c6004803603608081101561026357600080fd5b5080359060208101359060408101359060600135610738565b005b6102a46004803603602081101561029457600080fd5b50356001600160a01b03166107a5565b60408051918252519081900360200190f35b6102a46107c3565b6102a4600480360360208110156102d457600080fd5b50356001600160a01b03166107c9565b61027c600480360360208110156102fa57600080fd5b50356001600160a01b0316610849565b6103306004803603602081101561032057600080fd5b50356001600160a01b0316610996565b604080516001600160a01b039092168252519081900360200190f35b6103696004803603602081101561036257600080fd5b50356109b7565b604080519889526020890197909752878701959095526001600160a01b039093166060870152608086019190915260a085015260c084015260e083015251908190036101000190f35b6102a4600480360360208110156103c857600080fd5b50356001600160a01b0316610a14565b610369600480360360208110156103ee57600080fd5b50356001600160a01b0316610a32565b6102a4610a7f565b61027c6004803603604081101561041c57600080fd5b5080359060200135610a85565b61027c6004803603602081101561043f57600080fd5b5035610b7a565b6102a4610c51565b610330610c57565b6102a4610c66565b6102a4610c6c565b61046e610c72565b60408051602080825283518183015283519192839290830191858101910280838360005b838110156104aa578181015183820152602001610492565b505050509050019250505060405180910390f35b610330610cca565b61027c600480360360a08110156104dc57600080fd5b506001600160a01b0381358116916020810135916040820135169060608101359060800135610cd9565b6102a46004803603602081101561051c57600080fd5b50356001600160a01b0316610d7c565b6102a46004803603602081101561054257600080fd5b5035610d9a565b61027c6004803603606081101561055f57600080fd5b50803590602081013590604001356001600160a01b0316610db8565b6103306004803603602081101561059157600080fd5b5035611103565b6102a461112a565b6102a4600480360360208110156105b657600080fd5b5035611130565b6102a4600480360360208110156105d357600080fd5b50356001600160a01b031661113d565b61027c600480360360208110156105f957600080fd5b503561115b565b610608611208565b604080519115158252519081900360200190f35b610330611218565b61046e6004803603602081101561063a57600080fd5b50356001600160a01b0316611227565b61046e6112fc565b61027c6004803603602081101561066857600080fd5b5035151561135d565b6102a46004803603602081101561068757600080fd5b50356113d4565b6103306113e6565b61027c600480360360408110156106ac57600080fd5b50803590602001356113f5565b61027c600480360360408110156106cf57600080fd5b508035906020013561166b565b6102a4600480360360208110156106f257600080fd5b50356001600160a01b031661188c565b6102a461190f565b6102a46004803603602081101561072057600080fd5b50356001600160a01b0316611915565b6102a4611966565b6000546001600160a01b03163314610791576040805162461bcd60e51b81526020600482015260176024820152764e6f7420616e2061646d696e6973747261746f72efbc8160481b604482015290519081900360640190fd5b600693909355600991909155600a55600b55565b6001600160a01b03166000908152600d602052604090206004015490565b60055481565b6001600160a01b0381166000908152600d6020526040812060068082015460078301546002909301549154600b549193929092019184916005919084028161080d57fe5b046004028161081857fe5b049050606460095482028161082957fe5b049050600a54818161083757fe5b04439390930392909202949350505050565b600254600160a01b900460ff16151560011461089e576040805162461bcd60e51b815260206004820152600f60248201526e497420646f65736e277420776f726b60881b604482015290519081900360640190fd5b60006108a9826107c9565b6002546040805163a9059cbb60e01b81526001600160a01b03868116600483015260248201859052915193945091169163a9059cbb916044808201926020929091908290030181600087803b15801561090157600080fd5b505af1158015610915573d6000803e3d6000fd5b505050506040513d602081101561092b57600080fd5b50506001600160a01b0382166000818152600d602090815260409182902043600690910181905582518581524292810183905283519294919391927f8b548bae3dbf9bdc33c0db3c252a4801d88257c2ffbc77c479dda6a773cd07d5929181900390910190a3505050565b6001600160a01b039081166000908152600d60205260409020600301541690565b600c81815481106109c457fe5b600091825260209091206008909102018054600182015460028301546003840154600485015460058601546006870154600790970154959750939592946001600160a01b03909216939092909188565b6001600160a01b03166000908152600d602052604090206002015490565b600d60205260009081526040902080546001820154600283015460038401546004850154600586015460068701546007909701549596949593946001600160a01b03909316939192909188565b60075481565b6000546001600160a01b03163314610adb576040805162461bcd60e51b81526020600482015260146024820152732737ba1030b71030b236b4b734b9ba3930ba37b960611b604482015290519081900360640190fd5b6000805b60115460ff82161015610b1b578360118260ff1681548110610afd57fe5b90600052602060002001541415610b1357600191505b600101610adf565b5060ff8116610b7557604080516020808201835284825260008681526010909152918220905190556011805460018101825591527f31ecc21a745e3968a04e9570e4425bc18fa8019c68028196b546d1669c200c68018390555b505050565b6000546001600160a01b03163314610bd3576040805162461bcd60e51b81526020600482015260176024820152764e6f7420616e2061646d696e6973747261746f72efbc8160481b604482015290519081900360640190fd5b6002546040805163a9059cbb60e01b81523360048201526024810184905290516001600160a01b039092169163a9059cbb916044808201926020929091908290030181600087803b158015610c2757600080fd5b505af1158015610c3b573d6000803e3d6000fd5b505050506040513d6020811015610b7557600080fd5b60085481565b6003546001600160a01b031681565b60045481565b600a5481565b60606011805480602002602001604051908101604052809291908181526020018280548015610cc057602002820191906000526020600020905b815481526020019060010190808311610cac575b5050505050905090565b6002546001600160a01b031681565b6000546001600160a01b03163314610d32576040805162461bcd60e51b81526020600482015260176024820152764e6f7420616e2061646d696e6973747261746f72efbc8160481b604482015290519081900360640190fd5b6001600160a01b039485166000908152600d6020526040902060028101949094556003840180546001600160a01b0319169390951692909217909355600482019290925560050155565b6001600160a01b03166000908152600d602052604090206005015490565b60118181548110610da757fe5b600091825260209091200154905081565b600254600160a01b900460ff161515600114610e0d576040805162461bcd60e51b815260206004820152600f60248201526e497420646f65736e277420776f726b60881b604482015290519081900360640190fd5b600154604080516370a0823160e01b815233600482015290516000926001600160a01b0316916370a08231916024808301926020929190829003018186803b158015610e5857600080fd5b505afa158015610e6c573d6000803e3d6000fd5b505050506040513d6020811015610e8257600080fd5b5051905083811015610ec55760405162461bcd60e51b815260040180806020018281038252602a815260200180611bda602a913960400191505060405180910390fd5b336000908152600d6020526040902054610f3a57600e805460018181019092557fbb7b4a454dc3493923482f07822329ed19e8244eff582cc204f8554c3620c3fd0180546001600160a01b031916339081179091556000908152600d6020526040902090815560058101849055436006909101555b6000546001600160a01b03163314610f7557336000908152600d60205260409020600301546001600160a01b0316610f7557610f758261196c565b336000908152600d602052604090206002015415610f9657610f9633610849565b336000908152600d60205260409020600301546001600160a01b031615610fdc57336000908152600d6020526040902060030154610fdc906001600160a01b0316610849565b600154604080516323b872dd60e01b81523360048201523060248201526044810187905290516001600160a01b03909216916323b872dd916064808201926020929091908290030181600087803b15801561103657600080fd5b505af115801561104a573d6000803e3d6000fd5b505050506040513d602081101561106057600080fd5b50506001600160a01b0382166000908152600d602052604081206007018054600a8704019055611091338683611a58565b336000818152600d602090815260409182902060018101889055600201805489019055815188815243918101919091524281830181905291519192879290917f3b2b5702dd0a4093ab16ff42c340876e8a58c9288fa495c3618455c4860ee64d919081900360600190a3505050505050565b600e818154811061111057fe5b6000918252602090912001546001600160a01b0316905081565b60095481565b600f8181548110610da757fe5b6001600160a01b03166000908152600d602052604090206001015490565b6000546001600160a01b031633146111b4576040805162461bcd60e51b81526020600482015260176024820152764e6f7420616e2061646d696e6973747261746f72efbc8160481b604482015290519081900360640190fd5b6001546040805163a9059cbb60e01b81523360048201526024810184905290516001600160a01b039092169163a9059cbb916044808201926020929091908290030181600087803b158015610c2757600080fd5b600254600160a01b900460ff1681565b6000546001600160a01b031681565b604080516064808252610ca0820190925260609182919060208201610c80803883390190505090506000805b600e548110156112f3576000600e828154811061126c57fe5b60009182526020808320909101546001600160a01b03908116808452600d90925260409092206003015490925081169087161480156112ae575060638360ff16105b156112ea5780848460ff16815181106112c357fe5b60200260200101906001600160a01b031690816001600160a01b0316815250506001830192505b50600101611253565b50909392505050565b6060600e805480602002602001604051908101604052809291908181526020018280548015610cc057602002820191906000526020600020905b81546001600160a01b03168152600190910190602001808311611336575050505050905090565b6000546001600160a01b031633146113b6576040805162461bcd60e51b81526020600482015260176024820152764e6f7420616e2061646d696e6973747261746f72efbc8160481b604482015290519081900360640190fd5b60028054911515600160a01b0260ff60a01b19909216919091179055565b60106020526000908152604090205481565b6001546001600160a01b031681565b600254600160a01b900460ff16151560011461144a576040805162461bcd60e51b815260206004820152600f60248201526e497420646f65736e277420776f726b60881b604482015290519081900360640190fd5b336000908152600d602052604090206002015482111561149b5760405162461bcd60e51b815260040180806020018281038252602a815260200180611bda602a913960400191505060405180910390fd5b60006114a633610849565b336000908152600d60205260409020600301546001600160a01b0316156114ec57336000908152600d60205260409020600301546114ec906001600160a01b0316610849565b6114f7338483611aae565b336000908152600d60205260409020600181018390556002810180548590039055600301546001600160a01b0316156115a357336000908152600d6020526040808220600301546001600160a01b0316808352912060070154600a8504111561157b576001600160a01b0381166000908152600d60205260408120600701556115a1565b6001600160a01b0381166000908152600d602052604090206007018054600a8604900390555b505b6001546040805163a9059cbb60e01b81523360048201526024810186905290516001600160a01b039092169163a9059cbb916044808201926020929091908290030181600087803b1580156115f757600080fd5b505af115801561160b573d6000803e3d6000fd5b505050506040513d602081101561162157600080fd5b505060408051848152426020820181905282519092859233927f2d665961b5acbf94054bda8cad0faac0679a03e83f274bad7e1970f89df04d8f929181900390910190a350505050565b600254600160a01b900460ff1615156001146116c0576040805162461bcd60e51b815260206004820152600f60248201526e497420646f65736e277420776f726b60881b604482015290519081900360640190fd5b336000908152600d602052604090206005015481116117105760405162461bcd60e51b8152600401808060200182810382526031815260200180611ba96031913960400191505060405180910390fd5b600754600a0a6101900282106117575760405162461bcd60e51b8152600401808060200182810382526024815260200180611b856024913960400191505060405180910390fd5b336000908152600d60205260409020600201546117b0576040805162461bcd60e51b8152602060048201526012602482015271596f752068617665206e6f20706c6564676560701b604482015290519081900360640190fd5b6002546040805163a9059cbb60e01b81523360048201526024810185905290516001600160a01b039092169163a9059cbb916044808201926020929091908290030181600087803b15801561180457600080fd5b505af1158015611818573d6000803e3d6000fd5b505050506040513d602081101561182e57600080fd5b5050336000818152600d602090815260409182902060050184905581518581524291810182905282519193859390927f6973ec598d24d4a755595dd071fba9bf7198c042b8370605d1bf203f5db21e789281900390910190a3505050565b600254604080516370a0823160e01b81526001600160a01b038481166004830152915160009392909216916370a0823191602480820192602092909190829003018186803b1580156118dd57600080fd5b505afa1580156118f1573d6000803e3d6000fd5b505050506040513d602081101561190757600080fd5b505192915050565b600b5481565b600154604080516370a0823160e01b81526001600160a01b038481166004830152915160009392909216916370a0823191602480820192602092909190829003018186803b1580156118dd57600080fd5b60065481565b6001600160a01b0381163314156119ca576040805162461bcd60e51b815260206004820152601960248201527f596f752063616e277420696e7669746520796f757273656c6600000000000000604482015290519081900360640190fd5b6001600160a01b038181166000908152600d602052604090206003015416331415611a265760405162461bcd60e51b8152600401808060200182810382526029815260200180611b5c6029913960400191505060405180910390fd5b336000908152600d6020526040902060030180546001600160a01b0319166001600160a01b0392909216919091179055565b6001600160a01b038084166000908152600d602052604090206004810180548501905560030154168015801590611a925750600a8260ff16105b15611aa857600182019150611aa8818484611a58565b50505050565b6001600160a01b0383166000908152600d6020526040902060040154821115611af2576001600160a01b0383166000908152600d6020526040812060040155611b15565b6001600160a01b0383166000908152600d60205260409020600401805483900390555b6001600160a01b038084166000908152600d6020526040902060030154168015801590611b455750600a8260ff16105b15611aa857600182019150611aa8818484611aae56fe596f7572207375626f7264696e617465732063616e277420626520796f7572207375706572696f727354686520696e636f6d65207265636569766564206973206d6f7265207468616e203330305468652064617465206f6620636f6c6c656374696f6e206973206c657373207468616e20746865206c6173742074696d6545524332303a206d7367207472616e7366657220616d6f756e7420657863656564732062616c616e6365a265627a7a723158208ad5210c9ba67e292f78160eb99c5529e55abc298f6d024aad70840fff0146b964736f6c63430005110032"}}