{
  "opcodeHash": "0x710e490d47738f0bf59f0e37200d206ab79cf2951517fc23c98688832c20cf4e",
  "metalessHash": "0xeafbd9e8f3b474b351b90822c61902785be9ed9992d4d62c753e4cddb0e4b77a",
  "runtimeHash": "0xa5ba2bd9883343447e06b27bed2ff0a567c1fc3f5744d24a63d976711666dda6",
  "encodedMetadata": [
    {
      "ipfs": "/ipfs/QmWSk2WQDC1F337X9av4pA3QCrjdqKuRq7ynarnAExs5Wj",
      "solc": "0.8.7"
    }
  ],
  "abi": [
    {
      "inputs": [],
      "stateMutability": "nonpayable",
      "type": "constructor"
    },
    {
      "anonymous": false,
      "inputs": [
        {
          "indexed": true,
          "internalType": "address",
          "name": "owner",
          "type": "address"
        },
        {
          "indexed": true,
          "internalType": "address",
          "name": "approved",
          "type": "address"
        },
        {
          "indexed": true,
          "internalType": "uint256",
          "name": "tokenId",
          "type": "uint256"
        }
      ],
      "name": "Approval",
      "type": "event"
    },
    {
      "anonymous": false,
      "inputs": [
        {
          "indexed": true,
          "internalType": "address",
          "name": "owner",
          "type": "address"
        },
        {
          "indexed": true,
          "internalType": "address",
          "name": "operator",
          "type": "address"
        },
        {
          "indexed": false,
          "internalType": "bool",
          "name": "approved",
          "type": "bool"
        }
      ],
      "name": "ApprovalForAll",
      "type": "event"
    },
    {
      "anonymous": false,
      "inputs": [
        {
          "indexed": true,
          "internalType": "address",
          "name": "previousOwner",
          "type": "address"
        },
        {
          "indexed": true,
          "internalType": "address",
          "name": "newOwner",
          "type": "address"
        }
      ],
      "name": "OwnershipTransferred",
      "type": "event"
    },
    {
      "anonymous": false,
      "inputs": [
        {
          "indexed": true,
          "internalType": "address",
          "name": "from",
          "type": "address"
        },
        {
          "indexed": true,
          "internalType": "address",
          "name": "to",
          "type": "address"
        },
        {
          "indexed": true,
          "internalType": "uint256",
          "name": "tokenId",
          "type": "uint256"
        }
      ],
      "name": "Transfer",
      "type": "event"
    },
    {
      "inputs": [],
      "name": "TVC_MAX",
      "outputs": [
        {
          "internalType": "uint256",
          "name": "",
          "type": "uint256"
        }
      ],
      "stateMutability": "view",
      "type": "function"
    },
    {
      "inputs": [],
      "name": "TVC_MINT",
      "outputs": [
        {
          "internalType": "uint256",
          "name": "",
          "type": "uint256"
        }
      ],
      "stateMutability": "view",
      "type": "function"
    },
    {
      "inputs": [],
      "name": "TVC_PRICE",
      "outputs": [
        {
          "internalType": "uint256",
          "name": "",
          "type": "uint256"
        }
      ],
      "stateMutability": "view",
      "type": "function"
    },
    {
      "inputs": [
        {
          "internalType": "address",
          "name": "to",
          "type": "address"
        },
        {
          "internalType": "uint256",
          "name": "tokenId",
          "type": "uint256"
        }
      ],
      "name": "approve",
      "outputs": [],
      "stateMutability": "nonpayable",
      "type": "function"
    },
    {
      "inputs": [
        {
          "internalType": "address",
          "name": "owner",
          "type": "address"
        }
      ],
      "name": "balanceOf",
      "outputs": [
        {
          "internalType": "uint256",
          "name": "",
          "type": "uint256"
        }
      ],
      "stateMutability": "view",
      "type": "function"
    },
    {
      "inputs": [
        {
          "internalType": "bytes32",
          "name": "hash",
          "type": "bytes32"
        },
        {
          "internalType": "bytes",
          "name": "signature",
          "type": "bytes"
        },
        {
          "internalType": "string",
          "name": "nonce",
          "type": "string"
        },
        {
          "internalType": "uint256",
          "name": "tokenQuantity",
          "type": "uint256"
        }
      ],
      "name": "buy",
      "outputs": [],
      "stateMutability": "payable",
      "type": "function"
    },
    {
      "inputs": [
        {
          "internalType": "address",
          "name": "recipient",
          "type": "address"
        },
        {
          "internalType": "uint256",
          "name": "amount",
          "type": "uint256"
        }
      ],
      "name": "claimReserved",
      "outputs": [],
      "stateMutability": "nonpayable",
      "type": "function"
    },
    {
      "inputs": [],
      "name": "contractURI",
      "outputs": [
        {
          "internalType": "string",
          "name": "",
          "type": "string"
        }
      ],
      "stateMutability": "view",
      "type": "function"
    },
    {
      "inputs": [
        {
          "internalType": "uint256",
          "name": "tokenId",
          "type": "uint256"
        }
      ],
      "name": "getApproved",
      "outputs": [
        {
          "internalType": "address",
          "name": "",
          "type": "address"
        }
      ],
      "stateMutability": "view",
      "type": "function"
    },
    {
      "inputs": [
        {
          "internalType": "address[]",
          "name": "receivers",
          "type": "address[]"
        }
      ],
      "name": "gift",
      "outputs": [],
      "stateMutability": "nonpayable",
      "type": "function"
    },
    {
      "inputs": [],
      "name": "giftedAmount",
      "outputs": [
        {
          "internalType": "uint256",
          "name": "",
          "type": "uint256"
        }
      ],
      "stateMutability": "view",
      "type": "function"
    },
    {
      "inputs": [
        {
          "internalType": "address",
          "name": "owner",
          "type": "address"
        },
        {
          "internalType": "address",
          "name": "operator",
          "type": "address"
        }
      ],
      "name": "isApprovedForAll",
      "outputs": [
        {
          "internalType": "bool",
          "name": "",
          "type": "bool"
        }
      ],
      "stateMutability": "view",
      "type": "function"
    },
    {
      "inputs": [
        {
          "internalType": "uint256",
          "name": "",
          "type": "uint256"
        },
        {
          "internalType": "address",
          "name": "",
          "type": "address"
        }
      ],
      "name": "listPurchases",
      "outputs": [
        {
          "internalType": "uint256",
          "name": "",
          "type": "uint256"
        }
      ],
      "stateMutability": "view",
      "type": "function"
    },
    {
      "inputs": [],
      "name": "lockMetadata",
      "outputs": [],
      "stateMutability": "nonpayable",
      "type": "function"
    },
    {
      "inputs": [],
      "name": "locked",
      "outputs": [
        {
          "internalType": "bool",
          "name": "",
          "type": "bool"
        }
      ],
      "stateMutability": "view",
      "type": "function"
    },
    {
      "inputs": [],
      "name": "name",
      "outputs": [
        {
          "internalType": "string",
          "name": "",
          "type": "string"
        }
      ],
      "stateMutability": "view",
      "type": "function"
    },
    {
      "inputs": [],
      "name": "owner",
      "outputs": [
        {
          "internalType": "address",
          "name": "",
          "type": "address"
        }
      ],
      "stateMutability": "view",
      "type": "function"
    },
    {
      "inputs": [
        {
          "internalType": "uint256",
          "name": "tokenId",
          "type": "uint256"
        }
      ],
      "name": "ownerOf",
      "outputs": [
        {
          "internalType": "address",
          "name": "",
          "type": "address"
        }
      ],
      "stateMutability": "view",
      "type": "function"
    },
    {
      "inputs": [],
      "name": "phase",
      "outputs": [
        {
          "internalType": "uint256",
          "name": "",
          "type": "uint256"
        }
      ],
      "stateMutability": "view",
      "type": "function"
    },
    {
      "inputs": [],
      "name": "proof",
      "outputs": [
        {
          "internalType": "string",
          "name": "",
          "type": "string"
        }
      ],
      "stateMutability": "view",
      "type": "function"
    },
    {
      "inputs": [],
      "name": "publicAmountMinted",
      "outputs": [
        {
          "internalType": "uint256",
          "name": "",
          "type": "uint256"
        }
      ],
      "stateMutability": "view",
      "type": "function"
    },
    {
      "inputs": [
        {
          "internalType": "address",
          "name": "addr",
          "type": "address"
        }
      ],
      "name": "purchasedCount",
      "outputs": [
        {
          "internalType": "uint256",
          "name": "",
          "type": "uint256"
        }
      ],
      "stateMutability": "view",
      "type": "function"
    },
    {
      "inputs": [
        {
          "internalType": "address",
          "name": "addr",
          "type": "address"
        }
      ],
      "name": "purchasedTotal",
      "outputs": [
        {
          "internalType": "uint256",
          "name": "",
          "type": "uint256"
        }
      ],
      "stateMutability": "view",
      "type": "function"
    },
    {
      "inputs": [],
      "name": "renounceOwnership",
      "outputs": [],
      "stateMutability": "nonpayable",
      "type": "function"
    },
    {
      "inputs": [
        {
          "internalType": "address",
          "name": "from",
          "type": "address"
        },
        {
          "internalType": "address",
          "name": "to",
          "type": "address"
        },
        {
          "internalType": "uint256",
          "name": "tokenId",
          "type": "uint256"
        }
      ],
      "name": "safeTransferFrom",
      "outputs": [],
      "stateMutability": "nonpayable",
      "type": "function"
    },
    {
      "inputs": [
        {
          "internalType": "address",
          "name": "from",
          "type": "address"
        },
        {
          "internalType": "address",
          "name": "to",
          "type": "address"
        },
        {
          "internalType": "uint256",
          "name": "tokenId",
          "type": "uint256"
        },
        {
          "internalType": "bytes",
          "name": "_data",
          "type": "bytes"
        }
      ],
      "name": "safeTransferFrom",
      "outputs": [],
      "stateMutability": "nonpayable",
      "type": "function"
    },
    {
      "inputs": [],
      "name": "saleLive",
      "outputs": [
        {
          "internalType": "bool",
          "name": "",
          "type": "bool"
        }
      ],
      "stateMutability": "view",
      "type": "function"
    },
    {
      "inputs": [
        {
          "internalType": "address",
          "name": "operator",
          "type": "address"
        },
        {
          "internalType": "bool",
          "name": "approved",
          "type": "bool"
        }
      ],
      "name": "setApprovalForAll",
      "outputs": [],
      "stateMutability": "nonpayable",
      "type": "function"
    },
    {
      "inputs": [
        {
          "internalType": "string",
          "name": "URI",
          "type": "string"
        }
      ],
      "name": "setBaseURI",
      "outputs": [],
      "stateMutability": "nonpayable",
      "type": "function"
    },
    {
      "inputs": [
        {
          "internalType": "string",
          "name": "URI",
          "type": "string"
        }
      ],
      "name": "setContractURI",
      "outputs": [],
      "stateMutability": "nonpayable",
      "type": "function"
    },
    {
      "inputs": [
        {
          "internalType": "uint256",
          "name": "max",
          "type": "uint256"
        },
        {
          "internalType": "uint256",
          "name": "price",
          "type": "uint256"
        },
        {
          "internalType": "uint256",
          "name": "mint",
          "type": "uint256"
        },
        {
          "internalType": "uint256",
          "name": "ph",
          "type": "uint256"
        }
      ],
      "name": "setPhase",
      "outputs": [],
      "stateMutability": "nonpayable",
      "type": "function"
    },
    {
      "inputs": [
        {
          "internalType": "string",
          "name": "hash",
          "type": "string"
        }
      ],
      "name": "setProvenanceHash",
      "outputs": [],
      "stateMutability": "nonpayable",
      "type": "function"
    },
    {
      "inputs": [
        {
          "internalType": "address",
          "name": "addr",
          "type": "address"
        }
      ],
      "name": "setSignerAddress",
      "outputs": [],
      "stateMutability": "nonpayable",
      "type": "function"
    },
    {
      "inputs": [
        {
          "internalType": "bytes4",
          "name": "interfaceId",
          "type": "bytes4"
        }
      ],
      "name": "supportsInterface",
      "outputs": [
        {
          "internalType": "bool",
          "name": "",
          "type": "bool"
        }
      ],
      "stateMutability": "view",
      "type": "function"
    },
    {
      "inputs": [],
      "name": "symbol",
      "outputs": [
        {
          "internalType": "string",
          "name": "",
          "type": "string"
        }
      ],
      "stateMutability": "view",
      "type": "function"
    },
    {
      "inputs": [],
      "name": "toggleSaleStatus",
      "outputs": [],
      "stateMutability": "nonpayable",
      "type": "function"
    },
    {
      "inputs": [
        {
          "internalType": "uint256",
          "name": "index",
          "type": "uint256"
        }
      ],
      "name": "tokenByIndex",
      "outputs": [
        {
          "internalType": "uint256",
          "name": "",
          "type": "uint256"
        }
      ],
      "stateMutability": "view",
      "type": "function"
    },
    {
      "inputs": [
        {
          "internalType": "address",
          "name": "owner",
          "type": "address"
        },
        {
          "internalType": "uint256",
          "name": "index",
          "type": "uint256"
        }
      ],
      "name": "tokenOfOwnerByIndex",
      "outputs": [
        {
          "internalType": "uint256",
          "name": "",
          "type": "uint256"
        }
      ],
      "stateMutability": "view",
      "type": "function"
    },
    {
      "inputs": [
        {
          "internalType": "uint256",
          "name": "tokenId",
          "type": "uint256"
        }
      ],
      "name": "tokenURI",
      "outputs": [
        {
          "internalType": "string",
          "name": "",
          "type": "string"
        }
      ],
      "stateMutability": "view",
      "type": "function"
    },
    {
      "inputs": [],
      "name": "totalSupply",
      "outputs": [
        {
          "internalType": "uint256",
          "name": "",
          "type": "uint256"
        }
      ],
      "stateMutability": "view",
      "type": "function"
    },
    {
      "inputs": [
        {
          "internalType": "address",
          "name": "from",
          "type": "address"
        },
        {
          "internalType": "address",
          "name": "to",
          "type": "address"
        },
        {
          "internalType": "uint256",
          "name": "tokenId",
          "type": "uint256"
        }
      ],
      "name": "transferFrom",
      "outputs": [],
      "stateMutability": "nonpayable",
      "type": "function"
    },
    {
      "inputs": [
        {
          "internalType": "address",
          "name": "newOwner",
          "type": "address"
        }
      ],
      "name": "transferOwnership",
      "outputs": [],
      "stateMutability": "nonpayable",
      "type": "function"
    },
    {
      "inputs": [],
      "name": "withdraw",
      "outputs": [],
      "stateMutability": "nonpayable",
      "type": "function"
    }
  ],
  "bytecode": {
    "object": "6105dc600b5566b1a2bc2ec50000600c556002600d556001600e5560e060405260246080818152906200317160a039805162000044916012916020909101906200017c565b50601380546001600160a01b031990811673a65159c939fbed795164bb40f7507d9e5d54ff2217909155601480549091167312342b9f93da1bd4b0154eb8a033650cc1b4ba341790553480156200009a57600080fd5b50604080518082018252600f81526e2a3432902b34b5b4b7339021b63ab160891b60208083019182528351808501909452600384526254564360e81b908401528151919291620000ed916000916200017c565b508051620001039060019060208401906200017c565b505050620001206200011a6200012660201b60201c565b6200012a565b6200025f565b3390565b600a80546001600160a01b038381166001600160a01b0319831681179093556040519116919082907f8be0079c531659141344cd1fd0a4f28419497f9722a3daafe3b4186f6b6457e090600090a35050565b8280546200018a9062000222565b90600052602060002090601f016020900481019282620001ae5760008555620001f9565b82601f10620001c957805160ff1916838001178555620001f9565b82800160010185558215620001f9579182015b82811115620001f9578251825591602001919060010190620001dc565b50620002079291506200020b565b5090565b5b808211156200020757600081556001016200020c565b600181811c908216806200023757607f821691505b602082108114156200025957634e487b7160e01b600052602260045260246000fd5b50919050565b612f02806200026f6000396000f3fe60806040526004361061025c5760003560e01c806370a0823111610144578063ba2a0655116100b6578063e081b7811161007a578063e081b781146106d6578063e8a3d485146106f0578063e985e9c514610705578063eff61baf1461074e578063f2fde38b14610786578063faf924cf146107a657600080fd5b8063ba2a065514610613578063c63530f114610657578063c87b56dd14610677578063cf30901214610697578063d699fe3d146106b657600080fd5b806395d89b411161010857806395d89b4114610580578063989bdbb6146105955780639ec70f19146105aa578063a22cb465146105bd578063b1c9fe6e146105dd578063b88d4fde146105f357600080fd5b806370a08231146104f7578063715018a6146105175780638da5cb5b1461052c578063938e3d7b1461054a578063940f1ada1461056a57600080fd5b806318160ddd116101dd5780632f745c59116101a15780632f745c59146104425780633ccfd60b1461046257806342842e0e146104775780634f6ccce71461049757806355f804b3146104b75780636352211e146104d757600080fd5b806318160ddd146103c15780631b57190e146103d65780631b5757f2146103ec57806323b872dd1461040c57806326a72d7b1461042c57600080fd5b8063081812fc11610224578063081812fc14610313578063095ea7b31461034b5780630f89be121461036b5780631096952314610381578063163e1e61146103a157600080fd5b806301ffc9a714610261578063046dc16614610296578063049c5c49146102b8578063053adf86146102cd57806306fdde03146102f1575b600080fd5b34801561026d57600080fd5b5061028161027c36600461297c565b6107bb565b60405190151581526020015b60405180910390f35b3480156102a257600080fd5b506102b66102b1366004612726565b6107e6565b005b3480156102c457600080fd5b506102b661083b565b3480156102d957600080fd5b506102e3600c5481565b60405190815260200161028d565b3480156102fd57600080fd5b50610306610879565b60405161028d9190612c0b565b34801561031f57600080fd5b5061033361032e366004612a16565b61090b565b6040516001600160a01b03909116815260200161028d565b34801561035757600080fd5b506102b6610366366004612854565b6109a0565b34801561037757600080fd5b506102e3600d5481565b34801561038d57600080fd5b506102b661039c3660046129b6565b610ab6565b3480156103ad57600080fd5b506102b66103bc36600461287e565b610b14565b3480156103cd57600080fd5b506008546102e3565b3480156103e257600080fd5b506102e360165481565b3480156103f857600080fd5b506102b6610407366004612854565b610bfe565b34801561041857600080fd5b506102b6610427366004612774565b610cb7565b34801561043857600080fd5b506102e3600b5481565b34801561044e57600080fd5b506102e361045d366004612854565b610ce8565b34801561046e57600080fd5b506102b6610d7e565b34801561048357600080fd5b506102b6610492366004612774565b610e1a565b3480156104a357600080fd5b506102e36104b2366004612a16565b610e35565b3480156104c357600080fd5b506102b66104d23660046129b6565b610ec8565b3480156104e357600080fd5b506103336104f2366004612a16565b610f26565b34801561050357600080fd5b506102e3610512366004612726565b610f9d565b34801561052357600080fd5b506102b6611024565b34801561053857600080fd5b50600a546001600160a01b0316610333565b34801561055657600080fd5b506102b66105653660046129b6565b61105a565b34801561057657600080fd5b506102e360175481565b34801561058c57600080fd5b506103066110b8565b3480156105a157600080fd5b506102b66110c7565b6102b66105b83660046128f3565b611102565b3480156105c957600080fd5b506102b66105d8366004612818565b611464565b3480156105e957600080fd5b506102e3600e5481565b3480156105ff57600080fd5b506102b661060e3660046127b0565b611529565b34801561061f57600080fd5b506102e361062e366004612726565b600e5460009081526010602090815260408083206001600160a01b039094168352929052205490565b34801561066357600080fd5b506102e3610672366004612726565b611561565b34801561068357600080fd5b50610306610692366004612a16565b6115b8565b3480156106a357600080fd5b5060185461028190610100900460ff1681565b3480156106c257600080fd5b506102b66106d1366004612a52565b611651565b3480156106e257600080fd5b506018546102819060ff1681565b3480156106fc57600080fd5b506103066116b7565b34801561071157600080fd5b50610281610720366004612741565b6001600160a01b03918216600090815260056020908152604080832093909416825291909152205460ff1690565b34801561075a57600080fd5b506102e3610769366004612a2f565b601060209081526000928352604080842090915290825290205481565b34801561079257600080fd5b506102b66107a1366004612726565b6116c6565b3480156107b257600080fd5b5061030661175e565b60006001600160e01b0319821663780e9d6360e01b14806107e057506107e0826117ec565b92915050565b600a546001600160a01b031633146108195760405162461bcd60e51b815260040161081090612c70565b60405180910390fd5b601480546001600160a01b0319166001600160a01b0392909216919091179055565b600a546001600160a01b031633146108655760405162461bcd60e51b815260040161081090612c70565b6018805460ff19811660ff90911615179055565b60606000805461088890612dc8565b80601f01602080910402602001604051908101604052809291908181526020018280546108b490612dc8565b80156109015780601f106108d657610100808354040283529160200191610901565b820191906000526020600020905b8154815290600101906020018083116108e457829003601f168201915b5050505050905090565b6000818152600260205260408120546001600160a01b03166109845760405162461bcd60e51b815260206004820152602c60248201527f4552433732313a20617070726f76656420717565727920666f72206e6f6e657860448201526b34b9ba32b73a103a37b5b2b760a11b6064820152608401610810565b506000908152600460205260409020546001600160a01b031690565b60006109ab82610f26565b9050806001600160a01b0316836001600160a01b03161415610a195760405162461bcd60e51b815260206004820152602160248201527f4552433732313a20617070726f76616c20746f2063757272656e74206f776e656044820152603960f91b6064820152608401610810565b336001600160a01b0382161480610a355750610a358133610720565b610aa75760405162461bcd60e51b815260206004820152603860248201527f4552433732313a20617070726f76652063616c6c6572206973206e6f74206f7760448201527f6e6572206e6f7220617070726f76656420666f7220616c6c00000000000000006064820152608401610810565b610ab1838361183c565b505050565b600a546001600160a01b03163314610ae05760405162461bcd60e51b815260040161081090612c70565b601854610100900460ff1615610b085760405162461bcd60e51b815260040161081090612ca5565b610ab1601583836125d4565b600a546001600160a01b03163314610b3e5760405162461bcd60e51b815260040161081090612c70565b600b5481610b4b60085490565b610b559190612d3a565b1115610b8e5760405162461bcd60e51b815260206004820152600860248201526713505617d352539560c21b6044820152606401610810565b60005b81811015610ab15760168054906000610ba983612e03565b9190505550610bec838383818110610bc357610bc3612e8a565b9050602002016020810190610bd89190612726565b6008545b610be7906001612d3a565b6118aa565b80610bf681612e03565b915050610b91565b600a546001600160a01b03163314610c285760405162461bcd60e51b815260040161081090612c70565b600b5481610c3560085490565b610c3f9190612d3a565b1115610c785760405162461bcd60e51b815260206004820152600860248201526713505617d352539560c21b6044820152606401610810565b60005b81811015610ab15760168054906000610c9383612e03565b9190505550610ca583610bdc60085490565b80610caf81612e03565b915050610c7b565b610cc133826118c8565b610cdd5760405162461bcd60e51b815260040161081090612ce9565b610ab18383836119bf565b6000610cf383610f9d565b8210610d555760405162461bcd60e51b815260206004820152602b60248201527f455243373231456e756d657261626c653a206f776e657220696e646578206f7560448201526a74206f6620626f756e647360a81b6064820152608401610810565b506001600160a01b03919091166000908152600660209081526040808320938352929052205490565b600a546001600160a01b03163314610da85760405162461bcd60e51b815260040161081090612c70565b6013546001600160a01b03166108fc610dc2600547612d52565b6040518115909202916000818181858888f19350505050158015610dea573d6000803e3d6000fd5b5060405133904780156108fc02916000818181858888f19350505050158015610e17573d6000803e3d6000fd5b50565b610ab183838360405180602001604052806000815250611529565b6000610e4060085490565b8210610ea35760405162461bcd60e51b815260206004820152602c60248201527f455243373231456e756d657261626c653a20676c6f62616c20696e646578206f60448201526b7574206f6620626f756e647360a01b6064820152608401610810565b60088281548110610eb657610eb6612e8a565b90600052602060002001549050919050565b600a546001600160a01b03163314610ef25760405162461bcd60e51b815260040161081090612c70565b601854610100900460ff1615610f1a5760405162461bcd60e51b815260040161081090612ca5565b610ab1601283836125d4565b6000818152600260205260408120546001600160a01b0316806107e05760405162461bcd60e51b815260206004820152602960248201527f4552433732313a206f776e657220717565727920666f72206e6f6e657869737460448201526832b73a103a37b5b2b760b91b6064820152608401610810565b60006001600160a01b0382166110085760405162461bcd60e51b815260206004820152602a60248201527f4552433732313a2062616c616e636520717565727920666f7220746865207a65604482015269726f206164647265737360b01b6064820152608401610810565b506001600160a01b031660009081526003602052604090205490565b600a546001600160a01b0316331461104e5760405162461bcd60e51b815260040161081090612c70565b6110586000611b6a565b565b600a546001600160a01b031633146110845760405162461bcd60e51b815260040161081090612c70565b601854610100900460ff16156110ac5760405162461bcd60e51b815260040161081090612ca5565b610ab1601183836125d4565b60606001805461088890612dc8565b600a546001600160a01b031633146110f15760405162461bcd60e51b815260040161081090612c70565b6018805461ff001916610100179055565b60185460ff166111425760405162461bcd60e51b815260206004820152600b60248201526a14d0531157d0d313d4d15160aa1b6044820152606401610810565b61114c8484611bbc565b6111915760405162461bcd60e51b81526020600482015260166024820152751112549150d517d352539517d11254d0531313d5d15160521b6044820152606401610810565b600f826040516111a19190612b0b565b9081526040519081900360200190205460ff16156111ed5760405162461bcd60e51b8152602060048201526009602482015268121054d217d554d15160ba1b6044820152606401610810565b836111f9338385611be0565b146112325760405162461bcd60e51b8152602060048201526009602482015268121054d217d190525360ba1b6044820152606401610810565b600b54600854106112745760405162461bcd60e51b815260206004820152600c60248201526b4f55545f4f465f53544f434b60a01b6044820152606401610810565b600b54816017546112859190612d3a565b11156112c35760405162461bcd60e51b815260206004820152600d60248201526c4558434545445f5055424c494360981b6044820152606401610810565b600d54600e5460009081526010602090815260408083203384529091529020546112ee908390612d3a565b111561132b5760405162461bcd60e51b815260206004820152600c60248201526b4558434545445f414c4c4f4360a01b6044820152606401610810565b600d5481111561136f5760405162461bcd60e51b815260206004820152600f60248201526e115610d1515117d51590d7d3525395608a1b6044820152606401610810565b3481600c5461137e9190612d66565b11156113bf5760405162461bcd60e51b815260206004820152601060248201526f0929ca6aa8c8c9286928a9ca8be8aa8960831b6044820152606401610810565b60005b8181101561142b57601780549060006113da83612e03565b9091555050600e546000908152601060209081526040808320338452909152812080549161140783612e03565b919050555061141933610bdc60085490565b8061142381612e03565b9150506113c2565b506001600f8360405161143e9190612b0b565b908152604051908190036020019020805491151560ff1990921691909117905550505050565b6001600160a01b0382163314156114bd5760405162461bcd60e51b815260206004820152601960248201527f4552433732313a20617070726f766520746f2063616c6c6572000000000000006044820152606401610810565b3360008181526005602090815260408083206001600160a01b03871680855290835292819020805460ff191686151590811790915590519081529192917f17307eab39ab6107e8899845ad3d59bd9653f200f220920489ca2b5937696c31910160405180910390a35050565b61153333836118c8565b61154f5760405162461bcd60e51b815260040161081090612ce9565b61155b84848484611c62565b50505050565b60008060015b600e5481116115b15760008181526010602090815260408083206001600160a01b038816845290915290205461159d9083612d3a565b9150806115a981612e03565b915050611567565b5092915050565b6000818152600260205260409020546060906001600160a01b031661161f5760405162461bcd60e51b815260206004820152601f60248201527f43616e6e6f74207175657279206e6f6e2d6578697374656e7420746f6b656e006044820152606401610810565b601261162a83611c95565b60405160200161163b929190612b27565b6040516020818303038152906040529050919050565b600a546001600160a01b0316331461167b5760405162461bcd60e51b815260040161081090612c70565b601854610100900460ff16156116a35760405162461bcd60e51b815260040161081090612ca5565b600b93909355600c91909155600d55600e55565b60606011805461088890612dc8565b600a546001600160a01b031633146116f05760405162461bcd60e51b815260040161081090612c70565b6001600160a01b0381166117555760405162461bcd60e51b815260206004820152602660248201527f4f776e61626c653a206e6577206f776e657220697320746865207a65726f206160448201526564647265737360d01b6064820152608401610810565b610e1781611b6a565b6015805461176b90612dc8565b80601f016020809104026020016040519081016040528092919081815260200182805461179790612dc8565b80156117e45780601f106117b9576101008083540402835291602001916117e4565b820191906000526020600020905b8154815290600101906020018083116117c757829003601f168201915b505050505081565b60006001600160e01b031982166380ac58cd60e01b148061181d57506001600160e01b03198216635b5e139f60e01b145b806107e057506301ffc9a760e01b6001600160e01b03198316146107e0565b600081815260046020526040902080546001600160a01b0319166001600160a01b038416908117909155819061187182610f26565b6001600160a01b03167f8c5be1e5ebec7d5bd14f71427d1e84f3dd0314c0f7b2291e5b200ac8c7c3b92560405160405180910390a45050565b6118c4828260405180602001604052806000815250611d93565b5050565b6000818152600260205260408120546001600160a01b03166119415760405162461bcd60e51b815260206004820152602c60248201527f4552433732313a206f70657261746f7220717565727920666f72206e6f6e657860448201526b34b9ba32b73a103a37b5b2b760a11b6064820152608401610810565b600061194c83610f26565b9050806001600160a01b0316846001600160a01b031614806119875750836001600160a01b031661197c8461090b565b6001600160a01b0316145b806119b757506001600160a01b0380821660009081526005602090815260408083209388168352929052205460ff165b949350505050565b826001600160a01b03166119d282610f26565b6001600160a01b031614611a3a5760405162461bcd60e51b815260206004820152602960248201527f4552433732313a207472616e73666572206f6620746f6b656e2074686174206960448201526839903737ba1037bbb760b91b6064820152608401610810565b6001600160a01b038216611a9c5760405162461bcd60e51b8152602060048201526024808201527f4552433732313a207472616e7366657220746f20746865207a65726f206164646044820152637265737360e01b6064820152608401610810565b611aa7838383611dc6565b611ab260008261183c565b6001600160a01b0383166000908152600360205260408120805460019290611adb908490612d85565b90915550506001600160a01b0382166000908152600360205260408120805460019290611b09908490612d3a565b909155505060008181526002602052604080822080546001600160a01b0319166001600160a01b0386811691821790925591518493918716917fddf252ad1be2c89b69c2b068fc378daa952ba7f163c4a11628f55a4df523b3ef91a4505050565b600a80546001600160a01b038381166001600160a01b0319831681179093556040519116919082907f8be0079c531659141344cd1fd0a4f28419497f9722a3daafe3b4186f6b6457e090600090a35050565b6000611bc88383611e7e565b6014546001600160a01b039182169116149392505050565b600080848484604051602001611bf893929190612acc565b60408051601f198184030181529082905280516020918201207f19457468657265756d205369676e6564204d6573736167653a0a33320000000091830191909152603c820152605c0160408051808303601f19018152919052805160209091012095945050505050565b611c6d8484846119bf565b611c7984848484611ea2565b61155b5760405162461bcd60e51b815260040161081090612c1e565b606081611cb95750506040805180820190915260018152600360fc1b602082015290565b8160005b8115611ce35780611ccd81612e03565b9150611cdc9050600a83612d52565b9150611cbd565b60008167ffffffffffffffff811115611cfe57611cfe612ea0565b6040519080825280601f01601f191660200182016040528015611d28576020820181803683370190505b5090505b84156119b757611d3d600183612d85565b9150611d4a600a86612e1e565b611d55906030612d3a565b60f81b818381518110611d6a57611d6a612e8a565b60200101906001600160f81b031916908160001a905350611d8c600a86612d52565b9450611d2c565b611d9d8383611faf565b611daa6000848484611ea2565b610ab15760405162461bcd60e51b815260040161081090612c1e565b6001600160a01b038316611e2157611e1c81600880546000838152600960205260408120829055600182018355919091527ff3f7a9fe364faab93b216da50a3214154f22a0a2b415b23a84c8169e8b636ee30155565b611e44565b816001600160a01b0316836001600160a01b031614611e4457611e4483826120fd565b6001600160a01b038216611e5b57610ab18161219a565b826001600160a01b0316826001600160a01b031614610ab157610ab18282612249565b6000806000611e8d858561228d565b91509150611e9a816122fd565b509392505050565b60006001600160a01b0384163b15611fa457604051630a85bd0160e11b81526001600160a01b0385169063150b7a0290611ee6903390899088908890600401612bce565b602060405180830381600087803b158015611f0057600080fd5b505af1925050508015611f30575060408051601f3d908101601f19168201909252611f2d91810190612999565b60015b611f8a573d808015611f5e576040519150601f19603f3d011682016040523d82523d6000602084013e611f63565b606091505b508051611f825760405162461bcd60e51b815260040161081090612c1e565b805181602001fd5b6001600160e01b031916630a85bd0160e11b1490506119b7565b506001949350505050565b6001600160a01b0382166120055760405162461bcd60e51b815260206004820181905260248201527f4552433732313a206d696e7420746f20746865207a65726f20616464726573736044820152606401610810565b6000818152600260205260409020546001600160a01b03161561206a5760405162461bcd60e51b815260206004820152601c60248201527f4552433732313a20746f6b656e20616c7265616479206d696e746564000000006044820152606401610810565b61207660008383611dc6565b6001600160a01b038216600090815260036020526040812080546001929061209f908490612d3a565b909155505060008181526002602052604080822080546001600160a01b0319166001600160a01b03861690811790915590518392907fddf252ad1be2c89b69c2b068fc378daa952ba7f163c4a11628f55a4df523b3ef908290a45050565b6000600161210a84610f9d565b6121149190612d85565b600083815260076020526040902054909150808214612167576001600160a01b03841660009081526006602090815260408083208584528252808320548484528184208190558352600790915290208190555b5060009182526007602090815260408084208490556001600160a01b039094168352600681528383209183525290812055565b6008546000906121ac90600190612d85565b600083815260096020526040812054600880549394509092849081106121d4576121d4612e8a565b9060005260206000200154905080600883815481106121f5576121f5612e8a565b600091825260208083209091019290925582815260099091526040808220849055858252812055600880548061222d5761222d612e74565b6001900381819060005260206000200160009055905550505050565b600061225483610f9d565b6001600160a01b039093166000908152600660209081526040808320868452825280832085905593825260079052919091209190915550565b6000808251604114156122c45760208301516040840151606085015160001a6122b8878285856124b8565b945094505050506122f6565b8251604014156122ee57602083015160408401516122e38683836125a5565b9350935050506122f6565b506000905060025b9250929050565b600081600481111561231157612311612e5e565b141561231a5750565b600181600481111561232e5761232e612e5e565b141561237c5760405162461bcd60e51b815260206004820152601860248201527f45434453413a20696e76616c6964207369676e617475726500000000000000006044820152606401610810565b600281600481111561239057612390612e5e565b14156123de5760405162461bcd60e51b815260206004820152601f60248201527f45434453413a20696e76616c6964207369676e6174757265206c656e677468006044820152606401610810565b60038160048111156123f2576123f2612e5e565b141561244b5760405162461bcd60e51b815260206004820152602260248201527f45434453413a20696e76616c6964207369676e6174757265202773272076616c604482015261756560f01b6064820152608401610810565b600481600481111561245f5761245f612e5e565b1415610e175760405162461bcd60e51b815260206004820152602260248201527f45434453413a20696e76616c6964207369676e6174757265202776272076616c604482015261756560f01b6064820152608401610810565b6000807f7fffffffffffffffffffffffffffffff5d576e7357a4501ddfe92f46681b20a08311156124ef575060009050600361259c565b8460ff16601b1415801561250757508460ff16601c14155b15612518575060009050600461259c565b6040805160008082526020820180845289905260ff881692820192909252606081018690526080810185905260019060a0016020604051602081039080840390855afa15801561256c573d6000803e3d6000fd5b5050604051601f1901519150506001600160a01b0381166125955760006001925092505061259c565b9150600090505b94509492505050565b6000806001600160ff1b03831660ff84901c601b016125c6878288856124b8565b935093505050935093915050565b8280546125e090612dc8565b90600052602060002090601f0160209004810192826126025760008555612648565b82601f1061261b5782800160ff19823516178555612648565b82800160010185558215612648579182015b8281111561264857823582559160200191906001019061262d565b50612654929150612658565b5090565b5b808211156126545760008155600101612659565b600067ffffffffffffffff8084111561268857612688612ea0565b604051601f8501601f19908116603f011681019082821181831017156126b0576126b0612ea0565b816040528093508581528686860111156126c957600080fd5b858560208301376000602087830101525050509392505050565b80356001600160a01b03811681146126fa57600080fd5b919050565b600082601f83011261271057600080fd5b61271f8383356020850161266d565b9392505050565b60006020828403121561273857600080fd5b61271f826126e3565b6000806040838503121561275457600080fd5b61275d836126e3565b915061276b602084016126e3565b90509250929050565b60008060006060848603121561278957600080fd5b612792846126e3565b92506127a0602085016126e3565b9150604084013590509250925092565b600080600080608085870312156127c657600080fd5b6127cf856126e3565b93506127dd602086016126e3565b925060408501359150606085013567ffffffffffffffff81111561280057600080fd5b61280c878288016126ff565b91505092959194509250565b6000806040838503121561282b57600080fd5b612834836126e3565b91506020830135801515811461284957600080fd5b809150509250929050565b6000806040838503121561286757600080fd5b612870836126e3565b946020939093013593505050565b6000806020838503121561289157600080fd5b823567ffffffffffffffff808211156128a957600080fd5b818501915085601f8301126128bd57600080fd5b8135818111156128cc57600080fd5b8660208260051b85010111156128e157600080fd5b60209290920196919550909350505050565b6000806000806080858703121561290957600080fd5b84359350602085013567ffffffffffffffff8082111561292857600080fd5b612934888389016126ff565b9450604087013591508082111561294a57600080fd5b508501601f8101871361295c57600080fd5b61296b8782356020840161266d565b949793965093946060013593505050565b60006020828403121561298e57600080fd5b813561271f81612eb6565b6000602082840312156129ab57600080fd5b815161271f81612eb6565b600080602083850312156129c957600080fd5b823567ffffffffffffffff808211156129e157600080fd5b818501915085601f8301126129f557600080fd5b813581811115612a0457600080fd5b8660208285010111156128e157600080fd5b600060208284031215612a2857600080fd5b5035919050565b60008060408385031215612a4257600080fd5b8235915061276b602084016126e3565b60008060008060808587031215612a6857600080fd5b5050823594602084013594506040840135936060013592509050565b60008151808452612a9c816020860160208601612d9c565b601f01601f19169290920160200192915050565b60008151612ac2818560208601612d9c565b9290920192915050565b6bffffffffffffffffffffffff198460601b16815282601482015260008251612afc816034850160208701612d9c565b91909101603401949350505050565b60008251612b1d818460208701612d9c565b9190910192915050565b600080845481600182811c915080831680612b4357607f831692505b6020808410821415612b6357634e487b7160e01b86526022600452602486fd5b818015612b775760018114612b8857612bb5565b60ff19861689528489019650612bb5565b60008b81526020902060005b86811015612bad5781548b820152908501908301612b94565b505084890196505b505050505050612bc58185612ab0565b95945050505050565b6001600160a01b0385811682528416602082015260408101839052608060608201819052600090612c0190830184612a84565b9695505050505050565b60208152600061271f6020830184612a84565b60208082526032908201527f4552433732313a207472616e7366657220746f206e6f6e20455243373231526560408201527131b2b4bb32b91034b6b83632b6b2b73a32b960711b606082015260800190565b6020808252818101527f4f776e61626c653a2063616c6c6572206973206e6f7420746865206f776e6572604082015260600190565b60208082526024908201527f436f6e7472616374206d65746164617461206d6574686f647320617265206c6f60408201526318dad95960e21b606082015260800190565b60208082526031908201527f4552433732313a207472616e736665722063616c6c6572206973206e6f74206f6040820152701ddb995c881b9bdc88185c1c1c9bdd9959607a1b606082015260800190565b60008219821115612d4d57612d4d612e32565b500190565b600082612d6157612d61612e48565b500490565b6000816000190483118215151615612d8057612d80612e32565b500290565b600082821015612d9757612d97612e32565b500390565b60005b83811015612db7578181015183820152602001612d9f565b8381111561155b5750506000910152565b600181811c90821680612ddc57607f821691505b60208210811415612dfd57634e487b7160e01b600052602260045260246000fd5b50919050565b6000600019821415612e1757612e17612e32565b5060010190565b600082612e2d57612e2d612e48565b500690565b634e487b7160e01b600052601160045260246000fd5b634e487b7160e01b600052601260045260246000fd5b634e487b7160e01b600052602160045260246000fd5b634e487b7160e01b600052603160045260246000fd5b634e487b7160e01b600052603260045260246000fd5b634e487b7160e01b600052604160045260246000fd5b6001600160e01b031981168114610e1757600080fdfea26469706673582212202b0f299d1fd08f57059690991c912e0db6a629a18ce2eee26fce0256476662d664736f6c6343000807003368747470733a2f2f74686576696b696e672e636c75622f6170692f6d657461646174612f"
  }
}