{
  "opcodeHash": "0x628e1a24f1b2be923d449e418c5bc69c3b45784079c2586b8800177f07dcf370",
  "metalessHash": "0x794b3a18caff4ea9bf0360b07fbd20cb8f08d52abe0e923cd478bf89872ea188",
  "runtimeHash": "0x86db2e28becb0be71d9ca48649cfaaf1be8299a70dd54ab5cbbea9b6ae711e30",
  "encodedMetadata": [
    {
      "ipfs": "/ipfs/QmUUeyzXfT3o5MuKTVk4P8uUQRXHV5BP1sdFBpv1fjVnhW",
      "solc": "0.8.7"
    }
  ],
  "abi": [
    {
      "inputs": [
        {
          "internalType": "address",
          "name": "_proxyRegistryAddress",
          "type": "address"
        }
      ],
      "stateMutability": "nonpayable",
      "type": "constructor"
    },
    {
      "anonymous": false,
      "inputs": [
        {
          "indexed": true,
          "internalType": "address",
          "name": "owner",
          "type": "address"
        },
        {
          "indexed": true,
          "internalType": "address",
          "name": "approved",
          "type": "address"
        },
        {
          "indexed": true,
          "internalType": "uint256",
          "name": "tokenId",
          "type": "uint256"
        }
      ],
      "name": "Approval",
      "type": "event"
    },
    {
      "anonymous": false,
      "inputs": [
        {
          "indexed": true,
          "internalType": "address",
          "name": "owner",
          "type": "address"
        },
        {
          "indexed": true,
          "internalType": "address",
          "name": "operator",
          "type": "address"
        },
        {
          "indexed": false,
          "internalType": "bool",
          "name": "approved",
          "type": "bool"
        }
      ],
      "name": "ApprovalForAll",
      "type": "event"
    },
    {
      "anonymous": false,
      "inputs": [
        {
          "indexed": false,
          "internalType": "address",
          "name": "userAddress",
          "type": "address"
        },
        {
          "indexed": false,
          "internalType": "address payable",
          "name": "relayerAddress",
          "type": "address"
        },
        {
          "indexed": false,
          "internalType": "bytes",
          "name": "functionSignature",
          "type": "bytes"
        }
      ],
      "name": "MetaTransactionExecuted",
      "type": "event"
    },
    {
      "anonymous": false,
      "inputs": [
        {
          "indexed": true,
          "internalType": "address",
          "name": "previousOwner",
          "type": "address"
        },
        {
          "indexed": true,
          "internalType": "address",
          "name": "newOwner",
          "type": "address"
        }
      ],
      "name": "OwnershipTransferred",
      "type": "event"
    },
    {
      "anonymous": false,
      "inputs": [
        {
          "indexed": true,
          "internalType": "address",
          "name": "from",
          "type": "address"
        },
        {
          "indexed": true,
          "internalType": "address",
          "name": "to",
          "type": "address"
        },
        {
          "indexed": true,
          "internalType": "uint256",
          "name": "tokenId",
          "type": "uint256"
        }
      ],
      "name": "Transfer",
      "type": "event"
    },
    {
      "inputs": [],
      "name": "ERC712_VERSION",
      "outputs": [
        {
          "internalType": "string",
          "name": "",
          "type": "string"
        }
      ],
      "stateMutability": "view",
      "type": "function"
    },
    {
      "inputs": [
        {
          "internalType": "address",
          "name": "to",
          "type": "address"
        },
        {
          "internalType": "uint256",
          "name": "tokenId",
          "type": "uint256"
        }
      ],
      "name": "approve",
      "outputs": [],
      "stateMutability": "nonpayable",
      "type": "function"
    },
    {
      "inputs": [
        {
          "internalType": "address",
          "name": "owner",
          "type": "address"
        }
      ],
      "name": "balanceOf",
      "outputs": [
        {
          "internalType": "uint256",
          "name": "",
          "type": "uint256"
        }
      ],
      "stateMutability": "view",
      "type": "function"
    },
    {
      "inputs": [],
      "name": "baseTokenURI",
      "outputs": [
        {
          "internalType": "string",
          "name": "",
          "type": "string"
        }
      ],
      "stateMutability": "pure",
      "type": "function"
    },
    {
      "inputs": [],
      "name": "contractURI",
      "outputs": [
        {
          "internalType": "string",
          "name": "",
          "type": "string"
        }
      ],
      "stateMutability": "pure",
      "type": "function"
    },
    {
      "inputs": [
        {
          "internalType": "address",
          "name": "userAddress",
          "type": "address"
        },
        {
          "internalType": "bytes",
          "name": "functionSignature",
          "type": "bytes"
        },
        {
          "internalType": "bytes32",
          "name": "sigR",
          "type": "bytes32"
        },
        {
          "internalType": "bytes32",
          "name": "sigS",
          "type": "bytes32"
        },
        {
          "internalType": "uint8",
          "name": "sigV",
          "type": "uint8"
        }
      ],
      "name": "executeMetaTransaction",
      "outputs": [
        {
          "internalType": "bytes",
          "name": "",
          "type": "bytes"
        }
      ],
      "stateMutability": "payable",
      "type": "function"
    },
    {
      "inputs": [
        {
          "internalType": "uint256",
          "name": "tokenId",
          "type": "uint256"
        }
      ],
      "name": "getApproved",
      "outputs": [
        {
          "internalType": "address",
          "name": "",
          "type": "address"
        }
      ],
      "stateMutability": "view",
      "type": "function"
    },
    {
      "inputs": [],
      "name": "getChainId",
      "outputs": [
        {
          "internalType": "uint256",
          "name": "",
          "type": "uint256"
        }
      ],
      "stateMutability": "view",
      "type": "function"
    },
    {
      "inputs": [],
      "name": "getDomainSeperator",
      "outputs": [
        {
          "internalType": "bytes32",
          "name": "",
          "type": "bytes32"
        }
      ],
      "stateMutability": "view",
      "type": "function"
    },
    {
      "inputs": [
        {
          "internalType": "address",
          "name": "user",
          "type": "address"
        }
      ],
      "name": "getNonce",
      "outputs": [
        {
          "internalType": "uint256",
          "name": "nonce",
          "type": "uint256"
        }
      ],
      "stateMutability": "view",
      "type": "function"
    },
    {
      "inputs": [
        {
          "internalType": "address",
          "name": "owner",
          "type": "address"
        },
        {
          "internalType": "address",
          "name": "operator",
          "type": "address"
        }
      ],
      "name": "isApprovedForAll",
      "outputs": [
        {
          "internalType": "bool",
          "name": "",
          "type": "bool"
        }
      ],
      "stateMutability": "view",
      "type": "function"
    },
    {
      "inputs": [
        {
          "internalType": "uint256",
          "name": "mintCount",
          "type": "uint256"
        },
        {
          "internalType": "address",
          "name": "_toAddress",
          "type": "address"
        }
      ],
      "name": "mintBatch",
      "outputs": [],
      "stateMutability": "payable",
      "type": "function"
    },
    {
      "inputs": [
        {
          "internalType": "address",
          "name": "_to",
          "type": "address"
        }
      ],
      "name": "mintTo",
      "outputs": [],
      "stateMutability": "nonpayable",
      "type": "function"
    },
    {
      "inputs": [],
      "name": "name",
      "outputs": [
        {
          "internalType": "string",
          "name": "",
          "type": "string"
        }
      ],
      "stateMutability": "view",
      "type": "function"
    },
    {
      "inputs": [],
      "name": "owner",
      "outputs": [
        {
          "internalType": "address",
          "name": "",
          "type": "address"
        }
      ],
      "stateMutability": "view",
      "type": "function"
    },
    {
      "inputs": [
        {
          "internalType": "uint256",
          "name": "tokenId",
          "type": "uint256"
        }
      ],
      "name": "ownerOf",
      "outputs": [
        {
          "internalType": "address",
          "name": "",
          "type": "address"
        }
      ],
      "stateMutability": "view",
      "type": "function"
    },
    {
      "inputs": [],
      "name": "renounceOwnership",
      "outputs": [],
      "stateMutability": "nonpayable",
      "type": "function"
    },
    {
      "inputs": [
        {
          "internalType": "address",
          "name": "from",
          "type": "address"
        },
        {
          "internalType": "address",
          "name": "to",
          "type": "address"
        },
        {
          "internalType": "uint256",
          "name": "tokenId",
          "type": "uint256"
        }
      ],
      "name": "safeTransferFrom",
      "outputs": [],
      "stateMutability": "nonpayable",
      "type": "function"
    },
    {
      "inputs": [
        {
          "internalType": "address",
          "name": "from",
          "type": "address"
        },
        {
          "internalType": "address",
          "name": "to",
          "type": "address"
        },
        {
          "internalType": "uint256",
          "name": "tokenId",
          "type": "uint256"
        },
        {
          "internalType": "bytes",
          "name": "_data",
          "type": "bytes"
        }
      ],
      "name": "safeTransferFrom",
      "outputs": [],
      "stateMutability": "nonpayable",
      "type": "function"
    },
    {
      "inputs": [
        {
          "internalType": "address",
          "name": "operator",
          "type": "address"
        },
        {
          "internalType": "bool",
          "name": "approved",
          "type": "bool"
        }
      ],
      "name": "setApprovalForAll",
      "outputs": [],
      "stateMutability": "nonpayable",
      "type": "function"
    },
    {
      "inputs": [
        {
          "internalType": "bytes4",
          "name": "interfaceId",
          "type": "bytes4"
        }
      ],
      "name": "supportsInterface",
      "outputs": [
        {
          "internalType": "bool",
          "name": "",
          "type": "bool"
        }
      ],
      "stateMutability": "view",
      "type": "function"
    },
    {
      "inputs": [],
      "name": "symbol",
      "outputs": [
        {
          "internalType": "string",
          "name": "",
          "type": "string"
        }
      ],
      "stateMutability": "view",
      "type": "function"
    },
    {
      "inputs": [
        {
          "internalType": "uint256",
          "name": "index",
          "type": "uint256"
        }
      ],
      "name": "tokenByIndex",
      "outputs": [
        {
          "internalType": "uint256",
          "name": "",
          "type": "uint256"
        }
      ],
      "stateMutability": "view",
      "type": "function"
    },
    {
      "inputs": [
        {
          "internalType": "address",
          "name": "owner",
          "type": "address"
        },
        {
          "internalType": "uint256",
          "name": "index",
          "type": "uint256"
        }
      ],
      "name": "tokenOfOwnerByIndex",
      "outputs": [
        {
          "internalType": "uint256",
          "name": "",
          "type": "uint256"
        }
      ],
      "stateMutability": "view",
      "type": "function"
    },
    {
      "inputs": [
        {
          "internalType": "uint256",
          "name": "_tokenId",
          "type": "uint256"
        }
      ],
      "name": "tokenURI",
      "outputs": [
        {
          "internalType": "string",
          "name": "",
          "type": "string"
        }
      ],
      "stateMutability": "pure",
      "type": "function"
    },
    {
      "inputs": [],
      "name": "totalSupply",
      "outputs": [
        {
          "internalType": "uint256",
          "name": "",
          "type": "uint256"
        }
      ],
      "stateMutability": "view",
      "type": "function"
    },
    {
      "inputs": [
        {
          "internalType": "address",
          "name": "from",
          "type": "address"
        },
        {
          "internalType": "address",
          "name": "to",
          "type": "address"
        },
        {
          "internalType": "uint256",
          "name": "tokenId",
          "type": "uint256"
        }
      ],
      "name": "transferFrom",
      "outputs": [],
      "stateMutability": "nonpayable",
      "type": "function"
    },
    {
      "inputs": [
        {
          "internalType": "address",
          "name": "newOwner",
          "type": "address"
        }
      ],
      "name": "transferOwnership",
      "outputs": [],
      "stateMutability": "nonpayable",
      "type": "function"
    },
    {
      "inputs": [],
      "name": "withdraw",
      "outputs": [],
      "stateMutability": "nonpayable",
      "type": "function"
    }
  ],
  "bytecode": {
    "object": "60806040526000600a60006101000a81548160ff0219169083151502179055506000600f553480156200003157600080fd5b5060405162004cae38038062004cae833981810160405281019062000057919062000510565b6040518060400160405280600981526020017f4368617450756e6b7300000000000000000000000000000000000000000000008152506040518060400160405280600381526020017f43504b00000000000000000000000000000000000000000000000000000000008152508282828160009080519060200190620000de92919062000449565b508060019080519060200190620000f792919062000449565b5050506200011a6200010e6200017660201b60201c565b6200019260201b60201c565b80600e60006101000a81548173ffffffffffffffffffffffffffffffffffffffff021916908373ffffffffffffffffffffffffffffffffffffffff1602179055506200016c836200025860201b60201c565b5050505062000706565b60006200018d620002da60201b620016561760201c565b905090565b6000600d60009054906101000a900473ffffffffffffffffffffffffffffffffffffffff16905081600d60006101000a81548173ffffffffffffffffffffffffffffffffffffffff021916908373ffffffffffffffffffffffffffffffffffffffff1602179055508173ffffffffffffffffffffffffffffffffffffffff168173ffffffffffffffffffffffffffffffffffffffff167f8be0079c531659141344cd1fd0a4f28419497f9722a3daafe3b4186f6b6457e060405160405180910390a35050565b600a60009054906101000a900460ff1615620002ab576040517f08c379a0000000000000000000000000000000000000000000000000000000008152600401620002a290620005e8565b60405180910390fd5b620002bc816200038d60201b60201c565b6001600a60006101000a81548160ff02191690831515021790555050565b60003073ffffffffffffffffffffffffffffffffffffffff163373ffffffffffffffffffffffffffffffffffffffff1614156200038657600080368080601f016020809104026020016040519081016040528093929190818152602001838380828437600081840152601f19601f820116905080830192505050505050509050600080369050905073ffffffffffffffffffffffffffffffffffffffff8183015116925050506200038a565b3390505b90565b6040518060800160405280604f815260200162004c5f604f91398051906020012081805190602001206040518060400160405280600181526020017f31000000000000000000000000000000000000000000000000000000000000008152508051906020012030620004046200043c60201b60201c565b60001b6040516020016200041d9594939291906200058b565b60405160208183030381529060405280519060200120600b8190555050565b6000804690508091505090565b828054620004579062000659565b90600052602060002090601f0160209004810192826200047b5760008555620004c7565b82601f106200049657805160ff1916838001178555620004c7565b82800160010185558215620004c7579182015b82811115620004c6578251825591602001919060010190620004a9565b5b509050620004d69190620004da565b5090565b5b80821115620004f5576000816000905550600101620004db565b5090565b6000815190506200050a81620006ec565b92915050565b600060208284031215620005295762000528620006be565b5b60006200053984828501620004f9565b91505092915050565b6200054d816200061b565b82525050565b6200055e816200062f565b82525050565b600062000573600e836200060a565b91506200058082620006c3565b602082019050919050565b600060a082019050620005a2600083018862000553565b620005b1602083018762000553565b620005c0604083018662000553565b620005cf606083018562000542565b620005de608083018462000553565b9695505050505050565b60006020820190508181036000830152620006038162000564565b9050919050565b600082825260208201905092915050565b6000620006288262000639565b9050919050565b6000819050919050565b600073ffffffffffffffffffffffffffffffffffffffff82169050919050565b600060028204905060018216806200067257607f821691505b602082108114156200068957620006886200068f565b5b50919050565b7f4e487b7100000000000000000000000000000000000000000000000000000000600052602260045260246000fd5b600080fd5b7f616c726561647920696e69746564000000000000000000000000000000000000600082015250565b620006f7816200061b565b81146200070357600080fd5b50565b61454980620007166000396000f3fe6080604052600436106101c25760003560e01c80634f6ccce7116100f7578063a22cb46511610095578063d547cfb711610064578063d547cfb71461064c578063e8a3d48514610677578063e985e9c5146106a2578063f2fde38b146106df576101c2565b8063a22cb465146105a1578063b88d4fde146105ca578063bc4f1a7e146105f3578063c87b56dd1461060f576101c2565b8063715018a6116100d1578063715018a61461050b578063755edd17146105225780638da5cb5b1461054b57806395d89b4114610576576101c2565b80634f6ccce7146104545780636352211e1461049157806370a08231146104ce576101c2565b806320379ee5116101645780632f745c591161013e5780632f745c59146103ac5780633408e470146103e95780633ccfd60b1461041457806342842e0e1461042b576101c2565b806320379ee51461031b57806323b872dd146103465780632d0335ab1461036f576101c2565b8063095ea7b3116101a0578063095ea7b31461026c5780630c53c51c146102955780630f7e5970146102c557806318160ddd146102f0576101c2565b806301ffc9a7146101c757806306fdde0314610204578063081812fc1461022f575b600080fd5b3480156101d357600080fd5b506101ee60048036038101906101e99190612e45565b610708565b6040516101fb91906134f9565b60405180910390f35b34801561021057600080fd5b50610219610782565b60405161022691906135db565b60405180910390f35b34801561023b57600080fd5b5061025660048036038101906102519190612ecc565b610814565b6040516102639190613454565b60405180910390f35b34801561027857600080fd5b50610293600480360381019061028e9190612e05565b610899565b005b6102af60048036038101906102aa9190612d6e565b6109b1565b6040516102bc91906135b9565b60405180910390f35b3480156102d157600080fd5b506102da610c23565b6040516102e791906135db565b60405180910390f35b3480156102fc57600080fd5b50610305610c5c565b60405161031291906138bd565b60405180910390f35b34801561032757600080fd5b50610330610c69565b60405161033d9190613514565b60405180910390f35b34801561035257600080fd5b5061036d60048036038101906103689190612c58565b610c73565b005b34801561037b57600080fd5b5061039660048036038101906103919190612beb565b610cd3565b6040516103a391906138bd565b60405180910390f35b3480156103b857600080fd5b506103d360048036038101906103ce9190612e05565b610d1c565b6040516103e091906138bd565b60405180910390f35b3480156103f557600080fd5b506103fe610dc1565b60405161040b91906138bd565b60405180910390f35b34801561042057600080fd5b50610429610dce565b005b34801561043757600080fd5b50610452600480360381019061044d9190612c58565b610e9a565b005b34801561046057600080fd5b5061047b60048036038101906104769190612ecc565b610eba565b60405161048891906138bd565b60405180910390f35b34801561049d57600080fd5b506104b860048036038101906104b39190612ecc565b610f2b565b6040516104c59190613454565b60405180910390f35b3480156104da57600080fd5b506104f560048036038101906104f09190612beb565b610fdd565b60405161050291906138bd565b60405180910390f35b34801561051757600080fd5b50610520611095565b005b34801561052e57600080fd5b5061054960048036038101906105449190612beb565b61111d565b005b34801561055757600080fd5b506105606111bb565b60405161056d9190613454565b60405180910390f35b34801561058257600080fd5b5061058b6111e5565b60405161059891906135db565b60405180910390f35b3480156105ad57600080fd5b506105c860048036038101906105c39190612d2e565b611277565b005b3480156105d657600080fd5b506105f160048036038101906105ec9190612cab565b61128d565b005b61060d60048036038101906106089190612ef9565b6112ef565b005b34801561061b57600080fd5b5061063660048036038101906106319190612ecc565b6113e2565b60405161064391906135db565b60405180910390f35b34801561065857600080fd5b5061066161141c565b60405161066e91906135db565b60405180910390f35b34801561068357600080fd5b5061068c61143c565b60405161069991906135db565b60405180910390f35b3480156106ae57600080fd5b506106c960048036038101906106c49190612c18565b61145c565b6040516106d691906134f9565b60405180910390f35b3480156106eb57600080fd5b5061070660048036038101906107019190612beb565b61155e565b005b60007f780e9d63000000000000000000000000000000000000000000000000000000007bffffffffffffffffffffffffffffffffffffffffffffffffffffffff1916827bffffffffffffffffffffffffffffffffffffffffffffffffffffffff1916148061077b575061077a82611707565b5b9050919050565b60606000805461079190613b82565b80601f01602080910402602001604051908101604052809291908181526020018280546107bd90613b82565b801561080a5780601f106107df5761010080835404028352916020019161080a565b820191906000526020600020905b8154815290600101906020018083116107ed57829003601f168201915b5050505050905090565b600061081f826117e9565b61085e576040517f08c379a00000000000000000000000000000000000000000000000000000000081526004016108559061379d565b60405180910390fd5b6004600083815260200190815260200160002060009054906101000a900473ffffffffffffffffffffffffffffffffffffffff169050919050565b60006108a482610f2b565b90508073ffffffffffffffffffffffffffffffffffffffff168373ffffffffffffffffffffffffffffffffffffffff161415610915576040517f08c379a000000000000000000000000000000000000000000000000000000000815260040161090c9061381d565b60405180910390fd5b8073ffffffffffffffffffffffffffffffffffffffff16610934611855565b73ffffffffffffffffffffffffffffffffffffffff16148061096357506109628161095d611855565b61145c565b5b6109a2576040517f08c379a00000000000000000000000000000000000000000000000000000000081526004016109999061371d565b60405180910390fd5b6109ac8383611864565b505050565b606060006040518060600160405280600c60008a73ffffffffffffffffffffffffffffffffffffffff1673ffffffffffffffffffffffffffffffffffffffff1681526020019081526020016000205481526020018873ffffffffffffffffffffffffffffffffffffffff168152602001878152509050610a34878287878761191d565b610a73576040517f08c379a0000000000000000000000000000000000000000000000000000000008152600401610a6a906137fd565b60405180910390fd5b610ac66001600c60008a73ffffffffffffffffffffffffffffffffffffffff1673ffffffffffffffffffffffffffffffffffffffff16815260200190815260200160002054611a2690919063ffffffff16565b600c60008973ffffffffffffffffffffffffffffffffffffffff1673ffffffffffffffffffffffffffffffffffffffff168152602001908152602001600020819055507f5845892132946850460bff5a0083f71031bc5bf9aadcd40f1de79423eac9b10b873388604051610b3c9392919061346f565b60405180910390a16000803073ffffffffffffffffffffffffffffffffffffffff16888a604051602001610b719291906133d1565b604051602081830303815290604052604051610b8d91906133ba565b6000604051808303816000865af19150503d8060008114610bca576040519150601f19603f3d011682016040523d82523d6000602084013e610bcf565b606091505b509150915081610c14576040517f08c379a0000000000000000000000000000000000000000000000000000000008152600401610c0b9061365d565b60405180910390fd5b80935050505095945050505050565b6040518060400160405280600181526020017f310000000000000000000000000000000000000000000000000000000000000081525081565b6000600880549050905090565b6000600b54905090565b610c84610c7e611855565b82611a3c565b610cc3576040517f08c379a0000000000000000000000000000000000000000000000000000000008152600401610cba9061385d565b60405180910390fd5b610cce838383611b1a565b505050565b6000600c60008373ffffffffffffffffffffffffffffffffffffffff1673ffffffffffffffffffffffffffffffffffffffff168152602001908152602001600020549050919050565b6000610d2783610fdd565b8210610d68576040517f08c379a0000000000000000000000000000000000000000000000000000000008152600401610d5f906135fd565b60405180910390fd5b600660008473ffffffffffffffffffffffffffffffffffffffff1673ffffffffffffffffffffffffffffffffffffffff168152602001908152602001600020600083815260200190815260200160002054905092915050565b6000804690508091505090565b610dd6611855565b73ffffffffffffffffffffffffffffffffffffffff16610df46111bb565b73ffffffffffffffffffffffffffffffffffffffff1614610e4a576040517f08c379a0000000000000000000000000000000000000000000000000000000008152600401610e41906137bd565b60405180910390fd5b610e526111bb565b73ffffffffffffffffffffffffffffffffffffffff166108fc479081150290604051600060405180830381858888f19350505050158015610e97573d6000803e3d6000fd5b50565b610eb58383836040518060200160405280600081525061128d565b505050565b6000610ec4610c5c565b8210610f05576040517f08c379a0000000000000000000000000000000000000000000000000000000008152600401610efc9061387d565b60405180910390fd5b60088281548110610f1957610f18613d49565b5b90600052602060002001549050919050565b6000806002600084815260200190815260200160002060009054906101000a900473ffffffffffffffffffffffffffffffffffffffff169050600073ffffffffffffffffffffffffffffffffffffffff168173ffffffffffffffffffffffffffffffffffffffff161415610fd4576040517f08c379a0000000000000000000000000000000000000000000000000000000008152600401610fcb9061375d565b60405180910390fd5b80915050919050565b60008073ffffffffffffffffffffffffffffffffffffffff168273ffffffffffffffffffffffffffffffffffffffff16141561104e576040517f08c379a00000000000000000000000000000000000000000000000000000000081526004016110459061373d565b60405180910390fd5b600360008373ffffffffffffffffffffffffffffffffffffffff1673ffffffffffffffffffffffffffffffffffffffff168152602001908152602001600020549050919050565b61109d611855565b73ffffffffffffffffffffffffffffffffffffffff166110bb6111bb565b73ffffffffffffffffffffffffffffffffffffffff1614611111576040517f08c379a0000000000000000000000000000000000000000000000000000000008152600401611108906137bd565b60405180910390fd5b61111b6000611d76565b565b611125611855565b73ffffffffffffffffffffffffffffffffffffffff166111436111bb565b73ffffffffffffffffffffffffffffffffffffffff1614611199576040517f08c379a0000000000000000000000000000000000000000000000000000000008152600401611190906137bd565b60405180910390fd5b60006111a3611e3c565b90506111af8282611e59565b6111b7612027565b5050565b6000600d60009054906101000a900473ffffffffffffffffffffffffffffffffffffffff16905090565b6060600180546111f490613b82565b80601f016020809104026020016040519081016040528092919081815260200182805461122090613b82565b801561126d5780601f106112425761010080835404028352916020019161126d565b820191906000526020600020905b81548152906001019060200180831161125057829003601f168201915b5050505050905090565b611289611282611855565b8383612041565b5050565b61129e611298611855565b83611a3c565b6112dd576040517f08c379a00000000000000000000000000000000000000000000000000000000081526004016112d49061385d565b60405180910390fd5b6112e9848484846121ae565b50505050565b60006112f9610c5c565b9050612711838261130a919061397c565b1061134a576040517f08c379a00000000000000000000000000000000000000000000000000000000081526004016113419061383d565b60405180910390fd5b82668e1bc9bf04000061135d9190613a03565b34101561139f576040517f08c379a00000000000000000000000000000000000000000000000000000000081526004016113969061389d565b60405180910390fd5b60005b838110156113dc5760006113b4611e3c565b90506113c08482611e59565b6113c8612027565b5080806113d490613be5565b9150506113a2565b50505050565b60606113ec61141c565b6113f58361220a565b6040516020016114069291906133f9565b6040516020818303038152906040529050919050565b60606040518060600160405280603081526020016144e460309139905090565b60606040518060600160405280603d81526020016144a7603d9139905090565b600080600e60009054906101000a900473ffffffffffffffffffffffffffffffffffffffff1690508273ffffffffffffffffffffffffffffffffffffffff168173ffffffffffffffffffffffffffffffffffffffff1663c4552791866040518263ffffffff1660e01b81526004016114d49190613454565b60206040518083038186803b1580156114ec57600080fd5b505afa158015611500573d6000803e3d6000fd5b505050506040513d601f19601f820116820180604052508101906115249190612e9f565b73ffffffffffffffffffffffffffffffffffffffff16141561154a576001915050611558565b611554848461236b565b9150505b92915050565b611566611855565b73ffffffffffffffffffffffffffffffffffffffff166115846111bb565b73ffffffffffffffffffffffffffffffffffffffff16146115da576040517f08c379a00000000000000000000000000000000000000000000000000000000081526004016115d1906137bd565b60405180910390fd5b600073ffffffffffffffffffffffffffffffffffffffff168173ffffffffffffffffffffffffffffffffffffffff16141561164a576040517f08c379a00000000000000000000000000000000000000000000000000000000081526004016116419061363d565b60405180910390fd5b61165381611d76565b50565b60003073ffffffffffffffffffffffffffffffffffffffff163373ffffffffffffffffffffffffffffffffffffffff16141561170057600080368080601f016020809104026020016040519081016040528093929190818152602001838380828437600081840152601f19601f820116905080830192505050505050509050600080369050905073ffffffffffffffffffffffffffffffffffffffff818301511692505050611704565b3390505b90565b60007f80ac58cd000000000000000000000000000000000000000000000000000000007bffffffffffffffffffffffffffffffffffffffffffffffffffffffff1916827bffffffffffffffffffffffffffffffffffffffffffffffffffffffff191614806117d257507f5b5e139f000000000000000000000000000000000000000000000000000000007bffffffffffffffffffffffffffffffffffffffffffffffffffffffff1916827bffffffffffffffffffffffffffffffffffffffffffffffffffffffff1916145b806117e257506117e1826123ff565b5b9050919050565b60008073ffffffffffffffffffffffffffffffffffffffff166002600084815260200190815260200160002060009054906101000a900473ffffffffffffffffffffffffffffffffffffffff1673ffffffffffffffffffffffffffffffffffffffff1614159050919050565b600061185f611656565b905090565b816004600083815260200190815260200160002060006101000a81548173ffffffffffffffffffffffffffffffffffffffff021916908373ffffffffffffffffffffffffffffffffffffffff160217905550808273ffffffffffffffffffffffffffffffffffffffff166118d783610f2b565b73ffffffffffffffffffffffffffffffffffffffff167f8c5be1e5ebec7d5bd14f71427d1e84f3dd0314c0f7b2291e5b200ac8c7c3b92560405160405180910390a45050565b60008073ffffffffffffffffffffffffffffffffffffffff168673ffffffffffffffffffffffffffffffffffffffff16141561198e576040517f08c379a0000000000000000000000000000000000000000000000000000000008152600401611985906136fd565b60405180910390fd5b60016119a161199c87612469565b6124d1565b838686604051600081526020016040526040516119c19493929190613574565b6020604051602081039080840390855afa1580156119e3573d6000803e3d6000fd5b5050506020604051035173ffffffffffffffffffffffffffffffffffffffff168673ffffffffffffffffffffffffffffffffffffffff1614905095945050505050565b60008183611a34919061397c565b905092915050565b6000611a47826117e9565b611a86576040517f08c379a0000000000000000000000000000000000000000000000000000000008152600401611a7d906136dd565b60405180910390fd5b6000611a9183610f2b565b90508073ffffffffffffffffffffffffffffffffffffffff168473ffffffffffffffffffffffffffffffffffffffff161480611b0057508373ffffffffffffffffffffffffffffffffffffffff16611ae884610814565b73ffffffffffffffffffffffffffffffffffffffff16145b80611b115750611b10818561145c565b5b91505092915050565b8273ffffffffffffffffffffffffffffffffffffffff16611b3a82610f2b565b73ffffffffffffffffffffffffffffffffffffffff1614611b90576040517f08c379a0000000000000000000000000000000000000000000000000000000008152600401611b87906137dd565b60405180910390fd5b600073ffffffffffffffffffffffffffffffffffffffff168273ffffffffffffffffffffffffffffffffffffffff161415611c00576040517f08c379a0000000000000000000000000000000000000000000000000000000008152600401611bf79061369d565b60405180910390fd5b611c0b83838361250a565b611c16600082611864565b6001600360008573ffffffffffffffffffffffffffffffffffffffff1673ffffffffffffffffffffffffffffffffffffffff1681526020019081526020016000206000828254611c669190613a5d565b925050819055506001600360008473ffffffffffffffffffffffffffffffffffffffff1673ffffffffffffffffffffffffffffffffffffffff1681526020019081526020016000206000828254611cbd919061397c565b92505081905550816002600083815260200190815260200160002060006101000a81548173ffffffffffffffffffffffffffffffffffffffff021916908373ffffffffffffffffffffffffffffffffffffffff160217905550808273ffffffffffffffffffffffffffffffffffffffff168473ffffffffffffffffffffffffffffffffffffffff167fddf252ad1be2c89b69c2b068fc378daa952ba7f163c4a11628f55a4df523b3ef60405160405180910390a4505050565b6000600d60009054906101000a900473ffffffffffffffffffffffffffffffffffffffff16905081600d60006101000a81548173ffffffffffffffffffffffffffffffffffffffff021916908373ffffffffffffffffffffffffffffffffffffffff1602179055508173ffffffffffffffffffffffffffffffffffffffff168173ffffffffffffffffffffffffffffffffffffffff167f8be0079c531659141344cd1fd0a4f28419497f9722a3daafe3b4186f6b6457e060405160405180910390a35050565b6000611e546001600f54611a2690919063ffffffff16565b905090565b600073ffffffffffffffffffffffffffffffffffffffff168273ffffffffffffffffffffffffffffffffffffffff161415611ec9576040517f08c379a0000000000000000000000000000000000000000000000000000000008152600401611ec09061377d565b60405180910390fd5b611ed2816117e9565b15611f12576040517f08c379a0000000000000000000000000000000000000000000000000000000008152600401611f099061367d565b60405180910390fd5b611f1e6000838361250a565b6001600360008473ffffffffffffffffffffffffffffffffffffffff1673ffffffffffffffffffffffffffffffffffffffff1681526020019081526020016000206000828254611f6e919061397c565b92505081905550816002600083815260200190815260200160002060006101000a81548173ffffffffffffffffffffffffffffffffffffffff021916908373ffffffffffffffffffffffffffffffffffffffff160217905550808273ffffffffffffffffffffffffffffffffffffffff16600073ffffffffffffffffffffffffffffffffffffffff167fddf252ad1be2c89b69c2b068fc378daa952ba7f163c4a11628f55a4df523b3ef60405160405180910390a45050565b600f600081548092919061203a90613be5565b9190505550565b8173ffffffffffffffffffffffffffffffffffffffff168373ffffffffffffffffffffffffffffffffffffffff1614156120b0576040517f08c379a00000000000000000000000000000000000000000000000000000000081526004016120a7906136bd565b60405180910390fd5b80600560008573ffffffffffffffffffffffffffffffffffffffff1673ffffffffffffffffffffffffffffffffffffffff16815260200190815260200160002060008473ffffffffffffffffffffffffffffffffffffffff1673ffffffffffffffffffffffffffffffffffffffff16815260200190815260200160002060006101000a81548160ff0219169083151502179055508173ffffffffffffffffffffffffffffffffffffffff168373ffffffffffffffffffffffffffffffffffffffff167f17307eab39ab6107e8899845ad3d59bd9653f200f220920489ca2b5937696c31836040516121a191906134f9565b60405180910390a3505050565b6121b9848484611b1a565b6121c58484848461261e565b612204576040517f08c379a00000000000000000000000000000000000000000000000000000000081526004016121fb9061361d565b60405180910390fd5b50505050565b60606000821415612252576040518060400160405280600181526020017f30000000000000000000000000000000000000000000000000000000000000008152509050612366565b600082905060005b6000821461228457808061226d90613be5565b915050600a8261227d91906139d2565b915061225a565b60008167ffffffffffffffff8111156122a05761229f613d78565b5b6040519080825280601f01601f1916602001820160405280156122d25781602001600182028036833780820191505090505b5090505b6000851461235f576001826122eb9190613a5d565b9150600a856122fa9190613c5c565b6030612306919061397c565b60f81b81838151811061231c5761231b613d49565b5b60200101907effffffffffffffffffffffffffffffffffffffffffffffffffffffffffffff1916908160001a905350600a8561235891906139d2565b94506122d6565b8093505050505b919050565b6000600560008473ffffffffffffffffffffffffffffffffffffffff1673ffffffffffffffffffffffffffffffffffffffff16815260200190815260200160002060008373ffffffffffffffffffffffffffffffffffffffff1673ffffffffffffffffffffffffffffffffffffffff16815260200190815260200160002060009054906101000a900460ff16905092915050565b60007f01ffc9a7000000000000000000000000000000000000000000000000000000007bffffffffffffffffffffffffffffffffffffffffffffffffffffffff1916827bffffffffffffffffffffffffffffffffffffffffffffffffffffffff1916149050919050565b60006040518060800160405280604381526020016144646043913980519060200120826000015183602001518460400151805190602001206040516020016124b4949392919061352f565b604051602081830303815290604052805190602001209050919050565b60006124db610c69565b826040516020016124ed92919061341d565b604051602081830303815290604052805190602001209050919050565b6125158383836127b5565b600073ffffffffffffffffffffffffffffffffffffffff168373ffffffffffffffffffffffffffffffffffffffff16141561255857612553816127ba565b612597565b8173ffffffffffffffffffffffffffffffffffffffff168373ffffffffffffffffffffffffffffffffffffffff1614612596576125958382612803565b5b5b600073ffffffffffffffffffffffffffffffffffffffff168273ffffffffffffffffffffffffffffffffffffffff1614156125da576125d581612970565b612619565b8273ffffffffffffffffffffffffffffffffffffffff168273ffffffffffffffffffffffffffffffffffffffff1614612618576126178282612a41565b5b5b505050565b600061263f8473ffffffffffffffffffffffffffffffffffffffff16612ac0565b156127a8578373ffffffffffffffffffffffffffffffffffffffff1663150b7a02612668611855565b8786866040518563ffffffff1660e01b815260040161268a94939291906134ad565b602060405180830381600087803b1580156126a457600080fd5b505af19250505080156126d557506040513d601f19601f820116820180604052508101906126d29190612e72565b60015b612758573d8060008114612705576040519150601f19603f3d011682016040523d82523d6000602084013e61270a565b606091505b50600081511415612750576040517f08c379a00000000000000000000000000000000000000000000000000000000081526004016127479061361d565b60405180910390fd5b805181602001fd5b63150b7a0260e01b7bffffffffffffffffffffffffffffffffffffffffffffffffffffffff1916817bffffffffffffffffffffffffffffffffffffffffffffffffffffffff1916149150506127ad565b600190505b949350505050565b505050565b6008805490506009600083815260200190815260200160002081905550600881908060018154018082558091505060019003906000526020600020016000909190919091505550565b6000600161281084610fdd565b61281a9190613a5d565b90506000600760008481526020019081526020016000205490508181146128ff576000600660008673ffffffffffffffffffffffffffffffffffffffff1673ffffffffffffffffffffffffffffffffffffffff168152602001908152602001600020600084815260200190815260200160002054905080600660008773ffffffffffffffffffffffffffffffffffffffff1673ffffffffffffffffffffffffffffffffffffffff168152602001908152602001600020600084815260200190815260200160002081905550816007600083815260200190815260200160002081905550505b6007600084815260200190815260200160002060009055600660008573ffffffffffffffffffffffffffffffffffffffff1673ffffffffffffffffffffffffffffffffffffffff16815260200190815260200160002060008381526020019081526020016000206000905550505050565b600060016008805490506129849190613a5d565b90506000600960008481526020019081526020016000205490506000600883815481106129b4576129b3613d49565b5b9060005260206000200154905080600883815481106129d6576129d5613d49565b5b906000526020600020018190555081600960008381526020019081526020016000208190555060096000858152602001908152602001600020600090556008805480612a2557612a24613d1a565b5b6001900381819060005260206000200160009055905550505050565b6000612a4c83610fdd565b905081600660008573ffffffffffffffffffffffffffffffffffffffff1673ffffffffffffffffffffffffffffffffffffffff168152602001908152602001600020600083815260200190815260200160002081905550806007600084815260200190815260200160002081905550505050565b600080823b905060008111915050919050565b6000612ae6612ae1846138fd565b6138d8565b905082815260208101848484011115612b0257612b01613dac565b5b612b0d848285613b40565b509392505050565b600081359050612b24816143c2565b92915050565b600081359050612b39816143d9565b92915050565b600081359050612b4e816143f0565b92915050565b600081359050612b6381614407565b92915050565b600081519050612b7881614407565b92915050565b600082601f830112612b9357612b92613da7565b5b8135612ba3848260208601612ad3565b91505092915050565b600081519050612bbb8161441e565b92915050565b600081359050612bd081614435565b92915050565b600081359050612be58161444c565b92915050565b600060208284031215612c0157612c00613db6565b5b6000612c0f84828501612b15565b91505092915050565b60008060408385031215612c2f57612c2e613db6565b5b6000612c3d85828601612b15565b9250506020612c4e85828601612b15565b9150509250929050565b600080600060608486031215612c7157612c70613db6565b5b6000612c7f86828701612b15565b9350506020612c9086828701612b15565b9250506040612ca186828701612bc1565b9150509250925092565b60008060008060808587031215612cc557612cc4613db6565b5b6000612cd387828801612b15565b9450506020612ce487828801612b15565b9350506040612cf587828801612bc1565b925050606085013567ffffffffffffffff811115612d1657612d15613db1565b5b612d2287828801612b7e565b91505092959194509250565b60008060408385031215612d4557612d44613db6565b5b6000612d5385828601612b15565b9250506020612d6485828601612b2a565b9150509250929050565b600080600080600060a08688031215612d8a57612d89613db6565b5b6000612d9888828901612b15565b955050602086013567ffffffffffffffff811115612db957612db8613db1565b5b612dc588828901612b7e565b9450506040612dd688828901612b3f565b9350506060612de788828901612b3f565b9250506080612df888828901612bd6565b9150509295509295909350565b60008060408385031215612e1c57612e1b613db6565b5b6000612e2a85828601612b15565b9250506020612e3b85828601612bc1565b9150509250929050565b600060208284031215612e5b57612e5a613db6565b5b6000612e6984828501612b54565b91505092915050565b600060208284031215612e8857612e87613db6565b5b6000612e9684828501612b69565b91505092915050565b600060208284031215612eb557612eb4613db6565b5b6000612ec384828501612bac565b91505092915050565b600060208284031215612ee257612ee1613db6565b5b6000612ef084828501612bc1565b91505092915050565b60008060408385031215612f1057612f0f613db6565b5b6000612f1e85828601612bc1565b9250506020612f2f85828601612b15565b9150509250929050565b612f4281613aa3565b82525050565b612f5181613a91565b82525050565b612f68612f6382613a91565b613c2e565b82525050565b612f7781613ab5565b82525050565b612f8681613ac1565b82525050565b612f9d612f9882613ac1565b613c40565b82525050565b6000612fae8261392e565b612fb88185613944565b9350612fc8818560208601613b4f565b612fd181613dbb565b840191505092915050565b6000612fe78261392e565b612ff18185613955565b9350613001818560208601613b4f565b80840191505092915050565b600061301882613939565b6130228185613960565b9350613032818560208601613b4f565b61303b81613dbb565b840191505092915050565b600061305182613939565b61305b8185613971565b935061306b818560208601613b4f565b80840191505092915050565b6000613084602b83613960565b915061308f82613dd9565b604082019050919050565b60006130a7603283613960565b91506130b282613e28565b604082019050919050565b60006130ca602683613960565b91506130d582613e77565b604082019050919050565b60006130ed601c83613960565b91506130f882613ec6565b602082019050919050565b6000613110601c83613960565b915061311b82613eef565b602082019050919050565b6000613133600283613971565b915061313e82613f18565b600282019050919050565b6000613156602483613960565b915061316182613f41565b604082019050919050565b6000613179601983613960565b915061318482613f90565b602082019050919050565b600061319c602c83613960565b91506131a782613fb9565b604082019050919050565b60006131bf602583613960565b91506131ca82614008565b604082019050919050565b60006131e2603883613960565b91506131ed82614057565b604082019050919050565b6000613205602a83613960565b9150613210826140a6565b604082019050919050565b6000613228602983613960565b9150613233826140f5565b604082019050919050565b600061324b602083613960565b915061325682614144565b602082019050919050565b600061326e602c83613960565b91506132798261416d565b604082019050919050565b6000613291602083613960565b915061329c826141bc565b602082019050919050565b60006132b4602983613960565b91506132bf826141e5565b604082019050919050565b60006132d7602183613960565b91506132e282614234565b604082019050919050565b60006132fa602183613960565b915061330582614283565b604082019050919050565b600061331d601683613960565b9150613328826142d2565b602082019050919050565b6000613340603183613960565b915061334b826142fb565b604082019050919050565b6000613363602c83613960565b915061336e8261434a565b604082019050919050565b6000613386602083613960565b915061339182614399565b602082019050919050565b6133a581613b29565b82525050565b6133b481613b33565b82525050565b60006133c68284612fdc565b915081905092915050565b60006133dd8285612fdc565b91506133e98284612f57565b6014820191508190509392505050565b60006134058285613046565b91506134118284613046565b91508190509392505050565b600061342882613126565b91506134348285612f8c565b6020820191506134448284612f8c565b6020820191508190509392505050565b60006020820190506134696000830184612f48565b92915050565b60006060820190506134846000830186612f48565b6134916020830185612f39565b81810360408301526134a38184612fa3565b9050949350505050565b60006080820190506134c26000830187612f48565b6134cf6020830186612f48565b6134dc604083018561339c565b81810360608301526134ee8184612fa3565b905095945050505050565b600060208201905061350e6000830184612f6e565b92915050565b60006020820190506135296000830184612f7d565b92915050565b60006080820190506135446000830187612f7d565b613551602083018661339c565b61355e6040830185612f48565b61356b6060830184612f7d565b95945050505050565b60006080820190506135896000830187612f7d565b61359660208301866133ab565b6135a36040830185612f7d565b6135b06060830184612f7d565b95945050505050565b600060208201905081810360008301526135d38184612fa3565b905092915050565b600060208201905081810360008301526135f5818461300d565b905092915050565b6000602082019050818103600083015261361681613077565b9050919050565b600060208201905081810360008301526136368161309a565b9050919050565b60006020820190508181036000830152613656816130bd565b9050919050565b60006020820190508181036000830152613676816130e0565b9050919050565b6000602082019050818103600083015261369681613103565b9050919050565b600060208201905081810360008301526136b681613149565b9050919050565b600060208201905081810360008301526136d68161316c565b9050919050565b600060208201905081810360008301526136f68161318f565b9050919050565b60006020820190508181036000830152613716816131b2565b9050919050565b60006020820190508181036000830152613736816131d5565b9050919050565b60006020820190508181036000830152613756816131f8565b9050919050565b600060208201905081810360008301526137768161321b565b9050919050565b600060208201905081810360008301526137968161323e565b9050919050565b600060208201905081810360008301526137b681613261565b9050919050565b600060208201905081810360008301526137d681613284565b9050919050565b600060208201905081810360008301526137f6816132a7565b9050919050565b60006020820190508181036000830152613816816132ca565b9050919050565b60006020820190508181036000830152613836816132ed565b9050919050565b6000602082019050818103600083015261385681613310565b9050919050565b6000602082019050818103600083015261387681613333565b9050919050565b6000602082019050818103600083015261389681613356565b9050919050565b600060208201905081810360008301526138b681613379565b9050919050565b60006020820190506138d2600083018461339c565b92915050565b60006138e26138f3565b90506138ee8282613bb4565b919050565b6000604051905090565b600067ffffffffffffffff82111561391857613917613d78565b5b61392182613dbb565b9050602081019050919050565b600081519050919050565b600081519050919050565b600082825260208201905092915050565b600081905092915050565b600082825260208201905092915050565b600081905092915050565b600061398782613b29565b915061399283613b29565b9250827fffffffffffffffffffffffffffffffffffffffffffffffffffffffffffffffff038211156139c7576139c6613c8d565b5b828201905092915050565b60006139dd82613b29565b91506139e883613b29565b9250826139f8576139f7613cbc565b5b828204905092915050565b6000613a0e82613b29565b9150613a1983613b29565b9250817fffffffffffffffffffffffffffffffffffffffffffffffffffffffffffffffff0483118215151615613a5257613a51613c8d565b5b828202905092915050565b6000613a6882613b29565b9150613a7383613b29565b925082821015613a8657613a85613c8d565b5b828203905092915050565b6000613a9c82613b09565b9050919050565b6000613aae82613b09565b9050919050565b60008115159050919050565b6000819050919050565b60007fffffffff0000000000000000000000000000000000000000000000000000000082169050919050565b6000613b0282613a91565b9050919050565b600073ffffffffffffffffffffffffffffffffffffffff82169050919050565b6000819050919050565b600060ff82169050919050565b82818337600083830152505050565b60005b83811015613b6d578082015181840152602081019050613b52565b83811115613b7c576000848401525b50505050565b60006002820490506001821680613b9a57607f821691505b60208210811415613bae57613bad613ceb565b5b50919050565b613bbd82613dbb565b810181811067ffffffffffffffff82111715613bdc57613bdb613d78565b5b80604052505050565b6000613bf082613b29565b91507fffffffffffffffffffffffffffffffffffffffffffffffffffffffffffffffff821415613c2357613c22613c8d565b5b600182019050919050565b6000613c3982613c4a565b9050919050565b6000819050919050565b6000613c5582613dcc565b9050919050565b6000613c6782613b29565b9150613c7283613b29565b925082613c8257613c81613cbc565b5b828206905092915050565b7f4e487b7100000000000000000000000000000000000000000000000000000000600052601160045260246000fd5b7f4e487b7100000000000000000000000000000000000000000000000000000000600052601260045260246000fd5b7f4e487b7100000000000000000000000000000000000000000000000000000000600052602260045260246000fd5b7f4e487b7100000000000000000000000000000000000000000000000000000000600052603160045260246000fd5b7f4e487b7100000000000000000000000000000000000000000000000000000000600052603260045260246000fd5b7f4e487b7100000000000000000000000000000000000000000000000000000000600052604160045260246000fd5b600080fd5b600080fd5b600080fd5b600080fd5b6000601f19601f8301169050919050565b60008160601b9050919050565b7f455243373231456e756d657261626c653a206f776e657220696e646578206f7560008201527f74206f6620626f756e6473000000000000000000000000000000000000000000602082015250565b7f4552433732313a207472616e7366657220746f206e6f6e20455243373231526560008201527f63656976657220696d706c656d656e7465720000000000000000000000000000602082015250565b7f4f776e61626c653a206e6577206f776e657220697320746865207a65726f206160008201527f6464726573730000000000000000000000000000000000000000000000000000602082015250565b7f46756e6374696f6e2063616c6c206e6f74207375636365737366756c00000000600082015250565b7f4552433732313a20746f6b656e20616c7265616479206d696e74656400000000600082015250565b7f1901000000000000000000000000000000000000000000000000000000000000600082015250565b7f4552433732313a207472616e7366657220746f20746865207a65726f2061646460008201527f7265737300000000000000000000000000000000000000000000000000000000602082015250565b7f4552433732313a20617070726f766520746f2063616c6c657200000000000000600082015250565b7f4552433732313a206f70657261746f7220717565727920666f72206e6f6e657860008201527f697374656e7420746f6b656e0000000000000000000000000000000000000000602082015250565b7f4e61746976654d6574615472616e73616374696f6e3a20494e56414c49445f5360008201527f49474e4552000000000000000000000000000000000000000000000000000000602082015250565b7f4552433732313a20617070726f76652063616c6c6572206973206e6f74206f7760008201527f6e6572206e6f7220617070726f76656420666f7220616c6c0000000000000000602082015250565b7f4552433732313a2062616c616e636520717565727920666f7220746865207a6560008201527f726f206164647265737300000000000000000000000000000000000000000000602082015250565b7f4552433732313a206f776e657220717565727920666f72206e6f6e657869737460008201527f656e7420746f6b656e0000000000000000000000000000000000000000000000602082015250565b7f4552433732313a206d696e7420746f20746865207a65726f2061646472657373600082015250565b7f4552433732313a20617070726f76656420717565727920666f72206e6f6e657860008201527f697374656e7420746f6b656e0000000000000000000000000000000000000000602082015250565b7f4f776e61626c653a2063616c6c6572206973206e6f7420746865206f776e6572600082015250565b7f4552433732313a207472616e73666572206f6620746f6b656e2074686174206960008201527f73206e6f74206f776e0000000000000000000000000000000000000000000000602082015250565b7f5369676e657220616e64207369676e617475726520646f206e6f74206d61746360008201527f6800000000000000000000000000000000000000000000000000000000000000602082015250565b7f4552433732313a20617070726f76616c20746f2063757272656e74206f776e6560008201527f7200000000000000000000000000000000000000000000000000000000000000602082015250565b7f45786365656473206d6178696d756d20737570706c7900000000000000000000600082015250565b7f4552433732313a207472616e736665722063616c6c6572206973206e6f74206f60008201527f776e6572206e6f7220617070726f766564000000000000000000000000000000602082015250565b7f455243373231456e756d657261626c653a20676c6f62616c20696e646578206f60008201527f7574206f6620626f756e64730000000000000000000000000000000000000000602082015250565b7f4e6f7420656e6f756768204554482073656e742c20636865636b207072696365600082015250565b6143cb81613a91565b81146143d657600080fd5b50565b6143e281613ab5565b81146143ed57600080fd5b50565b6143f981613ac1565b811461440457600080fd5b50565b61441081613acb565b811461441b57600080fd5b50565b61442781613af7565b811461443257600080fd5b50565b61443e81613b29565b811461444957600080fd5b50565b61445581613b33565b811461446057600080fd5b5056fe4d6574615472616e73616374696f6e2875696e74323536206e6f6e63652c616464726573732066726f6d2c62797465732066756e6374696f6e5369676e61747572652968747470733a2f2f6368617470756e6b732e61707073706f742e636f6d2f6170692f6368617470756e6b732d636f6e74726163742d6d6574616461746168747470733a2f2f6368617470756e6b732e61707073706f742e636f6d2f6170692f6368617470756e6b732d6e66742fa26469706673582212209c9a371c61fbe21d01ce9f8dbe2a091d46d1be81a0fa3fb9576c927acc39a59964736f6c63430008070033454950373132446f6d61696e28737472696e67206e616d652c737472696e672076657273696f6e2c6164647265737320766572696679696e67436f6e74726163742c627974657333322073616c7429"
  }
}