{
  "opcodeHash": "0x3d032ea350c33508ec787f80c72923db8e9c30585560c8bfaeacf7ffe8447a10",
  "metalessHash": "0x3edcf01057f21d42806a5c4f1695e7e7e3354a644508c04099e111749f1055e8",
  "runtimeHash": "0x2ec12e5f1f5e57304c55284218a982b4ffe3b837e3555d82d8ea44d9fe9a67a1",
  "encodedMetadata": [
    {
      "ipfs": "/ipfs/QmdUn6SLKdnRGEyiLB7GLVkcppyVzp5T2eGBp8WJ5FkJCq",
      "solc": "0.7.5"
    }
  ],
  "abi": [
    {
      "inputs": [
        {
          "internalType": "contract stakeContract",
          "name": "_stakingContract",
          "type": "address"
        },
        {
          "internalType": "contract stakeContract1",
          "name": "_v2StakingContract",
          "type": "address"
        },
        {
          "internalType": "contract FEGex2",
          "name": "_fegexpair",
          "type": "address"
        }
      ],
      "stateMutability": "nonpayable",
      "type": "constructor"
    },
    {
      "anonymous": false,
      "inputs": [
        {
          "indexed": true,
          "internalType": "address",
          "name": "_from",
          "type": "address"
        },
        {
          "indexed": true,
          "internalType": "address",
          "name": "_to",
          "type": "address"
        }
      ],
      "name": "OwnershipTransferred",
      "type": "event"
    },
    {
      "inputs": [],
      "name": "FEG",
      "outputs": [
        {
          "internalType": "address",
          "name": "",
          "type": "address"
        }
      ],
      "stateMutability": "view",
      "type": "function"
    },
    {
      "inputs": [
        {
          "internalType": "address",
          "name": "_deploy",
          "type": "address"
        }
      ],
      "name": "changeDeploy",
      "outputs": [],
      "stateMutability": "nonpayable",
      "type": "function"
    },
    {
      "inputs": [
        {
          "internalType": "contract FEGex2",
          "name": "_fegexpair",
          "type": "address"
        }
      ],
      "name": "changeFEGExPair",
      "outputs": [],
      "stateMutability": "nonpayable",
      "type": "function"
    },
    {
      "inputs": [
        {
          "internalType": "uint256",
          "name": "_give",
          "type": "uint256"
        }
      ],
      "name": "changeGive",
      "outputs": [],
      "stateMutability": "nonpayable",
      "type": "function"
    },
    {
      "inputs": [
        {
          "internalType": "contract stakeContract1",
          "name": "_v2StakingContract",
          "type": "address"
        }
      ],
      "name": "changeLPStakingContract",
      "outputs": [],
      "stateMutability": "nonpayable",
      "type": "function"
    },
    {
      "inputs": [
        {
          "internalType": "uint256",
          "name": "_must",
          "type": "uint256"
        },
        {
          "internalType": "uint256",
          "name": "_must1",
          "type": "uint256"
        },
        {
          "internalType": "uint256",
          "name": "_must2",
          "type": "uint256"
        }
      ],
      "name": "changeMust",
      "outputs": [],
      "stateMutability": "nonpayable",
      "type": "function"
    },
    {
      "inputs": [
        {
          "internalType": "bool",
          "name": "_bool",
          "type": "bool"
        }
      ],
      "name": "changePerform",
      "outputs": [],
      "stateMutability": "nonpayable",
      "type": "function"
    },
    {
      "inputs": [
        {
          "internalType": "bool",
          "name": "_bool",
          "type": "bool"
        }
      ],
      "name": "changePerform1",
      "outputs": [],
      "stateMutability": "nonpayable",
      "type": "function"
    },
    {
      "inputs": [
        {
          "internalType": "uint256",
          "name": "_v1rs",
          "type": "uint256"
        },
        {
          "internalType": "uint256",
          "name": "_v2rs",
          "type": "uint256"
        }
      ],
      "name": "changeRewardShare",
      "outputs": [],
      "stateMutability": "nonpayable",
      "type": "function"
    },
    {
      "inputs": [
        {
          "internalType": "bool",
          "name": "_bool",
          "type": "bool"
        }
      ],
      "name": "changeSell",
      "outputs": [],
      "stateMutability": "nonpayable",
      "type": "function"
    },
    {
      "inputs": [
        {
          "internalType": "contract stakeContract",
          "name": "_stakingContract",
          "type": "address"
        }
      ],
      "name": "changeStakingContract",
      "outputs": [],
      "stateMutability": "nonpayable",
      "type": "function"
    },
    {
      "inputs": [
        {
          "internalType": "address",
          "name": "_V2",
          "type": "address"
        }
      ],
      "name": "changeV2Pair",
      "outputs": [],
      "stateMutability": "nonpayable",
      "type": "function"
    },
    {
      "inputs": [
        {
          "internalType": "address",
          "name": "_DEV",
          "type": "address"
        }
      ],
      "name": "changedev",
      "outputs": [],
      "stateMutability": "nonpayable",
      "type": "function"
    },
    {
      "inputs": [],
      "name": "claimDist",
      "outputs": [],
      "stateMutability": "nonpayable",
      "type": "function"
    },
    {
      "inputs": [],
      "name": "deploy",
      "outputs": [
        {
          "internalType": "address",
          "name": "",
          "type": "address"
        }
      ],
      "stateMutability": "view",
      "type": "function"
    },
    {
      "inputs": [],
      "name": "dev",
      "outputs": [
        {
          "internalType": "address",
          "name": "",
          "type": "address"
        }
      ],
      "stateMutability": "view",
      "type": "function"
    },
    {
      "inputs": [],
      "name": "distributeAll",
      "outputs": [],
      "stateMutability": "nonpayable",
      "type": "function"
    },
    {
      "inputs": [],
      "name": "distributeV2",
      "outputs": [],
      "stateMutability": "nonpayable",
      "type": "function"
    },
    {
      "inputs": [
        {
          "internalType": "address",
          "name": "_token",
          "type": "address"
        }
      ],
      "name": "emergencySaveLostTokens",
      "outputs": [],
      "stateMutability": "nonpayable",
      "type": "function"
    },
    {
      "inputs": [],
      "name": "fBTC",
      "outputs": [
        {
          "internalType": "address",
          "name": "",
          "type": "address"
        }
      ],
      "stateMutability": "view",
      "type": "function"
    },
    {
      "inputs": [],
      "name": "fETH",
      "outputs": [
        {
          "internalType": "address",
          "name": "",
          "type": "address"
        }
      ],
      "stateMutability": "view",
      "type": "function"
    },
    {
      "inputs": [],
      "name": "fUSDT",
      "outputs": [
        {
          "internalType": "address",
          "name": "",
          "type": "address"
        }
      ],
      "stateMutability": "view",
      "type": "function"
    },
    {
      "inputs": [],
      "name": "give",
      "outputs": [
        {
          "internalType": "uint256",
          "name": "",
          "type": "uint256"
        }
      ],
      "stateMutability": "view",
      "type": "function"
    },
    {
      "inputs": [],
      "name": "must",
      "outputs": [
        {
          "internalType": "uint256",
          "name": "",
          "type": "uint256"
        }
      ],
      "stateMutability": "view",
      "type": "function"
    },
    {
      "inputs": [],
      "name": "must1",
      "outputs": [
        {
          "internalType": "uint256",
          "name": "",
          "type": "uint256"
        }
      ],
      "stateMutability": "view",
      "type": "function"
    },
    {
      "inputs": [],
      "name": "must2",
      "outputs": [
        {
          "internalType": "uint256",
          "name": "",
          "type": "uint256"
        }
      ],
      "stateMutability": "view",
      "type": "function"
    },
    {
      "inputs": [],
      "name": "owner",
      "outputs": [
        {
          "internalType": "address payable",
          "name": "",
          "type": "address"
        }
      ],
      "stateMutability": "view",
      "type": "function"
    },
    {
      "inputs": [],
      "name": "perform",
      "outputs": [
        {
          "internalType": "bool",
          "name": "",
          "type": "bool"
        }
      ],
      "stateMutability": "view",
      "type": "function"
    },
    {
      "inputs": [],
      "name": "perform1",
      "outputs": [
        {
          "internalType": "bool",
          "name": "",
          "type": "bool"
        }
      ],
      "stateMutability": "view",
      "type": "function"
    },
    {
      "inputs": [],
      "name": "sell",
      "outputs": [
        {
          "internalType": "bool",
          "name": "",
          "type": "bool"
        }
      ],
      "stateMutability": "view",
      "type": "function"
    },
    {
      "inputs": [],
      "name": "setup",
      "outputs": [],
      "stateMutability": "nonpayable",
      "type": "function"
    },
    {
      "inputs": [],
      "name": "totaldist",
      "outputs": [
        {
          "internalType": "uint256",
          "name": "",
          "type": "uint256"
        }
      ],
      "stateMutability": "view",
      "type": "function"
    },
    {
      "inputs": [],
      "name": "totaldist1",
      "outputs": [
        {
          "internalType": "uint256",
          "name": "",
          "type": "uint256"
        }
      ],
      "stateMutability": "view",
      "type": "function"
    },
    {
      "inputs": [],
      "name": "totaldist2",
      "outputs": [
        {
          "internalType": "uint256",
          "name": "",
          "type": "uint256"
        }
      ],
      "stateMutability": "view",
      "type": "function"
    },
    {
      "inputs": [
        {
          "internalType": "address payable",
          "name": "_newOwner",
          "type": "address"
        }
      ],
      "name": "transferOwnership",
      "outputs": [],
      "stateMutability": "nonpayable",
      "type": "function"
    },
    {
      "inputs": [],
      "name": "v1Share",
      "outputs": [
        {
          "internalType": "uint256",
          "name": "",
          "type": "uint256"
        }
      ],
      "stateMutability": "view",
      "type": "function"
    },
    {
      "inputs": [],
      "name": "v2Share",
      "outputs": [
        {
          "internalType": "uint256",
          "name": "",
          "type": "uint256"
        }
      ],
      "stateMutability": "view",
      "type": "function"
    },
    {
      "inputs": [],
      "name": "v2pair",
      "outputs": [
        {
          "internalType": "address",
          "name": "",
          "type": "address"
        }
      ],
      "stateMutability": "view",
      "type": "function"
    },
    {
      "stateMutability": "payable",
      "type": "receive"
    }
  ],
  "bytecode": {
    "object": "6080604052600180546001600160a01b031990811673f786c34106762ab4eeb45a51b42a62470e9d533217825560028054821673979838c9c16fd365c9fe028b0bea49b1750d86e917905560038054821673e3cdb92b094a3bef3f16103b53becfb17a3558ad1790556004805482167394d4ac11689c6ebba91cdc1430fc7dfa9a858753179055600580548216733b30bac3c331168e40fc6338ba2295a2f3adde5217905560068054821673389999216860ab8e0175387a0c90e5c52522c9451790556007805490911673f1e4712c44b24d5633972a6b0edca99b967d989e1790556024600855600c60098190556032600a55600b805460ff1990811684179091556702c68af0bb14000090915568056bc75e2d63100000600d5566038d7ea4c68000600e556000600f81905560108190556011556012805461ff0019921690921716905534801561015057600080fd5b50604051612ff3380380612ff38339818101604052606081101561017357600080fd5b5080516020820151604090920151600080546001600160a01b031990811633908117821617909155601280546001600160a01b03948516620100000262010000600160b01b0319909116179055601380549484169482169490941790935560148054918316918416919091179055600154601580549093169116179055612df4806101ff6000396000f3fe6080604052600436106102295760003560e01c80639acfe6ef11610123578063ca5a536e116100ab578063dda6ae201161006f578063dda6ae2014610678578063ef1bf78c1461068d578063f2fde38b146106a2578063f3172a62146106d5578063fb5d4842146106ea57610230565b8063ca5a536e146105d3578063cb04e7e714610606578063cc14d68814610639578063cddd72061461064e578063db77570b1461066357610230565b8063b4bee089116100f2578063b4bee08914610549578063b9d35e781461055e578063ba0bba4014610573578063c5f38a6214610588578063c8933005146105be57610230565b80639acfe6ef146104d75780639e96a23a146104ec578063ac4b252a14610501578063b147f40c1461053457610230565b80637e9b257e116101b15780638da5cb5b116101755780638da5cb5b1461043257806391cca3db1461044757806394db4d051461045c5780639793102f1461048f5780639a2f1997146104c257610230565b80637e9b257e146103825780638405923e146103ae5780638737297e146103d85780638b71bddb146103ed5780638d2a692d1461041d57610230565b8063436596c4116101f8578063436596c4146102d757806345710074146102ec5780634f49e65514610315578063724c592014610341578063775c300c1461036d57610230565b8063093a9fbc146102355780630e11c5c414610266578063200681391461028d57806338c94983146102c257610230565b3661023057005b600080fd5b34801561024157600080fd5b5061024a61071d565b604080516001600160a01b039092168252519081900360200190f35b34801561027257600080fd5b5061027b61072c565b60408051918252519081900360200190f35b34801561029957600080fd5b506102c0600480360360208110156102b057600080fd5b50356001600160a01b0316610732565b005b3480156102ce57600080fd5b5061024a610a5d565b3480156102e357600080fd5b506102c0610a6c565b3480156102f857600080fd5b50610301611255565b604080519115158252519081900360200190f35b34801561032157600080fd5b506102c06004803603602081101561033857600080fd5b5035151561125e565b34801561034d57600080fd5b506102c06004803603602081101561036457600080fd5b50351515611288565b34801561037957600080fd5b5061024a6112b2565b34801561038e57600080fd5b506102c0600480360360208110156103a557600080fd5b503515156112c1565b3480156103ba57600080fd5b506102c0600480360360208110156103d157600080fd5b50356112f2565b3480156103e457600080fd5b5061027b611357565b3480156103f957600080fd5b506102c06004803603604081101561041057600080fd5b508035906020013561135d565b34801561042957600080fd5b5061027b6113cd565b34801561043e57600080fd5b5061024a6113d3565b34801561045357600080fd5b5061024a6113e2565b34801561046857600080fd5b506102c06004803603602081101561047f57600080fd5b50356001600160a01b03166113f1565b34801561049b57600080fd5b506102c0600480360360208110156104b257600080fd5b50356001600160a01b0316611485565b3480156104ce57600080fd5b5061027b6114be565b3480156104e357600080fd5b5061027b6114c4565b3480156104f857600080fd5b5061027b6114ca565b34801561050d57600080fd5b506102c06004803603602081101561052457600080fd5b50356001600160a01b03166114d0565b34801561054057600080fd5b5061030161155c565b34801561055557600080fd5b506102c0611565565b34801561056a57600080fd5b5061024a61198e565b34801561057f57600080fd5b506102c061199d565b34801561059457600080fd5b506102c0600480360360608110156105ab57600080fd5b5080359060208101359060400135611bed565b3480156105ca57600080fd5b5061027b611d0f565b3480156105df57600080fd5b506102c0600480360360208110156105f657600080fd5b50356001600160a01b0316611d15565b34801561061257600080fd5b506102c06004803603602081101561062957600080fd5b50356001600160a01b0316611da1565b34801561064557600080fd5b5061024a611dda565b34801561065a57600080fd5b5061027b611de9565b34801561066f57600080fd5b5061027b611def565b34801561068457600080fd5b506102c0611df5565b34801561069957600080fd5b50610301612580565b3480156106ae57600080fd5b506102c0600480360360208110156106c557600080fd5b50356001600160a01b031661258e565b3480156106e157600080fd5b5061024a612635565b3480156106f657600080fd5b506102c06004803603602081101561070d57600080fd5b50356001600160a01b0316612644565b6006546001600160a01b031681565b600e5481565b6000546001600160a01b0316331461074957600080fd5b6006546001600160a01b03828116911614156107ac576040805162461bcd60e51b815260206004820152601760248201527f43616e6e6f742072656d6f766520757365727320464547000000000000000000604482015290519081900360640190fd5b6001546001600160a01b038281169116141561080f576040805162461bcd60e51b815260206004820152601860248201527f43616e6e6f742072656d6f766520757365727320664554480000000000000000604482015290519081900360640190fd5b6002546001600160a01b0382811691161415610872576040805162461bcd60e51b815260206004820152601960248201527f43616e6e6f742072656d6f766520757365727320665553445400000000000000604482015290519081900360640190fd5b6003546001600160a01b03828116911614156108d5576040805162461bcd60e51b815260206004820152601860248201527f43616e6e6f742072656d6f766520757365727320664254430000000000000000604482015290519081900360640190fd5b600054604080516370a0823160e01b815230600482015290516001600160a01b038085169363a9059cbb9391169184916370a08231916024808301926020929190829003018186803b15801561092a57600080fd5b505afa15801561093e573d6000803e3d6000fd5b505050506040513d602081101561095457600080fd5b5051604080516001600160e01b031960e086901b1681526001600160a01b03909316600484015260248301919091525160448083019260209291908290030181600087803b1580156109a557600080fd5b505af11580156109b9573d6000803e3d6000fd5b505050506040513d60208110156109cf57600080fd5b5051610a1f576040805162461bcd60e51b815260206004820152601a6024820152794572726f7220696e2072657472696576696e6720746f6b656e7360301b604482015290519081900360640190fd5b600080546040516001600160a01b03909116914780156108fc02929091818181858888f19350505050158015610a59573d6000803e3d6000fd5b5050565b6002546001600160a01b031681565b600f54600c54610a7b916126d0565b600154604080516370a0823160e01b815230600482015290516001600160a01b03909216916370a0823191602480820192602092909190829003018186803b158015610ac657600080fd5b505afa158015610ada573d6000803e3d6000fd5b505050506040513d6020811015610af057600080fd5b50511115610ed3576000610bac6103e8610ba66103e3610ba0600f54600160009054906101000a90046001600160a01b03166001600160a01b03166370a08231306040518263ffffffff1660e01b815260040180826001600160a01b0316815260200191505060206040518083038186803b158015610b6e57600080fd5b505afa158015610b82573d6000803e3d6000fd5b505050506040513d6020811015610b9857600080fd5b5051906126d0565b9061271b565b90612774565b600654601254604080516370a0823160e01b8152620100009092046001600160a01b03908116600484015290519394506000939216916370a0823191602480820192602092909190829003018186803b158015610c0857600080fd5b505afa158015610c1c573d6000803e3d6000fd5b505050506040513d6020811015610c3257600080fd5b5051600654601354604080516370a0823160e01b81526001600160a01b039283166004820152905193945060009391909216916370a08231916024808301926020929190829003018186803b158015610c8a57600080fd5b505afa158015610c9e573d6000803e3d6000fd5b505050506040513d6020811015610cb457600080fd5b505190506000610cca6064610ba686603061271b565b90506000610cd884846127b6565b90506000610cea82610ba6858861271b565b90506000610cf884836126d0565b6001546012546040805163a9059cbb60e01b81526001600160a01b03620100009093048316600482015260248101879052905193945091169163a9059cbb916044808201926020929091908290030181600087803b158015610d5957600080fd5b505af1158015610d6d573d6000803e3d6000fd5b505050506040513d6020811015610d8357600080fd5b5051610dc05760405162461bcd60e51b8152600401808060200182810382526030815260200180612d8f6030913960400191505060405180910390fd5b601260029054906101000a90046001600160a01b03166001600160a01b031663b53d6c24836040518263ffffffff1660e01b815260040180828152602001915050600060405180830381600087803b158015610e1b57600080fd5b505af1158015610e2f573d6000803e3d6000fd5b505060135460408051631e9d55cb60e21b81526004810186905290516001600160a01b039092169350637a75572c925060248082019260009290919082900301818387803b158015610e8057600080fd5b505af1158015610e94573d6000803e3d6000fd5b505050506000610eb7610eb084846127b690919063ffffffff16565b89906126d0565b600f54909150610ec790826127b6565b600f5550505050505050505b60125460ff1615156001141561108457601054600d54610ef2916126d0565b600254604080516370a0823160e01b815230600482015290516001600160a01b03909216916370a0823191602480820192602092909190829003018186803b158015610f3d57600080fd5b505afa158015610f51573d6000803e3d6000fd5b505050506040513d6020811015610f6757600080fd5b50511115611084576000610fe56103e8610ba66103e3610ba0601054600260009054906101000a90046001600160a01b03166001600160a01b03166370a08231306040518263ffffffff1660e01b815260040180826001600160a01b0316815260200191505060206040518083038186803b158015610b6e57600080fd5b90506000610ff96064610ba684603061271b565b9050600061100783836126d0565b6013546040805163f6a7f6bb60e01b81526004810186905290519293506001600160a01b039091169163f6a7f6bb9160248082019260009290919082900301818387803b15801561105757600080fd5b505af115801561106b573d6000803e3d6000fd5b505060105461107d92509050826127b6565b6010555050505b60125460ff6101009091041615156001141561123b57601154600e546110a9916126d0565b600354604080516370a0823160e01b815230600482015290516001600160a01b03909216916370a0823191602480820192602092909190829003018186803b1580156110f457600080fd5b505afa158015611108573d6000803e3d6000fd5b505050506040513d602081101561111e57600080fd5b5051111561123b57600061119c6103e8610ba66103e3610ba0601154600360009054906101000a90046001600160a01b03166001600160a01b03166370a08231306040518263ffffffff1660e01b815260040180826001600160a01b0316815260200191505060206040518083038186803b158015610b6e57600080fd5b905060006111b06064610ba684603061271b565b905060006111be83836126d0565b601354604080516348f3c6fd60e11b81526004810186905290519293506001600160a01b03909116916391e78dfa9160248082019260009290919082900301818387803b15801561120e57600080fd5b505af1158015611222573d6000803e3d6000fd5b505060115461123492509050826127b6565b6011555050505b600b5460ff1615156001141561125357611253612810565b565b600b5460ff1681565b6000546001600160a01b0316331461127557600080fd5b6012805460ff1916911515919091179055565b6000546001600160a01b0316331461129f57600080fd5b600b805460ff1916911515919091179055565b6005546001600160a01b031681565b6000546001600160a01b031633146112d857600080fd5b601280549115156101000261ff0019909216919091179055565b6000546001600160a01b0316331461130957600080fd5b60148111611352576040805162461bcd60e51b81526020600482015260116024820152701bdd995c880c8c09481c995c5d5a5c9959607a1b604482015290519081900360640190fd5b600a55565b600d5481565b6000546001600160a01b0316331461137457600080fd5b603081830111156113c2576040805162461bcd60e51b81526020600482015260136024820152726d75737420626520756e64657220302e31322560681b604482015290519081900360640190fd5b600891909155600955565b60105481565b6000546001600160a01b031681565b6004546001600160a01b031681565b6000546001600160a01b0316331461140857600080fd5b6001600160a01b03811661145b576040805162461bcd60e51b81526020600482015260156024820152741cd95d1d1a5b99c80c081d1bc818dbdb9d1c9858dd605a1b604482015290519081900360640190fd5b601280546001600160a01b03909216620100000262010000600160b01b0319909216919091179055565b6000546001600160a01b0316331461149c57600080fd5b600480546001600160a01b0319166001600160a01b0392909216919091179055565b60085481565b600c5481565b600a5481565b6000546001600160a01b031633146114e757600080fd5b6001600160a01b03811661153a576040805162461bcd60e51b81526020600482015260156024820152741cd95d1d1a5b99c80c081d1bc818dbdb9d1c9858dd605a1b604482015290519081900360640190fd5b601480546001600160a01b0319166001600160a01b0392909216919091179055565b60125460ff1681565b6000546001600160a01b0316331461157c57600080fd5b600154604080516370a0823160e01b815230600482015290516000926001600160a01b0316916370a08231916024808301926020929190829003018186803b1580156115c757600080fd5b505afa1580156115db573d6000803e3d6000fd5b505050506040513d60208110156115f157600080fd5b505111156116d75760015460048054600f546040805163a9059cbb60e01b81526001600160a01b039384169481019490945260248401919091525192169163a9059cbb916044808201926020929091908290030181600087803b15801561165757600080fd5b505af115801561166b573d6000803e3d6000fd5b505050506040513d602081101561168157600080fd5b50516116d1576040805162461bcd60e51b815260206004820152601a6024820152794572726f7220696e2072657472696576696e6720746f6b656e7360301b604482015290519081900360640190fd5b6000600f555b600254604080516370a0823160e01b815230600482015290516000926001600160a01b0316916370a08231916024808301926020929190829003018186803b15801561172257600080fd5b505afa158015611736573d6000803e3d6000fd5b505050506040513d602081101561174c57600080fd5b5051111561183257600254600480546010546040805163a9059cbb60e01b81526001600160a01b039384169481019490945260248401919091525192169163a9059cbb916044808201926020929091908290030181600087803b1580156117b257600080fd5b505af11580156117c6573d6000803e3d6000fd5b505050506040513d60208110156117dc57600080fd5b505161182c576040805162461bcd60e51b815260206004820152601a6024820152794572726f7220696e2072657472696576696e6720746f6b656e7360301b604482015290519081900360640190fd5b60006010555b600354604080516370a0823160e01b815230600482015290516000926001600160a01b0316916370a08231916024808301926020929190829003018186803b15801561187d57600080fd5b505afa158015611891573d6000803e3d6000fd5b505050506040513d60208110156118a757600080fd5b5051111561125357600354600480546011546040805163a9059cbb60e01b81526001600160a01b039384169481019490945260248401919091525192169163a9059cbb916044808201926020929091908290030181600087803b15801561190d57600080fd5b505af1158015611921573d6000803e3d6000fd5b505050506040513d602081101561193757600080fd5b5051611987576040805162461bcd60e51b815260206004820152601a6024820152794572726f7220696e2072657472696576696e6720746f6b656e7360301b604482015290519081900360640190fd5b6000601155565b6003546001600160a01b031681565b6006546007546040805163095ea7b360e01b81526001600160a01b0392831660048201526e13426172c74d822b878fe80000000060248201529051919092169163095ea7b39160448083019260209291908290030181600087803b158015611a0457600080fd5b505af1158015611a18573d6000803e3d6000fd5b505050506040513d6020811015611a2e57600080fd5b50506001546012546040805163095ea7b360e01b8152620100009092046001600160a01b0390811660048401526ec097ce7bc90715b34b9f10000000006024840152905192169163095ea7b3916044808201926020929091908290030181600087803b158015611a9d57600080fd5b505af1158015611ab1573d6000803e3d6000fd5b505050506040513d6020811015611ac757600080fd5b50506002546013546040805163095ea7b360e01b81526001600160a01b0392831660048201526ec097ce7bc90715b34b9f100000000060248201529051919092169163095ea7b39160448083019260209291908290030181600087803b158015611b3057600080fd5b505af1158015611b44573d6000803e3d6000fd5b505050506040513d6020811015611b5a57600080fd5b50506003546013546040805163095ea7b360e01b81526001600160a01b0392831660048201526ec097ce7bc90715b34b9f100000000060248201529051919092169163095ea7b39160448083019260209291908290030181600087803b158015611bc357600080fd5b505af1158015611bd7573d6000803e3d6000fd5b505050506040513d6020811015610a5957600080fd5b6000546001600160a01b03163314611c0457600080fd5b662386f26fc100008311611c5f576040805162461bcd60e51b815260206004820152601f60248201527f5f6d757374206d7573742062652067726561746572207468656e20302e303100604482015290519081900360640190fd5b6801158e460913d000008211611cbc576040805162461bcd60e51b815260206004820152601e60248201527f5f6d75737431206d7573742062652067726561746572207468656e2032300000604482015290519081900360640190fd5b66038d7ea4c680008111611d015760405162461bcd60e51b8152600401808060200182810382526021815260200180612d2b6021913960400191505060405180910390fd5b600c92909255600d55600e55565b60115481565b6000546001600160a01b03163314611d2c57600080fd5b6001600160a01b038116611d7f576040805162461bcd60e51b81526020600482015260156024820152741cd95d1d1a5b99c80c081d1bc818dbdb9d1c9858dd605a1b604482015290519081900360640190fd5b600580546001600160a01b0319166001600160a01b0392909216919091179055565b6000546001600160a01b03163314611db857600080fd5b600780546001600160a01b0319166001600160a01b0392909216919091179055565b6001546001600160a01b031681565b600f5481565b60095481565b600f54600c54611e04916126d0565b600154604080516370a0823160e01b815230600482015290516001600160a01b03909216916370a0823191602480820192602092909190829003018186803b158015611e4f57600080fd5b505afa158015611e63573d6000803e3d6000fd5b505050506040513d6020811015611e7957600080fd5b50511115612217576000611ef76103e8610ba66103e3610ba0600f54600160009054906101000a90046001600160a01b03166001600160a01b03166370a08231306040518263ffffffff1660e01b815260040180826001600160a01b0316815260200191505060206040518083038186803b158015610b6e57600080fd5b600654601254604080516370a0823160e01b8152620100009092046001600160a01b03908116600484015290519394506000939216916370a0823191602480820192602092909190829003018186803b158015611f5357600080fd5b505afa158015611f67573d6000803e3d6000fd5b505050506040513d6020811015611f7d57600080fd5b5051600654601354604080516370a0823160e01b81526001600160a01b039283166004820152905193945060009391909216916370a08231916024808301926020929190829003018186803b158015611fd557600080fd5b505afa158015611fe9573d6000803e3d6000fd5b505050506040513d6020811015611fff57600080fd5b5051905060006120156064610ba686603061271b565b9050600061202384846127b6565b9050600061203582610ba6858861271b565b9050600061204384836126d0565b6001546012546040805163a9059cbb60e01b81526001600160a01b03620100009093048316600482015260248101879052905193945091169163a9059cbb916044808201926020929091908290030181600087803b1580156120a457600080fd5b505af11580156120b8573d6000803e3d6000fd5b505050506040513d60208110156120ce57600080fd5b505161210b5760405162461bcd60e51b8152600401808060200182810382526030815260200180612d8f6030913960400191505060405180910390fd5b601260029054906101000a90046001600160a01b03166001600160a01b031663b53d6c24836040518263ffffffff1660e01b815260040180828152602001915050600060405180830381600087803b15801561216657600080fd5b505af115801561217a573d6000803e3d6000fd5b505060135460408051631e9d55cb60e21b81526004810186905290516001600160a01b039092169350637a75572c925060248082019260009290919082900301818387803b1580156121cb57600080fd5b505af11580156121df573d6000803e3d6000fd5b5050505060006121fb610eb084846127b690919063ffffffff16565b600f5490915061220b90826127b6565b600f5550505050505050505b60125460ff161515600114156123c857601054600d54612236916126d0565b600254604080516370a0823160e01b815230600482015290516001600160a01b03909216916370a0823191602480820192602092909190829003018186803b15801561228157600080fd5b505afa158015612295573d6000803e3d6000fd5b505050506040513d60208110156122ab57600080fd5b505111156123c85760006123296103e8610ba66103e3610ba0601054600260009054906101000a90046001600160a01b03166001600160a01b03166370a08231306040518263ffffffff1660e01b815260040180826001600160a01b0316815260200191505060206040518083038186803b158015610b6e57600080fd5b9050600061233d6064610ba684603061271b565b9050600061234b83836126d0565b6013546040805163f6a7f6bb60e01b81526004810186905290519293506001600160a01b039091169163f6a7f6bb9160248082019260009290919082900301818387803b15801561239b57600080fd5b505af11580156123af573d6000803e3d6000fd5b50506010546123c192509050826127b6565b6010555050505b60125460ff6101009091041615156001141561125357601154600e546123ed916126d0565b600354604080516370a0823160e01b815230600482015290516001600160a01b03909216916370a0823191602480820192602092909190829003018186803b15801561243857600080fd5b505afa15801561244c573d6000803e3d6000fd5b505050506040513d602081101561246257600080fd5b505111156112535760006124e06103e8610ba66103e3610ba0601154600360009054906101000a90046001600160a01b03166001600160a01b03166370a08231306040518263ffffffff1660e01b815260040180826001600160a01b0316815260200191505060206040518083038186803b158015610b6e57600080fd5b905060006124f46064610ba684603061271b565b9050600061250283836126d0565b601354604080516348f3c6fd60e11b81526004810186905290519293506001600160a01b03909116916391e78dfa9160248082019260009290919082900301818387803b15801561255257600080fd5b505af1158015612566573d6000803e3d6000fd5b505060115461257892509050826127b6565b601155505050565b601254610100900460ff1681565b6000546001600160a01b031633146125a557600080fd5b6001600160a01b0381166125ea5760405162461bcd60e51b8152600401808060200182810382526022815260200180612d4c6022913960400191505060405180910390fd5b600080546001600160a01b0319166001600160a01b0383169081178255604051909133917f8be0079c531659141344cd1fd0a4f28419497f9722a3daafe3b4186f6b6457e09190a350565b6007546001600160a01b031681565b6000546001600160a01b0316331461265b57600080fd5b6001600160a01b0381166126ae576040805162461bcd60e51b81526020600482015260156024820152741cd95d1d1a5b99c80c081d1bc818dbdb9d1c9858dd605a1b604482015290519081900360640190fd5b601380546001600160a01b0319166001600160a01b0392909216919091179055565b600061271283836040518060400160405280601e81526020017f536166654d6174683a207375627472616374696f6e206f766572666c6f770000815250612c2e565b90505b92915050565b60008261272a57506000612715565b8282028284828161273757fe5b04146127125760405162461bcd60e51b8152600401808060200182810382526021815260200180612d6e6021913960400191505060405180910390fd5b600061271283836040518060400160405280601a81526020017f536166654d6174683a206469766973696f6e206279207a65726f000000000000815250612cc5565b600082820183811015612712576040805162461bcd60e51b815260206004820152601b60248201527f536166654d6174683a206164646974696f6e206f766572666c6f770000000000604482015290519081900360640190fd5b601260029054906101000a90046001600160a01b03166001600160a01b031663b06843186040518163ffffffff1660e01b8152600401600060405180830381600087803b15801561286057600080fd5b505af1158015612874573d6000803e3d6000fd5b5050600a54600654600554604080516370a0823160e01b81526001600160a01b039283166004820152905160009650612904955091909216916370a08231916024808301926020929190829003018186803b1580156128d257600080fd5b505afa1580156128e6573d6000803e3d6000fd5b505050506040513d60208110156128fc57600080fd5b505190612774565b600654600554604080516323b872dd60e01b81526001600160a01b03928316600482015230602482015260448101859052905193945060009391909216916323b872dd91606480830192602092919082900301818787803b15801561296857600080fd5b505af115801561297c573d6000803e3d6000fd5b505050506040513d602081101561299257600080fd5b50519050806129da576040805162461bcd60e51b815260206004820152600f60248201526e4552525f45524332305f46414c534560881b604482015290519081900360640190fd5b601454600654604080516370a0823160e01b8152306004820181905291516001600160a01b0394851694631764d5959416916370a08231916024808301926020929190829003018186803b158015612a3157600080fd5b505afa158015612a45573d6000803e3d6000fd5b505050506040513d6020811015612a5b57600080fd5b5051604080516001600160e01b031960e086901b1681526001600160a01b03909316600484015260248301919091526064604483018190528151838201939091908290030181600087803b158015612ab257600080fd5b505af1158015612ac6573d6000803e3d6000fd5b505050506040513d6040811015612adc57600080fd5b505060015460408051630d0e30db60e41b815290516001600160a01b039092169163d0e30db0914791600480830192600092919082900301818588803b158015612b2557600080fd5b505af1158015612b39573d6000803e3d6000fd5b50505050506000612bb46103e8610ba66103de610ba0600f54600160009054906101000a90046001600160a01b03166001600160a01b03166370a08231306040518263ffffffff1660e01b815260040180826001600160a01b0316815260200191505060206040518083038186803b158015610b6e57600080fd5b9050601260029054906101000a90046001600160a01b03166001600160a01b0316637a75572c826040518263ffffffff1660e01b815260040180828152602001915050600060405180830381600087803b158015612c1157600080fd5b505af1158015612c25573d6000803e3d6000fd5b50505050505050565b60008184841115612cbd5760405162461bcd60e51b81526004018080602001828103825283818151815260200191508051906020019080838360005b83811015612c82578181015183820152602001612c6a565b50505050905090810190601f168015612caf5780820380516001836020036101000a031916815260200191505b509250505060405180910390fd5b505050900390565b60008183612d145760405162461bcd60e51b8152602060048201818152835160248401528351909283926044909101919085019080838360008315612c82578181015183820152602001612c6a565b506000838581612d2057fe5b049594505050505056fe5f6d75737432206d7573742062652067726561746572207468656e20302e30303145524332303a2073656e64696e6720746f20746865207a65726f2061646472657373536166654d6174683a206d756c7469706c69636174696f6e206f766572666c6f77546f6b656e732063616e6e6f74206265207472616e736665727265642066726f6d2066756e646572206163636f756e74a264697066735822122087e1dd7d614748b2ad8184909e9789f7c1ebb5b15558bdcaa952173f4b62132264736f6c63430007050033"
  }
}