{
  "opcodeHash": "0x8910d48f35b298fc8bdc98ff0a2d9a3c9902c2a87c32363cc9076cfd56904dd0",
  "metalessHash": "0x08ba7d5d9eedc1c607b1d1f5200d62c1106d5119e77cecd119443c483fe58447",
  "runtimeHash": "0xfcdda60653951ca67f6807a8cbd5795497002e3d4c6e46ddabc6915bab69d43d",
  "encodedMetadata": [
    {
      "ipfs": "/ipfs/QmdcqT6UxLMPqgQvj1a1BTMnu8GHUFPe3itbgGQiZhetuZ",
      "solc": "0.6.10"
    }
  ],
  "abi": [
    {
      "inputs": [
        {
          "internalType": "string",
          "name": "nomeLocador",
          "type": "string"
        },
        {
          "internalType": "string",
          "name": "nomeLocatario",
          "type": "string"
        },
        {
          "internalType": "uint256",
          "name": "valordoAluguel",
          "type": "uint256"
        }
      ],
      "stateMutability": "nonpayable",
      "type": "constructor"
    },
    {
      "inputs": [],
      "name": "locador",
      "outputs": [
        {
          "internalType": "string",
          "name": "",
          "type": "string"
        }
      ],
      "stateMutability": "view",
      "type": "function"
    },
    {
      "inputs": [],
      "name": "locatario",
      "outputs": [
        {
          "internalType": "string",
          "name": "",
          "type": "string"
        }
      ],
      "stateMutability": "view",
      "type": "function"
    }
  ],
  "bytecode": {
    "object": "608060405234801561001057600080fd5b5060405161044f38038061044f8339818101604052606081101561003357600080fd5b810190808051604051939291908464010000000082111561005357600080fd5b90830190602082018581111561006857600080fd5b825164010000000081118282018810171561008257600080fd5b82525081516020918201929091019080838360005b838110156100af578181015183820152602001610097565b50505050905090810190601f1680156100dc5780820380516001836020036101000a031916815260200191505b50604052602001805160405193929190846401000000008211156100ff57600080fd5b90830190602082018581111561011457600080fd5b825164010000000081118282018810171561012e57600080fd5b82525081516020918201929091019080838360005b8381101561015b578181015183820152602001610143565b50505050905090810190601f1680156101885780820380516001836020036101000a031916815260200191505b5060405260209081015185519093506101a792506000918601906101c7565b5081516101bb9060019060208501906101c7565b50600255506102629050565b828054600181600116156101000203166002900490600052602060002090601f016020900481019282601f1061020857805160ff1916838001178555610235565b82800160010185558215610235579182015b8281111561023557825182559160200191906001019061021a565b50610241929150610245565b5090565b61025f91905b80821115610241576000815560010161024b565b90565b6101de806102716000396000f3fe608060405234801561001057600080fd5b50600436106100365760003560e01c8063409bb8ab1461003b5780635098e165146100b8575b600080fd5b6100436100c0565b6040805160208082528351818301528351919283929083019185019080838360005b8381101561007d578181015183820152602001610065565b50505050905090810190601f1680156100aa5780820380516001836020036101000a031916815260200191505b509250505060405180910390f35b61004361014d565b60018054604080516020600284861615610100026000190190941693909304601f810184900484028201840190925281815292918301828280156101455780601f1061011a57610100808354040283529160200191610145565b820191906000526020600020905b81548152906001019060200180831161012857829003601f168201915b505050505081565b6000805460408051602060026001851615610100026000190190941693909304601f810184900484028201840190925281815292918301828280156101455780601f1061011a5761010080835404028352916020019161014556fea26469706673582212208b3ccabfca39fd539695dcaa9fcb77c2f878321b63f973cc9edb032d0d45714e64736f6c634300060a0033"
  }
}