{"compiler":"v0.4.18+commit.9cf6e910","opcodeHash":"0x57e3008643bd2af0736be81ead04bc069cb8650d21933e99b1210b6acd4e06ec","metalessHash":"0x6c223013700572791f434933afeb050b0841ee9cc603207340c829c29048dec9","runtimeHash":"0x318d8ff75f234f1b85b337c0a69ebfecd304b16c1680830caf11fc1829712eff","encodedMetadata":[{"bzzr0":"/swarm/bzzr0/827ed3bc58ed0620ac67b0857860523dfef4c18fbc6eb6085ea1ba53cddd80e3"}],"abi":[{"constant":true,"inputs":[],"name":"mintingFinished","outputs":[{"name":"","type":"bool"}],"payable":false,"stateMutability":"view","type":"function"},{"constant":true,"inputs":[],"name":"name","outputs":[{"name":"","type":"string"}],"payable":false,"stateMutability":"view","type":"function"},{"constant":false,"inputs":[{"name":"_spender","type":"address"},{"name":"_value","type":"uint256"}],"name":"approve","outputs":[{"name":"","type":"bool"}],"payable":false,"stateMutability":"nonpayable","type":"function"},{"constant":true,"inputs":[],"name":"totalSupply","outputs":[{"name":"","type":"uint256"}],"payable":false,"stateMutability":"view","type":"function"},{"constant":false,"inputs":[{"name":"_from","type":"address"},{"name":"_to","type":"address"},{"name":"_value","type":"uint256"}],"name":"transferFrom","outputs":[{"name":"","type":"bool"}],"payable":false,"stateMutability":"nonpayable","type":"function"},{"constant":true,"inputs":[],"name":"decimals","outputs":[{"name":"","type":"uint8"}],"payable":false,"stateMutability":"view","type":"function"},{"constant":false,"inputs":[{"name":"_to","type":"address"},{"name":"_amount","type":"uint256"}],"name":"mint","outputs":[{"name":"","type":"bool"}],"payable":false,"stateMutability":"nonpayable","type":"function"},{"constant":false,"inputs":[{"name":"_amount","type":"uint256"}],"name":"burn","outputs":[],"payable":false,"stateMutability":"nonpayable","type":"function"},{"constant":true,"inputs":[],"name":"version","outputs":[{"name":"","type":"string"}],"payable":false,"stateMutability":"view","type":"function"},{"constant":false,"inputs":[{"name":"_spender","type":"address"},{"name":"_subtractedValue","type":"uint256"}],"name":"decreaseApproval","outputs":[{"name":"","type":"bool"}],"payable":false,"stateMutability":"nonpayable","type":"function"},{"constant":true,"inputs":[{"name":"_owner","type":"address"}],"name":"balanceOf","outputs":[{"name":"balance","type":"uint256"}],"payable":false,"stateMutability":"view","type":"function"},{"constant":false,"inputs":[],"name":"finishMinting","outputs":[{"name":"","type":"bool"}],"payable":false,"stateMutability":"nonpayable","type":"function"},{"constant":true,"inputs":[],"name":"owner","outputs":[{"name":"","type":"address"}],"payable":false,"stateMutability":"view","type":"function"},{"constant":true,"inputs":[],"name":"symbol","outputs":[{"name":"","type":"string"}],"payable":false,"stateMutability":"view","type":"function"},{"constant":false,"inputs":[{"name":"_to","type":"address"},{"name":"_value","type":"uint256"}],"name":"transfer","outputs":[{"name":"","type":"bool"}],"payable":false,"stateMutability":"nonpayable","type":"function"},{"constant":false,"inputs":[{"name":"_tos","type":"address[]"},{"name":"_values","type":"uint256[]"}],"name":"multisend","outputs":[{"name":"","type":"uint256"}],"payable":false,"stateMutability":"nonpayable","type":"function"},{"constant":false,"inputs":[{"name":"_spender","type":"address"},{"name":"_addedValue","type":"uint256"}],"name":"increaseApproval","outputs":[{"name":"","type":"bool"}],"payable":false,"stateMutability":"nonpayable","type":"function"},{"constant":true,"inputs":[{"name":"_owner","type":"address"},{"name":"_spender","type":"address"}],"name":"allowance","outputs":[{"name":"","type":"uint256"}],"payable":false,"stateMutability":"view","type":"function"},{"constant":false,"inputs":[{"name":"newOwner","type":"address"}],"name":"transferOwnership","outputs":[],"payable":false,"stateMutability":"nonpayable","type":"function"},{"anonymous":false,"inputs":[{"indexed":true,"name":"burner","type":"address"},{"indexed":false,"name":"value","type":"uint256"}],"name":"Burn","type":"event"},{"anonymous":false,"inputs":[{"indexed":true,"name":"to","type":"address"},{"indexed":false,"name":"amount","type":"uint256"}],"name":"Mint","type":"event"},{"anonymous":false,"inputs":[],"name":"MintFinished","type":"event"},{"anonymous":false,"inputs":[{"indexed":true,"name":"previousOwner","type":"address"},{"indexed":true,"name":"newOwner","type":"address"}],"name":"OwnershipTransferred","type":"event"},{"anonymous":false,"inputs":[{"indexed":true,"name":"owner","type":"address"},{"indexed":true,"name":"spender","type":"address"},{"indexed":false,"name":"value","type":"uint256"}],"name":"Approval","type":"event"},{"anonymous":false,"inputs":[{"indexed":true,"name":"from","type":"address"},{"indexed":true,"name":"to","type":"address"},{"indexed":false,"name":"value","type":"uint256"}],"name":"Transfer","type":"event"}],"bytecode":{"object":"60606040526000600360146101000a81548160ff0219169083151502179055506040805190810160405280600781526020017f57696b6942697400000000000000000000000000000000000000000000000000815250600490805190602001906200006c9291906200016c565b506012600560006101000a81548160ff021916908360ff1602179055506040805190810160405280600781526020017f57696b694269740000000000000000000000000000000000000000000000000081525060069080519060200190620000d69291906200016c565b506040805190810160405280600381526020017f312e30000000000000000000000000000000000000000000000000000000000081525060079080519060200190620001249291906200016c565b5033600360006101000a81548173ffffffffffffffffffffffffffffffffffffffff021916908373ffffffffffffffffffffffffffffffffffffffff1602179055506200021b565b828054600181600116156101000203166002900490600052602060002090601f016020900481019282601f10620001af57805160ff1916838001178555620001e0565b82800160010185558215620001e0579182015b82811115620001df578251825591602001919060010190620001c2565b5b509050620001ef9190620001f3565b5090565b6200021891905b8082111562000214576000816000905550600101620001fa565b5090565b90565b611c65806200022b6000396000f300606060405260043610610107576000357c0100000000000000000000000000000000000000000000000000000000900463ffffffff16806305d2035b1461010c57806306fdde0314610139578063095ea7b3146101c757806318160ddd1461022157806323b872dd1461024a578063313ce567146102c357806340c10f19146102f257806342966c681461034c57806354fd4d501461036f57806366188463146103fd57806370a08231146104575780637d64bcb4146104a45780638da5cb5b146104d157806395d89b4114610526578063a9059cbb146105b4578063aad41a411461060e578063d73dd623146106bc578063dd62ed3e14610716578063f2fde38b14610782575b600080fd5b341561011757600080fd5b61011f6107bb565b604051808215151515815260200191505060405180910390f35b341561014457600080fd5b61014c6107ce565b6040518080602001828103825283818151815260200191508051906020019080838360005b8381101561018c578082015181840152602081019050610171565b50505050905090810190601f1680156101b95780820380516001836020036101000a031916815260200191505b509250505060405180910390f35b34156101d257600080fd5b610207600480803573ffffffffffffffffffffffffffffffffffffffff1690602001909190803590602001909190505061086c565b604051808215151515815260200191505060405180910390f35b341561022c57600080fd5b61023461095e565b6040518082815260200191505060405180910390f35b341561025557600080fd5b6102a9600480803573ffffffffffffffffffffffffffffffffffffffff1690602001909190803573ffffffffffffffffffffffffffffffffffffffff16906020019091908035906020019091905050610964565b604051808215151515815260200191505060405180910390f35b34156102ce57600080fd5b6102d6610d23565b604051808260ff1660ff16815260200191505060405180910390f35b34156102fd57600080fd5b610332600480803573ffffffffffffffffffffffffffffffffffffffff16906020019091908035906020019091905050610d36565b604051808215151515815260200191505060405180910390f35b341561035757600080fd5b61036d6004808035906020019091905050610f1e565b005b341561037a57600080fd5b610382611073565b6040518080602001828103825283818151815260200191508051906020019080838360005b838110156103c25780820151818401526020810190506103a7565b50505050905090810190601f1680156103ef5780820380516001836020036101000a031916815260200191505b509250505060405180910390f35b341561040857600080fd5b61043d600480803573ffffffffffffffffffffffffffffffffffffffff16906020019091908035906020019091905050611111565b604051808215151515815260200191505060405180910390f35b341561046257600080fd5b61048e600480803573ffffffffffffffffffffffffffffffffffffffff169060200190919050506113a2565b6040518082815260200191505060405180910390f35b34156104af57600080fd5b6104b76113eb565b604051808215151515815260200191505060405180910390f35b34156104dc57600080fd5b6104e46114b3565b604051808273ffffffffffffffffffffffffffffffffffffffff1673ffffffffffffffffffffffffffffffffffffffff16815260200191505060405180910390f35b341561053157600080fd5b6105396114d9565b6040518080602001828103825283818151815260200191508051906020019080838360005b8381101561057957808201518184015260208101905061055e565b50505050905090810190601f1680156105a65780820380516001836020036101000a031916815260200191505b509250505060405180910390f35b34156105bf57600080fd5b6105f4600480803573ffffffffffffffffffffffffffffffffffffffff16906020019091908035906020019091905050611577565b604051808215151515815260200191505060405180910390f35b341561061957600080fd5b6106a66004808035906020019082018035906020019080806020026020016040519081016040528093929190818152602001838360200280828437820191505050505050919080359060200190820180359060200190808060200260200160405190810160405280939291908181526020018383602002808284378201915050505050509190505061179b565b6040518082815260200191505060405180910390f35b34156106c757600080fd5b6106fc600480803573ffffffffffffffffffffffffffffffffffffffff16906020019091908035906020019091905050611827565b604051808215151515815260200191505060405180910390f35b341561072157600080fd5b61076c600480803573ffffffffffffffffffffffffffffffffffffffff1690602001909190803573ffffffffffffffffffffffffffffffffffffffff16906020019091905050611a23565b6040518082815260200191505060405180910390f35b341561078d57600080fd5b6107b9600480803573ffffffffffffffffffffffffffffffffffffffff16906020019091905050611aaa565b005b600360149054906101000a900460ff1681565b60048054600181600116156101000203166002900480601f0160208091040260200160405190810160405280929190818152602001828054600181600116156101000203166002900480156108645780601f1061083957610100808354040283529160200191610864565b820191906000526020600020905b81548152906001019060200180831161084757829003601f168201915b505050505081565b600081600260003373ffffffffffffffffffffffffffffffffffffffff1673ffffffffffffffffffffffffffffffffffffffff16815260200190815260200160002060008573ffffffffffffffffffffffffffffffffffffffff1673ffffffffffffffffffffffffffffffffffffffff168152602001908152602001600020819055508273ffffffffffffffffffffffffffffffffffffffff163373ffffffffffffffffffffffffffffffffffffffff167f8c5be1e5ebec7d5bd14f71427d1e84f3dd0314c0f7b2291e5b200ac8c7c3b925846040518082815260200191505060405180910390a36001905092915050565b60005481565b60008073ffffffffffffffffffffffffffffffffffffffff168373ffffffffffffffffffffffffffffffffffffffff16141515156109a157600080fd5b600160008573ffffffffffffffffffffffffffffffffffffffff1673ffffffffffffffffffffffffffffffffffffffff1681526020019081526020016000205482111515156109ef57600080fd5b600260008573ffffffffffffffffffffffffffffffffffffffff1673ffffffffffffffffffffffffffffffffffffffff16815260200190815260200160002060003373ffffffffffffffffffffffffffffffffffffffff1673ffffffffffffffffffffffffffffffffffffffff168152602001908152602001600020548211151515610a7a57600080fd5b610acc82600160008773ffffffffffffffffffffffffffffffffffffffff1673ffffffffffffffffffffffffffffffffffffffff16815260200190815260200160002054611c0290919063ffffffff16565b600160008673ffffffffffffffffffffffffffffffffffffffff1673ffffffffffffffffffffffffffffffffffffffff16815260200190815260200160002081905550610b6182600160008673ffffffffffffffffffffffffffffffffffffffff1673ffffffffffffffffffffffffffffffffffffffff16815260200190815260200160002054611c1b90919063ffffffff16565b600160008573ffffffffffffffffffffffffffffffffffffffff1673ffffffffffffffffffffffffffffffffffffffff16815260200190815260200160002081905550610c3382600260008773ffffffffffffffffffffffffffffffffffffffff1673ffffffffffffffffffffffffffffffffffffffff16815260200190815260200160002060003373ffffffffffffffffffffffffffffffffffffffff1673ffffffffffffffffffffffffffffffffffffffff16815260200190815260200160002054611c0290919063ffffffff16565b600260008673ffffffffffffffffffffffffffffffffffffffff1673ffffffffffffffffffffffffffffffffffffffff16815260200190815260200160002060003373ffffffffffffffffffffffffffffffffffffffff1673ffffffffffffffffffffffffffffffffffffffff168152602001908152602001600020819055508273ffffffffffffffffffffffffffffffffffffffff168473ffffffffffffffffffffffffffffffffffffffff167fddf252ad1be2c89b69c2b068fc378daa952ba7f163c4a11628f55a4df523b3ef846040518082815260200191505060405180910390a3600190509392505050565b600560009054906101000a900460ff1681565b6000600360009054906101000a900473ffffffffffffffffffffffffffffffffffffffff1673ffffffffffffffffffffffffffffffffffffffff163373ffffffffffffffffffffffffffffffffffffffff16141515610d9457600080fd5b600360149054906101000a900460ff16151515610db057600080fd5b610dc582600054611c1b90919063ffffffff16565b600081905550610e1d82600160008673ffffffffffffffffffffffffffffffffffffffff1673ffffffffffffffffffffffffffffffffffffffff16815260200190815260200160002054611c1b90919063ffffffff16565b600160008573ffffffffffffffffffffffffffffffffffffffff1673ffffffffffffffffffffffffffffffffffffffff168152602001908152602001600020819055508273ffffffffffffffffffffffffffffffffffffffff167f0f6798a560793a54c3bcfe86a93cde1e73087d944c0ea20544137d4121396885836040518082815260200191505060405180910390a28273ffffffffffffffffffffffffffffffffffffffff16600073ffffffffffffffffffffffffffffffffffffffff167fddf252ad1be2c89b69c2b068fc378daa952ba7f163c4a11628f55a4df523b3ef846040518082815260200191505060405180910390a36001905092915050565b6000600160003373ffffffffffffffffffffffffffffffffffffffff1673ffffffffffffffffffffffffffffffffffffffff168152602001908152602001600020548211151515610f6e57600080fd5b339050610fc382600160008473ffffffffffffffffffffffffffffffffffffffff1673ffffffffffffffffffffffffffffffffffffffff16815260200190815260200160002054611c0290919063ffffffff16565b600160008373ffffffffffffffffffffffffffffffffffffffff1673ffffffffffffffffffffffffffffffffffffffff1681526020019081526020016000208190555061101b82600054611c0290919063ffffffff16565b6000819055508073ffffffffffffffffffffffffffffffffffffffff167fcc16f5dbb4873280815c1ee09dbd06736cffcc184412cf7a71a0fdb75d397ca5836040518082815260200191505060405180910390a25050565b60078054600181600116156101000203166002900480601f0160208091040260200160405190810160405280929190818152602001828054600181600116156101000203166002900480156111095780601f106110de57610100808354040283529160200191611109565b820191906000526020600020905b8154815290600101906020018083116110ec57829003601f168201915b505050505081565b600080600260003373ffffffffffffffffffffffffffffffffffffffff1673ffffffffffffffffffffffffffffffffffffffff16815260200190815260200160002060008573ffffffffffffffffffffffffffffffffffffffff1673ffffffffffffffffffffffffffffffffffffffff16815260200190815260200160002054905080831115611222576000600260003373ffffffffffffffffffffffffffffffffffffffff1673ffffffffffffffffffffffffffffffffffffffff16815260200190815260200160002060008673ffffffffffffffffffffffffffffffffffffffff1673ffffffffffffffffffffffffffffffffffffffff168152602001908152602001600020819055506112b6565b6112358382611c0290919063ffffffff16565b600260003373ffffffffffffffffffffffffffffffffffffffff1673ffffffffffffffffffffffffffffffffffffffff16815260200190815260200160002060008673ffffffffffffffffffffffffffffffffffffffff1673ffffffffffffffffffffffffffffffffffffffff168152602001908152602001600020819055505b8373ffffffffffffffffffffffffffffffffffffffff163373ffffffffffffffffffffffffffffffffffffffff167f8c5be1e5ebec7d5bd14f71427d1e84f3dd0314c0f7b2291e5b200ac8c7c3b925600260003373ffffffffffffffffffffffffffffffffffffffff1673ffffffffffffffffffffffffffffffffffffffff16815260200190815260200160002060008873ffffffffffffffffffffffffffffffffffffffff1673ffffffffffffffffffffffffffffffffffffffff168152602001908152602001600020546040518082815260200191505060405180910390a3600191505092915050565b6000600160008373ffffffffffffffffffffffffffffffffffffffff1673ffffffffffffffffffffffffffffffffffffffff168152602001908152602001600020549050919050565b6000600360009054906101000a900473ffffffffffffffffffffffffffffffffffffffff1673ffffffffffffffffffffffffffffffffffffffff163373ffffffffffffffffffffffffffffffffffffffff1614151561144957600080fd5b600360149054906101000a900460ff1615151561146557600080fd5b6001600360146101000a81548160ff0219169083151502179055507fae5184fba832cb2b1f702aca6117b8d265eaf03ad33eb133f19dde0f5920fa0860405160405180910390a16001905090565b600360009054906101000a900473ffffffffffffffffffffffffffffffffffffffff1681565b60068054600181600116156101000203166002900480601f01602080910402602001604051908101604052809291908181526020018280546001816001161561010002031660029004801561156f5780601f106115445761010080835404028352916020019161156f565b820191906000526020600020905b81548152906001019060200180831161155257829003601f168201915b505050505081565b60008073ffffffffffffffffffffffffffffffffffffffff168373ffffffffffffffffffffffffffffffffffffffff16141515156115b457600080fd5b600160003373ffffffffffffffffffffffffffffffffffffffff1673ffffffffffffffffffffffffffffffffffffffff16815260200190815260200160002054821115151561160257600080fd5b61165482600160003373ffffffffffffffffffffffffffffffffffffffff1673ffffffffffffffffffffffffffffffffffffffff16815260200190815260200160002054611c0290919063ffffffff16565b600160003373ffffffffffffffffffffffffffffffffffffffff1673ffffffffffffffffffffffffffffffffffffffff168152602001908152602001600020819055506116e982600160008673ffffffffffffffffffffffffffffffffffffffff1673ffffffffffffffffffffffffffffffffffffffff16815260200190815260200160002054611c1b90919063ffffffff16565b600160008573ffffffffffffffffffffffffffffffffffffffff1673ffffffffffffffffffffffffffffffffffffffff168152602001908152602001600020819055508273ffffffffffffffffffffffffffffffffffffffff163373ffffffffffffffffffffffffffffffffffffffff167fddf252ad1be2c89b69c2b068fc378daa952ba7f163c4a11628f55a4df523b3ef846040518082815260200191505060405180910390a36001905092915050565b6000806000835185511480156117b357506001855110155b15156117be57600080fd5b60009150600090505b845181101561181c5761180885828151811015156117e157fe5b9060200190602002015185838151811015156117f957fe5b90602001906020020151611577565b5060018201915080806001019150506117c7565b819250505092915050565b60006118b882600260003373ffffffffffffffffffffffffffffffffffffffff1673ffffffffffffffffffffffffffffffffffffffff16815260200190815260200160002060008673ffffffffffffffffffffffffffffffffffffffff1673ffffffffffffffffffffffffffffffffffffffff16815260200190815260200160002054611c1b90919063ffffffff16565b600260003373ffffffffffffffffffffffffffffffffffffffff1673ffffffffffffffffffffffffffffffffffffffff16815260200190815260200160002060008573ffffffffffffffffffffffffffffffffffffffff1673ffffffffffffffffffffffffffffffffffffffff168152602001908152602001600020819055508273ffffffffffffffffffffffffffffffffffffffff163373ffffffffffffffffffffffffffffffffffffffff167f8c5be1e5ebec7d5bd14f71427d1e84f3dd0314c0f7b2291e5b200ac8c7c3b925600260003373ffffffffffffffffffffffffffffffffffffffff1673ffffffffffffffffffffffffffffffffffffffff16815260200190815260200160002060008773ffffffffffffffffffffffffffffffffffffffff1673ffffffffffffffffffffffffffffffffffffffff168152602001908152602001600020546040518082815260200191505060405180910390a36001905092915050565b6000600260008473ffffffffffffffffffffffffffffffffffffffff1673ffffffffffffffffffffffffffffffffffffffff16815260200190815260200160002060008373ffffffffffffffffffffffffffffffffffffffff1673ffffffffffffffffffffffffffffffffffffffff16815260200190815260200160002054905092915050565b600360009054906101000a900473ffffffffffffffffffffffffffffffffffffffff1673ffffffffffffffffffffffffffffffffffffffff163373ffffffffffffffffffffffffffffffffffffffff16141515611b0657600080fd5b600073ffffffffffffffffffffffffffffffffffffffff168173ffffffffffffffffffffffffffffffffffffffff1614151515611b4257600080fd5b8073ffffffffffffffffffffffffffffffffffffffff16600360009054906101000a900473ffffffffffffffffffffffffffffffffffffffff1673ffffffffffffffffffffffffffffffffffffffff167f8be0079c531659141344cd1fd0a4f28419497f9722a3daafe3b4186f6b6457e060405160405180910390a380600360006101000a81548173ffffffffffffffffffffffffffffffffffffffff021916908373ffffffffffffffffffffffffffffffffffffffff16021790555050565b6000828211151515611c1057fe5b818303905092915050565b6000808284019050838110151515611c2f57fe5b80915050929150505600a165627a7a72305820382d0a3b93b216301d68b255f08d66578f3ecde0b5d75eb3b77d746a303048760029"}}