{
  "opcodeHash": "0x697a094bc1567300ed2f2dc81bf0de7c32f42b60b56fd777087ba11d27e0a213",
  "metalessHash": "0x9136daa6cc35179362df068d500fe2f49c8b7e46ab3b6b0ac11d8d5b60073d0d",
  "runtimeHash": "0x841d617c64a954d3b5853fbc252193481edec36c09826c0fce172d99ff8898a6",
  "encodedMetadata": [
    {
      "ipfs": "/ipfs/QmeSBNFov64bhgsAmiUoD5rpi6AMDbBB7vcVHoWA6h6q4z",
      "solc": "0.6.12"
    }
  ],
  "abi": [
    {
      "inputs": [
        {
          "internalType": "contract ChillToken",
          "name": "_chill",
          "type": "address"
        },
        {
          "internalType": "address",
          "name": "_devaddr",
          "type": "address"
        },
        {
          "internalType": "uint256",
          "name": "_startBlockOfChill",
          "type": "uint256"
        }
      ],
      "stateMutability": "nonpayable",
      "type": "constructor"
    },
    {
      "anonymous": false,
      "inputs": [
        {
          "indexed": true,
          "internalType": "address",
          "name": "user",
          "type": "address"
        },
        {
          "indexed": true,
          "internalType": "uint256",
          "name": "pid",
          "type": "uint256"
        },
        {
          "indexed": false,
          "internalType": "uint256",
          "name": "amount",
          "type": "uint256"
        }
      ],
      "name": "Deposit",
      "type": "event"
    },
    {
      "anonymous": false,
      "inputs": [
        {
          "indexed": true,
          "internalType": "address",
          "name": "user",
          "type": "address"
        },
        {
          "indexed": true,
          "internalType": "uint256",
          "name": "pid",
          "type": "uint256"
        },
        {
          "indexed": false,
          "internalType": "uint256",
          "name": "amount",
          "type": "uint256"
        }
      ],
      "name": "EmergencyWithdraw",
      "type": "event"
    },
    {
      "anonymous": false,
      "inputs": [
        {
          "indexed": true,
          "internalType": "address",
          "name": "previousOwner",
          "type": "address"
        },
        {
          "indexed": true,
          "internalType": "address",
          "name": "newOwner",
          "type": "address"
        }
      ],
      "name": "OwnershipTransferred",
      "type": "event"
    },
    {
      "anonymous": false,
      "inputs": [
        {
          "indexed": true,
          "internalType": "address",
          "name": "user",
          "type": "address"
        },
        {
          "indexed": true,
          "internalType": "uint256",
          "name": "pid",
          "type": "uint256"
        },
        {
          "indexed": false,
          "internalType": "uint256",
          "name": "amount",
          "type": "uint256"
        }
      ],
      "name": "Withdraw",
      "type": "event"
    },
    {
      "inputs": [],
      "name": "BONUS_MULTIPLIER",
      "outputs": [
        {
          "internalType": "uint256",
          "name": "",
          "type": "uint256"
        }
      ],
      "stateMutability": "view",
      "type": "function"
    },
    {
      "inputs": [],
      "name": "DEV_FEE",
      "outputs": [
        {
          "internalType": "uint256",
          "name": "",
          "type": "uint256"
        }
      ],
      "stateMutability": "view",
      "type": "function"
    },
    {
      "inputs": [],
      "name": "DEV_TAX_FEE",
      "outputs": [
        {
          "internalType": "uint256",
          "name": "",
          "type": "uint256"
        }
      ],
      "stateMutability": "view",
      "type": "function"
    },
    {
      "inputs": [
        {
          "internalType": "address",
          "name": "_uniAddress",
          "type": "address"
        },
        {
          "internalType": "address",
          "name": "_to",
          "type": "address"
        },
        {
          "internalType": "uint256",
          "name": "_amount",
          "type": "uint256"
        }
      ],
      "name": "accessReward",
      "outputs": [],
      "stateMutability": "nonpayable",
      "type": "function"
    },
    {
      "inputs": [
        {
          "internalType": "uint256",
          "name": "_allocPoint",
          "type": "uint256"
        },
        {
          "internalType": "contract IERC20",
          "name": "_lpToken",
          "type": "address"
        },
        {
          "internalType": "bool",
          "name": "_withUpdate",
          "type": "bool"
        }
      ],
      "name": "add",
      "outputs": [],
      "stateMutability": "nonpayable",
      "type": "function"
    },
    {
      "inputs": [
        {
          "internalType": "address",
          "name": "_uniV2Pool",
          "type": "address"
        },
        {
          "internalType": "address",
          "name": "_stakingRewardAddress",
          "type": "address"
        }
      ],
      "name": "addStakeUniPool",
      "outputs": [],
      "stateMutability": "nonpayable",
      "type": "function"
    },
    {
      "inputs": [
        {
          "internalType": "uint256",
          "name": "",
          "type": "uint256"
        }
      ],
      "name": "blockMilestone",
      "outputs": [
        {
          "internalType": "uint256",
          "name": "",
          "type": "uint256"
        }
      ],
      "stateMutability": "view",
      "type": "function"
    },
    {
      "inputs": [
        {
          "internalType": "uint256",
          "name": "",
          "type": "uint256"
        }
      ],
      "name": "blockPerPhase",
      "outputs": [
        {
          "internalType": "uint256",
          "name": "",
          "type": "uint256"
        }
      ],
      "stateMutability": "view",
      "type": "function"
    },
    {
      "inputs": [],
      "name": "bonusEndBlock",
      "outputs": [
        {
          "internalType": "uint256",
          "name": "",
          "type": "uint256"
        }
      ],
      "stateMutability": "view",
      "type": "function"
    },
    {
      "inputs": [],
      "name": "chill",
      "outputs": [
        {
          "internalType": "contract ChillToken",
          "name": "",
          "type": "address"
        }
      ],
      "stateMutability": "view",
      "type": "function"
    },
    {
      "inputs": [
        {
          "internalType": "uint256",
          "name": "_pid",
          "type": "uint256"
        },
        {
          "internalType": "uint256",
          "name": "_amount",
          "type": "uint256"
        }
      ],
      "name": "deposit",
      "outputs": [],
      "stateMutability": "nonpayable",
      "type": "function"
    },
    {
      "inputs": [
        {
          "internalType": "address",
          "name": "_devaddr",
          "type": "address"
        },
        {
          "internalType": "uint256",
          "name": "_devFee",
          "type": "uint256"
        },
        {
          "internalType": "uint256",
          "name": "_devTaxFee",
          "type": "uint256"
        }
      ],
      "name": "dev",
      "outputs": [],
      "stateMutability": "nonpayable",
      "type": "function"
    },
    {
      "inputs": [],
      "name": "devaddr",
      "outputs": [
        {
          "internalType": "address",
          "name": "",
          "type": "address"
        }
      ],
      "stateMutability": "view",
      "type": "function"
    },
    {
      "inputs": [],
      "name": "getBurnedDetails",
      "outputs": [
        {
          "internalType": "uint256",
          "name": "",
          "type": "uint256"
        },
        {
          "internalType": "uint256",
          "name": "",
          "type": "uint256"
        },
        {
          "internalType": "uint256",
          "name": "",
          "type": "uint256"
        },
        {
          "internalType": "uint256",
          "name": "",
          "type": "uint256"
        }
      ],
      "stateMutability": "view",
      "type": "function"
    },
    {
      "inputs": [
        {
          "internalType": "uint256",
          "name": "_from",
          "type": "uint256"
        },
        {
          "internalType": "uint256",
          "name": "currentblock",
          "type": "uint256"
        }
      ],
      "name": "getCrossMultiplier",
      "outputs": [
        {
          "internalType": "uint256",
          "name": "",
          "type": "uint256"
        }
      ],
      "stateMutability": "view",
      "type": "function"
    },
    {
      "inputs": [
        {
          "internalType": "uint256",
          "name": "_from",
          "type": "uint256"
        },
        {
          "internalType": "uint256",
          "name": "_to",
          "type": "uint256"
        }
      ],
      "name": "getMultiplier",
      "outputs": [
        {
          "internalType": "uint256",
          "name": "",
          "type": "uint256"
        }
      ],
      "stateMutability": "view",
      "type": "function"
    },
    {
      "inputs": [
        {
          "internalType": "uint256",
          "name": "_from",
          "type": "uint256"
        }
      ],
      "name": "getNirvanaStatus",
      "outputs": [
        {
          "internalType": "uint256",
          "name": "",
          "type": "uint256"
        }
      ],
      "stateMutability": "view",
      "type": "function"
    },
    {
      "inputs": [],
      "name": "getPhaseTimeAndBlocks",
      "outputs": [
        {
          "internalType": "uint256",
          "name": "",
          "type": "uint256"
        },
        {
          "internalType": "uint256",
          "name": "",
          "type": "uint256"
        }
      ],
      "stateMutability": "view",
      "type": "function"
    },
    {
      "inputs": [
        {
          "internalType": "uint256",
          "name": "_pid",
          "type": "uint256"
        }
      ],
      "name": "getPoolUsers",
      "outputs": [
        {
          "internalType": "address[]",
          "name": "",
          "type": "address[]"
        }
      ],
      "stateMutability": "view",
      "type": "function"
    },
    {
      "inputs": [
        {
          "internalType": "address",
          "name": "_stakeAddress",
          "type": "address"
        }
      ],
      "name": "getUniReward",
      "outputs": [],
      "stateMutability": "nonpayable",
      "type": "function"
    },
    {
      "inputs": [],
      "name": "initialAmt",
      "outputs": [
        {
          "internalType": "uint256",
          "name": "",
          "type": "uint256"
        }
      ],
      "stateMutability": "view",
      "type": "function"
    },
    {
      "inputs": [
        {
          "internalType": "uint256",
          "name": "",
          "type": "uint256"
        }
      ],
      "name": "isCheckInitialPeriod",
      "outputs": [
        {
          "internalType": "bool",
          "name": "",
          "type": "bool"
        }
      ],
      "stateMutability": "view",
      "type": "function"
    },
    {
      "inputs": [
        {
          "internalType": "uint256",
          "name": "",
          "type": "uint256"
        },
        {
          "internalType": "address",
          "name": "",
          "type": "address"
        }
      ],
      "name": "isUserExist",
      "outputs": [
        {
          "internalType": "bool",
          "name": "",
          "type": "bool"
        }
      ],
      "stateMutability": "view",
      "type": "function"
    },
    {
      "inputs": [],
      "name": "massUpdatePools",
      "outputs": [],
      "stateMutability": "nonpayable",
      "type": "function"
    },
    {
      "inputs": [
        {
          "internalType": "uint256",
          "name": "_pid",
          "type": "uint256"
        }
      ],
      "name": "migrate",
      "outputs": [],
      "stateMutability": "nonpayable",
      "type": "function"
    },
    {
      "inputs": [],
      "name": "migrator",
      "outputs": [
        {
          "internalType": "contract IMigratorChef",
          "name": "",
          "type": "address"
        }
      ],
      "stateMutability": "view",
      "type": "function"
    },
    {
      "inputs": [],
      "name": "owner",
      "outputs": [
        {
          "internalType": "address",
          "name": "",
          "type": "address"
        }
      ],
      "stateMutability": "view",
      "type": "function"
    },
    {
      "inputs": [
        {
          "internalType": "uint256",
          "name": "_pid",
          "type": "uint256"
        },
        {
          "internalType": "address",
          "name": "_user",
          "type": "address"
        }
      ],
      "name": "pendingChill",
      "outputs": [
        {
          "internalType": "uint256",
          "name": "",
          "type": "uint256"
        }
      ],
      "stateMutability": "view",
      "type": "function"
    },
    {
      "inputs": [],
      "name": "phase1time",
      "outputs": [
        {
          "internalType": "uint256",
          "name": "",
          "type": "uint256"
        }
      ],
      "stateMutability": "view",
      "type": "function"
    },
    {
      "inputs": [],
      "name": "phase2time",
      "outputs": [
        {
          "internalType": "uint256",
          "name": "",
          "type": "uint256"
        }
      ],
      "stateMutability": "view",
      "type": "function"
    },
    {
      "inputs": [],
      "name": "phase3time",
      "outputs": [
        {
          "internalType": "uint256",
          "name": "",
          "type": "uint256"
        }
      ],
      "stateMutability": "view",
      "type": "function"
    },
    {
      "inputs": [],
      "name": "phase4time",
      "outputs": [
        {
          "internalType": "uint256",
          "name": "",
          "type": "uint256"
        }
      ],
      "stateMutability": "view",
      "type": "function"
    },
    {
      "inputs": [],
      "name": "phase5time",
      "outputs": [
        {
          "internalType": "uint256",
          "name": "",
          "type": "uint256"
        }
      ],
      "stateMutability": "view",
      "type": "function"
    },
    {
      "inputs": [
        {
          "internalType": "uint256",
          "name": "",
          "type": "uint256"
        }
      ],
      "name": "poolInfo",
      "outputs": [
        {
          "internalType": "contract IERC20",
          "name": "lpToken",
          "type": "address"
        },
        {
          "internalType": "uint256",
          "name": "allocPoint",
          "type": "uint256"
        },
        {
          "internalType": "uint256",
          "name": "lastRewardBlock",
          "type": "uint256"
        },
        {
          "internalType": "uint256",
          "name": "accChillPerShare",
          "type": "uint256"
        },
        {
          "internalType": "uint256",
          "name": "totalPoolBalance",
          "type": "uint256"
        },
        {
          "internalType": "address",
          "name": "nirvanaRewardAddress",
          "type": "address"
        },
        {
          "internalType": "uint256",
          "name": "nirvanaFee",
          "type": "uint256"
        }
      ],
      "stateMutability": "view",
      "type": "function"
    },
    {
      "inputs": [],
      "name": "poolLength",
      "outputs": [
        {
          "internalType": "uint256",
          "name": "",
          "type": "uint256"
        }
      ],
      "stateMutability": "view",
      "type": "function"
    },
    {
      "inputs": [
        {
          "internalType": "uint256",
          "name": "",
          "type": "uint256"
        },
        {
          "internalType": "uint256",
          "name": "",
          "type": "uint256"
        }
      ],
      "name": "poolUsers",
      "outputs": [
        {
          "internalType": "address",
          "name": "",
          "type": "address"
        }
      ],
      "stateMutability": "view",
      "type": "function"
    },
    {
      "inputs": [
        {
          "internalType": "address",
          "name": "_uniV2Pool",
          "type": "address"
        }
      ],
      "name": "removeStakeUniPool",
      "outputs": [],
      "stateMutability": "nonpayable",
      "type": "function"
    },
    {
      "inputs": [],
      "name": "renounceOwnership",
      "outputs": [],
      "stateMutability": "nonpayable",
      "type": "function"
    },
    {
      "inputs": [
        {
          "internalType": "uint256",
          "name": "_pid",
          "type": "uint256"
        },
        {
          "internalType": "uint256",
          "name": "_allocPoint",
          "type": "uint256"
        },
        {
          "internalType": "uint256",
          "name": "_nirvanaFee",
          "type": "uint256"
        },
        {
          "internalType": "address",
          "name": "_nirvanaRewardAddress",
          "type": "address"
        },
        {
          "internalType": "bool",
          "name": "_withUpdate",
          "type": "bool"
        }
      ],
      "name": "set",
      "outputs": [],
      "stateMutability": "nonpayable",
      "type": "function"
    },
    {
      "inputs": [
        {
          "internalType": "uint256",
          "name": "_index",
          "type": "uint256"
        },
        {
          "internalType": "uint256",
          "name": "_time",
          "type": "uint256"
        },
        {
          "internalType": "uint256",
          "name": "_chillPerBlock",
          "type": "uint256"
        }
      ],
      "name": "setAndEditPhaseTime",
      "outputs": [],
      "stateMutability": "nonpayable",
      "type": "function"
    },
    {
      "inputs": [
        {
          "internalType": "uint256",
          "name": "_index",
          "type": "uint256"
        },
        {
          "internalType": "uint256",
          "name": "_blockMilestone",
          "type": "uint256"
        }
      ],
      "name": "setBlockMilestoneByIndex",
      "outputs": [],
      "stateMutability": "nonpayable",
      "type": "function"
    },
    {
      "inputs": [
        {
          "internalType": "uint256",
          "name": "_pid",
          "type": "uint256"
        },
        {
          "internalType": "bool",
          "name": "_isCheck",
          "type": "bool"
        },
        {
          "internalType": "uint256",
          "name": "_amount",
          "type": "uint256"
        }
      ],
      "name": "setCheckInitialPeriodAndAmount",
      "outputs": [],
      "stateMutability": "nonpayable",
      "type": "function"
    },
    {
      "inputs": [
        {
          "internalType": "address",
          "name": "_migrator",
          "type": "address"
        }
      ],
      "name": "setMigrator",
      "outputs": [],
      "stateMutability": "nonpayable",
      "type": "function"
    },
    {
      "inputs": [
        {
          "internalType": "address",
          "name": "_distributor",
          "type": "address"
        },
        {
          "internalType": "bool",
          "name": "_isdistributor",
          "type": "bool"
        }
      ],
      "name": "setRewardDistributor",
      "outputs": [],
      "stateMutability": "nonpayable",
      "type": "function"
    },
    {
      "inputs": [
        {
          "internalType": "address",
          "name": "",
          "type": "address"
        }
      ],
      "name": "stakingUniPools",
      "outputs": [
        {
          "internalType": "bool",
          "name": "",
          "type": "bool"
        }
      ],
      "stateMutability": "view",
      "type": "function"
    },
    {
      "inputs": [],
      "name": "startBlockOfChill",
      "outputs": [
        {
          "internalType": "uint256",
          "name": "",
          "type": "uint256"
        }
      ],
      "stateMutability": "view",
      "type": "function"
    },
    {
      "inputs": [],
      "name": "totalAllocPoint",
      "outputs": [
        {
          "internalType": "uint256",
          "name": "",
          "type": "uint256"
        }
      ],
      "stateMutability": "view",
      "type": "function"
    },
    {
      "inputs": [
        {
          "internalType": "address",
          "name": "newOwner",
          "type": "address"
        }
      ],
      "name": "transferOwnership",
      "outputs": [],
      "stateMutability": "nonpayable",
      "type": "function"
    },
    {
      "inputs": [
        {
          "internalType": "address",
          "name": "",
          "type": "address"
        }
      ],
      "name": "uniRewardAddresses",
      "outputs": [
        {
          "internalType": "address",
          "name": "",
          "type": "address"
        }
      ],
      "stateMutability": "view",
      "type": "function"
    },
    {
      "inputs": [
        {
          "internalType": "uint256",
          "name": "_pid",
          "type": "uint256"
        }
      ],
      "name": "updatePool",
      "outputs": [],
      "stateMutability": "nonpayable",
      "type": "function"
    },
    {
      "inputs": [
        {
          "internalType": "uint256",
          "name": "",
          "type": "uint256"
        },
        {
          "internalType": "address",
          "name": "",
          "type": "address"
        }
      ],
      "name": "userInfo",
      "outputs": [
        {
          "internalType": "uint256",
          "name": "amount",
          "type": "uint256"
        },
        {
          "internalType": "uint256",
          "name": "rewardDebt",
          "type": "uint256"
        },
        {
          "internalType": "uint256",
          "name": "startedBlock",
          "type": "uint256"
        }
      ],
      "stateMutability": "view",
      "type": "function"
    },
    {
      "inputs": [
        {
          "internalType": "uint256",
          "name": "_pid",
          "type": "uint256"
        }
      ],
      "name": "userPoollength",
      "outputs": [
        {
          "internalType": "uint256",
          "name": "",
          "type": "uint256"
        }
      ],
      "stateMutability": "view",
      "type": "function"
    },
    {
      "inputs": [
        {
          "internalType": "uint256",
          "name": "_pid",
          "type": "uint256"
        },
        {
          "internalType": "uint256",
          "name": "_amount",
          "type": "uint256"
        }
      ],
      "name": "withdraw",
      "outputs": [],
      "stateMutability": "nonpayable",
      "type": "function"
    }
  ],
  "bytecode": {
    "object": "6080604052600060035560146004556000600755614e206012556000601a556000601b556000601c553480156200003557600080fd5b50604051620064b6380380620064b6833981810160405260608110156200005b57600080fd5b810190808051906020019092919080519060200190929190805190602001909291905050506000620000926200049e60201b60201c565b9050806000806101000a81548173ffffffffffffffffffffffffffffffffffffffff021916908373ffffffffffffffffffffffffffffffffffffffff1602179055508073ffffffffffffffffffffffffffffffffffffffff16600073ffffffffffffffffffffffffffffffffffffffff167f8be0079c531659141344cd1fd0a4f28419497f9722a3daafe3b4186f6b6457e060405160405180910390a35082600160006101000a81548173ffffffffffffffffffffffffffffffffffffffff021916908373ffffffffffffffffffffffffffffffffffffffff16021790555081600260006101000a81548173ffffffffffffffffffffffffffffffffffffffff021916908373ffffffffffffffffffffffffffffffffffffffff160217905550620001cc8143620004a660201b620044101790919060201c565b60088190555043600681905550620001f66201869f43620004a660201b620044101790919060201c565b6011819055506013680410d586a20a4c00009080600181540180825580915050600190039060005260206000200160009091909190915055601368056bc75e2d63100000908060018154018082558091505060019003906000526020600020016000909190919091505560136802b5e3af16b18800009080600181540180825580915050600190039060005260206000200160009091909190915055601368015af1d78b58c400009080600181540180825580915050600190039060005260206000200160009091909190915055601360009080600181540180825580915050600190039060005260206000200160009091909190915055601461089990806001815401808255809150506001900390600052602060002001600090919091909150556014611131908060018154018082558091505060019003906000526020600020016000909190919091505560146119c89080600181540180825580915050600190039060005260206000200160009091909190915055601461225e90806001815401808255809150506001900390600052602060002001600090919091909150556014612af59080600181540180825580915050600190039060005260206000200160009091909190915055620003e2620168b243620004a660201b620044101790919060201c565b6015819055506200040562046d9943620004a660201b620044101790919060201c565b601681905550620004286207728543620004a660201b620044101790919060201c565b6017819055506200044b620d7c5c43620004a660201b620044101790919060201c565b6018819055506200046c600043620004a660201b620044101790919060201c565b6019819055506200048f6201518042620004a660201b620044101790919060201c565b601d819055505050506200052f565b600033905090565b60008082840190508381101562000525576040517f08c379a000000000000000000000000000000000000000000000000000000000815260040180806020018281038252601b8152602001807f536166654d6174683a206164646974696f6e206f766572666c6f77000000000081525060200191505060405180910390fd5b8091505092915050565b615f77806200053f6000396000f3fe608060405234801561001057600080fd5b50600436106103275760003560e01c80637e3c45e2116101b8578063afa6d11e11610104578063e074f6bd116100a2578063ebbb46271161007c578063ebbb462714610f34578063eed0113914610f59578063ef18129414610f77578063f2fde38b14610fe557610327565b8063e074f6bd14610e4c578063e1b6b3d414610e98578063e2bbb15814610efc57610327565b8063b74e5a42116100de578063b74e5a4214610d18578063c4a9bf9f14610d7a578063ce7e939014610dd4578063d49e77cd14610e1857610327565b8063afa6d11e14610c98578063b15abece14610cdc578063b51b676c14610cfa57610327565b80638da5cb5b11610171578063910d67701161014b578063910d677014610baa57806393f1a40b14610bec578063942d2ddf14610c5c5780639a9694f114610c7a57610327565b80638da5cb5b14610b0c5780638dbb1e3a14610b405780638e58440714610b8c57610327565b80637e3c45e2146109705780637f43d74f146109b457806380e59f8d14610a2257806380fafcde14610a7257806380fd68d014610aaa5780638aa2855014610aee57610327565b8063436a88c11161027757806351eb05a611610230578063630b5ba11161020a578063630b5ba11461090a578063715018a614610914578063719175d51461091e5780637cd07e471461093c57610327565b806351eb05a6146108015780635237f7311461082f5780635a70b387146108b257610327565b8063436a88c1146106b7578063441a3e70146106d5578063454b06081461070d57806348852fc41461073b578063505a4c281461077d578063506e72ce146107bf57610327565b8063192092e9116102e457806323cf3118116102be57806323cf311814610599578063289f6197146105dd5780632b8a3ae6146106415780633653538f1461067557610327565b8063192092e9146104ee5780631aed6553146105215780631eaaa0451461053f57610327565b8063066e95341461032c578063081e3eda1461034a5780630c6c3856146103685780630f2b7cc9146103d65780631526fe271461043857806317caf6f1146104d0575b600080fd5b610334611029565b6040518082815260200191505060405180910390f35b61035261102f565b6040518082815260200191505060405180910390f35b6103aa6004803603602081101561037e57600080fd5b81019080803573ffffffffffffffffffffffffffffffffffffffff16906020019092919050505061103c565b604051808273ffffffffffffffffffffffffffffffffffffffff16815260200191505060405180910390f35b61040c600480360360408110156103ec57600080fd5b81019080803590602001909291908035906020019092919050505061106f565b604051808273ffffffffffffffffffffffffffffffffffffffff16815260200191505060405180910390f35b6104646004803603602081101561044e57600080fd5b81019080803590602001909291905050506110ba565b604051808873ffffffffffffffffffffffffffffffffffffffff1681526020018781526020018681526020018581526020018481526020018373ffffffffffffffffffffffffffffffffffffffff16815260200182815260200197505050505050505060405180910390f35b6104d8611149565b6040518082815260200191505060405180910390f35b6104f661114f565b6040518085815260200184815260200183815260200182815260200194505050505060405180910390f35b61052961116f565b6040518082815260200191505060405180910390f35b6105976004803603606081101561055557600080fd5b8101908080359060200190929190803573ffffffffffffffffffffffffffffffffffffffff169060200190929190803515159060200190929190505050611175565b005b6105db600480360360208110156105af57600080fd5b81019080803573ffffffffffffffffffffffffffffffffffffffff1690602001909291905050506113d4565b005b610629600480360360408110156105f357600080fd5b8101908080359060200190929190803573ffffffffffffffffffffffffffffffffffffffff1690602001909291905050506114e0565b60405180821515815260200191505060405180910390f35b61064961150f565b604051808273ffffffffffffffffffffffffffffffffffffffff16815260200191505060405180910390f35b6106a16004803603602081101561068b57600080fd5b8101908080359060200190929190505050611535565b6040518082815260200191505060405180910390f35b6106bf611556565b6040518082815260200191505060405180910390f35b61070b600480360360408110156106eb57600080fd5b81019080803590602001909291908035906020019092919050505061155c565b005b6107396004803603602081101561072357600080fd5b81019080803590602001909291905050506118a7565b005b6107676004803603602081101561075157600080fd5b8101908080359060200190929190505050611cd1565b6040518082815260200191505060405180910390f35b6107a96004803603602081101561079357600080fd5b8101908080359060200190929190505050611cf7565b6040518082815260200191505060405180910390f35b6107eb600480360360208110156107d557600080fd5b8101908080359060200190929190505050611d18565b6040518082815260200191505060405180910390f35b61082d6004803603602081101561081757600080fd5b8101908080359060200190929190505050611d38565b005b61085b6004803603602081101561084557600080fd5b8101908080359060200190929190505050612197565b6040518080602001828103825283818151815260200191508051906020019060200280838360005b8381101561089e578082015181840152602081019050610883565b505050509050019250505060405180910390f35b610908600480360360608110156108c857600080fd5b81019080803573ffffffffffffffffffffffffffffffffffffffff1690602001909291908035906020019092919080359060200190929190505050612238565b005b61091261234f565b005b61091c61237c565b005b610926612502565b6040518082815260200191505060405180910390f35b610944612508565b604051808273ffffffffffffffffffffffffffffffffffffffff16815260200191505060405180910390f35b6109b26004803603602081101561098657600080fd5b81019080803573ffffffffffffffffffffffffffffffffffffffff16906020019092919050505061252e565b005b610a20600480360360a08110156109ca57600080fd5b81019080803590602001909291908035906020019092919080359060200190929190803573ffffffffffffffffffffffffffffffffffffffff169060200190929190803515159060200190929190505050612659565b005b610a7060048036036040811015610a3857600080fd5b81019080803573ffffffffffffffffffffffffffffffffffffffff169060200190929190803515159060200190929190505050612825565b005b610aa860048036036040811015610a8857600080fd5b810190808035906020019092919080359060200190929190505050612948565b005b610aec60048036036060811015610ac057600080fd5b810190808035906020019092919080351515906020019092919080359060200190929190505050612a30565b005b610af6612b2f565b6040518082815260200191505060405180910390f35b610b14612b34565b604051808273ffffffffffffffffffffffffffffffffffffffff16815260200191505060405180910390f35b610b7660048036036040811015610b5657600080fd5b810190808035906020019092919080359060200190929190505050612b5d565b6040518082815260200191505060405180910390f35b610b94612c0f565b6040518082815260200191505060405180910390f35b610bea60048036036060811015610bc057600080fd5b81019080803590602001909291908035906020019092919080359060200190929190505050612c15565b005b610c3860048036036040811015610c0257600080fd5b8101908080359060200190929190803573ffffffffffffffffffffffffffffffffffffffff169060200190929190505050612dcb565b60405180848152602001838152602001828152602001935050505060405180910390f35b610c64612e02565b6040518082815260200191505060405180910390f35b610c82612e08565b6040518082815260200191505060405180910390f35b610cda60048036036020811015610cae57600080fd5b81019080803573ffffffffffffffffffffffffffffffffffffffff169060200190929190505050612e0e565b005b610ce4613249565b6040518082815260200191505060405180910390f35b610d0261324f565b6040518082815260200191505060405180910390f35b610d6460048036036040811015610d2e57600080fd5b8101908080359060200190929190803573ffffffffffffffffffffffffffffffffffffffff169060200190929190505050613255565b6040518082815260200191505060405180910390f35b610dbc60048036036020811015610d9057600080fd5b81019080803573ffffffffffffffffffffffffffffffffffffffff1690602001909291905050506135e4565b60405180821515815260200191505060405180910390f35b610e0060048036036020811015610dea57600080fd5b8101908080359060200190929190505050613604565b60405180821515815260200191505060405180910390f35b610e20613624565b604051808273ffffffffffffffffffffffffffffffffffffffff16815260200191505060405180910390f35b610e8260048036036040811015610e6257600080fd5b81019080803590602001909291908035906020019092919050505061364a565b6040518082815260200191505060405180910390f35b610efa60048036036040811015610eae57600080fd5b81019080803573ffffffffffffffffffffffffffffffffffffffff169060200190929190803573ffffffffffffffffffffffffffffffffffffffff16906020019092919050505061368f565b005b610f3260048036036040811015610f1257600080fd5b8101908080359060200190929190803590602001909291905050506139ad565b005b610f3c613edd565b604051808381526020018281526020019250505060405180910390f35b610f61613fbd565b6040518082815260200191505060405180910390f35b610fe360048036036060811015610f8d57600080fd5b81019080803573ffffffffffffffffffffffffffffffffffffffff169060200190929190803573ffffffffffffffffffffffffffffffffffffffff16906020019092919080359060200190929190505050613fc3565b005b61102760048036036020811015610ffb57600080fd5b81019080803573ffffffffffffffffffffffffffffffffffffffff169060200190929190505050614205565b005b60155481565b6000600580549050905090565b600d6020528060005260406000206000915054906101000a900473ffffffffffffffffffffffffffffffffffffffff1681565b600a602052816000526040600020818154811061108857fe5b906000526020600020016000915091509054906101000a900473ffffffffffffffffffffffffffffffffffffffff1681565b600581815481106110c757fe5b90600052602060002090600702016000915090508060000160009054906101000a900473ffffffffffffffffffffffffffffffffffffffff16908060010154908060020154908060030154908060040154908060050160009054906101000a900473ffffffffffffffffffffffffffffffffffffffff16908060060154905087565b60075481565b600080600080601a54601b54601c54601e54935093509350935090919293565b60065481565b61117d614498565b73ffffffffffffffffffffffffffffffffffffffff1660008054906101000a900473ffffffffffffffffffffffffffffffffffffffff1673ffffffffffffffffffffffffffffffffffffffff161461123d576040517f08c379a00000000000000000000000000000000000000000000000000000000081526004018080602001828103825260208152602001807f4f776e61626c653a2063616c6c6572206973206e6f7420746865206f776e657281525060200191505060405180910390fd5b801561124c5761124b61234f565b5b6000600854431161125f57600854611261565b435b90506112788460075461441090919063ffffffff16565b60078190555060056040518060e001604052808573ffffffffffffffffffffffffffffffffffffffff1681526020018681526020018381526020016000815260200160008152602001600073ffffffffffffffffffffffffffffffffffffffff1681526020016000815250908060018154018082558091505060019003906000526020600020906007020160009091909190915060008201518160000160006101000a81548173ffffffffffffffffffffffffffffffffffffffff021916908373ffffffffffffffffffffffffffffffffffffffff1602179055506020820151816001015560408201518160020155606082015181600301556080820151816004015560a08201518160050160006101000a81548173ffffffffffffffffffffffffffffffffffffffff021916908373ffffffffffffffffffffffffffffffffffffffff16021790555060c08201518160060155505050505050565b6113dc614498565b73ffffffffffffffffffffffffffffffffffffffff1660008054906101000a900473ffffffffffffffffffffffffffffffffffffffff1673ffffffffffffffffffffffffffffffffffffffff161461149c576040517f08c379a00000000000000000000000000000000000000000000000000000000081526004018080602001828103825260208152602001807f4f776e61626c653a2063616c6c6572206973206e6f7420746865206f776e657281525060200191505060405180910390fd5b80601060006101000a81548173ffffffffffffffffffffffffffffffffffffffff021916908373ffffffffffffffffffffffffffffffffffffffff16021790555050565b600b6020528160005260406000206020528060005260406000206000915091509054906101000a900460ff1681565b600160009054906101000a900473ffffffffffffffffffffffffffffffffffffffff1681565b6014818154811061154257fe5b906000526020600020016000915090505481565b60035481565b60006005838154811061156b57fe5b9060005260206000209060070201905060006009600085815260200190815260200160002060003373ffffffffffffffffffffffffffffffffffffffff1673ffffffffffffffffffffffffffffffffffffffff16815260200190815260200160002090508281600001541015611649576040517f08c379a00000000000000000000000000000000000000000000000000000000081526004018080602001828103825260158152602001807f7769746864726177206973206e6f742076616c6964000000000000000000000081525060200191505060405180910390fd5b600081600201541161165f574381600201819055505b600c60008360000160009054906101000a900473ffffffffffffffffffffffffffffffffffffffff1673ffffffffffffffffffffffffffffffffffffffff1673ffffffffffffffffffffffffffffffffffffffff16815260200190815260200160002060009054906101000a900460ff1680156116dc5750600083115b1561176f5761176e600d60008460000160009054906101000a900473ffffffffffffffffffffffffffffffffffffffff1673ffffffffffffffffffffffffffffffffffffffff1673ffffffffffffffffffffffffffffffffffffffff16815260200190815260200160002060009054906101000a900473ffffffffffffffffffffffffffffffffffffffff16846144a0565b5b61177884611d38565b611782828261450f565b6117998382600001546148b090919063ffffffff16565b81600001819055506117d364e8d4a510006117c5846003015484600001546148fa90919063ffffffff16565b61498090919063ffffffff16565b81600101819055504381600201819055506117fb8383600401546148b090919063ffffffff16565b826004018190555061185233848460000160009054906101000a900473ffffffffffffffffffffffffffffffffffffffff1673ffffffffffffffffffffffffffffffffffffffff166149ca9092919063ffffffff16565b833373ffffffffffffffffffffffffffffffffffffffff167ff279e6a1f5e320cca91135676d9cb6e44ca8a08c0b88342bcdb1144f6511b568856040518082815260200191505060405180910390a350505050565b600073ffffffffffffffffffffffffffffffffffffffff16601060009054906101000a900473ffffffffffffffffffffffffffffffffffffffff1673ffffffffffffffffffffffffffffffffffffffff16141561196c576040517f08c379a00000000000000000000000000000000000000000000000000000000081526004018080602001828103825260148152602001807f6d6967726174653a206e6f206d69677261746f7200000000000000000000000081525060200191505060405180910390fd5b60006005828154811061197b57fe5b9060005260206000209060070201905060008160000160009054906101000a900473ffffffffffffffffffffffffffffffffffffffff16905060008173ffffffffffffffffffffffffffffffffffffffff166370a08231306040518263ffffffff1660e01b8152600401808273ffffffffffffffffffffffffffffffffffffffff16815260200191505060206040518083038186803b158015611a1d57600080fd5b505afa158015611a31573d6000803e3d6000fd5b505050506040513d6020811015611a4757600080fd5b81019080805190602001909291905050509050611aa7601060009054906101000a900473ffffffffffffffffffffffffffffffffffffffff16828473ffffffffffffffffffffffffffffffffffffffff16614a6c9092919063ffffffff16565b6000601060009054906101000a900473ffffffffffffffffffffffffffffffffffffffff1673ffffffffffffffffffffffffffffffffffffffff1663ce5494bb846040518263ffffffff1660e01b8152600401808273ffffffffffffffffffffffffffffffffffffffff168152602001915050602060405180830381600087803b158015611b3457600080fd5b505af1158015611b48573d6000803e3d6000fd5b505050506040513d6020811015611b5e57600080fd5b810190808051906020019092919050505090508073ffffffffffffffffffffffffffffffffffffffff166370a08231306040518263ffffffff1660e01b8152600401808273ffffffffffffffffffffffffffffffffffffffff16815260200191505060206040518083038186803b158015611bd857600080fd5b505afa158015611bec573d6000803e3d6000fd5b505050506040513d6020811015611c0257600080fd5b81019080805190602001909291905050508214611c87576040517f08c379a000000000000000000000000000000000000000000000000000000000815260040180806020018281038252600c8152602001807f6d6967726174653a20626164000000000000000000000000000000000000000081525060200191505060405180910390fd5b808460000160006101000a81548173ffffffffffffffffffffffffffffffffffffffff021916908373ffffffffffffffffffffffffffffffffffffffff1602179055505050505050565b600080611cde834361364a565b90506000611ceb82614c31565b90508092505050919050565b60138181548110611d0457fe5b906000526020600020016000915090505481565b6000600a6000838152602001908152602001600020805490509050919050565b600060058281548110611d4757fe5b9060005260206000209060070201905080600201544311611d685750612194565b600081600401541415611d845743816002018190555050612194565b600080611d95836002015443612b5d565b90506015544311611dfc57611df5600754611de78560010154611dd96013600081548110611dbf57fe5b9060005260206000200154866148fa90919063ffffffff16565b6148fa90919063ffffffff16565b61498090919063ffffffff16565b9150611f86565b6016544311611e6157611e5a600754611e4c8560010154611e3e6013600181548110611e2457fe5b9060005260206000200154866148fa90919063ffffffff16565b6148fa90919063ffffffff16565b61498090919063ffffffff16565b9150611f85565b6017544311611ec657611ebf600754611eb18560010154611ea36013600281548110611e8957fe5b9060005260206000200154866148fa90919063ffffffff16565b6148fa90919063ffffffff16565b61498090919063ffffffff16565b9150611f84565b6018544311611f2b57611f24600754611f168560010154611f086013600381548110611eee57fe5b9060005260206000200154866148fa90919063ffffffff16565b6148fa90919063ffffffff16565b61498090919063ffffffff16565b9150611f83565b611f80600754611f728560010154611f646013600481548110611f4a57fe5b9060005260206000200154866148fa90919063ffffffff16565b6148fa90919063ffffffff16565b61498090919063ffffffff16565b91505b5b5b5b600082111561213b576000600354111561208f57600160009054906101000a900473ffffffffffffffffffffffffffffffffffffffff1673ffffffffffffffffffffffffffffffffffffffff166340c10f19600260009054906101000a900473ffffffffffffffffffffffffffffffffffffffff166120236064612015600354886148fa90919063ffffffff16565b61498090919063ffffffff16565b6040518363ffffffff1660e01b8152600401808373ffffffffffffffffffffffffffffffffffffffff16815260200182815260200192505050600060405180830381600087803b15801561207657600080fd5b505af115801561208a573d6000803e3d6000fd5b505050505b600160009054906101000a900473ffffffffffffffffffffffffffffffffffffffff1673ffffffffffffffffffffffffffffffffffffffff166340c10f1930846040518363ffffffff1660e01b8152600401808373ffffffffffffffffffffffffffffffffffffffff16815260200182815260200192505050600060405180830381600087803b15801561212257600080fd5b505af1158015612136573d6000803e3d6000fd5b505050505b61217f61216c846004015461215e64e8d4a51000866148fa90919063ffffffff16565b61498090919063ffffffff16565b846003015461441090919063ffffffff16565b83600301819055504383600201819055505050505b50565b6060600a600083815260200190815260200160002080548060200260200160405190810160405280929190818152602001828054801561222c57602002820191906000526020600020905b8160009054906101000a900473ffffffffffffffffffffffffffffffffffffffff1673ffffffffffffffffffffffffffffffffffffffff16815260200190600101908083116121e2575b50505050509050919050565b600260009054906101000a900473ffffffffffffffffffffffffffffffffffffffff1673ffffffffffffffffffffffffffffffffffffffff163373ffffffffffffffffffffffffffffffffffffffff16146122fb576040517f08c379a00000000000000000000000000000000000000000000000000000000081526004018080602001828103825260198152602001807f646576206164646472657373206973206e6f742076616c69640000000000000081525060200191505060405180910390fd5b82600260006101000a81548173ffffffffffffffffffffffffffffffffffffffff021916908373ffffffffffffffffffffffffffffffffffffffff1602179055508160038190555080600481905550505050565b6000600580549050905060005b818110156123785761236d81611d38565b80600101905061235c565b5050565b612384614498565b73ffffffffffffffffffffffffffffffffffffffff1660008054906101000a900473ffffffffffffffffffffffffffffffffffffffff1673ffffffffffffffffffffffffffffffffffffffff1614612444576040517f08c379a00000000000000000000000000000000000000000000000000000000081526004018080602001828103825260208152602001807f4f776e61626c653a2063616c6c6572206973206e6f7420746865206f776e657281525060200191505060405180910390fd5b600073ffffffffffffffffffffffffffffffffffffffff1660008054906101000a900473ffffffffffffffffffffffffffffffffffffffff1673ffffffffffffffffffffffffffffffffffffffff167f8be0079c531659141344cd1fd0a4f28419497f9722a3daafe3b4186f6b6457e060405160405180910390a360008060006101000a81548173ffffffffffffffffffffffffffffffffffffffff021916908373ffffffffffffffffffffffffffffffffffffffff160217905550565b60195481565b601060009054906101000a900473ffffffffffffffffffffffffffffffffffffffff1681565b612536614498565b73ffffffffffffffffffffffffffffffffffffffff1660008054906101000a900473ffffffffffffffffffffffffffffffffffffffff1673ffffffffffffffffffffffffffffffffffffffff16146125f6576040517f08c379a00000000000000000000000000000000000000000000000000000000081526004018080602001828103825260208152602001807f4f776e61626c653a2063616c6c6572206973206e6f7420746865206f776e657281525060200191505060405180910390fd5b8073ffffffffffffffffffffffffffffffffffffffff16633d18b9126040518163ffffffff1660e01b8152600401600060405180830381600087803b15801561263e57600080fd5b505af1158015612652573d6000803e3d6000fd5b5050505050565b612661614498565b73ffffffffffffffffffffffffffffffffffffffff1660008054906101000a900473ffffffffffffffffffffffffffffffffffffffff1673ffffffffffffffffffffffffffffffffffffffff1614612721576040517f08c379a00000000000000000000000000000000000000000000000000000000081526004018080602001828103825260208152602001807f4f776e61626c653a2063616c6c6572206973206e6f7420746865206f776e657281525060200191505060405180910390fd5b80156127305761272f61234f565b5b612775846127676005888154811061274457fe5b9060005260206000209060070201600101546007546148b090919063ffffffff16565b61441090919063ffffffff16565b600781905550836005868154811061278957fe5b90600052602060002090600702016001018190555081600586815481106127ac57fe5b906000526020600020906007020160050160006101000a81548173ffffffffffffffffffffffffffffffffffffffff021916908373ffffffffffffffffffffffffffffffffffffffff160217905550826005868154811061280957fe5b9060005260206000209060070201600601819055505050505050565b61282d614498565b73ffffffffffffffffffffffffffffffffffffffff1660008054906101000a900473ffffffffffffffffffffffffffffffffffffffff1673ffffffffffffffffffffffffffffffffffffffff16146128ed576040517f08c379a00000000000000000000000000000000000000000000000000000000081526004018080602001828103825260208152602001807f4f776e61626c653a2063616c6c6572206973206e6f7420746865206f776e657281525060200191505060405180910390fd5b80600f60008473ffffffffffffffffffffffffffffffffffffffff1673ffffffffffffffffffffffffffffffffffffffff16815260200190815260200160002060006101000a81548160ff0219169083151502179055505050565b612950614498565b73ffffffffffffffffffffffffffffffffffffffff1660008054906101000a900473ffffffffffffffffffffffffffffffffffffffff1673ffffffffffffffffffffffffffffffffffffffff1614612a10576040517f08c379a00000000000000000000000000000000000000000000000000000000081526004018080602001828103825260208152602001807f4f776e61626c653a2063616c6c6572206973206e6f7420746865206f776e657281525060200191505060405180910390fd5b8060148381548110612a1e57fe5b90600052602060002001819055505050565b612a38614498565b73ffffffffffffffffffffffffffffffffffffffff1660008054906101000a900473ffffffffffffffffffffffffffffffffffffffff1673ffffffffffffffffffffffffffffffffffffffff1614612af8576040517f08c379a00000000000000000000000000000000000000000000000000000000081526004018080602001828103825260208152602001807f4f776e61626c653a2063616c6c6572206973206e6f7420746865206f776e657281525060200191505060405180910390fd5b81600e600085815260200190815260200160002060006101000a81548160ff02191690831515021790555080601281905550505050565b600a81565b60008060009054906101000a900473ffffffffffffffffffffffffffffffffffffffff16905090565b60006006548211612b9557612b8e600a612b8085856148b090919063ffffffff16565b6148fa90919063ffffffff16565b9050612c09565b6006548310612bb857612bb183836148b090919063ffffffff16565b9050612c09565b612c06612bd0600654846148b090919063ffffffff16565b612bf8600a612bea876006546148b090919063ffffffff16565b6148fa90919063ffffffff16565b61441090919063ffffffff16565b90505b92915050565b60185481565b612c1d614498565b73ffffffffffffffffffffffffffffffffffffffff1660008054906101000a900473ffffffffffffffffffffffffffffffffffffffff1673ffffffffffffffffffffffffffffffffffffffff1614612cdd576040517f08c379a00000000000000000000000000000000000000000000000000000000081526004018080602001828103825260208152602001807f4f776e61626c653a2063616c6c6572206973206e6f7420746865206f776e657281525060200191505060405180910390fd5b8060138481548110612ceb57fe5b90600052602060002001819055506000831415612d2257612d178260155461441090919063ffffffff16565b601581905550612dc6565b6001831415612d4b57612d408260165461441090919063ffffffff16565b601681905550612dc5565b6002831415612d7457612d698260175461441090919063ffffffff16565b601781905550612dc4565b6003831415612d9d57612d928260185461441090919063ffffffff16565b601881905550612dc3565b6004831415612dc257612dbb8260195461441090919063ffffffff16565b6019819055505b5b5b5b5b505050565b6009602052816000526040600020602052806000526040600020600091509150508060000154908060010154908060020154905083565b60175481565b60125481565b612e16614498565b73ffffffffffffffffffffffffffffffffffffffff1660008054906101000a900473ffffffffffffffffffffffffffffffffffffffff1673ffffffffffffffffffffffffffffffffffffffff1614612ed6576040517f08c379a00000000000000000000000000000000000000000000000000000000081526004018080602001828103825260208152602001807f4f776e61626c653a2063616c6c6572206973206e6f7420746865206f776e657281525060200191505060405180910390fd5b600c60008273ffffffffffffffffffffffffffffffffffffffff1673ffffffffffffffffffffffffffffffffffffffff16815260200190815260200160002060009054906101000a900460ff16612f95576040517f08c379a00000000000000000000000000000000000000000000000000000000081526004018080602001828103825260178152602001807f5468697320706f6f6c206973206e6f742065786973742e00000000000000000081525060200191505060405180910390fd5b6000600d60008373ffffffffffffffffffffffffffffffffffffffff1673ffffffffffffffffffffffffffffffffffffffff16815260200190815260200160002060009054906101000a900473ffffffffffffffffffffffffffffffffffffffff1673ffffffffffffffffffffffffffffffffffffffff166370a08231306040518263ffffffff1660e01b8152600401808273ffffffffffffffffffffffffffffffffffffffff16815260200191505060206040518083038186803b15801561305d57600080fd5b505afa158015613071573d6000803e3d6000fd5b505050506040513d602081101561308757600080fd5b81019080805190602001909291905050509050600081111561316e57600d60008373ffffffffffffffffffffffffffffffffffffffff1673ffffffffffffffffffffffffffffffffffffffff16815260200190815260200160002060009054906101000a900473ffffffffffffffffffffffffffffffffffffffff1673ffffffffffffffffffffffffffffffffffffffff16632e1a7d4d826040518263ffffffff1660e01b815260040180828152602001915050600060405180830381600087803b15801561315557600080fd5b505af1158015613169573d6000803e3d6000fd5b505050505b6000600c60008473ffffffffffffffffffffffffffffffffffffffff1673ffffffffffffffffffffffffffffffffffffffff16815260200190815260200160002060006101000a81548160ff0219169083151502179055506000600d60008473ffffffffffffffffffffffffffffffffffffffff1673ffffffffffffffffffffffffffffffffffffffff16815260200190815260200160002060006101000a81548173ffffffffffffffffffffffffffffffffffffffff021916908373ffffffffffffffffffffffffffffffffffffffff1602179055505050565b60165481565b60045481565b6000806005848154811061326557fe5b9060005260206000209060070201905060006009600086815260200190815260200160002060008573ffffffffffffffffffffffffffffffffffffffff1673ffffffffffffffffffffffffffffffffffffffff168152602001908152602001600020905060008083600301549050600084600401549050600081146135d6576000806132f5876002015443612b5d565b9050601554431161335c576133556007546133478960010154613339601360008154811061331f57fe5b9060005260206000200154866148fa90919063ffffffff16565b6148fa90919063ffffffff16565b61498090919063ffffffff16565b91506134e6565b60165443116133c1576133ba6007546133ac896001015461339e601360018154811061338457fe5b9060005260206000200154866148fa90919063ffffffff16565b6148fa90919063ffffffff16565b61498090919063ffffffff16565b91506134e5565b60175443116134265761341f600754613411896001015461340360136002815481106133e957fe5b9060005260206000200154866148fa90919063ffffffff16565b6148fa90919063ffffffff16565b61498090919063ffffffff16565b91506134e4565b601854431161348b576134846007546134768960010154613468601360038154811061344e57fe5b9060005260206000200154866148fa90919063ffffffff16565b6148fa90919063ffffffff16565b61498090919063ffffffff16565b91506134e3565b6134e06007546134d289600101546134c460136004815481106134aa57fe5b9060005260206000200154866148fa90919063ffffffff16565b6148fa90919063ffffffff16565b61498090919063ffffffff16565b91505b5b5b5b613526613517886004015461350964e8d4a51000866148fa90919063ffffffff16565b61498090919063ffffffff16565b8561441090919063ffffffff16565b935061356c866001015461355e64e8d4a51000613550888b600001546148fa90919063ffffffff16565b61498090919063ffffffff16565b6148b090919063ffffffff16565b9450600061358661358188600201544361364a565b614d05565b905060008111156135d25760006135b960646135ab848a6148fa90919063ffffffff16565b61498090919063ffffffff16565b90506135ce81886148b090919063ffffffff16565b9650505b5050505b829550505050505092915050565b600c6020528060005260406000206000915054906101000a900460ff1681565b600e6020528060005260406000206000915054906101000a900460ff1681565b600260009054906101000a900473ffffffffffffffffffffffffffffffffffffffff1681565b6000808383111561366f5761366884846148b090919063ffffffff16565b9050613685565b61368283856148b090919063ffffffff16565b90505b8091505092915050565b613697614498565b73ffffffffffffffffffffffffffffffffffffffff1660008054906101000a900473ffffffffffffffffffffffffffffffffffffffff1673ffffffffffffffffffffffffffffffffffffffff1614613757576040517f08c379a00000000000000000000000000000000000000000000000000000000081526004018080602001828103825260208152602001807f4f776e61626c653a2063616c6c6572206973206e6f7420746865206f776e657281525060200191505060405180910390fd5b600c60008373ffffffffffffffffffffffffffffffffffffffff1673ffffffffffffffffffffffffffffffffffffffff16815260200190815260200160002060009054906101000a900460ff1615613817576040517f08c379a000000000000000000000000000000000000000000000000000000000815260040180806020018281038252601b8152602001807f5468697320706f6f6c20697320616c72656164792065786973742e000000000081525060200191505060405180910390fd5b60008273ffffffffffffffffffffffffffffffffffffffff166370a08231306040518263ffffffff1660e01b8152600401808273ffffffffffffffffffffffffffffffffffffffff16815260200191505060206040518083038186803b15801561388057600080fd5b505afa158015613894573d6000803e3d6000fd5b505050506040513d60208110156138aa57600080fd5b8101908080519060200190929190505050905060008111156138d2576138d1818484614dd9565b5b6001600c60008573ffffffffffffffffffffffffffffffffffffffff1673ffffffffffffffffffffffffffffffffffffffff16815260200190815260200160002060006101000a81548160ff02191690831515021790555081600d60008573ffffffffffffffffffffffffffffffffffffffff1673ffffffffffffffffffffffffffffffffffffffff16815260200190815260200160002060006101000a81548173ffffffffffffffffffffffffffffffffffffffff021916908373ffffffffffffffffffffffffffffffffffffffff160217905550505050565b6000600583815481106139bc57fe5b9060005260206000209060070201905060006009600085815260200190815260200160002060003373ffffffffffffffffffffffffffffffffffffffff1673ffffffffffffffffffffffffffffffffffffffff1681526020019081526020016000209050600e600085815260200190815260200160002060009054906101000a900460ff1615613b0a576011544311613adc57601254613a808360000160009054906101000a900473ffffffffffffffffffffffffffffffffffffffff1685614ef6565b1115613ad7576040517f08c379a0000000000000000000000000000000000000000000000000000000008152600401808060200182810382526033815260200180615e3b6033913960400191505060405180910390fd5b613b09565b6000600e600086815260200190815260200160002060006101000a81548160ff0219169083151502179055505b5b6000816002015411613b20574381600201819055505b613b2984611d38565b600081600001541115613b4157613b40828261450f565b5b613b923330858560000160009054906101000a900473ffffffffffffffffffffffffffffffffffffffff1673ffffffffffffffffffffffffffffffffffffffff166151eb909392919063ffffffff16565b613ba983836004015461441090919063ffffffff16565b8260040181905550613bc883826000015461441090919063ffffffff16565b8160000181905550613c0264e8d4a51000613bf4846003015484600001546148fa90919063ffffffff16565b61498090919063ffffffff16565b8160010181905550438160020181905550600c60008360000160009054906101000a900473ffffffffffffffffffffffffffffffffffffffff1673ffffffffffffffffffffffffffffffffffffffff1673ffffffffffffffffffffffffffffffffffffffff16815260200190815260200160002060009054906101000a900460ff168015613c905750600083115b15613d4857613d47838360000160009054906101000a900473ffffffffffffffffffffffffffffffffffffffff16600d60008660000160009054906101000a900473ffffffffffffffffffffffffffffffffffffffff1673ffffffffffffffffffffffffffffffffffffffff1673ffffffffffffffffffffffffffffffffffffffff16815260200190815260200160002060009054906101000a900473ffffffffffffffffffffffffffffffffffffffff16614dd9565b5b600b600085815260200190815260200160002060003373ffffffffffffffffffffffffffffffffffffffff1673ffffffffffffffffffffffffffffffffffffffff16815260200190815260200160002060009054906101000a900460ff16613e88576001600b600086815260200190815260200160002060003373ffffffffffffffffffffffffffffffffffffffff1673ffffffffffffffffffffffffffffffffffffffff16815260200190815260200160002060006101000a81548160ff021916908315150217905550600a6000858152602001908152602001600020339080600181540180825580915050600190039060005260206000200160009091909190916101000a81548173ffffffffffffffffffffffffffffffffffffffff021916908373ffffffffffffffffffffffffffffffffffffffff1602179055505b833373ffffffffffffffffffffffffffffffffffffffff167f90890809c654f11d6e72a28fa60149770a0d11ec6c92319d6ceb2bb0a4ea1a15856040518082815260200191505060405180910390a350505050565b6000806015544311613f0e576015546013600081548110613efa57fe5b906000526020600020015491509150613fb9565b6016544311613f3c576016546013600181548110613f2857fe5b906000526020600020015491509150613fb9565b6017544311613f6a576017546013600281548110613f5657fe5b906000526020600020015491509150613fb9565b6018544311613f98576018546013600381548110613f8457fe5b906000526020600020015491509150613fb9565b6019546013600481548110613fa957fe5b9060005260206000200154915091505b9091565b60085481565b33600f60008273ffffffffffffffffffffffffffffffffffffffff1673ffffffffffffffffffffffffffffffffffffffff16815260200190815260200160002060009054906101000a900460ff1661401a57600080fd5b8373ffffffffffffffffffffffffffffffffffffffff166370a08231306040518263ffffffff1660e01b8152600401808273ffffffffffffffffffffffffffffffffffffffff16815260200191505060206040518083038186803b15801561408157600080fd5b505afa158015614095573d6000803e3d6000fd5b505050506040513d60208110156140ab57600080fd5b8101908080519060200190929190505050821115614131576040517f08c379a000000000000000000000000000000000000000000000000000000000815260040180806020018281038252601c8152602001807f4e6f7420456e6f75676820556e6920546f6b656e2042616c616e63650000000081525060200191505060405180910390fd5b600073ffffffffffffffffffffffffffffffffffffffff168373ffffffffffffffffffffffffffffffffffffffff1614156141d4576040517f08c379a00000000000000000000000000000000000000000000000000000000081526004018080602001828103825260118152602001807f4e6f74205661696c64204164647265737300000000000000000000000000000081525060200191505060405180910390fd5b6141ff83838673ffffffffffffffffffffffffffffffffffffffff166149ca9092919063ffffffff16565b50505050565b61420d614498565b73ffffffffffffffffffffffffffffffffffffffff1660008054906101000a900473ffffffffffffffffffffffffffffffffffffffff1673ffffffffffffffffffffffffffffffffffffffff16146142cd576040517f08c379a00000000000000000000000000000000000000000000000000000000081526004018080602001828103825260208152602001807f4f776e61626c653a2063616c6c6572206973206e6f7420746865206f776e657281525060200191505060405180910390fd5b600073ffffffffffffffffffffffffffffffffffffffff168173ffffffffffffffffffffffffffffffffffffffff161415614353576040517f08c379a0000000000000000000000000000000000000000000000000000000008152600401808060200182810382526026815260200180615e156026913960400191505060405180910390fd5b8073ffffffffffffffffffffffffffffffffffffffff1660008054906101000a900473ffffffffffffffffffffffffffffffffffffffff1673ffffffffffffffffffffffffffffffffffffffff167f8be0079c531659141344cd1fd0a4f28419497f9722a3daafe3b4186f6b6457e060405160405180910390a3806000806101000a81548173ffffffffffffffffffffffffffffffffffffffff021916908373ffffffffffffffffffffffffffffffffffffffff16021790555050565b60008082840190508381101561448e576040517f08c379a000000000000000000000000000000000000000000000000000000000815260040180806020018281038252601b8152602001807f536166654d6174683a206164646974696f6e206f766572666c6f77000000000081525060200191505060405180910390fd5b8091505092915050565b600033905090565b8173ffffffffffffffffffffffffffffffffffffffff16632e1a7d4d826040518263ffffffff1660e01b815260040180828152602001915050600060405180830381600087803b1580156144f357600080fd5b505af1158015614507573d6000803e3d6000fd5b505050505050565b6000614559826001015461454b64e8d4a5100061453d876003015487600001546148fa90919063ffffffff16565b61498090919063ffffffff16565b6148b090919063ffffffff16565b9050600061457361456e84600201544361364a565b614d05565b905060008111156148955760006145a6606461459884866148fa90919063ffffffff16565b61498090919063ffffffff16565b905060006145d260646145c4600454856148fa90919063ffffffff16565b61498090919063ffffffff16565b9050614600600260009054906101000a900473ffffffffffffffffffffffffffffffffffffffff16826152ac565b600086600601541115614799576000614639606461462b8960060154866148fa90919063ffffffff16565b61498090919063ffffffff16565b90506146698760050160009054906101000a900473ffffffffffffffffffffffffffffffffffffffff16826152ac565b6146973361469283614684868a6148b090919063ffffffff16565b6148b090919063ffffffff16565b6152ac565b600160009054906101000a900473ffffffffffffffffffffffffffffffffffffffff1673ffffffffffffffffffffffffffffffffffffffff16639dc29fac336146fb846146ed87896148b090919063ffffffff16565b6148b090919063ffffffff16565b6040518363ffffffff1660e01b8152600401808373ffffffffffffffffffffffffffffffffffffffff16815260200182815260200192505050600060405180830381600087803b15801561474e57600080fd5b505af1158015614762573d6000803e3d6000fd5b5050505061479361478e8261478085876148b090919063ffffffff16565b6148b090919063ffffffff16565b615525565b5061488e565b6147b5336147b083876148b090919063ffffffff16565b6152ac565b600160009054906101000a900473ffffffffffffffffffffffffffffffffffffffff1673ffffffffffffffffffffffffffffffffffffffff16639dc29fac3361480784866148b090919063ffffffff16565b6040518363ffffffff1660e01b8152600401808373ffffffffffffffffffffffffffffffffffffffff16815260200182815260200192505050600060405180830381600087803b15801561485a57600080fd5b505af115801561486e573d6000803e3d6000fd5b5050505061488d61488882846148b090919063ffffffff16565b615525565b5b50506148aa565b61489f33836152ac565b6148a96000615525565b5b50505050565b60006148f283836040518060400160405280601e81526020017f536166654d6174683a207375627472616374696f6e206f766572666c6f7700008152506155e1565b905092915050565b60008083141561490d576000905061497a565b600082840290508284828161491e57fe5b0414614975576040517f08c379a0000000000000000000000000000000000000000000000000000000008152600401808060200182810382526021815260200180615e966021913960400191505060405180910390fd5b809150505b92915050565b60006149c283836040518060400160405280601a81526020017f536166654d6174683a206469766973696f6e206279207a65726f0000000000008152506156a1565b905092915050565b614a678363a9059cbb60e01b8484604051602401808373ffffffffffffffffffffffffffffffffffffffff16815260200182815260200192505050604051602081830303815290604052907bffffffffffffffffffffffffffffffffffffffffffffffffffffffff19166020820180517bffffffffffffffffffffffffffffffffffffffffffffffffffffffff8381831617835250505050615767565b505050565b6000811480614b3a575060008373ffffffffffffffffffffffffffffffffffffffff1663dd62ed3e30856040518363ffffffff1660e01b8152600401808373ffffffffffffffffffffffffffffffffffffffff1681526020018273ffffffffffffffffffffffffffffffffffffffff1681526020019250505060206040518083038186803b158015614afd57600080fd5b505afa158015614b11573d6000803e3d6000fd5b505050506040513d6020811015614b2757600080fd5b8101908080519060200190929190505050145b614b8f576040517f08c379a0000000000000000000000000000000000000000000000000000000008152600401808060200182810382526036815260200180615f0c6036913960400191505060405180910390fd5b614c2c8363095ea7b360e01b8484604051602401808373ffffffffffffffffffffffffffffffffffffffff16815260200182815260200192505050604051602081830303815290604052907bffffffffffffffffffffffffffffffffffffffffffffffffffffffff19166020820180517bffffffffffffffffffffffffffffffffffffffffffffffffffffffff8381831617835250505050615767565b505050565b60006014600481548110614c4157fe5b90600052602060002001548210614c5b5760329050614d00565b6014600381548110614c6957fe5b90600052602060002001548210614c835760289050614d00565b6014600281548110614c9157fe5b90600052602060002001548210614cab57601e9050614d00565b6014600181548110614cb957fe5b90600052602060002001548210614cd35760149050614d00565b6014600081548110614ce157fe5b90600052602060002001548210614cfb57600a9050614d00565b600090505b919050565b60006014600081548110614d1557fe5b90600052602060002001548211614d2f5760329050614dd4565b6014600181548110614d3d57fe5b90600052602060002001548211614d575760289050614dd4565b6014600281548110614d6557fe5b90600052602060002001548211614d7f57601e9050614dd4565b6014600381548110614d8d57fe5b90600052602060002001548211614da75760149050614dd4565b6014600481548110614db557fe5b90600052602060002001548211614dcf57600a9050614dd4565b600090505b919050565b8173ffffffffffffffffffffffffffffffffffffffff1663095ea7b382856040518363ffffffff1660e01b8152600401808373ffffffffffffffffffffffffffffffffffffffff16815260200182815260200192505050602060405180830381600087803b158015614e4a57600080fd5b505af1158015614e5e573d6000803e3d6000fd5b505050506040513d6020811015614e7457600080fd5b8101908080519060200190929190505050508073ffffffffffffffffffffffffffffffffffffffff1663a694fc3a846040518263ffffffff1660e01b815260040180828152602001915050600060405180830381600087803b158015614ed957600080fd5b505af1158015614eed573d6000803e3d6000fd5b50505050505050565b6000808373ffffffffffffffffffffffffffffffffffffffff16630dfe16816040518163ffffffff1660e01b815260040160206040518083038186803b158015614f3f57600080fd5b505afa158015614f53573d6000803e3d6000fd5b505050506040513d6020811015614f6957600080fd5b810190808051906020019092919050505090506000808573ffffffffffffffffffffffffffffffffffffffff16630902f1ac6040518163ffffffff1660e01b815260040160606040518083038186803b158015614fc557600080fd5b505afa158015614fd9573d6000803e3d6000fd5b505050506040513d6060811015614fef57600080fd5b81019080805190602001909291908051906020019092919080519060200190929190505050509150915060008673ffffffffffffffffffffffffffffffffffffffff166318160ddd6040518163ffffffff1660e01b815260040160206040518083038186803b15801561506157600080fd5b505afa158015615075573d6000803e3d6000fd5b505050506040513d602081101561508b57600080fd5b8101908080519060200190929190505050905060008060008311156151c45773c02aaa39b223fe8d0a0e5c4f27ead9083c756cc273ffffffffffffffffffffffffffffffffffffffff168673ffffffffffffffffffffffffffffffffffffffff161461515a5761512683615118876dffffffffffffffffffffffffffff168b6148fa90919063ffffffff16565b61498090919063ffffffff16565b905061515381866dffffffffffffffffffffffffffff16866dffffffffffffffffffffffffffff16615856565b91506151bf565b61518f83615181866dffffffffffffffffffffffffffff168b6148fa90919063ffffffff16565b61498090919063ffffffff16565b90506151bc81856dffffffffffffffffffffffffffff16876dffffffffffffffffffffffffffff16615856565b91505b6151d3565b600096505050505050506151e5565b6151dc82615986565b96505050505050505b92915050565b6152a6846323b872dd60e01b858585604051602401808473ffffffffffffffffffffffffffffffffffffffff1681526020018373ffffffffffffffffffffffffffffffffffffffff1681526020018281526020019350505050604051602081830303815290604052907bffffffffffffffffffffffffffffffffffffffffffffffffffffffff19166020820180517bffffffffffffffffffffffffffffffffffffffffffffffffffffffff8381831617835250505050615767565b50505050565b6000600160009054906101000a900473ffffffffffffffffffffffffffffffffffffffff1673ffffffffffffffffffffffffffffffffffffffff166370a08231306040518263ffffffff1660e01b8152600401808273ffffffffffffffffffffffffffffffffffffffff16815260200191505060206040518083038186803b15801561533757600080fd5b505afa15801561534b573d6000803e3d6000fd5b505050506040513d602081101561536157600080fd5b810190808051906020019092919050505090508082111561545057600160009054906101000a900473ffffffffffffffffffffffffffffffffffffffff1673ffffffffffffffffffffffffffffffffffffffff1663a9059cbb84836040518363ffffffff1660e01b8152600401808373ffffffffffffffffffffffffffffffffffffffff16815260200182815260200192505050602060405180830381600087803b15801561540f57600080fd5b505af1158015615423573d6000803e3d6000fd5b505050506040513d602081101561543957600080fd5b810190808051906020019092919050505050615520565b600160009054906101000a900473ffffffffffffffffffffffffffffffffffffffff1673ffffffffffffffffffffffffffffffffffffffff1663a9059cbb84846040518363ffffffff1660e01b8152600401808373ffffffffffffffffffffffffffffffffffffffff16815260200182815260200192505050602060405180830381600087803b1580156154e357600080fd5b505af11580156154f7573d6000803e3d6000fd5b505050506040513d602081101561550d57600080fd5b8101908080519060200190929190505050505b505050565b601d54421061557c576000601a54141561554e576001601a819055506000601b8190555061555f565b6000601a819055506000601c819055505b615575620151804261441090919063ffffffff16565b601d819055505b61559181601e5461441090919063ffffffff16565b601e819055506000601a5414156155c2576155b781601c5461441090919063ffffffff16565b601c819055506155de565b6155d781601b5461441090919063ffffffff16565b601b819055505b50565b600083831115829061568e576040517f08c379a00000000000000000000000000000000000000000000000000000000081526004018080602001828103825283818151815260200191508051906020019080838360005b83811015615653578082015181840152602081019050615638565b50505050905090810190601f1680156156805780820380516001836020036101000a031916815260200191505b509250505060405180910390fd5b5060008385039050809150509392505050565b6000808311829061574d576040517f08c379a00000000000000000000000000000000000000000000000000000000081526004018080602001828103825283818151815260200191508051906020019080838360005b838110156157125780820151818401526020810190506156f7565b50505050905090810190601f16801561573f5780820380516001836020036101000a031916815260200191505b509250505060405180910390fd5b50600083858161575957fe5b049050809150509392505050565b60606157c9826040518060400160405280602081526020017f5361666545524332303a206c6f772d6c6576656c2063616c6c206661696c65648152508573ffffffffffffffffffffffffffffffffffffffff16615be39092919063ffffffff16565b9050600081511115615851578080602001905160208110156157ea57600080fd5b8101908080519060200190929190505050615850576040517f08c379a000000000000000000000000000000000000000000000000000000000815260040180806020018281038252602a815260200180615eb7602a913960400191505060405180910390fd5b5b505050565b60008084116158b0576040517f08c379a000000000000000000000000000000000000000000000000000000000815260040180806020018281038252602b815260200180615ee1602b913960400191505060405180910390fd5b6000831180156158c05750600082115b615915576040517f08c379a0000000000000000000000000000000000000000000000000000000008152600401808060200182810382526028815260200180615e6e6028913960400191505060405180910390fd5b600061592c6103e5866148fa90919063ffffffff16565b9050600061594384836148fa90919063ffffffff16565b9050600061596e836159606103e8896148fa90919063ffffffff16565b61441090919063ffffffff16565b905080828161597957fe5b0493505050509392505050565b600080730d4a11d5eeaac28ec3f61d100daf4d40471f1852905060008173ffffffffffffffffffffffffffffffffffffffff16630dfe16816040518163ffffffff1660e01b815260040160206040518083038186803b1580156159e857600080fd5b505afa1580156159fc573d6000803e3d6000fd5b505050506040513d6020811015615a1257600080fd5b810190808051906020019092919050505090506000808373ffffffffffffffffffffffffffffffffffffffff16630902f1ac6040518163ffffffff1660e01b815260040160606040518083038186803b158015615a6e57600080fd5b505afa158015615a82573d6000803e3d6000fd5b505050506040513d6060811015615a9857600080fd5b810190808051906020019092919080519060200190929190805190602001909291905050505091509150600073c02aaa39b223fe8d0a0e5c4f27ead9083c756cc273ffffffffffffffffffffffffffffffffffffffff168473ffffffffffffffffffffffffffffffffffffffff161415615b4657615b3f670de0b6b3a7640000846dffffffffffffffffffffffffffff16846dffffffffffffffffffffffffffff16615856565b9050615b7c565b615b79670de0b6b3a7640000836dffffffffffffffffffffffffffff16856dffffffffffffffffffffffffffff16615856565b90505b6000615bd36002615bc5615b9c620f42408661498090919063ffffffff16565b615bb7670de0b6b3a76400008d61498090919063ffffffff16565b6148fa90919063ffffffff16565b6148fa90919063ffffffff16565b9050809650505050505050919050565b6060615bf28484600085615bfb565b90509392505050565b6060615c0685615e01565b615c78576040517f08c379a000000000000000000000000000000000000000000000000000000000815260040180806020018281038252601d8152602001807f416464726573733a2063616c6c20746f206e6f6e2d636f6e747261637400000081525060200191505060405180910390fd5b600060608673ffffffffffffffffffffffffffffffffffffffff1685876040518082805190602001908083835b60208310615cc85780518252602082019150602081019050602083039250615ca5565b6001836020036101000a03801982511681845116808217855250505050505090500191505060006040518083038185875af1925050503d8060008114615d2a576040519150601f19603f3d011682016040523d82523d6000602084013e615d2f565b606091505b50915091508115615d44578092505050615df9565b600081511115615d575780518082602001fd5b836040517f08c379a00000000000000000000000000000000000000000000000000000000081526004018080602001828103825283818151815260200191508051906020019080838360005b83811015615dbe578082015181840152602081019050615da3565b50505050905090810190601f168015615deb5780820380516001836020036101000a031916815260200191505b509250505060405180910390fd5b949350505050565b600080823b90506000811191505091905056fe4f776e61626c653a206e6577206f776e657220697320746865207a65726f2061646472657373416d6f756e74206d757374206265206c657373207468616e206f7220657175616c20746f20323030303020646f6c6c6172732e556e697377617056324c6962726172793a20494e53554646494349454e545f4c4951554944495459536166654d6174683a206d756c7469706c69636174696f6e206f766572666c6f775361666545524332303a204552433230206f7065726174696f6e20646964206e6f742073756363656564556e697377617056324c6962726172793a20494e53554646494349454e545f494e5055545f414d4f554e545361666545524332303a20617070726f76652066726f6d206e6f6e2d7a65726f20746f206e6f6e2d7a65726f20616c6c6f77616e6365a264697066735822122022522f604620eb295cbba1a467b60a015b12b800dabc7265ce806b032f7e0e4664736f6c634300060c0033"
  }
}