{"compiler":"v0.6.12+commit.27d51765","opcodeHash":"0x5171cacf90bf9d24da6adb7783dca487e0e481460017e1f48170c9a1ed717e52","metalessHash":"0x02cfc22363aa345728c1b3583fa54930721e74200466b4c9c5e7358aa9ae0a2c","runtimeHash":"0x7865565da967a088ef7861b1b62e8aaa95f1404865a032075937af92abe82359","encodedMetadata":[{"ipfs":"/ipfs/QmSgn5K9CnTRCidSFUU53irr1GjcF796t6uQJG9mbjaoKF","solc":"0.6.12"}],"abi":[{"inputs":[{"internalType":"address","name":"_asset","type":"address"},{"internalType":"address","name":"_bridge","type":"address"},{"internalType":"address","name":"_destination","type":"address"},{"internalType":"uint256","name":"_rewardDivisor","type":"uint256"}],"stateMutability":"nonpayable","type":"constructor"},{"anonymous":false,"inputs":[{"indexed":true,"internalType":"address","name":"previousOwner","type":"address"},{"indexed":true,"internalType":"address","name":"newOwner","type":"address"}],"name":"OwnershipTransferred","type":"event"},{"inputs":[],"name":"asset","outputs":[{"internalType":"address","name":"","type":"address"}],"stateMutability":"view","type":"function"},{"inputs":[],"name":"bridge","outputs":[{"internalType":"address","name":"","type":"address"}],"stateMutability":"view","type":"function"},{"inputs":[],"name":"destination","outputs":[{"internalType":"address","name":"","type":"address"}],"stateMutability":"view","type":"function"},{"inputs":[{"internalType":"bytes","name":"","type":"bytes"}],"name":"executionMap","outputs":[{"internalType":"bool","name":"","type":"bool"}],"stateMutability":"view","type":"function"},{"inputs":[],"name":"owner","outputs":[{"internalType":"address","name":"","type":"address"}],"stateMutability":"view","type":"function"},{"inputs":[{"internalType":"bytes","name":"_data","type":"bytes"},{"internalType":"bytes","name":"_signatures","type":"bytes"}],"name":"pump","outputs":[],"stateMutability":"nonpayable","type":"function"},{"inputs":[],"name":"renounceOwnership","outputs":[],"stateMutability":"nonpayable","type":"function"},{"inputs":[],"name":"rewardDivisor","outputs":[{"internalType":"uint256","name":"","type":"uint256"}],"stateMutability":"view","type":"function"},{"inputs":[{"internalType":"address","name":"newOwner","type":"address"}],"name":"transferOwnership","outputs":[],"stateMutability":"nonpayable","type":"function"},{"inputs":[{"internalType":"address","name":"_asset","type":"address"},{"internalType":"address","name":"_bridge","type":"address"},{"internalType":"address","name":"_destination","type":"address"},{"internalType":"uint256","name":"_rewardDivisor","type":"uint256"}],"name":"update","outputs":[],"stateMutability":"nonpayable","type":"function"}],"bytecode":{"object":"608060405234801561001057600080fd5b506040516114dd3803806114dd8339818101604052608081101561003357600080fd5b810190808051906020019092919080519060200190929190805190602001909291908051906020019092919050505060006100726101e360201b60201c565b9050806000806101000a81548173ffffffffffffffffffffffffffffffffffffffff021916908373ffffffffffffffffffffffffffffffffffffffff1602179055508073ffffffffffffffffffffffffffffffffffffffff16600073ffffffffffffffffffffffffffffffffffffffff167f8be0079c531659141344cd1fd0a4f28419497f9722a3daafe3b4186f6b6457e060405160405180910390a35083600160006101000a81548173ffffffffffffffffffffffffffffffffffffffff021916908373ffffffffffffffffffffffffffffffffffffffff16021790555082600260006101000a81548173ffffffffffffffffffffffffffffffffffffffff021916908373ffffffffffffffffffffffffffffffffffffffff16021790555081600360006101000a81548173ffffffffffffffffffffffffffffffffffffffff021916908373ffffffffffffffffffffffffffffffffffffffff16021790555080600481905550505050506101eb565b600033905090565b6112e3806101fa6000396000f3fe608060405234801561001057600080fd5b506004361061009e5760003560e01c8063bdd14f5e11610066578063bdd14f5e146101d7578063cded244b146102a5578063e78cea9214610376578063f2fde38b146103aa578063f49c87e7146103ee5761009e565b806338d52e0f146100a3578063715018a6146100d75780638da5cb5b146100e15780639b80f26314610115578063b269681d146101a3575b600080fd5b6100ab61040c565b604051808273ffffffffffffffffffffffffffffffffffffffff16815260200191505060405180910390f35b6100df610432565b005b6100e961059f565b604051808273ffffffffffffffffffffffffffffffffffffffff16815260200191505060405180910390f35b6101a16004803603608081101561012b57600080fd5b81019080803573ffffffffffffffffffffffffffffffffffffffff169060200190929190803573ffffffffffffffffffffffffffffffffffffffff169060200190929190803573ffffffffffffffffffffffffffffffffffffffff169060200190929190803590602001909291905050506105c8565b005b6101ab610747565b604051808273ffffffffffffffffffffffffffffffffffffffff16815260200191505060405180910390f35b6102a3600480360360408110156101ed57600080fd5b810190808035906020019064010000000081111561020a57600080fd5b82018360208201111561021c57600080fd5b8035906020019184600183028401116401000000008311171561023e57600080fd5b90919293919293908035906020019064010000000081111561025f57600080fd5b82018360208201111561027157600080fd5b8035906020019184600183028401116401000000008311171561029357600080fd5b909192939192939050505061076d565b005b61035e600480360360208110156102bb57600080fd5b81019080803590602001906401000000008111156102d857600080fd5b8201836020820111156102ea57600080fd5b8035906020019184600183028401116401000000008311171561030c57600080fd5b91908080601f016020809104026020016040519081016040528093929190818152602001838380828437600081840152601f19601f820116905080830192505050505050509192919290505050610b7e565b60405180821515815260200191505060405180910390f35b61037e610bb4565b604051808273ffffffffffffffffffffffffffffffffffffffff16815260200191505060405180910390f35b6103ec600480360360208110156103c057600080fd5b81019080803573ffffffffffffffffffffffffffffffffffffffff169060200190929190505050610bda565b005b6103f6610dcc565b6040518082815260200191505060405180910390f35b600160009054906101000a900473ffffffffffffffffffffffffffffffffffffffff1681565b61043a610dd2565b73ffffffffffffffffffffffffffffffffffffffff1661045861059f565b73ffffffffffffffffffffffffffffffffffffffff16146104e1576040517f08c379a00000000000000000000000000000000000000000000000000000000081526004018080602001828103825260208152602001807f4f776e61626c653a2063616c6c6572206973206e6f7420746865206f776e657281525060200191505060405180910390fd5b600073ffffffffffffffffffffffffffffffffffffffff1660008054906101000a900473ffffffffffffffffffffffffffffffffffffffff1673ffffffffffffffffffffffffffffffffffffffff167f8be0079c531659141344cd1fd0a4f28419497f9722a3daafe3b4186f6b6457e060405160405180910390a360008060006101000a81548173ffffffffffffffffffffffffffffffffffffffff021916908373ffffffffffffffffffffffffffffffffffffffff160217905550565b60008060009054906101000a900473ffffffffffffffffffffffffffffffffffffffff16905090565b6105d0610dd2565b73ffffffffffffffffffffffffffffffffffffffff166105ee61059f565b73ffffffffffffffffffffffffffffffffffffffff1614610677576040517f08c379a00000000000000000000000000000000000000000000000000000000081526004018080602001828103825260208152602001807f4f776e61626c653a2063616c6c6572206973206e6f7420746865206f776e657281525060200191505060405180910390fd5b83600160006101000a81548173ffffffffffffffffffffffffffffffffffffffff021916908373ffffffffffffffffffffffffffffffffffffffff16021790555082600260006101000a81548173ffffffffffffffffffffffffffffffffffffffff021916908373ffffffffffffffffffffffffffffffffffffffff16021790555081600360006101000a81548173ffffffffffffffffffffffffffffffffffffffff021916908373ffffffffffffffffffffffffffffffffffffffff1602179055508060048190555050505050565b600360009054906101000a900473ffffffffffffffffffffffffffffffffffffffff1681565b6000151560058585604051808383808284378083019250505092505050908152602001604051809103902060009054906101000a900460ff161515146107fe576040517f08c379a000000000000000000000000000000000000000000000000000000000815260040180806020018281038252602c81526020018061120c602c913960400191505060405180910390fd5b600260009054906101000a900473ffffffffffffffffffffffffffffffffffffffff1673ffffffffffffffffffffffffffffffffffffffff16633f7658fd858585856040518563ffffffff1660e01b81526004018080602001806020018381038352878782818152602001925080828437600081840152601f19601f8201169050808301925050508381038252858582818152602001925080828437600081840152601f19601f8201169050808301925050509650505050505050600060405180830381600087803b1580156108d357600080fd5b505af11580156108e7573d6000803e3d6000fd5b50505050610a0633600454600160009054906101000a900473ffffffffffffffffffffffffffffffffffffffff1673ffffffffffffffffffffffffffffffffffffffff166370a08231306040518263ffffffff1660e01b8152600401808273ffffffffffffffffffffffffffffffffffffffff16815260200191505060206040518083038186803b15801561097b57600080fd5b505afa15801561098f573d6000803e3d6000fd5b505050506040513d60208110156109a557600080fd5b8101908080519060200190929190505050816109bd57fe5b04600160009054906101000a900473ffffffffffffffffffffffffffffffffffffffff1673ffffffffffffffffffffffffffffffffffffffff16610dda9092919063ffffffff16565b610b38600360009054906101000a900473ffffffffffffffffffffffffffffffffffffffff16600160009054906101000a900473ffffffffffffffffffffffffffffffffffffffff1673ffffffffffffffffffffffffffffffffffffffff166370a08231306040518263ffffffff1660e01b8152600401808273ffffffffffffffffffffffffffffffffffffffff16815260200191505060206040518083038186803b158015610ab557600080fd5b505afa158015610ac9573d6000803e3d6000fd5b505050506040513d6020811015610adf57600080fd5b8101908080519060200190929190505050600160009054906101000a900473ffffffffffffffffffffffffffffffffffffffff1673ffffffffffffffffffffffffffffffffffffffff16610dda9092919063ffffffff16565b600160058585604051808383808284378083019250505092505050908152602001604051809103902060006101000a81548160ff02191690831515021790555050505050565b6005818051602081018201805184825260208301602085012081835280955050505050506000915054906101000a900460ff1681565b600260009054906101000a900473ffffffffffffffffffffffffffffffffffffffff1681565b610be2610dd2565b73ffffffffffffffffffffffffffffffffffffffff16610c0061059f565b73ffffffffffffffffffffffffffffffffffffffff1614610c89576040517f08c379a00000000000000000000000000000000000000000000000000000000081526004018080602001828103825260208152602001807f4f776e61626c653a2063616c6c6572206973206e6f7420746865206f776e657281525060200191505060405180910390fd5b600073ffffffffffffffffffffffffffffffffffffffff168173ffffffffffffffffffffffffffffffffffffffff161415610d0f576040517f08c379a00000000000000000000000000000000000000000000000000000000081526004018080602001828103825260268152602001806112386026913960400191505060405180910390fd5b8073ffffffffffffffffffffffffffffffffffffffff1660008054906101000a900473ffffffffffffffffffffffffffffffffffffffff1673ffffffffffffffffffffffffffffffffffffffff167f8be0079c531659141344cd1fd0a4f28419497f9722a3daafe3b4186f6b6457e060405160405180910390a3806000806101000a81548173ffffffffffffffffffffffffffffffffffffffff021916908373ffffffffffffffffffffffffffffffffffffffff16021790555050565b60045481565b600033905090565b610e778363a9059cbb60e01b8484604051602401808373ffffffffffffffffffffffffffffffffffffffff16815260200182815260200192505050604051602081830303815290604052907bffffffffffffffffffffffffffffffffffffffffffffffffffffffff19166020820180517bffffffffffffffffffffffffffffffffffffffffffffffffffffffff8381831617835250505050610e7c565b505050565b6060610ede826040518060400160405280602081526020017f5361666545524332303a206c6f772d6c6576656c2063616c6c206661696c65648152508573ffffffffffffffffffffffffffffffffffffffff16610f6b9092919063ffffffff16565b9050600081511115610f6657808060200190516020811015610eff57600080fd5b8101908080519060200190929190505050610f65576040517f08c379a000000000000000000000000000000000000000000000000000000000815260040180806020018281038252602a815260200180611284602a913960400191505060405180910390fd5b5b505050565b6060610f7a8484600085610f83565b90509392505050565b606082471015610fde576040517f08c379a000000000000000000000000000000000000000000000000000000000815260040180806020018281038252602681526020018061125e6026913960400191505060405180910390fd5b610fe78561112c565b611059576040517f08c379a000000000000000000000000000000000000000000000000000000000815260040180806020018281038252601d8152602001807f416464726573733a2063616c6c20746f206e6f6e2d636f6e747261637400000081525060200191505060405180910390fd5b600060608673ffffffffffffffffffffffffffffffffffffffff1685876040518082805190602001908083835b602083106110a95780518252602082019150602081019050602083039250611086565b6001836020036101000a03801982511681845116808217855250505050505090500191505060006040518083038185875af1925050503d806000811461110b576040519150601f19603f3d011682016040523d82523d6000602084013e611110565b606091505b509150915061112082828661113f565b92505050949350505050565b600080823b905060008111915050919050565b6060831561114f57829050611204565b6000835111156111625782518084602001fd5b816040517f08c379a00000000000000000000000000000000000000000000000000000000081526004018080602001828103825283818151815260200191508051906020019080838360005b838110156111c95780820151818401526020810190506111ae565b50505050905090810190601f1680156111f65780820380516001836020036101000a031916815260200191505b509250505060405180910390fd5b939250505056fe50756d703a205468697320726571756573742068617320616c7265616479206265656e2065786563757465644f776e61626c653a206e6577206f776e657220697320746865207a65726f2061646472657373416464726573733a20696e73756666696369656e742062616c616e636520666f722063616c6c5361666545524332303a204552433230206f7065726174696f6e20646964206e6f742073756363656564a2646970667358221220e719156f494930fdf42118c86600dca87f9017f8a7f5e87abb340e496efa973f64736f6c634300060c0033"}}