{"compiler":"v0.5.16+commit.9c3226ce","opcodeHash":"0x22263a12201d86a02a036ef8af4b634e2e1466f99d817dd4dd072dde58deeef3","metalessHash":"0x7895c8626a018ec39822c522b143cfae8859cacfbacaf457898f12be73f1cffb","runtimeHash":"0x9277305038dac20ac690fc840983378daae26ae69d31e5496d3d9f25f5e60913","encodedMetadata":[{"bzzr1":"/swarm/bzzr1/399c602140bd49c6cd78010b6c83eb4a3e0217cf29c2728a13ab7ed21c40e5ed","solc":"0.5.16"}],"abi":[{"inputs":[{"internalType":"address","name":"_owner","type":"address"},{"internalType":"address","name":"_resolver","type":"address"},{"internalType":"address","name":"_rewardsDistribution","type":"address"},{"internalType":"address","name":"_rewardsToken","type":"address"}],"payable":false,"stateMutability":"nonpayable","type":"constructor"},{"anonymous":false,"inputs":[{"indexed":false,"internalType":"bytes32","name":"name","type":"bytes32"},{"indexed":false,"internalType":"address","name":"destination","type":"address"}],"name":"CacheUpdated","type":"event"},{"anonymous":false,"inputs":[{"indexed":true,"internalType":"address","name":"user","type":"address"},{"indexed":false,"internalType":"uint256","name":"amount","type":"uint256"}],"name":"Enrol","type":"event"},{"anonymous":false,"inputs":[{"indexed":false,"internalType":"address","name":"oldOwner","type":"address"},{"indexed":false,"internalType":"address","name":"newOwner","type":"address"}],"name":"OwnerChanged","type":"event"},{"anonymous":false,"inputs":[{"indexed":false,"internalType":"address","name":"newOwner","type":"address"}],"name":"OwnerNominated","type":"event"},{"anonymous":false,"inputs":[{"indexed":false,"internalType":"bool","name":"isPaused","type":"bool"}],"name":"PauseChanged","type":"event"},{"anonymous":false,"inputs":[{"indexed":false,"internalType":"uint256","name":"reward","type":"uint256"}],"name":"RewardAdded","type":"event"},{"anonymous":false,"inputs":[{"indexed":true,"internalType":"address","name":"user","type":"address"},{"indexed":false,"internalType":"uint256","name":"reward","type":"uint256"}],"name":"RewardPaid","type":"event"},{"anonymous":false,"inputs":[{"indexed":false,"internalType":"uint256","name":"newDuration","type":"uint256"}],"name":"RewardsDurationUpdated","type":"event"},{"anonymous":false,"inputs":[{"indexed":true,"internalType":"address","name":"user","type":"address"},{"indexed":false,"internalType":"uint256","name":"amount","type":"uint256"}],"name":"Withdrawn","type":"event"},{"constant":false,"inputs":[],"name":"acceptOwnership","outputs":[],"payable":false,"stateMutability":"nonpayable","type":"function"},{"constant":true,"inputs":[{"internalType":"address","name":"account","type":"address"}],"name":"balanceOf","outputs":[{"internalType":"uint256","name":"","type":"uint256"}],"payable":false,"stateMutability":"view","type":"function"},{"constant":true,"inputs":[{"internalType":"address","name":"account","type":"address"}],"name":"earned","outputs":[{"internalType":"uint256","name":"","type":"uint256"}],"payable":false,"stateMutability":"view","type":"function"},{"constant":false,"inputs":[{"internalType":"address","name":"account","type":"address"},{"internalType":"uint256","name":"amount","type":"uint256"}],"name":"enrol","outputs":[],"payable":false,"stateMutability":"nonpayable","type":"function"},{"constant":false,"inputs":[{"internalType":"address","name":"account","type":"address"}],"name":"getReward","outputs":[],"payable":false,"stateMutability":"nonpayable","type":"function"},{"constant":true,"inputs":[],"name":"getRewardForDuration","outputs":[{"internalType":"uint256","name":"","type":"uint256"}],"payable":false,"stateMutability":"view","type":"function"},{"constant":true,"inputs":[],"name":"isResolverCached","outputs":[{"internalType":"bool","name":"","type":"bool"}],"payable":false,"stateMutability":"view","type":"function"},{"constant":true,"inputs":[],"name":"lastPauseTime","outputs":[{"internalType":"uint256","name":"","type":"uint256"}],"payable":false,"stateMutability":"view","type":"function"},{"constant":true,"inputs":[],"name":"lastTimeRewardApplicable","outputs":[{"internalType":"uint256","name":"","type":"uint256"}],"payable":false,"stateMutability":"view","type":"function"},{"constant":true,"inputs":[],"name":"lastUpdateTime","outputs":[{"internalType":"uint256","name":"","type":"uint256"}],"payable":false,"stateMutability":"view","type":"function"},{"constant":false,"inputs":[{"internalType":"address","name":"_owner","type":"address"}],"name":"nominateNewOwner","outputs":[],"payable":false,"stateMutability":"nonpayable","type":"function"},{"constant":true,"inputs":[],"name":"nominatedOwner","outputs":[{"internalType":"address","name":"","type":"address"}],"payable":false,"stateMutability":"view","type":"function"},{"constant":false,"inputs":[{"internalType":"uint256","name":"reward","type":"uint256"}],"name":"notifyRewardAmount","outputs":[],"payable":false,"stateMutability":"nonpayable","type":"function"},{"constant":true,"inputs":[],"name":"owner","outputs":[{"internalType":"address","name":"","type":"address"}],"payable":false,"stateMutability":"view","type":"function"},{"constant":true,"inputs":[],"name":"paused","outputs":[{"internalType":"bool","name":"","type":"bool"}],"payable":false,"stateMutability":"view","type":"function"},{"constant":true,"inputs":[],"name":"periodFinish","outputs":[{"internalType":"uint256","name":"","type":"uint256"}],"payable":false,"stateMutability":"view","type":"function"},{"constant":false,"inputs":[],"name":"rebuildCache","outputs":[],"payable":false,"stateMutability":"nonpayable","type":"function"},{"constant":true,"inputs":[],"name":"resolver","outputs":[{"internalType":"contract AddressResolver","name":"","type":"address"}],"payable":false,"stateMutability":"view","type":"function"},{"constant":true,"inputs":[],"name":"resolverAddressesRequired","outputs":[{"internalType":"bytes32[]","name":"addresses","type":"bytes32[]"}],"payable":false,"stateMutability":"view","type":"function"},{"constant":true,"inputs":[],"name":"rewardPerToken","outputs":[{"internalType":"uint256","name":"","type":"uint256"}],"payable":false,"stateMutability":"view","type":"function"},{"constant":true,"inputs":[],"name":"rewardPerTokenStored","outputs":[{"internalType":"uint256","name":"","type":"uint256"}],"payable":false,"stateMutability":"view","type":"function"},{"constant":true,"inputs":[],"name":"rewardRate","outputs":[{"internalType":"uint256","name":"","type":"uint256"}],"payable":false,"stateMutability":"view","type":"function"},{"constant":true,"inputs":[{"internalType":"address","name":"","type":"address"}],"name":"rewards","outputs":[{"internalType":"uint256","name":"","type":"uint256"}],"payable":false,"stateMutability":"view","type":"function"},{"constant":true,"inputs":[],"name":"rewardsDistribution","outputs":[{"internalType":"address","name":"","type":"address"}],"payable":false,"stateMutability":"view","type":"function"},{"constant":true,"inputs":[],"name":"rewardsDuration","outputs":[{"internalType":"uint256","name":"","type":"uint256"}],"payable":false,"stateMutability":"view","type":"function"},{"constant":true,"inputs":[],"name":"rewardsToken","outputs":[{"internalType":"contract IERC20","name":"","type":"address"}],"payable":false,"stateMutability":"view","type":"function"},{"constant":false,"inputs":[{"internalType":"bool","name":"_paused","type":"bool"}],"name":"setPaused","outputs":[],"payable":false,"stateMutability":"nonpayable","type":"function"},{"constant":false,"inputs":[{"internalType":"address","name":"_rewardsDistribution","type":"address"}],"name":"setRewardsDistribution","outputs":[],"payable":false,"stateMutability":"nonpayable","type":"function"},{"constant":false,"inputs":[{"internalType":"uint256","name":"_rewardsDuration","type":"uint256"}],"name":"setRewardsDuration","outputs":[],"payable":false,"stateMutability":"nonpayable","type":"function"},{"constant":true,"inputs":[],"name":"totalSupply","outputs":[{"internalType":"uint256","name":"","type":"uint256"}],"payable":false,"stateMutability":"view","type":"function"},{"constant":true,"inputs":[{"internalType":"address","name":"","type":"address"}],"name":"userRewardPerTokenPaid","outputs":[{"internalType":"uint256","name":"","type":"uint256"}],"payable":false,"stateMutability":"view","type":"function"},{"constant":false,"inputs":[{"internalType":"address","name":"account","type":"address"},{"internalType":"uint256","name":"amount","type":"uint256"}],"name":"withdraw","outputs":[],"payable":false,"stateMutability":"nonpayable","type":"function"}],"bytecode":{"object":"60806040526000600855600060095562093a80600a553480156200002257600080fd5b506040516200208b3803806200208b833981016040819052620000459162000164565b82846001600160a01b038116620000795760405162461bcd60e51b815260040162000070906200028c565b60405180910390fd5b600080546001600160a01b0319166001600160a01b0383161781556040517fb532073b38c83145e3e5135377a08bf9aab55bc0fd7c1179cd4fb995d2a5159c91620000c691849062000254565b60405180910390a15060016003556000546001600160a01b0316620000ff5760405162461bcd60e51b815260040162000070906200027a565b60058054610100600160a81b0319166101006001600160a01b0393841602179055600780546001600160a01b031990811693831693909317905560028054909216921691909117905550620002e79050565b80516200015e81620002cd565b92915050565b600080600080608085870312156200017b57600080fd5b600062000189878762000151565b94505060206200019c8782880162000151565b9350506040620001af8782880162000151565b9250506060620001c28782880162000151565b91505092959194509250565b620001d981620002b9565b82525050565b620001d981620002a7565b6000620001f96011836200029e565b7013dddb995c881b5d5cdd081899481cd95d607a1b815260200192915050565b6000620002286019836200029e565b7f4f776e657220616464726573732063616e6e6f74206265203000000000000000815260200192915050565b60408101620002648285620001ce565b620002736020830184620001df565b9392505050565b602080825281016200015e81620001ea565b602080825281016200015e8162000219565b90815260200190565b60006001600160a01b0382166200015e565b60006200015e8260006200015e82620002a7565b620002d881620002a7565b8114620002e457600080fd5b50565b611d9480620002f76000396000f3fe608060405234801561001057600080fd5b50600436106101ef5760003560e01c806379ba50971161010f578063c8f33c91116100a2578063db454a5111610071578063db454a511461038e578063df136d65146103a1578063ebe2b12b146103a9578063f3fef3a3146103b1576101ef565b8063c8f33c9114610363578063cc1a378f1461036b578063cd3daf9d1461037e578063d1af0c7d14610386576101ef565b80638b876347116100de5780638b8763471461032d5780638da5cb5b1461034057806391b4ded914610348578063c00007b014610350576101ef565b806379ba5097146103005780637b0a47ee1461030857806380faa57d14610310578063899ffef414610318576101ef565b80632af64bd31161018757806353a47bb71161015657806353a47bb7146102d55780635c975abb146102dd57806370a08231146102e557806374185360146102f8576101ef565b80632af64bd314610290578063386a9525146102a55780633c6b16ab146102ad5780633fc6df6e146102c0576101ef565b806316c38b3c116101c357806316c38b3c1461025a57806318160ddd1461026d57806319762143146102755780631c1f78eb14610288576101ef565b80628cc262146101f457806304f3bcec1461021d5780630700037d146102325780631627540c14610245575b600080fd5b6102076102023660046113ca565b6103c4565b6040516102149190611b4b565b60405180910390f35b61022561045a565b6040516102149190611b87565b6102076102403660046113ca565b61046e565b6102586102533660046113ca565b610480565b005b610258610268366004611448565b6104de565b610207610553565b6102586102833660046113ca565b61055a565b610207610584565b6102986105a2565b6040516102149190611b3d565b6102076106be565b6102586102bb366004611484565b6106c4565b6102c86108d9565b6040516102149190611ae8565b6102c86108e8565b6102986108f7565b6102076102f33660046113ca565b610900565b61025861091b565b610258610a71565b610207610b0d565b610207610b13565b610320610b21565b6040516102149190611b2c565b61020761033b3660046113ca565b610b72565b6102c8610b84565b610207610b93565b61025861035e3660046113ca565b610b99565b610207610cf4565b610258610379366004611484565b610cfa565b610207610d58565b610225610db2565b61025861039c36600461140e565b610dc1565b610207610f63565b610207610f69565b6102586103bf36600461140e565b610f6f565b6001600160a01b0381166000908152600e6020908152604080832054600d909252822054610454919061044890670de0b6b3a76400009061043c906104179061040b610d58565b9063ffffffff6110be16565b6001600160a01b0388166000908152601060205260409020549063ffffffff6110e616565b9063ffffffff61112716565b9063ffffffff61115c16565b92915050565b60055461010090046001600160a01b031681565b600e6020526000908152604090205481565b610488611181565b600180546001600160a01b0319166001600160a01b0383161790556040517f906a1c6bd7e3091ea86693dd029a831c19049ce77f1dce2ce0bab1cacbabce22906104d3908390611ae8565b60405180910390a150565b6104e6611181565b60055460ff16151581151514156104fc57610550565b6005805460ff1916821515179081905560ff161561051957426004555b6005546040517f8fb6c181ee25a520cf3dd6565006ef91229fcfe5a989566c2a3b8c115570cec5916104d39160ff90911690611b3d565b50565b600f545b90565b610562611181565b600280546001600160a01b0319166001600160a01b0392909216919091179055565b600061059d600a546009546110e690919063ffffffff16565b905090565b600060606105ae610b21565b905060005b81518110156106b55760008282815181106105ca57fe5b602090810291909101810151600081815260069092526040918290205460055492516321f8a72160e01b81529193506001600160a01b0390811692610100900416906321f8a72190610620908590600401611b4b565b60206040518083038186803b15801561063857600080fd5b505afa15801561064c573d6000803e3d6000fd5b505050506040513d601f19601f8201168201806040525061067091908101906113f0565b6001600160a01b031614158061069b57506000818152600660205260409020546001600160a01b0316155b156106ac5760009350505050610557565b506001016105b3565b50600191505090565b600a5481565b6002546001600160a01b031633146106f75760405162461bcd60e51b81526004016106ee90611c66565b60405180910390fd5b6000610701610d58565b600c5561070c610b13565b600b556001600160a01b0381161561075357610727816103c4565b6001600160a01b0382166000908152600e6020908152604080832093909355600c54600d909152919020555b600854421061077857600a5461077090839063ffffffff61112716565b6009556107c7565b60085460009061078e904263ffffffff6110be16565b905060006107a7600954836110e690919063ffffffff16565b600a549091506107c19061043c868463ffffffff61115c16565b60095550505b6007546040516370a0823160e01b81526000916001600160a01b0316906370a08231906107f8903090600401611ae8565b60206040518083038186803b15801561081057600080fd5b505afa158015610824573d6000803e3d6000fd5b505050506040513d601f19601f8201168201806040525061084891908101906114a2565b905061085f600a548261112790919063ffffffff16565b60095411156108805760405162461bcd60e51b81526004016106ee90611c46565b42600b819055600a54610899919063ffffffff61115c16565b6008556040517fde88a922e0d3b88b24e9623efeb464919c6bf9f66857a65e2bfcf2ce87a9433d906108cc908590611b4b565b60405180910390a1505050565b6002546001600160a01b031681565b6001546001600160a01b031681565b60055460ff1681565b6001600160a01b031660009081526010602052604090205490565b6060610925610b21565b905060005b8151811015610a6d57600082828151811061094157fe5b602002602001015190506000600560019054906101000a90046001600160a01b03166001600160a01b031663dacb2d0183846040516020016109839190611add565b6040516020818303038152906040526040518363ffffffff1660e01b81526004016109af929190611b67565b60206040518083038186803b1580156109c757600080fd5b505afa1580156109db573d6000803e3d6000fd5b505050506040513d601f19601f820116820180604052506109ff91908101906113f0565b6000838152600660205260409081902080546001600160a01b0319166001600160a01b038416179055519091507f88a93678a3692f6789d9546fc621bf7234b101ddb7d4fe479455112831b8aa6890610a5b9084908490611b59565b60405180910390a1505060010161092a565b5050565b6001546001600160a01b03163314610a9b5760405162461bcd60e51b81526004016106ee90611bb6565b6000546001546040517fb532073b38c83145e3e5135377a08bf9aab55bc0fd7c1179cd4fb995d2a5159c92610ade926001600160a01b0391821692911690611af6565b60405180910390a160018054600080546001600160a01b03199081166001600160a01b03841617909155169055565b60095481565b600061059d426008546111ad565b604080516001808252818301909252606091602080830190803883390190505090506e10dbdb1b185d195c985b14da1bdc9d608a1b81600081518110610b6357fe5b60200260200101818152505090565b600d6020526000908152604090205481565b6000546001600160a01b031681565b60045481565b6000610ba36111c3565b6001600160a01b0316336001600160a01b031614905080610bd65760405162461bcd60e51b81526004016106ee90611ca6565b600380546001019081905582610bea610d58565b600c55610bf5610b13565b600b556001600160a01b03811615610c3c57610c10816103c4565b6001600160a01b0382166000908152600e6020908152604080832093909355600c54600d909152919020555b6001600160a01b0384166000908152600e60205260409020548015610ccc576001600160a01b038086166000908152600e6020526040812055600754610c8a9116868363ffffffff6111e016565b846001600160a01b03167fe2403640ba68fed3a2f88b7557551d1993f84b99bb10ff833f0cf8db0c5e048682604051610cc39190611b4b565b60405180910390a25b50506003548114610cef5760405162461bcd60e51b81526004016106ee90611c86565b505050565b600b5481565b610d02611181565b6008544211610d235760405162461bcd60e51b81526004016106ee90611ba6565b600a8190556040517ffb46ca5a5e06d4540d6387b930a7c978bce0db5f449ec6b3f5d07c6e1d44f2d3906104d3908390611b4b565b6000600f5460001415610d6e5750600c54610557565b61059d610da3600f5461043c670de0b6b3a7640000610d97600954610d97600b5461040b610b13565b9063ffffffff6110e616565b600c549063ffffffff61115c16565b6007546001600160a01b031681565b6000610dcb6111c3565b6001600160a01b0316336001600160a01b031614905080610dfe5760405162461bcd60e51b81526004016106ee90611ca6565b600380546001019081905560055460ff1615610e2c5760405162461bcd60e51b81526004016106ee90611c56565b83610e35610d58565b600c55610e40610b13565b600b556001600160a01b03811615610e8757610e5b816103c4565b6001600160a01b0382166000908152600e6020908152604080832093909355600c54600d909152919020555b60008411610ea75760405162461bcd60e51b81526004016106ee90611bc6565b600f54610eba908563ffffffff61115c16565b600f556001600160a01b038516600090815260106020526040902054610ee6908563ffffffff61115c16565b6001600160a01b038616600081815260106020526040908190209290925590517fc3d87d134210f5b3ee2418004c5f887bf335f79829d32e72ba5f282baccc859190610f33908790611b4b565b60405180910390a2506003548114610f5d5760405162461bcd60e51b81526004016106ee90611c86565b50505050565b600c5481565b60085481565b6000610f796111c3565b6001600160a01b0316336001600160a01b031614905080610fac5760405162461bcd60e51b81526004016106ee90611ca6565b600380546001019081905583610fc0610d58565b600c55610fcb610b13565b600b556001600160a01b0381161561101257610fe6816103c4565b6001600160a01b0382166000908152600e6020908152604080832093909355600c54600d909152919020555b600084116110325760405162461bcd60e51b81526004016106ee90611c26565b600f54611045908563ffffffff6110be16565b600f556001600160a01b038516600090815260106020526040902054611071908563ffffffff6110be16565b6001600160a01b038616600081815260106020526040908190209290925590517f7084f5476618d8e60b11ef0d7d3f06914655adb8793e28ff7f018d4c76d505d590610f33908790611b4b565b6000828211156110e05760405162461bcd60e51b81526004016106ee90611bf6565b50900390565b6000826110f557506000610454565b8282028284828161110257fe5b04146111205760405162461bcd60e51b81526004016106ee90611c36565b9392505050565b60008082116111485760405162461bcd60e51b81526004016106ee90611c06565b600082848161115357fe5b04949350505050565b6000828201838110156111205760405162461bcd60e51b81526004016106ee90611bd6565b6000546001600160a01b031633146111ab5760405162461bcd60e51b81526004016106ee90611c16565b565b60008183106111bc5781611120565b5090919050565b600061059d6e10dbdb1b185d195c985b14da1bdc9d608a1b611239565b604051610cef90849063a9059cbb60e01b906112029086908690602401611b11565b60408051601f198184030181529190526020810180516001600160e01b03166001600160e01b03199093169290921790915261129d565b60008181526006602090815260408083205490516001600160a01b03909116918215159161126991869101611abd565b604051602081830303815290604052906112965760405162461bcd60e51b81526004016106ee9190611b95565b5092915050565b6112af826001600160a01b0316611382565b6112cb5760405162461bcd60e51b81526004016106ee90611c96565b60006060836001600160a01b0316836040516112e79190611ab1565b6000604051808303816000865af19150503d8060008114611324576040519150601f19603f3d011682016040523d82523d6000602084013e611329565b606091505b50915091508161134b5760405162461bcd60e51b81526004016106ee90611be6565b805115610f5d57808060200190516113669190810190611466565b610f5d5760405162461bcd60e51b81526004016106ee90611c76565b3b151590565b803561045481611d2b565b805161045481611d2b565b803561045481611d3f565b805161045481611d3f565b803561045481611d48565b805161045481611d48565b6000602082840312156113dc57600080fd5b60006113e88484611388565b949350505050565b60006020828403121561140257600080fd5b60006113e88484611393565b6000806040838503121561142157600080fd5b600061142d8585611388565b925050602061143e858286016113b4565b9150509250929050565b60006020828403121561145a57600080fd5b60006113e8848461139e565b60006020828403121561147857600080fd5b60006113e884846113a9565b60006020828403121561149657600080fd5b60006113e884846113b4565b6000602082840312156114b457600080fd5b60006113e884846113bf565b60006114cc8383611545565b505060200190565b6114dd81611cce565b82525050565b60006114ee82611cbc565b6114f88185611cc0565b935061150383611cb6565b8060005b8381101561153157815161151b88826114c0565b975061152683611cb6565b925050600101611507565b509495945050505050565b6114dd81611cd9565b6114dd81610557565b6114dd61155a82610557565b610557565b600061156a82611cbc565b6115748185611cc9565b9350611584818560208601611cf5565b9290920192915050565b6114dd81611cea565b60006115a282611cbc565b6115ac8185611cc0565b93506115bc818560208601611cf5565b6115c581611d21565b9093019392505050565b60006115dc605883611cc0565b7f50726576696f7573207265776172647320706572696f64206d7573742062652081527f636f6d706c657465206265666f7265206368616e67696e67207468652064757260208201527f6174696f6e20666f7220746865206e657720706572696f640000000000000000604082015260600192915050565b6000611661603583611cc0565b7f596f75206d757374206265206e6f6d696e61746564206265666f726520796f7581527402063616e20616363657074206f776e65727368697605c1b602082015260400192915050565b60006116b8600e83611cc0565b6d043616e6e6f74207374616b6520360941b815260200192915050565b60006116e2601b83611cc0565b7f536166654d6174683a206164646974696f6e206f766572666c6f770000000000815260200192915050565b600061171b602083611cc0565b7f5361666545524332303a206c6f772d6c6576656c2063616c6c206661696c6564815260200192915050565b6000611754601e83611cc0565b7f536166654d6174683a207375627472616374696f6e206f766572666c6f770000815260200192915050565b600061178d601a83611cc0565b7f536166654d6174683a206469766973696f6e206279207a65726f000000000000815260200192915050565b60006117c6601183611cc9565b70026b4b9b9b4b7339030b2323932b9b99d1607d1b815260110192915050565b60006117f3602f83611cc0565b7f4f6e6c792074686520636f6e7472616374206f776e6572206d6179207065726681526e37b936903a3434b99030b1ba34b7b760891b602082015260400192915050565b6000611844601183611cc0565b70043616e6e6f74207769746864726177203607c1b815260200192915050565b6000611871602183611cc0565b7f536166654d6174683a206d756c7469706c69636174696f6e206f766572666c6f8152607760f81b602082015260400192915050565b60006118b4601883611cc0565b7f50726f76696465642072657761726420746f6f20686967680000000000000000815260200192915050565b60006118ed603c83611cc0565b7f5468697320616374696f6e2063616e6e6f7420626520706572666f726d65642081527f7768696c652074686520636f6e74726163742069732070617573656400000000602082015260400192915050565b600061194c601983611cc9565b7f5265736f6c766572206d697373696e67207461726765743a2000000000000000815260190192915050565b6000611985602a83611cc0565b7f43616c6c6572206973206e6f742052657761726473446973747269627574696f8152691b8818dbdb9d1c9858dd60b21b602082015260400192915050565b60006119d1602a83611cc0565b7f5361666545524332303a204552433230206f7065726174696f6e20646964206e8152691bdd081cdd58d8d9595960b21b602082015260400192915050565b6000611a1d601f83611cc0565b7f5265656e7472616e637947756172643a207265656e7472616e742063616c6c00815260200192915050565b6000611a56601f83611cc0565b7f5361666545524332303a2063616c6c20746f206e6f6e2d636f6e747261637400815260200192915050565b6000611a8f601383611cc0565b7213db9b1e4814da1bdc9d0810dbdb9d1c9858dd606a1b815260200192915050565b6000611120828461155f565b6000611ac8826117b9565b9150611ad4828461154e565b50602001919050565b6000611ac88261193f565b6020810161045482846114d4565b60408101611b0482856114d4565b61112060208301846114d4565b60408101611b1f82856114d4565b6111206020830184611545565b6020808252810161112081846114e3565b60208101610454828461153c565b602081016104548284611545565b60408101611b048285611545565b60408101611b758285611545565b81810360208301526113e88184611597565b60208101610454828461158e565b602080825281016111208184611597565b60208082528101610454816115cf565b6020808252810161045481611654565b60208082528101610454816116ab565b60208082528101610454816116d5565b602080825281016104548161170e565b6020808252810161045481611747565b6020808252810161045481611780565b60208082528101610454816117e6565b6020808252810161045481611837565b6020808252810161045481611864565b60208082528101610454816118a7565b60208082528101610454816118e0565b6020808252810161045481611978565b60208082528101610454816119c4565b6020808252810161045481611a10565b6020808252810161045481611a49565b6020808252810161045481611a82565b60200190565b5190565b90815260200190565b919050565b600061045482611cde565b151590565b6001600160a01b031690565b600061045482611cce565b60005b83811015611d10578181015183820152602001611cf8565b83811115610f5d5750506000910152565b601f01601f191690565b611d3481611cce565b811461055057600080fd5b611d3481611cd9565b611d348161055756fea365627a7a72315820a695d2a56bc1535fadaab7902e6c1f2fa5a6ceedd41f975dc290228c56d3d6b56c6578706572696d656e74616cf564736f6c63430005100040"}}