{"compiler":"v0.6.12+commit.27d51765","opcodeHash":"0xf82f4ace8d50a812cc90a8c383cfbf6ac925a28b6d103bbe142b653d48821259","metalessHash":"0x878008b704c71ce3c9cceb3ce0bbe92463946a0d92f713a3070b15c405763de8","runtimeHash":"0xb9a1044a84f47560bde577635bce22296ff87c318f975f1c62fc6899cf4a649e","encodedMetadata":[{"ipfs":"/ipfs/QmRJB5WFTBsUpSnb9JbqvMXcpDdEq57ar9TuVngjzJv9Nj","solc":"0.6.12"}],"abi":[{"inputs":[{"internalType":"address","name":"_stafiStorageAddress","type":"address"}],"stateMutability":"nonpayable","type":"constructor"},{"inputs":[{"internalType":"bytes32","name":"_key","type":"bytes32"},{"internalType":"address","name":"_value","type":"address"}],"name":"addItem","outputs":[],"stateMutability":"nonpayable","type":"function"},{"inputs":[{"internalType":"bytes32","name":"_key","type":"bytes32"}],"name":"getCount","outputs":[{"internalType":"uint256","name":"","type":"uint256"}],"stateMutability":"view","type":"function"},{"inputs":[{"internalType":"bytes32","name":"_key","type":"bytes32"},{"internalType":"address","name":"_value","type":"address"}],"name":"getIndexOf","outputs":[{"internalType":"int256","name":"","type":"int256"}],"stateMutability":"view","type":"function"},{"inputs":[{"internalType":"bytes32","name":"_key","type":"bytes32"},{"internalType":"uint256","name":"_index","type":"uint256"}],"name":"getItem","outputs":[{"internalType":"address","name":"","type":"address"}],"stateMutability":"view","type":"function"},{"inputs":[{"internalType":"bytes32","name":"_key","type":"bytes32"},{"internalType":"address","name":"_value","type":"address"}],"name":"removeItem","outputs":[],"stateMutability":"nonpayable","type":"function"},{"inputs":[],"name":"version","outputs":[{"internalType":"uint8","name":"","type":"uint8"}],"stateMutability":"view","type":"function"}],"bytecode":{"object":"608060405260008060016101000a81548173ffffffffffffffffffffffffffffffffffffffff021916908373ffffffffffffffffffffffffffffffffffffffff16021790555034801561005157600080fd5b506040516112c23803806112c28339818101604052602081101561007457600080fd5b81019080805190602001909291905050508080600060016101000a81548173ffffffffffffffffffffffffffffffffffffffff021916908373ffffffffffffffffffffffffffffffffffffffff1602179055505060016000806101000a81548160ff021916908360ff160217905550506111cf806100f36000396000f3fe608060405234801561001057600080fd5b50600436106100625760003560e01c806354fd4d501461006757806368ee92c91461008857806388927166146100ea578063c9d6fee914610138578063f3358a3a1461017a578063f79b36ad146101dc575b600080fd5b61006f61022a565b604051808260ff16815260200191505060405180910390f35b6100d46004803603604081101561009e57600080fd5b8101908080359060200190929190803573ffffffffffffffffffffffffffffffffffffffff16906020019092919050505061023b565b6040518082815260200191505060405180910390f35b6101366004803603604081101561010057600080fd5b8101908080359060200190929190803573ffffffffffffffffffffffffffffffffffffffff1690602001909291905050506102c0565b005b6101646004803603602081101561014e57600080fd5b8101908080359060200190929190505050610784565b6040518082815260200191505060405180910390f35b6101b06004803603604081101561019057600080fd5b8101908080359060200190929190803590602001909291905050506107e4565b604051808273ffffffffffffffffffffffffffffffffffffffff16815260200191505060405180910390f35b610228600480360360408110156101f257600080fd5b8101908080359060200190929190803573ffffffffffffffffffffffffffffffffffffffff16906020019092919050505061084d565b005b60008054906101000a900460ff1681565b600060016102b7848460405160200180838152602001807f2e696e64657800000000000000000000000000000000000000000000000000008152506006018273ffffffffffffffffffffffffffffffffffffffff1660601b81526014019250505060405160208183030381529060405280519060200120610e0b565b03905092915050565b6040518060400160405280601181526020017f6164647265737353657453746f72616765000000000000000000000000000000815250306103998260405160200180807f636f6e74726163742e616464726573730000000000000000000000000000000081525060100182805190602001908083835b602083106103595780518252602082019150602081019050602083039250610336565b6001836020036101000a03801982511681845116808217855250505050505090500191505060405160208183030381529060405280519060200120610ec1565b73ffffffffffffffffffffffffffffffffffffffff168173ffffffffffffffffffffffffffffffffffffffff1614610439576040517f08c379a000000000000000000000000000000000000000000000000000000000815260040180806020018281038252601c8152602001807f496e76616c6964206f72206f7574646174656420636f6e74726163740000000081525060200191505060405180910390fd5b6104a93360405160200180807f636f6e74726163742e6578697374730000000000000000000000000000000000815250600f018273ffffffffffffffffffffffffffffffffffffffff1660601b815260140191505060405160208183030381529060405280519060200120610f77565b6104fe576040517f08c379a00000000000000000000000000000000000000000000000000000000081526004018080602001828103825260248152602001806111766024913960400191505060405180910390fd5b6000610578858560405160200180838152602001807f2e696e64657800000000000000000000000000000000000000000000000000008152506006018273ffffffffffffffffffffffffffffffffffffffff1660601b81526014019250505060405160208183030381529060405280519060200120610e0b565b146105eb576040517f08c379a000000000000000000000000000000000000000000000000000000000815260040180806020018281038252601a8152602001807f4974656d20616c72656164792065786973747320696e2073657400000000000081525060200191505060405180910390fd5b60006106448560405160200180828152602001807f2e636f756e74000000000000000000000000000000000000000000000000000081525060060191505060405160208183030381529060405280519060200120610e0b565b90506106a6858260405160200180838152602001807f2e6974656d00000000000000000000000000000000000000000000000000000081525060050182815260200192505050604051602081830303815290604052805190602001208561102d565b610722858560405160200180838152602001807f2e696e64657800000000000000000000000000000000000000000000000000008152506006018273ffffffffffffffffffffffffffffffffffffffff1660601b81526014019250505060405160208183030381529060405280519060200120600183016110dc565b61077d8560405160200180828152602001807f2e636f756e74000000000000000000000000000000000000000000000000000081525060060191505060405160208183030381529060405280519060200120600183016110dc565b5050505050565b60006107dd8260405160200180828152602001807f2e636f756e74000000000000000000000000000000000000000000000000000081525060060191505060405160208183030381529060405280519060200120610e0b565b9050919050565b6000610845838360405160200180838152602001807f2e6974656d0000000000000000000000000000000000000000000000000000008152506005018281526020019250505060405160208183030381529060405280519060200120610ec1565b905092915050565b6040518060400160405280601181526020017f6164647265737353657453746f72616765000000000000000000000000000000815250306109268260405160200180807f636f6e74726163742e616464726573730000000000000000000000000000000081525060100182805190602001908083835b602083106108e657805182526020820191506020810190506020830392506108c3565b6001836020036101000a03801982511681845116808217855250505050505090500191505060405160208183030381529060405280519060200120610ec1565b73ffffffffffffffffffffffffffffffffffffffff168173ffffffffffffffffffffffffffffffffffffffff16146109c6576040517f08c379a000000000000000000000000000000000000000000000000000000000815260040180806020018281038252601c8152602001807f496e76616c6964206f72206f7574646174656420636f6e74726163740000000081525060200191505060405180910390fd5b610a363360405160200180807f636f6e74726163742e6578697374730000000000000000000000000000000000815250600f018273ffffffffffffffffffffffffffffffffffffffff1660601b815260140191505060405160208183030381529060405280519060200120610f77565b610a8b576040517f08c379a00000000000000000000000000000000000000000000000000000000081526004018080602001828103825260248152602001806111766024913960400191505060405180910390fd5b6000610b05858560405160200180838152602001807f2e696e64657800000000000000000000000000000000000000000000000000008152506006018273ffffffffffffffffffffffffffffffffffffffff1660601b81526014019250505060405160208183030381529060405280519060200120610e0b565b90506000818060019003925011610b84576040517f08c379a000000000000000000000000000000000000000000000000000000000815260040180806020018281038252601a8152602001807f4974656d20646f6573206e6f7420657869737420696e2073657400000000000081525060200191505060405180910390fd5b6000610bdd8660405160200180828152602001807f2e636f756e74000000000000000000000000000000000000000000000000000081525060060191505060405160208183030381529060405280519060200120610e0b565b905060018103821015610d2e576000610c4e876001840360405160200180838152602001807f2e6974656d0000000000000000000000000000000000000000000000000000008152506005018281526020019250505060405160208183030381529060405280519060200120610ec1565b9050610cb0878460405160200180838152602001807f2e6974656d00000000000000000000000000000000000000000000000000000081525060050182815260200192505050604051602081830303815290604052805190602001208261102d565b610d2c878260405160200180838152602001807f2e696e64657800000000000000000000000000000000000000000000000000008152506006018273ffffffffffffffffffffffffffffffffffffffff1660601b81526014019250505060405160208183030381529060405280519060200120600185016110dc565b505b610da8868660405160200180838152602001807f2e696e64657800000000000000000000000000000000000000000000000000008152506006018273ffffffffffffffffffffffffffffffffffffffff1660601b8152601401925050506040516020818303038152906040528051906020012060006110dc565b610e038660405160200180828152602001807f2e636f756e74000000000000000000000000000000000000000000000000000081525060060191505060405160208183030381529060405280519060200120600183036110dc565b505050505050565b60008060019054906101000a900473ffffffffffffffffffffffffffffffffffffffff1673ffffffffffffffffffffffffffffffffffffffff1663bd02d0f5836040518263ffffffff1660e01b81526004018082815260200191505060206040518083038186803b158015610e7f57600080fd5b505afa158015610e93573d6000803e3d6000fd5b505050506040513d6020811015610ea957600080fd5b81019080805190602001909291905050509050919050565b60008060019054906101000a900473ffffffffffffffffffffffffffffffffffffffff1673ffffffffffffffffffffffffffffffffffffffff166321f8a721836040518263ffffffff1660e01b81526004018082815260200191505060206040518083038186803b158015610f3557600080fd5b505afa158015610f49573d6000803e3d6000fd5b505050506040513d6020811015610f5f57600080fd5b81019080805190602001909291905050509050919050565b60008060019054906101000a900473ffffffffffffffffffffffffffffffffffffffff1673ffffffffffffffffffffffffffffffffffffffff16637ae1cfca836040518263ffffffff1660e01b81526004018082815260200191505060206040518083038186803b158015610feb57600080fd5b505afa158015610fff573d6000803e3d6000fd5b505050506040513d602081101561101557600080fd5b81019080805190602001909291905050509050919050565b600060019054906101000a900473ffffffffffffffffffffffffffffffffffffffff1673ffffffffffffffffffffffffffffffffffffffff1663ca446dd983836040518363ffffffff1660e01b8152600401808381526020018273ffffffffffffffffffffffffffffffffffffffff16815260200192505050600060405180830381600087803b1580156110c057600080fd5b505af11580156110d4573d6000803e3d6000fd5b505050505050565b600060019054906101000a900473ffffffffffffffffffffffffffffffffffffffff1673ffffffffffffffffffffffffffffffffffffffff1663e2a4853a83836040518363ffffffff1660e01b81526004018083815260200182815260200192505050600060405180830381600087803b15801561115957600080fd5b505af115801561116d573d6000803e3d6000fd5b50505050505056fe496e76616c6964206f72206f75746461746564206e6574776f726b20636f6e7472616374a2646970667358221220b84b766eb9722adf77f1e45e521d180772274851f3357ba028ab2ee78f77309864736f6c634300060c0033"}}