{"compiler":"v0.5.16+commit.9c3226ce","opcodeHash":"0x5b5929f48aa634ef09b8972e350b26c72e3281c1af0974a2d8533aec916fca8a","metalessHash":"0x2be2c461565d2df0366a4acce42dfb8b8de577b5509bef1de15dbeaf0c541756","runtimeHash":"0x7f8eeaa6442db4f05efec090f4bb47ee324a8dcb2e0f2dfca43c72fc8a295bf1","encodedMetadata":[{"bzzr1":"/swarm/bzzr1/64fe657ba9da54c75c556f209743fa36051fc916ad98a128c3f30555086f1f8a","solc":"0.5.16"}],"abi":[{"inputs":[{"internalType":"address payable","name":"projectAddr","type":"address"}],"payable":false,"stateMutability":"nonpayable","type":"constructor"},{"anonymous":false,"inputs":[{"indexed":true,"internalType":"address","name":"previousOwner","type":"address"},{"indexed":true,"internalType":"address","name":"newOwner","type":"address"}],"name":"OwnershipTransferred","type":"event"},{"anonymous":false,"inputs":[{"indexed":false,"internalType":"uint256","name":"reward","type":"uint256"}],"name":"RewardAdded","type":"event"},{"anonymous":false,"inputs":[{"indexed":true,"internalType":"address","name":"user","type":"address"},{"indexed":false,"internalType":"uint256","name":"reward","type":"uint256"}],"name":"RewardPaid","type":"event"},{"anonymous":false,"inputs":[{"indexed":false,"internalType":"bool","name":"_open","type":"bool"}],"name":"SetOpen","type":"event"},{"anonymous":false,"inputs":[{"indexed":true,"internalType":"address","name":"user","type":"address"},{"indexed":false,"internalType":"uint256","name":"amount","type":"uint256"}],"name":"Staked","type":"event"},{"anonymous":false,"inputs":[{"indexed":true,"internalType":"address","name":"user","type":"address"},{"indexed":false,"internalType":"uint256","name":"amount","type":"uint256"}],"name":"Withdrawn","type":"event"},{"constant":true,"inputs":[],"name":"DURATION","outputs":[{"internalType":"uint256","name":"","type":"uint256"}],"payable":false,"stateMutability":"view","type":"function"},{"constant":true,"inputs":[],"name":"RewardDuration","outputs":[{"internalType":"uint256","name":"","type":"uint256"}],"payable":false,"stateMutability":"view","type":"function"},{"constant":true,"inputs":[{"internalType":"address","name":"account","type":"address"}],"name":"balanceOf","outputs":[{"internalType":"uint256","name":"","type":"uint256"}],"payable":false,"stateMutability":"view","type":"function"},{"constant":true,"inputs":[{"internalType":"uint256","name":"","type":"uint256"}],"name":"burnPool","outputs":[{"internalType":"uint256","name":"","type":"uint256"}],"payable":false,"stateMutability":"view","type":"function"},{"constant":true,"inputs":[],"name":"checkStartReturn","outputs":[{"internalType":"bool","name":"","type":"bool"}],"payable":false,"stateMutability":"view","type":"function"},{"constant":true,"inputs":[],"name":"defi","outputs":[{"internalType":"contract IERC20","name":"","type":"address"}],"payable":false,"stateMutability":"view","type":"function"},{"constant":true,"inputs":[{"internalType":"address","name":"account","type":"address"}],"name":"earned","outputs":[{"internalType":"uint256","name":"","type":"uint256"}],"payable":false,"stateMutability":"view","type":"function"},{"constant":true,"inputs":[{"internalType":"uint256","name":"index","type":"uint256"}],"name":"getBurnPoolReward","outputs":[{"internalType":"uint256","name":"","type":"uint256"}],"payable":false,"stateMutability":"view","type":"function"},{"constant":true,"inputs":[{"internalType":"address","name":"account","type":"address"}],"name":"getBurnReward","outputs":[{"internalType":"uint256","name":"","type":"uint256"}],"payable":false,"stateMutability":"view","type":"function"},{"constant":true,"inputs":[],"name":"getPeriodFinish","outputs":[{"internalType":"uint256","name":"","type":"uint256"}],"payable":false,"stateMutability":"view","type":"function"},{"constant":false,"inputs":[],"name":"getReward","outputs":[],"payable":false,"stateMutability":"nonpayable","type":"function"},{"constant":true,"inputs":[{"internalType":"uint256","name":"beginTime","type":"uint256"}],"name":"getRound","outputs":[{"internalType":"uint256","name":"","type":"uint256"}],"payable":false,"stateMutability":"view","type":"function"},{"constant":true,"inputs":[{"internalType":"uint256","name":"stakeTime","type":"uint256"}],"name":"getTaxRate","outputs":[{"internalType":"uint256","name":"","type":"uint256"}],"payable":false,"stateMutability":"view","type":"function"},{"constant":true,"inputs":[],"name":"getTotalBurnPoolReward","outputs":[{"internalType":"uint256","name":"","type":"uint256"}],"payable":false,"stateMutability":"view","type":"function"},{"constant":true,"inputs":[{"internalType":"address","name":"adrr","type":"address"},{"internalType":"uint256","name":"index","type":"uint256"}],"name":"getUser","outputs":[{"internalType":"uint256","name":"","type":"uint256"},{"internalType":"uint256","name":"","type":"uint256"},{"internalType":"uint256","name":"","type":"uint256"},{"internalType":"uint256","name":"","type":"uint256"}],"payable":false,"stateMutability":"view","type":"function"},{"constant":true,"inputs":[],"name":"isOpen","outputs":[{"internalType":"bool","name":"","type":"bool"}],"payable":false,"stateMutability":"view","type":"function"},{"constant":true,"inputs":[],"name":"isOwner","outputs":[{"internalType":"bool","name":"","type":"bool"}],"payable":false,"stateMutability":"view","type":"function"},{"constant":true,"inputs":[],"name":"lastTimeRewardApplicable","outputs":[{"internalType":"uint256","name":"","type":"uint256"}],"payable":false,"stateMutability":"view","type":"function"},{"constant":true,"inputs":[],"name":"lastUpdateTime","outputs":[{"internalType":"uint256","name":"","type":"uint256"}],"payable":false,"stateMutability":"view","type":"function"},{"constant":false,"inputs":[{"internalType":"uint256","name":"reward","type":"uint256"}],"name":"notifyRewardAmount","outputs":[],"payable":false,"stateMutability":"nonpayable","type":"function"},{"constant":true,"inputs":[],"name":"owner","outputs":[{"internalType":"address","name":"","type":"address"}],"payable":false,"stateMutability":"view","type":"function"},{"constant":true,"inputs":[],"name":"periodFinish","outputs":[{"internalType":"uint256","name":"","type":"uint256"}],"payable":false,"stateMutability":"view","type":"function"},{"constant":true,"inputs":[],"name":"projectAddress","outputs":[{"internalType":"address payable","name":"","type":"address"}],"payable":false,"stateMutability":"view","type":"function"},{"constant":false,"inputs":[],"name":"renounceOwnership","outputs":[],"payable":false,"stateMutability":"nonpayable","type":"function"},{"constant":true,"inputs":[],"name":"rewardPerToken","outputs":[{"internalType":"uint256","name":"","type":"uint256"}],"payable":false,"stateMutability":"view","type":"function"},{"constant":true,"inputs":[],"name":"rewardPerTokenStored","outputs":[{"internalType":"uint256","name":"","type":"uint256"}],"payable":false,"stateMutability":"view","type":"function"},{"constant":true,"inputs":[],"name":"rewardRate","outputs":[{"internalType":"uint256","name":"","type":"uint256"}],"payable":false,"stateMutability":"view","type":"function"},{"constant":true,"inputs":[{"internalType":"address","name":"","type":"address"}],"name":"rewards","outputs":[{"internalType":"uint256","name":"","type":"uint256"}],"payable":false,"stateMutability":"view","type":"function"},{"constant":false,"inputs":[{"internalType":"bool","name":"_open","type":"bool"}],"name":"setOpen","outputs":[],"payable":false,"stateMutability":"nonpayable","type":"function"},{"constant":false,"inputs":[{"internalType":"address","name":"_rewardDistribution","type":"address"}],"name":"setRewardDistribution","outputs":[],"payable":false,"stateMutability":"nonpayable","type":"function"},{"constant":false,"inputs":[{"internalType":"uint256","name":"amount","type":"uint256"}],"name":"stake","outputs":[],"payable":false,"stateMutability":"nonpayable","type":"function"},{"constant":true,"inputs":[{"internalType":"uint256","name":"","type":"uint256"}],"name":"stakePool","outputs":[{"internalType":"uint256","name":"","type":"uint256"}],"payable":false,"stateMutability":"view","type":"function"},{"constant":true,"inputs":[],"name":"stakeToken","outputs":[{"internalType":"contract IERC20","name":"","type":"address"}],"payable":false,"stateMutability":"view","type":"function"},{"constant":true,"inputs":[],"name":"startTime","outputs":[{"internalType":"uint256","name":"","type":"uint256"}],"payable":false,"stateMutability":"view","type":"function"},{"constant":true,"inputs":[{"internalType":"address","name":"account","type":"address"}],"name":"tax","outputs":[{"internalType":"uint256","name":"","type":"uint256"}],"payable":false,"stateMutability":"view","type":"function"},{"constant":true,"inputs":[],"name":"totalBurnReward","outputs":[{"internalType":"uint256","name":"","type":"uint256"}],"payable":false,"stateMutability":"view","type":"function"},{"constant":true,"inputs":[],"name":"totalSupply","outputs":[{"internalType":"uint256","name":"","type":"uint256"}],"payable":false,"stateMutability":"view","type":"function"},{"constant":false,"inputs":[{"internalType":"address","name":"newOwner","type":"address"}],"name":"transferOwnership","outputs":[],"payable":false,"stateMutability":"nonpayable","type":"function"},{"constant":true,"inputs":[{"internalType":"address","name":"","type":"address"}],"name":"userRewardPerTokenPaid","outputs":[{"internalType":"uint256","name":"","type":"uint256"}],"payable":false,"stateMutability":"view","type":"function"},{"constant":false,"inputs":[{"internalType":"uint256","name":"amount","type":"uint256"}],"name":"withdraw","outputs":[],"payable":false,"stateMutability":"nonpayable","type":"function"}],"bytecode":{"object":"600080546001600160a01b03199081167385ccca6b1010ed71c9f652042cc3db61cedabd681782556005805490911673705befa72495cd32a801fad8020befd3428c55ff17905560078190556008819055600a819055600b556001608081815260c06040529060a0602080388339505081516200008492600c92506020019062000183565b50604080516001808252818301909252906020808301908038833950508151620000b692600d92506020019062000183565b50600e805460ff19166001179055348015620000d157600080fd5b5060405162002ac038038062002ac083398181016040526020811015620000f757600080fd5b50516200010c6001600160e01b036200017e16565b600380546001600160a01b0319166001600160a01b0392831617908190556040519116906000907f8be0079c531659141344cd1fd0a4f28419497f9722a3daafe3b4186f6b6457e0908290a3600680546001600160a01b0319166001600160a01b0392909216919091179055620001f0565b335b90565b828054828255906000526020600020908101928215620001c1579160200282015b82811115620001c1578251825591602001919060010190620001a4565b50620001cf929150620001d3565b5090565b6200018091905b80821115620001cf5760008155600101620001da565b6128c080620002006000396000f3fe608060405234801561001057600080fd5b50600436106102475760003560e01c806378e979251161013b578063b4815658116100b8578063d2812ca91161007c578063d2812ca914610539578063df136d6514610541578063ebe2b12b14610549578063f2fde38b14610551578063ff2bf64f1461057757610247565b8063b4815658146104f3578063bf29c4c414610519578063c8f33c9114610521578063cb17d14f14610529578063cd3daf9d1461053157610247565b80638e90f968116100ff5780638e90f968146104775780638f1327c0146104945780638f32d59b146104b1578063a4636290146104b9578063a694fc3a146104d657610247565b806378e97925146104315780637b0a47ee1461043957806380faa57d146104415780638b876347146104495780638da5cb5b1461046f57610247565b80633d18b912116101c95780636fdca5e01161018d5780636fdca5e0146103a157806370a08231146103c0578063715018a6146103e6578063757b0edc146103ee5780637899d80f1461040b57610247565b80633d18b91214610350578063416123af1461035857806347535d7b1461037457806351ed6a301461037c578063675585201461038457610247565b80631be05289116102105780631be05289146102e25780632e1a7d4d146102ea57806338c0f073146103075780633c6b16ab1461032b5780633cf96af11461034857610247565b80628cc2621461024c5780630700037d146102845780630c1e4663146102aa5780630d68b761146102b257806318160ddd146102da575b600080fd5b6102726004803603602081101561026257600080fd5b50356001600160a01b03166105c9565b60408051918252519081900360200190f35b6102726004803603602081101561029a57600080fd5b50356001600160a01b0316610651565b610272610663565b6102d8600480360360208110156102c857600080fd5b50356001600160a01b03166106ad565b005b610272610716565b61027261071c565b6102d86004803603602081101561030057600080fd5b5035610723565b61030f610a47565b604080516001600160a01b039092168252519081900360200190f35b6102d86004803603602081101561034157600080fd5b5035610a56565b61030f610d1b565b6102d8610d2a565b610360611140565b604080519115158252519081900360200190f35b61036061115c565b61030f611165565b6102726004803603602081101561039a57600080fd5b5035611174565b6102d8600480360360208110156103b757600080fd5b5035151561119b565b610272600480360360208110156103d657600080fd5b50356001600160a01b0316611229565b6102d8611244565b6102726004803603602081101561040457600080fd5b50356112d5565b6102726004803603602081101561042157600080fd5b50356001600160a01b0316611308565b6102726114c4565b6102726114cc565b6102726114d2565b6102726004803603602081101561045f57600080fd5b50356001600160a01b03166114e5565b61030f6114f7565b6102726004803603602081101561048d57600080fd5b5035611506565b610272600480360360208110156104aa57600080fd5b5035611524565b61036061154c565b610272600480360360208110156104cf57600080fd5b5035611572565b6102d8600480360360208110156104ec57600080fd5b503561157f565b6102726004803603602081101561050957600080fd5b50356001600160a01b03166117b9565b610272611b56565b610272611b5c565b610272611b62565b610272611b68565b610272611bbc565b610272611bc3565b610272611bc9565b6102d86004803603602081101561056757600080fd5b50356001600160a01b0316611bcf565b6105a36004803603604081101561058d57600080fd5b506001600160a01b038135169060200135611c22565b604080519485526020850193909352838301919091526060830152519081900360800190f35b6001600160a01b038116600090815260106020908152604080832054600f909252822054610649919061063d90670de0b6b3a7640000906106319061061c90610610611b68565b9063ffffffff611d2f16565b61062588611229565b9063ffffffff611d7a16565b9063ffffffff611dd316565b9063ffffffff611e1516565b90505b919050565b60106020526000908152604090205481565b600080805b600d548110156106a65761069c600d828154811061068257fe5b906000526020600020015483611e1590919063ffffffff16565b9150600101610668565b5090505b90565b6106b561154c565b6106f4576040805162461bcd60e51b81526020600482018190526024820152600080516020612821833981519152604482015290519081900360640190fd5b600480546001600160a01b0319166001600160a01b0392909216919091179055565b60015490565b62093a8081565b635feb28504211610767576040805162461bcd60e51b8152602060048201526009602482015268139bdd081cdd185c9d60ba1b604482015290519081900360640190fd5b33610770611b68565b600a5561077b6114d2565b6009556001600160a01b038116156107c257610796816105c9565b6001600160a01b038216600090815260106020908152604080832093909355600a54600f909152919020555b6000821161080b576040805162461bcd60e51b8152602060048201526011602482015270043616e6e6f74207769746864726177203607c1b604482015290519081900360640190fd5b610813610d2a565b61081c82611e6f565b8160005b33600090815260116020526040902054811015610a0b5733600090815260116020526040812080548390811061085257fe5b600091825260208083206004909202909101543383526011909152604082208054919350908490811061088157fe5b906000526020600020906004020160030154905083600014156108a5575050610a0b565b8382106109685733600090815260116020526040902080546108ea918691869081106108cd57fe5b60009182526020909120600490910201549063ffffffff611d2f16565b33600090815260116020526040902080548590811061090557fe5b90600052602060002090600402016000018190555061094484600c838154811061092b57fe5b9060005260206000200154611d2f90919063ffffffff16565b600c828154811061095157fe5b906000526020600020018190555060009350610a01565b33600090815260116020526040902080546109a791908590811061098857fe5b906000526020600020906004020160000154600c838154811061092b57fe5b600c82815481106109b457fe5b60009182526020808320909101929092553381526011909152604081208054859081106109dd57fe5b60009182526020909120600490910201556109fe848363ffffffff611d2f16565b93505b5050600101610820565b5060408051848152905133917f7084f5476618d8e60b11ef0d7d3f06914655adb8793e28ff7f018d4c76d505d5919081900360200190a2505050565b6005546001600160a01b031681565b6004546001600160a01b0316610a6a611ed0565b6001600160a01b031614610aaf5760405162461bcd60e51b81526004018080602001828103825260218152602001806128416021913960400191505060405180910390fd5b600e5460ff16610af7576040805162461bcd60e51b815260206004820152600e60248201526d141bdbdb081a5cc818db1bdcd95960921b604482015290519081900360640190fd5b6000610b01611b68565b600a55610b0c6114d2565b6009556001600160a01b03811615610b5357610b27816105c9565b6001600160a01b038216600090815260106020908152604080832093909355600a54600f909152919020555b635feb2850421115610c36576007544210610be2576000610b8a600161063d62093a8061063142635feb285063ffffffff611d2f16565b9050610bb3610ba28262093a8063ffffffff611d7a16565b635feb28509063ffffffff611e1516565b6007819055610bd990610bcc904263ffffffff611d2f16565b849063ffffffff611dd316565b60085550610c2d565b600754600090610bf8904263ffffffff611d2f16565b90506000610c1160085483611d7a90919063ffffffff16565b9050610c2782610631868463ffffffff611e1516565b60085550505b42600955610c6f565b610c498262093a8063ffffffff611dd316565b600855610c63635feb285062093a8063ffffffff611e1516565b600755635feb28506009555b600554604080516340c10f1960e01b81523060048201526024810185905290516001600160a01b03909216916340c10f199160448082019260009290919082900301818387803b158015610cc257600080fd5b505af1158015610cd6573d6000803e3d6000fd5b50506040805185815290517fde88a922e0d3b88b24e9623efeb464919c6bf9f66857a65e2bfcf2ce87a9433d9350908190036020019150a1610d16611ed4565b505050565b6006546001600160a01b031681565b635feb28504211610d6e576040805162461bcd60e51b8152602060048201526009602482015268139bdd081cdd185c9d60ba1b604482015290519081900360640190fd5b33610d77611b68565b600a55610d826114d2565b6009556001600160a01b03811615610dc957610d9d816105c9565b6001600160a01b038216600090815260106020908152604080832093909355600a54600f909152919020555b6000610dd4336105c9565b9050801561113c5733600081815260106020526040812081905590610df890611308565b90506000610e0533611efa565b90506000610e16635feb2850611524565b9050610e23600d826122c3565b610e3e600c610e3983600163ffffffff611e1516565b6122c3565b600b54610e51908463ffffffff611e1516565b600b81905550610e8183600d8381548110610e6857fe5b9060005260206000200154611e1590919063ffffffff16565b600d8281548110610e8e57fe5b600091825260209091200155600654610ed4906001600160a01b0316610ebb86600a63ffffffff611dd316565b6005546001600160a01b0316919063ffffffff6122e616565b610ef633610ebb8461063d87610610600a6106318c600963ffffffff611d7a16565b6000610f006114d2565b905060005b3360009081526011602052604090205481101561110057336000908152601160205260409020805482908110610f3757fe5b9060005260206000209060040201600001546000146110f857336000908152601160205260408120805483908110610f6b57fe5b9060005260206000209060040201600301549050610fb560116000336001600160a01b03166001600160a01b03168152602001908152602001600020600001838154811061098857fe5b600c8281548110610fc257fe5b6000918252602080832090910192909255338152601190915260409020805484919084908110610fee57fe5b6000918252602080832060016004909302019190910192909255338152600f82526040808220546011909352902080548490811061102857fe5b600091825260209091206002600490920201015561104d84600163ffffffff611e1516565b33600090815260116020526040902080548490811061106857fe5b600091825260208083206003600490930201919091019290925533815260119091526040902080546110cd91908490811061109f57fe5b6000918252602090912060049091020154600c6110c387600163ffffffff611e1516565b81548110610e6857fe5b600c6110e086600163ffffffff611e1516565b815481106110ea57fe5b600091825260209091200155505b600101610f05565b5060408051868152905133917fe2403640ba68fed3a2f88b7557551d1993f84b99bb10ff833f0cf8db0c5e0486919081900360200190a2505050505b5050565b6000635feb2850421115611156575060016106aa565b50600090565b600e5460ff1690565b6000546001600160a01b031681565b6000806111946002610631620151806106316064610625896106106114d2565b9392505050565b6111a361154c565b6111e2576040805162461bcd60e51b81526020600482018190526024820152600080516020612821833981519152604482015290519081900360640190fd5b600e805482151560ff19909116811790915560408051918252517f294847065aeb5e8e788661acfc7dbcb26c7f0454406268fce96109d7136928af9181900360200190a150565b6001600160a01b031660009081526002602052604090205490565b61124c61154c565b61128b576040805162461bcd60e51b81526020600482018190526024820152600080516020612821833981519152604482015290519081900360640190fd5b6003546040516000916001600160a01b0316907f8be0079c531659141344cd1fd0a4f28419497f9722a3daafe3b4186f6b6457e0908390a3600380546001600160a01b0319169055565b600d5460009082106112e95750600061064c565b600d82815481106112f657fe5b90600052602060002001549050919050565b60008080611314611b68565b905060005b6001600160a01b03851660009081526011602052604090205481101561149e576001600160a01b038516600090815260116020526040902080548290811061135d57fe5b906000526020600020906004020160000154600014611496576001600160a01b038516600090815260116020526040812080546113b691908490811061139f57fe5b906000526020600020906004020160010154611174565b90506064811015611494576113d260648263ffffffff611d2f16565b6001600160a01b03871660009081526011602052604081208054929350909161142191908590811061140057fe5b90600052602060002090600402016002015485611d2f90919063ffffffff16565b6001600160a01b0388166000908152601160205260408120805492935090918590811061144a57fe5b6000918252602090912060049091020154905061148f611482846106256064610631601283600a836009838c8e63ffffffff611d7a16565b879063ffffffff611e1516565b955050505b505b600101611319565b506114bc606461063184670de0b6b3a764000063ffffffff611dd316565b949350505050565b635feb285081565b60085481565b60006114e042600754612338565b905090565b600f6020526000908152604090205481565b6003546001600160a01b031690565b600c818154811061151357fe5b600091825260209091200154905081565b60008142116115355750600061064c565b61064962015180610631428563ffffffff611d2f16565b6003546000906001600160a01b0316611563611ed0565b6001600160a01b031614905090565b600d818154811061151357fe5b600e5460ff166115c7576040805162461bcd60e51b815260206004820152600e60248201526d141bdbdb081a5cc818db1bdcd95960921b604482015290519081900360640190fd5b635feb2850421161160b576040805162461bcd60e51b8152602060048201526009602482015268139bdd081cdd185c9d60ba1b604482015290519081900360640190fd5b33611614611b68565b600a5561161f6114d2565b6009556001600160a01b038116156116665761163a816105c9565b6001600160a01b038216600090815260106020908152604080832093909355600a54600f909152919020555b600082116116ac576040805162461bcd60e51b815260206004820152600e60248201526d043616e6e6f74207374616b6520360941b604482015290519081900360640190fd5b6116b58261234e565b60006116c4635feb2850611524565b90506116d1600c826122c3565b6116dc600d826122c3565b6116ed83600c8381548110610e6857fe5b600c82815481106116fa57fe5b906000526020600020018190555060006117126114d2565b33600081815260116020908152604080832081516080810183528a8152808401878152600a54828501908152606083018b8152845460018181018755958952978790209351600490980290930196875590519286019290925590516002850155516003909301929092558151888152915193945091927f9e71bc8eea02a63969f509818f2dafb9254532904319f9dbda79b67bd34a5f3d929181900390910190a250505050565b6000806117c9635feb2850611524565b905060028110806117f057506001600160a01b038316600090815260116020526040902054155b806117fd5750600d546002115b1561180c57600091505061064c565b60008090506060600d80548060200260200160405190810160405280929190818152602001828054801561185f57602002820191906000526020600020905b81548152602001906001019080831161184b575b50939450600093505050505b6001600160a01b038616600090815260116020526040902054811015611b4c576001600160a01b03861660009081526011602052604090208054829081106118af57fe5b906000526020600020906004020160000154600014611b44576001600160a01b03861660009081526011602052604090208054829081106118ec57fe5b906000526020600020906004020160030154600014156119c8576000805b60028110156119435761193984828151811061192257fe5b602002602001015183611e1590919063ffffffff16565b915060010161190a565b506119c46119b7600c60008154811061195857fe5b9060005260206000200154610631601160008c6001600160a01b03166001600160a01b03168152602001908152602001600020600001868154811061199957fe5b6000918252602090912060049091020154859063ffffffff611d7a16565b859063ffffffff611e1516565b9350505b6001600160a01b03861660009081526011602052604081208054839081106119ec57fe5b906000526020600020906004020160030154600014611a40576001600160a01b0387166000908152601160205260409020805483908110611a2957fe5b906000526020600020906004020160030154611a43565b60015b9050611a5681600263ffffffff611e1516565b8510611b42576000805b82811015611a8257611a78600c828154811061068257fe5b9150600101611a60565b50815b6002855103811015611b3f57611aa1600c828154811061068257fe5b91506000611b2283610631601160008e6001600160a01b03166001600160a01b031681526020019081526020016000206000018881548110611adf57fe5b600091825260209091206004909102015489611b0287600163ffffffff611e1516565b81518110611b0c57fe5b6020026020010151611d7a90919063ffffffff16565b9050611b34878263ffffffff611e1516565b965050600101611a85565b50505b505b60010161186b565b5090949350505050565b600b5481565b60095481565b60075490565b6000611b72610716565b611b7f5750600a546106aa565b6114e0611bad611b8d610716565b610631670de0b6b3a76400006106256008546106256009546106106114d2565b600a549063ffffffff611e1516565b6201518081565b600a5481565b60075481565b611bd761154c565b611c16576040805162461bcd60e51b81526020600482018190526024820152600080516020612821833981519152604482015290519081900360640190fd5b611c1f816123b0565b50565b6001600160a01b038216600090815260116020526040812080548291829182919086908110611c4d57fe5b600091825260208083206004909202909101546001600160a01b038916835260119091526040909120805487908110611c8257fe5b90600052602060002090600402016001015460116000896001600160a01b03166001600160a01b031681526020019081526020016000206000018781548110611cc757fe5b906000526020600020906004020160020154601160008a6001600160a01b03166001600160a01b031681526020019081526020016000206000018881548110611d0c57fe5b906000526020600020906004020160030154935093509350935092959194509250565b6000611d7183836040518060400160405280601e81526020017f536166654d6174683a207375627472616374696f6e206f766572666c6f770000815250612451565b90505b92915050565b600082611d8957506000611d74565b82820282848281611d9657fe5b0414611d715760405162461bcd60e51b81526004018080602001828103825260218152602001806128006021913960400191505060405180910390fd5b6000611d7183836040518060400160405280601a81526020017f536166654d6174683a206469766973696f6e206279207a65726f0000000000008152506124e8565b600082820183811015611d71576040805162461bcd60e51b815260206004820152601b60248201527f536166654d6174683a206164646974696f6e206f766572666c6f770000000000604482015290519081900360640190fd5b600154611e82908263ffffffff611d2f16565b60015533600090815260026020526040902054611ea5908263ffffffff611d2f16565b336000818152600260205260408120929092559054611c1f916001600160a01b0390911690836122e6565b3390565b60006114e0670de0b6b3a764000061062560085462093a80611d7a90919063ffffffff16565b600080611f0a635feb2850611524565b90506002811080611f3157506001600160a01b038316600090815260116020526040902054155b80611f3e5750600d546002115b15611f4d57600091505061064c565b60008090506060600d805480602002602001604051908101604052809291908181526020018280548015611fa057602002820191906000526020600020905b815481526020019060010190808311611f8c575b50939450600093505050505b6001600160a01b038616600090815260116020526040902054811015611b4c576001600160a01b0386166000908152601160205260409020805482908110611ff057fe5b9060005260206000209060040201600001546000146122bb576001600160a01b038616600090815260116020526040902080548290811061202d57fe5b90600052602060002090600402016003015460001415612142576000805b600281101561206d5761206384828151811061192257fe5b915060010161204b565b506120826119b7600c60008154811061195857fe5b93508360005b600281101561213e578161209b5761213e565b81600d82815481106120a957fe5b9060005260206000200154106120ee576120ca82600d838154811061092b57fe5b600d82815481106120d757fe5b906000526020600020018190555060009150612136565b612118600d82815481106120fe57fe5b906000526020600020015483611d2f90919063ffffffff16565b91506000600d828154811061212957fe5b6000918252602090912001555b600101612088565b5050505b6001600160a01b038616600090815260116020526040812080548390811061216657fe5b9060005260206000209060040201600301546000146121ba576001600160a01b03871660009081526011602052604090208054839081106121a357fe5b9060005260206000209060040201600301546121bd565b60015b90506121d081600263ffffffff611e1516565b85106122b9576000805b828110156121fc576121f2600c828154811061068257fe5b91506001016121da565b50815b60028551038110156122b65761221b600c828154811061068257fe5b9150600061225983610631601160008e6001600160a01b03166001600160a01b031681526020019081526020016000206000018881548110611adf57fe5b905061226b878263ffffffff611e1516565b965061228481600d6110c385600163ffffffff611e1516565b600d61229784600163ffffffff611e1516565b815481106122a157fe5b600091825260209091200155506001016121ff565b50505b505b600101611fac565b8154811061113c576122dc81600163ffffffff611e1516565b610d16838261279c565b604080516001600160a01b038416602482015260448082018490528251808303909101815260649091019091526020810180516001600160e01b031663a9059cbb60e01b179052610d1690849061254d565b60008183106123475781611d71565b5090919050565b600154612361908263ffffffff611e1516565b60015533600090815260026020526040902054612384908263ffffffff611e1516565b336000818152600260205260408120929092559054611c1f916001600160a01b0390911690308461270b565b6001600160a01b0381166123f55760405162461bcd60e51b81526004018080602001828103825260268152602001806127da6026913960400191505060405180910390fd5b6003546040516001600160a01b038084169216907f8be0079c531659141344cd1fd0a4f28419497f9722a3daafe3b4186f6b6457e090600090a3600380546001600160a01b0319166001600160a01b0392909216919091179055565b600081848411156124e05760405162461bcd60e51b81526004018080602001828103825283818151815260200191508051906020019080838360005b838110156124a557818101518382015260200161248d565b50505050905090810190601f1680156124d25780820380516001836020036101000a031916815260200191505b509250505060405180910390fd5b505050900390565b600081836125375760405162461bcd60e51b81526020600482018181528351602484015283519092839260449091019190850190808383600083156124a557818101518382015260200161248d565b50600083858161254357fe5b0495945050505050565b61255f826001600160a01b0316612765565b6125b0576040805162461bcd60e51b815260206004820152601f60248201527f5361666545524332303a2063616c6c20746f206e6f6e2d636f6e747261637400604482015290519081900360640190fd5b60006060836001600160a01b0316836040518082805190602001908083835b602083106125ee5780518252601f1990920191602091820191016125cf565b6001836020036101000a0380198251168184511680821785525050505050509050019150506000604051808303816000865af19150503d8060008114612650576040519150601f19603f3d011682016040523d82523d6000602084013e612655565b606091505b5091509150816126ac576040805162461bcd60e51b815260206004820181905260248201527f5361666545524332303a206c6f772d6c6576656c2063616c6c206661696c6564604482015290519081900360640190fd5b805115612705578080602001905160208110156126c857600080fd5b50516127055760405162461bcd60e51b815260040180806020018281038252602a815260200180612862602a913960400191505060405180910390fd5b50505050565b604080516001600160a01b0385811660248301528416604482015260648082018490528251808303909101815260849091019091526020810180516001600160e01b03166323b872dd60e01b17905261270590859061254d565b6000813f7fc5d2460186f7233c927e7db2dcc703c0e500b653ca82273b7bfad8045d85a47081158015906114bc5750141592915050565b815481835581811115610d1657600083815260209020610d169181019083016106aa91905b808211156127d557600081556001016127c1565b509056fe4f776e61626c653a206e6577206f776e657220697320746865207a65726f2061646472657373536166654d6174683a206d756c7469706c69636174696f6e206f766572666c6f774f776e61626c653a2063616c6c6572206973206e6f7420746865206f776e657243616c6c6572206973206e6f742072657761726420646973747269627574696f6e5361666545524332303a204552433230206f7065726174696f6e20646964206e6f742073756363656564a265627a7a72315820099ab4206bdd4aced499c0161672d05045c77d26fd19b5e2918c8f65f957ac5264736f6c63430005100032"}}