{
  "opcodeHash": "0x2295f53aaa079b8f42204ebd8fa0e2b8d9d5679007d85961113fd400533e482e",
  "metalessHash": "0x062ec7f19502967e4d7df391131b3a8b512c7ebc5f45d8749f8cb0a3ce9e82a5",
  "runtimeHash": "0x11779e47df61b5572f75aced94597f729c5dd7107dfc849cd4f9daf48654e6b9",
  "encodedMetadata": [
    {
      "bzzr1": "/swarm/bzzr1/4218c4b1c95dd3e6faefdaf555019a8ea6a8260055659224a18de7a07faed9e5",
      "solc": "0.5.17"
    }
  ],
  "abi": [
    {
      "inputs": [
        {
          "internalType": "contract IERC20",
          "name": "_token",
          "type": "address"
        }
      ],
      "payable": false,
      "stateMutability": "nonpayable",
      "type": "constructor"
    },
    {
      "anonymous": false,
      "inputs": [
        {
          "indexed": true,
          "internalType": "address",
          "name": "previousOwner",
          "type": "address"
        }
      ],
      "name": "OwnershipRenounced",
      "type": "event"
    },
    {
      "anonymous": false,
      "inputs": [
        {
          "indexed": true,
          "internalType": "address",
          "name": "previousOwner",
          "type": "address"
        },
        {
          "indexed": true,
          "internalType": "address",
          "name": "newOwner",
          "type": "address"
        }
      ],
      "name": "OwnershipTransferred",
      "type": "event"
    },
    {
      "constant": true,
      "inputs": [],
      "name": "balance",
      "outputs": [
        {
          "internalType": "uint256",
          "name": "",
          "type": "uint256"
        }
      ],
      "payable": false,
      "stateMutability": "view",
      "type": "function"
    },
    {
      "constant": true,
      "inputs": [],
      "name": "isOwner",
      "outputs": [
        {
          "internalType": "bool",
          "name": "",
          "type": "bool"
        }
      ],
      "payable": false,
      "stateMutability": "view",
      "type": "function"
    },
    {
      "constant": true,
      "inputs": [],
      "name": "owner",
      "outputs": [
        {
          "internalType": "address",
          "name": "",
          "type": "address"
        }
      ],
      "payable": false,
      "stateMutability": "view",
      "type": "function"
    },
    {
      "constant": false,
      "inputs": [],
      "name": "renounceOwnership",
      "outputs": [],
      "payable": false,
      "stateMutability": "nonpayable",
      "type": "function"
    },
    {
      "constant": false,
      "inputs": [
        {
          "internalType": "address",
          "name": "tokenToRescue",
          "type": "address"
        },
        {
          "internalType": "address",
          "name": "to",
          "type": "address"
        },
        {
          "internalType": "uint256",
          "name": "amount",
          "type": "uint256"
        }
      ],
      "name": "rescueFunds",
      "outputs": [
        {
          "internalType": "bool",
          "name": "",
          "type": "bool"
        }
      ],
      "payable": false,
      "stateMutability": "nonpayable",
      "type": "function"
    },
    {
      "constant": true,
      "inputs": [],
      "name": "token",
      "outputs": [
        {
          "internalType": "contract IERC20",
          "name": "",
          "type": "address"
        }
      ],
      "payable": false,
      "stateMutability": "view",
      "type": "function"
    },
    {
      "constant": false,
      "inputs": [
        {
          "internalType": "address",
          "name": "to",
          "type": "address"
        },
        {
          "internalType": "uint256",
          "name": "value",
          "type": "uint256"
        }
      ],
      "name": "transfer",
      "outputs": [
        {
          "internalType": "bool",
          "name": "",
          "type": "bool"
        }
      ],
      "payable": false,
      "stateMutability": "nonpayable",
      "type": "function"
    },
    {
      "constant": false,
      "inputs": [
        {
          "internalType": "address",
          "name": "newOwner",
          "type": "address"
        }
      ],
      "name": "transferOwnership",
      "outputs": [],
      "payable": false,
      "stateMutability": "nonpayable",
      "type": "function"
    }
  ],
  "bytecode": {
    "object": "608060405234801561001057600080fd5b506040516105793803806105798339818101604052602081101561003357600080fd5b5051600080546001600160a01b03199081163317909155600180546001600160a01b0390931692909116919091179055610507806100726000396000f3fe608060405234801561001057600080fd5b50600436106100885760003560e01c8063a9059cbb1161005b578063a9059cbb1461010d578063b69ef8a814610139578063f2fde38b14610153578063fc0c546a1461017957610088565b80636ccae0541461008d578063715018a6146100d75780638da5cb5b146100e15780638f32d59b14610105575b600080fd5b6100c3600480360360608110156100a357600080fd5b506001600160a01b03813581169160208101359091169060400135610181565b604080519115158252519081900360200190f35b6100df610275565b005b6100e96102ce565b604080516001600160a01b039092168252519081900360200190f35b6100c36102dd565b6100c36004803603604081101561012357600080fd5b506001600160a01b0381351690602001356102ee565b61014161038a565b60408051918252519081900360200190f35b6100df6004803603602081101561016957600080fd5b50356001600160a01b0316610406565b6100e9610423565b600061018b6102dd565b61019457600080fd5b6001546001600160a01b03858116911614156101e15760405162461bcd60e51b81526004018080602001828103825260328152602001806104a16032913960400191505060405180910390fd5b836001600160a01b031663a9059cbb84846040518363ffffffff1660e01b815260040180836001600160a01b03166001600160a01b0316815260200182815260200192505050602060405180830381600087803b15801561024157600080fd5b505af1158015610255573d6000803e3d6000fd5b505050506040513d602081101561026b57600080fd5b5051949350505050565b61027d6102dd565b61028657600080fd5b600080546040516001600160a01b03909116917ff8df31144d9c2f0f6b59d69b8b98abd5459d07f2742c4df920b25aae33c6482091a2600080546001600160a01b0319169055565b6000546001600160a01b031690565b6000546001600160a01b0316331490565b60006102f86102dd565b61030157600080fd5b6001546040805163a9059cbb60e01b81526001600160a01b038681166004830152602482018690529151919092169163a9059cbb9160448083019260209291908290030181600087803b15801561035757600080fd5b505af115801561036b573d6000803e3d6000fd5b505050506040513d602081101561038157600080fd5b50519392505050565b600154604080516370a0823160e01b815230600482015290516000926001600160a01b0316916370a08231916024808301926020929190829003018186803b1580156103d557600080fd5b505afa1580156103e9573d6000803e3d6000fd5b505050506040513d60208110156103ff57600080fd5b5051905090565b61040e6102dd565b61041757600080fd5b61042081610432565b50565b6001546001600160a01b031681565b6001600160a01b03811661044557600080fd5b600080546040516001600160a01b03808516939216917f8be0079c531659141344cd1fd0a4f28419497f9722a3daafe3b4186f6b6457e091a3600080546001600160a01b0319166001600160a01b039290921691909117905556fe546f6b656e506f6f6c3a2043616e6e6f7420636c61696d20746f6b656e2068656c642062792074686520636f6e7472616374a265627a7a72315820eaf3e840dabee16de2fc6716ae46bac3b0282763365333b8164d6165721f9fc764736f6c63430005110032"
  }
}