{"compiler":"v0.7.4+commit.3f05b770","opcodeHash":"0x3947f7260c25b870f9aef17c3eb5e25721fafcedc31d4f9c0d4a919f094b88cf","metalessHash":"0x0f5cd3519ce5ad2f05cfd11e164baa85a9e9137400d178a23775f55c9db3570f","runtimeHash":"0x0912390d5ea4b68c51d62a2162362ab1be1bd9162cf94be778cbeb8dd78e1db9","encodedMetadata":[{"ipfs":"/ipfs/QmQ7BAewkM68WVQASkHVHXdz3NA7CdKQb63JkHwgdmdMM3","solc":"0.7.4"}],"abi":[{"inputs":[{"internalType":"address","name":"pool_","type":"address"},{"internalType":"address","name":"dest_","type":"address"}],"stateMutability":"nonpayable","type":"constructor"},{"inputs":[],"name":"recover","outputs":[],"stateMutability":"nonpayable","type":"function"},{"inputs":[{"internalType":"bool","name":"on_","type":"bool"}],"name":"set","outputs":[],"stateMutability":"nonpayable","type":"function"}],"bytecode":{"object":"608060405234801561001057600080fd5b506040516104093803806104098339818101604052604081101561003357600080fd5b81019080805190602001909291908051906020019092919050505081600160006101000a81548173ffffffffffffffffffffffffffffffffffffffff021916908373ffffffffffffffffffffffffffffffffffffffff160217905550600160009054906101000a900473ffffffffffffffffffffffffffffffffffffffff166000806101000a81548173ffffffffffffffffffffffffffffffffffffffff021916908373ffffffffffffffffffffffffffffffffffffffff16021790555080600360006101000a81548173ffffffffffffffffffffffffffffffffffffffff021916908373ffffffffffffffffffffffffffffffffffffffff16021790555033600260006101000a81548173ffffffffffffffffffffffffffffffffffffffff021916908373ffffffffffffffffffffffffffffffffffffffff1602179055505050610285806101846000396000f3fe608060405234801561001057600080fd5b50600436106100365760003560e01c80635f76f6ab1461003b578063ce7460241461006b575b600080fd5b6100696004803603602081101561005157600080fd5b81019080803515159060200190929190505050610075565b005b6100736100ec565b005b600260009054906101000a900473ffffffffffffffffffffffffffffffffffffffff1673ffffffffffffffffffffffffffffffffffffffff163373ffffffffffffffffffffffffffffffffffffffff16146100cf57600080fd5b80600360146101000a81548160ff02191690831515021790555050565b600260009054906101000a900473ffffffffffffffffffffffffffffffffffffffff1673ffffffffffffffffffffffffffffffffffffffff163373ffffffffffffffffffffffffffffffffffffffff161461014657600080fd5b600360149054906101000a900460ff161561024d5760008054906101000a900473ffffffffffffffffffffffffffffffffffffffff1673ffffffffffffffffffffffffffffffffffffffff166389afcb44600360009054906101000a900473ffffffffffffffffffffffffffffffffffffffff166040518263ffffffff1660e01b8152600401808273ffffffffffffffffffffffffffffffffffffffff1681526020019150506040805180830381600087803b15801561020557600080fd5b505af1158015610219573d6000803e3d6000fd5b505050506040513d604081101561022f57600080fd5b81019080805190602001909291908051906020019092919050505050505b56fea2646970667358221220c7992cc4a888f4122aa36b6eb0d2b4698769ba260cfd2d2ee37983e4461dda4564736f6c63430007040033"}}