{
  "opcodeHash": "0xdf83dd488d3a883f7c4802f0b263a8aeec18bc7ff039e4c29da39d0da75f98ac",
  "metalessHash": "0x238b08f197a579d78dbed027b616f962e1ea5e1bd82e59cd7a5a2365fce80c8a",
  "runtimeHash": "0x524cffbeac396052fb4ecd9a0503125593c9fbe77c7769846f829fd54e2050a6",
  "encodedMetadata": [
    {
      "ipfs": "/ipfs/QmVZwAeNZHSNcHPkJRALXjV4s8ggVDP3eCaUaQ2i1FFKHC",
      "solc": "0.6.12"
    }
  ],
  "abi": [
    {
      "inputs": [
        {
          "internalType": "contract IERC20",
          "name": "_stakingToken",
          "type": "address"
        },
        {
          "internalType": "contract IRewardsEscrow",
          "name": "_rewardsEscrow",
          "type": "address"
        }
      ],
      "stateMutability": "nonpayable",
      "type": "constructor"
    },
    {
      "anonymous": false,
      "inputs": [
        {
          "indexed": false,
          "internalType": "uint256",
          "name": "_previousDuration",
          "type": "uint256"
        },
        {
          "indexed": false,
          "internalType": "uint256",
          "name": "_newDuration",
          "type": "uint256"
        }
      ],
      "name": "EscrowDurationUpdated",
      "type": "event"
    },
    {
      "anonymous": false,
      "inputs": [
        {
          "indexed": true,
          "internalType": "address",
          "name": "_user",
          "type": "address"
        },
        {
          "indexed": true,
          "internalType": "address",
          "name": "_kicked",
          "type": "address"
        },
        {
          "indexed": false,
          "internalType": "uint256",
          "name": "_reward",
          "type": "uint256"
        }
      ],
      "name": "KickReward",
      "type": "event"
    },
    {
      "anonymous": false,
      "inputs": [
        {
          "indexed": true,
          "internalType": "address",
          "name": "previousOwner",
          "type": "address"
        },
        {
          "indexed": true,
          "internalType": "address",
          "name": "newOwner",
          "type": "address"
        }
      ],
      "name": "OwnershipTransferred",
      "type": "event"
    },
    {
      "anonymous": false,
      "inputs": [
        {
          "indexed": false,
          "internalType": "address",
          "name": "_token",
          "type": "address"
        },
        {
          "indexed": false,
          "internalType": "uint256",
          "name": "_amount",
          "type": "uint256"
        }
      ],
      "name": "Recovered",
      "type": "event"
    },
    {
      "anonymous": false,
      "inputs": [
        {
          "indexed": true,
          "internalType": "address",
          "name": "_user",
          "type": "address"
        },
        {
          "indexed": false,
          "internalType": "uint256",
          "name": "_amount",
          "type": "uint256"
        }
      ],
      "name": "Relocked",
      "type": "event"
    },
    {
      "anonymous": false,
      "inputs": [
        {
          "indexed": true,
          "internalType": "address",
          "name": "_token",
          "type": "address"
        },
        {
          "indexed": false,
          "internalType": "uint256",
          "name": "_reward",
          "type": "uint256"
        }
      ],
      "name": "RewardAdded",
      "type": "event"
    },
    {
      "anonymous": false,
      "inputs": [
        {
          "indexed": true,
          "internalType": "address",
          "name": "_user",
          "type": "address"
        },
        {
          "indexed": true,
          "internalType": "address",
          "name": "_rewardsToken",
          "type": "address"
        },
        {
          "indexed": false,
          "internalType": "uint256",
          "name": "_reward",
          "type": "uint256"
        }
      ],
      "name": "RewardPaid",
      "type": "event"
    },
    {
      "anonymous": false,
      "inputs": [
        {
          "indexed": true,
          "internalType": "address",
          "name": "_user",
          "type": "address"
        },
        {
          "indexed": false,
          "internalType": "uint256",
          "name": "_paidAmount",
          "type": "uint256"
        },
        {
          "indexed": false,
          "internalType": "uint256",
          "name": "_lockedAmount",
          "type": "uint256"
        },
        {
          "indexed": false,
          "internalType": "uint256",
          "name": "_boostedAmount",
          "type": "uint256"
        }
      ],
      "name": "Staked",
      "type": "event"
    },
    {
      "anonymous": false,
      "inputs": [
        {
          "indexed": true,
          "internalType": "address",
          "name": "_user",
          "type": "address"
        },
        {
          "indexed": false,
          "internalType": "uint256",
          "name": "_amount",
          "type": "uint256"
        }
      ],
      "name": "Withdrawn",
      "type": "event"
    },
    {
      "inputs": [
        {
          "internalType": "address",
          "name": "_rewardsToken",
          "type": "address"
        },
        {
          "internalType": "address",
          "name": "_distributor",
          "type": "address"
        },
        {
          "internalType": "bool",
          "name": "_useBoost",
          "type": "bool"
        }
      ],
      "name": "addReward",
      "outputs": [],
      "stateMutability": "nonpayable",
      "type": "function"
    },
    {
      "inputs": [
        {
          "internalType": "address",
          "name": "_rewardsToken",
          "type": "address"
        },
        {
          "internalType": "address",
          "name": "_distributor",
          "type": "address"
        },
        {
          "internalType": "bool",
          "name": "_approved",
          "type": "bool"
        }
      ],
      "name": "approveRewardDistributor",
      "outputs": [],
      "stateMutability": "nonpayable",
      "type": "function"
    },
    {
      "inputs": [
        {
          "internalType": "uint256",
          "name": "_epoch",
          "type": "uint256"
        },
        {
          "internalType": "address",
          "name": "_user",
          "type": "address"
        }
      ],
      "name": "balanceAtEpochOf",
      "outputs": [
        {
          "internalType": "uint256",
          "name": "amount",
          "type": "uint256"
        }
      ],
      "stateMutability": "view",
      "type": "function"
    },
    {
      "inputs": [
        {
          "internalType": "address",
          "name": "_user",
          "type": "address"
        }
      ],
      "name": "balanceOf",
      "outputs": [
        {
          "internalType": "uint256",
          "name": "amount",
          "type": "uint256"
        }
      ],
      "stateMutability": "view",
      "type": "function"
    },
    {
      "inputs": [
        {
          "internalType": "address",
          "name": "",
          "type": "address"
        }
      ],
      "name": "balances",
      "outputs": [
        {
          "internalType": "uint112",
          "name": "locked",
          "type": "uint112"
        },
        {
          "internalType": "uint112",
          "name": "boosted",
          "type": "uint112"
        },
        {
          "internalType": "uint32",
          "name": "nextUnlockIndex",
          "type": "uint32"
        }
      ],
      "stateMutability": "view",
      "type": "function"
    },
    {
      "inputs": [],
      "name": "boostPayment",
      "outputs": [
        {
          "internalType": "address",
          "name": "",
          "type": "address"
        }
      ],
      "stateMutability": "view",
      "type": "function"
    },
    {
      "inputs": [],
      "name": "boostRate",
      "outputs": [
        {
          "internalType": "uint256",
          "name": "",
          "type": "uint256"
        }
      ],
      "stateMutability": "view",
      "type": "function"
    },
    {
      "inputs": [],
      "name": "boostedSupply",
      "outputs": [
        {
          "internalType": "uint256",
          "name": "",
          "type": "uint256"
        }
      ],
      "stateMutability": "view",
      "type": "function"
    },
    {
      "inputs": [],
      "name": "checkpointEpoch",
      "outputs": [],
      "stateMutability": "nonpayable",
      "type": "function"
    },
    {
      "inputs": [
        {
          "internalType": "address",
          "name": "_account",
          "type": "address"
        }
      ],
      "name": "claimableRewards",
      "outputs": [
        {
          "components": [
            {
              "internalType": "address",
              "name": "token",
              "type": "address"
            },
            {
              "internalType": "uint256",
              "name": "amount",
              "type": "uint256"
            }
          ],
          "internalType": "struct PopLocker.EarnedData[]",
          "name": "userRewards",
          "type": "tuple[]"
        }
      ],
      "stateMutability": "view",
      "type": "function"
    },
    {
      "inputs": [],
      "name": "decimals",
      "outputs": [
        {
          "internalType": "uint8",
          "name": "",
          "type": "uint8"
        }
      ],
      "stateMutability": "view",
      "type": "function"
    },
    {
      "inputs": [],
      "name": "denominator",
      "outputs": [
        {
          "internalType": "uint256",
          "name": "",
          "type": "uint256"
        }
      ],
      "stateMutability": "view",
      "type": "function"
    },
    {
      "inputs": [],
      "name": "epochCount",
      "outputs": [
        {
          "internalType": "uint256",
          "name": "",
          "type": "uint256"
        }
      ],
      "stateMutability": "view",
      "type": "function"
    },
    {
      "inputs": [
        {
          "internalType": "uint256",
          "name": "",
          "type": "uint256"
        }
      ],
      "name": "epochs",
      "outputs": [
        {
          "internalType": "uint224",
          "name": "supply",
          "type": "uint224"
        },
        {
          "internalType": "uint32",
          "name": "date",
          "type": "uint32"
        }
      ],
      "stateMutability": "view",
      "type": "function"
    },
    {
      "inputs": [],
      "name": "escrowDuration",
      "outputs": [
        {
          "internalType": "uint256",
          "name": "",
          "type": "uint256"
        }
      ],
      "stateMutability": "view",
      "type": "function"
    },
    {
      "inputs": [
        {
          "internalType": "uint256",
          "name": "_time",
          "type": "uint256"
        }
      ],
      "name": "findEpochId",
      "outputs": [
        {
          "internalType": "uint256",
          "name": "epoch",
          "type": "uint256"
        }
      ],
      "stateMutability": "view",
      "type": "function"
    },
    {
      "inputs": [
        {
          "internalType": "address",
          "name": "_account",
          "type": "address"
        }
      ],
      "name": "getReward",
      "outputs": [],
      "stateMutability": "nonpayable",
      "type": "function"
    },
    {
      "inputs": [
        {
          "internalType": "address",
          "name": "_rewardsToken",
          "type": "address"
        }
      ],
      "name": "getRewardForDuration",
      "outputs": [
        {
          "internalType": "uint256",
          "name": "",
          "type": "uint256"
        }
      ],
      "stateMutability": "view",
      "type": "function"
    },
    {
      "inputs": [],
      "name": "isShutdown",
      "outputs": [
        {
          "internalType": "bool",
          "name": "",
          "type": "bool"
        }
      ],
      "stateMutability": "view",
      "type": "function"
    },
    {
      "inputs": [
        {
          "internalType": "address",
          "name": "_account",
          "type": "address"
        }
      ],
      "name": "kickExpiredLocks",
      "outputs": [],
      "stateMutability": "nonpayable",
      "type": "function"
    },
    {
      "inputs": [],
      "name": "kickRewardEpochDelay",
      "outputs": [
        {
          "internalType": "uint256",
          "name": "",
          "type": "uint256"
        }
      ],
      "stateMutability": "view",
      "type": "function"
    },
    {
      "inputs": [],
      "name": "kickRewardPerEpoch",
      "outputs": [
        {
          "internalType": "uint256",
          "name": "",
          "type": "uint256"
        }
      ],
      "stateMutability": "view",
      "type": "function"
    },
    {
      "inputs": [
        {
          "internalType": "address",
          "name": "_rewardsToken",
          "type": "address"
        }
      ],
      "name": "lastTimeRewardApplicable",
      "outputs": [
        {
          "internalType": "uint256",
          "name": "",
          "type": "uint256"
        }
      ],
      "stateMutability": "view",
      "type": "function"
    },
    {
      "inputs": [
        {
          "internalType": "address",
          "name": "_account",
          "type": "address"
        },
        {
          "internalType": "uint256",
          "name": "_amount",
          "type": "uint256"
        },
        {
          "internalType": "uint256",
          "name": "_spendRatio",
          "type": "uint256"
        }
      ],
      "name": "lock",
      "outputs": [],
      "stateMutability": "nonpayable",
      "type": "function"
    },
    {
      "inputs": [],
      "name": "lockDuration",
      "outputs": [
        {
          "internalType": "uint256",
          "name": "",
          "type": "uint256"
        }
      ],
      "stateMutability": "view",
      "type": "function"
    },
    {
      "inputs": [
        {
          "internalType": "address",
          "name": "_user",
          "type": "address"
        }
      ],
      "name": "lockedBalanceOf",
      "outputs": [
        {
          "internalType": "uint256",
          "name": "amount",
          "type": "uint256"
        }
      ],
      "stateMutability": "view",
      "type": "function"
    },
    {
      "inputs": [
        {
          "internalType": "address",
          "name": "_user",
          "type": "address"
        }
      ],
      "name": "lockedBalances",
      "outputs": [
        {
          "internalType": "uint256",
          "name": "total",
          "type": "uint256"
        },
        {
          "internalType": "uint256",
          "name": "unlockable",
          "type": "uint256"
        },
        {
          "internalType": "uint256",
          "name": "locked",
          "type": "uint256"
        },
        {
          "components": [
            {
              "internalType": "uint112",
              "name": "amount",
              "type": "uint112"
            },
            {
              "internalType": "uint112",
              "name": "boosted",
              "type": "uint112"
            },
            {
              "internalType": "uint32",
              "name": "unlockTime",
              "type": "uint32"
            }
          ],
          "internalType": "struct PopLocker.LockedBalance[]",
          "name": "lockData",
          "type": "tuple[]"
        }
      ],
      "stateMutability": "view",
      "type": "function"
    },
    {
      "inputs": [],
      "name": "lockedSupply",
      "outputs": [
        {
          "internalType": "uint256",
          "name": "",
          "type": "uint256"
        }
      ],
      "stateMutability": "view",
      "type": "function"
    },
    {
      "inputs": [],
      "name": "maximumBoostPayment",
      "outputs": [
        {
          "internalType": "uint256",
          "name": "",
          "type": "uint256"
        }
      ],
      "stateMutability": "view",
      "type": "function"
    },
    {
      "inputs": [],
      "name": "name",
      "outputs": [
        {
          "internalType": "string",
          "name": "",
          "type": "string"
        }
      ],
      "stateMutability": "view",
      "type": "function"
    },
    {
      "inputs": [],
      "name": "nextBoostRate",
      "outputs": [
        {
          "internalType": "uint256",
          "name": "",
          "type": "uint256"
        }
      ],
      "stateMutability": "view",
      "type": "function"
    },
    {
      "inputs": [],
      "name": "nextMaximumBoostPayment",
      "outputs": [
        {
          "internalType": "uint256",
          "name": "",
          "type": "uint256"
        }
      ],
      "stateMutability": "view",
      "type": "function"
    },
    {
      "inputs": [
        {
          "internalType": "address",
          "name": "_rewardsToken",
          "type": "address"
        },
        {
          "internalType": "uint256",
          "name": "_reward",
          "type": "uint256"
        }
      ],
      "name": "notifyRewardAmount",
      "outputs": [],
      "stateMutability": "nonpayable",
      "type": "function"
    },
    {
      "inputs": [],
      "name": "owner",
      "outputs": [
        {
          "internalType": "address",
          "name": "",
          "type": "address"
        }
      ],
      "stateMutability": "view",
      "type": "function"
    },
    {
      "inputs": [
        {
          "internalType": "bool",
          "name": "_relock",
          "type": "bool"
        }
      ],
      "name": "processExpiredLocks",
      "outputs": [],
      "stateMutability": "nonpayable",
      "type": "function"
    },
    {
      "inputs": [
        {
          "internalType": "bool",
          "name": "_relock",
          "type": "bool"
        },
        {
          "internalType": "uint256",
          "name": "_spendRatio",
          "type": "uint256"
        },
        {
          "internalType": "address",
          "name": "_withdrawTo",
          "type": "address"
        }
      ],
      "name": "processExpiredLocks",
      "outputs": [],
      "stateMutability": "nonpayable",
      "type": "function"
    },
    {
      "inputs": [
        {
          "internalType": "address",
          "name": "_tokenAddress",
          "type": "address"
        },
        {
          "internalType": "uint256",
          "name": "_tokenAmount",
          "type": "uint256"
        }
      ],
      "name": "recoverERC20",
      "outputs": [],
      "stateMutability": "nonpayable",
      "type": "function"
    },
    {
      "inputs": [],
      "name": "renounceOwnership",
      "outputs": [],
      "stateMutability": "nonpayable",
      "type": "function"
    },
    {
      "inputs": [
        {
          "internalType": "address",
          "name": "",
          "type": "address"
        }
      ],
      "name": "rewardData",
      "outputs": [
        {
          "internalType": "bool",
          "name": "useBoost",
          "type": "bool"
        },
        {
          "internalType": "uint40",
          "name": "periodFinish",
          "type": "uint40"
        },
        {
          "internalType": "uint208",
          "name": "rewardRate",
          "type": "uint208"
        },
        {
          "internalType": "uint40",
          "name": "lastUpdateTime",
          "type": "uint40"
        },
        {
          "internalType": "uint208",
          "name": "rewardPerTokenStored",
          "type": "uint208"
        }
      ],
      "stateMutability": "view",
      "type": "function"
    },
    {
      "inputs": [
        {
          "internalType": "address",
          "name": "",
          "type": "address"
        },
        {
          "internalType": "address",
          "name": "",
          "type": "address"
        }
      ],
      "name": "rewardDistributors",
      "outputs": [
        {
          "internalType": "bool",
          "name": "",
          "type": "bool"
        }
      ],
      "stateMutability": "view",
      "type": "function"
    },
    {
      "inputs": [
        {
          "internalType": "address",
          "name": "_rewardsToken",
          "type": "address"
        }
      ],
      "name": "rewardPerToken",
      "outputs": [
        {
          "internalType": "uint256",
          "name": "",
          "type": "uint256"
        }
      ],
      "stateMutability": "view",
      "type": "function"
    },
    {
      "inputs": [
        {
          "internalType": "uint256",
          "name": "",
          "type": "uint256"
        }
      ],
      "name": "rewardTokens",
      "outputs": [
        {
          "internalType": "address",
          "name": "",
          "type": "address"
        }
      ],
      "stateMutability": "view",
      "type": "function"
    },
    {
      "inputs": [
        {
          "internalType": "address",
          "name": "_user",
          "type": "address"
        }
      ],
      "name": "rewardWeightOf",
      "outputs": [
        {
          "internalType": "uint256",
          "name": "amount",
          "type": "uint256"
        }
      ],
      "stateMutability": "view",
      "type": "function"
    },
    {
      "inputs": [
        {
          "internalType": "address",
          "name": "",
          "type": "address"
        },
        {
          "internalType": "address",
          "name": "",
          "type": "address"
        }
      ],
      "name": "rewards",
      "outputs": [
        {
          "internalType": "uint256",
          "name": "",
          "type": "uint256"
        }
      ],
      "stateMutability": "view",
      "type": "function"
    },
    {
      "inputs": [],
      "name": "rewardsDuration",
      "outputs": [
        {
          "internalType": "uint256",
          "name": "",
          "type": "uint256"
        }
      ],
      "stateMutability": "view",
      "type": "function"
    },
    {
      "inputs": [],
      "name": "rewardsEscrow",
      "outputs": [
        {
          "internalType": "contract IRewardsEscrow",
          "name": "",
          "type": "address"
        }
      ],
      "stateMutability": "view",
      "type": "function"
    },
    {
      "inputs": [
        {
          "internalType": "uint256",
          "name": "_max",
          "type": "uint256"
        },
        {
          "internalType": "uint256",
          "name": "_rate",
          "type": "uint256"
        },
        {
          "internalType": "address",
          "name": "_receivingAddress",
          "type": "address"
        }
      ],
      "name": "setBoost",
      "outputs": [],
      "stateMutability": "nonpayable",
      "type": "function"
    },
    {
      "inputs": [
        {
          "internalType": "uint256",
          "name": "duration",
          "type": "uint256"
        }
      ],
      "name": "setEscrowDuration",
      "outputs": [],
      "stateMutability": "nonpayable",
      "type": "function"
    },
    {
      "inputs": [
        {
          "internalType": "uint256",
          "name": "_rate",
          "type": "uint256"
        },
        {
          "internalType": "uint256",
          "name": "_delay",
          "type": "uint256"
        }
      ],
      "name": "setKickIncentive",
      "outputs": [],
      "stateMutability": "nonpayable",
      "type": "function"
    },
    {
      "inputs": [],
      "name": "shutdown",
      "outputs": [],
      "stateMutability": "nonpayable",
      "type": "function"
    },
    {
      "inputs": [],
      "name": "stakingToken",
      "outputs": [
        {
          "internalType": "contract IERC20",
          "name": "",
          "type": "address"
        }
      ],
      "stateMutability": "view",
      "type": "function"
    },
    {
      "inputs": [],
      "name": "symbol",
      "outputs": [
        {
          "internalType": "string",
          "name": "",
          "type": "string"
        }
      ],
      "stateMutability": "view",
      "type": "function"
    },
    {
      "inputs": [],
      "name": "totalSupply",
      "outputs": [
        {
          "internalType": "uint256",
          "name": "supply",
          "type": "uint256"
        }
      ],
      "stateMutability": "view",
      "type": "function"
    },
    {
      "inputs": [
        {
          "internalType": "uint256",
          "name": "_epoch",
          "type": "uint256"
        }
      ],
      "name": "totalSupplyAtEpoch",
      "outputs": [
        {
          "internalType": "uint256",
          "name": "supply",
          "type": "uint256"
        }
      ],
      "stateMutability": "view",
      "type": "function"
    },
    {
      "inputs": [
        {
          "internalType": "address",
          "name": "newOwner",
          "type": "address"
        }
      ],
      "name": "transferOwnership",
      "outputs": [],
      "stateMutability": "nonpayable",
      "type": "function"
    },
    {
      "inputs": [
        {
          "internalType": "address",
          "name": "",
          "type": "address"
        },
        {
          "internalType": "uint256",
          "name": "",
          "type": "uint256"
        }
      ],
      "name": "userLocks",
      "outputs": [
        {
          "internalType": "uint112",
          "name": "amount",
          "type": "uint112"
        },
        {
          "internalType": "uint112",
          "name": "boosted",
          "type": "uint112"
        },
        {
          "internalType": "uint32",
          "name": "unlockTime",
          "type": "uint32"
        }
      ],
      "stateMutability": "view",
      "type": "function"
    },
    {
      "inputs": [
        {
          "internalType": "address",
          "name": "",
          "type": "address"
        },
        {
          "internalType": "address",
          "name": "",
          "type": "address"
        }
      ],
      "name": "userRewardPerTokenPaid",
      "outputs": [
        {
          "internalType": "uint256",
          "name": "",
          "type": "uint256"
        }
      ],
      "stateMutability": "view",
      "type": "function"
    }
  ],
  "bytecode": {
    "object": "60a0604052600060108190556127106011819055601291909155601355606460145560046015556016805460ff191690553480156200003d57600080fd5b5060405162004c2638038062004c2683398101604081905262000060916200069e565b600160009081556200007162000260565b600180546001600160a01b0319166001600160a01b038316908117909155604051919250906000907f8be0079c531659141344cd1fd0a4f28419497f9722a3daafe3b4186f6b6457e0908290a3506040805180820190915260158082527f566f7465204c6f636b656420504f5020546f6b656e000000000000000000000060209092019182526200010591601791620005e0565b50604080518082019091526005808252640766c504f560dc1b60209092019182526200013491601891620005e0565b50600960f91b608052600280546001600160a01b03199081166001600160a01b0385811691909117909255600380549091169183169190911790556301e133806006556000620001ad62093a8062000199428262000264602090811b620022bf17901c565b620002a560201b620022f11790919060201c565b60408051808201909152600080825263ffffffff8381166020808501918252600c8054600181018255945293517fdf6966c971051c3d54ec59162606531493a51404a002842f56009d7e5cf4a8c7909301805491516001600160e01b03199092166001600160e01b0394851617909316600160e01b919092160217905560035491925062000257916001600160a01b038681169291169060001990620002e1811b6200232817901c565b5050506200092f565b3390565b6000808211620002915760405162461bcd60e51b815260040162000288906200077b565b60405180910390fd5b8183816200029b57fe5b0490505b92915050565b6000811580620002c257505080820282828281620002bf57fe5b04145b6200029f5760405162461bcd60e51b81526004016200028890620008b0565b60006200038082856001600160a01b031663dd62ed3e30876040518363ffffffff1660e01b81526004016200031892919062000713565b60206040518083038186803b1580156200033157600080fd5b505afa15801562000346573d6000803e3d6000fd5b505050506040513d601f19601f820116820180604052508101906200036c9190620006dc565b620003e360201b620024281790919060201c565b9050620003dd8463095ea7b360e01b8584604051602401620003a49291906200072d565b60408051808303601f190181529190526020810180516001600160e01b0319939093166001600160e01b03938416179052906200041216565b50505050565b6000828201838110156200040b5760405162461bcd60e51b81526004016200028890620007b2565b9392505050565b60606200046e826040518060400160405280602081526020017f5361666545524332303a206c6f772d6c6576656c2063616c6c206661696c6564815250856001600160a01b0316620004b360201b62002454179092919060201c565b805190915015620004ae57808060200190518101906200048f91906200067c565b620004ae5760405162461bcd60e51b8152600401620002889062000866565b505050565b6060620004c48484600085620004cc565b949350505050565b606082471015620004f15760405162461bcd60e51b81526004016200028890620007e9565b620004fc856200059c565b6200051b5760405162461bcd60e51b815260040162000288906200082f565b60006060866001600160a01b031685876040516200053a9190620006f5565b60006040518083038185875af1925050503d806000811462000579576040519150601f19603f3d011682016040523d82523d6000602084013e6200057e565b606091505b50909250905062000591828286620005a2565b979650505050505050565b3b151590565b60608315620005b35750816200040b565b825115620005c45782518084602001fd5b8160405162461bcd60e51b815260040162000288919062000746565b828054600181600116156101000203166002900490600052602060002090601f016020900481019282601f106200062357805160ff191683800117855562000653565b8280016001018555821562000653579182015b828111156200065357825182559160200191906001019062000636565b506200066192915062000665565b5090565b5b8082111562000661576000815560010162000666565b6000602082840312156200068e578081fd5b815180151581146200040b578182fd5b60008060408385031215620006b1578081fd5b8251620006be8162000916565b6020840151909250620006d18162000916565b809150509250929050565b600060208284031215620006ee578081fd5b5051919050565b6000825162000709818460208701620008e7565b9190910192915050565b6001600160a01b0392831681529116602082015260400190565b6001600160a01b03929092168252602082015260400190565b600060208252825180602084015262000767816040850160208701620008e7565b601f01601f19169190910160400192915050565b6020808252601c908201527f426f72696e674d6174683a206469766973696f6e206279207a65726f00000000604082015260600190565b6020808252601b908201527f536166654d6174683a206164646974696f6e206f766572666c6f770000000000604082015260600190565b60208082526026908201527f416464726573733a20696e73756666696369656e742062616c616e636520666f6040820152651c8818d85b1b60d21b606082015260800190565b6020808252601d908201527f416464726573733a2063616c6c20746f206e6f6e2d636f6e7472616374000000604082015260600190565b6020808252602a908201527f5361666545524332303a204552433230206f7065726174696f6e20646964206e6040820152691bdd081cdd58d8d9595960b21b606082015260800190565b60208082526018908201527f426f72696e674d6174683a204d756c204f766572666c6f770000000000000000604082015260600190565b60005b8381101562000904578181015183820152602001620008ea565b83811115620003dd5750506000910152565b6001600160a01b03811681146200092c57600080fd5b50565b60805160f81c6142d96200094d60003980610c6552506142d96000f3fe608060405234801561001057600080fd5b50600436106103835760003560e01c8063829965cc116101de578063bf86d6901161010f578063e2ab691d116100ad578063f21579321161007c578063f215793214610711578063f2fde38b14610719578063f82615971461072c578063fc0e74d11461073f57610383565b8063e2ab691d146106d0578063e432488d146106e3578063e70b9e27146106eb578063f1229777146106fe57610383565b8063c6b61e4c116100e9578063c6b61e4c14610674578063ca5c7b9114610695578063d3c45c761461069d578063dc01f60d146106b057610383565b8063bf86d69014610651578063c00007b014610659578063c1009f4b1461066c57610383565b8063a81653c91161017c578063b187bc2211610156578063b187bc221461061b578063b5ed7a6614610623578063b66503cf1461062b578063bcd110141461063e57610383565b8063a81653c9146105ed578063a98e05bb14610600578063aa33fedb1461060857610383565b80638da5cb5b116101b85780638da5cb5b146105cd57806395d89b41146105d557806396ce0795146105dd5780639bdc7467146105e557610383565b8063829965cc1461059f578063887c7dc5146105a75780638980f11f146105ba57610383565b806357c2c2ba116102b857806370b36d791161025657806372f702f31161023057806372f702f31461056757806375aadf611461057c5780637bb7bed1146105845780637bd48c7c1461059757610383565b806370b36d791461053957806370e664cd1461054c578063715018a61461055f57610383565b806363f1c8e21161029257806363f1c8e2146104ed5780636724c910146105005780637035ab981461051357806370a082311461052657610383565b806357c2c2ba146104bf57806359355736146104c7578063638634ee146104da57610383565b80632fe8710811610325578063321bc347116102ff578063321bc34714610460578063386a95251461047357806339fc97131461047b57806348e5d9f81461049b57610383565b80632fe8710814610423578063312ff83914610436578063313ce5671461044b57610383565b806318160ddd1161036157806318160ddd146103de5780631c607395146103e657806327e235e3146103f95780632e9564e41461041b57610383565b806304554443146103885780630483a7f6146103a657806306fdde03146103c9575b600080fd5b610390610747565b60405161039d919061418b565b60405180910390f35b6103b96103b436600461373a565b61074e565b60405161039d94939291906141c1565b6103d1610914565b60405161039d9190613a88565b6103906109aa565b6103906103f43660046138d6565b610a80565b61040c61040736600461373a565b610bac565b60405161039d93929190614143565b610390610be2565b61039061043136600461373a565b610be8565b610449610444366004613830565b610c17565b005b610453610c63565b60405161039d9190614243565b61044961046e3660046138a6565b610c87565b610390610d06565b61048e610489366004613755565b610d0d565b60405161039d9190613a47565b6104ae6104a936600461373a565b610d2d565b60405161039d959493929190613a52565b610390610d7e565b6103906104d536600461373a565b610d84565b6103906104e836600461373a565b610da8565b6104496104fb3660046138f9565b610dd6565b61044961050e366004613789565b610e63565b610390610521366004613755565b610f1b565b61039061053436600461373a565b610f38565b6103906105473660046138a6565b61105c565b61044961055a366004613868565b61117e565b6104496111c2565b61056f611258565b60405161039d9190613963565b610390611267565b61056f6105923660046138a6565b61126d565b610390611294565b61039061129a565b6104496105b536600461373a565b6112a0565b6104496105c83660046137d3565b6112f1565b61056f6113f7565b6103d1611406565b610390611467565b61039061146d565b6104496105fb36600461391a565b611473565b61056f611555565b61040c6106163660046137d3565b611564565b6103906115b0565b6103906115b6565b6104496106393660046137d3565b6115bc565b61039061064c36600461373a565b611858565b61048e611891565b61044961066736600461373a565b61189a565b610449611bfc565b6106876106823660046138a6565b611c06565b60405161039d92919061416c565b610390611c3b565b6104496106ab366004613789565b611c41565b6106c36106be36600461373a565b611d73565b60405161039d91906139ef565b6104496106de3660046137fd565b611eb4565b6103906120bc565b6103906106f9366004613755565b6120c2565b61039061070c36600461373a565b6120df565b61056f6120ea565b61044961072736600461373a565b6120f9565b61039061073a3660046138a6565b6121c7565b610449612271565b626ebe0081565b6001600160a01b0381166000908152600e60209081526040808320600d9092528220805483928392606092600160e01b900463ffffffff1684815b84548110156108fc574285828154811061079f57fe5b600091825260209091200154600160e01b900463ffffffff1611156108c6578161081c57845481900367ffffffffffffffff811180156107de57600080fd5b5060405190808252806020026020018201604052801561081857816020015b6108056136ec565b8152602001906001900390816107fd5790505b5095505b84818154811061082857fe5b60009182526020918290206040805160608101825291909201546001600160701b038082168352600160701b8204169382019390935263ffffffff600160e01b9093049290921690820152865187908490811061088157fe5b602002602001018190525081806001019250506108bf8582815481106108a357fe5b60009182526020909120015488906001600160701b031661246b565b96506108f4565b6108f18582815481106108d557fe5b60009182526020909120015489906001600160701b031661246b565b97505b600101610789565b505090546001600160701b0316955050509193509193565b60178054604080516020601f60026000196101006001881615020190951694909404938401819004810282018101909252828152606093909290918301828280156109a05780601f10610975576101008083540402835291602001916109a0565b820191906000526020600020905b81548152906001019060200180831161098357829003601f168201915b5050505050905090565b6000806109c462093a806109be42826122bf565b906122f1565b905060006109d582626ebe0061248e565b600c8054919250839060001983018381106109ec57fe5b600091825260209091200154600160e01b900463ffffffff161415610a1057600019015b60001981015b6001810115610a79576000600c8281548110610a2e57fe5b60009182526020909120018054909150600160e01b900463ffffffff168410610a575750610a79565b8054610a6d9087906001600160e01b031661246b565b95505060001901610a16565b5050505090565b6001600160a01b0381166000908152600e60205260408120600c805483919086908110610aa957fe5b600091825260208220015463ffffffff600160e01b90910481169250610ad6908390626ebe009061248e16565b90506000610aeb62093a806109be42826122bf565b8454909150600019015b6001810115610ba0576000610b3962093a80600c02878481548110610b1657fe5b60009182526020909120015463ffffffff600160e01b9091048116919061248e16565b9050848111158015610b4a57508281105b15610b965783811115610b9057610b89868381548110610b6657fe5b6000918252602090912001548890600160701b90046001600160701b031661246b565b9650610b96565b50610ba0565b5060001901610af5565b50505050505b92915050565b600d602052600090815260409020546001600160701b0380821691600160701b810490911690600160e01b900463ffffffff1683565b60115481565b6001600160a01b0381166000908152600d6020526040902054600160701b90046001600160701b03165b919050565b60026000541415610c435760405162461bcd60e51b8152600401610c3a9061408a565b60405180910390fd5b6002600081905550610c5b33826000333360006124b1565b506001600055565b7f000000000000000000000000000000000000000000000000000000000000000090565b610c8f612a70565b6001600160a01b0316610ca06113f7565b6001600160a01b031614610cc65760405162461bcd60e51b8152600401610c3a90613e77565b7f21c46a061cb9c101660f51f5c9fc9768c5f6e8cf5dea8ca5cd03cb6db13956f360065482604051610cf99291906141b3565b60405180910390a1600655565b62093a8081565b600760209081526000928352604080842090915290825290205460ff1681565b6005602052600090815260409020805460019091015460ff82169164ffffffffff61010082048116926001600160d01b03660100000000000090930483169291811691650100000000009091041685565b60065481565b6001600160a01b03166000908152600d60205260409020546001600160701b031690565b6001600160a01b038116600090815260056020526040812054610ba690610100900464ffffffffff16612a74565b610dde612a70565b6001600160a01b0316610def6113f7565b6001600160a01b031614610e155760405162461bcd60e51b8152600401610c3a90613e77565b6101f4821115610e375760405162461bcd60e51b8152600401610c3a90613c99565b6002811015610e585760405162461bcd60e51b8152600401610c3a90613f1a565b601491909155601555565b610e6b612a70565b6001600160a01b0316610e7c6113f7565b6001600160a01b031614610ea25760405162461bcd60e51b8152600401610c3a90613e77565b6001600160a01b03831660009081526005602052604090206001015464ffffffffff16610ee15760405162461bcd60e51b8152600401610c3a90613eac565b6001600160a01b03928316600090815260076020908152604080832094909516825292909252919020805460ff1916911515919091179055565b600860209081526000928352604080842090915290825290205481565b6001600160a01b0381166000908152600e60209081526040808320600d90925290912080548254600160701b82046001600160701b0316939291600160e01b900463ffffffff1690815b81811015610ffb5742858281548110610f9757fe5b600091825260209091200154600160e01b900463ffffffff1611610fee57610fe7858281548110610fc457fe5b6000918252602090912001548790600160701b90046001600160701b031661248e565b9550610ff3565b610ffb565b600101610f82565b50600061100f62093a806109be42826122bf565b905060008211801561103857508061103662093a80600c02876001860381548110610b1657fe5b145b156110525761104f856001840381548110610fc457fe5b95505b5050505050919050565b60008061109d62093a806109be62093a80600c878154811061107a57fe5b60009182526020909120015463ffffffff600160e01b909104811691906122bf16565b905060006110ae82626ebe0061248e565b905060006110c362093a806109be42826122bf565b905080600c86815481106110d357fe5b600091825260209091200154600160e01b900463ffffffff1614156110fa57600019909401935b845b6001810115611175576000600c828154811061111457fe5b60009182526020909120018054909150600160e01b900463ffffffff16841061113d5750611175565b611169600c838154811061114d57fe5b60009182526020909120015487906001600160e01b031661246b565b955050600019016110fc565b50505050919050565b600260005414156111a15760405162461bcd60e51b8152600401610c3a9061408a565b60026000819055506111b8338484843360006124b1565b5050600160005550565b6111ca612a70565b6001600160a01b03166111db6113f7565b6001600160a01b0316146112015760405162461bcd60e51b8152600401610c3a90613e77565b6001546040516000916001600160a01b0316907f8be0079c531659141344cd1fd0a4f28419497f9722a3daafe3b4186f6b6457e0908390a36001805473ffffffffffffffffffffffffffffffffffffffff19169055565b6002546001600160a01b031681565b600b5481565b6004818154811061127a57fe5b6000918252602090912001546001600160a01b0316905081565b60125481565b600c5490565b600260005414156112c35760405162461bcd60e51b8152600401610c3a9061408a565b6002600081905550610c5b8160008084336112ec60155462093a806122f190919063ffffffff16565b6124b1565b6112f9612a70565b6001600160a01b031661130a6113f7565b6001600160a01b0316146113305760405162461bcd60e51b8152600401610c3a90613e77565b6002546001600160a01b038381169116141561135e5760405162461bcd60e51b8152600401610c3a90613ee3565b6001600160a01b03821660009081526005602052604090206001015464ffffffffff161561139e5760405162461bcd60e51b8152600401610c3a90614053565b6113ba6113a96113f7565b6001600160a01b0384169083612a80565b7f8c1256b8896378cd5044f80c202f9772b9d77dc85c8a6eb51967210b09bfaa2882826040516113eb9291906139b5565b60405180910390a15050565b6001546001600160a01b031690565b60188054604080516020601f60026000196101006001881615020190951694909404938401819004810282018101909252828152606093909290918301828280156109a05780601f10610975576101008083540402835291602001916109a0565b61271081565b60145481565b61147b612a70565b6001600160a01b031661148c6113f7565b6001600160a01b0316146114b25760405162461bcd60e51b8152600401610c3a90613e77565b6105dc601054106114d55760405162461bcd60e51b8152600401610c3a90613c2b565b617530601154106114f85760405162461bcd60e51b8152600401610c3a90613c99565b6001600160a01b03811661151e5760405162461bcd60e51b8152600401610c3a90613d64565b601292909255601355600f805473ffffffffffffffffffffffffffffffffffffffff19166001600160a01b03909216919091179055565b600f546001600160a01b031681565b600e602052816000526040600020818154811061157d57fe5b6000918252602090912001546001600160701b038082169350600160701b8204169150600160e01b900463ffffffff1683565b60105481565b60135481565b6000808052600d6020527f81955a0a11e65eac625c29e8882660bae4e165a75d72780094acae8ece9a29ee8054600160701b90046001600160701b0316825b60045481101561178d5760006004828154811061161457fe5b6000918252602090912001546001600160a01b0316905061163c61163782612aa4565b612bba565b6001600160a01b03821660009081526005602052604090206001810180546001600160d01b0393909316650100000000000265010000000000600160f81b031990931692909217909155546116a6906116a19064ffffffffff61010090910416612a74565b612be7565b6001600160a01b038281166000908152600560205260409020600101805464ffffffffff191664ffffffffff9390931692909217909155851615611784576001600160a01b038116600090815260056020526040902054611723908690839060ff1661171c5786546001600160701b031661171e565b855b612c0e565b6001600160a01b0386811660008181526009602090815260408083209487168084529482528083209590955560058152848220600101549282526008815284822093825292909252919020650100000000009091046001600160d01b031690555b506001016115fb565b5050506001600160a01b038316600090815260076020908152604080832033845290915290205460ff166117d35760405162461bcd60e51b8152600401610c3a90613e40565b600082116117f35760405162461bcd60e51b8152600401610c3a90613e09565b6117fd8383612c7c565b6118126001600160a01b038416333085612db8565b826001600160a01b03167fac24935fd910bc682b5ccb1a07b718cadf8cf2f6d1404c4f3ddc3662dae40e298360405161184b919061418b565b60405180910390a2505050565b6001600160a01b038116600090815260056020526040812054610ba690660100000000000090046001600160d01b031662093a806122f1565b60165460ff1681565b600260005414156118bd5760405162461bcd60e51b8152600401610c3a9061408a565b600260009081556001600160a01b0382168152600d6020526040812080548392600160701b9091046001600160701b0316905b600454811015611a715760006004828154811061190957fe5b6000918252602090912001546001600160a01b0316905061192c61163782612aa4565b6001600160a01b03821660009081526005602052604090206001810180546001600160d01b0393909316650100000000000265010000000000600160f81b03199093169290921790915554611991906116a19064ffffffffff61010090910416612a74565b6001600160a01b038281166000908152600560205260409020600101805464ffffffffff191664ffffffffff9390931692909217909155851615611a68576001600160a01b038116600090815260056020526040902054611a07908690839060ff1661171c5786546001600160701b031661171e565b6001600160a01b0386811660008181526009602090815260408083209487168084529482528083209590955560058152848220600101549282526008815284822093825292909252919020650100000000009091046001600160d01b031690555b506001016118f0565b50505060005b6004548110156111b857600060048281548110611a9057fe5b60009182526020808320909101546001600160a01b038781168452600983526040808520919092168085529252909120549091508015611bf2576001600160a01b0380861660009081526009602090815260408083209386168352929052908120819055611aff82600a6122bf565b90506000611b0e8260096122f1565b9050611b246001600160a01b0385168884612a80565b6003546006546040517fe2ab691d0000000000000000000000000000000000000000000000000000000081526001600160a01b039092169163e2ab691d91611b72918b9186916004016139ce565b600060405180830381600087803b158015611b8c57600080fd5b505af1158015611ba0573d6000803e3d6000fd5b50505050836001600160a01b0316876001600160a01b03167f540798df468d7b23d11f156fdb954cb19ad414d150722a7b6d55ba369dea792e85604051611be7919061418b565b60405180910390a350505b5050600101611a77565b611c04612dd9565b565b600c8181548110611c1357fe5b6000918252602090912001546001600160e01b0381169150600160e01b900463ffffffff1682565b600a5481565b611c49612a70565b6001600160a01b0316611c5a6113f7565b6001600160a01b031614611c805760405162461bcd60e51b8152600401610c3a90613e77565b6001600160a01b03831660009081526005602052604090206001015464ffffffffff1615611cad57600080fd5b6004805460018082019092557f8a35acfbc15ff81a39ae7d344fd709f28e8600b4aa8c65c6b64bfe7fe36bd19b01805473ffffffffffffffffffffffffffffffffffffffff19166001600160a01b039586169081179091556000908152600560209081526040808320808501805464ffffffffff19164264ffffffffff16908117909155815465ffffffffff0019166101009091021760ff1990811696151596909617905560078252808320959096168252939093529290912080549091169091179055565b60045460609067ffffffffffffffff81118015611d8f57600080fd5b50604051908082528060200260200182016040528015611dc957816020015b611db661370c565b815260200190600190039081611dae5790505b506001600160a01b0383166000908152600d60205260408120805492935091600160701b90046001600160701b0316905b8351811015611eac57600060048281548110611e1257fe5b9060005260206000200160009054906101000a90046001600160a01b0316905080858381518110611e3f57fe5b6020908102919091018101516001600160a01b039283169052908216600090815260059091526040902054611e89908790839060ff1661171c5786546001600160701b031661171e565b858381518110611e9557fe5b602090810291909101810151015250600101611dfa565b505050919050565b60026000541415611ed75760405162461bcd60e51b8152600401610c3a9061408a565b600260009081556001600160a01b0384168152600d6020526040812080548592600160701b9091046001600160701b0316905b60045481101561208b57600060048281548110611f2357fe5b6000918252602090912001546001600160a01b03169050611f4661163782612aa4565b6001600160a01b03821660009081526005602052604090206001810180546001600160d01b0393909316650100000000000265010000000000600160f81b03199093169290921790915554611fab906116a19064ffffffffff61010090910416612a74565b6001600160a01b038281166000908152600560205260409020600101805464ffffffffff191664ffffffffff9390931692909217909155851615612082576001600160a01b038116600090815260056020526040902054612021908690839060ff1661171c5786546001600160701b031661171e565b6001600160a01b0386811660008181526009602090815260408083209487168084529482528083209590955560058152848220600101549282526008815284822093825292909252919020650100000000009091046001600160d01b031690555b50600101611f0a565b50506002546120a691506001600160a01b0316333086612db8565b6120b1848484612f59565b505060016000555050565b60155481565b600960209081526000928352604080842090915290825290205481565b6000610ba682612aa4565b6003546001600160a01b031681565b612101612a70565b6001600160a01b03166121126113f7565b6001600160a01b0316146121385760405162461bcd60e51b8152600401610c3a90613e77565b6001600160a01b03811661215e5760405162461bcd60e51b8152600401610c3a90613b60565b6001546040516001600160a01b038084169216907f8be0079c531659141344cd1fd0a4f28419497f9722a3daafe3b4186f6b6457e090600090a36001805473ffffffffffffffffffffffffffffffffffffffff19166001600160a01b0392909216919091179055565b600c5460009060001901816121e362093a806109be86826122bf565b935060005b6080811015612269578282106121fd57612269565b600060026001848601010490506000600c828154811061221957fe5b600091825260209091200154600160e01b900463ffffffff1690508681141561224857509350610c1292505050565b868110156122585781935061225f565b6001820394505b50506001016121e8565b509392505050565b612279612a70565b6001600160a01b031661228a6113f7565b6001600160a01b0316146122b05760405162461bcd60e51b8152600401610c3a90613e77565b6016805460ff19166001179055565b60008082116122e05760405162461bcd60e51b8152600401610c3a90613b29565b8183816122e957fe5b049392505050565b600081158061230c5750508082028282828161230957fe5b04145b610ba65760405162461bcd60e51b8152600401610c3a906140c1565b60006123b282856001600160a01b031663dd62ed3e30876040518363ffffffff1660e01b815260040161235c929190613977565b60206040518083038186803b15801561237457600080fd5b505afa158015612388573d6000803e3d6000fd5b505050506040513d601f19601f820116820180604052508101906123ac91906138be565b90612428565b90506124228463095ea7b360e01b85846040516024016123d39291906139b5565b60408051601f198184030181529190526020810180516001600160e01b03167fffffffff00000000000000000000000000000000000000000000000000000000909316929092179091526133d5565b50505050565b60008282018381101561244d5760405162461bcd60e51b8152600401610c3a90613c62565b9392505050565b60606124638484600085613464565b949350505050565b81810181811015610ba65760405162461bcd60e51b8152600401610c3a90613d9b565b80820382811115610ba65760405162461bcd60e51b8152600401610c3a90613abb565b6001600160a01b0386166000908152600d6020526040812080548892600160701b9091046001600160701b0316905b600454811015612661576000600482815481106124f957fe5b6000918252602090912001546001600160a01b0316905061251c61163782612aa4565b6001600160a01b03821660009081526005602052604090206001810180546001600160d01b0393909316650100000000000265010000000000600160f81b03199093169290921790915554612581906116a19064ffffffffff61010090910416612a74565b6001600160a01b038281166000908152600560205260409020600101805464ffffffffff191664ffffffffff9390931692909217909155851615612658576001600160a01b0381166000908152600560205260409020546125f7908690839060ff1661171c5786546001600160701b031661171e565b6001600160a01b0386811660008181526009602090815260408083209487168084529482528083209590955560058152848220600101549282526008815284822093825292909252919020650100000000009091046001600160d01b031690555b506001016124e0565b5050506001600160a01b0387166000908152600e60209081526040808320600d9092528220815460165492939192829190829060ff16806126d257506126a7428961248e565b8660018403815481106126b657fe5b600091825260209091200154600160e01b900463ffffffff1611155b156127495784546001600160701b038082169550600160701b9091041692506126fa82613525565b855463ffffffff91909116600160e01b026001600160e01b039091161785558715612744576127418887600185038154811061273257fe5b9060005260206000200161354b565b90505b612850565b8454600160e01b900463ffffffff16805b838110156128305761276c428b61248e565b88828154811061277857fe5b600091825260209091200154600160e01b900463ffffffff16111561279c57612830565b6127c98882815481106127ab57fe5b6000918252602090912001546001600160701b0388811691166135e1565b95506127ff8882815481106127da57fe5b6000918252602090912001546001600160701b0387811691600160701b9004166135e1565b945089156128245761282161281a8b8a848154811061273257fe5b849061246b565b92505b6001918201910161275a565b50855463ffffffff909116600160e01b026001600160e01b039091161785555b6000846001600160701b0316116128795760405162461bcd60e51b8152600401610c3a90613d2d565b845461288e906001600160701b031685613610565b85546dffffffffffffffffffffffffffff19166001600160701b03918216178087556128c391600160701b9091041684613610565b85546dffffffffffffffffffffffffffff60701b1916600160701b6001600160701b0392831602178655600a546128fb91861661248e565b600a55600b54612914906001600160701b03851661248e565b600b55801561299f576129396129298261363f565b6001600160701b03861690613610565b600254909450612953906001600160a01b03168a83612a80565b8c6001600160a01b0316896001600160a01b03167f7e7ff29ed04cfb223bc9b02606f69520517c117ee82c9158ed2d96323c1ef38583604051612996919061418b565b60405180910390a35b8b156129ff576129b98a856001600160701b03168d612f59565b8c6001600160a01b03167fe2d155d9d74decc198a9a9b4f5bddb24ee0842ee745c9ce57e3573b971e50d9d856040516129f2919061412f565b60405180910390a2612a61565b600254612a1f906001600160a01b03168b6001600160701b038716612a80565b8c6001600160a01b03167f7084f5476618d8e60b11ef0d7d3f06914655adb8793e28ff7f018d4c76d505d585604051612a58919061412f565b60405180910390a25b50505050505050505050505050565b3390565b6000610ba64283613668565b612a9f8363a9059cbb60e01b84846040516024016123d39291906139b5565b505050565b6000600b5460001415612ae557506001600160a01b0381166000908152600560205260409020600101546501000000000090046001600160d01b0316610c12565b6001600160a01b038216600090815260056020526040902054610ba690612b869060ff16612b1557600a54612b19565b600b545b6001600160a01b03851660009081526005602052604090208054600190910154612b8091670de0b6b3a7640000916109be916001600160d01b03660100000000000082041691839164ffffffffff91821691612b7a91610100900416612a74565b9061248e565b906122bf565b6001600160a01b0384166000908152600560205260409020600101546501000000000090046001600160d01b03169061246b565b60006001600160d01b03821115612be35760405162461bcd60e51b8152600401610c3a90613af2565b5090565b600064ffffffffff821115612be35760405162461bcd60e51b8152600401610c3a906140f8565b6001600160a01b0380841660008181526009602090815260408083209487168084529482528083205493835260088252808320948352939052918220546124639190612c7690670de0b6b3a764000090612b8090612c6f90612b7a8a612aa4565b87906122f1565b9061246b565b6001600160a01b03821660009081526005602052604090208054610100900464ffffffffff164210612ce157612cb86116378362093a806122bf565b81546001600160d01b039190911666010000000000000265ffffffffffff909116178155612d5f565b8054600090612cfc90610100900464ffffffffff164261248e565b8254909150600090612d22908390660100000000000090046001600160d01b03166122f1565b9050612d3861163762093a80612b80878561246b565b83546001600160d01b039190911666010000000000000265ffffffffffff90911617835550505b612d6842612be7565b60018201805464ffffffffff191664ffffffffff92909216919091179055612d966116a14262093a8061246b565b815464ffffffffff919091166101000265ffffffffff00199091161790555050565b612422846323b872dd60e01b8585856040516024016123d393929190613991565b6000612dec62093a806109be42826122bf565b600c805491925082906000198301838110612e0357fe5b600091825260209091200154600160e01b900463ffffffff161015612f55575b600c80548391906000198101908110612e3857fe5b600091825260209091200154600160e01b900463ffffffff1614612f31576000612e9762093a80600c6001600c805490500381548110612e7457fe5b60009182526020909120015463ffffffff600160e01b9091048116919061246b16565b60408051808201909152600080825263ffffffff92831660208301908152600c8054600181018255925291517fdf6966c971051c3d54ec59162606531493a51404a002842f56009d7e5cf4a8c790910180549251909316600160e01b026001600160e01b039182167fffffffff00000000000000000000000000000000000000000000000000000000909316929092171617905550612e23565b60135460115414612f43576013546011555b60125460105414612f55576012546010555b5050565b60008211612f795760405162461bcd60e51b8152600401610c3a90613bbd565b601054811115612f9b5760405162461bcd60e51b8152600401610c3a90613bf4565b60165460ff1615612fbe5760405162461bcd60e51b8152600401610c3a90613f51565b6001600160a01b0383166000908152600d60205260409020612fde612dd9565b6000612ff0612710612b8086866122f1565b905060006130196010546000146130095760105461300c565b60015b601154612b8090876122f1565b9050600061302f61302a878561248e565b61363f565b9050600061305061302a613049612710612b808b886122f1565b899061246b565b8554909150613068906001600160701b0316836135e1565b85546dffffffffffffffffffffffffffff19166001600160701b039182161780875561309d91600160701b90910416826135e1565b85546dffffffffffffffffffffffffffff60701b1916600160701b6001600160701b0392831602178655600a546130d591841661246b565b600a55600b546130ee906001600160701b03831661246b565b600b55600061310462093a806109be42826122bf565b9050600061311582626ebe0061246b565b6001600160a01b038b166000908152600e602052604090205490915080158061317f57506001600160a01b038b166000908152600e602052604090208054839190600019840190811061316457fe5b600091825260209091200154600160e01b900463ffffffff16105b1561323c576001600160a01b038b166000908152600e6020908152604080832081516060810183526001600160701b03808b16825289811682860190815263ffffffff808a16958401958652845460018101865594885295909620915191909201805495519351909416600160e01b026001600160e01b03938316600160701b026dffffffffffffffffffffffffffff60701b19929093166dffffffffffffffffffffffffffff19909616959095171617169190911790556132ea565b6001600160a01b038b166000908152600e602052604081208054600019840190811061326457fe5b60009182526020909120018054909150613287906001600160701b0316876135e1565b81546dffffffffffffffffffffffffffff19166001600160701b03918216178083556132bc91600160701b90910416866135e1565b81546001600160701b0391909116600160701b026dffffffffffffffffffffffffffff60701b199091161790555b600c805460009190600019810190811061330057fe5b6000918252602090912001805490915061332c906001600160e01b03166001600160701b03871661367e565b81547fffffffff00000000000000000000000000000000000000000000000000000000166001600160e01b0391909116178155871561338257600f54600254613382916001600160a01b0391821691168a612a80565b8b6001600160a01b03167fb4caaf29adda3eefee3ad552a8e85058589bf834c7466cae4ee58787f70589ed8c88886040516133bf93929190614194565b60405180910390a2505050505050505050505050565b606061342a826040518060400160405280602081526020017f5361666545524332303a206c6f772d6c6576656c2063616c6c206661696c6564815250856001600160a01b03166124549092919063ffffffff16565b805190915015612a9f5780806020019051810190613448919061384c565b612a9f5760405162461bcd60e51b8152600401610c3a90613ff6565b6060824710156134865760405162461bcd60e51b8152600401610c3a90613cd0565b61348f856136ad565b6134ab5760405162461bcd60e51b8152600401610c3a90613f88565b60006060866001600160a01b031685876040516134c89190613947565b60006040518083038185875af1925050503d8060008114613505576040519150601f19603f3d011682016040523d82523d6000602084013e61350a565b606091505b509150915061351a8282866136b3565b979650505050505050565b600063ffffffff821115612be35760405162461bcd60e51b8152600401610c3a90613fbf565b60008061356362093a806109be81612b80428961248e565b83549091506000906135909062093a8090612b8090859063ffffffff600160e01b90910481169061248e16565b905060006135b76135af836001016014546122f190919063ffffffff16565b612710613668565b85549091506135d79061271090612b80906001600160701b0316846122f1565b9695505050505050565b8181016001600160701b038083169082161015610ba65760405162461bcd60e51b8152600401610c3a90613d9b565b8082036001600160701b038084169082161115610ba65760405162461bcd60e51b8152600401610c3a90613abb565b60006001600160701b03821115612be35760405162461bcd60e51b8152600401610c3a90613dd2565b6000818310613677578161244d565b5090919050565b8181016001600160e01b038083169082161015610ba65760405162461bcd60e51b8152600401610c3a90613d9b565b3b151590565b606083156136c257508161244d565b8251156136d25782518084602001fd5b8160405162461bcd60e51b8152600401610c3a9190613a88565b604080516060810182526000808252602082018190529181019190915290565b604080518082019091526000808252602082015290565b80356001600160a01b0381168114610ba657600080fd5b60006020828403121561374b578081fd5b61244d8383613723565b60008060408385031215613767578081fd5b6137718484613723565b91506137808460208501613723565b90509250929050565b60008060006060848603121561379d578081fd5b83356137a88161427d565b925060208401356137b88161427d565b915060408401356137c881614295565b809150509250925092565b600080604083850312156137e5578182fd5b6137ef8484613723565b946020939093013593505050565b600080600060608486031215613811578283fd5b61381b8585613723565b95602085013595506040909401359392505050565b600060208284031215613841578081fd5b813561244d81614295565b60006020828403121561385d578081fd5b815161244d81614295565b60008060006060848603121561387c578283fd5b833561388781614295565b92506020840135915061389d8560408601613723565b90509250925092565b6000602082840312156138b7578081fd5b5035919050565b6000602082840312156138cf578081fd5b5051919050565b600080604083850312156138e8578182fd5b823591506137808460208501613723565b6000806040838503121561390b578182fd5b50508035926020909101359150565b60008060006060848603121561392e578283fd5b833592506020840135915060408401356137c88161427d565b60008251613959818460208701614251565b9190910192915050565b6001600160a01b0391909116815260200190565b6001600160a01b0392831681529116602082015260400190565b6001600160a01b039384168152919092166020820152604081019190915260600190565b6001600160a01b03929092168252602082015260400190565b6001600160a01b039390931683526020830191909152604082015260600190565b602080825282518282018190526000919060409081850190868401855b82811015613a3a57815180516001600160a01b03168552860151868501529284019290850190600101613a0c565b5091979650505050505050565b901515815260200190565b941515855264ffffffffff93841660208601526001600160d01b0392831660408601529216606084015216608082015260a00190565b6000602082528251806020840152613aa7816040850160208701614251565b601f01601f19169190910160400192915050565b60208082526015908201527f426f72696e674d6174683a20556e646572666c6f770000000000000000000000604082015260600190565b6020808252601c908201527f426f72696e674d6174683a2075696e74323038204f766572666c6f7700000000604082015260600190565b6020808252601c908201527f426f72696e674d6174683a206469766973696f6e206279207a65726f00000000604082015260600190565b60208082526026908201527f4f776e61626c653a206e6577206f776e657220697320746865207a65726f206160408201527f6464726573730000000000000000000000000000000000000000000000000000606082015260800190565b6020808252600e908201527f43616e6e6f74207374616b652030000000000000000000000000000000000000604082015260600190565b6020808252600e908201527f6f766572206d6178207370656e64000000000000000000000000000000000000604082015260600190565b60208082526010908201527f6f766572206d6178207061796d656e7400000000000000000000000000000000604082015260600190565b6020808252601b908201527f536166654d6174683a206164646974696f6e206f766572666c6f770000000000604082015260600190565b6020808252600d908201527f6f766572206d6178207261746500000000000000000000000000000000000000604082015260600190565b60208082526026908201527f416464726573733a20696e73756666696369656e742062616c616e636520666f60408201527f722063616c6c0000000000000000000000000000000000000000000000000000606082015260800190565b6020808252600c908201527f6e6f20657870206c6f636b730000000000000000000000000000000000000000604082015260600190565b6020808252600f908201527f696e76616c696420616464726573730000000000000000000000000000000000604082015260600190565b60208082526018908201527f426f72696e674d6174683a20416464204f766572666c6f770000000000000000604082015260600190565b6020808252601c908201527f426f72696e674d6174683a2075696e74313132204f766572666c6f7700000000604082015260600190565b60208082526009908201527f4e6f207265776172640000000000000000000000000000000000000000000000604082015260600190565b6020808252600e908201527f6e6f7420617574686f72697a6564000000000000000000000000000000000000604082015260600190565b6020808252818101527f4f776e61626c653a2063616c6c6572206973206e6f7420746865206f776e6572604082015260600190565b6020808252601c908201527f7265776172647320746f6b656e20646f6573206e6f7420657869737400000000604082015260600190565b6020808252601d908201527f43616e6e6f74207769746864726177207374616b696e6720746f6b656e000000604082015260600190565b60208082526009908201527f6d696e2064656c61790000000000000000000000000000000000000000000000604082015260600190565b60208082526008908201527f73687574646f776e000000000000000000000000000000000000000000000000604082015260600190565b6020808252601d908201527f416464726573733a2063616c6c20746f206e6f6e2d636f6e7472616374000000604082015260600190565b6020808252601b908201527f426f72696e674d6174683a2075696e743332204f766572666c6f770000000000604082015260600190565b6020808252602a908201527f5361666545524332303a204552433230206f7065726174696f6e20646964206e60408201527f6f74207375636365656400000000000000000000000000000000000000000000606082015260800190565b6020808252601c908201527f43616e6e6f742077697468647261772072657761726420746f6b656e00000000604082015260600190565b6020808252601f908201527f5265656e7472616e637947756172643a207265656e7472616e742063616c6c00604082015260600190565b60208082526018908201527f426f72696e674d6174683a204d756c204f766572666c6f770000000000000000604082015260600190565b6020808252601b908201527f426f72696e674d6174683a2075696e743430204f766572666c6f770000000000604082015260600190565b6001600160701b0391909116815260200190565b6001600160701b03938416815291909216602082015263ffffffff909116604082015260600190565b6001600160e01b0392909216825263ffffffff16602082015260400190565b90815260200190565b9283526001600160701b03918216602084015216604082015260600190565b918252602082015260400190565b6000608082018683526020868185015260408681860152606060808187015283875180865260a0880191508489019550865b8181101561423257865180516001600160701b03908116855287820151168785015285015163ffffffff168584015295850195918301916001016141f3565b50909b9a5050505050505050505050565b60ff91909116815260200190565b60005b8381101561426c578181015183820152602001614254565b838111156124225750506000910152565b6001600160a01b038116811461429257600080fd5b50565b801515811461429257600080fdfea26469706673582212206b68f7b64ec6051e3269054a96550420ddfb797e0a90ddddff959e328bb0d50364736f6c634300060c0033"
  }
}