{"compiler":"v0.6.12+commit.27d51765","opcodeHash":"0x547fa33d0a50556574180dd4552dd5339ad44edbca1714a19dd901f0f223c901","metalessHash":"0x4cbc59dc00d7499d97981ed83ec538629a2e8f9cf896fb5882a66e5391c2c7ab","runtimeHash":"0x8d679dad7c2be747c3b9a8279dce8b7cfa89829e8e63ffc7fef442ff4c8ff817","encodedMetadata":[{"ipfs":"/ipfs/QmX3zkeN6YNRSVwqG5yEoGfgAPVuzT4faqKZmsaWvsKSDu","solc":"0.6.12"}],"abi":[{"anonymous":false,"inputs":[{"indexed":true,"internalType":"address","name":"owner","type":"address"},{"indexed":true,"internalType":"address","name":"spender","type":"address"},{"indexed":false,"internalType":"uint256","name":"value","type":"uint256"}],"name":"Approval","type":"event"},{"anonymous":false,"inputs":[{"indexed":true,"internalType":"address","name":"previousOwner","type":"address"},{"indexed":true,"internalType":"address","name":"newOwner","type":"address"}],"name":"OwnershipTransferred","type":"event"},{"anonymous":false,"inputs":[{"indexed":true,"internalType":"address","name":"from","type":"address"},{"indexed":true,"internalType":"address","name":"to","type":"address"},{"indexed":false,"internalType":"uint256","name":"value","type":"uint256"}],"name":"Transfer","type":"event"},{"inputs":[],"name":"GAMES_PER_EPOCH","outputs":[{"internalType":"uint256","name":"","type":"uint256"}],"stateMutability":"view","type":"function"},{"inputs":[],"name":"PRECISION","outputs":[{"internalType":"uint256","name":"","type":"uint256"}],"stateMutability":"view","type":"function"},{"inputs":[],"name":"TOTAL_ALLOCATED","outputs":[{"internalType":"uint256","name":"","type":"uint256"}],"stateMutability":"view","type":"function"},{"inputs":[{"internalType":"address","name":"owner","type":"address"},{"internalType":"address","name":"spender","type":"address"}],"name":"allowance","outputs":[{"internalType":"uint256","name":"","type":"uint256"}],"stateMutability":"view","type":"function"},{"inputs":[{"internalType":"address","name":"spender","type":"address"},{"internalType":"uint256","name":"amount","type":"uint256"}],"name":"approve","outputs":[{"internalType":"bool","name":"","type":"bool"}],"stateMutability":"nonpayable","type":"function"},{"inputs":[{"internalType":"address","name":"account","type":"address"}],"name":"balanceOf","outputs":[{"internalType":"uint256","name":"","type":"uint256"}],"stateMutability":"view","type":"function"},{"inputs":[{"internalType":"address","name":"","type":"address"}],"name":"balances","outputs":[{"internalType":"uint256","name":"lastGameId","type":"uint256"},{"internalType":"uint256","name":"balance","type":"uint256"},{"internalType":"uint256","name":"at","type":"uint256"}],"stateMutability":"view","type":"function"},{"inputs":[{"internalType":"address","name":"account","type":"address"},{"internalType":"uint256","name":"amount","type":"uint256"}],"name":"burn","outputs":[],"stateMutability":"nonpayable","type":"function"},{"inputs":[],"name":"decimals","outputs":[{"internalType":"uint8","name":"","type":"uint8"}],"stateMutability":"view","type":"function"},{"inputs":[{"internalType":"address","name":"spender","type":"address"},{"internalType":"uint256","name":"subtractedValue","type":"uint256"}],"name":"decreaseAllowance","outputs":[{"internalType":"bool","name":"","type":"bool"}],"stateMutability":"nonpayable","type":"function"},{"inputs":[{"internalType":"uint256","name":"","type":"uint256"}],"name":"epochs","outputs":[{"internalType":"uint256","name":"totalFees","type":"uint256"},{"internalType":"uint256","name":"minParticipationFee","type":"uint256"},{"internalType":"uint256","name":"firstLotteryId","type":"uint256"},{"internalType":"uint256","name":"lastLotteryId","type":"uint256"}],"stateMutability":"view","type":"function"},{"inputs":[],"name":"epochsCount","outputs":[{"internalType":"uint256","name":"","type":"uint256"}],"stateMutability":"view","type":"function"},{"inputs":[{"internalType":"uint256","name":"_participants","type":"uint256"},{"internalType":"address","name":"_winnerAddress","type":"address"},{"internalType":"address","name":"_marketingAddress","type":"address"},{"internalType":"uint256","name":"_winningPrizeValue","type":"uint256"},{"internalType":"uint256","name":"_marketingFeeValue","type":"uint256"}],"name":"finishLottery","outputs":[{"components":[{"internalType":"uint256","name":"id","type":"uint256"},{"internalType":"uint256","name":"participationFee","type":"uint256"},{"internalType":"uint256","name":"startedAt","type":"uint256"},{"internalType":"uint256","name":"finishedAt","type":"uint256"},{"internalType":"uint256","name":"participants","type":"uint256"},{"internalType":"address","name":"winner","type":"address"},{"internalType":"uint256","name":"epochId","type":"uint256"},{"internalType":"uint256","name":"winningPrize","type":"uint256"},{"internalType":"bool","name":"isActive","type":"bool"}],"internalType":"struct ILotteryToken.Lottery","name":"finishedLotteryGame","type":"tuple"}],"stateMutability":"nonpayable","type":"function"},{"inputs":[{"internalType":"address","name":"spender","type":"address"},{"internalType":"uint256","name":"addedValue","type":"uint256"}],"name":"increaseAllowance","outputs":[{"internalType":"bool","name":"","type":"bool"}],"stateMutability":"nonpayable","type":"function"},{"inputs":[{"internalType":"address","name":"_lotteryGame","type":"address"},{"internalType":"address","name":"_addressTyler","type":"address"}],"name":"initialize","outputs":[],"stateMutability":"nonpayable","type":"function"},{"inputs":[],"name":"isTransferLocked","outputs":[{"internalType":"bool","name":"","type":"bool"}],"stateMutability":"view","type":"function"},{"inputs":[],"name":"lastEpoch","outputs":[{"components":[{"internalType":"uint256","name":"totalFees","type":"uint256"},{"internalType":"uint256","name":"minParticipationFee","type":"uint256"},{"internalType":"uint256","name":"firstLotteryId","type":"uint256"},{"internalType":"uint256","name":"lastLotteryId","type":"uint256"}],"internalType":"struct ILotteryToken.Epoch","name":"epoch","type":"tuple"}],"stateMutability":"view","type":"function"},{"inputs":[],"name":"lastLottery","outputs":[{"components":[{"internalType":"uint256","name":"id","type":"uint256"},{"internalType":"uint256","name":"participationFee","type":"uint256"},{"internalType":"uint256","name":"startedAt","type":"uint256"},{"internalType":"uint256","name":"finishedAt","type":"uint256"},{"internalType":"uint256","name":"participants","type":"uint256"},{"internalType":"address","name":"winner","type":"address"},{"internalType":"uint256","name":"epochId","type":"uint256"},{"internalType":"uint256","name":"winningPrize","type":"uint256"},{"internalType":"bool","name":"isActive","type":"bool"}],"internalType":"struct ILotteryToken.Lottery","name":"lottery","type":"tuple"}],"stateMutability":"view","type":"function"},{"inputs":[],"name":"lockTransfer","outputs":[],"stateMutability":"nonpayable","type":"function"},{"inputs":[{"internalType":"uint256","name":"","type":"uint256"}],"name":"lotteries","outputs":[{"internalType":"uint256","name":"id","type":"uint256"},{"internalType":"uint256","name":"participationFee","type":"uint256"},{"internalType":"uint256","name":"startedAt","type":"uint256"},{"internalType":"uint256","name":"finishedAt","type":"uint256"},{"internalType":"uint256","name":"participants","type":"uint256"},{"internalType":"address","name":"winner","type":"address"},{"internalType":"uint256","name":"epochId","type":"uint256"},{"internalType":"uint256","name":"winningPrize","type":"uint256"},{"internalType":"bool","name":"isActive","type":"bool"}],"stateMutability":"view","type":"function"},{"inputs":[],"name":"lotteriesCount","outputs":[{"internalType":"uint256","name":"","type":"uint256"}],"stateMutability":"view","type":"function"},{"inputs":[],"name":"lotteryGame","outputs":[{"internalType":"contract ILotteryGame","name":"","type":"address"}],"stateMutability":"view","type":"function"},{"inputs":[],"name":"name","outputs":[{"internalType":"string","name":"","type":"string"}],"stateMutability":"view","type":"function"},{"inputs":[],"name":"owner","outputs":[{"internalType":"address","name":"","type":"address"}],"stateMutability":"view","type":"function"},{"inputs":[{"internalType":"uint256","name":"","type":"uint256"}],"name":"participants","outputs":[{"internalType":"address","name":"","type":"address"}],"stateMutability":"view","type":"function"},{"inputs":[{"internalType":"uint256","name":"from","type":"uint256"},{"internalType":"uint256","name":"count","type":"uint256"}],"name":"participantsBalances","outputs":[{"internalType":"address[]","name":"participantAddresses","type":"address[]"},{"internalType":"uint256[]","name":"participantBalances","type":"uint256[]"}],"stateMutability":"view","type":"function"},{"inputs":[],"name":"participantsCount","outputs":[{"internalType":"uint256","name":"","type":"uint256"}],"stateMutability":"view","type":"function"},{"inputs":[],"name":"renounceOwnership","outputs":[],"stateMutability":"nonpayable","type":"function"},{"inputs":[{"internalType":"uint256","name":"_participationFee","type":"uint256"}],"name":"startLottery","outputs":[{"components":[{"internalType":"uint256","name":"id","type":"uint256"},{"internalType":"uint256","name":"participationFee","type":"uint256"},{"internalType":"uint256","name":"startedAt","type":"uint256"},{"internalType":"uint256","name":"finishedAt","type":"uint256"},{"internalType":"uint256","name":"participants","type":"uint256"},{"internalType":"address","name":"winner","type":"address"},{"internalType":"uint256","name":"epochId","type":"uint256"},{"internalType":"uint256","name":"winningPrize","type":"uint256"},{"internalType":"bool","name":"isActive","type":"bool"}],"internalType":"struct ILotteryToken.Lottery","name":"_lotteryGame","type":"tuple"}],"stateMutability":"nonpayable","type":"function"},{"inputs":[],"name":"symbol","outputs":[{"internalType":"string","name":"","type":"string"}],"stateMutability":"view","type":"function"},{"inputs":[],"name":"totalSupply","outputs":[{"internalType":"uint256","name":"","type":"uint256"}],"stateMutability":"view","type":"function"},{"inputs":[{"internalType":"address","name":"recipient","type":"address"},{"internalType":"uint256","name":"amount","type":"uint256"}],"name":"transfer","outputs":[{"internalType":"bool","name":"","type":"bool"}],"stateMutability":"nonpayable","type":"function"},{"inputs":[{"internalType":"address","name":"sender","type":"address"},{"internalType":"address","name":"recipient","type":"address"},{"internalType":"uint256","name":"amount","type":"uint256"}],"name":"transferFrom","outputs":[{"internalType":"bool","name":"","type":"bool"}],"stateMutability":"nonpayable","type":"function"},{"inputs":[{"internalType":"address","name":"newOwner","type":"address"}],"name":"transferOwnership","outputs":[],"stateMutability":"nonpayable","type":"function"},{"inputs":[],"name":"unlockTransfer","outputs":[],"stateMutability":"nonpayable","type":"function"}],"bytecode":{"object":"608060405234801561001057600080fd5b5061471d806100206000396000f3fe608060405234801561001057600080fd5b50600436106102115760003560e01c80638da5cb5b11610125578063ac5c0e7a116100ad578063c6b61e4c1161007c578063c6b61e4c1461062b578063c6bec93a1461065e578063dd60c8981461068e578063dd62ed3e146106ac578063f2fde38b146106dc57610211565b8063ac5c0e7a146105b5578063af0b4b27146105e5578063bf6d9abd14610603578063c433cfad1461060d57610211565b80639dc29fac116100f45780639dc29fac146104fd578063a01c62f714610519578063a457c2d714610537578063a9059cbb14610567578063aaf5eb681461059757610211565b80638da5cb5b14610485578063916e1c57146104a357806393d39240146104c157806395d89b41146104df57610211565b8063278c5dea116101a8578063395093511161017757806339509351146103e1578063485cc9551461041157806350d9533e1461042d57806370a082311461044b578063715018a61461047b57610211565b8063278c5dea1461033057806327e235e314610361578063313ce5671461039357806335c1d349146103b157610211565b806318160ddd116101e457806318160ddd146102ba5780631a9aea0a146102d85780631be929fa146102e257806323b872dd1461030057610211565b806306a4c9831461021657806306fdde0314610234578063095ea7b3146102525780631398e07614610282575b600080fd5b61021e6106f8565b60405161022b9190614363565b60405180910390f35b61023c61075b565b6040516102499190614181565b60405180910390f35b61026c6004803603810190610267919061383c565b6107fd565b604051610279919061414b565b60405180910390f35b61029c60048036038101906102979190613878565b61081b565b6040516102b199989796959493929190614431565b60405180910390f35b6102c26108a3565b6040516102cf919061439a565b60405180910390f35b6102e06108ad565b005b6102ea61095a565b6040516102f7919061439a565b60405180910390f35b61031a600480360381019061031591906137ed565b610962565b604051610327919061414b565b60405180910390f35b61034a60048036038101906103459190613918565b610a3b565b604051610358929190614114565b60405180910390f35b61037b60048036038101906103769190613788565b610c02565b60405161038a939291906143b5565b60405180910390f35b61039b610c2c565b6040516103a891906144be565b60405180910390f35b6103cb60048036038101906103c69190613878565b610c43565b6040516103d891906140f9565b60405180910390f35b6103fb60048036038101906103f6919061383c565b610c7f565b604051610408919061414b565b60405180910390f35b61042b600480360381019061042691906137b1565b610d32565b005b6104356110b7565b604051610442919061439a565b60405180910390f35b61046560048036038101906104609190613788565b6110c4565b604051610472919061439a565b60405180910390f35b610483611269565b005b61048d6113c1565b60405161049a91906140f9565b60405180910390f35b6104ab6113eb565b6040516104b8919061439a565b60405180910390f35b6104c96113f8565b6040516104d6919061439a565b60405180910390f35b6104e76113fd565b6040516104f49190614181565b60405180910390f35b6105176004803603810190610512919061383c565b61149f565b005b610521611544565b60405161052e919061414b565b60405180910390f35b610551600480360381019061054c919061383c565b611557565b60405161055e919061414b565b60405180910390f35b610581600480360381019061057c919061383c565b611624565b60405161058e919061414b565b60405180910390f35b61059f611642565b6040516105ac919061439a565b60405180910390f35b6105cf60048036038101906105ca91906138a1565b61164e565b6040516105dc919061437e565b60405180910390f35b6105ed611b0c565b6040516105fa919061437e565b60405180910390f35b61060b611c76565b005b610615611d23565b6040516106229190614166565b60405180910390f35b61064560048036038101906106409190613878565b611d49565b60405161065594939291906143ec565b60405180910390f35b61067860048036038101906106739190613878565b611d86565b604051610685919061437e565b60405180910390f35b6106966121c5565b6040516106a3919061439a565b60405180910390f35b6106c660048036038101906106c191906137b1565b6121d2565b6040516106d3919061439a565b60405180910390f35b6106f660048036038101906106f19190613788565b612259565b005b610700613635565b609d6001609d80549050038154811061071557fe5b9060005260206000209060040201604051806080016040529081600082015481526020016001820154815260200160028201548152602001600382015481525050905090565b6060609a8054600181600116156101000203166002900480601f0160208091040260200160405190810160405280929190818152602001828054600181600116156101000203166002900480156107f35780601f106107c8576101008083540402835291602001916107f3565b820191906000526020600020905b8154815290600101906020018083116107d657829003601f168201915b5050505050905090565b600061081161080a612420565b8484612428565b6001905092915050565b609e818154811061082857fe5b90600052602060002090600902016000915090508060000154908060010154908060020154908060030154908060040154908060050160009054906101000a900473ffffffffffffffffffffffffffffffffffffffff16908060060154908060070154908060080160009054906101000a900460ff16905089565b6000609954905090565b60a260009054906101000a900473ffffffffffffffffffffffffffffffffffffffff1673ffffffffffffffffffffffffffffffffffffffff163373ffffffffffffffffffffffffffffffffffffffff161461093d576040517f08c379a000000000000000000000000000000000000000000000000000000000815260040161093490614223565b60405180910390fd5b6001609f60006101000a81548160ff021916908315150217905550565b637735940081565b600061096f8484846125f3565b610a308461097b612420565b610a2b8560405180606001604052806028815260200161469b60289139609860008b73ffffffffffffffffffffffffffffffffffffffff1673ffffffffffffffffffffffffffffffffffffffff16815260200190815260200160002060006109e1612420565b73ffffffffffffffffffffffffffffffffffffffff1673ffffffffffffffffffffffffffffffffffffffff168152602001908152602001600020546129be9092919063ffffffff16565b612428565b600190509392505050565b606080600060a0805490508486011115610a6c57610a678560a080549050612a1990919063ffffffff16565b610a6e565b835b90508067ffffffffffffffff81118015610a8757600080fd5b50604051908082528060200260200182016040528015610ab65781602001602082028036833780820191505090505b5092508067ffffffffffffffff81118015610ad057600080fd5b50604051908082528060200260200182016040528015610aff5781602001602082028036833780820191505090505b50915060008590505b818601811015610bf95760a08181548110610b1f57fe5b9060005260206000200160009054906101000a900473ffffffffffffffffffffffffffffffffffffffff168487830381518110610b5857fe5b602002602001019073ffffffffffffffffffffffffffffffffffffffff16908173ffffffffffffffffffffffffffffffffffffffff1681525050610bd260a08281548110610ba257fe5b9060005260206000200160009054906101000a900473ffffffffffffffffffffffffffffffffffffffff166110c4565b8387830381518110610be057fe5b6020026020010181815250508080600101915050610b08565b50509250929050565b60a16020528060005260406000206000915090508060000154908060010154908060020154905083565b6000609c60009054906101000a900460ff16905090565b60a08181548110610c5057fe5b906000526020600020016000915054906101000a900473ffffffffffffffffffffffffffffffffffffffff1681565b6000610d28610c8c612420565b84610d238560986000610c9d612420565b73ffffffffffffffffffffffffffffffffffffffff1673ffffffffffffffffffffffffffffffffffffffff16815260200190815260200160002060008973ffffffffffffffffffffffffffffffffffffffff1673ffffffffffffffffffffffffffffffffffffffff16815260200190815260200160002054612a6390919063ffffffff16565b612428565b6001905092915050565b600060019054906101000a900460ff1680610d515750610d50612ab8565b5b80610d67575060008054906101000a900460ff16155b610da6576040517f08c379a0000000000000000000000000000000000000000000000000000000008152600401610d9d906142c3565b60405180910390fd5b60008060019054906101000a900460ff161590508015610df6576001600060016101000a81548160ff02191690831515021790555060016000806101000a81548160ff0219169083151502179055505b610e6a6040518060400160405280600581526020017f4c6f74746f0000000000000000000000000000000000000000000000000000008152506040518060400160405280600581526020017f4c4f54544f000000000000000000000000000000000000000000000000000000815250612acf565b610e72612bcb565b8260a260006101000a81548173ffffffffffffffffffffffffffffffffffffffff021916908373ffffffffffffffffffffffffffffffffffffffff160217905550610edb82610ed6670de0b6b3a76400006377359400612cc390919063ffffffff16565b612d33565b609d604051806080016040528060008152602001600081526020016000815260200160008152509080600181540180825580915050600190039060005260206000209060040201600090919091909150600082015181600001556020820151816001015560408201518160020155606082015181600301555050609e6040518061012001604052806000815260200160008152602001600081526020016000815260200160008152602001600073ffffffffffffffffffffffffffffffffffffffff1681526020016000815260200160008152602001600015158152509080600181540180825580915050600190039060005260206000209060090201600090919091909150600082015181600001556020820151816001015560408201518160020155606082015181600301556080820151816004015560a08201518160050160006101000a81548173ffffffffffffffffffffffffffffffffffffffff021916908373ffffffffffffffffffffffffffffffffffffffff16021790555060c0820151816006015560e082015181600701556101008201518160080160006101000a81548160ff021916908315150217905550505080156110b25760008060016101000a81548160ff0219169083151502179055505b505050565b6000609e80549050905090565b60008060a160008473ffffffffffffffffffffffffffffffffffffffff1673ffffffffffffffffffffffffffffffffffffffff16815260200190815260200160002090506000609e805490501480611120575060008160010154145b15611132578060010154915050611264565b6000609e82600001548154811061114557fe5b906000526020600020906009020190506000609d82600601548154811061116857fe5b906000526020600020906004020190506000836001015490508360000154826003015411156111aa576111a78160018660000154018460030154612fef565b90505b609d805490506001846006015401101561125c576000600184600601540190505b609d80549050811080156111df5750600082115b1561125a57609d81815481106111f157fe5b906000526020600020906004020192508260000154821061122a57611223836000015483612a1990919063ffffffff16565b915061124d565b826001015482111561124c576112498284600201548560030154612fef565b91505b5b80806001019150506111cb565b505b809450505050505b919050565b611271612420565b73ffffffffffffffffffffffffffffffffffffffff16606560009054906101000a900473ffffffffffffffffffffffffffffffffffffffff1673ffffffffffffffffffffffffffffffffffffffff1614611300576040517f08c379a00000000000000000000000000000000000000000000000000000000081526004016112f7906142a3565b60405180910390fd5b600073ffffffffffffffffffffffffffffffffffffffff16606560009054906101000a900473ffffffffffffffffffffffffffffffffffffffff1673ffffffffffffffffffffffffffffffffffffffff167f8be0079c531659141344cd1fd0a4f28419497f9722a3daafe3b4186f6b6457e060405160405180910390a36000606560006101000a81548173ffffffffffffffffffffffffffffffffffffffff021916908373ffffffffffffffffffffffffffffffffffffffff160217905550565b6000606560009054906101000a900473ffffffffffffffffffffffffffffffffffffffff16905090565b6000609d80549050905090565b601e81565b6060609b8054600181600116156101000203166002900480601f0160208091040260200160405190810160405280929190818152602001828054600181600116156101000203166002900480156114955780601f1061146a57610100808354040283529160200191611495565b820191906000526020600020905b81548152906001019060200180831161147857829003601f168201915b5050505050905090565b6114a7612420565b73ffffffffffffffffffffffffffffffffffffffff16606560009054906101000a900473ffffffffffffffffffffffffffffffffffffffff1673ffffffffffffffffffffffffffffffffffffffff1614611536576040517f08c379a000000000000000000000000000000000000000000000000000000000815260040161152d906142a3565b60405180910390fd5b6115408282613068565b5050565b609f60009054906101000a900460ff1681565b600061161a611564612420565b84611615856040518060600160405280602581526020016146c3602591396098600061158e612420565b73ffffffffffffffffffffffffffffffffffffffff1673ffffffffffffffffffffffffffffffffffffffff16815260200190815260200160002060008a73ffffffffffffffffffffffffffffffffffffffff1673ffffffffffffffffffffffffffffffffffffffff168152602001908152602001600020546129be9092919063ffffffff16565b612428565b6001905092915050565b6000611638611631612420565b84846125f3565b6001905092915050565b670de0b6b3a764000081565b61165661365d565b60a260009054906101000a900473ffffffffffffffffffffffffffffffffffffffff1673ffffffffffffffffffffffffffffffffffffffff163373ffffffffffffffffffffffffffffffffffffffff16146116e6576040517f08c379a00000000000000000000000000000000000000000000000000000000081526004016116dd90614223565b60405180910390fd5b6000609e6001609e8054905003815481106116fd57fe5b90600052602060002090600902019050600115158160080160009054906101000a900460ff16151514611765576040517f08c379a000000000000000000000000000000000000000000000000000000000815260040161175c906141c3565b60405180910390fd5b868160040181905550858160050160006101000a81548173ffffffffffffffffffffffffffffffffffffffff021916908373ffffffffffffffffffffffffffffffffffffffff16021790555083816007018190555042816003018190555060008160080160006101000a81548160ff0219169083151502179055506000609d8260060154815481106117f357fe5b906000526020600020906004020190508160000154816003018190555061182b82600101548260000154612a6390919063ffffffff16565b81600001819055506000611850866118428a6110c4565b612a6390919063ffffffff16565b90506040518060600160405280846000015481526020018281526020014281525060a160008a73ffffffffffffffffffffffffffffffffffffffff1673ffffffffffffffffffffffffffffffffffffffff1681526020019081526020016000206000820151816000015560208201518160010155604082015181600201559050508773ffffffffffffffffffffffffffffffffffffffff163073ffffffffffffffffffffffffffffffffffffffff167fddf252ad1be2c89b69c2b068fc378daa952ba7f163c4a11628f55a4df523b3ef8860405161192e919061439a565b60405180910390a36000611953866119458a6110c4565b612a6390919063ffffffff16565b90506040518060600160405280856000015481526020018281526020014281525060a160008a73ffffffffffffffffffffffffffffffffffffffff1673ffffffffffffffffffffffffffffffffffffffff1681526020019081526020016000206000820151816000015560208201518160010155604082015181600201559050508773ffffffffffffffffffffffffffffffffffffffff163073ffffffffffffffffffffffffffffffffffffffff167fddf252ad1be2c89b69c2b068fc378daa952ba7f163c4a11628f55a4df523b3ef88604051611a31919061439a565b60405180910390a3836040518061012001604052908160008201548152602001600182015481526020016002820154815260200160038201548152602001600482015481526020016005820160009054906101000a900473ffffffffffffffffffffffffffffffffffffffff1673ffffffffffffffffffffffffffffffffffffffff1673ffffffffffffffffffffffffffffffffffffffff16815260200160068201548152602001600782015481526020016008820160009054906101000a900460ff16151515158152505094505050505095945050505050565b611b1461365d565b6000609e805490501415611b8a576040518061012001604052806000815260200160008152602001600081526020016000815260200160008152602001600073ffffffffffffffffffffffffffffffffffffffff1681526020016000815260200160008152602001600015158152509050611c73565b609e6001609e805490500381548110611b9f57fe5b90600052602060002090600902016040518061012001604052908160008201548152602001600182015481526020016002820154815260200160038201548152602001600482015481526020016005820160009054906101000a900473ffffffffffffffffffffffffffffffffffffffff1673ffffffffffffffffffffffffffffffffffffffff1673ffffffffffffffffffffffffffffffffffffffff16815260200160068201548152602001600782015481526020016008820160009054906101000a900460ff16151515158152505090505b90565b60a260009054906101000a900473ffffffffffffffffffffffffffffffffffffffff1673ffffffffffffffffffffffffffffffffffffffff163373ffffffffffffffffffffffffffffffffffffffff1614611d06576040517f08c379a0000000000000000000000000000000000000000000000000000000008152600401611cfd90614223565b60405180910390fd5b6000609f60006101000a81548160ff021916908315150217905550565b60a260009054906101000a900473ffffffffffffffffffffffffffffffffffffffff1681565b609d8181548110611d5657fe5b90600052602060002090600402016000915090508060000154908060010154908060020154908060030154905084565b611d8e61365d565b60a260009054906101000a900473ffffffffffffffffffffffffffffffffffffffff1673ffffffffffffffffffffffffffffffffffffffff163373ffffffffffffffffffffffffffffffffffffffff1614611e1e576040517f08c379a0000000000000000000000000000000000000000000000000000000008152600401611e1590614223565b60405180910390fd5b6000609e6001609e805490500381548110611e3557fe5b90600052602060002090600902019050600081600301541415611e795742816003018190555060008160080160006101000a81548160ff0219169083151502179055505b6000609d6001609d805490500381548110611e9057fe5b906000526020600020906004020190506000609e805490509050601e8260020154820310611f675782600001548260030181905550609d60405180608001604052806000815260200187815260200183815260200160008152509080600181540180825580915050600190039060005260206000209060040201600090919091909150600082015181600001556020820151816001015560408201518160020155606082015181600301555050609d6001609d805490500381548110611f5257fe5b90600052602060002090600402019150611f95565b600082600101541415611f7e578482600101819055505b8482600101541115611f94578482600101819055505b5b609e6040518061012001604052808381526020018781526020014281526020016000815260200160008152602001600073ffffffffffffffffffffffffffffffffffffffff1681526020016001609d8054905003815260200160008152602001600115158152509080600181540180825580915050600190039060005260206000209060090201600090919091909150600082015181600001556020820151816001015560408201518160020155606082015181600301556080820151816004015560a08201518160050160006101000a81548173ffffffffffffffffffffffffffffffffffffffff021916908373ffffffffffffffffffffffffffffffffffffffff16021790555060c0820151816006015560e082015181600701556101008201518160080160006101000a81548160ff0219169083151502179055505050609e6001609e8054905003815481106120ea57fe5b90600052602060002090600902016040518061012001604052908160008201548152602001600182015481526020016002820154815260200160038201548152602001600482015481526020016005820160009054906101000a900473ffffffffffffffffffffffffffffffffffffffff1673ffffffffffffffffffffffffffffffffffffffff1673ffffffffffffffffffffffffffffffffffffffff16815260200160068201548152602001600782015481526020016008820160009054906101000a900460ff1615151515815250509350505050919050565b600060a080549050905090565b6000609860008473ffffffffffffffffffffffffffffffffffffffff1673ffffffffffffffffffffffffffffffffffffffff16815260200190815260200160002060008373ffffffffffffffffffffffffffffffffffffffff1673ffffffffffffffffffffffffffffffffffffffff16815260200190815260200160002054905092915050565b612261612420565b73ffffffffffffffffffffffffffffffffffffffff16606560009054906101000a900473ffffffffffffffffffffffffffffffffffffffff1673ffffffffffffffffffffffffffffffffffffffff16146122f0576040517f08c379a00000000000000000000000000000000000000000000000000000000081526004016122e7906142a3565b60405180910390fd5b600073ffffffffffffffffffffffffffffffffffffffff168173ffffffffffffffffffffffffffffffffffffffff161415612360576040517f08c379a0000000000000000000000000000000000000000000000000000000008152600401612357906141e3565b60405180910390fd5b8073ffffffffffffffffffffffffffffffffffffffff16606560009054906101000a900473ffffffffffffffffffffffffffffffffffffffff1673ffffffffffffffffffffffffffffffffffffffff167f8be0079c531659141344cd1fd0a4f28419497f9722a3daafe3b4186f6b6457e060405160405180910390a380606560006101000a81548173ffffffffffffffffffffffffffffffffffffffff021916908373ffffffffffffffffffffffffffffffffffffffff16021790555050565b600033905090565b600073ffffffffffffffffffffffffffffffffffffffff168373ffffffffffffffffffffffffffffffffffffffff161415612498576040517f08c379a000000000000000000000000000000000000000000000000000000000815260040161248f90614323565b60405180910390fd5b600073ffffffffffffffffffffffffffffffffffffffff168273ffffffffffffffffffffffffffffffffffffffff161415612508576040517f08c379a00000000000000000000000000000000000000000000000000000000081526004016124ff90614203565b60405180910390fd5b80609860008573ffffffffffffffffffffffffffffffffffffffff1673ffffffffffffffffffffffffffffffffffffffff16815260200190815260200160002060008473ffffffffffffffffffffffffffffffffffffffff1673ffffffffffffffffffffffffffffffffffffffff168152602001908152602001600020819055508173ffffffffffffffffffffffffffffffffffffffff168373ffffffffffffffffffffffffffffffffffffffff167f8c5be1e5ebec7d5bd14f71427d1e84f3dd0314c0f7b2291e5b200ac8c7c3b925836040516125e6919061439a565b60405180910390a3505050565b600073ffffffffffffffffffffffffffffffffffffffff168373ffffffffffffffffffffffffffffffffffffffff161415612663576040517f08c379a000000000000000000000000000000000000000000000000000000000815260040161265a90614303565b60405180910390fd5b600073ffffffffffffffffffffffffffffffffffffffff168273ffffffffffffffffffffffffffffffffffffffff1614156126d3576040517f08c379a00000000000000000000000000000000000000000000000000000000081526004016126ca906141a3565b60405180910390fd5b609f60009054906101000a900460ff1615612723576040517f08c379a000000000000000000000000000000000000000000000000000000000815260040161271a90614263565b60405180910390fd5b61272e838383613283565b60006127658260405180606001604052806026815260200161467560269139612756876110c4565b6129be9092919063ffffffff16565b905061276f61365d565b612777611b0c565b90506040518060600160405280826000015181526020018381526020014281525060a160008773ffffffffffffffffffffffffffffffffffffffff1673ffffffffffffffffffffffffffffffffffffffff168152602001908152602001600020600082015181600001556020820151816001015560408201518160020155905050600060a160008673ffffffffffffffffffffffffffffffffffffffff1673ffffffffffffffffffffffffffffffffffffffff1681526020019081526020016000206002015414801561284a5750600083115b156128b35760a0849080600181540180825580915050600190039060005260206000200160009091909190916101000a81548173ffffffffffffffffffffffffffffffffffffffff021916908373ffffffffffffffffffffffffffffffffffffffff1602179055505b60006128d0846128c2876110c4565b612a6390919063ffffffff16565b90506040518060600160405280836000015181526020018281526020014281525060a160008773ffffffffffffffffffffffffffffffffffffffff1673ffffffffffffffffffffffffffffffffffffffff1681526020019081526020016000206000820151816000015560208201518160010155604082015181600201559050508473ffffffffffffffffffffffffffffffffffffffff168673ffffffffffffffffffffffffffffffffffffffff167fddf252ad1be2c89b69c2b068fc378daa952ba7f163c4a11628f55a4df523b3ef866040516129ae919061439a565b60405180910390a3505050505050565b6000838311158290612a06576040517f08c379a00000000000000000000000000000000000000000000000000000000081526004016129fd9190614181565b60405180910390fd5b5060008385039050809150509392505050565b6000612a5b83836040518060400160405280601e81526020017f536166654d6174683a207375627472616374696f6e206f766572666c6f7700008152506129be565b905092915050565b600080828401905083811015612aae576040517f08c379a0000000000000000000000000000000000000000000000000000000008152600401612aa590614243565b60405180910390fd5b8091505092915050565b6000803090506000813b9050600081149250505090565b600060019054906101000a900460ff1680612aee5750612aed612ab8565b5b80612b04575060008054906101000a900460ff16155b612b43576040517f08c379a0000000000000000000000000000000000000000000000000000000008152600401612b3a906142c3565b60405180910390fd5b60008060019054906101000a900460ff161590508015612b93576001600060016101000a81548160ff02191690831515021790555060016000806101000a81548160ff0219169083151502179055505b612b9b613288565b612ba58383613370565b8015612bc65760008060016101000a81548160ff0219169083151502179055505b505050565b600060019054906101000a900460ff1680612bea5750612be9612ab8565b5b80612c00575060008054906101000a900460ff16155b612c3f576040517f08c379a0000000000000000000000000000000000000000000000000000000008152600401612c36906142c3565b60405180910390fd5b60008060019054906101000a900460ff161590508015612c8f576001600060016101000a81548160ff02191690831515021790555060016000806101000a81548160ff0219169083151502179055505b612c97613288565b612c9f6134a4565b8015612cc05760008060016101000a81548160ff0219169083151502179055505b50565b600080831415612cd65760009050612d2d565b6000828402905082848281612ce757fe5b0414612d28576040517f08c379a0000000000000000000000000000000000000000000000000000000008152600401612d1f90614283565b60405180910390fd5b809150505b92915050565b600073ffffffffffffffffffffffffffffffffffffffff168273ffffffffffffffffffffffffffffffffffffffff161415612da3576040517f08c379a0000000000000000000000000000000000000000000000000000000008152600401612d9a90614343565b60405180910390fd5b6000612dc082612db2856110c4565b612a6390919063ffffffff16565b9050600060a160008573ffffffffffffffffffffffffffffffffffffffff1673ffffffffffffffffffffffffffffffffffffffff16815260200190815260200160002060020154148015612e145750600082115b15612e7d5760a0839080600181540180825580915050600190039060005260206000200160009091909190916101000a81548173ffffffffffffffffffffffffffffffffffffffff021916908373ffffffffffffffffffffffffffffffffffffffff1602179055505b612e8561365d565b612e8d611b0c565b9050806000015160a160008673ffffffffffffffffffffffffffffffffffffffff1673ffffffffffffffffffffffffffffffffffffffff168152602001908152602001600020600001819055508160a160008673ffffffffffffffffffffffffffffffffffffffff1673ffffffffffffffffffffffffffffffffffffffff168152602001908152602001600020600101819055504260a160008673ffffffffffffffffffffffffffffffffffffffff1673ffffffffffffffffffffffffffffffffffffffff16815260200190815260200160002060020181905550612f7d83609954612a6390919063ffffffff16565b6099819055508373ffffffffffffffffffffffffffffffffffffffff16600073ffffffffffffffffffffffffffffffffffffffff167fddf252ad1be2c89b69c2b068fc378daa952ba7f163c4a11628f55a4df523b3ef85604051612fe1919061439a565b60405180910390a350505050565b6000808390505b8281111580156130065750600085115b1561305d576000609e828154811061301a57fe5b906000526020600020906009020190508060010154861061304f5761304c816001015487612a1990919063ffffffff16565b95505b508080600101915050612ff6565b508390509392505050565b600073ffffffffffffffffffffffffffffffffffffffff168273ffffffffffffffffffffffffffffffffffffffff1614156130d8576040517f08c379a00000000000000000000000000000000000000000000000000000000081526004016130cf906142e3565b60405180910390fd5b600061310f8260405180606001604052806022815260200161465360229139613100866110c4565b6129be9092919063ffffffff16565b905061311961365d565b613121611b0c565b9050806000015160a160008673ffffffffffffffffffffffffffffffffffffffff1673ffffffffffffffffffffffffffffffffffffffff168152602001908152602001600020600001819055508160a160008673ffffffffffffffffffffffffffffffffffffffff1673ffffffffffffffffffffffffffffffffffffffff168152602001908152602001600020600101819055504260a160008673ffffffffffffffffffffffffffffffffffffffff1673ffffffffffffffffffffffffffffffffffffffff1681526020019081526020016000206002018190555061321183609954612a1990919063ffffffff16565b609981905550600073ffffffffffffffffffffffffffffffffffffffff168473ffffffffffffffffffffffffffffffffffffffff167fddf252ad1be2c89b69c2b068fc378daa952ba7f163c4a11628f55a4df523b3ef85604051613275919061439a565b60405180910390a350505050565b505050565b600060019054906101000a900460ff16806132a757506132a6612ab8565b5b806132bd575060008054906101000a900460ff16155b6132fc576040517f08c379a00000000000000000000000000000000000000000000000000000000081526004016132f3906142c3565b60405180910390fd5b60008060019054906101000a900460ff16159050801561334c576001600060016101000a81548160ff02191690831515021790555060016000806101000a81548160ff0219169083151502179055505b801561336d5760008060016101000a81548160ff0219169083151502179055505b50565b600060019054906101000a900460ff168061338f575061338e612ab8565b5b806133a5575060008054906101000a900460ff16155b6133e4576040517f08c379a00000000000000000000000000000000000000000000000000000000081526004016133db906142c3565b60405180910390fd5b60008060019054906101000a900460ff161590508015613434576001600060016101000a81548160ff02191690831515021790555060016000806101000a81548160ff0219169083151502179055505b82609a908051906020019061344a9291906136c1565b5081609b90805190602001906134619291906136c1565b506012609c60006101000a81548160ff021916908360ff160217905550801561349f5760008060016101000a81548160ff0219169083151502179055505b505050565b600060019054906101000a900460ff16806134c357506134c2612ab8565b5b806134d9575060008054906101000a900460ff16155b613518576040517f08c379a000000000000000000000000000000000000000000000000000000000815260040161350f906142c3565b60405180910390fd5b60008060019054906101000a900460ff161590508015613568576001600060016101000a81548160ff02191690831515021790555060016000806101000a81548160ff0219169083151502179055505b6000613572612420565b905080606560006101000a81548173ffffffffffffffffffffffffffffffffffffffff021916908373ffffffffffffffffffffffffffffffffffffffff1602179055508073ffffffffffffffffffffffffffffffffffffffff16600073ffffffffffffffffffffffffffffffffffffffff167f8be0079c531659141344cd1fd0a4f28419497f9722a3daafe3b4186f6b6457e060405160405180910390a35080156136325760008060016101000a81548160ff0219169083151502179055505b50565b6040518060800160405280600081526020016000815260200160008152602001600081525090565b6040518061012001604052806000815260200160008152602001600081526020016000815260200160008152602001600073ffffffffffffffffffffffffffffffffffffffff16815260200160008152602001600081526020016000151581525090565b828054600181600116156101000203166002900490600052602060002090601f016020900481019282601f1061370257805160ff1916838001178555613730565b82800160010185558215613730579182015b8281111561372f578251825591602001919060010190613714565b5b50905061373d9190613741565b5090565b5b8082111561375a576000816000905550600101613742565b5090565b60008135905061376d81614624565b92915050565b6000813590506137828161463b565b92915050565b60006020828403121561379a57600080fd5b60006137a88482850161375e565b91505092915050565b600080604083850312156137c457600080fd5b60006137d28582860161375e565b92505060206137e38582860161375e565b9150509250929050565b60008060006060848603121561380257600080fd5b60006138108682870161375e565b93505060206138218682870161375e565b925050604061383286828701613773565b9150509250925092565b6000806040838503121561384f57600080fd5b600061385d8582860161375e565b925050602061386e85828601613773565b9150509250929050565b60006020828403121561388a57600080fd5b600061389884828501613773565b91505092915050565b600080600080600060a086880312156138b957600080fd5b60006138c788828901613773565b95505060206138d88882890161375e565b94505060406138e98882890161375e565b93505060606138fa88828901613773565b925050608061390b88828901613773565b9150509295509295909350565b6000806040838503121561392b57600080fd5b600061393985828601613773565b925050602061394a85828601613773565b9150509250929050565b60006139608383613984565b60208301905092915050565b600061397883836140cc565b60208301905092915050565b61398d81614567565b82525050565b61399c81614567565b82525050565b60006139ad826144f9565b6139b78185614534565b93506139c2836144d9565b8060005b838110156139f35781516139da8882613954565b97506139e58361451a565b9250506001810190506139c6565b5085935050505092915050565b6000613a0b82614504565b613a158185614545565b9350613a20836144e9565b8060005b83811015613a51578151613a38888261396c565b9750613a4383614527565b925050600181019050613a24565b5085935050505092915050565b613a6781614579565b82525050565b613a7681614579565b82525050565b613a85816145bc565b82525050565b6000613a968261450f565b613aa08185614556565b9350613ab08185602086016145e0565b613ab981614613565b840191505092915050565b6000613ad1602383614556565b91507f45524332303a207472616e7366657220746f20746865207a65726f206164647260008301527f65737300000000000000000000000000000000000000000000000000000000006020830152604082019050919050565b6000613b37601a83614556565b91507f4c6f74746572792067616d65206973206e6f74206163746976650000000000006000830152602082019050919050565b6000613b77602683614556565b91507f4f776e61626c653a206e6577206f776e657220697320746865207a65726f206160008301527f64647265737300000000000000000000000000000000000000000000000000006020830152604082019050919050565b6000613bdd602283614556565b91507f45524332303a20617070726f766520746f20746865207a65726f20616464726560008301527f73730000000000000000000000000000000000000000000000000000000000006020830152604082019050919050565b6000613c43602d83614556565b91507f4f6e6c7920616c6c6f77656420746f2063616c6c206279204c6f74746572792060008301527f67616d6520636f6e7472616374000000000000000000000000000000000000006020830152604082019050919050565b6000613ca9601b83614556565b91507f536166654d6174683a206164646974696f6e206f766572666c6f7700000000006000830152602082019050919050565b6000613ce9602d83614556565b91507f5468652047616d652069732072756e6e696e672c20616c6c207472616e73666560008301527f727320617265206c6f636b6564000000000000000000000000000000000000006020830152604082019050919050565b6000613d4f602183614556565b91507f536166654d6174683a206d756c7469706c69636174696f6e206f766572666c6f60008301527f77000000000000000000000000000000000000000000000000000000000000006020830152604082019050919050565b6000613db5602083614556565b91507f4f776e61626c653a2063616c6c6572206973206e6f7420746865206f776e65726000830152602082019050919050565b6000613df5602e83614556565b91507f436f6e747261637420696e7374616e63652068617320616c726561647920626560008301527f656e20696e697469616c697a65640000000000000000000000000000000000006020830152604082019050919050565b6000613e5b602183614556565b91507f45524332303a206275726e2066726f6d20746865207a65726f2061646472657360008301527f73000000000000000000000000000000000000000000000000000000000000006020830152604082019050919050565b6000613ec1602583614556565b91507f45524332303a207472616e736665722066726f6d20746865207a65726f20616460008301527f64726573730000000000000000000000000000000000000000000000000000006020830152604082019050919050565b6000613f27602483614556565b91507f45524332303a20617070726f76652066726f6d20746865207a65726f2061646460008301527f72657373000000000000000000000000000000000000000000000000000000006020830152604082019050919050565b6000613f8d601f83614556565b91507f45524332303a206d696e7420746f20746865207a65726f2061646472657373006000830152602082019050919050565b608082016000820151613fd660008501826140cc565b506020820151613fe960208501826140cc565b506040820151613ffc60408501826140cc565b50606082015161400f60608501826140cc565b50505050565b6101208201600082015161402c60008501826140cc565b50602082015161403f60208501826140cc565b50604082015161405260408501826140cc565b50606082015161406560608501826140cc565b50608082015161407860808501826140cc565b5060a082015161408b60a0850182613984565b5060c082015161409e60c08501826140cc565b5060e08201516140b160e08501826140cc565b506101008201516140c6610100850182613a5e565b50505050565b6140d5816145a5565b82525050565b6140e4816145a5565b82525050565b6140f3816145af565b82525050565b600060208201905061410e6000830184613993565b92915050565b6000604082019050818103600083015261412e81856139a2565b905081810360208301526141428184613a00565b90509392505050565b60006020820190506141606000830184613a6d565b92915050565b600060208201905061417b6000830184613a7c565b92915050565b6000602082019050818103600083015261419b8184613a8b565b905092915050565b600060208201905081810360008301526141bc81613ac4565b9050919050565b600060208201905081810360008301526141dc81613b2a565b9050919050565b600060208201905081810360008301526141fc81613b6a565b9050919050565b6000602082019050818103600083015261421c81613bd0565b9050919050565b6000602082019050818103600083015261423c81613c36565b9050919050565b6000602082019050818103600083015261425c81613c9c565b9050919050565b6000602082019050818103600083015261427c81613cdc565b9050919050565b6000602082019050818103600083015261429c81613d42565b9050919050565b600060208201905081810360008301526142bc81613da8565b9050919050565b600060208201905081810360008301526142dc81613de8565b9050919050565b600060208201905081810360008301526142fc81613e4e565b9050919050565b6000602082019050818103600083015261431c81613eb4565b9050919050565b6000602082019050818103600083015261433c81613f1a565b9050919050565b6000602082019050818103600083015261435c81613f80565b9050919050565b60006080820190506143786000830184613fc0565b92915050565b6000610120820190506143946000830184614015565b92915050565b60006020820190506143af60008301846140db565b92915050565b60006060820190506143ca60008301866140db565b6143d760208301856140db565b6143e460408301846140db565b949350505050565b600060808201905061440160008301876140db565b61440e60208301866140db565b61441b60408301856140db565b61442860608301846140db565b95945050505050565b600061012082019050614447600083018c6140db565b614454602083018b6140db565b614461604083018a6140db565b61446e60608301896140db565b61447b60808301886140db565b61448860a0830187613993565b61449560c08301866140db565b6144a260e08301856140db565b6144b0610100830184613a6d565b9a9950505050505050505050565b60006020820190506144d360008301846140ea565b92915050565b6000819050602082019050919050565b6000819050602082019050919050565b600081519050919050565b600081519050919050565b600081519050919050565b6000602082019050919050565b6000602082019050919050565b600082825260208201905092915050565b600082825260208201905092915050565b600082825260208201905092915050565b600061457282614585565b9050919050565b60008115159050919050565b600073ffffffffffffffffffffffffffffffffffffffff82169050919050565b6000819050919050565b600060ff82169050919050565b60006145c7826145ce565b9050919050565b60006145d982614585565b9050919050565b60005b838110156145fe5780820151818401526020810190506145e3565b8381111561460d576000848401525b50505050565b6000601f19601f8301169050919050565b61462d81614567565b811461463857600080fd5b50565b614644816145a5565b811461464f57600080fd5b5056fe45524332303a206275726e20616d6f756e7420657863656564732062616c616e636545524332303a207472616e7366657220616d6f756e7420657863656564732062616c616e636545524332303a207472616e7366657220616d6f756e74206578636565647320616c6c6f77616e636545524332303a2064656372656173656420616c6c6f77616e63652062656c6f77207a65726fa264697066735822122055f410215221cbf074b42dc9d42dd03dc2af9eafdb61c8a52d0d7b253df399af64736f6c634300060c0033"}}