{"compiler":"v0.8.7+commit.e28d00a7","opcodeHash":"0x10c1cf2e1ab07e3cab3338af0ff66cdf974eaecd2b018bc341e47d8ce952a5f6","metalessHash":"0xc1a496ad4d17b76bc4b4363a9009c97eabe9b388ade802a176b7f5f765df3d79","runtimeHash":"0xdcb763d98b5fbb919403ac973e000e6cbb4885f7df9a55913f80e1314e31c601","encodedMetadata":[{"ipfs":"/ipfs/Qmeg5VeoB4ugvZMueubZVR5L7SjM9FHyRpkqGnRdTcNBAA","solc":"0.8.7"}],"abi":[{"inputs":[],"stateMutability":"nonpayable","type":"constructor"},{"anonymous":false,"inputs":[{"indexed":true,"internalType":"address","name":"owner","type":"address"},{"indexed":true,"internalType":"address","name":"approved","type":"address"},{"indexed":true,"internalType":"uint256","name":"tokenId","type":"uint256"}],"name":"Approval","type":"event"},{"anonymous":false,"inputs":[{"indexed":true,"internalType":"address","name":"owner","type":"address"},{"indexed":true,"internalType":"address","name":"operator","type":"address"},{"indexed":false,"internalType":"bool","name":"approved","type":"bool"}],"name":"ApprovalForAll","type":"event"},{"anonymous":false,"inputs":[{"indexed":true,"internalType":"address","name":"previousOwner","type":"address"},{"indexed":true,"internalType":"address","name":"newOwner","type":"address"}],"name":"OwnershipTransferred","type":"event"},{"anonymous":false,"inputs":[{"indexed":false,"internalType":"address","name":"account","type":"address"}],"name":"Paused","type":"event"},{"anonymous":false,"inputs":[{"indexed":true,"internalType":"address","name":"from","type":"address"},{"indexed":true,"internalType":"address","name":"to","type":"address"},{"indexed":true,"internalType":"uint256","name":"tokenId","type":"uint256"}],"name":"Transfer","type":"event"},{"anonymous":false,"inputs":[{"indexed":false,"internalType":"address","name":"account","type":"address"}],"name":"Unpaused","type":"event"},{"inputs":[{"internalType":"address","name":"to","type":"address"},{"internalType":"uint256","name":"tokenId","type":"uint256"}],"name":"approve","outputs":[],"stateMutability":"nonpayable","type":"function"},{"inputs":[{"internalType":"address","name":"owner","type":"address"}],"name":"balanceOf","outputs":[{"internalType":"uint256","name":"","type":"uint256"}],"stateMutability":"view","type":"function"},{"inputs":[],"name":"baseTokenURI","outputs":[{"internalType":"string","name":"","type":"string"}],"stateMutability":"view","type":"function"},{"inputs":[{"internalType":"uint256","name":"tokenId","type":"uint256"}],"name":"burn","outputs":[],"stateMutability":"nonpayable","type":"function"},{"inputs":[{"internalType":"uint256","name":"tokenId","type":"uint256"}],"name":"getApproved","outputs":[{"internalType":"address","name":"","type":"address"}],"stateMutability":"view","type":"function"},{"inputs":[{"internalType":"uint256","name":"tokenId","type":"uint256"}],"name":"getToken","outputs":[{"internalType":"address","name":"","type":"address"},{"internalType":"string","name":"","type":"string"}],"stateMutability":"view","type":"function"},{"inputs":[],"name":"getTokenIds","outputs":[{"internalType":"uint16[]","name":"","type":"uint16[]"}],"stateMutability":"view","type":"function"},{"inputs":[],"name":"getTokenPrice","outputs":[{"internalType":"uint256","name":"","type":"uint256"}],"stateMutability":"view","type":"function"},{"inputs":[],"name":"getTotalSoldTokens","outputs":[{"internalType":"uint256","name":"","type":"uint256"}],"stateMutability":"view","type":"function"},{"inputs":[{"internalType":"address","name":"owner","type":"address"},{"internalType":"address","name":"operator","type":"address"}],"name":"isApprovedForAll","outputs":[{"internalType":"bool","name":"","type":"bool"}],"stateMutability":"view","type":"function"},{"inputs":[{"internalType":"address","name":"account","type":"address"},{"internalType":"uint256","name":"count","type":"uint256"}],"name":"mint","outputs":[],"stateMutability":"payable","type":"function"},{"inputs":[{"internalType":"uint256","name":"amount","type":"uint256"}],"name":"mint","outputs":[],"stateMutability":"payable","type":"function"},{"inputs":[],"name":"name","outputs":[{"internalType":"string","name":"","type":"string"}],"stateMutability":"view","type":"function"},{"inputs":[],"name":"owner","outputs":[{"internalType":"address","name":"","type":"address"}],"stateMutability":"view","type":"function"},{"inputs":[{"internalType":"uint256","name":"tokenId","type":"uint256"}],"name":"ownerOf","outputs":[{"internalType":"address","name":"","type":"address"}],"stateMutability":"view","type":"function"},{"inputs":[{"internalType":"address","name":"account","type":"address"}],"name":"ownerOfTokens","outputs":[{"internalType":"uint256[]","name":"","type":"uint256[]"}],"stateMutability":"view","type":"function"},{"inputs":[],"name":"pause","outputs":[],"stateMutability":"nonpayable","type":"function"},{"inputs":[],"name":"paused","outputs":[{"internalType":"bool","name":"","type":"bool"}],"stateMutability":"view","type":"function"},{"inputs":[],"name":"renounceOwnership","outputs":[],"stateMutability":"nonpayable","type":"function"},{"inputs":[{"internalType":"address","name":"from","type":"address"},{"internalType":"address","name":"to","type":"address"},{"internalType":"uint256","name":"tokenId","type":"uint256"}],"name":"safeTransferFrom","outputs":[],"stateMutability":"nonpayable","type":"function"},{"inputs":[{"internalType":"address","name":"from","type":"address"},{"internalType":"address","name":"to","type":"address"},{"internalType":"uint256","name":"tokenId","type":"uint256"},{"internalType":"bytes","name":"_data","type":"bytes"}],"name":"safeTransferFrom","outputs":[],"stateMutability":"nonpayable","type":"function"},{"inputs":[{"internalType":"address","name":"operator","type":"address"},{"internalType":"bool","name":"approved","type":"bool"}],"name":"setApprovalForAll","outputs":[],"stateMutability":"nonpayable","type":"function"},{"inputs":[{"internalType":"string","name":"uri","type":"string"}],"name":"setBaseTokenURI","outputs":[],"stateMutability":"nonpayable","type":"function"},{"inputs":[{"internalType":"uint16","name":"start","type":"uint16"},{"internalType":"uint16","name":"end","type":"uint16"}],"name":"setNFTRange","outputs":[],"stateMutability":"nonpayable","type":"function"},{"inputs":[{"internalType":"uint256","name":"price","type":"uint256"}],"name":"setTokenPrice","outputs":[],"stateMutability":"nonpayable","type":"function"},{"inputs":[{"internalType":"bytes4","name":"interfaceId","type":"bytes4"}],"name":"supportsInterface","outputs":[{"internalType":"bool","name":"","type":"bool"}],"stateMutability":"view","type":"function"},{"inputs":[],"name":"symbol","outputs":[{"internalType":"string","name":"","type":"string"}],"stateMutability":"view","type":"function"},{"inputs":[{"internalType":"uint256","name":"index","type":"uint256"}],"name":"tokenByIndex","outputs":[{"internalType":"uint256","name":"","type":"uint256"}],"stateMutability":"view","type":"function"},{"inputs":[{"internalType":"address","name":"owner","type":"address"},{"internalType":"uint256","name":"index","type":"uint256"}],"name":"tokenOfOwnerByIndex","outputs":[{"internalType":"uint256","name":"","type":"uint256"}],"stateMutability":"view","type":"function"},{"inputs":[{"internalType":"uint256","name":"tokenId","type":"uint256"}],"name":"tokenURI","outputs":[{"internalType":"string","name":"","type":"string"}],"stateMutability":"view","type":"function"},{"inputs":[],"name":"totalSupply","outputs":[{"internalType":"uint256","name":"","type":"uint256"}],"stateMutability":"view","type":"function"},{"inputs":[{"internalType":"address","name":"from","type":"address"},{"internalType":"address","name":"to","type":"address"},{"internalType":"uint256","name":"tokenId","type":"uint256"}],"name":"transferFrom","outputs":[],"stateMutability":"nonpayable","type":"function"},{"inputs":[{"internalType":"address","name":"newOwner","type":"address"}],"name":"transferOwnership","outputs":[],"stateMutability":"nonpayable","type":"function"},{"inputs":[],"name":"unpause","outputs":[],"stateMutability":"nonpayable","type":"function"},{"inputs":[{"internalType":"address","name":"account","type":"address"},{"internalType":"uint256","name":"amount","type":"uint256"}],"name":"withdraw","outputs":[],"stateMutability":"nonpayable","type":"function"}],"bytecode":{"object":"60806040526000600c556000600d5560006010553480156200002057600080fd5b506040805180820182526009815268149bd858da11995cdd60ba1b6020808301918252835180850190945260058452640a49e8286960db1b9084015281519192916200006f91600091620000d9565b50805162000085906001906020840190620000d9565b5050600b80546001600160a81b0319163361010081029190911790915560405190915081906000907f8be0079c531659141344cd1fd0a4f28419497f9722a3daafe3b4186f6b6457e0908290a350620001bc565b828054620000e7906200017f565b90600052602060002090601f0160209004810192826200010b576000855562000156565b82601f106200012657805160ff191683800117855562000156565b8280016001018555821562000156579182015b828111156200015657825182559160200191906001019062000139565b506200016492915062000168565b5090565b5b8082111562000164576000815560010162000169565b600181811c908216806200019457607f821691505b60208210811415620001b657634e487b7160e01b600052602260045260246000fd5b50919050565b612f4f80620001cc6000396000f3fe6080604052600436106102045760003560e01c8063647de1d411610118578063a0712d68116100a0578063d547cfb71161006f578063d547cfb7146105a7578063e4b50cb8146105bc578063e985e9c5146105ea578063f2fde38b14610633578063f3fef3a31461065357600080fd5b8063a0712d6814610534578063a22cb46514610547578063b88d4fde14610567578063c87b56dd1461058757600080fd5b8063715018a6116100e7578063715018a6146104a557806372190919146104ba5780638456cb59146104e75780638da5cb5b146104fc57806395d89b411461051f57600080fd5b8063647de1d41461042357806367f718a9146104435780636a61e5fc1461046557806370a082311461048557600080fd5b80633f4ba83a1161019b5780634b94f50e1161016a5780634b94f50e146103a15780634f6ccce7146103b657806359be5e45146103d65780635c975abb146103eb5780636352211e1461040357600080fd5b80633f4ba83a1461033957806340c10f191461034e57806342842e0e1461036157806342966c681461038157600080fd5b806318160ddd116101d757806318160ddd146102ba57806323b872dd146102d95780632f745c59146102f957806330176e131461031957600080fd5b806301ffc9a71461020957806306fdde031461023e578063081812fc14610260578063095ea7b314610298575b600080fd5b34801561021557600080fd5b506102296102243660046129cb565b610673565b60405190151581526020015b60405180910390f35b34801561024a57600080fd5b50610253610684565b6040516102359190612c90565b34801561026c57600080fd5b5061028061027b366004612a78565b610716565b6040516001600160a01b039091168152602001610235565b3480156102a457600080fd5b506102b86102b33660046129a1565b6107a3565b005b3480156102c657600080fd5b506008545b604051908152602001610235565b3480156102e557600080fd5b506102b86102f43660046128ad565b6108b9565b34801561030557600080fd5b506102cb6103143660046129a1565b6108eb565b34801561032557600080fd5b506102b8610334366004612a05565b610981565b34801561034557600080fd5b506102b86109c8565b6102b861035c3660046129a1565b610a02565b34801561036d57600080fd5b506102b861037c3660046128ad565b610d90565b34801561038d57600080fd5b506102b861039c366004612a78565b610dab565b3480156103ad57600080fd5b50600d546102cb565b3480156103c257600080fd5b506102cb6103d1366004612a78565b610e25565b3480156103e257600080fd5b506010546102cb565b3480156103f757600080fd5b50600b5460ff16610229565b34801561040f57600080fd5b5061028061041e366004612a78565b610eb8565b34801561042f57600080fd5b506102b861043e366004612a4e565b610f2f565b34801561044f57600080fd5b50610458610fda565b6040516102359190612c10565b34801561047157600080fd5b506102b8610480366004612a78565b611059565b34801561049157600080fd5b506102cb6104a036600461285f565b61108e565b3480156104b157600080fd5b506102b8611115565b3480156104c657600080fd5b506104da6104d536600461285f565b611195565b6040516102359190612c58565b3480156104f357600080fd5b506102b8611201565b34801561050857600080fd5b50600b5461010090046001600160a01b0316610280565b34801561052b57600080fd5b50610253611239565b6102b8610542366004612a78565b611248565b34801561055357600080fd5b506102b8610562366004612965565b61153f565b34801561057357600080fd5b506102b86105823660046128e9565b611604565b34801561059357600080fd5b506102536105a2366004612a78565b61163c565b3480156105b357600080fd5b50610253611647565b3480156105c857600080fd5b506105dc6105d7366004612a78565b611656565b604051610235929190612bec565b3480156105f657600080fd5b5061022961060536600461287a565b6001600160a01b03918216600090815260056020908152604080832093909416825291909152205460ff1690565b34801561063f57600080fd5b506102b861064e36600461285f565b61167e565b34801561065f57600080fd5b506102b861066e3660046129a1565b61177a565b600061067e82611824565b92915050565b60606000805461069390612e09565b80601f01602080910402602001604051908101604052809291908181526020018280546106bf90612e09565b801561070c5780601f106106e15761010080835404028352916020019161070c565b820191906000526020600020905b8154815290600101906020018083116106ef57829003601f168201915b5050505050905090565b600061072182611849565b6107875760405162461bcd60e51b815260206004820152602c60248201527f4552433732313a20617070726f76656420717565727920666f72206e6f6e657860448201526b34b9ba32b73a103a37b5b2b760a11b60648201526084015b60405180910390fd5b506000908152600460205260409020546001600160a01b031690565b60006107ae82610eb8565b9050806001600160a01b0316836001600160a01b0316141561081c5760405162461bcd60e51b815260206004820152602160248201527f4552433732313a20617070726f76616c20746f2063757272656e74206f776e656044820152603960f91b606482015260840161077e565b336001600160a01b038216148061083857506108388133610605565b6108aa5760405162461bcd60e51b815260206004820152603860248201527f4552433732313a20617070726f76652063616c6c6572206973206e6f74206f7760448201527f6e6572206e6f7220617070726f76656420666f7220616c6c0000000000000000606482015260840161077e565b6108b48383611866565b505050565b6108c4335b826118d4565b6108e05760405162461bcd60e51b815260040161077e90612d2a565b6108b48383836119be565b60006108f68361108e565b82106109585760405162461bcd60e51b815260206004820152602b60248201527f455243373231456e756d657261626c653a206f776e657220696e646578206f7560448201526a74206f6620626f756e647360a81b606482015260840161077e565b506001600160a01b03919091166000908152600660209081526040808320938352929052205490565b600b546001600160a01b036101009091041633146109b15760405162461bcd60e51b815260040161077e90612cf5565b80516109c490600f9060208401906126ec565b5050565b600b546001600160a01b036101009091041633146109f85760405162461bcd60e51b815260040161077e90612cf5565b610a00611b69565b565b600b546001600160a01b03610100909104163314610a325760405162461bcd60e51b815260040161077e90612cf5565b600b5460ff1615610a765760405162461bcd60e51b815260206004820152600e60248201526d14d85b19481a5cc81c185d5cd95960921b604482015260640161077e565b6014811115610ac75760405162461bcd60e51b815260206004820152601d60248201527f526f616368657320706572207472616e73616374696f6e206973203230000000604482015260640161077e565b60005b818110156108b45760108054906000610ae283612e66565b919050555060004442604051602001610b05929190918252602082015260400190565b60408051601f198184030181529190528051602090910120600e54909150610b2d9082612e81565b9050610b6d84600e8381548110610b4657610b46612ed7565b60009182526020909120601082040154600f9091166002026101000a900461ffff16611bfc565b610c0f600e8281548110610b8357610b83612ed7565b90600052602060002090601091828204019190066002029054906101000a900461ffff1661ffff16600f610bea600e8581548110610bc357610bc3612ed7565b60009182526020909120601082040154600f9091166002026101000a900461ffff16611c16565b604051602001610bfb929190612b08565b604051602081830303815290604052611d14565b6001600160a01b0384166000908152601160205260409020600e805483908110610c3b57610c3b612ed7565b6000918252602080832060108304015484546001808201875595855291909320600f9092166002026101000a90920461ffff16910155600e80549091610c8091612dc6565b81548110610c9057610c90612ed7565b90600052602060002090601091828204019190066002029054906101000a900461ffff16600e8281548110610cc757610cc7612ed7565b90600052602060002090601091828204019190066002026101000a81548161ffff021916908361ffff160217905550600e6001600e80549050610d0a9190612dc6565b81548110610d1a57610d1a612ed7565b90600052602060002090601091828204019190066002026101000a81549061ffff0219169055600e805480610d5157610d51612ec1565b600082815260209020601060001990920191820401805461ffff6002600f8516026101000a021916905590555080610d8881612e66565b915050610aca565b6108b483838360405180602001604052806000815250611604565b610db4336108be565b610e195760405162461bcd60e51b815260206004820152603060248201527f4552433732314275726e61626c653a2063616c6c6572206973206e6f74206f7760448201526f1b995c881b9bdc88185c1c1c9bdd995960821b606482015260840161077e565b610e2281611d9f565b50565b6000610e3060085490565b8210610e935760405162461bcd60e51b815260206004820152602c60248201527f455243373231456e756d657261626c653a20676c6f62616c20696e646578206f60448201526b7574206f6620626f756e647360a01b606482015260840161077e565b60088281548110610ea657610ea6612ed7565b90600052602060002001549050919050565b6000818152600260205260408120546001600160a01b03168061067e5760405162461bcd60e51b815260206004820152602960248201527f4552433732313a206f776e657220717565727920666f72206e6f6e657869737460448201526832b73a103a37b5b2b760b91b606482015260840161077e565b600b546001600160a01b03610100909104163314610f5f5760405162461bcd60e51b815260040161077e90612cf5565b815b8161ffff168161ffff16116108b457600e80546001810182556000919091527fbb7b4a454dc3493923482f07822329ed19e8244eff582cc204f8554c3620c3fd60108204018054600f9092166002026101000a61ffff818102199093169284160291909117905580610fd281612e44565b915050610f61565b6060600e80548060200260200160405190810160405280929190818152602001828054801561070c57602002820191906000526020600020906000905b82829054906101000a900461ffff1661ffff16815260200190600201906020826001010492830192600103820291508084116110175790505050505050905090565b600b546001600160a01b036101009091041633146110895760405162461bcd60e51b815260040161077e90612cf5565b600d55565b60006001600160a01b0382166110f95760405162461bcd60e51b815260206004820152602a60248201527f4552433732313a2062616c616e636520717565727920666f7220746865207a65604482015269726f206164647265737360b01b606482015260840161077e565b506001600160a01b031660009081526003602052604090205490565b600b546001600160a01b036101009091041633146111455760405162461bcd60e51b815260040161077e90612cf5565b600b5460405160009161010090046001600160a01b0316907f8be0079c531659141344cd1fd0a4f28419497f9722a3daafe3b4186f6b6457e0908390a3600b8054610100600160a81b0319169055565b6001600160a01b0381166000908152601160209081526040918290208054835181840281018401909452808452606093928301828280156111f557602002820191906000526020600020905b8154815260200190600101908083116111e1575b50505050509050919050565b600b546001600160a01b036101009091041633146112315760405162461bcd60e51b815260040161077e90612cf5565b610a00611da8565b60606001805461069390612e09565b600b5460ff161561128c5760405162461bcd60e51b815260206004820152600e60248201526d14d85b19481a5cc81c185d5cd95960921b604482015260640161077e565b60148111156112dd5760405162461bcd60e51b815260206004820152601d60248201527f526f616368657320706572207472616e73616374696f6e206973203230000000604482015260640161077e565b80600d546112eb9190612da7565b3410156113325760405162461bcd60e51b815260206004820152601560248201527409c8ca840e0e4d2c6ca40d2e640605c6068408aa89605b1b604482015260640161077e565b60005b818110156109c4576010805490600061134d83612e66565b919050555060004442604051602001611370929190918252602082015260400190565b60408051601f198184030181529190528051602090910120600e549091506113989082612e81565b90506113b133600e8381548110610b4657610b46612ed7565b6113c7600e8281548110610b8357610b83612ed7565b336000908152601160205260409020600e8054839081106113ea576113ea612ed7565b6000918252602080832060108304015484546001808201875595855291909320600f9092166002026101000a90920461ffff16910155600e8054909161142f91612dc6565b8154811061143f5761143f612ed7565b90600052602060002090601091828204019190066002029054906101000a900461ffff16600e828154811061147657611476612ed7565b90600052602060002090601091828204019190066002026101000a81548161ffff021916908361ffff160217905550600e6001600e805490506114b99190612dc6565b815481106114c9576114c9612ed7565b90600052602060002090601091828204019190066002026101000a81549061ffff0219169055600e80548061150057611500612ec1565b600082815260209020601060001990920191820401805461ffff6002600f8516026101000a02191690559055508061153781612e66565b915050611335565b6001600160a01b0382163314156115985760405162461bcd60e51b815260206004820152601960248201527f4552433732313a20617070726f766520746f2063616c6c657200000000000000604482015260640161077e565b3360008181526005602090815260408083206001600160a01b03871680855290835292819020805460ff191686151590811790915590519081529192917f17307eab39ab6107e8899845ad3d59bd9653f200f220920489ca2b5937696c31910160405180910390a35050565b61160e33836118d4565b61162a5760405162461bcd60e51b815260040161077e90612d2a565b61163684848484611e23565b50505050565b606061067e82611e56565b6060600f805461069390612e09565b60006060600061166584610eb8565b905060006116728561163c565b91959194509092505050565b600b546001600160a01b036101009091041633146116ae5760405162461bcd60e51b815260040161077e90612cf5565b6001600160a01b0381166117135760405162461bcd60e51b815260206004820152602660248201527f4f776e61626c653a206e6577206f776e657220697320746865207a65726f206160448201526564647265737360d01b606482015260840161077e565b600b546040516001600160a01b0380841692610100900416907f8be0079c531659141344cd1fd0a4f28419497f9722a3daafe3b4186f6b6457e090600090a3600b80546001600160a01b0390921661010002610100600160a81b0319909216919091179055565b600b546001600160a01b036101009091041633146117aa5760405162461bcd60e51b815260040161077e90612cf5565b8047116117ee5760405162461bcd60e51b81526020600482015260126024820152714e6f7420456e6f7567682042616c616e636560701b604482015260640161077e565b6040516001600160a01b0383169082156108fc029083906000818181858888f193505050501580156108b4573d6000803e3d6000fd5b60006001600160e01b0319821663780e9d6360e01b148061067e575061067e82611fc5565b6000908152600260205260409020546001600160a01b0316151590565b600081815260046020526040902080546001600160a01b0319166001600160a01b038416908117909155819061189b82610eb8565b6001600160a01b03167f8c5be1e5ebec7d5bd14f71427d1e84f3dd0314c0f7b2291e5b200ac8c7c3b92560405160405180910390a45050565b60006118df82611849565b6119405760405162461bcd60e51b815260206004820152602c60248201527f4552433732313a206f70657261746f7220717565727920666f72206e6f6e657860448201526b34b9ba32b73a103a37b5b2b760a11b606482015260840161077e565b600061194b83610eb8565b9050806001600160a01b0316846001600160a01b031614806119865750836001600160a01b031661197b84610716565b6001600160a01b0316145b806119b657506001600160a01b0380821660009081526005602090815260408083209388168352929052205460ff165b949350505050565b826001600160a01b03166119d182610eb8565b6001600160a01b031614611a395760405162461bcd60e51b815260206004820152602960248201527f4552433732313a207472616e73666572206f6620746f6b656e2074686174206960448201526839903737ba1037bbb760b91b606482015260840161077e565b6001600160a01b038216611a9b5760405162461bcd60e51b8152602060048201526024808201527f4552433732313a207472616e7366657220746f20746865207a65726f206164646044820152637265737360e01b606482015260840161077e565b611aa6838383612015565b611ab1600082611866565b6001600160a01b0383166000908152600360205260408120805460019290611ada908490612dc6565b90915550506001600160a01b0382166000908152600360205260408120805460019290611b08908490612d7b565b909155505060008181526002602052604080822080546001600160a01b0319166001600160a01b0386811691821790925591518493918716917fddf252ad1be2c89b69c2b068fc378daa952ba7f163c4a11628f55a4df523b3ef91a4505050565b600b5460ff16611bb25760405162461bcd60e51b815260206004820152601460248201527314185d5cd8589b194e881b9bdd081c185d5cd95960621b604482015260640161077e565b600b805460ff191690557f5db9ee0a495bf2e6ff9c91a7834c1ba4fdd244a5e8aa4e537bd38aeae4b073aa335b6040516001600160a01b03909116815260200160405180910390a1565b6109c4828260405180602001604052806000815250612066565b606081611c3a5750506040805180820190915260018152600360fc1b602082015290565b8160005b8115611c645780611c4e81612e66565b9150611c5d9050600a83612d93565b9150611c3e565b60008167ffffffffffffffff811115611c7f57611c7f612eed565b6040519080825280601f01601f191660200182016040528015611ca9576020820181803683370190505b5090505b84156119b657611cbe600183612dc6565b9150611ccb600a86612e81565b611cd6906030612d7b565b60f81b818381518110611ceb57611ceb612ed7565b60200101906001600160f81b031916908160001a905350611d0d600a86612d93565b9450611cad565b611d1d82611849565b611d805760405162461bcd60e51b815260206004820152602e60248201527f45524337323155524953746f726167653a2055524920736574206f66206e6f6e60448201526d32bc34b9ba32b73a103a37b5b2b760911b606482015260840161077e565b6000828152600a6020908152604090912082516108b4928401906126ec565b610e2281612099565b600b5460ff1615611dee5760405162461bcd60e51b815260206004820152601060248201526f14185d5cd8589b194e881c185d5cd95960821b604482015260640161077e565b600b805460ff191660011790557f62e78cea01bee320cd4e420270b5ea74000d11b0c9f74754ebdbfc544b05a258611bdf3390565b611e2e8484846119be565b611e3a848484846120d9565b6116365760405162461bcd60e51b815260040161077e90612ca3565b6060611e6182611849565b611ec75760405162461bcd60e51b815260206004820152603160248201527f45524337323155524953746f726167653a2055524920717565727920666f72206044820152703737b732bc34b9ba32b73a103a37b5b2b760791b606482015260840161077e565b6000828152600a602052604081208054611ee090612e09565b80601f0160208091040260200160405190810160405280929190818152602001828054611f0c90612e09565b8015611f595780601f10611f2e57610100808354040283529160200191611f59565b820191906000526020600020905b815481529060010190602001808311611f3c57829003601f168201915b505050505090506000611f7760408051602081019091526000815290565b9050805160001415611f8a575092915050565b815115611fbc578082604051602001611fa4929190612ad9565b60405160208183030381529060405292505050919050565b6119b6846121e6565b60006001600160e01b031982166380ac58cd60e01b1480611ff657506001600160e01b03198216635b5e139f60e01b145b8061067e57506301ffc9a760e01b6001600160e01b031983161461067e565b600b5460ff161561205b5760405162461bcd60e51b815260206004820152601060248201526f14185d5cd8589b194e881c185d5cd95960821b604482015260640161077e565b6108b48383836122be565b6120708383612376565b61207d60008484846120d9565b6108b45760405162461bcd60e51b815260040161077e90612ca3565b6120a2816124b5565b6000818152600a6020526040902080546120bb90612e09565b159050610e22576000818152600a60205260408120610e2291612770565b60006001600160a01b0384163b156121db57604051630a85bd0160e11b81526001600160a01b0385169063150b7a029061211d903390899088908890600401612baf565b602060405180830381600087803b15801561213757600080fd5b505af1925050508015612167575060408051601f3d908101601f19168201909252612164918101906129e8565b60015b6121c1573d808015612195576040519150601f19603f3d011682016040523d82523d6000602084013e61219a565b606091505b5080516121b95760405162461bcd60e51b815260040161077e90612ca3565b805181602001fd5b6001600160e01b031916630a85bd0160e11b1490506119b6565b506001949350505050565b60606121f182611849565b6122555760405162461bcd60e51b815260206004820152602f60248201527f4552433732314d657461646174613a2055524920717565727920666f72206e6f60448201526e3732bc34b9ba32b73a103a37b5b2b760891b606482015260840161077e565b600061226c60408051602081019091526000815290565b9050600081511161228c57604051806020016040528060008152506122b7565b8061229684611c16565b6040516020016122a7929190612ad9565b6040516020818303038152906040525b9392505050565b6001600160a01b0383166123195761231481600880546000838152600960205260408120829055600182018355919091527ff3f7a9fe364faab93b216da50a3214154f22a0a2b415b23a84c8169e8b636ee30155565b61233c565b816001600160a01b0316836001600160a01b03161461233c5761233c838261255c565b6001600160a01b038216612353576108b4816125f9565b826001600160a01b0316826001600160a01b0316146108b4576108b482826126a8565b6001600160a01b0382166123cc5760405162461bcd60e51b815260206004820181905260248201527f4552433732313a206d696e7420746f20746865207a65726f2061646472657373604482015260640161077e565b6123d581611849565b156124225760405162461bcd60e51b815260206004820152601c60248201527f4552433732313a20746f6b656e20616c7265616479206d696e74656400000000604482015260640161077e565b61242e60008383612015565b6001600160a01b0382166000908152600360205260408120805460019290612457908490612d7b565b909155505060008181526002602052604080822080546001600160a01b0319166001600160a01b03861690811790915590518392907fddf252ad1be2c89b69c2b068fc378daa952ba7f163c4a11628f55a4df523b3ef908290a45050565b60006124c082610eb8565b90506124ce81600084612015565b6124d9600083611866565b6001600160a01b0381166000908152600360205260408120805460019290612502908490612dc6565b909155505060008281526002602052604080822080546001600160a01b0319169055518391906001600160a01b038416907fddf252ad1be2c89b69c2b068fc378daa952ba7f163c4a11628f55a4df523b3ef908390a45050565b600060016125698461108e565b6125739190612dc6565b6000838152600760205260409020549091508082146125c6576001600160a01b03841660009081526006602090815260408083208584528252808320548484528184208190558352600790915290208190555b5060009182526007602090815260408084208490556001600160a01b039094168352600681528383209183525290812055565b60085460009061260b90600190612dc6565b6000838152600960205260408120546008805493945090928490811061263357612633612ed7565b90600052602060002001549050806008838154811061265457612654612ed7565b600091825260208083209091019290925582815260099091526040808220849055858252812055600880548061268c5761268c612ec1565b6001900381819060005260206000200160009055905550505050565b60006126b38361108e565b6001600160a01b039093166000908152600660209081526040808320868452825280832085905593825260079052919091209190915550565b8280546126f890612e09565b90600052602060002090601f01602090048101928261271a5760008555612760565b82601f1061273357805160ff1916838001178555612760565b82800160010185558215612760579182015b82811115612760578251825591602001919060010190612745565b5061276c9291506127a6565b5090565b50805461277c90612e09565b6000825580601f1061278c575050565b601f016020900490600052602060002090810190610e2291905b5b8082111561276c57600081556001016127a7565b600067ffffffffffffffff808411156127d6576127d6612eed565b604051601f8501601f19908116603f011681019082821181831017156127fe576127fe612eed565b8160405280935085815286868601111561281757600080fd5b858560208301376000602087830101525050509392505050565b80356001600160a01b038116811461284857600080fd5b919050565b803561ffff8116811461284857600080fd5b60006020828403121561287157600080fd5b6122b782612831565b6000806040838503121561288d57600080fd5b61289683612831565b91506128a460208401612831565b90509250929050565b6000806000606084860312156128c257600080fd5b6128cb84612831565b92506128d960208501612831565b9150604084013590509250925092565b600080600080608085870312156128ff57600080fd5b61290885612831565b935061291660208601612831565b925060408501359150606085013567ffffffffffffffff81111561293957600080fd5b8501601f8101871361294a57600080fd5b612959878235602084016127bb565b91505092959194509250565b6000806040838503121561297857600080fd5b61298183612831565b91506020830135801515811461299657600080fd5b809150509250929050565b600080604083850312156129b457600080fd5b6129bd83612831565b946020939093013593505050565b6000602082840312156129dd57600080fd5b81356122b781612f03565b6000602082840312156129fa57600080fd5b81516122b781612f03565b600060208284031215612a1757600080fd5b813567ffffffffffffffff811115612a2e57600080fd5b8201601f81018413612a3f57600080fd5b6119b6848235602084016127bb565b60008060408385031215612a6157600080fd5b612a6a8361284d565b91506128a46020840161284d565b600060208284031215612a8a57600080fd5b5035919050565b60008151808452612aa9816020860160208601612ddd565b601f01601f19169290920160200192915050565b60008151612acf818560208601612ddd565b9290920192915050565b60008351612aeb818460208801612ddd565b835190830190612aff818360208801612ddd565b01949350505050565b600080845481600182811c915080831680612b2457607f831692505b6020808410821415612b4457634e487b7160e01b86526022600452602486fd5b818015612b585760018114612b6957612b96565b60ff19861689528489019650612b96565b60008b81526020902060005b86811015612b8e5781548b820152908501908301612b75565b505084890196505b505050505050612ba68185612abd565b95945050505050565b6001600160a01b0385811682528416602082015260408101839052608060608201819052600090612be290830184612a91565b9695505050505050565b6001600160a01b03831681526040602082018190526000906119b690830184612a91565b6020808252825182820181905260009190848201906040850190845b81811015612c4c57835161ffff1683529284019291840191600101612c2c565b50909695505050505050565b6020808252825182820181905260009190848201906040850190845b81811015612c4c57835183529284019291840191600101612c74565b6020815260006122b76020830184612a91565b60208082526032908201527f4552433732313a207472616e7366657220746f206e6f6e20455243373231526560408201527131b2b4bb32b91034b6b83632b6b2b73a32b960711b606082015260800190565b6020808252818101527f4f776e61626c653a2063616c6c6572206973206e6f7420746865206f776e6572604082015260600190565b60208082526031908201527f4552433732313a207472616e736665722063616c6c6572206973206e6f74206f6040820152701ddb995c881b9bdc88185c1c1c9bdd9959607a1b606082015260800190565b60008219821115612d8e57612d8e612e95565b500190565b600082612da257612da2612eab565b500490565b6000816000190483118215151615612dc157612dc1612e95565b500290565b600082821015612dd857612dd8612e95565b500390565b60005b83811015612df8578181015183820152602001612de0565b838111156116365750506000910152565b600181811c90821680612e1d57607f821691505b60208210811415612e3e57634e487b7160e01b600052602260045260246000fd5b50919050565b600061ffff80831681811415612e5c57612e5c612e95565b6001019392505050565b6000600019821415612e7a57612e7a612e95565b5060010190565b600082612e9057612e90612eab565b500690565b634e487b7160e01b600052601160045260246000fd5b634e487b7160e01b600052601260045260246000fd5b634e487b7160e01b600052603160045260246000fd5b634e487b7160e01b600052603260045260246000fd5b634e487b7160e01b600052604160045260246000fd5b6001600160e01b031981168114610e2257600080fdfea264697066735822122039644d5b01d3525ae3f241ad63e5fb11fb5729a68dfe620ca9a68738d06175a264736f6c63430008070033"}}