{"compiler":"v0.5.17+commit.d19bba13","opcodeHash":"0xae3851e686c1598a1afd28f7eab1444922e8edf0dd4acb968d7076b1f5f1844d","metalessHash":"0x37479aa053793b093d08706b814b00ef5d459864a521a1bea4e917e85d6eead6","runtimeHash":"0x586ebb107c95fb632aa168a3cf632ea7a4f3d5a08b8677dcc21796c19a14e1c4","encodedMetadata":[{"bzzr1":"/swarm/bzzr1/e832a465db06831d45f5b7c8a49c6758314e2fb4f5a91f6871d5f65228c9cd49","solc":"0.5.17"}],"abi":[{"anonymous":false,"inputs":[{"indexed":true,"internalType":"address","name":"owner","type":"address"},{"indexed":true,"internalType":"address","name":"approved","type":"address"},{"indexed":true,"internalType":"uint256","name":"tokenId","type":"uint256"}],"name":"Approval","type":"event"},{"anonymous":false,"inputs":[{"indexed":true,"internalType":"address","name":"owner","type":"address"},{"indexed":true,"internalType":"address","name":"operator","type":"address"},{"indexed":false,"internalType":"bool","name":"approved","type":"bool"}],"name":"ApprovalForAll","type":"event"},{"anonymous":false,"inputs":[{"indexed":false,"internalType":"address","name":"account","type":"address"},{"indexed":false,"internalType":"uint256[]","name":"ids","type":"uint256[]"},{"indexed":false,"internalType":"string[]","name":"uris","type":"string[]"},{"indexed":false,"internalType":"uint256","name":"royalty","type":"uint256"}],"name":"BatchMint","type":"event"},{"anonymous":false,"inputs":[{"indexed":true,"internalType":"address","name":"previousOwner","type":"address"},{"indexed":true,"internalType":"address","name":"newOwner","type":"address"}],"name":"OwnershipTransferred","type":"event"},{"anonymous":false,"inputs":[{"indexed":false,"internalType":"address","name":"account","type":"address"},{"indexed":false,"internalType":"uint256","name":"nonce","type":"uint256"}],"name":"ParticipantAdded","type":"event"},{"anonymous":false,"inputs":[{"indexed":false,"internalType":"address","name":"account","type":"address"}],"name":"ParticipantRemoved","type":"event"},{"anonymous":false,"inputs":[{"indexed":false,"internalType":"address","name":"account","type":"address"}],"name":"ParticipantRemovedByOwner","type":"event"},{"anonymous":false,"inputs":[{"indexed":true,"internalType":"address","name":"from","type":"address"},{"indexed":true,"internalType":"address","name":"to","type":"address"},{"indexed":true,"internalType":"uint256","name":"tokenId","type":"uint256"}],"name":"Transfer","type":"event"},{"constant":false,"inputs":[{"internalType":"address[]","name":"accounts","type":"address[]"},{"internalType":"uint256","name":"index","type":"uint256"},{"internalType":"uint256","name":"expire","type":"uint256"},{"internalType":"uint256","name":"nonce","type":"uint256"},{"internalType":"bytes","name":"signature","type":"bytes"}],"name":"addParticipant","outputs":[],"payable":false,"stateMutability":"nonpayable","type":"function"},{"constant":false,"inputs":[{"internalType":"address","name":"to","type":"address"},{"internalType":"uint256","name":"tokenId","type":"uint256"}],"name":"approve","outputs":[],"payable":false,"stateMutability":"nonpayable","type":"function"},{"constant":true,"inputs":[{"internalType":"address","name":"owner","type":"address"}],"name":"balanceOf","outputs":[{"internalType":"uint256","name":"","type":"uint256"}],"payable":false,"stateMutability":"view","type":"function"},{"constant":true,"inputs":[],"name":"baseURI","outputs":[{"internalType":"string","name":"","type":"string"}],"payable":false,"stateMutability":"view","type":"function"},{"constant":false,"inputs":[{"internalType":"uint256","name":"tokenId","type":"uint256"}],"name":"burn","outputs":[],"payable":false,"stateMutability":"nonpayable","type":"function"},{"constant":true,"inputs":[{"internalType":"uint256","name":"tokenId","type":"uint256"}],"name":"creator","outputs":[{"internalType":"address","name":"","type":"address"}],"payable":false,"stateMutability":"view","type":"function"},{"constant":true,"inputs":[],"name":"factoryContract","outputs":[{"internalType":"address","name":"","type":"address"}],"payable":false,"stateMutability":"view","type":"function"},{"constant":true,"inputs":[{"internalType":"uint256","name":"tokenId","type":"uint256"}],"name":"getApproved","outputs":[{"internalType":"address","name":"","type":"address"}],"payable":false,"stateMutability":"view","type":"function"},{"constant":false,"inputs":[{"internalType":"address","name":"creator","type":"address"},{"internalType":"string","name":"name","type":"string"},{"internalType":"string","name":"symbol","type":"string"}],"name":"initialize","outputs":[],"payable":false,"stateMutability":"nonpayable","type":"function"},{"constant":true,"inputs":[{"internalType":"address","name":"owner","type":"address"},{"internalType":"address","name":"operator","type":"address"}],"name":"isApprovedForAll","outputs":[{"internalType":"bool","name":"","type":"bool"}],"payable":false,"stateMutability":"view","type":"function"},{"constant":true,"inputs":[],"name":"isOwner","outputs":[{"internalType":"bool","name":"","type":"bool"}],"payable":false,"stateMutability":"view","type":"function"},{"constant":false,"inputs":[{"internalType":"string[]","name":"uris","type":"string[]"}],"name":"mint","outputs":[],"payable":false,"stateMutability":"nonpayable","type":"function"},{"constant":true,"inputs":[],"name":"name","outputs":[{"internalType":"string","name":"","type":"string"}],"payable":false,"stateMutability":"view","type":"function"},{"constant":true,"inputs":[{"internalType":"address","name":"account","type":"address"}],"name":"nonces","outputs":[{"internalType":"uint256","name":"","type":"uint256"}],"payable":false,"stateMutability":"view","type":"function"},{"constant":true,"inputs":[],"name":"owner","outputs":[{"internalType":"address","name":"","type":"address"}],"payable":false,"stateMutability":"view","type":"function"},{"constant":true,"inputs":[{"internalType":"uint256","name":"tokenId","type":"uint256"}],"name":"ownerOf","outputs":[{"internalType":"address","name":"","type":"address"}],"payable":false,"stateMutability":"view","type":"function"},{"constant":true,"inputs":[{"internalType":"address","name":"account","type":"address"}],"name":"participants","outputs":[{"internalType":"uint256","name":"","type":"uint256"}],"payable":false,"stateMutability":"view","type":"function"},{"constant":false,"inputs":[],"name":"removeParticipant","outputs":[],"payable":false,"stateMutability":"nonpayable","type":"function"},{"constant":false,"inputs":[{"internalType":"address[]","name":"accounts","type":"address[]"}],"name":"removeParticipants","outputs":[],"payable":false,"stateMutability":"nonpayable","type":"function"},{"constant":false,"inputs":[{"internalType":"address","name":"from","type":"address"},{"internalType":"address","name":"to","type":"address"},{"internalType":"uint256","name":"tokenId","type":"uint256"}],"name":"safeTransferFrom","outputs":[],"payable":false,"stateMutability":"nonpayable","type":"function"},{"constant":false,"inputs":[{"internalType":"address","name":"from","type":"address"},{"internalType":"address","name":"to","type":"address"},{"internalType":"uint256","name":"tokenId","type":"uint256"},{"internalType":"bytes","name":"_data","type":"bytes"}],"name":"safeTransferFrom","outputs":[],"payable":false,"stateMutability":"nonpayable","type":"function"},{"constant":false,"inputs":[{"internalType":"address","name":"to","type":"address"},{"internalType":"bool","name":"approved","type":"bool"}],"name":"setApprovalForAll","outputs":[],"payable":false,"stateMutability":"nonpayable","type":"function"},{"constant":true,"inputs":[{"internalType":"bytes4","name":"interfaceId","type":"bytes4"}],"name":"supportsInterface","outputs":[{"internalType":"bool","name":"","type":"bool"}],"payable":false,"stateMutability":"view","type":"function"},{"constant":true,"inputs":[],"name":"symbol","outputs":[{"internalType":"string","name":"","type":"string"}],"payable":false,"stateMutability":"view","type":"function"},{"constant":true,"inputs":[{"internalType":"uint256","name":"tokenId","type":"uint256"}],"name":"tokenURI","outputs":[{"internalType":"string","name":"","type":"string"}],"payable":false,"stateMutability":"view","type":"function"},{"constant":true,"inputs":[],"name":"totalParticipants","outputs":[{"internalType":"uint256","name":"","type":"uint256"}],"payable":false,"stateMutability":"view","type":"function"},{"constant":true,"inputs":[],"name":"totalSupply","outputs":[{"internalType":"uint256","name":"","type":"uint256"}],"payable":false,"stateMutability":"view","type":"function"},{"constant":false,"inputs":[{"internalType":"address","name":"from","type":"address"},{"internalType":"address","name":"to","type":"address"},{"internalType":"uint256","name":"tokenId","type":"uint256"}],"name":"transferFrom","outputs":[],"payable":false,"stateMutability":"nonpayable","type":"function"}],"bytecode":{"object":"608060405261310c806100136000396000f3fe608060405234801561001057600080fd5b50600436106101c35760003560e01c80636c0360eb116100f9578063a22cb46511610097578063c87b56dd11610071578063c87b56dd14610377578063de11c94a1461038a578063e985e9c514610392578063fba42666146103a5576101c3565b8063a22cb46514610349578063a26dbf261461035c578063b88d4fde14610364576101c3565b80638da5cb5b116100d35780638da5cb5b1461031e5780638f32d59b14610326578063906571471461032e57806395d89b4114610341576101c3565b80636c0360eb146102f057806370a08231146102f85780637ecebe001461030b576101c3565b806323b872dd1161016657806342966c681161014057806342966c68146102a4578063510b5158146102b75780635768f271146102ca5780636352211e146102dd576101c3565b806323b872dd146102765780633d571e971461028957806342842e0e14610291576101c3565b8063081812fc116101a2578063081812fc1461021b578063095ea7b31461023b57806309e69ede1461024e57806318160ddd1461026e576101c3565b806257854d146101c857806301ffc9a7146101dd57806306fdde0314610206575b600080fd5b6101db6101d6366004611f67565b6103b8565b005b6101f06101eb36600461205e565b6105cf565b6040516101fd9190612d0e565b60405180910390f35b61020e61067a565b6040516101fd9190612d7a565b61022e6102293660046120cf565b610711565b6040516101fd9190612c55565b6101db610249366004611f02565b610754565b61026161025c366004611d41565b61083d565b6040516101fd9190612f6b565b610261610896565b6101db610284366004611d99565b61089c565b6101db6108d9565b6101db61029f366004611d99565b610928565b6101db6102b23660046120cf565b610943565b61022e6102c53660046120cf565b610976565b6101db6102d836600461200b565b610991565b61022e6102eb3660046120cf565b610ac9565b61020e610afe565b610261610306366004611d41565b610b84565b610261610319366004611d41565b610bcd565b61022e610be8565b6101f0610bf7565b6101db61033c366004611e8f565b610c1d565b61020e610d38565b6101db610357366004611e5f565b610d99565b610261610e48565b6101db610372366004611de6565b610e4e565b61020e6103853660046120cf565b610e8d565b61022e610fd6565b6101f06103a0366004611d5f565b610fe5565b6101db6103b3366004611f32565b611015565b60006103c2610be8565b905060006103fb878686306040516020016103e09493929190612bcd565b6040516020818303038152906040528051906020012061113c565b90506001600160a01b038216610417828563ffffffff61116c16565b6001600160a01b0316146104465760405162461bcd60e51b815260040161043d90612e4b565b60405180910390fd5b60006104506111db565b9050826001600160a01b0316816001600160a01b031614158015610498575087878151811061047b57fe5b60200260200101516001600160a01b0316816001600160a01b0316145b6104b45760405162461bcd60e51b815260040161043d90612eab565b6001600160a01b03811660009081526071602052604090205460ff16156104ed5760405162461bcd60e51b815260040161043d90612dcb565b42861161050c5760405162461bcd60e51b815260040161043d90612e8b565b6001600160a01b03811660009081526073602052604090205485116105435760405162461bcd60e51b815260040161043d90612f4b565b6001600160a01b038116600090815260736020908152604080832088905560719091529020805460ff191660019081179091556072546105889163ffffffff6111df16565b6072556040517f287ab65235aa9a0baeed5b973fda48c77ebdc6f3dd931cfda1c082c0aecc1e73906105bd9083908890612cf3565b60405180910390a15050505050505050565b60006001600160e01b031982166342df37a160e01b14156105f257506001610675565b6066546040516301ffc9a760e01b81526001600160a01b03909116906301ffc9a790610622908590600401612d51565b60206040518083038186803b15801561063a57600080fd5b505afa15801561064e573d6000803e3d6000fd5b505050506040513d601f19601f820116820180604052506106729190810190612040565b90505b919050565b60688054604080516020601f60026000196101006001881615020190951694909404938401819004810282018101909252828152606093909290918301828280156107065780601f106106db57610100808354040283529160200191610706565b820191906000526020600020905b8154815290600101906020018083116106e957829003601f168201915b505050505090505b90565b600061071c8261120b565b6107385760405162461bcd60e51b815260040161043d90612f0b565b506000908152606c60205260409020546001600160a01b031690565b600061075e6111db565b9050600061076b83610ac9565b9050806001600160a01b0316846001600160a01b0316141561079f5760405162461bcd60e51b815260040161043d90612f5b565b806001600160a01b0316826001600160a01b031614806107c457506107c48183610fe5565b6107e05760405162461bcd60e51b815260040161043d90612e9b565b6000838152606c602052604080822080546001600160a01b0319166001600160a01b0388811691821790925591518693918516917f8c5be1e5ebec7d5bd14f71427d1e84f3dd0314c0f7b2291e5b200ac8c7c3b92591a450505050565b6001600160a01b03811660009081526071602052604081205460ff1661086557506000610675565b61086d610be8565b6001600160a01b0316826001600160a01b0316141561088e57506001610675565b506002919050565b606a5490565b6108ad6108a76111db565b82611228565b6108c95760405162461bcd60e51b815260040161043d90612efb565b6108d48383836112ad565b505050565b60006108e36111db565b90506108ee816113b3565b7f1a5e355a9a34d7eac1e439a6c610ba1fa72aa45f7645724ce5187fa19c3bd3fc8160405161091d9190612c55565b60405180910390a150565b6108d483838360405180602001604052806000815250610e4e565b61094e6108a76111db565b61096a5760405162461bcd60e51b815260040161043d90612ebb565b6109738161144a565b50565b6000908152607060205260409020546001600160a01b031690565b8051806109b05760405162461bcd60e51b815260040161043d90612e2b565b60675460006109bd6111db565b6001600160a01b03811660009081526071602052604090205490915060ff166109f85760405162461bcd60e51b815260040161043d90612e5b565b606083604051908082528060200260200182016040528015610a24578160200160208202803883390190505b50905060005b84811015610a7d57610a3c838561145c565b610a5984878381518110610a4c57fe5b6020026020010151611557565b83828281518110610a6657fe5b602090810291909101015260019384019301610a2a565b5060678390556040517f5b9708088b0a6588e57d65c89800688afedf7e2ad4d30dab9656a4858ab8806b90610aba90849084908990600090612ca7565b60405180910390a15050505050565b6000818152606b60205260408120546001600160a01b0316806106725760405162461bcd60e51b815260040161043d90612ddb565b60665460408051636c0360eb60e01b815290516060926001600160a01b031691636c0360eb916004808301926000929190829003018186803b158015610b4357600080fd5b505afa158015610b57573d6000803e3d6000fd5b505050506040513d6000823e601f3d908101601f19168201604052610b7f919081019061209a565b905090565b60006001600160a01b038216610bac5760405162461bcd60e51b815260040161043d90612e0b565b6001600160a01b0382166000908152606d602052604090206106729061159b565b6001600160a01b031660009081526073602052604090205490565b6033546001600160a01b031690565b6033546000906001600160a01b0316610c0e6111db565b6001600160a01b031614905090565b610c256111db565b606680546001600160a01b0319166001600160a01b039283161790819055604051634e8e3abd60e01b8152911690634e8e3abd90610c6a906007908790600401612d5f565b60206040518083038186803b158015610c8257600080fd5b505afa158015610c96573d6000803e3d6000fd5b505050506040513d601f19601f82011682018060405250610cba9190810190612040565b610cd65760405162461bcd60e51b815260040161043d90612edb565b610cdf8361159f565b8151610cf2906068906020850190611ab6565b508051610d06906069906020840190611ab6565b5050506001600160a01b03166000908152607160205260409020805460ff191660019081179091556072819055606755565b60698054604080516020601f60026000196101006001881615020190951694909404938401819004810282018101909252828152606093909290918301828280156107065780601f106106db57610100808354040283529160200191610706565b6000610da36111db565b9050806001600160a01b0316836001600160a01b03161415610dd75760405162461bcd60e51b815260040161043d90612ecb565b6001600160a01b038181166000818152606e602090815260408083209488168084529490915290819020805460ff1916861515179055517f17307eab39ab6107e8899845ad3d59bd9653f200f220920489ca2b5937696c3190610e3b908690612d0e565b60405180910390a3505050565b60725490565b610e5f610e596111db565b83611228565b610e7b5760405162461bcd60e51b815260040161043d90612efb565b610e8784848484611672565b50505050565b6060610e988261120b565b610eb45760405162461bcd60e51b815260040161043d90612deb565b6060610ebe610afe565b6000848152606f602090815260409182902080548351601f600260001961010060018616150201909316929092049182018490048402810184019094528084529394506060939091830182828015610f575780601f10610f2c57610100808354040283529160200191610f57565b820191906000526020600020905b815481529060010190602001808311610f3a57829003601f168201915b50505050509050815160001415610f715791506106759050565b805115610fa3578181604051602001610f8b929190612c1d565b60405160208183030381529060405292505050610675565b81610fad856116a5565b604051602001610fbe929190612c1d565b60405160208183030381529060405292505050919050565b6066546001600160a01b031690565b6001600160a01b038083166000908152606e602090815260408083209385168352929052205460ff165b92915050565b61101d610bf7565b6110395760405162461bcd60e51b815260040161043d90612eeb565b60006110436111db565b82519091506000805b8281101561111957600085828151811061106257fe5b60200260200101519050846001600160a01b0316816001600160a01b031614806110a557506001600160a01b03811660009081526071602052604090205460ff16155b156110b05750611111565b6001600160a01b03811660009081526071602052604090819020805460ff1916905551600193909301927fc5751df306322e63ed44784d681bcc9e0c36d1510469fb2aac8bc4ebb355cf2790611107908390612c55565b60405180910390a1505b60010161104c565b508015610e8757607254611133908263ffffffff61176916565b60725550505050565b60008160405160200161114f9190612c35565b604051602081830303815290604052805190602001209050919050565b60008060008061117b85611791565b925092509250600186848484604051600081526020016040526040516111a49493929190612d1c565b6020604051602081039080840390855afa1580156111c6573d6000803e3d6000fd5b5050604051601f190151979650505050505050565b3390565b6000828201838110156112045760405162461bcd60e51b815260040161043d90612dfb565b9392505050565b6000908152606b60205260409020546001600160a01b0316151590565b60006112338261120b565b61124f5760405162461bcd60e51b815260040161043d90612e7b565b600061125a83610ac9565b9050806001600160a01b0316846001600160a01b031614806112955750836001600160a01b031661128a84610711565b6001600160a01b0316145b806112a557506112a58185610fe5565b949350505050565b826001600160a01b03166112c082610ac9565b6001600160a01b0316146112e65760405162461bcd60e51b815260040161043d90612e3b565b6001600160a01b03821661130c5760405162461bcd60e51b815260040161043d90612f3b565b611315816117c0565b6001600160a01b0383166000908152606d60205260409020611336906117fb565b6001600160a01b0382166000908152606d6020526040902061135790611812565b6000818152606b602052604080822080546001600160a01b0319166001600160a01b0386811691821790925591518493918716917fddf252ad1be2c89b69c2b068fc378daa952ba7f163c4a11628f55a4df523b3ef91a4505050565b6113bb610be8565b6001600160a01b0316816001600160a01b0316141580156113f457506001600160a01b03811660009081526071602052604090205460ff165b6114105760405162461bcd60e51b815260040161043d90612dbb565b6001600160a01b0381166000908152607160205260409020805460ff1916905560725461144490600163ffffffff61176916565b60725550565b61097361145682610ac9565b8261181b565b6001600160a01b0382166114825760405162461bcd60e51b815260040161043d90612dab565b61148b8161120b565b156114a85760405162461bcd60e51b815260040161043d90612f2b565b6000818152606b6020908152604080832080546001600160a01b0319166001600160a01b0387169081179091558352606d90915290206114e790611812565b606a546114fb90600163ffffffff6111df16565b606a5560008181526070602052604080822080546001600160a01b0319166001600160a01b03861690811790915590518392907fddf252ad1be2c89b69c2b068fc378daa952ba7f163c4a11628f55a4df523b3ef908290a45050565b6115608261120b565b61157c5760405162461bcd60e51b815260040161043d90612d8b565b6000828152606f6020908152604090912082516108d492840190611ab6565b5490565b600054610100900460ff16806115b857506115b861193d565b806115c6575060005460ff16155b6115e25760405162461bcd60e51b815260040161043d90612f1b565b600054610100900460ff1615801561160d576000805460ff1961ff0019909116610100171660011790555b603380546001600160a01b0319166001600160a01b0384811691909117918290556040519116906000907f8be0079c531659141344cd1fd0a4f28419497f9722a3daafe3b4186f6b6457e0908290a3801561166e576000805461ff00191690555b5050565b61167d8484846112ad565b61168984848484611943565b610e875760405162461bcd60e51b815260040161043d90612d9b565b6060816116ca57506040805180820190915260018152600360fc1b6020820152610675565b8160005b81156116e257600101600a820491506116ce565b6060816040519080825280601f01601f19166020018201604052801561170f576020820181803883390190505b50859350905060001982015b831561176057600a840660300160f81b8282806001900393508151811061173e57fe5b60200101906001600160f81b031916908160001a905350600a8404935061171b565b50949350505050565b60008282111561178b5760405162461bcd60e51b815260040161043d90612e1b565b50900390565b600080600083516041146117a457600080fd5b5050506020810151604082015160609092015160001a92909190565b6000818152606c60205260409020546001600160a01b031615610973576000908152606c6020526040902080546001600160a01b0319169055565b805461180e90600163ffffffff61176916565b9055565b80546001019055565b816001600160a01b031661182e82610ac9565b6001600160a01b0316146118545760405162461bcd60e51b815260040161043d90612e6b565b61185d816117c0565b6000818152606b6020908152604080832080546001600160a01b03191690556001600160a01b0385168352606d9091529020611898906117fb565b606a546118ac90600163ffffffff61176916565b606a5560405181906000906001600160a01b038516907fddf252ad1be2c89b69c2b068fc378daa952ba7f163c4a11628f55a4df523b3ef908390a4600081815260706020908152604080832080546001600160a01b0319169055606f909152902054600260001960018316156101000201909116041561166e576000818152606f6020526040812061166e91611b34565b303b1590565b6000611957846001600160a01b0316611a7d565b611963575060016112a5565b600060606001600160a01b038616630a85bd0160e11b6119816111db565b8988886040516024016119979493929190612c63565b60408051601f198184030181529181526020820180516001600160e01b03166001600160e01b03199094169390931790925290516119d59190612c11565b6000604051808303816000865af19150503d8060008114611a12576040519150601f19603f3d011682016040523d82523d6000602084013e611a17565b606091505b509150915081611a4957805115611a315780518082602001fd5b60405162461bcd60e51b815260040161043d90612d9b565b600081806020019051611a5f919081019061207c565b6001600160e01b031916630a85bd0160e11b1493506112a592505050565b6000813f7fc5d2460186f7233c927e7db2dcc703c0e500b653ca82273b7bfad8045d85a4708181148015906112a5575050151592915050565b828054600181600116156101000203166002900490600052602060002090601f016020900481019282601f10611af757805160ff1916838001178555611b24565b82800160010185558215611b24579182015b82811115611b24578251825591602001919060010190611b09565b50611b30929150611b74565b5090565b50805460018160011615610100020316600290046000825580601f10611b5a5750610973565b601f01602090049060005260206000209081019061097391905b61070e91905b80821115611b305760008155600101611b7a565b803561100f8161309a565b600082601f830112611baa57600080fd5b8135611bbd611bb882612fa0565b612f79565b91508181835260208401935060208101905083856020840282011115611be257600080fd5b60005b83811015611c0e5781611bf88882611b8e565b8452506020928301929190910190600101611be5565b5050505092915050565b600082601f830112611c2957600080fd5b8135611c37611bb882612fa0565b81815260209384019390925082018360005b83811015611c0e5781358601611c5f8882611ca1565b8452506020928301929190910190600101611c49565b803561100f816130ae565b805161100f816130ae565b803561100f816130b7565b805161100f816130b7565b600082601f830112611cb257600080fd5b8135611cc0611bb882612fc1565b91508082526020830160208301858383011115611cdc57600080fd5b611ce7838284613041565b50505092915050565b600082601f830112611d0157600080fd5b8151611d0f611bb882612fc1565b91508082526020830160208301858383011115611d2b57600080fd5b611ce783828461304d565b803561100f816130c0565b600060208284031215611d5357600080fd5b60006112a58484611b8e565b60008060408385031215611d7257600080fd5b6000611d7e8585611b8e565b9250506020611d8f85828601611b8e565b9150509250929050565b600080600060608486031215611dae57600080fd5b6000611dba8686611b8e565b9350506020611dcb86828701611b8e565b9250506040611ddc86828701611d36565b9150509250925092565b60008060008060808587031215611dfc57600080fd5b6000611e088787611b8e565b9450506020611e1987828801611b8e565b9350506040611e2a87828801611d36565b925050606085013567ffffffffffffffff811115611e4757600080fd5b611e5387828801611ca1565b91505092959194509250565b60008060408385031215611e7257600080fd5b6000611e7e8585611b8e565b9250506020611d8f85828601611c75565b600080600060608486031215611ea457600080fd5b6000611eb08686611b8e565b935050602084013567ffffffffffffffff811115611ecd57600080fd5b611ed986828701611ca1565b925050604084013567ffffffffffffffff811115611ef657600080fd5b611ddc86828701611ca1565b60008060408385031215611f1557600080fd5b6000611f218585611b8e565b9250506020611d8f85828601611d36565b600060208284031215611f4457600080fd5b813567ffffffffffffffff811115611f5b57600080fd5b6112a584828501611b99565b600080600080600060a08688031215611f7f57600080fd5b853567ffffffffffffffff811115611f9657600080fd5b611fa288828901611b99565b9550506020611fb388828901611d36565b9450506040611fc488828901611d36565b9350506060611fd588828901611d36565b925050608086013567ffffffffffffffff811115611ff257600080fd5b611ffe88828901611ca1565b9150509295509295909350565b60006020828403121561201d57600080fd5b813567ffffffffffffffff81111561203457600080fd5b6112a584828501611c18565b60006020828403121561205257600080fd5b60006112a58484611c80565b60006020828403121561207057600080fd5b60006112a58484611c8b565b60006020828403121561208e57600080fd5b60006112a58484611c96565b6000602082840312156120ac57600080fd5b815167ffffffffffffffff8111156120c357600080fd5b6112a584828501611cf0565b6000602082840312156120e157600080fd5b60006112a58484611d36565b60006120f98383612119565b505060200190565b60006112048383612269565b60006120f98383612246565b61212281612ffc565b82525050565b600061213382612fef565b61213d8185610675565b935061214883612fe9565b8060005b8381101561217657815161216088826120ed565b975061216b83612fe9565b92505060010161214c565b509495945050505050565b600061218c82612fef565b6121968185612ff3565b9350836020820285016121a885612fe9565b8060005b858110156121e257848403895281516121c58582612101565b94506121d083612fe9565b60209a909a01999250506001016121ac565b5091979650505050505050565b60006121fa82612fef565b6122048185612ff3565b935061220f83612fe9565b8060005b83811015612176578151612227888261210d565b975061223283612fe9565b925050600101612213565b61212281613007565b6121228161070e565b61212261225b8261070e565b61070e565b6121228161300c565b600061227482612fef565b61227e8185612ff3565b935061228e81856020860161304d565b6122978161308a565b9093019392505050565b60006122ac82612fef565b6122b68185610675565b93506122c681856020860161304d565b9290920192915050565b6121226122dc8261302b565b613079565b61212281613036565b60006122f7602883612ff3565b7f436f6c6c656374696f6e3a2055524920736574206f66206e6f6e657869737465815267373a103a37b5b2b760c11b602082015260400192915050565b6000612341603683612ff3565b7f436f6c6c656374696f6e3a207472616e7366657220746f206e6f6e20455243378152751918a932b1b2b4bb32b91034b6b83632b6b2b73a32b960511b602082015260400192915050565b6000612399602483612ff3565b7f436f6c6c656374696f6e3a206d696e7420746f20746865207a65726f206164648152637265737360e01b602082015260400192915050565b60006123df602f83612ff3565b7f436f6c6c656374696f6e3a2063616c6c6572206973206f776e6572206f72206e81526e1bdd081a5b881dda1a5d195b1a5cdd608a1b602082015260400192915050565b6000612430601c83612ff3565b7f436f6c6c656374696f6e3a2063616c6c65722077617320616464656400000000815260200192915050565b6000612469601c83610675565b7f19457468657265756d205369676e6564204d6573736167653a0a3332000000008152601c0192915050565b60006124a2602d83612ff3565b7f436f6c6c656374696f6e3a206f776e657220717565727920666f72206e6f6e6581526c3c34b9ba32b73a103a37b5b2b760991b602082015260400192915050565b60006124f1602b83612ff3565b7f436f6c6c656374696f6e3a2055524920717565727920666f72206e6f6e65786981526a39ba32b73a103a37b5b2b760a91b602082015260400192915050565b600061253e601b83612ff3565b7f536166654d6174683a206164646974696f6e206f766572666c6f770000000000815260200192915050565b6000612577602e83612ff3565b7f436f6c6c656374696f6e3a2062616c616e636520717565727920666f7220746881526d65207a65726f206164647265737360901b602082015260400192915050565b60006125c7601e83612ff3565b7f536166654d6174683a207375627472616374696f6e206f766572666c6f770000815260200192915050565b6000612600602683612ff3565b7f436f6c6c656374696f6e3a206c656e677468206f6620617272617920697320698152651b9d985b1a5960d21b602082015260400192915050565b6000612648602d83612ff3565b7f436f6c6c656374696f6e3a207472616e73666572206f6620746f6b656e20746881526c30ba1034b9903737ba1037bbb760991b602082015260400192915050565b6000612697602083612ff3565b7f436f6c6c656374696f6e3a207369676e617475726520697320696e76616c6964815260200192915050565b60006126d0603383612ff3565b7f436f6c6c656374696f6e3a206163636f756e7420646f65736e27742068617665815272081c195c9b5a5cdcda5bdb881d1bc81b5a5b9d606a1b602082015260400192915050565b6000612725602983612ff3565b7f436f6c6c656374696f6e3a206275726e206f6620746f6b656e2074686174206981526839903737ba1037bbb760b91b602082015260400192915050565b6000612770603083612ff3565b7f436f6c6c656374696f6e3a206f70657261746f7220717565727920666f72206e81526f37b732bc34b9ba32b73a103a37b5b2b760811b602082015260400192915050565b60006127c2602183612ff3565b7f436f6c6c656374696f6e3a207369676e617475726520776173206578706972658152601960fa1b602082015260400192915050565b6000612805603c83612ff3565b7f436f6c6c656374696f6e3a20617070726f76652063616c6c6572206973206e6f81527f74206f776e6572206e6f7220617070726f76656420666f7220616c6c00000000602082015260400192915050565b6000612864603983612ff3565b7f436f6c6c656374696f6e3a2063616c6c6572206973206f776e6572206f72206e81527f6f7420696e2074686520696e7669746174696f6e206c69737400000000000000602082015260400192915050565b60006128c3603683612ff3565b7f436f6c6c656374696f6e3a206275726e206f6620746f6b656e207468617420698152751cc81b9bdd081bdddb881b9bdc88185c1c1c9bdd995960521b602082015260400192915050565b600061291b601d83612ff3565b7f436f6c6c656374696f6e3a20617070726f766520746f2063616c6c6572000000815260200192915050565b6000612954602683612ff3565b7f436f6c6c656374696f6e3a2063616c6c6572206973206e6f7420696e207768698152651d195b1a5cdd60d21b602082015260400192915050565b600061299c602083612ff3565b7f4f776e61626c653a2063616c6c6572206973206e6f7420746865206f776e6572815260200192915050565b60006129d5603583612ff3565b7f436f6c6c656374696f6e3a207472616e736665722063616c6c6572206973206e8152741bdd081bdddb995c881b9bdc88185c1c1c9bdd9959605a1b602082015260400192915050565b6000612a2c603083612ff3565b7f436f6c6c656374696f6e3a20617070726f76656420717565727920666f72206e81526f37b732bc34b9ba32b73a103a37b5b2b760811b602082015260400192915050565b6000612a7e602e83612ff3565b7f436f6e747261637420696e7374616e63652068617320616c726561647920626581526d195b881a5b9a5d1a585b1a5e995960921b602082015260400192915050565b6000612ace602083612ff3565b7f436f6c6c656374696f6e3a20746f6b656e20616c7265616479206d696e746564815260200192915050565b6000612b07602883612ff3565b7f436f6c6c656374696f6e3a207472616e7366657220746f20746865207a65726f815267206164647265737360c01b602082015260400192915050565b6000612b51601c83612ff3565b7f436f6c6c656374696f6e3a206e6f6e636520697320696e76616c696400000000815260200192915050565b6000612b8a602583612ff3565b7f436f6c6c656374696f6e3a20617070726f76616c20746f2063757272656e742081526437bbb732b960d91b602082015260400192915050565b61212281613025565b6000612bd98287612128565b9150612be5828661224f565b602082019150612bf5828561224f565b602082019150612c0582846122d0565b50601401949350505050565b600061120482846122a1565b6000612c2982856122a1565b91506112a582846122a1565b6000612c408261245c565b9150612c4c828461224f565b50602001919050565b6020810161100f8284612119565b60808101612c718287612119565b612c7e6020830186612119565b612c8b6040830185612246565b8181036060830152612c9d8184612269565b9695505050505050565b60808101612cb58287612119565b8181036020830152612cc781866121ef565b90508181036040830152612cdb8185612181565b9050612cea60608301846122e1565b95945050505050565b60408101612d018285612119565b6112046020830184612246565b6020810161100f828461223d565b60808101612d2a8287612246565b612d376020830186612bc4565b612d446040830185612246565b612cea6060830184612246565b6020810161100f8284612260565b60408101612d6d82856122e1565b6112046020830184612119565b602080825281016112048184612269565b60208082528101610672816122ea565b6020808252810161067281612334565b602080825281016106728161238c565b60208082528101610672816123d2565b6020808252810161067281612423565b6020808252810161067281612495565b60208082528101610672816124e4565b6020808252810161067281612531565b602080825281016106728161256a565b60208082528101610672816125ba565b60208082528101610672816125f3565b602080825281016106728161263b565b602080825281016106728161268a565b60208082528101610672816126c3565b6020808252810161067281612718565b6020808252810161067281612763565b60208082528101610672816127b5565b60208082528101610672816127f8565b6020808252810161067281612857565b60208082528101610672816128b6565b602080825281016106728161290e565b6020808252810161067281612947565b602080825281016106728161298f565b60208082528101610672816129c8565b6020808252810161067281612a1f565b6020808252810161067281612a71565b6020808252810161067281612ac1565b6020808252810161067281612afa565b6020808252810161067281612b44565b6020808252810161067281612b7d565b6020810161100f8284612246565b60405181810167ffffffffffffffff81118282101715612f9857600080fd5b604052919050565b600067ffffffffffffffff821115612fb757600080fd5b5060209081020190565b600067ffffffffffffffff821115612fd857600080fd5b506020601f91909101601f19160190565b60200190565b5190565b90815260200190565b600061067282613019565b151590565b6001600160e01b03191690565b6001600160a01b031690565b60ff1690565b600061067282612ffc565b60006106728261070e565b82818337506000910152565b60005b83811015613068578181015183820152602001613050565b83811115610e875750506000910152565b600061067282600061067282613094565b601f01601f191690565b60601b90565b6130a381612ffc565b811461097357600080fd5b6130a381613007565b6130a38161300c565b6130a38161070e56fea365627a7a7231582027c1a826d5c6a6607e102fc34ab48fda07325a10b0d8b06641f0830ea0b4565e6c6578706572696d656e74616cf564736f6c63430005110040"}}