{
  "opcodeHash": "0x255143ff7833d6687a05dbdd65122660087fbda3297360339ad84187f6beb89d",
  "metalessHash": "0x41763bb99ce2f76b03e39669cb5437683d640c6776330e5633cb666f0ff589eb",
  "runtimeHash": "0xc67d2c73089f43eb5a5ac89cdaf2304f2c83b8a138413929f77ad3f61e6dd97b",
  "encodedMetadata": [
    {
      "ipfs": "/ipfs/QmaW6W7Y52qJ4tyH3gdWV1fe6zCimXXAWD4TUPFBVxXerX",
      "solc": "0.8.4"
    }
  ],
  "abi": [
    {
      "inputs": [],
      "stateMutability": "nonpayable",
      "type": "constructor"
    },
    {
      "anonymous": false,
      "inputs": [
        {
          "indexed": true,
          "internalType": "address",
          "name": "owner",
          "type": "address"
        },
        {
          "indexed": true,
          "internalType": "address",
          "name": "spender",
          "type": "address"
        },
        {
          "indexed": false,
          "internalType": "uint256",
          "name": "value",
          "type": "uint256"
        }
      ],
      "name": "Approval",
      "type": "event"
    },
    {
      "anonymous": false,
      "inputs": [
        {
          "indexed": false,
          "internalType": "uint256",
          "name": "_buybackFee",
          "type": "uint256"
        },
        {
          "indexed": false,
          "internalType": "uint256",
          "name": "_marketingFee",
          "type": "uint256"
        },
        {
          "indexed": false,
          "internalType": "uint256",
          "name": "_devFee",
          "type": "uint256"
        }
      ],
      "name": "FeesUpdated",
      "type": "event"
    },
    {
      "anonymous": false,
      "inputs": [
        {
          "indexed": false,
          "internalType": "uint256",
          "name": "_maxTxAmount",
          "type": "uint256"
        }
      ],
      "name": "MaxTxAmountUpdated",
      "type": "event"
    },
    {
      "anonymous": false,
      "inputs": [
        {
          "indexed": true,
          "internalType": "address",
          "name": "previousOwner",
          "type": "address"
        },
        {
          "indexed": true,
          "internalType": "address",
          "name": "newOwner",
          "type": "address"
        }
      ],
      "name": "OwnershipTransferred",
      "type": "event"
    },
    {
      "anonymous": false,
      "inputs": [
        {
          "indexed": false,
          "internalType": "uint256",
          "name": "_marketingPercent",
          "type": "uint256"
        },
        {
          "indexed": false,
          "internalType": "uint256",
          "name": "_buybackPercent",
          "type": "uint256"
        }
      ],
      "name": "PercentsUpdated",
      "type": "event"
    },
    {
      "anonymous": false,
      "inputs": [
        {
          "indexed": true,
          "internalType": "address",
          "name": "from",
          "type": "address"
        },
        {
          "indexed": true,
          "internalType": "address",
          "name": "to",
          "type": "address"
        },
        {
          "indexed": false,
          "internalType": "uint256",
          "name": "value",
          "type": "uint256"
        }
      ],
      "name": "Transfer",
      "type": "event"
    },
    {
      "inputs": [],
      "name": "_buybackFee",
      "outputs": [
        {
          "internalType": "uint256",
          "name": "",
          "type": "uint256"
        }
      ],
      "stateMutability": "view",
      "type": "function"
    },
    {
      "inputs": [],
      "name": "_buybackPercent",
      "outputs": [
        {
          "internalType": "uint256",
          "name": "",
          "type": "uint256"
        }
      ],
      "stateMutability": "view",
      "type": "function"
    },
    {
      "inputs": [],
      "name": "_devFee",
      "outputs": [
        {
          "internalType": "uint256",
          "name": "",
          "type": "uint256"
        }
      ],
      "stateMutability": "view",
      "type": "function"
    },
    {
      "inputs": [],
      "name": "_marketingFee",
      "outputs": [
        {
          "internalType": "uint256",
          "name": "",
          "type": "uint256"
        }
      ],
      "stateMutability": "view",
      "type": "function"
    },
    {
      "inputs": [],
      "name": "_marketingPercent",
      "outputs": [
        {
          "internalType": "uint256",
          "name": "",
          "type": "uint256"
        }
      ],
      "stateMutability": "view",
      "type": "function"
    },
    {
      "inputs": [
        {
          "internalType": "address",
          "name": "account",
          "type": "address"
        }
      ],
      "name": "addBot",
      "outputs": [],
      "stateMutability": "nonpayable",
      "type": "function"
    },
    {
      "inputs": [
        {
          "internalType": "address",
          "name": "owner",
          "type": "address"
        },
        {
          "internalType": "address",
          "name": "spender",
          "type": "address"
        }
      ],
      "name": "allowance",
      "outputs": [
        {
          "internalType": "uint256",
          "name": "",
          "type": "uint256"
        }
      ],
      "stateMutability": "view",
      "type": "function"
    },
    {
      "inputs": [
        {
          "internalType": "address",
          "name": "spender",
          "type": "address"
        },
        {
          "internalType": "uint256",
          "name": "amount",
          "type": "uint256"
        }
      ],
      "name": "approve",
      "outputs": [
        {
          "internalType": "bool",
          "name": "",
          "type": "bool"
        }
      ],
      "stateMutability": "nonpayable",
      "type": "function"
    },
    {
      "inputs": [
        {
          "internalType": "address",
          "name": "account",
          "type": "address"
        }
      ],
      "name": "balanceOf",
      "outputs": [
        {
          "internalType": "uint256",
          "name": "",
          "type": "uint256"
        }
      ],
      "stateMutability": "view",
      "type": "function"
    },
    {
      "inputs": [],
      "name": "decimals",
      "outputs": [
        {
          "internalType": "uint8",
          "name": "",
          "type": "uint8"
        }
      ],
      "stateMutability": "pure",
      "type": "function"
    },
    {
      "inputs": [
        {
          "internalType": "address",
          "name": "account",
          "type": "address"
        }
      ],
      "name": "excludeFromFee",
      "outputs": [],
      "stateMutability": "nonpayable",
      "type": "function"
    },
    {
      "inputs": [
        {
          "internalType": "address",
          "name": "account",
          "type": "address"
        }
      ],
      "name": "includeInFee",
      "outputs": [],
      "stateMutability": "nonpayable",
      "type": "function"
    },
    {
      "inputs": [],
      "name": "manualsend",
      "outputs": [],
      "stateMutability": "nonpayable",
      "type": "function"
    },
    {
      "inputs": [],
      "name": "manualswap",
      "outputs": [],
      "stateMutability": "nonpayable",
      "type": "function"
    },
    {
      "inputs": [],
      "name": "name",
      "outputs": [
        {
          "internalType": "string",
          "name": "",
          "type": "string"
        }
      ],
      "stateMutability": "pure",
      "type": "function"
    },
    {
      "inputs": [
        {
          "internalType": "uint256",
          "name": "botBlocks",
          "type": "uint256"
        }
      ],
      "name": "openTrading",
      "outputs": [],
      "stateMutability": "nonpayable",
      "type": "function"
    },
    {
      "inputs": [],
      "name": "owner",
      "outputs": [
        {
          "internalType": "address",
          "name": "",
          "type": "address"
        }
      ],
      "stateMutability": "view",
      "type": "function"
    },
    {
      "inputs": [
        {
          "internalType": "address",
          "name": "account",
          "type": "address"
        }
      ],
      "name": "removeBot",
      "outputs": [],
      "stateMutability": "nonpayable",
      "type": "function"
    },
    {
      "inputs": [],
      "name": "renounceOwnership",
      "outputs": [],
      "stateMutability": "nonpayable",
      "type": "function"
    },
    {
      "inputs": [
        {
          "internalType": "uint256",
          "name": "maxTxPercent",
          "type": "uint256"
        }
      ],
      "name": "setMaxTxPercent",
      "outputs": [],
      "stateMutability": "nonpayable",
      "type": "function"
    },
    {
      "inputs": [
        {
          "internalType": "uint256",
          "name": "marketingPercent",
          "type": "uint256"
        },
        {
          "internalType": "uint256",
          "name": "buybackPercent",
          "type": "uint256"
        }
      ],
      "name": "setPercents",
      "outputs": [],
      "stateMutability": "nonpayable",
      "type": "function"
    },
    {
      "inputs": [
        {
          "internalType": "uint256",
          "name": "marketingFee",
          "type": "uint256"
        },
        {
          "internalType": "uint256",
          "name": "buybackFee",
          "type": "uint256"
        },
        {
          "internalType": "uint256",
          "name": "devFee",
          "type": "uint256"
        }
      ],
      "name": "setTaxes",
      "outputs": [],
      "stateMutability": "nonpayable",
      "type": "function"
    },
    {
      "inputs": [],
      "name": "symbol",
      "outputs": [
        {
          "internalType": "string",
          "name": "",
          "type": "string"
        }
      ],
      "stateMutability": "pure",
      "type": "function"
    },
    {
      "inputs": [],
      "name": "totalSupply",
      "outputs": [
        {
          "internalType": "uint256",
          "name": "",
          "type": "uint256"
        }
      ],
      "stateMutability": "pure",
      "type": "function"
    },
    {
      "inputs": [
        {
          "internalType": "address",
          "name": "recipient",
          "type": "address"
        },
        {
          "internalType": "uint256",
          "name": "amount",
          "type": "uint256"
        }
      ],
      "name": "transfer",
      "outputs": [
        {
          "internalType": "bool",
          "name": "",
          "type": "bool"
        }
      ],
      "stateMutability": "nonpayable",
      "type": "function"
    },
    {
      "inputs": [
        {
          "internalType": "address",
          "name": "sender",
          "type": "address"
        },
        {
          "internalType": "address",
          "name": "recipient",
          "type": "address"
        },
        {
          "internalType": "uint256",
          "name": "amount",
          "type": "uint256"
        }
      ],
      "name": "transferFrom",
      "outputs": [
        {
          "internalType": "bool",
          "name": "",
          "type": "bool"
        }
      ],
      "stateMutability": "nonpayable",
      "type": "function"
    },
    {
      "inputs": [],
      "name": "uniswapV2Pair",
      "outputs": [
        {
          "internalType": "address",
          "name": "",
          "type": "address"
        }
      ],
      "stateMutability": "view",
      "type": "function"
    },
    {
      "stateMutability": "payable",
      "type": "receive"
    }
  ],
  "bytecode": {
    "object": "608060405260006008556008546009556000600a55600a54600b556000600c55600c54600d556021600e556043600f5573e692cd512fa70fcbcacf984c6a210b1a992152ec601160006101000a81548173ffffffffffffffffffffffffffffffffffffffff021916908373ffffffffffffffffffffffffffffffffffffffff16021790555073e7a1a9027613ccf3b63cf5773ddcef3107de8966601260006101000a81548173ffffffffffffffffffffffffffffffffffffffff021916908373ffffffffffffffffffffffffffffffffffffffff1602179055506000601660006101000a81548160ff0219169083151502179055506000601660016101000a81548160ff0219169083151502179055503480156200011c57600080fd5b5060006200012f620007d860201b60201c565b9050806000806101000a81548173ffffffffffffffffffffffffffffffffffffffff021916908373ffffffffffffffffffffffffffffffffffffffff1602179055508073ffffffffffffffffffffffffffffffffffffffff16600073ffffffffffffffffffffffffffffffffffffffff167f8be0079c531659141344cd1fd0a4f28419497f9722a3daafe3b4186f6b6457e060405160405180910390a3506000737a250d5630b4cf539739df2c5dacb4c659f2488d905080601360006101000a81548173ffffffffffffffffffffffffffffffffffffffff021916908373ffffffffffffffffffffffffffffffffffffffff1602179055506200026530601360009054906101000a900473ffffffffffffffffffffffffffffffffffffffff16683635c9adc5dea00000620007e060201b60201c565b8073ffffffffffffffffffffffffffffffffffffffff1663c45a01556040518163ffffffff1660e01b815260040160206040518083038186803b158015620002ac57600080fd5b505afa158015620002c1573d6000803e3d6000fd5b505050506040513d601f19601f82011682018060405250810190620002e7919062000a0a565b73ffffffffffffffffffffffffffffffffffffffff1663c9c65396308373ffffffffffffffffffffffffffffffffffffffff1663ad5c46486040518163ffffffff1660e01b815260040160206040518083038186803b1580156200034a57600080fd5b505afa1580156200035f573d6000803e3d6000fd5b505050506040513d601f19601f8201168201806040525081019062000385919062000a0a565b6040518363ffffffff1660e01b8152600401620003a492919062000ad2565b602060405180830381600087803b158015620003bf57600080fd5b505af1158015620003d4573d6000803e3d6000fd5b505050506040513d601f19601f82011682018060405250810190620003fa919062000a0a565b601460006101000a81548173ffffffffffffffffffffffffffffffffffffffff021916908373ffffffffffffffffffffffffffffffffffffffff160217905550601460009054906101000a900473ffffffffffffffffffffffffffffffffffffffff1673ffffffffffffffffffffffffffffffffffffffff1663095ea7b3601360009054906101000a900473ffffffffffffffffffffffffffffffffffffffff167fffffffffffffffffffffffffffffffffffffffffffffffffffffffffffffffff6040518363ffffffff1660e01b8152600401620004db92919062000aff565b602060405180830381600087803b158015620004f657600080fd5b505af11580156200050b573d6000803e3d6000fd5b505050506040513d601f19601f8201168201806040525081019062000531919062000a36565b50683635c9adc5dea00000601581905550683635c9adc5dea000006002600062000560620007d860201b60201c565b73ffffffffffffffffffffffffffffffffffffffff1673ffffffffffffffffffffffffffffffffffffffff16815260200190815260200160002081905550600160046000620005b4620009b360201b60201c565b73ffffffffffffffffffffffffffffffffffffffff1673ffffffffffffffffffffffffffffffffffffffff16815260200190815260200160002060006101000a81548160ff0219169083151502179055506001600460003073ffffffffffffffffffffffffffffffffffffffff1673ffffffffffffffffffffffffffffffffffffffff16815260200190815260200160002060006101000a81548160ff021916908315150217905550600160046000601160009054906101000a900473ffffffffffffffffffffffffffffffffffffffff1673ffffffffffffffffffffffffffffffffffffffff1673ffffffffffffffffffffffffffffffffffffffff16815260200190815260200160002060006101000a81548160ff021916908315150217905550600160046000601260009054906101000a900473ffffffffffffffffffffffffffffffffffffffff1673ffffffffffffffffffffffffffffffffffffffff1673ffffffffffffffffffffffffffffffffffffffff16815260200190815260200160002060006101000a81548160ff02191690831515021790555062000761620007d860201b60201c565b73ffffffffffffffffffffffffffffffffffffffff16600073ffffffffffffffffffffffffffffffffffffffff167fddf252ad1be2c89b69c2b068fc378daa952ba7f163c4a11628f55a4df523b3ef683635c9adc5dea00000604051620007c9919062000b70565b60405180910390a35062000cba565b600033905090565b600073ffffffffffffffffffffffffffffffffffffffff168373ffffffffffffffffffffffffffffffffffffffff16141562000853576040517f08c379a00000000000000000000000000000000000000000000000000000000081526004016200084a9062000b4e565b60405180910390fd5b600073ffffffffffffffffffffffffffffffffffffffff168273ffffffffffffffffffffffffffffffffffffffff161415620008c6576040517f08c379a0000000000000000000000000000000000000000000000000000000008152600401620008bd9062000b2c565b60405180910390fd5b80600360008573ffffffffffffffffffffffffffffffffffffffff1673ffffffffffffffffffffffffffffffffffffffff16815260200190815260200160002060008473ffffffffffffffffffffffffffffffffffffffff1673ffffffffffffffffffffffffffffffffffffffff168152602001908152602001600020819055508173ffffffffffffffffffffffffffffffffffffffff168373ffffffffffffffffffffffffffffffffffffffff167f8c5be1e5ebec7d5bd14f71427d1e84f3dd0314c0f7b2291e5b200ac8c7c3b92583604051620009a6919062000b70565b60405180910390a3505050565b60008060009054906101000a900473ffffffffffffffffffffffffffffffffffffffff16905090565b600081519050620009ed8162000c86565b92915050565b60008151905062000a048162000ca0565b92915050565b60006020828403121562000a1d57600080fd5b600062000a2d84828501620009dc565b91505092915050565b60006020828403121562000a4957600080fd5b600062000a5984828501620009f3565b91505092915050565b62000a6d8162000b9e565b82525050565b600062000a8260228362000b8d565b915062000a8f8262000be8565b604082019050919050565b600062000aa960248362000b8d565b915062000ab68262000c37565b604082019050919050565b62000acc8162000bde565b82525050565b600060408201905062000ae9600083018562000a62565b62000af8602083018462000a62565b9392505050565b600060408201905062000b16600083018562000a62565b62000b25602083018462000ac1565b9392505050565b6000602082019050818103600083015262000b478162000a73565b9050919050565b6000602082019050818103600083015262000b698162000a9a565b9050919050565b600060208201905062000b87600083018462000ac1565b92915050565b600082825260208201905092915050565b600062000bab8262000bbe565b9050919050565b60008115159050919050565b600073ffffffffffffffffffffffffffffffffffffffff82169050919050565b6000819050919050565b7f45524332303a20617070726f766520746f20746865207a65726f20616464726560008201527f7373000000000000000000000000000000000000000000000000000000000000602082015250565b7f45524332303a20617070726f76652066726f6d20746865207a65726f2061646460008201527f7265737300000000000000000000000000000000000000000000000000000000602082015250565b62000c918162000b9e565b811462000c9d57600080fd5b50565b62000cab8162000bb2565b811462000cb757600080fd5b50565b61340a8062000cca6000396000f3fe6080604052600436106101a05760003560e01c8063770d9907116100ec578063d16336491161008a578063e1d7eefd11610064578063e1d7eefd1461059d578063e9dae5ed146105c8578063ea2f0b37146105f1578063ffecf5161461061a576101a7565b8063d16336491461050e578063d543dbeb14610537578063dd62ed3e14610560576101a7565b8063a9059cbb116100c6578063a9059cbb14610466578063aa45026b146104a3578063b44a14b6146104ce578063c3c8cd80146104f7576101a7565b8063770d9907146103e55780638da5cb5b1461041057806395d89b411461043b576101a7565b8063313ce567116101595780635fecd926116101335780635fecd926146103515780636fc3eaec1461037a57806370a0823114610391578063715018a6146103ce576101a7565b8063313ce567146102d2578063437823ec146102fd57806349bd5a5e14610326576101a7565b806306fdde03146101ac578063095ea7b3146101d757806318160ddd1461021457806319de79ab1461023f57806322976e0d1461026a57806323b872dd14610295576101a7565b366101a757005b600080fd5b3480156101b857600080fd5b506101c1610643565b6040516101ce9190612baa565b60405180910390f35b3480156101e357600080fd5b506101fe60048036038101906101f991906127fa565b610663565b60405161020b9190612b8f565b60405180910390f35b34801561022057600080fd5b50610229610681565b6040516102369190612d2c565b60405180910390f35b34801561024b57600080fd5b50610254610692565b6040516102619190612d2c565b60405180910390f35b34801561027657600080fd5b5061027f610698565b60405161028c9190612d2c565b60405180910390f35b3480156102a157600080fd5b506102bc60048036038101906102b791906127ab565b61069e565b6040516102c99190612b8f565b60405180910390f35b3480156102de57600080fd5b506102e7610777565b6040516102f49190612e01565b60405180910390f35b34801561030957600080fd5b50610324600480360381019061031f919061271d565b610780565b005b34801561033257600080fd5b5061033b610870565b6040516103489190612b74565b60405180910390f35b34801561035d57600080fd5b506103786004803603810190610373919061271d565b610896565b005b34801561038657600080fd5b5061038f610986565b005b34801561039d57600080fd5b506103b860048036038101906103b3919061271d565b6109f8565b6040516103c59190612d2c565b60405180910390f35b3480156103da57600080fd5b506103e3610a41565b005b3480156103f157600080fd5b506103fa610b94565b6040516104079190612d2c565b60405180910390f35b34801561041c57600080fd5b50610425610b9a565b6040516104329190612b74565b60405180910390f35b34801561044757600080fd5b50610450610bc3565b60405161045d9190612baa565b60405180910390f35b34801561047257600080fd5b5061048d600480360381019061048891906127fa565b610c00565b60405161049a9190612b8f565b60405180910390f35b3480156104af57600080fd5b506104b8610c1e565b6040516104c59190612d2c565b60405180910390f35b3480156104da57600080fd5b506104f560048036038101906104f0919061285f565b610c24565b005b34801561050357600080fd5b5061050c610d5d565b005b34801561051a57600080fd5b5061053560048036038101906105309190612836565b610dd7565b005b34801561054357600080fd5b5061055e60048036038101906105599190612836565b610e98565b005b34801561056c57600080fd5b506105876004803603810190610582919061276f565b610fe1565b6040516105949190612d2c565b60405180910390f35b3480156105a957600080fd5b506105b2611068565b6040516105bf9190612d2c565b60405180910390f35b3480156105d457600080fd5b506105ef60048036038101906105ea919061289b565b61106e565b005b3480156105fd57600080fd5b506106186004803603810190610613919061271d565b6111e2565b005b34801561062657600080fd5b50610641600480360381019061063c919061271d565b6112d2565b005b606060405180606001604052806022815260200161338b60229139905090565b60006106776106706113c2565b84846113ca565b6001905092915050565b6000683635c9adc5dea00000905090565b60085481565b600a5481565b60006106ab848484611595565b61076c846106b76113c2565b610767856040518060600160405280602881526020016133ad60289139600360008b73ffffffffffffffffffffffffffffffffffffffff1673ffffffffffffffffffffffffffffffffffffffff168152602001908152602001600020600061071d6113c2565b73ffffffffffffffffffffffffffffffffffffffff1673ffffffffffffffffffffffffffffffffffffffff16815260200190815260200160002054611b929092919063ffffffff16565b6113ca565b600190509392505050565b60006009905090565b6107886113c2565b73ffffffffffffffffffffffffffffffffffffffff1660008054906101000a900473ffffffffffffffffffffffffffffffffffffffff1673ffffffffffffffffffffffffffffffffffffffff1614610815576040517f08c379a000000000000000000000000000000000000000000000000000000000815260040161080c90612c8c565b60405180910390fd5b6001600460008373ffffffffffffffffffffffffffffffffffffffff1673ffffffffffffffffffffffffffffffffffffffff16815260200190815260200160002060006101000a81548160ff02191690831515021790555050565b601460009054906101000a900473ffffffffffffffffffffffffffffffffffffffff1681565b61089e6113c2565b73ffffffffffffffffffffffffffffffffffffffff1660008054906101000a900473ffffffffffffffffffffffffffffffffffffffff1673ffffffffffffffffffffffffffffffffffffffff161461092b576040517f08c379a000000000000000000000000000000000000000000000000000000000815260040161092290612c8c565b60405180910390fd5b6000601060008373ffffffffffffffffffffffffffffffffffffffff1673ffffffffffffffffffffffffffffffffffffffff16815260200190815260200160002060006101000a81548160ff02191690831515021790555050565b601160009054906101000a900473ffffffffffffffffffffffffffffffffffffffff1673ffffffffffffffffffffffffffffffffffffffff166109c76113c2565b73ffffffffffffffffffffffffffffffffffffffff16146109e757600080fd5b60004790506109f581611bf6565b50565b6000600260008373ffffffffffffffffffffffffffffffffffffffff1673ffffffffffffffffffffffffffffffffffffffff168152602001908152602001600020549050919050565b610a496113c2565b73ffffffffffffffffffffffffffffffffffffffff1660008054906101000a900473ffffffffffffffffffffffffffffffffffffffff1673ffffffffffffffffffffffffffffffffffffffff1614610ad6576040517f08c379a0000000000000000000000000000000000000000000000000000000008152600401610acd90612c8c565b60405180910390fd5b600073ffffffffffffffffffffffffffffffffffffffff1660008054906101000a900473ffffffffffffffffffffffffffffffffffffffff1673ffffffffffffffffffffffffffffffffffffffff167f8be0079c531659141344cd1fd0a4f28419497f9722a3daafe3b4186f6b6457e060405160405180910390a360008060006101000a81548173ffffffffffffffffffffffffffffffffffffffff021916908373ffffffffffffffffffffffffffffffffffffffff160217905550565b600e5481565b60008060009054906101000a900473ffffffffffffffffffffffffffffffffffffffff16905090565b60606040518060400160405280600c81526020017f426f7773657220546f6b656e0000000000000000000000000000000000000000815250905090565b6000610c14610c0d6113c2565b8484611595565b6001905092915050565b600c5481565b610c2c6113c2565b73ffffffffffffffffffffffffffffffffffffffff1660008054906101000a900473ffffffffffffffffffffffffffffffffffffffff1673ffffffffffffffffffffffffffffffffffffffff1614610cb9576040517f08c379a0000000000000000000000000000000000000000000000000000000008152600401610cb090612c8c565b60405180910390fd5b6064610cce8284611d1990919063ffffffff16565b14610d0e576040517f08c379a0000000000000000000000000000000000000000000000000000000008152600401610d0590612ccc565b60405180910390fd5b81600e8190555080600f819055507f012f5df73148ec03a4ac44111fcf100a014ee232c9f1b328180ab5f3996821e5600e54600f54604051610d51929190612da1565b60405180910390a15050565b601160009054906101000a900473ffffffffffffffffffffffffffffffffffffffff1673ffffffffffffffffffffffffffffffffffffffff16610d9e6113c2565b73ffffffffffffffffffffffffffffffffffffffff1614610dbe57600080fd5b6000610dc9306109f8565b9050610dd481611d77565b50565b610ddf6113c2565b73ffffffffffffffffffffffffffffffffffffffff1660008054906101000a900473ffffffffffffffffffffffffffffffffffffffff1673ffffffffffffffffffffffffffffffffffffffff1614610e6c576040517f08c379a0000000000000000000000000000000000000000000000000000000008152600401610e6390612c8c565b60405180910390fd5b42600681905550806007819055506001601660006101000a81548160ff02191690831515021790555050565b610ea06113c2565b73ffffffffffffffffffffffffffffffffffffffff1660008054906101000a900473ffffffffffffffffffffffffffffffffffffffff1673ffffffffffffffffffffffffffffffffffffffff1614610f2d576040517f08c379a0000000000000000000000000000000000000000000000000000000008152600401610f2490612c8c565b60405180910390fd5b60008111610f70576040517f08c379a0000000000000000000000000000000000000000000000000000000008152600401610f6790612c2c565b60405180910390fd5b610f9f6064610f9183683635c9adc5dea0000061207190919063ffffffff16565b6120ec90919063ffffffff16565b6015819055507f947f344d56e1e8c70dc492fb94c4ddddd490c016aab685f5e7e47b2e85cb44cf601554604051610fd69190612d2c565b60405180910390a150565b6000600360008473ffffffffffffffffffffffffffffffffffffffff1673ffffffffffffffffffffffffffffffffffffffff16815260200190815260200160002060008373ffffffffffffffffffffffffffffffffffffffff1673ffffffffffffffffffffffffffffffffffffffff16815260200190815260200160002054905092915050565b600f5481565b6110766113c2565b73ffffffffffffffffffffffffffffffffffffffff1660008054906101000a900473ffffffffffffffffffffffffffffffffffffffff1673ffffffffffffffffffffffffffffffffffffffff1614611103576040517f08c379a00000000000000000000000000000000000000000000000000000000081526004016110fa90612c8c565b60405180910390fd5b6103e861112b8261111d8587611d1990919063ffffffff16565b611d1990919063ffffffff16565b111561116c576040517f08c379a000000000000000000000000000000000000000000000000000000000815260040161116390612c4c565b60405180910390fd5b82600a819055508160088190555080600c81905550600a54600b81905550600854600981905550600c54600d819055507fcf8a1e1d5f09cf3c97dbb653cd9a4d7aace9292fbc1bb8211febf2d400febbdd600a54600854600c546040516111d593929190612dca565b60405180910390a1505050565b6111ea6113c2565b73ffffffffffffffffffffffffffffffffffffffff1660008054906101000a900473ffffffffffffffffffffffffffffffffffffffff1673ffffffffffffffffffffffffffffffffffffffff1614611277576040517f08c379a000000000000000000000000000000000000000000000000000000000815260040161126e90612c8c565b60405180910390fd5b6000600460008373ffffffffffffffffffffffffffffffffffffffff1673ffffffffffffffffffffffffffffffffffffffff16815260200190815260200160002060006101000a81548160ff02191690831515021790555050565b6112da6113c2565b73ffffffffffffffffffffffffffffffffffffffff1660008054906101000a900473ffffffffffffffffffffffffffffffffffffffff1673ffffffffffffffffffffffffffffffffffffffff1614611367576040517f08c379a000000000000000000000000000000000000000000000000000000000815260040161135e90612c8c565b60405180910390fd5b6001601060008373ffffffffffffffffffffffffffffffffffffffff1673ffffffffffffffffffffffffffffffffffffffff16815260200190815260200160002060006101000a81548160ff02191690831515021790555050565b600033905090565b600073ffffffffffffffffffffffffffffffffffffffff168373ffffffffffffffffffffffffffffffffffffffff16141561143a576040517f08c379a000000000000000000000000000000000000000000000000000000000815260040161143190612d0c565b60405180910390fd5b600073ffffffffffffffffffffffffffffffffffffffff168273ffffffffffffffffffffffffffffffffffffffff1614156114aa576040517f08c379a00000000000000000000000000000000000000000000000000000000081526004016114a190612bec565b60405180910390fd5b80600360008573ffffffffffffffffffffffffffffffffffffffff1673ffffffffffffffffffffffffffffffffffffffff16815260200190815260200160002060008473ffffffffffffffffffffffffffffffffffffffff1673ffffffffffffffffffffffffffffffffffffffff168152602001908152602001600020819055508173ffffffffffffffffffffffffffffffffffffffff168373ffffffffffffffffffffffffffffffffffffffff167f8c5be1e5ebec7d5bd14f71427d1e84f3dd0314c0f7b2291e5b200ac8c7c3b925836040516115889190612d2c565b60405180910390a3505050565b600073ffffffffffffffffffffffffffffffffffffffff168373ffffffffffffffffffffffffffffffffffffffff161415611605576040517f08c379a00000000000000000000000000000000000000000000000000000000081526004016115fc90612cec565b60405180910390fd5b600073ffffffffffffffffffffffffffffffffffffffff168273ffffffffffffffffffffffffffffffffffffffff161415611675576040517f08c379a000000000000000000000000000000000000000000000000000000000815260040161166c90612bcc565b60405180910390fd5b600081116116b8576040517f08c379a00000000000000000000000000000000000000000000000000000000081526004016116af90612cac565b60405180910390fd5b6116c0610b9a565b73ffffffffffffffffffffffffffffffffffffffff168373ffffffffffffffffffffffffffffffffffffffff161415801561172e57506116fe610b9a565b73ffffffffffffffffffffffffffffffffffffffff168273ffffffffffffffffffffffffffffffffffffffff1614155b15611ac757601660009054906101000a900460ff1661174c57600080fd5b60155481111561175b57600080fd5b61012c60065461176b9190612e71565b421161179b5761178e6064683635c9adc5dea000006120ec90919063ffffffff16565b81111561179a57600080fd5b5b601460009054906101000a900473ffffffffffffffffffffffffffffffffffffffff1673ffffffffffffffffffffffffffffffffffffffff168373ffffffffffffffffffffffffffffffffffffffff161480156118465750601360009054906101000a900473ffffffffffffffffffffffffffffffffffffffff1673ffffffffffffffffffffffffffffffffffffffff168273ffffffffffffffffffffffffffffffffffffffff1614155b156118c257611862600754600654611d1990919063ffffffff16565b42116118c1576001601060008473ffffffffffffffffffffffffffffffffffffffff1673ffffffffffffffffffffffffffffffffffffffff16815260200190815260200160002060006101000a81548160ff0219169083151502179055505b5b60006118cd306109f8565b9050601660019054906101000a900460ff1615801561193a5750601460009054906101000a900473ffffffffffffffffffffffffffffffffffffffff1673ffffffffffffffffffffffffffffffffffffffff168473ffffffffffffffffffffffffffffffffffffffff1614155b80156119905750600460008573ffffffffffffffffffffffffffffffffffffffff1673ffffffffffffffffffffffffffffffffffffffff16815260200190815260200160002060009054906101000a900460ff16155b80156119e65750600460008473ffffffffffffffffffffffffffffffffffffffff1673ffffffffffffffffffffffffffffffffffffffff16815260200190815260200160002060009054906101000a900460ff16155b15611ac557601060008473ffffffffffffffffffffffffffffffffffffffff1673ffffffffffffffffffffffffffffffffffffffff16815260200190815260200160002060009054906101000a900460ff16158015611a8f5750601060008573ffffffffffffffffffffffffffffffffffffffff1673ffffffffffffffffffffffffffffffffffffffff16815260200190815260200160002060009054906101000a900460ff16155b611a9857600080fd5b6000811115611aab57611aaa81611d77565b5b60004790506000811115611ac357611ac247611bf6565b5b505b505b600060019050600460008573ffffffffffffffffffffffffffffffffffffffff1673ffffffffffffffffffffffffffffffffffffffff16815260200190815260200160002060009054906101000a900460ff1680611b6e5750600460008473ffffffffffffffffffffffffffffffffffffffff1673ffffffffffffffffffffffffffffffffffffffff16815260200190815260200160002060009054906101000a900460ff165b15611b7857600090505b611b8484848484612136565b611b8c61230f565b50505050565b6000838311158290611bda576040517f08c379a0000000000000000000000000000000000000000000000000000000008152600401611bd19190612baa565b60405180910390fd5b5060008385611be99190612f52565b9050809150509392505050565b601160009054906101000a900473ffffffffffffffffffffffffffffffffffffffff1673ffffffffffffffffffffffffffffffffffffffff166108fc611c5a6064611c4c600e548661207190919063ffffffff16565b6120ec90919063ffffffff16565b9081150290604051600060405180830381858888f19350505050158015611c85573d6000803e3d6000fd5b50601260009054906101000a900473ffffffffffffffffffffffffffffffffffffffff1673ffffffffffffffffffffffffffffffffffffffff166108fc611cea6064611cdc600f548661207190919063ffffffff16565b6120ec90919063ffffffff16565b9081150290604051600060405180830381858888f19350505050158015611d15573d6000803e3d6000fd5b5050565b6000808284611d289190612e71565b905083811015611d6d576040517f08c379a0000000000000000000000000000000000000000000000000000000008152600401611d6490612c0c565b60405180910390fd5b8091505092915050565b6001601660016101000a81548160ff0219169083151502179055506000600267ffffffffffffffff811115611dd5577f4e487b7100000000000000000000000000000000000000000000000000000000600052604160045260246000fd5b604051908082528060200260200182016040528015611e035781602001602082028036833780820191505090505b5090503081600081518110611e41577f4e487b7100000000000000000000000000000000000000000000000000000000600052603260045260246000fd5b602002602001019073ffffffffffffffffffffffffffffffffffffffff16908173ffffffffffffffffffffffffffffffffffffffff1681525050601360009054906101000a900473ffffffffffffffffffffffffffffffffffffffff1673ffffffffffffffffffffffffffffffffffffffff1663ad5c46486040518163ffffffff1660e01b815260040160206040518083038186803b158015611ee357600080fd5b505afa158015611ef7573d6000803e3d6000fd5b505050506040513d601f19601f82011682018060405250810190611f1b9190612746565b81600181518110611f55577f4e487b7100000000000000000000000000000000000000000000000000000000600052603260045260246000fd5b602002602001019073ffffffffffffffffffffffffffffffffffffffff16908173ffffffffffffffffffffffffffffffffffffffff1681525050611fbc30601360009054906101000a900473ffffffffffffffffffffffffffffffffffffffff16846113ca565b601360009054906101000a900473ffffffffffffffffffffffffffffffffffffffff1673ffffffffffffffffffffffffffffffffffffffff1663791ac9478360008430426040518663ffffffff1660e01b8152600401612020959493929190612d47565b600060405180830381600087803b15801561203a57600080fd5b505af115801561204e573d6000803e3d6000fd5b50505050506000601660016101000a81548160ff02191690831515021790555050565b60008083141561208457600090506120e6565b600082846120929190612ef8565b90508284826120a19190612ec7565b146120e1576040517f08c379a00000000000000000000000000000000000000000000000000000000081526004016120d890612c6c565b60405180910390fd5b809150505b92915050565b600061212e83836040518060400160405280601a81526020017f536166654d6174683a206469766973696f6e206279207a65726f00000000000081525061232c565b905092915050565b806121445761214361238f565b5b600080600080612153866123f1565b93509350935093506121ad86600260008b73ffffffffffffffffffffffffffffffffffffffff1673ffffffffffffffffffffffffffffffffffffffff168152602001908152602001600020546124cc90919063ffffffff16565b600260008a73ffffffffffffffffffffffffffffffffffffffff1673ffffffffffffffffffffffffffffffffffffffff1681526020019081526020016000208190555061224284600260008a73ffffffffffffffffffffffffffffffffffffffff1673ffffffffffffffffffffffffffffffffffffffff16815260200190815260200160002054611d1990919063ffffffff16565b600260008973ffffffffffffffffffffffffffffffffffffffff1673ffffffffffffffffffffffffffffffffffffffff1681526020019081526020016000208190555061228e83612516565b612297826125ae565b6122a081612646565b8673ffffffffffffffffffffffffffffffffffffffff168873ffffffffffffffffffffffffffffffffffffffff167fddf252ad1be2c89b69c2b068fc378daa952ba7f163c4a11628f55a4df523b3ef866040516122fd9190612d2c565b60405180910390a35050505050505050565b600b54600a81905550600954600881905550600d54600c81905550565b60008083118290612373576040517f08c379a000000000000000000000000000000000000000000000000000000000815260040161236a9190612baa565b60405180910390fd5b50600083856123829190612ec7565b9050809150509392505050565b6000600a541480156123a357506000600854145b80156123b157506000600c54145b156123bb576123ef565b600a54600b81905550600854600981905550600c54600d819055506000600a8190555060006008819055506000600c819055505b565b60008060008060006124226103e86124146008548961207190919063ffffffff16565b6120ec90919063ffffffff16565b9050600061244f6103e8612441600a548a61207190919063ffffffff16565b6120ec90919063ffffffff16565b9050600061247c6103e861246e600c548b61207190919063ffffffff16565b6120ec90919063ffffffff16565b905060006124a583612497868c6124cc90919063ffffffff16565b6124cc90919063ffffffff16565b905081816124b39190612f52565b9050808484849750975097509750505050509193509193565b600061250e83836040518060400160405280601e81526020017f536166654d6174683a207375627472616374696f6e206f766572666c6f770000815250611b92565b905092915050565b61256881600260003073ffffffffffffffffffffffffffffffffffffffff1673ffffffffffffffffffffffffffffffffffffffff16815260200190815260200160002054611d1990919063ffffffff16565b600260003073ffffffffffffffffffffffffffffffffffffffff1673ffffffffffffffffffffffffffffffffffffffff1681526020019081526020016000208190555050565b61260081600260003073ffffffffffffffffffffffffffffffffffffffff1673ffffffffffffffffffffffffffffffffffffffff16815260200190815260200160002054611d1990919063ffffffff16565b600260003073ffffffffffffffffffffffffffffffffffffffff1673ffffffffffffffffffffffffffffffffffffffff1681526020019081526020016000208190555050565b61269881600260003073ffffffffffffffffffffffffffffffffffffffff1673ffffffffffffffffffffffffffffffffffffffff16815260200190815260200160002054611d1990919063ffffffff16565b600260003073ffffffffffffffffffffffffffffffffffffffff1673ffffffffffffffffffffffffffffffffffffffff1681526020019081526020016000208190555050565b6000813590506126ed8161335c565b92915050565b6000815190506127028161335c565b92915050565b60008135905061271781613373565b92915050565b60006020828403121561272f57600080fd5b600061273d848285016126de565b91505092915050565b60006020828403121561275857600080fd5b6000612766848285016126f3565b91505092915050565b6000806040838503121561278257600080fd5b6000612790858286016126de565b92505060206127a1858286016126de565b9150509250929050565b6000806000606084860312156127c057600080fd5b60006127ce868287016126de565b93505060206127df868287016126de565b92505060406127f086828701612708565b9150509250925092565b6000806040838503121561280d57600080fd5b600061281b858286016126de565b925050602061282c85828601612708565b9150509250929050565b60006020828403121561284857600080fd5b600061285684828501612708565b91505092915050565b6000806040838503121561287257600080fd5b600061288085828601612708565b925050602061289185828601612708565b9150509250929050565b6000806000606084860312156128b057600080fd5b60006128be86828701612708565b93505060206128cf86828701612708565b92505060406128e086828701612708565b9150509250925092565b60006128f68383612902565b60208301905092915050565b61290b81612f86565b82525050565b61291a81612f86565b82525050565b600061292b82612e2c565b6129358185612e4f565b935061294083612e1c565b8060005b8381101561297157815161295888826128ea565b975061296383612e42565b925050600181019050612944565b5085935050505092915050565b61298781612f98565b82525050565b61299681612fdb565b82525050565b60006129a782612e37565b6129b18185612e60565b93506129c1818560208601612fed565b6129ca8161307e565b840191505092915050565b60006129e2602383612e60565b91506129ed8261308f565b604082019050919050565b6000612a05602283612e60565b9150612a10826130de565b604082019050919050565b6000612a28601b83612e60565b9150612a338261312d565b602082019050919050565b6000612a4b601d83612e60565b9150612a5682613156565b602082019050919050565b6000612a6e602783612e60565b9150612a798261317f565b604082019050919050565b6000612a91602183612e60565b9150612a9c826131ce565b604082019050919050565b6000612ab4602083612e60565b9150612abf8261321d565b602082019050919050565b6000612ad7602983612e60565b9150612ae282613246565b604082019050919050565b6000612afa601e83612e60565b9150612b0582613295565b602082019050919050565b6000612b1d602583612e60565b9150612b28826132be565b604082019050919050565b6000612b40602483612e60565b9150612b4b8261330d565b604082019050919050565b612b5f81612fc4565b82525050565b612b6e81612fce565b82525050565b6000602082019050612b896000830184612911565b92915050565b6000602082019050612ba4600083018461297e565b92915050565b60006020820190508181036000830152612bc4818461299c565b905092915050565b60006020820190508181036000830152612be5816129d5565b9050919050565b60006020820190508181036000830152612c05816129f8565b9050919050565b60006020820190508181036000830152612c2581612a1b565b9050919050565b60006020820190508181036000830152612c4581612a3e565b9050919050565b60006020820190508181036000830152612c6581612a61565b9050919050565b60006020820190508181036000830152612c8581612a84565b9050919050565b60006020820190508181036000830152612ca581612aa7565b9050919050565b60006020820190508181036000830152612cc581612aca565b9050919050565b60006020820190508181036000830152612ce581612aed565b9050919050565b60006020820190508181036000830152612d0581612b10565b9050919050565b60006020820190508181036000830152612d2581612b33565b9050919050565b6000602082019050612d416000830184612b56565b92915050565b600060a082019050612d5c6000830188612b56565b612d69602083018761298d565b8181036040830152612d7b8186612920565b9050612d8a6060830185612911565b612d976080830184612b56565b9695505050505050565b6000604082019050612db66000830185612b56565b612dc36020830184612b56565b9392505050565b6000606082019050612ddf6000830186612b56565b612dec6020830185612b56565b612df96040830184612b56565b949350505050565b6000602082019050612e166000830184612b65565b92915050565b6000819050602082019050919050565b600081519050919050565b600081519050919050565b6000602082019050919050565b600082825260208201905092915050565b600082825260208201905092915050565b6000612e7c82612fc4565b9150612e8783612fc4565b9250827fffffffffffffffffffffffffffffffffffffffffffffffffffffffffffffffff03821115612ebc57612ebb613020565b5b828201905092915050565b6000612ed282612fc4565b9150612edd83612fc4565b925082612eed57612eec61304f565b5b828204905092915050565b6000612f0382612fc4565b9150612f0e83612fc4565b9250817fffffffffffffffffffffffffffffffffffffffffffffffffffffffffffffffff0483118215151615612f4757612f46613020565b5b828202905092915050565b6000612f5d82612fc4565b9150612f6883612fc4565b925082821015612f7b57612f7a613020565b5b828203905092915050565b6000612f9182612fa4565b9050919050565b60008115159050919050565b600073ffffffffffffffffffffffffffffffffffffffff82169050919050565b6000819050919050565b600060ff82169050919050565b6000612fe682612fc4565b9050919050565b60005b8381101561300b578082015181840152602081019050612ff0565b8381111561301a576000848401525b50505050565b7f4e487b7100000000000000000000000000000000000000000000000000000000600052601160045260246000fd5b7f4e487b7100000000000000000000000000000000000000000000000000000000600052601260045260246000fd5b6000601f19601f8301169050919050565b7f45524332303a207472616e7366657220746f20746865207a65726f206164647260008201527f6573730000000000000000000000000000000000000000000000000000000000602082015250565b7f45524332303a20617070726f766520746f20746865207a65726f20616464726560008201527f7373000000000000000000000000000000000000000000000000000000000000602082015250565b7f536166654d6174683a206164646974696f6e206f766572666c6f770000000000600082015250565b7f416d6f756e74206d7573742062652067726561746572207468616e2030000000600082015250565b7f53756d206f662073656c6c2066656573206d757374206265206c65737320746860008201527f616e203130303000000000000000000000000000000000000000000000000000602082015250565b7f536166654d6174683a206d756c7469706c69636174696f6e206f766572666c6f60008201527f7700000000000000000000000000000000000000000000000000000000000000602082015250565b7f4f776e61626c653a2063616c6c6572206973206e6f7420746865206f776e6572600082015250565b7f5472616e7366657220616d6f756e74206d75737420626520677265617465722060008201527f7468616e207a65726f0000000000000000000000000000000000000000000000602082015250565b7f53756d206f662070657263656e7473206d75737420657175616c203130300000600082015250565b7f45524332303a207472616e736665722066726f6d20746865207a65726f20616460008201527f6472657373000000000000000000000000000000000000000000000000000000602082015250565b7f45524332303a20617070726f76652066726f6d20746865207a65726f2061646460008201527f7265737300000000000000000000000000000000000000000000000000000000602082015250565b61336581612f86565b811461337057600080fd5b50565b61337c81612fc4565b811461338757600080fd5b5056fe42616279204675747572616d61207c2074202e6d652f426162794675747572616d6145524332303a207472616e7366657220616d6f756e74206578636565647320616c6c6f77616e6365a264697066735822122088771a17c7f1138feda3f10686be3eb140d3c163b82cc7476b3f74a7ee2034aa64736f6c63430008040033"
  }
}