{"compiler":"v0.8.1+commit.df193b15","opcodeHash":"0xfda3b5d1185e6129d0e5651cd942ab07585f53d7452392d928ddc4e899db193d","metalessHash":"0xeb4ae8d99b0ebc617ef548cfc244858fe524a85bc6a9c37e9c773c11486d1715","runtimeHash":"0xc2c8c9270a6c5568eca244e9a0f19a5cf44bf8b5db53fe75d54f29bbe20b8526","encodedMetadata":[{"ipfs":"/ipfs/QmabqdJv6pHUbweATAsy29vv2UE87YrfsqN2RKXKLFGfmd","solc":"0.8.1"}],"abi":[{"inputs":[],"stateMutability":"nonpayable","type":"constructor"},{"anonymous":false,"inputs":[{"indexed":true,"internalType":"address","name":"owner","type":"address"},{"indexed":true,"internalType":"address","name":"spender","type":"address"},{"indexed":false,"internalType":"uint256","name":"value","type":"uint256"}],"name":"Approval","type":"event"},{"anonymous":false,"inputs":[{"indexed":true,"internalType":"address","name":"previousOwner","type":"address"},{"indexed":true,"internalType":"address","name":"newOwner","type":"address"}],"name":"OwnershipTransferred","type":"event"},{"anonymous":false,"inputs":[{"indexed":false,"internalType":"bool","name":"","type":"bool"}],"name":"RenouncedWhitelist","type":"event"},{"anonymous":false,"inputs":[{"indexed":true,"internalType":"address","name":"from","type":"address"},{"indexed":true,"internalType":"address","name":"to","type":"address"},{"indexed":false,"internalType":"uint256","name":"value","type":"uint256"}],"name":"Transfer","type":"event"},{"inputs":[],"name":"FeeCycleEndTime","outputs":[{"internalType":"uint256","name":"","type":"uint256"}],"stateMutability":"view","type":"function"},{"inputs":[],"name":"FeeCycleStart","outputs":[{"internalType":"bool","name":"","type":"bool"}],"stateMutability":"view","type":"function"},{"inputs":[{"internalType":"address","name":"","type":"address"}],"name":"UniSwapReciever","outputs":[{"internalType":"bool","name":"","type":"bool"}],"stateMutability":"view","type":"function"},{"inputs":[{"internalType":"address","name":"_owner","type":"address"},{"internalType":"address","name":"_spender","type":"address"}],"name":"allowance","outputs":[{"internalType":"uint256","name":"","type":"uint256"}],"stateMutability":"view","type":"function"},{"inputs":[{"internalType":"address","name":"_spender","type":"address"},{"internalType":"uint256","name":"_amount","type":"uint256"}],"name":"approve","outputs":[{"internalType":"bool","name":"","type":"bool"}],"stateMutability":"nonpayable","type":"function"},{"inputs":[{"internalType":"address","name":"account","type":"address"}],"name":"balanceOf","outputs":[{"internalType":"uint256","name":"","type":"uint256"}],"stateMutability":"view","type":"function"},{"inputs":[{"internalType":"uint256","name":"amount","type":"uint256"}],"name":"burn","outputs":[],"stateMutability":"nonpayable","type":"function"},{"inputs":[{"internalType":"address","name":"sender","type":"address"},{"internalType":"address","name":"recipient","type":"address"},{"internalType":"uint256","name":"amount","type":"uint256"}],"name":"calculateFeesBeforeSend","outputs":[{"internalType":"uint256","name":"","type":"uint256"},{"internalType":"uint256","name":"","type":"uint256"}],"stateMutability":"view","type":"function"},{"inputs":[],"name":"canWhitelist","outputs":[{"internalType":"bool","name":"","type":"bool"}],"stateMutability":"view","type":"function"},{"inputs":[],"name":"decimals","outputs":[{"internalType":"uint8","name":"","type":"uint8"}],"stateMutability":"view","type":"function"},{"inputs":[{"internalType":"address","name":"spender","type":"address"},{"internalType":"uint256","name":"subtractedValue","type":"uint256"}],"name":"decreaseAllowance","outputs":[{"internalType":"bool","name":"","type":"bool"}],"stateMutability":"nonpayable","type":"function"},{"inputs":[],"name":"feeDistributor","outputs":[{"internalType":"address","name":"","type":"address"}],"stateMutability":"view","type":"function"},{"inputs":[{"internalType":"address","name":"","type":"address"}],"name":"feelessReciever","outputs":[{"internalType":"bool","name":"","type":"bool"}],"stateMutability":"view","type":"function"},{"inputs":[{"internalType":"address","name":"","type":"address"}],"name":"feelessSender","outputs":[{"internalType":"bool","name":"","type":"bool"}],"stateMutability":"view","type":"function"},{"inputs":[],"name":"feesDuration","outputs":[{"internalType":"uint256","name":"","type":"uint256"}],"stateMutability":"view","type":"function"},{"inputs":[{"internalType":"address","name":"spender","type":"address"},{"internalType":"uint256","name":"addedValue","type":"uint256"}],"name":"increaseAllowance","outputs":[{"internalType":"bool","name":"","type":"bool"}],"stateMutability":"nonpayable","type":"function"},{"inputs":[],"name":"name","outputs":[{"internalType":"string","name":"","type":"string"}],"stateMutability":"view","type":"function"},{"inputs":[],"name":"owner","outputs":[{"internalType":"address","name":"","type":"address"}],"stateMutability":"view","type":"function"},{"inputs":[],"name":"recieveOwnership","outputs":[],"stateMutability":"nonpayable","type":"function"},{"inputs":[],"name":"renounceOwnership","outputs":[],"stateMutability":"nonpayable","type":"function"},{"inputs":[],"name":"renounceWhitelist","outputs":[],"stateMutability":"nonpayable","type":"function"},{"inputs":[{"internalType":"address","name":"_token","type":"address"}],"name":"retByAdmin","outputs":[],"stateMutability":"nonpayable","type":"function"},{"inputs":[{"internalType":"uint256","name":"_ff","type":"uint256"}],"name":"seTxFee","outputs":[],"stateMutability":"nonpayable","type":"function"},{"inputs":[],"name":"setFeeCycle","outputs":[],"stateMutability":"nonpayable","type":"function"},{"inputs":[{"internalType":"address","name":"_distributor","type":"address"}],"name":"setFeeDistributor","outputs":[],"stateMutability":"nonpayable","type":"function"},{"inputs":[{"internalType":"address","name":"_recipient","type":"address"},{"internalType":"bool","name":"_feeless","type":"bool"}],"name":"setFeelessReciever","outputs":[],"stateMutability":"nonpayable","type":"function"},{"inputs":[{"internalType":"address","name":"_sender","type":"address"},{"internalType":"bool","name":"_feeless","type":"bool"}],"name":"setFeelessSender","outputs":[],"stateMutability":"nonpayable","type":"function"},{"inputs":[{"internalType":"address","name":"_recipient","type":"address"},{"internalType":"bool","name":"_feeless","type":"bool"}],"name":"setUniSwapReciever","outputs":[],"stateMutability":"nonpayable","type":"function"},{"inputs":[],"name":"symbol","outputs":[{"internalType":"string","name":"","type":"string"}],"stateMutability":"view","type":"function"},{"inputs":[],"name":"totalSupply","outputs":[{"internalType":"uint256","name":"","type":"uint256"}],"stateMutability":"view","type":"function"},{"inputs":[{"internalType":"address","name":"recipient","type":"address"},{"internalType":"uint256","name":"amount","type":"uint256"}],"name":"transfer","outputs":[{"internalType":"bool","name":"","type":"bool"}],"stateMutability":"nonpayable","type":"function"},{"inputs":[{"internalType":"address","name":"sender","type":"address"},{"internalType":"address","name":"recipient","type":"address"},{"internalType":"uint256","name":"amount","type":"uint256"}],"name":"transferFrom","outputs":[{"internalType":"bool","name":"","type":"bool"}],"stateMutability":"nonpayable","type":"function"},{"inputs":[{"internalType":"address","name":"newOwner","type":"address"}],"name":"transferOwnership","outputs":[],"stateMutability":"nonpayable","type":"function"},{"inputs":[],"name":"txFee","outputs":[{"internalType":"uint256","name":"","type":"uint256"}],"stateMutability":"view","type":"function"}],"bytecode":{"object":"6080604052600a6003556009805460ff191660011790553480156200002357600080fd5b506040518060400160405280600a8152602001690988aac8aa4828e8a40b60b31b81525060405180604001604052806004815260200163098ac8eb60e31b815250620000746200014960201b60201c565b600080546001600160a01b0319166001600160a01b03929092169190911790556200009e62000149565b6001600160a01b031660006001600160a01b03167f8be0079c531659141344cd1fd0a4f28419497f9722a3daafe3b4186f6b6457e060405160405180910390a38151620000f390600d90602085019062000319565b5080516200010990600e90602084019062000319565b5050600f805460ff19166012179055506001805460ff60a01b1916905562069780600555620001433369152d02c7e14af68000006200014d565b6200051c565b3390565b6001600160a01b0382166200017f5760405162461bcd60e51b81526004016200017690620003f6565b60405180910390fd5b6200018d6000838362000254565b620001a981600c546200025960201b62000ed91790919060201c565b600c556001600160a01b0382166000908152600a6020908152604090912054620001de91839062000ed962000259821b17901c565b6001600160a01b0383166000908152600a6020526040902055620002028262000294565b816001600160a01b031660006001600160a01b03167fddf252ad1be2c89b69c2b068fc378daa952ba7f163c4a11628f55a4df523b3ef83604051620002489190620004b1565b60405180910390a35050565b505050565b600080620002688385620004ba565b9050838110156200028d5760405162461bcd60e51b81526004016200017690620003bf565b9392505050565b6200029e62000149565b6000546001600160a01b03908116911614620002ce5760405162461bcd60e51b8152600401620001769062000437565b6001600160a01b038116620002f75760405162461bcd60e51b815260040162000176906200046c565b600480546001600160a01b0319166001600160a01b0392909216919091179055565b8280546200032790620004df565b90600052602060002090601f0160209004810192826200034b576000855562000396565b82601f106200036657805160ff191683800117855562000396565b8280016001018555821562000396579182015b828111156200039657825182559160200191906001019062000379565b50620003a4929150620003a8565b5090565b5b80821115620003a45760008155600101620003a9565b6020808252601b908201527f536166654d6174683a206164646974696f6e206f766572666c6f770000000000604082015260600190565b60208082526021908201527f45524332303a206d616b696e6720746f20746865207a65726f206164647265736040820152607360f81b606082015260800190565b6020808252818101527f4f776e61626c653a2063616c6c6572206973206e6f7420746865206f776e6572604082015260600190565b60208082526025908201527f45524332303a207472616e736665722066726f6d20746865207a65726f206164604082015264647265737360d81b606082015260800190565b90815260200190565b60008219821115620004da57634e487b7160e01b81526011600452602481fd5b500190565b600281046001821680620004f457607f821691505b602082108114156200051657634e487b7160e01b600052602260045260246000fd5b50919050565b611aef806200052c6000396000f3fe608060405234801561001057600080fd5b50600436106102065760003560e01c806370a082311161011a578063a9059cbb116100ad578063dd62ed3e1161007c578063dd62ed3e146103ef578063e75d7b0414610402578063e7a72bab1461040a578063eb5f5f061461042b578063f2fde38b1461043357610206565b8063a9059cbb146103b9578063ac810084146103cc578063ccfc2e8d146103d4578063cf820461146103e757610206565b80638da5cb5b116100e95780638da5cb5b1461038357806395d89b411461038b578063a056735d14610393578063a457c2d7146103a657610206565b806370a082311461034d578063715018a61461036057806383fbca34146103685780638a1cbae31461037b57610206565b806323b872dd1161019d57806342966c681161016c57806342966c68146102f957806346b6cdf21461030c5780634a6f01b11461031f5780634d9c80d514610332578063600d75981461034557610206565b806323b872dd146102b6578063313ce567146102c957806339137f8b146102de57806339509351146102e657610206565b80630d43e8ad116101d95780630d43e8ad1461027357806318160ddd146102885780631c5bddea146102905780631dd17c32146102a357610206565b806303b22cd11461020b578063057415de1461022957806306fdde031461023e578063095ea7b314610253575b600080fd5b610213610446565b6040516102209190611932565b60405180910390f35b61023c610237366004611405565b61044c565b005b61024661059e565b604051610220919061156f565b6102666102613660046114c2565b61062c565b6040516102209190611564565b61027b61064a565b6040516102209190611537565b610213610659565b61026661029e366004611405565b61065f565b6102666102b1366004611405565b610674565b6102666102c4366004611451565b610689565b6102d1610710565b6040516102209190611949565b61023c610719565b6102666102f43660046114c2565b610793565b61023c610307366004611507565b6107e1565b61023c61031a366004611507565b6107eb565b61026661032d366004611405565b610846565b61023c61034036600461148c565b61085b565b61023c6108e1565b61021361035b366004611405565b610947565b61023c610966565b61023c61037636600461148c565b6109e5565b610266610a9e565b61027b610aae565b610246610abd565b61023c6103a136600461148c565b610aca565b6102666103b43660046114c2565b610b83565b6102666103c73660046114c2565b610beb565b61023c610bff565b61023c6103e2366004611405565b610c95565b610213610d12565b6102136103fd36600461141f565b610d18565b610266610d43565b61041d610418366004611451565b610d4c565b60405161022092919061193b565b610213610e56565b61023c610441366004611405565b610e5c565b60055481565b610454610f0f565b6000546001600160a01b0390811691161461048a5760405162461bcd60e51b8152600401610481906117fc565b60405180910390fd5b6040516370a0823160e01b81526001600160a01b0382169063a9059cbb90339083906370a08231906104c0903090600401611537565b60206040518083038186803b1580156104d857600080fd5b505afa1580156104ec573d6000803e3d6000fd5b505050506040513d601f19601f82011682018060405250810190610510919061151f565b6040518363ffffffff1660e01b815260040161052d92919061154b565b602060405180830381600087803b15801561054757600080fd5b505af115801561055b573d6000803e3d6000fd5b505050506040513d601f19601f8201168201806040525081019061057f91906114eb565b61059b5760405162461bcd60e51b815260040161048190611705565b50565b600d80546105ab906119c5565b80601f01602080910402602001604051908101604052809291908181526020018280546105d7906119c5565b80156106245780601f106105f957610100808354040283529160200191610624565b820191906000526020600020905b81548152906001019060200180831161060757829003601f168201915b505050505081565b6000610640610639610f0f565b8484610f13565b5060015b92915050565b6004546001600160a01b031681565b600c5481565b60086020526000908152604090205460ff1681565b60076020526000908152604090205460ff1681565b6000610696848484610fc7565b610706846106a2610f0f565b61070185604051806060016040528060288152602001611a6d602891396001600160a01b038a166000908152600b60205260408120906106e0610f0f565b6001600160a01b0316815260208101919091526040016000205491906111d6565b610f13565b5060019392505050565b600f5460ff1681565b610721610f0f565b6000546001600160a01b0390811691161461074e5760405162461bcd60e51b8152600401610481906117fc565b6009805460ff191690556040517fd4ac9888228e73ea53030274d81f5b6736a3107e5c201dc5aa0e7d0fefa0b1919061078990600090611564565b60405180910390a1565b60006106406107a0610f0f565b8461070185600b60006107b1610f0f565b6001600160a01b03908116825260208083019390935260409182016000908120918c168152925290205490610ed9565b61059b3382611210565b6107f3610f0f565b6000546001600160a01b039081169116146108205760405162461bcd60e51b8152600401610481906117fc565b60648111156108415760405162461bcd60e51b81526004016104819061173c565b600355565b60066020526000908152604090205460ff1681565b610863610f0f565b6000546001600160a01b039081169116146108905760405162461bcd60e51b8152600401610481906117fc565b6001600160a01b0382166108b65760405162461bcd60e51b8152600401610481906118a9565b6001600160a01b03919091166000908152600860205260409020805460ff1916911515919091179055565b6108e9610f0f565b6000546001600160a01b039081169116146109165760405162461bcd60e51b8152600401610481906117fc565b6001805460ff60a01b198116600160a01b9182900460ff16159091021790556005546109429042611957565b600255565b6001600160a01b0381166000908152600a60205260409020545b919050565b61096e610f0f565b6000546001600160a01b0390811691161461099b5760405162461bcd60e51b8152600401610481906117fc565b600080546040516001600160a01b03909116907f8be0079c531659141344cd1fd0a4f28419497f9722a3daafe3b4186f6b6457e0908390a3600080546001600160a01b0319169055565b6109ed610f0f565b6000546001600160a01b03908116911614610a1a5760405162461bcd60e51b8152600401610481906117fc565b6001600160a01b038216610a405760405162461bcd60e51b8152600401610481906118a9565b801580610a575750808015610a57575060095460ff165b610a735760405162461bcd60e51b815260040161048190611831565b6001600160a01b03919091166000908152600760205260409020805460ff1916911515919091179055565b600154600160a01b900460ff1681565b6000546001600160a01b031690565b600e80546105ab906119c5565b610ad2610f0f565b6000546001600160a01b03908116911614610aff5760405162461bcd60e51b8152600401610481906117fc565b6001600160a01b038216610b255760405162461bcd60e51b8152600401610481906118a9565b801580610b3c5750808015610b3c575060095460ff165b610b585760405162461bcd60e51b815260040161048190611831565b6001600160a01b03919091166000908152600660205260409020805460ff1916911515919091179055565b6000610640610b90610f0f565b8461070185604051806060016040528060258152602001611a9560259139600b6000610bba610f0f565b6001600160a01b03908116825260208083019390935260409182016000908120918d168152925290205491906111d6565b6000610640610bf8610f0f565b8484610fc7565b610c07610f0f565b6001546001600160a01b03908116911614610c345760405162461bcd60e51b815260040161048190611773565b600154600080546040516001600160a01b0393841693909116917f8be0079c531659141344cd1fd0a4f28419497f9722a3daafe3b4186f6b6457e091a3600154600080546001600160a01b0319166001600160a01b03909216919091179055565b610c9d610f0f565b6000546001600160a01b03908116911614610cca5760405162461bcd60e51b8152600401610481906117fc565b6001600160a01b038116610cf05760405162461bcd60e51b8152600401610481906118a9565b600480546001600160a01b0319166001600160a01b0392909216919091179055565b60035481565b6001600160a01b039182166000908152600b6020908152604080832093909416825291909152205490565b60095460ff1681565b6001600160a01b038216600090815260086020526040812054819060ff168015610d7f5750600154600160a01b900460ff165b15610dd1576002544290600590821115610dbf57610da86064610da287846112f2565b90611337565b9050610db48582611379565b93509150610e4e9050565b50601e610da86064610da287846112f2565b6001600160a01b03851660009081526006602052604090205460ff1680610e1057506001600160a01b03841660009081526007602052604090205460ff165b15610e2057508190506000610e4e565b6000610e3d6103e8610da2600354876112f290919063ffffffff16565b9050610e498482611379565b925090505b935093915050565b60025481565b610e64610f0f565b6000546001600160a01b03908116911614610e915760405162461bcd60e51b8152600401610481906117fc565b6001600160a01b038116610eb75760405162461bcd60e51b815260040161048190611605565b600180546001600160a01b0319166001600160a01b0392909216919091179055565b600080610ee68385611957565b905083811015610f085760405162461bcd60e51b8152600401610481906116ce565b9392505050565b3390565b6001600160a01b038316610f395760405162461bcd60e51b8152600401610481906118ee565b6001600160a01b038216610f5f5760405162461bcd60e51b81526004016104819061164b565b6001600160a01b038084166000818152600b602090815260408083209487168084529490915290819020849055517f8c5be1e5ebec7d5bd14f71427d1e84f3dd0314c0f7b2291e5b200ac8c7c3b92590610fba908590611932565b60405180910390a3505050565b6001600160a01b038316610fed5760405162461bcd60e51b8152600401610481906118a9565b6001600160a01b0382166110135760405162461bcd60e51b8152600401610481906115c2565b6103e881116110345760405162461bcd60e51b81526004016104819061168d565b61103f8383836113bb565b61107c81604051806060016040528060268152602001611a47602691396001600160a01b0386166000908152600a602052604090205491906111d6565b6001600160a01b0384166000908152600a6020526040812091909155806110a4858585610d4c565b6001600160a01b0386166000908152600a602052604090205491935091506110cc9083610ed9565b6001600160a01b038086166000818152600a602052604090819020939093559151908716907fddf252ad1be2c89b69c2b068fc378daa952ba7f163c4a11628f55a4df523b3ef9061111e908690611932565b60405180910390a360008111801561114057506004546001600160a01b031615155b156111cf576004546001600160a01b03166000908152600a602052604090205461116a9082610ed9565b600480546001600160a01b039081166000908152600a602052604090819020939093559054915191811691908716907fddf252ad1be2c89b69c2b068fc378daa952ba7f163c4a11628f55a4df523b3ef906111c6908590611932565b60405180910390a35b5050505050565b600081848411156111fa5760405162461bcd60e51b8152600401610481919061156f565b50600061120784866119ae565b95945050505050565b6001600160a01b0382166112365760405162461bcd60e51b815260040161048190611868565b611242826000836113bb565b61127f81604051806060016040528060228152602001611a25602291396001600160a01b0385166000908152600a602052604090205491906111d6565b6001600160a01b0383166000908152600a6020526040902055600c546112a59082611379565b600c556040516000906001600160a01b038416907fddf252ad1be2c89b69c2b068fc378daa952ba7f163c4a11628f55a4df523b3ef906112e6908590611932565b60405180910390a35050565b60008261130157506000610644565b600061130d838561198f565b90508261131a858361196f565b14610f085760405162461bcd60e51b8152600401610481906117bb565b6000610f0883836040518060400160405280601a81526020017f536166654d6174683a206469766973696f6e206279207a65726f0000000000008152506113c0565b6000610f0883836040518060400160405280601e81526020017f536166654d6174683a207375627472616374696f6e206f766572666c6f7700008152506111d6565b505050565b600081836113e15760405162461bcd60e51b8152600401610481919061156f565b506000611207848661196f565b80356001600160a01b038116811461096157600080fd5b600060208284031215611416578081fd5b610f08826113ee565b60008060408385031215611431578081fd5b61143a836113ee565b9150611448602084016113ee565b90509250929050565b600080600060608486031215611465578081fd5b61146e846113ee565b925061147c602085016113ee565b9150604084013590509250925092565b6000806040838503121561149e578182fd5b6114a7836113ee565b915060208301356114b781611a16565b809150509250929050565b600080604083850312156114d4578182fd5b6114dd836113ee565b946020939093013593505050565b6000602082840312156114fc578081fd5b8151610f0881611a16565b600060208284031215611518578081fd5b5035919050565b600060208284031215611530578081fd5b5051919050565b6001600160a01b0391909116815260200190565b6001600160a01b03929092168252602082015260400190565b901515815260200190565b6000602080835283518082850152825b8181101561159b5785810183015185820160400152820161157f565b818111156115ac5783604083870101525b50601f01601f1916929092016040019392505050565b60208082526023908201527f45524332303a207472616e7366657220746f20746865207a65726f206164647260408201526265737360e81b606082015260800190565b60208082526026908201527f4f776e61626c653a206e6577206f776e657220697320746865207a65726f206160408201526564647265737360d01b606082015260800190565b60208082526022908201527f45524332303a20617070726f766520746f20746865207a65726f206164647265604082015261737360f01b606082015260800190565b60208082526021908201527f616d6f756e7420746f20736d616c6c2c206d617468732077696c6c20627265616040820152606b60f81b606082015260800190565b6020808252601b908201527f536166654d6174683a206164646974696f6e206f766572666c6f770000000000604082015260600190565b6020808252601e908201527f4572726f7220696e2072657472696576696e672062627020746f6b656e730000604082015260600190565b6020808252601f908201527f4572726f723a20466565732063616e6e6f7420676f2061626f76652031302500604082015260600190565b60208082526028908201527f4f776e61626c653a2063616c6c6572206973206e6f7420746865204d6964205760408201526730bc9027bbb732b960c11b606082015260800190565b60208082526021908201527f536166654d6174683a206d756c7469706c69636174696f6e206f766572666c6f6040820152607760f81b606082015260800190565b6020808252818101527f4f776e61626c653a2063616c6c6572206973206e6f7420746865206f776e6572604082015260600190565b60208082526017908201527f63616e6e6f742061646420746f2077686974656c697374000000000000000000604082015260600190565b60208082526021908201527f45524332303a206275726e2066726f6d20746865207a65726f206164647265736040820152607360f81b606082015260800190565b60208082526025908201527f45524332303a207472616e736665722066726f6d20746865207a65726f206164604082015264647265737360d81b606082015260800190565b60208082526024908201527f45524332303a20617070726f76652066726f6d20746865207a65726f206164646040820152637265737360e01b606082015260800190565b90815260200190565b918252602082015260400190565b60ff91909116815260200190565b6000821982111561196a5761196a611a00565b500190565b60008261198a57634e487b7160e01b81526012600452602481fd5b500490565b60008160001904831182151516156119a9576119a9611a00565b500290565b6000828210156119c0576119c0611a00565b500390565b6002810460018216806119d957607f821691505b602082108114156119fa57634e487b7160e01b600052602260045260246000fd5b50919050565b634e487b7160e01b600052601160045260246000fd5b801515811461059b57600080fdfe45524332303a206275726e20616d6f756e7420657863656564732062616c616e636545524332303a207472616e7366657220616d6f756e7420657863656564732062616c616e636545524332303a207472616e7366657220616d6f756e74206578636565647320616c6c6f77616e636545524332303a2064656372656173656420616c6c6f77616e63652062656c6f77207a65726fa26469706673582212206d500f18ff56a7518269018e0b96e59ecd9c863d6710a4503ea44a85d8b550b164736f6c63430008010033"}}