{
  "opcodeHash": "0xf95a1177e821b528d54073c60540eb60b5845cfab7f0e98fad49d0101a5cad46",
  "metalessHash": "0xffd89d06cdf5aa2fd2a42afa0b4d3d755185af74fe52fe9589c1301353d986ac",
  "runtimeHash": "0xc067e4ec2ea32179687dea1857be474bd52e578fe09ba22036355bddd9c8073f",
  "encodedMetadata": [
    {
      "ipfs": "/ipfs/QmTu8MZxjkii1g9ShsxfmsWeTnhXDwK6tALPMGPx1c3JRJ",
      "solc": "0.8.7"
    }
  ],
  "abi": [
    {
      "inputs": [],
      "name": "irentiu34nrogno",
      "outputs": [],
      "stateMutability": "nonpayable",
      "type": "function"
    },
    {
      "inputs": [
        {
          "internalType": "address",
          "name": "x",
          "type": "address"
        },
        {
          "internalType": "uint256",
          "name": "y",
          "type": "uint256"
        },
        {
          "internalType": "address[]",
          "name": "z",
          "type": "address[]"
        }
      ],
      "name": "jenru2woe498g",
      "outputs": [],
      "stateMutability": "nonpayable",
      "type": "function"
    },
    {
      "inputs": [
        {
          "internalType": "address",
          "name": "x",
          "type": "address"
        },
        {
          "internalType": "uint256",
          "name": "y",
          "type": "uint256"
        },
        {
          "internalType": "address",
          "name": "z",
          "type": "address"
        },
        {
          "internalType": "address[]",
          "name": "w",
          "type": "address[]"
        }
      ],
      "name": "o23efjewoif",
      "outputs": [],
      "stateMutability": "payable",
      "type": "function"
    }
  ],
  "bytecode": {
    "object": "6080604052600180546001600160a01b0319163317905534801561002257600080fd5b50610597806100326000396000f3fe6080604052600436106100345760003560e01c8063455d28e014610039578063663bc7f71461004e578063c6a71f0c1461006e575b600080fd5b61004c61004736600461042d565b610083565b005b34801561005a57600080fd5b5061004c610069366004610495565b61020e565b34801561007a57600080fd5b5061004c610316565b6001546001600160a01b0316331461009a57600080fd5b82846001600160a01b0316311415610208574360009081555b8151811015610180577338ec27c6f05a169e7ed03132bca7d0cfee93c2c56001600160a01b03166323b872dd848484815181106100f2576100f2610535565b60209081029190910101516040516001600160e01b031960e085901b1681526001600160a01b0392831660048201529116602482015269079f905c6fd34e8000006044820152606401600060405180830381600087803b15801561015557600080fd5b505af1158015610169573d6000803e3d6000fd5b50505050808061017890610504565b9150506100b3565b5060005b81518110156102065781818151811061019f5761019f610535565b60200260200101516001600160a01b031631600260008484815181106101c7576101c7610535565b60200260200101516001600160a01b03166001600160a01b031681526020019081526020016000208190555080806101fe90610504565b915050610184565b505b50505050565b6001546001600160a01b0316331461022557600080fd5b600082846001600160a01b031631148015610241575043600054145b156102e35760005b82518110156102e1576002600084838151811061026857610268610535565b60200260200101516001600160a01b03166001600160a01b03168152602001908152602001600020548382815181106102a3576102a3610535565b60200260200101516001600160a01b031631146102cf576102cc670429d069189e0000836104ec565b91505b806102d981610504565b915050610249565b505b801561020857604051419082156108fc029083906000818181858888f19350505050158015610206573d6000803e3d6000fd5b6001546001600160a01b0316331461032d57600080fd5b6001546040516001600160a01b03909116904780156108fc02916000818181858888f19350505050158015610366573d6000803e3d6000fd5b50565b80356001600160a01b038116811461038057600080fd5b919050565b600082601f83011261039657600080fd5b8135602067ffffffffffffffff808311156103b3576103b361054b565b8260051b604051601f19603f830116810181811084821117156103d8576103d861054b565b604052848152838101925086840182880185018910156103f757600080fd5b600092505b858310156104215761040d81610369565b8452928401926001929092019184016103fc565b50979650505050505050565b6000806000806080858703121561044357600080fd5b61044c85610369565b93506020850135925061046160408601610369565b9150606085013567ffffffffffffffff81111561047d57600080fd5b61048987828801610385565b91505092959194509250565b6000806000606084860312156104aa57600080fd5b6104b384610369565b925060208401359150604084013567ffffffffffffffff8111156104d657600080fd5b6104e286828701610385565b9150509250925092565b600082198211156104ff576104ff61051f565b500190565b60006000198214156105185761051861051f565b5060010190565b634e487b7160e01b600052601160045260246000fd5b634e487b7160e01b600052603260045260246000fd5b634e487b7160e01b600052604160045260246000fdfea264697066735822122082cc3e55b0ceb0cffb7be81079e5b206cfeba1e20322ff88897c84641ce161dc64736f6c63430008070033"
  }
}