{"compiler":"v0.8.7+commit.e28d00a7","opcodeHash":"0xd2f9d9569be874270d6d11d3532264f05486701b406df3400025d73d4129fe98","metalessHash":"0x8d86bc896211ca751c2421bdfbb96fdba321168d0187a1bc3dcebb3f6d483cd6","runtimeHash":"0x09a15c7dbb3fde98a94efb8b12f4ee816fa6c1e02bc9b8706090846f90880de3","encodedMetadata":[{"ipfs":"/ipfs/QmephiAW97c1X7rwBNtnFodnzAEDdUpsBAnDraD2haADGG","solc":"0.8.7"}],"abi":[{"inputs":[],"stateMutability":"nonpayable","type":"constructor"},{"anonymous":false,"inputs":[{"indexed":true,"internalType":"address","name":"owner","type":"address"},{"indexed":true,"internalType":"address","name":"approved","type":"address"},{"indexed":true,"internalType":"uint256","name":"tokenId","type":"uint256"}],"name":"Approval","type":"event"},{"anonymous":false,"inputs":[{"indexed":true,"internalType":"address","name":"owner","type":"address"},{"indexed":true,"internalType":"address","name":"operator","type":"address"},{"indexed":false,"internalType":"bool","name":"approved","type":"bool"}],"name":"ApprovalForAll","type":"event"},{"anonymous":false,"inputs":[{"indexed":true,"internalType":"address","name":"previousOwner","type":"address"},{"indexed":true,"internalType":"address","name":"newOwner","type":"address"}],"name":"OwnershipTransferred","type":"event"},{"anonymous":false,"inputs":[{"indexed":true,"internalType":"address","name":"from","type":"address"},{"indexed":true,"internalType":"address","name":"to","type":"address"},{"indexed":true,"internalType":"uint256","name":"tokenId","type":"uint256"}],"name":"Transfer","type":"event"},{"inputs":[{"internalType":"address","name":"to","type":"address"},{"internalType":"uint256","name":"tokenId","type":"uint256"}],"name":"approve","outputs":[],"stateMutability":"nonpayable","type":"function"},{"inputs":[{"internalType":"address","name":"owner","type":"address"}],"name":"balanceOf","outputs":[{"internalType":"uint256","name":"","type":"uint256"}],"stateMutability":"view","type":"function"},{"inputs":[],"name":"baseURI","outputs":[{"internalType":"string","name":"","type":"string"}],"stateMutability":"view","type":"function"},{"inputs":[],"name":"dadPrice","outputs":[{"internalType":"uint256","name":"","type":"uint256"}],"stateMutability":"view","type":"function"},{"inputs":[],"name":"dadSupply","outputs":[{"internalType":"uint256","name":"","type":"uint256"}],"stateMutability":"view","type":"function"},{"inputs":[],"name":"drop_is_active","outputs":[{"internalType":"bool","name":"","type":"bool"}],"stateMutability":"view","type":"function"},{"inputs":[],"name":"flipDropState","outputs":[],"stateMutability":"nonpayable","type":"function"},{"inputs":[{"internalType":"uint256","name":"numberOfTokens","type":"uint256"}],"name":"freeMintLDAD","outputs":[],"stateMutability":"nonpayable","type":"function"},{"inputs":[],"name":"freeMints","outputs":[{"internalType":"uint256","name":"","type":"uint256"}],"stateMutability":"view","type":"function"},{"inputs":[],"name":"freeTokensMinted","outputs":[{"internalType":"uint256","name":"","type":"uint256"}],"stateMutability":"view","type":"function"},{"inputs":[{"internalType":"uint256","name":"tokenId","type":"uint256"}],"name":"getApproved","outputs":[{"internalType":"address","name":"","type":"address"}],"stateMutability":"view","type":"function"},{"inputs":[{"internalType":"address","name":"owner","type":"address"},{"internalType":"address","name":"operator","type":"address"}],"name":"isApprovedForAll","outputs":[{"internalType":"bool","name":"","type":"bool"}],"stateMutability":"view","type":"function"},{"inputs":[],"name":"maxDadPurchase","outputs":[{"internalType":"uint256","name":"","type":"uint256"}],"stateMutability":"view","type":"function"},{"inputs":[],"name":"maxFreeDadPurchase","outputs":[{"internalType":"uint256","name":"","type":"uint256"}],"stateMutability":"view","type":"function"},{"inputs":[{"internalType":"uint256","name":"numberOfTokens","type":"uint256"}],"name":"mintLDAD","outputs":[],"stateMutability":"payable","type":"function"},{"inputs":[],"name":"name","outputs":[{"internalType":"string","name":"","type":"string"}],"stateMutability":"view","type":"function"},{"inputs":[],"name":"owner","outputs":[{"internalType":"address","name":"","type":"address"}],"stateMutability":"view","type":"function"},{"inputs":[{"internalType":"uint256","name":"tokenId","type":"uint256"}],"name":"ownerOf","outputs":[{"internalType":"address","name":"","type":"address"}],"stateMutability":"view","type":"function"},{"inputs":[],"name":"renounceOwnership","outputs":[],"stateMutability":"nonpayable","type":"function"},{"inputs":[{"internalType":"address","name":"from","type":"address"},{"internalType":"address","name":"to","type":"address"},{"internalType":"uint256","name":"tokenId","type":"uint256"}],"name":"safeTransferFrom","outputs":[],"stateMutability":"nonpayable","type":"function"},{"inputs":[{"internalType":"address","name":"from","type":"address"},{"internalType":"address","name":"to","type":"address"},{"internalType":"uint256","name":"tokenId","type":"uint256"},{"internalType":"bytes","name":"_data","type":"bytes"}],"name":"safeTransferFrom","outputs":[],"stateMutability":"nonpayable","type":"function"},{"inputs":[{"internalType":"address","name":"operator","type":"address"},{"internalType":"bool","name":"approved","type":"bool"}],"name":"setApprovalForAll","outputs":[],"stateMutability":"nonpayable","type":"function"},{"inputs":[{"internalType":"string","name":"newBaseURI","type":"string"}],"name":"setBaseURI","outputs":[],"stateMutability":"nonpayable","type":"function"},{"inputs":[{"internalType":"uint256","name":"newFree","type":"uint256"}],"name":"setMaxFreeMint","outputs":[],"stateMutability":"nonpayable","type":"function"},{"inputs":[{"internalType":"uint256","name":"newMax","type":"uint256"}],"name":"setMaxPerFreeTxn","outputs":[],"stateMutability":"nonpayable","type":"function"},{"inputs":[{"internalType":"uint256","name":"newMax","type":"uint256"}],"name":"setMaxPerTxn","outputs":[],"stateMutability":"nonpayable","type":"function"},{"inputs":[{"internalType":"uint256","name":"newPrice","type":"uint256"}],"name":"setPrice","outputs":[],"stateMutability":"nonpayable","type":"function"},{"inputs":[{"internalType":"uint256","name":"newSupply","type":"uint256"}],"name":"setSupply","outputs":[],"stateMutability":"nonpayable","type":"function"},{"inputs":[{"internalType":"bytes4","name":"interfaceId","type":"bytes4"}],"name":"supportsInterface","outputs":[{"internalType":"bool","name":"","type":"bool"}],"stateMutability":"view","type":"function"},{"inputs":[],"name":"symbol","outputs":[{"internalType":"string","name":"","type":"string"}],"stateMutability":"view","type":"function"},{"inputs":[{"internalType":"uint256","name":"index","type":"uint256"}],"name":"tokenByIndex","outputs":[{"internalType":"uint256","name":"","type":"uint256"}],"stateMutability":"view","type":"function"},{"inputs":[{"internalType":"address","name":"owner","type":"address"},{"internalType":"uint256","name":"index","type":"uint256"}],"name":"tokenOfOwnerByIndex","outputs":[{"internalType":"uint256","name":"","type":"uint256"}],"stateMutability":"view","type":"function"},{"inputs":[{"internalType":"uint256","name":"tokenId","type":"uint256"}],"name":"tokenURI","outputs":[{"internalType":"string","name":"","type":"string"}],"stateMutability":"view","type":"function"},{"inputs":[],"name":"tokensMinted","outputs":[{"internalType":"uint256","name":"","type":"uint256"}],"stateMutability":"view","type":"function"},{"inputs":[],"name":"totalSupply","outputs":[{"internalType":"uint256","name":"","type":"uint256"}],"stateMutability":"view","type":"function"},{"inputs":[{"internalType":"address","name":"from","type":"address"},{"internalType":"address","name":"to","type":"address"},{"internalType":"uint256","name":"tokenId","type":"uint256"}],"name":"transferFrom","outputs":[],"stateMutability":"nonpayable","type":"function"},{"inputs":[{"internalType":"address","name":"newOwner","type":"address"}],"name":"transferOwnership","outputs":[],"stateMutability":"nonpayable","type":"function"},{"inputs":[],"name":"withdraw","outputs":[],"stateMutability":"nonpayable","type":"function"}],"bytecode":{"object":"608060405266470de4df820000600b556005600c55600a600d55611389600e556000600f60006101000a81548160ff02191690831515021790555060405180602001604052806000815250601090805190602001906200006192919062000214565b5060016011556103e960125560006013553480156200007f57600080fd5b506040518060400160405280600981526020017f4c617276614461647300000000000000000000000000000000000000000000008152506040518060400160405280600481526020017f4c4441440000000000000000000000000000000000000000000000000000000081525081600090805190602001906200010492919062000214565b5080600190805190602001906200011d92919062000214565b50505062000140620001346200014660201b60201c565b6200014e60201b60201c565b62000329565b600033905090565b6000600a60009054906101000a900473ffffffffffffffffffffffffffffffffffffffff16905081600a60006101000a81548173ffffffffffffffffffffffffffffffffffffffff021916908373ffffffffffffffffffffffffffffffffffffffff1602179055508173ffffffffffffffffffffffffffffffffffffffff168173ffffffffffffffffffffffffffffffffffffffff167f8be0079c531659141344cd1fd0a4f28419497f9722a3daafe3b4186f6b6457e060405160405180910390a35050565b8280546200022290620002c4565b90600052602060002090601f01602090048101928262000246576000855562000292565b82601f106200026157805160ff191683800117855562000292565b8280016001018555821562000292579182015b828111156200029157825182559160200191906001019062000274565b5b509050620002a19190620002a5565b5090565b5b80821115620002c0576000816000905550600101620002a6565b5090565b60006002820490506001821680620002dd57607f821691505b60208210811415620002f457620002f3620002fa565b5b50919050565b7f4e487b7100000000000000000000000000000000000000000000000000000000600052602260045260246000fd5b6146ce80620003396000396000f3fe6080604052600436106102255760003560e01c806370a0823111610123578063b6f3ce00116100ab578063da4acf841161006f578063da4acf84146107d2578063dbcaa52c146107fb578063e985e9c514610826578063eb20ebff14610863578063f2fde38b1461088e57610225565b8063b6f3ce00146106fe578063b88d4fde14610727578063c87b56dd14610750578063ca98a7331461078d578063d554440f146107b657610225565b80638da5cb5b116100f25780638da5cb5b1461063f57806391b7f5ed1461066a57806395d89b411461069357806396f8f6dd146106be578063a22cb465146106d557610225565b806370a0823114610597578063715018a6146105d4578063742a4c9b146105eb57806380b173351461061457610225565b80633b4c4b25116101b157806352bbe9141161017557806352bbe914146104b057806355f804b3146104db5780636352211e146105045780636c0360eb146105415780636de9f32b1461056c57610225565b80633b4c4b25146103df5780633ccfd60b1461040857806342842e0e1461041f5780634c419a29146104485780634f6ccce71461047357610225565b8063095ea7b3116101f8578063095ea7b3146102fa57806318160ddd146103235780631e8024861461034e57806323b872dd146103795780632f745c59146103a257610225565b806301ffc9a71461022a578063052939051461026757806306fdde0314610292578063081812fc146102bd575b600080fd5b34801561023657600080fd5b50610251600480360381019061024c9190613199565b6108b7565b60405161025e919061373a565b60405180910390f35b34801561027357600080fd5b5061027c610931565b604051610289919061373a565b60405180910390f35b34801561029e57600080fd5b506102a7610944565b6040516102b49190613755565b60405180910390f35b3480156102c957600080fd5b506102e460048036038101906102df919061323c565b6109d6565b6040516102f191906136d3565b60405180910390f35b34801561030657600080fd5b50610321600480360381019061031c9190613159565b610a5b565b005b34801561032f57600080fd5b50610338610b73565b6040516103459190613a77565b60405180910390f35b34801561035a57600080fd5b50610363610b80565b6040516103709190613a77565b60405180910390f35b34801561038557600080fd5b506103a0600480360381019061039b9190613043565b610b86565b005b3480156103ae57600080fd5b506103c960048036038101906103c49190613159565b610be6565b6040516103d69190613a77565b60405180910390f35b3480156103eb57600080fd5b506104066004803603810190610401919061323c565b610c8b565b005b34801561041457600080fd5b5061041d610d11565b005b34801561042b57600080fd5b5061044660048036038101906104419190613043565b610dcd565b005b34801561045457600080fd5b5061045d610ded565b60405161046a9190613a77565b60405180910390f35b34801561047f57600080fd5b5061049a6004803603810190610495919061323c565b610df3565b6040516104a79190613a77565b60405180910390f35b3480156104bc57600080fd5b506104c5610e64565b6040516104d29190613a77565b60405180910390f35b3480156104e757600080fd5b5061050260048036038101906104fd91906131f3565b610e6a565b005b34801561051057600080fd5b5061052b6004803603810190610526919061323c565b610f00565b60405161053891906136d3565b60405180910390f35b34801561054d57600080fd5b50610556610fb2565b6040516105639190613755565b60405180910390f35b34801561057857600080fd5b50610581611040565b60405161058e9190613a77565b60405180910390f35b3480156105a357600080fd5b506105be60048036038101906105b99190612fd6565b611046565b6040516105cb9190613a77565b60405180910390f35b3480156105e057600080fd5b506105e96110fe565b005b3480156105f757600080fd5b50610612600480360381019061060d919061323c565b611186565b005b34801561062057600080fd5b5061062961120c565b6040516106369190613a77565b60405180910390f35b34801561064b57600080fd5b50610654611212565b60405161066191906136d3565b60405180910390f35b34801561067657600080fd5b50610691600480360381019061068c919061323c565b61123c565b005b34801561069f57600080fd5b506106a86112c2565b6040516106b59190613755565b60405180910390f35b3480156106ca57600080fd5b506106d3611354565b005b3480156106e157600080fd5b506106fc60048036038101906106f79190613119565b6113fc565b005b34801561070a57600080fd5b506107256004803603810190610720919061323c565b611412565b005b34801561073357600080fd5b5061074e60048036038101906107499190613096565b611498565b005b34801561075c57600080fd5b506107776004803603810190610772919061323c565b6114fa565b6040516107849190613755565b60405180910390f35b34801561079957600080fd5b506107b460048036038101906107af919061323c565b6115a1565b005b6107d060048036038101906107cb919061323c565b611627565b005b3480156107de57600080fd5b506107f960048036038101906107f4919061323c565b6117c4565b005b34801561080757600080fd5b50610810611a0d565b60405161081d9190613a77565b60405180910390f35b34801561083257600080fd5b5061084d60048036038101906108489190613003565b611a13565b60405161085a919061373a565b60405180910390f35b34801561086f57600080fd5b50610878611aa7565b6040516108859190613a77565b60405180910390f35b34801561089a57600080fd5b506108b560048036038101906108b09190612fd6565b611aad565b005b60007f780e9d63000000000000000000000000000000000000000000000000000000007bffffffffffffffffffffffffffffffffffffffffffffffffffffffff1916827bffffffffffffffffffffffffffffffffffffffffffffffffffffffff1916148061092a575061092982611ba5565b5b9050919050565b600f60009054906101000a900460ff1681565b60606000805461095390613d27565b80601f016020809104026020016040519081016040528092919081815260200182805461097f90613d27565b80156109cc5780601f106109a1576101008083540402835291602001916109cc565b820191906000526020600020905b8154815290600101906020018083116109af57829003601f168201915b5050505050905090565b60006109e182611c87565b610a20576040517f08c379a0000000000000000000000000000000000000000000000000000000008152600401610a1790613917565b60405180910390fd5b6004600083815260200190815260200160002060009054906101000a900473ffffffffffffffffffffffffffffffffffffffff169050919050565b6000610a6682610f00565b90508073ffffffffffffffffffffffffffffffffffffffff168373ffffffffffffffffffffffffffffffffffffffff161415610ad7576040517f08c379a0000000000000000000000000000000000000000000000000000000008152600401610ace906139d7565b60405180910390fd5b8073ffffffffffffffffffffffffffffffffffffffff16610af6611cf3565b73ffffffffffffffffffffffffffffffffffffffff161480610b255750610b2481610b1f611cf3565b611a13565b5b610b64576040517f08c379a0000000000000000000000000000000000000000000000000000000008152600401610b5b90613877565b60405180910390fd5b610b6e8383611cfb565b505050565b6000600880549050905090565b600c5481565b610b97610b91611cf3565b82611db4565b610bd6576040517f08c379a0000000000000000000000000000000000000000000000000000000008152600401610bcd90613a37565b60405180910390fd5b610be1838383611e92565b505050565b6000610bf183611046565b8210610c32576040517f08c379a0000000000000000000000000000000000000000000000000000000008152600401610c2990613777565b60405180910390fd5b600660008473ffffffffffffffffffffffffffffffffffffffff1673ffffffffffffffffffffffffffffffffffffffff168152602001908152602001600020600083815260200190815260200160002054905092915050565b610c93611cf3565b73ffffffffffffffffffffffffffffffffffffffff16610cb1611212565b73ffffffffffffffffffffffffffffffffffffffff1614610d07576040517f08c379a0000000000000000000000000000000000000000000000000000000008152600401610cfe90613937565b60405180910390fd5b80600e8190555050565b610d19611cf3565b73ffffffffffffffffffffffffffffffffffffffff16610d37611212565b73ffffffffffffffffffffffffffffffffffffffff1614610d8d576040517f08c379a0000000000000000000000000000000000000000000000000000000008152600401610d8490613937565b60405180910390fd5b3373ffffffffffffffffffffffffffffffffffffffff166108fc479081150290604051600060405180830381858888f19350505050610dcb57600080fd5b565b610de883838360405180602001604052806000815250611498565b505050565b600b5481565b6000610dfd610b73565b8210610e3e576040517f08c379a0000000000000000000000000000000000000000000000000000000008152600401610e3590613a57565b60405180910390fd5b60088281548110610e5257610e51613ec0565b5b90600052602060002001549050919050565b600e5481565b610e72611cf3565b73ffffffffffffffffffffffffffffffffffffffff16610e90611212565b73ffffffffffffffffffffffffffffffffffffffff1614610ee6576040517f08c379a0000000000000000000000000000000000000000000000000000000008152600401610edd90613937565b60405180910390fd5b8060109080519060200190610efc929190612dea565b5050565b6000806002600084815260200190815260200160002060009054906101000a900473ffffffffffffffffffffffffffffffffffffffff169050600073ffffffffffffffffffffffffffffffffffffffff168173ffffffffffffffffffffffffffffffffffffffff161415610fa9576040517f08c379a0000000000000000000000000000000000000000000000000000000008152600401610fa0906138b7565b60405180910390fd5b80915050919050565b60108054610fbf90613d27565b80601f0160208091040260200160405190810160405280929190818152602001828054610feb90613d27565b80156110385780601f1061100d57610100808354040283529160200191611038565b820191906000526020600020905b81548152906001019060200180831161101b57829003601f168201915b505050505081565b60115481565b60008073ffffffffffffffffffffffffffffffffffffffff168273ffffffffffffffffffffffffffffffffffffffff1614156110b7576040517f08c379a00000000000000000000000000000000000000000000000000000000081526004016110ae90613897565b60405180910390fd5b600360008373ffffffffffffffffffffffffffffffffffffffff1673ffffffffffffffffffffffffffffffffffffffff168152602001908152602001600020549050919050565b611106611cf3565b73ffffffffffffffffffffffffffffffffffffffff16611124611212565b73ffffffffffffffffffffffffffffffffffffffff161461117a576040517f08c379a000000000000000000000000000000000000000000000000000000000815260040161117190613937565b60405180910390fd5b61118460006120ee565b565b61118e611cf3565b73ffffffffffffffffffffffffffffffffffffffff166111ac611212565b73ffffffffffffffffffffffffffffffffffffffff1614611202576040517f08c379a00000000000000000000000000000000000000000000000000000000081526004016111f990613937565b60405180910390fd5b8060128190555050565b60125481565b6000600a60009054906101000a900473ffffffffffffffffffffffffffffffffffffffff16905090565b611244611cf3565b73ffffffffffffffffffffffffffffffffffffffff16611262611212565b73ffffffffffffffffffffffffffffffffffffffff16146112b8576040517f08c379a00000000000000000000000000000000000000000000000000000000081526004016112af90613937565b60405180910390fd5b80600b8190555050565b6060600180546112d190613d27565b80601f01602080910402602001604051908101604052809291908181526020018280546112fd90613d27565b801561134a5780601f1061131f5761010080835404028352916020019161134a565b820191906000526020600020905b81548152906001019060200180831161132d57829003601f168201915b5050505050905090565b61135c611cf3565b73ffffffffffffffffffffffffffffffffffffffff1661137a611212565b73ffffffffffffffffffffffffffffffffffffffff16146113d0576040517f08c379a00000000000000000000000000000000000000000000000000000000081526004016113c790613937565b60405180910390fd5b600f60009054906101000a900460ff1615600f60006101000a81548160ff021916908315150217905550565b61140e611407611cf3565b83836121b4565b5050565b61141a611cf3565b73ffffffffffffffffffffffffffffffffffffffff16611438611212565b73ffffffffffffffffffffffffffffffffffffffff161461148e576040517f08c379a000000000000000000000000000000000000000000000000000000000815260040161148590613937565b60405180910390fd5b80600d8190555050565b6114a96114a3611cf3565b83611db4565b6114e8576040517f08c379a00000000000000000000000000000000000000000000000000000000081526004016114df90613a37565b60405180910390fd5b6114f484848484612321565b50505050565b606061150582611c87565b611544576040517f08c379a000000000000000000000000000000000000000000000000000000000815260040161153b90613977565b60405180910390fd5b600061154e61237d565b9050600081511161156e5760405180602001604052806000815250611599565b806115788461240f565b6040516020016115899291906136a4565b6040516020818303038152906040525b915050919050565b6115a9611cf3565b73ffffffffffffffffffffffffffffffffffffffff166115c7611212565b73ffffffffffffffffffffffffffffffffffffffff161461161d576040517f08c379a000000000000000000000000000000000000000000000000000000000815260040161161490613937565b60405180910390fd5b80600c8190555050565b600f60009054906101000a900460ff16611676576040517f08c379a000000000000000000000000000000000000000000000000000000000815260040161166d906139f7565b60405180910390fd5b6000811180156116885750600d548111155b6116c7576040517f08c379a00000000000000000000000000000000000000000000000000000000081526004016116be906139b7565b60405180910390fd5b600e54816011546116d89190613b5c565b1115611719576040517f08c379a000000000000000000000000000000000000000000000000000000000815260040161171090613a17565b60405180910390fd5b80600b546117279190613be3565b341015611769576040517f08c379a0000000000000000000000000000000000000000000000000000000008152600401611760906138d7565b60405180910390fd5b6000601154905081601160008282546117829190613b5c565b9250508190555060005b828110156117bf5761179e3383612570565b81806117a990613d8a565b92505080806117b790613d8a565b91505061178c565b505050565b600f60009054906101000a900460ff16611813576040517f08c379a000000000000000000000000000000000000000000000000000000000815260040161180a906139f7565b60405180910390fd5b6000811180156118255750600c548111155b611864576040517f08c379a000000000000000000000000000000000000000000000000000000000815260040161185b906139b7565b60405180910390fd5b601254816011546118759190613b5c565b11156118b6576040517f08c379a00000000000000000000000000000000000000000000000000000000081526004016118ad90613997565b60405180910390fd5b600581601460003373ffffffffffffffffffffffffffffffffffffffff1673ffffffffffffffffffffffffffffffffffffffff168152602001908152602001600020546119039190613b5c565b1115611944576040517f08c379a000000000000000000000000000000000000000000000000000000000815260040161193b90613817565b60405180910390fd5b60006011549050816011600082825461195d9190613b5c565b9250508190555081601460003373ffffffffffffffffffffffffffffffffffffffff1673ffffffffffffffffffffffffffffffffffffffff16815260200190815260200160002060008282546119b39190613b5c565b9250508190555060005b82811015611a08576119cf3383612570565b601360008154809291906119e290613d8a565b919050555081806119f290613d8a565b9250508080611a0090613d8a565b9150506119bd565b505050565b60135481565b6000600560008473ffffffffffffffffffffffffffffffffffffffff1673ffffffffffffffffffffffffffffffffffffffff16815260200190815260200160002060008373ffffffffffffffffffffffffffffffffffffffff1673ffffffffffffffffffffffffffffffffffffffff16815260200190815260200160002060009054906101000a900460ff16905092915050565b600d5481565b611ab5611cf3565b73ffffffffffffffffffffffffffffffffffffffff16611ad3611212565b73ffffffffffffffffffffffffffffffffffffffff1614611b29576040517f08c379a0000000000000000000000000000000000000000000000000000000008152600401611b2090613937565b60405180910390fd5b600073ffffffffffffffffffffffffffffffffffffffff168173ffffffffffffffffffffffffffffffffffffffff161415611b99576040517f08c379a0000000000000000000000000000000000000000000000000000000008152600401611b90906137b7565b60405180910390fd5b611ba2816120ee565b50565b60007f80ac58cd000000000000000000000000000000000000000000000000000000007bffffffffffffffffffffffffffffffffffffffffffffffffffffffff1916827bffffffffffffffffffffffffffffffffffffffffffffffffffffffff19161480611c7057507f5b5e139f000000000000000000000000000000000000000000000000000000007bffffffffffffffffffffffffffffffffffffffffffffffffffffffff1916827bffffffffffffffffffffffffffffffffffffffffffffffffffffffff1916145b80611c805750611c7f8261258e565b5b9050919050565b60008073ffffffffffffffffffffffffffffffffffffffff166002600084815260200190815260200160002060009054906101000a900473ffffffffffffffffffffffffffffffffffffffff1673ffffffffffffffffffffffffffffffffffffffff1614159050919050565b600033905090565b816004600083815260200190815260200160002060006101000a81548173ffffffffffffffffffffffffffffffffffffffff021916908373ffffffffffffffffffffffffffffffffffffffff160217905550808273ffffffffffffffffffffffffffffffffffffffff16611d6e83610f00565b73ffffffffffffffffffffffffffffffffffffffff167f8c5be1e5ebec7d5bd14f71427d1e84f3dd0314c0f7b2291e5b200ac8c7c3b92560405160405180910390a45050565b6000611dbf82611c87565b611dfe576040517f08c379a0000000000000000000000000000000000000000000000000000000008152600401611df590613857565b60405180910390fd5b6000611e0983610f00565b90508073ffffffffffffffffffffffffffffffffffffffff168473ffffffffffffffffffffffffffffffffffffffff161480611e7857508373ffffffffffffffffffffffffffffffffffffffff16611e60846109d6565b73ffffffffffffffffffffffffffffffffffffffff16145b80611e895750611e888185611a13565b5b91505092915050565b8273ffffffffffffffffffffffffffffffffffffffff16611eb282610f00565b73ffffffffffffffffffffffffffffffffffffffff1614611f08576040517f08c379a0000000000000000000000000000000000000000000000000000000008152600401611eff90613957565b60405180910390fd5b600073ffffffffffffffffffffffffffffffffffffffff168273ffffffffffffffffffffffffffffffffffffffff161415611f78576040517f08c379a0000000000000000000000000000000000000000000000000000000008152600401611f6f906137f7565b60405180910390fd5b611f838383836125f8565b611f8e600082611cfb565b6001600360008573ffffffffffffffffffffffffffffffffffffffff1673ffffffffffffffffffffffffffffffffffffffff1681526020019081526020016000206000828254611fde9190613c3d565b925050819055506001600360008473ffffffffffffffffffffffffffffffffffffffff1673ffffffffffffffffffffffffffffffffffffffff16815260200190815260200160002060008282546120359190613b5c565b92505081905550816002600083815260200190815260200160002060006101000a81548173ffffffffffffffffffffffffffffffffffffffff021916908373ffffffffffffffffffffffffffffffffffffffff160217905550808273ffffffffffffffffffffffffffffffffffffffff168473ffffffffffffffffffffffffffffffffffffffff167fddf252ad1be2c89b69c2b068fc378daa952ba7f163c4a11628f55a4df523b3ef60405160405180910390a4505050565b6000600a60009054906101000a900473ffffffffffffffffffffffffffffffffffffffff16905081600a60006101000a81548173ffffffffffffffffffffffffffffffffffffffff021916908373ffffffffffffffffffffffffffffffffffffffff1602179055508173ffffffffffffffffffffffffffffffffffffffff168173ffffffffffffffffffffffffffffffffffffffff167f8be0079c531659141344cd1fd0a4f28419497f9722a3daafe3b4186f6b6457e060405160405180910390a35050565b8173ffffffffffffffffffffffffffffffffffffffff168373ffffffffffffffffffffffffffffffffffffffff161415612223576040517f08c379a000000000000000000000000000000000000000000000000000000000815260040161221a90613837565b60405180910390fd5b80600560008573ffffffffffffffffffffffffffffffffffffffff1673ffffffffffffffffffffffffffffffffffffffff16815260200190815260200160002060008473ffffffffffffffffffffffffffffffffffffffff1673ffffffffffffffffffffffffffffffffffffffff16815260200190815260200160002060006101000a81548160ff0219169083151502179055508173ffffffffffffffffffffffffffffffffffffffff168373ffffffffffffffffffffffffffffffffffffffff167f17307eab39ab6107e8899845ad3d59bd9653f200f220920489ca2b5937696c3183604051612314919061373a565b60405180910390a3505050565b61232c848484611e92565b6123388484848461270c565b612377576040517f08c379a000000000000000000000000000000000000000000000000000000000815260040161236e90613797565b60405180910390fd5b50505050565b60606010805461238c90613d27565b80601f01602080910402602001604051908101604052809291908181526020018280546123b890613d27565b80156124055780601f106123da57610100808354040283529160200191612405565b820191906000526020600020905b8154815290600101906020018083116123e857829003601f168201915b5050505050905090565b60606000821415612457576040518060400160405280600181526020017f3000000000000000000000000000000000000000000000000000000000000000815250905061256b565b600082905060005b6000821461248957808061247290613d8a565b915050600a826124829190613bb2565b915061245f565b60008167ffffffffffffffff8111156124a5576124a4613eef565b5b6040519080825280601f01601f1916602001820160405280156124d75781602001600182028036833780820191505090505b5090505b60008514612564576001826124f09190613c3d565b9150600a856124ff9190613dd3565b603061250b9190613b5c565b60f81b81838151811061252157612520613ec0565b5b60200101907effffffffffffffffffffffffffffffffffffffffffffffffffffffffffffff1916908160001a905350600a8561255d9190613bb2565b94506124db565b8093505050505b919050565b61258a8282604051806020016040528060008152506128a3565b5050565b60007f01ffc9a7000000000000000000000000000000000000000000000000000000007bffffffffffffffffffffffffffffffffffffffffffffffffffffffff1916827bffffffffffffffffffffffffffffffffffffffffffffffffffffffff1916149050919050565b6126038383836128fe565b600073ffffffffffffffffffffffffffffffffffffffff168373ffffffffffffffffffffffffffffffffffffffff1614156126465761264181612903565b612685565b8173ffffffffffffffffffffffffffffffffffffffff168373ffffffffffffffffffffffffffffffffffffffff161461268457612683838261294c565b5b5b600073ffffffffffffffffffffffffffffffffffffffff168273ffffffffffffffffffffffffffffffffffffffff1614156126c8576126c381612ab9565b612707565b8273ffffffffffffffffffffffffffffffffffffffff168273ffffffffffffffffffffffffffffffffffffffff1614612706576127058282612b8a565b5b5b505050565b600061272d8473ffffffffffffffffffffffffffffffffffffffff16612c09565b15612896578373ffffffffffffffffffffffffffffffffffffffff1663150b7a02612756611cf3565b8786866040518563ffffffff1660e01b815260040161277894939291906136ee565b602060405180830381600087803b15801561279257600080fd5b505af19250505080156127c357506040513d601f19601f820116820180604052508101906127c091906131c6565b60015b612846573d80600081146127f3576040519150601f19603f3d011682016040523d82523d6000602084013e6127f8565b606091505b5060008151141561283e576040517f08c379a000000000000000000000000000000000000000000000000000000000815260040161283590613797565b60405180910390fd5b805181602001fd5b63150b7a0260e01b7bffffffffffffffffffffffffffffffffffffffffffffffffffffffff1916817bffffffffffffffffffffffffffffffffffffffffffffffffffffffff19161491505061289b565b600190505b949350505050565b6128ad8383612c1c565b6128ba600084848461270c565b6128f9576040517f08c379a00000000000000000000000000000000000000000000000000000000081526004016128f090613797565b60405180910390fd5b505050565b505050565b6008805490506009600083815260200190815260200160002081905550600881908060018154018082558091505060019003906000526020600020016000909190919091505550565b6000600161295984611046565b6129639190613c3d565b9050600060076000848152602001908152602001600020549050818114612a48576000600660008673ffffffffffffffffffffffffffffffffffffffff1673ffffffffffffffffffffffffffffffffffffffff168152602001908152602001600020600084815260200190815260200160002054905080600660008773ffffffffffffffffffffffffffffffffffffffff1673ffffffffffffffffffffffffffffffffffffffff168152602001908152602001600020600084815260200190815260200160002081905550816007600083815260200190815260200160002081905550505b6007600084815260200190815260200160002060009055600660008573ffffffffffffffffffffffffffffffffffffffff1673ffffffffffffffffffffffffffffffffffffffff16815260200190815260200160002060008381526020019081526020016000206000905550505050565b60006001600880549050612acd9190613c3d565b9050600060096000848152602001908152602001600020549050600060088381548110612afd57612afc613ec0565b5b906000526020600020015490508060088381548110612b1f57612b1e613ec0565b5b906000526020600020018190555081600960008381526020019081526020016000208190555060096000858152602001908152602001600020600090556008805480612b6e57612b6d613e91565b5b6001900381819060005260206000200160009055905550505050565b6000612b9583611046565b905081600660008573ffffffffffffffffffffffffffffffffffffffff1673ffffffffffffffffffffffffffffffffffffffff168152602001908152602001600020600083815260200190815260200160002081905550806007600084815260200190815260200160002081905550505050565b600080823b905060008111915050919050565b600073ffffffffffffffffffffffffffffffffffffffff168273ffffffffffffffffffffffffffffffffffffffff161415612c8c576040517f08c379a0000000000000000000000000000000000000000000000000000000008152600401612c83906138f7565b60405180910390fd5b612c9581611c87565b15612cd5576040517f08c379a0000000000000000000000000000000000000000000000000000000008152600401612ccc906137d7565b60405180910390fd5b612ce1600083836125f8565b6001600360008473ffffffffffffffffffffffffffffffffffffffff1673ffffffffffffffffffffffffffffffffffffffff1681526020019081526020016000206000828254612d319190613b5c565b92505081905550816002600083815260200190815260200160002060006101000a81548173ffffffffffffffffffffffffffffffffffffffff021916908373ffffffffffffffffffffffffffffffffffffffff160217905550808273ffffffffffffffffffffffffffffffffffffffff16600073ffffffffffffffffffffffffffffffffffffffff167fddf252ad1be2c89b69c2b068fc378daa952ba7f163c4a11628f55a4df523b3ef60405160405180910390a45050565b828054612df690613d27565b90600052602060002090601f016020900481019282612e185760008555612e5f565b82601f10612e3157805160ff1916838001178555612e5f565b82800160010185558215612e5f579182015b82811115612e5e578251825591602001919060010190612e43565b5b509050612e6c9190612e70565b5090565b5b80821115612e89576000816000905550600101612e71565b5090565b6000612ea0612e9b84613ab7565b613a92565b905082815260208101848484011115612ebc57612ebb613f23565b5b612ec7848285613ce5565b509392505050565b6000612ee2612edd84613ae8565b613a92565b905082815260208101848484011115612efe57612efd613f23565b5b612f09848285613ce5565b509392505050565b600081359050612f208161463c565b92915050565b600081359050612f3581614653565b92915050565b600081359050612f4a8161466a565b92915050565b600081519050612f5f8161466a565b92915050565b600082601f830112612f7a57612f79613f1e565b5b8135612f8a848260208601612e8d565b91505092915050565b600082601f830112612fa857612fa7613f1e565b5b8135612fb8848260208601612ecf565b91505092915050565b600081359050612fd081614681565b92915050565b600060208284031215612fec57612feb613f2d565b5b6000612ffa84828501612f11565b91505092915050565b6000806040838503121561301a57613019613f2d565b5b600061302885828601612f11565b925050602061303985828601612f11565b9150509250929050565b60008060006060848603121561305c5761305b613f2d565b5b600061306a86828701612f11565b935050602061307b86828701612f11565b925050604061308c86828701612fc1565b9150509250925092565b600080600080608085870312156130b0576130af613f2d565b5b60006130be87828801612f11565b94505060206130cf87828801612f11565b93505060406130e087828801612fc1565b925050606085013567ffffffffffffffff81111561310157613100613f28565b5b61310d87828801612f65565b91505092959194509250565b600080604083850312156131305761312f613f2d565b5b600061313e85828601612f11565b925050602061314f85828601612f26565b9150509250929050565b600080604083850312156131705761316f613f2d565b5b600061317e85828601612f11565b925050602061318f85828601612fc1565b9150509250929050565b6000602082840312156131af576131ae613f2d565b5b60006131bd84828501612f3b565b91505092915050565b6000602082840312156131dc576131db613f2d565b5b60006131ea84828501612f50565b91505092915050565b60006020828403121561320957613208613f2d565b5b600082013567ffffffffffffffff81111561322757613226613f28565b5b61323384828501612f93565b91505092915050565b60006020828403121561325257613251613f2d565b5b600061326084828501612fc1565b91505092915050565b61327281613c71565b82525050565b61328181613c83565b82525050565b600061329282613b19565b61329c8185613b2f565b93506132ac818560208601613cf4565b6132b581613f32565b840191505092915050565b60006132cb82613b24565b6132d58185613b40565b93506132e5818560208601613cf4565b6132ee81613f32565b840191505092915050565b600061330482613b24565b61330e8185613b51565b935061331e818560208601613cf4565b80840191505092915050565b6000613337602b83613b40565b915061334282613f43565b604082019050919050565b600061335a603283613b40565b915061336582613f92565b604082019050919050565b600061337d602683613b40565b915061338882613fe1565b604082019050919050565b60006133a0601c83613b40565b91506133ab82614030565b602082019050919050565b60006133c3602483613b40565b91506133ce82614059565b604082019050919050565b60006133e6602883613b40565b91506133f1826140a8565b604082019050919050565b6000613409601983613b40565b9150613414826140f7565b602082019050919050565b600061342c602c83613b40565b915061343782614120565b604082019050919050565b600061344f603883613b40565b915061345a8261416f565b604082019050919050565b6000613472602a83613b40565b915061347d826141be565b604082019050919050565b6000613495602983613b40565b91506134a08261420d565b604082019050919050565b60006134b8603483613b40565b91506134c38261425c565b604082019050919050565b60006134db602083613b40565b91506134e6826142ab565b602082019050919050565b60006134fe602c83613b40565b9150613509826142d4565b604082019050919050565b6000613521600583613b51565b915061352c82614323565b600582019050919050565b6000613544602083613b40565b915061354f8261434c565b602082019050919050565b6000613567602983613b40565b915061357282614375565b604082019050919050565b600061358a602f83613b40565b9150613595826143c4565b604082019050919050565b60006135ad602183613b40565b91506135b882614413565b604082019050919050565b60006135d0602483613b40565b91506135db82614462565b604082019050919050565b60006135f3602183613b40565b91506135fe826144b1565b604082019050919050565b6000613616602c83613b40565b915061362182614500565b604082019050919050565b6000613639602d83613b40565b91506136448261454f565b604082019050919050565b600061365c603183613b40565b91506136678261459e565b604082019050919050565b600061367f602c83613b40565b915061368a826145ed565b604082019050919050565b61369e81613cdb565b82525050565b60006136b082856132f9565b91506136bc82846132f9565b91506136c782613514565b91508190509392505050565b60006020820190506136e86000830184613269565b92915050565b60006080820190506137036000830187613269565b6137106020830186613269565b61371d6040830185613695565b818103606083015261372f8184613287565b905095945050505050565b600060208201905061374f6000830184613278565b92915050565b6000602082019050818103600083015261376f81846132c0565b905092915050565b600060208201905081810360008301526137908161332a565b9050919050565b600060208201905081810360008301526137b08161334d565b9050919050565b600060208201905081810360008301526137d081613370565b9050919050565b600060208201905081810360008301526137f081613393565b9050919050565b60006020820190508181036000830152613810816133b6565b9050919050565b60006020820190508181036000830152613830816133d9565b9050919050565b60006020820190508181036000830152613850816133fc565b9050919050565b600060208201905081810360008301526138708161341f565b9050919050565b6000602082019050818103600083015261389081613442565b9050919050565b600060208201905081810360008301526138b081613465565b9050919050565b600060208201905081810360008301526138d081613488565b9050919050565b600060208201905081810360008301526138f0816134ab565b9050919050565b60006020820190508181036000830152613910816134ce565b9050919050565b60006020820190508181036000830152613930816134f1565b9050919050565b6000602082019050818103600083015261395081613537565b9050919050565b600060208201905081810360008301526139708161355a565b9050919050565b600060208201905081810360008301526139908161357d565b9050919050565b600060208201905081810360008301526139b0816135a0565b9050919050565b600060208201905081810360008301526139d0816135c3565b9050919050565b600060208201905081810360008301526139f0816135e6565b9050919050565b60006020820190508181036000830152613a1081613609565b9050919050565b60006020820190508181036000830152613a308161362c565b9050919050565b60006020820190508181036000830152613a508161364f565b9050919050565b60006020820190508181036000830152613a7081613672565b9050919050565b6000602082019050613a8c6000830184613695565b92915050565b6000613a9c613aad565b9050613aa88282613d59565b919050565b6000604051905090565b600067ffffffffffffffff821115613ad257613ad1613eef565b5b613adb82613f32565b9050602081019050919050565b600067ffffffffffffffff821115613b0357613b02613eef565b5b613b0c82613f32565b9050602081019050919050565b600081519050919050565b600081519050919050565b600082825260208201905092915050565b600082825260208201905092915050565b600081905092915050565b6000613b6782613cdb565b9150613b7283613cdb565b9250827fffffffffffffffffffffffffffffffffffffffffffffffffffffffffffffffff03821115613ba757613ba6613e04565b5b828201905092915050565b6000613bbd82613cdb565b9150613bc883613cdb565b925082613bd857613bd7613e33565b5b828204905092915050565b6000613bee82613cdb565b9150613bf983613cdb565b9250817fffffffffffffffffffffffffffffffffffffffffffffffffffffffffffffffff0483118215151615613c3257613c31613e04565b5b828202905092915050565b6000613c4882613cdb565b9150613c5383613cdb565b925082821015613c6657613c65613e04565b5b828203905092915050565b6000613c7c82613cbb565b9050919050565b60008115159050919050565b60007fffffffff0000000000000000000000000000000000000000000000000000000082169050919050565b600073ffffffffffffffffffffffffffffffffffffffff82169050919050565b6000819050919050565b82818337600083830152505050565b60005b83811015613d12578082015181840152602081019050613cf7565b83811115613d21576000848401525b50505050565b60006002820490506001821680613d3f57607f821691505b60208210811415613d5357613d52613e62565b5b50919050565b613d6282613f32565b810181811067ffffffffffffffff82111715613d8157613d80613eef565b5b80604052505050565b6000613d9582613cdb565b91507fffffffffffffffffffffffffffffffffffffffffffffffffffffffffffffffff821415613dc857613dc7613e04565b5b600182019050919050565b6000613dde82613cdb565b9150613de983613cdb565b925082613df957613df8613e33565b5b828206905092915050565b7f4e487b7100000000000000000000000000000000000000000000000000000000600052601160045260246000fd5b7f4e487b7100000000000000000000000000000000000000000000000000000000600052601260045260246000fd5b7f4e487b7100000000000000000000000000000000000000000000000000000000600052602260045260246000fd5b7f4e487b7100000000000000000000000000000000000000000000000000000000600052603160045260246000fd5b7f4e487b7100000000000000000000000000000000000000000000000000000000600052603260045260246000fd5b7f4e487b7100000000000000000000000000000000000000000000000000000000600052604160045260246000fd5b600080fd5b600080fd5b600080fd5b600080fd5b6000601f19601f8301169050919050565b7f455243373231456e756d657261626c653a206f776e657220696e646578206f7560008201527f74206f6620626f756e6473000000000000000000000000000000000000000000602082015250565b7f4552433732313a207472616e7366657220746f206e6f6e20455243373231526560008201527f63656976657220696d706c656d656e7465720000000000000000000000000000602082015250565b7f4f776e61626c653a206e6577206f776e657220697320746865207a65726f206160008201527f6464726573730000000000000000000000000000000000000000000000000000602082015250565b7f4552433732313a20746f6b656e20616c7265616479206d696e74656400000000600082015250565b7f4552433732313a207472616e7366657220746f20746865207a65726f2061646460008201527f7265737300000000000000000000000000000000000000000000000000000000602082015250565b7f596f75206861766520616c7265616479206d696e74656420352066726565204c60008201527f6172766144616473000000000000000000000000000000000000000000000000602082015250565b7f4552433732313a20617070726f766520746f2063616c6c657200000000000000600082015250565b7f4552433732313a206f70657261746f7220717565727920666f72206e6f6e657860008201527f697374656e7420746f6b656e0000000000000000000000000000000000000000602082015250565b7f4552433732313a20617070726f76652063616c6c6572206973206e6f74206f7760008201527f6e6572206e6f7220617070726f76656420666f7220616c6c0000000000000000602082015250565b7f4552433732313a2062616c616e636520717565727920666f7220746865207a6560008201527f726f206164647265737300000000000000000000000000000000000000000000602082015250565b7f4552433732313a206f776e657220717565727920666f72206e6f6e657869737460008201527f656e7420746f6b656e0000000000000000000000000000000000000000000000602082015250565b7f4554482076616c75652073656e7420697320746f6f206c6974746c6520666f7260008201527f2074686973206d616e79204c6172766144616473000000000000000000000000602082015250565b7f4552433732313a206d696e7420746f20746865207a65726f2061646472657373600082015250565b7f4552433732313a20617070726f76656420717565727920666f72206e6f6e657860008201527f697374656e7420746f6b656e0000000000000000000000000000000000000000602082015250565b7f2e6a736f6e000000000000000000000000000000000000000000000000000000600082015250565b7f4f776e61626c653a2063616c6c6572206973206e6f7420746865206f776e6572600082015250565b7f4552433732313a207472616e73666572206f6620746f6b656e2074686174206960008201527f73206e6f74206f776e0000000000000000000000000000000000000000000000602082015250565b7f4552433732314d657461646174613a2055524920717565727920666f72206e6f60008201527f6e6578697374656e7420746f6b656e0000000000000000000000000000000000602082015250565b7f546865726520617265206e6f206d6f72652066726565206d696e7473206c656660008201527f7400000000000000000000000000000000000000000000000000000000000000602082015250565b7f4d696e7420636f756e7420697320746f6f206c6974746c65206f7220746f6f2060008201527f6869676800000000000000000000000000000000000000000000000000000000602082015250565b7f4552433732313a20617070726f76616c20746f2063757272656e74206f776e6560008201527f7200000000000000000000000000000000000000000000000000000000000000602082015250565b7f506c65617365207761697420756e74696c207468652064726f7020697320616360008201527f7469766520746f206d696e740000000000000000000000000000000000000000602082015250565b7f507572636861736520776f756c6420657863656564206d617820737570706c7960008201527f206f66204c617276614461647300000000000000000000000000000000000000602082015250565b7f4552433732313a207472616e736665722063616c6c6572206973206e6f74206f60008201527f776e6572206e6f7220617070726f766564000000000000000000000000000000602082015250565b7f455243373231456e756d657261626c653a20676c6f62616c20696e646578206f60008201527f7574206f6620626f756e64730000000000000000000000000000000000000000602082015250565b61464581613c71565b811461465057600080fd5b50565b61465c81613c83565b811461466757600080fd5b50565b61467381613c8f565b811461467e57600080fd5b50565b61468a81613cdb565b811461469557600080fd5b5056fea2646970667358221220e29fa214e30f8a975c844c4be863a9ce09172f02bfd7457bf33cc32c1cbc92ee64736f6c63430008070033"}}