{
  "opcodeHash": "0x6b5d63a664b5ecea0ddf181468c576fb50cba71cd9bb49e5b1ac51f22254fb3f",
  "metalessHash": "0x0bc2cc1f0c2e4a0cc4692d360f85a07019493acf520679200c58bcb64d8f9c87",
  "runtimeHash": "0x6f7e58fd7d411c94e59b84bda1589b0bf3ccf1b0d8340a88267591389daabf88",
  "encodedMetadata": [
    {
      "ipfs": "/ipfs/QmNaQH4J6kqaY61sDf77oiBXsAfpDdyESt6A3WB7Yonh3P",
      "solc": "0.6.12"
    }
  ],
  "abi": [
    {
      "inputs": [
        {
          "internalType": "address",
          "name": "_stafiStorageAddress",
          "type": "address"
        }
      ],
      "stateMutability": "nonpayable",
      "type": "constructor"
    },
    {
      "anonymous": false,
      "inputs": [
        {
          "indexed": true,
          "internalType": "address",
          "name": "from",
          "type": "address"
        },
        {
          "indexed": false,
          "internalType": "uint256",
          "name": "amount",
          "type": "uint256"
        },
        {
          "indexed": false,
          "internalType": "uint256",
          "name": "time",
          "type": "uint256"
        }
      ],
      "name": "DepositReceived",
      "type": "event"
    },
    {
      "inputs": [],
      "name": "deposit",
      "outputs": [],
      "stateMutability": "payable",
      "type": "function"
    },
    {
      "inputs": [],
      "name": "getCurrentNodeDepositAmount",
      "outputs": [
        {
          "internalType": "uint256",
          "name": "",
          "type": "uint256"
        }
      ],
      "stateMutability": "view",
      "type": "function"
    },
    {
      "inputs": [],
      "name": "getDepositEnabled",
      "outputs": [
        {
          "internalType": "bool",
          "name": "",
          "type": "bool"
        }
      ],
      "stateMutability": "view",
      "type": "function"
    },
    {
      "inputs": [
        {
          "internalType": "uint256",
          "name": "_value",
          "type": "uint256"
        }
      ],
      "name": "setCurrentNodeDepositAmount",
      "outputs": [],
      "stateMutability": "nonpayable",
      "type": "function"
    },
    {
      "inputs": [
        {
          "internalType": "bool",
          "name": "_value",
          "type": "bool"
        }
      ],
      "name": "setDepositEnabled",
      "outputs": [],
      "stateMutability": "nonpayable",
      "type": "function"
    },
    {
      "inputs": [],
      "name": "version",
      "outputs": [
        {
          "internalType": "uint8",
          "name": "",
          "type": "uint8"
        }
      ],
      "stateMutability": "view",
      "type": "function"
    }
  ],
  "bytecode": {
    "object": "608060405260008054610100600160a81b03191690553480156200002257600080fd5b5060405162001be438038062001be4833981810160405260208110156200004857600080fd5b5051600080546001610100600160a81b03199091166101006001600160a01b038516021760ff191617905560408051808201909152601a81527f73657474696e67732e6e6f64652e6465706f7369742e696e69740000000000006020820152620000b2906200011e565b6200011757620000c360016200021c565b620000d6673782dace9d90000062000308565b60408051808201909152601a81527f73657474696e67732e6e6f64652e6465706f7369742e696e69740000000000006020820152620001179060016200063d565b50620009e3565b60008060019054906101000a90046001600160a01b03166001600160a01b0316637ae1cfca836040516020018082805190602001908083835b60208310620001785780518252601f19909201916020918201910162000157565b6001836020036101000a038019825116818451168082178552505050505050905001915050604051602081830303815290604052805190602001206040518263ffffffff1660e01b81526004018082815260200191505060206040518083038186803b158015620001e857600080fd5b505afa158015620001fd573d6000803e3d6000fd5b505050506040513d60208110156200021457600080fd5b505192915050565b60408051808201909152600581526437bbb732b960d91b60208201526200024490336200072f565b8062000273575060408051808201909152600581526430b236b4b760d91b60208201526200027390336200072f565b620002c5576040805162461bcd60e51b815260206004820152601b60248201527f4163636f756e74206973206e6f74206120737570657220757365720000000000604482015290519081900360640190fd5b60408051808201909152601d81527f73657474696e67732e6e6f64652e6465706f7369742e656e61626c656400000060208201526200030590826200063d565b50565b60408051808201909152600581526437bbb732b960d91b60208201526200033090336200072f565b806200035f575060408051808201909152600581526430b236b4b760d91b60208201526200035f90336200072f565b620003b1576040805162461bcd60e51b815260206004820152601b60248201527f4163636f756e74206973206e6f74206120737570657220757365720000000000604482015290519081900360640190fd5b6000620003f96040518060400160405280601881526020017f73746166695374616b696e67506f6f6c53657474696e67730000000000000000815250620007e260201b60201c565b9050806001600160a01b031663aca0905b6040518163ffffffff1660e01b815260040160206040518083038186803b1580156200043557600080fd5b505afa1580156200044a573d6000803e3d6000fd5b505050506040513d60208110156200046157600080fd5b5051821480620004d75750806001600160a01b031663bf0372916040518163ffffffff1660e01b815260040160206040518083038186803b158015620004a657600080fd5b505afa158015620004bb573d6000803e3d6000fd5b505050506040513d6020811015620004d257600080fd5b505182145b80620005495750806001600160a01b0316636ffacd866040518163ffffffff1660e01b815260040160206040518083038186803b1580156200051857600080fd5b505afa1580156200052d573d6000803e3d6000fd5b505050506040513d60208110156200054457600080fd5b505182145b80620005bb5750806001600160a01b0316636f24d8f96040518163ffffffff1660e01b815260040160206040518083038186803b1580156200058a57600080fd5b505afa1580156200059f573d6000803e3d6000fd5b505050506040513d6020811015620005b657600080fd5b505182145b6200060d576040805162461bcd60e51b815260206004820152601b60248201527f496e76616c6964206e6f6465206465706f73697420616d6f756e740000000000604482015290519081900360640190fd5b620006397f73657474696e67732e6e6f64652e6465706f7369742e616d6f756e740000000083620008d9565b5050565b600060019054906101000a90046001600160a01b03166001600160a01b031663abfdcced836040516020018082805190602001908083835b60208310620006965780518252601f19909201916020918201910162000675565b6001836020036101000a03801982511681845116808217855250505050505090500191505060405160208183030381529060405280519060200120836040518363ffffffff1660e01b815260040180838152602001821515815260200192505050600060405180830381600087803b1580156200071257600080fd5b505af115801562000727573d6000803e3d6000fd5b505050505050565b6000620007db838360405160200180806a6163636573732e726f6c6560a81b815250600b0183805190602001908083835b60208310620007815780518252601f19909201916020918201910162000760565b6001836020036101000a038019825116818451168082178552505050505050905001826001600160a01b031660601b815260140192505050604051602081830303815290604052805190602001206200092d60201b60201c565b9392505050565b600080620008808360405160200180806f636f6e74726163742e6164647265737360801b81525060100182805190602001908083835b60208310620008395780518252601f19909201916020918201910162000818565b6001836020036101000a038019825116818451168082178552505050505050905001915050604051602081830303815290604052805190602001206200098860201b60201c565b90506001600160a01b038116620008d3576040805162461bcd60e51b815260206004820152601260248201527110dbdb9d1c9858dd081b9bdd08199bdd5b9960721b604482015290519081900360640190fd5b92915050565b6000805460408051637152429d60e11b8152600481018690526024810185905290516101009092046001600160a01b03169263e2a4853a9260448084019382900301818387803b1580156200071257600080fd5b60008060019054906101000a90046001600160a01b03166001600160a01b0316637ae1cfca836040518263ffffffff1660e01b81526004018082815260200191505060206040518083038186803b158015620001e857600080fd5b60008060019054906101000a90046001600160a01b03166001600160a01b03166321f8a721836040518263ffffffff1660e01b81526004018082815260200191505060206040518083038186803b158015620001e857600080fd5b6111f180620009f36000396000f3fe6080604052600436106100555760003560e01c806333f30a5e1461005a57806354fd4d50146100865780635b17d04b146100b15780636ada7847146100dd57806383f3f08614610106578063d0e30db01461012d575b600080fd5b34801561006657600080fd5b506100846004803603602081101561007d57600080fd5b5035610135565b005b34801561009257600080fd5b5061009b610447565b6040805160ff9092168252519081900360200190f35b3480156100bd57600080fd5b50610084600480360360208110156100d457600080fd5b50351515610450565b3480156100e957600080fd5b506100f2610537565b604080519115158252519081900360200190f35b34801561011257600080fd5b5061011b61057c565b60408051918252519081900360200190f35b6100846105a7565b61015c6040518060400160405280600581526020016437bbb732b960d91b81525033610cfb565b8061018957506101896040518060400160405280600581526020016430b236b4b760d91b81525033610cfb565b6101da576040805162461bcd60e51b815260206004820152601b60248201527f4163636f756e74206973206e6f74206120737570657220757365720000000000604482015290519081900360640190fd5b60006102156040518060400160405280601881526020017773746166695374616b696e67506f6f6c53657474696e677360401b815250610da4565b9050806001600160a01b031663aca0905b6040518163ffffffff1660e01b815260040160206040518083038186803b15801561025057600080fd5b505afa158015610264573d6000803e3d6000fd5b505050506040513d602081101561027a57600080fd5b50518214806102ec5750806001600160a01b031663bf0372916040518163ffffffff1660e01b815260040160206040518083038186803b1580156102bd57600080fd5b505afa1580156102d1573d6000803e3d6000fd5b505050506040513d60208110156102e757600080fd5b505182145b8061035a5750806001600160a01b0316636ffacd866040518163ffffffff1660e01b815260040160206040518083038186803b15801561032b57600080fd5b505afa15801561033f573d6000803e3d6000fd5b505050506040513d602081101561035557600080fd5b505182145b806103c85750806001600160a01b0316636f24d8f96040518163ffffffff1660e01b815260040160206040518083038186803b15801561039957600080fd5b505afa1580156103ad573d6000803e3d6000fd5b505050506040513d60208110156103c357600080fd5b505182145b610419576040805162461bcd60e51b815260206004820152601b60248201527f496e76616c6964206e6f6465206465706f73697420616d6f756e740000000000604482015290519081900360640190fd5b6104437f73657474696e67732e6e6f64652e6465706f7369742e616d6f756e740000000083610e4f565b5050565b60005460ff1681565b6104776040518060400160405280600581526020016437bbb732b960d91b81525033610cfb565b806104a457506104a46040518060400160405280600581526020016430b236b4b760d91b81525033610cfb565b6104f5576040805162461bcd60e51b815260206004820152601b60248201527f4163636f756e74206973206e6f74206120737570657220757365720000000000604482015290519081900360640190fd5b6105346040518060400160405280601d81526020017f73657474696e67732e6e6f64652e6465706f7369742e656e61626c656400000081525082610ebe565b50565b60006105776040518060400160405280601d81526020017f73657474696e67732e6e6f64652e6465706f7369742e656e61626c6564000000815250610f90565b905090565b60006105777f73657474696e67732e6e6f64652e6465706f7369742e616d6f756e7400000000611089565b6040518060400160405280601081526020016f1cdd18599a539bd91951195c1bdcda5d60821b815250306106628260405160200180806f636f6e74726163742e6164647265737360801b81525060100182805190602001908083835b602083106106225780518252601f199092019160209182019101610603565b6001836020036101000a038019825116818451168082178552505050505050905001915050604051602081830303815290604052805190602001206110e3565b6001600160a01b0316816001600160a01b0316146106c7576040805162461bcd60e51b815260206004820152601c60248201527f496e76616c6964206f72206f7574646174656420636f6e747261637400000000604482015290519081900360640190fd5b6106cf610537565b61070a5760405162461bcd60e51b81526004018080602001828103825260248152602001806111986024913960400191505060405180910390fd5b34158061071d575061071a61057c565b34145b61076e576040805162461bcd60e51b815260206004820152601b60248201527f496e76616c6964206e6f6465206465706f73697420616d6f756e740000000000604482015290519081900360640190fd5b60006107a16040518060400160405280601081526020016f1cdd18599a555cd95c91195c1bdcda5d60821b815250610da4565b905060006107e36040518060400160405280601781526020017f73746166695374616b696e67506f6f6c4d616e61676572000000000000000000815250610da4565b905060006108206040518060400160405280601881526020017773746166695374616b696e67506f6f6c53657474696e677360401b815250610da4565b90506000816001600160a01b031663aca0905b6040518163ffffffff1660e01b815260040160206040518083038186803b15801561085d57600080fd5b505afa158015610871573d6000803e3d6000fd5b505050506040513d602081101561088757600080fd5b5051341415610898575060016109f0565b816001600160a01b031663bf0372916040518163ffffffff1660e01b815260040160206040518083038186803b1580156108d157600080fd5b505afa1580156108e5573d6000803e3d6000fd5b505050506040513d60208110156108fb57600080fd5b505134141561090c575060026109f0565b816001600160a01b0316636ffacd866040518163ffffffff1660e01b815260040160206040518083038186803b15801561094557600080fd5b505afa158015610959573d6000803e3d6000fd5b505050506040513d602081101561096f57600080fd5b5051341415610980575060036109f0565b816001600160a01b0316636f24d8f96040518163ffffffff1660e01b815260040160206040518083038186803b1580156109b957600080fd5b505afa1580156109cd573d6000803e3d6000fd5b505050506040513d60208110156109e357600080fd5b50513414156109f0575060045b6000610a236040518060400160405280601081526020016f39ba30b334a737b232a6b0b730b3b2b960811b815250610da4565b90506000826005811115610a3357fe5b148015610aae57506040805163b13e9d2960e01b815233600482015290516001600160a01b0383169163b13e9d29916024808301926020929190829003018186803b158015610a8157600080fd5b505afa158015610a95573d6000803e3d6000fd5b505050506040513d6020811015610aab57600080fd5b50515b15610ab857600591505b6000826005811115610ac657fe5b1415610b19576040805162461bcd60e51b815260206004820152601b60248201527f496e76616c6964206e6f6465206465706f73697420616d6f756e740000000000604482015290519081900360640190fd5b60408051348152426020820152815133927f7aa1a8eb998c779420645fc14513bf058edb347d95c2fc2e6845bdc22f888631928290030190a26040805163672d7a0d60e01b815233600482015290516001600160a01b0383169163672d7a0d91602480830192600092919082900301818387803b158015610b9957600080fd5b505af1158015610bad573d6000803e3d6000fd5b505060405163372ed41360e11b81523360048201818152600094506001600160a01b0389169350636e5da82692879190602401826005811115610bec57fe5b815260200192505050602060405180830381600087803b158015610c0f57600080fd5b505af1158015610c23573d6000803e3d6000fd5b505050506040513d6020811015610c3957600080fd5b5051604080516355362d6760e11b8152905191925082916001600160a01b0383169163aa6c5ace91349160048082019260009290919082900301818588803b158015610c8457600080fd5b505af1158015610c98573d6000803e3d6000fd5b5050505050866001600160a01b03166327c8f1936040518163ffffffff1660e01b8152600401600060405180830381600087803b158015610cd857600080fd5b505af1158015610cec573d6000803e3d6000fd5b50505050505050505050505050565b6000610d9d838360405160200180806a6163636573732e726f6c6560a81b815250600b0183805190602001908083835b60208310610d4a5780518252601f199092019160209182019101610d2b565b6001836020036101000a038019825116818451168082178552505050505050905001826001600160a01b031660601b8152601401925050506040516020818303038152906040528051906020012061113d565b9392505050565b600080610df78360405160200180806f636f6e74726163742e6164647265737360801b8152506010018280519060200190808383602083106106225780518252601f199092019160209182019101610603565b90506001600160a01b038116610e49576040805162461bcd60e51b815260206004820152601260248201527110dbdb9d1c9858dd081b9bdd08199bdd5b9960721b604482015290519081900360640190fd5b92915050565b6000805460408051637152429d60e11b8152600481018690526024810185905290516101009092046001600160a01b03169263e2a4853a9260448084019382900301818387803b158015610ea257600080fd5b505af1158015610eb6573d6000803e3d6000fd5b505050505050565b600060019054906101000a90046001600160a01b03166001600160a01b031663abfdcced836040516020018082805190602001908083835b60208310610f155780518252601f199092019160209182019101610ef6565b6001836020036101000a03801982511681845116808217855250505050505090500191505060405160208183030381529060405280519060200120836040518363ffffffff1660e01b815260040180838152602001821515815260200192505050600060405180830381600087803b158015610ea257600080fd5b60008060019054906101000a90046001600160a01b03166001600160a01b0316637ae1cfca836040516020018082805190602001908083835b60208310610fe85780518252601f199092019160209182019101610fc9565b6001836020036101000a038019825116818451168082178552505050505050905001915050604051602081830303815290604052805190602001206040518263ffffffff1660e01b81526004018082815260200191505060206040518083038186803b15801561105757600080fd5b505afa15801561106b573d6000803e3d6000fd5b505050506040513d602081101561108157600080fd5b505192915050565b60008060019054906101000a90046001600160a01b03166001600160a01b031663bd02d0f5836040518263ffffffff1660e01b81526004018082815260200191505060206040518083038186803b15801561105757600080fd5b60008060019054906101000a90046001600160a01b03166001600160a01b03166321f8a721836040518263ffffffff1660e01b81526004018082815260200191505060206040518083038186803b15801561105757600080fd5b60008060019054906101000a90046001600160a01b03166001600160a01b0316637ae1cfca836040518263ffffffff1660e01b81526004018082815260200191505060206040518083038186803b15801561105757600080fdfe4e6f6465206465706f73697473206172652063757272656e746c792064697361626c6564a2646970667358221220550583303e56c4d3dae84f4d69f4ef22b8e99b78fd94ccfc6274c6a6cc1571ae64736f6c634300060c0033"
  }
}