{"compiler":"v0.6.12+commit.27d51765","opcodeHash":"0x4f967d8a28f03972c776fbfc0a6b337077d2c1a986ab235ab1a02815d6ba92ac","metalessHash":"0x48e7b34f67768ac81860371bcc3ae4ced2202f1d03fcc157116cdae2a8aff1a8","runtimeHash":"0x30786fa20a1d213aa931bfaebce4caf7914741867ee478dbd19f0346b9d05b34","encodedMetadata":[{"ipfs":"/ipfs/QmZe6VMk3aYUm6MRgtcatYcsKQxFMFV1ePESs9BwkAX1S9","solc":"0.6.12"}],"abi":[{"inputs":[{"internalType":"address","name":"_mooniswap","type":"address"},{"internalType":"address","name":"_bpool","type":"address"},{"internalType":"address","name":"_gtoken","type":"address"}],"stateMutability":"nonpayable","type":"constructor"},{"inputs":[{"internalType":"uint256","name":"_ethAmount","type":"uint256"}],"name":"calcArbToEth","outputs":[{"internalType":"uint256","name":"","type":"uint256"}],"stateMutability":"nonpayable","type":"function"},{"inputs":[{"internalType":"uint256","name":"_groAmount","type":"uint256"}],"name":"calcArbToGro","outputs":[{"internalType":"uint256","name":"","type":"uint256"}],"stateMutability":"nonpayable","type":"function"}],"bytecode":{"object":"608060405234801561001057600080fd5b5060405161121c38038061121c8339818101604052606081101561003357600080fd5b8101908080519060200190929190805190602001909291908051906020019092919050505033600360006101000a81548173ffffffffffffffffffffffffffffffffffffffff021916908373ffffffffffffffffffffffffffffffffffffffff160217905550826000806101000a81548173ffffffffffffffffffffffffffffffffffffffff021916908373ffffffffffffffffffffffffffffffffffffffff16021790555081600160006101000a81548173ffffffffffffffffffffffffffffffffffffffff021916908373ffffffffffffffffffffffffffffffffffffffff16021790555080600260006101000a81548173ffffffffffffffffffffffffffffffffffffffff021916908373ffffffffffffffffffffffffffffffffffffffff1602179055505050506110af8061016d6000396000f3fe608060405234801561001057600080fd5b50600436106100365760003560e01c8063186bd42c1461003b578063f10049311461007d575b600080fd5b6100676004803603602081101561005157600080fd5b81019080803590602001909291905050506100bf565b6040518082815260200191505060405180910390f35b6100a96004803603602081101561009357600080fd5b810190808035906020019092919050505061089c565b6040518082815260200191505060405180910390f35b60008060008054906101000a900473ffffffffffffffffffffffffffffffffffffffff1690506000600160009054906101000a900473ffffffffffffffffffffffffffffffffffffffff1690506000600260009054906101000a900473ffffffffffffffffffffffffffffffffffffffff16905060008373ffffffffffffffffffffffffffffffffffffffff16631e1401f860007309e64c2b61a5f1690ee6fbed9baf5d6990f8dfd0896040518463ffffffff1660e01b8152600401808473ffffffffffffffffffffffffffffffffffffffff1681526020018373ffffffffffffffffffffffffffffffffffffffff1681526020018281526020019350505050602060405180830381600087803b1580156101d957600080fd5b505af11580156101ed573d6000803e3d6000fd5b505050506040513d602081101561020357600080fd5b8101908080519060200190929190505050905060008373ffffffffffffffffffffffffffffffffffffffff1663f8b2cb4f7309e64c2b61a5f1690ee6fbed9baf5d6990f8dfd06040518263ffffffff1660e01b8152600401808273ffffffffffffffffffffffffffffffffffffffff168152602001915050602060405180830381600087803b15801561029557600080fd5b505af11580156102a9573d6000803e3d6000fd5b505050506040513d60208110156102bf57600080fd5b8101908080519060200190929190505050905060008473ffffffffffffffffffffffffffffffffffffffff1663f8b2cb4f733eee7fe99640c47abf43cd2c2b6a80eb785e38cf6040518263ffffffff1660e01b8152600401808273ffffffffffffffffffffffffffffffffffffffff168152602001915050602060405180830381600087803b15801561035157600080fd5b505af1158015610365573d6000803e3d6000fd5b505050506040513d602081101561037b57600080fd5b8101908080519060200190929190505050905060008573ffffffffffffffffffffffffffffffffffffffff1663f1b8a9b77309e64c2b61a5f1690ee6fbed9baf5d6990f8dfd06040518263ffffffff1660e01b8152600401808273ffffffffffffffffffffffffffffffffffffffff168152602001915050602060405180830381600087803b15801561040d57600080fd5b505af1158015610421573d6000803e3d6000fd5b505050506040513d602081101561043757600080fd5b8101908080519060200190929190505050905060008673ffffffffffffffffffffffffffffffffffffffff1663f1b8a9b7733eee7fe99640c47abf43cd2c2b6a80eb785e38cf6040518263ffffffff1660e01b8152600401808273ffffffffffffffffffffffffffffffffffffffff168152602001915050602060405180830381600087803b1580156104c957600080fd5b505af11580156104dd573d6000803e3d6000fd5b505050506040513d60208110156104f357600080fd5b8101908080519060200190929190505050905060008773ffffffffffffffffffffffffffffffffffffffff1663d4cadf686040518163ffffffff1660e01b8152600401602060405180830381600087803b15801561055057600080fd5b505af1158015610564573d6000803e3d6000fd5b505050506040513d602081101561057a57600080fd5b8101908080519060200190929190505050905060008873ffffffffffffffffffffffffffffffffffffffff1663ba9530a6878688878c886040518763ffffffff1660e01b8152600401808781526020018681526020018581526020018481526020018381526020018281526020019650505050505050602060405180830381600087803b15801561060a57600080fd5b505af115801561061e573d6000803e3d6000fd5b505050506040513d602081101561063457600080fd5b8101908080519060200190929190505050905060008873ffffffffffffffffffffffffffffffffffffffff16634c68df676040518163ffffffff1660e01b8152600401602060405180830381600087803b15801561069157600080fd5b505af11580156106a5573d6000803e3d6000fd5b505050506040513d60208110156106bb57600080fd5b8101908080519060200190929190505050905060008973ffffffffffffffffffffffffffffffffffffffff166318160ddd6040518163ffffffff1660e01b8152600401602060405180830381600087803b15801561071857600080fd5b505af115801561072c573d6000803e3d6000fd5b505050506040513d602081101561074257600080fd5b8101908080519060200190929190505050905060008a73ffffffffffffffffffffffffffffffffffffffff16638bc7e8c46040518163ffffffff1660e01b8152600401602060405180830381600087803b15801561079f57600080fd5b505af11580156107b3573d6000803e3d6000fd5b505050506040513d60208110156107c957600080fd5b8101908080519060200190929190505050905060008b73ffffffffffffffffffffffffffffffffffffffff166397f04e25868686866040518563ffffffff1660e01b815260040180858152602001848152602001838152602001828152602001945050505050602060405180830381600087803b15801561084957600080fd5b505af115801561085d573d6000803e3d6000fd5b505050506040513d602081101561087357600080fd5b81019080805190602001909291905050509050809e505050505050505050505050505050919050565b60008060008054906101000a900473ffffffffffffffffffffffffffffffffffffffff1690506000600160009054906101000a900473ffffffffffffffffffffffffffffffffffffffff1690506000600260009054906101000a900473ffffffffffffffffffffffffffffffffffffffff16905060008373ffffffffffffffffffffffffffffffffffffffff16631e1401f87309e64c2b61a5f1690ee6fbed9baf5d6990f8dfd06000896040518463ffffffff1660e01b8152600401808473ffffffffffffffffffffffffffffffffffffffff1681526020018373ffffffffffffffffffffffffffffffffffffffff1681526020018281526020019350505050602060405180830381600087803b1580156109b657600080fd5b505af11580156109ca573d6000803e3d6000fd5b505050506040513d60208110156109e057600080fd5b8101908080519060200190929190505050905060008273ffffffffffffffffffffffffffffffffffffffff16634c68df676040518163ffffffff1660e01b8152600401602060405180830381600087803b158015610a3d57600080fd5b505af1158015610a51573d6000803e3d6000fd5b505050506040513d6020811015610a6757600080fd5b8101908080519060200190929190505050905060008373ffffffffffffffffffffffffffffffffffffffff166318160ddd6040518163ffffffff1660e01b8152600401602060405180830381600087803b158015610ac457600080fd5b505af1158015610ad8573d6000803e3d6000fd5b505050506040513d6020811015610aee57600080fd5b8101908080519060200190929190505050905060008473ffffffffffffffffffffffffffffffffffffffff16638bc7e8c46040518163ffffffff1660e01b8152600401602060405180830381600087803b158015610b4b57600080fd5b505af1158015610b5f573d6000803e3d6000fd5b505050506040513d6020811015610b7557600080fd5b8101908080519060200190929190505050905060008573ffffffffffffffffffffffffffffffffffffffff1663f98d98f7868686866040518563ffffffff1660e01b815260040180858152602001848152602001838152602001828152602001945050505050602060405180830381600087803b158015610bf557600080fd5b505af1158015610c09573d6000803e3d6000fd5b505050506040513d6020811015610c1f57600080fd5b8101908080519060200190929190505050905060008773ffffffffffffffffffffffffffffffffffffffff1663f8b2cb4f733eee7fe99640c47abf43cd2c2b6a80eb785e38cf6040518263ffffffff1660e01b8152600401808273ffffffffffffffffffffffffffffffffffffffff168152602001915050602060405180830381600087803b158015610cb157600080fd5b505af1158015610cc5573d6000803e3d6000fd5b505050506040513d6020811015610cdb57600080fd5b8101908080519060200190929190505050905060008873ffffffffffffffffffffffffffffffffffffffff1663f8b2cb4f7309e64c2b61a5f1690ee6fbed9baf5d6990f8dfd06040518263ffffffff1660e01b8152600401808273ffffffffffffffffffffffffffffffffffffffff168152602001915050602060405180830381600087803b158015610d6d57600080fd5b505af1158015610d81573d6000803e3d6000fd5b505050506040513d6020811015610d9757600080fd5b8101908080519060200190929190505050905060008973ffffffffffffffffffffffffffffffffffffffff1663f1b8a9b7733eee7fe99640c47abf43cd2c2b6a80eb785e38cf6040518263ffffffff1660e01b8152600401808273ffffffffffffffffffffffffffffffffffffffff168152602001915050602060405180830381600087803b158015610e2957600080fd5b505af1158015610e3d573d6000803e3d6000fd5b505050506040513d6020811015610e5357600080fd5b8101908080519060200190929190505050905060008a73ffffffffffffffffffffffffffffffffffffffff1663f1b8a9b77309e64c2b61a5f1690ee6fbed9baf5d6990f8dfd06040518263ffffffff1660e01b8152600401808273ffffffffffffffffffffffffffffffffffffffff168152602001915050602060405180830381600087803b158015610ee557600080fd5b505af1158015610ef9573d6000803e3d6000fd5b505050506040513d6020811015610f0f57600080fd5b8101908080519060200190929190505050905060008b73ffffffffffffffffffffffffffffffffffffffff1663d4cadf686040518163ffffffff1660e01b8152600401602060405180830381600087803b158015610f6c57600080fd5b505af1158015610f80573d6000803e3d6000fd5b505050506040513d6020811015610f9657600080fd5b8101908080519060200190929190505050905060008c73ffffffffffffffffffffffffffffffffffffffff1663ba9530a6878688878c886040518763ffffffff1660e01b8152600401808781526020018681526020018581526020018481526020018381526020018281526020019650505050505050602060405180830381600087803b15801561102657600080fd5b505af115801561103a573d6000803e3d6000fd5b505050506040513d602081101561105057600080fd5b81019080805190602001909291905050509050809e50505050505050505050505050505091905056fea2646970667358221220f1f9ca63170d040eddbfa3c6d3d62a600128a7a199a9d208346ea15e2bebdf6f64736f6c634300060c0033"}}