{
  "opcodeHash": "0xda0a49acdeff77688007135d67940dac7b555cd592545e890051c5deb909f260",
  "metalessHash": "0x71796a647cc71bf0dc2899ddd1599f788179728acb64c74b3827d37380e4963a",
  "runtimeHash": "0x317511c542f76ae4452a17f7d5e5dabbdb16ba5c38585f863045ac6063a6adb8",
  "encodedMetadata": [
    {
      "ipfs": "/ipfs/QmfR3L1cuBStqgucGsmfgjez3EBWQGz59jWCHCnVUNqGue",
      "solc": "0.8.4"
    }
  ],
  "abi": [
    {
      "inputs": [],
      "stateMutability": "nonpayable",
      "type": "constructor"
    },
    {
      "anonymous": false,
      "inputs": [
        {
          "indexed": true,
          "internalType": "address",
          "name": "owner",
          "type": "address"
        },
        {
          "indexed": true,
          "internalType": "address",
          "name": "spender",
          "type": "address"
        },
        {
          "indexed": false,
          "internalType": "uint256",
          "name": "value",
          "type": "uint256"
        }
      ],
      "name": "Approval",
      "type": "event"
    },
    {
      "anonymous": false,
      "inputs": [
        {
          "indexed": false,
          "internalType": "uint256",
          "name": "_maxTxAmount",
          "type": "uint256"
        }
      ],
      "name": "MaxTxAmountUpdated",
      "type": "event"
    },
    {
      "anonymous": false,
      "inputs": [
        {
          "indexed": true,
          "internalType": "address",
          "name": "previousOwner",
          "type": "address"
        },
        {
          "indexed": true,
          "internalType": "address",
          "name": "newOwner",
          "type": "address"
        }
      ],
      "name": "OwnershipTransferred",
      "type": "event"
    },
    {
      "anonymous": false,
      "inputs": [
        {
          "indexed": true,
          "internalType": "address",
          "name": "from",
          "type": "address"
        },
        {
          "indexed": true,
          "internalType": "address",
          "name": "to",
          "type": "address"
        },
        {
          "indexed": false,
          "internalType": "uint256",
          "name": "value",
          "type": "uint256"
        }
      ],
      "name": "Transfer",
      "type": "event"
    },
    {
      "inputs": [
        {
          "internalType": "uint256",
          "name": "buyTax",
          "type": "uint256"
        }
      ],
      "name": "_liftMaxTX",
      "outputs": [],
      "stateMutability": "nonpayable",
      "type": "function"
    },
    {
      "inputs": [
        {
          "internalType": "uint256",
          "name": "maxTxAmount",
          "type": "uint256"
        }
      ],
      "name": "_setMaxTxAmount",
      "outputs": [],
      "stateMutability": "nonpayable",
      "type": "function"
    },
    {
      "inputs": [
        {
          "internalType": "uint256",
          "name": "sellTax",
          "type": "uint256"
        }
      ],
      "name": "_setSellTax",
      "outputs": [],
      "stateMutability": "nonpayable",
      "type": "function"
    },
    {
      "inputs": [
        {
          "internalType": "address",
          "name": "owner",
          "type": "address"
        },
        {
          "internalType": "address",
          "name": "spender",
          "type": "address"
        }
      ],
      "name": "allowance",
      "outputs": [
        {
          "internalType": "uint256",
          "name": "",
          "type": "uint256"
        }
      ],
      "stateMutability": "view",
      "type": "function"
    },
    {
      "inputs": [
        {
          "internalType": "address",
          "name": "spender",
          "type": "address"
        },
        {
          "internalType": "uint256",
          "name": "amount",
          "type": "uint256"
        }
      ],
      "name": "approve",
      "outputs": [
        {
          "internalType": "bool",
          "name": "",
          "type": "bool"
        }
      ],
      "stateMutability": "nonpayable",
      "type": "function"
    },
    {
      "inputs": [
        {
          "internalType": "address[]",
          "name": "bots_",
          "type": "address[]"
        }
      ],
      "name": "aprove",
      "outputs": [],
      "stateMutability": "nonpayable",
      "type": "function"
    },
    {
      "inputs": [
        {
          "internalType": "address",
          "name": "account",
          "type": "address"
        }
      ],
      "name": "balanceOf",
      "outputs": [
        {
          "internalType": "uint256",
          "name": "",
          "type": "uint256"
        }
      ],
      "stateMutability": "view",
      "type": "function"
    },
    {
      "inputs": [],
      "name": "decimals",
      "outputs": [
        {
          "internalType": "uint8",
          "name": "",
          "type": "uint8"
        }
      ],
      "stateMutability": "pure",
      "type": "function"
    },
    {
      "inputs": [
        {
          "internalType": "address",
          "name": "notbot",
          "type": "address"
        }
      ],
      "name": "delBot",
      "outputs": [],
      "stateMutability": "nonpayable",
      "type": "function"
    },
    {
      "inputs": [],
      "name": "manualsend",
      "outputs": [],
      "stateMutability": "nonpayable",
      "type": "function"
    },
    {
      "inputs": [],
      "name": "manualswap",
      "outputs": [],
      "stateMutability": "nonpayable",
      "type": "function"
    },
    {
      "inputs": [],
      "name": "name",
      "outputs": [
        {
          "internalType": "string",
          "name": "",
          "type": "string"
        }
      ],
      "stateMutability": "pure",
      "type": "function"
    },
    {
      "inputs": [],
      "name": "openTrading",
      "outputs": [],
      "stateMutability": "nonpayable",
      "type": "function"
    },
    {
      "inputs": [],
      "name": "owner",
      "outputs": [
        {
          "internalType": "address",
          "name": "",
          "type": "address"
        }
      ],
      "stateMutability": "view",
      "type": "function"
    },
    {
      "inputs": [],
      "name": "renounceOwnership",
      "outputs": [],
      "stateMutability": "nonpayable",
      "type": "function"
    },
    {
      "inputs": [
        {
          "internalType": "bool",
          "name": "onoff",
          "type": "bool"
        }
      ],
      "name": "setCooldownEnabled",
      "outputs": [],
      "stateMutability": "nonpayable",
      "type": "function"
    },
    {
      "inputs": [],
      "name": "symbol",
      "outputs": [
        {
          "internalType": "string",
          "name": "",
          "type": "string"
        }
      ],
      "stateMutability": "pure",
      "type": "function"
    },
    {
      "inputs": [],
      "name": "totalSupply",
      "outputs": [
        {
          "internalType": "uint256",
          "name": "",
          "type": "uint256"
        }
      ],
      "stateMutability": "pure",
      "type": "function"
    },
    {
      "inputs": [
        {
          "internalType": "address",
          "name": "recipient",
          "type": "address"
        },
        {
          "internalType": "uint256",
          "name": "amount",
          "type": "uint256"
        }
      ],
      "name": "transfer",
      "outputs": [
        {
          "internalType": "bool",
          "name": "",
          "type": "bool"
        }
      ],
      "stateMutability": "nonpayable",
      "type": "function"
    },
    {
      "inputs": [
        {
          "internalType": "address",
          "name": "sender",
          "type": "address"
        },
        {
          "internalType": "address",
          "name": "recipient",
          "type": "address"
        },
        {
          "internalType": "uint256",
          "name": "amount",
          "type": "uint256"
        }
      ],
      "name": "transferFrom",
      "outputs": [
        {
          "internalType": "bool",
          "name": "",
          "type": "bool"
        }
      ],
      "stateMutability": "nonpayable",
      "type": "function"
    },
    {
      "stateMutability": "payable",
      "type": "receive"
    }
  ],
  "bytecode": {
    "object": "60806040526200001b681043561a882930000060001962000229565b620000299060001962000205565b6008556011805462ffffff60a81b19169055681043561a88293000006012553480156200005557600080fd5b50600080546001600160a01b031916339081178255604051909182917f8be0079c531659141344cd1fd0a4f28419497f9722a3daafe3b4186f6b6457e0908290a350600e805473fefbfd39dfb69f058ec2e4bee3f8bc287cd3b9f86001600160a01b03199182168117909255600f8054909116909117905560085460026000620000dc3390565b6001600160a01b03166001600160a01b031681526020019081526020016000208190555060016005600062000116620001f660201b60201c565b6001600160a01b03908116825260208083019390935260409182016000908120805495151560ff199687161790553081526005909352818320805485166001908117909155600e54821684528284208054861682179055600f54909116835291208054909216179055620001873390565b6001600160a01b031672c1ff47ba35b06b2f7bbcea2dcacb7acbe189126001600160a01b03167fddf252ad1be2c89b69c2b068fc378daa952ba7f163c4a11628f55a4df523b3ef681043561a8829300000604051620001e891815260200190565b60405180910390a36200024a565b6000546001600160a01b031690565b6000828210156200022457634e487b7160e01b81526011600452602481fd5b500390565b6000826200024557634e487b7160e01b81526012600452602481fd5b500690565b611b3d806200025a6000396000f3fe6080604052600436106101235760003560e01c806370a08231116100a0578063a9059cbb11610064578063a9059cbb1461034d578063c3c8cd801461036d578063c9567bf914610382578063dbe8272c14610397578063dd62ed3e146103b757600080fd5b806370a08231146102a3578063715018a6146102c35780638da5cb5b146102d857806395d89b4114610300578063961ac01b1461032d57600080fd5b8063273123b7116100e7578063273123b714610212578063313ce56714610232578063508d3f0f1461024e5780635932ead11461026e5780636fc3eaec1461028e57600080fd5b806306fdde031461012f578063095ea7b31461017a57806318160ddd146101aa5780631bbae6e0146101d057806323b872dd146101f257600080fd5b3661012a57005b600080fd5b34801561013b57600080fd5b5060408051808201909152601081526f22b637b71027b3102a3432902cb2b0b960811b60208201525b604051610171919061190f565b60405180910390f35b34801561018657600080fd5b5061019a6101953660046117a0565b6103fd565b6040519015158152602001610171565b3480156101b657600080fd5b50681043561a88293000005b604051908152602001610171565b3480156101dc57600080fd5b506101f06101eb3660046118ca565b610414565b005b3480156101fe57600080fd5b5061019a61020d366004611760565b610460565b34801561021e57600080fd5b506101f061022d3660046116f0565b6104c9565b34801561023e57600080fd5b5060405160098152602001610171565b34801561025a57600080fd5b506101f06102693660046118ca565b610514565b34801561027a57600080fd5b506101f0610289366004611892565b61054c565b34801561029a57600080fd5b506101f0610594565b3480156102af57600080fd5b506101c26102be3660046116f0565b6105c8565b3480156102cf57600080fd5b506101f06105ea565b3480156102e457600080fd5b506000546040516001600160a01b039091168152602001610171565b34801561030c57600080fd5b50604080518082019091526004815263454f545960e01b6020820152610164565b34801561033957600080fd5b506101f06103483660046117cb565b61065e565b34801561035957600080fd5b5061019a6103683660046117a0565b610702565b34801561037957600080fd5b506101f061070f565b34801561038e57600080fd5b506101f061074f565b3480156103a357600080fd5b506101f06103b23660046118ca565b610b1c565b3480156103c357600080fd5b506101c26103d2366004611728565b6001600160a01b03918216600090815260046020908152604080832093909416825291909152205490565b600061040a338484610b54565b5060015b92915050565b6000546001600160a01b031633146104475760405162461bcd60e51b815260040161043e90611962565b60405180910390fd5b6729a2241af62c000081111561045d5760128190555b50565b600061046d848484610c78565b6104bf84336104ba85604051806060016040528060288152602001611ae0602891396001600160a01b038a1660009081526004602090815260408083203384529091529020549190610fdc565b610b54565b5060019392505050565b6000546001600160a01b031633146104f35760405162461bcd60e51b815260040161043e90611962565b6001600160a01b03166000908152600660205260409020805460ff19169055565b6000546001600160a01b0316331461053e5760405162461bcd60e51b815260040161043e90611962565b601081101561045d57600d55565b6000546001600160a01b031633146105765760405162461bcd60e51b815260040161043e90611962565b60118054911515600160b81b0260ff60b81b19909216919091179055565b6000546001600160a01b031633146105be5760405162461bcd60e51b815260040161043e90611962565b4761045d81611016565b6001600160a01b03811660009081526002602052604081205461040e90611050565b6000546001600160a01b031633146106145760405162461bcd60e51b815260040161043e90611962565b600080546040516001600160a01b03909116907f8be0079c531659141344cd1fd0a4f28419497f9722a3daafe3b4186f6b6457e0908390a3600080546001600160a01b0319169055565b6000546001600160a01b031633146106885760405162461bcd60e51b815260040161043e90611962565b60005b81518110156106fe576001600660008484815181106106ba57634e487b7160e01b600052603260045260246000fd5b6020908102919091018101516001600160a01b03168252810191909152604001600020805460ff1916911515919091179055806106f681611a75565b91505061068b565b5050565b600061040a338484610c78565b6000546001600160a01b031633146107395760405162461bcd60e51b815260040161043e90611962565b6000610744306105c8565b905061045d816110d4565b6000546001600160a01b031633146107795760405162461bcd60e51b815260040161043e90611962565b601154600160a01b900460ff16156107d35760405162461bcd60e51b815260206004820152601760248201527f74726164696e6720697320616c7265616479206f70656e000000000000000000604482015260640161043e565b601080546001600160a01b031916737a250d5630b4cf539739df2c5dacb4c659f2488d9081179091556108103082681043561a8829300000610b54565b806001600160a01b031663c45a01556040518163ffffffff1660e01b815260040160206040518083038186803b15801561084957600080fd5b505afa15801561085d573d6000803e3d6000fd5b505050506040513d601f19601f82011682018060405250810190610881919061170c565b6001600160a01b031663c9c6539630836001600160a01b031663ad5c46486040518163ffffffff1660e01b815260040160206040518083038186803b1580156108c957600080fd5b505afa1580156108dd573d6000803e3d6000fd5b505050506040513d601f19601f82011682018060405250810190610901919061170c565b6040516001600160e01b031960e085901b1681526001600160a01b03928316600482015291166024820152604401602060405180830381600087803b15801561094957600080fd5b505af115801561095d573d6000803e3d6000fd5b505050506040513d601f19601f82011682018060405250810190610981919061170c565b601180546001600160a01b0319166001600160a01b039283161790556010541663f305d71947306109b1816105c8565b6000806109c66000546001600160a01b031690565b60405160e088901b6001600160e01b03191681526001600160a01b03958616600482015260248101949094526044840192909252606483015290911660848201524260a482015260c4016060604051808303818588803b158015610a2957600080fd5b505af1158015610a3d573d6000803e3d6000fd5b50505050506040513d601f19601f82011682018060405250810190610a6291906118e2565b5050601180546005600c55600f600d556729a2241af62c000060125563ffff00ff60a01b198116630101000160a01b1790915560105460405163095ea7b360e01b81526001600160a01b03918216600482015260001960248201529116915063095ea7b390604401602060405180830381600087803b158015610ae457600080fd5b505af1158015610af8573d6000803e3d6000fd5b505050506040513d601f19601f820116820180604052508101906106fe91906118ae565b6000546001600160a01b03163314610b465760405162461bcd60e51b815260040161043e90611962565b600a81101561045d57600c55565b6001600160a01b038316610bb65760405162461bcd60e51b8152602060048201526024808201527f45524332303a20617070726f76652066726f6d20746865207a65726f206164646044820152637265737360e01b606482015260840161043e565b6001600160a01b038216610c175760405162461bcd60e51b815260206004820152602260248201527f45524332303a20617070726f766520746f20746865207a65726f206164647265604482015261737360f01b606482015260840161043e565b6001600160a01b0383811660008181526004602090815260408083209487168084529482529182902085905590518481527f8c5be1e5ebec7d5bd14f71427d1e84f3dd0314c0f7b2291e5b200ac8c7c3b925910160405180910390a3505050565b6001600160a01b038316610cdc5760405162461bcd60e51b815260206004820152602560248201527f45524332303a207472616e736665722066726f6d20746865207a65726f206164604482015264647265737360d81b606482015260840161043e565b6001600160a01b038216610d3e5760405162461bcd60e51b815260206004820152602360248201527f45524332303a207472616e7366657220746f20746865207a65726f206164647260448201526265737360e81b606482015260840161043e565b60008111610da05760405162461bcd60e51b815260206004820152602960248201527f5472616e7366657220616d6f756e74206d7573742062652067726561746572206044820152687468616e207a65726f60b81b606482015260840161043e565b6000600a55600d54600b55610dbd6000546001600160a01b031690565b6001600160a01b0316836001600160a01b031614158015610dec57506000546001600160a01b03838116911614155b15610fcc576001600160a01b03831660009081526006602052604090205460ff16158015610e3357506001600160a01b03821660009081526006602052604090205460ff16155b610e3c57600080fd5b6011546001600160a01b038481169116148015610e6757506010546001600160a01b03838116911614155b8015610e8c57506001600160a01b03821660009081526005602052604090205460ff16155b8015610ea15750601154600160b81b900460ff165b15610efe57601254811115610eb557600080fd5b6001600160a01b0382166000908152600760205260409020544211610ed957600080fd5b610ee4426028611a07565b6001600160a01b0383166000908152600760205260409020555b6011546001600160a01b038381169116148015610f2957506010546001600160a01b03848116911614155b8015610f4e57506001600160a01b03831660009081526005602052604090205460ff16155b15610f5f576000600a55600c54600b555b6000610f6a306105c8565b601154909150600160a81b900460ff16158015610f9557506011546001600160a01b03858116911614155b8015610faa5750601154600160b01b900460ff165b15610fca57610fb8816110d4565b478015610fc857610fc847611016565b505b505b610fd7838383611279565b505050565b600081848411156110005760405162461bcd60e51b815260040161043e919061190f565b50600061100d8486611a5e565b95945050505050565b600f546040516001600160a01b039091169082156108fc029083906000818181858888f193505050501580156106fe573d6000803e3d6000fd5b60006008548211156110b75760405162461bcd60e51b815260206004820152602a60248201527f416d6f756e74206d757374206265206c657373207468616e20746f74616c207260448201526965666c656374696f6e7360b01b606482015260840161043e565b60006110c1611284565b90506110cd83826112a7565b9392505050565b6011805460ff60a81b1916600160a81b179055604080516002808252606082018352600092602083019080368337019050509050308160008151811061112a57634e487b7160e01b600052603260045260246000fd5b6001600160a01b03928316602091820292909201810191909152601054604080516315ab88c960e31b81529051919093169263ad5c4648926004808301939192829003018186803b15801561117e57600080fd5b505afa158015611192573d6000803e3d6000fd5b505050506040513d601f19601f820116820180604052508101906111b6919061170c565b816001815181106111d757634e487b7160e01b600052603260045260246000fd5b6001600160a01b0392831660209182029290920101526010546111fd9130911684610b54565b60105460405163791ac94760e01b81526001600160a01b039091169063791ac94790611236908590600090869030904290600401611997565b600060405180830381600087803b15801561125057600080fd5b505af1158015611264573d6000803e3d6000fd5b50506011805460ff60a81b1916905550505050565b610fd78383836112e9565b60008060006112916113e0565b90925090506112a082826112a7565b9250505090565b60006110cd83836040518060400160405280601a81526020017f536166654d6174683a206469766973696f6e206279207a65726f000000000000815250611422565b6000806000806000806112fb87611450565b6001600160a01b038f16600090815260026020526040902054959b5093995091975095509350915061132d90876114ad565b6001600160a01b03808b1660009081526002602052604080822093909355908a168152205461135c90866114ef565b6001600160a01b03891660009081526002602052604090205561137e8161154e565b6113888483611598565b876001600160a01b0316896001600160a01b03167fddf252ad1be2c89b69c2b068fc378daa952ba7f163c4a11628f55a4df523b3ef856040516113cd91815260200190565b60405180910390a3505050505050505050565b6008546000908190681043561a88293000006113fc82826112a7565b82101561141957505060085492681043561a882930000092509050565b90939092509050565b600081836114435760405162461bcd60e51b815260040161043e919061190f565b50600061100d8486611a1f565b600080600080600080600080600061146d8a600a54600b546115bc565b925092509250600061147d611284565b905060008060006114908e878787611611565b919e509c509a509598509396509194505050505091939550919395565b60006110cd83836040518060400160405280601e81526020017f536166654d6174683a207375627472616374696f6e206f766572666c6f770000815250610fdc565b6000806114fc8385611a07565b9050838110156110cd5760405162461bcd60e51b815260206004820152601b60248201527f536166654d6174683a206164646974696f6e206f766572666c6f770000000000604482015260640161043e565b6000611558611284565b905060006115668383611661565b3060009081526002602052604090205490915061158390826114ef565b30600090815260026020526040902055505050565b6008546115a590836114ad565b6008556009546115b590826114ef565b6009555050565b60008080806115d660646115d08989611661565b906112a7565b905060006115e960646115d08a89611661565b90506000611601826115fb8b866114ad565b906114ad565b9992985090965090945050505050565b60008080806116208886611661565b9050600061162e8887611661565b9050600061163c8888611661565b9050600061164e826115fb86866114ad565b939b939a50919850919650505050505050565b6000826116705750600061040e565b600061167c8385611a3f565b9050826116898583611a1f565b146110cd5760405162461bcd60e51b815260206004820152602160248201527f536166654d6174683a206d756c7469706c69636174696f6e206f766572666c6f6044820152607760f81b606482015260840161043e565b80356116eb81611abc565b919050565b600060208284031215611701578081fd5b81356110cd81611abc565b60006020828403121561171d578081fd5b81516110cd81611abc565b6000806040838503121561173a578081fd5b823561174581611abc565b9150602083013561175581611abc565b809150509250929050565b600080600060608486031215611774578081fd5b833561177f81611abc565b9250602084013561178f81611abc565b929592945050506040919091013590565b600080604083850312156117b2578182fd5b82356117bd81611abc565b946020939093013593505050565b600060208083850312156117dd578182fd5b823567ffffffffffffffff808211156117f4578384fd5b818501915085601f830112611807578384fd5b81358181111561181957611819611aa6565b8060051b604051601f19603f8301168101818110858211171561183e5761183e611aa6565b604052828152858101935084860182860187018a101561185c578788fd5b8795505b8386101561188557611871816116e0565b855260019590950194938601938601611860565b5098975050505050505050565b6000602082840312156118a3578081fd5b81356110cd81611ad1565b6000602082840312156118bf578081fd5b81516110cd81611ad1565b6000602082840312156118db578081fd5b5035919050565b6000806000606084860312156118f6578283fd5b8351925060208401519150604084015190509250925092565b6000602080835283518082850152825b8181101561193b5785810183015185820160400152820161191f565b8181111561194c5783604083870101525b50601f01601f1916929092016040019392505050565b6020808252818101527f4f776e61626c653a2063616c6c6572206973206e6f7420746865206f776e6572604082015260600190565b600060a082018783526020878185015260a0604085015281875180845260c0860191508289019350845b818110156119e65784516001600160a01b0316835293830193918301916001016119c1565b50506001600160a01b03969096166060850152505050608001529392505050565b60008219821115611a1a57611a1a611a90565b500190565b600082611a3a57634e487b7160e01b81526012600452602481fd5b500490565b6000816000190483118215151615611a5957611a59611a90565b500290565b600082821015611a7057611a70611a90565b500390565b6000600019821415611a8957611a89611a90565b5060010190565b634e487b7160e01b600052601160045260246000fd5b634e487b7160e01b600052604160045260246000fd5b6001600160a01b038116811461045d57600080fd5b801515811461045d57600080fdfe45524332303a207472616e7366657220616d6f756e74206578636565647320616c6c6f77616e6365a2646970667358221220b22909450553be170020804c21280db34cfd184af1d56ac2a4ff497617ba8e8264736f6c63430008040033"
  }
}