{"compiler":"v0.4.26+commit.4563c3fc","opcodeHash":"0x085c5942f9c88c8f611e9318006f060220b4a463a7e13854f49590bc8c3308e6","metalessHash":"0xa58de3424adf76a508f14aac1be99992dbd000a3f5d4b8fbce0d40f77be19729","runtimeHash":"0x7e73ac1a9a75cf5ee91e93f543a52ffde1a9fa6c93c1fb52050b74d8057d8f0d","encodedMetadata":[{"bzzr0":"/swarm/bzzr0/6c74cd032c9e57517d243dcf9abd8503d2e517cae50406fbe742ed701800cec7"}],"abi":[{"constant":true,"inputs":[],"name":"name","outputs":[{"name":"","type":"string"}],"payable":false,"stateMutability":"view","type":"function"},{"constant":false,"inputs":[{"name":"spender","type":"address"},{"name":"value","type":"uint256"}],"name":"approve","outputs":[{"name":"","type":"bool"}],"payable":false,"stateMutability":"nonpayable","type":"function"},{"constant":true,"inputs":[],"name":"totalSupply","outputs":[{"name":"","type":"uint256"}],"payable":false,"stateMutability":"view","type":"function"},{"constant":false,"inputs":[{"name":"from","type":"address"},{"name":"to","type":"address"},{"name":"value","type":"uint256"}],"name":"transferFrom","outputs":[{"name":"","type":"bool"}],"payable":false,"stateMutability":"nonpayable","type":"function"},{"constant":true,"inputs":[],"name":"INITIAL_SUPPLY","outputs":[{"name":"","type":"uint256"}],"payable":false,"stateMutability":"view","type":"function"},{"constant":true,"inputs":[],"name":"decimals","outputs":[{"name":"","type":"uint8"}],"payable":false,"stateMutability":"view","type":"function"},{"constant":false,"inputs":[{"name":"spender","type":"address"},{"name":"addedValue","type":"uint256"}],"name":"increaseAllowance","outputs":[{"name":"success","type":"bool"}],"payable":false,"stateMutability":"nonpayable","type":"function"},{"constant":false,"inputs":[],"name":"unpause","outputs":[],"payable":false,"stateMutability":"nonpayable","type":"function"},{"constant":false,"inputs":[{"name":"value","type":"uint256"}],"name":"burn","outputs":[],"payable":false,"stateMutability":"nonpayable","type":"function"},{"constant":true,"inputs":[{"name":"account","type":"address"}],"name":"isPauser","outputs":[{"name":"","type":"bool"}],"payable":false,"stateMutability":"view","type":"function"},{"constant":true,"inputs":[],"name":"paused","outputs":[{"name":"","type":"bool"}],"payable":false,"stateMutability":"view","type":"function"},{"constant":false,"inputs":[],"name":"renouncePauser","outputs":[],"payable":false,"stateMutability":"nonpayable","type":"function"},{"constant":true,"inputs":[{"name":"owner","type":"address"}],"name":"balanceOf","outputs":[{"name":"","type":"uint256"}],"payable":false,"stateMutability":"view","type":"function"},{"constant":false,"inputs":[{"name":"from","type":"address"},{"name":"value","type":"uint256"}],"name":"burnFrom","outputs":[],"payable":false,"stateMutability":"nonpayable","type":"function"},{"constant":false,"inputs":[{"name":"account","type":"address"}],"name":"addPauser","outputs":[],"payable":false,"stateMutability":"nonpayable","type":"function"},{"constant":false,"inputs":[],"name":"pause","outputs":[],"payable":false,"stateMutability":"nonpayable","type":"function"},{"constant":true,"inputs":[],"name":"symbol","outputs":[{"name":"","type":"string"}],"payable":false,"stateMutability":"view","type":"function"},{"constant":false,"inputs":[{"name":"spender","type":"address"},{"name":"subtractedValue","type":"uint256"}],"name":"decreaseAllowance","outputs":[{"name":"success","type":"bool"}],"payable":false,"stateMutability":"nonpayable","type":"function"},{"constant":false,"inputs":[{"name":"to","type":"address"},{"name":"value","type":"uint256"}],"name":"transfer","outputs":[{"name":"","type":"bool"}],"payable":false,"stateMutability":"nonpayable","type":"function"},{"constant":true,"inputs":[{"name":"owner","type":"address"},{"name":"spender","type":"address"}],"name":"allowance","outputs":[{"name":"","type":"uint256"}],"payable":false,"stateMutability":"view","type":"function"},{"inputs":[],"payable":false,"stateMutability":"nonpayable","type":"constructor"},{"anonymous":false,"inputs":[{"indexed":false,"name":"account","type":"address"}],"name":"Paused","type":"event"},{"anonymous":false,"inputs":[{"indexed":false,"name":"account","type":"address"}],"name":"Unpaused","type":"event"},{"anonymous":false,"inputs":[{"indexed":true,"name":"account","type":"address"}],"name":"PauserAdded","type":"event"},{"anonymous":false,"inputs":[{"indexed":true,"name":"account","type":"address"}],"name":"PauserRemoved","type":"event"},{"anonymous":false,"inputs":[{"indexed":true,"name":"from","type":"address"},{"indexed":true,"name":"to","type":"address"},{"indexed":false,"name":"value","type":"uint256"}],"name":"Transfer","type":"event"},{"anonymous":false,"inputs":[{"indexed":true,"name":"owner","type":"address"},{"indexed":true,"name":"spender","type":"address"},{"indexed":false,"name":"value","type":"uint256"}],"name":"Approval","type":"event"}],"bytecode":{"object":"60806040523480156200001157600080fd5b50620000263364010000000062000056810204565b6004805460ff1916905562000050336a084595161401484a000000640100000000620000a8810204565b62000214565b6200007160038264010000000062000c5e6200016782021704565b604051600160a060020a038216907f6719d08c1888103bea251a4ed56406bd0c3e69723c8a1686e017e7bbe159b6f890600090a250565b600160a060020a0382161515620000be57600080fd5b600254620000db908264010000000062000c00620001c282021704565b600255600160a060020a03821660009081526020819052604090205462000111908264010000000062000c00620001c282021704565b600160a060020a0383166000818152602081815260408083209490945583518581529351929391927fddf252ad1be2c89b69c2b068fc378daa952ba7f163c4a11628f55a4df523b3ef9281900390910190a35050565b600160a060020a03811615156200017d57600080fd5b620001928282640100000000620001dc810204565b156200019d57600080fd5b600160a060020a0316600090815260209190915260409020805460ff19166001179055565b600082820183811015620001d557600080fd5b9392505050565b6000600160a060020a0382161515620001f457600080fd5b50600160a060020a03166000908152602091909152604090205460ff1690565b610cd880620002246000396000f3006080604052600436106101115763ffffffff7c010000000000000000000000000000000000000000000000000000000060003504166306fdde038114610116578063095ea7b3146101a057806318160ddd146101d857806323b872dd146101ff5780632ff2e9dc14610229578063313ce5671461023e57806339509351146102695780633f4ba83a1461028d57806342966c68146102a457806346fbf68e146102bc5780635c975abb146102dd5780636ef8d66d146102f257806370a082311461030757806379cc67901461032857806382dc1ec41461034c5780638456cb591461036d57806395d89b4114610382578063a457c2d714610397578063a9059cbb146103bb578063dd62ed3e146103df575b600080fd5b34801561012257600080fd5b5061012b610406565b6040805160208082528351818301528351919283929083019185019080838360005b8381101561016557818101518382015260200161014d565b50505050905090810190601f1680156101925780820380516001836020036101000a031916815260200191505b509250505060405180910390f35b3480156101ac57600080fd5b506101c4600160a060020a036004351660243561043d565b604080519115158252519081900360200190f35b3480156101e457600080fd5b506101ed610461565b60408051918252519081900360200190f35b34801561020b57600080fd5b506101c4600160a060020a0360043581169060243516604435610467565b34801561023557600080fd5b506101ed61048d565b34801561024a57600080fd5b5061025361049c565b6040805160ff9092168252519081900360200190f35b34801561027557600080fd5b506101c4600160a060020a03600435166024356104a1565b34801561029957600080fd5b506102a26104be565b005b3480156102b057600080fd5b506102a2600435610522565b3480156102c857600080fd5b506101c4600160a060020a036004351661052f565b3480156102e957600080fd5b506101c4610548565b3480156102fe57600080fd5b506102a2610551565b34801561031357600080fd5b506101ed600160a060020a036004351661055c565b34801561033457600080fd5b506102a2600160a060020a0360043516602435610577565b34801561035857600080fd5b506102a2600160a060020a0360043516610585565b34801561037957600080fd5b506102a26105a2565b34801561038e57600080fd5b5061012b610608565b3480156103a357600080fd5b506101c4600160a060020a036004351660243561063f565b3480156103c757600080fd5b506101c4600160a060020a036004351660243561065c565b3480156103eb57600080fd5b506101ed600160a060020a0360043581169060243516610679565b60408051808201909152600c81527f44696e6173747920636f696e0000000000000000000000000000000000000000602082015281565b60045460009060ff161561045057600080fd5b61045a83836106a4565b9392505050565b60025490565b60045460009060ff161561047a57600080fd5b610485848484610722565b949350505050565b6a084595161401484a00000081565b601281565b60045460009060ff16156104b457600080fd5b61045a83836107bf565b6104c73361052f565b15156104d257600080fd5b60045460ff1615156104e357600080fd5b6004805460ff191690556040805133815290517f5db9ee0a495bf2e6ff9c91a7834c1ba4fdd244a5e8aa4e537bd38aeae4b073aa9181900360200190a1565b61052c338261086f565b50565b600061054260038363ffffffff61093d16565b92915050565b60045460ff1690565b61055a33610974565b565b600160a060020a031660009081526020819052604090205490565b61058182826109bc565b5050565b61058e3361052f565b151561059957600080fd5b61052c81610a4e565b6105ab3361052f565b15156105b657600080fd5b60045460ff16156105c657600080fd5b6004805460ff191660011790556040805133815290517f62e78cea01bee320cd4e420270b5ea74000d11b0c9f74754ebdbfc544b05a2589181900360200190a1565b60408051808201909152600281527f4443000000000000000000000000000000000000000000000000000000000000602082015281565b60045460009060ff161561065257600080fd5b61045a8383610a96565b60045460009060ff161561066f57600080fd5b61045a8383610ae1565b600160a060020a03918216600090815260016020908152604080832093909416825291909152205490565b6000600160a060020a03831615156106bb57600080fd5b336000818152600160209081526040808320600160a060020a03881680855290835292819020869055805186815290519293927f8c5be1e5ebec7d5bd14f71427d1e84f3dd0314c0f7b2291e5b200ac8c7c3b925929181900390910190a350600192915050565b600160a060020a038316600090815260016020908152604080832033845290915281205482111561075257600080fd5b600160a060020a0384166000908152600160209081526040808320338452909152902054610786908363ffffffff610af716565b600160a060020a03851660009081526001602090815260408083203384529091529020556107b5848484610b0e565b5060019392505050565b6000600160a060020a03831615156107d657600080fd5b336000908152600160209081526040808320600160a060020a038716845290915290205461080a908363ffffffff610c0016565b336000818152600160209081526040808320600160a060020a0389168085529083529281902085905580519485525191937f8c5be1e5ebec7d5bd14f71427d1e84f3dd0314c0f7b2291e5b200ac8c7c3b925929081900390910190a350600192915050565b600160a060020a038216151561088457600080fd5b600160a060020a0382166000908152602081905260409020548111156108a957600080fd5b6002546108bc908263ffffffff610af716565b600255600160a060020a0382166000908152602081905260409020546108e8908263ffffffff610af716565b600160a060020a038316600081815260208181526040808320949094558351858152935191937fddf252ad1be2c89b69c2b068fc378daa952ba7f163c4a11628f55a4df523b3ef929081900390910190a35050565b6000600160a060020a038216151561095457600080fd5b50600160a060020a03166000908152602091909152604090205460ff1690565b61098560038263ffffffff610c1216565b604051600160a060020a038216907fcd265ebaf09df2871cc7bd4133404a235ba12eff2041bb89d9c714a2621c7c7e90600090a250565b600160a060020a03821660009081526001602090815260408083203384529091529020548111156109ec57600080fd5b600160a060020a0382166000908152600160209081526040808320338452909152902054610a20908263ffffffff610af716565b600160a060020a0383166000908152600160209081526040808320338452909152902055610581828261086f565b610a5f60038263ffffffff610c5e16565b604051600160a060020a038216907f6719d08c1888103bea251a4ed56406bd0c3e69723c8a1686e017e7bbe159b6f890600090a250565b6000600160a060020a0383161515610aad57600080fd5b336000908152600160209081526040808320600160a060020a038716845290915290205461080a908363ffffffff610af716565b6000610aee338484610b0e565b50600192915050565b60008083831115610b0757600080fd5b5050900390565b600160a060020a038316600090815260208190526040902054811115610b3357600080fd5b600160a060020a0382161515610b4857600080fd5b600160a060020a038316600090815260208190526040902054610b71908263ffffffff610af716565b600160a060020a038085166000908152602081905260408082209390935590841681522054610ba6908263ffffffff610c0016565b600160a060020a038084166000818152602081815260409182902094909455805185815290519193928716927fddf252ad1be2c89b69c2b068fc378daa952ba7f163c4a11628f55a4df523b3ef92918290030190a3505050565b60008282018381101561045a57600080fd5b600160a060020a0381161515610c2757600080fd5b610c31828261093d565b1515610c3c57600080fd5b600160a060020a0316600090815260209190915260409020805460ff19169055565b600160a060020a0381161515610c7357600080fd5b610c7d828261093d565b15610c8757600080fd5b600160a060020a0316600090815260209190915260409020805460ff191660011790555600a165627a7a72305820db92af10f2028e1529a0d8327c2bab5fc1a77a36340cd652c09ac1dea1b075390029"}}