{
  "opcodeHash": "0xb6967fa92247a3055b7528013b988e4005bb7e67882775558c37946ab970f86b",
  "metalessHash": "0xdea385deb4c0994a050a8974192ece8864761703a24e4ee69838b139f5e16275",
  "runtimeHash": "0xe1caadc38e980914dd2ef559e0e369ccfbdf55830f69c85285c6ae4fde022971",
  "encodedMetadata": [
    {
      "ipfs": "/ipfs/QmRpxe4wQgmKjgiEY1LZa8n3YMXYET7kJF6ckC2A9PdwFD",
      "solc": "0.6.4"
    }
  ],
  "abi": [
    {
      "anonymous": false,
      "inputs": [
        {
          "indexed": true,
          "internalType": "uint256",
          "name": "executionId",
          "type": "uint256"
        },
        {
          "indexed": false,
          "internalType": "uint256",
          "name": "rate",
          "type": "uint256"
        },
        {
          "indexed": false,
          "internalType": "uint256",
          "name": "totalBalance",
          "type": "uint256"
        },
        {
          "indexed": false,
          "internalType": "uint256",
          "name": "totalRedeemed",
          "type": "uint256"
        },
        {
          "indexed": false,
          "internalType": "uint256",
          "name": "fee",
          "type": "uint256"
        },
        {
          "indexed": false,
          "internalType": "uint256",
          "name": "totalBought",
          "type": "uint256"
        },
        {
          "indexed": false,
          "internalType": "uint256",
          "name": "totalAucBurned",
          "type": "uint256"
        }
      ],
      "name": "CompoundRedeem",
      "type": "event"
    },
    {
      "anonymous": false,
      "inputs": [
        {
          "indexed": true,
          "internalType": "address",
          "name": "user",
          "type": "address"
        },
        {
          "indexed": false,
          "internalType": "uint256",
          "name": "amount",
          "type": "uint256"
        },
        {
          "indexed": false,
          "internalType": "uint256",
          "name": "rate",
          "type": "uint256"
        },
        {
          "indexed": false,
          "internalType": "uint256",
          "name": "baseExecutionId",
          "type": "uint256"
        },
        {
          "indexed": false,
          "internalType": "uint256",
          "name": "baseExecutionAmountForFee",
          "type": "uint256"
        }
      ],
      "name": "Deposit",
      "type": "event"
    },
    {
      "anonymous": false,
      "inputs": [
        {
          "indexed": true,
          "internalType": "address",
          "name": "user",
          "type": "address"
        },
        {
          "indexed": false,
          "internalType": "uint256",
          "name": "totalRedeemed",
          "type": "uint256"
        },
        {
          "indexed": false,
          "internalType": "uint256",
          "name": "yield",
          "type": "uint256"
        },
        {
          "indexed": false,
          "internalType": "uint256",
          "name": "fee",
          "type": "uint256"
        },
        {
          "indexed": false,
          "internalType": "uint256",
          "name": "totalAucBurned",
          "type": "uint256"
        }
      ],
      "name": "Finish",
      "type": "event"
    },
    {
      "anonymous": false,
      "inputs": [
        {
          "indexed": true,
          "internalType": "address",
          "name": "user",
          "type": "address"
        },
        {
          "indexed": false,
          "internalType": "uint256",
          "name": "amount",
          "type": "uint256"
        }
      ],
      "name": "Redeem",
      "type": "event"
    },
    {
      "anonymous": false,
      "inputs": [
        {
          "indexed": false,
          "internalType": "uint256",
          "name": "newTime",
          "type": "uint256"
        },
        {
          "indexed": false,
          "internalType": "uint256",
          "name": "oldTime",
          "type": "uint256"
        }
      ],
      "name": "SetMinimumTimeBetweenExecutions",
      "type": "event"
    },
    {
      "anonymous": false,
      "inputs": [
        {
          "indexed": true,
          "internalType": "address",
          "name": "newAdmin",
          "type": "address"
        },
        {
          "indexed": false,
          "internalType": "address",
          "name": "oldAdmin",
          "type": "address"
        }
      ],
      "name": "SetProxyAdmin",
      "type": "event"
    },
    {
      "anonymous": false,
      "inputs": [
        {
          "indexed": true,
          "internalType": "address",
          "name": "newImplementation",
          "type": "address"
        },
        {
          "indexed": false,
          "internalType": "address",
          "name": "oldImplementation",
          "type": "address"
        }
      ],
      "name": "SetProxyImplementation",
      "type": "event"
    },
    {
      "inputs": [
        {
          "internalType": "address",
          "name": "user",
          "type": "address"
        }
      ],
      "name": "addEscrow",
      "outputs": [
        {
          "internalType": "bool",
          "name": "",
          "type": "bool"
        }
      ],
      "stateMutability": "nonpayable",
      "type": "function"
    },
    {
      "inputs": [],
      "name": "admin",
      "outputs": [
        {
          "internalType": "address",
          "name": "",
          "type": "address"
        }
      ],
      "stateMutability": "view",
      "type": "function"
    },
    {
      "inputs": [
        {
          "internalType": "address",
          "name": "user",
          "type": "address"
        },
        {
          "internalType": "uint256",
          "name": "amount",
          "type": "uint256"
        }
      ],
      "name": "deposit",
      "outputs": [],
      "stateMutability": "nonpayable",
      "type": "function"
    },
    {
      "inputs": [],
      "name": "executeCompoundRedeem",
      "outputs": [],
      "stateMutability": "nonpayable",
      "type": "function"
    },
    {
      "inputs": [],
      "name": "executionId",
      "outputs": [
        {
          "internalType": "uint256",
          "name": "",
          "type": "uint256"
        }
      ],
      "stateMutability": "view",
      "type": "function"
    },
    {
      "inputs": [
        {
          "internalType": "uint256",
          "name": "",
          "type": "uint256"
        }
      ],
      "name": "executions",
      "outputs": [
        {
          "internalType": "uint256",
          "name": "time",
          "type": "uint256"
        },
        {
          "internalType": "uint256",
          "name": "rate",
          "type": "uint256"
        },
        {
          "internalType": "uint256",
          "name": "totalDai",
          "type": "uint256"
        },
        {
          "internalType": "uint256",
          "name": "totalRedeemed",
          "type": "uint256"
        },
        {
          "internalType": "uint256",
          "name": "totalBought",
          "type": "uint256"
        },
        {
          "internalType": "uint256",
          "name": "totalBalance",
          "type": "uint256"
        },
        {
          "internalType": "uint256",
          "name": "totalFeeDeduction",
          "type": "uint256"
        },
        {
          "internalType": "uint256",
          "name": "feeAmount",
          "type": "uint256"
        }
      ],
      "stateMutability": "view",
      "type": "function"
    },
    {
      "inputs": [],
      "name": "feeExemptionAmountForAucEscrowed",
      "outputs": [
        {
          "internalType": "uint256",
          "name": "",
          "type": "uint256"
        }
      ],
      "stateMutability": "view",
      "type": "function"
    },
    {
      "inputs": [
        {
          "internalType": "uint256",
          "name": "",
          "type": "uint256"
        }
      ],
      "name": "feeExemptionAmountForUserBaseData",
      "outputs": [
        {
          "internalType": "uint256",
          "name": "",
          "type": "uint256"
        }
      ],
      "stateMutability": "view",
      "type": "function"
    },
    {
      "inputs": [],
      "name": "finish",
      "outputs": [],
      "stateMutability": "nonpayable",
      "type": "function"
    },
    {
      "inputs": [
        {
          "internalType": "address",
          "name": "user",
          "type": "address"
        }
      ],
      "name": "forceFinish",
      "outputs": [],
      "stateMutability": "nonpayable",
      "type": "function"
    },
    {
      "inputs": [
        {
          "internalType": "address",
          "name": "user",
          "type": "address"
        }
      ],
      "name": "forceRedeem",
      "outputs": [],
      "stateMutability": "nonpayable",
      "type": "function"
    },
    {
      "inputs": [],
      "name": "getMinimumTimeForNextExecution",
      "outputs": [
        {
          "internalType": "uint256",
          "name": "",
          "type": "uint256"
        }
      ],
      "stateMutability": "view",
      "type": "function"
    },
    {
      "inputs": [
        {
          "internalType": "address",
          "name": "user",
          "type": "address"
        }
      ],
      "name": "getUserAssetRedeemed",
      "outputs": [
        {
          "internalType": "uint256",
          "name": "",
          "type": "uint256"
        }
      ],
      "stateMutability": "view",
      "type": "function"
    },
    {
      "inputs": [
        {
          "internalType": "address",
          "name": "user",
          "type": "address"
        },
        {
          "internalType": "uint256",
          "name": "time",
          "type": "uint256"
        }
      ],
      "name": "getUserEstimatedCurrentFee",
      "outputs": [
        {
          "internalType": "uint256",
          "name": "",
          "type": "uint256"
        }
      ],
      "stateMutability": "view",
      "type": "function"
    },
    {
      "inputs": [
        {
          "internalType": "address",
          "name": "user",
          "type": "address"
        }
      ],
      "name": "getUserEstimatedCurrentProfitWithoutFee",
      "outputs": [
        {
          "internalType": "uint256",
          "name": "",
          "type": "uint256"
        }
      ],
      "stateMutability": "view",
      "type": "function"
    },
    {
      "inputs": [
        {
          "internalType": "address",
          "name": "user",
          "type": "address"
        }
      ],
      "name": "getUserProfitsAndFeeAmount",
      "outputs": [
        {
          "internalType": "uint256",
          "name": "",
          "type": "uint256"
        },
        {
          "internalType": "uint256",
          "name": "",
          "type": "uint256"
        },
        {
          "internalType": "uint256",
          "name": "",
          "type": "uint256"
        }
      ],
      "stateMutability": "view",
      "type": "function"
    },
    {
      "inputs": [
        {
          "internalType": "address",
          "name": "user",
          "type": "address"
        }
      ],
      "name": "getUserTotalInvested",
      "outputs": [
        {
          "internalType": "uint256",
          "name": "",
          "type": "uint256"
        }
      ],
      "stateMutability": "view",
      "type": "function"
    },
    {
      "inputs": [],
      "name": "implementation",
      "outputs": [
        {
          "internalType": "address",
          "name": "",
          "type": "address"
        }
      ],
      "stateMutability": "view",
      "type": "function"
    },
    {
      "inputs": [
        {
          "internalType": "address",
          "name": "_tokenAddress",
          "type": "address"
        },
        {
          "internalType": "uint256",
          "name": "_minimumTimeBetweenExecutions",
          "type": "uint256"
        }
      ],
      "name": "init",
      "outputs": [],
      "stateMutability": "nonpayable",
      "type": "function"
    },
    {
      "inputs": [],
      "name": "isCompound",
      "outputs": [
        {
          "internalType": "bool",
          "name": "",
          "type": "bool"
        }
      ],
      "stateMutability": "view",
      "type": "function"
    },
    {
      "inputs": [],
      "name": "minimumTimeBetweenExecutions",
      "outputs": [
        {
          "internalType": "uint256",
          "name": "",
          "type": "uint256"
        }
      ],
      "stateMutability": "view",
      "type": "function"
    },
    {
      "inputs": [],
      "name": "redeem",
      "outputs": [],
      "stateMutability": "nonpayable",
      "type": "function"
    },
    {
      "inputs": [
        {
          "internalType": "address[]",
          "name": "users",
          "type": "address[]"
        }
      ],
      "name": "resignAssetForMigration",
      "outputs": [
        {
          "internalType": "uint256",
          "name": "",
          "type": "uint256"
        },
        {
          "internalType": "uint256",
          "name": "",
          "type": "uint256"
        }
      ],
      "stateMutability": "nonpayable",
      "type": "function"
    },
    {
      "inputs": [
        {
          "internalType": "uint256",
          "name": "time",
          "type": "uint256"
        }
      ],
      "name": "setMinimumTimeBetweenExecutions",
      "outputs": [],
      "stateMutability": "nonpayable",
      "type": "function"
    },
    {
      "inputs": [],
      "name": "tokenAddress",
      "outputs": [
        {
          "internalType": "address",
          "name": "",
          "type": "address"
        }
      ],
      "stateMutability": "view",
      "type": "function"
    },
    {
      "inputs": [],
      "name": "totalBalance",
      "outputs": [
        {
          "internalType": "uint256",
          "name": "",
          "type": "uint256"
        }
      ],
      "stateMutability": "view",
      "type": "function"
    },
    {
      "inputs": [
        {
          "internalType": "uint256",
          "name": "",
          "type": "uint256"
        }
      ],
      "name": "totalBalanceNormalizedDifference",
      "outputs": [
        {
          "internalType": "uint256",
          "name": "",
          "type": "uint256"
        }
      ],
      "stateMutability": "view",
      "type": "function"
    },
    {
      "inputs": [
        {
          "internalType": "address",
          "name": "",
          "type": "address"
        }
      ],
      "name": "usersData",
      "outputs": [
        {
          "internalType": "uint256",
          "name": "baseExecutionId",
          "type": "uint256"
        },
        {
          "internalType": "uint256",
          "name": "baseExecutionAvgRate",
          "type": "uint256"
        },
        {
          "internalType": "uint256",
          "name": "baseExecutionAccumulatedAmount",
          "type": "uint256"
        },
        {
          "internalType": "uint256",
          "name": "baseExecutionAccumulatedWeightForRate",
          "type": "uint256"
        },
        {
          "internalType": "uint256",
          "name": "baseExecutionAmountForFee",
          "type": "uint256"
        },
        {
          "internalType": "uint256",
          "name": "currentAllocated",
          "type": "uint256"
        },
        {
          "internalType": "uint256",
          "name": "previousAllocated",
          "type": "uint256"
        },
        {
          "internalType": "uint256",
          "name": "previousProfit",
          "type": "uint256"
        },
        {
          "internalType": "uint256",
          "name": "previousAssetAmount",
          "type": "uint256"
        },
        {
          "internalType": "uint256",
          "name": "previousFeeAmount",
          "type": "uint256"
        },
        {
          "internalType": "uint256",
          "name": "redeemed",
          "type": "uint256"
        }
      ],
      "stateMutability": "view",
      "type": "function"
    },
    {
      "stateMutability": "payable",
      "type": "receive"
    }
  ],
  "bytecode": {
    "object": "608060405234801561001057600080fd5b506139e5806100206000396000f3fe6080604052600436106101bb5760003560e01c80637bf9ebe9116100ec578063bf6ce8a71161008a578063cdf96dd911610064578063cdf96dd914610675578063d56b2889146106a8578063f76c9229146106bd578063f851a44014610728576101c2565b8063bf6ce8a7146105dc578063c0c3f8901461060f578063cc224d4414610642576101c2565b80639d76ea58116100c65780639d76ea5814610507578063ab52dbba1461051c578063ad7a672f146105b2578063be040fb0146105c7576101c2565b80637bf9ebe91461047757806381c8335b146104c85780638c521693146104dd576101c2565b806347e7ef24116101595780635b89c2ac116101335780635b89c2ac146104075780635c60da1b1461041c5780635c7c6a921461044d57806376ce2dad14610462576101c2565b806347e7ef241461037a5780634885fe11146103b35780634cfa24a3146103dd576101c2565b806317c65e121161019557806317c65e12146102b257806319cf3ff6146102e55780631dc7a31414610318578063399ae72414610341576101c2565b80630560ab69146101c75780630f06c47814610250578063137791f81461029b576101c2565b366101c257005b600080fd5b3480156101d357600080fd5b506101fa600480360360208110156101ea57600080fd5b50356001600160a01b031661073d565b604080519b8c5260208c019a909a528a8a019890985260608a0196909652608089019490945260a088019290925260c087015260e086015261010085015261012084015261014083015251908190036101600190f35b34801561025c57600080fd5b506102896004803603604081101561027357600080fd5b506001600160a01b038135169060200135610797565b60408051918252519081900360200190f35b3480156102a757600080fd5b506102b0610993565b005b3480156102be57600080fd5b506102b0600480360360208110156102d557600080fd5b50356001600160a01b0316610f07565b3480156102f157600080fd5b506102b06004803603602081101561030857600080fd5b50356001600160a01b031661100d565b34801561032457600080fd5b5061032d611085565b604080519115158252519081900360200190f35b34801561034d57600080fd5b506102b06004803603604081101561036457600080fd5b506001600160a01b03813516906020013561108e565b34801561038657600080fd5b506102b06004803603604081101561039d57600080fd5b506001600160a01b0381351690602001356112a5565b3480156103bf57600080fd5b506102b0600480360360208110156103d657600080fd5b50356118cd565b3480156103e957600080fd5b506102896004803603602081101561040057600080fd5b503561192b565b34801561041357600080fd5b5061028961193d565b34801561042857600080fd5b50610431611943565b604080516001600160a01b039092168252519081900360200190f35b34801561045957600080fd5b50610289611952565b34801561046e57600080fd5b50610289611958565b34801561048357600080fd5b506104aa6004803603602081101561049a57600080fd5b50356001600160a01b031661195e565b60408051938452602084019290925282820152519081900360600190f35b3480156104d457600080fd5b50610289611a06565b3480156104e957600080fd5b506102896004803603602081101561050057600080fd5b5035611a31565b34801561051357600080fd5b50610431611a43565b34801561052857600080fd5b506105996004803603602081101561053f57600080fd5b81019060208101813564010000000081111561055a57600080fd5b82018360208201111561056c57600080fd5b8035906020019184602083028401116401000000008311171561058e57600080fd5b509092509050611a52565b6040805192835260208301919091528051918290030190f35b3480156105be57600080fd5b50610289611fc0565b3480156105d357600080fd5b506102b0611fc6565b3480156105e857600080fd5b50610289600480360360208110156105ff57600080fd5b50356001600160a01b0316612081565b34801561061b57600080fd5b506102896004803603602081101561063257600080fd5b50356001600160a01b03166120a3565b34801561064e57600080fd5b5061032d6004803603602081101561066557600080fd5b50356001600160a01b03166120c1565b34801561068157600080fd5b506102896004803603602081101561069857600080fd5b50356001600160a01b03166121ca565b3480156106b457600080fd5b506102b0612453565b3480156106c957600080fd5b506106e7600480360360208110156106e057600080fd5b50356124b5565b604080519889526020890197909752878701959095526060870193909352608086019190915260a085015260c084015260e083015251908190036101000190f35b34801561073457600080fd5b506104316124f8565b600b60205280600052604060002060009150905080600001549080600101549080600201549080600301549080600401549080600501549080600601549080600701549080600801549080600901549080600a015490508b565b6001600160a01b0382166000908152600b602052604081206005810154156109875760015460408051634e66b85360e01b81526001600160a01b03878116600483015291516000939290921691634e66b85391602480820192602092909190829003018186803b15801561080a57600080fd5b505afa15801561081e573d6000803e3d6000fd5b505050506040513d602081101561083457600080fd5b5051905080158061084457508381115b15610985576004546000908152600a6020526040902080548511156109835760015460408051631895238360e01b815290516000926001600160a01b0316916318952383916004808301926020929190829003018186803b1580156108a857600080fd5b505afa1580156108bc573d6000803e3d6000fd5b505050506040513d60208110156108d257600080fd5b505160015483549192506000916001600160a01b03909116906323b2fb6790610902908a9063ffffffff61250716565b6040518263ffffffff1660e01b81526004018082815260200191505060206040518083038186803b15801561093657600080fd5b505afa15801561094a573d6000803e3d6000fd5b505050506040513d602081101561096057600080fd5b505160045486549192506109779114828488612550565b9550505050505061098d565b505b505b60009150505b92915050565b600154600160a01b900460ff166109df576040805162461bcd60e51b81526020600482015260196024820152600080516020613990833981519152604482015290519081900360640190fd5b6001805460ff60a01b191690556109f4611a06565b421015610a325760405162461bcd60e51b815260040180806020018281038252603e8152602001806138d8603e913960400191505060405180910390fd5b600480546000908152600a602090815260408083206001548251637b4f102360e11b8152925191956001600160a01b039091169363f69e20469380830193919290829003018186803b158015610a8757600080fd5b505afa158015610a9b573d6000803e3d6000fd5b505050506040513d6020811015610ab157600080fd5b505160055490915060009081908190819015610cd157600654600454600101600090815260096020526040902054610aee9163ffffffff61259e16565b91506000610b078360055461250790919063ffffffff16565b90508015610c275760015460408051631895238360e01b81529051610c24926001600160a01b0316916318952383916004808301926020929190829003018186803b158015610b5557600080fd5b505afa158015610b69573d6000803e3d6000fd5b505050506040513d6020811015610b7f57600080fd5b50516001548954610c18916001600160a01b0316906323b2fb6790610bab90429063ffffffff61250716565b6040518263ffffffff1660e01b81526004018082815260200191505060206040518083038186803b158015610bdf57600080fd5b505afa158015610bf3573d6000803e3d6000fd5b505050506040513d6020811015610c0957600080fd5b5051849063ffffffff6125f816565b9063ffffffff61265116565b94505b60408051633af9e66960e01b815230600482015290516001600160a01b03881691633af9e6699160248083019260209291908290030181600087803b158015610c6f57600080fd5b505af1158015610c83573d6000803e3d6000fd5b505050506040513d6020811015610c9957600080fd5b5051600554909250610cb290839063ffffffff61250716565b935083851115610cc0578394505b60075460ff1615610ccf578493505b505b60008315610d6357856001600160a01b031663852a12e3856040518263ffffffff1660e01b815260040180828152602001915050602060405180830381600087803b158015610d1f57600080fd5b505af1158015610d33573d6000803e3d6000fd5b505050506040513d6020811015610d4957600080fd5b505115610d5257fe5b610d5c8288612693565b9050610d6a565b5060018601545b60046000815480929190600101919050555060405180610100016040528042815260200182815260200183815260200185815260200160008152602001600554815260200184815260200186815250600a60006004548152602001908152602001600020600082015181600001556020820151816001015560408201518160020155606082015181600301556080820151816004015560a0820151816005015560c0820151816006015560e0820151816007015590505060008090506000861115610e3b57610e3886612733565b90505b6000610e4d868863ffffffff61250716565b6004546000908152600a602052604090209091508115610e8457600254610e7e9083906001600160a01b031661286d565b60048201555b60048054600554918301546040805188815260208101949094528381018b9052606084018c9052608084019190915260a083018690525190917f5b60a66f83b2a5d38f756162682c5b2cb62350d695d99f01d667b27d0050f66d919081900360c00190a250506001805460ff60a01b1916600160a01b1790555050505050505050565b600154600160a01b900460ff16610f53576040805162461bcd60e51b81526020600482015260196024820152600080516020613990833981519152604482015290519081900360640190fd5b6001805460ff60a01b1981169091556001600160a01b03163314610f7657600080fd5b60015460408051634e66b85360e01b81526001600160a01b0380851660048301529151610ff79385931691634e66b853916024808301926020929190829003018186803b158015610fc657600080fd5b505afa158015610fda573d6000803e3d6000fd5b505050506040513d6020811015610ff057600080fd5b5051612b23565b506001805460ff60a01b1916600160a01b179055565b600154600160a01b900460ff16611059576040805162461bcd60e51b81526020600482015260196024820152600080516020613990833981519152604482015290519081900360640190fd5b6001805460ff60a01b1981169091556001600160a01b0316331461107c57600080fd5b610ff781612cf4565b60075460ff1681565b60035415801561109e5750600454155b80156110aa5750600554155b80156110bf57506002546001600160a01b0316155b6110c557fe5b600280546001600160a01b0319166001600160a01b0384811691909117909155600382905560015460408051637b4f102360e11b81529051600093929092169163f69e204691600480820192602092909190829003018186803b15801561112b57600080fd5b505afa15801561113f573d6000803e3d6000fd5b505050506040513d602081101561115557600080fd5b50516007805460ff19166001600160a01b038681168185161491909117909155600060058190556006819055600490815560408051610100810182524281526001548251631895238360e01b815292519596509094602086810195929092169363189523839380820193929190829003018186803b1580156111d657600080fd5b505afa1580156111ea573d6000803e3d6000fd5b505050506040513d602081101561120057600080fd5b505181526000602082810182905260408084018390526060808501849052608080860185905260a080870186905260c0968701869052600480548752600a86529584902088518155948801516001808701919091559388015160028601559187015160038501558601519383019390935591840151600582015591830151600683015560e090920151600790910155805460ff60a01b1916600160a01b179055505050565b600154600160a01b900460ff166112f1576040805162461bcd60e51b81526020600482015260196024820152600080516020613990833981519152604482015290519081900360640190fd5b6001805460ff60a01b1981169091556001600160a01b0316331461131457600080fd5b60015460408051631895238360e01b815290516000926001600160a01b0316916318952383916004808301926020929190829003018186803b15801561135957600080fd5b505afa15801561136d573d6000803e3d6000fd5b505050506040513d602081101561138357600080fd5b505160015460408051634e66b85360e01b81526001600160a01b038781166004830152915193945060009384939290921691634e66b85391602480820192602092909190829003018186803b1580156113db57600080fd5b505afa1580156113ef573d6000803e3d6000fd5b505050506040513d602081101561140557600080fd5b50519050801561141f5761141a600185613214565b611444565b6114288461324f565b9150611444600161143f868563ffffffff61250716565b6133b9565b60015460408051637b4f102360e11b815290516000926001600160a01b03169163f69e2046916004808301926020929190829003018186803b15801561148957600080fd5b505afa15801561149d573d6000803e3d6000fd5b505050506040513d60208110156114b357600080fd5b50516001546040805163f4b9fa7560e01b815290519293506001600160a01b039091169163f4b9fa7591600480820192602092909190829003018186803b1580156114fd57600080fd5b505afa158015611511573d6000803e3d6000fd5b505050506040513d602081101561152757600080fd5b50516040805163095ea7b360e01b81526001600160a01b038481166004830152602482018990529151919092169163095ea7b39160448083019260209291908290030181600087803b15801561157c57600080fd5b505af1158015611590573d6000803e3d6000fd5b505050506040513d60208110156115a657600080fd5b50516115e35760405162461bcd60e51b815260040180806020018281038252602f815260200180613961602f913960400191505060405180910390fd5b6004546000908152600a60205260408120600554909190156116855760408051633af9e66960e01b8152306004820152905161167e916001600160a01b03861691633af9e669916024808201926020929091908290030181600087803b15801561164c57600080fd5b505af1158015611660573d6000803e3d6000fd5b505050506040513d602081101561167657600080fd5b505183612693565b905061168c565b5060018101545b826001600160a01b031663a0712d68886040518263ffffffff1660e01b815260040180828152602001915050602060405180830381600087803b1580156116d257600080fd5b505af11580156116e6573d6000803e3d6000fd5b505050506040513d60208110156116fc57600080fd5b50511561170557fe5b6001600160a01b0388166000908152600b602052604081209061173283610c188b8b63ffffffff6125f816565b90506000826005015411801561174a57506004548254145b156117c3576004820154611764908863ffffffff61259e16565b6004830155600282015461177e908a63ffffffff61259e16565b60028301556003820154611798908263ffffffff61259e16565b6003830181905560028301546117b99190610c18908b63ffffffff6125f816565b6001830155611812565b60008060006117d28986613432565b600788019290925560088701556009860155505050600582015460068301556004808301889055600283018a905560038301829055600183018490555482555b6005820154611827908a63ffffffff61259e16565b60058084019190915554611841908a63ffffffff61259e16565b60058190555061185860018a8587600101546135f9565b600454604080518b8152602081018690528082019290925260608201899052516001600160a01b038c16917f7162984403f6c73c8639375d45a9187dfd04602231bd8e587c415718b5f7e5f9919081900360800190a250506001805460ff60a01b1916600160a01b1790555050505050505050565b6001546001600160a01b031633146118e457600080fd5b6003805490829055604080518381526020810183905281517f02cdaecda588a94496925494b34a2e5229092cc4a25a39cbdd8f7951bae8deeb929181900390910190a15050565b60096020526000908152604090205481565b60065481565b6000546001600160a01b031681565b60035481565b60045481565b6001600160a01b038082166000818152600b602090815260408083206001548251634e66b85360e01b81526004810196909652915193958695869592946119f89490921692634e66b85392602480840193919291829003018186803b1580156119c657600080fd5b505afa1580156119da573d6000803e3d6000fd5b505050506040513d60208110156119f057600080fd5b505182613432565b935093509350509193909250565b6004546000908152600a602052604081206003548154611a2b9163ffffffff61259e16565b91505090565b60086020526000908152604090205481565b6002546001600160a01b031681565b6001546000908190600160a01b900460ff16611aa3576040805162461bcd60e51b81526020600482015260196024820152600080516020613990833981519152604482015290519081900360640190fd5b6001805460ff60a01b1981169091556001600160a01b03163314611ac657600080fd5b600554600090819015611fa25760015460408051637b4f102360e11b815290516000926001600160a01b03169163f69e2046916004808301926020929190829003018186803b158015611b1857600080fd5b505afa158015611b2c573d6000803e3d6000fd5b505050506040513d6020811015611b4257600080fd5b5051604080516370a0823160e01b815230600482015290519192506001600160a01b038316916370a0823191602480820192602092909190829003018186803b158015611b8e57600080fd5b505afa158015611ba2573d6000803e3d6000fd5b505050506040513d6020811015611bb857600080fd5b50516040805163a9059cbb60e01b81523360048201526024810183905290519194506001600160a01b0383169163a9059cbb916044808201926020929091908290030181600087803b158015611c0d57600080fd5b505af1158015611c21573d6000803e3d6000fd5b505050506040513d6020811015611c3757600080fd5b5051611c4257600080fd5b6002546001600160a01b031615611d5d57600254604080516370a0823160e01b815230600482015290516001600160a01b039092169182916370a08231916024808301926020929190829003018186803b158015611c9f57600080fd5b505afa158015611cb3573d6000803e3d6000fd5b505050506040513d6020811015611cc957600080fd5b505192508215611d57576040805163a9059cbb60e01b81523360048201526024810185905290516001600160a01b0383169163a9059cbb9160448083019260209291908290030181600087803b158015611d2257600080fd5b505af1158015611d36573d6000803e3d6000fd5b505050506040513d6020811015611d4c57600080fd5b5051611d5757600080fd5b50611da9565b4791508115611da957611d6f33613697565b6001600160a01b03166108fc839081150290604051600060405180830381858888f19350505050158015611da7573d6000803e3d6000fd5b505b600060058190556006819055600480546001018082558252600960209081526040808420849055915483526008905281208190555b86811015611e8a576000600b60008a8a85818110611df857fe5b905060200201356001600160a01b03166001600160a01b03166001600160a01b031681526020019081526020016000209050600081600501541115611e81576000808255600182018190556002820181905560038201819055600482018190556005820181905560068201819055600782018190556008820181905560098201819055600a8201555b50600101611dde565b50604051806101000160405280428152602001600160009054906101000a90046001600160a01b03166001600160a01b031663189523836040518163ffffffff1660e01b815260040160206040518083038186803b158015611eeb57600080fd5b505afa158015611eff573d6000803e3d6000fd5b505050506040513d6020811015611f1557600080fd5b505181526000602082810182905260408084018390526060808501849052608080860185905260a080870186905260c0968701869052600480548752600a865295849020885181559488015160018601559287015160028501559086015160038401558501519282019290925590830151600582015590820151600682015560e090910151600790910155505b6001805460ff60a01b1916600160a01b179055909590945092505050565b60055481565b600154600160a01b900460ff16612012576040805162461bcd60e51b81526020600482015260196024820152600080516020613990833981519152604482015290519081900360640190fd5b6001805460ff60a01b19811690915560408051634e66b85360e01b81523360048201819052915161206c936001600160a01b031691634e66b853916024808301926020929190829003018186803b158015610fc657600080fd5b6001805460ff60a01b1916600160a01b179055565b6001600160a01b0381166000908152600b60205260409020600501545b919050565b6001600160a01b03166000908152600b60205260409020600a015490565b600154600090600160a01b900460ff16612110576040805162461bcd60e51b81526020600482015260196024820152600080516020613990833981519152604482015290519081900360640190fd5b6001805460ff60a01b1981169091556001600160a01b0316331461213357600080fd5b6001600160a01b0382166000908152600b602052604090206005810154156121ac5761216460018260050154613214565b600454815414156121a257600061218c8260040154836002015461250790919063ffffffff16565b90506121996000826133b9565b50600060048201555b60019150506121b2565b60009150505b6001805460ff60a01b1916600160a01b179055919050565b6001600160a01b0381166000908152600b602052604081206005810154156124495760015460408051637b4f102360e11b815290516000926001600160a01b03169163f69e2046916004808301926020929190829003018186803b15801561223157600080fd5b505afa158015612245573d6000803e3d6000fd5b505050506040513d602081101561225b57600080fd5b5051600480546000908152600a6020908152604080832081516370a0823160e01b81523095810195909552905194955093919261237a9261237492670de0b6b3a764000092610c18926001600160a01b038a16926370a082319260248082019391829003018186803b1580156122d057600080fd5b505afa1580156122e4573d6000803e3d6000fd5b505050506040513d60208110156122fa57600080fd5b50516040805163182df0f560e01b815290516001600160a01b038a169163182df0f5916004808301926020929190829003018186803b15801561233c57600080fd5b505afa158015612350573d6000803e3d6000fd5b505050506040513d602081101561236657600080fd5b50519063ffffffff6125f816565b83612693565b60075490915060009060ff161561242f5760015460408051634e66b85360e01b81526001600160a01b038a811660048301529151600093849361241293911691634e66b85391602480820192602092909190829003018186803b1580156123e057600080fd5b505afa1580156123f4573d6000803e3d6000fd5b505050506040513d602081101561240a57600080fd5b505188613432565b925050915061242a818361250790919063ffffffff16565b925050505b61243d60045483838861369a565b9550505050505061209e565b600091505061209e565b600154600160a01b900460ff1661249f576040805162461bcd60e51b81526020600482015260196024820152600080516020613990833981519152604482015290519081900360640190fd5b6001805460ff60a01b1916905561206c33612cf4565b600a602052600090815260409020805460018201546002830154600384015460048501546005860154600687015460079097015495969495939492939192909188565b6001546001600160a01b031681565b600061254983836040518060400160405280601e81526020017f536166654d6174683a207375627472616374696f6e206f766572666c6f770000815250613740565b9392505050565b600080851561257957600483015460068401546125729163ffffffff61259e16565b9050612580565b5060058201545b61259484610c18838863ffffffff6125f816565b9695505050505050565b600082820183811015612549576040805162461bcd60e51b815260206004820152601b60248201527f536166654d6174683a206164646974696f6e206f766572666c6f770000000000604482015290519081900360640190fd5b6000826126075750600061098d565b8282028284828161261457fe5b04146125495760405162461bcd60e51b81526004018080602001828103825260218152602001806139406021913960400191505060405180910390fd5b600061254983836040518060400160405280601a81526020017f536166654d6174683a206469766973696f6e206279207a65726f0000000000008152506137d7565b600754600090819060ff1680156126ae575060008360030154115b156126e5576126e283600301546126d68560050154866002015461250790919063ffffffff16565b9063ffffffff61250716565b90505b60045460010160009081526008602052604090205460055461272b91612715916126d6908563ffffffff61259e16565b6001850154610c1890879063ffffffff6125f816565b949350505050565b600080600160009054906101000a90046001600160a01b03166001600160a01b031663af92a26c6040518163ffffffff1660e01b815260040160206040518083038186803b15801561278457600080fd5b505afa158015612798573d6000803e3d6000fd5b505050506040513d60208110156127ae57600080fd5b5051905060006127be848361286d565b9050816001600160a01b03166342966c68826040518263ffffffff1660e01b815260040180828152602001915050602060405180830381600087803b15801561280657600080fd5b505af115801561281a573d6000803e3d6000fd5b505050506040513d602081101561283057600080fd5b50516125495760405162461bcd60e51b815260040180806020018281038252602881526020018061388a6028913960400191505060405180910390fd5b600080600160009054906101000a90046001600160a01b03166001600160a01b031663d2f7265a6040518163ffffffff1660e01b815260040160206040518083038186803b1580156128be57600080fd5b505afa1580156128d2573d6000803e3d6000fd5b505050506040513d60208110156128e857600080fd5b50516001546040805163f4b9fa7560e01b81529051929350620151804201926001600160a01b039092169163f4b9fa7591600480820192602092909190829003018186803b15801561293957600080fd5b505afa15801561294d573d6000803e3d6000fd5b505050506040513d602081101561296357600080fd5b50516040805163095ea7b360e01b81526001600160a01b038581166004830152602482018990529151919092169163095ea7b39160448083019260209291908290030181600087803b1580156129b857600080fd5b505af11580156129cc573d6000803e3d6000fd5b505050506040513d60208110156129e257600080fd5b5051612a1f5760405162461bcd60e51b81526004018080602001828103825260338152602001806138576033913960400191505060405180910390fd5b6001600160a01b03841615612acc576040805163ddf7e1a760e01b8152600481018790526001602482018190526044820152606481018390526001600160a01b03868116608483015291519184169163ddf7e1a79160a4808201926020929091908290030181600087803b158015612a9657600080fd5b505af1158015612aaa573d6000803e3d6000fd5b505050506040513d6020811015612ac057600080fd5b5051925061098d915050565b604080516395e3c50b60e01b815260048101879052600160248201526044810183905290516001600160a01b038416916395e3c50b9160648083019260209291908290030181600087803b158015612a9657600080fd5b60075460ff16612cf0576001600160a01b0382166000908152600b6020526040812090612b508383613432565b509150508015612ced576000612b7383600a01548361250790919063ffffffff16565b90508015612ceb57600a830154612b90908263ffffffff61259e16565b600a8401556002546001600160a01b031615612c68576002546040805163a9059cbb60e01b81526001600160a01b038881166004830152602482018590529151919092169163a9059cbb9160448083019260209291908290030181600087803b158015612bfc57600080fd5b505af1158015612c10573d6000803e3d6000fd5b505050506040513d6020811015612c2657600080fd5b5051612c635760405162461bcd60e51b81526004018080602001828103825260268152602001806138b26026913960400191505060405180910390fd5b612cab565b612c7185613697565b6001600160a01b03166108fc829081150290604051600060405180830381858888f19350505050158015612ca9573d6000803e3d6000fd5b505b6040805182815290516001600160a01b038716917f222838db2794d11532d940e8dec38ae307ed0b63cd97c233322e221f998767a6919081900360200190a25b505b50505b5050565b6001600160a01b0381166000908152600b60205260409020600581015415612cf05760015460408051634e66b85360e01b81526001600160a01b03858116600483015291516000939290921691634e66b85391602480820192602092909190829003018186803b158015612d6757600080fd5b505afa158015612d7b573d6000803e3d6000fd5b505050506040513d6020811015612d9157600080fd5b50519050612d9f8382612b23565b60015460408051637b4f102360e11b815290516000926001600160a01b03169163f69e2046916004808301926020929190829003018186803b158015612de457600080fd5b505afa158015612df8573d6000803e3d6000fd5b505050506040513d6020811015612e0e57600080fd5b5051600480546000908152600a602090815260408083208151633af9e66960e01b815230958101959095529051949550939192612e72926001600160a01b03871692633af9e669926024808201939182900301818887803b15801561164c57600080fd5b60075490915060009060ff1615612f1057600080612e908789613432565b9250509150612ea8818361250790919063ffffffff16565b600454600101600090815260086020526040902054909350612ed0908463ffffffff61259e16565b6004805460010160009081526008602052604090209190915554612f0790612efa9086868c61369a565b849063ffffffff61259e16565b92505050612f22565b612f1f6004548360008961369a565b90505b6005860154600090612f3a908363ffffffff61259e16565b9050846001600160a01b031663852a12e3826040518263ffffffff1660e01b815260040180828152602001915050602060405180830381600087803b158015612f8257600080fd5b505af1158015612f96573d6000803e3d6000fd5b505050506040513d6020811015612fac57600080fd5b505115612fb557fe5b600160009054906101000a90046001600160a01b03166001600160a01b031663f4b9fa756040518163ffffffff1660e01b815260040160206040518083038186803b15801561300357600080fd5b505afa158015613017573d6000803e3d6000fd5b505050506040513d602081101561302d57600080fd5b50516040805163a9059cbb60e01b81526001600160a01b038b81166004830152602482018590529151919092169163a9059cbb9160448083019260209291908290030181600087803b15801561308257600080fd5b505af1158015613096573d6000803e3d6000fd5b505050506040513d60208110156130ac57600080fd5b50516130e95760405162461bcd60e51b815260040180806020018281038252602a815260200180613916602a913960400191505060405180910390fd5b60058088015490546131009163ffffffff61250716565b600555600454875414156131275761312760008860020154896001015487600101546135f9565b85156131415761313c60008860050154613214565b61316c565b6004548754141561316c5761316c600061143f89600401548a6002015461250790919063ffffffff16565b6000808855600188018190556002880181905560038801819055600488018190556005880181905560068801819055600788018190556008880181905560098801819055600a880181905560408051838152602081018590528082018390526060810192909252516001600160a01b038a16917fe2d3355730bcec47e085f9e5b21d716ee4562116e0ed10e577695c7468910659919081900360800190a25050505050505050565b81156132355760065461322d908263ffffffff61259e16565b600655612cf0565b600654613248908263ffffffff61250716565b6006555050565b60008061325a611a06565b9050428111156133b0576004546000908152600a6020526040812060015481549192916001600160a01b03909116906323b2fb67906132a090869063ffffffff61250716565b6040518263ffffffff1660e01b81526004018082815260200191505060206040518083038186803b1580156132d457600080fd5b505afa1580156132e8573d6000803e3d6000fd5b505050506040513d60208110156132fe57600080fd5b5051905080156133ad576001546000906001600160a01b03166323b2fb6761332c864263ffffffff61250716565b6040518263ffffffff1660e01b81526004018082815260200191505060206040518083038186803b15801561336057600080fd5b505afa158015613374573d6000803e3d6000fd5b505050506040513d602081101561338a57600080fd5b505190506133a282610c18838963ffffffff6125f816565b94505050505061209e565b50505b50600092915050565b8015612cf05760045460010182156133fe576000818152600960205260409020546133ea908363ffffffff61259e16565b60008281526009602052604090205561342d565b60008181526009602052604090205461341d908363ffffffff61250716565b6000828152600960205260409020555b505050565b600080600080846005015411156135e8576007808501546008860154600987015492549192909160009060ff161561347757613474848363ffffffff61250716565b90505b87546001015b60045481116135d8576000818152600a602052604090206003810154156135cf5760006134b3600184038360010154868e61369a565b90506134c5878263ffffffff61259e16565b965060008c15806134d6575082548d115b80156134e6575060008360070154115b1561353e5761351e848d600001546001011484600701546135188660060154876005015461250790919063ffffffff16565b8f612550565b90508181111561352b5750805b61353b868263ffffffff61259e16565b95505b60075460ff161561356c5761356961355c838363ffffffff61250716565b869063ffffffff61259e16565b94505b6004830154156135cc576135c96135bc6135978560070154866003015461250790919063ffffffff16565b6004860154610c18906135b0878763ffffffff61250716565b9063ffffffff6125f816565b889063ffffffff61259e16565b96505b50505b5060010161347d565b5092955090935091506135f29050565b5060009150819050805b9250925092565b600454600101600061362561361885610c18888763ffffffff6125f816565b869063ffffffff61250716565b905085156136605760008281526008602052604090205461364c908263ffffffff61259e16565b60008381526008602052604090205561368f565b60008281526008602052604090205461367f908263ffffffff61250716565b6000838152600860205260409020555b505050505050565b90565b6000848152600a6020526040812082548290871415613710576136c6846002015487866001015461383c565b60068501549091501561370b576137086136fb6136f086600601548861259e90919063ffffffff16565b88856001015461383c565b829063ffffffff61259e16565b90505b612594565b61373561372a85600501548761259e90919063ffffffff16565b87846001015461383c565b979650505050505050565b600081848411156137cf5760405162461bcd60e51b81526004018080602001828103825283818151815260200191508051906020019080838360005b8381101561379457818101518382015260200161377c565b50505050905090810190601f1680156137c15780820380516001836020036101000a031916815260200191505b509250505060405180910390fd5b505050900390565b600081836138265760405162461bcd60e51b815260206004820181815283516024840152835190928392604490910191908501908083836000831561379457818101518382015260200161377c565b50600083858161383257fe5b0495945050505050565b600061272b846126d684610c18838863ffffffff6125f81656fe44506967677941737365743a3a5f6275793a204572726f72206f6e20617070726f766520556e697377617045786368616e676544506967677941737365743a3a5f6275726e4175633a204572726f72206f6e206275726e2041554344506967677941737365743a3a72656465656d3a204572726f72206f6e207472616e7366657244506967677941737365743a3a65786563757465436f6d706f756e6452656465656d3a20496e76616c69642074696d6520666f7220657865637574696f6e44506967677941737365743a3a66696e6973683a204572726f72206f6e207472616e7366657220446169536166654d6174683a206d756c7469706c69636174696f6e206f766572666c6f7744506967677941737365743a3a6465706f7369743a204572726f72206f6e20617070726f766520436f6d706f756e645265656e7472616e637947756172643a3a207265656e74727900000000000000a264697066735822122044d4d0d927368af5fc40b913b72af3998c97ec680f9b4931ceda7bf0aacf6f6264736f6c63430006040033"
  }
}