{"compiler":"v0.8.6+commit.11564f7e","opcodeHash":"0xba2a4c9ff225d8c8bc8f53e5b07297fee421ab678a22f7592eaabb9b846b091e","metalessHash":"0xfb8d458190fed5bab6ea63df772f6243816f0b8b7153f323e939bca5b4685215","runtimeHash":"0xf812a4d0c8f3e2345007eac611c03fd3d57093c2b490de73a4ec2af438dedf62","encodedMetadata":[{"ipfs":"/ipfs/QmNxZM1skGsoXCvXZkkeSSDbNxopsXWNs9DQnEoWAHyL9J","solc":"0.8.6"}],"abi":[{"inputs":[{"internalType":"address","name":"_uniPriceConverter","type":"address"},{"internalType":"uint32","name":"_twapPeriod","type":"uint32"},{"internalType":"uint16","name":"_minObservations","type":"uint16"}],"stateMutability":"nonpayable","type":"constructor"},{"anonymous":false,"inputs":[{"indexed":false,"internalType":"uint16","name":"value","type":"uint16"}],"name":"NewMinObservations","type":"event"},{"anonymous":false,"inputs":[{"indexed":false,"internalType":"uint32","name":"value","type":"uint32"}],"name":"NewTwapPeriod","type":"event"},{"anonymous":false,"inputs":[{"indexed":true,"internalType":"address","name":"value","type":"address"}],"name":"NewUniPriceConverter","type":"event"},{"anonymous":false,"inputs":[{"indexed":true,"internalType":"address","name":"previousOwner","type":"address"},{"indexed":true,"internalType":"address","name":"newOwner","type":"address"}],"name":"OwnershipTransferConfirmed","type":"event"},{"anonymous":false,"inputs":[{"indexed":true,"internalType":"address","name":"previousOwner","type":"address"},{"indexed":true,"internalType":"address","name":"newOwner","type":"address"}],"name":"OwnershipTransferInitiated","type":"event"},{"anonymous":false,"inputs":[{"indexed":true,"internalType":"address","name":"token","type":"address"}],"name":"PoolAdded","type":"event"},{"anonymous":false,"inputs":[{"indexed":true,"internalType":"address","name":"token","type":"address"}],"name":"PoolRemoved","type":"event"},{"inputs":[],"name":"POOL_FEE","outputs":[{"internalType":"uint24","name":"","type":"uint24"}],"stateMutability":"view","type":"function"},{"inputs":[],"name":"RENOUNCE_TIMEOUT","outputs":[{"internalType":"uint256","name":"","type":"uint256"}],"stateMutability":"view","type":"function"},{"inputs":[],"name":"WETH","outputs":[{"internalType":"address","name":"","type":"address"}],"stateMutability":"view","type":"function"},{"inputs":[],"name":"acceptOwnership","outputs":[],"stateMutability":"nonpayable","type":"function"},{"inputs":[],"name":"acceptRenounceOwnership","outputs":[],"stateMutability":"nonpayable","type":"function"},{"inputs":[],"name":"cancelRenounceOwnership","outputs":[],"stateMutability":"nonpayable","type":"function"},{"inputs":[{"internalType":"address","name":"_fromToken","type":"address"},{"internalType":"address","name":"_toToken","type":"address"},{"internalType":"uint256","name":"_amount","type":"uint256"}],"name":"convertTokenValues","outputs":[{"internalType":"uint256","name":"","type":"uint256"}],"stateMutability":"view","type":"function"},{"inputs":[],"name":"initiateRenounceOwnership","outputs":[],"stateMutability":"nonpayable","type":"function"},{"inputs":[],"name":"isOwner","outputs":[{"internalType":"bool","name":"","type":"bool"}],"stateMutability":"view","type":"function"},{"inputs":[],"name":"minObservations","outputs":[{"internalType":"uint16","name":"","type":"uint16"}],"stateMutability":"view","type":"function"},{"inputs":[],"name":"owner","outputs":[{"internalType":"address","name":"","type":"address"}],"stateMutability":"view","type":"function"},{"inputs":[],"name":"pendingOwner","outputs":[{"internalType":"address","name":"","type":"address"}],"stateMutability":"view","type":"function"},{"inputs":[],"name":"renouncedAt","outputs":[{"internalType":"uint256","name":"","type":"uint256"}],"stateMutability":"view","type":"function"},{"inputs":[{"internalType":"uint16","name":"_value","type":"uint16"}],"name":"setMinObservations","outputs":[],"stateMutability":"nonpayable","type":"function"},{"inputs":[{"internalType":"uint32","name":"_value","type":"uint32"}],"name":"setTwapPeriod","outputs":[],"stateMutability":"nonpayable","type":"function"},{"inputs":[{"internalType":"address","name":"_value","type":"address"}],"name":"setUniPriceConverter","outputs":[],"stateMutability":"nonpayable","type":"function"},{"inputs":[{"internalType":"address","name":"_token","type":"address"}],"name":"tokenPrice","outputs":[{"internalType":"uint256","name":"","type":"uint256"}],"stateMutability":"view","type":"function"},{"inputs":[{"internalType":"address","name":"_token","type":"address"}],"name":"tokenSupported","outputs":[{"internalType":"bool","name":"","type":"bool"}],"stateMutability":"view","type":"function"},{"inputs":[{"internalType":"address","name":"_newOwner","type":"address"}],"name":"transferOwnership","outputs":[],"stateMutability":"nonpayable","type":"function"},{"inputs":[],"name":"twapPeriod","outputs":[{"internalType":"uint32","name":"","type":"uint32"}],"stateMutability":"view","type":"function"},{"inputs":[],"name":"uniFactory","outputs":[{"internalType":"contract IUniswapV3Factory","name":"","type":"address"}],"stateMutability":"view","type":"function"},{"inputs":[],"name":"uniPriceConverter","outputs":[{"internalType":"contract IUniswapPriceConverter","name":"","type":"address"}],"stateMutability":"view","type":"function"}],"bytecode":{"object":"60806040523480156200001157600080fd5b50604051620014d4380380620014d4833981016040819052620000349162000317565b600080546001600160a01b0319163390811782556040519091907f646fe5eeb20d96ea45a9caafcb508854a2fb5660885ced7772e12a633c974571908290a36200007e836200009d565b6200008982620001cc565b62000094816200026d565b50505062000384565b620000b26000546001600160a01b0316331490565b620000f35760405162461bcd60e51b81526020600482018190526024820152600080516020620014b483398151915260448201526064015b60405180910390fd5b62000112816001600160a01b03166200031160201b62000d781760201c565b620001735760405162461bcd60e51b815260206004820152602a60248201527f556e697377617056334f7261636c653a205f76616c7565206d75737420626520604482015269184818dbdb9d1c9858dd60b21b6064820152608401620000ea565b60038054600160301b600160d01b03191666010000000000006001600160a01b038416908102919091179091556040517f0c1be0b2d0e453076b8bb6ce5a43299a77c60998b2471f24daaf7d886dd9f95c90600090a250565b620001e16000546001600160a01b0316331490565b6200021e5760405162461bcd60e51b81526020600482018190526024820152600080516020620014b48339815191526044820152606401620000ea565b6003805463ffffffff191663ffffffff83169081179091556040519081527ffa1f92b31b731f678a69ee528dc71a2dcf379376ccd7e3d2c118e2a15c4a28dd906020015b60405180910390a150565b620002826000546001600160a01b0316331490565b620002bf5760405162461bcd60e51b81526020600482018190526024820152600080516020620014b48339815191526044820152606401620000ea565b6003805461ffff60201b191664010000000061ffff8416908102919091179091556040519081527f8e2feba176220d60396be54887d00e4d945ce2f0f1c85b818e818cf5c0b0a2ab9060200162000262565b3b151590565b6000806000606084860312156200032d57600080fd5b83516001600160a01b03811681146200034557600080fd5b602085015190935063ffffffff811681146200036057600080fd5b604085015190925061ffff811681146200037957600080fd5b809150509250925092565b61112080620003946000396000f3fe608060405234801561001057600080fd5b50600436106101425760003560e01c8063b451b812116100b8578063e30c39781161007c578063e30c3978146102ae578063e5e235ad146102c1578063efe1d130146102de578063f2fde38b146102e7578063f6207326146102fa578063f9c95d461461031f57600080fd5b8063b451b8121461025a578063c840580314610262578063ce916e3214610275578063dc6d621414610288578063dd1b9c4a1461029157600080fd5b806379ba50971161010a57806379ba5097146101f65780637b3c3487146101fe57806384ba3f69146102065780638da5cb5b146102195780638f32d59b1461022c578063ad5c46481461023f57600080fd5b8063062143f01461014757806317a67ddc1461016f578063270eaa4d1461019857806370ed68d1146101b957806376771d4b146101c3575b600080fd5b61015a610155366004610d94565b610332565b60405190151581526020015b60405180910390f35b60035461018590640100000000900461ffff1681565b60405161ffff9091168152602001610166565b6101ab6101a6366004610dd5565b6104c0565b604051908152602001610166565b6101c161062a565b005b6101de731f98431c8ad98523631ae4a59f267346ea31f98481565b6040516001600160a01b039091168152602001610166565b6101c16106b3565b6101c161077a565b6101ab610214366004610d94565b610862565b6000546101de906001600160a01b031681565b6000546001600160a01b0316331461015a565b6101de73c02aaa39b223fe8d0a0e5c4f27ead9083c756cc281565b6101c1610a2d565b6101c1610270366004610d94565b610aa9565b6101c1610283366004610e16565b610b99565b6101ab610e1081565b61029a610bb881565b60405162ffffff9091168152602001610166565b6001546101de906001600160a01b031681565b6003546101de90660100000000000090046001600160a01b031681565b6101ab60025481565b6101c16102f5366004610d94565b610c1c565b60035461030a9063ffffffff1681565b60405163ffffffff9091168152602001610166565b6101c161032d366004610ef0565b610d06565b60006001600160a01b03821673c02aaa39b223fe8d0a0e5c4f27ead9083c756cc2141561036157506001919050565b604051630b4c774160e11b81526001600160a01b038316600482015273c02aaa39b223fe8d0a0e5c4f27ead9083c756cc26024820152610bb86044820152600090731f98431c8ad98523631ae4a59f267346ea31f98490631698ee829060640160206040518083038186803b1580156103d957600080fd5b505afa1580156103ed573d6000803e3d6000fd5b505050506040513d601f19601f820116820180604052508101906104119190610db8565b90506001600160a01b03811661042a5750600092915050565b6000816001600160a01b0316633850c7bd6040518163ffffffff1660e01b815260040160e06040518083038186803b15801561046557600080fd5b505afa158015610479573d6000803e3d6000fd5b505050506040513d601f19601f8201168201806040525081019061049d9190610e33565b505060035461ffff64010000000090910481169116101598975050505050505050565b600080846001600160a01b031663313ce5676040518163ffffffff1660e01b815260040160206040518083038186803b1580156104fc57600080fd5b505afa158015610510573d6000803e3d6000fd5b505050506040513d601f19601f820116820180604052508101906105349190610f16565b61053f90600a610fcb565b61054886610862565b61055a90670de0b6b3a7640000611076565b6105649190610f66565b90506000846001600160a01b031663313ce5676040518163ffffffff1660e01b815260040160206040518083038186803b1580156105a157600080fd5b505afa1580156105b5573d6000803e3d6000fd5b505050506040513d601f19601f820116820180604052508101906105d99190610f16565b6105e490600a610fcb565b6105ed86610862565b6105ff90670de0b6b3a7640000611076565b6106099190610f66565b9050806106168386611076565b6106209190610f66565b9695505050505050565b6000546001600160a01b0316331461065d5760405162461bcd60e51b815260040161065490610f31565b60405180910390fd5b600254156106ad5760405162461bcd60e51b815260206004820152601a60248201527f4f776e61626c653a20616c726561647920696e697469617465640000000000006044820152606401610654565b42600255565b6001546001600160a01b031633146107195760405162461bcd60e51b8152602060048201526024808201527f4f776e61626c653a2063616c6c6572206973206e6f742070656e64696e67206f6044820152633bb732b960e11b6064820152608401610654565b6001546040516001600160a01b039091169033907f646fe5eeb20d96ea45a9caafcb508854a2fb5660885ced7772e12a633c97457190600090a360018054600080546001600160a01b03199081166001600160a01b03841617909155169055565b6000546001600160a01b031633146107a45760405162461bcd60e51b815260040161065490610f31565b6000600254116107ef5760405162461bcd60e51b815260206004820152601660248201527513dddb98589b194e881b9bdd081a5b9a5d1a585d195960521b6044820152606401610654565b610e10600254426108009190611095565b116108425760405162461bcd60e51b81526020600482015260126024820152714f776e61626c653a20746f6f206561726c7960701b6044820152606401610654565b600080546001600160a01b03199081168255600180549091169055600255565b600061086d82610332565b6108c55760405162461bcd60e51b8152602060048201526024808201527f556e697377617056334f7261636c653a20746f6b656e206e6f7420737570706f6044820152631c9d195960e21b6064820152608401610654565b6001600160a01b03821673c02aaa39b223fe8d0a0e5c4f27ead9083c756cc214156108f95750670de0b6b3a7640000919050565b600360069054906101000a90046001600160a01b03166001600160a01b0316635b36add483846001600160a01b031663313ce5676040518163ffffffff1660e01b815260040160206040518083038186803b15801561095757600080fd5b505afa15801561096b573d6000803e3d6000fd5b505050506040513d601f19601f8201168201806040525081019061098f9190610f16565b61099a90600a610fcb565b60035460405160e085901b6001600160e01b03191681526001600160a01b039093166004840152602483019190915263ffffffff16604482015260640160206040518083038186803b1580156109ef57600080fd5b505afa158015610a03573d6000803e3d6000fd5b505050506040513d601f19601f82011682018060405250810190610a279190610ed7565b92915050565b6000546001600160a01b03163314610a575760405162461bcd60e51b815260040161065490610f31565b600060025411610aa25760405162461bcd60e51b815260206004820152601660248201527513dddb98589b194e881b9bdd081a5b9a5d1a585d195960521b6044820152606401610654565b6000600255565b6000546001600160a01b03163314610ad35760405162461bcd60e51b815260040161065490610f31565b6001600160a01b0381163b610b3d5760405162461bcd60e51b815260206004820152602a60248201527f556e697377617056334f7261636c653a205f76616c7565206d75737420626520604482015269184818dbdb9d1c9858dd60b21b6064820152608401610654565b600380546601000000000000600160d01b03191666010000000000006001600160a01b038416908102919091179091556040517f0c1be0b2d0e453076b8bb6ce5a43299a77c60998b2471f24daaf7d886dd9f95c90600090a250565b6000546001600160a01b03163314610bc35760405162461bcd60e51b815260040161065490610f31565b6003805465ffff00000000191664010000000061ffff8416908102919091179091556040519081527f8e2feba176220d60396be54887d00e4d945ce2f0f1c85b818e818cf5c0b0a2ab906020015b60405180910390a150565b6000546001600160a01b03163314610c465760405162461bcd60e51b815260040161065490610f31565b6001600160a01b038116610cab5760405162461bcd60e51b815260206004820152602660248201527f4f776e61626c653a206e6577206f776e657220697320746865207a65726f206160448201526564647265737360d01b6064820152608401610654565b600080546040516001600160a01b03808516939216917fb150023a879fd806e3599b6ca8ee3b60f0e360ab3846d128d67ebce1a391639a91a3600180546001600160a01b0319166001600160a01b0392909216919091179055565b6000546001600160a01b03163314610d305760405162461bcd60e51b815260040161065490610f31565b6003805463ffffffff191663ffffffff83169081179091556040519081527ffa1f92b31b731f678a69ee528dc71a2dcf379376ccd7e3d2c118e2a15c4a28dd90602001610c11565b3b151590565b805160ff81168114610d8f57600080fd5b919050565b600060208284031215610da657600080fd5b8135610db1816110c2565b9392505050565b600060208284031215610dca57600080fd5b8151610db1816110c2565b600080600060608486031215610dea57600080fd5b8335610df5816110c2565b92506020840135610e05816110c2565b929592945050506040919091013590565b600060208284031215610e2857600080fd5b8135610db1816110da565b600080600080600080600060e0888a031215610e4e57600080fd5b8751610e59816110c2565b8097505060208801518060020b8114610e7157600080fd5b6040890151909650610e82816110da565b6060890151909550610e93816110da565b6080890151909450610ea4816110da565b9250610eb260a08901610d7e565b915060c08801518015158114610ec757600080fd5b8091505092959891949750929550565b600060208284031215610ee957600080fd5b5051919050565b600060208284031215610f0257600080fd5b813563ffffffff81168114610db157600080fd5b600060208284031215610f2857600080fd5b610db182610d7e565b6020808252818101527f4f776e61626c653a2063616c6c6572206973206e6f7420746865206f776e6572604082015260600190565b600082610f8357634e487b7160e01b600052601260045260246000fd5b500490565b600181815b80851115610fc3578160001904821115610fa957610fa96110ac565b80851615610fb657918102915b93841c9390800290610f8d565b509250929050565b6000610db160ff841683600082610fe457506001610a27565b81610ff157506000610a27565b816001811461100757600281146110115761102d565b6001915050610a27565b60ff841115611022576110226110ac565b50506001821b610a27565b5060208310610133831016604e8410600b8410161715611050575081810a610a27565b61105a8383610f88565b806000190482111561106e5761106e6110ac565b029392505050565b6000816000190483118215151615611090576110906110ac565b500290565b6000828210156110a7576110a76110ac565b500390565b634e487b7160e01b600052601160045260246000fd5b6001600160a01b03811681146110d757600080fd5b50565b61ffff811681146110d757600080fdfea2646970667358221220878b479e791a3f5022f494a3b2893de96ec6830ee9c9722633a6b1d9b95799c964736f6c634300080600334f776e61626c653a2063616c6c6572206973206e6f7420746865206f776e6572"}}