{
  "opcodeHash": "0xda502f63ab09417782e9707640679f50103549bb34538fea3619670c9f8d5f10",
  "metalessHash": "0x5b0d11648df22b9694425ee8d5e02f1d2e190f51a29e0decb5259a9a8cf1e13a",
  "runtimeHash": "0x8153aa8ba20111da756dec5ea8385484f79dc9db763745705dca5912116a45a0",
  "encodedMetadata": [
    {
      "ipfs": "/ipfs/QmNeEEZtSYKEQRMFg3J14oT8i9pXNj1MBDThoWioB7mqSR",
      "solc": "0.8.10"
    }
  ],
  "abi": [
    {
      "inputs": [],
      "stateMutability": "nonpayable",
      "type": "constructor"
    },
    {
      "anonymous": false,
      "inputs": [
        {
          "indexed": true,
          "internalType": "address",
          "name": "owner",
          "type": "address"
        },
        {
          "indexed": true,
          "internalType": "address",
          "name": "spender",
          "type": "address"
        },
        {
          "indexed": false,
          "internalType": "uint256",
          "name": "value",
          "type": "uint256"
        }
      ],
      "name": "Approval",
      "type": "event"
    },
    {
      "anonymous": false,
      "inputs": [
        {
          "indexed": true,
          "internalType": "address",
          "name": "previousOwner",
          "type": "address"
        },
        {
          "indexed": true,
          "internalType": "address",
          "name": "newOwner",
          "type": "address"
        }
      ],
      "name": "OwnershipTransferred",
      "type": "event"
    },
    {
      "anonymous": false,
      "inputs": [
        {
          "indexed": true,
          "internalType": "address",
          "name": "from",
          "type": "address"
        },
        {
          "indexed": true,
          "internalType": "address",
          "name": "to",
          "type": "address"
        },
        {
          "indexed": false,
          "internalType": "uint256",
          "name": "value",
          "type": "uint256"
        }
      ],
      "name": "Transfer",
      "type": "event"
    },
    {
      "inputs": [],
      "name": "addLiquidity",
      "outputs": [],
      "stateMutability": "nonpayable",
      "type": "function"
    },
    {
      "inputs": [
        {
          "internalType": "address",
          "name": "buyer",
          "type": "address"
        }
      ],
      "name": "addToWhitelist",
      "outputs": [],
      "stateMutability": "nonpayable",
      "type": "function"
    },
    {
      "inputs": [
        {
          "internalType": "address",
          "name": "owner",
          "type": "address"
        },
        {
          "internalType": "address",
          "name": "spender",
          "type": "address"
        }
      ],
      "name": "allowance",
      "outputs": [
        {
          "internalType": "uint256",
          "name": "",
          "type": "uint256"
        }
      ],
      "stateMutability": "view",
      "type": "function"
    },
    {
      "inputs": [
        {
          "internalType": "address",
          "name": "spender",
          "type": "address"
        },
        {
          "internalType": "uint256",
          "name": "amount",
          "type": "uint256"
        }
      ],
      "name": "approve",
      "outputs": [
        {
          "internalType": "bool",
          "name": "",
          "type": "bool"
        }
      ],
      "stateMutability": "nonpayable",
      "type": "function"
    },
    {
      "inputs": [
        {
          "internalType": "address",
          "name": "account",
          "type": "address"
        }
      ],
      "name": "balanceOf",
      "outputs": [
        {
          "internalType": "uint256",
          "name": "",
          "type": "uint256"
        }
      ],
      "stateMutability": "view",
      "type": "function"
    },
    {
      "inputs": [],
      "name": "collectTax",
      "outputs": [],
      "stateMutability": "nonpayable",
      "type": "function"
    },
    {
      "inputs": [],
      "name": "createUniswapPair",
      "outputs": [],
      "stateMutability": "nonpayable",
      "type": "function"
    },
    {
      "inputs": [],
      "name": "decimals",
      "outputs": [
        {
          "internalType": "uint8",
          "name": "",
          "type": "uint8"
        }
      ],
      "stateMutability": "pure",
      "type": "function"
    },
    {
      "inputs": [],
      "name": "name",
      "outputs": [
        {
          "internalType": "string",
          "name": "",
          "type": "string"
        }
      ],
      "stateMutability": "pure",
      "type": "function"
    },
    {
      "inputs": [],
      "name": "owner",
      "outputs": [
        {
          "internalType": "address",
          "name": "",
          "type": "address"
        }
      ],
      "stateMutability": "view",
      "type": "function"
    },
    {
      "inputs": [
        {
          "internalType": "uint256",
          "name": "newTaxRate",
          "type": "uint256"
        }
      ],
      "name": "reduceTax",
      "outputs": [],
      "stateMutability": "nonpayable",
      "type": "function"
    },
    {
      "inputs": [],
      "name": "removeBuyLimit",
      "outputs": [],
      "stateMutability": "nonpayable",
      "type": "function"
    },
    {
      "inputs": [
        {
          "internalType": "address",
          "name": "buyer",
          "type": "address"
        }
      ],
      "name": "removeFromWhitelist",
      "outputs": [],
      "stateMutability": "nonpayable",
      "type": "function"
    },
    {
      "inputs": [],
      "name": "renounceOwnership",
      "outputs": [],
      "stateMutability": "nonpayable",
      "type": "function"
    },
    {
      "inputs": [],
      "name": "swapForTax",
      "outputs": [],
      "stateMutability": "nonpayable",
      "type": "function"
    },
    {
      "inputs": [],
      "name": "symbol",
      "outputs": [
        {
          "internalType": "string",
          "name": "",
          "type": "string"
        }
      ],
      "stateMutability": "pure",
      "type": "function"
    },
    {
      "inputs": [],
      "name": "totalSupply",
      "outputs": [
        {
          "internalType": "uint256",
          "name": "",
          "type": "uint256"
        }
      ],
      "stateMutability": "view",
      "type": "function"
    },
    {
      "inputs": [
        {
          "internalType": "address",
          "name": "recipient",
          "type": "address"
        },
        {
          "internalType": "uint256",
          "name": "amount",
          "type": "uint256"
        }
      ],
      "name": "transfer",
      "outputs": [
        {
          "internalType": "bool",
          "name": "",
          "type": "bool"
        }
      ],
      "stateMutability": "nonpayable",
      "type": "function"
    },
    {
      "inputs": [
        {
          "internalType": "address",
          "name": "sender",
          "type": "address"
        },
        {
          "internalType": "address",
          "name": "recipient",
          "type": "address"
        },
        {
          "internalType": "uint256",
          "name": "amount",
          "type": "uint256"
        }
      ],
      "name": "transferFrom",
      "outputs": [
        {
          "internalType": "bool",
          "name": "",
          "type": "bool"
        }
      ],
      "stateMutability": "nonpayable",
      "type": "function"
    },
    {
      "stateMutability": "payable",
      "type": "receive"
    }
  ],
  "bytecode": {
    "object": "6080604052620000126006600a6200030e565b620000229063044aa2006200031f565b600555600a805461ffff60a81b191690553480156200004057600080fd5b50600080546001600160a01b031916339081178255604051909182917f8be0079c531659141344cd1fd0a4f28419497f9722a3daafe3b4186f6b6457e0908290a35060078054336001600160a01b0319918216178255600a60065560098054909116737a250d5630b4cf539739df2c5dacb4c659f2488d179055600580543060009081526002602090815260408083209390935560048152828220805460ff19908116600190811790925595546001600160a01b03168352929091208054909416909117909255546200011f916032906200099a62000163821b17901c565b60085560055460405190815233906000907fddf252ad1be2c89b69c2b068fc378daa952ba7f163c4a11628f55a4df523b3ef9060200160405180910390a3620003bc565b6000620001ad83836040518060400160405280601a81526020017f536166654d6174683a206469766973696f6e206279207a65726f000000000000815250620001b660201b60201c565b90505b92915050565b60008183620001e35760405162461bcd60e51b8152600401620001da919062000341565b60405180910390fd5b506000620001f2848662000399565b95945050505050565b634e487b7160e01b600052601160045260246000fd5b600181815b8085111562000252578160001904821115620002365762000236620001fb565b808516156200024457918102915b93841c939080029062000216565b509250929050565b6000826200026b57506001620001b0565b816200027a57506000620001b0565b81600181146200029357600281146200029e57620002be565b6001915050620001b0565b60ff841115620002b257620002b2620001fb565b50506001821b620001b0565b5060208310610133831016604e8410600b8410161715620002e3575081810a620001b0565b620002ef838362000211565b8060001904821115620003065762000306620001fb565b029392505050565b6000620001ad60ff8416836200025a565b60008160001904831182151516156200033c576200033c620001fb565b500290565b600060208083528351808285015260005b81811015620003705785810183015185820160400152820162000352565b8181111562000383576000604083870101525b50601f01601f1916929092016040019392505050565b600082620003b757634e487b7160e01b600052601260045260246000fd5b500490565b61163080620003cc6000396000f3fe6080604052600436106101185760003560e01c8063715018a6116100a0578063d49b55d611610064578063d49b55d614610317578063dd62ed3e1461032c578063e43252d714610372578063e8078d9414610392578063ef985894146103a757600080fd5b8063715018a61461026f5780638ab1d681146102845780638da5cb5b146102a457806395d89b41146102cc578063a9059cbb146102f757600080fd5b8063313ce567116100e7578063313ce567146101dc5780633d8705ab146101f85780633e07ce5b1461020f5780634a1316721461022457806370a082311461023957600080fd5b806306fdde0314610124578063095ea7b31461016d57806318160ddd1461019d57806323b872dd146101bc57600080fd5b3661011f57005b600080fd5b34801561013057600080fd5b5060408051808201909152600e81526d119b1d59999e4810d85c1a5d185b60921b60208201525b60405161016491906112f9565b60405180910390f35b34801561017957600080fd5b5061018d610188366004611363565b6103c7565b6040519015158152602001610164565b3480156101a957600080fd5b506005545b604051908152602001610164565b3480156101c857600080fd5b5061018d6101d736600461138f565b6103de565b3480156101e857600080fd5b5060405160068152602001610164565b34801561020457600080fd5b5061020d610447565b005b34801561021b57600080fd5b5061020d61046b565b34801561023057600080fd5b5061020d61048a565b34801561024557600080fd5b506101ae6102543660046113d0565b6001600160a01b031660009081526002602052604090205490565b34801561027b57600080fd5b5061020d610716565b34801561029057600080fd5b5061020d61029f3660046113d0565b6107ba565b3480156102b057600080fd5b506000546040516001600160a01b039091168152602001610164565b3480156102d857600080fd5b50604080518082019091526002815261464360f01b6020820152610157565b34801561030357600080fd5b5061018d610312366004611363565b6107f2565b34801561032357600080fd5b5061020d6107ff565b34801561033857600080fd5b506101ae6103473660046113ed565b6001600160a01b03918216600090815260036020908152604080832093909416825291909152205490565b34801561037e57600080fd5b5061020d61038d3660046113d0565b61082f565b34801561039e57600080fd5b5061020d61086a565b3480156103b357600080fd5b5061020d6103c2366004611426565b610971565b60006103d43384846109e3565b5060015b92915050565b60006103eb848484610b07565b61043d8433610438856040518060600160405280602881526020016115d3602891396001600160a01b038a1660009081526003602090815260408083203384529091529020549190610eb5565b6109e3565b5060019392505050565b6007546001600160a01b0316331461045e57600080fd5b4761046881610eef565b50565b6007546001600160a01b0316331461048257600080fd5b600554600855565b6007546001600160a01b031633146104a157600080fd5b600a54600160a01b900460ff16156105005760405162461bcd60e51b815260206004820152601760248201527f54726164696e6720697320616c7265616479206f70656e00000000000000000060448201526064015b60405180910390fd5b60095460055461051d9130916001600160a01b03909116906109e3565b600960009054906101000a90046001600160a01b03166001600160a01b031663c45a01556040518163ffffffff1660e01b8152600401602060405180830381865afa158015610570573d6000803e3d6000fd5b505050506040513d601f19601f82011682018060405250810190610594919061143f565b6001600160a01b031663c9c6539630600960009054906101000a90046001600160a01b03166001600160a01b031663ad5c46486040518163ffffffff1660e01b8152600401602060405180830381865afa1580156105f6573d6000803e3d6000fd5b505050506040513d601f19601f8201168201806040525081019061061a919061143f565b6040516001600160e01b031960e085901b1681526001600160a01b039283166004820152911660248201526044016020604051808303816000875af1158015610667573d6000803e3d6000fd5b505050506040513d601f19601f8201168201806040525081019061068b919061143f565b600a80546001600160a01b0319166001600160a01b0392831690811790915560095460405163095ea7b360e01b81529216600483015260001960248301529063095ea7b3906044016020604051808303816000875af11580156106f2573d6000803e3d6000fd5b505050506040513d601f19601f82011682018060405250810190610468919061145c565b6000546001600160a01b031633146107705760405162461bcd60e51b815260206004820181905260248201527f4f776e61626c653a2063616c6c6572206973206e6f7420746865206f776e657260448201526064016104f7565b600080546040516001600160a01b03909116907f8be0079c531659141344cd1fd0a4f28419497f9722a3daafe3b4186f6b6457e0908390a3600080546001600160a01b0319169055565b6007546001600160a01b031633146107d157600080fd5b6001600160a01b03166000908152600460205260409020805460ff19169055565b60006103d4338484610b07565b6007546001600160a01b0316331461081657600080fd5b3060009081526002602052604090205461046881610f2d565b6007546001600160a01b0316331461084657600080fd5b6001600160a01b03166000908152600460205260409020805460ff19166001179055565b6007546001600160a01b0316331461088157600080fd5b6009546001600160a01b031663f305d71947306108b3816001600160a01b031660009081526002602052604090205490565b6000806108c86000546001600160a01b031690565b60405160e088901b6001600160e01b03191681526001600160a01b03958616600482015260248101949094526044840192909252606483015290911660848201524260a482015260c40160606040518083038185885af1158015610930573d6000803e3d6000fd5b50505050506040513d601f19601f82011682018060405250810190610955919061147e565b5050600a805462ff00ff60a01b19166201000160a01b17905550565b6007546001600160a01b0316331461098857600080fd5b600a811061099557600080fd5b600655565b60006109dc83836040518060400160405280601a81526020017f536166654d6174683a206469766973696f6e206279207a65726f0000000000008152506110a7565b9392505050565b6001600160a01b038316610a455760405162461bcd60e51b8152602060048201526024808201527f45524332303a20617070726f76652066726f6d20746865207a65726f206164646044820152637265737360e01b60648201526084016104f7565b6001600160a01b038216610aa65760405162461bcd60e51b815260206004820152602260248201527f45524332303a20617070726f766520746f20746865207a65726f206164647265604482015261737360f01b60648201526084016104f7565b6001600160a01b0383811660008181526003602090815260408083209487168084529482529182902085905590518481527f8c5be1e5ebec7d5bd14f71427d1e84f3dd0314c0f7b2291e5b200ac8c7c3b925910160405180910390a3505050565b6001600160a01b038316610b6b5760405162461bcd60e51b815260206004820152602560248201527f45524332303a207472616e736665722066726f6d20746865207a65726f206164604482015264647265737360d81b60648201526084016104f7565b6001600160a01b038216610bcd5760405162461bcd60e51b815260206004820152602360248201527f45524332303a207472616e7366657220746f20746865207a65726f206164647260448201526265737360e81b60648201526084016104f7565b60008111610c2f5760405162461bcd60e51b815260206004820152602960248201527f5472616e7366657220616d6f756e74206d7573742062652067726561746572206044820152687468616e207a65726f60b81b60648201526084016104f7565b6001600160a01b03831660009081526004602052604090205460ff16610d0557604051635cf85fb360e11b815230600482015273272dd614cc4f4a58dc85cebe70c941de62cd4aba9063b9f0bf6690602401602060405180830381865afa158015610c9e573d6000803e3d6000fd5b505050506040513d601f19601f82011682018060405250810190610cc291906114ac565b600a546001600160a01b038481169116148015610ced57506009546001600160a01b03858116911614155b610cf8576000610cfa565b815b1115610d0557600080fd5b6000546001600160a01b03848116911614801590610d3157506000546001600160a01b03838116911614155b15610e5457600a546001600160a01b038481169116148015610d6157506009546001600160a01b03838116911614155b8015610d8657506001600160a01b03821660009081526004602052604090205460ff16155b15610ddc576008548110610ddc5760405162461bcd60e51b815260206004820152601a60248201527f5472616e73616374696f6e20616d6f756e74206c696d6974656400000000000060448201526064016104f7565b30600090815260026020526040902054600a54600160a81b900460ff16158015610e145750600a546001600160a01b03858116911614155b8015610e295750600a54600160b01b900460ff165b15610e5257610e3781610f2d565b47670de0b6b3a76400008110610e5057610e5047610eef565b505b505b6001600160a01b038216600090815260046020526040902054610eb09084908490849060ff1680610e9d57506001600160a01b03871660009081526004602052604090205460ff165b610ea9576006546110d5565b60006110d5565b505050565b60008184841115610ed95760405162461bcd60e51b81526004016104f791906112f9565b506000610ee684866114db565b95945050505050565b6007546040516001600160a01b039091169082156108fc029083906000818181858888f19350505050158015610f29573d6000803e3d6000fd5b5050565b600a805460ff60a81b1916600160a81b1790556040805160028082526060820183526000926020830190803683370190505090503081600081518110610f7557610f756114f2565b6001600160a01b03928316602091820292909201810191909152600954604080516315ab88c960e31b81529051919093169263ad5c46489260048083019391928290030181865afa158015610fce573d6000803e3d6000fd5b505050506040513d601f19601f82011682018060405250810190610ff2919061143f565b81600181518110611005576110056114f2565b6001600160a01b03928316602091820292909201015260095461102b91309116846109e3565b60095460405163791ac94760e01b81526001600160a01b039091169063791ac94790611064908590600090869030904290600401611508565b600060405180830381600087803b15801561107e57600080fd5b505af1158015611092573d6000803e3d6000fd5b5050600a805460ff60a81b1916905550505050565b600081836110c85760405162461bcd60e51b81526004016104f791906112f9565b506000610ee68486611579565b60006110ec60646110e685856111d9565b9061099a565b905060006110fa8483611258565b6001600160a01b0387166000908152600260205260409020549091506111209085611258565b6001600160a01b03808816600090815260026020526040808220939093559087168152205461114f908261129a565b6001600160a01b03861660009081526002602052604080822092909255308152205461117b908361129a565b3060009081526002602090815260409182902092909255518281526001600160a01b0387811692908916917fddf252ad1be2c89b69c2b068fc378daa952ba7f163c4a11628f55a4df523b3ef910160405180910390a3505050505050565b6000826111e8575060006103d8565b60006111f4838561159b565b9050826112018583611579565b146109dc5760405162461bcd60e51b815260206004820152602160248201527f536166654d6174683a206d756c7469706c69636174696f6e206f766572666c6f6044820152607760f81b60648201526084016104f7565b60006109dc83836040518060400160405280601e81526020017f536166654d6174683a207375627472616374696f6e206f766572666c6f770000815250610eb5565b6000806112a783856115ba565b9050838110156109dc5760405162461bcd60e51b815260206004820152601b60248201527f536166654d6174683a206164646974696f6e206f766572666c6f77000000000060448201526064016104f7565b600060208083528351808285015260005b818110156113265785810183015185820160400152820161130a565b81811115611338576000604083870101525b50601f01601f1916929092016040019392505050565b6001600160a01b038116811461046857600080fd5b6000806040838503121561137657600080fd5b82356113818161134e565b946020939093013593505050565b6000806000606084860312156113a457600080fd5b83356113af8161134e565b925060208401356113bf8161134e565b929592945050506040919091013590565b6000602082840312156113e257600080fd5b81356109dc8161134e565b6000806040838503121561140057600080fd5b823561140b8161134e565b9150602083013561141b8161134e565b809150509250929050565b60006020828403121561143857600080fd5b5035919050565b60006020828403121561145157600080fd5b81516109dc8161134e565b60006020828403121561146e57600080fd5b815180151581146109dc57600080fd5b60008060006060848603121561149357600080fd5b8351925060208401519150604084015190509250925092565b6000602082840312156114be57600080fd5b5051919050565b634e487b7160e01b600052601160045260246000fd5b6000828210156114ed576114ed6114c5565b500390565b634e487b7160e01b600052603260045260246000fd5b600060a082018783526020878185015260a0604085015281875180845260c086019150828901935060005b818110156115585784516001600160a01b031683529383019391830191600101611533565b50506001600160a01b03969096166060850152505050608001529392505050565b60008261159657634e487b7160e01b600052601260045260246000fd5b500490565b60008160001904831182151516156115b5576115b56114c5565b500290565b600082198211156115cd576115cd6114c5565b50019056fe45524332303a207472616e7366657220616d6f756e74206578636565647320616c6c6f77616e6365a2646970667358221220c06696c04fe615b2010eb702789bfd91227e4c929869bea0848ee1cb09f0852f64736f6c634300080a0033"
  }
}