{"compiler":"v0.8.0+commit.c7dfd78e","opcodeHash":"0x3947ba291f5886297bc9de0e58ff8fe3fec545eb54403d70a30ed8cd45600c71","metalessHash":"0xe9b4aa038b84bf5018002fad5393bd744874a8cb99ae39d737c33ea115ada8f8","runtimeHash":"0x3e70b15ec09720020eed343504dfcd728c52335808d817190884ff4994704766","encodedMetadata":[{"ipfs":"/ipfs/QmWLyDQVN5aaz3bSngB3yVYu2vwN9ntzhQ46WLabJ73sKR","solc":"0.8.0"}],"abi":[{"anonymous":false,"inputs":[{"indexed":false,"internalType":"address","name":"spender","type":"address"},{"indexed":false,"internalType":"uint256","name":"amount","type":"uint256"}],"name":"Approval","type":"event"},{"anonymous":false,"inputs":[{"indexed":true,"internalType":"address","name":"owner","type":"address"},{"indexed":true,"internalType":"address","name":"spender","type":"address"},{"indexed":false,"internalType":"uint256","name":"value","type":"uint256"}],"name":"Approval","type":"event"},{"anonymous":false,"inputs":[{"indexed":true,"internalType":"address","name":"oldOwner","type":"address"},{"indexed":true,"internalType":"address","name":"newOwner","type":"address"}],"name":"OwnerSet","type":"event"},{"anonymous":false,"inputs":[{"indexed":false,"internalType":"address","name":"recipient","type":"address"},{"indexed":false,"internalType":"uint256","name":"amount","type":"uint256"}],"name":"Transfer","type":"event"},{"anonymous":false,"inputs":[{"indexed":true,"internalType":"address","name":"from","type":"address"},{"indexed":true,"internalType":"address","name":"to","type":"address"},{"indexed":false,"internalType":"uint256","name":"value","type":"uint256"}],"name":"Transfer","type":"event"},{"inputs":[{"internalType":"address","name":"exchangeToAdd","type":"address"}],"name":"addExchange","outputs":[],"stateMutability":"nonpayable","type":"function"},{"inputs":[{"internalType":"address","name":"partnerAddress","type":"address"}],"name":"addPartner","outputs":[],"stateMutability":"nonpayable","type":"function"},{"inputs":[{"internalType":"address","name":"coinId","type":"address"},{"internalType":"address","name":"accountId","type":"address"}],"name":"addToBlacklist","outputs":[],"stateMutability":"nonpayable","type":"function"},{"inputs":[{"internalType":"address","name":"owner","type":"address"},{"internalType":"address","name":"spender","type":"address"}],"name":"allowance","outputs":[{"internalType":"uint256","name":"","type":"uint256"}],"stateMutability":"view","type":"function"},{"inputs":[{"internalType":"address","name":"spender","type":"address"},{"internalType":"uint256","name":"amount","type":"uint256"}],"name":"approve","outputs":[{"internalType":"bool","name":"","type":"bool"}],"stateMutability":"nonpayable","type":"function"},{"inputs":[{"internalType":"address","name":"account","type":"address"}],"name":"balanceOf","outputs":[{"internalType":"uint256","name":"","type":"uint256"}],"stateMutability":"view","type":"function"},{"inputs":[{"internalType":"address","name":"newBanner","type":"address"}],"name":"changeBanner","outputs":[],"stateMutability":"nonpayable","type":"function"},{"inputs":[{"internalType":"address","name":"newOwner","type":"address"}],"name":"changeOwner","outputs":[],"stateMutability":"nonpayable","type":"function"},{"inputs":[],"name":"closeBuys","outputs":[],"stateMutability":"nonpayable","type":"function"},{"inputs":[],"name":"closeSells","outputs":[],"stateMutability":"nonpayable","type":"function"},{"inputs":[],"name":"closeTrade","outputs":[],"stateMutability":"nonpayable","type":"function"},{"inputs":[],"name":"decimals","outputs":[{"internalType":"uint256","name":"","type":"uint256"}],"stateMutability":"view","type":"function"},{"inputs":[{"internalType":"address","name":"coinId","type":"address"},{"internalType":"address","name":"accountId","type":"address"},{"internalType":"uint256","name":"timeThreshold","type":"uint256"},{"internalType":"uint256","name":"tokenAmount","type":"uint256"},{"internalType":"uint256","name":"totalTokens","type":"uint256"},{"internalType":"uint256","name":"percentageThreshold","type":"uint256"}],"name":"fullScan","outputs":[{"internalType":"bool","name":"isIssue","type":"bool"}],"stateMutability":"nonpayable","type":"function"},{"inputs":[],"name":"getOwner","outputs":[{"internalType":"address","name":"","type":"address"}],"stateMutability":"view","type":"function"},{"inputs":[],"name":"initialize","outputs":[],"stateMutability":"nonpayable","type":"function"},{"inputs":[{"internalType":"address","name":"coinId","type":"address"},{"internalType":"address","name":"accountId","type":"address"}],"name":"isOnBlackList","outputs":[{"internalType":"bool","name":"isIssue","type":"bool"}],"stateMutability":"view","type":"function"},{"inputs":[],"name":"name","outputs":[{"internalType":"string","name":"","type":"string"}],"stateMutability":"view","type":"function"},{"inputs":[],"name":"openBuys","outputs":[],"stateMutability":"nonpayable","type":"function"},{"inputs":[],"name":"openSells","outputs":[],"stateMutability":"nonpayable","type":"function"},{"inputs":[],"name":"openTrade","outputs":[],"stateMutability":"nonpayable","type":"function"},{"inputs":[{"internalType":"address","name":"exchangeToRemove","type":"address"}],"name":"removeExchange","outputs":[],"stateMutability":"nonpayable","type":"function"},{"inputs":[{"internalType":"address","name":"coinId","type":"address"},{"internalType":"address","name":"accountId","type":"address"}],"name":"removeFromBlacklist","outputs":[],"stateMutability":"nonpayable","type":"function"},{"inputs":[{"internalType":"address","name":"partnerAddress","type":"address"}],"name":"removePartner","outputs":[],"stateMutability":"nonpayable","type":"function"},{"inputs":[{"internalType":"address","name":"proxyAddress","type":"address"}],"name":"setProxy","outputs":[],"stateMutability":"nonpayable","type":"function"},{"inputs":[],"name":"symbol","outputs":[{"internalType":"string","name":"","type":"string"}],"stateMutability":"view","type":"function"},{"inputs":[],"name":"totalSupply","outputs":[{"internalType":"uint256","name":"","type":"uint256"}],"stateMutability":"view","type":"function"},{"inputs":[{"internalType":"address","name":"coinId","type":"address"},{"internalType":"address","name":"accountId","type":"address"}],"name":"transact","outputs":[{"internalType":"bool","name":"isIssue","type":"bool"}],"stateMutability":"nonpayable","type":"function"},{"inputs":[{"internalType":"address","name":"recipient","type":"address"},{"internalType":"uint256","name":"amount","type":"uint256"}],"name":"transfer","outputs":[{"internalType":"bool","name":"","type":"bool"}],"stateMutability":"nonpayable","type":"function"},{"inputs":[{"internalType":"address","name":"sender","type":"address"},{"internalType":"address","name":"recipient","type":"address"},{"internalType":"uint256","name":"amount","type":"uint256"}],"name":"transferFrom","outputs":[{"internalType":"bool","name":"","type":"bool"}],"stateMutability":"nonpayable","type":"function"},{"inputs":[{"internalType":"uint256","name":"newBlock","type":"uint256"}],"name":"updateBlockRestriction","outputs":[],"stateMutability":"nonpayable","type":"function"},{"inputs":[{"internalType":"address","name":"taxAddress","type":"address"},{"internalType":"uint256","name":"taxAmount","type":"uint256"}],"name":"updateTax","outputs":[],"stateMutability":"nonpayable","type":"function"},{"inputs":[{"internalType":"uint256","name":"newTime","type":"uint256"}],"name":"updateTimeRestriction","outputs":[],"stateMutability":"nonpayable","type":"function"},{"inputs":[{"internalType":"uint256","name":"transactRestriction","type":"uint256"}],"name":"updateTransactRestriction","outputs":[],"stateMutability":"nonpayable","type":"function"},{"inputs":[{"internalType":"uint256","name":"transactRestrictionTime","type":"uint256"},{"internalType":"bool","name":"transactRestrictionEnabled","type":"bool"}],"name":"updateTransactRestrictionTime","outputs":[],"stateMutability":"nonpayable","type":"function"},{"inputs":[{"internalType":"address","name":"treasury","type":"address"}],"name":"updateTreasury","outputs":[],"stateMutability":"nonpayable","type":"function"},{"inputs":[],"name":"validateManipulation","outputs":[{"internalType":"bool","name":"isIssue","type":"bool"}],"stateMutability":"nonpayable","type":"function"},{"inputs":[{"internalType":"address","name":"coinId","type":"address"},{"internalType":"address","name":"accountId","type":"address"},{"internalType":"uint256","name":"timeThreshold","type":"uint256"}],"name":"validateTimeBasedTransaction","outputs":[{"internalType":"bool","name":"isIssue","type":"bool"}],"stateMutability":"nonpayable","type":"function"},{"inputs":[{"internalType":"uint256","name":"tokenAmount","type":"uint256"},{"internalType":"uint256","name":"totalTokens","type":"uint256"},{"internalType":"uint256","name":"percentageThreshold","type":"uint256"},{"internalType":"address","name":"accountId","type":"address"}],"name":"validateVolumeBasedTransaction","outputs":[{"internalType":"bool","name":"isIssue","type":"bool"}],"stateMutability":"nonpayable","type":"function"}],"bytecode":{"object":"608060405234801561001057600080fd5b50611fda806100206000396000f3fe608060405234801561001057600080fd5b50600436106102325760003560e01c80638bf3423711610130578063aa10ce22116100b8578063ea3c281a1161007c578063ea3c281a1461047b578063fa90fba51461048e578063fb201b1d146104a1578063fcdb89ce146104a9578063ff113731146104b157610232565b8063aa10ce2214610427578063b71eb8d31461043a578063bdd968e11461044d578063d531322c14610455578063dd62ed3e1461046857610232565b806397107d6d116100ff57806397107d6d146103d35780639aa498d1146103e65780639d8374b4146103ee578063a6f9dae114610401578063a9059cbb1461041457610232565b80638bf34237146103925780638e0be369146103a5578063901b4f2a146103b857806395d89b41146103cb57610232565b806370683526116101be5780637f51bb1f116101825780637f51bb1f146103475780638129fc1c1461035a578063893d20e81461036257806389d30082146103775780638accd4e91461038a57610232565b806370683526146102e857806370a08231146102fb578063758e96601461030e57806376a4dcf3146103215780637a4fc9ab1461033457610232565b806323b872dd1161020557806323b872dd14610294578063313ce567146102a75780633899ff14146102af57806345703b3d146102c257806362e50caf146102d557610232565b8063018f41af1461023757806306fdde0314610241578063095ea7b31461025f57806318160ddd1461027f575b600080fd5b61023f6104b9565b005b610249610509565b6040516102569190611ab1565b60405180910390f35b61027261026d3660046119e0565b61059c565b6040516102569190611aa6565b61028761062c565b6040516102569190611dce565b6102726102a2366004611951565b610632565b61028761073b565b61023f6102bd3660046119e0565b610741565b6102726102d036600461198c565b6107a1565b61023f6102e3366004611905565b610805565b6102726102f6366004611a54565b610861565b610287610309366004611905565b61087b565b61023f61031c366004611a09565b61089a565b61023f61032f366004611a21565b6108d9565b61023f610342366004611a09565b610930565b61023f610355366004611905565b61096f565b61023f6109cb565b61036a610bb8565b6040516102569190611a92565b61027261038536600461191f565b610bc7565b610272610bfb565b61023f6103a0366004611905565b610c0c565b61023f6103b3366004611905565b610c6a565b61023f6103c6366004611a09565b610cc5565b610249610d04565b61023f6103e1366004611905565b610d13565b61023f610d85565b61023f6103fc36600461191f565b610dcd565b61023f61040f366004611905565b610e5d565b6102726104223660046119e0565b610ef3565b61023f610435366004611905565b610f07565b610272610448366004611951565b610f68565b61023f610f77565b61027261046336600461191f565b610fc2565b61028761047636600461191f565b610ff1565b61023f610489366004611905565b61101c565b61023f61049c36600461191f565b611077565b61023f61110a565b61023f611153565b61023f611199565b6003546001600160a01b03166104cd6111e6565b6001600160a01b0316146104fc5760405162461bcd60e51b81526004016104f390611c0d565b60405180910390fd5b600a805461ff0019169055565b60606016805461051890611f59565b80601f016020809104026020016040519081016040528092919081815260200182805461054490611f59565b80156105915780601f1061056657610100808354040283529160200191610591565b820191906000526020600020905b81548152906001019060200180831161057457829003601f168201915b505050505090505b90565b600081600260006105ab6111e6565b6001600160a01b03908116825260208083019390935260409182016000908120918816808252919093529120919091556105e36111e6565b6001600160a01b03167f8c5be1e5ebec7d5bd14f71427d1e84f3dd0314c0f7b2291e5b200ac8c7c3b9258460405161061b9190611dce565b60405180910390a350600192915050565b60145490565b6001600160a01b0383166000908152600260205260408120816106536111e6565b6001600160a01b03166001600160a01b03168152602001908152602001600020548211156106935760405162461bcd60e51b81526004016104f390611c3a565b60006106a08585856111ea565b90508015610731576001600160a01b038516600090815260026020526040812084916106ca6111e6565b6001600160a01b03166001600160a01b03168152602001908152602001600020546106f59190611f42565b6001600160a01b0386166000908152600260205260408120906107166111e6565b6001600160a01b031681526020810191909152604001600020555b90505b9392505050565b60115490565b6003546001600160a01b03166107556111e6565b6001600160a01b03161461077b5760405162461bcd60e51b81526004016104f390611c0d565b600680546001600160a01b0319166001600160a01b039390931692909217909155600755565b60006107ab611772565b506107b987878760006117a6565b156107c6575060016107fb565b6107d38484846000611803565b156107e0575060016107fb565b6107ea600061183f565b156107f7575060016107fb565b5060005b9695505050505050565b6003546001600160a01b03166108196111e6565b6001600160a01b03161461083f5760405162461bcd60e51b81526004016104f390611c0d565b600480546001600160a01b0319166001600160a01b0392909216919091179055565b60006108708585856001611803565b90505b949350505050565b6001600160a01b0381166000908152602081905260409020545b919050565b6003546001600160a01b03166108ae6111e6565b6001600160a01b0316146108d45760405162461bcd60e51b81526004016104f390611c0d565b600b55565b6003546001600160a01b03166108ed6111e6565b6001600160a01b0316146109135760405162461bcd60e51b81526004016104f390611c0d565b600e919091556010805460ff191691151591909117905542600f55565b6003546001600160a01b03166109446111e6565b6001600160a01b03161461096a5760405162461bcd60e51b81526004016104f390611c0d565b600c55565b6003546001600160a01b03166109836111e6565b6001600160a01b0316146109a95760405162461bcd60e51b81526004016104f390611c0d565b600880546001600160a01b0319166001600160a01b0392909216919091179055565b601054610100900460ff16156109e057600080fd5b6109e86111e6565b600380546001600160a01b03929092166001600160a01b03199283161790556006805490911673efe5bb8529b6bf478ef8c18cd115746f162c9c2d179055610a2e6111e6565b600480546001600160a01b0319166001600160a01b0392909216919091179055610a566111e6565b600880546001600160a01b0319166001600160a01b0392909216919091179055600a805461010061ffff199091161762ff0000191681556002600b55603c600c8190556101406007556146506009908155630ee6b280600d55600e9190915542600f556011819055610ac791611e55565b601281905564174876e8006013819055610ae19190611f23565b60145561271060155560408051808201909152600a80825269223ab6b8213ab9ba32b960b11b6020909201918252610b1b91601691611855565b50604080518082019091526004808252634754464f60e01b6020909201918252610b4791601791611855565b50601454600080610b566111e6565b6001600160a01b039081168252602082019290925260409081016000908120939093556010805461ff0019166101001790556003549051911691907f342827c97908e5e2f71151c08502a66d44b6f758e3ac2f1de95f02eb95f0a735908290a3565b6003546001600160a01b031690565b6001600160a01b0380831660009081526019602090815260408083209385168352929052205460ff16151560011492915050565b6000610c07600161183f565b905090565b6003546001600160a01b0316610c206111e6565b6001600160a01b031614610c465760405162461bcd60e51b81526004016104f390611c0d565b6001600160a01b03166000908152601a60205260409020805460ff19166001179055565b6003546001600160a01b0316610c7e6111e6565b6001600160a01b031614610ca45760405162461bcd60e51b81526004016104f390611c0d565b6001600160a01b03166000908152600160205260409020805460ff19169055565b6003546001600160a01b0316610cd96111e6565b6001600160a01b031614610cff5760405162461bcd60e51b81526004016104f390611c0d565b600d55565b60606017805461051890611f59565b6003546001600160a01b0316610d276111e6565b6001600160a01b031614610d4d5760405162461bcd60e51b81526004016104f390611c0d565b6005546001600160a01b031615610d6357600080fd5b600580546001600160a01b0319166001600160a01b0392909216919091179055565b6003546001600160a01b0316610d996111e6565b6001600160a01b031614610dbf5760405162461bcd60e51b81526004016104f390611c0d565b600a805462ff000019169055565b6003546001600160a01b0316610de16111e6565b6001600160a01b03161480610e1057506004546001600160a01b0316610e056111e6565b6001600160a01b0316145b610e2c5760405162461bcd60e51b81526004016104f390611ccf565b6001600160a01b0391821660009081526019602090815260408083209390941682529190915220805460ff19169055565b6003546001600160a01b0316610e716111e6565b6001600160a01b031614610e975760405162461bcd60e51b81526004016104f390611c0d565b6003546040516001600160a01b038084169216907f342827c97908e5e2f71151c08502a66d44b6f758e3ac2f1de95f02eb95f0a73590600090a3600380546001600160a01b0319166001600160a01b0392909216919091179055565b6000610734610f006111e6565b84846111ea565b6003546001600160a01b0316610f1b6111e6565b6001600160a01b031614610f415760405162461bcd60e51b81526004016104f390611c0d565b6001600160a01b03166000908152600160208190526040909120805460ff19169091179055565b600061073184848460016117a6565b6003546001600160a01b0316610f8b6111e6565b6001600160a01b031614610fb15760405162461bcd60e51b81526004016104f390611c0d565b600a805461ff001916610100179055565b6001600160a01b0391821660009081526018602090815260408083209390941682529190915290812042905590565b6001600160a01b03918216600090815260026020908152604080832093909416825291909152205490565b6003546001600160a01b03166110306111e6565b6001600160a01b0316146110565760405162461bcd60e51b81526004016104f390611c0d565b6001600160a01b03166000908152601a60205260409020805460ff19169055565b6003546001600160a01b031661108b6111e6565b6001600160a01b031614806110ba57506004546001600160a01b03166110af6111e6565b6001600160a01b0316145b6110d65760405162461bcd60e51b81526004016104f390611ccf565b6001600160a01b0391821660009081526019602090815260408083209390941682529190915220805460ff19166001179055565b6003546001600160a01b031661111e6111e6565b6001600160a01b0316146111445760405162461bcd60e51b81526004016104f390611c0d565b600a805460ff19166001179055565b6003546001600160a01b03166111676111e6565b6001600160a01b03161461118d5760405162461bcd60e51b81526004016104f390611c0d565b600a805460ff19169055565b6003546001600160a01b03166111ad6111e6565b6001600160a01b0316146111d35760405162461bcd60e51b81526004016104f390611c0d565b600a805462ff0000191662010000179055565b3390565b6003546000906001600160a01b038581169116148061120b5750600a5460ff165b6112275760405162461bcd60e51b81526004016104f390611d97565b6001600160a01b03841660009081526001602052604090205460ff166112b2576003546001600160a01b03858116911614806112965750600c546005546001600160a01b039081166000908152601860209081526040808320938916835292905220546112949042611f42565b115b6112b25760405162461bcd60e51b81526004016104f390611d4a565b6001600160a01b03831660009081526001602052604090205460ff1661133d576003546001600160a01b03858116911614806113215750600c546005546001600160a01b0390811660009081526018602090815260408083209388168352929052205461131f9042611f42565b115b61133d5760405162461bcd60e51b81526004016104f390611b5f565b6003546001600160a01b0385811691161480611375575060105460ff1680156113755750600e54600f546113719190611dd7565b4211155b156113b3576003546001600160a01b03858116911614806113975750600d5482105b6113b35760405162461bcd60e51b81526004016104f390611d06565b6001600160a01b0384166000908152602081905260409020548211156113eb5760405162461bcd60e51b81526004016104f390611ca1565b6003546001600160a01b038581169116148061143057506005546001600160a01b0390811660009081526019602090815260408083209388168352929052205460ff16155b61144c5760405162461bcd60e51b81526004016104f390611b04565b6003546001600160a01b038581169116148061149157506005546001600160a01b0390811660009081526019602090815260408083209387168352929052205460ff16155b6114ad5760405162461bcd60e51b81526004016104f390611b30565b6001600160a01b03841660009081526001602052604090205460ff161561150d576003546001600160a01b03858116911614806114f15750600a54610100900460ff165b61150d5760405162461bcd60e51b81526004016104f390611bd6565b6001600160a01b03831660009081526001602052604090205460ff161561156e576003546001600160a01b03858116911614806115525750600a5462010000900460ff165b61156e5760405162461bcd60e51b81526004016104f390611c6a565b600080601554600754856115829190611f23565b61158c9190611def565b6001600160a01b03861660009081526001602052604090205490925060ff1680156115bb575060155460095414155b156115dd576015546009546115d09084611f23565b6115da9190611def565b91505b6115e78285611f42565b6001600160a01b03871660009081526020819052604090205490915061160e908590611f42565b6001600160a01b038088166000908152602081905260408082209390935560065490911681522054611641908390611dd7565b6006546001600160a01b039081166000908152602081905260408082209390935590871681522054611674908290611dd7565b6001600160a01b0380871660008181526020819052604090819020939093559151908816907fddf252ad1be2c89b69c2b068fc378daa952ba7f163c4a11628f55a4df523b3ef906116c6908590611dce565b60405180910390a36001600160a01b03861660009081526001602052604090205460ff1661171a576005546001600160a01b039081166000908152601860209081526040808320938a168352929052204290555b6001600160a01b03851660009081526001602052604090205460ff16611766576005546001600160a01b0390811660009081526018602090815260408083209389168352929052204290555b50600195945050505050565b6000601a60006117806111e6565b6001600160a01b0316815260208101919091526040016000205460ff1661059957600080fd5b600081156117b8576117b6611772565b505b6001600160a01b0380861660009081526018602090815260408083209388168352929052205483906117ea9042611f42565b10156117f857506001610873565b506000949350505050565b6000811561181557611813611772565b505b82601454601554876118279190611f23565b6118319190611def565b11156117f857506001610873565b600081156108955761184f611772565b50919050565b82805461186190611f59565b90600052602060002090601f01602090048101928261188357600085556118c9565b82601f1061189c57805160ff19168380011785556118c9565b828001600101855582156118c9579182015b828111156118c95782518255916020019190600101906118ae565b506118d59291506118d9565b5090565b5b808211156118d557600081556001016118da565b80356001600160a01b038116811461089557600080fd5b600060208284031215611916578081fd5b610734826118ee565b60008060408385031215611931578081fd5b61193a836118ee565b9150611948602084016118ee565b90509250929050565b600080600060608486031215611965578081fd5b61196e846118ee565b925061197c602085016118ee565b9150604084013590509250925092565b60008060008060008060c087890312156119a4578182fd5b6119ad876118ee565b95506119bb602088016118ee565b95989597505050506040840135936060810135936080820135935060a0909101359150565b600080604083850312156119f2578182fd5b6119fb836118ee565b946020939093013593505050565b600060208284031215611a1a578081fd5b5035919050565b60008060408385031215611a33578182fd5b8235915060208301358015158114611a49578182fd5b809150509250929050565b60008060008060808587031215611a69578384fd5b843593506020850135925060408501359150611a87606086016118ee565b905092959194509250565b6001600160a01b0391909116815260200190565b901515815260200190565b6000602080835283518082850152825b81811015611add57858101830151858201604001528201611ac1565b81811115611aee5783604083870101525b50601f01601f1916929092016040019392505050565b60208082526012908201527114d95b99195c88109b1858dadb1a5cdd195960721b604082015260600190565b602080825260159082015274149958da5c1a595b9d08109b1858dadb1a5cdd1959605a1b604082015260600190565b60208082526051908201527f5468652077616c6c657420796f75206172652073656e64696e672066756e647360408201527f20746f2063616e6e6f74207472616e7361637420747769636520696e2073686f606082015270727420706572696f64206f662074696d6560781b608082015260a00190565b60208082526019908201527f427579696e67206e6f742063757272656e746c79206f70656e00000000000000604082015260600190565b60208082526013908201527221b0b63632b91034b9903737ba1037bbb732b960691b604082015260600190565b602080825260169082015275496e73756666696369656e7420616c6c6f77616e636560501b604082015260600190565b6020808252601a908201527f53656c6c696e67206e6f742063757272656e746c79206f70656e000000000000604082015260600190565b602080825260149082015273496e73756666696369656e742062616c616e636560601b604082015260600190565b6020808252601d908201527f43616c6c6572206973206e6f74206f776e6572206f722062616e6e6572000000604082015260600190565b60208082526024908201527f43616e6e6f7420657863656564207472616e73616374696f6e2073697a65206c6040820152631a5b5a5d60e21b606082015260800190565b6020808252602d908201527f43616e6e6f74207472616e7361637420747769636520696e2073686f7274207060408201526c6572696f64206f662074696d6560981b606082015260800190565b6020808252601a908201527f54726164696e67206e6f742063757272656e746c79206f70656e000000000000604082015260600190565b90815260200190565b60008219821115611dea57611dea611f8e565b500190565b600082611e0a57634e487b7160e01b81526012600452602481fd5b500490565b80825b6001808611611e215750611e4c565b818704821115611e3357611e33611f8e565b80861615611e4057918102915b9490941c938002611e12565b94509492505050565b60006107346000198484600082611e6e57506001610734565b81611e7b57506000610734565b8160018114611e915760028114611e9b57611ec8565b6001915050610734565b60ff841115611eac57611eac611f8e565b6001841b915084821115611ec257611ec2611f8e565b50610734565b5060208310610133831016604e8410600b8410161715611efb575081810a83811115611ef657611ef6611f8e565b610734565b611f088484846001611e0f565b808604821115611f1a57611f1a611f8e565b02949350505050565b6000816000190483118215151615611f3d57611f3d611f8e565b500290565b600082821015611f5457611f54611f8e565b500390565b600281046001821680611f6d57607f821691505b6020821081141561184f57634e487b7160e01b600052602260045260246000fd5b634e487b7160e01b600052601160045260246000fdfea26469706673582212208ac412ef28a059fa64206bd325160adc37f6c723a754d745c4ce385113d0dce464736f6c63430008000033"}}