{
  "opcodeHash": "0x2bcdb8ae366038c935a2c5f04217a811ec604e997509afbe709c3b43026f8466",
  "metalessHash": "0xa39350512a138289d207d25bceae96769f7ec6c0046d7a41071c9304d7bd21fa",
  "runtimeHash": "0x629e5d669db58d3a7f3258f58a7ff34f8abba901872f5246bf2054afb63edaa8",
  "encodedMetadata": [
    {
      "ipfs": "/ipfs/QmfUF4LADVqrkHGbc8BouVr6aA9sYgPzyLwLsTvdq6JxHj",
      "solc": "0.6.11"
    }
  ],
  "abi": [
    {
      "inputs": [],
      "name": "poke",
      "outputs": [],
      "stateMutability": "nonpayable",
      "type": "function"
    },
    {
      "inputs": [],
      "name": "pokeTemp",
      "outputs": [],
      "stateMutability": "nonpayable",
      "type": "function"
    }
  ],
  "bytecode": {
    "object": "608060405234801561001057600080fd5b50611443806100206000396000f3fe608060405234801561001057600080fd5b50600436106100365760003560e01c8063181783581461003b578063dfb46f3c14610045575b600080fd5b61004361004d565b005b61004361016b565b610055610175565b60408051631504460f60e01b81527f52454e4254432d41000000000000000000000000000000000000000000000000600482015290517365c79fcb50ca1594b025960e539ed7a9a6d434a391631504460f91602480830192600092919082900301818387803b1580156100c757600080fd5b505af11580156100db573d6000803e3d6000fd5b505060408051631504460f60e01b81527f554e492d41000000000000000000000000000000000000000000000000000000600482015290517365c79fcb50ca1594b025960e539ed7a9a6d434a39350631504460f9250602480830192600092919082900301818387803b15801561015157600080fd5b505af1158015610165573d6000803e3d6000fd5b50505050565b610173610175565b565b7381fe72b5a8d1a857d176c3e7d5bd2679a9b857636001600160a01b031663a7a1ed726040518163ffffffff1660e01b815260040160206040518083038186803b1580156101c257600080fd5b505afa1580156101d6573d6000803e3d6000fd5b505050506040513d60208110156101ec57600080fd5b50511561025b577381fe72b5a8d1a857d176c3e7d5bd2679a9b857636001600160a01b031663181783586040518163ffffffff1660e01b8152600401600060405180830381600087803b15801561024257600080fd5b505af1158015610256573d6000803e3d6000fd5b505050505b73b4eb54af9cc7882df0121d26c5b97e802915abe66001600160a01b031663a7a1ed726040518163ffffffff1660e01b815260040160206040518083038186803b1580156102a857600080fd5b505afa1580156102bc573d6000803e3d6000fd5b505050506040513d60208110156102d257600080fd5b5051156103415773b4eb54af9cc7882df0121d26c5b97e802915abe66001600160a01b031663181783586040518163ffffffff1660e01b8152600401600060405180830381600087803b15801561032857600080fd5b505af115801561033c573d6000803e3d6000fd5b505050505b73f185d0682d50819263941e5f4eacc763cc5c6c426001600160a01b031663a7a1ed726040518163ffffffff1660e01b815260040160206040518083038186803b15801561038e57600080fd5b505afa1580156103a2573d6000803e3d6000fd5b505050506040513d60208110156103b857600080fd5b5051156104275773f185d0682d50819263941e5f4eacc763cc5c6c426001600160a01b031663181783586040518163ffffffff1660e01b8152600401600060405180830381600087803b15801561040e57600080fd5b505af1158015610422573d6000803e3d6000fd5b505050505b73f36b79bd4c0904a5f350f1e4f776b81208c130696001600160a01b031663a7a1ed726040518163ffffffff1660e01b815260040160206040518083038186803b15801561047457600080fd5b505afa158015610488573d6000803e3d6000fd5b505050506040513d602081101561049e57600080fd5b50511561050d5773f36b79bd4c0904a5f350f1e4f776b81208c130696001600160a01b031663181783586040518163ffffffff1660e01b8152600401600060405180830381600087803b1580156104f457600080fd5b505af1158015610508573d6000803e3d6000fd5b505050505b737382c066801e7acb2299ac8562847b9883f5cd3c6001600160a01b031663a7a1ed726040518163ffffffff1660e01b815260040160206040518083038186803b15801561055a57600080fd5b505afa15801561056e573d6000803e3d6000fd5b505050506040513d602081101561058457600080fd5b5051156105f357737382c066801e7acb2299ac8562847b9883f5cd3c6001600160a01b031663181783586040518163ffffffff1660e01b8152600401600060405180830381600087803b1580156105da57600080fd5b505af11580156105ee573d6000803e3d6000fd5b505050505b738067259ea630601f319fcce477977e55c6078c136001600160a01b031663a7a1ed726040518163ffffffff1660e01b815260040160206040518083038186803b15801561064057600080fd5b505afa158015610654573d6000803e3d6000fd5b505050506040513d602081101561066a57600080fd5b5051156106d957738067259ea630601f319fcce477977e55c6078c136001600160a01b031663181783586040518163ffffffff1660e01b8152600401600060405180830381600087803b1580156106c057600080fd5b505af11580156106d4573d6000803e3d6000fd5b505050505b737a5918670b0c390ad25f7bee908c1acc2d314a3c6001600160a01b031663a7a1ed726040518163ffffffff1660e01b815260040160206040518083038186803b15801561072657600080fd5b505afa15801561073a573d6000803e3d6000fd5b505050506040513d602081101561075057600080fd5b5051156107bf57737a5918670b0c390ad25f7bee908c1acc2d314a3c6001600160a01b031663181783586040518163ffffffff1660e01b8152600401600060405180830381600087803b1580156107a657600080fd5b505af11580156107ba573d6000803e3d6000fd5b505050505b73bed0879953e633135a48a157718aa791ac0108e46001600160a01b031663a7a1ed726040518163ffffffff1660e01b815260040160206040518083038186803b15801561080c57600080fd5b505afa158015610820573d6000803e3d6000fd5b505050506040513d602081101561083657600080fd5b5051156108a55773bed0879953e633135a48a157718aa791ac0108e46001600160a01b031663181783586040518163ffffffff1660e01b8152600401600060405180830381600087803b15801561088c57600080fd5b505af11580156108a0573d6000803e3d6000fd5b505050505b739b0c694c6939b5ea9584e9b61c7815e8d97d9cc76001600160a01b031663a7a1ed726040518163ffffffff1660e01b815260040160206040518083038186803b1580156108f257600080fd5b505afa158015610906573d6000803e3d6000fd5b505050506040513d602081101561091c57600080fd5b50511561098b57739b0c694c6939b5ea9584e9b61c7815e8d97d9cc76001600160a01b031663181783586040518163ffffffff1660e01b8152600401600060405180830381600087803b15801561097257600080fd5b505af1158015610986573d6000803e3d6000fd5b505050505b739eb923339c24c40bef2f4af4961742aa7c23ef3a6001600160a01b031663a7a1ed726040518163ffffffff1660e01b815260040160206040518083038186803b1580156109d857600080fd5b505afa1580156109ec573d6000803e3d6000fd5b505050506040513d6020811015610a0257600080fd5b505115610a7157739eb923339c24c40bef2f4af4961742aa7c23ef3a6001600160a01b031663181783586040518163ffffffff1660e01b8152600401600060405180830381600087803b158015610a5857600080fd5b505af1158015610a6c573d6000803e3d6000fd5b505050505b735f122465bcf86f45922036970be6dd7f588202146001600160a01b031663a7a1ed726040518163ffffffff1660e01b815260040160206040518083038186803b158015610abe57600080fd5b505afa158015610ad2573d6000803e3d6000fd5b505050506040513d6020811015610ae857600080fd5b505115610b5757735f122465bcf86f45922036970be6dd7f588202146001600160a01b031663181783586040518163ffffffff1660e01b8152600401600060405180830381600087803b158015610b3e57600080fd5b505af1158015610b52573d6000803e3d6000fd5b505050505b733ff860c0f28d69f392543a16a397d0dae85d16de6001600160a01b031663a7a1ed726040518163ffffffff1660e01b815260040160206040518083038186803b158015610ba457600080fd5b505afa158015610bb8573d6000803e3d6000fd5b505050506040513d6020811015610bce57600080fd5b505115610c3d57733ff860c0f28d69f392543a16a397d0dae85d16de6001600160a01b031663181783586040518163ffffffff1660e01b8152600401600060405180830381600087803b158015610c2457600080fd5b505af1158015610c38573d6000803e3d6000fd5b505050505b73f363c7e351c96b910b92b45d34190650df4ae8e76001600160a01b031663a7a1ed726040518163ffffffff1660e01b815260040160206040518083038186803b158015610c8a57600080fd5b505afa158015610c9e573d6000803e3d6000fd5b505050506040513d6020811015610cb457600080fd5b505115610d235773f363c7e351c96b910b92b45d34190650df4ae8e76001600160a01b031663181783586040518163ffffffff1660e01b8152600401600060405180830381600087803b158015610d0a57600080fd5b505af1158015610d1e573d6000803e3d6000fd5b505050505b60408051631504460f60e01b81527f4554482d41000000000000000000000000000000000000000000000000000000600482015290517365c79fcb50ca1594b025960e539ed7a9a6d434a391631504460f91602480830192600092919082900301818387803b158015610d9557600080fd5b505af1158015610da9573d6000803e3d6000fd5b505060408051631504460f60e01b81527f4241542d41000000000000000000000000000000000000000000000000000000600482015290517365c79fcb50ca1594b025960e539ed7a9a6d434a39350631504460f9250602480830192600092919082900301818387803b158015610e1f57600080fd5b505af1158015610e33573d6000803e3d6000fd5b505060408051631504460f60e01b81527f574254432d410000000000000000000000000000000000000000000000000000600482015290517365c79fcb50ca1594b025960e539ed7a9a6d434a39350631504460f9250602480830192600092919082900301818387803b158015610ea957600080fd5b505af1158015610ebd573d6000803e3d6000fd5b505060408051631504460f60e01b81527f4b4e432d41000000000000000000000000000000000000000000000000000000600482015290517365c79fcb50ca1594b025960e539ed7a9a6d434a39350631504460f9250602480830192600092919082900301818387803b158015610f3357600080fd5b505af1158015610f47573d6000803e3d6000fd5b505060408051631504460f60e01b81527f5a52582d41000000000000000000000000000000000000000000000000000000600482015290517365c79fcb50ca1594b025960e539ed7a9a6d434a39350631504460f9250602480830192600092919082900301818387803b158015610fbd57600080fd5b505af1158015610fd1573d6000803e3d6000fd5b505060408051631504460f60e01b81527f4d414e412d410000000000000000000000000000000000000000000000000000600482015290517365c79fcb50ca1594b025960e539ed7a9a6d434a39350631504460f9250602480830192600092919082900301818387803b15801561104757600080fd5b505af115801561105b573d6000803e3d6000fd5b505060408051631504460f60e01b81527f555344542d410000000000000000000000000000000000000000000000000000600482015290517365c79fcb50ca1594b025960e539ed7a9a6d434a39350631504460f9250602480830192600092919082900301818387803b1580156110d157600080fd5b505af11580156110e5573d6000803e3d6000fd5b505060408051631504460f60e01b81527f434f4d502d410000000000000000000000000000000000000000000000000000600482015290517365c79fcb50ca1594b025960e539ed7a9a6d434a39350631504460f9250602480830192600092919082900301818387803b15801561115b57600080fd5b505af115801561116f573d6000803e3d6000fd5b505060408051631504460f60e01b81527f4c494e4b2d410000000000000000000000000000000000000000000000000000600482015290517365c79fcb50ca1594b025960e539ed7a9a6d434a39350631504460f9250602480830192600092919082900301818387803b1580156111e557600080fd5b505af11580156111f9573d6000803e3d6000fd5b505060408051631504460f60e01b81527f4c52432d41000000000000000000000000000000000000000000000000000000600482015290517365c79fcb50ca1594b025960e539ed7a9a6d434a39350631504460f9250602480830192600092919082900301818387803b15801561126f57600080fd5b505af1158015611283573d6000803e3d6000fd5b505060408051631504460f60e01b81527f4554482d42000000000000000000000000000000000000000000000000000000600482015290517365c79fcb50ca1594b025960e539ed7a9a6d434a39350631504460f9250602480830192600092919082900301818387803b1580156112f957600080fd5b505af115801561130d573d6000803e3d6000fd5b505060408051631504460f60e01b81527f5946492d41000000000000000000000000000000000000000000000000000000600482015290517365c79fcb50ca1594b025960e539ed7a9a6d434a39350631504460f9250602480830192600092919082900301818387803b15801561138357600080fd5b505af1158015611397573d6000803e3d6000fd5b505060408051631504460f60e01b81527f42414c2d41000000000000000000000000000000000000000000000000000000600482015290517365c79fcb50ca1594b025960e539ed7a9a6d434a39350631504460f9250602480830192600092919082900301818387803b15801561015157600080fdfea26469706673582212207b66b9452fce96041b304d078399dc26ef54d998a2b93f0c06f32a2fefcc854e64736f6c634300060b0033"
  }
}