{"compiler":"v0.8.0+commit.c7dfd78e","opcodeHash":"0xb8bf65af448c3958ec0d03a375d265394b11fcfb4fc01a2d79334762c20f90c9","metalessHash":"0x74e666fc160f760167ab0c4073df17c489509406edae362e029e2072f7a33a80","runtimeHash":"0x31601b6561f585d2921ea4b2acf155638ff00b5aee513242e738fc90ceea3796","encodedMetadata":[{"ipfs":"/ipfs/QmYEBMNvSYw9BQxMAhZYTziKnNNanaMt2huQuiMr4bBdbR","solc":"0.8.0"}],"abi":[{"inputs":[{"internalType":"string","name":"_name","type":"string"},{"internalType":"string","name":"_symbol","type":"string"},{"internalType":"uint256","name":"_amount","type":"uint256"},{"internalType":"address payable","name":"_creator","type":"address"}],"stateMutability":"nonpayable","type":"constructor"},{"anonymous":false,"inputs":[{"indexed":true,"internalType":"address","name":"owner","type":"address"},{"indexed":true,"internalType":"address","name":"approved","type":"address"},{"indexed":true,"internalType":"uint256","name":"tokenId","type":"uint256"}],"name":"Approval","type":"event"},{"anonymous":false,"inputs":[{"indexed":true,"internalType":"address","name":"owner","type":"address"},{"indexed":true,"internalType":"address","name":"operator","type":"address"},{"indexed":false,"internalType":"bool","name":"approved","type":"bool"}],"name":"ApprovalForAll","type":"event"},{"anonymous":false,"inputs":[{"indexed":true,"internalType":"address","name":"to","type":"address"},{"indexed":true,"internalType":"uint256","name":"tokenId","type":"uint256"}],"name":"Mint","type":"event"},{"anonymous":false,"inputs":[{"indexed":true,"internalType":"address","name":"account","type":"address"}],"name":"MinterAdded","type":"event"},{"anonymous":false,"inputs":[{"indexed":true,"internalType":"address","name":"account","type":"address"}],"name":"MinterRemoved","type":"event"},{"anonymous":false,"inputs":[{"indexed":true,"internalType":"address","name":"previousOwner","type":"address"},{"indexed":true,"internalType":"address","name":"newOwner","type":"address"}],"name":"OwnershipTransferred","type":"event"},{"anonymous":false,"inputs":[{"indexed":true,"internalType":"address","name":"creator","type":"address"},{"indexed":true,"internalType":"address","name":"buyer","type":"address"},{"indexed":true,"internalType":"uint256","name":"amount","type":"uint256"}],"name":"RecievedRoyalties","type":"event"},{"anonymous":false,"inputs":[{"indexed":true,"internalType":"address","name":"from","type":"address"},{"indexed":true,"internalType":"address","name":"to","type":"address"},{"indexed":true,"internalType":"uint256","name":"tokenId","type":"uint256"}],"name":"Transfer","type":"event"},{"inputs":[{"internalType":"address","name":"account","type":"address"}],"name":"addMinter","outputs":[],"stateMutability":"nonpayable","type":"function"},{"inputs":[{"internalType":"address","name":"to","type":"address"},{"internalType":"uint256","name":"tokenId","type":"uint256"}],"name":"approve","outputs":[],"stateMutability":"nonpayable","type":"function"},{"inputs":[{"internalType":"address","name":"owner","type":"address"}],"name":"balanceOf","outputs":[{"internalType":"uint256","name":"","type":"uint256"}],"stateMutability":"view","type":"function"},{"inputs":[],"name":"baseExtension","outputs":[{"internalType":"string","name":"","type":"string"}],"stateMutability":"view","type":"function"},{"inputs":[],"name":"baseURI","outputs":[{"internalType":"string","name":"","type":"string"}],"stateMutability":"view","type":"function"},{"inputs":[{"internalType":"uint256","name":"tokenId","type":"uint256"}],"name":"getApproved","outputs":[{"internalType":"address","name":"","type":"address"}],"stateMutability":"view","type":"function"},{"inputs":[],"name":"hasRoyalties","outputs":[{"internalType":"bool","name":"","type":"bool"}],"stateMutability":"pure","type":"function"},{"inputs":[{"internalType":"address","name":"owner","type":"address"},{"internalType":"address","name":"operator","type":"address"}],"name":"isApprovedForAll","outputs":[{"internalType":"bool","name":"","type":"bool"}],"stateMutability":"view","type":"function"},{"inputs":[{"internalType":"address","name":"account","type":"address"}],"name":"isMinter","outputs":[{"internalType":"bool","name":"","type":"bool"}],"stateMutability":"view","type":"function"},{"inputs":[{"internalType":"address","name":"_to","type":"address"},{"internalType":"uint256","name":"_mintAmount","type":"uint256"}],"name":"mint","outputs":[{"internalType":"bool","name":"","type":"bool"}],"stateMutability":"nonpayable","type":"function"},{"inputs":[],"name":"name","outputs":[{"internalType":"string","name":"","type":"string"}],"stateMutability":"view","type":"function"},{"inputs":[],"name":"owner","outputs":[{"internalType":"address","name":"","type":"address"}],"stateMutability":"view","type":"function"},{"inputs":[{"internalType":"uint256","name":"tokenId","type":"uint256"}],"name":"ownerOf","outputs":[{"internalType":"address","name":"","type":"address"}],"stateMutability":"view","type":"function"},{"inputs":[],"name":"renounceMinter","outputs":[],"stateMutability":"nonpayable","type":"function"},{"inputs":[],"name":"renounceOwnership","outputs":[],"stateMutability":"nonpayable","type":"function"},{"inputs":[{"internalType":"address","name":"_creator","type":"address"},{"internalType":"address","name":"_buyer","type":"address"},{"internalType":"uint256","name":"_amount","type":"uint256"}],"name":"royaltiesRecieved","outputs":[],"stateMutability":"nonpayable","type":"function"},{"inputs":[],"name":"royaltyAmount","outputs":[{"internalType":"uint256","name":"","type":"uint256"}],"stateMutability":"view","type":"function"},{"inputs":[{"internalType":"uint256","name":"","type":"uint256"},{"internalType":"uint256","name":"_salePrice","type":"uint256"}],"name":"royaltyInfo","outputs":[{"internalType":"uint256","name":"","type":"uint256"},{"internalType":"address","name":"","type":"address"}],"stateMutability":"view","type":"function"},{"inputs":[{"internalType":"address","name":"from","type":"address"},{"internalType":"address","name":"to","type":"address"},{"internalType":"uint256","name":"tokenId","type":"uint256"}],"name":"safeTransferFrom","outputs":[],"stateMutability":"nonpayable","type":"function"},{"inputs":[{"internalType":"address","name":"from","type":"address"},{"internalType":"address","name":"to","type":"address"},{"internalType":"uint256","name":"tokenId","type":"uint256"},{"internalType":"bytes","name":"_data","type":"bytes"}],"name":"safeTransferFrom","outputs":[],"stateMutability":"nonpayable","type":"function"},{"inputs":[{"internalType":"address","name":"operator","type":"address"},{"internalType":"bool","name":"approved","type":"bool"}],"name":"setApprovalForAll","outputs":[],"stateMutability":"nonpayable","type":"function"},{"inputs":[{"internalType":"string","name":"_newBaseExtension","type":"string"}],"name":"setBaseExtension","outputs":[],"stateMutability":"nonpayable","type":"function"},{"inputs":[{"internalType":"string","name":"_newBaseURI","type":"string"}],"name":"setBaseURI","outputs":[],"stateMutability":"nonpayable","type":"function"},{"inputs":[{"internalType":"bytes4","name":"interfaceId","type":"bytes4"}],"name":"supportsInterface","outputs":[{"internalType":"bool","name":"","type":"bool"}],"stateMutability":"view","type":"function"},{"inputs":[],"name":"symbol","outputs":[{"internalType":"string","name":"","type":"string"}],"stateMutability":"view","type":"function"},{"inputs":[{"internalType":"uint256","name":"index","type":"uint256"}],"name":"tokenByIndex","outputs":[{"internalType":"uint256","name":"","type":"uint256"}],"stateMutability":"view","type":"function"},{"inputs":[{"internalType":"address","name":"owner","type":"address"},{"internalType":"uint256","name":"index","type":"uint256"}],"name":"tokenOfOwnerByIndex","outputs":[{"internalType":"uint256","name":"","type":"uint256"}],"stateMutability":"view","type":"function"},{"inputs":[{"internalType":"uint256","name":"tokenId","type":"uint256"}],"name":"tokenURI","outputs":[{"internalType":"string","name":"","type":"string"}],"stateMutability":"view","type":"function"},{"inputs":[],"name":"totalSupply","outputs":[{"internalType":"uint256","name":"","type":"uint256"}],"stateMutability":"view","type":"function"},{"inputs":[{"internalType":"address","name":"from","type":"address"},{"internalType":"address","name":"to","type":"address"},{"internalType":"uint256","name":"tokenId","type":"uint256"}],"name":"transferFrom","outputs":[],"stateMutability":"nonpayable","type":"function"},{"inputs":[{"internalType":"address","name":"newOwner","type":"address"}],"name":"transferOwnership","outputs":[],"stateMutability":"nonpayable","type":"function"},{"inputs":[{"internalType":"address","name":"_owner","type":"address"}],"name":"walletOfOwner","outputs":[{"internalType":"uint256[]","name":"","type":"uint256[]"}],"stateMutability":"view","type":"function"}],"bytecode":{"object":"60c06040526005608081905264173539b7b760d91b60a09081526200002891600e91906200025d565b506040518060600160405280603a815260200162002a70603a913980516200005991600f916020909101906200025d565b503480156200006757600080fd5b5060405162002aaa38038062002aaa8339810160408190526200008a91620003ae565b818185858160009080519060200190620000a69291906200025d565b508051620000bc9060019060208401906200025d565b5050506000620000d16200016260201b60201c565b600a80546001600160a01b0319166001600160a01b038316908117909155604051919250906000907f8be0079c531659141344cd1fd0a4f28419497f9722a3daafe3b4186f6b6457e0908290a350600b91909155600c80546001600160a01b0319166001600160a01b03909216919091179055620001586200015262000162565b62000166565b505050506200050b565b3390565b6200018181600d620001b860201b62000e3b1790919060201c565b6040516001600160a01b038216907f6ae172837ea30b801fbfcdd4108aa1d5bf8ff775444fd70256b44e6bf3dfc3f690600090a250565b620001c4828262000212565b15620001ed5760405162461bcd60e51b8152600401620001e4906200043f565b60405180910390fd5b6001600160a01b0316600090815260209190915260409020805460ff19166001179055565b60006001600160a01b0382166200023d5760405162461bcd60e51b8152600401620001e49062000476565b506001600160a01b03166000908152602091909152604090205460ff1690565b8280546200026b90620004b8565b90600052602060002090601f0160209004810192826200028f5760008555620002da565b82601f10620002aa57805160ff1916838001178555620002da565b82800160010185558215620002da579182015b82811115620002da578251825591602001919060010190620002bd565b50620002e8929150620002ec565b5090565b5b80821115620002e85760008155600101620002ed565b600082601f83011262000314578081fd5b81516001600160401b0380821115620003315762000331620004f5565b6040516020601f8401601f1916820181018381118382101715620003595762000359620004f5565b604052838252858401810187101562000370578485fd5b8492505b8383101562000393578583018101518284018201529182019162000374565b83831115620003a457848185840101525b5095945050505050565b60008060008060808587031215620003c4578384fd5b84516001600160401b0380821115620003db578586fd5b620003e98883890162000303565b95506020870151915080821115620003ff578485fd5b506200040e8782880162000303565b60408701516060880151919550935090506001600160a01b038116811462000434578182fd5b939692955090935050565b6020808252601f908201527f526f6c65733a206163636f756e7420616c72656164792068617320726f6c6500604082015260600190565b60208082526022908201527f526f6c65733a206163636f756e7420697320746865207a65726f206164647265604082015261737360f01b606082015260800190565b600281046001821680620004cd57607f821691505b60208210811415620004ef57634e487b7160e01b600052602260045260246000fd5b50919050565b634e487b7160e01b600052604160045260246000fd5b612555806200051b6000396000f3fe608060405234801561001057600080fd5b50600436106101f05760003560e01c806370a082311161010f578063a22cb465116100a2578063c87b56dd11610071578063c87b56dd146103f5578063da3ef23f14610408578063e985e9c51461041b578063f2fde38b1461042e576101f0565b8063a22cb465146103b4578063aa271e1a146103c7578063b88d4fde146103da578063c6682862146103ed576101f0565b80638da5cb5b116100de5780638da5cb5b1461038957806395d89b4114610391578063983b2d561461039957806398650275146103ac576101f0565b806370a0823114610353578063715018a6146103665780637c6e551d1461036e57806384a09c2714610376576101f0565b806340c10f191161018757806355f804b31161015657806355f804b31461031d5780636352211e14610330578063656605d6146103435780636c0360eb1461034b576101f0565b806340c10f19146102c457806342842e0e146102d7578063438b6300146102ea5780634f6ccce71461030a576101f0565b806318160ddd116101c357806318160ddd1461026857806323b872dd1461027d5780632a55205a146102905780632f745c59146102b1576101f0565b806301ffc9a7146101f557806306fdde031461021e578063081812fc14610233578063095ea7b314610253575b600080fd5b610208610203366004611af6565b610441565b6040516102159190611d30565b60405180910390f35b61022661046e565b6040516102159190611d3b565b610246610241366004611b74565b610500565b6040516102159190611c9b565b610266610261366004611acd565b61054c565b005b6102706105e4565b60405161021591906123a3565b61026661028b3660046119df565b6105ea565b6102a361029e366004611b8c565b610622565b6040516102159291906123ac565b6102706102bf366004611acd565b610660565b6102086102d2366004611acd565b6106b2565b6102666102e53660046119df565b61077f565b6102fd6102f8366004611993565b61079a565b6040516102159190611cec565b610270610318366004611b74565b610858565b61026661032b366004611b2e565b6108b3565b61024661033e366004611b74565b610909565b61020861093e565b610226610943565b610270610361366004611993565b6109d1565b610266610a15565b610270610a9e565b6102666103843660046119df565b610aa4565b610246610aea565b610226610af9565b6102666103a7366004611993565b610b08565b610266610b3b565b6102666103c2366004611a93565b610b4d565b6102086103d5366004611993565b610c1b565b6102666103e8366004611a1a565b610c28565b610226610c67565b610226610403366004611b74565b610c74565b610266610416366004611b2e565b610cfa565b6102086104293660046119ad565b610d4c565b61026661043c366004611993565b610d7a565b60006001600160e01b0319821663780e9d6360e01b1480610466575061046682610e87565b90505b919050565b60606000805461047d9061245d565b80601f01602080910402602001604051908101604052809291908181526020018280546104a99061245d565b80156104f65780601f106104cb576101008083540402835291602001916104f6565b820191906000526020600020905b8154815290600101906020018083116104d957829003601f168201915b5050505050905090565b600061050b82610ec7565b6105305760405162461bcd60e51b815260040161052790612167565b60405180910390fd5b506000908152600460205260409020546001600160a01b031690565b600061055782610909565b9050806001600160a01b0316836001600160a01b0316141561058b5760405162461bcd60e51b815260040161052790612273565b806001600160a01b031661059d610ee4565b6001600160a01b031614806105b957506105b981610429610ee4565b6105d55760405162461bcd60e51b815260040161052790611fb1565b6105df8383610ee8565b505050565b60085490565b6105fb6105f5610ee4565b82610f56565b6106175760405162461bcd60e51b8152600401610527906122b4565b6105df838383610fdb565b60008060006106476064610641600b548761110890919063ffffffff16565b90611114565b600c549093506001600160a01b03169150509250929050565b600061066b836109d1565b82106106895760405162461bcd60e51b815260040161052790611dd0565b506001600160a01b03919091166000908152600660209081526040808320938352929052205490565b60006106bf6103d5610ee4565b6106db5760405162461bcd60e51b8152600401610527906120a1565b600082116106fb5760405162461bcd60e51b815260040161052790611d4e565b60006107056105e4565b905060015b838111610774576107248561071f83856123cf565b611120565b61072e81836123cf565b6040516001600160a01b038716907f0f6798a560793a54c3bcfe86a93cde1e73087d944c0ea20544137d412139688590600090a38061076c81612498565b91505061070a565b506001949350505050565b6105df83838360405180602001604052806000815250610c28565b606060006107a7836109d1565b905060008167ffffffffffffffff8111156107d257634e487b7160e01b600052604160045260246000fd5b6040519080825280602002602001820160405280156107fb578160200160208202803683370190505b50905060005b82811015610850576108138582610660565b82828151811061083357634e487b7160e01b600052603260045260246000fd5b60209081029190910101528061084881612498565b915050610801565b509392505050565b60006108626105e4565b82106108805760405162461bcd60e51b815260040161052790612305565b600882815481106108a157634e487b7160e01b600052603260045260246000fd5b90600052602060002001549050919050565b6108bb610ee4565b6001600160a01b03166108cc610aea565b6001600160a01b0316146108f25760405162461bcd60e51b8152600401610527906121b3565b805161090590600f906020840190611873565b5050565b6000818152600260205260408120546001600160a01b0316806104665760405162461bcd60e51b815260040161052790612058565b600190565b600f80546109509061245d565b80601f016020809104026020016040519081016040528092919081815260200182805461097c9061245d565b80156109c95780601f1061099e576101008083540402835291602001916109c9565b820191906000526020600020905b8154815290600101906020018083116109ac57829003601f168201915b505050505081565b60006001600160a01b0382166109f95760405162461bcd60e51b81526004016105279061200e565b506001600160a01b031660009081526003602052604090205490565b610a1d610ee4565b6001600160a01b0316610a2e610aea565b6001600160a01b031614610a545760405162461bcd60e51b8152600401610527906121b3565b600a546040516000916001600160a01b0316907f8be0079c531659141344cd1fd0a4f28419497f9722a3daafe3b4186f6b6457e0908390a3600a80546001600160a01b0319169055565b600b5490565b80826001600160a01b0316846001600160a01b03167f06cb0b9d04d0ac2a93b9b9a93ee6c2511e069efb107c06eee43c85021fbc04ed60405160405180910390a4505050565b600a546001600160a01b031690565b60606001805461047d9061245d565b610b136103d5610ee4565b610b2f5760405162461bcd60e51b8152600401610527906120a1565b610b388161113a565b50565b610b4b610b46610ee4565b61117c565b565b610b55610ee4565b6001600160a01b0316826001600160a01b03161415610b865760405162461bcd60e51b815260040161052790611f2e565b8060056000610b93610ee4565b6001600160a01b03908116825260208083019390935260409182016000908120918716808252919093529120805460ff191692151592909217909155610bd7610ee4565b6001600160a01b03167f17307eab39ab6107e8899845ad3d59bd9653f200f220920489ca2b5937696c3183604051610c0f9190611d30565b60405180910390a35050565b6000610466600d836111be565b610c39610c33610ee4565b83610f56565b610c555760405162461bcd60e51b8152600401610527906122b4565b610c6184848484611206565b50505050565b600e80546109509061245d565b6060610c7f82610ec7565b610c9b5760405162461bcd60e51b815260040161052790612351565b6000610ca5611239565b90506000815111610cc55760405180602001604052806000815250610cf3565b80610ccf84611248565b600e604051602001610ce393929190611bd9565b6040516020818303038152906040525b9392505050565b610d02610ee4565b6001600160a01b0316610d13610aea565b6001600160a01b031614610d395760405162461bcd60e51b8152600401610527906121b3565b805161090590600e906020840190611873565b6001600160a01b03918216600090815260056020908152604080832093909416825291909152205460ff1690565b610d82610ee4565b6001600160a01b0316610d93610aea565b6001600160a01b031614610db95760405162461bcd60e51b8152600401610527906121b3565b6001600160a01b038116610ddf5760405162461bcd60e51b815260040161052790611e6d565b600a546040516001600160a01b038084169216907f8be0079c531659141344cd1fd0a4f28419497f9722a3daafe3b4186f6b6457e090600090a3600a80546001600160a01b0319166001600160a01b0392909216919091179055565b610e4582826111be565b15610e625760405162461bcd60e51b815260040161052790611d99565b6001600160a01b0316600090815260209190915260409020805460ff19166001179055565b60006001600160e01b031982166380ac58cd60e01b1480610eb857506001600160e01b03198216635b5e139f60e01b145b80610466575061046682611363565b6000908152600260205260409020546001600160a01b0316151590565b3390565b600081815260046020526040902080546001600160a01b0319166001600160a01b0384169081179091558190610f1d82610909565b6001600160a01b03167f8c5be1e5ebec7d5bd14f71427d1e84f3dd0314c0f7b2291e5b200ac8c7c3b92560405160405180910390a45050565b6000610f6182610ec7565b610f7d5760405162461bcd60e51b815260040161052790611f65565b6000610f8883610909565b9050806001600160a01b0316846001600160a01b03161480610fc35750836001600160a01b0316610fb884610500565b6001600160a01b0316145b80610fd35750610fd38185610d4c565b949350505050565b826001600160a01b0316610fee82610909565b6001600160a01b0316146110145760405162461bcd60e51b81526004016105279061222a565b6001600160a01b03821661103a5760405162461bcd60e51b815260040161052790611eea565b61104583838361137c565b611050600082610ee8565b6001600160a01b038316600090815260036020526040812080546001929061107990849061241a565b90915550506001600160a01b03821660009081526003602052604081208054600192906110a79084906123cf565b909155505060008181526002602052604080822080546001600160a01b0319166001600160a01b0386811691821790925591518493918716917fddf252ad1be2c89b69c2b068fc378daa952ba7f163c4a11628f55a4df523b3ef91a4505050565b6000610cf382846123fb565b6000610cf382846123e7565b610905828260405180602001604052806000815250611405565b611145600d82610e3b565b6040516001600160a01b038216907f6ae172837ea30b801fbfcdd4108aa1d5bf8ff775444fd70256b44e6bf3dfc3f690600090a250565b611187600d82611438565b6040516001600160a01b038216907fe94479a9f7e1952cc78f2d6baab678adc1b772d936c6583def489e524cb6669290600090a250565b60006001600160a01b0382166111e65760405162461bcd60e51b8152600401610527906121e8565b506001600160a01b03166000908152602091909152604090205460ff1690565b611211848484610fdb565b61121d84848484611480565b610c615760405162461bcd60e51b815260040161052790611e1b565b6060600f805461047d9061245d565b60608161126d57506040805180820190915260018152600360fc1b6020820152610469565b8160005b8115611297578061128181612498565b91506112909050600a836123e7565b9150611271565b60008167ffffffffffffffff8111156112c057634e487b7160e01b600052604160045260246000fd5b6040519080825280601f01601f1916602001820160405280156112ea576020820181803683370190505b5090505b8415610fd3576112ff60018361241a565b915061130c600a866124b3565b6113179060306123cf565b60f81b81838151811061133a57634e487b7160e01b600052603260045260246000fd5b60200101906001600160f81b031916908160001a90535061135c600a866123e7565b94506112ee565b6001600160e01b031981166301ffc9a760e01b14919050565b6113878383836105df565b6001600160a01b0383166113a35761139e81611590565b6113c6565b816001600160a01b0316836001600160a01b0316146113c6576113c683826115d4565b6001600160a01b0382166113e2576113dd81611671565b6105df565b826001600160a01b0316826001600160a01b0316146105df576105df828261174a565b61140f838361178e565b61141c6000848484611480565b6105df5760405162461bcd60e51b815260040161052790611e1b565b61144282826111be565b61145e5760405162461bcd60e51b8152600401610527906120f1565b6001600160a01b0316600090815260209190915260409020805460ff19169055565b6000611494846001600160a01b031661186d565b1561077457836001600160a01b031663150b7a026114b0610ee4565b8786866040518563ffffffff1660e01b81526004016114d29493929190611caf565b602060405180830381600087803b1580156114ec57600080fd5b505af192505050801561151c575060408051601f3d908101601f1916820190925261151991810190611b12565b60015b611576573d80801561154a576040519150601f19603f3d011682016040523d82523d6000602084013e61154f565b606091505b50805161156e5760405162461bcd60e51b815260040161052790611e1b565b805181602001fd5b6001600160e01b031916630a85bd0160e11b149050610fd3565b600880546000838152600960205260408120829055600182018355919091527ff3f7a9fe364faab93b216da50a3214154f22a0a2b415b23a84c8169e8b636ee30155565b600060016115e1846109d1565b6115eb919061241a565b60008381526007602052604090205490915080821461163e576001600160a01b03841660009081526006602090815260408083208584528252808320548484528184208190558352600790915290208190555b5060009182526007602090815260408084208490556001600160a01b039094168352600681528383209183525290812055565b6008546000906116839060019061241a565b600083815260096020526040812054600880549394509092849081106116b957634e487b7160e01b600052603260045260246000fd5b9060005260206000200154905080600883815481106116e857634e487b7160e01b600052603260045260246000fd5b600091825260208083209091019290925582815260099091526040808220849055858252812055600880548061172e57634e487b7160e01b600052603160045260246000fd5b6001900381819060005260206000200160009055905550505050565b6000611755836109d1565b6001600160a01b039093166000908152600660209081526040808320868452825280832085905593825260079052919091209190915550565b6001600160a01b0382166117b45760405162461bcd60e51b815260040161052790612132565b6117bd81610ec7565b156117da5760405162461bcd60e51b815260040161052790611eb3565b6117e66000838361137c565b6001600160a01b038216600090815260036020526040812080546001929061180f9084906123cf565b909155505060008181526002602052604080822080546001600160a01b0319166001600160a01b03861690811790915590518392907fddf252ad1be2c89b69c2b068fc378daa952ba7f163c4a11628f55a4df523b3ef908290a45050565b3b151590565b82805461187f9061245d565b90600052602060002090601f0160209004810192826118a157600085556118e7565b82601f106118ba57805160ff19168380011785556118e7565b828001600101855582156118e7579182015b828111156118e75782518255916020019190600101906118cc565b506118f39291506118f7565b5090565b5b808211156118f357600081556001016118f8565b600067ffffffffffffffff80841115611927576119276124f3565b604051601f8501601f19168101602001828111828210171561194b5761194b6124f3565b60405284815291508183850186101561196357600080fd5b8484602083013760006020868301015250509392505050565b80356001600160a01b038116811461046957600080fd5b6000602082840312156119a4578081fd5b610cf38261197c565b600080604083850312156119bf578081fd5b6119c88361197c565b91506119d66020840161197c565b90509250929050565b6000806000606084860312156119f3578081fd5b6119fc8461197c565b9250611a0a6020850161197c565b9150604084013590509250925092565b60008060008060808587031215611a2f578081fd5b611a388561197c565b9350611a466020860161197c565b925060408501359150606085013567ffffffffffffffff811115611a68578182fd5b8501601f81018713611a78578182fd5b611a878782356020840161190c565b91505092959194509250565b60008060408385031215611aa5578182fd5b611aae8361197c565b915060208301358015158114611ac2578182fd5b809150509250929050565b60008060408385031215611adf578182fd5b611ae88361197c565b946020939093013593505050565b600060208284031215611b07578081fd5b8135610cf381612509565b600060208284031215611b23578081fd5b8151610cf381612509565b600060208284031215611b3f578081fd5b813567ffffffffffffffff811115611b55578182fd5b8201601f81018413611b65578182fd5b610fd38482356020840161190c565b600060208284031215611b85578081fd5b5035919050565b60008060408385031215611b9e578182fd5b50508035926020909101359150565b60008151808452611bc5816020860160208601612431565b601f01601f19169290920160200192915050565b600084516020611bec8285838a01612431565b855191840191611bff8184848a01612431565b8554920191839060028104600180831680611c1b57607f831692505b858310811415611c3957634e487b7160e01b88526022600452602488fd5b808015611c4d5760018114611c5e57611c8a565b60ff19851688528388019550611c8a565b611c678b6123c3565b895b85811015611c825781548a820152908401908801611c69565b505083880195505b50939b9a5050505050505050505050565b6001600160a01b0391909116815260200190565b6001600160a01b0385811682528416602082015260408101839052608060608201819052600090611ce290830184611bad565b9695505050505050565b6020808252825182820181905260009190848201906040850190845b81811015611d2457835183529284019291840191600101611d08565b50909695505050505050565b901515815260200190565b600060208252610cf36020830184611bad565b6020808252602b908201527f536561547572746c654e4654546f6b656e3a206d696e74416d6f756e7420736860408201526a06f756c64206265203e20360ac1b606082015260800190565b6020808252601f908201527f526f6c65733a206163636f756e7420616c72656164792068617320726f6c6500604082015260600190565b6020808252602b908201527f455243373231456e756d657261626c653a206f776e657220696e646578206f7560408201526a74206f6620626f756e647360a81b606082015260800190565b60208082526032908201527f4552433732313a207472616e7366657220746f206e6f6e20455243373231526560408201527131b2b4bb32b91034b6b83632b6b2b73a32b960711b606082015260800190565b60208082526026908201527f4f776e61626c653a206e6577206f776e657220697320746865207a65726f206160408201526564647265737360d01b606082015260800190565b6020808252601c908201527f4552433732313a20746f6b656e20616c7265616479206d696e74656400000000604082015260600190565b60208082526024908201527f4552433732313a207472616e7366657220746f20746865207a65726f206164646040820152637265737360e01b606082015260800190565b60208082526019908201527f4552433732313a20617070726f766520746f2063616c6c657200000000000000604082015260600190565b6020808252602c908201527f4552433732313a206f70657261746f7220717565727920666f72206e6f6e657860408201526b34b9ba32b73a103a37b5b2b760a11b606082015260800190565b60208082526038908201527f4552433732313a20617070726f76652063616c6c6572206973206e6f74206f7760408201527f6e6572206e6f7220617070726f76656420666f7220616c6c0000000000000000606082015260800190565b6020808252602a908201527f4552433732313a2062616c616e636520717565727920666f7220746865207a65604082015269726f206164647265737360b01b606082015260800190565b60208082526029908201527f4552433732313a206f776e657220717565727920666f72206e6f6e657869737460408201526832b73a103a37b5b2b760b91b606082015260800190565b60208082526030908201527f4d696e746572526f6c653a2063616c6c657220646f6573206e6f74206861766560408201526f20746865204d696e74657220726f6c6560801b606082015260800190565b60208082526021908201527f526f6c65733a206163636f756e7420646f6573206e6f74206861766520726f6c6040820152606560f81b606082015260800190565b6020808252818101527f4552433732313a206d696e7420746f20746865207a65726f2061646472657373604082015260600190565b6020808252602c908201527f4552433732313a20617070726f76656420717565727920666f72206e6f6e657860408201526b34b9ba32b73a103a37b5b2b760a11b606082015260800190565b6020808252818101527f4f776e61626c653a2063616c6c6572206973206e6f7420746865206f776e6572604082015260600190565b60208082526022908201527f526f6c65733a206163636f756e7420697320746865207a65726f206164647265604082015261737360f01b606082015260800190565b60208082526029908201527f4552433732313a207472616e73666572206f6620746f6b656e2074686174206960408201526839903737ba1037bbb760b91b606082015260800190565b60208082526021908201527f4552433732313a20617070726f76616c20746f2063757272656e74206f776e656040820152603960f91b606082015260800190565b60208082526031908201527f4552433732313a207472616e736665722063616c6c6572206973206e6f74206f6040820152701ddb995c881b9bdc88185c1c1c9bdd9959607a1b606082015260800190565b6020808252602c908201527f455243373231456e756d657261626c653a20676c6f62616c20696e646578206f60408201526b7574206f6620626f756e647360a01b606082015260800190565b60208082526032908201527f536561547572746c654e4654546f6b656e3a2055524920717565727920666f72604082015271103737b732bc34b9ba32b73a103a37b5b2b760711b606082015260800190565b90815260200190565b9182526001600160a01b0316602082015260400190565b60009081526020902090565b600082198211156123e2576123e26124c7565b500190565b6000826123f6576123f66124dd565b500490565b6000816000190483118215151615612415576124156124c7565b500290565b60008282101561242c5761242c6124c7565b500390565b60005b8381101561244c578181015183820152602001612434565b83811115610c615750506000910152565b60028104600182168061247157607f821691505b6020821081141561249257634e487b7160e01b600052602260045260246000fd5b50919050565b60006000198214156124ac576124ac6124c7565b5060010190565b6000826124c2576124c26124dd565b500690565b634e487b7160e01b600052601160045260246000fd5b634e487b7160e01b600052601260045260246000fd5b634e487b7160e01b600052604160045260246000fd5b6001600160e01b031981168114610b3857600080fdfea2646970667358221220529db420e97f9fd17d1efe3f57779189d2dfcc6d30fb992fec93a329242319b064736f6c6343000800003368747470733a2f2f7365612d747572746c652d636f6c6c656374696f6e732e73332e75732d656173742d322e616d617a6f6e6177732e636f6d2f"}}