{
  "opcodeHash": "0xf9e066e1bb178c37a31db2c56c22d776a10227950b0d9d2a6a53e9375c27bd8b",
  "metalessHash": "0xe2312dfb6988a6283b2e8eebfcf085fd773ed3ad429c4d883009dff2e6019ca9",
  "runtimeHash": "0x70c60c48016398bd36e4f24603b380b4e54997158f4c48f611df0fa7e791c70b",
  "encodedMetadata": [
    {
      "ipfs": "/ipfs/QmXQMM7gANcchPAmfVSfEH5YnF4zAAVWF71vmrUbqYVaWX",
      "solc": "0.8.4"
    }
  ],
  "abi": [
    {
      "inputs": [
        {
          "internalType": "address payable",
          "name": "feeAddress1",
          "type": "address"
        },
        {
          "internalType": "address payable",
          "name": "feeAddress2",
          "type": "address"
        }
      ],
      "stateMutability": "nonpayable",
      "type": "constructor"
    },
    {
      "anonymous": false,
      "inputs": [
        {
          "indexed": true,
          "internalType": "address",
          "name": "owner",
          "type": "address"
        },
        {
          "indexed": true,
          "internalType": "address",
          "name": "spender",
          "type": "address"
        },
        {
          "indexed": false,
          "internalType": "uint256",
          "name": "value",
          "type": "uint256"
        }
      ],
      "name": "Approval",
      "type": "event"
    },
    {
      "anonymous": false,
      "inputs": [
        {
          "indexed": false,
          "internalType": "bool",
          "name": "_cooldown",
          "type": "bool"
        }
      ],
      "name": "CooldownEnabledUpdated",
      "type": "event"
    },
    {
      "anonymous": false,
      "inputs": [
        {
          "indexed": false,
          "internalType": "address",
          "name": "_feewallet1",
          "type": "address"
        }
      ],
      "name": "FeeAddress1Updated",
      "type": "event"
    },
    {
      "anonymous": false,
      "inputs": [
        {
          "indexed": false,
          "internalType": "address",
          "name": "_feewallet2",
          "type": "address"
        }
      ],
      "name": "FeeAddress2Updated",
      "type": "event"
    },
    {
      "anonymous": false,
      "inputs": [
        {
          "indexed": false,
          "internalType": "uint256",
          "name": "_maxBuyAmount",
          "type": "uint256"
        }
      ],
      "name": "MaxBuyAmountUpdated",
      "type": "event"
    },
    {
      "anonymous": false,
      "inputs": [
        {
          "indexed": true,
          "internalType": "address",
          "name": "previousOwner",
          "type": "address"
        },
        {
          "indexed": true,
          "internalType": "address",
          "name": "newOwner",
          "type": "address"
        }
      ],
      "name": "OwnershipTransferred",
      "type": "event"
    },
    {
      "anonymous": false,
      "inputs": [
        {
          "indexed": true,
          "internalType": "address",
          "name": "from",
          "type": "address"
        },
        {
          "indexed": true,
          "internalType": "address",
          "name": "to",
          "type": "address"
        },
        {
          "indexed": false,
          "internalType": "uint256",
          "name": "value",
          "type": "uint256"
        }
      ],
      "name": "Transfer",
      "type": "event"
    },
    {
      "anonymous": false,
      "inputs": [
        {
          "indexed": false,
          "internalType": "bool",
          "name": "_usefees",
          "type": "bool"
        }
      ],
      "name": "UseFeesBooleanUpdated",
      "type": "event"
    },
    {
      "inputs": [
        {
          "internalType": "address",
          "name": "owner",
          "type": "address"
        },
        {
          "internalType": "address",
          "name": "spender",
          "type": "address"
        }
      ],
      "name": "allowance",
      "outputs": [
        {
          "internalType": "uint256",
          "name": "",
          "type": "uint256"
        }
      ],
      "stateMutability": "view",
      "type": "function"
    },
    {
      "inputs": [
        {
          "internalType": "address",
          "name": "spender",
          "type": "address"
        },
        {
          "internalType": "uint256",
          "name": "amount",
          "type": "uint256"
        }
      ],
      "name": "approve",
      "outputs": [
        {
          "internalType": "bool",
          "name": "",
          "type": "bool"
        }
      ],
      "stateMutability": "nonpayable",
      "type": "function"
    },
    {
      "inputs": [],
      "name": "balanceContract",
      "outputs": [
        {
          "internalType": "uint256",
          "name": "",
          "type": "uint256"
        }
      ],
      "stateMutability": "view",
      "type": "function"
    },
    {
      "inputs": [
        {
          "internalType": "address",
          "name": "account",
          "type": "address"
        }
      ],
      "name": "balanceOf",
      "outputs": [
        {
          "internalType": "uint256",
          "name": "",
          "type": "uint256"
        }
      ],
      "stateMutability": "view",
      "type": "function"
    },
    {
      "inputs": [],
      "name": "balancePool",
      "outputs": [
        {
          "internalType": "uint256",
          "name": "",
          "type": "uint256"
        }
      ],
      "stateMutability": "view",
      "type": "function"
    },
    {
      "inputs": [],
      "name": "cooldownEnabled",
      "outputs": [
        {
          "internalType": "bool",
          "name": "",
          "type": "bool"
        }
      ],
      "stateMutability": "view",
      "type": "function"
    },
    {
      "inputs": [],
      "name": "decimals",
      "outputs": [
        {
          "internalType": "uint8",
          "name": "",
          "type": "uint8"
        }
      ],
      "stateMutability": "pure",
      "type": "function"
    },
    {
      "inputs": [],
      "name": "manualsend",
      "outputs": [],
      "stateMutability": "nonpayable",
      "type": "function"
    },
    {
      "inputs": [],
      "name": "manualswap",
      "outputs": [],
      "stateMutability": "nonpayable",
      "type": "function"
    },
    {
      "inputs": [],
      "name": "name",
      "outputs": [
        {
          "internalType": "string",
          "name": "",
          "type": "string"
        }
      ],
      "stateMutability": "pure",
      "type": "function"
    },
    {
      "inputs": [],
      "name": "openTrading",
      "outputs": [],
      "stateMutability": "nonpayable",
      "type": "function"
    },
    {
      "inputs": [],
      "name": "owner",
      "outputs": [
        {
          "internalType": "address",
          "name": "",
          "type": "address"
        }
      ],
      "stateMutability": "view",
      "type": "function"
    },
    {
      "inputs": [],
      "name": "renounceOwnership",
      "outputs": [],
      "stateMutability": "nonpayable",
      "type": "function"
    },
    {
      "inputs": [],
      "name": "setCooldownEnabled",
      "outputs": [],
      "stateMutability": "nonpayable",
      "type": "function"
    },
    {
      "inputs": [],
      "name": "symbol",
      "outputs": [
        {
          "internalType": "string",
          "name": "",
          "type": "string"
        }
      ],
      "stateMutability": "pure",
      "type": "function"
    },
    {
      "inputs": [],
      "name": "toggleFees",
      "outputs": [],
      "stateMutability": "nonpayable",
      "type": "function"
    },
    {
      "inputs": [],
      "name": "totalSupply",
      "outputs": [
        {
          "internalType": "uint256",
          "name": "",
          "type": "uint256"
        }
      ],
      "stateMutability": "pure",
      "type": "function"
    },
    {
      "inputs": [
        {
          "internalType": "address",
          "name": "recipient",
          "type": "address"
        },
        {
          "internalType": "uint256",
          "name": "amount",
          "type": "uint256"
        }
      ],
      "name": "transfer",
      "outputs": [
        {
          "internalType": "bool",
          "name": "",
          "type": "bool"
        }
      ],
      "stateMutability": "nonpayable",
      "type": "function"
    },
    {
      "inputs": [
        {
          "internalType": "address",
          "name": "sender",
          "type": "address"
        },
        {
          "internalType": "address",
          "name": "recipient",
          "type": "address"
        },
        {
          "internalType": "uint256",
          "name": "amount",
          "type": "uint256"
        }
      ],
      "name": "transferFrom",
      "outputs": [
        {
          "internalType": "bool",
          "name": "",
          "type": "bool"
        }
      ],
      "stateMutability": "nonpayable",
      "type": "function"
    },
    {
      "inputs": [
        {
          "internalType": "address",
          "name": "newAddress",
          "type": "address"
        }
      ],
      "name": "updateFeeAddress1",
      "outputs": [],
      "stateMutability": "nonpayable",
      "type": "function"
    },
    {
      "inputs": [
        {
          "internalType": "address",
          "name": "newAddress",
          "type": "address"
        }
      ],
      "name": "updateFeeAddress2",
      "outputs": [],
      "stateMutability": "nonpayable",
      "type": "function"
    },
    {
      "inputs": [],
      "name": "usingFees",
      "outputs": [
        {
          "internalType": "bool",
          "name": "",
          "type": "bool"
        }
      ],
      "stateMutability": "view",
      "type": "function"
    },
    {
      "inputs": [],
      "name": "whatIsFeeAddress1",
      "outputs": [
        {
          "internalType": "address",
          "name": "",
          "type": "address"
        }
      ],
      "stateMutability": "view",
      "type": "function"
    },
    {
      "inputs": [],
      "name": "whatIsFeeAddress2",
      "outputs": [
        {
          "internalType": "address",
          "name": "",
          "type": "address"
        }
      ],
      "stateMutability": "view",
      "type": "function"
    },
    {
      "stateMutability": "payable",
      "type": "receive"
    }
  ],
  "bytecode": {
    "object": "6080604052683635c9adc5dea000006000196200001d919062000577565b6000196200002c9190620004fe565b60075560016009556009600a55600954600b55600a54600c556001601360156101000a81548160ff0219169083151502179055506000601360166101000a81548160ff0219169083151502179055506001601360176101000a81548160ff021916908315150217905550348015620000a357600080fd5b5060405162003fac38038062003fac8339818101604052810190620000c991906200048f565b6000620000db6200044760201b60201c565b9050806000806101000a81548173ffffffffffffffffffffffffffffffffffffffff021916908373ffffffffffffffffffffffffffffffffffffffff1602179055508073ffffffffffffffffffffffffffffffffffffffff16600073ffffffffffffffffffffffffffffffffffffffff167f8be0079c531659141344cd1fd0a4f28419497f9722a3daafe3b4186f6b6457e060405160405180910390a35081601060006101000a81548173ffffffffffffffffffffffffffffffffffffffff021916908373ffffffffffffffffffffffffffffffffffffffff16021790555080601160006101000a81548173ffffffffffffffffffffffffffffffffffffffff021916908373ffffffffffffffffffffffffffffffffffffffff16021790555060075460026000620002126200044760201b60201c565b73ffffffffffffffffffffffffffffffffffffffff1673ffffffffffffffffffffffffffffffffffffffff16815260200190815260200160002081905550600160056000620002666200044f60201b60201c565b73ffffffffffffffffffffffffffffffffffffffff1673ffffffffffffffffffffffffffffffffffffffff16815260200190815260200160002060006101000a81548160ff0219169083151502179055506001600560003073ffffffffffffffffffffffffffffffffffffffff1673ffffffffffffffffffffffffffffffffffffffff16815260200190815260200160002060006101000a81548160ff0219169083151502179055506001600560008473ffffffffffffffffffffffffffffffffffffffff1673ffffffffffffffffffffffffffffffffffffffff16815260200190815260200160002060006101000a81548160ff0219169083151502179055506001600560008373ffffffffffffffffffffffffffffffffffffffff1673ffffffffffffffffffffffffffffffffffffffff16815260200190815260200160002060006101000a81548160ff021916908315150217905550620003cf6200044760201b60201c565b73ffffffffffffffffffffffffffffffffffffffff16600073ffffffffffffffffffffffffffffffffffffffff167fddf252ad1be2c89b69c2b068fc378daa952ba7f163c4a11628f55a4df523b3ef683635c9adc5dea00000604051620004379190620004e1565b60405180910390a3505062000627565b600033905090565b60008060009054906101000a900473ffffffffffffffffffffffffffffffffffffffff16905090565b60008151905062000489816200060d565b92915050565b60008060408385031215620004a357600080fd5b6000620004b38582860162000478565b9250506020620004c68582860162000478565b9150509250929050565b620004db816200056d565b82525050565b6000602082019050620004f86000830184620004d0565b92915050565b60006200050b826200056d565b915062000518836200056d565b9250828210156200052e576200052d620005af565b5b828203905092915050565b600062000546826200054d565b9050919050565b600073ffffffffffffffffffffffffffffffffffffffff82169050919050565b6000819050919050565b600062000584826200056d565b915062000591836200056d565b925082620005a457620005a3620005de565b5b828206905092915050565b7f4e487b7100000000000000000000000000000000000000000000000000000000600052601160045260246000fd5b7f4e487b7100000000000000000000000000000000000000000000000000000000600052601260045260246000fd5b620006188162000539565b81146200062457600080fd5b50565b61397580620006376000396000f3fe60806040526004361061014f5760003560e01c806370eb843b116100b6578063c3c8cd801161006f578063c3c8cd801461047d578063c4a8814f14610494578063c9567bf9146104bf578063dd62ed3e146104d6578063ddf5451214610513578063e63aff631461052a57610156565b806370eb843b1461037d578063715018a6146103a85780638da5cb5b146103bf57806395d89b41146103ea578063a9059cbb14610415578063a985ceef1461045257610156565b80632e82b8f3116101085780632e82b8f31461027f578063313ce567146102aa578063322a5e5f146102d557806350901617146103005780636fc3eaec1461032957806370a082311461034057610156565b806306fdde031461015b5780630802d2f6146101865780630853b3dc146101af578063095ea7b3146101da57806318160ddd1461021757806323b872dd1461024257610156565b3661015657005b600080fd5b34801561016757600080fd5b50610170610541565b60405161017d9190612ffd565b60405180910390f35b34801561019257600080fd5b506101ad60048036038101906101a89190612a66565b61057e565b005b3480156101bb57600080fd5b506101c461067c565b6040516101d19190612ef9565b60405180910390f35b3480156101e657600080fd5b5061020160048036038101906101fc9190612b43565b6106a6565b60405161020e9190612fe2565b60405180910390f35b34801561022357600080fd5b5061022c6106c4565b60405161023991906131df565b60405180910390f35b34801561024e57600080fd5b5061026960048036038101906102649190612af4565b6106d5565b6040516102769190612fe2565b60405180910390f35b34801561028b57600080fd5b506102946107ae565b6040516102a19190612fe2565b60405180910390f35b3480156102b657600080fd5b506102bf6107c5565b6040516102cc9190613254565b60405180910390f35b3480156102e157600080fd5b506102ea6107ce565b6040516102f791906131df565b60405180910390f35b34801561030c57600080fd5b5061032760048036038101906103229190612a66565b6107de565b005b34801561033557600080fd5b5061033e6108dc565b005b34801561034c57600080fd5b5061036760048036038101906103629190612a66565b61094e565b60405161037491906131df565b60405180910390f35b34801561038957600080fd5b5061039261099f565b60405161039f91906131df565b60405180910390f35b3480156103b457600080fd5b506103bd6109d1565b005b3480156103cb57600080fd5b506103d4610b24565b6040516103e19190612ef9565b60405180910390f35b3480156103f657600080fd5b506103ff610b4d565b60405161040c9190612ffd565b60405180910390f35b34801561042157600080fd5b5061043c60048036038101906104379190612b43565b610b8a565b6040516104499190612fe2565b60405180910390f35b34801561045e57600080fd5b50610467610ba8565b6040516104749190612fe2565b60405180910390f35b34801561048957600080fd5b50610492610bbf565b005b3480156104a057600080fd5b506104a9610c39565b6040516104b69190612ef9565b60405180910390f35b3480156104cb57600080fd5b506104d4610c63565b005b3480156104e257600080fd5b506104fd60048036038101906104f89190612ab8565b6111d4565b60405161050a91906131df565b60405180910390f35b34801561051f57600080fd5b5061052861125b565b005b34801561053657600080fd5b5061053f61131f565b005b60606040518060400160405280601481526020017f496620596f75204b6e6f7720596f75204b6e6f77000000000000000000000000815250905090565b601060009054906101000a900473ffffffffffffffffffffffffffffffffffffffff1673ffffffffffffffffffffffffffffffffffffffff166105bf6113f2565b73ffffffffffffffffffffffffffffffffffffffff16146105df57600080fd5b80601060006101000a81548173ffffffffffffffffffffffffffffffffffffffff021916908373ffffffffffffffffffffffffffffffffffffffff1602179055507f0e96f8986653644392af4a5daec8b04a389af0d497572173e63846ccd26c843c601060009054906101000a900473ffffffffffffffffffffffffffffffffffffffff166040516106719190612f14565b60405180910390a150565b6000601160009054906101000a900473ffffffffffffffffffffffffffffffffffffffff16905090565b60006106ba6106b36113f2565b84846113fa565b6001905092915050565b6000683635c9adc5dea00000905090565b60006106e28484846115c5565b6107a3846106ee6113f2565b61079e8560405180606001604052806028815260200161391860289139600460008b73ffffffffffffffffffffffffffffffffffffffff1673ffffffffffffffffffffffffffffffffffffffff16815260200190815260200160002060006107546113f2565b73ffffffffffffffffffffffffffffffffffffffff1673ffffffffffffffffffffffffffffffffffffffff16815260200190815260200160002054611e0c9092919063ffffffff16565b6113fa565b600190509392505050565b6000601360179054906101000a900460ff16905090565b60006009905090565b60006107d93061094e565b905090565b601160009054906101000a900473ffffffffffffffffffffffffffffffffffffffff1673ffffffffffffffffffffffffffffffffffffffff1661081f6113f2565b73ffffffffffffffffffffffffffffffffffffffff161461083f57600080fd5b80601160006101000a81548173ffffffffffffffffffffffffffffffffffffffff021916908373ffffffffffffffffffffffffffffffffffffffff1602179055507f96511497113ddf59712b28350d7457b9c300ab227616bd3b451745a395a53014601160009054906101000a900473ffffffffffffffffffffffffffffffffffffffff166040516108d19190612f14565b60405180910390a150565b601060009054906101000a900473ffffffffffffffffffffffffffffffffffffffff1673ffffffffffffffffffffffffffffffffffffffff1661091d6113f2565b73ffffffffffffffffffffffffffffffffffffffff161461093d57600080fd5b600047905061094b81611e70565b50565b6000610998600260008473ffffffffffffffffffffffffffffffffffffffff1673ffffffffffffffffffffffffffffffffffffffff16815260200190815260200160002054611f6b565b9050919050565b60006109cc601360009054906101000a900473ffffffffffffffffffffffffffffffffffffffff1661094e565b905090565b6109d96113f2565b73ffffffffffffffffffffffffffffffffffffffff1660008054906101000a900473ffffffffffffffffffffffffffffffffffffffff1673ffffffffffffffffffffffffffffffffffffffff1614610a66576040517f08c379a0000000000000000000000000000000000000000000000000000000008152600401610a5d906130ff565b60405180910390fd5b600073ffffffffffffffffffffffffffffffffffffffff1660008054906101000a900473ffffffffffffffffffffffffffffffffffffffff1673ffffffffffffffffffffffffffffffffffffffff167f8be0079c531659141344cd1fd0a4f28419497f9722a3daafe3b4186f6b6457e060405160405180910390a360008060006101000a81548173ffffffffffffffffffffffffffffffffffffffff021916908373ffffffffffffffffffffffffffffffffffffffff160217905550565b60008060009054906101000a900473ffffffffffffffffffffffffffffffffffffffff16905090565b60606040518060400160405280600581526020017f49594b594b000000000000000000000000000000000000000000000000000000815250905090565b6000610b9e610b976113f2565b84846115c5565b6001905092915050565b6000601360159054906101000a900460ff16905090565b601060009054906101000a900473ffffffffffffffffffffffffffffffffffffffff1673ffffffffffffffffffffffffffffffffffffffff16610c006113f2565b73ffffffffffffffffffffffffffffffffffffffff1614610c2057600080fd5b6000610c2b3061094e565b9050610c3681611fd9565b50565b6000601060009054906101000a900473ffffffffffffffffffffffffffffffffffffffff16905090565b610c6b6113f2565b73ffffffffffffffffffffffffffffffffffffffff1660008054906101000a900473ffffffffffffffffffffffffffffffffffffffff1673ffffffffffffffffffffffffffffffffffffffff1614610cf8576040517f08c379a0000000000000000000000000000000000000000000000000000000008152600401610cef906130ff565b60405180910390fd5b601360149054906101000a900460ff1615610d48576040517f08c379a0000000000000000000000000000000000000000000000000000000008152600401610d3f9061319f565b60405180910390fd5b6000737a250d5630b4cf539739df2c5dacb4c659f2488d905080601260006101000a81548173ffffffffffffffffffffffffffffffffffffffff021916908373ffffffffffffffffffffffffffffffffffffffff160217905550610dd830601260009054906101000a900473ffffffffffffffffffffffffffffffffffffffff16683635c9adc5dea000006113fa565b8073ffffffffffffffffffffffffffffffffffffffff1663c45a01556040518163ffffffff1660e01b815260040160206040518083038186803b158015610e1e57600080fd5b505afa158015610e32573d6000803e3d6000fd5b505050506040513d601f19601f82011682018060405250810190610e569190612a8f565b73ffffffffffffffffffffffffffffffffffffffff1663c9c65396308373ffffffffffffffffffffffffffffffffffffffff1663ad5c46486040518163ffffffff1660e01b815260040160206040518083038186803b158015610eb857600080fd5b505afa158015610ecc573d6000803e3d6000fd5b505050506040513d601f19601f82011682018060405250810190610ef09190612a8f565b6040518363ffffffff1660e01b8152600401610f0d929190612f2f565b602060405180830381600087803b158015610f2757600080fd5b505af1158015610f3b573d6000803e3d6000fd5b505050506040513d601f19601f82011682018060405250810190610f5f9190612a8f565b601360006101000a81548173ffffffffffffffffffffffffffffffffffffffff021916908373ffffffffffffffffffffffffffffffffffffffff160217905550601260009054906101000a900473ffffffffffffffffffffffffffffffffffffffff1673ffffffffffffffffffffffffffffffffffffffff1663f305d7194730610fe83061094e565b600080610ff3610b24565b426040518863ffffffff1660e01b815260040161101596959493929190612f81565b6060604051808303818588803b15801561102e57600080fd5b505af1158015611042573d6000803e3d6000fd5b50505050506040513d601f19601f820116820180604052508101906110679190612ba8565b505050674563918244f40000600e819055506802b5e3af16b1880000600f8190555060784261109691906132c4565b60148190555061a8c0426110aa91906132c4565b601581905550610e10426110be91906132c4565b600d819055506001601360146101000a81548160ff021916908315150217905550601360009054906101000a900473ffffffffffffffffffffffffffffffffffffffff1673ffffffffffffffffffffffffffffffffffffffff1663095ea7b3601260009054906101000a900473ffffffffffffffffffffffffffffffffffffffff167fffffffffffffffffffffffffffffffffffffffffffffffffffffffffffffffff6040518363ffffffff1660e01b815260040161117e929190612f58565b602060405180830381600087803b15801561119857600080fd5b505af11580156111ac573d6000803e3d6000fd5b505050506040513d601f19601f820116820180604052508101906111d09190612b7f565b5050565b6000600460008473ffffffffffffffffffffffffffffffffffffffff1673ffffffffffffffffffffffffffffffffffffffff16815260200190815260200160002060008373ffffffffffffffffffffffffffffffffffffffff1673ffffffffffffffffffffffffffffffffffffffff16815260200190815260200160002054905092915050565b601060009054906101000a900473ffffffffffffffffffffffffffffffffffffffff1673ffffffffffffffffffffffffffffffffffffffff1661129c6113f2565b73ffffffffffffffffffffffffffffffffffffffff16146112bc57600080fd5b6000601360176101000a81548160ff0219169083151502179055507f875ab13664b130e9f02c6927ebda6944d90a0f0db6c0fdb7cc7ec5f85ed630b8601360179054906101000a900460ff166040516113159190612fe2565b60405180910390a1565b601060009054906101000a900473ffffffffffffffffffffffffffffffffffffffff1673ffffffffffffffffffffffffffffffffffffffff166113606113f2565b73ffffffffffffffffffffffffffffffffffffffff161461138057600080fd5b601360159054906101000a900460ff1615601360156101000a81548160ff0219169083151502179055507f0d63187a8abb5b4d1bb562e1163897386b0a88ee72e0799dd105bd0fd6f28706601360159054906101000a900460ff166040516113e89190612fe2565b60405180910390a1565b600033905090565b600073ffffffffffffffffffffffffffffffffffffffff168373ffffffffffffffffffffffffffffffffffffffff16141561146a576040517f08c379a00000000000000000000000000000000000000000000000000000000081526004016114619061317f565b60405180910390fd5b600073ffffffffffffffffffffffffffffffffffffffff168273ffffffffffffffffffffffffffffffffffffffff1614156114da576040517f08c379a00000000000000000000000000000000000000000000000000000000081526004016114d19061305f565b60405180910390fd5b80600460008573ffffffffffffffffffffffffffffffffffffffff1673ffffffffffffffffffffffffffffffffffffffff16815260200190815260200160002060008473ffffffffffffffffffffffffffffffffffffffff1673ffffffffffffffffffffffffffffffffffffffff168152602001908152602001600020819055508173ffffffffffffffffffffffffffffffffffffffff168373ffffffffffffffffffffffffffffffffffffffff167f8c5be1e5ebec7d5bd14f71427d1e84f3dd0314c0f7b2291e5b200ac8c7c3b925836040516115b891906131df565b60405180910390a3505050565b600073ffffffffffffffffffffffffffffffffffffffff168373ffffffffffffffffffffffffffffffffffffffff161415611635576040517f08c379a000000000000000000000000000000000000000000000000000000000815260040161162c9061313f565b60405180910390fd5b600073ffffffffffffffffffffffffffffffffffffffff168273ffffffffffffffffffffffffffffffffffffffff1614156116a5576040517f08c379a000000000000000000000000000000000000000000000000000000000815260040161169c9061301f565b60405180910390fd5b600081116116e8576040517f08c379a00000000000000000000000000000000000000000000000000000000081526004016116df9061311f565b60405180910390fd5b6000600190506116f6610b24565b73ffffffffffffffffffffffffffffffffffffffff168473ffffffffffffffffffffffffffffffffffffffff16141580156117645750611734610b24565b73ffffffffffffffffffffffffffffffffffffffff168373ffffffffffffffffffffffffffffffffffffffff1614155b15611d3757601360159054906101000a900460ff161561186a57600660003373ffffffffffffffffffffffffffffffffffffffff1673ffffffffffffffffffffffffffffffffffffffff16815260200190815260200160002060020160009054906101000a900460ff16611869576040518060600160405280600081526020016000815260200160011515815250600660003373ffffffffffffffffffffffffffffffffffffffff1673ffffffffffffffffffffffffffffffffffffffff168152602001908152602001600020600082015181600001556020820151816001015560408201518160020160006101000a81548160ff0219169083151502179055509050505b5b601360009054906101000a900473ffffffffffffffffffffffffffffffffffffffff1673ffffffffffffffffffffffffffffffffffffffff168473ffffffffffffffffffffffffffffffffffffffff161480156119155750601260009054906101000a900473ffffffffffffffffffffffffffffffffffffffff1673ffffffffffffffffffffffffffffffffffffffff168373ffffffffffffffffffffffffffffffffffffffff1614155b801561196b5750600560008473ffffffffffffffffffffffffffffffffffffffff1673ffffffffffffffffffffffffffffffffffffffff16815260200190815260200160002060009054906101000a900460ff16155b15611baa5760016009819055506009600a81905550601360149054906101000a900460ff166119cf576040517f08c379a00000000000000000000000000000000000000000000000000000000081526004016119c6906131bf565b60405180910390fd5b426015541115611a3957600f546119f76119e88561094e565b846122d390919063ffffffff16565b1115611a38576040517f08c379a0000000000000000000000000000000000000000000000000000000008152600401611a2f9061315f565b60405180910390fd5b5b601360159054906101000a900460ff1615611b4057426014541115611b3f57600e54821115611a6757600080fd5b42600660008573ffffffffffffffffffffffffffffffffffffffff1673ffffffffffffffffffffffffffffffffffffffff1681526020019081526020016000206000015410611aeb576040517f08c379a0000000000000000000000000000000000000000000000000000000008152600401611ae29061307f565b60405180910390fd5b601e42611af891906132c4565b600660008573ffffffffffffffffffffffffffffffffffffffff1673ffffffffffffffffffffffffffffffffffffffff168152602001908152602001600020600001819055505b5b601360159054906101000a900460ff1615611ba957600f42611b6291906132c4565b600660008573ffffffffffffffffffffffffffffffffffffffff1673ffffffffffffffffffffffffffffffffffffffff168152602001908152602001600020600101819055505b5b6000611bb53061094e565b9050601360169054906101000a900460ff16158015611c225750601360009054906101000a900473ffffffffffffffffffffffffffffffffffffffff1673ffffffffffffffffffffffffffffffffffffffff168573ffffffffffffffffffffffffffffffffffffffff1614155b8015611c3a5750601360149054906101000a900460ff165b15611d35576001915060016009819055506009600a8190555042600d541115611c6e576003600981905550600c600a819055505b601360159054906101000a900460ff1615611d085742600660008773ffffffffffffffffffffffffffffffffffffffff1673ffffffffffffffffffffffffffffffffffffffff1681526020019081526020016000206001015410611d07576040517f08c379a0000000000000000000000000000000000000000000000000000000008152600401611cfe906130bf565b60405180910390fd5b5b6000811115611d1b57611d1a81611fd9565b5b60004790506000811115611d3357611d3247611e70565b5b505b505b600560008573ffffffffffffffffffffffffffffffffffffffff1673ffffffffffffffffffffffffffffffffffffffff16815260200190815260200160002060009054906101000a900460ff1680611dd85750600560008473ffffffffffffffffffffffffffffffffffffffff1673ffffffffffffffffffffffffffffffffffffffff16815260200190815260200160002060009054906101000a900460ff165b80611df05750601360179054906101000a900460ff16155b15611dfa57600090505b611e0684848484612331565b50505050565b6000838311158290611e54576040517f08c379a0000000000000000000000000000000000000000000000000000000008152600401611e4b9190612ffd565b60405180910390fd5b5060008385611e6391906133a5565b9050809150509392505050565b601060009054906101000a900473ffffffffffffffffffffffffffffffffffffffff1673ffffffffffffffffffffffffffffffffffffffff166108fc611ec060028461235e90919063ffffffff16565b9081150290604051600060405180830381858888f19350505050158015611eeb573d6000803e3d6000fd5b50601160009054906101000a900473ffffffffffffffffffffffffffffffffffffffff1673ffffffffffffffffffffffffffffffffffffffff166108fc611f3c60028461235e90919063ffffffff16565b9081150290604051600060405180830381858888f19350505050158015611f67573d6000803e3d6000fd5b5050565b6000600754821115611fb2576040517f08c379a0000000000000000000000000000000000000000000000000000000008152600401611fa99061303f565b60405180910390fd5b6000611fbc6123a8565b9050611fd1818461235e90919063ffffffff16565b915050919050565b6001601360166101000a81548160ff0219169083151502179055506000600267ffffffffffffffff811115612037577f4e487b7100000000000000000000000000000000000000000000000000000000600052604160045260246000fd5b6040519080825280602002602001820160405280156120655781602001602082028036833780820191505090505b50905030816000815181106120a3577f4e487b7100000000000000000000000000000000000000000000000000000000600052603260045260246000fd5b602002602001019073ffffffffffffffffffffffffffffffffffffffff16908173ffffffffffffffffffffffffffffffffffffffff1681525050601260009054906101000a900473ffffffffffffffffffffffffffffffffffffffff1673ffffffffffffffffffffffffffffffffffffffff1663ad5c46486040518163ffffffff1660e01b815260040160206040518083038186803b15801561214557600080fd5b505afa158015612159573d6000803e3d6000fd5b505050506040513d601f19601f8201168201806040525081019061217d9190612a8f565b816001815181106121b7577f4e487b7100000000000000000000000000000000000000000000000000000000600052603260045260246000fd5b602002602001019073ffffffffffffffffffffffffffffffffffffffff16908173ffffffffffffffffffffffffffffffffffffffff168152505061221e30601260009054906101000a900473ffffffffffffffffffffffffffffffffffffffff16846113fa565b601260009054906101000a900473ffffffffffffffffffffffffffffffffffffffff1673ffffffffffffffffffffffffffffffffffffffff1663791ac9478360008430426040518663ffffffff1660e01b81526004016122829594939291906131fa565b600060405180830381600087803b15801561229c57600080fd5b505af11580156122b0573d6000803e3d6000fd5b50505050506000601360166101000a81548160ff02191690831515021790555050565b60008082846122e291906132c4565b905083811015612327576040517f08c379a000000000000000000000000000000000000000000000000000000000815260040161231e9061309f565b60405180910390fd5b8091505092915050565b8061233f5761233e6123d3565b5b61234a848484612416565b80612358576123576125e1565b5b50505050565b60006123a083836040518060400160405280601a81526020017f536166654d6174683a206469766973696f6e206279207a65726f0000000000008152506125f5565b905092915050565b60008060006123b5612658565b915091506123cc818361235e90919063ffffffff16565b9250505090565b60006009541480156123e757506000600a54145b156123f157612414565b600954600b81905550600a54600c8190555060006009819055506000600a819055505b565b600080600080600080612428876126ba565b95509550955095509550955061248686600260008c73ffffffffffffffffffffffffffffffffffffffff1673ffffffffffffffffffffffffffffffffffffffff1681526020019081526020016000205461272290919063ffffffff16565b600260008b73ffffffffffffffffffffffffffffffffffffffff1673ffffffffffffffffffffffffffffffffffffffff1681526020019081526020016000208190555061251b85600260008b73ffffffffffffffffffffffffffffffffffffffff1673ffffffffffffffffffffffffffffffffffffffff168152602001908152602001600020546122d390919063ffffffff16565b600260008a73ffffffffffffffffffffffffffffffffffffffff1673ffffffffffffffffffffffffffffffffffffffff168152602001908152602001600020819055506125678161276c565b6125718483612829565b8773ffffffffffffffffffffffffffffffffffffffff168973ffffffffffffffffffffffffffffffffffffffff167fddf252ad1be2c89b69c2b068fc378daa952ba7f163c4a11628f55a4df523b3ef856040516125ce91906131df565b60405180910390a3505050505050505050565b600b54600981905550600c54600a81905550565b6000808311829061263c576040517f08c379a00000000000000000000000000000000000000000000000000000000081526004016126339190612ffd565b60405180910390fd5b506000838561264b919061331a565b9050809150509392505050565b600080600060075490506000683635c9adc5dea00000905061268e683635c9adc5dea0000060075461235e90919063ffffffff16565b8210156126ad57600754683635c9adc5dea000009350935050506126b6565b81819350935050505b9091565b60008060008060008060008060006126d78a600954600a54612863565b92509250925060006126e76123a8565b905060008060006126fa8e8787876128f9565b9250925092508282828989899c509c509c509c509c509c505050505050505091939550919395565b600061276483836040518060400160405280601e81526020017f536166654d6174683a207375627472616374696f6e206f766572666c6f770000815250611e0c565b905092915050565b60006127766123a8565b9050600061278d828461298290919063ffffffff16565b90506127e181600260003073ffffffffffffffffffffffffffffffffffffffff1673ffffffffffffffffffffffffffffffffffffffff168152602001908152602001600020546122d390919063ffffffff16565b600260003073ffffffffffffffffffffffffffffffffffffffff1673ffffffffffffffffffffffffffffffffffffffff16815260200190815260200160002081905550505050565b61283e8260075461272290919063ffffffff16565b600781905550612859816008546122d390919063ffffffff16565b6008819055505050565b60008060008061288f6064612881888a61298290919063ffffffff16565b61235e90919063ffffffff16565b905060006128b960646128ab888b61298290919063ffffffff16565b61235e90919063ffffffff16565b905060006128e2826128d4858c61272290919063ffffffff16565b61272290919063ffffffff16565b905080838395509550955050505093509350939050565b600080600080612912858961298290919063ffffffff16565b90506000612929868961298290919063ffffffff16565b90506000612940878961298290919063ffffffff16565b905060006129698261295b858761272290919063ffffffff16565b61272290919063ffffffff16565b9050838184965096509650505050509450945094915050565b60008083141561299557600090506129f7565b600082846129a3919061334b565b90508284826129b2919061331a565b146129f2576040517f08c379a00000000000000000000000000000000000000000000000000000000081526004016129e9906130df565b60405180910390fd5b809150505b92915050565b600081359050612a0c816138d2565b92915050565b600081519050612a21816138d2565b92915050565b600081519050612a36816138e9565b92915050565b600081359050612a4b81613900565b92915050565b600081519050612a6081613900565b92915050565b600060208284031215612a7857600080fd5b6000612a86848285016129fd565b91505092915050565b600060208284031215612aa157600080fd5b6000612aaf84828501612a12565b91505092915050565b60008060408385031215612acb57600080fd5b6000612ad9858286016129fd565b9250506020612aea858286016129fd565b9150509250929050565b600080600060608486031215612b0957600080fd5b6000612b17868287016129fd565b9350506020612b28868287016129fd565b9250506040612b3986828701612a3c565b9150509250925092565b60008060408385031215612b5657600080fd5b6000612b64858286016129fd565b9250506020612b7585828601612a3c565b9150509250929050565b600060208284031215612b9157600080fd5b6000612b9f84828501612a27565b91505092915050565b600080600060608486031215612bbd57600080fd5b6000612bcb86828701612a51565b9350506020612bdc86828701612a51565b9250506040612bed86828701612a51565b9150509250925092565b6000612c038383612c1e565b60208301905092915050565b612c188161342e565b82525050565b612c27816133d9565b82525050565b612c36816133d9565b82525050565b6000612c478261327f565b612c5181856132a2565b9350612c5c8361326f565b8060005b83811015612c8d578151612c748882612bf7565b9750612c7f83613295565b925050600181019050612c60565b5085935050505092915050565b612ca3816133eb565b82525050565b612cb281613440565b82525050565b6000612cc38261328a565b612ccd81856132b3565b9350612cdd818560208601613476565b612ce681613507565b840191505092915050565b6000612cfe6023836132b3565b9150612d0982613518565b604082019050919050565b6000612d21602a836132b3565b9150612d2c82613567565b604082019050919050565b6000612d446022836132b3565b9150612d4f826135b6565b604082019050919050565b6000612d676022836132b3565b9150612d7282613605565b604082019050919050565b6000612d8a601b836132b3565b9150612d9582613654565b602082019050919050565b6000612dad6023836132b3565b9150612db88261367d565b604082019050919050565b6000612dd06021836132b3565b9150612ddb826136cc565b604082019050919050565b6000612df36020836132b3565b9150612dfe8261371b565b602082019050919050565b6000612e166029836132b3565b9150612e2182613744565b604082019050919050565b6000612e396025836132b3565b9150612e4482613793565b604082019050919050565b6000612e5c6027836132b3565b9150612e67826137e2565b604082019050919050565b6000612e7f6024836132b3565b9150612e8a82613831565b604082019050919050565b6000612ea26017836132b3565b9150612ead82613880565b602082019050919050565b6000612ec56018836132b3565b9150612ed0826138a9565b602082019050919050565b612ee481613417565b82525050565b612ef381613421565b82525050565b6000602082019050612f0e6000830184612c2d565b92915050565b6000602082019050612f296000830184612c0f565b92915050565b6000604082019050612f446000830185612c2d565b612f516020830184612c2d565b9392505050565b6000604082019050612f6d6000830185612c2d565b612f7a6020830184612edb565b9392505050565b600060c082019050612f966000830189612c2d565b612fa36020830188612edb565b612fb06040830187612ca9565b612fbd6060830186612ca9565b612fca6080830185612c2d565b612fd760a0830184612edb565b979650505050505050565b6000602082019050612ff76000830184612c9a565b92915050565b600060208201905081810360008301526130178184612cb8565b905092915050565b6000602082019050818103600083015261303881612cf1565b9050919050565b6000602082019050818103600083015261305881612d14565b9050919050565b6000602082019050818103600083015261307881612d37565b9050919050565b6000602082019050818103600083015261309881612d5a565b9050919050565b600060208201905081810360008301526130b881612d7d565b9050919050565b600060208201905081810360008301526130d881612da0565b9050919050565b600060208201905081810360008301526130f881612dc3565b9050919050565b6000602082019050818103600083015261311881612de6565b9050919050565b6000602082019050818103600083015261313881612e09565b9050919050565b6000602082019050818103600083015261315881612e2c565b9050919050565b6000602082019050818103600083015261317881612e4f565b9050919050565b6000602082019050818103600083015261319881612e72565b9050919050565b600060208201905081810360008301526131b881612e95565b9050919050565b600060208201905081810360008301526131d881612eb8565b9050919050565b60006020820190506131f46000830184612edb565b92915050565b600060a08201905061320f6000830188612edb565b61321c6020830187612ca9565b818103604083015261322e8186612c3c565b905061323d6060830185612c2d565b61324a6080830184612edb565b9695505050505050565b60006020820190506132696000830184612eea565b92915050565b6000819050602082019050919050565b600081519050919050565b600081519050919050565b6000602082019050919050565b600082825260208201905092915050565b600082825260208201905092915050565b60006132cf82613417565b91506132da83613417565b9250827fffffffffffffffffffffffffffffffffffffffffffffffffffffffffffffffff0382111561330f5761330e6134a9565b5b828201905092915050565b600061332582613417565b915061333083613417565b9250826133405761333f6134d8565b5b828204905092915050565b600061335682613417565b915061336183613417565b9250817fffffffffffffffffffffffffffffffffffffffffffffffffffffffffffffffff048311821515161561339a576133996134a9565b5b828202905092915050565b60006133b082613417565b91506133bb83613417565b9250828210156133ce576133cd6134a9565b5b828203905092915050565b60006133e4826133f7565b9050919050565b60008115159050919050565b600073ffffffffffffffffffffffffffffffffffffffff82169050919050565b6000819050919050565b600060ff82169050919050565b600061343982613452565b9050919050565b600061344b82613417565b9050919050565b600061345d82613464565b9050919050565b600061346f826133f7565b9050919050565b60005b83811015613494578082015181840152602081019050613479565b838111156134a3576000848401525b50505050565b7f4e487b7100000000000000000000000000000000000000000000000000000000600052601160045260246000fd5b7f4e487b7100000000000000000000000000000000000000000000000000000000600052601260045260246000fd5b6000601f19601f8301169050919050565b7f45524332303a207472616e7366657220746f20746865207a65726f206164647260008201527f6573730000000000000000000000000000000000000000000000000000000000602082015250565b7f416d6f756e74206d757374206265206c657373207468616e20746f74616c207260008201527f65666c656374696f6e7300000000000000000000000000000000000000000000602082015250565b7f45524332303a20617070726f766520746f20746865207a65726f20616464726560008201527f7373000000000000000000000000000000000000000000000000000000000000602082015250565b7f596f75722062757920636f6f6c646f776e20686173206e6f742065787069726560008201527f642e000000000000000000000000000000000000000000000000000000000000602082015250565b7f536166654d6174683a206164646974696f6e206f766572666c6f770000000000600082015250565b7f596f75722073656c6c20636f6f6c646f776e20686173206e6f7420657870697260008201527f65642e0000000000000000000000000000000000000000000000000000000000602082015250565b7f536166654d6174683a206d756c7469706c69636174696f6e206f766572666c6f60008201527f7700000000000000000000000000000000000000000000000000000000000000602082015250565b7f4f776e61626c653a2063616c6c6572206973206e6f7420746865206f776e6572600082015250565b7f5472616e7366657220616d6f756e74206d75737420626520677265617465722060008201527f7468616e207a65726f0000000000000000000000000000000000000000000000602082015250565b7f45524332303a207472616e736665722066726f6d20746865207a65726f20616460008201527f6472657373000000000000000000000000000000000000000000000000000000602082015250565b7f596f752063616e2774206f776e2074686174206d616e7920746f6b656e73206160008201527f74206f6e63652e00000000000000000000000000000000000000000000000000602082015250565b7f45524332303a20617070726f76652066726f6d20746865207a65726f2061646460008201527f7265737300000000000000000000000000000000000000000000000000000000602082015250565b7f74726164696e6720697320616c7265616479206f70656e000000000000000000600082015250565b7f54726164696e67206e6f742079657420656e61626c65642e0000000000000000600082015250565b6138db816133d9565b81146138e657600080fd5b50565b6138f2816133eb565b81146138fd57600080fd5b50565b61390981613417565b811461391457600080fd5b5056fe45524332303a207472616e7366657220616d6f756e74206578636565647320616c6c6f77616e6365a26469706673582212205712cf07e276af7abdae220006ccc511e1c8ec2d61c6a91bdc14fc959801cd4d64736f6c63430008040033"
  }
}