{"compiler":"v0.6.12+commit.27d51765","opcodeHash":"0x1360d3efe5fb6cf50d860e7f7e21f760fbf26e020f51c631b95ed2137997d6c4","metalessHash":"0xe2d751a0bad29bff628ee7ccf32bebcdf09e98b5b84cdcddb1875efb58b817f4","runtimeHash":"0x7c03b9ecc953f7ce74078c878220c662af46cae15a36e216457c0e9d8993f648","encodedMetadata":[{"ipfs":"/ipfs/Qmb21v9foaaLbFEPAzDn5TsjgMkkgVvvnhJK2it77V3jtV","solc":"0.6.12"}],"abi":[{"inputs":[{"internalType":"address payable","name":"charityWalletAddress","type":"address"},{"internalType":"address payable","name":"marketingWalletAddress","type":"address"}],"stateMutability":"nonpayable","type":"constructor"},{"anonymous":false,"inputs":[{"indexed":true,"internalType":"address","name":"owner","type":"address"},{"indexed":true,"internalType":"address","name":"spender","type":"address"},{"indexed":false,"internalType":"uint256","name":"value","type":"uint256"}],"name":"Approval","type":"event"},{"anonymous":false,"inputs":[{"indexed":false,"internalType":"uint256","name":"minTokensBeforeSwap","type":"uint256"}],"name":"MinTokensBeforeSwapUpdated","type":"event"},{"anonymous":false,"inputs":[{"indexed":true,"internalType":"address","name":"previousOwner","type":"address"},{"indexed":true,"internalType":"address","name":"newOwner","type":"address"}],"name":"OwnershipTransferred","type":"event"},{"anonymous":false,"inputs":[{"indexed":false,"internalType":"bool","name":"enabled","type":"bool"}],"name":"SwapEnabledUpdated","type":"event"},{"anonymous":false,"inputs":[{"indexed":true,"internalType":"address","name":"from","type":"address"},{"indexed":true,"internalType":"address","name":"to","type":"address"},{"indexed":false,"internalType":"uint256","name":"value","type":"uint256"}],"name":"Transfer","type":"event"},{"inputs":[],"name":"_charityWalletAddress","outputs":[{"internalType":"address payable","name":"","type":"address"}],"stateMutability":"view","type":"function"},{"inputs":[],"name":"_getETHBalance","outputs":[{"internalType":"uint256","name":"balance","type":"uint256"}],"stateMutability":"view","type":"function"},{"inputs":[],"name":"_marketingWalletAddress","outputs":[{"internalType":"address payable","name":"","type":"address"}],"stateMutability":"view","type":"function"},{"inputs":[],"name":"_maxTxAmount","outputs":[{"internalType":"uint256","name":"","type":"uint256"}],"stateMutability":"view","type":"function"},{"inputs":[{"internalType":"uint256","name":"charityFee","type":"uint256"}],"name":"_setCharityFee","outputs":[],"stateMutability":"nonpayable","type":"function"},{"inputs":[{"internalType":"address payable","name":"charityWalletAddress","type":"address"}],"name":"_setCharityWallet","outputs":[],"stateMutability":"nonpayable","type":"function"},{"inputs":[{"internalType":"uint256","name":"taxFee","type":"uint256"}],"name":"_setTaxFee","outputs":[],"stateMutability":"nonpayable","type":"function"},{"inputs":[{"internalType":"address","name":"account","type":"address"}],"name":"addBotToBlackList","outputs":[],"stateMutability":"nonpayable","type":"function"},{"inputs":[{"internalType":"address","name":"owner","type":"address"},{"internalType":"address","name":"spender","type":"address"}],"name":"allowance","outputs":[{"internalType":"uint256","name":"","type":"uint256"}],"stateMutability":"view","type":"function"},{"inputs":[{"internalType":"address","name":"spender","type":"address"},{"internalType":"uint256","name":"amount","type":"uint256"}],"name":"approve","outputs":[{"internalType":"bool","name":"","type":"bool"}],"stateMutability":"nonpayable","type":"function"},{"inputs":[{"internalType":"address","name":"account","type":"address"}],"name":"balanceOf","outputs":[{"internalType":"uint256","name":"","type":"uint256"}],"stateMutability":"view","type":"function"},{"inputs":[],"name":"decimals","outputs":[{"internalType":"uint8","name":"","type":"uint8"}],"stateMutability":"view","type":"function"},{"inputs":[{"internalType":"address","name":"spender","type":"address"},{"internalType":"uint256","name":"subtractedValue","type":"uint256"}],"name":"decreaseAllowance","outputs":[{"internalType":"bool","name":"","type":"bool"}],"stateMutability":"nonpayable","type":"function"},{"inputs":[{"internalType":"uint256","name":"tAmount","type":"uint256"}],"name":"deliver","outputs":[],"stateMutability":"nonpayable","type":"function"},{"inputs":[{"internalType":"address","name":"account","type":"address"}],"name":"excludeAccount","outputs":[],"stateMutability":"nonpayable","type":"function"},{"inputs":[],"name":"geUnlockTime","outputs":[{"internalType":"uint256","name":"","type":"uint256"}],"stateMutability":"view","type":"function"},{"inputs":[{"internalType":"address","name":"account","type":"address"}],"name":"includeAccount","outputs":[],"stateMutability":"nonpayable","type":"function"},{"inputs":[{"internalType":"address","name":"spender","type":"address"},{"internalType":"uint256","name":"addedValue","type":"uint256"}],"name":"increaseAllowance","outputs":[{"internalType":"bool","name":"","type":"bool"}],"stateMutability":"nonpayable","type":"function"},{"inputs":[{"internalType":"address","name":"account","type":"address"}],"name":"isBlackListed","outputs":[{"internalType":"bool","name":"","type":"bool"}],"stateMutability":"view","type":"function"},{"inputs":[{"internalType":"address","name":"account","type":"address"}],"name":"isExcluded","outputs":[{"internalType":"bool","name":"","type":"bool"}],"stateMutability":"view","type":"function"},{"inputs":[{"internalType":"address","name":"account","type":"address"}],"name":"isExcludedFromFee","outputs":[{"internalType":"bool","name":"","type":"bool"}],"stateMutability":"view","type":"function"},{"inputs":[{"internalType":"uint256","name":"time","type":"uint256"}],"name":"lock","outputs":[],"stateMutability":"nonpayable","type":"function"},{"inputs":[],"name":"manualSend","outputs":[],"stateMutability":"nonpayable","type":"function"},{"inputs":[],"name":"manualSwap","outputs":[],"stateMutability":"nonpayable","type":"function"},{"inputs":[],"name":"name","outputs":[{"internalType":"string","name":"","type":"string"}],"stateMutability":"view","type":"function"},{"inputs":[],"name":"owner","outputs":[{"internalType":"address","name":"","type":"address"}],"stateMutability":"view","type":"function"},{"inputs":[{"internalType":"uint256","name":"tAmount","type":"uint256"},{"internalType":"bool","name":"deductTransferFee","type":"bool"}],"name":"reflectionFromToken","outputs":[{"internalType":"uint256","name":"","type":"uint256"}],"stateMutability":"view","type":"function"},{"inputs":[{"internalType":"address","name":"account","type":"address"}],"name":"removeBotFromBlackList","outputs":[],"stateMutability":"nonpayable","type":"function"},{"inputs":[],"name":"renounceOwnership","outputs":[],"stateMutability":"nonpayable","type":"function"},{"inputs":[{"internalType":"address","name":"account","type":"address"},{"internalType":"bool","name":"excluded","type":"bool"}],"name":"setExcludeFromFee","outputs":[],"stateMutability":"nonpayable","type":"function"},{"inputs":[{"internalType":"uint256","name":"maxTxPercent","type":"uint256"}],"name":"setMaxTxPercent","outputs":[],"stateMutability":"nonpayable","type":"function"},{"inputs":[{"internalType":"bool","name":"enabled","type":"bool"}],"name":"setSwapEnabled","outputs":[],"stateMutability":"nonpayable","type":"function"},{"inputs":[],"name":"swapEnabled","outputs":[{"internalType":"bool","name":"","type":"bool"}],"stateMutability":"view","type":"function"},{"inputs":[],"name":"symbol","outputs":[{"internalType":"string","name":"","type":"string"}],"stateMutability":"view","type":"function"},{"inputs":[{"internalType":"uint256","name":"rAmount","type":"uint256"}],"name":"tokenFromReflection","outputs":[{"internalType":"uint256","name":"","type":"uint256"}],"stateMutability":"view","type":"function"},{"inputs":[],"name":"totalFees","outputs":[{"internalType":"uint256","name":"","type":"uint256"}],"stateMutability":"view","type":"function"},{"inputs":[],"name":"totalSupply","outputs":[{"internalType":"uint256","name":"","type":"uint256"}],"stateMutability":"view","type":"function"},{"inputs":[{"internalType":"address","name":"recipient","type":"address"},{"internalType":"uint256","name":"amount","type":"uint256"}],"name":"transfer","outputs":[{"internalType":"bool","name":"","type":"bool"}],"stateMutability":"nonpayable","type":"function"},{"inputs":[{"internalType":"address","name":"sender","type":"address"},{"internalType":"address","name":"recipient","type":"address"},{"internalType":"uint256","name":"amount","type":"uint256"}],"name":"transferFrom","outputs":[{"internalType":"bool","name":"","type":"bool"}],"stateMutability":"nonpayable","type":"function"},{"inputs":[{"internalType":"address","name":"newOwner","type":"address"}],"name":"transferOwnership","outputs":[],"stateMutability":"nonpayable","type":"function"},{"inputs":[],"name":"uniswapV2Pair","outputs":[{"internalType":"address","name":"","type":"address"}],"stateMutability":"view","type":"function"},{"inputs":[],"name":"uniswapV2Router","outputs":[{"internalType":"contract IUniswapV2Router02","name":"","type":"address"}],"stateMutability":"view","type":"function"},{"inputs":[],"name":"unlock","outputs":[],"stateMutability":"nonpayable","type":"function"},{"stateMutability":"payable","type":"receive"}],"bytecode":{"object":"683635c9adc5dea00000600b556818ce40f6d0219fffff19600c55610100604052600760c08190526650455045494e5560c81b60e09081526200004691600e919062000767565b506040805180820190915260078082526650455045494e5560c81b60209092019182526200007791600f9162000767565b506010805460ff19166009179055600a6011819055601281905560138190556014556016805461ffff60a01b1916600160a81b179055600b54601755670de0b6b3a7640000601855348015620000cc57600080fd5b50604051620037d2380380620037d283398181016040526040811015620000f257600080fd5b50805160209091015160006200010762000754565b600080546001600160a01b0319166001600160a01b0383169081178255604051929350917f8be0079c531659141344cd1fd0a4f28419497f9722a3daafe3b4186f6b6457e0908290a350601580546001600160a01b038085166001600160a01b0319928316179092556016805492841692909116919091179055600c54600360006200019262000754565b6001600160a01b03166001600160a01b03168152602001908152602001600020819055506000737a250d5630b4cf539739df2c5dacb4c659f2488d9050806001600160a01b031663c45a01556040518163ffffffff1660e01b815260040160206040518083038186803b1580156200020957600080fd5b505afa1580156200021e573d6000803e3d6000fd5b505050506040513d60208110156200023557600080fd5b5051604080516315ab88c960e31b815290516001600160a01b039283169263c9c653969230929186169163ad5c464891600480820192602092909190829003018186803b1580156200028657600080fd5b505afa1580156200029b573d6000803e3d6000fd5b505050506040513d6020811015620002b257600080fd5b5051604080516001600160e01b031960e086901b1681526001600160a01b0393841660048201529290911660248301525160448083019260209291908290030181600087803b1580156200030557600080fd5b505af11580156200031a573d6000803e3d6000fd5b505050506040513d60208110156200033157600080fd5b50516001600160601b0319606091821b811660a0529082901b166080526001600660006200035e62000758565b6001600160a01b0316815260208082019290925260409081016000908120805494151560ff199586161790553081526006835290812080548416600190811790915560099092527fdb4c5f698ccd1a2dd5f8007259cb5db5056a411ef84382c0bb370a2792e4ed908054841683178155600a805480850182557fc65a7bb8d6351c1cf70c95a316cc6a92839c986682d98bc35f958f4883f9d2a890810180546001600160a01b031990811673c1cff51724c9feed7d5145953ece9ad3fe26a0c89081179092557fe29648bc9ea91a219f40c2ef2c1248d60da119a2682daa112e842821184b5b78805489168817815584548089018655840180548316735b207dfa4cc70dcaf8ecb981af1e5c54fda9ba0d9081179091557f32c9242ee43054da22cec1c78faf494b071dd99f8ae96a2b7a8920d4facbf77280548b168a1790558554808a01875585018054841673530769ad889e598bea8e0f8c8a6acc92e5172fdf1790557f6c6ec7d4bf53cebcad22dcd44bc91719bc568af668385d4f5ef1e6a248076c3580548b168a1790558554808a01875585018054841673a2c6672771ccf27cb8295bf75e24162313ae80e61790557fe09ad5d6a9909a5fb04d11de11b3a26b2b7f4e703c6d7275f1c64c80def363ee80548b168a1790558554808a018755850180548416734576f928390a8bde8097326f103f5054c7c2e4931790557ff4452e74d476aa6e2a06577d0cbeba681e942fb1e3dd420833e252341691953280548b168a1790558554808a01875585018054841673a43c750d5de3bd88ee4f35def72cf76afebec27417905581548a1689179091558454808901865584018054831690911790558454881687179094558254808701845582018054851690911790557fec8156718a8372b1db44bb411437d0870f3e3790d4a08526d024ce1b0b668f6b805487168617815582548087018455820180548516905580548716861781558254808701845582018054851690558054871686178155825480870184558201805485169055805487168617871686178155825480870184558201805485169055805487168617815582548087018455820180548516905580548716861781558254808701845582018054851690558054871686178155825480870184558201805485169055805487168617815582548087018455820180548516905580548716861781558254808701845582018054851690558054909616851790955580549384018155909152910180549091169055620006fe62000754565b6001600160a01b031660006001600160a01b03167fddf252ad1be2c89b69c2b068fc378daa952ba7f163c4a11628f55a4df523b3ef600b546040518082815260200191505060405180910390a350505062000803565b3390565b6000546001600160a01b031690565b828054600181600116156101000203166002900490600052602060002090601f016020900481019282601f10620007aa57805160ff1916838001178555620007da565b82800160010185558215620007da579182015b82811115620007da578251825591602001919060010190620007bd565b50620007e8929150620007ec565b5090565b5b80821115620007e85760008155600101620007ed565b60805160601c60a05160601c612f916200084160003980610ee95280612033525080610a66528061234552806123fd52806124245250612f916000f3fe6080604052600436106102605760003560e01c80637d1db4a511610144578063d047e4b7116100b6578063e47d60601161007a578063e47d6060146108b4578063f2cc0c18146108e7578063f2fde38b1461091a578063f42938901461094d578063f815a84214610962578063f84354f11461097757610267565b8063d047e4b7146107c6578063d543dbeb146107f9578063dd46706414610823578063dd62ed3e1461084d578063e01af92c1461088857610267565b8063a457c2d711610108578063a457c2d7146106bc578063a69df4b5146106f5578063a9059cbb1461070a578063af9549e014610743578063b6c523241461077e578063cba0e9961461079357610267565b80637d1db4a5146106205780637ded4d6a146106355780638da5cb5b1461066857806395d89b411461067d578063a24a8d0f1461069257610267565b80634144d9e4116101dd5780635342acb4116101a15780635342acb4146105515780635880b873146105845780636ddd1713146105ae57806370a08231146105c3578063715018a6146105f657806376d4ab991461060b57610267565b80634144d9e4146104ad5780634303443d146104c25780634549b039146104f557806349bd5a5e1461052757806351bc3c851461053c57610267565b806323b872dd1161022457806323b872dd146103b05780632d838119146103f3578063313ce5671461041d57806339509351146104485780633bd5d1731461048157610267565b806306fdde031461026c578063095ea7b3146102f657806313114a9d146103435780631694505e1461036a57806318160ddd1461039b57610267565b3661026757005b600080fd5b34801561027857600080fd5b506102816109aa565b6040805160208082528351818301528351919283929083019185019080838360005b838110156102bb5781810151838201526020016102a3565b50505050905090810190601f1680156102e85780820380516001836020036101000a031916815260200191505b509250505060405180910390f35b34801561030257600080fd5b5061032f6004803603604081101561031957600080fd5b506001600160a01b038135169060200135610a40565b604080519115158252519081900360200190f35b34801561034f57600080fd5b50610358610a5e565b60408051918252519081900360200190f35b34801561037657600080fd5b5061037f610a64565b604080516001600160a01b039092168252519081900360200190f35b3480156103a757600080fd5b50610358610a88565b3480156103bc57600080fd5b5061032f600480360360608110156103d357600080fd5b506001600160a01b03813581169160208101359091169060400135610a8e565b3480156103ff57600080fd5b506103586004803603602081101561041657600080fd5b5035610b15565b34801561042957600080fd5b50610432610b77565b6040805160ff9092168252519081900360200190f35b34801561045457600080fd5b5061032f6004803603604081101561046b57600080fd5b506001600160a01b038135169060200135610b80565b34801561048d57600080fd5b506104ab600480360360208110156104a457600080fd5b5035610bce565b005b3480156104b957600080fd5b5061037f610ca8565b3480156104ce57600080fd5b506104ab600480360360208110156104e557600080fd5b50356001600160a01b0316610cb7565b34801561050157600080fd5b506103586004803603604081101561051857600080fd5b50803590602001351515610e55565b34801561053357600080fd5b5061037f610ee7565b34801561054857600080fd5b506104ab610f0b565b34801561055d57600080fd5b5061032f6004803603602081101561057457600080fd5b50356001600160a01b0316610f7c565b34801561059057600080fd5b506104ab600480360360208110156105a757600080fd5b5035610f9a565b3480156105ba57600080fd5b5061032f610ff7565b3480156105cf57600080fd5b50610358600480360360208110156105e657600080fd5b50356001600160a01b0316611007565b34801561060257600080fd5b506104ab611069565b34801561061757600080fd5b5061037f6110f9565b34801561062c57600080fd5b50610358611108565b34801561064157600080fd5b506104ab6004803603602081101561065857600080fd5b50356001600160a01b031661110e565b34801561067457600080fd5b5061037f6112c6565b34801561068957600080fd5b506102816112d5565b34801561069e57600080fd5b506104ab600480360360208110156106b557600080fd5b5035611336565b3480156106c857600080fd5b5061032f600480360360408110156106df57600080fd5b506001600160a01b038135169060200135611393565b34801561070157600080fd5b506104ab6113fb565b34801561071657600080fd5b5061032f6004803603604081101561072d57600080fd5b506001600160a01b0381351690602001356114e9565b34801561074f57600080fd5b506104ab6004803603604081101561076657600080fd5b506001600160a01b03813516906020013515156114fd565b34801561078a57600080fd5b50610358611580565b34801561079f57600080fd5b5061032f600480360360208110156107b657600080fd5b50356001600160a01b0316611586565b3480156107d257600080fd5b506104ab600480360360208110156107e957600080fd5b50356001600160a01b03166115a4565b34801561080557600080fd5b506104ab6004803603602081101561081c57600080fd5b503561161e565b34801561082f57600080fd5b506104ab6004803603602081101561084657600080fd5b503561169c565b34801561085957600080fd5b506103586004803603604081101561087057600080fd5b506001600160a01b038135811691602001351661173a565b34801561089457600080fd5b506104ab600480360360208110156108ab57600080fd5b50351515611765565b3480156108c057600080fd5b5061032f600480360360208110156108d757600080fd5b50356001600160a01b03166117db565b3480156108f357600080fd5b506104ab6004803603602081101561090a57600080fd5b50356001600160a01b03166117f9565b34801561092657600080fd5b506104ab6004803603602081101561093d57600080fd5b50356001600160a01b03166119f1565b34801561095957600080fd5b506104ab611ad7565b34801561096e57600080fd5b50610358611b39565b34801561098357600080fd5b506104ab6004803603602081101561099a57600080fd5b50356001600160a01b0316611b3d565b600e8054604080516020601f6002600019610100600188161502019095169490940493840181900481028201810190925282815260609390929091830182828015610a365780601f10610a0b57610100808354040283529160200191610a36565b820191906000526020600020905b815481529060010190602001808311610a1957829003601f168201915b5050505050905090565b6000610a54610a4d611cd3565b8484611cd7565b5060015b92915050565b600d5490565b7f000000000000000000000000000000000000000000000000000000000000000081565b600b5490565b6000610a9b848484611dc3565b610b0b84610aa7611cd3565b610b0685604051806060016040528060288152602001612e0e602891396001600160a01b038a16600090815260056020526040812090610ae5611cd3565b6001600160a01b0316815260208101919091526040016000205491906120e7565b611cd7565b5060019392505050565b6000600c54821115610b585760405162461bcd60e51b815260040180806020018281038252602a815260200180612d53602a913960400191505060405180910390fd5b6000610b6261217e565b9050610b6e83826121a1565b9150505b919050565b60105460ff1690565b6000610a54610b8d611cd3565b84610b068560056000610b9e611cd3565b6001600160a01b03908116825260208083019390935260409182016000908120918c1681529252902054906121ea565b6000610bd8611cd3565b6001600160a01b03811660009081526007602052604090205490915060ff1615610c335760405162461bcd60e51b815260040180806020018281038252602c815260200180612ee8602c913960400191505060405180910390fd5b6000610c3e83612244565b505050506001600160a01b038416600090815260036020526040902054919250610c6a919050826122a0565b6001600160a01b038316600090815260036020526040902055600c54610c9090826122a0565b600c55600d54610ca090846121ea565b600d55505050565b6016546001600160a01b031681565b610cbf611cd3565b6000546001600160a01b03908116911614610d0f576040805162461bcd60e51b81526020600482018190526024820152600080516020612e36833981519152604482015290519081900360640190fd5b737a250d5630b4cf539739df2c5dacb4c659f2488d6001600160a01b0382161415610d81576040805162461bcd60e51b815260206004820181905260248201527f57652063616e206e6f7420626c61636b6c6973742044455820726f757465722e604482015290519081900360640190fd5b6001600160a01b03811660009081526009602052604090205460ff1615610def576040805162461bcd60e51b815260206004820152601e60248201527f4163636f756e7420697320616c726561647920626c61636b6c69737465640000604482015290519081900360640190fd5b6001600160a01b03166000818152600960205260408120805460ff19166001908117909155600a805491820181559091527fc65a7bb8d6351c1cf70c95a316cc6a92839c986682d98bc35f958f4883f9d2a80180546001600160a01b0319169091179055565b6000600b54831115610eae576040805162461bcd60e51b815260206004820152601f60248201527f416d6f756e74206d757374206265206c657373207468616e20737570706c7900604482015290519081900360640190fd5b81610ecd576000610ebe84612244565b50939550610a58945050505050565b6000610ed884612244565b50929550610a58945050505050565b7f000000000000000000000000000000000000000000000000000000000000000081565b610f13611cd3565b6000546001600160a01b03908116911614610f63576040805162461bcd60e51b81526020600482018190526024820152600080516020612e36833981519152604482015290519081900360640190fd5b6000610f6e30611007565b9050610f79816122e2565b50565b6001600160a01b031660009081526006602052604090205460ff1690565b610fa2611cd3565b6000546001600160a01b03908116911614610ff2576040805162461bcd60e51b81526020600482018190526024820152600080516020612e36833981519152604482015290519081900360640190fd5b601155565b601654600160a81b900460ff1681565b6001600160a01b03811660009081526007602052604081205460ff161561104757506001600160a01b038116600090815260046020526040902054610b72565b6001600160a01b038216600090815260036020526040902054610a5890610b15565b611071611cd3565b6000546001600160a01b039081169116146110c1576040805162461bcd60e51b81526020600482018190526024820152600080516020612e36833981519152604482015290519081900360640190fd5b600080546040516001600160a01b0390911690600080516020612e56833981519152908390a3600080546001600160a01b0319169055565b6015546001600160a01b031681565b60175481565b611116611cd3565b6000546001600160a01b03908116911614611166576040805162461bcd60e51b81526020600482018190526024820152600080516020612e36833981519152604482015290519081900360640190fd5b6001600160a01b03811660009081526009602052604090205460ff166111d3576040805162461bcd60e51b815260206004820152601a60248201527f4163636f756e74206973206e6f7420626c61636b6c6973746564000000000000604482015290519081900360640190fd5b60005b600a548110156112c257816001600160a01b0316600a82815481106111f757fe5b6000918252602090912001546001600160a01b031614156112ba57600a8054600019810190811061122457fe5b600091825260209091200154600a80546001600160a01b03909216918390811061124a57fe5b600091825260208083209190910180546001600160a01b0319166001600160a01b039485161790559184168152600990915260409020805460ff19169055600a80548061129357fe5b600082815260209020810160001990810180546001600160a01b03191690550190556112c2565b6001016111d6565b5050565b6000546001600160a01b031690565b600f8054604080516020601f6002600019610100600188161502019095169490940493840181900481028201810190925282815260609390929091830182828015610a365780601f10610a0b57610100808354040283529160200191610a36565b61133e611cd3565b6000546001600160a01b0390811691161461138e576040805162461bcd60e51b81526020600482018190526024820152600080516020612e36833981519152604482015290519081900360640190fd5b601255565b6000610a546113a0611cd3565b84610b0685604051806060016040528060258152602001612f3760259139600560006113ca611cd3565b6001600160a01b03908116825260208083019390935260409182016000908120918d168152925290205491906120e7565b6001546001600160a01b031633146114445760405162461bcd60e51b8152600401808060200182810382526023815260200180612f146023913960400191505060405180910390fd5b600254421161149a576040805162461bcd60e51b815260206004820152601f60248201527f436f6e7472616374206973206c6f636b656420756e74696c2037206461797300604482015290519081900360640190fd5b600154600080546040516001600160a01b039384169390911691600080516020612e5683398151915291a3600154600080546001600160a01b0319166001600160a01b03909216919091179055565b6000610a546114f6611cd3565b8484611dc3565b611505611cd3565b6000546001600160a01b03908116911614611555576040805162461bcd60e51b81526020600482018190526024820152600080516020612e36833981519152604482015290519081900360640190fd5b6001600160a01b03919091166000908152600660205260409020805460ff1916911515919091179055565b60025490565b6001600160a01b031660009081526007602052604090205460ff1690565b6115ac611cd3565b6000546001600160a01b039081169116146115fc576040805162461bcd60e51b81526020600482018190526024820152600080516020612e36833981519152604482015290519081900360640190fd5b601580546001600160a01b0319166001600160a01b0392909216919091179055565b611626611cd3565b6000546001600160a01b03908116911614611676576040805162461bcd60e51b81526020600482018190526024820152600080516020612e36833981519152604482015290519081900360640190fd5b611696606461169083600b5461251990919063ffffffff16565b906121a1565b60175550565b6116a4611cd3565b6000546001600160a01b039081169116146116f4576040805162461bcd60e51b81526020600482018190526024820152600080516020612e36833981519152604482015290519081900360640190fd5b60008054600180546001600160a01b03199081166001600160a01b038416179091551681554282016002556040518190600080516020612e56833981519152908290a350565b6001600160a01b03918216600090815260056020908152604080832093909416825291909152205490565b61176d611cd3565b6000546001600160a01b039081169116146117bd576040805162461bcd60e51b81526020600482018190526024820152600080516020612e36833981519152604482015290519081900360640190fd5b60168054911515600160a81b0260ff60a81b19909216919091179055565b6001600160a01b031660009081526009602052604090205460ff1690565b611801611cd3565b6000546001600160a01b03908116911614611851576040805162461bcd60e51b81526020600482018190526024820152600080516020612e36833981519152604482015290519081900360640190fd5b737a250d5630b4cf539739df2c5dacb4c659f2488d6001600160a01b03821614156118c3576040805162461bcd60e51b815260206004820152601e60248201527f57652063616e206e6f74206578636c7564652044455820726f757465722e0000604482015290519081900360640190fd5b6001600160a01b03811660009081526007602052604090205460ff1615611931576040805162461bcd60e51b815260206004820152601b60248201527f4163636f756e7420697320616c7265616479206578636c756465640000000000604482015290519081900360640190fd5b6001600160a01b0381166000908152600360205260409020541561198b576001600160a01b03811660009081526003602052604090205461197190610b15565b6001600160a01b0382166000908152600460205260409020555b6001600160a01b03166000818152600760205260408120805460ff191660019081179091556008805491820181559091527ff3f7a9fe364faab93b216da50a3214154f22a0a2b415b23a84c8169e8b636ee30180546001600160a01b0319169091179055565b6119f9611cd3565b6000546001600160a01b03908116911614611a49576040805162461bcd60e51b81526020600482018190526024820152600080516020612e36833981519152604482015290519081900360640190fd5b6001600160a01b038116611a8e5760405162461bcd60e51b8152600401808060200182810382526026815260200180612d7d6026913960400191505060405180910390fd5b600080546040516001600160a01b0380851693921691600080516020612e5683398151915291a3600080546001600160a01b0319166001600160a01b0392909216919091179055565b611adf611cd3565b6000546001600160a01b03908116911614611b2f576040805162461bcd60e51b81526020600482018190526024820152600080516020612e36833981519152604482015290519081900360640190fd5b47610f7981612572565b4790565b611b45611cd3565b6000546001600160a01b03908116911614611b95576040805162461bcd60e51b81526020600482018190526024820152600080516020612e36833981519152604482015290519081900360640190fd5b6001600160a01b03811660009081526007602052604090205460ff16611c02576040805162461bcd60e51b815260206004820152601b60248201527f4163636f756e7420697320616c7265616479206578636c756465640000000000604482015290519081900360640190fd5b60005b6008548110156112c257816001600160a01b031660088281548110611c2657fe5b6000918252602090912001546001600160a01b03161415611ccb57600880546000198101908110611c5357fe5b600091825260209091200154600880546001600160a01b039092169183908110611c7957fe5b600091825260208083209190910180546001600160a01b0319166001600160a01b039485161790559184168152600482526040808220829055600790925220805460ff19169055600880548061129357fe5b600101611c05565b3390565b6001600160a01b038316611d1c5760405162461bcd60e51b8152600401808060200182810382526024815260200180612ec46024913960400191505060405180910390fd5b6001600160a01b038216611d615760405162461bcd60e51b8152600401808060200182810382526022815260200180612da36022913960400191505060405180910390fd5b6001600160a01b03808416600081815260056020908152604080832094871680845294825291829020859055815185815291517f8c5be1e5ebec7d5bd14f71427d1e84f3dd0314c0f7b2291e5b200ac8c7c3b9259281900390910190a3505050565b6001600160a01b038316611e085760405162461bcd60e51b8152600401808060200182810382526025815260200180612e9f6025913960400191505060405180910390fd5b6001600160a01b038216611e4d5760405162461bcd60e51b8152600401808060200182810382526023815260200180612d306023913960400191505060405180910390fd5b60008111611e8c5760405162461bcd60e51b8152600401808060200182810382526029815260200180612e766029913960400191505060405180910390fd5b6001600160a01b03821660009081526009602052604090205460ff1615611ef4576040805162461bcd60e51b8152602060048201526017602482015276596f752068617665206e6f20706f77657220686572652160481b604482015290519081900360640190fd5b3360009081526009602052604090205460ff1615611f53576040805162461bcd60e51b8152602060048201526017602482015276596f752068617665206e6f20706f77657220686572652160481b604482015290519081900360640190fd5b611f5b6112c6565b6001600160a01b0316836001600160a01b031614158015611f955750611f7f6112c6565b6001600160a01b0316826001600160a01b031614155b15611fdb57601754811115611fdb5760405162461bcd60e51b8152600401808060200182810382526028815260200180612dc56028913960400191505060405180910390fd5b6000611fe630611007565b90506017548110611ff657506017545b6018546016549082101590600160a01b900460ff161580156120215750601654600160a81b900460ff165b801561202a5750805b801561206857507f00000000000000000000000000000000000000000000000000000000000000006001600160a01b0316856001600160a01b031614155b1561208857612076826122e2565b4780156120865761208647612572565b505b6001600160a01b03851660009081526006602052604090205460019060ff16806120ca57506001600160a01b03851660009081526006602052604090205460ff165b156120d3575060005b6120df868686846125f7565b505050505050565b600081848411156121765760405162461bcd60e51b81526004018080602001828103825283818151815260200191508051906020019080838360005b8381101561213b578181015183820152602001612123565b50505050905090810190601f1680156121685780820380516001836020036101000a031916815260200191505b509250505060405180910390fd5b505050900390565b600080600061218b61276b565b909250905061219a82826121a1565b9250505090565b60006121e383836040518060400160405280601a81526020017f536166654d6174683a206469766973696f6e206279207a65726f0000000000008152506128ce565b9392505050565b6000828201838110156121e3576040805162461bcd60e51b815260206004820152601b60248201527f536166654d6174683a206164646974696f6e206f766572666c6f770000000000604482015290519081900360640190fd5b60008060008060008060008060006122618a601154601254612933565b925092509250600061227161217e565b905060008060006122838e8786612982565b919e509c509a509598509396509194505050505091939550919395565b60006121e383836040518060400160405280601e81526020017f536166654d6174683a207375627472616374696f6e206f766572666c6f7700008152506120e7565b6016805460ff60a01b1916600160a01b1790556040805160028082526060808301845292602083019080368337019050509050308160008151811061232357fe5b60200260200101906001600160a01b031690816001600160a01b0316815250507f00000000000000000000000000000000000000000000000000000000000000006001600160a01b031663ad5c46486040518163ffffffff1660e01b815260040160206040518083038186803b15801561239c57600080fd5b505afa1580156123b0573d6000803e3d6000fd5b505050506040513d60208110156123c657600080fd5b50518151829060019081106123d757fe5b60200260200101906001600160a01b031690816001600160a01b031681525050612422307f000000000000000000000000000000000000000000000000000000000000000084611cd7565b7f00000000000000000000000000000000000000000000000000000000000000006001600160a01b031663791ac9478360008430426040518663ffffffff1660e01b81526004018086815260200185815260200180602001846001600160a01b03168152602001838152602001828103825285818151815260200191508051906020019060200280838360005b838110156124c75781810151838201526020016124af565b505050509050019650505050505050600060405180830381600087803b1580156124f057600080fd5b505af1158015612504573d6000803e3d6000fd5b50506016805460ff60a01b1916905550505050565b60008261252857506000610a58565b8282028284828161253557fe5b04146121e35760405162461bcd60e51b8152600401808060200182810382526021815260200180612ded6021913960400191505060405180910390fd5b6015546001600160a01b03166108fc61258c8360026121a1565b6040518115909202916000818181858888f193505050501580156125b4573d6000803e3d6000fd5b506016546001600160a01b03166108fc6125cf8360026121a1565b6040518115909202916000818181858888f193505050501580156112c2573d6000803e3d6000fd5b80612604576126046129be565b6001600160a01b03841660009081526007602052604090205460ff16801561264557506001600160a01b03831660009081526007602052604090205460ff16155b1561265a576126558484846129f0565b612758565b6001600160a01b03841660009081526007602052604090205460ff1615801561269b57506001600160a01b03831660009081526007602052604090205460ff165b156126ab57612655848484612b14565b6001600160a01b03841660009081526007602052604090205460ff161580156126ed57506001600160a01b03831660009081526007602052604090205460ff16155b156126fd57612655848484612bbd565b6001600160a01b03841660009081526007602052604090205460ff16801561273d57506001600160a01b03831660009081526007602052604090205460ff165b1561274d57612655848484612c01565b612758848484612bbd565b8061276557612765612c74565b50505050565b600c54600b546000918291825b60085481101561289c5782600360006008848154811061279457fe5b60009182526020808320909101546001600160a01b0316835282019290925260400190205411806127f957508160046000600884815481106127d257fe5b60009182526020808320909101546001600160a01b03168352820192909252604001902054115b1561281057600c54600b54945094505050506128ca565b612850600360006008848154811061282457fe5b60009182526020808320909101546001600160a01b0316835282019290925260400190205484906122a0565b9250612892600460006008848154811061286657fe5b60009182526020808320909101546001600160a01b0316835282019290925260400190205483906122a0565b9150600101612778565b50600b54600c546128ac916121a1565b8210156128c457600c54600b549350935050506128ca565b90925090505b9091565b6000818361291d5760405162461bcd60e51b815260206004820181815283516024840152835190928392604490910191908501908083836000831561213b578181015183820152602001612123565b50600083858161292957fe5b0495945050505050565b600080808061294760646116908989612519565b9050600061295a60646116908a89612519565b905060006129728261296c8b866122a0565b906122a0565b9992985090965090945050505050565b60008080806129918786612519565b9050600061299f8787612519565b905060006129ad83836122a0565b929992985090965090945050505050565b6011541580156129ce5750601254155b156129d8576129ee565b6011805460135560128054601455600091829055555b565b600080600080600080612a0287612244565b6001600160a01b038f16600090815260046020526040902054959b50939950919750955093509150612a3490886122a0565b6001600160a01b038a16600090815260046020908152604080832093909355600390522054612a6390876122a0565b6001600160a01b03808b1660009081526003602052604080822093909355908a1681522054612a9290866121ea565b6001600160a01b038916600090815260036020526040902055612ab481612c82565b612abe8483612d0b565b876001600160a01b0316896001600160a01b03167fddf252ad1be2c89b69c2b068fc378daa952ba7f163c4a11628f55a4df523b3ef856040518082815260200191505060405180910390a3505050505050505050565b600080600080600080612b2687612244565b6001600160a01b038f16600090815260036020526040902054959b50939950919750955093509150612b5890876122a0565b6001600160a01b03808b16600090815260036020908152604080832094909455918b16815260049091522054612b8e90846121ea565b6001600160a01b038916600090815260046020908152604080832093909355600390522054612a9290866121ea565b600080600080600080612bcf87612244565b6001600160a01b038f16600090815260036020526040902054959b50939950919750955093509150612a6390876122a0565b600080600080600080612c1387612244565b6001600160a01b038f16600090815260046020526040902054959b50939950919750955093509150612c4590886122a0565b6001600160a01b038a16600090815260046020908152604080832093909355600390522054612b5890876122a0565b601354601155601454601255565b6000612c8c61217e565b90506000612c9a8383612519565b30600090815260036020526040902054909150612cb790826121ea565b3060009081526003602090815260408083209390935560079052205460ff1615612d065730600090815260046020526040902054612cf590846121ea565b306000908152600460205260409020555b505050565b600c54612d1890836122a0565b600c55600d54612d2890826121ea565b600d55505056fe45524332303a207472616e7366657220746f20746865207a65726f2061646472657373416d6f756e74206d757374206265206c657373207468616e20746f74616c207265666c656374696f6e734f776e61626c653a206e6577206f776e657220697320746865207a65726f206164647265737345524332303a20617070726f766520746f20746865207a65726f20616464726573735472616e7366657220616d6f756e74206578636565647320746865206d61785478416d6f756e742e536166654d6174683a206d756c7469706c69636174696f6e206f766572666c6f7745524332303a207472616e7366657220616d6f756e74206578636565647320616c6c6f77616e63654f776e61626c653a2063616c6c6572206973206e6f7420746865206f776e65728be0079c531659141344cd1fd0a4f28419497f9722a3daafe3b4186f6b6457e05472616e7366657220616d6f756e74206d7573742062652067726561746572207468616e207a65726f45524332303a207472616e736665722066726f6d20746865207a65726f206164647265737345524332303a20617070726f76652066726f6d20746865207a65726f20616464726573734578636c75646564206164647265737365732063616e6e6f742063616c6c20746869732066756e6374696f6e596f7520646f6e27742068617665207065726d697373696f6e20746f20756e6c6f636b45524332303a2064656372656173656420616c6c6f77616e63652062656c6f77207a65726fa264697066735822122008f155f4ee17734f01162dd93ceed7250b400d704f3e4c1ea352a58c26a8c01e64736f6c634300060c0033"}}