{"compiler":"v0.6.12+commit.27d51765","opcodeHash":"0x321044c2d657873bd3b9435758c9c8ab71247b5d4916d2f8dd80f3e500025468","metalessHash":"0x9c9925e9be834c2f8bac43e0149640fb2da741d8020f8f077ceb8090d8c7d3ea","runtimeHash":"0xbfabc431a4c009c1e7df8c83b4ff106f7ca3da1adb3980f838bb63f770fabf58","encodedMetadata":[{"ipfs":"/ipfs/QmREsNufXS9GR84oM6bW9H1LHx6i8tZnbTWoYsiwtAZn4e","solc":"0.6.12"}],"abi":[{"inputs":[{"internalType":"contract IERC20","name":"_erc20","type":"address"},{"internalType":"contract IERC20","name":"_lpToken","type":"address"},{"internalType":"uint256","name":"_startTime","type":"uint256"}],"stateMutability":"nonpayable","type":"constructor"},{"anonymous":false,"inputs":[{"indexed":true,"internalType":"address","name":"user","type":"address"},{"indexed":false,"internalType":"uint256","name":"depositedLptAmount","type":"uint256"}],"name":"Deposit","type":"event"},{"anonymous":false,"inputs":[{"indexed":true,"internalType":"address","name":"ownerUser","type":"address"},{"indexed":false,"internalType":"uint256","name":"addedErc20Amount","type":"uint256"}],"name":"Fund","type":"event"},{"anonymous":false,"inputs":[{"indexed":true,"internalType":"address","name":"previousOwner","type":"address"},{"indexed":true,"internalType":"address","name":"newOwner","type":"address"}],"name":"OwnershipTransferred","type":"event"},{"anonymous":false,"inputs":[{"indexed":true,"internalType":"address","name":"user","type":"address"},{"indexed":false,"internalType":"uint256","name":"rewardAmountTakenOut","type":"uint256"}],"name":"TakeOutSomeOfTheAccumulatedReward","type":"event"},{"anonymous":false,"inputs":[{"indexed":true,"internalType":"address","name":"user","type":"address"},{"indexed":false,"internalType":"uint256","name":"withdrawnLptAmount","type":"uint256"}],"name":"WithdrawLptCore","type":"event"},{"inputs":[],"name":"addToTheUsersAssignedReward","outputs":[{"internalType":"uint256","name":"","type":"uint256"}],"stateMutability":"nonpayable","type":"function"},{"inputs":[],"name":"assignedRewardOfTheUser","outputs":[{"internalType":"uint256","name":"","type":"uint256"}],"stateMutability":"view","type":"function"},{"inputs":[],"name":"calculateCurrentTakeableRewardOfTheUser","outputs":[{"internalType":"uint256","name":"","type":"uint256"}],"stateMutability":"view","type":"function"},{"inputs":[],"name":"calculateUsersAssignableReward","outputs":[{"internalType":"uint256","name":"","type":"uint256"}],"stateMutability":"view","type":"function"},{"inputs":[],"name":"currentTotalErc20RewardAmount","outputs":[{"internalType":"uint256","name":"","type":"uint256"}],"stateMutability":"view","type":"function"},{"inputs":[],"name":"currentTotalLptAmount","outputs":[{"internalType":"uint256","name":"","type":"uint256"}],"stateMutability":"view","type":"function"},{"inputs":[{"internalType":"uint256","name":"","type":"uint256"}],"name":"dailyErc20RewardAmounts","outputs":[{"internalType":"uint256","name":"","type":"uint256"}],"stateMutability":"view","type":"function"},{"inputs":[{"internalType":"uint256","name":"","type":"uint256"}],"name":"dailyPlannedErc20RewardAmounts","outputs":[{"internalType":"uint256","name":"","type":"uint256"}],"stateMutability":"view","type":"function"},{"inputs":[{"internalType":"uint256","name":"","type":"uint256"}],"name":"dailyTotalLptAmount","outputs":[{"internalType":"uint256","name":"","type":"uint256"}],"stateMutability":"view","type":"function"},{"inputs":[],"name":"dayLength","outputs":[{"internalType":"uint256","name":"","type":"uint256"}],"stateMutability":"view","type":"function"},{"inputs":[{"internalType":"uint256","name":"_depositLptAmount","type":"uint256"}],"name":"deposit","outputs":[],"stateMutability":"nonpayable","type":"function"},{"inputs":[],"name":"depositedLptOfTheUser","outputs":[{"internalType":"uint256","name":"","type":"uint256"}],"stateMutability":"view","type":"function"},{"inputs":[],"name":"endTime","outputs":[{"internalType":"uint256","name":"","type":"uint256"}],"stateMutability":"view","type":"function"},{"inputs":[],"name":"erc20","outputs":[{"internalType":"contract IERC20","name":"","type":"address"}],"stateMutability":"view","type":"function"},{"inputs":[{"internalType":"uint256","name":"_fundErc20Amount","type":"uint256"}],"name":"fund","outputs":[],"stateMutability":"nonpayable","type":"function"},{"inputs":[],"name":"fundedErc20RewardAmount","outputs":[{"internalType":"uint256","name":"","type":"uint256"}],"stateMutability":"view","type":"function"},{"inputs":[],"name":"getCurrentStakingDayNumber","outputs":[{"internalType":"uint256","name":"","type":"uint256"}],"stateMutability":"view","type":"function"},{"inputs":[],"name":"lpToken","outputs":[{"internalType":"contract IERC20","name":"","type":"address"}],"stateMutability":"view","type":"function"},{"inputs":[],"name":"owner","outputs":[{"internalType":"address","name":"","type":"address"}],"stateMutability":"view","type":"function"},{"inputs":[],"name":"renounceOwnership","outputs":[],"stateMutability":"nonpayable","type":"function"},{"inputs":[],"name":"rewardCountedUptoDayOfTheUser","outputs":[{"internalType":"uint256","name":"","type":"uint256"}],"stateMutability":"view","type":"function"},{"inputs":[],"name":"stakingProgramTimeLength","outputs":[{"internalType":"uint256","name":"","type":"uint256"}],"stateMutability":"view","type":"function"},{"inputs":[],"name":"startTime","outputs":[{"internalType":"uint256","name":"","type":"uint256"}],"stateMutability":"view","type":"function"},{"inputs":[{"internalType":"uint256","name":"_rewardAmountToBeTakenOut","type":"uint256"}],"name":"takeOutSomeOfTheAccumulatedReward","outputs":[{"internalType":"uint256","name":"","type":"uint256"}],"stateMutability":"nonpayable","type":"function"},{"inputs":[],"name":"takeOutTheAccumulatedReward","outputs":[{"internalType":"uint256","name":"","type":"uint256"}],"stateMutability":"nonpayable","type":"function"},{"inputs":[],"name":"totalErc20RewardAmount","outputs":[{"internalType":"uint256","name":"","type":"uint256"}],"stateMutability":"view","type":"function"},{"inputs":[{"internalType":"address","name":"newOwner","type":"address"}],"name":"transferOwnership","outputs":[],"stateMutability":"nonpayable","type":"function"},{"inputs":[{"internalType":"address","name":"","type":"address"}],"name":"userInfo","outputs":[{"internalType":"uint256","name":"currentlyAssignedRewardAmount","type":"uint256"},{"internalType":"uint256","name":"rewardCountedUptoDay","type":"uint256"},{"internalType":"uint256","name":"lptAmount","type":"uint256"}],"stateMutability":"view","type":"function"},{"inputs":[],"name":"withdrawAllWithAllReward","outputs":[],"stateMutability":"nonpayable","type":"function"},{"inputs":[],"name":"withdrawAllWithoutReward","outputs":[],"stateMutability":"nonpayable","type":"function"},{"inputs":[{"internalType":"uint256","name":"_withdrawLptAmount","type":"uint256"}],"name":"withdrawLptCore","outputs":[],"stateMutability":"nonpayable","type":"function"},{"inputs":[{"internalType":"uint256","name":"_withdrawLptAmount","type":"uint256"}],"name":"withdrawWithAllReward","outputs":[],"stateMutability":"nonpayable","type":"function"},{"inputs":[{"internalType":"uint256","name":"_withdrawLptAmount","type":"uint256"}],"name":"withdrawWithoutReward","outputs":[],"stateMutability":"nonpayable","type":"function"}],"bytecode":{"object":"610d006040526000610160818152690137e39916cdeb607b8061018052690135976e792c8f832b806101a0526901334b43db8a45d34a006101c052690130ff193de7fb8ad2006101e05269012eb2eea045b1425a006102005269012c66c402a366f9e2006102205269012a1a9965011d4a008061024052690127ce6ec75ed301888061026052690125824429bc88b910806102805269012336198c1a3e7098806102a052690120e9eeee77f4c0b7006102c05269011e9dc450d5aa783f006102e05269011c5199b333602fc7006103005269011a056f159115e74f0061032052690117b94477eecc376d80610340526901156d19da4c81eef5806103605269011320ef3caa37a67d8061038052690110d4c49f07ed5e05806103a05269010e889a0165a3ae24006103c05269010c3c6f63c35965ac006103e052690109f044c6210f1d340061040052690107a41a287ec4d4bc006104205269010557ef8adc7b24da80610440526901030bc4ed3a30dc628061046052690100bf9a4f97e693ea806104805268fe736fb1f59c4b72806104a05268fc27451453529b91006104c05268f9db1a76b1085319006104e05268f78eefd90ebe0aa1006105005268f542c53b6c73c229006105205268f2f69a9dca2a1247806105405268f0aa700027dfc9cf806105605268ee5e456285958157806105805268ec121ac4e34b38df806105a05268e9c5f027410188fe006105c05268e779c5899eb74086006105e05268e52d9aebfc6cf80e006106005268e2e1704e5a22af96006106205268e09545b0b7d8ffb4806106405268de491b13158eb73c806106605268dbfcf07573446ec4806106805268d9b0c5d7d0fa264c806106a05268d7649b3a2eb0766b006106c05268d518709c8c662df3006106e05268d2cc45feea1be57b006107005268d0801b6147d19d03006107205268ce33f0c3a587ed21806107405268cbe7c626033da4a9806107605268c99b9b8860f35c31806107805268c74f70eabea913b9806107a05268c503464d1c5ecb41806107c05268c2b71baf7a1482c9806107e05268c06af111d7ca3a51806108005268be1ec674357ff1d9806108205268bbd29bd69335a961806108405268b9867138f0eb60e9806108605268b73a469b4ea11871806108805268b4ee1bfdac56cff9806108a05268b2a1f1600a0d2018006108c05268b055c6c267c2d7a0006108e05268ae099c24c5788f28006109005268abbd7187232e46b0006109205268a97146e980e3fe38006109405268a7251c4bde99b5c0006109605268a4d8f1ae3c4f6d48006109805268a28cc7109a0524d0006109a05268a0409c72f7badc58006109c052689df471d5557093e0006109e052689ba84737b3264b6800610a005268995c1c9a10dc02f000610a205268970ff1fc6e91ba7800610a40526894c3c75ecc480a9680610a60526892779cc129fdc21e80610a805268902b722387b379a680610aa052688ddf4785e569312e80610ac052688b931ce8431ee8b680610ae052688946f24aa0d4a03e80610b00526886fac7acfe8a57c680610b20526884ae9d0f5c400f4e80610b40526882627271b9f5c6d680610b605268801647d417ab7e5e80610b8052687dca1d36756135e680610ba052687b7df298d316ed6e80610bc052687931c7fb30cd3d8d00610be0526876e59d5d8e82f51500610c005268749972bfec38ac9d00610c205268724d482249ee642500610c40526870011d84a7a41bad00610c6052686db4f2e70559d33500610c8052686b68c849630f8abd00610ca05268691c9dabc0c5424500610cc052610ce0919091526200053790605f90605d62000e78565b50600060bc81905560408051610ba081018252828152690137e39916cdeb607b806020820152690135976e792c8f832b80918101919091526901334b43db8a45d34a006060820152690130ff193de7fb8ad200608082015269012eb2eea045b1425a0060a082015269012c66c402a366f9e20060c082015269012a1a9965011d4a008060e0820152690127ce6ec75ed3018880610100820152690125824429bc88b9108061012082015269012336198c1a3e709880610140820152690120e9eeee77f4c0b70061016082015269011e9dc450d5aa783f0061018082015269011c5199b333602fc7006101a082015269011a056f159115e74f006101c0820152690117b94477eecc376d806101e08201526901156d19da4c81eef58061020082015269011320ef3caa37a67d80610220820152690110d4c49f07ed5e058061024082015269010e889a0165a3ae240061026082015269010c3c6f63c35965ac00610280820152690109f044c6210f1d34006102a0820152690107a41a287ec4d4bc006102c082015269010557ef8adc7b24da806102e08201526901030bc4ed3a30dc6280610300820152690100bf9a4f97e693ea8061032082015268fe736fb1f59c4b728061034082015268fc27451453529b910061036082015268f9db1a76b10853190061038082015268f78eefd90ebe0aa1006103a082015268f542c53b6c73c229006103c082015268f2f69a9dca2a1247806103e082015268f0aa700027dfc9cf8061040082015268ee5e4562859581578061042082015268ec121ac4e34b38df8061044082015268e9c5f027410188fe0061046082015268e779c5899eb740860061048082015268e52d9aebfc6cf80e006104a082015268e2e1704e5a22af96006104c082015268e09545b0b7d8ffb4806104e082015268de491b13158eb73c8061050082015268dbfcf07573446ec48061052082015268d9b0c5d7d0fa264c8061054082015268d7649b3a2eb0766b0061056082015268d518709c8c662df30061058082015268d2cc45feea1be57b006105a082015268d0801b6147d19d03006105c082015268ce33f0c3a587ed21806105e082015268cbe7c626033da4a98061060082015268c99b9b8860f35c318061062082015268c74f70eabea913b98061064082015268c503464d1c5ecb418061066082015268c2b71baf7a1482c98061068082015268c06af111d7ca3a51806106a082015268be1ec674357ff1d9806106c082015268bbd29bd69335a961806106e082015268b9867138f0eb60e98061070082015268b73a469b4ea118718061072082015268b4ee1bfdac56cff98061074082015268b2a1f1600a0d20180061076082015268b055c6c267c2d7a00061078082015268ae099c24c5788f28006107a082015268abbd7187232e46b0006107c082015268a97146e980e3fe38006107e082015268a7251c4bde99b5c00061080082015268a4d8f1ae3c4f6d480061082082015268a28cc7109a0524d00061084082015268a0409c72f7badc5800610860820152689df471d5557093e000610880820152689ba84737b3264b68006108a082015268995c1c9a10dc02f0006108c082015268970ff1fc6e91ba78006108e08201526894c3c75ecc480a96806109008201526892779cc129fdc21e8061092082015268902b722387b379a680610940820152688ddf4785e569312e80610960820152688b931ce8431ee8b680610980820152688946f24aa0d4a03e806109a08201526886fac7acfe8a57c6806109c08201526884ae9d0f5c400f4e806109e08201526882627271b9f5c6d680610a0082015268801647d417ab7e5e80610a20820152687dca1d36756135e680610a40820152687b7df298d316ed6e80610a60820152687931c7fb30cd3d8d00610a808201526876e59d5d8e82f51500610aa082015268749972bfec38ac9d00610ac082015268724d482249ee642500610ae08201526870011d84a7a41bad00610b00820152686db4f2e70559d33500610b20820152686b68c849630f8abd00610b4082015268691c9dabc0c5424500610b60820152610b8081019190915262000b2a9060bd90605d62000e78565b50600061011a5534801562000b3e57600080fd5b5060405162002a4438038062002a448339818101604052606081101562000b6457600080fd5b5080516020820151604090920151909190600062000b8162000ccd565b600080546001600160a01b0319166001600160a01b0383169081178255604051929350917f8be0079c531659141344cd1fd0a4f28419497f9722a3daafe3b4186f6b6457e0908290a35080158062000bdc575063609f1fd781115b62000c195760405162461bcd60e51b8152600401808060200182810382526024815260200180620029ff6024913960400191505060405180910390fd5b6001600160601b0319606084811b821660e05283901b1660c052620546006101008190526000821562000c4e57508162000c51565b50425b62000c68818362000cd160201b620012001760201c565b60808181525050600062000c8983605b62000d2460201b6200124b1760201c565b9050806101208181525050600062000cad838362000d8260201b620012a41760201c565b60a0525050694a1d89bb94865ec00000610140525062000edd9350505050565b3390565b600062000d1b83836040518060400160405280601e81526020017f536166654d6174683a207375627472616374696f6e206f766572666c6f77000081525062000ddd60201b60201c565b90505b92915050565b60008262000d355750600062000d1e565b8282028284828162000d4357fe5b041462000d1b5760405162461bcd60e51b815260040180806020018281038252602181526020018062002a236021913960400191505060405180910390fd5b60008282018381101562000d1b576040805162461bcd60e51b815260206004820152601b60248201527f536166654d6174683a206164646974696f6e206f766572666c6f770000000000604482015290519081900360640190fd5b6000818484111562000e705760405162461bcd60e51b81526004018080602001828103825283818151815260200191508051906020019080838360005b8381101562000e3457818101518382015260200162000e1a565b50505050905090810190601f16801562000e625780820380516001836020036101000a031916815260200191505b509250505060405180910390fd5b505050900390565b82605d810192821562000eb4579160200282015b8281111562000eb457825182906001600160501b031690559160200191906001019062000e8c565b5062000ec292915062000ec6565b5090565b5b8082111562000ec2576000815560010162000ec7565b60805160a05160c05160601c60e05160601c610100516101205161014051611a9662000f69600039806106045280610b505280610bc65250806111bf5250806108505280610a6b5250806106285280610c3b528061103452508061052c52806109a75280610f025250806104d0528061091252508061064c52806108b35280610a3d5250611a966000f3fe608060405234801561001057600080fd5b50600436106101fb5760003560e01c806390aa6a671161011a578063ca1d209d116100ad578063e90ef50a1161007c578063e90ef50a146103df578063f2296663146103fc578063f2fde38b14610419578063fa42c0791461043f578063fee97fcc14610447576101fb565b8063ca1d209d14610380578063d14949c71461039d578063d3b73c3c146103a5578063e54f7ae4146103c2576101fb565b8063a8d00e73116100e9578063a8d00e731461034b578063b6b55f2514610353578063b8cf581214610370578063ba2e8f2814610378576101fb565b806390aa6a671461031657806395ef6127146103335780639e49b8c21461033b5780639e9d84f814610343576101fb565b80635fcbd2851161019257806378e979251161016157806378e97925146102f65780638597f89b146102fe5780638a2b5314146103065780638da5cb5b1461030e576101fb565b80635fcbd285146102ba578063715018a6146102de57806378316989146102e6578063785e9e86146102ee576101fb565b80633797aad0116101ce5780633797aad0146102855780634329c729146102a25780634a4c0fc1146102aa5780635b71d470146102b2576101fb565b806308349d681461020057806311d4c4581461021f5780631959a002146102395780633197cbb61461027d575b600080fd5b61021d6004803603602081101561021657600080fd5b503561044f565b005b610227610482565b60408051918252519081900360200190f35b61025f6004803603602081101561024f57600080fd5b50356001600160a01b03166104ac565b60408051938452602084019290925282820152519081900360600190f35b6102276104ce565b6102276004803603602081101561029b57600080fd5b50356104f2565b610227610506565b61022761050d565b610227610524565b6102c261052a565b604080516001600160a01b039092168252519081900360200190f35b61021d61054e565b610227610602565b6102c2610626565b61022761064a565b61021d61066e565b6102276106af565b6102c26106b5565b6102276004803603602081101561032c57600080fd5b50356106c4565b6102276106d1565b6102276106e8565b61021d610833565b61022761084e565b61021d6004803603602081101561036957600080fd5b5035610872565b610227610a20565b610227610a34565b61021d6004803603602081101561039657600080fd5b5035610aa5565b610227610cbd565b61021d600480360360208110156103bb57600080fd5b5035610e4e565b61021d600480360360208110156103d857600080fd5b5035610e63565b610227600480360360208110156103f557600080fd5b5035610f8e565b6102276004803603602081101561041257600080fd5b50356110a6565b61021d6004803603602081101561042f57600080fd5b50356001600160a01b03166110b3565b6102276111bd565b6102276111e1565b610457610cbd565b506000610462610a20565b905080156104755761047381610f8e565b505b61047e82610e4e565b5050565b33600090815261011b6020526040812080546104a5906104a06106e8565b6112a4565b9150505b90565b61011b6020526000908152604090208054600182015460029092015490919083565b7f000000000000000000000000000000000000000000000000000000000000000081565b600181605d81106104ff57fe5b0154905081565b61011a5481565b33600090815261011b602052604090206001015490565b60bc5481565b7f000000000000000000000000000000000000000000000000000000000000000081565b6105566112fe565b6000546001600160a01b039081169116146105b8576040805162461bcd60e51b815260206004820181905260248201527f4f776e61626c653a2063616c6c6572206973206e6f7420746865206f776e6572604482015290519081900360640190fd5b600080546040516001600160a01b03909116907f8be0079c531659141344cd1fd0a4f28419497f9722a3daafe3b4186f6b6457e0908390a3600080546001600160a01b0319169055565b7f000000000000000000000000000000000000000000000000000000000000000081565b7f000000000000000000000000000000000000000000000000000000000000000081565b7f000000000000000000000000000000000000000000000000000000000000000081565b610676610cbd565b506000610681610a20565b905080156106945761069281610f8e565b505b600061069e6106d1565b9050801561047e5761047e81610e4e565b605e5481565b6000546001600160a01b031690565b60bd81605d81106104ff57fe5b33600090815261011b602052604090206002015490565b6000806106f3610a34565b90506000610702826001611200565b905081610714576000925050506104a9565b33600090815261011b60205260409020600281015461073957600093505050506104a9565b600081600101549050600061074f8260016112a4565b905083811115610767576000955050505050506104a9565b6000815b85811161082857600181605d811061077f57fe5b015461078a57610820565b6000678ac7230489e80000905060006107a787600201548361124b565b90506107c181600185605d81106107ba57fe5b0154611302565b90506107db81605f85605d81106107d457fe5b015461124b565b90506107e78183611302565b90508060bd84605d81106107f757fe5b015410156108115760bd83605d811061080c57fe5b015490505b61081b84826112a4565b935050505b60010161076b565b509550505050505090565b61083b610cbd565b5061084c6108476106d1565b610e4e565b565b7f000000000000000000000000000000000000000000000000000000000000000081565b600081116108b15760405162461bcd60e51b815260040180806020018281038252602b815260200180611a36602b913960400191505060405180910390fd5b7f00000000000000000000000000000000000000000000000000000000000000004210156109105760405162461bcd60e51b815260040180806020018281038252603d8152602001806119cf603d913960400191505060405180910390fd5b7f0000000000000000000000000000000000000000000000000000000000000000421061096e5760405162461bcd60e51b815260040180806020018281038252603e8152602001806118c1603e913960400191505060405180910390fd5b33600090815261011b60205260409020610986610cbd565b506109958160020154836112a4565b60028201556109cf6001600160a01b037f000000000000000000000000000000000000000000000000000000000000000016333085611344565b6109db605e54836112a4565b605e556109e66113a4565b60408051838152905133917fe1fffcc4923d04b559f4d29a8bfc6cda04eb5b0d3c460751c2402c5c5cc9109c919081900360200190a25050565b33600090815261011b602052604090205490565b600080610a61427f0000000000000000000000000000000000000000000000000000000000000000611200565b90506000610a8f827f0000000000000000000000000000000000000000000000000000000000000000611302565b9050605c8111156104a557605c925050506104a9565b610aad6112fe565b6000546001600160a01b03908116911614610b0f576040805162461bcd60e51b815260206004820181905260248201527f4f776e61626c653a2063616c6c6572206973206e6f7420746865206f776e6572604482015290519081900360640190fd5b60008111610b4e5760405162461bcd60e51b81526004018080602001828103825260278152602001806117966027913960400191505060405180910390fd5b7f000000000000000000000000000000000000000000000000000000000000000060bc5410610bc4576040805162461bcd60e51b815260206004820152601a60248201527f66756e643a20616c72656164792066756c6c792066756e646564000000000000604482015290519081900360640190fd5b7f0000000000000000000000000000000000000000000000000000000000000000610bf160bc54836112a4565b1115610c2e5760405162461bcd60e51b81526004018080602001828103825260478152602001806118ff6047913960600191505060405180910390fd5b610c636001600160a01b037f000000000000000000000000000000000000000000000000000000000000000016333084611344565b610c6f60bc54826112a4565b60bc5561011a54610c8090826112a4565b61011a5560408051828152905133917fda8220a878ff7a89474ccffdaa31ea1ed1ffbb0207d5051afccc4fbaf81f9bcd919081900360200190a250565b600080610cc8610a34565b90506000610cd7826001611200565b905081610ce9576000925050506104a9565b33600090815261011b602052604090206002810154610d145760018101919091555491506104a99050565b6000816001015490506000610d2a8260016112a4565b905083811115610d415750505492506104a9915050565b6000815b858111610e1b57600181605d8110610d5957fe5b0154610d6457610e13565b6000678ac7230489e8000090506000610d8187600201548361124b565b9050610d9481600185605d81106107ba57fe5b9050610da781605f85605d81106107d457fe5b9050610db38183611302565b90508060bd84605d8110610dc357fe5b01541015610ddd5760bd83605d8110610dd857fe5b015490505b610de784826112a4565b9350610e0160bd84605d8110610df957fe5b015482611200565b60bd84605d8110610e0e57fe5b015550505b600101610d45565b508354610e2890826112a4565b845561011a54610e389082611200565b61011a5550505060018101919091555491505090565b610e56610cbd565b50610e6081610e63565b50565b60008111610ea25760405162461bcd60e51b81526004018080602001828103825260348152602001806119466034913960400191505060405180910390fd5b33600090815261011b602052604090206002810154821115610ef55760405162461bcd60e51b815260040180806020018281038252605581526020018061197a6055913960600191505060405180910390fd5b610f296001600160a01b037f00000000000000000000000000000000000000000000000000000000000000001633846113d4565b610f37816002015483611200565b6002820155605e54610f499083611200565b605e55610f546113a4565b60408051838152905133917f9ff1f6fca62db8aea6bb65479d61889ec56735cfd22e000a074a7a743bbefd9a919081900360200190a25050565b6000808211610fce5760405162461bcd60e51b815260040180806020018281038252604d815260200180611874604d913960600191505060405180910390fd5b610fd6610cbd565b5033600090815261011b6020526040902080548311156110275760405162461bcd60e51b81526004018080602001828103825260708152602001806117bd6070913960800191505060405180910390fd5b61105b6001600160a01b037f00000000000000000000000000000000000000000000000000000000000000001633856113d4565b80546110679084611200565b815560408051848152905133917ff73307870ca297a8da0add6652fd7a189e06042a6d5466a606d74933b52da14e919081900360200190a25090919050565b605f81605d81106104ff57fe5b6110bb6112fe565b6000546001600160a01b0390811691161461111d576040805162461bcd60e51b815260206004820181905260248201527f4f776e61626c653a2063616c6c6572206973206e6f7420746865206f776e6572604482015290519081900360640190fd5b6001600160a01b0381166111625760405162461bcd60e51b815260040180806020018281038252602681526020018061182d6026913960400191505060405180910390fd5b600080546040516001600160a01b03808516939216917f8be0079c531659141344cd1fd0a4f28419497f9722a3daafe3b4186f6b6457e091a3600080546001600160a01b0319166001600160a01b0392909216919091179055565b7f000000000000000000000000000000000000000000000000000000000000000081565b60006111eb610cbd565b506111fc6111f7610a20565b610f8e565b5090565b600061124283836040518060400160405280601e81526020017f536166654d6174683a207375627472616374696f6e206f766572666c6f77000081525061142b565b90505b92915050565b60008261125a57506000611245565b8282028284828161126757fe5b04146112425760405162461bcd60e51b81526004018080602001828103825260218152602001806118536021913960400191505060405180910390fd5b600082820183811015611242576040805162461bcd60e51b815260206004820152601b60248201527f536166654d6174683a206164646974696f6e206f766572666c6f770000000000604482015290519081900360640190fd5b3390565b600061124283836040518060400160405280601a81526020017f536166654d6174683a206469766973696f6e206279207a65726f0000000000008152506114c2565b604080516001600160a01b0380861660248301528416604482015260648082018490528251808303909101815260849091019091526020810180516001600160e01b03166323b872dd60e01b17905261139e908590611527565b50505050565b60006113ae610a34565b9050805b605c811161047e57605e54600182605d81106113ca57fe5b01556001016113b2565b604080516001600160a01b038416602482015260448082018490528251808303909101815260649091019091526020810180516001600160e01b031663a9059cbb60e01b179052611426908490611527565b505050565b600081848411156114ba5760405162461bcd60e51b81526004018080602001828103825283818151815260200191508051906020019080838360005b8381101561147f578181015183820152602001611467565b50505050905090810190601f1680156114ac5780820380516001836020036101000a031916815260200191505b509250505060405180910390fd5b505050900390565b600081836115115760405162461bcd60e51b815260206004820181815283516024840152835190928392604490910191908501908083836000831561147f578181015183820152602001611467565b50600083858161151d57fe5b0495945050505050565b606061157c826040518060400160405280602081526020017f5361666545524332303a206c6f772d6c6576656c2063616c6c206661696c6564815250856001600160a01b03166115d89092919063ffffffff16565b8051909150156114265780806020019051602081101561159b57600080fd5b50516114265760405162461bcd60e51b815260040180806020018281038252602a815260200180611a0c602a913960400191505060405180910390fd5b60606115e784846000856115ef565b949350505050565b60606115fa8561175c565b61164b576040805162461bcd60e51b815260206004820152601d60248201527f416464726573733a2063616c6c20746f206e6f6e2d636f6e7472616374000000604482015290519081900360640190fd5b60006060866001600160a01b031685876040518082805190602001908083835b6020831061168a5780518252601f19909201916020918201910161166b565b6001836020036101000a03801982511681845116808217855250505050505090500191505060006040518083038185875af1925050503d80600081146116ec576040519150601f19603f3d011682016040523d82523d6000602084013e6116f1565b606091505b509150915081156117055791506115e79050565b8051156117155780518082602001fd5b60405162461bcd60e51b815260206004820181815286516024840152865187939192839260440191908501908083836000831561147f578181015183820152602001611467565b6000813f7fc5d2460186f7233c927e7db2dcc703c0e500b653ca82273b7bfad8045d85a4708181148015906115e757505015159291505056fe66756e643a205f66756e644572633230416d6f756e74206d75737420626520706f73697469766577697468647261773a20757365722e63757272656e746c7941737369676e6564526577617264416d6f756e7420697320746f6f206c6f7720666f722074686973206f7065726174696f6e2c205f726577617264416d6f756e74546f426554616b656e4f757420697320746f6f206269674f776e61626c653a206e6577206f776e657220697320746865207a65726f2061646472657373536166654d6174683a206d756c7469706c69636174696f6e206f766572666c6f7774616b654f7574536f6d654f66546865416363756d756c617465645265776172643a205f726577617264416d6f756e74546f426554616b656e4f7574206d75737420626520706f7369746976656465706f7369743a2063616e6e6f74206465706f73697420616e796d6f72652c2063757272656e742074696d6520697320616674657220656e6454696d6566756e643a205f66756e644572633230416d6f756e7420746f6f206269672c2073756d20776f756c642065786365656420746f74616c4572633230526577617264416d6f756e7477697468647261774c7074436f72653a205f77697468647261774c7074416d6f756e74206d75737420626520706f73697469766577697468647261774c7074436f72653a2063616e6e6f74207769746864726177206d6f7265207468616e20746865206465706f7369742c205f77697468647261774c7074416d6f756e7420697320746f6f206269676465706f7369743a2063616e6e6f74206465706f736974207965742c2063757272656e742074696d65206973206265666f726520737461727454696d655361666545524332303a204552433230206f7065726174696f6e20646964206e6f7420737563636565646465706f7369743a205f6465706f7369744c7074416d6f756e74206d75737420626520706f736974697665a2646970667358221220a7c089a75e479a53287f4a31c525e4417a62c4a99735aa115e3db98f821bdda264736f6c634300060c0033636f6e7374727563746f723a205f737461727454696d6520697320746f6f20736d616c6c536166654d6174683a206d756c7469706c69636174696f6e206f766572666c6f77"}}