{
  "opcodeHash": "0xdf643cea152dc69928eef0d142ed9197e61f6a954246730f35cbfe2d77aaf6e0",
  "metalessHash": "0x4064c0b4192fc96e5d9fa54c277b9196f1016589ea1a622cd8f65db50949ed35",
  "runtimeHash": "0x961eac72a36851605c3945d97b9652a05a4f0a79363036c1da4089d97d7960ea",
  "encodedMetadata": [
    {
      "ipfs": "/ipfs/QmbZaJ88H5eHucJCnr6iJgduaNipAd875gYrPknHZEXvnv",
      "solc": "0.8.7"
    }
  ],
  "abi": [
    {
      "inputs": [
        {
          "internalType": "string",
          "name": "url",
          "type": "string"
        }
      ],
      "stateMutability": "nonpayable",
      "type": "constructor"
    },
    {
      "anonymous": false,
      "inputs": [
        {
          "indexed": true,
          "internalType": "address",
          "name": "account",
          "type": "address"
        },
        {
          "indexed": true,
          "internalType": "address",
          "name": "operator",
          "type": "address"
        },
        {
          "indexed": false,
          "internalType": "bool",
          "name": "approved",
          "type": "bool"
        }
      ],
      "name": "ApprovalForAll",
      "type": "event"
    },
    {
      "anonymous": false,
      "inputs": [
        {
          "indexed": true,
          "internalType": "address",
          "name": "previousOwner",
          "type": "address"
        },
        {
          "indexed": true,
          "internalType": "address",
          "name": "newOwner",
          "type": "address"
        }
      ],
      "name": "OwnershipTransferred",
      "type": "event"
    },
    {
      "anonymous": false,
      "inputs": [
        {
          "indexed": true,
          "internalType": "address",
          "name": "operator",
          "type": "address"
        },
        {
          "indexed": true,
          "internalType": "address",
          "name": "from",
          "type": "address"
        },
        {
          "indexed": true,
          "internalType": "address",
          "name": "to",
          "type": "address"
        },
        {
          "indexed": false,
          "internalType": "uint256[]",
          "name": "ids",
          "type": "uint256[]"
        },
        {
          "indexed": false,
          "internalType": "uint256[]",
          "name": "values",
          "type": "uint256[]"
        }
      ],
      "name": "TransferBatch",
      "type": "event"
    },
    {
      "anonymous": false,
      "inputs": [
        {
          "indexed": true,
          "internalType": "address",
          "name": "operator",
          "type": "address"
        },
        {
          "indexed": true,
          "internalType": "address",
          "name": "from",
          "type": "address"
        },
        {
          "indexed": true,
          "internalType": "address",
          "name": "to",
          "type": "address"
        },
        {
          "indexed": false,
          "internalType": "uint256",
          "name": "id",
          "type": "uint256"
        },
        {
          "indexed": false,
          "internalType": "uint256",
          "name": "value",
          "type": "uint256"
        }
      ],
      "name": "TransferSingle",
      "type": "event"
    },
    {
      "anonymous": false,
      "inputs": [
        {
          "indexed": false,
          "internalType": "string",
          "name": "value",
          "type": "string"
        },
        {
          "indexed": true,
          "internalType": "uint256",
          "name": "id",
          "type": "uint256"
        }
      ],
      "name": "URI",
      "type": "event"
    },
    {
      "inputs": [
        {
          "internalType": "address",
          "name": "account",
          "type": "address"
        },
        {
          "internalType": "uint256",
          "name": "id",
          "type": "uint256"
        }
      ],
      "name": "balanceOf",
      "outputs": [
        {
          "internalType": "uint256",
          "name": "",
          "type": "uint256"
        }
      ],
      "stateMutability": "view",
      "type": "function"
    },
    {
      "inputs": [
        {
          "internalType": "address[]",
          "name": "accounts",
          "type": "address[]"
        },
        {
          "internalType": "uint256[]",
          "name": "ids",
          "type": "uint256[]"
        }
      ],
      "name": "balanceOfBatch",
      "outputs": [
        {
          "internalType": "uint256[]",
          "name": "",
          "type": "uint256[]"
        }
      ],
      "stateMutability": "view",
      "type": "function"
    },
    {
      "inputs": [
        {
          "internalType": "address",
          "name": "account",
          "type": "address"
        },
        {
          "internalType": "address",
          "name": "operator",
          "type": "address"
        }
      ],
      "name": "isApprovedForAll",
      "outputs": [
        {
          "internalType": "bool",
          "name": "",
          "type": "bool"
        }
      ],
      "stateMutability": "view",
      "type": "function"
    },
    {
      "inputs": [
        {
          "internalType": "address",
          "name": "account",
          "type": "address"
        },
        {
          "internalType": "uint256",
          "name": "id",
          "type": "uint256"
        },
        {
          "internalType": "uint256",
          "name": "amount",
          "type": "uint256"
        },
        {
          "internalType": "bytes",
          "name": "data",
          "type": "bytes"
        }
      ],
      "name": "mint",
      "outputs": [],
      "stateMutability": "nonpayable",
      "type": "function"
    },
    {
      "inputs": [
        {
          "internalType": "address",
          "name": "to",
          "type": "address"
        },
        {
          "internalType": "uint256[]",
          "name": "ids",
          "type": "uint256[]"
        },
        {
          "internalType": "uint256[]",
          "name": "amounts",
          "type": "uint256[]"
        },
        {
          "internalType": "bytes",
          "name": "data",
          "type": "bytes"
        }
      ],
      "name": "mintBatch",
      "outputs": [],
      "stateMutability": "nonpayable",
      "type": "function"
    },
    {
      "inputs": [],
      "name": "owner",
      "outputs": [
        {
          "internalType": "address",
          "name": "",
          "type": "address"
        }
      ],
      "stateMutability": "view",
      "type": "function"
    },
    {
      "inputs": [],
      "name": "renounceOwnership",
      "outputs": [],
      "stateMutability": "nonpayable",
      "type": "function"
    },
    {
      "inputs": [],
      "name": "reveal",
      "outputs": [],
      "stateMutability": "nonpayable",
      "type": "function"
    },
    {
      "inputs": [],
      "name": "revealed",
      "outputs": [
        {
          "internalType": "bool",
          "name": "",
          "type": "bool"
        }
      ],
      "stateMutability": "view",
      "type": "function"
    },
    {
      "inputs": [
        {
          "internalType": "address",
          "name": "from",
          "type": "address"
        },
        {
          "internalType": "address",
          "name": "to",
          "type": "address"
        },
        {
          "internalType": "uint256[]",
          "name": "ids",
          "type": "uint256[]"
        },
        {
          "internalType": "uint256[]",
          "name": "amounts",
          "type": "uint256[]"
        },
        {
          "internalType": "bytes",
          "name": "data",
          "type": "bytes"
        }
      ],
      "name": "safeBatchTransferFrom",
      "outputs": [],
      "stateMutability": "nonpayable",
      "type": "function"
    },
    {
      "inputs": [
        {
          "internalType": "address",
          "name": "from",
          "type": "address"
        },
        {
          "internalType": "address",
          "name": "to",
          "type": "address"
        },
        {
          "internalType": "uint256",
          "name": "id",
          "type": "uint256"
        },
        {
          "internalType": "uint256",
          "name": "amount",
          "type": "uint256"
        },
        {
          "internalType": "bytes",
          "name": "data",
          "type": "bytes"
        }
      ],
      "name": "safeTransferFrom",
      "outputs": [],
      "stateMutability": "nonpayable",
      "type": "function"
    },
    {
      "inputs": [
        {
          "internalType": "address",
          "name": "operator",
          "type": "address"
        },
        {
          "internalType": "bool",
          "name": "approved",
          "type": "bool"
        }
      ],
      "name": "setApprovalForAll",
      "outputs": [],
      "stateMutability": "nonpayable",
      "type": "function"
    },
    {
      "inputs": [
        {
          "internalType": "string",
          "name": "fake",
          "type": "string"
        }
      ],
      "name": "setFakeUrl",
      "outputs": [],
      "stateMutability": "nonpayable",
      "type": "function"
    },
    {
      "inputs": [
        {
          "internalType": "string",
          "name": "newuri",
          "type": "string"
        }
      ],
      "name": "setURI",
      "outputs": [],
      "stateMutability": "nonpayable",
      "type": "function"
    },
    {
      "inputs": [
        {
          "internalType": "bytes4",
          "name": "interfaceId",
          "type": "bytes4"
        }
      ],
      "name": "supportsInterface",
      "outputs": [
        {
          "internalType": "bool",
          "name": "",
          "type": "bool"
        }
      ],
      "stateMutability": "view",
      "type": "function"
    },
    {
      "inputs": [
        {
          "internalType": "address",
          "name": "newOwner",
          "type": "address"
        }
      ],
      "name": "transferOwnership",
      "outputs": [],
      "stateMutability": "nonpayable",
      "type": "function"
    },
    {
      "inputs": [
        {
          "internalType": "uint256",
          "name": "tokenId",
          "type": "uint256"
        }
      ],
      "name": "uri",
      "outputs": [
        {
          "internalType": "string",
          "name": "",
          "type": "string"
        }
      ],
      "stateMutability": "view",
      "type": "function"
    }
  ],
  "bytecode": {
    "object": "60806040526000600360146101000a81548160ff0219169083151502179055503480156200002c57600080fd5b5060405162003d2e38038062003d2e8339818101604052810190620000529190620002bd565b806200006481620000a560201b60201c565b506200008562000079620000c160201b60201c565b620000c960201b60201c565b80600490805190602001906200009d9291906200018f565b505062000492565b8060029080519060200190620000bd9291906200018f565b5050565b600033905090565b6000600360009054906101000a900473ffffffffffffffffffffffffffffffffffffffff16905081600360006101000a81548173ffffffffffffffffffffffffffffffffffffffff021916908373ffffffffffffffffffffffffffffffffffffffff1602179055508173ffffffffffffffffffffffffffffffffffffffff168173ffffffffffffffffffffffffffffffffffffffff167f8be0079c531659141344cd1fd0a4f28419497f9722a3daafe3b4186f6b6457e060405160405180910390a35050565b8280546200019d90620003a3565b90600052602060002090601f016020900481019282620001c157600085556200020d565b82601f10620001dc57805160ff19168380011785556200020d565b828001600101855582156200020d579182015b828111156200020c578251825591602001919060010190620001ef565b5b5090506200021c919062000220565b5090565b5b808211156200023b57600081600090555060010162000221565b5090565b600062000256620002508462000337565b6200030e565b90508281526020810184848401111562000275576200027462000472565b5b620002828482856200036d565b509392505050565b600082601f830112620002a257620002a16200046d565b5b8151620002b48482602086016200023f565b91505092915050565b600060208284031215620002d657620002d56200047c565b5b600082015167ffffffffffffffff811115620002f757620002f662000477565b5b62000305848285016200028a565b91505092915050565b60006200031a6200032d565b9050620003288282620003d9565b919050565b6000604051905090565b600067ffffffffffffffff8211156200035557620003546200043e565b5b620003608262000481565b9050602081019050919050565b60005b838110156200038d57808201518184015260208101905062000370565b838111156200039d576000848401525b50505050565b60006002820490506001821680620003bc57607f821691505b60208210811415620003d357620003d26200040f565b5b50919050565b620003e48262000481565b810181811067ffffffffffffffff821117156200040657620004056200043e565b5b80604052505050565b7f4e487b7100000000000000000000000000000000000000000000000000000000600052602260045260246000fd5b7f4e487b7100000000000000000000000000000000000000000000000000000000600052604160045260246000fd5b600080fd5b600080fd5b600080fd5b600080fd5b6000601f19601f8301169050919050565b61388c80620004a26000396000f3fe608060405234801561001057600080fd5b506004361061010a5760003560e01c806351830227116100a2578063a22cb46511610071578063a22cb465146102a1578063a475b5dd146102bd578063e985e9c5146102c7578063f242432a146102f7578063f2fde38b146103135761010a565b8063518302271461023f578063715018a61461025d578063731133e9146102675780638da5cb5b146102835761010a565b80631e8a78f8116100de5780631e8a78f8146101bb5780631f7fdffa146101d75780632eb2c2d6146101f35780634e1273f41461020f5761010a565b8062fdd58e1461010f57806301ffc9a71461013f57806302fe53051461016f5780630e89341c1461018b575b600080fd5b6101296004803603810190610124919061249f565b61032f565b6040516101369190612def565b60405180910390f35b610159600480360381019061015491906125da565b6103f8565b6040516101669190612c12565b60405180910390f35b61018960048036038101906101849190612634565b6104da565b005b6101a560048036038101906101a0919061267d565b610570565b6040516101b29190612c2d565b60405180910390f35b6101d560048036038101906101d09190612634565b6105e9565b005b6101f160048036038101906101ec91906123a4565b61067f565b005b61020d6004803603810190610208919061223e565b61070d565b005b61022960048036038101906102249190612562565b6107ae565b6040516102369190612bb9565b60405180910390f35b6102476108c7565b6040516102549190612c12565b60405180910390f35b6102656108da565b005b610281600480360381019061027c91906124df565b610962565b005b61028b6109f0565b6040516102989190612adc565b60405180910390f35b6102bb60048036038101906102b6919061245f565b610a1a565b005b6102c5610a30565b005b6102e160048036038101906102dc91906121fe565b610ac9565b6040516102ee9190612c12565b60405180910390f35b610311600480360381019061030c919061230d565b610b5d565b005b61032d600480360381019061032891906121d1565b610bfe565b005b60008073ffffffffffffffffffffffffffffffffffffffff168373ffffffffffffffffffffffffffffffffffffffff1614156103a0576040517f08c379a000000000000000000000000000000000000000000000000000000000815260040161039790612c8f565b60405180910390fd5b60008083815260200190815260200160002060008473ffffffffffffffffffffffffffffffffffffffff1673ffffffffffffffffffffffffffffffffffffffff16815260200190815260200160002054905092915050565b60007fd9b67a26000000000000000000000000000000000000000000000000000000007bffffffffffffffffffffffffffffffffffffffffffffffffffffffff1916827bffffffffffffffffffffffffffffffffffffffffffffffffffffffff191614806104c357507f0e89341c000000000000000000000000000000000000000000000000000000007bffffffffffffffffffffffffffffffffffffffffffffffffffffffff1916827bffffffffffffffffffffffffffffffffffffffffffffffffffffffff1916145b806104d357506104d282610cf6565b5b9050919050565b6104e2610d60565b73ffffffffffffffffffffffffffffffffffffffff166105006109f0565b73ffffffffffffffffffffffffffffffffffffffff1614610556576040517f08c379a000000000000000000000000000000000000000000000000000000000815260040161054d90612d4f565b60405180910390fd5b806004908051906020019061056c929190611ea9565b5050565b606060001515600360149054906101000a900460ff16151514156105b65760056040516020016105a09190612a8b565b60405160208183030381529060405290506105e4565b60046105c183610d68565b6040516020016105d2929190612aa2565b60405160208183030381529060405290505b919050565b6105f1610d60565b73ffffffffffffffffffffffffffffffffffffffff1661060f6109f0565b73ffffffffffffffffffffffffffffffffffffffff1614610665576040517f08c379a000000000000000000000000000000000000000000000000000000000815260040161065c90612d4f565b60405180910390fd5b806005908051906020019061067b929190611ea9565b5050565b610687610d60565b73ffffffffffffffffffffffffffffffffffffffff166106a56109f0565b73ffffffffffffffffffffffffffffffffffffffff16146106fb576040517f08c379a00000000000000000000000000000000000000000000000000000000081526004016106f290612d4f565b60405180910390fd5b61070784848484610ec9565b50505050565b610715610d60565b73ffffffffffffffffffffffffffffffffffffffff168573ffffffffffffffffffffffffffffffffffffffff16148061075b575061075a85610755610d60565b610ac9565b5b61079a576040517f08c379a000000000000000000000000000000000000000000000000000000000815260040161079190612d0f565b60405180910390fd5b6107a785858585856110e7565b5050505050565b606081518351146107f4576040517f08c379a00000000000000000000000000000000000000000000000000000000081526004016107eb90612d8f565b60405180910390fd5b6000835167ffffffffffffffff811115610811576108106132ad565b5b60405190808252806020026020018201604052801561083f5781602001602082028036833780820191505090505b50905060005b84518110156108bc5761088c8582815181106108645761086361327e565b5b602002602001015185838151811061087f5761087e61327e565b5b602002602001015161032f565b82828151811061089f5761089e61327e565b5b602002602001018181525050806108b590613177565b9050610845565b508091505092915050565b600360149054906101000a900460ff1681565b6108e2610d60565b73ffffffffffffffffffffffffffffffffffffffff166109006109f0565b73ffffffffffffffffffffffffffffffffffffffff1614610956576040517f08c379a000000000000000000000000000000000000000000000000000000000815260040161094d90612d4f565b60405180910390fd5b61096060006113fb565b565b61096a610d60565b73ffffffffffffffffffffffffffffffffffffffff166109886109f0565b73ffffffffffffffffffffffffffffffffffffffff16146109de576040517f08c379a00000000000000000000000000000000000000000000000000000000081526004016109d590612d4f565b60405180910390fd5b6109ea848484846114c1565b50505050565b6000600360009054906101000a900473ffffffffffffffffffffffffffffffffffffffff16905090565b610a2c610a25610d60565b8383611657565b5050565b610a38610d60565b73ffffffffffffffffffffffffffffffffffffffff16610a566109f0565b73ffffffffffffffffffffffffffffffffffffffff1614610aac576040517f08c379a0000000000000000000000000000000000000000000000000000000008152600401610aa390612d4f565b60405180910390fd5b6001600360146101000a81548160ff021916908315150217905550565b6000600160008473ffffffffffffffffffffffffffffffffffffffff1673ffffffffffffffffffffffffffffffffffffffff16815260200190815260200160002060008373ffffffffffffffffffffffffffffffffffffffff1673ffffffffffffffffffffffffffffffffffffffff16815260200190815260200160002060009054906101000a900460ff16905092915050565b610b65610d60565b73ffffffffffffffffffffffffffffffffffffffff168573ffffffffffffffffffffffffffffffffffffffff161480610bab5750610baa85610ba5610d60565b610ac9565b5b610bea576040517f08c379a0000000000000000000000000000000000000000000000000000000008152600401610be190612ccf565b60405180910390fd5b610bf785858585856117c4565b5050505050565b610c06610d60565b73ffffffffffffffffffffffffffffffffffffffff16610c246109f0565b73ffffffffffffffffffffffffffffffffffffffff1614610c7a576040517f08c379a0000000000000000000000000000000000000000000000000000000008152600401610c7190612d4f565b60405180910390fd5b600073ffffffffffffffffffffffffffffffffffffffff168173ffffffffffffffffffffffffffffffffffffffff161415610cea576040517f08c379a0000000000000000000000000000000000000000000000000000000008152600401610ce190612caf565b60405180910390fd5b610cf3816113fb565b50565b60007f01ffc9a7000000000000000000000000000000000000000000000000000000007bffffffffffffffffffffffffffffffffffffffffffffffffffffffff1916827bffffffffffffffffffffffffffffffffffffffffffffffffffffffff1916149050919050565b600033905090565b60606000821415610db0576040518060400160405280600181526020017f30000000000000000000000000000000000000000000000000000000000000008152509050610ec4565b600082905060005b60008214610de2578080610dcb90613177565b915050600a82610ddb9190612ff9565b9150610db8565b60008167ffffffffffffffff811115610dfe57610dfd6132ad565b5b6040519080825280601f01601f191660200182016040528015610e305781602001600182028036833780820191505090505b5090505b60008514610ebd57600182610e49919061302a565b9150600a85610e5891906131c0565b6030610e649190612fa3565b60f81b818381518110610e7a57610e7961327e565b5b60200101907effffffffffffffffffffffffffffffffffffffffffffffffffffffffffffff1916908160001a905350600a85610eb69190612ff9565b9450610e34565b8093505050505b919050565b600073ffffffffffffffffffffffffffffffffffffffff168473ffffffffffffffffffffffffffffffffffffffff161415610f39576040517f08c379a0000000000000000000000000000000000000000000000000000000008152600401610f3090612dcf565b60405180910390fd5b8151835114610f7d576040517f08c379a0000000000000000000000000000000000000000000000000000000008152600401610f7490612daf565b60405180910390fd5b6000610f87610d60565b9050610f9881600087878787611a46565b60005b845181101561105157838181518110610fb757610fb661327e565b5b6020026020010151600080878481518110610fd557610fd461327e565b5b6020026020010151815260200190815260200160002060008873ffffffffffffffffffffffffffffffffffffffff1673ffffffffffffffffffffffffffffffffffffffff16815260200190815260200160002060008282546110379190612fa3565b92505081905550808061104990613177565b915050610f9b565b508473ffffffffffffffffffffffffffffffffffffffff16600073ffffffffffffffffffffffffffffffffffffffff168273ffffffffffffffffffffffffffffffffffffffff167f4a39dc06d4c0dbc64b70af90fd698a233a518aa5d07e595d983b8c0526c8f7fb87876040516110c9929190612bdb565b60405180910390a46110e081600087878787611a4e565b5050505050565b815183511461112b576040517f08c379a000000000000000000000000000000000000000000000000000000000815260040161112290612daf565b60405180910390fd5b600073ffffffffffffffffffffffffffffffffffffffff168473ffffffffffffffffffffffffffffffffffffffff16141561119b576040517f08c379a000000000000000000000000000000000000000000000000000000000815260040161119290612cef565b60405180910390fd5b60006111a5610d60565b90506111b5818787878787611a46565b60005b84518110156113665760008582815181106111d6576111d561327e565b5b6020026020010151905060008583815181106111f5576111f461327e565b5b60200260200101519050600080600084815260200190815260200160002060008b73ffffffffffffffffffffffffffffffffffffffff1673ffffffffffffffffffffffffffffffffffffffff16815260200190815260200160002054905081811015611296576040517f08c379a000000000000000000000000000000000000000000000000000000000815260040161128d90612d2f565b60405180910390fd5b81810360008085815260200190815260200160002060008c73ffffffffffffffffffffffffffffffffffffffff1673ffffffffffffffffffffffffffffffffffffffff168152602001908152602001600020819055508160008085815260200190815260200160002060008b73ffffffffffffffffffffffffffffffffffffffff1673ffffffffffffffffffffffffffffffffffffffff168152602001908152602001600020600082825461134b9190612fa3565b925050819055505050508061135f90613177565b90506111b8565b508473ffffffffffffffffffffffffffffffffffffffff168673ffffffffffffffffffffffffffffffffffffffff168273ffffffffffffffffffffffffffffffffffffffff167f4a39dc06d4c0dbc64b70af90fd698a233a518aa5d07e595d983b8c0526c8f7fb87876040516113dd929190612bdb565b60405180910390a46113f3818787878787611a4e565b505050505050565b6000600360009054906101000a900473ffffffffffffffffffffffffffffffffffffffff16905081600360006101000a81548173ffffffffffffffffffffffffffffffffffffffff021916908373ffffffffffffffffffffffffffffffffffffffff1602179055508173ffffffffffffffffffffffffffffffffffffffff168173ffffffffffffffffffffffffffffffffffffffff167f8be0079c531659141344cd1fd0a4f28419497f9722a3daafe3b4186f6b6457e060405160405180910390a35050565b600073ffffffffffffffffffffffffffffffffffffffff168473ffffffffffffffffffffffffffffffffffffffff161415611531576040517f08c379a000000000000000000000000000000000000000000000000000000000815260040161152890612dcf565b60405180910390fd5b600061153b610d60565b905061155c8160008761154d88611c35565b61155688611c35565b87611a46565b8260008086815260200190815260200160002060008773ffffffffffffffffffffffffffffffffffffffff1673ffffffffffffffffffffffffffffffffffffffff16815260200190815260200160002060008282546115bb9190612fa3565b925050819055508473ffffffffffffffffffffffffffffffffffffffff16600073ffffffffffffffffffffffffffffffffffffffff168273ffffffffffffffffffffffffffffffffffffffff167fc3d58168c5ae7397731d063d5bbf3d657854427343f4c083240f7aacaa2d0f628787604051611639929190612e0a565b60405180910390a461165081600087878787611caf565b5050505050565b8173ffffffffffffffffffffffffffffffffffffffff168373ffffffffffffffffffffffffffffffffffffffff1614156116c6576040517f08c379a00000000000000000000000000000000000000000000000000000000081526004016116bd90612d6f565b60405180910390fd5b80600160008573ffffffffffffffffffffffffffffffffffffffff1673ffffffffffffffffffffffffffffffffffffffff16815260200190815260200160002060008473ffffffffffffffffffffffffffffffffffffffff1673ffffffffffffffffffffffffffffffffffffffff16815260200190815260200160002060006101000a81548160ff0219169083151502179055508173ffffffffffffffffffffffffffffffffffffffff168373ffffffffffffffffffffffffffffffffffffffff167f17307eab39ab6107e8899845ad3d59bd9653f200f220920489ca2b5937696c31836040516117b79190612c12565b60405180910390a3505050565b600073ffffffffffffffffffffffffffffffffffffffff168473ffffffffffffffffffffffffffffffffffffffff161415611834576040517f08c379a000000000000000000000000000000000000000000000000000000000815260040161182b90612cef565b60405180910390fd5b600061183e610d60565b905061185e81878761184f88611c35565b61185888611c35565b87611a46565b600080600086815260200190815260200160002060008873ffffffffffffffffffffffffffffffffffffffff1673ffffffffffffffffffffffffffffffffffffffff168152602001908152602001600020549050838110156118f5576040517f08c379a00000000000000000000000000000000000000000000000000000000081526004016118ec90612d2f565b60405180910390fd5b83810360008087815260200190815260200160002060008973ffffffffffffffffffffffffffffffffffffffff1673ffffffffffffffffffffffffffffffffffffffff168152602001908152602001600020819055508360008087815260200190815260200160002060008873ffffffffffffffffffffffffffffffffffffffff1673ffffffffffffffffffffffffffffffffffffffff16815260200190815260200160002060008282546119aa9190612fa3565b925050819055508573ffffffffffffffffffffffffffffffffffffffff168773ffffffffffffffffffffffffffffffffffffffff168373ffffffffffffffffffffffffffffffffffffffff167fc3d58168c5ae7397731d063d5bbf3d657854427343f4c083240f7aacaa2d0f628888604051611a27929190612e0a565b60405180910390a4611a3d828888888888611caf565b50505050505050565b505050505050565b611a6d8473ffffffffffffffffffffffffffffffffffffffff16611e96565b15611c2d578373ffffffffffffffffffffffffffffffffffffffff1663bc197c8187878686866040518663ffffffff1660e01b8152600401611ab3959493929190612af7565b602060405180830381600087803b158015611acd57600080fd5b505af1925050508015611afe57506040513d601f19601f82011682018060405250810190611afb9190612607565b60015b611ba457611b0a6132dc565b806308c379a01415611b675750611b1f613764565b80611b2a5750611b69565b806040517f08c379a0000000000000000000000000000000000000000000000000000000008152600401611b5e9190612c2d565b60405180910390fd5b505b6040517f08c379a0000000000000000000000000000000000000000000000000000000008152600401611b9b90612c4f565b60405180910390fd5b63bc197c8160e01b7bffffffffffffffffffffffffffffffffffffffffffffffffffffffff1916817bffffffffffffffffffffffffffffffffffffffffffffffffffffffff191614611c2b576040517f08c379a0000000000000000000000000000000000000000000000000000000008152600401611c2290612c6f565b60405180910390fd5b505b505050505050565b60606000600167ffffffffffffffff811115611c5457611c536132ad565b5b604051908082528060200260200182016040528015611c825781602001602082028036833780820191505090505b5090508281600081518110611c9a57611c9961327e565b5b60200260200101818152505080915050919050565b611cce8473ffffffffffffffffffffffffffffffffffffffff16611e96565b15611e8e578373ffffffffffffffffffffffffffffffffffffffff1663f23a6e6187878686866040518663ffffffff1660e01b8152600401611d14959493929190612b5f565b602060405180830381600087803b158015611d2e57600080fd5b505af1925050508015611d5f57506040513d601f19601f82011682018060405250810190611d5c9190612607565b60015b611e0557611d6b6132dc565b806308c379a01415611dc85750611d80613764565b80611d8b5750611dca565b806040517f08c379a0000000000000000000000000000000000000000000000000000000008152600401611dbf9190612c2d565b60405180910390fd5b505b6040517f08c379a0000000000000000000000000000000000000000000000000000000008152600401611dfc90612c4f565b60405180910390fd5b63f23a6e6160e01b7bffffffffffffffffffffffffffffffffffffffffffffffffffffffff1916817bffffffffffffffffffffffffffffffffffffffffffffffffffffffff191614611e8c576040517f08c379a0000000000000000000000000000000000000000000000000000000008152600401611e8390612c6f565b60405180910390fd5b505b505050505050565b600080823b905060008111915050919050565b828054611eb590613114565b90600052602060002090601f016020900481019282611ed75760008555611f1e565b82601f10611ef057805160ff1916838001178555611f1e565b82800160010185558215611f1e579182015b82811115611f1d578251825591602001919060010190611f02565b5b509050611f2b9190611f2f565b5090565b5b80821115611f48576000816000905550600101611f30565b5090565b6000611f5f611f5a84612e58565b612e33565b90508083825260208201905082856020860282011115611f8257611f81613303565b5b60005b85811015611fb25781611f9888826120b0565b845260208401935060208301925050600181019050611f85565b5050509392505050565b6000611fcf611fca84612e84565b612e33565b90508083825260208201905082856020860282011115611ff257611ff1613303565b5b60005b85811015612022578161200888826121bc565b845260208401935060208301925050600181019050611ff5565b5050509392505050565b600061203f61203a84612eb0565b612e33565b90508281526020810184848401111561205b5761205a613308565b5b6120668482856130d2565b509392505050565b600061208161207c84612ee1565b612e33565b90508281526020810184848401111561209d5761209c613308565b5b6120a88482856130d2565b509392505050565b6000813590506120bf816137fa565b92915050565b600082601f8301126120da576120d96132fe565b5b81356120ea848260208601611f4c565b91505092915050565b600082601f830112612108576121076132fe565b5b8135612118848260208601611fbc565b91505092915050565b60008135905061213081613811565b92915050565b60008135905061214581613828565b92915050565b60008151905061215a81613828565b92915050565b600082601f830112612175576121746132fe565b5b813561218584826020860161202c565b91505092915050565b600082601f8301126121a3576121a26132fe565b5b81356121b384826020860161206e565b91505092915050565b6000813590506121cb8161383f565b92915050565b6000602082840312156121e7576121e6613312565b5b60006121f5848285016120b0565b91505092915050565b6000806040838503121561221557612214613312565b5b6000612223858286016120b0565b9250506020612234858286016120b0565b9150509250929050565b600080600080600060a0868803121561225a57612259613312565b5b6000612268888289016120b0565b9550506020612279888289016120b0565b945050604086013567ffffffffffffffff81111561229a5761229961330d565b5b6122a6888289016120f3565b935050606086013567ffffffffffffffff8111156122c7576122c661330d565b5b6122d3888289016120f3565b925050608086013567ffffffffffffffff8111156122f4576122f361330d565b5b61230088828901612160565b9150509295509295909350565b600080600080600060a0868803121561232957612328613312565b5b6000612337888289016120b0565b9550506020612348888289016120b0565b9450506040612359888289016121bc565b935050606061236a888289016121bc565b925050608086013567ffffffffffffffff81111561238b5761238a61330d565b5b61239788828901612160565b9150509295509295909350565b600080600080608085870312156123be576123bd613312565b5b60006123cc878288016120b0565b945050602085013567ffffffffffffffff8111156123ed576123ec61330d565b5b6123f9878288016120f3565b935050604085013567ffffffffffffffff81111561241a5761241961330d565b5b612426878288016120f3565b925050606085013567ffffffffffffffff8111156124475761244661330d565b5b61245387828801612160565b91505092959194509250565b6000806040838503121561247657612475613312565b5b6000612484858286016120b0565b925050602061249585828601612121565b9150509250929050565b600080604083850312156124b6576124b5613312565b5b60006124c4858286016120b0565b92505060206124d5858286016121bc565b9150509250929050565b600080600080608085870312156124f9576124f8613312565b5b6000612507878288016120b0565b9450506020612518878288016121bc565b9350506040612529878288016121bc565b925050606085013567ffffffffffffffff81111561254a5761254961330d565b5b61255687828801612160565b91505092959194509250565b6000806040838503121561257957612578613312565b5b600083013567ffffffffffffffff8111156125975761259661330d565b5b6125a3858286016120c5565b925050602083013567ffffffffffffffff8111156125c4576125c361330d565b5b6125d0858286016120f3565b9150509250929050565b6000602082840312156125f0576125ef613312565b5b60006125fe84828501612136565b91505092915050565b60006020828403121561261d5761261c613312565b5b600061262b8482850161214b565b91505092915050565b60006020828403121561264a57612649613312565b5b600082013567ffffffffffffffff8111156126685761266761330d565b5b6126748482850161218e565b91505092915050565b60006020828403121561269357612692613312565b5b60006126a1848285016121bc565b91505092915050565b60006126b68383612a6d565b60208301905092915050565b6126cb8161305e565b82525050565b60006126dc82612f37565b6126e68185612f65565b93506126f183612f12565b8060005b8381101561272257815161270988826126aa565b975061271483612f58565b9250506001810190506126f5565b5085935050505092915050565b61273881613070565b82525050565b600061274982612f42565b6127538185612f76565b93506127638185602086016130e1565b61276c81613317565b840191505092915050565b600061278282612f4d565b61278c8185612f87565b935061279c8185602086016130e1565b6127a581613317565b840191505092915050565b60006127bb82612f4d565b6127c58185612f98565b93506127d58185602086016130e1565b80840191505092915050565b600081546127ee81613114565b6127f88186612f98565b94506001821660008114612813576001811461282457612857565b60ff19831686528186019350612857565b61282d85612f22565b60005b8381101561284f57815481890152600182019150602081019050612830565b838801955050505b50505092915050565b600061286d603483612f87565b915061287882613335565b604082019050919050565b6000612890602883612f87565b915061289b82613384565b604082019050919050565b60006128b3602b83612f87565b91506128be826133d3565b604082019050919050565b60006128d6602683612f87565b91506128e182613422565b604082019050919050565b60006128f9602983612f87565b915061290482613471565b604082019050919050565b600061291c602583612f87565b9150612927826134c0565b604082019050919050565b600061293f603283612f87565b915061294a8261350f565b604082019050919050565b6000612962602a83612f87565b915061296d8261355e565b604082019050919050565b6000612985600583612f98565b9150612990826135ad565b600582019050919050565b60006129a8602083612f87565b91506129b3826135d6565b602082019050919050565b60006129cb602983612f87565b91506129d6826135ff565b604082019050919050565b60006129ee602983612f87565b91506129f98261364e565b604082019050919050565b6000612a11602883612f87565b9150612a1c8261369d565b604082019050919050565b6000612a34602183612f87565b9150612a3f826136ec565b604082019050919050565b6000612a57600183612f98565b9150612a628261373b565b600182019050919050565b612a76816130c8565b82525050565b612a85816130c8565b82525050565b6000612a9782846127e1565b915081905092915050565b6000612aae82856127e1565b9150612ab982612a4a565b9150612ac582846127b0565b9150612ad082612978565b91508190509392505050565b6000602082019050612af160008301846126c2565b92915050565b600060a082019050612b0c60008301886126c2565b612b1960208301876126c2565b8181036040830152612b2b81866126d1565b90508181036060830152612b3f81856126d1565b90508181036080830152612b53818461273e565b90509695505050505050565b600060a082019050612b7460008301886126c2565b612b8160208301876126c2565b612b8e6040830186612a7c565b612b9b6060830185612a7c565b8181036080830152612bad818461273e565b90509695505050505050565b60006020820190508181036000830152612bd381846126d1565b905092915050565b60006040820190508181036000830152612bf581856126d1565b90508181036020830152612c0981846126d1565b90509392505050565b6000602082019050612c27600083018461272f565b92915050565b60006020820190508181036000830152612c478184612777565b905092915050565b60006020820190508181036000830152612c6881612860565b9050919050565b60006020820190508181036000830152612c8881612883565b9050919050565b60006020820190508181036000830152612ca8816128a6565b9050919050565b60006020820190508181036000830152612cc8816128c9565b9050919050565b60006020820190508181036000830152612ce8816128ec565b9050919050565b60006020820190508181036000830152612d088161290f565b9050919050565b60006020820190508181036000830152612d2881612932565b9050919050565b60006020820190508181036000830152612d4881612955565b9050919050565b60006020820190508181036000830152612d688161299b565b9050919050565b60006020820190508181036000830152612d88816129be565b9050919050565b60006020820190508181036000830152612da8816129e1565b9050919050565b60006020820190508181036000830152612dc881612a04565b9050919050565b60006020820190508181036000830152612de881612a27565b9050919050565b6000602082019050612e046000830184612a7c565b92915050565b6000604082019050612e1f6000830185612a7c565b612e2c6020830184612a7c565b9392505050565b6000612e3d612e4e565b9050612e498282613146565b919050565b6000604051905090565b600067ffffffffffffffff821115612e7357612e726132ad565b5b602082029050602081019050919050565b600067ffffffffffffffff821115612e9f57612e9e6132ad565b5b602082029050602081019050919050565b600067ffffffffffffffff821115612ecb57612eca6132ad565b5b612ed482613317565b9050602081019050919050565b600067ffffffffffffffff821115612efc57612efb6132ad565b5b612f0582613317565b9050602081019050919050565b6000819050602082019050919050565b60008190508160005260206000209050919050565b600081519050919050565b600081519050919050565b600081519050919050565b6000602082019050919050565b600082825260208201905092915050565b600082825260208201905092915050565b600082825260208201905092915050565b600081905092915050565b6000612fae826130c8565b9150612fb9836130c8565b9250827fffffffffffffffffffffffffffffffffffffffffffffffffffffffffffffffff03821115612fee57612fed6131f1565b5b828201905092915050565b6000613004826130c8565b915061300f836130c8565b92508261301f5761301e613220565b5b828204905092915050565b6000613035826130c8565b9150613040836130c8565b925082821015613053576130526131f1565b5b828203905092915050565b6000613069826130a8565b9050919050565b60008115159050919050565b60007fffffffff0000000000000000000000000000000000000000000000000000000082169050919050565b600073ffffffffffffffffffffffffffffffffffffffff82169050919050565b6000819050919050565b82818337600083830152505050565b60005b838110156130ff5780820151818401526020810190506130e4565b8381111561310e576000848401525b50505050565b6000600282049050600182168061312c57607f821691505b602082108114156131405761313f61324f565b5b50919050565b61314f82613317565b810181811067ffffffffffffffff8211171561316e5761316d6132ad565b5b80604052505050565b6000613182826130c8565b91507fffffffffffffffffffffffffffffffffffffffffffffffffffffffffffffffff8214156131b5576131b46131f1565b5b600182019050919050565b60006131cb826130c8565b91506131d6836130c8565b9250826131e6576131e5613220565b5b828206905092915050565b7f4e487b7100000000000000000000000000000000000000000000000000000000600052601160045260246000fd5b7f4e487b7100000000000000000000000000000000000000000000000000000000600052601260045260246000fd5b7f4e487b7100000000000000000000000000000000000000000000000000000000600052602260045260246000fd5b7f4e487b7100000000000000000000000000000000000000000000000000000000600052603260045260246000fd5b7f4e487b7100000000000000000000000000000000000000000000000000000000600052604160045260246000fd5b600060033d11156132fb5760046000803e6132f8600051613328565b90505b90565b600080fd5b600080fd5b600080fd5b600080fd5b600080fd5b6000601f19601f8301169050919050565b60008160e01c9050919050565b7f455243313135353a207472616e7366657220746f206e6f6e204552433131353560008201527f526563656976657220696d706c656d656e746572000000000000000000000000602082015250565b7f455243313135353a204552433131353552656365697665722072656a6563746560008201527f6420746f6b656e73000000000000000000000000000000000000000000000000602082015250565b7f455243313135353a2062616c616e636520717565727920666f7220746865207a60008201527f65726f2061646472657373000000000000000000000000000000000000000000602082015250565b7f4f776e61626c653a206e6577206f776e657220697320746865207a65726f206160008201527f6464726573730000000000000000000000000000000000000000000000000000602082015250565b7f455243313135353a2063616c6c6572206973206e6f74206f776e6572206e6f7260008201527f20617070726f7665640000000000000000000000000000000000000000000000602082015250565b7f455243313135353a207472616e7366657220746f20746865207a65726f20616460008201527f6472657373000000000000000000000000000000000000000000000000000000602082015250565b7f455243313135353a207472616e736665722063616c6c6572206973206e6f742060008201527f6f776e6572206e6f7220617070726f7665640000000000000000000000000000602082015250565b7f455243313135353a20696e73756666696369656e742062616c616e636520666f60008201527f72207472616e7366657200000000000000000000000000000000000000000000602082015250565b7f2e6a736f6e000000000000000000000000000000000000000000000000000000600082015250565b7f4f776e61626c653a2063616c6c6572206973206e6f7420746865206f776e6572600082015250565b7f455243313135353a2073657474696e6720617070726f76616c2073746174757360008201527f20666f722073656c660000000000000000000000000000000000000000000000602082015250565b7f455243313135353a206163636f756e747320616e6420696473206c656e67746860008201527f206d69736d617463680000000000000000000000000000000000000000000000602082015250565b7f455243313135353a2069647320616e6420616d6f756e7473206c656e6774682060008201527f6d69736d61746368000000000000000000000000000000000000000000000000602082015250565b7f455243313135353a206d696e7420746f20746865207a65726f2061646472657360008201527f7300000000000000000000000000000000000000000000000000000000000000602082015250565b7f2f00000000000000000000000000000000000000000000000000000000000000600082015250565b600060443d1015613774576137f7565b61377c612e4e565b60043d036004823e80513d602482011167ffffffffffffffff821117156137a45750506137f7565b808201805167ffffffffffffffff8111156137c257505050506137f7565b80602083010160043d0385018111156137df5750505050506137f7565b6137ee82602001850186613146565b82955050505050505b90565b6138038161305e565b811461380e57600080fd5b50565b61381a81613070565b811461382557600080fd5b50565b6138318161307c565b811461383c57600080fd5b50565b613848816130c8565b811461385357600080fd5b5056fea26469706673582212207c07b9596f310f2476a4c3accf8db4f1420cea9c493c7542fca469586fd68e8064736f6c63430008070033"
  }
}