{
  "opcodeHash": "0x554249bf8b765c94d0e139e71e2925bb6257f8b18d331811410053984dfa2cb1",
  "metalessHash": "0x6d47276d112c03bc61bed11de7c9c2da064f54aaee85dc808c83855617fef57c",
  "runtimeHash": "0xeb4a065d98e56d2ba045ccf339b618b598cf58d661cef2f451f4a14a90cca470",
  "encodedMetadata": [
    {
      "ipfs": "/ipfs/QmRbABPfmXQQTFc4kuLAoP62Jb9giUntyEPGhTi2m6FuR5",
      "solc": "0.6.1"
    }
  ],
  "abi": [
    {
      "inputs": [],
      "stateMutability": "nonpayable",
      "type": "constructor"
    },
    {
      "inputs": [
        {
          "internalType": "address",
          "name": "",
          "type": "address"
        }
      ],
      "name": "AddressBonus",
      "outputs": [
        {
          "internalType": "uint256",
          "name": "",
          "type": "uint256"
        }
      ],
      "stateMutability": "view",
      "type": "function"
    },
    {
      "inputs": [
        {
          "internalType": "address",
          "name": "_address",
          "type": "address"
        }
      ],
      "name": "AddressBonusGet",
      "outputs": [
        {
          "internalType": "uint256",
          "name": "",
          "type": "uint256"
        }
      ],
      "stateMutability": "view",
      "type": "function"
    },
    {
      "inputs": [
        {
          "internalType": "address",
          "name": "_address",
          "type": "address"
        },
        {
          "internalType": "bool",
          "name": "_excludeCurrent",
          "type": "bool"
        },
        {
          "internalType": "bool",
          "name": "_currentOnly",
          "type": "bool"
        }
      ],
      "name": "AmountMNESent",
      "outputs": [
        {
          "internalType": "uint256",
          "name": "",
          "type": "uint256"
        }
      ],
      "stateMutability": "view",
      "type": "function"
    },
    {
      "inputs": [
        {
          "internalType": "address",
          "name": "_address",
          "type": "address"
        }
      ],
      "name": "AmountToPayBonus",
      "outputs": [
        {
          "internalType": "uint256",
          "name": "",
          "type": "uint256"
        }
      ],
      "stateMutability": "view",
      "type": "function"
    },
    {
      "inputs": [
        {
          "internalType": "address",
          "name": "_address",
          "type": "address"
        },
        {
          "internalType": "bool",
          "name": "_checkID",
          "type": "bool"
        },
        {
          "internalType": "uint256",
          "name": "i",
          "type": "uint256"
        },
        {
          "internalType": "bool",
          "name": "_excludeCurrent",
          "type": "bool"
        },
        {
          "internalType": "bool",
          "name": "_currentOnly",
          "type": "bool"
        }
      ],
      "name": "AmountToPayStaking",
      "outputs": [
        {
          "internalType": "uint256",
          "name": "",
          "type": "uint256"
        }
      ],
      "stateMutability": "view",
      "type": "function"
    },
    {
      "inputs": [
        {
          "internalType": "address",
          "name": "",
          "type": "address"
        },
        {
          "internalType": "uint256",
          "name": "",
          "type": "uint256"
        }
      ],
      "name": "Bonus",
      "outputs": [
        {
          "internalType": "uint256",
          "name": "",
          "type": "uint256"
        }
      ],
      "stateMutability": "view",
      "type": "function"
    },
    {
      "inputs": [
        {
          "internalType": "address",
          "name": "",
          "type": "address"
        },
        {
          "internalType": "uint256",
          "name": "",
          "type": "uint256"
        }
      ],
      "name": "BonusAmount",
      "outputs": [
        {
          "internalType": "uint256",
          "name": "",
          "type": "uint256"
        }
      ],
      "stateMutability": "view",
      "type": "function"
    },
    {
      "inputs": [
        {
          "internalType": "address",
          "name": "_address",
          "type": "address"
        }
      ],
      "name": "BonusAmountGet",
      "outputs": [
        {
          "internalType": "uint256[]",
          "name": "",
          "type": "uint256[]"
        }
      ],
      "stateMutability": "view",
      "type": "function"
    },
    {
      "inputs": [
        {
          "internalType": "address",
          "name": "_address",
          "type": "address"
        },
        {
          "internalType": "uint256",
          "name": "i",
          "type": "uint256"
        }
      ],
      "name": "BonusAmountGetAt",
      "outputs": [
        {
          "internalType": "uint256",
          "name": "",
          "type": "uint256"
        }
      ],
      "stateMutability": "view",
      "type": "function"
    },
    {
      "inputs": [
        {
          "internalType": "address",
          "name": "_address",
          "type": "address"
        }
      ],
      "name": "BonusAmountLength",
      "outputs": [
        {
          "internalType": "uint256",
          "name": "",
          "type": "uint256"
        }
      ],
      "stateMutability": "view",
      "type": "function"
    },
    {
      "inputs": [
        {
          "internalType": "address",
          "name": "",
          "type": "address"
        },
        {
          "internalType": "uint256",
          "name": "",
          "type": "uint256"
        }
      ],
      "name": "BonusDay",
      "outputs": [
        {
          "internalType": "uint256",
          "name": "",
          "type": "uint256"
        }
      ],
      "stateMutability": "view",
      "type": "function"
    },
    {
      "inputs": [
        {
          "internalType": "address",
          "name": "_address",
          "type": "address"
        }
      ],
      "name": "BonusDayGet",
      "outputs": [
        {
          "internalType": "uint256[]",
          "name": "",
          "type": "uint256[]"
        }
      ],
      "stateMutability": "view",
      "type": "function"
    },
    {
      "inputs": [
        {
          "internalType": "address",
          "name": "_address",
          "type": "address"
        },
        {
          "internalType": "uint256",
          "name": "i",
          "type": "uint256"
        }
      ],
      "name": "BonusDayGetAt",
      "outputs": [
        {
          "internalType": "uint256",
          "name": "",
          "type": "uint256"
        }
      ],
      "stateMutability": "view",
      "type": "function"
    },
    {
      "inputs": [
        {
          "internalType": "address",
          "name": "_address",
          "type": "address"
        }
      ],
      "name": "BonusDayLength",
      "outputs": [
        {
          "internalType": "uint256",
          "name": "",
          "type": "uint256"
        }
      ],
      "stateMutability": "view",
      "type": "function"
    },
    {
      "inputs": [
        {
          "internalType": "address",
          "name": "",
          "type": "address"
        },
        {
          "internalType": "uint256",
          "name": "",
          "type": "uint256"
        }
      ],
      "name": "BonusFrom",
      "outputs": [
        {
          "internalType": "address",
          "name": "",
          "type": "address"
        }
      ],
      "stateMutability": "view",
      "type": "function"
    },
    {
      "inputs": [
        {
          "internalType": "address",
          "name": "_address",
          "type": "address"
        }
      ],
      "name": "BonusFromGet",
      "outputs": [
        {
          "internalType": "address[]",
          "name": "",
          "type": "address[]"
        }
      ],
      "stateMutability": "view",
      "type": "function"
    },
    {
      "inputs": [
        {
          "internalType": "address",
          "name": "_address",
          "type": "address"
        },
        {
          "internalType": "uint256",
          "name": "i",
          "type": "uint256"
        }
      ],
      "name": "BonusFromGetAt",
      "outputs": [
        {
          "internalType": "address",
          "name": "",
          "type": "address"
        }
      ],
      "stateMutability": "view",
      "type": "function"
    },
    {
      "inputs": [
        {
          "internalType": "address",
          "name": "_address",
          "type": "address"
        }
      ],
      "name": "BonusFromLength",
      "outputs": [
        {
          "internalType": "uint256",
          "name": "",
          "type": "uint256"
        }
      ],
      "stateMutability": "view",
      "type": "function"
    },
    {
      "inputs": [
        {
          "internalType": "address",
          "name": "_address",
          "type": "address"
        }
      ],
      "name": "BonusGet",
      "outputs": [
        {
          "internalType": "uint256[]",
          "name": "",
          "type": "uint256[]"
        }
      ],
      "stateMutability": "view",
      "type": "function"
    },
    {
      "inputs": [
        {
          "internalType": "address",
          "name": "_address",
          "type": "address"
        },
        {
          "internalType": "uint256",
          "name": "i",
          "type": "uint256"
        }
      ],
      "name": "BonusGetAt",
      "outputs": [
        {
          "internalType": "uint256",
          "name": "",
          "type": "uint256"
        }
      ],
      "stateMutability": "view",
      "type": "function"
    },
    {
      "inputs": [
        {
          "internalType": "address",
          "name": "_address",
          "type": "address"
        }
      ],
      "name": "BonusLength",
      "outputs": [
        {
          "internalType": "uint256",
          "name": "",
          "type": "uint256"
        }
      ],
      "stateMutability": "view",
      "type": "function"
    },
    {
      "inputs": [
        {
          "internalType": "address",
          "name": "",
          "type": "address"
        }
      ],
      "name": "BonusPaid",
      "outputs": [
        {
          "internalType": "bool",
          "name": "",
          "type": "bool"
        }
      ],
      "stateMutability": "view",
      "type": "function"
    },
    {
      "inputs": [
        {
          "internalType": "address",
          "name": "_address",
          "type": "address"
        }
      ],
      "name": "BonusPaidGet",
      "outputs": [
        {
          "internalType": "bool",
          "name": "",
          "type": "bool"
        }
      ],
      "stateMutability": "view",
      "type": "function"
    },
    {
      "inputs": [
        {
          "internalType": "address",
          "name": "_address",
          "type": "address"
        }
      ],
      "name": "DateBonusPayoutPossible",
      "outputs": [
        {
          "internalType": "uint256",
          "name": "",
          "type": "uint256"
        }
      ],
      "stateMutability": "view",
      "type": "function"
    },
    {
      "inputs": [
        {
          "internalType": "address",
          "name": "_address",
          "type": "address"
        }
      ],
      "name": "DateStakingPayoutPossible",
      "outputs": [
        {
          "internalType": "uint256",
          "name": "",
          "type": "uint256"
        }
      ],
      "stateMutability": "view",
      "type": "function"
    },
    {
      "inputs": [],
      "name": "FillMaxInterestRate1",
      "outputs": [],
      "stateMutability": "nonpayable",
      "type": "function"
    },
    {
      "inputs": [],
      "name": "FillMaxInterestRate2",
      "outputs": [],
      "stateMutability": "nonpayable",
      "type": "function"
    },
    {
      "inputs": [],
      "name": "GetCurrentDay",
      "outputs": [
        {
          "internalType": "uint256",
          "name": "",
          "type": "uint256"
        }
      ],
      "stateMutability": "view",
      "type": "function"
    },
    {
      "inputs": [
        {
          "internalType": "address",
          "name": "_address",
          "type": "address"
        }
      ],
      "name": "PayoutAllStaking",
      "outputs": [],
      "stateMutability": "nonpayable",
      "type": "function"
    },
    {
      "inputs": [
        {
          "internalType": "address",
          "name": "_address",
          "type": "address"
        }
      ],
      "name": "PayoutBonus",
      "outputs": [],
      "stateMutability": "nonpayable",
      "type": "function"
    },
    {
      "inputs": [
        {
          "internalType": "uint256",
          "name": "i",
          "type": "uint256"
        },
        {
          "internalType": "address",
          "name": "_address",
          "type": "address"
        }
      ],
      "name": "PayoutStaking",
      "outputs": [],
      "stateMutability": "nonpayable",
      "type": "function"
    },
    {
      "inputs": [
        {
          "internalType": "address",
          "name": "",
          "type": "address"
        },
        {
          "internalType": "uint256",
          "name": "",
          "type": "uint256"
        }
      ],
      "name": "StakingPaid",
      "outputs": [
        {
          "internalType": "bool",
          "name": "",
          "type": "bool"
        }
      ],
      "stateMutability": "view",
      "type": "function"
    },
    {
      "inputs": [
        {
          "internalType": "address",
          "name": "_address",
          "type": "address"
        }
      ],
      "name": "StakingPaidGet",
      "outputs": [
        {
          "internalType": "bool[]",
          "name": "",
          "type": "bool[]"
        }
      ],
      "stateMutability": "view",
      "type": "function"
    },
    {
      "inputs": [
        {
          "internalType": "address",
          "name": "_address",
          "type": "address"
        },
        {
          "internalType": "uint256",
          "name": "i",
          "type": "uint256"
        }
      ],
      "name": "StakingPaidGetAt",
      "outputs": [
        {
          "internalType": "bool",
          "name": "",
          "type": "bool"
        }
      ],
      "stateMutability": "view",
      "type": "function"
    },
    {
      "inputs": [
        {
          "internalType": "address",
          "name": "_address",
          "type": "address"
        }
      ],
      "name": "StakingPaidLength",
      "outputs": [
        {
          "internalType": "uint256",
          "name": "",
          "type": "uint256"
        }
      ],
      "stateMutability": "view",
      "type": "function"
    },
    {
      "inputs": [
        {
          "internalType": "address",
          "name": "_address",
          "type": "address"
        },
        {
          "internalType": "uint256",
          "name": "_amount",
          "type": "uint256"
        }
      ],
      "name": "TransferAllFundsOut",
      "outputs": [],
      "stateMutability": "nonpayable",
      "type": "function"
    },
    {
      "inputs": [],
      "name": "blockPayouts",
      "outputs": [
        {
          "internalType": "bool",
          "name": "",
          "type": "bool"
        }
      ],
      "stateMutability": "view",
      "type": "function"
    },
    {
      "inputs": [],
      "name": "blockStaking",
      "outputs": [
        {
          "internalType": "bool",
          "name": "",
          "type": "bool"
        }
      ],
      "stateMutability": "view",
      "type": "function"
    },
    {
      "inputs": [
        {
          "internalType": "uint256",
          "name": "",
          "type": "uint256"
        }
      ],
      "name": "bonusAddress",
      "outputs": [
        {
          "internalType": "address",
          "name": "",
          "type": "address"
        }
      ],
      "stateMutability": "view",
      "type": "function"
    },
    {
      "inputs": [],
      "name": "bonusAddressLength",
      "outputs": [
        {
          "internalType": "uint256",
          "name": "",
          "type": "uint256"
        }
      ],
      "stateMutability": "view",
      "type": "function"
    },
    {
      "inputs": [],
      "name": "contingency",
      "outputs": [
        {
          "internalType": "uint256",
          "name": "",
          "type": "uint256"
        }
      ],
      "stateMutability": "view",
      "type": "function"
    },
    {
      "inputs": [
        {
          "internalType": "address",
          "name": "",
          "type": "address"
        },
        {
          "internalType": "uint256",
          "name": "",
          "type": "uint256"
        }
      ],
      "name": "daysParticipated",
      "outputs": [
        {
          "internalType": "uint256",
          "name": "",
          "type": "uint256"
        }
      ],
      "stateMutability": "view",
      "type": "function"
    },
    {
      "inputs": [
        {
          "internalType": "address",
          "name": "_address",
          "type": "address"
        }
      ],
      "name": "daysParticipatedGet",
      "outputs": [
        {
          "internalType": "uint256[]",
          "name": "",
          "type": "uint256[]"
        }
      ],
      "stateMutability": "view",
      "type": "function"
    },
    {
      "inputs": [
        {
          "internalType": "address",
          "name": "_address",
          "type": "address"
        },
        {
          "internalType": "uint256",
          "name": "i",
          "type": "uint256"
        }
      ],
      "name": "daysParticipatedGetAt",
      "outputs": [
        {
          "internalType": "uint256",
          "name": "",
          "type": "uint256"
        }
      ],
      "stateMutability": "view",
      "type": "function"
    },
    {
      "inputs": [
        {
          "internalType": "address",
          "name": "_address",
          "type": "address"
        }
      ],
      "name": "daysParticipatedLength",
      "outputs": [
        {
          "internalType": "uint256",
          "name": "",
          "type": "uint256"
        }
      ],
      "stateMutability": "view",
      "type": "function"
    },
    {
      "inputs": [],
      "name": "external1",
      "outputs": [
        {
          "internalType": "contract External1",
          "name": "",
          "type": "address"
        }
      ],
      "stateMutability": "view",
      "type": "function"
    },
    {
      "inputs": [],
      "name": "gn",
      "outputs": [
        {
          "internalType": "contract Genesis",
          "name": "",
          "type": "address"
        }
      ],
      "stateMutability": "view",
      "type": "function"
    },
    {
      "inputs": [
        {
          "internalType": "uint256",
          "name": "",
          "type": "uint256"
        }
      ],
      "name": "maxInterestRate",
      "outputs": [
        {
          "internalType": "uint256",
          "name": "",
          "type": "uint256"
        }
      ],
      "stateMutability": "view",
      "type": "function"
    },
    {
      "inputs": [],
      "name": "maxInterestRateLength",
      "outputs": [
        {
          "internalType": "uint256",
          "name": "",
          "type": "uint256"
        }
      ],
      "stateMutability": "view",
      "type": "function"
    },
    {
      "inputs": [],
      "name": "mneContract",
      "outputs": [
        {
          "internalType": "contract MinereumContract",
          "name": "",
          "type": "address"
        }
      ],
      "stateMutability": "view",
      "type": "function"
    },
    {
      "inputs": [
        {
          "internalType": "uint256",
          "name": "",
          "type": "uint256"
        }
      ],
      "name": "mnePerDay",
      "outputs": [
        {
          "internalType": "uint256",
          "name": "",
          "type": "uint256"
        }
      ],
      "stateMutability": "view",
      "type": "function"
    },
    {
      "inputs": [],
      "name": "mnePerDayLength",
      "outputs": [
        {
          "internalType": "uint256",
          "name": "",
          "type": "uint256"
        }
      ],
      "stateMutability": "view",
      "type": "function"
    },
    {
      "inputs": [
        {
          "internalType": "address",
          "name": "",
          "type": "address"
        },
        {
          "internalType": "uint256",
          "name": "",
          "type": "uint256"
        }
      ],
      "name": "mneSentPerDay",
      "outputs": [
        {
          "internalType": "uint256",
          "name": "",
          "type": "uint256"
        }
      ],
      "stateMutability": "view",
      "type": "function"
    },
    {
      "inputs": [
        {
          "internalType": "address",
          "name": "_address",
          "type": "address"
        }
      ],
      "name": "mneSentPerDayGet",
      "outputs": [
        {
          "internalType": "uint256[]",
          "name": "",
          "type": "uint256[]"
        }
      ],
      "stateMutability": "view",
      "type": "function"
    },
    {
      "inputs": [
        {
          "internalType": "address",
          "name": "_address",
          "type": "address"
        },
        {
          "internalType": "uint256",
          "name": "i",
          "type": "uint256"
        }
      ],
      "name": "mneSentPerDayGetAt",
      "outputs": [
        {
          "internalType": "uint256",
          "name": "",
          "type": "uint256"
        }
      ],
      "stateMutability": "view",
      "type": "function"
    },
    {
      "inputs": [
        {
          "internalType": "address",
          "name": "_address",
          "type": "address"
        }
      ],
      "name": "mneSentPerDayLength",
      "outputs": [
        {
          "internalType": "uint256",
          "name": "",
          "type": "uint256"
        }
      ],
      "stateMutability": "view",
      "type": "function"
    },
    {
      "inputs": [],
      "name": "newBonusCoins",
      "outputs": [
        {
          "internalType": "uint256",
          "name": "",
          "type": "uint256"
        }
      ],
      "stateMutability": "view",
      "type": "function"
    },
    {
      "inputs": [],
      "name": "newStakingCoins",
      "outputs": [
        {
          "internalType": "uint256",
          "name": "",
          "type": "uint256"
        }
      ],
      "stateMutability": "view",
      "type": "function"
    },
    {
      "inputs": [],
      "name": "overallBonus",
      "outputs": [
        {
          "internalType": "uint256",
          "name": "",
          "type": "uint256"
        }
      ],
      "stateMutability": "view",
      "type": "function"
    },
    {
      "inputs": [],
      "name": "overallMNEStaking",
      "outputs": [
        {
          "internalType": "uint256",
          "name": "",
          "type": "uint256"
        }
      ],
      "stateMutability": "view",
      "type": "function"
    },
    {
      "inputs": [],
      "name": "paidStakingCoins",
      "outputs": [
        {
          "internalType": "uint256",
          "name": "",
          "type": "uint256"
        }
      ],
      "stateMutability": "view",
      "type": "function"
    },
    {
      "inputs": [
        {
          "internalType": "uint256",
          "name": "",
          "type": "uint256"
        }
      ],
      "name": "participatedAddress",
      "outputs": [
        {
          "internalType": "address",
          "name": "",
          "type": "address"
        }
      ],
      "stateMutability": "view",
      "type": "function"
    },
    {
      "inputs": [],
      "name": "participatedAddressLength",
      "outputs": [
        {
          "internalType": "uint256",
          "name": "",
          "type": "uint256"
        }
      ],
      "stateMutability": "view",
      "type": "function"
    },
    {
      "inputs": [],
      "name": "pc",
      "outputs": [
        {
          "internalType": "contract PublicCalls",
          "name": "",
          "type": "address"
        }
      ],
      "stateMutability": "view",
      "type": "function"
    },
    {
      "inputs": [],
      "name": "referralRate",
      "outputs": [
        {
          "internalType": "uint256",
          "name": "",
          "type": "uint256"
        }
      ],
      "stateMutability": "view",
      "type": "function"
    },
    {
      "inputs": [],
      "name": "referrerRateLevel2",
      "outputs": [
        {
          "internalType": "uint256",
          "name": "",
          "type": "uint256"
        }
      ],
      "stateMutability": "view",
      "type": "function"
    },
    {
      "inputs": [],
      "name": "referrerRateLevel3",
      "outputs": [
        {
          "internalType": "uint256",
          "name": "",
          "type": "uint256"
        }
      ],
      "stateMutability": "view",
      "type": "function"
    },
    {
      "inputs": [],
      "name": "referrerRateNormal",
      "outputs": [
        {
          "internalType": "uint256",
          "name": "",
          "type": "uint256"
        }
      ],
      "stateMutability": "view",
      "type": "function"
    },
    {
      "inputs": [],
      "name": "referrerRateShare",
      "outputs": [
        {
          "internalType": "uint256",
          "name": "",
          "type": "uint256"
        }
      ],
      "stateMutability": "view",
      "type": "function"
    },
    {
      "inputs": [],
      "name": "setUpdater",
      "outputs": [],
      "stateMutability": "nonpayable",
      "type": "function"
    },
    {
      "inputs": [],
      "name": "startDate",
      "outputs": [
        {
          "internalType": "uint256",
          "name": "",
          "type": "uint256"
        }
      ],
      "stateMutability": "view",
      "type": "function"
    },
    {
      "inputs": [
        {
          "internalType": "address",
          "name": "_sender",
          "type": "address"
        },
        {
          "internalType": "uint256",
          "name": "_amountToStake",
          "type": "uint256"
        },
        {
          "internalType": "address[]",
          "name": "_addressList",
          "type": "address[]"
        },
        {
          "internalType": "uint256[]",
          "name": "uintList",
          "type": "uint256[]"
        }
      ],
      "name": "startStaking",
      "outputs": [],
      "stateMutability": "nonpayable",
      "type": "function"
    },
    {
      "inputs": [
        {
          "internalType": "address",
          "name": "_address",
          "type": "address"
        }
      ],
      "name": "updateExternal1",
      "outputs": [],
      "stateMutability": "nonpayable",
      "type": "function"
    },
    {
      "inputs": [
        {
          "internalType": "address",
          "name": "_address",
          "type": "address"
        }
      ],
      "name": "updateGenesis",
      "outputs": [],
      "stateMutability": "nonpayable",
      "type": "function"
    },
    {
      "inputs": [
        {
          "internalType": "address",
          "name": "_address",
          "type": "address"
        }
      ],
      "name": "updateMneContract",
      "outputs": [],
      "stateMutability": "nonpayable",
      "type": "function"
    },
    {
      "inputs": [
        {
          "internalType": "address",
          "name": "_address",
          "type": "address"
        }
      ],
      "name": "updatePublicCalls",
      "outputs": [],
      "stateMutability": "nonpayable",
      "type": "function"
    },
    {
      "inputs": [
        {
          "internalType": "uint256",
          "name": "_startDate",
          "type": "uint256"
        }
      ],
      "name": "updateStartDate",
      "outputs": [],
      "stateMutability": "nonpayable",
      "type": "function"
    },
    {
      "inputs": [
        {
          "internalType": "bool",
          "name": "_blockPayouts",
          "type": "bool"
        },
        {
          "internalType": "bool",
          "name": "_blockStaking",
          "type": "bool"
        },
        {
          "internalType": "uint256",
          "name": "_referralRate",
          "type": "uint256"
        },
        {
          "internalType": "uint256",
          "name": "_referrerRateNormal",
          "type": "uint256"
        },
        {
          "internalType": "uint256",
          "name": "_referrerRateLevel2",
          "type": "uint256"
        },
        {
          "internalType": "uint256",
          "name": "_referrerRateLevel3",
          "type": "uint256"
        },
        {
          "internalType": "uint256",
          "name": "_referrerRateShare",
          "type": "uint256"
        },
        {
          "internalType": "uint256",
          "name": "_contingency",
          "type": "uint256"
        }
      ],
      "name": "updateVars",
      "outputs": [],
      "stateMutability": "nonpayable",
      "type": "function"
    },
    {
      "inputs": [],
      "name": "updaterAddress",
      "outputs": [
        {
          "internalType": "address",
          "name": "",
          "type": "address"
        }
      ],
      "stateMutability": "view",
      "type": "function"
    }
  ],
  "bytecode": {
    "object": "61016d6080818152612e406040529060a0612da080388339505081516200002e92600092506020019062000162565b506040805161016d808252612dc082019092529060208201612da080388339505081516200006492600192506020019062000162565b50635f0a5280600d556000600e819055600f8190556010556019601155601e60125560286013556032601455603c601555601d80546001600160b01b0319169055348015620000b257600080fd5b50620000c66001600160e01b036200013216565b601980546001600160a01b031990811673426ca1ea2406c07d75db9585f22781c096e3d0e017909155601b8054821673a6be27538a28114fe03eb7ade9adfe53164f2a4c179055601c80549091167390e340e2d11e6eb1d99e34d122d6fe0fef3213fd179055620001d2565b601d546001600160a01b03166200015b57601d80546001600160a01b0319163317905562000160565b600080fd5b565b828054828255906000526020600020908101928215620001a0579160200282015b82811115620001a057825182559160200191906001019062000183565b50620001ae929150620001b2565b5090565b620001cf91905b80821115620001ae5760008155600101620001b9565b90565b615ffd80620001e26000396000f3fe608060405234801561001057600080fd5b50600436106104755760003560e01c806388762c0211610257578063cc5ef05711610146578063e2412630116100c3578063f406c93e11610087578063f406c93e14610e8e578063f4338b4f14610eb4578063fafd111714610eea578063fdbc653014610f16578063ff92c30814610f1e57610475565b8063e241263014610e48578063e435408114610e50578063e69919ae14610e58578063e6ede60e14610e60578063eeb4dd9214610e6857610475565b8063d8ac67741161010a578063d8ac677414610dc0578063d9870f0314610dec578063db9d5e4614610df4578063dcc4ff7514610e1a578063dcc8ab2114610e2257610475565b8063cc5ef05714610d1a578063cf22412814610d40578063cf7405e514610d48578063d6a149f814610d6e578063d8a8033b14610d9457610475565b8063a987012a116101d4578063bb7831d511610198578063bb7831d514610cbf578063c259f0ae14610cdc578063c5698ca414610ce4578063c98d190614610d0a578063c9e9e26e14610d1257610475565b8063a987012a14610c0d578063b0998bb214610c39578063b34af10f14610c5f578063b668796014610c67578063b721c9f414610c9357610475565b806399d533d81161021b57806399d533d814610b615780639a8a6fab14610b87578063a053ce1f14610bb3578063a2d7826014610bbb578063a7c8fa5414610be157610475565b806388762c0214610ad95780639120dc4c14610ae157806391e53a0014610ae9578063962e29c114610b0f57806398dcaece14610b3557610475565b80632fb933ff1161037357806367951836116102f057806372a1e9fc116102b457806372a1e9fc14610a515780637395ec1d14610a595780637c6e36c114610a7f57806382618a8a14610a8757806384d13e8d14610aad57610475565b806367951836146109ab57806368816ae9146109d15780636a906ca8146109f75780636c2342fd14610a23578063719ce68114610a4957610475565b80634d10380e116103375780634d10380e1461090e5780634e19b15d1461093a5780635754a76714610960578063577f8904146109865780635bf0b9641461098e57610475565b80632fb933ff1461089e57806330a7676c146108a65780633118f543146108d257806336fd5c0f146108da578063397d3dd7146108e257610475565b8063158b4184116104015780632173cb08116103c55780632173cb08146107e3578063255ab04b146108095780632c88e778146108355780632ee433ff1461085b5780632ee9b1121461088157610475565b8063158b418414610708578063172c24231461074c57806318d94793146107725780631bc61ee41461078f5780631bee0a9c146107db57610475565b80630d27fcaa116104485780630d27fcaa146106065780630d86ed471461060e5780630f943c9114610632578063133e7bc3146106a857806315870f8f146106e257610475565b80630538c58d1461047a5780630a678893146104945780630b97bc86146105d25780630b9a80b0146105da575b600080fd5b610482610f3b565b60408051918252519081900360200190f35b6105d0600480360360808110156104aa57600080fd5b6001600160a01b03823516916020810135918101906060810160408201356401000000008111156104da57600080fd5b8201836020820111156104ec57600080fd5b8035906020019184602083028401116401000000008311171561050e57600080fd5b919080806020026020016040519081016040528093929190818152602001838360200280828437600092019190915250929594936020810193503591505064010000000081111561055e57600080fd5b82018360208201111561057057600080fd5b8035906020019184602083028401116401000000008311171561059257600080fd5b919080806020026020016040519081016040528093929190818152602001838360200280828437600092019190915250929550610f41945050505050565b005b6104826119c7565b6105d0600480360360408110156105f057600080fd5b50803590602001356001600160a01b03166119cd565b610482611e7b565b610616611e81565b604080516001600160a01b039092168252519081900360200190f35b6106586004803603602081101561064857600080fd5b50356001600160a01b0316611e90565b60408051602080825283518183015283519192839290830191858101910280838360005b8381101561069457818101518382015260200161067c565b505050509050019250505060405180910390f35b6106ce600480360360208110156106be57600080fd5b50356001600160a01b0316611efd565b604080519115158252519081900360200190f35b610482600480360360208110156106f857600080fd5b50356001600160a01b0316611f1b565b610482600480360360a081101561071e57600080fd5b506001600160a01b038135169060208101351515906040810135906060810135151590608001351515611f2d565b6106586004803603602081101561076257600080fd5b50356001600160a01b0316612530565b6105d06004803603602081101561078857600080fd5b503561259a565b6105d060048036036101008110156107a657600080fd5b508035151590602081013515159060408101359060608101359060808101359060a08101359060c08101359060e001356125b6565b610482612619565b610658600480360360208110156107f957600080fd5b50356001600160a01b031661261f565b6104826004803603604081101561081f57600080fd5b506001600160a01b038135169060200135612689565b6105d06004803603602081101561084b57600080fd5b50356001600160a01b03166126c0565b6106586004803603602081101561087157600080fd5b50356001600160a01b031661299d565b6106166004803603602081101561089757600080fd5b5035612a07565b610616612a2e565b610482600480360360408110156108bc57600080fd5b506001600160a01b038135169060200135612a3d565b610616612a61565b610482612a70565b610482600480360360408110156108f857600080fd5b506001600160a01b038135169060200135612a76565b6104826004803603604081101561092457600080fd5b506001600160a01b038135169060200135612aa4565b6104826004803603602081101561095057600080fd5b50356001600160a01b0316612abd565b6104826004803603602081101561097657600080fd5b50356001600160a01b0316612b2a565b610482612b45565b610616600480360360208110156109a457600080fd5b5035612b4b565b6105d0600480360360208110156109c157600080fd5b50356001600160a01b0316612b58565b610482600480360360208110156109e757600080fd5b50356001600160a01b0316612b8b565b61048260048036036040811015610a0d57600080fd5b506001600160a01b038135169060200135612ba6565b61048260048036036020811015610a3957600080fd5b50356001600160a01b0316612bca565b610482612be5565b6105d0612beb565b61048260048036036020811015610a6f57600080fd5b50356001600160a01b03166141e4565b61048261422f565b6106ce60048036036020811015610a9d57600080fd5b50356001600160a01b0316614235565b61048260048036036040811015610ac357600080fd5b506001600160a01b03813516906020013561424a565b6106ce61426e565b61048261427e565b61048260048036036020811015610aff57600080fd5b50356001600160a01b0316614284565b6105d060048036036020811015610b2557600080fd5b50356001600160a01b031661429f565b61048260048036036040811015610b4b57600080fd5b506001600160a01b0381351690602001356142cb565b61048260048036036020811015610b7757600080fd5b50356001600160a01b03166142e4565b6106ce60048036036040811015610b9d57600080fd5b506001600160a01b0381351690602001356142ff565b61048261433f565b61065860048036036020811015610bd157600080fd5b50356001600160a01b0316614345565b61048260048036036040811015610bf757600080fd5b506001600160a01b0381351690602001356143af565b61061660048036036040811015610c2357600080fd5b506001600160a01b0381351690602001356143c8565b61065860048036036020811015610c4f57600080fd5b50356001600160a01b03166143fd565b6105d0614487565b61048260048036036040811015610c7d57600080fd5b506001600160a01b038135169060200135615a3a565b61048260048036036040811015610ca957600080fd5b506001600160a01b038135169060200135615a53565b61048260048036036020811015610cd557600080fd5b5035615a77565b6106ce615a95565b61048260048036036020811015610cfa57600080fd5b50356001600160a01b0316615aa5565b610482615ac0565b610482615ac6565b6105d060048036036020811015610d3057600080fd5b50356001600160a01b0316615acc565b610482615aff565b61048260048036036020811015610d5e57600080fd5b50356001600160a01b0316615b2d565b6105d060048036036020811015610d8457600080fd5b50356001600160a01b0316615b48565b6105d060048036036040811015610daa57600080fd5b506001600160a01b038135169060200135615bd5565b6106ce60048036036040811015610dd657600080fd5b506001600160a01b038135169060200135615c5a565b610482615ca6565b61065860048036036020811015610e0a57600080fd5b50356001600160a01b0316615cac565b610482615d21565b6105d060048036036020811015610e3857600080fd5b50356001600160a01b0316615d27565b6105d0615d5a565b610482615d7e565b610616615d84565b610482615d93565b61048260048036036020811015610e7e57600080fd5b50356001600160a01b0316615d99565b61048260048036036020811015610ea457600080fd5b50356001600160a01b0316615de1565b61048260048036036060811015610eca57600080fd5b506001600160a01b03813516906020810135151590604001351515615dfc565b61061660048036036040811015610f0057600080fd5b506001600160a01b038135169060200135615f6b565b610616615fab565b61048260048036036020811015610f3457600080fd5b5035615fba565b60025490565b601d54600160a81b900460ff1615610f8d576040805162461bcd60e51b815260206004820152600a6024820152696e6f742061637469766560b01b604482015290519081900360640190fd5b6019546001600160a01b03163314610fa457600080fd5b6000600d54421015610fb857506000610fcc565b62015180600d54420381610fc857fe5b0490505b61016c811115611014576040805162461bcd60e51b815260206004820152600e60248201526d1a5b9d985b1a59081c195c9a5bd960921b604482015290519081900360640190fd5b836000828154811061102257fe5b6000918252602080832090910180549093019092556001600160a01b03871681526004909152604090205415611158576001600160a01b03851660009081526004602052604090208054829190600019810190811061107d57fe5b906000526020600020015414156110db576001600160a01b03851660009081526005602090815260408083206004909252909120548154869291600019019081106110c457fe5b600091825260209091200180549091019055611153565b6001600160a01b038516600081815260046020908152604080832080546001808201835591855283852001869055848452600583528184208054808301825590855283852001899055938352600b8252822080549384018155825290819020908204018054601f9092166101000a60ff021990911690555b61120e565b6002805460018082019092557f405787fa12a823e0f2b7631cc41b3ba8828b3321ca811111fa75cd3aa3bb5ace0180546001600160a01b0319166001600160a01b03881690811790915560008181526004602090815260408083208054808701825590845282842001869055838352600582528083208054808701825590845282842001899055928252600b8152918120805493840181558152819020908204018054601f9092166101000a60ff021990911690555b600f8054850190558251600110156119c0578260018151811061122d57fe5b60200260200101516001600160a01b0316856001600160a01b031614806112795750306001600160a01b03168360018151811061126657fe5b60200260200101516001600160a01b0316145b806112b0575060195483516001600160a01b03909116908490600190811061129d57fe5b60200260200101516001600160a01b0316145b156112f4576040805162461bcd60e51b815260206004820152600f60248201526e1a5b9d985b1a59081c9959995c985b608a1b604482015290519081900360640190fd5b6000606460115486028161130457fe5b049050600080601c60009054906101000a90046001600160a01b03166001600160a01b0316633b317dab8760018151811061133b57fe5b60200260200101516040518263ffffffff1660e01b815260040180826001600160a01b03166001600160a01b0316815260200191505060206040518083038186803b15801561138957600080fd5b505afa15801561139d573d6000803e3d6000fd5b505050506040513d60208110156113b357600080fd5b505111156113c4575060155461166f565b601b5485516001600160a01b039091169063eb0fbbad90879060019081106113e857fe5b60200260200101516040518263ffffffff1660e01b815260040180826001600160a01b03166001600160a01b0316815260200191505060206040518083038186803b15801561143657600080fd5b505afa15801561144a573d6000803e3d6000fd5b505050506040513d602081101561146057600080fd5b505161146f575060125461166f565b601b5485516001600160a01b0390911690639055a23e908790600190811061149357fe5b60200260200101516040518263ffffffff1660e01b815260040180826001600160a01b03166001600160a01b0316815260200191505060206040518083038186803b1580156114e157600080fd5b505afa1580156114f5573d6000803e3d6000fd5b505050506040513d602081101561150b57600080fd5b50511561151b575060125461166f565b601b5485516001600160a01b0390911690632940187a908790600190811061153f57fe5b60200260200101516040518263ffffffff1660e01b815260040180826001600160a01b03166001600160a01b0316815260200191505060206040518083038186803b15801561158d57600080fd5b505afa1580156115a1573d6000803e3d6000fd5b505050506040513d60208110156115b757600080fd5b5051156115c7575060135461166f565b601b5485516001600160a01b039091169063ffc4b16890879060019081106115eb57fe5b60200260200101516040518263ffffffff1660e01b815260040180826001600160a01b03166001600160a01b0316815260200191505060206040518083038186803b15801561163957600080fd5b505afa15801561164d573d6000803e3d6000fd5b505050506040513d602081101561166357600080fd5b50511561166f57506014545b6001600160a01b0387166000818152600760209081526040808320805460018082018355918552838520018890559383526008909152902086516064848a020492889181106116ba57fe5b602090810291909101810151825460018082018555600094855283852090910180546001600160a01b0319166001600160a01b03938416179055908b168084526009835260408085208054938401815585528385209092018790558352600c8252808320805460ff19169055600a90915290205461177e57600380546001810182556000919091527fc2575a0e9e593c00f959f8c92f12db2869c3395a3b0502d05e2516446f71f85b0180546001600160a01b0319166001600160a01b038a161790555b6001600160a01b0388166000908152600a60205260408120805485019055865160079190889060019081106117af57fe5b6020908102919091018101516001600160a01b031682528181019290925260400160009081208054600181810183559183529282209092018690558751600892899181106117f957fe5b6020908102919091018101516001600160a01b039081168352828201939093526040909101600090812080546001808201835591835292822090920180546001600160a01b031916938c16939093179092558751600992918991811061185b57fe5b6020908102919091018101516001600160a01b0316825281810192909252604001600090812080546001818101835591835292822090920183905587519091600c9183918a9181106118a957fe5b60200260200101516001600160a01b03166001600160a01b0316815260200190815260200160002060006101000a81548160ff021916908315150217905550600a6000876001815181106118f957fe5b60200260200101516001600160a01b03166001600160a01b0316815260200190815260200160002054600014156119755760038660018151811061193957fe5b60209081029190910181015182546001810184556000938452919092200180546001600160a01b0319166001600160a01b039092169190911790555b80600a60008860018151811061198757fe5b6020908102919091018101516001600160a01b031682528101919091526040016000208054919091019055601080549190930101909155505b5050505050565b600d5481565b601d54600160a01b900460ff1615611a1e576040805162461bcd60e51b815260206004820152600f60248201526e1c185e5bdd5d1cc8189b1bd8dad959608a1b604482015290519081900360640190fd5b33600090815260046020526040902054611a6c576040805162461bcd60e51b815260206004820152600a6024820152694e6f205374616b696e6760b01b604482015290519081900360640190fd5b600e543360009081526004602052604081208054909190611a8957fe5b90600052602060002001546201518002600d54016301e1853e01014210611e3257336000908152600b60205260409020805483908110611ac557fe5b90600052602060002090602091828204019190069054906101000a900460ff1615611b2c576040805162461bcd60e51b815260206004820152601260248201527114dd185ad948185b1c9958591e481c185a5960721b604482015290519081900360640190fd5b336000908152600460205260408120805482919085908110611b4a57fe5b906000526020600020015481548110611b5f57fe5b9060005260206000200154600160046000336001600160a01b03166001600160a01b031681526020019081526020016000208581548110611b9c57fe5b906000526020600020015481548110611bb157fe5b600091825260208083209091015433835260059091526040909120805486908110611bd857fe5b90600052602060002001540266038d7ea4c680000281611bf457fe5b0490506000606466038d7ea4c680008360056000336001600160a01b03166001600160a01b031681526020019081526020016000208781548110611c3457fe5b90600052602060002001540281611c4757fe5b0481611c4f57fe5b33600090815260056020526040812080549390920493509183919087908110611c7457fe5b6000918252602082200154601a5460408051630f574e8960e01b81526004810188905290519490920194506001600160a01b031692630f574e899260248084019391929182900301818387803b158015611ccd57600080fd5b505af1158015611ce1573d6000803e3d6000fd5b505050506001600160a01b03841615611d66576019546040805163a9059cbb60e01b81526001600160a01b038781166004830152602482018590529151919092169163a9059cbb91604480830192600092919082900301818387803b158015611d4957600080fd5b505af1158015611d5d573d6000803e3d6000fd5b50505050611dd2565b6019546040805163a9059cbb60e01b81523360048201526024810184905290516001600160a01b039092169163a9059cbb9160448082019260009290919082900301818387803b158015611db957600080fd5b505af1158015611dcd573d6000803e3d6000fd5b505050505b60168054830190556018805482019055336000908152600b6020526040902080546001919087908110611e0157fe5b90600052602060002090602091828204019190066101000a81548160ff021916908315150217905550505050611e77565b6040805162461bcd60e51b815260206004820152601560248201527414185e5bdd5d0811185d1948139bdd0815985b1a59605a1b604482015290519081900360640190fd5b5050565b60175481565b6019546001600160a01b031681565b6001600160a01b038116600090815260046020908152604091829020805483518184028101840190945280845260609392830182828015611ef057602002820191906000526020600020905b815481526020019060010190808311611edc575b505050505090505b919050565b6001600160a01b03166000908152600c602052604090205460ff1690565b600a6020526000908152604090205481565b6001600160a01b038516600090815260046020526040812054611f5257506000612527565b6000611f5c615aff565b9050821561213d576001600160a01b038716600090815260046020526040812080546000198101908110611f8c57fe5b9060005260206000200154905081811415612132576001600160a01b0388166000908152600460205260408120805482919084908110611fc857fe5b906000526020600020015481548110611fdd57fe5b90600052602060002001546001600460008c6001600160a01b03166001600160a01b03168152602001908152602001600020848154811061201a57fe5b90600052602060002001548154811061202f57fe5b9060005260206000200154600560008c6001600160a01b03166001600160a01b03168152602001908152602001600020848154811061206a57fe5b90600052602060002001540266038d7ea4c68000028161208657fe5b0490506000606466038d7ea4c6800083600560008e6001600160a01b03166001600160a01b0316815260200190815260200160002086815481106120c657fe5b906000526020600020015402816120d957fe5b04816120e157fe5b049050600081600560008d6001600160a01b03166001600160a01b03168152602001908152602001600020858154811061211757fe5b90600052602060002001540190508095505050505050612527565b600092505050612527565b85156122d3576001600160a01b038716600090815260046020526040812080548291908890811061216a57fe5b90600052602060002001548154811061217f57fe5b90600052602060002001546001600460008b6001600160a01b03166001600160a01b0316815260200190815260200160002088815481106121bc57fe5b9060005260206000200154815481106121d157fe5b9060005260206000200154600560008b6001600160a01b03166001600160a01b03168152602001908152602001600020888154811061220c57fe5b90600052602060002001540266038d7ea4c68000028161222857fe5b0490506000606466038d7ea4c6800083600560008d6001600160a01b03166001600160a01b031681526020019081526020016000208a8154811061226857fe5b9060005260206000200154028161227b57fe5b048161228357fe5b049050600081600560008c6001600160a01b03166001600160a01b0316815260200190815260200160002089815481106122b957fe5b906000526020600020015401905080945050505050612527565b6000805b6001600160a01b03891660009081526005602052604090205482101561251d576001600160a01b038916600090815260046020526040902080548491908490811061231e57fe5b90600052602060002001541480156123335750855b1561233d576122d7565b6001600160a01b0389166000908152600b6020526040902080548390811061236157fe5b90600052602060002090602091828204019190069054906101000a900460ff16612512576001600160a01b03891660009081526004602052604081208054829190859081106123ac57fe5b9060005260206000200154815481106123c157fe5b90600052602060002001546001600460008d6001600160a01b03166001600160a01b0316815260200190815260200160002085815481106123fe57fe5b90600052602060002001548154811061241357fe5b9060005260206000200154600560008d6001600160a01b03166001600160a01b03168152602001908152602001600020858154811061244e57fe5b90600052602060002001540266038d7ea4c68000028161246a57fe5b0490506000606466038d7ea4c6800083600560008f6001600160a01b03166001600160a01b0316815260200190815260200160002087815481106124aa57fe5b906000526020600020015402816124bd57fe5b04816124c557fe5b049050600081600560008e6001600160a01b03166001600160a01b0316815260200190815260200160002086815481106124fb57fe5b906000526020600020015401905080840193505050505b6001909101906122d7565b9250612527915050565b95945050505050565b6001600160a01b038116600090815260066020908152604091829020805483518184028101840190945280845260609392830182828015611ef05760200282019190600052602060002090815481526020019060010190808311611edc5750505050509050919050565b601d546001600160a01b031633141561047557600d8190555b50565b601d546001600160a01b031633141561047557601d805460ff60a01b1916600160a01b8a1515021760ff60a81b1916600160a81b8915150217905560118690556012859055601384905560148390556015829055600e8190555050505050505050565b600e5481565b6001600160a01b038116600090815260096020908152604091829020805483518184028101840190945280845260609392830182828015611ef05760200282019190600052602060002090815481526020019060010190808311611edc5750505050509050919050565b6001600160a01b03821660009081526009602052604081208054839081106126ad57fe5b9060005260206000200154905092915050565b601d54600160a01b900460ff1615612711576040805162461bcd60e51b815260206004820152600f60248201526e1c185e5bdd5d1cc8189b1bd8dad959608a1b604482015290519081900360640190fd5b3360009081526007602052604090205461275d576040805162461bcd60e51b81526020600482015260086024820152674e6f20426f6e757360c01b604482015290519081900360640190fd5b600e54336000908152600760205260408120805490919061277a57fe5b90600052602060002001546201518002600d54016301e1853e01014210611e3257336000908152600c602052604090205460ff16156127f5576040805162461bcd60e51b8152602060048201526012602482015271109bdb9d5cc8185b1c9958591e481c185a5960721b604482015290519081900360640190fd5b601a54336000908152600a6020526040808220548151630f574e8960e01b8152600481019190915290516001600160a01b0390931692630f574e899260248084019391929182900301818387803b15801561284f57600080fd5b505af1158015612863573d6000803e3d6000fd5b505050506001600160a01b038116156128f457601954336000908152600a602052604080822054815163a9059cbb60e01b81526001600160a01b0386811660048301526024820192909252915193169263a9059cbb9260448084019391929182900301818387803b1580156128d757600080fd5b505af11580156128eb573d6000803e3d6000fd5b5050505061296a565b601954336000818152600a602052604080822054815163a9059cbb60e01b815260048101949094526024840152516001600160a01b039093169263a9059cbb92604480820193929182900301818387803b15801561295157600080fd5b505af1158015612965573d6000803e3d6000fd5b505050505b336000908152600a6020908152604080832054601780549091019055600c9091529020805460ff191660011790556125b3565b6001600160a01b038116600090815260076020908152604091829020805483518184028101840190945280845260609392830182828015611ef05760200282019190600052602060002090815481526020019060010190808311611edc5750505050509050919050565b60028181548110612a1457fe5b6000918252602090912001546001600160a01b0316905081565b601a546001600160a01b031681565b6001600160a01b03821660009081526006602052604081208054839081106126ad57fe5b601b546001600160a01b031681565b60105481565b60076020528160005260406000208181548110612a8f57fe5b90600052602060002001600091509150505481565b60056020528160005260406000208181548110612a8f57fe5b6001600160a01b038116600090815260076020526040812054612ae257506000611ef8565b600e546001600160a01b03831660009081526007602052604081208054909190612b0857fe5b90600052602060002001546201518002600d54016301e1853e01019050611ef8565b6001600160a01b031660009081526008602052604090205490565b60125481565b60038181548110612a1457fe5b601d546001600160a01b031632141561047557601980546001600160a01b0319166001600160a01b0383161790556125b3565b6001600160a01b031660009081526005602052604090205490565b6001600160a01b03821660009081526007602052604081208054839081106126ad57fe5b6001600160a01b031660009081526004602052604090205490565b60165481565b6103e86001600081548110612bfc57fe5b90600052602060002001819055506103de60018081548110612c1a57fe5b90600052602060002001819055506103d46001600281548110612c3957fe5b90600052602060002001819055506103ca6001600381548110612c5857fe5b90600052602060002001819055506103c06001600481548110612c7757fe5b90600052602060002001819055506103b66001600581548110612c9657fe5b90600052602060002001819055506103ad6001600681548110612cb557fe5b90600052602060002001819055506103a46001600781548110612cd457fe5b906000526020600020018190555061039a6001600881548110612cf357fe5b90600052602060002001819055506103916001600981548110612d1257fe5b90600052602060002001819055506103886001600a81548110612d3157fe5b906000526020600020018190555061037f6001600b81548110612d5057fe5b90600052602060002001819055506103766001600c81548110612d6f57fe5b906000526020600020018190555061036d6001600d81548110612d8e57fe5b90600052602060002001819055506103646001600e81548110612dad57fe5b906000526020600020018190555061035c6001600f81548110612dcc57fe5b90600052602060002001819055506103536001601081548110612deb57fe5b906000526020600020018190555061034a6001601181548110612e0a57fe5b90600052602060002001819055506103426001601281548110612e2957fe5b906000526020600020018190555061033a6001601381548110612e4857fe5b90600052602060002001819055506103316001601481548110612e6757fe5b90600052602060002001819055506103296001601581548110612e8657fe5b90600052602060002001819055506103216001601681548110612ea557fe5b90600052602060002001819055506103196001601781548110612ec457fe5b90600052602060002001819055506103116001601881548110612ee357fe5b90600052602060002001819055506103096001601981548110612f0257fe5b90600052602060002001819055506103026001601a81548110612f2157fe5b90600052602060002001819055506102fa6001601b81548110612f4057fe5b90600052602060002001819055506102f26001601c81548110612f5f57fe5b90600052602060002001819055506102eb6001601d81548110612f7e57fe5b90600052602060002001819055506102e36001601e81548110612f9d57fe5b90600052602060002001819055506102dc6001601f81548110612fbc57fe5b90600052602060002001819055506102d46001602081548110612fdb57fe5b90600052602060002001819055506102cd6001602181548110612ffa57fe5b90600052602060002001819055506102c6600160228154811061301957fe5b90600052602060002001819055506102bf600160238154811061303857fe5b90600052602060002001819055506102b8600160248154811061305757fe5b90600052602060002001819055506102b1600160258154811061307657fe5b90600052602060002001819055506102aa600160268154811061309557fe5b90600052602060002001819055506102a360016027815481106130b457fe5b906000526020600020018190555061029c60016028815481106130d357fe5b906000526020600020018190555061029660016029815481106130f257fe5b906000526020600020018190555061028f6001602a8154811061311157fe5b90600052602060002001819055506102896001602b8154811061313057fe5b90600052602060002001819055506102826001602c8154811061314f57fe5b906000526020600020018190555061027c6001602d8154811061316e57fe5b90600052602060002001819055506102756001602e8154811061318d57fe5b906000526020600020018190555061026f6001602f815481106131ac57fe5b906000526020600020018190555061026960016030815481106131cb57fe5b906000526020600020018190555061026360016031815481106131ea57fe5b906000526020600020018190555061025d600160328154811061320957fe5b9060005260206000200181905550610256600160338154811061322857fe5b9060005260206000200181905550610250600160348154811061324757fe5b906000526020600020018190555061024b600160358154811061326657fe5b9060005260206000200181905550610245600160368154811061328557fe5b906000526020600020018190555061023f60016037815481106132a457fe5b906000526020600020018190555061023960016038815481106132c357fe5b906000526020600020018190555061023360016039815481106132e257fe5b906000526020600020018190555061022e6001603a8154811061330157fe5b90600052602060002001819055506102286001603b8154811061332057fe5b90600052602060002001819055506102236001603c8154811061333f57fe5b906000526020600020018190555061021d6001603d8154811061335e57fe5b90600052602060002001819055506102186001603e8154811061337d57fe5b90600052602060002001819055506102126001603f8154811061339c57fe5b906000526020600020018190555061020d60016040815481106133bb57fe5b906000526020600020018190555061020860016041815481106133da57fe5b906000526020600020018190555061020360016042815481106133f957fe5b90600052602060002001819055506101fd600160438154811061341857fe5b90600052602060002001819055506101f8600160448154811061343757fe5b90600052602060002001819055506101f3600160458154811061345657fe5b90600052602060002001819055506101ee600160468154811061347557fe5b90600052602060002001819055506101e9600160478154811061349457fe5b90600052602060002001819055506101e460016048815481106134b357fe5b90600052602060002001819055506101e060016049815481106134d257fe5b90600052602060002001819055506101db6001604a815481106134f157fe5b90600052602060002001819055506101d66001604b8154811061351057fe5b90600052602060002001819055506101d16001604c8154811061352f57fe5b90600052602060002001819055506101cd6001604d8154811061354e57fe5b90600052602060002001819055506101c86001604e8154811061356d57fe5b90600052602060002001819055506101c46001604f8154811061358c57fe5b90600052602060002001819055506101bf60016050815481106135ab57fe5b90600052602060002001819055506101bb60016051815481106135ca57fe5b90600052602060002001819055506101b660016052815481106135e957fe5b90600052602060002001819055506101b2600160538154811061360857fe5b90600052602060002001819055506101ad600160548154811061362757fe5b90600052602060002001819055506101a9600160558154811061364657fe5b90600052602060002001819055506101a5600160568154811061366557fe5b90600052602060002001819055506101a1600160578154811061368457fe5b906000526020600020018190555061019c60016058815481106136a357fe5b906000526020600020018190555061019860016059815481106136c257fe5b90600052602060002001819055506101946001605a815481106136e157fe5b90600052602060002001819055506101906001605b8154811061370057fe5b906000526020600020018190555061018c6001605c8154811061371f57fe5b90600052602060002001819055506101886001605d8154811061373e57fe5b90600052602060002001819055506101846001605e8154811061375d57fe5b90600052602060002001819055506101806001605f8154811061377c57fe5b906000526020600020018190555061017d600160608154811061379b57fe5b906000526020600020018190555061017960016061815481106137ba57fe5b906000526020600020018190555061017560016062815481106137d957fe5b906000526020600020018190555061017160016063815481106137f857fe5b906000526020600020018190555061016e600160648154811061381757fe5b906000526020600020018190555061016a600160658154811061383657fe5b9060005260206000200181905550610166600160668154811061385557fe5b9060005260206000200181905550610163600160678154811061387457fe5b906000526020600020018190555061015f600160688154811061389357fe5b906000526020600020018190555061015c60016069815481106138b257fe5b90600052602060002001819055506101586001606a815481106138d157fe5b90600052602060002001819055506101556001606b815481106138f057fe5b90600052602060002001819055506101516001606c8154811061390f57fe5b906000526020600020018190555061014e6001606d8154811061392e57fe5b906000526020600020018190555061014b6001606e8154811061394d57fe5b90600052602060002001819055506101476001606f8154811061396c57fe5b9060005260206000200181905550610144600160708154811061398b57fe5b906000526020600020018190555061014160016071815481106139aa57fe5b906000526020600020018190555061013d60016072815481106139c957fe5b906000526020600020018190555061013a60016073815481106139e857fe5b90600052602060002001819055506101376001607481548110613a0757fe5b90600052602060002001819055506101346001607581548110613a2657fe5b90600052602060002001819055506101316001607681548110613a4557fe5b906000526020600020018190555061012e6001607781548110613a6457fe5b906000526020600020018190555061012b6001607881548110613a8357fe5b90600052602060002001819055506101286001607981548110613aa257fe5b90600052602060002001819055506101256001607a81548110613ac157fe5b90600052602060002001819055506101226001607b81548110613ae057fe5b906000526020600020018190555061011f6001607c81548110613aff57fe5b906000526020600020018190555061011c6001607d81548110613b1e57fe5b90600052602060002001819055506101196001607e81548110613b3d57fe5b90600052602060002001819055506101176001607f81548110613b5c57fe5b90600052602060002001819055506101146001608081548110613b7b57fe5b90600052602060002001819055506101116001608181548110613b9a57fe5b906000526020600020018190555061010e6001608281548110613bb957fe5b906000526020600020018190555061010c6001608381548110613bd857fe5b90600052602060002001819055506101096001608481548110613bf757fe5b90600052602060002001819055506101066001608581548110613c1657fe5b90600052602060002001819055506101046001608681548110613c3557fe5b90600052602060002001819055506101016001608781548110613c5457fe5b906000526020600020018190555060fe6001608881548110613c7257fe5b906000526020600020018190555060fc6001608981548110613c9057fe5b906000526020600020018190555060f96001608a81548110613cae57fe5b906000526020600020018190555060f76001608b81548110613ccc57fe5b906000526020600020018190555060f46001608c81548110613cea57fe5b906000526020600020018190555060f26001608d81548110613d0857fe5b906000526020600020018190555060ef6001608e81548110613d2657fe5b906000526020600020018190555060ed6001608f81548110613d4457fe5b906000526020600020018190555060eb6001609081548110613d6257fe5b906000526020600020018190555060e86001609181548110613d8057fe5b906000526020600020018190555060e66001609281548110613d9e57fe5b906000526020600020018190555060e46001609381548110613dbc57fe5b906000526020600020018190555060e16001609481548110613dda57fe5b906000526020600020018190555060df6001609581548110613df857fe5b906000526020600020018190555060dd6001609681548110613e1657fe5b906000526020600020018190555060db6001609781548110613e3457fe5b906000526020600020018190555060d96001609881548110613e5257fe5b906000526020600020018190555060d66001609981548110613e7057fe5b906000526020600020018190555060d46001609a81548110613e8e57fe5b906000526020600020018190555060d26001609b81548110613eac57fe5b906000526020600020018190555060d06001609c81548110613eca57fe5b906000526020600020018190555060ce6001609d81548110613ee857fe5b906000526020600020018190555060cc6001609e81548110613f0657fe5b906000526020600020018190555060ca6001609f81548110613f2457fe5b906000526020600020018190555060c8600160a081548110613f4257fe5b906000526020600020018190555060c6600160a181548110613f6057fe5b906000526020600020018190555060c4600160a281548110613f7e57fe5b906000526020600020018190555060c2600160a381548110613f9c57fe5b906000526020600020018190555060c0600160a481548110613fba57fe5b906000526020600020018190555060be600160a581548110613fd857fe5b906000526020600020018190555060bc600160a681548110613ff657fe5b906000526020600020018190555060ba600160a78154811061401457fe5b906000526020600020018190555060b8600160a88154811061403257fe5b906000526020600020018190555060b6600160a98154811061405057fe5b906000526020600020018190555060b5600160aa8154811061406e57fe5b906000526020600020018190555060b3600160ab8154811061408c57fe5b906000526020600020018190555060b1600160ac815481106140aa57fe5b906000526020600020018190555060af600160ad815481106140c857fe5b906000526020600020018190555060ad600160ae815481106140e657fe5b906000526020600020018190555060ac600160af8154811061410457fe5b906000526020600020018190555060aa600160b08154811061412257fe5b906000526020600020018190555060a8600160b18154811061414057fe5b906000526020600020018190555060a7600160b28154811061415e57fe5b906000526020600020018190555060a5600160b38154811061417c57fe5b906000526020600020018190555060a3600160b48154811061419a57fe5b906000526020600020018190555060a2600160b5815481106141b857fe5b906000526020600020018190555060a0600160b6815481106141d657fe5b600091825260209091200155565b6001600160a01b03811660009081526004602052604081205461420957506000611ef8565b600e546001600160a01b03831660009081526004602052604081208054909190612b0857fe5b60185481565b600c6020526000908152604090205460ff1681565b6001600160a01b03821660009081526005602052604081208054839081106126ad57fe5b601d54600160a81b900460ff1681565b60015490565b6001600160a01b03166000908152600a602052604090205490565b60005b336000908152600b6020526040902054811015611e77576142c381836119cd565b6001016142a2565b60066020528160005260406000208181548110612a8f57fe5b6001600160a01b031660009081526006602052604090205490565b600b602052816000526040600020818154811061431857fe5b9060005260206000209060209182820401919006915091509054906101000a900460ff1681565b60115481565b6001600160a01b038116600090815260056020908152604091829020805483518184028101840190945280845260609392830182828015611ef05760200282019190600052602060002090815481526020019060010190808311611edc5750505050509050919050565b60096020528160005260406000208181548110612a8f57fe5b600860205281600052604060002081815481106143e157fe5b6000918252602090912001546001600160a01b03169150829050565b6001600160a01b0381166000908152600b6020908152604091829020805483518184028101840190945280845260609392830182828015611ef057602002820191906000526020600020906000905b825461010083900a900460ff16151581526020600192830181810494850194909303909202910180841161444c575094979650505050505050565b609e600160b78154811061449757fe5b9060005260206000200181905550609d600160b8815481106144b557fe5b9060005260206000200181905550609b600160b9815481106144d357fe5b9060005260206000200181905550609a600160ba815481106144f157fe5b90600052602060002001819055506098600160bb8154811061450f57fe5b90600052602060002001819055506097600160bc8154811061452d57fe5b90600052602060002001819055506095600160bd8154811061454b57fe5b90600052602060002001819055506094600160be8154811061456957fe5b90600052602060002001819055506092600160bf8154811061458757fe5b90600052602060002001819055506091600160c0815481106145a557fe5b9060005260206000200181905550608f600160c1815481106145c357fe5b9060005260206000200181905550608e600160c2815481106145e157fe5b9060005260206000200181905550608c600160c3815481106145ff57fe5b9060005260206000200181905550608b600160c48154811061461d57fe5b9060005260206000200181905550608a600160c58154811061463b57fe5b90600052602060002001819055506088600160c68154811061465957fe5b90600052602060002001819055506087600160c78154811061467757fe5b90600052602060002001819055506085600160c88154811061469557fe5b90600052602060002001819055506084600160c9815481106146b357fe5b90600052602060002001819055506083600160ca815481106146d157fe5b90600052602060002001819055506082600160cb815481106146ef57fe5b90600052602060002001819055506080600160cc8154811061470d57fe5b9060005260206000200181905550607f600160cd8154811061472b57fe5b9060005260206000200181905550607e600160ce8154811061474957fe5b9060005260206000200181905550607c600160cf8154811061476757fe5b9060005260206000200181905550607b600160d08154811061478557fe5b9060005260206000200181905550607a600160d1815481106147a357fe5b90600052602060002001819055506079600160d2815481106147c157fe5b90600052602060002001819055506077600160d3815481106147df57fe5b90600052602060002001819055506076600160d4815481106147fd57fe5b90600052602060002001819055506075600160d58154811061481b57fe5b90600052602060002001819055506074600160d68154811061483957fe5b90600052602060002001819055506073600160d78154811061485757fe5b90600052602060002001819055506072600160d88154811061487557fe5b90600052602060002001819055506070600160d98154811061489357fe5b9060005260206000200181905550606f600160da815481106148b157fe5b9060005260206000200181905550606e600160db815481106148cf57fe5b9060005260206000200181905550606d600160dc815481106148ed57fe5b9060005260206000200181905550606c600160dd8154811061490b57fe5b9060005260206000200181905550606b600160de8154811061492957fe5b9060005260206000200181905550606a600160df8154811061494757fe5b90600052602060002001819055506069600160e08154811061496557fe5b90600052602060002001819055506068600160e18154811061498357fe5b90600052602060002001819055506067600160e2815481106149a157fe5b90600052602060002001819055506066600160e3815481106149bf57fe5b90600052602060002001819055506065600160e4815481106149dd57fe5b90600052602060002001819055506064600160e5815481106149fb57fe5b90600052602060002001819055506063600160e681548110614a1957fe5b90600052602060002001819055506062600160e781548110614a3757fe5b90600052602060002001819055506061600160e881548110614a5557fe5b90600052602060002001819055506060600160e981548110614a7357fe5b9060005260206000200181905550605f600160ea81548110614a9157fe5b9060005260206000200181905550605e600160eb81548110614aaf57fe5b9060005260206000200181905550605d600160ec81548110614acd57fe5b9060005260206000200181905550605c600160ed81548110614aeb57fe5b9060005260206000200181905550605b600160ee81548110614b0957fe5b9060005260206000200181905550605a600160ef81548110614b2757fe5b90600052602060002001819055506059600160f081548110614b4557fe5b90600052602060002001819055506058600160f181548110614b6357fe5b90600052602060002001819055506057600160f281548110614b8157fe5b90600052602060002001819055506056600160f381548110614b9f57fe5b90600052602060002001819055506056600160f481548110614bbd57fe5b90600052602060002001819055506055600160f581548110614bdb57fe5b90600052602060002001819055506054600160f681548110614bf957fe5b90600052602060002001819055506053600160f781548110614c1757fe5b90600052602060002001819055506052600160f881548110614c3557fe5b90600052602060002001819055506051600160f981548110614c5357fe5b90600052602060002001819055506051600160fa81548110614c7157fe5b90600052602060002001819055506050600160fb81548110614c8f57fe5b9060005260206000200181905550604f600160fc81548110614cad57fe5b9060005260206000200181905550604e600160fd81548110614ccb57fe5b9060005260206000200181905550604d600160fe81548110614ce957fe5b9060005260206000200181905550604d600160ff81548110614d0757fe5b9060005260206000200181905550604c600161010081548110614d2657fe5b9060005260206000200181905550604b600161010181548110614d4557fe5b9060005260206000200181905550604a600161010281548110614d6457fe5b9060005260206000200181905550604a600161010381548110614d8357fe5b90600052602060002001819055506049600161010481548110614da257fe5b90600052602060002001819055506048600161010581548110614dc157fe5b90600052602060002001819055506047600161010681548110614de057fe5b90600052602060002001819055506047600161010781548110614dff57fe5b90600052602060002001819055506046600161010881548110614e1e57fe5b90600052602060002001819055506045600161010981548110614e3d57fe5b90600052602060002001819055506045600161010a81548110614e5c57fe5b90600052602060002001819055506044600161010b81548110614e7b57fe5b90600052602060002001819055506043600161010c81548110614e9a57fe5b90600052602060002001819055506042600161010d81548110614eb957fe5b90600052602060002001819055506042600161010e81548110614ed857fe5b90600052602060002001819055506041600161010f81548110614ef757fe5b90600052602060002001819055506040600161011081548110614f1657fe5b90600052602060002001819055506040600161011181548110614f3557fe5b9060005260206000200181905550603f600161011281548110614f5457fe5b9060005260206000200181905550603f600161011381548110614f7357fe5b9060005260206000200181905550603e600161011481548110614f9257fe5b9060005260206000200181905550603d600161011581548110614fb157fe5b9060005260206000200181905550603d600161011681548110614fd057fe5b9060005260206000200181905550603c600161011781548110614fef57fe5b9060005260206000200181905550603b60016101188154811061500e57fe5b9060005260206000200181905550603b60016101198154811061502d57fe5b9060005260206000200181905550603a600161011a8154811061504c57fe5b9060005260206000200181905550603a600161011b8154811061506b57fe5b90600052602060002001819055506039600161011c8154811061508a57fe5b90600052602060002001819055506039600161011d815481106150a957fe5b90600052602060002001819055506038600161011e815481106150c857fe5b90600052602060002001819055506037600161011f815481106150e757fe5b9060005260206000200181905550603760016101208154811061510657fe5b9060005260206000200181905550603660016101218154811061512557fe5b9060005260206000200181905550603660016101228154811061514457fe5b9060005260206000200181905550603560016101238154811061516357fe5b9060005260206000200181905550603560016101248154811061518257fe5b906000526020600020018190555060346001610125815481106151a157fe5b906000526020600020018190555060346001610126815481106151c057fe5b906000526020600020018190555060336001610127815481106151df57fe5b906000526020600020018190555060336001610128815481106151fe57fe5b9060005260206000200181905550603260016101298154811061521d57fe5b90600052602060002001819055506032600161012a8154811061523c57fe5b90600052602060002001819055506031600161012b8154811061525b57fe5b90600052602060002001819055506031600161012c8154811061527a57fe5b90600052602060002001819055506030600161012d8154811061529957fe5b90600052602060002001819055506030600161012e815481106152b857fe5b9060005260206000200181905550602f600161012f815481106152d757fe5b9060005260206000200181905550602f6001610130815481106152f657fe5b9060005260206000200181905550602e60016101318154811061531557fe5b9060005260206000200181905550602e60016101328154811061533457fe5b9060005260206000200181905550602d60016101338154811061535357fe5b9060005260206000200181905550602d60016101348154811061537257fe5b9060005260206000200181905550602c60016101358154811061539157fe5b9060005260206000200181905550602c6001610136815481106153b057fe5b9060005260206000200181905550602b6001610137815481106153cf57fe5b9060005260206000200181905550602b6001610138815481106153ee57fe5b9060005260206000200181905550602b60016101398154811061540d57fe5b9060005260206000200181905550602a600161013a8154811061542c57fe5b9060005260206000200181905550602a600161013b8154811061544b57fe5b90600052602060002001819055506029600161013c8154811061546a57fe5b90600052602060002001819055506029600161013d8154811061548957fe5b90600052602060002001819055506028600161013e815481106154a857fe5b90600052602060002001819055506028600161013f815481106154c757fe5b906000526020600020018190555060286001610140815481106154e657fe5b9060005260206000200181905550602760016101418154811061550557fe5b9060005260206000200181905550602760016101428154811061552457fe5b9060005260206000200181905550602660016101438154811061554357fe5b9060005260206000200181905550602660016101448154811061556257fe5b9060005260206000200181905550602660016101458154811061558157fe5b906000526020600020018190555060256001610146815481106155a057fe5b906000526020600020018190555060256001610147815481106155bf57fe5b906000526020600020018190555060256001610148815481106155de57fe5b906000526020600020018190555060246001610149815481106155fd57fe5b90600052602060002001819055506024600161014a8154811061561c57fe5b90600052602060002001819055506023600161014b8154811061563b57fe5b90600052602060002001819055506023600161014c8154811061565a57fe5b90600052602060002001819055506023600161014d8154811061567957fe5b90600052602060002001819055506022600161014e8154811061569857fe5b90600052602060002001819055506022600161014f815481106156b757fe5b906000526020600020018190555060226001610150815481106156d657fe5b906000526020600020018190555060216001610151815481106156f557fe5b9060005260206000200181905550602160016101528154811061571457fe5b9060005260206000200181905550602160016101538154811061573357fe5b9060005260206000200181905550602060016101548154811061575257fe5b9060005260206000200181905550602060016101558154811061577157fe5b9060005260206000200181905550602060016101568154811061579057fe5b9060005260206000200181905550601f6001610157815481106157af57fe5b9060005260206000200181905550601f6001610158815481106157ce57fe5b9060005260206000200181905550601f6001610159815481106157ed57fe5b9060005260206000200181905550601e600161015a8154811061580c57fe5b9060005260206000200181905550601e600161015b8154811061582b57fe5b9060005260206000200181905550601e600161015c8154811061584a57fe5b9060005260206000200181905550601d600161015d8154811061586957fe5b9060005260206000200181905550601d600161015e8154811061588857fe5b9060005260206000200181905550601d600161015f815481106158a757fe5b9060005260206000200181905550601d6001610160815481106158c657fe5b9060005260206000200181905550601c6001610161815481106158e557fe5b9060005260206000200181905550601c60016101628154811061590457fe5b9060005260206000200181905550601c60016101638154811061592357fe5b9060005260206000200181905550601b60016101648154811061594257fe5b9060005260206000200181905550601b60016101658154811061596157fe5b9060005260206000200181905550601b60016101668154811061598057fe5b9060005260206000200181905550601b60016101678154811061599f57fe5b9060005260206000200181905550601a6001610168815481106159be57fe5b9060005260206000200181905550601a6001610169815481106159dd57fe5b9060005260206000200181905550601a600161016a815481106159fc57fe5b9060005260206000200181905550601a600161016b81548110615a1b57fe5b90600052602060002001819055506019600161016c815481106141d657fe5b60046020528160005260406000208181548110612a8f57fe5b6001600160a01b03821660009081526004602052604081208054839081106126ad57fe5b60008181548110615a8457fe5b600091825260209091200154905081565b601d54600160a01b900460ff1681565b6001600160a01b031660009081526009602052604090205490565b600f5481565b60005490565b601d546001600160a01b031632141561047557601c80546001600160a01b0319166001600160a01b0383161790556125b3565b600080600d54421015615b1457506000615b28565b62015180600d54420381615b2457fe5b0490505b905090565b6001600160a01b03166000908152600b602052604090205490565b601d546001600160a01b031632141561047557601a80546001600160a01b0319166001600160a01b03838116919091179182905560408051633d5bfe9b60e11b815290519290911691637ab7fd369160048082019260009290919082900301818387803b158015615bb857600080fd5b505af1158015615bcc573d6000803e3d6000fd5b505050506125b3565b601d546001600160a01b0316331415610475576019546040805163a9059cbb60e01b81526001600160a01b038581166004830152602482018590529151919092169163a9059cbb91604480830192600092919082900301818387803b158015615c3d57600080fd5b505af1158015615c51573d6000803e3d6000fd5b50505050611e77565b6001600160a01b0382166000908152600b60205260408120805483908110615c7e57fe5b90600052602060002090602091828204019190069054906101000a900460ff16905092915050565b60035490565b6001600160a01b038116600090815260086020908152604091829020805483518184028101840190945280845260609392830182828015611ef057602002820191906000526020600020905b81546001600160a01b03168152600190910190602001808311615cf85750505050509050919050565b60135481565b601d546001600160a01b031632141561047557601b80546001600160a01b0319166001600160a01b0383161790556125b3565b601d546001600160a01b031661047557601d80546001600160a01b03191633179055565b60155481565b601c546001600160a01b031681565b60145481565b6001600160a01b0381166000908152600c602052604081205460ff1615615dc257506000611ef8565b506001600160a01b0381166000908152600a6020526040902054611ef8565b6001600160a01b031660009081526007602052604090205490565b6001600160a01b038316600090815260056020526040812054615e2157506000615f64565b6000615e2b615aff565b90508215615eae576001600160a01b038516600090815260056020526040812080546000198101908110615e5b57fe5b9060005260206000200154905081811415615ea8576001600160a01b0386166000908152600560205260409020805482908110615e9457fe5b906000526020600020015492505050615f64565b50615f5e565b6000805b6001600160a01b038716600090815260056020526040902054821015615f54576001600160a01b0387166000908152600460205260409020805484919084908110615ef957fe5b9060005260206000200154148015615f0e5750855b15615f1857615eb2565b6001600160a01b0387166000908152600560205260409020805483908110615f3c57fe5b60009182526020909120015460019092019101615eb2565b9250615f64915050565b60009150505b9392505050565b6001600160a01b0382166000908152600860205260408120805483908110615f8f57fe5b6000918252602090912001546001600160a01b03169392505050565b601d546001600160a01b031681565b60018181548110615a8457fefea264697066735822122089f24e828c09e8637d18a06b09cdc589a2c573b134f2a6b01c3da1e6c1156c1264736f6c63430006010033"
  }
}