{
  "opcodeHash": "0x41782eb094ad2cd74eb965a482911f7757874d2a4e1f4f281eca0916d6eafc0d",
  "metalessHash": "0xd4d4d77898ba0dc87a0516941d9fb1cbeddfc1d091d065cf4c58eef393d2c2ca",
  "runtimeHash": "0xfeb730cf0b3c3db4cd67654f77849c15dddd20e2bcd5c923cbb24fbee614ed02",
  "encodedMetadata": [
    {
      "ipfs": "/ipfs/QmehR3NnH7Va8bmRTha9m2vshQP3CGhgXBqGBkNVX4KqQ2",
      "solc": "0.8.9"
    }
  ],
  "abi": [
    {
      "inputs": [
        {
          "internalType": "string",
          "name": "contractURI_",
          "type": "string"
        },
        {
          "internalType": "address",
          "name": "owner_",
          "type": "address"
        },
        {
          "internalType": "address",
          "name": "planetsContract_",
          "type": "address"
        },
        {
          "internalType": "address",
          "name": "astragladeContract_",
          "type": "address"
        }
      ],
      "stateMutability": "nonpayable",
      "type": "constructor"
    },
    {
      "anonymous": false,
      "inputs": [
        {
          "indexed": false,
          "internalType": "string",
          "name": "contractURI",
          "type": "string"
        }
      ],
      "name": "NewContractURI",
      "type": "event"
    },
    {
      "anonymous": false,
      "inputs": [
        {
          "indexed": true,
          "internalType": "address",
          "name": "previousOwner",
          "type": "address"
        },
        {
          "indexed": true,
          "internalType": "address",
          "name": "newOwner",
          "type": "address"
        }
      ],
      "name": "OwnershipTransferred",
      "type": "event"
    },
    {
      "anonymous": false,
      "inputs": [
        {
          "indexed": false,
          "internalType": "uint256[]",
          "name": "tokenIds",
          "type": "uint256[]"
        }
      ],
      "name": "PlanetsClaimed",
      "type": "event"
    },
    {
      "inputs": [],
      "name": "astragladeContract",
      "outputs": [
        {
          "internalType": "address",
          "name": "",
          "type": "address"
        }
      ],
      "stateMutability": "view",
      "type": "function"
    },
    {
      "inputs": [
        {
          "internalType": "uint256[]",
          "name": "tokenIds",
          "type": "uint256[]"
        }
      ],
      "name": "claim",
      "outputs": [],
      "stateMutability": "nonpayable",
      "type": "function"
    },
    {
      "inputs": [],
      "name": "contractOperator",
      "outputs": [
        {
          "internalType": "address",
          "name": "",
          "type": "address"
        }
      ],
      "stateMutability": "view",
      "type": "function"
    },
    {
      "inputs": [],
      "name": "contractURI",
      "outputs": [
        {
          "internalType": "string",
          "name": "",
          "type": "string"
        }
      ],
      "stateMutability": "view",
      "type": "function"
    },
    {
      "inputs": [
        {
          "internalType": "uint256",
          "name": "",
          "type": "uint256"
        }
      ],
      "name": "feeRecipients",
      "outputs": [
        {
          "internalType": "address",
          "name": "",
          "type": "address"
        }
      ],
      "stateMutability": "view",
      "type": "function"
    },
    {
      "inputs": [],
      "name": "freezeMeta",
      "outputs": [],
      "stateMutability": "nonpayable",
      "type": "function"
    },
    {
      "inputs": [],
      "name": "frozenMeta",
      "outputs": [
        {
          "internalType": "bool",
          "name": "",
          "type": "bool"
        }
      ],
      "stateMutability": "view",
      "type": "function"
    },
    {
      "inputs": [
        {
          "internalType": "uint256",
          "name": "tokenId",
          "type": "uint256"
        }
      ],
      "name": "getAstraglade",
      "outputs": [
        {
          "components": [
            {
              "internalType": "uint256",
              "name": "seed",
              "type": "uint256"
            },
            {
              "internalType": "string",
              "name": "signature",
              "type": "string"
            },
            {
              "internalType": "string",
              "name": "imageHash",
              "type": "string"
            }
          ],
          "internalType": "struct AstragladeUpgrade.AstragladeMeta",
          "name": "astraglade",
          "type": "tuple"
        }
      ],
      "stateMutability": "view",
      "type": "function"
    },
    {
      "inputs": [],
      "name": "getBaseImageURI",
      "outputs": [
        {
          "internalType": "string",
          "name": "",
          "type": "string"
        }
      ],
      "stateMutability": "view",
      "type": "function"
    },
    {
      "inputs": [],
      "name": "getBaseRenderURI",
      "outputs": [
        {
          "internalType": "string",
          "name": "",
          "type": "string"
        }
      ],
      "stateMutability": "view",
      "type": "function"
    },
    {
      "inputs": [],
      "name": "getDescription",
      "outputs": [
        {
          "internalType": "string",
          "name": "",
          "type": "string"
        }
      ],
      "stateMutability": "view",
      "type": "function"
    },
    {
      "inputs": [
        {
          "internalType": "uint256",
          "name": "tokenId",
          "type": "uint256"
        }
      ],
      "name": "getPlanetData",
      "outputs": [
        {
          "internalType": "uint256",
          "name": "",
          "type": "uint256"
        },
        {
          "internalType": "uint256",
          "name": "",
          "type": "uint256"
        },
        {
          "internalType": "uint256[]",
          "name": "",
          "type": "uint256[]"
        }
      ],
      "stateMutability": "view",
      "type": "function"
    },
    {
      "inputs": [
        {
          "internalType": "address",
          "name": "operator",
          "type": "address"
        }
      ],
      "name": "isOperator",
      "outputs": [
        {
          "internalType": "bool",
          "name": "",
          "type": "bool"
        }
      ],
      "stateMutability": "view",
      "type": "function"
    },
    {
      "inputs": [],
      "name": "onAttach",
      "outputs": [
        {
          "internalType": "bool",
          "name": "",
          "type": "bool"
        }
      ],
      "stateMutability": "nonpayable",
      "type": "function"
    },
    {
      "inputs": [],
      "name": "onDisable",
      "outputs": [],
      "stateMutability": "nonpayable",
      "type": "function"
    },
    {
      "inputs": [],
      "name": "onEnable",
      "outputs": [
        {
          "internalType": "bool",
          "name": "",
          "type": "bool"
        }
      ],
      "stateMutability": "pure",
      "type": "function"
    },
    {
      "inputs": [],
      "name": "owner",
      "outputs": [
        {
          "internalType": "address",
          "name": "",
          "type": "address"
        }
      ],
      "stateMutability": "view",
      "type": "function"
    },
    {
      "inputs": [
        {
          "internalType": "uint256",
          "name": "",
          "type": "uint256"
        }
      ],
      "name": "planetSeed",
      "outputs": [
        {
          "internalType": "bytes32",
          "name": "",
          "type": "bytes32"
        }
      ],
      "stateMutability": "view",
      "type": "function"
    },
    {
      "inputs": [],
      "name": "planetsContract",
      "outputs": [
        {
          "internalType": "address",
          "name": "",
          "type": "address"
        }
      ],
      "stateMutability": "view",
      "type": "function"
    },
    {
      "inputs": [
        {
          "internalType": "uint256",
          "name": "tokenId",
          "type": "uint256"
        }
      ],
      "name": "renderTokenURI",
      "outputs": [
        {
          "internalType": "string",
          "name": "",
          "type": "string"
        }
      ],
      "stateMutability": "view",
      "type": "function"
    },
    {
      "inputs": [
        {
          "internalType": "address",
          "name": "",
          "type": "address"
        },
        {
          "internalType": "uint256",
          "name": "tokenId",
          "type": "uint256"
        }
      ],
      "name": "renderTokenURI",
      "outputs": [
        {
          "internalType": "string",
          "name": "",
          "type": "string"
        }
      ],
      "stateMutability": "view",
      "type": "function"
    },
    {
      "inputs": [],
      "name": "renounceOwnership",
      "outputs": [],
      "stateMutability": "nonpayable",
      "type": "function"
    },
    {
      "inputs": [
        {
          "internalType": "address",
          "name": "",
          "type": "address"
        },
        {
          "internalType": "uint256",
          "name": "",
          "type": "uint256"
        }
      ],
      "name": "royaltyInfo",
      "outputs": [
        {
          "internalType": "address",
          "name": "receiver",
          "type": "address"
        },
        {
          "internalType": "uint256",
          "name": "basisPoint",
          "type": "uint256"
        }
      ],
      "stateMutability": "view",
      "type": "function"
    },
    {
      "inputs": [
        {
          "internalType": "uint256",
          "name": "tokenId",
          "type": "uint256"
        }
      ],
      "name": "royaltyInfo",
      "outputs": [
        {
          "internalType": "address",
          "name": "",
          "type": "address"
        },
        {
          "internalType": "uint256",
          "name": "",
          "type": "uint256"
        }
      ],
      "stateMutability": "view",
      "type": "function"
    },
    {
      "inputs": [
        {
          "internalType": "uint256",
          "name": "",
          "type": "uint256"
        }
      ],
      "name": "seedTaken",
      "outputs": [
        {
          "internalType": "bool",
          "name": "",
          "type": "bool"
        }
      ],
      "stateMutability": "view",
      "type": "function"
    },
    {
      "inputs": [
        {
          "internalType": "string",
          "name": "newBaseImagesURI",
          "type": "string"
        }
      ],
      "name": "setBaseImagesURI",
      "outputs": [],
      "stateMutability": "nonpayable",
      "type": "function"
    },
    {
      "inputs": [
        {
          "internalType": "string",
          "name": "newRenderURI",
          "type": "string"
        }
      ],
      "name": "setBaseRenderURI",
      "outputs": [],
      "stateMutability": "nonpayable",
      "type": "function"
    },
    {
      "inputs": [
        {
          "internalType": "address",
          "name": "newOperator",
          "type": "address"
        }
      ],
      "name": "setContractOperator",
      "outputs": [],
      "stateMutability": "nonpayable",
      "type": "function"
    },
    {
      "inputs": [
        {
          "internalType": "string",
          "name": "newURI",
          "type": "string"
        }
      ],
      "name": "setContractURI",
      "outputs": [],
      "stateMutability": "nonpayable",
      "type": "function"
    },
    {
      "inputs": [
        {
          "internalType": "string",
          "name": "newDescription",
          "type": "string"
        }
      ],
      "name": "setDescription",
      "outputs": [],
      "stateMutability": "nonpayable",
      "type": "function"
    },
    {
      "inputs": [
        {
          "internalType": "address",
          "name": "newFeeRecipient",
          "type": "address"
        },
        {
          "internalType": "uint8",
          "name": "index",
          "type": "uint8"
        }
      ],
      "name": "setFeeRecipient",
      "outputs": [],
      "stateMutability": "nonpayable",
      "type": "function"
    },
    {
      "inputs": [
        {
          "internalType": "address",
          "name": "planetsContract_",
          "type": "address"
        }
      ],
      "name": "setPlanetsContract",
      "outputs": [],
      "stateMutability": "nonpayable",
      "type": "function"
    },
    {
      "inputs": [
        {
          "internalType": "bytes4",
          "name": "interfaceId",
          "type": "bytes4"
        }
      ],
      "name": "supportsInterface",
      "outputs": [
        {
          "internalType": "bool",
          "name": "",
          "type": "bool"
        }
      ],
      "stateMutability": "view",
      "type": "function"
    },
    {
      "inputs": [
        {
          "internalType": "uint256",
          "name": "tokenId",
          "type": "uint256"
        }
      ],
      "name": "tokenURI",
      "outputs": [
        {
          "internalType": "string",
          "name": "",
          "type": "string"
        }
      ],
      "stateMutability": "view",
      "type": "function"
    },
    {
      "inputs": [
        {
          "internalType": "address",
          "name": "",
          "type": "address"
        },
        {
          "internalType": "uint256",
          "name": "tokenId",
          "type": "uint256"
        }
      ],
      "name": "tokenURI",
      "outputs": [
        {
          "internalType": "string",
          "name": "",
          "type": "string"
        }
      ],
      "stateMutability": "view",
      "type": "function"
    },
    {
      "inputs": [
        {
          "internalType": "address",
          "name": "newOwner",
          "type": "address"
        }
      ],
      "name": "transferOwnership",
      "outputs": [],
      "stateMutability": "nonpayable",
      "type": "function"
    },
    {
      "inputs": [],
      "name": "withdraw",
      "outputs": [],
      "stateMutability": "nonpayable",
      "type": "function"
    },
    {
      "stateMutability": "payable",
      "type": "receive"
    }
  ],
  "bytecode": {
    "object": "600680546001600160a01b03191673d1eddfcc4596cc8bd0bd7495beab9b979fc5033617905560e060405273e4657af058e3f844919c3ee713df09c3f2949447608090815273b275e5aa8011ea32506a91449b190213224aec1e60a05273dac81c3642b520584ed0e743729f238d1c350e6260c0526200008490600b9060036200028f565b503480156200009257600080fd5b506040516200340938038062003409833981016040819052620000b591620003e6565b83620000c13362000118565b620000cc8162000168565b50600480546001600160a01b038085166001600160a01b0319928316179092556005805484841692169190911790558316156200010e576200010e83620001ba565b505050506200054a565b600080546001600160a01b038381166001600160a01b0319831681178455604051919092169283917f8be0079c531659141344cd1fd0a4f28419497f9722a3daafe3b4186f6b6457e09190a35050565b80516200017d906003906020840190620002ec565b507fdf1280b84eee5cd4ce59294c59ec7288bd49034d7f3d142f57ba9b477915636481604051620001af9190620004d8565b60405180910390a150565b6000546001600160a01b031633146200021a5760405162461bcd60e51b815260206004820181905260248201527f4f776e61626c653a2063616c6c6572206973206e6f7420746865206f776e657260448201526064015b60405180910390fd5b6001600160a01b038116620002815760405162461bcd60e51b815260206004820152602660248201527f4f776e61626c653a206e6577206f776e657220697320746865207a65726f206160448201526564647265737360d01b606482015260840162000211565b6200028c8162000118565b50565b8260038101928215620002da579160200282015b82811115620002da57825182546001600160a01b0319166001600160a01b03909116178255602090920191600190910190620002a3565b50620002e892915062000369565b5090565b828054620002fa906200050d565b90600052602060002090601f0160209004810192826200031e5760008555620002da565b82601f106200033957805160ff1916838001178555620002da565b82800160010185558215620002da579182015b82811115620002da5782518255916020019190600101906200034c565b5b80821115620002e857600081556001016200036a565b634e487b7160e01b600052604160045260246000fd5b60005b83811015620003b357818101518382015260200162000399565b83811115620003c3576000848401525b50505050565b80516001600160a01b0381168114620003e157600080fd5b919050565b60008060008060808587031215620003fd57600080fd5b84516001600160401b03808211156200041557600080fd5b818701915087601f8301126200042a57600080fd5b8151818111156200043f576200043f62000380565b604051601f8201601f19908116603f011681019083821181831017156200046a576200046a62000380565b816040528281528a60208487010111156200048457600080fd5b6200049783602083016020880162000396565b8098505050505050620004ad60208601620003c9565b9250620004bd60408601620003c9565b9150620004cd60608601620003c9565b905092959194509250565b6020815260008251806020840152620004f981604085016020870162000396565b601f01601f19169190910160400192915050565b600181811c908216806200052257607f821691505b602082108114156200054457634e487b7160e01b600052602260045260246000fd5b50919050565b612eaf806200055a6000396000f3fe60806040526004361061021e5760003560e01c8063938e3d7b11610123578063cef6d368116100ab578063e9dc63751161006f578063e9dc637514610669578063ed1b314414610689578063f2fde38b1461069e578063f49f1b24146106be578063f4cc8f57146106d857600080fd5b8063cef6d368146105c1578063dc9ce7a5146105e5578063e879110114610614578063e8a3d48514610634578063e937a37a1461064957600080fd5b8063b240cba3116100f2578063b240cba314610504578063bf598afb14610531578063c15052c114610551578063c87b56dd1461058c578063cc524a89146105ac57600080fd5b8063938e3d7b146104905780639b561135146104b0578063af66be3f146104d0578063b079ac90146104f057600080fd5b806351fe9eff116101a6578063715018a611610175578063715018a6146104085780638bdb75191461041d5780638cd1d9d61461043d5780638da5cb5b1461045257806390c3f38f1461047057600080fd5b806351fe9eff14610360578063652350a0146103985780636ba4c138146103c85780636d70f7ae146103e857600080fd5b80632782d6c7116101ed5780632782d6c7146102b65780633ccfd60b146102fa5780633ef2c42a1461031157806340b42fcf146103315780634c85eb1f1461035157600080fd5b806301ffc9a71461022a5780631a0925411461025f5780631f22d2fe146102815780631f8cbe5c146102a157600080fd5b3661022557005b600080fd5b34801561023657600080fd5b5061024a610245366004612168565b6106f8565b60405190151581526020015b60405180910390f35b34801561026b57600080fd5b50610274610765565b60405161025691906121f5565b34801561028d57600080fd5b5061027461029c366004612208565b61082d565b3480156102ad57600080fd5b50610274610839565b3480156102c257600080fd5b506102db6102d1366004612236565b5030916103e89150565b604080516001600160a01b039093168352602083019190915201610256565b34801561030657600080fd5b5061030f61087b565b005b34801561031d57600080fd5b5061030f61032c366004612262565b6109d8565b34801561033d57600080fd5b5061030f61034c3660046122a1565b610ac7565b34801561035d57600080fd5b50005b34801561036c57600080fd5b5061038061037b366004612208565b610b10565b6040516001600160a01b039091168152602001610256565b3480156103a457600080fd5b5061024a6103b3366004612208565b600f6020526000908152604090205460ff1681565b3480156103d457600080fd5b5061030f6103e33660046122be565b610b30565b3480156103f457600080fd5b5061024a6104033660046122a1565b610b8e565b34801561041457600080fd5b5061030f610bd1565b34801561042957600080fd5b5061030f6104383660046123a2565b610c35565b34801561044957600080fd5b50610274610c94565b34801561045e57600080fd5b506000546001600160a01b0316610380565b34801561047c57600080fd5b5061030f61048b3660046123a2565b610cd6565b34801561049c57600080fd5b5061030f6104ab3660046123a2565b610d31565b3480156104bc57600080fd5b50600654610380906001600160a01b031681565b3480156104dc57600080fd5b5061030f6104eb3660046122a1565b610d62565b3480156104fc57600080fd5b50600161024a565b34801561051057600080fd5b5061052461051f366004612208565b610da9565b6040516102569190612422565b34801561053d57600080fd5b50600554610380906001600160a01b031681565b34801561055d57600080fd5b5061057e61056c366004612208565b600e6020526000908152604090205481565b604051908152602001610256565b34801561059857600080fd5b506102746105a7366004612208565b610e4d565b3480156105b857600080fd5b5061030f610e59565b3480156105cd57600080fd5b506102db6105dc366004612208565b5030906103e890565b3480156105f157600080fd5b50610605610600366004612208565b610e8d565b6040516102569392919061246e565b34801561062057600080fd5b50600454610380906001600160a01b031681565b34801561064057600080fd5b50610274610fa0565b34801561065557600080fd5b50610274610664366004612236565b610faf565b34801561067557600080fd5b50610274610684366004612236565b610fda565b34801561069557600080fd5b5061024a6110cc565b3480156106aa57600080fd5b5061030f6106b93660046122a1565b6110fd565b3480156106ca57600080fd5b5060085461024a9060ff1681565b3480156106e457600080fd5b5061030f6106f33660046123a2565b6111c5565b60006001600160e01b03198216630434e6b560e31b148061072957506001600160e01b03198216633d855c6160e21b145b8061074457506001600160e01b0319821663e97405af60e01b145b8061075f57506301ffc9a760e01b6001600160e01b03198316145b92915050565b6060600a8054610774906124c3565b1515905061079d57604051806101c001604052806101868152602001612c506101869139905090565b600a80546107aa906124c3565b80601f01602080910402602001604051908101604052809291908181526020018280546107d6906124c3565b80156108235780601f106107f857610100808354040283529160200191610823565b820191906000526020600020905b81548152906001019060200180831161080657829003601f168201915b5050505050905090565b606061075f3383610faf565b606060098054610848906124c3565b1515905061086e57604051806060016040528060338152602001612e0760339139905090565b600980546107aa906124c3565b61088433610b8e565b6108a95760405162461bcd60e51b81526004016108a0906124fe565b60405180910390fd5b604080516060810191829052600091600b9060039082845b81546001600160a01b031681526001909101906020018083116108c15750939450479350849250600091506108f39050565b60200201516001600160a01b03166108fc606461091184601e612551565b61091b9190612586565b6040518115909202916000818181858888f19350505050158015610943573d6000803e3d6000fd5b5060208201516001600160a01b03166108fc6064610962846023612551565b61096c9190612586565b6040518115909202916000818181858888f19350505050158015610994573d6000803e3d6000fd5b5081600260200201516040516001600160a01b03909116904780156108fc02916000818181858888f193505050501580156109d3573d6000803e3d6000fd5b505050565b6109e133610b8e565b6109fd5760405162461bcd60e51b81526004016108a0906124fe565b60038160ff1610610a435760405162461bcd60e51b815260206004820152601060248201526f21494e4445585f4f564552464c4f572160801b60448201526064016108a0565b6001600160a01b038216610a8d5760405162461bcd60e51b815260206004820152601160248201527021494e56414c49445f414444524553532160781b60448201526064016108a0565b81600b8260ff1660038110610aa457610aa4612525565b0180546001600160a01b0319166001600160a01b03929092169190911790555050565b610ad033610b8e565b610aec5760405162461bcd60e51b81526004016108a0906124fe565b600480546001600160a01b0319166001600160a01b0392909216919091179055565b565b600b8160038110610b2057600080fd5b01546001600160a01b0316905081565b60055460045433916001600160a01b03908116911660005b84811015610b8657610b7484878784818110610b6657610b66612525565b905060200201358585611220565b80610b7e8161259a565b915050610b48565b505050505050565b6000816001600160a01b0316610bac6000546001600160a01b031690565b6001600160a01b0316148061075f5750506006546001600160a01b0391821691161490565b6000546001600160a01b03163314610c2b5760405162461bcd60e51b815260206004820181905260248201527f4f776e61626c653a2063616c6c6572206973206e6f7420746865206f776e657260448201526064016108a0565b610b0e60006115ac565b610c3e33610b8e565b610c5a5760405162461bcd60e51b81526004016108a0906124fe565b60085460ff1615610c7d5760405162461bcd60e51b81526004016108a0906125b5565b8051610c909060079060208401906120cf565b5050565b606060078054610ca3906124c3565b15159050610cc957604051806060016040528060318152602001612dd660319139905090565b600780546107aa906124c3565b610cdf33610b8e565b610cfb5760405162461bcd60e51b81526004016108a0906124fe565b60085460ff1615610d1e5760405162461bcd60e51b81526004016108a0906125b5565b8051610c9090600a9060208401906120cf565b610d3a33610b8e565b610d565760405162461bcd60e51b81526004016108a0906124fe565b610d5f816115fc565b50565b610d6b33610b8e565b610d875760405162461bcd60e51b81526004016108a0906124fe565b600680546001600160a01b0319166001600160a01b0392909216919091179055565b610dcd60405180606001604052806000815260200160608152602001606081525090565b60055460405163b240cba360e01b8152600481018490526001600160a01b039091169063b240cba39060240160006040518083038186803b158015610e1157600080fd5b505afa158015610e25573d6000803e3d6000fd5b505050506040513d6000823e601f3d908101601f1916820160405261075f9190810190612621565b606061075f3383610fda565b610e6233610b8e565b610e7e5760405162461bcd60e51b81526004016108a0906124fe565b6008805460ff19166001179055565b6000818152600e60205260408120548190606090610edf5760405162461bcd60e51b815260206004820152600f60248201526e21554e4b4e4f574e5f544f4b454e2160881b60448201526064016108a0565b6000848152600e6020526040812054610efd90633b9aca00906126d2565b90506000610f0a8261164a565b60055460405163b240cba360e01b8152600481018990529192506000916001600160a01b039091169063b240cba39060240160006040518083038186803b158015610f5457600080fd5b505afa158015610f68573d6000803e3d6000fd5b505050506040513d6000823e601f3d908101601f19168201604052610f909190810190612621565b5192979296509094509092505050565b6060600380546107aa906124c3565b60606000806000610fbf85610e8d565b925092509250610fd08383836118a4565b9695505050505050565b60606000806000610fea85610e8d565b9250925092506110a2610ffc866119ec565b611004610765565b61100c610839565b611015896119ec565b604051602001611026929190612702565b60405160208183030381529060405261103e876119ec565b611047876119ec565b61105087611af2565b61105b8a8a8a6118a4565b60405160200161106d93929190612731565b60408051601f198184030181529082905261108e95949392916020016127e1565b604051602081830303815290604052611edf565b6040516020016110b2919061290a565b604051602081830303815290604052935050505092915050565b6004546000906001600160a01b03166110f75750600480546001600160a01b03191633179055600190565b50600090565b6000546001600160a01b031633146111575760405162461bcd60e51b815260206004820181905260248201527f4f776e61626c653a2063616c6c6572206973206e6f7420746865206f776e657260448201526064016108a0565b6001600160a01b0381166111bc5760405162461bcd60e51b815260206004820152602660248201527f4f776e61626c653a206e6577206f776e657220697320746865207a65726f206160448201526564647265737360d01b60648201526084016108a0565b610d5f816115ac565b6111ce33610b8e565b6111ea5760405162461bcd60e51b81526004016108a0906124fe565b60085460ff161561120d5760405162461bcd60e51b81526004016108a0906125b5565b8051610c909060099060208401906120cf565b6040516331a9108f60e11b81526004810184905282906000906001600160a01b03831690636352211e9060240160206040518083038186803b15801561126557600080fd5b505afa158015611279573d6000803e3d6000fd5b505050506040513d601f19601f8201168201806040525081019061129d919061294f565b9050856001600160a01b0316816001600160a01b0316148061133b575060405163e985e9c560e01b81526001600160a01b038281166004830152878116602483015283169063e985e9c59060440160206040518083038186803b15801561130357600080fd5b505afa158015611317573d6000803e3d6000fd5b505050506040513d601f19601f8201168201806040525081019061133b919061296c565b806113c9575060405163020604bf60e21b8152600481018690526001600160a01b03808816919084169063081812fc9060240160206040518083038186803b15801561138657600080fd5b505afa15801561139a573d6000803e3d6000fd5b505050506040513d601f19601f820116820180604052508101906113be919061294f565b6001600160a01b0316145b6114085760405162461bcd60e51b815260206004820152601060248201526f214e4f545f415554484f52495a45442160801b60448201526064016108a0565b604051637971ab0f60e11b81526001600160a01b03828116600483015260c06024830152600060c4830181905260448301889052606483018190526084830181905260a483015284919082169063f2e3561e9060e401602060405180830381600087803b15801561147857600080fd5b505af115801561148c573d6000803e3d6000fd5b505050506040513d601f19601f820116820180604052508101906114b0919061298e565b5060005b6115328742856114c56001436129a7565b4060408051602081018690529081018490526bffffffffffffffffffffffff19606084811b8216818401526074830184905241901b1660948201524460a88201523a60c882015260009060e801604051602081830303815290604052805190602001209050949350505050565b9050600f6000611546633b9aca00846126d2565b815260208101919091526040016000205460ff166114b4576000878152600e60205260408120829055600190600f90611583633b9aca00856126d2565b81526020810191909152604001600020805460ff19169115159190911790555050505050505050565b600080546001600160a01b038381166001600160a01b0319831681178455604051919092169283917f8be0079c531659141344cd1fd0a4f28419497f9722a3daafe3b4186f6b6457e09190a35050565b805161160f9060039060208401906120cf565b507fdf1280b84eee5cd4ce59294c59ec7288bd49034d7f3d142f57ba9b47791563648160405161163f91906121f5565b60405180910390a150565b604080516020810182528281528151600680825260e0820190935260609281602001602082028036833701905050915061168781600a60c8612047565b8260008151811061169a5761169a612525565b60209081029190910101526116b2816005600f612047565b826001815181106116c5576116c5612525565b60209081029190910101526116de816000611388612047565b826002815181106116f1576116f1612525565b602002602001018181525050614e208260028151811061171357611713612525565b60200260200101511015611744576127108260018151811061173757611737612525565b6020026020010181815250505b6103e86117548260006002612047565b10611760576001611763565b60005b60ff168260038151811061177957611779612525565b602002602001018181525050614e208260028151811061179b5761179b612525565b602002602001015110156117e7576103e86117b98260026004612047565b6117c39190612586565b826004815181106117d6576117d6612525565b602002602001018181525050611865565b6103e86117f7826000600a612047565b6118019190612586565b8260048151811061181457611814612525565b60200260200101818152505060038260048151811061183557611835612525565b602002602001015111156118655760008260048151811061185857611858612525565b6020026020010181815250505b6103e86118758260006004612047565b61187f9190612586565b8260058151811061189257611892612525565b60200260200101818152505050919050565b60606000604051806040016040528060018152602001600b60fa1b815250905060006118e9846000815181106118dc576118dc612525565b60200260200101516119ec565b82611900866001815181106118dc576118dc612525565b84611917886002815181106118dc576118dc612525565b8660405160200161192d969594939291906129be565b6040516020818303038152906040529050611946610c94565b61194f876119ec565b611958876119ec565b8361196f886003815181106118dc576118dc612525565b866119868a6004815181106118dc576118dc612525565b8861199d8c6005815181106118dc576118dc612525565b6040516020016119b2969594939291906129be565b60408051601f19818403018152908290526119d294939291602001612a3d565b604051602081830303815290604052925050509392505050565b606081611a105750506040805180820190915260018152600360fc1b602082015290565b8160005b8115611a3a5780611a248161259a565b9150611a339050600a83612586565b9150611a14565b60008167ffffffffffffffff811115611a5557611a55612333565b6040519080825280601f01601f191660200182016040528015611a7f576020820181803683370190505b5090505b8415611aea57611a946001836129a7565b9150611aa1600a866126d2565b611aac906030612ade565b60f81b818381518110611ac157611ac1612525565b60200101906001600160f81b031916908160001a905350611ae3600a86612586565b9450611a83565b949350505050565b60606000604051806040016040528060018152602001600b60fa1b81525090506000611ba2604051806040016040528060078152602001662a32b93930b4b760c91b81525061c35086600081518110611b4d57611b4d612525565b602002602001015110611b7e576040518060400160405280600681526020016553706172736560d01b81525061207c565b6040518060400160405280600581526020016444656e736560d81b8152505b61207c565b82604051602001611bb4929190612702565b6040516020818303038152906040529050611f4084600181518110611bdb57611bdb612525565b60200260200101511015611c555780611c2c6040518060400160405280600481526020016353697a6560e01b8152506040518060400160405280600481526020016354696e7960e01b81525061207c565b83604051602001611c3f93929190612af6565b6040516020818303038152906040529050611d27565b612ee084600181518110611c6b57611c6b612525565b60200260200101511015611cbe5780611c2c6040518060400160405280600481526020016353697a6560e01b815250604051806040016040528060068152602001654d656469756d60d01b81525061207c565b80611d026040518060400160405280600481526020016353697a6560e01b8152506040518060400160405280600581526020016411da585b9d60da1b81525061207c565b83604051602001611d1593929190612af6565b60405160208183030381529060405290505b80611db360405180604001604052806004815260200163466f726d60e01b815250614e2087600281518110611d5e57611d5e612525565b602002602001015110611d8c576040518060400160405280600381526020016247656f60e81b81525061207c565b6040518060400160405280600981526020016815195cdcd95c9858dd60ba1b81525061207c565b83611e4060405180604001604052806005815260200164536861646560d81b81525088600381518110611de857611de8612525565b6020026020010151600014611e1b576040518060400160405280600681526020016553696d706c6560d01b81525061207c565b60405180604001604052806007815260200166159a589c985b9d60ca1b81525061207c565b85611e786040518060400160405280600581526020016452696e677360d81b815250611b9d8b6004815181106118dc576118dc612525565b87611eb0604051806040016040528060058152602001644d6f6f6e7360d81b815250611b9d8d6005815181106118dc576118dc612525565b604051602001611ec7989796959493929190612b39565b60408051601f19818403018152919052949350505050565b6060815160001415611eff57505060408051602081019091526000815290565b6000604051806060016040528060408152602001612e3a6040913990506000600384516002611f2e9190612ade565b611f389190612586565b611f43906004612551565b90506000611f52826020612ade565b67ffffffffffffffff811115611f6a57611f6a612333565b6040519080825280601f01601f191660200182016040528015611f94576020820181803683370190505b509050818152600183018586518101602084015b818310156120025760039283018051603f601282901c811687015160f890811b8552600c83901c8216880151811b6001860152600683901c8216880151811b60028601529116860151901b93820193909352600401611fa8565b60038951066001811461201c576002811461202d57612039565b613d3d60f01b600119830152612039565b603d60f81b6000198301525b509398975050505050505050565b6000612052846120a8565b61205c84846129a7565b6120669190612551565b612072846103e8612551565b611aea9190612ade565b60608282604051602001612091929190612bde565b604051602081830303815290604052905092915050565b8051600d81901b18601181901c18600581901b18815260006103e8825161075f91906126d2565b8280546120db906124c3565b90600052602060002090601f0160209004810192826120fd5760008555612143565b82601f1061211657805160ff1916838001178555612143565b82800160010185558215612143579182015b82811115612143578251825591602001919060010190612128565b5061214f929150612153565b5090565b5b8082111561214f5760008155600101612154565b60006020828403121561217a57600080fd5b81356001600160e01b03198116811461219257600080fd5b9392505050565b60005b838110156121b457818101518382015260200161219c565b838111156121c3576000848401525b50505050565b600081518084526121e1816020860160208601612199565b601f01601f19169290920160200192915050565b60208152600061219260208301846121c9565b60006020828403121561221a57600080fd5b5035919050565b6001600160a01b0381168114610d5f57600080fd5b6000806040838503121561224957600080fd5b823561225481612221565b946020939093013593505050565b6000806040838503121561227557600080fd5b823561228081612221565b9150602083013560ff8116811461229657600080fd5b809150509250929050565b6000602082840312156122b357600080fd5b813561219281612221565b600080602083850312156122d157600080fd5b823567ffffffffffffffff808211156122e957600080fd5b818501915085601f8301126122fd57600080fd5b81358181111561230c57600080fd5b8660208260051b850101111561232157600080fd5b60209290920196919550909350505050565b634e487b7160e01b600052604160045260246000fd5b604051601f8201601f1916810167ffffffffffffffff8111828210171561237257612372612333565b604052919050565b600067ffffffffffffffff82111561239457612394612333565b50601f01601f191660200190565b6000602082840312156123b457600080fd5b813567ffffffffffffffff8111156123cb57600080fd5b8201601f810184136123dc57600080fd5b80356123ef6123ea8261237a565b612349565b81815285602083850101111561240457600080fd5b81602084016020830137600091810160200191909152949350505050565b6020815281516020820152600060208301516060604084015261244860808401826121c9565b90506040840151601f1984830301606085015261246582826121c9565b95945050505050565b6000606082018583526020858185015260606040850152818551808452608086019150828701935060005b818110156124b557845183529383019391830191600101612499565b509098975050505050505050565b600181811c908216806124d757607f821691505b602082108114156124f857634e487b7160e01b600052602260045260246000fd5b50919050565b6020808252600d908201526c2737ba1037b832b930ba37b91760991b604082015260600190565b634e487b7160e01b600052603260045260246000fd5b634e487b7160e01b600052601160045260246000fd5b600081600019048311821515161561256b5761256b61253b565b500290565b634e487b7160e01b600052601260045260246000fd5b60008261259557612595612570565b500490565b60006000198214156125ae576125ae61253b565b5060010190565b6020808252600d908201526c214d4554415f46524f5a454e2160981b604082015260600190565b600082601f8301126125ed57600080fd5b81516125fb6123ea8261237a565b81815284602083860101111561261057600080fd5b611aea826020830160208701612199565b60006020828403121561263357600080fd5b815167ffffffffffffffff8082111561264b57600080fd5b908301906060828603121561265f57600080fd5b60405160608101818110838211171561267a5761267a612333565b6040528251815260208301518281111561269357600080fd5b61269f878286016125dc565b6020830152506040830151828111156126b757600080fd5b6126c3878286016125dc565b60408301525095945050505050565b6000826126e1576126e1612570565b500690565b600081516126f8818560208601612199565b9290920192915050565b60008351612714818460208801612199565b835190830190612728818360208801612199565b01949350505050565b7311161130b9ba3930b3b630b232a9b2b2b2111d1160611b81528351600090612761816014850160208901612199565b6f222c2261747472696275746573223a5b60801b6014918401918201528451612791816024840160208901612199565b722e961130b734b6b0ba34b7b72fbab936111d1160691b6024929091019182015283516127c5816037840160208801612199565b61227d60f01b6037929091019182015260390195945050505050565b7103d913730b6b2911d11283630b732ba1016960751b8152855160009061280f816012850160208b01612199565b7f222c226c6963656e7365223a2243432042592d534120342e30222c2264657363601291840191820152693934b83a34b7b7111d1160b11b6032820152865161285f81603c840160208b01612199565b7f222c22637265617465645f6279223a22466162696e2052617368656564222c22603c92909101918201527f74776974746572223a22406173747261676c616465222c22696d616765223a22605c82015285516128c381607c840160208a01612199565b6911161139b2b2b2111d1160b11b607c929091019182015284516128ee816086840160208901612199565b6128fd608682840101866126e6565b9998505050505050505050565b7f646174613a6170706c69636174696f6e2f6a736f6e3b6261736536342c00000081526000825161294281601d850160208701612199565b91909101601d0192915050565b60006020828403121561296157600080fd5b815161219281612221565b60006020828403121561297e57600080fd5b8151801515811461219257600080fd5b6000602082840312156129a057600080fd5b5051919050565b6000828210156129b9576129b961253b565b500390565b6000875160206129d18285838d01612199565b8851918401916129e48184848d01612199565b88519201916129f68184848c01612199565b8751920191612a088184848b01612199565b8651920191612a1a8184848a01612199565b8551920191612a2c8184848901612199565b919091019998505050505050505050565b60008551612a4f818460208a01612199565b653f736565643d60d01b9083019081528551612a72816006840160208a01612199565b6f266173747261676c616465536565643d60801b600692909101918201528451612aa3816016840160208901612199565b6b26617474726962757465733d60a01b601692909101918201528351612ad0816022840160208801612199565b016022019695505050505050565b60008219821115612af157612af161253b565b500190565b60008451612b08818460208901612199565b845190830190612b1c818360208901612199565b8451910190612b2f818360208801612199565b0195945050505050565b600089516020612b4c8285838f01612199565b8a5191840191612b5f8184848f01612199565b8a51920191612b718184848e01612199565b8951920191612b838184848d01612199565b8851920191612b958184848c01612199565b8751920191612ba78184848b01612199565b8651920191612bb98184848a01612199565b8551920191612bcb8184848901612199565b919091019b9a5050505050505050505050565b6e3d913a3930b4ba2fba3cb832911d1160891b81528251600090612c0981600f850160208801612199565b6a1116113b30b63ab2911d1160a91b600f918401918201528351612c3481601a840160208801612199565b61227d60f01b601a9290910191820152601c0194935050505056fe4173747261676c61646520506c616e65747320697320616e20657874656e73696f6e206f662070726f6a656374204173747261676c616465202868747470733a2f2f6e7572656361732e636f6d2f6173747261676c616465292e20506c616e6574732061726520616e20696e74657261637469766520616e642067656e657261746976652033442061727420746861742063616e206265206d696e74656420666f72206672656520627920616e796f6e652077686f206f776e7320616e206173747261676c616465206174205b68747470733a2f2f6173747261676c6164652e6265796f6e646e66742e696f2f706c616e6574732f5d2868747470733a2f2f6173747261676c6164652e6265796f6e646e66742e696f2f706c616e6574732f292e205768656e206120506c616e6574206973206d696e7465642c20746865206f776e65722773206173747261676c6164652077696c6c206f7262697420666f72657665722061726f756e642074686520706c616e657420746861742074686579206d696e742e61723a2f2f4a5974467674786c7079757232436470616f646d6f3436587a7554706d70304f774a6c31337246557272672f68747470733a2f2f6173747261676c6164652d6170692e6265796f6e646e66742e696f2f706c616e6574732f696d616765732f4142434445464748494a4b4c4d4e4f505152535455565758595a6162636465666768696a6b6c6d6e6f707172737475767778797a303132333435363738392b2fa2646970667358221220f30cbbceaf5ea0b3e2efc2973708fcf6f41ca23d522b84480b98dfc503e8993764736f6c63430008090033"
  }
}