{
  "opcodeHash": "0x801761b46f14e3b669a2fb33a4589a04d43438f4d8e07ee5ecc22248286e3555",
  "metalessHash": "0x33dd326a6d4d4de3b2ed947106e2fa04d035aaf2aa26b7b2a224a14d74d76bed",
  "runtimeHash": "0x85709e12661acb67a9c633fc266ea443858fc899d305692e73a00b0c6cb03943",
  "encodedMetadata": [
    {
      "ipfs": "/ipfs/Qma7aCGMZRVwi6Kahu3uTKXDTyaoQDSRqWWzo1A3aNgWSY",
      "solc": "0.8.9"
    }
  ],
  "abi": [
    {
      "inputs": [],
      "stateMutability": "nonpayable",
      "type": "constructor"
    },
    {
      "anonymous": false,
      "inputs": [
        {
          "indexed": true,
          "internalType": "address",
          "name": "owner",
          "type": "address"
        },
        {
          "indexed": true,
          "internalType": "address",
          "name": "spender",
          "type": "address"
        },
        {
          "indexed": false,
          "internalType": "uint256",
          "name": "value",
          "type": "uint256"
        }
      ],
      "name": "Approval",
      "type": "event"
    },
    {
      "anonymous": false,
      "inputs": [
        {
          "indexed": true,
          "internalType": "address",
          "name": "delegator",
          "type": "address"
        },
        {
          "indexed": true,
          "internalType": "address",
          "name": "fromDelegate",
          "type": "address"
        },
        {
          "indexed": true,
          "internalType": "address",
          "name": "toDelegate",
          "type": "address"
        }
      ],
      "name": "DelegateChanged",
      "type": "event"
    },
    {
      "anonymous": false,
      "inputs": [
        {
          "indexed": true,
          "internalType": "address",
          "name": "delegate",
          "type": "address"
        },
        {
          "indexed": false,
          "internalType": "uint256",
          "name": "previousBalance",
          "type": "uint256"
        },
        {
          "indexed": false,
          "internalType": "uint256",
          "name": "newBalance",
          "type": "uint256"
        }
      ],
      "name": "DelegateVotesChanged",
      "type": "event"
    },
    {
      "anonymous": false,
      "inputs": [
        {
          "indexed": true,
          "internalType": "address",
          "name": "from",
          "type": "address"
        },
        {
          "indexed": true,
          "internalType": "address",
          "name": "to",
          "type": "address"
        },
        {
          "indexed": false,
          "internalType": "uint256",
          "name": "value",
          "type": "uint256"
        }
      ],
      "name": "Transfer",
      "type": "event"
    },
    {
      "inputs": [],
      "name": "DOMAIN_SEPARATOR",
      "outputs": [
        {
          "internalType": "bytes32",
          "name": "",
          "type": "bytes32"
        }
      ],
      "stateMutability": "view",
      "type": "function"
    },
    {
      "inputs": [
        {
          "internalType": "address",
          "name": "owner",
          "type": "address"
        },
        {
          "internalType": "address",
          "name": "spender",
          "type": "address"
        }
      ],
      "name": "allowance",
      "outputs": [
        {
          "internalType": "uint256",
          "name": "",
          "type": "uint256"
        }
      ],
      "stateMutability": "view",
      "type": "function"
    },
    {
      "inputs": [
        {
          "internalType": "address",
          "name": "spender",
          "type": "address"
        },
        {
          "internalType": "uint256",
          "name": "amount",
          "type": "uint256"
        }
      ],
      "name": "approve",
      "outputs": [
        {
          "internalType": "bool",
          "name": "",
          "type": "bool"
        }
      ],
      "stateMutability": "nonpayable",
      "type": "function"
    },
    {
      "inputs": [
        {
          "internalType": "address",
          "name": "account",
          "type": "address"
        }
      ],
      "name": "balanceOf",
      "outputs": [
        {
          "internalType": "uint256",
          "name": "",
          "type": "uint256"
        }
      ],
      "stateMutability": "view",
      "type": "function"
    },
    {
      "inputs": [
        {
          "internalType": "address",
          "name": "account",
          "type": "address"
        },
        {
          "internalType": "uint32",
          "name": "pos",
          "type": "uint32"
        }
      ],
      "name": "checkpoints",
      "outputs": [
        {
          "components": [
            {
              "internalType": "uint32",
              "name": "fromBlock",
              "type": "uint32"
            },
            {
              "internalType": "uint224",
              "name": "votes",
              "type": "uint224"
            }
          ],
          "internalType": "struct ERC20Votes.Checkpoint",
          "name": "",
          "type": "tuple"
        }
      ],
      "stateMutability": "view",
      "type": "function"
    },
    {
      "inputs": [],
      "name": "decimals",
      "outputs": [
        {
          "internalType": "uint8",
          "name": "",
          "type": "uint8"
        }
      ],
      "stateMutability": "view",
      "type": "function"
    },
    {
      "inputs": [
        {
          "internalType": "address",
          "name": "spender",
          "type": "address"
        },
        {
          "internalType": "uint256",
          "name": "subtractedValue",
          "type": "uint256"
        }
      ],
      "name": "decreaseAllowance",
      "outputs": [
        {
          "internalType": "bool",
          "name": "",
          "type": "bool"
        }
      ],
      "stateMutability": "nonpayable",
      "type": "function"
    },
    {
      "inputs": [
        {
          "internalType": "address",
          "name": "delegatee",
          "type": "address"
        }
      ],
      "name": "delegate",
      "outputs": [],
      "stateMutability": "nonpayable",
      "type": "function"
    },
    {
      "inputs": [
        {
          "internalType": "address",
          "name": "delegatee",
          "type": "address"
        },
        {
          "internalType": "uint256",
          "name": "nonce",
          "type": "uint256"
        },
        {
          "internalType": "uint256",
          "name": "expiry",
          "type": "uint256"
        },
        {
          "internalType": "uint8",
          "name": "v",
          "type": "uint8"
        },
        {
          "internalType": "bytes32",
          "name": "r",
          "type": "bytes32"
        },
        {
          "internalType": "bytes32",
          "name": "s",
          "type": "bytes32"
        }
      ],
      "name": "delegateBySig",
      "outputs": [],
      "stateMutability": "nonpayable",
      "type": "function"
    },
    {
      "inputs": [
        {
          "internalType": "address",
          "name": "account",
          "type": "address"
        }
      ],
      "name": "delegates",
      "outputs": [
        {
          "internalType": "address",
          "name": "",
          "type": "address"
        }
      ],
      "stateMutability": "view",
      "type": "function"
    },
    {
      "inputs": [
        {
          "internalType": "address",
          "name": "account",
          "type": "address"
        }
      ],
      "name": "getCurrentVotes",
      "outputs": [
        {
          "internalType": "uint96",
          "name": "",
          "type": "uint96"
        }
      ],
      "stateMutability": "view",
      "type": "function"
    },
    {
      "inputs": [
        {
          "internalType": "uint256",
          "name": "blockNumber",
          "type": "uint256"
        }
      ],
      "name": "getPastTotalSupply",
      "outputs": [
        {
          "internalType": "uint256",
          "name": "",
          "type": "uint256"
        }
      ],
      "stateMutability": "view",
      "type": "function"
    },
    {
      "inputs": [
        {
          "internalType": "address",
          "name": "account",
          "type": "address"
        },
        {
          "internalType": "uint256",
          "name": "blockNumber",
          "type": "uint256"
        }
      ],
      "name": "getPastVotes",
      "outputs": [
        {
          "internalType": "uint256",
          "name": "",
          "type": "uint256"
        }
      ],
      "stateMutability": "view",
      "type": "function"
    },
    {
      "inputs": [
        {
          "internalType": "address",
          "name": "account",
          "type": "address"
        },
        {
          "internalType": "uint256",
          "name": "blockNumber",
          "type": "uint256"
        }
      ],
      "name": "getPriorVotes",
      "outputs": [
        {
          "internalType": "uint96",
          "name": "",
          "type": "uint96"
        }
      ],
      "stateMutability": "view",
      "type": "function"
    },
    {
      "inputs": [
        {
          "internalType": "address",
          "name": "account",
          "type": "address"
        }
      ],
      "name": "getVotes",
      "outputs": [
        {
          "internalType": "uint256",
          "name": "",
          "type": "uint256"
        }
      ],
      "stateMutability": "view",
      "type": "function"
    },
    {
      "inputs": [
        {
          "internalType": "address",
          "name": "spender",
          "type": "address"
        },
        {
          "internalType": "uint256",
          "name": "addedValue",
          "type": "uint256"
        }
      ],
      "name": "increaseAllowance",
      "outputs": [
        {
          "internalType": "bool",
          "name": "",
          "type": "bool"
        }
      ],
      "stateMutability": "nonpayable",
      "type": "function"
    },
    {
      "inputs": [],
      "name": "name",
      "outputs": [
        {
          "internalType": "string",
          "name": "",
          "type": "string"
        }
      ],
      "stateMutability": "view",
      "type": "function"
    },
    {
      "inputs": [
        {
          "internalType": "address",
          "name": "owner",
          "type": "address"
        }
      ],
      "name": "nonces",
      "outputs": [
        {
          "internalType": "uint256",
          "name": "",
          "type": "uint256"
        }
      ],
      "stateMutability": "view",
      "type": "function"
    },
    {
      "inputs": [
        {
          "internalType": "address",
          "name": "account",
          "type": "address"
        }
      ],
      "name": "numCheckpoints",
      "outputs": [
        {
          "internalType": "uint32",
          "name": "",
          "type": "uint32"
        }
      ],
      "stateMutability": "view",
      "type": "function"
    },
    {
      "inputs": [
        {
          "internalType": "address",
          "name": "owner",
          "type": "address"
        },
        {
          "internalType": "address",
          "name": "spender",
          "type": "address"
        },
        {
          "internalType": "uint256",
          "name": "value",
          "type": "uint256"
        },
        {
          "internalType": "uint256",
          "name": "deadline",
          "type": "uint256"
        },
        {
          "internalType": "uint8",
          "name": "v",
          "type": "uint8"
        },
        {
          "internalType": "bytes32",
          "name": "r",
          "type": "bytes32"
        },
        {
          "internalType": "bytes32",
          "name": "s",
          "type": "bytes32"
        }
      ],
      "name": "permit",
      "outputs": [],
      "stateMutability": "nonpayable",
      "type": "function"
    },
    {
      "inputs": [],
      "name": "symbol",
      "outputs": [
        {
          "internalType": "string",
          "name": "",
          "type": "string"
        }
      ],
      "stateMutability": "view",
      "type": "function"
    },
    {
      "inputs": [],
      "name": "totalSupply",
      "outputs": [
        {
          "internalType": "uint256",
          "name": "",
          "type": "uint256"
        }
      ],
      "stateMutability": "view",
      "type": "function"
    },
    {
      "inputs": [
        {
          "internalType": "address",
          "name": "recipient",
          "type": "address"
        },
        {
          "internalType": "uint256",
          "name": "amount",
          "type": "uint256"
        }
      ],
      "name": "transfer",
      "outputs": [
        {
          "internalType": "bool",
          "name": "",
          "type": "bool"
        }
      ],
      "stateMutability": "nonpayable",
      "type": "function"
    },
    {
      "inputs": [
        {
          "internalType": "address",
          "name": "sender",
          "type": "address"
        },
        {
          "internalType": "address",
          "name": "recipient",
          "type": "address"
        },
        {
          "internalType": "uint256",
          "name": "amount",
          "type": "uint256"
        }
      ],
      "name": "transferFrom",
      "outputs": [
        {
          "internalType": "bool",
          "name": "",
          "type": "bool"
        }
      ],
      "stateMutability": "nonpayable",
      "type": "function"
    }
  ],
  "bytecode": {
    "object": "6101606040527f6e71edae12b1b97f4d1f60370fef10105fa2faae0126114a169c64845d6126c9610140523480156200003757600080fd5b506040518060400160405280600881526020016723393ab4ba34b7b760c11b81525080604051806040016040528060018152602001603160f81b8152506040518060400160405280600881526020016723393ab4ba34b7b760c11b8152506040518060400160405280600381526020016246525560e81b8152508160039080519060200190620000c9929190620007ba565b508051620000df906004906020840190620007ba565b5050825160209384012082519284019290922060e08390526101008190524660a0818152604080517f8b73c3c69bb8fe3d512ecc4cf759cc79239f7b179b0ffacaa9a75d522b39400f818901819052818301979097526060810194909452608080850193909352308483018190528151808603909301835260c0948501909152815191909601209052929092526101205250620001b290507341cf51f7ca3994e64ff5b290418c598b3e733aa260125b6200019c90600a62000969565b620001ac906302faf0806200097a565b620001d9565b620001d373a456b6c338d66204416ee300dc5874d3640cf28360126200018f565b62000a24565b620001f082826200028e60201b62000ba41760201c565b6001600160601b036200020260025490565b11156200026f5760405162461bcd60e51b815260206004820152603060248201527f4552433230566f7465733a20746f74616c20737570706c79207269736b73206f60448201526f766572666c6f77696e6720766f74657360801b60648201526084015b60405180910390fd5b62000288600862000c8f6200038160201b178362000398565b50505050565b6001600160a01b038216620002e65760405162461bcd60e51b815260206004820152601f60248201527f45524332303a206d696e7420746f20746865207a65726f206164647265737300604482015260640162000266565b8060026000828254620002fa91906200099c565b90915550506001600160a01b03821660009081526020819052604081208054839290620003299084906200099c565b90915550506040518181526001600160a01b038316906000907fddf252ad1be2c89b69c2b068fc378daa952ba7f163c4a11628f55a4df523b3ef9060200160405180910390a36200037d600083836200054f565b5050565b60006200038f82846200099c565b90505b92915050565b825460009081908015620003ea5785620003b4600183620009b7565b81548110620003c757620003c7620009d1565b60009182526020909120015464010000000090046001600160e01b0316620003ed565b60005b6001600160e01b031692506200040483858760201c565b9150600081118015620004485750438662000421600184620009b7565b81548110620004345762000434620009d1565b60009182526020909120015463ffffffff16145b15620004bc5762000464826200059b60201b62000c9b1760201c565b8662000472600184620009b7565b81548110620004855762000485620009d1565b9060005260206000200160000160046101000a8154816001600160e01b0302191690836001600160e01b0316021790555062000541565b856040518060400160405280620004de436200060a60201b62000d1e1760201c565b63ffffffff168152602001620004ff856200059b60201b62000c9b1760201c565b6001600160e01b0390811690915282546001810184556000938452602093849020835194909301519091166401000000000263ffffffff909316929092179101555b50935093915050565b505050565b620005678383836200054a60201b62000d9a1760201c565b6001600160a01b038381166000908152600660205260408082205485841683529120546200054a9291821691168362000671565b60006001600160e01b03821115620006065760405162461bcd60e51b815260206004820152602760248201527f53616665436173743a2076616c756520646f65736e27742066697420696e20326044820152663234206269747360c81b606482015260840162000266565b5090565b600063ffffffff821115620006065760405162461bcd60e51b815260206004820152602660248201527f53616665436173743a2076616c756520646f65736e27742066697420696e203360448201526532206269747360d01b606482015260840162000266565b816001600160a01b0316836001600160a01b031614158015620006945750600081115b156200054a576001600160a01b0383161562000721576001600160a01b038316600090815260076020908152604082208291620006de9190620007ac901b62000d9f178562000398565b91509150846001600160a01b031660008051602062002851833981519152838360405162000716929190918252602082015260400190565b60405180910390a250505b6001600160a01b038216156200054a576001600160a01b03821660009081526007602090815260408220829162000765919062000381901b62000c8f178562000398565b91509150836001600160a01b03166000805160206200285183398151915283836040516200079d929190918252602082015260400190565b60405180910390a25050505050565b60006200038f8284620009b7565b828054620007c890620009e7565b90600052602060002090601f016020900481019282620007ec576000855562000837565b82601f106200080757805160ff191683800117855562000837565b8280016001018555821562000837579182015b82811115620008375782518255916020019190600101906200081a565b50620006069291505b8082111562000606576000815560010162000840565b634e487b7160e01b600052601160045260246000fd5b600181815b80851115620008ad57816000190482111562000891576200089162000856565b808516156200089f57918102915b93841c939080029062000871565b509250929050565b600082620008c65750600162000392565b81620008d55750600062000392565b8160018114620008ee5760028114620008f95762000919565b600191505062000392565b60ff8411156200090d576200090d62000856565b50506001821b62000392565b5060208310610133831016604e8410600b84101617156200093e575081810a62000392565b6200094a83836200086c565b806000190482111562000961576200096162000856565b029392505050565b60006200038f60ff841683620008b5565b600081600019048311821515161562000997576200099762000856565b500290565b60008219821115620009b257620009b262000856565b500190565b600082821015620009cc57620009cc62000856565b500390565b634e487b7160e01b600052603260045260246000fd5b600181811c90821680620009fc57607f821691505b6020821081141562000a1e57634e487b7160e01b600052602260045260246000fd5b50919050565b60805160a05160c05160e051610100516101205161014051611dd262000a7f6000396000610a10015260006111b0015260006111ff015260006111da015260006111330152600061115d015260006111870152611dd26000f3fe608060405234801561001057600080fd5b50600436106101985760003560e01c8063782d6fe1116100e3578063a9059cbb1161008c578063d505accf11610066578063d505accf146103a7578063dd62ed3e146103ba578063f1127ed8146103f357600080fd5b8063a9059cbb1461036e578063b4b5ea5714610381578063c3cda5201461039457600080fd5b806395d89b41116100bd57806395d89b41146103405780639ab24eb014610348578063a457c2d71461035b57600080fd5b8063782d6fe1146102ea5780637ecebe001461031a5780638e539e8c1461032d57600080fd5b806339509351116101455780635c19a95c1161011f5780635c19a95c146102845780636fcfff451461029957806370a08231146102c157600080fd5b8063395093511461021a5780633a46b1a81461022d578063587cde1e1461024057600080fd5b806323b872dd1161017657806323b872dd146101f0578063313ce567146102035780633644e5151461021257600080fd5b806306fdde031461019d578063095ea7b3146101bb57806318160ddd146101de575b600080fd5b6101a5610430565b6040516101b29190611a83565b60405180910390f35b6101ce6101c9366004611af4565b6104c2565b60405190151581526020016101b2565b6002545b6040519081526020016101b2565b6101ce6101fe366004611b1e565b6104d8565b604051601281526020016101b2565b6101e261059c565b6101ce610228366004611af4565b6105ab565b6101e261023b366004611af4565b6105e7565b61026c61024e366004611b5a565b6001600160a01b039081166000908152600660205260409020541690565b6040516001600160a01b0390911681526020016101b2565b610297610292366004611b5a565b610661565b005b6102ac6102a7366004611b5a565b61066e565b60405163ffffffff90911681526020016101b2565b6101e26102cf366004611b5a565b6001600160a01b031660009081526020819052604090205490565b6102fd6102f8366004611af4565b610696565b6040516bffffffffffffffffffffffff90911681526020016101b2565b6101e2610328366004611b5a565b6106aa565b6101e261033b366004611b75565b6106c8565b6101a5610724565b6101e2610356366004611b5a565b610733565b6101ce610369366004611af4565b6107ba565b6101ce61037c366004611af4565b61086b565b6102fd61038f366004611b5a565b610878565b6102976103a2366004611b9f565b610886565b6102976103b5366004611bf7565b6109bc565b6101e26103c8366004611c61565b6001600160a01b03918216600090815260016020908152604080832093909416825291909152205490565b610406610401366004611c94565b610b20565b60408051825163ffffffff1681526020928301516001600160e01b031692810192909252016101b2565b60606003805461043f90611cd4565b80601f016020809104026020016040519081016040528092919081815260200182805461046b90611cd4565b80156104b85780601f1061048d576101008083540402835291602001916104b8565b820191906000526020600020905b81548152906001019060200180831161049b57829003601f168201915b5050505050905090565b60006104cf338484610dab565b50600192915050565b60006104e5848484610f03565b6001600160a01b0384166000908152600160209081526040808320338452909152902054828110156105845760405162461bcd60e51b815260206004820152602860248201527f45524332303a207472616e7366657220616d6f756e742065786365656473206160448201527f6c6c6f77616e636500000000000000000000000000000000000000000000000060648201526084015b60405180910390fd5b6105918533858403610dab565b506001949350505050565b60006105a6611126565b905090565b3360008181526001602090815260408083206001600160a01b038716845290915281205490916104cf9185906105e2908690611d1f565b610dab565b60004382106106385760405162461bcd60e51b815260206004820152601f60248201527f4552433230566f7465733a20626c6f636b206e6f7420796574206d696e656400604482015260640161057b565b6001600160a01b038316600090815260076020526040902061065a908361124d565b9392505050565b61066b338261130a565b50565b6001600160a01b03811660009081526007602052604081205461069090610d1e565b92915050565b600061065a6106a584846105e7565b61139b565b6001600160a01b038116600090815260056020526040812054610690565b60004382106107195760405162461bcd60e51b815260206004820152601f60248201527f4552433230566f7465733a20626c6f636b206e6f7420796574206d696e656400604482015260640161057b565b61069060088361124d565b60606004805461043f90611cd4565b6001600160a01b03811660009081526007602052604081205480156107a7576001600160a01b0383166000908152600760205260409020610775600183611d37565b8154811061078557610785611d4e565b60009182526020909120015464010000000090046001600160e01b03166107aa565b60005b6001600160e01b03169392505050565b3360009081526001602090815260408083206001600160a01b0386168452909152812054828110156108545760405162461bcd60e51b815260206004820152602560248201527f45524332303a2064656372656173656420616c6c6f77616e63652062656c6f7760448201527f207a65726f000000000000000000000000000000000000000000000000000000606482015260840161057b565b6108613385858403610dab565b5060019392505050565b60006104cf338484610f03565b60006106906106a583610733565b834211156108d65760405162461bcd60e51b815260206004820152601d60248201527f4552433230566f7465733a207369676e61747572652065787069726564000000604482015260640161057b565b604080517fe48329057bfd03d55e49b547132e39cffd9c1820ad7b9d4c5307691425d15adf60208201526001600160a01b038816918101919091526060810186905260808101859052600090610950906109489060a0016040516020818303038152906040528051906020012061141f565b858585611488565b905061095b816114b0565b86146109a95760405162461bcd60e51b815260206004820152601960248201527f4552433230566f7465733a20696e76616c6964206e6f6e636500000000000000604482015260640161057b565b6109b3818861130a565b50505050505050565b83421115610a0c5760405162461bcd60e51b815260206004820152601d60248201527f45524332305065726d69743a206578706972656420646561646c696e65000000604482015260640161057b565b60007f0000000000000000000000000000000000000000000000000000000000000000888888610a3b8c6114b0565b6040805160208101969096526001600160a01b0394851690860152929091166060840152608083015260a082015260c0810186905260e0016040516020818303038152906040528051906020012090506000610a968261141f565b90506000610aa682878787611488565b9050896001600160a01b0316816001600160a01b031614610b095760405162461bcd60e51b815260206004820152601e60248201527f45524332305065726d69743a20696e76616c6964207369676e61747572650000604482015260640161057b565b610b148a8a8a610dab565b50505050505050505050565b60408051808201909152600080825260208201526001600160a01b0383166000908152600760205260409020805463ffffffff8416908110610b6457610b64611d4e565b60009182526020918290206040805180820190915291015463ffffffff8116825264010000000090046001600160e01b0316918101919091529392505050565b6001600160a01b038216610bfa5760405162461bcd60e51b815260206004820152601f60248201527f45524332303a206d696e7420746f20746865207a65726f206164647265737300604482015260640161057b565b8060026000828254610c0c9190611d1f565b90915550506001600160a01b03821660009081526020819052604081208054839290610c39908490611d1f565b90915550506040518181526001600160a01b038316906000907fddf252ad1be2c89b69c2b068fc378daa952ba7f163c4a11628f55a4df523b3ef9060200160405180910390a3610c8b600083836114d8565b5050565b600061065a8284611d1f565b60006001600160e01b03821115610d1a5760405162461bcd60e51b815260206004820152602760248201527f53616665436173743a2076616c756520646f65736e27742066697420696e203260448201527f3234206269747300000000000000000000000000000000000000000000000000606482015260840161057b565b5090565b600063ffffffff821115610d1a5760405162461bcd60e51b815260206004820152602660248201527f53616665436173743a2076616c756520646f65736e27742066697420696e203360448201527f3220626974730000000000000000000000000000000000000000000000000000606482015260840161057b565b505050565b600061065a8284611d37565b6001600160a01b038316610e265760405162461bcd60e51b8152602060048201526024808201527f45524332303a20617070726f76652066726f6d20746865207a65726f2061646460448201527f7265737300000000000000000000000000000000000000000000000000000000606482015260840161057b565b6001600160a01b038216610ea25760405162461bcd60e51b815260206004820152602260248201527f45524332303a20617070726f766520746f20746865207a65726f20616464726560448201527f7373000000000000000000000000000000000000000000000000000000000000606482015260840161057b565b6001600160a01b0383811660008181526001602090815260408083209487168084529482529182902085905590518481527f8c5be1e5ebec7d5bd14f71427d1e84f3dd0314c0f7b2291e5b200ac8c7c3b925910160405180910390a3505050565b6001600160a01b038316610f7f5760405162461bcd60e51b815260206004820152602560248201527f45524332303a207472616e736665722066726f6d20746865207a65726f20616460448201527f6472657373000000000000000000000000000000000000000000000000000000606482015260840161057b565b6001600160a01b038216610ffb5760405162461bcd60e51b815260206004820152602360248201527f45524332303a207472616e7366657220746f20746865207a65726f206164647260448201527f6573730000000000000000000000000000000000000000000000000000000000606482015260840161057b565b6001600160a01b0383166000908152602081905260409020548181101561108a5760405162461bcd60e51b815260206004820152602660248201527f45524332303a207472616e7366657220616d6f756e742065786365656473206260448201527f616c616e63650000000000000000000000000000000000000000000000000000606482015260840161057b565b6001600160a01b038085166000908152602081905260408082208585039055918516815290812080548492906110c1908490611d1f565b92505081905550826001600160a01b0316846001600160a01b03167fddf252ad1be2c89b69c2b068fc378daa952ba7f163c4a11628f55a4df523b3ef8460405161110d91815260200190565b60405180910390a36111208484846114d8565b50505050565b6000306001600160a01b037f00000000000000000000000000000000000000000000000000000000000000001614801561117f57507f000000000000000000000000000000000000000000000000000000000000000046145b156111a957507f000000000000000000000000000000000000000000000000000000000000000090565b50604080517f00000000000000000000000000000000000000000000000000000000000000006020808301919091527f0000000000000000000000000000000000000000000000000000000000000000828401527f000000000000000000000000000000000000000000000000000000000000000060608301524660808301523060a0808401919091528351808403909101815260c0909201909252805191012090565b8154600090815b818110156112b1576000611268828461150a565b90508486828154811061127d5761127d611d4e565b60009182526020909120015463ffffffff16111561129d578092506112ab565b6112a8816001611d1f565b91505b50611254565b81156112f557846112c3600184611d37565b815481106112d3576112d3611d4e565b60009182526020909120015464010000000090046001600160e01b03166112f8565b60005b6001600160e01b031695945050505050565b6001600160a01b038281166000818152600660208181526040808420805485845282862054949093528787167fffffffffffffffffffffffff00000000000000000000000000000000000000008416811790915590519190951694919391928592917f3134e8a2e6d97e929a7e54011ea5485d7d196dd5f0ba4d4ef95803e8e3fc257f9190a4611120828483611525565b60006bffffffffffffffffffffffff821115610d1a5760405162461bcd60e51b815260206004820152602660248201527f53616665436173743a2076616c756520646f65736e27742066697420696e203960448201527f3620626974730000000000000000000000000000000000000000000000000000606482015260840161057b565b600061069061142c611126565b836040517f19010000000000000000000000000000000000000000000000000000000000006020820152602281018390526042810182905260009060620160405160208183030381529060405280519060200120905092915050565b600080600061149987878787611662565b915091506114a68161174f565b5095945050505050565b6001600160a01b03811660009081526005602052604090208054600181018255905b50919050565b6001600160a01b03838116600090815260066020526040808220548584168352912054610d9a92918216911683611525565b60006115196002848418611d64565b61065a90848416611d1f565b816001600160a01b0316836001600160a01b0316141580156115475750600081115b15610d9a576001600160a01b038316156115d5576001600160a01b0383166000908152600760205260408120819061158290610d9f8561190a565b91509150846001600160a01b03167fdec2bacdd2f05b59de34da9b523dff8be42e5e38e818c82fdb0bae774387a72483836040516115ca929190918252602082015260400190565b60405180910390a250505b6001600160a01b03821615610d9a576001600160a01b0382166000908152600760205260408120819061160b90610c8f8561190a565b91509150836001600160a01b03167fdec2bacdd2f05b59de34da9b523dff8be42e5e38e818c82fdb0bae774387a7248383604051611653929190918252602082015260400190565b60405180910390a25050505050565b6000807f7fffffffffffffffffffffffffffffff5d576e7357a4501ddfe92f46681b20a08311156116995750600090506003611746565b8460ff16601b141580156116b157508460ff16601c14155b156116c25750600090506004611746565b6040805160008082526020820180845289905260ff881692820192909252606081018690526080810185905260019060a0016020604051602081039080840390855afa158015611716573d6000803e3d6000fd5b5050604051601f1901519150506001600160a01b03811661173f57600060019250925050611746565b9150600090505b94509492505050565b600081600481111561176357611763611d86565b141561176c5750565b600181600481111561178057611780611d86565b14156117ce5760405162461bcd60e51b815260206004820152601860248201527f45434453413a20696e76616c6964207369676e61747572650000000000000000604482015260640161057b565b60028160048111156117e2576117e2611d86565b14156118305760405162461bcd60e51b815260206004820152601f60248201527f45434453413a20696e76616c6964207369676e6174757265206c656e67746800604482015260640161057b565b600381600481111561184457611844611d86565b141561189d5760405162461bcd60e51b815260206004820152602260248201527f45434453413a20696e76616c6964207369676e6174757265202773272076616c604482015261756560f01b606482015260840161057b565b60048160048111156118b1576118b1611d86565b141561066b5760405162461bcd60e51b815260206004820152602260248201527f45434453413a20696e76616c6964207369676e6174757265202776272076616c604482015261756560f01b606482015260840161057b565b8254600090819080156119555785611923600183611d37565b8154811061193357611933611d4e565b60009182526020909120015464010000000090046001600160e01b0316611958565b60005b6001600160e01b0316925061197183858763ffffffff16565b91506000811180156119af5750438661198b600184611d37565b8154811061199b5761199b611d4e565b60009182526020909120015463ffffffff16145b15611a0f576119bd82610c9b565b866119c9600184611d37565b815481106119d9576119d9611d4e565b9060005260206000200160000160046101000a8154816001600160e01b0302191690836001600160e01b03160217905550611a7a565b856040518060400160405280611a2443610d1e565b63ffffffff168152602001611a3885610c9b565b6001600160e01b0390811690915282546001810184556000938452602093849020835194909301519091166401000000000263ffffffff909316929092179101555b50935093915050565b600060208083528351808285015260005b81811015611ab057858101830151858201604001528201611a94565b81811115611ac2576000604083870101525b50601f01601f1916929092016040019392505050565b80356001600160a01b0381168114611aef57600080fd5b919050565b60008060408385031215611b0757600080fd5b611b1083611ad8565b946020939093013593505050565b600080600060608486031215611b3357600080fd5b611b3c84611ad8565b9250611b4a60208501611ad8565b9150604084013590509250925092565b600060208284031215611b6c57600080fd5b61065a82611ad8565b600060208284031215611b8757600080fd5b5035919050565b803560ff81168114611aef57600080fd5b60008060008060008060c08789031215611bb857600080fd5b611bc187611ad8565b95506020870135945060408701359350611bdd60608801611b8e565b92506080870135915060a087013590509295509295509295565b600080600080600080600060e0888a031215611c1257600080fd5b611c1b88611ad8565b9650611c2960208901611ad8565b95506040880135945060608801359350611c4560808901611b8e565b925060a0880135915060c0880135905092959891949750929550565b60008060408385031215611c7457600080fd5b611c7d83611ad8565b9150611c8b60208401611ad8565b90509250929050565b60008060408385031215611ca757600080fd5b611cb083611ad8565b9150602083013563ffffffff81168114611cc957600080fd5b809150509250929050565b600181811c90821680611ce857607f821691505b602082108114156114d257634e487b7160e01b600052602260045260246000fd5b634e487b7160e01b600052601160045260246000fd5b60008219821115611d3257611d32611d09565b500190565b600082821015611d4957611d49611d09565b500390565b634e487b7160e01b600052603260045260246000fd5b600082611d8157634e487b7160e01b600052601260045260246000fd5b500490565b634e487b7160e01b600052602160045260246000fdfea2646970667358221220e3ece34856bb82d1192f648a4e8719f3806bc896825037d1ecf01b45020a422864736f6c63430008090033dec2bacdd2f05b59de34da9b523dff8be42e5e38e818c82fdb0bae774387a724"
  }
}