{"compiler":"v0.8.0+commit.c7dfd78e","opcodeHash":"0x88b0b973e35484ab169e055e96a5c05333598e014839861528ea23f82fcba106","metalessHash":"0x3742fbf780b10ec80ac98bfc2660f1d96e75fe2aa018e40368cbd5dbfeb7859e","runtimeHash":"0xb12dd82a642aa12e50eccaa2a8705237fad754bdb3315b5af9287d512456cbc4","encodedMetadata":[{"ipfs":"/ipfs/QmZypX6S2DdTW4AbipkyYdoLhxJHKUQu1SnYMRxcsxb48S","solc":"0.8.0"}],"abi":[{"inputs":[],"stateMutability":"nonpayable","type":"constructor"},{"anonymous":false,"inputs":[{"indexed":true,"internalType":"address","name":"owner","type":"address"},{"indexed":true,"internalType":"address","name":"approved","type":"address"},{"indexed":true,"internalType":"uint256","name":"tokenId","type":"uint256"}],"name":"Approval","type":"event"},{"anonymous":false,"inputs":[{"indexed":true,"internalType":"address","name":"owner","type":"address"},{"indexed":true,"internalType":"address","name":"operator","type":"address"},{"indexed":false,"internalType":"bool","name":"approved","type":"bool"}],"name":"ApprovalForAll","type":"event"},{"anonymous":false,"inputs":[{"indexed":true,"internalType":"address","name":"previousOwner","type":"address"},{"indexed":true,"internalType":"address","name":"newOwner","type":"address"}],"name":"OwnershipTransferred","type":"event"},{"anonymous":false,"inputs":[{"indexed":true,"internalType":"address","name":"from","type":"address"},{"indexed":true,"internalType":"address","name":"to","type":"address"},{"indexed":true,"internalType":"uint256","name":"tokenId","type":"uint256"}],"name":"Transfer","type":"event"},{"inputs":[],"name":"MAX_NFT_PURCHASE","outputs":[{"internalType":"uint256","name":"","type":"uint256"}],"stateMutability":"view","type":"function"},{"inputs":[],"name":"MAX_SUPPLY","outputs":[{"internalType":"uint256","name":"","type":"uint256"}],"stateMutability":"view","type":"function"},{"inputs":[],"name":"NFT_PRICE","outputs":[{"internalType":"uint256","name":"","type":"uint256"}],"stateMutability":"view","type":"function"},{"inputs":[{"internalType":"address","name":"to","type":"address"},{"internalType":"uint256","name":"tokenId","type":"uint256"}],"name":"approve","outputs":[],"stateMutability":"nonpayable","type":"function"},{"inputs":[{"internalType":"address","name":"owner","type":"address"}],"name":"balanceOf","outputs":[{"internalType":"uint256","name":"","type":"uint256"}],"stateMutability":"view","type":"function"},{"inputs":[],"name":"calcStartingIndex","outputs":[],"stateMutability":"nonpayable","type":"function"},{"inputs":[],"name":"emergencySetStartingIndexBlock","outputs":[],"stateMutability":"nonpayable","type":"function"},{"inputs":[],"name":"flipSaleState","outputs":[],"stateMutability":"nonpayable","type":"function"},{"inputs":[{"internalType":"uint256","name":"tokenId","type":"uint256"}],"name":"getApproved","outputs":[{"internalType":"address","name":"","type":"address"}],"stateMutability":"view","type":"function"},{"inputs":[{"internalType":"uint256","name":"quantity","type":"uint256"}],"name":"getPrice","outputs":[{"internalType":"uint256","name":"","type":"uint256"}],"stateMutability":"view","type":"function"},{"inputs":[{"internalType":"address","name":"owner","type":"address"},{"internalType":"address","name":"operator","type":"address"}],"name":"isApprovedForAll","outputs":[{"internalType":"bool","name":"","type":"bool"}],"stateMutability":"view","type":"function"},{"inputs":[{"internalType":"uint256","name":"numberOfTokensMax20","type":"uint256"}],"name":"mint","outputs":[],"stateMutability":"payable","type":"function"},{"inputs":[],"name":"name","outputs":[{"internalType":"string","name":"","type":"string"}],"stateMutability":"view","type":"function"},{"inputs":[],"name":"owner","outputs":[{"internalType":"address","name":"","type":"address"}],"stateMutability":"view","type":"function"},{"inputs":[{"internalType":"uint256","name":"tokenId","type":"uint256"}],"name":"ownerOf","outputs":[{"internalType":"address","name":"","type":"address"}],"stateMutability":"view","type":"function"},{"inputs":[],"name":"renounceOwnership","outputs":[],"stateMutability":"nonpayable","type":"function"},{"inputs":[{"internalType":"uint256","name":"num","type":"uint256"}],"name":"reserveTokens","outputs":[],"stateMutability":"nonpayable","type":"function"},{"inputs":[{"internalType":"address","name":"from","type":"address"},{"internalType":"address","name":"to","type":"address"},{"internalType":"uint256","name":"tokenId","type":"uint256"}],"name":"safeTransferFrom","outputs":[],"stateMutability":"nonpayable","type":"function"},{"inputs":[{"internalType":"address","name":"from","type":"address"},{"internalType":"address","name":"to","type":"address"},{"internalType":"uint256","name":"tokenId","type":"uint256"},{"internalType":"bytes","name":"_data","type":"bytes"}],"name":"safeTransferFrom","outputs":[],"stateMutability":"nonpayable","type":"function"},{"inputs":[],"name":"saleIsActive","outputs":[{"internalType":"bool","name":"","type":"bool"}],"stateMutability":"view","type":"function"},{"inputs":[{"internalType":"address","name":"operator","type":"address"},{"internalType":"bool","name":"approved","type":"bool"}],"name":"setApprovalForAll","outputs":[],"stateMutability":"nonpayable","type":"function"},{"inputs":[{"internalType":"string","name":"baseURI_","type":"string"}],"name":"setBaseURI","outputs":[],"stateMutability":"nonpayable","type":"function"},{"inputs":[],"name":"startingIndex","outputs":[{"internalType":"uint256","name":"","type":"uint256"}],"stateMutability":"view","type":"function"},{"inputs":[],"name":"startingIndexBlock","outputs":[{"internalType":"uint256","name":"","type":"uint256"}],"stateMutability":"view","type":"function"},{"inputs":[{"internalType":"bytes4","name":"interfaceId","type":"bytes4"}],"name":"supportsInterface","outputs":[{"internalType":"bool","name":"","type":"bool"}],"stateMutability":"view","type":"function"},{"inputs":[],"name":"symbol","outputs":[{"internalType":"string","name":"","type":"string"}],"stateMutability":"view","type":"function"},{"inputs":[{"internalType":"uint256","name":"index","type":"uint256"}],"name":"tokenByIndex","outputs":[{"internalType":"uint256","name":"","type":"uint256"}],"stateMutability":"view","type":"function"},{"inputs":[{"internalType":"address","name":"owner","type":"address"},{"internalType":"uint256","name":"index","type":"uint256"}],"name":"tokenOfOwnerByIndex","outputs":[{"internalType":"uint256","name":"","type":"uint256"}],"stateMutability":"view","type":"function"},{"inputs":[{"internalType":"uint256","name":"tokenId","type":"uint256"}],"name":"tokenURI","outputs":[{"internalType":"string","name":"","type":"string"}],"stateMutability":"view","type":"function"},{"inputs":[],"name":"totalSupply","outputs":[{"internalType":"uint256","name":"","type":"uint256"}],"stateMutability":"view","type":"function"},{"inputs":[{"internalType":"address","name":"from","type":"address"},{"internalType":"address","name":"to","type":"address"},{"internalType":"uint256","name":"tokenId","type":"uint256"}],"name":"transferFrom","outputs":[],"stateMutability":"nonpayable","type":"function"},{"inputs":[{"internalType":"address","name":"newOwner","type":"address"}],"name":"transferOwnership","outputs":[],"stateMutability":"nonpayable","type":"function"},{"inputs":[],"name":"withdraw","outputs":[],"stateMutability":"nonpayable","type":"function"}],"bytecode":{"object":"60806040526111d0600b556000600c60006101000a81548160ff0219169083151502179055503480156200003257600080fd5b506040518060400160405280600881526020017f535155494452554e0000000000000000000000000000000000000000000000008152506040518060400160405280600881526020017f535155494452554e0000000000000000000000000000000000000000000000008152508160009080519060200190620000b792919062000192565b508060019080519060200190620000d092919062000192565b5050506000620000e56200018a60201b60201c565b905080600a60006101000a81548173ffffffffffffffffffffffffffffffffffffffff021916908373ffffffffffffffffffffffffffffffffffffffff1602179055508073ffffffffffffffffffffffffffffffffffffffff16600073ffffffffffffffffffffffffffffffffffffffff167f8be0079c531659141344cd1fd0a4f28419497f9722a3daafe3b4186f6b6457e060405160405180910390a350620002a7565b600033905090565b828054620001a09062000242565b90600052602060002090601f016020900481019282620001c4576000855562000210565b82601f10620001df57805160ff191683800117855562000210565b8280016001018555821562000210579182015b828111156200020f578251825591602001919060010190620001f2565b5b5090506200021f919062000223565b5090565b5b808211156200023e57600081600090555060010162000224565b5090565b600060028204905060018216806200025b57607f821691505b6020821081141562000272576200027162000278565b5b50919050565b7f4e487b7100000000000000000000000000000000000000000000000000000000600052602260045260246000fd5b61448f80620002b76000396000f3fe6080604052600436106101ee5760003560e01c806370a082311161010d578063c87b56dd116100a0578063e36d64981161006f578063e36d6498146106a4578063e7572230146106cf578063e985e9c51461070c578063eb8d244414610749578063f2fde38b14610774576101ee565b8063c87b56dd146105fc578063cb774d4714610639578063d031370b14610664578063e13f351a1461068d576101ee565b806395d89b41116100dc57806395d89b4114610563578063a0712d681461058e578063a22cb465146105aa578063b88d4fde146105d3576101ee565b806370a08231146104cd578063715018a61461050a5780637d17fcbe146105215780638da5cb5b14610538576101ee565b806332cb6b0c116101855780634f6ccce7116101545780634f6ccce7146103ff57806355f804b31461043c5780636352211e14610465578063676dd563146104a2576101ee565b806332cb6b0c1461037d57806334918dfd146103a85780633ccfd60b146103bf57806342842e0e146103d6576101ee565b8063095ea7b3116101c1578063095ea7b3146102c357806318160ddd146102ec57806323b872dd146103175780632f745c5914610340576101ee565b806301ffc9a7146101f3578063020b39cc1461023057806306fdde031461025b578063081812fc14610286575b600080fd5b3480156101ff57600080fd5b5061021a6004803603810190610215919061310a565b61079d565b6040516102279190613c4d565b60405180910390f35b34801561023c57600080fd5b50610245610817565b6040516102529190613fca565b60405180910390f35b34801561026757600080fd5b5061027061081c565b60405161027d9190613c68565b60405180910390f35b34801561029257600080fd5b506102ad60048036038101906102a8919061319d565b6108ae565b6040516102ba9190613be6565b60405180910390f35b3480156102cf57600080fd5b506102ea60048036038101906102e591906130ce565b610933565b005b3480156102f857600080fd5b50610301610a4b565b60405161030e9190613fca565b60405180910390f35b34801561032357600080fd5b5061033e60048036038101906103399190612fc8565b610a58565b005b34801561034c57600080fd5b50610367600480360381019061036291906130ce565b610ab8565b6040516103749190613fca565b60405180910390f35b34801561038957600080fd5b50610392610b5d565b60405161039f9190613fca565b60405180910390f35b3480156103b457600080fd5b506103bd610b63565b005b3480156103cb57600080fd5b506103d4610c0b565b005b3480156103e257600080fd5b506103fd60048036038101906103f89190612fc8565b610cd6565b005b34801561040b57600080fd5b506104266004803603810190610421919061319d565b610cf6565b6040516104339190613fca565b60405180910390f35b34801561044857600080fd5b50610463600480360381019061045e919061315c565b610d8d565b005b34801561047157600080fd5b5061048c6004803603810190610487919061319d565b610e23565b6040516104999190613be6565b60405180910390f35b3480156104ae57600080fd5b506104b7610ed5565b6040516104c49190613fca565b60405180910390f35b3480156104d957600080fd5b506104f460048036038101906104ef9190612f63565b610ee0565b6040516105019190613fca565b60405180910390f35b34801561051657600080fd5b5061051f610f98565b005b34801561052d57600080fd5b506105366110d5565b005b34801561054457600080fd5b5061054d61119f565b60405161055a9190613be6565b60405180910390f35b34801561056f57600080fd5b506105786111c9565b6040516105859190613c68565b60405180910390f35b6105a860048036038101906105a3919061319d565b61125b565b005b3480156105b657600080fd5b506105d160048036038101906105cc9190613092565b611413565b005b3480156105df57600080fd5b506105fa60048036038101906105f59190613017565b611594565b005b34801561060857600080fd5b50610623600480360381019061061e919061319d565b6115f6565b6040516106309190613c68565b60405180910390f35b34801561064557600080fd5b5061064e611769565b60405161065b9190613fca565b60405180910390f35b34801561067057600080fd5b5061068b6004803603810190610686919061319d565b61176f565b005b34801561069957600080fd5b506106a2611842565b005b3480156106b057600080fd5b506106b96119cf565b6040516106c69190613fca565b60405180910390f35b3480156106db57600080fd5b506106f660048036038101906106f1919061319d565b6119d5565b6040516107039190613fca565b60405180910390f35b34801561071857600080fd5b50610733600480360381019061072e9190612f8c565b611a07565b6040516107409190613c4d565b60405180910390f35b34801561075557600080fd5b5061075e611a9b565b60405161076b9190613c4d565b60405180910390f35b34801561078057600080fd5b5061079b60048036038101906107969190612f63565b611aae565b005b60007f780e9d63000000000000000000000000000000000000000000000000000000007bffffffffffffffffffffffffffffffffffffffffffffffffffffffff1916827bffffffffffffffffffffffffffffffffffffffffffffffffffffffff19161480610810575061080f82611c5a565b5b9050919050565b601481565b60606000805461082b90614284565b80601f016020809104026020016040519081016040528092919081815260200182805461085790614284565b80156108a45780601f10610879576101008083540402835291602001916108a4565b820191906000526020600020905b81548152906001019060200180831161088757829003601f168201915b5050505050905090565b60006108b982611d3c565b6108f8576040517f08c379a00000000000000000000000000000000000000000000000000000000081526004016108ef90613e8a565b60405180910390fd5b6004600083815260200190815260200160002060009054906101000a900473ffffffffffffffffffffffffffffffffffffffff169050919050565b600061093e82610e23565b90508073ffffffffffffffffffffffffffffffffffffffff168373ffffffffffffffffffffffffffffffffffffffff1614156109af576040517f08c379a00000000000000000000000000000000000000000000000000000000081526004016109a690613f2a565b60405180910390fd5b8073ffffffffffffffffffffffffffffffffffffffff166109ce611da8565b73ffffffffffffffffffffffffffffffffffffffff1614806109fd57506109fc816109f7611da8565b611a07565b5b610a3c576040517f08c379a0000000000000000000000000000000000000000000000000000000008152600401610a3390613dea565b60405180910390fd5b610a468383611db0565b505050565b6000600880549050905090565b610a69610a63611da8565b82611e69565b610aa8576040517f08c379a0000000000000000000000000000000000000000000000000000000008152600401610a9f90613f4a565b60405180910390fd5b610ab3838383611f47565b505050565b6000610ac383610ee0565b8210610b04576040517f08c379a0000000000000000000000000000000000000000000000000000000008152600401610afb90613cca565b60405180910390fd5b600660008473ffffffffffffffffffffffffffffffffffffffff1673ffffffffffffffffffffffffffffffffffffffff168152602001908152602001600020600083815260200190815260200160002054905092915050565b600b5481565b610b6b611da8565b73ffffffffffffffffffffffffffffffffffffffff16610b8961119f565b73ffffffffffffffffffffffffffffffffffffffff1614610bdf576040517f08c379a0000000000000000000000000000000000000000000000000000000008152600401610bd690613eaa565b60405180910390fd5b600c60009054906101000a900460ff1615600c60006101000a81548160ff021916908315150217905550565b610c13611da8565b73ffffffffffffffffffffffffffffffffffffffff16610c3161119f565b73ffffffffffffffffffffffffffffffffffffffff1614610c87576040517f08c379a0000000000000000000000000000000000000000000000000000000008152600401610c7e90613eaa565b60405180910390fd5b60004790503373ffffffffffffffffffffffffffffffffffffffff166108fc829081150290604051600060405180830381858888f19350505050158015610cd2573d6000803e3d6000fd5b5050565b610cf183838360405180602001604052806000815250611594565b505050565b6000610d00610a4b565b8210610d41576040517f08c379a0000000000000000000000000000000000000000000000000000000008152600401610d3890613f6a565b60405180910390fd5b60088281548110610d7b577f4e487b7100000000000000000000000000000000000000000000000000000000600052603260045260246000fd5b90600052602060002001549050919050565b610d95611da8565b73ffffffffffffffffffffffffffffffffffffffff16610db361119f565b73ffffffffffffffffffffffffffffffffffffffff1614610e09576040517f08c379a0000000000000000000000000000000000000000000000000000000008152600401610e0090613eaa565b60405180910390fd5b80600f9080519060200190610e1f929190612d87565b5050565b6000806002600084815260200190815260200160002060009054906101000a900473ffffffffffffffffffffffffffffffffffffffff169050600073ffffffffffffffffffffffffffffffffffffffff168173ffffffffffffffffffffffffffffffffffffffff161415610ecc576040517f08c379a0000000000000000000000000000000000000000000000000000000008152600401610ec390613e2a565b60405180910390fd5b80915050919050565b666a94d74f43000081565b60008073ffffffffffffffffffffffffffffffffffffffff168273ffffffffffffffffffffffffffffffffffffffff161415610f51576040517f08c379a0000000000000000000000000000000000000000000000000000000008152600401610f4890613e0a565b60405180910390fd5b600360008373ffffffffffffffffffffffffffffffffffffffff1673ffffffffffffffffffffffffffffffffffffffff168152602001908152602001600020549050919050565b610fa0611da8565b73ffffffffffffffffffffffffffffffffffffffff16610fbe61119f565b73ffffffffffffffffffffffffffffffffffffffff1614611014576040517f08c379a000000000000000000000000000000000000000000000000000000000815260040161100b90613eaa565b60405180910390fd5b600073ffffffffffffffffffffffffffffffffffffffff16600a60009054906101000a900473ffffffffffffffffffffffffffffffffffffffff1673ffffffffffffffffffffffffffffffffffffffff167f8be0079c531659141344cd1fd0a4f28419497f9722a3daafe3b4186f6b6457e060405160405180910390a36000600a60006101000a81548173ffffffffffffffffffffffffffffffffffffffff021916908373ffffffffffffffffffffffffffffffffffffffff160217905550565b6110dd611da8565b73ffffffffffffffffffffffffffffffffffffffff166110fb61119f565b73ffffffffffffffffffffffffffffffffffffffff1614611151576040517f08c379a000000000000000000000000000000000000000000000000000000000815260040161114890613eaa565b60405180910390fd5b6000600d5414611196576040517f08c379a000000000000000000000000000000000000000000000000000000000815260040161118d90613daa565b60405180910390fd5b43600e81905550565b6000600a60009054906101000a900473ffffffffffffffffffffffffffffffffffffffff16905090565b6060600180546111d890614284565b80601f016020809104026020016040519081016040528092919081815260200182805461120490614284565b80156112515780601f1061122657610100808354040283529160200191611251565b820191906000526020600020905b81548152906001019060200180831161123457829003601f168201915b5050505050905090565b600c60009054906101000a900460ff166112aa576040517f08c379a00000000000000000000000000000000000000000000000000000000081526004016112a190613faa565b60405180910390fd5b600081116112ed576040517f08c379a00000000000000000000000000000000000000000000000000000000081526004016112e490613caa565b60405180910390fd5b600b5461130a826112fc610a4b565b6121a590919063ffffffff16565b111561134b576040517f08c379a000000000000000000000000000000000000000000000000000000000815260040161134290613e4a565b60405180910390fd5b601481111561138f576040517f08c379a000000000000000000000000000000000000000000000000000000000815260040161138690613dca565b60405180910390fd5b600061139a826119d5565b9050803410156113df576040517f08c379a00000000000000000000000000000000000000000000000000000000081526004016113d690613f0a565b60405180910390fd5b60005b8281101561140e576113fb336113f6610a4b565b6121bb565b8080611406906142b6565b9150506113e2565b505050565b61141b611da8565b73ffffffffffffffffffffffffffffffffffffffff168273ffffffffffffffffffffffffffffffffffffffff161415611489576040517f08c379a000000000000000000000000000000000000000000000000000000000815260040161148090613d6a565b60405180910390fd5b8060056000611496611da8565b73ffffffffffffffffffffffffffffffffffffffff1673ffffffffffffffffffffffffffffffffffffffff16815260200190815260200160002060008473ffffffffffffffffffffffffffffffffffffffff1673ffffffffffffffffffffffffffffffffffffffff16815260200190815260200160002060006101000a81548160ff0219169083151502179055508173ffffffffffffffffffffffffffffffffffffffff16611543611da8565b73ffffffffffffffffffffffffffffffffffffffff167f17307eab39ab6107e8899845ad3d59bd9653f200f220920489ca2b5937696c31836040516115889190613c4d565b60405180910390a35050565b6115a561159f611da8565b83611e69565b6115e4576040517f08c379a00000000000000000000000000000000000000000000000000000000081526004016115db90613f4a565b60405180910390fd5b6115f0848484846121d9565b50505050565b606061160182611d3c565b611640576040517f08c379a000000000000000000000000000000000000000000000000000000000815260040161163790613eea565b60405180910390fd5b600060106000848152602001908152602001600020805461166090614284565b80601f016020809104026020016040519081016040528092919081815260200182805461168c90614284565b80156116d95780601f106116ae576101008083540402835291602001916116d9565b820191906000526020600020905b8154815290600101906020018083116116bc57829003601f168201915b5050505050905060006116ea612235565b9050600081511415611700578192505050611764565b60008251111561173557808260405160200161171d929190613bc2565b60405160208183030381529060405292505050611764565b8061173f856122c7565b604051602001611750929190613bc2565b604051602081830303815290604052925050505b919050565b600d5481565b611777611da8565b73ffffffffffffffffffffffffffffffffffffffff1661179561119f565b73ffffffffffffffffffffffffffffffffffffffff16146117eb576040517f08c379a00000000000000000000000000000000000000000000000000000000081526004016117e290613eaa565b60405180910390fd5b60006117f5610a4b565b905060005b8281101561182a5761181733828461181291906140b9565b6121bb565b8080611822906142b6565b9150506117fa565b6000600e54141561183d5743600e819055505b505050565b61184a611da8565b73ffffffffffffffffffffffffffffffffffffffff1661186861119f565b73ffffffffffffffffffffffffffffffffffffffff16146118be576040517f08c379a00000000000000000000000000000000000000000000000000000000081526004016118b590613eaa565b60405180910390fd5b6000600d5414611903576040517f08c379a00000000000000000000000000000000000000000000000000000000081526004016118fa90613f8a565b60405180910390fd5b6000600e541415611949576040517f08c379a000000000000000000000000000000000000000000000000000000000815260040161194090613c8a565b60405180910390fd5b600b54600e544060001c61195d91906142ff565b600d8190555060ff61197a600e544361247490919063ffffffff16565b11156119a557600b54600143611990919061419a565b4060001c61199e91906142ff565b600d819055505b6000600d5414156119cd576119c66001600d546121a590919063ffffffff16565b600d819055505b565b600e5481565b6000600b548211156119e657600080fd5b611a00666a94d74f4300008361248a90919063ffffffff16565b9050919050565b6000600560008473ffffffffffffffffffffffffffffffffffffffff1673ffffffffffffffffffffffffffffffffffffffff16815260200190815260200160002060008373ffffffffffffffffffffffffffffffffffffffff1673ffffffffffffffffffffffffffffffffffffffff16815260200190815260200160002060009054906101000a900460ff16905092915050565b600c60009054906101000a900460ff1681565b611ab6611da8565b73ffffffffffffffffffffffffffffffffffffffff16611ad461119f565b73ffffffffffffffffffffffffffffffffffffffff1614611b2a576040517f08c379a0000000000000000000000000000000000000000000000000000000008152600401611b2190613eaa565b60405180910390fd5b600073ffffffffffffffffffffffffffffffffffffffff168173ffffffffffffffffffffffffffffffffffffffff161415611b9a576040517f08c379a0000000000000000000000000000000000000000000000000000000008152600401611b9190613d0a565b60405180910390fd5b8073ffffffffffffffffffffffffffffffffffffffff16600a60009054906101000a900473ffffffffffffffffffffffffffffffffffffffff1673ffffffffffffffffffffffffffffffffffffffff167f8be0079c531659141344cd1fd0a4f28419497f9722a3daafe3b4186f6b6457e060405160405180910390a380600a60006101000a81548173ffffffffffffffffffffffffffffffffffffffff021916908373ffffffffffffffffffffffffffffffffffffffff16021790555050565b60007f80ac58cd000000000000000000000000000000000000000000000000000000007bffffffffffffffffffffffffffffffffffffffffffffffffffffffff1916827bffffffffffffffffffffffffffffffffffffffffffffffffffffffff19161480611d2557507f5b5e139f000000000000000000000000000000000000000000000000000000007bffffffffffffffffffffffffffffffffffffffffffffffffffffffff1916827bffffffffffffffffffffffffffffffffffffffffffffffffffffffff1916145b80611d355750611d34826124a0565b5b9050919050565b60008073ffffffffffffffffffffffffffffffffffffffff166002600084815260200190815260200160002060009054906101000a900473ffffffffffffffffffffffffffffffffffffffff1673ffffffffffffffffffffffffffffffffffffffff1614159050919050565b600033905090565b816004600083815260200190815260200160002060006101000a81548173ffffffffffffffffffffffffffffffffffffffff021916908373ffffffffffffffffffffffffffffffffffffffff160217905550808273ffffffffffffffffffffffffffffffffffffffff16611e2383610e23565b73ffffffffffffffffffffffffffffffffffffffff167f8c5be1e5ebec7d5bd14f71427d1e84f3dd0314c0f7b2291e5b200ac8c7c3b92560405160405180910390a45050565b6000611e7482611d3c565b611eb3576040517f08c379a0000000000000000000000000000000000000000000000000000000008152600401611eaa90613d8a565b60405180910390fd5b6000611ebe83610e23565b90508073ffffffffffffffffffffffffffffffffffffffff168473ffffffffffffffffffffffffffffffffffffffff161480611f2d57508373ffffffffffffffffffffffffffffffffffffffff16611f15846108ae565b73ffffffffffffffffffffffffffffffffffffffff16145b80611f3e5750611f3d8185611a07565b5b91505092915050565b8273ffffffffffffffffffffffffffffffffffffffff16611f6782610e23565b73ffffffffffffffffffffffffffffffffffffffff1614611fbd576040517f08c379a0000000000000000000000000000000000000000000000000000000008152600401611fb490613eca565b60405180910390fd5b600073ffffffffffffffffffffffffffffffffffffffff168273ffffffffffffffffffffffffffffffffffffffff16141561202d576040517f08c379a000000000000000000000000000000000000000000000000000000000815260040161202490613d4a565b60405180910390fd5b61203a838383600161250a565b612045600082611db0565b6001600360008573ffffffffffffffffffffffffffffffffffffffff1673ffffffffffffffffffffffffffffffffffffffff1681526020019081526020016000206000828254612095919061419a565b925050819055506001600360008473ffffffffffffffffffffffffffffffffffffffff1673ffffffffffffffffffffffffffffffffffffffff16815260200190815260200160002060008282546120ec91906140b9565b92505081905550816002600083815260200190815260200160002060006101000a81548173ffffffffffffffffffffffffffffffffffffffff021916908373ffffffffffffffffffffffffffffffffffffffff160217905550808273ffffffffffffffffffffffffffffffffffffffff168473ffffffffffffffffffffffffffffffffffffffff167fddf252ad1be2c89b69c2b068fc378daa952ba7f163c4a11628f55a4df523b3ef60405160405180910390a4505050565b600081836121b391906140b9565b905092915050565b6121d5828260405180602001604052806000815250612634565b5050565b6121e4848484611f47565b6121f08484848461268f565b61222f576040517f08c379a000000000000000000000000000000000000000000000000000000000815260040161222690613cea565b60405180910390fd5b50505050565b6060600f805461224490614284565b80601f016020809104026020016040519081016040528092919081815260200182805461227090614284565b80156122bd5780601f10612292576101008083540402835291602001916122bd565b820191906000526020600020905b8154815290600101906020018083116122a057829003601f168201915b5050505050905090565b6060600082141561230f576040518060400160405280600181526020017f3000000000000000000000000000000000000000000000000000000000000000815250905061246f565b600082905060005b6000821461234157808061232a906142b6565b915050600a8261233a919061410f565b9150612317565b60008167ffffffffffffffff811115612383577f4e487b7100000000000000000000000000000000000000000000000000000000600052604160045260246000fd5b6040519080825280601f01601f1916602001820160405280156123b55781602001600182028036833780820191505090505b5090505b60008514612468576001826123ce919061419a565b9150600a856123dd91906142ff565b60306123e991906140b9565b60f81b818381518110612425577f4e487b7100000000000000000000000000000000000000000000000000000000600052603260045260246000fd5b60200101907effffffffffffffffffffffffffffffffffffffffffffffffffffffffffffff1916908160001a905350600a85612461919061410f565b94506123b9565b8093505050505b919050565b60008183612482919061419a565b905092915050565b600081836124989190614140565b905092915050565b60007f01ffc9a7000000000000000000000000000000000000000000000000000000007bffffffffffffffffffffffffffffffffffffffffffffffffffffffff1916827bffffffffffffffffffffffffffffffffffffffffffffffffffffffff1916149050919050565b61251684848484612826565b600073ffffffffffffffffffffffffffffffffffffffff168473ffffffffffffffffffffffffffffffffffffffff161415612559576125548261282c565b612598565b8273ffffffffffffffffffffffffffffffffffffffff168473ffffffffffffffffffffffffffffffffffffffff1614612597576125968483612875565b5b5b600073ffffffffffffffffffffffffffffffffffffffff168373ffffffffffffffffffffffffffffffffffffffff161480156125d15750805b156125e4576125df826129e2565b61262e565b8373ffffffffffffffffffffffffffffffffffffffff168373ffffffffffffffffffffffffffffffffffffffff161415801561261d5750805b1561262d5761262c8383612b25565b5b5b50505050565b61263e8383612ba4565b61264b600084848461268f565b61268a576040517f08c379a000000000000000000000000000000000000000000000000000000000815260040161268190613cea565b60405180910390fd5b505050565b60006126b08473ffffffffffffffffffffffffffffffffffffffff16612d74565b15612819578373ffffffffffffffffffffffffffffffffffffffff1663150b7a026126d9611da8565b8786866040518563ffffffff1660e01b81526004016126fb9493929190613c01565b602060405180830381600087803b15801561271557600080fd5b505af192505050801561274657506040513d601f19601f820116820180604052508101906127439190613133565b60015b6127c9573d8060008114612776576040519150601f19603f3d011682016040523d82523d6000602084013e61277b565b606091505b506000815114156127c1576040517f08c379a00000000000000000000000000000000000000000000000000000000081526004016127b890613cea565b60405180910390fd5b805181602001fd5b63150b7a0260e01b7bffffffffffffffffffffffffffffffffffffffffffffffffffffffff1916817bffffffffffffffffffffffffffffffffffffffffffffffffffffffff19161491505061281e565b600190505b949350505050565b50505050565b6008805490506009600083815260200190815260200160002081905550600881908060018154018082558091505060019003906000526020600020016000909190919091505550565b6000600161288284610ee0565b61288c919061419a565b9050600060076000848152602001908152602001600020549050818114612971576000600660008673ffffffffffffffffffffffffffffffffffffffff1673ffffffffffffffffffffffffffffffffffffffff168152602001908152602001600020600084815260200190815260200160002054905080600660008773ffffffffffffffffffffffffffffffffffffffff1673ffffffffffffffffffffffffffffffffffffffff168152602001908152602001600020600084815260200190815260200160002081905550816007600083815260200190815260200160002081905550505b6007600084815260200190815260200160002060009055600660008573ffffffffffffffffffffffffffffffffffffffff1673ffffffffffffffffffffffffffffffffffffffff16815260200190815260200160002060008381526020019081526020016000206000905550505050565b600060016008805490506129f6919061419a565b9050600060096000848152602001908152602001600020549050600060088381548110612a4c577f4e487b7100000000000000000000000000000000000000000000000000000000600052603260045260246000fd5b906000526020600020015490508060088381548110612a94577f4e487b7100000000000000000000000000000000000000000000000000000000600052603260045260246000fd5b906000526020600020018190555081600960008381526020019081526020016000208190555060096000858152602001908152602001600020600090556008805480612b09577f4e487b7100000000000000000000000000000000000000000000000000000000600052603160045260246000fd5b6001900381819060005260206000200160009055905550505050565b6000612b3083610ee0565b905081600660008573ffffffffffffffffffffffffffffffffffffffff1673ffffffffffffffffffffffffffffffffffffffff168152602001908152602001600020600083815260200190815260200160002081905550806007600084815260200190815260200160002081905550505050565b600073ffffffffffffffffffffffffffffffffffffffff168273ffffffffffffffffffffffffffffffffffffffff161415612c14576040517f08c379a0000000000000000000000000000000000000000000000000000000008152600401612c0b90613e6a565b60405180910390fd5b612c1d81611d3c565b15612c5d576040517f08c379a0000000000000000000000000000000000000000000000000000000008152600401612c5490613d2a565b60405180910390fd5b612c6b60008383600161250a565b6001600360008473ffffffffffffffffffffffffffffffffffffffff1673ffffffffffffffffffffffffffffffffffffffff1681526020019081526020016000206000828254612cbb91906140b9565b92505081905550816002600083815260200190815260200160002060006101000a81548173ffffffffffffffffffffffffffffffffffffffff021916908373ffffffffffffffffffffffffffffffffffffffff160217905550808273ffffffffffffffffffffffffffffffffffffffff16600073ffffffffffffffffffffffffffffffffffffffff167fddf252ad1be2c89b69c2b068fc378daa952ba7f163c4a11628f55a4df523b3ef60405160405180910390a45050565b600080823b905060008111915050919050565b828054612d9390614284565b90600052602060002090601f016020900481019282612db55760008555612dfc565b82601f10612dce57805160ff1916838001178555612dfc565b82800160010185558215612dfc579182015b82811115612dfb578251825591602001919060010190612de0565b5b509050612e099190612e0d565b5090565b5b80821115612e26576000816000905550600101612e0e565b5090565b6000612e3d612e3884614016565b613fe5565b905082815260208101848484011115612e5557600080fd5b612e60848285614242565b509392505050565b6000612e7b612e7684614046565b613fe5565b905082815260208101848484011115612e9357600080fd5b612e9e848285614242565b509392505050565b600081359050612eb5816143fd565b92915050565b600081359050612eca81614414565b92915050565b600081359050612edf8161442b565b92915050565b600081519050612ef48161442b565b92915050565b600082601f830112612f0b57600080fd5b8135612f1b848260208601612e2a565b91505092915050565b600082601f830112612f3557600080fd5b8135612f45848260208601612e68565b91505092915050565b600081359050612f5d81614442565b92915050565b600060208284031215612f7557600080fd5b6000612f8384828501612ea6565b91505092915050565b60008060408385031215612f9f57600080fd5b6000612fad85828601612ea6565b9250506020612fbe85828601612ea6565b9150509250929050565b600080600060608486031215612fdd57600080fd5b6000612feb86828701612ea6565b9350506020612ffc86828701612ea6565b925050604061300d86828701612f4e565b9150509250925092565b6000806000806080858703121561302d57600080fd5b600061303b87828801612ea6565b945050602061304c87828801612ea6565b935050604061305d87828801612f4e565b925050606085013567ffffffffffffffff81111561307a57600080fd5b61308687828801612efa565b91505092959194509250565b600080604083850312156130a557600080fd5b60006130b385828601612ea6565b92505060206130c485828601612ebb565b9150509250929050565b600080604083850312156130e157600080fd5b60006130ef85828601612ea6565b925050602061310085828601612f4e565b9150509250929050565b60006020828403121561311c57600080fd5b600061312a84828501612ed0565b91505092915050565b60006020828403121561314557600080fd5b600061315384828501612ee5565b91505092915050565b60006020828403121561316e57600080fd5b600082013567ffffffffffffffff81111561318857600080fd5b61319484828501612f24565b91505092915050565b6000602082840312156131af57600080fd5b60006131bd84828501612f4e565b91505092915050565b6131cf816141ce565b82525050565b6131de816141e0565b82525050565b60006131ef82614076565b6131f9818561408c565b9350613209818560208601614251565b613212816143ec565b840191505092915050565b600061322882614081565b613232818561409d565b9350613242818560208601614251565b61324b816143ec565b840191505092915050565b600061326182614081565b61326b81856140ae565b935061327b818560208601614251565b80840191505092915050565b600061329460238361409d565b91507f5374617274696e6720696e64657820686173206e6f74206265656e207365742060008301527f79657400000000000000000000000000000000000000000000000000000000006020830152604082019050919050565b60006132fa60338361409d565b91507f4e756d626572206f6620746f6b656e732063616e206e6f74206265206c65737360008301527f207468616e206f7220657175616c20746f2030000000000000000000000000006020830152604082019050919050565b6000613360602b8361409d565b91507f455243373231456e756d657261626c653a206f776e657220696e646578206f7560008301527f74206f6620626f756e64730000000000000000000000000000000000000000006020830152604082019050919050565b60006133c660328361409d565b91507f4552433732313a207472616e7366657220746f206e6f6e20455243373231526560008301527f63656976657220696d706c656d656e74657200000000000000000000000000006020830152604082019050919050565b600061342c60268361409d565b91507f4f776e61626c653a206e6577206f776e657220697320746865207a65726f206160008301527f64647265737300000000000000000000000000000000000000000000000000006020830152604082019050919050565b6000613492601c8361409d565b91507f4552433732313a20746f6b656e20616c7265616479206d696e746564000000006000830152602082019050919050565b60006134d260248361409d565b91507f4552433732313a207472616e7366657220746f20746865207a65726f2061646460008301527f72657373000000000000000000000000000000000000000000000000000000006020830152604082019050919050565b600061353860198361409d565b91507f4552433732313a20617070726f766520746f2063616c6c6572000000000000006000830152602082019050919050565b6000613578602c8361409d565b91507f4552433732313a206f70657261746f7220717565727920666f72206e6f6e657860008301527f697374656e7420746f6b656e00000000000000000000000000000000000000006020830152604082019050919050565b60006135de601d8361409d565b91507f5374617274696e6720696e64657820697320616c7265616479207365740000006000830152602082019050919050565b600061361e60238361409d565b91507f43616e206f6e6c79206d696e7420757020746f2032302070657220707572636860008301527f61736500000000000000000000000000000000000000000000000000000000006020830152604082019050919050565b600061368460388361409d565b91507f4552433732313a20617070726f76652063616c6c6572206973206e6f74206f7760008301527f6e6572206e6f7220617070726f76656420666f7220616c6c00000000000000006020830152604082019050919050565b60006136ea602a8361409d565b91507f4552433732313a2062616c616e636520717565727920666f7220746865207a6560008301527f726f2061646472657373000000000000000000000000000000000000000000006020830152604082019050919050565b600061375060298361409d565b91507f4552433732313a206f776e657220717565727920666f72206e6f6e657869737460008301527f656e7420746f6b656e00000000000000000000000000000000000000000000006020830152604082019050919050565b60006137b660208361409d565b91507f507572636861736520776f756c6420657863656564206d617820737570706c796000830152602082019050919050565b60006137f660208361409d565b91507f4552433732313a206d696e7420746f20746865207a65726f20616464726573736000830152602082019050919050565b6000613836602c8361409d565b91507f4552433732313a20617070726f76656420717565727920666f72206e6f6e657860008301527f697374656e7420746f6b656e00000000000000000000000000000000000000006020830152604082019050919050565b600061389c60208361409d565b91507f4f776e61626c653a2063616c6c6572206973206e6f7420746865206f776e65726000830152602082019050919050565b60006138dc60298361409d565b91507f4552433732313a207472616e73666572206f6620746f6b656e2074686174206960008301527f73206e6f74206f776e00000000000000000000000000000000000000000000006020830152604082019050919050565b6000613942602f8361409d565b91507f4552433732314d657461646174613a2055524920717565727920666f72206e6f60008301527f6e6578697374656e7420746f6b656e00000000000000000000000000000000006020830152604082019050919050565b60006139a860138361409d565b91507f4e6f7420656e6f756768204554482073656e74000000000000000000000000006000830152602082019050919050565b60006139e860218361409d565b91507f4552433732313a20617070726f76616c20746f2063757272656e74206f776e6560008301527f72000000000000000000000000000000000000000000000000000000000000006020830152604082019050919050565b6000613a4e60318361409d565b91507f4552433732313a207472616e736665722063616c6c6572206973206e6f74206f60008301527f776e6572206e6f7220617070726f7665640000000000000000000000000000006020830152604082019050919050565b6000613ab4602c8361409d565b91507f455243373231456e756d657261626c653a20676c6f62616c20696e646578206f60008301527f7574206f6620626f756e647300000000000000000000000000000000000000006020830152604082019050919050565b6000613b1a60238361409d565b91507f5374617274696e6720696e6465782068617320616c7265616479206265656e2060008301527f73657400000000000000000000000000000000000000000000000000000000006020830152604082019050919050565b6000613b8060208361409d565b91507f53616c65206973206e6f742061637469766520617420746865206d6f6d656e746000830152602082019050919050565b613bbc81614238565b82525050565b6000613bce8285613256565b9150613bda8284613256565b91508190509392505050565b6000602082019050613bfb60008301846131c6565b92915050565b6000608082019050613c1660008301876131c6565b613c2360208301866131c6565b613c306040830185613bb3565b8181036060830152613c4281846131e4565b905095945050505050565b6000602082019050613c6260008301846131d5565b92915050565b60006020820190508181036000830152613c82818461321d565b905092915050565b60006020820190508181036000830152613ca381613287565b9050919050565b60006020820190508181036000830152613cc3816132ed565b9050919050565b60006020820190508181036000830152613ce381613353565b9050919050565b60006020820190508181036000830152613d03816133b9565b9050919050565b60006020820190508181036000830152613d238161341f565b9050919050565b60006020820190508181036000830152613d4381613485565b9050919050565b60006020820190508181036000830152613d63816134c5565b9050919050565b60006020820190508181036000830152613d838161352b565b9050919050565b60006020820190508181036000830152613da38161356b565b9050919050565b60006020820190508181036000830152613dc3816135d1565b9050919050565b60006020820190508181036000830152613de381613611565b9050919050565b60006020820190508181036000830152613e0381613677565b9050919050565b60006020820190508181036000830152613e23816136dd565b9050919050565b60006020820190508181036000830152613e4381613743565b9050919050565b60006020820190508181036000830152613e63816137a9565b9050919050565b60006020820190508181036000830152613e83816137e9565b9050919050565b60006020820190508181036000830152613ea381613829565b9050919050565b60006020820190508181036000830152613ec38161388f565b9050919050565b60006020820190508181036000830152613ee3816138cf565b9050919050565b60006020820190508181036000830152613f0381613935565b9050919050565b60006020820190508181036000830152613f238161399b565b9050919050565b60006020820190508181036000830152613f43816139db565b9050919050565b60006020820190508181036000830152613f6381613a41565b9050919050565b60006020820190508181036000830152613f8381613aa7565b9050919050565b60006020820190508181036000830152613fa381613b0d565b9050919050565b60006020820190508181036000830152613fc381613b73565b9050919050565b6000602082019050613fdf6000830184613bb3565b92915050565b6000604051905081810181811067ffffffffffffffff8211171561400c5761400b6143bd565b5b8060405250919050565b600067ffffffffffffffff821115614031576140306143bd565b5b601f19601f8301169050602081019050919050565b600067ffffffffffffffff821115614061576140606143bd565b5b601f19601f8301169050602081019050919050565b600081519050919050565b600081519050919050565b600082825260208201905092915050565b600082825260208201905092915050565b600081905092915050565b60006140c482614238565b91506140cf83614238565b9250827fffffffffffffffffffffffffffffffffffffffffffffffffffffffffffffffff0382111561410457614103614330565b5b828201905092915050565b600061411a82614238565b915061412583614238565b9250826141355761413461435f565b5b828204905092915050565b600061414b82614238565b915061415683614238565b9250817fffffffffffffffffffffffffffffffffffffffffffffffffffffffffffffffff048311821515161561418f5761418e614330565b5b828202905092915050565b60006141a582614238565b91506141b083614238565b9250828210156141c3576141c2614330565b5b828203905092915050565b60006141d982614218565b9050919050565b60008115159050919050565b60007fffffffff0000000000000000000000000000000000000000000000000000000082169050919050565b600073ffffffffffffffffffffffffffffffffffffffff82169050919050565b6000819050919050565b82818337600083830152505050565b60005b8381101561426f578082015181840152602081019050614254565b8381111561427e576000848401525b50505050565b6000600282049050600182168061429c57607f821691505b602082108114156142b0576142af61438e565b5b50919050565b60006142c182614238565b91507fffffffffffffffffffffffffffffffffffffffffffffffffffffffffffffffff8214156142f4576142f3614330565b5b600182019050919050565b600061430a82614238565b915061431583614238565b9250826143255761432461435f565b5b828206905092915050565b7f4e487b7100000000000000000000000000000000000000000000000000000000600052601160045260246000fd5b7f4e487b7100000000000000000000000000000000000000000000000000000000600052601260045260246000fd5b7f4e487b7100000000000000000000000000000000000000000000000000000000600052602260045260246000fd5b7f4e487b7100000000000000000000000000000000000000000000000000000000600052604160045260246000fd5b6000601f19601f8301169050919050565b614406816141ce565b811461441157600080fd5b50565b61441d816141e0565b811461442857600080fd5b50565b614434816141ec565b811461443f57600080fd5b50565b61444b81614238565b811461445657600080fd5b5056fea2646970667358221220c20a3de77bba8074a52a89ffc31f3330dc267608575bc6eb797e572a2556e74e64736f6c63430008000033"}}