{"compiler":"v0.5.16+commit.9c3226ce","opcodeHash":"0x1f2223564ce8542587f94b12d5b39712eaf7d142d7ef89411922eaafc7734c07","metalessHash":"0x7f02434a38b1f1d4ee4a5e15b7509acae554921970657e4f714ff1e3fb430e9d","runtimeHash":"0x6370fd5207c8af5e1fcfc03af538328aa93be216f8bc8228d52ee9cb5c62faf4","encodedMetadata":[{"bzzr1":"/swarm/bzzr1/8231562ec7f6456ba9b887df1018bae42a01064ff370d40b4c1e53992ea97ee3","solc":"0.5.16"}],"abi":[{"inputs":[{"internalType":"address payable","name":"_proxy","type":"address"},{"internalType":"contract TokenState","name":"_tokenState","type":"address"},{"internalType":"string","name":"_tokenName","type":"string"},{"internalType":"string","name":"_tokenSymbol","type":"string"},{"internalType":"address payable","name":"_owner","type":"address"},{"internalType":"bytes32","name":"_currencyKey","type":"bytes32"},{"internalType":"uint256","name":"_totalSupply","type":"uint256"},{"internalType":"address","name":"_resolver","type":"address"}],"payable":false,"stateMutability":"nonpayable","type":"constructor"},{"anonymous":false,"inputs":[{"indexed":true,"internalType":"address","name":"owner","type":"address"},{"indexed":true,"internalType":"address","name":"spender","type":"address"},{"indexed":false,"internalType":"uint256","name":"value","type":"uint256"}],"name":"Approval","type":"event"},{"anonymous":false,"inputs":[{"indexed":true,"internalType":"address","name":"account","type":"address"},{"indexed":false,"internalType":"uint256","name":"value","type":"uint256"}],"name":"Burned","type":"event"},{"anonymous":false,"inputs":[{"indexed":false,"internalType":"bytes32","name":"name","type":"bytes32"},{"indexed":false,"internalType":"address","name":"destination","type":"address"}],"name":"CacheUpdated","type":"event"},{"anonymous":false,"inputs":[{"indexed":true,"internalType":"address","name":"account","type":"address"},{"indexed":false,"internalType":"uint256","name":"value","type":"uint256"}],"name":"Issued","type":"event"},{"anonymous":false,"inputs":[{"indexed":false,"internalType":"address","name":"oldOwner","type":"address"},{"indexed":false,"internalType":"address","name":"newOwner","type":"address"}],"name":"OwnerChanged","type":"event"},{"anonymous":false,"inputs":[{"indexed":false,"internalType":"address","name":"newOwner","type":"address"}],"name":"OwnerNominated","type":"event"},{"anonymous":false,"inputs":[{"indexed":false,"internalType":"address","name":"proxyAddress","type":"address"}],"name":"ProxyUpdated","type":"event"},{"anonymous":false,"inputs":[{"indexed":true,"internalType":"address","name":"account","type":"address"},{"indexed":false,"internalType":"uint256","name":"value","type":"uint256"}],"name":"Purged","type":"event"},{"anonymous":false,"inputs":[{"indexed":false,"internalType":"address","name":"newTokenState","type":"address"}],"name":"TokenStateUpdated","type":"event"},{"anonymous":false,"inputs":[{"indexed":true,"internalType":"address","name":"from","type":"address"},{"indexed":true,"internalType":"address","name":"to","type":"address"},{"indexed":false,"internalType":"uint256","name":"value","type":"uint256"}],"name":"Transfer","type":"event"},{"constant":true,"inputs":[],"name":"DECIMALS","outputs":[{"internalType":"uint8","name":"","type":"uint8"}],"payable":false,"stateMutability":"view","type":"function"},{"constant":true,"inputs":[],"name":"FEE_ADDRESS","outputs":[{"internalType":"address","name":"","type":"address"}],"payable":false,"stateMutability":"view","type":"function"},{"constant":false,"inputs":[],"name":"acceptOwnership","outputs":[],"payable":false,"stateMutability":"nonpayable","type":"function"},{"constant":true,"inputs":[{"internalType":"address","name":"owner","type":"address"},{"internalType":"address","name":"spender","type":"address"}],"name":"allowance","outputs":[{"internalType":"uint256","name":"","type":"uint256"}],"payable":false,"stateMutability":"view","type":"function"},{"constant":false,"inputs":[{"internalType":"address","name":"spender","type":"address"},{"internalType":"uint256","name":"value","type":"uint256"}],"name":"approve","outputs":[{"internalType":"bool","name":"","type":"bool"}],"payable":false,"stateMutability":"nonpayable","type":"function"},{"constant":true,"inputs":[{"internalType":"address","name":"account","type":"address"}],"name":"balanceOf","outputs":[{"internalType":"uint256","name":"","type":"uint256"}],"payable":false,"stateMutability":"view","type":"function"},{"constant":false,"inputs":[{"internalType":"address","name":"account","type":"address"},{"internalType":"uint256","name":"amount","type":"uint256"}],"name":"burn","outputs":[],"payable":false,"stateMutability":"nonpayable","type":"function"},{"constant":true,"inputs":[],"name":"currencyKey","outputs":[{"internalType":"bytes32","name":"","type":"bytes32"}],"payable":false,"stateMutability":"view","type":"function"},{"constant":true,"inputs":[],"name":"decimals","outputs":[{"internalType":"uint8","name":"","type":"uint8"}],"payable":false,"stateMutability":"view","type":"function"},{"constant":true,"inputs":[],"name":"integrationProxy","outputs":[{"internalType":"contract Proxy","name":"","type":"address"}],"payable":false,"stateMutability":"view","type":"function"},{"constant":true,"inputs":[],"name":"isResolverCached","outputs":[{"internalType":"bool","name":"","type":"bool"}],"payable":false,"stateMutability":"view","type":"function"},{"constant":false,"inputs":[{"internalType":"address","name":"account","type":"address"},{"internalType":"uint256","name":"amount","type":"uint256"}],"name":"issue","outputs":[],"payable":false,"stateMutability":"nonpayable","type":"function"},{"constant":true,"inputs":[],"name":"maxSupplyToPurgeInUSD","outputs":[{"internalType":"uint256","name":"","type":"uint256"}],"payable":false,"stateMutability":"view","type":"function"},{"constant":true,"inputs":[],"name":"messageSender","outputs":[{"internalType":"address","name":"","type":"address"}],"payable":false,"stateMutability":"view","type":"function"},{"constant":true,"inputs":[],"name":"name","outputs":[{"internalType":"string","name":"","type":"string"}],"payable":false,"stateMutability":"view","type":"function"},{"constant":false,"inputs":[{"internalType":"address","name":"_owner","type":"address"}],"name":"nominateNewOwner","outputs":[],"payable":false,"stateMutability":"nonpayable","type":"function"},{"constant":true,"inputs":[],"name":"nominatedOwner","outputs":[{"internalType":"address","name":"","type":"address"}],"payable":false,"stateMutability":"view","type":"function"},{"constant":true,"inputs":[],"name":"owner","outputs":[{"internalType":"address","name":"","type":"address"}],"payable":false,"stateMutability":"view","type":"function"},{"constant":true,"inputs":[],"name":"proxy","outputs":[{"internalType":"contract Proxy","name":"","type":"address"}],"payable":false,"stateMutability":"view","type":"function"},{"constant":false,"inputs":[{"internalType":"address[]","name":"addresses","type":"address[]"}],"name":"purge","outputs":[],"payable":false,"stateMutability":"nonpayable","type":"function"},{"constant":false,"inputs":[],"name":"rebuildCache","outputs":[],"payable":false,"stateMutability":"nonpayable","type":"function"},{"constant":true,"inputs":[],"name":"resolver","outputs":[{"internalType":"contract AddressResolver","name":"","type":"address"}],"payable":false,"stateMutability":"view","type":"function"},{"constant":true,"inputs":[],"name":"resolverAddressesRequired","outputs":[{"internalType":"bytes32[]","name":"addresses","type":"bytes32[]"}],"payable":false,"stateMutability":"view","type":"function"},{"constant":false,"inputs":[{"internalType":"address payable","name":"_integrationProxy","type":"address"}],"name":"setIntegrationProxy","outputs":[],"payable":false,"stateMutability":"nonpayable","type":"function"},{"constant":false,"inputs":[{"internalType":"address","name":"sender","type":"address"}],"name":"setMessageSender","outputs":[],"payable":false,"stateMutability":"nonpayable","type":"function"},{"constant":false,"inputs":[{"internalType":"address payable","name":"_proxy","type":"address"}],"name":"setProxy","outputs":[],"payable":false,"stateMutability":"nonpayable","type":"function"},{"constant":false,"inputs":[{"internalType":"contract TokenState","name":"_tokenState","type":"address"}],"name":"setTokenState","outputs":[],"payable":false,"stateMutability":"nonpayable","type":"function"},{"constant":false,"inputs":[{"internalType":"uint256","name":"amount","type":"uint256"}],"name":"setTotalSupply","outputs":[],"payable":false,"stateMutability":"nonpayable","type":"function"},{"constant":true,"inputs":[],"name":"symbol","outputs":[{"internalType":"string","name":"","type":"string"}],"payable":false,"stateMutability":"view","type":"function"},{"constant":true,"inputs":[],"name":"tokenState","outputs":[{"internalType":"contract TokenState","name":"","type":"address"}],"payable":false,"stateMutability":"view","type":"function"},{"constant":true,"inputs":[],"name":"totalSupply","outputs":[{"internalType":"uint256","name":"","type":"uint256"}],"payable":false,"stateMutability":"view","type":"function"},{"constant":false,"inputs":[{"internalType":"address","name":"to","type":"address"},{"internalType":"uint256","name":"value","type":"uint256"}],"name":"transfer","outputs":[{"internalType":"bool","name":"","type":"bool"}],"payable":false,"stateMutability":"nonpayable","type":"function"},{"constant":false,"inputs":[{"internalType":"address","name":"to","type":"address"},{"internalType":"uint256","name":"value","type":"uint256"}],"name":"transferAndSettle","outputs":[{"internalType":"bool","name":"","type":"bool"}],"payable":false,"stateMutability":"nonpayable","type":"function"},{"constant":false,"inputs":[{"internalType":"address","name":"from","type":"address"},{"internalType":"address","name":"to","type":"address"},{"internalType":"uint256","name":"value","type":"uint256"}],"name":"transferFrom","outputs":[{"internalType":"bool","name":"","type":"bool"}],"payable":false,"stateMutability":"nonpayable","type":"function"},{"constant":false,"inputs":[{"internalType":"address","name":"from","type":"address"},{"internalType":"address","name":"to","type":"address"},{"internalType":"uint256","name":"value","type":"uint256"}],"name":"transferFromAndSettle","outputs":[{"internalType":"bool","name":"","type":"bool"}],"payable":false,"stateMutability":"nonpayable","type":"function"},{"constant":true,"inputs":[{"internalType":"address","name":"account","type":"address"}],"name":"transferableSynths","outputs":[{"internalType":"uint256","name":"","type":"uint256"}],"payable":false,"stateMutability":"view","type":"function"}],"bytecode":{"object":"60806040819052630241ebdb60e61b81527384d626b2bb4d0f064067e4bf80fce7055d8f3e7b9063907af6c09060849060209060048186803b1580156200004557600080fd5b505af41580156200005a573d6000803e3d6000fd5b505050506040513d60208110156200007157600080fd5b5051620186a002600c553480156200008857600080fd5b50604051620032c3380380620032c38339818101604052610100811015620000af57600080fd5b81516020830151604080850180519151939592948301929184640100000000821115620000db57600080fd5b908301906020820185811115620000f157600080fd5b82516401000000008111828201881017156200010c57600080fd5b82525081516020918201929091019080838360005b838110156200013b57818101518382015260200162000121565b50505050905090810190601f168015620001695780820380516001836020036101000a031916815260200191505b50604052602001805160405193929190846401000000008211156200018d57600080fd5b908301906020820185811115620001a357600080fd5b8251640100000000811182820188101715620001be57600080fd5b82525081516020918201929091019080838360005b83811015620001ed578181015183820152602001620001d3565b50505050905090810190601f1680156200021b5780820380516001836020036101000a031916815260200191505b50604090815260208201519082015160608301516080909301519194509250878787878787878780888888888660128a86816001600160a01b038116620002a9576040805162461bcd60e51b815260206004820152601960248201527f4f776e657220616464726573732063616e6e6f74206265203000000000000000604482015290519081900360640190fd5b600080546001600160a01b0319166001600160a01b038316908117825560408051928352602083019190915280517fb532073b38c83145e3e5135377a08bf9aab55bc0fd7c1179cd4fb995d2a5159c9281900390910190a1506000546001600160a01b031662000354576040805162461bcd60e51b815260206004820152601160248201527013dddb995c881b5d5cdd081899481cd95d607a1b604482015290519081900360640190fd5b600280546001600160a01b0383166001600160a01b0319909116811790915560408051918252517ffc80377ca9c49cc11ae6982f390a42db976d5530af7c43889264b13fbbd7c57e9181900360200190a150600580546001600160a01b0319166001600160a01b0388161790558451620003d6906006906020880190620004db565b508351620003ec906007906020870190620004db565b50506008919091556009805460ff191660ff90921691909117610100600160a81b0319166101006001600160a01b0397881602179055505050908916905062000471576040805162461bcd60e51b815260206004820152601260248201527105f70726f78792063616e6e6f7420626520360741b604482015290519081900360640190fd5b6001600160a01b038416620004c2576040805162461bcd60e51b815260206004820152601260248201527105f6f776e65722063616e6e6f7420626520360741b604482015290519081900360640190fd5b5050600b5550620005809b505050505050505050505050565b828054600181600116156101000203166002900490600052602060002090601f016020900481019282601f106200051e57805160ff19168380011785556200054e565b828001600101855582156200054e579182015b828111156200054e57825182559160200191906001019062000531565b506200055c92915062000560565b5090565b6200057d91905b808211156200055c576000815560010162000567565b90565b612d3380620005906000396000f3fe608060405234801561001057600080fd5b506004361061021c5760003560e01c806395d89b4111610125578063d67bdd25116100ad578063e90dd9e21161007c578063e90dd9e21461068a578063eb1edd6114610692578063ec5568891461069a578063f7ea7a3d146106a2578063ffff51d6146106bf5761021c565b8063d67bdd2514610616578063dbd06c851461061e578063dd62ed3e14610626578063e73cced3146106545761021c565b80639f769807116100f45780639f76980714610502578063a9059cbb14610528578063ab59307914610554578063b014c3a3146105c4578063bc67f832146105f05761021c565b806395d89b41146104a057806397107d6d146104a85780639cbdaeb6146104ce5780639dc29fac146104d65761021c565b8063313ce567116101a857806379ba50971161017757806379ba5097146104045780637e88ac161461040c578063867904b414610414578063899ffef4146104405780638da5cb5b146104985761021c565b8063313ce567146103c657806353a47bb7146103ce57806370a08231146103d657806374185360146103fc5761021c565b80631627540c116101ef5780631627540c1461032a57806318160ddd1461035057806323b872dd1461036a5780632af64bd3146103a05780632e0f2625146103a85761021c565b806304f3bcec1461022157806306fdde0314610245578063095ea7b3146102c2578063131b0ae714610302575b600080fd5b6102296106e5565b604080516001600160a01b039092168252519081900360200190f35b61024d6106f9565b6040805160208082528351818301528351919283929083019185019080838360005b8381101561028757818101518382015260200161026f565b50505050905090810190601f1680156102b45780820380516001836020036101000a031916815260200191505b509250505060405180910390f35b6102ee600480360360408110156102d857600080fd5b506001600160a01b038135169060200135610787565b604080519115158252519081900360200190f35b6103286004803603602081101561031857600080fd5b50356001600160a01b0316610822565b005b6103286004803603602081101561034057600080fd5b50356001600160a01b031661084c565b6103586108a8565b60408051918252519081900360200190f35b6102ee6004803603606081101561038057600080fd5b506001600160a01b038135811691602081013590911690604001356108ae565b6102ee6108d5565b6103b06109e7565b6040805160ff9092168252519081900360200190f35b6103b06109ec565b6102296109f5565b610358600480360360208110156103ec57600080fd5b50356001600160a01b0316610a04565b610328610a89565b610328610c66565b610358610d22565b6103286004803603604081101561042a57600080fd5b506001600160a01b038135169060200135610d28565b610448610de5565b60408051602080825283518183015283519192839290830191858101910280838360005b8381101561048457818101518382015260200161046c565b505050509050019250505060405180910390f35b610229610e51565b61024d610e60565b610328600480360360208110156104be57600080fd5b50356001600160a01b0316610ebb565b610229610f17565b610328600480360360408110156104ec57600080fd5b506001600160a01b038135169060200135610f26565b6103286004803603602081101561051857600080fd5b50356001600160a01b0316610fe4565b6102ee6004803603604081101561053e57600080fd5b506001600160a01b038135169060200135611013565b6103286004803603602081101561056a57600080fd5b81019060208101813564010000000081111561058557600080fd5b82018360208201111561059757600080fd5b803590602001918460208302840111640100000000831117156105b957600080fd5b5090925090506110ab565b6102ee600480360360408110156105da57600080fd5b506001600160a01b038135169060200135611371565b6103286004803603602081101561060657600080fd5b50356001600160a01b03166114ca565b6102296114f4565b610358611503565b6103586004803603604081101561063c57600080fd5b506001600160a01b0381358116916020013516611509565b6102ee6004803603606081101561066a57600080fd5b506001600160a01b03813581169160208101359091169060400135611595565b6102296116e5565b6102296116f4565b61022961170c565b610328600480360360208110156106b857600080fd5b503561171b565b610358600480360360208110156106d557600080fd5b50356001600160a01b0316611728565b60095461010090046001600160a01b031681565b6006805460408051602060026001851615610100026000190190941693909304601f8101849004840282018401909252818152929183018282801561077f5780601f106107545761010080835404028352916020019161077f565b820191906000526020600020905b81548152906001019060200180831161076257829003601f168201915b505050505081565b600061079161186b565b6004805460055460408051633691826360e21b81526001600160a01b039384169481018590528784166024820152604481018790529051919092169163da46098c91606480830192600092919082900301818387803b1580156107f357600080fd5b505af1158015610807573d6000803e3d6000fd5b505050506108168185856118c2565b60019150505b92915050565b61082a6119fb565b600380546001600160a01b0319166001600160a01b0392909216919091179055565b6108546119fb565b600180546001600160a01b0383166001600160a01b0319909116811790915560408051918252517f906a1c6bd7e3091ea86693dd029a831c19049ce77f1dce2ce0bab1cacbabce229181900360200190a150565b60085481565b60006108b861186b565b6108c28483611a44565b6108cd848484611bbb565b949350505050565b600060606108e1610de5565b905060005b81518110156109dd5760008282815181106108fd57fe5b6020908102919091018101516000818152600a83526040908190205460095482516321f8a72160e01b81526004810185905292519395506001600160a01b0391821694610100909104909116926321f8a721926024808201939291829003018186803b15801561096c57600080fd5b505afa158015610980573d6000803e3d6000fd5b505050506040513d602081101561099657600080fd5b50516001600160a01b03161415806109c357506000818152600a60205260409020546001600160a01b0316155b156109d457600093505050506109e4565b506001016108e6565b5060019150505b90565b601281565b60095460ff1681565b6001546001600160a01b031681565b600554604080516370a0823160e01b81526001600160a01b038481166004830152915160009392909216916370a0823191602480820192602092909190829003018186803b158015610a5557600080fd5b505afa158015610a69573d6000803e3d6000fd5b505050506040513d6020811015610a7f57600080fd5b505190505b919050565b6060610a93610de5565b905060005b8151811015610c62576000828281518110610aaf57fe5b602002602001015190506000600960019054906101000a90046001600160a01b03166001600160a01b031663dacb2d01838460405160200180807f5265736f6c766572206d697373696e67207461726765743a20000000000000008152506019018281526020019150506040516020818303038152906040526040518363ffffffff1660e01b81526004018083815260200180602001828103825283818151815260200191508051906020019080838360005b83811015610b7a578181015183820152602001610b62565b50505050905090810190601f168015610ba75780820380516001836020036101000a031916815260200191505b50935050505060206040518083038186803b158015610bc557600080fd5b505afa158015610bd9573d6000803e3d6000fd5b505050506040513d6020811015610bef57600080fd5b50516000838152600a602090815260409182902080546001600160a01b0319166001600160a01b03851690811790915582518681529182015281519293507f88a93678a3692f6789d9546fc621bf7234b101ddb7d4fe479455112831b8aa68929081900390910190a15050600101610a98565b5050565b6001546001600160a01b03163314610caf5760405162461bcd60e51b8152600401808060200182810382526035815260200180612b8b6035913960400191505060405180910390fd5b600054600154604080516001600160a01b03938416815292909116602083015280517fb532073b38c83145e3e5135377a08bf9aab55bc0fd7c1179cd4fb995d2a5159c9281900390910190a160018054600080546001600160a01b03199081166001600160a01b03841617909155169055565b600c5481565b6000610d32611d7c565b6001600160a01b0316336001600160a01b03161490506000610d52611d96565b6001600160a01b0316336001600160a01b03161490506000610d72611dad565b6001600160a01b0316336001600160a01b03161490508280610d915750815b80610d995750805b610dd45760405162461bcd60e51b8152600401808060200182810382526033815260200180612bef6033913960400191505060405180910390fd5b610dde8585611dc1565b5050505050565b606080610df0611eeb565b60408051600180825281830190925291925060609190602080830190803883390190505090506c45786368616e6765526174657360981b81600081518110610e3457fe5b602002602001018181525050610e4a8282611fa7565b9250505090565b6000546001600160a01b031681565b6007805460408051602060026001851615610100026000190190941693909304601f8101849004840282018401909252818152929183018282801561077f5780601f106107545761010080835404028352916020019161077f565b610ec36119fb565b600280546001600160a01b0383166001600160a01b0319909116811790915560408051918252517ffc80377ca9c49cc11ae6982f390a42db976d5530af7c43889264b13fbbd7c57e9181900360200190a150565b6003546001600160a01b031681565b6000610f30611d7c565b6001600160a01b0316336001600160a01b03161490506000610f50611d96565b6001600160a01b0316336001600160a01b03161490506000610f70611dad565b6001600160a01b0316336001600160a01b03161490508280610f8f5750815b80610f975750805b610fd25760405162461bcd60e51b8152600401808060200182810382526033815260200180612bef6033913960400191505060405180910390fd5b610fdc8585612063565b505050505050565b610fec612160565b600580546001600160a01b0319166001600160a01b03831617905561101081612210565b50565b600061101d61186b565b600454611033906001600160a01b031683611a44565b6001600160a01b03831673feefeefeefeefeefeefeefeefeefeefeefeefeef141561106957611062838361234f565b905061081c565b6001600160a01b03831661108d57600454611062906001600160a01b031683612063565b6004546110a4906001600160a01b031684846124b2565b9392505050565b6110b3612160565b60006110bd6126df565b90506000816001600160a01b031663654a60ac600c54600b546040518363ffffffff1660e01b81526004018080631cd554d160e21b8152506020018381526020018281526020019250505060206040518083038186803b15801561112057600080fd5b505afa158015611134573d6000803e3d6000fd5b505050506040513d602081101561114a57600080fd5b5051600854909150811015806111ce5750816001600160a01b031663af3aea86600b546040518263ffffffff1660e01b81526004018082815260200191505060206040518083038186803b1580156111a157600080fd5b505afa1580156111b5573d6000803e3d6000fd5b505050506040513d60208110156111cb57600080fd5b50515b6112095760405162461bcd60e51b8152600401808060200182810382526047815260200180612cb86047913960600191505060405180910390fd5b60005b83811015610dde57600085858381811061122257fe5b600554604080516370a0823160e01b8152602093840295909501356001600160a01b03908116600487018190529151919650600095921693506370a0823192602480840193919291829003018186803b15801561127e57600080fd5b505afa158015611292573d6000803e3d6000fd5b505050506040513d60208110156112a857600080fd5b505190508015611367576112ba611d96565b600b5460408051630a1e187d60e01b81526001600160a01b0386811660048301819052602483019490945260448201869052631cd554d160e21b6064830152608482019390935290519290911691630a1e187d9160a4808201926020929091908290030181600087803b15801561133057600080fd5b505af1158015611344573d6000803e3d6000fd5b505050506040513d602081101561135a57600080fd5b50611367905082826126fa565b505060010161120c565b600061137b61186b565b6000611385611d96565b60048054600b54604080516306c5a00b60e21b81526001600160a01b0393841694810194909452602484019190915251921691631b16802c916044808201926060929091908290030181600087803b1580156113e057600080fd5b505af11580156113f4573d6000803e3d6000fd5b505050506040513d606081101561140a57600080fd5b506040015190508281156114985760055460048054604080516370a0823160e01b81526001600160a01b0392831693810193909352519216916370a0823191602480820192602092909190829003018186803b15801561146957600080fd5b505afa15801561147d573d6000803e3d6000fd5b505050506040513d602081101561149357600080fd5b505190505b8084116114a557836114a7565b805b6004549094506114c1906001600160a01b031686866124b2565b95945050505050565b6114d261283b565b600480546001600160a01b0319166001600160a01b0392909216919091179055565b6004546001600160a01b031681565b600b5481565b60055460408051636eb1769f60e11b81526001600160a01b03858116600483015284811660248301529151600093929092169163dd62ed3e91604480820192602092909190829003018186803b15801561156257600080fd5b505afa158015611576573d6000803e3d6000fd5b505050506040513d602081101561158c57600080fd5b50519392505050565b600061159f61186b565b60006115a9611d96565b6001600160a01b0316631b16802c86600b546040518363ffffffff1660e01b815260040180836001600160a01b03166001600160a01b0316815260200182815260200192505050606060405180830381600087803b15801561160a57600080fd5b505af115801561161e573d6000803e3d6000fd5b505050506040513d606081101561163457600080fd5b506040015190508281156116be57600554604080516370a0823160e01b81526001600160a01b038981166004830152915191909216916370a08231916024808301926020929190829003018186803b15801561168f57600080fd5b505afa1580156116a3573d6000803e3d6000fd5b505050506040513d60208110156116b957600080fd5b505190505b808410156116cc57836116ce565b805b93506116db868686611bbb565b9695505050505050565b6005546001600160a01b031681565b73feefeefeefeefeefeefeefeefeefeefeefeefeef81565b6002546001600160a01b031681565b611723612160565b600855565b600080611733611d96565b6001600160a01b03166319d5c66584600b546040518363ffffffff1660e01b815260040180836001600160a01b03166001600160a01b031681526020018281526020019250505060606040518083038186803b15801561179257600080fd5b505afa1580156117a6573d6000803e3d6000fd5b505050506040513d60608110156117bc57600080fd5b5051600554604080516370a0823160e01b81526001600160a01b038781166004830152915193945060009391909216916370a08231916024808301926020929190829003018186803b15801561181157600080fd5b505afa158015611825573d6000803e3d6000fd5b505050506040513d602081101561183b57600080fd5b505190508082111561185257600092505050610a84565b611862818363ffffffff6128af16565b92505050610a84565b6002546001600160a01b0316331480159061189157506003546001600160a01b03163314155b80156118a857506004546001600160a01b03163314155b156118c057600480546001600160a01b031916331790555b565b60025460408051602080820185905282518083039091018152908201918290526001600160a01b039092169163907dff9791600390806021612c518239602101905060405180910390206119158861290c565b61191e8861290c565b60006040518763ffffffff1660e01b815260040180806020018781526020018681526020018581526020018481526020018360001b8152602001828103825288818151815260200191508051906020019080838360005b8381101561198d578181015183820152602001611975565b50505050905090810190601f1680156119ba5780820380516001836020036101000a031916815260200191505b50975050505050505050600060405180830381600087803b1580156119de57600080fd5b505af11580156119f2573d6000803e3d6000fd5b50505050505050565b6000546001600160a01b031633146118c05760405162461bcd60e51b815260040180806020018281038252602f815260200180612c22602f913960400191505060405180910390fd5b611a4c611d96565b6001600160a01b031663059c29ec83600b546040518363ffffffff1660e01b815260040180836001600160a01b03166001600160a01b031681526020018281526020019250505060206040518083038186803b158015611aab57600080fd5b505afa158015611abf573d6000803e3d6000fd5b505050506040513d6020811015611ad557600080fd5b505115611b135760405162461bcd60e51b8152600401808060200182810382526025815260200180612c726025913960400191505060405180910390fd5b80611b1d83611728565b1015611b5a5760405162461bcd60e51b815260040180806020018281038252602f815260200180612bc0602f913960400191505060405180910390fd5b611b62612918565b6001600160a01b03166342a28e21600b546040518263ffffffff1660e01b81526004018082815260200191505060006040518083038186803b158015611ba757600080fd5b505afa158015610fdc573d6000803e3d6000fd5b6005546004805460408051636eb1769f60e11b81526001600160a01b038881169482019490945291831660248301525160009360001993169163dd62ed3e916044808301926020929190829003018186803b158015611c1957600080fd5b505afa158015611c2d573d6000803e3d6000fd5b505050506040513d6020811015611c4357600080fd5b505114611d71576005546004805460408051636eb1769f60e11b81526001600160a01b0389811694820194909452918316602483018190529051929093169263da46098c928892611cf0918891879163dd62ed3e91604480820192602092909190829003018186803b158015611cb857600080fd5b505afa158015611ccc573d6000803e3d6000fd5b505050506040513d6020811015611ce257600080fd5b50519063ffffffff6128af16565b6040518463ffffffff1660e01b815260040180846001600160a01b03166001600160a01b03168152602001836001600160a01b03166001600160a01b031681526020018281526020019350505050600060405180830381600087803b158015611d5857600080fd5b505af1158015611d6c573d6000803e3d6000fd5b505050505b6108cd8484846124b2565b6000611d9166119959541bdbdb60ca1b61292e565b905090565b6000611d916822bc31b430b733b2b960b91b61292e565b6000611d916524b9b9bab2b960d11b61292e565b600554604080516370a0823160e01b81526001600160a01b0385811660048301529151919092169163b46310f6918591611e5791869186916370a0823191602480820192602092909190829003018186803b158015611e1f57600080fd5b505afa158015611e33573d6000803e3d6000fd5b505050506040513d6020811015611e4957600080fd5b50519063ffffffff612a0b16565b6040518363ffffffff1660e01b815260040180836001600160a01b03166001600160a01b0316815260200182815260200192505050600060405180830381600087803b158015611ea657600080fd5b505af1158015611eba573d6000803e3d6000fd5b5050600854611ed2925090508263ffffffff612a0b16565b600855611ee160008383612a65565b610c628282612ab8565b60408051600480825260a08201909252606091602082016080803883390190505090506b53797374656d53746174757360a01b81600081518110611f2b57fe5b6020026020010181815250506822bc31b430b733b2b960b91b81600181518110611f5157fe5b6020026020010181815250506524b9b9bab2b960d11b81600281518110611f7457fe5b60200260200101818152505066119959541bdbdb60ca1b81600381518110611f9857fe5b60200260200101818152505090565b60608151835101604051908082528060200260200182016040528015611fd7578160200160208202803883390190505b50905060005b835181101561201957838181518110611ff257fe5b602002602001015182828151811061200657fe5b6020908102919091010152600101611fdd565b5060005b825181101561205c5782818151811061203257fe5b602002602001015182828651018151811061204957fe5b602090810291909101015260010161201d565b5092915050565b600554604080516370a0823160e01b81526001600160a01b0385811660048301529151600093929092169163b46310f69186916120c391879186916370a08231916024808301926020929190829003018186803b158015611cb857600080fd5b6040518363ffffffff1660e01b815260040180836001600160a01b03166001600160a01b0316815260200182815260200192505050600060405180830381600087803b15801561211257600080fd5b505af1158015612126573d6000803e3d6000fd5b505060085461213e925090508363ffffffff6128af16565b60085561214d83600084612a65565b6121578383612b21565b50600192915050565b6002546001600160a01b0316331480159061218657506003546001600160a01b03163314155b801561219d57506004546001600160a01b03163314155b156121b557600480546001600160a01b031916331790555b6000546004546001600160a01b039081169116146118c0576040805162461bcd60e51b815260206004820152601360248201527227bbb732b91037b7363c90333ab731ba34b7b760691b604482015290519081900360640190fd5b600254604080516001600160a01b038481166020808401919091528351808403820181528385018086527f546f6b656e5374617465557064617465642861646472657373290000000000009052935192839003605a01832063907dff9760e01b8452600160248501819052604485018290526000606486018190526084860181905260a4860181905260c060048701908152875160c48801528751959098169763907dff97979692959394919384938493839260e490920191908a0190808383885b838110156122ea5781810151838201526020016122d2565b50505050905090810190601f1680156123175780820380516001836020036101000a031916815260200191505b50975050505050505050600060405180830381600087803b15801561233b57600080fd5b505af1158015610dde573d6000803e3d6000fd5b600080600b54631cd554d160e21b14156123835750600454829061237d906001600160a01b031685836124b2565b50612443565b61238b611d96565b60048054600b5460408051630a1e187d60e01b81526001600160a01b0393841694810194909452602484019190915260448301879052631cd554d160e21b606484015273feefeefeefeefeefeefeefeefeefeefeefeefeef608484015251921691630a1e187d9160a4808201926020929091908290030181600087803b15801561241457600080fd5b505af1158015612428573d6000803e3d6000fd5b505050506040513d602081101561243e57600080fd5b505190505b61244b611d7c565b6001600160a01b03166322bf55ef826040518263ffffffff1660e01b815260040180828152602001915050600060405180830381600087803b15801561249057600080fd5b505af11580156124a4573d6000803e3d6000fd5b506001979650505050505050565b60006001600160a01b038316158015906124d557506001600160a01b0383163014155b80156124ef57506002546001600160a01b03848116911614155b612540576040805162461bcd60e51b815260206004820152601f60248201527f43616e6e6f74207472616e7366657220746f2074686973206164647265737300604482015290519081900360640190fd5b600554604080516370a0823160e01b81526001600160a01b0387811660048301529151919092169163b46310f691879161259e91879186916370a0823191602480820192602092909190829003018186803b158015611cb857600080fd5b6040518363ffffffff1660e01b815260040180836001600160a01b03166001600160a01b0316815260200182815260200192505050600060405180830381600087803b1580156125ed57600080fd5b505af1158015612601573d6000803e3d6000fd5b5050600554604080516370a0823160e01b81526001600160a01b038881166004830152915191909216935063b46310f69250869161266391879186916370a0823191602480820192602092909190829003018186803b158015611e1f57600080fd5b6040518363ffffffff1660e01b815260040180836001600160a01b03166001600160a01b0316815260200182815260200192505050600060405180830381600087803b1580156126b257600080fd5b505af11580156126c6573d6000803e3d6000fd5b505050506126d5848484612a65565b5060019392505050565b6000611d916c45786368616e6765526174657360981b61292e565b60028054604080516020808201869052825180830390910181528183018084527f50757267656428616464726573732c75696e7432353629000000000000000000905291519081900360570190206001600160a01b039092169263907dff97926127638761290c565b6000806040518763ffffffff1660e01b815260040180806020018781526020018681526020018581526020018460001b81526020018360001b8152602001828103825288818151815260200191508051906020019080838360005b838110156127d65781810151838201526020016127be565b50505050905090810190601f1680156128035780820380516001836020036101000a031916815260200191505b50975050505050505050600060405180830381600087803b15801561282757600080fd5b505af1158015610fdc573d6000803e3d6000fd5b6002546001600160a01b031633148061285e57506003546001600160a01b031633145b6118c0576040805162461bcd60e51b815260206004820152601760248201527f4f6e6c79207468652070726f78792063616e2063616c6c000000000000000000604482015290519081900360640190fd5b600082821115612906576040805162461bcd60e51b815260206004820152601e60248201527f536166654d6174683a207375627472616374696f6e206f766572666c6f770000604482015290519081900360640190fd5b50900390565b6001600160a01b031690565b6000611d916b53797374656d53746174757360a01b5b6000818152600a6020908152604080832054815170026b4b9b9b4b7339030b2323932b9b99d1607d1b9381019390935260318084018690528251808503909101815260519093019091526001600160a01b0316908161205c5760405162461bcd60e51b81526004018080602001828103825283818151815260200191508051906020019080838360005b838110156129d05781810151838201526020016129b8565b50505050905090810190601f1680156129fd5780820380516001836020036101000a031916815260200191505b509250505060405180910390fd5b6000828201838110156110a4576040805162461bcd60e51b815260206004820152601b60248201527f536166654d6174683a206164646974696f6e206f766572666c6f770000000000604482015290519081900360640190fd5b60025460408051602080820185905282518083039091018152908201918290526001600160a01b039092169163907dff9791600390806021612c978239602101905060405180910390206119158861290c565b60028054604080516020808201869052825180830390910181528183018084527f49737375656428616464726573732c75696e7432353629000000000000000000905291519081900360570190206001600160a01b039092169263907dff97926127638761290c565b60028054604080516020808201869052825180830390910181528183018084527f4275726e656428616464726573732c75696e7432353629000000000000000000905291519081900360570190206001600160a01b039092169263907dff97926127638761290c56fe596f75206d757374206265206e6f6d696e61746564206265666f726520796f752063616e20616363657074206f776e657273686970496e73756666696369656e742062616c616e636520616674657220616e7920736574746c656d656e74206f77696e674f6e6c7920466565506f6f6c2c2045786368616e676572206f722049737375657220636f6e74726163747320616c6c6f7765644f6e6c792074686520636f6e7472616374206f776e6572206d617920706572666f726d207468697320616374696f6e417070726f76616c28616464726573732c616464726573732c75696e743235362943616e6e6f74207472616e7366657220647572696e672077616974696e6720706572696f645472616e7366657228616464726573732c616464726573732c75696e743235362943616e6e6f7420707572676520617320746f74616c20737570706c792069732061626f7665207468726573686f6c6420616e642072617465206973206e6f742066726f7a656e2ea265627a7a72315820bb9c8feebff852055678aa723656368b472f86f38116b87760ceb3a10d4856f964736f6c63430005100032"}}