{"compiler":"v0.6.12+commit.27d51765","opcodeHash":"0xec8a2e7ce9c9f0787466639b253e65c674a71093c215dba506b1ce3f2f824665","metalessHash":"0x3e5529afe0345bc0f81874378959f5b39253d1d1b618adc131b4a9f33b599e2d","runtimeHash":"0xbb9024fda3fb3f872cc8d9a37fc033090177a7e4392b5815b484b04dfd4921c4","encodedMetadata":[{"ipfs":"/ipfs/QmaNB8G44j2Nnfg72SxBatNC5JqzsYdKgQ9EzjKXFjj42w","solc":"0.6.12"}],"abi":[{"inputs":[],"stateMutability":"nonpayable","type":"constructor"},{"anonymous":false,"inputs":[{"indexed":true,"internalType":"bytes32","name":"id","type":"bytes32"}],"name":"ChainlinkCancelled","type":"event"},{"anonymous":false,"inputs":[{"indexed":true,"internalType":"bytes32","name":"id","type":"bytes32"}],"name":"ChainlinkFulfilled","type":"event"},{"anonymous":false,"inputs":[{"indexed":true,"internalType":"bytes32","name":"id","type":"bytes32"}],"name":"ChainlinkRequested","type":"event"},{"anonymous":false,"inputs":[{"indexed":false,"internalType":"uint256","name":"newFee","type":"uint256"}],"name":"NewFee","type":"event"},{"anonymous":false,"inputs":[{"indexed":false,"internalType":"bytes32","name":"newJobId","type":"bytes32"}],"name":"NewJobId","type":"event"},{"anonymous":false,"inputs":[{"indexed":false,"internalType":"address","name":"newOracle","type":"address"}],"name":"NewOracle","type":"event"},{"anonymous":false,"inputs":[{"indexed":true,"internalType":"address","name":"previousOwner","type":"address"},{"indexed":true,"internalType":"address","name":"newOwner","type":"address"}],"name":"OwnershipTransferred","type":"event"},{"inputs":[{"internalType":"bytes32","name":"_requestId","type":"bytes32"},{"internalType":"uint256","name":"_volume","type":"uint256"}],"name":"fulfill","outputs":[],"stateMutability":"nonpayable","type":"function"},{"inputs":[],"name":"getCurrentPrice","outputs":[{"internalType":"uint256","name":"","type":"uint256"}],"stateMutability":"view","type":"function"},{"inputs":[],"name":"isOwner","outputs":[{"internalType":"bool","name":"","type":"bool"}],"stateMutability":"view","type":"function"},{"inputs":[],"name":"owner","outputs":[{"internalType":"address","name":"","type":"address"}],"stateMutability":"view","type":"function"},{"inputs":[],"name":"requestVolumeData","outputs":[{"internalType":"bytes32","name":"requestId","type":"bytes32"}],"stateMutability":"nonpayable","type":"function"},{"inputs":[{"internalType":"uint256","name":"_fee","type":"uint256"}],"name":"setFee","outputs":[{"internalType":"bool","name":"","type":"bool"}],"stateMutability":"nonpayable","type":"function"},{"inputs":[{"internalType":"bytes32","name":"_jobId","type":"bytes32"}],"name":"setJobId","outputs":[{"internalType":"bool","name":"","type":"bool"}],"stateMutability":"nonpayable","type":"function"},{"inputs":[{"internalType":"address","name":"_oracle","type":"address"}],"name":"setOracle","outputs":[{"internalType":"bool","name":"","type":"bool"}],"stateMutability":"nonpayable","type":"function"},{"inputs":[{"internalType":"address","name":"newOwner","type":"address"}],"name":"transferOwnership","outputs":[],"stateMutability":"nonpayable","type":"function"},{"inputs":[],"name":"volume","outputs":[{"internalType":"uint256","name":"","type":"uint256"}],"stateMutability":"view","type":"function"}],"bytecode":{"object":"6080604052600160045534801561001557600080fd5b5033600660006101000a81548173ffffffffffffffffffffffffffffffffffffffff021916908373ffffffffffffffffffffffffffffffffffffffff160217905550600660009054906101000a900473ffffffffffffffffffffffffffffffffffffffff1673ffffffffffffffffffffffffffffffffffffffff16600073ffffffffffffffffffffffffffffffffffffffff167f8be0079c531659141344cd1fd0a4f28419497f9722a3daafe3b4186f6b6457e060405160405180910390a36100e261017260201b60201c565b73049bd8c3adc3fe7d3fc2a44541d955a537c2a484600860006101000a81548173ffffffffffffffffffffffffffffffffffffffff021916908373ffffffffffffffffffffffffffffffffffffffff1602179055507f393838333966633362353530343336626265373532663832643735323138343360098190555067016345785d8a0000600a8190555061025b565b61021573c89bd4e1632d3a43cb03aaad5262cbe4038bc57173ffffffffffffffffffffffffffffffffffffffff166338cc48316040518163ffffffff1660e01b815260040160206040518083038186803b1580156101cf57600080fd5b505afa1580156101e3573d6000803e3d6000fd5b505050506040513d60208110156101f957600080fd5b810190808051906020019092919050505061021760201b60201c565b565b80600260006101000a81548173ffffffffffffffffffffffffffffffffffffffff021916908373ffffffffffffffffffffffffffffffffffffffff16021790555050565b6116c48061026a6000396000f3fe608060405234801561001057600080fd5b506004361061009e5760003560e01c80638da5cb5b116100665780638da5cb5b146101db5780638f32d59b1461020f578063c618a1e41461022f578063eb91d37e1461024d578063f2fde38b1461026b5761009e565b80634357855e146100a3578063508954f8146100db5780636021abac1461011f57806369fe0e2d1461013d5780637adbf97314610181575b600080fd5b6100d9600480360360408110156100b957600080fd5b8101908080359060200190929190803590602001909291905050506102af565b005b610107600480360360208110156100f157600080fd5b81019080803590602001909291905050506103d6565b60405180821515815260200191505060405180910390f35b610127610499565b6040518082815260200191505060405180910390f35b6101696004803603602081101561015357600080fd5b810190808035906020019092919050505061060a565b60405180821515815260200191505060405180910390f35b6101c36004803603602081101561019757600080fd5b81019080803573ffffffffffffffffffffffffffffffffffffffff1690602001909291905050506106cd565b60405180821515815260200191505060405180910390f35b6101e36107e0565b604051808273ffffffffffffffffffffffffffffffffffffffff16815260200191505060405180910390f35b61021761080a565b60405180821515815260200191505060405180910390f35b610237610862565b6040518082815260200191505060405180910390f35b610255610868565b6040518082815260200191505060405180910390f35b6102ad6004803603602081101561028157600080fd5b81019080803573ffffffffffffffffffffffffffffffffffffffff169060200190929190505050610872565b005b816005600082815260200190815260200160002060009054906101000a900473ffffffffffffffffffffffffffffffffffffffff1673ffffffffffffffffffffffffffffffffffffffff163373ffffffffffffffffffffffffffffffffffffffff1614610367576040517f08c379a00000000000000000000000000000000000000000000000000000000081526004018080602001828103825260288152602001806116676028913960400191505060405180910390fd5b6005600082815260200190815260200160002060006101000a81549073ffffffffffffffffffffffffffffffffffffffff0219169055807f7cc135e0cebb02c3480ae5d74d377283180a2601f8f644edf7987b009316c63a60405160405180910390a281600781905550505050565b60006103e061080a565b610452576040517f08c379a00000000000000000000000000000000000000000000000000000000081526004018080602001828103825260208152602001807f4f776e61626c653a2063616c6c6572206973206e6f7420746865206f776e657281525060200191505060405180910390fd5b816009819055507f59ca55783ea1d8ffc2259ac3aecc01befc1fd74cd2181d18ead3e1c0d70de91f826040518082815260200191505060405180910390a160019050919050565b60006104a36114dc565b6104b760095430634357855e60e01b6108f8565b905061051b6040518060400160405280600381526020017f67657400000000000000000000000000000000000000000000000000000000008152506040518060c00160405280608c81526020016115ad608c9139836109299092919063ffffffff16565b61057d6040518060400160405280600481526020017f70617468000000000000000000000000000000000000000000000000000000008152506040518060600160405280602e8152602001611639602e9139836109299092919063ffffffff16565b6000670de0b6b3a764000090506105d46040518060400160405280600581526020017f74696d6573000000000000000000000000000000000000000000000000000000815250828461095c9092919063ffffffff16565b610603600860009054906101000a900473ffffffffffffffffffffffffffffffffffffffff1683600a5461098f565b9250505090565b600061061461080a565b610686576040517f08c379a00000000000000000000000000000000000000000000000000000000081526004018080602001828103825260208152602001807f4f776e61626c653a2063616c6c6572206973206e6f7420746865206f776e657281525060200191505060405180910390fd5b81600a819055507f63fe946ed58429ac3c5e64d4356ff92c26d7fa1e73586515df8ba9f059ab54a5826040518082815260200191505060405180910390a160019050919050565b60006106d761080a565b610749576040517f08c379a00000000000000000000000000000000000000000000000000000000081526004018080602001828103825260208152602001807f4f776e61626c653a2063616c6c6572206973206e6f7420746865206f776e657281525060200191505060405180910390fd5b81600860006101000a81548173ffffffffffffffffffffffffffffffffffffffff021916908373ffffffffffffffffffffffffffffffffffffffff1602179055507fb3eacd0e351fafdfefdec84e1cd19679b38dbcd63ea7c2c24da17fd2bc3b3c0e82604051808273ffffffffffffffffffffffffffffffffffffffff16815260200191505060405180910390a160019050919050565b6000600660009054906101000a900473ffffffffffffffffffffffffffffffffffffffff16905090565b6000600660009054906101000a900473ffffffffffffffffffffffffffffffffffffffff1673ffffffffffffffffffffffffffffffffffffffff163373ffffffffffffffffffffffffffffffffffffffff1614905090565b60075481565b6000600754905090565b61087a61080a565b6108ec576040517f08c379a00000000000000000000000000000000000000000000000000000000081526004018080602001828103825260208152602001807f4f776e61626c653a2063616c6c6572206973206e6f7420746865206f776e657281525060200191505060405180910390fd5b6108f581610c18565b50565b6109006114dc565b6109086114dc565b61091f85858584610d5e909392919063ffffffff16565b9150509392505050565b610940828460800151610e0e90919063ffffffff16565b610957818460800151610e0e90919063ffffffff16565b505050565b610973828460800151610e0e90919063ffffffff16565b61098a818460800151610e3390919063ffffffff16565b505050565b600030600454604051602001808373ffffffffffffffffffffffffffffffffffffffff1660601b815260140182815260200192505050604051602081830303815290604052805190602001209050600454836060018181525050836005600083815260200190815260200160002060006101000a81548173ffffffffffffffffffffffffffffffffffffffff021916908373ffffffffffffffffffffffffffffffffffffffff160217905550807fb5e6e01e79f91267dc17b4e6314d5d4d03593d2ceee0fbb452b750bd70ea5af960405160405180910390a2600260009054906101000a900473ffffffffffffffffffffffffffffffffffffffff1673ffffffffffffffffffffffffffffffffffffffff16634000aea08584610ab187610ed7565b6040518463ffffffff1660e01b8152600401808473ffffffffffffffffffffffffffffffffffffffff16815260200183815260200180602001828103825283818151815260200191508051906020019080838360005b83811015610b22578082015181840152602081019050610b07565b50505050905090810190601f168015610b4f5780820380516001836020036101000a031916815260200191505b50945050505050602060405180830381600087803b158015610b7057600080fd5b505af1158015610b84573d6000803e3d6000fd5b505050506040513d6020811015610b9a57600080fd5b8101908080519060200190929190505050610c00576040517f08c379a000000000000000000000000000000000000000000000000000000000815260040180806020018281038252602381526020018061158a6023913960400191505060405180910390fd5b60016004600082825401925050819055509392505050565b600073ffffffffffffffffffffffffffffffffffffffff168173ffffffffffffffffffffffffffffffffffffffff161415610c9e576040517f08c379a00000000000000000000000000000000000000000000000000000000081526004018080602001828103825260268152602001806115646026913960400191505060405180910390fd5b8073ffffffffffffffffffffffffffffffffffffffff16600660009054906101000a900473ffffffffffffffffffffffffffffffffffffffff1673ffffffffffffffffffffffffffffffffffffffff167f8be0079c531659141344cd1fd0a4f28419497f9722a3daafe3b4186f6b6457e060405160405180910390a380600660006101000a81548173ffffffffffffffffffffffffffffffffffffffff021916908373ffffffffffffffffffffffffffffffffffffffff16021790555050565b610d666114dc565b610d768560800151610100611058565b508385600001818152505082856020019073ffffffffffffffffffffffffffffffffffffffff16908173ffffffffffffffffffffffffffffffffffffffff16815250508185604001907bffffffffffffffffffffffffffffffffffffffffffffffffffffffff191690817bffffffffffffffffffffffffffffffffffffffffffffffffffffffff191681525050849050949350505050565b610e1b82600383516110ac565b610e2e81836111f190919063ffffffff16565b505050565b7fffffffffffffffffffffffffffffffffffffffffffffffff0000000000000000811215610e6a57610e658282611213565b610ed3565b67ffffffffffffffff811315610e8957610e848282611281565b610ed2565b60008112610ea257610e9d826000836110ac565b610ed1565b610ed0826001837fffffffffffffffffffffffffffffffffffffffffffffffffffffffffffffffff036110ac565b5b5b5b5050565b6060634042994660e01b60008084600001518560200151866040015187606001516001896080015160000151604051602401808973ffffffffffffffffffffffffffffffffffffffff1681526020018881526020018781526020018673ffffffffffffffffffffffffffffffffffffffff168152602001857bffffffffffffffffffffffffffffffffffffffffffffffffffffffff1916815260200184815260200183815260200180602001828103825283818151815260200191508051906020019080838360005b83811015610fbb578082015181840152602081019050610fa0565b50505050905090810190601f168015610fe85780820380516001836020036101000a031916815260200191505b509950505050505050505050604051602081830303815290604052907bffffffffffffffffffffffffffffffffffffffffffffffffffffffff19166020820180517bffffffffffffffffffffffffffffffffffffffffffffffffffffffff83818316178352505050509050919050565b611060611549565b60006020838161106c57fe5b0614611085576020828161107c57fe5b06602003820191505b81836020018181525050604051808452600081528281016020016040525082905092915050565b601781116110d9576110d38160058460ff16901b60ff1617846112cd90919063ffffffff16565b506111ec565b60ff811161111b576110fe601860058460ff16901b17846112cd90919063ffffffff16565b50611115816001856112ed9092919063ffffffff16565b506111eb565b61ffff811161115e57611141601960058460ff16901b17846112cd90919063ffffffff16565b50611158816002856112ed9092919063ffffffff16565b506111ea565b63ffffffff81116111a357611186601a60058460ff16901b17846112cd90919063ffffffff16565b5061119d816004856112ed9092919063ffffffff16565b506111e9565b67ffffffffffffffff81116111e8576111cf601b60058460ff16901b17846112cd90919063ffffffff16565b506111e6816008856112ed9092919063ffffffff16565b505b5b5b5b5b505050565b6111f9611549565b61120b8384600001515184855161130f565b905092915050565b61123160036005600660ff16901b17836112cd90919063ffffffff16565b5061127d82827fffffffffffffffffffffffffffffffffffffffffffffffffffffffffffffffff03604051602001808281526020019150506040516020818303038152906040526113c8565b5050565b61129f60026005600660ff16901b17836112cd90919063ffffffff16565b506112c98282604051602001808281526020019150506040516020818303038152906040526113c8565b5050565b6112d5611549565b6112e583846000015151846113ed565b905092915050565b6112f5611549565b61130684856000015151858561143b565b90509392505050565b611317611549565b825182111561132557600080fd5b846020015182850111156113505761134f856002611349886020015188870161149c565b026114b8565b5b60008086518051876020830101935080888701111561136f5787860182525b60208701925050505b6020841061139b5780518252602082019150602081019050602084039350611378565b60006001856020036101000a03905080198251168184511681811785525050879350505050949350505050565b6113d582600283516110ac565b6113e881836111f190919063ffffffff16565b505050565b6113f5611549565b83602001518310611412576114118460028660200151026114b8565b5b835180516020858301018481538186141561142e576001820183525b5050508390509392505050565b611443611549565b8460200151848301111561146157611460856002868501026114b8565b5b60006001836101000a039050855183868201018583198251161781528151858801111561148e5784870182525b505085915050949350505050565b6000818311156114ae578290506114b2565b8190505b92915050565b6060826000015190506114cb8383611058565b506114d683826111f1565b50505050565b6040518060a0016040528060008019168152602001600073ffffffffffffffffffffffffffffffffffffffff16815260200160007bffffffffffffffffffffffffffffffffffffffffffffffffffffffff1916815260200160008152602001611543611549565b81525090565b60405180604001604052806060815260200160008152509056fe4f776e61626c653a206e6577206f776e657220697320746865207a65726f2061646472657373756e61626c6520746f207472616e73666572416e6443616c6c20746f206f7261636c6568747470733a2f2f6170692e636f696e6765636b6f2e636f6d2f6170692f76332f73696d706c652f746f6b656e5f70726963652f657468657265756d3f636f6e74726163745f6164647265737365733d3078323738313234366665373037626231356365653365356561333534653231353461323837376231362676735f63757272656e636965733d7573643078323738313234366665373037626231356365653365356561333534653231353461323837376231362e757364536f75726365206d75737420626520746865206f7261636c65206f66207468652072657175657374a26469706673582212209f75f1c4cba8a30189220e74bb5ff98f23b453f90735c5365043a248c8242c4e64736f6c634300060c0033"}}