{
  "opcodeHash": "0xc9e57feed4e6d4579779b6cee9039338fa7187e7657ba6a75ad3296017535113",
  "metalessHash": "0x8bdc455a81bb12e195329202a96b0cdf3a5fdb09dab37706b1f562f20fe895f6",
  "runtimeHash": "0x38bfe08cb58dc6b321ed8445f6523993c338553db79a6c7d0e1e718695492f52",
  "encodedMetadata": [
    {
      "ipfs": "/ipfs/QmQMzGTZkkEkFMcXVVJyC6H3tFd5vVghh3k2C56cnxsuLK",
      "solc": "0.8.1"
    }
  ],
  "abi": [
    {
      "inputs": [],
      "stateMutability": "nonpayable",
      "type": "constructor"
    },
    {
      "anonymous": false,
      "inputs": [
        {
          "indexed": true,
          "internalType": "address",
          "name": "owner",
          "type": "address"
        },
        {
          "indexed": true,
          "internalType": "address",
          "name": "spender",
          "type": "address"
        },
        {
          "indexed": false,
          "internalType": "uint256",
          "name": "value",
          "type": "uint256"
        }
      ],
      "name": "Approval",
      "type": "event"
    },
    {
      "anonymous": false,
      "inputs": [
        {
          "indexed": true,
          "internalType": "address",
          "name": "from",
          "type": "address"
        },
        {
          "indexed": true,
          "internalType": "address",
          "name": "to",
          "type": "address"
        },
        {
          "indexed": false,
          "internalType": "uint256",
          "name": "value",
          "type": "uint256"
        }
      ],
      "name": "Transfer",
      "type": "event"
    },
    {
      "inputs": [
        {
          "internalType": "address",
          "name": "owner",
          "type": "address"
        },
        {
          "internalType": "address",
          "name": "spender",
          "type": "address"
        }
      ],
      "name": "allowance",
      "outputs": [
        {
          "internalType": "uint256",
          "name": "",
          "type": "uint256"
        }
      ],
      "stateMutability": "view",
      "type": "function"
    },
    {
      "inputs": [
        {
          "internalType": "address",
          "name": "spender",
          "type": "address"
        },
        {
          "internalType": "uint256",
          "name": "amount",
          "type": "uint256"
        }
      ],
      "name": "approve",
      "outputs": [
        {
          "internalType": "bool",
          "name": "",
          "type": "bool"
        }
      ],
      "stateMutability": "nonpayable",
      "type": "function"
    },
    {
      "inputs": [
        {
          "internalType": "address",
          "name": "account",
          "type": "address"
        }
      ],
      "name": "balanceOf",
      "outputs": [
        {
          "internalType": "uint256",
          "name": "",
          "type": "uint256"
        }
      ],
      "stateMutability": "view",
      "type": "function"
    },
    {
      "inputs": [],
      "name": "decimals",
      "outputs": [
        {
          "internalType": "uint8",
          "name": "",
          "type": "uint8"
        }
      ],
      "stateMutability": "view",
      "type": "function"
    },
    {
      "inputs": [
        {
          "internalType": "address",
          "name": "spender",
          "type": "address"
        },
        {
          "internalType": "uint256",
          "name": "subtractedValue",
          "type": "uint256"
        }
      ],
      "name": "decreaseAllowance",
      "outputs": [
        {
          "internalType": "bool",
          "name": "",
          "type": "bool"
        }
      ],
      "stateMutability": "nonpayable",
      "type": "function"
    },
    {
      "inputs": [
        {
          "internalType": "address",
          "name": "spender",
          "type": "address"
        },
        {
          "internalType": "uint256",
          "name": "addedValue",
          "type": "uint256"
        }
      ],
      "name": "increaseAllowance",
      "outputs": [
        {
          "internalType": "bool",
          "name": "",
          "type": "bool"
        }
      ],
      "stateMutability": "nonpayable",
      "type": "function"
    },
    {
      "inputs": [],
      "name": "initialSupply",
      "outputs": [
        {
          "internalType": "uint256",
          "name": "",
          "type": "uint256"
        }
      ],
      "stateMutability": "view",
      "type": "function"
    },
    {
      "inputs": [],
      "name": "name",
      "outputs": [
        {
          "internalType": "string",
          "name": "",
          "type": "string"
        }
      ],
      "stateMutability": "view",
      "type": "function"
    },
    {
      "inputs": [],
      "name": "symbol",
      "outputs": [
        {
          "internalType": "string",
          "name": "",
          "type": "string"
        }
      ],
      "stateMutability": "view",
      "type": "function"
    },
    {
      "inputs": [],
      "name": "totalSupply",
      "outputs": [
        {
          "internalType": "uint256",
          "name": "",
          "type": "uint256"
        }
      ],
      "stateMutability": "view",
      "type": "function"
    },
    {
      "inputs": [
        {
          "internalType": "address",
          "name": "recipient",
          "type": "address"
        },
        {
          "internalType": "uint256",
          "name": "amount",
          "type": "uint256"
        }
      ],
      "name": "transfer",
      "outputs": [
        {
          "internalType": "bool",
          "name": "",
          "type": "bool"
        }
      ],
      "stateMutability": "nonpayable",
      "type": "function"
    },
    {
      "inputs": [
        {
          "internalType": "address",
          "name": "sender",
          "type": "address"
        },
        {
          "internalType": "address",
          "name": "recipient",
          "type": "address"
        },
        {
          "internalType": "uint256",
          "name": "amount",
          "type": "uint256"
        }
      ],
      "name": "transferFrom",
      "outputs": [
        {
          "internalType": "bool",
          "name": "",
          "type": "bool"
        }
      ],
      "stateMutability": "nonpayable",
      "type": "function"
    }
  ],
  "bytecode": {
    "object": "60806040526b21a8dd510e2ca364c2c000006005553480156200002157600080fd5b506040518060400160405280600f81526020017f57726170706564205361746f73686900000000000000000000000000000000008152506040518060400160405280600481526020017f57534154000000000000000000000000000000000000000000000000000000008152508160039080519060200190620000a692919062000246565b508060049080519060200190620000bf92919062000246565b505050620000d633600554620000dc60201b60201c565b620004a2565b600073ffffffffffffffffffffffffffffffffffffffff168273ffffffffffffffffffffffffffffffffffffffff1614156200014f576040517f08c379a000000000000000000000000000000000000000000000000000000000815260040162000146906200032e565b60405180910390fd5b62000163600083836200024160201b60201c565b80600260008282546200017791906200037e565b92505081905550806000808473ffffffffffffffffffffffffffffffffffffffff1673ffffffffffffffffffffffffffffffffffffffff1681526020019081526020016000206000828254620001ce91906200037e565b925050819055508173ffffffffffffffffffffffffffffffffffffffff16600073ffffffffffffffffffffffffffffffffffffffff167fddf252ad1be2c89b69c2b068fc378daa952ba7f163c4a11628f55a4df523b3ef8360405162000235919062000350565b60405180910390a35050565b505050565b8280546200025490620003e5565b90600052602060002090601f016020900481019282620002785760008555620002c4565b82601f106200029357805160ff1916838001178555620002c4565b82800160010185558215620002c4579182015b82811115620002c3578251825591602001919060010190620002a6565b5b509050620002d39190620002d7565b5090565b5b80821115620002f2576000816000905550600101620002d8565b5090565b600062000305601f836200036d565b9150620003128262000479565b602082019050919050565b6200032881620003db565b82525050565b600060208201905081810360008301526200034981620002f6565b9050919050565b60006020820190506200036760008301846200031d565b92915050565b600082825260208201905092915050565b60006200038b82620003db565b91506200039883620003db565b9250827fffffffffffffffffffffffffffffffffffffffffffffffffffffffffffffffff03821115620003d057620003cf6200041b565b5b828201905092915050565b6000819050919050565b60006002820490506001821680620003fe57607f821691505b602082108114156200041557620004146200044a565b5b50919050565b7f4e487b7100000000000000000000000000000000000000000000000000000000600052601160045260246000fd5b7f4e487b7100000000000000000000000000000000000000000000000000000000600052602260045260246000fd5b7f45524332303a206d696e7420746f20746865207a65726f206164647265737300600082015250565b61140380620004b26000396000f3fe608060405234801561001057600080fd5b50600436106100b45760003560e01c80633950935111610071578063395093511461019157806370a08231146101c157806395d89b41146101f1578063a457c2d71461020f578063a9059cbb1461023f578063dd62ed3e1461026f576100b4565b806306fdde03146100b9578063095ea7b3146100d757806318160ddd1461010757806323b872dd14610125578063313ce56714610155578063378dc3dc14610173575b600080fd5b6100c161029f565b6040516100ce9190610e6f565b60405180910390f35b6100f160048036038101906100ec9190610cbd565b610331565b6040516100fe9190610e54565b60405180910390f35b61010f61034f565b60405161011c9190610f71565b60405180910390f35b61013f600480360381019061013a9190610c6e565b610359565b60405161014c9190610e54565b60405180910390f35b61015d61045a565b60405161016a9190610f8c565b60405180910390f35b61017b610463565b6040516101889190610f71565b60405180910390f35b6101ab60048036038101906101a69190610cbd565b610469565b6040516101b89190610e54565b60405180910390f35b6101db60048036038101906101d69190610c09565b610515565b6040516101e89190610f71565b60405180910390f35b6101f961055d565b6040516102069190610e6f565b60405180910390f35b61022960048036038101906102249190610cbd565b6105ef565b6040516102369190610e54565b60405180910390f35b61025960048036038101906102549190610cbd565b6106e3565b6040516102669190610e54565b60405180910390f35b61028960048036038101906102849190610c32565b610701565b6040516102969190610f71565b60405180910390f35b6060600380546102ae906110d5565b80601f01602080910402602001604051908101604052809291908181526020018280546102da906110d5565b80156103275780601f106102fc57610100808354040283529160200191610327565b820191906000526020600020905b81548152906001019060200180831161030a57829003601f168201915b5050505050905090565b600061034561033e610788565b8484610790565b6001905092915050565b6000600254905090565b600061036684848461095b565b6000600160008673ffffffffffffffffffffffffffffffffffffffff1673ffffffffffffffffffffffffffffffffffffffff16815260200190815260200160002060006103b1610788565b73ffffffffffffffffffffffffffffffffffffffff1673ffffffffffffffffffffffffffffffffffffffff16815260200190815260200160002054905082811015610431576040517f08c379a000000000000000000000000000000000000000000000000000000000815260040161042890610ef1565b60405180910390fd5b61044e8561043d610788565b85846104499190611019565b610790565b60019150509392505050565b60006012905090565b60055481565b600061050b610476610788565b848460016000610484610788565b73ffffffffffffffffffffffffffffffffffffffff1673ffffffffffffffffffffffffffffffffffffffff16815260200190815260200160002060008873ffffffffffffffffffffffffffffffffffffffff1673ffffffffffffffffffffffffffffffffffffffff168152602001908152602001600020546105069190610fc3565b610790565b6001905092915050565b60008060008373ffffffffffffffffffffffffffffffffffffffff1673ffffffffffffffffffffffffffffffffffffffff168152602001908152602001600020549050919050565b60606004805461056c906110d5565b80601f0160208091040260200160405190810160405280929190818152602001828054610598906110d5565b80156105e55780601f106105ba576101008083540402835291602001916105e5565b820191906000526020600020905b8154815290600101906020018083116105c857829003601f168201915b5050505050905090565b600080600160006105fe610788565b73ffffffffffffffffffffffffffffffffffffffff1673ffffffffffffffffffffffffffffffffffffffff16815260200190815260200160002060008573ffffffffffffffffffffffffffffffffffffffff1673ffffffffffffffffffffffffffffffffffffffff168152602001908152602001600020549050828110156106bb576040517f08c379a00000000000000000000000000000000000000000000000000000000081526004016106b290610f51565b60405180910390fd5b6106d86106c6610788565b8585846106d39190611019565b610790565b600191505092915050565b60006106f76106f0610788565b848461095b565b6001905092915050565b6000600160008473ffffffffffffffffffffffffffffffffffffffff1673ffffffffffffffffffffffffffffffffffffffff16815260200190815260200160002060008373ffffffffffffffffffffffffffffffffffffffff1673ffffffffffffffffffffffffffffffffffffffff16815260200190815260200160002054905092915050565b600033905090565b600073ffffffffffffffffffffffffffffffffffffffff168373ffffffffffffffffffffffffffffffffffffffff161415610800576040517f08c379a00000000000000000000000000000000000000000000000000000000081526004016107f790610f31565b60405180910390fd5b600073ffffffffffffffffffffffffffffffffffffffff168273ffffffffffffffffffffffffffffffffffffffff161415610870576040517f08c379a000000000000000000000000000000000000000000000000000000000815260040161086790610eb1565b60405180910390fd5b80600160008573ffffffffffffffffffffffffffffffffffffffff1673ffffffffffffffffffffffffffffffffffffffff16815260200190815260200160002060008473ffffffffffffffffffffffffffffffffffffffff1673ffffffffffffffffffffffffffffffffffffffff168152602001908152602001600020819055508173ffffffffffffffffffffffffffffffffffffffff168373ffffffffffffffffffffffffffffffffffffffff167f8c5be1e5ebec7d5bd14f71427d1e84f3dd0314c0f7b2291e5b200ac8c7c3b9258360405161094e9190610f71565b60405180910390a3505050565b600073ffffffffffffffffffffffffffffffffffffffff168373ffffffffffffffffffffffffffffffffffffffff1614156109cb576040517f08c379a00000000000000000000000000000000000000000000000000000000081526004016109c290610f11565b60405180910390fd5b600073ffffffffffffffffffffffffffffffffffffffff168273ffffffffffffffffffffffffffffffffffffffff161415610a3b576040517f08c379a0000000000000000000000000000000000000000000000000000000008152600401610a3290610e91565b60405180910390fd5b610a46838383610bda565b60008060008573ffffffffffffffffffffffffffffffffffffffff1673ffffffffffffffffffffffffffffffffffffffff16815260200190815260200160002054905081811015610acc576040517f08c379a0000000000000000000000000000000000000000000000000000000008152600401610ac390610ed1565b60405180910390fd5b8181610ad89190611019565b6000808673ffffffffffffffffffffffffffffffffffffffff1673ffffffffffffffffffffffffffffffffffffffff16815260200190815260200160002081905550816000808573ffffffffffffffffffffffffffffffffffffffff1673ffffffffffffffffffffffffffffffffffffffff1681526020019081526020016000206000828254610b689190610fc3565b925050819055508273ffffffffffffffffffffffffffffffffffffffff168473ffffffffffffffffffffffffffffffffffffffff167fddf252ad1be2c89b69c2b068fc378daa952ba7f163c4a11628f55a4df523b3ef84604051610bcc9190610f71565b60405180910390a350505050565b505050565b600081359050610bee8161139f565b92915050565b600081359050610c03816113b6565b92915050565b600060208284031215610c1b57600080fd5b6000610c2984828501610bdf565b91505092915050565b60008060408385031215610c4557600080fd5b6000610c5385828601610bdf565b9250506020610c6485828601610bdf565b9150509250929050565b600080600060608486031215610c8357600080fd5b6000610c9186828701610bdf565b9350506020610ca286828701610bdf565b9250506040610cb386828701610bf4565b9150509250925092565b60008060408385031215610cd057600080fd5b6000610cde85828601610bdf565b9250506020610cef85828601610bf4565b9150509250929050565b610d028161105f565b82525050565b6000610d1382610fa7565b610d1d8185610fb2565b9350610d2d8185602086016110a2565b610d3681611165565b840191505092915050565b6000610d4e602383610fb2565b9150610d5982611176565b604082019050919050565b6000610d71602283610fb2565b9150610d7c826111c5565b604082019050919050565b6000610d94602683610fb2565b9150610d9f82611214565b604082019050919050565b6000610db7602883610fb2565b9150610dc282611263565b604082019050919050565b6000610dda602583610fb2565b9150610de5826112b2565b604082019050919050565b6000610dfd602483610fb2565b9150610e0882611301565b604082019050919050565b6000610e20602583610fb2565b9150610e2b82611350565b604082019050919050565b610e3f8161108b565b82525050565b610e4e81611095565b82525050565b6000602082019050610e696000830184610cf9565b92915050565b60006020820190508181036000830152610e898184610d08565b905092915050565b60006020820190508181036000830152610eaa81610d41565b9050919050565b60006020820190508181036000830152610eca81610d64565b9050919050565b60006020820190508181036000830152610eea81610d87565b9050919050565b60006020820190508181036000830152610f0a81610daa565b9050919050565b60006020820190508181036000830152610f2a81610dcd565b9050919050565b60006020820190508181036000830152610f4a81610df0565b9050919050565b60006020820190508181036000830152610f6a81610e13565b9050919050565b6000602082019050610f866000830184610e36565b92915050565b6000602082019050610fa16000830184610e45565b92915050565b600081519050919050565b600082825260208201905092915050565b6000610fce8261108b565b9150610fd98361108b565b9250827fffffffffffffffffffffffffffffffffffffffffffffffffffffffffffffffff0382111561100e5761100d611107565b5b828201905092915050565b60006110248261108b565b915061102f8361108b565b92508282101561104257611041611107565b5b828203905092915050565b60006110588261106b565b9050919050565b60008115159050919050565b600073ffffffffffffffffffffffffffffffffffffffff82169050919050565b6000819050919050565b600060ff82169050919050565b60005b838110156110c05780820151818401526020810190506110a5565b838111156110cf576000848401525b50505050565b600060028204905060018216806110ed57607f821691505b6020821081141561110157611100611136565b5b50919050565b7f4e487b7100000000000000000000000000000000000000000000000000000000600052601160045260246000fd5b7f4e487b7100000000000000000000000000000000000000000000000000000000600052602260045260246000fd5b6000601f19601f8301169050919050565b7f45524332303a207472616e7366657220746f20746865207a65726f206164647260008201527f6573730000000000000000000000000000000000000000000000000000000000602082015250565b7f45524332303a20617070726f766520746f20746865207a65726f20616464726560008201527f7373000000000000000000000000000000000000000000000000000000000000602082015250565b7f45524332303a207472616e7366657220616d6f756e742065786365656473206260008201527f616c616e63650000000000000000000000000000000000000000000000000000602082015250565b7f45524332303a207472616e7366657220616d6f756e742065786365656473206160008201527f6c6c6f77616e6365000000000000000000000000000000000000000000000000602082015250565b7f45524332303a207472616e736665722066726f6d20746865207a65726f20616460008201527f6472657373000000000000000000000000000000000000000000000000000000602082015250565b7f45524332303a20617070726f76652066726f6d20746865207a65726f2061646460008201527f7265737300000000000000000000000000000000000000000000000000000000602082015250565b7f45524332303a2064656372656173656420616c6c6f77616e63652062656c6f7760008201527f207a65726f000000000000000000000000000000000000000000000000000000602082015250565b6113a88161104d565b81146113b357600080fd5b50565b6113bf8161108b565b81146113ca57600080fd5b5056fea264697066735822122015e6d22c4bc86350909ca06742363e1ffb6d4423bc986950f1fd07cfa6f9c47a64736f6c63430008010033"
  }
}