{
  "opcodeHash": "0xe78edb6477076fdd8b139c93d1f9d4c4b6fe5c8368a6706d07d0b0596684dbfe",
  "metalessHash": "0x0acdc98f65e69f9ae280f85bd4b4d71fd021602be1e3584df68802afa65478c7",
  "runtimeHash": "0x638ed18d36dcc1b79ceec4c1e963507a9a9f8fd688608c09a21fe084cc9c95aa",
  "encodedMetadata": [
    {
      "ipfs": "/ipfs/QmPyCi9eVYWdXirrcY6GT3B7nFBZ8gzuXiGgoAo9kaDLuw",
      "solc": "0.8.10"
    }
  ],
  "abi": [
    {
      "inputs": [],
      "stateMutability": "nonpayable",
      "type": "constructor"
    },
    {
      "anonymous": false,
      "inputs": [
        {
          "indexed": true,
          "internalType": "address",
          "name": "owner",
          "type": "address"
        },
        {
          "indexed": true,
          "internalType": "address",
          "name": "spender",
          "type": "address"
        },
        {
          "indexed": false,
          "internalType": "uint256",
          "name": "value",
          "type": "uint256"
        }
      ],
      "name": "Approval",
      "type": "event"
    },
    {
      "anonymous": false,
      "inputs": [
        {
          "indexed": true,
          "internalType": "address",
          "name": "previousOwner",
          "type": "address"
        },
        {
          "indexed": true,
          "internalType": "address",
          "name": "newOwner",
          "type": "address"
        }
      ],
      "name": "OwnershipTransferred",
      "type": "event"
    },
    {
      "anonymous": false,
      "inputs": [
        {
          "indexed": true,
          "internalType": "address",
          "name": "from",
          "type": "address"
        },
        {
          "indexed": true,
          "internalType": "address",
          "name": "to",
          "type": "address"
        },
        {
          "indexed": false,
          "internalType": "uint256",
          "name": "value",
          "type": "uint256"
        }
      ],
      "name": "Transfer",
      "type": "event"
    },
    {
      "inputs": [
        {
          "internalType": "address",
          "name": "owner",
          "type": "address"
        },
        {
          "internalType": "address",
          "name": "spender",
          "type": "address"
        }
      ],
      "name": "allowance",
      "outputs": [
        {
          "internalType": "uint256",
          "name": "",
          "type": "uint256"
        }
      ],
      "stateMutability": "view",
      "type": "function"
    },
    {
      "inputs": [
        {
          "internalType": "address",
          "name": "spender",
          "type": "address"
        },
        {
          "internalType": "uint256",
          "name": "amount",
          "type": "uint256"
        }
      ],
      "name": "approve",
      "outputs": [
        {
          "internalType": "bool",
          "name": "",
          "type": "bool"
        }
      ],
      "stateMutability": "nonpayable",
      "type": "function"
    },
    {
      "inputs": [
        {
          "internalType": "address",
          "name": "account",
          "type": "address"
        }
      ],
      "name": "balanceOf",
      "outputs": [
        {
          "internalType": "uint256",
          "name": "",
          "type": "uint256"
        }
      ],
      "stateMutability": "view",
      "type": "function"
    },
    {
      "inputs": [],
      "name": "decimals",
      "outputs": [
        {
          "internalType": "uint8",
          "name": "",
          "type": "uint8"
        }
      ],
      "stateMutability": "pure",
      "type": "function"
    },
    {
      "inputs": [
        {
          "internalType": "uint256",
          "name": "newTaxRate",
          "type": "uint256"
        }
      ],
      "name": "lowerTax",
      "outputs": [],
      "stateMutability": "nonpayable",
      "type": "function"
    },
    {
      "inputs": [],
      "name": "manualSend",
      "outputs": [],
      "stateMutability": "nonpayable",
      "type": "function"
    },
    {
      "inputs": [],
      "name": "manualSwap",
      "outputs": [],
      "stateMutability": "nonpayable",
      "type": "function"
    },
    {
      "inputs": [],
      "name": "name",
      "outputs": [
        {
          "internalType": "string",
          "name": "",
          "type": "string"
        }
      ],
      "stateMutability": "pure",
      "type": "function"
    },
    {
      "inputs": [],
      "name": "owner",
      "outputs": [
        {
          "internalType": "address",
          "name": "",
          "type": "address"
        }
      ],
      "stateMutability": "view",
      "type": "function"
    },
    {
      "inputs": [],
      "name": "removeBuyLimit",
      "outputs": [],
      "stateMutability": "nonpayable",
      "type": "function"
    },
    {
      "inputs": [],
      "name": "renounceOwnership",
      "outputs": [],
      "stateMutability": "nonpayable",
      "type": "function"
    },
    {
      "inputs": [],
      "name": "startTrading",
      "outputs": [],
      "stateMutability": "nonpayable",
      "type": "function"
    },
    {
      "inputs": [],
      "name": "symbol",
      "outputs": [
        {
          "internalType": "string",
          "name": "",
          "type": "string"
        }
      ],
      "stateMutability": "pure",
      "type": "function"
    },
    {
      "inputs": [],
      "name": "totalSupply",
      "outputs": [
        {
          "internalType": "uint256",
          "name": "",
          "type": "uint256"
        }
      ],
      "stateMutability": "pure",
      "type": "function"
    },
    {
      "inputs": [
        {
          "internalType": "address",
          "name": "recipient",
          "type": "address"
        },
        {
          "internalType": "uint256",
          "name": "amount",
          "type": "uint256"
        }
      ],
      "name": "transfer",
      "outputs": [
        {
          "internalType": "bool",
          "name": "",
          "type": "bool"
        }
      ],
      "stateMutability": "nonpayable",
      "type": "function"
    },
    {
      "inputs": [
        {
          "internalType": "address",
          "name": "sender",
          "type": "address"
        },
        {
          "internalType": "address",
          "name": "recipient",
          "type": "address"
        },
        {
          "internalType": "uint256",
          "name": "amount",
          "type": "uint256"
        }
      ],
      "name": "transferFrom",
      "outputs": [
        {
          "internalType": "bool",
          "name": "",
          "type": "bool"
        }
      ],
      "stateMutability": "nonpayable",
      "type": "function"
    },
    {
      "stateMutability": "payable",
      "type": "receive"
    }
  ],
  "bytecode": {
    "object": "6080604052620000126006600a62000369565b62000022906305f5e1006200037a565b6200003090600019620003b2565b6200003e90600019620003c9565b600555600c805461ffff60a81b191690553480156200005c57600080fd5b50600080546001600160a01b031916339081178255604051909182917f8be0079c531659141344cd1fd0a4f28419497f9722a3daafe3b4186f6b6457e0908290a35060098054336001600160a01b0319918216178255600160078190556008839055600b8054909216737a250d5630b4cf539739df2c5dacb4c659f2488d179091556005543060009081526002602090815260408083209390935560049052818120805460ff19908116851790915593546001600160a01b03168152208054909216179055620001596019620001356006600a62000369565b62000145906305f5e1006200037a565b620001be60201b620008d61790919060201c565b600a55336001600160a01b031660007fddf252ad1be2c89b69c2b068fc378daa952ba7f163c4a11628f55a4df523b3ef620001976006600a62000369565b620001a7906305f5e1006200037a565b60405190815260200160405180910390a362000452565b60006200020883836040518060400160405280601a81526020017f536166654d6174683a206469766973696f6e206279207a65726f0000000000008152506200021160201b60201c565b90505b92915050565b600081836200023e5760405162461bcd60e51b8152600401620002359190620003e3565b60405180910390fd5b5060006200024d84866200043b565b95945050505050565b634e487b7160e01b600052601160045260246000fd5b600181815b80851115620002ad57816000190482111562000291576200029162000256565b808516156200029f57918102915b93841c939080029062000271565b509250929050565b600082620002c6575060016200020b565b81620002d5575060006200020b565b8160018114620002ee5760028114620002f95762000319565b60019150506200020b565b60ff8411156200030d576200030d62000256565b50506001821b6200020b565b5060208310610133831016604e8410600b84101617156200033e575081810a6200020b565b6200034a83836200026c565b806000190482111562000361576200036162000256565b029392505050565b60006200020860ff841683620002b5565b600081600019048311821515161562000397576200039762000256565b500290565b634e487b7160e01b600052601260045260246000fd5b600082620003c457620003c46200039c565b500690565b600082821015620003de57620003de62000256565b500390565b600060208083528351808285015260005b818110156200041257858101830151858201604001528201620003f4565b8181111562000425576000604083870101525b50601f01601f1916929092016040019392505050565b6000826200044d576200044d6200039c565b500490565b6117ad80620004626000396000f3fe6080604052600436106100f75760003560e01c806370a082311161008a5780639e752b95116100595780639e752b95146102a2578063a9059cbb146102c2578063dd62ed3e146102e2578063f42938901461032857600080fd5b806370a0823114610219578063715018a6146102395780638da5cb5b1461024e57806395d89b411461027657600080fd5b8063293230b8116100c6578063293230b8146101bc578063313ce567146101d35780633e07ce5b146101ef57806351bc3c851461020457600080fd5b806306fdde0314610103578063095ea7b31461014957806318160ddd1461017957806323b872dd1461019c57600080fd5b366100fe57005b600080fd5b34801561010f57600080fd5b5060408051808201909152600b81526a5175616e74756d2044414f60a81b60208201525b604051610140919061139c565b60405180910390f35b34801561015557600080fd5b50610169610164366004611406565b61033d565b6040519015158152602001610140565b34801561018557600080fd5b5061018e610354565b604051908152602001610140565b3480156101a857600080fd5b506101696101b7366004611432565b610375565b3480156101c857600080fd5b506101d16103de565b005b3480156101df57600080fd5b5060405160068152602001610140565b3480156101fb57600080fd5b506101d1610756565b34801561021057600080fd5b506101d161078c565b34801561022557600080fd5b5061018e610234366004611473565b6107b9565b34801561024557600080fd5b506101d16107db565b34801561025a57600080fd5b506000546040516001600160a01b039091168152602001610140565b34801561028257600080fd5b5060408051808201909152600381526214551160ea1b6020820152610133565b3480156102ae57600080fd5b506101d16102bd366004611490565b61087f565b3480156102ce57600080fd5b506101696102dd366004611406565b6108a8565b3480156102ee57600080fd5b5061018e6102fd3660046114a9565b6001600160a01b03918216600090815260036020908152604080832093909416825291909152205490565b34801561033457600080fd5b506101d16108b5565b600061034a33848461091f565b5060015b92915050565b60006103626006600a6115dc565b610370906305f5e1006115eb565b905090565b6000610382848484610a43565b6103d484336103cf85604051806060016040528060288152602001611750602891396001600160a01b038a1660009081526003602090815260408083203384529091529020549190610cc8565b61091f565b5060019392505050565b6009546001600160a01b031633146103f557600080fd5b600c54600160a01b900460ff16156104545760405162461bcd60e51b815260206004820152601760248201527f54726164696e6720697320616c7265616479206f70656e00000000000000000060448201526064015b60405180910390fd5b600b546104809030906001600160a01b03166104726006600a6115dc565b6103cf906305f5e1006115eb565b600b60009054906101000a90046001600160a01b03166001600160a01b031663c45a01556040518163ffffffff1660e01b8152600401602060405180830381865afa1580156104d3573d6000803e3d6000fd5b505050506040513d601f19601f820116820180604052508101906104f7919061160a565b6001600160a01b031663c9c6539630600b60009054906101000a90046001600160a01b03166001600160a01b031663ad5c46486040518163ffffffff1660e01b8152600401602060405180830381865afa158015610559573d6000803e3d6000fd5b505050506040513d601f19601f8201168201806040525081019061057d919061160a565b6040516001600160e01b031960e085901b1681526001600160a01b039283166004820152911660248201526044016020604051808303816000875af11580156105ca573d6000803e3d6000fd5b505050506040513d601f19601f820116820180604052508101906105ee919061160a565b600c80546001600160a01b0319166001600160a01b03928316179055600b541663f305d719473061061e816107b9565b6000806106336000546001600160a01b031690565b60405160e088901b6001600160e01b03191681526001600160a01b03958616600482015260248101949094526044840192909252606483015290911660848201524260a482015260c40160606040518083038185885af115801561069b573d6000803e3d6000fd5b50505050506040513d601f19601f820116820180604052508101906106c09190611627565b5050600c805462ff00ff60a01b1981166201000160a01b17909155600b5460405163095ea7b360e01b81526001600160a01b03918216600482015260001960248201529116915063095ea7b3906044016020604051808303816000875af115801561072f573d6000803e3d6000fd5b505050506040513d601f19601f820116820180604052508101906107539190611655565b50565b6009546001600160a01b0316331461076d57600080fd5b6107796006600a6115dc565b610787906305f5e1006115eb565b600a55565b6009546001600160a01b031633146107a357600080fd5b60006107ae306107b9565b905061075381610d02565b6001600160a01b03811660009081526002602052604081205461034e90610e7c565b6000546001600160a01b031633146108355760405162461bcd60e51b815260206004820181905260248201527f4f776e61626c653a2063616c6c6572206973206e6f7420746865206f776e6572604482015260640161044b565b600080546040516001600160a01b03909116907f8be0079c531659141344cd1fd0a4f28419497f9722a3daafe3b4186f6b6457e0908390a3600080546001600160a01b0319169055565b6009546001600160a01b0316331461089657600080fd5b600981106108a357600080fd5b600855565b600061034a338484610a43565b6009546001600160a01b031633146108cc57600080fd5b4761075381610ef9565b600061091883836040518060400160405280601a81526020017f536166654d6174683a206469766973696f6e206279207a65726f000000000000815250610f37565b9392505050565b6001600160a01b0383166109815760405162461bcd60e51b8152602060048201526024808201527f45524332303a20617070726f76652066726f6d20746865207a65726f206164646044820152637265737360e01b606482015260840161044b565b6001600160a01b0382166109e25760405162461bcd60e51b815260206004820152602260248201527f45524332303a20617070726f766520746f20746865207a65726f206164647265604482015261737360f01b606482015260840161044b565b6001600160a01b0383811660008181526003602090815260408083209487168084529482529182902085905590518481527f8c5be1e5ebec7d5bd14f71427d1e84f3dd0314c0f7b2291e5b200ac8c7c3b925910160405180910390a3505050565b6001600160a01b038316610aa75760405162461bcd60e51b815260206004820152602560248201527f45524332303a207472616e736665722066726f6d20746865207a65726f206164604482015264647265737360d81b606482015260840161044b565b6001600160a01b038216610b095760405162461bcd60e51b815260206004820152602360248201527f45524332303a207472616e7366657220746f20746865207a65726f206164647260448201526265737360e81b606482015260840161044b565b60008111610b6b5760405162461bcd60e51b815260206004820152602960248201527f5472616e7366657220616d6f756e74206d7573742062652067726561746572206044820152687468616e207a65726f60b81b606482015260840161044b565b6000546001600160a01b03848116911614801590610b9757506000546001600160a01b03838116911614155b15610cb857600c546001600160a01b038481169116148015610bc75750600b546001600160a01b03838116911614155b8015610bec57506001600160a01b03821660009081526004602052604090205460ff16155b15610c4257600a548110610c425760405162461bcd60e51b815260206004820152601a60248201527f5472616e73616374696f6e20616d6f756e74206c696d69746564000000000000604482015260640161044b565b6000610c4d306107b9565b600c54909150600160a81b900460ff16158015610c785750600c546001600160a01b03858116911614155b8015610c8d5750600c54600160b01b900460ff165b15610cb657610c9b81610d02565b47670de0b6b3a76400008110610cb457610cb447610ef9565b505b505b610cc3838383610f65565b505050565b60008184841115610cec5760405162461bcd60e51b815260040161044b919061139c565b506000610cf98486611677565b95945050505050565b600c805460ff60a81b1916600160a81b1790556040805160028082526060820183526000926020830190803683370190505090503081600081518110610d4a57610d4a61168e565b6001600160a01b03928316602091820292909201810191909152600b54604080516315ab88c960e31b81529051919093169263ad5c46489260048083019391928290030181865afa158015610da3573d6000803e3d6000fd5b505050506040513d601f19601f82011682018060405250810190610dc7919061160a565b81600181518110610dda57610dda61168e565b6001600160a01b039283166020918202929092010152600b54610e00913091168461091f565b600b5460405163791ac94760e01b81526001600160a01b039091169063791ac94790610e399085906000908690309042906004016116a4565b600060405180830381600087803b158015610e5357600080fd5b505af1158015610e67573d6000803e3d6000fd5b5050600c805460ff60a81b1916905550505050565b6000600554821115610ee35760405162461bcd60e51b815260206004820152602a60248201527f416d6f756e74206d757374206265206c657373207468616e20746f74616c207260448201526965666c656374696f6e7360b01b606482015260840161044b565b6000610eed610f70565b905061091883826108d6565b6009546040516001600160a01b039091169082156108fc029083906000818181858888f19350505050158015610f33573d6000803e3d6000fd5b5050565b60008183610f585760405162461bcd60e51b815260040161044b919061139c565b506000610cf98486611715565b610cc3838383610f93565b6000806000610f7d61108a565b9092509050610f8c82826108d6565b9250505090565b600080600080600080610fa58761110c565b6001600160a01b038f16600090815260026020526040902054959b50939950919750955093509150610fd79087611169565b6001600160a01b03808b1660009081526002602052604080822093909355908a168152205461100690866111ab565b6001600160a01b0389166000908152600260205260409020556110288161120a565b6110328483611254565b876001600160a01b0316896001600160a01b03167fddf252ad1be2c89b69c2b068fc378daa952ba7f163c4a11628f55a4df523b3ef8560405161107791815260200190565b60405180910390a3505050505050505050565b60055460009081908161109f6006600a6115dc565b6110ad906305f5e1006115eb565b90506110d56110be6006600a6115dc565b6110cc906305f5e1006115eb565b600554906108d6565b821015611103576005546110eb6006600a6115dc565b6110f9906305f5e1006115eb565b9350935050509091565b90939092509050565b60008060008060008060008060006111298a600754600854611278565b9250925092506000611139610f70565b9050600080600061114c8e8787876112cd565b919e509c509a509598509396509194505050505091939550919395565b600061091883836040518060400160405280601e81526020017f536166654d6174683a207375627472616374696f6e206f766572666c6f770000815250610cc8565b6000806111b88385611737565b9050838110156109185760405162461bcd60e51b815260206004820152601b60248201527f536166654d6174683a206164646974696f6e206f766572666c6f770000000000604482015260640161044b565b6000611214610f70565b90506000611222838361131d565b3060009081526002602052604090205490915061123f90826111ab565b30600090815260026020526040902055505050565b6005546112619083611169565b60055560065461127190826111ab565b6006555050565b6000808080611292606461128c898961131d565b906108d6565b905060006112a5606461128c8a8961131d565b905060006112bd826112b78b86611169565b90611169565b9992985090965090945050505050565b60008080806112dc888661131d565b905060006112ea888761131d565b905060006112f8888861131d565b9050600061130a826112b78686611169565b939b939a50919850919650505050505050565b60008261132c5750600061034e565b600061133883856115eb565b9050826113458583611715565b146109185760405162461bcd60e51b815260206004820152602160248201527f536166654d6174683a206d756c7469706c69636174696f6e206f766572666c6f6044820152607760f81b606482015260840161044b565b600060208083528351808285015260005b818110156113c9578581018301518582016040015282016113ad565b818111156113db576000604083870101525b50601f01601f1916929092016040019392505050565b6001600160a01b038116811461075357600080fd5b6000806040838503121561141957600080fd5b8235611424816113f1565b946020939093013593505050565b60008060006060848603121561144757600080fd5b8335611452816113f1565b92506020840135611462816113f1565b929592945050506040919091013590565b60006020828403121561148557600080fd5b8135610918816113f1565b6000602082840312156114a257600080fd5b5035919050565b600080604083850312156114bc57600080fd5b82356114c7816113f1565b915060208301356114d7816113f1565b809150509250929050565b634e487b7160e01b600052601160045260246000fd5b600181815b80851115611533578160001904821115611519576115196114e2565b8085161561152657918102915b93841c93908002906114fd565b509250929050565b60008261154a5750600161034e565b816115575750600061034e565b816001811461156d576002811461157757611593565b600191505061034e565b60ff841115611588576115886114e2565b50506001821b61034e565b5060208310610133831016604e8410600b84101617156115b6575081810a61034e565b6115c083836114f8565b80600019048211156115d4576115d46114e2565b029392505050565b600061091860ff84168361153b565b6000816000190483118215151615611605576116056114e2565b500290565b60006020828403121561161c57600080fd5b8151610918816113f1565b60008060006060848603121561163c57600080fd5b8351925060208401519150604084015190509250925092565b60006020828403121561166757600080fd5b8151801515811461091857600080fd5b600082821015611689576116896114e2565b500390565b634e487b7160e01b600052603260045260246000fd5b600060a082018783526020878185015260a0604085015281875180845260c086019150828901935060005b818110156116f45784516001600160a01b0316835293830193918301916001016116cf565b50506001600160a01b03969096166060850152505050608001529392505050565b60008261173257634e487b7160e01b600052601260045260246000fd5b500490565b6000821982111561174a5761174a6114e2565b50019056fe45524332303a207472616e7366657220616d6f756e74206578636565647320616c6c6f77616e6365a2646970667358221220e965e1693d1441bf7f7a8f9f34a097525af46a4943ea564b00749080c9f8c87c64736f6c634300080a0033"
  }
}