{
  "opcodeHash": "0x924691aafd84325b5890f34758b576ce7a5bc5c89f6c8d02a05601733db026f3",
  "metalessHash": "0x4198bb783aa6ff63501ed2cd7cc8b047368bba28b499e4a2c40d23f5616513d0",
  "runtimeHash": "0x0fcb1f19d35851c02ac8c4cf693ae64d396a03e96899085afbba2c77312c5962",
  "encodedMetadata": [
    {
      "bzzr1": "/swarm/bzzr1/c86d3552dd2fda802a0d663b47cc80638fac6376baea180866c558b810f18725",
      "solc": "0.5.12"
    }
  ],
  "abi": [
    {
      "inputs": [
        {
          "internalType": "address",
          "name": "rewarder0",
          "type": "address"
        },
        {
          "internalType": "address",
          "name": "rewarder1",
          "type": "address"
        }
      ],
      "payable": false,
      "stateMutability": "nonpayable",
      "type": "constructor"
    },
    {
      "constant": false,
      "inputs": [],
      "name": "claimReward",
      "outputs": [],
      "payable": false,
      "stateMutability": "nonpayable",
      "type": "function"
    },
    {
      "constant": true,
      "inputs": [],
      "name": "earned",
      "outputs": [
        {
          "internalType": "uint256",
          "name": "res",
          "type": "uint256"
        }
      ],
      "payable": false,
      "stateMutability": "view",
      "type": "function"
    },
    {
      "constant": true,
      "inputs": [
        {
          "internalType": "uint256",
          "name": "",
          "type": "uint256"
        }
      ],
      "name": "rewarders",
      "outputs": [
        {
          "internalType": "contract StakingRewardsDecay",
          "name": "",
          "type": "address"
        }
      ],
      "payable": false,
      "stateMutability": "view",
      "type": "function"
    }
  ],
  "bytecode": {
    "object": "608060405234801561001057600080fd5b506040516103183803806103188339818101604052604081101561003357600080fd5b508051602090910151600080546001600160a01b039384166001600160a01b03199182161782556001805494909316931692909217905561029e90819061007a90396000f3fe608060405234801561001057600080fd5b50600436106100415760003560e01c8063b88a802f14610046578063d6f1926214610050578063fcf8770f1461006a575b600080fd5b61004e6100a3565b005b61005861013f565b60408051918252519081900360200190f35b6100876004803603602081101561008057600080fd5b50356101eb565b604080516001600160a01b039092168252519081900360200190f35b60005b600281101561013c57600081600281106100bc57fe5b015460408051635660547560e01b815233600482015290516001600160a01b03909216916356605475916024808201926020929091908290030181600087803b15801561010857600080fd5b505af115801561011c573d6000803e3d6000fd5b505050506040513d602081101561013257600080fd5b50506001016100a6565b50565b6000805b60028110156101e7576101dd6000826002811061015c57fe5b0154604080516246613160e11b815233600482015290516001600160a01b0390921691628cc26291602480820192602092909190829003018186803b1580156101a457600080fd5b505afa1580156101b8573d6000803e3d6000fd5b505050506040513d60208110156101ce57600080fd5b5051839063ffffffff61020816565b9150600101610143565b5090565b600081600281106101f857fe5b01546001600160a01b0316905081565b600082820183811015610262576040805162461bcd60e51b815260206004820152601b60248201527f536166654d6174683a206164646974696f6e206f766572666c6f770000000000604482015290519081900360640190fd5b939250505056fea265627a7a72315820b20dcc058e073ce86da217c80490e39d7ff9edd50aafc0322ff2fcdf5f3826cc64736f6c634300050c0032"
  }
}