{"compiler":"v0.5.17+commit.d19bba13","opcodeHash":"0x46f7d6a9eab91aea288b7a1a380ce150a6912b798c30ab6904ffe981d2acec13","metalessHash":"0x5ac87a223885be6273fe800011b0cd355cc4a4ffd3b527b56e5493269a2e333a","runtimeHash":"0xe2462f0f0a94144eba7933157b210d082c538097546cda2ebc731e9b88b24e68","encodedMetadata":[{"bzzr1":"/swarm/bzzr1/8edd1680f8c8d20f88ccbda561e5e4ca95db3fa7ad6f47acf5b5a848983f1b34","solc":"0.5.17"}],"abi":[{"inputs":[{"internalType":"address","name":"_rewardsDistribution","type":"address"},{"internalType":"address","name":"_rewardsToken","type":"address"},{"internalType":"address","name":"_stakingToken","type":"address"},{"internalType":"address payable","name":"_collectionAddress","type":"address"}],"payable":false,"stateMutability":"nonpayable","type":"constructor"},{"anonymous":false,"inputs":[{"indexed":false,"internalType":"address payable","name":"collectionAddress","type":"address"},{"indexed":false,"internalType":"uint256","name":"collectionAddfee","type":"uint256"}],"name":"CollectionAddPaid","type":"event"},{"anonymous":false,"inputs":[{"indexed":false,"internalType":"uint256","name":"reward","type":"uint256"}],"name":"RewardAdded","type":"event"},{"anonymous":false,"inputs":[{"indexed":true,"internalType":"address","name":"user","type":"address"},{"indexed":false,"internalType":"uint256","name":"reward","type":"uint256"}],"name":"RewardPaid","type":"event"},{"anonymous":false,"inputs":[{"indexed":false,"internalType":"uint256","name":"reward","type":"uint256"}],"name":"RewardUpdated","type":"event"},{"anonymous":false,"inputs":[{"indexed":true,"internalType":"address","name":"user","type":"address"},{"indexed":false,"internalType":"uint256","name":"amount","type":"uint256"}],"name":"Staked","type":"event"},{"anonymous":false,"inputs":[{"indexed":true,"internalType":"address","name":"user","type":"address"},{"indexed":false,"internalType":"uint256","name":"amount","type":"uint256"}],"name":"Withdrawn","type":"event"},{"constant":true,"inputs":[],"name":"CollectorAddress","outputs":[{"internalType":"address","name":"","type":"address"}],"payable":false,"stateMutability":"view","type":"function"},{"constant":true,"inputs":[{"internalType":"address","name":"account","type":"address"}],"name":"balanceOf","outputs":[{"internalType":"uint256","name":"","type":"uint256"}],"payable":false,"stateMutability":"view","type":"function"},{"constant":true,"inputs":[],"name":"collectionAddress","outputs":[{"internalType":"address payable","name":"","type":"address"}],"payable":false,"stateMutability":"view","type":"function"},{"constant":true,"inputs":[{"internalType":"address","name":"account","type":"address"}],"name":"earned","outputs":[{"internalType":"uint256","name":"","type":"uint256"}],"payable":false,"stateMutability":"view","type":"function"},{"constant":false,"inputs":[],"name":"exit","outputs":[],"payable":false,"stateMutability":"nonpayable","type":"function"},{"constant":false,"inputs":[],"name":"getReward","outputs":[],"payable":false,"stateMutability":"nonpayable","type":"function"},{"constant":true,"inputs":[],"name":"getRewardForDuration","outputs":[{"internalType":"uint256","name":"","type":"uint256"}],"payable":false,"stateMutability":"view","type":"function"},{"constant":true,"inputs":[],"name":"lastTimeRewardApplicable","outputs":[{"internalType":"uint256","name":"","type":"uint256"}],"payable":false,"stateMutability":"view","type":"function"},{"constant":true,"inputs":[],"name":"lastUpdateTime","outputs":[{"internalType":"uint256","name":"","type":"uint256"}],"payable":false,"stateMutability":"view","type":"function"},{"constant":false,"inputs":[{"internalType":"uint256","name":"reward","type":"uint256"}],"name":"notifyRewardAmount","outputs":[],"payable":false,"stateMutability":"nonpayable","type":"function"},{"constant":true,"inputs":[],"name":"periodFinish","outputs":[{"internalType":"uint256","name":"","type":"uint256"}],"payable":false,"stateMutability":"view","type":"function"},{"constant":true,"inputs":[],"name":"rewardPerToken","outputs":[{"internalType":"uint256","name":"","type":"uint256"}],"payable":false,"stateMutability":"view","type":"function"},{"constant":true,"inputs":[],"name":"rewardPerTokenStored","outputs":[{"internalType":"uint256","name":"","type":"uint256"}],"payable":false,"stateMutability":"view","type":"function"},{"constant":true,"inputs":[],"name":"rewardRate","outputs":[{"internalType":"uint256","name":"","type":"uint256"}],"payable":false,"stateMutability":"view","type":"function"},{"constant":true,"inputs":[{"internalType":"address","name":"","type":"address"}],"name":"rewards","outputs":[{"internalType":"uint256","name":"","type":"uint256"}],"payable":false,"stateMutability":"view","type":"function"},{"constant":true,"inputs":[],"name":"rewardsDistribution","outputs":[{"internalType":"address","name":"","type":"address"}],"payable":false,"stateMutability":"view","type":"function"},{"constant":true,"inputs":[],"name":"rewardsDuration","outputs":[{"internalType":"uint256","name":"","type":"uint256"}],"payable":false,"stateMutability":"view","type":"function"},{"constant":true,"inputs":[],"name":"rewardsToken","outputs":[{"internalType":"contract IERC20","name":"","type":"address"}],"payable":false,"stateMutability":"view","type":"function"},{"constant":false,"inputs":[{"internalType":"uint256","name":"amount","type":"uint256"}],"name":"stake","outputs":[],"payable":true,"stateMutability":"payable","type":"function"},{"constant":false,"inputs":[{"internalType":"uint256","name":"amount","type":"uint256"},{"internalType":"uint256","name":"deadline","type":"uint256"},{"internalType":"uint8","name":"v","type":"uint8"},{"internalType":"bytes32","name":"r","type":"bytes32"},{"internalType":"bytes32","name":"s","type":"bytes32"}],"name":"stakeWithPermit","outputs":[],"payable":true,"stateMutability":"payable","type":"function"},{"constant":true,"inputs":[],"name":"stakingToken","outputs":[{"internalType":"contract IERC20","name":"","type":"address"}],"payable":false,"stateMutability":"view","type":"function"},{"constant":true,"inputs":[],"name":"totalSupply","outputs":[{"internalType":"uint256","name":"","type":"uint256"}],"payable":false,"stateMutability":"view","type":"function"},{"constant":false,"inputs":[{"internalType":"uint256","name":"newRate","type":"uint256"}],"name":"updateRewardAmount","outputs":[],"payable":false,"stateMutability":"nonpayable","type":"function"},{"constant":true,"inputs":[{"internalType":"address","name":"","type":"address"}],"name":"userRewardPerTokenPaid","outputs":[{"internalType":"uint256","name":"","type":"uint256"}],"payable":false,"stateMutability":"view","type":"function"},{"constant":false,"inputs":[{"internalType":"uint256","name":"amount","type":"uint256"}],"name":"withdraw","outputs":[],"payable":false,"stateMutability":"nonpayable","type":"function"}],"bytecode":{"object":"608060405260006004556000600555629e340060065534801561002157600080fd5b506040516116803803806116808339818101604052608081101561004457600080fd5b5080516020820151604083015160609093015160018055600280546001600160a01b03199081166001600160a01b039485161790915560038054821695841695909517909455600080548516938316939093178355600980549094169116179091556115ca9081906100b690396000f3fe6080604052600436106101655760003560e01c806372f702f3116100d1578063cd3daf9d1161008a578063df136d6511610064578063df136d6514610412578063e9fad8ee14610427578063ebe2b12b1461043c578063ecd9ba821461045157610165565b8063cd3daf9d146103d3578063d1af0c7d146103e8578063daa5ee71146103fd57610165565b806372f702f31461032f5780637b0a47ee1461034457806380faa57d146103595780638b8763471461036e578063a694fc3a146103a1578063c8f33c91146103be57610165565b8063386a952511610123578063386a9525146102625780633c6b16ab146102775780633d18b912146102a15780633fc6df6e146102b65780636aa00371146102e757806370a08231146102fc57610165565b80628cc2621461016a5780630700037d146101af57806315c2ba14146101e257806318160ddd1461020e5780631c1f78eb146102235780632e1a7d4d14610238575b600080fd5b34801561017657600080fd5b5061019d6004803603602081101561018d57600080fd5b50356001600160a01b0316610489565b60408051918252519081900360200190f35b3480156101bb57600080fd5b5061019d600480360360208110156101d257600080fd5b50356001600160a01b031661051d565b3480156101ee57600080fd5b5061020c6004803603602081101561020557600080fd5b503561052f565b005b34801561021a57600080fd5b5061019d6106b7565b34801561022f57600080fd5b5061019d6106be565b34801561024457600080fd5b5061020c6004803603602081101561025b57600080fd5b50356106de565b34801561026e57600080fd5b5061019d61086d565b34801561028357600080fd5b5061020c6004803603602081101561029a57600080fd5b5035610873565b3480156102ad57600080fd5b5061020c6109fb565b3480156102c257600080fd5b506102cb610b1f565b604080516001600160a01b039092168252519081900360200190f35b3480156102f357600080fd5b506102cb610b2e565b34801561030857600080fd5b5061019d6004803603602081101561031f57600080fd5b50356001600160a01b0316610b3d565b34801561033b57600080fd5b506102cb610b58565b34801561035057600080fd5b5061019d610b67565b34801561036557600080fd5b5061019d610b6d565b34801561037a57600080fd5b5061019d6004803603602081101561039157600080fd5b50356001600160a01b0316610b7c565b61020c600480360360208110156103b757600080fd5b5035610b8e565b3480156103ca57600080fd5b5061019d610da2565b3480156103df57600080fd5b5061019d610da8565b3480156103f457600080fd5b506102cb610e00565b34801561040957600080fd5b506102cb610e0f565b34801561041e57600080fd5b5061019d610e1e565b34801561043357600080fd5b5061020c610e24565b34801561044857600080fd5b5061019d610e47565b61020c600480360360a081101561046757600080fd5b5080359060208101359060ff6040820135169060608101359060800135610e4d565b6001600160a01b0381166000908152600b6020908152604080832054600a90925282205482916105169161050a906305f5e100906104fe906104d9906104cd610da8565b9063ffffffff6110f616565b6001600160a01b0389166000908152600d60205260409020549063ffffffff61115816565b9063ffffffff6111b116565b9063ffffffff61121b16565b9392505050565b600b6020526000908152604090205481565b6000546001600160a01b031633146105785760405162461bcd60e51b815260040180806020018281038252602a815260200180611542602a913960400191505060405180910390fd5b6000610582610da8565b60085561058d610b6d565b6007556001600160a01b038116156105d4576105a881610489565b6001600160a01b0382166000908152600b6020908152604080832093909355600854600a909152919020555b6004544210610615576006546105f190839063ffffffff6111b116565b60055542600781905560065461060d919063ffffffff61121b16565b600455610680565b60045460009061062b904263ffffffff6110f616565b905060006106446005548361115890919063ffffffff16565b60065490915061065e906104fe868463ffffffff61121b16565b60055542600781905560065461067a919063ffffffff61121b16565b60045550505b6040805183815290517fcb94909754d27c309adf4167150f1f7aa04de40b6a0e6bb98b2ae80a2bf438f69181900360200190a15050565b600c545b90565b6000806106d860065460055461115890919063ffffffff16565b91505090565b60018054810190819055336106f1610da8565b6008556106fc610b6d565b6007556001600160a01b038116156107435761071781610489565b6001600160a01b0382166000908152600b6020908152604080832093909355600854600a909152919020555b6000831161078c576040805162461bcd60e51b8152602060048201526011602482015270043616e6e6f74207769746864726177203607c1b604482015290519081900360640190fd5b600c5461079f908463ffffffff6110f616565b600c55336000908152600d60205260409020546107c2908463ffffffff6110f616565b336000818152600d60205260409020919091556003546107ee916001600160a01b039091169085611275565b60408051848152905133917f7084f5476618d8e60b11ef0d7d3f06914655adb8793e28ff7f018d4c76d505d5919081900360200190a2506001548114610869576040805162461bcd60e51b815260206004820152601f6024820152600080516020611501833981519152604482015290519081900360640190fd5b5050565b60065481565b6000546001600160a01b031633146108bc5760405162461bcd60e51b815260040180806020018281038252602a815260200180611542602a913960400191505060405180910390fd5b60006108c6610da8565b6008556108d1610b6d565b6007556001600160a01b03811615610918576108ec81610489565b6001600160a01b0382166000908152600b6020908152604080832093909355600854600a909152919020555b60045442106109595760065461093590839063ffffffff6111b116565b600555426007819055600654610951919063ffffffff61121b16565b6004556109c4565b60045460009061096f904263ffffffff6110f616565b905060006109886005548361115890919063ffffffff16565b6006549091506109a2906104fe868463ffffffff61121b16565b6005554260078190556006546109be919063ffffffff61121b16565b60045550505b6040805183815290517fde88a922e0d3b88b24e9623efeb464919c6bf9f66857a65e2bfcf2ce87a9433d9181900360200190a15050565b6001805481019081905533610a0e610da8565b600855610a19610b6d565b6007556001600160a01b03811615610a6057610a3481610489565b6001600160a01b0382166000908152600b6020908152604080832093909355600854600a909152919020555b336000908152600b60205260409020548015610ad657336000818152600b6020526040812055600254610a9f916001600160a01b039091169083611275565b60408051828152905133917fe2403640ba68fed3a2f88b7557551d1993f84b99bb10ff833f0cf8db0c5e0486919081900360200190a25b50506001548114610b1c576040805162461bcd60e51b815260206004820152601f6024820152600080516020611501833981519152604482015290519081900360640190fd5b50565b6000546001600160a01b031681565b6009546001600160a01b031681565b6001600160a01b03166000908152600d602052604090205490565b6003546001600160a01b031681565b60055481565b6000806106d8426004546112cc565b600a6020526000908152604090205481565b6001805481019081905533610ba1610da8565b600855610bac610b6d565b6007556001600160a01b03811615610bf357610bc781610489565b6001600160a01b0382166000908152600b6020908152604080832093909355600854600a909152919020555b667c58508723800083610c3e576040805162461bcd60e51b815260206004820152600e60248201526d043616e6e6f74207374616b6520360941b604482015290519081900360640190fd5b600c54610c51908563ffffffff61121b16565b600c55336000908152600d6020526040902054610c74908563ffffffff61121b16565b336000908152600d60205260408082209290925560095491516001600160a01b03909216916108fc84150291849190818181858888f19350505050158015610cc0573d6000803e3d6000fd5b50600354610cdf906001600160a01b031633308763ffffffff6112e216565b60408051858152905133917f9e71bc8eea02a63969f509818f2dafb9254532904319f9dbda79b67bd34a5f3d919081900360200190a2600954604080516001600160a01b0390921682526020820183905280517fb3d3e40d8f7fffb7b4ca23af2605005b744e9c82d438f3c98a7bc597b50593e99281900390910190a150506001548114610869576040805162461bcd60e51b815260206004820152601f6024820152600080516020611501833981519152604482015290519081900360640190fd5b60075481565b6000600c5460001415610dbe57506008546106bb565b60006106d8610df1600c546104fe6305f5e100610de5600554610de56007546104cd610b6d565b9063ffffffff61115816565b6008549063ffffffff61121b16565b6002546001600160a01b031681565b6009546001600160a01b031690565b60085481565b336000908152600d6020526040902054610e3d906106de565b610e456109fb565b565b60045481565b6001805481019081905533610e60610da8565b600855610e6b610b6d565b6007556001600160a01b03811615610eb257610e8681610489565b6001600160a01b0382166000908152600b6020908152604080832093909355600854600a909152919020555b667c58508723800087610efd576040805162461bcd60e51b815260206004820152600e60248201526d043616e6e6f74207374616b6520360941b604482015290519081900360640190fd5b600c54610f10908963ffffffff61121b16565b600c55336000908152600d6020526040902054610f33908963ffffffff61121b16565b336000818152600d602052604080822093909355600354835163d505accf60e01b81526004810193909352306024840152604483018c9052606483018b905260ff8a16608484015260a4830189905260c4830188905292516001600160a01b039093169263d505accf9260e480820193929182900301818387803b158015610fba57600080fd5b505af1158015610fce573d6000803e3d6000fd5b50506009546040516001600160a01b03909116925083156108fc02915083906000818181858888f1935050505015801561100c573d6000803e3d6000fd5b5060035461102b906001600160a01b031633308b63ffffffff6112e216565b60408051898152905133917f9e71bc8eea02a63969f509818f2dafb9254532904319f9dbda79b67bd34a5f3d919081900360200190a2600954604080516001600160a01b0390921682526020820183905280517fb3d3e40d8f7fffb7b4ca23af2605005b744e9c82d438f3c98a7bc597b50593e99281900390910190a1505060015481146110ee576040805162461bcd60e51b815260206004820152601f6024820152600080516020611501833981519152604482015290519081900360640190fd5b505050505050565b60008282111561114d576040805162461bcd60e51b815260206004820152601e60248201527f536166654d6174683a207375627472616374696f6e206f766572666c6f770000604482015290519081900360640190fd5b508082035b92915050565b60008261116757506000611152565b8282028284828161117457fe5b04146105165760405162461bcd60e51b81526004018080602001828103825260218152602001806115216021913960400191505060405180910390fd5b6000808211611207576040805162461bcd60e51b815260206004820152601a60248201527f536166654d6174683a206469766973696f6e206279207a65726f000000000000604482015290519081900360640190fd5b600082848161121257fe5b04949350505050565b600082820183811015610516576040805162461bcd60e51b815260206004820152601b60248201527f536166654d6174683a206164646974696f6e206f766572666c6f770000000000604482015290519081900360640190fd5b604080516001600160a01b038416602482015260448082018490528251808303909101815260649091019091526020810180516001600160e01b031663a9059cbb60e01b1790526112c7908490611342565b505050565b60008183106112db5781610516565b5090919050565b604080516001600160a01b0385811660248301528416604482015260648082018490528251808303909101815260849091019091526020810180516001600160e01b03166323b872dd60e01b17905261133c908590611342565b50505050565b611354826001600160a01b03166114fa565b6113a5576040805162461bcd60e51b815260206004820152601f60248201527f5361666545524332303a2063616c6c20746f206e6f6e2d636f6e747261637400604482015290519081900360640190fd5b60006060836001600160a01b0316836040518082805190602001908083835b602083106113e35780518252601f1990920191602091820191016113c4565b6001836020036101000a0380198251168184511680821785525050505050509050019150506000604051808303816000865af19150503d8060008114611445576040519150601f19603f3d011682016040523d82523d6000602084013e61144a565b606091505b5091509150816114a1576040805162461bcd60e51b815260206004820181905260248201527f5361666545524332303a206c6f772d6c6576656c2063616c6c206661696c6564604482015290519081900360640190fd5b80511561133c578080602001905160208110156114bd57600080fd5b505161133c5760405162461bcd60e51b815260040180806020018281038252602a81526020018061156c602a913960400191505060405180910390fd5b3b15159056fe5265656e7472616e637947756172643a207265656e7472616e742063616c6c00536166654d6174683a206d756c7469706c69636174696f6e206f766572666c6f7743616c6c6572206973206e6f742052657761726473446973747269627574696f6e20636f6e74726163745361666545524332303a204552433230206f7065726174696f6e20646964206e6f742073756363656564a265627a7a72315820bf43ff813fdd35b83fa3f0400c23350ea2c39d9faf4044dfeabd35790b3b0d1b64736f6c63430005110032"}}