{
  "opcodeHash": "0x803d0d2fd62ec68fd79061dbcec5eb935297f82ec7e09fadd41e26ad7852a329",
  "metalessHash": "0x9c63d70636979fdfba28cc316ae06f29b337df92e2363354dd472e48f6055e75",
  "runtimeHash": "0x24ddf2973d9af2ae696bb25441e50992a51e5c71f5cab2445563e2e558db9888",
  "encodedMetadata": [
    {
      "ipfs": "/ipfs/QmVqwa1SWZrQ5AdWSpkwdbKB5oii8CpMDvxmbs7MJRxKHP",
      "solc": "0.6.8"
    }
  ],
  "abi": [
    {
      "inputs": [
        {
          "internalType": "address",
          "name": "_wallet",
          "type": "address"
        }
      ],
      "stateMutability": "nonpayable",
      "type": "constructor"
    },
    {
      "inputs": [],
      "name": "Token",
      "outputs": [
        {
          "internalType": "contract ERC20",
          "name": "",
          "type": "address"
        }
      ],
      "stateMutability": "view",
      "type": "function"
    },
    {
      "inputs": [],
      "name": "availableTokens",
      "outputs": [
        {
          "internalType": "uint256",
          "name": "",
          "type": "uint256"
        }
      ],
      "stateMutability": "view",
      "type": "function"
    },
    {
      "inputs": [],
      "name": "burn",
      "outputs": [],
      "stateMutability": "nonpayable",
      "type": "function"
    },
    {
      "inputs": [],
      "name": "collectedETH",
      "outputs": [
        {
          "internalType": "uint256",
          "name": "",
          "type": "uint256"
        }
      ],
      "stateMutability": "view",
      "type": "function"
    },
    {
      "inputs": [],
      "name": "contribute",
      "outputs": [],
      "stateMutability": "payable",
      "type": "function"
    },
    {
      "inputs": [],
      "name": "endPresale",
      "outputs": [],
      "stateMutability": "nonpayable",
      "type": "function"
    },
    {
      "inputs": [],
      "name": "owner",
      "outputs": [
        {
          "internalType": "address payable",
          "name": "",
          "type": "address"
        }
      ],
      "stateMutability": "view",
      "type": "function"
    },
    {
      "inputs": [],
      "name": "startDate",
      "outputs": [
        {
          "internalType": "uint256",
          "name": "",
          "type": "uint256"
        }
      ],
      "stateMutability": "view",
      "type": "function"
    },
    {
      "inputs": [],
      "name": "startSale",
      "outputs": [],
      "stateMutability": "nonpayable",
      "type": "function"
    },
    {
      "inputs": [],
      "name": "totalSold",
      "outputs": [
        {
          "internalType": "uint256",
          "name": "",
          "type": "uint256"
        }
      ],
      "stateMutability": "view",
      "type": "function"
    },
    {
      "inputs": [],
      "name": "withdrawETH",
      "outputs": [],
      "stateMutability": "nonpayable",
      "type": "function"
    },
    {
      "stateMutability": "payable",
      "type": "receive"
    }
  ],
  "bytecode": {
    "object": "60806040526000600560006101000a81548160ff02191690831515021790555034801561002b57600080fd5b506040516111f63803806111f68339818101604052602081101561004e57600080fd5b810190808051906020019092919050505033600260006101000a81548173ffffffffffffffffffffffffffffffffffffffff021916908373ffffffffffffffffffffffffffffffffffffffff16021790555080600160006101000a81548173ffffffffffffffffffffffffffffffffffffffff021916908373ffffffffffffffffffffffffffffffffffffffff16021790555050611105806100f16000396000f3fe6080604052600436106100a05760003560e01c8063a43be57b11610064578063a43be57b14610577578063b66a0e5d1461058e578063c2412676146105a5578063d7bb99ba146105fc578063dfccdef514610606578063e086e5ec1461063157610483565b80630b97bc861461048857806344df8e70146104b357806369bb4dc2146104ca5780638da5cb5b146104f55780639106d7ba1461054c57610483565b366104835760006004541180156100ce575062093a806100cb6004544261064890919063ffffffff16565b11155b6100d757600080fd5b6000600160009054906101000a900473ffffffffffffffffffffffffffffffffffffffff1673ffffffffffffffffffffffffffffffffffffffff166370a08231306040518263ffffffff1660e01b8152600401808273ffffffffffffffffffffffffffffffffffffffff1673ffffffffffffffffffffffffffffffffffffffff16815260200191505060206040518083038186803b15801561017857600080fd5b505afa15801561018c573d6000803e3d6000fd5b505050506040513d60208110156101a257600080fd5b8101908080519060200190929190505050116101bd57600080fd5b67016345785d8a000034101580156101dd57506729a2241af62c00003411155b6101e657600080fd5b600560009054906101000a900460ff161561020057600080fd5b620151806102196004544261064890919063ffffffff16565b1161023e576102336103163461066890919063ffffffff16565b60068190555061027a565b620151806102576004544261064890919063ffffffff16565b1115610279576102726103163461066890919063ffffffff16565b6006819055505b5b600160009054906101000a900473ffffffffffffffffffffffffffffffffffffffff1673ffffffffffffffffffffffffffffffffffffffff166370a08231306040518263ffffffff1660e01b8152600401808273ffffffffffffffffffffffffffffffffffffffff1673ffffffffffffffffffffffffffffffffffffffff16815260200191505060206040518083038186803b15801561031957600080fd5b505afa15801561032d573d6000803e3d6000fd5b505050506040513d602081101561034357600080fd5b8101908080519060200190929190505050600654111561036257600080fd5b6103796006546000546106a290919063ffffffff16565b600081905550610394346003546106a290919063ffffffff16565b600381905550600160009054906101000a900473ffffffffffffffffffffffffffffffffffffffff1673ffffffffffffffffffffffffffffffffffffffff1663a9059cbb336006546040518363ffffffff1660e01b8152600401808373ffffffffffffffffffffffffffffffffffffffff1673ffffffffffffffffffffffffffffffffffffffff16815260200182815260200192505050602060405180830381600087803b15801561044557600080fd5b505af1158015610459573d6000803e3d6000fd5b505050506040513d602081101561046f57600080fd5b810190808051906020019092919050505050005b600080fd5b34801561049457600080fd5b5061049d6106c1565b6040518082815260200191505060405180910390f35b3480156104bf57600080fd5b506104c86106c7565b005b3480156104d657600080fd5b506104df6109e9565b6040518082815260200191505060405180910390f35b34801561050157600080fd5b5061050a610aca565b604051808273ffffffffffffffffffffffffffffffffffffffff1673ffffffffffffffffffffffffffffffffffffffff16815260200191505060405180910390f35b34801561055857600080fd5b50610561610af0565b6040518082815260200191505060405180910390f35b34801561058357600080fd5b5061058c610af6565b005b34801561059a57600080fd5b506105a3610b6d565b005b3480156105b157600080fd5b506105ba610bde565b604051808273ffffffffffffffffffffffffffffffffffffffff1673ffffffffffffffffffffffffffffffffffffffff16815260200191505060405180910390f35b610604610c04565b005b34801561061257600080fd5b5061061b610fe2565b6040518082815260200191505060405180910390f35b34801561063d57600080fd5b50610646610fe8565b005b60008282111561065757600080fd5b600082840390508091505092915050565b60008083141561067b576000905061069c565b600082840290508284828161068c57fe5b041461069757600080fd5b809150505b92915050565b6000808284019050838110156106b757600080fd5b8091505092915050565b60045481565b600260009054906101000a900473ffffffffffffffffffffffffffffffffffffffff1673ffffffffffffffffffffffffffffffffffffffff163373ffffffffffffffffffffffffffffffffffffffff161480156107fd57506000600160009054906101000a900473ffffffffffffffffffffffffffffffffffffffff1673ffffffffffffffffffffffffffffffffffffffff166370a08231306040518263ffffffff1660e01b8152600401808273ffffffffffffffffffffffffffffffffffffffff1673ffffffffffffffffffffffffffffffffffffffff16815260200191505060206040518083038186803b1580156107c057600080fd5b505afa1580156107d4573d6000803e3d6000fd5b505050506040513d60208110156107ea57600080fd5b8101908080519060200190929190505050115b801561081f57506205460061081d6004544261064890919063ffffffff16565b115b61082857600080fd5b600160009054906101000a900473ffffffffffffffffffffffffffffffffffffffff1673ffffffffffffffffffffffffffffffffffffffff1663a9059cbb6000600160009054906101000a900473ffffffffffffffffffffffffffffffffffffffff1673ffffffffffffffffffffffffffffffffffffffff166370a08231306040518263ffffffff1660e01b8152600401808273ffffffffffffffffffffffffffffffffffffffff1673ffffffffffffffffffffffffffffffffffffffff16815260200191505060206040518083038186803b15801561090757600080fd5b505afa15801561091b573d6000803e3d6000fd5b505050506040513d602081101561093157600080fd5b81019080805190602001909291905050506040518363ffffffff1660e01b8152600401808373ffffffffffffffffffffffffffffffffffffffff1673ffffffffffffffffffffffffffffffffffffffff16815260200182815260200192505050602060405180830381600087803b1580156109ab57600080fd5b505af11580156109bf573d6000803e3d6000fd5b505050506040513d60208110156109d557600080fd5b810190808051906020019092919050505050565b6000600160009054906101000a900473ffffffffffffffffffffffffffffffffffffffff1673ffffffffffffffffffffffffffffffffffffffff166370a08231306040518263ffffffff1660e01b8152600401808273ffffffffffffffffffffffffffffffffffffffff1673ffffffffffffffffffffffffffffffffffffffff16815260200191505060206040518083038186803b158015610a8a57600080fd5b505afa158015610a9e573d6000803e3d6000fd5b505050506040513d6020811015610ab457600080fd5b8101908080519060200190929190505050905090565b600260009054906101000a900473ffffffffffffffffffffffffffffffffffffffff1681565b60005481565b600260009054906101000a900473ffffffffffffffffffffffffffffffffffffffff1673ffffffffffffffffffffffffffffffffffffffff163373ffffffffffffffffffffffffffffffffffffffff1614610b5057600080fd5b6001600560006101000a81548160ff021916908315150217905550565b600260009054906101000a900473ffffffffffffffffffffffffffffffffffffffff1673ffffffffffffffffffffffffffffffffffffffff163373ffffffffffffffffffffffffffffffffffffffff16148015610bcc57506000600454145b610bd557600080fd5b42600481905550565b600160009054906101000a900473ffffffffffffffffffffffffffffffffffffffff1681565b6000600454118015610c2d575062093a80610c2a6004544261064890919063ffffffff16565b11155b610c3657600080fd5b6000600160009054906101000a900473ffffffffffffffffffffffffffffffffffffffff1673ffffffffffffffffffffffffffffffffffffffff166370a08231306040518263ffffffff1660e01b8152600401808273ffffffffffffffffffffffffffffffffffffffff1673ffffffffffffffffffffffffffffffffffffffff16815260200191505060206040518083038186803b158015610cd757600080fd5b505afa158015610ceb573d6000803e3d6000fd5b505050506040513d6020811015610d0157600080fd5b810190808051906020019092919050505011610d1c57600080fd5b67016345785d8a00003410158015610d3c57506729a2241af62c00003411155b610d4557600080fd5b600560009054906101000a900460ff1615610d5f57600080fd5b62015180610d786004544261064890919063ffffffff16565b11610d9d57610d926103163461066890919063ffffffff16565b600681905550610dd9565b62015180610db66004544261064890919063ffffffff16565b1115610dd857610dd16103163461066890919063ffffffff16565b6006819055505b5b600160009054906101000a900473ffffffffffffffffffffffffffffffffffffffff1673ffffffffffffffffffffffffffffffffffffffff166370a08231306040518263ffffffff1660e01b8152600401808273ffffffffffffffffffffffffffffffffffffffff1673ffffffffffffffffffffffffffffffffffffffff16815260200191505060206040518083038186803b158015610e7857600080fd5b505afa158015610e8c573d6000803e3d6000fd5b505050506040513d6020811015610ea257600080fd5b81019080805190602001909291905050506006541115610ec157600080fd5b610ed86006546000546106a290919063ffffffff16565b600081905550610ef3346003546106a290919063ffffffff16565b600381905550600160009054906101000a900473ffffffffffffffffffffffffffffffffffffffff1673ffffffffffffffffffffffffffffffffffffffff1663a9059cbb336006546040518363ffffffff1660e01b8152600401808373ffffffffffffffffffffffffffffffffffffffff1673ffffffffffffffffffffffffffffffffffffffff16815260200182815260200192505050602060405180830381600087803b158015610fa457600080fd5b505af1158015610fb8573d6000803e3d6000fd5b505050506040513d6020811015610fce57600080fd5b810190808051906020019092919050505050565b60035481565b600260009054906101000a900473ffffffffffffffffffffffffffffffffffffffff1673ffffffffffffffffffffffffffffffffffffffff163373ffffffffffffffffffffffffffffffffffffffff161461104257600080fd5b60011515600560009054906101000a900460ff1615151461106257600080fd5b600260009054906101000a900473ffffffffffffffffffffffffffffffffffffffff1673ffffffffffffffffffffffffffffffffffffffff166108fc6003549081150290604051600060405180830381858888f193505050501580156110cc573d6000803e3d6000fd5b5056fea26469706673582212202f24e6e366a41fe673ce27cf9009e9ca8e7374136dea6ea6b88ca043519cfe3664736f6c63430006080033"
  }
}