{
  "opcodeHash": "0x57712f611e5e5297e1656a44ed8751688de181ecb9cea5373fe9e30dc2c72b9b",
  "metalessHash": "0x4f4d4707341ca0c90c9d3435a3ec7f5a178332133684330fb945e120d627482c",
  "runtimeHash": "0x4f08cdf495726f7346ed45fb6d5603fa5fed4fe83d860195eb9d778244531509",
  "encodedMetadata": [
    {
      "ipfs": "/ipfs/QmVdTb2PhcKJhViyRC1gbBzmfyCGaHPBoJqv5qGsBJYq7J",
      "solc": "0.7.5"
    }
  ],
  "abi": [
    {
      "inputs": [],
      "stateMutability": "nonpayable",
      "type": "constructor"
    },
    {
      "anonymous": false,
      "inputs": [
        {
          "indexed": true,
          "internalType": "address",
          "name": "owner",
          "type": "address"
        },
        {
          "indexed": true,
          "internalType": "address",
          "name": "spender",
          "type": "address"
        },
        {
          "indexed": false,
          "internalType": "uint256",
          "name": "value",
          "type": "uint256"
        }
      ],
      "name": "Approval",
      "type": "event"
    },
    {
      "anonymous": false,
      "inputs": [
        {
          "indexed": true,
          "internalType": "uint256",
          "name": "epoch",
          "type": "uint256"
        },
        {
          "indexed": false,
          "internalType": "uint256",
          "name": "totalSupply",
          "type": "uint256"
        }
      ],
      "name": "LogRebase",
      "type": "event"
    },
    {
      "anonymous": false,
      "inputs": [
        {
          "indexed": true,
          "internalType": "address",
          "name": "previousOwner",
          "type": "address"
        },
        {
          "indexed": true,
          "internalType": "address",
          "name": "newOwner",
          "type": "address"
        }
      ],
      "name": "OwnershipTransferred",
      "type": "event"
    },
    {
      "anonymous": false,
      "inputs": [
        {
          "indexed": false,
          "internalType": "uint256",
          "name": "tokenBurnt",
          "type": "uint256"
        }
      ],
      "name": "Rebalance",
      "type": "event"
    },
    {
      "anonymous": false,
      "inputs": [
        {
          "indexed": false,
          "internalType": "uint256",
          "name": "liquidityRewards",
          "type": "uint256"
        }
      ],
      "name": "RewardLiquidityProviders",
      "type": "event"
    },
    {
      "anonymous": false,
      "inputs": [
        {
          "indexed": true,
          "internalType": "address",
          "name": "destination",
          "type": "address"
        },
        {
          "indexed": false,
          "internalType": "uint256",
          "name": "index",
          "type": "uint256"
        },
        {
          "indexed": false,
          "internalType": "bytes",
          "name": "data",
          "type": "bytes"
        }
      ],
      "name": "TransactionFailed",
      "type": "event"
    },
    {
      "anonymous": false,
      "inputs": [
        {
          "indexed": true,
          "internalType": "address",
          "name": "from",
          "type": "address"
        },
        {
          "indexed": true,
          "internalType": "address",
          "name": "to",
          "type": "address"
        },
        {
          "indexed": false,
          "internalType": "uint256",
          "name": "value",
          "type": "uint256"
        }
      ],
      "name": "Transfer",
      "type": "event"
    },
    {
      "stateMutability": "payable",
      "type": "fallback"
    },
    {
      "inputs": [],
      "name": "_limitExpiresTimestamp",
      "outputs": [
        {
          "internalType": "uint256",
          "name": "",
          "type": "uint256"
        }
      ],
      "stateMutability": "view",
      "type": "function"
    },
    {
      "inputs": [],
      "name": "_limitMaxBalance",
      "outputs": [
        {
          "internalType": "uint256",
          "name": "",
          "type": "uint256"
        }
      ],
      "stateMutability": "view",
      "type": "function"
    },
    {
      "inputs": [],
      "name": "_limitSellFeePercent",
      "outputs": [
        {
          "internalType": "uint256",
          "name": "",
          "type": "uint256"
        }
      ],
      "stateMutability": "view",
      "type": "function"
    },
    {
      "inputs": [],
      "name": "_limitTimestamp",
      "outputs": [
        {
          "internalType": "uint256",
          "name": "",
          "type": "uint256"
        }
      ],
      "stateMutability": "view",
      "type": "function"
    },
    {
      "inputs": [],
      "name": "_limitTransferAmount",
      "outputs": [
        {
          "internalType": "uint256",
          "name": "",
          "type": "uint256"
        }
      ],
      "stateMutability": "view",
      "type": "function"
    },
    {
      "inputs": [],
      "name": "_rebaser",
      "outputs": [
        {
          "internalType": "address",
          "name": "",
          "type": "address"
        }
      ],
      "stateMutability": "view",
      "type": "function"
    },
    {
      "inputs": [],
      "name": "_tFeePercent",
      "outputs": [
        {
          "internalType": "uint256",
          "name": "",
          "type": "uint256"
        }
      ],
      "stateMutability": "view",
      "type": "function"
    },
    {
      "inputs": [],
      "name": "_tFeeTimestamp",
      "outputs": [
        {
          "internalType": "uint256",
          "name": "",
          "type": "uint256"
        }
      ],
      "stateMutability": "view",
      "type": "function"
    },
    {
      "inputs": [
        {
          "internalType": "address",
          "name": "destination",
          "type": "address"
        },
        {
          "internalType": "bytes",
          "name": "data",
          "type": "bytes"
        }
      ],
      "name": "addTransaction",
      "outputs": [],
      "stateMutability": "nonpayable",
      "type": "function"
    },
    {
      "inputs": [
        {
          "internalType": "address",
          "name": "owner",
          "type": "address"
        },
        {
          "internalType": "address",
          "name": "spender",
          "type": "address"
        }
      ],
      "name": "allowance",
      "outputs": [
        {
          "internalType": "uint256",
          "name": "",
          "type": "uint256"
        }
      ],
      "stateMutability": "view",
      "type": "function"
    },
    {
      "inputs": [
        {
          "internalType": "address",
          "name": "spender",
          "type": "address"
        },
        {
          "internalType": "uint256",
          "name": "amount",
          "type": "uint256"
        }
      ],
      "name": "approve",
      "outputs": [
        {
          "internalType": "bool",
          "name": "",
          "type": "bool"
        }
      ],
      "stateMutability": "nonpayable",
      "type": "function"
    },
    {
      "inputs": [
        {
          "internalType": "address",
          "name": "account",
          "type": "address"
        }
      ],
      "name": "balanceOf",
      "outputs": [
        {
          "internalType": "uint256",
          "name": "",
          "type": "uint256"
        }
      ],
      "stateMutability": "view",
      "type": "function"
    },
    {
      "inputs": [
        {
          "internalType": "uint256",
          "name": "amount",
          "type": "uint256"
        }
      ],
      "name": "burn",
      "outputs": [],
      "stateMutability": "nonpayable",
      "type": "function"
    },
    {
      "inputs": [
        {
          "internalType": "address",
          "name": "account",
          "type": "address"
        },
        {
          "internalType": "uint256",
          "name": "amount",
          "type": "uint256"
        }
      ],
      "name": "burnFrom",
      "outputs": [],
      "stateMutability": "nonpayable",
      "type": "function"
    },
    {
      "inputs": [],
      "name": "burnableLiquidity",
      "outputs": [
        {
          "internalType": "uint256",
          "name": "",
          "type": "uint256"
        }
      ],
      "stateMutability": "view",
      "type": "function"
    },
    {
      "inputs": [],
      "name": "burnedLiquidity",
      "outputs": [
        {
          "internalType": "uint256",
          "name": "",
          "type": "uint256"
        }
      ],
      "stateMutability": "view",
      "type": "function"
    },
    {
      "inputs": [],
      "name": "burnedSupply",
      "outputs": [
        {
          "internalType": "uint256",
          "name": "",
          "type": "uint256"
        }
      ],
      "stateMutability": "view",
      "type": "function"
    },
    {
      "inputs": [],
      "name": "callerRewardDivisor",
      "outputs": [
        {
          "internalType": "uint256",
          "name": "",
          "type": "uint256"
        }
      ],
      "stateMutability": "view",
      "type": "function"
    },
    {
      "inputs": [],
      "name": "decimals",
      "outputs": [
        {
          "internalType": "uint8",
          "name": "",
          "type": "uint8"
        }
      ],
      "stateMutability": "view",
      "type": "function"
    },
    {
      "inputs": [
        {
          "internalType": "address",
          "name": "spender",
          "type": "address"
        },
        {
          "internalType": "uint256",
          "name": "subtractedValue",
          "type": "uint256"
        }
      ],
      "name": "decreaseAllowance",
      "outputs": [
        {
          "internalType": "bool",
          "name": "",
          "type": "bool"
        }
      ],
      "stateMutability": "nonpayable",
      "type": "function"
    },
    {
      "inputs": [
        {
          "internalType": "address",
          "name": "account",
          "type": "address"
        }
      ],
      "name": "excludeAccount",
      "outputs": [],
      "stateMutability": "nonpayable",
      "type": "function"
    },
    {
      "inputs": [
        {
          "internalType": "address",
          "name": "account",
          "type": "address"
        }
      ],
      "name": "includeAccount",
      "outputs": [],
      "stateMutability": "nonpayable",
      "type": "function"
    },
    {
      "inputs": [
        {
          "internalType": "address",
          "name": "spender",
          "type": "address"
        },
        {
          "internalType": "uint256",
          "name": "addedValue",
          "type": "uint256"
        }
      ],
      "name": "increaseAllowance",
      "outputs": [
        {
          "internalType": "bool",
          "name": "",
          "type": "bool"
        }
      ],
      "stateMutability": "nonpayable",
      "type": "function"
    },
    {
      "inputs": [
        {
          "internalType": "address",
          "name": "account",
          "type": "address"
        }
      ],
      "name": "isExcluded",
      "outputs": [
        {
          "internalType": "bool",
          "name": "",
          "type": "bool"
        }
      ],
      "stateMutability": "view",
      "type": "function"
    },
    {
      "inputs": [],
      "name": "lastRebalance",
      "outputs": [
        {
          "internalType": "uint256",
          "name": "",
          "type": "uint256"
        }
      ],
      "stateMutability": "view",
      "type": "function"
    },
    {
      "inputs": [],
      "name": "liquidityLockDivisor",
      "outputs": [
        {
          "internalType": "uint256",
          "name": "",
          "type": "uint256"
        }
      ],
      "stateMutability": "view",
      "type": "function"
    },
    {
      "inputs": [],
      "name": "lockableSupply",
      "outputs": [
        {
          "internalType": "uint256",
          "name": "",
          "type": "uint256"
        }
      ],
      "stateMutability": "view",
      "type": "function"
    },
    {
      "inputs": [],
      "name": "locked",
      "outputs": [
        {
          "internalType": "bool",
          "name": "",
          "type": "bool"
        }
      ],
      "stateMutability": "view",
      "type": "function"
    },
    {
      "inputs": [],
      "name": "lockedLiquidity",
      "outputs": [
        {
          "internalType": "uint256",
          "name": "",
          "type": "uint256"
        }
      ],
      "stateMutability": "view",
      "type": "function"
    },
    {
      "inputs": [],
      "name": "lockedSupply",
      "outputs": [
        {
          "internalType": "uint256",
          "name": "",
          "type": "uint256"
        }
      ],
      "stateMutability": "view",
      "type": "function"
    },
    {
      "inputs": [],
      "name": "lpUnlocked",
      "outputs": [
        {
          "internalType": "uint256",
          "name": "",
          "type": "uint256"
        }
      ],
      "stateMutability": "view",
      "type": "function"
    },
    {
      "inputs": [],
      "name": "minRebalanceAmount",
      "outputs": [
        {
          "internalType": "uint256",
          "name": "",
          "type": "uint256"
        }
      ],
      "stateMutability": "view",
      "type": "function"
    },
    {
      "inputs": [],
      "name": "name",
      "outputs": [
        {
          "internalType": "string",
          "name": "",
          "type": "string"
        }
      ],
      "stateMutability": "view",
      "type": "function"
    },
    {
      "inputs": [],
      "name": "owner",
      "outputs": [
        {
          "internalType": "address",
          "name": "",
          "type": "address"
        }
      ],
      "stateMutability": "view",
      "type": "function"
    },
    {
      "inputs": [],
      "name": "rebalanceDivisor",
      "outputs": [
        {
          "internalType": "uint256",
          "name": "",
          "type": "uint256"
        }
      ],
      "stateMutability": "view",
      "type": "function"
    },
    {
      "inputs": [],
      "name": "rebalanceInterval",
      "outputs": [
        {
          "internalType": "uint256",
          "name": "",
          "type": "uint256"
        }
      ],
      "stateMutability": "view",
      "type": "function"
    },
    {
      "inputs": [],
      "name": "rebalanceLiquidity",
      "outputs": [],
      "stateMutability": "nonpayable",
      "type": "function"
    },
    {
      "inputs": [
        {
          "internalType": "int256",
          "name": "supplyDelta",
          "type": "int256"
        }
      ],
      "name": "rebase",
      "outputs": [
        {
          "internalType": "uint256",
          "name": "",
          "type": "uint256"
        }
      ],
      "stateMutability": "nonpayable",
      "type": "function"
    },
    {
      "inputs": [
        {
          "internalType": "uint256",
          "name": "tAmount",
          "type": "uint256"
        }
      ],
      "name": "refract",
      "outputs": [],
      "stateMutability": "nonpayable",
      "type": "function"
    },
    {
      "inputs": [
        {
          "internalType": "uint256",
          "name": "tAmount",
          "type": "uint256"
        },
        {
          "internalType": "bool",
          "name": "deductTransferFee",
          "type": "bool"
        }
      ],
      "name": "refractionFromToken",
      "outputs": [
        {
          "internalType": "uint256",
          "name": "",
          "type": "uint256"
        }
      ],
      "stateMutability": "view",
      "type": "function"
    },
    {
      "inputs": [
        {
          "internalType": "uint256",
          "name": "index",
          "type": "uint256"
        }
      ],
      "name": "removeTransaction",
      "outputs": [],
      "stateMutability": "nonpayable",
      "type": "function"
    },
    {
      "inputs": [],
      "name": "renounceOwnership",
      "outputs": [],
      "stateMutability": "nonpayable",
      "type": "function"
    },
    {
      "inputs": [
        {
          "internalType": "uint256",
          "name": "_rewardDivisor",
          "type": "uint256"
        }
      ],
      "name": "setCallerRewardDivisior",
      "outputs": [],
      "stateMutability": "nonpayable",
      "type": "function"
    },
    {
      "inputs": [
        {
          "internalType": "uint256",
          "name": "expiresTimestamp",
          "type": "uint256"
        },
        {
          "internalType": "uint256",
          "name": "transferAmount",
          "type": "uint256"
        },
        {
          "internalType": "uint256",
          "name": "maxBalance",
          "type": "uint256"
        },
        {
          "internalType": "uint256",
          "name": "sellFeePercent",
          "type": "uint256"
        }
      ],
      "name": "setLimit",
      "outputs": [],
      "stateMutability": "nonpayable",
      "type": "function"
    },
    {
      "inputs": [
        {
          "internalType": "uint256",
          "name": "_liquidityLockDivisor",
          "type": "uint256"
        }
      ],
      "name": "setLiquidityLockDivisor",
      "outputs": [],
      "stateMutability": "nonpayable",
      "type": "function"
    },
    {
      "inputs": [
        {
          "internalType": "uint256",
          "name": "amount_",
          "type": "uint256"
        }
      ],
      "name": "setMinRebalanceAmount",
      "outputs": [],
      "stateMutability": "nonpayable",
      "type": "function"
    },
    {
      "inputs": [
        {
          "internalType": "uint256",
          "name": "_rebalanceDivisor",
          "type": "uint256"
        }
      ],
      "name": "setRebalanceDivisor",
      "outputs": [],
      "stateMutability": "nonpayable",
      "type": "function"
    },
    {
      "inputs": [
        {
          "internalType": "uint256",
          "name": "_interval",
          "type": "uint256"
        }
      ],
      "name": "setRebalanceInterval",
      "outputs": [],
      "stateMutability": "nonpayable",
      "type": "function"
    },
    {
      "inputs": [
        {
          "internalType": "address",
          "name": "rebaser",
          "type": "address"
        }
      ],
      "name": "setRebaser",
      "outputs": [],
      "stateMutability": "nonpayable",
      "type": "function"
    },
    {
      "inputs": [
        {
          "internalType": "uint256",
          "name": "index",
          "type": "uint256"
        },
        {
          "internalType": "bool",
          "name": "enabled",
          "type": "bool"
        }
      ],
      "name": "setTransactionEnabled",
      "outputs": [],
      "stateMutability": "nonpayable",
      "type": "function"
    },
    {
      "inputs": [
        {
          "internalType": "uint256",
          "name": "tFeePercent",
          "type": "uint256"
        }
      ],
      "name": "setTransferFeePercent",
      "outputs": [],
      "stateMutability": "nonpayable",
      "type": "function"
    },
    {
      "inputs": [
        {
          "internalType": "address",
          "name": "_uniswapV2Pair",
          "type": "address"
        }
      ],
      "name": "setUniswapV2Pair",
      "outputs": [],
      "stateMutability": "nonpayable",
      "type": "function"
    },
    {
      "inputs": [
        {
          "internalType": "address",
          "name": "_uniswapV2Router",
          "type": "address"
        }
      ],
      "name": "setUniswapV2Router",
      "outputs": [],
      "stateMutability": "nonpayable",
      "type": "function"
    },
    {
      "inputs": [],
      "name": "symbol",
      "outputs": [
        {
          "internalType": "string",
          "name": "",
          "type": "string"
        }
      ],
      "stateMutability": "view",
      "type": "function"
    },
    {
      "inputs": [
        {
          "internalType": "address",
          "name": "_addr",
          "type": "address"
        }
      ],
      "name": "toggleFeeless",
      "outputs": [],
      "stateMutability": "nonpayable",
      "type": "function"
    },
    {
      "inputs": [
        {
          "internalType": "address",
          "name": "_addr",
          "type": "address"
        }
      ],
      "name": "toggleUnlockable",
      "outputs": [],
      "stateMutability": "nonpayable",
      "type": "function"
    },
    {
      "inputs": [
        {
          "internalType": "uint256",
          "name": "rAmount",
          "type": "uint256"
        }
      ],
      "name": "tokenFromRefraction",
      "outputs": [
        {
          "internalType": "uint256",
          "name": "",
          "type": "uint256"
        }
      ],
      "stateMutability": "view",
      "type": "function"
    },
    {
      "inputs": [],
      "name": "totalFees",
      "outputs": [
        {
          "internalType": "uint256",
          "name": "",
          "type": "uint256"
        }
      ],
      "stateMutability": "view",
      "type": "function"
    },
    {
      "inputs": [],
      "name": "totalSupply",
      "outputs": [
        {
          "internalType": "uint256",
          "name": "",
          "type": "uint256"
        }
      ],
      "stateMutability": "view",
      "type": "function"
    },
    {
      "inputs": [
        {
          "internalType": "uint256",
          "name": "",
          "type": "uint256"
        }
      ],
      "name": "transactions",
      "outputs": [
        {
          "internalType": "bool",
          "name": "enabled",
          "type": "bool"
        },
        {
          "internalType": "address",
          "name": "destination",
          "type": "address"
        },
        {
          "internalType": "bytes",
          "name": "data",
          "type": "bytes"
        }
      ],
      "stateMutability": "view",
      "type": "function"
    },
    {
      "inputs": [],
      "name": "transactionsSize",
      "outputs": [
        {
          "internalType": "uint256",
          "name": "",
          "type": "uint256"
        }
      ],
      "stateMutability": "view",
      "type": "function"
    },
    {
      "inputs": [
        {
          "internalType": "address",
          "name": "recipient",
          "type": "address"
        },
        {
          "internalType": "uint256",
          "name": "amount",
          "type": "uint256"
        }
      ],
      "name": "transfer",
      "outputs": [
        {
          "internalType": "bool",
          "name": "",
          "type": "bool"
        }
      ],
      "stateMutability": "nonpayable",
      "type": "function"
    },
    {
      "inputs": [
        {
          "internalType": "address",
          "name": "sender",
          "type": "address"
        },
        {
          "internalType": "address",
          "name": "recipient",
          "type": "address"
        },
        {
          "internalType": "uint256",
          "name": "amount",
          "type": "uint256"
        }
      ],
      "name": "transferFrom",
      "outputs": [
        {
          "internalType": "bool",
          "name": "",
          "type": "bool"
        }
      ],
      "stateMutability": "nonpayable",
      "type": "function"
    },
    {
      "inputs": [
        {
          "internalType": "address",
          "name": "newOwner",
          "type": "address"
        }
      ],
      "name": "transferOwnership",
      "outputs": [],
      "stateMutability": "nonpayable",
      "type": "function"
    },
    {
      "inputs": [],
      "name": "treasury",
      "outputs": [
        {
          "internalType": "address payable",
          "name": "",
          "type": "address"
        }
      ],
      "stateMutability": "view",
      "type": "function"
    },
    {
      "inputs": [],
      "name": "uniswapV2Pair",
      "outputs": [
        {
          "internalType": "address",
          "name": "",
          "type": "address"
        }
      ],
      "stateMutability": "view",
      "type": "function"
    },
    {
      "inputs": [],
      "name": "uniswapV2Router",
      "outputs": [
        {
          "internalType": "address",
          "name": "",
          "type": "address"
        }
      ],
      "stateMutability": "view",
      "type": "function"
    },
    {
      "inputs": [],
      "name": "unlock",
      "outputs": [],
      "stateMutability": "nonpayable",
      "type": "function"
    },
    {
      "inputs": [],
      "name": "unlockLP",
      "outputs": [],
      "stateMutability": "nonpayable",
      "type": "function"
    },
    {
      "stateMutability": "payable",
      "type": "receive"
    }
  ],
  "bytecode": {
    "object": "608060405260058054610100600160a81b031916747a250d5630b4cf539739df2c5dacb4c659f2488d001790553480156200003957600080fd5b50604080518082018252600d81526c42617334722e66696e616e636560981b6020808301918252835180850190945260058452642130b99a3960d91b9084015281519192916200008c91600391620008ac565b508051620000a2906004906020840190620008ac565b50506005805460ff191660121790555042600e8190556032600a556014600b556064600c55612a30600f5562278d00016010556001600d55600780546001600160a01b0319163317908190556040516001600160a01b039190911690620001099062000941565b6001600160a01b03909116815260405190819003602001906000f08015801562000137573d6000803e3d6000fd5b5060118054610100600160a81b0319166101006001600160a01b039384168102919091178255306000908152600860209081526040808320805460ff1990811660019081179092558654869004881685528285208054821683179055338552828520805482168317905586548116821787556009909352818420805484168217905594549390930490941681529081208054909316909117909155620001dc6200031b565b601280546001600160a01b0319166001600160a01b038316908117909155604051919250906000907f8be0079c531659141344cd1fd0a4f28419497f9722a3daafe3b4186f6b6457e0908290a3506200023660096200031f565b6601c6bf52634000601a556507326b47ffff19601b55620002566200031b565b601f80546001600160a01b0319166001600160a01b039290921691909117905560c8601d5542601e55601b5460156000620002906200031b565b6001600160a01b03168152602081019190915260400160002055620002b46200031b565b6001600160a01b031660006001600160a01b03167fddf252ad1be2c89b69c2b068fc378daa952ba7f163c4a11628f55a4df523b3ef601a546040518082815260200191505060405180910390a3620003156200030f6200031b565b62000335565b62000966565b3390565b6005805460ff191660ff92909216919091179055565b6200033f6200031b565b6012546001600160a01b03908116911614620003a2576040805162461bcd60e51b815260206004820181905260248201527f4f776e61626c653a2063616c6c6572206973206e6f7420746865206f776e6572604482015290519081900360640190fd5b6001600160a01b03811660009081526018602052604090205460ff161562000411576040805162461bcd60e51b815260206004820152601b60248201527f4163636f756e7420697320616c7265616479206578636c756465640000000000604482015290519081900360640190fd5b6001600160a01b038116600090815260156020526040902054156200046e576001600160a01b0381166000908152601560205260409020546200045490620004d4565b6001600160a01b0382166000908152601660205260409020555b6001600160a01b03166000818152601860205260408120805460ff191660019081179091556019805491820181559091527f944998273e477b495144fb8794c914197f3ccb46be2900f4698fd0ef743c96950180546001600160a01b0319169091179055565b6000601b54821115620005195760405162461bcd60e51b815260040180806020018281038252602a8152602001806200586a602a913960400191505060405180910390fd5b60006200052562000548565b90506200054181846200057b60201b620030df1790919060201c565b9392505050565b6000808062000556620005c5565b915091506200057481836200057b60201b620030df1790919060201c565b9250505090565b60006200054183836040518060400160405280601a81526020017f536166654d6174683a206469766973696f6e206279207a65726f0000000000008152506200075e60201b60201c565b601b54601a546000918291825b6019548110156200071b57826015600060198481548110620005f057fe5b60009182526020808320909101546001600160a01b0316835282019290925260400190205411806200065757508160166000601984815481106200063057fe5b60009182526020808320909101546001600160a01b03168352820192909252604001902054115b156200067057601b54601a54945094505050506200075a565b620006bf60156000601984815481106200068657fe5b60009182526020808320909101546001600160a01b0316835282810193909352604090910190205485916200312162000805821b17901c565b9250620007106016600060198481548110620006d757fe5b60009182526020808320909101546001600160a01b0316835282810193909352604090910190205484916200312162000805821b17901c565b9150600101620005d2565b506200073a601a54601b546200057b60201b620030df1790919060201c565b8210156200075457601b54601a549350935050506200075a565b90925090505b9091565b60008183620007ee5760405162461bcd60e51b81526004018080602001828103825283818151815260200191508051906020019080838360005b83811015620007b257818101518382015260200162000798565b50505050905090810190601f168015620007e05780820380516001836020036101000a031916815260200191505b509250505060405180910390fd5b506000838581620007fb57fe5b0495945050505050565b60006200054183836040518060400160405280601e81526020017f536166654d6174683a207375627472616374696f6e206f766572666c6f7700008152506200084f60201b60201c565b60008184841115620008a45760405162461bcd60e51b8152602060048201818152835160248401528351909283926044909101919085019080838360008315620007b257818101518382015260200162000798565b505050900390565b828054600181600116156101000203166002900490600052602060002090601f016020900481019282620008e457600085556200092f565b82601f10620008ff57805160ff19168380011785556200092f565b828001600101855582156200092f579182015b828111156200092f57825182559160200191906001019062000912565b506200093d9291506200094f565b5090565b6108fd8062004f6d83390190565b5b808211156200093d576000815560010162000950565b6145f780620009766000396000f3fe6080604052600436106103fd5760003560e01c806370709a7c11610213578063a9059cbb11610123578063dc654a73116100ab578063e84354c51161007a578063e84354c514610e6b578063f2cc0c1814610e80578063f2fde38b14610eb3578063f84354f114610ee6578063f953797314610f1957610404565b8063dc654a7314610dd3578063dd62ed3e14610de8578063e161eb5614610e23578063e46adf6214610e3857610404565b8063b91f3f97116100f2578063b91f3f9714610d4c578063ca5c7b9114610d61578063cafab28914610d76578063cba0e99614610d8b578063cf30901214610dbe57610404565b8063a9059cbb14610cbf578063aef7f99e14610cf8578063b439824414610d0d578063b6833c5914610d2257610404565b80638da5cb5b116101a65780639ace38c2116101755780639ace38c214610b6e578063a29a608914610c29578063a457c2d714610c5c578063a69df4b514610c95578063a8a5550e14610caa57610404565b80638da5cb5b14610afd57806391d4ec1814610b1257806395d89b4114610b2757806397d0677b14610b3c57610404565b80637d449789116101e25780637d44978914610a945780637e0d943e14610aa95780637f4aeb1a14610ad3578063858750ab14610ae857610404565b806370709a7c146109e057806370a0823114610a13578063715018a614610a4657806379cc679014610a5b57610404565b80632ae427dc1161030e578063456e0a5d116102a15780635b7dcaed116102705780635b7dcaed146109095780635c1eca841461093357806361d027b31461096f57806367a9fca6146109845780636e9dde99146109ae57610404565b8063456e0a5d146108a057806346c3bd1f146108b557806349bd5a5e146108df57806355d0a1d0146108f457610404565b806338a9ad1d116102dd57806338a9ad1d1461081357806339509351146108285780633aa8d4be1461086157806342966c681461087657610404565b80632ae427dc146107945780632bc1281e146107a9578063303bb0b6146107be578063313ce567146107e857610404565b806313114a9d1161039157806316d1d9161161036057806316d1d916146106e857806318160ddd146106fd5780631f36d9251461071257806323b872dd1461073c5780632898cafa1461077f57610404565b806313114a9d146106455780631419841d1461065a57806314f43f7e1461068d5780631694505e146106b757610404565b8063095ea7b3116103cd578063095ea7b3146104f65780630ab114f914610543578063106b9ca11461056d578063126e19be1461058257610404565b80629a81301461040657806302dd19d91461043057806306fdde031461045757806308d1dd8a146104e157610404565b3661040457005b005b34801561041257600080fd5b506104046004803603602081101561042957600080fd5b5035610f4c565b34801561043c57600080fd5b50610445610fef565b60408051918252519081900360200190f35b34801561046357600080fd5b5061046c610ff5565b6040805160208082528351818301528351919283929083019185019080838360005b838110156104a657818101518382015260200161048e565b50505050905090810190601f1680156104d35780820380516001836020036101000a031916815260200191505b509250505060405180910390f35b3480156104ed57600080fd5b5061044561108b565b34801561050257600080fd5b5061052f6004803603604081101561051957600080fd5b506001600160a01b038135169060200135611091565b604080519115158252519081900360200190f35b34801561054f57600080fd5b506104456004803603602081101561056657600080fd5b50356110af565b34801561057957600080fd5b50610445611550565b34801561058e57600080fd5b50610404600480360360408110156105a557600080fd5b6001600160a01b0382351691908101906040810160208201356401000000008111156105d057600080fd5b8201836020820111156105e257600080fd5b8035906020019184600183028401116401000000008311171561060457600080fd5b91908080601f016020809104026020016040519081016040528093929190818152602001838380828437600092019190915250929550611556945050505050565b34801561065157600080fd5b50610445611677565b34801561066657600080fd5b506104046004803603602081101561067d57600080fd5b50356001600160a01b031661167d565b34801561069957600080fd5b50610404600480360360208110156106b057600080fd5b5035611760565b3480156106c357600080fd5b506106cc61183b565b604080516001600160a01b039092168252519081900360200190f35b3480156106f457600080fd5b5061044561184f565b34801561070957600080fd5b50610445611855565b34801561071e57600080fd5b506104046004803603602081101561073557600080fd5b503561185b565b34801561074857600080fd5b5061052f6004803603606081101561075f57600080fd5b506001600160a01b03813581169160208101359091169060400135611901565b34801561078b57600080fd5b50610445611988565b3480156107a057600080fd5b50610445611a07565b3480156107b557600080fd5b50610445611a0d565b3480156107ca57600080fd5b50610445600480360360208110156107e157600080fd5b5035611a13565b3480156107f457600080fd5b506107fd611a73565b6040805160ff9092168252519081900360200190f35b34801561081f57600080fd5b50610445611a7c565b34801561083457600080fd5b5061052f6004803603604081101561084b57600080fd5b506001600160a01b038135169060200135611a82565b34801561086d57600080fd5b506106cc611ad0565b34801561088257600080fd5b506104046004803603602081101561089957600080fd5b5035611adf565b3480156108ac57600080fd5b50610445611af3565b3480156108c157600080fd5b50610404600480360360208110156108d857600080fd5b5035611af9565b3480156108eb57600080fd5b506106cc611c91565b34801561090057600080fd5b50610445611ca0565b34801561091557600080fd5b506104046004803603602081101561092c57600080fd5b5035611d7c565b34801561093f57600080fd5b506104046004803603608081101561095657600080fd5b5080359060208101359060408101359060600135611dd9565b34801561097b57600080fd5b506106cc611e9e565b34801561099057600080fd5b50610404600480360360208110156109a757600080fd5b5035611ead565b3480156109ba57600080fd5b50610404600480360360408110156109d157600080fd5b50803590602001351515611f50565b3480156109ec57600080fd5b5061040460048036036020811015610a0357600080fd5b50356001600160a01b0316612019565b348015610a1f57600080fd5b5061044560048036036020811015610a3657600080fd5b50356001600160a01b031661209a565b348015610a5257600080fd5b506104046120fc565b348015610a6757600080fd5b5061040460048036036040811015610a7e57600080fd5b506001600160a01b03813516906020013561219e565b348015610aa057600080fd5b506104456121f8565b348015610ab557600080fd5b5061040460048036036020811015610acc57600080fd5b50356121fe565b348015610adf57600080fd5b506104046122b7565b348015610af457600080fd5b506104456124b2565b348015610b0957600080fd5b506106cc6124fd565b348015610b1e57600080fd5b5061044561250c565b348015610b3357600080fd5b5061046c612512565b348015610b4857600080fd5b5061044560048036036040811015610b5f57600080fd5b50803590602001351515612573565b348015610b7a57600080fd5b50610b9860048036036020811015610b9157600080fd5b5035612609565b604051808415158152602001836001600160a01b0316815260200180602001828103825283818151815260200191508051906020019080838360005b83811015610bec578181015183820152602001610bd4565b50505050905090810190601f168015610c195780820380516001836020036101000a031916815260200191505b5094505050505060405180910390f35b348015610c3557600080fd5b5061040460048036036020811015610c4c57600080fd5b50356001600160a01b03166126d1565b348015610c6857600080fd5b5061052f60048036036040811015610c7f57600080fd5b506001600160a01b0381351690602001356127a9565b348015610ca157600080fd5b50610404612811565b348015610cb657600080fd5b50610445612875565b348015610ccb57600080fd5b5061052f60048036036040811015610ce257600080fd5b506001600160a01b038135169060200135612885565b348015610d0457600080fd5b50610445612899565b348015610d1957600080fd5b5061044561289f565b348015610d2e57600080fd5b5061040460048036036020811015610d4557600080fd5b50356128ba565b348015610d5857600080fd5b50610404612917565b348015610d6d57600080fd5b50610445612ab1565b348015610d8257600080fd5b50610445612b3a565b348015610d9757600080fd5b5061052f60048036036020811015610dae57600080fd5b50356001600160a01b0316612b40565b348015610dca57600080fd5b5061052f612b5e565b348015610ddf57600080fd5b50610445612b67565b348015610df457600080fd5b5061044560048036036040811015610e0b57600080fd5b506001600160a01b0381358116916020013516612b6d565b348015610e2f57600080fd5b50610445612b98565b348015610e4457600080fd5b5061040460048036036020811015610e5b57600080fd5b50356001600160a01b0316612b9e565b348015610e7757600080fd5b50610445612c18565b348015610e8c57600080fd5b5061040460048036036020811015610ea357600080fd5b50356001600160a01b0316612c1e565b348015610ebf57600080fd5b5061040460048036036020811015610ed657600080fd5b50356001600160a01b0316612da4565b348015610ef257600080fd5b5061040460048036036020811015610f0957600080fd5b50356001600160a01b0316612e9d565b348015610f2557600080fd5b5061040460048036036020811015610f3c57600080fd5b50356001600160a01b031661305e565b610f54613163565b6012546001600160a01b03908116911614610fa4576040805162461bcd60e51b81526020600482018190526024820152600080516020614423833981519152604482015290519081900360640190fd5b8015610fea57600a811015610fea5760405162461bcd60e51b81526004018080602001828103825260218152602001806142ec6021913960400191505060405180910390fd5b600b55565b600b5481565b60038054604080516020601f60026000196101006001881615020190951694909404938401819004810282018101909252828152606093909290918301828280156110815780601f1061105657610100808354040283529160200191611081565b820191906000526020600020905b81548152906001019060200180831161106457829003601f168201915b5050505050905090565b60245481565b60006110a561109e613163565b8484613167565b5060015b92915050565b60006110b96124fd565b6001600160a01b03166110ca613163565b6001600160a01b031614806110f95750601f546001600160a01b03166110ee613163565b6001600160a01b0316145b611142576040805162461bcd60e51b815260206004820152601560248201527414d95b99195c881b9bdd08185d5d1a1bdc9a5e9959605a1b604482015290519081900360640190fd5b601454611150906001613253565b6014558161119957601454601a5460408051918252517f72725a3b1e5bd622d6bcd1339bb31279c351abe8f541ac7fd320f24e1b1641f29181900360200190a250601a5461154b565b60006111b6600084126111ac57836111b1565b836000035b6132ad565b601a549091506000906111d7906111d184633b9aca00613308565b906130df565b90506000808512156111f8576111f1633b9aca0083613121565b9050611209565b611206633b9aca0083613253565b90505b600085121561122757601a5461121f9084613121565b601a55611238565b601a546112349084613253565b601a555b60005b60195481101561130a576000601660006019848154811061125857fe5b60009182526020808320909101546001600160a01b031683528201929092526040019020541115611302576112cb6009600a0a6111d18460166000601987815481106112a057fe5b60009182526020808320909101546001600160a01b0316835282019290925260400190205490613308565b60166000601984815481106112dc57fe5b60009182526020808320909101546001600160a01b031683528201929092526040019020555b60010161123b565b50601454601a5460408051918252517f72725a3b1e5bd622d6bcd1339bb31279c351abe8f541ac7fd320f24e1b1641f29181900360200190a260005b6013548110156115415760006013828154811061135f57fe5b60009182526020909120600290910201805490915060ff16156115385780546001808301805460408051602060026101009685161587026000190190941693909304601f81018490048402820184019092528181526000956114279590046001600160a01b031693909290919083018282801561141d5780601f106113f25761010080835404028352916020019161141d565b820191906000526020600020905b81548152906001019060200180831161140057829003601f168201915b5050505050613361565b9050806115365781546040805185815260208101828152600180870180546002610100938216158402600019019091160494840185905294046001600160a01b0316937f8091ecaaa54ebb82e02d36c2c336528e0fcb9b3430fc1291ac88295032b9c2639388939192906060830190849080156114e55780601f106114ba576101008083540402835291602001916114e5565b820191906000526020600020905b8154815290600101906020018083116114c857829003601f168201915b5050935050505060405180910390a26040805162461bcd60e51b8152602060048201526012602482015271151c985b9cd858dd1a5bdb8811985a5b195960721b604482015290519081900360640190fd5b505b50600101611346565b50601a5493505050505b919050565b600e5481565b61155e613163565b6012546001600160a01b039081169116146115ae576040805162461bcd60e51b81526020600482018190526024820152600080516020614423833981519152604482015290519081900360640190fd5b6040805160608101825260018082526001600160a01b038086166020808501918252948401868152601380549485018155600052845160029094027f66de8ffda797e3de9c05e8fc57b3bf0ec28a930d40b0d285d93c06501cf6a09081018054935190941661010002610100600160a81b031995151560ff19909416939093179490941691909117825551805193949193611670937f66de8ffda797e3de9c05e8fc57b3bf0ec28a930d40b0d285d93c06501cf6a091019291909101906140d6565b5050505050565b601c5490565b611685613163565b6012546001600160a01b039081169116146116d5576040805162461bcd60e51b81526020600482018190526024820152600080516020614423833981519152604482015290519081900360640190fd5b60055461010090046001600160a01b031615611738576040805162461bcd60e51b815260206004820152601f60248201527f736574556e69737761705632526f757465723a20616c72656164792073657400604482015290519081900360640190fd5b600580546001600160a01b0390921661010002610100600160a81b0319909216919091179055565b600061176a613163565b6001600160a01b03811660009081526018602052604090205490915060ff16156117c55760405162461bcd60e51b815260040180806020018281038252602c815260200180614571602c913960400191505060405180910390fd5b60006117d383601d54613384565b505050506001600160a01b0383166000908152601560205260409020549091506117fd9082613121565b6001600160a01b038316600090815260156020526040902055601b546118239082613121565b601b55601c546118339084613253565b601c55505050565b60055461010090046001600160a01b031681565b600f5481565b601a5490565b611863613163565b6012546001600160a01b039081169116146118b3576040805162461bcd60e51b81526020600482018190526024820152600080516020614423833981519152604482015290519081900360640190fd5b601e5461a8c0014210156118f85760405162461bcd60e51b815260040180806020018281038252602c8152602001806143f7602c913960400191505060405180910390fd5b601d5542601e55565b600061190e8484846133d2565b61197e8461191a613163565b611979856040518060600160405280602881526020016143cf602891396001600160a01b038a16600090815260176020526040812090611958613163565b6001600160a01b031681526020810191909152604001600020549190613862565b613167565b5060019392505050565b600654604080516370a0823160e01b8152600060048201819052915191926001600160a01b0316916370a0823191602480820192602092909190829003018186803b1580156119d657600080fd5b505afa1580156119ea573d6000803e3d6000fd5b505050506040513d6020811015611a0057600080fd5b5051905090565b601d5481565b60215481565b6000601b54821115611a565760405162461bcd60e51b815260040180806020018281038252602a8152602001806144dc602a913960400191505060405180910390fd5b6000611a606138f9565b9050611a6c83826130df565b9392505050565b60055460ff1690565b60205481565b60006110a5611a8f613163565b846119798560176000611aa0613163565b6001600160a01b03908116825260208083019390935260409182016000908120918c168152925290205490613253565b601f546001600160a01b031681565b611af0611aea613163565b8261391c565b50565b60225481565b611b01613163565b6012546001600160a01b03908116911614611b51576040805162461bcd60e51b81526020600482018190526024820152600080516020614423833981519152604482015290519081900360640190fd5b6013548110611b9d576040805162461bcd60e51b8152602060048201526013602482015272696e646578206f7574206f6620626f756e647360681b604482015290519081900360640190fd5b60135460001901811015611c4e57601380546000198101908110611bbd57fe5b906000526020600020906002020160138281548110611bd857fe5b6000918252602090912082546002928302909101805460ff191660ff9092161515919091178082558354610100600160a81b0319909116610100918290046001600160a01b03168202178255600180850180549394611c4a94838701949293811615909202600019019091160461415e565b5050505b6013805480611c5957fe5b60008281526020812060026000199093019283020180546001600160a81b031916815590611c8a60018301826141e1565b5050905550565b6006546001600160a01b031681565b600080600660009054906101000a90046001600160a01b03166001600160a01b03166318160ddd6040518163ffffffff1660e01b815260040160206040518083038186803b158015611cf157600080fd5b505afa158015611d05573d6000803e3d6000fd5b505050506040513d6020811015611d1b57600080fd5b505190506000611d29611988565b90506000611d40836111d18464e8d4a51000613308565b600654909150600090611d5b906001600160a01b031661209a565b90506000611d7264e8d4a510006111d18486613308565b9550505050505090565b611d84613163565b6012546001600160a01b03908116911614611dd4576040805162461bcd60e51b81526020600482018190526024820152600080516020614423833981519152604482015290519081900360640190fd5b600f55565b611de1613163565b6012546001600160a01b03908116911614611e31576040805162461bcd60e51b81526020600482018190526024820152600080516020614423833981519152604482015290519081900360640190fd5b60245415611e86576040805162461bcd60e51b815260206004820152601960248201527f4c696d6974206368616e676573206e6f7420616c6c6f77656400000000000000604482015290519081900360640190fd5b60209390935560219190915560225560235542602455565b6007546001600160a01b031681565b611eb5613163565b6012546001600160a01b03908116911614611f05576040805162461bcd60e51b81526020600482018190526024820152600080516020614423833981519152604482015290519081900360640190fd5b8015611f4b57600a811015611f4b5760405162461bcd60e51b815260040180806020018281038252602281526020018061454f6022913960400191505060405180910390fd5b600a55565b611f58613163565b6012546001600160a01b03908116911614611fa8576040805162461bcd60e51b81526020600482018190526024820152600080516020614423833981519152604482015290519081900360640190fd5b6013548210611fe85760405162461bcd60e51b81526004018080602001828103825260288152602001806142c46028913960400191505060405180910390fd5b8060138381548110611ff657fe5b60009182526020909120600290910201805460ff19169115159190911790555050565b612021613163565b6012546001600160a01b03908116911614612071576040805162461bcd60e51b81526020600482018190526024820152600080516020614423833981519152604482015290519081900360640190fd5b6001600160a01b03166000908152600860205260409020805460ff19811660ff90911615179055565b6001600160a01b03811660009081526018602052604081205460ff16156120da57506001600160a01b03811660009081526016602052604090205461154b565b6001600160a01b0382166000908152601560205260409020546110a990611a13565b612104613163565b6012546001600160a01b03908116911614612154576040805162461bcd60e51b81526020600482018190526024820152600080516020614423833981519152604482015290519081900360640190fd5b6012546040516000916001600160a01b0316907f8be0079c531659141344cd1fd0a4f28419497f9722a3daafe3b4186f6b6457e0908390a3601280546001600160a01b0319169055565b60006121d58260405180606001604052806024815260200161446c602491396121ce866121c9613163565b612b6d565b9190613862565b90506121e9836121e3613163565b83613167565b6121f3838361391c565b505050565b60235481565b612206613163565b6012546001600160a01b03908116911614612256576040805162461bcd60e51b81526020600482018190526024820152600080516020614423833981519152604482015290519081900360640190fd5b80156122b257600a8110156122b2576040805162461bcd60e51b815260206004820152601e60248201527f736574526562616c616e636544697669736f723a20746f6f20736d616c6c0000604482015290519081900360640190fd5b600c55565b600d546122c33361209a565b10156123005760405162461bcd60e51b81526004018080602001828103825260218152602001806143566021913960400191505060405180910390fd5b600f54600e54014211612346576040805162461bcd60e51b81526020600482015260096024820152682a37b79029b7b7b71760b91b604482015290519081900360640190fd5b42600e5560006123553061209a565b905061236081613a18565b600c54600654604080516370a0823160e01b815230600482015290516000936123e99390926001600160a01b03909116916370a0823191602480820192602092909190829003018186803b1580156123b757600080fd5b505afa1580156123cb573d6000803e3d6000fd5b505050506040513d60208110156123e157600080fd5b5051906130df565b90506123f481613acf565b50601154600b5460408051631e93260360e31b815260048101929092525160009261010090046001600160a01b03169163f499301891602480830192602092919082900301818787803b15801561244a57600080fd5b505af115801561245e573d6000803e3d6000fd5b505050506040513d602081101561247457600080fd5b50516040805182815290519192507f811d4760f1a92875eb76dbd3dc2359544b2f6a000ba5b78784c0b105b3469bd0919081900360200190a1505050565b600654604080516370a0823160e01b815230600482015290516000926001600160a01b0316916370a08231916024808301926020929190829003018186803b1580156119d657600080fd5b6012546001600160a01b031690565b60135490565b60048054604080516020601f60026000196101006001881615020190951694909404938401819004810282018101909252828152606093909290918301828280156110815780601f1061105657610100808354040283529160200191611081565b6000601a548311156125cc576040805162461bcd60e51b815260206004820152601f60248201527f416d6f756e74206d757374206265206c657373207468616e20737570706c7900604482015290519081900360640190fd5b816125ed5760006125df84601d54613384565b509294506110a99350505050565b60006125fb84601d54613384565b509194506110a99350505050565b6013818154811061261957600080fd5b6000918252602091829020600291820201805460018083018054604080516101009483161585026000190190921696909604601f810188900488028201880190965285815260ff84169750919092046001600160a01b031694929390928301828280156126c75780601f1061269c576101008083540402835291602001916126c7565b820191906000526020600020905b8154815290600101906020018083116126aa57829003601f168201915b5050505050905083565b6126d9613163565b6012546001600160a01b03908116911614612729576040805162461bcd60e51b81526020600482018190526024820152600080516020614423833981519152604482015290519081900360640190fd5b6006546001600160a01b031615612787576040805162461bcd60e51b815260206004820152601d60248201527f736574556e69737761705632506169723a20616c726561647920736574000000604482015290519081900360640190fd5b600680546001600160a01b0319166001600160a01b0392909216919091179055565b60006110a56127b6613163565b846119798560405180606001604052806025815260200161459d60259139601760006127e0613163565b6001600160a01b03908116825260208083019390935260409182016000908120918d16815292529020549190613862565b612819613163565b6012546001600160a01b03908116911614612869576040805162461bcd60e51b81526020600482018190526024820152600080516020614423833981519152604482015290519081900360640190fd5b6011805460ff19169055565b60006128803061209a565b905090565b60006110a5612892613163565b84846133d2565b601e5481565b60006128806128ac611988565b6128b46124b2565b90613253565b6128c2613163565b6012546001600160a01b03908116911614612912576040805162461bcd60e51b81526020600482018190526024820152600080516020614423833981519152604482015290519081900360640190fd5b600d55565b61291f613163565b6012546001600160a01b0390811691161461296f576040805162461bcd60e51b81526020600482018190526024820152600080516020614423833981519152604482015290519081900360640190fd5b6010544214156129b9576040805162461bcd60e51b815260206004820152601060248201526f139bdd081d5b9b1bd8dad959081e595d60821b604482015290519081900360640190fd5b600654604080516370a0823160e01b815230600482015290516000926001600160a01b0316916370a08231916024808301926020929190829003018186803b158015612a0457600080fd5b505afa158015612a18573d6000803e3d6000fd5b505050506040513d6020811015612a2e57600080fd5b50516006546040805163a9059cbb60e01b81523360048201526024810184905290519293506001600160a01b039091169163a9059cbb916044808201926020929091908290030181600087803b158015612a8757600080fd5b505af1158015612a9b573d6000803e3d6000fd5b505050506040513d60208110156121f357600080fd5b600080600660009054906101000a90046001600160a01b03166001600160a01b03166318160ddd6040518163ffffffff1660e01b815260040160206040518083038186803b158015612b0257600080fd5b505afa158015612b16573d6000803e3d6000fd5b505050506040513d6020811015612b2c57600080fd5b505190506000611d2961289f565b60105481565b6001600160a01b031660009081526018602052604090205460ff1690565b60115460ff1681565b600a5481565b6001600160a01b03918216600090815260176020908152604080832093909416825291909152205490565b600c5481565b612ba6613163565b6012546001600160a01b03908116911614612bf6576040805162461bcd60e51b81526020600482018190526024820152600080516020614423833981519152604482015290519081900360640190fd5b601f80546001600160a01b0319166001600160a01b0392909216919091179055565b600d5481565b612c26613163565b6012546001600160a01b03908116911614612c76576040805162461bcd60e51b81526020600482018190526024820152600080516020614423833981519152604482015290519081900360640190fd5b6001600160a01b03811660009081526018602052604090205460ff1615612ce4576040805162461bcd60e51b815260206004820152601b60248201527f4163636f756e7420697320616c7265616479206578636c756465640000000000604482015290519081900360640190fd5b6001600160a01b03811660009081526015602052604090205415612d3e576001600160a01b038116600090815260156020526040902054612d2490611a13565b6001600160a01b0382166000908152601660205260409020555b6001600160a01b03166000818152601860205260408120805460ff191660019081179091556019805491820181559091527f944998273e477b495144fb8794c914197f3ccb46be2900f4698fd0ef743c96950180546001600160a01b0319169091179055565b612dac613163565b6012546001600160a01b03908116911614612dfc576040805162461bcd60e51b81526020600482018190526024820152600080516020614423833981519152604482015290519081900360640190fd5b6001600160a01b038116612e415760405162461bcd60e51b815260040180806020018281038252602681526020018061427c6026913960400191505060405180910390fd5b6012546040516001600160a01b038084169216907f8be0079c531659141344cd1fd0a4f28419497f9722a3daafe3b4186f6b6457e090600090a3601280546001600160a01b0319166001600160a01b0392909216919091179055565b612ea5613163565b6012546001600160a01b03908116911614612ef5576040805162461bcd60e51b81526020600482018190526024820152600080516020614423833981519152604482015290519081900360640190fd5b6001600160a01b03811660009081526018602052604090205460ff16612f62576040805162461bcd60e51b815260206004820152601760248201527f4163636f756e74206973206e6f74206578636c75646564000000000000000000604482015290519081900360640190fd5b60005b60195481101561305a57816001600160a01b031660198281548110612f8657fe5b6000918252602090912001546001600160a01b0316141561305257601980546000198101908110612fb357fe5b600091825260209091200154601980546001600160a01b039092169183908110612fd957fe5b600091825260208083209190910180546001600160a01b0319166001600160a01b039485161790559184168152601682526040808220829055601890925220805460ff19169055601980548061302b57fe5b600082815260209020810160001990810180546001600160a01b031916905501905561305a565b600101612f65565b5050565b613066613163565b6012546001600160a01b039081169116146130b6576040805162461bcd60e51b81526020600482018190526024820152600080516020614423833981519152604482015290519081900360640190fd5b6001600160a01b03166000908152600960205260409020805460ff19811660ff90911615179055565b6000611a6c83836040518060400160405280601a81526020017f536166654d6174683a206469766973696f6e206279207a65726f000000000000815250613c0d565b6000611a6c83836040518060400160405280601e81526020017f536166654d6174683a207375627472616374696f6e206f766572666c6f770000815250613862565b3390565b6001600160a01b0383166131ac5760405162461bcd60e51b815260040180806020018281038252602481526020018061452b6024913960400191505060405180910390fd5b6001600160a01b0382166131f15760405162461bcd60e51b81526004018080602001828103825260228152602001806142a26022913960400191505060405180910390fd5b6001600160a01b03808416600081815260176020908152604080832094871680845294825291829020859055815185815291517f8c5be1e5ebec7d5bd14f71427d1e84f3dd0314c0f7b2291e5b200ac8c7c3b9259281900390910190a3505050565b600082820183811015611a6c576040805162461bcd60e51b815260206004820152601b60248201527f536166654d6174683a206164646974696f6e206f766572666c6f770000000000604482015290519081900360640190fd5b600080821215613304576040805162461bcd60e51b815260206004820181905260248201527f53616665436173743a2076616c7565206d75737420626520706f736974697665604482015290519081900360640190fd5b5090565b600082613317575060006110a9565b8282028284828161332457fe5b0414611a6c5760405162461bcd60e51b81526004018080602001828103825260218152602001806143ae6021913960400191505060405180910390fd5b6000806040516020840160008286518360008a6187965a03f19695505050505050565b60008060008060008060006133998989613c72565b9150915060006133a76138f9565b905060008060006133b98d8686613ca0565b919f909e50909c50959a50939850939650505050505050565b6001600160a01b0383166134175760405162461bcd60e51b81526004018080602001828103825260258152602001806145066025913960400191505060405180910390fd5b6001600160a01b03821661345c5760405162461bcd60e51b81526004018080602001828103825260238152602001806142376023913960400191505060405180910390fd5b6000811161349b5760405162461bcd60e51b81526004018080602001828103825260298152602001806144436029913960400191505060405180910390fd5b60115460ff1680156134cb57506001600160a01b03831660009081526009602052604090205460ff161515600114155b80156134f557506001600160a01b03821660009081526009602052604090205460ff161515600114155b15613547576040805162461bcd60e51b815260206004820152601b60248201527f4c6f636b656420756e74696c20656e64206f662070726573616c650000000000604482015290519081900360640190fd5b600a541580159061357157506001600160a01b03831660009081526008602052604090205460ff16155b801561359657506001600160a01b03821660009081526008602052604090205460ff16155b156135cd5760006135b2600a54836130df90919063ffffffff16565b90506135bf8430836133d2565b6135c98282613121565b9150505b6001600160a01b03831660009081526018602052604090205460ff16801561360e57506001600160a01b03821660009081526018602052604090205460ff16155b156136bd5742602054106136aa5760215481111561365d5760405162461bcd60e51b81526004018080602001828103825260378152602001806143776037913960400191505060405180910390fd5b60225461366d826128b48561209a565b11156136aa5760405162461bcd60e51b815260040180806020018281038252602b8152602001806144b1602b913960400191505060405180910390fd5b6136b8838383601d54613cdc565b6121f3565b6001600160a01b03831660009081526018602052604090205460ff161580156136fe57506001600160a01b03821660009081526018602052604090205460ff165b1561372d57426020541061371f5761371a838383602354613df5565b6136b8565b6136b8838383601d54613df5565b6001600160a01b03831660009081526018602052604090205460ff1615801561376f57506001600160a01b03821660009081526018602052604090205460ff16155b156137c25742602054106137b45760405162461bcd60e51b815260040180806020018281038252604981526020018061430d6049913960600191505060405180910390fd5b6136b8838383601d54613e9c565b6001600160a01b03831660009081526018602052604090205460ff16801561380257506001600160a01b03821660009081526018602052604090205460ff165b15613814576136b88383836000613ede565b42602054106138545760405162461bcd60e51b815260040180806020018281038252604981526020018061430d6049913960600191505060405180910390fd5b6121f3838383601d54613e9c565b600081848411156138f15760405162461bcd60e51b81526004018080602001828103825283818151815260200191508051906020019080838360005b838110156138b657818101518382015260200161389e565b50505050905090810190601f1680156138e35780820380516001836020036101000a031916815260200191505b509250505060405180910390fd5b505050900390565b6000806000613906613f4f565b909250905061391582826130df565b9250505090565b6001600160a01b0382166139615760405162461bcd60e51b81526004018080602001828103825260218152602001806144906021913960400191505060405180910390fd5b61396d826000836121f3565b6139aa8160405180606001604052806022815260200161425a602291396001600160a01b0385166000908152602081905260409020549190613862565b6001600160a01b0383166000908152602081905260409020556002546139d09082613121565b6002556040805182815290516000916001600160a01b038516917fddf252ad1be2c89b69c2b068fc378daa952ba7f163c4a11628f55a4df523b3ef9181900360200190a35050565b600654613a309030906001600160a01b0316836133d2565b600660009054906101000a90046001600160a01b03166001600160a01b031663fff6cae96040518163ffffffff1660e01b8152600401600060405180830381600087803b158015613a8057600080fd5b505af1158015613a94573d6000803e3d6000fd5b50506040805184815290517f8765d2bb982ed6ee74d2b03c76c9c129aa4a4e3e6b17bd7cf7830088e9d490549350908190036020019150a150565b6006546005546040805163095ea7b360e01b81526101009092046001600160a01b039081166004840152602483018590529051600093919091169163095ea7b391604480830192602092919082900301818787803b158015613b3057600080fd5b505af1158015613b44573d6000803e3d6000fd5b505050506040513d6020811015613b5a57600080fd5b50506005546011546040805163af2979eb60e01b815230600482015260248101869052600060448201819052606482018190526001600160a01b0361010094859004811660848401524260a48401529251939094049091169263af2979eb9260c4808401936020939083900390910190829087803b158015613bdb57600080fd5b505af1158015613bef573d6000803e3d6000fd5b505050506040513d6020811015613c0557600080fd5b505192915050565b60008183613c5c5760405162461bcd60e51b81526020600482018181528351602484015283519092839260449091019190850190808383600083156138b657818101518382015260200161389e565b506000838581613c6857fe5b0495945050505050565b60008080613c866127106111d18787613308565b90506000613c948683613121565b96919550909350505050565b6000808080613caf8786613308565b90506000613cbd8787613308565b90506000613ccb8383613121565b929992985090965090945050505050565b6000806000806000613cee8787613384565b6001600160a01b038e1660009081526016602052604090205494995092975090955093509150613d1e9088613121565b6001600160a01b038a16600090815260166020908152604080832093909355601590522054613d4d9086613121565b6001600160a01b03808b1660009081526015602052604080822093909355908a1681522054613d7c9085613253565b6001600160a01b038916600090815260156020526040902055613d9f83826140b2565b876001600160a01b0316896001600160a01b03167fddf252ad1be2c89b69c2b068fc378daa952ba7f163c4a11628f55a4df523b3ef846040518082815260200191505060405180910390a3505050505050505050565b6000806000806000613e078787613384565b6001600160a01b038e1660009081526015602052604090205494995092975090955093509150613e379086613121565b6001600160a01b03808b16600090815260156020908152604080832094909455918b16815260169091522054613e6d9083613253565b6001600160a01b038916600090815260166020908152604080832093909355601590522054613d7c9085613253565b6000806000806000613eae8787613384565b6001600160a01b038e1660009081526015602052604090205494995092975090955093509150613d4d9086613121565b6000806000806000613ef08787613384565b6001600160a01b038e1660009081526016602052604090205494995092975090955093509150613f209088613121565b6001600160a01b038a16600090815260166020908152604080832093909355601590522054613e379086613121565b601b54601a546000918291825b60195481101561408057826015600060198481548110613f7857fe5b60009182526020808320909101546001600160a01b031683528201929092526040019020541180613fdd5750816016600060198481548110613fb657fe5b60009182526020808320909101546001600160a01b03168352820192909252604001902054115b15613ff457601b54601a54945094505050506140ae565b614034601560006019848154811061400857fe5b60009182526020808320909101546001600160a01b031683528201929092526040019020548490613121565b9250614076601660006019848154811061404a57fe5b60009182526020808320909101546001600160a01b031683528201929092526040019020548390613121565b9150600101613f5c565b50601a54601b54614090916130df565b8210156140a857601b54601a549350935050506140ae565b90925090505b9091565b601b546140bf9083613121565b601b55601c546140cf9082613253565b601c555050565b828054600181600116156101000203166002900490600052602060002090601f01602090048101928261410c5760008555614152565b82601f1061412557805160ff1916838001178555614152565b82800160010185558215614152579182015b82811115614152578251825591602001919060010190614137565b50613304929150614221565b828054600181600116156101000203166002900490600052602060002090601f0160209004810192826141945760008555614152565b82601f106141a55780548555614152565b8280016001018555821561415257600052602060002091601f016020900482015b828111156141525782548255916001019190600101906141c6565b50805460018160011615610100020316600290046000825580601f106142075750611af0565b601f016020900490600052602060002090810190611af091905b5b80821115613304576000815560010161422256fe45524332303a207472616e7366657220746f20746865207a65726f206164647265737345524332303a206275726e20616d6f756e7420657863656564732062616c616e63654f776e61626c653a206e6577206f776e657220697320746865207a65726f206164647265737345524332303a20617070726f766520746f20746865207a65726f2061646472657373696e646578206d75737420626520696e2072616e6765206f662073746f726564207478206c69737473657443616c6c657252657761726444697669736f723a20746f6f20736d616c6c496e697469616c20556e6973776170206c697374696e67202d2057616c6c657420746f2057616c6c6574207472616e73666572732074656d706f726172696c792064697361626c6564596f7520617265206e6f7420616c6c6f77656420746f20726562616c616e636521496e697469616c20556e6973776170206c697374696e67202d20616d6f756e742065786365656473207472616e73666572206c696d6974536166654d6174683a206d756c7469706c69636174696f6e206f766572666c6f7745524332303a207472616e7366657220616d6f756e74206578636565647320616c6c6f77616e63655472616e7366657220666565206368616e6765732074696d656c6f636b656420666f7220313220686f7572734f776e61626c653a2063616c6c6572206973206e6f7420746865206f776e65725472616e7366657220616d6f756e74206d7573742062652067726561746572207468616e207a65726f45524332303a206275726e20616d6f756e74206578636565647320616c6c6f77616e636545524332303a206275726e2066726f6d20746865207a65726f2061646472657373496e697469616c20556e6973776170206c697374696e67202d206d61782062616c616e6365206c696d6974416d6f756e74206d757374206265206c657373207468616e20746f74616c2072656672616374696f6e7345524332303a207472616e736665722066726f6d20746865207a65726f206164647265737345524332303a20617070726f76652066726f6d20746865207a65726f20616464726573737365744c69717569646974794c6f636b44697669736f723a20746f6f20736d616c6c4578636c75646564206164647265737365732063616e6e6f742063616c6c20746869732066756e6374696f6e45524332303a2064656372656173656420616c6c6f77616e63652062656c6f77207a65726fa264697066735822122083ebd295e82257f1cf1e21faaf35486f948ae84fd288c6249a0dce6c69167dbd64736f6c634300070500336080604052600180546001600160a01b03191661dead17905534801561002457600080fd5b506040516108fd3803806108fd8339818101604052602081101561004757600080fd5b5051600080546001600160a01b03199081163317909155600280546001600160a01b0390931692909116919091179055610877806100866000396000f3fe6080604052600436106100385760003560e01c806361d027b314610041578063d246d41114610072578063f4993018146100875761003f565b3661003f57005b005b34801561004d57600080fd5b506100566100c3565b604080516001600160a01b039092168252519081900360200190f35b34801561007e57600080fd5b506100566100d2565b34801561009357600080fd5b506100b1600480360360208110156100aa57600080fd5b50356100e1565b60408051918252519081900360200190f35b6002546001600160a01b031681565b6001546001600160a01b031681565b600080546001600160a01b0316331461012e576040805162461bcd60e51b815260206004820152600a60248201526937b7363c903a37b5b2b760b11b604482015290519081900360640190fd5b61013847836102eb565b60008054604080516370a0823160e01b815230600482015290516001600160a01b03909216916370a0823191602480820192602092909190829003018186803b15801561018457600080fd5b505afa158015610198573d6000803e3d6000fd5b505050506040513d60208110156101ae57600080fd5b5051905060006101be82856106ba565b600080546040805163a9059cbb60e01b81523260048201526024810185905290519394506001600160a01b039091169263a9059cbb92604480840193602093929083900390910190829087803b15801561021757600080fd5b505af115801561022b573d6000803e3d6000fd5b505050506040513d602081101561024157600080fd5b50506000546001546001600160a01b039182169163a9059cbb91166102668585610703565b6040518363ffffffff1660e01b815260040180836001600160a01b0316815260200182815260200192505050602060405180830381600087803b1580156102ac57600080fd5b505af11580156102c0573d6000803e3d6000fd5b505050506040513d60208110156102d657600080fd5b506102e390508282610703565b949350505050565b604080516002808252606080830184529260208301908036833701905050905060008054906101000a90046001600160a01b03166001600160a01b0316631694505e6040518163ffffffff1660e01b815260040160206040518083038186803b15801561035757600080fd5b505afa15801561036b573d6000803e3d6000fd5b505050506040513d602081101561038157600080fd5b5051604080516315ab88c960e31b815290516001600160a01b039092169163ad5c464891600480820192602092909190829003018186803b1580156103c557600080fd5b505afa1580156103d9573d6000803e3d6000fd5b505050506040513d60208110156103ef57600080fd5b5051815182906000906103fe57fe5b6001600160a01b03928316602091820292909201015260005482519116908290600190811061042957fe5b6001600160a01b0390921660209283029190910190910152600061044d84846106ba565b6002546040519192506001600160a01b03169082156108fc029083906000818181858888f19350505050158015610488573d6000803e3d6000fd5b5060005460408051630b4a282f60e11b815290516001600160a01b039092169163095ea7b3918391631694505e91600480820192602092909190829003018186803b1580156104d657600080fd5b505afa1580156104ea573d6000803e3d6000fd5b505050506040513d602081101561050057600080fd5b5051604080516001600160e01b031960e085901b1681526001600160a01b039092166004830152602482018890525160448083019260209291908290030181600087803b15801561055057600080fd5b505af1158015610564573d6000803e3d6000fd5b505050506040513d602081101561057a57600080fd5b505060005460408051630b4a282f60e11b815290516001600160a01b0390921691631694505e91600480820192602092909190829003018186803b1580156105c157600080fd5b505afa1580156105d5573d6000803e3d6000fd5b505050506040513d60208110156105eb57600080fd5b50516001600160a01b031663b6f9de956106058684610703565b60008530426040518663ffffffff1660e01b81526004018085815260200180602001846001600160a01b03168152602001838152602001828103825285818151815260200191508051906020019060200280838360005b8381101561067457818101518382015260200161065c565b50505050905001955050505050506000604051808303818588803b15801561069b57600080fd5b505af11580156106af573d6000803e3d6000fd5b505050505050505050565b60006106fc83836040518060400160405280601a81526020017f536166654d6174683a206469766973696f6e206279207a65726f000000000000815250610745565b9392505050565b60006106fc83836040518060400160405280601e81526020017f536166654d6174683a207375627472616374696f6e206f766572666c6f7700008152506107e7565b600081836107d15760405162461bcd60e51b81526004018080602001828103825283818151815260200191508051906020019080838360005b8381101561079657818101518382015260200161077e565b50505050905090810190601f1680156107c35780820380516001836020036101000a031916815260200191505b509250505060405180910390fd5b5060008385816107dd57fe5b0495945050505050565b600081848411156108395760405162461bcd60e51b815260206004820181815283516024840152835190928392604490910191908501908083836000831561079657818101518382015260200161077e565b50505090039056fea2646970667358221220f77f1edd75c133d65f73849f72cb5346047707ceaba4e7551426270238b4028164736f6c63430007050033416d6f756e74206d757374206265206c657373207468616e20746f74616c2072656672616374696f6e73"
  }
}