{
  "opcodeHash": "0x195826d9f7e07a12ba5d963db5fbcfc50f01595cdbbce0f9bc3299b3eb8b2c2b",
  "metalessHash": "0x8c014a1c867a20a871f26894148828ad7c33f6f679cfd78555457293d27f9398",
  "runtimeHash": "0x0d6fff8af5fa751f8ab79d469ac5de00f02d7b61f0421c92b9d9dfc333f570a7",
  "encodedMetadata": [
    {
      "ipfs": "/ipfs/QmYromGozbVV7Tyh7ikgUinrLVVdT84M2kYRRFUTGD6MZM",
      "solc": "0.8.4"
    }
  ],
  "abi": [
    {
      "inputs": [
        {
          "internalType": "address",
          "name": "_tokenAccel",
          "type": "address"
        }
      ],
      "stateMutability": "nonpayable",
      "type": "constructor"
    },
    {
      "anonymous": false,
      "inputs": [
        {
          "indexed": true,
          "internalType": "address",
          "name": "previousOwner",
          "type": "address"
        },
        {
          "indexed": true,
          "internalType": "address",
          "name": "newOwner",
          "type": "address"
        }
      ],
      "name": "OwnershipTransferred",
      "type": "event"
    },
    {
      "inputs": [],
      "name": "claim",
      "outputs": [],
      "stateMutability": "nonpayable",
      "type": "function"
    },
    {
      "inputs": [
        {
          "internalType": "address",
          "name": "",
          "type": "address"
        }
      ],
      "name": "claimed",
      "outputs": [
        {
          "internalType": "bool",
          "name": "",
          "type": "bool"
        }
      ],
      "stateMutability": "view",
      "type": "function"
    },
    {
      "inputs": [
        {
          "internalType": "address",
          "name": "account",
          "type": "address"
        }
      ],
      "name": "getClaimableAmount",
      "outputs": [
        {
          "internalType": "uint256",
          "name": "tokens",
          "type": "uint256"
        },
        {
          "internalType": "uint256",
          "name": "eth",
          "type": "uint256"
        },
        {
          "internalType": "uint256",
          "name": "dividend",
          "type": "uint256"
        }
      ],
      "stateMutability": "view",
      "type": "function"
    },
    {
      "inputs": [],
      "name": "owner",
      "outputs": [
        {
          "internalType": "address",
          "name": "",
          "type": "address"
        }
      ],
      "stateMutability": "view",
      "type": "function"
    },
    {
      "inputs": [
        {
          "internalType": "uint256",
          "name": "id",
          "type": "uint256"
        },
        {
          "internalType": "address",
          "name": "_inputToken",
          "type": "address"
        },
        {
          "internalType": "uint256",
          "name": "_inputRate",
          "type": "uint256"
        },
        {
          "internalType": "uint256",
          "name": "_outputRate",
          "type": "uint256"
        }
      ],
      "name": "ownerAddInputTokenForSwap",
      "outputs": [],
      "stateMutability": "nonpayable",
      "type": "function"
    },
    {
      "inputs": [
        {
          "internalType": "uint256",
          "name": "id",
          "type": "uint256"
        },
        {
          "internalType": "address[]",
          "name": "accounts",
          "type": "address[]"
        },
        {
          "internalType": "uint256[]",
          "name": "amount",
          "type": "uint256[]"
        }
      ],
      "name": "ownerSetupTokenBalance",
      "outputs": [],
      "stateMutability": "nonpayable",
      "type": "function"
    },
    {
      "inputs": [],
      "name": "ownerWithdrawEthAndToken",
      "outputs": [],
      "stateMutability": "nonpayable",
      "type": "function"
    },
    {
      "inputs": [],
      "name": "renounceOwnership",
      "outputs": [],
      "stateMutability": "nonpayable",
      "type": "function"
    },
    {
      "inputs": [],
      "name": "tokenAccel",
      "outputs": [
        {
          "internalType": "contract IERC20",
          "name": "",
          "type": "address"
        }
      ],
      "stateMutability": "view",
      "type": "function"
    },
    {
      "inputs": [
        {
          "internalType": "uint256",
          "name": "",
          "type": "uint256"
        }
      ],
      "name": "tokenInput",
      "outputs": [
        {
          "internalType": "address",
          "name": "addr",
          "type": "address"
        },
        {
          "internalType": "uint256",
          "name": "rateInput",
          "type": "uint256"
        },
        {
          "internalType": "uint256",
          "name": "rateOutput",
          "type": "uint256"
        }
      ],
      "stateMutability": "view",
      "type": "function"
    },
    {
      "inputs": [
        {
          "internalType": "address",
          "name": "newOwner",
          "type": "address"
        }
      ],
      "name": "transferOwnership",
      "outputs": [],
      "stateMutability": "nonpayable",
      "type": "function"
    },
    {
      "stateMutability": "payable",
      "type": "receive"
    }
  ],
  "bytecode": {
    "object": "608060405234801561001057600080fd5b50604051610ebc380380610ebc83398101604081905261002f91610095565b600080546001600160a01b031916339081178255604051909182917f8be0079c531659141344cd1fd0a4f28419497f9722a3daafe3b4186f6b6457e0908290a350600180546001600160a01b0319166001600160a01b03929092169190911790556100c3565b6000602082840312156100a6578081fd5b81516001600160a01b03811681146100bc578182fd5b9392505050565b610dea806100d26000396000f3fe6080604052600436106100a05760003560e01c80637333555911610064578063733355591461014a5780637df62b6f1461016a5780638da5cb5b146101d6578063c884ef83146101f4578063e12f3a6114610234578063f2fde38b1461026f57600080fd5b806330878aae146100ac5780634e71d92d146100c357806362faf223146100d85780636c8ffd93146100f8578063715018a61461013557600080fd5b366100a757005b600080fd5b3480156100b857600080fd5b506100c161028f565b005b3480156100cf57600080fd5b506100c16103f5565b3480156100e457600080fd5b506100c16100f3366004610c28565b61053e565b34801561010457600080fd5b50600154610118906001600160a01b031681565b6040516001600160a01b0390911681526020015b60405180910390f35b34801561014157600080fd5b506100c16106a7565b34801561015657600080fd5b506100c1610165366004610bee565b61071b565b34801561017657600080fd5b506101b1610185366004610bbe565b60026020819052600091825260409091208054600182015491909201546001600160a01b039092169183565b604080516001600160a01b03909416845260208401929092529082015260600161012c565b3480156101e257600080fd5b506000546001600160a01b0316610118565b34801561020057600080fd5b5061022461020f366004610b84565b60046020526000908152604090205460ff1681565b604051901515815260200161012c565b34801561024057600080fd5b5061025461024f366004610b84565b6107a1565b6040805193845260208401929092529082015260600161012c565b34801561027b57600080fd5b506100c161028a366004610b84565b6108f2565b6000546001600160a01b031633146102c25760405162461bcd60e51b81526004016102b990610ce0565b60405180910390fd5b6001546040516370a0823160e01b81523060048201526001600160a01b039091169063a9059cbb90339083906370a082319060240160206040518083038186803b15801561030f57600080fd5b505afa158015610323573d6000803e3d6000fd5b505050506040513d601f19601f820116820180604052508101906103479190610bd6565b6040516001600160e01b031960e085901b1681526001600160a01b0390921660048301526024820152604401602060405180830381600087803b15801561038d57600080fd5b505af11580156103a1573d6000803e3d6000fd5b505050506040513d601f19601f820116820180604052508101906103c59190610b9e565b5060405133904780156108fc02916000818181858888f193505050501580156103f2573d6000803e3d6000fd5b50565b3360009081526004602052604090205460ff16156104475760405162461bcd60e51b815260206004820152600f60248201526e105b1c9958591e4818db185a5b5959608a1b60448201526064016102b9565b336000818152600460205260408120805460ff19166001179055908190819061046f906107a1565b60015460405163a9059cbb60e01b81523360048201526024810185905293965091945092506001600160a01b03169063a9059cbb90604401602060405180830381600087803b1580156104c157600080fd5b505af11580156104d5573d6000803e3d6000fd5b505050506040513d601f19601f820116820180604052508101906104f99190610b9e565b50604051339083156108fc029084906000818181858888f19350505050158015610527573d6000803e3d6000fd5b50806005546105369190610d6c565b600555505050565b6000546001600160a01b031633146105685760405162461bcd60e51b81526004016102b990610ce0565b600385106105885760405162461bcd60e51b81526004016102b990610c9f565b60005b8381101561069f578282828181106105b357634e487b7160e01b600052603260045260246000fd5b905060200201356003600088815260200190815260200160002060008787858181106105ef57634e487b7160e01b600052603260045260246000fd5b90506020020160208101906106049190610b84565b6001600160a01b031681526020808201929092526040908101600090812093909355888352600291829052909120600181015491015461068a916106819161067b9087878781811061066657634e487b7160e01b600052603260045260246000fd5b905060200201356109dc90919063ffffffff16565b90610a64565b60055490610abf565b6005558061069781610d83565b91505061058b565b505050505050565b6000546001600160a01b031633146106d15760405162461bcd60e51b81526004016102b990610ce0565b600080546040516001600160a01b03909116907f8be0079c531659141344cd1fd0a4f28419497f9722a3daafe3b4186f6b6457e0908390a3600080546001600160a01b0319169055565b6000546001600160a01b031633146107455760405162461bcd60e51b81526004016102b990610ce0565b600384106107655760405162461bcd60e51b81526004016102b990610c9f565b600093845260026020819052604090942080546001600160a01b0319166001600160a01b03949094169390931783556001830191909155910155565b6000806000600554600014156107bf575060009150819050806108eb565b6000805b600381101561084457600081815260026020526040902060010154156108325760008181526002602081815260408084206001810154930154600383528185206001600160a01b038c1686529092529092205461082f92610828929161067b916109dc565b8390610abf565b91505b8061083c81610d83565b9150506107c3565b506005546001546040516370a0823160e01b81523060048201526108d2929161067b9185916001600160a01b0316906370a082319060240160206040518083038186803b15801561089457600080fd5b505afa1580156108a8573d6000803e3d6000fd5b505050506040513d601f19601f820116820180604052508101906108cc9190610bd6565b906109dc565b6005549094506108e69061067b47846109dc565b925090505b9193909250565b6000546001600160a01b0316331461091c5760405162461bcd60e51b81526004016102b990610ce0565b6001600160a01b0381166109815760405162461bcd60e51b815260206004820152602660248201527f4f776e61626c653a206e6577206f776e657220697320746865207a65726f206160448201526564647265737360d01b60648201526084016102b9565b600080546040516001600160a01b03808516939216917f8be0079c531659141344cd1fd0a4f28419497f9722a3daafe3b4186f6b6457e091a3600080546001600160a01b0319166001600160a01b0392909216919091179055565b6000826109eb57506000610a5e565b60006109f78385610d4d565b905082610a048583610d2d565b14610a5b5760405162461bcd60e51b815260206004820152602160248201527f536166654d6174683a206d756c7469706c69636174696f6e206f766572666c6f6044820152607760f81b60648201526084016102b9565b90505b92915050565b6000808211610ab55760405162461bcd60e51b815260206004820152601a60248201527f536166654d6174683a206469766973696f6e206279207a65726f00000000000060448201526064016102b9565b610a5b8284610d2d565b600080610acc8385610d15565b905083811015610a5b5760405162461bcd60e51b815260206004820152601b60248201527f536166654d6174683a206164646974696f6e206f766572666c6f77000000000060448201526064016102b9565b80356001600160a01b0381168114610b3557600080fd5b919050565b60008083601f840112610b4b578182fd5b50813567ffffffffffffffff811115610b62578182fd5b6020830191508360208260051b8501011115610b7d57600080fd5b9250929050565b600060208284031215610b95578081fd5b610a5b82610b1e565b600060208284031215610baf578081fd5b81518015158114610a5b578182fd5b600060208284031215610bcf578081fd5b5035919050565b600060208284031215610be7578081fd5b5051919050565b60008060008060808587031215610c03578283fd5b84359350610c1360208601610b1e565b93969395505050506040820135916060013590565b600080600080600060608688031215610c3f578081fd5b85359450602086013567ffffffffffffffff80821115610c5d578283fd5b610c6989838a01610b3a565b90965094506040880135915080821115610c81578283fd5b50610c8e88828901610b3a565b969995985093965092949392505050565b60208082526021908201527f5468657265203320746f6b656e2c2069642073686f756c6420626520302c312c6040820152601960f91b606082015260800190565b6020808252818101527f4f776e61626c653a2063616c6c6572206973206e6f7420746865206f776e6572604082015260600190565b60008219821115610d2857610d28610d9e565b500190565b600082610d4857634e487b7160e01b81526012600452602481fd5b500490565b6000816000190483118215151615610d6757610d67610d9e565b500290565b600082821015610d7e57610d7e610d9e565b500390565b6000600019821415610d9757610d97610d9e565b5060010190565b634e487b7160e01b600052601160045260246000fdfea2646970667358221220536da1cee6efcc0a73ca6bf0a351df8384a16a06d263a03301f5030a118aeb6764736f6c63430008040033"
  }
}