{
  "opcodeHash": "0xc0dbd97e2d7fcc101cd902e076e40e9bd89a3ee41063d992a660a825e9c7feda",
  "metalessHash": "0x9c51f0979a9447b4168d53084a51863c6824a877bbcb5f8f21d466708da3e87c",
  "runtimeHash": "0x8296cef536f98a229e2474c95d6f83e2abfb9e0bbfdb017d9fc63bda2d93cb8a",
  "encodedMetadata": [
    {
      "ipfs": "/ipfs/QmYFhsimENUjk58fiAw7eAL8h4E3qEMYYnBgvHU36deNwE",
      "solc": "0.6.12"
    }
  ],
  "abi": [
    {
      "inputs": [
        {
          "internalType": "address",
          "name": "basisShare_",
          "type": "address"
        },
        {
          "internalType": "address",
          "name": "lptoken_",
          "type": "address"
        },
        {
          "internalType": "uint256",
          "name": "starttime_",
          "type": "uint256"
        }
      ],
      "stateMutability": "nonpayable",
      "type": "constructor"
    },
    {
      "anonymous": false,
      "inputs": [
        {
          "indexed": true,
          "internalType": "address",
          "name": "previousOwner",
          "type": "address"
        },
        {
          "indexed": true,
          "internalType": "address",
          "name": "newOwner",
          "type": "address"
        }
      ],
      "name": "OwnershipTransferred",
      "type": "event"
    },
    {
      "anonymous": false,
      "inputs": [
        {
          "indexed": false,
          "internalType": "uint256",
          "name": "reward",
          "type": "uint256"
        }
      ],
      "name": "RewardAdded",
      "type": "event"
    },
    {
      "anonymous": false,
      "inputs": [
        {
          "indexed": true,
          "internalType": "address",
          "name": "user",
          "type": "address"
        },
        {
          "indexed": false,
          "internalType": "uint256",
          "name": "reward",
          "type": "uint256"
        }
      ],
      "name": "RewardPaid",
      "type": "event"
    },
    {
      "anonymous": false,
      "inputs": [
        {
          "indexed": true,
          "internalType": "address",
          "name": "user",
          "type": "address"
        },
        {
          "indexed": false,
          "internalType": "uint256",
          "name": "amount",
          "type": "uint256"
        }
      ],
      "name": "Staked",
      "type": "event"
    },
    {
      "anonymous": false,
      "inputs": [
        {
          "indexed": true,
          "internalType": "address",
          "name": "user",
          "type": "address"
        },
        {
          "indexed": false,
          "internalType": "uint256",
          "name": "amount",
          "type": "uint256"
        }
      ],
      "name": "Withdrawn",
      "type": "event"
    },
    {
      "inputs": [],
      "name": "DURATION",
      "outputs": [
        {
          "internalType": "uint256",
          "name": "",
          "type": "uint256"
        }
      ],
      "stateMutability": "view",
      "type": "function"
    },
    {
      "inputs": [
        {
          "internalType": "address",
          "name": "account",
          "type": "address"
        }
      ],
      "name": "balanceOf",
      "outputs": [
        {
          "internalType": "uint256",
          "name": "",
          "type": "uint256"
        }
      ],
      "stateMutability": "view",
      "type": "function"
    },
    {
      "inputs": [],
      "name": "basisShare",
      "outputs": [
        {
          "internalType": "contract IERC20",
          "name": "",
          "type": "address"
        }
      ],
      "stateMutability": "view",
      "type": "function"
    },
    {
      "inputs": [
        {
          "internalType": "address",
          "name": "account",
          "type": "address"
        }
      ],
      "name": "earned",
      "outputs": [
        {
          "internalType": "uint256",
          "name": "",
          "type": "uint256"
        }
      ],
      "stateMutability": "view",
      "type": "function"
    },
    {
      "inputs": [],
      "name": "exit",
      "outputs": [],
      "stateMutability": "nonpayable",
      "type": "function"
    },
    {
      "inputs": [],
      "name": "getReward",
      "outputs": [],
      "stateMutability": "nonpayable",
      "type": "function"
    },
    {
      "inputs": [],
      "name": "lastTimeRewardApplicable",
      "outputs": [
        {
          "internalType": "uint256",
          "name": "",
          "type": "uint256"
        }
      ],
      "stateMutability": "view",
      "type": "function"
    },
    {
      "inputs": [],
      "name": "lastUpdateTime",
      "outputs": [
        {
          "internalType": "uint256",
          "name": "",
          "type": "uint256"
        }
      ],
      "stateMutability": "view",
      "type": "function"
    },
    {
      "inputs": [],
      "name": "lpt",
      "outputs": [
        {
          "internalType": "contract IERC20",
          "name": "",
          "type": "address"
        }
      ],
      "stateMutability": "view",
      "type": "function"
    },
    {
      "inputs": [
        {
          "internalType": "uint256",
          "name": "reward",
          "type": "uint256"
        }
      ],
      "name": "notifyRewardAmount",
      "outputs": [],
      "stateMutability": "nonpayable",
      "type": "function"
    },
    {
      "inputs": [],
      "name": "owner",
      "outputs": [
        {
          "internalType": "address",
          "name": "",
          "type": "address"
        }
      ],
      "stateMutability": "view",
      "type": "function"
    },
    {
      "inputs": [],
      "name": "periodFinish",
      "outputs": [
        {
          "internalType": "uint256",
          "name": "",
          "type": "uint256"
        }
      ],
      "stateMutability": "view",
      "type": "function"
    },
    {
      "inputs": [],
      "name": "renounceOwnership",
      "outputs": [],
      "stateMutability": "nonpayable",
      "type": "function"
    },
    {
      "inputs": [],
      "name": "rewardDistribution",
      "outputs": [
        {
          "internalType": "address",
          "name": "",
          "type": "address"
        }
      ],
      "stateMutability": "view",
      "type": "function"
    },
    {
      "inputs": [],
      "name": "rewardPerToken",
      "outputs": [
        {
          "internalType": "uint256",
          "name": "",
          "type": "uint256"
        }
      ],
      "stateMutability": "view",
      "type": "function"
    },
    {
      "inputs": [],
      "name": "rewardPerTokenStored",
      "outputs": [
        {
          "internalType": "uint256",
          "name": "",
          "type": "uint256"
        }
      ],
      "stateMutability": "view",
      "type": "function"
    },
    {
      "inputs": [],
      "name": "rewardRate",
      "outputs": [
        {
          "internalType": "uint256",
          "name": "",
          "type": "uint256"
        }
      ],
      "stateMutability": "view",
      "type": "function"
    },
    {
      "inputs": [
        {
          "internalType": "address",
          "name": "",
          "type": "address"
        }
      ],
      "name": "rewards",
      "outputs": [
        {
          "internalType": "uint256",
          "name": "",
          "type": "uint256"
        }
      ],
      "stateMutability": "view",
      "type": "function"
    },
    {
      "inputs": [
        {
          "internalType": "address",
          "name": "_rewardDistribution",
          "type": "address"
        }
      ],
      "name": "setRewardDistribution",
      "outputs": [],
      "stateMutability": "nonpayable",
      "type": "function"
    },
    {
      "inputs": [
        {
          "internalType": "uint256",
          "name": "amount",
          "type": "uint256"
        }
      ],
      "name": "stake",
      "outputs": [],
      "stateMutability": "nonpayable",
      "type": "function"
    },
    {
      "inputs": [],
      "name": "starttime",
      "outputs": [
        {
          "internalType": "uint256",
          "name": "",
          "type": "uint256"
        }
      ],
      "stateMutability": "view",
      "type": "function"
    },
    {
      "inputs": [],
      "name": "totalSupply",
      "outputs": [
        {
          "internalType": "uint256",
          "name": "",
          "type": "uint256"
        }
      ],
      "stateMutability": "view",
      "type": "function"
    },
    {
      "inputs": [
        {
          "internalType": "address",
          "name": "newOwner",
          "type": "address"
        }
      ],
      "name": "transferOwnership",
      "outputs": [],
      "stateMutability": "nonpayable",
      "type": "function"
    },
    {
      "inputs": [
        {
          "internalType": "address",
          "name": "",
          "type": "address"
        }
      ],
      "name": "userRewardPerTokenPaid",
      "outputs": [
        {
          "internalType": "uint256",
          "name": "",
          "type": "uint256"
        }
      ],
      "stateMutability": "view",
      "type": "function"
    },
    {
      "inputs": [
        {
          "internalType": "uint256",
          "name": "amount",
          "type": "uint256"
        }
      ],
      "name": "withdraw",
      "outputs": [],
      "stateMutability": "nonpayable",
      "type": "function"
    }
  ],
  "bytecode": {
    "object": "60806040526301e133806006556000600855600060095534801561002257600080fd5b506040516123813803806123818339818101604052606081101561004557600080fd5b81019080805190602001909291908051906020019092919080519060200190929190505050600061007a6101a960201b60201c565b905080600360006101000a81548173ffffffffffffffffffffffffffffffffffffffff021916908373ffffffffffffffffffffffffffffffffffffffff1602179055508073ffffffffffffffffffffffffffffffffffffffff16600073ffffffffffffffffffffffffffffffffffffffff167f8be0079c531659141344cd1fd0a4f28419497f9722a3daafe3b4186f6b6457e060405160405180910390a35082600560006101000a81548173ffffffffffffffffffffffffffffffffffffffff021916908373ffffffffffffffffffffffffffffffffffffffff160217905550816000806101000a81548173ffffffffffffffffffffffffffffffffffffffff021916908373ffffffffffffffffffffffffffffffffffffffff160217905550806007819055505050506101b1565b600033905090565b6121c1806101c06000396000f3fe608060405234801561001057600080fd5b50600436106101725760003560e01c80637b0a47ee116100de578063c8f33c9111610097578063df136d6511610071578063df136d651461055b578063e9fad8ee14610579578063ebe2b12b14610583578063f2fde38b146105a157610172565b8063c8f33c91146104eb578063cd3daf9d14610509578063ce5fc8d01461052757610172565b80637b0a47ee146103d757806380faa57d146103f55780638b876347146104135780638da588971461046b5780638da5cb5b14610489578063a694fc3a146104bd57610172565b80632e1a7d4d116101305780632e1a7d4d146102db5780633c6b16ab146103095780633d18b9121461033757806349badb411461034157806370a0823114610375578063715018a6146103cd57610172565b80628cc262146101775780630700037d146101cf5780630d68b76114610227578063101114cf1461026b57806318160ddd1461029f5780631be05289146102bd575b600080fd5b6101b96004803603602081101561018d57600080fd5b81019080803573ffffffffffffffffffffffffffffffffffffffff1690602001909291905050506105e5565b6040518082815260200191505060405180910390f35b610211600480360360208110156101e557600080fd5b81019080803573ffffffffffffffffffffffffffffffffffffffff1690602001909291905050506106cc565b6040518082815260200191505060405180910390f35b6102696004803603602081101561023d57600080fd5b81019080803573ffffffffffffffffffffffffffffffffffffffff1690602001909291905050506106e4565b005b6102736107f2565b604051808273ffffffffffffffffffffffffffffffffffffffff16815260200191505060405180910390f35b6102a7610818565b6040518082815260200191505060405180910390f35b6102c5610822565b6040518082815260200191505060405180910390f35b610307600480360360208110156102f157600080fd5b8101908080359060200190929190505050610828565b005b6103356004803603602081101561031f57600080fd5b8101908080359060200190929190505050610a55565b005b61033f610d57565b005b610349610fae565b604051808273ffffffffffffffffffffffffffffffffffffffff16815260200191505060405180910390f35b6103b76004803603602081101561038b57600080fd5b81019080803573ffffffffffffffffffffffffffffffffffffffff169060200190929190505050610fd4565b6040518082815260200191505060405180910390f35b6103d561101d565b005b6103df6111a8565b6040518082815260200191505060405180910390f35b6103fd6111ae565b6040518082815260200191505060405180910390f35b6104556004803603602081101561042957600080fd5b81019080803573ffffffffffffffffffffffffffffffffffffffff1690602001909291905050506111c1565b6040518082815260200191505060405180910390f35b6104736111d9565b6040518082815260200191505060405180910390f35b6104916111df565b604051808273ffffffffffffffffffffffffffffffffffffffff16815260200191505060405180910390f35b6104e9600480360360208110156104d357600080fd5b8101908080359060200190929190505050611209565b005b6104f3611436565b6040518082815260200191505060405180910390f35b61051161143c565b6040518082815260200191505060405180910390f35b61052f6114d4565b604051808273ffffffffffffffffffffffffffffffffffffffff16815260200191505060405180910390f35b6105636114f8565b6040518082815260200191505060405180910390f35b6105816114fe565b005b61058b611519565b6040518082815260200191505060405180910390f35b6105e3600480360360208110156105b757600080fd5b81019080803573ffffffffffffffffffffffffffffffffffffffff16906020019092919050505061151f565b005b60006106c5600d60008473ffffffffffffffffffffffffffffffffffffffff1673ffffffffffffffffffffffffffffffffffffffff168152602001908152602001600020546106b7670de0b6b3a76400006106a9610692600c60008973ffffffffffffffffffffffffffffffffffffffff1673ffffffffffffffffffffffffffffffffffffffff1681526020019081526020016000205461068461143c565b61172f90919063ffffffff16565b61069b88610fd4565b61177990919063ffffffff16565b6117ff90919063ffffffff16565b61184990919063ffffffff16565b9050919050565b600d6020528060005260406000206000915090505481565b6106ec6118d1565b73ffffffffffffffffffffffffffffffffffffffff16600360009054906101000a900473ffffffffffffffffffffffffffffffffffffffff1673ffffffffffffffffffffffffffffffffffffffff16146107ae576040517f08c379a00000000000000000000000000000000000000000000000000000000081526004018080602001828103825260208152602001807f4f776e61626c653a2063616c6c6572206973206e6f7420746865206f776e657281525060200191505060405180910390fd5b80600460006101000a81548173ffffffffffffffffffffffffffffffffffffffff021916908373ffffffffffffffffffffffffffffffffffffffff16021790555050565b600460009054906101000a900473ffffffffffffffffffffffffffffffffffffffff1681565b6000600154905090565b60065481565b3361083161143c565b600b8190555061083f6111ae565b600a81905550600073ffffffffffffffffffffffffffffffffffffffff168173ffffffffffffffffffffffffffffffffffffffff161461090c57610882816105e5565b600d60008373ffffffffffffffffffffffffffffffffffffffff1673ffffffffffffffffffffffffffffffffffffffff16815260200190815260200160002081905550600b54600c60008373ffffffffffffffffffffffffffffffffffffffff1673ffffffffffffffffffffffffffffffffffffffff168152602001908152602001600020819055505b600754421015610984576040517f08c379a00000000000000000000000000000000000000000000000000000000081526004018080602001828103825260098152602001807f6e6f74207374617274000000000000000000000000000000000000000000000081525060200191505060405180910390fd5b600082116109fa576040517f08c379a00000000000000000000000000000000000000000000000000000000081526004018080602001828103825260118152602001807f43616e6e6f74207769746864726177203000000000000000000000000000000081525060200191505060405180910390fd5b610a03826118d9565b3373ffffffffffffffffffffffffffffffffffffffff167f7084f5476618d8e60b11ef0d7d3f06914655adb8793e28ff7f018d4c76d505d5836040518082815260200191505060405180910390a25050565b600460009054906101000a900473ffffffffffffffffffffffffffffffffffffffff1673ffffffffffffffffffffffffffffffffffffffff16610a966118d1565b73ffffffffffffffffffffffffffffffffffffffff1614610b02576040517f08c379a00000000000000000000000000000000000000000000000000000000081526004018080602001828103825260218152602001806121416021913960400191505060405180910390fd5b6000610b0c61143c565b600b81905550610b1a6111ae565b600a81905550600073ffffffffffffffffffffffffffffffffffffffff168173ffffffffffffffffffffffffffffffffffffffff1614610be757610b5d816105e5565b600d60008373ffffffffffffffffffffffffffffffffffffffff1673ffffffffffffffffffffffffffffffffffffffff16815260200190815260200160002081905550600b54600c60008373ffffffffffffffffffffffffffffffffffffffff1673ffffffffffffffffffffffffffffffffffffffff168152602001908152602001600020819055505b600754421115610cda576008544210610c1a57610c0f600654836117ff90919063ffffffff16565b600981905550610c7c565b6000610c314260085461172f90919063ffffffff16565b90506000610c4a6009548361177990919063ffffffff16565b9050610c73600654610c65838761184990919063ffffffff16565b6117ff90919063ffffffff16565b60098190555050505b42600a81905550610c986006544261184990919063ffffffff16565b6008819055507fde88a922e0d3b88b24e9623efeb464919c6bf9f66857a65e2bfcf2ce87a9433d826040518082815260200191505060405180910390a1610d53565b610cef600654836117ff90919063ffffffff16565b600981905550600754600a81905550610d1560065460075461184990919063ffffffff16565b6008819055507fde88a922e0d3b88b24e9623efeb464919c6bf9f66857a65e2bfcf2ce87a9433d826040518082815260200191505060405180910390a15b5050565b33610d6061143c565b600b81905550610d6e6111ae565b600a81905550600073ffffffffffffffffffffffffffffffffffffffff168173ffffffffffffffffffffffffffffffffffffffff1614610e3b57610db1816105e5565b600d60008373ffffffffffffffffffffffffffffffffffffffff1673ffffffffffffffffffffffffffffffffffffffff16815260200190815260200160002081905550600b54600c60008373ffffffffffffffffffffffffffffffffffffffff1673ffffffffffffffffffffffffffffffffffffffff168152602001908152602001600020819055505b600754421015610eb3576040517f08c379a00000000000000000000000000000000000000000000000000000000081526004018080602001828103825260098152602001807f6e6f74207374617274000000000000000000000000000000000000000000000081525060200191505060405180910390fd5b6000610ebe336105e5565b90506000811115610faa576000600d60003373ffffffffffffffffffffffffffffffffffffffff1673ffffffffffffffffffffffffffffffffffffffff16815260200190815260200160002081905550610f5b3382600560009054906101000a900473ffffffffffffffffffffffffffffffffffffffff1673ffffffffffffffffffffffffffffffffffffffff166119d79092919063ffffffff16565b3373ffffffffffffffffffffffffffffffffffffffff167fe2403640ba68fed3a2f88b7557551d1993f84b99bb10ff833f0cf8db0c5e0486826040518082815260200191505060405180910390a25b5050565b600560009054906101000a900473ffffffffffffffffffffffffffffffffffffffff1681565b6000600260008373ffffffffffffffffffffffffffffffffffffffff1673ffffffffffffffffffffffffffffffffffffffff168152602001908152602001600020549050919050565b6110256118d1565b73ffffffffffffffffffffffffffffffffffffffff16600360009054906101000a900473ffffffffffffffffffffffffffffffffffffffff1673ffffffffffffffffffffffffffffffffffffffff16146110e7576040517f08c379a00000000000000000000000000000000000000000000000000000000081526004018080602001828103825260208152602001807f4f776e61626c653a2063616c6c6572206973206e6f7420746865206f776e657281525060200191505060405180910390fd5b600073ffffffffffffffffffffffffffffffffffffffff16600360009054906101000a900473ffffffffffffffffffffffffffffffffffffffff1673ffffffffffffffffffffffffffffffffffffffff167f8be0079c531659141344cd1fd0a4f28419497f9722a3daafe3b4186f6b6457e060405160405180910390a36000600360006101000a81548173ffffffffffffffffffffffffffffffffffffffff021916908373ffffffffffffffffffffffffffffffffffffffff160217905550565b60095481565b60006111bc42600854611a79565b905090565b600c6020528060005260406000206000915090505481565b60075481565b6000600360009054906101000a900473ffffffffffffffffffffffffffffffffffffffff16905090565b3361121261143c565b600b819055506112206111ae565b600a81905550600073ffffffffffffffffffffffffffffffffffffffff168173ffffffffffffffffffffffffffffffffffffffff16146112ed57611263816105e5565b600d60008373ffffffffffffffffffffffffffffffffffffffff1673ffffffffffffffffffffffffffffffffffffffff16815260200190815260200160002081905550600b54600c60008373ffffffffffffffffffffffffffffffffffffffff1673ffffffffffffffffffffffffffffffffffffffff168152602001908152602001600020819055505b600754421015611365576040517f08c379a00000000000000000000000000000000000000000000000000000000081526004018080602001828103825260098152602001807f6e6f74207374617274000000000000000000000000000000000000000000000081525060200191505060405180910390fd5b600082116113db576040517f08c379a000000000000000000000000000000000000000000000000000000000815260040180806020018281038252600e8152602001807f43616e6e6f74207374616b65203000000000000000000000000000000000000081525060200191505060405180910390fd5b6113e482611a92565b3373ffffffffffffffffffffffffffffffffffffffff167f9e71bc8eea02a63969f509818f2dafb9254532904319f9dbda79b67bd34a5f3d836040518082815260200191505060405180910390a25050565b600a5481565b600080611447610818565b141561145757600b5490506114d1565b6114ce6114bd611465610818565b6114af670de0b6b3a76400006114a1600954611493600a546114856111ae565b61172f90919063ffffffff16565b61177990919063ffffffff16565b61177990919063ffffffff16565b6117ff90919063ffffffff16565b600b5461184990919063ffffffff16565b90505b90565b60008054906101000a900473ffffffffffffffffffffffffffffffffffffffff1681565b600b5481565b61150f61150a33610fd4565b610828565b611517610d57565b565b60085481565b6115276118d1565b73ffffffffffffffffffffffffffffffffffffffff16600360009054906101000a900473ffffffffffffffffffffffffffffffffffffffff1673ffffffffffffffffffffffffffffffffffffffff16146115e9576040517f08c379a00000000000000000000000000000000000000000000000000000000081526004018080602001828103825260208152602001807f4f776e61626c653a2063616c6c6572206973206e6f7420746865206f776e657281525060200191505060405180910390fd5b600073ffffffffffffffffffffffffffffffffffffffff168173ffffffffffffffffffffffffffffffffffffffff16141561166f576040517f08c379a00000000000000000000000000000000000000000000000000000000081526004018080602001828103825260268152602001806120fa6026913960400191505060405180910390fd5b8073ffffffffffffffffffffffffffffffffffffffff16600360009054906101000a900473ffffffffffffffffffffffffffffffffffffffff1673ffffffffffffffffffffffffffffffffffffffff167f8be0079c531659141344cd1fd0a4f28419497f9722a3daafe3b4186f6b6457e060405160405180910390a380600360006101000a81548173ffffffffffffffffffffffffffffffffffffffff021916908373ffffffffffffffffffffffffffffffffffffffff16021790555050565b600061177183836040518060400160405280601e81526020017f536166654d6174683a207375627472616374696f6e206f766572666c6f770000815250611b92565b905092915050565b60008083141561178c57600090506117f9565b600082840290508284828161179d57fe5b04146117f4576040517f08c379a00000000000000000000000000000000000000000000000000000000081526004018080602001828103825260218152602001806121206021913960400191505060405180910390fd5b809150505b92915050565b600061184183836040518060400160405280601a81526020017f536166654d6174683a206469766973696f6e206279207a65726f000000000000815250611c52565b905092915050565b6000808284019050838110156118c7576040517f08c379a000000000000000000000000000000000000000000000000000000000815260040180806020018281038252601b8152602001807f536166654d6174683a206164646974696f6e206f766572666c6f77000000000081525060200191505060405180910390fd5b8091505092915050565b600033905090565b6118ee8160015461172f90919063ffffffff16565b60018190555061194681600260003373ffffffffffffffffffffffffffffffffffffffff1673ffffffffffffffffffffffffffffffffffffffff1681526020019081526020016000205461172f90919063ffffffff16565b600260003373ffffffffffffffffffffffffffffffffffffffff1673ffffffffffffffffffffffffffffffffffffffff168152602001908152602001600020819055506119d4338260008054906101000a900473ffffffffffffffffffffffffffffffffffffffff1673ffffffffffffffffffffffffffffffffffffffff166119d79092919063ffffffff16565b50565b611a748363a9059cbb60e01b8484604051602401808373ffffffffffffffffffffffffffffffffffffffff16815260200182815260200192505050604051602081830303815290604052907bffffffffffffffffffffffffffffffffffffffffffffffffffffffff19166020820180517bffffffffffffffffffffffffffffffffffffffffffffffffffffffff8381831617835250505050611d18565b505050565b6000818310611a885781611a8a565b825b905092915050565b611aa78160015461184990919063ffffffff16565b600181905550611aff81600260003373ffffffffffffffffffffffffffffffffffffffff1673ffffffffffffffffffffffffffffffffffffffff1681526020019081526020016000205461184990919063ffffffff16565b600260003373ffffffffffffffffffffffffffffffffffffffff1673ffffffffffffffffffffffffffffffffffffffff16815260200190815260200160002081905550611b8f33308360008054906101000a900473ffffffffffffffffffffffffffffffffffffffff1673ffffffffffffffffffffffffffffffffffffffff16611e07909392919063ffffffff16565b50565b6000838311158290611c3f576040517f08c379a00000000000000000000000000000000000000000000000000000000081526004018080602001828103825283818151815260200191508051906020019080838360005b83811015611c04578082015181840152602081019050611be9565b50505050905090810190601f168015611c315780820380516001836020036101000a031916815260200191505b509250505060405180910390fd5b5060008385039050809150509392505050565b60008083118290611cfe576040517f08c379a00000000000000000000000000000000000000000000000000000000081526004018080602001828103825283818151815260200191508051906020019080838360005b83811015611cc3578082015181840152602081019050611ca8565b50505050905090810190601f168015611cf05780820380516001836020036101000a031916815260200191505b509250505060405180910390fd5b506000838581611d0a57fe5b049050809150509392505050565b6060611d7a826040518060400160405280602081526020017f5361666545524332303a206c6f772d6c6576656c2063616c6c206661696c65648152508573ffffffffffffffffffffffffffffffffffffffff16611ec89092919063ffffffff16565b9050600081511115611e0257808060200190516020811015611d9b57600080fd5b8101908080519060200190929190505050611e01576040517f08c379a000000000000000000000000000000000000000000000000000000000815260040180806020018281038252602a815260200180612162602a913960400191505060405180910390fd5b5b505050565b611ec2846323b872dd60e01b858585604051602401808473ffffffffffffffffffffffffffffffffffffffff1681526020018373ffffffffffffffffffffffffffffffffffffffff1681526020018281526020019350505050604051602081830303815290604052907bffffffffffffffffffffffffffffffffffffffffffffffffffffffff19166020820180517bffffffffffffffffffffffffffffffffffffffffffffffffffffffff8381831617835250505050611d18565b50505050565b6060611ed78484600085611ee0565b90509392505050565b6060611eeb856120e6565b611f5d576040517f08c379a000000000000000000000000000000000000000000000000000000000815260040180806020018281038252601d8152602001807f416464726573733a2063616c6c20746f206e6f6e2d636f6e747261637400000081525060200191505060405180910390fd5b600060608673ffffffffffffffffffffffffffffffffffffffff1685876040518082805190602001908083835b60208310611fad5780518252602082019150602081019050602083039250611f8a565b6001836020036101000a03801982511681845116808217855250505050505090500191505060006040518083038185875af1925050503d806000811461200f576040519150601f19603f3d011682016040523d82523d6000602084013e612014565b606091505b509150915081156120295780925050506120de565b60008151111561203c5780518082602001fd5b836040517f08c379a00000000000000000000000000000000000000000000000000000000081526004018080602001828103825283818151815260200191508051906020019080838360005b838110156120a3578082015181840152602081019050612088565b50505050905090810190601f1680156120d05780820380516001836020036101000a031916815260200191505b509250505060405180910390fd5b949350505050565b600080823b90506000811191505091905056fe4f776e61626c653a206e6577206f776e657220697320746865207a65726f2061646472657373536166654d6174683a206d756c7469706c69636174696f6e206f766572666c6f7743616c6c6572206973206e6f742072657761726420646973747269627574696f6e5361666545524332303a204552433230206f7065726174696f6e20646964206e6f742073756363656564a2646970667358221220a1b94bd3bafe83a153af7ce158325b94cdd41b0065264fc27ff31a55dbac9a4264736f6c634300060c0033"
  }
}