{
  "opcodeHash": "0x4df513bdd52cca156da96186a85903afe228a5df2b7b3bc837cf7a40a1cbc016",
  "metalessHash": "0xf2366d9f0b70e9fe078319ced10e72665da6cab4dff3243db3a18525a6a572ee",
  "runtimeHash": "0x8552e7593525976b9d2cf358797fea1189b0c389c627e9bd1c5b7905308d3756",
  "encodedMetadata": [
    {
      "ipfs": "/ipfs/QmbvZak9X3UBfVQo2me51eRrKHNrXenBhtJGrap4wggao3",
      "solc": "0.8.7"
    }
  ],
  "abi": [
    {
      "inputs": [
        {
          "internalType": "string",
          "name": "name",
          "type": "string"
        },
        {
          "internalType": "string",
          "name": "symbol",
          "type": "string"
        },
        {
          "internalType": "address[]",
          "name": "shareholders",
          "type": "address[]"
        },
        {
          "internalType": "uint256[]",
          "name": "shares",
          "type": "uint256[]"
        }
      ],
      "stateMutability": "nonpayable",
      "type": "constructor"
    },
    {
      "anonymous": false,
      "inputs": [
        {
          "indexed": true,
          "internalType": "address",
          "name": "owner",
          "type": "address"
        },
        {
          "indexed": true,
          "internalType": "address",
          "name": "approved",
          "type": "address"
        },
        {
          "indexed": true,
          "internalType": "uint256",
          "name": "tokenId",
          "type": "uint256"
        }
      ],
      "name": "Approval",
      "type": "event"
    },
    {
      "anonymous": false,
      "inputs": [
        {
          "indexed": true,
          "internalType": "address",
          "name": "owner",
          "type": "address"
        },
        {
          "indexed": true,
          "internalType": "address",
          "name": "operator",
          "type": "address"
        },
        {
          "indexed": false,
          "internalType": "bool",
          "name": "approved",
          "type": "bool"
        }
      ],
      "name": "ApprovalForAll",
      "type": "event"
    },
    {
      "anonymous": false,
      "inputs": [
        {
          "indexed": true,
          "internalType": "contract IERC20",
          "name": "token",
          "type": "address"
        },
        {
          "indexed": false,
          "internalType": "address",
          "name": "to",
          "type": "address"
        },
        {
          "indexed": false,
          "internalType": "uint256",
          "name": "amount",
          "type": "uint256"
        }
      ],
      "name": "ERC20PaymentReleased",
      "type": "event"
    },
    {
      "anonymous": false,
      "inputs": [
        {
          "indexed": true,
          "internalType": "address",
          "name": "previousOwner",
          "type": "address"
        },
        {
          "indexed": true,
          "internalType": "address",
          "name": "newOwner",
          "type": "address"
        }
      ],
      "name": "OwnershipTransferred",
      "type": "event"
    },
    {
      "anonymous": false,
      "inputs": [
        {
          "indexed": false,
          "internalType": "address",
          "name": "account",
          "type": "address"
        },
        {
          "indexed": false,
          "internalType": "uint256",
          "name": "shares",
          "type": "uint256"
        }
      ],
      "name": "PayeeAdded",
      "type": "event"
    },
    {
      "anonymous": false,
      "inputs": [
        {
          "indexed": false,
          "internalType": "address",
          "name": "from",
          "type": "address"
        },
        {
          "indexed": false,
          "internalType": "uint256",
          "name": "amount",
          "type": "uint256"
        }
      ],
      "name": "PaymentReceived",
      "type": "event"
    },
    {
      "anonymous": false,
      "inputs": [
        {
          "indexed": false,
          "internalType": "address",
          "name": "to",
          "type": "address"
        },
        {
          "indexed": false,
          "internalType": "uint256",
          "name": "amount",
          "type": "uint256"
        }
      ],
      "name": "PaymentReleased",
      "type": "event"
    },
    {
      "anonymous": false,
      "inputs": [
        {
          "indexed": false,
          "internalType": "bool",
          "name": "val",
          "type": "bool"
        }
      ],
      "name": "SaleStateChanged",
      "type": "event"
    },
    {
      "anonymous": false,
      "inputs": [
        {
          "indexed": false,
          "internalType": "uint256",
          "name": "val",
          "type": "uint256"
        }
      ],
      "name": "TotalSupplyChanged",
      "type": "event"
    },
    {
      "anonymous": false,
      "inputs": [
        {
          "indexed": true,
          "internalType": "address",
          "name": "from",
          "type": "address"
        },
        {
          "indexed": true,
          "internalType": "address",
          "name": "to",
          "type": "address"
        },
        {
          "indexed": true,
          "internalType": "uint256",
          "name": "tokenId",
          "type": "uint256"
        }
      ],
      "name": "Transfer",
      "type": "event"
    },
    {
      "inputs": [],
      "name": "COST",
      "outputs": [
        {
          "internalType": "uint256",
          "name": "",
          "type": "uint256"
        }
      ],
      "stateMutability": "view",
      "type": "function"
    },
    {
      "inputs": [],
      "name": "MAX_SUPPLY",
      "outputs": [
        {
          "internalType": "uint256",
          "name": "",
          "type": "uint256"
        }
      ],
      "stateMutability": "view",
      "type": "function"
    },
    {
      "inputs": [],
      "name": "MAX_TX",
      "outputs": [
        {
          "internalType": "uint256",
          "name": "",
          "type": "uint256"
        }
      ],
      "stateMutability": "view",
      "type": "function"
    },
    {
      "inputs": [
        {
          "internalType": "address",
          "name": "to",
          "type": "address"
        },
        {
          "internalType": "uint256",
          "name": "tokenId",
          "type": "uint256"
        }
      ],
      "name": "approve",
      "outputs": [],
      "stateMutability": "nonpayable",
      "type": "function"
    },
    {
      "inputs": [
        {
          "internalType": "address",
          "name": "owner",
          "type": "address"
        }
      ],
      "name": "balanceOf",
      "outputs": [
        {
          "internalType": "uint256",
          "name": "",
          "type": "uint256"
        }
      ],
      "stateMutability": "view",
      "type": "function"
    },
    {
      "inputs": [
        {
          "internalType": "uint256",
          "name": "tokenId",
          "type": "uint256"
        }
      ],
      "name": "getApproved",
      "outputs": [
        {
          "internalType": "address",
          "name": "",
          "type": "address"
        }
      ],
      "stateMutability": "view",
      "type": "function"
    },
    {
      "inputs": [
        {
          "internalType": "address",
          "name": "owner",
          "type": "address"
        },
        {
          "internalType": "address",
          "name": "operator",
          "type": "address"
        }
      ],
      "name": "isApprovedForAll",
      "outputs": [
        {
          "internalType": "bool",
          "name": "",
          "type": "bool"
        }
      ],
      "stateMutability": "view",
      "type": "function"
    },
    {
      "inputs": [
        {
          "internalType": "uint256",
          "name": "amt",
          "type": "uint256"
        }
      ],
      "name": "mint",
      "outputs": [],
      "stateMutability": "payable",
      "type": "function"
    },
    {
      "inputs": [],
      "name": "name",
      "outputs": [
        {
          "internalType": "string",
          "name": "",
          "type": "string"
        }
      ],
      "stateMutability": "view",
      "type": "function"
    },
    {
      "inputs": [],
      "name": "owner",
      "outputs": [
        {
          "internalType": "address",
          "name": "",
          "type": "address"
        }
      ],
      "stateMutability": "view",
      "type": "function"
    },
    {
      "inputs": [
        {
          "internalType": "uint256",
          "name": "tokenId",
          "type": "uint256"
        }
      ],
      "name": "ownerOf",
      "outputs": [
        {
          "internalType": "address",
          "name": "",
          "type": "address"
        }
      ],
      "stateMutability": "view",
      "type": "function"
    },
    {
      "inputs": [
        {
          "internalType": "uint256",
          "name": "index",
          "type": "uint256"
        }
      ],
      "name": "payee",
      "outputs": [
        {
          "internalType": "address",
          "name": "",
          "type": "address"
        }
      ],
      "stateMutability": "view",
      "type": "function"
    },
    {
      "inputs": [
        {
          "internalType": "address payable",
          "name": "account",
          "type": "address"
        }
      ],
      "name": "release",
      "outputs": [],
      "stateMutability": "nonpayable",
      "type": "function"
    },
    {
      "inputs": [
        {
          "internalType": "contract IERC20",
          "name": "token",
          "type": "address"
        },
        {
          "internalType": "address",
          "name": "account",
          "type": "address"
        }
      ],
      "name": "release",
      "outputs": [],
      "stateMutability": "nonpayable",
      "type": "function"
    },
    {
      "inputs": [
        {
          "internalType": "contract IERC20",
          "name": "token",
          "type": "address"
        },
        {
          "internalType": "address",
          "name": "account",
          "type": "address"
        }
      ],
      "name": "released",
      "outputs": [
        {
          "internalType": "uint256",
          "name": "",
          "type": "uint256"
        }
      ],
      "stateMutability": "view",
      "type": "function"
    },
    {
      "inputs": [
        {
          "internalType": "address",
          "name": "account",
          "type": "address"
        }
      ],
      "name": "released",
      "outputs": [
        {
          "internalType": "uint256",
          "name": "",
          "type": "uint256"
        }
      ],
      "stateMutability": "view",
      "type": "function"
    },
    {
      "inputs": [],
      "name": "renounceOwnership",
      "outputs": [],
      "stateMutability": "nonpayable",
      "type": "function"
    },
    {
      "inputs": [
        {
          "internalType": "uint256",
          "name": "amt",
          "type": "uint256"
        }
      ],
      "name": "reserve",
      "outputs": [],
      "stateMutability": "nonpayable",
      "type": "function"
    },
    {
      "inputs": [
        {
          "internalType": "address",
          "name": "from",
          "type": "address"
        },
        {
          "internalType": "address",
          "name": "to",
          "type": "address"
        },
        {
          "internalType": "uint256",
          "name": "tokenId",
          "type": "uint256"
        }
      ],
      "name": "safeTransferFrom",
      "outputs": [],
      "stateMutability": "nonpayable",
      "type": "function"
    },
    {
      "inputs": [
        {
          "internalType": "address",
          "name": "from",
          "type": "address"
        },
        {
          "internalType": "address",
          "name": "to",
          "type": "address"
        },
        {
          "internalType": "uint256",
          "name": "tokenId",
          "type": "uint256"
        },
        {
          "internalType": "bytes",
          "name": "_data",
          "type": "bytes"
        }
      ],
      "name": "safeTransferFrom",
      "outputs": [],
      "stateMutability": "nonpayable",
      "type": "function"
    },
    {
      "inputs": [],
      "name": "saleActive",
      "outputs": [
        {
          "internalType": "bool",
          "name": "",
          "type": "bool"
        }
      ],
      "stateMutability": "view",
      "type": "function"
    },
    {
      "inputs": [
        {
          "internalType": "address",
          "name": "operator",
          "type": "address"
        },
        {
          "internalType": "bool",
          "name": "approved",
          "type": "bool"
        }
      ],
      "name": "setApprovalForAll",
      "outputs": [],
      "stateMutability": "nonpayable",
      "type": "function"
    },
    {
      "inputs": [
        {
          "internalType": "string",
          "name": "val",
          "type": "string"
        }
      ],
      "name": "setBaseURI",
      "outputs": [],
      "stateMutability": "nonpayable",
      "type": "function"
    },
    {
      "inputs": [
        {
          "internalType": "bool",
          "name": "val",
          "type": "bool"
        }
      ],
      "name": "setSaleState",
      "outputs": [],
      "stateMutability": "nonpayable",
      "type": "function"
    },
    {
      "inputs": [
        {
          "internalType": "address",
          "name": "account",
          "type": "address"
        }
      ],
      "name": "shares",
      "outputs": [
        {
          "internalType": "uint256",
          "name": "",
          "type": "uint256"
        }
      ],
      "stateMutability": "view",
      "type": "function"
    },
    {
      "inputs": [
        {
          "internalType": "bytes4",
          "name": "interfaceId",
          "type": "bytes4"
        }
      ],
      "name": "supportsInterface",
      "outputs": [
        {
          "internalType": "bool",
          "name": "",
          "type": "bool"
        }
      ],
      "stateMutability": "view",
      "type": "function"
    },
    {
      "inputs": [],
      "name": "symbol",
      "outputs": [
        {
          "internalType": "string",
          "name": "",
          "type": "string"
        }
      ],
      "stateMutability": "view",
      "type": "function"
    },
    {
      "inputs": [
        {
          "internalType": "uint256",
          "name": "index",
          "type": "uint256"
        }
      ],
      "name": "tokenByIndex",
      "outputs": [
        {
          "internalType": "uint256",
          "name": "",
          "type": "uint256"
        }
      ],
      "stateMutability": "view",
      "type": "function"
    },
    {
      "inputs": [
        {
          "internalType": "address",
          "name": "owner",
          "type": "address"
        },
        {
          "internalType": "uint256",
          "name": "index",
          "type": "uint256"
        }
      ],
      "name": "tokenOfOwnerByIndex",
      "outputs": [
        {
          "internalType": "uint256",
          "name": "",
          "type": "uint256"
        }
      ],
      "stateMutability": "view",
      "type": "function"
    },
    {
      "inputs": [
        {
          "internalType": "uint256",
          "name": "tokenId",
          "type": "uint256"
        }
      ],
      "name": "tokenURI",
      "outputs": [
        {
          "internalType": "string",
          "name": "",
          "type": "string"
        }
      ],
      "stateMutability": "view",
      "type": "function"
    },
    {
      "inputs": [
        {
          "internalType": "contract IERC20",
          "name": "token",
          "type": "address"
        }
      ],
      "name": "totalReleased",
      "outputs": [
        {
          "internalType": "uint256",
          "name": "",
          "type": "uint256"
        }
      ],
      "stateMutability": "view",
      "type": "function"
    },
    {
      "inputs": [],
      "name": "totalReleased",
      "outputs": [
        {
          "internalType": "uint256",
          "name": "",
          "type": "uint256"
        }
      ],
      "stateMutability": "view",
      "type": "function"
    },
    {
      "inputs": [],
      "name": "totalShares",
      "outputs": [
        {
          "internalType": "uint256",
          "name": "",
          "type": "uint256"
        }
      ],
      "stateMutability": "view",
      "type": "function"
    },
    {
      "inputs": [],
      "name": "totalSupply",
      "outputs": [
        {
          "internalType": "uint256",
          "name": "",
          "type": "uint256"
        }
      ],
      "stateMutability": "view",
      "type": "function"
    },
    {
      "inputs": [
        {
          "internalType": "address",
          "name": "from",
          "type": "address"
        },
        {
          "internalType": "address",
          "name": "to",
          "type": "address"
        },
        {
          "internalType": "uint256",
          "name": "tokenId",
          "type": "uint256"
        }
      ],
      "name": "transferFrom",
      "outputs": [],
      "stateMutability": "nonpayable",
      "type": "function"
    },
    {
      "inputs": [
        {
          "internalType": "address",
          "name": "newOwner",
          "type": "address"
        }
      ],
      "name": "transferOwnership",
      "outputs": [],
      "stateMutability": "nonpayable",
      "type": "function"
    },
    {
      "stateMutability": "payable",
      "type": "receive"
    }
  ],
  "bytecode": {
    "object": "60806040526013805460ff191690553480156200001b57600080fd5b506040516200396e3803806200396e8339810160408190526200003e91620005c4565b8181858581600090805190602001906200005a9291906200040f565b508051620000709060019060208401906200040f565b5050506200008d62000087620001cb60201b60201c565b620001cf565b8051825114620000ff5760405162461bcd60e51b815260206004820152603260248201527f5061796d656e7453706c69747465723a2070617965657320616e6420736861726044820152710cae640d8cadccee8d040dad2e6dac2e8c6d60731b60648201526084015b60405180910390fd5b6000825111620001525760405162461bcd60e51b815260206004820152601a60248201527f5061796d656e7453706c69747465723a206e6f207061796565730000000000006044820152606401620000f6565b60005b8251811015620001be57620001a9838281518110620001785762000178620007d8565b6020026020010151838381518110620001955762000195620007d8565b60200260200101516200022160201b60201c565b80620001b581620007a4565b91505062000155565b5050505050505062000804565b3390565b600a80546001600160a01b038381166001600160a01b0319831681179093556040519116919082907f8be0079c531659141344cd1fd0a4f28419497f9722a3daafe3b4186f6b6457e090600090a35050565b6001600160a01b0382166200028e5760405162461bcd60e51b815260206004820152602c60248201527f5061796d656e7453706c69747465723a206163636f756e74206973207468652060448201526b7a65726f206164647265737360a01b6064820152608401620000f6565b60008111620002e05760405162461bcd60e51b815260206004820152601d60248201527f5061796d656e7453706c69747465723a207368617265732061726520300000006044820152606401620000f6565b6001600160a01b0382166000908152600d6020526040902054156200035c5760405162461bcd60e51b815260206004820152602b60248201527f5061796d656e7453706c69747465723a206163636f756e7420616c726561647960448201526a206861732073686172657360a81b6064820152608401620000f6565b600f8054600181019091557f8d1108e10bcb7c27dddfc02ed9d693a074039d026cf4ea4240b40f7d581ac8020180546001600160a01b0319166001600160a01b0384169081179091556000908152600d60205260409020819055600b54620003c69082906200074c565b600b55604080516001600160a01b0384168152602081018390527f40c340f65e17194d14ddddb073d3c9f888e3cb52b5aae0c6c7706b4fbc905fac910160405180910390a15050565b8280546200041d9062000767565b90600052602060002090601f0160209004810192826200044157600085556200048c565b82601f106200045c57805160ff19168380011785556200048c565b828001600101855582156200048c579182015b828111156200048c5782518255916020019190600101906200046f565b506200049a9291506200049e565b5090565b5b808211156200049a57600081556001016200049f565b600082601f830112620004c757600080fd5b81516020620004e0620004da8362000726565b620006f3565b80838252828201915082860187848660051b89010111156200050157600080fd5b60005b85811015620005225781518452928401929084019060010162000504565b5090979650505050505050565b600082601f8301126200054157600080fd5b81516001600160401b038111156200055d576200055d620007ee565b602062000573601f8301601f19168201620006f3565b82815285828487010111156200058857600080fd5b60005b83811015620005a85785810183015182820184015282016200058b565b83811115620005ba5760008385840101525b5095945050505050565b60008060008060808587031215620005db57600080fd5b84516001600160401b0380821115620005f357600080fd5b62000601888389016200052f565b95506020915081870151818111156200061957600080fd5b6200062789828a016200052f565b9550506040870151818111156200063d57600080fd5b8701601f810189136200064f57600080fd5b805162000660620004da8262000726565b8082825285820191508584018c878560051b87010111156200068157600080fd5b600094505b83851015620006bc5780516001600160a01b0381168114620006a757600080fd5b83526001949094019391860191860162000686565b5060608b0151909750945050505080821115620006d857600080fd5b50620006e787828801620004b5565b91505092959194509250565b604051601f8201601f191681016001600160401b03811182821017156200071e576200071e620007ee565b604052919050565b60006001600160401b03821115620007425762000742620007ee565b5060051b60200190565b60008219821115620007625762000762620007c2565b500190565b600181811c908216806200077c57607f821691505b602082108114156200079e57634e487b7160e01b600052602260045260246000fd5b50919050565b6000600019821415620007bb57620007bb620007c2565b5060010190565b634e487b7160e01b600052601160045260246000fd5b634e487b7160e01b600052603260045260246000fd5b634e487b7160e01b600052604160045260246000fd5b61315a80620008146000396000f3fe6080604052600436106102535760003560e01c8063715018a611610138578063bf8fbbd2116100b0578063d79779b21161007f578063e985e9c511610064578063e985e9c514610709578063f2fde38b14610752578063f3b2db3f1461077257600080fd5b8063d79779b2146106be578063e33b7de3146106f457600080fd5b8063bf8fbbd21461062d578063c4e3709514610648578063c87b56dd14610668578063ce7c2ac21461068857600080fd5b806395d89b4111610107578063a0712d68116100ec578063a0712d68146105da578063a22cb465146105ed578063b88d4fde1461060d57600080fd5b806395d89b411461058f5780639852595c146105a457600080fd5b8063715018a61461051c578063819b25ba146105315780638b83209b146105515780638da5cb5b1461057157600080fd5b80633a98ef39116101cb5780634f6ccce71161019a5780636352211e1161017f5780636352211e146104c257806368428a1b146104e257806370a08231146104fc57600080fd5b80634f6ccce71461048257806355f804b3146104a257600080fd5b80633a98ef39146103e7578063406072a9146103fc57806342842e0e1461044257806348b750441461046257600080fd5b806318160ddd1161022257806323b872dd1161020757806323b872dd146103915780632f745c59146103b157806332cb6b0c146103d157600080fd5b806318160ddd14610352578063191655871461037157600080fd5b806301ffc9a7146102a157806306fdde03146102d6578063081812fc146102f8578063095ea7b31461033057600080fd5b3661029c577f6ef95f06320e7a25a04a175ca677b7052bdd97131872c2192525a629f51be77033604080516001600160a01b0390921682523460208301520160405180910390a1005b600080fd5b3480156102ad57600080fd5b506102c16102bc366004612d02565b610787565b60405190151581526020015b60405180910390f35b3480156102e257600080fd5b506102eb6107e3565b6040516102cd9190612e88565b34801561030457600080fd5b50610318610313366004612d85565b610875565b6040516001600160a01b0390911681526020016102cd565b34801561033c57600080fd5b5061035061034b366004612c9c565b610920565b005b34801561035e57600080fd5b506008545b6040519081526020016102cd565b34801561037d57600080fd5b5061035061038c366004612b57565b610a52565b34801561039d57600080fd5b506103506103ac366004612bad565b610c2c565b3480156103bd57600080fd5b506103636103cc366004612c9c565b610cb3565b3480156103dd57600080fd5b50610363611b3981565b3480156103f357600080fd5b50600b54610363565b34801561040857600080fd5b50610363610417366004612b74565b6001600160a01b03918216600090815260116020908152604080832093909416825291909152205490565b34801561044e57600080fd5b5061035061045d366004612bad565b610d5b565b34801561046e57600080fd5b5061035061047d366004612b74565b610d76565b34801561048e57600080fd5b5061036361049d366004612d85565b611023565b3480156104ae57600080fd5b506103506104bd366004612d3c565b6110c7565b3480156104ce57600080fd5b506103186104dd366004612d85565b611138565b3480156104ee57600080fd5b506013546102c19060ff1681565b34801561050857600080fd5b50610363610517366004612b57565b6111c3565b34801561052857600080fd5b5061035061125d565b34801561053d57600080fd5b5061035061054c366004612d85565b6112c3565b34801561055d57600080fd5b5061031861056c366004612d85565b61139a565b34801561057d57600080fd5b50600a546001600160a01b0316610318565b34801561059b57600080fd5b506102eb6113ca565b3480156105b057600080fd5b506103636105bf366004612b57565b6001600160a01b03166000908152600e602052604090205490565b6103506105e8366004612d85565b6113d9565b3480156105f957600080fd5b50610350610608366004612c6e565b61151f565b34801561061957600080fd5b50610350610628366004612bee565b61152a565b34801561063957600080fd5b50610363669536c70891000081565b34801561065457600080fd5b50610350610663366004612cc8565b6115b8565b34801561067457600080fd5b506102eb610683366004612d85565b611677565b34801561069457600080fd5b506103636106a3366004612b57565b6001600160a01b03166000908152600d602052604090205490565b3480156106ca57600080fd5b506103636106d9366004612b57565b6001600160a01b031660009081526010602052604090205490565b34801561070057600080fd5b50600c54610363565b34801561071557600080fd5b506102c1610724366004612b74565b6001600160a01b03918216600090815260056020908152604080832093909416825291909152205460ff1690565b34801561075e57600080fd5b5061035061076d366004612b57565b611760565b34801561077e57600080fd5b50610363600981565b60007fffffffff0000000000000000000000000000000000000000000000000000000082167f780e9d630000000000000000000000000000000000000000000000000000000014806107dd57506107dd82611842565b92915050565b6060600080546107f290612f47565b80601f016020809104026020016040519081016040528092919081815260200182805461081e90612f47565b801561086b5780601f106108405761010080835404028352916020019161086b565b820191906000526020600020905b81548152906001019060200180831161084e57829003601f168201915b5050505050905090565b6000818152600260205260408120546001600160a01b03166109045760405162461bcd60e51b815260206004820152602c60248201527f4552433732313a20617070726f76656420717565727920666f72206e6f6e657860448201527f697374656e7420746f6b656e000000000000000000000000000000000000000060648201526084015b60405180910390fd5b506000908152600460205260409020546001600160a01b031690565b600061092b82611138565b9050806001600160a01b0316836001600160a01b031614156109b55760405162461bcd60e51b815260206004820152602160248201527f4552433732313a20617070726f76616c20746f2063757272656e74206f776e6560448201527f720000000000000000000000000000000000000000000000000000000000000060648201526084016108fb565b336001600160a01b03821614806109d157506109d18133610724565b610a435760405162461bcd60e51b815260206004820152603860248201527f4552433732313a20617070726f76652063616c6c6572206973206e6f74206f7760448201527f6e6572206e6f7220617070726f76656420666f7220616c6c000000000000000060648201526084016108fb565b610a4d8383611925565b505050565b6001600160a01b0381166000908152600d6020526040902054610add5760405162461bcd60e51b815260206004820152602660248201527f5061796d656e7453706c69747465723a206163636f756e7420686173206e6f2060448201527f736861726573000000000000000000000000000000000000000000000000000060648201526084016108fb565b6000610ae8600c5490565b610af29047612e9b565b90506000610b1f8383610b1a866001600160a01b03166000908152600e602052604090205490565b6119ab565b905080610b945760405162461bcd60e51b815260206004820152602b60248201527f5061796d656e7453706c69747465723a206163636f756e74206973206e6f742060448201527f647565207061796d656e7400000000000000000000000000000000000000000060648201526084016108fb565b6001600160a01b0383166000908152600e602052604081208054839290610bbc908490612e9b565b9250508190555080600c6000828254610bd59190612e9b565b90915550610be5905083826119f1565b604080516001600160a01b0385168152602081018390527fdf20fd1e76bc69d672e4814fafb2c449bba3a5369d8359adf9e05e6fde87b056910160405180910390a1505050565b610c363382611b0a565b610ca85760405162461bcd60e51b815260206004820152603160248201527f4552433732313a207472616e736665722063616c6c6572206973206e6f74206f60448201527f776e6572206e6f7220617070726f76656400000000000000000000000000000060648201526084016108fb565b610a4d838383611c11565b6000610cbe836111c3565b8210610d325760405162461bcd60e51b815260206004820152602b60248201527f455243373231456e756d657261626c653a206f776e657220696e646578206f7560448201527f74206f6620626f756e647300000000000000000000000000000000000000000060648201526084016108fb565b506001600160a01b03919091166000908152600660209081526040808320938352929052205490565b610a4d8383836040518060200160405280600081525061152a565b6001600160a01b0381166000908152600d6020526040902054610e015760405162461bcd60e51b815260206004820152602660248201527f5061796d656e7453706c69747465723a206163636f756e7420686173206e6f2060448201527f736861726573000000000000000000000000000000000000000000000000000060648201526084016108fb565b6001600160a01b0382166000908152601060205260408120546040517f70a082310000000000000000000000000000000000000000000000000000000081523060048201526001600160a01b038516906370a082319060240160206040518083038186803b158015610e7257600080fd5b505afa158015610e86573d6000803e3d6000fd5b505050506040513d601f19601f82011682018060405250810190610eaa9190612d9e565b610eb49190612e9b565b90506000610eed8383610b1a87876001600160a01b03918216600090815260116020908152604080832093909416825291909152205490565b905080610f625760405162461bcd60e51b815260206004820152602b60248201527f5061796d656e7453706c69747465723a206163636f756e74206973206e6f742060448201527f647565207061796d656e7400000000000000000000000000000000000000000060648201526084016108fb565b6001600160a01b03808516600090815260116020908152604080832093871683529290529081208054839290610f99908490612e9b565b90915550506001600160a01b03841660009081526010602052604081208054839290610fc6908490612e9b565b90915550610fd79050848483611e01565b604080516001600160a01b038581168252602082018490528616917f3be5b7a71e84ed12875d241991c70855ac5817d847039e17a9d895c1ceb0f18a910160405180910390a250505050565b600061102e60085490565b82106110a25760405162461bcd60e51b815260206004820152602c60248201527f455243373231456e756d657261626c653a20676c6f62616c20696e646578206f60448201527f7574206f6620626f756e6473000000000000000000000000000000000000000060648201526084016108fb565b600882815481106110b5576110b5613075565b90600052602060002001549050919050565b600a546001600160a01b031633146111215760405162461bcd60e51b815260206004820181905260248201527f4f776e61626c653a2063616c6c6572206973206e6f7420746865206f776e657260448201526064016108fb565b8051611134906012906020840190612a2a565b5050565b6000818152600260205260408120546001600160a01b0316806107dd5760405162461bcd60e51b815260206004820152602960248201527f4552433732313a206f776e657220717565727920666f72206e6f6e657869737460448201527f656e7420746f6b656e000000000000000000000000000000000000000000000060648201526084016108fb565b60006001600160a01b0382166112415760405162461bcd60e51b815260206004820152602a60248201527f4552433732313a2062616c616e636520717565727920666f7220746865207a6560448201527f726f20616464726573730000000000000000000000000000000000000000000060648201526084016108fb565b506001600160a01b031660009081526003602052604090205490565b600a546001600160a01b031633146112b75760405162461bcd60e51b815260206004820181905260248201527f4f776e61626c653a2063616c6c6572206973206e6f7420746865206f776e657260448201526064016108fb565b6112c16000611e81565b565b600a546001600160a01b0316331461131d5760405162461bcd60e51b815260206004820181905260248201527f4f776e61626c653a2063616c6c6572206973206e6f7420746865206f776e657260448201526064016108fb565b600061132860085490565b905060005b8281101561135a57611348336113438385612e9b565b611eeb565b8061135281612f9b565b91505061132d565b507fc8b17f75f53401f272e9ee7fa431e81ba33779363238896180425a422420c8f761138560085490565b60405190815260200160405180910390a15050565b6000600f82815481106113af576113af613075565b6000918252602090912001546001600160a01b031692915050565b6060600180546107f290612f47565b60006113e460085490565b60135490915060ff166114395760405162461bcd60e51b815260206004820152601760248201527f53616c65206973206e6f7420796574206163746976652e00000000000000000060448201526064016108fb565b611b396114468383612e9b565b11156114945760405162461bcd60e51b815260206004820152601660248201527f416d6f756e74206578636565647320737570706c792e0000000000000000000060448201526064016108fb565b346114a683669536c708910000612ec7565b11156114f45760405162461bcd60e51b815260206004820152601760248201527f4554482073656e742069732062656c6f7720636f73742e00000000000000000060448201526064016108fb565b60005b8281101561135a5761150d336113438385612e9b565b8061151781612f9b565b9150506114f7565b611134338383611f05565b6115343383611b0a565b6115a65760405162461bcd60e51b815260206004820152603160248201527f4552433732313a207472616e736665722063616c6c6572206973206e6f74206f60448201527f776e6572206e6f7220617070726f76656400000000000000000000000000000060648201526084016108fb565b6115b284848484611ff2565b50505050565b600a546001600160a01b031633146116125760405162461bcd60e51b815260206004820181905260248201527f4f776e61626c653a2063616c6c6572206973206e6f7420746865206f776e657260448201526064016108fb565b601380547fffffffffffffffffffffffffffffffffffffffffffffffffffffffffffffff00168215159081179091556040519081527fe333f8a36ee86e754548af2d6f50c73ff0d501e22e6c784662123dbbe493c6029060200160405180910390a150565b6000818152600260205260409020546060906001600160a01b03166117045760405162461bcd60e51b815260206004820152602f60248201527f4552433732314d657461646174613a2055524920717565727920666f72206e6f60448201527f6e6578697374656e7420746f6b656e000000000000000000000000000000000060648201526084016108fb565b600061170e61207b565b9050600081511161172e5760405180602001604052806000815250611759565b806117388461208a565b604051602001611749929190612e1d565b6040516020818303038152906040525b9392505050565b600a546001600160a01b031633146117ba5760405162461bcd60e51b815260206004820181905260248201527f4f776e61626c653a2063616c6c6572206973206e6f7420746865206f776e657260448201526064016108fb565b6001600160a01b0381166118365760405162461bcd60e51b815260206004820152602660248201527f4f776e61626c653a206e6577206f776e657220697320746865207a65726f206160448201527f646472657373000000000000000000000000000000000000000000000000000060648201526084016108fb565b61183f81611e81565b50565b60007fffffffff0000000000000000000000000000000000000000000000000000000082167f80ac58cd0000000000000000000000000000000000000000000000000000000014806118d557507fffffffff0000000000000000000000000000000000000000000000000000000082167f5b5e139f00000000000000000000000000000000000000000000000000000000145b806107dd57507f01ffc9a7000000000000000000000000000000000000000000000000000000007fffffffff000000000000000000000000000000000000000000000000000000008316146107dd565b600081815260046020526040902080547fffffffffffffffffffffffff0000000000000000000000000000000000000000166001600160a01b038416908117909155819061197282611138565b6001600160a01b03167f8c5be1e5ebec7d5bd14f71427d1e84f3dd0314c0f7b2291e5b200ac8c7c3b92560405160405180910390a45050565b600b546001600160a01b0384166000908152600d6020526040812054909183916119d59086612ec7565b6119df9190612eb3565b6119e99190612f04565b949350505050565b80471015611a415760405162461bcd60e51b815260206004820152601d60248201527f416464726573733a20696e73756666696369656e742062616c616e636500000060448201526064016108fb565b6000826001600160a01b03168260405160006040518083038185875af1925050503d8060008114611a8e576040519150601f19603f3d011682016040523d82523d6000602084013e611a93565b606091505b5050905080610a4d5760405162461bcd60e51b815260206004820152603a60248201527f416464726573733a20756e61626c6520746f2073656e642076616c75652c207260448201527f6563697069656e74206d6179206861766520726576657274656400000000000060648201526084016108fb565b6000818152600260205260408120546001600160a01b0316611b945760405162461bcd60e51b815260206004820152602c60248201527f4552433732313a206f70657261746f7220717565727920666f72206e6f6e657860448201527f697374656e7420746f6b656e000000000000000000000000000000000000000060648201526084016108fb565b6000611b9f83611138565b9050806001600160a01b0316846001600160a01b03161480611bda5750836001600160a01b0316611bcf84610875565b6001600160a01b0316145b806119e957506001600160a01b0380821660009081526005602090815260408083209388168352929052205460ff16949350505050565b826001600160a01b0316611c2482611138565b6001600160a01b031614611ca05760405162461bcd60e51b815260206004820152602960248201527f4552433732313a207472616e73666572206f6620746f6b656e2074686174206960448201527f73206e6f74206f776e000000000000000000000000000000000000000000000060648201526084016108fb565b6001600160a01b038216611d1b5760405162461bcd60e51b8152602060048201526024808201527f4552433732313a207472616e7366657220746f20746865207a65726f2061646460448201527f726573730000000000000000000000000000000000000000000000000000000060648201526084016108fb565b611d268383836121bc565b611d31600082611925565b6001600160a01b0383166000908152600360205260408120805460019290611d5a908490612f04565b90915550506001600160a01b0382166000908152600360205260408120805460019290611d88908490612e9b565b909155505060008181526002602052604080822080547fffffffffffffffffffffffff0000000000000000000000000000000000000000166001600160a01b0386811691821790925591518493918716917fddf252ad1be2c89b69c2b068fc378daa952ba7f163c4a11628f55a4df523b3ef91a4505050565b604080516001600160a01b038416602482015260448082018490528251808303909101815260649091019091526020810180517bffffffffffffffffffffffffffffffffffffffffffffffffffffffff167fa9059cbb00000000000000000000000000000000000000000000000000000000179052610a4d908490612274565b600a80546001600160a01b038381167fffffffffffffffffffffffff0000000000000000000000000000000000000000831681179093556040519116919082907f8be0079c531659141344cd1fd0a4f28419497f9722a3daafe3b4186f6b6457e090600090a35050565b611134828260405180602001604052806000815250612359565b816001600160a01b0316836001600160a01b03161415611f675760405162461bcd60e51b815260206004820152601960248201527f4552433732313a20617070726f766520746f2063616c6c65720000000000000060448201526064016108fb565b6001600160a01b0383811660008181526005602090815260408083209487168084529482529182902080547fffffffffffffffffffffffffffffffffffffffffffffffffffffffffffffff001686151590811790915591519182527f17307eab39ab6107e8899845ad3d59bd9653f200f220920489ca2b5937696c31910160405180910390a3505050565b611ffd848484611c11565b612009848484846123e2565b6115b25760405162461bcd60e51b815260206004820152603260248201527f4552433732313a207472616e7366657220746f206e6f6e20455243373231526560448201527f63656976657220696d706c656d656e746572000000000000000000000000000060648201526084016108fb565b6060601280546107f290612f47565b6060816120ca57505060408051808201909152600181527f3000000000000000000000000000000000000000000000000000000000000000602082015290565b8160005b81156120f457806120de81612f9b565b91506120ed9050600a83612eb3565b91506120ce565b60008167ffffffffffffffff81111561210f5761210f6130a4565b6040519080825280601f01601f191660200182016040528015612139576020820181803683370190505b5090505b84156119e95761214e600183612f04565b915061215b600a86612fd4565b612166906030612e9b565b60f81b81838151811061217b5761217b613075565b60200101907effffffffffffffffffffffffffffffffffffffffffffffffffffffffffffff1916908160001a9053506121b5600a86612eb3565b945061213d565b6001600160a01b0383166122175761221281600880546000838152600960205260408120829055600182018355919091527ff3f7a9fe364faab93b216da50a3214154f22a0a2b415b23a84c8169e8b636ee30155565b61223a565b816001600160a01b0316836001600160a01b03161461223a5761223a83826125ad565b6001600160a01b03821661225157610a4d8161264a565b826001600160a01b0316826001600160a01b031614610a4d57610a4d82826126f9565b60006122c9826040518060400160405280602081526020017f5361666545524332303a206c6f772d6c6576656c2063616c6c206661696c6564815250856001600160a01b031661273d9092919063ffffffff16565b805190915015610a4d57808060200190518101906122e79190612ce5565b610a4d5760405162461bcd60e51b815260206004820152602a60248201527f5361666545524332303a204552433230206f7065726174696f6e20646964206e60448201527f6f7420737563636565640000000000000000000000000000000000000000000060648201526084016108fb565b612363838361274c565b61237060008484846123e2565b610a4d5760405162461bcd60e51b815260206004820152603260248201527f4552433732313a207472616e7366657220746f206e6f6e20455243373231526560448201527f63656976657220696d706c656d656e746572000000000000000000000000000060648201526084016108fb565b60006001600160a01b0384163b156125a2576040517f150b7a020000000000000000000000000000000000000000000000000000000081526001600160a01b0385169063150b7a029061243f903390899088908890600401612e4c565b602060405180830381600087803b15801561245957600080fd5b505af19250505080156124a7575060408051601f3d9081017fffffffffffffffffffffffffffffffffffffffffffffffffffffffffffffffe01682019092526124a491810190612d1f565b60015b612557573d8080156124d5576040519150601f19603f3d011682016040523d82523d6000602084013e6124da565b606091505b50805161254f5760405162461bcd60e51b815260206004820152603260248201527f4552433732313a207472616e7366657220746f206e6f6e20455243373231526560448201527f63656976657220696d706c656d656e746572000000000000000000000000000060648201526084016108fb565b805181602001fd5b7fffffffff00000000000000000000000000000000000000000000000000000000167f150b7a02000000000000000000000000000000000000000000000000000000001490506119e9565b506001949350505050565b600060016125ba846111c3565b6125c49190612f04565b600083815260076020526040902054909150808214612617576001600160a01b03841660009081526006602090815260408083208584528252808320548484528184208190558352600790915290208190555b5060009182526007602090815260408084208490556001600160a01b039094168352600681528383209183525290812055565b60085460009061265c90600190612f04565b6000838152600960205260408120546008805493945090928490811061268457612684613075565b9060005260206000200154905080600883815481106126a5576126a5613075565b60009182526020808320909101929092558281526009909152604080822084905585825281205560088054806126dd576126dd613046565b6001900381819060005260206000200160009055905550505050565b6000612704836111c3565b6001600160a01b039093166000908152600660209081526040808320868452825280832085905593825260079052919091209190915550565b60606119e984846000856128b2565b6001600160a01b0382166127a25760405162461bcd60e51b815260206004820181905260248201527f4552433732313a206d696e7420746f20746865207a65726f206164647265737360448201526064016108fb565b6000818152600260205260409020546001600160a01b0316156128075760405162461bcd60e51b815260206004820152601c60248201527f4552433732313a20746f6b656e20616c7265616479206d696e7465640000000060448201526064016108fb565b612813600083836121bc565b6001600160a01b038216600090815260036020526040812080546001929061283c908490612e9b565b909155505060008181526002602052604080822080547fffffffffffffffffffffffff0000000000000000000000000000000000000000166001600160a01b03861690811790915590518392907fddf252ad1be2c89b69c2b068fc378daa952ba7f163c4a11628f55a4df523b3ef908290a45050565b60608247101561292a5760405162461bcd60e51b815260206004820152602660248201527f416464726573733a20696e73756666696369656e742062616c616e636520666f60448201527f722063616c6c000000000000000000000000000000000000000000000000000060648201526084016108fb565b843b6129785760405162461bcd60e51b815260206004820152601d60248201527f416464726573733a2063616c6c20746f206e6f6e2d636f6e747261637400000060448201526064016108fb565b600080866001600160a01b031685876040516129949190612e01565b60006040518083038185875af1925050503d80600081146129d1576040519150601f19603f3d011682016040523d82523d6000602084013e6129d6565b606091505b50915091506129e68282866129f1565b979650505050505050565b60608315612a00575081611759565b825115612a105782518084602001fd5b8160405162461bcd60e51b81526004016108fb9190612e88565b828054612a3690612f47565b90600052602060002090601f016020900481019282612a585760008555612a9e565b82601f10612a7157805160ff1916838001178555612a9e565b82800160010185558215612a9e579182015b82811115612a9e578251825591602001919060010190612a83565b50612aaa929150612aae565b5090565b5b80821115612aaa5760008155600101612aaf565b600067ffffffffffffffff80841115612ade57612ade6130a4565b604051601f85017fffffffffffffffffffffffffffffffffffffffffffffffffffffffffffffffe0908116603f01168101908282118183101715612b2457612b246130a4565b81604052809350858152868686011115612b3d57600080fd5b858560208301376000602087830101525050509392505050565b600060208284031215612b6957600080fd5b8135611759816130d3565b60008060408385031215612b8757600080fd5b8235612b92816130d3565b91506020830135612ba2816130d3565b809150509250929050565b600080600060608486031215612bc257600080fd5b8335612bcd816130d3565b92506020840135612bdd816130d3565b929592945050506040919091013590565b60008060008060808587031215612c0457600080fd5b8435612c0f816130d3565b93506020850135612c1f816130d3565b925060408501359150606085013567ffffffffffffffff811115612c4257600080fd5b8501601f81018713612c5357600080fd5b612c6287823560208401612ac3565b91505092959194509250565b60008060408385031215612c8157600080fd5b8235612c8c816130d3565b91506020830135612ba2816130e8565b60008060408385031215612caf57600080fd5b8235612cba816130d3565b946020939093013593505050565b600060208284031215612cda57600080fd5b8135611759816130e8565b600060208284031215612cf757600080fd5b8151611759816130e8565b600060208284031215612d1457600080fd5b8135611759816130f6565b600060208284031215612d3157600080fd5b8151611759816130f6565b600060208284031215612d4e57600080fd5b813567ffffffffffffffff811115612d6557600080fd5b8201601f81018413612d7657600080fd5b6119e984823560208401612ac3565b600060208284031215612d9757600080fd5b5035919050565b600060208284031215612db057600080fd5b5051919050565b60008151808452612dcf816020860160208601612f1b565b601f017fffffffffffffffffffffffffffffffffffffffffffffffffffffffffffffffe0169290920160200192915050565b60008251612e13818460208701612f1b565b9190910192915050565b60008351612e2f818460208801612f1b565b835190830190612e43818360208801612f1b565b01949350505050565b60006001600160a01b03808716835280861660208401525083604083015260806060830152612e7e6080830184612db7565b9695505050505050565b6020815260006117596020830184612db7565b60008219821115612eae57612eae612fe8565b500190565b600082612ec257612ec2613017565b500490565b6000817fffffffffffffffffffffffffffffffffffffffffffffffffffffffffffffffff0483118215151615612eff57612eff612fe8565b500290565b600082821015612f1657612f16612fe8565b500390565b60005b83811015612f36578181015183820152602001612f1e565b838111156115b25750506000910152565b600181811c90821680612f5b57607f821691505b60208210811415612f95577f4e487b7100000000000000000000000000000000000000000000000000000000600052602260045260246000fd5b50919050565b60007fffffffffffffffffffffffffffffffffffffffffffffffffffffffffffffffff821415612fcd57612fcd612fe8565b5060010190565b600082612fe357612fe3613017565b500690565b7f4e487b7100000000000000000000000000000000000000000000000000000000600052601160045260246000fd5b7f4e487b7100000000000000000000000000000000000000000000000000000000600052601260045260246000fd5b7f4e487b7100000000000000000000000000000000000000000000000000000000600052603160045260246000fd5b7f4e487b7100000000000000000000000000000000000000000000000000000000600052603260045260246000fd5b7f4e487b7100000000000000000000000000000000000000000000000000000000600052604160045260246000fd5b6001600160a01b038116811461183f57600080fd5b801515811461183f57600080fd5b7fffffffff000000000000000000000000000000000000000000000000000000008116811461183f57600080fdfea2646970667358221220882975d72d5055e1be78604472c90fd8e7b211b00942e9130ef23d4d10669b1f64736f6c63430008070033"
  }
}