{"compiler":"v0.6.12+commit.27d51765","opcodeHash":"0xa7821df511c12d72977997b00ffb9a00edb50510c3d59f825d3db6dce4aa3c7b","metalessHash":"0x0c86aaa3d1b2a04bfa4a7047d1ec1524a5409e0c939e50b0e61b4cd626b760e4","runtimeHash":"0x35f34d5b7bc656be177b6a608852533f2503f43943cee2c5d9b787755b90893c","encodedMetadata":[{"ipfs":"/ipfs/Qmac9U4NNxUWqEH5tji7ivxwyExhBMcUWdBTwbhVGh37bo","solc":"0.6.12"}],"abi":[{"inputs":[{"internalType":"address[]","name":"_recipients","type":"address[]"},{"internalType":"uint256[]","name":"_values","type":"uint256[]"}],"name":"disperse","outputs":[{"internalType":"bool","name":"","type":"bool"}],"stateMutability":"nonpayable","type":"function"},{"inputs":[],"name":"owner","outputs":[{"internalType":"address","name":"","type":"address"}],"stateMutability":"view","type":"function"}],"bytecode":{"object":"608060405273fb6ca216c08178f218c0b3983f81e066cb946199600160006101000a81548173ffffffffffffffffffffffffffffffffffffffff021916908373ffffffffffffffffffffffffffffffffffffffff16021790555034801561006557600080fd5b50336000806101000a81548173ffffffffffffffffffffffffffffffffffffffff021916908373ffffffffffffffffffffffffffffffffffffffff16021790555061038f806100b56000396000f3fe608060405234801561001057600080fd5b50600436106100365760003560e01c80632f3cb35b1461003b5780638da5cb5b1461019d575b600080fd5b6101856004803603604081101561005157600080fd5b810190808035906020019064010000000081111561006e57600080fd5b82018360208201111561008057600080fd5b803590602001918460208302840111640100000000831117156100a257600080fd5b919080806020026020016040519081016040528093929190818152602001838360200280828437600081840152601f19601f8201169050808301925050505050505091929192908035906020019064010000000081111561010257600080fd5b82018360208201111561011457600080fd5b8035906020019184602083028401116401000000008311171561013657600080fd5b919080806020026020016040519081016040528093929190818152602001838360200280828437600081840152601f19601f8201169050808301925050505050505091929192905050506101d1565b60405180821515815260200191505060405180910390f35b6101a5610335565b604051808273ffffffffffffffffffffffffffffffffffffffff16815260200191505060405180910390f35b60008060009054906101000a900473ffffffffffffffffffffffffffffffffffffffff1673ffffffffffffffffffffffffffffffffffffffff163373ffffffffffffffffffffffffffffffffffffffff161461022c57600080fd5b600083511161023a57600080fd5b6000600160009054906101000a900473ffffffffffffffffffffffffffffffffffffffff16905060005b8451811015610329578173ffffffffffffffffffffffffffffffffffffffff1663a9059cbb86838151811061029557fe5b60200260200101518684815181106102a957fe5b60200260200101516040518363ffffffff1660e01b8152600401808373ffffffffffffffffffffffffffffffffffffffff16815260200182815260200192505050600060405180830381600087803b15801561030457600080fd5b505af1158015610318573d6000803e3d6000fd5b505050508080600101915050610264565b50600191505092915050565b60008054906101000a900473ffffffffffffffffffffffffffffffffffffffff168156fea26469706673582212201e981ed99a8afbc9d03ccf97427af827901385b6a81900ac48174f10cdddc8be64736f6c634300060c0033"}}