{
  "opcodeHash": "0x559f8840b5a844ef3816c4530b6102056dd26daa4652b2957bc0da443c6a0a9b",
  "metalessHash": "0x7e4e71ec5631fab5459a513b2423fda9a7a9e913124e5c9f0c627fd0b007c3b7",
  "runtimeHash": "0x963bd24c5e518d7f4eb9f53014c37da1fa034a47a46229be0f7ad2e8b647044a",
  "encodedMetadata": [
    {
      "ipfs": "/ipfs/QmNuspgsESW5u9mnJt344LmHj7G3M4xzeNWuLDz1xwpHxy",
      "solc": "0.8.4"
    }
  ],
  "abi": [
    {
      "inputs": [],
      "stateMutability": "nonpayable",
      "type": "constructor"
    },
    {
      "anonymous": false,
      "inputs": [
        {
          "indexed": true,
          "internalType": "address",
          "name": "owner",
          "type": "address"
        },
        {
          "indexed": true,
          "internalType": "address",
          "name": "approved",
          "type": "address"
        },
        {
          "indexed": true,
          "internalType": "uint256",
          "name": "tokenId",
          "type": "uint256"
        }
      ],
      "name": "Approval",
      "type": "event"
    },
    {
      "anonymous": false,
      "inputs": [
        {
          "indexed": true,
          "internalType": "address",
          "name": "owner",
          "type": "address"
        },
        {
          "indexed": true,
          "internalType": "address",
          "name": "operator",
          "type": "address"
        },
        {
          "indexed": false,
          "internalType": "bool",
          "name": "approved",
          "type": "bool"
        }
      ],
      "name": "ApprovalForAll",
      "type": "event"
    },
    {
      "anonymous": false,
      "inputs": [
        {
          "indexed": true,
          "internalType": "address",
          "name": "previousOwner",
          "type": "address"
        },
        {
          "indexed": true,
          "internalType": "address",
          "name": "newOwner",
          "type": "address"
        }
      ],
      "name": "OwnershipTransferred",
      "type": "event"
    },
    {
      "anonymous": false,
      "inputs": [
        {
          "indexed": true,
          "internalType": "address",
          "name": "from",
          "type": "address"
        },
        {
          "indexed": true,
          "internalType": "address",
          "name": "to",
          "type": "address"
        },
        {
          "indexed": true,
          "internalType": "uint256",
          "name": "tokenId",
          "type": "uint256"
        }
      ],
      "name": "Transfer",
      "type": "event"
    },
    {
      "inputs": [
        {
          "internalType": "address",
          "name": "to",
          "type": "address"
        },
        {
          "internalType": "uint256",
          "name": "tokenId",
          "type": "uint256"
        }
      ],
      "name": "approve",
      "outputs": [],
      "stateMutability": "nonpayable",
      "type": "function"
    },
    {
      "inputs": [
        {
          "internalType": "address",
          "name": "owner",
          "type": "address"
        }
      ],
      "name": "balanceOf",
      "outputs": [
        {
          "internalType": "uint256",
          "name": "",
          "type": "uint256"
        }
      ],
      "stateMutability": "view",
      "type": "function"
    },
    {
      "inputs": [
        {
          "internalType": "uint256",
          "name": "tokenId",
          "type": "uint256"
        }
      ],
      "name": "getApproved",
      "outputs": [
        {
          "internalType": "address",
          "name": "",
          "type": "address"
        }
      ],
      "stateMutability": "view",
      "type": "function"
    },
    {
      "inputs": [
        {
          "internalType": "address",
          "name": "owner",
          "type": "address"
        },
        {
          "internalType": "address",
          "name": "operator",
          "type": "address"
        }
      ],
      "name": "isApprovedForAll",
      "outputs": [
        {
          "internalType": "bool",
          "name": "",
          "type": "bool"
        }
      ],
      "stateMutability": "view",
      "type": "function"
    },
    {
      "inputs": [],
      "name": "name",
      "outputs": [
        {
          "internalType": "string",
          "name": "",
          "type": "string"
        }
      ],
      "stateMutability": "view",
      "type": "function"
    },
    {
      "inputs": [],
      "name": "owner",
      "outputs": [
        {
          "internalType": "address",
          "name": "",
          "type": "address"
        }
      ],
      "stateMutability": "view",
      "type": "function"
    },
    {
      "inputs": [
        {
          "internalType": "uint256",
          "name": "tokenId",
          "type": "uint256"
        }
      ],
      "name": "ownerOf",
      "outputs": [
        {
          "internalType": "address",
          "name": "",
          "type": "address"
        }
      ],
      "stateMutability": "view",
      "type": "function"
    },
    {
      "inputs": [],
      "name": "renounceOwnership",
      "outputs": [],
      "stateMutability": "nonpayable",
      "type": "function"
    },
    {
      "inputs": [
        {
          "internalType": "address",
          "name": "from",
          "type": "address"
        },
        {
          "internalType": "address",
          "name": "to",
          "type": "address"
        },
        {
          "internalType": "uint256",
          "name": "tokenId",
          "type": "uint256"
        }
      ],
      "name": "safeTransferFrom",
      "outputs": [],
      "stateMutability": "nonpayable",
      "type": "function"
    },
    {
      "inputs": [
        {
          "internalType": "address",
          "name": "from",
          "type": "address"
        },
        {
          "internalType": "address",
          "name": "to",
          "type": "address"
        },
        {
          "internalType": "uint256",
          "name": "tokenId",
          "type": "uint256"
        },
        {
          "internalType": "bytes",
          "name": "_data",
          "type": "bytes"
        }
      ],
      "name": "safeTransferFrom",
      "outputs": [],
      "stateMutability": "nonpayable",
      "type": "function"
    },
    {
      "inputs": [
        {
          "internalType": "address",
          "name": "operator",
          "type": "address"
        },
        {
          "internalType": "bool",
          "name": "approved",
          "type": "bool"
        }
      ],
      "name": "setApprovalForAll",
      "outputs": [],
      "stateMutability": "nonpayable",
      "type": "function"
    },
    {
      "inputs": [
        {
          "internalType": "bytes4",
          "name": "interfaceId",
          "type": "bytes4"
        }
      ],
      "name": "supportsInterface",
      "outputs": [
        {
          "internalType": "bool",
          "name": "",
          "type": "bool"
        }
      ],
      "stateMutability": "view",
      "type": "function"
    },
    {
      "inputs": [],
      "name": "symbol",
      "outputs": [
        {
          "internalType": "string",
          "name": "",
          "type": "string"
        }
      ],
      "stateMutability": "view",
      "type": "function"
    },
    {
      "inputs": [
        {
          "internalType": "uint256",
          "name": "tokenId",
          "type": "uint256"
        }
      ],
      "name": "tokenURI",
      "outputs": [
        {
          "internalType": "string",
          "name": "",
          "type": "string"
        }
      ],
      "stateMutability": "view",
      "type": "function"
    },
    {
      "inputs": [
        {
          "internalType": "address",
          "name": "from",
          "type": "address"
        },
        {
          "internalType": "address",
          "name": "to",
          "type": "address"
        },
        {
          "internalType": "uint256",
          "name": "tokenId",
          "type": "uint256"
        }
      ],
      "name": "transferFrom",
      "outputs": [],
      "stateMutability": "nonpayable",
      "type": "function"
    },
    {
      "inputs": [
        {
          "internalType": "address",
          "name": "newOwner",
          "type": "address"
        }
      ],
      "name": "transferOwnership",
      "outputs": [],
      "stateMutability": "nonpayable",
      "type": "function"
    },
    {
      "inputs": [
        {
          "internalType": "string[]",
          "name": "imageParts",
          "type": "string[]"
        }
      ],
      "name": "updateImageParts",
      "outputs": [],
      "stateMutability": "nonpayable",
      "type": "function"
    }
  ],
  "bytecode": {
    "object": "60806040523480156200001157600080fd5b506040518060400160405280600481526020017f46616465000000000000000000000000000000000000000000000000000000008152506040518060400160405280600481526020017f464144450000000000000000000000000000000000000000000000000000000081525081600090805190602001906200009692919062000bb7565b508060019080519060200190620000af92919062000bb7565b5050506000620000c46200093960201b60201c565b905080600660006101000a81548173ffffffffffffffffffffffffffffffffffffffff021916908373ffffffffffffffffffffffffffffffffffffffff1602179055508073ffffffffffffffffffffffffffffffffffffffff16600073ffffffffffffffffffffffffffffffffffffffff167f8be0079c531659141344cd1fd0a4f28419497f9722a3daafe3b4186f6b6457e060405160405180910390a350600980600181540180825580915050600190039060005260206000200160006040518060400160405280601881526020017f646174613a696d6167652f7376672b786d6c3b757466382c000000000000000081525090919091509080519060200190620001d292919062000bb7565b50600980600181540180825580915050600190039060005260206000200160006040518060c00160405280609081526020016200612760909139909190915090805190602001906200022692919062000bb7565b50600980600181540180825580915050600190039060005260206000200160006040518060800160405280605b815260200162006246605b9139909190915090805190602001906200027a92919062000bb7565b5060096040518060400160405280600681526020017f3c485545313e0000000000000000000000000000000000000000000000000000815250908060018154018082558091505060019003906000526020600020016000909190919091509080519060200190620002ed92919062000bb7565b50600980600181540180825580915050600190039060005260206000200160006040518060400160405280600181526020017f2c00000000000000000000000000000000000000000000000000000000000000815250909190915090805190602001906200035d92919062000bb7565b5060096040518060400160405280600d81526020017f3c53415455524154494f4e313e00000000000000000000000000000000000000815250908060018154018082558091505060019003906000526020600020016000909190919091509080519060200190620003d092919062000bb7565b50600980600181540180825580915050600190039060005260206000200160006040518060400160405280600281526020017f252c000000000000000000000000000000000000000000000000000000000000815250909190915090805190602001906200044092919062000bb7565b5060096040518060400160405280600c81526020017f3c4c494748544e455353313e0000000000000000000000000000000000000000815250908060018154018082558091505060019003906000526020600020016000909190919091509080519060200190620004b392919062000bb7565b5060098060018154018082558091505060019003906000526020600020016000604051806060016040528060298152602001620060fe60299139909190915090805190602001906200050792919062000bb7565b5060096040518060400160405280600681526020017f3c485545323e00000000000000000000000000000000000000000000000000008152509080600181540180825580915050600190039060005260206000200160009091909190915090805190602001906200057a92919062000bb7565b50600980600181540180825580915050600190039060005260206000200160006040518060400160405280600181526020017f2c0000000000000000000000000000000000000000000000000000000000000081525090919091509080519060200190620005ea92919062000bb7565b5060096040518060400160405280600d81526020017f3c53415455524154494f4e323e000000000000000000000000000000000000008152509080600181540180825580915050600190039060005260206000200160009091909190915090805190602001906200065d92919062000bb7565b50600980600181540180825580915050600190039060005260206000200160006040518060400160405280600281526020017f252c00000000000000000000000000000000000000000000000000000000000081525090919091509080519060200190620006cd92919062000bb7565b5060096040518060400160405280600c81526020017f3c4c494748544e455353323e00000000000000000000000000000000000000008152509080600181540180825580915050600190039060005260206000200160009091909190915090805190602001906200074092919062000bb7565b50600980600181540180825580915050600190039060005260206000200160006040518060800160405280604f8152602001620062a1604f9139909190915090805190602001906200079492919062000bb7565b50600980600181540180825580915050600190039060005260206000200160006040518060800160405280606081526020016200609e6060913990919091509080519060200190620007e892919062000bb7565b5060096040518060400160405280600881526020017f3c5241444955533e0000000000000000000000000000000000000000000000008152509080600181540180825580915050600190039060005260206000200160009091909190915090805190602001906200085b92919062000bb7565b50600980600181540180825580915050600190039060005260206000200160006040518060c00160405280608f8152602001620061b7608f913990919091509080519060200190620008af92919062000bb7565b50600980600181540180825580915050600190039060005260206000200160006040518060400160405280600681526020017f3c2f7376673e0000000000000000000000000000000000000000000000000000815250909190915090805190602001906200091f92919062000bb7565b50620009333360016200094160201b60201c565b62000e57565b600033905090565b600073ffffffffffffffffffffffffffffffffffffffff168273ffffffffffffffffffffffffffffffffffffffff161415620009b4576040517f08c379a0000000000000000000000000000000000000000000000000000000008152600401620009ab9062000cd7565b60405180910390fd5b620009c58162000b2760201b60201c565b1562000a08576040517f08c379a0000000000000000000000000000000000000000000000000000000008152600401620009ff9062000cb5565b60405180910390fd5b62000a1c6000838362000b9360201b60201c565b6001600360008473ffffffffffffffffffffffffffffffffffffffff1673ffffffffffffffffffffffffffffffffffffffff168152602001908152602001600020600082825462000a6e919062000d0a565b92505081905550816002600083815260200190815260200160002060006101000a81548173ffffffffffffffffffffffffffffffffffffffff021916908373ffffffffffffffffffffffffffffffffffffffff160217905550808273ffffffffffffffffffffffffffffffffffffffff16600073ffffffffffffffffffffffffffffffffffffffff167fddf252ad1be2c89b69c2b068fc378daa952ba7f163c4a11628f55a4df523b3ef60405160405180910390a45050565b60008073ffffffffffffffffffffffffffffffffffffffff166002600084815260200190815260200160002060009054906101000a900473ffffffffffffffffffffffffffffffffffffffff1673ffffffffffffffffffffffffffffffffffffffff1614159050919050565b426007819055506301e133804262000bac919062000d0a565b600881905550505050565b82805462000bc59062000d71565b90600052602060002090601f01602090048101928262000be9576000855562000c35565b82601f1062000c0457805160ff191683800117855562000c35565b8280016001018555821562000c35579182015b8281111562000c3457825182559160200191906001019062000c17565b5b50905062000c44919062000c48565b5090565b5b8082111562000c6357600081600090555060010162000c49565b5090565b600062000c76601c8362000cf9565b915062000c838262000e05565b602082019050919050565b600062000c9d60208362000cf9565b915062000caa8262000e2e565b602082019050919050565b6000602082019050818103600083015262000cd08162000c67565b9050919050565b6000602082019050818103600083015262000cf28162000c8e565b9050919050565b600082825260208201905092915050565b600062000d178262000d67565b915062000d248362000d67565b9250827fffffffffffffffffffffffffffffffffffffffffffffffffffffffffffffffff0382111562000d5c5762000d5b62000da7565b5b828201905092915050565b6000819050919050565b6000600282049050600182168062000d8a57607f821691505b6020821081141562000da15762000da062000dd6565b5b50919050565b7f4e487b7100000000000000000000000000000000000000000000000000000000600052601160045260246000fd5b7f4e487b7100000000000000000000000000000000000000000000000000000000600052602260045260246000fd5b7f4552433732313a20746f6b656e20616c7265616479206d696e74656400000000600082015250565b7f4552433732313a206d696e7420746f20746865207a65726f2061646472657373600082015250565b6152378062000e676000396000f3fe608060405234801561001057600080fd5b506004361061010b5760003560e01c8063715018a6116100a2578063b88d4fde11610071578063b88d4fde146102a4578063c87b56dd146102c0578063e34069af146102f0578063e985e9c51461030c578063f2fde38b1461033c5761010b565b8063715018a6146102425780638da5cb5b1461024c57806395d89b411461026a578063a22cb465146102885761010b565b806323b872dd116100de57806323b872dd146101aa57806342842e0e146101c65780636352211e146101e257806370a08231146102125761010b565b806301ffc9a71461011057806306fdde0314610140578063081812fc1461015e578063095ea7b31461018e575b600080fd5b61012a60048036038101906101259190613fbc565b610358565b60405161013791906145f1565b60405180910390f35b61014861043a565b604051610155919061460c565b60405180910390f35b6101786004803603810190610173919061400e565b6104cc565b604051610185919061458a565b60405180910390f35b6101a860048036038101906101a39190613f3f565b610551565b005b6101c460048036038101906101bf9190613e39565b610669565b005b6101e060048036038101906101db9190613e39565b6106c9565b005b6101fc60048036038101906101f7919061400e565b6106e9565b604051610209919061458a565b60405180910390f35b61022c60048036038101906102279190613dd4565b61079b565b60405161023991906147ce565b60405180910390f35b61024a610853565b005b610254610990565b604051610261919061458a565b60405180910390f35b6102726109ba565b60405161027f919061460c565b60405180910390f35b6102a2600480360381019061029d9190613f03565b610a4c565b005b6102be60048036038101906102b99190613e88565b610bcd565b005b6102da60048036038101906102d5919061400e565b610c2f565b6040516102e7919061460c565b60405180910390f35b61030a60048036038101906103059190613f7b565b610eaf565b005b61032660048036038101906103219190613dfd565b610f45565b60405161033391906145f1565b60405180910390f35b61035660048036038101906103519190613dd4565b610fd9565b005b60007f80ac58cd000000000000000000000000000000000000000000000000000000007bffffffffffffffffffffffffffffffffffffffffffffffffffffffff1916827bffffffffffffffffffffffffffffffffffffffffffffffffffffffff1916148061042357507f5b5e139f000000000000000000000000000000000000000000000000000000007bffffffffffffffffffffffffffffffffffffffffffffffffffffffff1916827bffffffffffffffffffffffffffffffffffffffffffffffffffffffff1916145b80610433575061043282611185565b5b9050919050565b60606000805461044990614b23565b80601f016020809104026020016040519081016040528092919081815260200182805461047590614b23565b80156104c25780601f10610497576101008083540402835291602001916104c2565b820191906000526020600020905b8154815290600101906020018083116104a557829003601f168201915b5050505050905090565b60006104d7826111ef565b610516576040517f08c379a000000000000000000000000000000000000000000000000000000000815260040161050d9061472e565b60405180910390fd5b6004600083815260200190815260200160002060009054906101000a900473ffffffffffffffffffffffffffffffffffffffff169050919050565b600061055c826106e9565b90508073ffffffffffffffffffffffffffffffffffffffff168373ffffffffffffffffffffffffffffffffffffffff1614156105cd576040517f08c379a00000000000000000000000000000000000000000000000000000000081526004016105c49061478e565b60405180910390fd5b8073ffffffffffffffffffffffffffffffffffffffff166105ec61125b565b73ffffffffffffffffffffffffffffffffffffffff16148061061b575061061a8161061561125b565b610f45565b5b61065a576040517f08c379a0000000000000000000000000000000000000000000000000000000008152600401610651906146ce565b60405180910390fd5b6106648383611263565b505050565b61067a61067461125b565b8261131c565b6106b9576040517f08c379a00000000000000000000000000000000000000000000000000000000081526004016106b0906147ae565b60405180910390fd5b6106c48383836113fa565b505050565b6106e483838360405180602001604052806000815250610bcd565b505050565b6000806002600084815260200190815260200160002060009054906101000a900473ffffffffffffffffffffffffffffffffffffffff169050600073ffffffffffffffffffffffffffffffffffffffff168173ffffffffffffffffffffffffffffffffffffffff161415610792576040517f08c379a00000000000000000000000000000000000000000000000000000000081526004016107899061470e565b60405180910390fd5b80915050919050565b60008073ffffffffffffffffffffffffffffffffffffffff168273ffffffffffffffffffffffffffffffffffffffff16141561080c576040517f08c379a0000000000000000000000000000000000000000000000000000000008152600401610803906146ee565b60405180910390fd5b600360008373ffffffffffffffffffffffffffffffffffffffff1673ffffffffffffffffffffffffffffffffffffffff168152602001908152602001600020549050919050565b61085b61125b565b73ffffffffffffffffffffffffffffffffffffffff16610879610990565b73ffffffffffffffffffffffffffffffffffffffff16146108cf576040517f08c379a00000000000000000000000000000000000000000000000000000000081526004016108c69061474e565b60405180910390fd5b600073ffffffffffffffffffffffffffffffffffffffff16600660009054906101000a900473ffffffffffffffffffffffffffffffffffffffff1673ffffffffffffffffffffffffffffffffffffffff167f8be0079c531659141344cd1fd0a4f28419497f9722a3daafe3b4186f6b6457e060405160405180910390a36000600660006101000a81548173ffffffffffffffffffffffffffffffffffffffff021916908373ffffffffffffffffffffffffffffffffffffffff160217905550565b6000600660009054906101000a900473ffffffffffffffffffffffffffffffffffffffff16905090565b6060600180546109c990614b23565b80601f01602080910402602001604051908101604052809291908181526020018280546109f590614b23565b8015610a425780601f10610a1757610100808354040283529160200191610a42565b820191906000526020600020905b815481529060010190602001808311610a2557829003601f168201915b5050505050905090565b610a5461125b565b73ffffffffffffffffffffffffffffffffffffffff168273ffffffffffffffffffffffffffffffffffffffff161415610ac2576040517f08c379a0000000000000000000000000000000000000000000000000000000008152600401610ab99061468e565b60405180910390fd5b8060056000610acf61125b565b73ffffffffffffffffffffffffffffffffffffffff1673ffffffffffffffffffffffffffffffffffffffff16815260200190815260200160002060008473ffffffffffffffffffffffffffffffffffffffff1673ffffffffffffffffffffffffffffffffffffffff16815260200190815260200160002060006101000a81548160ff0219169083151502179055508173ffffffffffffffffffffffffffffffffffffffff16610b7c61125b565b73ffffffffffffffffffffffffffffffffffffffff167f17307eab39ab6107e8899845ad3d59bd9653f200f220920489ca2b5937696c3183604051610bc191906145f1565b60405180910390a35050565b610bde610bd861125b565b8361131c565b610c1d576040517f08c379a0000000000000000000000000000000000000000000000000000000008152600401610c14906147ae565b60405180910390fd5b610c2984848484611656565b50505050565b6060600060019050426008541115610c5f57610c5c42600854610c529190614a1f565b6301e133806116b2565b90505b60006001610cba610c726002606461171a565b610ca9610c816030606461171a565b610c98600388600f0b6117ca90919063ffffffff16565b600f0b611adf90919063ffffffff16565b600f0b611b4a90919063ffffffff16565b610cc49190614914565b90506000610cf9610cf4610cd785611bb1565b610ce3604b606461171a565b600f0b611adf90919063ffffffff16565b611cd5565b90506000610d2e610d29610d0c86611bb1565b610d18607d606461171a565b600f0b611adf90919063ffffffff16565b611cd5565b90506000610d7a610d3f60ff6128d5565b610d6960ff610d4d8b6106e9565b1673ffffffffffffffffffffffffffffffffffffffff166128d5565b600f0b61171a90919063ffffffff16565b90506000610de0610d8b60ff6128d5565b610dcf60ff6008610d9b8d6106e9565b73ffffffffffffffffffffffffffffffffffffffff16901c1673ffffffffffffffffffffffffffffffffffffffff166128d5565b600f0b61171a90919063ffffffff16565b90506000610df883610df36101686128d5565b611adf565b90506000610e4c610e09605a6128d5565b610e3b610e176101686128d5565b610e2a87610e2560b46128d5565b611adf565b600f0b611b4a90919063ffffffff16565b600f0b6128f890919063ffffffff16565b9050610e726201518060075442610e639190614a1f565b610e6d91906149ee565b61295f565b610e80888a89898787612b0c565b604051602001610e91929190614545565b60405160208183030381529060405298505050505050505050919050565b610eb761125b565b73ffffffffffffffffffffffffffffffffffffffff16610ed5610990565b73ffffffffffffffffffffffffffffffffffffffff1614610f2b576040517f08c379a0000000000000000000000000000000000000000000000000000000008152600401610f229061474e565b60405180910390fd5b8060099080519060200190610f41929190613a84565b5050565b6000600560008473ffffffffffffffffffffffffffffffffffffffff1673ffffffffffffffffffffffffffffffffffffffff16815260200190815260200160002060008373ffffffffffffffffffffffffffffffffffffffff1673ffffffffffffffffffffffffffffffffffffffff16815260200190815260200160002060009054906101000a900460ff16905092915050565b610fe161125b565b73ffffffffffffffffffffffffffffffffffffffff16610fff610990565b73ffffffffffffffffffffffffffffffffffffffff1614611055576040517f08c379a000000000000000000000000000000000000000000000000000000000815260040161104c9061474e565b60405180910390fd5b600073ffffffffffffffffffffffffffffffffffffffff168173ffffffffffffffffffffffffffffffffffffffff1614156110c5576040517f08c379a00000000000000000000000000000000000000000000000000000000081526004016110bc9061464e565b60405180910390fd5b8073ffffffffffffffffffffffffffffffffffffffff16600660009054906101000a900473ffffffffffffffffffffffffffffffffffffffff1673ffffffffffffffffffffffffffffffffffffffff167f8be0079c531659141344cd1fd0a4f28419497f9722a3daafe3b4186f6b6457e060405160405180910390a380600660006101000a81548173ffffffffffffffffffffffffffffffffffffffff021916908373ffffffffffffffffffffffffffffffffffffffff16021790555050565b60007f01ffc9a7000000000000000000000000000000000000000000000000000000007bffffffffffffffffffffffffffffffffffffffffffffffffffffffff1916827bffffffffffffffffffffffffffffffffffffffffffffffffffffffff1916149050919050565b60008073ffffffffffffffffffffffffffffffffffffffff166002600084815260200190815260200160002060009054906101000a900473ffffffffffffffffffffffffffffffffffffffff1673ffffffffffffffffffffffffffffffffffffffff1614159050919050565b600033905090565b816004600083815260200190815260200160002060006101000a81548173ffffffffffffffffffffffffffffffffffffffff021916908373ffffffffffffffffffffffffffffffffffffffff160217905550808273ffffffffffffffffffffffffffffffffffffffff166112d6836106e9565b73ffffffffffffffffffffffffffffffffffffffff167f8c5be1e5ebec7d5bd14f71427d1e84f3dd0314c0f7b2291e5b200ac8c7c3b92560405160405180910390a45050565b6000611327826111ef565b611366576040517f08c379a000000000000000000000000000000000000000000000000000000000815260040161135d906146ae565b60405180910390fd5b6000611371836106e9565b90508073ffffffffffffffffffffffffffffffffffffffff168473ffffffffffffffffffffffffffffffffffffffff1614806113e057508373ffffffffffffffffffffffffffffffffffffffff166113c8846104cc565b73ffffffffffffffffffffffffffffffffffffffff16145b806113f157506113f08185610f45565b5b91505092915050565b8273ffffffffffffffffffffffffffffffffffffffff1661141a826106e9565b73ffffffffffffffffffffffffffffffffffffffff1614611470576040517f08c379a00000000000000000000000000000000000000000000000000000000081526004016114679061476e565b60405180910390fd5b600073ffffffffffffffffffffffffffffffffffffffff168273ffffffffffffffffffffffffffffffffffffffff1614156114e0576040517f08c379a00000000000000000000000000000000000000000000000000000000081526004016114d79061466e565b60405180910390fd5b6114eb8383836130ba565b6114f6600082611263565b6001600360008573ffffffffffffffffffffffffffffffffffffffff1673ffffffffffffffffffffffffffffffffffffffff16815260200190815260200160002060008282546115469190614a1f565b925050819055506001600360008473ffffffffffffffffffffffffffffffffffffffff1673ffffffffffffffffffffffffffffffffffffffff168152602001908152602001600020600082825461159d9190614998565b92505081905550816002600083815260200190815260200160002060006101000a81548173ffffffffffffffffffffffffffffffffffffffff021916908373ffffffffffffffffffffffffffffffffffffffff160217905550808273ffffffffffffffffffffffffffffffffffffffff168473ffffffffffffffffffffffffffffffffffffffff167fddf252ad1be2c89b69c2b068fc378daa952ba7f163c4a11628f55a4df523b3ef60405160405180910390a4505050565b6116618484846113fa565b61166d848484846130dc565b6116ac576040517f08c379a00000000000000000000000000000000000000000000000000000000081526004016116a39061462e565b60405180910390fd5b50505050565b6000808214156116c157600080fd5b60006116cd8484613273565b90506f7fffffffffffffffffffffffffffffff6fffffffffffffffffffffffffffffffff16816fffffffffffffffffffffffffffffffff16111561171057600080fd5b8091505092915050565b60008082600f0b141561172c57600080fd5b600082600f0b604085600f0b901b8161176e577f4e487b7100000000000000000000000000000000000000000000000000000000600052601260045260246000fd5b0590507fffffffffffffffffffffffffffffffff80000000000000000000000000000000600f0b81121580156117b757506f7fffffffffffffffffffffffffffffff600f0b8113155b6117c057600080fd5b8091505092915050565b600080600084600f0b1280156117e257506001808416145b905060008085600f0b126117f657846117fb565b846000035b6fffffffffffffffffffffffffffffffff169050600070010000000000000000000000000000000090506801000000000000000082116118d557603f82901b91505b600085146118c9576000600186161461185a57607f828202901c90505b607f828302901c91506000600286161461187857607f828202901c90505b607f828302901c91506000600486161461189657607f828202901c90505b607f828302901c9150600060088616146118b457607f828202901c90505b607f828302901c9150600485901c945061183d565b604081901c9050611a6f565b6000603f90506c010000000000000000000000008310156118fe57602083901b92506020810390505b6e01000000000000000000000000000083101561192357601083901b92506010810390505b6f0100000000000000000000000000000083101561194957600883901b92506008810390505b6f1000000000000000000000000000000083101561196f57600483901b92506004810390505b6f4000000000000000000000000000000083101561199557600283901b92506002810390505b6f800000000000000000000000000000008310156119bb57600183901b92506001810390505b60005b60008714611a5657604082106119d357600080fd5b60006001881614611a1457607f848402901c92508181019050700100000000000000000000000000000000831115611a1357600183901c92506001810190505b5b607f848502901c9350600182901b91507001000000000000000000000000000000008410611a4a57600184901c93506001820191505b600187901c96506119be565b60408110611a6357600080fd5b8060400383901c925050505b600083611a7c5781611a81565b816000035b90507fffffffffffffffffffffffffffffffff80000000000000000000000000000000600f0b8112158015611ac957506f7fffffffffffffffffffffffffffffff600f0b8113155b611ad257600080fd5b8094505050505092915050565b600080604083600f0b85600f0b02901d90507fffffffffffffffffffffffffffffffff80000000000000000000000000000000600f0b8112158015611b3757506f7fffffffffffffffffffffffffffffff600f0b8113155b611b4057600080fd5b8091505092915050565b60008082600f0b84600f0b0190507fffffffffffffffffffffffffffffffff80000000000000000000000000000000600f0b8112158015611b9e57506f7fffffffffffffffffffffffffffffff600f0b8113155b611ba757600080fd5b8091505092915050565b60008082600f0b13611bc257600080fd5b60008083600f0b9050680100000000000000008112611be957604081901d90506040820191505b6401000000008112611c0357602081901d90506020820191505b620100008112611c1b57601081901d90506010820191505b6101008112611c3257600881901d90506008820191505b60108112611c4857600481901d90506004820191505b60048112611c5e57600281901d90506002820191505b60028112611c6d576001820191505b60006040808403901b9050600083607f0386600f0b901b9050600067800000000000000090505b6000811315611cc8578182029150600060ff83901c905080607f0183901c92508082028401935050600181901d9050611c94565b5081945050505050919050565b60006840000000000000000082600f0b12611cef57600080fd5b7fffffffffffffffffffffffffffffffffffffffffffffffc0000000000000000082600f0b1215611d2357600090506128d0565b60006f80000000000000000000000000000000905060006780000000000000008416600f0b1315611d6957608070016a09e667f3bcc908b2fb1366ea957d3e8202901c90505b60006740000000000000008416600f0b1315611d9a5760807001306fe0a31b7152de8d5a46305c85edec8202901c90505b60006720000000000000008416600f0b1315611dcb5760807001172b83c7d517adcdf7c8c50eb14a791f8202901c90505b60006710000000000000008416600f0b1315611dfc57608070010b5586cf9890f6298b92b71842a983638202901c90505b60006708000000000000008416600f0b1315611e2d5760807001059b0d31585743ae7c548eb68ca417fd8202901c90505b60006704000000000000008416600f0b1315611e5e576080700102c9a3e778060ee6f7caca4f7a29bde88202901c90505b60006702000000000000008416600f0b1315611e8f57608070010163da9fb33356d84a66ae336dcdfa3f8202901c90505b60006701000000000000008416600f0b1315611ec0576080700100b1afa5abcbed6129ab13ec11dc95438202901c90505b600066800000000000008416600f0b1315611ef057608070010058c86da1c09ea1ff19d294cf2f679b8202901c90505b600066400000000000008416600f0b1315611f205760807001002c605e2e8cec506d21bfc89a23a00f8202901c90505b600066200000000000008416600f0b1315611f50576080700100162f3904051fa128bca9c55c31e5df8202901c90505b600066100000000000008416600f0b1315611f805760807001000b175effdc76ba38e31671ca9397258202901c90505b600066080000000000008416600f0b1315611fb0576080700100058ba01fb9f96d6cacd4b180917c3d8202901c90505b600066040000000000008416600f0b1315611fe057608070010002c5cc37da9491d0985c348c68e7b38202901c90505b600066020000000000008416600f0b13156120105760807001000162e525ee054754457d59952920268202901c90505b600066010000000000008416600f0b131561204057608070010000b17255775c040618bf4a4ade83fc8202901c90505b6000658000000000008416600f0b131561206f5760807001000058b91b5bc9ae2eed81e9b7d4cfab8202901c90505b6000654000000000008416600f0b131561209e576080700100002c5c89d5ec6ca4d7c8acc017b7c98202901c90505b6000652000000000008416600f0b13156120cd57608070010000162e43f4f831060e02d839a9d16d8202901c90505b6000651000000000008416600f0b13156120fc576080700100000b1721bcfc99d9f890ea069117638202901c90505b6000650800000000008416600f0b131561212b57608070010000058b90cf1e6d97f9ca14dbcc16288202901c90505b6000650400000000008416600f0b131561215a5760807001000002c5c863b73f016468f6bac5ca2b8202901c90505b6000650200000000008416600f0b1315612189576080700100000162e430e5a18f6119e3c02282a58202901c90505b6000650100000000008416600f0b13156121b85760807001000000b1721835514b86e6d96efd1bfe8202901c90505b60006480000000008416600f0b13156121e6576080700100000058b90c0b48c6be5df846c5b2ef8202901c90505b60006440000000008416600f0b131561221457608070010000002c5c8601cc6b9e94213c72737a8202901c90505b60006420000000008416600f0b13156122425760807001000000162e42fff037df38aa2b219f068202901c90505b60006410000000008416600f0b131561227057608070010000000b17217fba9c739aa5819f44f98202901c90505b60006408000000008416600f0b131561229e5760807001000000058b90bfcdee5acd3c1cedc8238202901c90505b60006404000000008416600f0b13156122cc576080700100000002c5c85fe31f35a6a30da1be508202901c90505b60006402000000008416600f0b13156122fa57608070010000000162e42ff0999ce3541b9fffcf8202901c90505b60006401000000008416600f0b1315612328576080700100000000b17217f80f4ef5aadda455548202901c90505b600063800000008416600f0b131561235557608070010000000058b90bfbf8479bd5a81b51ad8202901c90505b600063400000008416600f0b13156123825760807001000000002c5c85fdf84bd62ae30a74cc8202901c90505b600063200000008416600f0b13156123af576080700100000000162e42fefb2fed257559bdaa8202901c90505b600063100000008416600f0b13156123dc5760807001000000000b17217f7d5a7716bba4a9ae8202901c90505b600063080000008416600f0b1315612409576080700100000000058b90bfbe9ddbac5e109cce8202901c90505b600063040000008416600f0b131561243657608070010000000002c5c85fdf4b15de6f17eb0d8202901c90505b600063020000008416600f0b13156124635760807001000000000162e42fefa494f1478fde058202901c90505b600063010000008416600f0b131561249057608070010000000000b17217f7d20cf927c8e94c8202901c90505b6000628000008416600f0b13156124bc5760807001000000000058b90bfbe8f71cb4e4b33d8202901c90505b6000624000008416600f0b13156124e8576080700100000000002c5c85fdf477b662b269458202901c90505b6000622000008416600f0b131561251457608070010000000000162e42fefa3ae53369388c8202901c90505b6000621000008416600f0b1315612540576080700100000000000b17217f7d1d351a389d408202901c90505b6000620800008416600f0b131561256c57608070010000000000058b90bfbe8e8b2d3d4ede8202901c90505b6000620400008416600f0b13156125985760807001000000000002c5c85fdf4741bea6e77e8202901c90505b6000620200008416600f0b13156125c4576080700100000000000162e42fefa39fe95583c28202901c90505b6000620100008416600f0b13156125f05760807001000000000000b17217f7d1cfb72b45e18202901c90505b60006180008416600f0b131561261b576080700100000000000058b90bfbe8e7cc35c3f08202901c90505b60006140008416600f0b131561264657608070010000000000002c5c85fdf473e242ea388202901c90505b60006120008416600f0b13156126715760807001000000000000162e42fefa39f02b772c8202901c90505b60006110008416600f0b131561269c57608070010000000000000b17217f7d1cf7d83c1a8202901c90505b60006108008416600f0b13156126c75760807001000000000000058b90bfbe8e7bdcbe2e8202901c90505b60006104008416600f0b13156126f2576080700100000000000002c5c85fdf473dea871f8202901c90505b60006102008416600f0b131561271d57608070010000000000000162e42fefa39ef44d918202901c90505b60006101008416600f0b1315612748576080700100000000000000b17217f7d1cf79e9498202901c90505b600060808416600f0b131561277257608070010000000000000058b90bfbe8e7bce5448202901c90505b600060408416600f0b131561279c5760807001000000000000002c5c85fdf473de6eca8202901c90505b600060208416600f0b13156127c6576080700100000000000000162e42fefa39ef366f8202901c90505b600060108416600f0b13156127f05760807001000000000000000b17217f7d1cf79afa8202901c90505b600060088416600f0b131561281a576080700100000000000000058b90bfbe8e7bcd6d8202901c90505b600060048416600f0b131561284457608070010000000000000002c5c85fdf473de6b28202901c90505b600060028416600f0b131561286e5760807001000000000000000162e42fefa39ef3588202901c90505b600060018416600f0b131561289857608070010000000000000000b17217f7d1cf79ab8202901c90505b604083600f0b901d603f03600f0b81901c90506f7fffffffffffffffffffffffffffffff600f0b8111156128cb57600080fd5b809150505b919050565b6000677fffffffffffffff8211156128ec57600080fd5b604082901b9050919050565b60008082600f0b84600f0b0390507fffffffffffffffffffffffffffffffff80000000000000000000000000000000600f0b811215801561294c57506f7fffffffffffffffffffffffffffffff600f0b8113155b61295557600080fd5b8091505092915050565b606060008214156129a7576040518060400160405280600181526020017f30000000000000000000000000000000000000000000000000000000000000008152509050612b07565b600082905060005b600082146129d95780806129c290614b86565b915050600a826129d291906149ee565b91506129af565b60008167ffffffffffffffff811115612a1b577f4e487b7100000000000000000000000000000000000000000000000000000000600052604160045260246000fd5b6040519080825280601f01601f191660200182016040528015612a4d5781602001600182028036833780820191505090505b5090505b60008514612b0057600182612a669190614a1f565b9150600a85612a759190614c00565b6030612a819190614998565b60f81b818381518110612abd577f4e487b7100000000000000000000000000000000000000000000000000000000600052603260045260246000fd5b60200101907effffffffffffffffffffffffffffffffffffffffffffffffffffffffffffff1916908160001a905350600a85612af991906149ee565b9450612a51565b8093505050505b919050565b60608060005b6009805490508110156130ab57612ba160098281548110612b5c577f4e487b7100000000000000000000000000000000000000000000000000000000600052603260045260246000fd5b906000526020600020016040518060400160405280600881526020017f3c5241444955533e0000000000000000000000000000000000000000000000008152506134e8565b15612bd75781612bb08a613541565b604051602001612bc19291906144a0565b6040516020818303038152906040529150613098565b612c5960098281548110612c14577f4e487b7100000000000000000000000000000000000000000000000000000000600052603260045260246000fd5b906000526020600020016040518060400160405280600681526020017f3c485545313e00000000000000000000000000000000000000000000000000008152506134e8565b15612c905781612c698987613553565b604051602001612c7a9291906144a0565b6040516020818303038152906040529150613097565b612d1260098281548110612ccd577f4e487b7100000000000000000000000000000000000000000000000000000000600052603260045260246000fd5b906000526020600020016040518060400160405280600d81526020017f3c53415455524154494f4e313e000000000000000000000000000000000000008152506134e8565b15612d485781612d218861360a565b604051602001612d329291906144a0565b6040516020818303038152906040529150613096565b612dca60098281548110612d85577f4e487b7100000000000000000000000000000000000000000000000000000000600052603260045260246000fd5b906000526020600020016040518060400160405280600c81526020017f3c4c494748544e455353313e00000000000000000000000000000000000000008152506134e8565b15612e005781612dd98861363a565b604051602001612dea9291906144a0565b6040516020818303038152906040529150613095565b612e8260098281548110612e3d577f4e487b7100000000000000000000000000000000000000000000000000000000600052603260045260246000fd5b906000526020600020016040518060400160405280600681526020017f3c485545323e00000000000000000000000000000000000000000000000000008152506134e8565b15612eba5781612e9389878761367e565b604051602001612ea49291906144a0565b6040516020818303038152906040529150613094565b612f3c60098281548110612ef7577f4e487b7100000000000000000000000000000000000000000000000000000000600052603260045260246000fd5b906000526020600020016040518060400160405280600d81526020017f3c53415455524154494f4e323e000000000000000000000000000000000000008152506134e8565b15612f725781612f4b8761374b565b604051602001612f5c9291906144a0565b6040516020818303038152906040529150613093565b612ff460098281548110612faf577f4e487b7100000000000000000000000000000000000000000000000000000000600052603260045260246000fd5b906000526020600020016040518060400160405280600c81526020017f3c4c494748544e455353323e00000000000000000000000000000000000000008152506134e8565b1561302a57816130038761377b565b6040516020016130149291906144a0565b6040516020818303038152906040529150613092565b8160098281548110613065577f4e487b7100000000000000000000000000000000000000000000000000000000600052603260045260246000fd5b906000526020600020016040516020016130809291906144c4565b60405160208183030381529060405291505b5b5b5b5b5b5b80806130a390614b86565b915050612b12565b50809150509695505050505050565b426007819055506301e13380426130d19190614998565b600881905550505050565b60006130fd8473ffffffffffffffffffffffffffffffffffffffff166137bf565b15613266578373ffffffffffffffffffffffffffffffffffffffff1663150b7a0261312661125b565b8786866040518563ffffffff1660e01b815260040161314894939291906145a5565b602060405180830381600087803b15801561316257600080fd5b505af192505050801561319357506040513d601f19601f820116820180604052508101906131909190613fe5565b60015b613216573d80600081146131c3576040519150601f19603f3d011682016040523d82523d6000602084013e6131c8565b606091505b5060008151141561320e576040517f08c379a00000000000000000000000000000000000000000000000000000000081526004016132059061462e565b60405180910390fd5b805181602001fd5b63150b7a0260e01b7bffffffffffffffffffffffffffffffffffffffffffffffffffffffff1916817bffffffffffffffffffffffffffffffffffffffffffffffffffffffff19161491505061326b565b600190505b949350505050565b60008082141561328257600080fd5b600077ffffffffffffffffffffffffffffffffffffffffffffffff84116132e55782604085901b816132dd577f4e487b7100000000000000000000000000000000000000000000000000000000600052601260045260246000fd5b0490506134c1565b600060c09050600060c086901c9050640100000000811061330e57602081901c90506020820191505b62010000811061332657601081901c90506010820191505b610100811061333d57600881901c90506008820191505b6010811061335357600481901c90506004820191505b6004811061336957600281901c90506002820191505b60028110613378576001820191505b600160bf830360018703901c018260ff0387901b816133c0577f4e487b7100000000000000000000000000000000000000000000000000000000600052601260045260246000fd5b0492506fffffffffffffffffffffffffffffffff8311156133e057600080fd5b6000608086901c8402905060006fffffffffffffffffffffffffffffffff871685029050600060c089901c9050600060408a901b905082811015613425576001820391505b8281039050608084901b925082811015613440576001820391505b8281039050608084901c821461347f577f4e487b7100000000000000000000000000000000000000000000000000000000600052600160045260246000fd5b8881816134b5577f4e487b7100000000000000000000000000000000000000000000000000000000600052601260045260246000fd5b04870196505050505050505b6fffffffffffffffffffffffffffffffff8111156134de57600080fd5b8091505092915050565b6000816040516020016134fb91906144e8565b6040516020818303038152906040528051906020012083604051602001613522919061452e565b6040516020818303038152906040528051906020012014905092915050565b606061354c826137d2565b9050919050565b6060600061358b613579613567603c6128d5565b86600f0b611adf90919063ffffffff16565b84600f0b611b4a90919063ffffffff16565b905060006135b161271067ffffffffffffffff8416600f0b61384290919063ffffffff16565b90506135d76101686135c584600f0b6138fd565b6135cf9190614bcf565b60070b61390e565b6135e082613923565b6040516020016135f19291906144ff565b6040516020818303038152906040529250505092915050565b606061363361362e61361c60646128d5565b84600f0b611adf90919063ffffffff16565b6137d2565b9050919050565b6060613677613649600f6128d5565b61366861365660466128d5565b85600f0b611adf90919063ffffffff16565b6136729190614914565b6137d2565b9050919050565b606060006136cb6136b9846136a8613696603c6128d5565b89600f0b611adf90919063ffffffff16565b600f0b611b4a90919063ffffffff16565b85600f0b611b4a90919063ffffffff16565b905060006136f161271067ffffffffffffffff8416600f0b61384290919063ffffffff16565b905061371761016861370584600f0b6138fd565b61370f9190614bcf565b60070b61390e565b61372082613923565b6040516020016137319291906144ff565b604051602081830303815290604052925050509392505050565b606061377461376f61375d60326128d5565b84600f0b611adf90919063ffffffff16565b6137d2565b9050919050565b60606137b861378a600f6128d5565b6137a961379760236128d5565b85600f0b611adf90919063ffffffff16565b6137b39190614914565b6137d2565b9050919050565b600080823b905060008111915050919050565b606060006137f861271067ffffffffffffffff8516600f0b61384290919063ffffffff16565b905061381161380984600f0b6138fd565b60070b61295f565b61381a82613923565b60405160200161382b9291906144ff565b604051602081830303815290604052915050919050565b60008082141561385557600090506138f7565b600083600f0b121561386657600080fd5b600060406fffffffffffffffffffffffffffffffff841685600f0b02901c90506000608084901c85600f0b02905077ffffffffffffffffffffffffffffffffffffffffffffffff8111156138b957600080fd5b604081901b9050817fffffffffffffffffffffffffffffffffffffffffffffffffffffffffffffffff038111156138ef57600080fd5b818101925050505b92915050565b6000604082600f0b901d9050919050565b606061391c82600f0b61295f565b9050919050565b60606000600467ffffffffffffffff811115613968577f4e487b7100000000000000000000000000000000000000000000000000000000600052604160045260246000fd5b6040519080825280601f01601f19166020018201604052801561399a5781602001600182028036833780820191505090505b50905060005b6004811015613a5b57600a846139b69190614c00565b60306139c29190614998565b60f81b828260036139d39190614a1f565b81518110613a0a577f4e487b7100000000000000000000000000000000000000000000000000000000600052603260045260246000fd5b60200101907effffffffffffffffffffffffffffffffffffffffffffffffffffffffffffff1916908160001a905350600a84613a4691906149ee565b93508080613a5390614b86565b9150506139a0565b5080604051602001613a6d9190614489565b604051602081830303815290604052915050919050565b828054828255906000526020600020908101928215613ad3579160200282015b82811115613ad2578251829080519060200190613ac2929190613ae4565b5091602001919060010190613aa4565b5b509050613ae09190613b6a565b5090565b828054613af090614b23565b90600052602060002090601f016020900481019282613b125760008555613b59565b82601f10613b2b57805160ff1916838001178555613b59565b82800160010185558215613b59579182015b82811115613b58578251825591602001919060010190613b3d565b5b509050613b669190613b8e565b5090565b5b80821115613b8a5760008181613b819190613bab565b50600101613b6b565b5090565b5b80821115613ba7576000816000905550600101613b8f565b5090565b508054613bb790614b23565b6000825580601f10613bc95750613be8565b601f016020900490600052602060002090810190613be79190613b8e565b5b50565b6000613bfe613bf98461480e565b6147e9565b90508083825260208201905082856020860282011115613c1d57600080fd5b60005b85811015613c6757813567ffffffffffffffff811115613c3f57600080fd5b808601613c4c8982613d95565b85526020850194506020840193505050600181019050613c20565b5050509392505050565b6000613c84613c7f8461483a565b6147e9565b905082815260208101848484011115613c9c57600080fd5b613ca7848285614ae1565b509392505050565b6000613cc2613cbd8461486b565b6147e9565b905082815260208101848484011115613cda57600080fd5b613ce5848285614ae1565b509392505050565b600081359050613cfc816151a5565b92915050565b600082601f830112613d1357600080fd5b8135613d23848260208601613beb565b91505092915050565b600081359050613d3b816151bc565b92915050565b600081359050613d50816151d3565b92915050565b600081519050613d65816151d3565b92915050565b600082601f830112613d7c57600080fd5b8135613d8c848260208601613c71565b91505092915050565b600082601f830112613da657600080fd5b8135613db6848260208601613caf565b91505092915050565b600081359050613dce816151ea565b92915050565b600060208284031215613de657600080fd5b6000613df484828501613ced565b91505092915050565b60008060408385031215613e1057600080fd5b6000613e1e85828601613ced565b9250506020613e2f85828601613ced565b9150509250929050565b600080600060608486031215613e4e57600080fd5b6000613e5c86828701613ced565b9350506020613e6d86828701613ced565b9250506040613e7e86828701613dbf565b9150509250925092565b60008060008060808587031215613e9e57600080fd5b6000613eac87828801613ced565b9450506020613ebd87828801613ced565b9350506040613ece87828801613dbf565b925050606085013567ffffffffffffffff811115613eeb57600080fd5b613ef787828801613d6b565b91505092959194509250565b60008060408385031215613f1657600080fd5b6000613f2485828601613ced565b9250506020613f3585828601613d2c565b9150509250929050565b60008060408385031215613f5257600080fd5b6000613f6085828601613ced565b9250506020613f7185828601613dbf565b9150509250929050565b600060208284031215613f8d57600080fd5b600082013567ffffffffffffffff811115613fa757600080fd5b613fb384828501613d02565b91505092915050565b600060208284031215613fce57600080fd5b6000613fdc84828501613d41565b91505092915050565b600060208284031215613ff757600080fd5b600061400584828501613d56565b91505092915050565b60006020828403121561402057600080fd5b600061402e84828501613dbf565b91505092915050565b61404081614a53565b82525050565b61404f81614a65565b82525050565b6000614060826148c6565b61406a81856148dc565b935061407a818560208601614af0565b61408381614ced565b840191505092915050565b6000614099826148c6565b6140a381856148ed565b93506140b3818560208601614af0565b80840191505092915050565b60006140ca826148d1565b6140d481856148f8565b93506140e4818560208601614af0565b6140ed81614ced565b840191505092915050565b6000614103826148d1565b61410d8185614909565b935061411d818560208601614af0565b80840191505092915050565b6000815461413681614b23565b6141408186614909565b9450600182166000811461415b576001811461416c5761419f565b60ff1983168652818601935061419f565b614175856148b1565b60005b8381101561419757815481890152600182019150602081019050614178565b838801955050505b50505092915050565b600081546141b581614b23565b6141bf8186614909565b945060018216600081146141da57600181146141eb5761421e565b60ff1983168652818601935061421e565b6141f48561489c565b60005b83811015614216578154818901526001820191506020810190506141f7565b838801955050505b50505092915050565b60006142346032836148f8565b915061423f82614cfe565b604082019050919050565b60006142576026836148f8565b915061426282614d4d565b604082019050919050565b600061427a602083614909565b915061428582614d9c565b602082019050919050565b600061429d6024836148f8565b91506142a882614dc5565b604082019050919050565b60006142c06019836148f8565b91506142cb82614e14565b602082019050919050565b60006142e3604d83614909565b91506142ee82614e3d565b604d82019050919050565b6000614306602c836148f8565b915061431182614eb2565b604082019050919050565b60006143296038836148f8565b915061433482614f01565b604082019050919050565b600061434c600183614909565b915061435782614f50565b600182019050919050565b600061436f602a836148f8565b915061437a82614f79565b604082019050919050565b60006143926029836148f8565b915061439d82614fc8565b604082019050919050565b60006143b5600283614909565b91506143c082615017565b600282019050919050565b60006143d8602c836148f8565b91506143e382615040565b604082019050919050565b60006143fb6020836148f8565b91506144068261508f565b602082019050919050565b600061441e6029836148f8565b9150614429826150b8565b604082019050919050565b60006144416021836148f8565b915061444c82615107565b604082019050919050565b60006144646031836148f8565b915061446f82615156565b604082019050919050565b61448381614ad7565b82525050565b6000614495828461408e565b915081905092915050565b60006144ac828561408e565b91506144b882846140f8565b91508190509392505050565b60006144d0828561408e565b91506144dc82846141a8565b91508190509392505050565b60006144f482846140f8565b915081905092915050565b600061450b82856140f8565b91506145168261433f565b915061452282846140f8565b91508190509392505050565b600061453a8284614129565b915081905092915050565b6000614550826142d6565b915061455c82856140f8565b91506145678261426d565b915061457382846140f8565b915061457e826143a8565b91508190509392505050565b600060208201905061459f6000830184614037565b92915050565b60006080820190506145ba6000830187614037565b6145c76020830186614037565b6145d4604083018561447a565b81810360608301526145e68184614055565b905095945050505050565b60006020820190506146066000830184614046565b92915050565b6000602082019050818103600083015261462681846140bf565b905092915050565b6000602082019050818103600083015261464781614227565b9050919050565b600060208201905081810360008301526146678161424a565b9050919050565b6000602082019050818103600083015261468781614290565b9050919050565b600060208201905081810360008301526146a7816142b3565b9050919050565b600060208201905081810360008301526146c7816142f9565b9050919050565b600060208201905081810360008301526146e78161431c565b9050919050565b6000602082019050818103600083015261470781614362565b9050919050565b6000602082019050818103600083015261472781614385565b9050919050565b60006020820190508181036000830152614747816143cb565b9050919050565b60006020820190508181036000830152614767816143ee565b9050919050565b6000602082019050818103600083015261478781614411565b9050919050565b600060208201905081810360008301526147a781614434565b9050919050565b600060208201905081810360008301526147c781614457565b9050919050565b60006020820190506147e3600083018461447a565b92915050565b60006147f3614804565b90506147ff8282614b55565b919050565b6000604051905090565b600067ffffffffffffffff82111561482957614828614cbe565b5b602082029050602081019050919050565b600067ffffffffffffffff82111561485557614854614cbe565b5b61485e82614ced565b9050602081019050919050565b600067ffffffffffffffff82111561488657614885614cbe565b5b61488f82614ced565b9050602081019050919050565b60008190508160005260206000209050919050565b60008190508160005260206000209050919050565b600081519050919050565b600081519050919050565b600082825260208201905092915050565b600081905092915050565b600082825260208201905092915050565b600081905092915050565b600061491f82614a9d565b915061492a83614a9d565b9250816f7fffffffffffffffffffffffffffffff0383136000831215161561495557614954614c31565b5b817fffffffffffffffffffffffffffffffff8000000000000000000000000000000003831260008312161561498d5761498c614c31565b5b828201905092915050565b60006149a382614ad7565b91506149ae83614ad7565b9250827fffffffffffffffffffffffffffffffffffffffffffffffffffffffffffffffff038211156149e3576149e2614c31565b5b828201905092915050565b60006149f982614ad7565b9150614a0483614ad7565b925082614a1457614a13614c60565b5b828204905092915050565b6000614a2a82614ad7565b9150614a3583614ad7565b925082821015614a4857614a47614c31565b5b828203905092915050565b6000614a5e82614ab7565b9050919050565b60008115159050919050565b60007fffffffff0000000000000000000000000000000000000000000000000000000082169050919050565b600081600f0b9050919050565b60008160070b9050919050565b600073ffffffffffffffffffffffffffffffffffffffff82169050919050565b6000819050919050565b82818337600083830152505050565b60005b83811015614b0e578082015181840152602081019050614af3565b83811115614b1d576000848401525b50505050565b60006002820490506001821680614b3b57607f821691505b60208210811415614b4f57614b4e614c8f565b5b50919050565b614b5e82614ced565b810181811067ffffffffffffffff82111715614b7d57614b7c614cbe565b5b80604052505050565b6000614b9182614ad7565b91507fffffffffffffffffffffffffffffffffffffffffffffffffffffffffffffffff821415614bc457614bc3614c31565b5b600182019050919050565b6000614bda82614aaa565b9150614be583614aaa565b925082614bf557614bf4614c60565b5b828207905092915050565b6000614c0b82614ad7565b9150614c1683614ad7565b925082614c2657614c25614c60565b5b828206905092915050565b7f4e487b7100000000000000000000000000000000000000000000000000000000600052601160045260246000fd5b7f4e487b7100000000000000000000000000000000000000000000000000000000600052601260045260246000fd5b7f4e487b7100000000000000000000000000000000000000000000000000000000600052602260045260246000fd5b7f4e487b7100000000000000000000000000000000000000000000000000000000600052604160045260246000fd5b6000601f19601f8301169050919050565b7f4552433732313a207472616e7366657220746f206e6f6e20455243373231526560008201527f63656976657220696d706c656d656e7465720000000000000000000000000000602082015250565b7f4f776e61626c653a206e6577206f776e657220697320746865207a65726f206160008201527f6464726573730000000000000000000000000000000000000000000000000000602082015250565b7f222c2022637265617465645f6279223a2250616b222c2022696d616765223a22600082015250565b7f4552433732313a207472616e7366657220746f20746865207a65726f2061646460008201527f7265737300000000000000000000000000000000000000000000000000000000602082015250565b7f4552433732313a20617070726f766520746f2063616c6c657200000000000000600082015250565b7f646174613a6170706c69636174696f6e2f6a736f6e3b757466382c7b226e616d60008201527f65223a2246616465222c20226465736372697074696f6e223a2254454d50555360208201527f204544415820524552554d5c6e00000000000000000000000000000000000000604082015250565b7f4552433732313a206f70657261746f7220717565727920666f72206e6f6e657860008201527f697374656e7420746f6b656e0000000000000000000000000000000000000000602082015250565b7f4552433732313a20617070726f76652063616c6c6572206973206e6f74206f7760008201527f6e6572206e6f7220617070726f76656420666f7220616c6c0000000000000000602082015250565b7f2e00000000000000000000000000000000000000000000000000000000000000600082015250565b7f4552433732313a2062616c616e636520717565727920666f7220746865207a6560008201527f726f206164647265737300000000000000000000000000000000000000000000602082015250565b7f4552433732313a206f776e657220717565727920666f72206e6f6e657869737460008201527f656e7420746f6b656e0000000000000000000000000000000000000000000000602082015250565b7f227d000000000000000000000000000000000000000000000000000000000000600082015250565b7f4552433732313a20617070726f76656420717565727920666f72206e6f6e657860008201527f697374656e7420746f6b656e0000000000000000000000000000000000000000602082015250565b7f4f776e61626c653a2063616c6c6572206973206e6f7420746865206f776e6572600082015250565b7f4552433732313a207472616e73666572206f6620746f6b656e2074686174206960008201527f73206e6f74206f776e0000000000000000000000000000000000000000000000602082015250565b7f4552433732313a20617070726f76616c20746f2063757272656e74206f776e6560008201527f7200000000000000000000000000000000000000000000000000000000000000602082015250565b7f4552433732313a207472616e736665722063616c6c6572206973206e6f74206f60008201527f776e6572206e6f7220617070726f766564000000000000000000000000000000602082015250565b6151ae81614a53565b81146151b957600080fd5b50565b6151c581614a65565b81146151d057600080fd5b50565b6151dc81614a71565b81146151e757600080fd5b50565b6151f381614ad7565b81146151fe57600080fd5b5056fea2646970667358221220181cf348a263e0191eb54a062846d1d72fda0ef5cb5879b81f05b061aa5220ea64736f6c634300080400333c673e3c7265637420783d272d302e352720793d272d302e35272077696474683d273127206865696768743d2731272066696c6c3d2768736c28302c30252c3135252927202f3e3c636972636c652063783d2730272063793d27302720723d27252927202f3e3c73746f70206f66667365743d27353025272073746f702d636f6c6f723d2768736c283c73766720786d6c6e733d27687474703a2f2f7777772e77332e6f72672f323030302f7376672720786d6c6e733a786c696e6b3d27687474703a2f2f7777772e77332e6f72672f313939392f786c696e6b272069643d2766616465272077696474683d273130303027206865696768743d2731303030272076696577426f783d272d302e35202d302e3520312031273e272066696c6c3d2775726c28236729273e3c616e696d6174655472616e73666f726d206174747269627574654e616d653d277472616e73666f726d2720747970653d27726f74617465272066726f6d3d27302720746f3d2733363027206475723d273630732720726570656174436f756e743d27696e646566696e69746527202f3e3c2f636972636c653e3c2f673e3c646566733e3c6c696e6561724772616469656e742069643d2767272078313d2730272078323d2730272079313d2730272079323d2731273e3c73746f70206f66667365743d273025272073746f702d636f6c6f723d2768736c28252927202f3e3c73746f70206f66667365743d2731303025272073746f702d636f6c6f723d2768736c28302c30252c3135252927202f3e3c2f6c696e6561724772616469656e743e3c2f646566733e"
  }
}