{"compiler":"v0.8.7+commit.e28d00a7","opcodeHash":"0x1c9c7caa8e805cb8c2e67b036674ad60b0ddbcdee3ac8159bdf74deb0556dfef","metalessHash":"0x005d8cd6e7fc957c499d736a378333eb7efd255b48bc359af5969a64eb5820c0","runtimeHash":"0xb6508717fde08fb09e94e848a1aa298a985221e6c95e1d639f5d9c5df609ff29","encodedMetadata":[{"ipfs":"/ipfs/QmXDhwVayAaY1FeVSdn2epRj2hE6bf2bNGimB4oD1BJEgh","solc":"0.8.7"}],"abi":[{"inputs":[{"internalType":"contract IERC20","name":"_paymentContract","type":"address"}],"stateMutability":"nonpayable","type":"constructor"},{"anonymous":false,"inputs":[{"indexed":true,"internalType":"address","name":"owner","type":"address"},{"indexed":true,"internalType":"address","name":"approved","type":"address"},{"indexed":true,"internalType":"uint256","name":"tokenId","type":"uint256"}],"name":"Approval","type":"event"},{"anonymous":false,"inputs":[{"indexed":true,"internalType":"address","name":"owner","type":"address"},{"indexed":true,"internalType":"address","name":"operator","type":"address"},{"indexed":false,"internalType":"bool","name":"approved","type":"bool"}],"name":"ApprovalForAll","type":"event"},{"anonymous":false,"inputs":[{"indexed":true,"internalType":"address","name":"previousOwner","type":"address"},{"indexed":true,"internalType":"address","name":"newOwner","type":"address"}],"name":"OwnershipTransferred","type":"event"},{"anonymous":false,"inputs":[{"indexed":true,"internalType":"address","name":"from","type":"address"},{"indexed":true,"internalType":"address","name":"to","type":"address"},{"indexed":true,"internalType":"uint256","name":"tokenId","type":"uint256"}],"name":"Transfer","type":"event"},{"inputs":[{"internalType":"address","name":"to","type":"address"},{"internalType":"uint256","name":"tokenId","type":"uint256"}],"name":"approve","outputs":[],"stateMutability":"nonpayable","type":"function"},{"inputs":[{"internalType":"address","name":"owner","type":"address"}],"name":"balanceOf","outputs":[{"internalType":"uint256","name":"","type":"uint256"}],"stateMutability":"view","type":"function"},{"inputs":[],"name":"base64Font","outputs":[{"internalType":"string","name":"","type":"string"}],"stateMutability":"view","type":"function"},{"inputs":[{"internalType":"uint256","name":"tokenId","type":"uint256"}],"name":"getApproved","outputs":[{"internalType":"address","name":"","type":"address"}],"stateMutability":"view","type":"function"},{"inputs":[{"internalType":"uint256","name":"tokenId","type":"uint256"}],"name":"getMessage","outputs":[{"internalType":"string","name":"","type":"string"}],"stateMutability":"view","type":"function"},{"inputs":[{"internalType":"uint256","name":"shape_key","type":"uint256"},{"internalType":"uint256","name":"shape_color","type":"uint256"},{"internalType":"uint256","name":"i","type":"uint256"}],"name":"getShapeAttributes","outputs":[{"internalType":"string","name":"","type":"string"}],"stateMutability":"view","type":"function"},{"inputs":[{"internalType":"uint256","name":"shape_key","type":"uint256"},{"internalType":"uint256","name":"shape_color","type":"uint256"},{"internalType":"uint256","name":"i","type":"uint256"}],"name":"getShapeSVG","outputs":[{"internalType":"string","name":"","type":"string"}],"stateMutability":"view","type":"function"},{"inputs":[{"internalType":"uint256","name":"_tokenId","type":"uint256"}],"name":"getTraits","outputs":[{"components":[{"internalType":"string","name":"message","type":"string"},{"internalType":"uint256","name":"bgColor","type":"uint256"},{"internalType":"uint256","name":"elementCount","type":"uint256"},{"internalType":"uint256[5]","name":"shape_keys","type":"uint256[5]"},{"internalType":"uint256[5]","name":"shape_colors","type":"uint256[5]"}],"internalType":"struct MessageOnABlockchain.Traits","name":"","type":"tuple"}],"stateMutability":"view","type":"function"},{"inputs":[{"internalType":"address","name":"owner","type":"address"},{"internalType":"address","name":"operator","type":"address"}],"name":"isApprovedForAll","outputs":[{"internalType":"bool","name":"","type":"bool"}],"stateMutability":"view","type":"function"},{"inputs":[],"name":"maxTokens","outputs":[{"internalType":"uint256","name":"","type":"uint256"}],"stateMutability":"view","type":"function"},{"inputs":[{"internalType":"string","name":"_message","type":"string"}],"name":"messageExists","outputs":[{"internalType":"bool","name":"","type":"bool"}],"stateMutability":"view","type":"function"},{"inputs":[{"internalType":"string","name":"_message","type":"string"}],"name":"mint","outputs":[],"stateMutability":"nonpayable","type":"function"},{"inputs":[],"name":"name","outputs":[{"internalType":"string","name":"","type":"string"}],"stateMutability":"view","type":"function"},{"inputs":[],"name":"owner","outputs":[{"internalType":"address","name":"","type":"address"}],"stateMutability":"view","type":"function"},{"inputs":[{"internalType":"uint256","name":"tokenId","type":"uint256"}],"name":"ownerOf","outputs":[{"internalType":"address","name":"","type":"address"}],"stateMutability":"view","type":"function"},{"inputs":[],"name":"paymentContract","outputs":[{"internalType":"contract IERC20","name":"","type":"address"}],"stateMutability":"view","type":"function"},{"inputs":[],"name":"priceInPaymentToken","outputs":[{"internalType":"uint256","name":"","type":"uint256"}],"stateMutability":"view","type":"function"},{"inputs":[],"name":"renounceOwnership","outputs":[],"stateMutability":"nonpayable","type":"function"},{"inputs":[{"internalType":"address","name":"from","type":"address"},{"internalType":"address","name":"to","type":"address"},{"internalType":"uint256","name":"tokenId","type":"uint256"}],"name":"safeTransferFrom","outputs":[],"stateMutability":"nonpayable","type":"function"},{"inputs":[{"internalType":"address","name":"from","type":"address"},{"internalType":"address","name":"to","type":"address"},{"internalType":"uint256","name":"tokenId","type":"uint256"},{"internalType":"bytes","name":"_data","type":"bytes"}],"name":"safeTransferFrom","outputs":[],"stateMutability":"nonpayable","type":"function"},{"inputs":[{"internalType":"address","name":"operator","type":"address"},{"internalType":"bool","name":"approved","type":"bool"}],"name":"setApprovalForAll","outputs":[],"stateMutability":"nonpayable","type":"function"},{"inputs":[{"internalType":"string","name":"_base64Font","type":"string"}],"name":"setBase64Font","outputs":[],"stateMutability":"nonpayable","type":"function"},{"inputs":[{"internalType":"uint256","name":"tokenId","type":"uint256"},{"internalType":"string","name":"_message","type":"string"}],"name":"setMessage","outputs":[],"stateMutability":"nonpayable","type":"function"},{"inputs":[{"internalType":"contract IERC20","name":"_paymentContract","type":"address"}],"name":"setPaymentContract","outputs":[],"stateMutability":"nonpayable","type":"function"},{"inputs":[{"internalType":"uint256","name":"_priceInPaymentToken","type":"uint256"}],"name":"setPrice","outputs":[],"stateMutability":"nonpayable","type":"function"},{"inputs":[{"internalType":"bytes4","name":"interfaceId","type":"bytes4"}],"name":"supportsInterface","outputs":[{"internalType":"bool","name":"","type":"bool"}],"stateMutability":"view","type":"function"},{"inputs":[],"name":"symbol","outputs":[{"internalType":"string","name":"","type":"string"}],"stateMutability":"view","type":"function"},{"inputs":[{"internalType":"uint256","name":"tokenId","type":"uint256"}],"name":"tokenURI","outputs":[{"internalType":"string","name":"","type":"string"}],"stateMutability":"view","type":"function"},{"inputs":[],"name":"totalSupply","outputs":[{"internalType":"uint256","name":"","type":"uint256"}],"stateMutability":"view","type":"function"},{"inputs":[{"internalType":"address","name":"from","type":"address"},{"internalType":"address","name":"to","type":"address"},{"internalType":"uint256","name":"tokenId","type":"uint256"}],"name":"transferFrom","outputs":[],"stateMutability":"nonpayable","type":"function"},{"inputs":[{"internalType":"address","name":"newOwner","type":"address"}],"name":"transferOwnership","outputs":[],"stateMutability":"nonpayable","type":"function"}],"bytecode":{"object":"608060405261032860085569021e27c1db63f9d4575b6009556a18d0bf423c03d8de000000600a55738ecfbb38544be03a56cf1666a9e1eb1629599365600b60006101000a81548173ffffffffffffffffffffffffffffffffffffffff021916908373ffffffffffffffffffffffffffffffffffffffff1602179055503480156200008957600080fd5b50604051620070a7380380620070a78339818101604052810190620000af9190620016c9565b6040518060400160405280601781526020017f4d657373616765206f6e206120426c6f636b636861696e0000000000000000008152506040518060400160405280600581526020017f4d4f41424300000000000000000000000000000000000000000000000000000081525081600090805190602001906200013392919062001602565b5080600190805190602001906200014c92919062001602565b5050506200016f620001636200153460201b60201c565b6200153c60201b60201c565b80600c60006101000a81548173ffffffffffffffffffffffffffffffffffffffff021916908373ffffffffffffffffffffffffffffffffffffffff1602179055506040518060400160405280600981526020017f49736f7363656c65730000000000000000000000000000000000000000000000815250600d600060118110620001fe57620001fd620017a8565b5b6002020160000190805190602001906200021a92919062001602565b5060405180606001604052806022815260200162006f4760229139600d6000601181106200024d576200024c620017a8565b5b6002020160010190805190602001906200026992919062001602565b506040518060400160405280600981526020017f49736f7363656c65730000000000000000000000000000000000000000000000815250600d600160118110620002b857620002b7620017a8565b5b600202016000019080519060200190620002d492919062001602565b5060405180606001604052806022815260200162006f4760229139600d600160118110620003075762000306620017a8565b5b6002020160010190805190602001906200032392919062001602565b506040518060400160405280601181526020017f49736f7363656c657320666c6970706564000000000000000000000000000000815250600d600260118110620003725762000371620017a8565b5b6002020160000190805190602001906200038e92919062001602565b506040518060400160405280602081526020017f643d224d2031373520333530204c20302030204c203335302030205a22202f3e815250600d600260118110620003dd57620003dc620017a8565b5b600202016001019080519060200190620003f992919062001602565b506040518060400160405280600e81526020017f49736f7363656c6573206c656674000000000000000000000000000000000000815250600d600360118110620004485762000447620017a8565b5b6002020160000190805190602001906200046492919062001602565b506040518060600160405280602281526020016200700560229139600d600360118110620004975762000496620017a8565b5b600202016001019080519060200190620004b392919062001602565b506040518060400160405280600f81526020017f49736f7363656c65732072696768740000000000000000000000000000000000815250600d600460118110620005025762000501620017a8565b5b6002020160000190805190602001906200051e92919062001602565b506040518060400160405280602081526020017f643d224d2033353020313735204c203020333530204c20302030205a22202f3e815250600d6004601181106200056d576200056c620017a8565b5b6002020160010190805190602001906200058992919062001602565b506040518060400160405280600481526020017f5374617200000000000000000000000000000000000000000000000000000000815250600d600560118110620005d857620005d7620017a8565b5b600202016000019080519060200190620005f492919062001602565b506040518060a001604052806066815260200162006c6160669139600d600560118110620006275762000626620017a8565b5b6002020160010190805190602001906200064392919062001602565b506040518060400160405280600b81526020017f52656374616e67756c6172000000000000000000000000000000000000000000815250600d600660118110620006925762000691620017a8565b5b600202016000019080519060200190620006ae92919062001602565b506040518060400160405280602081526020017f643d224d20302030204c2033353020333530204c203020333530205a22202f3e815250600d600660118110620006fd57620006fc620017a8565b5b6002020160010190805190602001906200071992919062001602565b506040518060400160405280600781526020017f48657861676f6e00000000000000000000000000000000000000000000000000815250600d600760118110620007685762000767620017a8565b5b6002020160000190805190602001906200078492919062001602565b506040518060600160405280603c815260200162006ed1603c9139600d600760118110620007b757620007b6620017a8565b5b600202016001019080519060200190620007d392919062001602565b506040518060400160405280600681526020017f342d537461720000000000000000000000000000000000000000000000000000815250600d600860118110620008225762000821620017a8565b5b6002020160000190805190602001906200083e92919062001602565b506040518060800160405280605481526020016200705360549139600d600860118110620008715762000870620017a8565b5b6002020160010190805190602001906200088d92919062001602565b506040518060400160405280600781526020017f4469616d6f6e6400000000000000000000000000000000000000000000000000815250600d600960118110620008dc57620008db620017a8565b5b600202016000019080519060200190620008f892919062001602565b506040518060600160405280602c815260200162007027602c9139600d6009601181106200092b576200092a620017a8565b5b6002020160010190805190602001906200094792919062001602565b506040518060400160405280601281526020017f537461697277617920746f2048656176656e0000000000000000000000000000815250600d600a60118110620009965762000995620017a8565b5b600202016000019080519060200190620009b292919062001602565b506040518060c00160405280609c815260200162006f69609c9139600d600a60118110620009e557620009e4620017a8565b5b60020201600101908051906020019062000a0192919062001602565b506040518060400160405280601081526020017f537461697277617920746f2048656c6c00000000000000000000000000000000815250600d600b6011811062000a505762000a4f620017a8565b5b60020201600001908051906020019062000a6c92919062001602565b506040518060c00160405280609c815260200162006e35609c9139600d600b6011811062000a9f5762000a9e620017a8565b5b60020201600101908051906020019062000abb92919062001602565b506040518060400160405280600581526020017f546865204c000000000000000000000000000000000000000000000000000000815250600d600c6011811062000b0a5762000b09620017a8565b5b60020201600001908051906020019062000b2692919062001602565b506040518060600160405280603a815260200162006dfb603a9139600d600c6011811062000b595762000b58620017a8565b5b60020201600101908051906020019062000b7592919062001602565b506040518060400160405280600d81526020017f546865204c20666c697070656400000000000000000000000000000000000000815250600d806011811062000bc35762000bc2620017a8565b5b60020201600001908051906020019062000bdf92919062001602565b506040518060600160405280603a815260200162006f0d603a9139600d806011811062000c115762000c10620017a8565b5b60020201600101908051906020019062000c2d92919062001602565b506040518060400160405280600b81526020017f487564646c65206c656674000000000000000000000000000000000000000000815250600d600e6011811062000c7c5762000c7b620017a8565b5b60020201600001908051906020019062000c9892919062001602565b506040518060c00160405280609a815260200162006cc7609a9139600d600e6011811062000ccb5762000cca620017a8565b5b60020201600101908051906020019062000ce792919062001602565b506040518060400160405280600a81526020017f487564646c6520746f7000000000000000000000000000000000000000000000815250600d600f6011811062000d365762000d35620017a8565b5b60020201600001908051906020019062000d5292919062001602565b506040518060c00160405280609a815260200162006d61609a9139600d600f6011811062000d855762000d84620017a8565b5b60020201600101908051906020019062000da192919062001602565b506040518060400160405280600e81526020017f52656374616e67756c6172204c54000000000000000000000000000000000000815250600d60106011811062000df05762000def620017a8565b5b60020201600001908051906020019062000e0c92919062001602565b506040518060400160405280601e81526020017f643d224d20302030204c203335302030204c203020333530205a22202f3e0000815250600d60106011811062000e5b5762000e5a620017a8565b5b60020201600101908051906020019062000e7792919062001602565b506040518060400160405280600a81526020017f417175616d6172696e6500000000000000000000000000000000000000000000815250602f60006011811062000ec65762000ec5620017a8565b5b01908051906020019062000edc92919062001602565b506040518060400160405280600a81526020017f417175616d6172696e6500000000000000000000000000000000000000000000815250602f60016011811062000f2b5762000f2a620017a8565b5b01908051906020019062000f4192919062001602565b506040518060400160405280600d81526020017f4c6176656e646572626c75736800000000000000000000000000000000000000815250602f60026011811062000f905762000f8f620017a8565b5b01908051906020019062000fa692919062001602565b506040518060400160405280600981526020017f4c6967687470696e6b0000000000000000000000000000000000000000000000815250602f60036011811062000ff55762000ff4620017a8565b5b0190805190602001906200100b92919062001602565b506040518060400160405280600981526020017f4c69676874626c75650000000000000000000000000000000000000000000000815250602f6004601181106200105a5762001059620017a8565b5b0190805190602001906200107092919062001602565b506040518060400160405280600b81526020017f4c6967687473616c6d6f6e000000000000000000000000000000000000000000815250602f600560118110620010bf57620010be620017a8565b5b019080519060200190620010d592919062001602565b506040518060400160405280601481526020017f4c69676874676f6c64656e726f6479656c6c6f77000000000000000000000000815250602f600660118110620011245762001123620017a8565b5b0190805190602001906200113a92919062001602565b506040518060400160405280600981526020017f5065616368707566660000000000000000000000000000000000000000000000815250602f600760118110620011895762001188620017a8565b5b0190805190602001906200119f92919062001602565b506040518060400160405280600a81526020017f506f77646572626c756500000000000000000000000000000000000000000000815250602f600860118110620011ee57620011ed620017a8565b5b0190805190602001906200120492919062001602565b506040518060400160405280600781526020017f54686973746c6500000000000000000000000000000000000000000000000000815250602f600960118110620012535762001252620017a8565b5b0190805190602001906200126992919062001602565b506040518060400160405280601081526020017f4d656469756d617175616d6172696e6500000000000000000000000000000000815250602f600a60118110620012b857620012b7620017a8565b5b019080519060200190620012ce92919062001602565b506040518060400160405280600e81526020017f4c69676874737465656c626c7565000000000000000000000000000000000000815250602f600b601181106200131d576200131c620017a8565b5b0190805190602001906200133392919062001602565b506040518060400160405280600a81526020017f4c69676874677265656e00000000000000000000000000000000000000000000815250602f600c60118110620013825762001381620017a8565b5b0190805190602001906200139892919062001602565b506040518060400160405280600981526020017f4d69737479726f73650000000000000000000000000000000000000000000000815250602f600d60118110620013e757620013e6620017a8565b5b019080519060200190620013fd92919062001602565b506040518060400160405280600681526020017f546f6d61746f0000000000000000000000000000000000000000000000000000815250602f600e601181106200144c576200144b620017a8565b5b0190805190602001906200146292919062001602565b506040518060400160405280600881526020017f4c6176656e646572000000000000000000000000000000000000000000000000815250602f600f60118110620014b157620014b0620017a8565b5b019080519060200190620014c792919062001602565b506040518060400160405280600e81526020017f426c616e63686564616c6d6f6e64000000000000000000000000000000000000815250602f601060118110620015165762001515620017a8565b5b0190805190602001906200152c92919062001602565b5050620017f6565b600033905090565b6000600660009054906101000a900473ffffffffffffffffffffffffffffffffffffffff16905081600660006101000a81548173ffffffffffffffffffffffffffffffffffffffff021916908373ffffffffffffffffffffffffffffffffffffffff1602179055508173ffffffffffffffffffffffffffffffffffffffff168173ffffffffffffffffffffffffffffffffffffffff167f8be0079c531659141344cd1fd0a4f28419497f9722a3daafe3b4186f6b6457e060405160405180910390a35050565b828054620016109062001743565b90600052602060002090601f01602090048101928262001634576000855562001680565b82601f106200164f57805160ff191683800117855562001680565b8280016001018555821562001680579182015b828111156200167f57825182559160200191906001019062001662565b5b5090506200168f919062001693565b5090565b5b80821115620016ae57600081600090555060010162001694565b5090565b600081519050620016c381620017dc565b92915050565b600060208284031215620016e257620016e1620017d7565b5b6000620016f284828501620016b2565b91505092915050565b6000620017088262001723565b9050919050565b60006200171c82620016fb565b9050919050565b600073ffffffffffffffffffffffffffffffffffffffff82169050919050565b600060028204905060018216806200175c57607f821691505b6020821081141562001773576200177262001779565b5b50919050565b7f4e487b7100000000000000000000000000000000000000000000000000000000600052602260045260246000fd5b7f4e487b7100000000000000000000000000000000000000000000000000000000600052603260045260246000fd5b600080fd5b620017e7816200170f565b8114620017f357600080fd5b50565b61545b80620018066000396000f3fe608060405234801561001057600080fd5b50600436106101e55760003560e01c806386f79edb1161010f578063a368de09116100a2578063e1dc076111610071578063e1dc07611461058e578063e8315742146105be578063e985e9c5146105dc578063f2fde38b1461060c576101e5565b8063a368de0914610508578063b88d4fde14610526578063c87b56dd14610542578063d85d3d2714610572576101e5565b806391b7f5ed116100de57806391b7f5ed1461049457806395d89b41146104b05780639c91dd56146104ce578063a22cb465146104ec576101e5565b806386f79edb146103fa5780638abb20cc1461042a5780638da5cb5b146104465780639166cce514610464576101e5565b806342842e0e11610187578063670134011161015657806367013401146103605780636d4579571461039057806370a08231146103c0578063715018a6146103f0576101e5565b806342842e0e146102dc578063587b3ed5146102f85780636352211e14610314578063648345c814610344576101e5565b8063081812fc116101c3578063081812fc14610256578063095ea7b31461028657806318160ddd146102a257806323b872dd146102c0576101e5565b806301ffc9a7146101ea5780630393d9641461021a57806306fdde0314610238575b600080fd5b61020460048036038101906101ff919061306f565b610628565b6040516102119190613f4d565b60405180910390f35b61022261070a565b60405161022f9190613f83565b60405180910390f35b610240610798565b60405161024d9190613f83565b60405180910390f35b610270600480360381019061026b919061318c565b61082a565b60405161027d9190613eaf565b60405180910390f35b6102a0600480360381019061029b9190613002565b6108af565b005b6102aa6109c7565b6040516102b79190614207565b60405180910390f35b6102da60048036038101906102d59190612eec565b6109d8565b005b6102f660048036038101906102f19190612eec565b610a38565b005b610312600480360381019061030d9190613143565b610a58565b005b61032e6004803603810190610329919061318c565b610aee565b60405161033b9190613eaf565b60405180910390f35b61035e600480360381019061035991906131b9565b610ba0565b005b61037a600480360381019061037591906130f6565b610c47565b6040516103879190613f4d565b60405180910390f35b6103aa60048036038101906103a59190613219565b610c7f565b6040516103b79190613f83565b60405180910390f35b6103da60048036038101906103d59190612e7f565b610cee565b6040516103e79190614207565b60405180910390f35b6103f8610da6565b005b610414600480360381019061040f919061318c565b610e2e565b6040516104219190613f83565b60405180910390f35b610444600480360381019061043f91906130c9565b610ed6565b005b61044e610f96565b60405161045b9190613eaf565b60405180910390f35b61047e60048036038101906104799190613219565b610fc0565b60405161048b9190613f83565b60405180910390f35b6104ae60048036038101906104a9919061318c565b6111a0565b005b6104b8611226565b6040516104c59190613f83565b60405180910390f35b6104d66112b8565b6040516104e39190613f68565b60405180910390f35b61050660048036038101906105019190612fc2565b6112de565b005b6105106112f4565b60405161051d9190614207565b60405180910390f35b610540600480360381019061053b9190612f3f565b6112fa565b005b61055c6004803603810190610557919061318c565b61135c565b6040516105699190613f83565b60405180910390f35b61058c600480360381019061058791906130f6565b611626565b005b6105a860048036038101906105a3919061318c565b611897565b6040516105b591906141e5565b60405180910390f35b6105c6611ad0565b6040516105d39190614207565b60405180910390f35b6105f660048036038101906105f19190612eac565b611ad6565b6040516106039190613f4d565b60405180910390f35b61062660048036038101906106219190612e7f565b611b6a565b005b60007f80ac58cd000000000000000000000000000000000000000000000000000000007bffffffffffffffffffffffffffffffffffffffffffffffffffffffff1916827bffffffffffffffffffffffffffffffffffffffffffffffffffffffff191614806106f357507f5b5e139f000000000000000000000000000000000000000000000000000000007bffffffffffffffffffffffffffffffffffffffffffffffffffffffff1916827bffffffffffffffffffffffffffffffffffffffffffffffffffffffff1916145b80610703575061070282611c62565b5b9050919050565b6040805461071790614564565b80601f016020809104026020016040519081016040528092919081815260200182805461074390614564565b80156107905780601f1061076557610100808354040283529160200191610790565b820191906000526020600020905b81548152906001019060200180831161077357829003601f168201915b505050505081565b6060600080546107a790614564565b80601f01602080910402602001604051908101604052809291908181526020018280546107d390614564565b80156108205780601f106107f557610100808354040283529160200191610820565b820191906000526020600020905b81548152906001019060200180831161080357829003601f168201915b5050505050905090565b600061083582611ccc565b610874576040517f08c379a000000000000000000000000000000000000000000000000000000000815260040161086b90614145565b60405180910390fd5b6004600083815260200190815260200160002060009054906101000a900473ffffffffffffffffffffffffffffffffffffffff169050919050565b60006108ba82610aee565b90508073ffffffffffffffffffffffffffffffffffffffff168373ffffffffffffffffffffffffffffffffffffffff16141561092b576040517f08c379a0000000000000000000000000000000000000000000000000000000008152600401610922906141a5565b60405180910390fd5b8073ffffffffffffffffffffffffffffffffffffffff1661094a611d38565b73ffffffffffffffffffffffffffffffffffffffff161480610979575061097881610973611d38565b611ad6565b5b6109b8576040517f08c379a00000000000000000000000000000000000000000000000000000000081526004016109af906140c5565b60405180910390fd5b6109c28383611d40565b505050565b60006109d36007611df9565b905090565b6109e96109e3611d38565b82611e07565b610a28576040517f08c379a0000000000000000000000000000000000000000000000000000000008152600401610a1f906141c5565b60405180910390fd5b610a33838383611ee5565b505050565b610a53838383604051806020016040528060008152506112fa565b505050565b610a60611d38565b73ffffffffffffffffffffffffffffffffffffffff16610a7e610f96565b73ffffffffffffffffffffffffffffffffffffffff1614610ad4576040517f08c379a0000000000000000000000000000000000000000000000000000000008152600401610acb90614165565b60405180910390fd5b8060409080519060200190610aea929190612b30565b5050565b6000806002600084815260200190815260200160002060009054906101000a900473ffffffffffffffffffffffffffffffffffffffff169050600073ffffffffffffffffffffffffffffffffffffffff168173ffffffffffffffffffffffffffffffffffffffff161415610b97576040517f08c379a0000000000000000000000000000000000000000000000000000000008152600401610b8e90614105565b60405180910390fd5b80915050919050565b610ba8611d38565b73ffffffffffffffffffffffffffffffffffffffff16610bc6610f96565b73ffffffffffffffffffffffffffffffffffffffff1614610c1c576040517f08c379a0000000000000000000000000000000000000000000000000000000008152600401610c1390614165565b60405180910390fd5b8181604160008681526020019081526020016000206000019190610c41929190612bb6565b50505050565b600060428383604051610c5b929190613b19565b908152602001604051809103902060009054906101000a900460ff16905092915050565b6060610c8a8261214c565b600d8560118110610c9e57610c9d6146fc565b5b60020201600001610cae8461214c565b602f8660118110610cc257610cc16146fc565b5b01604051602001610cd69493929190613d03565b60405160208183030381529060405290509392505050565b60008073ffffffffffffffffffffffffffffffffffffffff168273ffffffffffffffffffffffffffffffffffffffff161415610d5f576040517f08c379a0000000000000000000000000000000000000000000000000000000008152600401610d56906140e5565b60405180910390fd5b600360008373ffffffffffffffffffffffffffffffffffffffff1673ffffffffffffffffffffffffffffffffffffffff168152602001908152602001600020549050919050565b610dae611d38565b73ffffffffffffffffffffffffffffffffffffffff16610dcc610f96565b73ffffffffffffffffffffffffffffffffffffffff1614610e22576040517f08c379a0000000000000000000000000000000000000000000000000000000008152600401610e1990614165565b60405180910390fd5b610e2c60006122ad565b565b6060604160008381526020019081526020016000206000018054610e5190614564565b80601f0160208091040260200160405190810160405280929190818152602001828054610e7d90614564565b8015610eca5780601f10610e9f57610100808354040283529160200191610eca565b820191906000526020600020905b815481529060010190602001808311610ead57829003601f168201915b50505050509050919050565b610ede611d38565b73ffffffffffffffffffffffffffffffffffffffff16610efc610f96565b73ffffffffffffffffffffffffffffffffffffffff1614610f52576040517f08c379a0000000000000000000000000000000000000000000000000000000008152600401610f4990614165565b60405180910390fd5b80600c60006101000a81548173ffffffffffffffffffffffffffffffffffffffff021916908373ffffffffffffffffffffffffffffffffffffffff16021790555050565b6000600660009054906101000a900473ffffffffffffffffffffffffffffffffffffffff16905090565b606080606080600080879150602f8260118110610fe057610fdf6146fc565b5b018054610fec90614564565b80601f016020809104026020016040519081016040528092919081815260200182805461101890614564565b80156110655780601f1061103a57610100808354040283529160200191611065565b820191906000526020600020905b81548152906001019060200180831161104857829003601f168201915b50505050509250889050600d8160118110611083576110826146fc565b5b60020201600101805461109590614564565b80601f01602080910402602001604051908101604052809291908181526020018280546110c190614564565b801561110e5780601f106110e35761010080835404028352916020019161110e565b820191906000526020600020905b8154815290600101906020018083116110f157829003601f168201915b5050505050935061111e8761214c565b83611140600a8a61112f91906143c6565b603c61113b9190614420565b61214c565b60405160200161115293929190613da5565b60405160208183030381529060405294508461116d8861214c565b8560405160200161118093929190613bca565b604051602081830303815290604052945084955050505050509392505050565b6111a8611d38565b73ffffffffffffffffffffffffffffffffffffffff166111c6610f96565b73ffffffffffffffffffffffffffffffffffffffff161461121c576040517f08c379a000000000000000000000000000000000000000000000000000000000815260040161121390614165565b60405180910390fd5b80600a8190555050565b60606001805461123590614564565b80601f016020809104026020016040519081016040528092919081815260200182805461126190614564565b80156112ae5780601f10611283576101008083540402835291602001916112ae565b820191906000526020600020905b81548152906001019060200180831161129157829003601f168201915b5050505050905090565b600c60009054906101000a900473ffffffffffffffffffffffffffffffffffffffff1681565b6112f06112e9611d38565b8383612373565b5050565b600a5481565b61130b611305611d38565b83611e07565b61134a576040517f08c379a0000000000000000000000000000000000000000000000000000000008152600401611341906141c5565b60405180910390fd5b611356848484846124e0565b50505050565b606061136782611ccc565b6113a6576040517f08c379a000000000000000000000000000000000000000000000000000000000815260040161139d90614185565b60405180910390fd5b6113ae612c3c565b6060806113ba85611897565b9250602f8360200151601181106113d4576113d36146fc565b5b016040516020016113e59190613c79565b604051602081830303815290604052915081611404846040015161214c565b604051602001611415929190613b56565b60405160208183030381529060405291506040518060a001604052806062815260200161538460629139905080602f84602001516011811061145a576114596146fc565b5b0160405160200161146c929190613b90565b604051602081830303815290604052905060005b836060015150600581101561158f576000846060015182600581106114a8576114a76146fc565b5b6020020151111561157c57826114f5856060015183600581106114ce576114cd6146fc565b5b6020020151866080015184600581106114ea576114e96146fc565b5b602002015184610c7f565b604051602001611506929190613b32565b60405160208183030381529060405292508161155985606001518360058110611532576115316146fc565b5b60200201518660800151846005811061154e5761154d6146fc565b5b602002015184610fc0565b60405160200161156a929190613b32565b60405160208183030381529060405291505b8080611587906145c7565b915050611480565b5080604084600001516040516020016115aa93929190613c11565b604051602081830303815290604052905060006115c68661214c565b6115cf8361253c565b846040516020016115e293929190613ca6565b60405160208183030381529060405290506115fc8161253c565b60405160200161160c9190613d83565b604051602081830303815290604052945050505050919050565b61163060076126c1565b600061163c6007611df9565b9050600854811115611683576040517f08c379a000000000000000000000000000000000000000000000000000000000815260040161167a906140a5565b60405180910390fd5b61168d8383610c47565b156116cd576040517f08c379a00000000000000000000000000000000000000000000000000000000081526004016116c490614085565b60405180910390fd5b600c60009054906101000a900473ffffffffffffffffffffffffffffffffffffffff1673ffffffffffffffffffffffffffffffffffffffff166323b872dd33600b60009054906101000a900473ffffffffffffffffffffffffffffffffffffffff16600a546040518463ffffffff1660e01b815260040161175093929190613eca565b602060405180830381600087803b15801561176a57600080fd5b505af115801561177e573d6000803e3d6000fd5b505050506040513d601f19601f820116820180604052508101906117a29190613042565b5060006117ad6126d7565b905080600981905550604051806040016040528085858080601f016020809104026020016040519081016040528093929190818152602001838380828437600081840152601f19601f820116905080830192505050505050508152602001600954815250604160008481526020019081526020016000206000820151816000019080519060200190611840929190612b30565b5060208201518160010155905050600160428585604051611862929190613b19565b908152602001604051809103902060006101000a81548160ff0219169083151502179055506118913383612719565b50505050565b61189f612c3c565b6000806000806000806000806118b3612c3c565b604160008c8152602001908152602001600020600101549850601194506011935083896118e0919061463e565b816020018181525050604160008c8152602001908152602001600020600001805461190a90614564565b80601f016020809104026020016040519081016040528092919081815260200182805461193690614564565b80156119835780601f1061195857610100808354040283529160200191611983565b820191906000526020600020905b81548152906001019060200180831161196657829003601f168201915b50505050508160000181905250600060068a61199f919061463e565b9050600281106119af57806119b2565b60025b905080826040018181525050898c8284602001516040516020016119d99493929190613e61565b6040516020818303038152906040528051906020012060001c985060005b81811015611abd57808a611a0b919061433f565b8b1898508260200151828a611a209190614420565b611a2a919061433f565b97508689611a38919061463e565b94508588611a46919061463e565b935060008511611a57576001611a59565b845b83606001518260058110611a7057611a6f6146fc565b5b60200201818152505060008411611a88576001611a8a565b835b83608001518260058110611aa157611aa06146fc565b5b6020020181815250508080611ab5906145c7565b9150506119f7565b50819a5050505050505050505050919050565b60085481565b6000600560008473ffffffffffffffffffffffffffffffffffffffff1673ffffffffffffffffffffffffffffffffffffffff16815260200190815260200160002060008373ffffffffffffffffffffffffffffffffffffffff1673ffffffffffffffffffffffffffffffffffffffff16815260200190815260200160002060009054906101000a900460ff16905092915050565b611b72611d38565b73ffffffffffffffffffffffffffffffffffffffff16611b90610f96565b73ffffffffffffffffffffffffffffffffffffffff1614611be6576040517f08c379a0000000000000000000000000000000000000000000000000000000008152600401611bdd90614165565b60405180910390fd5b600073ffffffffffffffffffffffffffffffffffffffff168173ffffffffffffffffffffffffffffffffffffffff161415611c56576040517f08c379a0000000000000000000000000000000000000000000000000000000008152600401611c4d90613fc5565b60405180910390fd5b611c5f816122ad565b50565b60007f01ffc9a7000000000000000000000000000000000000000000000000000000007bffffffffffffffffffffffffffffffffffffffffffffffffffffffff1916827bffffffffffffffffffffffffffffffffffffffffffffffffffffffff1916149050919050565b60008073ffffffffffffffffffffffffffffffffffffffff166002600084815260200190815260200160002060009054906101000a900473ffffffffffffffffffffffffffffffffffffffff1673ffffffffffffffffffffffffffffffffffffffff1614159050919050565b600033905090565b816004600083815260200190815260200160002060006101000a81548173ffffffffffffffffffffffffffffffffffffffff021916908373ffffffffffffffffffffffffffffffffffffffff160217905550808273ffffffffffffffffffffffffffffffffffffffff16611db383610aee565b73ffffffffffffffffffffffffffffffffffffffff167f8c5be1e5ebec7d5bd14f71427d1e84f3dd0314c0f7b2291e5b200ac8c7c3b92560405160405180910390a45050565b600081600001549050919050565b6000611e1282611ccc565b611e51576040517f08c379a0000000000000000000000000000000000000000000000000000000008152600401611e4890614065565b60405180910390fd5b6000611e5c83610aee565b90508073ffffffffffffffffffffffffffffffffffffffff168473ffffffffffffffffffffffffffffffffffffffff161480611ecb57508373ffffffffffffffffffffffffffffffffffffffff16611eb38461082a565b73ffffffffffffffffffffffffffffffffffffffff16145b80611edc5750611edb8185611ad6565b5b91505092915050565b8273ffffffffffffffffffffffffffffffffffffffff16611f0582610aee565b73ffffffffffffffffffffffffffffffffffffffff1614611f5b576040517f08c379a0000000000000000000000000000000000000000000000000000000008152600401611f5290613fe5565b60405180910390fd5b600073ffffffffffffffffffffffffffffffffffffffff168273ffffffffffffffffffffffffffffffffffffffff161415611fcb576040517f08c379a0000000000000000000000000000000000000000000000000000000008152600401611fc290614025565b60405180910390fd5b611fd6838383612737565b611fe1600082611d40565b6001600360008573ffffffffffffffffffffffffffffffffffffffff1673ffffffffffffffffffffffffffffffffffffffff16815260200190815260200160002060008282546120319190614420565b925050819055506001600360008473ffffffffffffffffffffffffffffffffffffffff1673ffffffffffffffffffffffffffffffffffffffff1681526020019081526020016000206000828254612088919061433f565b92505081905550816002600083815260200190815260200160002060006101000a81548173ffffffffffffffffffffffffffffffffffffffff021916908373ffffffffffffffffffffffffffffffffffffffff160217905550808273ffffffffffffffffffffffffffffffffffffffff168473ffffffffffffffffffffffffffffffffffffffff167fddf252ad1be2c89b69c2b068fc378daa952ba7f163c4a11628f55a4df523b3ef60405160405180910390a461214783838361273c565b505050565b60606000821415612194576040518060400160405280600181526020017f300000000000000000000000000000000000000000000000000000000000000081525090506122a8565b600082905060005b600082146121c65780806121af906145c7565b915050600a826121bf9190614395565b915061219c565b60008167ffffffffffffffff8111156121e2576121e161472b565b5b6040519080825280601f01601f1916602001820160405280156122145781602001600182028036833780820191505090505b5090505b600085146122a15760018261222d9190614420565b9150600a8561223c919061463e565b6030612248919061433f565b60f81b81838151811061225e5761225d6146fc565b5b60200101907effffffffffffffffffffffffffffffffffffffffffffffffffffffffffffff1916908160001a905350600a8561229a9190614395565b9450612218565b8093505050505b919050565b6000600660009054906101000a900473ffffffffffffffffffffffffffffffffffffffff16905081600660006101000a81548173ffffffffffffffffffffffffffffffffffffffff021916908373ffffffffffffffffffffffffffffffffffffffff1602179055508173ffffffffffffffffffffffffffffffffffffffff168173ffffffffffffffffffffffffffffffffffffffff167f8be0079c531659141344cd1fd0a4f28419497f9722a3daafe3b4186f6b6457e060405160405180910390a35050565b8173ffffffffffffffffffffffffffffffffffffffff168373ffffffffffffffffffffffffffffffffffffffff1614156123e2576040517f08c379a00000000000000000000000000000000000000000000000000000000081526004016123d990614045565b60405180910390fd5b80600560008573ffffffffffffffffffffffffffffffffffffffff1673ffffffffffffffffffffffffffffffffffffffff16815260200190815260200160002060008473ffffffffffffffffffffffffffffffffffffffff1673ffffffffffffffffffffffffffffffffffffffff16815260200190815260200160002060006101000a81548160ff0219169083151502179055508173ffffffffffffffffffffffffffffffffffffffff168373ffffffffffffffffffffffffffffffffffffffff167f17307eab39ab6107e8899845ad3d59bd9653f200f220920489ca2b5937696c31836040516124d39190613f4d565b60405180910390a3505050565b6124eb848484611ee5565b6124f784848484612741565b612536576040517f08c379a000000000000000000000000000000000000000000000000000000000815260040161252d90613fa5565b60405180910390fd5b50505050565b606060008251141561255f576040518060200160405280600081525090506126bc565b60006040518060600160405280604081526020016153e6604091399050600060036002855161258e919061433f565b6125989190614395565b60046125a491906143c6565b905060006020826125b5919061433f565b67ffffffffffffffff8111156125ce576125cd61472b565b5b6040519080825280601f01601f1916602001820160405280156126005781602001600182028036833780820191505090505b509050818152600183018586518101602084015b8183101561267b576003830192508251603f8160121c1685015160f81b8252600182019150603f81600c1c1685015160f81b8252600182019150603f8160061c1685015160f81b8252600182019150603f811685015160f81b825260018201915050612614565b60038951066001811461269557600281146126a5576126b0565b613d3d60f01b60028303526126b0565b603d60f81b60018303525b50505050508093505050505b919050565b6001816000016000828254019250508190555050565b60004460095442336126e76109c7565b6040516020016126fb959493929190613e02565b6040516020818303038152906040528051906020012060001c905090565b6127338282604051806020016040528060008152506128d8565b5050565b505050565b505050565b60006127628473ffffffffffffffffffffffffffffffffffffffff16612933565b156128cb578373ffffffffffffffffffffffffffffffffffffffff1663150b7a0261278b611d38565b8786866040518563ffffffff1660e01b81526004016127ad9493929190613f01565b602060405180830381600087803b1580156127c757600080fd5b505af19250505080156127f857506040513d601f19601f820116820180604052508101906127f5919061309c565b60015b61287b573d8060008114612828576040519150601f19603f3d011682016040523d82523d6000602084013e61282d565b606091505b50600081511415612873576040517f08c379a000000000000000000000000000000000000000000000000000000000815260040161286a90613fa5565b60405180910390fd5b805181602001fd5b63150b7a0260e01b7bffffffffffffffffffffffffffffffffffffffffffffffffffffffff1916817bffffffffffffffffffffffffffffffffffffffffffffffffffffffff1916149150506128d0565b600190505b949350505050565b6128e28383612956565b6128ef6000848484612741565b61292e576040517f08c379a000000000000000000000000000000000000000000000000000000000815260040161292590613fa5565b60405180910390fd5b505050565b6000808273ffffffffffffffffffffffffffffffffffffffff163b119050919050565b600073ffffffffffffffffffffffffffffffffffffffff168273ffffffffffffffffffffffffffffffffffffffff1614156129c6576040517f08c379a00000000000000000000000000000000000000000000000000000000081526004016129bd90614125565b60405180910390fd5b6129cf81611ccc565b15612a0f576040517f08c379a0000000000000000000000000000000000000000000000000000000008152600401612a0690614005565b60405180910390fd5b612a1b60008383612737565b6001600360008473ffffffffffffffffffffffffffffffffffffffff1673ffffffffffffffffffffffffffffffffffffffff1681526020019081526020016000206000828254612a6b919061433f565b92505081905550816002600083815260200190815260200160002060006101000a81548173ffffffffffffffffffffffffffffffffffffffff021916908373ffffffffffffffffffffffffffffffffffffffff160217905550808273ffffffffffffffffffffffffffffffffffffffff16600073ffffffffffffffffffffffffffffffffffffffff167fddf252ad1be2c89b69c2b068fc378daa952ba7f163c4a11628f55a4df523b3ef60405160405180910390a4612b2c6000838361273c565b5050565b828054612b3c90614564565b90600052602060002090601f016020900481019282612b5e5760008555612ba5565b82601f10612b7757805160ff1916838001178555612ba5565b82800160010185558215612ba5579182015b82811115612ba4578251825591602001919060010190612b89565b5b509050612bb29190612c77565b5090565b828054612bc290614564565b90600052602060002090601f016020900481019282612be45760008555612c2b565b82601f10612bfd57803560ff1916838001178555612c2b565b82800160010185558215612c2b579182015b82811115612c2a578235825591602001919060010190612c0f565b5b509050612c389190612c77565b5090565b6040518060a00160405280606081526020016000815260200160008152602001612c64612c94565b8152602001612c71612c94565b81525090565b5b80821115612c90576000816000905550600101612c78565b5090565b6040518060a00160405280600590602082028036833780820191505090505090565b6000612cc9612cc484614247565b614222565b905082815260208101848484011115612ce557612ce4614769565b5b612cf0848285614522565b509392505050565b6000612d0b612d0684614278565b614222565b905082815260208101848484011115612d2757612d26614769565b5b612d32848285614522565b509392505050565b600081359050612d4981615310565b92915050565b600081359050612d5e81615327565b92915050565b600081519050612d7381615327565b92915050565b600081359050612d888161533e565b92915050565b600081519050612d9d8161533e565b92915050565b600082601f830112612db857612db761475f565b5b8135612dc8848260208601612cb6565b91505092915050565b600081359050612de081615355565b92915050565b60008083601f840112612dfc57612dfb61475f565b5b8235905067ffffffffffffffff811115612e1957612e1861475a565b5b602083019150836001820283011115612e3557612e34614764565b5b9250929050565b600082601f830112612e5157612e5061475f565b5b8135612e61848260208601612cf8565b91505092915050565b600081359050612e798161536c565b92915050565b600060208284031215612e9557612e94614773565b5b6000612ea384828501612d3a565b91505092915050565b60008060408385031215612ec357612ec2614773565b5b6000612ed185828601612d3a565b9250506020612ee285828601612d3a565b9150509250929050565b600080600060608486031215612f0557612f04614773565b5b6000612f1386828701612d3a565b9350506020612f2486828701612d3a565b9250506040612f3586828701612e6a565b9150509250925092565b60008060008060808587031215612f5957612f58614773565b5b6000612f6787828801612d3a565b9450506020612f7887828801612d3a565b9350506040612f8987828801612e6a565b925050606085013567ffffffffffffffff811115612faa57612fa961476e565b5b612fb687828801612da3565b91505092959194509250565b60008060408385031215612fd957612fd8614773565b5b6000612fe785828601612d3a565b9250506020612ff885828601612d4f565b9150509250929050565b6000806040838503121561301957613018614773565b5b600061302785828601612d3a565b925050602061303885828601612e6a565b9150509250929050565b60006020828403121561305857613057614773565b5b600061306684828501612d64565b91505092915050565b60006020828403121561308557613084614773565b5b600061309384828501612d79565b91505092915050565b6000602082840312156130b2576130b1614773565b5b60006130c084828501612d8e565b91505092915050565b6000602082840312156130df576130de614773565b5b60006130ed84828501612dd1565b91505092915050565b6000806020838503121561310d5761310c614773565b5b600083013567ffffffffffffffff81111561312b5761312a61476e565b5b61313785828601612de6565b92509250509250929050565b60006020828403121561315957613158614773565b5b600082013567ffffffffffffffff8111156131775761317661476e565b5b61318384828501612e3c565b91505092915050565b6000602082840312156131a2576131a1614773565b5b60006131b084828501612e6a565b91505092915050565b6000806000604084860312156131d2576131d1614773565b5b60006131e086828701612e6a565b935050602084013567ffffffffffffffff8111156132015761320061476e565b5b61320d86828701612de6565b92509250509250925092565b60008060006060848603121561323257613231614773565b5b600061324086828701612e6a565b935050602061325186828701612e6a565b925050604061326286828701612e6a565b9150509250925092565b60006132788383613ae4565b60208301905092915050565b61328d816144da565b82525050565b61329c81614454565b82525050565b6132b36132ae82614454565b614610565b82525050565b6132c2816142c8565b6132cc81846142f6565b92506132d7826142a9565b8060005b838110156133085781516132ef878261326c565b96506132fa836142e9565b9250506001810190506132db565b505050505050565b61331981614466565b82525050565b600061332a826142d3565b6133348185614301565b9350613344818560208601614531565b61334d81614778565b840191505092915050565b613361816144ec565b82525050565b60006133738385614334565b9350613380838584614522565b82840190509392505050565b6000613397826142de565b6133a18185614312565b93506133b1818560208601614531565b6133ba81614778565b840191505092915050565b60006133d0826142de565b6133da8185614323565b93506133ea818560208601614531565b6133f381614778565b840191505092915050565b6000613409826142de565b6134138185614334565b9350613423818560208601614531565b80840191505092915050565b6000815461343c81614564565b6134468186614334565b945060018216600081146134615760018114613472576134a5565b60ff198316865281860193506134a5565b61347b856142b3565b60005b8381101561349d5781548189015260018201915060208101905061347e565b838801955050505b50505092915050565b60006134bb602883614334565b91506134c682614796565b602882019050919050565b60006134de603283614323565b91506134e9826147e5565b604082019050919050565b6000613501601183614334565b915061350c82614834565b601182019050919050565b6000613524602683614323565b915061352f8261485d565b604082019050919050565b6000613547602583614323565b9150613552826148ac565b604082019050919050565b600061356a601c83614323565b9150613575826148fb565b602082019050919050565b600061358d602083614334565b915061359882614924565b602082019050919050565b60006135b0600983614334565b91506135bb8261494d565b600982019050919050565b60006135d3602483614323565b91506135de82614976565b604082019050919050565b60006135f6601983614323565b9150613601826149c5565b602082019050919050565b6000613619600283614334565b9150613624826149ee565b600282019050919050565b600061363c602c83614323565b915061364782614a17565b604082019050919050565b600061365f601683614323565b915061366a82614a66565b602082019050919050565b6000613682600c83614334565b915061368d82614a8f565b600c82019050919050565b60006136a5602483614334565b91506136b082614ab8565b602482019050919050565b60006136c8601183614334565b91506136d382614b07565b601182019050919050565b60006136eb600a83614323565b91506136f682614b30565b602082019050919050565b600061370e603883614323565b915061371982614b59565b604082019050919050565b6000613731601883614334565b915061373c82614ba8565b601882019050919050565b6000613754602a83614323565b915061375f82614bd1565b604082019050919050565b6000613777602983614323565b915061378282614c20565b604082019050919050565b600061379a601183614334565b91506137a582614c6f565b601182019050919050565b60006137bd600283614334565b91506137c882614c98565b600282019050919050565b60006137e0601283614334565b91506137eb82614cc1565b601282019050919050565b6000613803602083614323565b915061380e82614cea565b602082019050919050565b6000613826602c83614323565b915061383182614d13565b604082019050919050565b6000613849602083614323565b915061385482614d62565b602082019050919050565b600061386c602b83614334565b915061387782614d8b565b602b82019050919050565b600061388f607083614334565b915061389a82614dda565b607082019050919050565b60006138b2602f83614323565b91506138bd82614e75565b604082019050919050565b60006138d5600b83614334565b91506138e082614ec4565b600b82019050919050565b60006138f8600283614334565b915061390382614eed565b600282019050919050565b600061391b600b83614334565b915061392682614f16565b600b82019050919050565b600061393e60a983614334565b915061394982614f3f565b60a982019050919050565b6000613961602183614323565b915061396c82615026565b604082019050919050565b6000613984601d83614334565b915061398f82615075565b601d82019050919050565b60006139a7603183614323565b91506139b28261509e565b604082019050919050565b60006139ca60ae83614334565b91506139d5826150ed565b60ae82019050919050565b60006139ed609083614334565b91506139f8826151d4565b609082019050919050565b6000613a10600e83614334565b9150613a1b82615295565b600e82019050919050565b6000613a33600983614334565b9150613a3e826152be565b600982019050919050565b6000613a56600783614334565b9150613a61826152e7565b600782019050919050565b60006101a0830160008301518482036000860152613a8a828261338c565b9150506020830151613a9f6020860182613ae4565b506040830151613ab26040860182613ae4565b506060830151613ac560608601826132b9565b506080830151613ad96101008601826132b9565b508091505092915050565b613aed816144d0565b82525050565b613afc816144d0565b82525050565b613b13613b0e826144d0565b614634565b82525050565b6000613b26828486613367565b91508190509392505050565b6000613b3e82856133fe565b9150613b4a82846133fe565b91508190509392505050565b6000613b6282856133fe565b9150613b6d826134ae565b9150613b7982846133fe565b9150613b84826137b0565b91508190509392505050565b6000613b9c82856133fe565b9150613ba7826137d3565b9150613bb3828461342f565b9150613bbe8261385f565b91508190509392505050565b6000613bd682866133fe565b9150613be182613a03565b9150613bed82856133fe565b9150613bf88261360c565b9150613c0482846133fe565b9150819050949350505050565b6000613c1d82866133fe565b9150613c2882613a49565b9150613c34828561342f565b9150613c3f82613882565b9150613c4a826139e0565b9150613c55826139bd565b9150613c6182846133fe565b9150613c6c82613580565b9150819050949350505050565b6000613c8482613698565b9150613c90828461342f565b9150613c9b826137b0565b915081905092915050565b6000613cb1826136bb565b9150613cbd82866133fe565b9150613cc882613931565b9150613cd482856133fe565b9150613cdf826134f4565b9150613ceb82846133fe565b9150613cf6826138eb565b9150819050949350505050565b6000613d0e82613724565b9150613d1a82876133fe565b9150613d25826138c8565b9150613d31828661342f565b9150613d3c826137b0565b9150613d4782613724565b9150613d5382856133fe565b9150613d5e8261378d565b9150613d6a828461342f565b9150613d75826137b0565b915081905095945050505050565b6000613d8e82613977565b9150613d9a82846133fe565b915081905092915050565b6000613db082613a26565b9150613dbc82866133fe565b9150613dc7826135a3565b9150613dd382856133fe565b9150613dde82613675565b9150613dea82846133fe565b9150613df58261390e565b9150819050949350505050565b6000613e0e8288613b02565b602082019150613e1e8287613b02565b602082019150613e2e8286613b02565b602082019150613e3e82856132a2565b601482019150613e4e8284613b02565b6020820191508190509695505050505050565b6000613e6d8287613b02565b602082019150613e7d8286613b02565b602082019150613e8d8285613b02565b602082019150613e9d8284613b02565b60208201915081905095945050505050565b6000602082019050613ec46000830184613293565b92915050565b6000606082019050613edf6000830186613293565b613eec6020830185613284565b613ef96040830184613af3565b949350505050565b6000608082019050613f166000830187613293565b613f236020830186613293565b613f306040830185613af3565b8181036060830152613f42818461331f565b905095945050505050565b6000602082019050613f626000830184613310565b92915050565b6000602082019050613f7d6000830184613358565b92915050565b60006020820190508181036000830152613f9d81846133c5565b905092915050565b60006020820190508181036000830152613fbe816134d1565b9050919050565b60006020820190508181036000830152613fde81613517565b9050919050565b60006020820190508181036000830152613ffe8161353a565b9050919050565b6000602082019050818103600083015261401e8161355d565b9050919050565b6000602082019050818103600083015261403e816135c6565b9050919050565b6000602082019050818103600083015261405e816135e9565b9050919050565b6000602082019050818103600083015261407e8161362f565b9050919050565b6000602082019050818103600083015261409e81613652565b9050919050565b600060208201905081810360008301526140be816136de565b9050919050565b600060208201905081810360008301526140de81613701565b9050919050565b600060208201905081810360008301526140fe81613747565b9050919050565b6000602082019050818103600083015261411e8161376a565b9050919050565b6000602082019050818103600083015261413e816137f6565b9050919050565b6000602082019050818103600083015261415e81613819565b9050919050565b6000602082019050818103600083015261417e8161383c565b9050919050565b6000602082019050818103600083015261419e816138a5565b9050919050565b600060208201905081810360008301526141be81613954565b9050919050565b600060208201905081810360008301526141de8161399a565b9050919050565b600060208201905081810360008301526141ff8184613a6c565b905092915050565b600060208201905061421c6000830184613af3565b92915050565b600061422c61423d565b90506142388282614596565b919050565b6000604051905090565b600067ffffffffffffffff8211156142625761426161472b565b5b61426b82614778565b9050602081019050919050565b600067ffffffffffffffff8211156142935761429261472b565b5b61429c82614778565b9050602081019050919050565b6000819050919050565b60008190508160005260206000209050919050565b600060059050919050565b600081519050919050565b600081519050919050565b6000602082019050919050565b600081905092915050565b600082825260208201905092915050565b600082825260208201905092915050565b600082825260208201905092915050565b600081905092915050565b600061434a826144d0565b9150614355836144d0565b9250827fffffffffffffffffffffffffffffffffffffffffffffffffffffffffffffffff0382111561438a5761438961466f565b5b828201905092915050565b60006143a0826144d0565b91506143ab836144d0565b9250826143bb576143ba61469e565b5b828204905092915050565b60006143d1826144d0565b91506143dc836144d0565b9250817fffffffffffffffffffffffffffffffffffffffffffffffffffffffffffffffff04831182151516156144155761441461466f565b5b828202905092915050565b600061442b826144d0565b9150614436836144d0565b9250828210156144495761444861466f565b5b828203905092915050565b600061445f826144b0565b9050919050565b60008115159050919050565b60007fffffffff0000000000000000000000000000000000000000000000000000000082169050919050565b60006144a982614454565b9050919050565b600073ffffffffffffffffffffffffffffffffffffffff82169050919050565b6000819050919050565b60006144e5826144fe565b9050919050565b60006144f7826144fe565b9050919050565b600061450982614510565b9050919050565b600061451b826144b0565b9050919050565b82818337600083830152505050565b60005b8381101561454f578082015181840152602081019050614534565b8381111561455e576000848401525b50505050565b6000600282049050600182168061457c57607f821691505b602082108114156145905761458f6146cd565b5b50919050565b61459f82614778565b810181811067ffffffffffffffff821117156145be576145bd61472b565b5b80604052505050565b60006145d2826144d0565b91507fffffffffffffffffffffffffffffffffffffffffffffffffffffffffffffffff8214156146055761460461466f565b5b600182019050919050565b600061461b82614622565b9050919050565b600061462d82614789565b9050919050565b6000819050919050565b6000614649826144d0565b9150614654836144d0565b9250826146645761466361469e565b5b828206905092915050565b7f4e487b7100000000000000000000000000000000000000000000000000000000600052601160045260246000fd5b7f4e487b7100000000000000000000000000000000000000000000000000000000600052601260045260246000fd5b7f4e487b7100000000000000000000000000000000000000000000000000000000600052602260045260246000fd5b7f4e487b7100000000000000000000000000000000000000000000000000000000600052603260045260246000fd5b7f4e487b7100000000000000000000000000000000000000000000000000000000600052604160045260246000fd5b600080fd5b600080fd5b600080fd5b600080fd5b600080fd5b600080fd5b6000601f19601f8301169050919050565b60008160601b9050919050565b7f2c7b2274726169745f74797065223a22456c656d656e7420636f756e74222c2260008201527f76616c7565223a22000000000000000000000000000000000000000000000000602082015250565b7f4552433732313a207472616e7366657220746f206e6f6e20455243373231526560008201527f63656976657220696d706c656d656e7465720000000000000000000000000000602082015250565b7f222c202261747472696275746573223a5b000000000000000000000000000000600082015250565b7f4f776e61626c653a206e6577206f776e657220697320746865207a65726f206160008201527f6464726573730000000000000000000000000000000000000000000000000000602082015250565b7f4552433732313a207472616e736665722066726f6d20696e636f72726563742060008201527f6f776e6572000000000000000000000000000000000000000000000000000000602082015250565b7f4552433732313a20746f6b656e20616c7265616479206d696e74656400000000600082015250565b7f3c2f703e3c2f6469763e3c2f666f726569676e4f626a6563743e3c2f7376673e600082015250565b7f207b2066696c6c3a200000000000000000000000000000000000000000000000600082015250565b7f4552433732313a207472616e7366657220746f20746865207a65726f2061646460008201527f7265737300000000000000000000000000000000000000000000000000000000602082015250565b7f4552433732313a20617070726f766520746f2063616c6c657200000000000000600082015250565b7f2220000000000000000000000000000000000000000000000000000000000000600082015250565b7f4552433732313a206f70657261746f7220717565727920666f72206e6f6e657860008201527f697374656e7420746f6b656e0000000000000000000000000000000000000000602082015250565b7f4d65737361676520616c72656164792065786973747300000000000000000000600082015250565b7f3b206f7061636974793a302e0000000000000000000000000000000000000000600082015250565b7f7b2274726169745f74797065223a224261636b67726f756e64222c2276616c7560008201527f65223a2200000000000000000000000000000000000000000000000000000000602082015250565b7f7b226e616d65223a20224d4f4142432023000000000000000000000000000000600082015250565b7f4d6178204d696e74656400000000000000000000000000000000000000000000600082015250565b7f4552433732313a20617070726f76652063616c6c6572206973206e6f74206f7760008201527f6e6572206e6f7220617070726f76656420666f7220616c6c0000000000000000602082015250565b7f2c7b2274726169745f74797065223a22456c656d656e74200000000000000000600082015250565b7f4552433732313a2062616c616e636520717565727920666f7220746865207a6560008201527f726f206164647265737300000000000000000000000000000000000000000000602082015250565b7f4552433732313a206f776e657220717565727920666f72206e6f6e657869737460008201527f656e7420746f6b656e0000000000000000000000000000000000000000000000602082015250565b7f20436f6c6f72222c2276616c7565223a22000000000000000000000000000000600082015250565b7f227d000000000000000000000000000000000000000000000000000000000000600082015250565b7f3c72656374207374796c653d2266696c6c3a0000000000000000000000000000600082015250565b7f4552433732313a206d696e7420746f20746865207a65726f2061646472657373600082015250565b7f4552433732313a20617070726f76656420717565727920666f72206e6f6e657860008201527f697374656e7420746f6b656e0000000000000000000000000000000000000000602082015250565b7f4f776e61626c653a2063616c6c6572206973206e6f7420746865206f776e6572600082015250565b7f222077696474683d223130302522206865696768743d22313030252220783d2260008201527f302220793d223022202f3e000000000000000000000000000000000000000000602082015250565b7f3c2f7374796c653e3c666f726569676e4f626a656374202077696474683d223160008201527f30302522206865696768743d223335302220783d22302220793d22302220726560208201527f717569726564457874656e73696f6e733d22687474703a2f2f7777772e77332e60408201527f6f72672f313939392f7868746d6c223e00000000000000000000000000000000606082015250565b7f4552433732314d657461646174613a2055524920717565727920666f72206e6f60008201527f6e6578697374656e7420746f6b656e0000000000000000000000000000000000602082015250565b7f222c2276616c7565223a22000000000000000000000000000000000000000000600082015250565b7f5d7d000000000000000000000000000000000000000000000000000000000000600082015250565b7f3b207d3c2f7374796c653e000000000000000000000000000000000000000000600082015250565b7f222c20226465736372697074696f6e223a2022596f7572206d6573736167652c60008201527f20313030252067656e65726174656420616e642073746f726564206f6e20746860208201527f6520457468657265756d20626c6f636b636861696e2e204e6f20495046532c2060408201527f6e6f2063656e7472616c697a656420646174612073746f72616765206f72204160608201527f50492e222c22696d616765223a2022646174613a696d6167652f7376672b786d60808201527f6c3b6261736536342c000000000000000000000000000000000000000000000060a082015250565b7f4552433732313a20617070726f76616c20746f2063757272656e74206f776e6560008201527f7200000000000000000000000000000000000000000000000000000000000000602082015250565b7f646174613a6170706c69636174696f6e2f6a736f6e3b6261736536342c000000600082015250565b7f4552433732313a207472616e736665722063616c6c6572206973206e6f74206f60008201527f776e6572206e6f7220617070726f766564000000000000000000000000000000602082015250565b7f3c702069643d227072657669657722207374796c653d2270616464696e673a2060008201527f3070783b20636f6c6f723a2077686974653b20746578742d616c69676e3a206360208201527f656e7465723b20636f6c6f723a2077686974653b20666f6e742d66616d696c7960408201527f3a2063616e64616c726567756c61722c2073616e732d73657269663b20666f6e60608201527f742d73697a653a343070783b202d7765626b69742d746578742d7374726f6b6560808201527f3a2032707820626c61636b3b223e00000000000000000000000000000000000060a082015250565b7f3c64697620786d6c6e733d22687474703a2f2f7777772e77332e6f72672f313960008201527f39392f7868746d6c22207374796c653d22646973706c61793a20666c65783b2060208201527f616c69676e2d6974656d733a2063656e7465723b20706f736974696f6e3a726560408201527f6c61746976653b206a7573746966792d636f6e74656e743a2063656e7465723b60608201527f206865696768743a20313030253b223e00000000000000000000000000000000608082015250565b7f3c7061746820636c6173733d2265000000000000000000000000000000000000600082015250565b7f3c7374796c653e2e650000000000000000000000000000000000000000000000600082015250565b7f3c7374796c653e00000000000000000000000000000000000000000000000000600082015250565b61531981614454565b811461532457600080fd5b50565b61533081614466565b811461533b57600080fd5b50565b61534781614472565b811461535257600080fd5b50565b61535e8161449e565b811461536957600080fd5b50565b615375816144d0565b811461538057600080fd5b5056fe3c73766720786d6c6e733d22687474703a2f2f7777772e77332e6f72672f323030302f73766722207072657365727665417370656374526164696f3d22784d696e594d696e206d656574222076696577426f783d223020302033353020333530223e4142434445464748494a4b4c4d4e4f505152535455565758595a6162636465666768696a6b6c6d6e6f707172737475767778797a303132333435363738392b2fa264697066735822122009145877f83db26df42580228489f3abb1efb120464814641c57f7a65f45c0e564736f6c63430008070033643d224d203137352030204c2032333020313230204c2033353020313335204c2032353520323138204c2033303020333530204c2031373520323835204c20353020333530204c20393520323138204c203020313335204c2031323020313230205a22202f3e643d224d203020333530204c20353020333530204c20353020333030204c2031303020333030204c2031303020323530204c2031353020323530204c2031353020323030204c2032303020323030204c2032303020313530204c2031353020313530204c2031353020313030204c2031303020313030204c20313030203530204c203530203530204c2035302030204c20302030205a22202f3e643d224d203335302030204c20333530203530204c20333030203530204c2033303020313030204c2032353020313030204c2032353020313530204c2032303020313530204c2032303020323030204c2031353020323030204c2031353020313530204c2031303020313530204c2031303020313030204c20353020313030204c203530203530204c2030203530204c20302030205a22202f3e643d224d20302030204c2038372030204c20383720323633204c2033353020323633204c2033353020333530204c203020333530205a22202f3e643d224d203020333530204c20353020333530204c20353020333030204c2031303020333030204c2031303020323530204c2031353020323530204c2031353020323030204c2032303020323030204c2032303020313530204c2032353020313530204c2032353020313030204c2033303020313030204c20333030203530204c20333530203530204c203335302030204c20302030205a22202f3e643d224d203020313735204c2039302030204c203236302030204c2033353020313735204c2032363020333530204c20393020333530205a22202f3e643d224d203335302030204c2033353020333530204c2032363320333530204c20323633203837204c2030203837204c20302030205a22202f3e643d224d203137352030204c2033353020333530204c203020333530205a22202f3e643d224d203020333530204c203020333030204c20353020333030204c20353020323530204c2031303020323530204c2031303020323030204c2031353020323030204c2031353020313530204c2032303020313530204c2032303020313030204c2032353020313030204c20323530203530204c20333030203530204c203330302030204c203335302030204c2033353020333530205a22202f3e643d224d203020313735204c203335302030204c2033353020333530205a22202f3e643d224d203137352030204c2033353020313735204c2031373520333530204c203020313735205a22202f3e643d224d203137352030204c2032333020313330204c2033353020313735204c2032333020323230204c2031373520333530204c2031323020323230204c203020313735204c2031323020313330205a22202f3e"}}