{
  "opcodeHash": "0xf8718307e08000cacb569d6a1f575b218636215b29d06e0e64f313edac492afa",
  "metalessHash": "0x5f4d15ed5d44a60ae8cb11a2f92b3d4c178e3236c7e178f90c4d8c2a08439d74",
  "runtimeHash": "0x157ba45e023da73ec78f7606ce0dcc2e1d4969d03808f27765f2b7bacea3bebe",
  "encodedMetadata": [
    {
      "ipfs": "/ipfs/QmNiYvLL1gG66NiUeqVfWD3errTJMN1aezFSwsWfzAvA1Y",
      "solc": "0.7.1"
    }
  ],
  "abi": [
    {
      "inputs": [],
      "stateMutability": "nonpayable",
      "type": "constructor"
    },
    {
      "anonymous": false,
      "inputs": [
        {
          "indexed": true,
          "internalType": "address",
          "name": "staker",
          "type": "address"
        },
        {
          "indexed": false,
          "internalType": "uint256",
          "name": "amount",
          "type": "uint256"
        }
      ],
      "name": "NewStake",
      "type": "event"
    },
    {
      "anonymous": false,
      "inputs": [
        {
          "indexed": true,
          "internalType": "address",
          "name": "previousOwner",
          "type": "address"
        },
        {
          "indexed": true,
          "internalType": "address",
          "name": "newOwner",
          "type": "address"
        }
      ],
      "name": "OwnershipTransferred",
      "type": "event"
    },
    {
      "anonymous": false,
      "inputs": [
        {
          "indexed": true,
          "internalType": "address",
          "name": "staker",
          "type": "address"
        },
        {
          "indexed": false,
          "internalType": "uint256",
          "name": "amount",
          "type": "uint256"
        }
      ],
      "name": "Unstake",
      "type": "event"
    },
    {
      "anonymous": false,
      "inputs": [
        {
          "indexed": true,
          "internalType": "address",
          "name": "staker",
          "type": "address"
        },
        {
          "indexed": false,
          "internalType": "uint256",
          "name": "amount",
          "type": "uint256"
        }
      ],
      "name": "Withdrawal",
      "type": "event"
    },
    {
      "inputs": [],
      "name": "ANTIFIAT",
      "outputs": [
        {
          "internalType": "contract IERC20",
          "name": "",
          "type": "address"
        }
      ],
      "stateMutability": "view",
      "type": "function"
    },
    {
      "inputs": [
        {
          "internalType": "address",
          "name": "_stake",
          "type": "address"
        }
      ],
      "name": "ROI",
      "outputs": [
        {
          "internalType": "uint256",
          "name": "",
          "type": "uint256"
        }
      ],
      "stateMutability": "view",
      "type": "function"
    },
    {
      "inputs": [
        {
          "internalType": "address",
          "name": "_stake",
          "type": "address"
        }
      ],
      "name": "createdDate",
      "outputs": [
        {
          "internalType": "uint256",
          "name": "",
          "type": "uint256"
        }
      ],
      "stateMutability": "view",
      "type": "function"
    },
    {
      "inputs": [
        {
          "internalType": "uint256",
          "name": "_amount",
          "type": "uint256"
        }
      ],
      "name": "estimateRoi",
      "outputs": [
        {
          "internalType": "uint256",
          "name": "",
          "type": "uint256"
        }
      ],
      "stateMutability": "view",
      "type": "function"
    },
    {
      "inputs": [],
      "name": "maximum",
      "outputs": [
        {
          "internalType": "uint256",
          "name": "",
          "type": "uint256"
        }
      ],
      "stateMutability": "view",
      "type": "function"
    },
    {
      "inputs": [],
      "name": "minimum",
      "outputs": [
        {
          "internalType": "uint256",
          "name": "",
          "type": "uint256"
        }
      ],
      "stateMutability": "view",
      "type": "function"
    },
    {
      "inputs": [
        {
          "internalType": "uint256",
          "name": "_amount",
          "type": "uint256"
        }
      ],
      "name": "newStake",
      "outputs": [],
      "stateMutability": "nonpayable",
      "type": "function"
    },
    {
      "inputs": [],
      "name": "owner",
      "outputs": [
        {
          "internalType": "address",
          "name": "",
          "type": "address"
        }
      ],
      "stateMutability": "view",
      "type": "function"
    },
    {
      "inputs": [
        {
          "internalType": "uint256",
          "name": "_amount",
          "type": "uint256"
        }
      ],
      "name": "ownerDeposit",
      "outputs": [],
      "stateMutability": "nonpayable",
      "type": "function"
    },
    {
      "inputs": [
        {
          "internalType": "uint256",
          "name": "_amount",
          "type": "uint256"
        }
      ],
      "name": "ownerWithraw",
      "outputs": [],
      "stateMutability": "nonpayable",
      "type": "function"
    },
    {
      "inputs": [],
      "name": "pool",
      "outputs": [
        {
          "internalType": "uint256",
          "name": "",
          "type": "uint256"
        }
      ],
      "stateMutability": "view",
      "type": "function"
    },
    {
      "inputs": [
        {
          "internalType": "uint256",
          "name": "_amount",
          "type": "uint256"
        }
      ],
      "name": "poolFilled",
      "outputs": [
        {
          "internalType": "bool",
          "name": "",
          "type": "bool"
        }
      ],
      "stateMutability": "view",
      "type": "function"
    },
    {
      "inputs": [
        {
          "internalType": "address",
          "name": "_stake",
          "type": "address"
        }
      ],
      "name": "stakeExists",
      "outputs": [
        {
          "internalType": "bool",
          "name": "",
          "type": "bool"
        }
      ],
      "stateMutability": "view",
      "type": "function"
    },
    {
      "inputs": [
        {
          "internalType": "address",
          "name": "_stake",
          "type": "address"
        }
      ],
      "name": "stakedAmount",
      "outputs": [
        {
          "internalType": "uint256",
          "name": "",
          "type": "uint256"
        }
      ],
      "stateMutability": "view",
      "type": "function"
    },
    {
      "inputs": [],
      "name": "totalPaid",
      "outputs": [
        {
          "internalType": "uint256",
          "name": "",
          "type": "uint256"
        }
      ],
      "stateMutability": "view",
      "type": "function"
    },
    {
      "inputs": [],
      "name": "totalStaked",
      "outputs": [
        {
          "internalType": "uint256",
          "name": "",
          "type": "uint256"
        }
      ],
      "stateMutability": "view",
      "type": "function"
    },
    {
      "inputs": [],
      "name": "totalStakers",
      "outputs": [
        {
          "internalType": "uint256",
          "name": "",
          "type": "uint256"
        }
      ],
      "stateMutability": "view",
      "type": "function"
    },
    {
      "inputs": [
        {
          "internalType": "address",
          "name": "newOwner",
          "type": "address"
        }
      ],
      "name": "transferOwnership",
      "outputs": [],
      "stateMutability": "nonpayable",
      "type": "function"
    },
    {
      "inputs": [],
      "name": "unstake",
      "outputs": [],
      "stateMutability": "nonpayable",
      "type": "function"
    },
    {
      "inputs": [],
      "name": "withdrawReward",
      "outputs": [],
      "stateMutability": "nonpayable",
      "type": "function"
    },
    {
      "inputs": [],
      "name": "withdrawable",
      "outputs": [
        {
          "internalType": "uint256",
          "name": "",
          "type": "uint256"
        }
      ],
      "stateMutability": "view",
      "type": "function"
    },
    {
      "inputs": [
        {
          "internalType": "address",
          "name": "_stake",
          "type": "address"
        }
      ],
      "name": "withdrawn",
      "outputs": [
        {
          "internalType": "uint256",
          "name": "",
          "type": "uint256"
        }
      ],
      "stateMutability": "view",
      "type": "function"
    }
  ],
  "bytecode": {
    "object": "608060405260fa6009556014600a556064600b556001600c5562015180600d556301e14320600e55620000446014600d546200014260201b620012531790919060201c565b600f553480156200005457600080fd5b50600062000061620001a9565b600080546001600160a01b0319166001600160a01b0383169081178255604051929350917f8be0079c531659141344cd1fd0a4f28419497f9722a3daafe3b4186f6b6457e0908290a350620000ca620f4240600c546200014260201b620012531790919060201c565b6002819055600855600c54620000ee90603262000142602090811b6200125317901c565b6003819055506200011362030d40600c546200014260201b620012531790919060201c565b600455600180546001600160a01b031916738b890a64ce44aa09bc7159f3dd894a089cbd742a179055620001ad565b6000826200015357506000620001a3565b828202828482816200016157fe5b0414620001a05760405162461bcd60e51b8152600401808060200182810382526021815260200180620017486021913960400191505060405180910390fd5b90505b92915050565b3390565b61158b80620001bd6000396000f3fe608060405234801561001057600080fd5b50600436106101425760003560e01c8063817b1cd2116100b8578063c885bc581161007c578063c885bc58146102d7578063d3b6949d146102df578063e7b0f666146102e7578063f2fde38b146102ef578063f993185514610315578063fb64884e1461033b57610142565b8063817b1cd21461026057806386989038146102685780638da5cb5b14610270578063b13b69ba14610294578063b5af2701146102ba57610142565b8063501883011161010a57806350188301146101d457806352342f13146101dc57806352d6804d146101e4578063555f4ec7146101ec5780636ef610921461021d578063736ffea11461024357610142565b806313677f9414610147578063141833dc1461017f57806316f0115b1461019e5780631ec932ff146101a65780632def6620146101cc575b600080fd5b61016d6004803603602081101561015d57600080fd5b50356001600160a01b0316610358565b60408051918252519081900360200190f35b61019c6004803603602081101561019557600080fd5b50356103c3565b005b61016d610539565b61016d600480360360208110156101bc57600080fd5b50356001600160a01b031661053f565b61019c61055d565b61016d610871565b61016d610877565b61016d61087d565b6102096004803603602081101561020257600080fd5b5035610883565b604080519115158252519081900360200190f35b61016d6004803603602081101561023357600080fd5b50356001600160a01b03166108a4565b61016d6004803603602081101561025957600080fd5b50356108c2565b61016d6108e5565b61016d6108eb565b6102786108f1565b604080516001600160a01b039092168252519081900360200190f35b610209600480360360208110156102aa57600080fd5b50356001600160a01b0316610900565b61019c600480360360208110156102d057600080fd5b503561091e565b61019c610bc7565b610278610dd8565b61016d610de7565b61019c6004803603602081101561030557600080fd5b50356001600160a01b0316610ded565b61016d6004803603602081101561032b57600080fd5b50356001600160a01b0316610ef7565b61019c6004803603602081101561035157600080fd5b5035610f15565b60006103626114e4565b506001600160a01b0382166000908152601060209081526040918290208251608081018452815460ff161515815260018201549281019290925260028101549282019290925260039091015460608201526103bc816112ac565b9392505050565b6103cb611306565b6000546001600160a01b0390811691161461042d576040805162461bcd60e51b815260206004820181905260248201527f4f776e61626c653a2063616c6c6572206973206e6f7420746865206f776e6572604482015290519081900360640190fd5b6001546001600160a01b03166323b872dd610446611306565b30846040518463ffffffff1660e01b815260040180846001600160a01b03168152602001836001600160a01b031681526020018281526020019350505050602060405180830381600087803b15801561049e57600080fd5b505af11580156104b2573d6000803e3d6000fd5b505050506040513d60208110156104c857600080fd5b5051610516576040805162461bcd60e51b815260206004820152601860248201527721b7bab632103737ba103a3930b739b332b9103a37b5b2b760411b604482015290519081900360640190fd5b600254610523908261130a565b600255600854610533908261130a565b60085550565b60025481565b6001600160a01b031660009081526010602052604090206001015490565b61056d610568611306565b610900565b6105b6576040805162461bcd60e51b815260206004820152601560248201527453656e646572206973206e6f74207374616b696e6760581b604482015290519081900360640190fd5b6105be6114e4565b601060006105ca611306565b6001600160a01b03168152602080820192909252604090810160009081208251608081018452815460ff161515815260018201549481018590526002820154938101849052600390910154606082015293509091610629904290611364565b90506000610636846112ac565b9050600061064d82610647866108c2565b90611364565b9050600061066886606001518461136490919063ffffffff16565b9050600f548410156106b3576000610697600b54610691600a548961125390919063ffffffff16565b906113a6565b90506106a38682611364565b95506106af838261130a565b9250505b6008546106c0908361130a565b60085560006106cf868361130a565b6007549091506106df908361130a565b6007556001546001600160a01b031663a9059cbb6106fb611306565b836040518363ffffffff1660e01b815260040180836001600160a01b0316815260200182815260200192505050602060405180830381600087803b15801561074257600080fd5b505af1158015610756573d6000803e3d6000fd5b505050506040513d602081101561076c57600080fd5b50516107ba576040805162461bcd60e51b815260206004820152601860248201527721b7bab632103737ba103a3930b739b332b9103a37b5b2b760411b604482015290519081900360640190fd5b6006546107c8906001611364565b60065560408701516005546107dc91611364565b600555601060006107eb611306565b6001600160a01b0316815260208101919091526040016000908120805460ff19168155600181018290556002810182905560030155610828611306565b6001600160a01b03167f85082129d87b2fe11527cb1b3b7a520aeb5aa6913f88a3d8757fe40d1db02fdd826040518082815260200191505060405180910390a250505050505050565b60085481565b60045481565b60035481565b600060025461089d8360055461130a90919063ffffffff16565b1192915050565b6001600160a01b031660009081526010602052604090206003015490565b60006108df600b546106916009548561125390919063ffffffff16565b92915050565b60055481565b60065481565b6000546001600160a01b031690565b6001600160a01b031660009081526010602052604090205460ff1690565b610926611306565b6000546001600160a01b03908116911614610988576040805162461bcd60e51b815260206004820181905260248201527f4f776e61626c653a2063616c6c6572206973206e6f7420746865206f776e6572604482015290519081900360640190fd5b6008548111156109d4576040805162461bcd60e51b81526020600482015260126024820152714e6f7420656e6f7567682062616c616e636560701b604482015290519081900360640190fd5b600154604080516370a0823160e01b8152306004820152905183926001600160a01b0316916370a08231916024808301926020929190829003018186803b158015610a1e57600080fd5b505afa158015610a32573d6000803e3d6000fd5b505050506040513d6020811015610a4857600080fd5b50511015610a9d576040805162461bcd60e51b815260206004820152601b60248201527f42616c616e6365206973206c657373207468616e20616d6f756e740000000000604482015290519081900360640190fd5b6001546001600160a01b031663a9059cbb610ab66108f1565b836040518363ffffffff1660e01b815260040180836001600160a01b0316815260200182815260200192505050602060405180830381600087803b158015610afd57600080fd5b505af1158015610b11573d6000803e3d6000fd5b505050506040513d6020811015610b2757600080fd5b5051610b72576040805162461bcd60e51b8152602060048201526015602482015274151bdad95b881d1c985b9cd9995c8819985a5b1959605a1b604482015290519081900360640190fd5b610b7a6108f1565b6001600160a01b03167f7fcf532c15f0a6db0bd6d0e038bea71d30d808c7d98cb3bf7268a95bf5081b65826040518082815260200191505060405180910390a26008546105339082611364565b610bd2610568611306565b610c1b576040805162461bcd60e51b815260206004820152601560248201527453656e646572206973206e6f74207374616b696e6760581b604482015290519081900360640190fd5b600060106000610c29611306565b6001600160a01b031681526020808201929092526040908101600090812060038101548351608081018552825460ff161515815260018301549581019590955260028201549385019390935260608401839052935091610c8d9190610647906112ac565b600754909150610c9d908261130a565b6007556003820154610caf908261130a565b60038301556001546001600160a01b031663a9059cbb610ccd611306565b836040518363ffffffff1660e01b815260040180836001600160a01b0316815260200182815260200192505050602060405180830381600087803b158015610d1457600080fd5b505af1158015610d28573d6000803e3d6000fd5b505050506040513d6020811015610d3e57600080fd5b5051610d8c576040805162461bcd60e51b815260206004820152601860248201527721b7bab632103737ba103a3930b739b332b9103a37b5b2b760411b604482015290519081900360640190fd5b610d94611306565b6001600160a01b03167f7fcf532c15f0a6db0bd6d0e038bea71d30d808c7d98cb3bf7268a95bf5081b65826040518082815260200191505060405180910390a25050565b6001546001600160a01b031681565b60075481565b610df5611306565b6000546001600160a01b03908116911614610e57576040805162461bcd60e51b815260206004820181905260248201527f4f776e61626c653a2063616c6c6572206973206e6f7420746865206f776e6572604482015290519081900360640190fd5b6001600160a01b038116610e9c5760405162461bcd60e51b815260040180806020018281038252602681526020018061150f6026913960400191505060405180910390fd5b600080546040516001600160a01b03808516939216917f8be0079c531659141344cd1fd0a4f28419497f9722a3daafe3b4186f6b6457e091a3600080546001600160a01b0319166001600160a01b0392909216919091179055565b6001600160a01b031660009081526010602052604090206002015490565b610f20610568611306565b15610f72576040805162461bcd60e51b815260206004820152601960248201527f53656e64657220697320616c7265616479207374616b696e6700000000000000604482015290519081900360640190fd5b610f7b81610883565b15610fc3576040805162461bcd60e51b815260206004820152601360248201527214dd185ada5b99c81c1bdbdb08199a5b1b1959606a1b604482015290519081900360640190fd5b60035481101561101a576040805162461bcd60e51b815260206004820152601c60248201527f416d6f756e74206973206c6f776572207468616e206d696e696d756d00000000604482015290519081900360640190fd5b600454811115611071576040805162461bcd60e51b815260206004820152601d60248201527f416d6f756e7420697320686967686572207468616e206d6178696d756d000000604482015290519081900360640190fd5b6001546001600160a01b03166323b872dd61108a611306565b30846040518463ffffffff1660e01b815260040180846001600160a01b03168152602001836001600160a01b031681526020018281526020019350505050602060405180830381600087803b1580156110e257600080fd5b505af11580156110f6573d6000803e3d6000fd5b505050506040513d602081101561110c57600080fd5b505161115a576040805162461bcd60e51b815260206004820152601860248201527721b7bab632103737ba103a3930b739b332b9103a37b5b2b760411b604482015290519081900360640190fd5b600554611167908261130a565b60055560065461117890600161130a565b60065560408051608081018252600181524260208201529081018290526000606082018190526010906111a9611306565b6001600160a01b0316815260208082019290925260409081016000208351815460ff191690151517815591830151600183015582015160028201556060909101516003909101556112056111fc826108c2565b60085490611364565b600855611210611306565b6001600160a01b03167f42e99fbad9601d25ee3bb515eeee966f97c3c383adadbe5720f651df8c18989d826040518082815260200191505060405180910390a250565b600082611262575060006108df565b8282028284828161126f57fe5b04146103bc5760405162461bcd60e51b81526004018080602001828103825260218152602001806115356021913960400191505060405180910390fd5b6000806112c683602001514261136490919063ffffffff16565b9050600e548111156112d75750600e545b6103bc600b54610691600e5461069185611300896040015160095461125390919063ffffffff16565b90611253565b3390565b6000828201838110156103bc576040805162461bcd60e51b815260206004820152601b60248201527f536166654d6174683a206164646974696f6e206f766572666c6f770000000000604482015290519081900360640190fd5b60006103bc83836040518060400160405280601e81526020017f536166654d6174683a207375627472616374696f6e206f766572666c6f7700008152506113e8565b60006103bc83836040518060400160405280601a81526020017f536166654d6174683a206469766973696f6e206279207a65726f00000000000081525061147f565b600081848411156114775760405162461bcd60e51b81526004018080602001828103825283818151815260200191508051906020019080838360005b8381101561143c578181015183820152602001611424565b50505050905090810190601f1680156114695780820380516001836020036101000a031916815260200191505b509250505060405180910390fd5b505050900390565b600081836114ce5760405162461bcd60e51b815260206004820181815283516024840152835190928392604490910191908501908083836000831561143c578181015183820152602001611424565b5060008385816114da57fe5b0495945050505050565b6040518060800160405280600015158152602001600081526020016000815260200160008152509056fe4f776e61626c653a206e6577206f776e657220697320746865207a65726f2061646472657373536166654d6174683a206d756c7469706c69636174696f6e206f766572666c6f77a264697066735822122036e0492f4d58d82660e0bee33b2d86a6c3157b43f4183e021f373b27c293221b64736f6c63430007010033536166654d6174683a206d756c7469706c69636174696f6e206f766572666c6f77"
  }
}