{
  "opcodeHash": "0x6d1a1e8e5641d2cbc70c7c7a791ff6dd4a919bcf0e694f9436dbd5fb5534cfc2",
  "metalessHash": "0x5cf28087771fcd492354e253601bfc625bf73ea4adc2925ab46aaf161b86b8e7",
  "runtimeHash": "0xb857df6e60c3dd1063b709bb506266e2d69298f7fbd4466a1a7a0828d216f336",
  "encodedMetadata": [
    {
      "ipfs": "/ipfs/Qme4yVBkYwRcqDdz1moisjpyBBtWkZPhBXDp77i7dCtt2t",
      "solc": "0.6.12"
    }
  ],
  "abi": [
    {
      "inputs": [],
      "stateMutability": "nonpayable",
      "type": "constructor"
    },
    {
      "anonymous": false,
      "inputs": [
        {
          "indexed": true,
          "internalType": "address",
          "name": "owner",
          "type": "address"
        },
        {
          "indexed": true,
          "internalType": "address",
          "name": "spender",
          "type": "address"
        },
        {
          "indexed": false,
          "internalType": "uint256",
          "name": "value",
          "type": "uint256"
        }
      ],
      "name": "Approval",
      "type": "event"
    },
    {
      "anonymous": false,
      "inputs": [
        {
          "indexed": false,
          "internalType": "uint256",
          "name": "minTokensBeforeSwap",
          "type": "uint256"
        }
      ],
      "name": "MinTokensBeforeSwapUpdated",
      "type": "event"
    },
    {
      "anonymous": false,
      "inputs": [
        {
          "indexed": true,
          "internalType": "address",
          "name": "previousOwner",
          "type": "address"
        },
        {
          "indexed": true,
          "internalType": "address",
          "name": "newOwner",
          "type": "address"
        }
      ],
      "name": "OwnershipTransferred",
      "type": "event"
    },
    {
      "anonymous": false,
      "inputs": [
        {
          "indexed": false,
          "internalType": "uint256",
          "name": "tokensSwapped",
          "type": "uint256"
        },
        {
          "indexed": false,
          "internalType": "uint256",
          "name": "ethReceived",
          "type": "uint256"
        },
        {
          "indexed": false,
          "internalType": "uint256",
          "name": "tokensIntoLiqudity",
          "type": "uint256"
        }
      ],
      "name": "SwapAndLiquify",
      "type": "event"
    },
    {
      "anonymous": false,
      "inputs": [
        {
          "indexed": false,
          "internalType": "bool",
          "name": "enabled",
          "type": "bool"
        }
      ],
      "name": "SwapAndLiquifyEnabledUpdated",
      "type": "event"
    },
    {
      "anonymous": false,
      "inputs": [
        {
          "indexed": true,
          "internalType": "address",
          "name": "from",
          "type": "address"
        },
        {
          "indexed": true,
          "internalType": "address",
          "name": "to",
          "type": "address"
        },
        {
          "indexed": false,
          "internalType": "uint256",
          "name": "value",
          "type": "uint256"
        }
      ],
      "name": "Transfer",
      "type": "event"
    },
    {
      "anonymous": false,
      "inputs": [
        {
          "indexed": false,
          "internalType": "address",
          "name": "user",
          "type": "address"
        },
        {
          "indexed": false,
          "internalType": "bool",
          "name": "banned",
          "type": "bool"
        }
      ],
      "name": "WalletBanStatusUpdated",
      "type": "event"
    },
    {
      "inputs": [],
      "name": "_liquidityFee",
      "outputs": [
        {
          "internalType": "uint256",
          "name": "",
          "type": "uint256"
        }
      ],
      "stateMutability": "view",
      "type": "function"
    },
    {
      "inputs": [],
      "name": "_maxTxAmount",
      "outputs": [
        {
          "internalType": "uint256",
          "name": "",
          "type": "uint256"
        }
      ],
      "stateMutability": "view",
      "type": "function"
    },
    {
      "inputs": [],
      "name": "_taxFee",
      "outputs": [
        {
          "internalType": "uint256",
          "name": "",
          "type": "uint256"
        }
      ],
      "stateMutability": "view",
      "type": "function"
    },
    {
      "inputs": [
        {
          "internalType": "address",
          "name": "owner",
          "type": "address"
        },
        {
          "internalType": "address",
          "name": "spender",
          "type": "address"
        }
      ],
      "name": "allowance",
      "outputs": [
        {
          "internalType": "uint256",
          "name": "",
          "type": "uint256"
        }
      ],
      "stateMutability": "view",
      "type": "function"
    },
    {
      "inputs": [
        {
          "internalType": "address",
          "name": "spender",
          "type": "address"
        },
        {
          "internalType": "uint256",
          "name": "amount",
          "type": "uint256"
        }
      ],
      "name": "approve",
      "outputs": [
        {
          "internalType": "bool",
          "name": "",
          "type": "bool"
        }
      ],
      "stateMutability": "nonpayable",
      "type": "function"
    },
    {
      "inputs": [
        {
          "internalType": "address",
          "name": "account",
          "type": "address"
        }
      ],
      "name": "balanceOf",
      "outputs": [
        {
          "internalType": "uint256",
          "name": "",
          "type": "uint256"
        }
      ],
      "stateMutability": "view",
      "type": "function"
    },
    {
      "inputs": [
        {
          "internalType": "address",
          "name": "",
          "type": "address"
        }
      ],
      "name": "bannedUsers",
      "outputs": [
        {
          "internalType": "bool",
          "name": "",
          "type": "bool"
        }
      ],
      "stateMutability": "view",
      "type": "function"
    },
    {
      "inputs": [],
      "name": "decimals",
      "outputs": [
        {
          "internalType": "uint8",
          "name": "",
          "type": "uint8"
        }
      ],
      "stateMutability": "view",
      "type": "function"
    },
    {
      "inputs": [
        {
          "internalType": "address",
          "name": "spender",
          "type": "address"
        },
        {
          "internalType": "uint256",
          "name": "subtractedValue",
          "type": "uint256"
        }
      ],
      "name": "decreaseAllowance",
      "outputs": [
        {
          "internalType": "bool",
          "name": "",
          "type": "bool"
        }
      ],
      "stateMutability": "nonpayable",
      "type": "function"
    },
    {
      "inputs": [
        {
          "internalType": "uint256",
          "name": "tAmount",
          "type": "uint256"
        }
      ],
      "name": "deliver",
      "outputs": [],
      "stateMutability": "nonpayable",
      "type": "function"
    },
    {
      "inputs": [
        {
          "internalType": "address",
          "name": "account",
          "type": "address"
        }
      ],
      "name": "excludeFromFee",
      "outputs": [],
      "stateMutability": "nonpayable",
      "type": "function"
    },
    {
      "inputs": [
        {
          "internalType": "address",
          "name": "account",
          "type": "address"
        }
      ],
      "name": "excludeFromReward",
      "outputs": [],
      "stateMutability": "nonpayable",
      "type": "function"
    },
    {
      "inputs": [],
      "name": "geUnlockTime",
      "outputs": [
        {
          "internalType": "uint256",
          "name": "",
          "type": "uint256"
        }
      ],
      "stateMutability": "view",
      "type": "function"
    },
    {
      "inputs": [
        {
          "internalType": "address",
          "name": "account",
          "type": "address"
        }
      ],
      "name": "includeInFee",
      "outputs": [],
      "stateMutability": "nonpayable",
      "type": "function"
    },
    {
      "inputs": [
        {
          "internalType": "address",
          "name": "account",
          "type": "address"
        }
      ],
      "name": "includeInReward",
      "outputs": [],
      "stateMutability": "nonpayable",
      "type": "function"
    },
    {
      "inputs": [
        {
          "internalType": "address",
          "name": "spender",
          "type": "address"
        },
        {
          "internalType": "uint256",
          "name": "addedValue",
          "type": "uint256"
        }
      ],
      "name": "increaseAllowance",
      "outputs": [
        {
          "internalType": "bool",
          "name": "",
          "type": "bool"
        }
      ],
      "stateMutability": "nonpayable",
      "type": "function"
    },
    {
      "inputs": [
        {
          "internalType": "address",
          "name": "account",
          "type": "address"
        }
      ],
      "name": "isExcludedFromFee",
      "outputs": [
        {
          "internalType": "bool",
          "name": "",
          "type": "bool"
        }
      ],
      "stateMutability": "view",
      "type": "function"
    },
    {
      "inputs": [
        {
          "internalType": "address",
          "name": "account",
          "type": "address"
        }
      ],
      "name": "isExcludedFromReward",
      "outputs": [
        {
          "internalType": "bool",
          "name": "",
          "type": "bool"
        }
      ],
      "stateMutability": "view",
      "type": "function"
    },
    {
      "inputs": [],
      "name": "name",
      "outputs": [
        {
          "internalType": "string",
          "name": "",
          "type": "string"
        }
      ],
      "stateMutability": "view",
      "type": "function"
    },
    {
      "inputs": [],
      "name": "owner",
      "outputs": [
        {
          "internalType": "address",
          "name": "",
          "type": "address"
        }
      ],
      "stateMutability": "view",
      "type": "function"
    },
    {
      "inputs": [
        {
          "internalType": "uint256",
          "name": "tAmount",
          "type": "uint256"
        },
        {
          "internalType": "bool",
          "name": "deductTransferFee",
          "type": "bool"
        }
      ],
      "name": "reflectionFromToken",
      "outputs": [
        {
          "internalType": "uint256",
          "name": "",
          "type": "uint256"
        }
      ],
      "stateMutability": "view",
      "type": "function"
    },
    {
      "inputs": [],
      "name": "renounceOwnership",
      "outputs": [],
      "stateMutability": "nonpayable",
      "type": "function"
    },
    {
      "inputs": [],
      "name": "rescueETHFromContract",
      "outputs": [],
      "stateMutability": "nonpayable",
      "type": "function"
    },
    {
      "inputs": [
        {
          "internalType": "uint256",
          "name": "liquidityFee",
          "type": "uint256"
        }
      ],
      "name": "setLiquidityFeePercent",
      "outputs": [],
      "stateMutability": "nonpayable",
      "type": "function"
    },
    {
      "inputs": [
        {
          "internalType": "uint256",
          "name": "maxTxPercent",
          "type": "uint256"
        }
      ],
      "name": "setMaxTxPercent",
      "outputs": [],
      "stateMutability": "nonpayable",
      "type": "function"
    },
    {
      "inputs": [
        {
          "internalType": "bool",
          "name": "_enabled",
          "type": "bool"
        }
      ],
      "name": "setSwapAndLiquifyEnabled",
      "outputs": [],
      "stateMutability": "nonpayable",
      "type": "function"
    },
    {
      "inputs": [
        {
          "internalType": "uint256",
          "name": "taxFee",
          "type": "uint256"
        }
      ],
      "name": "setTaxFeePercent",
      "outputs": [],
      "stateMutability": "nonpayable",
      "type": "function"
    },
    {
      "inputs": [
        {
          "internalType": "address",
          "name": "user",
          "type": "address"
        },
        {
          "internalType": "bool",
          "name": "banned",
          "type": "bool"
        }
      ],
      "name": "setWalletBanStatus",
      "outputs": [],
      "stateMutability": "nonpayable",
      "type": "function"
    },
    {
      "inputs": [],
      "name": "swapAndLiquifyEnabled",
      "outputs": [
        {
          "internalType": "bool",
          "name": "",
          "type": "bool"
        }
      ],
      "stateMutability": "view",
      "type": "function"
    },
    {
      "inputs": [],
      "name": "symbol",
      "outputs": [
        {
          "internalType": "string",
          "name": "",
          "type": "string"
        }
      ],
      "stateMutability": "view",
      "type": "function"
    },
    {
      "inputs": [
        {
          "internalType": "uint256",
          "name": "rAmount",
          "type": "uint256"
        }
      ],
      "name": "tokenFromReflection",
      "outputs": [
        {
          "internalType": "uint256",
          "name": "",
          "type": "uint256"
        }
      ],
      "stateMutability": "view",
      "type": "function"
    },
    {
      "inputs": [],
      "name": "totalFees",
      "outputs": [
        {
          "internalType": "uint256",
          "name": "",
          "type": "uint256"
        }
      ],
      "stateMutability": "view",
      "type": "function"
    },
    {
      "inputs": [],
      "name": "totalSupply",
      "outputs": [
        {
          "internalType": "uint256",
          "name": "",
          "type": "uint256"
        }
      ],
      "stateMutability": "view",
      "type": "function"
    },
    {
      "inputs": [
        {
          "internalType": "address",
          "name": "recipient",
          "type": "address"
        },
        {
          "internalType": "uint256",
          "name": "amount",
          "type": "uint256"
        }
      ],
      "name": "transfer",
      "outputs": [
        {
          "internalType": "bool",
          "name": "",
          "type": "bool"
        }
      ],
      "stateMutability": "nonpayable",
      "type": "function"
    },
    {
      "inputs": [
        {
          "internalType": "address",
          "name": "_tokenAddr",
          "type": "address"
        },
        {
          "internalType": "address",
          "name": "_to",
          "type": "address"
        },
        {
          "internalType": "uint256",
          "name": "_amount",
          "type": "uint256"
        }
      ],
      "name": "transferAnyERC20Tokens",
      "outputs": [],
      "stateMutability": "nonpayable",
      "type": "function"
    },
    {
      "inputs": [
        {
          "internalType": "address",
          "name": "sender",
          "type": "address"
        },
        {
          "internalType": "address",
          "name": "recipient",
          "type": "address"
        },
        {
          "internalType": "uint256",
          "name": "amount",
          "type": "uint256"
        }
      ],
      "name": "transferFrom",
      "outputs": [
        {
          "internalType": "bool",
          "name": "",
          "type": "bool"
        }
      ],
      "stateMutability": "nonpayable",
      "type": "function"
    },
    {
      "inputs": [
        {
          "internalType": "address",
          "name": "newOwner",
          "type": "address"
        }
      ],
      "name": "transferOwnership",
      "outputs": [],
      "stateMutability": "nonpayable",
      "type": "function"
    },
    {
      "inputs": [],
      "name": "uniswapV2Pair",
      "outputs": [
        {
          "internalType": "address",
          "name": "",
          "type": "address"
        }
      ],
      "stateMutability": "view",
      "type": "function"
    },
    {
      "inputs": [],
      "name": "uniswapV2Router",
      "outputs": [
        {
          "internalType": "contract IUniswapV2Router02",
          "name": "",
          "type": "address"
        }
      ],
      "stateMutability": "view",
      "type": "function"
    },
    {
      "inputs": [
        {
          "internalType": "uint256",
          "name": "amount",
          "type": "uint256"
        }
      ],
      "name": "updateNumTokensSellToAddToLiquidity",
      "outputs": [],
      "stateMutability": "nonpayable",
      "type": "function"
    },
    {
      "stateMutability": "payable",
      "type": "receive"
    }
  ],
  "bytecode": {
    "object": "69d3c21bcecceda1000000600a5569085afffa6ff50bffffff19600b55610100604052600960c081905268506f6c6b61446f676560b81b60e09081526200004a91600d9190620003b3565b506040805180820190915260058082526450444f474560d81b60209092019182526200007991600e91620003b3565b50600f805460ff191660091790556064601081905560115561012c60128190556013556014805461ff001916905568056bc75e2d631000006015556843c33c193756480000601655348015620000ce57600080fd5b506000620000db620003a0565b600080546001600160a01b0319166001600160a01b0383169081178255604051929350917f8be0079c531659141344cd1fd0a4f28419497f9722a3daafe3b4186f6b6457e0908290a350600b546003600062000136620003a0565b6001600160a01b03166001600160a01b03168152602001908152602001600020819055506000737a250d5630b4cf539739df2c5dacb4c659f2488d9050806001600160a01b031663c45a01556040518163ffffffff1660e01b815260040160206040518083038186803b158015620001ad57600080fd5b505afa158015620001c2573d6000803e3d6000fd5b505050506040513d6020811015620001d957600080fd5b5051604080516315ab88c960e31b815290516001600160a01b039283169263c9c653969230929186169163ad5c464891600480820192602092909190829003018186803b1580156200022a57600080fd5b505afa1580156200023f573d6000803e3d6000fd5b505050506040513d60208110156200025657600080fd5b5051604080516001600160e01b031960e086901b1681526001600160a01b0393841660048201529290911660248301525160448083019260209291908290030181600087803b158015620002a957600080fd5b505af1158015620002be573d6000803e3d6000fd5b505050506040513d6020811015620002d557600080fd5b50516001600160601b0319606091821b811660a0529082901b1660805260016006600062000302620003a4565b6001600160a01b0316815260208082019290925260409081016000908120805494151560ff1995861617905530815260069092529020805490911660011790556200034c620003a0565b6001600160a01b031660006001600160a01b03167fddf252ad1be2c89b69c2b068fc378daa952ba7f163c4a11628f55a4df523b3ef600a546040518082815260200191505060405180910390a3506200044f565b3390565b6000546001600160a01b031690565b828054600181600116156101000203166002900490600052602060002090601f016020900481019282601f10620003f657805160ff191683800117855562000426565b8280016001018555821562000426579182015b828111156200042657825182559160200191906001019062000409565b506200043492915062000438565b5090565b5b8082111562000434576000815560010162000439565b60805160601c60a05160601c612db662000497600039806110265280611d73525080610a73528061252f52806125e7528061260e52806126f4528061271b5250612db66000f3fe60806040526004361061023f5760003560e01c80636a395ccb1161012e578063a457c2d7116100ab578063c9ed74431161006f578063c9ed744314610865578063d543dbeb1461088f578063dd62ed3e146108b9578063ea2f0b37146108f4578063f2fde38b1461092757610246565b8063a457c2d714610777578063a9059cbb146107b0578063b6c52324146107e9578063c15fc5ab146107fe578063c49b9a801461083957610246565b806388f82020116100f257806388f82020146106bd5780638988d078146106f05780638da5cb5b146107235780638ee88c531461073857806395d89b411461076257610246565b80636a395ccb146106085780636bc87c3a1461064b57806370a0823114610660578063715018a6146106935780637d1db4a5146106a857610246565b80633685d419116101bc5780634549b039116101805780634549b0391461054657806349bd5a5e146105785780634a74bb021461058d57806352390c02146105a25780635342acb4146105d557610246565b80633685d41914610468578063395093511461049b5780633b124fe7146104d45780633bd5d173146104e9578063437823ec1461051357610246565b806318160ddd1161020357806318160ddd146103a65780631b51972c146103bb57806323b872dd146103d05780632d83811914610413578063313ce5671461043d57610246565b8063061c82d01461024b57806306fdde0314610277578063095ea7b31461030157806313114a9d1461034e5780631694505e1461037557610246565b3661024657005b600080fd5b34801561025757600080fd5b506102756004803603602081101561026e57600080fd5b503561095a565b005b34801561028357600080fd5b5061028c6109b7565b6040805160208082528351818301528351919283929083019185019080838360005b838110156102c65781810151838201526020016102ae565b50505050905090810190601f1680156102f35780820380516001836020036101000a031916815260200191505b509250505060405180910390f35b34801561030d57600080fd5b5061033a6004803603604081101561032457600080fd5b506001600160a01b038135169060200135610a4d565b604080519115158252519081900360200190f35b34801561035a57600080fd5b50610363610a6b565b60408051918252519081900360200190f35b34801561038157600080fd5b5061038a610a71565b604080516001600160a01b039092168252519081900360200190f35b3480156103b257600080fd5b50610363610a95565b3480156103c757600080fd5b50610275610a9b565b3480156103dc57600080fd5b5061033a600480360360608110156103f357600080fd5b506001600160a01b03813581169160208101359091169060400135610b39565b34801561041f57600080fd5b506103636004803603602081101561043657600080fd5b5035610bc0565b34801561044957600080fd5b50610452610c22565b6040805160ff9092168252519081900360200190f35b34801561047457600080fd5b506102756004803603602081101561048b57600080fd5b50356001600160a01b0316610c2b565b3480156104a757600080fd5b5061033a600480360360408110156104be57600080fd5b506001600160a01b038135169060200135610de8565b3480156104e057600080fd5b50610363610e36565b3480156104f557600080fd5b506102756004803603602081101561050c57600080fd5b5035610e3c565b34801561051f57600080fd5b506102756004803603602081101561053657600080fd5b50356001600160a01b0316610f16565b34801561055257600080fd5b506103636004803603604081101561056957600080fd5b50803590602001351515610f92565b34801561058457600080fd5b5061038a611024565b34801561059957600080fd5b5061033a611048565b3480156105ae57600080fd5b50610275600480360360208110156105c557600080fd5b50356001600160a01b0316611056565b3480156105e157600080fd5b5061033a600480360360208110156105f857600080fd5b50356001600160a01b03166111dc565b34801561061457600080fd5b506102756004803603606081101561062b57600080fd5b506001600160a01b038135811691602081013590911690604001356111fa565b34801561065757600080fd5b50610363611338565b34801561066c57600080fd5b506103636004803603602081101561068357600080fd5b50356001600160a01b031661133e565b34801561069f57600080fd5b506102756113a0565b3480156106b457600080fd5b50610363611442565b3480156106c957600080fd5b5061033a600480360360208110156106e057600080fd5b50356001600160a01b0316611448565b3480156106fc57600080fd5b5061033a6004803603602081101561071357600080fd5b50356001600160a01b0316611466565b34801561072f57600080fd5b5061038a61147b565b34801561074457600080fd5b506102756004803603602081101561075b57600080fd5b503561148a565b34801561076e57600080fd5b5061028c6114e7565b34801561078357600080fd5b5061033a6004803603604081101561079a57600080fd5b506001600160a01b038135169060200135611548565b3480156107bc57600080fd5b5061033a600480360360408110156107d357600080fd5b506001600160a01b0381351690602001356115b0565b3480156107f557600080fd5b506103636115c4565b34801561080a57600080fd5b506102756004803603604081101561082157600080fd5b506001600160a01b03813516906020013515156115ca565b34801561084557600080fd5b506102756004803603602081101561085c57600080fd5b50351515611713565b34801561087157600080fd5b506102756004803603602081101561088857600080fd5b50356117ba565b34801561089b57600080fd5b50610275600480360360208110156108b257600080fd5b5035611817565b3480156108c557600080fd5b50610363600480360360408110156108dc57600080fd5b506001600160a01b0381358116916020013516611896565b34801561090057600080fd5b506102756004803603602081101561091757600080fd5b50356001600160a01b03166118c1565b34801561093357600080fd5b506102756004803603602081101561094a57600080fd5b50356001600160a01b031661193a565b610962611a32565b6000546001600160a01b039081169116146109b2576040805162461bcd60e51b81526020600482018190526024820152600080516020612c9e833981519152604482015290519081900360640190fd5b601055565b600d8054604080516020601f6002600019610100600188161502019095169490940493840181900481028201810190925282815260609390929091830182828015610a435780601f10610a1857610100808354040283529160200191610a43565b820191906000526020600020905b815481529060010190602001808311610a2657829003601f168201915b5050505050905090565b6000610a61610a5a611a32565b8484611a36565b5060015b92915050565b600c5490565b7f000000000000000000000000000000000000000000000000000000000000000081565b600a5490565b610aa3611a32565b6000546001600160a01b03908116911614610af3576040805162461bcd60e51b81526020600482018190526024820152600080516020612c9e833981519152604482015290519081900360640190fd5b6000610afd611a32565b6040519091506001600160a01b038216904780156108fc02916000818181858888f19350505050158015610b35573d6000803e3d6000fd5b5050565b6000610b46848484611b22565b610bb684610b52611a32565b610bb185604051806060016040528060288152602001612c76602891396001600160a01b038a16600090815260056020526040812090610b90611a32565b6001600160a01b031681526020810191909152604001600020549190611e2d565b611a36565b5060019392505050565b6000600b54821115610c035760405162461bcd60e51b815260040180806020018281038252602a815260200180612bbb602a913960400191505060405180910390fd5b6000610c0d611ec4565b9050610c198382611ee7565b9150505b919050565b600f5460ff1690565b610c33611a32565b6000546001600160a01b03908116911614610c83576040805162461bcd60e51b81526020600482018190526024820152600080516020612c9e833981519152604482015290519081900360640190fd5b6001600160a01b03811660009081526007602052604090205460ff16610cf0576040805162461bcd60e51b815260206004820152601b60248201527f4163636f756e7420697320616c7265616479206578636c756465640000000000604482015290519081900360640190fd5b60005b600854811015610b3557816001600160a01b031660088281548110610d1457fe5b6000918252602090912001546001600160a01b03161415610de057600880546000198101908110610d4157fe5b600091825260209091200154600880546001600160a01b039092169183908110610d6757fe5b600091825260208083209190910180546001600160a01b0319166001600160a01b039485161790559184168152600482526040808220829055600790925220805460ff191690556008805480610db957fe5b600082815260209020810160001990810180546001600160a01b0319169055019055610b35565b600101610cf3565b6000610a61610df5611a32565b84610bb18560056000610e06611a32565b6001600160a01b03908116825260208083019390935260409182016000908120918c168152925290205490611f30565b60105481565b6000610e46611a32565b6001600160a01b03811660009081526007602052604090205490915060ff1615610ea15760405162461bcd60e51b815260040180806020018281038252602c815260200180612d30602c913960400191505060405180910390fd5b6000610eac83611f8a565b505050506001600160a01b038416600090815260036020526040902054919250610ed891905082611fd9565b6001600160a01b038316600090815260036020526040902055600b54610efe9082611fd9565b600b55600c54610f0e9084611f30565b600c55505050565b610f1e611a32565b6000546001600160a01b03908116911614610f6e576040805162461bcd60e51b81526020600482018190526024820152600080516020612c9e833981519152604482015290519081900360640190fd5b6001600160a01b03166000908152600660205260409020805460ff19166001179055565b6000600a54831115610feb576040805162461bcd60e51b815260206004820152601f60248201527f416d6f756e74206d757374206265206c657373207468616e20737570706c7900604482015290519081900360640190fd5b8161100a576000610ffb84611f8a565b50939550610a65945050505050565b600061101584611f8a565b50929550610a65945050505050565b7f000000000000000000000000000000000000000000000000000000000000000081565b601454610100900460ff1681565b61105e611a32565b6000546001600160a01b039081169116146110ae576040805162461bcd60e51b81526020600482018190526024820152600080516020612c9e833981519152604482015290519081900360640190fd5b6001600160a01b03811660009081526007602052604090205460ff161561111c576040805162461bcd60e51b815260206004820152601b60248201527f4163636f756e7420697320616c7265616479206578636c756465640000000000604482015290519081900360640190fd5b6001600160a01b03811660009081526003602052604090205415611176576001600160a01b03811660009081526003602052604090205461115c90610bc0565b6001600160a01b0382166000908152600460205260409020555b6001600160a01b03166000818152600760205260408120805460ff191660019081179091556008805491820181559091527ff3f7a9fe364faab93b216da50a3214154f22a0a2b415b23a84c8169e8b636ee30180546001600160a01b0319169091179055565b6001600160a01b031660009081526006602052604090205460ff1690565b611202611a32565b6000546001600160a01b03908116911614611252576040805162461bcd60e51b81526020600482018190526024820152600080516020612c9e833981519152604482015290519081900360640190fd5b6001600160a01b0383163014156112b0576040805162461bcd60e51b815260206004820152601e60248201527f43616e6e6f74207472616e73666572206f757420506f6c6b61446f6765210000604482015290519081900360640190fd5b826001600160a01b031663a9059cbb83836040518363ffffffff1660e01b815260040180836001600160a01b0316815260200182815260200192505050602060405180830381600087803b15801561130757600080fd5b505af115801561131b573d6000803e3d6000fd5b505050506040513d602081101561133157600080fd5b5050505050565b60125481565b6001600160a01b03811660009081526007602052604081205460ff161561137e57506001600160a01b038116600090815260046020526040902054610c1d565b6001600160a01b038216600090815260036020526040902054610a6590610bc0565b6113a8611a32565b6000546001600160a01b039081169116146113f8576040805162461bcd60e51b81526020600482018190526024820152600080516020612c9e833981519152604482015290519081900360640190fd5b600080546040516001600160a01b03909116907f8be0079c531659141344cd1fd0a4f28419497f9722a3daafe3b4186f6b6457e0908390a3600080546001600160a01b0319169055565b60155481565b6001600160a01b031660009081526007602052604090205460ff1690565b60096020526000908152604090205460ff1681565b6000546001600160a01b031690565b611492611a32565b6000546001600160a01b039081169116146114e2576040805162461bcd60e51b81526020600482018190526024820152600080516020612c9e833981519152604482015290519081900360640190fd5b601255565b600e8054604080516020601f6002600019610100600188161502019095169490940493840181900481028201810190925282815260609390929091830182828015610a435780601f10610a1857610100808354040283529160200191610a43565b6000610a61611555611a32565b84610bb185604051806060016040528060258152602001612d5c602591396005600061157f611a32565b6001600160a01b03908116825260208083019390935260409182016000908120918d16815292529020549190611e2d565b6000610a616115bd611a32565b8484611b22565b60025490565b6115d2611a32565b6000546001600160a01b03908116911614611622576040805162461bcd60e51b81526020600482018190526024820152600080516020612c9e833981519152604482015290519081900360640190fd5b80156116a9574264035623cff811611681576040805162461bcd60e51b815260206004820152601f60248201527f4f776e65722063616e6e6f74206c6f6e6765722062616e2077616c6c65747300604482015290519081900360640190fd5b6001600160a01b0382166000908152600960205260409020805460ff191660011790556116ca565b6001600160a01b0382166000908152600960205260409020805460ff191690555b604080516001600160a01b0384168152821515602082015281517ffc70dcce81b5afebab40f1a9a0fe597f9097cb179cb4508e875b7b166838f88d929181900390910190a15050565b61171b611a32565b6000546001600160a01b0390811691161461176b576040805162461bcd60e51b81526020600482018190526024820152600080516020612c9e833981519152604482015290519081900360640190fd5b60148054821515610100810261ff00199092169190911790915560408051918252517f53726dfcaf90650aa7eb35524f4d3220f07413c8d6cb404cc8c18bf5591bc1599181900360200190a150565b6117c2611a32565b6000546001600160a01b03908116911614611812576040805162461bcd60e51b81526020600482018190526024820152600080516020612c9e833981519152604482015290519081900360640190fd5b601655565b61181f611a32565b6000546001600160a01b0390811691161461186f576040805162461bcd60e51b81526020600482018190526024820152600080516020612c9e833981519152604482015290519081900360640190fd5b61189061271061188a83600a5461201b90919063ffffffff16565b90611ee7565b60155550565b6001600160a01b03918216600090815260056020908152604080832093909416825291909152205490565b6118c9611a32565b6000546001600160a01b03908116911614611919576040805162461bcd60e51b81526020600482018190526024820152600080516020612c9e833981519152604482015290519081900360640190fd5b6001600160a01b03166000908152600660205260409020805460ff19169055565b611942611a32565b6000546001600160a01b03908116911614611992576040805162461bcd60e51b81526020600482018190526024820152600080516020612c9e833981519152604482015290519081900360640190fd5b6001600160a01b0381166119d75760405162461bcd60e51b8152600401808060200182810382526026815260200180612be56026913960400191505060405180910390fd5b600080546040516001600160a01b03808516939216917f8be0079c531659141344cd1fd0a4f28419497f9722a3daafe3b4186f6b6457e091a3600080546001600160a01b0319166001600160a01b0392909216919091179055565b3390565b6001600160a01b038316611a7b5760405162461bcd60e51b8152600401808060200182810382526024815260200180612d0c6024913960400191505060405180910390fd5b6001600160a01b038216611ac05760405162461bcd60e51b8152600401808060200182810382526022815260200180612c0b6022913960400191505060405180910390fd5b6001600160a01b03808416600081815260056020908152604080832094871680845294825291829020859055815185815291517f8c5be1e5ebec7d5bd14f71427d1e84f3dd0314c0f7b2291e5b200ac8c7c3b9259281900390910190a3505050565b6001600160a01b038316611b675760405162461bcd60e51b8152600401808060200182810382526025815260200180612ce76025913960400191505060405180910390fd5b6001600160a01b038216611bac5760405162461bcd60e51b8152600401808060200182810382526023815260200180612b986023913960400191505060405180910390fd5b60008111611beb5760405162461bcd60e51b8152600401808060200182810382526029815260200180612cbe6029913960400191505060405180910390fd5b6001600160a01b03831660009081526009602052604090205460ff1615611c4c576040805162461bcd60e51b815260206004820152601060248201526f14d95b99195c881a5cc818985b9b995960821b604482015290519081900360640190fd5b6001600160a01b03821660009081526009602052604090205460ff1615611cb0576040805162461bcd60e51b8152602060048201526013602482015272149958da5c1a595b9d081a5cc818985b9b9959606a1b604482015290519081900360640190fd5b611cb861147b565b6001600160a01b0316836001600160a01b031614158015611cf25750611cdc61147b565b6001600160a01b0316826001600160a01b031614155b15611d3857601554811115611d385760405162461bcd60e51b8152600401808060200182810382526028815260200180612c2d6028913960400191505060405180910390fd5b6000611d433061133e565b90506015548110611d5357506015545b60165481108015908190611d6a575060145460ff16155b8015611da857507f00000000000000000000000000000000000000000000000000000000000000006001600160a01b0316856001600160a01b031614155b8015611dbb5750601454610100900460ff165b15611dce576016549150611dce82612074565b6001600160a01b03851660009081526006602052604090205460019060ff1680611e1057506001600160a01b03851660009081526006602052604090205460ff165b15611e19575060005b611e2586868684612111565b505050505050565b60008184841115611ebc5760405162461bcd60e51b81526004018080602001828103825283818151815260200191508051906020019080838360005b83811015611e81578181015183820152602001611e69565b50505050905090810190601f168015611eae5780820380516001836020036101000a031916815260200191505b509250505060405180910390fd5b505050900390565b6000806000611ed1612285565b9092509050611ee08282611ee7565b9250505090565b6000611f2983836040518060400160405280601a81526020017f536166654d6174683a206469766973696f6e206279207a65726f0000000000008152506123e8565b9392505050565b600082820183811015611f29576040805162461bcd60e51b815260206004820152601b60248201527f536166654d6174683a206164646974696f6e206f766572666c6f770000000000604482015290519081900360640190fd5b6000806000806000806000806000611fa18a61244d565b9250925092506000806000611fbf8d8686611fba611ec4565b61248f565b919f909e50909c50959a5093985091965092945050505050565b6000611f2983836040518060400160405280601e81526020017f536166654d6174683a207375627472616374696f6e206f766572666c6f770000815250611e2d565b60008261202a57506000610a65565b8282028284828161203757fe5b0414611f295760405162461bcd60e51b8152600401808060200182810382526021815260200180612c556021913960400191505060405180910390fd5b6014805460ff19166001179055600061208e826002611ee7565b9050600061209c8383611fd9565b9050476120a8836124df565b60006120b44783611fd9565b90506120c083826126ee565b604080518581526020810183905280820185905290517f17bbfb9a6069321b6ded73bd96327c9e6b7212a5cd51ff219cd61370acafb5619181900360600190a150506014805460ff19169055505050565b8061211e5761211e6127ec565b6001600160a01b03841660009081526007602052604090205460ff16801561215f57506001600160a01b03831660009081526007602052604090205460ff16155b156121745761216f84848461281e565b612272565b6001600160a01b03841660009081526007602052604090205460ff161580156121b557506001600160a01b03831660009081526007602052604090205460ff165b156121c55761216f848484612942565b6001600160a01b03841660009081526007602052604090205460ff1615801561220757506001600160a01b03831660009081526007602052604090205460ff16155b156122175761216f8484846129eb565b6001600160a01b03841660009081526007602052604090205460ff16801561225757506001600160a01b03831660009081526007602052604090205460ff165b156122675761216f848484612a2f565b6122728484846129eb565b8061227f5761227f612aa2565b50505050565b600b54600a546000918291825b6008548110156123b6578260036000600884815481106122ae57fe5b60009182526020808320909101546001600160a01b03168352820192909252604001902054118061231357508160046000600884815481106122ec57fe5b60009182526020808320909101546001600160a01b03168352820192909252604001902054115b1561232a57600b54600a54945094505050506123e4565b61236a600360006008848154811061233e57fe5b60009182526020808320909101546001600160a01b031683528201929092526040019020548490611fd9565b92506123ac600460006008848154811061238057fe5b60009182526020808320909101546001600160a01b031683528201929092526040019020548390611fd9565b9150600101612292565b50600a54600b546123c691611ee7565b8210156123de57600b54600a549350935050506123e4565b90925090505b9091565b600081836124375760405162461bcd60e51b8152602060048201818152835160248401528351909283926044909101919085019080838360008315611e81578181015183820152602001611e69565b50600083858161244357fe5b0495945050505050565b60008060008061245c85612ab0565b9050600061246986612acd565b905060006124818261247b8986611fd9565b90611fd9565b979296509094509092505050565b600080808061249e888661201b565b905060006124ac888761201b565b905060006124ba888861201b565b905060006124cc8261247b8686611fd9565b939b939a50919850919650505050505050565b6040805160028082526060808301845292602083019080368337019050509050308160008151811061250d57fe5b60200260200101906001600160a01b031690816001600160a01b0316815250507f00000000000000000000000000000000000000000000000000000000000000006001600160a01b031663ad5c46486040518163ffffffff1660e01b815260040160206040518083038186803b15801561258657600080fd5b505afa15801561259a573d6000803e3d6000fd5b505050506040513d60208110156125b057600080fd5b50518151829060019081106125c157fe5b60200260200101906001600160a01b031690816001600160a01b03168152505061260c307f000000000000000000000000000000000000000000000000000000000000000084611a36565b7f00000000000000000000000000000000000000000000000000000000000000006001600160a01b031663791ac9478360008430426040518663ffffffff1660e01b81526004018086815260200185815260200180602001846001600160a01b03168152602001838152602001828103825285818151815260200191508051906020019060200280838360005b838110156126b1578181015183820152602001612699565b505050509050019650505050505050600060405180830381600087803b1580156126da57600080fd5b505af1158015611e25573d6000803e3d6000fd5b612719307f000000000000000000000000000000000000000000000000000000000000000084611a36565b7f00000000000000000000000000000000000000000000000000000000000000006001600160a01b031663f305d71982308560008061275661147b565b426040518863ffffffff1660e01b815260040180876001600160a01b03168152602001868152602001858152602001848152602001836001600160a01b0316815260200182815260200196505050505050506060604051808303818588803b1580156127c157600080fd5b505af11580156127d5573d6000803e3d6000fd5b50505050506040513d606081101561227f57600080fd5b6010541580156127fc5750601254155b156128065761281c565b6010805460115560128054601355600091829055555b565b60008060008060008061283087611f8a565b6001600160a01b038f16600090815260046020526040902054959b509399509197509550935091506128629088611fd9565b6001600160a01b038a166000908152600460209081526040808320939093556003905220546128919087611fd9565b6001600160a01b03808b1660009081526003602052604080822093909355908a16815220546128c09086611f30565b6001600160a01b0389166000908152600360205260409020556128e281612aea565b6128ec8483612b73565b876001600160a01b0316896001600160a01b03167fddf252ad1be2c89b69c2b068fc378daa952ba7f163c4a11628f55a4df523b3ef856040518082815260200191505060405180910390a3505050505050505050565b60008060008060008061295487611f8a565b6001600160a01b038f16600090815260036020526040902054959b509399509197509550935091506129869087611fd9565b6001600160a01b03808b16600090815260036020908152604080832094909455918b168152600490915220546129bc9084611f30565b6001600160a01b0389166000908152600460209081526040808320939093556003905220546128c09086611f30565b6000806000806000806129fd87611f8a565b6001600160a01b038f16600090815260036020526040902054959b509399509197509550935091506128919087611fd9565b600080600080600080612a4187611f8a565b6001600160a01b038f16600090815260046020526040902054959b50939950919750955093509150612a739088611fd9565b6001600160a01b038a166000908152600460209081526040808320939093556003905220546129869087611fd9565b601154601055601354601255565b6000610a6561271061188a6010548561201b90919063ffffffff16565b6000610a6561271061188a6012548561201b90919063ffffffff16565b6000612af4611ec4565b90506000612b02838361201b565b30600090815260036020526040902054909150612b1f9082611f30565b3060009081526003602090815260408083209390935560079052205460ff1615612b6e5730600090815260046020526040902054612b5d9084611f30565b306000908152600460205260409020555b505050565b600b54612b809083611fd9565b600b55600c54612b909082611f30565b600c55505056fe45524332303a207472616e7366657220746f20746865207a65726f2061646472657373416d6f756e74206d757374206265206c657373207468616e20746f74616c207265666c656374696f6e734f776e61626c653a206e6577206f776e657220697320746865207a65726f206164647265737345524332303a20617070726f766520746f20746865207a65726f20616464726573735472616e7366657220616d6f756e74206578636565647320746865206d61785478416d6f756e742e536166654d6174683a206d756c7469706c69636174696f6e206f766572666c6f7745524332303a207472616e7366657220616d6f756e74206578636565647320616c6c6f77616e63654f776e61626c653a2063616c6c6572206973206e6f7420746865206f776e65725472616e7366657220616d6f756e74206d7573742062652067726561746572207468616e207a65726f45524332303a207472616e736665722066726f6d20746865207a65726f206164647265737345524332303a20617070726f76652066726f6d20746865207a65726f20616464726573734578636c75646564206164647265737365732063616e6e6f742063616c6c20746869732066756e6374696f6e45524332303a2064656372656173656420616c6c6f77616e63652062656c6f77207a65726fa26469706673582212207234dd0c9f344e7810b2d7343618dadce1a7e5ad49258005613c2c10429a268564736f6c634300060c0033"
  }
}