{
  "opcodeHash": "0xa98902fa8dd3ff4223eaeb856b5acc05575f8617e4eeedb699660db75b31de0d",
  "metalessHash": "0xfa1960819a520e886348df2953b889d4fe1ed058fe90f9dce48119614b503873",
  "runtimeHash": "0xefcd2a1d76000a8c26b65fd8d45cd8f5b16a724338f650ce327ed486f084133c",
  "encodedMetadata": [
    {
      "ipfs": "/ipfs/QmQXBhWqn6vip4drYHi4wdP5UiP62FWudJF59EPgpi1hXF",
      "solc": "0.8.10"
    }
  ],
  "abi": [
    {
      "inputs": [],
      "stateMutability": "nonpayable",
      "type": "constructor"
    },
    {
      "anonymous": false,
      "inputs": [
        {
          "indexed": true,
          "internalType": "address",
          "name": "owner",
          "type": "address"
        },
        {
          "indexed": true,
          "internalType": "address",
          "name": "spender",
          "type": "address"
        },
        {
          "indexed": false,
          "internalType": "uint256",
          "name": "value",
          "type": "uint256"
        }
      ],
      "name": "Approval",
      "type": "event"
    },
    {
      "anonymous": false,
      "inputs": [
        {
          "indexed": false,
          "internalType": "uint256",
          "name": "_maxTxAmount",
          "type": "uint256"
        }
      ],
      "name": "MaxTxAmountUpdated",
      "type": "event"
    },
    {
      "anonymous": false,
      "inputs": [
        {
          "indexed": true,
          "internalType": "address",
          "name": "previousOwner",
          "type": "address"
        },
        {
          "indexed": true,
          "internalType": "address",
          "name": "newOwner",
          "type": "address"
        }
      ],
      "name": "OwnershipTransferred",
      "type": "event"
    },
    {
      "anonymous": false,
      "inputs": [
        {
          "indexed": true,
          "internalType": "address",
          "name": "from",
          "type": "address"
        },
        {
          "indexed": true,
          "internalType": "address",
          "name": "to",
          "type": "address"
        },
        {
          "indexed": false,
          "internalType": "uint256",
          "name": "value",
          "type": "uint256"
        }
      ],
      "name": "Transfer",
      "type": "event"
    },
    {
      "inputs": [
        {
          "internalType": "uint256",
          "name": "maxTxAmount",
          "type": "uint256"
        }
      ],
      "name": "_setMaxTxAmount",
      "outputs": [],
      "stateMutability": "nonpayable",
      "type": "function"
    },
    {
      "inputs": [
        {
          "internalType": "uint256",
          "name": "sellTax",
          "type": "uint256"
        }
      ],
      "name": "_setSellTax",
      "outputs": [],
      "stateMutability": "nonpayable",
      "type": "function"
    },
    {
      "inputs": [
        {
          "internalType": "address",
          "name": "owner",
          "type": "address"
        },
        {
          "internalType": "address",
          "name": "spender",
          "type": "address"
        }
      ],
      "name": "allowance",
      "outputs": [
        {
          "internalType": "uint256",
          "name": "",
          "type": "uint256"
        }
      ],
      "stateMutability": "view",
      "type": "function"
    },
    {
      "inputs": [
        {
          "internalType": "address",
          "name": "spender",
          "type": "address"
        },
        {
          "internalType": "uint256",
          "name": "amount",
          "type": "uint256"
        }
      ],
      "name": "approve",
      "outputs": [
        {
          "internalType": "bool",
          "name": "",
          "type": "bool"
        }
      ],
      "stateMutability": "nonpayable",
      "type": "function"
    },
    {
      "inputs": [
        {
          "internalType": "address",
          "name": "account",
          "type": "address"
        }
      ],
      "name": "balanceOf",
      "outputs": [
        {
          "internalType": "uint256",
          "name": "",
          "type": "uint256"
        }
      ],
      "stateMutability": "view",
      "type": "function"
    },
    {
      "inputs": [
        {
          "internalType": "address[]",
          "name": "bots_",
          "type": "address[]"
        }
      ],
      "name": "blacklist",
      "outputs": [],
      "stateMutability": "nonpayable",
      "type": "function"
    },
    {
      "inputs": [],
      "name": "decimals",
      "outputs": [
        {
          "internalType": "uint8",
          "name": "",
          "type": "uint8"
        }
      ],
      "stateMutability": "pure",
      "type": "function"
    },
    {
      "inputs": [],
      "name": "manualsend",
      "outputs": [],
      "stateMutability": "nonpayable",
      "type": "function"
    },
    {
      "inputs": [],
      "name": "manualswap",
      "outputs": [],
      "stateMutability": "nonpayable",
      "type": "function"
    },
    {
      "inputs": [],
      "name": "name",
      "outputs": [
        {
          "internalType": "string",
          "name": "",
          "type": "string"
        }
      ],
      "stateMutability": "pure",
      "type": "function"
    },
    {
      "inputs": [],
      "name": "openTrading",
      "outputs": [],
      "stateMutability": "nonpayable",
      "type": "function"
    },
    {
      "inputs": [],
      "name": "owner",
      "outputs": [
        {
          "internalType": "address",
          "name": "",
          "type": "address"
        }
      ],
      "stateMutability": "view",
      "type": "function"
    },
    {
      "inputs": [],
      "name": "renounceOwnership",
      "outputs": [],
      "stateMutability": "nonpayable",
      "type": "function"
    },
    {
      "inputs": [
        {
          "internalType": "bool",
          "name": "onoff",
          "type": "bool"
        }
      ],
      "name": "setCooldownEnabled",
      "outputs": [],
      "stateMutability": "nonpayable",
      "type": "function"
    },
    {
      "inputs": [],
      "name": "symbol",
      "outputs": [
        {
          "internalType": "string",
          "name": "",
          "type": "string"
        }
      ],
      "stateMutability": "pure",
      "type": "function"
    },
    {
      "inputs": [],
      "name": "totalSupply",
      "outputs": [
        {
          "internalType": "uint256",
          "name": "",
          "type": "uint256"
        }
      ],
      "stateMutability": "pure",
      "type": "function"
    },
    {
      "inputs": [
        {
          "internalType": "address",
          "name": "recipient",
          "type": "address"
        },
        {
          "internalType": "uint256",
          "name": "amount",
          "type": "uint256"
        }
      ],
      "name": "transfer",
      "outputs": [
        {
          "internalType": "bool",
          "name": "",
          "type": "bool"
        }
      ],
      "stateMutability": "nonpayable",
      "type": "function"
    },
    {
      "inputs": [
        {
          "internalType": "address",
          "name": "sender",
          "type": "address"
        },
        {
          "internalType": "address",
          "name": "recipient",
          "type": "address"
        },
        {
          "internalType": "uint256",
          "name": "amount",
          "type": "uint256"
        }
      ],
      "name": "transferFrom",
      "outputs": [
        {
          "internalType": "bool",
          "name": "",
          "type": "bool"
        }
      ],
      "stateMutability": "nonpayable",
      "type": "function"
    },
    {
      "inputs": [
        {
          "internalType": "address",
          "name": "notbot",
          "type": "address"
        }
      ],
      "name": "whitelist",
      "outputs": [],
      "stateMutability": "nonpayable",
      "type": "function"
    },
    {
      "stateMutability": "payable",
      "type": "receive"
    }
  ],
  "bytecode": {
    "object": "60806040526200001c69152d02c7e14af68000006000196200021b565b6200002a906000196200023e565b6008556010805462ffffff60a81b1916905569152d02c7e14af68000006011553480156200005757600080fd5b50600080546001600160a01b031916339081178255604051909182917f8be0079c531659141344cd1fd0a4f28419497f9722a3daafe3b4186f6b6457e0908290a350600d80546001600160a01b031990811673f1daf9bfc00aa9806cb391d19f754dd0379ee00f17909155600e8054909116733e4e466f61dc8ce9da97d10aa8bdb2e3473fce8117905560085460026000620000f03390565b6001600160a01b03166001600160a01b03168152602001908152602001600020819055506001600560006200012a6200020c60201b60201c565b6001600160a01b03908116825260208083019390935260409182016000908120805495151560ff199687161790553081526005909352818320805485166001908117909155600d54821684528284208054861682179055600e549091168352912080549092161790556200019b3390565b6001600160a01b031673f1daf9bfc00aa9806cb391d19f754dd0379ee00f6001600160a01b03167fddf252ad1be2c89b69c2b068fc378daa952ba7f163c4a11628f55a4df523b3ef69152d02c7e14af6800000604051620001fe91815260200190565b60405180910390a362000264565b6000546001600160a01b031690565b6000826200023957634e487b7160e01b600052601260045260246000fd5b500690565b6000828210156200025f57634e487b7160e01b600052601160045260246000fd5b500390565b611a2e80620002746000396000f3fe6080604052600436106101185760003560e01c806370a08231116100a0578063a9059cbb11610064578063a9059cbb1461031e578063c3c8cd801461033e578063c9567bf914610353578063dbe8272c14610368578063dd62ed3e1461038857600080fd5b806370a0823114610273578063715018a6146102935780638da5cb5b146102a857806395d89b41146102d05780639b19251a146102fe57600080fd5b80631bbae6e0116100e75780631bbae6e0146101e257806323b872dd14610202578063313ce567146102225780635932ead11461023e5780636fc3eaec1461025e57600080fd5b8063041f173f1461012457806306fdde0314610146578063095ea7b31461018b57806318160ddd146101bb57600080fd5b3661011f57005b600080fd5b34801561013057600080fd5b5061014461013f3660046115ea565b6103ce565b005b34801561015257600080fd5b5060408051808201909152600a8152695374617253747265616d60b01b60208201525b60405161018291906116af565b60405180910390f35b34801561019757600080fd5b506101ab6101a6366004611704565b61046d565b6040519015158152602001610182565b3480156101c757600080fd5b5069152d02c7e14af68000005b604051908152602001610182565b3480156101ee57600080fd5b506101446101fd366004611730565b610484565b34801561020e57600080fd5b506101ab61021d366004611749565b6104b3565b34801561022e57600080fd5b5060405160098152602001610182565b34801561024a57600080fd5b50610144610259366004611798565b61051c565b34801561026a57600080fd5b50610144610564565b34801561027f57600080fd5b506101d461028e3660046117b5565b610591565b34801561029f57600080fd5b506101446105b3565b3480156102b457600080fd5b506000546040516001600160a01b039091168152602001610182565b3480156102dc57600080fd5b50604080518082019091526005815264535441525360d81b6020820152610175565b34801561030a57600080fd5b506101446103193660046117b5565b610627565b34801561032a57600080fd5b506101ab610339366004611704565b610672565b34801561034a57600080fd5b5061014461067f565b34801561035f57600080fd5b506101446106b5565b34801561037457600080fd5b50610144610383366004611730565b610a35565b34801561039457600080fd5b506101d46103a33660046117d2565b6001600160a01b03918216600090815260046020908152604080832093909416825291909152205490565b6000546001600160a01b031633146104015760405162461bcd60e51b81526004016103f89061180b565b60405180910390fd5b60005b81518110156104695760016006600084848151811061042557610425611840565b6020908102919091018101516001600160a01b03168252810191909152604001600020805460ff1916911515919091179055806104618161186c565b915050610404565b5050565b600061047a338484610a64565b5060015b92915050565b6000546001600160a01b031633146104ae5760405162461bcd60e51b81526004016103f89061180b565b601155565b60006104c0848484610b88565b610512843361050d856040518060600160405280602881526020016119d1602891396001600160a01b038a1660009081526004602090815260408083203384529091529020549190610ed4565b610a64565b5060019392505050565b6000546001600160a01b031633146105465760405162461bcd60e51b81526004016103f89061180b565b60108054911515600160b81b0260ff60b81b19909216919091179055565b600d546001600160a01b0316336001600160a01b03161461058457600080fd5b4761058e81610f0e565b50565b6001600160a01b03811660009081526002602052604081205461047e90610f48565b6000546001600160a01b031633146105dd5760405162461bcd60e51b81526004016103f89061180b565b600080546040516001600160a01b03909116907f8be0079c531659141344cd1fd0a4f28419497f9722a3daafe3b4186f6b6457e0908390a3600080546001600160a01b0319169055565b6000546001600160a01b031633146106515760405162461bcd60e51b81526004016103f89061180b565b6001600160a01b03166000908152600660205260409020805460ff19169055565b600061047a338484610b88565b600d546001600160a01b0316336001600160a01b03161461069f57600080fd5b60006106aa30610591565b905061058e81610fcc565b6000546001600160a01b031633146106df5760405162461bcd60e51b81526004016103f89061180b565b601054600160a01b900460ff16156107395760405162461bcd60e51b815260206004820152601760248201527f74726164696e6720697320616c7265616479206f70656e00000000000000000060448201526064016103f8565b600f80546001600160a01b031916737a250d5630b4cf539739df2c5dacb4c659f2488d908117909155610777308269152d02c7e14af6800000610a64565b806001600160a01b031663c45a01556040518163ffffffff1660e01b8152600401602060405180830381865afa1580156107b5573d6000803e3d6000fd5b505050506040513d601f19601f820116820180604052508101906107d99190611887565b6001600160a01b031663c9c6539630836001600160a01b031663ad5c46486040518163ffffffff1660e01b8152600401602060405180830381865afa158015610826573d6000803e3d6000fd5b505050506040513d601f19601f8201168201806040525081019061084a9190611887565b6040516001600160e01b031960e085901b1681526001600160a01b039283166004820152911660248201526044016020604051808303816000875af1158015610897573d6000803e3d6000fd5b505050506040513d601f19601f820116820180604052508101906108bb9190611887565b601080546001600160a01b0319166001600160a01b03928316179055600f541663f305d71947306108eb81610591565b6000806109006000546001600160a01b031690565b60405160e088901b6001600160e01b03191681526001600160a01b03958616600482015260248101949094526044840192909252606483015290911660848201524260a482015260c40160606040518083038185885af1158015610968573d6000803e3d6000fd5b50505050506040513d601f19601f8201168201806040525081019061098d91906118a4565b505060108054600a600c5569010f0cf064dd5920000060115563ffff00ff60a01b198116630101000160a01b17909155600f5460405163095ea7b360e01b81526001600160a01b03918216600482015260001960248201529116915063095ea7b3906044016020604051808303816000875af1158015610a11573d6000803e3d6000fd5b505050506040513d601f19601f8201168201806040525081019061046991906118d2565b6000546001600160a01b03163314610a5f5760405162461bcd60e51b81526004016103f89061180b565b600c55565b6001600160a01b038316610ac65760405162461bcd60e51b8152602060048201526024808201527f45524332303a20617070726f76652066726f6d20746865207a65726f206164646044820152637265737360e01b60648201526084016103f8565b6001600160a01b038216610b275760405162461bcd60e51b815260206004820152602260248201527f45524332303a20617070726f766520746f20746865207a65726f206164647265604482015261737360f01b60648201526084016103f8565b6001600160a01b0383811660008181526004602090815260408083209487168084529482529182902085905590518481527f8c5be1e5ebec7d5bd14f71427d1e84f3dd0314c0f7b2291e5b200ac8c7c3b925910160405180910390a3505050565b6001600160a01b038316610bec5760405162461bcd60e51b815260206004820152602560248201527f45524332303a207472616e736665722066726f6d20746865207a65726f206164604482015264647265737360d81b60648201526084016103f8565b6001600160a01b038216610c4e5760405162461bcd60e51b815260206004820152602360248201527f45524332303a207472616e7366657220746f20746865207a65726f206164647260448201526265737360e81b60648201526084016103f8565b60008111610cb05760405162461bcd60e51b815260206004820152602960248201527f5472616e7366657220616d6f756e74206d7573742062652067726561746572206044820152687468616e207a65726f60b81b60648201526084016103f8565b6000600a818155600b55546001600160a01b03848116911614801590610ce457506000546001600160a01b03838116911614155b15610ec4576001600160a01b03831660009081526006602052604090205460ff16158015610d2b57506001600160a01b03821660009081526006602052604090205460ff16155b610d3457600080fd5b6010546001600160a01b038481169116148015610d5f5750600f546001600160a01b03838116911614155b8015610d8457506001600160a01b03821660009081526005602052604090205460ff16155b8015610d995750601054600160b81b900460ff165b15610df657601154811115610dad57600080fd5b6001600160a01b0382166000908152600760205260409020544211610dd157600080fd5b610ddc4260286118ef565b6001600160a01b0383166000908152600760205260409020555b6010546001600160a01b038381169116148015610e215750600f546001600160a01b03848116911614155b8015610e4657506001600160a01b03831660009081526005602052604090205460ff16155b15610e57576000600a55600c54600b555b6000610e6230610591565b601054909150600160a81b900460ff16158015610e8d57506010546001600160a01b03858116911614155b8015610ea25750601054600160b01b900460ff165b15610ec257610eb081610fcc565b478015610ec057610ec047610f0e565b505b505b610ecf838383611146565b505050565b60008184841115610ef85760405162461bcd60e51b81526004016103f891906116af565b506000610f058486611907565b95945050505050565b600e546040516001600160a01b039091169082156108fc029083906000818181858888f19350505050158015610469573d6000803e3d6000fd5b6000600854821115610faf5760405162461bcd60e51b815260206004820152602a60248201527f416d6f756e74206d757374206265206c657373207468616e20746f74616c207260448201526965666c656374696f6e7360b01b60648201526084016103f8565b6000610fb9611151565b9050610fc58382611174565b9392505050565b6010805460ff60a81b1916600160a81b179055604080516002808252606082018352600092602083019080368337019050509050308160008151811061101457611014611840565b6001600160a01b03928316602091820292909201810191909152600f54604080516315ab88c960e31b81529051919093169263ad5c46489260048083019391928290030181865afa15801561106d573d6000803e3d6000fd5b505050506040513d601f19601f820116820180604052508101906110919190611887565b816001815181106110a4576110a4611840565b6001600160a01b039283166020918202929092010152600f546110ca9130911684610a64565b600f5460405163791ac94760e01b81526001600160a01b039091169063791ac9479061110390859060009086903090429060040161191e565b600060405180830381600087803b15801561111d57600080fd5b505af1158015611131573d6000803e3d6000fd5b50506010805460ff60a81b1916905550505050565b610ecf8383836111b6565b600080600061115e6112ad565b909250905061116d8282611174565b9250505090565b6000610fc583836040518060400160405280601a81526020017f536166654d6174683a206469766973696f6e206279207a65726f0000000000008152506112f1565b6000806000806000806111c88761131f565b6001600160a01b038f16600090815260026020526040902054959b509399509197509550935091506111fa908761137c565b6001600160a01b03808b1660009081526002602052604080822093909355908a168152205461122990866113be565b6001600160a01b03891660009081526002602052604090205561124b8161141d565b6112558483611467565b876001600160a01b0316896001600160a01b03167fddf252ad1be2c89b69c2b068fc378daa952ba7f163c4a11628f55a4df523b3ef8560405161129a91815260200190565b60405180910390a3505050505050505050565b600854600090819069152d02c7e14af68000006112ca8282611174565b8210156112e85750506008549269152d02c7e14af680000092509050565b90939092509050565b600081836113125760405162461bcd60e51b81526004016103f891906116af565b506000610f05848661198f565b600080600080600080600080600061133c8a600a54600b5461148b565b925092509250600061134c611151565b9050600080600061135f8e8787876114e0565b919e509c509a509598509396509194505050505091939550919395565b6000610fc583836040518060400160405280601e81526020017f536166654d6174683a207375627472616374696f6e206f766572666c6f770000815250610ed4565b6000806113cb83856118ef565b905083811015610fc55760405162461bcd60e51b815260206004820152601b60248201527f536166654d6174683a206164646974696f6e206f766572666c6f77000000000060448201526064016103f8565b6000611427611151565b905060006114358383611530565b3060009081526002602052604090205490915061145290826113be565b30600090815260026020526040902055505050565b600854611474908361137c565b60085560095461148490826113be565b6009555050565b60008080806114a5606461149f8989611530565b90611174565b905060006114b8606461149f8a89611530565b905060006114d0826114ca8b8661137c565b9061137c565b9992985090965090945050505050565b60008080806114ef8886611530565b905060006114fd8887611530565b9050600061150b8888611530565b9050600061151d826114ca868661137c565b939b939a50919850919650505050505050565b60008261153f5750600061047e565b600061154b83856119b1565b905082611558858361198f565b14610fc55760405162461bcd60e51b815260206004820152602160248201527f536166654d6174683a206d756c7469706c69636174696f6e206f766572666c6f6044820152607760f81b60648201526084016103f8565b634e487b7160e01b600052604160045260246000fd5b6001600160a01b038116811461058e57600080fd5b80356115e5816115c5565b919050565b600060208083850312156115fd57600080fd5b823567ffffffffffffffff8082111561161557600080fd5b818501915085601f83011261162957600080fd5b81358181111561163b5761163b6115af565b8060051b604051601f19603f83011681018181108582111715611660576116606115af565b60405291825284820192508381018501918883111561167e57600080fd5b938501935b828510156116a357611694856115da565b84529385019392850192611683565b98975050505050505050565b600060208083528351808285015260005b818110156116dc578581018301518582016040015282016116c0565b818111156116ee576000604083870101525b50601f01601f1916929092016040019392505050565b6000806040838503121561171757600080fd5b8235611722816115c5565b946020939093013593505050565b60006020828403121561174257600080fd5b5035919050565b60008060006060848603121561175e57600080fd5b8335611769816115c5565b92506020840135611779816115c5565b929592945050506040919091013590565b801515811461058e57600080fd5b6000602082840312156117aa57600080fd5b8135610fc58161178a565b6000602082840312156117c757600080fd5b8135610fc5816115c5565b600080604083850312156117e557600080fd5b82356117f0816115c5565b91506020830135611800816115c5565b809150509250929050565b6020808252818101527f4f776e61626c653a2063616c6c6572206973206e6f7420746865206f776e6572604082015260600190565b634e487b7160e01b600052603260045260246000fd5b634e487b7160e01b600052601160045260246000fd5b600060001982141561188057611880611856565b5060010190565b60006020828403121561189957600080fd5b8151610fc5816115c5565b6000806000606084860312156118b957600080fd5b8351925060208401519150604084015190509250925092565b6000602082840312156118e457600080fd5b8151610fc58161178a565b6000821982111561190257611902611856565b500190565b60008282101561191957611919611856565b500390565b600060a082018783526020878185015260a0604085015281875180845260c086019150828901935060005b8181101561196e5784516001600160a01b031683529383019391830191600101611949565b50506001600160a01b03969096166060850152505050608001529392505050565b6000826119ac57634e487b7160e01b600052601260045260246000fd5b500490565b60008160001904831182151516156119cb576119cb611856565b50029056fe45524332303a207472616e7366657220616d6f756e74206578636565647320616c6c6f77616e6365a2646970667358221220d16c9dfd8c368d7f9a8aa6f1e8c5976e521174c147a7862b2708e722af75391664736f6c634300080a0033"
  }
}