{"compiler":"v0.7.6+commit.7338295f","opcodeHash":"0x2e4ae1907517a4ba60d0c504440491492d610487ab3ba078ab185a41b0ca136b","metalessHash":"0x5b7ba48ce048e2906c19940112d75e092603dd1f65bc9af87d03b9c464ceadb8","runtimeHash":"0xc1a2ee2317412442171b7955ed6e36609d8d2b583c39472d00ce6ea1f888648d","encodedMetadata":[{"ipfs":"/ipfs/QmXMXaHNuTH1sxCFu7vR9UhWDzxpKVvRNreECK63AoeUr9","solc":"0.7.6"}],"abi":[{"inputs":[],"name":"DAI_ADDR","outputs":[{"internalType":"address","name":"","type":"address"}],"stateMutability":"view","type":"function"},{"inputs":[],"name":"DAI_JOIN_ADDR","outputs":[{"internalType":"address","name":"","type":"address"}],"stateMutability":"view","type":"function"},{"inputs":[],"name":"ERR_RETURN_INDEX_VALUE","outputs":[{"internalType":"string","name":"","type":"string"}],"stateMutability":"view","type":"function"},{"inputs":[],"name":"ERR_SUB_INDEX_VALUE","outputs":[{"internalType":"string","name":"","type":"string"}],"stateMutability":"view","type":"function"},{"inputs":[],"name":"NO_PARAM_MAPPING","outputs":[{"internalType":"uint8","name":"","type":"uint8"}],"stateMutability":"view","type":"function"},{"inputs":[],"name":"REGISTRY_ADDR","outputs":[{"internalType":"address","name":"","type":"address"}],"stateMutability":"view","type":"function"},{"inputs":[],"name":"RETURN_MAX_INDEX_VALUE","outputs":[{"internalType":"uint8","name":"","type":"uint8"}],"stateMutability":"view","type":"function"},{"inputs":[],"name":"RETURN_MIN_INDEX_VALUE","outputs":[{"internalType":"uint8","name":"","type":"uint8"}],"stateMutability":"view","type":"function"},{"inputs":[],"name":"SUB_MAX_INDEX_VALUE","outputs":[{"internalType":"uint8","name":"","type":"uint8"}],"stateMutability":"view","type":"function"},{"inputs":[],"name":"SUB_MIN_INDEX_VALUE","outputs":[{"internalType":"uint8","name":"","type":"uint8"}],"stateMutability":"view","type":"function"},{"inputs":[],"name":"actionType","outputs":[{"internalType":"uint8","name":"","type":"uint8"}],"stateMutability":"pure","type":"function"},{"inputs":[],"name":"adminVault","outputs":[{"internalType":"contract AdminVault","name":"","type":"address"}],"stateMutability":"view","type":"function"},{"inputs":[{"internalType":"bytes[]","name":"_callData","type":"bytes[]"},{"internalType":"bytes[]","name":"_subData","type":"bytes[]"},{"internalType":"uint8[]","name":"_paramMapping","type":"uint8[]"},{"internalType":"bytes32[]","name":"_returnValues","type":"bytes32[]"}],"name":"executeAction","outputs":[{"internalType":"bytes32","name":"","type":"bytes32"}],"stateMutability":"payable","type":"function"},{"inputs":[{"internalType":"bytes[]","name":"_callData","type":"bytes[]"}],"name":"executeActionDirect","outputs":[],"stateMutability":"payable","type":"function"},{"inputs":[{"internalType":"contract IManager","name":"_manager","type":"address"},{"internalType":"uint256","name":"_cdpId","type":"uint256"},{"internalType":"bytes32","name":"_ilk","type":"bytes32"}],"name":"getCdpInfo","outputs":[{"internalType":"uint256","name":"","type":"uint256"},{"internalType":"uint256","name":"","type":"uint256"}],"stateMutability":"view","type":"function"},{"inputs":[{"internalType":"contract IManager","name":"_manager","type":"address"},{"internalType":"uint256","name":"_cdpId","type":"uint256"}],"name":"getOwner","outputs":[{"internalType":"address","name":"","type":"address"}],"stateMutability":"view","type":"function"},{"inputs":[],"name":"kill","outputs":[],"stateMutability":"nonpayable","type":"function"},{"inputs":[],"name":"logger","outputs":[{"internalType":"contract DefisaverLogger","name":"","type":"address"}],"stateMutability":"view","type":"function"},{"inputs":[],"name":"registry","outputs":[{"internalType":"contract DFSRegistry","name":"","type":"address"}],"stateMutability":"view","type":"function"},{"inputs":[],"name":"vat","outputs":[{"internalType":"contract IVat","name":"","type":"address"}],"stateMutability":"view","type":"function"},{"inputs":[{"internalType":"address","name":"_token","type":"address"},{"internalType":"address","name":"_receiver","type":"address"},{"internalType":"uint256","name":"_amount","type":"uint256"}],"name":"withdrawStuckFunds","outputs":[],"stateMutability":"nonpayable","type":"function"}],"bytecode":{"object":"608060405234801561001057600080fd5b50611df9806100206000396000f3fe60806040526004361061012a5760003560e01c80638cedca71116100ab578063d3c2e7ed1161006f578063d3c2e7ed146102c7578063d95393eb146102dc578063e4dde9ab1461021e578063e910afb2146102f1578063f24ccbfe14610313578063f8e2fb00146103285761012a565b80638cedca71146102485780639864dcdd1461025d5780639c1cb7ec14610272578063c579d49014610287578063ca5ff780146102a75761012a565b806336569e77116100f257806336569e77146101c65780634115fe6b146101db57806341c0e1b5146102095780637b1039991461021e5780638bcb6216146102335761012a565b80630f2eee421461012f5780631afd15be1461015a578063247492f81461016f5780632f634a90146101845780632fa13cb8146101b1575b600080fd5b34801561013b57600080fd5b5061014461033d565b6040516101519190611d2f565b60405180910390f35b61016d61016836600461181c565b610342565b005b34801561017b57600080fd5b50610144610373565b34801561019057600080fd5b506101a461019f366004611991565b610378565b6040516101519190611a9a565b3480156101bd57600080fd5b50610144610474565b3480156101d257600080fd5b506101a4610479565b3480156101e757600080fd5b506101fb6101f63660046119bc565b610491565b604051610151929190611cf3565b34801561021557600080fd5b5061016d610652565b34801561022a57600080fd5b506101a4610713565b34801561023f57600080fd5b5061014461072b565b34801561025457600080fd5b506101a4610730565b34801561026957600080fd5b50610144610748565b34801561027e57600080fd5b506101a461074d565b34801561029357600080fd5b5061016d6102a23660046117dc565b610765565b6102ba6102b536600461184f565b610894565b6040516101519190611b77565b3480156102d357600080fd5b5061014461093a565b3480156102e857600080fd5b506101a461093f565b3480156102fd57600080fd5b50610306610957565b6040516101519190611bcc565b34801561031f57600080fd5b506101a461098b565b34801561033457600080fd5b506103066109a3565b608081565b6000806000806000610353866109d4565b9450945094509450945061036a8585858585610ab7565b50505050505050565b600190565b600080836001600160a01b0316638161b120846040518263ffffffff1660e01b81526004016103a79190611b77565b60206040518083038186803b1580156103bf57600080fd5b505afa1580156103d3573d6000803e3d6000fd5b505050506040513d601f19601f820116820180604052508101906103f791906117c0565b9050806001600160a01b0316638da5cb5b6040518163ffffffff1660e01b815260040160206040518083038186803b15801561043257600080fd5b505afa158015610446573d6000803e3d6000fd5b505050506040513d601f19601f8201168201806040525081019061046a91906117c0565b9150505b92915050565b600081565b7335d1b3f3d7966a1dfe207aa4514c12a259a0492b81565b6000806000856001600160a01b0316632726b073866040518263ffffffff1660e01b81526004016104c29190611b77565b60206040518083038186803b1580156104da57600080fd5b505afa1580156104ee573d6000803e3d6000fd5b505050506040513d601f19601f8201168201806040525081019061051291906117c0565b6040516309092f9760e21b815290915060009081907335d1b3f3d7966a1dfe207aa4514c12a259a0492b90632424be5c906105539089908790600401611b80565b604080518083038186803b15801561056a57600080fd5b505afa15801561057e573d6000803e3d6000fd5b505050506040513d601f19601f820116820180604052508101906105a291906119f0565b604051636cb1c69b60e11b815291935091506000907335d1b3f3d7966a1dfe207aa4514c12a259a0492b9063d9638d36906105e1908a90600401611b77565b60a06040518083038186803b1580156105f957600080fd5b505afa15801561060d573d6000803e3d6000fd5b505050506040513d601f19601f820116820180604052508101906106319190611a13565b505050915050826106428383610d9c565b9550955050505050935093915050565b336001600160a01b031673ccf3d848e08b94478ed8f46ffead3008faf581fd6001600160a01b031663f851a4406040518163ffffffff1660e01b815260040160206040518083038186803b1580156106a957600080fd5b505afa1580156106bd573d6000803e3d6000fd5b505050506040513d601f19601f820116820180604052508101906106e191906117c0565b6001600160a01b0316146107105760405162461bcd60e51b815260040161070790611c0d565b60405180910390fd5b33ff5b73d6049e1f5f3eff1f921f5532af1a1632ba23929c81565b600181565b73ccf3d848e08b94478ed8f46ffead3008faf581fd81565b607f81565b739759a6ac90977b93b58547b4a71c78317f391a2881565b336001600160a01b031673ccf3d848e08b94478ed8f46ffead3008faf581fd6001600160a01b0316638da5cb5b6040518163ffffffff1660e01b815260040160206040518083038186803b1580156107bc57600080fd5b505afa1580156107d0573d6000803e3d6000fd5b505050506040513d601f19601f820116820180604052508101906107f491906117c0565b6001600160a01b03161461081a5760405162461bcd60e51b815260040161070790611bdf565b73eeeeeeeeeeeeeeeeeeeeeeeeeeeeeeeeeeeeeeee6001600160a01b038416141561087b576040516001600160a01b0383169082156108fc029083906000818181858888f19350505050158015610875573d6000803e3d6000fd5b5061088f565b61088f6001600160a01b0384168383610dd9565b505050565b6000806000806000806108a68a6109d4565b945094509450945094506108d085896000815181106108c157fe5b60200260200101518b8a610e2f565b94506108e384896001815181106108c157fe5b935061090583896002815181106108f657fe5b60200260200101518b8a610eb4565b925061091882896003815181106108f657fe5b915060006109298686868686610ab7565b96505050505050505b949350505050565b60ff81565b736b175474e89094c44da98b954eedeac495271d0f81565b6040518060400160405280601881526020017757726f6e672072657475726e20696e6465782076616c756560401b81525081565b735c55b921f590a89c1ebe84df170e655a82b6212681565b6040518060400160405280601581526020017457726f6e672073756220696e6465782076616c756560581b81525081565b6000806000806000856000815181106109e957fe5b6020026020010151806020019051810190610a049190611979565b945085600181518110610a1357fe5b6020026020010151806020019051810190610a2e9190611979565b935085600281518110610a3d57fe5b6020026020010151806020019051810190610a5891906117c0565b925085600381518110610a6757fe5b6020026020010151806020019051810190610a8291906117c0565b915085600481518110610a9157fe5b6020026020010151806020019051810190610aac91906117c0565b905091939590929450565b600080610ac385610f2d565b905082600019871415610ae657610ae36001600160a01b03831630610fe8565b96505b610afa6001600160a01b03831686896110a3565b50610b0f6001600160a01b03831687896111ca565b604051633b4da69f60e01b81526001600160a01b03871690633b4da69f90610b3d9030908b90600401611b5e565b600060405180830381600087803b158015610b5757600080fd5b505af1158015610b6b573d6000803e3d6000fd5b505050506000610b83610b7e888a61128e565b61131e565b604051632c2cb9fd60e01b81529091507335d1b3f3d7966a1dfe207aa4514c12a259a0492b906376088703906001600160a01b03851690632c2cb9fd90610bce908e90600401611b77565b60206040518083038186803b158015610be657600080fd5b505afa158015610bfa573d6000803e3d6000fd5b505050506040513d601f19601f82011682018060405250810190610c1e9190611979565b604051632726b07360e01b81526001600160a01b03861690632726b07390610c4a908f90600401611b77565b60206040518083038186803b158015610c6257600080fd5b505afa158015610c76573d6000803e3d6000fd5b505050506040513d601f19601f82011682018060405250810190610c9a91906117c0565b30308660006040518763ffffffff1660e01b8152600401610cc096959493929190611b97565b600060405180830381600087803b158015610cda57600080fd5b505af1158015610cee573d6000803e3d6000fd5b50505050735c55b921f590a89c1ebe84df170e655a82b621266001600160a01b031663d061ce5030338c8c8c8c8c604051602001610d30959493929190611d01565b6040516020818303038152906040526040518463ffffffff1660e01b8152600401610d5d93929190611ac8565b600060405180830381600087803b158015610d7757600080fd5b505af1158015610d8b573d6000803e3d6000fd5b50999b9a5050505050505050505050565b60006b033b2e3c9fd0803ce8000000610dca610db88585611340565b6b019d971e4fe8401e74000000611377565b81610dd157fe5b049392505050565b61088f8363a9059cbb60e01b8484604051602401610df8929190611b5e565b60408051601f198184030181529190526020810180516001600160e01b03166001600160e01b03199093169290921790915261139a565b6000610e3a84611429565b15610eab57610e4884611431565b15610e765781610e5785611450565b60ff1681518110610e6457fe5b602002602001015160001c9450610eab565b82610e80856114b0565b60ff1681518110610e8d57fe5b6020026020010151806020019051810190610ea89190611979565b94505b50929392505050565b6000610ebf84611429565b15610eab57610ecd84611431565b15610efb5781610edc85611450565b60ff1681518110610ee957fe5b602002602001015160601c9450610eab565b82610f05856114b0565b60ff1681518110610f1257fe5b6020026020010151806020019051810190610ea891906117c0565b60006001600160a01b038216739759a6ac90977b93b58547b4a71c78317f391a281415610f6f5750736b175474e89094c44da98b954eedeac495271d0f610fe3565b816001600160a01b0316637bd2bea76040518163ffffffff1660e01b815260040160206040518083038186803b158015610fa857600080fd5b505afa158015610fbc573d6000803e3d6000fd5b505050506040513d601f19601f82011682018060405250810190610fe091906117c0565b90505b919050565b60006001600160a01b03831673eeeeeeeeeeeeeeeeeeeeeeeeeeeeeeeeeeeeeeee141561102057506001600160a01b0381163161046e565b6040516370a0823160e01b81526001600160a01b038416906370a082319061104c908590600401611a9a565b60206040518083038186803b15801561106457600080fd5b505afa158015611078573d6000803e3d6000fd5b505050506040513d601f19601f8201168201806040525081019061109c9190611979565b905061046e565b600060001982141561115457604051636eb1769f60e11b81526000906001600160a01b0386169063dd62ed3e906110e09087903090600401611aae565b60206040518083038186803b1580156110f857600080fd5b505afa15801561110c573d6000803e3d6000fd5b505050506040513d601f19601f820116820180604052508101906111309190611979565b9050600061113e8686610fe8565b905081811161114d578061114f565b815b935050505b6001600160a01b0383161580159061117557506001600160a01b0383163014155b801561119e57506001600160a01b03841673eeeeeeeeeeeeeeeeeeeeeeeeeeeeeeeeeeeeeeee14155b80156111a957508115155b156111c3576111c36001600160a01b038516843085611510565b5092915050565b6001600160a01b03831673eeeeeeeeeeeeeeeeeeeeeeeeeeeeeeeeeeeeeeee14156111f45761088f565b604051636eb1769f60e11b815281906001600160a01b0385169063dd62ed3e906112249030908790600401611aae565b60206040518083038186803b15801561123c57600080fd5b505afa158015611250573d6000803e3d6000fd5b505050506040513d601f19601f820116820180604052508101906112749190611979565b101561088f5761088f6001600160a01b0384168383611537565b60006113178261130f6012866001600160a01b031663b3bcfa826040518163ffffffff1660e01b815260040160206040518083038186803b1580156112d257600080fd5b505afa1580156112e6573d6000803e3d6000fd5b505050506040513d601f19601f8201168201806040525081019061130a9190611979565b611576565b600a0a611340565b9392505050565b806000811215610fe35760405162461bcd60e51b815260040161070790611ccd565b600081158061135b5750508082028282828161135857fe5b04145b61046e5760405162461bcd60e51b815260040161070790611c3b565b8082018281101561046e5760405162461bcd60e51b815260040161070790611c3b565b60006113ef826040518060400160405280602081526020017f5361666545524332303a206c6f772d6c6576656c2063616c6c206661696c6564815250856001600160a01b03166115999092919063ffffffff16565b80519091501561088f578080602001905181019061140d9190611959565b61088f5760405162461bcd60e51b815260040161070790611c83565b60ff16151590565b6000600160ff831610801590610fe0575050607f60ff91909116111590565b600061145b82611431565b6040518060400160405280601581526020017457726f6e672073756220696e6465782076616c756560581b815250906114a75760405162461bcd60e51b81526004016107079190611bcc565b50506000190190565b60408051808201909152601881527757726f6e672072657475726e20696e6465782076616c756560401b6020820152600090608060ff841610156115075760405162461bcd60e51b81526004016107079190611bcc565b5050607f190190565b611531846323b872dd60e01b858585604051602401610df893929190611b1e565b50505050565b6115578363095ea7b360e01b846000604051602401610df8929190611b42565b61088f8363095ea7b360e01b8484604051602401610df8929190611b5e565b8082038281111561046e5760405162461bcd60e51b815260040161070790611c3b565b6060610932848460008560606115ae85611666565b6115ca5760405162461bcd60e51b815260040161070790611c4c565b600080866001600160a01b031685876040516115e69190611a7e565b60006040518083038185875af1925050503d8060008114611623576040519150601f19603f3d011682016040523d82523d6000602084013e611628565b606091505b5091509150811561163c5791506109329050565b80511561164c5780518082602001fd5b8360405162461bcd60e51b81526004016107079190611bcc565b6000813f7fc5d2460186f7233c927e7db2dcc703c0e500b653ca82273b7bfad8045d85a470818114801590610932575050151592915050565b600082601f8301126116af578081fd5b813560206116c46116bf83611d61565b611d3d565b82815281810190858301838502870184018810156116e0578586fd5b855b858110156116fe578135845292840192908401906001016116e2565b5090979650505050505050565b6000601f838184011261171c578182fd5b8235602061172c6116bf83611d61565b82815281810190868301865b858110156117b257813589018a603f820112611752578889fd5b85810135604067ffffffffffffffff82111561176a57fe5b61177b828b01601f19168901611d3d565b8281528d8284860101111561178e578b8cfd5b828285018a83013791820188018b9052508552509284019290840190600101611738565b509098975050505050505050565b6000602082840312156117d1578081fd5b815161131781611dab565b6000806000606084860312156117f0578182fd5b83356117fb81611dab565b9250602084013561180b81611dab565b929592945050506040919091013590565b60006020828403121561182d578081fd5b813567ffffffffffffffff811115611843578182fd5b61046a8482850161170b565b60008060008060808587031215611864578081fd5b843567ffffffffffffffff8082111561187b578283fd5b6118878883890161170b565b955060209150818701358181111561189d578384fd5b6118a989828a0161170b565b9550506040870135818111156118bd578384fd5b8701601f810189136118cd578384fd5b80356118db6116bf82611d61565b81815284810190838601868402850187018d10156118f7578788fd5b8794505b8385101561192757803560ff81168114611913578889fd5b8352600194909401939186019186016118fb565b5096505050506060870135915080821115611940578283fd5b5061194d8782880161169f565b91505092959194509250565b60006020828403121561196a578081fd5b81518015158114611317578182fd5b60006020828403121561198a578081fd5b5051919050565b600080604083850312156119a3578182fd5b82356119ae81611dab565b946020939093013593505050565b6000806000606084860312156119d0578081fd5b83356119db81611dab565b95602085013595506040909401359392505050565b60008060408385031215611a02578182fd5b505080516020909101519092909150565b600080600080600060a08688031215611a2a578283fd5b5050835160208501516040860151606087015160809097015192989197509594509092509050565b60008151808452611a6a816020860160208601611d7f565b601f01601f19169290920160200192915050565b60008251611a90818460208701611d7f565b9190910192915050565b6001600160a01b0391909116815260200190565b6001600160a01b0392831681529116602082015260400190565b6001600160a01b03848116825283166020820152608060408201819052600990820152684d6364537570706c7960b81b60a082015260c060608201819052600090611b1590830184611a52565b95945050505050565b6001600160a01b039384168152919092166020820152604081019190915260600190565b6001600160a01b0392909216825260ff16602082015260400190565b6001600160a01b03929092168252602082015260400190565b90815260200190565b9182526001600160a01b0316602082015260400190565b9586526001600160a01b039485166020870152928416604086015292166060840152608083019190915260a082015260c00190565b6000602082526113176020830184611a52565b60208082526014908201527336b9b39739b2b73232b9103737ba1037bbb732b960611b604082015260600190565b60208082526014908201527336b9b39739b2b73232b9103737ba1030b236b4b760611b604082015260600190565b602080825260009082015260400190565b6020808252601d908201527f416464726573733a2063616c6c20746f206e6f6e2d636f6e7472616374000000604082015260600190565b6020808252602a908201527f5361666545524332303a204552433230206f7065726174696f6e20646964206e6040820152691bdd081cdd58d8d9595960b21b606082015260800190565b6020808252600c908201526b696e742d6f766572666c6f7760a01b604082015260600190565b918252602082015260400190565b94855260208501939093526001600160a01b0391821660408501528116606084015216608082015260a00190565b60ff91909116815260200190565b60405181810167ffffffffffffffff81118282101715611d5957fe5b604052919050565b600067ffffffffffffffff821115611d7557fe5b5060209081020190565b60005b83811015611d9a578181015183820152602001611d82565b838111156115315750506000910152565b6001600160a01b0381168114611dc057600080fd5b5056fea264697066735822122071e4956fa73037b73b414d5b3f9ce9efed01ec5ed0cbaae110dab1c349508fcc64736f6c63430007060033"}}