{"compiler":"v0.8.4+commit.c7e474f2","opcodeHash":"0x91b7fb561e0d75313330af5e1e1fac2cbc88bad2f723dfc46c61cfb11d098859","metalessHash":"0xa5768972561d275e04ab0b5cc438eb77e531da409990dd8a8f9b9e1773c77c8a","runtimeHash":"0x5186170f33ededa50fc0da3b406a874bff35ac91391fe3fbe03b193b5997b02d","encodedMetadata":[{"ipfs":"/ipfs/QmNk3MiDekpscvpvP8dtyNG4EF44TAoiaamuN3wggbEhuk","solc":"0.8.4"}],"abi":[{"inputs":[{"internalType":"address","name":"aggregator","type":"address"},{"internalType":"address","name":"validator","type":"address"}],"stateMutability":"nonpayable","type":"constructor"},{"anonymous":false,"inputs":[{"indexed":true,"internalType":"address","name":"aggregator","type":"address"}],"name":"AggregatorProposed","type":"event"},{"anonymous":false,"inputs":[{"indexed":true,"internalType":"address","name":"previous","type":"address"},{"indexed":true,"internalType":"address","name":"current","type":"address"}],"name":"AggregatorUpgraded","type":"event"},{"anonymous":false,"inputs":[{"indexed":true,"internalType":"address","name":"from","type":"address"},{"indexed":true,"internalType":"address","name":"to","type":"address"}],"name":"OwnershipTransferRequested","type":"event"},{"anonymous":false,"inputs":[{"indexed":true,"internalType":"address","name":"from","type":"address"},{"indexed":true,"internalType":"address","name":"to","type":"address"}],"name":"OwnershipTransferred","type":"event"},{"anonymous":false,"inputs":[{"indexed":true,"internalType":"address","name":"proposed","type":"address"},{"indexed":false,"internalType":"uint256","name":"previousRoundId","type":"uint256"},{"indexed":false,"internalType":"int256","name":"previousAnswer","type":"int256"},{"indexed":false,"internalType":"uint256","name":"currentRoundId","type":"uint256"},{"indexed":false,"internalType":"int256","name":"currentAnswer","type":"int256"}],"name":"ProposedAggregatorValidateCall","type":"event"},{"anonymous":false,"inputs":[{"indexed":true,"internalType":"address","name":"validator","type":"address"}],"name":"ValidatorProposed","type":"event"},{"anonymous":false,"inputs":[{"indexed":true,"internalType":"address","name":"previous","type":"address"},{"indexed":true,"internalType":"address","name":"current","type":"address"}],"name":"ValidatorUpgraded","type":"event"},{"inputs":[],"name":"acceptOwnership","outputs":[],"stateMutability":"nonpayable","type":"function"},{"inputs":[],"name":"getAggregators","outputs":[{"internalType":"address","name":"current","type":"address"},{"internalType":"bool","name":"hasProposal","type":"bool"},{"internalType":"address","name":"proposed","type":"address"}],"stateMutability":"view","type":"function"},{"inputs":[],"name":"getValidators","outputs":[{"internalType":"address","name":"current","type":"address"},{"internalType":"bool","name":"hasProposal","type":"bool"},{"internalType":"address","name":"proposed","type":"address"}],"stateMutability":"view","type":"function"},{"inputs":[],"name":"owner","outputs":[{"internalType":"address","name":"","type":"address"}],"stateMutability":"view","type":"function"},{"inputs":[{"internalType":"address","name":"proposed","type":"address"}],"name":"proposeNewAggregator","outputs":[],"stateMutability":"nonpayable","type":"function"},{"inputs":[{"internalType":"address","name":"proposed","type":"address"}],"name":"proposeNewValidator","outputs":[],"stateMutability":"nonpayable","type":"function"},{"inputs":[{"internalType":"address","name":"to","type":"address"}],"name":"transferOwnership","outputs":[],"stateMutability":"nonpayable","type":"function"},{"inputs":[],"name":"upgradeAggregator","outputs":[],"stateMutability":"nonpayable","type":"function"},{"inputs":[],"name":"upgradeValidator","outputs":[],"stateMutability":"nonpayable","type":"function"},{"inputs":[{"internalType":"uint256","name":"previousRoundId","type":"uint256"},{"internalType":"int256","name":"previousAnswer","type":"int256"},{"internalType":"uint256","name":"currentRoundId","type":"uint256"},{"internalType":"int256","name":"currentAnswer","type":"int256"}],"name":"validate","outputs":[{"internalType":"bool","name":"","type":"bool"}],"stateMutability":"nonpayable","type":"function"}],"bytecode":{"object":"608060405234801561001057600080fd5b50604051610a90380380610a9083398101604081905261002f91610087565b600080546001600160a01b03199081163317909155600280546001600160a01b03948516908316179055600480549290931691161790556100b9565b80516001600160a01b038116811461008257600080fd5b919050565b60008060408385031215610099578182fd5b6100a28361006b565b91506100b06020840161006b565b90509250929050565b6109c8806100c86000396000f3fe608060405234801561001057600080fd5b506004361061009e5760003560e01c806394ce943b1161006657806394ce943b14610131578063b7ab4db514610144578063beed9b5114610167578063c97f78561461018a578063f2fde38b1461019257600080fd5b806359112a4e146100a35780637903677f146100b857806379ba5097146100c05780637ee7f7d1146100c85780638da5cb5b14610116575b600080fd5b6100b66100b13660046108e3565b6101a5565b005b6100b6610239565b6100b6610340565b6002546003546001600160a01b0380831692600160a01b900460ff1691165b604080516001600160a01b03948516815292151560208401529216918101919091526060015b60405180910390f35b6000546040516001600160a01b03909116815260200161010d565b6100b661013f3660046108e3565b6103ea565b6004546005546001600160a01b0380831692600160a01b900460ff1691166100e7565b61017a610175366004610931565b610474565b604051901515815260200161010d565b6100b6610708565b6100b66101a03660046108e3565b61080f565b6000546001600160a01b031633146101d85760405162461bcd60e51b81526004016101cf90610962565b60405180910390fd5b600380546001600160a01b0319166001600160a01b0383169081179091556002805460ff60a01b1916821515600160a01b021790556040517f5f9c9d260db95e6065c958ac4462171e7a8e70c0c5a7e1864ec8e425c3348de790600090a250565b6000546001600160a01b031633146102635760405162461bcd60e51b81526004016101cf90610962565b604080518082019091526004546001600160a01b03808216808452600160a01b90920460ff16151560208401819052600554909116906001146102d65760405162461bcd60e51b815260206004820152600b60248201526a139bc81c1c9bdc1bdcd85b60aa1b60448201526064016101cf565b6001600160a01b03808216808552600060208601819052600480546001600160a81b03191683179055600580546001600160a01b031916905560405191928516917fb78a7598213b871cdb0b5cf984a129fa34c321bfd3b74073ba5147e0e3f1c33c9190a3505050565b6001546001600160a01b031633146103935760405162461bcd60e51b815260206004820152601660248201527526bab9ba10313290383937b837b9b2b21037bbb732b960511b60448201526064016101cf565b60008054336001600160a01b0319808316821784556001805490911690556040516001600160a01b0390921692909183917f8be0079c531659141344cd1fd0a4f28419497f9722a3daafe3b4186f6b6457e091a350565b6000546001600160a01b031633146104145760405162461bcd60e51b81526004016101cf90610962565b600580546001600160a01b0319166001600160a01b0383169081179091556004805460ff60a01b1916821515600160a01b021790556040517e2d79d30d9a290b4aa306dc3542d81c243b1f679b4083044b9723d2378600be90600090a250565b6002546003546000916001600160a01b039081169116338214806104a05750336001600160a01b038216145b6104ec5760405162461bcd60e51b815260206004820152601b60248201527f4e6f74206120636f6e666967757265642061676772656761746f72000000000060448201526064016101cf565b336001600160a01b038216141561055b576040805188815260208101889052908101869052606081018590526001600160a01b038216907f5a76b3e9adddfd8f853f50a26cb51f7e4cfef4fbaf1d49df7da37b90119aba789060800160405180910390a2600192505050610700565b604080518082019091526004546001600160a01b038116808352600160a01b90910460ff16151560208301526105c65760405162461bcd60e51b815260206004820152601060248201526f139bc81d985b1a59185d1bdc881cd95d60821b60448201526064016101cf565b805160405163beed9b5160e01b8152600481018a90526024810189905260448101889052606481018790526001600160a01b039091169063beed9b5190608401602060405180830381600087803b15801561062057600080fd5b505af1158015610634573d6000803e3d6000fd5b505050506040513d601f19601f820116820180604052508101906106589190610911565b508060200151156106f85760055460405163beed9b5160e01b8152600481018a90526024810189905260448101889052606481018790526001600160a01b039091169063beed9b5190608401602060405180830381600087803b1580156106be57600080fd5b505af11580156106d2573d6000803e3d6000fd5b505050506040513d601f19601f820116820180604052508101906106f69190610911565b505b600193505050505b949350505050565b6000546001600160a01b031633146107325760405162461bcd60e51b81526004016101cf90610962565b604080518082019091526002546001600160a01b03808216808452600160a01b90920460ff16151560208401819052600354909116906001146107a55760405162461bcd60e51b815260206004820152600b60248201526a139bc81c1c9bdc1bdcd85b60aa1b60448201526064016101cf565b6001600160a01b03808216808552600060208601819052600280546001600160a81b03191683179055600380546001600160a01b031916905560405191928516917f7005ddb42f7ac176ef55c6adb46b53f52e2832c77e915dad61a643841466ea219190a3505050565b6000546001600160a01b031633146108395760405162461bcd60e51b81526004016101cf90610962565b6001600160a01b0381163314156108925760405162461bcd60e51b815260206004820152601760248201527f43616e6e6f74207472616e7366657220746f2073656c6600000000000000000060448201526064016101cf565b600180546001600160a01b0319166001600160a01b0383811691821790925560008054604051929316917fed8889f560326eb138920d842192f0eb3dd22b4f139c87a2c57538e05bae12789190a350565b6000602082840312156108f4578081fd5b81356001600160a01b038116811461090a578182fd5b9392505050565b600060208284031215610922578081fd5b8151801515811461090a578182fd5b60008060008060808587031215610946578283fd5b5050823594602084013594506040840135936060013592509050565b60208082526016908201527527b7363c9031b0b63630b1363290313c9037bbb732b960511b60408201526060019056fea2646970667358221220bdcf7acb98799c707df87af4d997740a1ffd45d507edac4aee22c0c1948151fb64736f6c63430008040033"}}