{
  "opcodeHash": "0xde039326ec20e1358246e8f7db547eb58607e5457d03963139d7adc852ac55c7",
  "metalessHash": "0x9dca2dc6f478ec171d36479a566eb3a3cd62e28ed8c901dd30bda45ff766efc6",
  "runtimeHash": "0x0785b5ca1413073d2b9e6a6c3571369b5279dcab0ab23528269845493dca941d",
  "encodedMetadata": [
    {
      "ipfs": "/ipfs/QmPM3gUe8p4HeMdzaf8j6rnynG6gADRBWEsbzsJupjmnoR",
      "solc": "0.8.9"
    }
  ],
  "abi": [
    {
      "inputs": [],
      "stateMutability": "nonpayable",
      "type": "constructor"
    },
    {
      "anonymous": false,
      "inputs": [
        {
          "indexed": true,
          "internalType": "address",
          "name": "owner",
          "type": "address"
        },
        {
          "indexed": true,
          "internalType": "address",
          "name": "spender",
          "type": "address"
        },
        {
          "indexed": false,
          "internalType": "uint256",
          "name": "value",
          "type": "uint256"
        }
      ],
      "name": "Approval",
      "type": "event"
    },
    {
      "anonymous": false,
      "inputs": [
        {
          "indexed": false,
          "internalType": "uint256",
          "name": "_maxTxAmount",
          "type": "uint256"
        }
      ],
      "name": "MaxTxAmountUpdated",
      "type": "event"
    },
    {
      "anonymous": false,
      "inputs": [
        {
          "indexed": true,
          "internalType": "address",
          "name": "previousOwner",
          "type": "address"
        },
        {
          "indexed": true,
          "internalType": "address",
          "name": "newOwner",
          "type": "address"
        }
      ],
      "name": "OwnershipTransferred",
      "type": "event"
    },
    {
      "anonymous": false,
      "inputs": [
        {
          "indexed": true,
          "internalType": "address",
          "name": "from",
          "type": "address"
        },
        {
          "indexed": true,
          "internalType": "address",
          "name": "to",
          "type": "address"
        },
        {
          "indexed": false,
          "internalType": "uint256",
          "name": "value",
          "type": "uint256"
        }
      ],
      "name": "Transfer",
      "type": "event"
    },
    {
      "inputs": [
        {
          "internalType": "uint256",
          "name": "buyTax",
          "type": "uint256"
        }
      ],
      "name": "_setBuyTax",
      "outputs": [],
      "stateMutability": "nonpayable",
      "type": "function"
    },
    {
      "inputs": [
        {
          "internalType": "uint256",
          "name": "maxTxAmount",
          "type": "uint256"
        }
      ],
      "name": "_setMaxTxAmount",
      "outputs": [],
      "stateMutability": "nonpayable",
      "type": "function"
    },
    {
      "inputs": [
        {
          "internalType": "uint256",
          "name": "sellTax",
          "type": "uint256"
        }
      ],
      "name": "_setSellTax",
      "outputs": [],
      "stateMutability": "nonpayable",
      "type": "function"
    },
    {
      "inputs": [
        {
          "internalType": "address",
          "name": "owner",
          "type": "address"
        },
        {
          "internalType": "address",
          "name": "spender",
          "type": "address"
        }
      ],
      "name": "allowance",
      "outputs": [
        {
          "internalType": "uint256",
          "name": "",
          "type": "uint256"
        }
      ],
      "stateMutability": "view",
      "type": "function"
    },
    {
      "inputs": [
        {
          "internalType": "address",
          "name": "spender",
          "type": "address"
        },
        {
          "internalType": "uint256",
          "name": "amount",
          "type": "uint256"
        }
      ],
      "name": "approve",
      "outputs": [
        {
          "internalType": "bool",
          "name": "",
          "type": "bool"
        }
      ],
      "stateMutability": "nonpayable",
      "type": "function"
    },
    {
      "inputs": [
        {
          "internalType": "address",
          "name": "account",
          "type": "address"
        }
      ],
      "name": "balanceOf",
      "outputs": [
        {
          "internalType": "uint256",
          "name": "",
          "type": "uint256"
        }
      ],
      "stateMutability": "view",
      "type": "function"
    },
    {
      "inputs": [],
      "name": "decimals",
      "outputs": [
        {
          "internalType": "uint8",
          "name": "",
          "type": "uint8"
        }
      ],
      "stateMutability": "pure",
      "type": "function"
    },
    {
      "inputs": [
        {
          "internalType": "address",
          "name": "notbot",
          "type": "address"
        }
      ],
      "name": "delBot",
      "outputs": [],
      "stateMutability": "nonpayable",
      "type": "function"
    },
    {
      "inputs": [],
      "name": "manualsend",
      "outputs": [],
      "stateMutability": "nonpayable",
      "type": "function"
    },
    {
      "inputs": [],
      "name": "manualswap",
      "outputs": [],
      "stateMutability": "nonpayable",
      "type": "function"
    },
    {
      "inputs": [],
      "name": "name",
      "outputs": [
        {
          "internalType": "string",
          "name": "",
          "type": "string"
        }
      ],
      "stateMutability": "pure",
      "type": "function"
    },
    {
      "inputs": [],
      "name": "openTrading",
      "outputs": [],
      "stateMutability": "nonpayable",
      "type": "function"
    },
    {
      "inputs": [],
      "name": "owner",
      "outputs": [
        {
          "internalType": "address",
          "name": "",
          "type": "address"
        }
      ],
      "stateMutability": "view",
      "type": "function"
    },
    {
      "inputs": [],
      "name": "renounceOwnership",
      "outputs": [],
      "stateMutability": "nonpayable",
      "type": "function"
    },
    {
      "inputs": [
        {
          "internalType": "address[]",
          "name": "bots_",
          "type": "address[]"
        }
      ],
      "name": "setBot",
      "outputs": [],
      "stateMutability": "nonpayable",
      "type": "function"
    },
    {
      "inputs": [
        {
          "internalType": "bool",
          "name": "onoff",
          "type": "bool"
        }
      ],
      "name": "setCooldownEnabled",
      "outputs": [],
      "stateMutability": "nonpayable",
      "type": "function"
    },
    {
      "inputs": [],
      "name": "symbol",
      "outputs": [
        {
          "internalType": "string",
          "name": "",
          "type": "string"
        }
      ],
      "stateMutability": "pure",
      "type": "function"
    },
    {
      "inputs": [],
      "name": "totalSupply",
      "outputs": [
        {
          "internalType": "uint256",
          "name": "",
          "type": "uint256"
        }
      ],
      "stateMutability": "pure",
      "type": "function"
    },
    {
      "inputs": [
        {
          "internalType": "address",
          "name": "recipient",
          "type": "address"
        },
        {
          "internalType": "uint256",
          "name": "amount",
          "type": "uint256"
        }
      ],
      "name": "transfer",
      "outputs": [
        {
          "internalType": "bool",
          "name": "",
          "type": "bool"
        }
      ],
      "stateMutability": "nonpayable",
      "type": "function"
    },
    {
      "inputs": [
        {
          "internalType": "address",
          "name": "sender",
          "type": "address"
        },
        {
          "internalType": "address",
          "name": "recipient",
          "type": "address"
        },
        {
          "internalType": "uint256",
          "name": "amount",
          "type": "uint256"
        }
      ],
      "name": "transferFrom",
      "outputs": [
        {
          "internalType": "bool",
          "name": "",
          "type": "bool"
        }
      ],
      "stateMutability": "nonpayable",
      "type": "function"
    },
    {
      "stateMutability": "payable",
      "type": "receive"
    }
  ],
  "bytecode": {
    "object": "60806040526200001b683635c9adc5dea00000600019620001fe565b620000299060001962000221565b6008556011805462ffffff60a81b19169055683635c9adc5dea000006012553480156200005557600080fd5b50600080546001600160a01b031916339081178255604051909182917f8be0079c531659141344cd1fd0a4f28419497f9722a3daafe3b4186f6b6457e0908290a350600e8054732b516d726bfee3f67a2020975802cbc81896a75e6001600160a01b03199182168117909255600f8054909116909117905560085460026000620000dc3390565b6001600160a01b0316815260208101919091526040016000908120919091556005600c819055600f600d556001916200011d6000546001600160a01b031690565b6001600160a01b03908116825260208083019390935260409182016000908120805495151560ff199687161790553081526005909352818320805485166001908117909155600e54821684528284208054861682179055600f549091168352912080549092161790556200018e3390565b6001600160a01b0316732b516d726bfee3f67a2020975802cbc81896a75e6001600160a01b03167fddf252ad1be2c89b69c2b068fc378daa952ba7f163c4a11628f55a4df523b3ef683635c9adc5dea00000604051620001f091815260200190565b60405180910390a362000247565b6000826200021c57634e487b7160e01b600052601260045260246000fd5b500690565b6000828210156200024257634e487b7160e01b600052601160045260246000fd5b500390565b611b0780620002576000396000f3fe6080604052600436106101235760003560e01c80636fc3eaec116100a0578063a9059cbb11610064578063a9059cbb14610352578063c3c8cd8014610372578063c9567bf914610387578063dbe8272c1461039c578063dd62ed3e146103bc57600080fd5b80636fc3eaec146102b157806370a08231146102c6578063715018a6146102e65780638da5cb5b146102fb57806395d89b411461032357600080fd5b806323b872dd116100e757806323b872dd14610215578063273123b7146102355780632b7581b214610255578063313ce567146102755780635932ead11461029157600080fd5b806306fdde031461012f578063095ea7b31461017d5780630eca1180146101ad57806318160ddd146101cf5780631bbae6e0146101f557600080fd5b3661012a57005b600080fd5b34801561013b57600080fd5b5060408051808201909152601381527229b434b1309029b0b6bab930b4902a34b3b2b960691b60208201525b6040516101749190611688565b60405180910390f35b34801561018957600080fd5b5061019d610198366004611702565b610402565b6040519015158152602001610174565b3480156101b957600080fd5b506101cd6101c8366004611744565b610419565b005b3480156101db57600080fd5b50683635c9adc5dea000005b604051908152602001610174565b34801561020157600080fd5b506101cd610210366004611809565b6104b8565b34801561022157600080fd5b5061019d610230366004611822565b6104fb565b34801561024157600080fd5b506101cd610250366004611863565b610564565b34801561026157600080fd5b506101cd610270366004611809565b6105af565b34801561028157600080fd5b5060405160098152602001610174565b34801561029d57600080fd5b506101cd6102ac36600461188e565b6105e7565b3480156102bd57600080fd5b506101cd61062f565b3480156102d257600080fd5b506101e76102e1366004611863565b610659565b3480156102f257600080fd5b506101cd61067b565b34801561030757600080fd5b506000546040516001600160a01b039091168152602001610174565b34801561032f57600080fd5b5060408051808201909152600681526529a424a3a2a960d11b6020820152610167565b34801561035e57600080fd5b5061019d61036d366004611702565b6106ef565b34801561037e57600080fd5b506101cd6106fc565b34801561039357600080fd5b506101cd610732565b3480156103a857600080fd5b506101cd6103b7366004611809565b610af5565b3480156103c857600080fd5b506101e76103d73660046118ab565b6001600160a01b03918216600090815260046020908152604080832093909416825291909152205490565b600061040f338484610b2d565b5060015b92915050565b6000546001600160a01b0316331461044c5760405162461bcd60e51b8152600401610443906118e4565b60405180910390fd5b60005b81518110156104b45760016006600084848151811061047057610470611919565b6020908102919091018101516001600160a01b03168252810191909152604001600020805460ff1916911515919091179055806104ac81611945565b91505061044f565b5050565b6000546001600160a01b031633146104e25760405162461bcd60e51b8152600401610443906118e4565b670de0b6b3a76400008111156104f85760128190555b50565b6000610508848484610c51565b61055a843361055585604051806060016040528060288152602001611aaa602891396001600160a01b038a1660009081526004602090815260408083203384529091529020549190610fa0565b610b2d565b5060019392505050565b6000546001600160a01b0316331461058e5760405162461bcd60e51b8152600401610443906118e4565b6001600160a01b03166000908152600660205260409020805460ff19169055565b6000546001600160a01b031633146105d95760405162461bcd60e51b8152600401610443906118e4565b600a8110156104f857600d55565b6000546001600160a01b031633146106115760405162461bcd60e51b8152600401610443906118e4565b60118054911515600160b81b0260ff60b81b19909216919091179055565b600e546001600160a01b0316336001600160a01b03161461064f57600080fd5b476104f881610fda565b6001600160a01b03811660009081526002602052604081205461041390611014565b6000546001600160a01b031633146106a55760405162461bcd60e51b8152600401610443906118e4565b600080546040516001600160a01b03909116907f8be0079c531659141344cd1fd0a4f28419497f9722a3daafe3b4186f6b6457e0908390a3600080546001600160a01b0319169055565b600061040f338484610c51565b600e546001600160a01b0316336001600160a01b03161461071c57600080fd5b600061072730610659565b90506104f881611098565b6000546001600160a01b0316331461075c5760405162461bcd60e51b8152600401610443906118e4565b601154600160a01b900460ff16156107b65760405162461bcd60e51b815260206004820152601760248201527f74726164696e6720697320616c7265616479206f70656e0000000000000000006044820152606401610443565b601080546001600160a01b031916737a250d5630b4cf539739df2c5dacb4c659f2488d9081179091556107f33082683635c9adc5dea00000610b2d565b806001600160a01b031663c45a01556040518163ffffffff1660e01b815260040160206040518083038186803b15801561082c57600080fd5b505afa158015610840573d6000803e3d6000fd5b505050506040513d601f19601f820116820180604052508101906108649190611960565b6001600160a01b031663c9c6539630836001600160a01b031663ad5c46486040518163ffffffff1660e01b815260040160206040518083038186803b1580156108ac57600080fd5b505afa1580156108c0573d6000803e3d6000fd5b505050506040513d601f19601f820116820180604052508101906108e49190611960565b6040516001600160e01b031960e085901b1681526001600160a01b03928316600482015291166024820152604401602060405180830381600087803b15801561092c57600080fd5b505af1158015610940573d6000803e3d6000fd5b505050506040513d601f19601f820116820180604052508101906109649190611960565b601180546001600160a01b0319166001600160a01b039283161790556010541663f305d719473061099481610659565b6000806109a96000546001600160a01b031690565b60405160e088901b6001600160e01b03191681526001600160a01b03958616600482015260248101949094526044840192909252606483015290911660848201524260a482015260c4016060604051808303818588803b158015610a0c57600080fd5b505af1158015610a20573d6000803e3d6000fd5b50505050506040513d601f19601f82011682018060405250810190610a45919061197d565b505060118054678ac7230489e8000060125563ffff00ff60a01b198116630101000160a01b1790915560105460405163095ea7b360e01b81526001600160a01b03918216600482015260001960248201529116915063095ea7b390604401602060405180830381600087803b158015610abd57600080fd5b505af1158015610ad1573d6000803e3d6000fd5b505050506040513d601f19601f820116820180604052508101906104b491906119ab565b6000546001600160a01b03163314610b1f5760405162461bcd60e51b8152600401610443906118e4565b600a8110156104f857600c55565b6001600160a01b038316610b8f5760405162461bcd60e51b8152602060048201526024808201527f45524332303a20617070726f76652066726f6d20746865207a65726f206164646044820152637265737360e01b6064820152608401610443565b6001600160a01b038216610bf05760405162461bcd60e51b815260206004820152602260248201527f45524332303a20617070726f766520746f20746865207a65726f206164647265604482015261737360f01b6064820152608401610443565b6001600160a01b0383811660008181526004602090815260408083209487168084529482529182902085905590518481527f8c5be1e5ebec7d5bd14f71427d1e84f3dd0314c0f7b2291e5b200ac8c7c3b925910160405180910390a3505050565b6001600160a01b038316610cb55760405162461bcd60e51b815260206004820152602560248201527f45524332303a207472616e736665722066726f6d20746865207a65726f206164604482015264647265737360d81b6064820152608401610443565b6001600160a01b038216610d175760405162461bcd60e51b815260206004820152602360248201527f45524332303a207472616e7366657220746f20746865207a65726f206164647260448201526265737360e81b6064820152608401610443565b60008111610d795760405162461bcd60e51b815260206004820152602960248201527f5472616e7366657220616d6f756e74206d7573742062652067726561746572206044820152687468616e207a65726f60b81b6064820152608401610443565b6002600a55600d54600b556000546001600160a01b03848116911614801590610db057506000546001600160a01b03838116911614155b15610f90576001600160a01b03831660009081526006602052604090205460ff16158015610df757506001600160a01b03821660009081526006602052604090205460ff16155b610e0057600080fd5b6011546001600160a01b038481169116148015610e2b57506010546001600160a01b03838116911614155b8015610e5057506001600160a01b03821660009081526005602052604090205460ff16155b8015610e655750601154600160b81b900460ff165b15610ec257601254811115610e7957600080fd5b6001600160a01b0382166000908152600760205260409020544211610e9d57600080fd5b610ea84260286119c8565b6001600160a01b0383166000908152600760205260409020555b6011546001600160a01b038381169116148015610eed57506010546001600160a01b03848116911614155b8015610f1257506001600160a01b03831660009081526005602052604090205460ff16155b15610f23576002600a55600c54600b555b6000610f2e30610659565b601154909150600160a81b900460ff16158015610f5957506011546001600160a01b03858116911614155b8015610f6e5750601154600160b01b900460ff165b15610f8e57610f7c81611098565b478015610f8c57610f8c47610fda565b505b505b610f9b838383611221565b505050565b60008184841115610fc45760405162461bcd60e51b81526004016104439190611688565b506000610fd184866119e0565b95945050505050565b600f546040516001600160a01b039091169082156108fc029083906000818181858888f193505050501580156104b4573d6000803e3d6000fd5b600060085482111561107b5760405162461bcd60e51b815260206004820152602a60248201527f416d6f756e74206d757374206265206c657373207468616e20746f74616c207260448201526965666c656374696f6e7360b01b6064820152608401610443565b600061108561122c565b9050611091838261124f565b9392505050565b6011805460ff60a81b1916600160a81b17905560408051600280825260608201835260009260208301908036833701905050905030816000815181106110e0576110e0611919565b6001600160a01b03928316602091820292909201810191909152601054604080516315ab88c960e31b81529051919093169263ad5c4648926004808301939192829003018186803b15801561113457600080fd5b505afa158015611148573d6000803e3d6000fd5b505050506040513d601f19601f8201168201806040525081019061116c9190611960565b8160018151811061117f5761117f611919565b6001600160a01b0392831660209182029290920101526010546111a59130911684610b2d565b60105460405163791ac94760e01b81526001600160a01b039091169063791ac947906111de9085906000908690309042906004016119f7565b600060405180830381600087803b1580156111f857600080fd5b505af115801561120c573d6000803e3d6000fd5b50506011805460ff60a81b1916905550505050565b610f9b838383611291565b6000806000611239611388565b9092509050611248828261124f565b9250505090565b600061109183836040518060400160405280601a81526020017f536166654d6174683a206469766973696f6e206279207a65726f0000000000008152506113ca565b6000806000806000806112a3876113f8565b6001600160a01b038f16600090815260026020526040902054959b509399509197509550935091506112d59087611455565b6001600160a01b03808b1660009081526002602052604080822093909355908a16815220546113049086611497565b6001600160a01b038916600090815260026020526040902055611326816114f6565b6113308483611540565b876001600160a01b0316896001600160a01b03167fddf252ad1be2c89b69c2b068fc378daa952ba7f163c4a11628f55a4df523b3ef8560405161137591815260200190565b60405180910390a3505050505050505050565b6008546000908190683635c9adc5dea000006113a4828261124f565b8210156113c157505060085492683635c9adc5dea0000092509050565b90939092509050565b600081836113eb5760405162461bcd60e51b81526004016104439190611688565b506000610fd18486611a68565b60008060008060008060008060006114158a600a54600b54611564565b925092509250600061142561122c565b905060008060006114388e8787876115b9565b919e509c509a509598509396509194505050505091939550919395565b600061109183836040518060400160405280601e81526020017f536166654d6174683a207375627472616374696f6e206f766572666c6f770000815250610fa0565b6000806114a483856119c8565b9050838110156110915760405162461bcd60e51b815260206004820152601b60248201527f536166654d6174683a206164646974696f6e206f766572666c6f7700000000006044820152606401610443565b600061150061122c565b9050600061150e8383611609565b3060009081526002602052604090205490915061152b9082611497565b30600090815260026020526040902055505050565b60085461154d9083611455565b60085560095461155d9082611497565b6009555050565b600080808061157e60646115788989611609565b9061124f565b9050600061159160646115788a89611609565b905060006115a9826115a38b86611455565b90611455565b9992985090965090945050505050565b60008080806115c88886611609565b905060006115d68887611609565b905060006115e48888611609565b905060006115f6826115a38686611455565b939b939a50919850919650505050505050565b60008261161857506000610413565b60006116248385611a8a565b9050826116318583611a68565b146110915760405162461bcd60e51b815260206004820152602160248201527f536166654d6174683a206d756c7469706c69636174696f6e206f766572666c6f6044820152607760f81b6064820152608401610443565b600060208083528351808285015260005b818110156116b557858101830151858201604001528201611699565b818111156116c7576000604083870101525b50601f01601f1916929092016040019392505050565b6001600160a01b03811681146104f857600080fd5b80356116fd816116dd565b919050565b6000806040838503121561171557600080fd5b8235611720816116dd565b946020939093013593505050565b634e487b7160e01b600052604160045260246000fd5b6000602080838503121561175757600080fd5b823567ffffffffffffffff8082111561176f57600080fd5b818501915085601f83011261178357600080fd5b8135818111156117955761179561172e565b8060051b604051601f19603f830116810181811085821117156117ba576117ba61172e565b6040529182528482019250838101850191888311156117d857600080fd5b938501935b828510156117fd576117ee856116f2565b845293850193928501926117dd565b98975050505050505050565b60006020828403121561181b57600080fd5b5035919050565b60008060006060848603121561183757600080fd5b8335611842816116dd565b92506020840135611852816116dd565b929592945050506040919091013590565b60006020828403121561187557600080fd5b8135611091816116dd565b80151581146104f857600080fd5b6000602082840312156118a057600080fd5b813561109181611880565b600080604083850312156118be57600080fd5b82356118c9816116dd565b915060208301356118d9816116dd565b809150509250929050565b6020808252818101527f4f776e61626c653a2063616c6c6572206973206e6f7420746865206f776e6572604082015260600190565b634e487b7160e01b600052603260045260246000fd5b634e487b7160e01b600052601160045260246000fd5b60006000198214156119595761195961192f565b5060010190565b60006020828403121561197257600080fd5b8151611091816116dd565b60008060006060848603121561199257600080fd5b8351925060208401519150604084015190509250925092565b6000602082840312156119bd57600080fd5b815161109181611880565b600082198211156119db576119db61192f565b500190565b6000828210156119f2576119f261192f565b500390565b600060a082018783526020878185015260a0604085015281875180845260c086019150828901935060005b81811015611a475784516001600160a01b031683529383019391830191600101611a22565b50506001600160a01b03969096166060850152505050608001529392505050565b600082611a8557634e487b7160e01b600052601260045260246000fd5b500490565b6000816000190483118215151615611aa457611aa461192f565b50029056fe45524332303a207472616e7366657220616d6f756e74206578636565647320616c6c6f77616e6365a2646970667358221220e2a488ac0da7461f0bb98f1417405b427bf941256b821f6027918af6534002d764736f6c63430008090033"
  }
}