{
  "opcodeHash": "0x09e4fbaef467e9affa2d1cd66c5214fe7780f4d2bd7fbbf1a9d05b366fd58fc8",
  "metalessHash": "0x195d65e5eee41322b38e4501e804489ed2a7743c408dee5bd9e81279b7ef5cbb",
  "runtimeHash": "0xaea0f6bfee89bfb630aabdd483bfa03215bf6d5b942630b8efeeaf6980e9c55a",
  "encodedMetadata": [
    {
      "ipfs": "/ipfs/QmUqDbu2cbv7EiakJtUvfpxAqDacnkDMgZQ8zjn2vVScds",
      "solc": "0.6.12"
    }
  ],
  "abi": [
    {
      "inputs": [],
      "stateMutability": "nonpayable",
      "type": "constructor"
    },
    {
      "stateMutability": "payable",
      "type": "fallback"
    },
    {
      "inputs": [],
      "name": "buyBackMin",
      "outputs": [
        {
          "internalType": "uint256",
          "name": "",
          "type": "uint256"
        }
      ],
      "stateMutability": "view",
      "type": "function"
    },
    {
      "inputs": [
        {
          "internalType": "uint256",
          "name": "amount",
          "type": "uint256"
        },
        {
          "internalType": "uint256",
          "name": "_epoch",
          "type": "uint256"
        }
      ],
      "name": "calReward",
      "outputs": [
        {
          "internalType": "uint256",
          "name": "",
          "type": "uint256"
        }
      ],
      "stateMutability": "view",
      "type": "function"
    },
    {
      "inputs": [
        {
          "internalType": "string",
          "name": "",
          "type": "string"
        }
      ],
      "name": "cnameRegisted",
      "outputs": [
        {
          "internalType": "bool",
          "name": "",
          "type": "bool"
        }
      ],
      "stateMutability": "view",
      "type": "function"
    },
    {
      "inputs": [
        {
          "internalType": "uint256",
          "name": "",
          "type": "uint256"
        }
      ],
      "name": "communityInfo",
      "outputs": [
        {
          "internalType": "uint256",
          "name": "totalDeposit",
          "type": "uint256"
        },
        {
          "internalType": "uint256",
          "name": "totalUserCount",
          "type": "uint256"
        },
        {
          "internalType": "uint256",
          "name": "registBlock",
          "type": "uint256"
        },
        {
          "internalType": "string",
          "name": "cname",
          "type": "string"
        },
        {
          "internalType": "address",
          "name": "cowner",
          "type": "address"
        }
      ],
      "stateMutability": "view",
      "type": "function"
    },
    {
      "inputs": [],
      "name": "communitylen",
      "outputs": [
        {
          "internalType": "uint256",
          "name": "",
          "type": "uint256"
        }
      ],
      "stateMutability": "view",
      "type": "function"
    },
    {
      "inputs": [
        {
          "internalType": "address",
          "name": "_user",
          "type": "address"
        },
        {
          "internalType": "string",
          "name": "_cname",
          "type": "string"
        }
      ],
      "name": "createCommunity",
      "outputs": [],
      "stateMutability": "nonpayable",
      "type": "function"
    },
    {
      "inputs": [],
      "name": "curEpoch",
      "outputs": [
        {
          "internalType": "uint256",
          "name": "",
          "type": "uint256"
        }
      ],
      "stateMutability": "view",
      "type": "function"
    },
    {
      "inputs": [
        {
          "internalType": "address",
          "name": "",
          "type": "address"
        },
        {
          "internalType": "uint256",
          "name": "",
          "type": "uint256"
        }
      ],
      "name": "depositInfo",
      "outputs": [
        {
          "internalType": "uint256",
          "name": "depositVal",
          "type": "uint256"
        },
        {
          "internalType": "uint256",
          "name": "depositTimes",
          "type": "uint256"
        },
        {
          "internalType": "uint256",
          "name": "personReward",
          "type": "uint256"
        },
        {
          "internalType": "uint256",
          "name": "dynamicReward",
          "type": "uint256"
        },
        {
          "internalType": "bool",
          "name": "isWithdraw",
          "type": "bool"
        }
      ],
      "stateMutability": "view",
      "type": "function"
    },
    {
      "inputs": [
        {
          "internalType": "address",
          "name": "_user",
          "type": "address"
        },
        {
          "internalType": "address",
          "name": "_invitor",
          "type": "address"
        },
        {
          "internalType": "uint256",
          "name": "_cid",
          "type": "uint256"
        },
        {
          "internalType": "uint256",
          "name": "depositVal",
          "type": "uint256"
        },
        {
          "internalType": "bool",
          "name": "isNew",
          "type": "bool"
        }
      ],
      "name": "depositTodo",
      "outputs": [],
      "stateMutability": "nonpayable",
      "type": "function"
    },
    {
      "inputs": [],
      "name": "devAddr",
      "outputs": [
        {
          "internalType": "address payable",
          "name": "",
          "type": "address"
        }
      ],
      "stateMutability": "view",
      "type": "function"
    },
    {
      "inputs": [
        {
          "internalType": "uint256",
          "name": "",
          "type": "uint256"
        }
      ],
      "name": "epochInfo",
      "outputs": [
        {
          "internalType": "uint256",
          "name": "totalAmountToken",
          "type": "uint256"
        },
        {
          "internalType": "uint256",
          "name": "totalLimitEth",
          "type": "uint256"
        },
        {
          "internalType": "uint256",
          "name": "totalDeposit",
          "type": "uint256"
        },
        {
          "internalType": "bool",
          "name": "isOver",
          "type": "bool"
        }
      ],
      "stateMutability": "view",
      "type": "function"
    },
    {
      "inputs": [
        {
          "internalType": "address",
          "name": "_user",
          "type": "address"
        },
        {
          "internalType": "address",
          "name": "_invitor",
          "type": "address"
        }
      ],
      "name": "findIsReffer",
      "outputs": [
        {
          "internalType": "bool",
          "name": "isInsert",
          "type": "bool"
        }
      ],
      "stateMutability": "view",
      "type": "function"
    },
    {
      "inputs": [
        {
          "internalType": "address payable",
          "name": "_user",
          "type": "address"
        },
        {
          "internalType": "uint256",
          "name": "_amount",
          "type": "uint256"
        }
      ],
      "name": "getEthTodo",
      "outputs": [],
      "stateMutability": "nonpayable",
      "type": "function"
    },
    {
      "inputs": [
        {
          "internalType": "address",
          "name": "_to",
          "type": "address"
        },
        {
          "internalType": "uint256",
          "name": "_amount",
          "type": "uint256"
        }
      ],
      "name": "getOutKat",
      "outputs": [],
      "stateMutability": "nonpayable",
      "type": "function"
    },
    {
      "inputs": [
        {
          "internalType": "address",
          "name": "_to",
          "type": "address"
        },
        {
          "internalType": "uint256",
          "name": "_amount",
          "type": "uint256"
        }
      ],
      "name": "getOutUsdt",
      "outputs": [],
      "stateMutability": "nonpayable",
      "type": "function"
    },
    {
      "inputs": [
        {
          "internalType": "address payable",
          "name": "_user",
          "type": "address"
        },
        {
          "internalType": "uint256",
          "name": "_epoch",
          "type": "uint256"
        }
      ],
      "name": "getRewardTodo",
      "outputs": [],
      "stateMutability": "nonpayable",
      "type": "function"
    },
    {
      "inputs": [
        {
          "internalType": "address",
          "name": "_katAddr",
          "type": "address"
        },
        {
          "internalType": "address",
          "name": "_usdtAddr",
          "type": "address"
        }
      ],
      "name": "initializeEpoch",
      "outputs": [],
      "stateMutability": "nonpayable",
      "type": "function"
    },
    {
      "inputs": [],
      "name": "isInit",
      "outputs": [
        {
          "internalType": "bool",
          "name": "",
          "type": "bool"
        }
      ],
      "stateMutability": "view",
      "type": "function"
    },
    {
      "inputs": [
        {
          "internalType": "address",
          "name": "_user",
          "type": "address"
        }
      ],
      "name": "isRegisted",
      "outputs": [
        {
          "internalType": "bool",
          "name": "",
          "type": "bool"
        }
      ],
      "stateMutability": "view",
      "type": "function"
    },
    {
      "inputs": [],
      "name": "katAddr",
      "outputs": [
        {
          "internalType": "address",
          "name": "",
          "type": "address"
        }
      ],
      "stateMutability": "view",
      "type": "function"
    },
    {
      "inputs": [],
      "name": "katMan",
      "outputs": [
        {
          "internalType": "address",
          "name": "",
          "type": "address"
        }
      ],
      "stateMutability": "view",
      "type": "function"
    },
    {
      "inputs": [],
      "name": "oneEth",
      "outputs": [
        {
          "internalType": "uint256",
          "name": "",
          "type": "uint256"
        }
      ],
      "stateMutability": "view",
      "type": "function"
    },
    {
      "inputs": [],
      "name": "owner",
      "outputs": [
        {
          "internalType": "address",
          "name": "",
          "type": "address"
        }
      ],
      "stateMutability": "view",
      "type": "function"
    },
    {
      "inputs": [],
      "name": "priceFirst",
      "outputs": [
        {
          "internalType": "uint256",
          "name": "",
          "type": "uint256"
        }
      ],
      "stateMutability": "view",
      "type": "function"
    },
    {
      "inputs": [],
      "name": "priceSecond",
      "outputs": [
        {
          "internalType": "uint256",
          "name": "",
          "type": "uint256"
        }
      ],
      "stateMutability": "view",
      "type": "function"
    },
    {
      "inputs": [
        {
          "internalType": "address",
          "name": "",
          "type": "address"
        },
        {
          "internalType": "uint256",
          "name": "",
          "type": "uint256"
        }
      ],
      "name": "referArr",
      "outputs": [
        {
          "internalType": "address",
          "name": "",
          "type": "address"
        }
      ],
      "stateMutability": "view",
      "type": "function"
    },
    {
      "inputs": [
        {
          "internalType": "uint256",
          "name": "_amount",
          "type": "uint256"
        }
      ],
      "name": "sellKatForUsdt",
      "outputs": [],
      "stateMutability": "nonpayable",
      "type": "function"
    },
    {
      "inputs": [
        {
          "internalType": "uint256",
          "name": "_minNum",
          "type": "uint256"
        }
      ],
      "name": "setBuyBackMin",
      "outputs": [],
      "stateMutability": "nonpayable",
      "type": "function"
    },
    {
      "inputs": [
        {
          "internalType": "address payable",
          "name": "_devAddr",
          "type": "address"
        }
      ],
      "name": "setDevAddr",
      "outputs": [],
      "stateMutability": "nonpayable",
      "type": "function"
    },
    {
      "inputs": [
        {
          "internalType": "address",
          "name": "_katMan",
          "type": "address"
        }
      ],
      "name": "setKatManager",
      "outputs": [],
      "stateMutability": "nonpayable",
      "type": "function"
    },
    {
      "inputs": [
        {
          "internalType": "uint256",
          "name": "_priceFirst",
          "type": "uint256"
        }
      ],
      "name": "setPriceFirst",
      "outputs": [],
      "stateMutability": "nonpayable",
      "type": "function"
    },
    {
      "inputs": [
        {
          "internalType": "uint256",
          "name": "_priceSecond",
          "type": "uint256"
        }
      ],
      "name": "setPriceSecond",
      "outputs": [],
      "stateMutability": "nonpayable",
      "type": "function"
    },
    {
      "inputs": [
        {
          "internalType": "address",
          "name": "_owner",
          "type": "address"
        }
      ],
      "name": "transferOwnerShip",
      "outputs": [],
      "stateMutability": "nonpayable",
      "type": "function"
    },
    {
      "inputs": [],
      "name": "usdtAddr",
      "outputs": [
        {
          "internalType": "address",
          "name": "",
          "type": "address"
        }
      ],
      "stateMutability": "view",
      "type": "function"
    },
    {
      "inputs": [
        {
          "internalType": "address",
          "name": "",
          "type": "address"
        }
      ],
      "name": "userInfo",
      "outputs": [
        {
          "internalType": "address",
          "name": "invitor",
          "type": "address"
        },
        {
          "internalType": "uint256",
          "name": "registBlock",
          "type": "uint256"
        },
        {
          "internalType": "uint256",
          "name": "totalInvest",
          "type": "uint256"
        },
        {
          "internalType": "uint256",
          "name": "cid",
          "type": "uint256"
        }
      ],
      "stateMutability": "view",
      "type": "function"
    },
    {
      "inputs": [],
      "name": "viewContractEth",
      "outputs": [
        {
          "internalType": "uint256",
          "name": "",
          "type": "uint256"
        }
      ],
      "stateMutability": "view",
      "type": "function"
    },
    {
      "inputs": [
        {
          "internalType": "uint256",
          "name": "amount",
          "type": "uint256"
        }
      ],
      "name": "viewKatForUsdtAmount",
      "outputs": [
        {
          "internalType": "uint256",
          "name": "",
          "type": "uint256"
        }
      ],
      "stateMutability": "view",
      "type": "function"
    },
    {
      "inputs": [
        {
          "internalType": "address",
          "name": "_user",
          "type": "address"
        },
        {
          "internalType": "uint256",
          "name": "_epoch",
          "type": "uint256"
        }
      ],
      "name": "viewReward",
      "outputs": [
        {
          "internalType": "uint256",
          "name": "",
          "type": "uint256"
        }
      ],
      "stateMutability": "view",
      "type": "function"
    },
    {
      "stateMutability": "payable",
      "type": "receive"
    }
  ],
  "bytecode": {
    "object": "60806040526001600555670de0b6b3a76400006006556000600a5534801561002657600080fd5b50336000806101000a81548173ffffffffffffffffffffffffffffffffffffffff021916908373ffffffffffffffffffffffffffffffffffffffff16021790555033600160006101000a81548173ffffffffffffffffffffffffffffffffffffffff021916908373ffffffffffffffffffffffffffffffffffffffff16021790555043600e6000600160009054906101000a900473ffffffffffffffffffffffffffffffffffffffff1673ffffffffffffffffffffffffffffffffffffffff1673ffffffffffffffffffffffffffffffffffffffff16815260200190815260200160002060010181905550613642806101206000396000f3fe6080604052600436106102295760003560e01c806381b1c39911610123578063b4292bbd116100ab578063d955e9391161006f578063d955e93914610e72578063da09c72c14610ec3578063e555e1c214610f04578063eea9c37014610f53578063ff2c29a714610fac57610230565b8063b4292bbd14610c9b578063b9d774df14610d20578063bc551fa414610dad578063bfad226a14610dd8578063d888731514610e4757610230565b80638da5cb5b116100f25780638da5cb5b14610ab357806393bade3014610af4578063a8bac0ef14610b4f578063ae0f62b914610b90578063b145a5b814610c6e57610230565b806381b1c399146109a15780638863dd1a146109dc57806389b3986e14610a2d5780638bb72d1814610a8857610230565b80632ae2ac3f116101b15780636ebb64a2116101755780636ebb64a21461083457806372b5036b1461088557806374ffc143146108c057806378bb8f111461091b5780637a0308f81461094657610230565b80632ae2ac3f1461053e5780632cdb45db146106265780633328def6146106615780633894228e146106e85780636209d7e21461074e57610230565b8063106c8005116101f8578063106c8005146103a05780631554e1ce146103cb57806317b7cf2b1461040c5780631959a002146104735780632988ec911461050357610230565b8063029d56071461023257806307dcdaa31461027357806309a8d3f5146102e45780630f0d4bb61461030f57610230565b3661023057005b005b34801561023e57600080fd5b50610247610fd7565b604051808273ffffffffffffffffffffffffffffffffffffffff16815260200191505060405180910390f35b34801561027f57600080fd5b506102e26004803603604081101561029657600080fd5b81019080803573ffffffffffffffffffffffffffffffffffffffff169060200190929190803573ffffffffffffffffffffffffffffffffffffffff169060200190929190505050610ffd565b005b3480156102f057600080fd5b506102f9611307565b6040518082815260200191505060405180910390f35b34801561031b57600080fd5b5061039e600480360360a081101561033257600080fd5b81019080803573ffffffffffffffffffffffffffffffffffffffff169060200190929190803573ffffffffffffffffffffffffffffffffffffffff169060200190929190803590602001909291908035906020019092919080351515906020019092919050505061130d565b005b3480156103ac57600080fd5b506103b561169f565b6040518082815260200191505060405180910390f35b3480156103d757600080fd5b506103e06116a5565b604051808273ffffffffffffffffffffffffffffffffffffffff16815260200191505060405180910390f35b34801561041857600080fd5b5061045b6004803603602081101561042f57600080fd5b81019080803573ffffffffffffffffffffffffffffffffffffffff1690602001909291905050506116cb565b60405180821515815260200191505060405180910390f35b34801561047f57600080fd5b506104c26004803603602081101561049657600080fd5b81019080803573ffffffffffffffffffffffffffffffffffffffff169060200190929190505050611719565b604051808573ffffffffffffffffffffffffffffffffffffffff16815260200184815260200183815260200182815260200194505050505060405180910390f35b34801561050f57600080fd5b5061053c6004803603602081101561052657600080fd5b8101908080359060200190929190505050611769565b005b34801561054a57600080fd5b506106246004803603604081101561056157600080fd5b81019080803573ffffffffffffffffffffffffffffffffffffffff1690602001909291908035906020019064010000000081111561059e57600080fd5b8201836020820111156105b057600080fd5b803590602001918460018302840111640100000000831117156105d257600080fd5b91908080601f016020809104026020016040519081016040528093929190818152602001838380828437600081840152601f19601f820116905080830192505050505050509192919290505050611827565b005b34801561063257600080fd5b5061065f6004803603602081101561064957600080fd5b8101908080359060200190929190505050611a7b565b005b34801561066d57600080fd5b506106d06004803603604081101561068457600080fd5b81019080803573ffffffffffffffffffffffffffffffffffffffff169060200190929190803573ffffffffffffffffffffffffffffffffffffffff169060200190929190505050611add565b60405180821515815260200191505060405180910390f35b3480156106f457600080fd5b506107216004803603602081101561070b57600080fd5b8101908080359060200190929190505050611bf0565b60405180858152602001848152602001838152602001821515815260200194505050505060405180910390f35b34801561075a57600080fd5b506107876004803603602081101561077157600080fd5b8101908080359060200190929190505050611c2d565b60405180868152602001858152602001848152602001806020018373ffffffffffffffffffffffffffffffffffffffff168152602001828103825284818151815260200191508051906020019080838360005b838110156107f55780820151818401526020810190506107da565b50505050905090810190601f1680156108225780820380516001836020036101000a031916815260200191505b50965050505050505060405180910390f35b34801561084057600080fd5b506108836004803603602081101561085757600080fd5b81019080803573ffffffffffffffffffffffffffffffffffffffff169060200190929190505050611d1b565b005b34801561089157600080fd5b506108be600480360360208110156108a857600080fd5b8101908080359060200190929190505050611db7565b005b3480156108cc57600080fd5b50610919600480360360408110156108e357600080fd5b81019080803573ffffffffffffffffffffffffffffffffffffffff16906020019092919080359060200190929190505050611e19565b005b34801561092757600080fd5b50610930611ea2565b6040518082815260200191505060405180910390f35b34801561095257600080fd5b5061099f6004803603604081101561096957600080fd5b81019080803573ffffffffffffffffffffffffffffffffffffffff16906020019092919080359060200190929190505050611eaa565b005b3480156109ad57600080fd5b506109da600480360360208110156109c457600080fd5b8101908080359060200190929190505050612091565b005b3480156109e857600080fd5b50610a2b600480360360208110156109ff57600080fd5b81019080803573ffffffffffffffffffffffffffffffffffffffff1690602001909291905050506120f3565b005b348015610a3957600080fd5b50610a8660048036036040811015610a5057600080fd5b81019080803573ffffffffffffffffffffffffffffffffffffffff1690602001909291908035906020019092919050505061218e565b005b348015610a9457600080fd5b50610a9d612217565b6040518082815260200191505060405180910390f35b348015610abf57600080fd5b50610ac861221d565b604051808273ffffffffffffffffffffffffffffffffffffffff16815260200191505060405180910390f35b348015610b0057600080fd5b50610b4d60048036036040811015610b1757600080fd5b81019080803573ffffffffffffffffffffffffffffffffffffffff16906020019092919080359060200190929190505050612241565b005b348015610b5b57600080fd5b50610b646124c6565b604051808273ffffffffffffffffffffffffffffffffffffffff16815260200191505060405180910390f35b348015610b9c57600080fd5b50610c5660048036036020811015610bb357600080fd5b8101908080359060200190640100000000811115610bd057600080fd5b820183602082011115610be257600080fd5b80359060200191846001830284011164010000000083111715610c0457600080fd5b91908080601f016020809104026020016040519081016040528093929190818152602001838380828437600081840152601f19601f8201169050808301925050505050505091929192905050506124ec565b60405180821515815260200191505060405180910390f35b348015610c7a57600080fd5b50610c83612522565b60405180821515815260200191505060405180910390f35b348015610ca757600080fd5b50610cf460048036036040811015610cbe57600080fd5b81019080803573ffffffffffffffffffffffffffffffffffffffff16906020019092919080359060200190929190505050612535565b604051808273ffffffffffffffffffffffffffffffffffffffff16815260200191505060405180910390f35b348015610d2c57600080fd5b50610d7960048036036040811015610d4357600080fd5b81019080803573ffffffffffffffffffffffffffffffffffffffff16906020019092919080359060200190929190505050612580565b6040518086815260200185815260200184815260200183815260200182151581526020019550505050505060405180910390f35b348015610db957600080fd5b50610dc26125d0565b6040518082815260200191505060405180910390f35b348015610de457600080fd5b50610e3160048036036040811015610dfb57600080fd5b81019080803573ffffffffffffffffffffffffffffffffffffffff169060200190929190803590602001909291905050506125d6565b6040518082815260200191505060405180910390f35b348015610e5357600080fd5b50610e5c612713565b6040518082815260200191505060405180910390f35b348015610e7e57600080fd5b50610ec160048036036020811015610e9557600080fd5b81019080803573ffffffffffffffffffffffffffffffffffffffff169060200190929190505050612719565b005b348015610ecf57600080fd5b50610ed86127b5565b604051808273ffffffffffffffffffffffffffffffffffffffff16815260200191505060405180910390f35b348015610f1057600080fd5b50610f3d60048036036020811015610f2757600080fd5b81019080803590602001909291905050506127db565b6040518082815260200191505060405180910390f35b348015610f5f57600080fd5b50610f9660048036036040811015610f7657600080fd5b81019080803590602001909291908035906020019092919050505061280d565b6040518082815260200191505060405180910390f35b348015610fb857600080fd5b50610fc1612890565b6040518082815260200191505060405180910390f35b600460009054906101000a900473ffffffffffffffffffffffffffffffffffffffff1681565b60008054906101000a900473ffffffffffffffffffffffffffffffffffffffff1673ffffffffffffffffffffffffffffffffffffffff163373ffffffffffffffffffffffffffffffffffffffff161461105557600080fd5b600b60009054906101000a900460ff161561106f57600080fd5b81600260006101000a81548173ffffffffffffffffffffffffffffffffffffffff021916908373ffffffffffffffffffffffffffffffffffffffff16021790555080600360006101000a81548173ffffffffffffffffffffffffffffffffffffffff021916908373ffffffffffffffffffffffffffffffffffffffff1602179055506040518060800160405280611114620493e060065461289690919063ffffffff16565b815260200161113061271060065461289690919063ffffffff16565b81526020016000815260200160001515815250600f60006001815260200190815260200160002060008201518160000155602082015181600101556040820151816002015560608201518160030160006101000a81548160ff02191690831515021790555090505060405180608001604052806111bb620c350060065461289690919063ffffffff16565b81526020016111d8620186a060065461289690919063ffffffff16565b81526020016000815260200160001515815250600f60006002815260200190815260200160002060008201518160000155602082015181600101556040820151816002015560608201518160030160006101000a81548160ff0219169083151502179055509050506040518060800160405280611263622191c060065461289690919063ffffffff16565b8152602001611280620f424060065461289690919063ffffffff16565b81526020016000815260200160001515815250600f60006003815260200190815260200160002060008201518160000155602082015181600101556040820151816002015560608201518160030160006101000a81548160ff0219169083151502179055509050506001600b60006101000a81548160ff0219169083151502179055505050565b60065481565b600460009054906101000a900473ffffffffffffffffffffffffffffffffffffffff1673ffffffffffffffffffffffffffffffffffffffff163373ffffffffffffffffffffffffffffffffffffffff161461136757600080fd5b6000600f6000600554815260200190815260200160002090506000600e60008873ffffffffffffffffffffffffffffffffffffffff1673ffffffffffffffffffffffffffffffffffffffff16815260200190815260200160002090506000600d60008973ffffffffffffffffffffffffffffffffffffffff1673ffffffffffffffffffffffffffffffffffffffff168152602001908152602001600020600060055481526020019081526020016000209050600060106000888152602001908152602001600020905061144786856002015461291c90919063ffffffff16565b8460020181905550836001015484600201541061149857611474600160055461291c90919063ffffffff16565b60058190555060018460030160006101000a81548160ff0219169083151502179055505b6114af86846002015461291c90919063ffffffff16565b83600201819055506114ce86836000015461291c90919063ffffffff16565b82600001819055506114ee6001836001015461291c90919063ffffffff16565b826001018190555061150d86826000015461291c90919063ffffffff16565b8160000181905550611569600160009054906101000a900473ffffffffffffffffffffffffffffffffffffffff166115646127106115566103e88b61289690919063ffffffff16565b6129a490919063ffffffff16565b6129ee565b841561169457878360000160006101000a81548173ffffffffffffffffffffffffffffffffffffffff021916908373ffffffffffffffffffffffffffffffffffffffff1602179055504383600101819055508683600301819055506115dc6001826001015461291c90919063ffffffff16565b81600101819055506115ee888a611add565b61169357600c60008973ffffffffffffffffffffffffffffffffffffffff1673ffffffffffffffffffffffffffffffffffffffff168152602001908152602001600020899080600181540180825580915050600190039060005260206000200160009091909190916101000a81548173ffffffffffffffffffffffffffffffffffffffff021916908373ffffffffffffffffffffffffffffffffffffffff1602179055505b5b505050505050505050565b60095481565b600360009054906101000a900473ffffffffffffffffffffffffffffffffffffffff1681565b600080600e60008473ffffffffffffffffffffffffffffffffffffffff1673ffffffffffffffffffffffffffffffffffffffff16815260200190815260200160002060010154119050919050565b600e6020528060005260406000206000915090508060000160009054906101000a900473ffffffffffffffffffffffffffffffffffffffff16908060010154908060020154908060030154905084565b60075481101561177857600080fd5b6117e933600160009054906101000a900473ffffffffffffffffffffffffffffffffffffffff1683600260009054906101000a900473ffffffffffffffffffffffffffffffffffffffff1673ffffffffffffffffffffffffffffffffffffffff16612a8e909392919063ffffffff16565b60006117f4826127db565b9050611823600360009054906101000a900473ffffffffffffffffffffffffffffffffffffffff163383612b4f565b5050565b60008054906101000a900473ffffffffffffffffffffffffffffffffffffffff1673ffffffffffffffffffffffffffffffffffffffff163373ffffffffffffffffffffffffffffffffffffffff161461187f57600080fd5b6011816040518082805190602001908083835b602083106118b55780518252602082019150602081019050602083039250611892565b6001836020036101000a038019825116818451168082178552505050505050905001915050908152602001604051809103902060009054906101000a900460ff161561190057600080fd5b6119166001600a5461291c90919063ffffffff16565b600a819055506040518060a0016040528060008152602001600081526020014381526020018281526020018373ffffffffffffffffffffffffffffffffffffffff1681525060106000600a54815260200190815260200160002060008201518160000155602082015181600101556040820151816002015560608201518160030190805190602001906119aa9291906134f3565b5060808201518160040160006101000a81548173ffffffffffffffffffffffffffffffffffffffff021916908373ffffffffffffffffffffffffffffffffffffffff16021790555090505060016011826040518082805190602001908083835b60208310611a2d5780518252602082019150602081019050602083039250611a0a565b6001836020036101000a038019825116818451168082178552505050505050905001915050908152602001604051809103902060006101000a81548160ff0219169083151502179055505050565b60008054906101000a900473ffffffffffffffffffffffffffffffffffffffff1673ffffffffffffffffffffffffffffffffffffffff163373ffffffffffffffffffffffffffffffffffffffff1614611ad357600080fd5b8060078190555050565b6000805b600c60008573ffffffffffffffffffffffffffffffffffffffff1673ffffffffffffffffffffffffffffffffffffffff16815260200190815260200160002080549050811015611be957600c60008573ffffffffffffffffffffffffffffffffffffffff1673ffffffffffffffffffffffffffffffffffffffff1681526020019081526020016000208181548110611b7557fe5b9060005260206000200160009054906101000a900473ffffffffffffffffffffffffffffffffffffffff1673ffffffffffffffffffffffffffffffffffffffff168373ffffffffffffffffffffffffffffffffffffffff161415611bdc5760019150611be9565b8080600101915050611ae1565b5092915050565b600f6020528060005260406000206000915090508060000154908060010154908060020154908060030160009054906101000a900460ff16905084565b6010602052806000526040600020600091509050806000015490806001015490806002015490806003018054600181600116156101000203166002900480601f016020809104026020016040519081016040528092919081815260200182805460018160011615610100020316600290048015611ceb5780601f10611cc057610100808354040283529160200191611ceb565b820191906000526020600020905b815481529060010190602001808311611cce57829003601f168201915b5050505050908060040160009054906101000a900473ffffffffffffffffffffffffffffffffffffffff16905085565b60008054906101000a900473ffffffffffffffffffffffffffffffffffffffff1673ffffffffffffffffffffffffffffffffffffffff163373ffffffffffffffffffffffffffffffffffffffff1614611d7357600080fd5b80600160006101000a81548173ffffffffffffffffffffffffffffffffffffffff021916908373ffffffffffffffffffffffffffffffffffffffff16021790555050565b60008054906101000a900473ffffffffffffffffffffffffffffffffffffffff1673ffffffffffffffffffffffffffffffffffffffff163373ffffffffffffffffffffffffffffffffffffffff1614611e0f57600080fd5b8060088190555050565b60008054906101000a900473ffffffffffffffffffffffffffffffffffffffff1673ffffffffffffffffffffffffffffffffffffffff163373ffffffffffffffffffffffffffffffffffffffff1614611e7157600080fd5b611e9e600360009054906101000a900473ffffffffffffffffffffffffffffffffffffffff168383612b4f565b5050565b600047905090565b600460009054906101000a900473ffffffffffffffffffffffffffffffffffffffff1673ffffffffffffffffffffffffffffffffffffffff163373ffffffffffffffffffffffffffffffffffffffff1614611f0457600080fd5b6000600d60008473ffffffffffffffffffffffffffffffffffffffff1673ffffffffffffffffffffffffffffffffffffffff168152602001908152602001600020600083815260200190815260200160002090506000611f6882600001548461280d565b9050611fa084611f9b612710611f8d612328876000015461289690919063ffffffff16565b6129a490919063ffffffff16565b6129ee565b611fcd600260009054906101000a900473ffffffffffffffffffffffffffffffffffffffff168583612b4f565b80826002018190555060018260040160006101000a81548160ff02191690831515021790555061208a600e60008673ffffffffffffffffffffffffffffffffffffffff1673ffffffffffffffffffffffffffffffffffffffff16815260200190815260200160002060000160009054906101000a900473ffffffffffffffffffffffffffffffffffffffff1660016120846127106120766113888761289690919063ffffffff16565b6129a490919063ffffffff16565b86612c5f565b5050505050565b60008054906101000a900473ffffffffffffffffffffffffffffffffffffffff1673ffffffffffffffffffffffffffffffffffffffff163373ffffffffffffffffffffffffffffffffffffffff16146120e957600080fd5b8060098190555050565b60008054906101000a900473ffffffffffffffffffffffffffffffffffffffff1673ffffffffffffffffffffffffffffffffffffffff163373ffffffffffffffffffffffffffffffffffffffff161461214b57600080fd5b806000806101000a81548173ffffffffffffffffffffffffffffffffffffffff021916908373ffffffffffffffffffffffffffffffffffffffff16021790555050565b60008054906101000a900473ffffffffffffffffffffffffffffffffffffffff1673ffffffffffffffffffffffffffffffffffffffff163373ffffffffffffffffffffffffffffffffffffffff16146121e657600080fd5b612213600260009054906101000a900473ffffffffffffffffffffffffffffffffffffffff168383612b4f565b5050565b600a5481565b60008054906101000a900473ffffffffffffffffffffffffffffffffffffffff1681565b600460009054906101000a900473ffffffffffffffffffffffffffffffffffffffff1673ffffffffffffffffffffffffffffffffffffffff163373ffffffffffffffffffffffffffffffffffffffff161461229b57600080fd5b6000600f6000600554815260200190815260200160002090506000600e60008573ffffffffffffffffffffffffffffffffffffffff1673ffffffffffffffffffffffffffffffffffffffff16815260200190815260200160002090506000600d60008673ffffffffffffffffffffffffffffffffffffffff1673ffffffffffffffffffffffffffffffffffffffff168152602001908152602001600020600060055481526020019081526020016000209050600060106000846003015481526020019081526020016000209050848260000154101561237957600080fd5b848360020154101561238a57600080fd5b6123a1858360000154612f2990919063ffffffff16565b82600001819055506123c0858560020154612f2990919063ffffffff16565b84600201819055506123df858460020154612f2990919063ffffffff16565b83600201819055506123fe858260000154612f2990919063ffffffff16565b8160000181905550612438866124336127106124256123288a61289690919063ffffffff16565b6129a490919063ffffffff16565b6129ee565b6000836002015414156124be57600083600301819055506000836001018190555060008360000160006101000a81548173ffffffffffffffffffffffffffffffffffffffff021916908373ffffffffffffffffffffffffffffffffffffffff1602179055506124b560018260010154612f2990919063ffffffff16565b81600101819055505b505050505050565b600260009054906101000a900473ffffffffffffffffffffffffffffffffffffffff1681565b6011818051602081018201805184825260208301602085012081835280955050505050506000915054906101000a900460ff1681565b600b60009054906101000a900460ff1681565b600c602052816000526040600020818154811061254e57fe5b906000526020600020016000915091509054906101000a900473ffffffffffffffffffffffffffffffffffffffff1681565b600d602052816000526040600020602052806000526040600020600091509150508060000154908060010154908060020154908060030154908060040160009054906101000a900460ff16905085565b60075481565b6000600f600083815260200190815260200160002060030160009054906101000a900460ff161561270857612609613573565b600d60008573ffffffffffffffffffffffffffffffffffffffff1673ffffffffffffffffffffffffffffffffffffffff16815260200190815260200160002060008481526020019081526020016000206040518060a0016040529081600082015481526020016001820154815260200160028201548152602001600382015481526020016004820160009054906101000a900460ff16151515158152505090508060800151156126d6576126ce8160400151826060015161291c90919063ffffffff16565b91505061270d565b60006126e682600001518561280d565b90506126ff82606001518261291c90919063ffffffff16565b9250505061270d565b600090505b92915050565b60055481565b60008054906101000a900473ffffffffffffffffffffffffffffffffffffffff1673ffffffffffffffffffffffffffffffffffffffff163373ffffffffffffffffffffffffffffffffffffffff161461277157600080fd5b80600460006101000a81548173ffffffffffffffffffffffffffffffffffffffff021916908373ffffffffffffffffffffffffffffffffffffffff16021790555050565b600160009054906101000a900473ffffffffffffffffffffffffffffffffffffffff1681565b60006128066006546127f86009548561289690919063ffffffff16565b6129a490919063ffffffff16565b9050919050565b6000612888600f60008481526020019081526020016000206002015461287a61271061286c61138861285e89600f60008b81526020019081526020016000206000015461289690919063ffffffff16565b61289690919063ffffffff16565b6129a490919063ffffffff16565b6129a490919063ffffffff16565b905092915050565b60085481565b6000808314156128a95760009050612916565b60008284029050828482816128ba57fe5b0414612911576040517f08c379a00000000000000000000000000000000000000000000000000000000081526004018080602001828103825260218152602001806135c26021913960400191505060405180910390fd5b809150505b92915050565b60008082840190508381101561299a576040517f08c379a000000000000000000000000000000000000000000000000000000000815260040180806020018281038252601b8152602001807f536166654d6174683a206164646974696f6e206f766572666c6f77000000000081525060200191505060405180910390fd5b8091505092915050565b60006129e683836040518060400160405280601a81526020017f536166654d6174683a206469766973696f6e206279207a65726f000000000000815250612f73565b905092915050565b80471115612a42578173ffffffffffffffffffffffffffffffffffffffff166108fc829081150290604051600060405180830381858888f19350505050158015612a3c573d6000803e3d6000fd5b50612a8a565b8173ffffffffffffffffffffffffffffffffffffffff166108fc479081150290604051600060405180830381858888f19350505050158015612a88573d6000803e3d6000fd5b505b5050565b612b49846323b872dd60e01b858585604051602401808473ffffffffffffffffffffffffffffffffffffffff1681526020018373ffffffffffffffffffffffffffffffffffffffff1681526020018281526020019350505050604051602081830303815290604052907bffffffffffffffffffffffffffffffffffffffffffffffffffffffff19166020820180517bffffffffffffffffffffffffffffffffffffffffffffffffffffffff8381831617835250505050613039565b50505050565b60008373ffffffffffffffffffffffffffffffffffffffff166370a08231306040518263ffffffff1660e01b8152600401808273ffffffffffffffffffffffffffffffffffffffff16815260200191505060206040518083038186803b158015612bb857600080fd5b505afa158015612bcc573d6000803e3d6000fd5b505050506040513d6020811015612be257600080fd5b8101908080519060200190929190505050905081811115612c2d57612c2883838673ffffffffffffffffffffffffffffffffffffffff166131289092919063ffffffff16565b612c59565b612c5883828673ffffffffffffffffffffffffffffffffffffffff166131289092919063ffffffff16565b5b50505050565b600060088411158015612c9f5750600073ffffffffffffffffffffffffffffffffffffffff168573ffffffffffffffffffffffffffffffffffffffff1614155b8015612cf95750600160009054906101000a900473ffffffffffffffffffffffffffffffffffffffff1673ffffffffffffffffffffffffffffffffffffffff168573ffffffffffffffffffffffffffffffffffffffff1614155b8015612dc857506000600260009054906101000a900473ffffffffffffffffffffffffffffffffffffffff1673ffffffffffffffffffffffffffffffffffffffff166370a08231306040518263ffffffff1660e01b8152600401808273ffffffffffffffffffffffffffffffffffffffff16815260200191505060206040518083038186803b158015612d8b57600080fd5b505afa158015612d9f573d6000803e3d6000fd5b505050506040513d6020811015612db557600080fd5b8101908080519060200190929190505050115b15612f1c576000600d60008773ffffffffffffffffffffffffffffffffffffffff1673ffffffffffffffffffffffffffffffffffffffff16815260200190815260200160002060008481526020019081526020016000209050600081600001541115612e7b57612e5b600260009054906101000a900473ffffffffffffffffffffffffffffffffffffffff168786612b4f565b612e7284826003015461291c90919063ffffffff16565b81600301819055505b612f14600e60008873ffffffffffffffffffffffffffffffffffffffff1673ffffffffffffffffffffffffffffffffffffffff16815260200190815260200160002060000160009054906101000a900473ffffffffffffffffffffffffffffffffffffffff1660018701612f0e612710612f006113888a61289690919063ffffffff16565b6129a490919063ffffffff16565b86612c5f565b915050612f21565b600090505b949350505050565b6000612f6b83836040518060400160405280601e81526020017f536166654d6174683a207375627472616374696f6e206f766572666c6f7700008152506131ca565b905092915050565b6000808311829061301f576040517f08c379a00000000000000000000000000000000000000000000000000000000081526004018080602001828103825283818151815260200191508051906020019080838360005b83811015612fe4578082015181840152602081019050612fc9565b50505050905090810190601f1680156130115780820380516001836020036101000a031916815260200191505b509250505060405180910390fd5b50600083858161302b57fe5b049050809150509392505050565b606061309b826040518060400160405280602081526020017f5361666545524332303a206c6f772d6c6576656c2063616c6c206661696c65648152508573ffffffffffffffffffffffffffffffffffffffff1661328a9092919063ffffffff16565b9050600081511115613123578080602001905160208110156130bc57600080fd5b8101908080519060200190929190505050613122576040517f08c379a000000000000000000000000000000000000000000000000000000000815260040180806020018281038252602a8152602001806135e3602a913960400191505060405180910390fd5b5b505050565b6131c58363a9059cbb60e01b8484604051602401808373ffffffffffffffffffffffffffffffffffffffff16815260200182815260200192505050604051602081830303815290604052907bffffffffffffffffffffffffffffffffffffffffffffffffffffffff19166020820180517bffffffffffffffffffffffffffffffffffffffffffffffffffffffff8381831617835250505050613039565b505050565b6000838311158290613277576040517f08c379a00000000000000000000000000000000000000000000000000000000081526004018080602001828103825283818151815260200191508051906020019080838360005b8381101561323c578082015181840152602081019050613221565b50505050905090810190601f1680156132695780820380516001836020036101000a031916815260200191505b509250505060405180910390fd5b5060008385039050809150509392505050565b606061329984846000856132a2565b90509392505050565b60606132ad856134a8565b61331f576040517f08c379a000000000000000000000000000000000000000000000000000000000815260040180806020018281038252601d8152602001807f416464726573733a2063616c6c20746f206e6f6e2d636f6e747261637400000081525060200191505060405180910390fd5b600060608673ffffffffffffffffffffffffffffffffffffffff1685876040518082805190602001908083835b6020831061336f578051825260208201915060208101905060208303925061334c565b6001836020036101000a03801982511681845116808217855250505050505090500191505060006040518083038185875af1925050503d80600081146133d1576040519150601f19603f3d011682016040523d82523d6000602084013e6133d6565b606091505b509150915081156133eb5780925050506134a0565b6000815111156133fe5780518082602001fd5b836040517f08c379a00000000000000000000000000000000000000000000000000000000081526004018080602001828103825283818151815260200191508051906020019080838360005b8381101561346557808201518184015260208101905061344a565b50505050905090810190601f1680156134925780820380516001836020036101000a031916815260200191505b509250505060405180910390fd5b949350505050565b60008060007fc5d2460186f7233c927e7db2dcc703c0e500b653ca82273b7bfad8045d85a47060001b9050833f91508082141580156134ea57506000801b8214155b92505050919050565b828054600181600116156101000203166002900490600052602060002090601f016020900481019282601f1061353457805160ff1916838001178555613562565b82800160010185558215613562579182015b82811115613561578251825591602001919060010190613546565b5b50905061356f91906135a4565b5090565b6040518060a00160405280600081526020016000815260200160008152602001600081526020016000151581525090565b5b808211156135bd5760008160009055506001016135a5565b509056fe536166654d6174683a206d756c7469706c69636174696f6e206f766572666c6f775361666545524332303a204552433230206f7065726174696f6e20646964206e6f742073756363656564a2646970667358221220846f3d3b23791f562c6f4e18399c645b4602b9a3407aa766e73165df48fbd98e64736f6c634300060c0033"
  }
}