{
  "opcodeHash": "0x726538a54ced6dbd68e2ef56c73a5e5d675a08640008facd6226fed51a72f47c",
  "metalessHash": "0xcb32549cc602015ff34a451b4af2398e89b5cd11ea3eca9727fb140240d9bcd5",
  "runtimeHash": "0x410706e61150ab7d8dab36b667846f0976f8175541defd98ec95f49e4f64b5ac",
  "encodedMetadata": [
    {
      "ipfs": "/ipfs/QmXFngwoEFRBVHnPD1Tysyz1DH3tRpcEtLfEqF9dngM8G2",
      "solc": "0.8.4"
    }
  ],
  "abi": [
    {
      "inputs": [],
      "stateMutability": "nonpayable",
      "type": "constructor"
    },
    {
      "anonymous": false,
      "inputs": [
        {
          "indexed": true,
          "internalType": "address",
          "name": "owner",
          "type": "address"
        },
        {
          "indexed": true,
          "internalType": "address",
          "name": "spender",
          "type": "address"
        },
        {
          "indexed": false,
          "internalType": "uint256",
          "name": "value",
          "type": "uint256"
        }
      ],
      "name": "Approval",
      "type": "event"
    },
    {
      "anonymous": false,
      "inputs": [
        {
          "indexed": true,
          "internalType": "uint256",
          "name": "newValue",
          "type": "uint256"
        },
        {
          "indexed": true,
          "internalType": "uint256",
          "name": "oldValue",
          "type": "uint256"
        }
      ],
      "name": "GasForProcessingUpdated",
      "type": "event"
    },
    {
      "anonymous": false,
      "inputs": [
        {
          "indexed": true,
          "internalType": "uint256",
          "name": "newValue",
          "type": "uint256"
        },
        {
          "indexed": true,
          "internalType": "uint256",
          "name": "oldValue",
          "type": "uint256"
        }
      ],
      "name": "LiquidationThresholdUpdated",
      "type": "event"
    },
    {
      "anonymous": false,
      "inputs": [
        {
          "indexed": true,
          "internalType": "address",
          "name": "newLiquidityWallet",
          "type": "address"
        },
        {
          "indexed": true,
          "internalType": "address",
          "name": "oldLiquidityWallet",
          "type": "address"
        }
      ],
      "name": "LiquidityWalletUpdated",
      "type": "event"
    },
    {
      "anonymous": false,
      "inputs": [
        {
          "indexed": false,
          "internalType": "uint256",
          "name": "tokensSwapped",
          "type": "uint256"
        },
        {
          "indexed": false,
          "internalType": "uint256",
          "name": "ethReceived",
          "type": "uint256"
        },
        {
          "indexed": false,
          "internalType": "uint256",
          "name": "tokensIntoLiqudity",
          "type": "uint256"
        }
      ],
      "name": "Liquified",
      "type": "event"
    },
    {
      "anonymous": false,
      "inputs": [
        {
          "indexed": true,
          "internalType": "address",
          "name": "previousOwner",
          "type": "address"
        },
        {
          "indexed": true,
          "internalType": "address",
          "name": "newOwner",
          "type": "address"
        }
      ],
      "name": "OwnershipTransferred",
      "type": "event"
    },
    {
      "anonymous": false,
      "inputs": [
        {
          "indexed": false,
          "internalType": "uint256",
          "name": "iterations",
          "type": "uint256"
        },
        {
          "indexed": false,
          "internalType": "uint256",
          "name": "claims",
          "type": "uint256"
        },
        {
          "indexed": false,
          "internalType": "uint256",
          "name": "lastProcessedIndex",
          "type": "uint256"
        },
        {
          "indexed": true,
          "internalType": "bool",
          "name": "automatic",
          "type": "bool"
        },
        {
          "indexed": false,
          "internalType": "uint256",
          "name": "gas",
          "type": "uint256"
        },
        {
          "indexed": true,
          "internalType": "address",
          "name": "processor",
          "type": "address"
        }
      ],
      "name": "ProcessedDividendTracker",
      "type": "event"
    },
    {
      "anonymous": false,
      "inputs": [
        {
          "indexed": false,
          "internalType": "uint256",
          "name": "tokensSwapped",
          "type": "uint256"
        },
        {
          "indexed": false,
          "internalType": "uint256",
          "name": "amount",
          "type": "uint256"
        }
      ],
      "name": "SentDividends",
      "type": "event"
    },
    {
      "anonymous": false,
      "inputs": [
        {
          "indexed": true,
          "internalType": "address",
          "name": "pair",
          "type": "address"
        },
        {
          "indexed": true,
          "internalType": "bool",
          "name": "value",
          "type": "bool"
        }
      ],
      "name": "SetAutomatedMarketMakerPair",
      "type": "event"
    },
    {
      "anonymous": false,
      "inputs": [
        {
          "indexed": false,
          "internalType": "uint256",
          "name": "tokensSwapped",
          "type": "uint256"
        },
        {
          "indexed": false,
          "internalType": "uint256",
          "name": "ethReceived",
          "type": "uint256"
        }
      ],
      "name": "SwapAndSendToDev",
      "type": "event"
    },
    {
      "anonymous": false,
      "inputs": [
        {
          "indexed": true,
          "internalType": "address",
          "name": "from",
          "type": "address"
        },
        {
          "indexed": true,
          "internalType": "address",
          "name": "to",
          "type": "address"
        },
        {
          "indexed": false,
          "internalType": "uint256",
          "name": "value",
          "type": "uint256"
        }
      ],
      "name": "Transfer",
      "type": "event"
    },
    {
      "anonymous": false,
      "inputs": [
        {
          "indexed": true,
          "internalType": "address",
          "name": "newAddress",
          "type": "address"
        },
        {
          "indexed": true,
          "internalType": "address",
          "name": "oldAddress",
          "type": "address"
        }
      ],
      "name": "UpdatedDividendTracker",
      "type": "event"
    },
    {
      "anonymous": false,
      "inputs": [
        {
          "indexed": true,
          "internalType": "address",
          "name": "newAddress",
          "type": "address"
        },
        {
          "indexed": true,
          "internalType": "address",
          "name": "oldAddress",
          "type": "address"
        }
      ],
      "name": "UpdatedUniswapV2Router",
      "type": "event"
    },
    {
      "inputs": [],
      "name": "ETH_REWARDS_FEE",
      "outputs": [
        {
          "internalType": "uint256",
          "name": "",
          "type": "uint256"
        }
      ],
      "stateMutability": "view",
      "type": "function"
    },
    {
      "inputs": [],
      "name": "LIQUIDITY_FEE",
      "outputs": [
        {
          "internalType": "uint256",
          "name": "",
          "type": "uint256"
        }
      ],
      "stateMutability": "view",
      "type": "function"
    },
    {
      "inputs": [],
      "name": "MAX_SELL_TRANSACTION_AMOUNT",
      "outputs": [
        {
          "internalType": "uint256",
          "name": "",
          "type": "uint256"
        }
      ],
      "stateMutability": "view",
      "type": "function"
    },
    {
      "inputs": [],
      "name": "TOTAL_FEES",
      "outputs": [
        {
          "internalType": "uint256",
          "name": "",
          "type": "uint256"
        }
      ],
      "stateMutability": "view",
      "type": "function"
    },
    {
      "inputs": [
        {
          "internalType": "address",
          "name": "account",
          "type": "address"
        }
      ],
      "name": "addBotToBlackList",
      "outputs": [],
      "stateMutability": "nonpayable",
      "type": "function"
    },
    {
      "inputs": [
        {
          "internalType": "address",
          "name": "owner",
          "type": "address"
        },
        {
          "internalType": "address",
          "name": "spender",
          "type": "address"
        }
      ],
      "name": "allowance",
      "outputs": [
        {
          "internalType": "uint256",
          "name": "",
          "type": "uint256"
        }
      ],
      "stateMutability": "view",
      "type": "function"
    },
    {
      "inputs": [
        {
          "internalType": "address",
          "name": "spender",
          "type": "address"
        },
        {
          "internalType": "uint256",
          "name": "amount",
          "type": "uint256"
        }
      ],
      "name": "approve",
      "outputs": [
        {
          "internalType": "bool",
          "name": "",
          "type": "bool"
        }
      ],
      "stateMutability": "nonpayable",
      "type": "function"
    },
    {
      "inputs": [
        {
          "internalType": "address",
          "name": "",
          "type": "address"
        }
      ],
      "name": "automatedMarketMakerPairs",
      "outputs": [
        {
          "internalType": "bool",
          "name": "",
          "type": "bool"
        }
      ],
      "stateMutability": "view",
      "type": "function"
    },
    {
      "inputs": [
        {
          "internalType": "address",
          "name": "account",
          "type": "address"
        }
      ],
      "name": "balanceOf",
      "outputs": [
        {
          "internalType": "uint256",
          "name": "",
          "type": "uint256"
        }
      ],
      "stateMutability": "view",
      "type": "function"
    },
    {
      "inputs": [
        {
          "internalType": "address",
          "name": "",
          "type": "address"
        }
      ],
      "name": "canTransferBeforeTradingIsEnabled",
      "outputs": [
        {
          "internalType": "bool",
          "name": "",
          "type": "bool"
        }
      ],
      "stateMutability": "view",
      "type": "function"
    },
    {
      "inputs": [],
      "name": "claim",
      "outputs": [],
      "stateMutability": "nonpayable",
      "type": "function"
    },
    {
      "inputs": [],
      "name": "decimals",
      "outputs": [
        {
          "internalType": "uint8",
          "name": "",
          "type": "uint8"
        }
      ],
      "stateMutability": "view",
      "type": "function"
    },
    {
      "inputs": [
        {
          "internalType": "address",
          "name": "spender",
          "type": "address"
        },
        {
          "internalType": "uint256",
          "name": "subtractedValue",
          "type": "uint256"
        }
      ],
      "name": "decreaseAllowance",
      "outputs": [
        {
          "internalType": "bool",
          "name": "",
          "type": "bool"
        }
      ],
      "stateMutability": "nonpayable",
      "type": "function"
    },
    {
      "inputs": [
        {
          "internalType": "address",
          "name": "account",
          "type": "address"
        }
      ],
      "name": "dividendTokenBalanceOf",
      "outputs": [
        {
          "internalType": "uint256",
          "name": "",
          "type": "uint256"
        }
      ],
      "stateMutability": "view",
      "type": "function"
    },
    {
      "inputs": [],
      "name": "dividendTracker",
      "outputs": [
        {
          "internalType": "contract XRPUDividendTracker",
          "name": "",
          "type": "address"
        }
      ],
      "stateMutability": "view",
      "type": "function"
    },
    {
      "inputs": [
        {
          "internalType": "bool",
          "name": "_devFeeEnabled",
          "type": "bool"
        }
      ],
      "name": "enableDisableDevFee",
      "outputs": [
        {
          "internalType": "bool",
          "name": "",
          "type": "bool"
        }
      ],
      "stateMutability": "nonpayable",
      "type": "function"
    },
    {
      "inputs": [
        {
          "internalType": "address",
          "name": "account",
          "type": "address"
        }
      ],
      "name": "excludeFromFees",
      "outputs": [],
      "stateMutability": "nonpayable",
      "type": "function"
    },
    {
      "inputs": [],
      "name": "gasForProcessing",
      "outputs": [
        {
          "internalType": "uint256",
          "name": "",
          "type": "uint256"
        }
      ],
      "stateMutability": "view",
      "type": "function"
    },
    {
      "inputs": [
        {
          "internalType": "address",
          "name": "account",
          "type": "address"
        }
      ],
      "name": "getAccountDividendsInfo",
      "outputs": [
        {
          "internalType": "address",
          "name": "",
          "type": "address"
        },
        {
          "internalType": "int256",
          "name": "",
          "type": "int256"
        },
        {
          "internalType": "int256",
          "name": "",
          "type": "int256"
        },
        {
          "internalType": "uint256",
          "name": "",
          "type": "uint256"
        },
        {
          "internalType": "uint256",
          "name": "",
          "type": "uint256"
        },
        {
          "internalType": "uint256",
          "name": "",
          "type": "uint256"
        },
        {
          "internalType": "uint256",
          "name": "",
          "type": "uint256"
        },
        {
          "internalType": "uint256",
          "name": "",
          "type": "uint256"
        }
      ],
      "stateMutability": "view",
      "type": "function"
    },
    {
      "inputs": [
        {
          "internalType": "uint256",
          "name": "index",
          "type": "uint256"
        }
      ],
      "name": "getAccountDividendsInfoAtIndex",
      "outputs": [
        {
          "internalType": "address",
          "name": "",
          "type": "address"
        },
        {
          "internalType": "int256",
          "name": "",
          "type": "int256"
        },
        {
          "internalType": "int256",
          "name": "",
          "type": "int256"
        },
        {
          "internalType": "uint256",
          "name": "",
          "type": "uint256"
        },
        {
          "internalType": "uint256",
          "name": "",
          "type": "uint256"
        },
        {
          "internalType": "uint256",
          "name": "",
          "type": "uint256"
        },
        {
          "internalType": "uint256",
          "name": "",
          "type": "uint256"
        },
        {
          "internalType": "uint256",
          "name": "",
          "type": "uint256"
        }
      ],
      "stateMutability": "view",
      "type": "function"
    },
    {
      "inputs": [],
      "name": "getClaimWait",
      "outputs": [
        {
          "internalType": "uint256",
          "name": "",
          "type": "uint256"
        }
      ],
      "stateMutability": "view",
      "type": "function"
    },
    {
      "inputs": [],
      "name": "getGasForTransfer",
      "outputs": [
        {
          "internalType": "uint256",
          "name": "",
          "type": "uint256"
        }
      ],
      "stateMutability": "view",
      "type": "function"
    },
    {
      "inputs": [],
      "name": "getLastProcessedIndex",
      "outputs": [
        {
          "internalType": "uint256",
          "name": "",
          "type": "uint256"
        }
      ],
      "stateMutability": "view",
      "type": "function"
    },
    {
      "inputs": [],
      "name": "getNumberOfDividendTokenHolders",
      "outputs": [
        {
          "internalType": "uint256",
          "name": "",
          "type": "uint256"
        }
      ],
      "stateMutability": "view",
      "type": "function"
    },
    {
      "inputs": [],
      "name": "getTotalDividendsDistributed",
      "outputs": [
        {
          "internalType": "uint256",
          "name": "",
          "type": "uint256"
        }
      ],
      "stateMutability": "view",
      "type": "function"
    },
    {
      "inputs": [
        {
          "internalType": "address",
          "name": "spender",
          "type": "address"
        },
        {
          "internalType": "uint256",
          "name": "addedValue",
          "type": "uint256"
        }
      ],
      "name": "increaseAllowance",
      "outputs": [
        {
          "internalType": "bool",
          "name": "",
          "type": "bool"
        }
      ],
      "stateMutability": "nonpayable",
      "type": "function"
    },
    {
      "inputs": [
        {
          "internalType": "address",
          "name": "account",
          "type": "address"
        }
      ],
      "name": "isExcludedFromFees",
      "outputs": [
        {
          "internalType": "bool",
          "name": "",
          "type": "bool"
        }
      ],
      "stateMutability": "view",
      "type": "function"
    },
    {
      "inputs": [],
      "name": "liquidateTokensAtAmount",
      "outputs": [
        {
          "internalType": "uint256",
          "name": "",
          "type": "uint256"
        }
      ],
      "stateMutability": "view",
      "type": "function"
    },
    {
      "inputs": [],
      "name": "liquidityWallet",
      "outputs": [
        {
          "internalType": "address",
          "name": "",
          "type": "address"
        }
      ],
      "stateMutability": "view",
      "type": "function"
    },
    {
      "inputs": [],
      "name": "name",
      "outputs": [
        {
          "internalType": "string",
          "name": "",
          "type": "string"
        }
      ],
      "stateMutability": "view",
      "type": "function"
    },
    {
      "inputs": [],
      "name": "owner",
      "outputs": [
        {
          "internalType": "address",
          "name": "",
          "type": "address"
        }
      ],
      "stateMutability": "view",
      "type": "function"
    },
    {
      "inputs": [
        {
          "internalType": "uint256",
          "name": "gas",
          "type": "uint256"
        }
      ],
      "name": "processDividendTracker",
      "outputs": [],
      "stateMutability": "nonpayable",
      "type": "function"
    },
    {
      "inputs": [
        {
          "internalType": "uint256",
          "name": "tokenAmount",
          "type": "uint256"
        }
      ],
      "name": "recoverTokens",
      "outputs": [],
      "stateMutability": "nonpayable",
      "type": "function"
    },
    {
      "inputs": [
        {
          "internalType": "address",
          "name": "account",
          "type": "address"
        }
      ],
      "name": "removeBotFromBlackList",
      "outputs": [],
      "stateMutability": "nonpayable",
      "type": "function"
    },
    {
      "inputs": [],
      "name": "renounceOwnership",
      "outputs": [],
      "stateMutability": "nonpayable",
      "type": "function"
    },
    {
      "inputs": [
        {
          "internalType": "address",
          "name": "pair",
          "type": "address"
        },
        {
          "internalType": "bool",
          "name": "value",
          "type": "bool"
        }
      ],
      "name": "setAutomatedMarketMakerPair",
      "outputs": [],
      "stateMutability": "nonpayable",
      "type": "function"
    },
    {
      "inputs": [
        {
          "internalType": "bool",
          "name": "enabled",
          "type": "bool"
        }
      ],
      "name": "setMaxBuyEnabled",
      "outputs": [],
      "stateMutability": "nonpayable",
      "type": "function"
    },
    {
      "inputs": [
        {
          "internalType": "bool",
          "name": "open",
          "type": "bool"
        }
      ],
      "name": "setOpenForPresale",
      "outputs": [],
      "stateMutability": "nonpayable",
      "type": "function"
    },
    {
      "inputs": [
        {
          "internalType": "bool",
          "name": "swapEnabled",
          "type": "bool"
        }
      ],
      "name": "setswapEnabled",
      "outputs": [],
      "stateMutability": "nonpayable",
      "type": "function"
    },
    {
      "inputs": [
        {
          "internalType": "bool",
          "name": "_tradingEnabled",
          "type": "bool"
        }
      ],
      "name": "settradingEnabled",
      "outputs": [],
      "stateMutability": "nonpayable",
      "type": "function"
    },
    {
      "inputs": [],
      "name": "symbol",
      "outputs": [
        {
          "internalType": "string",
          "name": "",
          "type": "string"
        }
      ],
      "stateMutability": "view",
      "type": "function"
    },
    {
      "inputs": [],
      "name": "totalSupply",
      "outputs": [
        {
          "internalType": "uint256",
          "name": "",
          "type": "uint256"
        }
      ],
      "stateMutability": "view",
      "type": "function"
    },
    {
      "inputs": [],
      "name": "tradingEnabled",
      "outputs": [
        {
          "internalType": "bool",
          "name": "",
          "type": "bool"
        }
      ],
      "stateMutability": "view",
      "type": "function"
    },
    {
      "inputs": [
        {
          "internalType": "address",
          "name": "recipient",
          "type": "address"
        },
        {
          "internalType": "uint256",
          "name": "amount",
          "type": "uint256"
        }
      ],
      "name": "transfer",
      "outputs": [
        {
          "internalType": "bool",
          "name": "",
          "type": "bool"
        }
      ],
      "stateMutability": "nonpayable",
      "type": "function"
    },
    {
      "inputs": [
        {
          "internalType": "address",
          "name": "sender",
          "type": "address"
        },
        {
          "internalType": "address",
          "name": "recipient",
          "type": "address"
        },
        {
          "internalType": "uint256",
          "name": "amount",
          "type": "uint256"
        }
      ],
      "name": "transferFrom",
      "outputs": [
        {
          "internalType": "bool",
          "name": "",
          "type": "bool"
        }
      ],
      "stateMutability": "nonpayable",
      "type": "function"
    },
    {
      "inputs": [
        {
          "internalType": "address",
          "name": "newOwner",
          "type": "address"
        }
      ],
      "name": "transferOwnership",
      "outputs": [],
      "stateMutability": "nonpayable",
      "type": "function"
    },
    {
      "inputs": [],
      "name": "uniswapV2Pair",
      "outputs": [
        {
          "internalType": "address",
          "name": "",
          "type": "address"
        }
      ],
      "stateMutability": "view",
      "type": "function"
    },
    {
      "inputs": [],
      "name": "uniswapV2Router",
      "outputs": [
        {
          "internalType": "contract IUniswapV2Router02",
          "name": "",
          "type": "address"
        }
      ],
      "stateMutability": "view",
      "type": "function"
    },
    {
      "inputs": [
        {
          "internalType": "uint256",
          "name": "claimWait",
          "type": "uint256"
        }
      ],
      "name": "updateClaimWait",
      "outputs": [],
      "stateMutability": "nonpayable",
      "type": "function"
    },
    {
      "inputs": [
        {
          "internalType": "uint256",
          "name": "newValue",
          "type": "uint256"
        }
      ],
      "name": "updateGasForProcessing",
      "outputs": [],
      "stateMutability": "nonpayable",
      "type": "function"
    },
    {
      "inputs": [
        {
          "internalType": "uint256",
          "name": "gasForTransfer",
          "type": "uint256"
        }
      ],
      "name": "updateGasForTransfer",
      "outputs": [],
      "stateMutability": "nonpayable",
      "type": "function"
    },
    {
      "inputs": [
        {
          "internalType": "address",
          "name": "account",
          "type": "address"
        }
      ],
      "name": "withdrawableDividendOf",
      "outputs": [
        {
          "internalType": "uint256",
          "name": "",
          "type": "uint256"
        }
      ],
      "stateMutability": "view",
      "type": "function"
    },
    {
      "stateMutability": "payable",
      "type": "receive"
    }
  ],
  "bytecode": {
    "object": "60a06040526008805461ffff60a01b19169055600b80546001600160a81b03191674012260fac5e5542a773aa44fbcfedf7c193bc2c599179055620249f0600c5569152d02c7e14af6800000600d553480156200005b57600080fd5b50604080518082018252600d81526c16149408155b9b1a5b5a5d1959609a1b6020808301918252835180850190945260048452635852505560e01b908401528151919291620000ad91600391620009f7565b508051620000c3906004906020840190620009f7565b50506005805460ff19166012179055506000620000dd3390565b60058054610100600160a81b0319166101006001600160a01b03841690810291909117909155604051919250906000907f8be0079c531659141344cd1fd0a4f28419497f9722a3daafe3b4186f6b6457e0908290a350604051620001419062000a86565b604051809103906000f0801580156200015e573d6000803e3d6000fd5b50600780546001600160a01b0319166001600160a01b03928316179055600554610100900416600860006101000a8154816001600160a01b0302191690836001600160a01b031602179055506000737a250d5630b4cf539739df2c5dacb4c659f2488d90506000816001600160a01b031663c45a01556040518163ffffffff1660e01b815260040160206040518083038186803b158015620001ff57600080fd5b505afa15801562000214573d6000803e3d6000fd5b505050506040513d601f19601f820116820180604052508101906200023a919062000aab565b6001600160a01b031663c9c6539630846001600160a01b031663ad5c46486040518163ffffffff1660e01b815260040160206040518083038186803b1580156200028357600080fd5b505afa15801562000298573d6000803e3d6000fd5b505050506040513d601f19601f82011682018060405250810190620002be919062000aab565b6040516001600160e01b031960e085901b1681526001600160a01b03928316600482015291166024820152604401602060405180830381600087803b1580156200030757600080fd5b505af11580156200031c573d6000803e3d6000fd5b505050506040513d601f19601f8201168201806040525081019062000342919062000aab565b600680546001600160a01b0319166001600160a01b038516179055606081901b6001600160601b03191660805290506200037e81600162000625565b60075460405163031e79db60e41b81526001600160a01b0390911660048201819052906331e79db090602401600060405180830381600087803b158015620003c557600080fd5b505af1158015620003da573d6000803e3d6000fd5b505060075460405163031e79db60e41b81523060048201526001600160a01b0390911692506331e79db09150602401600060405180830381600087803b1580156200042457600080fd5b505af115801562000439573d6000803e3d6000fd5b50506007546001600160a01b031691506331e79db090506200046860055461010090046001600160a01b031690565b6040516001600160e01b031960e084901b1681526001600160a01b039091166004820152602401600060405180830381600087803b158015620004aa57600080fd5b505af1158015620004bf573d6000803e3d6000fd5b505060075460405163031e79db60e41b81526001600160a01b03868116600483015290911692506331e79db09150602401600060405180830381600087803b1580156200050b57600080fd5b505af115801562000520573d6000803e3d6000fd5b505060075460405163031e79db60e41b815261dead60048201526001600160a01b0390911692506331e79db09150602401600060405180830381600087803b1580156200056c57600080fd5b505af115801562000581573d6000803e3d6000fd5b50506008546200059d92506001600160a01b031690506200078c565b620005a8306200078c565b600160106000620005c660055461010090046001600160a01b031690565b6001600160a01b031681526020810191909152604001600020805460ff19169115159190911790556200061d6200060a60055461010090046001600160a01b031690565b6b033b2e3c9fd0803ce800000062000891565b505062000b36565b6001600160a01b03821660009081526011602052604090205460ff1615158115151415620006c05760405162461bcd60e51b815260206004820152603e60248201527f585250553a204175746f6d61746564206d61726b6574206d616b65722070616960448201527f7220697320616c72656164792073657420746f20746861742076616c7565000060648201526084015b60405180910390fd5b6001600160a01b0382166000908152601160205260409020805460ff19168215801591909117909155620007505760075460405163031e79db60e41b81526001600160a01b038481166004830152909116906331e79db090602401600060405180830381600087803b1580156200073657600080fd5b505af11580156200074b573d6000803e3d6000fd5b505050505b604051811515906001600160a01b038416907fffa9187bf1f18bf477bd0ea1bcbb64e93b6a98132473929edfce215cd9b16fab90600090a35050565b6005546001600160a01b03610100909104163314620007ee5760405162461bcd60e51b815260206004820181905260248201527f4f776e61626c653a2063616c6c6572206973206e6f7420746865206f776e65726044820152606401620006b7565b6001600160a01b0381166000908152600f602052604090205460ff16156200086d5760405162461bcd60e51b815260206004820152602b60248201527f585250553a204163636f756e7420697320616c7265616479206578636c75646560448201526a642066726f6d206665657360a81b6064820152608401620006b7565b6001600160a01b03166000908152600f60205260409020805460ff19166001179055565b6001600160a01b038216620008e95760405162461bcd60e51b815260206004820152601f60248201527f45524332303a206d696e7420746f20746865207a65726f2061646472657373006044820152606401620006b7565b62000905816002546200098d60201b62001afd1790919060201c565b6002556001600160a01b038216600090815260208181526040909120546200093891839062001afd6200098d821b17901c565b6001600160a01b038316600081815260208181526040808320949094559251848152919290917fddf252ad1be2c89b69c2b068fc378daa952ba7f163c4a11628f55a4df523b3ef910160405180910390a35050565b6000806200099c838562000ad4565b905083811015620009f05760405162461bcd60e51b815260206004820152601b60248201527f536166654d6174683a206164646974696f6e206f766572666c6f7700000000006044820152606401620006b7565b9392505050565b82805462000a059062000af9565b90600052602060002090601f01602090048101928262000a29576000855562000a74565b82601f1062000a4457805160ff191683800117855562000a74565b8280016001018555821562000a74579182015b8281111562000a7457825182559160200191906001019062000a57565b5062000a8292915062000a94565b5090565b6125908062003e6e83390190565b5b8082111562000a82576000815560010162000a95565b60006020828403121562000abd578081fd5b81516001600160a01b0381168114620009f0578182fd5b6000821982111562000af457634e487b7160e01b81526011600452602481fd5b500190565b600181811c9082168062000b0e57607f821691505b6020821081141562000b3057634e487b7160e01b600052602260045260246000fd5b50919050565b60805160601c61330462000b6a600039600081816104f60152818161144f01528181611ede0152611f1901526133046000f3fe6080604052600436106103035760003560e01c80637e0e155c11610190578063b62496f5116100dc578063e7841ec011610095578063f2fde38b1161006f578063f2fde38b14610983578063fd5af42f146109a3578063fd5db2af146109c3578063ff0fd4c0146109e257600080fd5b8063e7841ec01461092e578063e98030c714610943578063f27fd2541461096357600080fd5b8063b62496f514610842578063bab3185f14610872578063c816e4b614610892578063d4698016146108a8578063dd62ed3e146108c8578063e57f14e11461090e57600080fd5b80639c1b8af511610149578063a457c2d711610123578063a457c2d71461077d578063a8b9d2401461079d578063a9059cbb146107bd578063ad56c13c146107dd57600080fd5b80639c1b8af5146107325780639d55d16f14610748578063a26579ad1461076857600080fd5b80637e0e155c14610675578063871c128d146106a55780638da5cb5b146106c557806392ca1e8d146106e857806395d89b41146106fd5780639a7a23d61461071257600080fd5b8063458037701161024f57806353ab431b11610208578063700bb191116101e2578063700bb191146105ea57806370a082311461060a578063715018a6146106405780637ded4d6a1461065557600080fd5b806353ab431b146105a057806364b0f653146105b55780636843cd84146105ca57600080fd5b806345803770146104c457806349bd5a5e146104e45780634ada218b146105185780634e71d92d146105325780634fbee19314610547578063519da73e1461058057600080fd5b80632c1f5216116102bc57806330bb4cff1161029657806330bb4cff1461044d578063313ce5671461046257806339509351146104845780634303443d146104a457600080fd5b80632c1f5216146103f65780632d17f2691461041657806330599fc51461042b57600080fd5b806306fdde031461030f578063095ea7b31461033a5780631694505e1461036a57806318160ddd146103a257806323b872dd146103c15780632a8407b4146103e157600080fd5b3661030a57005b600080fd5b34801561031b57600080fd5b50610324610a02565b6040516103319190612fa7565b60405180910390f35b34801561034657600080fd5b5061035a610355366004612ee7565b610a94565b6040519015158152602001610331565b34801561037657600080fd5b5060065461038a906001600160a01b031681565b6040516001600160a01b039091168152602001610331565b3480156103ae57600080fd5b506002545b604051908152602001610331565b3480156103cd57600080fd5b5061035a6103dc366004612e11565b610aab565b3480156103ed57600080fd5b506103b3610b14565b34801561040257600080fd5b5060075461038a906001600160a01b031681565b34801561042257600080fd5b506103b3600881565b34801561043757600080fd5b5061044b610446366004612f4a565b610b96565b005b34801561045957600080fd5b506103b3610c16565b34801561046e57600080fd5b5060055460405160ff9091168152602001610331565b34801561049057600080fd5b5061035a61049f366004612ee7565b610c5b565b3480156104b057600080fd5b5061044b6104bf366004612da1565b610c91565b3480156104d057600080fd5b5061044b6104df366004612f12565b610e09565b3480156104f057600080fd5b5061038a7f000000000000000000000000000000000000000000000000000000000000000081565b34801561052457600080fd5b50600e5461035a9060ff1681565b34801561053e57600080fd5b5061044b610e57565b34801561055357600080fd5b5061035a610562366004612da1565b6001600160a01b03166000908152600f602052604090205460ff1690565b34801561058c57600080fd5b5061044b61059b366004612f12565b610edb565b3480156105ac57600080fd5b506103b3600681565b3480156105c157600080fd5b506103b3610f1e565b3480156105d657600080fd5b506103b36105e5366004612da1565b610f63565b3480156105f657600080fd5b5061044b610605366004612f4a565b610fe2565b34801561061657600080fd5b506103b3610625366004612da1565b6001600160a01b031660009081526020819052604090205490565b34801561064c57600080fd5b5061044b6110c3565b34801561066157600080fd5b5061044b610670366004612da1565b611143565b34801561068157600080fd5b5061035a610690366004612da1565b60106020526000908152604090205460ff1681565b3480156106b157600080fd5b5061044b6106c0366004612f4a565b61132f565b3480156106d157600080fd5b5060055461010090046001600160a01b031661038a565b3480156106f457600080fd5b506103b36113ff565b34801561070957600080fd5b5061032461140e565b34801561071e57600080fd5b5061044b61072d366004612e51565b61141d565b34801561073e57600080fd5b506103b3600c5481565b34801561075457600080fd5b5061044b610763366004612f4a565b61150f565b34801561077457600080fd5b506103b36115a1565b34801561078957600080fd5b5061035a610798366004612ee7565b6115e6565b3480156107a957600080fd5b506103b36107b8366004612da1565b611635565b3480156107c957600080fd5b5061035a6107d8366004612ee7565b611668565b3480156107e957600080fd5b506107fd6107f8366004612da1565b611675565b604080516001600160a01b0390991689526020890197909752958701949094526060860192909252608085015260a084015260c083015260e082015261010001610331565b34801561084e57600080fd5b5061035a61085d366004612da1565b60116020526000908152604090205460ff1681565b34801561087e57600080fd5b5061035a61088d366004612f12565b61171f565b34801561089e57600080fd5b506103b3600d5481565b3480156108b457600080fd5b5060085461038a906001600160a01b031681565b3480156108d457600080fd5b506103b36108e3366004612dd9565b6001600160a01b03918216600090815260016020908152604080832093909416825291909152205490565b34801561091a57600080fd5b5061044b610929366004612da1565b6117ac565b34801561093a57600080fd5b506103b361187d565b34801561094f57600080fd5b5061044b61095e366004612f4a565b6118c2565b34801561096f57600080fd5b506107fd61097e366004612f4a565b611923565b34801561098f57600080fd5b5061044b61099e366004612da1565b611965565b3480156109af57600080fd5b5061044b6109be366004612f12565b611a61565b3480156109cf57600080fd5b506103b36a084595161401484a00000081565b3480156109ee57600080fd5b5061044b6109fd366004612f12565b611aaf565b606060038054610a11906131cc565b80601f0160208091040260200160405190810160405280929190818152602001828054610a3d906131cc565b8015610a8a5780601f10610a5f57610100808354040283529160200191610a8a565b820191906000526020600020905b815481529060010190602001808311610a6d57829003601f168201915b5050505050905090565b6000610aa1338484611b63565b5060015b92915050565b6000610ab8848484611c88565b610b0a8433610b0585604051806060016040528060288152602001613282602891396001600160a01b038a1660009081526001602090815260408083203384529091529020549190612432565b611b63565b5060019392505050565b6007546040805163079cda8160e51b815290516000926001600160a01b03169163f39b5020916004808301926020929190829003018186803b158015610b5957600080fd5b505afa158015610b6d573d6000803e3d6000fd5b505050506040513d601f19601f82011682018060405250810190610b919190612f62565b905090565b6005546001600160a01b03610100909104163314610bcf5760405162461bcd60e51b8152600401610bc69061303d565b60405180910390fd5b610bf130610beb6005546001600160a01b036101009091041690565b83611b63565b610c1330610c0d6005546001600160a01b036101009091041690565b83611c88565b50565b600754604080516342d359d760e11b815290516000926001600160a01b0316916385a6b3ae916004808301926020929190829003018186803b158015610b5957600080fd5b3360008181526001602090815260408083206001600160a01b03871684529091528120549091610aa1918590610b059086611afd565b6005546001600160a01b03610100909104163314610cc15760405162461bcd60e51b8152600401610bc69061303d565b737a250d5630b4cf539739df2c5dacb4c659f2488d6001600160a01b0382161415610d3a5760405162461bcd60e51b8152602060048201526024808201527f57652063616e206e6f7420626c61636b6c69737420556e697377617020726f756044820152633a32b91760e11b6064820152608401610bc6565b6001600160a01b03811660009081526009602052604090205460ff1615610da35760405162461bcd60e51b815260206004820152601e60248201527f4163636f756e7420697320616c726561647920626c61636b6c697374656400006044820152606401610bc6565b6001600160a01b03166000818152600960205260408120805460ff19166001908117909155600a805491820181559091527fc65a7bb8d6351c1cf70c95a316cc6a92839c986682d98bc35f958f4883f9d2a80180546001600160a01b0319169091179055565b6005546001600160a01b03610100909104163314610e395760405162461bcd60e51b8152600401610bc69061303d565b60088054911515600160a01b0260ff60a01b19909216919091179055565b60075460405163bc4c4b3760e01b8152336004820152600060248201526001600160a01b039091169063bc4c4b3790604401602060405180830381600087803b158015610ea357600080fd5b505af1158015610eb7573d6000803e3d6000fd5b505050506040513d601f19601f82011682018060405250810190610c139190612f2e565b6005546001600160a01b03610100909104163314610f0b5760405162461bcd60e51b8152600401610bc69061303d565b600e805460ff1916911515919091179055565b600754604080516304ddf6ef60e11b815290516000926001600160a01b0316916309bbedde916004808301926020929190829003018186803b158015610b5957600080fd5b6007546040516370a0823160e01b81526001600160a01b03838116600483015260009216906370a08231906024015b60206040518083038186803b158015610faa57600080fd5b505afa158015610fbe573d6000803e3d6000fd5b505050506040513d601f19601f82011682018060405250810190610aa59190612f62565b6007546040516001624d3b8760e01b0319815260048101839052600091829182916001600160a01b03169063ffb2c47990602401606060405180830381600087803b15801561103057600080fd5b505af1158015611044573d6000803e3d6000fd5b505050506040513d601f19601f820116820180604052508101906110689190612f7a565b604080518481526020810184905290810182905260608101889052929550909350915032906000907fc864333d6121033635ab41b29ae52f10a22cf4438c3e4f1c4c68518feb2f8a989060800160405180910390a350505050565b6005546001600160a01b036101009091041633146110f35760405162461bcd60e51b8152600401610bc69061303d565b60055460405160009161010090046001600160a01b0316907f8be0079c531659141344cd1fd0a4f28419497f9722a3daafe3b4186f6b6457e0908390a360058054610100600160a81b0319169055565b6005546001600160a01b036101009091041633146111735760405162461bcd60e51b8152600401610bc69061303d565b6001600160a01b03811660009081526009602052604090205460ff166111db5760405162461bcd60e51b815260206004820152601a60248201527f4163636f756e74206973206e6f7420626c61636b6c69737465640000000000006044820152606401610bc6565b60005b600a5481101561132b57816001600160a01b0316600a828154811061121357634e487b7160e01b600052603260045260246000fd5b6000918252602090912001546001600160a01b0316141561131957600a805461123e906001906131b5565b8154811061125c57634e487b7160e01b600052603260045260246000fd5b600091825260209091200154600a80546001600160a01b03909216918390811061129657634e487b7160e01b600052603260045260246000fd5b600091825260208083209190910180546001600160a01b0319166001600160a01b039485161790559184168152600990915260409020805460ff19169055600a8054806112f357634e487b7160e01b600052603160045260246000fd5b600082815260209020810160001990810180546001600160a01b03191690550190555050565b8061132381613207565b9150506111de565b5050565b6005546001600160a01b0361010090910416331461135f5760405162461bcd60e51b8152600401610bc69061303d565b600c548114156113cc5760405162461bcd60e51b815260206004820152603260248201527f585250553a2043616e6e6f742075706461746520676173466f7250726f63657360448201527173696e6720746f2073616d652076616c756560701b6064820152608401610bc6565b600c5460405182907f40d7e40e79af4e8e5a9b3c57030d8ea93f13d669c06d448c4d631d4ae7d23db790600090a3600c55565b61140b6006600861315e565b81565b606060048054610a11906131cc565b6005546001600160a01b0361010090910416331461144d5760405162461bcd60e51b8152600401610bc69061303d565b7f00000000000000000000000000000000000000000000000000000000000000006001600160a01b0316826001600160a01b031614156115055760405162461bcd60e51b815260206004820152604760248201527f585250553a2054686520556e697377617020706169722063616e6e6f7420626560448201527f2072656d6f7665642066726f6d206175746f6d617465644d61726b65744d616b6064820152666572506169727360c81b608482015260a401610bc6565b61132b8282612469565b6005546001600160a01b0361010090910416331461153f5760405162461bcd60e51b8152600401610bc69061303d565b600754604051639d55d16f60e01b8152600481018390526001600160a01b0390911690639d55d16f906024015b600060405180830381600087803b15801561158657600080fd5b505af115801561159a573d6000803e3d6000fd5b5050505050565b60075460408051631bc9e27b60e21b815290516000926001600160a01b031691636f2789ec916004808301926020929190829003018186803b158015610b5957600080fd5b6000610aa13384610b05856040518060600160405280602581526020016132aa602591393360009081526001602090815260408083206001600160a01b038d1684529091529020549190612432565b6007546040516302a2e74960e61b81526001600160a01b038381166004830152600092169063a8b9d24090602401610f92565b6000610aa1338484611c88565b60075460405163fbcbc0f160e01b81526001600160a01b038381166004830152600092839283928392839283928392839291169063fbcbc0f1906024015b6101006040518083038186803b1580156116cc57600080fd5b505afa1580156116e0573d6000803e3d6000fd5b505050506040513d601f19601f820116820180604052508101906117049190612e7e565b97509750975097509750975097509750919395975091939597565b6008546000906001600160a01b031633146117885760405162461bcd60e51b8152602060048201526024808201527f4f6e6c792044657620416464726573732063616e2064697361626c65206465766044820152632066656560e01b6064820152608401610bc6565b506008805460ff60a01b1916600160a01b9215158302179081905560ff9190041690565b6005546001600160a01b036101009091041633146117dc5760405162461bcd60e51b8152600401610bc69061303d565b6001600160a01b0381166000908152600f602052604090205460ff16156118595760405162461bcd60e51b815260206004820152602b60248201527f585250553a204163636f756e7420697320616c7265616479206578636c75646560448201526a642066726f6d206665657360a81b6064820152608401610bc6565b6001600160a01b03166000908152600f60205260409020805460ff19166001179055565b6007546040805163039e107b60e61b815290516000926001600160a01b03169163e7841ec0916004808301926020929190829003018186803b158015610b5957600080fd5b6005546001600160a01b036101009091041633146118f25760405162461bcd60e51b8152600401610bc69061303d565b60075460405163e98030c760e01b8152600481018390526001600160a01b039091169063e98030c79060240161156c565b600754604051635183d6fd60e01b81526004810183905260009182918291829182918291829182916001600160a01b0390911690635183d6fd906024016116b3565b6005546001600160a01b036101009091041633146119955760405162461bcd60e51b8152600401610bc69061303d565b6001600160a01b0381166119fa5760405162461bcd60e51b815260206004820152602660248201527f4f776e61626c653a206e6577206f776e657220697320746865207a65726f206160448201526564647265737360d01b6064820152608401610bc6565b6005546040516001600160a01b0380841692610100900416907f8be0079c531659141344cd1fd0a4f28419497f9722a3daafe3b4186f6b6457e090600090a3600580546001600160a01b0390921661010002610100600160a81b0319909216919091179055565b6005546001600160a01b03610100909104163314611a915760405162461bcd60e51b8152600401610bc69061303d565b600b8054911515600160a01b0260ff60a01b19909216919091179055565b6005546001600160a01b03610100909104163314611adf5760405162461bcd60e51b8152600401610bc69061303d565b60088054911515600160a81b0260ff60a81b19909216919091179055565b600080611b0a838561315e565b905083811015611b5c5760405162461bcd60e51b815260206004820152601b60248201527f536166654d6174683a206164646974696f6e206f766572666c6f7700000000006044820152606401610bc6565b9392505050565b6001600160a01b038316611bc55760405162461bcd60e51b8152602060048201526024808201527f45524332303a20617070726f76652066726f6d20746865207a65726f206164646044820152637265737360e01b6064820152608401610bc6565b6001600160a01b038216611c265760405162461bcd60e51b815260206004820152602260248201527f45524332303a20617070726f766520746f20746865207a65726f206164647265604482015261737360f01b6064820152608401610bc6565b6001600160a01b0383811660008181526001602090815260408083209487168084529482529182902085905590518481527f8c5be1e5ebec7d5bd14f71427d1e84f3dd0314c0f7b2291e5b200ac8c7c3b92591015b60405180910390a3505050565b6001600160a01b038316611cae5760405162461bcd60e51b8152600401610bc690613072565b6001600160a01b038216611cd45760405162461bcd60e51b8152600401610bc690612ffa565b6001600160a01b03821660009081526009602052604090205460ff1615611d0d5760405162461bcd60e51b8152600401610bc6906130b7565b3360009081526009602052604090205460ff1615611d3d5760405162461bcd60e51b8152600401610bc6906130b7565b6001600160a01b03831660009081526009602052604090205460ff1615611d765760405162461bcd60e51b8152600401610bc6906130b7565b6005546001600160a01b038481166101009092041614801590611dac57506005546001600160a01b038381166101009092041614155b8015611dc15750600b54600160a01b900460ff165b15611e32576a084595161401484a000000811115611e325760405162461bcd60e51b815260206004820152602860248201527f5472616e7366657220616d6f756e74206578636565647320746865206d6178546044820152673c20b6b7bab73a1760c11b6064820152608401610bc6565b600e5460ff1680611edc57600854600160a81b900460ff16611edc576001600160a01b03841660009081526010602052604090205460ff16611edc5760405162461bcd60e51b815260206004820152603e60248201527f585250553a2054686973206163636f756e742063616e6e6f742073656e64207460448201527f6f6b656e7320756e74696c2074726164696e6720697320656e61626c656400006064820152608401610bc6565b7f00000000000000000000000000000000000000000000000000000000000000006001600160a01b0316846001600160a01b03161480611f4d57507f00000000000000000000000000000000000000000000000000000000000000006001600160a01b0316836001600160a01b0316145b8015611f565750805b5081611f6e57611f68848460006125c7565b50505050565b600654600160a01b900460ff16158015611f855750805b8015611fa957506001600160a01b03831660009081526011602052604090205460ff165b8015611fc357506006546001600160a01b03858116911614155b8015611fe857506001600160a01b0383166000908152600f602052604090205460ff16155b1561206e576a084595161401484a00000082111561206e5760405162461bcd60e51b815260206004820152603d60248201527f53656c6c207472616e7366657220616d6f756e7420657863656564732074686560448201527f204d41585f53454c4c5f5452414e53414354494f4e5f414d4f554e542e0000006064820152608401610bc6565b30600090815260208190526040902054600d5481101582801561208e5750805b80156120a35750600854600160a01b900460ff165b80156120b95750600654600160a01b900460ff16155b80156120de57506001600160a01b03861660009081526011602052604090205460ff16155b80156120f857506008546001600160a01b03878116911614155b801561211257506008546001600160a01b03868116911614155b15612181576006805460ff60a01b1916600160a01b17815560009061214d9061213c90600861315e565b6121478560066126d0565b9061274f565b9050612158816127aa565b3060009081526020819052604090205461217181612848565b50506006805460ff60a01b191690555b600083801561219a5750600654600160a01b900460ff16155b6001600160a01b0388166000908152600f602052604090205490915060ff16806121dc57506001600160a01b0386166000908152600f602052604090205460ff165b156121e5575060005b801561222357600061220860646121476122016006600861315e565b89906126d0565b90506122148682612a02565b95506122218830836125c7565b505b61222e8787876125c7565b6007546001600160a01b031663e30443bc8861225f816001600160a01b031660009081526020819052604090205490565b6040516001600160e01b031960e085901b1681526001600160a01b0390921660048301526024820152604401600060405180830381600087803b1580156122a557600080fd5b505af19250505080156122b6575060015b506007546001600160a01b031663e30443bc876122e8816001600160a01b031660009081526020819052604090205490565b6040516001600160e01b031960e085901b1681526001600160a01b0390921660048301526024820152604401600060405180830381600087803b15801561232e57600080fd5b505af192505050801561233f575060015b50600654600160a01b900460ff1661242957600c546007546040516001624d3b8760e01b03198152600481018390526001600160a01b039091169063ffb2c47990602401606060405180830381600087803b15801561239d57600080fd5b505af19250505080156123cd575060408051601f3d908101601f191682019092526123ca91810190612f7a565b60015b6123d657612427565b60408051848152602081018490529081018290526060810185905232906001907fc864333d6121033635ab41b29ae52f10a22cf4438c3e4f1c4c68518feb2f8a989060800160405180910390a35050505b505b50505050505050565b600081848411156124565760405162461bcd60e51b8152600401610bc69190612fa7565b5061246183856131b5565b949350505050565b6001600160a01b03821660009081526011602052604090205460ff16151581151514156124fe5760405162461bcd60e51b815260206004820152603e60248201527f585250553a204175746f6d61746564206d61726b6574206d616b65722070616960448201527f7220697320616c72656164792073657420746f20746861742076616c756500006064820152608401610bc6565b6001600160a01b0382166000908152601160205260409020805460ff1916821580159190911790915561258b5760075460405163031e79db60e41b81526001600160a01b038481166004830152909116906331e79db090602401600060405180830381600087803b15801561257257600080fd5b505af1158015612586573d6000803e3d6000fd5b505050505b604051811515906001600160a01b038416907fffa9187bf1f18bf477bd0ea1bcbb64e93b6a98132473929edfce215cd9b16fab90600090a35050565b6001600160a01b0383166125ed5760405162461bcd60e51b8152600401610bc690613072565b6001600160a01b0382166126135760405162461bcd60e51b8152600401610bc690612ffa565b6126508160405180606001604052806026815260200161325c602691396001600160a01b0386166000908152602081905260409020549190612432565b6001600160a01b03808516600090815260208190526040808220939093559084168152205461267f9082611afd565b6001600160a01b038381166000818152602081815260409182902094909455518481529092918616917fddf252ad1be2c89b69c2b068fc378daa952ba7f163c4a11628f55a4df523b3ef9101611c7b565b6000826126df57506000610aa5565b60006126eb8385613196565b9050826126f88583613176565b14611b5c5760405162461bcd60e51b815260206004820152602160248201527f536166654d6174683a206d756c7469706c69636174696f6e206f766572666c6f6044820152607760f81b6064820152608401610bc6565b60008082116127a05760405162461bcd60e51b815260206004820152601a60248201527f536166654d6174683a206469766973696f6e206279207a65726f0000000000006044820152606401610bc6565b611b5c8284613176565b80476127b582612a5e565b60006127c14783612a02565b6040519091507368f12e2acfe4e362bd6652530616f395a77173f090819083156108fc029084906000818181858888f19350505050158015612807573d6000803e3d6000fd5b5060408051868152602081018490527f98024b0e201aa667dd34d5242eaa5ec55bd223ff5dad2fb1fd9a11e35f86f05f910160405180910390a15050505050565b6128528130612be3565b600b546040516370a0823160e01b81523060048201526000916001600160a01b0316906370a082319060240160206040518083038186803b15801561289657600080fd5b505afa1580156128aa573d6000803e3d6000fd5b505050506040513d601f19601f820116820180604052508101906128ce9190612f62565b600b5460075460405163a9059cbb60e01b81526001600160a01b0391821660048201526024810184905292935060009291169063a9059cbb90604401602060405180830381600087803b15801561292457600080fd5b505af1158015612938573d6000803e3d6000fd5b505050506040513d601f19601f8201168201806040525081019061295c9190612f2e565b905080156129fd57600754604051633243c79160e01b8152600481018490526001600160a01b0390911690633243c79190602401600060405180830381600087803b1580156129aa57600080fd5b505af11580156129be573d6000803e3d6000fd5b505060408051868152602081018690527f5e8c953468549261e19b5df2c0776259d823043f64befbef757760c2800c07ca935001905060405180910390a15b505050565b600082821115612a545760405162461bcd60e51b815260206004820152601e60248201527f536166654d6174683a207375627472616374696f6e206f766572666c6f7700006044820152606401610bc6565b611b5c82846131b5565b6040805160028082526060820183526000926020830190803683370190505090503081600081518110612aa157634e487b7160e01b600052603260045260246000fd5b6001600160a01b03928316602091820292909201810191909152600654604080516315ab88c960e31b81529051919093169263ad5c4648926004808301939192829003018186803b158015612af557600080fd5b505afa158015612b09573d6000803e3d6000fd5b505050506040513d601f19601f82011682018060405250810190612b2d9190612dbd565b81600181518110612b4e57634e487b7160e01b600052603260045260246000fd5b6001600160a01b039283166020918202929092010152600654612b749130911684611b63565b60065460405163791ac94760e01b81526001600160a01b039091169063791ac94790612bad9085906000908690309042906004016130ee565b600060405180830381600087803b158015612bc757600080fd5b505af1158015612bdb573d6000803e3d6000fd5b505050505050565b60408051600380825260808201909252600091602082016060803683370190505090503081600081518110612c2857634e487b7160e01b600052603260045260246000fd5b6001600160a01b03928316602091820292909201810191909152600654604080516315ab88c960e31b81529051919093169263ad5c4648926004808301939192829003018186803b158015612c7c57600080fd5b505afa158015612c90573d6000803e3d6000fd5b505050506040513d601f19601f82011682018060405250810190612cb49190612dbd565b81600181518110612cd557634e487b7160e01b600052603260045260246000fd5b6001600160a01b039283166020918202929092010152600b54825191169082906002908110612d1457634e487b7160e01b600052603260045260246000fd5b6001600160a01b039283166020918202929092010152600654612d3a9130911685611b63565b600654604051635c11d79560e01b81526001600160a01b0390911690635c11d79590612d739086906000908690889042906004016130ee565b600060405180830381600087803b158015612d8d57600080fd5b505af1158015612429573d6000803e3d6000fd5b600060208284031215612db2578081fd5b8135611b5c81613238565b600060208284031215612dce578081fd5b8151611b5c81613238565b60008060408385031215612deb578081fd5b8235612df681613238565b91506020830135612e0681613238565b809150509250929050565b600080600060608486031215612e25578081fd5b8335612e3081613238565b92506020840135612e4081613238565b929592945050506040919091013590565b60008060408385031215612e63578182fd5b8235612e6e81613238565b91506020830135612e068161324d565b600080600080600080600080610100898b031215612e9a578384fd5b8851612ea581613238565b809850506020890151965060408901519550606089015194506080890151935060a0890151925060c0890151915060e089015190509295985092959890939650565b60008060408385031215612ef9578182fd5b8235612f0481613238565b946020939093013593505050565b600060208284031215612f23578081fd5b8135611b5c8161324d565b600060208284031215612f3f578081fd5b8151611b5c8161324d565b600060208284031215612f5b578081fd5b5035919050565b600060208284031215612f73578081fd5b5051919050565b600080600060608486031215612f8e578283fd5b8351925060208401519150604084015190509250925092565b6000602080835283518082850152825b81811015612fd357858101830151858201604001528201612fb7565b81811115612fe45783604083870101525b50601f01601f1916929092016040019392505050565b60208082526023908201527f45524332303a207472616e7366657220746f20746865207a65726f206164647260408201526265737360e81b606082015260800190565b6020808252818101527f4f776e61626c653a2063616c6c6572206973206e6f7420746865206f776e6572604082015260600190565b60208082526025908201527f45524332303a207472616e736665722066726f6d20746865207a65726f206164604082015264647265737360d81b606082015260800190565b60208082526017908201527f596f752068617665206e6f20706f776572206865726521000000000000000000604082015260600190565b600060a082018783526020878185015260a0604085015281875180845260c0860191508289019350845b8181101561313d5784516001600160a01b031683529383019391830191600101613118565b50506001600160a01b03969096166060850152505050608001529392505050565b6000821982111561317157613171613222565b500190565b60008261319157634e487b7160e01b81526012600452602481fd5b500490565b60008160001904831182151516156131b0576131b0613222565b500290565b6000828210156131c7576131c7613222565b500390565b600181811c908216806131e057607f821691505b6020821081141561320157634e487b7160e01b600052602260045260246000fd5b50919050565b600060001982141561321b5761321b613222565b5060010190565b634e487b7160e01b600052601160045260246000fd5b6001600160a01b0381168114610c1357600080fd5b8015158114610c1357600080fdfe45524332303a207472616e7366657220616d6f756e7420657863656564732062616c616e636545524332303a207472616e7366657220616d6f756e74206578636565647320616c6c6f77616e636545524332303a2064656372656173656420616c6c6f77616e63652062656c6f77207a65726fa2646970667358221220d903a1029f822fdead030ef0bdeac3f5a1f25823b76ac0085717b05538baa8a464736f6c6343000804003360a0604052600880546001600160a01b031916732260fac5e5542a773aa44fbcfedf7c193bc2c5991790553480156200003757600080fd5b5060408051808201825260158082527f585250555f4469766964656e645f547261636b6572000000000000000000000060208084018281528551808701909652928552840152815191929183918391620000949160039162000134565b508051620000aa90600490602084019062000134565b50506005805460ff191660121790555050610bb8600c55506000620000cc3390565b600d80546001600160a01b0319166001600160a01b038316908117909155604051919250906000907f8be0079c531659141344cd1fd0a4f28419497f9722a3daafe3b4186f6b6457e0908290a350610e1060155569021e19e0c9bab240000060805262000217565b8280546200014290620001da565b90600052602060002090601f016020900481019282620001665760008555620001b1565b82601f106200018157805160ff1916838001178555620001b1565b82800160010185558215620001b1579182015b82811115620001b157825182559160200191906001019062000194565b50620001bf929150620001c3565b5090565b5b80821115620001bf5760008155600101620001c4565b600181811c90821680620001ef57607f821691505b602082108114156200021157634e487b7160e01b600052602260045260246000fd5b50919050565b6080516123566200023a600039600081816106ba01526110f801526123566000f3fe60806040526004361061023f5760003560e01c80637e3e7fd21161012e578063bc4c4b37116100ab578063e98030c71161006f578063e98030c714610757578063f2fde38b14610777578063f39b502014610797578063fbcbc0f1146107ad578063ffb2c479146107cd57600080fd5b8063bc4c4b3714610688578063be10b614146106a8578063dd62ed3e146106dc578063e30443bc14610722578063e7841ec01461074257600080fd5b80639d55d16f116100f25780639d55d16f146105d2578063a457c2d7146105f2578063a8b9d24014610612578063a9059cbb14610632578063aafd847a1461065257600080fd5b80637e3e7fd21461052c57806385a6b3ae146105695780638da5cb5b1461057f57806391b89fba1461059d57806395d89b41146105bd57600080fd5b8063313ce567116101bc5780635183d6fd116101805780635183d6fd146104515780636a474002146104b65780636f2789ec146104cb57806370a08231146104e1578063715018a61461051757600080fd5b8063313ce5671461039f57806331e79db0146103c15780633243c791146103e157806339509351146104015780634e7b827f1461042157600080fd5b806318160ddd1161020357806318160ddd14610307578063226cfa3d1461031c57806323b872dd1461034957806327ce0147146103695780633009a6091461038957600080fd5b806303c833021461024b57806306fdde0314610255578063095ea7b31461028057806309bbedde146102b05780631582358e146102cf57600080fd5b3661024657005b600080fd5b610253610808565b005b34801561026157600080fd5b5061026a61089b565b60405161027791906120ac565b60405180910390f35b34801561028c57600080fd5b506102a061029b366004611fc8565b61092d565b6040519015158152602001610277565b3480156102bc57600080fd5b50600e545b604051908152602001610277565b3480156102db57600080fd5b506008546102ef906001600160a01b031681565b6040516001600160a01b039091168152602001610277565b34801561031357600080fd5b506002546102c1565b34801561032857600080fd5b506102c1610337366004611f58565b60146020526000908152604090205481565b34801561035557600080fd5b506102a0610364366004612020565b610944565b34801561037557600080fd5b506102c1610384366004611f58565b6109ad565b34801561039557600080fd5b506102c160125481565b3480156103ab57600080fd5b5060055460405160ff9091168152602001610277565b3480156103cd57600080fd5b506102536103dc366004611f58565b610a09565b3480156103ed57600080fd5b506102536103fc366004612094565b610b39565b34801561040d57600080fd5b506102a061041c366004611fc8565b610bba565b34801561042d57600080fd5b506102a061043c366004611f58565b60136020526000908152604090205460ff1681565b34801561045d57600080fd5b5061047161046c366004612094565b610bf0565b604080516001600160a01b0390991689526020890197909752958701949094526060860192909252608085015260a084015260c083015260e082015261010001610277565b3480156104c257600080fd5b50610253610d62565b3480156104d757600080fd5b506102c160155481565b3480156104ed57600080fd5b506102c16104fc366004611f58565b6001600160a01b031660009081526020819052604090205490565b34801561052357600080fd5b50610253610e04565b34801561053857600080fd5b50610253610547366004611f58565b600880546001600160a01b0319166001600160a01b0392909216919091179055565b34801561057557600080fd5b506102c1600b5481565b34801561058b57600080fd5b50600d546001600160a01b03166102ef565b3480156105a957600080fd5b506102c16105b8366004611f58565b610e78565b3480156105c957600080fd5b5061026a610e83565b3480156105de57600080fd5b506102536105ed366004612094565b610e92565b3480156105fe57600080fd5b506102a061060d366004611fc8565b610f71565b34801561061e57600080fd5b506102c161062d366004611f58565b610fc0565b34801561063e57600080fd5b506102a061064d366004611fc8565b610fec565b34801561065e57600080fd5b506102c161066d366004611f58565b6001600160a01b03166000908152600a602052604090205490565b34801561069457600080fd5b506102a06106a3366004611f90565b610ff9565b3480156106b457600080fd5b506102c17f000000000000000000000000000000000000000000000000000000000000000081565b3480156106e857600080fd5b506102c16106f7366004611ff3565b6001600160a01b03918216600090815260016020908152604080832093909416825291909152205490565b34801561072e57600080fd5b5061025361073d366004611fc8565b6110a7565b34801561074e57600080fd5b506012546102c1565b34801561076357600080fd5b50610253610772366004612094565b611233565b34801561078357600080fd5b50610253610792366004611f58565b6113a2565b3480156107a357600080fd5b506102c1600c5481565b3480156107b957600080fd5b506104716107c8366004611f58565b61148d565b3480156107d957600080fd5b506107ed6107e8366004612094565b611605565b60408051938452602084019290925290820152606001610277565b600061081360025490565b1161081d57600080fd5b34156108995761085061082f60025490565b61083d34600160801b61172e565b610847919061218d565b600654906117b4565b60065560405134815233907fa493a9229478c3fcd73f66d2cdeb7f94fd0f341da924d1054236d784541165119060200160405180910390a2600b5461089590346117b4565b600b555b565b6060600380546108aa90612222565b80601f01602080910402602001604051908101604052809291908181526020018280546108d690612222565b80156109235780601f106108f857610100808354040283529160200191610923565b820191906000526020600020905b81548152906001019060200180831161090657829003601f168201915b5050505050905090565b600061093a338484611813565b5060015b92915050565b6000610951848484611937565b6109a3843361099e856040518060600160405280602881526020016122d4602891396001600160a01b038a1660009081526001602090815260408083203384529091529020549190611993565b611813565b5060019392505050565b6001600160a01b03811660009081526009602090815260408083205491839052822054600654600160801b926109ff926109fa926109f4916109ef919061172e565b6119ca565b906119da565b611a18565b61093e919061218d565b600d546001600160a01b03163314610a3c5760405162461bcd60e51b8152600401610a33906120ff565b60405180910390fd5b6001600160a01b03811660009081526013602052604090205460ff1615610a6257600080fd5b6001600160a01b0381166000908152601360205260408120805460ff19166001179055610a90908290611a2b565b60405163131836e760e21b8152600e60048201526001600160a01b038216602482015273b089c8a62fe5881d63f9b4108fab7d105c996c6b90634c60db9c9060440160006040518083038186803b158015610aea57600080fd5b505af4158015610afe573d6000803e3d6000fd5b50506040516001600160a01b03841692507fa878b31040b2e6d0a9a3d3361209db3908ba62014b0dca52adbaee451d128b259150600090a250565b6000610b4460025490565b11610b4e57600080fd5b8015610bb757610b6e610b6060025490565b61083d83600160801b61172e565b60065560405181815233907fa493a9229478c3fcd73f66d2cdeb7f94fd0f341da924d1054236d784541165119060200160405180910390a2600b54610bb390826117b4565b600b555b50565b3360008181526001602090815260408083206001600160a01b0387168452909152812054909161093a91859061099e90866117b4565b600080600080600080600080600e73b089c8a62fe5881d63f9b4108fab7d105c996c6b63deb3d89690916040518263ffffffff1660e01b8152600401610c3891815260200190565b60206040518083038186803b158015610c5057600080fd5b505af4158015610c64573d6000803e3d6000fd5b505050506040513d601f19601f82011682018060405250810190610c88919061207c565b8910610cad575060009650600019955085945086935083925082915081905080610d57565b6040516368d54f3f60e11b8152600e6004820152602481018a905260009073b089c8a62fe5881d63f9b4108fab7d105c996c6b9063d1aa9e7e9060440160206040518083038186803b158015610d0257600080fd5b505af4158015610d16573d6000803e3d6000fd5b505050506040513d601f19601f82011682018060405250810190610d3a9190611f74565b9050610d458161148d565b98509850985098509850985098509850505b919395975091939597565b60405162461bcd60e51b815260206004820152606560248201527f585250555f4469766964656e645f547261636b65723a2077697468647261774460448201527f69766964656e642064697361626c65642e20557365207468652027636c61696d60648201527f272066756e6374696f6e206f6e20746865206d61696e205852505520636f6e746084820152643930b1ba1760d91b60a482015260c401610a33565b600d546001600160a01b03163314610e2e5760405162461bcd60e51b8152600401610a33906120ff565b600d546040516000916001600160a01b0316907f8be0079c531659141344cd1fd0a4f28419497f9722a3daafe3b4186f6b6457e0908390a3600d80546001600160a01b0319169055565b600061093e82610fc0565b6060600480546108aa90612222565b600d546001600160a01b03163314610ebc5760405162461bcd60e51b8152600401610a33906120ff565b600c54811415610f3e5760405162461bcd60e51b815260206004820152604160248201527f585250555f4469766964656e645f547261636b65723a2043616e6e6f7420757060448201527f6461746520676173466f725472616e7366657220746f2073616d652076616c756064820152606560f81b608482015260a401610a33565b600c5460405182907f5e2963a3d7c88b344b101641f89a2f7da9734fc777ed11ad0097b2775a9e9d1790600090a3600c55565b600061093a338461099e856040518060600160405280602581526020016122fc602591393360009081526001602090815260408083206001600160a01b038d1684529091529020549190611993565b6001600160a01b0381166000908152600a602052604081205461093e90610fe6846109ad565b90611a8a565b600061093a338484611937565b600d546000906001600160a01b031633146110265760405162461bcd60e51b8152600401610a33906120ff565b600061103184611ae6565b9050801561109d576001600160a01b038416600081815260146020526040908190204290555184151591907fa2c38e2d2fb7e3e1912d937fd1ca11ed6d51864dee4cfa7a7bf02becd7acf0929061108b9085815260200190565b60405180910390a3600191505061093e565b5060009392505050565b600d546001600160a01b031633146110d15760405162461bcd60e51b8152600401610a33906120ff565b6001600160a01b03821660009081526013602052604090205460ff16156110f6575050565b7f000000000000000000000000000000000000000000000000000000000000000081106111a5576111278282611a2b565b604051632f0ad01760e21b8152600e60048201526001600160a01b03831660248201526044810182905273b089c8a62fe5881d63f9b4108fab7d105c996c6b9063bc2b405c9060640160006040518083038186803b15801561118857600080fd5b505af415801561119c573d6000803e3d6000fd5b50505050611223565b6111b0826000611a2b565b60405163131836e760e21b8152600e60048201526001600160a01b038316602482015273b089c8a62fe5881d63f9b4108fab7d105c996c6b90634c60db9c9060440160006040518083038186803b15801561120a57600080fd5b505af415801561121e573d6000803e3d6000fd5b505050505b61122e826001610ff9565b505050565b600d546001600160a01b0316331461125d5760405162461bcd60e51b8152600401610a33906120ff565b61070881101580156112725750620151808111155b6112f75760405162461bcd60e51b815260206004820152604a60248201527f585250555f4469766964656e645f547261636b65723a20636c61696d5761697460448201527f206d757374206265207570646174656420746f206265747765656e203120616e6064820152696420323420686f75727360b01b608482015260a401610a33565b60155481141561136f5760405162461bcd60e51b815260206004820152603c60248201527f585250555f4469766964656e645f547261636b65723a2043616e6e6f7420757060448201527f6461746520636c61696d5761697420746f2073616d652076616c7565000000006064820152608401610a33565b60155460405182907f474ea64804364a1e29a4487ddb63c3342a2dd826ccd8acf48825e680a0e6f20f90600090a3601555565b600d546001600160a01b031633146113cc5760405162461bcd60e51b8152600401610a33906120ff565b6001600160a01b0381166114315760405162461bcd60e51b815260206004820152602660248201527f4f776e61626c653a206e6577206f776e657220697320746865207a65726f206160448201526564647265737360d01b6064820152608401610a33565b600d546040516001600160a01b038084169216907f8be0079c531659141344cd1fd0a4f28419497f9722a3daafe3b4186f6b6457e090600090a3600d80546001600160a01b0319166001600160a01b0392909216919091179055565b6040516317e142d160e01b8152600e60048201526001600160a01b0382166024820152819060009081908190819081908190819073b089c8a62fe5881d63f9b4108fab7d105c996c6b906317e142d19060440160206040518083038186803b1580156114f857600080fd5b505af415801561150c573d6000803e3d6000fd5b505050506040513d601f19601f82011682018060405250810190611530919061207c565b96506000199550600087126115925760125487111561155e57601254611557908890611c5a565b9550611592565b601254600e5460009110611573576000611582565b601254600e5461158291611a8a565b905061158e88826119da565b9650505b61159b88610fc0565b94506115a6886109ad565b6001600160a01b0389166000908152601460205260409020549094509250826115d05760006115de565b6015546115de9084906117b4565b91504282116115ee5760006115f8565b6115f88242611a8a565b9050919395975091939597565b600e54600090819081908061162557505060125460009250829150611727565b6012546000805a90506000805b898410801561164057508582105b15611716578461164f8161225d565b600e549096508610905061166257600094505b6000600e600001868154811061168857634e487b7160e01b600052603260045260246000fd5b60009182526020808320909101546001600160a01b031680835260149091526040909120549091506116b990611ca6565b156116dc576116c9816001610ff9565b156116dc57816116d88161225d565b9250505b826116e68161225d565b93505060005a90508085111561170d5761170a6117038683611a8a565b87906117b4565b95505b93506116329050565b601285905590975095509193505050505b9193909250565b60008261173d5750600061093e565b600061174983856121ad565b905082611756858361218d565b146117ad5760405162461bcd60e51b815260206004820152602160248201527f536166654d6174683a206d756c7469706c69636174696f6e206f766572666c6f6044820152607760f81b6064820152608401610a33565b9392505050565b6000806117c18385612175565b9050838110156117ad5760405162461bcd60e51b815260206004820152601b60248201527f536166654d6174683a206164646974696f6e206f766572666c6f7700000000006044820152606401610a33565b6001600160a01b0383166118755760405162461bcd60e51b8152602060048201526024808201527f45524332303a20617070726f76652066726f6d20746865207a65726f206164646044820152637265737360e01b6064820152608401610a33565b6001600160a01b0382166118d65760405162461bcd60e51b815260206004820152602260248201527f45524332303a20617070726f766520746f20746865207a65726f206164647265604482015261737360f01b6064820152608401610a33565b6001600160a01b0383811660008181526001602090815260408083209487168084529482529182902085905590518481527f8c5be1e5ebec7d5bd14f71427d1e84f3dd0314c0f7b2291e5b200ac8c7c3b925910160405180910390a3505050565b60405162461bcd60e51b815260206004820152602b60248201527f585250555f4469766964656e645f547261636b65723a204e6f207472616e736660448201526a195c9cc8185b1b1bddd95960aa1b6064820152608401610a33565b600081848411156119b75760405162461bcd60e51b8152600401610a3391906120ac565b506119c2838561220b565b949350505050565b6000818181121561093e57600080fd5b6000806119e78385612134565b9050600083121580156119fa5750838112155b80611a0f5750600083128015611a0f57508381125b6117ad57600080fd5b600080821215611a2757600080fd5b5090565b6001600160a01b03821660009081526020819052604090205480821115611a6a576000611a588383611a8a565b9050611a648482611ccd565b50505050565b8082101561122e576000611a7e8284611a8a565b9050611a648482611d31565b600082821115611adc5760405162461bcd60e51b815260206004820152601e60248201527f536166654d6174683a207375627472616374696f6e206f766572666c6f7700006044820152606401610a33565b6117ad828461220b565b600080611af283610fc0565b90508015611c51576001600160a01b0383166000908152600a6020526040902054611b1d90826117b4565b6001600160a01b0384166000818152600a6020526040908190209290925590517fee503bee2bb6a87e57bc57db795f98137327401a0e7b7ce42e37926cc1a9ca4d90611b6c9084815260200190565b60405180910390a260085460405163a9059cbb60e01b81526001600160a01b03858116600483015260248201849052600092169063a9059cbb90604401602060405180830381600087803b158015611bc357600080fd5b505af1158015611bd7573d6000803e3d6000fd5b505050506040513d601f19601f82011682018060405250810190611bfb9190612060565b905080611c4a576001600160a01b0384166000908152600a6020526040902054611c259083611a8a565b6001600160a01b039094166000908152600a6020526040812094909455509192915050565b5092915050565b50600092915050565b6000808212158015611c75575082611c7283826121cc565b13155b80611c935750600082128015611c93575082611c9183826121cc565b135b611c9c57600080fd5b6117ad82846121cc565b600042821115611cb857506000919050565b601554611cc54284611a8a565b101592915050565b611cd78282611d75565b611d11611cf26109ef8360065461172e90919063ffffffff16565b6001600160a01b03841660009081526009602052604090205490611c5a565b6001600160a01b0390921660009081526009602052604090209190915550565b611d3b8282611e54565b611d11611d566109ef8360065461172e90919063ffffffff16565b6001600160a01b038416600090815260096020526040902054906119da565b6001600160a01b038216611dcb5760405162461bcd60e51b815260206004820152601f60248201527f45524332303a206d696e7420746f20746865207a65726f2061646472657373006044820152606401610a33565b600254611dd890826117b4565b6002556001600160a01b038216600090815260208190526040902054611dfe90826117b4565b6001600160a01b038316600081815260208181526040808320949094559251848152919290917fddf252ad1be2c89b69c2b068fc378daa952ba7f163c4a11628f55a4df523b3ef91015b60405180910390a35050565b6001600160a01b038216611eb45760405162461bcd60e51b815260206004820152602160248201527f45524332303a206275726e2066726f6d20746865207a65726f206164647265736044820152607360f81b6064820152608401610a33565b611ef1816040518060600160405280602281526020016122b2602291396001600160a01b0385166000908152602081905260409020549190611993565b6001600160a01b038316600090815260208190526040902055600254611f179082611a8a565b6002556040518181526000906001600160a01b038416907fddf252ad1be2c89b69c2b068fc378daa952ba7f163c4a11628f55a4df523b3ef90602001611e48565b600060208284031215611f69578081fd5b81356117ad8161228e565b600060208284031215611f85578081fd5b81516117ad8161228e565b60008060408385031215611fa2578081fd5b8235611fad8161228e565b91506020830135611fbd816122a3565b809150509250929050565b60008060408385031215611fda578182fd5b8235611fe58161228e565b946020939093013593505050565b60008060408385031215612005578182fd5b82356120108161228e565b91506020830135611fbd8161228e565b600080600060608486031215612034578081fd5b833561203f8161228e565b9250602084013561204f8161228e565b929592945050506040919091013590565b600060208284031215612071578081fd5b81516117ad816122a3565b60006020828403121561208d578081fd5b5051919050565b6000602082840312156120a5578081fd5b5035919050565b6000602080835283518082850152825b818110156120d8578581018301518582016040015282016120bc565b818111156120e95783604083870101525b50601f01601f1916929092016040019392505050565b6020808252818101527f4f776e61626c653a2063616c6c6572206973206e6f7420746865206f776e6572604082015260600190565b600080821280156001600160ff1b038490038513161561215657612156612278565b600160ff1b839003841281161561216f5761216f612278565b50500190565b6000821982111561218857612188612278565b500190565b6000826121a857634e487b7160e01b81526012600452602481fd5b500490565b60008160001904831182151516156121c7576121c7612278565b500290565b60008083128015600160ff1b8501841216156121ea576121ea612278565b6001600160ff1b038401831381161561220557612205612278565b50500390565b60008282101561221d5761221d612278565b500390565b600181811c9082168061223657607f821691505b6020821081141561225757634e487b7160e01b600052602260045260246000fd5b50919050565b600060001982141561227157612271612278565b5060010190565b634e487b7160e01b600052601160045260246000fd5b6001600160a01b0381168114610bb757600080fd5b8015158114610bb757600080fdfe45524332303a206275726e20616d6f756e7420657863656564732062616c616e636545524332303a207472616e7366657220616d6f756e74206578636565647320616c6c6f77616e636545524332303a2064656372656173656420616c6c6f77616e63652062656c6f77207a65726fa264697066735822122075fafee6e783c64fcad1218c208ded2ca6cbb3ab21b9a0cc46fc68a4d96b159864736f6c63430008040033"
  }
}