{
  "opcodeHash": "0xd4868368d3b37cc0363f90a27e3b9f9eae08534aa254559ed7aeacfda9aa4d7d",
  "metalessHash": "0xccec8aa37263218bb412fdd6ee43ff5d31b4524e377e21411e32623f6a88082a",
  "runtimeHash": "0x36b8c04656121ea96f89574cc8bdd626cb8e2bec0ac347970664dfed7843e652",
  "encodedMetadata": [
    {
      "ipfs": "/ipfs/QmSw3ukBd8k24Y9yLdrHGg8cqUJtpqYdTf9SyUQxUbXcAD",
      "solc": "0.8.7"
    }
  ],
  "abi": [
    {
      "inputs": [
        {
          "internalType": "string",
          "name": "_name",
          "type": "string"
        },
        {
          "internalType": "string",
          "name": "_symbol",
          "type": "string"
        },
        {
          "internalType": "string",
          "name": "_initBaseURI",
          "type": "string"
        },
        {
          "internalType": "string",
          "name": "_initNotRevealedUri",
          "type": "string"
        }
      ],
      "stateMutability": "nonpayable",
      "type": "constructor"
    },
    {
      "anonymous": false,
      "inputs": [
        {
          "indexed": true,
          "internalType": "address",
          "name": "owner",
          "type": "address"
        },
        {
          "indexed": true,
          "internalType": "address",
          "name": "approved",
          "type": "address"
        },
        {
          "indexed": true,
          "internalType": "uint256",
          "name": "tokenId",
          "type": "uint256"
        }
      ],
      "name": "Approval",
      "type": "event"
    },
    {
      "anonymous": false,
      "inputs": [
        {
          "indexed": true,
          "internalType": "address",
          "name": "owner",
          "type": "address"
        },
        {
          "indexed": true,
          "internalType": "address",
          "name": "operator",
          "type": "address"
        },
        {
          "indexed": false,
          "internalType": "bool",
          "name": "approved",
          "type": "bool"
        }
      ],
      "name": "ApprovalForAll",
      "type": "event"
    },
    {
      "anonymous": false,
      "inputs": [
        {
          "indexed": true,
          "internalType": "address",
          "name": "previousOwner",
          "type": "address"
        },
        {
          "indexed": true,
          "internalType": "address",
          "name": "newOwner",
          "type": "address"
        }
      ],
      "name": "OwnershipTransferred",
      "type": "event"
    },
    {
      "anonymous": false,
      "inputs": [
        {
          "indexed": true,
          "internalType": "address",
          "name": "from",
          "type": "address"
        },
        {
          "indexed": true,
          "internalType": "address",
          "name": "to",
          "type": "address"
        },
        {
          "indexed": true,
          "internalType": "uint256",
          "name": "tokenId",
          "type": "uint256"
        }
      ],
      "name": "Transfer",
      "type": "event"
    },
    {
      "inputs": [
        {
          "internalType": "address",
          "name": "",
          "type": "address"
        }
      ],
      "name": "addressMintedBalance",
      "outputs": [
        {
          "internalType": "uint256",
          "name": "",
          "type": "uint256"
        }
      ],
      "stateMutability": "view",
      "type": "function"
    },
    {
      "inputs": [
        {
          "internalType": "address",
          "name": "to",
          "type": "address"
        },
        {
          "internalType": "uint256",
          "name": "tokenId",
          "type": "uint256"
        }
      ],
      "name": "approve",
      "outputs": [],
      "stateMutability": "nonpayable",
      "type": "function"
    },
    {
      "inputs": [
        {
          "internalType": "address",
          "name": "owner",
          "type": "address"
        }
      ],
      "name": "balanceOf",
      "outputs": [
        {
          "internalType": "uint256",
          "name": "",
          "type": "uint256"
        }
      ],
      "stateMutability": "view",
      "type": "function"
    },
    {
      "inputs": [],
      "name": "baseExtension",
      "outputs": [
        {
          "internalType": "string",
          "name": "",
          "type": "string"
        }
      ],
      "stateMutability": "view",
      "type": "function"
    },
    {
      "inputs": [],
      "name": "cost",
      "outputs": [
        {
          "internalType": "uint256",
          "name": "",
          "type": "uint256"
        }
      ],
      "stateMutability": "view",
      "type": "function"
    },
    {
      "inputs": [
        {
          "internalType": "uint256",
          "name": "tokenId",
          "type": "uint256"
        }
      ],
      "name": "getApproved",
      "outputs": [
        {
          "internalType": "address",
          "name": "",
          "type": "address"
        }
      ],
      "stateMutability": "view",
      "type": "function"
    },
    {
      "inputs": [
        {
          "internalType": "address",
          "name": "owner",
          "type": "address"
        },
        {
          "internalType": "address",
          "name": "operator",
          "type": "address"
        }
      ],
      "name": "isApprovedForAll",
      "outputs": [
        {
          "internalType": "bool",
          "name": "",
          "type": "bool"
        }
      ],
      "stateMutability": "view",
      "type": "function"
    },
    {
      "inputs": [
        {
          "internalType": "address",
          "name": "_user",
          "type": "address"
        }
      ],
      "name": "isWhitelisted",
      "outputs": [
        {
          "internalType": "bool",
          "name": "",
          "type": "bool"
        }
      ],
      "stateMutability": "view",
      "type": "function"
    },
    {
      "inputs": [],
      "name": "maxMintAmount",
      "outputs": [
        {
          "internalType": "uint256",
          "name": "",
          "type": "uint256"
        }
      ],
      "stateMutability": "view",
      "type": "function"
    },
    {
      "inputs": [],
      "name": "maxSupply",
      "outputs": [
        {
          "internalType": "uint256",
          "name": "",
          "type": "uint256"
        }
      ],
      "stateMutability": "view",
      "type": "function"
    },
    {
      "inputs": [
        {
          "internalType": "uint256",
          "name": "_mintAmount",
          "type": "uint256"
        }
      ],
      "name": "mint",
      "outputs": [],
      "stateMutability": "payable",
      "type": "function"
    },
    {
      "inputs": [],
      "name": "name",
      "outputs": [
        {
          "internalType": "string",
          "name": "",
          "type": "string"
        }
      ],
      "stateMutability": "view",
      "type": "function"
    },
    {
      "inputs": [],
      "name": "nftPerAddressLimit",
      "outputs": [
        {
          "internalType": "uint256",
          "name": "",
          "type": "uint256"
        }
      ],
      "stateMutability": "view",
      "type": "function"
    },
    {
      "inputs": [],
      "name": "notRevealedUri",
      "outputs": [
        {
          "internalType": "string",
          "name": "",
          "type": "string"
        }
      ],
      "stateMutability": "view",
      "type": "function"
    },
    {
      "inputs": [],
      "name": "onlyWhitelisted",
      "outputs": [
        {
          "internalType": "bool",
          "name": "",
          "type": "bool"
        }
      ],
      "stateMutability": "view",
      "type": "function"
    },
    {
      "inputs": [],
      "name": "owner",
      "outputs": [
        {
          "internalType": "address",
          "name": "",
          "type": "address"
        }
      ],
      "stateMutability": "view",
      "type": "function"
    },
    {
      "inputs": [
        {
          "internalType": "uint256",
          "name": "tokenId",
          "type": "uint256"
        }
      ],
      "name": "ownerOf",
      "outputs": [
        {
          "internalType": "address",
          "name": "",
          "type": "address"
        }
      ],
      "stateMutability": "view",
      "type": "function"
    },
    {
      "inputs": [
        {
          "internalType": "bool",
          "name": "_state",
          "type": "bool"
        }
      ],
      "name": "pause",
      "outputs": [],
      "stateMutability": "nonpayable",
      "type": "function"
    },
    {
      "inputs": [],
      "name": "paused",
      "outputs": [
        {
          "internalType": "bool",
          "name": "",
          "type": "bool"
        }
      ],
      "stateMutability": "view",
      "type": "function"
    },
    {
      "inputs": [],
      "name": "renounceOwnership",
      "outputs": [],
      "stateMutability": "nonpayable",
      "type": "function"
    },
    {
      "inputs": [],
      "name": "reveal",
      "outputs": [],
      "stateMutability": "nonpayable",
      "type": "function"
    },
    {
      "inputs": [],
      "name": "revealed",
      "outputs": [
        {
          "internalType": "bool",
          "name": "",
          "type": "bool"
        }
      ],
      "stateMutability": "view",
      "type": "function"
    },
    {
      "inputs": [
        {
          "internalType": "address",
          "name": "from",
          "type": "address"
        },
        {
          "internalType": "address",
          "name": "to",
          "type": "address"
        },
        {
          "internalType": "uint256",
          "name": "tokenId",
          "type": "uint256"
        }
      ],
      "name": "safeTransferFrom",
      "outputs": [],
      "stateMutability": "nonpayable",
      "type": "function"
    },
    {
      "inputs": [
        {
          "internalType": "address",
          "name": "from",
          "type": "address"
        },
        {
          "internalType": "address",
          "name": "to",
          "type": "address"
        },
        {
          "internalType": "uint256",
          "name": "tokenId",
          "type": "uint256"
        },
        {
          "internalType": "bytes",
          "name": "_data",
          "type": "bytes"
        }
      ],
      "name": "safeTransferFrom",
      "outputs": [],
      "stateMutability": "nonpayable",
      "type": "function"
    },
    {
      "inputs": [
        {
          "internalType": "address",
          "name": "operator",
          "type": "address"
        },
        {
          "internalType": "bool",
          "name": "approved",
          "type": "bool"
        }
      ],
      "name": "setApprovalForAll",
      "outputs": [],
      "stateMutability": "nonpayable",
      "type": "function"
    },
    {
      "inputs": [
        {
          "internalType": "string",
          "name": "_newBaseExtension",
          "type": "string"
        }
      ],
      "name": "setBaseExtension",
      "outputs": [],
      "stateMutability": "nonpayable",
      "type": "function"
    },
    {
      "inputs": [
        {
          "internalType": "string",
          "name": "_newBaseURI",
          "type": "string"
        }
      ],
      "name": "setBaseURI",
      "outputs": [],
      "stateMutability": "nonpayable",
      "type": "function"
    },
    {
      "inputs": [
        {
          "internalType": "uint256",
          "name": "_newCost",
          "type": "uint256"
        }
      ],
      "name": "setCost",
      "outputs": [],
      "stateMutability": "nonpayable",
      "type": "function"
    },
    {
      "inputs": [
        {
          "internalType": "uint256",
          "name": "_newmaxMintAmount",
          "type": "uint256"
        }
      ],
      "name": "setMaxMintAmount",
      "outputs": [],
      "stateMutability": "nonpayable",
      "type": "function"
    },
    {
      "inputs": [
        {
          "internalType": "string",
          "name": "_notRevealedURI",
          "type": "string"
        }
      ],
      "name": "setNotRevealedURI",
      "outputs": [],
      "stateMutability": "nonpayable",
      "type": "function"
    },
    {
      "inputs": [
        {
          "internalType": "bool",
          "name": "_state",
          "type": "bool"
        }
      ],
      "name": "setOnlyWhitelisted",
      "outputs": [],
      "stateMutability": "nonpayable",
      "type": "function"
    },
    {
      "inputs": [
        {
          "internalType": "uint256",
          "name": "_limit",
          "type": "uint256"
        }
      ],
      "name": "setnftPerAddressLimit",
      "outputs": [],
      "stateMutability": "nonpayable",
      "type": "function"
    },
    {
      "inputs": [
        {
          "internalType": "bytes4",
          "name": "interfaceId",
          "type": "bytes4"
        }
      ],
      "name": "supportsInterface",
      "outputs": [
        {
          "internalType": "bool",
          "name": "",
          "type": "bool"
        }
      ],
      "stateMutability": "view",
      "type": "function"
    },
    {
      "inputs": [],
      "name": "symbol",
      "outputs": [
        {
          "internalType": "string",
          "name": "",
          "type": "string"
        }
      ],
      "stateMutability": "view",
      "type": "function"
    },
    {
      "inputs": [
        {
          "internalType": "uint256",
          "name": "index",
          "type": "uint256"
        }
      ],
      "name": "tokenByIndex",
      "outputs": [
        {
          "internalType": "uint256",
          "name": "",
          "type": "uint256"
        }
      ],
      "stateMutability": "view",
      "type": "function"
    },
    {
      "inputs": [
        {
          "internalType": "address",
          "name": "owner",
          "type": "address"
        },
        {
          "internalType": "uint256",
          "name": "index",
          "type": "uint256"
        }
      ],
      "name": "tokenOfOwnerByIndex",
      "outputs": [
        {
          "internalType": "uint256",
          "name": "",
          "type": "uint256"
        }
      ],
      "stateMutability": "view",
      "type": "function"
    },
    {
      "inputs": [
        {
          "internalType": "uint256",
          "name": "tokenId",
          "type": "uint256"
        }
      ],
      "name": "tokenURI",
      "outputs": [
        {
          "internalType": "string",
          "name": "",
          "type": "string"
        }
      ],
      "stateMutability": "view",
      "type": "function"
    },
    {
      "inputs": [],
      "name": "totalSupply",
      "outputs": [
        {
          "internalType": "uint256",
          "name": "",
          "type": "uint256"
        }
      ],
      "stateMutability": "view",
      "type": "function"
    },
    {
      "inputs": [
        {
          "internalType": "address",
          "name": "from",
          "type": "address"
        },
        {
          "internalType": "address",
          "name": "to",
          "type": "address"
        },
        {
          "internalType": "uint256",
          "name": "tokenId",
          "type": "uint256"
        }
      ],
      "name": "transferFrom",
      "outputs": [],
      "stateMutability": "nonpayable",
      "type": "function"
    },
    {
      "inputs": [
        {
          "internalType": "address",
          "name": "newOwner",
          "type": "address"
        }
      ],
      "name": "transferOwnership",
      "outputs": [],
      "stateMutability": "nonpayable",
      "type": "function"
    },
    {
      "inputs": [
        {
          "internalType": "address",
          "name": "_owner",
          "type": "address"
        }
      ],
      "name": "walletOfOwner",
      "outputs": [
        {
          "internalType": "uint256[]",
          "name": "",
          "type": "uint256[]"
        }
      ],
      "stateMutability": "view",
      "type": "function"
    },
    {
      "inputs": [
        {
          "internalType": "address[]",
          "name": "_users",
          "type": "address[]"
        }
      ],
      "name": "whitelistUsers",
      "outputs": [],
      "stateMutability": "nonpayable",
      "type": "function"
    },
    {
      "inputs": [
        {
          "internalType": "uint256",
          "name": "",
          "type": "uint256"
        }
      ],
      "name": "whitelistedAddresses",
      "outputs": [
        {
          "internalType": "address",
          "name": "",
          "type": "address"
        }
      ],
      "stateMutability": "view",
      "type": "function"
    },
    {
      "inputs": [],
      "name": "withdraw",
      "outputs": [],
      "stateMutability": "payable",
      "type": "function"
    }
  ],
  "bytecode": {
    "object": "60c06040526005608081905264173539b7b760d91b60a09081526200002891600c919062000c7d565b50668e1bc9bf040000600e556103e8600f556014601055600a6011556012805462ffffff191690553480156200005d57600080fd5b5060405162003ac938038062003ac9833981016040819052620000809162000de7565b8351849084906200009990600090602085019062000c7d565b508051620000af90600190602084019062000c7d565b505050620000cc620000c6620000f860201b60201c565b620000fc565b620000d7826200014e565b620000e281620001b6565b620000ee601462000216565b5050505062001033565b3390565b600a80546001600160a01b038381166001600160a01b0319831681179093556040519116919082907f8be0079c531659141344cd1fd0a4f28419497f9722a3daafe3b4186f6b6457e090600090a35050565b600a546001600160a01b031633146200019d5760405162461bcd60e51b8152602060048201819052602482015260008051602062003aa983398151915260448201526064015b60405180910390fd5b8051620001b290600b90602084019062000c7d565b5050565b600a546001600160a01b03163314620002015760405162461bcd60e51b8152602060048201819052602482015260008051602062003aa9833981519152604482015260640162000194565b8051620001b290600d90602084019062000c7d565b60125460ff1615620002915760405162461bcd60e51b815260206004820152603b60248201527f54686520636f6e747261637420686173206265656e20706175736564206f722060448201527f7468652073616c65206973206e6f7420616374697665207965742e0000000000606482015260840162000194565b60006200029d60085490565b905060008211620003045760405162461bcd60e51b815260206004820152602a60248201527f4d696e7420616d6f756e742073686f756c642062652031206f7220677265617460448201526932b9103a3430b710189760b11b606482015260840162000194565b601054821115620003585760405162461bcd60e51b815260206004820152601d60248201527f4d6178204e4654207065722073657373696f6e2065786365656465642e000000604482015260640162000194565b600f5462000367838362000ef6565b1115620003ce5760405162461bcd60e51b815260206004820152602e60248201527f4d696e7420616d6f756e7420657863656564656420746865206d61782061766160448201526d34b630b136329039bab838363c9760911b606482015260840162000194565b600a546001600160a01b03163314620005355760125462010000900460ff16151560011415620004d457620004033362000594565b620004515760405162461bcd60e51b815260206004820152601860248201527f55736572206973206e6f742077686974656c69737465642e0000000000000000604482015260640162000194565b3360009081526014602052604090205460115462000470848362000ef6565b1115620004d25760405162461bcd60e51b815260206004820152602960248201527f4d6178204e4654207065722077686974656c697374656420616464726573732060448201526832bc31b2b2b232b21760b91b606482015260840162000194565b505b81600e54620004e4919062000f11565b341015620005355760405162461bcd60e51b815260206004820152601360248201527f496e73756666696369656e742066756e64732e00000000000000000000000000604482015260640162000194565b60015b8281116200058f573360009081526014602052604081208054916200055d8362000fbd565b909155506200057a90503362000574838562000ef6565b62000606565b80620005868162000fbd565b91505062000538565b505050565b6000805b601354811015620005fd57826001600160a01b031660138281548110620005c357620005c362001007565b6000918252602090912001546001600160a01b03161415620005e85750600192915050565b80620005f48162000fbd565b91505062000598565b50600092915050565b620001b28282604051806020016040528060008152506200062860201b60201c565b6200063483836200069b565b620006436000848484620007f1565b6200058f5760405162461bcd60e51b8152602060048201526032602482015260008051602062003a8983398151915260448201527131b2b4bb32b91034b6b83632b6b2b73a32b960711b606482015260840162000194565b6001600160a01b038216620006f35760405162461bcd60e51b815260206004820181905260248201527f4552433732313a206d696e7420746f20746865207a65726f2061646472657373604482015260640162000194565b6000818152600260205260409020546001600160a01b0316156200075a5760405162461bcd60e51b815260206004820152601c60248201527f4552433732313a20746f6b656e20616c7265616479206d696e74656400000000604482015260640162000194565b62000768600083836200095a565b6001600160a01b03821660009081526003602052604081208054600192906200079390849062000ef6565b909155505060008181526002602052604080822080546001600160a01b0319166001600160a01b03861690811790915590518392907fddf252ad1be2c89b69c2b068fc378daa952ba7f163c4a11628f55a4df523b3ef908290a45050565b600062000812846001600160a01b031662000a3660201b6200181e1760201c565b156200094e57604051630a85bd0160e11b81526001600160a01b0385169063150b7a02906200084c90339089908890889060040162000ea0565b602060405180830381600087803b1580156200086757600080fd5b505af19250505080156200089a575060408051601f3d908101601f19168201909252620008979181019062000db4565b60015b62000933573d808015620008cb576040519150601f19603f3d011682016040523d82523d6000602084013e620008d0565b606091505b5080516200092b5760405162461bcd60e51b8152602060048201526032602482015260008051602062003a8983398151915260448201527131b2b4bb32b91034b6b83632b6b2b73a32b960711b606482015260840162000194565b805181602001fd5b6001600160e01b031916630a85bd0160e11b14905062000952565b5060015b949350505050565b620009728383836200058f60201b62000b3c1760201c565b6001600160a01b038316620009d057620009ca81600880546000838152600960205260408120829055600182018355919091527ff3f7a9fe364faab93b216da50a3214154f22a0a2b415b23a84c8169e8b636ee30155565b620009f6565b816001600160a01b0316836001600160a01b031614620009f657620009f6838262000a3c565b6001600160a01b03821662000a10576200058f8162000ae9565b826001600160a01b0316826001600160a01b0316146200058f576200058f828262000ba3565b3b151590565b6000600162000a568462000bf460201b62000f951760201c565b62000a62919062000f33565b60008381526007602052604090205490915080821462000ab6576001600160a01b03841660009081526006602090815260408083208584528252808320548484528184208190558352600790915290208190555b5060009182526007602090815260408084208490556001600160a01b039094168352600681528383209183525290812055565b60085460009062000afd9060019062000f33565b6000838152600960205260408120546008805493945090928490811062000b285762000b2862001007565b90600052602060002001549050806008838154811062000b4c5762000b4c62001007565b600091825260208083209091019290925582815260099091526040808220849055858252812055600880548062000b875762000b8762000ff1565b6001900381819060005260206000200160009055905550505050565b600062000bbb8362000bf460201b62000f951760201c565b6001600160a01b039093166000908152600660209081526040808320868452825280832085905593825260079052919091209190915550565b60006001600160a01b03821662000c615760405162461bcd60e51b815260206004820152602a60248201527f4552433732313a2062616c616e636520717565727920666f7220746865207a65604482015269726f206164647265737360b01b606482015260840162000194565b506001600160a01b031660009081526003602052604090205490565b82805462000c8b9062000f80565b90600052602060002090601f01602090048101928262000caf576000855562000cfa565b82601f1062000cca57805160ff191683800117855562000cfa565b8280016001018555821562000cfa579182015b8281111562000cfa57825182559160200191906001019062000cdd565b5062000d0892915062000d0c565b5090565b5b8082111562000d08576000815560010162000d0d565b600082601f83011262000d3557600080fd5b81516001600160401b038082111562000d525762000d526200101d565b604051601f8301601f19908116603f0116810190828211818310171562000d7d5762000d7d6200101d565b8160405283815286602085880101111562000d9757600080fd5b62000daa84602083016020890162000f4d565b9695505050505050565b60006020828403121562000dc757600080fd5b81516001600160e01b03198116811462000de057600080fd5b9392505050565b6000806000806080858703121562000dfe57600080fd5b84516001600160401b038082111562000e1657600080fd5b62000e248883890162000d23565b9550602087015191508082111562000e3b57600080fd5b62000e498883890162000d23565b9450604087015191508082111562000e6057600080fd5b62000e6e8883890162000d23565b9350606087015191508082111562000e8557600080fd5b5062000e948782880162000d23565b91505092959194509250565b600060018060a01b03808716835280861660208401525083604083015260806060830152825180608084015262000edf8160a085016020870162000f4d565b601f01601f19169190910160a00195945050505050565b6000821982111562000f0c5762000f0c62000fdb565b500190565b600081600019048311821515161562000f2e5762000f2e62000fdb565b500290565b60008282101562000f485762000f4862000fdb565b500390565b60005b8381101562000f6a57818101518382015260200162000f50565b8381111562000f7a576000848401525b50505050565b600181811c9082168062000f9557607f821691505b6020821081141562000fb757634e487b7160e01b600052602260045260246000fd5b50919050565b600060001982141562000fd45762000fd462000fdb565b5060010190565b634e487b7160e01b600052601160045260246000fd5b634e487b7160e01b600052603160045260246000fd5b634e487b7160e01b600052603260045260246000fd5b634e487b7160e01b600052604160045260246000fd5b612a4680620010436000396000f3fe6080604052600436106102675760003560e01c80635c975abb11610144578063b88d4fde116100b6578063d5abeb011161007a578063d5abeb01146106f7578063da3ef23f1461070d578063e985e9c51461072d578063edec5f2714610776578063f2c4ce1e14610796578063f2fde38b146107b657600080fd5b8063b88d4fde1461066c578063ba4e5c491461068c578063ba7d2c76146106ac578063c6682862146106c2578063c87b56dd146106d757600080fd5b80638f14085d116101085780638f14085d146105cf57806395d89b41146105ef5780639c70b51214610604578063a0712d6814610624578063a22cb46514610637578063a475b5dd1461065757600080fd5b80635c975abb146105425780636352211e1461055c57806370a082311461057c578063715018a61461059c5780638da5cb5b146105b157600080fd5b806323b872dd116101dd57806342842e0e116101a157806342842e0e14610476578063438b63001461049657806344a0d68a146104c35780634f6ccce7146104e3578063518302271461050357806355f804b31461052257600080fd5b806323b872dd146103ee5780632f745c591461040e5780633af32abf1461042e5780633c9527641461044e5780633ccfd60b1461046e57600080fd5b8063088a4ed01161022f578063088a4ed014610332578063095ea7b31461035257806313faede61461037257806318160ddd1461039657806318cae269146103ab578063239c70ae146103d857600080fd5b806301ffc9a71461026c57806302329a29146102a157806306fdde03146102c3578063081812fc146102e5578063081c8c441461031d575b600080fd5b34801561027857600080fd5b5061028c61028736600461259c565b6107d6565b60405190151581526020015b60405180910390f35b3480156102ad57600080fd5b506102c16102bc366004612581565b610801565b005b3480156102cf57600080fd5b506102d8610847565b60405161029891906127a9565b3480156102f157600080fd5b5061030561030036600461261f565b6108d9565b6040516001600160a01b039091168152602001610298565b34801561032957600080fd5b506102d861096e565b34801561033e57600080fd5b506102c161034d36600461261f565b6109fc565b34801561035e57600080fd5b506102c161036d3660046124e2565b610a2b565b34801561037e57600080fd5b50610388600e5481565b604051908152602001610298565b3480156103a257600080fd5b50600854610388565b3480156103b757600080fd5b506103886103c63660046123b2565b60146020526000908152604090205481565b3480156103e457600080fd5b5061038860105481565b3480156103fa57600080fd5b506102c1610409366004612400565b610b41565b34801561041a57600080fd5b506103886104293660046124e2565b610b72565b34801561043a57600080fd5b5061028c6104493660046123b2565b610c08565b34801561045a57600080fd5b506102c1610469366004612581565b610c72565b6102c1610cb8565b34801561048257600080fd5b506102c1610491366004612400565b610d5e565b3480156104a257600080fd5b506104b66104b13660046123b2565b610d79565b6040516102989190612765565b3480156104cf57600080fd5b506102c16104de36600461261f565b610e1b565b3480156104ef57600080fd5b506103886104fe36600461261f565b610e4a565b34801561050f57600080fd5b5060125461028c90610100900460ff1681565b34801561052e57600080fd5b506102c161053d3660046125d6565b610edd565b34801561054e57600080fd5b5060125461028c9060ff1681565b34801561056857600080fd5b5061030561057736600461261f565b610f1e565b34801561058857600080fd5b506103886105973660046123b2565b610f95565b3480156105a857600080fd5b506102c161101c565b3480156105bd57600080fd5b50600a546001600160a01b0316610305565b3480156105db57600080fd5b506102c16105ea36600461261f565b611052565b3480156105fb57600080fd5b506102d8611081565b34801561061057600080fd5b5060125461028c9062010000900460ff1681565b6102c161063236600461261f565b611090565b34801561064357600080fd5b506102c16106523660046124b8565b6113dc565b34801561066357600080fd5b506102c16114a1565b34801561067857600080fd5b506102c161068736600461243c565b6114dc565b34801561069857600080fd5b506103056106a736600461261f565b611514565b3480156106b857600080fd5b5061038860115481565b3480156106ce57600080fd5b506102d861153e565b3480156106e357600080fd5b506102d86106f236600461261f565b61154b565b34801561070357600080fd5b50610388600f5481565b34801561071957600080fd5b506102c16107283660046125d6565b6116ca565b34801561073957600080fd5b5061028c6107483660046123cd565b6001600160a01b03918216600090815260056020908152604080832093909416825291909152205460ff1690565b34801561078257600080fd5b506102c161079136600461250c565b611707565b3480156107a257600080fd5b506102c16107b13660046125d6565b611749565b3480156107c257600080fd5b506102c16107d13660046123b2565b611786565b60006001600160e01b0319821663780e9d6360e01b14806107fb57506107fb82611824565b92915050565b600a546001600160a01b031633146108345760405162461bcd60e51b815260040161082b9061280e565b60405180910390fd5b6012805460ff1916911515919091179055565b60606000805461085690612922565b80601f016020809104026020016040519081016040528092919081815260200182805461088290612922565b80156108cf5780601f106108a4576101008083540402835291602001916108cf565b820191906000526020600020905b8154815290600101906020018083116108b257829003601f168201915b5050505050905090565b6000818152600260205260408120546001600160a01b03166109525760405162461bcd60e51b815260206004820152602c60248201527f4552433732313a20617070726f76656420717565727920666f72206e6f6e657860448201526b34b9ba32b73a103a37b5b2b760a11b606482015260840161082b565b506000908152600460205260409020546001600160a01b031690565b600d805461097b90612922565b80601f01602080910402602001604051908101604052809291908181526020018280546109a790612922565b80156109f45780601f106109c9576101008083540402835291602001916109f4565b820191906000526020600020905b8154815290600101906020018083116109d757829003601f168201915b505050505081565b600a546001600160a01b03163314610a265760405162461bcd60e51b815260040161082b9061280e565b601055565b6000610a3682610f1e565b9050806001600160a01b0316836001600160a01b03161415610aa45760405162461bcd60e51b815260206004820152602160248201527f4552433732313a20617070726f76616c20746f2063757272656e74206f776e656044820152603960f91b606482015260840161082b565b336001600160a01b0382161480610ac05750610ac08133610748565b610b325760405162461bcd60e51b815260206004820152603860248201527f4552433732313a20617070726f76652063616c6c6572206973206e6f74206f7760448201527f6e6572206e6f7220617070726f76656420666f7220616c6c0000000000000000606482015260840161082b565b610b3c8383611874565b505050565b610b4b33826118e2565b610b675760405162461bcd60e51b815260040161082b90612843565b610b3c8383836119d9565b6000610b7d83610f95565b8210610bdf5760405162461bcd60e51b815260206004820152602b60248201527f455243373231456e756d657261626c653a206f776e657220696e646578206f7560448201526a74206f6620626f756e647360a81b606482015260840161082b565b506001600160a01b03919091166000908152600660209081526040808320938352929052205490565b6000805b601354811015610c6957826001600160a01b031660138281548110610c3357610c336129ce565b6000918252602090912001546001600160a01b03161415610c575750600192915050565b80610c618161295d565b915050610c0c565b50600092915050565b600a546001600160a01b03163314610c9c5760405162461bcd60e51b815260040161082b9061280e565b60128054911515620100000262ff000019909216919091179055565b600a546001600160a01b03163314610ce25760405162461bcd60e51b815260040161082b9061280e565b60004711610d225760405162461bcd60e51b815260206004820152600d60248201526c2130b630b731b29034b990181760991b604482015260640161082b565b600a546040516001600160a01b03909116904780156108fc02916000818181858888f19350505050158015610d5b573d6000803e3d6000fd5b50565b610b3c838383604051806020016040528060008152506114dc565b60606000610d8683610f95565b905060008167ffffffffffffffff811115610da357610da36129e4565b604051908082528060200260200182016040528015610dcc578160200160208202803683370190505b50905060005b82811015610e1357610de48582610b72565b828281518110610df657610df66129ce565b602090810291909101015280610e0b8161295d565b915050610dd2565b509392505050565b600a546001600160a01b03163314610e455760405162461bcd60e51b815260040161082b9061280e565b600e55565b6000610e5560085490565b8210610eb85760405162461bcd60e51b815260206004820152602c60248201527f455243373231456e756d657261626c653a20676c6f62616c20696e646578206f60448201526b7574206f6620626f756e647360a01b606482015260840161082b565b60088281548110610ecb57610ecb6129ce565b90600052602060002001549050919050565b600a546001600160a01b03163314610f075760405162461bcd60e51b815260040161082b9061280e565b8051610f1a90600b906020840190612206565b5050565b6000818152600260205260408120546001600160a01b0316806107fb5760405162461bcd60e51b815260206004820152602960248201527f4552433732313a206f776e657220717565727920666f72206e6f6e657869737460448201526832b73a103a37b5b2b760b91b606482015260840161082b565b60006001600160a01b0382166110005760405162461bcd60e51b815260206004820152602a60248201527f4552433732313a2062616c616e636520717565727920666f7220746865207a65604482015269726f206164647265737360b01b606482015260840161082b565b506001600160a01b031660009081526003602052604090205490565b600a546001600160a01b031633146110465760405162461bcd60e51b815260040161082b9061280e565b6110506000611b84565b565b600a546001600160a01b0316331461107c5760405162461bcd60e51b815260040161082b9061280e565b601155565b60606001805461085690612922565b60125460ff16156111095760405162461bcd60e51b815260206004820152603b60248201527f54686520636f6e747261637420686173206265656e20706175736564206f722060448201527f7468652073616c65206973206e6f7420616374697665207965742e0000000000606482015260840161082b565b600061111460085490565b9050600082116111795760405162461bcd60e51b815260206004820152602a60248201527f4d696e7420616d6f756e742073686f756c642062652031206f7220677265617460448201526932b9103a3430b710189760b11b606482015260840161082b565b6010548211156111cb5760405162461bcd60e51b815260206004820152601d60248201527f4d6178204e4654207065722073657373696f6e2065786365656465642e000000604482015260640161082b565b600f546111d88383612894565b111561123d5760405162461bcd60e51b815260206004820152602e60248201527f4d696e7420616d6f756e7420657863656564656420746865206d61782061766160448201526d34b630b136329039bab838363c9760911b606482015260840161082b565b600a546001600160a01b0316331461138c5760125462010000900460ff161515600114156113395761126e33610c08565b6112ba5760405162461bcd60e51b815260206004820152601860248201527f55736572206973206e6f742077686974656c69737465642e0000000000000000604482015260640161082b565b336000908152601460205260409020546011546112d78483612894565b11156113375760405162461bcd60e51b815260206004820152602960248201527f4d6178204e4654207065722077686974656c697374656420616464726573732060448201526832bc31b2b2b232b21760b91b606482015260840161082b565b505b81600e5461134791906128c0565b34101561138c5760405162461bcd60e51b815260206004820152601360248201527224b739bab33334b1b4b2b73a10333ab732399760691b604482015260640161082b565b60015b828111610b3c573360009081526014602052604081208054916113b18361295d565b909155506113ca9050336113c58385612894565b611bd6565b806113d48161295d565b91505061138f565b6001600160a01b0382163314156114355760405162461bcd60e51b815260206004820152601960248201527f4552433732313a20617070726f766520746f2063616c6c657200000000000000604482015260640161082b565b3360008181526005602090815260408083206001600160a01b03871680855290835292819020805460ff191686151590811790915590519081529192917f17307eab39ab6107e8899845ad3d59bd9653f200f220920489ca2b5937696c31910160405180910390a35050565b600a546001600160a01b031633146114cb5760405162461bcd60e51b815260040161082b9061280e565b6012805461ff001916610100179055565b6114e633836118e2565b6115025760405162461bcd60e51b815260040161082b90612843565b61150e84848484611bf0565b50505050565b6013818154811061152457600080fd5b6000918252602090912001546001600160a01b0316905081565b600c805461097b90612922565b6000818152600260205260409020546060906001600160a01b03166115ca5760405162461bcd60e51b815260206004820152602f60248201527f4552433732314d657461646174613a2055524920717565727920666f72206e6f60448201526e3732bc34b9ba32b73a103a37b5b2b760891b606482015260840161082b565b601254610100900460ff1661166b57600d80546115e690612922565b80601f016020809104026020016040519081016040528092919081815260200182805461161290612922565b801561165f5780601f106116345761010080835404028352916020019161165f565b820191906000526020600020905b81548152906001019060200180831161164257829003601f168201915b50505050509050919050565b6000611675611c23565b9050600081511161169557604051806020016040528060008152506116c3565b8061169f84611c32565b600c6040516020016116b393929190612664565b6040516020818303038152906040525b9392505050565b600a546001600160a01b031633146116f45760405162461bcd60e51b815260040161082b9061280e565b8051610f1a90600c906020840190612206565b600a546001600160a01b031633146117315760405162461bcd60e51b815260040161082b9061280e565b61173d6013600061228a565b610b3c601383836122a8565b600a546001600160a01b031633146117735760405162461bcd60e51b815260040161082b9061280e565b8051610f1a90600d906020840190612206565b600a546001600160a01b031633146117b05760405162461bcd60e51b815260040161082b9061280e565b6001600160a01b0381166118155760405162461bcd60e51b815260206004820152602660248201527f4f776e61626c653a206e6577206f776e657220697320746865207a65726f206160448201526564647265737360d01b606482015260840161082b565b610d5b81611b84565b3b151590565b60006001600160e01b031982166380ac58cd60e01b148061185557506001600160e01b03198216635b5e139f60e01b145b806107fb57506301ffc9a760e01b6001600160e01b03198316146107fb565b600081815260046020526040902080546001600160a01b0319166001600160a01b03841690811790915581906118a982610f1e565b6001600160a01b03167f8c5be1e5ebec7d5bd14f71427d1e84f3dd0314c0f7b2291e5b200ac8c7c3b92560405160405180910390a45050565b6000818152600260205260408120546001600160a01b031661195b5760405162461bcd60e51b815260206004820152602c60248201527f4552433732313a206f70657261746f7220717565727920666f72206e6f6e657860448201526b34b9ba32b73a103a37b5b2b760a11b606482015260840161082b565b600061196683610f1e565b9050806001600160a01b0316846001600160a01b031614806119a15750836001600160a01b0316611996846108d9565b6001600160a01b0316145b806119d157506001600160a01b0380821660009081526005602090815260408083209388168352929052205460ff165b949350505050565b826001600160a01b03166119ec82610f1e565b6001600160a01b031614611a545760405162461bcd60e51b815260206004820152602960248201527f4552433732313a207472616e73666572206f6620746f6b656e2074686174206960448201526839903737ba1037bbb760b91b606482015260840161082b565b6001600160a01b038216611ab65760405162461bcd60e51b8152602060048201526024808201527f4552433732313a207472616e7366657220746f20746865207a65726f206164646044820152637265737360e01b606482015260840161082b565b611ac1838383611d30565b611acc600082611874565b6001600160a01b0383166000908152600360205260408120805460019290611af59084906128df565b90915550506001600160a01b0382166000908152600360205260408120805460019290611b23908490612894565b909155505060008181526002602052604080822080546001600160a01b0319166001600160a01b0386811691821790925591518493918716917fddf252ad1be2c89b69c2b068fc378daa952ba7f163c4a11628f55a4df523b3ef91a4505050565b600a80546001600160a01b038381166001600160a01b0319831681179093556040519116919082907f8be0079c531659141344cd1fd0a4f28419497f9722a3daafe3b4186f6b6457e090600090a35050565b610f1a828260405180602001604052806000815250611de8565b611bfb8484846119d9565b611c0784848484611e1b565b61150e5760405162461bcd60e51b815260040161082b906127bc565b6060600b805461085690612922565b606081611c565750506040805180820190915260018152600360fc1b602082015290565b8160005b8115611c805780611c6a8161295d565b9150611c799050600a836128ac565b9150611c5a565b60008167ffffffffffffffff811115611c9b57611c9b6129e4565b6040519080825280601f01601f191660200182016040528015611cc5576020820181803683370190505b5090505b84156119d157611cda6001836128df565b9150611ce7600a86612978565b611cf2906030612894565b60f81b818381518110611d0757611d076129ce565b60200101906001600160f81b031916908160001a905350611d29600a866128ac565b9450611cc9565b6001600160a01b038316611d8b57611d8681600880546000838152600960205260408120829055600182018355919091527ff3f7a9fe364faab93b216da50a3214154f22a0a2b415b23a84c8169e8b636ee30155565b611dae565b816001600160a01b0316836001600160a01b031614611dae57611dae8382611f28565b6001600160a01b038216611dc557610b3c81611fc5565b826001600160a01b0316826001600160a01b031614610b3c57610b3c8282612074565b611df283836120b8565b611dff6000848484611e1b565b610b3c5760405162461bcd60e51b815260040161082b906127bc565b60006001600160a01b0384163b15611f1d57604051630a85bd0160e11b81526001600160a01b0385169063150b7a0290611e5f903390899088908890600401612728565b602060405180830381600087803b158015611e7957600080fd5b505af1925050508015611ea9575060408051601f3d908101601f19168201909252611ea6918101906125b9565b60015b611f03573d808015611ed7576040519150601f19603f3d011682016040523d82523d6000602084013e611edc565b606091505b508051611efb5760405162461bcd60e51b815260040161082b906127bc565b805181602001fd5b6001600160e01b031916630a85bd0160e11b1490506119d1565b506001949350505050565b60006001611f3584610f95565b611f3f91906128df565b600083815260076020526040902054909150808214611f92576001600160a01b03841660009081526006602090815260408083208584528252808320548484528184208190558352600790915290208190555b5060009182526007602090815260408084208490556001600160a01b039094168352600681528383209183525290812055565b600854600090611fd7906001906128df565b60008381526009602052604081205460088054939450909284908110611fff57611fff6129ce565b906000526020600020015490508060088381548110612020576120206129ce565b6000918252602080832090910192909255828152600990915260408082208490558582528120556008805480612058576120586129b8565b6001900381819060005260206000200160009055905550505050565b600061207f83610f95565b6001600160a01b039093166000908152600660209081526040808320868452825280832085905593825260079052919091209190915550565b6001600160a01b03821661210e5760405162461bcd60e51b815260206004820181905260248201527f4552433732313a206d696e7420746f20746865207a65726f2061646472657373604482015260640161082b565b6000818152600260205260409020546001600160a01b0316156121735760405162461bcd60e51b815260206004820152601c60248201527f4552433732313a20746f6b656e20616c7265616479206d696e74656400000000604482015260640161082b565b61217f60008383611d30565b6001600160a01b03821660009081526003602052604081208054600192906121a8908490612894565b909155505060008181526002602052604080822080546001600160a01b0319166001600160a01b03861690811790915590518392907fddf252ad1be2c89b69c2b068fc378daa952ba7f163c4a11628f55a4df523b3ef908290a45050565b82805461221290612922565b90600052602060002090601f016020900481019282612234576000855561227a565b82601f1061224d57805160ff191683800117855561227a565b8280016001018555821561227a579182015b8281111561227a57825182559160200191906001019061225f565b506122869291506122fb565b5090565b5080546000825590600052602060002090810190610d5b91906122fb565b82805482825590600052602060002090810192821561227a579160200282015b8281111561227a5781546001600160a01b0319166001600160a01b038435161782556020909201916001909101906122c8565b5b8082111561228657600081556001016122fc565b600067ffffffffffffffff8084111561232b5761232b6129e4565b604051601f8501601f19908116603f01168101908282118183101715612353576123536129e4565b8160405280935085815286868601111561236c57600080fd5b858560208301376000602087830101525050509392505050565b80356001600160a01b038116811461239d57600080fd5b919050565b8035801515811461239d57600080fd5b6000602082840312156123c457600080fd5b6116c382612386565b600080604083850312156123e057600080fd5b6123e983612386565b91506123f760208401612386565b90509250929050565b60008060006060848603121561241557600080fd5b61241e84612386565b925061242c60208501612386565b9150604084013590509250925092565b6000806000806080858703121561245257600080fd5b61245b85612386565b935061246960208601612386565b925060408501359150606085013567ffffffffffffffff81111561248c57600080fd5b8501601f8101871361249d57600080fd5b6124ac87823560208401612310565b91505092959194509250565b600080604083850312156124cb57600080fd5b6124d483612386565b91506123f7602084016123a2565b600080604083850312156124f557600080fd5b6124fe83612386565b946020939093013593505050565b6000806020838503121561251f57600080fd5b823567ffffffffffffffff8082111561253757600080fd5b818501915085601f83011261254b57600080fd5b81358181111561255a57600080fd5b8660208260051b850101111561256f57600080fd5b60209290920196919550909350505050565b60006020828403121561259357600080fd5b6116c3826123a2565b6000602082840312156125ae57600080fd5b81356116c3816129fa565b6000602082840312156125cb57600080fd5b81516116c3816129fa565b6000602082840312156125e857600080fd5b813567ffffffffffffffff8111156125ff57600080fd5b8201601f8101841361261057600080fd5b6119d184823560208401612310565b60006020828403121561263157600080fd5b5035919050565b600081518084526126508160208601602086016128f6565b601f01601f19169290920160200192915050565b6000845160206126778285838a016128f6565b85519184019161268a8184848a016128f6565b8554920191600090600181811c90808316806126a757607f831692505b8583108114156126c557634e487b7160e01b85526022600452602485fd5b8080156126d957600181146126ea57612717565b60ff19851688528388019550612717565b60008b81526020902060005b8581101561270f5781548a8201529084019088016126f6565b505083880195505b50939b9a5050505050505050505050565b6001600160a01b038581168252841660208201526040810183905260806060820181905260009061275b90830184612638565b9695505050505050565b6020808252825182820181905260009190848201906040850190845b8181101561279d57835183529284019291840191600101612781565b50909695505050505050565b6020815260006116c36020830184612638565b60208082526032908201527f4552433732313a207472616e7366657220746f206e6f6e20455243373231526560408201527131b2b4bb32b91034b6b83632b6b2b73a32b960711b606082015260800190565b6020808252818101527f4f776e61626c653a2063616c6c6572206973206e6f7420746865206f776e6572604082015260600190565b60208082526031908201527f4552433732313a207472616e736665722063616c6c6572206973206e6f74206f6040820152701ddb995c881b9bdc88185c1c1c9bdd9959607a1b606082015260800190565b600082198211156128a7576128a761298c565b500190565b6000826128bb576128bb6129a2565b500490565b60008160001904831182151516156128da576128da61298c565b500290565b6000828210156128f1576128f161298c565b500390565b60005b838110156129115781810151838201526020016128f9565b8381111561150e5750506000910152565b600181811c9082168061293657607f821691505b6020821081141561295757634e487b7160e01b600052602260045260246000fd5b50919050565b60006000198214156129715761297161298c565b5060010190565b600082612987576129876129a2565b500690565b634e487b7160e01b600052601160045260246000fd5b634e487b7160e01b600052601260045260246000fd5b634e487b7160e01b600052603160045260246000fd5b634e487b7160e01b600052603260045260246000fd5b634e487b7160e01b600052604160045260246000fd5b6001600160e01b031981168114610d5b57600080fdfea2646970667358221220005cb28bdc17f6a59dd3b5452ec090d801120cfe7e9a53af8d10d29b04d82f4b64736f6c634300080700334552433732313a207472616e7366657220746f206e6f6e2045524337323152654f776e61626c653a2063616c6c6572206973206e6f7420746865206f776e6572"
  }
}