{"compiler":"v0.8.10+commit.fc410830","opcodeHash":"0xb72099239dbe331982cc5beee2a74ff24fb90eb928d054859cd97ef7497d81ba","metalessHash":"0xc1c9b7d9e648a34673b559ed9aba8a10ee657aed39be665d996efaa73b663c0d","runtimeHash":"0x58fb4be4ce7e0c55df359e0fe0e2b69e4e587877add7f81c56fc36d85985c87a","encodedMetadata":[{"ipfs":"/ipfs/QmTLnifRkHoYytMZtN2Hyv1dh2hoYaDYuK7pwEmWrfzwKF","solc":"0.8.10"}],"abi":[{"inputs":[],"stateMutability":"nonpayable","type":"constructor"},{"anonymous":false,"inputs":[{"indexed":true,"internalType":"address","name":"owner","type":"address"},{"indexed":true,"internalType":"address","name":"approved","type":"address"},{"indexed":true,"internalType":"uint256","name":"tokenId","type":"uint256"}],"name":"Approval","type":"event"},{"anonymous":false,"inputs":[{"indexed":true,"internalType":"address","name":"owner","type":"address"},{"indexed":true,"internalType":"address","name":"operator","type":"address"},{"indexed":false,"internalType":"bool","name":"approved","type":"bool"}],"name":"ApprovalForAll","type":"event"},{"anonymous":false,"inputs":[{"indexed":false,"internalType":"address","name":"owner","type":"address"},{"indexed":false,"internalType":"uint256","name":"tokenId","type":"uint256"},{"indexed":false,"internalType":"string","name":"tokenURI","type":"string"}],"name":"NewItemMinted","type":"event"},{"anonymous":false,"inputs":[{"indexed":true,"internalType":"address","name":"from","type":"address"},{"indexed":true,"internalType":"address","name":"to","type":"address"},{"indexed":true,"internalType":"uint256","name":"tokenId","type":"uint256"}],"name":"Transfer","type":"event"},{"inputs":[{"internalType":"address[]","name":"whitelistArray","type":"address[]"},{"internalType":"address[]","name":"freeMintArray","type":"address[]"}],"name":"addAddressesToWhitelist","outputs":[{"internalType":"bool","name":"","type":"bool"}],"stateMutability":"nonpayable","type":"function"},{"inputs":[{"internalType":"address","name":"to","type":"address"},{"internalType":"uint256","name":"tokenId","type":"uint256"}],"name":"approve","outputs":[],"stateMutability":"nonpayable","type":"function"},{"inputs":[{"internalType":"address","name":"owner","type":"address"}],"name":"balanceOf","outputs":[{"internalType":"uint256","name":"","type":"uint256"}],"stateMutability":"view","type":"function"},{"inputs":[],"name":"freeMintItem","outputs":[{"internalType":"uint256","name":"","type":"uint256"}],"stateMutability":"payable","type":"function"},{"inputs":[{"internalType":"uint256","name":"tokenId","type":"uint256"}],"name":"getApproved","outputs":[{"internalType":"address","name":"","type":"address"}],"stateMutability":"view","type":"function"},{"inputs":[{"internalType":"address","name":"owner","type":"address"},{"internalType":"address","name":"operator","type":"address"}],"name":"isApprovedForAll","outputs":[{"internalType":"bool","name":"","type":"bool"}],"stateMutability":"view","type":"function"},{"inputs":[],"name":"mintItem","outputs":[{"internalType":"uint256","name":"","type":"uint256"}],"stateMutability":"payable","type":"function"},{"inputs":[],"name":"name","outputs":[{"internalType":"string","name":"","type":"string"}],"stateMutability":"view","type":"function"},{"inputs":[{"internalType":"uint256","name":"tokenId","type":"uint256"}],"name":"ownerOf","outputs":[{"internalType":"address","name":"","type":"address"}],"stateMutability":"view","type":"function"},{"inputs":[],"name":"remainingToMint","outputs":[{"internalType":"uint256","name":"","type":"uint256"}],"stateMutability":"view","type":"function"},{"inputs":[{"internalType":"address","name":"from","type":"address"},{"internalType":"address","name":"to","type":"address"},{"internalType":"uint256","name":"tokenId","type":"uint256"}],"name":"safeTransferFrom","outputs":[],"stateMutability":"nonpayable","type":"function"},{"inputs":[{"internalType":"address","name":"from","type":"address"},{"internalType":"address","name":"to","type":"address"},{"internalType":"uint256","name":"tokenId","type":"uint256"},{"internalType":"bytes","name":"_data","type":"bytes"}],"name":"safeTransferFrom","outputs":[],"stateMutability":"nonpayable","type":"function"},{"inputs":[{"internalType":"address","name":"operator","type":"address"},{"internalType":"bool","name":"approved","type":"bool"}],"name":"setApprovalForAll","outputs":[],"stateMutability":"nonpayable","type":"function"},{"inputs":[{"internalType":"bytes4","name":"interfaceId","type":"bytes4"}],"name":"supportsInterface","outputs":[{"internalType":"bool","name":"","type":"bool"}],"stateMutability":"view","type":"function"},{"inputs":[],"name":"symbol","outputs":[{"internalType":"string","name":"","type":"string"}],"stateMutability":"view","type":"function"},{"inputs":[{"internalType":"uint256","name":"tokenId","type":"uint256"}],"name":"tokenURI","outputs":[{"internalType":"string","name":"","type":"string"}],"stateMutability":"view","type":"function"},{"inputs":[{"internalType":"address","name":"from","type":"address"},{"internalType":"address","name":"to","type":"address"},{"internalType":"uint256","name":"tokenId","type":"uint256"}],"name":"transferFrom","outputs":[],"stateMutability":"nonpayable","type":"function"}],"bytecode":{"object":"60806040526001600860006101000a81548160ff02191690831515021790555073cfa20130f90b28aa3c4dec630f0c82f9c2d84661600960006101000a81548173ffffffffffffffffffffffffffffffffffffffff021916908373ffffffffffffffffffffffffffffffffffffffff1602179055503480156200008157600080fd5b506040518060400160405280600881526020017f53706f6f6b6c65730000000000000000000000000000000000000000000000008152506040518060400160405280600881526020017f53706f6f6b6c657300000000000000000000000000000000000000000000000081525081600090805190602001906200010692919062000169565b5080600190805190602001906200011f92919062000169565b50505033600860016101000a81548173ffffffffffffffffffffffffffffffffffffffff021916908373ffffffffffffffffffffffffffffffffffffffff1602179055506200027e565b828054620001779062000248565b90600052602060002090601f0160209004810192826200019b5760008555620001e7565b82601f10620001b657805160ff1916838001178555620001e7565b82800160010185558215620001e7579182015b82811115620001e6578251825591602001919060010190620001c9565b5b509050620001f69190620001fa565b5090565b5b8082111562000215576000816000905550600101620001fb565b5090565b7f4e487b7100000000000000000000000000000000000000000000000000000000600052602260045260246000fd5b600060028204905060018216806200026157607f821691505b6020821081141562000278576200027762000219565b5b50919050565b613835806200028e6000396000f3fe6080604052600436106100fe5760003560e01c80638cfe35b411610095578063c87b56dd11610064578063c87b56dd14610357578063e985e9c514610394578063eb93406b146103d1578063f02d899b146103ef578063fa6e85831461040d576100fe565b80638cfe35b41461029d57806395d89b41146102da578063a22cb46514610305578063b88d4fde1461032e576100fe565b806323b872dd116100d157806323b872dd146101d157806342842e0e146101fa5780636352211e1461022357806370a0823114610260576100fe565b806301ffc9a71461010357806306fdde0314610140578063081812fc1461016b578063095ea7b3146101a8575b600080fd5b34801561010f57600080fd5b5061012a60048036038101906101259190612256565b610438565b604051610137919061229e565b60405180910390f35b34801561014c57600080fd5b5061015561051a565b6040516101629190612352565b60405180910390f35b34801561017757600080fd5b50610192600480360381019061018d91906123aa565b6105ac565b60405161019f9190612418565b60405180910390f35b3480156101b457600080fd5b506101cf60048036038101906101ca919061245f565b610631565b005b3480156101dd57600080fd5b506101f860048036038101906101f3919061249f565b610749565b005b34801561020657600080fd5b50610221600480360381019061021c919061249f565b6107a9565b005b34801561022f57600080fd5b5061024a600480360381019061024591906123aa565b6107c9565b6040516102579190612418565b60405180910390f35b34801561026c57600080fd5b50610287600480360381019061028291906124f2565b61087b565b604051610294919061252e565b60405180910390f35b3480156102a957600080fd5b506102c460048036038101906102bf91906125ae565b610933565b6040516102d1919061229e565b60405180910390f35b3480156102e657600080fd5b506102ef610add565b6040516102fc9190612352565b60405180910390f35b34801561031157600080fd5b5061032c6004803603810190610327919061265b565b610b6f565b005b34801561033a57600080fd5b50610355600480360381019061035091906127cb565b610b85565b005b34801561036357600080fd5b5061037e600480360381019061037991906123aa565b610be7565b60405161038b9190612352565b60405180910390f35b3480156103a057600080fd5b506103bb60048036038101906103b6919061284e565b610d39565b6040516103c8919061229e565b60405180910390f35b6103d9610dcd565b6040516103e6919061252e565b60405180910390f35b6103f761102e565b604051610404919061252e565b60405180910390f35b34801561041957600080fd5b506104226112e1565b60405161042f919061252e565b60405180910390f35b60007f80ac58cd000000000000000000000000000000000000000000000000000000007bffffffffffffffffffffffffffffffffffffffffffffffffffffffff1916827bffffffffffffffffffffffffffffffffffffffffffffffffffffffff1916148061050357507f5b5e139f000000000000000000000000000000000000000000000000000000007bffffffffffffffffffffffffffffffffffffffffffffffffffffffff1916827bffffffffffffffffffffffffffffffffffffffffffffffffffffffff1916145b806105135750610512826112ff565b5b9050919050565b606060008054610529906128bd565b80601f0160208091040260200160405190810160405280929190818152602001828054610555906128bd565b80156105a25780601f10610577576101008083540402835291602001916105a2565b820191906000526020600020905b81548152906001019060200180831161058557829003601f168201915b5050505050905090565b60006105b782611369565b6105f6576040517f08c379a00000000000000000000000000000000000000000000000000000000081526004016105ed90612961565b60405180910390fd5b6004600083815260200190815260200160002060009054906101000a900473ffffffffffffffffffffffffffffffffffffffff169050919050565b600061063c826107c9565b90508073ffffffffffffffffffffffffffffffffffffffff168373ffffffffffffffffffffffffffffffffffffffff1614156106ad576040517f08c379a00000000000000000000000000000000000000000000000000000000081526004016106a4906129f3565b60405180910390fd5b8073ffffffffffffffffffffffffffffffffffffffff166106cc6113d5565b73ffffffffffffffffffffffffffffffffffffffff1614806106fb57506106fa816106f56113d5565b610d39565b5b61073a576040517f08c379a000000000000000000000000000000000000000000000000000000000815260040161073190612a85565b60405180910390fd5b61074483836113dd565b505050565b61075a6107546113d5565b82611496565b610799576040517f08c379a000000000000000000000000000000000000000000000000000000000815260040161079090612b17565b60405180910390fd5b6107a4838383611574565b505050565b6107c483838360405180602001604052806000815250610b85565b505050565b6000806002600084815260200190815260200160002060009054906101000a900473ffffffffffffffffffffffffffffffffffffffff169050600073ffffffffffffffffffffffffffffffffffffffff168173ffffffffffffffffffffffffffffffffffffffff161415610872576040517f08c379a000000000000000000000000000000000000000000000000000000000815260040161086990612ba9565b60405180910390fd5b80915050919050565b60008073ffffffffffffffffffffffffffffffffffffffff168273ffffffffffffffffffffffffffffffffffffffff1614156108ec576040517f08c379a00000000000000000000000000000000000000000000000000000000081526004016108e390612c3b565b60405180910390fd5b600360008373ffffffffffffffffffffffffffffffffffffffff1673ffffffffffffffffffffffffffffffffffffffff168152602001908152602001600020549050919050565b6000600860019054906101000a900473ffffffffffffffffffffffffffffffffffffffff1673ffffffffffffffffffffffffffffffffffffffff163373ffffffffffffffffffffffffffffffffffffffff161461098f57600080fd5b60005b85859050811015610a2f576001600a60008888858181106109b6576109b5612c5b565b5b90506020020160208101906109cb91906124f2565b73ffffffffffffffffffffffffffffffffffffffff1673ffffffffffffffffffffffffffffffffffffffff16815260200190815260200160002060006101000a81548160ff0219169083151502179055508080610a2790612cb9565b915050610992565b5060005b83839050811015610ad0576001600b6000868685818110610a5757610a56612c5b565b5b9050602002016020810190610a6c91906124f2565b73ffffffffffffffffffffffffffffffffffffffff1673ffffffffffffffffffffffffffffffffffffffff16815260200190815260200160002060006101000a81548160ff0219169083151502179055508080610ac890612cb9565b915050610a33565b5060019050949350505050565b606060018054610aec906128bd565b80601f0160208091040260200160405190810160405280929190818152602001828054610b18906128bd565b8015610b655780601f10610b3a57610100808354040283529160200191610b65565b820191906000526020600020905b815481529060010190602001808311610b4857829003601f168201915b5050505050905090565b610b81610b7a6113d5565b83836117d0565b5050565b610b96610b906113d5565b83611496565b610bd5576040517f08c379a0000000000000000000000000000000000000000000000000000000008152600401610bcc90612b17565b60405180910390fd5b610be18484848461193d565b50505050565b6060610bf282611369565b610c31576040517f08c379a0000000000000000000000000000000000000000000000000000000008152600401610c2890612d74565b60405180910390fd5b6000600660008481526020019081526020016000208054610c51906128bd565b80601f0160208091040260200160405190810160405280929190818152602001828054610c7d906128bd565b8015610cca5780601f10610c9f57610100808354040283529160200191610cca565b820191906000526020600020905b815481529060010190602001808311610cad57829003601f168201915b505050505090506000610cdb611999565b9050600081511415610cf1578192505050610d34565b600082511115610d26578082604051602001610d0e929190612dd0565b60405160208183030381529060405292505050610d34565b610d2f846119b0565b925050505b919050565b6000600560008473ffffffffffffffffffffffffffffffffffffffff1673ffffffffffffffffffffffffffffffffffffffff16815260200190815260200160002060008373ffffffffffffffffffffffffffffffffffffffff1673ffffffffffffffffffffffffffffffffffffffff16815260200190815260200160002060009054906101000a900460ff16905092915050565b600061012c610ddc6007611a57565b1115610e1d576040517f08c379a0000000000000000000000000000000000000000000000000000000008152600401610e1490612e40565b60405180910390fd5b600860009054906101000a900460ff1615610ec65760011515600a60003373ffffffffffffffffffffffffffffffffffffffff1673ffffffffffffffffffffffffffffffffffffffff16815260200190815260200160002060009054906101000a900460ff16151514610ec5576040517f08c379a0000000000000000000000000000000000000000000000000000000008152600401610ebc90612ed2565b60405180910390fd5b5b67013fbe85edc90000341015610f11576040517f08c379a0000000000000000000000000000000000000000000000000000000008152600401610f0890612f64565b60405180910390fd5b610f1b6007611a65565b6000610f276007611a57565b9050610f333382611a7b565b610f6481610f4083611c49565b604051602001610f509190612ff6565b604051602081830303815290604052611dd2565b7f6807703638a970907822384893184056ff6d0279a11ab9ca6632471df48c0a5f338283604051602001610f989190613044565b604051602081830303815290604052604051610fb693929190613075565b60405180910390a1600960009054906101000a900473ffffffffffffffffffffffffffffffffffffffff1673ffffffffffffffffffffffffffffffffffffffff166108fc349081150290604051600060405180830381858888f19350505050158015611026573d6000803e3d6000fd5b508091505090565b600061012c61103d6007611a57565b111561107e576040517f08c379a000000000000000000000000000000000000000000000000000000000815260040161107590612e40565b60405180910390fd5b600860009054906101000a900460ff16156111275760011515600a60003373ffffffffffffffffffffffffffffffffffffffff1673ffffffffffffffffffffffffffffffffffffffff16815260200190815260200160002060009054906101000a900460ff16151514611126576040517f08c379a000000000000000000000000000000000000000000000000000000000815260040161111d90612ed2565b60405180910390fd5b5b600b60003373ffffffffffffffffffffffffffffffffffffffff1673ffffffffffffffffffffffffffffffffffffffff16815260200190815260200160002060009054906101000a900460ff166111c45767013fbe85edc900003410156111c3576040517f08c379a00000000000000000000000000000000000000000000000000000000081526004016111ba90612f64565b60405180910390fd5b5b6111ce6007611a65565b60006111da6007611a57565b90506111e63382611a7b565b611217816111f383611c49565b6040516020016112039190612ff6565b604051602081830303815290604052611dd2565b7f6807703638a970907822384893184056ff6d0279a11ab9ca6632471df48c0a5f33828360405160200161124b9190613044565b60405160208183030381529060405260405161126993929190613075565b60405180910390a1600960009054906101000a900473ffffffffffffffffffffffffffffffffffffffff1673ffffffffffffffffffffffffffffffffffffffff166108fc349081150290604051600060405180830381858888f193505050501580156112d9573d6000803e3d6000fd5b508091505090565b60006112ed6007611a57565b61012c6112fa91906130b3565b905090565b60007f01ffc9a7000000000000000000000000000000000000000000000000000000007bffffffffffffffffffffffffffffffffffffffffffffffffffffffff1916827bffffffffffffffffffffffffffffffffffffffffffffffffffffffff1916149050919050565b60008073ffffffffffffffffffffffffffffffffffffffff166002600084815260200190815260200160002060009054906101000a900473ffffffffffffffffffffffffffffffffffffffff1673ffffffffffffffffffffffffffffffffffffffff1614159050919050565b600033905090565b816004600083815260200190815260200160002060006101000a81548173ffffffffffffffffffffffffffffffffffffffff021916908373ffffffffffffffffffffffffffffffffffffffff160217905550808273ffffffffffffffffffffffffffffffffffffffff16611450836107c9565b73ffffffffffffffffffffffffffffffffffffffff167f8c5be1e5ebec7d5bd14f71427d1e84f3dd0314c0f7b2291e5b200ac8c7c3b92560405160405180910390a45050565b60006114a182611369565b6114e0576040517f08c379a00000000000000000000000000000000000000000000000000000000081526004016114d790613159565b60405180910390fd5b60006114eb836107c9565b90508073ffffffffffffffffffffffffffffffffffffffff168473ffffffffffffffffffffffffffffffffffffffff16148061155a57508373ffffffffffffffffffffffffffffffffffffffff16611542846105ac565b73ffffffffffffffffffffffffffffffffffffffff16145b8061156b575061156a8185610d39565b5b91505092915050565b8273ffffffffffffffffffffffffffffffffffffffff16611594826107c9565b73ffffffffffffffffffffffffffffffffffffffff16146115ea576040517f08c379a00000000000000000000000000000000000000000000000000000000081526004016115e1906131eb565b60405180910390fd5b600073ffffffffffffffffffffffffffffffffffffffff168273ffffffffffffffffffffffffffffffffffffffff16141561165a576040517f08c379a00000000000000000000000000000000000000000000000000000000081526004016116519061327d565b60405180910390fd5b611665838383611e46565b6116706000826113dd565b6001600360008573ffffffffffffffffffffffffffffffffffffffff1673ffffffffffffffffffffffffffffffffffffffff16815260200190815260200160002060008282546116c091906130b3565b925050819055506001600360008473ffffffffffffffffffffffffffffffffffffffff1673ffffffffffffffffffffffffffffffffffffffff1681526020019081526020016000206000828254611717919061329d565b92505081905550816002600083815260200190815260200160002060006101000a81548173ffffffffffffffffffffffffffffffffffffffff021916908373ffffffffffffffffffffffffffffffffffffffff160217905550808273ffffffffffffffffffffffffffffffffffffffff168473ffffffffffffffffffffffffffffffffffffffff167fddf252ad1be2c89b69c2b068fc378daa952ba7f163c4a11628f55a4df523b3ef60405160405180910390a4505050565b8173ffffffffffffffffffffffffffffffffffffffff168373ffffffffffffffffffffffffffffffffffffffff16141561183f576040517f08c379a00000000000000000000000000000000000000000000000000000000081526004016118369061333f565b60405180910390fd5b80600560008573ffffffffffffffffffffffffffffffffffffffff1673ffffffffffffffffffffffffffffffffffffffff16815260200190815260200160002060008473ffffffffffffffffffffffffffffffffffffffff1673ffffffffffffffffffffffffffffffffffffffff16815260200190815260200160002060006101000a81548160ff0219169083151502179055508173ffffffffffffffffffffffffffffffffffffffff168373ffffffffffffffffffffffffffffffffffffffff167f17307eab39ab6107e8899845ad3d59bd9653f200f220920489ca2b5937696c3183604051611930919061229e565b60405180910390a3505050565b611948848484611574565b61195484848484611e4b565b611993576040517f08c379a000000000000000000000000000000000000000000000000000000000815260040161198a906133d1565b60405180910390fd5b50505050565b606060405180602001604052806000815250905090565b60606119bb82611369565b6119fa576040517f08c379a00000000000000000000000000000000000000000000000000000000081526004016119f190613463565b60405180910390fd5b6000611a04611999565b90506000815111611a245760405180602001604052806000815250611a4f565b80611a2e84611fd3565b604051602001611a3f929190612dd0565b6040516020818303038152906040525b915050919050565b600081600001549050919050565b6001816000016000828254019250508190555050565b600073ffffffffffffffffffffffffffffffffffffffff168273ffffffffffffffffffffffffffffffffffffffff161415611aeb576040517f08c379a0000000000000000000000000000000000000000000000000000000008152600401611ae2906134cf565b60405180910390fd5b611af481611369565b15611b34576040517f08c379a0000000000000000000000000000000000000000000000000000000008152600401611b2b9061353b565b60405180910390fd5b611b4060008383611e46565b6001600360008473ffffffffffffffffffffffffffffffffffffffff1673ffffffffffffffffffffffffffffffffffffffff1681526020019081526020016000206000828254611b90919061329d565b92505081905550816002600083815260200190815260200160002060006101000a81548173ffffffffffffffffffffffffffffffffffffffff021916908373ffffffffffffffffffffffffffffffffffffffff160217905550808273ffffffffffffffffffffffffffffffffffffffff16600073ffffffffffffffffffffffffffffffffffffffff167fddf252ad1be2c89b69c2b068fc378daa952ba7f163c4a11628f55a4df523b3ef60405160405180910390a45050565b60606000821415611c91576040518060400160405280600181526020017f30000000000000000000000000000000000000000000000000000000000000008152509050611dcd565b600082905060005b60008214611cc3578080611cac90612cb9565b915050600a82611cbc919061358a565b9150611c99565b60008167ffffffffffffffff811115611cdf57611cde6126a0565b5b6040519080825280601f01601f191660200182016040528015611d115781602001600182028036833780820191505090505b50905060008290505b60008614611dc557600181611d2f91906130b3565b90506000600a8088611d41919061358a565b611d4b91906135bb565b87611d5691906130b3565b6030611d629190613622565b905060008160f81b905080848481518110611d8057611d7f612c5b565b5b60200101907effffffffffffffffffffffffffffffffffffffffffffffffffffffffffffff1916908160001a905350600a88611dbc919061358a565b97505050611d1a565b819450505050505b919050565b611ddb82611369565b611e1a576040517f08c379a0000000000000000000000000000000000000000000000000000000008152600401611e11906136cb565b60405180910390fd5b80600660008481526020019081526020016000209080519060200190611e41929190612147565b505050565b505050565b6000611e6c8473ffffffffffffffffffffffffffffffffffffffff16612134565b15611fc6578373ffffffffffffffffffffffffffffffffffffffff1663150b7a02611e956113d5565b8786866040518563ffffffff1660e01b8152600401611eb79493929190613740565b6020604051808303816000875af1925050508015611ef357506040513d601f19601f82011682018060405250810190611ef091906137a1565b60015b611f76573d8060008114611f23576040519150601f19603f3d011682016040523d82523d6000602084013e611f28565b606091505b50600081511415611f6e576040517f08c379a0000000000000000000000000000000000000000000000000000000008152600401611f65906133d1565b60405180910390fd5b805181602001fd5b63150b7a0260e01b7bffffffffffffffffffffffffffffffffffffffffffffffffffffffff1916817bffffffffffffffffffffffffffffffffffffffffffffffffffffffff191614915050611fcb565b600190505b949350505050565b6060600082141561201b576040518060400160405280600181526020017f3000000000000000000000000000000000000000000000000000000000000000815250905061212f565b600082905060005b6000821461204d57808061203690612cb9565b915050600a82612046919061358a565b9150612023565b60008167ffffffffffffffff811115612069576120686126a0565b5b6040519080825280601f01601f19166020018201604052801561209b5781602001600182028036833780820191505090505b5090505b60008514612128576001826120b491906130b3565b9150600a856120c391906137ce565b60306120cf919061329d565b60f81b8183815181106120e5576120e4612c5b565b5b60200101907effffffffffffffffffffffffffffffffffffffffffffffffffffffffffffff1916908160001a905350600a85612121919061358a565b945061209f565b8093505050505b919050565b600080823b905060008111915050919050565b828054612153906128bd565b90600052602060002090601f01602090048101928261217557600085556121bc565b82601f1061218e57805160ff19168380011785556121bc565b828001600101855582156121bc579182015b828111156121bb5782518255916020019190600101906121a0565b5b5090506121c991906121cd565b5090565b5b808211156121e65760008160009055506001016121ce565b5090565b6000604051905090565b600080fd5b600080fd5b60007fffffffff0000000000000000000000000000000000000000000000000000000082169050919050565b612233816121fe565b811461223e57600080fd5b50565b6000813590506122508161222a565b92915050565b60006020828403121561226c5761226b6121f4565b5b600061227a84828501612241565b91505092915050565b60008115159050919050565b61229881612283565b82525050565b60006020820190506122b3600083018461228f565b92915050565b600081519050919050565b600082825260208201905092915050565b60005b838110156122f35780820151818401526020810190506122d8565b83811115612302576000848401525b50505050565b6000601f19601f8301169050919050565b6000612324826122b9565b61232e81856122c4565b935061233e8185602086016122d5565b61234781612308565b840191505092915050565b6000602082019050818103600083015261236c8184612319565b905092915050565b6000819050919050565b61238781612374565b811461239257600080fd5b50565b6000813590506123a48161237e565b92915050565b6000602082840312156123c0576123bf6121f4565b5b60006123ce84828501612395565b91505092915050565b600073ffffffffffffffffffffffffffffffffffffffff82169050919050565b6000612402826123d7565b9050919050565b612412816123f7565b82525050565b600060208201905061242d6000830184612409565b92915050565b61243c816123f7565b811461244757600080fd5b50565b60008135905061245981612433565b92915050565b60008060408385031215612476576124756121f4565b5b60006124848582860161244a565b925050602061249585828601612395565b9150509250929050565b6000806000606084860312156124b8576124b76121f4565b5b60006124c68682870161244a565b93505060206124d78682870161244a565b92505060406124e886828701612395565b9150509250925092565b600060208284031215612508576125076121f4565b5b60006125168482850161244a565b91505092915050565b61252881612374565b82525050565b6000602082019050612543600083018461251f565b92915050565b600080fd5b600080fd5b600080fd5b60008083601f84011261256e5761256d612549565b5b8235905067ffffffffffffffff81111561258b5761258a61254e565b5b6020830191508360208202830111156125a7576125a6612553565b5b9250929050565b600080600080604085870312156125c8576125c76121f4565b5b600085013567ffffffffffffffff8111156125e6576125e56121f9565b5b6125f287828801612558565b9450945050602085013567ffffffffffffffff811115612615576126146121f9565b5b61262187828801612558565b925092505092959194509250565b61263881612283565b811461264357600080fd5b50565b6000813590506126558161262f565b92915050565b60008060408385031215612672576126716121f4565b5b60006126808582860161244a565b925050602061269185828601612646565b9150509250929050565b600080fd5b7f4e487b7100000000000000000000000000000000000000000000000000000000600052604160045260246000fd5b6126d882612308565b810181811067ffffffffffffffff821117156126f7576126f66126a0565b5b80604052505050565b600061270a6121ea565b905061271682826126cf565b919050565b600067ffffffffffffffff821115612736576127356126a0565b5b61273f82612308565b9050602081019050919050565b82818337600083830152505050565b600061276e6127698461271b565b612700565b90508281526020810184848401111561278a5761278961269b565b5b61279584828561274c565b509392505050565b600082601f8301126127b2576127b1612549565b5b81356127c284826020860161275b565b91505092915050565b600080600080608085870312156127e5576127e46121f4565b5b60006127f38782880161244a565b94505060206128048782880161244a565b935050604061281587828801612395565b925050606085013567ffffffffffffffff811115612836576128356121f9565b5b6128428782880161279d565b91505092959194509250565b60008060408385031215612865576128646121f4565b5b60006128738582860161244a565b92505060206128848582860161244a565b9150509250929050565b7f4e487b7100000000000000000000000000000000000000000000000000000000600052602260045260246000fd5b600060028204905060018216806128d557607f821691505b602082108114156128e9576128e861288e565b5b50919050565b7f4552433732313a20617070726f76656420717565727920666f72206e6f6e657860008201527f697374656e7420746f6b656e0000000000000000000000000000000000000000602082015250565b600061294b602c836122c4565b9150612956826128ef565b604082019050919050565b6000602082019050818103600083015261297a8161293e565b9050919050565b7f4552433732313a20617070726f76616c20746f2063757272656e74206f776e6560008201527f7200000000000000000000000000000000000000000000000000000000000000602082015250565b60006129dd6021836122c4565b91506129e882612981565b604082019050919050565b60006020820190508181036000830152612a0c816129d0565b9050919050565b7f4552433732313a20617070726f76652063616c6c6572206973206e6f74206f7760008201527f6e6572206e6f7220617070726f76656420666f7220616c6c0000000000000000602082015250565b6000612a6f6038836122c4565b9150612a7a82612a13565b604082019050919050565b60006020820190508181036000830152612a9e81612a62565b9050919050565b7f4552433732313a207472616e736665722063616c6c6572206973206e6f74206f60008201527f776e6572206e6f7220617070726f766564000000000000000000000000000000602082015250565b6000612b016031836122c4565b9150612b0c82612aa5565b604082019050919050565b60006020820190508181036000830152612b3081612af4565b9050919050565b7f4552433732313a206f776e657220717565727920666f72206e6f6e657869737460008201527f656e7420746f6b656e0000000000000000000000000000000000000000000000602082015250565b6000612b936029836122c4565b9150612b9e82612b37565b604082019050919050565b60006020820190508181036000830152612bc281612b86565b9050919050565b7f4552433732313a2062616c616e636520717565727920666f7220746865207a6560008201527f726f206164647265737300000000000000000000000000000000000000000000602082015250565b6000612c25602a836122c4565b9150612c3082612bc9565b604082019050919050565b60006020820190508181036000830152612c5481612c18565b9050919050565b7f4e487b7100000000000000000000000000000000000000000000000000000000600052603260045260246000fd5b7f4e487b7100000000000000000000000000000000000000000000000000000000600052601160045260246000fd5b6000612cc482612374565b91507fffffffffffffffffffffffffffffffffffffffffffffffffffffffffffffffff821415612cf757612cf6612c8a565b5b600182019050919050565b7f45524337323155524953746f726167653a2055524920717565727920666f722060008201527f6e6f6e6578697374656e7420746f6b656e000000000000000000000000000000602082015250565b6000612d5e6031836122c4565b9150612d6982612d02565b604082019050919050565b60006020820190508181036000830152612d8d81612d51565b9050919050565b600081905092915050565b6000612daa826122b9565b612db48185612d94565b9350612dc48185602086016122d5565b80840191505092915050565b6000612ddc8285612d9f565b9150612de88284612d9f565b91508190509392505050565b7f416c6c20746f6b656e732068617665206265656e206d696e7465640000000000600082015250565b6000612e2a601b836122c4565b9150612e3582612df4565b602082019050919050565b60006020820190508181036000830152612e5981612e1d565b9050919050565b7f596f7520617265206e6f742077686974656c697374656420746f206d696e742060008201527f6f6e207468697320636f6e747261637400000000000000000000000000000000602082015250565b6000612ebc6030836122c4565b9150612ec782612e60565b604082019050919050565b60006020820190508181036000830152612eeb81612eaf565b9050919050565b7f596f7520686176656e27742073656e7420656e6f7567682045544820746f206d60008201527f696e742e00000000000000000000000000000000000000000000000000000000602082015250565b6000612f4e6024836122c4565b9150612f5982612ef2565b604082019050919050565b60006020820190508181036000830152612f7d81612f41565b9050919050565b7f68747470733a2f2f73706f6f6b6c65732e6170702f6d657461646174612f0000600082015250565b6000612fba601e83612d94565b9150612fc582612f84565b601e82019050919050565b50565b6000612fe0600083612d94565b9150612feb82612fd0565b600082019050919050565b600061300182612fad565b915061300c82612fd3565b91506130188284612d9f565b915081905092915050565b6000819050919050565b61303e61303982612374565b613023565b82525050565b600061304f82612fad565b915061305a82612fd3565b9150613066828461302d565b60208201915081905092915050565b600060608201905061308a6000830186612409565b613097602083018561251f565b81810360408301526130a98184612319565b9050949350505050565b60006130be82612374565b91506130c983612374565b9250828210156130dc576130db612c8a565b5b828203905092915050565b7f4552433732313a206f70657261746f7220717565727920666f72206e6f6e657860008201527f697374656e7420746f6b656e0000000000000000000000000000000000000000602082015250565b6000613143602c836122c4565b915061314e826130e7565b604082019050919050565b6000602082019050818103600083015261317281613136565b9050919050565b7f4552433732313a207472616e73666572206f6620746f6b656e2074686174206960008201527f73206e6f74206f776e0000000000000000000000000000000000000000000000602082015250565b60006131d56029836122c4565b91506131e082613179565b604082019050919050565b60006020820190508181036000830152613204816131c8565b9050919050565b7f4552433732313a207472616e7366657220746f20746865207a65726f2061646460008201527f7265737300000000000000000000000000000000000000000000000000000000602082015250565b60006132676024836122c4565b91506132728261320b565b604082019050919050565b600060208201905081810360008301526132968161325a565b9050919050565b60006132a882612374565b91506132b383612374565b9250827fffffffffffffffffffffffffffffffffffffffffffffffffffffffffffffffff038211156132e8576132e7612c8a565b5b828201905092915050565b7f4552433732313a20617070726f766520746f2063616c6c657200000000000000600082015250565b60006133296019836122c4565b9150613334826132f3565b602082019050919050565b600060208201905081810360008301526133588161331c565b9050919050565b7f4552433732313a207472616e7366657220746f206e6f6e20455243373231526560008201527f63656976657220696d706c656d656e7465720000000000000000000000000000602082015250565b60006133bb6032836122c4565b91506133c68261335f565b604082019050919050565b600060208201905081810360008301526133ea816133ae565b9050919050565b7f4552433732314d657461646174613a2055524920717565727920666f72206e6f60008201527f6e6578697374656e7420746f6b656e0000000000000000000000000000000000602082015250565b600061344d602f836122c4565b9150613458826133f1565b604082019050919050565b6000602082019050818103600083015261347c81613440565b9050919050565b7f4552433732313a206d696e7420746f20746865207a65726f2061646472657373600082015250565b60006134b96020836122c4565b91506134c482613483565b602082019050919050565b600060208201905081810360008301526134e8816134ac565b9050919050565b7f4552433732313a20746f6b656e20616c7265616479206d696e74656400000000600082015250565b6000613525601c836122c4565b9150613530826134ef565b602082019050919050565b6000602082019050818103600083015261355481613518565b9050919050565b7f4e487b7100000000000000000000000000000000000000000000000000000000600052601260045260246000fd5b600061359582612374565b91506135a083612374565b9250826135b0576135af61355b565b5b828204905092915050565b60006135c682612374565b91506135d183612374565b9250817fffffffffffffffffffffffffffffffffffffffffffffffffffffffffffffffff048311821515161561360a57613609612c8a565b5b828202905092915050565b600060ff82169050919050565b600061362d82613615565b915061363883613615565b92508260ff0382111561364e5761364d612c8a565b5b828201905092915050565b7f45524337323155524953746f726167653a2055524920736574206f66206e6f6e60008201527f6578697374656e7420746f6b656e000000000000000000000000000000000000602082015250565b60006136b5602e836122c4565b91506136c082613659565b604082019050919050565b600060208201905081810360008301526136e4816136a8565b9050919050565b600081519050919050565b600082825260208201905092915050565b6000613712826136eb565b61371c81856136f6565b935061372c8185602086016122d5565b61373581612308565b840191505092915050565b60006080820190506137556000830187612409565b6137626020830186612409565b61376f604083018561251f565b81810360608301526137818184613707565b905095945050505050565b60008151905061379b8161222a565b92915050565b6000602082840312156137b7576137b66121f4565b5b60006137c58482850161378c565b91505092915050565b60006137d982612374565b91506137e483612374565b9250826137f4576137f361355b565b5b82820690509291505056fea2646970667358221220c7cf78238b6e951b61336b61d33a8128832a8f3a169352f34f0d405af7747e9064736f6c634300080a0033"}}