{
  "opcodeHash": "0xf6eb4dd2f2e2f5e8c0d232017fe2b196c0a44709c829facd2fe40cd83ffa64d5",
  "metalessHash": "0x94dbadf71f08cb8cb4cb7f17337118e39993568770581600482134161549dd2c",
  "runtimeHash": "0xe17de5f858cb4c7b0f838e5efba93d6ffc1f47f8b2c2684efbe9f1401fa43743",
  "encodedMetadata": [
    {
      "ipfs": "/ipfs/QmQ6ZucrJqgpGMrVmXM36Whv66U4RpCbY8VKfx6coN3jUi",
      "solc": "0.8.10"
    }
  ],
  "abi": [
    {
      "inputs": [
        {
          "internalType": "string",
          "name": "name_",
          "type": "string"
        },
        {
          "internalType": "string",
          "name": "symbol_",
          "type": "string"
        },
        {
          "internalType": "address",
          "name": "_token0",
          "type": "address"
        },
        {
          "internalType": "address",
          "name": "_token1",
          "type": "address"
        },
        {
          "internalType": "uint24",
          "name": "_feeLevel",
          "type": "uint24"
        },
        {
          "components": [
            {
              "internalType": "uint184",
              "name": "tokenId",
              "type": "uint184"
            },
            {
              "internalType": "int24",
              "name": "tickUpper",
              "type": "int24"
            },
            {
              "internalType": "int24",
              "name": "tickLower",
              "type": "int24"
            },
            {
              "internalType": "uint24",
              "name": "weight",
              "type": "uint24"
            }
          ],
          "internalType": "struct ICellarPoolShare.CellarTickInfo[]",
          "name": "_cellarTickInfo",
          "type": "tuple[]"
        }
      ],
      "stateMutability": "nonpayable",
      "type": "constructor"
    },
    {
      "inputs": [],
      "name": "NonEmptyTokenId",
      "type": "error"
    },
    {
      "inputs": [],
      "name": "OverDeposit",
      "type": "error"
    },
    {
      "inputs": [],
      "name": "UnsortedTokens",
      "type": "error"
    },
    {
      "inputs": [],
      "name": "WrongTickTier",
      "type": "error"
    },
    {
      "inputs": [],
      "name": "ZeroWeight",
      "type": "error"
    },
    {
      "anonymous": false,
      "inputs": [
        {
          "indexed": false,
          "internalType": "uint128",
          "name": "liquidity",
          "type": "uint128"
        },
        {
          "indexed": false,
          "internalType": "uint256",
          "name": "amount0",
          "type": "uint256"
        },
        {
          "indexed": false,
          "internalType": "uint256",
          "name": "amount1",
          "type": "uint256"
        }
      ],
      "name": "AddedLiquidity",
      "type": "event"
    },
    {
      "anonymous": false,
      "inputs": [
        {
          "indexed": true,
          "internalType": "address",
          "name": "owner",
          "type": "address"
        },
        {
          "indexed": true,
          "internalType": "address",
          "name": "spender",
          "type": "address"
        },
        {
          "indexed": false,
          "internalType": "uint256",
          "name": "value",
          "type": "uint256"
        }
      ],
      "name": "Approval",
      "type": "event"
    },
    {
      "anonymous": false,
      "inputs": [
        {
          "indexed": false,
          "internalType": "uint256",
          "name": "fees0",
          "type": "uint256"
        },
        {
          "indexed": false,
          "internalType": "uint256",
          "name": "fees1",
          "type": "uint256"
        },
        {
          "indexed": false,
          "internalType": "uint256",
          "name": "managementFee0",
          "type": "uint256"
        },
        {
          "indexed": false,
          "internalType": "uint256",
          "name": "managementFee1",
          "type": "uint256"
        },
        {
          "indexed": false,
          "internalType": "uint256",
          "name": "performanceFee0",
          "type": "uint256"
        },
        {
          "indexed": false,
          "internalType": "uint256",
          "name": "performanceFee1",
          "type": "uint256"
        },
        {
          "indexed": false,
          "internalType": "uint256",
          "name": "amount0",
          "type": "uint256"
        },
        {
          "indexed": false,
          "internalType": "uint256",
          "name": "amount1",
          "type": "uint256"
        }
      ],
      "name": "Rebalance",
      "type": "event"
    },
    {
      "anonymous": false,
      "inputs": [
        {
          "indexed": false,
          "internalType": "uint256",
          "name": "fees0",
          "type": "uint256"
        },
        {
          "indexed": false,
          "internalType": "uint256",
          "name": "fees1",
          "type": "uint256"
        },
        {
          "indexed": false,
          "internalType": "uint256",
          "name": "managementFee0",
          "type": "uint256"
        },
        {
          "indexed": false,
          "internalType": "uint256",
          "name": "managementFee1",
          "type": "uint256"
        },
        {
          "indexed": false,
          "internalType": "uint256",
          "name": "performanceFee0",
          "type": "uint256"
        },
        {
          "indexed": false,
          "internalType": "uint256",
          "name": "performanceFee1",
          "type": "uint256"
        },
        {
          "indexed": false,
          "internalType": "uint256",
          "name": "amount0",
          "type": "uint256"
        },
        {
          "indexed": false,
          "internalType": "uint256",
          "name": "amount1",
          "type": "uint256"
        }
      ],
      "name": "Reinvest",
      "type": "event"
    },
    {
      "anonymous": false,
      "inputs": [
        {
          "indexed": false,
          "internalType": "uint128",
          "name": "liquidity",
          "type": "uint128"
        },
        {
          "indexed": false,
          "internalType": "uint256",
          "name": "amount0",
          "type": "uint256"
        },
        {
          "indexed": false,
          "internalType": "uint256",
          "name": "amount1",
          "type": "uint256"
        }
      ],
      "name": "RemovedLiquidity",
      "type": "event"
    },
    {
      "anonymous": false,
      "inputs": [
        {
          "indexed": false,
          "internalType": "address",
          "name": "adjuster",
          "type": "address"
        },
        {
          "indexed": false,
          "internalType": "bool",
          "name": "value",
          "type": "bool"
        }
      ],
      "name": "SetAdjuster",
      "type": "event"
    },
    {
      "anonymous": false,
      "inputs": [
        {
          "indexed": false,
          "internalType": "uint256",
          "name": "newFee",
          "type": "uint256"
        }
      ],
      "name": "SetManagementFee",
      "type": "event"
    },
    {
      "anonymous": false,
      "inputs": [
        {
          "indexed": false,
          "internalType": "uint256",
          "name": "newFee",
          "type": "uint256"
        }
      ],
      "name": "SetPerformanceFee",
      "type": "event"
    },
    {
      "anonymous": false,
      "inputs": [
        {
          "indexed": false,
          "internalType": "address",
          "name": "validator",
          "type": "address"
        },
        {
          "indexed": false,
          "internalType": "bool",
          "name": "value",
          "type": "bool"
        }
      ],
      "name": "SetValidator",
      "type": "event"
    },
    {
      "anonymous": false,
      "inputs": [
        {
          "indexed": true,
          "internalType": "address",
          "name": "from",
          "type": "address"
        },
        {
          "indexed": true,
          "internalType": "address",
          "name": "to",
          "type": "address"
        },
        {
          "indexed": false,
          "internalType": "uint256",
          "name": "value",
          "type": "uint256"
        }
      ],
      "name": "Transfer",
      "type": "event"
    },
    {
      "anonymous": false,
      "inputs": [
        {
          "indexed": false,
          "internalType": "address",
          "name": "newOwner",
          "type": "address"
        }
      ],
      "name": "TransferOwnership",
      "type": "event"
    },
    {
      "inputs": [
        {
          "components": [
            {
              "internalType": "uint256",
              "name": "amount0Desired",
              "type": "uint256"
            },
            {
              "internalType": "uint256",
              "name": "amount1Desired",
              "type": "uint256"
            },
            {
              "internalType": "uint256",
              "name": "amount0Min",
              "type": "uint256"
            },
            {
              "internalType": "uint256",
              "name": "amount1Min",
              "type": "uint256"
            },
            {
              "internalType": "address",
              "name": "recipient",
              "type": "address"
            },
            {
              "internalType": "uint256",
              "name": "deadline",
              "type": "uint256"
            }
          ],
          "internalType": "struct ICellarPoolShare.CellarAddParams",
          "name": "cellarParams",
          "type": "tuple"
        }
      ],
      "name": "addLiquidityForUniV3",
      "outputs": [],
      "stateMutability": "payable",
      "type": "function"
    },
    {
      "inputs": [
        {
          "internalType": "address",
          "name": "",
          "type": "address"
        }
      ],
      "name": "adjuster",
      "outputs": [
        {
          "internalType": "bool",
          "name": "",
          "type": "bool"
        }
      ],
      "stateMutability": "view",
      "type": "function"
    },
    {
      "inputs": [
        {
          "internalType": "address",
          "name": "owner_",
          "type": "address"
        },
        {
          "internalType": "address",
          "name": "spender",
          "type": "address"
        }
      ],
      "name": "allowance",
      "outputs": [
        {
          "internalType": "uint256",
          "name": "",
          "type": "uint256"
        }
      ],
      "stateMutability": "view",
      "type": "function"
    },
    {
      "inputs": [
        {
          "internalType": "address",
          "name": "spender",
          "type": "address"
        },
        {
          "internalType": "uint256",
          "name": "amount",
          "type": "uint256"
        }
      ],
      "name": "approve",
      "outputs": [
        {
          "internalType": "bool",
          "name": "",
          "type": "bool"
        }
      ],
      "stateMutability": "nonpayable",
      "type": "function"
    },
    {
      "inputs": [
        {
          "internalType": "address",
          "name": "account",
          "type": "address"
        }
      ],
      "name": "balanceOf",
      "outputs": [
        {
          "internalType": "uint256",
          "name": "",
          "type": "uint256"
        }
      ],
      "stateMutability": "view",
      "type": "function"
    },
    {
      "inputs": [
        {
          "internalType": "uint256",
          "name": "",
          "type": "uint256"
        }
      ],
      "name": "cellarTickInfo",
      "outputs": [
        {
          "internalType": "uint184",
          "name": "tokenId",
          "type": "uint184"
        },
        {
          "internalType": "int24",
          "name": "tickUpper",
          "type": "int24"
        },
        {
          "internalType": "int24",
          "name": "tickLower",
          "type": "int24"
        },
        {
          "internalType": "uint24",
          "name": "weight",
          "type": "uint24"
        }
      ],
      "stateMutability": "view",
      "type": "function"
    },
    {
      "inputs": [],
      "name": "decimals",
      "outputs": [
        {
          "internalType": "uint8",
          "name": "",
          "type": "uint8"
        }
      ],
      "stateMutability": "pure",
      "type": "function"
    },
    {
      "inputs": [],
      "name": "feeLevel",
      "outputs": [
        {
          "internalType": "uint24",
          "name": "",
          "type": "uint24"
        }
      ],
      "stateMutability": "view",
      "type": "function"
    },
    {
      "inputs": [],
      "name": "getCellarTickInfo",
      "outputs": [
        {
          "components": [
            {
              "internalType": "uint184",
              "name": "tokenId",
              "type": "uint184"
            },
            {
              "internalType": "int24",
              "name": "tickUpper",
              "type": "int24"
            },
            {
              "internalType": "int24",
              "name": "tickLower",
              "type": "int24"
            },
            {
              "internalType": "uint24",
              "name": "weight",
              "type": "uint24"
            }
          ],
          "internalType": "struct ICellarPoolShare.CellarTickInfo[]",
          "name": "",
          "type": "tuple[]"
        }
      ],
      "stateMutability": "view",
      "type": "function"
    },
    {
      "inputs": [
        {
          "internalType": "address",
          "name": "",
          "type": "address"
        }
      ],
      "name": "lastLockedBlock",
      "outputs": [
        {
          "internalType": "uint256",
          "name": "",
          "type": "uint256"
        }
      ],
      "stateMutability": "view",
      "type": "function"
    },
    {
      "inputs": [],
      "name": "managementFee",
      "outputs": [
        {
          "internalType": "uint256",
          "name": "",
          "type": "uint256"
        }
      ],
      "stateMutability": "view",
      "type": "function"
    },
    {
      "inputs": [],
      "name": "name",
      "outputs": [
        {
          "internalType": "string",
          "name": "",
          "type": "string"
        }
      ],
      "stateMutability": "view",
      "type": "function"
    },
    {
      "inputs": [],
      "name": "owner",
      "outputs": [
        {
          "internalType": "address",
          "name": "",
          "type": "address"
        }
      ],
      "stateMutability": "view",
      "type": "function"
    },
    {
      "inputs": [],
      "name": "performanceFee",
      "outputs": [
        {
          "internalType": "uint256",
          "name": "",
          "type": "uint256"
        }
      ],
      "stateMutability": "view",
      "type": "function"
    },
    {
      "inputs": [
        {
          "components": [
            {
              "internalType": "uint184",
              "name": "tokenId",
              "type": "uint184"
            },
            {
              "internalType": "int24",
              "name": "tickUpper",
              "type": "int24"
            },
            {
              "internalType": "int24",
              "name": "tickLower",
              "type": "int24"
            },
            {
              "internalType": "uint24",
              "name": "weight",
              "type": "uint24"
            }
          ],
          "internalType": "struct ICellarPoolShare.CellarTickInfo[]",
          "name": "_cellarTickInfo",
          "type": "tuple[]"
        },
        {
          "internalType": "uint256",
          "name": "currentPriceX96",
          "type": "uint256"
        }
      ],
      "name": "rebalance",
      "outputs": [],
      "stateMutability": "nonpayable",
      "type": "function"
    },
    {
      "inputs": [
        {
          "internalType": "uint256",
          "name": "currentPriceX96",
          "type": "uint256"
        }
      ],
      "name": "reinvest",
      "outputs": [],
      "stateMutability": "nonpayable",
      "type": "function"
    },
    {
      "inputs": [
        {
          "components": [
            {
              "internalType": "uint256",
              "name": "tokenAmount",
              "type": "uint256"
            },
            {
              "internalType": "uint256",
              "name": "amount0Min",
              "type": "uint256"
            },
            {
              "internalType": "uint256",
              "name": "amount1Min",
              "type": "uint256"
            },
            {
              "internalType": "address",
              "name": "recipient",
              "type": "address"
            },
            {
              "internalType": "uint256",
              "name": "deadline",
              "type": "uint256"
            }
          ],
          "internalType": "struct ICellarPoolShare.CellarRemoveParams",
          "name": "cellarParams",
          "type": "tuple"
        }
      ],
      "name": "removeLiquidityFromUniV3",
      "outputs": [],
      "stateMutability": "nonpayable",
      "type": "function"
    },
    {
      "inputs": [
        {
          "internalType": "address",
          "name": "_adjuster",
          "type": "address"
        },
        {
          "internalType": "bool",
          "name": "value",
          "type": "bool"
        }
      ],
      "name": "setAdjuster",
      "outputs": [],
      "stateMutability": "nonpayable",
      "type": "function"
    },
    {
      "inputs": [
        {
          "internalType": "uint256",
          "name": "newFee",
          "type": "uint256"
        }
      ],
      "name": "setManagementFee",
      "outputs": [],
      "stateMutability": "nonpayable",
      "type": "function"
    },
    {
      "inputs": [
        {
          "internalType": "uint256",
          "name": "newFee",
          "type": "uint256"
        }
      ],
      "name": "setPerformanceFee",
      "outputs": [],
      "stateMutability": "nonpayable",
      "type": "function"
    },
    {
      "inputs": [
        {
          "internalType": "address",
          "name": "_validator",
          "type": "address"
        },
        {
          "internalType": "bool",
          "name": "value",
          "type": "bool"
        }
      ],
      "name": "setValidator",
      "outputs": [],
      "stateMutability": "nonpayable",
      "type": "function"
    },
    {
      "inputs": [],
      "name": "symbol",
      "outputs": [
        {
          "internalType": "string",
          "name": "",
          "type": "string"
        }
      ],
      "stateMutability": "view",
      "type": "function"
    },
    {
      "inputs": [],
      "name": "token0",
      "outputs": [
        {
          "internalType": "address",
          "name": "",
          "type": "address"
        }
      ],
      "stateMutability": "view",
      "type": "function"
    },
    {
      "inputs": [],
      "name": "token1",
      "outputs": [
        {
          "internalType": "address",
          "name": "",
          "type": "address"
        }
      ],
      "stateMutability": "view",
      "type": "function"
    },
    {
      "inputs": [],
      "name": "totalSupply",
      "outputs": [
        {
          "internalType": "uint256",
          "name": "",
          "type": "uint256"
        }
      ],
      "stateMutability": "view",
      "type": "function"
    },
    {
      "inputs": [
        {
          "internalType": "address",
          "name": "recipient",
          "type": "address"
        },
        {
          "internalType": "uint256",
          "name": "amount",
          "type": "uint256"
        }
      ],
      "name": "transfer",
      "outputs": [
        {
          "internalType": "bool",
          "name": "",
          "type": "bool"
        }
      ],
      "stateMutability": "nonpayable",
      "type": "function"
    },
    {
      "inputs": [
        {
          "internalType": "address",
          "name": "sender",
          "type": "address"
        },
        {
          "internalType": "address",
          "name": "recipient",
          "type": "address"
        },
        {
          "internalType": "uint256",
          "name": "amount",
          "type": "uint256"
        }
      ],
      "name": "transferFrom",
      "outputs": [
        {
          "internalType": "bool",
          "name": "",
          "type": "bool"
        }
      ],
      "stateMutability": "nonpayable",
      "type": "function"
    },
    {
      "inputs": [
        {
          "internalType": "address",
          "name": "newOwner",
          "type": "address"
        }
      ],
      "name": "transferOwnership",
      "outputs": [],
      "stateMutability": "nonpayable",
      "type": "function"
    },
    {
      "inputs": [
        {
          "internalType": "address",
          "name": "",
          "type": "address"
        }
      ],
      "name": "validator",
      "outputs": [
        {
          "internalType": "bool",
          "name": "",
          "type": "bool"
        }
      ],
      "stateMutability": "view",
      "type": "function"
    },
    {
      "stateMutability": "payable",
      "type": "receive"
    }
  ],
  "bytecode": {
    "object": "60e06040526107d0600b5560c8600c553480156200001c57600080fd5b5060405162006972380380620069728339810160408190526200003f91620005b1565b855162000054906007906020890190620003be565b5084516200006a906008906020880190620003be565b50826001600160a01b0316846001600160a01b0316106200009e576040516346442a7560e11b815260040160405180910390fd5b6001600160a01b03808516608052831660a05262ffffff821660c05260005b81518110156200036957818181518110620000dc57620000dc62000754565b60200260200101516060015162ffffff16600014156200010f576040516319a2a9bd60e01b815260040160405180910390fd5b81818151811062000124576200012462000754565b6020026020010151600001516001600160b81b03166000146200015a576040516309bf618f60e01b815260040160405180910390fd5b8181815181106200016f576200016f62000754565b60200260200101516040015160020b82828151811062000193576200019362000754565b60200260200101516020015160020b13620001c157604051631d0edf4b60e11b815260040160405180910390fd5b80156200023c5781620001d660018362000780565b81518110620001e957620001e962000754565b60200260200101516040015160020b8282815181106200020d576200020d62000754565b60200260200101516020015160020b13156200023c57604051631d0edf4b60e11b815260040160405180910390fd5b6009604051806080016040528060006001600160b81b031681526020018484815181106200026e576200026e62000754565b60200260200101516020015160020b815260200184848151811062000297576200029762000754565b60200260200101516040015160020b8152602001848481518110620002c057620002c062000754565b60209081029190910181015160609081015162ffffff908116909352845460018101865560009586529482902084519501805492850151604086015195909201518416600160e81b026001600160e81b03958516600160d01b02959095166001600160d01b0392909416600160b81b026001600160d01b03199093166001600160b81b03909616959095179190911716171790558062000360816200079a565b915050620000bd565b5050600680546001600160a01b031916339081179091556000908152600360209081526040808320805460ff199081166001908117909255600490935292208054909116909117905550620007f59350505050565b828054620003cc90620007b8565b90600052602060002090601f016020900481019282620003f057600085556200043b565b82601f106200040b57805160ff19168380011785556200043b565b828001600101855582156200043b579182015b828111156200043b5782518255916020019190600101906200041e565b50620004499291506200044d565b5090565b5b808211156200044957600081556001016200044e565b634e487b7160e01b600052604160045260246000fd5b604051608081016001600160401b03811182821017156200049f576200049f62000464565b60405290565b604051601f8201601f191681016001600160401b0381118282101715620004d057620004d062000464565b604052919050565b600082601f830112620004ea57600080fd5b81516001600160401b0381111562000506576200050662000464565b60206200051c601f8301601f19168201620004a5565b82815285828487010111156200053157600080fd5b60005b838110156200055157858101830151828201840152820162000534565b83811115620005635760008385840101525b5095945050505050565b80516001600160a01b03811681146200058557600080fd5b919050565b805162ffffff811681146200058557600080fd5b8051600281900b81146200058557600080fd5b60008060008060008060c08789031215620005cb57600080fd5b86516001600160401b0380821115620005e357600080fd5b620005f18a838b01620004d8565b97506020915081890151818111156200060957600080fd5b620006178b828c01620004d8565b9750506200062860408a016200056d565b95506200063860608a016200056d565b9450608062000649818b016200058a565b945060a08a0151828111156200065e57600080fd5b8a01601f81018c136200067057600080fd5b80518381111562000685576200068562000464565b62000695858260051b01620004a5565b818152858101945060079190911b82018501908d821115620006b657600080fd5b918501915b81831015620007415783838f031215620006d55760008081fd5b620006df6200047a565b83516001600160b81b0381168114620006f85760008081fd5b8152620007078488016200059e565b8782015262000719604085016200059e565b60408201526200072c606085016200058a565b606082015285529385019391830191620006bb565b8096505050505050509295509295509295565b634e487b7160e01b600052603260045260246000fd5b634e487b7160e01b600052601160045260246000fd5b6000828210156200079557620007956200076a565b500390565b6000600019821415620007b157620007b16200076a565b5060010190565b600181811c90821680620007cd57607f821691505b60208210811415620007ef57634e487b7160e01b600052602260045260246000fd5b50919050565b60805160a05160c051615ff66200097c600039600081816103b3015281816114bc01528181611bdd0152818161266d01528181612f8801528181613faf0152818161468b0152614ebf015260008181610519015281816109360152818161096401528181610cb801528181610ceb01528181610eb101528181611105015281816111e10152818161149a015281816118ea01528181611bbb01528181611e640152818161264b01528181612dff01528181612f59015281816134b10152818161399501528181613afa01528181613b8401528181613c7001528181613f8d01526146690152600081816101e90152818161085f01528181610a6601528181610b7201528181610e4501528181610e7b01528181610ffa015281816110d601528181611478015281816118aa01528181611b9901528181611e240152818161262901528181612db401528181612f2a0152818161346e0152818161391901528181613ad901528181613ba501528181613bf601528181613f6b01526146470152615ff66000f3fe6080604052600436106101565760003560e01c806306fdde031461017c578063095ea7b3146101a75780630dfe1681146101d7578063157238661461021857806318160ddd1461026d578063223b3b7a1461028c57806323b872dd146102bc578063276cd920146102dc578063313ce567146102fc57806333bc230a146103185780634623c91d1461032b57806370897b231461034b57806370a082311461036b5780637cf134cb146103a157806383b4918b146103e957806387788782146104095780638c231af91461041f5780638da5cb5b1461044f57806395d89b411461046d57806396d01a7d146104825780639f3e8b34146104a4578063a6f7f5d6146104d1578063a9059cbb146104e7578063d21220a714610507578063db5d820e1461053b578063dd62ed3e1461055b578063e1b5c312146105a1578063f2fde38b146105c1578063fe56e232146105e157600080fd5b366101775733600080516020615f618339815191521461017557600080fd5b005b600080fd5b34801561018857600080fd5b50610191610601565b60405161019e91906153d6565b60405180910390f35b3480156101b357600080fd5b506101c76101c236600461541e565b610693565b604051901515815260200161019e565b3480156101e357600080fd5b5061020b7f000000000000000000000000000000000000000000000000000000000000000081565b60405161019e9190615457565b34801561022457600080fd5b5061023861023336600461546b565b6106a9565b604080516001600160b81b039095168552600293840b60208601529190920b9083015262ffffff16606082015260800161019e565b34801561027957600080fd5b506005545b60405190815260200161019e565b34801561029857600080fd5b506101c76102a7366004615484565b60036020526000908152604090205460ff1681565b3480156102c857600080fd5b506101c76102d73660046154a1565b6106f8565b3480156102e857600080fd5b506101756102f73660046154e2565b61074b565b34801561030857600080fd5b506040516012815260200161019e565b6101756103263660046154fa565b610adc565b34801561033757600080fd5b5061017561034636600461551a565b61125a565b34801561035757600080fd5b5061017561036636600461546b565b61130c565b34801561037757600080fd5b5061027e610386366004615484565b6001600160a01b031660009081526001602052604090205490565b3480156103ad57600080fd5b506103d57f000000000000000000000000000000000000000000000000000000000000000081565b60405162ffffff909116815260200161019e565b3480156103f557600080fd5b5061017561040436600461546b565b611393565b34801561041557600080fd5b5061027e600b5481565b34801561042b57600080fd5b506101c761043a366004615484565b60046020526000908152604090205460ff1681565b34801561045b57600080fd5b506006546001600160a01b031661020b565b34801561047957600080fd5b50610191611979565b34801561048e57600080fd5b50610497611988565b60405161019e9190615553565b3480156104b057600080fd5b5061027e6104bf366004615484565b60006020819052908152604090205481565b3480156104dd57600080fd5b5061027e600c5481565b3480156104f357600080fd5b506101c761050236600461541e565b611a21565b34801561051357600080fd5b5061020b7f000000000000000000000000000000000000000000000000000000000000000081565b34801561054757600080fd5b5061017561055636600461551a565b611a2e565b34801561056757600080fd5b5061027e6105763660046155cc565b6001600160a01b03918216600090815260026020908152604080832093909416825291909152205490565b3480156105ad57600080fd5b506101756105bc366004615688565b611ad4565b3480156105cd57600080fd5b506101756105dc366004615484565b6121ea565b3480156105ed57600080fd5b506101756105fc36600461546b565b612285565b6060600780546106109061579e565b80601f016020809104026020016040519081016040528092919081815260200182805461063c9061579e565b80156106895780601f1061065e57610100808354040283529160200191610689565b820191906000526020600020905b81548152906001019060200180831161066c57829003601f168201915b5050505050905090565b60006106a0338484612305565b50600192915050565b600981815481106106b957600080fd5b6000918252602090912001546001600160b81b0381169150600160b81b8104600290810b91600160d01b810490910b90600160e81b900462ffffff1684565b60006107058484846123c7565b6001600160a01b03841660009081526002602090815260408083203380855292529091205461074091869161073b9086906157e9565b612305565b5060015b9392505050565b600654600160a01b900460ff161561077e5760405162461bcd60e51b815260040161077590615800565b60405180910390fd5b6006805460ff60a01b1916600160a01b179055336000818152602081905260409020544310156107c05760405162461bcd60e51b81526004016107759061581b565b6107cb600143615836565b6001600160a01b03821660009081526020819052604081209190915580806108026107fb3687900387018761584e565b6000612510565b5091945092509050610815338635612b80565b84602001358310156108395760405162461bcd60e51b8152600401610775906158c5565b846040013582101561085d5760405162461bcd60e51b8152600401610775906158e0565b7f00000000000000000000000000000000000000000000000000000000000000006001600160a01b0316600080516020615f61833981519152141561096257604051632e1a7d4d60e01b815260048101849052600080516020615f6183398151915290632e1a7d4d90602401600060405180830381600087803b1580156108e357600080fd5b505af11580156108f7573d6000803e3d6000fd5b505060405133925085156108fc02915085906000818181858888f19350505050158015610928573d6000803e3d6000fd5b5061095d6001600160a01b037f0000000000000000000000000000000000000000000000000000000000000000163384612c70565b610a8d565b7f00000000000000000000000000000000000000000000000000000000000000006001600160a01b0316600080516020615f61833981519152146109cc5760405162461bcd60e51b81526020600482015260016024820152602560f91b6044820152606401610775565b604051632e1a7d4d60e01b815260048101839052600080516020615f6183398151915290632e1a7d4d90602401600060405180830381600087803b158015610a1357600080fd5b505af1158015610a27573d6000803e3d6000fd5b505060405133925084156108fc02915084906000818181858888f19350505050158015610a58573d6000803e3d6000fd5b50610a8d6001600160a01b037f0000000000000000000000000000000000000000000000000000000000000000163385612c70565b7ff7e09c8a209b7da5c81010b34b696f57d95a88fc1c6ddbd7b47b81d0926c3824818484604051610ac0939291906158fb565b60405180910390a150506006805460ff60a01b19169055505050565b600654600160a01b900460ff1615610b065760405162461bcd60e51b815260040161077590615800565b6006805460ff60a01b1916600160a01b17905533600081815260208190526040902054431015610b485760405162461bcd60e51b81526004016107759061581b565b610b53600143615836565b6001600160a01b038083166000908152602081905260409020919091557f000000000000000000000000000000000000000000000000000000000000000016600080516020615f618339815191521415610ce95781353410610c5c578135341115610bf157336108fc610bc78435346157e9565b6040518115909202916000818181858888f19350505050158015610bef573d6000803e3d6000fd5b505b600080516020615f618339815191526001600160a01b031663d0e30db083600001356040518263ffffffff1660e01b81526004016000604051808303818588803b158015610c3e57600080fd5b505af1158015610c52573d6000803e3d6000fd5b5050505050610cab565b610c77600080516020615f6183398151915233308535612ccb565b3415610cab5760405133903480156108fc02916000818181858888f19350505050158015610ca9573d6000803e3d6000fd5b505b610ce46001600160a01b037f00000000000000000000000000000000000000000000000000000000000000001633306020860135612ccb565b610edd565b7f00000000000000000000000000000000000000000000000000000000000000006001600160a01b0316600080516020615f618339815191521415610e6e5781602001353410610de6578160200135341115610d7b57336108fc610d516020850135346157e9565b6040518115909202916000818181858888f19350505050158015610d79573d6000803e3d6000fd5b505b600080516020615f618339815191526001600160a01b031663d0e30db083602001356040518263ffffffff1660e01b81526004016000604051808303818588803b158015610dc857600080fd5b505af1158015610ddc573d6000803e3d6000fd5b5050505050610e38565b610e04600080516020615f6183398151915233306020860135612ccb565b3415610e385760405133903480156108fc02916000818181858888f19350505050158015610e36573d6000803e3d6000fd5b505b610ce46001600160a01b037f00000000000000000000000000000000000000000000000000000000000000001633308535612ccb565b610ea46001600160a01b037f00000000000000000000000000000000000000000000000000000000000000001633308535612ccb565b610edd6001600160a01b037f00000000000000000000000000000000000000000000000000000000000000001633306020860135612ccb565b6000808080610ef9610ef43688900388018861591c565b612d09565b9350935093509350816001600160801b031660001415610f2b57610f2633826001600160801b03166134f3565b610f53565b610f5333610f4e836001600160801b0316600554866001600160801b03166135a4565b6134f3565b8560400135841015610f775760405162461bcd60e51b8152600401610775906158c5565b8560600135831015610f9b5760405162461bcd60e51b8152600401610775906158e0565b68327cb2734119d3b7a9601e1b610fb28585613653565b1115610fd1576040516320cd4d7f60e21b815260040160405180910390fd5b6000610fde8588356157e9565b90506000610ff08560208a01356157e9565b905081156110fd577f00000000000000000000000000000000000000000000000000000000000000006001600160a01b0316600080516020615f6183398151915214156110c957604051632e1a7d4d60e01b815260048101839052600080516020615f6183398151915290632e1a7d4d90602401600060405180830381600087803b15801561107e57600080fd5b505af1158015611092573d6000803e3d6000fd5b505060405133925084156108fc02915084906000818181858888f193505050501580156110c3573d6000803e3d6000fd5b506110fd565b6110fd6001600160a01b037f0000000000000000000000000000000000000000000000000000000000000000163384612c70565b8015611208577f00000000000000000000000000000000000000000000000000000000000000006001600160a01b0316600080516020615f6183398151915214156111d457604051632e1a7d4d60e01b815260048101829052600080516020615f6183398151915290632e1a7d4d90602401600060405180830381600087803b15801561118957600080fd5b505af115801561119d573d6000803e3d6000fd5b505060405133925083156108fc02915083906000818181858888f193505050501580156111ce573d6000803e3d6000fd5b50611208565b6112086001600160a01b037f0000000000000000000000000000000000000000000000000000000000000000163383612c70565b7f647ca4a1e9056f08acfa58948025f16207c7a4f84ff97fff66ef55bd5c6ff58583878760405161123b939291906158fb565b60405180910390a150506006805460ff60a01b19169055505050505050565b6006546001600160a01b031633146112845760405162461bcd60e51b81526004016107759061599d565b6001600160a01b0382166112aa5760405162461bcd60e51b8152600401610775906159b8565b6001600160a01b03821660009081526003602052604090819020805460ff1916831515179055517ff777a2dd5104082173537070fa5bc14b35ab543cc11a90836e264f3cef55c0649061130090849084906159d3565b60405180910390a15050565b6006546001600160a01b031633146113365760405162461bcd60e51b81526004016107759061599d565b61271081106113575760405162461bcd60e51b8152600401610775906159b8565b600b8190556040518181527f8b940a95968ad5b511f89b01075446a4fe9f614f2dc5fbb9e9a6b227d6d4fd70906020015b60405180910390a150565b3360009081526003602052604090205460ff166113d65760405162461bcd60e51b81526020600482015260016024820152601160fa1b6044820152606401610775565b336000818152602081905260409020544310156114055760405162461bcd60e51b81526004016107759061581b565b611410600143615836565b6001600160a01b038216600090815260208190526040812091909155600a548190819081908190819061144390426157e9565b604051630b4c774160e11b8152909150600090731f98431c8ad98523631ae4a59f267346ea31f98490631698ee82906114e4907f0000000000000000000000000000000000000000000000000000000000000000907f0000000000000000000000000000000000000000000000000000000000000000907f0000000000000000000000000000000000000000000000000000000000000000906004016159ee565b602060405180830381865afa158015611501573d6000803e3d6000fd5b505050506040513d601f19601f820116820180604052508101906115259190615a21565b6001600160a01b0316633850c7bd6040518163ffffffff1660e01b815260040160e060405180830381865afa158015611562573d6000803e3d6000fd5b505050506040513d601f19601f820116820180604052508101906115869190615a5b565b505050505050905061271060198a02816115a2576115a2615af3565b0489826001600160a01b03160310806115cc575061271060198a0204816001600160a01b03168a03105b6115e85760405162461bcd60e51b815260040161077590615b09565b60005b6009548110156117dc576009818154811061160857611608615b24565b6000918252602090912001546001600160b81b031661164d5760405162461bcd60e51b81526020600482015260016024820152604b60f81b6044820152606401610775565b6009818154811061166057611660615b24565b60009182526020909120015461168290600160e81b900462ffffff1689615836565b9750600080600080516020615f818339815191526001600160a01b031663fc6f78656040518060800160405280600987815481106116c2576116c2615b24565b600091825260209182902001546001600160b81b0316825230908201526001600160801b036040808301829052606090920152516001600160e01b031960e084901b1681526117149190600401615b3a565b60408051808303816000875af1158015611732573d6000803e3d6000fd5b505050506040513d601f19601f820116820180604052508101906117569190615b7d565b9092509050611765828a615836565b98506117718189615836565b97506000806117a86009868154811061178c5761178c615b24565b6000918252602090912001546001600160b81b0316878961377e565b90925090506117b7828a615836565b98506117c38189615836565b97505050505080806117d490615ba1565b9150506115eb565b50600b5484908490600090612710906117f5908b615bbc565b6117ff9190615bdb565b90506000612710600b548a6118149190615bbc565b61181e9190615bdb565b905061182a8289615836565b97506118368188615836565b965089881115611864578997508984101561185c57611855848b6157e9565b9150611864565b899350600091505b8887111561188f578896508883101561188857611881838a6157e9565b905061188f565b5087915060005b42600a5587156118d3576006546118d3906001600160a01b037f0000000000000000000000000000000000000000000000000000000000000000811691168a612c70565b861561191357600654611913906001600160a01b037f00000000000000000000000000000000000000000000000000000000000000008116911689612c70565b60008061191f876138bd565b915091507f8e9f83b74c783b864e2e6c8c8faff32b21e62ed8ceac8ae83d1da7e0ca1ba8fd8c8c888888888888604051611960989796959493929190615bfd565b60405180910390a1505050505050505050505050505050565b6060600880546106109061579e565b60606009805480602002602001604051908101604052809291908181526020016000905b82821015611a1857600084815260209081902060408051608081018252918501546001600160b81b0381168352600160b81b8104600290810b84860152600160d01b8204900b91830191909152600160e81b900462ffffff1660608201528252600190920191016119ac565b50505050905090565b60006106a03384846123c7565b6006546001600160a01b03163314611a585760405162461bcd60e51b81526004016107759061599d565b6001600160a01b038216611a7e5760405162461bcd60e51b8152600401610775906159b8565b6001600160a01b03821660009081526004602052604090819020805460ff1916831515179055517f4d5db8249eb7b157e4deefe2c0c726e88aeee890e3dd5a95c68dfe435bf652ff9061130090849084906159d3565b33600081815260208190526040902054431015611b035760405162461bcd60e51b81526004016107759061581b565b611b0e600143615836565b6001600160a01b0382166000908152602081815260408083209390935533825260049052205460ff16611b675760405162461bcd60e51b81526020600482015260016024820152606360f81b6044820152606401610775565b604051630b4c774160e11b8152600090731f98431c8ad98523631ae4a59f267346ea31f98490631698ee8290611c05907f0000000000000000000000000000000000000000000000000000000000000000907f0000000000000000000000000000000000000000000000000000000000000000907f0000000000000000000000000000000000000000000000000000000000000000906004016159ee565b602060405180830381865afa158015611c22573d6000803e3d6000fd5b505050506040513d601f19601f82011682018060405250810190611c469190615a21565b6001600160a01b0316633850c7bd6040518163ffffffff1660e01b815260040160e060405180830381865afa158015611c83573d6000803e3d6000fd5b505050506040513d601f19601f82011682018060405250810190611ca79190615a5b565b50505050505090506127106019840281611cc357611cc3615af3565b0483826001600160a01b0316031080611ced57506127106019840204816001600160a01b03168403105b611d095760405162461bcd60e51b815260040161077590615b09565b6040805160a081018252600554815260006020820181905291810182905230606082015242608082015290611d3f826001612510565b42600a556080810151604082015191955060009450611d6093509150615836565b905060008260a001518360600151611d789190615836565b8351909150821115611dbf5782516040840151909250821115611db05760408301518351611da691906157e9565b6080840152611dbf565b82516040840152600060808401525b8260200151811115611e0d575060208201516060830151811115611dfb5782606001518360200151611df191906157e9565b60a0840152611e0d565b60208301516060840152600060a08401525b8115611e4d57600654611e4d906001600160a01b037f00000000000000000000000000000000000000000000000000000000000000008116911684612c70565b8015611e8d57600654611e8d906001600160a01b037f00000000000000000000000000000000000000000000000000000000000000008116911683612c70565b60005b600954811015611f4557600080516020615f818339815191526001600160a01b03166342966c6860098381548110611eca57611eca615b24565b6000918252602090912001546040516001600160e01b031960e084901b168152611f00916001600160b81b031690600401615c33565b600060405180830381600087803b158015611f1a57600080fd5b505af1158015611f2e573d6000803e3d6000fd5b505050508080611f3d90615ba1565b915050611e90565b50611f5260096000615356565b60005b885181101561217057888181518110611f7057611f70615b24565b60200260200101516040015160020b898281518110611f9157611f91615b24565b60200260200101516020015160020b13611fbe57604051631d0edf4b60e11b815260040160405180910390fd5b801561202f5788611fd06001836157e9565b81518110611fe057611fe0615b24565b60200260200101516040015160020b89828151811061200157612001615b24565b60200260200101516020015160020b131561202f57604051631d0edf4b60e11b815260040160405180910390fd5b88818151811061204157612041615b24565b60200260200101516060015162ffffff1660001415612073576040516319a2a9bd60e01b815260040160405180910390fd5b88818151811061208557612085615b24565b6020026020010151600001516001600160b81b03166000146120ba576040516309bf618f60e01b815260040160405180910390fd5b60098982815181106120ce576120ce615b24565b602090810291909101810151825460018101845560009384529282902081519301805492820151604083015160609093015162ffffff908116600160e81b026001600160e81b03948216600160d01b02949094166001600160d01b0391909216600160b81b026001600160d01b03199095166001600160b81b03909616959095179390931793909316919091171790558061216881615ba1565b915050611f55565b5060008061217d876138bd565b915091507fc1c463f316d85c725592f65d9d6f5b014967c835e0b8de363fbc10dcb752dd81856000015186602001518760400151886060015189608001518a60a0015188886040516121d6989796959493929190615bfd565b60405180910390a150505050505050505050565b6006546001600160a01b031633146122145760405162461bcd60e51b81526004016107759061599d565b6001600160a01b03811661223a5760405162461bcd60e51b8152600401610775906159b8565b600680546001600160a01b0319166001600160a01b0383161790556040517fcfaaa26691e16e66e73290fc725eee1a6b4e0e693a1640484937aac25ffb55a490611388908390615457565b6006546001600160a01b031633146122af5760405162461bcd60e51b81526004016107759061599d565b61271081106122d05760405162461bcd60e51b8152600401610775906159b8565b600c8190556040518181527fd87632b1c6ebfa21acbca0e3279b3cf6385a377cb8fda51e5b866baa6e6012ab90602001611388565b6001600160a01b03831661232b5760405162461bcd60e51b815260040161077590615c47565b6001600160a01b0382166123655760405162461bcd60e51b81526020600482015260016024820152605560f81b6044820152606401610775565b6001600160a01b0383811660008181526002602090815260408083209487168084529482529182902085905590518481527f8c5be1e5ebec7d5bd14f71427d1e84f3dd0314c0f7b2291e5b200ac8c7c3b92591015b60405180910390a3505050565b6001600160a01b0383166124015760405162461bcd60e51b81526020600482015260016024820152602760f91b6044820152606401610775565b6001600160a01b03821661243b5760405162461bcd60e51b81526020600482015260016024820152604f60f81b6044820152606401610775565b6001600160a01b038316600090815260016020526040902054818110156124885760405162461bcd60e51b81526020600482015260016024820152600560fc1b6044820152606401610775565b61249282826157e9565b6001600160a01b0380861660009081526001602052604080822093909355908516815290812080548492906124c8908490615836565b92505081905550826001600160a01b0316846001600160a01b0316600080516020615fa18339815191528460405161250291815260200190565b60405180910390a350505050565b600080600061254e6040518060c001604052806000815260200160008152602001600081526020016000815260200160008152602001600081525090565b60006009805480602002602001604051908101604052809291908181526020016000905b828210156125de57600084815260209081902060408051608081018252918501546001600160b81b0381168352600160b81b8104600290810b84860152600160d01b8204900b91830191909152600160e81b900462ffffff166060820152825260019092019101612572565b5050505090506000600a54426125f491906157e9565b604051630b4c774160e11b8152909150600090731f98431c8ad98523631ae4a59f267346ea31f98490631698ee8290612695907f0000000000000000000000000000000000000000000000000000000000000000907f0000000000000000000000000000000000000000000000000000000000000000907f0000000000000000000000000000000000000000000000000000000000000000906004016159ee565b602060405180830381865afa1580156126b2573d6000803e3d6000fd5b505050506040513d601f19601f820116820180604052508101906126d69190615a21565b6001600160a01b0316633850c7bd6040518163ffffffff1660e01b815260040160e060405180830381865afa158015612713573d6000803e3d6000fd5b505050506040513d601f19601f820116820180604052508101906127379190615a5b565b505050505050905060005b8351811015612b27576000600080516020615f818339815191526001600160a01b03166399fbab8886848151811061277c5761277c615b24565b6020026020010151600001516040518263ffffffff1660e01b81526004016127a49190615c33565b61018060405180830381865afa1580156127c2573d6000803e3d6000fd5b505050506040513d601f19601f820116820180604052508101906127e69190615c84565b50505050975050505050505050600061280f826001600160801b03168d600001516005546135a4565b905060006040518060a0016040528088868151811061283057612830615b24565b6020026020010151600001516001600160b81b03168152602001836001600160801b0316815260200160008152602001600081526020018e608001518152509050612879615377565b60408051630624e65f60e11b81528351600482015260208401516001600160801b031660248201529083015160448201526060830151606482015260808301516084820152600080516020615f8183398151915290630c49ccbe9060a40160408051808303816000875af11580156128f5573d6000803e3d6000fd5b505050506040513d601f19601f820116820180604052508101906129199190615b7d565b60208301528152612928615377565b600080516020615f818339815191526001600160a01b031663fc6f786560405180608001604052808c8a8151811061296257612962615b24565b602090810291909101810151516001600160b81b0316825230908201526001600160801b036040808301829052606090920152516001600160e01b031960e084901b1681526129b49190600401615b3a565b60408051808303816000875af11580156129d2573d6000803e3d6000fd5b505050506040513d601f19601f820116820180604052508101906129f69190615b7d565b602083015281528151612a09908e615836565b9c5081602001518c612a1b9190615836565b9b50612a27848c615d60565b9a50836001600160801b03168b6001600160801b03161015612a5b5760405162461bcd60e51b815260040161077590615d8b565b8d15612b0f57815181518b51612a719190615836565b612a7b91906157e9565b8a5260208083015182820151918c01519091612a9691615836565b612aa091906157e9565b60208b01528851612ad9908a9088908110612abd57612abd615b24565b6020026020010151600001516001600160b81b0316888a61377e565b602084015280835260408b0151612af09190615836565b60408b0152602082015160608b0151612b099190615836565b60608b01525b50505050508080612b1f90615ba1565b915050612742565b508715612b7457600b54845161271091612b4091615bbc565b612b4a9190615bdb565b6080850152600b54602085015161271091612b6491615bbc565b612b6e9190615bdb565b60a08501525b50505092959194509250565b6001600160a01b038216612bba5760405162461bcd60e51b81526020600482015260016024820152602960f91b6044820152606401610775565b6001600160a01b03821660009081526001602052604090205481811015612c075760405162461bcd60e51b81526020600482015260016024820152605360f81b6044820152606401610775565b612c1182826157e9565b6001600160a01b03841660009081526001602052604081209190915560058054849290612c3f9084906157e9565b90915550506040518281526000906001600160a01b03851690600080516020615fa1833981519152906020016123ba565b612cc68363a9059cbb60e01b8484604051602401612c8f929190615da6565b60408051601f198184030181529190526020810180516001600160e01b03166001600160e01b031990931692909217909152613d54565b505050565b6040516001600160a01b0380851660248301528316604482015260648101829052612d039085906323b872dd60e01b90608401612c8f565b50505050565b60008060008060006009805480602002602001604051908101604052809291908181526020016000905b82821015612d9f57600084815260209081902060408051608081018252918501546001600160b81b0381168352600160b81b8104600290810b84860152600160d01b8204900b91830191909152600160e81b900462ffffff166060820152825260019092019101612d33565b50508851929350612dec926001600160a01b037f0000000000000000000000000000000000000000000000000000000000000000169250600080516020615f818339815191529150613ddb565b6020860151612e35906001600160a01b037f00000000000000000000000000000000000000000000000000000000000000001690600080516020615f8183398151915290613ddb565b600080600083516001600160401b03811115612e5357612e536155fa565b604051908082528060200260200182016040528015612e7c578160200160208202803683370190505b509050600084516001600160401b03811115612e9a57612e9a6155fa565b604051908082528060200260200182016040528015612ec3578160200160208202803683370190505b509050612ecf85613ea4565b919a5092965090945090925090508315801590612eec5750600083115b15612f0e57612f08858b600001518c60200151878787876145f6565b90945092505b60005b85518110156134605760006040518061016001604052807f00000000000000000000000000000000000000000000000000000000000000006001600160a01b031681526020017f00000000000000000000000000000000000000000000000000000000000000006001600160a01b031681526020017f000000000000000000000000000000000000000000000000000000000000000062ffffff168152602001888481518110612fc357612fc3615b24565b60200260200101516040015160020b8152602001888481518110612fe957612fe9615b24565b60200260200101516020015160020b815260200160008152602001600081526020016000815260200160008152602001306001600160a01b031681526020018d60a00151815250905060006040518060c0016040528089858151811061305157613051615b24565b6020026020010151600001516001600160b81b03168152602001600081526020016000815260200160008152602001600081526020018e60a00151815250905060008711156130f9576130c28d600001518685815181106130b4576130b4615b24565b6020026020010151896135a4565b60a08301819052602082015260408d015185516130ec91908790869081106130b4576130b4615b24565b60e0830181905260608201525b851561315f576131278d6020015185858151811061311957613119615b24565b6020026020010151886135a4565b60c08301819052604082015260608d01518451613151919086908690811061311957613119615b24565b610100830181905260808201525b60008260a001511180613176575060008260c00151115b1561344b576131af60405180608001604052806000815260200160006001600160801b0316815260200160008152602001600081525090565b8884815181106131c1576131c1615b24565b6020026020010151600001516001600160b81b03166000141561332057604051634418b22b60e11b8152600080516020615f818339815191529063883164569061320f908690600401615dbf565b6080604051808303816000875af192505050801561324a575060408051601f3d908101601f1916820190925261324791810190615e75565b60015b61325357613271565b9284526001600160801b039091166020840152604083015260608201525b8051600980548690811061328757613287615b24565b600091825260209091200180546001600160b81b0319166001600160b81b039290921691909117905560408101516132bf908e615836565b9c5080606001518c6132d19190615836565b9b5080602001518a6132e39190615d60565b995080602001516001600160801b03168a6001600160801b0316101561331b5760405162461bcd60e51b815260040161077590615d8b565b613449565b6040805163219f5d1760e01b81528351600482015260208401516024820152908301516044820152606083015160648201526080830151608482015260a083015160a4820152600080516020615f818339815191529063219f5d179060c4016060604051808303816000875af19250505080156133ba575060408051601f3d908101601f191682019092526133b791810190615eb1565b60015b6133c3576133de565b6001600160801b039092166020840152604083015260608201525b60408101516133ed908e615836565b9c5080606001518c6133ff9190615836565b9b5080602001518a6134119190615d60565b995080602001516001600160801b03168a6001600160801b031610156134495760405162461bcd60e51b815260040161077590615d8b565b505b5050808061345890615ba1565b915050612f11565b506134a46001600160a01b037f000000000000000000000000000000000000000000000000000000000000000016600080516020615f818339815191526000613ddb565b6134e76001600160a01b037f000000000000000000000000000000000000000000000000000000000000000016600080516020615f818339815191526000613ddb565b50505050509193509193565b6001600160a01b03821661352d5760405162461bcd60e51b81526020600482015260016024820152605160f81b6044820152606401610775565b806005600082825461353f9190615836565b90915550506001600160a01b0382166000908152600160205260408120805483929061356c908490615836565b90915550506040518181526001600160a01b03831690600090600080516020615fa18339815191529060200160405180910390a35050565b6000808060001985870985870292508281108382030391505080600014156135de57600084116135d357600080fd5b508290049050610744565b8084116135ea57600080fd5b60008486880960026001871981018816978890046003810283188082028403028082028403028082028403028082028403028082028403029081029092039091026000889003889004909101858311909403939093029303949094049190911702949350505050565b60008073f4030086522a5beea4988f8ca5b36dbc97bee88c6001600160a01b03166350d25bcd6040518163ffffffff1660e01b8152600401602060405180830381865afa1580156136a8573d6000803e3d6000fd5b505050506040513d601f19601f820116820180604052508101906136cc9190615ee6565b90506000735f4ec3df9cbd43714fe2740f5e3616155c5b84196001600160a01b03166350d25bcd6040518163ffffffff1660e01b8152600401602060405180830381865afa158015613722573d6000803e3d6000fd5b505050506040513d601f19601f820116820180604052508101906137469190615ee6565b90506137528482615bbc565b61375c8684615bbc565b61376b906402540be400615bbc565b6137759190615836565b95945050505050565b6000806000806000600080516020615f818339815191526001600160a01b03166399fbab88896040518263ffffffff1660e01b81526004016137c291815260200190565b61018060405180830381865afa1580156137e0573d6000803e3d6000fd5b505050506040513d601f19601f820116820180604052508101906138049190615c84565b505050509750975097505050505050600061381e84614a47565b9050600061382b84614a47565b905060008061383c8b858588614d5b565b915091506127106301e185588b600c54856138579190615bbc565b6138619190615bbc565b61386b9190615bdb565b6138759190615bdb565b98506127106301e185588b600c548461388e9190615bbc565b6138989190615bbc565b6138a29190615bdb565b6138ac9190615bdb565b975050505050505050935093915050565b6006546000908190600160a01b900460ff16156138ec5760405162461bcd60e51b815260040161077590615800565b6006805460ff60a01b1916600160a01b1790556040516370a0823160e01b81526000906001600160a01b037f000000000000000000000000000000000000000000000000000000000000000016906370a082319061394e903090600401615457565b602060405180830381865afa15801561396b573d6000803e3d6000fd5b505050506040513d601f19601f8201168201806040525081019061398f9190615ee6565b905060007f00000000000000000000000000000000000000000000000000000000000000006001600160a01b03166370a08231306040518263ffffffff1660e01b81526004016139df9190615457565b602060405180830381865afa1580156139fc573d6000803e3d6000fd5b505050506040513d601f19601f82011682018060405250810190613a209190615ee6565b9050600080613a656040518060c001604052808681526020018581526020016000815260200160008152602001306001600160a01b0316815260200142815250612d09565b5050915091508184613a7791906157e9565b9350613a8381846157e9565b9250613a8f8287615836565b9550613a9b8186615836565b9450613aa78284615bbc565b613ab18286615bbc565b1180613acf575081158015613ac4575080155b8015613acf57508284115b15613b2c57613b2c7f00000000000000000000000000000000000000000000000000000000000000007f0000000000000000000000000000000000000000000000000000000000000000848488888d6001600160a01b0316614df7565b613b368284615bbc565b613b408286615bbc565b1080613b5e575081158015613b53575080155b8015613b5e57508284105b15613bd0576000613b7d600160601b808a6001600160a01b03166135a4565b9050613bce7f00000000000000000000000000000000000000000000000000000000000000007f00000000000000000000000000000000000000000000000000000000000000008486888a87614df7565b505b6040805160c08101918290526370a0823160e01b909152613d1d90806001600160a01b037f0000000000000000000000000000000000000000000000000000000000000000166370a08231613c283060c48501615457565b602060405180830381865afa158015613c45573d6000803e3d6000fd5b505050506040513d601f19601f82011682018060405250810190613c699190615ee6565b81526020017f00000000000000000000000000000000000000000000000000000000000000006001600160a01b03166370a08231306040518263ffffffff1660e01b8152600401613cba9190615457565b602060405180830381865afa158015613cd7573d6000803e3d6000fd5b505050506040513d601f19601f82011682018060405250810190613cfb9190615ee6565b8152600060208201819052604082015230606082015242608090910152612d09565b509193509150613d2f90508287615836565b9550613d3b8186615836565b6006805460ff60a01b1916905595979596505050505050565b6000613d8d82604051806040016040528060018152602001603760f81b815250856001600160a01b0316614ff49092919063ffffffff16565b805190915015612cc65780806020019051810190613dab9190615eff565b612cc65760405162461bcd60e51b81526020600482015260016024820152600760fb1b6044820152606401610775565b801580613e555750604051636eb1769f60e11b81523060048201526001600160a01b03838116602483015284169063dd62ed3e90604401602060405180830381865afa158015613e2f573d6000803e3d6000fd5b505050506040513d601f19601f82011682018060405250810190613e539190615ee6565b155b613e855760405162461bcd60e51b81526020600482015260016024820152601b60f91b6044820152606401610775565b612cc68363095ea7b360e01b8484604051602401612c8f929190615da6565b600080600060608085516001600160401b03811115613ec557613ec56155fa565b604051908082528060200260200182016040528015613eee578160200160208202803683370190505b50915085516001600160401b03811115613f0a57613f0a6155fa565b604051908082528060200260200182016040528015613f33578160200160208202803683370190505b50604051630b4c774160e11b81529091506000908190731f98431c8ad98523631ae4a59f267346ea31f98490631698ee8290613fd7907f0000000000000000000000000000000000000000000000000000000000000000907f0000000000000000000000000000000000000000000000000000000000000000907f0000000000000000000000000000000000000000000000000000000000000000906004016159ee565b602060405180830381865afa158015613ff4573d6000803e3d6000fd5b505050506040513d601f19601f820116820180604052508101906140189190615a21565b6001600160a01b0316633850c7bd6040518163ffffffff1660e01b815260040160e060405180830381865afa158015614055573d6000803e3d6000fd5b505050506040513d601f19601f820116820180604052508101906140799190615a5b565b50505050509150915061408a615377565b6000806140b48b6000815181106140a3576140a3615b24565b602002602001015160400151614a47565b6001600160a01b031683528a516140e7908c906000906140d6576140d6615b24565b602002602001015160200151614a47565b6001600160a01b031660208401528a518b9060009061410857614108615b24565b60200260200101516060015162ffffff1691508a60018c5161412a91906157e9565b8151811061413a5761413a615b24565b60200260200101516060015162ffffff16905060005b8b518110156145e75760008c828151811061416d5761416d615b24565b6020026020010151600001516001600160b81b03161115614240576000600080516020615f818339815191526001600160a01b03166399fbab888e84815181106141b9576141b9615b24565b6020026020010151600001516040518263ffffffff1660e01b81526004016141e19190615c33565b61018060405180830381865afa1580156141ff573d6000803e3d6000fd5b505050506040513d601f19601f820116820180604052508101906142239190615c84565b50505050975050505050505050808a61423c9190615d60565b9950505b614248615377565b61425d8d83815181106140a3576140a3615b24565b6001600160a01b031681528c51614280908e90849081106140d6576140d6615b24565b6001600160a01b031660208201528c518d90839081106142a2576142a2615b24565b60200260200101516040015160020b8660020b1361439057838d83815181106142cd576142cd615b24565b60200260200101516060015162ffffff1661433261432561430a89600001518a602001518b600001518c6020015161430591906157e9565b6135a4565b8551602087015161431b91906157e9565b86602001516135a4565b8451600160601b906135a4565b61433c9190615bbc565b6143469190615bdb565b89838151811061435857614358615b24565b60200260200101818152505088828151811061437657614376615b24565b60200260200101518c6143899190615836565b9b506145d4565b8c82815181106143a2576143a2615b24565b60200260200101516020015160020b8660020b1261446957828d83815181106143cd576143cd615b24565b60200260200101516060015162ffffff1661440b836000015184602001516143f591906157e9565b885160208a0151600160601b91614305916157e9565b6144159190615bbc565b61441f9190615bdb565b88838151811061443157614431615b24565b60200260200101818152505087828151811061444f5761444f615b24565b60200260200101518b6144629190615836565b9a506145d4565b838d838151811061447c5761447c615b24565b60200260200101516060015162ffffff166144e16144cd6144b489600001518a602001518b600001518c6020015161430591906157e9565b8b6001600160a01b0316866020015161431b91906157e9565b600160601b8b6001600160a01b03166135a4565b6144eb9190615bbc565b6144f59190615bdb565b89838151811061450757614507615b24565b602002602001018181525050828d838151811061452657614526615b24565b60200260200101516060015162ffffff1661455383600001518a6001600160a01b03166143f591906157e9565b61455d9190615bbc565b6145679190615bdb565b88838151811061457957614579615b24565b60200260200101818152505088828151811061459757614597615b24565b60200260200101518c6145aa9190615836565b9b508782815181106145be576145be615b24565b60200260200101518b6145d19190615836565b9a505b50806145df81615ba1565b915050614150565b50505050505091939590929450565b60008088516001141561460d575084905083614a3b565b614615615377565b604051630b4c774160e11b8152600090731f98431c8ad98523631ae4a59f267346ea31f98490631698ee82906146b3907f0000000000000000000000000000000000000000000000000000000000000000907f0000000000000000000000000000000000000000000000000000000000000000907f0000000000000000000000000000000000000000000000000000000000000000906004016159ee565b602060405180830381865afa1580156146d0573d6000803e3d6000fd5b505050506040513d601f19601f820116820180604052508101906146f49190615a21565b6001600160a01b0316633850c7bd6040518163ffffffff1660e01b815260040160e060405180830381865afa158015614731573d6000803e3d6000fd5b505050506040513d601f19601f820116820180604052508101906147559190615a5b565b50505050505090506147ce816147778d6000815181106140a3576140a3615b24565b61478d8e6000815181106140d6576140d6615b24565b6147b28e8b6000815181106147a4576147a4615b24565b60200260200101518e6135a4565b6147c98e8b6000815181106147a4576147a4615b24565b61500b565b6001600160801b031682528a516000906147ea906001906157e9565b9050614854826148058e84815181106140a3576140a3615b24565b61481a8f85815181106140d6576140d6615b24565b61483e8f8c878151811061483057614830615b24565b60200260200101518f6135a4565b6147c98f8c888151811061483057614830615b24565b6001600160801b031660208401528b518c9060009061487557614875615b24565b60200260200101516060015162ffffff1683602001516148959190615bbc565b8c82815181106148a7576148a7615b24565b60200260200101516060015162ffffff1684600001516148c79190615bbc565b11156149855760008c6000815181106148e2576148e2615b24565b60200260200101516060015162ffffff1684602001516149029190615bbc565b111561497857614971898d838151811061491e5761491e615b24565b60200260200101516060015162ffffff16856000015161493e9190615bbc565b8e60008151811061495157614951615b24565b60200260200101516060015162ffffff1686602001516143059190615bbc565b945061497d565b600094505b879350614a37565b88945060008c828151811061499c5761499c615b24565b60200260200101516060015162ffffff1684600001516149bc9190615bbc565b1115614a3257614a2b888d6000815181106149d9576149d9615b24565b60200260200101516060015162ffffff1685602001516149f99190615bbc565b8e8481518110614a0b57614a0b615b24565b60200260200101516060015162ffffff1686600001516143059190615bbc565b9350614a37565b600093505b5050505b97509795505050505050565b60008060008360020b12614a5e578260020b614a66565b8260020b6000035b9050620d89e8811115614a8b5760405162461bcd60e51b815260040161077590615c47565b600060018216614a9f57600160801b614ab1565b6ffffcb933bd6fad37aa2d162d1a5940015b6001600160881b031690506002821615614adb576ffff97272373d413259a46990580e213a0260801c5b6004821615614afa576ffff2e50f5f656932ef12357cf3c7fdcc0260801c5b6008821615614b19576fffe5caca7e10e4e61c3624eaa0941cd00260801c5b6010821615614b38576fffcb9843d60f6159c9db58835c9266440260801c5b6020821615614b57576fff973b41fa98c081472e6896dfb254c00260801c5b6040821615614b76576fff2ea16466c96a3843ec78b326b528610260801c5b6080821615614b95576ffe5dee046a99a2a811c461f1969c30530260801c5b610100821615614bb5576ffcbe86c7900a88aedcffc83b479aa3a40260801c5b610200821615614bd5576ff987a7253ac413176f2b074cf7815e540260801c5b610400821615614bf5576ff3392b0822b70005940c7a398e4b70f30260801c5b610800821615614c15576fe7159475a2c29b7443b29c7fa6e889d90260801c5b611000821615614c35576fd097f3bdfd2022b8845ad8f792aa58250260801c5b612000821615614c55576fa9f746462d870fdf8a65dc1f90e061e50260801c5b614000821615614c75576f70d869a156d2a1b890bb3df62baf32f70260801c5b618000821615614c95576f31be135f97d08fd981231505542fcfa60260801c5b62010000821615614cb6576f09aa508b5b7a84e1c677de54f3e99bc90260801c5b62020000821615614cd6576e5d6af8dedb81196699c329225ee6040260801c5b62040000821615614cf5576d2216e584f5fa1ea926041bedfe980260801c5b62080000821615614d12576b048a170391f7dc42444e8fa20260801c5b60008460020b1315614d33578060001981614d2f57614d2f615af3565b0490505b600160201b810615614d46576001614d49565b60005b60ff16602082901c0192505050919050565b600080836001600160a01b0316856001600160a01b03161115614d7c579293925b846001600160a01b0316866001600160a01b031611614da757614da08585856150cd565b9150614dee565b836001600160a01b0316866001600160a01b03161015614de057614dcc8685856150cd565b9150614dd9858785615137565b9050614dee565b614deb858585615137565b90505b94509492505050565b600085158015614e05575084155b15614e1c57614e15600285615bdb565b9050614e6f565b84614e3a614e2f8885600160601b6135a4565b84600160601b6135a4565b614e449190615836565b614e4e8785615bbc565b614e588787615bbc565b614e6291906157e9565b614e6c9190615bdb565b90505b614e976001600160a01b03891673e592427a0aece92de3edee1f18e0157c0586156483613ddb565b60408051610100810182526001600160a01b038a811682528981166020830190815262ffffff7f000000000000000000000000000000000000000000000000000000000000000081168486019081523060608601908152426080870190815260a08701898152600060c0890181815260e08a01918252995163414bf38960e01b81529851881660048a0152955187166024890152925190931660448701525184166064860152905160848501525160a4840152925160c4830152915190911660e482015273e592427a0aece92de3edee1f18e0157c058615649063414bf38990610104016020604051808303816000875af1925050508015614fb6575060408051601f3d908101601f19168201909252614fb391810190615ee6565b60015b614fbf57614fc1565b505b614fea6001600160a01b03891673e592427a0aece92de3edee1f18e0157c058615646000613ddb565b5050505050505050565b60606150038484600085615181565b949350505050565b6000836001600160a01b0316856001600160a01b0316111561502b579293925b846001600160a01b0316866001600160a01b0316116150565761504f858585615262565b9050613775565b836001600160a01b0316866001600160a01b031610156150b857600061507d878686615262565b9050600061508c8789866152cc565b9050806001600160801b0316826001600160801b0316106150ad57806150af565b815b92505050613775565b6150c38585846152cc565b9695505050505050565b6000826001600160a01b0316846001600160a01b031611156150ed579192915b6001600160a01b03841661512d600160601b600160e01b03606085901b166151158787615f1c565b6001600160a01b0316866001600160a01b03166135a4565b6150039190615bdb565b6000826001600160a01b0316846001600160a01b03161115615157579192915b6150036001600160801b03831661516e8686615f1c565b6001600160a01b0316600160601b6135a4565b6060824710156151b75760405162461bcd60e51b81526020600482015260016024820152600d60fa1b6044820152606401610775565b843b6151e95760405162461bcd60e51b81526020600482015260016024820152603560f81b6044820152606401610775565b600080866001600160a01b031685876040516152059190615f44565b60006040518083038185875af1925050503d8060008114615242576040519150601f19603f3d011682016040523d82523d6000602084013e615247565b606091505b5091509150615257828286615302565b979650505050505050565b6000826001600160a01b0316846001600160a01b03161115615282579192915b60006152a5856001600160a01b0316856001600160a01b0316600160601b6135a4565b90506137756152c784836152b98989615f1c565b6001600160a01b03166135a4565b61533b565b6000826001600160a01b0316846001600160a01b031611156152ec579192915b6150036152c783600160601b6152b98888615f1c565b60608315615311575081610744565b8251156153215782518084602001fd5b8160405162461bcd60e51b815260040161077591906153d6565b806001600160801b038116811461535157600080fd5b919050565b50805460008255906000526020600020908101906153749190615391565b50565b604051806040016040528060008152602001600081525090565b5b808211156153a65760008155600101615392565b5090565b60005b838110156153c55781810151838201526020016153ad565b83811115612d035750506000910152565b60208152600082518060208401526153f58160408501602087016153aa565b601f01601f19169190910160400192915050565b6001600160a01b038116811461537457600080fd5b6000806040838503121561543157600080fd5b823561543c81615409565b946020939093013593505050565b6001600160a01b03169052565b6001600160a01b0391909116815260200190565b60006020828403121561547d57600080fd5b5035919050565b60006020828403121561549657600080fd5b813561074481615409565b6000806000606084860312156154b657600080fd5b83356154c181615409565b925060208401356154d181615409565b929592945050506040919091013590565b600060a082840312156154f457600080fd5b50919050565b600060c082840312156154f457600080fd5b801515811461537457600080fd5b6000806040838503121561552d57600080fd5b823561553881615409565b915060208301356155488161550c565b809150509250929050565b602080825282518282018190526000919060409081850190868401855b828110156155bf57815180516001600160b81b0316855286810151600290810b8887015286820151900b8686015260609081015162ffffff169085015260809093019290850190600101615570565b5091979650505050505050565b600080604083850312156155df57600080fd5b82356155ea81615409565b9150602083013561554881615409565b634e487b7160e01b600052604160045260246000fd5b604051608081016001600160401b0381118282101715615632576156326155fa565b60405290565b604051601f8201601f191681016001600160401b0381118282101715615660576156606155fa565b604052919050565b8060020b811461537457600080fd5b62ffffff8116811461537457600080fd5b600080604080848603121561569c57600080fd5b83356001600160401b03808211156156b357600080fd5b818601915086601f8301126156c757600080fd5b81356020828211156156db576156db6155fa565b6156e9818360051b01615638565b828152818101935060079290921b84018101918983111561570957600080fd5b938101935b82851015615790576080858b0312156157275760008081fd5b61572f615610565b85356001600160b81b03811681146157475760008081fd5b81528583013561575681615668565b818401528587013561576781615668565b8188015260608681013561577a81615677565b908201528452608094909401939281019261570e565b999701359750505050505050565b600181811c908216806157b257607f821691505b602082108114156154f457634e487b7160e01b600052602260045260246000fd5b634e487b7160e01b600052601160045260246000fd5b6000828210156157fb576157fb6157d3565b500390565b6020808252600190820152604560f81b604082015260600190565b6020808252600190820152602b60f91b604082015260600190565b60008219821115615849576158496157d3565b500190565b600060a0828403121561586057600080fd5b60405160a081016001600160401b0381118282101715615882576158826155fa565b806040525082358152602083013560208201526040830135604082015260608301356158ad81615409565b60608201526080928301359281019290925250919050565b6020808252600190820152604760f81b604082015260600190565b6020808252600190820152600960fb1b604082015260600190565b6001600160801b039390931683526020830191909152604082015260600190565b600060c0828403121561592e57600080fd5b60405160c081016001600160401b0381118282101715615950576159506155fa565b806040525082358152602083013560208201526040830135604082015260608301356060820152608083013561598581615409565b608082015260a0928301359281019290925250919050565b6020808252600190820152604d60f81b604082015260600190565b6020808252600190820152606160f81b604082015260600190565b6001600160a01b039290921682521515602082015260400190565b6001600160a01b03938416815291909216602082015262ffffff909116604082015260600190565b805161535181615409565b600060208284031215615a3357600080fd5b815161074481615409565b805161535181615668565b805161ffff8116811461535157600080fd5b600080600080600080600060e0888a031215615a7657600080fd5b8751615a8181615409565b6020890151909750615a9281615668565b9550615aa060408901615a49565b9450615aae60608901615a49565b9350615abc60808901615a49565b925060a088015160ff81168114615ad257600080fd5b60c0890151909250615ae38161550c565b8091505092959891949750929550565b634e487b7160e01b600052601260045260246000fd5b6020808252600190820152603160f91b604082015260600190565b634e487b7160e01b600052603260045260246000fd5b815181526020808301516001600160a01b0316908201526040808301516001600160801b0390811691830191909152606092830151169181019190915260800190565b60008060408385031215615b9057600080fd5b505080516020909101519092909150565b6000600019821415615bb557615bb56157d3565b5060010190565b6000816000190483118215151615615bd657615bd66157d3565b500290565b600082615bf857634e487b7160e01b600052601260045260246000fd5b500490565b978852602088019690965260408701949094526060860192909252608085015260a084015260c083015260e08201526101000190565b6001600160b81b0391909116815260200190565b6020808252600190820152601560fa1b604082015260600190565b805161535181615677565b80516001600160801b038116811461535157600080fd5b6000806000806000806000806000806000806101808d8f031215615ca757600080fd5b8c516001600160601b0381168114615cbe57600080fd5b9b50615ccc60208e01615a16565b9a50615cda60408e01615a16565b9950615ce860608e01615a16565b9850615cf660808e01615c62565b9750615d0460a08e01615a3e565b9650615d1260c08e01615a3e565b9550615d2060e08e01615c6d565b94506101008d015193506101208d01519250615d3f6101408e01615c6d565b9150615d4e6101608e01615c6d565b90509295989b509295989b509295989b565b60006001600160801b03828116848216808303821115615d8257615d826157d3565b01949350505050565b6020808252600190820152605760f81b604082015260600190565b6001600160a01b03929092168252602082015260400190565b600061016082019050615dd382845161544a565b6020830151615de5602084018261544a565b506040830151615dfc604084018262ffffff169052565b506060830151615e11606084018260020b9052565b506080830151615e26608084018260020b9052565b5060a083015160a083015260c083015160c083015260e083015160e083015261010080840151818401525061012080840151615e648285018261544a565b505061014092830151919092015290565b60008060008060808587031215615e8b57600080fd5b84519350615e9b60208601615c6d565b6040860151606090960151949790965092505050565b600080600060608486031215615ec657600080fd5b615ecf84615c6d565b925060208401519150604084015190509250925092565b600060208284031215615ef857600080fd5b5051919050565b600060208284031215615f1157600080fd5b81516107448161550c565b60006001600160a01b0383811690831681811015615f3c57615f3c6157d3565b039392505050565b60008251615f568184602087016153aa565b919091019291505056fe000000000000000000000000c02aaa39b223fe8d0a0e5c4f27ead9083c756cc2000000000000000000000000c36442b4a4522e871399cd717abdd847ab11fe88ddf252ad1be2c89b69c2b068fc378daa952ba7f163c4a11628f55a4df523b3efa26469706673582212209e7eeb6299c4ccb31fe10af6c1b77e3b3550c3c6531f6782efc9992335b9c17964736f6c634300080a0033"
  }
}