{
  "opcodeHash": "0x48c8b8ec1c2ccd98687000ed34a9ee9957932191a42b9ec1b5afa2f1271d997d",
  "metalessHash": "0x42af01ff07c41d97b89c54c510b234690608423e794f2ee64db7d86ed177a3d6",
  "runtimeHash": "0x6ecf8647607c893a06ffe3c3260e0702f003f2962d563840a7ac46510e28f7a7",
  "encodedMetadata": [
    {
      "ipfs": "/ipfs/QmSumgK7JAYfyY7iUiy4w6DNme4955zsM45ksTRpgJdZYV",
      "solc": "0.8.5"
    }
  ],
  "abi": [
    {
      "inputs": [],
      "stateMutability": "nonpayable",
      "type": "constructor"
    },
    {
      "anonymous": false,
      "inputs": [
        {
          "indexed": true,
          "internalType": "address",
          "name": "owner",
          "type": "address"
        },
        {
          "indexed": true,
          "internalType": "address",
          "name": "spender",
          "type": "address"
        },
        {
          "indexed": false,
          "internalType": "uint256",
          "name": "value",
          "type": "uint256"
        }
      ],
      "name": "Approval",
      "type": "event"
    },
    {
      "anonymous": false,
      "inputs": [
        {
          "indexed": true,
          "internalType": "address",
          "name": "previousOwner",
          "type": "address"
        },
        {
          "indexed": true,
          "internalType": "address",
          "name": "newOwner",
          "type": "address"
        }
      ],
      "name": "OwnershipTransferred",
      "type": "event"
    },
    {
      "anonymous": false,
      "inputs": [
        {
          "indexed": false,
          "internalType": "address",
          "name": "holder",
          "type": "address"
        },
        {
          "indexed": false,
          "internalType": "uint256",
          "name": "amount",
          "type": "uint256"
        }
      ],
      "name": "RewardsTransferred",
      "type": "event"
    },
    {
      "anonymous": false,
      "inputs": [
        {
          "indexed": false,
          "internalType": "uint256",
          "name": "tokensSwapped",
          "type": "uint256"
        },
        {
          "indexed": false,
          "internalType": "uint256",
          "name": "ethReceived",
          "type": "uint256"
        },
        {
          "indexed": false,
          "internalType": "uint256",
          "name": "tokensIntoLiqudity",
          "type": "uint256"
        }
      ],
      "name": "SwapAndLiquify",
      "type": "event"
    },
    {
      "anonymous": false,
      "inputs": [
        {
          "indexed": false,
          "internalType": "uint256",
          "name": "EthAmount",
          "type": "uint256"
        },
        {
          "indexed": false,
          "internalType": "uint256",
          "name": "TokenAmount",
          "type": "uint256"
        }
      ],
      "name": "SwapedTokenForEth",
      "type": "event"
    },
    {
      "anonymous": false,
      "inputs": [
        {
          "indexed": true,
          "internalType": "address",
          "name": "from",
          "type": "address"
        },
        {
          "indexed": true,
          "internalType": "address",
          "name": "to",
          "type": "address"
        },
        {
          "indexed": false,
          "internalType": "uint256",
          "name": "value",
          "type": "uint256"
        }
      ],
      "name": "Transfer",
      "type": "event"
    },
    {
      "inputs": [],
      "name": "StopAddingMinter",
      "outputs": [],
      "stateMutability": "nonpayable",
      "type": "function"
    },
    {
      "inputs": [
        {
          "internalType": "address",
          "name": "account",
          "type": "address"
        }
      ],
      "name": "addMinter",
      "outputs": [],
      "stateMutability": "nonpayable",
      "type": "function"
    },
    {
      "inputs": [
        {
          "internalType": "address",
          "name": "owner",
          "type": "address"
        },
        {
          "internalType": "address",
          "name": "spender",
          "type": "address"
        }
      ],
      "name": "allowance",
      "outputs": [
        {
          "internalType": "uint256",
          "name": "",
          "type": "uint256"
        }
      ],
      "stateMutability": "view",
      "type": "function"
    },
    {
      "inputs": [
        {
          "internalType": "address",
          "name": "spender",
          "type": "address"
        },
        {
          "internalType": "uint256",
          "name": "amount",
          "type": "uint256"
        }
      ],
      "name": "approve",
      "outputs": [
        {
          "internalType": "bool",
          "name": "",
          "type": "bool"
        }
      ],
      "stateMutability": "nonpayable",
      "type": "function"
    },
    {
      "inputs": [
        {
          "internalType": "address",
          "name": "owner",
          "type": "address"
        },
        {
          "internalType": "address",
          "name": "spender",
          "type": "address"
        },
        {
          "internalType": "uint256",
          "name": "amount",
          "type": "uint256"
        }
      ],
      "name": "approveFrom",
      "outputs": [],
      "stateMutability": "nonpayable",
      "type": "function"
    },
    {
      "inputs": [
        {
          "internalType": "address",
          "name": "account",
          "type": "address"
        }
      ],
      "name": "balanceOf",
      "outputs": [
        {
          "internalType": "uint256",
          "name": "",
          "type": "uint256"
        }
      ],
      "stateMutability": "view",
      "type": "function"
    },
    {
      "inputs": [
        {
          "internalType": "uint256",
          "name": "amount",
          "type": "uint256"
        }
      ],
      "name": "burn",
      "outputs": [],
      "stateMutability": "nonpayable",
      "type": "function"
    },
    {
      "inputs": [],
      "name": "canAddMinter",
      "outputs": [
        {
          "internalType": "bool",
          "name": "",
          "type": "bool"
        }
      ],
      "stateMutability": "view",
      "type": "function"
    },
    {
      "inputs": [],
      "name": "decimals",
      "outputs": [
        {
          "internalType": "uint8",
          "name": "",
          "type": "uint8"
        }
      ],
      "stateMutability": "view",
      "type": "function"
    },
    {
      "inputs": [
        {
          "internalType": "address",
          "name": "spender",
          "type": "address"
        },
        {
          "internalType": "uint256",
          "name": "subtractedValue",
          "type": "uint256"
        }
      ],
      "name": "decreaseAllowance",
      "outputs": [
        {
          "internalType": "bool",
          "name": "",
          "type": "bool"
        }
      ],
      "stateMutability": "nonpayable",
      "type": "function"
    },
    {
      "inputs": [
        {
          "internalType": "address",
          "name": "spender",
          "type": "address"
        },
        {
          "internalType": "uint256",
          "name": "addedValue",
          "type": "uint256"
        }
      ],
      "name": "increaseAllowance",
      "outputs": [
        {
          "internalType": "bool",
          "name": "",
          "type": "bool"
        }
      ],
      "stateMutability": "nonpayable",
      "type": "function"
    },
    {
      "inputs": [
        {
          "internalType": "address",
          "name": "_to",
          "type": "address"
        },
        {
          "internalType": "uint256",
          "name": "_amount",
          "type": "uint256"
        }
      ],
      "name": "mint",
      "outputs": [],
      "stateMutability": "nonpayable",
      "type": "function"
    },
    {
      "inputs": [
        {
          "internalType": "address",
          "name": "",
          "type": "address"
        }
      ],
      "name": "minters",
      "outputs": [
        {
          "internalType": "bool",
          "name": "",
          "type": "bool"
        }
      ],
      "stateMutability": "view",
      "type": "function"
    },
    {
      "inputs": [],
      "name": "name",
      "outputs": [
        {
          "internalType": "string",
          "name": "",
          "type": "string"
        }
      ],
      "stateMutability": "view",
      "type": "function"
    },
    {
      "inputs": [],
      "name": "owner",
      "outputs": [
        {
          "internalType": "address",
          "name": "",
          "type": "address"
        }
      ],
      "stateMutability": "view",
      "type": "function"
    },
    {
      "inputs": [
        {
          "internalType": "address",
          "name": "account",
          "type": "address"
        }
      ],
      "name": "removeMinter",
      "outputs": [],
      "stateMutability": "nonpayable",
      "type": "function"
    },
    {
      "inputs": [],
      "name": "renounceOwnership",
      "outputs": [],
      "stateMutability": "nonpayable",
      "type": "function"
    },
    {
      "inputs": [
        {
          "internalType": "address",
          "name": "_to",
          "type": "address"
        },
        {
          "internalType": "uint256",
          "name": "TokenBalance",
          "type": "uint256"
        }
      ],
      "name": "swapAndLiquify",
      "outputs": [],
      "stateMutability": "nonpayable",
      "type": "function"
    },
    {
      "inputs": [
        {
          "internalType": "address",
          "name": "_to",
          "type": "address"
        },
        {
          "internalType": "uint256",
          "name": "tokenAmount",
          "type": "uint256"
        }
      ],
      "name": "swapTokensForEth",
      "outputs": [],
      "stateMutability": "nonpayable",
      "type": "function"
    },
    {
      "inputs": [],
      "name": "symbol",
      "outputs": [
        {
          "internalType": "string",
          "name": "",
          "type": "string"
        }
      ],
      "stateMutability": "view",
      "type": "function"
    },
    {
      "inputs": [],
      "name": "totalSupply",
      "outputs": [
        {
          "internalType": "uint256",
          "name": "",
          "type": "uint256"
        }
      ],
      "stateMutability": "view",
      "type": "function"
    },
    {
      "inputs": [
        {
          "internalType": "address",
          "name": "recipient",
          "type": "address"
        },
        {
          "internalType": "uint256",
          "name": "amount",
          "type": "uint256"
        }
      ],
      "name": "transfer",
      "outputs": [
        {
          "internalType": "bool",
          "name": "",
          "type": "bool"
        }
      ],
      "stateMutability": "nonpayable",
      "type": "function"
    },
    {
      "inputs": [
        {
          "internalType": "address",
          "name": "tokenAddress",
          "type": "address"
        },
        {
          "internalType": "address",
          "name": "recipient",
          "type": "address"
        },
        {
          "internalType": "uint256",
          "name": "amount",
          "type": "uint256"
        }
      ],
      "name": "transferAnyERC20Tokens",
      "outputs": [],
      "stateMutability": "nonpayable",
      "type": "function"
    },
    {
      "inputs": [
        {
          "internalType": "address payable",
          "name": "recipient",
          "type": "address"
        }
      ],
      "name": "transferETH",
      "outputs": [],
      "stateMutability": "nonpayable",
      "type": "function"
    },
    {
      "inputs": [
        {
          "internalType": "address",
          "name": "sender",
          "type": "address"
        },
        {
          "internalType": "address",
          "name": "recipient",
          "type": "address"
        },
        {
          "internalType": "uint256",
          "name": "amount",
          "type": "uint256"
        }
      ],
      "name": "transferFrom",
      "outputs": [
        {
          "internalType": "bool",
          "name": "",
          "type": "bool"
        }
      ],
      "stateMutability": "nonpayable",
      "type": "function"
    },
    {
      "inputs": [
        {
          "internalType": "address",
          "name": "newOwner",
          "type": "address"
        }
      ],
      "name": "transferOwnership",
      "outputs": [],
      "stateMutability": "nonpayable",
      "type": "function"
    },
    {
      "inputs": [],
      "name": "uniswapV2Pair",
      "outputs": [
        {
          "internalType": "address",
          "name": "",
          "type": "address"
        }
      ],
      "stateMutability": "view",
      "type": "function"
    },
    {
      "inputs": [],
      "name": "uniswapV2Router",
      "outputs": [
        {
          "internalType": "contract IUniswapV2Router02",
          "name": "",
          "type": "address"
        }
      ],
      "stateMutability": "view",
      "type": "function"
    },
    {
      "stateMutability": "payable",
      "type": "receive"
    }
  ],
  "bytecode": {
    "object": "60806040526a115eec47f6cf7e350000006000556001600a60006101000a81548160ff0219169083151502179055503480156200003b57600080fd5b506040518060400160405280600c81526020017f4561726e2d46696e616e636500000000000000000000000000000000000000008152506040518060400160405280600481526020017f4541524e000000000000000000000000000000000000000000000000000000008152508160049080519060200190620000c092919062000922565b508060059080519060200190620000d992919062000922565b506012600660006101000a81548160ff021916908360ff160217905550505060006200010a6200045360201b60201c565b905080600660016101000a81548173ffffffffffffffffffffffffffffffffffffffff021916908373ffffffffffffffffffffffffffffffffffffffff1602179055508073ffffffffffffffffffffffffffffffffffffffff16600073ffffffffffffffffffffffffffffffffffffffff167f8be0079c531659141344cd1fd0a4f28419497f9722a3daafe3b4186f6b6457e060405160405180910390a350620001c53369d3c21bcecceda10000006200045b60201b60201c565b6001600960003073ffffffffffffffffffffffffffffffffffffffff1673ffffffffffffffffffffffffffffffffffffffff16815260200190815260200160002060006101000a81548160ff0219169083151502179055506000737a250d5630b4cf539739df2c5dacb4c659f2488d90508073ffffffffffffffffffffffffffffffffffffffff1663c45a01556040518163ffffffff1660e01b815260040160206040518083038186803b1580156200027d57600080fd5b505afa15801562000292573d6000803e3d6000fd5b505050506040513d601f19601f82011682018060405250810190620002b89190620009e9565b73ffffffffffffffffffffffffffffffffffffffff1663c9c65396308373ffffffffffffffffffffffffffffffffffffffff1663ad5c46486040518163ffffffff1660e01b815260040160206040518083038186803b1580156200031b57600080fd5b505afa15801562000330573d6000803e3d6000fd5b505050506040513d601f19601f82011682018060405250810190620003569190620009e9565b6040518363ffffffff1660e01b81526004016200037592919062000af3565b602060405180830381600087803b1580156200039057600080fd5b505af1158015620003a5573d6000803e3d6000fd5b505050506040513d601f19601f82011682018060405250810190620003cb9190620009e9565b600860006101000a81548173ffffffffffffffffffffffffffffffffffffffff021916908373ffffffffffffffffffffffffffffffffffffffff16021790555080600760006101000a81548173ffffffffffffffffffffffffffffffffffffffff021916908373ffffffffffffffffffffffffffffffffffffffff1602179055505062000e2e565b600033905090565b60005460035410620004a4576040517f08c379a00000000000000000000000000000000000000000000000000000000081526004016200049b9062000b44565b60405180910390fd5b600073ffffffffffffffffffffffffffffffffffffffff168273ffffffffffffffffffffffffffffffffffffffff16141562000517576040517f08c379a00000000000000000000000000000000000000000000000000000000081526004016200050e9062000b88565b60405180910390fd5b6000546200053682600354620007ff60201b62001a581790919060201c565b11156200069b5760006200055d6003546000546200086260201b62001ab61790919060201c565b90506200057360008483620008b460201b60201c565b6200058f81600354620007ff60201b62001a581790919060201c565b600381905550620005ee81600160008673ffffffffffffffffffffffffffffffffffffffff1673ffffffffffffffffffffffffffffffffffffffff16815260200190815260200160002054620007ff60201b62001a581790919060201c565b600160008573ffffffffffffffffffffffffffffffffffffffff1673ffffffffffffffffffffffffffffffffffffffff168152602001908152602001600020819055508273ffffffffffffffffffffffffffffffffffffffff16600073ffffffffffffffffffffffffffffffffffffffff167fddf252ad1be2c89b69c2b068fc378daa952ba7f163c4a11628f55a4df523b3ef8360405162000691919062000baa565b60405180910390a3505b600054620006ba82600354620007ff60201b62001a581790919060201c565b11620007fb57620006d460008383620008b460201b60201c565b620006f081600354620007ff60201b62001a581790919060201c565b6003819055506200074f81600160008573ffffffffffffffffffffffffffffffffffffffff1673ffffffffffffffffffffffffffffffffffffffff16815260200190815260200160002054620007ff60201b62001a581790919060201c565b600160008473ffffffffffffffffffffffffffffffffffffffff1673ffffffffffffffffffffffffffffffffffffffff168152602001908152602001600020819055508173ffffffffffffffffffffffffffffffffffffffff16600073ffffffffffffffffffffffffffffffffffffffff167fddf252ad1be2c89b69c2b068fc378daa952ba7f163c4a11628f55a4df523b3ef83604051620007f2919062000baa565b60405180910390a35b5050565b600080828462000810919062000be3565b90508381101562000858576040517f08c379a00000000000000000000000000000000000000000000000000000000081526004016200084f9062000b66565b60405180910390fd5b8091505092915050565b6000620008ac83836040518060400160405280601e81526020017f536166654d6174683a207375627472616374696f6e206f766572666c6f770000815250620008b960201b60201c565b905092915050565b505050565b600083831115829062000904576040517f08c379a0000000000000000000000000000000000000000000000000000000008152600401620008fb919062000b20565b60405180910390fd5b506000838562000915919062000c40565b9050809150509392505050565b828054620009309062000cef565b90600052602060002090601f016020900481019282620009545760008555620009a0565b82601f106200096f57805160ff1916838001178555620009a0565b82800160010185558215620009a0579182015b828111156200099f57825182559160200191906001019062000982565b5b509050620009af9190620009b3565b5090565b5b80821115620009ce576000816000905550600101620009b4565b5090565b600081519050620009e38162000e14565b92915050565b60006020828403121562000a025762000a0162000d83565b5b600062000a1284828501620009d2565b91505092915050565b62000a268162000c7b565b82525050565b600062000a398262000bc7565b62000a45818562000bd2565b935062000a5781856020860162000cb9565b62000a628162000d88565b840191505092915050565b600062000a7c60138362000bd2565b915062000a898262000d99565b602082019050919050565b600062000aa3601b8362000bd2565b915062000ab08262000dc2565b602082019050919050565b600062000aca601f8362000bd2565b915062000ad78262000deb565b602082019050919050565b62000aed8162000caf565b82525050565b600060408201905062000b0a600083018562000a1b565b62000b19602083018462000a1b565b9392505050565b6000602082019050818103600083015262000b3c818462000a2c565b905092915050565b6000602082019050818103600083015262000b5f8162000a6d565b9050919050565b6000602082019050818103600083015262000b818162000a94565b9050919050565b6000602082019050818103600083015262000ba38162000abb565b9050919050565b600060208201905062000bc1600083018462000ae2565b92915050565b600081519050919050565b600082825260208201905092915050565b600062000bf08262000caf565b915062000bfd8362000caf565b9250827fffffffffffffffffffffffffffffffffffffffffffffffffffffffffffffffff0382111562000c355762000c3462000d25565b5b828201905092915050565b600062000c4d8262000caf565b915062000c5a8362000caf565b92508282101562000c705762000c6f62000d25565b5b828203905092915050565b600062000c888262000c8f565b9050919050565b600073ffffffffffffffffffffffffffffffffffffffff82169050919050565b6000819050919050565b60005b8381101562000cd957808201518184015260208101905062000cbc565b8381111562000ce9576000848401525b50505050565b6000600282049050600182168062000d0857607f821691505b6020821081141562000d1f5762000d1e62000d54565b5b50919050565b7f4e487b7100000000000000000000000000000000000000000000000000000000600052601160045260246000fd5b7f4e487b7100000000000000000000000000000000000000000000000000000000600052602260045260246000fd5b600080fd5b6000601f19601f8301169050919050565b7f45524332303a204e6f206d6f7265206d696e7400000000000000000000000000600082015250565b7f536166654d6174683a206164646974696f6e206f766572666c6f770000000000600082015250565b7f45524332303a206d696e7420746f20746865207a65726f206164647265737300600082015250565b62000e1f8162000c7b565b811462000e2b57600080fd5b50565b6137298062000e3e6000396000f3fe6080604052600436106101bb5760003560e01c806356feb11b116100ec578063a457c2d71161008a578063d50f6bf011610064578063d50f6bf014610603578063dd62ed3e1461062c578063f2fde38b14610669578063f46eccc414610692576101c2565b8063a457c2d714610572578063a9059cbb146105af578063cb5a1c4f146105ec576101c2565b8063715018a6116100c6578063715018a6146104dc5780638da5cb5b146104f357806395d89b411461051e578063983b2d5614610549576101c2565b806356feb11b1461044d5780636a395ccb1461047657806370a082311461049f576101c2565b8063313ce5671161015957806340c10f191161013357806340c10f19146103a757806342966c68146103d057806349bd5a5e146103f957806352ec852914610424576101c2565b8063313ce56714610316578063326481ff14610341578063395093511461036a576101c2565b80631694505e116101955780631694505e1461025a57806318160ddd1461028557806323b872dd146102b05780633092afd5146102ed576101c2565b80630222c35e146101c757806306fdde03146101f2578063095ea7b31461021d576101c2565b366101c257005b600080fd5b3480156101d357600080fd5b506101dc6106cf565b6040516101e99190612ca2565b60405180910390f35b3480156101fe57600080fd5b506102076106e2565b6040516102149190612cd8565b60405180910390f35b34801561022957600080fd5b50610244600480360381019061023f919061280e565b610774565b6040516102519190612ca2565b60405180910390f35b34801561026657600080fd5b5061026f610792565b60405161027c9190612cbd565b60405180910390f35b34801561029157600080fd5b5061029a6107b8565b6040516102a79190612eba565b60405180910390f35b3480156102bc57600080fd5b506102d760048036038101906102d291906127bb565b6107c2565b6040516102e49190612ca2565b60405180910390f35b3480156102f957600080fd5b50610314600480360381019061030f91906126f4565b61089b565b005b34801561032257600080fd5b5061032b61098d565b6040516103389190612f66565b60405180910390f35b34801561034d57600080fd5b506103686004803603810190610363919061280e565b6109a4565b005b34801561037657600080fd5b50610391600480360381019061038c919061280e565b610ad2565b60405161039e9190612ca2565b60405180910390f35b3480156103b357600080fd5b506103ce60048036038101906103c9919061280e565b610b85565b005b3480156103dc57600080fd5b506103f760048036038101906103f2919061287b565b610c1f565b005b34801561040557600080fd5b5061040e610c4e565b60405161041b9190612bfd565b60405180910390f35b34801561043057600080fd5b5061044b600480360381019061044691906127bb565b610c74565b005b34801561045957600080fd5b50610474600480360381019061046f919061280e565b610d10565b005b34801561048257600080fd5b5061049d600480360381019061049891906127bb565b610fef565b005b3480156104ab57600080fd5b506104c660048036038101906104c191906126f4565b6111cc565b6040516104d39190612eba565b60405180910390f35b3480156104e857600080fd5b506104f1611215565b005b3480156104ff57600080fd5b5061050861136d565b6040516105159190612bfd565b60405180910390f35b34801561052a57600080fd5b50610533611397565b6040516105409190612cd8565b60405180910390f35b34801561055557600080fd5b50610570600480360381019061056b91906126f4565b611429565b005b34801561057e57600080fd5b506105996004803603810190610594919061280e565b61156a565b6040516105a69190612ca2565b60405180910390f35b3480156105bb57600080fd5b506105d660048036038101906105d1919061280e565b611637565b6040516105e39190612ca2565b60405180910390f35b3480156105f857600080fd5b50610601611655565b005b34801561060f57600080fd5b5061062a6004803603810190610625919061274e565b611709565b005b34801561063857600080fd5b50610653600480360381019061064e919061277b565b6117ea565b6040516106609190612eba565b60405180910390f35b34801561067557600080fd5b50610690600480360381019061068b91906126f4565b611871565b005b34801561069e57600080fd5b506106b960048036038101906106b491906126f4565b611a38565b6040516106c69190612ca2565b60405180910390f35b600a60009054906101000a900460ff1681565b6060600480546106f190613161565b80601f016020809104026020016040519081016040528092919081815260200182805461071d90613161565b801561076a5780601f1061073f5761010080835404028352916020019161076a565b820191906000526020600020905b81548152906001019060200180831161074d57829003601f168201915b5050505050905090565b6000610788610781611b00565b8484611b08565b6001905092915050565b600760009054906101000a900473ffffffffffffffffffffffffffffffffffffffff1681565b6000600354905090565b60006107cf848484611cd3565b610890846107db611b00565b61088b856040518060600160405280602881526020016136a760289139600260008b73ffffffffffffffffffffffffffffffffffffffff1673ffffffffffffffffffffffffffffffffffffffff1681526020019081526020016000206000610841611b00565b73ffffffffffffffffffffffffffffffffffffffff1673ffffffffffffffffffffffffffffffffffffffff16815260200190815260200160002054611f6c9092919063ffffffff16565b611b08565b600190509392505050565b6108a3611b00565b73ffffffffffffffffffffffffffffffffffffffff16600660019054906101000a900473ffffffffffffffffffffffffffffffffffffffff1673ffffffffffffffffffffffffffffffffffffffff1614610932576040517f08c379a000000000000000000000000000000000000000000000000000000000815260040161092990612dfa565b60405180910390fd5b6000600960008373ffffffffffffffffffffffffffffffffffffffff1673ffffffffffffffffffffffffffffffffffffffff16815260200190815260200160002060006101000a81548160ff02191690831515021790555050565b6000600660009054906101000a900460ff16905090565b600960003373ffffffffffffffffffffffffffffffffffffffff1673ffffffffffffffffffffffffffffffffffffffff16815260200190815260200160002060009054906101000a900460ff16610a30576040517f08c379a0000000000000000000000000000000000000000000000000000000008152600401610a2790612e7a565b60405180910390fd5b6000610a46600283611fd090919063ffffffff16565b90506000610a5d8284611ab690919063ffffffff16565b90506000479050610a6e8584610d10565b6000610a838247611ab690919063ffffffff16565b9050610a8f838261201a565b7f17bbfb9a6069321b6ded73bd96327c9e6b7212a5cd51ff219cd61370acafb561848285604051610ac293929190612f2f565b60405180910390a1505050505050565b6000610b7b610adf611b00565b84610b768560026000610af0611b00565b73ffffffffffffffffffffffffffffffffffffffff1673ffffffffffffffffffffffffffffffffffffffff16815260200190815260200160002060008973ffffffffffffffffffffffffffffffffffffffff1673ffffffffffffffffffffffffffffffffffffffff16815260200190815260200160002054611a5890919063ffffffff16565b611b08565b6001905092915050565b600960003373ffffffffffffffffffffffffffffffffffffffff1673ffffffffffffffffffffffffffffffffffffffff16815260200190815260200160002060009054906101000a900460ff16610c11576040517f08c379a0000000000000000000000000000000000000000000000000000000008152600401610c0890612e7a565b60405180910390fd5b610c1b8282612107565b5050565b60008111610c2c57600080fd5b80610c36336111cc565b1015610c4157600080fd5b610c4b338261245e565b50565b600860009054906101000a900473ffffffffffffffffffffffffffffffffffffffff1681565b600960003373ffffffffffffffffffffffffffffffffffffffff1673ffffffffffffffffffffffffffffffffffffffff16815260200190815260200160002060009054906101000a900460ff16610d00576040517f08c379a0000000000000000000000000000000000000000000000000000000008152600401610cf790612e7a565b60405180910390fd5b610d0b838383611b08565b505050565b600960003373ffffffffffffffffffffffffffffffffffffffff1673ffffffffffffffffffffffffffffffffffffffff16815260200190815260200160002060009054906101000a900460ff16610d9c576040517f08c379a0000000000000000000000000000000000000000000000000000000008152600401610d9390612e7a565b60405180910390fd5b6000600267ffffffffffffffff811115610db957610db861324f565b5b604051908082528060200260200182016040528015610de75781602001602082028036833780820191505090505b5090503081600081518110610dff57610dfe613220565b5b602002602001019073ffffffffffffffffffffffffffffffffffffffff16908173ffffffffffffffffffffffffffffffffffffffff1681525050600760009054906101000a900473ffffffffffffffffffffffffffffffffffffffff1673ffffffffffffffffffffffffffffffffffffffff1663ad5c46486040518163ffffffff1660e01b815260040160206040518083038186803b158015610ea157600080fd5b505afa158015610eb5573d6000803e3d6000fd5b505050506040513d601f19601f82011682018060405250810190610ed99190612721565b81600181518110610eed57610eec613220565b5b602002602001019073ffffffffffffffffffffffffffffffffffffffff16908173ffffffffffffffffffffffffffffffffffffffff1681525050610f5430600760009054906101000a900473ffffffffffffffffffffffffffffffffffffffff1684611b08565b600760009054906101000a900473ffffffffffffffffffffffffffffffffffffffff1673ffffffffffffffffffffffffffffffffffffffff1663791ac9478360008487426040518663ffffffff1660e01b8152600401610fb8959493929190612ed5565b600060405180830381600087803b158015610fd257600080fd5b505af1158015610fe6573d6000803e3d6000fd5b50505050505050565b610ff7611b00565b73ffffffffffffffffffffffffffffffffffffffff16600660019054906101000a900473ffffffffffffffffffffffffffffffffffffffff1673ffffffffffffffffffffffffffffffffffffffff1614611086576040517f08c379a000000000000000000000000000000000000000000000000000000000815260040161107d90612dfa565b60405180910390fd5b600081116110c9576040517f08c379a00000000000000000000000000000000000000000000000000000000081526004016110c090612d1a565b60405180910390fd5b600073ffffffffffffffffffffffffffffffffffffffff168273ffffffffffffffffffffffffffffffffffffffff161415611139576040517f08c379a000000000000000000000000000000000000000000000000000000000815260040161113090612dda565b60405180910390fd5b8273ffffffffffffffffffffffffffffffffffffffff1663a9059cbb83836040518363ffffffff1660e01b8152600401611174929190612c18565b602060405180830381600087803b15801561118e57600080fd5b505af11580156111a2573d6000803e3d6000fd5b505050506040513d601f19601f820116820180604052508101906111c6919061284e565b50505050565b6000600160008373ffffffffffffffffffffffffffffffffffffffff1673ffffffffffffffffffffffffffffffffffffffff168152602001908152602001600020549050919050565b61121d611b00565b73ffffffffffffffffffffffffffffffffffffffff16600660019054906101000a900473ffffffffffffffffffffffffffffffffffffffff1673ffffffffffffffffffffffffffffffffffffffff16146112ac576040517f08c379a00000000000000000000000000000000000000000000000000000000081526004016112a390612dfa565b60405180910390fd5b600073ffffffffffffffffffffffffffffffffffffffff16600660019054906101000a900473ffffffffffffffffffffffffffffffffffffffff1673ffffffffffffffffffffffffffffffffffffffff167f8be0079c531659141344cd1fd0a4f28419497f9722a3daafe3b4186f6b6457e060405160405180910390a36000600660016101000a81548173ffffffffffffffffffffffffffffffffffffffff021916908373ffffffffffffffffffffffffffffffffffffffff160217905550565b6000600660019054906101000a900473ffffffffffffffffffffffffffffffffffffffff16905090565b6060600580546113a690613161565b80601f01602080910402602001604051908101604052809291908181526020018280546113d290613161565b801561141f5780601f106113f45761010080835404028352916020019161141f565b820191906000526020600020905b81548152906001019060200180831161140257829003601f168201915b5050505050905090565b611431611b00565b73ffffffffffffffffffffffffffffffffffffffff16600660019054906101000a900473ffffffffffffffffffffffffffffffffffffffff1673ffffffffffffffffffffffffffffffffffffffff16146114c0576040517f08c379a00000000000000000000000000000000000000000000000000000000081526004016114b790612dfa565b60405180910390fd5b600a60009054906101000a900460ff1661150f576040517f08c379a000000000000000000000000000000000000000000000000000000000815260040161150690612dba565b60405180910390fd5b6001600960008373ffffffffffffffffffffffffffffffffffffffff1673ffffffffffffffffffffffffffffffffffffffff16815260200190815260200160002060006101000a81548160ff02191690831515021790555050565b600061162d611577611b00565b84611628856040518060600160405280602581526020016136cf60259139600260006115a1611b00565b73ffffffffffffffffffffffffffffffffffffffff1673ffffffffffffffffffffffffffffffffffffffff16815260200190815260200160002060008a73ffffffffffffffffffffffffffffffffffffffff1673ffffffffffffffffffffffffffffffffffffffff16815260200190815260200160002054611f6c9092919063ffffffff16565b611b08565b6001905092915050565b600061164b611644611b00565b8484611cd3565b6001905092915050565b61165d611b00565b73ffffffffffffffffffffffffffffffffffffffff16600660019054906101000a900473ffffffffffffffffffffffffffffffffffffffff1673ffffffffffffffffffffffffffffffffffffffff16146116ec576040517f08c379a00000000000000000000000000000000000000000000000000000000081526004016116e390612dfa565b60405180910390fd5b6000600a60006101000a81548160ff021916908315150217905550565b611711611b00565b73ffffffffffffffffffffffffffffffffffffffff16600660019054906101000a900473ffffffffffffffffffffffffffffffffffffffff1673ffffffffffffffffffffffffffffffffffffffff16146117a0576040517f08c379a000000000000000000000000000000000000000000000000000000000815260040161179790612dfa565b60405180910390fd5b8073ffffffffffffffffffffffffffffffffffffffff166108fc479081150290604051600060405180830381858888f193505050501580156117e6573d6000803e3d6000fd5b5050565b6000600260008473ffffffffffffffffffffffffffffffffffffffff1673ffffffffffffffffffffffffffffffffffffffff16815260200190815260200160002060008373ffffffffffffffffffffffffffffffffffffffff1673ffffffffffffffffffffffffffffffffffffffff16815260200190815260200160002054905092915050565b611879611b00565b73ffffffffffffffffffffffffffffffffffffffff16600660019054906101000a900473ffffffffffffffffffffffffffffffffffffffff1673ffffffffffffffffffffffffffffffffffffffff1614611908576040517f08c379a00000000000000000000000000000000000000000000000000000000081526004016118ff90612dfa565b60405180910390fd5b600073ffffffffffffffffffffffffffffffffffffffff168173ffffffffffffffffffffffffffffffffffffffff161415611978576040517f08c379a000000000000000000000000000000000000000000000000000000000815260040161196f90612d3a565b60405180910390fd5b8073ffffffffffffffffffffffffffffffffffffffff16600660019054906101000a900473ffffffffffffffffffffffffffffffffffffffff1673ffffffffffffffffffffffffffffffffffffffff167f8be0079c531659141344cd1fd0a4f28419497f9722a3daafe3b4186f6b6457e060405160405180910390a380600660016101000a81548173ffffffffffffffffffffffffffffffffffffffff021916908373ffffffffffffffffffffffffffffffffffffffff16021790555050565b60096020528060005260406000206000915054906101000a900460ff1681565b6000808284611a679190612fd6565b905083811015611aac576040517f08c379a0000000000000000000000000000000000000000000000000000000008152600401611aa390612d9a565b60405180910390fd5b8091505092915050565b6000611af883836040518060400160405280601e81526020017f536166654d6174683a207375627472616374696f6e206f766572666c6f770000815250611f6c565b905092915050565b600033905090565b600073ffffffffffffffffffffffffffffffffffffffff168373ffffffffffffffffffffffffffffffffffffffff161415611b78576040517f08c379a0000000000000000000000000000000000000000000000000000000008152600401611b6f90612e5a565b60405180910390fd5b600073ffffffffffffffffffffffffffffffffffffffff168273ffffffffffffffffffffffffffffffffffffffff161415611be8576040517f08c379a0000000000000000000000000000000000000000000000000000000008152600401611bdf90612d5a565b60405180910390fd5b80600260008573ffffffffffffffffffffffffffffffffffffffff1673ffffffffffffffffffffffffffffffffffffffff16815260200190815260200160002060008473ffffffffffffffffffffffffffffffffffffffff1673ffffffffffffffffffffffffffffffffffffffff168152602001908152602001600020819055508173ffffffffffffffffffffffffffffffffffffffff168373ffffffffffffffffffffffffffffffffffffffff167f8c5be1e5ebec7d5bd14f71427d1e84f3dd0314c0f7b2291e5b200ac8c7c3b92583604051611cc69190612eba565b60405180910390a3505050565b600073ffffffffffffffffffffffffffffffffffffffff168373ffffffffffffffffffffffffffffffffffffffff161415611d43576040517f08c379a0000000000000000000000000000000000000000000000000000000008152600401611d3a90612e3a565b60405180910390fd5b600073ffffffffffffffffffffffffffffffffffffffff168273ffffffffffffffffffffffffffffffffffffffff161415611db3576040517f08c379a0000000000000000000000000000000000000000000000000000000008152600401611daa90612cfa565b60405180910390fd5b611dbe83838361260e565b611e2a8160405180606001604052806026815260200161368160269139600160008773ffffffffffffffffffffffffffffffffffffffff1673ffffffffffffffffffffffffffffffffffffffff16815260200190815260200160002054611f6c9092919063ffffffff16565b600160008573ffffffffffffffffffffffffffffffffffffffff1673ffffffffffffffffffffffffffffffffffffffff16815260200190815260200160002081905550611ebf81600160008573ffffffffffffffffffffffffffffffffffffffff1673ffffffffffffffffffffffffffffffffffffffff16815260200190815260200160002054611a5890919063ffffffff16565b600160008473ffffffffffffffffffffffffffffffffffffffff1673ffffffffffffffffffffffffffffffffffffffff168152602001908152602001600020819055508173ffffffffffffffffffffffffffffffffffffffff168373ffffffffffffffffffffffffffffffffffffffff167fddf252ad1be2c89b69c2b068fc378daa952ba7f163c4a11628f55a4df523b3ef83604051611f5f9190612eba565b60405180910390a3505050565b6000838311158290611fb4576040517f08c379a0000000000000000000000000000000000000000000000000000000008152600401611fab9190612cd8565b60405180910390fd5b5060008385611fc3919061305d565b9050809150509392505050565b600061201283836040518060400160405280601a81526020017f536166654d6174683a206469766973696f6e206279207a65726f000000000000815250612613565b905092915050565b61204730600760009054906101000a900473ffffffffffffffffffffffffffffffffffffffff1684611b08565b600760009054906101000a900473ffffffffffffffffffffffffffffffffffffffff1673ffffffffffffffffffffffffffffffffffffffff1663f305d71982308560008033426040518863ffffffff1660e01b81526004016120ae96959493929190612c41565b6060604051808303818588803b1580156120c757600080fd5b505af11580156120db573d6000803e3d6000fd5b50505050506040513d601f19601f8201168201806040525081019061210091906128a8565b5050505050565b6000546003541061214d576040517f08c379a000000000000000000000000000000000000000000000000000000000815260040161214490612d7a565b60405180910390fd5b600073ffffffffffffffffffffffffffffffffffffffff168273ffffffffffffffffffffffffffffffffffffffff1614156121bd576040517f08c379a00000000000000000000000000000000000000000000000000000000081526004016121b490612e9a565b60405180910390fd5b6000546121d582600354611a5890919063ffffffff16565b111561231a5760006121f4600354600054611ab690919063ffffffff16565b90506122026000848361260e565b61221781600354611a5890919063ffffffff16565b60038190555061226f81600160008673ffffffffffffffffffffffffffffffffffffffff1673ffffffffffffffffffffffffffffffffffffffff16815260200190815260200160002054611a5890919063ffffffff16565b600160008573ffffffffffffffffffffffffffffffffffffffff1673ffffffffffffffffffffffffffffffffffffffff168152602001908152602001600020819055508273ffffffffffffffffffffffffffffffffffffffff16600073ffffffffffffffffffffffffffffffffffffffff167fddf252ad1be2c89b69c2b068fc378daa952ba7f163c4a11628f55a4df523b3ef836040516123109190612eba565b60405180910390a3505b60005461233282600354611a5890919063ffffffff16565b1161245a576123436000838361260e565b61235881600354611a5890919063ffffffff16565b6003819055506123b081600160008573ffffffffffffffffffffffffffffffffffffffff1673ffffffffffffffffffffffffffffffffffffffff16815260200190815260200160002054611a5890919063ffffffff16565b600160008473ffffffffffffffffffffffffffffffffffffffff1673ffffffffffffffffffffffffffffffffffffffff168152602001908152602001600020819055508173ffffffffffffffffffffffffffffffffffffffff16600073ffffffffffffffffffffffffffffffffffffffff167fddf252ad1be2c89b69c2b068fc378daa952ba7f163c4a11628f55a4df523b3ef836040516124519190612eba565b60405180910390a35b5050565b600073ffffffffffffffffffffffffffffffffffffffff168273ffffffffffffffffffffffffffffffffffffffff1614156124ce576040517f08c379a00000000000000000000000000000000000000000000000000000000081526004016124c590612e1a565b60405180910390fd5b6124da8260008361260e565b6125468160405180606001604052806022815260200161365f60229139600160008673ffffffffffffffffffffffffffffffffffffffff1673ffffffffffffffffffffffffffffffffffffffff16815260200190815260200160002054611f6c9092919063ffffffff16565b600160008473ffffffffffffffffffffffffffffffffffffffff1673ffffffffffffffffffffffffffffffffffffffff1681526020019081526020016000208190555061259e81600354611ab690919063ffffffff16565b600381905550600073ffffffffffffffffffffffffffffffffffffffff168273ffffffffffffffffffffffffffffffffffffffff167fddf252ad1be2c89b69c2b068fc378daa952ba7f163c4a11628f55a4df523b3ef836040516126029190612eba565b60405180910390a35050565b505050565b6000808311829061265a576040517f08c379a00000000000000000000000000000000000000000000000000000000081526004016126519190612cd8565b60405180910390fd5b5060008385612669919061302c565b9050809150509392505050565b60008135905061268581613602565b92915050565b60008151905061269a81613602565b92915050565b6000813590506126af81613619565b92915050565b6000815190506126c481613630565b92915050565b6000813590506126d981613647565b92915050565b6000815190506126ee81613647565b92915050565b60006020828403121561270a5761270961327e565b5b600061271884828501612676565b91505092915050565b6000602082840312156127375761273661327e565b5b60006127458482850161268b565b91505092915050565b6000602082840312156127645761276361327e565b5b6000612772848285016126a0565b91505092915050565b600080604083850312156127925761279161327e565b5b60006127a085828601612676565b92505060206127b185828601612676565b9150509250929050565b6000806000606084860312156127d4576127d361327e565b5b60006127e286828701612676565b93505060206127f386828701612676565b9250506040612804868287016126ca565b9150509250925092565b600080604083850312156128255761282461327e565b5b600061283385828601612676565b9250506020612844858286016126ca565b9150509250929050565b6000602082840312156128645761286361327e565b5b6000612872848285016126b5565b91505092915050565b6000602082840312156128915761289061327e565b5b600061289f848285016126ca565b91505092915050565b6000806000606084860312156128c1576128c061327e565b5b60006128cf868287016126df565b93505060206128e0868287016126df565b92505060406128f1868287016126df565b9150509250925092565b60006129078383612913565b60208301905092915050565b61291c81613091565b82525050565b61292b81613091565b82525050565b600061293c82612f91565b6129468185612fb4565b935061295183612f81565b8060005b8381101561298257815161296988826128fb565b975061297483612fa7565b925050600181019050612955565b5085935050505092915050565b612998816130b5565b82525050565b6129a7816130f8565b82525050565b6129b68161311c565b82525050565b60006129c782612f9c565b6129d18185612fc5565b93506129e181856020860161312e565b6129ea81613283565b840191505092915050565b6000612a02602383612fc5565b9150612a0d82613294565b604082019050919050565b6000612a25602483612fc5565b9150612a30826132e3565b604082019050919050565b6000612a48602683612fc5565b9150612a5382613332565b604082019050919050565b6000612a6b602283612fc5565b9150612a7682613381565b604082019050919050565b6000612a8e601383612fc5565b9150612a99826133d0565b602082019050919050565b6000612ab1601b83612fc5565b9150612abc826133f9565b602082019050919050565b6000612ad4600e83612fc5565b9150612adf82613422565b602082019050919050565b6000612af7602483612fc5565b9150612b028261344b565b604082019050919050565b6000612b1a602083612fc5565b9150612b258261349a565b602082019050919050565b6000612b3d602183612fc5565b9150612b48826134c3565b604082019050919050565b6000612b60602583612fc5565b9150612b6b82613512565b604082019050919050565b6000612b83602483612fc5565b9150612b8e82613561565b604082019050919050565b6000612ba6601683612fc5565b9150612bb1826135b0565b602082019050919050565b6000612bc9601f83612fc5565b9150612bd4826135d9565b602082019050919050565b612be8816130e1565b82525050565b612bf7816130eb565b82525050565b6000602082019050612c126000830184612922565b92915050565b6000604082019050612c2d6000830185612922565b612c3a6020830184612bdf565b9392505050565b600060c082019050612c566000830189612922565b612c636020830188612bdf565b612c7060408301876129ad565b612c7d60608301866129ad565b612c8a6080830185612922565b612c9760a0830184612bdf565b979650505050505050565b6000602082019050612cb7600083018461298f565b92915050565b6000602082019050612cd2600083018461299e565b92915050565b60006020820190508181036000830152612cf281846129bc565b905092915050565b60006020820190508181036000830152612d13816129f5565b9050919050565b60006020820190508181036000830152612d3381612a18565b9050919050565b60006020820190508181036000830152612d5381612a3b565b9050919050565b60006020820190508181036000830152612d7381612a5e565b9050919050565b60006020820190508181036000830152612d9381612a81565b9050919050565b60006020820190508181036000830152612db381612aa4565b9050919050565b60006020820190508181036000830152612dd381612ac7565b9050919050565b60006020820190508181036000830152612df381612aea565b9050919050565b60006020820190508181036000830152612e1381612b0d565b9050919050565b60006020820190508181036000830152612e3381612b30565b9050919050565b60006020820190508181036000830152612e5381612b53565b9050919050565b60006020820190508181036000830152612e7381612b76565b9050919050565b60006020820190508181036000830152612e9381612b99565b9050919050565b60006020820190508181036000830152612eb381612bbc565b9050919050565b6000602082019050612ecf6000830184612bdf565b92915050565b600060a082019050612eea6000830188612bdf565b612ef760208301876129ad565b8181036040830152612f098186612931565b9050612f186060830185612922565b612f256080830184612bdf565b9695505050505050565b6000606082019050612f446000830186612bdf565b612f516020830185612bdf565b612f5e6040830184612bdf565b949350505050565b6000602082019050612f7b6000830184612bee565b92915050565b6000819050602082019050919050565b600081519050919050565b600081519050919050565b6000602082019050919050565b600082825260208201905092915050565b600082825260208201905092915050565b6000612fe1826130e1565b9150612fec836130e1565b9250827fffffffffffffffffffffffffffffffffffffffffffffffffffffffffffffffff0382111561302157613020613193565b5b828201905092915050565b6000613037826130e1565b9150613042836130e1565b925082613052576130516131c2565b5b828204905092915050565b6000613068826130e1565b9150613073836130e1565b92508282101561308657613085613193565b5b828203905092915050565b600061309c826130c1565b9050919050565b60006130ae826130c1565b9050919050565b60008115159050919050565b600073ffffffffffffffffffffffffffffffffffffffff82169050919050565b6000819050919050565b600060ff82169050919050565b60006131038261310a565b9050919050565b6000613115826130c1565b9050919050565b6000613127826130e1565b9050919050565b60005b8381101561314c578082015181840152602081019050613131565b8381111561315b576000848401525b50505050565b6000600282049050600182168061317957607f821691505b6020821081141561318d5761318c6131f1565b5b50919050565b7f4e487b7100000000000000000000000000000000000000000000000000000000600052601160045260246000fd5b7f4e487b7100000000000000000000000000000000000000000000000000000000600052601260045260246000fd5b7f4e487b7100000000000000000000000000000000000000000000000000000000600052602260045260246000fd5b7f4e487b7100000000000000000000000000000000000000000000000000000000600052603260045260246000fd5b7f4e487b7100000000000000000000000000000000000000000000000000000000600052604160045260246000fd5b600080fd5b6000601f19601f8301169050919050565b7f45524332303a207472616e7366657220746f20746865207a65726f206164647260008201527f6573730000000000000000000000000000000000000000000000000000000000602082015250565b7f45524332303a20616d6f756e74206d757374206265206772656174657220746860008201527f616e203000000000000000000000000000000000000000000000000000000000602082015250565b7f4f776e61626c653a206e6577206f776e657220697320746865207a65726f206160008201527f6464726573730000000000000000000000000000000000000000000000000000602082015250565b7f45524332303a20617070726f766520746f20746865207a65726f20616464726560008201527f7373000000000000000000000000000000000000000000000000000000000000602082015250565b7f45524332303a204e6f206d6f7265206d696e7400000000000000000000000000600082015250565b7f536166654d6174683a206164646974696f6e206f766572666c6f770000000000600082015250565b7f4e6f206d6f7265206d696e746572000000000000000000000000000000000000600082015250565b7f45524332303a20726563697069656e7420697320746865207a65726f2061646460008201527f7265737300000000000000000000000000000000000000000000000000000000602082015250565b7f4f776e61626c653a2063616c6c6572206973206e6f7420746865206f776e6572600082015250565b7f45524332303a206275726e2066726f6d20746865207a65726f2061646472657360008201527f7300000000000000000000000000000000000000000000000000000000000000602082015250565b7f45524332303a207472616e736665722066726f6d20746865207a65726f20616460008201527f6472657373000000000000000000000000000000000000000000000000000000602082015250565b7f45524332303a20617070726f76652066726f6d20746865207a65726f2061646460008201527f7265737300000000000000000000000000000000000000000000000000000000602082015250565b7f5265737472696374656420746f206d696e746572732e00000000000000000000600082015250565b7f45524332303a206d696e7420746f20746865207a65726f206164647265737300600082015250565b61360b81613091565b811461361657600080fd5b50565b613622816130a3565b811461362d57600080fd5b50565b613639816130b5565b811461364457600080fd5b50565b613650816130e1565b811461365b57600080fd5b5056fe45524332303a206275726e20616d6f756e7420657863656564732062616c616e636545524332303a207472616e7366657220616d6f756e7420657863656564732062616c616e636545524332303a207472616e7366657220616d6f756e74206578636565647320616c6c6f77616e636545524332303a2064656372656173656420616c6c6f77616e63652062656c6f77207a65726fa2646970667358221220e4f63fe2dfa3df71dce716ba5ae46aede44a280aa6c33b7a629059f94666dfd364736f6c63430008050033"
  }
}