{"compiler":"v0.7.6+commit.7338295f","opcodeHash":"0x6cf6d1683f4fb0c238eeeeeb651b183af7f80f3751f24dbac13861dc99aebc15","metalessHash":"0xa7fed167dfd0d155067efa34a57bf0e116d05b112ee4451568010384c81f2d24","runtimeHash":"0x026f887af22f3d12fe2d25893d6b13bc8ff8bcd2ee514cb738ad2f62b9b46df6","encodedMetadata":[{"ipfs":"/ipfs/QmYEuXRSPmYkuJfR9Qtb48njgTFiKYw1G1FwUa5DJcJCwx","solc":"0.7.6"}],"abi":[{"inputs":[],"stateMutability":"nonpayable","type":"constructor"},{"inputs":[{"internalType":"contract IERC20","name":"_token","type":"address"},{"internalType":"address","name":"_spender","type":"address"},{"internalType":"uint256","name":"_value","type":"uint256"}],"name":"allowance","outputs":[],"stateMutability":"nonpayable","type":"function"},{"inputs":[{"internalType":"address","name":"tokenIn","type":"address"},{"internalType":"address","name":"tokenOut","type":"address"},{"internalType":"uint24","name":"fee","type":"uint24"},{"internalType":"uint256","name":"amountIn","type":"uint256"},{"internalType":"uint256","name":"amountOutMinimum","type":"uint256"},{"internalType":"address","name":"recipient","type":"address"},{"internalType":"uint256","name":"deadline","type":"uint256"}],"name":"exactInputSingleByEth","outputs":[],"stateMutability":"payable","type":"function"},{"inputs":[],"name":"owner","outputs":[{"internalType":"address payable","name":"","type":"address"}],"stateMutability":"view","type":"function"},{"inputs":[{"internalType":"address","name":"_newOwner","type":"address"},{"internalType":"bool","name":"_can","type":"bool"}],"name":"setAddressCall","outputs":[],"stateMutability":"nonpayable","type":"function"},{"inputs":[{"internalType":"uint256","name":"_amount","type":"uint256"}],"name":"toWithdrawEth","outputs":[],"stateMutability":"nonpayable","type":"function"},{"inputs":[{"internalType":"contract IERC20","name":"_token","type":"address"},{"internalType":"address","name":"_to","type":"address"},{"internalType":"uint256","name":"_amount","type":"uint256"}],"name":"toWithdrawTokens2","outputs":[],"stateMutability":"nonpayable","type":"function"},{"inputs":[],"name":"uniswapRouter","outputs":[{"internalType":"contract ISwapRouter","name":"","type":"address"}],"stateMutability":"view","type":"function"},{"stateMutability":"payable","type":"receive"}],"bytecode":{"object":"608060405234801561001057600080fd5b50336000806101000a81548173ffffffffffffffffffffffffffffffffffffffff021916908373ffffffffffffffffffffffffffffffffffffffff16021790555060018060003373ffffffffffffffffffffffffffffffffffffffff1673ffffffffffffffffffffffffffffffffffffffff16815260200190815260200160002060006101000a81548160ff021916908315150217905550610c26806100b76000396000f3fe6080604052600436106100745760003560e01c80635d8b72db1161004e5780635d8b72db146100fb5780636949e88214610117578063735de9f7146101405780638da5cb5b1461016b5761007b565b80630368fb7614610080578063416669ed146100a9578063598af9e7146100d25761007b565b3661007b57005b600080fd5b34801561008c57600080fd5b506100a760048036038101906100a29190610837565b610196565b005b3480156100b557600080fd5b506100d060048036038101906100cb9190610886565b61027e565b005b3480156100de57600080fd5b506100f960048036038101906100f49190610837565b61033d565b005b61011560048036038101906101109190610734565b61042a565b005b34801561012357600080fd5b5061013e600480360381019061013991906107d2565b6105b5565b005b34801561014c57600080fd5b50610155610665565b6040516101629190610a76565b60405180910390f35b34801561017757600080fd5b5061018061067d565b60405161018d9190610a32565b60405180910390f35b60008054906101000a900473ffffffffffffffffffffffffffffffffffffffff1673ffffffffffffffffffffffffffffffffffffffff163373ffffffffffffffffffffffffffffffffffffffff16146101eb57fe5b8273ffffffffffffffffffffffffffffffffffffffff1663a9059cbb83836040518363ffffffff1660e01b8152600401610226929190610a4d565b602060405180830381600087803b15801561024057600080fd5b505af1158015610254573d6000803e3d6000fd5b505050506040513d601f19601f82011682018060405250810190610278919061080e565b50505050565b60008054906101000a900473ffffffffffffffffffffffffffffffffffffffff1673ffffffffffffffffffffffffffffffffffffffff163373ffffffffffffffffffffffffffffffffffffffff16146102d357fe5b60008054906101000a900473ffffffffffffffffffffffffffffffffffffffff1673ffffffffffffffffffffffffffffffffffffffff166108fc829081150290604051600060405180830381858888f19350505050158015610339573d6000803e3d6000fd5b5050565b60008054906101000a900473ffffffffffffffffffffffffffffffffffffffff1673ffffffffffffffffffffffffffffffffffffffff163373ffffffffffffffffffffffffffffffffffffffff161461039257fe5b8273ffffffffffffffffffffffffffffffffffffffff1663095ea7b383836040518363ffffffff1660e01b81526004016103cd929190610a4d565b602060405180830381600087803b1580156103e757600080fd5b505af11580156103fb573d6000803e3d6000fd5b505050506040513d601f19601f8201168201806040525081019061041f919061080e565b61042557fe5b505050565b6000341161046d576040517f08c379a000000000000000000000000000000000000000000000000000000000815260040161046490610a91565b60405180910390fd5b6000806040518061010001604052808a73ffffffffffffffffffffffffffffffffffffffff1681526020018973ffffffffffffffffffffffffffffffffffffffff1681526020018862ffffff1681526020018573ffffffffffffffffffffffffffffffffffffffff1681526020018481526020018781526020018681526020018373ffffffffffffffffffffffffffffffffffffffff16815250905073e592427a0aece92de3edee1f18e0157c0586156473ffffffffffffffffffffffffffffffffffffffff1663414bf38934836040518363ffffffff1660e01b81526004016105579190610ab1565b6020604051808303818588803b15801561057057600080fd5b505af1158015610584573d6000803e3d6000fd5b50505050506040513d601f19601f820116820180604052508101906105a991906108af565b50505050505050505050565b60008054906101000a900473ffffffffffffffffffffffffffffffffffffffff1673ffffffffffffffffffffffffffffffffffffffff163373ffffffffffffffffffffffffffffffffffffffff161461060a57fe5b80600160008473ffffffffffffffffffffffffffffffffffffffff1673ffffffffffffffffffffffffffffffffffffffff16815260200190815260200160002060006101000a81548160ff0219169083151502179055505050565b73e592427a0aece92de3edee1f18e0157c0586156481565b60008054906101000a900473ffffffffffffffffffffffffffffffffffffffff1681565b6000813590506106b081610b7d565b92915050565b6000813590506106c581610b94565b92915050565b6000815190506106da81610b94565b92915050565b6000813590506106ef81610bab565b92915050565b60008135905061070481610bc2565b92915050565b60008135905061071981610bd9565b92915050565b60008151905061072e81610bd9565b92915050565b600080600080600080600060e0888a03121561074f57600080fd5b600061075d8a828b016106a1565b975050602061076e8a828b016106a1565b965050604061077f8a828b016106f5565b95505060606107908a828b0161070a565b94505060806107a18a828b0161070a565b93505060a06107b28a828b016106a1565b92505060c06107c38a828b0161070a565b91505092959891949750929550565b600080604083850312156107e557600080fd5b60006107f3858286016106a1565b9250506020610804858286016106b6565b9150509250929050565b60006020828403121561082057600080fd5b600061082e848285016106cb565b91505092915050565b60008060006060848603121561084c57600080fd5b600061085a868287016106e0565b935050602061086b868287016106a1565b925050604061087c8682870161070a565b9150509250925092565b60006020828403121561089857600080fd5b60006108a68482850161070a565b91505092915050565b6000602082840312156108c157600080fd5b60006108cf8482850161071f565b91505092915050565b6108e181610af0565b82525050565b6108f081610ade565b82525050565b6108ff81610ade565b82525050565b61090e81610b59565b82525050565b6000610921601a83610acd565b91507f4d7573742070617373206e6f6e20302045544820616d6f756e740000000000006000830152602082019050919050565b6101008201600082015161096b60008501826108e7565b50602082015161097e60208501826108e7565b5060408201516109916040850182610a05565b5060608201516109a460608501826108e7565b5060808201516109b76080850182610a14565b5060a08201516109ca60a0850182610a14565b5060c08201516109dd60c0850182610a14565b5060e08201516109f060e08501826109f6565b50505050565b6109ff81610b20565b82525050565b610a0e81610b40565b82525050565b610a1d81610b4f565b82525050565b610a2c81610b4f565b82525050565b6000602082019050610a4760008301846108d8565b92915050565b6000604082019050610a6260008301856108f6565b610a6f6020830184610a23565b9392505050565b6000602082019050610a8b6000830184610905565b92915050565b60006020820190508181036000830152610aaa81610914565b9050919050565b600061010082019050610ac76000830184610954565b92915050565b600082825260208201905092915050565b6000610ae982610b20565b9050919050565b6000610afb82610b20565b9050919050565b60008115159050919050565b6000610b1982610ade565b9050919050565b600073ffffffffffffffffffffffffffffffffffffffff82169050919050565b600062ffffff82169050919050565b6000819050919050565b6000610b6482610b6b565b9050919050565b6000610b7682610b20565b9050919050565b610b8681610ade565b8114610b9157600080fd5b50565b610b9d81610b02565b8114610ba857600080fd5b50565b610bb481610b0e565b8114610bbf57600080fd5b50565b610bcb81610b40565b8114610bd657600080fd5b50565b610be281610b4f565b8114610bed57600080fd5b5056fea264697066735822122029ba58df29bd2b3f01c5a8ea7cd4215ebbc7756b8b97897098fd2bce82aed47e64736f6c63430007060033"}}