{
  "opcodeHash": "0x1b7122d59e59fc16738ce74a87877c676353659627f4e6f82695f622c31d055a",
  "metalessHash": "0xf857804891686761e4f7ac274bd9e7414f6da483da7db752073e5048c252843b",
  "runtimeHash": "0x0cdef3f7a6c2503c1452d608e5659c8772cc9da8d9a8a1173e3a2945c36c6e12",
  "encodedMetadata": [
    {
      "ipfs": "/ipfs/QmXDo7rPbryA72o8Rqk4ERGNh5o7LsJ7TsrgCFU1betvvK",
      "solc": "0.8.4"
    }
  ],
  "abi": [
    {
      "inputs": [
        {
          "internalType": "address",
          "name": "account",
          "type": "address"
        },
        {
          "internalType": "address",
          "name": "minter_",
          "type": "address"
        }
      ],
      "stateMutability": "nonpayable",
      "type": "constructor"
    },
    {
      "anonymous": false,
      "inputs": [
        {
          "indexed": true,
          "internalType": "address",
          "name": "owner",
          "type": "address"
        },
        {
          "indexed": true,
          "internalType": "address",
          "name": "spender",
          "type": "address"
        },
        {
          "indexed": false,
          "internalType": "uint256",
          "name": "value",
          "type": "uint256"
        }
      ],
      "name": "Approval",
      "type": "event"
    },
    {
      "anonymous": false,
      "inputs": [
        {
          "indexed": true,
          "internalType": "address",
          "name": "delegator",
          "type": "address"
        },
        {
          "indexed": true,
          "internalType": "address",
          "name": "fromDelegate",
          "type": "address"
        },
        {
          "indexed": true,
          "internalType": "address",
          "name": "toDelegate",
          "type": "address"
        }
      ],
      "name": "DelegateChanged",
      "type": "event"
    },
    {
      "anonymous": false,
      "inputs": [
        {
          "indexed": true,
          "internalType": "address",
          "name": "delegate",
          "type": "address"
        },
        {
          "indexed": false,
          "internalType": "uint256",
          "name": "previousBalance",
          "type": "uint256"
        },
        {
          "indexed": false,
          "internalType": "uint256",
          "name": "newBalance",
          "type": "uint256"
        }
      ],
      "name": "DelegateVotesChanged",
      "type": "event"
    },
    {
      "anonymous": false,
      "inputs": [
        {
          "indexed": false,
          "internalType": "address",
          "name": "minter",
          "type": "address"
        },
        {
          "indexed": false,
          "internalType": "address",
          "name": "newMinter",
          "type": "address"
        }
      ],
      "name": "MinterChanged",
      "type": "event"
    },
    {
      "anonymous": false,
      "inputs": [
        {
          "indexed": true,
          "internalType": "address",
          "name": "from",
          "type": "address"
        },
        {
          "indexed": true,
          "internalType": "address",
          "name": "to",
          "type": "address"
        },
        {
          "indexed": false,
          "internalType": "uint256",
          "name": "value",
          "type": "uint256"
        }
      ],
      "name": "Transfer",
      "type": "event"
    },
    {
      "inputs": [],
      "name": "DELEGATION_TYPEHASH",
      "outputs": [
        {
          "internalType": "bytes32",
          "name": "",
          "type": "bytes32"
        }
      ],
      "stateMutability": "view",
      "type": "function"
    },
    {
      "inputs": [],
      "name": "DOMAIN_TYPEHASH",
      "outputs": [
        {
          "internalType": "bytes32",
          "name": "",
          "type": "bytes32"
        }
      ],
      "stateMutability": "view",
      "type": "function"
    },
    {
      "inputs": [],
      "name": "PERMIT_TYPEHASH",
      "outputs": [
        {
          "internalType": "bytes32",
          "name": "",
          "type": "bytes32"
        }
      ],
      "stateMutability": "view",
      "type": "function"
    },
    {
      "inputs": [
        {
          "internalType": "address",
          "name": "account",
          "type": "address"
        },
        {
          "internalType": "address",
          "name": "spender",
          "type": "address"
        }
      ],
      "name": "allowance",
      "outputs": [
        {
          "internalType": "uint256",
          "name": "",
          "type": "uint256"
        }
      ],
      "stateMutability": "view",
      "type": "function"
    },
    {
      "inputs": [
        {
          "internalType": "address",
          "name": "spender",
          "type": "address"
        },
        {
          "internalType": "uint256",
          "name": "rawAmount",
          "type": "uint256"
        }
      ],
      "name": "approve",
      "outputs": [
        {
          "internalType": "bool",
          "name": "",
          "type": "bool"
        }
      ],
      "stateMutability": "nonpayable",
      "type": "function"
    },
    {
      "inputs": [
        {
          "internalType": "address",
          "name": "account",
          "type": "address"
        }
      ],
      "name": "balanceOf",
      "outputs": [
        {
          "internalType": "uint256",
          "name": "",
          "type": "uint256"
        }
      ],
      "stateMutability": "view",
      "type": "function"
    },
    {
      "inputs": [
        {
          "internalType": "address",
          "name": "",
          "type": "address"
        },
        {
          "internalType": "uint32",
          "name": "",
          "type": "uint32"
        }
      ],
      "name": "checkpoints",
      "outputs": [
        {
          "internalType": "uint32",
          "name": "fromBlock",
          "type": "uint32"
        },
        {
          "internalType": "uint96",
          "name": "votes",
          "type": "uint96"
        }
      ],
      "stateMutability": "view",
      "type": "function"
    },
    {
      "inputs": [],
      "name": "decimals",
      "outputs": [
        {
          "internalType": "uint8",
          "name": "",
          "type": "uint8"
        }
      ],
      "stateMutability": "view",
      "type": "function"
    },
    {
      "inputs": [
        {
          "internalType": "address",
          "name": "delegatee",
          "type": "address"
        }
      ],
      "name": "delegate",
      "outputs": [],
      "stateMutability": "nonpayable",
      "type": "function"
    },
    {
      "inputs": [
        {
          "internalType": "address",
          "name": "delegatee",
          "type": "address"
        },
        {
          "internalType": "uint256",
          "name": "nonce",
          "type": "uint256"
        },
        {
          "internalType": "uint256",
          "name": "expiry",
          "type": "uint256"
        },
        {
          "internalType": "uint8",
          "name": "v",
          "type": "uint8"
        },
        {
          "internalType": "bytes32",
          "name": "r",
          "type": "bytes32"
        },
        {
          "internalType": "bytes32",
          "name": "s",
          "type": "bytes32"
        }
      ],
      "name": "delegateBySig",
      "outputs": [],
      "stateMutability": "nonpayable",
      "type": "function"
    },
    {
      "inputs": [
        {
          "internalType": "address",
          "name": "",
          "type": "address"
        }
      ],
      "name": "delegates",
      "outputs": [
        {
          "internalType": "address",
          "name": "",
          "type": "address"
        }
      ],
      "stateMutability": "view",
      "type": "function"
    },
    {
      "inputs": [
        {
          "internalType": "address",
          "name": "account",
          "type": "address"
        }
      ],
      "name": "getCurrentVotes",
      "outputs": [
        {
          "internalType": "uint96",
          "name": "",
          "type": "uint96"
        }
      ],
      "stateMutability": "view",
      "type": "function"
    },
    {
      "inputs": [
        {
          "internalType": "address",
          "name": "account",
          "type": "address"
        },
        {
          "internalType": "uint256",
          "name": "blockNumber",
          "type": "uint256"
        }
      ],
      "name": "getPriorVotes",
      "outputs": [
        {
          "internalType": "uint96",
          "name": "",
          "type": "uint96"
        }
      ],
      "stateMutability": "view",
      "type": "function"
    },
    {
      "inputs": [
        {
          "internalType": "address",
          "name": "dst",
          "type": "address"
        },
        {
          "internalType": "uint256",
          "name": "rawAmount",
          "type": "uint256"
        }
      ],
      "name": "mint",
      "outputs": [],
      "stateMutability": "nonpayable",
      "type": "function"
    },
    {
      "inputs": [],
      "name": "minter",
      "outputs": [
        {
          "internalType": "address",
          "name": "",
          "type": "address"
        }
      ],
      "stateMutability": "view",
      "type": "function"
    },
    {
      "inputs": [],
      "name": "name",
      "outputs": [
        {
          "internalType": "string",
          "name": "",
          "type": "string"
        }
      ],
      "stateMutability": "view",
      "type": "function"
    },
    {
      "inputs": [
        {
          "internalType": "address",
          "name": "",
          "type": "address"
        }
      ],
      "name": "nonces",
      "outputs": [
        {
          "internalType": "uint256",
          "name": "",
          "type": "uint256"
        }
      ],
      "stateMutability": "view",
      "type": "function"
    },
    {
      "inputs": [
        {
          "internalType": "address",
          "name": "",
          "type": "address"
        }
      ],
      "name": "numCheckpoints",
      "outputs": [
        {
          "internalType": "uint32",
          "name": "",
          "type": "uint32"
        }
      ],
      "stateMutability": "view",
      "type": "function"
    },
    {
      "inputs": [
        {
          "internalType": "address",
          "name": "owner",
          "type": "address"
        },
        {
          "internalType": "address",
          "name": "spender",
          "type": "address"
        },
        {
          "internalType": "uint256",
          "name": "rawAmount",
          "type": "uint256"
        },
        {
          "internalType": "uint256",
          "name": "deadline",
          "type": "uint256"
        },
        {
          "internalType": "uint8",
          "name": "v",
          "type": "uint8"
        },
        {
          "internalType": "bytes32",
          "name": "r",
          "type": "bytes32"
        },
        {
          "internalType": "bytes32",
          "name": "s",
          "type": "bytes32"
        }
      ],
      "name": "permit",
      "outputs": [],
      "stateMutability": "nonpayable",
      "type": "function"
    },
    {
      "inputs": [
        {
          "internalType": "address",
          "name": "minter_",
          "type": "address"
        }
      ],
      "name": "setMinter",
      "outputs": [],
      "stateMutability": "nonpayable",
      "type": "function"
    },
    {
      "inputs": [],
      "name": "symbol",
      "outputs": [
        {
          "internalType": "string",
          "name": "",
          "type": "string"
        }
      ],
      "stateMutability": "view",
      "type": "function"
    },
    {
      "inputs": [],
      "name": "totalSupply",
      "outputs": [
        {
          "internalType": "uint256",
          "name": "",
          "type": "uint256"
        }
      ],
      "stateMutability": "view",
      "type": "function"
    },
    {
      "inputs": [
        {
          "internalType": "address",
          "name": "dst",
          "type": "address"
        },
        {
          "internalType": "uint256",
          "name": "rawAmount",
          "type": "uint256"
        }
      ],
      "name": "transfer",
      "outputs": [
        {
          "internalType": "bool",
          "name": "",
          "type": "bool"
        }
      ],
      "stateMutability": "nonpayable",
      "type": "function"
    },
    {
      "inputs": [
        {
          "internalType": "address",
          "name": "src",
          "type": "address"
        },
        {
          "internalType": "address",
          "name": "dst",
          "type": "address"
        },
        {
          "internalType": "uint256",
          "name": "rawAmount",
          "type": "uint256"
        }
      ],
      "name": "transferFrom",
      "outputs": [
        {
          "internalType": "bool",
          "name": "",
          "type": "bool"
        }
      ],
      "stateMutability": "nonpayable",
      "type": "function"
    }
  ],
  "bytecode": {
    "object": "60806040526b019d971e4fe8401e740000006000553480156200002157600080fd5b5060405162003d3038038062003d308339818101604052810190620000479190620001df565b600054600360008473ffffffffffffffffffffffffffffffffffffffff1673ffffffffffffffffffffffffffffffffffffffff16815260200190815260200160002060006101000a8154816bffffffffffffffffffffffff02191690836bffffffffffffffffffffffff1602179055508173ffffffffffffffffffffffffffffffffffffffff16600073ffffffffffffffffffffffffffffffffffffffff167fddf252ad1be2c89b69c2b068fc378daa952ba7f163c4a11628f55a4df523b3ef6000546040516200011991906200026f565b60405180910390a380600160006101000a81548173ffffffffffffffffffffffffffffffffffffffff021916908373ffffffffffffffffffffffffffffffffffffffff1602179055507f3b0007eb941cf645526cbb3a4fdaecda9d28ce4843167d9263b536a1f1edc0f66000600160009054906101000a900473ffffffffffffffffffffffffffffffffffffffff16604051620001b892919062000242565b60405180910390a15050620002e4565b600081519050620001d981620002ca565b92915050565b60008060408385031215620001f357600080fd5b60006200020385828601620001c8565b92505060206200021685828601620001c8565b9150509250929050565b6200022b816200028c565b82525050565b6200023c81620002c0565b82525050565b600060408201905062000259600083018562000220565b62000268602083018462000220565b9392505050565b600060208201905062000286600083018462000231565b92915050565b60006200029982620002a0565b9050919050565b600073ffffffffffffffffffffffffffffffffffffffff82169050919050565b6000819050919050565b620002d5816200028c565b8114620002e157600080fd5b50565b613a3c80620002f46000396000f3fe608060405234801561001057600080fd5b50600436106101585760003560e01c806370a08231116100c3578063c3cda5201161007c578063c3cda52014610417578063d505accf14610433578063dd62ed3e1461044f578063e7a324dc1461047f578063f1127ed81461049d578063fca3b5aa146104ce57610158565b806370a0823114610309578063782d6fe1146103395780637ecebe001461036957806395d89b4114610399578063a9059cbb146103b7578063b4b5ea57146103e757610158565b806330adf81f1161011557806330adf81f14610235578063313ce5671461025357806340c10f1914610271578063587cde1e1461028d5780635c19a95c146102bd5780636fcfff45146102d957610158565b806306fdde031461015d578063075461721461017b578063095ea7b31461019957806318160ddd146101c957806320606b70146101e757806323b872dd14610205575b600080fd5b6101656104ea565b60405161017291906131e2565b60405180910390f35b610183610523565b6040516101909190613038565b60405180910390f35b6101b360048036038101906101ae9190612cda565b610549565b6040516101c0919061307c565b60405180910390f35b6101d16106e5565b6040516101de9190613324565b60405180910390f35b6101ef6106eb565b6040516101fc9190613097565b60405180910390f35b61021f600480360381019061021a9190612bed565b61070f565b60405161022c919061307c565b60405180910390f35b61023d6109a0565b60405161024a9190613097565b60405180910390f35b61025b6109c4565b6040516102689190613383565b60405180910390f35b61028b60048036038101906102869190612cda565b6109c9565b005b6102a760048036038101906102a29190612b88565b610d29565b6040516102b49190613038565b60405180910390f35b6102d760048036038101906102d29190612b88565b610d5c565b005b6102f360048036038101906102ee9190612b88565b610d69565b604051610300919061333f565b60405180910390f35b610323600480360381019061031e9190612b88565b610d8c565b6040516103309190613324565b60405180910390f35b610353600480360381019061034e9190612cda565b610dfb565b60405161036091906133b9565b60405180910390f35b610383600480360381019061037e9190612b88565b611236565b6040516103909190613324565b60405180910390f35b6103a161124e565b6040516103ae91906131e2565b60405180910390f35b6103d160048036038101906103cc9190612cda565b611287565b6040516103de919061307c565b60405180910390f35b61040160048036038101906103fc9190612b88565b6112e1565b60405161040e91906133b9565b60405180910390f35b610431600480360381019061042c9190612d16565b6113d8565b005b61044d60048036038101906104489190612c3c565b61169b565b005b61046960048036038101906104649190612bb1565b611b16565b6040516104769190613324565b60405180910390f35b610487611bc3565b6040516104949190613097565b60405180910390f35b6104b760048036038101906104b29190612d9f565b611be7565b6040516104c592919061335a565b60405180910390f35b6104e860048036038101906104e39190612b88565b611c40565b005b6040518060400160405280600e81526020017f705354414b452046696e616e636500000000000000000000000000000000000081525081565b600160009054906101000a900473ffffffffffffffffffffffffffffffffffffffff1681565b6000807fffffffffffffffffffffffffffffffffffffffffffffffffffffffffffffffff831415610588576bffffffffffffffffffffffff90506105ca565b6105c7836040518060400160405280601e81526020017f705374616b653a20616d6f756e74206578636565647320393620626974730000815250611d6f565b90505b80600260003373ffffffffffffffffffffffffffffffffffffffff1673ffffffffffffffffffffffffffffffffffffffff16815260200190815260200160002060008673ffffffffffffffffffffffffffffffffffffffff1673ffffffffffffffffffffffffffffffffffffffff16815260200190815260200160002060006101000a8154816bffffffffffffffffffffffff02191690836bffffffffffffffffffffffff1602179055508373ffffffffffffffffffffffffffffffffffffffff163373ffffffffffffffffffffffffffffffffffffffff167f8c5be1e5ebec7d5bd14f71427d1e84f3dd0314c0f7b2291e5b200ac8c7c3b925836040516106d2919061339e565b60405180910390a3600191505092915050565b60005481565b7f8cad95687ba82c2ce50e74f7b754645e5117c3a5bec8151c0726d5857980a86681565b6000803390506000600260008773ffffffffffffffffffffffffffffffffffffffff1673ffffffffffffffffffffffffffffffffffffffff16815260200190815260200160002060008373ffffffffffffffffffffffffffffffffffffffff1673ffffffffffffffffffffffffffffffffffffffff16815260200190815260200160002060009054906101000a90046bffffffffffffffffffffffff16905060006107ef856040518060400160405280601e81526020017f705374616b653a20616d6f756e74206578636565647320393620626974730000815250611d6f565b90508673ffffffffffffffffffffffffffffffffffffffff168373ffffffffffffffffffffffffffffffffffffffff161415801561084957506bffffffffffffffffffffffff8016826bffffffffffffffffffffffff1614155b1561098757600061087383836040518060600160405280603181526020016139b260319139611dcd565b905080600260008a73ffffffffffffffffffffffffffffffffffffffff1673ffffffffffffffffffffffffffffffffffffffff16815260200190815260200160002060008673ffffffffffffffffffffffffffffffffffffffff1673ffffffffffffffffffffffffffffffffffffffff16815260200190815260200160002060006101000a8154816bffffffffffffffffffffffff02191690836bffffffffffffffffffffffff1602179055508373ffffffffffffffffffffffffffffffffffffffff168873ffffffffffffffffffffffffffffffffffffffff167f8c5be1e5ebec7d5bd14f71427d1e84f3dd0314c0f7b2291e5b200ac8c7c3b9258360405161097d919061339e565b60405180910390a3505b610992878783611e47565b600193505050509392505050565b7f6e71edae12b1b97f4d1f60370fef10105fa2faae0126114a169c64845d6126c981565b601281565b600160009054906101000a900473ffffffffffffffffffffffffffffffffffffffff1673ffffffffffffffffffffffffffffffffffffffff163373ffffffffffffffffffffffffffffffffffffffff1614610a59576040517f08c379a0000000000000000000000000000000000000000000000000000000008152600401610a50906132a4565b60405180910390fd5b600073ffffffffffffffffffffffffffffffffffffffff168273ffffffffffffffffffffffffffffffffffffffff161415610ac9576040517f08c379a0000000000000000000000000000000000000000000000000000000008152600401610ac090613264565b60405180910390fd5b6000610b0a826040518060400160405280601e81526020017f705374616b653a20616d6f756e74206578636565647320393620626974730000815250611d6f565b90506000610b3260005460405180606001604052806023815260200161398f60239139611d6f565b9050610b57818360405180606001604052806023815260200161398f60239139612228565b6bffffffffffffffffffffffff16600081905550610be5600360008673ffffffffffffffffffffffffffffffffffffffff1673ffffffffffffffffffffffffffffffffffffffff16815260200190815260200160002060009054906101000a90046bffffffffffffffffffffffff168360405180606001604052806021815260200161396e60219139612228565b600360008673ffffffffffffffffffffffffffffffffffffffff1673ffffffffffffffffffffffffffffffffffffffff16815260200190815260200160002060006101000a8154816bffffffffffffffffffffffff02191690836bffffffffffffffffffffffff1602179055508373ffffffffffffffffffffffffffffffffffffffff16600073ffffffffffffffffffffffffffffffffffffffff167fddf252ad1be2c89b69c2b068fc378daa952ba7f163c4a11628f55a4df523b3ef84604051610cb0919061339e565b60405180910390a3610d236000600460008773ffffffffffffffffffffffffffffffffffffffff1673ffffffffffffffffffffffffffffffffffffffff16815260200190815260200160002060009054906101000a900473ffffffffffffffffffffffffffffffffffffffff16846122a7565b50505050565b60046020528060005260406000206000915054906101000a900473ffffffffffffffffffffffffffffffffffffffff1681565b610d6633826125ee565b50565b60066020528060005260406000206000915054906101000a900463ffffffff1681565b6000600360008373ffffffffffffffffffffffffffffffffffffffff1673ffffffffffffffffffffffffffffffffffffffff16815260200190815260200160002060009054906101000a90046bffffffffffffffffffffffff166bffffffffffffffffffffffff169050919050565b6000438210610e3f576040517f08c379a0000000000000000000000000000000000000000000000000000000008152600401610e3690613224565b60405180910390fd5b6000600660008573ffffffffffffffffffffffffffffffffffffffff1673ffffffffffffffffffffffffffffffffffffffff16815260200190815260200160002060009054906101000a900463ffffffff16905060008163ffffffff161415610eac576000915050611230565b82600560008673ffffffffffffffffffffffffffffffffffffffff1673ffffffffffffffffffffffffffffffffffffffff1681526020019081526020016000206000600184610efb91906134d1565b63ffffffff1663ffffffff16815260200190815260200160002060000160009054906101000a900463ffffffff1663ffffffff1611610fc057600560008573ffffffffffffffffffffffffffffffffffffffff1673ffffffffffffffffffffffffffffffffffffffff1681526020019081526020016000206000600183610f8291906134d1565b63ffffffff1663ffffffff16815260200190815260200160002060000160049054906101000a90046bffffffffffffffffffffffff16915050611230565b82600560008673ffffffffffffffffffffffffffffffffffffffff1673ffffffffffffffffffffffffffffffffffffffff16815260200190815260200160002060008063ffffffff16815260200190815260200160002060000160009054906101000a900463ffffffff1663ffffffff161115611041576000915050611230565b60008060018361105191906134d1565b90505b8163ffffffff168163ffffffff1611156111b25760006002838361107891906134d1565b61108291906134a0565b8261108d91906134d1565b90506000600560008973ffffffffffffffffffffffffffffffffffffffff1673ffffffffffffffffffffffffffffffffffffffff16815260200190815260200160002060008363ffffffff1663ffffffff1681526020019081526020016000206040518060400160405290816000820160009054906101000a900463ffffffff1663ffffffff1663ffffffff1681526020016000820160049054906101000a90046bffffffffffffffffffffffff166bffffffffffffffffffffffff166bffffffffffffffffffffffff1681525050905086816000015163ffffffff16141561118157806020015195505050505050611230565b86816000015163ffffffff16101561119b578193506111ab565b6001826111a891906134d1565b92505b5050611054565b600560008773ffffffffffffffffffffffffffffffffffffffff1673ffffffffffffffffffffffffffffffffffffffff16815260200190815260200160002060008363ffffffff1663ffffffff16815260200190815260200160002060000160049054906101000a90046bffffffffffffffffffffffff1693505050505b92915050565b60076020528060005260406000206000915090505481565b6040518060400160405280600681526020017f505354414b45000000000000000000000000000000000000000000000000000081525081565b6000806112c9836040518060400160405280601e81526020017f705374616b653a20616d6f756e74206578636565647320393620626974730000815250611d6f565b90506112d6338583611e47565b600191505092915050565b600080600660008473ffffffffffffffffffffffffffffffffffffffff1673ffffffffffffffffffffffffffffffffffffffff16815260200190815260200160002060009054906101000a900463ffffffff16905060008163ffffffff161161134b5760006113d0565b600560008473ffffffffffffffffffffffffffffffffffffffff1673ffffffffffffffffffffffffffffffffffffffff168152602001908152602001600020600060018361139991906134d1565b63ffffffff1663ffffffff16815260200190815260200160002060000160049054906101000a90046bffffffffffffffffffffffff165b915050919050565b60007f8cad95687ba82c2ce50e74f7b754645e5117c3a5bec8151c0726d5857980a8666040518060400160405280600e81526020017f705354414b452046696e616e6365000000000000000000000000000000000000815250805190602001206114406127ae565b306040516020016114549493929190613158565b60405160208183030381529060405280519060200120905060007fe48329057bfd03d55e49b547132e39cffd9c1820ad7b9d4c5307691425d15adf8888886040516020016114a59493929190613113565b604051602081830303815290604052805190602001209050600082826040516020016114d2929190613001565b60405160208183030381529060405280519060200120905060006001828888886040516000815260200160405260405161150f949392919061319d565b6020604051602081039080840390855afa158015611531573d6000803e3d6000fd5b505050602060405103519050600073ffffffffffffffffffffffffffffffffffffffff168173ffffffffffffffffffffffffffffffffffffffff1614156115ad576040517f08c379a00000000000000000000000000000000000000000000000000000000081526004016115a4906132e4565b60405180910390fd5b600760008273ffffffffffffffffffffffffffffffffffffffff1673ffffffffffffffffffffffffffffffffffffffff16815260200190815260200160002060008154809291906115fd90613605565b919050558914611642576040517f08c379a000000000000000000000000000000000000000000000000000000000815260040161163990613244565b60405180910390fd5b87421115611685576040517f08c379a000000000000000000000000000000000000000000000000000000000815260040161167c90613304565b60405180910390fd5b61168f818b6125ee565b50505050505050505050565b60007fffffffffffffffffffffffffffffffffffffffffffffffffffffffffffffffff8614156116d9576bffffffffffffffffffffffff905061171b565b611718866040518060400160405280601e81526020017f705374616b653a20616d6f756e74206578636565647320393620626974730000815250611d6f565b90505b60007f8cad95687ba82c2ce50e74f7b754645e5117c3a5bec8151c0726d5857980a8666040518060400160405280600e81526020017f705354414b452046696e616e6365000000000000000000000000000000000000815250805190602001206117836127ae565b306040516020016117979493929190613158565b60405160208183030381529060405280519060200120905060007f6e71edae12b1b97f4d1f60370fef10105fa2faae0126114a169c64845d6126c98a8a8a600760008f73ffffffffffffffffffffffffffffffffffffffff1673ffffffffffffffffffffffffffffffffffffffff168152602001908152602001600020600081548092919061182590613605565b919050558b60405160200161183f969594939291906130b2565b6040516020818303038152906040528051906020012090506000828260405160200161186c929190613001565b6040516020818303038152906040528051906020012090506000600182898989604051600081526020016040526040516118a9949392919061319d565b6020604051602081039080840390855afa1580156118cb573d6000803e3d6000fd5b505050602060405103519050600073ffffffffffffffffffffffffffffffffffffffff168173ffffffffffffffffffffffffffffffffffffffff161415611947576040517f08c379a000000000000000000000000000000000000000000000000000000000815260040161193e906132e4565b60405180910390fd5b8b73ffffffffffffffffffffffffffffffffffffffff168173ffffffffffffffffffffffffffffffffffffffff16146119b5576040517f08c379a00000000000000000000000000000000000000000000000000000000081526004016119ac906132c4565b60405180910390fd5b884211156119f8576040517f08c379a00000000000000000000000000000000000000000000000000000000081526004016119ef90613304565b60405180910390fd5b84600260008e73ffffffffffffffffffffffffffffffffffffffff1673ffffffffffffffffffffffffffffffffffffffff16815260200190815260200160002060008d73ffffffffffffffffffffffffffffffffffffffff1673ffffffffffffffffffffffffffffffffffffffff16815260200190815260200160002060006101000a8154816bffffffffffffffffffffffff02191690836bffffffffffffffffffffffff1602179055508a73ffffffffffffffffffffffffffffffffffffffff168c73ffffffffffffffffffffffffffffffffffffffff167f8c5be1e5ebec7d5bd14f71427d1e84f3dd0314c0f7b2291e5b200ac8c7c3b92587604051611b00919061339e565b60405180910390a3505050505050505050505050565b6000600260008473ffffffffffffffffffffffffffffffffffffffff1673ffffffffffffffffffffffffffffffffffffffff16815260200190815260200160002060008373ffffffffffffffffffffffffffffffffffffffff1673ffffffffffffffffffffffffffffffffffffffff16815260200190815260200160002060009054906101000a90046bffffffffffffffffffffffff166bffffffffffffffffffffffff16905092915050565b7fe48329057bfd03d55e49b547132e39cffd9c1820ad7b9d4c5307691425d15adf81565b6005602052816000526040600020602052806000526040600020600091509150508060000160009054906101000a900463ffffffff16908060000160049054906101000a90046bffffffffffffffffffffffff16905082565b600160009054906101000a900473ffffffffffffffffffffffffffffffffffffffff1673ffffffffffffffffffffffffffffffffffffffff163373ffffffffffffffffffffffffffffffffffffffff1614611cd0576040517f08c379a0000000000000000000000000000000000000000000000000000000008152600401611cc790613204565b60405180910390fd5b7f3b0007eb941cf645526cbb3a4fdaecda9d28ce4843167d9263b536a1f1edc0f6600160009054906101000a900473ffffffffffffffffffffffffffffffffffffffff1682604051611d23929190613053565b60405180910390a180600160006101000a81548173ffffffffffffffffffffffffffffffffffffffff021916908373ffffffffffffffffffffffffffffffffffffffff16021790555050565b60006c0100000000000000000000000083108290611dc3576040517f08c379a0000000000000000000000000000000000000000000000000000000008152600401611dba91906131e2565b60405180910390fd5b5082905092915050565b6000836bffffffffffffffffffffffff16836bffffffffffffffffffffffff1611158290611e31576040517f08c379a0000000000000000000000000000000000000000000000000000000008152600401611e2891906131e2565b60405180910390fd5b508284611e3e9190613505565b90509392505050565b600073ffffffffffffffffffffffffffffffffffffffff168373ffffffffffffffffffffffffffffffffffffffff161415611eb7576040517f08c379a0000000000000000000000000000000000000000000000000000000008152600401611eae90613284565b60405180910390fd5b600073ffffffffffffffffffffffffffffffffffffffff168273ffffffffffffffffffffffffffffffffffffffff161415611f27576040517f08c379a0000000000000000000000000000000000000000000000000000000008152600401611f1e90613264565b60405180910390fd5b611fa1600360008573ffffffffffffffffffffffffffffffffffffffff1673ffffffffffffffffffffffffffffffffffffffff16815260200190815260200160002060009054906101000a90046bffffffffffffffffffffffff168260405180606001604052806027815260200161394760279139611dcd565b600360008573ffffffffffffffffffffffffffffffffffffffff1673ffffffffffffffffffffffffffffffffffffffff16815260200190815260200160002060006101000a8154816bffffffffffffffffffffffff02191690836bffffffffffffffffffffffff160217905550612088600360008473ffffffffffffffffffffffffffffffffffffffff1673ffffffffffffffffffffffffffffffffffffffff16815260200190815260200160002060009054906101000a90046bffffffffffffffffffffffff168260405180606001604052806021815260200161396e60219139612228565b600360008473ffffffffffffffffffffffffffffffffffffffff1673ffffffffffffffffffffffffffffffffffffffff16815260200190815260200160002060006101000a8154816bffffffffffffffffffffffff02191690836bffffffffffffffffffffffff1602179055508173ffffffffffffffffffffffffffffffffffffffff168373ffffffffffffffffffffffffffffffffffffffff167fddf252ad1be2c89b69c2b068fc378daa952ba7f163c4a11628f55a4df523b3ef83604051612152919061339e565b60405180910390a3612223600460008573ffffffffffffffffffffffffffffffffffffffff1673ffffffffffffffffffffffffffffffffffffffff16815260200190815260200160002060009054906101000a900473ffffffffffffffffffffffffffffffffffffffff16600460008573ffffffffffffffffffffffffffffffffffffffff1673ffffffffffffffffffffffffffffffffffffffff16815260200190815260200160002060009054906101000a900473ffffffffffffffffffffffffffffffffffffffff16836122a7565b505050565b6000808385612237919061345e565b9050846bffffffffffffffffffffffff16816bffffffffffffffffffffffff161015839061229b576040517f08c379a000000000000000000000000000000000000000000000000000000000815260040161229291906131e2565b60405180910390fd5b50809150509392505050565b8173ffffffffffffffffffffffffffffffffffffffff168373ffffffffffffffffffffffffffffffffffffffff16141580156122f157506000816bffffffffffffffffffffffff16115b156125e957600073ffffffffffffffffffffffffffffffffffffffff168373ffffffffffffffffffffffffffffffffffffffff161461246f576000600660008573ffffffffffffffffffffffffffffffffffffffff1673ffffffffffffffffffffffffffffffffffffffff16815260200190815260200160002060009054906101000a900463ffffffff1690506000808263ffffffff1611612394576000612419565b600560008673ffffffffffffffffffffffffffffffffffffffff1673ffffffffffffffffffffffffffffffffffffffff16815260200190815260200160002060006001846123e291906134d1565b63ffffffff1663ffffffff16815260200190815260200160002060000160049054906101000a90046bffffffffffffffffffffffff165b9050600061245d82856040518060400160405280601e81526020017f705374616b653a20766f746520616d6f756e7420756e646572666c6f77730000815250611dcd565b905061246b868484846127bb565b5050505b600073ffffffffffffffffffffffffffffffffffffffff168273ffffffffffffffffffffffffffffffffffffffff16146125e8576000600660008473ffffffffffffffffffffffffffffffffffffffff1673ffffffffffffffffffffffffffffffffffffffff16815260200190815260200160002060009054906101000a900463ffffffff1690506000808263ffffffff161161250d576000612592565b600560008573ffffffffffffffffffffffffffffffffffffffff1673ffffffffffffffffffffffffffffffffffffffff168152602001908152602001600020600060018461255b91906134d1565b63ffffffff1663ffffffff16815260200190815260200160002060000160049054906101000a90046bffffffffffffffffffffffff165b905060006125d682856040518060400160405280601d81526020017f705374616b653a20766f746520616d6f756e74206f766572666c6f7773000000815250612228565b90506125e4858484846127bb565b5050505b5b505050565b6000600460008473ffffffffffffffffffffffffffffffffffffffff1673ffffffffffffffffffffffffffffffffffffffff16815260200190815260200160002060009054906101000a900473ffffffffffffffffffffffffffffffffffffffff1690506000600360008573ffffffffffffffffffffffffffffffffffffffff1673ffffffffffffffffffffffffffffffffffffffff16815260200190815260200160002060009054906101000a90046bffffffffffffffffffffffff16905082600460008673ffffffffffffffffffffffffffffffffffffffff1673ffffffffffffffffffffffffffffffffffffffff16815260200190815260200160002060006101000a81548173ffffffffffffffffffffffffffffffffffffffff021916908373ffffffffffffffffffffffffffffffffffffffff1602179055508273ffffffffffffffffffffffffffffffffffffffff168273ffffffffffffffffffffffffffffffffffffffff168573ffffffffffffffffffffffffffffffffffffffff167f3134e8a2e6d97e929a7e54011ea5485d7d196dd5f0ba4d4ef95803e8e3fc257f60405160405180910390a46127a88284836122a7565b50505050565b6000804690508091505090565b60006127df436040518060600160405280602481526020016139e360249139612ac9565b905060008463ffffffff1611801561287d57508063ffffffff16600560008773ffffffffffffffffffffffffffffffffffffffff1673ffffffffffffffffffffffffffffffffffffffff168152602001908152602001600020600060018761284791906134d1565b63ffffffff1663ffffffff16815260200190815260200160002060000160009054906101000a900463ffffffff1663ffffffff16145b156129215781600560008773ffffffffffffffffffffffffffffffffffffffff1673ffffffffffffffffffffffffffffffffffffffff16815260200190815260200160002060006001876128d191906134d1565b63ffffffff1663ffffffff16815260200190815260200160002060000160046101000a8154816bffffffffffffffffffffffff02191690836bffffffffffffffffffffffff160217905550612a72565b60405180604001604052808263ffffffff168152602001836bffffffffffffffffffffffff16815250600560008773ffffffffffffffffffffffffffffffffffffffff1673ffffffffffffffffffffffffffffffffffffffff16815260200190815260200160002060008663ffffffff1663ffffffff16815260200190815260200160002060008201518160000160006101000a81548163ffffffff021916908363ffffffff16021790555060208201518160000160046101000a8154816bffffffffffffffffffffffff02191690836bffffffffffffffffffffffff160217905550905050600184612a149190613424565b600660008773ffffffffffffffffffffffffffffffffffffffff1673ffffffffffffffffffffffffffffffffffffffff16815260200190815260200160002060006101000a81548163ffffffff021916908363ffffffff1602179055505b8473ffffffffffffffffffffffffffffffffffffffff167fdec2bacdd2f05b59de34da9b523dff8be42e5e38e818c82fdb0bae774387a7248484604051612aba9291906133d4565b60405180910390a25050505050565b600064010000000083108290612b15576040517f08c379a0000000000000000000000000000000000000000000000000000000008152600401612b0c91906131e2565b60405180910390fd5b5082905092915050565b600081359050612b2e816138d3565b92915050565b600081359050612b43816138ea565b92915050565b600081359050612b5881613901565b92915050565b600081359050612b6d81613918565b92915050565b600081359050612b828161392f565b92915050565b600060208284031215612b9a57600080fd5b6000612ba884828501612b1f565b91505092915050565b60008060408385031215612bc457600080fd5b6000612bd285828601612b1f565b9250506020612be385828601612b1f565b9150509250929050565b600080600060608486031215612c0257600080fd5b6000612c1086828701612b1f565b9350506020612c2186828701612b1f565b9250506040612c3286828701612b49565b9150509250925092565b600080600080600080600060e0888a031215612c5757600080fd5b6000612c658a828b01612b1f565b9750506020612c768a828b01612b1f565b9650506040612c878a828b01612b49565b9550506060612c988a828b01612b49565b9450506080612ca98a828b01612b73565b93505060a0612cba8a828b01612b34565b92505060c0612ccb8a828b01612b34565b91505092959891949750929550565b60008060408385031215612ced57600080fd5b6000612cfb85828601612b1f565b9250506020612d0c85828601612b49565b9150509250929050565b60008060008060008060c08789031215612d2f57600080fd5b6000612d3d89828a01612b1f565b9650506020612d4e89828a01612b49565b9550506040612d5f89828a01612b49565b9450506060612d7089828a01612b73565b9350506080612d8189828a01612b34565b92505060a0612d9289828a01612b34565b9150509295509295509295565b60008060408385031215612db257600080fd5b6000612dc085828601612b1f565b9250506020612dd185828601612b5e565b9150509250929050565b612de481613539565b82525050565b612df38161354b565b82525050565b612e0281613557565b82525050565b612e19612e1482613557565b61364e565b82525050565b6000612e2a826133fd565b612e348185613408565b9350612e448185602086016135d2565b612e4d816136b6565b840191505092915050565b6000612e65603583613408565b9150612e70826136c7565b604082019050919050565b6000612e88601a83613408565b9150612e9382613716565b602082019050919050565b6000612eab600283613419565b9150612eb68261373f565b600282019050919050565b6000612ece601583613408565b9150612ed982613768565b602082019050919050565b6000612ef1602b83613408565b9150612efc82613791565b604082019050919050565b6000612f14602d83613408565b9150612f1f826137e0565b604082019050919050565b6000612f37602083613408565b9150612f428261382f565b602082019050919050565b6000612f5a601483613408565b9150612f6582613858565b602082019050919050565b6000612f7d601983613408565b9150612f8882613881565b602082019050919050565b6000612fa0601983613408565b9150612fab826138aa565b602082019050919050565b612fbf81613581565b82525050565b612fce8161358b565b82525050565b612fdd8161359b565b82525050565b612fec816135c0565b82525050565b612ffb816135a8565b82525050565b600061300c82612e9e565b91506130188285612e08565b6020820191506130288284612e08565b6020820191508190509392505050565b600060208201905061304d6000830184612ddb565b92915050565b60006040820190506130686000830185612ddb565b6130756020830184612ddb565b9392505050565b60006020820190506130916000830184612dea565b92915050565b60006020820190506130ac6000830184612df9565b92915050565b600060c0820190506130c76000830189612df9565b6130d46020830188612ddb565b6130e16040830187612ddb565b6130ee6060830186612fb6565b6130fb6080830185612fb6565b61310860a0830184612fb6565b979650505050505050565b60006080820190506131286000830187612df9565b6131356020830186612ddb565b6131426040830185612fb6565b61314f6060830184612fb6565b95945050505050565b600060808201905061316d6000830187612df9565b61317a6020830186612df9565b6131876040830185612fb6565b6131946060830184612ddb565b95945050505050565b60006080820190506131b26000830187612df9565b6131bf6020830186612fd4565b6131cc6040830185612df9565b6131d96060830184612df9565b95945050505050565b600060208201905081810360008301526131fc8184612e1f565b905092915050565b6000602082019050818103600083015261321d81612e58565b9050919050565b6000602082019050818103600083015261323d81612e7b565b9050919050565b6000602082019050818103600083015261325d81612ec1565b9050919050565b6000602082019050818103600083015261327d81612ee4565b9050919050565b6000602082019050818103600083015261329d81612f07565b9050919050565b600060208201905081810360008301526132bd81612f2a565b9050919050565b600060208201905081810360008301526132dd81612f4d565b9050919050565b600060208201905081810360008301526132fd81612f70565b9050919050565b6000602082019050818103600083015261331d81612f93565b9050919050565b60006020820190506133396000830184612fb6565b92915050565b60006020820190506133546000830184612fc5565b92915050565b600060408201905061336f6000830185612fc5565b61337c6020830184612ff2565b9392505050565b60006020820190506133986000830184612fd4565b92915050565b60006020820190506133b36000830184612fe3565b92915050565b60006020820190506133ce6000830184612ff2565b92915050565b60006040820190506133e96000830185612fe3565b6133f66020830184612fe3565b9392505050565b600081519050919050565b600082825260208201905092915050565b600081905092915050565b600061342f8261358b565b915061343a8361358b565b92508263ffffffff0382111561345357613452613658565b5b828201905092915050565b6000613469826135a8565b9150613474836135a8565b9250826bffffffffffffffffffffffff0382111561349557613494613658565b5b828201905092915050565b60006134ab8261358b565b91506134b68361358b565b9250826134c6576134c5613687565b5b828204905092915050565b60006134dc8261358b565b91506134e78361358b565b9250828210156134fa576134f9613658565b5b828203905092915050565b6000613510826135a8565b915061351b836135a8565b92508282101561352e5761352d613658565b5b828203905092915050565b600061354482613561565b9050919050565b60008115159050919050565b6000819050919050565b600073ffffffffffffffffffffffffffffffffffffffff82169050919050565b6000819050919050565b600063ffffffff82169050919050565b600060ff82169050919050565b60006bffffffffffffffffffffffff82169050919050565b60006135cb826135a8565b9050919050565b60005b838110156135f05780820151818401526020810190506135d5565b838111156135ff576000848401525b50505050565b600061361082613581565b91507fffffffffffffffffffffffffffffffffffffffffffffffffffffffffffffffff82141561364357613642613658565b5b600182019050919050565b6000819050919050565b7f4e487b7100000000000000000000000000000000000000000000000000000000600052601160045260246000fd5b7f4e487b7100000000000000000000000000000000000000000000000000000000600052601260045260246000fd5b6000601f19601f8301169050919050565b7f705374616b653a206f6e6c7920746865206d696e7465722063616e206368616e60008201527f676520746865206d696e74657220616464726573730000000000000000000000602082015250565b7f705374616b653a206e6f74207965742064657465726d696e6564000000000000600082015250565b7f1901000000000000000000000000000000000000000000000000000000000000600082015250565b7f705374616b653a20696e76616c6964206e6f6e63650000000000000000000000600082015250565b7f705374616b653a2063616e6e6f74207472616e7366657220746f20746865207a60008201527f65726f2061646472657373000000000000000000000000000000000000000000602082015250565b7f705374616b653a2063616e6e6f74207472616e736665722066726f6d2074686560008201527f207a65726f206164647265737300000000000000000000000000000000000000602082015250565b7f705374616b653a206f6e6c7920746865206d696e7465722063616e206d696e74600082015250565b7f705374616b653a20756e617574686f72697a6564000000000000000000000000600082015250565b7f705374616b653a20696e76616c6964207369676e617475726500000000000000600082015250565b7f705374616b653a207369676e6174757265206578706972656400000000000000600082015250565b6138dc81613539565b81146138e757600080fd5b50565b6138f381613557565b81146138fe57600080fd5b50565b61390a81613581565b811461391557600080fd5b50565b6139218161358b565b811461392c57600080fd5b50565b6139388161359b565b811461394357600080fd5b5056fe705374616b653a207472616e7366657220616d6f756e7420657863656564732062616c616e6365705374616b653a207472616e7366657220616d6f756e74206f766572666c6f7773705374616b653a20746f74616c537570706c7920657863656564732039362062697473705374616b653a207472616e7366657220616d6f756e742065786365656473207370656e64657220616c6c6f77616e6365705374616b653a20626c6f636b206e756d62657220657863656564732033322062697473a2646970667358221220e4d45a1e7a8b2bc07b9b7c75e11163e2cf5f94fb84abae61150dd09eae76e91f64736f6c63430008040033"
  }
}