{
  "opcodeHash": "0x2aa58c7f83739068cf736faea5d14249ac0e6a069a594b248a75b7b72b105d57",
  "metalessHash": "0xc9bd80a691baa64e08b48df654f754b7fd1ea8166599d7f4ef98b06c5b0c4047",
  "runtimeHash": "0xfa748fa8eb82f64d595ea342c62c39134db18f73f6401774c7afe71b7561c090",
  "encodedMetadata": [
    {
      "ipfs": "/ipfs/QmPuXBinULnmFrTcJmydat2KsyvoS3jGnwMtVsrPQaocZ1",
      "solc": "0.6.12"
    }
  ],
  "abi": [
    {
      "anonymous": false,
      "inputs": [
        {
          "indexed": true,
          "internalType": "address",
          "name": "previousOwner",
          "type": "address"
        },
        {
          "indexed": true,
          "internalType": "address",
          "name": "newOwner",
          "type": "address"
        }
      ],
      "name": "OwnershipTransferred",
      "type": "event"
    },
    {
      "anonymous": false,
      "inputs": [
        {
          "indexed": false,
          "internalType": "address",
          "name": "holder",
          "type": "address"
        },
        {
          "indexed": false,
          "internalType": "uint256",
          "name": "amount",
          "type": "uint256"
        }
      ],
      "name": "RewardsTransferred",
      "type": "event"
    },
    {
      "inputs": [],
      "name": "claimDivs",
      "outputs": [],
      "stateMutability": "nonpayable",
      "type": "function"
    },
    {
      "inputs": [],
      "name": "cliffTime",
      "outputs": [
        {
          "internalType": "uint256",
          "name": "",
          "type": "uint256"
        }
      ],
      "stateMutability": "view",
      "type": "function"
    },
    {
      "inputs": [
        {
          "internalType": "uint256",
          "name": "amountToStake",
          "type": "uint256"
        }
      ],
      "name": "deposit",
      "outputs": [],
      "stateMutability": "nonpayable",
      "type": "function"
    },
    {
      "inputs": [
        {
          "internalType": "address",
          "name": "",
          "type": "address"
        }
      ],
      "name": "depositedTokens",
      "outputs": [
        {
          "internalType": "uint256",
          "name": "",
          "type": "uint256"
        }
      ],
      "stateMutability": "view",
      "type": "function"
    },
    {
      "inputs": [],
      "name": "getNumberOfHolders",
      "outputs": [
        {
          "internalType": "uint256",
          "name": "",
          "type": "uint256"
        }
      ],
      "stateMutability": "view",
      "type": "function"
    },
    {
      "inputs": [
        {
          "internalType": "address",
          "name": "_holder",
          "type": "address"
        }
      ],
      "name": "getPendingDivs",
      "outputs": [
        {
          "internalType": "uint256",
          "name": "",
          "type": "uint256"
        }
      ],
      "stateMutability": "view",
      "type": "function"
    },
    {
      "inputs": [
        {
          "internalType": "uint256",
          "name": "startIndex",
          "type": "uint256"
        },
        {
          "internalType": "uint256",
          "name": "endIndex",
          "type": "uint256"
        }
      ],
      "name": "getStakersList",
      "outputs": [
        {
          "internalType": "address[]",
          "name": "stakers",
          "type": "address[]"
        },
        {
          "internalType": "uint256[]",
          "name": "stakingTimestamps",
          "type": "uint256[]"
        },
        {
          "internalType": "uint256[]",
          "name": "lastClaimedTimeStamps",
          "type": "uint256[]"
        },
        {
          "internalType": "uint256[]",
          "name": "stakedTokens",
          "type": "uint256[]"
        }
      ],
      "stateMutability": "view",
      "type": "function"
    },
    {
      "inputs": [],
      "name": "getStakingAndDaoAmount",
      "outputs": [
        {
          "internalType": "uint256",
          "name": "",
          "type": "uint256"
        }
      ],
      "stateMutability": "view",
      "type": "function"
    },
    {
      "inputs": [
        {
          "internalType": "address",
          "name": "",
          "type": "address"
        }
      ],
      "name": "lastClaimedTime",
      "outputs": [
        {
          "internalType": "uint256",
          "name": "",
          "type": "uint256"
        }
      ],
      "stateMutability": "view",
      "type": "function"
    },
    {
      "inputs": [],
      "name": "owner",
      "outputs": [
        {
          "internalType": "address",
          "name": "",
          "type": "address"
        }
      ],
      "stateMutability": "view",
      "type": "function"
    },
    {
      "inputs": [],
      "name": "rewardInterval",
      "outputs": [
        {
          "internalType": "uint256",
          "name": "",
          "type": "uint256"
        }
      ],
      "stateMutability": "view",
      "type": "function"
    },
    {
      "inputs": [],
      "name": "rewardRate",
      "outputs": [
        {
          "internalType": "uint256",
          "name": "",
          "type": "uint256"
        }
      ],
      "stateMutability": "view",
      "type": "function"
    },
    {
      "inputs": [],
      "name": "stakingFeeRate",
      "outputs": [
        {
          "internalType": "uint256",
          "name": "",
          "type": "uint256"
        }
      ],
      "stateMutability": "view",
      "type": "function"
    },
    {
      "inputs": [
        {
          "internalType": "address",
          "name": "",
          "type": "address"
        }
      ],
      "name": "stakingTime",
      "outputs": [
        {
          "internalType": "uint256",
          "name": "",
          "type": "uint256"
        }
      ],
      "stateMutability": "view",
      "type": "function"
    },
    {
      "inputs": [],
      "name": "tokenAddress",
      "outputs": [
        {
          "internalType": "address",
          "name": "",
          "type": "address"
        }
      ],
      "stateMutability": "view",
      "type": "function"
    },
    {
      "inputs": [],
      "name": "totalClaimedRewards",
      "outputs": [
        {
          "internalType": "uint256",
          "name": "",
          "type": "uint256"
        }
      ],
      "stateMutability": "view",
      "type": "function"
    },
    {
      "inputs": [
        {
          "internalType": "address",
          "name": "",
          "type": "address"
        }
      ],
      "name": "totalEarnedTokens",
      "outputs": [
        {
          "internalType": "uint256",
          "name": "",
          "type": "uint256"
        }
      ],
      "stateMutability": "view",
      "type": "function"
    },
    {
      "inputs": [
        {
          "internalType": "address",
          "name": "_tokenAddr",
          "type": "address"
        },
        {
          "internalType": "address",
          "name": "_to",
          "type": "address"
        },
        {
          "internalType": "uint256",
          "name": "_amount",
          "type": "uint256"
        }
      ],
      "name": "transferAnyERC20Tokens",
      "outputs": [],
      "stateMutability": "nonpayable",
      "type": "function"
    },
    {
      "inputs": [
        {
          "internalType": "address",
          "name": "newOwner",
          "type": "address"
        }
      ],
      "name": "transferOwnership",
      "outputs": [],
      "stateMutability": "nonpayable",
      "type": "function"
    },
    {
      "inputs": [],
      "name": "unstakingFeeRate",
      "outputs": [
        {
          "internalType": "uint256",
          "name": "",
          "type": "uint256"
        }
      ],
      "stateMutability": "view",
      "type": "function"
    },
    {
      "inputs": [
        {
          "internalType": "uint256",
          "name": "amountToWithdraw",
          "type": "uint256"
        }
      ],
      "name": "withdraw",
      "outputs": [],
      "stateMutability": "nonpayable",
      "type": "function"
    }
  ],
  "bytecode": {
    "object": "6080604052600060015534801561001557600080fd5b50600080546001600160a01b03191633179055611431806100376000396000f3fe608060405234801561001057600080fd5b50600436106101375760003560e01c80637b0a47ee116100b8578063bec4de3f1161007c578063bec4de3f146103d4578063c326bf4f146103dc578063d578ceab14610402578063d816c7d51461040a578063f2fde38b14610412578063f3f91fa01461043857610137565b80637b0a47ee1461035d5780638da5cb5b1461036557806398896d10146103895780639d76ea58146103af578063b6b55f25146103b757610137565b8063308feec3116100ff578063308feec3146102cb578063583d42fd146102d35780635ef057be146102f95780636270cd18146103015780636a395ccb1461032757610137565b80630f1a64441461013c5780631911cf4a1461015657806319aa70e71461029c578063268cab49146102a65780632e1a7d4d146102ae575b600080fd5b61014461045e565b60408051918252519081900360200190f35b6101796004803603604081101561016c57600080fd5b5080359060200135610465565b6040518080602001806020018060200180602001858103855289818151815260200191508051906020019060200280838360005b838110156101c55781810151838201526020016101ad565b50505050905001858103845288818151815260200191508051906020019060200280838360005b838110156102045781810151838201526020016101ec565b50505050905001858103835287818151815260200191508051906020019060200280838360005b8381101561024357818101518382015260200161022b565b50505050905001858103825286818151815260200191508051906020019060200280838360005b8381101561028257818101518382015260200161026a565b505050509050019850505050505050505060405180910390f35b6102a46106d1565b005b6101446106dc565b6102a4600480360360208110156102c457600080fd5b503561071f565b610144610a38565b610144600480360360208110156102e957600080fd5b50356001600160a01b0316610a49565b610144610a5b565b6101446004803603602081101561031757600080fd5b50356001600160a01b0316610a60565b6102a46004803603606081101561033d57600080fd5b506001600160a01b03813581169160208101359091169060400135610a72565b610144610b83565b61036d610b89565b604080516001600160a01b039092168252519081900360200190f35b6101446004803603602081101561039f57600080fd5b50356001600160a01b0316610b98565b61036d610c43565b6102a4600480360360208110156103cd57600080fd5b5035610c5b565b610144610f00565b610144600480360360208110156103f257600080fd5b50356001600160a01b0316610f08565b610144610f1a565b610144610f20565b6102a46004803603602081101561042857600080fd5b50356001600160a01b0316610f25565b6101446004803603602081101561044e57600080fd5b50356001600160a01b0316610faa565b6203f48081565b60608060608084861061047757600080fd5b60006104838688610fbc565b905060608167ffffffffffffffff8111801561049e57600080fd5b506040519080825280602002602001820160405280156104c8578160200160208202803683370190505b50905060608267ffffffffffffffff811180156104e457600080fd5b5060405190808252806020026020018201604052801561050e578160200160208202803683370190505b50905060608367ffffffffffffffff8111801561052a57600080fd5b50604051908082528060200260200182016040528015610554578160200160208202803683370190505b50905060608467ffffffffffffffff8111801561057057600080fd5b5060405190808252806020026020018201604052801561059a578160200160208202803683370190505b5090508a5b8a8110156106bf5760006105b4600283610fd3565b905060006105c2838f610fbc565b9050818782815181106105d157fe5b60200260200101906001600160a01b031690816001600160a01b03168152505060056000836001600160a01b03166001600160a01b031681526020019081526020016000205486828151811061062357fe5b60200260200101818152505060066000836001600160a01b03166001600160a01b031681526020019081526020016000205485828151811061066157fe5b60200260200101818152505060046000836001600160a01b03166001600160a01b031681526020019081526020016000205484828151811061069f57fe5b6020908102919091010152506106b89050816001610fe6565b905061059f565b50929a91995097509095509350505050565b6106da33610ff5565b565b600068d8c9460063d31c0000600154106106f85750600061071c565b600061071860015468d8c9460063d31c0000610fbc90919063ffffffff16565b9150505b90565b33600090815260046020526040902054811115610783576040805162461bcd60e51b815260206004820152601a60248201527f496e76616c696420616d6f756e7420746f207769746864726177000000000000604482015290519081900360640190fd5b336000908152600560205260409020546203f480906107a3904290610fbc565b116107df5760405162461bcd60e51b81526004018080602001828103825260348152602001806113c86034913960400191505060405180910390fd5b6107e833610ff5565b60006108016127106107fb846032611196565b906111b6565b9050600061080f8383610fbc565b600080546040805163a9059cbb60e01b81526001600160a01b039092166004830152602482018690525192935073ad7524d230f9a5b331dd3d6d91b6da46ccf3f3809263a9059cbb92604480840193602093929083900390910190829087803b15801561087b57600080fd5b505af115801561088f573d6000803e3d6000fd5b505050506040513d60208110156108a557600080fd5b50516108f8576040805162461bcd60e51b815260206004820181905260248201527f436f756c64206e6f74207472616e73666572207769746864726177206665652e604482015290519081900360640190fd5b6040805163a9059cbb60e01b815233600482015260248101839052905173ad7524d230f9a5b331dd3d6d91b6da46ccf3f3809163a9059cbb9160448083019260209291908290030181600087803b15801561095257600080fd5b505af1158015610966573d6000803e3d6000fd5b505050506040513d602081101561097c57600080fd5b50516109cf576040805162461bcd60e51b815260206004820152601a60248201527f436f756c64206e6f74207472616e7366657220746f6b656e732e000000000000604482015290519081900360640190fd5b336000908152600460205260409020546109e99084610fbc565b33600081815260046020526040902091909155610a08906002906111cb565b8015610a21575033600090815260046020526040902054155b15610a3357610a316002336111e0565b505b505050565b6000610a4460026111f5565b905090565b60056020526000908152604090205481565b609681565b60076020526000908152604090205481565b6000546001600160a01b03163314610a8957600080fd5b6001600160a01b03831673ad7524d230f9a5b331dd3d6d91b6da46ccf3f3801415610afb576040805162461bcd60e51b815260206004820152601860248201527f43616e6e6f74205472616e73666572204f757420444350210000000000000000604482015290519081900360640190fd5b826001600160a01b031663a9059cbb83836040518363ffffffff1660e01b815260040180836001600160a01b0316815260200182815260200192505050602060405180830381600087803b158015610b5257600080fd5b505af1158015610b66573d6000803e3d6000fd5b505050506040513d6020811015610b7c57600080fd5b5050505050565b611c2081565b6000546001600160a01b031681565b6000610ba56002836111cb565b610bb157506000610c3e565b6001600160a01b038216600090815260046020526040902054610bd657506000610c3e565b6001600160a01b038216600090815260066020526040812054610bfa904290610fbc565b6001600160a01b038416600090815260046020526040812054919250610c386127106107fb6301e133808187610c3288611c20611196565b90611196565b93505050505b919050565b73ad7524d230f9a5b331dd3d6d91b6da46ccf3f38081565b60008111610cb0576040805162461bcd60e51b815260206004820152601760248201527f43616e6e6f74206465706f736974203020546f6b656e73000000000000000000604482015290519081900360640190fd5b604080516323b872dd60e01b815233600482015230602482015260448101839052905173ad7524d230f9a5b331dd3d6d91b6da46ccf3f380916323b872dd9160648083019260209291908290030181600087803b158015610d1057600080fd5b505af1158015610d24573d6000803e3d6000fd5b505050506040513d6020811015610d3a57600080fd5b5051610d8d576040805162461bcd60e51b815260206004820152601c60248201527f496e73756666696369656e7420546f6b656e20416c6c6f77616e636500000000604482015290519081900360640190fd5b610d9633610ff5565b6000610da96127106107fb846096611196565b90506000610db78383610fbc565b600080546040805163a9059cbb60e01b81526001600160a01b039092166004830152602482018690525192935073ad7524d230f9a5b331dd3d6d91b6da46ccf3f3809263a9059cbb92604480840193602093929083900390910190829087803b158015610e2357600080fd5b505af1158015610e37573d6000803e3d6000fd5b505050506040513d6020811015610e4d57600080fd5b5051610ea0576040805162461bcd60e51b815260206004820152601f60248201527f436f756c64206e6f74207472616e73666572206465706f736974206665652e00604482015290519081900360640190fd5b33600090815260046020526040902054610eba9082610fe6565b33600081815260046020526040902091909155610ed9906002906111cb565b610a3357610ee8600233611200565b50336000908152600560205260409020429055505050565b6301e1338081565b60046020526000908152604090205481565b60015481565b603281565b6000546001600160a01b03163314610f3c57600080fd5b6001600160a01b038116610f4f57600080fd5b600080546040516001600160a01b03808516939216917f8be0079c531659141344cd1fd0a4f28419497f9722a3daafe3b4186f6b6457e091a3600080546001600160a01b0319166001600160a01b0392909216919091179055565b60066020526000908152604090205481565b600082821115610fc857fe5b508082035b92915050565b6000610fdf8383611215565b9392505050565b600082820183811015610fdf57fe5b600061100082610b98565b90508015611179576040805163a9059cbb60e01b81526001600160a01b038416600482015260248101839052905173ad7524d230f9a5b331dd3d6d91b6da46ccf3f3809163a9059cbb9160448083019260209291908290030181600087803b15801561106b57600080fd5b505af115801561107f573d6000803e3d6000fd5b505050506040513d602081101561109557600080fd5b50516110e8576040805162461bcd60e51b815260206004820152601a60248201527f436f756c64206e6f74207472616e7366657220746f6b656e732e000000000000604482015290519081900360640190fd5b6001600160a01b03821660009081526007602052604090205461110b9082610fe6565b6001600160a01b0383166000908152600760205260409020556001546111319082610fe6565b600155604080516001600160a01b03841681526020810183905281517f586b2e63a21a7a4e1402e36f48ce10cb1ec94684fea254c186b76d1f98ecf130929181900390910190a15b506001600160a01b03166000908152600660205260409020429055565b60008282028315806111b05750828482816111ad57fe5b04145b610fdf57fe5b6000808284816111c257fe5b04949350505050565b6000610fdf836001600160a01b038416611279565b6000610fdf836001600160a01b038416611291565b6000610fcd82611357565b6000610fdf836001600160a01b03841661135b565b815460009082106112575760405162461bcd60e51b81526004018080602001828103825260228152602001806113a66022913960400191505060405180910390fd5b82600001828154811061126657fe5b9060005260206000200154905092915050565b60009081526001919091016020526040902054151590565b6000818152600183016020526040812054801561134d57835460001980830191908101906000908790839081106112c457fe5b90600052602060002001549050808760000184815481106112e157fe5b60009182526020808320909101929092558281526001898101909252604090209084019055865487908061131157fe5b60019003818190600052602060002001600090559055866001016000878152602001908152602001600020600090556001945050505050610fcd565b6000915050610fcd565b5490565b60006113678383611279565b61139d57508154600181810184556000848152602080822090930184905584548482528286019093526040902091909155610fcd565b506000610fcd56fe456e756d657261626c655365743a20696e646578206f7574206f6620626f756e6473596f7520726563656e746c79207374616b65642c20706c656173652077616974206265666f7265207769746864726177696e672ea2646970667358221220de29e89d75146b0c952c0bbae3cb22399c6cc8ef932ac20f86fb35ba2c9435fe64736f6c634300060c0033"
  }
}