{"compiler":"v0.8.7+commit.e28d00a7","opcodeHash":"0x5b7b7e5a2544aea5163478349e8276fb7fbc90535efd646d685de01fc1d16829","metalessHash":"0x41dc6821f7566b976139dfc45c9be9c2cb5ec96ce8e60643bfdc070961be42b2","runtimeHash":"0x499fa11e4b5e92c2dfecb29e30209e53418b29d9f275c2cfb530779495183959","encodedMetadata":[{"ipfs":"/ipfs/QmbyhtfWjPhC9QXBcj6quXKFFLHAvvXyTfJe77qVGZwpZM","solc":"0.8.7"}],"abi":[{"inputs":[{"internalType":"address","name":"_wallet1","type":"address"},{"internalType":"address","name":"_wallet2","type":"address"}],"stateMutability":"nonpayable","type":"constructor"},{"anonymous":false,"inputs":[{"indexed":true,"internalType":"address","name":"previousOwner","type":"address"},{"indexed":true,"internalType":"address","name":"newOwner","type":"address"}],"name":"OwnershipTransferred","type":"event"},{"inputs":[],"name":"owner","outputs":[{"internalType":"address","name":"","type":"address"}],"stateMutability":"view","type":"function"},{"inputs":[],"name":"renounceOwnership","outputs":[],"stateMutability":"nonpayable","type":"function"},{"inputs":[{"internalType":"address","name":"newOwner","type":"address"}],"name":"transferOwnership","outputs":[],"stateMutability":"nonpayable","type":"function"},{"inputs":[],"name":"wallet1","outputs":[{"internalType":"address","name":"","type":"address"}],"stateMutability":"view","type":"function"},{"inputs":[],"name":"wallet2","outputs":[{"internalType":"address","name":"","type":"address"}],"stateMutability":"view","type":"function"},{"inputs":[],"name":"withdrawBalance","outputs":[],"stateMutability":"nonpayable","type":"function"},{"inputs":[{"internalType":"contract IERC20","name":"token","type":"address"}],"name":"withdrawTokens","outputs":[],"stateMutability":"nonpayable","type":"function"}],"bytecode":{"object":"608060405234801561001057600080fd5b5060405161097938038061097983398101604081905261002f916100bd565b600080546001600160a01b031916339081178255604051909182917f8be0079c531659141344cd1fd0a4f28419497f9722a3daafe3b4186f6b6457e0908290a350600180546001600160a01b039384166001600160a01b031991821617909155600280549290931691161790556100f0565b80516001600160a01b03811681146100b857600080fd5b919050565b600080604083850312156100d057600080fd5b6100d9836100a1565b91506100e7602084016100a1565b90509250929050565b61087a806100ff6000396000f3fe608060405234801561001057600080fd5b506004361061007d5760003560e01c80635fd8c7101161005b5780635fd8c710146100d9578063715018a6146100e15780638da5cb5b146100e9578063f2fde38b146100fa57600080fd5b80630b8d0a28146100825780631a026c96146100b157806349df728c146100c4575b600080fd5b600254610095906001600160a01b031681565b6040516001600160a01b03909116815260200160405180910390f35b600154610095906001600160a01b031681565b6100d76100d2366004610736565b61010d565b005b6100d76101de565b6100d7610270565b6000546001600160a01b0316610095565b6100d7610108366004610736565b610319565b6040516370a0823160e01b81523060048201526000906001600160a01b038316906370a082319060240160206040518083038186803b15801561014f57600080fd5b505afa158015610163573d6000803e3d6000fd5b505050506040513d601f19601f820116820180604052508101906101879190610775565b905080156101da576001546101bb906001600160a01b03166101aa836002610433565b6001600160a01b0385169190610495565b600280546101da916001600160a01b03909116906101aa908490610433565b5050565b47801561026d576001546001600160a01b03166108fc6101ff836002610433565b6040518115909202916000818181858888f19350505050158015610227573d6000803e3d6000fd5b50600280546001600160a01b0316906108fc90610245908490610433565b6040518115909202916000818181858888f193505050501580156101da573d6000803e3d6000fd5b50565b6000546001600160a01b031633146102cf5760405162461bcd60e51b815260206004820181905260248201527f4f776e61626c653a2063616c6c6572206973206e6f7420746865206f776e657260448201526064015b60405180910390fd5b600080546040516001600160a01b03909116907f8be0079c531659141344cd1fd0a4f28419497f9722a3daafe3b4186f6b6457e0908390a3600080546001600160a01b0319169055565b6000546001600160a01b031633146103735760405162461bcd60e51b815260206004820181905260248201527f4f776e61626c653a2063616c6c6572206973206e6f7420746865206f776e657260448201526064016102c6565b6001600160a01b0381166103d85760405162461bcd60e51b815260206004820152602660248201527f4f776e61626c653a206e6577206f776e657220697320746865207a65726f206160448201526564647265737360d01b60648201526084016102c6565b600080546040516001600160a01b03808516939216917f8be0079c531659141344cd1fd0a4f28419497f9722a3daafe3b4186f6b6457e091a3600080546001600160a01b0319166001600160a01b0392909216919091179055565b60008082116104845760405162461bcd60e51b815260206004820152601a60248201527f536166654d6174683a206469766973696f6e206279207a65726f00000000000060448201526064016102c6565b61048e82846107dd565b9392505050565b604080516001600160a01b038416602482015260448082018490528251808303909101815260649091019091526020810180516001600160e01b031663a9059cbb60e01b1790526104e79084906104ec565b505050565b6000610541826040518060400160405280602081526020017f5361666545524332303a206c6f772d6c6576656c2063616c6c206661696c6564815250856001600160a01b03166105be9092919063ffffffff16565b8051909150156104e7578080602001905181019061055f9190610753565b6104e75760405162461bcd60e51b815260206004820152602a60248201527f5361666545524332303a204552433230206f7065726174696f6e20646964206e6044820152691bdd081cdd58d8d9595960b21b60648201526084016102c6565b60606105cd84846000856105d5565b949350505050565b6060824710156106365760405162461bcd60e51b815260206004820152602660248201527f416464726573733a20696e73756666696369656e742062616c616e636520666f6044820152651c8818d85b1b60d21b60648201526084016102c6565b843b6106845760405162461bcd60e51b815260206004820152601d60248201527f416464726573733a2063616c6c20746f206e6f6e2d636f6e747261637400000060448201526064016102c6565b600080866001600160a01b031685876040516106a0919061078e565b60006040518083038185875af1925050503d80600081146106dd576040519150601f19603f3d011682016040523d82523d6000602084013e6106e2565b606091505b50915091506106f28282866106fd565b979650505050505050565b6060831561070c57508161048e565b82511561071c5782518084602001fd5b8160405162461bcd60e51b81526004016102c691906107aa565b60006020828403121561074857600080fd5b813561048e8161082f565b60006020828403121561076557600080fd5b8151801515811461048e57600080fd5b60006020828403121561078757600080fd5b5051919050565b600082516107a08184602087016107ff565b9190910192915050565b60208152600082518060208401526107c98160408501602087016107ff565b601f01601f19169190910160400192915050565b6000826107fa57634e487b7160e01b600052601260045260246000fd5b500490565b60005b8381101561081a578181015183820152602001610802565b83811115610829576000848401525b50505050565b6001600160a01b038116811461026d57600080fdfea264697066735822122015eae172369168b3ef0407931721ff3652a184f72e83263484a52e98de31eeeb64736f6c63430008070033"}}