{"compiler":"v0.6.12+commit.27d51765","opcodeHash":"0x5c92e8703c3d3bd4aa537714ba86950a8a62ce6edc2e0bd6d430d500d83433b6","metalessHash":"0x763d7630ba518ba4beedcdf58ad1cbe9f047d26de03df534e3aa2f58d95e37b3","runtimeHash":"0x14f74eec691a106dc4d82e5990c60864f8bbc353851f556164d0480161967d51","encodedMetadata":[{"ipfs":"/ipfs/Qmf7rSgaa8qc4K7eNmAwULUd3hxmmhdN98nbLdxfkJKvJT","solc":"0.6.12"}],"abi":[{"inputs":[{"internalType":"string","name":"name","type":"string"},{"internalType":"string","name":"symbol","type":"string"},{"internalType":"address","name":"_mintFeeAddr","type":"address"},{"internalType":"uint256","name":"_mintFeeAmount","type":"uint256"}],"stateMutability":"nonpayable","type":"constructor"},{"anonymous":false,"inputs":[{"indexed":true,"internalType":"address","name":"owner","type":"address"},{"indexed":true,"internalType":"address","name":"approved","type":"address"},{"indexed":true,"internalType":"uint256","name":"tokenId","type":"uint256"}],"name":"Approval","type":"event"},{"anonymous":false,"inputs":[{"indexed":true,"internalType":"address","name":"owner","type":"address"},{"indexed":true,"internalType":"address","name":"operator","type":"address"},{"indexed":false,"internalType":"bool","name":"approved","type":"bool"}],"name":"ApprovalForAll","type":"event"},{"anonymous":false,"inputs":[{"indexed":true,"internalType":"address","name":"sender","type":"address"},{"indexed":false,"internalType":"uint256","name":"tokenId","type":"uint256"}],"name":"Burn","type":"event"},{"anonymous":false,"inputs":[{"indexed":true,"internalType":"address","name":"previousOwner","type":"address"},{"indexed":true,"internalType":"address","name":"newOwner","type":"address"}],"name":"MintFeeAddressTransferred","type":"event"},{"anonymous":false,"inputs":[{"indexed":true,"internalType":"address","name":"previousOwner","type":"address"},{"indexed":true,"internalType":"address","name":"newOwner","type":"address"}],"name":"OwnershipTransferred","type":"event"},{"anonymous":false,"inputs":[{"indexed":false,"internalType":"address","name":"account","type":"address"}],"name":"Paused","type":"event"},{"anonymous":false,"inputs":[{"indexed":true,"internalType":"bytes32","name":"role","type":"bytes32"},{"indexed":true,"internalType":"bytes32","name":"previousAdminRole","type":"bytes32"},{"indexed":true,"internalType":"bytes32","name":"newAdminRole","type":"bytes32"}],"name":"RoleAdminChanged","type":"event"},{"anonymous":false,"inputs":[{"indexed":true,"internalType":"bytes32","name":"role","type":"bytes32"},{"indexed":true,"internalType":"address","name":"account","type":"address"},{"indexed":true,"internalType":"address","name":"sender","type":"address"}],"name":"RoleGranted","type":"event"},{"anonymous":false,"inputs":[{"indexed":true,"internalType":"bytes32","name":"role","type":"bytes32"},{"indexed":true,"internalType":"address","name":"account","type":"address"},{"indexed":true,"internalType":"address","name":"sender","type":"address"}],"name":"RoleRevoked","type":"event"},{"anonymous":false,"inputs":[{"indexed":true,"internalType":"address","name":"seller","type":"address"},{"indexed":false,"internalType":"uint256","name":"oldMintFeeAmount","type":"uint256"},{"indexed":false,"internalType":"uint256","name":"newMintFeeAmount","type":"uint256"}],"name":"SetMintFeeAmount","type":"event"},{"anonymous":false,"inputs":[{"indexed":true,"internalType":"address","name":"from","type":"address"},{"indexed":true,"internalType":"address","name":"to","type":"address"},{"indexed":true,"internalType":"uint256","name":"tokenId","type":"uint256"}],"name":"Transfer","type":"event"},{"anonymous":false,"inputs":[{"indexed":false,"internalType":"address","name":"account","type":"address"}],"name":"Unpaused","type":"event"},{"inputs":[],"name":"DEFAULT_ADMIN_ROLE","outputs":[{"internalType":"bytes32","name":"","type":"bytes32"}],"stateMutability":"view","type":"function"},{"inputs":[],"name":"PAUSED_ROLE","outputs":[{"internalType":"bytes32","name":"","type":"bytes32"}],"stateMutability":"view","type":"function"},{"inputs":[],"name":"UPDATE_TOKEN_URI_ROLE","outputs":[{"internalType":"bytes32","name":"","type":"bytes32"}],"stateMutability":"view","type":"function"},{"inputs":[{"internalType":"address","name":"to","type":"address"},{"internalType":"uint256","name":"tokenId","type":"uint256"}],"name":"approve","outputs":[],"stateMutability":"nonpayable","type":"function"},{"inputs":[{"internalType":"address","name":"owner","type":"address"}],"name":"balanceOf","outputs":[{"internalType":"uint256","name":"","type":"uint256"}],"stateMutability":"view","type":"function"},{"inputs":[],"name":"baseURI","outputs":[{"internalType":"string","name":"","type":"string"}],"stateMutability":"view","type":"function"},{"inputs":[{"internalType":"uint256","name":"tokenId","type":"uint256"}],"name":"burn","outputs":[],"stateMutability":"nonpayable","type":"function"},{"inputs":[{"internalType":"uint256","name":"tokenId","type":"uint256"}],"name":"getApproved","outputs":[{"internalType":"address","name":"","type":"address"}],"stateMutability":"view","type":"function"},{"inputs":[{"internalType":"bytes32","name":"role","type":"bytes32"}],"name":"getRoleAdmin","outputs":[{"internalType":"bytes32","name":"","type":"bytes32"}],"stateMutability":"view","type":"function"},{"inputs":[{"internalType":"bytes32","name":"role","type":"bytes32"},{"internalType":"uint256","name":"index","type":"uint256"}],"name":"getRoleMember","outputs":[{"internalType":"address","name":"","type":"address"}],"stateMutability":"view","type":"function"},{"inputs":[{"internalType":"bytes32","name":"role","type":"bytes32"}],"name":"getRoleMemberCount","outputs":[{"internalType":"uint256","name":"","type":"uint256"}],"stateMutability":"view","type":"function"},{"inputs":[{"internalType":"bytes32","name":"role","type":"bytes32"},{"internalType":"address","name":"account","type":"address"}],"name":"grantRole","outputs":[],"stateMutability":"nonpayable","type":"function"},{"inputs":[{"internalType":"bytes32","name":"role","type":"bytes32"},{"internalType":"address","name":"account","type":"address"}],"name":"hasRole","outputs":[{"internalType":"bool","name":"","type":"bool"}],"stateMutability":"view","type":"function"},{"inputs":[{"internalType":"address","name":"owner","type":"address"},{"internalType":"address","name":"operator","type":"address"}],"name":"isApprovedForAll","outputs":[{"internalType":"bool","name":"","type":"bool"}],"stateMutability":"view","type":"function"},{"inputs":[{"internalType":"address","name":"to","type":"address"},{"internalType":"string","name":"_tokenURI","type":"string"}],"name":"mint","outputs":[{"internalType":"uint256","name":"tokenId","type":"uint256"}],"stateMutability":"payable","type":"function"},{"inputs":[],"name":"mintFeeAddr","outputs":[{"internalType":"address","name":"","type":"address"}],"stateMutability":"view","type":"function"},{"inputs":[],"name":"mintFeeAmount","outputs":[{"internalType":"uint256","name":"","type":"uint256"}],"stateMutability":"view","type":"function"},{"inputs":[],"name":"name","outputs":[{"internalType":"string","name":"","type":"string"}],"stateMutability":"view","type":"function"},{"inputs":[],"name":"nextTokenId","outputs":[{"internalType":"uint256","name":"","type":"uint256"}],"stateMutability":"view","type":"function"},{"inputs":[],"name":"owner","outputs":[{"internalType":"address","name":"","type":"address"}],"stateMutability":"view","type":"function"},{"inputs":[{"internalType":"uint256","name":"tokenId","type":"uint256"}],"name":"ownerOf","outputs":[{"internalType":"address","name":"","type":"address"}],"stateMutability":"view","type":"function"},{"inputs":[],"name":"pause","outputs":[],"stateMutability":"nonpayable","type":"function"},{"inputs":[],"name":"paused","outputs":[{"internalType":"bool","name":"","type":"bool"}],"stateMutability":"view","type":"function"},{"inputs":[],"name":"renounceOwnership","outputs":[],"stateMutability":"nonpayable","type":"function"},{"inputs":[{"internalType":"bytes32","name":"role","type":"bytes32"},{"internalType":"address","name":"account","type":"address"}],"name":"renounceRole","outputs":[],"stateMutability":"nonpayable","type":"function"},{"inputs":[{"internalType":"bytes32","name":"role","type":"bytes32"},{"internalType":"address","name":"account","type":"address"}],"name":"revokeRole","outputs":[],"stateMutability":"nonpayable","type":"function"},{"inputs":[{"internalType":"address","name":"from","type":"address"},{"internalType":"address","name":"to","type":"address"},{"internalType":"uint256","name":"tokenId","type":"uint256"}],"name":"safeTransferFrom","outputs":[],"stateMutability":"nonpayable","type":"function"},{"inputs":[{"internalType":"address","name":"from","type":"address"},{"internalType":"address","name":"to","type":"address"},{"internalType":"uint256","name":"tokenId","type":"uint256"},{"internalType":"bytes","name":"_data","type":"bytes"}],"name":"safeTransferFrom","outputs":[],"stateMutability":"nonpayable","type":"function"},{"inputs":[{"internalType":"address","name":"operator","type":"address"},{"internalType":"bool","name":"approved","type":"bool"}],"name":"setApprovalForAll","outputs":[],"stateMutability":"nonpayable","type":"function"},{"inputs":[{"internalType":"string","name":"baseURI","type":"string"}],"name":"setBaseURI","outputs":[],"stateMutability":"nonpayable","type":"function"},{"inputs":[{"internalType":"uint256","name":"_mintFeeAmount","type":"uint256"}],"name":"setMintFeeAmount","outputs":[],"stateMutability":"nonpayable","type":"function"},{"inputs":[{"internalType":"uint256","name":"tokenId","type":"uint256"},{"internalType":"string","name":"tokenURI","type":"string"}],"name":"setTokenURI","outputs":[],"stateMutability":"nonpayable","type":"function"},{"inputs":[{"internalType":"bytes4","name":"interfaceId","type":"bytes4"}],"name":"supportsInterface","outputs":[{"internalType":"bool","name":"","type":"bool"}],"stateMutability":"view","type":"function"},{"inputs":[],"name":"symbol","outputs":[{"internalType":"string","name":"","type":"string"}],"stateMutability":"view","type":"function"},{"inputs":[{"internalType":"uint256","name":"index","type":"uint256"}],"name":"tokenByIndex","outputs":[{"internalType":"uint256","name":"","type":"uint256"}],"stateMutability":"view","type":"function"},{"inputs":[{"internalType":"address","name":"owner","type":"address"},{"internalType":"uint256","name":"index","type":"uint256"}],"name":"tokenOfOwnerByIndex","outputs":[{"internalType":"uint256","name":"","type":"uint256"}],"stateMutability":"view","type":"function"},{"inputs":[{"internalType":"uint256","name":"tokenId","type":"uint256"}],"name":"tokenURI","outputs":[{"internalType":"string","name":"","type":"string"}],"stateMutability":"view","type":"function"},{"inputs":[],"name":"totalSupply","outputs":[{"internalType":"uint256","name":"","type":"uint256"}],"stateMutability":"view","type":"function"},{"inputs":[{"internalType":"address","name":"from","type":"address"},{"internalType":"address","name":"to","type":"address"},{"internalType":"uint256","name":"tokenId","type":"uint256"}],"name":"transferFrom","outputs":[],"stateMutability":"nonpayable","type":"function"},{"inputs":[{"internalType":"address","name":"_mintFeeAddr","type":"address"}],"name":"transferMintFeeAddress","outputs":[],"stateMutability":"nonpayable","type":"function"},{"inputs":[{"internalType":"address","name":"newOwner","type":"address"}],"name":"transferOwnership","outputs":[],"stateMutability":"nonpayable","type":"function"},{"inputs":[],"name":"unpause","outputs":[],"stateMutability":"nonpayable","type":"function"},{"stateMutability":"payable","type":"receive"}],"bytecode":{"object":"60806040526001600d553480156200001657600080fd5b506040516200392c3803806200392c833981810160405260808110156200003c57600080fd5b81019080805160405193929190846401000000008211156200005d57600080fd5b9083019060208201858111156200007357600080fd5b82516401000000008111828201881017156200008e57600080fd5b82525081516020918201929091019080838360005b83811015620000bd578181015183820152602001620000a3565b50505050905090810190601f168015620000eb5780820380516001836020036101000a031916815260200191505b50604052602001805160405193929190846401000000008211156200010f57600080fd5b9083019060208201858111156200012557600080fd5b82516401000000008111828201881017156200014057600080fd5b82525081516020918201929091019080838360005b838110156200016f57818101518382015260200162000155565b50505050905090810190601f1680156200019d5780820380516001836020036101000a031916815260200191505b506040908152602082015191015190925090508383620001c46301ffc9a760e01b620003b3565b8151620001d99060069060208501906200054e565b508051620001ef9060079060208401906200054e565b50620002026380ac58cd60e01b620003b3565b62000214635b5e139f60e01b620003b3565b6200022663780e9d6360e01b620003b3565b5050600a805460ff1916905560006200023e62000438565b600c80546001600160a01b0319166001600160a01b038316908117909155604051919250906000907f8be0079c531659141344cd1fd0a4f28419497f9722a3daafe3b4186f6b6457e0908290a350620002a260006200029c62000438565b6200043c565b620002d17fcf1e7e3bee0e3167872271ce5d51dcec9a6ad0ff65a358daa0e5988775cca4e96200029c62000438565b620003007f375af72e98626b8c328e8df43813527285e7872665324182365ef80f7ae9a3d26200029c62000438565b600e80546001600160a01b0319166001600160a01b038481169190911791829055600f8390556040519116906000907fb55e540bc4aff5195703d7c24c8acdce597e5786b44df9ca3202f686313c9846908290a36200035e62000438565b6001600160a01b03167f5333df160d2d64e9a08458ca4dbcffa141c7b398a94ec77e02960c4478ab268e6000600f54604051808381526020018281526020019250505060405180910390a250505050620005ea565b6001600160e01b0319808216141562000413576040805162461bcd60e51b815260206004820152601c60248201527f4552433136353a20696e76616c696420696e7465726661636520696400000000604482015290519081900360640190fd5b6001600160e01b0319166000908152602081905260409020805460ff19166001179055565b3390565b6200044882826200044c565b5050565b6000828152600b602090815260409091206200047391839062001da0620004c7821b17901c565b1562000448576200048362000438565b6001600160a01b0316816001600160a01b0316837f2f8788117e7eff1d82e926ec794901d17c78024a50270940304540a733656f0d60405160405180910390a45050565b6000620004de836001600160a01b038416620004e7565b90505b92915050565b6000620004f5838362000536565b6200052d57508154600181810184556000848152602080822090930184905584548482528286019093526040902091909155620004e1565b506000620004e1565b60009081526001919091016020526040902054151590565b828054600181600116156101000203166002900490600052602060002090601f016020900481019282601f106200059157805160ff1916838001178555620005c1565b82800160010185558215620005c1579182015b82811115620005c1578251825591602001919060010190620005a4565b50620005cf929150620005d3565b5090565b5b80821115620005cf5760008155600101620005d4565b61333280620005fa6000396000f3fe6080604052600436106102555760003560e01c806370a0823111610139578063a217fddf116100b6578063c87b56dd1161007a578063c87b56dd14610a33578063ca15c87314610a5d578063d0def52114610a87578063d547741f14610b3b578063e985e9c514610b74578063f2fde38b14610baf5761025c565b8063a217fddf146108e8578063a22cb465146108fd578063ac4732b914610938578063ae57937b1461094d578063b88d4fde146109625761025c565b80638da5cb5b116100fd5780638da5cb5b1461082b5780639010d07c1461084057806391d14854146108705780639247cfe6146108a957806395d89b41146108d35761025c565b806370a08231146107a4578063715018a6146107d757806375794a3c146107ec5780637e622c56146108015780638456cb59146108165761025c565b80632f745c59116101d25780634f6ccce7116101965780634f6ccce71461066057806355f804b31461068a5780635c975abb1461073b5780636352211e146107505780636a857ed21461077a5780636c0360eb1461078f5761025c565b80632f745c591461056c57806336568abe146105a55780633f4ba83a146105de57806342842e0e146105f357806342966c68146106365761025c565b8063162094c411610219578063162094c4146103e757806318160ddd1461049f57806323b872dd146104c6578063248a9ca3146105095780632f2ff15d146105335761025c565b806301ffc9a71461026157806306fdde03146102a9578063081812fc14610333578063095ea7b3146103795780630ed4d456146103b45761025c565b3661025c57005b600080fd5b34801561026d57600080fd5b506102956004803603602081101561028457600080fd5b50356001600160e01b031916610be2565b604080519115158252519081900360200190f35b3480156102b557600080fd5b506102be610c05565b6040805160208082528351818301528351919283929083019185019080838360005b838110156102f85781810151838201526020016102e0565b50505050905090810190601f1680156103255780820380516001836020036101000a031916815260200191505b509250505060405180910390f35b34801561033f57600080fd5b5061035d6004803603602081101561035657600080fd5b5035610c9b565b604080516001600160a01b039092168252519081900360200190f35b34801561038557600080fd5b506103b26004803603604081101561039c57600080fd5b506001600160a01b038135169060200135610cfd565b005b3480156103c057600080fd5b506103b2600480360360208110156103d757600080fd5b50356001600160a01b0316610dd8565b3480156103f357600080fd5b506103b26004803603604081101561040a57600080fd5b81359190810190604081016020820135600160201b81111561042b57600080fd5b82018360208201111561043d57600080fd5b803590602001918460018302840111600160201b8311171561045e57600080fd5b91908080601f016020809104026020016040519081016040528093929190818152602001838380828437600092019190915250929550610e95945050505050565b3480156104ab57600080fd5b506104b4610f25565b60408051918252519081900360200190f35b3480156104d257600080fd5b506103b2600480360360608110156104e957600080fd5b506001600160a01b03813581169160208101359091169060400135610f36565b34801561051557600080fd5b506104b46004803603602081101561052c57600080fd5b5035610f8d565b34801561053f57600080fd5b506103b26004803603604081101561055657600080fd5b50803590602001356001600160a01b0316610fa2565b34801561057857600080fd5b506104b46004803603604081101561058f57600080fd5b506001600160a01b038135169060200135611005565b3480156105b157600080fd5b506103b2600480360360408110156105c857600080fd5b50803590602001356001600160a01b0316611030565b3480156105ea57600080fd5b506103b2611091565b3480156105ff57600080fd5b506103b26004803603606081101561061657600080fd5b506001600160a01b0381358116916020810135909116906040013561115d565b34801561064257600080fd5b506103b26004803603602081101561065957600080fd5b5035611178565b34801561066c57600080fd5b506104b46004803603602081101561068357600080fd5b5035611228565b34801561069657600080fd5b506103b2600480360360208110156106ad57600080fd5b810190602081018135600160201b8111156106c757600080fd5b8201836020820111156106d957600080fd5b803590602001918460018302840111600160201b831117156106fa57600080fd5b91908080601f01602080910402602001604051908101604052809392919081815260200183838082843760009201919091525092955061123e945050505050565b34801561074757600080fd5b506102956112c7565b34801561075c57600080fd5b5061035d6004803603602081101561077357600080fd5b50356112d0565b34801561078657600080fd5b5061035d6112f8565b34801561079b57600080fd5b506102be611307565b3480156107b057600080fd5b506104b4600480360360208110156107c757600080fd5b50356001600160a01b0316611368565b3480156107e357600080fd5b506103b26113d0565b3480156107f857600080fd5b506104b4611484565b34801561080d57600080fd5b506104b461148a565b34801561082257600080fd5b506103b26114ae565b34801561083757600080fd5b5061035d611575565b34801561084c57600080fd5b5061035d6004803603604081101561086357600080fd5b5080359060200135611584565b34801561087c57600080fd5b506102956004803603604081101561089357600080fd5b50803590602001356001600160a01b031661159c565b3480156108b557600080fd5b506103b2600480360360208110156108cc57600080fd5b50356115b4565b3480156108df57600080fd5b506102be6116be565b3480156108f457600080fd5b506104b461171f565b34801561090957600080fd5b506103b26004803603604081101561092057600080fd5b506001600160a01b0381351690602001351515611724565b34801561094457600080fd5b506104b4611829565b34801561095957600080fd5b506104b461182f565b34801561096e57600080fd5b506103b26004803603608081101561098557600080fd5b6001600160a01b03823581169260208101359091169160408201359190810190608081016060820135600160201b8111156109bf57600080fd5b8201836020820111156109d157600080fd5b803590602001918460018302840111600160201b831117156109f257600080fd5b91908080601f016020809104026020016040519081016040528093929190818152602001838380828437600092019190915250929550611853945050505050565b348015610a3f57600080fd5b506102be60048036036020811015610a5657600080fd5b50356118b1565b348015610a6957600080fd5b506104b460048036036020811015610a8057600080fd5b5035611b58565b6104b460048036036040811015610a9d57600080fd5b6001600160a01b038235169190810190604081016020820135600160201b811115610ac757600080fd5b820183602082011115610ad957600080fd5b803590602001918460018302840111600160201b83111715610afa57600080fd5b91908080601f016020809104026020016040519081016040528093929190818152602001838380828437600092019190915250929550611b6f945050505050565b348015610b4757600080fd5b506103b260048036036040811015610b5e57600080fd5b50803590602001356001600160a01b0316611c0e565b348015610b8057600080fd5b5061029560048036036040811015610b9757600080fd5b506001600160a01b0381358116916020013516611c67565b348015610bbb57600080fd5b506103b260048036036020811015610bd257600080fd5b50356001600160a01b0316611c95565b6001600160e01b0319811660009081526020819052604090205460ff165b919050565b60068054604080516020601f6002600019610100600188161502019095169490940493840181900481028201810190925282815260609390929091830182828015610c915780601f10610c6657610100808354040283529160200191610c91565b820191906000526020600020905b815481529060010190602001808311610c7457829003601f168201915b5050505050905090565b6000610ca682611db5565b610ce15760405162461bcd60e51b815260040180806020018281038252602c8152602001806131a9602c913960400191505060405180910390fd5b506000908152600460205260409020546001600160a01b031690565b6000610d08826112d0565b9050806001600160a01b0316836001600160a01b03161415610d5b5760405162461bcd60e51b81526004018080602001828103825260218152602001806132596021913960400191505060405180910390fd5b806001600160a01b0316610d6d611dc2565b6001600160a01b03161480610d8e5750610d8e81610d89611dc2565b611c67565b610dc95760405162461bcd60e51b81526004018080602001828103825260388152602001806130fc6038913960400191505060405180910390fd5b610dd38383611dc6565b505050565b600e546001600160a01b0316610dec611dc2565b6001600160a01b031614610e33576040805162461bcd60e51b81526020600482015260096024820152682327a92124a22222a760b91b604482015290519081900360640190fd5b600e80546001600160a01b0319166001600160a01b03838116919091179182905516610e5d611dc2565b6001600160a01b03167fb55e540bc4aff5195703d7c24c8acdce597e5786b44df9ca3202f686313c984660405160405180910390a350565b610ec67fcf1e7e3bee0e3167872271ce5d51dcec9a6ad0ff65a358daa0e5988775cca4e9610ec1611dc2565b61159c565b610f17576040805162461bcd60e51b815260206004820152601f60248201527f4d75737420686176652075706461746520746f6b656e2075726920726f6c6500604482015290519081900360640190fd5b610f218282611e34565b5050565b6000610f316002611e97565b905090565b610f47610f41611dc2565b82611ea2565b610f825760405162461bcd60e51b815260040180806020018281038252603181526020018061327a6031913960400191505060405180910390fd5b610dd3838383611f46565b6000908152600b602052604090206002015490565b6000828152600b6020526040902060020154610fc090610ec1611dc2565b610ffb5760405162461bcd60e51b815260040180806020018281038252602f815260200180612ff5602f913960400191505060405180910390fd5b610f218282612092565b6001600160a01b038216600090815260016020526040812061102790836120fb565b90505b92915050565b611038611dc2565b6001600160a01b0316816001600160a01b0316146110875760405162461bcd60e51b815260040180806020018281038252602f8152602001806132ce602f913960400191505060405180910390fd5b610f218282612107565b600a5460ff166110df576040805162461bcd60e51b815260206004820152601460248201527314185d5cd8589b194e881b9bdd081c185d5cd95960621b604482015290519081900360640190fd5b61110b7f375af72e98626b8c328e8df43813527285e7872665324182365ef80f7ae9a3d2610ec1611dc2565b611153576040805162461bcd60e51b81526020600482015260146024820152734d757374206861766520706175736520726f6c6560601b604482015290519081900360640190fd5b61115b612170565b565b610dd383838360405180602001604052806000815250611853565b611183610f41611dc2565b6111d4576040805162461bcd60e51b815260206004820181905260248201527f63616c6c6572206973206e6f74206f776e6572206e6f7220617070726f766564604482015290519081900360640190fd5b6111dd8161220e565b6111e5611dc2565b6001600160a01b03167fcc16f5dbb4873280815c1ee09dbd06736cffcc184412cf7a71a0fdb75d397ca5826040518082815260200191505060405180910390a250565b6000806112366002846122db565b509392505050565b61126a7fcf1e7e3bee0e3167872271ce5d51dcec9a6ad0ff65a358daa0e5988775cca4e9610ec1611dc2565b6112bb576040805162461bcd60e51b815260206004820152601f60248201527f4d75737420686176652075706461746520746f6b656e2075726920726f6c6500604482015290519081900360640190fd5b6112c4816122f7565b50565b600a5460ff1690565b600061102a8260405180606001604052806029815260200161315e602991396002919061230a565b600e546001600160a01b031681565b60098054604080516020601f6002600019610100600188161502019095169490940493840181900481028201810190925282815260609390929091830182828015610c915780601f10610c6657610100808354040283529160200191610c91565b60006001600160a01b0382166113af5760405162461bcd60e51b815260040180806020018281038252602a815260200180613134602a913960400191505060405180910390fd5b6001600160a01b038216600090815260016020526040902061102a90611e97565b6113d8611dc2565b600c546001600160a01b0390811691161461143a576040805162461bcd60e51b815260206004820181905260248201527f4f776e61626c653a2063616c6c6572206973206e6f7420746865206f776e6572604482015290519081900360640190fd5b600c546040516000916001600160a01b0316907f8be0079c531659141344cd1fd0a4f28419497f9722a3daafe3b4186f6b6457e0908390a3600c80546001600160a01b0319169055565b600d5481565b7fcf1e7e3bee0e3167872271ce5d51dcec9a6ad0ff65a358daa0e5988775cca4e981565b600a5460ff16156114f9576040805162461bcd60e51b815260206004820152601060248201526f14185d5cd8589b194e881c185d5cd95960821b604482015290519081900360640190fd5b6115257f375af72e98626b8c328e8df43813527285e7872665324182365ef80f7ae9a3d2610ec1611dc2565b61156d576040805162461bcd60e51b81526020600482015260146024820152734d757374206861766520706175736520726f6c6560601b604482015290519081900360640190fd5b61115b612321565b600c546001600160a01b031690565b6000828152600b6020526040812061102790836120fb565b6000828152600b6020526040812061102790836123a2565b6115bc611dc2565b600c546001600160a01b0390811691161461161e576040805162461bcd60e51b815260206004820181905260248201527f4f776e61626c653a2063616c6c6572206973206e6f7420746865206f776e6572604482015290519081900360640190fd5b80600f541415611667576040805162461bcd60e51b815260206004820152600f60248201526e4e6f74206e6565642075706461746560881b604482015290519081900360640190fd5b61166f611dc2565b6001600160a01b03167f5333df160d2d64e9a08458ca4dbcffa141c7b398a94ec77e02960c4478ab268e600f5483604051808381526020018281526020019250505060405180910390a2600f55565b60078054604080516020601f6002600019610100600188161502019095169490940493840181900481028201810190925282815260609390929091830182828015610c915780601f10610c6657610100808354040283529160200191610c91565b600081565b61172c611dc2565b6001600160a01b0316826001600160a01b03161415611792576040805162461bcd60e51b815260206004820152601960248201527f4552433732313a20617070726f766520746f2063616c6c657200000000000000604482015290519081900360640190fd5b806005600061179f611dc2565b6001600160a01b03908116825260208083019390935260409182016000908120918716808252919093529120805460ff1916921515929092179091556117e3611dc2565b6001600160a01b03167f17307eab39ab6107e8899845ad3d59bd9653f200f220920489ca2b5937696c318360405180821515815260200191505060405180910390a35050565b600f5481565b7f375af72e98626b8c328e8df43813527285e7872665324182365ef80f7ae9a3d281565b61186461185e611dc2565b83611ea2565b61189f5760405162461bcd60e51b815260040180806020018281038252603181526020018061327a6031913960400191505060405180910390fd5b6118ab848484846123b7565b50505050565b60606118bc82611db5565b6118f75760405162461bcd60e51b815260040180806020018281038252602f81526020018061322a602f913960400191505060405180910390fd5b60008281526008602090815260409182902080548351601f600260001961010060018616150201909316929092049182018490048402810184019094528084526060939283018282801561198c5780601f106119615761010080835404028352916020019161198c565b820191906000526020600020905b81548152906001019060200180831161196f57829003601f168201915b5050600954939450505050600260001961010060018416150201909116046119b5579050610c00565b805115611a86576009816040516020018083805460018160011615610100020316600290048015611a1d5780601f106119fb576101008083540402835291820191611a1d565b820191906000526020600020905b815481529060010190602001808311611a09575b5050825160208401908083835b60208310611a495780518252601f199092019160209182019101611a2a565b6001836020036101000a03801982511681845116808217855250505050505090500192505050604051602081830303815290604052915050610c00565b6009611a9184612409565b6040516020018083805460018160011615610100020316600290048015611aef5780601f10611acd576101008083540402835291820191611aef565b820191906000526020600020905b815481529060010190602001808311611adb575b5050825160208401908083835b60208310611b1b5780518252601f199092019160209182019101611afc565b6001836020036101000a03801982511681845116808217855250505050505090500192505050604051602081830303815290604052915050919050565b6000818152600b6020526040812061102a90611e97565b6000600f54341015611bbc576040805162461bcd60e51b81526020600482015260116024820152706d73672076616c756520746f6f206c6f7760781b604482015290519081900360640190fd5b600e54600f54611bd5916001600160a01b0316906124e4565b50600d54611be383826125d7565b600d80546001019055611bf68183611e34565b600f5434111561102a5761102a33600f5434036124e4565b6000828152600b6020526040902060020154611c2c90610ec1611dc2565b6110875760405162461bcd60e51b81526004018080602001828103825260308152602001806130cc6030913960400191505060405180910390fd5b6001600160a01b03918216600090815260056020908152604080832093909416825291909152205460ff1690565b611c9d611dc2565b600c546001600160a01b03908116911614611cff576040805162461bcd60e51b815260206004820181905260248201527f4f776e61626c653a2063616c6c6572206973206e6f7420746865206f776e6572604482015290519081900360640190fd5b6001600160a01b038116611d445760405162461bcd60e51b81526004018080602001828103825260268152602001806130566026913960400191505060405180910390fd5b600c546040516001600160a01b038084169216907f8be0079c531659141344cd1fd0a4f28419497f9722a3daafe3b4186f6b6457e090600090a3600c80546001600160a01b0319166001600160a01b0392909216919091179055565b6000611027836001600160a01b038416612705565b600061102a60028361274f565b3390565b600081815260046020526040902080546001600160a01b0319166001600160a01b0384169081179091558190611dfb826112d0565b6001600160a01b03167f8c5be1e5ebec7d5bd14f71427d1e84f3dd0314c0f7b2291e5b200ac8c7c3b92560405160405180910390a45050565b611e3d82611db5565b611e785760405162461bcd60e51b815260040180806020018281038252602c8152602001806131d5602c913960400191505060405180910390fd5b60008281526008602090815260409091208251610dd392840190612ed4565b600061102a8261275b565b6000611ead82611db5565b611ee85760405162461bcd60e51b815260040180806020018281038252602c8152602001806130a0602c913960400191505060405180910390fd5b6000611ef3836112d0565b9050806001600160a01b0316846001600160a01b03161480611f2e5750836001600160a01b0316611f2384610c9b565b6001600160a01b0316145b80611f3e5750611f3e8185611c67565b949350505050565b826001600160a01b0316611f59826112d0565b6001600160a01b031614611f9e5760405162461bcd60e51b81526004018080602001828103825260298152602001806132016029913960400191505060405180910390fd5b6001600160a01b038216611fe35760405162461bcd60e51b815260040180806020018281038252602481526020018061307c6024913960400191505060405180910390fd5b611fee83838361275f565b611ff9600082611dc6565b6001600160a01b038316600090815260016020526040902061201b90826127ae565b506001600160a01b038216600090815260016020526040902061203e90826127ba565b5061204b600282846127c6565b5080826001600160a01b0316846001600160a01b03167fddf252ad1be2c89b69c2b068fc378daa952ba7f163c4a11628f55a4df523b3ef60405160405180910390a4505050565b6000828152600b602052604090206120aa9082611da0565b15610f21576120b7611dc2565b6001600160a01b0316816001600160a01b0316837f2f8788117e7eff1d82e926ec794901d17c78024a50270940304540a733656f0d60405160405180910390a45050565b600061102783836127dc565b6000828152600b6020526040902061211f9082612840565b15610f215761212c611dc2565b6001600160a01b0316816001600160a01b0316837ff6391f5c32d9c69d2a47ea670b442974b53935d1edc7fd64eb21e047a839171b60405160405180910390a45050565b600a5460ff166121be576040805162461bcd60e51b815260206004820152601460248201527314185d5cd8589b194e881b9bdd081c185d5cd95960621b604482015290519081900360640190fd5b600a805460ff191690557f5db9ee0a495bf2e6ff9c91a7834c1ba4fdd244a5e8aa4e537bd38aeae4b073aa6121f1611dc2565b604080516001600160a01b039092168252519081900360200190a1565b6000612219826112d0565b90506122278160008461275f565b612232600083611dc6565b600082815260086020526040902054600260001961010060018416150201909116041561227057600082815260086020526040812061227091612f52565b6001600160a01b038116600090815260016020526040902061229290836127ae565b5061229e600283612855565b5060405182906000906001600160a01b038416907fddf252ad1be2c89b69c2b068fc378daa952ba7f163c4a11628f55a4df523b3ef908390a45050565b60008080806122ea8686612861565b9097909650945050505050565b8051610f21906009906020840190612ed4565b60006123178484846128dc565b90505b9392505050565b600a5460ff161561236c576040805162461bcd60e51b815260206004820152601060248201526f14185d5cd8589b194e881c185d5cd95960821b604482015290519081900360640190fd5b600a805460ff191660011790557f62e78cea01bee320cd4e420270b5ea74000d11b0c9f74754ebdbfc544b05a2586121f1611dc2565b6000611027836001600160a01b0384166129a6565b6123c2848484611f46565b6123ce848484846129be565b6118ab5760405162461bcd60e51b81526004018080602001828103825260328152602001806130246032913960400191505060405180910390fd5b60608161242e57506040805180820190915260018152600360fc1b6020820152610c00565b8160005b811561244657600101600a82049150612432565b60608167ffffffffffffffff8111801561245f57600080fd5b506040519080825280601f01601f19166020018201604052801561248a576020820181803683370190505b50859350905060001982015b83156124db57600a840660300160f81b828280600190039350815181106124b957fe5b60200101906001600160f81b031916908160001a905350600a84049350612496565b50949350505050565b604080516000808252602082019092526001600160a01b0384169083906040518082805190602001908083835b602083106125305780518252601f199092019160209182019101612511565b6001836020036101000a03801982511681845116808217855250505050505090500191505060006040518083038185875af1925050503d8060008114612592576040519150601f19603f3d011682016040523d82523d6000602084013e612597565b606091505b5050905080610dd35760405162461bcd60e51b81526004018080602001828103825260238152602001806132ab6023913960400191505060405180910390fd5b6001600160a01b038216612632576040805162461bcd60e51b815260206004820181905260248201527f4552433732313a206d696e7420746f20746865207a65726f2061646472657373604482015290519081900360640190fd5b61263b81611db5565b1561268d576040805162461bcd60e51b815260206004820152601c60248201527f4552433732313a20746f6b656e20616c7265616479206d696e74656400000000604482015290519081900360640190fd5b6126996000838361275f565b6001600160a01b03821660009081526001602052604090206126bb90826127ba565b506126c8600282846127c6565b5060405181906001600160a01b038416906000907fddf252ad1be2c89b69c2b068fc378daa952ba7f163c4a11628f55a4df523b3ef908290a45050565b600061271183836129a6565b6127475750815460018181018455600084815260208082209093018490558454848252828601909352604090209190915561102a565b50600061102a565b600061102783836129a6565b5490565b61276a838383610dd3565b6127726112c7565b15610dd35760405162461bcd60e51b815260040180806020018281038252602b815260200180612fca602b913960400191505060405180910390fd5b60006110278383612b26565b60006110278383612705565b600061231784846001600160a01b038516612bec565b8154600090821061281e5760405162461bcd60e51b8152600401808060200182810382526022815260200180612fa86022913960400191505060405180910390fd5b82600001828154811061282d57fe5b9060005260206000200154905092915050565b6000611027836001600160a01b038416612b26565b60006110278383612c83565b8154600090819083106128a55760405162461bcd60e51b81526004018080602001828103825260228152602001806131876022913960400191505060405180910390fd5b60008460000184815481106128b657fe5b906000526020600020906002020190508060000154816001015492509250509250929050565b600082815260018401602052604081205482816129775760405162461bcd60e51b81526004018080602001828103825283818151815260200191508051906020019080838360005b8381101561293c578181015183820152602001612924565b50505050905090810190601f1680156129695780820380516001836020036101000a031916815260200191505b509250505060405180910390fd5b5084600001600182038154811061298a57fe5b9060005260206000209060020201600101549150509392505050565b60009081526001919091016020526040902054151590565b60006129d2846001600160a01b0316612d57565b6129de57506001611f3e565b6060612aec630a85bd0160e11b6129f3611dc2565b88878760405160240180856001600160a01b03168152602001846001600160a01b0316815260200183815260200180602001828103825283818151815260200191508051906020019080838360005b83811015612a5a578181015183820152602001612a42565b50505050905090810190601f168015612a875780820380516001836020036101000a031916815260200191505b5095505050505050604051602081830303815290604052906001600160e01b0319166020820180516001600160e01b038381831617835250505050604051806060016040528060328152602001613024603291396001600160a01b0388169190612d5d565b90506000818060200190516020811015612b0557600080fd5b50516001600160e01b031916630a85bd0160e11b1492505050949350505050565b60008181526001830160205260408120548015612be25783546000198083019190810190600090879083908110612b5957fe5b9060005260206000200154905080876000018481548110612b7657fe5b600091825260208083209091019290925582815260018981019092526040902090840190558654879080612ba657fe5b6001900381819060005260206000200160009055905586600101600087815260200190815260200160002060009055600194505050505061102a565b600091505061102a565b600082815260018401602052604081205480612c5157505060408051808201825283815260208082018481528654600181810189556000898152848120955160029093029095019182559151908201558654868452818801909252929091205561231a565b82856000016001830381548110612c6457fe5b906000526020600020906002020160010181905550600091505061231a565b60008181526001830160205260408120548015612be25783546000198083019190810190600090879083908110612cb657fe5b9060005260206000209060020201905080876000018481548110612cd657fe5b600091825260208083208454600290930201918255600193840154918401919091558354825289830190526040902090840190558654879080612d1557fe5b600082815260208082206002600019909401938402018281556001908101839055929093558881528982019092526040822091909155945061102a9350505050565b3b151590565b606061231784846000856060612d7285612d57565b612dc3576040805162461bcd60e51b815260206004820152601d60248201527f416464726573733a2063616c6c20746f206e6f6e2d636f6e7472616374000000604482015290519081900360640190fd5b60006060866001600160a01b031685876040518082805190602001908083835b60208310612e025780518252601f199092019160209182019101612de3565b6001836020036101000a03801982511681845116808217855250505050505090500191505060006040518083038185875af1925050503d8060008114612e64576040519150601f19603f3d011682016040523d82523d6000602084013e612e69565b606091505b50915091508115612e7d579150611f3e9050565b805115612e8d5780518082602001fd5b60405162461bcd60e51b815260206004820181815286516024840152865187939192839260440191908501908083836000831561293c578181015183820152602001612924565b828054600181600116156101000203166002900490600052602060002090601f016020900481019282601f10612f1557805160ff1916838001178555612f42565b82800160010185558215612f42579182015b82811115612f42578251825591602001919060010190612f27565b50612f4e929150612f92565b5090565b50805460018160011615610100020316600290046000825580601f10612f7857506112c4565b601f0160209004906000526020600020908101906112c491905b5b80821115612f4e5760008155600101612f9356fe456e756d657261626c655365743a20696e646578206f7574206f6620626f756e64734552433732315061757361626c653a20746f6b656e207472616e73666572207768696c6520706175736564416363657373436f6e74726f6c3a2073656e646572206d75737420626520616e2061646d696e20746f206772616e744552433732313a207472616e7366657220746f206e6f6e20455243373231526563656976657220696d706c656d656e7465724f776e61626c653a206e6577206f776e657220697320746865207a65726f20616464726573734552433732313a207472616e7366657220746f20746865207a65726f20616464726573734552433732313a206f70657261746f7220717565727920666f72206e6f6e6578697374656e7420746f6b656e416363657373436f6e74726f6c3a2073656e646572206d75737420626520616e2061646d696e20746f207265766f6b654552433732313a20617070726f76652063616c6c6572206973206e6f74206f776e6572206e6f7220617070726f76656420666f7220616c6c4552433732313a2062616c616e636520717565727920666f7220746865207a65726f20616464726573734552433732313a206f776e657220717565727920666f72206e6f6e6578697374656e7420746f6b656e456e756d657261626c654d61703a20696e646578206f7574206f6620626f756e64734552433732313a20617070726f76656420717565727920666f72206e6f6e6578697374656e7420746f6b656e4552433732314d657461646174613a2055524920736574206f66206e6f6e6578697374656e7420746f6b656e4552433732313a207472616e73666572206f6620746f6b656e2074686174206973206e6f74206f776e4552433732314d657461646174613a2055524920717565727920666f72206e6f6e6578697374656e7420746f6b656e4552433732313a20617070726f76616c20746f2063757272656e74206f776e65724552433732313a207472616e736665722063616c6c6572206973206e6f74206f776e6572206e6f7220617070726f7665645472616e7366657248656c7065723a204554485f5452414e534645525f4641494c4544416363657373436f6e74726f6c3a2063616e206f6e6c792072656e6f756e636520726f6c657320666f722073656c66a2646970667358221220cd378d6b04fbffb09c65be0cab4bb0a18fccf978d1492b818d0aee382a9ccdf764736f6c634300060c0033"}}