{"compiler":"v0.6.12+commit.27d51765","opcodeHash":"0x90dcaed0b7d180b6ef710cf8c54e6efbd4c6b3bb4fd919cb303c4310f4d8fba4","metalessHash":"0x1d3974b70f5894128fd5708d7b5a81bf5bb395eb95705bb280709887b6aa7689","runtimeHash":"0x366394e288880beb5faa29a08d70373d8b5bb56d714b731a9920221611eecc2d","encodedMetadata":[{"ipfs":"/ipfs/QmcBRxwmS9L9KMH1vcJYH9ugxCSdUbSUDFQw89HhXag2dE","solc":"0.6.12"}],"abi":[{"inputs":[{"internalType":"contract IERC20","name":"token","type":"address"},{"internalType":"uint256","name":"releaseTimestamp","type":"uint256"}],"stateMutability":"nonpayable","type":"constructor"},{"anonymous":false,"inputs":[{"indexed":false,"internalType":"address","name":"destination","type":"address"},{"indexed":false,"internalType":"uint256","name":"amount","type":"uint256"}],"name":"Claimed","type":"event"},{"anonymous":false,"inputs":[{"indexed":true,"internalType":"address","name":"previousOwner","type":"address"},{"indexed":true,"internalType":"address","name":"newOwner","type":"address"}],"name":"OwnershipTransferred","type":"event"},{"inputs":[],"name":"_releaseTimestamp","outputs":[{"internalType":"uint256","name":"","type":"uint256"}],"stateMutability":"view","type":"function"},{"inputs":[],"name":"_token","outputs":[{"internalType":"contract IERC20","name":"","type":"address"}],"stateMutability":"view","type":"function"},{"inputs":[],"name":"claim","outputs":[],"stateMutability":"nonpayable","type":"function"},{"inputs":[],"name":"owner","outputs":[{"internalType":"address","name":"","type":"address"}],"stateMutability":"view","type":"function"},{"inputs":[{"internalType":"address","name":"account","type":"address"}],"name":"pendingClaim","outputs":[{"internalType":"uint256","name":"","type":"uint256"}],"stateMutability":"view","type":"function"},{"inputs":[],"name":"renounceOwnership","outputs":[],"stateMutability":"nonpayable","type":"function"},{"inputs":[{"internalType":"address[]","name":"recipients","type":"address[]"},{"internalType":"uint256[]","name":"values","type":"uint256[]"}],"name":"setBeneficiaries","outputs":[],"stateMutability":"nonpayable","type":"function"},{"inputs":[{"internalType":"uint256","name":"releaseTimestamp","type":"uint256"}],"name":"setReleaseTimestamp","outputs":[],"stateMutability":"nonpayable","type":"function"},{"inputs":[{"internalType":"contract IERC20","name":"token","type":"address"},{"internalType":"uint256","name":"amount","type":"uint256"},{"internalType":"address","name":"to","type":"address"}],"name":"transfer","outputs":[{"internalType":"bool","name":"","type":"bool"}],"stateMutability":"nonpayable","type":"function"},{"inputs":[{"internalType":"address","name":"newOwner","type":"address"}],"name":"transferOwnership","outputs":[],"stateMutability":"nonpayable","type":"function"}],"bytecode":{"object":"608060405234801561001057600080fd5b50604051610b0e380380610b0e8339818101604052604081101561003357600080fd5b50805160209091015160006100466100b9565b600080546001600160a01b0319166001600160a01b0383169081178255604051929350917f8be0079c531659141344cd1fd0a4f28419497f9722a3daafe3b4186f6b6457e0908290a350600280546001600160a01b0319166001600160a01b0393909316929092179091556001556100bd565b3390565b610a42806100cc6000396000f3fe608060405234801561001057600080fd5b506004361061009e5760003560e01c80638da5cb5b116100665780638da5cb5b146101cc578063cec4b83a146101f0578063dbba0f01146101f8578063ecd0c0c314610242578063f2fde38b1461024a5761009e565b8063065dc4c1146100a35780630ef4b248146101675780634c1dc4f71461019f5780634e71d92d146101bc578063715018a6146101c4575b600080fd5b610165600480360360408110156100b957600080fd5b8101906020810181356401000000008111156100d457600080fd5b8201836020820111156100e657600080fd5b8035906020019184602083028401116401000000008311171561010857600080fd5b91939092909160208101903564010000000081111561012657600080fd5b82018360208201111561013857600080fd5b8035906020019184602083028401116401000000008311171561015a57600080fd5b509092509050610270565b005b61018d6004803603602081101561017d57600080fd5b50356001600160a01b0316610328565b60408051918252519081900360200190f35b610165600480360360208110156101b557600080fd5b5035610343565b6101656103a0565b6101656105ff565b6101d46106a1565b604080516001600160a01b039092168252519081900360200190f35b61018d6106b0565b61022e6004803603606081101561020e57600080fd5b506001600160a01b038135811691602081013591604090910135166106b6565b604080519115158252519081900360200190f35b6101d4610852565b6101656004803603602081101561026057600080fd5b50356001600160a01b0316610861565b610278610959565b6000546001600160a01b039081169116146102c8576040805162461bcd60e51b815260206004820181905260248201526000805160206109b1833981519152604482015290519081900360640190fd5b60005b83811015610321578282828181106102df57fe5b90506020020135600360008787858181106102f657fe5b602090810292909201356001600160a01b0316835250810191909152604001600020556001016102cb565b5050505050565b6001600160a01b031660009081526003602052604090205490565b61034b610959565b6000546001600160a01b0390811691161461039b576040805162461bcd60e51b815260206004820181905260248201526000805160206109b1833981519152604482015290519081900360640190fd5b600155565b60015442116103f6576040805162461bcd60e51b815260206004820152601760248201527f546f6b656e73206e6f74207965742072656c6561736564000000000000000000604482015290519081900360640190fd5b33600090815260036020526040902054610457576040805162461bcd60e51b815260206004820152601c60248201527f53656e646572206973206e6f742064756520616e7920746f6b656e7300000000604482015290519081900360640190fd5b336000908152600360209081526040918290205460025483516370a0823160e01b8152306004820152935191936001600160a01b03909116926370a0823192602480840193829003018186803b1580156104b057600080fd5b505afa1580156104c4573d6000803e3d6000fd5b505050506040513d60208110156104da57600080fd5b505110156105195760405162461bcd60e51b815260040180806020018281038252603c8152602001806109d1603c913960400191505060405180910390fd5b60025433600081815260036020908152604080832054815163a9059cbb60e01b815260048101959095526024850152516001600160a01b039094169363a9059cbb93604480820194918390030190829087803b15801561057857600080fd5b505af115801561058c573d6000803e3d6000fd5b505050506040513d60208110156105a257600080fd5b5050336000818152600360209081526040918290205482519384529083015280517fd8138f8a3f377c5259ca548e70e4c2de94f129f5a11036a15b69513cba2b426a9281900390910190a133600090815260036020526040812055565b610607610959565b6000546001600160a01b03908116911614610657576040805162461bcd60e51b815260206004820181905260248201526000805160206109b1833981519152604482015290519081900360640190fd5b600080546040516001600160a01b03909116907f8be0079c531659141344cd1fd0a4f28419497f9722a3daafe3b4186f6b6457e0908390a3600080546001600160a01b0319169055565b6000546001600160a01b031690565b60015481565b60006106c0610959565b6000546001600160a01b03908116911614610710576040805162461bcd60e51b815260206004820181905260248201526000805160206109b1833981519152604482015290519081900360640190fd5b82846001600160a01b03166370a08231306040518263ffffffff1660e01b815260040180826001600160a01b0316815260200191505060206040518083038186803b15801561075e57600080fd5b505afa158015610772573d6000803e3d6000fd5b505050506040513d602081101561078857600080fd5b505110156107c75760405162461bcd60e51b815260040180806020018281038252602d815260200180610984602d913960400191505060405180910390fd5b836001600160a01b031663a9059cbb83856040518363ffffffff1660e01b815260040180836001600160a01b0316815260200182815260200192505050602060405180830381600087803b15801561081e57600080fd5b505af1158015610832573d6000803e3d6000fd5b505050506040513d602081101561084857600080fd5b5051949350505050565b6002546001600160a01b031681565b610869610959565b6000546001600160a01b039081169116146108b9576040805162461bcd60e51b815260206004820181905260248201526000805160206109b1833981519152604482015290519081900360640190fd5b6001600160a01b0381166108fe5760405162461bcd60e51b815260040180806020018281038252602681526020018061095e6026913960400191505060405180910390fd5b600080546040516001600160a01b03808516939216917f8be0079c531659141344cd1fd0a4f28419497f9722a3daafe3b4186f6b6457e091a3600080546001600160a01b0319166001600160a01b0392909216919091179055565b339056fe4f776e61626c653a206e6577206f776e657220697320746865207a65726f2061646472657373496e737566666963656e742062616c616e636520746f207472616e7366657220746f6b656e20616d6f756e742e4f776e61626c653a2063616c6c6572206973206e6f7420746865206f776e6572496e737566666963656e7420636f6e74726163742062616c616e636520746f206d616b6520636c61696d2c2074727920616761696e206c617465722ea264697066735822122014eebb48542c4a7b8d92b2369d8c4db3f181e85bcee1a8e4f4066975f6f9580864736f6c634300060c0033"}}