{"compiler":"v0.6.2+commit.bacdbe57","opcodeHash":"0x3189957b5abda6e5b7f5fe339fcd76ec44dac0d6c7a7e1d16b629c29f7c5860a","metalessHash":"0x18365a153db435584eadfb9de87c0e3602b96c8af3000fd1dc94fdb4c8875adc","runtimeHash":"0x7b74bf419ce0b27a069f1a6be7235c55a8b972d6b5240443489924a6e05f2911","encodedMetadata":[{"ipfs":"/ipfs/QmNtpyZixiJsBUXSLn71bJLAnu7rMoaXmZSdiLbddu7BDC","solc":"0.6.2"}],"abi":[{"inputs":[{"internalType":"string","name":"name","type":"string"},{"internalType":"string","name":"symbol","type":"string"}],"stateMutability":"nonpayable","type":"constructor"},{"anonymous":false,"inputs":[{"indexed":true,"internalType":"address","name":"owner","type":"address"},{"indexed":true,"internalType":"address","name":"spender","type":"address"},{"indexed":false,"internalType":"uint256","name":"value","type":"uint256"}],"name":"Approval","type":"event"},{"anonymous":false,"inputs":[{"indexed":true,"internalType":"address","name":"from","type":"address"},{"indexed":true,"internalType":"address","name":"to","type":"address"},{"indexed":false,"internalType":"uint256","name":"value","type":"uint256"}],"name":"Transfer","type":"event"},{"stateMutability":"payable","type":"fallback"},{"inputs":[{"internalType":"address","name":"user","type":"address"},{"internalType":"uint256","name":"amount","type":"uint256"}],"name":"adminBurn","outputs":[{"internalType":"bool","name":"","type":"bool"}],"stateMutability":"nonpayable","type":"function"},{"inputs":[{"internalType":"uint256","name":"amount","type":"uint256"}],"name":"adminWithdraw","outputs":[{"internalType":"bool","name":"","type":"bool"}],"stateMutability":"nonpayable","type":"function"},{"inputs":[],"name":"airdropCount","outputs":[{"internalType":"uint8","name":"","type":"uint8"}],"stateMutability":"view","type":"function"},{"inputs":[{"internalType":"address","name":"owner","type":"address"},{"internalType":"address","name":"spender","type":"address"}],"name":"allowance","outputs":[{"internalType":"uint256","name":"","type":"uint256"}],"stateMutability":"view","type":"function"},{"inputs":[{"internalType":"address","name":"spender","type":"address"},{"internalType":"uint256","name":"amount","type":"uint256"}],"name":"approve","outputs":[{"internalType":"bool","name":"","type":"bool"}],"stateMutability":"nonpayable","type":"function"},{"inputs":[{"internalType":"address","name":"account","type":"address"}],"name":"balanceOf","outputs":[{"internalType":"uint256","name":"","type":"uint256"}],"stateMutability":"view","type":"function"},{"inputs":[{"internalType":"address[]","name":"addrs","type":"address[]"},{"internalType":"uint256","name":"amount","type":"uint256"}],"name":"batchSend","outputs":[{"internalType":"bool","name":"","type":"bool"}],"stateMutability":"nonpayable","type":"function"},{"inputs":[{"internalType":"uint256","name":"amount","type":"uint256"}],"name":"burn","outputs":[{"internalType":"bool","name":"","type":"bool"}],"stateMutability":"nonpayable","type":"function"},{"inputs":[{"internalType":"uint256","name":"","type":"uint256"}],"name":"calendar","outputs":[{"internalType":"uint256","name":"","type":"uint256"}],"stateMutability":"view","type":"function"},{"inputs":[{"internalType":"uint256","name":"newTokenPrice","type":"uint256"}],"name":"changePrice","outputs":[{"internalType":"bool","name":"","type":"bool"}],"stateMutability":"nonpayable","type":"function"},{"inputs":[],"name":"decimals","outputs":[{"internalType":"uint8","name":"","type":"uint8"}],"stateMutability":"view","type":"function"},{"inputs":[{"internalType":"address","name":"spender","type":"address"},{"internalType":"uint256","name":"subtractedValue","type":"uint256"}],"name":"decreaseAllowance","outputs":[{"internalType":"bool","name":"","type":"bool"}],"stateMutability":"nonpayable","type":"function"},{"inputs":[],"name":"devCount","outputs":[{"internalType":"uint8","name":"","type":"uint8"}],"stateMutability":"view","type":"function"},{"inputs":[{"internalType":"address","name":"spender","type":"address"},{"internalType":"uint256","name":"addedValue","type":"uint256"}],"name":"increaseAllowance","outputs":[{"internalType":"bool","name":"","type":"bool"}],"stateMutability":"nonpayable","type":"function"},{"inputs":[],"name":"marketingCount","outputs":[{"internalType":"uint8","name":"","type":"uint8"}],"stateMutability":"view","type":"function"},{"inputs":[],"name":"name","outputs":[{"internalType":"string","name":"","type":"string"}],"stateMutability":"view","type":"function"},{"inputs":[],"name":"owner","outputs":[{"internalType":"address","name":"","type":"address"}],"stateMutability":"view","type":"function"},{"inputs":[],"name":"purchaseToken","outputs":[{"internalType":"bool","name":"","type":"bool"}],"stateMutability":"payable","type":"function"},{"inputs":[],"name":"releaseAirdrop","outputs":[{"internalType":"bool","name":"","type":"bool"}],"stateMutability":"nonpayable","type":"function"},{"inputs":[],"name":"releaseMarketing","outputs":[{"internalType":"bool","name":"","type":"bool"}],"stateMutability":"nonpayable","type":"function"},{"inputs":[],"name":"releaseTeam","outputs":[{"internalType":"bool","name":"","type":"bool"}],"stateMutability":"nonpayable","type":"function"},{"inputs":[],"name":"symbol","outputs":[{"internalType":"string","name":"","type":"string"}],"stateMutability":"view","type":"function"},{"inputs":[],"name":"teamShare","outputs":[{"internalType":"uint256","name":"","type":"uint256"}],"stateMutability":"view","type":"function"},{"inputs":[],"name":"tokenPrice","outputs":[{"internalType":"uint256","name":"","type":"uint256"}],"stateMutability":"view","type":"function"},{"inputs":[],"name":"tokenSale","outputs":[{"internalType":"uint256","name":"","type":"uint256"}],"stateMutability":"view","type":"function"},{"inputs":[],"name":"totalSupply","outputs":[{"internalType":"uint256","name":"","type":"uint256"}],"stateMutability":"view","type":"function"},{"inputs":[{"internalType":"address","name":"recipient","type":"address"},{"internalType":"uint256","name":"amount","type":"uint256"}],"name":"transfer","outputs":[{"internalType":"bool","name":"","type":"bool"}],"stateMutability":"nonpayable","type":"function"},{"inputs":[{"internalType":"address","name":"sender","type":"address"},{"internalType":"address","name":"recipient","type":"address"},{"internalType":"uint256","name":"amount","type":"uint256"}],"name":"transferFrom","outputs":[{"internalType":"bool","name":"","type":"bool"}],"stateMutability":"nonpayable","type":"function"},{"stateMutability":"payable","type":"receive"}],"bytecode":{"object":"6080604052732d41ddb7b3fd3759ab73cabb5251c781692e326f600560016101000a81548173ffffffffffffffffffffffffffffffffffffffff021916908373ffffffffffffffffffffffffffffffffffffffff16021790555069be951906eba2aa800000600655697f0e10af47c1c7000000600755600c600860006101000a81548160ff021916908360ff160217905550600c600860016101000a81548160ff021916908360ff1602179055506000600860026101000a81548160ff021916908360ff160217905550610708600955604051806105400160405280635f94c00063ffffffff168152602001635fbd9e8063ffffffff168152602001635fe52b8063ffffffff16815260200163600e0a0063ffffffff168152602001636036e88063ffffffff16815260200163605bd28063ffffffff168152602001636084b10063ffffffff1681526020016360ac3e0063ffffffff1681526020016360d51c8063ffffffff1681526020016360fca98063ffffffff168152602001636125880063ffffffff16815260200163614e668063ffffffff168152602001636175f38063ffffffff16815260200163619ed20063ffffffff1681526020016361c65f0063ffffffff1681526020016361ef3d8063ffffffff1681526020016362181c0063ffffffff16815260200163623d060063ffffffff168152602001636265e48063ffffffff16815260200163628d718063ffffffff1681526020016362b6500063ffffffff1681526020016362dddd0063ffffffff168152602001636306bb8063ffffffff16815260200163632f9a0063ffffffff168152602001636357270063ffffffff168152602001636380058063ffffffff1681526020016363a7928063ffffffff1681526020016363d0710063ffffffff1681526020016363f94f8063ffffffff16815260200163641e398063ffffffff168152602001636447180063ffffffff16815260200163646ea50063ffffffff168152602001636497838063ffffffff1681526020016364bf108063ffffffff1681526020016364e7ef0063ffffffff168152602001636510cd8063ffffffff1681526020016365385a8063ffffffff168152602001636561390063ffffffff168152602001636588c60063ffffffff1681526020016365b1a48063ffffffff1681526020016365da830063ffffffff168152602001636600be8063ffffffff16815250600a90602a6200038b929190620008c8565b503480156200039957600080fd5b5060405162002f7738038062002f7783398181016040526040811015620003bf57600080fd5b8101908080516040519392919084640100000000821115620003e057600080fd5b83820191506020820185811115620003f757600080fd5b82518660018202830111640100000000821117156200041557600080fd5b8083526020830192505050908051906020019080838360005b838110156200044b5780820151818401526020810190506200042e565b50505050905090810190601f168015620004795780820380516001836020036101000a031916815260200191505b50604052602001805160405193929190846401000000008211156200049d57600080fd5b83820191506020820185811115620004b457600080fd5b8251866001820283011164010000000082111715620004d257600080fd5b8083526020830192505050908051906020019080838360005b8381101562000508578082015181840152602081019050620004eb565b50505050905090810190601f168015620005365780820380516001836020036101000a031916815260200191505b5060405250505081816040518060400160405280600e81526020017f414e59535741502057414c4c4554000000000000000000000000000000000000815250600390805190602001906200058c92919062000915565b506040518060400160405280600381526020017f414e59000000000000000000000000000000000000000000000000000000000081525060049080519060200190620005da92919062000915565b506012600560006101000a81548160ff021916908360ff160217905550505062000616306a021bfbc6e8f0f78dc000006200065c60201b60201c565b62000654600560019054906101000a900473ffffffffffffffffffffffffffffffffffffffff16695f4a8c8375d1554000006200065c60201b60201c565b5050620009c4565b600073ffffffffffffffffffffffffffffffffffffffff168273ffffffffffffffffffffffffffffffffffffffff16141562000700576040517f08c379a000000000000000000000000000000000000000000000000000000000815260040180806020018281038252601f8152602001807f45524332303a206d696e7420746f20746865207a65726f20616464726573730081525060200191505060405180910390fd5b62000714600083836200083a60201b60201c565b62000730816002546200083f60201b62001f411790919060201c565b6002819055506200078e816000808573ffffffffffffffffffffffffffffffffffffffff1673ffffffffffffffffffffffffffffffffffffffff168152602001908152602001600020546200083f60201b62001f411790919060201c565b6000808473ffffffffffffffffffffffffffffffffffffffff1673ffffffffffffffffffffffffffffffffffffffff168152602001908152602001600020819055508173ffffffffffffffffffffffffffffffffffffffff16600073ffffffffffffffffffffffffffffffffffffffff167fddf252ad1be2c89b69c2b068fc378daa952ba7f163c4a11628f55a4df523b3ef836040518082815260200191505060405180910390a35050565b505050565b600080828401905083811015620008be576040517f08c379a000000000000000000000000000000000000000000000000000000000815260040180806020018281038252601b8152602001807f536166654d6174683a206164646974696f6e206f766572666c6f77000000000081525060200191505060405180910390fd5b8091505092915050565b82602a810192821562000902579160200282015b8281111562000901578251829063ffffffff16905591602001919060010190620008dc565b5b5090506200091191906200099c565b5090565b828054600181600116156101000203166002900490600052602060002090601f016020900481019282601f106200095857805160ff191683800117855562000989565b8280016001018555821562000989579182015b82811115620009885782518255916020019190600101906200096b565b5b5090506200099891906200099c565b5090565b620009c191905b80821115620009bd576000816000905550600101620009a3565b5090565b90565b6125a380620009d46000396000f3fe6080604052600436106101bb5760003560e01c806392b90569116100ec578063ae3a2d311161008a578063cf95833e11610064578063cf95833e14610b39578063dd62ed3e14610b68578063e952f74f14610bed578063ea6ef2fe14610c1e57610244565b8063ae3a2d3114610aac578063b942031014610add578063cebc141a14610b0857610244565b8063a457c2d7116100c6578063a457c2d7146108bd578063a9059cbb14610930578063a95c4d62146109a3578063aa2f5220146109c557610244565b806392b90569146107ab57806395d89b41146107da578063a2b40d191461086a57610244565b8063395093511161015957806370a082311161013357806370a08231146106715780637c5b4a37146106d65780637ff9b596146107295780638da5cb5b1461075457610244565b8063395093511461057c57806342966c68146105ef5780634dbc355a1461064257610244565b8063095ea7b311610195578063095ea7b31461041a57806318160ddd1461048d57806323b872dd146104b8578063313ce5671461054b57610244565b806305f1d8ad146102c857806306dd04191461031757806306fdde031461038a57610244565b36610244576009543402600654101561021f576040517f08c379a000000000000000000000000000000000000000000000000000000000815260040180806020018281038252603281526020018061245f6032913960400191505060405180910390fd5b61022e30336009543402610c49565b6009543402600660008282540392505081905550005b600954340260065410156102a3576040517f08c379a000000000000000000000000000000000000000000000000000000000815260040180806020018281038252603281526020018061245f6032913960400191505060405180910390fd5b6102b230336009543402610c49565b6009543402600660008282540392505081905550005b3480156102d457600080fd5b50610301600480360360208110156102eb57600080fd5b8101908080359060200190929190505050610f0a565b6040518082815260200191505060405180910390f35b34801561032357600080fd5b506103706004803603604081101561033a57600080fd5b81019080803573ffffffffffffffffffffffffffffffffffffffff16906020019092919080359060200190929190505050610f22565b604051808215151515815260200191505060405180910390f35b34801561039657600080fd5b5061039f610fde565b6040518080602001828103825283818151815260200191508051906020019080838360005b838110156103df5780820151818401526020810190506103c4565b50505050905090810190601f16801561040c5780820380516001836020036101000a031916815260200191505b509250505060405180910390f35b34801561042657600080fd5b506104736004803603604081101561043d57600080fd5b81019080803573ffffffffffffffffffffffffffffffffffffffff16906020019092919080359060200190929190505050611080565b604051808215151515815260200191505060405180910390f35b34801561049957600080fd5b506104a261109e565b6040518082815260200191505060405180910390f35b3480156104c457600080fd5b50610531600480360360608110156104db57600080fd5b81019080803573ffffffffffffffffffffffffffffffffffffffff169060200190929190803573ffffffffffffffffffffffffffffffffffffffff169060200190929190803590602001909291905050506110a8565b604051808215151515815260200191505060405180910390f35b34801561055757600080fd5b50610560611181565b604051808260ff1660ff16815260200191505060405180910390f35b34801561058857600080fd5b506105d56004803603604081101561059f57600080fd5b81019080803573ffffffffffffffffffffffffffffffffffffffff16906020019092919080359060200190929190505050611198565b604051808215151515815260200191505060405180910390f35b3480156105fb57600080fd5b506106286004803603602081101561061257600080fd5b810190808035906020019092919050505061124b565b604051808215151515815260200191505060405180910390f35b34801561064e57600080fd5b50610657611260565b604051808215151515815260200191505060405180910390f35b34801561067d57600080fd5b506106c06004803603602081101561069457600080fd5b81019080803573ffffffffffffffffffffffffffffffffffffffff1690602001909291905050506114ac565b6040518082815260200191505060405180910390f35b3480156106e257600080fd5b5061070f600480360360208110156106f957600080fd5b81019080803590602001909291905050506114f4565b604051808215151515815260200191505060405180910390f35b34801561073557600080fd5b5061073e61160b565b6040518082815260200191505060405180910390f35b34801561076057600080fd5b50610769611611565b604051808273ffffffffffffffffffffffffffffffffffffffff1673ffffffffffffffffffffffffffffffffffffffff16815260200191505060405180910390f35b3480156107b757600080fd5b506107c0611637565b604051808215151515815260200191505060405180910390f35b3480156107e657600080fd5b506107ef611868565b6040518080602001828103825283818151815260200191508051906020019080838360005b8381101561082f578082015181840152602081019050610814565b50505050905090810190601f16801561085c5780820380516001836020036101000a031916815260200191505b509250505060405180910390f35b34801561087657600080fd5b506108a36004803603602081101561088d57600080fd5b810190808035906020019092919050505061190a565b604051808215151515815260200191505060405180910390f35b3480156108c957600080fd5b50610916600480360360408110156108e057600080fd5b81019080803573ffffffffffffffffffffffffffffffffffffffff169060200190929190803590602001909291905050506119c2565b604051808215151515815260200191505060405180910390f35b34801561093c57600080fd5b506109896004803603604081101561095357600080fd5b81019080803573ffffffffffffffffffffffffffffffffffffffff16906020019092919080359060200190929190505050611a8f565b604051808215151515815260200191505060405180910390f35b6109ab611aad565b604051808215151515815260200191505060405180910390f35b3480156109d157600080fd5b50610a92600480360360408110156109e857600080fd5b8101908080359060200190640100000000811115610a0557600080fd5b820183602082011115610a1757600080fd5b80359060200191846020830284011164010000000083111715610a3957600080fd5b919080806020026020016040519081016040528093929190818152602001838360200280828437600081840152601f19601f82011690508083019250505050505050919291929080359060200190929190505050611b38565b604051808215151515815260200191505060405180910390f35b348015610ab857600080fd5b50610ac1611b7f565b604051808260ff1660ff16815260200191505060405180910390f35b348015610ae957600080fd5b50610af2611b92565b6040518082815260200191505060405180910390f35b348015610b1457600080fd5b50610b1d611b98565b604051808260ff1660ff16815260200191505060405180910390f35b348015610b4557600080fd5b50610b4e611bab565b604051808215151515815260200191505060405180910390f35b348015610b7457600080fd5b50610bd760048036036040811015610b8b57600080fd5b81019080803573ffffffffffffffffffffffffffffffffffffffff169060200190929190803573ffffffffffffffffffffffffffffffffffffffff169060200190929190505050611ddc565b6040518082815260200191505060405180910390f35b348015610bf957600080fd5b50610c02611e63565b604051808260ff1660ff16815260200191505060405180910390f35b348015610c2a57600080fd5b50610c33611e76565b6040518082815260200191505060405180910390f35b600073ffffffffffffffffffffffffffffffffffffffff168373ffffffffffffffffffffffffffffffffffffffff161415610ccf576040517f08c379a00000000000000000000000000000000000000000000000000000000081526004018080602001828103825260258152602001806125006025913960400191505060405180910390fd5b600073ffffffffffffffffffffffffffffffffffffffff168273ffffffffffffffffffffffffffffffffffffffff161415610d55576040517f08c379a00000000000000000000000000000000000000000000000000000000081526004018080602001828103825260238152602001806123d76023913960400191505060405180910390fd5b610d60838383611e7c565b610dcb81604051806060016040528060268152602001612491602691396000808773ffffffffffffffffffffffffffffffffffffffff1673ffffffffffffffffffffffffffffffffffffffff16815260200190815260200160002054611e819092919063ffffffff16565b6000808573ffffffffffffffffffffffffffffffffffffffff1673ffffffffffffffffffffffffffffffffffffffff16815260200190815260200160002081905550610e5e816000808573ffffffffffffffffffffffffffffffffffffffff1673ffffffffffffffffffffffffffffffffffffffff16815260200190815260200160002054611f4190919063ffffffff16565b6000808473ffffffffffffffffffffffffffffffffffffffff1673ffffffffffffffffffffffffffffffffffffffff168152602001908152602001600020819055508173ffffffffffffffffffffffffffffffffffffffff168373ffffffffffffffffffffffffffffffffffffffff167fddf252ad1be2c89b69c2b068fc378daa952ba7f163c4a11628f55a4df523b3ef836040518082815260200191505060405180910390a3505050565b600a81602a8110610f1757fe5b016000915090505481565b6000600560019054906101000a900473ffffffffffffffffffffffffffffffffffffffff1673ffffffffffffffffffffffffffffffffffffffff163373ffffffffffffffffffffffffffffffffffffffff1614610fca576040517f08c379a000000000000000000000000000000000000000000000000000000000815260040180806020018281038252602181526020018061241c6021913960400191505060405180910390fd5b610fd48383611fc9565b6001905092915050565b606060038054600181600116156101000203166002900480601f0160208091040260200160405190810160405280929190818152602001828054600181600116156101000203166002900480156110765780601f1061104b57610100808354040283529160200191611076565b820191906000526020600020905b81548152906001019060200180831161105957829003601f168201915b5050505050905090565b600061109461108d61218d565b8484612195565b6001905092915050565b6000600254905090565b60006110b5848484610c49565b611176846110c161218d565b611171856040518060600160405280602881526020016124b760289139600160008b73ffffffffffffffffffffffffffffffffffffffff1673ffffffffffffffffffffffffffffffffffffffff168152602001908152602001600020600061112761218d565b73ffffffffffffffffffffffffffffffffffffffff1673ffffffffffffffffffffffffffffffffffffffff16815260200190815260200160002054611e819092919063ffffffff16565b612195565b600190509392505050565b6000600560009054906101000a900460ff16905090565b60006112416111a561218d565b8461123c85600160006111b661218d565b73ffffffffffffffffffffffffffffffffffffffff1673ffffffffffffffffffffffffffffffffffffffff16815260200190815260200160002060008973ffffffffffffffffffffffffffffffffffffffff1673ffffffffffffffffffffffffffffffffffffffff16815260200190815260200160002054611f4190919063ffffffff16565b612195565b6001905092915050565b60006112573383611fc9565b60019050919050565b6000600560019054906101000a900473ffffffffffffffffffffffffffffffffffffffff1673ffffffffffffffffffffffffffffffffffffffff163373ffffffffffffffffffffffffffffffffffffffff1614611308576040517f08c379a000000000000000000000000000000000000000000000000000000000815260040180806020018281038252602181526020018061241c6021913960400191505060405180910390fd5b600a600860009054906101000a900460ff1660ff16602a811061132757fe5b0154421161139d576040517f08c379a00000000000000000000000000000000000000000000000000000000081526004018080602001828103825260168152602001807f54696d656c6f636b205374696c6c204163746976652e0000000000000000000081525060200191505060405180910390fd5b601b600860009054906101000a900460ff1660ff1610611425576040517f08c379a00000000000000000000000000000000000000000000000000000000081526004018080602001828103825260158152602001807f446973747269627574696f6e20436f6d706c657465000000000000000000000081525060200191505060405180910390fd5b6003600860008282829054906101000a900460ff160192506101000a81548160ff021916908360ff16021790555061147c3073891eb5344e8363fce2138b42d9cac7e2a88b26f2690cb49b44ba602d800000610c49565b6114a53073b98797a5df4efbe50fe39fd1ffd87512bd1b03bc690cb49b44ba602d800000610c49565b6001905090565b60008060008373ffffffffffffffffffffffffffffffffffffffff1673ffffffffffffffffffffffffffffffffffffffff168152602001908152602001600020549050919050565b6000600560019054906101000a900473ffffffffffffffffffffffffffffffffffffffff1673ffffffffffffffffffffffffffffffffffffffff163373ffffffffffffffffffffffffffffffffffffffff161461159c576040517f08c379a000000000000000000000000000000000000000000000000000000000815260040180806020018281038252602181526020018061241c6021913960400191505060405180910390fd5b3373ffffffffffffffffffffffffffffffffffffffff168260405180600001905060006040518083038185875af1925050503d80600081146115fa576040519150601f19603f3d011682016040523d82523d6000602084013e6115ff565b606091505b50505060019050919050565b60095481565b600560019054906101000a900473ffffffffffffffffffffffffffffffffffffffff1681565b6000600560019054906101000a900473ffffffffffffffffffffffffffffffffffffffff1673ffffffffffffffffffffffffffffffffffffffff163373ffffffffffffffffffffffffffffffffffffffff16146116df576040517f08c379a000000000000000000000000000000000000000000000000000000000815260040180806020018281038252602181526020018061241c6021913960400191505060405180910390fd5b600a600860029054906101000a900460ff1660ff16602a81106116fe57fe5b01544211611774576040517f08c379a00000000000000000000000000000000000000000000000000000000081526004018080602001828103825260168152602001807f54696d656c6f636b205374696c6c204163746976652e0000000000000000000081525060200191505060405180910390fd5b6018600860029054906101000a900460ff1660ff16106117fc576040517f08c379a00000000000000000000000000000000000000000000000000000000081526004018080602001828103825260158152602001807f446973747269627574696f6e20436f6d706c657465000000000000000000000081525060200191505060405180910390fd5b6001600860028282829054906101000a900460ff160192506101000a81548160ff021916908360ff16021790555061186130600560019054906101000a900473ffffffffffffffffffffffffffffffffffffffff166903f870857a3e0e380000610c49565b6001905090565b606060048054600181600116156101000203166002900480601f0160208091040260200160405190810160405280929190818152602001828054600181600116156101000203166002900480156119005780601f106118d557610100808354040283529160200191611900565b820191906000526020600020905b8154815290600101906020018083116118e357829003601f168201915b5050505050905090565b6000600560019054906101000a900473ffffffffffffffffffffffffffffffffffffffff1673ffffffffffffffffffffffffffffffffffffffff163373ffffffffffffffffffffffffffffffffffffffff16146119b2576040517f08c379a000000000000000000000000000000000000000000000000000000000815260040180806020018281038252602181526020018061241c6021913960400191505060405180910390fd5b8160098190555060019050919050565b6000611a856119cf61218d565b84611a808560405180606001604052806025815260200161254960259139600160006119f961218d565b73ffffffffffffffffffffffffffffffffffffffff1673ffffffffffffffffffffffffffffffffffffffff16815260200190815260200160002060008a73ffffffffffffffffffffffffffffffffffffffff1673ffffffffffffffffffffffffffffffffffffffff16815260200190815260200160002054611e819092919063ffffffff16565b612195565b6001905092915050565b6000611aa3611a9c61218d565b8484610c49565b6001905092915050565b600060095434026006541015611b0e576040517f08c379a000000000000000000000000000000000000000000000000000000000815260040180806020018281038252603281526020018061245f6032913960400191505060405180910390fd5b611b1d30336009543402610c49565b60095434026006600082825403925050819055506001905090565b600080600090505b8351811015611b7457611b66848281518110611b5857fe5b602002602001015184611a8f565b508080600101915050611b40565b506001905092915050565b600860019054906101000a900460ff1681565b60065481565b600860009054906101000a900460ff1681565b6000600560019054906101000a900473ffffffffffffffffffffffffffffffffffffffff1673ffffffffffffffffffffffffffffffffffffffff163373ffffffffffffffffffffffffffffffffffffffff1614611c53576040517f08c379a000000000000000000000000000000000000000000000000000000000815260040180806020018281038252602181526020018061241c6021913960400191505060405180910390fd5b600a600860019054906101000a900460ff1660ff16602a8110611c7257fe5b01544211611ce8576040517f08c379a00000000000000000000000000000000000000000000000000000000081526004018080602001828103825260168152602001807f54696d656c6f636b205374696c6c204163746976652e0000000000000000000081525060200191505060405180910390fd5b602a600860019054906101000a900460ff1660ff1610611d70576040517f08c379a00000000000000000000000000000000000000000000000000000000081526004018080602001828103825260158152602001807f446973747269627574696f6e20436f6d706c657465000000000000000000000081525060200191505060405180910390fd5b6003600860018282829054906101000a900460ff160192506101000a81548160ff021916908360ff160217905550611dd530600560019054906101000a900473ffffffffffffffffffffffffffffffffffffffff16690cb49b44ba602d800000610c49565b6001905090565b6000600160008473ffffffffffffffffffffffffffffffffffffffff1673ffffffffffffffffffffffffffffffffffffffff16815260200190815260200160002060008373ffffffffffffffffffffffffffffffffffffffff1673ffffffffffffffffffffffffffffffffffffffff16815260200190815260200160002054905092915050565b600860029054906101000a900460ff1681565b60075481565b505050565b6000838311158290611f2e576040517f08c379a00000000000000000000000000000000000000000000000000000000081526004018080602001828103825283818151815260200191508051906020019080838360005b83811015611ef3578082015181840152602081019050611ed8565b50505050905090810190601f168015611f205780820380516001836020036101000a031916815260200191505b509250505060405180910390fd5b5060008385039050809150509392505050565b600080828401905083811015611fbf576040517f08c379a000000000000000000000000000000000000000000000000000000000815260040180806020018281038252601b8152602001807f536166654d6174683a206164646974696f6e206f766572666c6f77000000000081525060200191505060405180910390fd5b8091505092915050565b600073ffffffffffffffffffffffffffffffffffffffff168273ffffffffffffffffffffffffffffffffffffffff16141561204f576040517f08c379a00000000000000000000000000000000000000000000000000000000081526004018080602001828103825260218152602001806124df6021913960400191505060405180910390fd5b61205b82600083611e7c565b6120c6816040518060600160405280602281526020016123fa602291396000808673ffffffffffffffffffffffffffffffffffffffff1673ffffffffffffffffffffffffffffffffffffffff16815260200190815260200160002054611e819092919063ffffffff16565b6000808473ffffffffffffffffffffffffffffffffffffffff1673ffffffffffffffffffffffffffffffffffffffff1681526020019081526020016000208190555061211d8160025461238c90919063ffffffff16565b600281905550600073ffffffffffffffffffffffffffffffffffffffff168273ffffffffffffffffffffffffffffffffffffffff167fddf252ad1be2c89b69c2b068fc378daa952ba7f163c4a11628f55a4df523b3ef836040518082815260200191505060405180910390a35050565b600033905090565b600073ffffffffffffffffffffffffffffffffffffffff168373ffffffffffffffffffffffffffffffffffffffff16141561221b576040517f08c379a00000000000000000000000000000000000000000000000000000000081526004018080602001828103825260248152602001806125256024913960400191505060405180910390fd5b600073ffffffffffffffffffffffffffffffffffffffff168273ffffffffffffffffffffffffffffffffffffffff1614156122a1576040517f08c379a000000000000000000000000000000000000000000000000000000000815260040180806020018281038252602281526020018061243d6022913960400191505060405180910390fd5b80600160008573ffffffffffffffffffffffffffffffffffffffff1673ffffffffffffffffffffffffffffffffffffffff16815260200190815260200160002060008473ffffffffffffffffffffffffffffffffffffffff1673ffffffffffffffffffffffffffffffffffffffff168152602001908152602001600020819055508173ffffffffffffffffffffffffffffffffffffffff168373ffffffffffffffffffffffffffffffffffffffff167f8c5be1e5ebec7d5bd14f71427d1e84f3dd0314c0f7b2291e5b200ac8c7c3b925836040518082815260200191505060405180910390a3505050565b60006123ce83836040518060400160405280601e81526020017f536166654d6174683a207375627472616374696f6e206f766572666c6f770000815250611e81565b90509291505056fe45524332303a207472616e7366657220746f20746865207a65726f206164647265737345524332303a206275726e20616d6f756e7420657863656564732062616c616e63654f6e6c79206f776e65722063616e2063616c6c20746869732066756e6374696f6e45524332303a20617070726f766520746f20746865207a65726f2061646472657373546865726520617265206e6f7420656e6f75676820746f6b656e732072656d61696e696e6720696e207468652073616c652e45524332303a207472616e7366657220616d6f756e7420657863656564732062616c616e636545524332303a207472616e7366657220616d6f756e74206578636565647320616c6c6f77616e636545524332303a206275726e2066726f6d20746865207a65726f206164647265737345524332303a207472616e736665722066726f6d20746865207a65726f206164647265737345524332303a20617070726f76652066726f6d20746865207a65726f206164647265737345524332303a2064656372656173656420616c6c6f77616e63652062656c6f77207a65726fa2646970667358221220684abfc1dcfddd2eb713d0ea28a9d5e2113bd457412deb23c72f8e82441653b064736f6c63430006020033"}}