{"compiler":"v0.8.4+commit.c7e474f2","opcodeHash":"0xe0b3b220a9ac9c70161a9c5d9fa2014f5bb59034328ba176513a36e7693385a0","metalessHash":"0xd228eb71213236275e3fa79221996fb0f9f9f876b0d420f9ed2541eefcd3c80e","runtimeHash":"0x95caf7c9a3a015a2c99e4f229f226955a3c669e31c18f84d5b64c044cc111099","encodedMetadata":[{"ipfs":"/ipfs/QmTKqkG7w2WeZhmQXwVMis9mXDTasU8VDkLBkuaXpUmrdG","solc":"0.8.4"}],"abi":[{"inputs":[],"stateMutability":"nonpayable","type":"constructor"},{"anonymous":false,"inputs":[{"indexed":true,"internalType":"address","name":"owner","type":"address"},{"indexed":true,"internalType":"address","name":"spender","type":"address"},{"indexed":false,"internalType":"uint256","name":"value","type":"uint256"}],"name":"Approval","type":"event"},{"anonymous":false,"inputs":[{"indexed":false,"internalType":"uint256","name":"_maxTxAmount","type":"uint256"}],"name":"MaxTxAmountUpdated","type":"event"},{"anonymous":false,"inputs":[{"indexed":true,"internalType":"address","name":"previousOwner","type":"address"},{"indexed":true,"internalType":"address","name":"newOwner","type":"address"}],"name":"OwnershipTransferred","type":"event"},{"anonymous":false,"inputs":[{"indexed":true,"internalType":"address","name":"from","type":"address"},{"indexed":true,"internalType":"address","name":"to","type":"address"},{"indexed":false,"internalType":"uint256","name":"value","type":"uint256"}],"name":"Transfer","type":"event"},{"inputs":[{"internalType":"address","name":"owner","type":"address"},{"internalType":"address","name":"spender","type":"address"}],"name":"allowance","outputs":[{"internalType":"uint256","name":"","type":"uint256"}],"stateMutability":"view","type":"function"},{"inputs":[{"internalType":"address","name":"spender","type":"address"},{"internalType":"uint256","name":"amount","type":"uint256"}],"name":"approve","outputs":[{"internalType":"bool","name":"","type":"bool"}],"stateMutability":"nonpayable","type":"function"},{"inputs":[{"internalType":"address","name":"account","type":"address"}],"name":"balanceOf","outputs":[{"internalType":"uint256","name":"","type":"uint256"}],"stateMutability":"view","type":"function"},{"inputs":[],"name":"decimals","outputs":[{"internalType":"uint8","name":"","type":"uint8"}],"stateMutability":"pure","type":"function"},{"inputs":[{"internalType":"address","name":"notbot","type":"address"}],"name":"delBot","outputs":[],"stateMutability":"nonpayable","type":"function"},{"inputs":[],"name":"manualsend","outputs":[],"stateMutability":"nonpayable","type":"function"},{"inputs":[],"name":"manualswap","outputs":[],"stateMutability":"nonpayable","type":"function"},{"inputs":[],"name":"name","outputs":[{"internalType":"string","name":"","type":"string"}],"stateMutability":"pure","type":"function"},{"inputs":[],"name":"owner","outputs":[{"internalType":"address","name":"","type":"address"}],"stateMutability":"view","type":"function"},{"inputs":[],"name":"removeStrictTxLimit","outputs":[],"stateMutability":"nonpayable","type":"function"},{"inputs":[],"name":"renounceOwnership","outputs":[],"stateMutability":"nonpayable","type":"function"},{"inputs":[{"internalType":"address[]","name":"bots_","type":"address[]"}],"name":"setBots","outputs":[],"stateMutability":"nonpayable","type":"function"},{"inputs":[{"internalType":"bool","name":"onoff","type":"bool"}],"name":"setCooldownEnabled","outputs":[],"stateMutability":"nonpayable","type":"function"},{"inputs":[],"name":"symbol","outputs":[{"internalType":"string","name":"","type":"string"}],"stateMutability":"pure","type":"function"},{"inputs":[],"name":"totalSupply","outputs":[{"internalType":"uint256","name":"","type":"uint256"}],"stateMutability":"pure","type":"function"},{"inputs":[{"internalType":"address","name":"recipient","type":"address"},{"internalType":"uint256","name":"amount","type":"uint256"}],"name":"transfer","outputs":[{"internalType":"bool","name":"","type":"bool"}],"stateMutability":"nonpayable","type":"function"},{"inputs":[{"internalType":"address","name":"sender","type":"address"},{"internalType":"address","name":"recipient","type":"address"},{"internalType":"uint256","name":"amount","type":"uint256"}],"name":"transferFrom","outputs":[{"internalType":"bool","name":"","type":"bool"}],"stateMutability":"nonpayable","type":"function"},{"inputs":[{"internalType":"address","name":"account","type":"address"}],"name":"transferOwnership","outputs":[],"stateMutability":"nonpayable","type":"function"},{"stateMutability":"payable","type":"receive"}],"bytecode":{"object":"60806040526200001a6703782dace9d9000060001962000645565b620000289060001962000621565b600855600f80546001600160a01b03191661dead1790556011805462ffffff60a81b191690556703782dace9d900006012553480156200006757600080fd5b50600080546001600160a01b031916339081178255604051909182917f8be0079c531659141344cd1fd0a4f28419497f9722a3daafe3b4186f6b6457e0908290a350600d80546001600160a01b031990811673517d5c014b577156fc065d28f85514665b87709217909155600e8054909116738f2bb017ad654e1a23cac0ebac942607e99ccfad17905560085473a090b6be826e539115d1e85f84e8845e9178a5f6600090815260026020527f7716dac02baa35bcdbc3af9f19fcdd75df46944a8d8c991fe0bf61d5d11f15ea91909155600190600590620001516000546001600160a01b031690565b6001600160a01b03908116825260208083019390935260409182016000908120805495151560ff199687161790553081526005909352818320805485166001908117909155600d54821684528284208054861682179055600e54909116835291208054909216179055620001c46200021e565b6040516703782dace9d90000815273a090b6be826e539115d1e85f84e8845e9178a5f6906000907fddf252ad1be2c89b69c2b068fc378daa952ba7f163c4a11628f55a4df523b3ef9060200160405180910390a362000666565b601080546001600160a01b031916737a250d5630b4cf539739df2c5dacb4c659f2488d9081179091556200025c30826703782dace9d90000620004a3565b806001600160a01b031663c45a01556040518163ffffffff1660e01b815260040160206040518083038186803b1580156200029657600080fd5b505afa158015620002ab573d6000803e3d6000fd5b505050506040513d601f19601f82011682018060405250810190620002d19190620005cf565b6001600160a01b031663c9c6539630836001600160a01b031663ad5c46486040518163ffffffff1660e01b815260040160206040518083038186803b1580156200031a57600080fd5b505afa1580156200032f573d6000803e3d6000fd5b505050506040513d601f19601f82011682018060405250810190620003559190620005cf565b6040516001600160e01b031960e085901b1681526001600160a01b03928316600482015291166024820152604401602060405180830381600087803b1580156200039e57600080fd5b505af1158015620003b3573d6000803e3d6000fd5b505050506040513d601f19601f82011682018060405250810190620003d99190620005cf565b60118054660470de4df8200060125563ff0000ff60a01b19600162ff000160a01b03199091166001600160a01b0393841617600160b01b17908116600160a01b1790915560105460405163095ea7b360e01b81529083166004820152600019602482015291169063095ea7b390604401602060405180830381600087803b1580156200046457600080fd5b505af115801562000479573d6000803e3d6000fd5b505050506040513d601f19601f820116820180604052508101906200049f9190620005ff565b5050565b6001600160a01b0383166200050b5760405162461bcd60e51b8152602060048201526024808201527f45524332303a20617070726f76652066726f6d20746865207a65726f206164646044820152637265737360e01b60648201526084015b60405180910390fd5b6001600160a01b0382166200056e5760405162461bcd60e51b815260206004820152602260248201527f45524332303a20617070726f766520746f20746865207a65726f206164647265604482015261737360f01b606482015260840162000502565b6001600160a01b0383811660008181526004602090815260408083209487168084529482529182902085905590518481527f8c5be1e5ebec7d5bd14f71427d1e84f3dd0314c0f7b2291e5b200ac8c7c3b925910160405180910390a3505050565b600060208284031215620005e1578081fd5b81516001600160a01b0381168114620005f8578182fd5b9392505050565b60006020828403121562000611578081fd5b81518015158114620005f8578182fd5b6000828210156200064057634e487b7160e01b81526011600452602481fd5b500390565b6000826200066157634e487b7160e01b81526012600452602481fd5b500690565b6117f380620006766000396000f3fe60806040526004361061010d5760003560e01c8063715018a611610095578063b515566a11610064578063b515566a146102ef578063c3c8cd801461030f578063dd62ed3e14610324578063f2fde38b1461036a578063ff8726021461038a57600080fd5b8063715018a6146102655780638da5cb5b1461027a57806395d89b41146102a2578063a9059cbb146102cf57600080fd5b8063273123b7116100dc578063273123b7146101d2578063313ce567146101f45780635932ead1146102105780636fc3eaec1461023057806370a082311461024557600080fd5b806306fdde0314610119578063095ea7b31461015d57806318160ddd1461018d57806323b872dd146101b257600080fd5b3661011457005b600080fd5b34801561012557600080fd5b5060408051808201909152600981526825b4b6379021b7b4b760b91b60208201525b60405161015491906115d3565b60405180910390f35b34801561016957600080fd5b5061017d6101783660046114c1565b61039f565b6040519015158152602001610154565b34801561019957600080fd5b506703782dace9d900005b604051908152602001610154565b3480156101be57600080fd5b5061017d6101cd366004611481565b6103b6565b3480156101de57600080fd5b506101f26101ed366004611411565b61041f565b005b34801561020057600080fd5b5060405160098152602001610154565b34801561021c57600080fd5b506101f261022b3660046115b3565b610473565b34801561023c57600080fd5b506101f26104bb565b34801561025157600080fd5b506101a4610260366004611411565b6104e8565b34801561027157600080fd5b506101f261050a565b34801561028657600080fd5b506000546040516001600160a01b039091168152602001610154565b3480156102ae57600080fd5b506040805180820190915260048152634b494c4f60e01b6020820152610147565b3480156102db57600080fd5b5061017d6102ea3660046114c1565b61057e565b3480156102fb57600080fd5b506101f261030a3660046114ec565b61058b565b34801561031b57600080fd5b506101f261062f565b34801561033057600080fd5b506101a461033f366004611449565b6001600160a01b03918216600090815260046020908152604080832093909416825291909152205490565b34801561037657600080fd5b506101f2610385366004611411565b610665565b34801561039657600080fd5b506101f26106eb565b60006103ac338484610723565b5060015b92915050565b60006103c3848484610847565b610415843361041085604051806060016040528060288152602001611796602891396001600160a01b038a1660009081526004602090815260408083203384529091529020549190610c00565b610723565b5060019392505050565b6000546001600160a01b031633146104525760405162461bcd60e51b815260040161044990611626565b60405180910390fd5b6001600160a01b03166000908152600660205260409020805460ff19169055565b6000546001600160a01b0316331461049d5760405162461bcd60e51b815260040161044990611626565b60118054911515600160b81b0260ff60b81b19909216919091179055565b600d546001600160a01b0316336001600160a01b0316146104db57600080fd5b476104e581610c3a565b50565b6001600160a01b0381166000908152600260205260408120546103b090610cbf565b6000546001600160a01b031633146105345760405162461bcd60e51b815260040161044990611626565b600080546040516001600160a01b03909116907f8be0079c531659141344cd1fd0a4f28419497f9722a3daafe3b4186f6b6457e0908390a3600080546001600160a01b0319169055565b60006103ac338484610847565b6000546001600160a01b031633146105b55760405162461bcd60e51b815260040161044990611626565b60005b815181101561062b576001600660008484815181106105e757634e487b7160e01b600052603260045260246000fd5b6020908102919091018101516001600160a01b03168252810191909152604001600020805460ff19169115159190911790558061062381611739565b9150506105b8565b5050565b600d546001600160a01b0316336001600160a01b03161461064f57600080fd5b600061065a306104e8565b90506104e581610d43565b6000546001600160a01b0316331461068f5760405162461bcd60e51b815260040161044990611626565b60008054600180546001600160a01b03199081166001600160a01b03808516918217909355918516921682178355604051919290917f8be0079c531659141344cd1fd0a4f28419497f9722a3daafe3b4186f6b6457e09190a350565b6000546001600160a01b031633146107155760405162461bcd60e51b815260040161044990611626565b6703782dace9d90000601255565b6001600160a01b0383166107855760405162461bcd60e51b8152602060048201526024808201527f45524332303a20617070726f76652066726f6d20746865207a65726f206164646044820152637265737360e01b6064820152608401610449565b6001600160a01b0382166107e65760405162461bcd60e51b815260206004820152602260248201527f45524332303a20617070726f766520746f20746865207a65726f206164647265604482015261737360f01b6064820152608401610449565b6001600160a01b0383811660008181526004602090815260408083209487168084529482529182902085905590518481527f8c5be1e5ebec7d5bd14f71427d1e84f3dd0314c0f7b2291e5b200ac8c7c3b925910160405180910390a3505050565b6001600160a01b0383166108ab5760405162461bcd60e51b815260206004820152602560248201527f45524332303a207472616e736665722066726f6d20746865207a65726f206164604482015264647265737360d81b6064820152608401610449565b6001600160a01b03821661090d5760405162461bcd60e51b815260206004820152602360248201527f45524332303a207472616e7366657220746f20746865207a65726f206164647260448201526265737360e81b6064820152608401610449565b6000811161096f5760405162461bcd60e51b815260206004820152602960248201527f5472616e7366657220616d6f756e74206d7573742062652067726561746572206044820152687468616e207a65726f60b81b6064820152608401610449565b6004600a819055600b556002600c556000546001600160a01b038481169116148015906109aa57506000546001600160a01b03838116911614155b15610bf0576001600160a01b03831660009081526006602052604090205460ff161580156109f157506001600160a01b03821660009081526006602052604090205460ff16155b6109fa57600080fd5b6011546001600160a01b038481169116148015610a2557506010546001600160a01b03838116911614155b8015610a4a57506001600160a01b03821660009081526005602052604090205460ff16155b8015610a5f5750601154600160b81b900460ff165b15610abc57601254811115610a7357600080fd5b6001600160a01b0382166000908152600760205260409020544211610a9757600080fd5b610aa242601e6116cb565b6001600160a01b0383166000908152600760205260409020555b6011546001600160a01b038381169116148015610ae757506010546001600160a01b03848116911614155b8015610b0c57506001600160a01b03831660009081526005602052604090205460ff16155b15610b21576004600a819055600b556002600c555b6000610b2c306104e8565b601154909150600160a81b900460ff16158015610b5757506011546001600160a01b03858116911614155b8015610b6c5750601154600160b01b900460ff165b15610bee578015610bdc57601154610ba690606490610ba090600590610b9a906001600160a01b03166104e8565b90610ee8565b90610f67565b811115610bd357601154610bd090606490610ba090600590610b9a906001600160a01b03166104e8565b90505b610bdc81610d43565b478015610bec57610bec47610c3a565b505b505b610bfb838383610fa9565b505050565b60008184841115610c245760405162461bcd60e51b815260040161044991906115d3565b506000610c318486611722565b95945050505050565b600d546001600160a01b03166108fc610c546002846116e3565b6040518115909202916000818181858888f19350505050158015610c7c573d6000803e3d6000fd5b50600e546001600160a01b03166108fc610c976002846116e3565b6040518115909202916000818181858888f1935050505015801561062b573d6000803e3d6000fd5b6000600854821115610d265760405162461bcd60e51b815260206004820152602a60248201527f416d6f756e74206d757374206265206c657373207468616e20746f74616c207260448201526965666c656374696f6e7360b01b6064820152608401610449565b6000610d30610fb4565b9050610d3c8382610f67565b9392505050565b6011805460ff60a81b1916600160a81b1790556040805160028082526060820183526000926020830190803683370190505090503081600081518110610d9957634e487b7160e01b600052603260045260246000fd5b6001600160a01b03928316602091820292909201810191909152601054604080516315ab88c960e31b81529051919093169263ad5c4648926004808301939192829003018186803b158015610ded57600080fd5b505afa158015610e01573d6000803e3d6000fd5b505050506040513d601f19601f82011682018060405250810190610e25919061142d565b81600181518110610e4657634e487b7160e01b600052603260045260246000fd5b6001600160a01b039283166020918202929092010152601054610e6c9130911684610723565b60105460405163791ac94760e01b81526001600160a01b039091169063791ac94790610ea590859060009086903090429060040161165b565b600060405180830381600087803b158015610ebf57600080fd5b505af1158015610ed3573d6000803e3d6000fd5b50506011805460ff60a81b1916905550505050565b600082610ef7575060006103b0565b6000610f038385611703565b905082610f1085836116e3565b14610d3c5760405162461bcd60e51b815260206004820152602160248201527f536166654d6174683a206d756c7469706c69636174696f6e206f766572666c6f6044820152607760f81b6064820152608401610449565b6000610d3c83836040518060400160405280601a81526020017f536166654d6174683a206469766973696f6e206279207a65726f000000000000815250610fd7565b610bfb838383611005565b6000806000610fc1611156565b9092509050610fd08282610f67565b9250505090565b60008183610ff85760405162461bcd60e51b815260040161044991906115d3565b506000610c3184866116e3565b60008060008060008061101787611196565b955095509550955095509550600061102d610fb4565b9050600061104b6064610ba0600c548c610ee890919063ffffffff16565b905060006110598284610ee8565b905061106586836111f3565b955061107188826111f3565b6001600160a01b038d16600090815260026020526040902054909850611097908a6111f3565b6001600160a01b03808e1660009081526002602052604080822093909355908d16815220546110c69089611235565b6001600160a01b038c166000908152600260205260409020556110e884611294565b6110f287866112de565b6110fb82611302565b8a6001600160a01b03168c6001600160a01b03167fddf252ad1be2c89b69c2b068fc378daa952ba7f163c4a11628f55a4df523b3ef8860405161114091815260200190565b60405180910390a3505050505050505050505050565b60085460009081906703782dace9d900006111718282610f67565b82101561118d575050600854926703782dace9d9000092509050565b90939092509050565b60008060008060008060008060006111b38a600a54600b54611362565b92509250925060006111c3610fb4565b905060008060006111d68e8787876113b1565b919e509c509a509598509396509194505050505091939550919395565b6000610d3c83836040518060400160405280601e81526020017f536166654d6174683a207375627472616374696f6e206f766572666c6f770000815250610c00565b60008061124283856116cb565b905083811015610d3c5760405162461bcd60e51b815260206004820152601b60248201527f536166654d6174683a206164646974696f6e206f766572666c6f7700000000006044820152606401610449565b600061129e610fb4565b905060006112ac8383610ee8565b306000908152600260205260409020549091506112c99082611235565b30600090815260026020526040902055505050565b6008546112eb90836111f3565b6008556009546112fb9082611235565b6009555050565b600061130c610fb4565b9050600061131a8383610ee8565b600f546001600160a01b03166000908152600260205260409020549091506113429082611235565b600f546001600160a01b0316600090815260026020526040902055505050565b60008080806113766064610ba08989610ee8565b905060006113896064610ba08a89610ee8565b905060006113a18261139b8b866111f3565b906111f3565b9992985090965090945050505050565b60008080806113c08886610ee8565b905060006113ce8887610ee8565b905060006113dc8888610ee8565b905060006113ee8261139b86866111f3565b939b939a50919850919650505050505050565b803561140c81611780565b919050565b600060208284031215611422578081fd5b8135610d3c81611780565b60006020828403121561143e578081fd5b8151610d3c81611780565b6000806040838503121561145b578081fd5b823561146681611780565b9150602083013561147681611780565b809150509250929050565b600080600060608486031215611495578081fd5b83356114a081611780565b925060208401356114b081611780565b929592945050506040919091013590565b600080604083850312156114d3578182fd5b82356114de81611780565b946020939093013593505050565b600060208083850312156114fe578182fd5b823567ffffffffffffffff80821115611515578384fd5b818501915085601f830112611528578384fd5b81358181111561153a5761153a61176a565b8060051b604051601f19603f8301168101818110858211171561155f5761155f61176a565b604052828152858101935084860182860187018a101561157d578788fd5b8795505b838610156115a65761159281611401565b855260019590950194938601938601611581565b5098975050505050505050565b6000602082840312156115c4578081fd5b81358015158114610d3c578182fd5b6000602080835283518082850152825b818110156115ff578581018301518582016040015282016115e3565b818111156116105783604083870101525b50601f01601f1916929092016040019392505050565b6020808252818101527f4f776e61626c653a2063616c6c6572206973206e6f7420746865206f776e6572604082015260600190565b600060a082018783526020878185015260a0604085015281875180845260c0860191508289019350845b818110156116aa5784516001600160a01b031683529383019391830191600101611685565b50506001600160a01b03969096166060850152505050608001529392505050565b600082198211156116de576116de611754565b500190565b6000826116fe57634e487b7160e01b81526012600452602481fd5b500490565b600081600019048311821515161561171d5761171d611754565b500290565b60008282101561173457611734611754565b500390565b600060001982141561174d5761174d611754565b5060010190565b634e487b7160e01b600052601160045260246000fd5b634e487b7160e01b600052604160045260246000fd5b6001600160a01b03811681146104e557600080fdfe45524332303a207472616e7366657220616d6f756e74206578636565647320616c6c6f77616e6365a2646970667358221220d39decaa98377190ec5c1a520aa2814a9fbfd26d4c9b639ee8390d112ec6934b64736f6c63430008040033"}}