{
  "opcodeHash": "0xe3d28cc0475b1868b52eb32f8216c7363f26a0651a660bd9187739f969c98b0d",
  "metalessHash": "0x4272f1d0e601c6d378ff59fcd21a331917b99d7e36caa5c19639705d9c5ba522",
  "runtimeHash": "0xd743b822b666af3c6e73f5405797cdfc06678709dc7a74117cd9ef5fd801a1f6",
  "encodedMetadata": [
    {
      "ipfs": "/ipfs/QmTDoBZVrXLXEQHYXqUxuauKSLLzqmpbs6HAuF1RehpNKg",
      "solc": "0.8.1"
    }
  ],
  "abi": [
    {
      "inputs": [
        {
          "internalType": "address",
          "name": "_ecoMultisig",
          "type": "address"
        }
      ],
      "stateMutability": "nonpayable",
      "type": "constructor"
    },
    {
      "anonymous": false,
      "inputs": [
        {
          "indexed": true,
          "internalType": "address",
          "name": "owner",
          "type": "address"
        },
        {
          "indexed": true,
          "internalType": "address",
          "name": "spender",
          "type": "address"
        },
        {
          "indexed": false,
          "internalType": "uint256",
          "name": "value",
          "type": "uint256"
        }
      ],
      "name": "Approval",
      "type": "event"
    },
    {
      "anonymous": false,
      "inputs": [
        {
          "indexed": true,
          "internalType": "address",
          "name": "from",
          "type": "address"
        },
        {
          "indexed": true,
          "internalType": "address",
          "name": "to",
          "type": "address"
        },
        {
          "indexed": false,
          "internalType": "uint256",
          "name": "value",
          "type": "uint256"
        }
      ],
      "name": "Transfer",
      "type": "event"
    },
    {
      "inputs": [
        {
          "internalType": "address",
          "name": "owner",
          "type": "address"
        },
        {
          "internalType": "address",
          "name": "spender",
          "type": "address"
        }
      ],
      "name": "allowance",
      "outputs": [
        {
          "internalType": "uint256",
          "name": "",
          "type": "uint256"
        }
      ],
      "stateMutability": "view",
      "type": "function"
    },
    {
      "inputs": [
        {
          "internalType": "address",
          "name": "spender",
          "type": "address"
        },
        {
          "internalType": "uint256",
          "name": "amount",
          "type": "uint256"
        }
      ],
      "name": "approve",
      "outputs": [
        {
          "internalType": "bool",
          "name": "",
          "type": "bool"
        }
      ],
      "stateMutability": "nonpayable",
      "type": "function"
    },
    {
      "inputs": [
        {
          "internalType": "address",
          "name": "account",
          "type": "address"
        }
      ],
      "name": "balanceOf",
      "outputs": [
        {
          "internalType": "uint256",
          "name": "",
          "type": "uint256"
        }
      ],
      "stateMutability": "view",
      "type": "function"
    },
    {
      "inputs": [
        {
          "internalType": "uint256",
          "name": "amount",
          "type": "uint256"
        }
      ],
      "name": "burn",
      "outputs": [],
      "stateMutability": "nonpayable",
      "type": "function"
    },
    {
      "inputs": [
        {
          "internalType": "address",
          "name": "account",
          "type": "address"
        },
        {
          "internalType": "uint256",
          "name": "amount",
          "type": "uint256"
        }
      ],
      "name": "burnFrom",
      "outputs": [],
      "stateMutability": "nonpayable",
      "type": "function"
    },
    {
      "inputs": [],
      "name": "decimals",
      "outputs": [
        {
          "internalType": "uint8",
          "name": "",
          "type": "uint8"
        }
      ],
      "stateMutability": "view",
      "type": "function"
    },
    {
      "inputs": [
        {
          "internalType": "address",
          "name": "spender",
          "type": "address"
        },
        {
          "internalType": "uint256",
          "name": "subtractedValue",
          "type": "uint256"
        }
      ],
      "name": "decreaseAllowance",
      "outputs": [
        {
          "internalType": "bool",
          "name": "",
          "type": "bool"
        }
      ],
      "stateMutability": "nonpayable",
      "type": "function"
    },
    {
      "inputs": [
        {
          "internalType": "address",
          "name": "spender",
          "type": "address"
        },
        {
          "internalType": "uint256",
          "name": "addedValue",
          "type": "uint256"
        }
      ],
      "name": "increaseAllowance",
      "outputs": [
        {
          "internalType": "bool",
          "name": "",
          "type": "bool"
        }
      ],
      "stateMutability": "nonpayable",
      "type": "function"
    },
    {
      "inputs": [],
      "name": "name",
      "outputs": [
        {
          "internalType": "string",
          "name": "",
          "type": "string"
        }
      ],
      "stateMutability": "view",
      "type": "function"
    },
    {
      "inputs": [
        {
          "internalType": "address",
          "name": "_sproutContract",
          "type": "address"
        }
      ],
      "name": "setSproutAddress",
      "outputs": [],
      "stateMutability": "nonpayable",
      "type": "function"
    },
    {
      "inputs": [],
      "name": "symbol",
      "outputs": [
        {
          "internalType": "string",
          "name": "",
          "type": "string"
        }
      ],
      "stateMutability": "view",
      "type": "function"
    },
    {
      "inputs": [],
      "name": "totalSupply",
      "outputs": [
        {
          "internalType": "uint256",
          "name": "",
          "type": "uint256"
        }
      ],
      "stateMutability": "view",
      "type": "function"
    },
    {
      "inputs": [
        {
          "internalType": "address",
          "name": "_recipient",
          "type": "address"
        },
        {
          "internalType": "uint256",
          "name": "_amount",
          "type": "uint256"
        }
      ],
      "name": "transfer",
      "outputs": [
        {
          "internalType": "bool",
          "name": "",
          "type": "bool"
        }
      ],
      "stateMutability": "nonpayable",
      "type": "function"
    },
    {
      "inputs": [
        {
          "internalType": "address",
          "name": "sender",
          "type": "address"
        },
        {
          "internalType": "address",
          "name": "recipient",
          "type": "address"
        },
        {
          "internalType": "uint256",
          "name": "amount",
          "type": "uint256"
        }
      ],
      "name": "transferFrom",
      "outputs": [
        {
          "internalType": "bool",
          "name": "",
          "type": "bool"
        }
      ],
      "stateMutability": "nonpayable",
      "type": "function"
    }
  ],
  "bytecode": {
    "object": "60806040526000600660006101000a81548173ffffffffffffffffffffffffffffffffffffffff021916908373ffffffffffffffffffffffffffffffffffffffff1602179055503480156200005357600080fd5b5060405162002344380380620023448339818101604052810190620000799190620003af565b6040518060400160405280600b81526020017f45636f466920546f6b656e0000000000000000000000000000000000000000008152506040518060400160405280600381526020017f45434f00000000000000000000000000000000000000000000000000000000008152508160039080519060200190620000fd929190620002e8565b50806004908051906020019062000116929190620002e8565b50505033600560006101000a81548173ffffffffffffffffffffffffffffffffffffffff021916908373ffffffffffffffffffffffffffffffffffffffff16021790555062000177816a084595161401484a0000006200017e60201b60201c565b50620005d5565b600073ffffffffffffffffffffffffffffffffffffffff168273ffffffffffffffffffffffffffffffffffffffff161415620001f1576040517f08c379a0000000000000000000000000000000000000000000000000000000008152600401620001e89062000413565b60405180910390fd5b6200020560008383620002e360201b60201c565b806002600082825462000219919062000463565b92505081905550806000808473ffffffffffffffffffffffffffffffffffffffff1673ffffffffffffffffffffffffffffffffffffffff168152602001908152602001600020600082825462000270919062000463565b925050819055508173ffffffffffffffffffffffffffffffffffffffff16600073ffffffffffffffffffffffffffffffffffffffff167fddf252ad1be2c89b69c2b068fc378daa952ba7f163c4a11628f55a4df523b3ef83604051620002d7919062000435565b60405180910390a35050565b505050565b828054620002f690620004fe565b90600052602060002090601f0160209004810192826200031a576000855562000366565b82601f106200033557805160ff191683800117855562000366565b8280016001018555821562000366579182015b828111156200036557825182559160200191906001019062000348565b5b50905062000375919062000379565b5090565b5b80821115620003945760008160009055506001016200037a565b5090565b600081519050620003a981620005bb565b92915050565b600060208284031215620003c257600080fd5b6000620003d28482850162000398565b91505092915050565b6000620003ea601f8362000452565b9150620003f78262000592565b602082019050919050565b6200040d81620004f4565b82525050565b600060208201905081810360008301526200042e81620003db565b9050919050565b60006020820190506200044c600083018462000402565b92915050565b600082825260208201905092915050565b60006200047082620004f4565b91506200047d83620004f4565b9250827fffffffffffffffffffffffffffffffffffffffffffffffffffffffffffffffff03821115620004b557620004b462000534565b5b828201905092915050565b6000620004cd82620004d4565b9050919050565b600073ffffffffffffffffffffffffffffffffffffffff82169050919050565b6000819050919050565b600060028204905060018216806200051757607f821691505b602082108114156200052e576200052d62000563565b5b50919050565b7f4e487b7100000000000000000000000000000000000000000000000000000000600052601160045260246000fd5b7f4e487b7100000000000000000000000000000000000000000000000000000000600052602260045260246000fd5b7f45524332303a206d696e7420746f20746865207a65726f206164647265737300600082015250565b620005c681620004c0565b8114620005d257600080fd5b50565b611d5f80620005e56000396000f3fe608060405234801561001057600080fd5b50600436106100ea5760003560e01c806370a082311161008c578063a457c2d711610066578063a457c2d71461025f578063a9059cbb1461028f578063cf157ae5146102bf578063dd62ed3e146102db576100ea565b806370a08231146101f557806379cc67901461022557806395d89b4114610241576100ea565b806323b872dd116100c857806323b872dd1461015b578063313ce5671461018b57806339509351146101a957806342966c68146101d9576100ea565b806306fdde03146100ef578063095ea7b31461010d57806318160ddd1461013d575b600080fd5b6100f761030b565b60405161010491906114e8565b60405180910390f35b61012760048036038101906101229190611218565b61039d565b60405161013491906114cd565b60405180910390f35b6101456103bb565b60405161015291906116ca565b60405180910390f35b610175600480360381019061017091906111c9565b6103c5565b60405161018291906114cd565b60405180910390f35b6101936104c6565b6040516101a091906116e5565b60405180910390f35b6101c360048036038101906101be9190611218565b6104cf565b6040516101d091906114cd565b60405180910390f35b6101f360048036038101906101ee9190611254565b61057b565b005b61020f600480360381019061020a9190611164565b61058f565b60405161021c91906116ca565b60405180910390f35b61023f600480360381019061023a9190611218565b6105d7565b005b61024961065b565b60405161025691906114e8565b60405180910390f35b61027960048036038101906102749190611218565b6106ed565b60405161028691906114cd565b60405180910390f35b6102a960048036038101906102a49190611218565b6107e1565b6040516102b691906114cd565b60405180910390f35b6102d960048036038101906102d49190611164565b610886565b005b6102f560048036038101906102f0919061118d565b6109eb565b60405161030291906116ca565b60405180910390f35b60606003805461031a9061182e565b80601f01602080910402602001604051908101604052809291908181526020018280546103469061182e565b80156103935780601f1061036857610100808354040283529160200191610393565b820191906000526020600020905b81548152906001019060200180831161037657829003601f168201915b5050505050905090565b60006103b16103aa610a72565b8484610a7a565b6001905092915050565b6000600254905090565b60006103d2848484610c45565b6000600160008673ffffffffffffffffffffffffffffffffffffffff1673ffffffffffffffffffffffffffffffffffffffff168152602001908152602001600020600061041d610a72565b73ffffffffffffffffffffffffffffffffffffffff1673ffffffffffffffffffffffffffffffffffffffff1681526020019081526020016000205490508281101561049d576040517f08c379a0000000000000000000000000000000000000000000000000000000008152600401610494906115ca565b60405180910390fd5b6104ba856104a9610a72565b85846104b59190611772565b610a7a565b60019150509392505050565b60006012905090565b60006105716104dc610a72565b8484600160006104ea610a72565b73ffffffffffffffffffffffffffffffffffffffff1673ffffffffffffffffffffffffffffffffffffffff16815260200190815260200160002060008873ffffffffffffffffffffffffffffffffffffffff1673ffffffffffffffffffffffffffffffffffffffff1681526020019081526020016000205461056c919061171c565b610a7a565b6001905092915050565b61058c610586610a72565b82610cc4565b50565b60008060008373ffffffffffffffffffffffffffffffffffffffff1673ffffffffffffffffffffffffffffffffffffffff168152602001908152602001600020549050919050565b60006105ea836105e5610a72565b6109eb565b90508181101561062f576040517f08c379a0000000000000000000000000000000000000000000000000000000008152600401610626906115ea565b60405180910390fd5b61064c8361063b610a72565b84846106479190611772565b610a7a565b6106568383610cc4565b505050565b60606004805461066a9061182e565b80601f01602080910402602001604051908101604052809291908181526020018280546106969061182e565b80156106e35780601f106106b8576101008083540402835291602001916106e3565b820191906000526020600020905b8154815290600101906020018083116106c657829003601f168201915b5050505050905090565b600080600160006106fc610a72565b73ffffffffffffffffffffffffffffffffffffffff1673ffffffffffffffffffffffffffffffffffffffff16815260200190815260200160002060008573ffffffffffffffffffffffffffffffffffffffff1673ffffffffffffffffffffffffffffffffffffffff168152602001908152602001600020549050828110156107b9576040517f08c379a00000000000000000000000000000000000000000000000000000000081526004016107b0906116aa565b60405180910390fd5b6107d66107c4610a72565b8585846107d19190611772565b610a7a565b600191505092915050565b6000600660009054906101000a900473ffffffffffffffffffffffffffffffffffffffff1673ffffffffffffffffffffffffffffffffffffffff168373ffffffffffffffffffffffffffffffffffffffff161415610874576040517f08c379a000000000000000000000000000000000000000000000000000000000815260040161086b9061158a565b60405180910390fd5b61087e8383610e98565b905092915050565b600073ffffffffffffffffffffffffffffffffffffffff16600660009054906101000a900473ffffffffffffffffffffffffffffffffffffffff1673ffffffffffffffffffffffffffffffffffffffff1614610917576040517f08c379a000000000000000000000000000000000000000000000000000000000815260040161090e9061168a565b60405180910390fd5b600560009054906101000a900473ffffffffffffffffffffffffffffffffffffffff1673ffffffffffffffffffffffffffffffffffffffff163373ffffffffffffffffffffffffffffffffffffffff16146109a7576040517f08c379a000000000000000000000000000000000000000000000000000000000815260040161099e9061164a565b60405180910390fd5b80600660006101000a81548173ffffffffffffffffffffffffffffffffffffffff021916908373ffffffffffffffffffffffffffffffffffffffff16021790555050565b6000600160008473ffffffffffffffffffffffffffffffffffffffff1673ffffffffffffffffffffffffffffffffffffffff16815260200190815260200160002060008373ffffffffffffffffffffffffffffffffffffffff1673ffffffffffffffffffffffffffffffffffffffff16815260200190815260200160002054905092915050565b600033905090565b600073ffffffffffffffffffffffffffffffffffffffff168373ffffffffffffffffffffffffffffffffffffffff161415610aea576040517f08c379a0000000000000000000000000000000000000000000000000000000008152600401610ae19061166a565b60405180910390fd5b600073ffffffffffffffffffffffffffffffffffffffff168273ffffffffffffffffffffffffffffffffffffffff161415610b5a576040517f08c379a0000000000000000000000000000000000000000000000000000000008152600401610b519061156a565b60405180910390fd5b80600160008573ffffffffffffffffffffffffffffffffffffffff1673ffffffffffffffffffffffffffffffffffffffff16815260200190815260200160002060008473ffffffffffffffffffffffffffffffffffffffff1673ffffffffffffffffffffffffffffffffffffffff168152602001908152602001600020819055508173ffffffffffffffffffffffffffffffffffffffff168373ffffffffffffffffffffffffffffffffffffffff167f8c5be1e5ebec7d5bd14f71427d1e84f3dd0314c0f7b2291e5b200ac8c7c3b92583604051610c3891906116ca565b60405180910390a3505050565b3073ffffffffffffffffffffffffffffffffffffffff168273ffffffffffffffffffffffffffffffffffffffff161415610cb4576040517f08c379a0000000000000000000000000000000000000000000000000000000008152600401610cab9061154a565b60405180910390fd5b610cbf838383610eb6565b505050565b600073ffffffffffffffffffffffffffffffffffffffff168273ffffffffffffffffffffffffffffffffffffffff161415610d34576040517f08c379a0000000000000000000000000000000000000000000000000000000008152600401610d2b9061160a565b60405180910390fd5b610d4082600083611135565b60008060008473ffffffffffffffffffffffffffffffffffffffff1673ffffffffffffffffffffffffffffffffffffffff16815260200190815260200160002054905081811015610dc6576040517f08c379a0000000000000000000000000000000000000000000000000000000008152600401610dbd9061152a565b60405180910390fd5b8181610dd29190611772565b6000808573ffffffffffffffffffffffffffffffffffffffff1673ffffffffffffffffffffffffffffffffffffffff168152602001908152602001600020819055508160026000828254610e269190611772565b92505081905550600073ffffffffffffffffffffffffffffffffffffffff168373ffffffffffffffffffffffffffffffffffffffff167fddf252ad1be2c89b69c2b068fc378daa952ba7f163c4a11628f55a4df523b3ef84604051610e8b91906116ca565b60405180910390a3505050565b6000610eac610ea5610a72565b8484610c45565b6001905092915050565b600073ffffffffffffffffffffffffffffffffffffffff168373ffffffffffffffffffffffffffffffffffffffff161415610f26576040517f08c379a0000000000000000000000000000000000000000000000000000000008152600401610f1d9061162a565b60405180910390fd5b600073ffffffffffffffffffffffffffffffffffffffff168273ffffffffffffffffffffffffffffffffffffffff161415610f96576040517f08c379a0000000000000000000000000000000000000000000000000000000008152600401610f8d9061150a565b60405180910390fd5b610fa1838383611135565b60008060008573ffffffffffffffffffffffffffffffffffffffff1673ffffffffffffffffffffffffffffffffffffffff16815260200190815260200160002054905081811015611027576040517f08c379a000000000000000000000000000000000000000000000000000000000815260040161101e906115aa565b60405180910390fd5b81816110339190611772565b6000808673ffffffffffffffffffffffffffffffffffffffff1673ffffffffffffffffffffffffffffffffffffffff16815260200190815260200160002081905550816000808573ffffffffffffffffffffffffffffffffffffffff1673ffffffffffffffffffffffffffffffffffffffff16815260200190815260200160002060008282546110c3919061171c565b925050819055508273ffffffffffffffffffffffffffffffffffffffff168473ffffffffffffffffffffffffffffffffffffffff167fddf252ad1be2c89b69c2b068fc378daa952ba7f163c4a11628f55a4df523b3ef8460405161112791906116ca565b60405180910390a350505050565b505050565b60008135905061114981611cfb565b92915050565b60008135905061115e81611d12565b92915050565b60006020828403121561117657600080fd5b60006111848482850161113a565b91505092915050565b600080604083850312156111a057600080fd5b60006111ae8582860161113a565b92505060206111bf8582860161113a565b9150509250929050565b6000806000606084860312156111de57600080fd5b60006111ec8682870161113a565b93505060206111fd8682870161113a565b925050604061120e8682870161114f565b9150509250925092565b6000806040838503121561122b57600080fd5b60006112398582860161113a565b925050602061124a8582860161114f565b9150509250929050565b60006020828403121561126657600080fd5b60006112748482850161114f565b91505092915050565b611286816117b8565b82525050565b600061129782611700565b6112a1818561170b565b93506112b18185602086016117fb565b6112ba816118be565b840191505092915050565b60006112d260238361170b565b91506112dd826118cf565b604082019050919050565b60006112f560228361170b565b91506113008261191e565b604082019050919050565b6000611318602e8361170b565b91506113238261196d565b604082019050919050565b600061133b60228361170b565b9150611346826119bc565b604082019050919050565b600061135e604a8361170b565b915061136982611a0b565b606082019050919050565b600061138160268361170b565b915061138c82611a80565b604082019050919050565b60006113a460288361170b565b91506113af82611acf565b604082019050919050565b60006113c760248361170b565b91506113d282611b1e565b604082019050919050565b60006113ea60218361170b565b91506113f582611b6d565b604082019050919050565b600061140d60258361170b565b915061141882611bbc565b604082019050919050565b6000611430601a8361170b565b915061143b82611c0b565b602082019050919050565b600061145360248361170b565b915061145e82611c34565b604082019050919050565b600061147660178361170b565b915061148182611c83565b602082019050919050565b600061149960258361170b565b91506114a482611cac565b604082019050919050565b6114b8816117e4565b82525050565b6114c7816117ee565b82525050565b60006020820190506114e2600083018461127d565b92915050565b60006020820190508181036000830152611502818461128c565b905092915050565b60006020820190508181036000830152611523816112c5565b9050919050565b60006020820190508181036000830152611543816112e8565b9050919050565b600060208201905081810360008301526115638161130b565b9050919050565b600060208201905081810360008301526115838161132e565b9050919050565b600060208201905081810360008301526115a381611351565b9050919050565b600060208201905081810360008301526115c381611374565b9050919050565b600060208201905081810360008301526115e381611397565b9050919050565b60006020820190508181036000830152611603816113ba565b9050919050565b60006020820190508181036000830152611623816113dd565b9050919050565b6000602082019050818103600083015261164381611400565b9050919050565b6000602082019050818103600083015261166381611423565b9050919050565b6000602082019050818103600083015261168381611446565b9050919050565b600060208201905081810360008301526116a381611469565b9050919050565b600060208201905081810360008301526116c38161148c565b9050919050565b60006020820190506116df60008301846114af565b92915050565b60006020820190506116fa60008301846114be565b92915050565b600081519050919050565b600082825260208201905092915050565b6000611727826117e4565b9150611732836117e4565b9250827fffffffffffffffffffffffffffffffffffffffffffffffffffffffffffffffff0382111561176757611766611860565b5b828201905092915050565b600061177d826117e4565b9150611788836117e4565b92508282101561179b5761179a611860565b5b828203905092915050565b60006117b1826117c4565b9050919050565b60008115159050919050565b600073ffffffffffffffffffffffffffffffffffffffff82169050919050565b6000819050919050565b600060ff82169050919050565b60005b838110156118195780820151818401526020810190506117fe565b83811115611828576000848401525b50505050565b6000600282049050600182168061184657607f821691505b6020821081141561185a5761185961188f565b5b50919050565b7f4e487b7100000000000000000000000000000000000000000000000000000000600052601160045260246000fd5b7f4e487b7100000000000000000000000000000000000000000000000000000000600052602260045260246000fd5b6000601f19601f8301169050919050565b7f45524332303a207472616e7366657220746f20746865207a65726f206164647260008201527f6573730000000000000000000000000000000000000000000000000000000000602082015250565b7f45524332303a206275726e20616d6f756e7420657863656564732062616c616e60008201527f6365000000000000000000000000000000000000000000000000000000000000602082015250565b7f45636f4669546f6b656e3a207472616e7366657220746f20746f6b656e20636f60008201527f6e74726163742061646472657373000000000000000000000000000000000000602082015250565b7f45524332303a20617070726f766520746f20746865207a65726f20616464726560008201527f7373000000000000000000000000000000000000000000000000000000000000602082015250565b7f45636f4669546f6b656e3a207472616e7366657220746f207370726f7574206360008201527f6f6e747261637420616464726573732028757365207472616e7366657246726f60208201527f6d20696e73746561642900000000000000000000000000000000000000000000604082015250565b7f45524332303a207472616e7366657220616d6f756e742065786365656473206260008201527f616c616e63650000000000000000000000000000000000000000000000000000602082015250565b7f45524332303a207472616e7366657220616d6f756e742065786365656473206160008201527f6c6c6f77616e6365000000000000000000000000000000000000000000000000602082015250565b7f45524332303a206275726e20616d6f756e74206578636565647320616c6c6f7760008201527f616e636500000000000000000000000000000000000000000000000000000000602082015250565b7f45524332303a206275726e2066726f6d20746865207a65726f2061646472657360008201527f7300000000000000000000000000000000000000000000000000000000000000602082015250565b7f45524332303a207472616e736665722066726f6d20746865207a65726f20616460008201527f6472657373000000000000000000000000000000000000000000000000000000602082015250565b7f6d7573742062652063616c6c6564206279206465706c6f796572000000000000600082015250565b7f45524332303a20617070726f76652066726f6d20746865207a65726f2061646460008201527f7265737300000000000000000000000000000000000000000000000000000000602082015250565b7f6d6179206f6e6c792062652063616c6c6564206f6e6365000000000000000000600082015250565b7f45524332303a2064656372656173656420616c6c6f77616e63652062656c6f7760008201527f207a65726f000000000000000000000000000000000000000000000000000000602082015250565b611d04816117a6565b8114611d0f57600080fd5b50565b611d1b816117e4565b8114611d2657600080fd5b5056fea2646970667358221220a56718e04b76749f1a48e9f34b0c02a2d5e6331563982f50dcb5b69f0223751c64736f6c63430008010033"
  }
}