{
  "opcodeHash": "0xfb7137ac59b31edde94fd8dfb4eedd7745fb0b6bc70bf8cec6483002280c6ebc",
  "metalessHash": "0xfd2415bd620eb96d13a6a367511fd46b59b89a614c8d2c9a8142d6686338ee8e",
  "runtimeHash": "0x714aeafbcb4a45077544924310c2f6ff5265c5eace7e0a1344ccc226779efbd3",
  "encodedMetadata": [
    {
      "ipfs": "/ipfs/QmeWmWhuy34bXxqWFmJbV3YP6woUjYLrNtkVwbadjAbQ1Q",
      "solc": "0.8.0"
    }
  ],
  "abi": [
    {
      "inputs": [
        {
          "internalType": "string",
          "name": "baseURI",
          "type": "string"
        }
      ],
      "stateMutability": "nonpayable",
      "type": "constructor"
    },
    {
      "anonymous": false,
      "inputs": [
        {
          "indexed": true,
          "internalType": "address",
          "name": "owner",
          "type": "address"
        },
        {
          "indexed": true,
          "internalType": "address",
          "name": "approved",
          "type": "address"
        },
        {
          "indexed": true,
          "internalType": "uint256",
          "name": "tokenId",
          "type": "uint256"
        }
      ],
      "name": "Approval",
      "type": "event"
    },
    {
      "anonymous": false,
      "inputs": [
        {
          "indexed": true,
          "internalType": "address",
          "name": "owner",
          "type": "address"
        },
        {
          "indexed": true,
          "internalType": "address",
          "name": "operator",
          "type": "address"
        },
        {
          "indexed": false,
          "internalType": "bool",
          "name": "approved",
          "type": "bool"
        }
      ],
      "name": "ApprovalForAll",
      "type": "event"
    },
    {
      "anonymous": false,
      "inputs": [
        {
          "indexed": false,
          "internalType": "uint256",
          "name": "totalMinted",
          "type": "uint256"
        }
      ],
      "name": "LeoPunksMinted",
      "type": "event"
    },
    {
      "anonymous": false,
      "inputs": [
        {
          "indexed": true,
          "internalType": "address",
          "name": "previousOwner",
          "type": "address"
        },
        {
          "indexed": true,
          "internalType": "address",
          "name": "newOwner",
          "type": "address"
        }
      ],
      "name": "OwnershipTransferred",
      "type": "event"
    },
    {
      "anonymous": false,
      "inputs": [
        {
          "indexed": true,
          "internalType": "address",
          "name": "from",
          "type": "address"
        },
        {
          "indexed": true,
          "internalType": "address",
          "name": "to",
          "type": "address"
        },
        {
          "indexed": true,
          "internalType": "uint256",
          "name": "tokenId",
          "type": "uint256"
        }
      ],
      "name": "Transfer",
      "type": "event"
    },
    {
      "inputs": [],
      "name": "MAX_LEO",
      "outputs": [
        {
          "internalType": "uint256",
          "name": "",
          "type": "uint256"
        }
      ],
      "stateMutability": "view",
      "type": "function"
    },
    {
      "inputs": [
        {
          "internalType": "address",
          "name": "to",
          "type": "address"
        },
        {
          "internalType": "uint256",
          "name": "tokenId",
          "type": "uint256"
        }
      ],
      "name": "approve",
      "outputs": [],
      "stateMutability": "nonpayable",
      "type": "function"
    },
    {
      "inputs": [
        {
          "internalType": "address",
          "name": "owner",
          "type": "address"
        }
      ],
      "name": "balanceOf",
      "outputs": [
        {
          "internalType": "uint256",
          "name": "",
          "type": "uint256"
        }
      ],
      "stateMutability": "view",
      "type": "function"
    },
    {
      "inputs": [],
      "name": "flipSaleState",
      "outputs": [],
      "stateMutability": "nonpayable",
      "type": "function"
    },
    {
      "inputs": [
        {
          "internalType": "uint256",
          "name": "tokenId",
          "type": "uint256"
        }
      ],
      "name": "getApproved",
      "outputs": [
        {
          "internalType": "address",
          "name": "",
          "type": "address"
        }
      ],
      "stateMutability": "view",
      "type": "function"
    },
    {
      "inputs": [
        {
          "internalType": "address",
          "name": "owner",
          "type": "address"
        },
        {
          "internalType": "address",
          "name": "operator",
          "type": "address"
        }
      ],
      "name": "isApprovedForAll",
      "outputs": [
        {
          "internalType": "bool",
          "name": "",
          "type": "bool"
        }
      ],
      "stateMutability": "view",
      "type": "function"
    },
    {
      "inputs": [
        {
          "internalType": "address",
          "name": "_to",
          "type": "address"
        },
        {
          "internalType": "uint256",
          "name": "_count",
          "type": "uint256"
        }
      ],
      "name": "mintLeoPunks",
      "outputs": [],
      "stateMutability": "payable",
      "type": "function"
    },
    {
      "inputs": [],
      "name": "name",
      "outputs": [
        {
          "internalType": "string",
          "name": "",
          "type": "string"
        }
      ],
      "stateMutability": "view",
      "type": "function"
    },
    {
      "inputs": [],
      "name": "owner",
      "outputs": [
        {
          "internalType": "address",
          "name": "",
          "type": "address"
        }
      ],
      "stateMutability": "view",
      "type": "function"
    },
    {
      "inputs": [
        {
          "internalType": "uint256",
          "name": "tokenId",
          "type": "uint256"
        }
      ],
      "name": "ownerOf",
      "outputs": [
        {
          "internalType": "address",
          "name": "",
          "type": "address"
        }
      ],
      "stateMutability": "view",
      "type": "function"
    },
    {
      "inputs": [],
      "name": "price",
      "outputs": [
        {
          "internalType": "uint256",
          "name": "",
          "type": "uint256"
        }
      ],
      "stateMutability": "view",
      "type": "function"
    },
    {
      "inputs": [],
      "name": "renounceOwnership",
      "outputs": [],
      "stateMutability": "nonpayable",
      "type": "function"
    },
    {
      "inputs": [
        {
          "internalType": "address",
          "name": "from",
          "type": "address"
        },
        {
          "internalType": "address",
          "name": "to",
          "type": "address"
        },
        {
          "internalType": "uint256",
          "name": "tokenId",
          "type": "uint256"
        }
      ],
      "name": "safeTransferFrom",
      "outputs": [],
      "stateMutability": "nonpayable",
      "type": "function"
    },
    {
      "inputs": [
        {
          "internalType": "address",
          "name": "from",
          "type": "address"
        },
        {
          "internalType": "address",
          "name": "to",
          "type": "address"
        },
        {
          "internalType": "uint256",
          "name": "tokenId",
          "type": "uint256"
        },
        {
          "internalType": "bytes",
          "name": "_data",
          "type": "bytes"
        }
      ],
      "name": "safeTransferFrom",
      "outputs": [],
      "stateMutability": "nonpayable",
      "type": "function"
    },
    {
      "inputs": [],
      "name": "saleOpen",
      "outputs": [
        {
          "internalType": "bool",
          "name": "",
          "type": "bool"
        }
      ],
      "stateMutability": "view",
      "type": "function"
    },
    {
      "inputs": [
        {
          "internalType": "address",
          "name": "operator",
          "type": "address"
        },
        {
          "internalType": "bool",
          "name": "approved",
          "type": "bool"
        }
      ],
      "name": "setApprovalForAll",
      "outputs": [],
      "stateMutability": "nonpayable",
      "type": "function"
    },
    {
      "inputs": [
        {
          "internalType": "string",
          "name": "baseURI",
          "type": "string"
        }
      ],
      "name": "setBaseURI",
      "outputs": [],
      "stateMutability": "nonpayable",
      "type": "function"
    },
    {
      "inputs": [
        {
          "internalType": "uint256",
          "name": "_newPrice",
          "type": "uint256"
        }
      ],
      "name": "setPrice",
      "outputs": [],
      "stateMutability": "nonpayable",
      "type": "function"
    },
    {
      "inputs": [
        {
          "internalType": "bytes4",
          "name": "interfaceId",
          "type": "bytes4"
        }
      ],
      "name": "supportsInterface",
      "outputs": [
        {
          "internalType": "bool",
          "name": "",
          "type": "bool"
        }
      ],
      "stateMutability": "view",
      "type": "function"
    },
    {
      "inputs": [],
      "name": "symbol",
      "outputs": [
        {
          "internalType": "string",
          "name": "",
          "type": "string"
        }
      ],
      "stateMutability": "view",
      "type": "function"
    },
    {
      "inputs": [
        {
          "internalType": "uint256",
          "name": "index",
          "type": "uint256"
        }
      ],
      "name": "tokenByIndex",
      "outputs": [
        {
          "internalType": "uint256",
          "name": "",
          "type": "uint256"
        }
      ],
      "stateMutability": "view",
      "type": "function"
    },
    {
      "inputs": [
        {
          "internalType": "address",
          "name": "owner",
          "type": "address"
        },
        {
          "internalType": "uint256",
          "name": "index",
          "type": "uint256"
        }
      ],
      "name": "tokenOfOwnerByIndex",
      "outputs": [
        {
          "internalType": "uint256",
          "name": "",
          "type": "uint256"
        }
      ],
      "stateMutability": "view",
      "type": "function"
    },
    {
      "inputs": [
        {
          "internalType": "uint256",
          "name": "tokenId",
          "type": "uint256"
        }
      ],
      "name": "tokenURI",
      "outputs": [
        {
          "internalType": "string",
          "name": "",
          "type": "string"
        }
      ],
      "stateMutability": "view",
      "type": "function"
    },
    {
      "inputs": [],
      "name": "totalSupply",
      "outputs": [
        {
          "internalType": "uint256",
          "name": "",
          "type": "uint256"
        }
      ],
      "stateMutability": "view",
      "type": "function"
    },
    {
      "inputs": [
        {
          "internalType": "address",
          "name": "from",
          "type": "address"
        },
        {
          "internalType": "address",
          "name": "to",
          "type": "address"
        },
        {
          "internalType": "uint256",
          "name": "tokenId",
          "type": "uint256"
        }
      ],
      "name": "transferFrom",
      "outputs": [],
      "stateMutability": "nonpayable",
      "type": "function"
    },
    {
      "inputs": [
        {
          "internalType": "address",
          "name": "newOwner",
          "type": "address"
        }
      ],
      "name": "transferOwnership",
      "outputs": [],
      "stateMutability": "nonpayable",
      "type": "function"
    },
    {
      "inputs": [
        {
          "internalType": "address",
          "name": "_owner",
          "type": "address"
        }
      ],
      "name": "walletOfOwner",
      "outputs": [
        {
          "internalType": "uint256[]",
          "name": "",
          "type": "uint256[]"
        }
      ],
      "stateMutability": "view",
      "type": "function"
    },
    {
      "inputs": [],
      "name": "withdrawAll",
      "outputs": [],
      "stateMutability": "nonpayable",
      "type": "function"
    }
  ],
  "bytecode": {
    "object": "608060405266b1a2bc2ec50000600c55600e805460ff191690553480156200002657600080fd5b50604051620027b5380380620027b583398101604081905262000049916200024d565b60408051808201825260098152684c656f2050756e6b7360b81b6020808301918252835180850190945260038452624c656f60e81b9084015281519192916200009591600091620001a7565b508051620000ab906001906020840190620001a7565b505050620000c8620000c2620000da60201b60201c565b620000de565b620000d38162000130565b50620003a4565b3390565b600a80546001600160a01b038381166001600160a01b0319831681179093556040519116919082907f8be0079c531659141344cd1fd0a4f28419497f9722a3daafe3b4186f6b6457e090600090a35050565b6200013a620000da565b6001600160a01b03166200014d62000198565b6001600160a01b0316146200017f5760405162461bcd60e51b815260040162000176906200031c565b60405180910390fd5b80516200019490600d906020840190620001a7565b5050565b600a546001600160a01b031690565b828054620001b59062000351565b90600052602060002090601f016020900481019282620001d9576000855562000224565b82601f10620001f457805160ff191683800117855562000224565b8280016001018555821562000224579182015b828111156200022457825182559160200191906001019062000207565b506200023292915062000236565b5090565b5b8082111562000232576000815560010162000237565b6000602080838503121562000260578182fd5b82516001600160401b038082111562000277578384fd5b818501915085601f8301126200028b578384fd5b815181811115620002a057620002a06200038e565b604051601f8201601f1916810185018381118282101715620002c657620002c66200038e565b6040528181528382018501881015620002dd578586fd5b8592505b81831015620003005783830185015181840186015291840191620002e1565b818311156200031157858583830101525b979650505050505050565b6020808252818101527f4f776e61626c653a2063616c6c6572206973206e6f7420746865206f776e6572604082015260600190565b6002810460018216806200036657607f821691505b602082108114156200038857634e487b7160e01b600052602260045260246000fd5b50919050565b634e487b7160e01b600052604160045260246000fd5b61240180620003b46000396000f3fe6080604052600436106101b75760003560e01c80636352211e116100ec57806399288dbb1161008a578063b88d4fde11610064578063b88d4fde1461048d578063c87b56dd146104ad578063e985e9c5146104cd578063f2fde38b146104ed576101b7565b806399288dbb14610443578063a035b1fe14610458578063a22cb4651461046d576101b7565b8063853828b6116100c6578063853828b6146103e45780638da5cb5b146103f957806391b7f5ed1461040e57806395d89b411461042e576101b7565b80636352211e1461038f57806370a08231146103af578063715018a6146103cf576101b7565b806334918dfd116101595780634f6ccce7116101335780634f6ccce7146103275780635537621b1461034757806355f804b31461035a578063610552f41461037a576101b7565b806334918dfd146102c557806342842e0e146102da578063438b6300146102fa576101b7565b8063095ea7b311610195578063095ea7b31461024157806318160ddd1461026357806323b872dd146102855780632f745c59146102a5576101b7565b806301ffc9a7146101bc57806306fdde03146101f2578063081812fc14610214575b600080fd5b3480156101c857600080fd5b506101dc6101d7366004611a56565b61050d565b6040516101e99190611bdf565b60405180910390f35b3480156101fe57600080fd5b5061020761053a565b6040516101e99190611bea565b34801561022057600080fd5b5061023461022f366004611ad4565b6105cc565b6040516101e99190611b4a565b34801561024d57600080fd5b5061026161025c366004611a2d565b610618565b005b34801561026f57600080fd5b506102786106b0565b6040516101e99190612272565b34801561029157600080fd5b506102616102a036600461193f565b6106b6565b3480156102b157600080fd5b506102786102c0366004611a2d565b6106ee565b3480156102d157600080fd5b50610261610740565b3480156102e657600080fd5b506102616102f536600461193f565b610793565b34801561030657600080fd5b5061031a6103153660046118f3565b6107ae565b6040516101e99190611b9b565b34801561033357600080fd5b50610278610342366004611ad4565b61086c565b610261610355366004611a2d565b6108c7565b34801561036657600080fd5b50610261610375366004611a8e565b6109d1565b34801561038657600080fd5b50610278610a27565b34801561039b57600080fd5b506102346103aa366004611ad4565b610a2d565b3480156103bb57600080fd5b506102786103ca3660046118f3565b610a62565b3480156103db57600080fd5b50610261610aa6565b3480156103f057600080fd5b50610261610af1565b34801561040557600080fd5b50610234610baf565b34801561041a57600080fd5b50610261610429366004611ad4565b610bbe565b34801561043a57600080fd5b50610207610c02565b34801561044f57600080fd5b506101dc610c11565b34801561046457600080fd5b50610278610c1a565b34801561047957600080fd5b506102616104883660046119f3565b610c20565b34801561049957600080fd5b506102616104a836600461197a565b610cee565b3480156104b957600080fd5b506102076104c8366004611ad4565b610d2d565b3480156104d957600080fd5b506101dc6104e836600461190d565b610db0565b3480156104f957600080fd5b506102616105083660046118f3565b610dde565b60006001600160e01b0319821663780e9d6360e01b1480610532575061053282610e4c565b90505b919050565b60606000805461054990612309565b80601f016020809104026020016040519081016040528092919081815260200182805461057590612309565b80156105c25780601f10610597576101008083540402835291602001916105c2565b820191906000526020600020905b8154815290600101906020018083116105a557829003601f168201915b5050505050905090565b60006105d782610e8c565b6105fc5760405162461bcd60e51b81526004016105f390611fb4565b60405180910390fd5b506000908152600460205260409020546001600160a01b031690565b600061062382610a2d565b9050806001600160a01b0316836001600160a01b031614156106575760405162461bcd60e51b81526004016105f39061211c565b806001600160a01b0316610669610ea9565b6001600160a01b031614806106855750610685816104e8610ea9565b6106a15760405162461bcd60e51b81526004016105f390611e8f565b6106ab8383610ead565b505050565b60085490565b6106c76106c1610ea9565b82610f1b565b6106e35760405162461bcd60e51b81526004016105f390612187565b6106ab838383610fa0565b60006106f983610a62565b82106107175760405162461bcd60e51b81526004016105f390611c34565b506001600160a01b03919091166000908152600660209081526040808320938352929052205490565b610748610ea9565b6001600160a01b0316610759610baf565b6001600160a01b03161461077f5760405162461bcd60e51b81526004016105f39061204f565b600e805460ff19811660ff90911615179055565b6106ab83838360405180602001604052806000815250610cee565b606060006107bb83610a62565b905060008167ffffffffffffffff8111156107e657634e487b7160e01b600052604160045260246000fd5b60405190808252806020026020018201604052801561080f578160200160208202803683370190505b50905060005b828110156108645761082785826106ee565b82828151811061084757634e487b7160e01b600052603260045260246000fd5b60209081029190910101528061085c81612344565b915050610815565b509392505050565b60006108766106b0565b82106108945760405162461bcd60e51b81526004016105f390612226565b600882815481106108b557634e487b7160e01b600052603260045260246000fd5b90600052602060002001549050919050565b6105dc816108d36106b0565b6108dd919061227b565b11156108fb5760405162461bcd60e51b81526004016105f390611bfd565b6000811161091b5760405162461bcd60e51b81526004016105f3906121d8565b610923610baf565b6001600160a01b0316336001600160a01b0316146109ab57600e5460ff1661095d5760405162461bcd60e51b81526004016105f390611e15565b601481111561097e5760405162461bcd60e51b81526004016105f390611d4e565b80600c5461098c91906122a7565b3410156109ab5760405162461bcd60e51b81526004016105f390612000565b60005b818110156106ab576109bf836110cd565b806109c981612344565b9150506109ae565b6109d9610ea9565b6001600160a01b03166109ea610baf565b6001600160a01b031614610a105760405162461bcd60e51b81526004016105f39061204f565b8051610a2390600d9060208401906117d3565b5050565b6105dc81565b6000818152600260205260408120546001600160a01b0316806105325760405162461bcd60e51b81526004016105f390611f36565b60006001600160a01b038216610a8a5760405162461bcd60e51b81526004016105f390611eec565b506001600160a01b031660009081526003602052604090205490565b610aae610ea9565b6001600160a01b0316610abf610baf565b6001600160a01b031614610ae55760405162461bcd60e51b81526004016105f39061204f565b610aef600061112a565b565b610af9610ea9565b6001600160a01b0316610b0a610baf565b6001600160a01b031614610b305760405162461bcd60e51b81526004016105f39061204f565b6000336001600160a01b031647604051610b4990611b47565b60006040518083038185875af1925050503d8060008114610b86576040519150601f19603f3d011682016040523d82523d6000602084013e610b8b565b606091505b5050905080610bac5760405162461bcd60e51b81526004016105f39061215d565b50565b600a546001600160a01b031690565b610bc6610ea9565b6001600160a01b0316610bd7610baf565b6001600160a01b031614610bfd5760405162461bcd60e51b81526004016105f39061204f565b600c55565b60606001805461054990612309565b600e5460ff1681565b600c5481565b610c28610ea9565b6001600160a01b0316826001600160a01b03161415610c595760405162461bcd60e51b81526004016105f390611dde565b8060056000610c66610ea9565b6001600160a01b03908116825260208083019390935260409182016000908120918716808252919093529120805460ff191692151592909217909155610caa610ea9565b6001600160a01b03167f17307eab39ab6107e8899845ad3d59bd9653f200f220920489ca2b5937696c3183604051610ce29190611bdf565b60405180910390a35050565b610cff610cf9610ea9565b83610f1b565b610d1b5760405162461bcd60e51b81526004016105f390612187565b610d278484848461117c565b50505050565b6060610d3882610e8c565b610d545760405162461bcd60e51b81526004016105f3906120cd565b6000610d5e6111af565b90506000815111610d7e5760405180602001604052806000815250610da9565b80610d88846111be565b604051602001610d99929190611b18565b6040516020818303038152906040525b9392505050565b6001600160a01b03918216600090815260056020908152604080832093909416825291909152205460ff1690565b610de6610ea9565b6001600160a01b0316610df7610baf565b6001600160a01b031614610e1d5760405162461bcd60e51b81526004016105f39061204f565b6001600160a01b038116610e435760405162461bcd60e51b81526004016105f390611cd1565b610bac8161112a565b60006001600160e01b031982166380ac58cd60e01b1480610e7d57506001600160e01b03198216635b5e139f60e01b145b806105325750610532826112d9565b6000908152600260205260409020546001600160a01b0316151590565b3390565b600081815260046020526040902080546001600160a01b0319166001600160a01b0384169081179091558190610ee282610a2d565b6001600160a01b03167f8c5be1e5ebec7d5bd14f71427d1e84f3dd0314c0f7b2291e5b200ac8c7c3b92560405160405180910390a45050565b6000610f2682610e8c565b610f425760405162461bcd60e51b81526004016105f390611e43565b6000610f4d83610a2d565b9050806001600160a01b0316846001600160a01b03161480610f885750836001600160a01b0316610f7d846105cc565b6001600160a01b0316145b80610f985750610f988185610db0565b949350505050565b826001600160a01b0316610fb382610a2d565b6001600160a01b031614610fd95760405162461bcd60e51b81526004016105f390612084565b6001600160a01b038216610fff5760405162461bcd60e51b81526004016105f390611d9a565b61100a8383836112f2565b611015600082610ead565b6001600160a01b038316600090815260036020526040812080546001929061103e9084906122c6565b90915550506001600160a01b038216600090815260036020526040812080546001929061106c90849061227b565b909155505060008181526002602052604080822080546001600160a01b0319166001600160a01b0386811691821790925591518493918716917fddf252ad1be2c89b69c2b068fc378daa952ba7f163c4a11628f55a4df523b3ef91a4505050565b6110d7600b61137b565b60006110e3600b611384565b90506110ef8282611388565b7fe7e310c3d1fca7dc3ef4b6dc8c5a2d6c8b539c4c401c7da6565fd164d9aa6e908160405161111e9190612272565b60405180910390a15050565b600a80546001600160a01b038381166001600160a01b0319831681179093556040519116919082907f8be0079c531659141344cd1fd0a4f28419497f9722a3daafe3b4186f6b6457e090600090a35050565b611187848484610fa0565b611193848484846113a2565b610d275760405162461bcd60e51b81526004016105f390611c7f565b6060600d805461054990612309565b6060816111e357506040805180820190915260018152600360fc1b6020820152610535565b8160005b811561120d57806111f781612344565b91506112069050600a83612293565b91506111e7565b60008167ffffffffffffffff81111561123657634e487b7160e01b600052604160045260246000fd5b6040519080825280601f01601f191660200182016040528015611260576020820181803683370190505b5090505b8415610f98576112756001836122c6565b9150611282600a8661235f565b61128d90603061227b565b60f81b8183815181106112b057634e487b7160e01b600052603260045260246000fd5b60200101906001600160f81b031916908160001a9053506112d2600a86612293565b9450611264565b6001600160e01b031981166301ffc9a760e01b14919050565b6112fd8383836106ab565b6001600160a01b03831661131957611314816114bd565b61133c565b816001600160a01b0316836001600160a01b03161461133c5761133c8382611501565b6001600160a01b038216611358576113538161159e565b6106ab565b826001600160a01b0316826001600160a01b0316146106ab576106ab8282611677565b80546001019055565b5490565b610a238282604051806020016040528060008152506116bb565b60006113b6846001600160a01b03166116ee565b156114b257836001600160a01b031663150b7a026113d2610ea9565b8786866040518563ffffffff1660e01b81526004016113f49493929190611b5e565b602060405180830381600087803b15801561140e57600080fd5b505af192505050801561143e575060408051601f3d908101601f1916820190925261143b91810190611a72565b60015b611498573d80801561146c576040519150601f19603f3d011682016040523d82523d6000602084013e611471565b606091505b5080516114905760405162461bcd60e51b81526004016105f390611c7f565b805181602001fd5b6001600160e01b031916630a85bd0160e11b149050610f98565b506001949350505050565b600880546000838152600960205260408120829055600182018355919091527ff3f7a9fe364faab93b216da50a3214154f22a0a2b415b23a84c8169e8b636ee30155565b6000600161150e84610a62565b61151891906122c6565b60008381526007602052604090205490915080821461156b576001600160a01b03841660009081526006602090815260408083208584528252808320548484528184208190558352600790915290208190555b5060009182526007602090815260408084208490556001600160a01b039094168352600681528383209183525290812055565b6008546000906115b0906001906122c6565b600083815260096020526040812054600880549394509092849081106115e657634e487b7160e01b600052603260045260246000fd5b90600052602060002001549050806008838154811061161557634e487b7160e01b600052603260045260246000fd5b600091825260208083209091019290925582815260099091526040808220849055858252812055600880548061165b57634e487b7160e01b600052603160045260246000fd5b6001900381819060005260206000200160009055905550505050565b600061168283610a62565b6001600160a01b039093166000908152600660209081526040808320868452825280832085905593825260079052919091209190915550565b6116c583836116f4565b6116d260008484846113a2565b6106ab5760405162461bcd60e51b81526004016105f390611c7f565b3b151590565b6001600160a01b03821661171a5760405162461bcd60e51b81526004016105f390611f7f565b61172381610e8c565b156117405760405162461bcd60e51b81526004016105f390611d17565b61174c600083836112f2565b6001600160a01b038216600090815260036020526040812080546001929061177590849061227b565b909155505060008181526002602052604080822080546001600160a01b0319166001600160a01b03861690811790915590518392907fddf252ad1be2c89b69c2b068fc378daa952ba7f163c4a11628f55a4df523b3ef908290a45050565b8280546117df90612309565b90600052602060002090601f0160209004810192826118015760008555611847565b82601f1061181a57805160ff1916838001178555611847565b82800160010185558215611847579182015b8281111561184757825182559160200191906001019061182c565b50611853929150611857565b5090565b5b808211156118535760008155600101611858565b600067ffffffffffffffff808411156118875761188761239f565b604051601f8501601f1916810160200182811182821017156118ab576118ab61239f565b6040528481529150818385018610156118c357600080fd5b8484602083013760006020868301015250509392505050565b80356001600160a01b038116811461053557600080fd5b600060208284031215611904578081fd5b610da9826118dc565b6000806040838503121561191f578081fd5b611928836118dc565b9150611936602084016118dc565b90509250929050565b600080600060608486031215611953578081fd5b61195c846118dc565b925061196a602085016118dc565b9150604084013590509250925092565b6000806000806080858703121561198f578081fd5b611998856118dc565b93506119a6602086016118dc565b925060408501359150606085013567ffffffffffffffff8111156119c8578182fd5b8501601f810187136119d8578182fd5b6119e78782356020840161186c565b91505092959194509250565b60008060408385031215611a05578182fd5b611a0e836118dc565b915060208301358015158114611a22578182fd5b809150509250929050565b60008060408385031215611a3f578182fd5b611a48836118dc565b946020939093013593505050565b600060208284031215611a67578081fd5b8135610da9816123b5565b600060208284031215611a83578081fd5b8151610da9816123b5565b600060208284031215611a9f578081fd5b813567ffffffffffffffff811115611ab5578182fd5b8201601f81018413611ac5578182fd5b610f988482356020840161186c565b600060208284031215611ae5578081fd5b5035919050565b60008151808452611b048160208601602086016122dd565b601f01601f19169290920160200192915050565b60008351611b2a8184602088016122dd565b835190830190611b3e8183602088016122dd565b01949350505050565b90565b6001600160a01b0391909116815260200190565b6001600160a01b0385811682528416602082015260408101839052608060608201819052600090611b9190830184611aec565b9695505050505050565b6020808252825182820181905260009190848201906040850190845b81811015611bd357835183529284019291840191600101611bb7565b50909695505050505050565b901515815260200190565b600060208252610da96020830184611aec565b6020808252601d908201527f45786365656473206d6178696d756d20737570706c79206f66204c656f000000604082015260600190565b6020808252602b908201527f455243373231456e756d657261626c653a206f776e657220696e646578206f7560408201526a74206f6620626f756e647360a81b606082015260800190565b60208082526032908201527f4552433732313a207472616e7366657220746f206e6f6e20455243373231526560408201527131b2b4bb32b91034b6b83632b6b2b73a32b960711b606082015260800190565b60208082526026908201527f4f776e61626c653a206e6577206f776e657220697320746865207a65726f206160408201526564647265737360d01b606082015260800190565b6020808252601c908201527f4552433732313a20746f6b656e20616c7265616479206d696e74656400000000604082015260600190565b6020808252602c908201527f4d6178696d756d203230204c656f2063616e206265206d696e7465642070657260408201526b103a3930b739b0b1ba34b7b760a11b606082015260800190565b60208082526024908201527f4552433732313a207472616e7366657220746f20746865207a65726f206164646040820152637265737360e01b606082015260800190565b60208082526019908201527f4552433732313a20617070726f766520746f2063616c6c657200000000000000604082015260600190565b60208082526014908201527314d85b19481a5cc81b9bdd081bdc195b881e595d60621b604082015260600190565b6020808252602c908201527f4552433732313a206f70657261746f7220717565727920666f72206e6f6e657860408201526b34b9ba32b73a103a37b5b2b760a11b606082015260800190565b60208082526038908201527f4552433732313a20617070726f76652063616c6c6572206973206e6f74206f7760408201527f6e6572206e6f7220617070726f76656420666f7220616c6c0000000000000000606082015260800190565b6020808252602a908201527f4552433732313a2062616c616e636520717565727920666f7220746865207a65604082015269726f206164647265737360b01b606082015260800190565b60208082526029908201527f4552433732313a206f776e657220717565727920666f72206e6f6e657869737460408201526832b73a103a37b5b2b760b91b606082015260800190565b6020808252818101527f4552433732313a206d696e7420746f20746865207a65726f2061646472657373604082015260600190565b6020808252602c908201527f4552433732313a20617070726f76656420717565727920666f72206e6f6e657860408201526b34b9ba32b73a103a37b5b2b760a11b606082015260800190565b6020808252602f908201527f45746865722073656e7420776974682074686973207472616e73616374696f6e60408201526e081a5cc81b9bdd0818dbdc9c9958dd608a1b606082015260800190565b6020808252818101527f4f776e61626c653a2063616c6c6572206973206e6f7420746865206f776e6572604082015260600190565b60208082526029908201527f4552433732313a207472616e73666572206f6620746f6b656e2074686174206960408201526839903737ba1037bbb760b91b606082015260800190565b6020808252602f908201527f4552433732314d657461646174613a2055524920717565727920666f72206e6f60408201526e3732bc34b9ba32b73a103a37b5b2b760891b606082015260800190565b60208082526021908201527f4552433732313a20617070726f76616c20746f2063757272656e74206f776e656040820152603960f91b606082015260800190565b60208082526010908201526f2a3930b739b332b9103330b4b632b21760811b604082015260600190565b60208082526031908201527f4552433732313a207472616e736665722063616c6c6572206973206e6f74206f6040820152701ddb995c881b9bdc88185c1c1c9bdd9959607a1b606082015260800190565b6020808252602e908201527f4d696e696d756d2031204c656f2068617320746f206265206d696e746564207060408201526d32b9103a3930b739b0b1ba34b7b760911b606082015260800190565b6020808252602c908201527f455243373231456e756d657261626c653a20676c6f62616c20696e646578206f60408201526b7574206f6620626f756e647360a01b606082015260800190565b90815260200190565b6000821982111561228e5761228e612373565b500190565b6000826122a2576122a2612389565b500490565b60008160001904831182151516156122c1576122c1612373565b500290565b6000828210156122d8576122d8612373565b500390565b60005b838110156122f85781810151838201526020016122e0565b83811115610d275750506000910152565b60028104600182168061231d57607f821691505b6020821081141561233e57634e487b7160e01b600052602260045260246000fd5b50919050565b600060001982141561235857612358612373565b5060010190565b60008261236e5761236e612389565b500690565b634e487b7160e01b600052601160045260246000fd5b634e487b7160e01b600052601260045260246000fd5b634e487b7160e01b600052604160045260246000fd5b6001600160e01b031981168114610bac57600080fdfea26469706673582212203df2b3c639e161a662d92749ad803de05aa30a66c78b154b5039883184dc338964736f6c63430008000033"
  }
}