{
  "opcodeHash": "0x00237484667db17ecad3b19ef467243bbabdd63af48ee54a201d55bee5b8b4e2",
  "metalessHash": "0x800bbd5fcad8999eb26ee79847bb9f23d1b974ef7baace494be1f9756ee4a98d",
  "runtimeHash": "0x6e22467401791caf421c7cd32589532f929bcc5ce20cb4c0fc8810578cb6d005",
  "encodedMetadata": [
    {
      "ipfs": "/ipfs/QmYxQZsu2rBUi9Uo7qvt8agyxVbvuWFjG3hF9kYbLyF4ch",
      "solc": "0.8.4"
    }
  ],
  "abi": [
    {
      "inputs": [],
      "stateMutability": "nonpayable",
      "type": "constructor"
    },
    {
      "inputs": [],
      "name": "send",
      "outputs": [],
      "stateMutability": "payable",
      "type": "function"
    },
    {
      "inputs": [],
      "name": "withdraw",
      "outputs": [],
      "stateMutability": "nonpayable",
      "type": "function"
    },
    {
      "stateMutability": "payable",
      "type": "receive"
    }
  ],
  "bytecode": {
    "object": "608060405234801561001057600080fd5b5061012f806100206000396000f3fe60806040526004361060295760003560e01c80633ccfd60b146034578063b46300ec14604857602f565b36602f57005b600080fd5b348015603f57600080fd5b5060466050565b005b604e60b7565b005b3373ffffffffffffffffffffffffffffffffffffffff164760405160729060d8565b60006040518083038185875af1925050503d806000811460ad576040519150601f19603f3d011682016040523d82523d6000602084013e60b2565b606091505b505050565b565b600060c460008360eb565b915060cd8260f6565b600082019050919050565b600060e18260b9565b9150819050919050565b600081905092915050565b5056fea2646970667358221220f5ce0cc7f5da1ab5847afd1430717f9fd416afe9a702eb5cfb3377f137556b4864736f6c63430008040033"
  }
}