{"compiler":"v0.7.4+commit.3f05b770","opcodeHash":"0x258af3df628a0801c0373fb022e883e34e8c22995b22f895db4cc54f4509b608","metalessHash":"0x30b7771ef60e4f51fb51c067871e97f21273b3b5849d3a5389509aadf3607221","runtimeHash":"0x135b7dcc7afcce3caf2027644a0a494dad0d961a2f4e155b196741b654d23a08","encodedMetadata":[{"ipfs":"/ipfs/QmSHNcmVsibUQCNX8wvay8g49ujEcM5U9rgmtXMUVGohXZ","solc":"0.7.4"}],"abi":[{"inputs":[],"stateMutability":"payable","type":"constructor"},{"stateMutability":"payable","type":"fallback"},{"inputs":[],"name":"ETH_TOKEN_PLACEHOLDER_ADDRESS","outputs":[{"internalType":"address","name":"","type":"address"}],"stateMutability":"view","type":"function"},{"inputs":[],"name":"WETH_TOKEN_ADDRESS","outputs":[{"internalType":"address","name":"","type":"address"}],"stateMutability":"view","type":"function"},{"inputs":[{"internalType":"address","name":"token","type":"address"},{"internalType":"uint256","name":"amount","type":"uint256"},{"internalType":"address payable","name":"destination","type":"address"}],"name":"adminEmergencyWithdrawAccidentallyDepositedTokens","outputs":[{"internalType":"bool","name":"","type":"bool"}],"stateMutability":"nonpayable","type":"function"},{"inputs":[{"internalType":"address payable","name":"newOwner","type":"address"}],"name":"changeOwner","outputs":[{"internalType":"bool","name":"","type":"bool"}],"stateMutability":"nonpayable","type":"function"},{"inputs":[{"internalType":"address","name":"sourceToken","type":"address"},{"internalType":"address[]","name":"destinationTokens","type":"address[]"},{"internalType":"uint256","name":"amount","type":"uint256"}],"name":"convert","outputs":[{"internalType":"address","name":"","type":"address"},{"internalType":"uint256","name":"","type":"uint256"}],"stateMutability":"payable","type":"function"},{"inputs":[],"name":"converterAddress","outputs":[{"internalType":"address","name":"","type":"address"}],"stateMutability":"view","type":"function"},{"inputs":[{"internalType":"address","name":"sourceToken","type":"address"},{"internalType":"address","name":"destinationToken","type":"address"},{"internalType":"uint256","name":"amount","type":"uint256"}],"name":"deconvert","outputs":[{"internalType":"uint256","name":"","type":"uint256"}],"stateMutability":"payable","type":"function"},{"inputs":[{"internalType":"string","name":"tier2ContractName","type":"string"},{"internalType":"address","name":"tokenAddress","type":"address"},{"internalType":"uint256","name":"amount","type":"uint256"}],"name":"deposit","outputs":[{"internalType":"bool","name":"","type":"bool"}],"stateMutability":"payable","type":"function"},{"inputs":[{"internalType":"address","name":"tier2Address","type":"address"},{"internalType":"address","name":"tokenAddress","type":"address"}],"name":"getAPR","outputs":[{"internalType":"uint256","name":"","type":"uint256"}],"stateMutability":"view","type":"function"},{"inputs":[{"internalType":"address","name":"tokenAddress","type":"address"},{"internalType":"address","name":"userAddress","type":"address"},{"internalType":"address","name":"tier2Address","type":"address"}],"name":"getAmountStakedByUser","outputs":[{"internalType":"uint256","name":"","type":"uint256"}],"stateMutability":"view","type":"function"},{"inputs":[],"name":"getStakableTokens","outputs":[{"internalType":"address[]","name":"","type":"address[]"},{"internalType":"string[]","name":"","type":"string[]"}],"stateMutability":"view","type":"function"},{"inputs":[{"internalType":"address","name":"tokenAddress","type":"address"}],"name":"getTokenPrice","outputs":[{"internalType":"uint256","name":"","type":"uint256"}],"stateMutability":"view","type":"function"},{"inputs":[{"internalType":"uint256","name":"optionIndex","type":"uint256"}],"name":"getTotalValueLockedAggregated","outputs":[{"internalType":"uint256","name":"","type":"uint256"}],"stateMutability":"view","type":"function"},{"inputs":[{"internalType":"address","name":"tokenAddress","type":"address"},{"internalType":"address","name":"tier2Address","type":"address"}],"name":"getTotalValueLockedInternalByToken","outputs":[{"internalType":"uint256","name":"","type":"uint256"}],"stateMutability":"view","type":"function"},{"inputs":[{"internalType":"address","name":"userAddress","type":"address"},{"internalType":"address","name":"tokenAddress","type":"address"},{"internalType":"address","name":"tier2FarmAddress","type":"address"}],"name":"getUserCurrentReward","outputs":[{"internalType":"uint256","name":"","type":"uint256"}],"stateMutability":"view","type":"function"},{"inputs":[{"internalType":"address","name":"userAddress","type":"address"},{"internalType":"address","name":"tokenAddress","type":"address"}],"name":"getUserWalletBalance","outputs":[{"internalType":"uint256","name":"","type":"uint256"}],"stateMutability":"view","type":"function"},{"inputs":[],"name":"oracleAddress","outputs":[{"internalType":"address","name":"","type":"address"}],"stateMutability":"view","type":"function"},{"inputs":[],"name":"owner","outputs":[{"internalType":"address payable","name":"","type":"address"}],"stateMutability":"view","type":"function"},{"inputs":[{"internalType":"address","name":"theAddress","type":"address"}],"name":"setConverterAddress","outputs":[{"internalType":"bool","name":"","type":"bool"}],"stateMutability":"nonpayable","type":"function"},{"inputs":[{"internalType":"address","name":"theAddress","type":"address"}],"name":"setOracleAddress","outputs":[{"internalType":"bool","name":"","type":"bool"}],"stateMutability":"nonpayable","type":"function"},{"inputs":[{"internalType":"address","name":"theAddress","type":"address"}],"name":"setStakingAddress","outputs":[{"internalType":"bool","name":"","type":"bool"}],"stateMutability":"nonpayable","type":"function"},{"inputs":[],"name":"stakingAddress","outputs":[{"internalType":"address","name":"","type":"address"}],"stateMutability":"view","type":"function"},{"inputs":[{"internalType":"address","name":"newAddress","type":"address"}],"name":"updateWETHAddress","outputs":[{"internalType":"bool","name":"","type":"bool"}],"stateMutability":"nonpayable","type":"function"},{"inputs":[{"internalType":"string","name":"tier2ContractName","type":"string"},{"internalType":"address","name":"tokenAddress","type":"address"},{"internalType":"uint256","name":"amount","type":"uint256"}],"name":"withdraw","outputs":[{"internalType":"bool","name":"","type":"bool"}],"stateMutability":"payable","type":"function"}],"bytecode":{"object":"60806040526000600660006101000a81548173ffffffffffffffffffffffffffffffffffffffff021916908373ffffffffffffffffffffffffffffffffffffffff16021790555073c02aaa39b223fe8d0a0e5c4f27ead9083c756cc2600860006101000a81548173ffffffffffffffffffffffffffffffffffffffff021916908373ffffffffffffffffffffffffffffffffffffffff160217905550600860009054906101000a900473ffffffffffffffffffffffffffffffffffffffff16600960006101000a81548173ffffffffffffffffffffffffffffffffffffffff021916908373ffffffffffffffffffffffffffffffffffffffff1602179055506c0c9f2c9cd04674edea40000000600a5533600760006101000a81548173ffffffffffffffffffffffffffffffffffffffff021916908373ffffffffffffffffffffffffffffffffffffffff16021790555062000175731d17f9007282f9388bc9037688ade4344b2cc49b6200018460201b60201c565b506001600b819055506200033f565b6000600760009054906101000a900473ffffffffffffffffffffffffffffffffffffffff1673ffffffffffffffffffffffffffffffffffffffff163373ffffffffffffffffffffffffffffffffffffffff161462000219576040517f08c379a000000000000000000000000000000000000000000000000000000000815260040162000210906200030c565b60405180910390fd5b81600160006101000a81548173ffffffffffffffffffffffffffffffffffffffff021916908373ffffffffffffffffffffffffffffffffffffffff16021790555081600560006101000a81548173ffffffffffffffffffffffffffffffffffffffff021916908373ffffffffffffffffffffffffffffffffffffffff16021790555060019050919050565b6000620002b36022836200032e565b91507f4f6e6c79206f776e65722063616e2063616c6c20746869732066756e6374696f60008301527f6e2e0000000000000000000000000000000000000000000000000000000000006020830152604082019050919050565b600060208201905081810360008301526200032781620002a4565b9050919050565b600082825260208201905092915050565b612b25806200034f6000396000f3fe60806040526004361061014e5760003560e01c8063a6f9dae1116100b6578063d3e231ce1161006f578063d3e231ce14610520578063d7b4be241461055d578063e6f307d414610588578063ebbf95e1146105c5578063f4e0d9ac146105f1578063fd13b2921461062e5761014f565b8063a6f9dae1146103e3578063a89ae4ba14610420578063b1a3a5c41461044b578063ccdf114b14610488578063ce453326146104b8578063d02641a0146104e35761014f565b806339008cf71161010857806339008cf7146102a65780634c69c00f146102e3578063579a7e1a146103205780635a73b0bf1461034b57806378a0d7591461037b5780638da5cb5b146103b85761014f565b8062684fd11461015157806309bf2e751461018e578063241b0b49146101cb5780632a48ac9a146102085780632aaa5d2b1461023857806331f46d0d146102695761014f565b5b005b34801561015d57600080fd5b5061017860048036038101906101739190611e94565b610659565b6040516101859190612754565b60405180910390f35b34801561019a57600080fd5b506101b560048036038101906101b09190611f22565b610772565b6040516101c2919061283b565b60405180910390f35b3480156101d757600080fd5b506101f260048036038101906101ed9190612063565b610831565b6040516101ff9190612754565b60405180910390f35b610222600480360381019061021d9190612147565b610a0d565b60405161022f9190612754565b60405180910390f35b610252600480360381019061024d9190611fc0565b610db6565b6040516102609291906126f4565b60405180910390f35b34801561027557600080fd5b50610290600480360381019061028b9190611f22565b610f15565b60405161029d919061283b565b60405180910390f35b3480156102b257600080fd5b506102cd60048036038101906102c89190611ee6565b610fcf565b6040516102da919061283b565b60405180910390f35b3480156102ef57600080fd5b5061030a60048036038101906103059190611e94565b61108b565b6040516103179190612754565b60405180910390f35b34801561032c57600080fd5b506103356111a7565b6040516103429190612589565b60405180910390f35b61036560048036038101906103609190612147565b6111cd565b6040516103729190612754565b60405180910390f35b34801561038757600080fd5b506103a2600480360381019061039d9190611ee6565b611327565b6040516103af919061283b565b60405180910390f35b3480156103c457600080fd5b506103cd6113e3565b6040516103da91906125a4565b60405180910390f35b3480156103ef57600080fd5b5061040a60048036038101906104059190611ebd565b611409565b6040516104179190612754565b60405180910390f35b34801561042c57600080fd5b506104356114e5565b6040516104429190612589565b60405180910390f35b34801561045757600080fd5b50610472600480360381019061046d91906121ae565b611509565b60405161047f919061283b565b60405180910390f35b6104a2600480360381019061049d9190611f71565b6115c2565b6040516104af919061283b565b60405180910390f35b3480156104c457600080fd5b506104cd611718565b6040516104da9190612589565b60405180910390f35b3480156104ef57600080fd5b5061050a60048036038101906105059190611e94565b61173e565b604051610517919061283b565b60405180910390f35b34801561052c57600080fd5b5061054760048036038101906105429190611ee6565b6117f7565b604051610554919061283b565b60405180910390f35b34801561056957600080fd5b506105726118b3565b60405161057f9190612589565b60405180910390f35b34801561059457600080fd5b506105af60048036038101906105aa9190611e94565b6118d9565b6040516105bc9190612754565b60405180910390f35b3480156105d157600080fd5b506105da6119f6565b6040516105e892919061271d565b60405180910390f35b3480156105fd57600080fd5b5061061860048036038101906106139190611e94565b611ab1565b6040516106259190612754565b60405180910390f35b34801561063a57600080fd5b50610643611bce565b6040516106509190612589565b60405180910390f35b6000600760009054906101000a900473ffffffffffffffffffffffffffffffffffffffff1673ffffffffffffffffffffffffffffffffffffffff163373ffffffffffffffffffffffffffffffffffffffff16146106eb576040517f08c379a00000000000000000000000000000000000000000000000000000000081526004016106e2906127bb565b60405180910390fd5b81600860006101000a81548173ffffffffffffffffffffffffffffffffffffffff021916908373ffffffffffffffffffffffffffffffffffffffff16021790555081600960006101000a81548173ffffffffffffffffffffffffffffffffffffffff021916908373ffffffffffffffffffffffffffffffffffffffff160217905550919050565b600080600360009054906101000a900473ffffffffffffffffffffffffffffffffffffffff1673ffffffffffffffffffffffffffffffffffffffff166309bf2e758686866040518463ffffffff1660e01b81526004016107d493929190612648565b60206040518083038186803b1580156107ec57600080fd5b505afa158015610800573d6000803e3d6000fd5b505050506040513d601f19601f8201168201806040525081019061082491906121d7565b9050809150509392505050565b6000600760009054906101000a900473ffffffffffffffffffffffffffffffffffffffff1673ffffffffffffffffffffffffffffffffffffffff163373ffffffffffffffffffffffffffffffffffffffff16146108c3576040517f08c379a00000000000000000000000000000000000000000000000000000000081526004016108ba906127bb565b60405180910390fd5b600660009054906101000a900473ffffffffffffffffffffffffffffffffffffffff1673ffffffffffffffffffffffffffffffffffffffff168473ffffffffffffffffffffffffffffffffffffffff161415610965578173ffffffffffffffffffffffffffffffffffffffff166108fc849081150290604051600060405180830381858888f1935050505015801561095f573d6000803e3d6000fd5b50610a02565b60008490508073ffffffffffffffffffffffffffffffffffffffff1663a9059cbb84866040518363ffffffff1660e01b81526004016109a59291906125f6565b602060405180830381600087803b1580156109bf57600080fd5b505af11580156109d3573d6000803e3d6000fd5b505050506040513d601f19601f820116820180604052508101906109f7919061211e565b610a0057600080fd5b505b600190509392505050565b60006002600b541415610a55576040517f08c379a0000000000000000000000000000000000000000000000000000000008152600401610a4c9061281b565b60405180910390fd5b6002600b819055506000600660009054906101000a900473ffffffffffffffffffffffffffffffffffffffff1673ffffffffffffffffffffffffffffffffffffffff168473ffffffffffffffffffffffffffffffffffffffff161415610b6557600960009054906101000a900473ffffffffffffffffffffffffffffffffffffffff1673ffffffffffffffffffffffffffffffffffffffff1663d0e30db0346040518263ffffffff1660e01b81526004016000604051808303818588803b158015610b1f57600080fd5b505af1158015610b33573d6000803e3d6000fd5b5050505050600860009054906101000a900473ffffffffffffffffffffffffffffffffffffffff169350839050610bf9565b8390508073ffffffffffffffffffffffffffffffffffffffff166323b872dd3330866040518463ffffffff1660e01b8152600401610ba5939291906125bf565b602060405180830381600087803b158015610bbf57600080fd5b505af1158015610bd3573d6000803e3d6000fd5b505050506040513d601f19601f82011682018060405250810190610bf7919061211e565b505b8073ffffffffffffffffffffffffffffffffffffffff1663095ea7b3600260009054906101000a900473ffffffffffffffffffffffffffffffffffffffff16600a546040518363ffffffff1660e01b8152600401610c589291906126f4565b602060405180830381600087803b158015610c7257600080fd5b505af1158015610c86573d6000803e3d6000fd5b505050506040513d601f19601f82011682018060405250810190610caa919061211e565b506000600460009054906101000a900473ffffffffffffffffffffffffffffffffffffffff1673ffffffffffffffffffffffffffffffffffffffff1663081dc9c6878787336040518563ffffffff1660e01b8152600401610d0e949392919061276f565b602060405180830381600087803b158015610d2857600080fd5b505af1158015610d3c573d6000803e3d6000fd5b505050506040513d601f19601f82011682018060405250810190610d60919061211e565b905080610da2576040517f08c379a0000000000000000000000000000000000000000000000000000000008152600401610d99906127db565b60405180910390fd5b80925050506001600b819055509392505050565b600080600080600560009054906101000a900473ffffffffffffffffffffffffffffffffffffffff1673ffffffffffffffffffffffffffffffffffffffff166393d31e01348989896040518563ffffffff1660e01b8152600401610e1c939291906126b6565b60408051808303818588803b158015610e3457600080fd5b505af1158015610e48573d6000803e3d6000fd5b50505050506040513d601f19601f82011682018060405250810190610e6d9190612027565b9150915060008290508073ffffffffffffffffffffffffffffffffffffffff1663a9059cbb33846040518363ffffffff1660e01b8152600401610eb19291906125f6565b602060405180830381600087803b158015610ecb57600080fd5b505af1158015610edf573d6000803e3d6000fd5b505050506040513d601f19601f82011682018060405250810190610f03919061211e565b50828294509450505050935093915050565b6000600360009054906101000a900473ffffffffffffffffffffffffffffffffffffffff1673ffffffffffffffffffffffffffffffffffffffff166331f46d0d8585856040518463ffffffff1660e01b8152600401610f7693929190612648565b60206040518083038186803b158015610f8e57600080fd5b505afa158015610fa2573d6000803e3d6000fd5b505050506040513d601f19601f82011682018060405250810190610fc691906121d7565b90509392505050565b600080600360009054906101000a900473ffffffffffffffffffffffffffffffffffffffff1673ffffffffffffffffffffffffffffffffffffffff166339008cf785856040518363ffffffff1660e01b815260040161102f92919061261f565b60206040518083038186803b15801561104757600080fd5b505afa15801561105b573d6000803e3d6000fd5b505050506040513d601f19601f8201168201806040525081019061107f91906121d7565b90508091505092915050565b6000600760009054906101000a900473ffffffffffffffffffffffffffffffffffffffff1673ffffffffffffffffffffffffffffffffffffffff163373ffffffffffffffffffffffffffffffffffffffff161461111d576040517f08c379a0000000000000000000000000000000000000000000000000000000008152600401611114906127bb565b60405180910390fd5b816000806101000a81548173ffffffffffffffffffffffffffffffffffffffff021916908373ffffffffffffffffffffffffffffffffffffffff16021790555081600360006101000a81548173ffffffffffffffffffffffffffffffffffffffff021916908373ffffffffffffffffffffffffffffffffffffffff16021790555060019050919050565b600860009054906101000a900473ffffffffffffffffffffffffffffffffffffffff1681565b60006002600b541415611215576040517f08c379a000000000000000000000000000000000000000000000000000000000815260040161120c9061281b565b60405180910390fd5b6002600b819055506000600460009054906101000a900473ffffffffffffffffffffffffffffffffffffffff1673ffffffffffffffffffffffffffffffffffffffff166362a33811868686336040518563ffffffff1660e01b8152600401611280949392919061276f565b602060405180830381600087803b15801561129a57600080fd5b505af11580156112ae573d6000803e3d6000fd5b505050506040513d601f19601f820116820180604052508101906112d2919061211e565b905080611314576040517f08c379a000000000000000000000000000000000000000000000000000000000815260040161130b906127fb565b60405180910390fd5b809150506001600b819055509392505050565b600080600360009054906101000a900473ffffffffffffffffffffffffffffffffffffffff1673ffffffffffffffffffffffffffffffffffffffff166378a0d75985856040518363ffffffff1660e01b815260040161138792919061261f565b60206040518083038186803b15801561139f57600080fd5b505afa1580156113b3573d6000803e3d6000fd5b505050506040513d601f19601f820116820180604052508101906113d791906121d7565b90508091505092915050565b600760009054906101000a900473ffffffffffffffffffffffffffffffffffffffff1681565b6000600760009054906101000a900473ffffffffffffffffffffffffffffffffffffffff1673ffffffffffffffffffffffffffffffffffffffff163373ffffffffffffffffffffffffffffffffffffffff161461149b576040517f08c379a0000000000000000000000000000000000000000000000000000000008152600401611492906127bb565b60405180910390fd5b81600760006101000a81548173ffffffffffffffffffffffffffffffffffffffff021916908373ffffffffffffffffffffffffffffffffffffffff16021790555060019050919050565b60008054906101000a900473ffffffffffffffffffffffffffffffffffffffff1681565b600080600360009054906101000a900473ffffffffffffffffffffffffffffffffffffffff1673ffffffffffffffffffffffffffffffffffffffff1663b1a3a5c4846040518263ffffffff1660e01b8152600401611567919061283b565b60206040518083038186803b15801561157f57600080fd5b505afa158015611593573d6000803e3d6000fd5b505050506040513d601f19601f820116820180604052508101906115b791906121d7565b905080915050919050565b600080600560009054906101000a900473ffffffffffffffffffffffffffffffffffffffff1673ffffffffffffffffffffffffffffffffffffffff16638cc7104f348787876040518563ffffffff1660e01b81526004016116259392919061267f565b6020604051808303818588803b15801561163e57600080fd5b505af1158015611652573d6000803e3d6000fd5b50505050506040513d601f19601f8201168201806040525081019061167791906121d7565b905060008490508073ffffffffffffffffffffffffffffffffffffffff1663a9059cbb33846040518363ffffffff1660e01b81526004016116b99291906125f6565b602060405180830381600087803b1580156116d357600080fd5b505af11580156116e7573d6000803e3d6000fd5b505050506040513d601f19601f8201168201806040525081019061170b919061211e565b5081925050509392505050565b600160009054906101000a900473ffffffffffffffffffffffffffffffffffffffff1681565b600080600360009054906101000a900473ffffffffffffffffffffffffffffffffffffffff1673ffffffffffffffffffffffffffffffffffffffff1663d02641a0846040518263ffffffff1660e01b815260040161179c9190612589565b60206040518083038186803b1580156117b457600080fd5b505afa1580156117c8573d6000803e3d6000fd5b505050506040513d601f19601f820116820180604052508101906117ec91906121d7565b905080915050919050565b600080600360009054906101000a900473ffffffffffffffffffffffffffffffffffffffff1673ffffffffffffffffffffffffffffffffffffffff1663d3e231ce85856040518363ffffffff1660e01b815260040161185792919061261f565b60206040518083038186803b15801561186f57600080fd5b505afa158015611883573d6000803e3d6000fd5b505050506040513d601f19601f820116820180604052508101906118a791906121d7565b90508091505092915050565b600260009054906101000a900473ffffffffffffffffffffffffffffffffffffffff1681565b6000600760009054906101000a900473ffffffffffffffffffffffffffffffffffffffff1673ffffffffffffffffffffffffffffffffffffffff163373ffffffffffffffffffffffffffffffffffffffff161461196b576040517f08c379a0000000000000000000000000000000000000000000000000000000008152600401611962906127bb565b60405180910390fd5b81600160006101000a81548173ffffffffffffffffffffffffffffffffffffffff021916908373ffffffffffffffffffffffffffffffffffffffff16021790555081600560006101000a81548173ffffffffffffffffffffffffffffffffffffffff021916908373ffffffffffffffffffffffffffffffffffffffff16021790555060019050919050565b606080606080600360009054906101000a900473ffffffffffffffffffffffffffffffffffffffff1673ffffffffffffffffffffffffffffffffffffffff1663ebbf95e16040518163ffffffff1660e01b815260040160006040518083038186803b158015611a6457600080fd5b505afa158015611a78573d6000803e3d6000fd5b505050506040513d6000823e3d601f19601f82011682018060405250810190611aa191906120b2565b9150915081819350935050509091565b6000600760009054906101000a900473ffffffffffffffffffffffffffffffffffffffff1673ffffffffffffffffffffffffffffffffffffffff163373ffffffffffffffffffffffffffffffffffffffff1614611b43576040517f08c379a0000000000000000000000000000000000000000000000000000000008152600401611b3a906127bb565b60405180910390fd5b81600260006101000a81548173ffffffffffffffffffffffffffffffffffffffff021916908373ffffffffffffffffffffffffffffffffffffffff16021790555081600460006101000a81548173ffffffffffffffffffffffffffffffffffffffff021916908373ffffffffffffffffffffffffffffffffffffffff16021790555060019050919050565b600660009054906101000a900473ffffffffffffffffffffffffffffffffffffffff1681565b600081359050611c0381612a93565b92915050565b600081519050611c1881612a93565b92915050565b600081359050611c2d81612aaa565b92915050565b600082601f830112611c4457600080fd5b8135611c57611c5282612887565b612856565b91508181835260208401935060208101905083856020840282011115611c7c57600080fd5b60005b83811015611cac5781611c928882611bf4565b845260208401935060208301925050600181019050611c7f565b5050505092915050565b600082601f830112611cc757600080fd5b8151611cda611cd582612887565b612856565b91508181835260208401935060208101905083856020840282011115611cff57600080fd5b60005b83811015611d2f5781611d158882611c09565b845260208401935060208301925050600181019050611d02565b5050505092915050565b600082601f830112611d4a57600080fd5b8151611d5d611d58826128b3565b612856565b9150818183526020840193506020810190508360005b83811015611da35781518601611d898882611e16565b845260208401935060208301925050600181019050611d73565b5050505092915050565b600081519050611dbc81612ac1565b92915050565b600082601f830112611dd357600080fd5b8135611de6611de1826128df565b612856565b91508082526020830160208301858383011115611e0257600080fd5b611e0d838284612a3e565b50505092915050565b600082601f830112611e2757600080fd5b8151611e3a611e35826128df565b612856565b91508082526020830160208301858383011115611e5657600080fd5b611e61838284612a4d565b50505092915050565b600081359050611e7981612ad8565b92915050565b600081519050611e8e81612ad8565b92915050565b600060208284031215611ea657600080fd5b6000611eb484828501611bf4565b91505092915050565b600060208284031215611ecf57600080fd5b6000611edd84828501611c1e565b91505092915050565b60008060408385031215611ef957600080fd5b6000611f0785828601611bf4565b9250506020611f1885828601611bf4565b9150509250929050565b600080600060608486031215611f3757600080fd5b6000611f4586828701611bf4565b9350506020611f5686828701611bf4565b9250506040611f6786828701611bf4565b9150509250925092565b600080600060608486031215611f8657600080fd5b6000611f9486828701611bf4565b9350506020611fa586828701611bf4565b9250506040611fb686828701611e6a565b9150509250925092565b600080600060608486031215611fd557600080fd5b6000611fe386828701611bf4565b935050602084013567ffffffffffffffff81111561200057600080fd5b61200c86828701611c33565b925050604061201d86828701611e6a565b9150509250925092565b6000806040838503121561203a57600080fd5b600061204885828601611c09565b925050602061205985828601611e7f565b9150509250929050565b60008060006060848603121561207857600080fd5b600061208686828701611bf4565b935050602061209786828701611e6a565b92505060406120a886828701611c1e565b9150509250925092565b600080604083850312156120c557600080fd5b600083015167ffffffffffffffff8111156120df57600080fd5b6120eb85828601611cb6565b925050602083015167ffffffffffffffff81111561210857600080fd5b61211485828601611d39565b9150509250929050565b60006020828403121561213057600080fd5b600061213e84828501611dad565b91505092915050565b60008060006060848603121561215c57600080fd5b600084013567ffffffffffffffff81111561217657600080fd5b61218286828701611dc2565b935050602061219386828701611bf4565b92505060406121a486828701611e6a565b9150509250925092565b6000602082840312156121c057600080fd5b60006121ce84828501611e6a565b91505092915050565b6000602082840312156121e957600080fd5b60006121f784828501611e7f565b91505092915050565b600061220c838361224a565b60208301905092915050565b6000612224838361234a565b905092915050565b61223581612a08565b82525050565b612244816129c0565b82525050565b612253816129ae565b82525050565b612262816129ae565b82525050565b60006122738261292f565b61227d818561296a565b93506122888361290f565b8060005b838110156122b95781516122a08882612200565b97506122ab83612950565b92505060018101905061228c565b5085935050505092915050565b60006122d18261293a565b6122db818561297b565b9350836020820285016122ed8561291f565b8060005b85811015612329578484038952815161230a8582612218565b94506123158361295d565b925060208a019950506001810190506122f1565b50829750879550505050505092915050565b612344816129d2565b82525050565b600061235582612945565b61235f818561298c565b935061236f818560208601612a4d565b61237881612a82565b840191505092915050565b600061238e82612945565b612398818561299d565b93506123a8818560208601612a4d565b6123b181612a82565b840191505092915050565b60006123c960228361299d565b91507f4f6e6c79206f776e65722063616e2063616c6c20746869732066756e6374696f60008301527f6e2e0000000000000000000000000000000000000000000000000000000000006020830152604082019050919050565b600061242f60458361299d565b91507f54686572652077617320616e20697373756520696e20636f726520776974682060008301527f796f7572206465706f73697420726571756573742e20506c656173652073656560208301527f206c6f67730000000000000000000000000000000000000000000000000000006040830152606082019050919050565b60006124bb60488361299d565b91507f54686572652077617320616e20697373756520696e20636f726520776974682060008301527f796f7572207769746864726177616c20726571756573742e20506c656173652060208301527f736565206c6f67730000000000000000000000000000000000000000000000006040830152606082019050919050565b6000612547601f8361299d565b91507f5265656e7472616e637947756172643a207265656e7472616e742063616c6c006000830152602082019050919050565b612583816129fe565b82525050565b600060208201905061259e6000830184612259565b92915050565b60006020820190506125b9600083018461223b565b92915050565b60006060820190506125d4600083018661222c565b6125e1602083018561222c565b6125ee604083018461257a565b949350505050565b600060408201905061260b600083018561222c565b612618602083018461257a565b9392505050565b60006040820190506126346000830185612259565b6126416020830184612259565b9392505050565b600060608201905061265d6000830186612259565b61266a6020830185612259565b6126776040830184612259565b949350505050565b60006060820190506126946000830186612259565b6126a16020830185612259565b6126ae604083018461257a565b949350505050565b60006060820190506126cb6000830186612259565b81810360208301526126dd8185612268565b90506126ec604083018461257a565b949350505050565b60006040820190506127096000830185612259565b612716602083018461257a565b9392505050565b600060408201905081810360008301526127378185612268565b9050818103602083015261274b81846122c6565b90509392505050565b6000602082019050612769600083018461233b565b92915050565b600060808201905081810360008301526127898187612383565b90506127986020830186612259565b6127a5604083018561257a565b6127b2606083018461222c565b95945050505050565b600060208201905081810360008301526127d4816123bc565b9050919050565b600060208201905081810360008301526127f481612422565b9050919050565b60006020820190508181036000830152612814816124ae565b9050919050565b600060208201905081810360008301526128348161253a565b9050919050565b6000602082019050612850600083018461257a565b92915050565b6000604051905081810181811067ffffffffffffffff8211171561287d5761287c612a80565b5b8060405250919050565b600067ffffffffffffffff8211156128a2576128a1612a80565b5b602082029050602081019050919050565b600067ffffffffffffffff8211156128ce576128cd612a80565b5b602082029050602081019050919050565b600067ffffffffffffffff8211156128fa576128f9612a80565b5b601f19601f8301169050602081019050919050565b6000819050602082019050919050565b6000819050602082019050919050565b600081519050919050565b600081519050919050565b600081519050919050565b6000602082019050919050565b6000602082019050919050565b600082825260208201905092915050565b600082825260208201905092915050565b600082825260208201905092915050565b600082825260208201905092915050565b60006129b9826129de565b9050919050565b60006129cb826129de565b9050919050565b60008115159050919050565b600073ffffffffffffffffffffffffffffffffffffffff82169050919050565b6000819050919050565b6000612a1382612a1a565b9050919050565b6000612a2582612a2c565b9050919050565b6000612a37826129de565b9050919050565b82818337600083830152505050565b60005b83811015612a6b578082015181840152602081019050612a50565b83811115612a7a576000848401525b50505050565bfe5b6000601f19601f8301169050919050565b612a9c816129ae565b8114612aa757600080fd5b50565b612ab3816129c0565b8114612abe57600080fd5b50565b612aca816129d2565b8114612ad557600080fd5b50565b612ae1816129fe565b8114612aec57600080fd5b5056fea26469706673582212203191fdd2165b703be7f97a16fd708344ba018b376ca2c54b74091af67142e56464736f6c63430007040033"}}