{
  "opcodeHash": "0x441ef068ffe924b89de0c918d712c08b00b47247039a9803b51ab9d823d99f02",
  "metalessHash": "0x276f237f8f6c1e45f0b670a7397a3029c1501c6b84b9756063b322e740347d75",
  "runtimeHash": "0xdd729c577c5c097d6238efe0251bca7240e77dc444bf06761d1fd22c7f49300f",
  "encodedMetadata": [
    {
      "ipfs": "/ipfs/Qmchb3Ao8cDYmaZLCkiY9Z3SvpZrFu5PhxohLkGVFKeHrU",
      "solc": "0.6.8"
    }
  ],
  "abi": [
    {
      "inputs": [
        {
          "internalType": "address",
          "name": "_wasabi",
          "type": "address"
        }
      ],
      "stateMutability": "nonpayable",
      "type": "constructor"
    },
    {
      "anonymous": false,
      "inputs": [
        {
          "indexed": true,
          "internalType": "address",
          "name": "_oldOwner",
          "type": "address"
        },
        {
          "indexed": true,
          "internalType": "address",
          "name": "_newOwner",
          "type": "address"
        }
      ],
      "name": "OwnerChanged",
      "type": "event"
    },
    {
      "inputs": [
        {
          "internalType": "address",
          "name": "_newOwner",
          "type": "address"
        }
      ],
      "name": "changeOwner",
      "outputs": [],
      "stateMutability": "nonpayable",
      "type": "function"
    },
    {
      "inputs": [
        {
          "internalType": "address",
          "name": "_wasabi",
          "type": "address"
        }
      ],
      "name": "changeWasabi",
      "outputs": [],
      "stateMutability": "nonpayable",
      "type": "function"
    },
    {
      "inputs": [
        {
          "internalType": "address",
          "name": "_offer",
          "type": "address"
        }
      ],
      "name": "getOfferInfo",
      "outputs": [
        {
          "components": [
            {
              "internalType": "address",
              "name": "tokenIn",
              "type": "address"
            },
            {
              "internalType": "address",
              "name": "tokenOut",
              "type": "address"
            },
            {
              "internalType": "uint256",
              "name": "amountIn",
              "type": "uint256"
            },
            {
              "internalType": "uint256",
              "name": "amountOut",
              "type": "uint256"
            },
            {
              "internalType": "uint256",
              "name": "expire",
              "type": "uint256"
            },
            {
              "internalType": "uint256",
              "name": "interests",
              "type": "uint256"
            },
            {
              "internalType": "uint256",
              "name": "duration",
              "type": "uint256"
            },
            {
              "internalType": "uint256",
              "name": "state",
              "type": "uint256"
            },
            {
              "internalType": "uint256",
              "name": "feeRate",
              "type": "uint256"
            },
            {
              "internalType": "uint256",
              "name": "interestrate",
              "type": "uint256"
            },
            {
              "internalType": "uint256",
              "name": "wasabiReward",
              "type": "uint256"
            },
            {
              "internalType": "uint256",
              "name": "sushiReward",
              "type": "uint256"
            },
            {
              "internalType": "address",
              "name": "owner",
              "type": "address"
            },
            {
              "internalType": "address",
              "name": "taker",
              "type": "address"
            }
          ],
          "internalType": "struct WasabiQuery.OfferData",
          "name": "offer",
          "type": "tuple"
        }
      ],
      "stateMutability": "view",
      "type": "function"
    },
    {
      "inputs": [
        {
          "internalType": "address",
          "name": "_token",
          "type": "address"
        },
        {
          "internalType": "uint256",
          "name": "_start",
          "type": "uint256"
        },
        {
          "internalType": "uint256",
          "name": "_end",
          "type": "uint256"
        }
      ],
      "name": "iterateOffers",
      "outputs": [
        {
          "internalType": "address[]",
          "name": "",
          "type": "address[]"
        }
      ],
      "stateMutability": "view",
      "type": "function"
    },
    {
      "inputs": [
        {
          "internalType": "address",
          "name": "_token",
          "type": "address"
        },
        {
          "internalType": "uint256",
          "name": "_start",
          "type": "uint256"
        },
        {
          "internalType": "uint256",
          "name": "_end",
          "type": "uint256"
        }
      ],
      "name": "iterateReverseOffers",
      "outputs": [
        {
          "internalType": "address[]",
          "name": "",
          "type": "address[]"
        }
      ],
      "stateMutability": "view",
      "type": "function"
    },
    {
      "inputs": [
        {
          "internalType": "uint256",
          "name": "_start",
          "type": "uint256"
        },
        {
          "internalType": "uint256",
          "name": "_end",
          "type": "uint256"
        }
      ],
      "name": "iterateReverseTakerOffers",
      "outputs": [
        {
          "internalType": "address[]",
          "name": "",
          "type": "address[]"
        }
      ],
      "stateMutability": "view",
      "type": "function"
    },
    {
      "inputs": [
        {
          "internalType": "uint256",
          "name": "_start",
          "type": "uint256"
        },
        {
          "internalType": "uint256",
          "name": "_end",
          "type": "uint256"
        }
      ],
      "name": "iterateReverseUserOffers",
      "outputs": [
        {
          "internalType": "address[]",
          "name": "",
          "type": "address[]"
        }
      ],
      "stateMutability": "view",
      "type": "function"
    },
    {
      "inputs": [
        {
          "internalType": "uint256",
          "name": "_start",
          "type": "uint256"
        },
        {
          "internalType": "uint256",
          "name": "_end",
          "type": "uint256"
        }
      ],
      "name": "iterateTakerOffers",
      "outputs": [
        {
          "internalType": "address[]",
          "name": "",
          "type": "address[]"
        }
      ],
      "stateMutability": "view",
      "type": "function"
    },
    {
      "inputs": [
        {
          "internalType": "uint256",
          "name": "_start",
          "type": "uint256"
        },
        {
          "internalType": "uint256",
          "name": "_end",
          "type": "uint256"
        }
      ],
      "name": "iterateTokens",
      "outputs": [
        {
          "internalType": "address[]",
          "name": "",
          "type": "address[]"
        }
      ],
      "stateMutability": "view",
      "type": "function"
    },
    {
      "inputs": [
        {
          "internalType": "uint256",
          "name": "_start",
          "type": "uint256"
        },
        {
          "internalType": "uint256",
          "name": "_end",
          "type": "uint256"
        }
      ],
      "name": "iterateUserOffers",
      "outputs": [
        {
          "internalType": "address[]",
          "name": "",
          "type": "address[]"
        }
      ],
      "stateMutability": "view",
      "type": "function"
    },
    {
      "inputs": [],
      "name": "owner",
      "outputs": [
        {
          "internalType": "address",
          "name": "",
          "type": "address"
        }
      ],
      "stateMutability": "view",
      "type": "function"
    },
    {
      "inputs": [],
      "name": "wasabi",
      "outputs": [
        {
          "internalType": "address",
          "name": "",
          "type": "address"
        }
      ],
      "stateMutability": "view",
      "type": "function"
    }
  ],
  "bytecode": {
    "object": "608060405234801561001057600080fd5b506040516118cd3803806118cd83398101604081905261002f91610062565b60018054336001600160a01b031991821617909155600080549091166001600160a01b0392909216919091179055610090565b600060208284031215610073578081fd5b81516001600160a01b0381168114610089578182fd5b9392505050565b61182e8061009f6000396000f3fe608060405234801561001057600080fd5b50600436106100b45760003560e01c8063a6f9dae111610071578063a6f9dae114610150578063a895a2db14610165578063a8e8ef4814610178578063bb9d3e2f1461018b578063e229ecf51461019e578063f437e7ff146101a6576100b4565b806306cdc841146100b95780632b02238d146100e25780634698b1881461010257806365e225171461011557806388d6c5f5146101285780638da5cb5b1461013b575b600080fd5b6100cc6100c73660046114d2565b6101b9565b6040516100d99190611714565b60405180910390f35b6100f56100f0366004611570565b6105a8565b6040516100d9919061163a565b6100f56101103660046115bc565b6107a3565b6100f56101233660046115bc565b6109a6565b6100f56101363660046115bc565b610b92565b610143610d87565b6040516100d9919061160d565b61016361015e3660046114d2565b610d96565b005b6101636101733660046114d2565b610e42565b6100f5610186366004611570565b610e8e565b6100f56101993660046115bc565b611090565b61014361126c565b6100f56101b43660046115bc565b61127b565b6101c161143f565b60005460405163413bf38f60e01b81526001600160a01b039091169063413bf38f906101f190859060040161160d565b60e06040518083038186803b15801561020957600080fd5b505afa15801561021d573d6000803e3d6000fd5b505050506040513d601f19601f82011682018060405250810190610241919061150a565b60c088015260a0870152608086015260608501526040808501919091526001600160a01b039182166020850152918116835260005491516380f7178f60e01b81529116906380f7178f9061029990859060040161160d565b604080518083038186803b1580156102b057600080fd5b505afa1580156102c4573d6000803e3d6000fd5b505050506040513d601f19601f820116820180604052508101906102e891906115dd565b6101208301526101008201526040805163c19d93fb60e01b815290516001600160a01b0384169163c19d93fb916004808301926020929190829003018186803b15801561033457600080fd5b505afa158015610348573d6000803e3d6000fd5b505050506040513d601f19601f8201168201806040525081019061036c91906115a4565b60e082018190526002148015610386575080608001514310155b1561039357600460e08201525b816001600160a01b0316638da5cb5b6040518163ffffffff1660e01b815260040160206040518083038186803b1580156103cc57600080fd5b505afa1580156103e0573d6000803e3d6000fd5b505050506040513d601f19601f8201168201806040525081019061040491906114ee565b8161018001906001600160a01b031690816001600160a01b031681525050816001600160a01b031663782b36026040518163ffffffff1660e01b815260040160206040518083038186803b15801561045b57600080fd5b505afa15801561046f573d6000803e3d6000fd5b505050506040513d601f19601f8201168201806040525081019061049391906114ee565b816101a001906001600160a01b031690816001600160a01b031681525050816001600160a01b031663930fd5166040518163ffffffff1660e01b815260040160206040518083038186803b1580156104ea57600080fd5b505afa1580156104fe573d6000803e3d6000fd5b505050506040513d601f19601f8201168201806040525081019061052291906115a4565b81610140018181525050816001600160a01b03166350ee831f6040518163ffffffff1660e01b815260040160206040518083038186803b15801561056557600080fd5b505afa158015610579573d6000803e3d6000fd5b505050506040513d601f19601f8201168201806040525081019061059d91906115a4565b610160820152919050565b6060818311156105c4576105bd848484610e8e565b905061079c565b600080546040516356e9489760e01b81526001600160a01b03909116906356e94897906105f590889060040161160d565b60206040518083038186803b15801561060d57600080fd5b505afa158015610621573d6000803e3d6000fd5b505050506040513d601f19601f8201168201806040525081019061064591906115a4565b9050808310610652578092505b828411158015610660575060015b801561066a575060015b61068f5760405162461bcd60e51b815260040161068690611687565b60405180910390fd5b606084840367ffffffffffffffff811180156106aa57600080fd5b506040519080825280602002602001820160405280156106d4578160200160208202803683370190505b5090506000855b8581101561079557600054604051635638822f60e11b81526001600160a01b039091169063ac71045e90610715908b908590600401611621565b60206040518083038186803b15801561072d57600080fd5b505afa158015610741573d6000803e3d6000fd5b505050506040513d601f19601f8201168201806040525081019061076591906114ee565b83838151811061077157fe5b6001600160a01b0390921660209283029190910190910152600191820191016106db565b5090925050505b9392505050565b60008054604051636361b0b960e01b8152606092916001600160a01b031690636361b0b9906107d690339060040161160d565b60206040518083038186803b1580156107ee57600080fd5b505afa158015610802573d6000803e3d6000fd5b505050506040513d601f19601f8201168201806040525081019061082691906115a4565b9050808410610833578093505b838311158015610841575060015b801561084b575060015b6108675760405162461bcd60e51b815260040161068690611687565b606083850367ffffffffffffffff8111801561088257600080fd5b506040519080825280602002602001820160405280156108ac578160200160208202803683370190505b509050848414156108c05791506109a09050565b60008060001987015b86811061099857600054604051632c92540d60e01b81526001600160a01b0390911690632c92540d906109029033908590600401611621565b60206040518083038186803b15801561091a57600080fd5b505afa15801561092e573d6000803e3d6000fd5b505050506040513d601f19601f8201168201806040525081019061095291906114ee565b84848151811061095e57fe5b6001600160a01b03909216602092830291909101909101526001928301929190910190868803821061098f57610998565b600019016108c9565b509193505050505b92915050565b6060818311156109c1576109ba83836107a3565b90506109a0565b60008054604051636361b0b960e01b81526001600160a01b0390911690636361b0b9906109f290339060040161160d565b60206040518083038186803b158015610a0a57600080fd5b505afa158015610a1e573d6000803e3d6000fd5b505050506040513d601f19601f82011682018060405250810190610a4291906115a4565b9050808310610a4f578092505b828411158015610a5d575060015b8015610a67575060015b610a835760405162461bcd60e51b815260040161068690611687565b60608167ffffffffffffffff81118015610a9c57600080fd5b50604051908082528060200260200182016040528015610ac6578160200160208202803683370190505b5090506000855b85811015610b8757600054604051632c92540d60e01b81526001600160a01b0390911690632c92540d90610b079033908590600401611621565b60206040518083038186803b158015610b1f57600080fd5b505afa158015610b33573d6000803e3d6000fd5b505050506040513d601f19601f82011682018060405250810190610b5791906114ee565b838381518110610b6357fe5b6001600160a01b039092166020928302919091019091015260019182019101610acd565b509095945050505050565b60008054604051634b8dc18960e01b8152606092916001600160a01b031690634b8dc18990610bc590339060040161160d565b60206040518083038186803b158015610bdd57600080fd5b505afa158015610bf1573d6000803e3d6000fd5b505050506040513d601f19601f82011682018060405250810190610c1591906115a4565b9050808410610c22578093505b838311158015610c30575060015b8015610c3a575060015b610c565760405162461bcd60e51b815260040161068690611687565b606083850367ffffffffffffffff81118015610c7157600080fd5b50604051908082528060200260200182016040528015610c9b578160200160208202803683370190505b50905084841415610caf5791506109a09050565b60008060001987015b868110610998576000546040516319025d8d60e21b81526001600160a01b0390911690636409763490610cf19033908590600401611621565b60206040518083038186803b158015610d0957600080fd5b505afa158015610d1d573d6000803e3d6000fd5b505050506040513d601f19601f82011682018060405250810190610d4191906114ee565b848481518110610d4d57fe5b6001600160a01b039092166020928302919091019091015260019283019291909101908688038210610d7e57610998565b60001901610cb8565b6001546001600160a01b031681565b6001546001600160a01b03163314610dc05760405162461bcd60e51b8152600401610686906116b1565b6001600160a01b038116610de65760405162461bcd60e51b8152600401610686906116dd565b6001546040516001600160a01b038084169216907fb532073b38c83145e3e5135377a08bf9aab55bc0fd7c1179cd4fb995d2a5159c90600090a3600180546001600160a01b0319166001600160a01b0392909216919091179055565b6001546001600160a01b03163314610e6c5760405162461bcd60e51b8152600401610686906116b1565b600080546001600160a01b0319166001600160a01b0392909216919091179055565b600080546040516356e9489760e01b8152606092916001600160a01b0316906356e9489790610ec190889060040161160d565b60206040518083038186803b158015610ed957600080fd5b505afa158015610eed573d6000803e3d6000fd5b505050506040513d601f19601f82011682018060405250810190610f1191906115a4565b9050808410610f1e578093505b838311158015610f2c575060015b8015610f36575060015b610f525760405162461bcd60e51b815260040161068690611687565b606083850367ffffffffffffffff81118015610f6d57600080fd5b50604051908082528060200260200182016040528015610f97578160200160208202803683370190505b50905084841415610fab57915061079c9050565b60008060001987015b86811061108357600054604051635638822f60e11b81526001600160a01b039091169063ac71045e90610fed908c908590600401611621565b60206040518083038186803b15801561100557600080fd5b505afa158015611019573d6000803e3d6000fd5b505050506040513d601f19601f8201168201806040525081019061103d91906114ee565b84848151811061104957fe5b6001600160a01b03909216602092830291909101909101526001928301929190910190868803821061107a57611083565b60001901610fb4565b5091979650505050505050565b6060818311156110a4576109ba8383610b92565b60008054604051634b8dc18960e01b81526001600160a01b0390911690634b8dc189906110d590339060040161160d565b60206040518083038186803b1580156110ed57600080fd5b505afa158015611101573d6000803e3d6000fd5b505050506040513d601f19601f8201168201806040525081019061112591906115a4565b9050808310611132578092505b828411158015611140575060015b801561114a575060015b6111665760405162461bcd60e51b815260040161068690611687565b606084840367ffffffffffffffff8111801561118157600080fd5b506040519080825280602002602001820160405280156111ab578160200160208202803683370190505b5090506000855b85811015610b87576000546040516319025d8d60e21b81526001600160a01b03909116906364097634906111ec9033908590600401611621565b60206040518083038186803b15801561120457600080fd5b505afa158015611218573d6000803e3d6000fd5b505050506040513d601f19601f8201168201806040525081019061123c91906114ee565b83838151811061124857fe5b6001600160a01b0390921660209283029190910190910152600191820191016111b2565b6000546001600160a01b031681565b600080546040805163b0c26ecf60e01b81529051606093926001600160a01b03169163b0c26ecf916004808301926020929190829003018186803b1580156112c257600080fd5b505afa1580156112d6573d6000803e3d6000fd5b505050506040513d601f19601f820116820180604052508101906112fa91906115a4565b9050808310611307578092505b828411158015611315575060015b801561131f575060015b61133b5760405162461bcd60e51b815260040161068690611687565b606084840367ffffffffffffffff8111801561135657600080fd5b50604051908082528060200260200182016040528015611380578160200160208202803683370190505b5090506000855b85811015610b87576000546040516327b2595f60e11b81526001600160a01b0390911690634f64b2be906113bf9084906004016117d7565b60206040518083038186803b1580156113d757600080fd5b505afa1580156113eb573d6000803e3d6000fd5b505050506040513d601f19601f8201168201806040525081019061140f91906114ee565b83838151811061141b57fe5b6001600160a01b039092166020928302919091019091015260019182019101611387565b604051806101c0016040528060006001600160a01b0316815260200160006001600160a01b031681526020016000815260200160008152602001600081526020016000815260200160008152602001600081526020016000815260200160008152602001600081526020016000815260200160006001600160a01b0316815260200160006001600160a01b031681525090565b6000602082840312156114e3578081fd5b813561079c816117e0565b6000602082840312156114ff578081fd5b815161079c816117e0565b600080600080600080600060e0888a031215611524578283fd5b875161152f816117e0565b6020890151909750611540816117e0565b604089015160608a015160808b015160a08c015160c0909c01519a9d939c50919a90999198509650945092505050565b600080600060608486031215611584578283fd5b833561158f816117e0565b95602085013595506040909401359392505050565b6000602082840312156115b5578081fd5b5051919050565b600080604083850312156115ce578182fd5b50508035926020909101359150565b600080604083850312156115ef578182fd5b505080516020909101519092909150565b6001600160a01b03169052565b6001600160a01b0391909116815260200190565b6001600160a01b03929092168252602082015260400190565b6020808252825182820181905260009190848201906040850190845b8181101561167b5783516001600160a01b031683529284019291840191600101611656565b50909695505050505050565b60208082526010908201526f494e564149445f504152414d5445525360801b604082015260600190565b60208082526012908201527127bbb730b136329d102327a92124a22222a760711b604082015260600190565b60208082526018908201527f4f776e61626c653a20494e56414c49445f414444524553530000000000000000604082015260600190565b60006101c082019050611728828451611600565b602083015161173a6020840182611600565b5060408301516040830152606083015160608301526080830151608083015260a083015160a083015260c083015160c083015260e083015160e0830152610100808401518184015250610120808401518184015250610140808401518184015250610160808401518184015250610180808401516117ba82850182611600565b50506101a0808401516117cf82850182611600565b505092915050565b90815260200190565b6001600160a01b03811681146117f557600080fd5b5056fea26469706673582212202c49583c6a2c543dfc02e6fe1f1549806705a3c2b21e60010c46a1eb2eeac89264736f6c63430006080033"
  }
}