{
  "opcodeHash": "0xe200c3d6f9bc8529d6bdbf9269aafd7fdcf2de1a424f88ae4b1395b7e5917612",
  "metalessHash": "0x7fea797e25442b04f85c1a822c08cc75a580eb5d747508ed433a5058ad6f5ad3",
  "runtimeHash": "0xe714256a4112ee329c94a148930e823068296eac0f2ab9c743de90933da49325",
  "encodedMetadata": [
    {
      "ipfs": "/ipfs/QmczcY2h3RPBRDLypu3AmwwiwZ1kKNwUAYB3BU1q6gpYhE",
      "solc": "0.6.12"
    }
  ],
  "abi": [
    {
      "inputs": [
        {
          "internalType": "address",
          "name": "_wav3",
          "type": "address"
        },
        {
          "internalType": "address",
          "name": "_diWav3",
          "type": "address"
        },
        {
          "internalType": "uint256",
          "name": "_wav3PerBlock",
          "type": "uint256"
        },
        {
          "internalType": "uint256",
          "name": "_bonusEndBlock",
          "type": "uint256"
        }
      ],
      "stateMutability": "nonpayable",
      "type": "constructor"
    },
    {
      "anonymous": false,
      "inputs": [
        {
          "indexed": true,
          "internalType": "address",
          "name": "user",
          "type": "address"
        },
        {
          "indexed": true,
          "internalType": "uint256",
          "name": "pid",
          "type": "uint256"
        },
        {
          "indexed": false,
          "internalType": "uint256",
          "name": "amount",
          "type": "uint256"
        }
      ],
      "name": "Deposit",
      "type": "event"
    },
    {
      "anonymous": false,
      "inputs": [
        {
          "indexed": true,
          "internalType": "address",
          "name": "user",
          "type": "address"
        },
        {
          "indexed": true,
          "internalType": "uint256",
          "name": "pid",
          "type": "uint256"
        },
        {
          "indexed": false,
          "internalType": "uint256",
          "name": "amount",
          "type": "uint256"
        }
      ],
      "name": "EmergencyWithdraw",
      "type": "event"
    },
    {
      "anonymous": false,
      "inputs": [
        {
          "indexed": true,
          "internalType": "address",
          "name": "previousOwner",
          "type": "address"
        },
        {
          "indexed": true,
          "internalType": "address",
          "name": "newOwner",
          "type": "address"
        }
      ],
      "name": "OwnershipTransferred",
      "type": "event"
    },
    {
      "anonymous": false,
      "inputs": [
        {
          "indexed": true,
          "internalType": "address",
          "name": "user",
          "type": "address"
        },
        {
          "indexed": true,
          "internalType": "uint256",
          "name": "pid",
          "type": "uint256"
        },
        {
          "indexed": false,
          "internalType": "uint256",
          "name": "amount",
          "type": "uint256"
        }
      ],
      "name": "Withdraw",
      "type": "event"
    },
    {
      "inputs": [],
      "name": "BONUS_MULTIPLIER",
      "outputs": [
        {
          "internalType": "uint256",
          "name": "",
          "type": "uint256"
        }
      ],
      "stateMutability": "view",
      "type": "function"
    },
    {
      "inputs": [
        {
          "internalType": "uint256",
          "name": "_allocPoint",
          "type": "uint256"
        },
        {
          "internalType": "contract IERC20",
          "name": "_lpToken",
          "type": "address"
        },
        {
          "internalType": "bool",
          "name": "_withUpdate",
          "type": "bool"
        },
        {
          "internalType": "address",
          "name": "_accountant",
          "type": "address"
        },
        {
          "internalType": "address",
          "name": "_strat",
          "type": "address"
        },
        {
          "internalType": "uint256",
          "name": "_minimumStay",
          "type": "uint256"
        }
      ],
      "name": "add",
      "outputs": [],
      "stateMutability": "nonpayable",
      "type": "function"
    },
    {
      "inputs": [],
      "name": "bonusEndBlock",
      "outputs": [
        {
          "internalType": "uint256",
          "name": "",
          "type": "uint256"
        }
      ],
      "stateMutability": "view",
      "type": "function"
    },
    {
      "inputs": [
        {
          "internalType": "uint256",
          "name": "_pid",
          "type": "uint256"
        },
        {
          "internalType": "uint256",
          "name": "_amount",
          "type": "uint256"
        }
      ],
      "name": "calculateWithdrawable",
      "outputs": [
        {
          "internalType": "uint256",
          "name": "",
          "type": "uint256"
        }
      ],
      "stateMutability": "view",
      "type": "function"
    },
    {
      "inputs": [],
      "name": "canChangeAccountants",
      "outputs": [
        {
          "internalType": "bool",
          "name": "",
          "type": "bool"
        }
      ],
      "stateMutability": "view",
      "type": "function"
    },
    {
      "inputs": [
        {
          "internalType": "uint256",
          "name": "_pid",
          "type": "uint256"
        },
        {
          "internalType": "uint256",
          "name": "_amount",
          "type": "uint256"
        }
      ],
      "name": "deposit",
      "outputs": [],
      "stateMutability": "nonpayable",
      "type": "function"
    },
    {
      "inputs": [
        {
          "internalType": "address",
          "name": "_user",
          "type": "address"
        },
        {
          "internalType": "uint256",
          "name": "_pid",
          "type": "uint256"
        },
        {
          "internalType": "uint256",
          "name": "_amount",
          "type": "uint256"
        }
      ],
      "name": "depositFor",
      "outputs": [],
      "stateMutability": "nonpayable",
      "type": "function"
    },
    {
      "inputs": [
        {
          "internalType": "address",
          "name": "",
          "type": "address"
        }
      ],
      "name": "depositeer",
      "outputs": [
        {
          "internalType": "bool",
          "name": "",
          "type": "bool"
        }
      ],
      "stateMutability": "view",
      "type": "function"
    },
    {
      "inputs": [],
      "name": "diWav3",
      "outputs": [
        {
          "internalType": "contract IERC20",
          "name": "",
          "type": "address"
        }
      ],
      "stateMutability": "view",
      "type": "function"
    },
    {
      "inputs": [],
      "name": "disableChangingAccountants",
      "outputs": [],
      "stateMutability": "nonpayable",
      "type": "function"
    },
    {
      "inputs": [
        {
          "internalType": "uint256",
          "name": "_pid",
          "type": "uint256"
        }
      ],
      "name": "emergencyWithdraw",
      "outputs": [],
      "stateMutability": "nonpayable",
      "type": "function"
    },
    {
      "inputs": [
        {
          "internalType": "uint256",
          "name": "_pid",
          "type": "uint256"
        }
      ],
      "name": "executeStrategy",
      "outputs": [],
      "stateMutability": "nonpayable",
      "type": "function"
    },
    {
      "inputs": [
        {
          "internalType": "uint256",
          "name": "_from",
          "type": "uint256"
        },
        {
          "internalType": "uint256",
          "name": "_to",
          "type": "uint256"
        }
      ],
      "name": "getMultiplier",
      "outputs": [
        {
          "internalType": "uint256",
          "name": "",
          "type": "uint256"
        }
      ],
      "stateMutability": "view",
      "type": "function"
    },
    {
      "inputs": [],
      "name": "massUpdatePools",
      "outputs": [],
      "stateMutability": "nonpayable",
      "type": "function"
    },
    {
      "inputs": [],
      "name": "owner",
      "outputs": [
        {
          "internalType": "address",
          "name": "",
          "type": "address"
        }
      ],
      "stateMutability": "view",
      "type": "function"
    },
    {
      "inputs": [
        {
          "internalType": "uint256",
          "name": "_pid",
          "type": "uint256"
        },
        {
          "internalType": "address",
          "name": "_user",
          "type": "address"
        }
      ],
      "name": "pendingWav3",
      "outputs": [
        {
          "internalType": "uint256",
          "name": "",
          "type": "uint256"
        }
      ],
      "stateMutability": "view",
      "type": "function"
    },
    {
      "inputs": [
        {
          "internalType": "uint256",
          "name": "",
          "type": "uint256"
        }
      ],
      "name": "poolInfo",
      "outputs": [
        {
          "internalType": "contract IERC20",
          "name": "lpToken",
          "type": "address"
        },
        {
          "internalType": "uint256",
          "name": "allocPoint",
          "type": "uint256"
        },
        {
          "internalType": "uint256",
          "name": "lastRewardBlock",
          "type": "uint256"
        },
        {
          "internalType": "uint256",
          "name": "accWav3PerShare",
          "type": "uint256"
        },
        {
          "internalType": "uint256",
          "name": "minimumStay",
          "type": "uint256"
        },
        {
          "internalType": "contract Strategy",
          "name": "strat",
          "type": "address"
        },
        {
          "internalType": "contract IAccountant",
          "name": "accountant",
          "type": "address"
        },
        {
          "internalType": "uint256",
          "name": "stratLastCalled",
          "type": "uint256"
        },
        {
          "internalType": "uint256",
          "name": "shareTotals",
          "type": "uint256"
        }
      ],
      "stateMutability": "view",
      "type": "function"
    },
    {
      "inputs": [],
      "name": "poolLength",
      "outputs": [
        {
          "internalType": "uint256",
          "name": "",
          "type": "uint256"
        }
      ],
      "stateMutability": "view",
      "type": "function"
    },
    {
      "inputs": [],
      "name": "renounceOwnership",
      "outputs": [],
      "stateMutability": "nonpayable",
      "type": "function"
    },
    {
      "inputs": [
        {
          "internalType": "uint256",
          "name": "_pid",
          "type": "uint256"
        },
        {
          "internalType": "uint256",
          "name": "_allocPoint",
          "type": "uint256"
        },
        {
          "internalType": "bool",
          "name": "_withUpdate",
          "type": "bool"
        }
      ],
      "name": "set",
      "outputs": [],
      "stateMutability": "nonpayable",
      "type": "function"
    },
    {
      "inputs": [
        {
          "internalType": "uint256",
          "name": "_pid",
          "type": "uint256"
        },
        {
          "internalType": "address",
          "name": "_accountant",
          "type": "address"
        }
      ],
      "name": "setAccountant",
      "outputs": [],
      "stateMutability": "nonpayable",
      "type": "function"
    },
    {
      "inputs": [
        {
          "internalType": "address",
          "name": "_depositeer",
          "type": "address"
        },
        {
          "internalType": "bool",
          "name": "_enabled",
          "type": "bool"
        }
      ],
      "name": "setDepositeer",
      "outputs": [],
      "stateMutability": "nonpayable",
      "type": "function"
    },
    {
      "inputs": [
        {
          "internalType": "uint256",
          "name": "_pid",
          "type": "uint256"
        },
        {
          "internalType": "address",
          "name": "_strat",
          "type": "address"
        }
      ],
      "name": "setStrat",
      "outputs": [],
      "stateMutability": "nonpayable",
      "type": "function"
    },
    {
      "inputs": [],
      "name": "startBlock",
      "outputs": [
        {
          "internalType": "uint256",
          "name": "",
          "type": "uint256"
        }
      ],
      "stateMutability": "view",
      "type": "function"
    },
    {
      "inputs": [],
      "name": "stratCooldown",
      "outputs": [
        {
          "internalType": "uint256",
          "name": "",
          "type": "uint256"
        }
      ],
      "stateMutability": "view",
      "type": "function"
    },
    {
      "inputs": [],
      "name": "totalAllocPoint",
      "outputs": [
        {
          "internalType": "uint256",
          "name": "",
          "type": "uint256"
        }
      ],
      "stateMutability": "view",
      "type": "function"
    },
    {
      "inputs": [
        {
          "internalType": "address",
          "name": "newOwner",
          "type": "address"
        }
      ],
      "name": "transferOwnership",
      "outputs": [],
      "stateMutability": "nonpayable",
      "type": "function"
    },
    {
      "inputs": [
        {
          "internalType": "uint256",
          "name": "_pid",
          "type": "uint256"
        }
      ],
      "name": "updatePool",
      "outputs": [],
      "stateMutability": "nonpayable",
      "type": "function"
    },
    {
      "inputs": [
        {
          "internalType": "address",
          "name": "_updated",
          "type": "address"
        }
      ],
      "name": "updateVersion",
      "outputs": [],
      "stateMutability": "nonpayable",
      "type": "function"
    },
    {
      "inputs": [
        {
          "internalType": "uint256",
          "name": "_wav3PerBlock",
          "type": "uint256"
        }
      ],
      "name": "updateWav3PerBlock",
      "outputs": [],
      "stateMutability": "nonpayable",
      "type": "function"
    },
    {
      "inputs": [],
      "name": "updated",
      "outputs": [
        {
          "internalType": "contract UpdatedFarms",
          "name": "",
          "type": "address"
        }
      ],
      "stateMutability": "view",
      "type": "function"
    },
    {
      "inputs": [
        {
          "internalType": "uint256",
          "name": "_pid",
          "type": "uint256"
        }
      ],
      "name": "upgradeSelf",
      "outputs": [],
      "stateMutability": "nonpayable",
      "type": "function"
    },
    {
      "inputs": [
        {
          "internalType": "uint256",
          "name": "",
          "type": "uint256"
        },
        {
          "internalType": "address",
          "name": "",
          "type": "address"
        }
      ],
      "name": "userInfo",
      "outputs": [
        {
          "internalType": "uint256",
          "name": "amount",
          "type": "uint256"
        },
        {
          "internalType": "uint256",
          "name": "rewardDebt",
          "type": "uint256"
        },
        {
          "internalType": "uint256",
          "name": "lockedUntil",
          "type": "uint256"
        }
      ],
      "stateMutability": "view",
      "type": "function"
    },
    {
      "inputs": [],
      "name": "wav3",
      "outputs": [
        {
          "internalType": "contract IERC20",
          "name": "",
          "type": "address"
        }
      ],
      "stateMutability": "view",
      "type": "function"
    },
    {
      "inputs": [],
      "name": "wav3PerBlock",
      "outputs": [
        {
          "internalType": "uint256",
          "name": "",
          "type": "uint256"
        }
      ],
      "stateMutability": "view",
      "type": "function"
    },
    {
      "inputs": [
        {
          "internalType": "uint256",
          "name": "_pid",
          "type": "uint256"
        },
        {
          "internalType": "uint256",
          "name": "_amount",
          "type": "uint256"
        }
      ],
      "name": "withdraw",
      "outputs": [],
      "stateMutability": "nonpayable",
      "type": "function"
    }
  ],
  "bytecode": {
    "object": "60806040526005805460ff19166001179055600060095562014370600b5534801561002957600080fd5b506040516200273c3803806200273c8339818101604052608081101561004e57600080fd5b5080516020820151604083015160609093015191929091600061006f6100fb565b600080546001600160a01b0319166001600160a01b0383169081178255604051929350917f8be0079c531659141344cd1fd0a4f28419497f9722a3daafe3b4186f6b6457e0908290a350600180546001600160a01b039586166001600160a01b031991821617909155600280549490951693169290921790925560049190915560035543600a556100ff565b3390565b61262d806200010f6000396000f3fe608060405234801561001057600080fd5b506004361061021c5760003560e01c8063630b5ba111610125578063950dc487116100ad578063de2a21761161007c578063de2a2176146105b6578063e2bbb158146105dc578063ec3b7b78146105ff578063f2fde38b14610625578063fe21def41461064b5761021c565b8063950dc48714610555578063a833a1c914610578578063d2bcb704146105a6578063d371f8fa146105ae5761021c565b8063887a2f72116100f4578063887a2f72146104bb5780638aa28550146104d85780638da5cb5b146104e05780638dbb1e3a146104e857806393f1a40b1461050b5761021c565b8063630b5ba11461047857806364482f7914610480578063715018a6146104ab5780637b2aab03146104b35761021c565b8063441a3e70116101a85780634cf5fbf5116101775780634cf5fbf5146103fc57806351eb05a61461042e5780635312ea8e1461044b5780635805c6d314610468578063628b1a53146104705761021c565b8063441a3e701461039757806345cd3774146103ba57806348cd4cb1146103d75780634b2ac3a8146103df5761021c565b80631aed6553116101ef5780631aed6553146102e55780632243df09146102ed5780632270a7b2146103115780632275c2471461033d57806339f3ce261461036b5761021c565b8063081e3eda146102215780630dd1e6791461023b5780631526fe271461025757806317caf6f1146102dd575b600080fd5b610229610697565b60408051918252519081900360200190f35b61024361069d565b604080519115158252519081900360200190f35b6102746004803603602081101561026d57600080fd5b50356106a6565b604051808a6001600160a01b03168152602001898152602001888152602001878152602001868152602001856001600160a01b03168152602001846001600160a01b03168152602001838152602001828152602001995050505050505050505060405180910390f35b61022961070c565b610229610712565b6102f5610718565b604080516001600160a01b039092168252519081900360200190f35b6102296004803603604081101561032757600080fd5b50803590602001356001600160a01b0316610727565b6103696004803603604081101561035357600080fd5b50803590602001356001600160a01b0316610899565b005b6103696004803603604081101561038157600080fd5b50803590602001356001600160a01b031661096f565b610369600480360360408110156103ad57600080fd5b5080359060200135610a65565b610369600480360360208110156103d057600080fd5b5035610cce565b610229610d79565b610369600480360360208110156103f557600080fd5b5035610d7f565b6103696004803603606081101561041257600080fd5b506001600160a01b038135169060208101359060400135610f14565b6103696004803603602081101561044457600080fd5b50356110bd565b6103696004803603602081101561046157600080fd5b50356111e7565b6102296112f2565b6103696112f8565b61036961135c565b6103696004803603606081101561049657600080fd5b5080359060208101359060400135151561137f565b610369611450565b6102f56114f2565b610369600480360360208110156104d157600080fd5b5035611501565b6102296117cb565b6102f56117d0565b610229600480360360408110156104fe57600080fd5b50803590602001356117df565b6105376004803603604081101561052157600080fd5b50803590602001356001600160a01b0316611845565b60408051938452602084019290925282820152519081900360600190f35b6102296004803603604081101561056b57600080fd5b5080359060200135611871565b6103696004803603604081101561058e57600080fd5b506001600160a01b0381351690602001351515611925565b6102f56119a8565b6102296119b7565b610243600480360360208110156105cc57600080fd5b50356001600160a01b03166119bd565b610369600480360360408110156105f257600080fd5b50803590602001356119d2565b6103696004803603602081101561061557600080fd5b50356001600160a01b03166119dd565b6103696004803603602081101561063b57600080fd5b50356001600160a01b0316611a57565b610369600480360360c081101561066157600080fd5b508035906001600160a01b0360208201358116916040810135151591606082013581169160808101359091169060a00135611b4f565b60065490565b60055460ff1681565b600681815481106106b357fe5b60009182526020909120600990910201805460018201546002830154600384015460048501546005860154600687015460078801546008909801546001600160a01b039788169950959794969395929491841693169189565b60095481565b60035481565b6002546001600160a01b031681565b6000806006848154811061073757fe5b600091825260208083208784526007825260408085206001600160a01b0389811687529084528186206009959095029092016003810154815483516370a0823160e01b815230600482015293519298509596909590949316926370a082319260248082019391829003018186803b1580156107b157600080fd5b505afa1580156107c5573d6000803e3d6000fd5b505050506040513d60208110156107db57600080fd5b50516002850154909150431180156107f257508015155b1561085e5760006108078560020154436117df565b9050600061083a600954610834886001015461082e60045487611dcc90919063ffffffff16565b90611dcc565b90611e2c565b9050610859610852846108348464e8d4a51000611dcc565b8590611e6e565b935050505b61088c836001015461088664e8d4a51000610834868860000154611dcc90919063ffffffff16565b90611ec8565b9450505050505b92915050565b6108a1611f0a565b6000546001600160a01b039081169116146108f1576040805162461bcd60e51b815260206004820181905260248201526000805160206125ae833981519152604482015290519081900360640190fd5b80600683815481106108ff57fe5b906000526020600020906009020160050160006101000a8154816001600160a01b0302191690836001600160a01b03160217905550610949600b5442611e6e90919063ffffffff16565b6006838154811061095657fe5b9060005260206000209060090201600701819055505050565b610977611f0a565b6000546001600160a01b039081169116146109c7576040805162461bcd60e51b815260206004820181905260248201526000805160206125ae833981519152604482015290519081900360640190fd5b60055460ff16610a1e576040805162461bcd60e51b815260206004820181905260248201527f63616e206e6f206c6f6e676572206368616e6765206163636f756e74616e7473604482015290519081900360640190fd5b8060068381548110610a2c57fe5b906000526020600020906009020160060160006101000a8154816001600160a01b0302191690836001600160a01b031602179055505050565b600060068381548110610a7457fe5b600091825260208083208684526007825260408085203386529092529220805460099092029092019250831115610ae7576040805162461bcd60e51b81526020600482015260126024820152711dda5d1a191c985dce881b9bdd0819dbdbd960721b604482015290519081900360640190fd5b610af0846110bd565b6000610b1e826001015461088664e8d4a5100061083487600301548760000154611dcc90919063ffffffff16565b90508015610b3057610b303382611f0e565b8315610bd0578160020154421015610b87576040805162461bcd60e51b815260206004820152601560248201527463616e6e6f74207769746864726177206561726c7960581b604482015290519081900360640190fd5b8154610b939085611ec8565b82556000610ba18686611871565b6008850154909150610bb39086611ec8565b60088501558354610bce906001600160a01b0316338361209f565b505b6000610bf664e8d4a5100061083486600301548660000154611dcc90919063ffffffff16565b600184018190556002549091506001600160a01b03166340c10f1933610c1d856032611dcc565b6040518363ffffffff1660e01b815260040180836001600160a01b0316815260200182815260200192505050602060405180830381600087803b158015610c6357600080fd5b505af1158015610c77573d6000803e3d6000fd5b505050506040513d6020811015610c8d57600080fd5b5050604080518681529051879133917ff279e6a1f5e320cca91135676d9cb6e44ca8a08c0b88342bcdb1144f6511b5689181900360200190a3505050505050565b610cd6611f0a565b6000546001600160a01b03908116911614610d26576040805162461bcd60e51b815260206004820181905260248201526000805160206125ae833981519152604482015290519081900360640190fd5b655af3107a40008111610d74576040805162461bcd60e51b81526020600482015260116024820152701c995dd85c991cc81d1bdbc814db585b1b607a1b604482015290519081900360640190fd5b600455565b600a5481565b600c546001600160a01b0316610ddc576040805162461bcd60e51b815260206004820152601e60248201527f6e6f2075706461746564206661726d20746f206d6f766520746f6f2e2e2e0000604482015290519081900360640190fd5b600060068281548110610deb57fe5b60009182526020808320858452600782526040808520338652909252922080546009909202909201925080610e5c576040805162461bcd60e51b81526020600482015260126024820152716e6f7468696e6720746f207570677261646560701b604482015290519081900360640190fd5b600080835560018301819055610e728583611871565b600c548554919250610e91916001600160a01b039081169116836120f1565b600c548454604080516367a5062f60e11b81526001600160a01b03928316600482015233602482015260448101859052606481018690529051919092169163cf4a0c5e91608480830192600092919082900301818387803b158015610ef557600080fd5b505af1158015610f09573d6000803e3d6000fd5b505050505050505050565b600060068381548110610f2357fe5b600091825260208083208684526007825260408085206001600160a01b038a1680875293529093206009909202909201925090331480610f7257503360009081526008602052604090205460ff165b610fb8576040805162461bcd60e51b815260206004820152601260248201527134b73b30b634b2103232b837b9b4ba32b2b960711b604482015290519081900360640190fd5b610fc1846110bd565b80541561100a576000610ff6826001015461088664e8d4a5100061083487600301548760000154611dcc90919063ffffffff16565b90508015611008576110088682611f0e565b505b821561105f578154611027906001600160a01b03163330866121e2565b80546110339084611e6e565b815560088201546110449084611e6e565b60088301556004820154611059904290611e6e565b60028201555b6003820154815461107a9164e8d4a510009161083491611dcc565b6001820155604080518481529051859133917f90890809c654f11d6e72a28fa60149770a0d11ec6c92319d6ceb2bb0a4ea1a159181900360200190a35050505050565b6000600682815481106110cc57fe5b90600052602060002090600902019050806002015443116110ed57506111e4565b8054604080516370a0823160e01b815230600482015290516000926001600160a01b0316916370a08231916024808301926020929190829003018186803b15801561113757600080fd5b505afa15801561114b573d6000803e3d6000fd5b505050506040513d602081101561116157600080fd5b50519050806111775750436002909101556111e4565b60006111878360020154436117df565b905060006111ae600954610834866001015461082e60045487611dcc90919063ffffffff16565b90506111d16111c6846108348464e8d4a51000611dcc565b600386015490611e6e565b6003850155505043600290920191909155505b50565b6000600682815481106111f657fe5b60009182526020808320858452600782526040808520338652909252922060028101546009909202909201925042101561126f576040805162461bcd60e51b815260206004820152601560248201527463616e6e6f74207769746864726177206561726c7960581b604482015290519081900360640190fd5b80546000808355600183018190556112878583611871565b60088501549091506112999083611ec8565b600885015583546112b4906001600160a01b0316338361209f565b604080518381529051869133917fbb757047c2b5f3974fe26b7c10f732e7bce710b0952a71082702781e62ae05959181900360200190a35050505050565b60045481565b611300611f0a565b6000546001600160a01b03908116911614611350576040805162461bcd60e51b815260206004820181905260248201526000805160206125ae833981519152604482015290519081900360640190fd5b6005805460ff19169055565b60065460005b8181101561137b57611373816110bd565b600101611362565b5050565b611387611f0a565b6000546001600160a01b039081169116146113d7576040805162461bcd60e51b815260206004820181905260248201526000805160206125ae833981519152604482015290519081900360640190fd5b80156113e5576113e561135c565b6114228261141c600686815481106113f957fe5b906000526020600020906009020160010154600954611ec890919063ffffffff16565b90611e6e565b600981905550816006848154811061143657fe5b906000526020600020906009020160010181905550505050565b611458611f0a565b6000546001600160a01b039081169116146114a8576040805162461bcd60e51b815260206004820181905260248201526000805160206125ae833981519152604482015290519081900360640190fd5b600080546040516001600160a01b03909116907f8be0079c531659141344cd1fd0a4f28419497f9722a3daafe3b4186f6b6457e0908390a3600080546001600160a01b0319169055565b600c546001600160a01b031681565b60006006828154811061151057fe5b6000918252602090912060099091020160058101549091506001600160a01b0316611574576040805162461bcd60e51b815260206004820152600f60248201526e1b9bc81cdd1c985d1959de481cd95d608a1b604482015290519081900360640190fd5b600b54600782015461158591611e6e565b42116115d8576040805162461bcd60e51b815260206004820152601c60248201527f74686973207374726174656779206973206f6e20636f6f6c646f776e00000000604482015290519081900360640190fd5b4260078201558054604080516370a0823160e01b815230600482015290516000926001600160a01b0316916370a08231916024808301926020929190829003018186803b15801561162857600080fd5b505afa15801561163c573d6000803e3d6000fd5b505050506040513d602081101561165257600080fd5b505190506000611668606461083484600a611dcc565b905060008360060160009054906101000a90046001600160a01b03166001600160a01b0316635daab7476040518163ffffffff1660e01b8152600401602060405180830381600087803b1580156116be57600080fd5b505af11580156116d2573d6000803e3d6000fd5b505050506040513d60208110156116e857600080fd5b50519050818111156116f75750805b60068401546040805163398a489960e01b81526004810184905290516001600160a01b039092169163398a48999160248082019260009290919082900301818387803b15801561174657600080fd5b505af115801561175a573d6000803e3d6000fd5b5050506005850154855461177c92506001600160a01b0390811691168361209f565b60058401546040805163fe0d94c160e01b81526004810184905290516001600160a01b039092169163fe0d94c19160248082019260009290919082900301818387803b158015610ef557600080fd5b600281565b6000546001600160a01b031690565b60006003548211611800576117f9600261082e8486611ec8565b9050610893565b6003548310611813576117f98284611ec8565b6117f961182b60035484611ec890919063ffffffff16565b61141c600261082e87600354611ec890919063ffffffff16565b600760209081526000928352604080842090915290825290208054600182015460029092015490919083565b6000806006848154811061188157fe5b60009182526020918290206008600990920201908101548154604080516370a0823160e01b8152306004820152905193955061191d949293610834936001600160a01b03909316926370a082319260248082019391829003018186803b1580156118ea57600080fd5b505afa1580156118fe573d6000803e3d6000fd5b505050506040513d602081101561191457600080fd5b50518690611dcc565b949350505050565b61192d611f0a565b6000546001600160a01b0390811691161461197d576040805162461bcd60e51b815260206004820181905260248201526000805160206125ae833981519152604482015290519081900360640190fd5b6001600160a01b03919091166000908152600860205260409020805460ff1916911515919091179055565b6001546001600160a01b031681565b600b5481565b60086020526000908152604090205460ff1681565b61137b338383610f14565b6119e5611f0a565b6000546001600160a01b03908116911614611a35576040805162461bcd60e51b815260206004820181905260248201526000805160206125ae833981519152604482015290519081900360640190fd5b600c80546001600160a01b0319166001600160a01b0392909216919091179055565b611a5f611f0a565b6000546001600160a01b03908116911614611aaf576040805162461bcd60e51b815260206004820181905260248201526000805160206125ae833981519152604482015290519081900360640190fd5b6001600160a01b038116611af45760405162461bcd60e51b81526004018080602001828103825260268152602001806125676026913960400191505060405180910390fd5b600080546040516001600160a01b03808516939216917f8be0079c531659141344cd1fd0a4f28419497f9722a3daafe3b4186f6b6457e091a3600080546001600160a01b0319166001600160a01b0392909216919091179055565b611b57611f0a565b6000546001600160a01b03908116911614611ba7576040805162461bcd60e51b815260206004820181905260248201526000805160206125ae833981519152604482015290519081900360640190fd5b8315611bb557611bb561135c565b6000600a544311611bc857600a54611bca565b435b600954909150611bda9088611e6e565b600990815560408051610120810182526001600160a01b03988916815260208101998a529081019283526000606082018181526080830195865295891660a0830190815296891660c0830190815260e0830182815261010084018381526006805460018101825594529351929094027ff652222313e28459528d920b65115c16c04f3efc82aaedc97be59f3f377c0d3f81018054938c166001600160a01b03199485161790559a517ff652222313e28459528d920b65115c16c04f3efc82aaedc97be59f3f377c0d408c015593517ff652222313e28459528d920b65115c16c04f3efc82aaedc97be59f3f377c0d418b015594517ff652222313e28459528d920b65115c16c04f3efc82aaedc97be59f3f377c0d428a015592517ff652222313e28459528d920b65115c16c04f3efc82aaedc97be59f3f377c0d4389015593517ff652222313e28459528d920b65115c16c04f3efc82aaedc97be59f3f377c0d4488018054918816918516919091179055517ff652222313e28459528d920b65115c16c04f3efc82aaedc97be59f3f377c0d458701805491909616921691909117909355517ff652222313e28459528d920b65115c16c04f3efc82aaedc97be59f3f377c0d4684015550517ff652222313e28459528d920b65115c16c04f3efc82aaedc97be59f3f377c0d4790910155565b600082611ddb57506000610893565b82820282848281611de857fe5b0414611e255760405162461bcd60e51b815260040180806020018281038252602181526020018061258d6021913960400191505060405180910390fd5b9392505050565b6000611e2583836040518060400160405280601a81526020017f536166654d6174683a206469766973696f6e206279207a65726f00000000000081525061223c565b600082820183811015611e25576040805162461bcd60e51b815260206004820152601b60248201527f536166654d6174683a206164646974696f6e206f766572666c6f770000000000604482015290519081900360640190fd5b6000611e2583836040518060400160405280601e81526020017f536166654d6174683a207375627472616374696f6e206f766572666c6f7700008152506122de565b3390565b600154604080516370a0823160e01b815230600482015290516000926001600160a01b0316916370a08231916024808301926020929190829003018186803b158015611f5957600080fd5b505afa158015611f6d573d6000803e3d6000fd5b505050506040513d6020811015611f8357600080fd5b5051905080821115612017576001546040805163a9059cbb60e01b81526001600160a01b038681166004830152602482018590529151919092169163a9059cbb9160448083019260209291908290030181600087803b158015611fe557600080fd5b505af1158015611ff9573d6000803e3d6000fd5b505050506040513d602081101561200f57600080fd5b5061209a9050565b6001546040805163a9059cbb60e01b81526001600160a01b038681166004830152602482018690529151919092169163a9059cbb9160448083019260209291908290030181600087803b15801561206d57600080fd5b505af1158015612081573d6000803e3d6000fd5b505050506040513d602081101561209757600080fd5b50505b505050565b604080516001600160a01b038416602482015260448082018490528251808303909101815260649091019091526020810180516001600160e01b031663a9059cbb60e01b17905261209a908490612338565b600061218782856001600160a01b031663dd62ed3e30876040518363ffffffff1660e01b815260040180836001600160a01b03168152602001826001600160a01b031681526020019250505060206040518083038186803b15801561215557600080fd5b505afa158015612169573d6000803e3d6000fd5b505050506040513d602081101561217f57600080fd5b505190611e6e565b604080516001600160a01b038616602482015260448082018490528251808303909101815260649091019091526020810180516001600160e01b031663095ea7b360e01b1790529091506121dc908590612338565b50505050565b604080516001600160a01b0380861660248301528416604482015260648082018490528251808303909101815260849091019091526020810180516001600160e01b03166323b872dd60e01b1790526121dc908590612338565b600081836122c85760405162461bcd60e51b81526004018080602001828103825283818151815260200191508051906020019080838360005b8381101561228d578181015183820152602001612275565b50505050905090810190601f1680156122ba5780820380516001836020036101000a031916815260200191505b509250505060405180910390fd5b5060008385816122d457fe5b0495945050505050565b600081848411156123305760405162461bcd60e51b815260206004820181815283516024840152835190928392604490910191908501908083836000831561228d578181015183820152602001612275565b505050900390565b606061238d826040518060400160405280602081526020017f5361666545524332303a206c6f772d6c6576656c2063616c6c206661696c6564815250856001600160a01b03166123e99092919063ffffffff16565b80519091501561209a578080602001905160208110156123ac57600080fd5b505161209a5760405162461bcd60e51b815260040180806020018281038252602a8152602001806125ce602a913960400191505060405180910390fd5b606061191d848460008560606123fe85612560565b61244f576040805162461bcd60e51b815260206004820152601d60248201527f416464726573733a2063616c6c20746f206e6f6e2d636f6e7472616374000000604482015290519081900360640190fd5b60006060866001600160a01b031685876040518082805190602001908083835b6020831061248e5780518252601f19909201916020918201910161246f565b6001836020036101000a03801982511681845116808217855250505050505090500191505060006040518083038185875af1925050503d80600081146124f0576040519150601f19603f3d011682016040523d82523d6000602084013e6124f5565b606091505b5091509150811561250957915061191d9050565b8051156125195780518082602001fd5b60405162461bcd60e51b815260206004820181815286516024840152865187939192839260440191908501908083836000831561228d578181015183820152602001612275565b3b15159056fe4f776e61626c653a206e6577206f776e657220697320746865207a65726f2061646472657373536166654d6174683a206d756c7469706c69636174696f6e206f766572666c6f774f776e61626c653a2063616c6c6572206973206e6f7420746865206f776e65725361666545524332303a204552433230206f7065726174696f6e20646964206e6f742073756363656564a26469706673582212204bd5e4f64815f47b5bc122bb508258bfed0912673b1fb9b584d281b86de7386164736f6c634300060c0033"
  }
}