{"compiler":"v0.8.7+commit.e28d00a7","opcodeHash":"0xa2b932a5f231c2bb80c1ff8c1edb8b12ea207f2634413642c1ccdb74d82b1a3a","metalessHash":"0x2ffdf2e19a0bb0c38a357fd7f701220d6aded74ac241b3278f6d8086865a1951","runtimeHash":"0x6d337f6adf061e69417438eb4028b9fc2346aa17555ab4527184582c4cfb0d26","encodedMetadata":[{"ipfs":"/ipfs/QmWnFpTXhZDtrAU7eHzrW24vyMzKfyKtqevHTbcAddoEQ6","solc":"0.8.7"}],"abi":[{"inputs":[],"stateMutability":"nonpayable","type":"constructor"},{"anonymous":false,"inputs":[{"indexed":true,"internalType":"address","name":"owner","type":"address"},{"indexed":true,"internalType":"address","name":"approved","type":"address"},{"indexed":true,"internalType":"uint256","name":"tokenId","type":"uint256"}],"name":"Approval","type":"event"},{"anonymous":false,"inputs":[{"indexed":true,"internalType":"address","name":"owner","type":"address"},{"indexed":true,"internalType":"address","name":"operator","type":"address"},{"indexed":false,"internalType":"bool","name":"approved","type":"bool"}],"name":"ApprovalForAll","type":"event"},{"anonymous":false,"inputs":[{"indexed":true,"internalType":"address","name":"previousOwner","type":"address"},{"indexed":true,"internalType":"address","name":"newOwner","type":"address"}],"name":"OwnershipTransferred","type":"event"},{"anonymous":false,"inputs":[{"indexed":false,"internalType":"uint256","name":"tokenId","type":"uint256"}],"name":"Shuffled","type":"event"},{"anonymous":false,"inputs":[{"indexed":true,"internalType":"address","name":"from","type":"address"},{"indexed":true,"internalType":"address","name":"to","type":"address"},{"indexed":true,"internalType":"uint256","name":"tokenId","type":"uint256"}],"name":"Transfer","type":"event"},{"inputs":[{"internalType":"address","name":"to","type":"address"},{"internalType":"uint256","name":"tokenId","type":"uint256"}],"name":"approve","outputs":[],"stateMutability":"nonpayable","type":"function"},{"inputs":[{"internalType":"address","name":"owner","type":"address"}],"name":"balanceOf","outputs":[{"internalType":"uint256","name":"","type":"uint256"}],"stateMutability":"view","type":"function"},{"inputs":[{"internalType":"bytes32[]","name":"proof","type":"bytes32[]"}],"name":"claim","outputs":[],"stateMutability":"nonpayable","type":"function"},{"inputs":[],"name":"contractBalance","outputs":[{"internalType":"uint256","name":"","type":"uint256"}],"stateMutability":"view","type":"function"},{"inputs":[],"name":"contractURI","outputs":[{"internalType":"string","name":"","type":"string"}],"stateMutability":"view","type":"function"},{"inputs":[],"name":"enabled","outputs":[{"internalType":"uint256","name":"","type":"uint256"}],"stateMutability":"view","type":"function"},{"inputs":[],"name":"freezeBlock","outputs":[{"internalType":"uint256","name":"","type":"uint256"}],"stateMutability":"view","type":"function"},{"inputs":[{"internalType":"uint256","name":"tokenId","type":"uint256"}],"name":"getApproved","outputs":[{"internalType":"address","name":"","type":"address"}],"stateMutability":"view","type":"function"},{"inputs":[{"internalType":"address","name":"owner","type":"address"},{"internalType":"address","name":"operator","type":"address"}],"name":"isApprovedForAll","outputs":[{"internalType":"bool","name":"","type":"bool"}],"stateMutability":"view","type":"function"},{"inputs":[],"name":"mint","outputs":[],"stateMutability":"payable","type":"function"},{"inputs":[],"name":"name","outputs":[{"internalType":"string","name":"","type":"string"}],"stateMutability":"view","type":"function"},{"inputs":[],"name":"owner","outputs":[{"internalType":"address","name":"","type":"address"}],"stateMutability":"view","type":"function"},{"inputs":[{"internalType":"uint256","name":"tokenId","type":"uint256"}],"name":"ownerOf","outputs":[{"internalType":"address","name":"","type":"address"}],"stateMutability":"view","type":"function"},{"inputs":[],"name":"renounceOwnership","outputs":[],"stateMutability":"nonpayable","type":"function"},{"inputs":[{"internalType":"address","name":"from","type":"address"},{"internalType":"address","name":"to","type":"address"},{"internalType":"uint256","name":"tokenId","type":"uint256"}],"name":"safeTransferFrom","outputs":[],"stateMutability":"nonpayable","type":"function"},{"inputs":[{"internalType":"address","name":"from","type":"address"},{"internalType":"address","name":"to","type":"address"},{"internalType":"uint256","name":"tokenId","type":"uint256"},{"internalType":"bytes","name":"_data","type":"bytes"}],"name":"safeTransferFrom","outputs":[],"stateMutability":"nonpayable","type":"function"},{"inputs":[{"internalType":"address","name":"operator","type":"address"},{"internalType":"bool","name":"approved","type":"bool"}],"name":"setApprovalForAll","outputs":[],"stateMutability":"nonpayable","type":"function"},{"inputs":[{"internalType":"string","name":"_contractURIstring","type":"string"}],"name":"setContractURI","outputs":[],"stateMutability":"nonpayable","type":"function"},{"inputs":[{"internalType":"uint256","name":"_enabled","type":"uint256"}],"name":"setEnable","outputs":[],"stateMutability":"nonpayable","type":"function"},{"inputs":[{"internalType":"uint256","name":"_newFreezeBlockNumber","type":"uint256"}],"name":"setFreezeBlock","outputs":[],"stateMutability":"nonpayable","type":"function"},{"inputs":[{"internalType":"bytes32","name":"_newRoot","type":"bytes32"}],"name":"setRoot","outputs":[],"stateMutability":"nonpayable","type":"function"},{"inputs":[{"internalType":"uint256","name":"_tokenId","type":"uint256"},{"internalType":"uint256","name":"one","type":"uint256"},{"internalType":"uint256","name":"two","type":"uint256"},{"internalType":"uint256","name":"three","type":"uint256"},{"internalType":"uint256","name":"four","type":"uint256"},{"internalType":"uint256","name":"five","type":"uint256"},{"internalType":"uint256","name":"six","type":"uint256"},{"internalType":"uint256","name":"seven","type":"uint256"},{"internalType":"uint256","name":"eight","type":"uint256"}],"name":"shuffle","outputs":[],"stateMutability":"nonpayable","type":"function"},{"inputs":[{"internalType":"bytes4","name":"interfaceId","type":"bytes4"}],"name":"supportsInterface","outputs":[{"internalType":"bool","name":"","type":"bool"}],"stateMutability":"view","type":"function"},{"inputs":[],"name":"symbol","outputs":[{"internalType":"string","name":"","type":"string"}],"stateMutability":"view","type":"function"},{"inputs":[{"internalType":"uint256","name":"tokenId","type":"uint256"}],"name":"tokenURI","outputs":[{"internalType":"string","name":"","type":"string"}],"stateMutability":"view","type":"function"},{"inputs":[],"name":"totalSupply","outputs":[{"internalType":"uint256","name":"","type":"uint256"}],"stateMutability":"view","type":"function"},{"inputs":[{"internalType":"address","name":"from","type":"address"},{"internalType":"address","name":"to","type":"address"},{"internalType":"uint256","name":"tokenId","type":"uint256"}],"name":"transferFrom","outputs":[],"stateMutability":"nonpayable","type":"function"},{"inputs":[{"internalType":"address","name":"newOwner","type":"address"}],"name":"transferOwnership","outputs":[],"stateMutability":"nonpayable","type":"function"},{"inputs":[{"internalType":"address payable","name":"_to","type":"address"},{"internalType":"uint256","name":"_amount","type":"uint256"}],"name":"withdrawFunds","outputs":[],"stateMutability":"nonpayable","type":"function"}],"bytecode":{"object":"60806040526040518061252001604052806103e861ffff16815260200161076161ffff168152602001610b4961ffff168152602001610de461ffff16815260200161146761ffff16815260200161184f61ffff168152602001611ca661ffff16815260200161224a61ffff16815260200161247661ffff16815260200161255461ffff16815260200161271061ffff16815260200161017d61ffff1681526020016103b861ffff16815260200161059461ffff16815260200161071161ffff168152602001610ac961ffff1681526020016112f861ffff1681526020016117ce61ffff168152602001611d6361ffff16815260200161253361ffff16815260200161265161ffff16815260200161271061ffff16815260200160c661ffff16815260200161031861ffff16815260200161063061ffff16815260200161081f61ffff168152602001610a0e61ffff168152602001610cc361ffff168152602001610d2661ffff16815260200161160b61ffff168152602001611b7561ffff1681526020016126ac61ffff16815260200161271061ffff1681526020016102ca61ffff16815260200161042f61ffff16815260200161064761ffff1681526020016108b861ffff168152602001610b8161ffff1681526020016110bd61ffff16815260200161143a61ffff16815260200161197461ffff168152602001611eb061ffff1681526020016123eb61ffff16815260200161271061ffff16815260200161018161ffff16815260200161054461ffff168152602001610d8b61ffff16815260200161145161ffff16815260200161181361ffff168152602001611bd761ffff16815260200161266061ffff1681526020016126c061ffff1681526020016126d361ffff1681526020016126e661ffff16815260200161271061ffff168152602001608761ffff16815260200161019561ffff16815260200161043961ffff1681526020016104c061ffff16815260200161076461ffff168152602001610a8f61ffff1681526020016110e561ffff1681526020016115a561ffff168152602001611d9061ffff16815260200161260261ffff16815260200161271061ffff16815260200161098b61ffff168152602001610b7461ffff168152602001610d5d61ffff168152602001610f4661ffff1681526020016111d161ffff16815260200161145c61ffff168152602001611a1561ffff16815260200161211661ffff1681526020016126d061ffff16815260200161270161ffff16815260200161271061ffff1681526020016104d761ffff1681526020016106ea61ffff168152602001610a5f61ffff168152602001610fe761ffff1681526020016114be61ffff168152602001611a4661ffff168152602001611c5961ffff1681526020016126b861ffff1681526020016126db61ffff1681526020016126fe61ffff16815260200161271061ffff16815260200161010c61ffff16815260200161011961ffff16815260200161012661ffff16815260200161014861ffff16815260200161068461ffff16815260200161128f61ffff168152602001611d0861ffff1681526020016126fb61ffff16815260200161270261ffff16815260200161270961ffff16815260200161271061ffff16815260200161012361ffff1681526020016102a761ffff16815260200161048c61ffff16815260200161067161ffff16815260200161091961ffff168152602001610c2261ffff168152602001610e6961ffff16815260200161135761ffff16815260200161196861ffff1681526020016125ec61ffff16815260200161271061ffff16815260200161016161ffff1681526020016102c261ffff16815260200161078361ffff168152602001610db661ffff1681526020016113e961ffff168152602001611df861ffff16815260200161227261ffff1681526020016126ec61ffff1681526020016126fe61ffff16815260200161270761ffff16815260200161271061ffff1681526020016102f361ffff1681526020016104cb61ffff16815260200161058861ffff16815260200161064561ffff16815260200161076061ffff16815260200161081d61ffff16815260200161087b61ffff168152602001610c2a61ffff16815260200161241e61ffff16815260200161265461ffff16815260200161271061ffff1681526020016102b761ffff1681526020016102d161ffff1681526020016102eb61ffff16815260200161034261ffff16815260200161035361ffff168152602001610bcf61ffff16815260200161144b61ffff168152602001611abe61ffff1681526020016126f661ffff16815260200161270761ffff16815260200161271061ffff168152602001606761ffff16815260200161013461ffff16815260200161020161ffff16815260200161033561ffff16815260200161059d61ffff168152602001610a0661ffff168152602001610f3d61ffff168152602001611c7961ffff1681526020016126e661ffff1681526020016126fb61ffff16815260200161271061ffff16815260200161012661ffff16815260200161024c61ffff1681526020016102df61ffff1681526020016102ee61ffff16815260200161053961ffff16815260200161081761ffff168152602001610af561ffff16815260200161101f61ffff16815260200161182761ffff16815260200161202f61ffff16815260200161271061ffff168152602001605861ffff16815260200161047c61ffff168152602001610a0161ffff168152602001610ab261ffff168152602001610f8761ffff16815260200161124a61ffff1681526020016112fb61ffff16815260200161150d61ffff168152602001611bf461ffff1681526020016126ff61ffff16815260200161271061ffff16815260200161014561ffff1681526020016102f861ffff16815260200161051761ffff16815260200161065d61ffff1681526020016107a361ffff168152602001610d2761ffff16815260200161123e61ffff1681526020016119e061ffff16815260200161203d61ffff16815260200161270661ffff16815260200161271061ffff16815260200161135b61ffff1681526020016126b661ffff1681526020016126c061ffff1681526020016126ca61ffff1681526020016126d461ffff1681526020016126de61ffff1681526020016126e861ffff1681526020016126f261ffff1681526020016126fc61ffff16815260200161270661ffff16815260200161271061ffff16815260200160d661ffff1681526020016101ac61ffff16815260200161028161ffff16815260200161029761ffff1681526020016104ad61ffff16815260200161058361ffff1681526020016105ae61ffff1681526020016109da61ffff168152602001610e0661ffff16815260200161123261ffff16815260200161271061ffff16815260200160c461ffff16815260200161031061ffff1681526020016109f461ffff168152602001610d0461ffff1681526020016110d861ffff16815260200161157061ffff168152602001611ddc61ffff16815260200161264861ffff16815260200161270c61ffff16815260200161270e61ffff16815260200161271061ffff1681526020016101db61ffff16815260200161059061ffff16815260200161067d61ffff168152602001610b2061ffff1681526020016110b061ffff16815260200161172d61ffff16815260200161216061ffff16815260200161242861ffff1681526020016126f061ffff16815260200161270861ffff16815260200161271061ffff16815260200161020361ffff16815260200161026a61ffff16815260200161046d61ffff1681526020016105a261ffff1681526020016108db61ffff168152602001610ce261ffff16815260200161135361ffff16815260200161195d61ffff168152602001611e3261ffff16815260200161250b61ffff16815260200161271061ffff16815260200160ca61ffff16815260200161058461ffff168152602001610bd161ffff16815260200161154461ffff168152602001611dee61ffff16815260200161269861ffff1681526020016126c061ffff1681526020016126d461ffff1681526020016126e861ffff1681526020016126fc61ffff16815260200161271061ffff168152602001601761ffff16815260200160fc61ffff1681526020016101e061ffff168152602001610a6161ffff168152602001610b4661ffff16815260200161126f61ffff168152602001611cba61ffff1681526020016125ad61ffff16815260200161269261ffff16815260200161269d61ffff16815260200161271061ffff1681526020016101b161ffff16815260200161036261ffff1681526020016106c461ffff168152602001610d8861ffff16815260200161144b61ffff1681526020016121d361ffff16815260200161253561ffff1681526020016125e261ffff16815260200161268f61ffff1681526020016126e661ffff16815260200161271061ffff16815260200161025961ffff16815260200161038561ffff1681526020016105de61ffff16815260200161083761ffff168152602001610e1561ffff1681526020016112c661ffff16815260200161177761ffff16815260200161233261ffff16815260200161245e61ffff1681526020016124b861ffff16815260200161271061ffff16815260200160cc61ffff1681526020016101ff61ffff16815260200161026561ffff1681526020016102ca61ffff1681526020016106c961ffff168152602001610ec661ffff1681526020016126bd61ffff1681526020016126f061ffff1681526020016126fa61ffff16815260200161270461ffff16815260200161271061ffff16815250600c9061012962000e0392919062001cfd565b506040518061036001604052806040518060400160405280600b81526020017f6662727773616c74707a6a00000000000000000000000000000000000000000081525081526020016040518060400160405280600b81526020017f676d6c64736c72746e6b6200000000000000000000000000000000000000000081525081526020016040518060400160405280600b81526020017f626c7269696c756f61657900000000000000000000000000000000000000000081525081526020016040518060400160405280600b81526020017f726c696b746175686f6f6500000000000000000000000000000000000000000081525081526020016040518060400160405280600b81526020017f7275616f6969656766777300000000000000000000000000000000000000000081525081526020016040518060400160405280600b81526020017f6d6674656c6164736e726700000000000000000000000000000000000000000081525081526020016040518060400160405280600b81526020017f6c756161727265696f797700000000000000000000000000000000000000000081525081526020016040518060400160405280600b81526020017f6c756972616f68657a677900000000000000000000000000000000000000000081525081526020016040518060400160405280600b81526020017f757272796f6961656a6c7700000000000000000000000000000000000000000081525081526020016040518060400160405280600b81526020017f677265646c6f6373746e6200000000000000000000000000000000000000000081525081526020016040518060400160405280600b81526020017f69696561616f757579746600000000000000000000000000000000000000000081525081526020016040518060400160405280600b81526020017f616f6c6c6172736965757400000000000000000000000000000000000000000081525081526020016040518060400160405280600b81526020017f75737364796f6169656c6600000000000000000000000000000000000000000081525081526020016040518060400160405280600b81526020017f736d6d7570696f6165796e00000000000000000000000000000000000000000081525081526020016040518060400160405280600b81526020017f61617579696f736574676400000000000000000000000000000000000000000081525081526020016040518060400160405280600b81526020017f7a6f6c77746d6675726e7900000000000000000000000000000000000000000081525081526020016040518060400160405280600b81526020017f74757069696c616f72657300000000000000000000000000000000000000000081525081526020016040518060400160405280600b81526020017f75756165696f737266797700000000000000000000000000000000000000000081525081526020016040518060400160405280600b81526020017f6e75647974736c61696f6500000000000000000000000000000000000000000081525081526020016040518060400160405280600b81526020017f707568616f69657477797100000000000000000000000000000000000000000081525081526020016040518060400160405280600b81526020017f7573726169656f6868747900000000000000000000000000000000000000000081525081526020016040518060400160405280600b81526020017f6562677a706c736e74726d00000000000000000000000000000000000000000081525081526020016040518060400160405280600b81526020017f756f61696565797678726c00000000000000000000000000000000000000000081525081526020016040518060400160405280600b81526020017f736e6e6f6865616975797200000000000000000000000000000000000000000081525081526020016040518060400160405280600b81526020017f6f6175656569747978746800000000000000000000000000000000000000000081525081526020016040518060400160405280600b81526020017f6c6d61697365656f75767800000000000000000000000000000000000000000081525081526020016040518060400160405280600b81526020017f75796f6f6961656c7a726c000000000000000000000000000000000000000000815250815250601f90601b6200145992919062001da2565b503480156200146757600080fd5b506040518060400160405280600881526020017f4c6f6f746c616e670000000000000000000000000000000000000000000000008152506040518060400160405280600481526020017f4c414e47000000000000000000000000000000000000000000000000000000008152508160009080519060200190620014ec92919062001e09565b5080600190805190602001906200150592919062001e09565b505050620015286200151c6200158260201b60201c565b6200158a60201b60201c565b600160238190555062cdce266026819055506040518060600160405280602281526020016200800f60229139602590805190602001906200156b92919062001e09565b506200157c6200165060201b60201c565b620020de565b600033905090565b6000600660009054906101000a900473ffffffffffffffffffffffffffffffffffffffff16905081600660006101000a81548173ffffffffffffffffffffffffffffffffffffffff021916908373ffffffffffffffffffffffffffffffffffffffff1602179055508173ffffffffffffffffffffffffffffffffffffffff168173ffffffffffffffffffffffffffffffffffffffff167f8be0079c531659141344cd1fd0a4f28419497f9722a3daafe3b4186f6b6457e060405160405180910390a35050565b60006040518061036001604052806040518060400160405280600181526020017f200000000000000000000000000000000000000000000000000000000000000081525081526020016040518060400160405280600181526020017f610000000000000000000000000000000000000000000000000000000000000081525081526020016040518060400160405280600181526020017f620000000000000000000000000000000000000000000000000000000000000081525081526020016040518060400160405280600181526020017f630000000000000000000000000000000000000000000000000000000000000081525081526020016040518060400160405280600181526020017f640000000000000000000000000000000000000000000000000000000000000081525081526020016040518060400160405280600181526020017f650000000000000000000000000000000000000000000000000000000000000081525081526020016040518060400160405280600181526020017f660000000000000000000000000000000000000000000000000000000000000081525081526020016040518060400160405280600181526020017f670000000000000000000000000000000000000000000000000000000000000081525081526020016040518060400160405280600181526020017f680000000000000000000000000000000000000000000000000000000000000081525081526020016040518060400160405280600181526020017f690000000000000000000000000000000000000000000000000000000000000081525081526020016040518060400160405280600181526020017f6a0000000000000000000000000000000000000000000000000000000000000081525081526020016040518060400160405280600181526020017f6b0000000000000000000000000000000000000000000000000000000000000081525081526020016040518060400160405280600181526020017f6c0000000000000000000000000000000000000000000000000000000000000081525081526020016040518060400160405280600181526020017f6d0000000000000000000000000000000000000000000000000000000000000081525081526020016040518060400160405280600181526020017f6e0000000000000000000000000000000000000000000000000000000000000081525081526020016040518060400160405280600181526020017f6f0000000000000000000000000000000000000000000000000000000000000081525081526020016040518060400160405280600181526020017f700000000000000000000000000000000000000000000000000000000000000081525081526020016040518060400160405280600181526020017f710000000000000000000000000000000000000000000000000000000000000081525081526020016040518060400160405280600181526020017f720000000000000000000000000000000000000000000000000000000000000081525081526020016040518060400160405280600181526020017f730000000000000000000000000000000000000000000000000000000000000081525081526020016040518060400160405280600181526020017f740000000000000000000000000000000000000000000000000000000000000081525081526020016040518060400160405280600181526020017f750000000000000000000000000000000000000000000000000000000000000081525081526020016040518060400160405280600181526020017f760000000000000000000000000000000000000000000000000000000000000081525081526020016040518060400160405280600181526020017f770000000000000000000000000000000000000000000000000000000000000081525081526020016040518060400160405280600181526020017f780000000000000000000000000000000000000000000000000000000000000081525081526020016040518060400160405280600181526020017f790000000000000000000000000000000000000000000000000000000000000081525081526020016040518060400160405280600181526020017f7a00000000000000000000000000000000000000000000000000000000000000815250815250905060005b601b81101562001cf9578060078383601b811062001cbd5762001cbc620020af565b5b602002015160405162001cd1919062001f5e565b908152602001604051809103902081905550808062001cf09062002003565b91505062001c9a565b5050565b82610129600f0160109004810192821562001d8f5791602002820160005b8382111562001d5d57835183826101000a81548161ffff021916908361ffff160217905550926020019260020160208160010104928301926001030262001d1b565b801562001d8d5782816101000a81549061ffff021916905560020160208160010104928301926001030262001d5d565b505b50905062001d9e919062001e9a565b5090565b82805482825590600052602060002090810192821562001df6579160200282015b8281111562001df557825182908051906020019062001de492919062001e09565b509160200191906001019062001dc3565b5b50905062001e05919062001eb9565b5090565b82805462001e179062001fcd565b90600052602060002090601f01602090048101928262001e3b576000855562001e87565b82601f1062001e5657805160ff191683800117855562001e87565b8280016001018555821562001e87579182015b8281111562001e8657825182559160200191906001019062001e69565b5b50905062001e96919062001e9a565b5090565b5b8082111562001eb557600081600090555060010162001e9b565b5090565b5b8082111562001edd576000818162001ed3919062001ee1565b5060010162001eba565b5090565b50805462001eef9062001fcd565b6000825580601f1062001f03575062001f24565b601f01602090049060005260206000209081019062001f23919062001e9a565b5b50565b600062001f348262001f77565b62001f40818562001f82565b935062001f5281856020860162001f97565b80840191505092915050565b600062001f6c828462001f27565b915081905092915050565b600081519050919050565b600081905092915050565b6000819050919050565b60005b8381101562001fb757808201518184015260208101905062001f9a565b8381111562001fc7576000848401525b50505050565b6000600282049050600182168062001fe657607f821691505b6020821081141562001ffd5762001ffc62002080565b5b50919050565b6000620020108262001f8d565b91507fffffffffffffffffffffffffffffffffffffffffffffffffffffffffffffffff82141562002046576200204562002051565b5b600182019050919050565b7f4e487b7100000000000000000000000000000000000000000000000000000000600052601160045260246000fd5b7f4e487b7100000000000000000000000000000000000000000000000000000000600052602260045260246000fd5b7f4e487b7100000000000000000000000000000000000000000000000000000000600052603260045260246000fd5b615f2180620020ee6000396000f3fe6080604052600436106101c25760003560e01c80638b7afe2e116100f7578063c107532911610095578063e985e9c511610064578063e985e9c51461060b578063ee34847214610648578063f2fc1cb614610671578063f2fde38b1461069a576101c2565b8063c107532914610551578063c87b56dd1461057a578063dab5f340146105b7578063e8a3d485146105e0576101c2565b806395d89b41116100d157806395d89b41146104ab578063a22cb465146104d6578063b391c508146104ff578063b88d4fde14610528576101c2565b80638b7afe2e1461042c5780638da5cb5b14610457578063938e3d7b14610482576101c2565b806323b872dd1161016457806342842e0e1161013e57806342842e0e146103725780636352211e1461039b57806370a08231146103d8578063715018a614610415576101c2565b806323b872dd146102f557806328e398e41461031e5780633a15786014610347576101c2565b8063095ea7b3116101a0578063095ea7b31461026c5780631249c58b1461029557806318160ddd1461029f578063238dafe0146102ca576101c2565b806301ffc9a7146101c757806306fdde0314610204578063081812fc1461022f575b600080fd5b3480156101d357600080fd5b506101ee60048036038101906101e99190613cfb565b6106c3565b6040516101fb9190614a09565b60405180910390f35b34801561021057600080fd5b506102196107a5565b6040516102269190614a24565b60405180910390f35b34801561023b57600080fd5b5061025660048036038101906102519190613d9e565b610837565b60405161026391906149a2565b60405180910390f35b34801561027857600080fd5b50610293600480360381019061028e9190613c45565b6108bc565b005b61029d6109d4565b005b3480156102ab57600080fd5b506102b4610af5565b6040516102c19190614dc6565b60405180910390f35b3480156102d657600080fd5b506102df610b0c565b6040516102ec9190614dc6565b60405180910390f35b34801561030157600080fd5b5061031c60048036038101906103179190613b2f565b610b12565b005b34801561032a57600080fd5b5061034560048036038101906103409190613d9e565b610b72565b005b34801561035357600080fd5b5061035c610bf8565b6040516103699190614dc6565b60405180910390f35b34801561037e57600080fd5b5061039960048036038101906103949190613b2f565b610bfe565b005b3480156103a757600080fd5b506103c260048036038101906103bd9190613d9e565b610c1e565b6040516103cf91906149a2565b60405180910390f35b3480156103e457600080fd5b506103ff60048036038101906103fa9190613a82565b610cd0565b60405161040c9190614dc6565b60405180910390f35b34801561042157600080fd5b5061042a610d88565b005b34801561043857600080fd5b50610441610e10565b60405161044e9190614dc6565b60405180910390f35b34801561046357600080fd5b5061046c610e16565b60405161047991906149a2565b60405180910390f35b34801561048e57600080fd5b506104a960048036038101906104a49190613d55565b610e40565b005b3480156104b757600080fd5b506104c0610ed6565b6040516104cd9190614a24565b60405180910390f35b3480156104e257600080fd5b506104fd60048036038101906104f89190613c05565b610f68565b005b34801561050b57600080fd5b5061052660048036038101906105219190613c85565b6110e9565b005b34801561053457600080fd5b5061054f600480360381019061054a9190613b82565b61130c565b005b34801561055d57600080fd5b5061057860048036038101906105739190613aaf565b61136e565b005b34801561058657600080fd5b506105a1600480360381019061059c9190613d9e565b611493565b6040516105ae9190614a24565b60405180910390f35b3480156105c357600080fd5b506105de60048036038101906105d99190613cce565b611d30565b005b3480156105ec57600080fd5b506105f5611db6565b6040516106029190614a24565b60405180910390f35b34801561061757600080fd5b50610632600480360381019061062d9190613aef565b611e48565b60405161063f9190614a09565b60405180910390f35b34801561065457600080fd5b5061066f600480360381019061066a9190613d9e565b611edc565b005b34801561067d57600080fd5b5061069860048036038101906106939190613dcb565b611fbf565b005b3480156106a657600080fd5b506106c160048036038101906106bc9190613a82565b6122c4565b005b60007f80ac58cd000000000000000000000000000000000000000000000000000000007bffffffffffffffffffffffffffffffffffffffffffffffffffffffff1916827bffffffffffffffffffffffffffffffffffffffffffffffffffffffff1916148061078e57507f5b5e139f000000000000000000000000000000000000000000000000000000007bffffffffffffffffffffffffffffffffffffffffffffffffffffffff1916827bffffffffffffffffffffffffffffffffffffffffffffffffffffffff1916145b8061079e575061079d826123bc565b5b9050919050565b6060600080546107b4906150be565b80601f01602080910402602001604051908101604052809291908181526020018280546107e0906150be565b801561082d5780601f106108025761010080835404028352916020019161082d565b820191906000526020600020905b81548152906001019060200180831161081057829003601f168201915b5050505050905090565b600061084282612426565b610881576040517f08c379a000000000000000000000000000000000000000000000000000000000815260040161087890614c66565b60405180910390fd5b6004600083815260200190815260200160002060009054906101000a900473ffffffffffffffffffffffffffffffffffffffff169050919050565b60006108c782610c1e565b90508073ffffffffffffffffffffffffffffffffffffffff168373ffffffffffffffffffffffffffffffffffffffff161415610938576040517f08c379a000000000000000000000000000000000000000000000000000000000815260040161092f90614ce6565b60405180910390fd5b8073ffffffffffffffffffffffffffffffffffffffff16610957612492565b73ffffffffffffffffffffffffffffffffffffffff161480610986575061098581610980612492565b611e48565b5b6109c5576040517f08c379a00000000000000000000000000000000000000000000000000000000081526004016109bc90614b86565b60405180910390fd5b6109cf838361249a565b505050565b600160205414610a19576040517f08c379a0000000000000000000000000000000000000000000000000000000008152600401610a1090614c46565b60405180910390fd5b61271060235411158015610a3157506125e460215411155b610a70576040517f08c379a0000000000000000000000000000000000000000000000000000000008152600401610a6790614c06565b60405180910390fd5b66470de4df820000341015610aba576040517f08c379a0000000000000000000000000000000000000000000000000000000008152600401610ab190614d66565b60405180910390fd5b60216000815480929190610acd90615121565b91905055503460246000828254610ae49190614ed7565b92505081905550610af3612553565b565b6000602254602154610b079190614ed7565b905090565b60205481565b610b23610b1d612492565b826125d2565b610b62576040517f08c379a0000000000000000000000000000000000000000000000000000000008152600401610b5990614d26565b60405180910390fd5b610b6d8383836126b0565b505050565b610b7a612492565b73ffffffffffffffffffffffffffffffffffffffff16610b98610e16565b73ffffffffffffffffffffffffffffffffffffffff1614610bee576040517f08c379a0000000000000000000000000000000000000000000000000000000008152600401610be590614c86565b60405180910390fd5b8060208190555050565b60265481565b610c198383836040518060200160405280600081525061130c565b505050565b6000806002600084815260200190815260200160002060009054906101000a900473ffffffffffffffffffffffffffffffffffffffff169050600073ffffffffffffffffffffffffffffffffffffffff168173ffffffffffffffffffffffffffffffffffffffff161415610cc7576040517f08c379a0000000000000000000000000000000000000000000000000000000008152600401610cbe90614bc6565b60405180910390fd5b80915050919050565b60008073ffffffffffffffffffffffffffffffffffffffff168273ffffffffffffffffffffffffffffffffffffffff161415610d41576040517f08c379a0000000000000000000000000000000000000000000000000000000008152600401610d3890614ba6565b60405180910390fd5b600360008373ffffffffffffffffffffffffffffffffffffffff1673ffffffffffffffffffffffffffffffffffffffff168152602001908152602001600020549050919050565b610d90612492565b73ffffffffffffffffffffffffffffffffffffffff16610dae610e16565b73ffffffffffffffffffffffffffffffffffffffff1614610e04576040517f08c379a0000000000000000000000000000000000000000000000000000000008152600401610dfb90614c86565b60405180910390fd5b610e0e600061290c565b565b60245481565b6000600660009054906101000a900473ffffffffffffffffffffffffffffffffffffffff16905090565b610e48612492565b73ffffffffffffffffffffffffffffffffffffffff16610e66610e16565b73ffffffffffffffffffffffffffffffffffffffff1614610ebc576040517f08c379a0000000000000000000000000000000000000000000000000000000008152600401610eb390614c86565b60405180910390fd5b8060259080519060200190610ed29291906137a6565b5050565b606060018054610ee5906150be565b80601f0160208091040260200160405190810160405280929190818152602001828054610f11906150be565b8015610f5e5780601f10610f3357610100808354040283529160200191610f5e565b820191906000526020600020905b815481529060010190602001808311610f4157829003601f168201915b5050505050905090565b610f70612492565b73ffffffffffffffffffffffffffffffffffffffff168273ffffffffffffffffffffffffffffffffffffffff161415610fde576040517f08c379a0000000000000000000000000000000000000000000000000000000008152600401610fd590614b26565b60405180910390fd5b8060056000610feb612492565b73ffffffffffffffffffffffffffffffffffffffff1673ffffffffffffffffffffffffffffffffffffffff16815260200190815260200160002060008473ffffffffffffffffffffffffffffffffffffffff1673ffffffffffffffffffffffffffffffffffffffff16815260200190815260200160002060006101000a81548160ff0219169083151502179055508173ffffffffffffffffffffffffffffffffffffffff16611098612492565b73ffffffffffffffffffffffffffffffffffffffff167f17307eab39ab6107e8899845ad3d59bd9653f200f220920489ca2b5937696c31836040516110dd9190614a09565b60405180910390a35050565b60016020541461112e576040517f08c379a000000000000000000000000000000000000000000000000000000000815260040161112590614c46565b60405180910390fd5b60001515600b60003373ffffffffffffffffffffffffffffffffffffffff1673ffffffffffffffffffffffffffffffffffffffff16815260200190815260200160002060009054906101000a900460ff161515146111c1576040517f08c379a00000000000000000000000000000000000000000000000000000000081526004016111b890614c26565b60405180910390fd5b612710602354111580156111d9575061012c60225411155b611218576040517f08c379a000000000000000000000000000000000000000000000000000000000815260040161120f90614c06565b60405180910390fd5b6001151561124f826028543360405160200161123491906144ff565b604051602081830303815290604052805190602001206129d2565b151514611291576040517f08c379a000000000000000000000000000000000000000000000000000000000815260040161128890614da6565b60405180910390fd5b602260008154809291906112a490615121565b91905055506001600b60003373ffffffffffffffffffffffffffffffffffffffff1673ffffffffffffffffffffffffffffffffffffffff16815260200190815260200160002060006101000a81548160ff021916908315150217905550611309612553565b50565b61131d611317612492565b836125d2565b61135c576040517f08c379a000000000000000000000000000000000000000000000000000000000815260040161135390614d26565b60405180910390fd5b61136884848484612a88565b50505050565b611376612492565b73ffffffffffffffffffffffffffffffffffffffff16611394610e16565b73ffffffffffffffffffffffffffffffffffffffff16146113ea576040517f08c379a00000000000000000000000000000000000000000000000000000000081526004016113e190614c86565b60405180910390fd5b60245481111561142f576040517f08c379a000000000000000000000000000000000000000000000000000000000815260040161142690614cc6565b60405180910390fd5b80602460008282546114419190614fb8565b925050819055508173ffffffffffffffffffffffffffffffffffffffff166108fc829081150290604051600060405180830381858888f1935050505015801561148e573d6000803e3d6000fd5b505050565b606061149e82612426565b6114dd576040517f08c379a00000000000000000000000000000000000000000000000000000000081526004016114d490614a66565b60405180910390fd5b6114e561382c565b60405180610120016040528060fd8152602001615c9160fd91398160006011811061151357611512615260565b5b602002018190525061152f8361152a856001612ae4565b612b61565b8160016011811061154357611542615260565b5b6020020181905250604051806060016040528060288152602001615e32602891398160026011811061157857611577615260565b5b60200201819052506115948361158f856002612ae4565b612b61565b816003601181106115a8576115a7615260565b5b6020020181905250604051806060016040528060298152602001615e9a60299139816004601181106115dd576115dc615260565b5b60200201819052506115f9836115f4856003612ae4565b612b61565b8160056011811061160d5761160c615260565b5b6020020181905250604051806060016040528060298152602001615de0602991398160066011811061164257611641615260565b5b602002018190525061165e83611659856004612ae4565b612b61565b8160076011811061167257611671615260565b5b6020020181905250604051806060016040528060298152602001615ec360299139816008601181106116a7576116a6615260565b5b60200201819052506116c3836116be856005612ae4565b612b61565b816009601181106116d7576116d6615260565b5b6020020181905250604051806060016040528060298152602001615d8e6029913981600a6011811061170c5761170b615260565b5b602002018190525061172883611723856006612ae4565b612b61565b81600b6011811061173c5761173b615260565b5b6020020181905250604051806060016040528060298152602001615db76029913981600c6011811061177157611770615260565b5b602002018190525061178d83611788856007612ae4565b612b61565b81600d601181106117a1576117a0615260565b5b6020020181905250604051806060016040528060298152602001615e096029913981600e601181106117d6576117d5615260565b5b60200201819052506117f2836117ed856008612ae4565b612b61565b81600f6011811061180657611805615260565b5b60200201819052506040518060400160405280600d81526020017f3c2f746578743e3c2f7376673e000000000000000000000000000000000000008152508160106011811061185857611857615260565b5b602002018190525060008160006011811061187657611875615260565b5b60200201518260016011811061188f5761188e615260565b5b6020020151836002601181106118a8576118a7615260565b5b6020020151846003601181106118c1576118c0615260565b5b6020020151856004601181106118da576118d9615260565b5b6020020151866005601181106118f3576118f2615260565b5b60200201518760066011811061190c5761190b615260565b5b60200201518860076011811061192557611924615260565b5b60200201518960086011811061193e5761193d615260565b5b602002015160405160200161195b99989796959493929190614581565b6040516020818303038152906040529050808260096011811061198157611980615260565b5b602002015183600a6011811061199a57611999615260565b5b602002015184600b601181106119b3576119b2615260565b5b602002015185600c601181106119cc576119cb615260565b5b602002015186600d601181106119e5576119e4615260565b5b602002015187600e601181106119fe576119fd615260565b5b602002015188600f60118110611a1757611a16615260565b5b602002015189601060118110611a3057611a2f615260565b5b6020020151604051602001611a4d99989796959493929190614581565b60405160208183030381529060405290506000611a6985612da5565b611a8d611a88600a600089815260200190815260200160002054612da5565b612f06565b611aae85600160118110611aa457611aa3615260565b5b6020020151612f35565b611acf86600360118110611ac557611ac4615260565b5b6020020151612f35565b611af087600560118110611ae657611ae5615260565b5b6020020151612f35565b611b1188600760118110611b0757611b06615260565b5b6020020151612f35565b611b3289600960118110611b2857611b27615260565b5b6020020151612f35565b611b538a600b60118110611b4957611b48615260565b5b6020020151612f35565b611b748b600d60118110611b6a57611b69615260565b5b6020020151612f35565b611b958c600f60118110611b8b57611b8a615260565b5b6020020151612f35565b604051602001611bae9a9998979695949392919061475f565b6040516020818303038152906040529050611d0181611be485600160118110611bda57611bd9615260565b5b6020020151612f06565b611c0586600360118110611bfb57611bfa615260565b5b6020020151612f06565b611c2687600560118110611c1c57611c1b615260565b5b6020020151612f06565b611c4788600760118110611c3d57611c3c615260565b5b6020020151612f06565b611c6889600960118110611c5e57611c5d615260565b5b6020020151612f06565b611c898a600b60118110611c7f57611c7e615260565b5b6020020151612f06565b611caa8b600d60118110611ca057611c9f615260565b5b6020020151612f06565b611ccb8c600f60118110611cc157611cc0615260565b5b6020020151612f06565b611cd48c612f74565b604051602001611ced9a99989796959493929190614600565b604051602081830303815290604052612f74565b905080604051602001611d149190614864565b6040516020818303038152906040529150819350505050919050565b611d38612492565b73ffffffffffffffffffffffffffffffffffffffff16611d56610e16565b73ffffffffffffffffffffffffffffffffffffffff1614611dac576040517f08c379a0000000000000000000000000000000000000000000000000000000008152600401611da390614c86565b60405180910390fd5b8060288190555050565b606060258054611dc5906150be565b80601f0160208091040260200160405190810160405280929190818152602001828054611df1906150be565b8015611e3e5780601f10611e1357610100808354040283529160200191611e3e565b820191906000526020600020905b815481529060010190602001808311611e2157829003601f168201915b5050505050905090565b6000600560008473ffffffffffffffffffffffffffffffffffffffff1673ffffffffffffffffffffffffffffffffffffffff16815260200190815260200160002060008373ffffffffffffffffffffffffffffffffffffffff1673ffffffffffffffffffffffffffffffffffffffff16815260200190815260200160002060009054906101000a900460ff16905092915050565b611ee4612492565b73ffffffffffffffffffffffffffffffffffffffff16611f02610e16565b73ffffffffffffffffffffffffffffffffffffffff1614611f58576040517f08c379a0000000000000000000000000000000000000000000000000000000008152600401611f4f90614c86565b60405180910390fd5b600160275410611f9d576040517f08c379a0000000000000000000000000000000000000000000000000000000008152600401611f9490614d06565b60405180910390fd5b8060268190555060276000815480929190611fb790615121565b919050555050565b3373ffffffffffffffffffffffffffffffffffffffff16611fdf8a610c1e565b73ffffffffffffffffffffffffffffffffffffffff1614612035576040517f08c379a000000000000000000000000000000000000000000000000000000000815260040161202c90614d86565b60405180910390fd5b6005600a60008b8152602001908152602001600020541061208b576040517f08c379a000000000000000000000000000000000000000000000000000000000815260040161208290614a46565b60405180910390fd5b60265443106120cf576040517f08c379a00000000000000000000000000000000000000000000000000000000081526004016120c690614d46565b60405180910390fd5b600081838587898b8d8f6120e39190614ed7565b6120ed9190614ed7565b6120f79190614ed7565b6121019190614ed7565b61210b9190614ed7565b6121159190614ed7565b61211f9190614ed7565b1161215f576040517f08c379a000000000000000000000000000000000000000000000000000000000815260040161215690614b46565b60405180910390fd5b6000620f4240436040516020016121769190614886565b6040516020818303038152906040528051906020012060001c61219991906151a2565b905060006040518061010001604052808b81526020018a815260200189815260200188815260200187815260200186815260200185815260200184815250905060005b60088110156122565760008282600881106121fa576121f9615260565b5b602002015111156122435782600960008e8152602001908152602001600020826008811061222b5761222a615260565b5b01600082825461223b9190614ed7565b925050819055505b808061224e90615121565b9150506121dc565b50600a60008c8152602001908152602001600020600081548092919061227b90615121565b91905055507faea646e052f85d2e7b1b634b62c2d6d55d38a8901dc11a296ad7a40c2b5b5efb8b6040516122af9190614dc6565b60405180910390a15050505050505050505050565b6122cc612492565b73ffffffffffffffffffffffffffffffffffffffff166122ea610e16565b73ffffffffffffffffffffffffffffffffffffffff1614612340576040517f08c379a000000000000000000000000000000000000000000000000000000000815260040161233790614c86565b60405180910390fd5b600073ffffffffffffffffffffffffffffffffffffffff168173ffffffffffffffffffffffffffffffffffffffff1614156123b0576040517f08c379a00000000000000000000000000000000000000000000000000000000081526004016123a790614aa6565b60405180910390fd5b6123b98161290c565b50565b60007f01ffc9a7000000000000000000000000000000000000000000000000000000007bffffffffffffffffffffffffffffffffffffffffffffffffffffffff1916827bffffffffffffffffffffffffffffffffffffffffffffffffffffffff1916149050919050565b60008073ffffffffffffffffffffffffffffffffffffffff166002600084815260200190815260200160002060009054906101000a900473ffffffffffffffffffffffffffffffffffffffff1673ffffffffffffffffffffffffffffffffffffffff1614159050919050565b600033905090565b816004600083815260200190815260200160002060006101000a81548173ffffffffffffffffffffffffffffffffffffffff021916908373ffffffffffffffffffffffffffffffffffffffff160217905550808273ffffffffffffffffffffffffffffffffffffffff1661250d83610c1e565b73ffffffffffffffffffffffffffffffffffffffff167f8c5be1e5ebec7d5bd14f71427d1e84f3dd0314c0f7b2291e5b200ac8c7c3b92560405160405180910390a45050565b600060235490506023600081548092919061256d90615121565b9190505550620f424081334260405160200161258b939291906148a1565b6040516020818303038152906040528051906020012060001c6125ae91906151a2565b60086000838152602001908152602001600020819055506125cf338261310c565b50565b60006125dd82612426565b61261c576040517f08c379a000000000000000000000000000000000000000000000000000000000815260040161261390614b66565b60405180910390fd5b600061262783610c1e565b90508073ffffffffffffffffffffffffffffffffffffffff168473ffffffffffffffffffffffffffffffffffffffff16148061269657508373ffffffffffffffffffffffffffffffffffffffff1661267e84610837565b73ffffffffffffffffffffffffffffffffffffffff16145b806126a757506126a68185611e48565b5b91505092915050565b8273ffffffffffffffffffffffffffffffffffffffff166126d082610c1e565b73ffffffffffffffffffffffffffffffffffffffff1614612726576040517f08c379a000000000000000000000000000000000000000000000000000000000815260040161271d90614ca6565b60405180910390fd5b600073ffffffffffffffffffffffffffffffffffffffff168273ffffffffffffffffffffffffffffffffffffffff161415612796576040517f08c379a000000000000000000000000000000000000000000000000000000000815260040161278d90614b06565b60405180910390fd5b6127a183838361312a565b6127ac60008261249a565b6001600360008573ffffffffffffffffffffffffffffffffffffffff1673ffffffffffffffffffffffffffffffffffffffff16815260200190815260200160002060008282546127fc9190614fb8565b925050819055506001600360008473ffffffffffffffffffffffffffffffffffffffff1673ffffffffffffffffffffffffffffffffffffffff16815260200190815260200160002060008282546128539190614ed7565b92505081905550816002600083815260200190815260200160002060006101000a81548173ffffffffffffffffffffffffffffffffffffffff021916908373ffffffffffffffffffffffffffffffffffffffff160217905550808273ffffffffffffffffffffffffffffffffffffffff168473ffffffffffffffffffffffffffffffffffffffff167fddf252ad1be2c89b69c2b068fc378daa952ba7f163c4a11628f55a4df523b3ef60405160405180910390a4505050565b6000600660009054906101000a900473ffffffffffffffffffffffffffffffffffffffff16905081600660006101000a81548173ffffffffffffffffffffffffffffffffffffffff021916908373ffffffffffffffffffffffffffffffffffffffff1602179055508173ffffffffffffffffffffffffffffffffffffffff168173ffffffffffffffffffffffffffffffffffffffff167f8be0079c531659141344cd1fd0a4f28419497f9722a3daafe3b4186f6b6457e060405160405180910390a35050565b60008082905060005b8551811015612a7a5760008682815181106129f9576129f8615260565b5b60200260200101519050808311612a3a578281604051602001612a1d92919061451a565b604051602081830303815290604052805190602001209250612a66565b8083604051602001612a4d92919061451a565b6040516020818303038152906040528051906020012092505b508080612a7290615121565b9150506129db565b508381149150509392505050565b612a938484846126b0565b612a9f8484848461312f565b612ade576040517f08c379a0000000000000000000000000000000000000000000000000000000008152600401612ad590614a86565b60405180910390fd5b50505050565b600081600860008581526020019081526020016000205460096000868152602001908152602001600020600185612b1b9190614fb8565b60088110612b2c57612b2b615260565b5b0154604051602001612b4093929190614965565b6040516020818303038152906040528051906020012060001c905092915050565b606060018310158015612b7657506127108311155b612bb5576040517f08c379a0000000000000000000000000000000000000000000000000000000008152600401612bac90614ae6565b60405180910390fd5b60608060006127108686604051602001612bd09291906148de565b6040516020818303038152906040528051906020012060001c612bf391906151a2565b905060006001612710888489604051602001612c1193929190614965565b6040516020818303038152906040528051906020012060001c612c3491906151a2565b612c3e9190614ed7565b90506000600190505b612c50836132c6565b8111612d975760005b600b811015612ce857600c81600b600788604051612c779190614546565b908152602001604051809103902054612c909190614f5e565b612c9a9190614ed7565b6101298110612cac57612cab615260565b5b601091828204019190066002029054906101000a900461ffff1661ffff168311612cd557612ce8565b8080612ce090615121565b915050612c59565b612d10600786604051612cfb9190614546565b908152602001604051809103902054826133ee565b94508585604051602001612d2592919061455d565b604051602081830303815290604052955060016127108a8589868d604051602001612d5495949392919061490a565b6040516020818303038152906040528051906020012060001c612d7791906151a2565b612d819190614ed7565b9250508080612d8f90615121565b915050612c47565b508394505050505092915050565b60606000821415612ded576040518060400160405280600181526020017f30000000000000000000000000000000000000000000000000000000000000008152509050612f01565b600082905060005b60008214612e1f578080612e0890615121565b915050600a82612e189190614f2d565b9150612df5565b60008167ffffffffffffffff811115612e3b57612e3a61528f565b5b6040519080825280601f01601f191660200182016040528015612e6d5781602001600182028036833780820191505090505b5090505b60008514612efa57600182612e869190614fb8565b9150600a85612e9591906151a2565b6030612ea19190614ed7565b60f81b818381518110612eb757612eb6615260565b5b60200101907effffffffffffffffffffffffffffffffffffffffffffffffffffffffffffff1916908160001a905350600a85612ef39190614f2d565b9450612e71565b8093505050505b919050565b6060600082604051602001612f1b9190614732565b604051602081830303815290604052905080915050919050565b60606000612f4a612f458461355f565b612da5565b604051602001612f5a91906146fa565b604051602081830303815290604052905080915050919050565b60606000825190506000811415612f9d5760405180602001604052806000815250915050613107565b60006003600283612fae9190614ed7565b612fb89190614f2d565b6004612fc49190614f5e565b90506000602082612fd59190614ed7565b67ffffffffffffffff811115612fee57612fed61528f565b5b6040519080825280601f01601f1916602001820160405280156130205781602001600182028036833780820191505090505b5090506000604051806060016040528060408152602001615e5a604091399050600181016020830160005b868110156130c45760038101905062ffffff818a015116603f8160121c168401518060081b905060ff603f83600c1c1686015116810190508060081b905060ff603f8360061c1686015116810190508060081b905060ff603f831686015116810190508060e01b9050808452600484019350505061304b565b5060038606600181146130de57600281146130ee576130f9565b613d3d60f01b60028303526130f9565b603d60f81b60018303525b508484525050819450505050505b919050565b61312682826040518060200160405280600081525061356a565b5050565b505050565b60006131508473ffffffffffffffffffffffffffffffffffffffff166135c5565b156132b9578373ffffffffffffffffffffffffffffffffffffffff1663150b7a02613179612492565b8786866040518563ffffffff1660e01b815260040161319b94939291906149bd565b602060405180830381600087803b1580156131b557600080fd5b505af19250505080156131e657506040513d601f19601f820116820180604052508101906131e39190613d28565b60015b613269573d8060008114613216576040519150601f19603f3d011682016040523d82523d6000602084013e61321b565b606091505b50600081511415613261576040517f08c379a000000000000000000000000000000000000000000000000000000000815260040161325890614a86565b60405180910390fd5b805181602001fd5b63150b7a0260e01b7bffffffffffffffffffffffffffffffffffffffffffffffffffffffff1916817bffffffffffffffffffffffffffffffffffffffffffffffffffffffff1916149150506132be565b600190505b949350505050565b600080604051806102000160405280600261ffff168152602001606361ffff1681526020016102f961ffff16815260200161078961ffff168152602001610c6761ffff16815260200161125661ffff16815260200161189361ffff168152602001611de661ffff16815260200161222861ffff16815260200161247061ffff1681526020016125ce61ffff16815260200161269061ffff1681526020016126d261ffff1681526020016126f861ffff16815260200161270761ffff16815260200161271061ffff16815250905060005b600f81116133d8578181601081106133b1576133b0615260565b5b602002015161ffff1684116133c5576133d8565b80806133d090615121565b915050613396565b6001816133e59190614ed7565b92505050919050565b60606000601f848154811061340657613405615260565b5b90600052602060002001805461341b906150be565b80601f0160208091040260200160405190810160405280929190818152602001828054613447906150be565b80156134945780601f1061346957610100808354040283529160200191613494565b820191906000526020600020905b81548152906001019060200180831161347757829003601f168201915b505050505090506000600167ffffffffffffffff8111156134b8576134b761528f565b5b6040519080825280601f01601f1916602001820160405280156134ea5781602001600182028036833780820191505090505b509050600081905082858151811061350557613504615260565b5b602001015160f81c60f81b8160008151811061352457613523615260565b5b60200101907effffffffffffffffffffffffffffffffffffffffffffffffffffffffffffff1916908160001a90535080935050505092915050565b600081519050919050565b61357483836135d8565b613581600084848461312f565b6135c0576040517f08c379a00000000000000000000000000000000000000000000000000000000081526004016135b790614a86565b60405180910390fd5b505050565b600080823b905060008111915050919050565b600073ffffffffffffffffffffffffffffffffffffffff168273ffffffffffffffffffffffffffffffffffffffff161415613648576040517f08c379a000000000000000000000000000000000000000000000000000000000815260040161363f90614be6565b60405180910390fd5b61365181612426565b15613691576040517f08c379a000000000000000000000000000000000000000000000000000000000815260040161368890614ac6565b60405180910390fd5b61369d6000838361312a565b6001600360008473ffffffffffffffffffffffffffffffffffffffff1673ffffffffffffffffffffffffffffffffffffffff16815260200190815260200160002060008282546136ed9190614ed7565b92505081905550816002600083815260200190815260200160002060006101000a81548173ffffffffffffffffffffffffffffffffffffffff021916908373ffffffffffffffffffffffffffffffffffffffff160217905550808273ffffffffffffffffffffffffffffffffffffffff16600073ffffffffffffffffffffffffffffffffffffffff167fddf252ad1be2c89b69c2b068fc378daa952ba7f163c4a11628f55a4df523b3ef60405160405180910390a45050565b8280546137b2906150be565b90600052602060002090601f0160209004810192826137d4576000855561381b565b82601f106137ed57805160ff191683800117855561381b565b8280016001018555821561381b579182015b8281111561381a5782518255916020019190600101906137ff565b5b5090506138289190613854565b5090565b6040518061022001604052806011905b606081526020019060019003908161383c5790505090565b5b8082111561386d576000816000905550600101613855565b5090565b600061388461387f84614e06565b614de1565b905080838252602082019050828560208602820111156138a7576138a66152c3565b5b60005b858110156138d757816138bd88826139d2565b8452602084019350602083019250506001810190506138aa565b5050509392505050565b60006138f46138ef84614e32565b614de1565b9050828152602081018484840111156139105761390f6152c8565b5b61391b84828561507c565b509392505050565b600061393661393184614e63565b614de1565b905082815260208101848484011115613952576139516152c8565b5b61395d84828561507c565b509392505050565b60008135905061397481615c06565b92915050565b60008135905061398981615c1d565b92915050565b600082601f8301126139a4576139a36152be565b5b81356139b4848260208601613871565b91505092915050565b6000813590506139cc81615c34565b92915050565b6000813590506139e181615c4b565b92915050565b6000813590506139f681615c62565b92915050565b600081519050613a0b81615c62565b92915050565b600082601f830112613a2657613a256152be565b5b8135613a368482602086016138e1565b91505092915050565b600082601f830112613a5457613a536152be565b5b8135613a64848260208601613923565b91505092915050565b600081359050613a7c81615c79565b92915050565b600060208284031215613a9857613a976152d2565b5b6000613aa684828501613965565b91505092915050565b60008060408385031215613ac657613ac56152d2565b5b6000613ad48582860161397a565b9250506020613ae585828601613a6d565b9150509250929050565b60008060408385031215613b0657613b056152d2565b5b6000613b1485828601613965565b9250506020613b2585828601613965565b9150509250929050565b600080600060608486031215613b4857613b476152d2565b5b6000613b5686828701613965565b9350506020613b6786828701613965565b9250506040613b7886828701613a6d565b9150509250925092565b60008060008060808587031215613b9c57613b9b6152d2565b5b6000613baa87828801613965565b9450506020613bbb87828801613965565b9350506040613bcc87828801613a6d565b925050606085013567ffffffffffffffff811115613bed57613bec6152cd565b5b613bf987828801613a11565b91505092959194509250565b60008060408385031215613c1c57613c1b6152d2565b5b6000613c2a85828601613965565b9250506020613c3b858286016139bd565b9150509250929050565b60008060408385031215613c5c57613c5b6152d2565b5b6000613c6a85828601613965565b9250506020613c7b85828601613a6d565b9150509250929050565b600060208284031215613c9b57613c9a6152d2565b5b600082013567ffffffffffffffff811115613cb957613cb86152cd565b5b613cc58482850161398f565b91505092915050565b600060208284031215613ce457613ce36152d2565b5b6000613cf2848285016139d2565b91505092915050565b600060208284031215613d1157613d106152d2565b5b6000613d1f848285016139e7565b91505092915050565b600060208284031215613d3e57613d3d6152d2565b5b6000613d4c848285016139fc565b91505092915050565b600060208284031215613d6b57613d6a6152d2565b5b600082013567ffffffffffffffff811115613d8957613d886152cd565b5b613d9584828501613a3f565b91505092915050565b600060208284031215613db457613db36152d2565b5b6000613dc284828501613a6d565b91505092915050565b60008060008060008060008060006101208a8c031215613dee57613ded6152d2565b5b6000613dfc8c828d01613a6d565b9950506020613e0d8c828d01613a6d565b9850506040613e1e8c828d01613a6d565b9750506060613e2f8c828d01613a6d565b9650506080613e408c828d01613a6d565b95505060a0613e518c828d01613a6d565b94505060c0613e628c828d01613a6d565b93505060e0613e738c828d01613a6d565b925050610100613e858c828d01613a6d565b9150509295985092959850929598565b613e9e81614fec565b82525050565b613eb5613eb082614fec565b61516a565b82525050565b613ec481615010565b82525050565b613edb613ed68261501c565b61517c565b82525050565b6000613eec82614e94565b613ef68185614eaa565b9350613f0681856020860161508b565b613f0f816152d7565b840191505092915050565b6000613f2582614e9f565b613f2f8185614ebb565b9350613f3f81856020860161508b565b613f48816152d7565b840191505092915050565b6000613f5e82614e9f565b613f688185614ecc565b9350613f7881856020860161508b565b80840191505092915050565b6000613f91601b83614ebb565b9150613f9c826152f5565b602082019050919050565b6000613fb4601f83614ebb565b9150613fbf8261531e565b602082019050919050565b6000613fd7603283614ebb565b9150613fe282615347565b604082019050919050565b6000613ffa606583614ecc565b915061400582615396565b606582019050919050565b600061401d602683614ebb565b915061402882615431565b604082019050919050565b6000614040602983614ecc565b915061404b82615480565b602982019050919050565b6000614063601c83614ebb565b915061406e826154cf565b602082019050919050565b6000614086601083614ebb565b9150614091826154f8565b602082019050919050565b60006140a9600883614ecc565b91506140b482615521565b600882019050919050565b60006140cc602483614ebb565b91506140d78261554a565b604082019050919050565b60006140ef601983614ebb565b91506140fa82615599565b602082019050919050565b6000614112602283614ecc565b915061411d826155c2565b602282019050919050565b6000614135602083614ebb565b915061414082615611565b602082019050919050565b6000614158602c83614ebb565b91506141638261563a565b604082019050919050565b600061417b603883614ebb565b915061418682615689565b604082019050919050565b600061419e600183614ecc565b91506141a9826156d8565b600182019050919050565b60006141c1602183614ecc565b91506141cc82615701565b602182019050919050565b60006141e4602a83614ebb565b91506141ef82615750565b604082019050919050565b6000614207602983614ebb565b91506142128261579f565b604082019050919050565b600061422a600283614ecc565b9150614235826157ee565b600282019050919050565b600061424d602083614ebb565b915061425882615817565b602082019050919050565b6000614270601983614ebb565b915061427b82615840565b602082019050919050565b6000614293600f83614ebb565b915061429e82615869565b602082019050919050565b60006142b6600183614ecc565b91506142c182615892565b600182019050919050565b60006142d9601c83614ebb565b91506142e4826158bb565b602082019050919050565b60006142fc602c83614ebb565b9150614307826158e4565b604082019050919050565b600061431f602083614ebb565b915061432a82615933565b602082019050919050565b6000614342602983614ebb565b915061434d8261595c565b604082019050919050565b6000614365602683614ebb565b9150614370826159ab565b604082019050919050565b6000614388602183614ebb565b9150614393826159fa565b604082019050919050565b60006143ab601083614ecc565b91506143b682615a49565b601082019050919050565b60006143ce601d83614ecc565b91506143d982615a72565b601d82019050919050565b60006143f1601c83614ebb565b91506143fc82615a9b565b602082019050919050565b6000614414603183614ebb565b915061441f82615ac4565b604082019050919050565b6000614437601a83614ebb565b915061444282615b13565b602082019050919050565b600061445a601b83614ebb565b915061446582615b3c565b602082019050919050565b600061447d601183614ebb565b915061448882615b65565b602082019050919050565b60006144a0601e83614ebb565b91506144ab82615b8e565b602082019050919050565b60006144c3602983614ecc565b91506144ce82615bb7565b602982019050919050565b6144e281615072565b82525050565b6144f96144f482615072565b615198565b82525050565b600061450b8284613ea4565b60148201915081905092915050565b60006145268285613eca565b6020820191506145368284613eca565b6020820191508190509392505050565b60006145528284613f53565b915081905092915050565b60006145698285613f53565b91506145758284613f53565b91508190509392505050565b600061458d828c613f53565b9150614599828b613f53565b91506145a5828a613f53565b91506145b18289613f53565b91506145bd8288613f53565b91506145c98287613f53565b91506145d58286613f53565b91506145e18285613f53565b91506145ed8284613f53565b91508190509a9950505050505050505050565b600061460c828d613f53565b9150614617826141b4565b9150614623828c613f53565b915061462e82614105565b915061463a828b613f53565b915061464582614105565b9150614651828a613f53565b915061465c82614105565b91506146688289613f53565b915061467382614105565b915061467f8288613f53565b915061468a82614105565b91506146968287613f53565b91506146a182614105565b91506146ad8286613f53565b91506146b882614105565b91506146c48285613f53565b91506146cf826144b6565b91506146db8284613f53565b91506146e68261421d565b91508190509b9a5050505050505050505050565b600061470582614191565b91506147118284613f53565b915061471c8261409c565b915061472782614191565b915081905092915050565b600061473d82614191565b91506147498284613f53565b915061475482614191565b915081905092915050565b600061476a8261439e565b9150614776828d613f53565b915061478182613fed565b915061478d828c613f53565b915061479882614033565b91506147a4828b613f53565b91506147af82614033565b91506147bb828a613f53565b91506147c682614033565b91506147d28289613f53565b91506147dd82614033565b91506147e98288613f53565b91506147f482614033565b91506148008287613f53565b915061480b82614033565b91506148178286613f53565b915061482282614033565b915061482e8285613f53565b915061483982614033565b91506148458284613f53565b9150614850826142a9565b91508190509b9a5050505050505050505050565b600061486f826143c1565b915061487b8284613f53565b915081905092915050565b600061489282846144e8565b60208201915081905092915050565b60006148ad82866144e8565b6020820191506148bd8285613ea4565b6014820191506148cd82846144e8565b602082019150819050949350505050565b60006148ea82856144e8565b6020820191506148fa82846144e8565b6020820191508190509392505050565b600061491682886144e8565b60208201915061492682876144e8565b6020820191506149368286613f53565b915061494282856144e8565b60208201915061495282846144e8565b6020820191508190509695505050505050565b600061497182866144e8565b60208201915061498182856144e8565b60208201915061499182846144e8565b602082019150819050949350505050565b60006020820190506149b76000830184613e95565b92915050565b60006080820190506149d26000830187613e95565b6149df6020830186613e95565b6149ec60408301856144d9565b81810360608301526149fe8184613ee1565b905095945050505050565b6000602082019050614a1e6000830184613ebb565b92915050565b60006020820190508181036000830152614a3e8184613f1a565b905092915050565b60006020820190508181036000830152614a5f81613f84565b9050919050565b60006020820190508181036000830152614a7f81613fa7565b9050919050565b60006020820190508181036000830152614a9f81613fca565b9050919050565b60006020820190508181036000830152614abf81614010565b9050919050565b60006020820190508181036000830152614adf81614056565b9050919050565b60006020820190508181036000830152614aff81614079565b9050919050565b60006020820190508181036000830152614b1f816140bf565b9050919050565b60006020820190508181036000830152614b3f816140e2565b9050919050565b60006020820190508181036000830152614b5f81614128565b9050919050565b60006020820190508181036000830152614b7f8161414b565b9050919050565b60006020820190508181036000830152614b9f8161416e565b9050919050565b60006020820190508181036000830152614bbf816141d7565b9050919050565b60006020820190508181036000830152614bdf816141fa565b9050919050565b60006020820190508181036000830152614bff81614240565b9050919050565b60006020820190508181036000830152614c1f81614263565b9050919050565b60006020820190508181036000830152614c3f81614286565b9050919050565b60006020820190508181036000830152614c5f816142cc565b9050919050565b60006020820190508181036000830152614c7f816142ef565b9050919050565b60006020820190508181036000830152614c9f81614312565b9050919050565b60006020820190508181036000830152614cbf81614335565b9050919050565b60006020820190508181036000830152614cdf81614358565b9050919050565b60006020820190508181036000830152614cff8161437b565b9050919050565b60006020820190508181036000830152614d1f816143e4565b9050919050565b60006020820190508181036000830152614d3f81614407565b9050919050565b60006020820190508181036000830152614d5f8161442a565b9050919050565b60006020820190508181036000830152614d7f8161444d565b9050919050565b60006020820190508181036000830152614d9f81614470565b9050919050565b60006020820190508181036000830152614dbf81614493565b9050919050565b6000602082019050614ddb60008301846144d9565b92915050565b6000614deb614dfc565b9050614df782826150f0565b919050565b6000604051905090565b600067ffffffffffffffff821115614e2157614e2061528f565b5b602082029050602081019050919050565b600067ffffffffffffffff821115614e4d57614e4c61528f565b5b614e56826152d7565b9050602081019050919050565b600067ffffffffffffffff821115614e7e57614e7d61528f565b5b614e87826152d7565b9050602081019050919050565b600081519050919050565b600081519050919050565b600082825260208201905092915050565b600082825260208201905092915050565b600081905092915050565b6000614ee282615072565b9150614eed83615072565b9250827fffffffffffffffffffffffffffffffffffffffffffffffffffffffffffffffff03821115614f2257614f216151d3565b5b828201905092915050565b6000614f3882615072565b9150614f4383615072565b925082614f5357614f52615202565b5b828204905092915050565b6000614f6982615072565b9150614f7483615072565b9250817fffffffffffffffffffffffffffffffffffffffffffffffffffffffffffffffff0483118215151615614fad57614fac6151d3565b5b828202905092915050565b6000614fc382615072565b9150614fce83615072565b925082821015614fe157614fe06151d3565b5b828203905092915050565b6000614ff782615052565b9050919050565b600061500982615052565b9050919050565b60008115159050919050565b6000819050919050565b60007fffffffff0000000000000000000000000000000000000000000000000000000082169050919050565b600073ffffffffffffffffffffffffffffffffffffffff82169050919050565b6000819050919050565b82818337600083830152505050565b60005b838110156150a957808201518184015260208101905061508e565b838111156150b8576000848401525b50505050565b600060028204905060018216806150d657607f821691505b602082108114156150ea576150e9615231565b5b50919050565b6150f9826152d7565b810181811067ffffffffffffffff821117156151185761511761528f565b5b80604052505050565b600061512c82615072565b91507fffffffffffffffffffffffffffffffffffffffffffffffffffffffffffffffff82141561515f5761515e6151d3565b5b600182019050919050565b600061517582615186565b9050919050565b6000819050919050565b6000615191826152e8565b9050919050565b6000819050919050565b60006151ad82615072565b91506151b883615072565b9250826151c8576151c7615202565b5b828206905092915050565b7f4e487b7100000000000000000000000000000000000000000000000000000000600052601160045260246000fd5b7f4e487b7100000000000000000000000000000000000000000000000000000000600052601260045260246000fd5b7f4e487b7100000000000000000000000000000000000000000000000000000000600052602260045260246000fd5b7f4e487b7100000000000000000000000000000000000000000000000000000000600052603260045260246000fd5b7f4e487b7100000000000000000000000000000000000000000000000000000000600052604160045260246000fd5b600080fd5b600080fd5b600080fd5b600080fd5b600080fd5b6000601f19601f8301169050919050565b60008160601b9050919050565b7f53687566666c6564206d617820616d6f756e7420616c72656164790000000000600082015250565b7f55524920717565727920666f72206e6f6e6578697374656e7420746f6b656e00600082015250565b7f4552433732313a207472616e7366657220746f206e6f6e20455243373231526560008201527f63656976657220696d706c656d656e7465720000000000000000000000000000602082015250565b7f222c20226465736372697074696f6e223a20225061636b206f662038204c6f6f60008201527f746c616e6720776f726473222c202261747472696275746573223a205b7b227460208201527f726169745f74797065223a202253687566666c65732055736564222c2022766160408201527f6c7565223a000000000000000000000000000000000000000000000000000000606082015250565b7f4f776e61626c653a206e6577206f776e657220697320746865207a65726f206160008201527f6464726573730000000000000000000000000000000000000000000000000000602082015250565b7f7d2c207b2274726169745f74797065223a2022576f7264204c656e677468222c60008201527f202276616c7565223a0000000000000000000000000000000000000000000000602082015250565b7f4552433732313a20746f6b656e20616c7265616479206d696e74656400000000600082015250565b7f496e76616c696420746f6b656e49642e00000000000000000000000000000000600082015250565b7f206c657474657273000000000000000000000000000000000000000000000000600082015250565b7f4552433732313a207472616e7366657220746f20746865207a65726f2061646460008201527f7265737300000000000000000000000000000000000000000000000000000000602082015250565b7f4552433732313a20617070726f766520746f2063616c6c657200000000000000600082015250565b7f7d2c207b2274726169745f74797065223a2022576f7264222c202276616c756560008201527f223a000000000000000000000000000000000000000000000000000000000000602082015250565b7f4e6f20776f7264732073656c656374656420746f2062652073687566666c6564600082015250565b7f4552433732313a206f70657261746f7220717565727920666f72206e6f6e657860008201527f697374656e7420746f6b656e0000000000000000000000000000000000000000602082015250565b7f4552433732313a20617070726f76652063616c6c6572206973206e6f74206f7760008201527f6e6572206e6f7220617070726f76656420666f7220616c6c0000000000000000602082015250565b7f2200000000000000000000000000000000000000000000000000000000000000600082015250565b7f2c207b2274726169745f74797065223a2022576f7264222c202276616c75652260008201527f3a00000000000000000000000000000000000000000000000000000000000000602082015250565b7f4552433732313a2062616c616e636520717565727920666f7220746865207a6560008201527f726f206164647265737300000000000000000000000000000000000000000000602082015250565b7f4552433732313a206f776e657220717565727920666f72206e6f6e657869737460008201527f656e7420746f6b656e0000000000000000000000000000000000000000000000602082015250565b7f227d000000000000000000000000000000000000000000000000000000000000600082015250565b7f4552433732313a206d696e7420746f20746865207a65726f2061646472657373600082015250565b7f416c6c204e4654732068617665206265656e206d696e74656400000000000000600082015250565b7f416c726561647920636c61696d65640000000000000000000000000000000000600082015250565b7f7d00000000000000000000000000000000000000000000000000000000000000600082015250565b7f4d696e74696e672069732079657420746f20626520656e61626c656400000000600082015250565b7f4552433732313a20617070726f76656420717565727920666f72206e6f6e657860008201527f697374656e7420746f6b656e0000000000000000000000000000000000000000602082015250565b7f4f776e61626c653a2063616c6c6572206973206e6f7420746865206f776e6572600082015250565b7f4552433732313a207472616e73666572206f6620746f6b656e2074686174206960008201527f73206e6f74206f776e0000000000000000000000000000000000000000000000602082015250565b7f5769746864726177616c20616d6f756e742067726561746572207468616e206260008201527f616c616e63650000000000000000000000000000000000000000000000000000602082015250565b7f4552433732313a20617070726f76616c20746f2063757272656e74206f776e6560008201527f7200000000000000000000000000000000000000000000000000000000000000602082015250565b7f7b226e616d65223a20225061636b202300000000000000000000000000000000600082015250565b7f646174613a6170706c69636174696f6e2f6a736f6e3b6261736536342c000000600082015250565b7f467265657a6520626c6f636b20616c7265616479206368616e67656400000000600082015250565b7f4552433732313a207472616e736665722063616c6c6572206973206e6f74206f60008201527f776e6572206e6f7220617070726f766564000000000000000000000000000000602082015250565b7f53687566666c696e6720686173206265656e2066726f7a656e21000000000000600082015250565b7f496e73756666696369656e742066756e64732070726f76696465640000000000600082015250565b7f4d757374206265204e4654206f776e6572000000000000000000000000000000600082015250565b7f4e6f74206f6e207072652d617070726f76656420636c61696d206c6973740000600082015250565b7f7d5d2c2022696d616765223a2022646174613a696d6167652f7376672b786d6c60008201527f3b6261736536342c200000000000000000000000000000000000000000000000602082015250565b615c0f81614fec565b8114615c1a57600080fd5b50565b615c2681614ffe565b8114615c3157600080fd5b50565b615c3d81615010565b8114615c4857600080fd5b50565b615c548161501c565b8114615c5f57600080fd5b50565b615c6b81615026565b8114615c7657600080fd5b50565b615c8281615072565b8114615c8d57600080fd5b5056fe3c73766720786d6c6e733d22687474703a2f2f7777772e77332e6f72672f323030302f73766722207072657365727665417370656374526174696f3d22784d696e594d696e206d656574222076696577426f783d223020302033353020333530223e3c7374796c653e2e62617365207b2066696c6c3a2077686974653b20666f6e742d66616d696c793a2073657269663b20666f6e742d73697a653a20323070783b207d3c2f7374796c653e3c726563742077696474683d223130302522206865696768743d2231303025222066696c6c3d22626c61636b22202f3e3c7465787420783d2231352220793d2233302220636c6173733d2262617365223e3c2f746578743e3c7465787420783d2231352220793d223230352220636c6173733d2262617365223e3c2f746578743e3c7465787420783d2231352220793d223234302220636c6173733d2262617365223e3c2f746578743e3c7465787420783d2231352220793d223133352220636c6173733d2262617365223e3c2f746578743e3c7465787420783d2231352220793d223237352220636c6173733d2262617365223e3c2f746578743e3c7465787420783d2231352220793d2236352220636c6173733d2262617365223e4142434445464748494a4b4c4d4e4f505152535455565758595a6162636465666768696a6b6c6d6e6f707172737475767778797a303132333435363738392b2f3c2f746578743e3c7465787420783d2231352220793d223130302220636c6173733d2262617365223e3c2f746578743e3c7465787420783d2231352220793d223137302220636c6173733d2262617365223ea26469706673582212206f1ae9aeb6b931dd6e6a3926b7c099adfd61dca0dcb8080d4109e37e9bcb405364736f6c6343000807003368747470733a2f2f6c6f6f746c616e672e636f6d2f6d657461646174612e6a736f6e"}}