{"compiler":"v0.8.7+commit.e28d00a7","opcodeHash":"0x260aa226def99cda9d1c7a8d7ecd877492946ce70abe93ce8415731b5eaede2c","metalessHash":"0x4fae77e86d042aa5a630a00f57b6b5b667eb7d42b60363afae3c0072982b5134","runtimeHash":"0xf1282dec65311f0f3511f784cba709cbf1371db220254f89af16489a9267601e","encodedMetadata":[{"ipfs":"/ipfs/QmaXDtzphs62AseNBjhRyaizwG7HCy5zF9oVeJtyFmZqHH","solc":"0.8.7"}],"abi":[{"inputs":[],"stateMutability":"nonpayable","type":"constructor"},{"anonymous":false,"inputs":[{"indexed":true,"internalType":"address","name":"owner","type":"address"},{"indexed":true,"internalType":"address","name":"approved","type":"address"},{"indexed":true,"internalType":"uint256","name":"tokenId","type":"uint256"}],"name":"Approval","type":"event"},{"anonymous":false,"inputs":[{"indexed":true,"internalType":"address","name":"owner","type":"address"},{"indexed":true,"internalType":"address","name":"operator","type":"address"},{"indexed":false,"internalType":"bool","name":"approved","type":"bool"}],"name":"ApprovalForAll","type":"event"},{"anonymous":false,"inputs":[{"indexed":true,"internalType":"address","name":"previousOwner","type":"address"},{"indexed":true,"internalType":"address","name":"newOwner","type":"address"}],"name":"OwnershipTransferred","type":"event"},{"anonymous":false,"inputs":[{"indexed":false,"internalType":"address","name":"account","type":"address"}],"name":"Paused","type":"event"},{"anonymous":false,"inputs":[{"indexed":true,"internalType":"address","name":"from","type":"address"},{"indexed":true,"internalType":"address","name":"to","type":"address"},{"indexed":true,"internalType":"uint256","name":"tokenId","type":"uint256"}],"name":"Transfer","type":"event"},{"anonymous":false,"inputs":[{"indexed":false,"internalType":"address","name":"account","type":"address"}],"name":"Unpaused","type":"event"},{"inputs":[{"internalType":"address","name":"to","type":"address"},{"internalType":"uint256","name":"tokenId","type":"uint256"}],"name":"approve","outputs":[],"stateMutability":"nonpayable","type":"function"},{"inputs":[{"internalType":"address","name":"owner","type":"address"}],"name":"balanceOf","outputs":[{"internalType":"uint256","name":"","type":"uint256"}],"stateMutability":"view","type":"function"},{"inputs":[{"internalType":"uint256","name":"tokenId","type":"uint256"}],"name":"getApproved","outputs":[{"internalType":"address","name":"","type":"address"}],"stateMutability":"view","type":"function"},{"inputs":[{"internalType":"address","name":"owner","type":"address"},{"internalType":"address","name":"operator","type":"address"}],"name":"isApprovedForAll","outputs":[{"internalType":"bool","name":"","type":"bool"}],"stateMutability":"view","type":"function"},{"inputs":[],"name":"name","outputs":[{"internalType":"string","name":"","type":"string"}],"stateMutability":"view","type":"function"},{"inputs":[],"name":"owner","outputs":[{"internalType":"address","name":"","type":"address"}],"stateMutability":"view","type":"function"},{"inputs":[{"internalType":"uint256","name":"tokenId","type":"uint256"}],"name":"ownerOf","outputs":[{"internalType":"address","name":"","type":"address"}],"stateMutability":"view","type":"function"},{"inputs":[],"name":"pause","outputs":[],"stateMutability":"nonpayable","type":"function"},{"inputs":[],"name":"paused","outputs":[{"internalType":"bool","name":"","type":"bool"}],"stateMutability":"view","type":"function"},{"inputs":[],"name":"renounceOwnership","outputs":[],"stateMutability":"nonpayable","type":"function"},{"inputs":[{"internalType":"address","name":"to","type":"address"},{"internalType":"uint256","name":"tokenId","type":"uint256"}],"name":"safeMint","outputs":[],"stateMutability":"nonpayable","type":"function"},{"inputs":[{"internalType":"address","name":"from","type":"address"},{"internalType":"address","name":"to","type":"address"},{"internalType":"uint256","name":"tokenId","type":"uint256"}],"name":"safeTransferFrom","outputs":[],"stateMutability":"nonpayable","type":"function"},{"inputs":[{"internalType":"address","name":"from","type":"address"},{"internalType":"address","name":"to","type":"address"},{"internalType":"uint256","name":"tokenId","type":"uint256"},{"internalType":"bytes","name":"_data","type":"bytes"}],"name":"safeTransferFrom","outputs":[],"stateMutability":"nonpayable","type":"function"},{"inputs":[{"internalType":"address","name":"operator","type":"address"},{"internalType":"bool","name":"approved","type":"bool"}],"name":"setApprovalForAll","outputs":[],"stateMutability":"nonpayable","type":"function"},{"inputs":[{"internalType":"bytes4","name":"interfaceId","type":"bytes4"}],"name":"supportsInterface","outputs":[{"internalType":"bool","name":"","type":"bool"}],"stateMutability":"view","type":"function"},{"inputs":[],"name":"symbol","outputs":[{"internalType":"string","name":"","type":"string"}],"stateMutability":"view","type":"function"},{"inputs":[{"internalType":"uint256","name":"tokenId","type":"uint256"}],"name":"tokenURI","outputs":[{"internalType":"string","name":"","type":"string"}],"stateMutability":"view","type":"function"},{"inputs":[{"internalType":"address","name":"from","type":"address"},{"internalType":"address","name":"to","type":"address"},{"internalType":"uint256","name":"tokenId","type":"uint256"}],"name":"transferFrom","outputs":[],"stateMutability":"nonpayable","type":"function"},{"inputs":[{"internalType":"address","name":"newOwner","type":"address"}],"name":"transferOwnership","outputs":[],"stateMutability":"nonpayable","type":"function"},{"inputs":[],"name":"unpause","outputs":[],"stateMutability":"nonpayable","type":"function"}],"bytecode":{"object":"60806040523480156200001157600080fd5b506040518060400160405280601a81526020017f5454584e46545f4173756b615f4b69726172615f4f726967696e0000000000008152506040518060400160405280600681526020017f545458414b4f0000000000000000000000000000000000000000000000000000815250816000908051906020019062000096929190620001c1565b508060019080519060200190620000af929190620001c1565b5050506000600660006101000a81548160ff021916908315150217905550620000ed620000e1620000f360201b60201c565b620000fb60201b60201c565b620002d6565b600033905090565b6000600660019054906101000a900473ffffffffffffffffffffffffffffffffffffffff16905081600660016101000a81548173ffffffffffffffffffffffffffffffffffffffff021916908373ffffffffffffffffffffffffffffffffffffffff1602179055508173ffffffffffffffffffffffffffffffffffffffff168173ffffffffffffffffffffffffffffffffffffffff167f8be0079c531659141344cd1fd0a4f28419497f9722a3daafe3b4186f6b6457e060405160405180910390a35050565b828054620001cf9062000271565b90600052602060002090601f016020900481019282620001f357600085556200023f565b82601f106200020e57805160ff19168380011785556200023f565b828001600101855582156200023f579182015b828111156200023e57825182559160200191906001019062000221565b5b5090506200024e919062000252565b5090565b5b808211156200026d57600081600090555060010162000253565b5090565b600060028204905060018216806200028a57607f821691505b60208210811415620002a157620002a0620002a7565b5b50919050565b7f4e487b7100000000000000000000000000000000000000000000000000000000600052602260045260246000fd5b612fab80620002e66000396000f3fe608060405234801561001057600080fd5b506004361061012c5760003560e01c8063715018a6116100ad578063a22cb46511610071578063a22cb465146102f7578063b88d4fde14610313578063c87b56dd1461032f578063e985e9c51461035f578063f2fde38b1461038f5761012c565b8063715018a61461028b5780638456cb59146102955780638da5cb5b1461029f57806395d89b41146102bd578063a1448194146102db5761012c565b80633f4ba83a116100f45780633f4ba83a146101e757806342842e0e146101f15780635c975abb1461020d5780636352211e1461022b57806370a082311461025b5761012c565b806301ffc9a71461013157806306fdde0314610161578063081812fc1461017f578063095ea7b3146101af57806323b872dd146101cb575b600080fd5b61014b60048036038101906101469190611f52565b6103ab565b60405161015891906123aa565b60405180910390f35b61016961048d565b60405161017691906123c5565b60405180910390f35b61019960048036038101906101949190611fac565b61051f565b6040516101a69190612343565b60405180910390f35b6101c960048036038101906101c49190611f12565b6105a4565b005b6101e560048036038101906101e09190611dfc565b6106bc565b005b6101ef61071c565b005b61020b60048036038101906102069190611dfc565b6107a2565b005b6102156107c2565b60405161022291906123aa565b60405180910390f35b61024560048036038101906102409190611fac565b6107d9565b6040516102529190612343565b60405180910390f35b61027560048036038101906102709190611d8f565b61088b565b6040516102829190612627565b60405180910390f35b610293610943565b005b61029d6109cb565b005b6102a7610a51565b6040516102b49190612343565b60405180910390f35b6102c5610a7b565b6040516102d291906123c5565b60405180910390f35b6102f560048036038101906102f09190611f12565b610b0d565b005b610311600480360381019061030c9190611ed2565b610b97565b005b61032d60048036038101906103289190611e4f565b610bad565b005b61034960048036038101906103449190611fac565b610c0f565b60405161035691906123c5565b60405180910390f35b61037960048036038101906103749190611dbc565b610cb6565b60405161038691906123aa565b60405180910390f35b6103a960048036038101906103a49190611d8f565b610d4a565b005b60007f80ac58cd000000000000000000000000000000000000000000000000000000007bffffffffffffffffffffffffffffffffffffffffffffffffffffffff1916827bffffffffffffffffffffffffffffffffffffffffffffffffffffffff1916148061047657507f5b5e139f000000000000000000000000000000000000000000000000000000007bffffffffffffffffffffffffffffffffffffffffffffffffffffffff1916827bffffffffffffffffffffffffffffffffffffffffffffffffffffffff1916145b80610486575061048582610e42565b5b9050919050565b60606000805461049c9061284c565b80601f01602080910402602001604051908101604052809291908181526020018280546104c89061284c565b80156105155780601f106104ea57610100808354040283529160200191610515565b820191906000526020600020905b8154815290600101906020018083116104f857829003601f168201915b5050505050905090565b600061052a82610eac565b610569576040517f08c379a000000000000000000000000000000000000000000000000000000000815260040161056090612567565b60405180910390fd5b6004600083815260200190815260200160002060009054906101000a900473ffffffffffffffffffffffffffffffffffffffff169050919050565b60006105af826107d9565b90508073ffffffffffffffffffffffffffffffffffffffff168373ffffffffffffffffffffffffffffffffffffffff161415610620576040517f08c379a0000000000000000000000000000000000000000000000000000000008152600401610617906125e7565b60405180910390fd5b8073ffffffffffffffffffffffffffffffffffffffff1661063f610f18565b73ffffffffffffffffffffffffffffffffffffffff16148061066e575061066d81610668610f18565b610cb6565b5b6106ad576040517f08c379a00000000000000000000000000000000000000000000000000000000081526004016106a4906124e7565b60405180910390fd5b6106b78383610f20565b505050565b6106cd6106c7610f18565b82610fd9565b61070c576040517f08c379a000000000000000000000000000000000000000000000000000000000815260040161070390612607565b60405180910390fd5b6107178383836110b7565b505050565b610724610f18565b73ffffffffffffffffffffffffffffffffffffffff16610742610a51565b73ffffffffffffffffffffffffffffffffffffffff1614610798576040517f08c379a000000000000000000000000000000000000000000000000000000000815260040161078f90612587565b60405180910390fd5b6107a0611313565b565b6107bd83838360405180602001604052806000815250610bad565b505050565b6000600660009054906101000a900460ff16905090565b6000806002600084815260200190815260200160002060009054906101000a900473ffffffffffffffffffffffffffffffffffffffff169050600073ffffffffffffffffffffffffffffffffffffffff168173ffffffffffffffffffffffffffffffffffffffff161415610882576040517f08c379a000000000000000000000000000000000000000000000000000000000815260040161087990612527565b60405180910390fd5b80915050919050565b60008073ffffffffffffffffffffffffffffffffffffffff168273ffffffffffffffffffffffffffffffffffffffff1614156108fc576040517f08c379a00000000000000000000000000000000000000000000000000000000081526004016108f390612507565b60405180910390fd5b600360008373ffffffffffffffffffffffffffffffffffffffff1673ffffffffffffffffffffffffffffffffffffffff168152602001908152602001600020549050919050565b61094b610f18565b73ffffffffffffffffffffffffffffffffffffffff16610969610a51565b73ffffffffffffffffffffffffffffffffffffffff16146109bf576040517f08c379a00000000000000000000000000000000000000000000000000000000081526004016109b690612587565b60405180910390fd5b6109c960006113b5565b565b6109d3610f18565b73ffffffffffffffffffffffffffffffffffffffff166109f1610a51565b73ffffffffffffffffffffffffffffffffffffffff1614610a47576040517f08c379a0000000000000000000000000000000000000000000000000000000008152600401610a3e90612587565b60405180910390fd5b610a4f61147b565b565b6000600660019054906101000a900473ffffffffffffffffffffffffffffffffffffffff16905090565b606060018054610a8a9061284c565b80601f0160208091040260200160405190810160405280929190818152602001828054610ab69061284c565b8015610b035780601f10610ad857610100808354040283529160200191610b03565b820191906000526020600020905b815481529060010190602001808311610ae657829003601f168201915b5050505050905090565b610b15610f18565b73ffffffffffffffffffffffffffffffffffffffff16610b33610a51565b73ffffffffffffffffffffffffffffffffffffffff1614610b89576040517f08c379a0000000000000000000000000000000000000000000000000000000008152600401610b8090612587565b60405180910390fd5b610b93828261151e565b5050565b610ba9610ba2610f18565b838361153c565b5050565b610bbe610bb8610f18565b83610fd9565b610bfd576040517f08c379a0000000000000000000000000000000000000000000000000000000008152600401610bf490612607565b60405180910390fd5b610c09848484846116a9565b50505050565b6060610c1a82610eac565b610c59576040517f08c379a0000000000000000000000000000000000000000000000000000000008152600401610c50906125c7565b60405180910390fd5b6000610c63611705565b90506000815111610c835760405180602001604052806000815250610cae565b80610c8d84611725565b604051602001610c9e92919061231f565b6040516020818303038152906040525b915050919050565b6000600560008473ffffffffffffffffffffffffffffffffffffffff1673ffffffffffffffffffffffffffffffffffffffff16815260200190815260200160002060008373ffffffffffffffffffffffffffffffffffffffff1673ffffffffffffffffffffffffffffffffffffffff16815260200190815260200160002060009054906101000a900460ff16905092915050565b610d52610f18565b73ffffffffffffffffffffffffffffffffffffffff16610d70610a51565b73ffffffffffffffffffffffffffffffffffffffff1614610dc6576040517f08c379a0000000000000000000000000000000000000000000000000000000008152600401610dbd90612587565b60405180910390fd5b600073ffffffffffffffffffffffffffffffffffffffff168173ffffffffffffffffffffffffffffffffffffffff161415610e36576040517f08c379a0000000000000000000000000000000000000000000000000000000008152600401610e2d90612427565b60405180910390fd5b610e3f816113b5565b50565b60007f01ffc9a7000000000000000000000000000000000000000000000000000000007bffffffffffffffffffffffffffffffffffffffffffffffffffffffff1916827bffffffffffffffffffffffffffffffffffffffffffffffffffffffff1916149050919050565b60008073ffffffffffffffffffffffffffffffffffffffff166002600084815260200190815260200160002060009054906101000a900473ffffffffffffffffffffffffffffffffffffffff1673ffffffffffffffffffffffffffffffffffffffff1614159050919050565b600033905090565b816004600083815260200190815260200160002060006101000a81548173ffffffffffffffffffffffffffffffffffffffff021916908373ffffffffffffffffffffffffffffffffffffffff160217905550808273ffffffffffffffffffffffffffffffffffffffff16610f93836107d9565b73ffffffffffffffffffffffffffffffffffffffff167f8c5be1e5ebec7d5bd14f71427d1e84f3dd0314c0f7b2291e5b200ac8c7c3b92560405160405180910390a45050565b6000610fe482610eac565b611023576040517f08c379a000000000000000000000000000000000000000000000000000000000815260040161101a906124a7565b60405180910390fd5b600061102e836107d9565b90508073ffffffffffffffffffffffffffffffffffffffff168473ffffffffffffffffffffffffffffffffffffffff16148061109d57508373ffffffffffffffffffffffffffffffffffffffff166110858461051f565b73ffffffffffffffffffffffffffffffffffffffff16145b806110ae57506110ad8185610cb6565b5b91505092915050565b8273ffffffffffffffffffffffffffffffffffffffff166110d7826107d9565b73ffffffffffffffffffffffffffffffffffffffff161461112d576040517f08c379a0000000000000000000000000000000000000000000000000000000008152600401611124906125a7565b60405180910390fd5b600073ffffffffffffffffffffffffffffffffffffffff168273ffffffffffffffffffffffffffffffffffffffff16141561119d576040517f08c379a000000000000000000000000000000000000000000000000000000000815260040161119490612467565b60405180910390fd5b6111a8838383611886565b6111b3600082610f20565b6001600360008573ffffffffffffffffffffffffffffffffffffffff1673ffffffffffffffffffffffffffffffffffffffff16815260200190815260200160002060008282546112039190612762565b925050819055506001600360008473ffffffffffffffffffffffffffffffffffffffff1673ffffffffffffffffffffffffffffffffffffffff168152602001908152602001600020600082825461125a91906126db565b92505081905550816002600083815260200190815260200160002060006101000a81548173ffffffffffffffffffffffffffffffffffffffff021916908373ffffffffffffffffffffffffffffffffffffffff160217905550808273ffffffffffffffffffffffffffffffffffffffff168473ffffffffffffffffffffffffffffffffffffffff167fddf252ad1be2c89b69c2b068fc378daa952ba7f163c4a11628f55a4df523b3ef60405160405180910390a4505050565b61131b6107c2565b61135a576040517f08c379a0000000000000000000000000000000000000000000000000000000008152600401611351906123e7565b60405180910390fd5b6000600660006101000a81548160ff0219169083151502179055507f5db9ee0a495bf2e6ff9c91a7834c1ba4fdd244a5e8aa4e537bd38aeae4b073aa61139e610f18565b6040516113ab9190612343565b60405180910390a1565b6000600660019054906101000a900473ffffffffffffffffffffffffffffffffffffffff16905081600660016101000a81548173ffffffffffffffffffffffffffffffffffffffff021916908373ffffffffffffffffffffffffffffffffffffffff1602179055508173ffffffffffffffffffffffffffffffffffffffff168173ffffffffffffffffffffffffffffffffffffffff167f8be0079c531659141344cd1fd0a4f28419497f9722a3daafe3b4186f6b6457e060405160405180910390a35050565b6114836107c2565b156114c3576040517f08c379a00000000000000000000000000000000000000000000000000000000081526004016114ba906124c7565b60405180910390fd5b6001600660006101000a81548160ff0219169083151502179055507f62e78cea01bee320cd4e420270b5ea74000d11b0c9f74754ebdbfc544b05a258611507610f18565b6040516115149190612343565b60405180910390a1565b6115388282604051806020016040528060008152506118de565b5050565b8173ffffffffffffffffffffffffffffffffffffffff168373ffffffffffffffffffffffffffffffffffffffff1614156115ab576040517f08c379a00000000000000000000000000000000000000000000000000000000081526004016115a290612487565b60405180910390fd5b80600560008573ffffffffffffffffffffffffffffffffffffffff1673ffffffffffffffffffffffffffffffffffffffff16815260200190815260200160002060008473ffffffffffffffffffffffffffffffffffffffff1673ffffffffffffffffffffffffffffffffffffffff16815260200190815260200160002060006101000a81548160ff0219169083151502179055508173ffffffffffffffffffffffffffffffffffffffff168373ffffffffffffffffffffffffffffffffffffffff167f17307eab39ab6107e8899845ad3d59bd9653f200f220920489ca2b5937696c318360405161169c91906123aa565b60405180910390a3505050565b6116b48484846110b7565b6116c084848484611939565b6116ff576040517f08c379a00000000000000000000000000000000000000000000000000000000081526004016116f690612407565b60405180910390fd5b50505050565b6060604051806060016040528060368152602001612f4060369139905090565b6060600082141561176d576040518060400160405280600181526020017f30000000000000000000000000000000000000000000000000000000000000008152509050611881565b600082905060005b6000821461179f578080611788906128af565b915050600a826117989190612731565b9150611775565b60008167ffffffffffffffff8111156117bb576117ba6129e5565b5b6040519080825280601f01601f1916602001820160405280156117ed5781602001600182028036833780820191505090505b5090505b6000851461187a576001826118069190612762565b9150600a8561181591906128f8565b603061182191906126db565b60f81b818381518110611837576118366129b6565b5b60200101907effffffffffffffffffffffffffffffffffffffffffffffffffffffffffffff1916908160001a905350600a856118739190612731565b94506117f1565b8093505050505b919050565b61188e6107c2565b156118ce576040517f08c379a00000000000000000000000000000000000000000000000000000000081526004016118c5906124c7565b60405180910390fd5b6118d9838383611ad0565b505050565b6118e88383611ad5565b6118f56000848484611939565b611934576040517f08c379a000000000000000000000000000000000000000000000000000000000815260040161192b90612407565b60405180910390fd5b505050565b600061195a8473ffffffffffffffffffffffffffffffffffffffff16611ca3565b15611ac3578373ffffffffffffffffffffffffffffffffffffffff1663150b7a02611983610f18565b8786866040518563ffffffff1660e01b81526004016119a5949392919061235e565b602060405180830381600087803b1580156119bf57600080fd5b505af19250505080156119f057506040513d601f19601f820116820180604052508101906119ed9190611f7f565b60015b611a73573d8060008114611a20576040519150601f19603f3d011682016040523d82523d6000602084013e611a25565b606091505b50600081511415611a6b576040517f08c379a0000000000000000000000000000000000000000000000000000000008152600401611a6290612407565b60405180910390fd5b805181602001fd5b63150b7a0260e01b7bffffffffffffffffffffffffffffffffffffffffffffffffffffffff1916817bffffffffffffffffffffffffffffffffffffffffffffffffffffffff191614915050611ac8565b600190505b949350505050565b505050565b600073ffffffffffffffffffffffffffffffffffffffff168273ffffffffffffffffffffffffffffffffffffffff161415611b45576040517f08c379a0000000000000000000000000000000000000000000000000000000008152600401611b3c90612547565b60405180910390fd5b611b4e81610eac565b15611b8e576040517f08c379a0000000000000000000000000000000000000000000000000000000008152600401611b8590612447565b60405180910390fd5b611b9a60008383611886565b6001600360008473ffffffffffffffffffffffffffffffffffffffff1673ffffffffffffffffffffffffffffffffffffffff1681526020019081526020016000206000828254611bea91906126db565b92505081905550816002600083815260200190815260200160002060006101000a81548173ffffffffffffffffffffffffffffffffffffffff021916908373ffffffffffffffffffffffffffffffffffffffff160217905550808273ffffffffffffffffffffffffffffffffffffffff16600073ffffffffffffffffffffffffffffffffffffffff167fddf252ad1be2c89b69c2b068fc378daa952ba7f163c4a11628f55a4df523b3ef60405160405180910390a45050565b600080823b905060008111915050919050565b6000611cc9611cc484612667565b612642565b905082815260208101848484011115611ce557611ce4612a19565b5b611cf084828561280a565b509392505050565b600081359050611d0781612ee3565b92915050565b600081359050611d1c81612efa565b92915050565b600081359050611d3181612f11565b92915050565b600081519050611d4681612f11565b92915050565b600082601f830112611d6157611d60612a14565b5b8135611d71848260208601611cb6565b91505092915050565b600081359050611d8981612f28565b92915050565b600060208284031215611da557611da4612a23565b5b6000611db384828501611cf8565b91505092915050565b60008060408385031215611dd357611dd2612a23565b5b6000611de185828601611cf8565b9250506020611df285828601611cf8565b9150509250929050565b600080600060608486031215611e1557611e14612a23565b5b6000611e2386828701611cf8565b9350506020611e3486828701611cf8565b9250506040611e4586828701611d7a565b9150509250925092565b60008060008060808587031215611e6957611e68612a23565b5b6000611e7787828801611cf8565b9450506020611e8887828801611cf8565b9350506040611e9987828801611d7a565b925050606085013567ffffffffffffffff811115611eba57611eb9612a1e565b5b611ec687828801611d4c565b91505092959194509250565b60008060408385031215611ee957611ee8612a23565b5b6000611ef785828601611cf8565b9250506020611f0885828601611d0d565b9150509250929050565b60008060408385031215611f2957611f28612a23565b5b6000611f3785828601611cf8565b9250506020611f4885828601611d7a565b9150509250929050565b600060208284031215611f6857611f67612a23565b5b6000611f7684828501611d22565b91505092915050565b600060208284031215611f9557611f94612a23565b5b6000611fa384828501611d37565b91505092915050565b600060208284031215611fc257611fc1612a23565b5b6000611fd084828501611d7a565b91505092915050565b611fe281612796565b82525050565b611ff1816127a8565b82525050565b600061200282612698565b61200c81856126ae565b935061201c818560208601612819565b61202581612a28565b840191505092915050565b600061203b826126a3565b61204581856126bf565b9350612055818560208601612819565b61205e81612a28565b840191505092915050565b6000612074826126a3565b61207e81856126d0565b935061208e818560208601612819565b80840191505092915050565b60006120a76014836126bf565b91506120b282612a39565b602082019050919050565b60006120ca6032836126bf565b91506120d582612a62565b604082019050919050565b60006120ed6026836126bf565b91506120f882612ab1565b604082019050919050565b6000612110601c836126bf565b915061211b82612b00565b602082019050919050565b60006121336024836126bf565b915061213e82612b29565b604082019050919050565b60006121566019836126bf565b915061216182612b78565b602082019050919050565b6000612179602c836126bf565b915061218482612ba1565b604082019050919050565b600061219c6010836126bf565b91506121a782612bf0565b602082019050919050565b60006121bf6038836126bf565b91506121ca82612c19565b604082019050919050565b60006121e2602a836126bf565b91506121ed82612c68565b604082019050919050565b60006122056029836126bf565b915061221082612cb7565b604082019050919050565b60006122286020836126bf565b915061223382612d06565b602082019050919050565b600061224b602c836126bf565b915061225682612d2f565b604082019050919050565b600061226e6020836126bf565b915061227982612d7e565b602082019050919050565b60006122916029836126bf565b915061229c82612da7565b604082019050919050565b60006122b4602f836126bf565b91506122bf82612df6565b604082019050919050565b60006122d76021836126bf565b91506122e282612e45565b604082019050919050565b60006122fa6031836126bf565b915061230582612e94565b604082019050919050565b61231981612800565b82525050565b600061232b8285612069565b91506123378284612069565b91508190509392505050565b60006020820190506123586000830184611fd9565b92915050565b60006080820190506123736000830187611fd9565b6123806020830186611fd9565b61238d6040830185612310565b818103606083015261239f8184611ff7565b905095945050505050565b60006020820190506123bf6000830184611fe8565b92915050565b600060208201905081810360008301526123df8184612030565b905092915050565b600060208201905081810360008301526124008161209a565b9050919050565b60006020820190508181036000830152612420816120bd565b9050919050565b60006020820190508181036000830152612440816120e0565b9050919050565b6000602082019050818103600083015261246081612103565b9050919050565b6000602082019050818103600083015261248081612126565b9050919050565b600060208201905081810360008301526124a081612149565b9050919050565b600060208201905081810360008301526124c08161216c565b9050919050565b600060208201905081810360008301526124e08161218f565b9050919050565b60006020820190508181036000830152612500816121b2565b9050919050565b60006020820190508181036000830152612520816121d5565b9050919050565b60006020820190508181036000830152612540816121f8565b9050919050565b600060208201905081810360008301526125608161221b565b9050919050565b600060208201905081810360008301526125808161223e565b9050919050565b600060208201905081810360008301526125a081612261565b9050919050565b600060208201905081810360008301526125c081612284565b9050919050565b600060208201905081810360008301526125e0816122a7565b9050919050565b60006020820190508181036000830152612600816122ca565b9050919050565b60006020820190508181036000830152612620816122ed565b9050919050565b600060208201905061263c6000830184612310565b92915050565b600061264c61265d565b9050612658828261287e565b919050565b6000604051905090565b600067ffffffffffffffff821115612682576126816129e5565b5b61268b82612a28565b9050602081019050919050565b600081519050919050565b600081519050919050565b600082825260208201905092915050565b600082825260208201905092915050565b600081905092915050565b60006126e682612800565b91506126f183612800565b9250827fffffffffffffffffffffffffffffffffffffffffffffffffffffffffffffffff0382111561272657612725612929565b5b828201905092915050565b600061273c82612800565b915061274783612800565b92508261275757612756612958565b5b828204905092915050565b600061276d82612800565b915061277883612800565b92508282101561278b5761278a612929565b5b828203905092915050565b60006127a1826127e0565b9050919050565b60008115159050919050565b60007fffffffff0000000000000000000000000000000000000000000000000000000082169050919050565b600073ffffffffffffffffffffffffffffffffffffffff82169050919050565b6000819050919050565b82818337600083830152505050565b60005b8381101561283757808201518184015260208101905061281c565b83811115612846576000848401525b50505050565b6000600282049050600182168061286457607f821691505b6020821081141561287857612877612987565b5b50919050565b61288782612a28565b810181811067ffffffffffffffff821117156128a6576128a56129e5565b5b80604052505050565b60006128ba82612800565b91507fffffffffffffffffffffffffffffffffffffffffffffffffffffffffffffffff8214156128ed576128ec612929565b5b600182019050919050565b600061290382612800565b915061290e83612800565b92508261291e5761291d612958565b5b828206905092915050565b7f4e487b7100000000000000000000000000000000000000000000000000000000600052601160045260246000fd5b7f4e487b7100000000000000000000000000000000000000000000000000000000600052601260045260246000fd5b7f4e487b7100000000000000000000000000000000000000000000000000000000600052602260045260246000fd5b7f4e487b7100000000000000000000000000000000000000000000000000000000600052603260045260246000fd5b7f4e487b7100000000000000000000000000000000000000000000000000000000600052604160045260246000fd5b600080fd5b600080fd5b600080fd5b600080fd5b6000601f19601f8301169050919050565b7f5061757361626c653a206e6f7420706175736564000000000000000000000000600082015250565b7f4552433732313a207472616e7366657220746f206e6f6e20455243373231526560008201527f63656976657220696d706c656d656e7465720000000000000000000000000000602082015250565b7f4f776e61626c653a206e6577206f776e657220697320746865207a65726f206160008201527f6464726573730000000000000000000000000000000000000000000000000000602082015250565b7f4552433732313a20746f6b656e20616c7265616479206d696e74656400000000600082015250565b7f4552433732313a207472616e7366657220746f20746865207a65726f2061646460008201527f7265737300000000000000000000000000000000000000000000000000000000602082015250565b7f4552433732313a20617070726f766520746f2063616c6c657200000000000000600082015250565b7f4552433732313a206f70657261746f7220717565727920666f72206e6f6e657860008201527f697374656e7420746f6b656e0000000000000000000000000000000000000000602082015250565b7f5061757361626c653a2070617573656400000000000000000000000000000000600082015250565b7f4552433732313a20617070726f76652063616c6c6572206973206e6f74206f7760008201527f6e6572206e6f7220617070726f76656420666f7220616c6c0000000000000000602082015250565b7f4552433732313a2062616c616e636520717565727920666f7220746865207a6560008201527f726f206164647265737300000000000000000000000000000000000000000000602082015250565b7f4552433732313a206f776e657220717565727920666f72206e6f6e657869737460008201527f656e7420746f6b656e0000000000000000000000000000000000000000000000602082015250565b7f4552433732313a206d696e7420746f20746865207a65726f2061646472657373600082015250565b7f4552433732313a20617070726f76656420717565727920666f72206e6f6e657860008201527f697374656e7420746f6b656e0000000000000000000000000000000000000000602082015250565b7f4f776e61626c653a2063616c6c6572206973206e6f7420746865206f776e6572600082015250565b7f4552433732313a207472616e73666572206f6620746f6b656e2074686174206960008201527f73206e6f74206f776e0000000000000000000000000000000000000000000000602082015250565b7f4552433732314d657461646174613a2055524920717565727920666f72206e6f60008201527f6e6578697374656e7420746f6b656e0000000000000000000000000000000000602082015250565b7f4552433732313a20617070726f76616c20746f2063757272656e74206f776e6560008201527f7200000000000000000000000000000000000000000000000000000000000000602082015250565b7f4552433732313a207472616e736665722063616c6c6572206973206e6f74206f60008201527f776e6572206e6f7220617070726f766564000000000000000000000000000000602082015250565b612eec81612796565b8114612ef757600080fd5b50565b612f03816127a8565b8114612f0e57600080fd5b50565b612f1a816127b4565b8114612f2557600080fd5b50565b612f3181612800565b8114612f3c57600080fd5b5056fe697066733a2f2f516d55585038664256645276366646375a4c38785365726d6b327747614455635377466250766373754e694374482fa26469706673582212209e7fdfd0f52eb818aaf37224b22d3f1504a5a33b946bad3a409b3071a38258e964736f6c63430008070033"}}