{
  "opcodeHash": "0x401b80937bb07a08aee0ee8a74056d11e2397dc33a8183566937278c914b24ea",
  "metalessHash": "0x681361e0b86d67708b6af27267b1cb0ebe5835454c3a72ab4091120d6266e79a",
  "runtimeHash": "0x2e59866d34c7b5ec2c0b274a06994ea192a777b2b905697b1282e4214dc101d0",
  "encodedMetadata": [
    {
      "ipfs": "/ipfs/QmYowKyKQz19raAjKbK4HZo2CnaiEwtAr37SnehSuGxYzs",
      "solc": "0.6.12"
    }
  ],
  "abi": [
    {
      "inputs": [],
      "stateMutability": "nonpayable",
      "type": "constructor"
    },
    {
      "anonymous": false,
      "inputs": [
        {
          "indexed": true,
          "internalType": "address",
          "name": "owner",
          "type": "address"
        },
        {
          "indexed": true,
          "internalType": "address",
          "name": "spender",
          "type": "address"
        },
        {
          "indexed": false,
          "internalType": "uint256",
          "name": "value",
          "type": "uint256"
        }
      ],
      "name": "Approval",
      "type": "event"
    },
    {
      "anonymous": false,
      "inputs": [
        {
          "indexed": true,
          "internalType": "address",
          "name": "previousOwner",
          "type": "address"
        },
        {
          "indexed": true,
          "internalType": "address",
          "name": "newOwner",
          "type": "address"
        }
      ],
      "name": "OwnershipTransferred",
      "type": "event"
    },
    {
      "anonymous": false,
      "inputs": [
        {
          "indexed": true,
          "internalType": "address",
          "name": "from",
          "type": "address"
        },
        {
          "indexed": true,
          "internalType": "address",
          "name": "to",
          "type": "address"
        },
        {
          "indexed": false,
          "internalType": "uint256",
          "name": "value",
          "type": "uint256"
        }
      ],
      "name": "Transfer",
      "type": "event"
    },
    {
      "inputs": [
        {
          "internalType": "address",
          "name": "owner",
          "type": "address"
        },
        {
          "internalType": "address",
          "name": "spender",
          "type": "address"
        }
      ],
      "name": "allowance",
      "outputs": [
        {
          "internalType": "uint256",
          "name": "",
          "type": "uint256"
        }
      ],
      "stateMutability": "view",
      "type": "function"
    },
    {
      "inputs": [
        {
          "internalType": "address",
          "name": "spender",
          "type": "address"
        },
        {
          "internalType": "uint256",
          "name": "amount",
          "type": "uint256"
        }
      ],
      "name": "approve",
      "outputs": [
        {
          "internalType": "bool",
          "name": "",
          "type": "bool"
        }
      ],
      "stateMutability": "nonpayable",
      "type": "function"
    },
    {
      "inputs": [
        {
          "internalType": "address",
          "name": "account",
          "type": "address"
        }
      ],
      "name": "balanceOf",
      "outputs": [
        {
          "internalType": "uint256",
          "name": "",
          "type": "uint256"
        }
      ],
      "stateMutability": "view",
      "type": "function"
    },
    {
      "inputs": [],
      "name": "burnFee",
      "outputs": [
        {
          "internalType": "uint256",
          "name": "",
          "type": "uint256"
        }
      ],
      "stateMutability": "view",
      "type": "function"
    },
    {
      "inputs": [],
      "name": "burnLp",
      "outputs": [],
      "stateMutability": "nonpayable",
      "type": "function"
    },
    {
      "inputs": [],
      "name": "decimals",
      "outputs": [
        {
          "internalType": "uint8",
          "name": "",
          "type": "uint8"
        }
      ],
      "stateMutability": "pure",
      "type": "function"
    },
    {
      "inputs": [
        {
          "internalType": "address",
          "name": "spender",
          "type": "address"
        },
        {
          "internalType": "uint256",
          "name": "subtractedValue",
          "type": "uint256"
        }
      ],
      "name": "decreaseAllowance",
      "outputs": [
        {
          "internalType": "bool",
          "name": "",
          "type": "bool"
        }
      ],
      "stateMutability": "nonpayable",
      "type": "function"
    },
    {
      "inputs": [],
      "name": "devFee",
      "outputs": [
        {
          "internalType": "uint256",
          "name": "",
          "type": "uint256"
        }
      ],
      "stateMutability": "view",
      "type": "function"
    },
    {
      "inputs": [
        {
          "internalType": "address",
          "name": "spender",
          "type": "address"
        },
        {
          "internalType": "uint256",
          "name": "addedValue",
          "type": "uint256"
        }
      ],
      "name": "increaseAllowance",
      "outputs": [
        {
          "internalType": "bool",
          "name": "",
          "type": "bool"
        }
      ],
      "stateMutability": "nonpayable",
      "type": "function"
    },
    {
      "inputs": [
        {
          "internalType": "address",
          "name": "",
          "type": "address"
        }
      ],
      "name": "isBlacklistedFromLottery",
      "outputs": [
        {
          "internalType": "bool",
          "name": "",
          "type": "bool"
        }
      ],
      "stateMutability": "view",
      "type": "function"
    },
    {
      "inputs": [
        {
          "internalType": "address",
          "name": "",
          "type": "address"
        }
      ],
      "name": "isExcludedFromFee",
      "outputs": [
        {
          "internalType": "bool",
          "name": "",
          "type": "bool"
        }
      ],
      "stateMutability": "view",
      "type": "function"
    },
    {
      "inputs": [
        {
          "internalType": "address",
          "name": "account",
          "type": "address"
        }
      ],
      "name": "isLotteryPlayer",
      "outputs": [
        {
          "internalType": "bool",
          "name": "",
          "type": "bool"
        }
      ],
      "stateMutability": "view",
      "type": "function"
    },
    {
      "inputs": [
        {
          "internalType": "address",
          "name": "account",
          "type": "address"
        }
      ],
      "name": "isReducedLotteryPrize",
      "outputs": [
        {
          "internalType": "bool",
          "name": "",
          "type": "bool"
        }
      ],
      "stateMutability": "view",
      "type": "function"
    },
    {
      "inputs": [],
      "name": "lastLotteryDraw",
      "outputs": [
        {
          "internalType": "uint256",
          "name": "",
          "type": "uint256"
        }
      ],
      "stateMutability": "view",
      "type": "function"
    },
    {
      "inputs": [],
      "name": "lastLotteryPayout",
      "outputs": [
        {
          "internalType": "address",
          "name": "addr",
          "type": "address"
        },
        {
          "internalType": "uint256",
          "name": "amount",
          "type": "uint256"
        },
        {
          "internalType": "uint256",
          "name": "time",
          "type": "uint256"
        }
      ],
      "stateMutability": "view",
      "type": "function"
    },
    {
      "inputs": [
        {
          "internalType": "uint256",
          "name": "newReleaseTime",
          "type": "uint256"
        }
      ],
      "name": "lockLp",
      "outputs": [],
      "stateMutability": "nonpayable",
      "type": "function"
    },
    {
      "inputs": [],
      "name": "lotteryBalance",
      "outputs": [
        {
          "internalType": "uint256",
          "name": "",
          "type": "uint256"
        }
      ],
      "stateMutability": "view",
      "type": "function"
    },
    {
      "inputs": [
        {
          "internalType": "uint256",
          "name": "",
          "type": "uint256"
        }
      ],
      "name": "lotteryPayout",
      "outputs": [
        {
          "internalType": "address",
          "name": "addr",
          "type": "address"
        },
        {
          "internalType": "uint256",
          "name": "amount",
          "type": "uint256"
        },
        {
          "internalType": "uint256",
          "name": "time",
          "type": "uint256"
        }
      ],
      "stateMutability": "view",
      "type": "function"
    },
    {
      "inputs": [],
      "name": "maxTxAmount",
      "outputs": [
        {
          "internalType": "uint256",
          "name": "",
          "type": "uint256"
        }
      ],
      "stateMutability": "view",
      "type": "function"
    },
    {
      "inputs": [],
      "name": "maxWalletAmount",
      "outputs": [
        {
          "internalType": "uint256",
          "name": "",
          "type": "uint256"
        }
      ],
      "stateMutability": "view",
      "type": "function"
    },
    {
      "inputs": [],
      "name": "minHoldForLottery",
      "outputs": [
        {
          "internalType": "uint256",
          "name": "",
          "type": "uint256"
        }
      ],
      "stateMutability": "view",
      "type": "function"
    },
    {
      "inputs": [],
      "name": "minHoldSellerForLottery",
      "outputs": [
        {
          "internalType": "uint256",
          "name": "",
          "type": "uint256"
        }
      ],
      "stateMutability": "view",
      "type": "function"
    },
    {
      "inputs": [],
      "name": "name",
      "outputs": [
        {
          "internalType": "string",
          "name": "",
          "type": "string"
        }
      ],
      "stateMutability": "pure",
      "type": "function"
    },
    {
      "inputs": [],
      "name": "nbLotteryPayout",
      "outputs": [
        {
          "internalType": "uint256",
          "name": "",
          "type": "uint256"
        }
      ],
      "stateMutability": "view",
      "type": "function"
    },
    {
      "inputs": [],
      "name": "nbLotteryPlayer",
      "outputs": [
        {
          "internalType": "uint256",
          "name": "",
          "type": "uint256"
        }
      ],
      "stateMutability": "view",
      "type": "function"
    },
    {
      "inputs": [],
      "name": "nextLotteryDraw",
      "outputs": [
        {
          "internalType": "uint256",
          "name": "",
          "type": "uint256"
        }
      ],
      "stateMutability": "view",
      "type": "function"
    },
    {
      "inputs": [],
      "name": "openTrading",
      "outputs": [],
      "stateMutability": "nonpayable",
      "type": "function"
    },
    {
      "inputs": [],
      "name": "owner",
      "outputs": [
        {
          "internalType": "address",
          "name": "",
          "type": "address"
        }
      ],
      "stateMutability": "view",
      "type": "function"
    },
    {
      "inputs": [],
      "name": "releaseLp",
      "outputs": [],
      "stateMutability": "nonpayable",
      "type": "function"
    },
    {
      "inputs": [],
      "name": "releaseTime",
      "outputs": [
        {
          "internalType": "uint256",
          "name": "",
          "type": "uint256"
        }
      ],
      "stateMutability": "view",
      "type": "function"
    },
    {
      "inputs": [],
      "name": "renounceOwnership",
      "outputs": [],
      "stateMutability": "nonpayable",
      "type": "function"
    },
    {
      "inputs": [],
      "name": "symbol",
      "outputs": [
        {
          "internalType": "string",
          "name": "",
          "type": "string"
        }
      ],
      "stateMutability": "pure",
      "type": "function"
    },
    {
      "inputs": [],
      "name": "timeBetweenLotteryDraw",
      "outputs": [
        {
          "internalType": "uint256",
          "name": "",
          "type": "uint256"
        }
      ],
      "stateMutability": "view",
      "type": "function"
    },
    {
      "inputs": [],
      "name": "totalSupply",
      "outputs": [
        {
          "internalType": "uint256",
          "name": "",
          "type": "uint256"
        }
      ],
      "stateMutability": "view",
      "type": "function"
    },
    {
      "inputs": [],
      "name": "tradingOpen",
      "outputs": [
        {
          "internalType": "bool",
          "name": "",
          "type": "bool"
        }
      ],
      "stateMutability": "view",
      "type": "function"
    },
    {
      "inputs": [
        {
          "internalType": "address",
          "name": "recipient",
          "type": "address"
        },
        {
          "internalType": "uint256",
          "name": "amount",
          "type": "uint256"
        }
      ],
      "name": "transfer",
      "outputs": [
        {
          "internalType": "bool",
          "name": "",
          "type": "bool"
        }
      ],
      "stateMutability": "nonpayable",
      "type": "function"
    },
    {
      "inputs": [
        {
          "internalType": "address",
          "name": "sender",
          "type": "address"
        },
        {
          "internalType": "address",
          "name": "recipient",
          "type": "address"
        },
        {
          "internalType": "uint256",
          "name": "amount",
          "type": "uint256"
        }
      ],
      "name": "transferFrom",
      "outputs": [
        {
          "internalType": "bool",
          "name": "",
          "type": "bool"
        }
      ],
      "stateMutability": "nonpayable",
      "type": "function"
    },
    {
      "inputs": [
        {
          "internalType": "address",
          "name": "newOwner",
          "type": "address"
        }
      ],
      "name": "transferOwnership",
      "outputs": [],
      "stateMutability": "nonpayable",
      "type": "function"
    },
    {
      "inputs": [],
      "name": "uniswapV2Pair",
      "outputs": [
        {
          "internalType": "address",
          "name": "",
          "type": "address"
        }
      ],
      "stateMutability": "view",
      "type": "function"
    },
    {
      "stateMutability": "payable",
      "type": "receive"
    }
  ],
  "bytecode": {
    "object": "60806040526000600260146101000a81548160ff0219169083151502179055506000600260156101000a81548160ff021916908315150217905550600f60045560026008556008600955600854600a55600954600b5542600d55600060155560b4601655426017553480156200007457600080fd5b50600062000087620003a860201b60201c565b9050806000806101000a81548173ffffffffffffffffffffffffffffffffffffffff021916908373ffffffffffffffffffffffffffffffffffffffff1602179055508073ffffffffffffffffffffffffffffffffffffffff16600073ffffffffffffffffffffffffffffffffffffffff167f8be0079c531659141344cd1fd0a4f28419497f9722a3daafe3b4186f6b6457e060405160405180910390a35062000135620003a860201b60201c565b600c60006101000a81548173ffffffffffffffffffffffffffffffffffffffff021916908373ffffffffffffffffffffffffffffffffffffffff160217905550683635c9adc5dea00000600760003073ffffffffffffffffffffffffffffffffffffffff1673ffffffffffffffffffffffffffffffffffffffff16815260200190815260200160002081905550600160056000620001d8620003a860201b60201c565b73ffffffffffffffffffffffffffffffffffffffff1673ffffffffffffffffffffffffffffffffffffffff16815260200190815260200160002060006101000a81548160ff0219169083151502179055506001600560003073ffffffffffffffffffffffffffffffffffffffff1673ffffffffffffffffffffffffffffffffffffffff16815260200190815260200160002060006101000a81548160ff0219169083151502179055506001601360003073ffffffffffffffffffffffffffffffffffffffff1673ffffffffffffffffffffffffffffffffffffffff16815260200190815260200160002060006101000a81548160ff02191690831515021790555060016013600061dead73ffffffffffffffffffffffffffffffffffffffff1673ffffffffffffffffffffffffffffffffffffffff16815260200190815260200160002060006101000a81548160ff0219169083151502179055503073ffffffffffffffffffffffffffffffffffffffff16600073ffffffffffffffffffffffffffffffffffffffff167fddf252ad1be2c89b69c2b068fc378daa952ba7f163c4a11628f55a4df523b3ef683635c9adc5dea000006040518082815260200191505060405180910390a3620003b0565b600033905090565b61489080620003c06000396000f3fe6080604052600436106102345760003560e01c80638da5cb5b1161012e578063bf2c6326116100ab578063f2fde38b1161006f578063f2fde38b14610c31578063f3ce28bf14610c82578063fce589d814610c99578063fedc1ae114610cc4578063ffb54a9914610cef5761023b565b8063bf2c632614610ac8578063c25d3f2d14610b2f578063c9567bf914610b5a578063d87ab0c814610b71578063dd62ed3e14610bac5761023b565b8063a9059cbb116100f2578063a9059cbb14610987578063aa4bde28146109f8578063b228864914610a23578063b571b47c14610a4e578063b91d400114610a9d5761023b565b80638da5cb5b146107ef57806395d89b411461083057806398d21200146108c05780639ef0d10f146108eb578063a457c2d7146109165761023b565b806343ad92d5116101bc5780636827e764116101805780636827e764146106f257806370a082311461071d578063715018a6146107825780637ab3d694146107995780638c0b5e22146107c45761023b565b806343ad92d51461059557806349bd5a5e146105ac5780634a243ad1146105ed5780635342acb414610618578063656d0e1a1461067f5761023b565b806318160ddd1161020357806318160ddd146103d357806323b872dd146103fe57806330f0b7fd1461048f578063313ce567146104f657806339509351146105245761023b565b806306fdde0314610240578063095ea7b3146102d05780630f657c3d14610341578063117b1d45146103a85761023b565b3661023b57005b600080fd5b34801561024c57600080fd5b50610255610d1c565b6040518080602001828103825283818151815260200191508051906020019080838360005b8381101561029557808201518184015260208101905061027a565b50505050905090810190601f1680156102c25780820380516001836020036101000a031916815260200191505b509250505060405180910390f35b3480156102dc57600080fd5b50610329600480360360408110156102f357600080fd5b81019080803573ffffffffffffffffffffffffffffffffffffffff16906020019092919080359060200190929190505050610d59565b60405180821515815260200191505060405180910390f35b34801561034d57600080fd5b506103906004803603602081101561036457600080fd5b81019080803573ffffffffffffffffffffffffffffffffffffffff169060200190929190505050610d77565b60405180821515815260200191505060405180910390f35b3480156103b457600080fd5b506103bd610d97565b6040518082815260200191505060405180910390f35b3480156103df57600080fd5b506103e8610d9d565b6040518082815260200191505060405180910390f35b34801561040a57600080fd5b506104776004803603606081101561042157600080fd5b81019080803573ffffffffffffffffffffffffffffffffffffffff169060200190929190803573ffffffffffffffffffffffffffffffffffffffff16906020019092919080359060200190929190505050610dae565b60405180821515815260200191505060405180910390f35b34801561049b57600080fd5b506104de600480360360208110156104b257600080fd5b81019080803573ffffffffffffffffffffffffffffffffffffffff169060200190929190505050610e87565b60405180821515815260200191505060405180910390f35b34801561050257600080fd5b5061050b610ee0565b604051808260ff16815260200191505060405180910390f35b34801561053057600080fd5b5061057d6004803603604081101561054757600080fd5b81019080803573ffffffffffffffffffffffffffffffffffffffff16906020019092919080359060200190929190505050610ee9565b60405180821515815260200191505060405180910390f35b3480156105a157600080fd5b506105aa610f8c565b005b3480156105b857600080fd5b506105c16112aa565b604051808273ffffffffffffffffffffffffffffffffffffffff16815260200191505060405180910390f35b3480156105f957600080fd5b506106026112d0565b6040518082815260200191505060405180910390f35b34801561062457600080fd5b506106676004803603602081101561063b57600080fd5b81019080803573ffffffffffffffffffffffffffffffffffffffff1690602001909291905050506112dc565b60405180821515815260200191505060405180910390f35b34801561068b57600080fd5b506106b8600480360360208110156106a257600080fd5b81019080803590602001909291905050506112fc565b604051808473ffffffffffffffffffffffffffffffffffffffff168152602001838152602001828152602001935050505060405180910390f35b3480156106fe57600080fd5b50610707611353565b6040518082815260200191505060405180910390f35b34801561072957600080fd5b5061076c6004803603602081101561074057600080fd5b81019080803573ffffffffffffffffffffffffffffffffffffffff169060200190929190505050611359565b6040518082815260200191505060405180910390f35b34801561078e57600080fd5b506107976113a2565b005b3480156107a557600080fd5b506107ae611528565b6040518082815260200191505060405180910390f35b3480156107d057600080fd5b506107d9611535565b6040518082815260200191505060405180910390f35b3480156107fb57600080fd5b50610804611541565b604051808273ffffffffffffffffffffffffffffffffffffffff16815260200191505060405180910390f35b34801561083c57600080fd5b5061084561156a565b6040518080602001828103825283818151815260200191508051906020019080838360005b8381101561088557808201518184015260208101905061086a565b50505050905090810190601f1680156108b25780820380516001836020036101000a031916815260200191505b509250505060405180910390f35b3480156108cc57600080fd5b506108d56115a7565b6040518082815260200191505060405180910390f35b3480156108f757600080fd5b506109006115ad565b6040518082815260200191505060405180910390f35b34801561092257600080fd5b5061096f6004803603604081101561093957600080fd5b81019080803573ffffffffffffffffffffffffffffffffffffffff169060200190929190803590602001909291905050506115ba565b60405180821515815260200191505060405180910390f35b34801561099357600080fd5b506109e0600480360360408110156109aa57600080fd5b81019080803573ffffffffffffffffffffffffffffffffffffffff169060200190929190803590602001909291905050506116cb565b60405180821515815260200191505060405180910390f35b348015610a0457600080fd5b50610a0d6116e9565b6040518082815260200191505060405180910390f35b348015610a2f57600080fd5b50610a386116f5565b6040518082815260200191505060405180910390f35b348015610a5a57600080fd5b50610a636116fb565b604051808473ffffffffffffffffffffffffffffffffffffffff168152602001838152602001828152602001935050505060405180910390f35b348015610aa957600080fd5b50610ab2611733565b6040518082815260200191505060405180910390f35b348015610ad457600080fd5b50610b1760048036036020811015610aeb57600080fd5b81019080803573ffffffffffffffffffffffffffffffffffffffff169060200190929190505050611739565b60405180821515815260200191505060405180910390f35b348015610b3b57600080fd5b50610b44611792565b6040518082815260200191505060405180910390f35b348015610b6657600080fd5b50610b6f6117a3565b005b348015610b7d57600080fd5b50610baa60048036036020811015610b9457600080fd5b8101908080359060200190929190505050611eeb565b005b348015610bb857600080fd5b50610c1b60048036036040811015610bcf57600080fd5b81019080803573ffffffffffffffffffffffffffffffffffffffff169060200190929190803573ffffffffffffffffffffffffffffffffffffffff16906020019092919050505061205d565b6040518082815260200191505060405180910390f35b348015610c3d57600080fd5b50610c8060048036036020811015610c5457600080fd5b81019080803573ffffffffffffffffffffffffffffffffffffffff1690602001909291905050506120e4565b005b348015610c8e57600080fd5b50610c976122ef565b005b348015610ca557600080fd5b50610cae612576565b6040518082815260200191505060405180910390f35b348015610cd057600080fd5b50610cd961257c565b6040518082815260200191505060405180910390f35b348015610cfb57600080fd5b50610d04612588565b60405180821515815260200191505060405180910390f35b60606040518060400160405280600a81526020017f4661697220536861726500000000000000000000000000000000000000000000815250905090565b6000610d6d610d6661259b565b84846125a3565b6001905092915050565b60136020528060005260406000206000915054906101000a900460ff1681565b60175481565b6000683635c9adc5dea00000905090565b6000610dbb84848461279a565b610e7c84610dc761259b565b610e778560405180606001604052806028815260200161475060289139600660008b73ffffffffffffffffffffffffffffffffffffffff1673ffffffffffffffffffffffffffffffffffffffff1681526020019081526020016000206000610e2d61259b565b73ffffffffffffffffffffffffffffffffffffffff1673ffffffffffffffffffffffffffffffffffffffff16815260200190815260200160002054612e8e9092919063ffffffff16565b6125a3565b600190509392505050565b6000601460008373ffffffffffffffffffffffffffffffffffffffff1673ffffffffffffffffffffffffffffffffffffffff16815260200190815260200160002060000160009054906101000a900460ff169050919050565b60006009905090565b6000610f82610ef661259b565b848460066000610f0461259b565b73ffffffffffffffffffffffffffffffffffffffff1673ffffffffffffffffffffffffffffffffffffffff16815260200190815260200160002060008873ffffffffffffffffffffffffffffffffffffffff1673ffffffffffffffffffffffffffffffffffffffff16815260200190815260200160002054016125a3565b6001905092915050565b600c60009054906101000a900473ffffffffffffffffffffffffffffffffffffffff1673ffffffffffffffffffffffffffffffffffffffff16610fcd61259b565b73ffffffffffffffffffffffffffffffffffffffff1614806110285750610ff2611541565b73ffffffffffffffffffffffffffffffffffffffff1661101061259b565b73ffffffffffffffffffffffffffffffffffffffff16145b61107d576040517f08c379a000000000000000000000000000000000000000000000000000000000815260040180806020018281038252602981526020018061480d6029913960400191505060405180910390fd5b42600d54106110f4576040517f08c379a000000000000000000000000000000000000000000000000000000000815260040180806020018281038252600f8152602001807f4c50207374696c6c206c6f636b6564000000000000000000000000000000000081525060200191505060405180910390fd5b600260009054906101000a900473ffffffffffffffffffffffffffffffffffffffff1673ffffffffffffffffffffffffffffffffffffffff1663a9059cbb600c60009054906101000a900473ffffffffffffffffffffffffffffffffffffffff16600260009054906101000a900473ffffffffffffffffffffffffffffffffffffffff1673ffffffffffffffffffffffffffffffffffffffff166370a08231306040518263ffffffff1660e01b8152600401808273ffffffffffffffffffffffffffffffffffffffff16815260200191505060206040518083038186803b1580156111de57600080fd5b505afa1580156111f2573d6000803e3d6000fd5b505050506040513d602081101561120857600080fd5b81019080805190602001909291905050506040518363ffffffff1660e01b8152600401808373ffffffffffffffffffffffffffffffffffffffff16815260200182815260200192505050602060405180830381600087803b15801561126c57600080fd5b505af1158015611280573d6000803e3d6000fd5b505050506040513d602081101561129657600080fd5b810190808051906020019092919050505050565b600260009054906101000a900473ffffffffffffffffffffffffffffffffffffffff1681565b6706f05b59d3b2000081565b60056020528060005260406000206000915054906101000a900460ff1681565b600f818154811061130957fe5b90600052602060002090600302016000915090508060000160009054906101000a900473ffffffffffffffffffffffffffffffffffffffff16908060010154908060020154905083565b60095481565b6000600760008373ffffffffffffffffffffffffffffffffffffffff1673ffffffffffffffffffffffffffffffffffffffff168152602001908152602001600020549050919050565b6113aa61259b565b73ffffffffffffffffffffffffffffffffffffffff1660008054906101000a900473ffffffffffffffffffffffffffffffffffffffff1673ffffffffffffffffffffffffffffffffffffffff161461146a576040517f08c379a00000000000000000000000000000000000000000000000000000000081526004018080602001828103825260208152602001807f4f776e61626c653a2063616c6c6572206973206e6f7420746865206f776e657281525060200191505060405180910390fd5b600073ffffffffffffffffffffffffffffffffffffffff1660008054906101000a900473ffffffffffffffffffffffffffffffffffffffff1673ffffffffffffffffffffffffffffffffffffffff167f8be0079c531659141344cd1fd0a4f28419497f9722a3daafe3b4186f6b6457e060405160405180910390a360008060006101000a81548173ffffffffffffffffffffffffffffffffffffffff021916908373ffffffffffffffffffffffffffffffffffffffff160217905550565b6000600f80549050905090565b6729a2241af62c000081565b60008060009054906101000a900473ffffffffffffffffffffffffffffffffffffffff16905090565b60606040518060400160405280600981526020017f4661697253686172650000000000000000000000000000000000000000000000815250905090565b60165481565b6000600e80549050905090565b600080600660006115c961259b565b73ffffffffffffffffffffffffffffffffffffffff1673ffffffffffffffffffffffffffffffffffffffff16815260200190815260200160002060008573ffffffffffffffffffffffffffffffffffffffff1673ffffffffffffffffffffffffffffffffffffffff1681526020019081526020016000205490508281101561169c576040517f08c379a00000000000000000000000000000000000000000000000000000000081526004018080602001828103825260258152602001806148366025913960400191505060405180910390fd5b6116c06116a761259b565b856116bb8685612f4e90919063ffffffff16565b6125a3565b600191505092915050565b60006116df6116d861259b565b848461279a565b6001905092915050565b67d02ab486cedc000081565b60155481565b60108060000160009054906101000a900473ffffffffffffffffffffffffffffffffffffffff16908060010154908060020154905083565b600d5481565b6000601460008373ffffffffffffffffffffffffffffffffffffffff1673ffffffffffffffffffffffffffffffffffffffff16815260200190815260200160002060000160019054906101000a900460ff169050919050565b6000603c6016540260175401905090565b6117ab61259b565b73ffffffffffffffffffffffffffffffffffffffff1660008054906101000a900473ffffffffffffffffffffffffffffffffffffffff1673ffffffffffffffffffffffffffffffffffffffff161461186b576040517f08c379a00000000000000000000000000000000000000000000000000000000081526004018080602001828103825260208152602001807f4f776e61626c653a2063616c6c6572206973206e6f7420746865206f776e657281525060200191505060405180910390fd5b600260149054906101000a900460ff16156118d1576040517f08c379a00000000000000000000000000000000000000000000000000000000081526004018080602001828103825260238152602001806147ea6023913960400191505060405180910390fd5b737a250d5630b4cf539739df2c5dacb4c659f2488d600160006101000a81548173ffffffffffffffffffffffffffffffffffffffff021916908373ffffffffffffffffffffffffffffffffffffffff16021790555061195c30600160009054906101000a900473ffffffffffffffffffffffffffffffffffffffff16683635c9adc5dea000006125a3565b600160009054906101000a900473ffffffffffffffffffffffffffffffffffffffff1673ffffffffffffffffffffffffffffffffffffffff1663c45a01556040518163ffffffff1660e01b815260040160206040518083038186803b1580156119c457600080fd5b505afa1580156119d8573d6000803e3d6000fd5b505050506040513d60208110156119ee57600080fd5b810190808051906020019092919050505073ffffffffffffffffffffffffffffffffffffffff1663c9c6539630600160009054906101000a900473ffffffffffffffffffffffffffffffffffffffff1673ffffffffffffffffffffffffffffffffffffffff1663ad5c46486040518163ffffffff1660e01b815260040160206040518083038186803b158015611a8357600080fd5b505afa158015611a97573d6000803e3d6000fd5b505050506040513d6020811015611aad57600080fd5b81019080805190602001909291905050506040518363ffffffff1660e01b8152600401808373ffffffffffffffffffffffffffffffffffffffff1681526020018273ffffffffffffffffffffffffffffffffffffffff16815260200192505050602060405180830381600087803b158015611b2757600080fd5b505af1158015611b3b573d6000803e3d6000fd5b505050506040513d6020811015611b5157600080fd5b8101908080519060200190929190505050600260006101000a81548173ffffffffffffffffffffffffffffffffffffffff021916908373ffffffffffffffffffffffffffffffffffffffff160217905550600160136000737a250d5630b4cf539739df2c5dacb4c659f2488d73ffffffffffffffffffffffffffffffffffffffff1673ffffffffffffffffffffffffffffffffffffffff16815260200190815260200160002060006101000a81548160ff021916908315150217905550600160136000600260009054906101000a900473ffffffffffffffffffffffffffffffffffffffff1673ffffffffffffffffffffffffffffffffffffffff1673ffffffffffffffffffffffffffffffffffffffff16815260200190815260200160002060006101000a81548160ff021916908315150217905550600160009054906101000a900473ffffffffffffffffffffffffffffffffffffffff1673ffffffffffffffffffffffffffffffffffffffff1663f305d7194730611cd130611359565b6000803061025842016040518863ffffffff1660e01b8152600401808773ffffffffffffffffffffffffffffffffffffffff1681526020018681526020018581526020018481526020018373ffffffffffffffffffffffffffffffffffffffff16815260200182815260200196505050505050506060604051808303818588803b158015611d5e57600080fd5b505af1158015611d72573d6000803e3d6000fd5b50505050506040513d6060811015611d8957600080fd5b810190808051906020019092919080519060200190929190805190602001909291905050505050506001600260146101000a81548160ff02191690831515021790555062093a804201600d81905550600260009054906101000a900473ffffffffffffffffffffffffffffffffffffffff1673ffffffffffffffffffffffffffffffffffffffff1663095ea7b3600160009054906101000a900473ffffffffffffffffffffffffffffffffffffffff167fffffffffffffffffffffffffffffffffffffffffffffffffffffffffffffffff6040518363ffffffff1660e01b8152600401808373ffffffffffffffffffffffffffffffffffffffff16815260200182815260200192505050602060405180830381600087803b158015611ead57600080fd5b505af1158015611ec1573d6000803e3d6000fd5b505050506040513d6020811015611ed757600080fd5b810190808051906020019092919050505050565b600c60009054906101000a900473ffffffffffffffffffffffffffffffffffffffff1673ffffffffffffffffffffffffffffffffffffffff16611f2c61259b565b73ffffffffffffffffffffffffffffffffffffffff161480611f875750611f51611541565b73ffffffffffffffffffffffffffffffffffffffff16611f6f61259b565b73ffffffffffffffffffffffffffffffffffffffff16145b611fdc576040517f08c379a000000000000000000000000000000000000000000000000000000000815260040180806020018281038252602981526020018061480d6029913960400191505060405180910390fd5b600d548111612053576040517f08c379a00000000000000000000000000000000000000000000000000000000081526004018080602001828103825260208152602001807f596f752063616e206f6e6c7920657874656e64204c50206c6f636b2074696d6581525060200191505060405180910390fd5b80600d8190555050565b6000600660008473ffffffffffffffffffffffffffffffffffffffff1673ffffffffffffffffffffffffffffffffffffffff16815260200190815260200160002060008373ffffffffffffffffffffffffffffffffffffffff1673ffffffffffffffffffffffffffffffffffffffff16815260200190815260200160002054905092915050565b6120ec61259b565b73ffffffffffffffffffffffffffffffffffffffff1660008054906101000a900473ffffffffffffffffffffffffffffffffffffffff1673ffffffffffffffffffffffffffffffffffffffff16146121ac576040517f08c379a00000000000000000000000000000000000000000000000000000000081526004018080602001828103825260208152602001807f4f776e61626c653a2063616c6c6572206973206e6f7420746865206f776e657281525060200191505060405180910390fd5b600073ffffffffffffffffffffffffffffffffffffffff168173ffffffffffffffffffffffffffffffffffffffff161415612232576040517f08c379a00000000000000000000000000000000000000000000000000000000081526004018080602001828103825260268152602001806146bf6026913960400191505060405180910390fd5b8073ffffffffffffffffffffffffffffffffffffffff1660008054906101000a900473ffffffffffffffffffffffffffffffffffffffff1673ffffffffffffffffffffffffffffffffffffffff167f8be0079c531659141344cd1fd0a4f28419497f9722a3daafe3b4186f6b6457e060405160405180910390a3806000806101000a81548173ffffffffffffffffffffffffffffffffffffffff021916908373ffffffffffffffffffffffffffffffffffffffff16021790555050565b600c60009054906101000a900473ffffffffffffffffffffffffffffffffffffffff1673ffffffffffffffffffffffffffffffffffffffff1661233061259b565b73ffffffffffffffffffffffffffffffffffffffff16148061238b5750612355611541565b73ffffffffffffffffffffffffffffffffffffffff1661237361259b565b73ffffffffffffffffffffffffffffffffffffffff16145b6123e0576040517f08c379a000000000000000000000000000000000000000000000000000000000815260040180806020018281038252602981526020018061480d6029913960400191505060405180910390fd5b600260009054906101000a900473ffffffffffffffffffffffffffffffffffffffff1673ffffffffffffffffffffffffffffffffffffffff1663a9059cbb61dead600260009054906101000a900473ffffffffffffffffffffffffffffffffffffffff1673ffffffffffffffffffffffffffffffffffffffff166370a08231306040518263ffffffff1660e01b8152600401808273ffffffffffffffffffffffffffffffffffffffff16815260200191505060206040518083038186803b1580156124aa57600080fd5b505afa1580156124be573d6000803e3d6000fd5b505050506040513d60208110156124d457600080fd5b81019080805190602001909291905050506040518363ffffffff1660e01b8152600401808373ffffffffffffffffffffffffffffffffffffffff16815260200182815260200192505050602060405180830381600087803b15801561253857600080fd5b505af115801561254c573d6000803e3d6000fd5b505050506040513d602081101561256257600080fd5b810190808051906020019092919050505050565b60085481565b671bc16d674ec8000081565b600260149054906101000a900460ff1681565b600033905090565b600073ffffffffffffffffffffffffffffffffffffffff168373ffffffffffffffffffffffffffffffffffffffff161415612629576040517f08c379a00000000000000000000000000000000000000000000000000000000081526004018080602001828103825260248152602001806147c66024913960400191505060405180910390fd5b600073ffffffffffffffffffffffffffffffffffffffff168273ffffffffffffffffffffffffffffffffffffffff1614156126af576040517f08c379a00000000000000000000000000000000000000000000000000000000081526004018080602001828103825260228152602001806146e56022913960400191505060405180910390fd5b80600660008573ffffffffffffffffffffffffffffffffffffffff1673ffffffffffffffffffffffffffffffffffffffff16815260200190815260200160002060008473ffffffffffffffffffffffffffffffffffffffff1673ffffffffffffffffffffffffffffffffffffffff168152602001908152602001600020819055508173ffffffffffffffffffffffffffffffffffffffff168373ffffffffffffffffffffffffffffffffffffffff167f8c5be1e5ebec7d5bd14f71427d1e84f3dd0314c0f7b2291e5b200ac8c7c3b925836040518082815260200191505060405180910390a3505050565b600073ffffffffffffffffffffffffffffffffffffffff168373ffffffffffffffffffffffffffffffffffffffff161415612820576040517f08c379a00000000000000000000000000000000000000000000000000000000081526004018080602001828103825260258152602001806147a16025913960400191505060405180910390fd5b600073ffffffffffffffffffffffffffffffffffffffff168273ffffffffffffffffffffffffffffffffffffffff1614156128a6576040517f08c379a00000000000000000000000000000000000000000000000000000000081526004018080602001828103825260238152602001806146736023913960400191505060405180910390fd5b600081116128ff576040517f08c379a00000000000000000000000000000000000000000000000000000000081526004018080602001828103825260298152602001806147786029913960400191505060405180910390fd5b600560008473ffffffffffffffffffffffffffffffffffffffff1673ffffffffffffffffffffffffffffffffffffffff16815260200190815260200160002060009054906101000a900460ff161580156129a35750600560008373ffffffffffffffffffffffffffffffffffffffff1673ffffffffffffffffffffffffffffffffffffffff16815260200190815260200160002060009054906101000a900460ff16155b15612adb576729a2241af62c0000811115612a09576040517f08c379a00000000000000000000000000000000000000000000000000000000081526004018080602001828103825260288152602001806147076028913960400191505060405180910390fd5b600260009054906101000a900473ffffffffffffffffffffffffffffffffffffffff1673ffffffffffffffffffffffffffffffffffffffff168273ffffffffffffffffffffffffffffffffffffffff1614612ada5767d02ab486cedc0000612a82612a7384611359565b83612f9890919063ffffffff16565b1115612ad9576040517f08c379a00000000000000000000000000000000000000000000000000000000081526004018080602001828103825260298152602001806146966029913960400191505060405180910390fd5b5b5b600260009054906101000a900473ffffffffffffffffffffffffffffffffffffffff1673ffffffffffffffffffffffffffffffffffffffff168373ffffffffffffffffffffffffffffffffffffffff161415612b8a57612b4660045442612f9890919063ffffffff16565b600360008473ffffffffffffffffffffffffffffffffffffffff1673ffffffffffffffffffffffffffffffffffffffff168152602001908152602001600020819055505b600560008473ffffffffffffffffffffffffffffffffffffffff1673ffffffffffffffffffffffffffffffffffffffff16815260200190815260200160002060009054906101000a900460ff16158015612c325750600260009054906101000a900473ffffffffffffffffffffffffffffffffffffffff1673ffffffffffffffffffffffffffffffffffffffff168373ffffffffffffffffffffffffffffffffffffffff1614155b15612ced57600360008473ffffffffffffffffffffffffffffffffffffffff1673ffffffffffffffffffffffffffffffffffffffff16815260200190815260200160002054421015612cec576040517f08c379a00000000000000000000000000000000000000000000000000000000081526004018080602001828103825260088152602001807f436f6f6c646f776e00000000000000000000000000000000000000000000000081525060200191505060405180910390fd5b5b6000612cf830611359565b90506000612d04613020565b90506729a2241af62c0000811115612d22576729a2241af62c000090505b600260159054906101000a900460ff16158015612d4b5750600260149054906101000a900460ff165b8015612da55750600260009054906101000a900473ffffffffffffffffffffffffffffffffffffffff1673ffffffffffffffffffffffffffffffffffffffff168573ffffffffffffffffffffffffffffffffffffffff1614155b8015612db15750808210155b15612dc957612dbf81613108565b612dc8476133fc565b5b600060019050600560008773ffffffffffffffffffffffffffffffffffffffff1673ffffffffffffffffffffffffffffffffffffffff16815260200190815260200160002060009054906101000a900460ff1680612e705750600560008673ffffffffffffffffffffffffffffffffffffffff1673ffffffffffffffffffffffffffffffffffffffff16815260200190815260200160002060009054906101000a900460ff165b15612e7a57600090505b612e8686868684613504565b505050505050565b6000838311158290612f3b576040517f08c379a00000000000000000000000000000000000000000000000000000000081526004018080602001828103825283818151815260200191508051906020019080838360005b83811015612f00578082015181840152602081019050612ee5565b50505050905090810190601f168015612f2d5780820380516001836020036101000a031916815260200191505b509250505060405180910390fd5b5060008385039050809150509392505050565b6000612f9083836040518060400160405280601e81526020017f536166654d6174683a207375627472616374696f6e206f766572666c6f770000815250612e8e565b905092915050565b600080828401905083811015613016576040517f08c379a000000000000000000000000000000000000000000000000000000000815260040180806020018281038252601b8152602001807f536166654d6174683a206164646974696f6e206f766572666c6f77000000000081525060200191505060405180910390fd5b8091505092915050565b600080600260009054906101000a900473ffffffffffffffffffffffffffffffffffffffff1673ffffffffffffffffffffffffffffffffffffffff16630902f1ac6040518163ffffffff1660e01b815260040160606040518083038186803b15801561308b57600080fd5b505afa15801561309f573d6000803e3d6000fd5b505050506040513d60608110156130b557600080fd5b8101908080519060200190929190805190602001909291908051906020019092919050505050506dffffffffffffffffffffffffffff16905061310260648261353190919063ffffffff16565b91505090565b6001600260156101000a81548160ff02191690831515021790555060008111156133de576060600267ffffffffffffffff8111801561314657600080fd5b506040519080825280602002602001820160405280156131755781602001602082028036833780820191505090505b509050308160008151811061318657fe5b602002602001019073ffffffffffffffffffffffffffffffffffffffff16908173ffffffffffffffffffffffffffffffffffffffff1681525050600160009054906101000a900473ffffffffffffffffffffffffffffffffffffffff1673ffffffffffffffffffffffffffffffffffffffff1663ad5c46486040518163ffffffff1660e01b815260040160206040518083038186803b15801561322857600080fd5b505afa15801561323c573d6000803e3d6000fd5b505050506040513d602081101561325257600080fd5b81019080805190602001909291905050508160018151811061327057fe5b602002602001019073ffffffffffffffffffffffffffffffffffffffff16908173ffffffffffffffffffffffffffffffffffffffff16815250506132d730600160009054906101000a900473ffffffffffffffffffffffffffffffffffffffff16846125a3565b600160009054906101000a900473ffffffffffffffffffffffffffffffffffffffff1673ffffffffffffffffffffffffffffffffffffffff1663791ac9478360008430426040518663ffffffff1660e01b815260040180868152602001858152602001806020018473ffffffffffffffffffffffffffffffffffffffff168152602001838152602001828103825285818151815260200191508051906020019060200280838360005b8381101561339b578082015181840152602081019050613380565b505050509050019650505050505050600060405180830381600087803b1580156133c457600080fd5b505af11580156133d8573d6000803e3d6000fd5b50505050505b6000600260156101000a81548160ff02191690831515021790555050565b6001600260156101000a81548160ff0219169083151502179055506015548111156134e657600061343860155483612f4e90919063ffffffff16565b9050600c60009054906101000a900473ffffffffffffffffffffffffffffffffffffffff1673ffffffffffffffffffffffffffffffffffffffff166108fc61348a60028461353190919063ffffffff16565b9081150290604051600060405180830381858888f193505050501580156134b5573d6000803e3d6000fd5b506134de6134cd60028361353190919063ffffffff16565b601554612f9890919063ffffffff16565b601581905550505b6000600260156101000a81548160ff02191690831515021790555050565b806135125761351161357b565b5b61351d8484846135be565b8061352b5761352a613c3e565b5b50505050565b600061357383836040518060400160405280601a81526020017f536166654d6174683a206469766973696f6e206279207a65726f000000000000815250613c52565b905092915050565b600060085414801561358f57506000600954145b15613599576135bc565b600854600a81905550600954600b81905550600060088190555060006009819055505b565b60008060006135cc84613d18565b92509250925061362484600760008973ffffffffffffffffffffffffffffffffffffffff1673ffffffffffffffffffffffffffffffffffffffff16815260200190815260200160002054612f4e90919063ffffffff16565b600760008873ffffffffffffffffffffffffffffffffffffffff1673ffffffffffffffffffffffffffffffffffffffff168152602001908152602001600020819055506136b983600760008873ffffffffffffffffffffffffffffffffffffffff1673ffffffffffffffffffffffffffffffffffffffff16815260200190815260200160002054612f9890919063ffffffff16565b600760008773ffffffffffffffffffffffffffffffffffffffff1673ffffffffffffffffffffffffffffffffffffffff1681526020019081526020016000208190555061370582613db0565b61370f8682613e52565b671bc16d674ec80000600760008773ffffffffffffffffffffffffffffffffffffffff1673ffffffffffffffffffffffffffffffffffffffff16815260200190815260200160002054106138dc5761376685610e87565b1580156137bd5750601360008673ffffffffffffffffffffffffffffffffffffffff1673ffffffffffffffffffffffffffffffffffffffff16815260200190815260200160002060009054906101000a900460ff16155b156138db57600e859080600181540180825580915050600190039060005260206000200160009091909190916101000a81548173ffffffffffffffffffffffffffffffffffffffff021916908373ffffffffffffffffffffffffffffffffffffffff16021790555060405180606001604052806001151581526020016000151581526020016001600e8054905003815250601460008773ffffffffffffffffffffffffffffffffffffffff1673ffffffffffffffffffffffffffffffffffffffff16815260200190815260200160002060008201518160000160006101000a81548160ff02191690831515021790555060208201518160000160016101000a81548160ff021916908315150217905550604082015181600101559050505b5b6706f05b59d3b20000600760008873ffffffffffffffffffffffffffffffffffffffff1673ffffffffffffffffffffffffffffffffffffffff168152602001908152602001600020541015801561397d5750601360008773ffffffffffffffffffffffffffffffffffffffff1673ffffffffffffffffffffffffffffffffffffffff16815260200190815260200160002060009054906101000a900460ff16155b15613b095761398b86610e87565b613aac57600e869080600181540180825580915050600190039060005260206000200160009091909190916101000a81548173ffffffffffffffffffffffffffffffffffffffff021916908373ffffffffffffffffffffffffffffffffffffffff16021790555060405180606001604052806001151581526020016001151581526020016001600e8054905003815250601460008873ffffffffffffffffffffffffffffffffffffffff1673ffffffffffffffffffffffffffffffffffffffff16815260200190815260200160002060008201518160000160006101000a81548160ff02191690831515021790555060208201518160000160016101000a81548160ff02191690831515021790555060408201518160010155905050613b08565b6001601460008873ffffffffffffffffffffffffffffffffffffffff1673ffffffffffffffffffffffffffffffffffffffff16815260200190815260200160002060000160016101000a81548160ff0219169083151502179055505b5b6706f05b59d3b20000600760008873ffffffffffffffffffffffffffffffffffffffff1673ffffffffffffffffffffffffffffffffffffffff16815260200190815260200160002054108015613ba95750601360008773ffffffffffffffffffffffffffffffffffffffff1673ffffffffffffffffffffffffffffffffffffffff16815260200190815260200160002060009054906101000a900460ff16155b15613bb857613bb786613f60565b5b603c60165402601754014210613bd157613bd061421b565b5b8473ffffffffffffffffffffffffffffffffffffffff168673ffffffffffffffffffffffffffffffffffffffff167fddf252ad1be2c89b69c2b068fc378daa952ba7f163c4a11628f55a4df523b3ef856040518082815260200191505060405180910390a3505050505050565b600a54600881905550600b54600981905550565b60008083118290613cfe576040517f08c379a00000000000000000000000000000000000000000000000000000000081526004018080602001828103825283818151815260200191508051906020019080838360005b83811015613cc3578082015181840152602081019050613ca8565b50505050905090810190601f168015613cf05780820380516001836020036101000a031916815260200191505b509250505060405180910390fd5b506000838581613d0a57fe5b049050809150509392505050565b600080600080613d466064613d386009548861449190919063ffffffff16565b61353190919063ffffffff16565b90506000613d726064613d646008548961449190919063ffffffff16565b61353190919063ffffffff16565b90506000613d9b82613d8d858a612f4e90919063ffffffff16565b612f4e90919063ffffffff16565b90508083839550955095505050509193909250565b6000811115613e4f57613e0b81600760003073ffffffffffffffffffffffffffffffffffffffff1673ffffffffffffffffffffffffffffffffffffffff16815260200190815260200160002054612f9890919063ffffffff16565b600760003073ffffffffffffffffffffffffffffffffffffffff1673ffffffffffffffffffffffffffffffffffffffff168152602001908152602001600020819055505b50565b6000811115613f5c57613eaf816007600061dead73ffffffffffffffffffffffffffffffffffffffff1673ffffffffffffffffffffffffffffffffffffffff16815260200190815260200160002054612f9890919063ffffffff16565b6007600061dead73ffffffffffffffffffffffffffffffffffffffff1673ffffffffffffffffffffffffffffffffffffffff1681526020019081526020016000208190555061dead73ffffffffffffffffffffffffffffffffffffffff168273ffffffffffffffffffffffffffffffffffffffff167fddf252ad1be2c89b69c2b068fc378daa952ba7f163c4a11628f55a4df523b3ef836040518082815260200191505060405180910390a35b5050565b6001601360008373ffffffffffffffffffffffffffffffffffffffff1673ffffffffffffffffffffffffffffffffffffffff16815260200190815260200160002060006101000a81548160ff0219169083151502179055506001600e80549050141561407157600e805480613fd157fe5b6001900381819060005260206000200160006101000a81549073ffffffffffffffffffffffffffffffffffffffff0219169055905561400f81610e87565b15614070576000601460008373ffffffffffffffffffffffffffffffffffffffff1673ffffffffffffffffffffffffffffffffffffffff16815260200190815260200160002060000160006101000a81548160ff0219169083151502179055505b5b6001600e8054905011801561408b575061408a81610e87565b5b15614218576000601460008373ffffffffffffffffffffffffffffffffffffffff1673ffffffffffffffffffffffffffffffffffffffff1681526020019081526020016000206001015490506000600e6001600e8054905003815481106140ee57fe5b9060005260206000200160009054906101000a900473ffffffffffffffffffffffffffffffffffffffff169050600e805490508210156141d55780600e838154811061413657fe5b9060005260206000200160006101000a81548173ffffffffffffffffffffffffffffffffffffffff021916908373ffffffffffffffffffffffffffffffffffffffff16021790555061418781610e87565b156141d45781601460008373ffffffffffffffffffffffffffffffffffffffff1673ffffffffffffffffffffffffffffffffffffffff168152602001908152602001600020600101819055505b5b600e8054806141e057fe5b6001900381819060005260206000200160006101000a81549073ffffffffffffffffffffffffffffffffffffffff0219169055905550505b50565b6000600e8054905011801561423257506000601554115b1561448f57600060155490506000600e8054905061424e614517565b8161425557fe5b0690506000600e828154811061426757fe5b9060005260206000200160009054906101000a900473ffffffffffffffffffffffffffffffffffffffff16905060008190506142a282611739565b156142c0576142bd601460155461353190919063ffffffff16565b93505b8073ffffffffffffffffffffffffffffffffffffffff166108fc859081150290604051600060405180830381858888f19350505050158015614306573d6000803e3d6000fd5b5060405180606001604052808373ffffffffffffffffffffffffffffffffffffffff16815260200185815260200142815250601060008201518160000160006101000a81548173ffffffffffffffffffffffffffffffffffffffff021916908373ffffffffffffffffffffffffffffffffffffffff1602179055506020820151816001015560408201518160020155905050600f601090806001815401808255809150506001900390600052602060002090600302016000909190919091506000820160009054906101000a900473ffffffffffffffffffffffffffffffffffffffff168160000160006101000a81548173ffffffffffffffffffffffffffffffffffffffff021916908373ffffffffffffffffffffffffffffffffffffffff1602179055506001820154816001015560028201548160020155505042601781905550614451614651565b60168190555061446082611739565b1561446f5761446e82613f60565b5b61448484601554612f4e90919063ffffffff16565b601581905550505050505b565b6000808314156144a45760009050614511565b60008284029050828482816144b557fe5b041461450c576040517f08c379a000000000000000000000000000000000000000000000000000000000815260040180806020018281038252602181526020018061472f6021913960400191505060405180910390fd5b809150505b92915050565b6000434233604051602001808273ffffffffffffffffffffffffffffffffffffffff1660601b81526014019150506040516020818303038152906040528051906020012060001c8161456557fe5b04454241604051602001808273ffffffffffffffffffffffffffffffffffffffff1660601b81526014019150506040516020818303038152906040528051906020012060001c816145b257fe5b0444420101010101600e60405160200180838152602001828054801561462d57602002820191906000526020600020905b8160009054906101000a900473ffffffffffffffffffffffffffffffffffffffff1673ffffffffffffffffffffffffffffffffffffffff16815260200190600101908083116145e3575b5050925050506040516020818303038152906040528051906020012060001c905090565b60008061465c614517565b9050603d818161466857fe5b066078019150509056fe45524332303a207472616e7366657220746f20746865207a65726f206164647265737357616c6c657420616d6f756e74206578636565647320746865206d617857616c6c6574416d6f756e744f776e61626c653a206e6577206f776e657220697320746865207a65726f206164647265737345524332303a20617070726f766520746f20746865207a65726f20616464726573735472616e7366657220616d6f756e74206578636565647320746865206d61785478416d6f756e742e536166654d6174683a206d756c7469706c69636174696f6e206f766572666c6f7745524332303a207472616e7366657220616d6f756e74206578636565647320616c6c6f77616e63655472616e7366657220616d6f756e74206d7573742062652067726561746572207468616e207a65726f45524332303a207472616e736665722066726f6d20746865207a65726f206164647265737345524332303a20617070726f76652066726f6d20746865207a65726f206164647265737354726164696e6720697320616c726561647920656e61626c6564202f206f70656e6564596f7520617265206e6f7420616c6c6f77656420746f2063616c6c20746869732066756e6374696f6e45524332303a2064656372656173656420616c6c6f77616e63652062656c6f77207a65726fa264697066735822122050b8eb4f1875646e790417f76ab468a25876cc60085cf6d0f347a8886de4c58f64736f6c634300060c0033"
  }
}