{"compiler":"v0.8.1+commit.df193b15","opcodeHash":"0x10823facd29f08258101e41610efbf27f1a86d43d78544c5c9646ce440290784","metalessHash":"0xf054be07e89d9aa877464903a92a1da5717deb2eec6863169e1ed8f90720a0f2","runtimeHash":"0x1c71638a2c925ce445c5662d36fdd93f234785fb62f7a9e5be46ce2766cfc466","encodedMetadata":[{"ipfs":"/ipfs/QmcYa16pKmJtDPFkyd2FGC8hSxNmTfr33XMYGftVUX9xpJ","solc":"0.8.1"}],"abi":[{"inputs":[{"internalType":"string","name":"_name","type":"string"},{"internalType":"uint256","name":"_start_time","type":"uint256"},{"internalType":"uint256","name":"_max_gas_price","type":"uint256"},{"internalType":"uint256","name":"_min_token_amount","type":"uint256"},{"internalType":"address","name":"_token_addr","type":"address"},{"internalType":"uint8","name":"_lucky_factor","type":"uint8"}],"stateMutability":"nonpayable","type":"constructor"},{"anonymous":false,"inputs":[],"name":"GasPriceOver","type":"event"},{"anonymous":false,"inputs":[{"indexed":false,"internalType":"address","name":"account","type":"address"},{"indexed":false,"internalType":"bool","name":"qualified","type":"bool"},{"indexed":false,"internalType":"uint256","name":"blockNumber","type":"uint256"},{"indexed":false,"internalType":"uint256","name":"timestamp","type":"uint256"}],"name":"Qualification","type":"event"},{"anonymous":false,"inputs":[],"name":"Unlucky","type":"event"},{"inputs":[{"internalType":"address[]","name":"addrs","type":"address[]"}],"name":"add_whitelist","outputs":[],"stateMutability":"nonpayable","type":"function"},{"inputs":[],"name":"get_creation_time","outputs":[{"internalType":"uint256","name":"","type":"uint256"}],"stateMutability":"view","type":"function"},{"inputs":[],"name":"get_name","outputs":[{"internalType":"string","name":"","type":"string"}],"stateMutability":"view","type":"function"},{"inputs":[],"name":"get_start_time","outputs":[{"internalType":"uint256","name":"","type":"uint256"}],"stateMutability":"view","type":"function"},{"inputs":[{"internalType":"address","name":"account","type":"address"}],"name":"ifQualified","outputs":[{"internalType":"bool","name":"qualified","type":"bool"}],"stateMutability":"view","type":"function"},{"inputs":[{"internalType":"address","name":"account","type":"address"}],"name":"isLucky","outputs":[{"internalType":"bool","name":"","type":"bool"}],"stateMutability":"view","type":"function"},{"inputs":[{"internalType":"address","name":"account","type":"address"},{"internalType":"uint256","name":"ito_start_time","type":"uint256"}],"name":"logQualified","outputs":[{"internalType":"bool","name":"qualified","type":"bool"}],"stateMutability":"nonpayable","type":"function"},{"inputs":[],"name":"lucky_factor","outputs":[{"internalType":"uint8","name":"","type":"uint8"}],"stateMutability":"view","type":"function"},{"inputs":[],"name":"max_gas_price","outputs":[{"internalType":"uint256","name":"","type":"uint256"}],"stateMutability":"view","type":"function"},{"inputs":[],"name":"min_token_amount","outputs":[{"internalType":"uint256","name":"","type":"uint256"}],"stateMutability":"view","type":"function"},{"inputs":[{"internalType":"address[]","name":"addrs","type":"address[]"}],"name":"remove_whitelist","outputs":[],"stateMutability":"nonpayable","type":"function"},{"inputs":[{"internalType":"uint8","name":"_lucky_factor","type":"uint8"}],"name":"set_lucky_factor","outputs":[],"stateMutability":"nonpayable","type":"function"},{"inputs":[{"internalType":"uint256","name":"_max_gas_price","type":"uint256"}],"name":"set_max_gas_price","outputs":[],"stateMutability":"nonpayable","type":"function"},{"inputs":[{"internalType":"uint256","name":"_min_token_amount","type":"uint256"}],"name":"set_min_token_amount","outputs":[],"stateMutability":"nonpayable","type":"function"},{"inputs":[{"internalType":"uint256","name":"_start_time","type":"uint256"}],"name":"set_start_time","outputs":[],"stateMutability":"nonpayable","type":"function"},{"inputs":[{"internalType":"address","name":"_token_addr","type":"address"}],"name":"set_token_addr","outputs":[],"stateMutability":"nonpayable","type":"function"},{"inputs":[{"internalType":"bytes4","name":"interfaceId","type":"bytes4"}],"name":"supportsInterface","outputs":[{"internalType":"bool","name":"","type":"bool"}],"stateMutability":"pure","type":"function"},{"inputs":[],"name":"token_addr","outputs":[{"internalType":"address","name":"","type":"address"}],"stateMutability":"view","type":"function"}],"bytecode":{"object":"60806040523480156200001157600080fd5b50604051620021d7380380620021d783398181016040528101906200003791906200027c565b85600090805190602001906200004f92919062000115565b504260018190555084600281905550836003819055508260048190555081600560006101000a81548173ffffffffffffffffffffffffffffffffffffffff021916908373ffffffffffffffffffffffffffffffffffffffff16021790555080600560146101000a81548160ff021916908360ff16021790555033600660006101000a81548173ffffffffffffffffffffffffffffffffffffffff021916908373ffffffffffffffffffffffffffffffffffffffff16021790555050505050505062000534565b82805462000123906200040b565b90600052602060002090601f01602090048101928262000147576000855562000193565b82601f106200016257805160ff191683800117855562000193565b8280016001018555821562000193579182015b828111156200019257825182559160200191906001019062000175565b5b509050620001a29190620001a6565b5090565b5b80821115620001c1576000816000905550600101620001a7565b5090565b6000620001dc620001d68462000354565b6200032b565b905082815260208101848484011115620001f557600080fd5b62000202848285620003d5565b509392505050565b6000815190506200021b81620004e6565b92915050565b600082601f8301126200023357600080fd5b815162000245848260208601620001c5565b91505092915050565b6000815190506200025f8162000500565b92915050565b60008151905062000276816200051a565b92915050565b60008060008060008060c087890312156200029657600080fd5b600087015167ffffffffffffffff811115620002b157600080fd5b620002bf89828a0162000221565b9650506020620002d289828a016200024e565b9550506040620002e589828a016200024e565b9450506060620002f889828a016200024e565b93505060806200030b89828a016200020a565b92505060a06200031e89828a0162000265565b9150509295509295509295565b6000620003376200034a565b905062000345828262000441565b919050565b6000604051905090565b600067ffffffffffffffff821115620003725762000371620004a6565b5b6200037d82620004d5565b9050602081019050919050565b600062000397826200039e565b9050919050565b600073ffffffffffffffffffffffffffffffffffffffff82169050919050565b6000819050919050565b600060ff82169050919050565b60005b83811015620003f5578082015181840152602081019050620003d8565b8381111562000405576000848401525b50505050565b600060028204905060018216806200042457607f821691505b602082108114156200043b576200043a62000477565b5b50919050565b6200044c82620004d5565b810181811067ffffffffffffffff821117156200046e576200046d620004a6565b5b80604052505050565b7f4e487b7100000000000000000000000000000000000000000000000000000000600052602260045260246000fd5b7f4e487b7100000000000000000000000000000000000000000000000000000000600052604160045260246000fd5b6000601f19601f8301169050919050565b620004f1816200038a565b8114620004fd57600080fd5b50565b6200050b81620003be565b81146200051757600080fd5b50565b6200052581620003c8565b81146200053157600080fd5b50565b611c9380620005446000396000f3fe608060405234801561001057600080fd5b50600436106101165760003560e01c80638b56b77a116100a2578063b27b1a6d11610071578063b27b1a6d146102e1578063ba385f9b146102fd578063d474366114610319578063db4b9dc014610335578063df29dfc41461035357610116565b80638b56b77a14610259578063a851c7ff14610277578063a8d926a014610295578063adaa0f8a146102b157610116565b80633a525c29116100e95780633a525c29146101a157806344bf9ba4146101bf57806379380372146101dd5780637991dbb21461020d578063823b69f71461022957610116565b806301ffc9a71461011b578063146433141461014b57806315f2cd43146101675780633320a7e014610183575b600080fd5b61013560048036038101906101309190611345565b610371565b6040516101429190611666565b60405180910390f35b61016560048036038101906101609190611304565b6104b8565b005b610181600480360381019061017c9190611304565b610603565b005b61018b610745565b6040516101989190611763565b60405180910390f35b6101a961074b565b6040516101b69190611681565b60405180910390f35b6101c76107dd565b6040516101d4919061177e565b60405180910390f35b6101f760048036038101906101f291906112c8565b6107f0565b6040516102049190611666565b60405180910390f35b6102276004803603810190610222919061129f565b610be0565b005b610243600480360381019061023e919061129f565b610cb4565b6040516102509190611666565b60405180910390f35b610261610dc1565b60405161026e9190611606565b60405180910390f35b61027f610de7565b60405161028c9190611763565b60405180910390f35b6102af60048036038101906102aa919061136e565b610df1565b005b6102cb60048036038101906102c6919061129f565b610e8b565b6040516102d89190611666565b60405180910390f35b6102fb60048036038101906102f6919061136e565b610fae565b005b610317600480360381019061031291906113c0565b611048565b005b610333600480360381019061032e919061136e565b6110f6565b005b61033d611190565b60405161034a9190611763565b60405180910390f35b61035b611196565b6040516103689190611763565b60405180910390f35b60006301ffc9a760e01b7bffffffffffffffffffffffffffffffffffffffffffffffffffffffff1916827bffffffffffffffffffffffffffffffffffffffffffffffffffffffff191614806104135750637938037260e01b63823b69f760e01b187bffffffffffffffffffffffffffffffffffffffffffffffffffffffff1916827bffffffffffffffffffffffffffffffffffffffffffffffffffffffff1916145b80610462575063df29dfc460e01b7bffffffffffffffffffffffffffffffffffffffffffffffffffffffff1916827bffffffffffffffffffffffffffffffffffffffffffffffffffffffff1916145b806104b1575063adaa0f8a60e01b7bffffffffffffffffffffffffffffffffffffffffffffffffffffffff1916827bffffffffffffffffffffffffffffffffffffffffffffffffffffffff1916145b9050919050565b600660009054906101000a900473ffffffffffffffffffffffffffffffffffffffff1673ffffffffffffffffffffffffffffffffffffffff163373ffffffffffffffffffffffffffffffffffffffff1614610548576040517f08c379a000000000000000000000000000000000000000000000000000000000815260040161053f906116e3565b60405180910390fd5b60005b81518110156105ff57600160086000848481518110610593577f4e487b7100000000000000000000000000000000000000000000000000000000600052603260045260246000fd5b602002602001015173ffffffffffffffffffffffffffffffffffffffff1673ffffffffffffffffffffffffffffffffffffffff16815260200190815260200160002060006101000a81548160ff02191690831515021790555080806105f79061196d565b91505061054b565b5050565b600660009054906101000a900473ffffffffffffffffffffffffffffffffffffffff1673ffffffffffffffffffffffffffffffffffffffff163373ffffffffffffffffffffffffffffffffffffffff1614610693576040517f08c379a000000000000000000000000000000000000000000000000000000000815260040161068a906116e3565b60405180910390fd5b60005b815181101561074157600860008383815181106106dc577f4e487b7100000000000000000000000000000000000000000000000000000000600052603260045260246000fd5b602002602001015173ffffffffffffffffffffffffffffffffffffffff1673ffffffffffffffffffffffffffffffffffffffff16815260200190815260200160002060006101000a81549060ff021916905580806107399061196d565b915050610696565b5050565b60045481565b60606000805461075a9061190a565b80601f01602080910402602001604051908101604052809291908181526020018280546107869061190a565b80156107d35780601f106107a8576101008083540402835291602001916107d3565b820191906000526020600020905b8154815290600101906020018083116107b657829003601f168201915b5050505050905090565b600560149054906101000a900460ff1681565b60006003543a1115610863577fc36435cf191518bdb22923a28ef2db278e3adc64f2c847da271641a7fd355ded60405160405180910390a16040517f08c379a000000000000000000000000000000000000000000000000000000000815260040161085a90611703565b60405180910390fd5b600860008473ffffffffffffffffffffffffffffffffffffffff1673ffffffffffffffffffffffffffffffffffffffff16815260200190815260200160002060009054906101000a900460ff166109a457600454600560009054906101000a900473ffffffffffffffffffffffffffffffffffffffff1673ffffffffffffffffffffffffffffffffffffffff166370a08231856040518263ffffffff1660e01b81526004016109129190611606565b60206040518083038186803b15801561092a57600080fd5b505afa15801561093e573d6000803e3d6000fd5b505050506040513d601f19601f820116820180604052508101906109629190611397565b10156109a3576040517f08c379a000000000000000000000000000000000000000000000000000000000815260040161099a906116c3565b60405180910390fd5b5b4260025411806109b357504282115b15610a4b576001600760008573ffffffffffffffffffffffffffffffffffffffff1673ffffffffffffffffffffffffffffffffffffffff16815260200190815260200160002060006101000a81548160ff0219169083151502179055506040517f08c379a0000000000000000000000000000000000000000000000000000000008152600401610a4290611723565b60405180910390fd5b60001515600760008573ffffffffffffffffffffffffffffffffffffffff1673ffffffffffffffffffffffffffffffffffffffff16815260200190815260200160002060009054906101000a900460ff16151514610ade576040517f08c379a0000000000000000000000000000000000000000000000000000000008152600401610ad590611743565b60405180910390fd5b60001515610aeb84610e8b565b15151415610b98577f27d6a421b5e80faeace63db22dea9291a2d83752fcdc5eab4b3203db8da7114560405160405180910390a17fb6948b8fb946de1d52ce1ef206f0d910504221f2f0d13f3307aa788ad2d7e3e68360004342604051610b559493929190611621565b60405180910390a16040517f08c379a0000000000000000000000000000000000000000000000000000000008152600401610b8f906116a3565b60405180910390fd5b7fb6948b8fb946de1d52ce1ef206f0d910504221f2f0d13f3307aa788ad2d7e3e68360014342604051610bce9493929190611621565b60405180910390a16001905092915050565b600660009054906101000a900473ffffffffffffffffffffffffffffffffffffffff1673ffffffffffffffffffffffffffffffffffffffff163373ffffffffffffffffffffffffffffffffffffffff1614610c70576040517f08c379a0000000000000000000000000000000000000000000000000000000008152600401610c67906116e3565b60405180910390fd5b80600560006101000a81548173ffffffffffffffffffffffffffffffffffffffff021916908373ffffffffffffffffffffffffffffffffffffffff16021790555050565b6000600860008373ffffffffffffffffffffffffffffffffffffffff1673ffffffffffffffffffffffffffffffffffffffff16815260200190815260200160002060009054906101000a900460ff1680610dba5750600454600560009054906101000a900473ffffffffffffffffffffffffffffffffffffffff1673ffffffffffffffffffffffffffffffffffffffff166370a08231846040518263ffffffff1660e01b8152600401610d679190611606565b60206040518083038186803b158015610d7f57600080fd5b505afa158015610d93573d6000803e3d6000fd5b505050506040513d601f19601f82011682018060405250810190610db79190611397565b10155b9050919050565b600560009054906101000a900473ffffffffffffffffffffffffffffffffffffffff1681565b6000600154905090565b600660009054906101000a900473ffffffffffffffffffffffffffffffffffffffff1673ffffffffffffffffffffffffffffffffffffffff163373ffffffffffffffffffffffffffffffffffffffff1614610e81576040517f08c379a0000000000000000000000000000000000000000000000000000000008152600401610e78906116e3565b60405180910390fd5b8060038190555050565b600080600560149054906101000a900460ff1660ff161415610eb05760019050610fa9565b6000439050600060ff600183610ec69190611806565b4085604051602001610ed992919061158c565b6040516020818303038152906040528051906020012060001c610efc9190611a00565b600183610f099190611806565b610f139190611806565b905060008140854144604051602001610f2f94939291906115b8565b604051602081830303815290604052805190602001209050600560149054906101000a900460ff1660ff16600382600060208110610f96577f4e487b7100000000000000000000000000000000000000000000000000000000600052603260045260246000fd5b1a60f81b60f81c1660ff16101593505050505b919050565b600660009054906101000a900473ffffffffffffffffffffffffffffffffffffffff1673ffffffffffffffffffffffffffffffffffffffff163373ffffffffffffffffffffffffffffffffffffffff161461103e576040517f08c379a0000000000000000000000000000000000000000000000000000000008152600401611035906116e3565b60405180910390fd5b8060028190555050565b600660009054906101000a900473ffffffffffffffffffffffffffffffffffffffff1673ffffffffffffffffffffffffffffffffffffffff163373ffffffffffffffffffffffffffffffffffffffff16146110d8576040517f08c379a00000000000000000000000000000000000000000000000000000000081526004016110cf906116e3565b60405180910390fd5b80600560146101000a81548160ff021916908360ff16021790555050565b600660009054906101000a900473ffffffffffffffffffffffffffffffffffffffff1673ffffffffffffffffffffffffffffffffffffffff163373ffffffffffffffffffffffffffffffffffffffff1614611186576040517f08c379a000000000000000000000000000000000000000000000000000000000815260040161117d906116e3565b60405180910390fd5b8060048190555050565b60035481565b6000600254905090565b60006111b36111ae846117be565b611799565b905080838252602082019050828560208602820111156111d257600080fd5b60005b8581101561120257816111e8888261120c565b8452602084019350602083019250506001810190506111d5565b5050509392505050565b60008135905061121b81611c01565b92915050565b600082601f83011261123257600080fd5b81356112428482602086016111a0565b91505092915050565b60008135905061125a81611c18565b92915050565b60008135905061126f81611c2f565b92915050565b60008151905061128481611c2f565b92915050565b60008135905061129981611c46565b92915050565b6000602082840312156112b157600080fd5b60006112bf8482850161120c565b91505092915050565b600080604083850312156112db57600080fd5b60006112e98582860161120c565b92505060206112fa85828601611260565b9150509250929050565b60006020828403121561131657600080fd5b600082013567ffffffffffffffff81111561133057600080fd5b61133c84828501611221565b91505092915050565b60006020828403121561135757600080fd5b60006113658482850161124b565b91505092915050565b60006020828403121561138057600080fd5b600061138e84828501611260565b91505092915050565b6000602082840312156113a957600080fd5b60006113b784828501611275565b91505092915050565b6000602082840312156113d257600080fd5b60006113e08482850161128a565b91505092915050565b6113fa6113f58261184c565b6119c8565b82525050565b6114098161183a565b82525050565b61142061141b8261183a565b6119b6565b82525050565b61142f8161185e565b82525050565b6114466114418261186a565b6119da565b82525050565b6000611457826117ea565b61146181856117f5565b93506114718185602086016118d7565b61147a81611aed565b840191505092915050565b60006114926010836117f5565b915061149d82611b0b565b602082019050919050565b60006114b56019836117f5565b91506114c082611b34565b602082019050919050565b60006114d8600e836117f5565b91506114e382611b5d565b602082019050919050565b60006114fb6012836117f5565b915061150682611b86565b602082019050919050565b600061151e600c836117f5565b915061152982611baf565b602082019050919050565b6000611541600b836117f5565b915061154c82611bd8565b602082019050919050565b611560816118c0565b82525050565b611577611572826118c0565b6119f6565b82525050565b611586816118ca565b82525050565b60006115988285611435565b6020820191506115a8828461140f565b6014820191508190509392505050565b60006115c48287611435565b6020820191506115d4828661140f565b6014820191506115e482856113e9565b6014820191506115f48284611566565b60208201915081905095945050505050565b600060208201905061161b6000830184611400565b92915050565b60006080820190506116366000830187611400565b6116436020830186611426565b6116506040830185611557565b61165d6060830184611557565b95945050505050565b600060208201905061167b6000830184611426565b92915050565b6000602082019050818103600083015261169b818461144c565b905092915050565b600060208201905081810360008301526116bc81611485565b9050919050565b600060208201905081810360008301526116dc816114a8565b9050919050565b600060208201905081810360008301526116fc816114cb565b9050919050565b6000602082019050818103600083015261171c816114ee565b9050919050565b6000602082019050818103600083015261173c81611511565b9050919050565b6000602082019050818103600083015261175c81611534565b9050919050565b60006020820190506117786000830184611557565b92915050565b6000602082019050611793600083018461157d565b92915050565b60006117a36117b4565b90506117af828261193c565b919050565b6000604051905090565b600067ffffffffffffffff8211156117d9576117d8611abe565b5b602082029050602081019050919050565b600081519050919050565b600082825260208201905092915050565b6000611811826118c0565b915061181c836118c0565b92508282101561182f5761182e611a31565b5b828203905092915050565b6000611845826118a0565b9050919050565b6000611857826118a0565b9050919050565b60008115159050919050565b6000819050919050565b60007fffffffff0000000000000000000000000000000000000000000000000000000082169050919050565b600073ffffffffffffffffffffffffffffffffffffffff82169050919050565b6000819050919050565b600060ff82169050919050565b60005b838110156118f55780820151818401526020810190506118da565b83811115611904576000848401525b50505050565b6000600282049050600182168061192257607f821691505b6020821081141561193657611935611a8f565b5b50919050565b61194582611aed565b810181811067ffffffffffffffff8211171561196457611963611abe565b5b80604052505050565b6000611978826118c0565b91507fffffffffffffffffffffffffffffffffffffffffffffffffffffffffffffffff8214156119ab576119aa611a31565b5b600182019050919050565b60006119c1826119e4565b9050919050565b60006119d3826119e4565b9050919050565b6000819050919050565b60006119ef82611afe565b9050919050565b6000819050919050565b6000611a0b826118c0565b9150611a16836118c0565b925082611a2657611a25611a60565b5b828206905092915050565b7f4e487b7100000000000000000000000000000000000000000000000000000000600052601160045260246000fd5b7f4e487b7100000000000000000000000000000000000000000000000000000000600052601260045260246000fd5b7f4e487b7100000000000000000000000000000000000000000000000000000000600052602260045260246000fd5b7f4e487b7100000000000000000000000000000000000000000000000000000000600052604160045260246000fd5b6000601f19601f8301169050919050565b60008160601b9050919050565b7f4e6f74206c75636b7920656e6f75676800000000000000000000000000000000600082015250565b7f4e6f7420686f6c64696e6720656e6f75676820746f6b656e7300000000000000600082015250565b7f4e6f7420417574686f72697a6564000000000000000000000000000000000000600082015250565b7f47617320707269636520746f6f20686967680000000000000000000000000000600082015250565b7f4e6f7420737461727465642e0000000000000000000000000000000000000000600082015250565b7f426c61636b6c6973746564000000000000000000000000000000000000000000600082015250565b611c0a8161183a565b8114611c1557600080fd5b50565b611c2181611874565b8114611c2c57600080fd5b50565b611c38816118c0565b8114611c4357600080fd5b50565b611c4f816118ca565b8114611c5a57600080fd5b5056fea26469706673582212206d62fa934a5464ea55aa4a93238918b2f6ee1a22b12f3003de5a120f982f239b64736f6c63430008010033"}}