{"compiler":"v0.8.4+commit.c7e474f2","opcodeHash":"0x9f5da16c698dfe6390be64260c78b7aacb80f6147b5d978ee771b6cffb9fbd38","metalessHash":"0xe5145ee22370b207da8400e0ab5e7243ab379bc92f5787ed2c7a8900b08cf8f8","runtimeHash":"0x8a49cbdfb685a079c82aa68f1efc5da30df58c1d6426acbb35e0799f09100d71","encodedMetadata":[{"ipfs":"/ipfs/QmVsZTUR6WZGJXcenjNxGosHZXkBox2DvHwHwCXgv56ExY","solc":"0.8.4"}],"abi":[{"inputs":[{"internalType":"address","name":"_vaultAddress","type":"address"},{"internalType":"address","name":"_multiSigAddress","type":"address"}],"stateMutability":"nonpayable","type":"constructor"},{"anonymous":false,"inputs":[{"indexed":false,"internalType":"address","name":"newValidator","type":"address"}],"name":"AddedNewValidator","type":"event"},{"anonymous":false,"inputs":[{"indexed":true,"internalType":"address","name":"recipient","type":"address"},{"indexed":false,"internalType":"uint256","name":"amount","type":"uint256"},{"indexed":false,"internalType":"uint256","name":"UUID","type":"uint256"}],"name":"ApprovedTransaction","type":"event"},{"anonymous":false,"inputs":[{"indexed":false,"internalType":"address","name":"newBridgeController","type":"address"}],"name":"NewBridgeController","type":"event"},{"anonymous":false,"inputs":[{"indexed":false,"internalType":"address","name":"newMultiSigAddress","type":"address"}],"name":"NewMultiSigEvent","type":"event"},{"anonymous":false,"inputs":[{"indexed":false,"internalType":"uint256","name":"newThreshold","type":"uint256"}],"name":"NewThresholdEvent","type":"event"},{"anonymous":false,"inputs":[{"indexed":true,"internalType":"address","name":"sender","type":"address"},{"indexed":false,"internalType":"address","name":"tokenAddress","type":"address"},{"indexed":false,"internalType":"uint256","name":"amount","type":"uint256"}],"name":"NewTransactionCreated","type":"event"},{"anonymous":false,"inputs":[{"indexed":false,"internalType":"address","name":"newAddress","type":"address"}],"name":"NewVault","type":"event"},{"anonymous":false,"inputs":[{"indexed":true,"internalType":"address","name":"previousOwner","type":"address"},{"indexed":true,"internalType":"address","name":"newOwner","type":"address"}],"name":"OwnershipTransferred","type":"event"},{"anonymous":false,"inputs":[{"indexed":true,"internalType":"address","name":"recipient","type":"address"},{"indexed":false,"internalType":"uint256","name":"amount","type":"uint256"}],"name":"ReleasedFunds","type":"event"},{"anonymous":false,"inputs":[{"indexed":false,"internalType":"address","name":"oldValidator","type":"address"}],"name":"RemovedValidator","type":"event"},{"anonymous":false,"inputs":[{"indexed":false,"internalType":"uint256","name":"UUID","type":"uint256"}],"name":"proposalCreated","type":"event"},{"inputs":[{"internalType":"address","name":"_validatorAddress","type":"address"}],"name":"addNewValidator","outputs":[],"stateMutability":"nonpayable","type":"function"},{"inputs":[{"internalType":"uint256","name":"_proposal","type":"uint256"}],"name":"approveTxn","outputs":[],"stateMutability":"nonpayable","type":"function"},{"inputs":[{"internalType":"string","name":"_id","type":"string"},{"internalType":"string","name":"_note","type":"string"},{"internalType":"address","name":"_tokenAddress","type":"address"},{"internalType":"uint256","name":"_calculatedFee","type":"uint256"},{"internalType":"uint256","name":"_amount","type":"uint256"}],"name":"createTxn","outputs":[],"stateMutability":"payable","type":"function"},{"inputs":[],"name":"getBridgeController","outputs":[{"internalType":"address","name":"","type":"address"}],"stateMutability":"view","type":"function"},{"inputs":[{"internalType":"string","name":"txID","type":"string"}],"name":"getCreatedTransanction","outputs":[{"internalType":"string","name":"","type":"string"}],"stateMutability":"view","type":"function"},{"inputs":[],"name":"getMultiSig","outputs":[{"internalType":"address","name":"","type":"address"}],"stateMutability":"view","type":"function"},{"inputs":[],"name":"getOutstandingTransferProposals","outputs":[{"internalType":"uint256[]","name":"","type":"uint256[]"}],"stateMutability":"view","type":"function"},{"inputs":[],"name":"getUUID","outputs":[{"internalType":"uint256","name":"","type":"uint256"}],"stateMutability":"view","type":"function"},{"inputs":[],"name":"getValThreshold","outputs":[{"internalType":"uint256","name":"","type":"uint256"}],"stateMutability":"view","type":"function"},{"inputs":[],"name":"getValidators","outputs":[{"internalType":"address[]","name":"","type":"address[]"}],"stateMutability":"view","type":"function"},{"inputs":[],"name":"getVaultAddress","outputs":[{"internalType":"contract Vault","name":"","type":"address"}],"stateMutability":"view","type":"function"},{"inputs":[{"internalType":"address","name":"_bridgeControllerAddress","type":"address"}],"name":"newBridgeController","outputs":[],"stateMutability":"nonpayable","type":"function"},{"inputs":[{"internalType":"address","name":"_multiSigAddress","type":"address"}],"name":"newMultiSig","outputs":[],"stateMutability":"nonpayable","type":"function"},{"inputs":[{"internalType":"uint256","name":"_threshold","type":"uint256"}],"name":"newThreshold","outputs":[],"stateMutability":"nonpayable","type":"function"},{"inputs":[{"internalType":"address","name":"_vaultAddress","type":"address"}],"name":"newVault","outputs":[],"stateMutability":"nonpayable","type":"function"},{"inputs":[],"name":"owner","outputs":[{"internalType":"address","name":"","type":"address"}],"stateMutability":"view","type":"function"},{"inputs":[{"internalType":"address","name":"_userAddress","type":"address"},{"internalType":"address","name":"_tokenAddress","type":"address"},{"internalType":"uint256","name":"_amount","type":"uint256"},{"internalType":"string","name":"_note","type":"string"}],"name":"proposeNewTxn","outputs":[],"stateMutability":"nonpayable","type":"function"},{"inputs":[{"internalType":"address","name":"_validatorAddress","type":"address"}],"name":"removeValidator","outputs":[],"stateMutability":"nonpayable","type":"function"},{"inputs":[],"name":"renounceOwnership","outputs":[],"stateMutability":"nonpayable","type":"function"},{"inputs":[{"internalType":"address","name":"newOwner","type":"address"}],"name":"transferOwnership","outputs":[],"stateMutability":"nonpayable","type":"function"}],"bytecode":{"object":"6080604052600160055560006006553480156200001b57600080fd5b5060405162001c7938038062001c798339810160408190526200003e9162000138565b600080546001600160a01b031916339081178255604051909182917f8be0079c531659141344cd1fd0a4f28419497f9722a3daafe3b4186f6b6457e0908290a3506001600160a01b038116620000da5760405162461bcd60e51b815260206004820152601760248201527f43616e6e6f7420736574206164647265737320746f2030000000000000000000604482015260640160405180910390fd5b600280546001600160a01b039283166001600160a01b031991821617909155600180549390921692811692909217905560038054909116331790556200016f565b80516001600160a01b03811681146200013357600080fd5b919050565b600080604083850312156200014b578182fd5b62000156836200011b565b915062000166602084016200011b565b90509250929050565b611afa806200017f6000396000f3fe60806040526004361061011f5760003560e01c806385652740116100a0578063d5f2142f11610064578063d5f2142f14610311578063d88532aa14610331578063de2a0b3814610351578063ed1be9e414610371578063f2fde38b1461038457600080fd5b8063856527401461026f5780638da5cb5b14610291578063b7ab4db5146102af578063c8fa97d8146102d1578063d01adcc1146102f157600080fd5b806366e992e5116100e757806366e992e5146101e9578063707d5fda14610207578063715018a614610227578063773b6a161461023c57806379a432fd1461025157600080fd5b80630a036a0a1461012457806310edcb10146101465780631c8bc79b1461016a57806340a141ff1461019757806365cacaa4146101b7575b600080fd5b34801561013057600080fd5b5061014461013f366004611768565b6103a4565b005b34801561015257600080fd5b506005545b6040519081526020015b60405180910390f35b34801561017657600080fd5b5061018a61018536600461180f565b610482565b6040516101619190611986565b3480156101a357600080fd5b506101446101b2366004611768565b610532565b3480156101c357600080fd5b506001546001600160a01b03165b6040516001600160a01b039091168152602001610161565b3480156101f557600080fd5b506002546001600160a01b03166101d1565b34801561021357600080fd5b50610144610222366004611789565b6106f4565b34801561023357600080fd5b506101446109f3565b34801561024857600080fd5b50600654610157565b34801561025d57600080fd5b506003546001600160a01b03166101d1565b34801561027b57600080fd5b50610284610aa9565b604051610161919061194e565b34801561029d57600080fd5b506000546001600160a01b03166101d1565b3480156102bb57600080fd5b506102c4610b01565b6040516101619190611901565b3480156102dd57600080fd5b506101446102ec3660046118cd565b610b62565b3480156102fd57600080fd5b5061014461030c366004611768565b610e0f565b34801561031d57600080fd5b5061014461032c366004611768565b610eeb565b34801561033d57600080fd5b5061014461034c3660046118cd565b610fb9565b34801561035d57600080fd5b5061014461036c366004611768565b6110e0565b61014461037f36600461184a565b6111d6565b34801561039057600080fd5b5061014461039f366004611768565b611422565b6002546001600160a01b031633146103d75760405162461bcd60e51b81526004016103ce906119b9565b60405180910390fd5b6001600160a01b03811661042d5760405162461bcd60e51b815260206004820152601960248201527f5661756c7420616464726573732063616e6e6f7420626520300000000000000060448201526064016103ce565b600180546001600160a01b0319166001600160a01b0383169081179091556040519081527f2cd7a531712f8899004c782d9607e0886d1dbc91bfac7be88dadf6750d9e1419906020015b60405180910390a150565b606060098260405161049491906118e5565b908152602001604051809103902080546104ad90611a42565b80601f01602080910402602001604051908101604052809291908181526020018280546104d990611a42565b80156105265780601f106104fb57610100808354040283529160200191610526565b820191906000526020600020905b81548152906001019060200180831161050957829003601f168201915b50505050509050919050565b6002546001600160a01b0316331461055c5760405162461bcd60e51b81526004016103ce906119b9565b60005b60045481116106ba57816001600160a01b03166004828154811061059357634e487b7160e01b600052603260045260246000fd5b6000918252602090912001546001600160a01b031614156106a857600480546105be906001906119fb565b815481106105dc57634e487b7160e01b600052603260045260246000fd5b600091825260209091200154600480546001600160a01b03909216918390811061061657634e487b7160e01b600052603260045260246000fd5b9060005260206000200160006101000a8154816001600160a01b0302191690836001600160a01b03160217905550600480548061066357634e487b7160e01b600052603160045260246000fd5b600082815260209020810160001990810180546001600160a01b0319169055019055600554600110156106a357600160055461069f91906119fb565b6005555b6106ba565b806106b281611a7d565b91505061055f565b506040516001600160a01b03821681527fb625c55cf7e37b54fcd18bc4edafdf3f4f9acd59a5ec824c77c795dcb2d6507090602001610477565b6003546001600160a01b031633146107665760405162461bcd60e51b815260206004820152602f60248201527f4f6e6c792074686520636f6e74726f6c6c65722063616e20637265617465206e60448201526e6577207472616e73616374696f6e7360881b60648201526084016103ce565b60068054600090815260086020908152604080832080546001600160a01b03808b166001600160a01b03199283161790925585548552828520600101889055855485528285206002018054928a16929091169190911790559254825291902082516107d99260049092019184019061162c565b50600554600114156109375760018054600654600090815260086020526040908190206002810154815491909401549151631501bf0360e01b81526001600160a01b03948516600482015290841660248201526044810191909152911690631501bf0390606401600060405180830381600087803b15801561085a57600080fd5b505af115801561086e573d6000803e3d6000fd5b505060065460008181526008602052604090819020805460019091015491516001600160a01b0390911694507f8eeb3b735823598d4f0983d7d10160591a8093ab8909ba839a8bb63e01e400e993506108d09290918252602082015260400190565b60405180910390a27f1fc8f2a696a1eb2860eaa6ee37c3ae6f7f4998983cb8232dbecc5a3c3f3fb1d560065460405161090b91815260200190565b60405180910390a16006546000908152600860205260409020600501805460ff191660011790556109d5565b6006805460009081526008602090815260408083206003018054600180820183559185528385200180546001600160a01b0319163317905593546007805495860181559093527fa66cc928b5edb82af9bd49922954155ab7b0942694bea4ce44661d9a8736c68890930182905591519081527f1fc8f2a696a1eb2860eaa6ee37c3ae6f7f4998983cb8232dbecc5a3c3f3fb1d5910160405180910390a15b6001600660008282546109e891906119e3565b909155505050505050565b6000546001600160a01b03163314610a4d5760405162461bcd60e51b815260206004820181905260248201527f4f776e61626c653a2063616c6c6572206973206e6f7420746865206f776e657260448201526064016103ce565b60405162461bcd60e51b815260206004820152602b60248201527f43616e6e6f742072656e6f756e63654f776e657273686970207769746820746860448201526a1a5cc818dbdb9d1c9858dd60aa1b60648201526084016103ce565b60606007805480602002602001604051908101604052809291908181526020018280548015610af757602002820191906000526020600020905b815481526020019060010190808311610ae3575b5050505050905090565b60606004805480602002602001604051908101604052809291908181526020018280548015610af757602002820191906000526020600020905b81546001600160a01b03168152600190910190602001808311610b3b575050505050905090565b60005b600454811015610e0b57336001600160a01b031660048281548110610b9a57634e487b7160e01b600052603260045260246000fd5b6000918252602090912001546001600160a01b03161415610df9578160005b600082815260086020526040902060030154811015610c74576000828152600860205260409020600301805433919083908110610c0657634e487b7160e01b600052603260045260246000fd5b6000918252602090912001546001600160a01b03161415610c625760405162461bcd60e51b8152602060048201526016602482015275165bdd481a185d9948185b1c9958591e481d9bdd195960521b60448201526064016103ce565b80610c6c81611a7d565b915050610bb9565b5060008381526008602052604090206005015460ff1615610cc85760405162461bcd60e51b815260206004820152600e60248201526d105b1c9958591e4814da59db995960921b60448201526064016103ce565b60008381526008602090815260408220600301805460018101825581845291832090910180546001600160a01b03191633179055600554918590525410610df75760018054600085815260086020526040908190206002810154815491909401549151631501bf0360e01b81526001600160a01b03948516600482015290841660248201526044810191909152911690631501bf0390606401600060405180830381600087803b158015610d7b57600080fd5b505af1158015610d8f573d6000803e3d6000fd5b50505050610d9c8361153c565b600083815260086020908152604091829020805460019091015483519081529182018690526001600160a01b0316917f8eeb3b735823598d4f0983d7d10160591a8093ab8909ba839a8bb63e01e400e9910160405180910390a25b505b80610e0381611a7d565b915050610b65565b5050565b6002546001600160a01b03163314610e395760405162461bcd60e51b81526004016103ce906119b9565b6001600160a01b038116610e9d5760405162461bcd60e51b815260206004820152602560248201527f42726964676520636f6e74726f6c6c657220616464726573732063616e6e6f74604482015264020626520360dc1b60648201526084016103ce565b600380546001600160a01b0319166001600160a01b0383169081179091556040519081527f03cc69f07650269dffd0ab57addc196077b15d88a45cc3fc1a8789e9a5d7e56590602001610477565b6002546001600160a01b03163314610f155760405162461bcd60e51b81526004016103ce906119b9565b6001600160a01b038116610f6b5760405162461bcd60e51b815260206004820152601760248201527f43616e6e6f7420736574206164647265737320746f203000000000000000000060448201526064016103ce565b600280546001600160a01b0319166001600160a01b0383169081179091556040519081527fd98884b1ee7930ff2f73f6350aa67967fb4602d47c36aac140b52b7b4234169290602001610477565b6002546001600160a01b03163314610fe35760405162461bcd60e51b81526004016103ce906119b9565b60045481111561105b5760405162461bcd60e51b815260206004820152603760248201527f56616c69646174696f6e207468726573686f6c642063616e6e6f74206578636560448201527f656420616d6f756e74206f662076616c696461746f727300000000000000000060648201526084016103ce565b600081116110ab5760405162461bcd60e51b815260206004820181905260248201527f5468726573686f6c64206d7573742062652067726561746572207468616e203060448201526064016103ce565b60058190556040518181527f1708f63877de5b15d362050c10cd950fac8aa3cf866ecb3221cded5f0b0defae90602001610477565b6002546001600160a01b0316331461110a5760405162461bcd60e51b81526004016103ce906119b9565b6001600160a01b0381166111585760405162461bcd60e51b8152602060048201526015602482015274056616c696461746f722063616e6e6f74206265203605c1b60448201526064016103ce565b600480546001810182556000919091527f8a35acfbc15ff81a39ae7d344fd709f28e8600b4aa8c65c6b64bfe7fe36bd19b0180546001600160a01b0319166001600160a01b0383169081179091556040519081527fde513172fa9aebe33b2500a73bc4da571623297742469f4701069fc69a4b528f90602001610477565b6000811161121c5760405162461bcd60e51b8152602060048201526013602482015272135d5cdd081cd95b9908185b88185b5bdd5b9d606a1b60448201526064016103ce565b81341461126b5760405162461bcd60e51b815260206004820152601960248201527f43616c63756c61746564206665652073656e742077726f6e670000000000000060448201526064016103ce565b60098560405161127b91906118e5565b9081526020016040518091039020805461129490611a42565b1590506112e35760405162461bcd60e51b815260206004820152601960248201527f4d7573742062652061206e6577207472616e73616374696f6e0000000000000060448201526064016103ce565b836009866040516112f491906118e5565b9081526020016040518091039020908051906020019061131592919061162c565b506040516323b872dd60e01b8152336004820152306024820152604481018290526001600160a01b038416906323b872dd90606401602060405180830381600087803b15801561136457600080fd5b505af1158015611378573d6000803e3d6000fd5b505050506040513d601f19601f8201168201806040525081019061139c91906117ef565b506003546040516001600160a01b03909116903480156108fc02916000818181858888f193505050501580156113d6573d6000803e3d6000fd5b50604080516001600160a01b03851681526020810183905233917f22eb28040fe59a536771aef43cac330a1613b301e769100ba3ad6f14cc1f70be910160405180910390a25050505050565b6000546001600160a01b0316331461147c5760405162461bcd60e51b815260206004820181905260248201527f4f776e61626c653a2063616c6c6572206973206e6f7420746865206f776e657260448201526064016103ce565b6001600160a01b0381166114e15760405162461bcd60e51b815260206004820152602660248201527f4f776e61626c653a206e6577206f776e657220697320746865207a65726f206160448201526564647265737360d01b60648201526084016103ce565b600080546040516001600160a01b03808516939216917f8be0079c531659141344cd1fd0a4f28419497f9722a3daafe3b4186f6b6457e091a3600080546001600160a01b0319166001600160a01b0392909216919091179055565b60005b6007548111610e0b57816007828154811061156a57634e487b7160e01b600052603260045260246000fd5b9060005260206000200154141561161a576007805461158b906001906119fb565b815481106115a957634e487b7160e01b600052603260045260246000fd5b9060005260206000200154600782815481106115d557634e487b7160e01b600052603260045260246000fd5b600091825260209091200155600780548061160057634e487b7160e01b600052603160045260246000fd5b600190038181906000526020600020016000905590555050565b8061162481611a7d565b91505061153f565b82805461163890611a42565b90600052602060002090601f01602090048101928261165a57600085556116a0565b82601f1061167357805160ff19168380011785556116a0565b828001600101855582156116a0579182015b828111156116a0578251825591602001919060010190611685565b506116ac9291506116b0565b5090565b5b808211156116ac57600081556001016116b1565b80356001600160a01b03811681146116dc57600080fd5b919050565b600082601f8301126116f1578081fd5b813567ffffffffffffffff8082111561170c5761170c611aae565b604051601f8301601f19908116603f0116810190828211818310171561173457611734611aae565b8160405283815286602085880101111561174c578485fd5b8360208701602083013792830160200193909352509392505050565b600060208284031215611779578081fd5b611782826116c5565b9392505050565b6000806000806080858703121561179e578283fd5b6117a7856116c5565b93506117b5602086016116c5565b925060408501359150606085013567ffffffffffffffff8111156117d7578182fd5b6117e3878288016116e1565b91505092959194509250565b600060208284031215611800578081fd5b81518015158114611782578182fd5b600060208284031215611820578081fd5b813567ffffffffffffffff811115611836578182fd5b611842848285016116e1565b949350505050565b600080600080600060a08688031215611861578081fd5b853567ffffffffffffffff80821115611878578283fd5b61188489838a016116e1565b96506020880135915080821115611899578283fd5b506118a6888289016116e1565b9450506118b5604087016116c5565b94979396509394606081013594506080013592915050565b6000602082840312156118de578081fd5b5035919050565b600082516118f7818460208701611a12565b9190910192915050565b6020808252825182820181905260009190848201906040850190845b818110156119425783516001600160a01b03168352928401929184019160010161191d565b50909695505050505050565b6020808252825182820181905260009190848201906040850190845b818110156119425783518352928401929184019160010161196a565b60208152600082518060208401526119a5816040850160208701611a12565b601f01601f19169190910160400192915050565b60208082526010908201526f4e6f7420746865206d756c746973696760801b604082015260600190565b600082198211156119f6576119f6611a98565b500190565b600082821015611a0d57611a0d611a98565b500390565b60005b83811015611a2d578181015183820152602001611a15565b83811115611a3c576000848401525b50505050565b600181811c90821680611a5657607f821691505b60208210811415611a7757634e487b7160e01b600052602260045260246000fd5b50919050565b6000600019821415611a9157611a91611a98565b5060010190565b634e487b7160e01b600052601160045260246000fd5b634e487b7160e01b600052604160045260246000fdfea264697066735822122057033bc6619ecc27d98b69449648a8140f76f6b837d3cf67954272094726fbb164736f6c63430008040033"}}