{"compiler":"v0.7.4+commit.3f05b770","opcodeHash":"0x268a1b98c9731c00133bcbebde974ed0cb3d146ab5073f79ee4d6836ef16da63","metalessHash":"0x711d01fabd3e475e59daefb4a8966535b1e1afa64fbd724ebe3ab8d3e7ddf633","runtimeHash":"0xaa10c7ed59fdb53adbbbec80a7db2b79b23e70b768e41c77fd791cf1395a6683","encodedMetadata":[{"ipfs":"/ipfs/QmdiyLfi1LcraJDC6hoYumqL4tPtMvwLw9rA4vh53trkM2","solc":"0.7.4"}],"abi":[{"inputs":[{"internalType":"address","name":"_saffron_pool","type":"address"},{"internalType":"address","name":"CErc20_contract_address","type":"address"},{"internalType":"address","name":"base_asset_address","type":"address"}],"stateMutability":"nonpayable","type":"constructor"},{"anonymous":false,"inputs":[{"indexed":false,"internalType":"address","name":"who","type":"address"},{"indexed":false,"internalType":"address","name":"to","type":"address"},{"indexed":false,"internalType":"address","name":"token","type":"address"},{"indexed":false,"internalType":"uint256","name":"amount","type":"uint256"}],"name":"ErcSwept","type":"event"},{"anonymous":false,"inputs":[{"indexed":false,"internalType":"uint256","name":"","type":"uint256"},{"indexed":false,"internalType":"uint256","name":"","type":"uint256"}],"name":"GetExchangeRate","type":"event"},{"anonymous":false,"inputs":[{"indexed":false,"internalType":"uint256","name":"holdings","type":"uint256"}],"name":"GetHoldings","type":"event"},{"anonymous":false,"inputs":[{"indexed":false,"internalType":"bool","name":"zero_interest","type":"bool"}],"name":"GetInterestEvaluatedToZero","type":"event"},{"anonymous":false,"inputs":[{"indexed":false,"internalType":"uint256","name":"cdai_balance","type":"uint256"},{"indexed":false,"internalType":"uint256","name":"base_asset_amount","type":"uint256"}],"name":"ReturnCapital","type":"event"},{"anonymous":false,"inputs":[{"indexed":false,"internalType":"address","name":"who","type":"address"},{"indexed":false,"internalType":"address","name":"to","type":"address"},{"indexed":false,"internalType":"uint256","name":"cBal","type":"uint256"},{"indexed":false,"internalType":"uint256","name":"dBal","type":"uint256"}],"name":"Swept","type":"event"},{"inputs":[],"name":"WBTC","outputs":[{"internalType":"contract IERC20","name":"","type":"address"}],"stateMutability":"view","type":"function"},{"inputs":[{"internalType":"address","name":"addr","type":"address"},{"internalType":"uint256","name":"amount","type":"uint256"}],"name":"approve_transfer","outputs":[],"stateMutability":"nonpayable","type":"function"},{"inputs":[],"name":"cWBTC","outputs":[{"internalType":"contract ICErc20","name":"","type":"address"}],"stateMutability":"view","type":"function"},{"inputs":[],"name":"created","outputs":[{"internalType":"uint256","name":"","type":"uint256"}],"stateMutability":"view","type":"function"},{"inputs":[{"internalType":"uint256","name":"amount","type":"uint256"}],"name":"deploy_capital","outputs":[],"stateMutability":"nonpayable","type":"function"},{"inputs":[{"internalType":"address","name":"_token","type":"address"},{"internalType":"address","name":"_to","type":"address"}],"name":"erc_sweep","outputs":[],"stateMutability":"nonpayable","type":"function"},{"inputs":[],"name":"get_base_asset_address","outputs":[{"internalType":"address","name":"","type":"address"}],"stateMutability":"view","type":"function"},{"inputs":[],"name":"get_ctoken_balance","outputs":[{"internalType":"uint256","name":"","type":"uint256"}],"stateMutability":"view","type":"function"},{"inputs":[],"name":"get_exchange_rate","outputs":[{"internalType":"uint256","name":"","type":"uint256"}],"stateMutability":"nonpayable","type":"function"},{"inputs":[],"name":"get_holdings","outputs":[{"internalType":"uint256","name":"","type":"uint256"}],"stateMutability":"nonpayable","type":"function"},{"inputs":[{"internalType":"uint256","name":"principal","type":"uint256"}],"name":"get_interest","outputs":[{"internalType":"uint256","name":"","type":"uint256"}],"stateMutability":"nonpayable","type":"function"},{"inputs":[],"name":"governance","outputs":[{"internalType":"address","name":"","type":"address"}],"stateMutability":"view","type":"function"},{"inputs":[],"name":"name","outputs":[{"internalType":"string","name":"","type":"string"}],"stateMutability":"view","type":"function"},{"inputs":[],"name":"platform","outputs":[{"internalType":"string","name":"","type":"string"}],"stateMutability":"view","type":"function"},{"inputs":[{"internalType":"uint256","name":"base_asset_amount","type":"uint256"},{"internalType":"address","name":"to","type":"address"}],"name":"return_capital","outputs":[],"stateMutability":"nonpayable","type":"function"},{"inputs":[],"name":"saffron_pool","outputs":[{"internalType":"contract ISaffronPool","name":"","type":"address"}],"stateMutability":"view","type":"function"},{"inputs":[{"internalType":"address","name":"addr","type":"address"}],"name":"set_base_asset","outputs":[],"stateMutability":"nonpayable","type":"function"},{"inputs":[{"internalType":"address","name":"to","type":"address"}],"name":"set_governance","outputs":[],"stateMutability":"nonpayable","type":"function"},{"inputs":[{"internalType":"address","name":"_to","type":"address"}],"name":"sweep","outputs":[],"stateMutability":"nonpayable","type":"function"}],"bytecode":{"object":"608060405234801561001057600080fd5b50604051611d89380380611d898339818101604052606081101561003357600080fd5b5080516020820151604090920151600180546001600160a01b039384166001600160a01b03199182161790915560008054821633179055600380549484169482169490941790935560028054929091169190921617905542600455611cec8061009d6000396000f3fe608060405234801561001057600080fd5b50600436106101515760003560e01c80634bde38c8116100cd5780636bab3c7411610081578063a72b6c3011610066578063a72b6c3014610397578063ef0f23651461039f578063fe9f6e24146103d857610151565b80636bab3c741461035657806396728a721461035e57610151565b806357d76454116100b257806357d764541461033e5780635aa6e675146103465780635edd87221461034e57610151565b80634bde38c8146103055780634dede3de1461030d57610151565b80631a2b3832116101245780631f472254116101095780631f472254146102ba5780632b666fcf146102c2578063325a19f1146102fd57610151565b80631a2b38321461026e5780631d2e62d91461029d57610151565b806301681a621461015657806306fdde031461018b578063070313fa146102085780630bac23201461023b575b600080fd5b6101896004803603602081101561016c57600080fd5b503573ffffffffffffffffffffffffffffffffffffffff166103e0565b005b610193610759565b6040805160208082528351818301528351919283929083019185019080838360005b838110156101cd5781810151838201526020016101b5565b50505050905090810190601f1680156101fa5780820380516001836020036101000a031916815260200191505b509250505060405180910390f35b6101896004803603602081101561021e57600080fd5b503573ffffffffffffffffffffffffffffffffffffffff16610792565b6101896004803603602081101561025157600080fd5b503573ffffffffffffffffffffffffffffffffffffffff1661085f565b61028b6004803603602081101561028457600080fd5b503561092c565b60408051918252519081900360200190f35b610189600480360360208110156102b357600080fd5b5035610993565b61028b610af0565b610189600480360360408110156102d857600080fd5b5073ffffffffffffffffffffffffffffffffffffffff81358116916020013516610b92565b61028b610e71565b610193610e77565b610315610eb0565b6040805173ffffffffffffffffffffffffffffffffffffffff9092168252519081900360200190f35b610315610ecc565b610315610ee8565b610315610f04565b61028b610f20565b6101896004803603604081101561037457600080fd5b508035906020013573ffffffffffffffffffffffffffffffffffffffff166110ad565b6103156112d8565b610189600480360360408110156103b557600080fd5b5073ffffffffffffffffffffffffffffffffffffffff81351690602001356112f4565b61028b61139e565b60005473ffffffffffffffffffffffffffffffffffffffff16331461046657604080517f08c379a000000000000000000000000000000000000000000000000000000000815260206004820152601260248201527f6d75737420626520676f7665726e616e63650000000000000000000000000000604482015290519081900360640190fd5b600354604080517f70a08231000000000000000000000000000000000000000000000000000000008152306004820152905173ffffffffffffffffffffffffffffffffffffffff9092169160009183916370a0823191602480820192602092909190829003018186803b1580156104dc57600080fd5b505afa1580156104f0573d6000803e3d6000fd5b505050506040513d602081101561050657600080fd5b5051604080517fa9059cbb00000000000000000000000000000000000000000000000000000000815273ffffffffffffffffffffffffffffffffffffffff86811660048301526024820184905291519293509084169163a9059cbb916044808201926020929091908290030181600087803b15801561058457600080fd5b505af1158015610598573d6000803e3d6000fd5b505050506040513d60208110156105ae57600080fd5b5050600254604080517f70a08231000000000000000000000000000000000000000000000000000000008152306004820152905160009273ffffffffffffffffffffffffffffffffffffffff16916370a08231916024808301926020929190829003018186803b15801561062157600080fd5b505afa158015610635573d6000803e3d6000fd5b505050506040513d602081101561064b57600080fd5b5051600254604080517fa9059cbb00000000000000000000000000000000000000000000000000000000815273ffffffffffffffffffffffffffffffffffffffff888116600483015260248201859052915193945091169163a9059cbb916044808201926020929091908290030181600087803b1580156106cb57600080fd5b505af11580156106df573d6000803e3d6000fd5b505050506040513d60208110156106f557600080fd5b50506040805133815273ffffffffffffffffffffffffffffffffffffffff861660208201528082018490526060810183905290517f8496dda4d04919fec296be83f4d7d178dafb7c0d3abe1553c092f1466e8f29289181900360800190a150505050565b6040518060400160405280600d81526020017f574254432f436f6d706f756e640000000000000000000000000000000000000081525081565b60005473ffffffffffffffffffffffffffffffffffffffff16331461081857604080517f08c379a000000000000000000000000000000000000000000000000000000000815260206004820152601260248201527f6d75737420626520676f7665726e616e63650000000000000000000000000000604482015290519081900360640190fd5b600080547fffffffffffffffffffffffff00000000000000000000000000000000000000001673ffffffffffffffffffffffffffffffffffffffff92909216919091179055565b60005473ffffffffffffffffffffffffffffffffffffffff1633146108e557604080517f08c379a000000000000000000000000000000000000000000000000000000000815260206004820152601260248201527f6d75737420626520676f7665726e616e63650000000000000000000000000000604482015290519081900360640190fd5b600280547fffffffffffffffffffffffff00000000000000000000000000000000000000001673ffffffffffffffffffffffffffffffffffffffff92909216919091179055565b600081610937610f20565b101561097957604080516001815290517fca0749872d39e09c4518033fa5a7468af8c9d967db231fc74771ba76a2a892aa9181900360200190a150600061098e565b61098b82610985610f20565b9061148a565b90505b919050565b60015473ffffffffffffffffffffffffffffffffffffffff163314610a1957604080517f08c379a000000000000000000000000000000000000000000000000000000000815260206004820152600c60248201527f6d75737420626520706f6f6c0000000000000000000000000000000000000000604482015290519081900360640190fd5b600354600254610a439173ffffffffffffffffffffffffffffffffffffffff9182169116836114d5565b600354604080517fa0712d6800000000000000000000000000000000000000000000000000000000815260048101849052905160009273ffffffffffffffffffffffffffffffffffffffff169163a0712d6891602480830192602092919082900301818787803b158015610ab657600080fd5b505af1158015610aca573d6000803e3d6000fd5b505050506040513d6020811015610ae057600080fd5b505190508015610aec57fe5b5050565b600354604080517f70a08231000000000000000000000000000000000000000000000000000000008152306004820152905160009273ffffffffffffffffffffffffffffffffffffffff16916370a08231916024808301926020929190829003018186803b158015610b6157600080fd5b505afa158015610b75573d6000803e3d6000fd5b505050506040513d6020811015610b8b57600080fd5b5051905090565b60005473ffffffffffffffffffffffffffffffffffffffff163314610c1857604080517f08c379a000000000000000000000000000000000000000000000000000000000815260206004820152601260248201527f6d75737420626520676f7665726e616e63650000000000000000000000000000604482015290519081900360640190fd5b60025473ffffffffffffffffffffffffffffffffffffffff838116911614801590610c5e575060035473ffffffffffffffffffffffffffffffffffffffff838116911614155b610cc957604080517f08c379a000000000000000000000000000000000000000000000000000000000815260206004820152601b60248201527f63616e6e6f742073776565702061646170746572206173736574730000000000604482015290519081900360640190fd5b604080517f70a082310000000000000000000000000000000000000000000000000000000081523060048201529051839160009173ffffffffffffffffffffffffffffffffffffffff8416916370a08231916024808301926020929190829003018186803b158015610d3a57600080fd5b505afa158015610d4e573d6000803e3d6000fd5b505050506040513d6020811015610d6457600080fd5b5051604080517fa9059cbb00000000000000000000000000000000000000000000000000000000815273ffffffffffffffffffffffffffffffffffffffff86811660048301526024820184905291519293509084169163a9059cbb916044808201926020929091908290030181600087803b158015610de257600080fd5b505af1158015610df6573d6000803e3d6000fd5b505050506040513d6020811015610e0c57600080fd5b50506040805133815273ffffffffffffffffffffffffffffffffffffffff80861660208301528616818301526060810183905290517f2c4e64c7c0957a81c0076a0a3f3c7d9f0a5d6158292071c794436f829d12cfb79181900360800190a150505050565b60045481565b6040518060400160405280600881526020017f436f6d706f756e6400000000000000000000000000000000000000000000000081525081565b60025473ffffffffffffffffffffffffffffffffffffffff1681565b60015473ffffffffffffffffffffffffffffffffffffffff1681565b60005473ffffffffffffffffffffffffffffffffffffffff1681565b60035473ffffffffffffffffffffffffffffffffffffffff1681565b600080611071670de0b6b3a764000061106b600360009054906101000a900473ffffffffffffffffffffffffffffffffffffffff1673ffffffffffffffffffffffffffffffffffffffff1663bd6d894d6040518163ffffffff1660e01b8152600401602060405180830381600087803b158015610f9c57600080fd5b505af1158015610fb0573d6000803e3d6000fd5b505050506040513d6020811015610fc657600080fd5b5051600354604080517f70a08231000000000000000000000000000000000000000000000000000000008152306004820152905173ffffffffffffffffffffffffffffffffffffffff909216916370a0823191602480820192602092909190829003018186803b15801561103957600080fd5b505afa15801561104d573d6000803e3d6000fd5b505050506040513d602081101561106357600080fd5b505190611668565b906116db565b6040805182815290519192507f5c24768b1cbbc7ca660ecfb0fb197f0b650fd29e2cc97590c785df0562a9d379919081900360200190a1905090565b60015473ffffffffffffffffffffffffffffffffffffffff16331461113357604080517f08c379a000000000000000000000000000000000000000000000000000000000815260206004820152600c60248201527f6d75737420626520706f6f6c0000000000000000000000000000000000000000604482015290519081900360640190fd5b600354604080517f852a12e300000000000000000000000000000000000000000000000000000000815260048101859052905160009273ffffffffffffffffffffffffffffffffffffffff169163852a12e391602480830192602092919082900301818787803b1580156111a657600080fd5b505af11580156111ba573d6000803e3d6000fd5b505050506040513d60208110156111d057600080fd5b5051905080156111dc57fe5b6002546112009073ffffffffffffffffffffffffffffffffffffffff16838561171d565b600354604080517f70a0823100000000000000000000000000000000000000000000000000000000815230600482015290517f2edef9b9515ca7b037030c4532395138fcae5b3797a73924a01f6e8e20bca9019273ffffffffffffffffffffffffffffffffffffffff16916370a08231916024808301926020929190829003018186803b15801561129057600080fd5b505afa1580156112a4573d6000803e3d6000fd5b505050506040513d60208110156112ba57600080fd5b505160408051918252602082018690528051918290030190a1505050565b60025473ffffffffffffffffffffffffffffffffffffffff1690565b60005473ffffffffffffffffffffffffffffffffffffffff16331461137a57604080517f08c379a000000000000000000000000000000000000000000000000000000000815260206004820152601260248201527f6d75737420626520676f7665726e616e63650000000000000000000000000000604482015290519081900360640190fd5b600254610aec9073ffffffffffffffffffffffffffffffffffffffff1683836114d5565b600080600360009054906101000a900473ffffffffffffffffffffffffffffffffffffffff1673ffffffffffffffffffffffffffffffffffffffff1663bd6d894d6040518163ffffffff1660e01b8152600401602060405180830381600087803b15801561140b57600080fd5b505af115801561141f573d6000803e3d6000fd5b505050506040513d602081101561143557600080fd5b505190507f5cbc07272c83481bc23ef50fd3551981db4987f6576b59f44818413a484becf98161146d81670de0b6b3a76400006116db565b6040805192835260208301919091528051918290030190a1905090565b60006114cc83836040518060400160405280601e81526020017f536166654d6174683a207375627472616374696f6e206f766572666c6f7700008152506117aa565b90505b92915050565b8015806115815750604080517fdd62ed3e00000000000000000000000000000000000000000000000000000000815230600482015273ffffffffffffffffffffffffffffffffffffffff848116602483015291519185169163dd62ed3e91604480820192602092909190829003018186803b15801561155357600080fd5b505afa158015611567573d6000803e3d6000fd5b505050506040513d602081101561157d57600080fd5b5051155b6115d6576040517f08c379a0000000000000000000000000000000000000000000000000000000008152600401808060200182810382526036815260200180611c816036913960400191505060405180910390fd5b6040805173ffffffffffffffffffffffffffffffffffffffff8416602482015260448082018490528251808303909101815260649091019091526020810180517bffffffffffffffffffffffffffffffffffffffffffffffffffffffff167f095ea7b300000000000000000000000000000000000000000000000000000000179052611663908490611860565b505050565b600082611677575060006114cf565b8282028284828161168457fe5b04146114cc576040517f08c379a0000000000000000000000000000000000000000000000000000000008152600401808060200182810382526021815260200180611c366021913960400191505060405180910390fd5b60006114cc83836040518060400160405280601a81526020017f536166654d6174683a206469766973696f6e206279207a65726f000000000000815250611938565b6040805173ffffffffffffffffffffffffffffffffffffffff8416602482015260448082018490528251808303909101815260649091019091526020810180517bffffffffffffffffffffffffffffffffffffffffffffffffffffffff167fa9059cbb00000000000000000000000000000000000000000000000000000000179052611663908490611860565b60008184841115611853576040517f08c379a00000000000000000000000000000000000000000000000000000000081526004018080602001828103825283818151815260200191508051906020019080838360005b83811015611818578181015183820152602001611800565b50505050905090810190601f1680156118455780820380516001836020036101000a031916815260200191505b509250505060405180910390fd5b50508183035b9392505050565b60606118c2826040518060400160405280602081526020017f5361666545524332303a206c6f772d6c6576656c2063616c6c206661696c65648152508573ffffffffffffffffffffffffffffffffffffffff166119b79092919063ffffffff16565b805190915015611663578080602001905160208110156118e157600080fd5b5051611663576040517f08c379a000000000000000000000000000000000000000000000000000000000815260040180806020018281038252602a815260200180611c57602a913960400191505060405180910390fd5b600081836119a1576040517f08c379a0000000000000000000000000000000000000000000000000000000008152602060048201818152835160248401528351909283926044909101919085019080838360008315611818578181015183820152602001611800565b5060008385816119ad57fe5b0495945050505050565b60606119c684846000856119ce565b949350505050565b606082471015611a29576040517f08c379a0000000000000000000000000000000000000000000000000000000008152600401808060200182810382526026815260200180611c106026913960400191505060405180910390fd5b611a3285611b89565b611a9d57604080517f08c379a000000000000000000000000000000000000000000000000000000000815260206004820152601d60248201527f416464726573733a2063616c6c20746f206e6f6e2d636f6e7472616374000000604482015290519081900360640190fd5b600060608673ffffffffffffffffffffffffffffffffffffffff1685876040518082805190602001908083835b60208310611b0757805182527fffffffffffffffffffffffffffffffffffffffffffffffffffffffffffffffe09092019160209182019101611aca565b6001836020036101000a03801982511681845116808217855250505050505090500191505060006040518083038185875af1925050503d8060008114611b69576040519150601f19603f3d011682016040523d82523d6000602084013e611b6e565b606091505b5091509150611b7e828286611b8f565b979650505050505050565b3b151590565b60608315611b9e575081611859565b825115611bae5782518084602001fd5b6040517f08c379a000000000000000000000000000000000000000000000000000000000815260206004820181815284516024840152845185939192839260440191908501908083836000831561181857818101518382015260200161180056fe416464726573733a20696e73756666696369656e742062616c616e636520666f722063616c6c536166654d6174683a206d756c7469706c69636174696f6e206f766572666c6f775361666545524332303a204552433230206f7065726174696f6e20646964206e6f7420737563636565645361666545524332303a20617070726f76652066726f6d206e6f6e2d7a65726f20746f206e6f6e2d7a65726f20616c6c6f77616e6365a264697066735822122034569a294adb6e3ad850f2a113c77f5354c0ca6d7b7b857bb8884faeff5bcce664736f6c63430007040033"}}