{
  "opcodeHash": "0xa301a283edcf8dcc93bfca9af742a65bfea2f58e75fe76bba3d747497a23bd63",
  "metalessHash": "0x128142acddf1dd9f4f04d5a401fa1cd445664e172f62339218a59c75e9b10137",
  "runtimeHash": "0x6083e4cbebd33aeb106475d9a673de2af72b4b5873d8a8c061debf95991f976b",
  "encodedMetadata": [
    {
      "ipfs": "/ipfs/Qmbn55uMvxvXH1G9WDswq6bZQFFhuyvEmFvWAPeYDmPgDD",
      "solc": "0.8.10"
    }
  ],
  "abi": [
    {
      "inputs": [
        {
          "internalType": "string",
          "name": "_name",
          "type": "string"
        },
        {
          "internalType": "string",
          "name": "_symbol",
          "type": "string"
        }
      ],
      "stateMutability": "nonpayable",
      "type": "constructor"
    },
    {
      "anonymous": false,
      "inputs": [
        {
          "indexed": true,
          "internalType": "address",
          "name": "owner",
          "type": "address"
        },
        {
          "indexed": true,
          "internalType": "address",
          "name": "approved",
          "type": "address"
        },
        {
          "indexed": true,
          "internalType": "uint256",
          "name": "tokenId",
          "type": "uint256"
        }
      ],
      "name": "Approval",
      "type": "event"
    },
    {
      "anonymous": false,
      "inputs": [
        {
          "indexed": true,
          "internalType": "address",
          "name": "owner",
          "type": "address"
        },
        {
          "indexed": true,
          "internalType": "address",
          "name": "operator",
          "type": "address"
        },
        {
          "indexed": false,
          "internalType": "bool",
          "name": "approved",
          "type": "bool"
        }
      ],
      "name": "ApprovalForAll",
      "type": "event"
    },
    {
      "anonymous": false,
      "inputs": [
        {
          "indexed": true,
          "internalType": "address",
          "name": "previousOwner",
          "type": "address"
        },
        {
          "indexed": true,
          "internalType": "address",
          "name": "newOwner",
          "type": "address"
        }
      ],
      "name": "OwnershipTransferred",
      "type": "event"
    },
    {
      "anonymous": false,
      "inputs": [
        {
          "indexed": true,
          "internalType": "address",
          "name": "from",
          "type": "address"
        },
        {
          "indexed": true,
          "internalType": "address",
          "name": "to",
          "type": "address"
        },
        {
          "indexed": true,
          "internalType": "uint256",
          "name": "tokenId",
          "type": "uint256"
        }
      ],
      "name": "Transfer",
      "type": "event"
    },
    {
      "inputs": [],
      "name": "_trustedContract",
      "outputs": [
        {
          "internalType": "address",
          "name": "",
          "type": "address"
        }
      ],
      "stateMutability": "view",
      "type": "function"
    },
    {
      "inputs": [
        {
          "internalType": "address[]",
          "name": "_addresses",
          "type": "address[]"
        }
      ],
      "name": "addToWhitelist",
      "outputs": [],
      "stateMutability": "nonpayable",
      "type": "function"
    },
    {
      "inputs": [
        {
          "internalType": "address",
          "name": "to",
          "type": "address"
        },
        {
          "internalType": "uint256",
          "name": "tokenId",
          "type": "uint256"
        }
      ],
      "name": "approve",
      "outputs": [],
      "stateMutability": "nonpayable",
      "type": "function"
    },
    {
      "inputs": [
        {
          "internalType": "address",
          "name": "owner",
          "type": "address"
        }
      ],
      "name": "balanceOf",
      "outputs": [
        {
          "internalType": "uint256",
          "name": "",
          "type": "uint256"
        }
      ],
      "stateMutability": "view",
      "type": "function"
    },
    {
      "inputs": [],
      "name": "flipPresaleState",
      "outputs": [],
      "stateMutability": "nonpayable",
      "type": "function"
    },
    {
      "inputs": [],
      "name": "flipSaleState",
      "outputs": [],
      "stateMutability": "nonpayable",
      "type": "function"
    },
    {
      "inputs": [
        {
          "internalType": "uint256",
          "name": "tokenId",
          "type": "uint256"
        }
      ],
      "name": "getApproved",
      "outputs": [
        {
          "internalType": "address",
          "name": "",
          "type": "address"
        }
      ],
      "stateMutability": "view",
      "type": "function"
    },
    {
      "inputs": [
        {
          "internalType": "address",
          "name": "owner",
          "type": "address"
        },
        {
          "internalType": "address",
          "name": "operator",
          "type": "address"
        }
      ],
      "name": "isApprovedForAll",
      "outputs": [
        {
          "internalType": "bool",
          "name": "",
          "type": "bool"
        }
      ],
      "stateMutability": "view",
      "type": "function"
    },
    {
      "inputs": [],
      "name": "isPresaleActive",
      "outputs": [
        {
          "internalType": "bool",
          "name": "",
          "type": "bool"
        }
      ],
      "stateMutability": "view",
      "type": "function"
    },
    {
      "inputs": [],
      "name": "isSaleActive",
      "outputs": [
        {
          "internalType": "bool",
          "name": "",
          "type": "bool"
        }
      ],
      "stateMutability": "view",
      "type": "function"
    },
    {
      "inputs": [
        {
          "internalType": "address",
          "name": "_address",
          "type": "address"
        }
      ],
      "name": "isWhitelisted",
      "outputs": [
        {
          "internalType": "bool",
          "name": "",
          "type": "bool"
        }
      ],
      "stateMutability": "view",
      "type": "function"
    },
    {
      "inputs": [
        {
          "internalType": "uint256",
          "name": "_mintAmount",
          "type": "uint256"
        }
      ],
      "name": "mint",
      "outputs": [],
      "stateMutability": "payable",
      "type": "function"
    },
    {
      "inputs": [
        {
          "internalType": "uint256",
          "name": "_mintAmount",
          "type": "uint256"
        }
      ],
      "name": "mintPresale",
      "outputs": [],
      "stateMutability": "payable",
      "type": "function"
    },
    {
      "inputs": [],
      "name": "name",
      "outputs": [
        {
          "internalType": "string",
          "name": "",
          "type": "string"
        }
      ],
      "stateMutability": "view",
      "type": "function"
    },
    {
      "inputs": [],
      "name": "owner",
      "outputs": [
        {
          "internalType": "address",
          "name": "",
          "type": "address"
        }
      ],
      "stateMutability": "view",
      "type": "function"
    },
    {
      "inputs": [
        {
          "internalType": "uint256",
          "name": "tokenId",
          "type": "uint256"
        }
      ],
      "name": "ownerOf",
      "outputs": [
        {
          "internalType": "address",
          "name": "",
          "type": "address"
        }
      ],
      "stateMutability": "view",
      "type": "function"
    },
    {
      "inputs": [
        {
          "internalType": "address",
          "name": "",
          "type": "address"
        }
      ],
      "name": "presaleWhitelist",
      "outputs": [
        {
          "internalType": "bool",
          "name": "",
          "type": "bool"
        }
      ],
      "stateMutability": "view",
      "type": "function"
    },
    {
      "inputs": [
        {
          "internalType": "address",
          "name": "",
          "type": "address"
        }
      ],
      "name": "presaleWhitelistMints",
      "outputs": [
        {
          "internalType": "uint256",
          "name": "",
          "type": "uint256"
        }
      ],
      "stateMutability": "view",
      "type": "function"
    },
    {
      "inputs": [],
      "name": "renounceOwnership",
      "outputs": [],
      "stateMutability": "nonpayable",
      "type": "function"
    },
    {
      "inputs": [
        {
          "internalType": "address",
          "name": "_to",
          "type": "address"
        },
        {
          "internalType": "uint256",
          "name": "_reserveAmount",
          "type": "uint256"
        }
      ],
      "name": "reserve",
      "outputs": [],
      "stateMutability": "nonpayable",
      "type": "function"
    },
    {
      "inputs": [
        {
          "internalType": "address",
          "name": "from",
          "type": "address"
        },
        {
          "internalType": "address",
          "name": "to",
          "type": "address"
        },
        {
          "internalType": "uint256",
          "name": "tokenId",
          "type": "uint256"
        }
      ],
      "name": "safeTransferFrom",
      "outputs": [],
      "stateMutability": "nonpayable",
      "type": "function"
    },
    {
      "inputs": [
        {
          "internalType": "address",
          "name": "_from",
          "type": "address"
        },
        {
          "internalType": "address",
          "name": "_to",
          "type": "address"
        },
        {
          "internalType": "uint256",
          "name": "_tokenId",
          "type": "uint256"
        },
        {
          "internalType": "bytes",
          "name": "_data",
          "type": "bytes"
        }
      ],
      "name": "safeTransferFrom",
      "outputs": [],
      "stateMutability": "nonpayable",
      "type": "function"
    },
    {
      "inputs": [
        {
          "internalType": "address",
          "name": "operator",
          "type": "address"
        },
        {
          "internalType": "bool",
          "name": "approved",
          "type": "bool"
        }
      ],
      "name": "setApprovalForAll",
      "outputs": [],
      "stateMutability": "nonpayable",
      "type": "function"
    },
    {
      "inputs": [
        {
          "internalType": "string",
          "name": "_newBaseURI",
          "type": "string"
        }
      ],
      "name": "setBaseURI",
      "outputs": [],
      "stateMutability": "nonpayable",
      "type": "function"
    },
    {
      "inputs": [
        {
          "internalType": "uint256",
          "name": "_newCost",
          "type": "uint256"
        }
      ],
      "name": "setCost",
      "outputs": [],
      "stateMutability": "nonpayable",
      "type": "function"
    },
    {
      "inputs": [
        {
          "internalType": "uint256",
          "name": "_newMaxMintAmount",
          "type": "uint256"
        }
      ],
      "name": "setMaxMintAmount",
      "outputs": [],
      "stateMutability": "nonpayable",
      "type": "function"
    },
    {
      "inputs": [
        {
          "internalType": "address",
          "name": "_contractAddress",
          "type": "address"
        }
      ],
      "name": "setTrustedContract",
      "outputs": [],
      "stateMutability": "nonpayable",
      "type": "function"
    },
    {
      "inputs": [
        {
          "internalType": "bytes4",
          "name": "interfaceId",
          "type": "bytes4"
        }
      ],
      "name": "supportsInterface",
      "outputs": [
        {
          "internalType": "bool",
          "name": "",
          "type": "bool"
        }
      ],
      "stateMutability": "view",
      "type": "function"
    },
    {
      "inputs": [],
      "name": "symbol",
      "outputs": [
        {
          "internalType": "string",
          "name": "",
          "type": "string"
        }
      ],
      "stateMutability": "view",
      "type": "function"
    },
    {
      "inputs": [
        {
          "internalType": "uint256",
          "name": "index",
          "type": "uint256"
        }
      ],
      "name": "tokenByIndex",
      "outputs": [
        {
          "internalType": "uint256",
          "name": "",
          "type": "uint256"
        }
      ],
      "stateMutability": "view",
      "type": "function"
    },
    {
      "inputs": [
        {
          "internalType": "address",
          "name": "owner",
          "type": "address"
        },
        {
          "internalType": "uint256",
          "name": "index",
          "type": "uint256"
        }
      ],
      "name": "tokenOfOwnerByIndex",
      "outputs": [
        {
          "internalType": "uint256",
          "name": "tokenId",
          "type": "uint256"
        }
      ],
      "stateMutability": "view",
      "type": "function"
    },
    {
      "inputs": [
        {
          "internalType": "uint256",
          "name": "_tokenId",
          "type": "uint256"
        }
      ],
      "name": "tokenURI",
      "outputs": [
        {
          "internalType": "string",
          "name": "",
          "type": "string"
        }
      ],
      "stateMutability": "view",
      "type": "function"
    },
    {
      "inputs": [
        {
          "internalType": "address",
          "name": "owner",
          "type": "address"
        }
      ],
      "name": "tokensOfOwner",
      "outputs": [
        {
          "internalType": "uint256[]",
          "name": "",
          "type": "uint256[]"
        }
      ],
      "stateMutability": "view",
      "type": "function"
    },
    {
      "inputs": [],
      "name": "totalSupply",
      "outputs": [
        {
          "internalType": "uint256",
          "name": "",
          "type": "uint256"
        }
      ],
      "stateMutability": "view",
      "type": "function"
    },
    {
      "inputs": [
        {
          "internalType": "address",
          "name": "_from",
          "type": "address"
        },
        {
          "internalType": "address",
          "name": "_to",
          "type": "address"
        },
        {
          "internalType": "uint256",
          "name": "_tokenId",
          "type": "uint256"
        }
      ],
      "name": "transferFrom",
      "outputs": [],
      "stateMutability": "nonpayable",
      "type": "function"
    },
    {
      "inputs": [
        {
          "internalType": "address",
          "name": "newOwner",
          "type": "address"
        }
      ],
      "name": "transferOwnership",
      "outputs": [],
      "stateMutability": "nonpayable",
      "type": "function"
    },
    {
      "inputs": [],
      "name": "withdraw",
      "outputs": [],
      "stateMutability": "nonpayable",
      "type": "function"
    }
  ],
  "bytecode": {
    "object": "6080604052603260075566e6ed27d66680006008556006600955600a80546001600160b01b03191690553480156200003657600080fd5b5060405162002a4938038062002a4983398101604081905262000059916200027b565b8151829082906200007290600090602085019062000108565b5080516200008890600190602084019062000108565b505050620000a56200009f620000b260201b60201c565b620000b6565b5050600160065562000322565b3390565b600580546001600160a01b038381166001600160a01b0319831681179093556040519116919082907f8be0079c531659141344cd1fd0a4f28419497f9722a3daafe3b4186f6b6457e090600090a35050565b8280546200011690620002e5565b90600052602060002090601f0160209004810192826200013a576000855562000185565b82601f106200015557805160ff191683800117855562000185565b8280016001018555821562000185579182015b828111156200018557825182559160200191906001019062000168565b506200019392915062000197565b5090565b5b8082111562000193576000815560010162000198565b634e487b7160e01b600052604160045260246000fd5b600082601f830112620001d657600080fd5b81516001600160401b0380821115620001f357620001f3620001ae565b604051601f8301601f19908116603f011681019082821181831017156200021e576200021e620001ae565b816040528381526020925086838588010111156200023b57600080fd5b600091505b838210156200025f578582018301518183018401529082019062000240565b83821115620002715760008385830101525b9695505050505050565b600080604083850312156200028f57600080fd5b82516001600160401b0380821115620002a757600080fd5b620002b586838701620001c4565b93506020850151915080821115620002cc57600080fd5b50620002db85828601620001c4565b9150509250929050565b600181811c90821680620002fa57607f821691505b602082108114156200031c57634e487b7160e01b600052602260045260246000fd5b50919050565b61271780620003326000396000f3fe60806040526004361061021a5760003560e01c806360d938dc11610123578063a22cb465116100ab578063e985e9c51161006f578063e985e9c514610649578063eb8835ab14610692578063f2fde38b146106c2578063f759867a146106e2578063f81227d4146106f557600080fd5b8063a22cb465146105a9578063aaf50292146105c9578063b88d4fde146105e9578063c87b56dd14610609578063cc47a40b1461062957600080fd5b80637f649783116100f25780637f649783146105165780638462151c146105365780638da5cb5b1461056357806395d89b4114610581578063a0712d681461059657600080fd5b806360d938dc146104a05780636352211e146104c157806370a08231146104e1578063715018a61461050157600080fd5b806334918dfd116101a657806344a0d68a1161017557806344a0d68a146103f25780634f6ccce71461041257806355105e9e1461043257806355f804b31461045f578063564566a81461047f57600080fd5b806334918dfd1461036f5780633af32abf146103845780633ccfd60b146103bd57806342842e0e146103d257600080fd5b8063088a4ed0116101ed578063088a4ed0146102ce578063095ea7b3146102f057806318160ddd1461031057806323b872dd1461032f5780632f745c591461034f57600080fd5b806301ffc9a71461021f57806306fdde0314610254578063081812fc146102765780630856f5ce146102ae575b600080fd5b34801561022b57600080fd5b5061023f61023a36600461202a565b61070a565b60405190151581526020015b60405180910390f35b34801561026057600080fd5b50610269610735565b60405161024b919061209f565b34801561028257600080fd5b506102966102913660046120b2565b6107c7565b6040516001600160a01b03909116815260200161024b565b3480156102ba57600080fd5b50600a54610296906001600160a01b031681565b3480156102da57600080fd5b506102ee6102e93660046120b2565b610854565b005b3480156102fc57600080fd5b506102ee61030b3660046120e7565b610883565b34801561031c57600080fd5b506002545b60405190815260200161024b565b34801561033b57600080fd5b506102ee61034a366004612111565b610999565b34801561035b57600080fd5b5061032161036a3660046120e7565b6109af565b34801561037b57600080fd5b506102ee610a5e565b34801561039057600080fd5b5061023f61039f36600461214d565b6001600160a01b03166000908152600b602052604090205460ff1690565b3480156103c957600080fd5b506102ee610aa9565b3480156103de57600080fd5b506102ee6103ed366004612111565b610af9565b3480156103fe57600080fd5b506102ee61040d3660046120b2565b610b14565b34801561041e57600080fd5b5061032161042d3660046120b2565b610b43565b34801561043e57600080fd5b5061032161044d36600461214d565b600c6020526000908152604090205481565b34801561046b57600080fd5b506102ee61047a3660046121f4565b610ba0565b34801561048b57600080fd5b50600a5461023f90600160a81b900460ff1681565b3480156104ac57600080fd5b50600a5461023f90600160a01b900460ff1681565b3480156104cd57600080fd5b506102966104dc3660046120b2565b610be1565b3480156104ed57600080fd5b506103216104fc36600461214d565b610c6d565b34801561050d57600080fd5b506102ee610d3f565b34801561052257600080fd5b506102ee61053136600461223d565b610d73565b34801561054257600080fd5b5061055661055136600461214d565b610f37565b60405161024b91906122b2565b34801561056f57600080fd5b506005546001600160a01b0316610296565b34801561058d57600080fd5b50610269611001565b6102ee6105a43660046120b2565b611010565b3480156105b557600080fd5b506102ee6105c43660046122f6565b611187565b3480156105d557600080fd5b506102ee6105e436600461214d565b61124c565b3480156105f557600080fd5b506102ee610604366004612332565b611298565b34801561061557600080fd5b506102696106243660046120b2565b6112b5565b34801561063557600080fd5b506102ee6106443660046120e7565b611372565b34801561065557600080fd5b5061023f6106643660046123ae565b6001600160a01b03918216600090815260046020908152604080832093909416825291909152205460ff1690565b34801561069e57600080fd5b5061023f6106ad36600461214d565b600b6020526000908152604090205460ff1681565b3480156106ce57600080fd5b506102ee6106dd36600461214d565b61144f565b6102ee6106f03660046120b2565b6114ea565b34801561070157600080fd5b506102ee6116eb565b60006001600160e01b0319821663780e9d6360e01b148061072f575061072f82611736565b92915050565b606060008054610744906123e1565b80601f0160208091040260200160405190810160405280929190818152602001828054610770906123e1565b80156107bd5780601f10610792576101008083540402835291602001916107bd565b820191906000526020600020905b8154815290600101906020018083116107a057829003601f168201915b5050505050905090565b60006107d282611786565b6108385760405162461bcd60e51b815260206004820152602c60248201527f4552433732313a20617070726f76656420717565727920666f72206e6f6e657860448201526b34b9ba32b73a103a37b5b2b760a11b60648201526084015b60405180910390fd5b506000908152600360205260409020546001600160a01b031690565b6005546001600160a01b0316331461087e5760405162461bcd60e51b815260040161082f9061241c565b600955565b600061088e82610be1565b9050806001600160a01b0316836001600160a01b031614156108fc5760405162461bcd60e51b815260206004820152602160248201527f4552433732313a20617070726f76616c20746f2063757272656e74206f776e656044820152603960f91b606482015260840161082f565b336001600160a01b038216148061091857506109188133610664565b61098a5760405162461bcd60e51b815260206004820152603860248201527f4552433732313a20617070726f76652063616c6c6572206973206e6f74206f7760448201527f6e6572206e6f7220617070726f76656420666f7220616c6c0000000000000000606482015260840161082f565b61099483836117d0565b505050565b6109a483838361183e565b61099483838361186f565b60006109ba83610c6d565b82106109d85760405162461bcd60e51b815260040161082f90612451565b6000805b600254811015610a4557600281815481106109f9576109f9612481565b6000918252602090912001546001600160a01b0386811691161415610a355783821415610a2957915061072f9050565b610a32826124ad565b91505b610a3e816124ad565b90506109dc565b5060405162461bcd60e51b815260040161082f90612451565b6005546001600160a01b03163314610a885760405162461bcd60e51b815260040161082f9061241c565b600a805460ff60a81b198116600160a81b9182900460ff1615909102179055565b6005546001600160a01b03163314610ad35760405162461bcd60e51b815260040161082f9061241c565b60405133904780156108fc02916000818181858888f19350505050610af757600080fd5b565b61099483838360405180602001604052806000815250611298565b6005546001600160a01b03163314610b3e5760405162461bcd60e51b815260040161082f9061241c565b600855565b6000610b4e60025490565b8210610b9c5760405162461bcd60e51b815260206004820152601760248201527f455243373231456e756d3a20676c6f62616c20696f6f62000000000000000000604482015260640161082f565b5090565b6005546001600160a01b03163314610bca5760405162461bcd60e51b815260040161082f9061241c565b8051610bdd90600d906020840190611f84565b5050565b60008060028381548110610bf757610bf7612481565b6000918252602090912001546001600160a01b031690508061072f5760405162461bcd60e51b815260206004820152602960248201527f4552433732313a206f776e657220717565727920666f72206e6f6e657869737460448201526832b73a103a37b5b2b760b91b606482015260840161082f565b60006001600160a01b038216610cd85760405162461bcd60e51b815260206004820152602a60248201527f4552433732313a2062616c616e636520717565727920666f7220746865207a65604482015269726f206164647265737360b01b606482015260840161082f565b600254600090815b81811015610d365760028181548110610cfb57610cfb612481565b6000918252602090912001546001600160a01b0386811691161415610d2657610d23836124ad565b92505b610d2f816124ad565b9050610ce0565b50909392505050565b6005546001600160a01b03163314610d695760405162461bcd60e51b815260040161082f9061241c565b610af760006118f2565b6005546001600160a01b03163314610d9d5760405162461bcd60e51b815260040161082f9061241c565b60005b81811015610994576000838383818110610dbc57610dbc612481565b9050602002016020810190610dd1919061214d565b6001600160a01b03161415610e285760405162461bcd60e51b815260206004820152601b60248201527f4e756c6c2061646472657373206973206e6f7420616c6c6f7765640000000000604482015260640161082f565b6001600b6000858585818110610e4057610e40612481565b9050602002016020810190610e55919061214d565b6001600160a01b0316815260208101919091526040016000908120805460ff191692151592909217909155600c81858585818110610e9557610e95612481565b9050602002016020810190610eaa919061214d565b6001600160a01b03166001600160a01b031681526020019081526020016000205411610ed7576000610f24565b600c6000848484818110610eed57610eed612481565b9050602002016020810190610f02919061214d565b6001600160a01b03166001600160a01b03168152602001908152602001600020545b5080610f2f816124ad565b915050610da0565b6060610f4282610c6d565b600010610f615760405162461bcd60e51b815260040161082f90612451565b6000610f6c83610c6d565b905060008167ffffffffffffffff811115610f8957610f89612168565b604051908082528060200260200182016040528015610fb2578160200160208202803683370190505b50905060005b82811015610ff957610fca85826109af565b828281518110610fdc57610fdc612481565b602090810291909101015280610ff1816124ad565b915050610fb8565b509392505050565b606060018054610744906123e1565b600a54600160a81b900460ff1661105e5760405162461bcd60e51b815260206004820152601260248201527153616c65206973206e6f742061637469766560701b604482015260640161082f565b600081116110ae5760405162461bcd60e51b815260206004820181905260248201527f4d696e74656420616d6f756e742073686f756c6420626520706f736974697665604482015260640161082f565b6009548111156111005760405162461bcd60e51b815260206004820181905260248201527f4d696e74656420616d6f756e7420657863656564732073616c65206c696d6974604482015260640161082f565b600061110b60025490565b9050611115611944565b61111f83836124c8565b111561113d5760405162461bcd60e51b815260040161082f906124e0565b8160085461114b9190612531565b34101561115757600080fd5b60005b82811015610994576111753361117083856124c8565b61195b565b8061117f816124ad565b91505061115a565b6001600160a01b0382163314156111e05760405162461bcd60e51b815260206004820152601960248201527f4552433732313a20617070726f766520746f2063616c6c657200000000000000604482015260640161082f565b3360008181526004602090815260408083206001600160a01b03871680855290835292819020805460ff191686151590811790915590519081529192917f17307eab39ab6107e8899845ad3d59bd9653f200f220920489ca2b5937696c31910160405180910390a35050565b6005546001600160a01b031633146112765760405162461bcd60e51b815260040161082f9061241c565b600a80546001600160a01b0319166001600160a01b0392909216919091179055565b6112a484848484611975565b6112af84848461186f565b50505050565b60606112c082611786565b6113165760405162461bcd60e51b815260206004820152602160248201527f4552433732314d657461646174613a204e6f6e6578697374656e7420746f6b656044820152603760f91b606482015260840161082f565b60006113206119a7565b90506000815111611340576040518060200160405280600081525061136b565b8061134a846119b6565b60405160200161135b929190612550565b6040516020818303038152906040525b9392505050565b6005546001600160a01b0316331461139c5760405162461bcd60e51b815260040161082f9061241c565b60006113a760025490565b90506000821180156113bb57506007548211155b6114075760405162461bcd60e51b815260206004820181905260248201527f4e6f7420656e6f7567682072657365727665206c65667420666f72207465616d604482015260640161082f565b60005b82811015611432576114208461117083856124c8565b8061142a816124ad565b91505061140a565b508160076000828254611445919061258f565b9091555050505050565b6005546001600160a01b031633146114795760405162461bcd60e51b815260040161082f9061241c565b6001600160a01b0381166114de5760405162461bcd60e51b815260206004820152602660248201527f4f776e61626c653a206e6577206f776e657220697320746865207a65726f206160448201526564647265737360d01b606482015260840161082f565b6114e7816118f2565b50565b600a54600160a01b900460ff1661153b5760405162461bcd60e51b815260206004820152601560248201527450726573616c65206973206e6f742061637469766560581b604482015260640161082f565b336000908152600b602052604090205460ff1661159a5760405162461bcd60e51b815260206004820152601960248201527f43616c6c6572206973206e6f742077686974656c697374656400000000000000604482015260640161082f565b60006115a560025490565b336000908152600c6020526040812054919250906115c490600261258f565b9050808311156116165760405162461bcd60e51b815260206004820152601860248201527f546f6f206d616e79206d696e7473207265717565737465640000000000000000604482015260640161082f565b61161e611944565b61162884846124c8565b11156116465760405162461bcd60e51b815260040161082f906124e0565b826008546116549190612531565b34101561169b5760405162461bcd60e51b815260206004820152601560248201527415dc9bdb99c8185b5bdd5b9d081c1c9bdd9a591959605a1b604482015260640161082f565b336000908152600c6020526040812080548592906116ba9084906124c8565b90915550600090505b838110156112af576116d93361117083866124c8565b806116e3816124ad565b9150506116c3565b6005546001600160a01b031633146117155760405162461bcd60e51b815260040161082f9061241c565b600a805460ff60a01b198116600160a01b9182900460ff1615909102179055565b60006001600160e01b031982166380ac58cd60e01b148061176757506001600160e01b03198216635b5e139f60e01b145b8061072f57506301ffc9a760e01b6001600160e01b031983161461072f565b6002546000908210801561072f575060006001600160a01b0316600283815481106117b3576117b3612481565b6000918252602090912001546001600160a01b0316141592915050565b600081815260036020526040902080546001600160a01b0319166001600160a01b038416908117909155819061180582610be1565b6001600160a01b03167f8c5be1e5ebec7d5bd14f71427d1e84f3dd0314c0f7b2291e5b200ac8c7c3b92560405160405180910390a45050565b6118483382611abc565b6118645760405162461bcd60e51b815260040161082f906125a6565b610994838383611ba2565b600a546001600160a01b03161561099457600a5460405162a1651960e21b81526001600160a01b03858116600483015284811660248301526044820184905290911690630285946490606401600060405180830381600087803b1580156118d557600080fd5b505af11580156118e9573d6000803e3d6000fd5b50505050505050565b600580546001600160a01b038381166001600160a01b0319831681179093556040519116919082907f8be0079c531659141344cd1fd0a4f28419497f9722a3daafe3b4186f6b6457e090600090a35050565b6000600754611964611956919061258f565b905090565b610bdd828260405180602001604052806000815250611cf8565b61197f3383611abc565b61199b5760405162461bcd60e51b815260040161082f906125a6565b6112af84848484611d2b565b6060600d8054610744906123e1565b6060816119da5750506040805180820190915260018152600360fc1b602082015290565b8160005b8115611a0457806119ee816124ad565b91506119fd9050600a8361260d565b91506119de565b60008167ffffffffffffffff811115611a1f57611a1f612168565b6040519080825280601f01601f191660200182016040528015611a49576020820181803683370190505b5090505b8415611ab457611a5e60018361258f565b9150611a6b600a86612621565b611a769060306124c8565b60f81b818381518110611a8b57611a8b612481565b60200101906001600160f81b031916908160001a905350611aad600a8661260d565b9450611a4d565b949350505050565b6000611ac782611786565b611b285760405162461bcd60e51b815260206004820152602c60248201527f4552433732313a206f70657261746f7220717565727920666f72206e6f6e657860448201526b34b9ba32b73a103a37b5b2b760a11b606482015260840161082f565b6000611b3383610be1565b9050806001600160a01b0316846001600160a01b03161480611b6e5750836001600160a01b0316611b63846107c7565b6001600160a01b0316145b80611ab457506001600160a01b0380821660009081526004602090815260408083209388168352929052205460ff16611ab4565b826001600160a01b0316611bb582610be1565b6001600160a01b031614611c1d5760405162461bcd60e51b815260206004820152602960248201527f4552433732313a207472616e73666572206f6620746f6b656e2074686174206960448201526839903737ba1037bbb760b91b606482015260840161082f565b6001600160a01b038216611c7f5760405162461bcd60e51b8152602060048201526024808201527f4552433732313a207472616e7366657220746f20746865207a65726f206164646044820152637265737360e01b606482015260840161082f565b611c8a6000826117d0565b8160028281548110611c9e57611c9e612481565b6000918252602082200180546001600160a01b0319166001600160a01b03938416179055604051839285811692908716917fddf252ad1be2c89b69c2b068fc378daa952ba7f163c4a11628f55a4df523b3ef9190a4505050565b611d028383611d5e565b611d0f6000848484611e86565b6109945760405162461bcd60e51b815260040161082f90612635565b611d36848484611ba2565b611d4284848484611e86565b6112af5760405162461bcd60e51b815260040161082f90612635565b6001600160a01b038216611db45760405162461bcd60e51b815260206004820181905260248201527f4552433732313a206d696e7420746f20746865207a65726f2061646472657373604482015260640161082f565b611dbd81611786565b15611e0a5760405162461bcd60e51b815260206004820152601c60248201527f4552433732313a20746f6b656e20616c7265616479206d696e74656400000000604482015260640161082f565b6002805460018101825560009182527f405787fa12a823e0f2b7631cc41b3ba8828b3321ca811111fa75cd3aa3bb5ace0180546001600160a01b0319166001600160a01b0385169081179091556040518392907fddf252ad1be2c89b69c2b068fc378daa952ba7f163c4a11628f55a4df523b3ef908290a45050565b60006001600160a01b0384163b15611f7957604051630a85bd0160e11b81526001600160a01b0385169063150b7a0290611eca903390899088908890600401612687565b6020604051808303816000875af1925050508015611f05575060408051601f3d908101601f19168201909252611f02918101906126c4565b60015b611f5f573d808015611f33576040519150601f19603f3d011682016040523d82523d6000602084013e611f38565b606091505b508051611f575760405162461bcd60e51b815260040161082f90612635565b805181602001fd5b6001600160e01b031916630a85bd0160e11b149050611ab4565b506001949350505050565b828054611f90906123e1565b90600052602060002090601f016020900481019282611fb25760008555611ff8565b82601f10611fcb57805160ff1916838001178555611ff8565b82800160010185558215611ff8579182015b82811115611ff8578251825591602001919060010190611fdd565b50610b9c9291505b80821115610b9c5760008155600101612000565b6001600160e01b0319811681146114e757600080fd5b60006020828403121561203c57600080fd5b813561136b81612014565b60005b8381101561206257818101518382015260200161204a565b838111156112af5750506000910152565b6000815180845261208b816020860160208601612047565b601f01601f19169290920160200192915050565b60208152600061136b6020830184612073565b6000602082840312156120c457600080fd5b5035919050565b80356001600160a01b03811681146120e257600080fd5b919050565b600080604083850312156120fa57600080fd5b612103836120cb565b946020939093013593505050565b60008060006060848603121561212657600080fd5b61212f846120cb565b925061213d602085016120cb565b9150604084013590509250925092565b60006020828403121561215f57600080fd5b61136b826120cb565b634e487b7160e01b600052604160045260246000fd5b600067ffffffffffffffff8084111561219957612199612168565b604051601f8501601f19908116603f011681019082821181831017156121c1576121c1612168565b816040528093508581528686860111156121da57600080fd5b858560208301376000602087830101525050509392505050565b60006020828403121561220657600080fd5b813567ffffffffffffffff81111561221d57600080fd5b8201601f8101841361222e57600080fd5b611ab48482356020840161217e565b6000806020838503121561225057600080fd5b823567ffffffffffffffff8082111561226857600080fd5b818501915085601f83011261227c57600080fd5b81358181111561228b57600080fd5b8660208260051b85010111156122a057600080fd5b60209290920196919550909350505050565b6020808252825182820181905260009190848201906040850190845b818110156122ea578351835292840192918401916001016122ce565b50909695505050505050565b6000806040838503121561230957600080fd5b612312836120cb565b91506020830135801515811461232757600080fd5b809150509250929050565b6000806000806080858703121561234857600080fd5b612351856120cb565b935061235f602086016120cb565b925060408501359150606085013567ffffffffffffffff81111561238257600080fd5b8501601f8101871361239357600080fd5b6123a28782356020840161217e565b91505092959194509250565b600080604083850312156123c157600080fd5b6123ca836120cb565b91506123d8602084016120cb565b90509250929050565b600181811c908216806123f557607f821691505b6020821081141561241657634e487b7160e01b600052602260045260246000fd5b50919050565b6020808252818101527f4f776e61626c653a2063616c6c6572206973206e6f7420746865206f776e6572604082015260600190565b60208082526016908201527522a9219b9918a2b73ab69d1037bbb732b91034b7b7b160511b604082015260600190565b634e487b7160e01b600052603260045260246000fd5b634e487b7160e01b600052601160045260246000fd5b60006000198214156124c1576124c1612497565b5060010190565b600082198211156124db576124db612497565b500190565b60208082526031908201527f5468652072657175657374656420616d6f756e742065786365656473207468656040820152702072656d61696e696e6720737570706c7960781b606082015260800190565b600081600019048311821515161561254b5761254b612497565b500290565b60008351612562818460208801612047565b835190830190612576818360208801612047565b64173539b7b760d91b9101908152600501949350505050565b6000828210156125a1576125a1612497565b500390565b60208082526031908201527f4552433732313a207472616e736665722063616c6c6572206973206e6f74206f6040820152701ddb995c881b9bdc88185c1c1c9bdd9959607a1b606082015260800190565b634e487b7160e01b600052601260045260246000fd5b60008261261c5761261c6125f7565b500490565b600082612630576126306125f7565b500690565b60208082526032908201527f4552433732313a207472616e7366657220746f206e6f6e20455243373231526560408201527131b2b4bb32b91034b6b83632b6b2b73a32b960711b606082015260800190565b6001600160a01b03858116825284166020820152604081018390526080606082018190526000906126ba90830184612073565b9695505050505050565b6000602082840312156126d657600080fd5b815161136b8161201456fea2646970667358221220196ef711cecfe3f74a18adc415ed96c4082d3f0da843e844722d9a321f42442364736f6c634300080a0033"
  }
}