{"compiler":"v0.6.12+commit.27d51765","opcodeHash":"0x1a19de80c42d01f6256dc5146ec9478414ebae7325776c6dc45cc6e256e45018","metalessHash":"0xe4ed18e5210b261aac32f748d03a2e5b8081710b8f776bb7f6fdec8392e57e5b","runtimeHash":"0xe665a2988960311b73a9b1e0c9b86043c5742ae26eb4975da5a2cc832e4618fe","encodedMetadata":[{"ipfs":"/ipfs/QmWDfN3ZqKKVCTnk9ZbJhdMQG97URfzTkBW7EzR3W4rAT1","solc":"0.6.12"}],"abi":[{"inputs":[{"internalType":"string","name":"name","type":"string"},{"internalType":"string","name":"symbol","type":"string"},{"internalType":"uint8","name":"decimals","type":"uint8"},{"internalType":"uint256","name":"totalSupply","type":"uint256"}],"stateMutability":"nonpayable","type":"constructor"},{"anonymous":false,"inputs":[{"indexed":true,"internalType":"address","name":"owner","type":"address"},{"indexed":true,"internalType":"address","name":"spender","type":"address"},{"indexed":false,"internalType":"uint256","name":"value","type":"uint256"}],"name":"Approval","type":"event"},{"anonymous":false,"inputs":[{"indexed":true,"internalType":"address","name":"burner","type":"address"},{"indexed":true,"internalType":"address","name":"account","type":"address"},{"indexed":false,"internalType":"uint256","name":"amount","type":"uint256"}],"name":"Burn","type":"event"},{"anonymous":false,"inputs":[{"indexed":true,"internalType":"address","name":"minter","type":"address"},{"indexed":true,"internalType":"address","name":"account","type":"address"},{"indexed":false,"internalType":"uint256","name":"amount","type":"uint256"}],"name":"Mint","type":"event"},{"anonymous":false,"inputs":[{"indexed":false,"internalType":"address","name":"account","type":"address"}],"name":"Paused","type":"event"},{"anonymous":false,"inputs":[{"indexed":true,"internalType":"address","name":"from","type":"address"},{"indexed":true,"internalType":"address","name":"to","type":"address"},{"indexed":false,"internalType":"uint256","name":"value","type":"uint256"}],"name":"Transfer","type":"event"},{"anonymous":false,"inputs":[{"indexed":false,"internalType":"address","name":"account","type":"address"}],"name":"Unpaused","type":"event"},{"inputs":[{"internalType":"address","name":"_owner","type":"address"},{"internalType":"address","name":"_spender","type":"address"}],"name":"allowance","outputs":[{"internalType":"uint256","name":"","type":"uint256"}],"stateMutability":"view","type":"function"},{"inputs":[{"internalType":"address","name":"_spender","type":"address"},{"internalType":"uint256","name":"_value","type":"uint256"}],"name":"approve","outputs":[{"internalType":"bool","name":"","type":"bool"}],"stateMutability":"nonpayable","type":"function"},{"inputs":[{"internalType":"address","name":"_owner","type":"address"}],"name":"balanceOf","outputs":[{"internalType":"uint256","name":"balance","type":"uint256"}],"stateMutability":"view","type":"function"},{"inputs":[{"internalType":"address","name":"_from","type":"address"},{"internalType":"uint256","name":"_amount","type":"uint256"}],"name":"burnFrom","outputs":[],"stateMutability":"nonpayable","type":"function"},{"inputs":[],"name":"decimals","outputs":[{"internalType":"uint8","name":"","type":"uint8"}],"stateMutability":"view","type":"function"},{"inputs":[],"name":"isOwner","outputs":[{"internalType":"bool","name":"","type":"bool"}],"stateMutability":"view","type":"function"},{"inputs":[{"internalType":"address","name":"_to","type":"address"},{"internalType":"uint256","name":"_amount","type":"uint256"}],"name":"mintTo","outputs":[],"stateMutability":"nonpayable","type":"function"},{"inputs":[],"name":"name","outputs":[{"internalType":"string","name":"","type":"string"}],"stateMutability":"view","type":"function"},{"inputs":[],"name":"owner","outputs":[{"internalType":"address","name":"","type":"address"}],"stateMutability":"view","type":"function"},{"inputs":[],"name":"pause","outputs":[],"stateMutability":"nonpayable","type":"function"},{"inputs":[],"name":"paused","outputs":[{"internalType":"bool","name":"","type":"bool"}],"stateMutability":"view","type":"function"},{"inputs":[],"name":"symbol","outputs":[{"internalType":"string","name":"","type":"string"}],"stateMutability":"view","type":"function"},{"inputs":[],"name":"totalSupply","outputs":[{"internalType":"uint256","name":"","type":"uint256"}],"stateMutability":"view","type":"function"},{"inputs":[{"internalType":"address","name":"_to","type":"address"},{"internalType":"uint256","name":"_value","type":"uint256"}],"name":"transfer","outputs":[{"internalType":"bool","name":"","type":"bool"}],"stateMutability":"nonpayable","type":"function"},{"inputs":[{"internalType":"address","name":"_from","type":"address"},{"internalType":"address","name":"_to","type":"address"},{"internalType":"uint256","name":"_value","type":"uint256"}],"name":"transferFrom","outputs":[{"internalType":"bool","name":"","type":"bool"}],"stateMutability":"nonpayable","type":"function"},{"inputs":[],"name":"unpause","outputs":[],"stateMutability":"nonpayable","type":"function"}],"bytecode":{"object":"60806040523480156200001157600080fd5b506040516200134738038062001347833981810160405260808110156200003757600080fd5b81019080805160405193929190846401000000008211156200005857600080fd5b9083019060208201858111156200006e57600080fd5b82516401000000008111828201881017156200008957600080fd5b82525081516020918201929091019080838360005b83811015620000b85781810151838201526020016200009e565b50505050905090810190601f168015620000e65780820380516001836020036101000a031916815260200191505b50604052602001805160405193929190846401000000008211156200010a57600080fd5b9083019060208201858111156200012057600080fd5b82516401000000008111828201881017156200013b57600080fd5b82525081516020918201929091019080838360005b838110156200016a57818101518382015260200162000150565b50505050905090810190601f168015620001985780820380516001836020036101000a031916815260200191505b5060409081526020828101519290910151600080546001600160a01b0319163317905585519294509250620001d3916002918601906200021d565b508351620001e99060019060208701906200021d565b506003805460ff191660ff939093169290921790915560048190553360009081526005602052604090205550620002b99050565b828054600181600116156101000203166002900490600052602060002090601f016020900481019282601f106200026057805160ff191683800117855562000290565b8280016001018555821562000290579182015b828111156200029057825182559160200191906001019062000273565b506200029e929150620002a2565b5090565b5b808211156200029e5760008155600101620002a3565b61107e80620002c96000396000f3fe608060405234801561001057600080fd5b50600436106101005760003560e01c806370a08231116100975780638f32d59b116100665780638f32d59b146102ec57806395d89b41146102f4578063a9059cbb146102fc578063dd62ed3e1461032857610100565b806370a082311461026e57806379cc6790146102945780638456cb59146102c05780638da5cb5b146102c857610100565b8063313ce567116100d3578063313ce567146102125780633f4ba83a14610230578063449a52f81461023a5780635c975abb1461026657610100565b806306fdde0314610105578063095ea7b31461018257806318160ddd146101c257806323b872dd146101dc575b600080fd5b61010d610356565b6040805160208082528351818301528351919283929083019185019080838360005b8381101561014757818101518382015260200161012f565b50505050905090810190601f1680156101745780820380516001836020036101000a031916815260200191505b509250505060405180910390f35b6101ae6004803603604081101561019857600080fd5b506001600160a01b0381351690602001356103eb565b604080519115158252519081900360200190f35b6101ca6104a5565b60408051918252519081900360200190f35b6101ae600480360360608110156101f257600080fd5b506001600160a01b038135811691602081013590911690604001356104ab565b61021a610794565b6040805160ff9092168252519081900360200190f35b61023861079d565b005b6102386004803603604081101561025057600080fd5b506001600160a01b03813516906020013561087b565b6101ae610a50565b6101ca6004803603602081101561028457600080fd5b50356001600160a01b0316610a60565b610238600480360360408110156102aa57600080fd5b506001600160a01b038135169060200135610a7b565b610238610c6c565b6102d0610d4d565b604080516001600160a01b039092168252519081900360200190f35b6101ae610d5c565b61010d610d6d565b6101ae6004803603604081101561031257600080fd5b506001600160a01b038135169060200135610dcb565b6101ca6004803603604081101561033e57600080fd5b506001600160a01b0381358116916020013516610f81565b60018054604080516020601f600260001961010087891615020190951694909404938401819004810282018101909252828152606093909290918301828280156103e15780601f106103b6576101008083540402835291602001916103e1565b820191906000526020600020905b8154815290600101906020018083116103c457829003601f168201915b5050505050905090565b60008054600160a01b900460ff161561043e576040805162461bcd60e51b815260206004820152601060248201526f14185d5cd8589b194e881c185d5cd95960821b604482015290519081900360640190fd5b3360008181526006602090815260408083206001600160a01b03881680855290835292819020869055805186815290519293927f8c5be1e5ebec7d5bd14f71427d1e84f3dd0314c0f7b2291e5b200ac8c7c3b925929181900390910190a350600192915050565b60045490565b60008054600160a01b900460ff16156104fe576040805162461bcd60e51b815260206004820152601060248201526f14185d5cd8589b194e881c185d5cd95960821b604482015290519081900360640190fd5b6001600160a01b038416610559576040805162461bcd60e51b815260206004820181905260248201527f45524332303a2066726f6d2061646472657373206973206e6f742076616c6964604482015290519081900360640190fd5b6001600160a01b0383166105b4576040805162461bcd60e51b815260206004820152601e60248201527f45524332303a20746f2061646472657373206973206e6f742076616c69640000604482015290519081900360640190fd5b6001600160a01b038416600090815260056020526040902054821115610621576040805162461bcd60e51b815260206004820152601b60248201527f45524332303a20696e73756666696369656e742062616c616e63650000000000604482015290519081900360640190fd5b6001600160a01b0384166000908152600660209081526040808320338452909152902054821115610699576040805162461bcd60e51b815260206004820152601760248201527f45524332303a2066726f6d206e6f7420616c6c6f776564000000000000000000604482015290519081900360640190fd5b6001600160a01b0384166000908152600560205260409020546106bc9083611000565b6001600160a01b0380861660009081526005602052604080822093909355908516815220546106eb9083611012565b6001600160a01b0380851660009081526005602090815260408083209490945591871681526006825282812033825290915220546107299083611000565b6001600160a01b03808616600081815260066020908152604080832033845282529182902094909455805186815290519287169391927fddf252ad1be2c89b69c2b068fc378daa952ba7f163c4a11628f55a4df523b3ef929181900390910190a35060019392505050565b60035460ff1690565b6107a5610d5c565b6107e4576040805162461bcd60e51b81526020600482018190526024820152600080516020611029833981519152604482015290519081900360640190fd5b600054600160a01b900460ff16610839576040805162461bcd60e51b815260206004820152601460248201527314185d5cd8589b194e881b9bdd081c185d5cd95960621b604482015290519081900360640190fd5b6000805460ff60a01b191690556040805133815290517f5db9ee0a495bf2e6ff9c91a7834c1ba4fdd244a5e8aa4e537bd38aeae4b073aa9181900360200190a1565b600054600160a01b900460ff16156108cd576040805162461bcd60e51b815260206004820152601060248201526f14185d5cd8589b194e881c185d5cd95960821b604482015290519081900360640190fd5b6108d5610d5c565b610914576040805162461bcd60e51b81526020600482018190526024820152600080516020611029833981519152604482015290519081900360640190fd5b6001600160a01b03821661096f576040805162461bcd60e51b815260206004820152601e60248201527f45524332303a20746f2061646472657373206973206e6f742076616c69640000604482015290519081900360640190fd5b600081116109c4576040805162461bcd60e51b815260206004820152601a60248201527f45524332303a20616d6f756e74206973206e6f742076616c6964000000000000604482015290519081900360640190fd5b6004546109d19082611012565b6004556001600160a01b0382166000908152600560205260409020546109f79082611012565b6001600160a01b0383166000818152600560209081526040918290209390935580518481529051919233927fab8530f87dc9b59234c4623bf917212bb2536d647574c8e7e5da92c2ede0c9f89281900390910190a35050565b600054600160a01b900460ff1690565b6001600160a01b031660009081526005602052604090205490565b600054600160a01b900460ff1615610acd576040805162461bcd60e51b815260206004820152601060248201526f14185d5cd8589b194e881c185d5cd95960821b604482015290519081900360640190fd5b610ad5610d5c565b610b14576040805162461bcd60e51b81526020600482018190526024820152600080516020611029833981519152604482015290519081900360640190fd5b6001600160a01b038216610b6f576040805162461bcd60e51b815260206004820181905260248201527f45524332303a2066726f6d2061646472657373206973206e6f742076616c6964604482015290519081900360640190fd5b6001600160a01b038216600090815260056020526040902054811115610bdc576040805162461bcd60e51b815260206004820152601b60248201527f45524332303a20696e73756666696369656e742062616c616e63650000000000604482015290519081900360640190fd5b6001600160a01b038216600090815260056020526040902054610bff9082611000565b6001600160a01b038316600090815260056020526040902055600454610c259082611000565b6004556040805182815290516001600160a01b0384169133917fbac40739b0d4ca32fa2d82fc91630465ba3eddd1598da6fca393b26fb63b94539181900360200190a35050565b610c74610d5c565b610cb3576040805162461bcd60e51b81526020600482018190526024820152600080516020611029833981519152604482015290519081900360640190fd5b600054600160a01b900460ff1615610d05576040805162461bcd60e51b815260206004820152601060248201526f14185d5cd8589b194e881c185d5cd95960821b604482015290519081900360640190fd5b6000805460ff60a01b1916600160a01b1790556040805133815290517f62e78cea01bee320cd4e420270b5ea74000d11b0c9f74754ebdbfc544b05a2589181900360200190a1565b6000546001600160a01b031690565b6000546001600160a01b0316331490565b60028054604080516020601f60001961010060018716150201909416859004938401819004810282018101909252828152606093909290918301828280156103e15780601f106103b6576101008083540402835291602001916103e1565b60008054600160a01b900460ff1615610e1e576040805162461bcd60e51b815260206004820152601060248201526f14185d5cd8589b194e881c185d5cd95960821b604482015290519081900360640190fd5b6001600160a01b038316610e79576040805162461bcd60e51b815260206004820152601e60248201527f45524332303a20746f2061646472657373206973206e6f742076616c69640000604482015290519081900360640190fd5b33600090815260056020526040902054821115610edd576040805162461bcd60e51b815260206004820152601b60248201527f45524332303a20696e73756666696369656e742062616c616e63650000000000604482015290519081900360640190fd5b33600090815260056020526040902054610ef79083611000565b33600090815260056020526040808220929092556001600160a01b03851681522054610f239083611012565b6001600160a01b0384166000818152600560209081526040918290209390935580518581529051919233927fddf252ad1be2c89b69c2b068fc378daa952ba7f163c4a11628f55a4df523b3ef9281900390910190a350600192915050565b60008054600160a01b900460ff1615610fd4576040805162461bcd60e51b815260206004820152601060248201526f14185d5cd8589b194e881c185d5cd95960821b604482015290519081900360640190fd5b506001600160a01b03918216600090815260066020908152604080832093909416825291909152205490565b60008282111561100c57fe5b50900390565b60008282018381101561102157fe5b939250505056fe4f776e61626c653a2063616c6c6572206973206e6f7420746865206f776e6572a26469706673582212208fd17d8bcaf42358251f2dea97e785e46c7beab9d6287fc0d3b44dbf33d0b0c864736f6c634300060c0033"}}