{"compiler":"v0.6.8+commit.0bbfe453","opcodeHash":"0xdea05e127b941b6647136ce40b69940e0a77cb68e561d17544c7bd820ac7adc5","metalessHash":"0x333a391aa0c340fedbb7839c5e3e4c99dada1e6bae4807bc15f39c10d0389b49","runtimeHash":"0xa3b7167bd37d40ccf76926ccecf415b6bd9dbac5db2f853a72c90a7e2ed63063","encodedMetadata":[{"ipfs":"/ipfs/QmfELK8ggacq38P2SLrbB8jpAraLZ6nWc7ahQeMX99Wg7N","solc":"0.6.8"}],"abi":[{"inputs":[{"internalType":"address","name":"_wallet","type":"address"}],"stateMutability":"nonpayable","type":"constructor"},{"inputs":[],"name":"YFMSToken","outputs":[{"internalType":"contract ERC20","name":"","type":"address"}],"stateMutability":"view","type":"function"},{"inputs":[{"internalType":"string","name":"name","type":"string"}],"name":"addVault","outputs":[],"stateMutability":"nonpayable","type":"function"},{"inputs":[],"name":"currentDailyReward","outputs":[{"internalType":"uint256","name":"","type":"uint256"}],"stateMutability":"view","type":"function"},{"inputs":[{"internalType":"address","name":"vault","type":"address"}],"name":"distributeRewardsToVault","outputs":[],"stateMutability":"nonpayable","type":"function"},{"inputs":[],"name":"getDailyReward","outputs":[{"internalType":"uint256","name":"","type":"uint256"}],"stateMutability":"view","type":"function"},{"inputs":[],"name":"getNumberOfVaults","outputs":[{"internalType":"uint256","name":"","type":"uint256"}],"stateMutability":"view","type":"function"},{"inputs":[],"name":"getRewardsBalance","outputs":[{"internalType":"uint256","name":"","type":"uint256"}],"stateMutability":"view","type":"function"},{"inputs":[{"internalType":"string","name":"_vault","type":"string"},{"internalType":"address","name":"_user","type":"address"}],"name":"getUserBalanceInVault","outputs":[{"internalType":"uint256","name":"","type":"uint256"}],"stateMutability":"view","type":"function"},{"inputs":[],"name":"lastRewardUpdate","outputs":[{"internalType":"uint256","name":"","type":"uint256"}],"stateMutability":"view","type":"function"},{"inputs":[],"name":"numberOfVaults","outputs":[{"internalType":"uint256","name":"","type":"uint256"}],"stateMutability":"view","type":"function"},{"inputs":[],"name":"owner","outputs":[{"internalType":"address","name":"","type":"address"}],"stateMutability":"view","type":"function"},{"inputs":[],"name":"rewardsBalance","outputs":[{"internalType":"uint256","name":"","type":"uint256"}],"stateMutability":"view","type":"function"},{"inputs":[{"internalType":"string","name":"_vault","type":"string"},{"internalType":"address","name":"_receiver","type":"address"},{"internalType":"uint256","name":"_amount","type":"uint256"},{"internalType":"address","name":"vault","type":"address"}],"name":"stake","outputs":[{"internalType":"bool","name":"","type":"bool"}],"stateMutability":"nonpayable","type":"function"},{"inputs":[{"internalType":"string","name":"_vault","type":"string"},{"internalType":"address","name":"_receiver","type":"address"},{"internalType":"address","name":"vault","type":"address"}],"name":"unstake","outputs":[],"stateMutability":"nonpayable","type":"function"},{"inputs":[],"name":"updateDailyReward","outputs":[],"stateMutability":"nonpayable","type":"function"},{"inputs":[{"internalType":"string","name":"vault","type":"string"},{"internalType":"address","name":"who","type":"address"},{"internalType":"address","name":"user","type":"address"},{"internalType":"uint256","name":"value","type":"uint256"}],"name":"updateVaultData","outputs":[],"stateMutability":"nonpayable","type":"function"}],"bytecode":{"object":"6080604052600060045534801561001557600080fd5b506040516114023803806114028339818101604052602081101561003857600080fd5b810190808051906020019092919050505033600160006101000a81548173ffffffffffffffffffffffffffffffffffffffff021916908373ffffffffffffffffffffffffffffffffffffffff160217905550806000806101000a81548173ffffffffffffffffffffffffffffffffffffffff021916908373ffffffffffffffffffffffffffffffffffffffff16021790555050611328806100da6000396000f3fe608060405234801561001057600080fd5b50600436106101005760003560e01c8063a3c2710d11610097578063b79959b111610066578063b79959b1146104b3578063bb2f666c146105a2578063d3e0bc56146106a7578063f8582934146106c557610100565b8063a3c2710d1461033c578063adda10aa1461035a578063af218ded14610378578063b54faf471461039657610100565b80637a32af78116100d35780637a32af78146101bb578063858a135d146101d95780638d56e539146101f75780638da5cb5b146102f257610100565b8063021e63c1146101055780630b569f8b1461014f578063131f2e53146101595780631ac04cab14610177575b600080fd5b61010d610780565b604051808273ffffffffffffffffffffffffffffffffffffffff1673ffffffffffffffffffffffffffffffffffffffff16815260200191505060405180910390f35b6101576107a5565b005b610161610926565b6040518082815260200191505060405180910390f35b6101b96004803603602081101561018d57600080fd5b81019080803573ffffffffffffffffffffffffffffffffffffffff16906020019092919050505061092c565b005b6101c3610a98565b6040518082815260200191505060405180910390f35b6101e1610a9e565b6040518082815260200191505060405180910390f35b6102f06004803603606081101561020d57600080fd5b810190808035906020019064010000000081111561022a57600080fd5b82018360208201111561023c57600080fd5b8035906020019184600183028401116401000000008311171561025e57600080fd5b91908080601f016020809104026020016040519081016040528093929190818152602001838380828437600081840152601f19601f820116905080830192505050505050509192919290803573ffffffffffffffffffffffffffffffffffffffff169060200190929190803573ffffffffffffffffffffffffffffffffffffffff169060200190929190505050610b7e565b005b6102fa610c67565b604051808273ffffffffffffffffffffffffffffffffffffffff1673ffffffffffffffffffffffffffffffffffffffff16815260200191505060405180910390f35b610344610c8d565b6040518082815260200191505060405180910390f35b610362610c93565b6040518082815260200191505060405180910390f35b610380610c9d565b6040518082815260200191505060405180910390f35b610499600480360360808110156103ac57600080fd5b81019080803590602001906401000000008111156103c957600080fd5b8201836020820111156103db57600080fd5b803590602001918460018302840111640100000000831117156103fd57600080fd5b91908080601f016020809104026020016040519081016040528093929190818152602001838380828437600081840152601f19601f820116905080830192505050505050509192919290803573ffffffffffffffffffffffffffffffffffffffff16906020019092919080359060200190929190803573ffffffffffffffffffffffffffffffffffffffff169060200190929190505050610ca3565b604051808215151515815260200191505060405180910390f35b61058c600480360360408110156104c957600080fd5b81019080803590602001906401000000008111156104e657600080fd5b8201836020820111156104f857600080fd5b8035906020019184600183028401116401000000008311171561051a57600080fd5b91908080601f016020809104026020016040519081016040528093929190818152602001838380828437600081840152601f19601f820116905080830192505050505050509192919290803573ffffffffffffffffffffffffffffffffffffffff169060200190929190505050610e4c565b6040518082815260200191505060405180910390f35b6106a5600480360360808110156105b857600080fd5b81019080803590602001906401000000008111156105d557600080fd5b8201836020820111156105e757600080fd5b8035906020019184600183028401116401000000008311171561060957600080fd5b91908080601f016020809104026020016040519081016040528093929190818152602001838380828437600081840152601f19601f820116905080830192505050505050509192919290803573ffffffffffffffffffffffffffffffffffffffff169060200190929190803573ffffffffffffffffffffffffffffffffffffffff16906020019092919080359060200190929190505050610fb0565b005b6106af61115e565b6040518082815260200191505060405180910390f35b61077e600480360360208110156106db57600080fd5b81019080803590602001906401000000008111156106f857600080fd5b82018360208201111561070a57600080fd5b8035906020019184600183028401116401000000008311171561072c57600080fd5b91908080601f016020809104026020016040519081016040528093929190818152602001838380828437600081840152601f19601f820116905080830192505050505050509192919290505050611168565b005b6000809054906101000a900473ffffffffffffffffffffffffffffffffffffffff1681565b600160009054906101000a900473ffffffffffffffffffffffffffffffffffffffff1673ffffffffffffffffffffffffffffffffffffffff163373ffffffffffffffffffffffffffffffffffffffff16146107ff57600080fd5b620151806108186004544261128d90919063ffffffff16565b10158061082757506000600454145b61083057600080fd5b4260048190555060286127106000809054906101000a900473ffffffffffffffffffffffffffffffffffffffff1673ffffffffffffffffffffffffffffffffffffffff166370a08231306040518263ffffffff1660e01b8152600401808273ffffffffffffffffffffffffffffffffffffffff1673ffffffffffffffffffffffffffffffffffffffff16815260200191505060206040518083038186803b1580156108da57600080fd5b505afa1580156108ee573d6000803e3d6000fd5b505050506040513d602081101561090457600080fd5b81019080805190602001909291905050508161091c57fe5b0402600581905550565b60035481565b600160009054906101000a900473ffffffffffffffffffffffffffffffffffffffff1673ffffffffffffffffffffffffffffffffffffffff163373ffffffffffffffffffffffffffffffffffffffff161461098657600080fd5b60006005541161099557600080fd5b60006109ae6002546005546112ad90919063ffffffff16565b90506000809054906101000a900473ffffffffffffffffffffffffffffffffffffffff1673ffffffffffffffffffffffffffffffffffffffff1663a9059cbb83836040518363ffffffff1660e01b8152600401808373ffffffffffffffffffffffffffffffffffffffff1673ffffffffffffffffffffffffffffffffffffffff16815260200182815260200192505050602060405180830381600087803b158015610a5857600080fd5b505af1158015610a6c573d6000803e3d6000fd5b505050506040513d6020811015610a8257600080fd5b8101908080519060200190929190505050505050565b60025481565b60008060009054906101000a900473ffffffffffffffffffffffffffffffffffffffff1673ffffffffffffffffffffffffffffffffffffffff166370a08231306040518263ffffffff1660e01b8152600401808273ffffffffffffffffffffffffffffffffffffffff1673ffffffffffffffffffffffffffffffffffffffff16815260200191505060206040518083038186803b158015610b3e57600080fd5b505afa158015610b52573d6000803e3d6000fd5b505050506040513d6020811015610b6857600080fd5b8101908080519060200190929190505050905090565b8073ffffffffffffffffffffffffffffffffffffffff163373ffffffffffffffffffffffffffffffffffffffff1614610bb657600080fd5b60006006846040518082805190602001908083835b60208310610bee5780518252602082019150602081019050602083039250610bcb565b6001836020036101000a038019825116818451168082178552505050505050905001915050908152602001604051809103902060008473ffffffffffffffffffffffffffffffffffffffff1673ffffffffffffffffffffffffffffffffffffffff16815260200190815260200160002081905550505050565b600160009054906101000a900473ffffffffffffffffffffffffffffffffffffffff1681565b60045481565b6000600554905090565b60055481565b60008173ffffffffffffffffffffffffffffffffffffffff163373ffffffffffffffffffffffffffffffffffffffff1614610cdd57600080fd5b610d96836006876040518082805190602001908083835b60208310610d175780518252602082019150602081019050602083039250610cf4565b6001836020036101000a038019825116818451168082178552505050505050905001915050908152602001604051809103902060008773ffffffffffffffffffffffffffffffffffffffff1673ffffffffffffffffffffffffffffffffffffffff168152602001908152602001600020546112d390919063ffffffff16565b6006866040518082805190602001908083835b60208310610dcc5780518252602082019150602081019050602083039250610da9565b6001836020036101000a038019825116818451168082178552505050505050905001915050908152602001604051809103902060008673ffffffffffffffffffffffffffffffffffffffff1673ffffffffffffffffffffffffffffffffffffffff1681526020019081526020016000208190555060019050949350505050565b6000806006846040518082805190602001908083835b60208310610e855780518252602082019150602081019050602083039250610e62565b6001836020036101000a038019825116818451168082178552505050505050905001915050908152602001604051809103902060008473ffffffffffffffffffffffffffffffffffffffff1673ffffffffffffffffffffffffffffffffffffffff168152602001908152602001600020541015610f0157600080fd5b6006836040518082805190602001908083835b60208310610f375780518252602082019150602081019050602083039250610f14565b6001836020036101000a038019825116818451168082178552505050505050905001915050908152602001604051809103902060008373ffffffffffffffffffffffffffffffffffffffff1673ffffffffffffffffffffffffffffffffffffffff16815260200190815260200160002054905092915050565b8273ffffffffffffffffffffffffffffffffffffffff163373ffffffffffffffffffffffffffffffffffffffff1614610fe857600080fd5b60008111610ff557600080fd5b6110ae816006866040518082805190602001908083835b6020831061102f578051825260208201915060208101905060208303925061100c565b6001836020036101000a038019825116818451168082178552505050505050905001915050908152602001604051809103902060008573ffffffffffffffffffffffffffffffffffffffff1673ffffffffffffffffffffffffffffffffffffffff168152602001908152602001600020546112d390919063ffffffff16565b6006856040518082805190602001908083835b602083106110e457805182526020820191506020810190506020830392506110c1565b6001836020036101000a038019825116818451168082178552505050505050905001915050908152602001604051809103902060008473ffffffffffffffffffffffffffffffffffffffff1673ffffffffffffffffffffffffffffffffffffffff1681526020019081526020016000208190555050505050565b6000600254905090565b600160009054906101000a900473ffffffffffffffffffffffffffffffffffffffff1673ffffffffffffffffffffffffffffffffffffffff163373ffffffffffffffffffffffffffffffffffffffff16146111c257600080fd5b60006006826040518082805190602001908083835b602083106111fa57805182526020820191506020810190506020830392506111d7565b6001836020036101000a038019825116818451168082178552505050505050905001915050908152602001604051809103902060003373ffffffffffffffffffffffffffffffffffffffff1673ffffffffffffffffffffffffffffffffffffffff1681526020019081526020016000208190555061128460016002546112d390919063ffffffff16565b60028190555050565b60008282111561129c57600080fd5b600082840390508091505092915050565b60008082116112bb57600080fd5b60008284816112c657fe5b0490508091505092915050565b6000808284019050838110156112e857600080fd5b809150509291505056fea2646970667358221220e486e3ffb16b71fda5d9594ba6380e1599749ef5d41fe4e26d45532c9979d9a664736f6c63430006080033"}}