{
  "opcodeHash": "0x89cac4745d1e86a80941847438fbd46f29e83191701a0082df5a48abfb732a0f",
  "metalessHash": "0xe59497847b467354f567498dad83284f421826646a2e0c559c2685de78fc56e8",
  "runtimeHash": "0xe8b7c0ee30f605f56ecf99d95560ab56e19497fe2026e7c8e309232b00342908",
  "encodedMetadata": [
    {
      "bzzr1": "/swarm/bzzr1/1497122331b4f2018a3d4d3ed4c02b469a09f896b00c3f37df70372b91b5e25b",
      "solc": "0.5.17"
    }
  ],
  "abi": [
    {
      "anonymous": false,
      "inputs": [
        {
          "indexed": true,
          "internalType": "address",
          "name": "previousOwner",
          "type": "address"
        },
        {
          "indexed": true,
          "internalType": "address",
          "name": "newOwner",
          "type": "address"
        }
      ],
      "name": "OwnershipTransferred",
      "type": "event"
    },
    {
      "anonymous": false,
      "inputs": [
        {
          "indexed": false,
          "internalType": "uint256",
          "name": "reward",
          "type": "uint256"
        }
      ],
      "name": "RewardAdded",
      "type": "event"
    },
    {
      "anonymous": false,
      "inputs": [
        {
          "indexed": true,
          "internalType": "address",
          "name": "user",
          "type": "address"
        },
        {
          "indexed": false,
          "internalType": "uint256",
          "name": "reward",
          "type": "uint256"
        }
      ],
      "name": "RewardPaid",
      "type": "event"
    },
    {
      "anonymous": false,
      "inputs": [
        {
          "indexed": true,
          "internalType": "address",
          "name": "user",
          "type": "address"
        },
        {
          "indexed": false,
          "internalType": "uint256",
          "name": "amount",
          "type": "uint256"
        }
      ],
      "name": "Staked",
      "type": "event"
    },
    {
      "anonymous": false,
      "inputs": [
        {
          "indexed": true,
          "internalType": "address",
          "name": "user",
          "type": "address"
        },
        {
          "indexed": false,
          "internalType": "uint256",
          "name": "amount",
          "type": "uint256"
        }
      ],
      "name": "Withdrawn",
      "type": "event"
    },
    {
      "constant": true,
      "inputs": [],
      "name": "DURATION",
      "outputs": [
        {
          "internalType": "uint256",
          "name": "",
          "type": "uint256"
        }
      ],
      "payable": false,
      "stateMutability": "view",
      "type": "function"
    },
    {
      "constant": true,
      "inputs": [
        {
          "internalType": "address",
          "name": "account",
          "type": "address"
        }
      ],
      "name": "balanceOf",
      "outputs": [
        {
          "internalType": "uint256",
          "name": "",
          "type": "uint256"
        }
      ],
      "payable": false,
      "stateMutability": "view",
      "type": "function"
    },
    {
      "constant": true,
      "inputs": [
        {
          "internalType": "address",
          "name": "account",
          "type": "address"
        }
      ],
      "name": "earned",
      "outputs": [
        {
          "internalType": "uint256",
          "name": "",
          "type": "uint256"
        }
      ],
      "payable": false,
      "stateMutability": "view",
      "type": "function"
    },
    {
      "constant": false,
      "inputs": [],
      "name": "exit",
      "outputs": [],
      "payable": false,
      "stateMutability": "nonpayable",
      "type": "function"
    },
    {
      "constant": false,
      "inputs": [],
      "name": "getReward",
      "outputs": [],
      "payable": false,
      "stateMutability": "nonpayable",
      "type": "function"
    },
    {
      "constant": true,
      "inputs": [],
      "name": "isOwner",
      "outputs": [
        {
          "internalType": "bool",
          "name": "",
          "type": "bool"
        }
      ],
      "payable": false,
      "stateMutability": "view",
      "type": "function"
    },
    {
      "constant": true,
      "inputs": [],
      "name": "kash",
      "outputs": [
        {
          "internalType": "contract IERC20",
          "name": "",
          "type": "address"
        }
      ],
      "payable": false,
      "stateMutability": "view",
      "type": "function"
    },
    {
      "constant": true,
      "inputs": [],
      "name": "kassiakommercial",
      "outputs": [
        {
          "internalType": "contract IERC20",
          "name": "",
          "type": "address"
        }
      ],
      "payable": false,
      "stateMutability": "view",
      "type": "function"
    },
    {
      "constant": true,
      "inputs": [],
      "name": "lastTimeRewardApplicable",
      "outputs": [
        {
          "internalType": "uint256",
          "name": "",
          "type": "uint256"
        }
      ],
      "payable": false,
      "stateMutability": "view",
      "type": "function"
    },
    {
      "constant": true,
      "inputs": [],
      "name": "lastUpdateTime",
      "outputs": [
        {
          "internalType": "uint256",
          "name": "",
          "type": "uint256"
        }
      ],
      "payable": false,
      "stateMutability": "view",
      "type": "function"
    },
    {
      "constant": false,
      "inputs": [
        {
          "internalType": "uint256",
          "name": "reward",
          "type": "uint256"
        }
      ],
      "name": "notifyRewardAmount",
      "outputs": [],
      "payable": false,
      "stateMutability": "nonpayable",
      "type": "function"
    },
    {
      "constant": true,
      "inputs": [],
      "name": "owner",
      "outputs": [
        {
          "internalType": "address",
          "name": "",
          "type": "address"
        }
      ],
      "payable": false,
      "stateMutability": "view",
      "type": "function"
    },
    {
      "constant": true,
      "inputs": [],
      "name": "periodFinish",
      "outputs": [
        {
          "internalType": "uint256",
          "name": "",
          "type": "uint256"
        }
      ],
      "payable": false,
      "stateMutability": "view",
      "type": "function"
    },
    {
      "constant": false,
      "inputs": [],
      "name": "renounceOwnership",
      "outputs": [],
      "payable": false,
      "stateMutability": "nonpayable",
      "type": "function"
    },
    {
      "constant": true,
      "inputs": [],
      "name": "rewardDistribution",
      "outputs": [
        {
          "internalType": "address",
          "name": "",
          "type": "address"
        }
      ],
      "payable": false,
      "stateMutability": "view",
      "type": "function"
    },
    {
      "constant": true,
      "inputs": [],
      "name": "rewardPerToken",
      "outputs": [
        {
          "internalType": "uint256",
          "name": "",
          "type": "uint256"
        }
      ],
      "payable": false,
      "stateMutability": "view",
      "type": "function"
    },
    {
      "constant": true,
      "inputs": [],
      "name": "rewardPerTokenStored",
      "outputs": [
        {
          "internalType": "uint256",
          "name": "",
          "type": "uint256"
        }
      ],
      "payable": false,
      "stateMutability": "view",
      "type": "function"
    },
    {
      "constant": true,
      "inputs": [],
      "name": "rewardRate",
      "outputs": [
        {
          "internalType": "uint256",
          "name": "",
          "type": "uint256"
        }
      ],
      "payable": false,
      "stateMutability": "view",
      "type": "function"
    },
    {
      "constant": true,
      "inputs": [
        {
          "internalType": "address",
          "name": "",
          "type": "address"
        }
      ],
      "name": "rewards",
      "outputs": [
        {
          "internalType": "uint256",
          "name": "",
          "type": "uint256"
        }
      ],
      "payable": false,
      "stateMutability": "view",
      "type": "function"
    },
    {
      "constant": false,
      "inputs": [
        {
          "internalType": "address",
          "name": "_rewardDistribution",
          "type": "address"
        }
      ],
      "name": "setRewardDistribution",
      "outputs": [],
      "payable": false,
      "stateMutability": "nonpayable",
      "type": "function"
    },
    {
      "constant": false,
      "inputs": [
        {
          "internalType": "uint256",
          "name": "amount",
          "type": "uint256"
        }
      ],
      "name": "stake",
      "outputs": [],
      "payable": false,
      "stateMutability": "nonpayable",
      "type": "function"
    },
    {
      "constant": true,
      "inputs": [],
      "name": "starttime",
      "outputs": [
        {
          "internalType": "uint256",
          "name": "",
          "type": "uint256"
        }
      ],
      "payable": false,
      "stateMutability": "view",
      "type": "function"
    },
    {
      "constant": true,
      "inputs": [],
      "name": "totalSupply",
      "outputs": [
        {
          "internalType": "uint256",
          "name": "",
          "type": "uint256"
        }
      ],
      "payable": false,
      "stateMutability": "view",
      "type": "function"
    },
    {
      "constant": false,
      "inputs": [
        {
          "internalType": "address",
          "name": "newOwner",
          "type": "address"
        }
      ],
      "name": "transferOwnership",
      "outputs": [],
      "payable": false,
      "stateMutability": "nonpayable",
      "type": "function"
    },
    {
      "constant": true,
      "inputs": [
        {
          "internalType": "address",
          "name": "",
          "type": "address"
        }
      ],
      "name": "userRewardPerTokenPaid",
      "outputs": [
        {
          "internalType": "uint256",
          "name": "",
          "type": "uint256"
        }
      ],
      "payable": false,
      "stateMutability": "view",
      "type": "function"
    },
    {
      "constant": false,
      "inputs": [
        {
          "internalType": "uint256",
          "name": "amount",
          "type": "uint256"
        }
      ],
      "name": "withdraw",
      "outputs": [],
      "payable": false,
      "stateMutability": "nonpayable",
      "type": "function"
    }
  ],
  "bytecode": {
    "object": "6080604052600080546001600160a01b0319908116734cc84b41ececc387244512242eec226eb7948a921782556005805490911673ba4418f862a8d37c67991d658a3c5c09bd8c7366179055635f68dc10600655600781905560085561006c6001600160e01b036100bd16565b600380546001600160a01b0319166001600160a01b0392831617908190556040519116906000907f8be0079c531659141344cd1fd0a4f28419497f9722a3daafe3b4186f6b6457e0908290a36100c1565b3390565b611519806100d06000396000f3fe608060405234801561001057600080fd5b506004361061018d5760003560e01c80637b0a47ee116100de578063a694fc3a11610097578063df136d6511610071578063df136d651461035b578063e9fad8ee14610363578063ebe2b12b1461036b578063f2fde38b146103735761018d565b8063a694fc3a1461032e578063c8f33c911461034b578063cd3daf9d146103535761018d565b80637b0a47ee146102cc57806380faa57d146102d45780638b876347146102dc5780638da58897146103025780638da5cb5b1461030a5780638f32d59b146103125761018d565b80631d8501f51161014b5780633d18b912116101255780633d18b9121461028e5780634f76689b1461029657806370a082311461029e578063715018a6146102c45761018d565b80631d8501f51461024c5780632e1a7d4d146102545780633c6b16ab146102715761018d565b80628cc262146101925780630700037d146101ca5780630d68b761146101f0578063101114cf1461021857806318160ddd1461023c5780631be0528914610244575b600080fd5b6101b8600480360360208110156101a857600080fd5b50356001600160a01b0316610399565b60408051918252519081900360200190f35b6101b8600480360360208110156101e057600080fd5b50356001600160a01b031661041f565b6102166004803603602081101561020657600080fd5b50356001600160a01b0316610431565b005b6102206104ac565b604080516001600160a01b039092168252519081900360200190f35b6101b86104bb565b6101b86104c2565b6102206104c9565b6102166004803603602081101561026a57600080fd5b50356104d8565b6102166004803603602081101561028757600080fd5b5035610602565b6102166107f3565b610220610a4a565b6101b8600480360360208110156102b457600080fd5b50356001600160a01b0316610a59565b610216610a74565b6101b8610b17565b6101b8610b1d565b6101b8600480360360208110156102f257600080fd5b50356001600160a01b0316610b30565b6101b8610b42565b610220610b48565b61031a610b57565b604080519115158252519081900360200190f35b6102166004803603602081101561034457600080fd5b5035610b7d565b6101b8610ca4565b6101b8610caa565b6101b8610cfe565b610216610d04565b6101b8610d1f565b6102166004803603602081101561038957600080fd5b50356001600160a01b0316610d25565b6001600160a01b0381166000908152600c6020908152604080832054600b909252822054610419919061040d90670de0b6b3a764000090610401906103ec906103e0610caa565b9063ffffffff610d8a16565b6103f588610a59565b9063ffffffff610dd316565b9063ffffffff610e2c16565b9063ffffffff610e6e16565b92915050565b600c6020526000908152604090205481565b610439610b57565b61048a576040805162461bcd60e51b815260206004820181905260248201527f4f776e61626c653a2063616c6c6572206973206e6f7420746865206f776e6572604482015290519081900360640190fd5b600480546001600160a01b0319166001600160a01b0392909216919091179055565b6004546001600160a01b031681565b6001545b90565b6213c68081565b6000546001600160a01b031681565b336104e1610caa565b600a556104ec610b1d565b6009556001600160a01b038116156105335761050781610399565b6001600160a01b0382166000908152600c6020908152604080832093909355600a54600b909152919020555b600654421015610576576040805162461bcd60e51b81526020600482015260096024820152681b9bdd081cdd185c9d60ba1b604482015290519081900360640190fd5b600082116105bf576040805162461bcd60e51b8152602060048201526011602482015270043616e6e6f74207769746864726177203607c1b604482015290519081900360640190fd5b6105c882610ec8565b60408051838152905133917f7084f5476618d8e60b11ef0d7d3f06914655adb8793e28ff7f018d4c76d505d5919081900360200190a25050565b6004546001600160a01b0316610616610f29565b6001600160a01b03161461065b5760405162461bcd60e51b815260040180806020018281038252602181526020018061149a6021913960400191505060405180910390fd5b6000610665610caa565b600a55610670610b1d565b6009556001600160a01b038116156106b75761068b81610399565b6001600160a01b0382166000908152600c6020908152604080832093909355600a54600b909152919020555b6006544211156107875760075442106106e5576106dd826213c68063ffffffff610e2c16565b600855610733565b6007546000906106fb904263ffffffff610d8a16565b9050600061071460085483610dd390919063ffffffff16565b905061072d6213c680610401868463ffffffff610e6e16565b60085550505b42600981905561074c906213c68063ffffffff610e6e16565b6007556040805183815290517fde88a922e0d3b88b24e9623efeb464919c6bf9f66857a65e2bfcf2ce87a9433d9181900360200190a16107ef565b61079a826213c68063ffffffff610e2c16565b60085560065460098190556107b8906213c68063ffffffff610e6e16565b6007556040805183815290517fde88a922e0d3b88b24e9623efeb464919c6bf9f66857a65e2bfcf2ce87a9433d9181900360200190a15b5050565b336107fc610caa565b600a55610807610b1d565b6009556001600160a01b0381161561084e5761082281610399565b6001600160a01b0382166000908152600c6020908152604080832093909355600a54600b909152919020555b600654421015610891576040805162461bcd60e51b81526020600482015260096024820152681b9bdd081cdd185c9d60ba1b604482015290519081900360640190fd5b600061089c33610399565b905080156107ef57336000908152600c602090815260408083208390556005548151631148558b60e31b815291516001600160a01b0390911692638a42ac58926004808201939182900301818787803b1580156108f857600080fd5b505af115801561090c573d6000803e3d6000fd5b505050506040513d602081101561092257600080fd5b505190506000610944670de0b6b3a7640000610401858563ffffffff610dd316565b905073289026a9018d5aa8cb05f228dd9460c1229aaf8161098e3361097560506103f586606463ffffffff610e2c16565b6005546001600160a01b0316919063ffffffff610f2d16565b337fe2403640ba68fed3a2f88b7557551d1993f84b99bb10ff833f0cf8db0c5e04866109c660506103f586606463ffffffff610e2c16565b60408051918252519081900360200190a26109f18161097560146103f586606463ffffffff610e2c16565b6001600160a01b0381167fe2403640ba68fed3a2f88b7557551d1993f84b99bb10ff833f0cf8db0c5e0486610a3260146103f586606463ffffffff610e2c16565b60408051918252519081900360200190a25050505050565b6005546001600160a01b031681565b6001600160a01b031660009081526002602052604090205490565b610a7c610b57565b610acd576040805162461bcd60e51b815260206004820181905260248201527f4f776e61626c653a2063616c6c6572206973206e6f7420746865206f776e6572604482015290519081900360640190fd5b6003546040516000916001600160a01b0316907f8be0079c531659141344cd1fd0a4f28419497f9722a3daafe3b4186f6b6457e0908390a3600380546001600160a01b0319169055565b60085481565b6000610b2b42600754610f84565b905090565b600b6020526000908152604090205481565b60065481565b6003546001600160a01b031690565b6003546000906001600160a01b0316610b6e610f29565b6001600160a01b031614905090565b33610b86610caa565b600a55610b91610b1d565b6009556001600160a01b03811615610bd857610bac81610399565b6001600160a01b0382166000908152600c6020908152604080832093909355600a54600b909152919020555b600654421015610c1b576040805162461bcd60e51b81526020600482015260096024820152681b9bdd081cdd185c9d60ba1b604482015290519081900360640190fd5b60008211610c61576040805162461bcd60e51b815260206004820152600e60248201526d043616e6e6f74207374616b6520360941b604482015290519081900360640190fd5b610c6a82610f9a565b60408051838152905133917f9e71bc8eea02a63969f509818f2dafb9254532904319f9dbda79b67bd34a5f3d919081900360200190a25050565b60095481565b6000610cb46104bb565b610cc15750600a546104bf565b610b2b610cef610ccf6104bb565b610401670de0b6b3a76400006103f56008546103f56009546103e0610b1d565b600a549063ffffffff610e6e16565b600a5481565b610d15610d1033610a59565b6104d8565b610d1d6107f3565b565b60075481565b610d2d610b57565b610d7e576040805162461bcd60e51b815260206004820181905260248201527f4f776e61626c653a2063616c6c6572206973206e6f7420746865206f776e6572604482015290519081900360640190fd5b610d8781611061565b50565b6000610dcc83836040518060400160405280601e81526020017f536166654d6174683a207375627472616374696f6e206f766572666c6f770000815250611102565b9392505050565b600082610de257506000610419565b82820282848281610def57fe5b0414610dcc5760405162461bcd60e51b81526004018080602001828103825260218152602001806114796021913960400191505060405180910390fd5b6000610dcc83836040518060400160405280601a81526020017f536166654d6174683a206469766973696f6e206279207a65726f000000000000815250611199565b600082820183811015610dcc576040805162461bcd60e51b815260206004820152601b60248201527f536166654d6174683a206164646974696f6e206f766572666c6f770000000000604482015290519081900360640190fd5b600154610edb908263ffffffff610d8a16565b60015533600090815260026020526040902054610efe908263ffffffff610d8a16565b336000818152600260205260408120929092559054610d87916001600160a01b039091169083610f2d565b3390565b604080516001600160a01b038416602482015260448082018490528251808303909101815260649091019091526020810180516001600160e01b031663a9059cbb60e01b179052610f7f9084906111fe565b505050565b6000818310610f935781610dcc565b5090919050565b6000610fb260636103f584606463ffffffff610e2c16565b600154909150610fc8908263ffffffff610e6e16565b60015533600090815260026020526040902054610feb908263ffffffff610e6e16565b33600081815260026020526040812092909255905473289026a9018d5aa8cb05f228dd9460c1229aaf8191611031916001600160a01b031690308563ffffffff6113bc16565b610f7f338261104786606463ffffffff610e2c16565b6000546001600160a01b031692919063ffffffff6113bc16565b6001600160a01b0381166110a65760405162461bcd60e51b81526004018080602001828103825260268152602001806114536026913960400191505060405180910390fd5b6003546040516001600160a01b038084169216907f8be0079c531659141344cd1fd0a4f28419497f9722a3daafe3b4186f6b6457e090600090a3600380546001600160a01b0319166001600160a01b0392909216919091179055565b600081848411156111915760405162461bcd60e51b81526004018080602001828103825283818151815260200191508051906020019080838360005b8381101561115657818101518382015260200161113e565b50505050905090810190601f1680156111835780820380516001836020036101000a031916815260200191505b509250505060405180910390fd5b505050900390565b600081836111e85760405162461bcd60e51b815260206004820181815283516024840152835190928392604490910191908501908083836000831561115657818101518382015260200161113e565b5060008385816111f457fe5b0495945050505050565b611210826001600160a01b0316611416565b611261576040805162461bcd60e51b815260206004820152601f60248201527f5361666545524332303a2063616c6c20746f206e6f6e2d636f6e747261637400604482015290519081900360640190fd5b60006060836001600160a01b0316836040518082805190602001908083835b6020831061129f5780518252601f199092019160209182019101611280565b6001836020036101000a0380198251168184511680821785525050505050509050019150506000604051808303816000865af19150503d8060008114611301576040519150601f19603f3d011682016040523d82523d6000602084013e611306565b606091505b50915091508161135d576040805162461bcd60e51b815260206004820181905260248201527f5361666545524332303a206c6f772d6c6576656c2063616c6c206661696c6564604482015290519081900360640190fd5b8051156113b65780806020019051602081101561137957600080fd5b50516113b65760405162461bcd60e51b815260040180806020018281038252602a8152602001806114bb602a913960400191505060405180910390fd5b50505050565b604080516001600160a01b0385811660248301528416604482015260648082018490528251808303909101815260849091019091526020810180516001600160e01b03166323b872dd60e01b1790526113b69085906111fe565b6000813f7fc5d2460186f7233c927e7db2dcc703c0e500b653ca82273b7bfad8045d85a470811580159061144a5750808214155b94935050505056fe4f776e61626c653a206e6577206f776e657220697320746865207a65726f2061646472657373536166654d6174683a206d756c7469706c69636174696f6e206f766572666c6f7743616c6c6572206973206e6f742072657761726420646973747269627574696f6e5361666545524332303a204552433230206f7065726174696f6e20646964206e6f742073756363656564a265627a7a723158200465c69702f5540836823c45ae00c94946d49e686e3823b3738ff347b973203764736f6c63430005110032"
  }
}