{"compiler":"v0.6.12+commit.27d51765","opcodeHash":"0x1c2bf8c28df9cd70605a2d0892fb7ff66ce269677056e8cfe231b9a55a9544c0","metalessHash":"0xccf9aae78ee036cbd8c7e2605faca5b1b283b600587a8183cb0eba48e405ae17","runtimeHash":"0xa5c14889550e147dc51e4ed1ca928fa08851cec0d3e22abc7efcdf3fdfb56753","encodedMetadata":[{"ipfs":"/ipfs/QmZ16aLgtSMhJ5m7jbebsBLos1wpkaQqfYDEtcVDmwEXnw","solc":"0.6.12"}],"abi":[{"inputs":[{"internalType":"address","name":"pair","type":"address"},{"internalType":"address","name":"yield","type":"address"}],"stateMutability":"nonpayable","type":"constructor"},{"anonymous":false,"inputs":[{"indexed":true,"internalType":"address","name":"distributer","type":"address"},{"indexed":false,"internalType":"uint256","name":"amount","type":"uint256"}],"name":"LeftoverCollected","type":"event"},{"anonymous":false,"inputs":[{"indexed":true,"internalType":"address","name":"distributer","type":"address"},{"indexed":false,"internalType":"uint256","name":"reward","type":"uint256"},{"indexed":false,"internalType":"uint256","name":"duration","type":"uint256"}],"name":"RewardAdded","type":"event"},{"anonymous":false,"inputs":[{"indexed":true,"internalType":"address","name":"user","type":"address"},{"indexed":false,"internalType":"uint256","name":"reward","type":"uint256"}],"name":"RewardPaid","type":"event"},{"anonymous":false,"inputs":[{"indexed":true,"internalType":"bytes32","name":"role","type":"bytes32"},{"indexed":true,"internalType":"bytes32","name":"previousAdminRole","type":"bytes32"},{"indexed":true,"internalType":"bytes32","name":"newAdminRole","type":"bytes32"}],"name":"RoleAdminChanged","type":"event"},{"anonymous":false,"inputs":[{"indexed":true,"internalType":"bytes32","name":"role","type":"bytes32"},{"indexed":true,"internalType":"address","name":"account","type":"address"},{"indexed":true,"internalType":"address","name":"sender","type":"address"}],"name":"RoleGranted","type":"event"},{"anonymous":false,"inputs":[{"indexed":true,"internalType":"bytes32","name":"role","type":"bytes32"},{"indexed":true,"internalType":"address","name":"account","type":"address"},{"indexed":true,"internalType":"address","name":"sender","type":"address"}],"name":"RoleRevoked","type":"event"},{"anonymous":false,"inputs":[{"indexed":true,"internalType":"address","name":"user","type":"address"},{"indexed":false,"internalType":"uint256","name":"amount","type":"uint256"}],"name":"Staked","type":"event"},{"anonymous":false,"inputs":[{"indexed":true,"internalType":"address","name":"user","type":"address"},{"indexed":false,"internalType":"uint256","name":"amount","type":"uint256"}],"name":"Withdrawn","type":"event"},{"inputs":[],"name":"DEFAULT_ADMIN_ROLE","outputs":[{"internalType":"bytes32","name":"","type":"bytes32"}],"stateMutability":"view","type":"function"},{"inputs":[],"name":"DISTRIBUTER_ROLE","outputs":[{"internalType":"bytes32","name":"","type":"bytes32"}],"stateMutability":"view","type":"function"},{"inputs":[],"name":"PAIR","outputs":[{"internalType":"contract IUniswapV2Pair","name":"","type":"address"}],"stateMutability":"view","type":"function"},{"inputs":[],"name":"YIELD","outputs":[{"internalType":"contract IERC20","name":"","type":"address"}],"stateMutability":"view","type":"function"},{"inputs":[{"internalType":"address","name":"from","type":"address"},{"internalType":"uint256","name":"amount","type":"uint256"},{"internalType":"uint256","name":"duration","type":"uint256"}],"name":"addReward","outputs":[],"stateMutability":"nonpayable","type":"function"},{"inputs":[{"internalType":"address","name":"account","type":"address"}],"name":"balanceOf","outputs":[{"internalType":"uint256","name":"","type":"uint256"}],"stateMutability":"view","type":"function"},{"inputs":[],"name":"collectLeftover","outputs":[],"stateMutability":"nonpayable","type":"function"},{"inputs":[{"internalType":"address","name":"account","type":"address"}],"name":"earned","outputs":[{"internalType":"uint256","name":"","type":"uint256"}],"stateMutability":"view","type":"function"},{"inputs":[],"name":"exit","outputs":[],"stateMutability":"nonpayable","type":"function"},{"inputs":[],"name":"getReward","outputs":[],"stateMutability":"nonpayable","type":"function"},{"inputs":[{"internalType":"bytes32","name":"role","type":"bytes32"}],"name":"getRoleAdmin","outputs":[{"internalType":"bytes32","name":"","type":"bytes32"}],"stateMutability":"view","type":"function"},{"inputs":[{"internalType":"bytes32","name":"role","type":"bytes32"},{"internalType":"uint256","name":"index","type":"uint256"}],"name":"getRoleMember","outputs":[{"internalType":"address","name":"","type":"address"}],"stateMutability":"view","type":"function"},{"inputs":[{"internalType":"bytes32","name":"role","type":"bytes32"}],"name":"getRoleMemberCount","outputs":[{"internalType":"uint256","name":"","type":"uint256"}],"stateMutability":"view","type":"function"},{"inputs":[{"internalType":"bytes32","name":"role","type":"bytes32"},{"internalType":"address","name":"account","type":"address"}],"name":"grantRole","outputs":[],"stateMutability":"nonpayable","type":"function"},{"inputs":[{"internalType":"bytes32","name":"role","type":"bytes32"},{"internalType":"address","name":"account","type":"address"}],"name":"hasRole","outputs":[{"internalType":"bool","name":"","type":"bool"}],"stateMutability":"view","type":"function"},{"inputs":[],"name":"lastTimeRewardApplicable","outputs":[{"internalType":"uint256","name":"","type":"uint256"}],"stateMutability":"view","type":"function"},{"inputs":[],"name":"lastUpdateTime","outputs":[{"internalType":"uint256","name":"","type":"uint256"}],"stateMutability":"view","type":"function"},{"inputs":[],"name":"leftover","outputs":[{"internalType":"uint256","name":"","type":"uint256"}],"stateMutability":"view","type":"function"},{"inputs":[],"name":"pairInfo","outputs":[{"internalType":"uint256","name":"yield","type":"uint256"},{"internalType":"uint256","name":"other","type":"uint256"},{"internalType":"uint256","name":"totalSupply","type":"uint256"}],"stateMutability":"view","type":"function"},{"inputs":[{"internalType":"address","name":"account","type":"address"}],"name":"pairLimit","outputs":[{"internalType":"uint256","name":"","type":"uint256"}],"stateMutability":"view","type":"function"},{"inputs":[{"internalType":"uint256","name":"amount","type":"uint256"}],"name":"pairOtherBalance","outputs":[{"internalType":"uint256","name":"","type":"uint256"}],"stateMutability":"view","type":"function"},{"inputs":[{"internalType":"uint256","name":"amount","type":"uint256"}],"name":"pairYieldBalance","outputs":[{"internalType":"uint256","name":"","type":"uint256"}],"stateMutability":"view","type":"function"},{"inputs":[],"name":"periodFinish","outputs":[{"internalType":"uint256","name":"","type":"uint256"}],"stateMutability":"view","type":"function"},{"inputs":[{"internalType":"bytes32","name":"role","type":"bytes32"},{"internalType":"address","name":"account","type":"address"}],"name":"renounceRole","outputs":[],"stateMutability":"nonpayable","type":"function"},{"inputs":[{"internalType":"bytes32","name":"role","type":"bytes32"},{"internalType":"address","name":"account","type":"address"}],"name":"revokeRole","outputs":[],"stateMutability":"nonpayable","type":"function"},{"inputs":[],"name":"rewardPerToken","outputs":[{"internalType":"uint256","name":"","type":"uint256"}],"stateMutability":"view","type":"function"},{"inputs":[],"name":"rewardPerTokenStored","outputs":[{"internalType":"uint256","name":"","type":"uint256"}],"stateMutability":"view","type":"function"},{"inputs":[],"name":"rewardRate","outputs":[{"internalType":"uint256","name":"","type":"uint256"}],"stateMutability":"view","type":"function"},{"inputs":[{"internalType":"address","name":"account","type":"address"}],"name":"rewards","outputs":[{"internalType":"uint256","name":"","type":"uint256"}],"stateMutability":"view","type":"function"},{"inputs":[{"internalType":"uint256","name":"other","type":"uint256"}],"name":"setStakingLimit","outputs":[],"stateMutability":"nonpayable","type":"function"},{"inputs":[{"internalType":"uint256","name":"amount","type":"uint256"}],"name":"stake","outputs":[],"stateMutability":"nonpayable","type":"function"},{"inputs":[],"name":"stakingLimit","outputs":[{"internalType":"uint256","name":"","type":"uint256"}],"stateMutability":"view","type":"function"},{"inputs":[],"name":"totalSupply","outputs":[{"internalType":"uint256","name":"","type":"uint256"}],"stateMutability":"view","type":"function"},{"inputs":[{"internalType":"address","name":"account","type":"address"}],"name":"userRewardPerTokenPaid","outputs":[{"internalType":"uint256","name":"","type":"uint256"}],"stateMutability":"view","type":"function"},{"inputs":[{"internalType":"uint256","name":"amount","type":"uint256"}],"name":"withdraw","outputs":[],"stateMutability":"nonpayable","type":"function"},{"stateMutability":"payable","type":"receive"}],"bytecode":{"object":"60806040523480156200001157600080fd5b506040516200389538038062003895833981810160405260408110156200003757600080fd5b810190808051906020019092919080519060200190929190505050620000676000801b336200038260201b60201c565b6200009c7f09630fffc1c31ed9c8dd68f6e39219ed189b07ff9a25e1efc743b828f69d555e60001b336200038260201b60201c565b81600160006101000a81548173ffffffffffffffffffffffffffffffffffffffff021916908373ffffffffffffffffffffffffffffffffffffffff16021790555080600260006101000a81548173ffffffffffffffffffffffffffffffffffffffff021916908373ffffffffffffffffffffffffffffffffffffffff160217905550676124fee993bc00006008819055506200017b600160009054906101000a900473ffffffffffffffffffffffffffffffffffffffff1673ffffffffffffffffffffffffffffffffffffffff166200039860201b620025691760201c565b620001ee576040517f08c379a000000000000000000000000000000000000000000000000000000000815260040180806020018281038252601f8152602001807f5374616b696e673a2070616972206973206e6f74206120636f6e74726163740081525060200191505060405180910390fd5b6200023c600260009054906101000a900473ffffffffffffffffffffffffffffffffffffffff1673ffffffffffffffffffffffffffffffffffffffff166200039860201b620025691760201c565b620002af576040517f08c379a00000000000000000000000000000000000000000000000000000000081526004018080602001828103825260208152602001807f5374616b696e673a205949454c44206973206e6f74206120636f6e747261637481525060200191505060405180910390fd5b600260009054906101000a900473ffffffffffffffffffffffffffffffffffffffff1673ffffffffffffffffffffffffffffffffffffffff16600160009054906101000a900473ffffffffffffffffffffffffffffffffffffffff1673ffffffffffffffffffffffffffffffffffffffff1614156200037a576040517f08c379a0000000000000000000000000000000000000000000000000000000008152600401808060200182810382526024815260200180620038716024913960400191505060405180910390fd5b505062000564565b620003948282620003e460201b60201c565b5050565b60008060007fc5d2460186f7233c927e7db2dcc703c0e500b653ca82273b7bfad8045d85a47060001b9050833f9150808214158015620003db57506000801b8214155b92505050919050565b62000412816000808581526020019081526020016000206000016200048760201b620025b41790919060201c565b15620004835762000428620004bf60201b60201c565b73ffffffffffffffffffffffffffffffffffffffff168173ffffffffffffffffffffffffffffffffffffffff16837f2f8788117e7eff1d82e926ec794901d17c78024a50270940304540a733656f0d60405160405180910390a45b5050565b6000620004b7836000018373ffffffffffffffffffffffffffffffffffffffff1660001b620004c760201b60201c565b905092915050565b600033905090565b6000620004db83836200054160201b60201c565b620005365782600001829080600181540180825580915050600190039060005260206000200160009091909190915055826000018054905083600101600084815260200190815260200160002081905550600190506200053b565b600090505b92915050565b600080836001016000848152602001908152602001600020541415905092915050565b6132fd80620005746000396000f3fe6080604052600436106102065760003560e01c806370a0823111610118578063c8f33c91116100a0578063df136d651161006f578063df136d6514610aca578063e9fad8ee14610af5578063ebe2b12b14610b0c578063f10e00d614610b37578063fc2a5b1d14610b6257610281565b8063c8f33c91146109ca578063ca15c873146109f5578063cd3daf9d14610a44578063d547741f14610a6f57610281565b80639010d07c116100e75780639010d07c1461084357806391d14854146108b2578063a217fddf14610923578063a694fc3a1461094e578063ace3a8a71461098957610281565b806370a08231146107235780637b0a47ee1461078857806380faa57d146107b35780638b876347146107de57610281565b80632e1a7d4d1161019b57806344ea559a1161016a57806344ea559a146105a457806355ba2f4f1461060957806366f048dc146106345780636cb455b714610699578063701956b1146106d457610281565b80632e1a7d4d1461049c5780632f2ff15d146104d757806336568abe146105325780633d18b9121461058d57610281565b8063174e015b116101d7578063174e015b146103b657806318160ddd146103e15780631dfa45e31461040c578063248a9ca31461044d57610281565b80628cc26214610286578062f7fa8c146102eb5780630700037d1461033a5780630b5e4dbb1461039f57610281565b3661028157600061027f576040517f08c379a000000000000000000000000000000000000000000000000000000000815260040180806020018281038252601c8152602001807f5374616b696e673a206e6f7420616365657074696e672065746865720000000081525060200191505060405180910390fd5b005b600080fd5b34801561029257600080fd5b506102d5600480360360208110156102a957600080fd5b81019080803573ffffffffffffffffffffffffffffffffffffffff169060200190929190505050610b9b565b6040518082815260200191505060405180910390f35b3480156102f757600080fd5b506103246004803603602081101561030e57600080fd5b8101908080359060200190929190505050610cb9565b6040518082815260200191505060405180910390f35b34801561034657600080fd5b506103896004803603602081101561035d57600080fd5b81019080803573ffffffffffffffffffffffffffffffffffffffff169060200190929190505050610cf9565b6040518082815260200191505060405180910390f35b3480156103ab57600080fd5b506103b4610d42565b005b3480156103c257600080fd5b506103cb61107e565b6040518082815260200191505060405180910390f35b3480156103ed57600080fd5b506103f6611088565b6040518082815260200191505060405180910390f35b34801561041857600080fd5b50610421611092565b604051808273ffffffffffffffffffffffffffffffffffffffff16815260200191505060405180910390f35b34801561045957600080fd5b506104866004803603602081101561047057600080fd5b81019080803590602001909291905050506110b8565b6040518082815260200191505060405180910390f35b3480156104a857600080fd5b506104d5600480360360208110156104bf57600080fd5b81019080803590602001909291905050506110d7565b005b3480156104e357600080fd5b50610530600480360360408110156104fa57600080fd5b8101908080359060200190929190803573ffffffffffffffffffffffffffffffffffffffff1690602001909291905050506113d5565b005b34801561053e57600080fd5b5061058b6004803603604081101561055557600080fd5b8101908080359060200190929190803573ffffffffffffffffffffffffffffffffffffffff16906020019092919050505061145e565b005b34801561059957600080fd5b506105a26114f7565b005b3480156105b057600080fd5b50610607600480360360608110156105c757600080fd5b81019080803573ffffffffffffffffffffffffffffffffffffffff169060200190929190803590602001909291908035906020019092919050505061172b565b005b34801561061557600080fd5b5061061e611acc565b6040518082815260200191505060405180910390f35b34801561064057600080fd5b506106836004803603602081101561065757600080fd5b81019080803573ffffffffffffffffffffffffffffffffffffffff169060200190929190505050611ad6565b6040518082815260200191505060405180910390f35b3480156106a557600080fd5b506106d2600480360360208110156106bc57600080fd5b8101908080359060200190929190505050611b74565b005b3480156106e057600080fd5b5061070d600480360360208110156106f757600080fd5b8101908080359060200190929190505050611c00565b6040518082815260200191505060405180910390f35b34801561072f57600080fd5b506107726004803603602081101561074657600080fd5b81019080803573ffffffffffffffffffffffffffffffffffffffff169060200190929190505050611c40565b6040518082815260200191505060405180910390f35b34801561079457600080fd5b5061079d611c89565b6040518082815260200191505060405180910390f35b3480156107bf57600080fd5b506107c8611c93565b6040518082815260200191505060405180910390f35b3480156107ea57600080fd5b5061082d6004803603602081101561080157600080fd5b81019080803573ffffffffffffffffffffffffffffffffffffffff169060200190929190505050611ca6565b6040518082815260200191505060405180910390f35b34801561084f57600080fd5b506108866004803603604081101561086657600080fd5b810190808035906020019092919080359060200190929190505050611cef565b604051808273ffffffffffffffffffffffffffffffffffffffff16815260200191505060405180910390f35b3480156108be57600080fd5b5061090b600480360360408110156108d557600080fd5b8101908080359060200190929190803573ffffffffffffffffffffffffffffffffffffffff169060200190929190505050611d20565b60405180821515815260200191505060405180910390f35b34801561092f57600080fd5b50610938611d51565b6040518082815260200191505060405180910390f35b34801561095a57600080fd5b506109876004803603602081101561097157600080fd5b8101908080359060200190929190505050611d58565b005b34801561099557600080fd5b5061099e6120d6565b604051808273ffffffffffffffffffffffffffffffffffffffff16815260200191505060405180910390f35b3480156109d657600080fd5b506109df6120fc565b6040518082815260200191505060405180910390f35b348015610a0157600080fd5b50610a2e60048036036020811015610a1857600080fd5b8101908080359060200190929190505050612106565b6040518082815260200191505060405180910390f35b348015610a5057600080fd5b50610a5961212c565b6040518082815260200191505060405180910390f35b348015610a7b57600080fd5b50610ac860048036036040811015610a9257600080fd5b8101908080359060200190929190803573ffffffffffffffffffffffffffffffffffffffff1690602001909291905050506121ba565b005b348015610ad657600080fd5b50610adf612243565b6040518082815260200191505060405180910390f35b348015610b0157600080fd5b50610b0a61224d565b005b348015610b1857600080fd5b50610b2161229f565b6040518082815260200191505060405180910390f35b348015610b4357600080fd5b50610b4c6122a9565b6040518082815260200191505060405180910390f35b348015610b6e57600080fd5b50610b776122d0565b60405180848152602001838152602001828152602001935050505060405180910390f35b6000610cb2600c60008473ffffffffffffffffffffffffffffffffffffffff1673ffffffffffffffffffffffffffffffffffffffff16815260200190815260200160002054610ca4670de0b6b3a7640000610c96610c48600b60008973ffffffffffffffffffffffffffffffffffffffff1673ffffffffffffffffffffffffffffffffffffffff16815260200190815260200160002054610c3a61212c565b6125e490919063ffffffff16565b600a60008973ffffffffffffffffffffffffffffffffffffffff1673ffffffffffffffffffffffffffffffffffffffff1681526020019081526020016000205461262e90919063ffffffff16565b6126b490919063ffffffff16565b6126fe90919063ffffffff16565b9050919050565b6000806000610cc66122d0565b9250925050610cf081610ce2868561262e90919063ffffffff16565b6126b490919063ffffffff16565b92505050919050565b6000600c60008373ffffffffffffffffffffffffffffffffffffffff1673ffffffffffffffffffffffffffffffffffffffff168152602001908152602001600020549050919050565b610d6f7f09630fffc1c31ed9c8dd68f6e39219ed189b07ff9a25e1efc743b828f69d555e60001b33611d20565b610dc4576040517f08c379a00000000000000000000000000000000000000000000000000000000081526004018080602001828103825260248152602001806132276024913960400191505060405180910390fd5b6000610dce61212c565b6007819055506000610dde611c93565b905060006003541415610e2f57610e28610e17600554610e09600654856125e490919063ffffffff16565b61262e90919063ffffffff16565b6009546126fe90919063ffffffff16565b6009819055505b80600681905550600073ffffffffffffffffffffffffffffffffffffffff168273ffffffffffffffffffffffffffffffffffffffff1614610efd57610e7382610b9b565b600c60008473ffffffffffffffffffffffffffffffffffffffff1673ffffffffffffffffffffffffffffffffffffffff16815260200190815260200160002081905550600754600b60008473ffffffffffffffffffffffffffffffffffffffff1673ffffffffffffffffffffffffffffffffffffffff168152602001908152602001600020819055505b6000600260009054906101000a900473ffffffffffffffffffffffffffffffffffffffff1673ffffffffffffffffffffffffffffffffffffffff166370a08231306040518263ffffffff1660e01b8152600401808273ffffffffffffffffffffffffffffffffffffffff16815260200191505060206040518083038186803b158015610f8857600080fd5b505afa158015610f9c573d6000803e3d6000fd5b505050506040513d6020811015610fb257600080fd5b810190808051906020019092919050505090506000610fd360095483612786565b9050600060098190555061102a3382600260009054906101000a900473ffffffffffffffffffffffffffffffffffffffff1673ffffffffffffffffffffffffffffffffffffffff1661279f9092919063ffffffff16565b3373ffffffffffffffffffffffffffffffffffffffff167f03c8ad53f8f15df4e000e8ad831ec78f5c600de38d3d8fd21a8d573256fd2d9b826040518082815260200191505060405180910390a250505050565b6000600954905090565b6000600354905090565b600260009054906101000a900473ffffffffffffffffffffffffffffffffffffffff1681565b6000806000838152602001908152602001600020600201549050919050565b336110e061212c565b60078190555060006110f0611c93565b9050600060035414156111415761113a61112960055461111b600654856125e490919063ffffffff16565b61262e90919063ffffffff16565b6009546126fe90919063ffffffff16565b6009819055505b80600681905550600073ffffffffffffffffffffffffffffffffffffffff168273ffffffffffffffffffffffffffffffffffffffff161461120f5761118582610b9b565b600c60008473ffffffffffffffffffffffffffffffffffffffff1673ffffffffffffffffffffffffffffffffffffffff16815260200190815260200160002081905550600754600b60008473ffffffffffffffffffffffffffffffffffffffff1673ffffffffffffffffffffffffffffffffffffffff168152602001908152602001600020819055505b60008311611285576040517f08c379a000000000000000000000000000000000000000000000000000000000815260040180806020018281038252601a8152602001807f5374616b696e673a2063616e6e6f74207769746864726177203000000000000081525060200191505060405180910390fd5b61129a836003546125e490919063ffffffff16565b6003819055506112f283600a60003373ffffffffffffffffffffffffffffffffffffffff1673ffffffffffffffffffffffffffffffffffffffff168152602001908152602001600020546125e490919063ffffffff16565b600a60003373ffffffffffffffffffffffffffffffffffffffff1673ffffffffffffffffffffffffffffffffffffffff168152602001908152602001600020819055506113823384600160009054906101000a900473ffffffffffffffffffffffffffffffffffffffff1673ffffffffffffffffffffffffffffffffffffffff1661279f9092919063ffffffff16565b3373ffffffffffffffffffffffffffffffffffffffff167f7084f5476618d8e60b11ef0d7d3f06914655adb8793e28ff7f018d4c76d505d5846040518082815260200191505060405180910390a2505050565b6113fb600080848152602001908152602001600020600201546113f6612841565b611d20565b611450576040517f08c379a000000000000000000000000000000000000000000000000000000000815260040180806020018281038252602f815260200180613184602f913960400191505060405180910390fd5b61145a8282612849565b5050565b611466612841565b73ffffffffffffffffffffffffffffffffffffffff168173ffffffffffffffffffffffffffffffffffffffff16146114e9576040517f08c379a000000000000000000000000000000000000000000000000000000000815260040180806020018281038252602f815260200180613299602f913960400191505060405180910390fd5b6114f382826128dc565b5050565b3361150061212c565b6007819055506000611510611c93565b9050600060035414156115615761155a61154960055461153b600654856125e490919063ffffffff16565b61262e90919063ffffffff16565b6009546126fe90919063ffffffff16565b6009819055505b80600681905550600073ffffffffffffffffffffffffffffffffffffffff168273ffffffffffffffffffffffffffffffffffffffff161461162f576115a582610b9b565b600c60008473ffffffffffffffffffffffffffffffffffffffff1673ffffffffffffffffffffffffffffffffffffffff16815260200190815260200160002081905550600754600b60008473ffffffffffffffffffffffffffffffffffffffff1673ffffffffffffffffffffffffffffffffffffffff168152602001908152602001600020819055505b600061163a33610b9b565b90506000811115611726576000600c60003373ffffffffffffffffffffffffffffffffffffffff1673ffffffffffffffffffffffffffffffffffffffff168152602001908152602001600020819055506116d73382600260009054906101000a900473ffffffffffffffffffffffffffffffffffffffff1673ffffffffffffffffffffffffffffffffffffffff1661279f9092919063ffffffff16565b3373ffffffffffffffffffffffffffffffffffffffff167fe2403640ba68fed3a2f88b7557551d1993f84b99bb10ff833f0cf8db0c5e0486826040518082815260200191505060405180910390a25b505050565b6117587f09630fffc1c31ed9c8dd68f6e39219ed189b07ff9a25e1efc743b828f69d555e60001b33611d20565b6117ad576040517f08c379a00000000000000000000000000000000000000000000000000000000081526004018080602001828103825260248152602001806132276024913960400191505060405180910390fd5b60006117b761212c565b60078190555060006117c7611c93565b905060006003541415611818576118116118006005546117f2600654856125e490919063ffffffff16565b61262e90919063ffffffff16565b6009546126fe90919063ffffffff16565b6009819055505b80600681905550600073ffffffffffffffffffffffffffffffffffffffff168273ffffffffffffffffffffffffffffffffffffffff16146118e65761185c82610b9b565b600c60008473ffffffffffffffffffffffffffffffffffffffff1673ffffffffffffffffffffffffffffffffffffffff16815260200190815260200160002081905550600754600b60008473ffffffffffffffffffffffffffffffffffffffff1673ffffffffffffffffffffffffffffffffffffffff168152602001908152602001600020819055505b82841161193e576040517f08c379a00000000000000000000000000000000000000000000000000000000081526004018080602001828103825260238152602001806131b36023913960400191505060405180910390fd5b600061195384866126b490919063ffffffff16565b90506005548110156119b0576040517f08c379a000000000000000000000000000000000000000000000000000000000815260040180806020018281038252602481526020018061324b6024913960400191505060405180910390fd5b6004544210156119f8576119f56119e66005546119d8426004546125e490919063ffffffff16565b61262e90919063ffffffff16565b866125e490919063ffffffff16565b94505b8060058190555042600681905550611a1984426126fe90919063ffffffff16565b600481905550611a6e863087600260009054906101000a900473ffffffffffffffffffffffffffffffffffffffff1673ffffffffffffffffffffffffffffffffffffffff1661296f909392919063ffffffff16565b3373ffffffffffffffffffffffffffffffffffffffff167f6a6f77044107a33658235d41bedbbaf2fe9ccdceb313143c947a5e76e1ec84748686604051808381526020018281526020019250505060405180910390a2505050505050565b6000600854905090565b6000806000611ae36122d0565b92509250506000611b1183611b036008548561262e90919063ffffffff16565b6126b490919063ffffffff16565b90506000600a60008773ffffffffffffffffffffffffffffffffffffffff1673ffffffffffffffffffffffffffffffffffffffff168152602001908152602001600020549050808211611b65576000611b69565b8082035b945050505050919050565b611ba17f09630fffc1c31ed9c8dd68f6e39219ed189b07ff9a25e1efc743b828f69d555e60001b33611d20565b611bf6576040517f08c379a00000000000000000000000000000000000000000000000000000000081526004018080602001828103825260248152602001806132276024913960400191505060405180910390fd5b8060088190555050565b6000806000611c0d6122d0565b9250509150611c3781611c29868561262e90919063ffffffff16565b6126b490919063ffffffff16565b92505050919050565b6000600a60008373ffffffffffffffffffffffffffffffffffffffff1673ffffffffffffffffffffffffffffffffffffffff168152602001908152602001600020549050919050565b6000600554905090565b6000611ca142600454612786565b905090565b6000600b60008373ffffffffffffffffffffffffffffffffffffffff1673ffffffffffffffffffffffffffffffffffffffff168152602001908152602001600020549050919050565b6000611d1882600080868152602001908152602001600020600001612a3090919063ffffffff16565b905092915050565b6000611d4982600080868152602001908152602001600020600001612a4a90919063ffffffff16565b905092915050565b6000801b81565b33611d6161212c565b6007819055506000611d71611c93565b905060006003541415611dc257611dbb611daa600554611d9c600654856125e490919063ffffffff16565b61262e90919063ffffffff16565b6009546126fe90919063ffffffff16565b6009819055505b80600681905550600073ffffffffffffffffffffffffffffffffffffffff168273ffffffffffffffffffffffffffffffffffffffff1614611e9057611e0682610b9b565b600c60008473ffffffffffffffffffffffffffffffffffffffff1673ffffffffffffffffffffffffffffffffffffffff16815260200190815260200160002081905550600754600b60008473ffffffffffffffffffffffffffffffffffffffff1673ffffffffffffffffffffffffffffffffffffffff168152602001908152602001600020819055505b60008311611f06576040517f08c379a00000000000000000000000000000000000000000000000000000000081526004018080602001828103825260178152602001807f5374616b696e673a2063616e6e6f74207374616b65203000000000000000000081525060200191505060405180910390fd5b611f0f33611ad6565b831115611f84576040517f08c379a000000000000000000000000000000000000000000000000000000000815260040180806020018281038252601d8152602001807f5374616b696e673a20616d6f756e742065786365656473206c696d697400000081525060200191505060405180910390fd5b611fd683600a60003373ffffffffffffffffffffffffffffffffffffffff1673ffffffffffffffffffffffffffffffffffffffff168152602001908152602001600020546126fe90919063ffffffff16565b600a60003373ffffffffffffffffffffffffffffffffffffffff1673ffffffffffffffffffffffffffffffffffffffff1681526020019081526020016000208190555061202e836003546126fe90919063ffffffff16565b600381905550612083333085600160009054906101000a900473ffffffffffffffffffffffffffffffffffffffff1673ffffffffffffffffffffffffffffffffffffffff1661296f909392919063ffffffff16565b3373ffffffffffffffffffffffffffffffffffffffff167f9e71bc8eea02a63969f509818f2dafb9254532904319f9dbda79b67bd34a5f3d846040518082815260200191505060405180910390a2505050565b600160009054906101000a900473ffffffffffffffffffffffffffffffffffffffff1681565b6000600654905090565b6000612125600080848152602001908152602001600020600001612a7a565b9050919050565b60008060035414156121425760075490506121b7565b6121b46121a3600354612195670de0b6b3a764000061218760055461217960065461216b611c93565b6125e490919063ffffffff16565b61262e90919063ffffffff16565b61262e90919063ffffffff16565b6126b490919063ffffffff16565b6007546126fe90919063ffffffff16565b90505b90565b6121e0600080848152602001908152602001600020600201546121db612841565b611d20565b612235576040517f08c379a00000000000000000000000000000000000000000000000000000000081526004018080602001828103825260308152602001806131d66030913960400191505060405180910390fd5b61223f82826128dc565b5050565b6000600754905090565b612295600a60003373ffffffffffffffffffffffffffffffffffffffff1673ffffffffffffffffffffffffffffffffffffffff168152602001908152602001600020546110d7565b61229d6114f7565b565b6000600454905090565b7f09630fffc1c31ed9c8dd68f6e39219ed189b07ff9a25e1efc743b828f69d555e60001b81565b6000806000600160009054906101000a900473ffffffffffffffffffffffffffffffffffffffff1673ffffffffffffffffffffffffffffffffffffffff166318160ddd6040518163ffffffff1660e01b815260040160206040518083038186803b15801561233d57600080fd5b505afa158015612351573d6000803e3d6000fd5b505050506040513d602081101561236757600080fd5b81019080805190602001909291905050509050600080600160009054906101000a900473ffffffffffffffffffffffffffffffffffffffff1673ffffffffffffffffffffffffffffffffffffffff16630902f1ac6040518163ffffffff1660e01b815260040160606040518083038186803b1580156123e557600080fd5b505afa1580156123f9573d6000803e3d6000fd5b505050506040513d606081101561240f57600080fd5b81019080805190602001909291908051906020019092919080519060200190929190505050506dffffffffffffffffffffffffffff1691506dffffffffffffffffffffffffffff169150600160009054906101000a900473ffffffffffffffffffffffffffffffffffffffff1673ffffffffffffffffffffffffffffffffffffffff16630dfe16816040518163ffffffff1660e01b815260040160206040518083038186803b1580156124c157600080fd5b505afa1580156124d5573d6000803e3d6000fd5b505050506040513d60208110156124eb57600080fd5b810190808051906020019092919050505073ffffffffffffffffffffffffffffffffffffffff16600260009054906101000a900473ffffffffffffffffffffffffffffffffffffffff1673ffffffffffffffffffffffffffffffffffffffff161461255757808261255a565b81815b80955081965050505050909192565b60008060007fc5d2460186f7233c927e7db2dcc703c0e500b653ca82273b7bfad8045d85a47060001b9050833f91508082141580156125ab57506000801b8214155b92505050919050565b60006125dc836000018373ffffffffffffffffffffffffffffffffffffffff1660001b612a8f565b905092915050565b600061262683836040518060400160405280601e81526020017f536166654d6174683a207375627472616374696f6e206f766572666c6f770000815250612aff565b905092915050565b60008083141561264157600090506126ae565b600082840290508284828161265257fe5b04146126a9576040517f08c379a00000000000000000000000000000000000000000000000000000000081526004018080602001828103825260218152602001806132066021913960400191505060405180910390fd5b809150505b92915050565b60006126f683836040518060400160405280601a81526020017f536166654d6174683a206469766973696f6e206279207a65726f000000000000815250612bbf565b905092915050565b60008082840190508381101561277c576040517f08c379a000000000000000000000000000000000000000000000000000000000815260040180806020018281038252601b8152602001807f536166654d6174683a206164646974696f6e206f766572666c6f77000000000081525060200191505060405180910390fd5b8091505092915050565b60008183106127955781612797565b825b905092915050565b61283c8363a9059cbb60e01b8484604051602401808373ffffffffffffffffffffffffffffffffffffffff16815260200182815260200192505050604051602081830303815290604052907bffffffffffffffffffffffffffffffffffffffffffffffffffffffff19166020820180517bffffffffffffffffffffffffffffffffffffffffffffffffffffffff8381831617835250505050612c85565b505050565b600033905090565b612870816000808581526020019081526020016000206000016125b490919063ffffffff16565b156128d85761287d612841565b73ffffffffffffffffffffffffffffffffffffffff168173ffffffffffffffffffffffffffffffffffffffff16837f2f8788117e7eff1d82e926ec794901d17c78024a50270940304540a733656f0d60405160405180910390a45b5050565b61290381600080858152602001908152602001600020600001612d7490919063ffffffff16565b1561296b57612910612841565b73ffffffffffffffffffffffffffffffffffffffff168173ffffffffffffffffffffffffffffffffffffffff16837ff6391f5c32d9c69d2a47ea670b442974b53935d1edc7fd64eb21e047a839171b60405160405180910390a45b5050565b612a2a846323b872dd60e01b858585604051602401808473ffffffffffffffffffffffffffffffffffffffff1681526020018373ffffffffffffffffffffffffffffffffffffffff1681526020018281526020019350505050604051602081830303815290604052907bffffffffffffffffffffffffffffffffffffffffffffffffffffffff19166020820180517bffffffffffffffffffffffffffffffffffffffffffffffffffffffff8381831617835250505050612c85565b50505050565b6000612a3f8360000183612da4565b60001c905092915050565b6000612a72836000018373ffffffffffffffffffffffffffffffffffffffff1660001b612e27565b905092915050565b6000612a8882600001612e4a565b9050919050565b6000612a9b8383612e27565b612af4578260000182908060018154018082558091505060019003906000526020600020016000909190919091505582600001805490508360010160008481526020019081526020016000208190555060019050612af9565b600090505b92915050565b6000838311158290612bac576040517f08c379a00000000000000000000000000000000000000000000000000000000081526004018080602001828103825283818151815260200191508051906020019080838360005b83811015612b71578082015181840152602081019050612b56565b50505050905090810190601f168015612b9e5780820380516001836020036101000a031916815260200191505b509250505060405180910390fd5b5060008385039050809150509392505050565b60008083118290612c6b576040517f08c379a00000000000000000000000000000000000000000000000000000000081526004018080602001828103825283818151815260200191508051906020019080838360005b83811015612c30578082015181840152602081019050612c15565b50505050905090810190601f168015612c5d5780820380516001836020036101000a031916815260200191505b509250505060405180910390fd5b506000838581612c7757fe5b049050809150509392505050565b6060612ce7826040518060400160405280602081526020017f5361666545524332303a206c6f772d6c6576656c2063616c6c206661696c65648152508573ffffffffffffffffffffffffffffffffffffffff16612e5b9092919063ffffffff16565b9050600081511115612d6f57808060200190516020811015612d0857600080fd5b8101908080519060200190929190505050612d6e576040517f08c379a000000000000000000000000000000000000000000000000000000000815260040180806020018281038252602a81526020018061326f602a913960400191505060405180910390fd5b5b505050565b6000612d9c836000018373ffffffffffffffffffffffffffffffffffffffff1660001b612e73565b905092915050565b600081836000018054905011612e05576040517f08c379a00000000000000000000000000000000000000000000000000000000081526004018080602001828103825260228152602001806131626022913960400191505060405180910390fd5b826000018281548110612e1457fe5b9060005260206000200154905092915050565b600080836001016000848152602001908152602001600020541415905092915050565b600081600001805490509050919050565b6060612e6a8484600085612f5b565b90509392505050565b60008083600101600084815260200190815260200160002054905060008114612f4f5760006001820390506000600186600001805490500390506000866000018281548110612ebe57fe5b9060005260206000200154905080876000018481548110612edb57fe5b9060005260206000200181905550600183018760010160008381526020019081526020016000208190555086600001805480612f1357fe5b60019003818190600052602060002001600090559055866001016000878152602001908152602001600020600090556001945050505050612f55565b60009150505b92915050565b6060612f6685612569565b612fd8576040517f08c379a000000000000000000000000000000000000000000000000000000000815260040180806020018281038252601d8152602001807f416464726573733a2063616c6c20746f206e6f6e2d636f6e747261637400000081525060200191505060405180910390fd5b600060608673ffffffffffffffffffffffffffffffffffffffff1685876040518082805190602001908083835b602083106130285780518252602082019150602081019050602083039250613005565b6001836020036101000a03801982511681845116808217855250505050505090500191505060006040518083038185875af1925050503d806000811461308a576040519150601f19603f3d011682016040523d82523d6000602084013e61308f565b606091505b509150915081156130a4578092505050613159565b6000815111156130b75780518082602001fd5b836040517f08c379a00000000000000000000000000000000000000000000000000000000081526004018080602001828103825283818151815260200191508051906020019080838360005b8381101561311e578082015181840152602081019050613103565b50505050905090810190601f16801561314b5780820380516001836020036101000a031916815260200191505b509250505060405180910390fd5b94935050505056fe456e756d657261626c655365743a20696e646578206f7574206f6620626f756e6473416363657373436f6e74726f6c3a2073656e646572206d75737420626520616e2061646d696e20746f206772616e745374616b696e673a2043616e6e6f7420617070726f7665206c657373207468616e2031416363657373436f6e74726f6c3a2073656e646572206d75737420626520616e2061646d696e20746f207265766f6b65536166654d6174683a206d756c7469706c69636174696f6e206f766572666c6f775374616b696e673a2043616c6c6572206973206e6f7420612064697374726962757465725374616b696e673a20646567726167726174696f6e206973206e6f7420616c6c6f7765645361666545524332303a204552433230206f7065726174696f6e20646964206e6f742073756363656564416363657373436f6e74726f6c3a2063616e206f6e6c792072656e6f756e636520726f6c657320666f722073656c66a264697066735822122019be86bde9ae9546447b0717f3c6f2dd5a90f5cb0fcba7d3d63d582a6fef07ae64736f6c634300060c00335374616b696e673a207061697220616e64205949454c4420617265207468652073616d65"}}