{
  "opcodeHash": "0x6ce51988b2bc0d86ba428de3801e9b7bfb2fc8ee534f4d13716239deb9a1f916",
  "metalessHash": "0xec64220e49fbf59038ab6455b9b0979499e03a36664a4525631310e897d1a5a8",
  "runtimeHash": "0xe4700db463b6be97b8618f4096ca3322e1f303c5b4b2f2f8517dbe3f58a990f1",
  "encodedMetadata": [
    {
      "ipfs": "/ipfs/QmWn51Keh2rmuwJJs5MFRAm2UMBsMHqXsrHb2AfByjh8N6",
      "solc": "0.6.10"
    }
  ],
  "abi": [
    {
      "inputs": [
        {
          "internalType": "contract IController",
          "name": "_controller",
          "type": "address"
        },
        {
          "internalType": "contract IWETH",
          "name": "_weth",
          "type": "address"
        }
      ],
      "stateMutability": "nonpayable",
      "type": "constructor"
    },
    {
      "anonymous": false,
      "inputs": [
        {
          "indexed": true,
          "internalType": "contract ICKToken",
          "name": "_ckToken",
          "type": "address"
        },
        {
          "indexed": true,
          "internalType": "bool",
          "name": "_status",
          "type": "bool"
        }
      ],
      "name": "AnyoneTradeUpdated",
      "type": "event"
    },
    {
      "anonymous": false,
      "inputs": [
        {
          "indexed": true,
          "internalType": "contract ICKToken",
          "name": "_ckToken",
          "type": "address"
        },
        {
          "indexed": true,
          "internalType": "address",
          "name": "_component",
          "type": "address"
        },
        {
          "indexed": false,
          "internalType": "string",
          "name": "_newExchangeName",
          "type": "string"
        }
      ],
      "name": "AssetExchangeUpdated",
      "type": "event"
    },
    {
      "anonymous": false,
      "inputs": [
        {
          "indexed": true,
          "internalType": "contract ICKToken",
          "name": "_ckToken",
          "type": "address"
        },
        {
          "indexed": true,
          "internalType": "uint256",
          "name": "positionMultiplier",
          "type": "uint256"
        }
      ],
      "name": "AssetTargetsRaised",
      "type": "event"
    },
    {
      "anonymous": false,
      "inputs": [
        {
          "indexed": true,
          "internalType": "contract ICKToken",
          "name": "_ckToken",
          "type": "address"
        },
        {
          "indexed": true,
          "internalType": "address",
          "name": "_component",
          "type": "address"
        },
        {
          "indexed": false,
          "internalType": "uint256",
          "name": "_newCoolOffPeriod",
          "type": "uint256"
        }
      ],
      "name": "CoolOffPeriodUpdated",
      "type": "event"
    },
    {
      "anonymous": false,
      "inputs": [
        {
          "indexed": true,
          "internalType": "contract ICKToken",
          "name": "_ckToken",
          "type": "address"
        },
        {
          "indexed": true,
          "internalType": "address",
          "name": "_component",
          "type": "address"
        },
        {
          "indexed": false,
          "internalType": "bytes",
          "name": "_newExchangeData",
          "type": "bytes"
        }
      ],
      "name": "ExchangeDataUpdated",
      "type": "event"
    },
    {
      "anonymous": false,
      "inputs": [
        {
          "indexed": true,
          "internalType": "contract ICKToken",
          "name": "_ckToken",
          "type": "address"
        },
        {
          "indexed": true,
          "internalType": "uint256",
          "name": "_raiseTargetPercentage",
          "type": "uint256"
        }
      ],
      "name": "RaiseTargetPercentageUpdated",
      "type": "event"
    },
    {
      "anonymous": false,
      "inputs": [
        {
          "indexed": true,
          "internalType": "contract ICKToken",
          "name": "_ckToken",
          "type": "address"
        },
        {
          "indexed": false,
          "internalType": "address[]",
          "name": "aggregateComponents",
          "type": "address[]"
        },
        {
          "indexed": false,
          "internalType": "uint256[]",
          "name": "aggregateTargetUnits",
          "type": "uint256[]"
        },
        {
          "indexed": true,
          "internalType": "uint256",
          "name": "positionMultiplier",
          "type": "uint256"
        }
      ],
      "name": "RebalanceStarted",
      "type": "event"
    },
    {
      "anonymous": false,
      "inputs": [
        {
          "indexed": true,
          "internalType": "contract ICKToken",
          "name": "_ckToken",
          "type": "address"
        },
        {
          "indexed": true,
          "internalType": "address",
          "name": "_sellComponent",
          "type": "address"
        },
        {
          "indexed": true,
          "internalType": "address",
          "name": "_buyComponent",
          "type": "address"
        },
        {
          "indexed": false,
          "internalType": "contract IIndexExchangeAdapter",
          "name": "_exchangeAdapter",
          "type": "address"
        },
        {
          "indexed": false,
          "internalType": "address",
          "name": "_executor",
          "type": "address"
        },
        {
          "indexed": false,
          "internalType": "uint256",
          "name": "_netAmountSold",
          "type": "uint256"
        },
        {
          "indexed": false,
          "internalType": "uint256",
          "name": "_netAmountReceived",
          "type": "uint256"
        },
        {
          "indexed": false,
          "internalType": "uint256",
          "name": "_protocolFee",
          "type": "uint256"
        }
      ],
      "name": "TradeExecuted",
      "type": "event"
    },
    {
      "anonymous": false,
      "inputs": [
        {
          "indexed": true,
          "internalType": "contract ICKToken",
          "name": "_ckToken",
          "type": "address"
        },
        {
          "indexed": true,
          "internalType": "address",
          "name": "_component",
          "type": "address"
        },
        {
          "indexed": false,
          "internalType": "uint256",
          "name": "_newMaximum",
          "type": "uint256"
        }
      ],
      "name": "TradeMaximumUpdated",
      "type": "event"
    },
    {
      "anonymous": false,
      "inputs": [
        {
          "indexed": true,
          "internalType": "contract ICKToken",
          "name": "_ckToken",
          "type": "address"
        },
        {
          "indexed": true,
          "internalType": "address",
          "name": "_trader",
          "type": "address"
        },
        {
          "indexed": false,
          "internalType": "bool",
          "name": "_status",
          "type": "bool"
        }
      ],
      "name": "TraderStatusUpdated",
      "type": "event"
    },
    {
      "inputs": [
        {
          "internalType": "contract ICKToken",
          "name": "_ckToken",
          "type": "address"
        },
        {
          "internalType": "contract IERC20",
          "name": "_component",
          "type": "address"
        },
        {
          "internalType": "uint256",
          "name": "_totalSupply",
          "type": "uint256"
        }
      ],
      "name": "calculateTradeSizeAndDirection",
      "outputs": [
        {
          "internalType": "bool",
          "name": "isSendTokenFixed",
          "type": "bool"
        },
        {
          "internalType": "uint256",
          "name": "totalFixedQuantity",
          "type": "uint256"
        }
      ],
      "stateMutability": "view",
      "type": "function"
    },
    {
      "inputs": [],
      "name": "controller",
      "outputs": [
        {
          "internalType": "contract IController",
          "name": "",
          "type": "address"
        }
      ],
      "stateMutability": "view",
      "type": "function"
    },
    {
      "inputs": [
        {
          "internalType": "contract ICKToken",
          "name": "",
          "type": "address"
        },
        {
          "internalType": "contract IERC20",
          "name": "",
          "type": "address"
        }
      ],
      "name": "executionInfo",
      "outputs": [
        {
          "internalType": "uint256",
          "name": "targetUnit",
          "type": "uint256"
        },
        {
          "internalType": "uint256",
          "name": "maxSize",
          "type": "uint256"
        },
        {
          "internalType": "uint256",
          "name": "coolOffPeriod",
          "type": "uint256"
        },
        {
          "internalType": "uint256",
          "name": "lastTradeTimestamp",
          "type": "uint256"
        },
        {
          "internalType": "string",
          "name": "exchangeName",
          "type": "string"
        },
        {
          "internalType": "bytes",
          "name": "exchangeData",
          "type": "bytes"
        }
      ],
      "stateMutability": "view",
      "type": "function"
    },
    {
      "inputs": [
        {
          "internalType": "contract ICKToken",
          "name": "_ckToken",
          "type": "address"
        }
      ],
      "name": "getAllowedTraders",
      "outputs": [
        {
          "internalType": "address[]",
          "name": "",
          "type": "address[]"
        }
      ],
      "stateMutability": "view",
      "type": "function"
    },
    {
      "inputs": [
        {
          "internalType": "contract ICKToken",
          "name": "_ckToken",
          "type": "address"
        },
        {
          "internalType": "contract IERC20",
          "name": "_component",
          "type": "address"
        }
      ],
      "name": "getComponentTradeQuantityAndDirection",
      "outputs": [
        {
          "internalType": "bool",
          "name": "",
          "type": "bool"
        },
        {
          "internalType": "uint256",
          "name": "",
          "type": "uint256"
        }
      ],
      "stateMutability": "view",
      "type": "function"
    },
    {
      "inputs": [
        {
          "internalType": "contract ICKToken",
          "name": "_ckToken",
          "type": "address"
        },
        {
          "internalType": "address",
          "name": "_trader",
          "type": "address"
        }
      ],
      "name": "getIsAllowedTrader",
      "outputs": [
        {
          "internalType": "bool",
          "name": "",
          "type": "bool"
        }
      ],
      "stateMutability": "view",
      "type": "function"
    },
    {
      "inputs": [
        {
          "internalType": "contract ICKToken",
          "name": "_ckToken",
          "type": "address"
        }
      ],
      "name": "getRebalanceComponents",
      "outputs": [
        {
          "internalType": "address[]",
          "name": "",
          "type": "address[]"
        }
      ],
      "stateMutability": "view",
      "type": "function"
    },
    {
      "inputs": [
        {
          "internalType": "contract ICKToken",
          "name": "_ckToken",
          "type": "address"
        }
      ],
      "name": "initialize",
      "outputs": [],
      "stateMutability": "nonpayable",
      "type": "function"
    },
    {
      "inputs": [
        {
          "internalType": "contract ICKToken",
          "name": "",
          "type": "address"
        }
      ],
      "name": "permissionInfo",
      "outputs": [
        {
          "internalType": "bool",
          "name": "anyoneTrade",
          "type": "bool"
        }
      ],
      "stateMutability": "view",
      "type": "function"
    },
    {
      "inputs": [
        {
          "internalType": "contract ICKToken",
          "name": "_ckToken",
          "type": "address"
        }
      ],
      "name": "raiseAssetTargets",
      "outputs": [],
      "stateMutability": "nonpayable",
      "type": "function"
    },
    {
      "inputs": [
        {
          "internalType": "contract ICKToken",
          "name": "",
          "type": "address"
        }
      ],
      "name": "rebalanceInfo",
      "outputs": [
        {
          "internalType": "uint256",
          "name": "positionMultiplier",
          "type": "uint256"
        },
        {
          "internalType": "uint256",
          "name": "raiseTargetPercentage",
          "type": "uint256"
        }
      ],
      "stateMutability": "view",
      "type": "function"
    },
    {
      "inputs": [],
      "name": "removeModule",
      "outputs": [],
      "stateMutability": "nonpayable",
      "type": "function"
    },
    {
      "inputs": [
        {
          "internalType": "contract ICKToken",
          "name": "_ckToken",
          "type": "address"
        },
        {
          "internalType": "bool",
          "name": "_status",
          "type": "bool"
        }
      ],
      "name": "setAnyoneTrade",
      "outputs": [],
      "stateMutability": "nonpayable",
      "type": "function"
    },
    {
      "inputs": [
        {
          "internalType": "contract ICKToken",
          "name": "_ckToken",
          "type": "address"
        },
        {
          "internalType": "address[]",
          "name": "_components",
          "type": "address[]"
        },
        {
          "internalType": "uint256[]",
          "name": "_coolOffPeriods",
          "type": "uint256[]"
        }
      ],
      "name": "setCoolOffPeriods",
      "outputs": [],
      "stateMutability": "nonpayable",
      "type": "function"
    },
    {
      "inputs": [
        {
          "internalType": "contract ICKToken",
          "name": "_ckToken",
          "type": "address"
        },
        {
          "internalType": "address[]",
          "name": "_components",
          "type": "address[]"
        },
        {
          "internalType": "bytes[]",
          "name": "_exchangeData",
          "type": "bytes[]"
        }
      ],
      "name": "setExchangeData",
      "outputs": [],
      "stateMutability": "nonpayable",
      "type": "function"
    },
    {
      "inputs": [
        {
          "internalType": "contract ICKToken",
          "name": "_ckToken",
          "type": "address"
        },
        {
          "internalType": "address[]",
          "name": "_components",
          "type": "address[]"
        },
        {
          "internalType": "string[]",
          "name": "_exchangeNames",
          "type": "string[]"
        }
      ],
      "name": "setExchanges",
      "outputs": [],
      "stateMutability": "nonpayable",
      "type": "function"
    },
    {
      "inputs": [
        {
          "internalType": "contract ICKToken",
          "name": "_ckToken",
          "type": "address"
        },
        {
          "internalType": "uint256",
          "name": "_raiseTargetPercentage",
          "type": "uint256"
        }
      ],
      "name": "setRaiseTargetPercentage",
      "outputs": [],
      "stateMutability": "nonpayable",
      "type": "function"
    },
    {
      "inputs": [
        {
          "internalType": "contract ICKToken",
          "name": "_ckToken",
          "type": "address"
        },
        {
          "internalType": "address[]",
          "name": "_components",
          "type": "address[]"
        },
        {
          "internalType": "uint256[]",
          "name": "_tradeMaximums",
          "type": "uint256[]"
        }
      ],
      "name": "setTradeMaximums",
      "outputs": [],
      "stateMutability": "nonpayable",
      "type": "function"
    },
    {
      "inputs": [
        {
          "internalType": "contract ICKToken",
          "name": "_ckToken",
          "type": "address"
        },
        {
          "internalType": "address[]",
          "name": "_traders",
          "type": "address[]"
        },
        {
          "internalType": "bool[]",
          "name": "_statuses",
          "type": "bool[]"
        }
      ],
      "name": "setTraderStatus",
      "outputs": [],
      "stateMutability": "nonpayable",
      "type": "function"
    },
    {
      "inputs": [
        {
          "internalType": "contract ICKToken",
          "name": "_ckToken",
          "type": "address"
        },
        {
          "internalType": "address[]",
          "name": "_newComponents",
          "type": "address[]"
        },
        {
          "internalType": "uint256[]",
          "name": "_newComponentsTargetUnits",
          "type": "uint256[]"
        },
        {
          "internalType": "uint256[]",
          "name": "_oldComponentsTargetUnits",
          "type": "uint256[]"
        },
        {
          "internalType": "uint256",
          "name": "_positionMultiplier",
          "type": "uint256"
        }
      ],
      "name": "startRebalance",
      "outputs": [],
      "stateMutability": "nonpayable",
      "type": "function"
    },
    {
      "inputs": [
        {
          "internalType": "contract ICKToken",
          "name": "_ckToken",
          "type": "address"
        },
        {
          "internalType": "contract IERC20",
          "name": "_component",
          "type": "address"
        },
        {
          "internalType": "uint256",
          "name": "_ethQuantityLimit",
          "type": "uint256"
        }
      ],
      "name": "trade",
      "outputs": [],
      "stateMutability": "nonpayable",
      "type": "function"
    },
    {
      "inputs": [
        {
          "internalType": "contract ICKToken",
          "name": "_ckToken",
          "type": "address"
        },
        {
          "internalType": "contract IERC20",
          "name": "_component",
          "type": "address"
        },
        {
          "internalType": "uint256",
          "name": "_minComponentReceived",
          "type": "uint256"
        }
      ],
      "name": "tradeRemainingWETH",
      "outputs": [],
      "stateMutability": "nonpayable",
      "type": "function"
    },
    {
      "inputs": [],
      "name": "weth",
      "outputs": [
        {
          "internalType": "contract IWETH",
          "name": "",
          "type": "address"
        }
      ],
      "stateMutability": "view",
      "type": "function"
    }
  ],
  "bytecode": {
    "object": "60a06040523480156200001157600080fd5b50604051620054f1380380620054f183398101604081905262000034916200006f565b600080546001600160a01b0319166001600160a01b0393909316929092179091556001805560601b6001600160601b031916608052620000c6565b6000806040838503121562000082578182fd5b82516200008f81620000ad565b6020840151909250620000a281620000ad565b809150509250929050565b6001600160a01b0381168114620000c357600080fd5b50565b60805160601c6153d66200011b600039806106935280610a515280610e5b5280610e9d5280611864528061188e5280611c6052806124ce5280613060528061309452806134d7528061374a52506153d66000f3fe608060405234801561001057600080fd5b506004361061014d5760003560e01c80638fa92b05116100c3578063dc4a8df21161007c578063dc4a8df2146102c3578063dc8abe2e146102e4578063e231a67914610305578063e64ef1c114610318578063f77c47911461032b578063ff0932a1146103335761014d565b80638fa92b0514610244578063987061dd14610257578063b82177191461026a578063b91d30e91461027d578063c4d66de814610290578063d4f00532146102a35761014d565b806345e3db3e1161011557806345e3db3e146101dd5780635253baae146101f05780636235b884146102035780636dbd8b9114610216578063737531ba14610229578063847ef08d1461023c5761014d565b80630a251f601461015257806317b755ea1461017b5780632f5c5ac3146101905780633fc8cef3146101a3578063421dec4d146101b8575b600080fd5b61016561016036600461446e565b610346565b6040516101729190614ab3565b60405180910390f35b61018e610189366004614629565b610366565b005b61018e61019e3660046144a6565b610492565b6101ab610691565b604051610172919061497b565b6101cb6101c636600461446e565b6106b5565b604051610172969594939291906152ac565b6101656101eb366004614452565b610801565b61018e6101fe366004614889565b610816565b61018e6102113660046147a0565b610914565b61018e6102243660046146ed565b610a29565b61018e6102373660046148c9565b610c5c565b61018e610cd1565b61018e61025236600461485c565b610d95565b61018e610265366004614889565b610df4565b61018e6102783660046147a0565b610fef565b61018e61028b366004614555565b611104565b61018e61029e366004614452565b61125d565b6102b66102b1366004614452565b61147f565b6040516101729190614a4a565b6102d66102d1366004614889565b611504565b604051610172929190614abe565b6102f76102f2366004614452565b611668565b60405161017292919061529e565b6102d661031336600461446e565b611681565b6102b6610326366004614452565b6117b3565b6101ab611835565b61018e610341366004614452565b611844565b60008261035281611972565b61035c848461199a565b91505b5092915050565b82610370816119e5565b610380838363ffffffff611a0b16565b60005b835181101561048b5782818151811061039857fe5b602002602001015160026000876001600160a01b03166001600160a01b0316815260200190815260200160002060008684815181106103d357fe5b60200260200101516001600160a01b03166001600160a01b031681526020019081526020016000206005019080519060200190610411929190613e4b565b5083818151811061041e57fe5b60200260200101516001600160a01b0316856001600160a01b03167f2e7f18adcce9eaadebfe023c5fa3ff34900485c34846d43561ddb4e1e650115885848151811061046657fe5b602002602001015160405161047b9190614ace565b60405180910390a3600101610383565b5050505050565b8761049c816119e5565b6060806105228b6001600160a01b03166399d50d5d6040518163ffffffff1660e01b815260040160006040518083038186803b1580156104db57600080fd5b505afa1580156104ef573d6000803e3d6000fd5b505050506040513d6000823e601f3d908101601f191682016040526105179190810190614269565b8b8b8b8b8b8b611a39565b909250905060005b82518110156105fb5761056283828151811061054257fe5b60200260200101518d6001600160a01b0316611b6c90919063ffffffff16565b156105885760405162461bcd60e51b815260040161057f90615035565b60405180910390fd5b81818151811061059457fe5b6020026020010151600260008e6001600160a01b03166001600160a01b0316815260200190815260200160002060008584815181106105cf57fe5b6020908102919091018101516001600160a01b031682528101919091526040016000205560010161052a565b506001600160a01b038b166000908152600460209081526040909120835161062b92600290920191850190613ec5565b506001600160a01b038b1660008181526004602052604090819020869055518591907f10730cd494f105e9bcaa2772774ed1c9b1704cc91a49a3269b1644d6c5087cd29061067c9086908690614a5d565b60405180910390a35050505050505050505050565b7f000000000000000000000000000000000000000000000000000000000000000081565b6002602081815260009384526040808520825292845292829020805460018083015483850154600385015460048601805489519581161561010002600019011697909704601f81018a90048a0285018a01909852878452939791969095939493918301828280156107675780601f1061073c57610100808354040283529160200191610767565b820191906000526020600020905b81548152906001019060200180831161074a57829003601f168201915b5050505060058301805460408051602060026001851615610100026000190190941693909304601f81018490048402820184019092528181529495949350908301828280156107f75780601f106107cc576101008083540402835291602001916107f7565b820191906000526020600020905b8154815290600101906020018083116107da57829003601f168201915b5050505050905086565b60036020526000908152604090205460ff1681565b600260015414156108395760405162461bcd60e51b815260040161057f90615203565b60026001558261084881611bf8565b8361085281611c1e565b61085c8585611c5e565b610864613f26565b61086f868686611f4f565b905061087a81611fb5565b600061088582612192565b90506000806108948489612244565b9150915083606001516001600160a01b031684604001516001600160a01b031685600001516001600160a01b03167f54e9e24dab7ba662ede90396b0de464467c3d65f95485171a60381185219f10b87602001513387878a6040516108fd959493929190614ae1565b60405180910390a450506001805550505050505050565b8261091e816119e5565b61092e838363ffffffff611a0b16565b60005b835181101561048b5782818151811061094657fe5b602002602001015160026000876001600160a01b03166001600160a01b03168152602001908152602001600020600086848151811061098157fe5b60200260200101516001600160a01b03166001600160a01b03168152602001908152602001600020600101819055508381815181106109bc57fe5b60200260200101516001600160a01b0316856001600160a01b03167fd87a5e1bfdb22484feb4f6baaa1711185a539bbfa8e8ab5d85d1dd77ab1e2566858481518110610a0457fe5b6020026020010151604051610a199190615295565b60405180910390a3600101610931565b82610a33816119e5565b610a43838363ffffffff611a0b16565b60005b835181101561048b577f00000000000000000000000000000000000000000000000000000000000000006001600160a01b0316848281518110610a8557fe5b60200260200101516001600160a01b031614610c5457600054610ab0906001600160a01b0316612320565b6001600160a01b031663639a397830858481518110610acb57fe5b60200260200101516040518363ffffffff1660e01b8152600401610af0929190614a26565b60206040518083038186803b158015610b0857600080fd5b505afa158015610b1c573d6000803e3d6000fd5b505050506040513d601f19601f82011682018060405250810190610b409190614404565b610b5c5760405162461bcd60e51b815260040161057f90614eaa565b828181518110610b6857fe5b602002602001015160026000876001600160a01b03166001600160a01b031681526020019081526020016000206000868481518110610ba357fe5b60200260200101516001600160a01b03166001600160a01b031681526020019081526020016000206004019080519060200190610be1929190613e4b565b50838181518110610bee57fe5b60200260200101516001600160a01b0316856001600160a01b03167f4b762bf7b7ea6e5db15083fd59db2b95b16339f2b0e7cd7360325378a579e7d9858481518110610c3657fe5b6020026020010151604051610c4b9190614ace565b60405180910390a35b600101610a46565b81610c66816119e5565b60008211610c865760405162461bcd60e51b815260040161057f906150a3565b6001600160a01b038316600081815260046020526040808220600101859055518492917f6a1e9ac0e71aa1dc7854a57bce846b04b1aae20dc994b832098200d9236d1d4a91a3505050565b336000908152600360205260408120905b6001820154811015610d41576000826002016000846001018481548110610d0557fe5b6000918252602080832091909101546001600160a01b031683528201929092526040019020805460ff1916911515919091179055600101610ce2565b503360009081526004602052604081208181556001810182905590610d696002830182613fad565b5050336000908152600360205260408120805460ff1916815590610d906001830182613fad565b505050565b81610d9f816119e5565b6001600160a01b038316600081815260036020526040808220805460ff191686151590811790915590519092917fd36edbcfd3cf0c7e5c30d627b9ecd4f382efd1b67914b0c5bfd86d22f7fce7ec91a3505050565b60026001541415610e175760405162461bcd60e51b815260040161057f90615203565b600260015582610e2681611bf8565b83610e3081611c1e565b610e39856123a7565b610e555760405162461bcd60e51b815260040161057f90614ee1565b610e7f857f0000000000000000000000000000000000000000000000000000000000000000612466565b6001600160a01b0380871660009081526002602090815260408083207f00000000000000000000000000000000000000000000000000000000000000009094168352929052205410610ee35760405162461bcd60e51b815260040161057f90614dd0565b610eed8585611c5e565b610ef5613f26565b610f008686866124af565b9050610f0b81611fb5565b6000610f1682612192565b9050600080610f258489612244565b6001600160a01b03808c166000908152600260209081526040808320938e16835292905220600101549193509150610f63828563ffffffff61252d16565b10610f805760405162461bcd60e51b815260040161057f90614f18565b610f8a8989612552565b83606001516001600160a01b031684604001516001600160a01b031685600001516001600160a01b03167f54e9e24dab7ba662ede90396b0de464467c3d65f95485171a60381185219f10b87602001513387878a6040516108fd959493929190614ae1565b82610ff9816119e5565b611009838363ffffffff611a0b16565b60005b835181101561048b5782818151811061102157fe5b602002602001015160026000876001600160a01b03166001600160a01b03168152602001908152602001600020600086848151811061105c57fe5b60200260200101516001600160a01b03166001600160a01b031681526020019081526020016000206002018190555083818151811061109757fe5b60200260200101516001600160a01b0316856001600160a01b03167f494b5ab169c256bf87dcb623a3aad604068fa9981497dc90b28a32d1c8b402118584815181106110df57fe5b60200260200101516040516110f49190615295565b60405180910390a360010161100c565b8261110e816119e5565b61111e838363ffffffff611a0b16565b60005b835181101561048b5761115b8585838151811061113a57fe5b602002602001015185848151811061114e57fe5b6020026020010151612594565b82818151811061116757fe5b602002602001015160036000876001600160a01b03166001600160a01b0316815260200190815260200160002060020160008684815181106111a557fe5b60200260200101516001600160a01b03166001600160a01b0316815260200190815260200160002060006101000a81548160ff0219169083151502179055508381815181106111f057fe5b60200260200101516001600160a01b0316856001600160a01b03167f9c16a21ea9b0ddbc4da31a1ba6f5f7b7d3ed17c6d36eef4d1bab2c9a7f070cea85848151811061123857fe5b602002602001015160405161124d9190614ab3565b60405180910390a3600101611121565b80336112698282612744565b826112738161276a565b6060846001600160a01b031663802758606040518163ffffffff1660e01b815260040160006040518083038186803b1580156112ae57600080fd5b505afa1580156112c2573d6000803e3d6000fd5b505050506040513d6000823e601f3d908101601f191682016040526112ea9190810190614304565b905060005b815181101561139557611300613fcb565b82828151811061130c57fe5b60200260200101519050806060015160ff1660001461133d5760405162461bcd60e51b815260040161057f90615035565b61134a816040015161282b565b6001600160a01b0380891660008181526002602081815260408084208851871685528083528185209790975593835290815294519092168252919092528120600301556001016112ef565b5061140f856001600160a01b0316635230c3966040518163ffffffff1660e01b815260040160206040518083038186803b1580156113d257600080fd5b505afa1580156113e6573d6000803e3d6000fd5b505050506040513d601f19601f8201168201806040525081019061140a91906148f4565b61282b565b6001600160a01b03861660008181526004602081905260408083209490945583516307ff078f60e11b815293519293630ffe0f1e938183019392909182900301818387803b15801561146057600080fd5b505af1158015611474573d6000803e3d6000fd5b505050505050505050565b60608161148b81611972565b6001600160a01b038316600090815260046020908152604091829020600201805483518184028101840190945280845290918301828280156114f657602002820191906000526020600020905b81546001600160a01b031681526001909101906020018083116114d8575b505050505091505b50919050565b6000805460405163792aa04f60e01b8152829182916001600160a01b039091169063792aa04f9061153b90309085906004016149e6565b60206040518083038186803b15801561155357600080fd5b505afa158015611567573d6000803e3d6000fd5b505050506040513d601f19601f8201168201806040525081019061158b91906148f4565b6001600160a01b038088166000908152600260209081526040808320938a168352929052908120600101549192508080806115c78b8b8b612851565b9350935093509350828414156115ef5760405162461bcd60e51b815260040161057f906150da565b818110975087611645576116406116336116178861160b6128a8565b9063ffffffff6128b516565b611627848663ffffffff6128b516565b9063ffffffff6128dd16565b869063ffffffff61290716565b611658565b611658611633838363ffffffff6128b516565b9650505050505050935093915050565b6004602052600090815260409020805460019091015482565b6000808361168e81611972565b60405163df5e9b2960e01b81526001600160a01b0386169063df5e9b29906116ba90879060040161497b565b60206040518083038186803b1580156116d257600080fd5b505afa1580156116e6573d6000803e3d6000fd5b505050506040513d601f19601f8201168201806040525081019061170a9190614404565b6117265760405162461bcd60e51b815260040161057f90615185565b6000856001600160a01b03166318160ddd6040518163ffffffff1660e01b815260040160206040518083038186803b15801561176157600080fd5b505afa158015611775573d6000803e3d6000fd5b505050506040513d601f19601f8201168201806040525081019061179991906148f4565b90506117a6868683611504565b9350935050509250929050565b6060816117bf81611972565b6001600160a01b038316600090815260036020908152604091829020600101805483518184028101840190945280845290918301828280156114f6576020028201919060005260206000209081546001600160a01b031681526001909101906020018083116114d8575050505050915050919050565b6000546001600160a01b031681565b8061184e81611bf8565b6118578261291d565b80156118b45750611888827f00000000000000000000000000000000000000000000000000000000000000006129d2565b6118b2837f0000000000000000000000000000000000000000000000000000000000000000612466565b115b6118d05760405162461bcd60e51b815260040161057f90614ffe565b6001600160a01b03821660009081526004602052604090206001015461192d90611908906118fc6128a8565b9063ffffffff61252d16565b6001600160a01b0384166000908152600460205260409020549063ffffffff6128dd16565b6001600160a01b038316600081815260046020526040808220849055517fe4c448aaaad94925b669914540bde1ea0123c0b2320e4cf6ea0ad7a1818a1c989190a35050565b61197b81612a71565b6119975760405162461bcd60e51b815260040161057f906151bc565b50565b6001600160a01b0382166000908152600360205260408120805460ff168061035c57506001600160a01b038316600090815260028201602052604090205460ff169150505b92915050565b6119ef8133612b75565b6119725760405162461bcd60e51b815260040161057f90614e73565b8051825114611a2c5760405162461bcd60e51b815260040161057f90614b41565b611a3582612c03565b5050565b606080868514611a5b5760405162461bcd60e51b815260040161057f90614b41565b88518314611a7b5760405162461bcd60e51b815260040161057f9061523a565b611ac08888808060200260200160405190810160405280939291908181526020018383602002808284376000920191909152508d9392505063ffffffff612c4a169050565b9150611b3886868080602002602001604051908101604052809392919081815260200183836020028082843760009201919091525050604080516020808a02828101820190935289825290935089925088918291850190849080828437600092019190915250929392505063ffffffff612d3b169050565b9050611b4382612e08565b15611b605760405162461bcd60e51b815260040161057f90614f86565b97509795505050505050565b600080836001600160a01b031663a7bdad03846040518263ffffffff1660e01b8152600401611b9b919061497b565b60006040518083038186803b158015611bb357600080fd5b505afa158015611bc7573d6000803e3d6000fd5b505050506040513d6000823e601f3d908101601f19168201604052611bef9190810190614269565b51119392505050565b611c02813361199a565b6119975760405162461bcd60e51b815260040161057f90614c20565b6001600160a01b03811660009081526003602052604090205460ff1615611997573332146119975760405162461bcd60e51b815260040161057f90614ba7565b7f00000000000000000000000000000000000000000000000000000000000000006001600160a01b0316816001600160a01b03161415611cb05760405162461bcd60e51b815260040161057f90614f4f565b611d438160046000856001600160a01b03166001600160a01b03168152602001908152602001600020600201805480602002602001604051908101604052809291908181526020018280548015611d3057602002820191906000526020600020905b81546001600160a01b03168152600190910190602001808311611d12575b5050505050612eb790919063ffffffff16565b611d5f5760405162461bcd60e51b815260040161057f90614e07565b611d6761400f565b6001600160a01b038381166000908152600260208181526040808420948716845293815291839020835160c081018552815481526001808301548286015282840154828701526003830154606083015260048301805487519281161561010002600019011694909404601f8101869004860282018601909652858152909491936080860193919290830182828015611e405780601f10611e1557610100808354040283529160200191611e40565b820191906000526020600020905b815481529060010190602001808311611e2357829003601f168201915b505050918352505060058201805460408051602060026001851615610100026000190190941693909304601f8101849004840282018401909252818152938201939291830182828015611ed45780601f10611ea957610100808354040283529160200191611ed4565b820191906000526020600020905b815481529060010190602001808311611eb757829003601f168201915b505050505081525050905042611efb8260400151836060015161252d90919063ffffffff16565b1115611f195760405162461bcd60e51b815260040161057f90614cc5565b611f326001600160a01b0384168363ffffffff611b6c16565b15610d905760405162461bcd60e51b815260040161057f90615035565b611f57613f26565b611f6384846001612ecd565b9050806080015115611f865760c081015160e08201526101008101829052611fae565b610120810151611f9d90839063ffffffff61290716565b60e082015260c08101516101008201525b9392505050565b612050816040015182602001516001600160a01b031663334fc2896040518163ffffffff1660e01b815260040160206040518083038186803b158015611ffa57600080fd5b505afa15801561200e573d6000803e3d6000fd5b505050506040513d601f19601f8201168201806040525081019061203291906141f6565b60e084015184516001600160a01b031692919063ffffffff6131d716565b600080606083602001516001600160a01b031663e869b69b85604001518660600151876000015188608001518960e001518a61010001518b61016001516040518863ffffffff1660e01b81526004016120af979695949392919061498f565b60006040518083038186803b1580156120c757600080fd5b505afa1580156120db573d6000803e3d6000fd5b505050506040513d6000823e601f3d908101601f191682016040526121039190810190614212565b86516040516347b7819960e11b815293965091945092506001600160a01b031690638f6f03329061213c908690869086906004016149ff565b600060405180830381600087803b15801561215657600080fd5b505af115801561216a573d6000803e3d6000fd5b505050506040513d6000823e601f3d908101601f1916820160405261048b9190810190614420565b60008061222283610140015184606001516001600160a01b03166370a0823186600001516040518263ffffffff1660e01b81526004016121d2919061497b565b60206040518083038186803b1580156121ea57600080fd5b505afa1580156121fe573d6000803e3d6000fd5b505050506040513d601f19601f8201168201806040525081019061160b91906148f4565b905061222f6000826132a6565b91506114fe836000015184606001518461333b565b600080600061227a85604001518660a0015187610120015188600001516001600160a01b03166133e2909392919063ffffffff16565b5050905060006122b186606001518760a0015188610140015189600001516001600160a01b03166133e2909392919063ffffffff16565b50506101208701519091506122cc908363ffffffff6128b516565b93506122e6866101400151826128b590919063ffffffff16565b95516001600160a01b0390811660009081526002602090815260408083209890931682529690965290942042600390910155509093915050565b6040516373b2e76b60e11b81526000906001600160a01b0383169063e765ced69061234f908490600401615295565b60206040518083038186803b15801561236757600080fd5b505afa15801561237b573d6000803e3d6000fd5b505050506040513d601f19601f8201168201806040525081019061239f91906141f6565b90505b919050565b6001600160a01b0381166000908152600460209081526040808320600201805482518185028101850190935280835260609383018282801561241257602002820191906000526020600020905b81546001600160a01b031681526001909101906020018083116123f4575b50939450600093505050505b815181101561245c576124448483838151811061243757fe5b60200260200101516134d3565b15612454576000925050506123a2565b60010161241e565b5060019392505050565b6000611fae836001600160a01b03166366cb8d2f846040518263ffffffff1660e01b8152600401612497919061497b565b60206040518083038186803b1580156113d257600080fd5b6124b7613f26565b6124c384846000612ecd565b90506000806124f7867f00000000000000000000000000000000000000000000000000000000000000008560a00151612851565b93509350505061251081836128b590919063ffffffff16565b60e084015250506101008101919091526001608082015292915050565b600082820183811015611fae5760405162461bcd60e51b815260040161057f90614c57565b600061255e8383612466565b9050600061256c84846129d2565b90508082111561258e5760405162461bcd60e51b815260040161057f90614b70565b50505050565b80801561262f575061262d8260036000866001600160a01b03166001600160a01b03168152602001908152602001600020600101805480602002602001604051908101604052809291908181526020018280548015611d30576020028201919060005260206000209081546001600160a01b03168152600190910190602001808311611d12575050505050612eb790919063ffffffff16565b155b1561267a576001600160a01b0383811660009081526003602090815260408220600190810180549182018155835291200180546001600160a01b031916918416919091179055610d90565b8015801561271457506127148260036000866001600160a01b03166001600160a01b03168152602001908152602001600020600101805480602002602001604051908101604052809291908181526020018280548015611d30576020028201919060005260206000209081546001600160a01b03168152600190910190602001808311611d12575050505050612eb790919063ffffffff16565b15610d90576001600160a01b0383166000908152600360205260409020610d90906001018363ffffffff61352e16565b61274e8282612b75565b611a355760405162461bcd60e51b815260040161057f90614e73565b60005460405163e37f2b3f60e01b81526001600160a01b039091169063e37f2b3f9061279a90849060040161497b565b60206040518083038186803b1580156127b257600080fd5b505afa1580156127c6573d6000803e3d6000fd5b505050506040513d601f19601f820116820180604052508101906127ea9190614404565b6128065760405162461bcd60e51b815260040161057f90614bde565b61280f8161365a565b6119975760405162461bcd60e51b815260040161057f90614c8e565b60008082121561284d5760405162461bcd60e51b815260040161057f90614e3e565b5090565b60008060008060006128638888612466565b9050600061287189896129d2565b90508181612885898363ffffffff61368916565b6128958a8563ffffffff61369b16565b9550955095509550505093509350935093565b670de0b6b3a76400005b90565b6000828211156128d75760405162461bcd60e51b815260040161057f90614cfc565b50900390565b6000611fae826128fb85670de0b6b3a764000063ffffffff6136da16565b9063ffffffff61371416565b60008183106129165781611fae565b5090919050565b6001600160a01b0381166000908152600460209081526040808320600201805482518185028101850190935280835260609383018282801561298857602002820191906000526020600020905b81546001600160a01b0316815260019091019060200180831161296a575b50939450600093505050505b815181101561245c576129ba848383815181106129ad57fe5b6020026020010151613746565b156129ca576000925050506123a2565b600101612994565b6000611fae60046000856001600160a01b03166001600160a01b03168152602001908152602001600020600001546128fb612a3f866001600160a01b0316635230c3966040518163ffffffff1660e01b815260040160206040518083038186803b1580156113d257600080fd5b6001600160a01b038088166000908152600260209081526040808320938a16835292905220549063ffffffff6136da16565b6000805460405163e37f2b3f60e01b81526001600160a01b039091169063e37f2b3f90612aa290859060040161497b565b60206040518083038186803b158015612aba57600080fd5b505afa158015612ace573d6000803e3d6000fd5b505050506040513d601f19601f82011682018060405250810190612af29190614404565b801561239f57506040516335fc6c9f60e21b81526001600160a01b0383169063d7f1b27c90612b2590309060040161497b565b60206040518083038186803b158015612b3d57600080fd5b505afa158015612b51573d6000803e3d6000fd5b505050506040513d601f19601f8201168201806040525081019061239f9190614404565b6000816001600160a01b0316836001600160a01b031663481c6a756040518163ffffffff1660e01b815260040160206040518083038186803b158015612bba57600080fd5b505afa158015612bce573d6000803e3d6000fd5b505050506040513d601f19601f82011682018060405250810190612bf291906141f6565b6001600160a01b0316149392505050565b6000815111612c245760405162461bcd60e51b815260040161057f90615106565b612c2d81612e08565b156119975760405162461bcd60e51b815260040161057f90614d99565b8151815160609190828183016001600160401b0381118015612c6b57600080fd5b50604051908082528060200260200182016040528015612c95578160200160208202803683370190505b50905060005b83811015612ce357868181518110612caf57fe5b6020026020010151828281518110612cc357fe5b6001600160a01b0390921660209283029190910190910152600101612c9b565b5060005b82811015612d3157858181518110612cfb57fe5b60200260200101518282860181518110612d1157fe5b6001600160a01b0390921660209283029190910190910152600101612ce7565b5095945050505050565b8151815160609190828183016001600160401b0381118015612d5c57600080fd5b50604051908082528060200260200182016040528015612d86578160200160208202803683370190505b50905060005b83811015612dc757868181518110612da057fe5b6020026020010151828281518110612db457fe5b6020908102919091010152600101612d8c565b5060005b82811015612d3157858181518110612ddf57fe5b60200260200101518282860181518110612df557fe5b6020908102919091010152600101612dcb565b600080825111612e2a5760405162461bcd60e51b815260040161057f90615271565b60005b6001835103811015612eae576000838281518110612e4757fe5b6020026020010151905060008260010190505b8451811015612ea457848181518110612e6f57fe5b60200260200101516001600160a01b0316826001600160a01b03161415612e9c57600193505050506123a2565b600101612e5a565b5050600101612e2d565b50600092915050565b600080612ec484846137d3565b95945050505050565b612ed5613f26565b6001600160a01b038416808252604080516318160ddd60e01b815290516318160ddd91600480820192602092909190829003018186803b158015612f1857600080fd5b505afa158015612f2c573d6000803e3d6000fd5b505050506040513d601f19601f82011682018060405250810190612f5091906148f4565b60a0820152612f5f8484613839565b6001600160a01b03908116602083810191909152858216600090815260028083526040808320948816835293835290839020600501805484516001821615610100026000190190911692909204601f8101849004840283018401909452838252909290918301828280156130145780601f10612fe957610100808354040283529160200191613014565b820191906000526020600020905b815481529060010190602001808311612ff757829003601f168201915b505050505081610160018190525081156130445761303784848360a00151611504565b60c0830152151560808201525b80608001511561308a576001600160a01b0380841660408301527f00000000000000000000000000000000000000000000000000000000000000001660608201526130c2565b6001600160a01b037f000000000000000000000000000000000000000000000000000000000000000081166040830152831660608201525b80604001516001600160a01b03166370a08231856040518263ffffffff1660e01b81526004016130f2919061497b565b60206040518083038186803b15801561310a57600080fd5b505afa15801561311e573d6000803e3d6000fd5b505050506040513d601f19601f8201168201806040525081019061314291906148f4565b61012082015260608101516040516370a0823160e01b81526001600160a01b03909116906370a082319061317a90879060040161497b565b60206040518083038186803b15801561319257600080fd5b505afa1580156131a6573d6000803e3d6000fd5b505050506040513d601f19601f820116820180604052508101906131ca91906148f4565b6101408201529392505050565b606082826040516024016131ec9291906149e6565b60408051601f198184030181529181526020820180516001600160e01b031663095ea7b360e01b179052516347b7819960e11b81529091506001600160a01b03861690638f6f03329061324890879060009086906004016149ff565b600060405180830381600087803b15801561326257600080fd5b505af1158015613276573d6000803e3d6000fd5b505050506040513d6000823e601f3d908101601f1916820160405261329e9190810190614420565b505050505050565b6000805460405163792aa04f60e01b815282916001600160a01b03169063792aa04f906132d990309088906004016149e6565b60206040518083038186803b1580156132f157600080fd5b505afa158015613305573d6000803e3d6000fd5b505050506040513d601f19601f8201168201806040525081019061332991906148f4565b905061035c838263ffffffff6138f016565b8015610d9057610d90826000809054906101000a90046001600160a01b03166001600160a01b031663469048406040518163ffffffff1660e01b815260040160206040518083038186803b15801561339257600080fd5b505afa1580156133a6573d6000803e3d6000fd5b505050506040513d601f19601f820116820180604052508101906133ca91906141f6565b6001600160a01b03861691908463ffffffff61390e16565b600080600080866001600160a01b03166370a08231896040518263ffffffff1660e01b8152600401613414919061497b565b60206040518083038186803b15801561342c57600080fd5b505afa158015613440573d6000803e3d6000fd5b505050506040513d601f19601f8201168201806040525081019061346491906148f4565b90506000613497896001600160a01b03166366cb8d2f8a6040518263ffffffff1660e01b8152600401612497919061497b565b9050600082156134b4576134ad88888585613a50565b90506134b8565b5060005b6134c38a8a83613a93565b9199909850909650945050505050565b60007f00000000000000000000000000000000000000000000000000000000000000006001600160a01b0316826001600160a01b031614158015611fae575061351c8383612466565b61352684846129d2565b109392505050565b6000806135948480548060200260200160405190810160405280929190818152602001828054801561358957602002820191906000526020600020905b81546001600160a01b0316815260019091019060200180831161356b575b5050505050846137d3565b91509150806135b55760405162461bcd60e51b815260040161057f90614b12565b835460001901828114613627578481815481106135ce57fe5b9060005260206000200160009054906101000a90046001600160a01b03168584815481106135f857fe5b9060005260206000200160006101000a8154816001600160a01b0302191690836001600160a01b031602179055505b8480548061363157fe5b600082815260209020810160001990810180546001600160a01b03191690550190555050505050565b6040516353bae5f760e01b81526000906001600160a01b038316906353bae5f790612b2590309060040161497b565b6000611fae838363ffffffff6138f016565b60008215806136a8575081155b156136b5575060006119df565b611fae60016118fc670de0b6b3a76400006128fb8361160b898963ffffffff6136da16565b6000826136e9575060006119df565b828202828482816136f657fe5b0414611fae5760405162461bcd60e51b815260040161057f90614fbd565b60008082116137355760405162461bcd60e51b815260040161057f90614d62565b81838161373e57fe5b049392505050565b60007f00000000000000000000000000000000000000000000000000000000000000006001600160a01b0316826001600160a01b0316141561378a575060006119df565b600061379684846129d2565b905060006137a48585612466565b9050600082116137b75780821415612ec4565b6137c98282600163ffffffff613c1116565b1595945050505050565b81516000908190815b8181101561382657846001600160a01b03168682815181106137fa57fe5b60200260200101516001600160a01b0316141561381e579250600191506138329050565b6001016137dc565b50600019600092509250505b9250929050565b6001600160a01b0382811660009081526002602081815260408084209486168452938152838320600401805485516001821615610100026000190190911693909304601f81018390048302840183019095528483529293611fae93918301828280156138e65780601f106138bb576101008083540402835291602001916138e6565b820191906000526020600020905b8154815290600101906020018083116138c957829003601f168201915b5050505050613c49565b6000611fae670de0b6b3a76400006128fb858563ffffffff6136da16565b801561258e576040516370a0823160e01b81526000906001600160a01b038516906370a082319061394390889060040161497b565b60206040518083038186803b15801561395b57600080fd5b505afa15801561396f573d6000803e3d6000fd5b505050506040513d601f19601f8201168201806040525081019061399391906148f4565b90506139a185858585613c60565b6040516370a0823160e01b81526000906001600160a01b038616906370a08231906139d090899060040161497b565b60206040518083038186803b1580156139e857600080fd5b505afa1580156139fc573d6000803e3d6000fd5b505050506040513d601f19601f82011682018060405250810190613a2091906148f4565b9050613a32828463ffffffff6128b516565b811461329e5760405162461bcd60e51b815260040161057f9061506c565b600080613a73613a66848863ffffffff6138f016565b869063ffffffff6128b516565b9050613a8986611627868463ffffffff6128b516565b9695505050505050565b6000613a9f8484613cd7565b905080158015613aaf5750600082115b15613b2657613abe8484611b6c565b613b21576040516304e3532760e41b81526001600160a01b03851690634e35327090613aee90869060040161497b565b600060405180830381600087803b158015613b0857600080fd5b505af1158015613b1c573d6000803e3d6000fd5b505050505b613ba3565b808015613b31575081155b15613ba357613b408484611b6c565b613ba357604051636f86c89760e01b81526001600160a01b03851690636f86c89790613b7090869060040161497b565b600060405180830381600087803b158015613b8a57600080fd5b505af1158015613b9e573d6000803e3d6000fd5b505050505b836001600160a01b0316632ba57d1784613bbc85613d5e565b6040518363ffffffff1660e01b8152600401613bd99291906149e6565b600060405180830381600087803b158015613bf357600080fd5b505af1158015613c07573d6000803e3d6000fd5b5050505050505050565b6000613c23838363ffffffff61252d16565b8411158015613c415750613c3d838363ffffffff6128b516565b8410155b949350505050565b600080613c5583613d83565b9050611fae81613d8e565b801561258e5760608282604051602401613c7b9291906149e6565b60408051601f198184030181529181526020820180516001600160e01b031663a9059cbb60e01b179052516347b7819960e11b81529091506001600160a01b03861690638f6f03329061324890879060009086906004016149ff565b600080836001600160a01b03166366cb8d2f846040518263ffffffff1660e01b8152600401613d06919061497b565b60206040518083038186803b158015613d1e57600080fd5b505afa158015613d32573d6000803e3d6000fd5b505050506040513d601f19601f82011682018060405250810190613d5691906148f4565b139392505050565b6000600160ff1b821061284d5760405162461bcd60e51b815260040161057f9061513d565b805160209091012090565b600080548190613da6906001600160a01b0316612320565b6001600160a01b031663e6d642c530856040518363ffffffff1660e01b8152600401613dd39291906149e6565b60206040518083038186803b158015613deb57600080fd5b505afa158015613dff573d6000803e3d6000fd5b505050506040513d601f19601f82011682018060405250810190613e2391906141f6565b90506001600160a01b03811661239f5760405162461bcd60e51b815260040161057f90614d33565b828054600181600116156101000203166002900490600052602060002090601f016020900481019282601f10613e8c57805160ff1916838001178555613eb9565b82800160010185558215613eb9579182015b82811115613eb9578251825591602001919060010190613e9e565b5061284d929150614045565b828054828255906000526020600020908101928215613f1a579160200282015b82811115613f1a57825182546001600160a01b0319166001600160a01b03909116178255602090920191600190910190613ee5565b5061284d92915061405f565b60405180610180016040528060006001600160a01b0316815260200160006001600160a01b0316815260200160006001600160a01b0316815260200160006001600160a01b03168152602001600015158152602001600081526020016000815260200160008152602001600081526020016000815260200160008152602001606081525090565b50805460008255906000526020600020908101906119979190614045565b6040518060a0016040528060006001600160a01b0316815260200160006001600160a01b0316815260200160008152602001600060ff168152602001606081525090565b6040518060c001604052806000815260200160008152602001600081526020016000815260200160608152602001606081525090565b6128b291905b8082111561284d576000815560010161404b565b6128b291905b8082111561284d5780546001600160a01b0319168155600101614065565b80516119df8161537d565b60008083601f84011261409f578182fd5b5081356001600160401b038111156140b5578182fd5b602083019150836020808302850101111561383257600080fd5b600082601f8301126140df578081fd5b81356140f26140ed8261530f565b6152e9565b81815291506020808301908481018184028601820187101561411357600080fd5b60005b8481101561413b5781356141298161537d565b84529282019290820190600101614116565b505050505092915050565b80356119df81615392565b600082601f830112614161578081fd5b813561416f6140ed8261532e565b915080825283602082850101111561418657600080fd5b8060208401602084013760009082016020015292915050565b600082601f8301126141af578081fd5b81516141bd6140ed8261532e565b91508082528360208285010111156141d457600080fd5b61035f816020840160208601615351565b805160ff811681146119df57600080fd5b600060208284031215614207578081fd5b8151611fae8161537d565b600080600060608486031215614226578182fd5b83516142318161537d565b6020850151604086015191945092506001600160401b03811115614253578182fd5b61425f8682870161419f565b9150509250925092565b6000602080838503121561427b578182fd5b82516001600160401b03811115614290578283fd5b80840185601f8201126142a1578384fd5b805191506142b16140ed8361530f565b82815283810190828501858502840186018910156142cd578687fd5b8693505b848410156142f85780516142e48161537d565b8352600193909301929185019185016142d1565b50979650505050505050565b60006020808385031215614316578182fd5b82516001600160401b038082111561432c578384fd5b81850186601f82011261433d578485fd5b8051925061434d6140ed8461530f565b83815284810190828601875b868110156143f5578151850160a080601f19838f03011215614379578a8bfd5b614382816152e9565b61438e8e8c8501614083565b815261439d8e60408501614083565b8b820152606083015160408201526143b88e608085016141e5565b606082015281830151898111156143cd578c8dfd5b6143db8f8d8387010161419f565b608083015250865250509287019290870190600101614359565b50909998505050505050505050565b600060208284031215614415578081fd5b8151611fae81615392565b600060208284031215614431578081fd5b81516001600160401b03811115614446578182fd5b61035c8482850161419f565b600060208284031215614463578081fd5b8135611fae8161537d565b60008060408385031215614480578182fd5b823561448b8161537d565b9150602083013561449b8161537d565b809150509250929050565b60008060008060008060008060a0898b0312156144c1578586fd5b88356144cc8161537d565b975060208901356001600160401b03808211156144e7578788fd5b6144f38c838d0161408e565b909950975060408b013591508082111561450b578586fd5b6145178c838d0161408e565b909750955060608b013591508082111561452f578485fd5b5061453c8b828c0161408e565b999c989b50969995989497949560800135949350505050565b600080600060608486031215614569578081fd5b83356145748161537d565b92506020848101356001600160401b0380821115614590578384fd5b61459c888389016140cf565b945060408701359150808211156145b1578384fd5b5080860187601f8201126145c3578384fd5b803591506145d36140ed8361530f565b82815283810190828501858502840186018b10156145ef578687fd5b8693505b84841015614619576146058b82614146565b8352600193909301929185019185016145f3565b5080955050505050509250925092565b60008060006060848603121561463d578081fd5b83356146488161537d565b92506020848101356001600160401b0380821115614664578384fd5b614670888389016140cf565b94506040870135915080821115614685578384fd5b5080860187601f820112614697578384fd5b803591506146a76140ed8361530f565b82815283810190828501865b858110156146dc576146ca8c888435880101614151565b845292860192908601906001016146b3565b505080955050505050509250925092565b600080600060608486031215614701578081fd5b833561470c8161537d565b92506020848101356001600160401b0380821115614728578384fd5b614734888389016140cf565b94506040870135915080821115614749578384fd5b5080860187601f82011261475b578384fd5b8035915061476b6140ed8361530f565b82815283810190828501865b858110156146dc5761478e8c888435880101614151565b84529286019290860190600101614777565b6000806000606084860312156147b4578081fd5b83356147bf8161537d565b92506020848101356001600160401b03808211156147db578384fd5b6147e7888389016140cf565b945060408701359150808211156147fc578384fd5b5080860187601f82011261480e578384fd5b8035915061481e6140ed8361530f565b82815283810190828501858502840186018b101561483a578687fd5b8693505b8484101561461957803583526001939093019291850191850161483e565b6000806040838503121561486e578182fd5b82356148798161537d565b9150602083013561449b81615392565b60008060006060848603121561489d578081fd5b83356148a88161537d565b925060208401356148b88161537d565b929592945050506040919091013590565b600080604083850312156148db578182fd5b82356148e68161537d565b946020939093013593505050565b600060208284031215614905578081fd5b5051919050565b6000815180845260208085019450808401835b838110156149445781516001600160a01b03168752958201959082019060010161491f565b509495945050505050565b60008151808452614967816020860160208601615351565b601f01601f19169290920160200192915050565b6001600160a01b0391909116815260200190565b6001600160a01b03888116825287811660208301528616604082015284151560608201526080810184905260a0810183905260e060c082018190526000906149d99083018461494f565b9998505050505050505050565b6001600160a01b03929092168252602082015260400190565b600060018060a01b038516825283602083015260606040830152612ec4606083018461494f565b6001600160a01b0383168152604060208201819052600090613c419083018461494f565b600060208252611fae602083018461490c565b600060408252614a70604083018561490c565b828103602084810191909152845180835285820192820190845b81811015614aa657845183529383019391830191600101614a8a565b5090979650505050505050565b901515815260200190565b9115158252602082015260400190565b600060208252611fae602083018461494f565b6001600160a01b03958616815293909416602084015260408301919091526060820152608081019190915260a00190565b60208082526015908201527420b2323932b9b9903737ba1034b71030b93930bc9760591b604082015260600190565b602080825260159082015274082e4e4c2f240d8cadccee8d040dad2e6dac2e8c6d605b1b604082015260600190565b6020808252601a908201527f43616e206e6f74206578636565642074617267657420756e6974000000000000604082015260600190565b6020808252601a908201527f43616c6c6572206d75737420626520454f412041646472657373000000000000604082015260600190565b60208082526022908201527f4d75737420626520636f6e74726f6c6c65722d656e61626c656420434b546f6b60408201526132b760f11b606082015260800190565b6020808252601e908201527f41646472657373206e6f74207065726d697474656420746f2074726164650000604082015260600190565b6020808252601b908201527f536166654d6174683a206164646974696f6e206f766572666c6f770000000000604082015260600190565b6020808252601e908201527f4d7573742062652070656e64696e6720696e697469616c697a6174696f6e0000604082015260600190565b6020808252601e908201527f436f6d706f6e656e7420636f6f6c206f666620696e2070726f67726573730000604082015260600190565b6020808252601e908201527f536166654d6174683a207375627472616374696f6e206f766572666c6f770000604082015260600190565b60208082526015908201527426bab9ba103132903b30b634b21030b230b83a32b960591b604082015260600190565b6020808252601a908201527f536166654d6174683a206469766973696f6e206279207a65726f000000000000604082015260600190565b6020808252601a908201527f43616e6e6f74206475706c696361746520616464726573736573000000000000604082015260600190565b60208082526019908201527f574554482069732062656c6f772074617267657420756e697400000000000000604082015260600190565b6020808252601f908201527f436f6d706f6e656e74206e6f742070617274206f6620726562616c616e636500604082015260600190565b6020808252818101527f53616665436173743a2076616c7565206d75737420626520706f736974697665604082015260600190565b6020808252601b908201527f4d7573742062652074686520434b546f6b656e206d616e616765720000000000604082015260600190565b6020808252601a908201527f556e7265636f676e697a65642065786368616e6765206e616d65000000000000604082015260600190565b6020808252601e908201527f53656c6c206f7468657220636b20636f6d706f6e656e74732066697273740000604082015260600190565b6020808252601d908201527f547261646520616d6f756e74203e206d61782074726164652073697a65000000604082015260600190565b6020808252601d908201527f43616e206e6f74206578706c696369746c792074726164652057455448000000604082015260600190565b6020808252601b908201527f43616e6e6f74206475706c696361746520636f6d706f6e656e74730000000000604082015260600190565b60208082526021908201527f536166654d6174683a206d756c7469706c69636174696f6e206f766572666c6f6040820152607760f81b606082015260800190565b6020808252601b908201527f54617267657473206e6f74206d6574206f7220455448203d7e20300000000000604082015260600190565b6020808252601e908201527f45787465726e616c20706f736974696f6e73206e6f7420616c6c6f7765640000604082015260600190565b6020808252601d908201527f496e76616c696420706f7374207472616e736665722062616c616e6365000000604082015260600190565b6020808252601d908201527f5461726765742070657263656e74616765206d757374206265203e2030000000604082015260600190565b60208082526012908201527115185c99d95d08185b1c9958591e481b595d60721b604082015260600190565b60208082526018908201527f4172726179206c656e677468206d757374206265203e20300000000000000000604082015260600190565b60208082526028908201527f53616665436173743a2076616c756520646f65736e27742066697420696e2061604082015267371034b73a191a9b60c11b606082015260800190565b60208082526018908201527f436f6d706f6e656e74206e6f74207265636f676e697a65640000000000000000604082015260600190565b60208082526027908201527f4d75737420626520612076616c696420616e6420696e697469616c697a65642060408201526621a5aa37b5b2b760c91b606082015260800190565b6020808252601f908201527f5265656e7472616e637947756172643a207265656e7472616e742063616c6c00604082015260600190565b6020808252601e908201527f4f6c6420436f6d706f6e656e74732074617267657473206d697373696e670000604082015260600190565b6020808252600a90820152694120697320656d70747960b01b604082015260600190565b90815260200190565b918252602082015260400190565b600087825286602083015285604083015284606083015260c060808301526152d760c083018561494f565b82810360a08401526149d9818561494f565b6040518181016001600160401b038111828210171561530757600080fd5b604052919050565b60006001600160401b03821115615324578081fd5b5060209081020190565b60006001600160401b03821115615343578081fd5b50601f01601f191660200190565b60005b8381101561536c578181015183820152602001615354565b8381111561258e5750506000910152565b6001600160a01b038116811461199757600080fd5b801515811461199757600080fdfea2646970667358221220d824d8fdea4b9343cd5a160afee537ef02e1488b7f110d5fce6bd01e1ecb04bc64736f6c634300060a0033"
  }
}