{
  "opcodeHash": "0x74c0e0b2079be9cd2c565f99778d4c93f03cde498718a4f3acfcc1f8c23bebdc",
  "metalessHash": "0x05396dd9adc481cfd10707238c7c09d57e6e36aa70cb88b37960b2175dce2fdb",
  "runtimeHash": "0x417b67a8db4c6854ad5f0cfdf611ac091c1617dc709f1a76dbc844e12c0461b8",
  "encodedMetadata": [
    {
      "ipfs": "/ipfs/QmTyacyXLdpisT5gGnjHDFwsHq9d3am7A2r3YGZY2MBx9H",
      "solc": "0.8.0"
    }
  ],
  "abi": [
    {
      "inputs": [
        {
          "internalType": "address",
          "name": "_donationToken",
          "type": "address"
        },
        {
          "internalType": "address",
          "name": "_donationDelegate",
          "type": "address"
        }
      ],
      "stateMutability": "nonpayable",
      "type": "constructor"
    },
    {
      "anonymous": false,
      "inputs": [
        {
          "indexed": true,
          "internalType": "address",
          "name": "previousOwner",
          "type": "address"
        },
        {
          "indexed": true,
          "internalType": "address",
          "name": "newOwner",
          "type": "address"
        }
      ],
      "name": "OwnershipTransferred",
      "type": "event"
    },
    {
      "inputs": [],
      "name": "donateTokens",
      "outputs": [
        {
          "internalType": "bool",
          "name": "",
          "type": "bool"
        }
      ],
      "stateMutability": "nonpayable",
      "type": "function"
    },
    {
      "inputs": [],
      "name": "donationDelegate",
      "outputs": [
        {
          "internalType": "address",
          "name": "",
          "type": "address"
        }
      ],
      "stateMutability": "view",
      "type": "function"
    },
    {
      "inputs": [],
      "name": "donationToken",
      "outputs": [
        {
          "internalType": "address",
          "name": "",
          "type": "address"
        }
      ],
      "stateMutability": "view",
      "type": "function"
    },
    {
      "inputs": [],
      "name": "extractETH",
      "outputs": [
        {
          "internalType": "bool",
          "name": "",
          "type": "bool"
        }
      ],
      "stateMutability": "payable",
      "type": "function"
    },
    {
      "inputs": [
        {
          "internalType": "address",
          "name": "currencyToClaim",
          "type": "address"
        }
      ],
      "name": "extractTokenOfType",
      "outputs": [
        {
          "internalType": "bool",
          "name": "",
          "type": "bool"
        }
      ],
      "stateMutability": "nonpayable",
      "type": "function"
    },
    {
      "inputs": [],
      "name": "owner",
      "outputs": [
        {
          "internalType": "address",
          "name": "",
          "type": "address"
        }
      ],
      "stateMutability": "view",
      "type": "function"
    },
    {
      "inputs": [],
      "name": "renounceOwnership",
      "outputs": [],
      "stateMutability": "nonpayable",
      "type": "function"
    },
    {
      "inputs": [
        {
          "internalType": "address",
          "name": "newOwner",
          "type": "address"
        }
      ],
      "name": "transferOwnership",
      "outputs": [],
      "stateMutability": "nonpayable",
      "type": "function"
    }
  ],
  "bytecode": {
    "object": "608060405234801561001057600080fd5b5060405162000f2e38038062000f2e83398181016040528101906100349190610188565b600061004461016b60201b60201c565b9050806000806101000a81548173ffffffffffffffffffffffffffffffffffffffff021916908373ffffffffffffffffffffffffffffffffffffffff1602179055508073ffffffffffffffffffffffffffffffffffffffff16600073ffffffffffffffffffffffffffffffffffffffff167f8be0079c531659141344cd1fd0a4f28419497f9722a3daafe3b4186f6b6457e060405160405180910390a35081600160006101000a81548173ffffffffffffffffffffffffffffffffffffffff021916908373ffffffffffffffffffffffffffffffffffffffff16021790555080600260006101000a81548173ffffffffffffffffffffffffffffffffffffffff021916908373ffffffffffffffffffffffffffffffffffffffff160217905550505061020d565b600033905090565b600081519050610182816101f6565b92915050565b6000806040838503121561019b57600080fd5b60006101a985828601610173565b92505060206101ba85828601610173565b9150509250929050565b60006101cf826101d6565b9050919050565b600073ffffffffffffffffffffffffffffffffffffffff82169050919050565b6101ff816101c4565b811461020a57600080fd5b50565b610d11806200021d6000396000f3fe60806040526004361061007b5760003560e01c8063a0e35c1a1161004e578063a0e35c1a1461012a578063a4f55d5114610155578063f2fde38b14610180578063fabb71d2146101a95761007b565b80630df721591461008057806318c94a4c146100ab578063715018a6146100e85780638da5cb5b146100ff575b600080fd5b34801561008c57600080fd5b506100956101c7565b6040516100a29190610b7e565b60405180910390f35b3480156100b757600080fd5b506100d260048036038101906100cd91906109f0565b6101ed565b6040516100df9190610bc2565b60405180910390f35b3480156100f457600080fd5b506100fd610421565b005b34801561010b57600080fd5b5061011461055b565b6040516101219190610b7e565b60405180910390f35b34801561013657600080fd5b5061013f610584565b60405161014c9190610b7e565b60405180910390f35b34801561016157600080fd5b5061016a6105aa565b6040516101779190610bc2565b60405180910390f35b34801561018c57600080fd5b506101a760048036038101906101a291906109f0565b610734565b005b6101b16108dd565b6040516101be9190610bc2565b60405180910390f35b600160009054906101000a900473ffffffffffffffffffffffffffffffffffffffff1681565b60006101f76109a9565b73ffffffffffffffffffffffffffffffffffffffff1661021561055b565b73ffffffffffffffffffffffffffffffffffffffff161461026b576040517f08c379a000000000000000000000000000000000000000000000000000000000815260040161026290610bfd565b60405180910390fd5b600160009054906101000a900473ffffffffffffffffffffffffffffffffffffffff1673ffffffffffffffffffffffffffffffffffffffff168273ffffffffffffffffffffffffffffffffffffffff1614156102fc576040517f08c379a00000000000000000000000000000000000000000000000000000000081526004016102f390610c1d565b60405180910390fd5b60008273ffffffffffffffffffffffffffffffffffffffff166370a08231306040518263ffffffff1660e01b81526004016103379190610b7e565b60206040518083038186803b15801561034f57600080fd5b505afa158015610363573d6000803e3d6000fd5b505050506040513d601f19601f820116820180604052508101906103879190610a42565b90508273ffffffffffffffffffffffffffffffffffffffff1663a9059cbb33836040518363ffffffff1660e01b81526004016103c4929190610b99565b602060405180830381600087803b1580156103de57600080fd5b505af11580156103f2573d6000803e3d6000fd5b505050506040513d601f19601f820116820180604052508101906104169190610a19565b506001915050919050565b6104296109a9565b73ffffffffffffffffffffffffffffffffffffffff1661044761055b565b73ffffffffffffffffffffffffffffffffffffffff161461049d576040517f08c379a000000000000000000000000000000000000000000000000000000000815260040161049490610bfd565b60405180910390fd5b600073ffffffffffffffffffffffffffffffffffffffff1660008054906101000a900473ffffffffffffffffffffffffffffffffffffffff1673ffffffffffffffffffffffffffffffffffffffff167f8be0079c531659141344cd1fd0a4f28419497f9722a3daafe3b4186f6b6457e060405160405180910390a360008060006101000a81548173ffffffffffffffffffffffffffffffffffffffff021916908373ffffffffffffffffffffffffffffffffffffffff160217905550565b60008060009054906101000a900473ffffffffffffffffffffffffffffffffffffffff16905090565b600260009054906101000a900473ffffffffffffffffffffffffffffffffffffffff1681565b600080600160009054906101000a900473ffffffffffffffffffffffffffffffffffffffff1673ffffffffffffffffffffffffffffffffffffffff166370a08231306040518263ffffffff1660e01b81526004016106089190610b7e565b60206040518083038186803b15801561062057600080fd5b505afa158015610634573d6000803e3d6000fd5b505050506040513d601f19601f820116820180604052508101906106589190610a42565b9050600160009054906101000a900473ffffffffffffffffffffffffffffffffffffffff1673ffffffffffffffffffffffffffffffffffffffff1663a9059cbb600260009054906101000a900473ffffffffffffffffffffffffffffffffffffffff16836040518363ffffffff1660e01b81526004016106d9929190610b99565b602060405180830381600087803b1580156106f357600080fd5b505af1158015610707573d6000803e3d6000fd5b505050506040513d601f19601f8201168201806040525081019061072b9190610a19565b50600191505090565b61073c6109a9565b73ffffffffffffffffffffffffffffffffffffffff1661075a61055b565b73ffffffffffffffffffffffffffffffffffffffff16146107b0576040517f08c379a00000000000000000000000000000000000000000000000000000000081526004016107a790610bfd565b60405180910390fd5b600073ffffffffffffffffffffffffffffffffffffffff168173ffffffffffffffffffffffffffffffffffffffff161415610820576040517f08c379a000000000000000000000000000000000000000000000000000000000815260040161081790610bdd565b60405180910390fd5b8073ffffffffffffffffffffffffffffffffffffffff1660008054906101000a900473ffffffffffffffffffffffffffffffffffffffff1673ffffffffffffffffffffffffffffffffffffffff167f8be0079c531659141344cd1fd0a4f28419497f9722a3daafe3b4186f6b6457e060405160405180910390a3806000806101000a81548173ffffffffffffffffffffffffffffffffffffffff021916908373ffffffffffffffffffffffffffffffffffffffff16021790555050565b60006108e76109a9565b73ffffffffffffffffffffffffffffffffffffffff1661090561055b565b73ffffffffffffffffffffffffffffffffffffffff161461095b576040517f08c379a000000000000000000000000000000000000000000000000000000000815260040161095290610bfd565b60405180910390fd5b3373ffffffffffffffffffffffffffffffffffffffff166108fc479081150290604051600060405180830381858888f193505050501580156109a1573d6000803e3d6000fd5b506001905090565b600033905090565b6000813590506109c081610c96565b92915050565b6000815190506109d581610cad565b92915050565b6000815190506109ea81610cc4565b92915050565b600060208284031215610a0257600080fd5b6000610a10848285016109b1565b91505092915050565b600060208284031215610a2b57600080fd5b6000610a39848285016109c6565b91505092915050565b600060208284031215610a5457600080fd5b6000610a62848285016109db565b91505092915050565b610a7481610c4e565b82525050565b610a8381610c60565b82525050565b6000610a96602683610c3d565b91507f4f776e61626c653a206e6577206f776e657220697320746865207a65726f206160008301527f64647265737300000000000000000000000000000000000000000000000000006020830152604082019050919050565b6000610afc602083610c3d565b91507f4f776e61626c653a2063616c6c6572206973206e6f7420746865206f776e65726000830152602082019050919050565b6000610b3c601d83610c3d565b91507f746861742063757272656e6379206d75737420626520646f6e617465640000006000830152602082019050919050565b610b7881610c8c565b82525050565b6000602082019050610b936000830184610a6b565b92915050565b6000604082019050610bae6000830185610a6b565b610bbb6020830184610b6f565b9392505050565b6000602082019050610bd76000830184610a7a565b92915050565b60006020820190508181036000830152610bf681610a89565b9050919050565b60006020820190508181036000830152610c1681610aef565b9050919050565b60006020820190508181036000830152610c3681610b2f565b9050919050565b600082825260208201905092915050565b6000610c5982610c6c565b9050919050565b60008115159050919050565b600073ffffffffffffffffffffffffffffffffffffffff82169050919050565b6000819050919050565b610c9f81610c4e565b8114610caa57600080fd5b50565b610cb681610c60565b8114610cc157600080fd5b50565b610ccd81610c8c565b8114610cd857600080fd5b5056fea26469706673582212206ac9d2a7bf0ceee6889bbaf6104c7ec131e8099aaf2037b4048d4f0d167ed01d64736f6c63430008000033"
  }
}