{"compiler":"v0.5.17+commit.d19bba13","opcodeHash":"0xf81bdf531f5195dd9b9fc2925fd3af86c7f1ca17b4aaa33c58735b9431824390","metalessHash":"0xefc4008257aed0a8064e4379194fe79184ccfe09a655c92041fc1f32c34717fe","runtimeHash":"0xf427c6ab31c7b192f79e2ae0a09a7b7345c5b2a32dd05debe9132587315c86ce","encodedMetadata":[{"bzzr1":"/swarm/bzzr1/e197cd6b761a92dedcee093f6155911347b381d1400c2d5c79b7bd1b9916f385","solc":"0.5.17"}],"abi":[{"inputs":[],"payable":false,"stateMutability":"nonpayable","type":"constructor"},{"constant":true,"inputs":[],"name":"balanceOf","outputs":[{"internalType":"uint256","name":"","type":"uint256"}],"payable":false,"stateMutability":"view","type":"function"},{"constant":true,"inputs":[],"name":"cmt","outputs":[{"internalType":"address","name":"","type":"address"}],"payable":false,"stateMutability":"view","type":"function"},{"constant":true,"inputs":[],"name":"controller","outputs":[{"internalType":"address","name":"","type":"address"}],"payable":false,"stateMutability":"view","type":"function"},{"constant":false,"inputs":[],"name":"deposit","outputs":[],"payable":false,"stateMutability":"nonpayable","type":"function"},{"constant":false,"inputs":[],"name":"doApprove","outputs":[],"payable":false,"stateMutability":"nonpayable","type":"function"},{"constant":true,"inputs":[],"name":"fundAddress","outputs":[{"internalType":"address","name":"","type":"address"}],"payable":false,"stateMutability":"view","type":"function"},{"constant":true,"inputs":[],"name":"getName","outputs":[{"internalType":"string","name":"","type":"string"}],"payable":false,"stateMutability":"view","type":"function"},{"constant":true,"inputs":[],"name":"governance","outputs":[{"internalType":"address","name":"","type":"address"}],"payable":false,"stateMutability":"view","type":"function"},{"constant":false,"inputs":[{"internalType":"address","name":"_controller","type":"address"}],"name":"setController","outputs":[],"payable":false,"stateMutability":"nonpayable","type":"function"},{"constant":false,"inputs":[{"internalType":"address","name":"_governance","type":"address"}],"name":"setGovernance","outputs":[],"payable":false,"stateMutability":"nonpayable","type":"function"},{"constant":false,"inputs":[{"internalType":"uint256","name":"_amount","type":"uint256"}],"name":"tokenMove","outputs":[],"payable":false,"stateMutability":"nonpayable","type":"function"},{"constant":true,"inputs":[],"name":"unirouter","outputs":[{"internalType":"address","name":"","type":"address"}],"payable":false,"stateMutability":"view","type":"function"},{"constant":true,"inputs":[],"name":"want","outputs":[{"internalType":"address","name":"","type":"address"}],"payable":false,"stateMutability":"view","type":"function"},{"constant":true,"inputs":[],"name":"weth","outputs":[{"internalType":"address","name":"","type":"address"}],"payable":false,"stateMutability":"view","type":"function"},{"constant":false,"inputs":[{"internalType":"uint256","name":"_amount","type":"uint256"}],"name":"withdraw","outputs":[],"payable":false,"stateMutability":"nonpayable","type":"function"},{"constant":false,"inputs":[{"internalType":"contract IERC20","name":"_asset","type":"address"}],"name":"withdraw","outputs":[{"internalType":"uint256","name":"balance","type":"uint256"}],"payable":false,"stateMutability":"nonpayable","type":"function"},{"constant":false,"inputs":[],"name":"withdrawAll","outputs":[{"internalType":"uint256","name":"balance","type":"uint256"}],"payable":false,"stateMutability":"nonpayable","type":"function"},{"constant":true,"inputs":[],"name":"withdrawalFee","outputs":[{"internalType":"uint256","name":"","type":"uint256"}],"payable":false,"stateMutability":"view","type":"function"},{"constant":true,"inputs":[],"name":"withdrawalMax","outputs":[{"internalType":"uint256","name":"","type":"uint256"}],"payable":false,"stateMutability":"view","type":"function"}],"bytecode":{"object":"6080604052731360cfa0606e5b057df468d540fa81f75d8146e3600260006101000a81548173ffffffffffffffffffffffffffffffffffffffff021916908373ffffffffffffffffffffffffffffffffffffffff16021790555060006004553480156200006b57600080fd5b50336000806101000a81548173ffffffffffffffffffffffffffffffffffffffff021916908373ffffffffffffffffffffffffffffffffffffffff16021790555073aa6dd2976eec3d696c258d907365d29825f075f7600160006101000a81548173ffffffffffffffffffffffffffffffffffffffff021916908373ffffffffffffffffffffffffffffffffffffffff16021790555073dac17f958d2ee523a2206206994597c13d831ec773ffffffffffffffffffffffffffffffffffffffff166306fdde036040518163ffffffff1660e01b815260040160006040518083038186803b1580156200015c57600080fd5b505afa15801562000171573d6000803e3d6000fd5b505050506040513d6000823e3d601f19601f8201168201806040525060208110156200019c57600080fd5b8101908080516040519392919084640100000000821115620001bd57600080fd5b83820191506020820185811115620001d457600080fd5b8251866001820283011164010000000082111715620001f257600080fd5b8083526020830192505050908051906020019080838360005b83811015620002285780820151818401526020810190506200020b565b50505050905090810190601f168015620002565780820380516001836020036101000a031916815260200191505b506040525050506040516020018082805190602001908083835b6020831062000295578051825260208201915060208101905060208303925062000270565b6001836020036101000a038019825116818451168082178552505050505050905001807f2e3100000000000000000000000000000000000000000000000000000000000081525060020191505060405160208183030381529060405260405160200180807f434d3a4142532e426f6e642e0000000000000000000000000000000000000000815250600c0182805190602001908083835b602083106200035157805182526020820191506020810190506020830392506200032c565b6001836020036101000a038019825116818451168082178552505050505050905001915050604051602081830303815290604052600390805190602001906200039c92919062000966565b50620003ad620003b360201b60201c565b62000a15565b6200040e737a250d5630b4cf539739df2c5dacb4c659f2488d600073ead946c0e43023b64bfd0098286076dbb2a3e9b773ffffffffffffffffffffffffffffffffffffffff166200048a60201b62001980179092919060201c565b62000488737a250d5630b4cf539739df2c5dacb4c659f2488d7fffffffffffffffffffffffffffffffffffffffffffffffffffffffffffffffff73ead946c0e43023b64bfd0098286076dbb2a3e9b773ffffffffffffffffffffffffffffffffffffffff166200048a60201b62001980179092919060201c565b565b600081148062000588575060008373ffffffffffffffffffffffffffffffffffffffff1663dd62ed3e30856040518363ffffffff1660e01b8152600401808373ffffffffffffffffffffffffffffffffffffffff1673ffffffffffffffffffffffffffffffffffffffff1681526020018273ffffffffffffffffffffffffffffffffffffffff1673ffffffffffffffffffffffffffffffffffffffff1681526020019250505060206040518083038186803b1580156200054957600080fd5b505afa1580156200055e573d6000803e3d6000fd5b505050506040513d60208110156200057557600080fd5b8101908080519060200190929190505050145b620005df576040517f08c379a000000000000000000000000000000000000000000000000000000000815260040180806020018281038252603681526020018062002ac16036913960400191505060405180910390fd5b620006b3838473ffffffffffffffffffffffffffffffffffffffff1663095ea7b3905060e01b8484604051602401808373ffffffffffffffffffffffffffffffffffffffff1673ffffffffffffffffffffffffffffffffffffffff16815260200182815260200192505050604051602081830303815290604052907bffffffffffffffffffffffffffffffffffffffffffffffffffffffff19166020820180517bffffffffffffffffffffffffffffffffffffffffffffffffffffffff8381831617835250505050620006b860201b60201c565b505050565b620006e48273ffffffffffffffffffffffffffffffffffffffff166200091a60201b62001f711760201c565b62000757576040517f08c379a000000000000000000000000000000000000000000000000000000000815260040180806020018281038252601f8152602001807f5361666545524332303a2063616c6c20746f206e6f6e2d636f6e74726163740081525060200191505060405180910390fd5b600060608373ffffffffffffffffffffffffffffffffffffffff16836040518082805190602001908083835b60208310620007a8578051825260208201915060208101905060208303925062000783565b6001836020036101000a0380198251168184511680821785525050505050509050019150506000604051808303816000865af19150503d80600081146200080c576040519150601f19603f3d011682016040523d82523d6000602084013e62000811565b606091505b5091509150816200088a576040517f08c379a00000000000000000000000000000000000000000000000000000000081526004018080602001828103825260208152602001807f5361666545524332303a206c6f772d6c6576656c2063616c6c206661696c656481525060200191505060405180910390fd5b6000815111156200091457808060200190516020811015620008ab57600080fd5b810190808051906020019092919050505062000913576040517f08c379a000000000000000000000000000000000000000000000000000000000815260040180806020018281038252602a81526020018062002a97602a913960400191505060405180910390fd5b5b50505050565b60008060007fc5d2460186f7233c927e7db2dcc703c0e500b653ca82273b7bfad8045d85a47060001b9050833f91506000801b82141580156200095d5750808214155b92505050919050565b828054600181600116156101000203166002900490600052602060002090601f016020900481019282601f10620009a957805160ff1916838001178555620009da565b82800160010185558215620009da579182015b82811115620009d9578251825591602001919060010190620009bc565b5b509050620009e99190620009ed565b5090565b62000a1291905b8082111562000a0e576000816000905550600101620009f4565b5090565b90565b6120728062000a256000396000f3fe608060405234801561001057600080fd5b50600436106101215760003560e01c8063722713f7116100ad578063d0e30db011610071578063d0e30db014610471578063d49f76b01461047b578063d5c1ff73146104c5578063e82bef29146104e3578063f77c47911461052d57610121565b8063722713f71461038f578063853828b6146103ad5780638bc7e8c4146103cb57806392eefe9b146103e9578063ab033ea91461042d57610121565b80633ed0e6ae116100f45780633ed0e6ae1461026b5780633fc8cef31461029957806351cff8d9146102e35780635aa6e6751461033b5780635bb5ebbe1461038557610121565b806317d7de7c146101265780631f1fcd51146101a9578063257ae0de146101f35780632e1a7d4d1461023d575b600080fd5b61012e610577565b6040518080602001828103825283818151815260200191508051906020019080838360005b8381101561016e578082015181840152602081019050610153565b50505050905090810190601f16801561019b5780820380516001836020036101000a031916815260200191505b509250505060405180910390f35b6101b1610615565b604051808273ffffffffffffffffffffffffffffffffffffffff1673ffffffffffffffffffffffffffffffffffffffff16815260200191505060405180910390f35b6101fb61062d565b604051808273ffffffffffffffffffffffffffffffffffffffff1673ffffffffffffffffffffffffffffffffffffffff16815260200191505060405180910390f35b6102696004803603602081101561025357600080fd5b8101908080359060200190929190505050610645565b005b6102976004803603602081101561028157600080fd5b8101908080359060200190929190505050610b56565b005b6102a1610c7c565b604051808273ffffffffffffffffffffffffffffffffffffffff1673ffffffffffffffffffffffffffffffffffffffff16815260200191505060405180910390f35b610325600480360360208110156102f957600080fd5b81019080803573ffffffffffffffffffffffffffffffffffffffff169060200190929190505050610c94565b6040518082815260200191505060405180910390f35b610343610f1b565b604051808273ffffffffffffffffffffffffffffffffffffffff1673ffffffffffffffffffffffffffffffffffffffff16815260200191505060405180910390f35b61038d610f40565b005b610397611009565b6040518082815260200191505060405180910390f35b6103b56110dc565b6040518082815260200191505060405180910390f35b6103d3611447565b6040518082815260200191505060405180910390f35b61042b600480360360208110156103ff57600080fd5b81019080803573ffffffffffffffffffffffffffffffffffffffff16906020019092919050505061144d565b005b61046f6004803603602081101561044357600080fd5b81019080803573ffffffffffffffffffffffffffffffffffffffff169060200190929190505050611553565b005b610479611658565b005b61048361172b565b604051808273ffffffffffffffffffffffffffffffffffffffff1673ffffffffffffffffffffffffffffffffffffffff16815260200191505060405180910390f35b6104cd611743565b6040518082815260200191505060405180910390f35b6104eb611749565b604051808273ffffffffffffffffffffffffffffffffffffffff1673ffffffffffffffffffffffffffffffffffffffff16815260200191505060405180910390f35b61053561176f565b604051808273ffffffffffffffffffffffffffffffffffffffff1673ffffffffffffffffffffffffffffffffffffffff16815260200191505060405180910390f35b60038054600181600116156101000203166002900480601f01602080910402602001604051908101604052809291908181526020018280546001816001161561010002031660029004801561060d5780601f106105e25761010080835404028352916020019161060d565b820191906000526020600020905b8154815290600101906020018083116105f057829003601f168201915b505050505081565b73dac17f958d2ee523a2206206994597c13d831ec781565b737a250d5630b4cf539739df2c5dacb4c659f2488d81565b600160009054906101000a900473ffffffffffffffffffffffffffffffffffffffff1673ffffffffffffffffffffffffffffffffffffffff163373ffffffffffffffffffffffffffffffffffffffff1614610708576040517f08c379a000000000000000000000000000000000000000000000000000000000815260040180806020018281038252600b8152602001807f21636f6e74726f6c6c657200000000000000000000000000000000000000000081525060200191505060405180910390fd5b600073dac17f958d2ee523a2206206994597c13d831ec773ffffffffffffffffffffffffffffffffffffffff166370a08231306040518263ffffffff1660e01b8152600401808273ffffffffffffffffffffffffffffffffffffffff1673ffffffffffffffffffffffffffffffffffffffff16815260200191505060206040518083038186803b15801561079b57600080fd5b505afa1580156107af573d6000803e3d6000fd5b505050506040513d60208110156107c557600080fd5b8101908080519060200190929190505050905081811061084d576040517f08c379a00000000000000000000000000000000000000000000000000000000081526004018080602001828103825260088152602001807f2162616c616e636500000000000000000000000000000000000000000000000081525060200191505060405180910390fd5b60008090506000600454111561096a576108866127106108786004548661179590919063ffffffff16565b61181b90919063ffffffff16565b9050610969600160009054906101000a900473ffffffffffffffffffffffffffffffffffffffff1673ffffffffffffffffffffffffffffffffffffffff16639ec5a8946040518163ffffffff1660e01b815260040160206040518083038186803b1580156108f357600080fd5b505afa158015610907573d6000803e3d6000fd5b505050506040513d602081101561091d57600080fd5b81019080805190602001909291905050508273dac17f958d2ee523a2206206994597c13d831ec773ffffffffffffffffffffffffffffffffffffffff166118659092919063ffffffff16565b5b6000600160009054906101000a900473ffffffffffffffffffffffffffffffffffffffff1673ffffffffffffffffffffffffffffffffffffffff1663a622ee7c73dac17f958d2ee523a2206206994597c13d831ec76040518263ffffffff1660e01b8152600401808273ffffffffffffffffffffffffffffffffffffffff1673ffffffffffffffffffffffffffffffffffffffff16815260200191505060206040518083038186803b158015610a1f57600080fd5b505afa158015610a33573d6000803e3d6000fd5b505050506040513d6020811015610a4957600080fd5b81019080805190602001909291905050509050600073ffffffffffffffffffffffffffffffffffffffff168173ffffffffffffffffffffffffffffffffffffffff161415610aff576040517f08c379a00000000000000000000000000000000000000000000000000000000081526004018080602001828103825260068152602001807f217661756c74000000000000000000000000000000000000000000000000000081525060200191505060405180910390fd5b610b5081610b16848761193690919063ffffffff16565b73dac17f958d2ee523a2206206994597c13d831ec773ffffffffffffffffffffffffffffffffffffffff166118659092919063ffffffff16565b50505050565b6000809054906101000a900473ffffffffffffffffffffffffffffffffffffffff1673ffffffffffffffffffffffffffffffffffffffff163373ffffffffffffffffffffffffffffffffffffffff1614610c18576040517f08c379a000000000000000000000000000000000000000000000000000000000815260040180806020018281038252600b8152602001807f21676f7665726e616e636500000000000000000000000000000000000000000081525060200191505060405180910390fd5b610c79600260009054906101000a900473ffffffffffffffffffffffffffffffffffffffff168273dac17f958d2ee523a2206206994597c13d831ec773ffffffffffffffffffffffffffffffffffffffff166118659092919063ffffffff16565b50565b73c02aaa39b223fe8d0a0e5c4f27ead9083c756cc281565b6000600160009054906101000a900473ffffffffffffffffffffffffffffffffffffffff1673ffffffffffffffffffffffffffffffffffffffff163373ffffffffffffffffffffffffffffffffffffffff1614610d59576040517f08c379a000000000000000000000000000000000000000000000000000000000815260040180806020018281038252600b8152602001807f21636f6e74726f6c6c657200000000000000000000000000000000000000000081525060200191505060405180910390fd5b8173ffffffffffffffffffffffffffffffffffffffff1673dac17f958d2ee523a2206206994597c13d831ec773ffffffffffffffffffffffffffffffffffffffff161415610e0f576040517f08c379a00000000000000000000000000000000000000000000000000000000081526004018080602001828103825260048152602001807f77616e740000000000000000000000000000000000000000000000000000000081525060200191505060405180910390fd5b8173ffffffffffffffffffffffffffffffffffffffff166370a08231306040518263ffffffff1660e01b8152600401808273ffffffffffffffffffffffffffffffffffffffff1673ffffffffffffffffffffffffffffffffffffffff16815260200191505060206040518083038186803b158015610e8c57600080fd5b505afa158015610ea0573d6000803e3d6000fd5b505050506040513d6020811015610eb657600080fd5b81019080805190602001909291905050509050610f16600160009054906101000a900473ffffffffffffffffffffffffffffffffffffffff16828473ffffffffffffffffffffffffffffffffffffffff166118659092919063ffffffff16565b919050565b6000809054906101000a900473ffffffffffffffffffffffffffffffffffffffff1681565b610f94737a250d5630b4cf539739df2c5dacb4c659f2488d600073ead946c0e43023b64bfd0098286076dbb2a3e9b773ffffffffffffffffffffffffffffffffffffffff166119809092919063ffffffff16565b611007737a250d5630b4cf539739df2c5dacb4c659f2488d7fffffffffffffffffffffffffffffffffffffffffffffffffffffffffffffffff73ead946c0e43023b64bfd0098286076dbb2a3e9b773ffffffffffffffffffffffffffffffffffffffff166119809092919063ffffffff16565b565b600073dac17f958d2ee523a2206206994597c13d831ec773ffffffffffffffffffffffffffffffffffffffff166370a08231306040518263ffffffff1660e01b8152600401808273ffffffffffffffffffffffffffffffffffffffff1673ffffffffffffffffffffffffffffffffffffffff16815260200191505060206040518083038186803b15801561109c57600080fd5b505afa1580156110b0573d6000803e3d6000fd5b505050506040513d60208110156110c657600080fd5b8101908080519060200190929190505050905090565b6000600160009054906101000a900473ffffffffffffffffffffffffffffffffffffffff1673ffffffffffffffffffffffffffffffffffffffff163373ffffffffffffffffffffffffffffffffffffffff16146111a1576040517f08c379a000000000000000000000000000000000000000000000000000000000815260040180806020018281038252600b8152602001807f21636f6e74726f6c6c657200000000000000000000000000000000000000000081525060200191505060405180910390fd5b73dac17f958d2ee523a2206206994597c13d831ec773ffffffffffffffffffffffffffffffffffffffff166370a08231306040518263ffffffff1660e01b8152600401808273ffffffffffffffffffffffffffffffffffffffff1673ffffffffffffffffffffffffffffffffffffffff16815260200191505060206040518083038186803b15801561123257600080fd5b505afa158015611246573d6000803e3d6000fd5b505050506040513d602081101561125c57600080fd5b810190808051906020019092919050505090506000600160009054906101000a900473ffffffffffffffffffffffffffffffffffffffff1673ffffffffffffffffffffffffffffffffffffffff1663a622ee7c73dac17f958d2ee523a2206206994597c13d831ec76040518263ffffffff1660e01b8152600401808273ffffffffffffffffffffffffffffffffffffffff1673ffffffffffffffffffffffffffffffffffffffff16815260200191505060206040518083038186803b15801561132457600080fd5b505afa158015611338573d6000803e3d6000fd5b505050506040513d602081101561134e57600080fd5b81019080805190602001909291905050509050600073ffffffffffffffffffffffffffffffffffffffff168173ffffffffffffffffffffffffffffffffffffffff161415611404576040517f08c379a00000000000000000000000000000000000000000000000000000000081526004018080602001828103825260068152602001807f217661756c74000000000000000000000000000000000000000000000000000081525060200191505060405180910390fd5b611443818373dac17f958d2ee523a2206206994597c13d831ec773ffffffffffffffffffffffffffffffffffffffff166118659092919063ffffffff16565b5090565b60045481565b6000809054906101000a900473ffffffffffffffffffffffffffffffffffffffff1673ffffffffffffffffffffffffffffffffffffffff163373ffffffffffffffffffffffffffffffffffffffff161461150f576040517f08c379a000000000000000000000000000000000000000000000000000000000815260040180806020018281038252600b8152602001807f21676f7665726e616e636500000000000000000000000000000000000000000081525060200191505060405180910390fd5b80600160006101000a81548173ffffffffffffffffffffffffffffffffffffffff021916908373ffffffffffffffffffffffffffffffffffffffff16021790555050565b6000809054906101000a900473ffffffffffffffffffffffffffffffffffffffff1673ffffffffffffffffffffffffffffffffffffffff163373ffffffffffffffffffffffffffffffffffffffff1614611615576040517f08c379a000000000000000000000000000000000000000000000000000000000815260040180806020018281038252600b8152602001807f21676f7665726e616e636500000000000000000000000000000000000000000081525060200191505060405180910390fd5b806000806101000a81548173ffffffffffffffffffffffffffffffffffffffff021916908373ffffffffffffffffffffffffffffffffffffffff16021790555050565b600073dac17f958d2ee523a2206206994597c13d831ec773ffffffffffffffffffffffffffffffffffffffff166370a08231306040518263ffffffff1660e01b8152600401808273ffffffffffffffffffffffffffffffffffffffff1673ffffffffffffffffffffffffffffffffffffffff16815260200191505060206040518083038186803b1580156116eb57600080fd5b505afa1580156116ff573d6000803e3d6000fd5b505050506040513d602081101561171557600080fd5b8101908080519060200190929190505050905050565b73ead946c0e43023b64bfd0098286076dbb2a3e9b781565b61271081565b600260009054906101000a900473ffffffffffffffffffffffffffffffffffffffff1681565b600160009054906101000a900473ffffffffffffffffffffffffffffffffffffffff1681565b6000808314156117a85760009050611815565b60008284029050828482816117b957fe5b0414611810576040517f08c379a0000000000000000000000000000000000000000000000000000000008152600401808060200182810382526021815260200180611fbd6021913960400191505060405180910390fd5b809150505b92915050565b600061185d83836040518060400160405280601a81526020017f536166654d6174683a206469766973696f6e206279207a65726f000000000000815250611ba0565b905092915050565b611931838473ffffffffffffffffffffffffffffffffffffffff1663a9059cbb905060e01b8484604051602401808373ffffffffffffffffffffffffffffffffffffffff1673ffffffffffffffffffffffffffffffffffffffff16815260200182815260200192505050604051602081830303815290604052907bffffffffffffffffffffffffffffffffffffffffffffffffffffffff19166020820180517bffffffffffffffffffffffffffffffffffffffffffffffffffffffff8381831617835250505050611c66565b505050565b600061197883836040518060400160405280601e81526020017f536166654d6174683a207375627472616374696f6e206f766572666c6f770000815250611eb1565b905092915050565b6000811480611a7a575060008373ffffffffffffffffffffffffffffffffffffffff1663dd62ed3e30856040518363ffffffff1660e01b8152600401808373ffffffffffffffffffffffffffffffffffffffff1673ffffffffffffffffffffffffffffffffffffffff1681526020018273ffffffffffffffffffffffffffffffffffffffff1673ffffffffffffffffffffffffffffffffffffffff1681526020019250505060206040518083038186803b158015611a3d57600080fd5b505afa158015611a51573d6000803e3d6000fd5b505050506040513d6020811015611a6757600080fd5b8101908080519060200190929190505050145b611acf576040517f08c379a00000000000000000000000000000000000000000000000000000000081526004018080602001828103825260368152602001806120086036913960400191505060405180910390fd5b611b9b838473ffffffffffffffffffffffffffffffffffffffff1663095ea7b3905060e01b8484604051602401808373ffffffffffffffffffffffffffffffffffffffff1673ffffffffffffffffffffffffffffffffffffffff16815260200182815260200192505050604051602081830303815290604052907bffffffffffffffffffffffffffffffffffffffffffffffffffffffff19166020820180517bffffffffffffffffffffffffffffffffffffffffffffffffffffffff8381831617835250505050611c66565b505050565b60008083118290611c4c576040517f08c379a00000000000000000000000000000000000000000000000000000000081526004018080602001828103825283818151815260200191508051906020019080838360005b83811015611c11578082015181840152602081019050611bf6565b50505050905090810190601f168015611c3e5780820380516001836020036101000a031916815260200191505b509250505060405180910390fd5b506000838581611c5857fe5b049050809150509392505050565b611c858273ffffffffffffffffffffffffffffffffffffffff16611f71565b611cf7576040517f08c379a000000000000000000000000000000000000000000000000000000000815260040180806020018281038252601f8152602001807f5361666545524332303a2063616c6c20746f206e6f6e2d636f6e74726163740081525060200191505060405180910390fd5b600060608373ffffffffffffffffffffffffffffffffffffffff16836040518082805190602001908083835b60208310611d465780518252602082019150602081019050602083039250611d23565b6001836020036101000a0380198251168184511680821785525050505050509050019150506000604051808303816000865af19150503d8060008114611da8576040519150601f19603f3d011682016040523d82523d6000602084013e611dad565b606091505b509150915081611e25576040517f08c379a00000000000000000000000000000000000000000000000000000000081526004018080602001828103825260208152602001807f5361666545524332303a206c6f772d6c6576656c2063616c6c206661696c656481525060200191505060405180910390fd5b600081511115611eab57808060200190516020811015611e4457600080fd5b8101908080519060200190929190505050611eaa576040517f08c379a000000000000000000000000000000000000000000000000000000000815260040180806020018281038252602a815260200180611fde602a913960400191505060405180910390fd5b5b50505050565b6000838311158290611f5e576040517f08c379a00000000000000000000000000000000000000000000000000000000081526004018080602001828103825283818151815260200191508051906020019080838360005b83811015611f23578082015181840152602081019050611f08565b50505050905090810190601f168015611f505780820380516001836020036101000a031916815260200191505b509250505060405180910390fd5b5060008385039050809150509392505050565b60008060007fc5d2460186f7233c927e7db2dcc703c0e500b653ca82273b7bfad8045d85a47060001b9050833f91506000801b8214158015611fb35750808214155b9250505091905056fe536166654d6174683a206d756c7469706c69636174696f6e206f766572666c6f775361666545524332303a204552433230206f7065726174696f6e20646964206e6f7420737563636565645361666545524332303a20617070726f76652066726f6d206e6f6e2d7a65726f20746f206e6f6e2d7a65726f20616c6c6f77616e6365a265627a7a723158204d66d0774bef66112cf6544490dafbb923f6be18bdb100447e28924c9884aa0764736f6c634300051100325361666545524332303a204552433230206f7065726174696f6e20646964206e6f7420737563636565645361666545524332303a20617070726f76652066726f6d206e6f6e2d7a65726f20746f206e6f6e2d7a65726f20616c6c6f77616e6365"}}