{"compiler":"v0.8.9+commit.e5eed63a","opcodeHash":"0x2c05974ebf92fc8e3985d7fc72c5a6d20957d70b2b9e225446c832977fa1b374","metalessHash":"0x27170db14279a59d6861310771766efe4cdddbb548bc6e677f96302eb79429da","runtimeHash":"0x91041fd04a7a7e15c7d2e79ba16ce8eb6e1be54b42f9b200ece72f2448d6c5b2","encodedMetadata":[{"ipfs":"/ipfs/QmQSvDCjnsuZo4SMe8RCXrXpgz2T9HWVH4khwZhtFe3NkL","solc":"0.8.9"}],"abi":[{"inputs":[{"internalType":"address","name":"governorAddress_","type":"address"},{"internalType":"address","name":"tokenAddress_","type":"address"}],"stateMutability":"nonpayable","type":"constructor"},{"inputs":[],"name":"BALLOT_TYPEHASH","outputs":[{"internalType":"bytes32","name":"","type":"bytes32"}],"stateMutability":"view","type":"function"},{"inputs":[],"name":"CHAIN_ID","outputs":[{"internalType":"uint256","name":"","type":"uint256"}],"stateMutability":"view","type":"function"},{"inputs":[],"name":"DELEGATION_TYPEHASH","outputs":[{"internalType":"bytes32","name":"","type":"bytes32"}],"stateMutability":"view","type":"function"},{"inputs":[],"name":"DOMAIN_TYPEHASH","outputs":[{"internalType":"bytes32","name":"","type":"bytes32"}],"stateMutability":"view","type":"function"},{"inputs":[],"name":"governorAddress","outputs":[{"internalType":"address","name":"","type":"address"}],"stateMutability":"view","type":"function"},{"inputs":[],"name":"owner","outputs":[{"internalType":"address","name":"","type":"address"}],"stateMutability":"view","type":"function"},{"inputs":[{"components":[{"internalType":"address","name":"delegatee","type":"address"},{"internalType":"uint256","name":"nonce","type":"uint256"},{"internalType":"uint256","name":"expiry","type":"uint256"},{"internalType":"uint8","name":"v","type":"uint8"},{"internalType":"bytes32","name":"r","type":"bytes32"},{"internalType":"bytes32","name":"s","type":"bytes32"}],"internalType":"struct SigRelayer.DelegationSig[]","name":"s1","type":"tuple[]"},{"components":[{"internalType":"uint256","name":"proposalId","type":"uint256"},{"internalType":"uint8","name":"support","type":"uint8"},{"internalType":"uint8","name":"v","type":"uint8"},{"internalType":"bytes32","name":"r","type":"bytes32"},{"internalType":"bytes32","name":"s","type":"bytes32"}],"internalType":"struct SigRelayer.VoteSig[]","name":"s2","type":"tuple[]"}],"name":"relayBySigs","outputs":[],"stateMutability":"nonpayable","type":"function"},{"inputs":[{"internalType":"address","name":"governorAddress_","type":"address"}],"name":"setGovernor","outputs":[],"stateMutability":"nonpayable","type":"function"},{"inputs":[],"name":"tokenAddress","outputs":[{"internalType":"address","name":"","type":"address"}],"stateMutability":"view","type":"function"}],"bytecode":{"object":"60c060405234801561001057600080fd5b506040516108c23803806108c283398101604081905261002f91610074565b600080546001600160a01b0319166001600160a01b039384161790551660a052336080526100a7565b80516001600160a01b038116811461006f57600080fd5b919050565b6000806040838503121561008757600080fd5b61009083610058565b915061009e60208401610058565b90509250929050565b60805160a0516107e86100da60003960008181610146015261024901526000818161011f015261041901526107e86000f3fe608060405234801561001057600080fd5b50600436106100935760003560e01c80638da5cb5b116100665780638da5cb5b1461011a5780639d76ea5814610141578063c42cf53514610168578063deaaa7cc1461017b578063e7a324dc146101a257600080fd5b806317931b6e1461009857806320606b70146100ad578063276f1c41146100e757806385e1f4d014610112575b600080fd5b6100ab6100a6366004610604565b6101c9565b005b6100d47f8cad95687ba82c2ce50e74f7b754645e5117c3a5bec8151c0726d5857980a86681565b6040519081526020015b60405180910390f35b6000546100fa906001600160a01b031681565b6040516001600160a01b0390911681526020016100de565b6100d4600181565b6100fa7f000000000000000000000000000000000000000000000000000000000000000081565b6100fa7f000000000000000000000000000000000000000000000000000000000000000081565b6100ab610176366004610716565b61040e565b6100d47f150214d74d59b7d1e90c73fc22ef3d991dd0a76b046543d4d80ab92d2a50328f81565b6100d47fe48329057bfd03d55e49b547132e39cffd9c1820ad7b9d4c5307691425d15adf81565b60005b82518110156102fd5760008382815181106101e9576101e9610738565b6020908102919091018101518051918101516040808301516060840151608085015160a086015193516001600160a01b0397881660248201526044810195909552606485019290925260ff16608484015260a483015260c48201529092507f00000000000000000000000000000000000000000000000000000000000000009091169060e40160408051601f198184030181529181526020820180516001600160e01b031663061e6d2960e51b179052516102a4919061074e565b6000604051808303816000865af19150503d80600081146102e1576040519150601f19603f3d011682016040523d82523d6000602084013e6102e6565b606091505b5050505080806102f590610789565b9150506101cc565b5060005b815181101561040957600082828151811061031e5761031e610738565b602090810291909101810151600054815192820151604080840151606085015160808601519251602481019790975260ff938416604488015292166064860152608485019190915260a48401529092506001600160a01b03169060c40160408051601f198184030181529181526020820180516001600160e01b0316633bccf4fd60e01b179052516103b0919061074e565b6000604051808303816000865af19150503d80600081146103ed576040519150601f19603f3d011682016040523d82523d6000602084013e6103f2565b606091505b50505050808061040190610789565b915050610301565b505050565b336001600160a01b037f0000000000000000000000000000000000000000000000000000000000000000161461044357600080fd5b600080546001600160a01b0319166001600160a01b0392909216919091179055565b634e487b7160e01b600052604160045260246000fd5b60405160a0810167ffffffffffffffff8111828210171561049e5761049e610465565b60405290565b60405160c0810167ffffffffffffffff8111828210171561049e5761049e610465565b604051601f8201601f1916810167ffffffffffffffff811182821017156104f0576104f0610465565b604052919050565b600067ffffffffffffffff82111561051257610512610465565b5060051b60200190565b80356001600160a01b038116811461053357600080fd5b919050565b803560ff8116811461053357600080fd5b600082601f83011261055a57600080fd5b8135602061056f61056a836104f8565b6104c7565b82815260a0928302850182019282820191908785111561058e57600080fd5b8387015b858110156105f75781818a0312156105aa5760008081fd5b6105b261047b565b813581526105c1868301610538565b8682015260406105d2818401610538565b9082015260608281013590820152608080830135908201528452928401928101610592565b5090979650505050505050565b600080604080848603121561061857600080fd5b833567ffffffffffffffff8082111561063057600080fd5b818601915086601f83011261064457600080fd5b8135602061065461056a836104f8565b82815260c0928302850182019282820191908b85111561067357600080fd5b958301955b848710156106e75780878d0312156106905760008081fd5b6106986104a4565b6106a18861051c565b81528488013585820152888801358982015260606106c0818a01610538565b908201526080888101359082015260a0808901359082015283529586019591830191610678565b50975050870135935050808311156106fe57600080fd5b505061070c85828601610549565b9150509250929050565b60006020828403121561072857600080fd5b6107318261051c565b9392505050565b634e487b7160e01b600052603260045260246000fd5b6000825160005b8181101561076f5760208186018101518583015201610755565b8181111561077e576000828501525b509190910192915050565b60006000198214156107ab57634e487b7160e01b600052601160045260246000fd5b506001019056fea26469706673582212204ad58f432bf40449d42ab4435f4077b4b95850bdff98b9cb3f88df16702d254664736f6c63430008090033"}}