{"compiler":"v0.6.12+commit.27d51765","opcodeHash":"0x3ed7dff90060ec5dad79e0262b693dd3dfbc2d20fa983c57bd1013551167d69c","metalessHash":"0x34793719e5cea4f78ede6127bbca8bb812dc0d717bd2d5d64f972ae6fe83963a","runtimeHash":"0x2defab378ea5d1abbe91291d8770af574933ea97a017c9c7f46473adb19e569e","encodedMetadata":[{"ipfs":"/ipfs/QmaConjo4639U8WxNWLXUMGdyeELzXzKvjNCwG6V23iGSN","solc":"0.6.12"}],"abi":[{"inputs":[],"stateMutability":"nonpayable","type":"constructor"},{"anonymous":false,"inputs":[{"indexed":false,"internalType":"address","name":"createdBy","type":"address"},{"indexed":false,"internalType":"uint256","name":"causeId","type":"uint256"}],"name":"LogCauseCreated","type":"event"},{"anonymous":false,"inputs":[{"indexed":false,"internalType":"address","name":"sender","type":"address"},{"indexed":false,"internalType":"uint256","name":"causeId","type":"uint256"},{"indexed":false,"internalType":"uint256","name":"amount","type":"uint256"}],"name":"LogEnter","type":"event"},{"anonymous":false,"inputs":[{"indexed":false,"internalType":"address","name":"sender","type":"address"},{"indexed":false,"internalType":"uint256","name":"causeId","type":"uint256"},{"indexed":false,"internalType":"uint256","name":"senderStaked","type":"uint256"},{"indexed":false,"internalType":"uint256","name":"causeAmount","type":"uint256"}],"name":"LogLeave","type":"event"},{"anonymous":false,"inputs":[{"indexed":true,"internalType":"address","name":"previousOwner","type":"address"},{"indexed":true,"internalType":"address","name":"newOwner","type":"address"}],"name":"OwnershipTransferred","type":"event"},{"inputs":[{"internalType":"uint256","name":"_causeId","type":"uint256"}],"name":"causeStakedShare","outputs":[{"internalType":"uint256","name":"","type":"uint256"}],"stateMutability":"view","type":"function"},{"inputs":[{"internalType":"uint256","name":"_causeId","type":"uint256"},{"internalType":"address","name":"_supporter","type":"address"}],"name":"causeSupporterDonAmount","outputs":[{"internalType":"uint256","name":"","type":"uint256"}],"stateMutability":"view","type":"function"},{"inputs":[{"internalType":"uint256","name":"_causeId","type":"uint256"},{"internalType":"address","name":"_supporter","type":"address"}],"name":"causeSupporterxDonAmount","outputs":[{"internalType":"uint256","name":"","type":"uint256"}],"stateMutability":"view","type":"function"},{"inputs":[{"internalType":"uint256","name":"","type":"uint256"}],"name":"causes","outputs":[{"internalType":"uint256","name":"id","type":"uint256"},{"internalType":"address","name":"recipient","type":"address"},{"internalType":"bool","name":"isActive","type":"bool"},{"internalType":"bool","name":"isVerified","type":"bool"},{"internalType":"string","name":"title","type":"string"},{"internalType":"string","name":"website","type":"string"},{"internalType":"uint256","name":"funded","type":"uint256"},{"internalType":"uint256","name":"xDonAmount","type":"uint256"},{"internalType":"uint256","name":"staked","type":"uint256"},{"internalType":"address","name":"createdBy","type":"address"}],"stateMutability":"view","type":"function"},{"inputs":[{"internalType":"uint256","name":"_causeId","type":"uint256"}],"name":"causexDon","outputs":[{"internalType":"uint256","name":"","type":"uint256"}],"stateMutability":"view","type":"function"},{"inputs":[{"internalType":"address","name":"_recipient","type":"address"},{"internalType":"string","name":"_title","type":"string"},{"internalType":"string","name":"_website","type":"string"}],"name":"createCause","outputs":[],"stateMutability":"nonpayable","type":"function"},{"inputs":[],"name":"donCoin","outputs":[{"internalType":"contract IERC20","name":"","type":"address"}],"stateMutability":"view","type":"function"},{"inputs":[{"internalType":"uint256","name":"_causeId","type":"uint256"},{"internalType":"uint256","name":"_amount","type":"uint256"}],"name":"enter","outputs":[],"stateMutability":"nonpayable","type":"function"},{"inputs":[],"name":"getNumCauses","outputs":[{"internalType":"uint256","name":"","type":"uint256"}],"stateMutability":"view","type":"function"},{"inputs":[{"internalType":"uint256","name":"_causeId","type":"uint256"},{"internalType":"uint256","name":"_amount","type":"uint256"}],"name":"getxDonAmount","outputs":[{"internalType":"uint256","name":"","type":"uint256"}],"stateMutability":"view","type":"function"},{"inputs":[{"internalType":"string","name":"_string","type":"string"}],"name":"isTextEmpty","outputs":[{"internalType":"bool","name":"","type":"bool"}],"stateMutability":"pure","type":"function"},{"inputs":[{"internalType":"uint256","name":"_causeId","type":"uint256"}],"name":"leave","outputs":[],"stateMutability":"nonpayable","type":"function"},{"inputs":[],"name":"minDonCoin","outputs":[{"internalType":"uint256","name":"","type":"uint256"}],"stateMutability":"view","type":"function"},{"inputs":[],"name":"numCauses","outputs":[{"internalType":"uint256","name":"_value","type":"uint256"}],"stateMutability":"view","type":"function"},{"inputs":[],"name":"owner","outputs":[{"internalType":"address","name":"","type":"address"}],"stateMutability":"view","type":"function"},{"inputs":[],"name":"renounceOwnership","outputs":[],"stateMutability":"nonpayable","type":"function"},{"inputs":[{"internalType":"uint256","name":"_causeId","type":"uint256"},{"internalType":"bool","name":"_isActive","type":"bool"}],"name":"setCauseIsActive","outputs":[],"stateMutability":"nonpayable","type":"function"},{"inputs":[{"internalType":"address","name":"_donCoin","type":"address"}],"name":"setDonCoin","outputs":[],"stateMutability":"nonpayable","type":"function"},{"inputs":[{"internalType":"uint256","name":"_amount","type":"uint256"}],"name":"setMinDonCoin","outputs":[],"stateMutability":"nonpayable","type":"function"},{"inputs":[{"internalType":"address","name":"","type":"address"}],"name":"stakedByAddress","outputs":[{"internalType":"uint256","name":"","type":"uint256"}],"stateMutability":"view","type":"function"},{"inputs":[],"name":"totalStaked","outputs":[{"internalType":"uint256","name":"","type":"uint256"}],"stateMutability":"view","type":"function"},{"inputs":[{"internalType":"address","name":"newOwner","type":"address"}],"name":"transferOwnership","outputs":[],"stateMutability":"nonpayable","type":"function"},{"inputs":[{"internalType":"uint256","name":"_causeId","type":"uint256"},{"internalType":"bool","name":"_isVerified","type":"bool"}],"name":"verifyCause","outputs":[],"stateMutability":"nonpayable","type":"function"}],"bytecode":{"object":"60806040526000600260146101000a81548160ff0219169083151502179055503480156200002c57600080fd5b5060006200003f620000f360201b60201c565b9050806000806101000a81548173ffffffffffffffffffffffffffffffffffffffff021916908373ffffffffffffffffffffffffffffffffffffffff1602179055508073ffffffffffffffffffffffffffffffffffffffff16600073ffffffffffffffffffffffffffffffffffffffff167f8be0079c531659141344cd1fd0a4f28419497f9722a3daafe3b4186f6b6457e060405160405180910390a350683635c9adc5dea00000600681905550620000fb565b600033905090565b613598806200010b6000396000f3fe608060405234801561001057600080fd5b506004361061014d5760003560e01c8063817b1cd2116100c3578063c7fac1ec1161007c578063c7fac1ec14610816578063e5417c3414610850578063e65b830b14610894578063ef175728146108b2578063f2fde38b146108d0578063f97fb071146109145761014d565b8063817b1cd2146106275780638ced18e8146106455780638da5cb5b146106915780638eaf8b0a146106c5578063a34b0f3814610727578063a40dd85c146107455761014d565b806323972aef1161011557806323972aef146103c0578063538a942a146103f85780636450e8621461057357806367dfd4c9146105b5578063715018a6146105e35780637d01a0dd146105ed5761014d565b80630408c21614610152578063040aab821461018057806309bff852146102f25780631309fb991461032657806321bb3c8114610368575b600080fd5b61017e6004803603602081101561016857600080fd5b8101908080359060200190929190505050610976565b005b6102f06004803603606081101561019657600080fd5b81019080803573ffffffffffffffffffffffffffffffffffffffff169060200190929190803590602001906401000000008111156101d357600080fd5b8201836020820111156101e557600080fd5b8035906020019184600183028401116401000000008311171561020757600080fd5b91908080601f016020809104026020016040519081016040528093929190818152602001838380828437600081840152601f19601f8201169050808301925050505050505091929192908035906020019064010000000081111561026a57600080fd5b82018360208201111561027c57600080fd5b8035906020019184600183028401116401000000008311171561029e57600080fd5b91908080601f016020809104026020016040519081016040528093929190818152602001838380828437600081840152601f19601f820116905080830192505050505050509192919290505050610a48565b005b6102fa610ea9565b604051808273ffffffffffffffffffffffffffffffffffffffff16815260200191505060405180910390f35b6103526004803603602081101561033c57600080fd5b8101908080359060200190929190505050610ecf565b6040518082815260200191505060405180910390f35b6103aa6004803603602081101561037e57600080fd5b81019080803573ffffffffffffffffffffffffffffffffffffffff169060200190929190505050610fad565b6040518082815260200191505060405180910390f35b6103f6600480360360408110156103d657600080fd5b810190808035906020019092919080359060200190929190505050610fc5565b005b6104246004803603602081101561040e57600080fd5b810190808035906020019092919050505061166c565b604051808b81526020018a73ffffffffffffffffffffffffffffffffffffffff1681526020018915158152602001881515815260200180602001806020018781526020018681526020018581526020018473ffffffffffffffffffffffffffffffffffffffff168152602001838103835289818151815260200191508051906020019080838360005b838110156104c85780820151818401526020810190506104ad565b50505050905090810190601f1680156104f55780820380516001836020036101000a031916815260200191505b50838103825288818151815260200191508051906020019080838360005b8381101561052e578082015181840152602081019050610513565b50505050905090810190601f16801561055b5780820380516001836020036101000a031916815260200191505b509c5050505050505050505050505060405180910390f35b61059f6004803603602081101561058957600080fd5b810190808035906020019092919050505061184a565b6040518082815260200191505060405180910390f35b6105e1600480360360208110156105cb57600080fd5b8101908080359060200190929190505050611be0565b005b6105eb612231565b005b6106256004803603604081101561060357600080fd5b81019080803590602001909291908035151590602001909291905050506123b7565b005b61062f6124b1565b6040518082815260200191505060405180910390f35b61067b6004803603604081101561065b57600080fd5b8101908080359060200190929190803590602001909291905050506124b7565b6040518082815260200191505060405180910390f35b6106996125ed565b604051808273ffffffffffffffffffffffffffffffffffffffff16815260200191505060405180910390f35b610711600480360360408110156106db57600080fd5b8101908080359060200190929190803573ffffffffffffffffffffffffffffffffffffffff169060200190929190505050612616565b6040518082815260200191505060405180910390f35b61072f612735565b6040518082815260200191505060405180910390f35b6107fe6004803603602081101561075b57600080fd5b810190808035906020019064010000000081111561077857600080fd5b82018360208201111561078a57600080fd5b803590602001918460018302840111640100000000831117156107ac57600080fd5b91908080601f016020809104026020016040519081016040528093929190818152602001838380828437600081840152601f19601f820116905080830192505050505050509192919290505050612746565b60405180821515815260200191505060405180910390f35b61084e6004803603604081101561082c57600080fd5b8101908080359060200190929190803515159060200190929190505050612753565b005b6108926004803603602081101561086657600080fd5b81019080803573ffffffffffffffffffffffffffffffffffffffff169060200190929190505050612ac3565b005b61089c612c6d565b6040518082815260200191505060405180910390f35b6108ba612c79565b6040518082815260200191505060405180910390f35b610912600480360360208110156108e657600080fd5b81019080803573ffffffffffffffffffffffffffffffffffffffff169060200190929190505050612c7f565b005b6109606004803603604081101561092a57600080fd5b8101908080359060200190929190803573ffffffffffffffffffffffffffffffffffffffff169060200190929190505050612e8a565b6040518082815260200191505060405180910390f35b61097e612fa9565b73ffffffffffffffffffffffffffffffffffffffff1660008054906101000a900473ffffffffffffffffffffffffffffffffffffffff1673ffffffffffffffffffffffffffffffffffffffff1614610a3e576040517f08c379a00000000000000000000000000000000000000000000000000000000081526004018080602001828103825260208152602001807f4f776e61626c653a2063616c6c6572206973206e6f7420746865206f776e657281525060200191505060405180910390fd5b8060068190555050565b600654600260009054906101000a900473ffffffffffffffffffffffffffffffffffffffff1673ffffffffffffffffffffffffffffffffffffffff166370a08231336040518263ffffffff1660e01b8152600401808273ffffffffffffffffffffffffffffffffffffffff16815260200191505060206040518083038186803b158015610ad457600080fd5b505afa158015610ae8573d6000803e3d6000fd5b505050506040513d6020811015610afe57600080fd5b810190808051906020019092919050505011610b65576040517f08c379a000000000000000000000000000000000000000000000000000000000815260040180806020018281038252603b8152602001806134b8603b913960400191505060405180910390fd5b610b6e82612746565b15610be1576040517f08c379a000000000000000000000000000000000000000000000000000000000815260040180806020018281038252601b8152602001807f546865206361757365206d75737420686176652061207469746c65000000000081525060200191505060405180910390fd5b600073ffffffffffffffffffffffffffffffffffffffff168373ffffffffffffffffffffffffffffffffffffffff161415610c67576040517f08c379a000000000000000000000000000000000000000000000000000000000815260040180806020018281038252602481526020018061353f6024913960400191505060405180910390fd5b604051806101400160405280610c7d6003612fb1565b81526020018473ffffffffffffffffffffffffffffffffffffffff1681526020016001151581526020016000151581526020018381526020018281526020016000815260200160008152602001600081526020013373ffffffffffffffffffffffffffffffffffffffff1681525060016000610cf96003612fb1565b81526020019081526020016000206000820151816000015560208201518160010160006101000a81548173ffffffffffffffffffffffffffffffffffffffff021916908373ffffffffffffffffffffffffffffffffffffffff16021790555060408201518160010160146101000a81548160ff02191690831515021790555060608201518160010160156101000a81548160ff0219169083151502179055506080820151816002019080519060200190610db49291906132fd565b5060a0820151816003019080519060200190610dd19291906132fd565b5060c0820151816004015560e0820151816005015561010082015181600601556101208201518160070160006101000a81548173ffffffffffffffffffffffffffffffffffffffff021916908373ffffffffffffffffffffffffffffffffffffffff1602179055509050507f339be7e5de134f3083f094d1b7cf59ff32409240421684f782437d3936531a9033610e686003612fb1565b604051808373ffffffffffffffffffffffffffffffffffffffff1681526020018281526020019250505060405180910390a1610ea46003612fbf565b505050565b600260009054906101000a900473ffffffffffffffffffffffffffffffffffffffff1681565b600081600073ffffffffffffffffffffffffffffffffffffffff166001600083815260200190815260200160002060070160009054906101000a900473ffffffffffffffffffffffffffffffffffffffff1673ffffffffffffffffffffffffffffffffffffffff161415610f8e576040517f08c379a000000000000000000000000000000000000000000000000000000000815260040180806020018281038252602a81526020018061341e602a913960400191505060405180910390fd5b6001600084815260200190815260200160002060050154915050919050565b60056020528060005260406000206000915090505481565b81600073ffffffffffffffffffffffffffffffffffffffff166001600083815260200190815260200160002060070160009054906101000a900473ffffffffffffffffffffffffffffffffffffffff1673ffffffffffffffffffffffffffffffffffffffff161415611082576040517f08c379a000000000000000000000000000000000000000000000000000000000815260040180806020018281038252602a81526020018061341e602a913960400191505060405180910390fd5b600260009054906101000a900473ffffffffffffffffffffffffffffffffffffffff1673ffffffffffffffffffffffffffffffffffffffff1663dd62ed3e33306040518363ffffffff1660e01b8152600401808373ffffffffffffffffffffffffffffffffffffffff1681526020018273ffffffffffffffffffffffffffffffffffffffff1681526020019250505060206040518083038186803b15801561112957600080fd5b505afa15801561113d573d6000803e3d6000fd5b505050506040513d602081101561115357600080fd5b81019080805190602001909291905050508211156111bc576040517f08c379a000000000000000000000000000000000000000000000000000000000815260040180806020018281038252604c8152602001806134f3604c913960600191505060405180910390fd5b6001600084815260200190815260200160002060010160149054906101000a900460ff16611252576040517f08c379a00000000000000000000000000000000000000000000000000000000081526004018080602001828103825260188152602001807f546865206361757365206d75737420626520616374697665000000000000000081525060200191505060405180910390fd5b600061125e84846124b7565b90506112c9836001600087815260200190815260200160002060080160003373ffffffffffffffffffffffffffffffffffffffff1673ffffffffffffffffffffffffffffffffffffffff16815260200190815260200160002060000154612fd590919063ffffffff16565b6001600086815260200190815260200160002060080160003373ffffffffffffffffffffffffffffffffffffffff1673ffffffffffffffffffffffffffffffffffffffff1681526020019081526020016000206000018190555061138c816001600087815260200190815260200160002060080160003373ffffffffffffffffffffffffffffffffffffffff1673ffffffffffffffffffffffffffffffffffffffff16815260200190815260200160002060010154612fd590919063ffffffff16565b6001600086815260200190815260200160002060080160003373ffffffffffffffffffffffffffffffffffffffff1673ffffffffffffffffffffffffffffffffffffffff1681526020019081526020016000206001018190555061143883600560003373ffffffffffffffffffffffffffffffffffffffff1673ffffffffffffffffffffffffffffffffffffffff16815260200190815260200160002054612fd590919063ffffffff16565b600560003373ffffffffffffffffffffffffffffffffffffffff1673ffffffffffffffffffffffffffffffffffffffff168152602001908152602001600020819055506114a4836001600087815260200190815260200160002060060154612fd590919063ffffffff16565b60016000868152602001908152602001600020600601819055506114d383600454612fd590919063ffffffff16565b600481905550611502816001600087815260200190815260200160002060050154612fd590919063ffffffff16565b6001600086815260200190815260200160002060050181905550600260009054906101000a900473ffffffffffffffffffffffffffffffffffffffff1673ffffffffffffffffffffffffffffffffffffffff166323b872dd3330866040518463ffffffff1660e01b8152600401808473ffffffffffffffffffffffffffffffffffffffff1681526020018373ffffffffffffffffffffffffffffffffffffffff1681526020018281526020019350505050602060405180830381600087803b1580156115cd57600080fd5b505af11580156115e1573d6000803e3d6000fd5b505050506040513d60208110156115f757600080fd5b8101908080519060200190929190505050507f071b9bef5d7d110e85b70dcc9a028bd212819ea372bb056bb2fcea12a19ad43a338585604051808473ffffffffffffffffffffffffffffffffffffffff168152602001838152602001828152602001935050505060405180910390a150505050565b60016020528060005260406000206000915090508060000154908060010160009054906101000a900473ffffffffffffffffffffffffffffffffffffffff16908060010160149054906101000a900460ff16908060010160159054906101000a900460ff1690806002018054600181600116156101000203166002900480601f01602080910402602001604051908101604052809291908181526020018280546001816001161561010002031660029004801561176a5780601f1061173f5761010080835404028352916020019161176a565b820191906000526020600020905b81548152906001019060200180831161174d57829003601f168201915b505050505090806003018054600181600116156101000203166002900480601f0160208091040260200160405190810160405280929190818152602001828054600181600116156101000203166002900480156118085780601f106117dd57610100808354040283529160200191611808565b820191906000526020600020905b8154815290600101906020018083116117eb57829003601f168201915b5050505050908060040154908060050154908060060154908060070160009054906101000a900473ffffffffffffffffffffffffffffffffffffffff1690508a565b600061185461337d565b6001600084815260200190815260200160002060405180610140016040529081600082015481526020016001820160009054906101000a900473ffffffffffffffffffffffffffffffffffffffff1673ffffffffffffffffffffffffffffffffffffffff1673ffffffffffffffffffffffffffffffffffffffff1681526020016001820160149054906101000a900460ff161515151581526020016001820160159054906101000a900460ff16151515158152602001600282018054600181600116156101000203166002900480601f0160208091040260200160405190810160405280929190818152602001828054600181600116156101000203166002900480156119a25780601f10611977576101008083540402835291602001916119a2565b820191906000526020600020905b81548152906001019060200180831161198557829003601f168201915b50505050508152602001600382018054600181600116156101000203166002900480601f016020809104026020016040519081016040528092919081815260200182805460018160011615610100020316600290048015611a445780601f10611a1957610100808354040283529160200191611a44565b820191906000526020600020905b815481529060010190602001808311611a2757829003601f168201915b505050505081526020016004820154815260200160058201548152602001600682015481526020016007820160009054906101000a900473ffffffffffffffffffffffffffffffffffffffff1673ffffffffffffffffffffffffffffffffffffffff1673ffffffffffffffffffffffffffffffffffffffff1681525050905060008161010001511480611ad957506000600454145b15611ae8576000915050611bdb565b611bd7600454611bc9600260009054906101000a900473ffffffffffffffffffffffffffffffffffffffff1673ffffffffffffffffffffffffffffffffffffffff166370a08231306040518263ffffffff1660e01b8152600401808273ffffffffffffffffffffffffffffffffffffffff16815260200191505060206040518083038186803b158015611b7a57600080fd5b505afa158015611b8e573d6000803e3d6000fd5b505050506040513d6020811015611ba457600080fd5b810190808051906020019092919050505084610100015161305d90919063ffffffff16565b6130e390919063ffffffff16565b9150505b919050565b80600073ffffffffffffffffffffffffffffffffffffffff166001600083815260200190815260200160002060070160009054906101000a900473ffffffffffffffffffffffffffffffffffffffff1673ffffffffffffffffffffffffffffffffffffffff161415611c9d576040517f08c379a000000000000000000000000000000000000000000000000000000000815260040180806020018281038252602a81526020018061341e602a913960400191505060405180910390fd5b6000611ca98333612616565b905060008111611d21576040517f08c379a00000000000000000000000000000000000000000000000000000000081526004018080602001828103825260118152602001807f596f75722062616c616e6365206973203000000000000000000000000000000081525060200191505060405180910390fd5b6000600160008581526020019081526020016000206005015490506000611d478561184a565b90506000611d7083611d62848761305d90919063ffffffff16565b6130e390919063ffffffff16565b90506000611d7e8733612e8a565b9050600260009054906101000a900473ffffffffffffffffffffffffffffffffffffffff1673ffffffffffffffffffffffffffffffffffffffff1663a9059cbb33836040518363ffffffff1660e01b8152600401808373ffffffffffffffffffffffffffffffffffffffff16815260200182815260200192505050602060405180830381600087803b158015611e1357600080fd5b505af1158015611e27573d6000803e3d6000fd5b505050506040513d6020811015611e3d57600080fd5b8101908080519060200190929190505050506000611e8a6064611e7c605a611e6e868861312d90919063ffffffff16565b61305d90919063ffffffff16565b6130e390919063ffffffff16565b9050600260009054906101000a900473ffffffffffffffffffffffffffffffffffffffff1673ffffffffffffffffffffffffffffffffffffffff1663a9059cbb600160008b815260200190815260200160002060010160009054906101000a900473ffffffffffffffffffffffffffffffffffffffff16836040518363ffffffff1660e01b8152600401808373ffffffffffffffffffffffffffffffffffffffff16815260200182815260200192505050602060405180830381600087803b158015611f5557600080fd5b505af1158015611f69573d6000803e3d6000fd5b505050506040513d6020811015611f7f57600080fd5b8101908080519060200190929190505050506000600160008a815260200190815260200160002060080160003373ffffffffffffffffffffffffffffffffffffffff1673ffffffffffffffffffffffffffffffffffffffff168152602001908152602001600020600001819055506000600160008a815260200190815260200160002060080160003373ffffffffffffffffffffffffffffffffffffffff1673ffffffffffffffffffffffffffffffffffffffff1681526020019081526020016000206001018190555061207286600160008b81526020019081526020016000206005015461312d90919063ffffffff16565b600160008a8152602001908152602001600020600501819055506120b581600160008b815260200190815260200160002060040154612fd590919063ffffffff16565b600160008a8152602001908152602001600020600401819055506120f882600160008b81526020019081526020016000206006015461312d90919063ffffffff16565b600160008a81526020019081526020016000206006018190555061216482600560003373ffffffffffffffffffffffffffffffffffffffff1673ffffffffffffffffffffffffffffffffffffffff1681526020019081526020016000205461312d90919063ffffffff16565b600560003373ffffffffffffffffffffffffffffffffffffffff1673ffffffffffffffffffffffffffffffffffffffff168152602001908152602001600020819055506121bc8260045461312d90919063ffffffff16565b6004819055507f99e851f3e691e421e8cb75d61f7ecfa09423e645915271a1813ed6c148c2a0a933898484604051808573ffffffffffffffffffffffffffffffffffffffff16815260200184815260200183815260200182815260200194505050505060405180910390a15050505050505050565b612239612fa9565b73ffffffffffffffffffffffffffffffffffffffff1660008054906101000a900473ffffffffffffffffffffffffffffffffffffffff1673ffffffffffffffffffffffffffffffffffffffff16146122f9576040517f08c379a00000000000000000000000000000000000000000000000000000000081526004018080602001828103825260208152602001807f4f776e61626c653a2063616c6c6572206973206e6f7420746865206f776e657281525060200191505060405180910390fd5b600073ffffffffffffffffffffffffffffffffffffffff1660008054906101000a900473ffffffffffffffffffffffffffffffffffffffff1673ffffffffffffffffffffffffffffffffffffffff167f8be0079c531659141344cd1fd0a4f28419497f9722a3daafe3b4186f6b6457e060405160405180910390a360008060006101000a81548173ffffffffffffffffffffffffffffffffffffffff021916908373ffffffffffffffffffffffffffffffffffffffff160217905550565b6123bf612fa9565b73ffffffffffffffffffffffffffffffffffffffff1660008054906101000a900473ffffffffffffffffffffffffffffffffffffffff1673ffffffffffffffffffffffffffffffffffffffff161461247f576040517f08c379a00000000000000000000000000000000000000000000000000000000081526004018080602001828103825260208152602001807f4f776e61626c653a2063616c6c6572206973206e6f7420746865206f776e657281525060200191505060405180910390fd5b806001600084815260200190815260200160002060010160156101000a81548160ff0219169083151502179055505050565b60045481565b600082600073ffffffffffffffffffffffffffffffffffffffff166001600083815260200190815260200160002060070160009054906101000a900473ffffffffffffffffffffffffffffffffffffffff1673ffffffffffffffffffffffffffffffffffffffff161415612576576040517f08c379a000000000000000000000000000000000000000000000000000000000815260040180806020018281038252602a81526020018061341e602a913960400191505060405180910390fd5b600060016000868152602001908152602001600020600601549050600061259c86610ecf565b905060008114806125ad5750600082145b156125bc5784935050506125e6565b6125e1826125d3838861305d90919063ffffffff16565b6130e390919063ffffffff16565b935050505b5092915050565b60008060009054906101000a900473ffffffffffffffffffffffffffffffffffffffff16905090565b600082600073ffffffffffffffffffffffffffffffffffffffff166001600083815260200190815260200160002060070160009054906101000a900473ffffffffffffffffffffffffffffffffffffffff1673ffffffffffffffffffffffffffffffffffffffff1614156126d5576040517f08c379a000000000000000000000000000000000000000000000000000000000815260040180806020018281038252602a81526020018061341e602a913960400191505060405180910390fd5b6001600085815260200190815260200160002060080160008473ffffffffffffffffffffffffffffffffffffffff1673ffffffffffffffffffffffffffffffffffffffff1681526020019081526020016000206001015491505092915050565b60006127416003612fb1565b905090565b6000808251149050919050565b61275b61337d565b6001600084815260200190815260200160002060405180610140016040529081600082015481526020016001820160009054906101000a900473ffffffffffffffffffffffffffffffffffffffff1673ffffffffffffffffffffffffffffffffffffffff1673ffffffffffffffffffffffffffffffffffffffff1681526020016001820160149054906101000a900460ff161515151581526020016001820160159054906101000a900460ff16151515158152602001600282018054600181600116156101000203166002900480601f0160208091040260200160405190810160405280929190818152602001828054600181600116156101000203166002900480156128a95780601f1061287e576101008083540402835291602001916128a9565b820191906000526020600020905b81548152906001019060200180831161288c57829003601f168201915b50505050508152602001600382018054600181600116156101000203166002900480601f01602080910402602001604051908101604052809291908181526020018280546001816001161561010002031660029004801561294b5780601f106129205761010080835404028352916020019161294b565b820191906000526020600020905b81548152906001019060200180831161292e57829003601f168201915b505050505081526020016004820154815260200160058201548152602001600682015481526020016007820160009054906101000a900473ffffffffffffffffffffffffffffffffffffffff1673ffffffffffffffffffffffffffffffffffffffff1673ffffffffffffffffffffffffffffffffffffffff168152505090506129d26125ed565b73ffffffffffffffffffffffffffffffffffffffff163373ffffffffffffffffffffffffffffffffffffffff161480612a3b57503373ffffffffffffffffffffffffffffffffffffffff1681610120015173ffffffffffffffffffffffffffffffffffffffff16145b612a90576040517f08c379a000000000000000000000000000000000000000000000000000000000815260040180806020018281038252602981526020018061346e6029913960400191505060405180910390fd5b816001600085815260200190815260200160002060010160146101000a81548160ff021916908315150217905550505050565b612acb612fa9565b73ffffffffffffffffffffffffffffffffffffffff1660008054906101000a900473ffffffffffffffffffffffffffffffffffffffff1673ffffffffffffffffffffffffffffffffffffffff1614612b8b576040517f08c379a00000000000000000000000000000000000000000000000000000000081526004018080602001828103825260208152602001807f4f776e61626c653a2063616c6c6572206973206e6f7420746865206f776e657281525060200191505060405180910390fd5b600260149054906101000a900460ff1615612c0e576040517f08c379a00000000000000000000000000000000000000000000000000000000081526004018080602001828103825260138152602001807f446f6e436f696e20616c7265616479207365740000000000000000000000000081525060200191505060405180910390fd5b80600260006101000a81548173ffffffffffffffffffffffffffffffffffffffff021916908373ffffffffffffffffffffffffffffffffffffffff1602179055506001600260146101000a81548160ff02191690831515021790555050565b60038060000154905081565b60065481565b612c87612fa9565b73ffffffffffffffffffffffffffffffffffffffff1660008054906101000a900473ffffffffffffffffffffffffffffffffffffffff1673ffffffffffffffffffffffffffffffffffffffff1614612d47576040517f08c379a00000000000000000000000000000000000000000000000000000000081526004018080602001828103825260208152602001807f4f776e61626c653a2063616c6c6572206973206e6f7420746865206f776e657281525060200191505060405180910390fd5b600073ffffffffffffffffffffffffffffffffffffffff168173ffffffffffffffffffffffffffffffffffffffff161415612dcd576040517f08c379a00000000000000000000000000000000000000000000000000000000081526004018080602001828103825260268152602001806134486026913960400191505060405180910390fd5b8073ffffffffffffffffffffffffffffffffffffffff1660008054906101000a900473ffffffffffffffffffffffffffffffffffffffff1673ffffffffffffffffffffffffffffffffffffffff167f8be0079c531659141344cd1fd0a4f28419497f9722a3daafe3b4186f6b6457e060405160405180910390a3806000806101000a81548173ffffffffffffffffffffffffffffffffffffffff021916908373ffffffffffffffffffffffffffffffffffffffff16021790555050565b600082600073ffffffffffffffffffffffffffffffffffffffff166001600083815260200190815260200160002060070160009054906101000a900473ffffffffffffffffffffffffffffffffffffffff1673ffffffffffffffffffffffffffffffffffffffff161415612f49576040517f08c379a000000000000000000000000000000000000000000000000000000000815260040180806020018281038252602a81526020018061341e602a913960400191505060405180910390fd5b6001600085815260200190815260200160002060080160008473ffffffffffffffffffffffffffffffffffffffff1673ffffffffffffffffffffffffffffffffffffffff1681526020019081526020016000206000015491505092915050565b600033905090565b600081600001549050919050565b6001816000016000828254019250508190555050565b600080828401905083811015613053576040517f08c379a000000000000000000000000000000000000000000000000000000000815260040180806020018281038252601b8152602001807f536166654d6174683a206164646974696f6e206f766572666c6f77000000000081525060200191505060405180910390fd5b8091505092915050565b60008083141561307057600090506130dd565b600082840290508284828161308157fe5b04146130d8576040517f08c379a00000000000000000000000000000000000000000000000000000000081526004018080602001828103825260218152602001806134976021913960400191505060405180910390fd5b809150505b92915050565b600061312583836040518060400160405280601a81526020017f536166654d6174683a206469766973696f6e206279207a65726f000000000000815250613177565b905092915050565b600061316f83836040518060400160405280601e81526020017f536166654d6174683a207375627472616374696f6e206f766572666c6f77000081525061323d565b905092915050565b60008083118290613223576040517f08c379a00000000000000000000000000000000000000000000000000000000081526004018080602001828103825283818151815260200191508051906020019080838360005b838110156131e85780820151818401526020810190506131cd565b50505050905090810190601f1680156132155780820380516001836020036101000a031916815260200191505b509250505060405180910390fd5b50600083858161322f57fe5b049050809150509392505050565b60008383111582906132ea576040517f08c379a00000000000000000000000000000000000000000000000000000000081526004018080602001828103825283818151815260200191508051906020019080838360005b838110156132af578082015181840152602081019050613294565b50505050905090810190601f1680156132dc5780820380516001836020036101000a031916815260200191505b509250505060405180910390fd5b5060008385039050809150509392505050565b828054600181600116156101000203166002900490600052602060002090601f016020900481019282601f1061333e57805160ff191683800117855561336c565b8280016001018555821561336c579182015b8281111561336b578251825591602001919060010190613350565b5b5090506133799190613400565b5090565b60405180610140016040528060008152602001600073ffffffffffffffffffffffffffffffffffffffff1681526020016000151581526020016000151581526020016060815260200160608152602001600081526020016000815260200160008152602001600073ffffffffffffffffffffffffffffffffffffffff1681525090565b5b80821115613419576000816000905550600101613401565b509056fe4361757365207769746820636175736549642070726f766964656420646f6573206e6f742065786973744f776e61626c653a206e6577206f776e657220697320746865207a65726f2061646472657373596f7520646f206e6f7420686176652061636365737320746f20656469742074686973206361757365536166654d6174683a206d756c7469706c69636174696f6e206f766572666c6f77596f7520646f206e6f74206861766520746865206d696e696d756d20616d6f756e74206f6620444f4e20746f206372656174652061206361757365596f752068617665206e6f7420616c6c6f7765642074686520446f6e2046756e6420746f2077697468647261772074686520726571756573746564206f6620616d6f756e74206f6620444f4e4120726563697069656e742061646472657373206d7573742062652070726f7669646564a2646970667358221220007a5c28123bbd0c1599ccd76da6ba91eeefedf671c13477b6dbc0febfb2a66164736f6c634300060c0033"}}