{"compiler":"v0.8.7+commit.e28d00a7","opcodeHash":"0xaa21ca9693922a289fdbc12c7caed71bfc2321e9d28747b4cacb2a14c81dde06","metalessHash":"0xe9c74f53a17cb95a514dec65c5a3361b1f646af49da81389968df93ab9d17a9b","runtimeHash":"0xf4f9faef29fb6b6eb08fbc8a38888dd54dde31d7c7b535356d5dfecee304bc70","encodedMetadata":[{"ipfs":"/ipfs/QmSXW687Ha7TpJeqkjRtsYpFPZpxnh6H3VXL1VmFg3RWmV","solc":"0.8.7"}],"abi":[{"inputs":[{"internalType":"address","name":"initialRecipient","type":"address"},{"internalType":"uint256","name":"assetId","type":"uint256"},{"internalType":"uint256","name":"ticketCount","type":"uint256"},{"internalType":"uint256","name":"marketplaceCount","type":"uint256"}],"stateMutability":"nonpayable","type":"constructor"},{"anonymous":false,"inputs":[{"indexed":true,"internalType":"address","name":"owner","type":"address"},{"indexed":true,"internalType":"address","name":"approved","type":"address"},{"indexed":true,"internalType":"uint256","name":"tokenId","type":"uint256"}],"name":"Approval","type":"event"},{"anonymous":false,"inputs":[{"indexed":true,"internalType":"address","name":"owner","type":"address"},{"indexed":true,"internalType":"address","name":"operator","type":"address"},{"indexed":false,"internalType":"bool","name":"approved","type":"bool"}],"name":"ApprovalForAll","type":"event"},{"anonymous":false,"inputs":[{"indexed":true,"internalType":"address","name":"previousOwner","type":"address"},{"indexed":true,"internalType":"address","name":"newOwner","type":"address"}],"name":"OwnershipTransferred","type":"event"},{"anonymous":false,"inputs":[{"indexed":true,"internalType":"bytes32","name":"role","type":"bytes32"},{"indexed":true,"internalType":"bytes32","name":"previousAdminRole","type":"bytes32"},{"indexed":true,"internalType":"bytes32","name":"newAdminRole","type":"bytes32"}],"name":"RoleAdminChanged","type":"event"},{"anonymous":false,"inputs":[{"indexed":true,"internalType":"bytes32","name":"role","type":"bytes32"},{"indexed":true,"internalType":"address","name":"account","type":"address"},{"indexed":true,"internalType":"address","name":"sender","type":"address"}],"name":"RoleGranted","type":"event"},{"anonymous":false,"inputs":[{"indexed":true,"internalType":"bytes32","name":"role","type":"bytes32"},{"indexed":true,"internalType":"address","name":"account","type":"address"},{"indexed":true,"internalType":"address","name":"sender","type":"address"}],"name":"RoleRevoked","type":"event"},{"anonymous":false,"inputs":[{"indexed":false,"internalType":"uint256","name":"ticketId","type":"uint256"},{"indexed":false,"internalType":"uint256","name":"assetId","type":"uint256"},{"indexed":false,"internalType":"uint256","name":"typeId","type":"uint256"}],"name":"TicketMinted","type":"event"},{"anonymous":false,"inputs":[{"indexed":true,"internalType":"address","name":"from","type":"address"},{"indexed":true,"internalType":"address","name":"to","type":"address"},{"indexed":true,"internalType":"uint256","name":"tokenId","type":"uint256"}],"name":"Transfer","type":"event"},{"inputs":[],"name":"DEFAULT_ADMIN_ROLE","outputs":[{"internalType":"bytes32","name":"","type":"bytes32"}],"stateMutability":"view","type":"function"},{"inputs":[],"name":"TICKETCLERK_ROLE","outputs":[{"internalType":"bytes32","name":"","type":"bytes32"}],"stateMutability":"view","type":"function"},{"inputs":[{"internalType":"address","name":"to","type":"address"},{"internalType":"uint256","name":"tokenId","type":"uint256"}],"name":"approve","outputs":[],"stateMutability":"nonpayable","type":"function"},{"inputs":[{"internalType":"address","name":"owner","type":"address"}],"name":"balanceOf","outputs":[{"internalType":"uint256","name":"","type":"uint256"}],"stateMutability":"view","type":"function"},{"inputs":[{"internalType":"address","name":"recipient","type":"address"},{"internalType":"uint256","name":"assetId","type":"uint256"},{"internalType":"uint256","name":"typeId","type":"uint256"},{"internalType":"uint256","name":"ticketCount","type":"uint256"}],"name":"batchMintTickets","outputs":[],"stateMutability":"nonpayable","type":"function"},{"inputs":[{"internalType":"uint256","name":"tokenId","type":"uint256"}],"name":"getApproved","outputs":[{"internalType":"address","name":"","type":"address"}],"stateMutability":"view","type":"function"},{"inputs":[{"internalType":"bytes32","name":"role","type":"bytes32"}],"name":"getRoleAdmin","outputs":[{"internalType":"bytes32","name":"","type":"bytes32"}],"stateMutability":"view","type":"function"},{"inputs":[{"internalType":"uint256","name":"ticketId","type":"uint256"}],"name":"getTicketTypeId","outputs":[{"internalType":"uint256","name":"","type":"uint256"}],"stateMutability":"view","type":"function"},{"inputs":[{"internalType":"bytes32","name":"role","type":"bytes32"},{"internalType":"address","name":"account","type":"address"}],"name":"grantRole","outputs":[],"stateMutability":"nonpayable","type":"function"},{"inputs":[{"internalType":"bytes32","name":"role","type":"bytes32"},{"internalType":"address","name":"account","type":"address"}],"name":"hasRole","outputs":[{"internalType":"bool","name":"","type":"bool"}],"stateMutability":"view","type":"function"},{"inputs":[{"internalType":"address","name":"owner","type":"address"},{"internalType":"address","name":"operator","type":"address"}],"name":"isApprovedForAll","outputs":[{"internalType":"bool","name":"","type":"bool"}],"stateMutability":"view","type":"function"},{"inputs":[{"internalType":"address","name":"recipient","type":"address"},{"internalType":"uint256","name":"assetId","type":"uint256"},{"internalType":"uint256","name":"typeId","type":"uint256"}],"name":"issueTicket","outputs":[{"internalType":"uint256","name":"","type":"uint256"}],"stateMutability":"nonpayable","type":"function"},{"inputs":[],"name":"name","outputs":[{"internalType":"string","name":"","type":"string"}],"stateMutability":"view","type":"function"},{"inputs":[],"name":"owner","outputs":[{"internalType":"address","name":"","type":"address"}],"stateMutability":"view","type":"function"},{"inputs":[{"internalType":"uint256","name":"tokenId","type":"uint256"}],"name":"ownerOf","outputs":[{"internalType":"address","name":"","type":"address"}],"stateMutability":"view","type":"function"},{"inputs":[],"name":"renounceOwnership","outputs":[],"stateMutability":"nonpayable","type":"function"},{"inputs":[{"internalType":"bytes32","name":"role","type":"bytes32"},{"internalType":"address","name":"account","type":"address"}],"name":"renounceRole","outputs":[],"stateMutability":"nonpayable","type":"function"},{"inputs":[{"internalType":"bytes32","name":"role","type":"bytes32"},{"internalType":"address","name":"account","type":"address"}],"name":"revokeRole","outputs":[],"stateMutability":"nonpayable","type":"function"},{"inputs":[{"internalType":"address","name":"from","type":"address"},{"internalType":"address","name":"to","type":"address"},{"internalType":"uint256","name":"tokenId","type":"uint256"}],"name":"safeTransferFrom","outputs":[],"stateMutability":"nonpayable","type":"function"},{"inputs":[{"internalType":"address","name":"from","type":"address"},{"internalType":"address","name":"to","type":"address"},{"internalType":"uint256","name":"tokenId","type":"uint256"},{"internalType":"bytes","name":"_data","type":"bytes"}],"name":"safeTransferFrom","outputs":[],"stateMutability":"nonpayable","type":"function"},{"inputs":[{"internalType":"address","name":"operator","type":"address"},{"internalType":"bool","name":"approved","type":"bool"}],"name":"setApprovalForAll","outputs":[],"stateMutability":"nonpayable","type":"function"},{"inputs":[{"internalType":"string","name":"newBaseURI","type":"string"}],"name":"setBaseURI","outputs":[],"stateMutability":"nonpayable","type":"function"},{"inputs":[{"internalType":"bytes4","name":"interfaceId","type":"bytes4"}],"name":"supportsInterface","outputs":[{"internalType":"bool","name":"","type":"bool"}],"stateMutability":"view","type":"function"},{"inputs":[],"name":"symbol","outputs":[{"internalType":"string","name":"","type":"string"}],"stateMutability":"view","type":"function"},{"inputs":[{"internalType":"uint256","name":"","type":"uint256"}],"name":"ticketAssetId","outputs":[{"internalType":"uint256","name":"","type":"uint256"}],"stateMutability":"view","type":"function"},{"inputs":[{"internalType":"uint256","name":"","type":"uint256"}],"name":"ticketTypeId","outputs":[{"internalType":"uint256","name":"","type":"uint256"}],"stateMutability":"view","type":"function"},{"inputs":[{"internalType":"address","name":"_owner","type":"address"}],"name":"ticketsOfOwner","outputs":[{"internalType":"uint256[]","name":"","type":"uint256[]"}],"stateMutability":"view","type":"function"},{"inputs":[{"internalType":"uint256","name":"tokenId","type":"uint256"}],"name":"tokenURI","outputs":[{"internalType":"string","name":"","type":"string"}],"stateMutability":"view","type":"function"},{"inputs":[{"internalType":"address","name":"from","type":"address"},{"internalType":"address","name":"to","type":"address"},{"internalType":"uint256","name":"tokenId","type":"uint256"}],"name":"transferFrom","outputs":[],"stateMutability":"nonpayable","type":"function"},{"inputs":[{"internalType":"address","name":"newOwner","type":"address"}],"name":"transferOwnership","outputs":[],"stateMutability":"nonpayable","type":"function"}],"bytecode":{"object":"60c0604052601e60808190527f68747470733a2f2f6d657461646174612e63756e6569666f726d2e61692f000060a09081526200004091600b919062000779565b503480156200004e57600080fd5b5060405162002b4838038062002b4883398101604081905262000071916200081f565b604080518082018252600c81526b10dd5b995a599bdc9b53919560a21b60208083019182528351808501909452600384526221a72360e91b908401528151919291620000c09160009162000779565b508051620000d690600190602084019062000779565b505050620000f3620000ed620001e060201b60201c565b620001e4565b7f0b001d13caf659c698c34c6df55bb337a03fd1a2f9b5e5ba797caaf7ed33f92d60005260076020527fa36d8769cbab6f844e215fb9fb675c1d379e7e63efd920202fc99983a3e315a6546200014a903362000236565b620001767f0b001d13caf659c698c34c6df55bb337a03fd1a2f9b5e5ba797caaf7ed33f92d3362000246565b60015b828111620001a5576200018f8585600162000275565b50806200019c81620009e1565b91505062000179565b5060015b818111620001d557620001bf8585600262000275565b5080620001cc81620009e1565b915050620001a9565b505050505062000a41565b3390565b600680546001600160a01b038381166001600160a01b0319831681179093556040519116919082907f8be0079c531659141344cd1fd0a4f28419497f9722a3daafe3b4186f6b6457e090600090a35050565b6200024282826200031a565b5050565b600082815260076020526040902060010154620002648133620003be565b6200027083836200031a565b505050565b60006200028e60086200046460201b62000e6b1760201c565b6000620002a760086200046d60201b62000e741760201c565b9050620002b5858262000471565b6000818152600960209081526040808320879055600a82529182902085905581518381529081018690529081018490527f98e3b865be443d525120139ac6a4ad7bf406891236bb145ad9ec6ba80333a5b59060600160405180910390a1949350505050565b60008281526007602090815260408083206001600160a01b038516845290915290205460ff16620002425760008281526007602090815260408083206001600160a01b03851684529091529020805460ff191660011790556200037a3390565b6001600160a01b0316816001600160a01b0316837f2f8788117e7eff1d82e926ec794901d17c78024a50270940304540a733656f0d60405160405180910390a45050565b60008281526007602090815260408083206001600160a01b038516845290915290205460ff1662000242576200040a816001600160a01b03166014620005b960201b62000e781760201c565b6200042083602062000e78620005b9821b17811c565b604051602001620004339291906200086c565b60408051601f198184030181529082905262461bcd60e51b82526200045b91600401620008e5565b60405180910390fd5b80546001019055565b5490565b6001600160a01b038216620004c95760405162461bcd60e51b815260206004820181905260248201527f4552433732313a206d696e7420746f20746865207a65726f206164647265737360448201526064016200045b565b6000818152600260205260409020546001600160a01b031615620005305760405162461bcd60e51b815260206004820152601c60248201527f4552433732313a20746f6b656e20616c7265616479206d696e7465640000000060448201526064016200045b565b6001600160a01b03821660009081526003602052604081208054600192906200055b9084906200091a565b909155505060008181526002602052604080822080546001600160a01b0319166001600160a01b03861690811790915590518392907fddf252ad1be2c89b69c2b068fc378daa952ba7f163c4a11628f55a4df523b3ef908290a45050565b60606000620005ca83600262000935565b620005d79060026200091a565b6001600160401b03811115620005f157620005f162000a2b565b6040519080825280601f01601f1916602001820160405280156200061c576020820181803683370190505b509050600360fc1b816000815181106200063a576200063a62000a15565b60200101906001600160f81b031916908160001a905350600f60fb1b816001815181106200066c576200066c62000a15565b60200101906001600160f81b031916908160001a90535060006200069284600262000935565b6200069f9060016200091a565b90505b600181111562000721576f181899199a1a9b1b9c1cb0b131b232b360811b85600f1660108110620006d757620006d762000a15565b1a60f81b828281518110620006f057620006f062000a15565b60200101906001600160f81b031916908160001a90535060049490941c9362000719816200098a565b9050620006a2565b508315620007725760405162461bcd60e51b815260206004820181905260248201527f537472696e67733a20686578206c656e67746820696e73756666696369656e7460448201526064016200045b565b9392505050565b8280546200078790620009a4565b90600052602060002090601f016020900481019282620007ab5760008555620007f6565b82601f10620007c657805160ff1916838001178555620007f6565b82800160010185558215620007f6579182015b82811115620007f6578251825591602001919060010190620007d9565b506200080492915062000808565b5090565b5b8082111562000804576000815560010162000809565b600080600080608085870312156200083657600080fd5b84516001600160a01b03811681146200084e57600080fd5b60208601516040870151606090970151919890975090945092505050565b7f416363657373436f6e74726f6c3a206163636f756e7420000000000000000000815260008351620008a681601785016020880162000957565b7001034b99036b4b9b9b4b733903937b6329607d1b6017918401918201528351620008d981602884016020880162000957565b01602801949350505050565b60208152600082518060208401526200090681604085016020870162000957565b601f01601f19169190910160400192915050565b60008219821115620009305762000930620009ff565b500190565b6000816000190483118215151615620009525762000952620009ff565b500290565b60005b83811015620009745781810151838201526020016200095a565b8381111562000984576000848401525b50505050565b6000816200099c576200099c620009ff565b506000190190565b600181811c90821680620009b957607f821691505b60208210811415620009db57634e487b7160e01b600052602260045260246000fd5b50919050565b6000600019821415620009f857620009f8620009ff565b5060010190565b634e487b7160e01b600052601160045260246000fd5b634e487b7160e01b600052603260045260246000fd5b634e487b7160e01b600052604160045260246000fd5b6120f78062000a516000396000f3fe608060405234801561001057600080fd5b50600436106101da5760003560e01c806372d98ef311610104578063b88d4fde116100a2578063dbebe7fc11610071578063dbebe7fc14610441578063e250243a14610454578063e985e9c514610467578063f2fde38b146104a357600080fd5b8063b88d4fde146103e8578063c87b56dd146103fb578063cd4faf831461040e578063d547741f1461042e57600080fd5b806395d89b41116100de57806395d89b41146103a5578063972b09f0146103ad578063a217fddf146103cd578063a22cb465146103d557600080fd5b806372d98ef3146103615780638da5cb5b1461038157806391d148541461039257600080fd5b806336568abe1161017c578063564595521161014b578063564595521461030c5780636352211e1461033357806370a0823114610346578063715018a61461035957600080fd5b806336568abe146102b35780633cc7a0ca146102c657806342842e0e146102e657806355f804b3146102f957600080fd5b8063095ea7b3116101b8578063095ea7b31461024757806323b872dd1461025c578063248a9ca31461026f5780632f2ff15d146102a057600080fd5b806301ffc9a7146101df57806306fdde0314610207578063081812fc1461021c575b600080fd5b6101f26101ed366004611c8b565b6104b6565b60405190151581526020015b60405180910390f35b61020f6104c7565b6040516101fe9190611e5f565b61022f61022a366004611c4f565b610559565b6040516001600160a01b0390911681526020016101fe565b61025a610255366004611bb9565b6105f3565b005b61025a61026a366004611ac5565b610709565b61029261027d366004611c4f565b60009081526007602052604090206001015490565b6040519081526020016101fe565b61025a6102ae366004611c68565b61073a565b61025a6102c1366004611c68565b610760565b6102926102d4366004611c4f565b60096020526000908152604090205481565b61025a6102f4366004611ac5565b6107de565b61025a610307366004611cc5565b6107f9565b6102927f0b001d13caf659c698c34c6df55bb337a03fd1a2f9b5e5ba797caaf7ed33f92d81565b61022f610341366004611c4f565b610836565b610292610354366004611a77565b6108ad565b61025a610934565b61029261036f366004611c4f565b6000908152600a602052604090205490565b6006546001600160a01b031661022f565b6101f26103a0366004611c68565b61096a565b61020f610995565b6102926103bb366004611c4f565b600a6020526000908152604090205481565b610292600081565b61025a6103e3366004611b7d565b6109a4565b61025a6103f6366004611b01565b610a69565b61020f610409366004611c4f565b610aa1565b61042161041c366004611a77565b610b7c565b6040516101fe9190611e1b565b61025a61043c366004611c68565b610c77565b61025a61044f366004611c16565b610c9d565b610292610462366004611be3565b610d42565b6101f2610475366004611a92565b6001600160a01b03918216600090815260056020908152604080832093909416825291909152205460ff1690565b61025a6104b1366004611a77565b610dd0565b60006104c182611014565b92915050565b6060600080546104d690611fef565b80601f016020809104026020016040519081016040528092919081815260200182805461050290611fef565b801561054f5780601f106105245761010080835404028352916020019161054f565b820191906000526020600020905b81548152906001019060200180831161053257829003601f168201915b5050505050905090565b6000818152600260205260408120546001600160a01b03166105d75760405162461bcd60e51b815260206004820152602c60248201527f4552433732313a20617070726f76656420717565727920666f72206e6f6e657860448201526b34b9ba32b73a103a37b5b2b760a11b60648201526084015b60405180910390fd5b506000908152600460205260409020546001600160a01b031690565b60006105fe82610836565b9050806001600160a01b0316836001600160a01b0316141561066c5760405162461bcd60e51b815260206004820152602160248201527f4552433732313a20617070726f76616c20746f2063757272656e74206f776e656044820152603960f91b60648201526084016105ce565b336001600160a01b038216148061068857506106888133610475565b6106fa5760405162461bcd60e51b815260206004820152603860248201527f4552433732313a20617070726f76652063616c6c6572206973206e6f74206f7760448201527f6e6572206e6f7220617070726f76656420666f7220616c6c000000000000000060648201526084016105ce565b6107048383611039565b505050565b61071333826110a7565b61072f5760405162461bcd60e51b81526004016105ce90611ef9565b61070483838361119e565b600082815260076020526040902060010154610756813361133e565b61070483836113a2565b6001600160a01b03811633146107d05760405162461bcd60e51b815260206004820152602f60248201527f416363657373436f6e74726f6c3a2063616e206f6e6c792072656e6f756e636560448201526e103937b632b9903337b91039b2b63360891b60648201526084016105ce565b6107da8282611428565b5050565b61070483838360405180602001604052806000815250610a69565b6006546001600160a01b031633146108235760405162461bcd60e51b81526004016105ce90611ec4565b80516107da90600b90602084019061194c565b6000818152600260205260408120546001600160a01b0316806104c15760405162461bcd60e51b815260206004820152602960248201527f4552433732313a206f776e657220717565727920666f72206e6f6e657869737460448201526832b73a103a37b5b2b760b91b60648201526084016105ce565b60006001600160a01b0382166109185760405162461bcd60e51b815260206004820152602a60248201527f4552433732313a2062616c616e636520717565727920666f7220746865207a65604482015269726f206164647265737360b01b60648201526084016105ce565b506001600160a01b031660009081526003602052604090205490565b6006546001600160a01b0316331461095e5760405162461bcd60e51b81526004016105ce90611ec4565b610968600061148f565b565b60009182526007602090815260408084206001600160a01b0393909316845291905290205460ff1690565b6060600180546104d690611fef565b6001600160a01b0382163314156109fd5760405162461bcd60e51b815260206004820152601960248201527f4552433732313a20617070726f766520746f2063616c6c65720000000000000060448201526064016105ce565b3360008181526005602090815260408083206001600160a01b03871680855290835292819020805460ff191686151590811790915590519081529192917f17307eab39ab6107e8899845ad3d59bd9653f200f220920489ca2b5937696c31910160405180910390a35050565b610a7333836110a7565b610a8f5760405162461bcd60e51b81526004016105ce90611ef9565b610a9b848484846114e1565b50505050565b6000818152600260205260409020546060906001600160a01b0316610b205760405162461bcd60e51b815260206004820152602f60248201527f4552433732314d657461646174613a2055524920717565727920666f72206e6f60448201526e3732bc34b9ba32b73a103a37b5b2b760891b60648201526084016105ce565b6000610b2a611514565b90506000815111610b4a5760405180602001604052806000815250610b75565b80610b5484611523565b604051602001610b65929190611d3a565b6040516020818303038152906040525b9392505050565b60606000610b89836108ad565b905080610ba6575050604080516000815260208101909152919050565b60008167ffffffffffffffff811115610bc157610bc1612095565b604051908082528060200260200182016040528015610bea578160200160208202803683370190505b5090506000610bf860085490565b9050600060015b828111610c6657866001600160a01b0316610c1982610836565b6001600160a01b03161415610c545780848381518110610c3b57610c3b61207f565b602090810291909101015281610c5081612024565b9250505b80610c5e81612024565b915050610bff565b509195945050505050565b50919050565b600082815260076020526040902060010154610c93813361133e565b6107048383611428565b610cc77f0b001d13caf659c698c34c6df55bb337a03fd1a2f9b5e5ba797caaf7ed33f92d3361096a565b610d135760405162461bcd60e51b815260206004820152601c60248201527f43616c6c6572206973206e6f742061207469636b657420636c65726b0000000060448201526064016105ce565b60015b818111610d3b57610d28858585611621565b5080610d3381612024565b915050610d16565b5050505050565b6000610d6e7f0b001d13caf659c698c34c6df55bb337a03fd1a2f9b5e5ba797caaf7ed33f92d3361096a565b610dba5760405162461bcd60e51b815260206004820152601c60248201527f43616c6c6572206973206e6f742061207469636b657420636c65726b0000000060448201526064016105ce565b6000610dc7858585611621565b95945050505050565b6006546001600160a01b03163314610dfa5760405162461bcd60e51b81526004016105ce90611ec4565b6001600160a01b038116610e5f5760405162461bcd60e51b815260206004820152602660248201527f4f776e61626c653a206e6577206f776e657220697320746865207a65726f206160448201526564647265737360d01b60648201526084016105ce565b610e688161148f565b50565b80546001019055565b5490565b60606000610e87836002611f76565b610e92906002611f4a565b67ffffffffffffffff811115610eaa57610eaa612095565b6040519080825280601f01601f191660200182016040528015610ed4576020820181803683370190505b509050600360fc1b81600081518110610eef57610eef61207f565b60200101906001600160f81b031916908160001a905350600f60fb1b81600181518110610f1e57610f1e61207f565b60200101906001600160f81b031916908160001a9053506000610f42846002611f76565b610f4d906001611f4a565b90505b6001811115610fc5576f181899199a1a9b1b9c1cb0b131b232b360811b85600f1660108110610f8157610f8161207f565b1a60f81b828281518110610f9757610f9761207f565b60200101906001600160f81b031916908160001a90535060049490941c93610fbe81611fd8565b9050610f50565b508315610b755760405162461bcd60e51b815260206004820181905260248201527f537472696e67733a20686578206c656e67746820696e73756666696369656e7460448201526064016105ce565b60006001600160e01b03198216637965db0b60e01b14806104c157506104c1826116ad565b600081815260046020526040902080546001600160a01b0319166001600160a01b038416908117909155819061106e82610836565b6001600160a01b03167f8c5be1e5ebec7d5bd14f71427d1e84f3dd0314c0f7b2291e5b200ac8c7c3b92560405160405180910390a45050565b6000818152600260205260408120546001600160a01b03166111205760405162461bcd60e51b815260206004820152602c60248201527f4552433732313a206f70657261746f7220717565727920666f72206e6f6e657860448201526b34b9ba32b73a103a37b5b2b760a11b60648201526084016105ce565b600061112b83610836565b9050806001600160a01b0316846001600160a01b031614806111665750836001600160a01b031661115b84610559565b6001600160a01b0316145b8061119657506001600160a01b0380821660009081526005602090815260408083209388168352929052205460ff165b949350505050565b826001600160a01b03166111b182610836565b6001600160a01b0316146112195760405162461bcd60e51b815260206004820152602960248201527f4552433732313a207472616e73666572206f6620746f6b656e2074686174206960448201526839903737ba1037bbb760b91b60648201526084016105ce565b6001600160a01b03821661127b5760405162461bcd60e51b8152602060048201526024808201527f4552433732313a207472616e7366657220746f20746865207a65726f206164646044820152637265737360e01b60648201526084016105ce565b611286600082611039565b6001600160a01b03831660009081526003602052604081208054600192906112af908490611f95565b90915550506001600160a01b03821660009081526003602052604081208054600192906112dd908490611f4a565b909155505060008181526002602052604080822080546001600160a01b0319166001600160a01b0386811691821790925591518493918716917fddf252ad1be2c89b69c2b068fc378daa952ba7f163c4a11628f55a4df523b3ef91a4505050565b611348828261096a565b6107da57611360816001600160a01b03166014610e78565b61136b836020610e78565b60405160200161137c929190611d69565b60408051601f198184030181529082905262461bcd60e51b82526105ce91600401611e5f565b6113ac828261096a565b6107da5760008281526007602090815260408083206001600160a01b03851684529091529020805460ff191660011790556113e43390565b6001600160a01b0316816001600160a01b0316837f2f8788117e7eff1d82e926ec794901d17c78024a50270940304540a733656f0d60405160405180910390a45050565b611432828261096a565b156107da5760008281526007602090815260408083206001600160a01b0385168085529252808320805460ff1916905551339285917ff6391f5c32d9c69d2a47ea670b442974b53935d1edc7fd64eb21e047a839171b9190a45050565b600680546001600160a01b038381166001600160a01b0319831681179093556040519116919082907f8be0079c531659141344cd1fd0a4f28419497f9722a3daafe3b4186f6b6457e090600090a35050565b6114ec84848461119e565b6114f8848484846116fd565b610a9b5760405162461bcd60e51b81526004016105ce90611e72565b6060600b80546104d690611fef565b6060816115475750506040805180820190915260018152600360fc1b602082015290565b8160005b8115611571578061155b81612024565b915061156a9050600a83611f62565b915061154b565b60008167ffffffffffffffff81111561158c5761158c612095565b6040519080825280601f01601f1916602001820160405280156115b6576020820181803683370190505b5090505b8415611196576115cb600183611f95565b91506115d8600a8661203f565b6115e3906030611f4a565b60f81b8183815181106115f8576115f861207f565b60200101906001600160f81b031916908160001a90535061161a600a86611f62565b94506115ba565b6000611631600880546001019055565b600061163c60085490565b9050611648858261180a565b6000818152600960209081526040808320879055600a82529182902085905581518381529081018690529081018490527f98e3b865be443d525120139ac6a4ad7bf406891236bb145ad9ec6ba80333a5b59060600160405180910390a1949350505050565b60006001600160e01b031982166380ac58cd60e01b14806116de57506001600160e01b03198216635b5e139f60e01b145b806104c157506301ffc9a760e01b6001600160e01b03198316146104c1565b60006001600160a01b0384163b156117ff57604051630a85bd0160e11b81526001600160a01b0385169063150b7a0290611741903390899088908890600401611dde565b602060405180830381600087803b15801561175b57600080fd5b505af192505050801561178b575060408051601f3d908101601f1916820190925261178891810190611ca8565b60015b6117e5573d8080156117b9576040519150601f19603f3d011682016040523d82523d6000602084013e6117be565b606091505b5080516117dd5760405162461bcd60e51b81526004016105ce90611e72565b805181602001fd5b6001600160e01b031916630a85bd0160e11b149050611196565b506001949350505050565b6001600160a01b0382166118605760405162461bcd60e51b815260206004820181905260248201527f4552433732313a206d696e7420746f20746865207a65726f206164647265737360448201526064016105ce565b6000818152600260205260409020546001600160a01b0316156118c55760405162461bcd60e51b815260206004820152601c60248201527f4552433732313a20746f6b656e20616c7265616479206d696e7465640000000060448201526064016105ce565b6001600160a01b03821660009081526003602052604081208054600192906118ee908490611f4a565b909155505060008181526002602052604080822080546001600160a01b0319166001600160a01b03861690811790915590518392907fddf252ad1be2c89b69c2b068fc378daa952ba7f163c4a11628f55a4df523b3ef908290a45050565b82805461195890611fef565b90600052602060002090601f01602090048101928261197a57600085556119c0565b82601f1061199357805160ff19168380011785556119c0565b828001600101855582156119c0579182015b828111156119c05782518255916020019190600101906119a5565b506119cc9291506119d0565b5090565b5b808211156119cc57600081556001016119d1565b600067ffffffffffffffff80841115611a0057611a00612095565b604051601f8501601f19908116603f01168101908282118183101715611a2857611a28612095565b81604052809350858152868686011115611a4157600080fd5b858560208301376000602087830101525050509392505050565b80356001600160a01b0381168114611a7257600080fd5b919050565b600060208284031215611a8957600080fd5b610b7582611a5b565b60008060408385031215611aa557600080fd5b611aae83611a5b565b9150611abc60208401611a5b565b90509250929050565b600080600060608486031215611ada57600080fd5b611ae384611a5b565b9250611af160208501611a5b565b9150604084013590509250925092565b60008060008060808587031215611b1757600080fd5b611b2085611a5b565b9350611b2e60208601611a5b565b925060408501359150606085013567ffffffffffffffff811115611b5157600080fd5b8501601f81018713611b6257600080fd5b611b71878235602084016119e5565b91505092959194509250565b60008060408385031215611b9057600080fd5b611b9983611a5b565b915060208301358015158114611bae57600080fd5b809150509250929050565b60008060408385031215611bcc57600080fd5b611bd583611a5b565b946020939093013593505050565b600080600060608486031215611bf857600080fd5b611c0184611a5b565b95602085013595506040909401359392505050565b60008060008060808587031215611c2c57600080fd5b611c3585611a5b565b966020860135965060408601359560600135945092505050565b600060208284031215611c6157600080fd5b5035919050565b60008060408385031215611c7b57600080fd5b82359150611abc60208401611a5b565b600060208284031215611c9d57600080fd5b8135610b75816120ab565b600060208284031215611cba57600080fd5b8151610b75816120ab565b600060208284031215611cd757600080fd5b813567ffffffffffffffff811115611cee57600080fd5b8201601f81018413611cff57600080fd5b611196848235602084016119e5565b60008151808452611d26816020860160208601611fac565b601f01601f19169290920160200192915050565b60008351611d4c818460208801611fac565b835190830190611d60818360208801611fac565b01949350505050565b7f416363657373436f6e74726f6c3a206163636f756e7420000000000000000000815260008351611da1816017850160208801611fac565b7001034b99036b4b9b9b4b733903937b6329607d1b6017918401918201528351611dd2816028840160208801611fac565b01602801949350505050565b6001600160a01b0385811682528416602082015260408101839052608060608201819052600090611e1190830184611d0e565b9695505050505050565b6020808252825182820181905260009190848201906040850190845b81811015611e5357835183529284019291840191600101611e37565b50909695505050505050565b602081526000610b756020830184611d0e565b60208082526032908201527f4552433732313a207472616e7366657220746f206e6f6e20455243373231526560408201527131b2b4bb32b91034b6b83632b6b2b73a32b960711b606082015260800190565b6020808252818101527f4f776e61626c653a2063616c6c6572206973206e6f7420746865206f776e6572604082015260600190565b60208082526031908201527f4552433732313a207472616e736665722063616c6c6572206973206e6f74206f6040820152701ddb995c881b9bdc88185c1c1c9bdd9959607a1b606082015260800190565b60008219821115611f5d57611f5d612053565b500190565b600082611f7157611f71612069565b500490565b6000816000190483118215151615611f9057611f90612053565b500290565b600082821015611fa757611fa7612053565b500390565b60005b83811015611fc7578181015183820152602001611faf565b83811115610a9b5750506000910152565b600081611fe757611fe7612053565b506000190190565b600181811c9082168061200357607f821691505b60208210811415610c7157634e487b7160e01b600052602260045260246000fd5b600060001982141561203857612038612053565b5060010190565b60008261204e5761204e612069565b500690565b634e487b7160e01b600052601160045260246000fd5b634e487b7160e01b600052601260045260246000fd5b634e487b7160e01b600052603260045260246000fd5b634e487b7160e01b600052604160045260246000fd5b6001600160e01b031981168114610e6857600080fdfea26469706673582212203374635b59c1fe146d64a469539dceef381bffc2b3ea011e4ebbc56e6ff2ae1564736f6c63430008070033"}}