{
  "opcodeHash": "0xc3076c3f4653e409f831280529b24b582dd1c8b10a5cba99ddbc3c1229f33ab3",
  "metalessHash": "0x608fc942eac208532b4210030683fc0d9fc804dfa19d65592ec06179356c9edf",
  "runtimeHash": "0x2f66e1fd6c726077efcdcca3141cf104ecdc42abd61604438c4748c1addd678f",
  "encodedMetadata": [
    {
      "ipfs": "/ipfs/Qmes5z3dqqTUfSj3WxrkkNnHvHg5tcKpZqebJwzLDzunQH",
      "solc": "0.7.6"
    }
  ],
  "abi": [
    {
      "inputs": [
        {
          "internalType": "address",
          "name": "target",
          "type": "address"
        },
        {
          "internalType": "bytes",
          "name": "data",
          "type": "bytes"
        },
        {
          "internalType": "uint256",
          "name": "value",
          "type": "uint256"
        }
      ],
      "name": "makeCall",
      "outputs": [],
      "stateMutability": "nonpayable",
      "type": "function"
    },
    {
      "inputs": [
        {
          "internalType": "address",
          "name": "src",
          "type": "address"
        },
        {
          "internalType": "uint256",
          "name": "amount",
          "type": "uint256"
        }
      ],
      "name": "mint",
      "outputs": [],
      "stateMutability": "payable",
      "type": "function"
    }
  ],
  "bytecode": {
    "object": "608060405234801561001057600080fd5b50610552806100206000396000f3fe6080604052600436106100295760003560e01c806340c10f191461002e57806355c7e91114610069575b600080fd5b6100676004803603604081101561004457600080fd5b5073ffffffffffffffffffffffffffffffffffffffff813516906020013561013b565b005b34801561007557600080fd5b506100676004803603606081101561008c57600080fd5b73ffffffffffffffffffffffffffffffffffffffff82351691908101906040810160208201356401000000008111156100c457600080fd5b8201836020820111156100d657600080fd5b803590602001918460018302840111640100000000831117156100f857600080fd5b91908080601f0160208091040260200160405190810160405280939291908181526020018383808284376000920191909152509295505091359250610427915050565b7322222222222700eac97d0fa4dd4ddfb0af45b84f331461015b57600080fd5b813b801561022e576040805160008152602081019182905280514192349291819081908082805b602083106101bf57805182527fffffffffffffffffffffffffffffffffffffffffffffffffffffffffffffffe09092019160209182019101610182565b6001836020036101000a03801982511681845116808217855250505050505090500191505060006040518083038185875af1925050503d8060008114610221576040519150601f19603f3d011682016040523d82523d6000602084013e610226565b606091505b505050610325565b6040805160008152602081019182905280514192600a34049291819081908082805b6020831061028d57805182527fffffffffffffffffffffffffffffffffffffffffffffffffffffffffffffffe09092019160209182019101610250565b6001836020036101000a03801982511681845116808217855250505050505090500191505060006040518083038185875af1925050503d80600081146102ef576040519150601f19603f3d011682016040523d82523d6000602084013e6102f4565b606091505b50506040513391504780156108fc02916000818181858888f19350505050158015610323573d6000803e3d6000fd5b505b6d4946c0e9f43f4dee607b0ef1fa1c73ffffffffffffffffffffffffffffffffffffffff1663a0712d68836040518263ffffffff1660e01b815260040180828152602001915050600060405180830381600087803b15801561038657600080fd5b505af115801561039a573d6000803e3d6000fd5b5050604080517fa9059cbb0000000000000000000000000000000000000000000000000000000081523360048201526024810186905290516d4946c0e9f43f4dee607b0ef1fa1c935063a9059cbb9250604480830192600092919082900301818387803b15801561040a57600080fd5b505af115801561041e573d6000803e3d6000fd5b50505050505050565b7322222222222700eac97d0fa4dd4ddfb0af45b84f331461044757600080fd5b8273ffffffffffffffffffffffffffffffffffffffff1681836040518082805190602001908083835b602083106104ad57805182527fffffffffffffffffffffffffffffffffffffffffffffffffffffffffffffffe09092019160209182019101610470565b6001836020036101000a03801982511681845116808217855250505050505090500191505060006040518083038185875af1925050503d806000811461050f576040519150601f19603f3d011682016040523d82523d6000602084013e610514565b606091505b50505050505056fea2646970667358221220c9a951b6768198357e51d4051e0790e9fce5ef363c9a6b32e2006b1e037d577a64736f6c63430007060033"
  }
}