{
  "opcodeHash": "0x302be51de60a97e052c79720e68c48c5ffc7b257a759023d212197c4bb5e3152",
  "metalessHash": "0x8812d49e2b40b6388344c53e2eed13d95948de4e08bcd0dcc10c000c23b0042f",
  "runtimeHash": "0xbf9bf5d8a3a86c2c5734274f2166341bc66120f699394a81142a1eb98475dcf8",
  "encodedMetadata": [
    {
      "ipfs": "/ipfs/QmXE98hr8RcBrY3sPyzJNCT3DXVA4a2FyqbTCV28jiNp5z",
      "solc": "0.8.10"
    }
  ],
  "abi": [
    {
      "inputs": [
        {
          "internalType": "address payable",
          "name": "Ace",
          "type": "address"
        },
        {
          "internalType": "address payable",
          "name": "Spade",
          "type": "address"
        },
        {
          "internalType": "address payable",
          "name": "Russian",
          "type": "address"
        },
        {
          "internalType": "address payable",
          "name": "Cbear",
          "type": "address"
        },
        {
          "internalType": "address payable",
          "name": "Mktg",
          "type": "address"
        }
      ],
      "stateMutability": "nonpayable",
      "type": "constructor"
    },
    {
      "inputs": [],
      "name": "deal",
      "outputs": [],
      "stateMutability": "nonpayable",
      "type": "function"
    },
    {
      "inputs": [],
      "name": "withdrawETH",
      "outputs": [],
      "stateMutability": "nonpayable",
      "type": "function"
    },
    {
      "stateMutability": "payable",
      "type": "receive"
    }
  ],
  "bytecode": {
    "object": "6080604052600580546001600160a01b031916732008fbc22476fe372a8a449a832cea4e3b517b1c17905534801561003657600080fd5b506040516104c13803806104c1833981016040819052610055916100d3565b600080546001600160a01b03199081166001600160a01b03978816179091556001805482169587169590951790945560028054851693861693909317909255600380548416918516919091179055600480549092169216919091179055610138565b80516001600160a01b03811681146100ce57600080fd5b919050565b600080600080600060a086880312156100eb57600080fd5b6100f4866100b7565b9450610102602087016100b7565b9350610110604087016100b7565b925061011e606087016100b7565b915061012c608087016100b7565b90509295509295909350565b61037a806101476000396000f3fe60806040526004361061002d5760003560e01c8063553df02114610039578063e086e5ec1461005057600080fd5b3661003457005b600080fd5b34801561004557600080fd5b5061004e610065565b005b34801561005c57600080fd5b5061004e6100e1565b6001546001600160a01b031633148061008857506004546001600160a01b031633145b8061009d57506005546001600160a01b031633145b6100d75760405162461bcd60e51b81526020600482015260066024820152654c6f7365722160d01b60448201526064015b60405180910390fd5b6100df610155565b565b6001546001600160a01b031633146101245760405162461bcd60e51b81526020600482015260066024820152654c6f7365722160d01b60448201526064016100ce565b6001546040516001600160a01b03909116904780156108fc02916000818181858888f193505050506100df57600080fd5b4760006101636008836102f5565b905060006101726008846102f5565b61017d906004610317565b9050600061018c6010856102f5565b600080546040519293506001600160a01b03169183156108fc0291849190818181858888f193505050501580156101c7573d6000803e3d6000fd5b506001546040516001600160a01b039091169083156108fc029084906000818181858888f19350505050158015610202573d6000803e3d6000fd5b506002546040516001600160a01b039091169082156108fc029083906000818181858888f1935050505015801561023d573d6000803e3d6000fd5b506003546040516001600160a01b039091169084156108fc029085906000818181858888f19350505050158015610278573d6000803e3d6000fd5b506004546040516001600160a01b039091169084156108fc029085906000818181858888f193505050501580156102b3573d6000803e3d6000fd5b506005546040516001600160a01b039091169084156108fc029085906000818181858888f193505050501580156102ee573d6000803e3d6000fd5b5050505050565b60008261031257634e487b7160e01b600052601260045260246000fd5b500490565b600081600019048311821515161561033f57634e487b7160e01b600052601160045260246000fd5b50029056fea2646970667358221220ab9730bbec2a31b79223e7941fbcbacb5a45a56054811cc085bdd40a7ef22f3d64736f6c634300080a0033"
  }
}