{
  "opcodeHash": "0xdb5d8a043b6038a074bfe8d69063e5ff4fc6f22c0f3a78832ea2f2bc64f26afd",
  "metalessHash": "0xf489139c6b9b8687ee3e5f62addefcbde8791f588b07682e7c2fed395c4abc5d",
  "runtimeHash": "0xab2691895c35bcc0eed5c54ac4125e15b83c4219d299aa19721ce709ed93c8fc",
  "encodedMetadata": [
    {
      "ipfs": "/ipfs/QmPRQX2SUHaii5nzDbLu5eN3AbPtY1xZdKfJ7kMZCbtd4r",
      "solc": "0.6.12"
    }
  ],
  "abi": [
    {
      "anonymous": false,
      "inputs": [
        {
          "indexed": false,
          "internalType": "uint256",
          "name": "baseRatePerBlock",
          "type": "uint256"
        },
        {
          "indexed": false,
          "internalType": "uint256",
          "name": "multiplierPerBlock",
          "type": "uint256"
        },
        {
          "indexed": false,
          "internalType": "uint256",
          "name": "jumpMultiplierPerBlock",
          "type": "uint256"
        },
        {
          "indexed": false,
          "internalType": "uint256",
          "name": "kink",
          "type": "uint256"
        }
      ],
      "name": "NewInterestParams",
      "type": "event"
    },
    {
      "anonymous": false,
      "inputs": [
        {
          "indexed": true,
          "internalType": "address",
          "name": "previousOwner",
          "type": "address"
        },
        {
          "indexed": true,
          "internalType": "address",
          "name": "newOwner",
          "type": "address"
        }
      ],
      "name": "OwnershipTransferred",
      "type": "event"
    },
    {
      "inputs": [],
      "name": "baseRatePerBlock",
      "outputs": [
        {
          "internalType": "uint256",
          "name": "",
          "type": "uint256"
        }
      ],
      "stateMutability": "view",
      "type": "function"
    },
    {
      "inputs": [],
      "name": "blocksPerYear",
      "outputs": [
        {
          "internalType": "uint256",
          "name": "",
          "type": "uint256"
        }
      ],
      "stateMutability": "view",
      "type": "function"
    },
    {
      "inputs": [
        {
          "internalType": "uint256",
          "name": "cash",
          "type": "uint256"
        },
        {
          "internalType": "uint256",
          "name": "borrows",
          "type": "uint256"
        },
        {
          "internalType": "uint256",
          "name": "reserves",
          "type": "uint256"
        }
      ],
      "name": "getBorrowRate",
      "outputs": [
        {
          "internalType": "uint256",
          "name": "",
          "type": "uint256"
        }
      ],
      "stateMutability": "view",
      "type": "function"
    },
    {
      "inputs": [
        {
          "internalType": "uint256",
          "name": "cash",
          "type": "uint256"
        },
        {
          "internalType": "uint256",
          "name": "borrows",
          "type": "uint256"
        },
        {
          "internalType": "uint256",
          "name": "reserves",
          "type": "uint256"
        },
        {
          "internalType": "uint256",
          "name": "reserveFactorMantissa",
          "type": "uint256"
        }
      ],
      "name": "getSupplyRate",
      "outputs": [
        {
          "internalType": "uint256",
          "name": "",
          "type": "uint256"
        }
      ],
      "stateMutability": "view",
      "type": "function"
    },
    {
      "inputs": [
        {
          "internalType": "uint256",
          "name": "baseRatePerYear",
          "type": "uint256"
        },
        {
          "internalType": "uint256",
          "name": "multiplierPerYear",
          "type": "uint256"
        },
        {
          "internalType": "uint256",
          "name": "jumpMultiplierPerYear",
          "type": "uint256"
        },
        {
          "internalType": "uint256",
          "name": "kink_",
          "type": "uint256"
        }
      ],
      "name": "initialize",
      "outputs": [],
      "stateMutability": "nonpayable",
      "type": "function"
    },
    {
      "inputs": [],
      "name": "jumpMultiplierPerBlock",
      "outputs": [
        {
          "internalType": "uint256",
          "name": "",
          "type": "uint256"
        }
      ],
      "stateMutability": "view",
      "type": "function"
    },
    {
      "inputs": [],
      "name": "kink",
      "outputs": [
        {
          "internalType": "uint256",
          "name": "",
          "type": "uint256"
        }
      ],
      "stateMutability": "view",
      "type": "function"
    },
    {
      "inputs": [],
      "name": "multiplierPerBlock",
      "outputs": [
        {
          "internalType": "uint256",
          "name": "",
          "type": "uint256"
        }
      ],
      "stateMutability": "view",
      "type": "function"
    },
    {
      "inputs": [],
      "name": "owner",
      "outputs": [
        {
          "internalType": "address",
          "name": "",
          "type": "address"
        }
      ],
      "stateMutability": "view",
      "type": "function"
    },
    {
      "inputs": [],
      "name": "renounceOwnership",
      "outputs": [],
      "stateMutability": "nonpayable",
      "type": "function"
    },
    {
      "inputs": [
        {
          "internalType": "address",
          "name": "newOwner",
          "type": "address"
        }
      ],
      "name": "transferOwnership",
      "outputs": [],
      "stateMutability": "nonpayable",
      "type": "function"
    },
    {
      "inputs": [
        {
          "internalType": "uint256",
          "name": "baseRatePerYear",
          "type": "uint256"
        },
        {
          "internalType": "uint256",
          "name": "multiplierPerYear",
          "type": "uint256"
        },
        {
          "internalType": "uint256",
          "name": "jumpMultiplierPerYear",
          "type": "uint256"
        },
        {
          "internalType": "uint256",
          "name": "kink_",
          "type": "uint256"
        }
      ],
      "name": "updateJumpRateModel",
      "outputs": [],
      "stateMutability": "nonpayable",
      "type": "function"
    },
    {
      "inputs": [
        {
          "internalType": "uint256",
          "name": "cash",
          "type": "uint256"
        },
        {
          "internalType": "uint256",
          "name": "borrows",
          "type": "uint256"
        },
        {
          "internalType": "uint256",
          "name": "reserves",
          "type": "uint256"
        }
      ],
      "name": "utilizationRate",
      "outputs": [
        {
          "internalType": "uint256",
          "name": "",
          "type": "uint256"
        }
      ],
      "stateMutability": "pure",
      "type": "function"
    }
  ],
  "bytecode": {
    "object": "608060405234801561001057600080fd5b50610c7a806100206000396000f3fe608060405234801561001057600080fd5b50600436106100af5760003560e01c806315f24053146100b45780632037f3e7146100ef57806360a2da44146101205780636e71e2d81461014f578063715018a6146101785780638726bb89146101805780638da5cb5b14610188578063a385fb96146101ac578063b8168816146101b4578063b9f9850a146101e3578063f14039de146101eb578063f2fde38b146101f3578063fd2da33914610219575b600080fd5b6100dd600480360360608110156100ca57600080fd5b5080359060208101359060400135610221565b60408051918252519081900360200190f35b61011e6004803603608081101561010557600080fd5b5080359060208101359060408101359060600135610238565b005b61011e6004803603608081101561013657600080fd5b508035906020810135906040810135906060013561024a565b6100dd6004803603606081101561016557600080fd5b5080359060208101359060400135610304565b61011e610342565b6100dd6103d2565b6101906103d8565b604080516001600160a01b039092168252519081900360200190f35b6100dd6103e7565b6100dd600480360360808110156101ca57600080fd5b50803590602081013590604081013590606001356103ee565b6100dd610405565b6100dd61040b565b61011e6004803603602081101561020957600080fd5b50356001600160a01b0316610411565b6100dd6104f8565b600061022e8484846104fe565b90505b9392505050565b610244848484846105c1565b50505050565b600054610100900460ff168061026357506102636106a8565b80610271575060005460ff16155b6102ac5760405162461bcd60e51b815260040180806020018281038252602e815260200180610c17602e913960400191505060405180910390fd5b600054610100900460ff161580156102d7576000805460ff1961ff0019909116610100171660011790555b6102df6106ae565b6102eb858585856105c1565b80156102fd576000805461ff00191690555b5050505050565b60008261031357506000610231565b61022e61032a836103248787610760565b906107c1565b61033c85670de0b6b3a7640000610803565b9061085c565b61034a61089b565b6065546001600160a01b0390811691161461039a576040805162461bcd60e51b81526020600482018190526024820152600080516020610bd7833981519152604482015290519081900360640190fd5b6065546040516000916001600160a01b031690600080516020610bf7833981519152908390a3606580546001600160a01b0319169055565b60975481565b6065546001600160a01b031690565b6220148081565b60006103fc8585858561089f565b95945050505050565b60995481565b60985481565b61041961089b565b6065546001600160a01b03908116911614610469576040805162461bcd60e51b81526020600482018190526024820152600080516020610bd7833981519152604482015290519081900360640190fd5b6001600160a01b0381166104ae5760405162461bcd60e51b8152600401808060200182810382526026815260200180610b906026913960400191505060405180910390fd5b6065546040516001600160a01b03808416921690600080516020610bf783398151915290600090a3606580546001600160a01b0319166001600160a01b0392909216919091179055565b609a5481565b60008061050c858585610304565b9050609a54811161054c5761054460985461053e670de0b6b3a764000061033c6097548661080390919063ffffffff16565b90610760565b915050610231565b600061057760985461053e670de0b6b3a764000061033c609754609a5461080390919063ffffffff16565b90506000610590609a54846107c190919063ffffffff16565b90506105b78261053e670de0b6b3a764000061033c6099548661080390919063ffffffff16565b9350505050610231565b6105c961089b565b6065546001600160a01b03908116911614610619576040805162461bcd60e51b81526020600482018190526024820152600080516020610bd7833981519152604482015290519081900360640190fd5b610626846220148061085c565b60985561063961032a6220148083610803565b609755610649826220148061085c565b6099819055609a829055609854609754604080519283526020830191909152818101929092526060810183905290517f6960ab234c7ef4b0c9197100f5393cfcde7c453ac910a27bd2000aa1dd4c068d9181900360800190a150505050565b303b1590565b600054610100900460ff16806106c757506106c76106a8565b806106d5575060005460ff16155b6107105760405162461bcd60e51b815260040180806020018281038252602e815260200180610c17602e913960400191505060405180910390fd5b600054610100900460ff1615801561073b576000805460ff1961ff0019909116610100171660011790555b61074361090c565b61074b6109ac565b801561075d576000805461ff00191690555b50565b6000828201838110156107b8576040805162461bcd60e51b815260206004820152601b60248201527a536166654d6174683a206164646974696f6e206f766572666c6f7760281b604482015290519081900360640190fd5b90505b92915050565b60006107b883836040518060400160405280601e81526020017f536166654d6174683a207375627472616374696f6e206f766572666c6f770000815250610a93565b600082610812575060006107bb565b8282028284828161081f57fe5b04146107b85760405162461bcd60e51b8152600401808060200182810382526021815260200180610bb66021913960400191505060405180910390fd5b60006107b883836040518060400160405280601a815260200179536166654d6174683a206469766973696f6e206279207a65726f60301b815250610b2a565b3390565b6000806108b4670de0b6b3a7640000846107c1565b905060006108c38787876104fe565b905060006108dd670de0b6b3a764000061033c8486610803565b9050610900670de0b6b3a764000061033c836108fa8c8c8c610304565b90610803565b98975050505050505050565b600054610100900460ff168061092557506109256106a8565b80610933575060005460ff16155b61096e5760405162461bcd60e51b815260040180806020018281038252602e815260200180610c17602e913960400191505060405180910390fd5b600054610100900460ff1615801561074b576000805460ff1961ff001990911661010017166001179055801561075d576000805461ff001916905550565b600054610100900460ff16806109c557506109c56106a8565b806109d3575060005460ff16155b610a0e5760405162461bcd60e51b815260040180806020018281038252602e815260200180610c17602e913960400191505060405180910390fd5b600054610100900460ff16158015610a39576000805460ff1961ff0019909116610100171660011790555b6000610a4361089b565b606580546001600160a01b0319166001600160a01b03831690811790915560405191925090600090600080516020610bf7833981519152908290a350801561075d576000805461ff001916905550565b60008184841115610b225760405162461bcd60e51b81526004018080602001828103825283818151815260200191508051906020019080838360005b83811015610ae7578181015183820152602001610acf565b50505050905090810190601f168015610b145780820380516001836020036101000a031916815260200191505b509250505060405180910390fd5b505050900390565b60008183610b795760405162461bcd60e51b8152602060048201818152835160248401528351909283926044909101919085019080838360008315610ae7578181015183820152602001610acf565b506000838581610b8557fe5b049594505050505056fe4f776e61626c653a206e6577206f776e657220697320746865207a65726f2061646472657373536166654d6174683a206d756c7469706c69636174696f6e206f766572666c6f774f776e61626c653a2063616c6c6572206973206e6f7420746865206f776e65728be0079c531659141344cd1fd0a4f28419497f9722a3daafe3b4186f6b6457e0436f6e747261637420696e7374616e63652068617320616c7265616479206265656e20696e697469616c697a6564a26469706673582212206822b08900569b426a8817d44ca489d32f3402f131ce00b99b8d1c5c7477ee1864736f6c634300060c0033"
  }
}