{
  "opcodeHash": "0x1d096310e95014e4dd54371c86bcd1f4a6c7f42d5737abdf92604c019bdfa3e9",
  "metalessHash": "0xf8cefaea8ec47256aae7438b804f3cfb66a57a693fc7343f99503d2479d713f7",
  "runtimeHash": "0xc712598df43640a812a360ae7f9580f54231a9dd4adb5c7262c9205450acb637",
  "encodedMetadata": [
    {
      "ipfs": "/ipfs/Qma6EHCrbu2Mw2pbQKAitcL4yc8UMkpKpcLQ3GKWivmpDX",
      "solc": "0.8.6"
    }
  ],
  "abi": [
    {
      "inputs": [
        {
          "internalType": "contract ERC20",
          "name": "_token",
          "type": "address"
        }
      ],
      "stateMutability": "nonpayable",
      "type": "constructor"
    },
    {
      "anonymous": false,
      "inputs": [
        {
          "indexed": true,
          "internalType": "address",
          "name": "previousOwner",
          "type": "address"
        },
        {
          "indexed": true,
          "internalType": "address",
          "name": "newOwner",
          "type": "address"
        }
      ],
      "name": "OwnershipTransferred",
      "type": "event"
    },
    {
      "anonymous": false,
      "inputs": [
        {
          "indexed": true,
          "internalType": "address",
          "name": "purchaser",
          "type": "address"
        },
        {
          "indexed": true,
          "internalType": "address",
          "name": "beneficiary",
          "type": "address"
        },
        {
          "indexed": false,
          "internalType": "uint256",
          "name": "value",
          "type": "uint256"
        },
        {
          "indexed": false,
          "internalType": "uint256",
          "name": "amount",
          "type": "uint256"
        }
      ],
      "name": "TokenPurchase",
      "type": "event"
    },
    {
      "anonymous": false,
      "inputs": [
        {
          "indexed": false,
          "internalType": "uint256",
          "name": "maxBuy",
          "type": "uint256"
        }
      ],
      "name": "newMax",
      "type": "event"
    },
    {
      "anonymous": false,
      "inputs": [
        {
          "indexed": false,
          "internalType": "uint256",
          "name": "minBuy",
          "type": "uint256"
        }
      ],
      "name": "newMin",
      "type": "event"
    },
    {
      "anonymous": false,
      "inputs": [
        {
          "indexed": false,
          "internalType": "uint256",
          "name": "rate",
          "type": "uint256"
        }
      ],
      "name": "newRate",
      "type": "event"
    },
    {
      "stateMutability": "payable",
      "type": "fallback"
    },
    {
      "inputs": [
        {
          "internalType": "bool",
          "name": "state",
          "type": "bool"
        }
      ],
      "name": "activeSale",
      "outputs": [],
      "stateMutability": "nonpayable",
      "type": "function"
    },
    {
      "inputs": [],
      "name": "actively",
      "outputs": [
        {
          "internalType": "bool",
          "name": "",
          "type": "bool"
        }
      ],
      "stateMutability": "view",
      "type": "function"
    },
    {
      "inputs": [
        {
          "internalType": "address",
          "name": "_beneficiary",
          "type": "address"
        }
      ],
      "name": "buyTokens",
      "outputs": [],
      "stateMutability": "payable",
      "type": "function"
    },
    {
      "inputs": [],
      "name": "getTime",
      "outputs": [
        {
          "internalType": "uint256",
          "name": "",
          "type": "uint256"
        }
      ],
      "stateMutability": "view",
      "type": "function"
    },
    {
      "inputs": [
        {
          "internalType": "address",
          "name": "_beneficiary",
          "type": "address"
        }
      ],
      "name": "getTokensBought",
      "outputs": [
        {
          "internalType": "uint256",
          "name": "",
          "type": "uint256"
        }
      ],
      "stateMutability": "view",
      "type": "function"
    },
    {
      "inputs": [],
      "name": "getUnlockTime",
      "outputs": [
        {
          "internalType": "uint256",
          "name": "",
          "type": "uint256"
        }
      ],
      "stateMutability": "view",
      "type": "function"
    },
    {
      "inputs": [
        {
          "internalType": "uint256",
          "name": "time",
          "type": "uint256"
        }
      ],
      "name": "lock",
      "outputs": [],
      "stateMutability": "nonpayable",
      "type": "function"
    },
    {
      "inputs": [],
      "name": "maxBuy",
      "outputs": [
        {
          "internalType": "uint256",
          "name": "",
          "type": "uint256"
        }
      ],
      "stateMutability": "view",
      "type": "function"
    },
    {
      "inputs": [],
      "name": "minBuy",
      "outputs": [
        {
          "internalType": "uint256",
          "name": "",
          "type": "uint256"
        }
      ],
      "stateMutability": "view",
      "type": "function"
    },
    {
      "inputs": [],
      "name": "owner",
      "outputs": [
        {
          "internalType": "address",
          "name": "",
          "type": "address"
        }
      ],
      "stateMutability": "view",
      "type": "function"
    },
    {
      "inputs": [],
      "name": "rate",
      "outputs": [
        {
          "internalType": "uint256",
          "name": "",
          "type": "uint256"
        }
      ],
      "stateMutability": "view",
      "type": "function"
    },
    {
      "inputs": [
        {
          "internalType": "address payable",
          "name": "to",
          "type": "address"
        },
        {
          "internalType": "uint256",
          "name": "amount",
          "type": "uint256"
        }
      ],
      "name": "removeETH",
      "outputs": [],
      "stateMutability": "nonpayable",
      "type": "function"
    },
    {
      "inputs": [
        {
          "internalType": "address payable",
          "name": "to",
          "type": "address"
        },
        {
          "internalType": "uint256",
          "name": "amount",
          "type": "uint256"
        }
      ],
      "name": "removeToken",
      "outputs": [],
      "stateMutability": "nonpayable",
      "type": "function"
    },
    {
      "inputs": [],
      "name": "renounceOwnership",
      "outputs": [],
      "stateMutability": "nonpayable",
      "type": "function"
    },
    {
      "inputs": [
        {
          "internalType": "uint256",
          "name": "_max",
          "type": "uint256"
        }
      ],
      "name": "setMax",
      "outputs": [],
      "stateMutability": "nonpayable",
      "type": "function"
    },
    {
      "inputs": [
        {
          "internalType": "uint256",
          "name": "_min",
          "type": "uint256"
        }
      ],
      "name": "setMin",
      "outputs": [],
      "stateMutability": "nonpayable",
      "type": "function"
    },
    {
      "inputs": [
        {
          "internalType": "uint256",
          "name": "_rate",
          "type": "uint256"
        }
      ],
      "name": "setRate",
      "outputs": [],
      "stateMutability": "nonpayable",
      "type": "function"
    },
    {
      "inputs": [
        {
          "internalType": "address",
          "name": "_wallet",
          "type": "address"
        }
      ],
      "name": "setWallet",
      "outputs": [],
      "stateMutability": "nonpayable",
      "type": "function"
    },
    {
      "inputs": [],
      "name": "token",
      "outputs": [
        {
          "internalType": "contract ERC20",
          "name": "",
          "type": "address"
        }
      ],
      "stateMutability": "view",
      "type": "function"
    },
    {
      "inputs": [],
      "name": "transactionCounter",
      "outputs": [
        {
          "internalType": "uint256",
          "name": "",
          "type": "uint256"
        }
      ],
      "stateMutability": "view",
      "type": "function"
    },
    {
      "inputs": [
        {
          "internalType": "address",
          "name": "newOwner",
          "type": "address"
        }
      ],
      "name": "transferOwnership",
      "outputs": [],
      "stateMutability": "nonpayable",
      "type": "function"
    },
    {
      "inputs": [],
      "name": "unlock",
      "outputs": [],
      "stateMutability": "nonpayable",
      "type": "function"
    },
    {
      "inputs": [],
      "name": "wallet",
      "outputs": [
        {
          "internalType": "address",
          "name": "",
          "type": "address"
        }
      ],
      "stateMutability": "view",
      "type": "function"
    },
    {
      "inputs": [],
      "name": "weiRaised",
      "outputs": [
        {
          "internalType": "uint256",
          "name": "",
          "type": "uint256"
        }
      ],
      "stateMutability": "view",
      "type": "function"
    },
    {
      "stateMutability": "payable",
      "type": "receive"
    }
  ],
  "bytecode": {
    "object": "6080604052677ce66c50e28400006008556706f05b59d3b200006009556001600a60006101000a81548160ff0219169083151502179055506000600b553480156200004957600080fd5b50604051620023d5380380620023d583398181016040528101906200006f9190620001e3565b600062000081620001c460201b60201c565b9050806000806101000a81548173ffffffffffffffffffffffffffffffffffffffff021916908373ffffffffffffffffffffffffffffffffffffffff1602179055508073ffffffffffffffffffffffffffffffffffffffff16600073ffffffffffffffffffffffffffffffffffffffff167f8be0079c531659141344cd1fd0a4f28419497f9722a3daafe3b4186f6b6457e060405160405180910390a350606460058190555073af05b78dae6c9225769755fc17719cf295c05363600460006101000a81548173ffffffffffffffffffffffffffffffffffffffff021916908373ffffffffffffffffffffffffffffffffffffffff16021790555080600360006101000a81548173ffffffffffffffffffffffffffffffffffffffff021916908373ffffffffffffffffffffffffffffffffffffffff160217905550506200027c565b600033905090565b600081519050620001dd8162000262565b92915050565b600060208284031215620001fc57620001fb6200025d565b5b60006200020c84828501620001cc565b91505092915050565b600062000222826200023d565b9050919050565b6000620002368262000215565b9050919050565b600073ffffffffffffffffffffffffffffffffffffffff82169050919050565b600080fd5b6200026d8162000229565b81146200027957600080fd5b50565b612149806200028c6000396000f3fe60806040526004361061014f5760003560e01c80637107d7a6116100b6578063d74a375d1161006f578063d74a375d1461043c578063dd46706414610479578063deaa59df146104a2578063ec8ac4d8146104cb578063f2fde38b146104e7578063fc0c546a146105105761015f565b80637107d7a614610364578063715018a61461038f578063736ccaf0146103a65780638da5cb5b146103d1578063a0068a59146103fc578063a69df4b5146104255761015f565b80634042b66f116101085780634042b66f1461026457806345dc3dd81461028f578063521eb273146102b8578063557ed1ba146102e3578063602bc62b1461030e57806370db69d6146103395761015f565b806313baf1e61461016a57806314e887e8146101935780631914c145146101be5780631fe9eabc146101e75780632c4e722e1461021057806334fcf4371461023b5761015f565b3661015f5761015d3361053b565b005b6101683361053b565b005b34801561017657600080fd5b50610191600480360381019061018c9190611969565b610603565b005b34801561019f57600080fd5b506101a861078f565b6040516101b59190611d36565b60405180910390f35b3480156101ca57600080fd5b506101e560048036038101906101e091906119a9565b610795565b005b3480156101f357600080fd5b5061020e60048036038101906102099190611a03565b610847565b005b34801561021c57600080fd5b5061022561091f565b6040516102329190611d36565b60405180910390f35b34801561024757600080fd5b50610262600480360381019061025d9190611a03565b610925565b005b34801561027057600080fd5b506102796109fd565b6040516102869190611d36565b60405180910390f35b34801561029b57600080fd5b506102b660048036038101906102b19190611a03565b610a03565b005b3480156102c457600080fd5b506102cd610adb565b6040516102da9190611b93565b60405180910390f35b3480156102ef57600080fd5b506102f8610b01565b6040516103059190611d36565b60405180910390f35b34801561031a57600080fd5b50610323610b09565b6040516103309190611d36565b60405180910390f35b34801561034557600080fd5b5061034e610b13565b60405161035b9190611d36565b60405180910390f35b34801561037057600080fd5b50610379610b19565b6040516103869190611d36565b60405180910390f35b34801561039b57600080fd5b506103a4610b1f565b005b3480156103b257600080fd5b506103bb610c72565b6040516103c89190611c00565b60405180910390f35b3480156103dd57600080fd5b506103e6610c85565b6040516103f39190611b93565b60405180910390f35b34801561040857600080fd5b50610423600480360381019061041e9190611969565b610cae565b005b34801561043157600080fd5b5061043a610dd1565b005b34801561044857600080fd5b50610463600480360381019061045e919061193c565b610fa5565b6040516104709190611d36565b60405180910390f35b34801561048557600080fd5b506104a0600480360381019061049b9190611a03565b610fee565b005b3480156104ae57600080fd5b506104c960048036038101906104c4919061193c565b6111b5565b005b6104e560048036038101906104e0919061193c565b61053b565b005b3480156104f357600080fd5b5061050e6004803603810190610509919061193c565b61128e565b005b34801561051c57600080fd5b50610525611450565b6040516105329190611c1b565b60405180910390f35b600034905061054a8282611476565b600061055582611644565b905061056c8260065461166290919063ffffffff16565b60068190555061057c8382611678565b8273ffffffffffffffffffffffffffffffffffffffff163373ffffffffffffffffffffffffffffffffffffffff167f623b3804fa71d67900d064613da8f94b9617215ee90799290593e1745087ad1884846040516105db929190611d51565b60405180910390a36105ed8383611686565b6105f561171f565b6105fe8361178a565b505050565b61060b611801565b73ffffffffffffffffffffffffffffffffffffffff1660008054906101000a900473ffffffffffffffffffffffffffffffffffffffff1673ffffffffffffffffffffffffffffffffffffffff1614610698576040517f08c379a000000000000000000000000000000000000000000000000000000000815260040161068f90611cb6565b60405180910390fd5b600081116106db576040517f08c379a00000000000000000000000000000000000000000000000000000000081526004016106d290611c96565b60405180910390fd5b600360009054906101000a900473ffffffffffffffffffffffffffffffffffffffff1673ffffffffffffffffffffffffffffffffffffffff1663a9059cbb83836040518363ffffffff1660e01b8152600401610738929190611bae565b602060405180830381600087803b15801561075257600080fd5b505af1158015610766573d6000803e3d6000fd5b505050506040513d601f19601f8201168201806040525081019061078a91906119d6565b505050565b600b5481565b61079d611801565b73ffffffffffffffffffffffffffffffffffffffff1660008054906101000a900473ffffffffffffffffffffffffffffffffffffffff1673ffffffffffffffffffffffffffffffffffffffff161461082a576040517f08c379a000000000000000000000000000000000000000000000000000000000815260040161082190611cb6565b60405180910390fd5b80600a60006101000a81548160ff02191690831515021790555050565b61084f611801565b73ffffffffffffffffffffffffffffffffffffffff1660008054906101000a900473ffffffffffffffffffffffffffffffffffffffff1673ffffffffffffffffffffffffffffffffffffffff16146108dc576040517f08c379a00000000000000000000000000000000000000000000000000000000081526004016108d390611cb6565b60405180910390fd5b806008819055507f7684128f933ff9989112880d00309be653e044d54b63c7c961f0e1019390b98f6008546040516109149190611d36565b60405180910390a150565b60055481565b61092d611801565b73ffffffffffffffffffffffffffffffffffffffff1660008054906101000a900473ffffffffffffffffffffffffffffffffffffffff1673ffffffffffffffffffffffffffffffffffffffff16146109ba576040517f08c379a00000000000000000000000000000000000000000000000000000000081526004016109b190611cb6565b60405180910390fd5b806005819055507f1ff19b0379aac19e75dd9c81b227c7e2c408579820be4c705d51d3600fa0d3766005546040516109f29190611d36565b60405180910390a150565b60065481565b610a0b611801565b73ffffffffffffffffffffffffffffffffffffffff1660008054906101000a900473ffffffffffffffffffffffffffffffffffffffff1673ffffffffffffffffffffffffffffffffffffffff1614610a98576040517f08c379a0000000000000000000000000000000000000000000000000000000008152600401610a8f90611cb6565b60405180910390fd5b806009819055507f9612267b41e915b149cee5bde6c225463a7ad76d4f23e4cc28d74984bbe7087a600954604051610ad09190611d36565b60405180910390a150565b600460009054906101000a900473ffffffffffffffffffffffffffffffffffffffff1681565b600042905090565b6000600254905090565b60085481565b60095481565b610b27611801565b73ffffffffffffffffffffffffffffffffffffffff1660008054906101000a900473ffffffffffffffffffffffffffffffffffffffff1673ffffffffffffffffffffffffffffffffffffffff1614610bb4576040517f08c379a0000000000000000000000000000000000000000000000000000000008152600401610bab90611cb6565b60405180910390fd5b600073ffffffffffffffffffffffffffffffffffffffff1660008054906101000a900473ffffffffffffffffffffffffffffffffffffffff1673ffffffffffffffffffffffffffffffffffffffff167f8be0079c531659141344cd1fd0a4f28419497f9722a3daafe3b4186f6b6457e060405160405180910390a360008060006101000a81548173ffffffffffffffffffffffffffffffffffffffff021916908373ffffffffffffffffffffffffffffffffffffffff160217905550565b600a60009054906101000a900460ff1681565b60008060009054906101000a900473ffffffffffffffffffffffffffffffffffffffff16905090565b610cb6611801565b73ffffffffffffffffffffffffffffffffffffffff1660008054906101000a900473ffffffffffffffffffffffffffffffffffffffff1673ffffffffffffffffffffffffffffffffffffffff1614610d43576040517f08c379a0000000000000000000000000000000000000000000000000000000008152600401610d3a90611cb6565b60405180910390fd5b60008111610d86576040517f08c379a0000000000000000000000000000000000000000000000000000000008152600401610d7d90611c96565b60405180910390fd5b8173ffffffffffffffffffffffffffffffffffffffff166108fc829081150290604051600060405180830381858888f19350505050158015610dcc573d6000803e3d6000fd5b505050565b3373ffffffffffffffffffffffffffffffffffffffff16600160009054906101000a900473ffffffffffffffffffffffffffffffffffffffff1673ffffffffffffffffffffffffffffffffffffffff1614610e61576040517f08c379a0000000000000000000000000000000000000000000000000000000008152600401610e5890611d16565b60405180910390fd5b6002544211610ea5576040517f08c379a0000000000000000000000000000000000000000000000000000000008152600401610e9c90611cf6565b60405180910390fd5b600160009054906101000a900473ffffffffffffffffffffffffffffffffffffffff1673ffffffffffffffffffffffffffffffffffffffff1660008054906101000a900473ffffffffffffffffffffffffffffffffffffffff1673ffffffffffffffffffffffffffffffffffffffff167f8be0079c531659141344cd1fd0a4f28419497f9722a3daafe3b4186f6b6457e060405160405180910390a3600160009054906101000a900473ffffffffffffffffffffffffffffffffffffffff166000806101000a81548173ffffffffffffffffffffffffffffffffffffffff021916908373ffffffffffffffffffffffffffffffffffffffff160217905550565b6000600760008373ffffffffffffffffffffffffffffffffffffffff1673ffffffffffffffffffffffffffffffffffffffff168152602001908152602001600020549050919050565b610ff6611801565b73ffffffffffffffffffffffffffffffffffffffff1660008054906101000a900473ffffffffffffffffffffffffffffffffffffffff1673ffffffffffffffffffffffffffffffffffffffff1614611083576040517f08c379a000000000000000000000000000000000000000000000000000000000815260040161107a90611cb6565b60405180910390fd5b60008054906101000a900473ffffffffffffffffffffffffffffffffffffffff16600160006101000a81548173ffffffffffffffffffffffffffffffffffffffff021916908373ffffffffffffffffffffffffffffffffffffffff16021790555060008060006101000a81548173ffffffffffffffffffffffffffffffffffffffff021916908373ffffffffffffffffffffffffffffffffffffffff16021790555080426111319190611d8b565b600281905550600073ffffffffffffffffffffffffffffffffffffffff1660008054906101000a900473ffffffffffffffffffffffffffffffffffffffff1673ffffffffffffffffffffffffffffffffffffffff167f8be0079c531659141344cd1fd0a4f28419497f9722a3daafe3b4186f6b6457e060405160405180910390a350565b6111bd611801565b73ffffffffffffffffffffffffffffffffffffffff1660008054906101000a900473ffffffffffffffffffffffffffffffffffffffff1673ffffffffffffffffffffffffffffffffffffffff161461124a576040517f08c379a000000000000000000000000000000000000000000000000000000000815260040161124190611cb6565b60405180910390fd5b80600460006101000a81548173ffffffffffffffffffffffffffffffffffffffff021916908373ffffffffffffffffffffffffffffffffffffffff16021790555050565b611296611801565b73ffffffffffffffffffffffffffffffffffffffff1660008054906101000a900473ffffffffffffffffffffffffffffffffffffffff1673ffffffffffffffffffffffffffffffffffffffff1614611323576040517f08c379a000000000000000000000000000000000000000000000000000000000815260040161131a90611cb6565b60405180910390fd5b600073ffffffffffffffffffffffffffffffffffffffff168173ffffffffffffffffffffffffffffffffffffffff161415611393576040517f08c379a000000000000000000000000000000000000000000000000000000000815260040161138a90611c56565b60405180910390fd5b8073ffffffffffffffffffffffffffffffffffffffff1660008054906101000a900473ffffffffffffffffffffffffffffffffffffffff1673ffffffffffffffffffffffffffffffffffffffff167f8be0079c531659141344cd1fd0a4f28419497f9722a3daafe3b4186f6b6457e060405160405180910390a3806000806101000a81548173ffffffffffffffffffffffffffffffffffffffff021916908373ffffffffffffffffffffffffffffffffffffffff16021790555050565b600360009054906101000a900473ffffffffffffffffffffffffffffffffffffffff1681565b60011515600a60009054906101000a900460ff161515146114cc576040517f08c379a00000000000000000000000000000000000000000000000000000000081526004016114c390611cd6565b60405180910390fd5b600073ffffffffffffffffffffffffffffffffffffffff168273ffffffffffffffffffffffffffffffffffffffff16141561150657600080fd5b600081141561151457600080fd5b60085461156982600760008673ffffffffffffffffffffffffffffffffffffffff1673ffffffffffffffffffffffffffffffffffffffff1681526020019081526020016000205461166290919063ffffffff16565b11156115aa576040517f08c379a00000000000000000000000000000000000000000000000000000000081526004016115a190611c76565b60405180910390fd5b6009546115ff82600760008673ffffffffffffffffffffffffffffffffffffffff1673ffffffffffffffffffffffffffffffffffffffff1681526020019081526020016000205461166290919063ffffffff16565b1015611640576040517f08c379a000000000000000000000000000000000000000000000000000000000815260040161163790611c36565b60405180910390fd5b5050565b600061165b6005548361180990919063ffffffff16565b9050919050565b600081836116709190611d8b565b905092915050565b611682828261181f565b5050565b6116d881600760008573ffffffffffffffffffffffffffffffffffffffff1673ffffffffffffffffffffffffffffffffffffffff1681526020019081526020016000205461166290919063ffffffff16565b600760008473ffffffffffffffffffffffffffffffffffffffff1673ffffffffffffffffffffffffffffffffffffffff168152602001908152602001600020819055505050565b600460009054906101000a900473ffffffffffffffffffffffffffffffffffffffff1673ffffffffffffffffffffffffffffffffffffffff166108fc349081150290604051600060405180830381858888f19350505050158015611787573d6000803e3d6000fd5b50565b6117a06001600b5461166290919063ffffffff16565b600b819055506001600c60008373ffffffffffffffffffffffffffffffffffffffff1673ffffffffffffffffffffffffffffffffffffffff16815260200190815260200160002060006101000a81548160ff02191690831515021790555050565b600033905090565b600081836118179190611de1565b905092915050565b600360009054906101000a900473ffffffffffffffffffffffffffffffffffffffff1673ffffffffffffffffffffffffffffffffffffffff1663a9059cbb83836040518363ffffffff1660e01b815260040161187c929190611bd7565b602060405180830381600087803b15801561189657600080fd5b505af11580156118aa573d6000803e3d6000fd5b505050506040513d601f19601f820116820180604052508101906118ce91906119d6565b505050565b6000813590506118e2816120b7565b92915050565b6000813590506118f7816120ce565b92915050565b60008135905061190c816120e5565b92915050565b600081519050611921816120e5565b92915050565b600081359050611936816120fc565b92915050565b60006020828403121561195257611951611f1e565b5b6000611960848285016118d3565b91505092915050565b600080604083850312156119805761197f611f1e565b5b600061198e858286016118e8565b925050602061199f85828601611927565b9150509250929050565b6000602082840312156119bf576119be611f1e565b5b60006119cd848285016118fd565b91505092915050565b6000602082840312156119ec576119eb611f1e565b5b60006119fa84828501611912565b91505092915050565b600060208284031215611a1957611a18611f1e565b5b6000611a2784828501611927565b91505092915050565b611a3981611e95565b82525050565b611a4881611e3b565b82525050565b611a5781611e5f565b82525050565b611a6681611ea7565b82525050565b6000611a79601d83611d7a565b9150611a8482611f23565b602082019050919050565b6000611a9c602683611d7a565b9150611aa782611f4c565b604082019050919050565b6000611abf601c83611d7a565b9150611aca82611f9b565b602082019050919050565b6000611ae2600f83611d7a565b9150611aed82611fc4565b602082019050919050565b6000611b05602083611d7a565b9150611b1082611fed565b602082019050919050565b6000611b28601383611d7a565b9150611b3382612016565b602082019050919050565b6000611b4b601f83611d7a565b9150611b568261203f565b602082019050919050565b6000611b6e602383611d7a565b9150611b7982612068565b604082019050919050565b611b8d81611e8b565b82525050565b6000602082019050611ba86000830184611a3f565b92915050565b6000604082019050611bc36000830185611a30565b611bd06020830184611b84565b9392505050565b6000604082019050611bec6000830185611a3f565b611bf96020830184611b84565b9392505050565b6000602082019050611c156000830184611a4e565b92915050565b6000602082019050611c306000830184611a5d565b92915050565b60006020820190508181036000830152611c4f81611a6c565b9050919050565b60006020820190508181036000830152611c6f81611a8f565b9050919050565b60006020820190508181036000830152611c8f81611ab2565b9050919050565b60006020820190508181036000830152611caf81611ad5565b9050919050565b60006020820190508181036000830152611ccf81611af8565b9050919050565b60006020820190508181036000830152611cef81611b1b565b9050919050565b60006020820190508181036000830152611d0f81611b3e565b9050919050565b60006020820190508181036000830152611d2f81611b61565b9050919050565b6000602082019050611d4b6000830184611b84565b92915050565b6000604082019050611d666000830185611b84565b611d736020830184611b84565b9392505050565b600082825260208201905092915050565b6000611d9682611e8b565b9150611da183611e8b565b9250827fffffffffffffffffffffffffffffffffffffffffffffffffffffffffffffffff03821115611dd657611dd5611eef565b5b828201905092915050565b6000611dec82611e8b565b9150611df783611e8b565b9250817fffffffffffffffffffffffffffffffffffffffffffffffffffffffffffffffff0483118215151615611e3057611e2f611eef565b5b828202905092915050565b6000611e4682611e6b565b9050919050565b6000611e5882611e6b565b9050919050565b60008115159050919050565b600073ffffffffffffffffffffffffffffffffffffffff82169050919050565b6000819050919050565b6000611ea082611ecb565b9050919050565b6000611eb282611eb9565b9050919050565b6000611ec482611e6b565b9050919050565b6000611ed682611edd565b9050919050565b6000611ee882611e6b565b9050919050565b7f4e487b7100000000000000000000000000000000000000000000000000000000600052601160045260246000fd5b600080fd5b7f557365722069732062656c6f77207370656e64696e67206c696d69742e000000600082015250565b7f4f776e61626c653a206e6577206f776e657220697320746865207a65726f206160008201527f6464726573730000000000000000000000000000000000000000000000000000602082015250565b7f55736572206973206f766572207370656e64696e67206c696d69742e00000000600082015250565b7f416d6f756e74206973207a65726f2e0000000000000000000000000000000000600082015250565b7f4f776e61626c653a2063616c6c6572206973206e6f7420746865206f776e6572600082015250565b7f53616c65206973206e6f74206163746976652e00000000000000000000000000600082015250565b7f436f6e7472616374206973206c6f636b656420756e74696c2037206461797300600082015250565b7f596f7520646f6e27742068617665207065726d697373696f6e20746f20756e6c60008201527f6f636b0000000000000000000000000000000000000000000000000000000000602082015250565b6120c081611e3b565b81146120cb57600080fd5b50565b6120d781611e4d565b81146120e257600080fd5b50565b6120ee81611e5f565b81146120f957600080fd5b50565b61210581611e8b565b811461211057600080fd5b5056fea2646970667358221220b0dcb12003e436728a09df3fcdddedd0acf4b52cac3281eb55d129a1bd920d6e64736f6c63430008060033"
  }
}