{"compiler":"v0.8.7+commit.e28d00a7","opcodeHash":"0xcfccd029c204831a1f2f0f3849089b70ec472a38249f9886358bdd0dfa454e87","metalessHash":"0x89fb7ea4e4f698d6675339c392b0f78702e2a514d782fddd27365b449e4a85de","runtimeHash":"0x0d7dd17a76fb1d9f959021f2ec92202c26253784bf74c2bad86b4dc1a1105b2a","encodedMetadata":[{"ipfs":"/ipfs/QmQLZaiKeUPnB6rHaKE3E28MVrvtaB7m11YbVVRccwZCGM","solc":"0.8.7"}],"abi":[{"inputs":[{"internalType":"address","name":"target","type":"address"}],"name":"createClone","outputs":[{"internalType":"address","name":"result","type":"address"}],"stateMutability":"nonpayable","type":"function"}],"bytecode":{"object":"608060405234801561001057600080fd5b506101ba806100206000396000f3fe608060405234801561001057600080fd5b506004361061002b5760003560e01c806357894c1b14610030575b600080fd5b61004a600480360381019061004591906100df565b610060565b604051610057919061011b565b60405180910390f35b6000808260601b90506040517f3d602d80600a3d3981f3363d3d373d3d3d363d7300000000000000000000000081528160148201527f5af43d82803e903d91602b57fd5bf3000000000000000000000000000000000060288201526037816000f092505050919050565b6000813590506100d98161016d565b92915050565b6000602082840312156100f5576100f4610168565b5b6000610103848285016100ca565b91505092915050565b61011581610136565b82525050565b6000602082019050610130600083018461010c565b92915050565b600061014182610148565b9050919050565b600073ffffffffffffffffffffffffffffffffffffffff82169050919050565b600080fd5b61017681610136565b811461018157600080fd5b5056fea264697066735822122056ff87a7d15af89c39e1f51185086410776bcafbb5c968615d7d45874909474c64736f6c63430008070033"}}