{"compiler":"v0.6.12+commit.27d51765","opcodeHash":"0xde226155cba8dee80c18ca06a0e4900d73629a788147c714cadb228b368749ee","metalessHash":"0x11ab5a10d4929766f6182a5e35930e82b8ebcb42a069e8dedd5f6b17eb6fb8ae","runtimeHash":"0xa9c65b2b03118c96697849391a9f30f8ccd3503aa81f385f2d5a78901e85b2e1","encodedMetadata":[{"ipfs":"/ipfs/QmezbJqMuqTndagmFJ4AmhZPeNPmYApoJqBXDHmSwy6HMe","solc":"0.6.12"}],"abi":[{"inputs":[],"name":"DAI_ADDRESS","outputs":[{"internalType":"address","name":"","type":"address"}],"stateMutability":"view","type":"function"},{"inputs":[],"name":"DAI_JOIN","outputs":[{"internalType":"address","name":"","type":"address"}],"stateMutability":"view","type":"function"},{"inputs":[],"name":"VAT_ADDRESS","outputs":[{"internalType":"address","name":"","type":"address"}],"stateMutability":"view","type":"function"},{"inputs":[{"internalType":"uint256","name":"_bidId","type":"uint256"},{"internalType":"address","name":"_flipper","type":"address"},{"internalType":"address","name":"_joinAddr","type":"address"}],"name":"closeBid","outputs":[],"stateMutability":"nonpayable","type":"function"},{"inputs":[{"internalType":"uint256","name":"_bidId","type":"uint256"},{"internalType":"uint256","name":"_amount","type":"uint256"},{"internalType":"address","name":"_flipper","type":"address"}],"name":"collateralBid","outputs":[],"stateMutability":"nonpayable","type":"function"},{"inputs":[{"internalType":"uint256","name":"_bidId","type":"uint256"},{"internalType":"uint256","name":"_amount","type":"uint256"},{"internalType":"address","name":"_flipper","type":"address"}],"name":"daiBid","outputs":[],"stateMutability":"nonpayable","type":"function"},{"inputs":[{"internalType":"address","name":"_joinAddr","type":"address"}],"name":"exitCollateral","outputs":[],"stateMutability":"nonpayable","type":"function"},{"inputs":[],"name":"exitDai","outputs":[],"stateMutability":"nonpayable","type":"function"},{"inputs":[],"name":"withdrawEth","outputs":[],"stateMutability":"nonpayable","type":"function"},{"inputs":[{"internalType":"address","name":"_token","type":"address"}],"name":"withdrawToken","outputs":[],"stateMutability":"nonpayable","type":"function"}],"bytecode":{"object":"608060405234801561001057600080fd5b50610f04806100206000396000f3fe608060405234801561001057600080fd5b506004361061009e5760003560e01c80638947606911610066578063894760691461013d578063a0ef91df14610163578063b7f85d0f1461016b578063cf786f8f14610191578063f1ace953146101995761009e565b806302fc0139146100a35780632873e0d2146100c75780632a4c0a1a146100fb5780634ef39c701461010357806364f8724c1461010b575b600080fd5b6100ab6101cd565b604080516001600160a01b039092168252519081900360200190f35b6100f9600480360360608110156100dd57600080fd5b50803590602081013590604001356001600160a01b03166101e5565b005b6100ab610362565b6100f961037a565b6100f96004803603606081101561012157600080fd5b50803590602081013590604001356001600160a01b0316610515565b6100f96004803603602081101561015357600080fd5b50356001600160a01b031661068b565b6100f9610789565b6100f96004803603602081101561018157600080fd5b50356001600160a01b03166107bc565b6100ab610a79565b6100f9600480360360608110156101af57600080fd5b508035906001600160a01b0360208201358116916040013516610a91565b739759a6ac90977b93b58547b4a71c78317f391a2881565b6b033b2e3c9fd0803ce800000082026101fd83610ca9565b6000826001600160a01b0316634423c5f1866040518263ffffffff1660e01b81526004018082815260200191505061010060405180830381600087803b15801561024657600080fd5b505af115801561025a573d6000803e3d6000fd5b505050506040513d61010081101561027157600080fd5b5060200151604080516328ec8bf160e21b81526001600160a01b038616600482015290519192507335d1b3f3d7966a1dfe207aa4514c12a259a0492b9163a3b22fc49160248082019260009290919082900301818387803b1580156102d557600080fd5b505af11580156102e9573d6000803e3d6000fd5b50505050826001600160a01b0316634b43ed128683856040518463ffffffff1660e01b8152600401808481526020018381526020018281526020019350505050600060405180830381600087803b15801561034357600080fd5b505af1158015610357573d6000803e3d6000fd5b505050505050505050565b736b175474e89094c44da98b954eedeac495271d0f81565b60408051633612d9a360e11b815230600482015290516000916b033b2e3c9fd0803ce8000000917335d1b3f3d7966a1dfe207aa4514c12a259a0492b91636c25b346916024808301926020929190829003018186803b1580156103dc57600080fd5b505afa1580156103f0573d6000803e3d6000fd5b505050506040513d602081101561040657600080fd5b50518161040f57fe5b0490507335d1b3f3d7966a1dfe207aa4514c12a259a0492b6001600160a01b031663a3b22fc4739759a6ac90977b93b58547b4a71c78317f391a286040518263ffffffff1660e01b815260040180826001600160a01b03168152602001915050600060405180830381600087803b15801561048957600080fd5b505af115801561049d573d6000803e3d6000fd5b50506040805163ef693bed60e01b8152336004820152602481018590529051739759a6ac90977b93b58547b4a71c78317f391a28935063ef693bed9250604480830192600092919082900301818387803b1580156104fa57600080fd5b505af115801561050e573d6000803e3d6000fd5b5050505050565b6000816001600160a01b0316634423c5f1856040518263ffffffff1660e01b81526004018082815260200191505061010060405180830381600087803b15801561055e57600080fd5b505af1158015610572573d6000803e3d6000fd5b505050506040513d61010081101561058957600080fd5b505190506105a46b033b2e3c9fd0803ce80000008204610ca9565b604080516328ec8bf160e21b81526001600160a01b038416600482015290517335d1b3f3d7966a1dfe207aa4514c12a259a0492b9163a3b22fc491602480830192600092919082900301818387803b1580156105ff57600080fd5b505af1158015610613573d6000803e3d6000fd5b50505050816001600160a01b0316635ff3a3828585846040518463ffffffff1660e01b8152600401808481526020018381526020018281526020019350505050600060405180830381600087803b15801561066d57600080fd5b505af1158015610681573d6000803e3d6000fd5b5050505050505050565b6000816001600160a01b03166370a08231306040518263ffffffff1660e01b815260040180826001600160a01b0316815260200191505060206040518083038186803b1580156106da57600080fd5b505afa1580156106ee573d6000803e3d6000fd5b505050506040513d602081101561070457600080fd5b50516040805163a9059cbb60e01b81523360048201526024810183905290519192506001600160a01b0384169163a9059cbb916044808201926020929091908290030181600087803b15801561075957600080fd5b505af115801561076d573d6000803e3d6000fd5b505050506040513d602081101561078357600080fd5b50505050565b6040514790339082156108fc029083906000818181858888f193505050501580156107b8573d6000803e3d6000fd5b5050565b6000816001600160a01b031663c5ce281e6040518163ffffffff1660e01b815260040160206040518083038186803b1580156107f757600080fd5b505afa15801561080b573d6000803e3d6000fd5b505050506040513d602081101561082157600080fd5b50516040805163214414d560e01b81526004810183905230602482015290519192506000917335d1b3f3d7966a1dfe207aa4514c12a259a0492b9163214414d5916044808301926020929190829003018186803b15801561088157600080fd5b505afa158015610895573d6000803e3d6000fd5b505050506040513d60208110156108ab57600080fd5b5051604080516359de7d4160e11b815290519192506001600160a01b0385169163b3bcfa8291600480820192602092909190829003018186803b1580156108f157600080fd5b505afa158015610905573d6000803e3d6000fd5b505050506040513d602081101561091b57600080fd5b505160121461099b57826001600160a01b031663b3bcfa826040518163ffffffff1660e01b815260040160206040518083038186803b15801561095d57600080fd5b505afa158015610971573d6000803e3d6000fd5b505050506040513d602081101561098757600080fd5b5051601203600a0a818161099757fe5b0490505b604080516328ec8bf160e21b81526001600160a01b038516600482015290517335d1b3f3d7966a1dfe207aa4514c12a259a0492b9163a3b22fc491602480830192600092919082900301818387803b1580156109f657600080fd5b505af1158015610a0a573d6000803e3d6000fd5b50506040805163ef693bed60e01b81523360048201526024810185905290516001600160a01b038716935063ef693bed9250604480830192600092919082900301818387803b158015610a5c57600080fd5b505af1158015610a70573d6000803e3d6000fd5b50505050505050565b7335d1b3f3d7966a1dfe207aa4514c12a259a0492b81565b6000816001600160a01b031663c5ce281e6040518163ffffffff1660e01b815260040160206040518083038186803b158015610acc57600080fd5b505afa158015610ae0573d6000803e3d6000fd5b505050506040513d6020811015610af657600080fd5b50516040805163c959c42b60e01b81526004810187905290519192506001600160a01b0385169163c959c42b9160248082019260009290919082900301818387803b158015610b4457600080fd5b505af1158015610b58573d6000803e3d6000fd5b50506040805163214414d560e01b8152600481018590523060248201529051600093507335d1b3f3d7966a1dfe207aa4514c12a259a0492b925063214414d591604480820192602092909190829003018186803b158015610bb857600080fd5b505afa158015610bcc573d6000803e3d6000fd5b505050506040513d6020811015610be257600080fd5b5051604080516328ec8bf160e21b81526001600160a01b038616600482015290519192507335d1b3f3d7966a1dfe207aa4514c12a259a0492b9163a3b22fc49160248082019260009290919082900301818387803b158015610c4357600080fd5b505af1158015610c57573d6000803e3d6000fd5b50506040805163ef693bed60e01b81523360048201526024810185905290516001600160a01b038716935063ef693bed9250604480830192600092919082900301818387803b15801561034357600080fd5b60408051633612d9a360e11b815230600482015290516000916b033b2e3c9fd0803ce8000000917335d1b3f3d7966a1dfe207aa4514c12a259a0492b91636c25b346916024808301926020929190829003018186803b158015610d0b57600080fd5b505afa158015610d1f573d6000803e3d6000fd5b505050506040513d6020811015610d3557600080fd5b505181610d3e57fe5b049050808211156107b857604080516323b872dd60e01b8152336004820152306024820152600183850301604482018190529151736b175474e89094c44da98b954eedeac495271d0f916323b872dd9160648083019260209291908290030181600087803b158015610daf57600080fd5b505af1158015610dc3573d6000803e3d6000fd5b505050506040513d6020811015610dd957600080fd5b50506040805163095ea7b360e01b8152739759a6ac90977b93b58547b4a71c78317f391a286004820152602481018390529051736b175474e89094c44da98b954eedeac495271d0f9163095ea7b39160448083019260209291908290030181600087803b158015610e4957600080fd5b505af1158015610e5d573d6000803e3d6000fd5b505050506040513d6020811015610e7357600080fd5b505060408051633b4da69f60e01b8152306004820152602481018390529051739759a6ac90977b93b58547b4a71c78317f391a2891633b4da69f91604480830192600092919082900301818387803b158015610a5c57600080fdfea26469706673582212204759ccc466b0bbf33b55f0b23c1bb0edea12a60182d9198211aec7d079b15ce664736f6c634300060c0033"}}