{"compiler":"v0.8.1+commit.df193b15","opcodeHash":"0x46c6f4b81be04e3e71b1ba9b29cd5fac7c923637c66043e5547b1a6fb47f30f9","metalessHash":"0xe3fa949ff0ddb10c8fa8a729c5eebb992c6262060eb0c11dd67bb203d0f79228","runtimeHash":"0x54253a1ff560bc8de333ba319747cbdc3a89f43fb8f0fd8acbfc3acbb77a36a9","encodedMetadata":[{"ipfs":"/ipfs/QmTwhUpYqfYKVAUxNW2gxHGEXqvL28dEyELVCcqy4R2s3n","solc":"0.8.1"},{"ipfs":"/ipfs/QmVzAM8GkhU7RZXn3ZweZxY2Dgnd5YGUsVeKeV69cFhiyd","solc":"0.8.1"}],"abi":[{"inputs":[],"stateMutability":"nonpayable","type":"constructor"},{"inputs":[{"internalType":"uint256","name":"","type":"uint256"}],"name":"_yAffiliateTokens","outputs":[{"internalType":"address","name":"","type":"address"}],"stateMutability":"view","type":"function"},{"inputs":[],"name":"acceptGovernance","outputs":[],"stateMutability":"nonpayable","type":"function"},{"inputs":[{"internalType":"string","name":"_moniker","type":"string"},{"internalType":"address","name":"_affiliate","type":"address"},{"internalType":"address","name":"_token","type":"address"}],"name":"deploy","outputs":[],"stateMutability":"nonpayable","type":"function"},{"inputs":[],"name":"governance","outputs":[{"internalType":"address","name":"","type":"address"}],"stateMutability":"view","type":"function"},{"inputs":[{"internalType":"address","name":"vault","type":"address"}],"name":"lookupAffiliateTokens","outputs":[{"internalType":"address[]","name":"","type":"address[]"}],"stateMutability":"view","type":"function"},{"inputs":[{"internalType":"address","name":"vault","type":"address"},{"internalType":"address","name":"affiliate","type":"address"}],"name":"lookupAffiliateVault","outputs":[{"internalType":"address[]","name":"","type":"address[]"}],"stateMutability":"view","type":"function"},{"inputs":[],"name":"pendingGovernance","outputs":[{"internalType":"address","name":"","type":"address"}],"stateMutability":"view","type":"function"},{"inputs":[],"name":"registry","outputs":[{"internalType":"contract IyRegistry","name":"","type":"address"}],"stateMutability":"view","type":"function"},{"inputs":[{"internalType":"address","name":"_gov","type":"address"}],"name":"setGovernance","outputs":[],"stateMutability":"nonpayable","type":"function"},{"inputs":[],"name":"yAffiliateTokens","outputs":[{"internalType":"address[]","name":"","type":"address[]"}],"stateMutability":"view","type":"function"},{"inputs":[{"internalType":"address","name":"token","type":"address"}],"name":"yvault","outputs":[{"internalType":"address","name":"","type":"address"}],"stateMutability":"view","type":"function"}],"bytecode":{"object":"608060405234801561001057600080fd5b50600080546001600160a01b03191633179055613b87806100326000396000f3fe60806040523480156200001157600080fd5b5060043610620000b85760003560e01c8063603dc317116200007b578063603dc317146200013f57806369d2989e14620001495780637b1039991462000160578063ab033ea9146200016a578063c97829db1462000181578063f39c38a0146200019857620000b8565b806305c7f86714620000bd5780630aff0e1114620000ec578063238efcbc14620001055780633f7ff98d146200010f5780635aa6e6751462000135575b600080fd5b620000d4620000ce3660046200077c565b620001a2565b604051620000e39190620007a2565b60405180910390f35b62000103620000fd366004620006a1565b620001cd565b005b620001036200035f565b620001266200012036600462000664565b6200039b565b604051620000e391906200084d565b620000d462000420565b620001266200042f565b620000d46200015a3660046200061f565b62000493565b620000d46200052b565b620001036200017b3660046200061f565b62000543565b62000126620001923660046200061f565b6200057d565b620000d4620005f5565b60028181548110620001b357600080fd5b6000918252602090912001546001600160a01b0316905081565b604051630e177dc760e41b815260009073e15461b18ee31b7379019dc523231c57d1cbc18c9063e177dc709062000209908590600401620007a2565b60206040518083038186803b1580156200022257600080fd5b505afa15801562000237573d6000803e3d6000fd5b505050506040513d601f19601f820116820180604052508101906200025d919062000645565b905060008060009054906101000a90046001600160a01b031685858585604051620002889062000604565b62000298959493929190620007b6565b604051809103906000f080158015620002b5573d6000803e3d6000fd5b506002805460018181019092557f405787fa12a823e0f2b7631cc41b3ba8828b3321ca811111fa75cd3aa3bb5ace0180546001600160a01b039384166001600160a01b0319918216811790925594831660008181526003602090815260408083209a90961682529889528481208054808601825590825289822001805488168417905590815260048852928320805492830181558352959091200180549092169093179055505050565b6001546001600160a01b031633146200037757600080fd5b600154600080546001600160a01b0319166001600160a01b03909216919091179055565b6001600160a01b0380831660009081526003602090815260408083209385168352928152908290208054835181840281018401909452808452606093928301828280156200041357602002820191906000526020600020905b81546001600160a01b03168152600190910190602001808311620003f4575b5050505050905092915050565b6000546001600160a01b031681565b606060028054806020026020016040519081016040528092919081815260200182805480156200048957602002820191906000526020600020905b81546001600160a01b031681526001909101906020018083116200046a575b5050505050905090565b604051630e177dc760e41b815260009073e15461b18ee31b7379019dc523231c57d1cbc18c9063e177dc7090620004cf908590600401620007a2565b60206040518083038186803b158015620004e857600080fd5b505afa158015620004fd573d6000803e3d6000fd5b505050506040513d601f19601f8201168201806040525081019062000523919062000645565b90505b919050565b73e15461b18ee31b7379019dc523231c57d1cbc18c81565b6000546001600160a01b031633146200055b57600080fd5b600180546001600160a01b0319166001600160a01b0392909216919091179055565b6001600160a01b038116600090815260046020908152604091829020805483518184028101840190945280845260609392830182828015620005e957602002820191906000526020600020905b81546001600160a01b03168152600190910190602001808311620005ca575b50505050509050919050565b6001546001600160a01b031681565b61328680620008cc83390190565b80356200052681620008b2565b60006020828403121562000631578081fd5b81356200063e81620008b2565b9392505050565b60006020828403121562000657578081fd5b81516200063e81620008b2565b6000806040838503121562000677578081fd5b82356200068481620008b2565b915060208301356200069681620008b2565b809150509250929050565b600080600060608486031215620006b6578081fd5b833567ffffffffffffffff80821115620006ce578283fd5b818601915086601f830112620006e2578283fd5b813581811115620006f757620006f76200089c565b604051601f8201601f19908116603f011681019083821181831017156200072257620007226200089c565b816040528281528960208487010111156200073b578586fd5b8260208601602083013785602084830101528097505050505050620007636020850162000612565b9150620007736040850162000612565b90509250925092565b6000602082840312156200078e578081fd5b5035919050565b6001600160a01b03169052565b6001600160a01b0391909116815260200190565b600060018060a01b0387168252602060a08184015286518060a0850152825b81811015620007f35788810183015185820160c001528201620007d5565b8181111562000805578360c083870101525b50601f01601f1916830160c0019150620008259050604083018662000795565b62000834606083018562000795565b62000843608083018462000795565b9695505050505050565b6020808252825182820181905260009190848201906040850190845b81811015620008905783516001600160a01b03168352928401929184019160010162000869565b50909695505050505050565b634e487b7160e01b600052604160045260246000fd5b6001600160a01b0381168114620008c857600080fd5b5056fe60e060405260006003553480156200001657600080fd5b5060405162003286380380620032868339810160408190526200003991620004be565b7f797cfab58fcb15f590eb8e4252d5c228ff88f94f907e119e80c4393a946e8f3560006040516200006b9190620005c8565b6040519081900390206200007e62000368565b306040516020016200009494939291906200070e565b60408051601f198184030181528282528051602090910120608052600780546001600160a01b038088166001600160a01b031992831617909255600880548a841692169190911790556001600160601b0319606086811b821660a05285901b1660c0526306fdde0360e01b835290518692918516916306fdde03916004808301926000929190829003018186803b1580156200012f57600080fd5b505afa15801562000144573d6000803e3d6000fd5b505050506040513d6000823e601f3d908101601f191682016040526200016e919081019062000571565b60405160200162000181929190620006af565b60405160208183030381529060405260009080519060200190620001a79291906200036c565b5083826001600160a01b03166395d89b416040518163ffffffff1660e01b815260040160006040518083038186803b158015620001e357600080fd5b505afa158015620001f8573d6000803e3d6000fd5b505050506040513d6000823e601f3d908101601f1916820160405262000222919081019062000571565b604051602001620002359291906200066d565b604051602081830303815290604052600190805190602001906200025b9291906200036c565b50816001600160a01b031663313ce5676040518163ffffffff1660e01b815260040160206040518083038186803b1580156200029657600080fd5b505afa158015620002ab573d6000803e3d6000fd5b505050506040513d601f19601f82011682018060405250810190620002d19190620005af565b60025560405163095ea7b360e01b81526001600160a01b0383169063095ea7b3906200030690849060001990600401620006f5565b602060405180830381600087803b1580156200032157600080fd5b505af115801562000336573d6000803e3d6000fd5b505050506040513d601f19601f820116820180604052508101906200035c919062000548565b505050505050620007c4565b4690565b8280546200037a9062000771565b90600052602060002090601f0160209004810192826200039e5760008555620003e9565b82601f10620003b957805160ff1916838001178555620003e9565b82800160010185558215620003e9579182015b82811115620003e9578251825591602001919060010190620003cc565b50620003f7929150620003fb565b5090565b5b80821115620003f75760008155600101620003fc565b80516001600160a01b03811681146200042a57600080fd5b919050565b600082601f83011262000440578081fd5b81516001600160401b03808211156200045d576200045d620007ae565b604051601f8301601f19908116603f01168101908282118183101715620004885762000488620007ae565b81604052838152866020858801011115620004a1578485fd5b620004b48460208301602089016200073e565b9695505050505050565b600080600080600060a08688031215620004d6578081fd5b620004e18662000412565b60208701519095506001600160401b03811115620004fd578182fd5b6200050b888289016200042f565b9450506200051c6040870162000412565b92506200052c6060870162000412565b91506200053c6080870162000412565b90509295509295909350565b6000602082840312156200055a578081fd5b815180151581146200056a578182fd5b9392505050565b60006020828403121562000583578081fd5b81516001600160401b0381111562000599578182fd5b620005a7848285016200042f565b949350505050565b600060208284031215620005c1578081fd5b5051919050565b8154600090819060028104600180831680620005e557607f831692505b60208084108214156200060657634e487b7160e01b87526022600452602487fd5b8180156200061d57600181146200062f576200065f565b60ff198616895284890196506200065f565b6200063a8a62000732565b885b86811015620006575781548b8201529085019083016200063c565b505084890196505b509498975050505050505050565b60008351620006818184602088016200073e565b6216bcbb60e91b9083019081528351620006a38160038401602088016200073e565b01600301949350505050565b60008351620006c38184602088016200073e565b66016bcb2b0b937160cd1b9083019081528351620006e98160078401602088016200073e565b01600701949350505050565b6001600160a01b03929092168252602082015260400190565b938452602084019290925260408301526001600160a01b0316606082015260800190565b60009081526020902090565b60005b838110156200075b57818101518382015260200162000741565b838111156200076b576000848401525b50505050565b6002810460018216806200078657607f821691505b60208210811415620007a857634e487b7160e01b600052602260045260246000fd5b50919050565b634e487b7160e01b600052604160045260246000fd5b60805160a05160601c60c05160601c61296662000920600039600081816106f6015281816108860152818161092c015281816109d101528181610a2c01528181610bdc01528181610cd501528181610d9a01528181610e5c01528181610ef701528181610f80015281816110130152818161107801528181611150015281816111f201528181611283015281816112f00152818161134b015281816113b30152818161140e01528181611469015281816114c40152818161156e015281816115eb0152818161162401528181611695015281816116ce0152818161173f015281816117c8015281816118ca0152818161192501528181611ba501528181611bde01528181611c7901528181611ce101528181611d2b01528181611da50152611f2d015260008181610d6d01528181610e2f0152818161182601528181611d050152611eeb015260008181610a8501526119ff01526129666000f3fe608060405234801561001057600080fd5b50600436106103b95760003560e01c80637ecebe00116101f4578063c3535b521161011a578063d9225258116100ad578063f39c38a01161007c578063f39c38a0146106bd578063fbfa77cf146106c5578063fc0c546a146106cd578063fc7b9c18146106d5576103b9565b8063d922525814610687578063dd62ed3e1461068f578063e63697c8146106a2578063ecf70858146106b5576103b9565b8063d2f08aba116100e9578063d2f08aba14610651578063d3406abd14610659578063d505accf14610661578063d764801314610674576103b9565b8063c3535b5214610626578063c822adda1461062e578063cea55f5714610641578063d0e30db014610649576103b9565b8063a6f7f5d611610192578063b6b55f2511610161578063b6b55f25146105e5578063bdcf36bb146105f8578063bf3759b51461060b578063c0587df514610613576103b9565b8063a6f7f5d6146105af578063a9059cbb146105b7578063ab033ea9146105ca578063b333a3aa146105dd576103b9565b806395d89b41116101ce57806395d89b411461058f57806399530b06146105975780639ec5a8941461059f578063a6d64fc0146105a7576103b9565b80637ecebe001461056c578063877887821461057f57806388a8d60214610587576103b9565b80632fea88d4116102e45780633ccfd60b116102775780635aa6e675116102465780635aa6e675146105365780636e553f651461053e57806370a082311461055157806375de290214610564576103b9565b80633ccfd60b14610509578063452a93201461051157806345e05f431461052657806346d558751461052e576103b9565b806333586b67116102b357806333586b67146104bf5780633403c2fc146104d25780633629c8de146104da57806339ebf823146104e2576103b9565b80632fea88d41461049f57806330adf81f146104a7578063313ce567146104af578063330b8b71146104b7576103b9565b80631778e29c1161035c57806323b872dd1161032b57806323b872dd1461045e57806325829410146104715780632bbb56d9146104795780632e1a7d4d1461048c576103b9565b80631778e29c1461043c57806318160ddd1461044457806320606b701461044c578063238efcbc14610454576103b9565b8063095ea7b311610398578063095ea7b314610404578063111961f814610424578063112c1f9b1461042c578063153c27c414610434576103b9565b8062f714ce146103be57806301e1d114146103e757806306fdde03146103ef575b600080fd5b6103d16103cc366004612494565b6106dd565b6040516103de91906125cd565b60405180910390f35b6103d16106f2565b6103f761078a565b6040516103de9190612628565b610417610412366004612370565b610818565b6040516103de91906125c2565b6103d1610882565b6103d16109cd565b6103d1610a28565b6103d1610a83565b6103d1610aa7565b6103d1610aad565b61045c610ad1565b005b61041761046c3660046122bb565b610b0c565b6103f7610bd8565b61045c61048736600461224b565b610c6f565b6103d161049a366004612464565b610cbd565b6103d1610cd1565b6103d1610d2c565b6103d1610d50565b61045c610d56565b6103d16104cd36600461224b565b610edd565b610417610f7c565b6103d161100f565b6104f56104f036600461224b565b61106a565b6040516103de9897969594939291906127c9565b6103d161112e565b61051961114c565b6040516103de9190612571565b6105196111df565b6105196111ee565b610519611249565b6103d161054c366004612494565b611258565b6103d161055f36600461224b565b611264565b6103d161127f565b6103d161057a36600461224b565b6112da565b6103d16112ec565b610519611347565b6103f76113a2565b6103d16113af565b61051961140a565b6103d1611465565b6103d16114c0565b6104176105c5366004612370565b61151b565b61045c6105d836600461224b565b611531565b6103f761156a565b6103d16105f3366004612464565b6115c5565b6103d161060636600461224b565b6115d1565b6103d1611620565b6103d161062136600461224b565b61167b565b6103d16116ca565b61051961063c366004612464565b611725565b6103d16117c4565b6103d161181f565b6103f76118c6565b6103d1611921565b61045c61066f3660046122fb565b61197c565b6103d161068236600461224b565b611b8b565b610519611bda565b6103d161069d366004612283565b611c35565b6103d16106b03660046124b8565b611c60565b6103d1611c75565b610519611cd0565b610519611cdf565b610519611d03565b6103d1611d27565b60006106eb83836001611d82565b9392505050565b60007f00000000000000000000000000000000000000000000000000000000000000006001600160a01b03166301e1d1146040518163ffffffff1660e01b815260040160206040518083038186803b15801561074d57600080fd5b505afa158015610761573d6000803e3d6000fd5b505050506040513d601f19601f82011682018060405250810190610785919061247c565b905090565b6000805461079790612899565b80601f01602080910402602001604051908101604052809291908181526020018280546107c390612899565b80156108105780601f106107e557610100808354040283529160200191610810565b820191906000526020600020905b8154815290600101906020018083116107f357829003601f168201915b505050505081565b3360008181526004602090815260408083206001600160a01b038716808552925280832085905551919290917f8c5be1e5ebec7d5bd14f71427d1e84f3dd0314c0f7b2291e5b200ac8c7c3b925906108719086906125cd565b60405180910390a350600192915050565b60007f00000000000000000000000000000000000000000000000000000000000000006001600160a01b03166318160ddd6040518163ffffffff1660e01b815260040160206040518083038186803b1580156108dd57600080fd5b505afa1580156108f1573d6000803e3d6000fd5b505050506040513d601f19601f82011682018060405250810190610915919061247c565b6040516370a0823160e01b81526001600160a01b037f000000000000000000000000000000000000000000000000000000000000000016906370a0823190610961903090600401612571565b60206040518083038186803b15801561097957600080fd5b505afa15801561098d573d6000803e3d6000fd5b505050506040513d601f19601f820116820180604052508101906109b1919061247c565b6109c390670de0b6b3a7640000612837565b6107859190612817565b60007f00000000000000000000000000000000000000000000000000000000000000006001600160a01b031663112c1f9b6040518163ffffffff1660e01b815260040160206040518083038186803b15801561074d57600080fd5b60007f00000000000000000000000000000000000000000000000000000000000000006001600160a01b031663153c27c46040518163ffffffff1660e01b815260040160206040518083038186803b15801561074d57600080fd5b7f000000000000000000000000000000000000000000000000000000000000000081565b60035481565b7f797cfab58fcb15f590eb8e4252d5c228ff88f94f907e119e80c4393a946e8f3581565b6009546001600160a01b03163314610ae857600080fd5b600954600880546001600160a01b0319166001600160a01b03909216919091179055565b6001600160a01b038316600081815260046020908152604080832033808552925282205491929091908214801590610b4657506000198114155b15610bc1576000610b578583612856565b6001600160a01b03808916600081815260046020908152604080832094891680845294909152908190208490555192935090917f8c5be1e5ebec7d5bd14f71427d1e84f3dd0314c0f7b2291e5b200ac8c7c3b92590610bb79085906125cd565b60405180910390a3505b610bcc868686611e30565b50600195945050505050565b60607f00000000000000000000000000000000000000000000000000000000000000006001600160a01b031663258294106040518163ffffffff1660e01b815260040160006040518083038186803b158015610c3357600080fd5b505afa158015610c47573d6000803e3d6000fd5b505050506040513d6000823e601f3d908101601f1916820160405261078591908101906123bb565b6008546001600160a01b0316331480610c9257506007546001600160a01b031633145b610c9b57600080fd5b600780546001600160a01b0319166001600160a01b0392909216919091179055565b6000610ccb82336001611d82565b92915050565b60007f00000000000000000000000000000000000000000000000000000000000000006001600160a01b031663313ce5676040518163ffffffff1660e01b815260040160206040518083038186803b15801561074d57600080fd5b7f5fae9ec55a1e547936e0e74d606b44cd5f912f9adcd0bba561fea62d570259e981565b60025481565b60405163095ea7b360e01b81526001600160a01b037f0000000000000000000000000000000000000000000000000000000000000000169063095ea7b390610dc5907f0000000000000000000000000000000000000000000000000000000000000000906000906004016125a9565b602060405180830381600087803b158015610ddf57600080fd5b505af1158015610df3573d6000803e3d6000fd5b505050506040513d601f19601f82011682018060405250810190610e17919061239b565b5060405163095ea7b360e01b81526001600160a01b037f0000000000000000000000000000000000000000000000000000000000000000169063095ea7b390610e88907f000000000000000000000000000000000000000000000000000000000000000090600019906004016125a9565b602060405180830381600087803b158015610ea257600080fd5b505af1158015610eb6573d6000803e3d6000fd5b505050506040513d601f19601f82011682018060405250810190610eda919061239b565b50565b6040516333586b6760e01b81526000906001600160a01b037f000000000000000000000000000000000000000000000000000000000000000016906333586b6790610f2c908590600401612571565b60206040518083038186803b158015610f4457600080fd5b505afa158015610f58573d6000803e3d6000fd5b505050506040513d601f19601f82011682018060405250810190610ccb919061247c565b60007f00000000000000000000000000000000000000000000000000000000000000006001600160a01b0316633403c2fc6040518163ffffffff1660e01b815260040160206040518083038186803b158015610fd757600080fd5b505afa158015610feb573d6000803e3d6000fd5b505050506040513d601f19601f82011682018060405250810190610785919061239b565b60007f00000000000000000000000000000000000000000000000000000000000000006001600160a01b0316633629c8de6040518163ffffffff1660e01b815260040160206040518083038186803b15801561074d57600080fd5b6000806000806000806000807f00000000000000000000000000000000000000000000000000000000000000006001600160a01b03166339ebf8238a6040518263ffffffff1660e01b81526004016110c29190612571565b6101006040518083038186803b1580156110db57600080fd5b505afa1580156110ef573d6000803e3d6000fd5b505050506040513d601f19601f8201168201806040525081019061111391906124de565b97509750975097509750975097509750919395975091939597565b33600081815260056020526040812054909161078591906001611d82565b60007f00000000000000000000000000000000000000000000000000000000000000006001600160a01b031663452a93206040518163ffffffff1660e01b815260040160206040518083038186803b1580156111a757600080fd5b505afa1580156111bb573d6000803e3d6000fd5b505050506040513d601f19601f820116820180604052508101906107859190612267565b6007546001600160a01b031681565b60007f00000000000000000000000000000000000000000000000000000000000000006001600160a01b03166346d558756040518163ffffffff1660e01b815260040160206040518083038186803b1580156111a757600080fd5b6008546001600160a01b031681565b60006106eb8383611edc565b6001600160a01b031660009081526005602052604090205490565b60007f00000000000000000000000000000000000000000000000000000000000000006001600160a01b03166375de29026040518163ffffffff1660e01b815260040160206040518083038186803b15801561074d57600080fd5b60066020526000908152604090205481565b60007f00000000000000000000000000000000000000000000000000000000000000006001600160a01b031663877887826040518163ffffffff1660e01b815260040160206040518083038186803b15801561074d57600080fd5b60007f00000000000000000000000000000000000000000000000000000000000000006001600160a01b03166388a8d6026040518163ffffffff1660e01b815260040160206040518083038186803b1580156111a757600080fd5b6001805461079790612899565b60007f00000000000000000000000000000000000000000000000000000000000000006001600160a01b03166399530b066040518163ffffffff1660e01b815260040160206040518083038186803b15801561074d57600080fd5b60007f00000000000000000000000000000000000000000000000000000000000000006001600160a01b0316639ec5a8946040518163ffffffff1660e01b815260040160206040518083038186803b1580156111a757600080fd5b60007f00000000000000000000000000000000000000000000000000000000000000006001600160a01b03166318160ddd6040518163ffffffff1660e01b815260040160206040518083038186803b15801561074d57600080fd5b60007f00000000000000000000000000000000000000000000000000000000000000006001600160a01b031663a6f7f5d66040518163ffffffff1660e01b815260040160206040518083038186803b15801561074d57600080fd5b6000611528338484611e30565b50600192915050565b6008546001600160a01b0316331461154857600080fd5b600980546001600160a01b0319166001600160a01b0392909216919091179055565b60607f00000000000000000000000000000000000000000000000000000000000000006001600160a01b03166395d89b416040518163ffffffff1660e01b815260040160006040518083038186803b158015610c3357600080fd5b6000610ccb8233611edc565b60405163bdcf36bb60e01b81526000906001600160a01b037f0000000000000000000000000000000000000000000000000000000000000000169063bdcf36bb90610f2c908590600401612571565b60007f00000000000000000000000000000000000000000000000000000000000000006001600160a01b031663bf3759b56040518163ffffffff1660e01b815260040160206040518083038186803b15801561074d57600080fd5b6040516370a0823160e01b81526000906001600160a01b037f000000000000000000000000000000000000000000000000000000000000000016906370a0823190610f2c908590600401612571565b60007f00000000000000000000000000000000000000000000000000000000000000006001600160a01b031663c3535b526040518163ffffffff1660e01b815260040160206040518083038186803b15801561074d57600080fd5b60405163641156ed60e11b81526000906001600160a01b037f0000000000000000000000000000000000000000000000000000000000000000169063c822adda906117749085906004016125cd565b60206040518083038186803b15801561178c57600080fd5b505afa1580156117a0573d6000803e3d6000fd5b505050506040513d601f19601f82011682018060405250810190610ccb9190612267565b60007f00000000000000000000000000000000000000000000000000000000000000006001600160a01b031663cea55f576040518163ffffffff1660e01b815260040160206040518083038186803b15801561074d57600080fd5b60006107857f00000000000000000000000000000000000000000000000000000000000000006001600160a01b03166370a08231336040518263ffffffff1660e01b81526004016118709190612571565b60206040518083038186803b15801561188857600080fd5b505afa15801561189c573d6000803e3d6000fd5b505050506040513d601f19601f820116820180604052508101906118c0919061247c565b33611edc565b60607f00000000000000000000000000000000000000000000000000000000000000006001600160a01b03166306fdde036040518163ffffffff1660e01b815260040160006040518083038186803b158015610c3357600080fd5b60007f00000000000000000000000000000000000000000000000000000000000000006001600160a01b031663d3406abd6040518163ffffffff1660e01b815260040160206040518083038186803b15801561074d57600080fd5b6001600160a01b038716600090815260066020526040812080547f5fae9ec55a1e547936e0e74d606b44cd5f912f9adcd0bba561fea62d570259e9918a918a918a9190866119c9836128d4565b91905055896040516020016119e3969594939291906125d6565b60405160208183030381529060405280519060200120905060007f000000000000000000000000000000000000000000000000000000000000000082604051602001611a30929190612556565b604051602081830303815290604052805190602001209050600060018287878760405160008152602001604052604051611a6d949392919061260a565b6020604051602081039080840390855afa158015611a8f573d6000803e3d6000fd5b5050604051601f1901519150506001600160a01b038116611acb5760405162461bcd60e51b8152600401611ac2906126e7565b60405180910390fd5b896001600160a01b0316816001600160a01b031614611afc5760405162461bcd60e51b8152600401611ac2906126b9565b86421115611b1c5760405162461bcd60e51b8152600401611ac290612690565b6001600160a01b03808b166000818152600460209081526040808320948e1680845294909152908190208b9055517f8c5be1e5ebec7d5bd14f71427d1e84f3dd0314c0f7b2291e5b200ac8c7c3b92590611b77908c906125cd565b60405180910390a350505050505050505050565b60405163d764801360e01b81526000906001600160a01b037f0000000000000000000000000000000000000000000000000000000000000000169063d764801390610f2c908590600401612571565b60007f00000000000000000000000000000000000000000000000000000000000000006001600160a01b0316635aa6e6756040518163ffffffff1660e01b815260040160206040518083038186803b1580156111a757600080fd5b6001600160a01b03918216600090815260046020908152604080832093909416825291909152205490565b6000611c6d848484611d82565b949350505050565b60007f00000000000000000000000000000000000000000000000000000000000000006001600160a01b031663ecf708586040518163ffffffff1660e01b815260040160206040518083038186803b15801561074d57600080fd5b6009546001600160a01b031681565b7f000000000000000000000000000000000000000000000000000000000000000081565b7f000000000000000000000000000000000000000000000000000000000000000081565b60007f00000000000000000000000000000000000000000000000000000000000000006001600160a01b031663fc7b9c186040518163ffffffff1660e01b815260040160206040518083038186803b15801561074d57600080fd5b6000611d8e3385611fc2565b604051631cc6d2f960e31b81526001600160a01b037f0000000000000000000000000000000000000000000000000000000000000000169063e63697c890611dde908790879087906004016127aa565b602060405180830381600087803b158015611df857600080fd5b505af1158015611e0c573d6000803e3d6000fd5b505050506040513d601f19601f82011682018060405250810190611c6d919061247c565b6001600160a01b03831660009081526005602052604081208054839290611e58908490612856565b90915550506001600160a01b03821660009081526005602052604081208054839290611e859084906127ff565b92505081905550816001600160a01b0316836001600160a01b03167fddf252ad1be2c89b69c2b068fc378daa952ba7f163c4a11628f55a4df523b3ef83604051611ecf91906125cd565b60405180910390a3505050565b6000611f136001600160a01b037f000000000000000000000000000000000000000000000000000000000000000016333086612050565b604051636e553f6560e01b81526000906001600160a01b037f00000000000000000000000000000000000000000000000000000000000000001690636e553f6590611f649087903090600401612793565b602060405180830381600087803b158015611f7e57600080fd5b505af1158015611f92573d6000803e3d6000fd5b505050506040513d601f19601f82011682018060405250810190611fb6919061247c565b90506106eb83826120ae565b8060036000828254611fd49190612856565b90915550506001600160a01b03821660009081526005602052604081208054839290612001908490612856565b90915550506040516000906001600160a01b038416907fddf252ad1be2c89b69c2b068fc378daa952ba7f163c4a11628f55a4df523b3ef906120449085906125cd565b60405180910390a35050565b6120a8846323b872dd60e01b85858560405160240161207193929190612585565b60408051601f198184030181529190526020810180516001600160e01b03166001600160e01b031990931692909217909152612130565b50505050565b80600360008282546120c091906127ff565b90915550506001600160a01b038216600090815260056020526040812080548392906120ed9084906127ff565b90915550506040516001600160a01b038316906000907fddf252ad1be2c89b69c2b068fc378daa952ba7f163c4a11628f55a4df523b3ef906120449085906125cd565b612142826001600160a01b0316612214565b61215e5760405162461bcd60e51b8152600401611ac29061275c565b600080836001600160a01b031683604051612179919061253a565b6000604051808303816000865af19150503d80600081146121b6576040519150601f19603f3d011682016040523d82523d6000602084013e6121bb565b606091505b5091509150816121dd5760405162461bcd60e51b8152600401611ac29061265b565b8051156120a857808060200190518101906121f8919061239b565b6120a85760405162461bcd60e51b8152600401611ac290612712565b6000813f7fc5d2460186f7233c927e7db2dcc703c0e500b653ca82273b7bfad8045d85a4708115801590611c6d5750141592915050565b60006020828403121561225c578081fd5b81356106eb8161291b565b600060208284031215612278578081fd5b81516106eb8161291b565b60008060408385031215612295578081fd5b82356122a08161291b565b915060208301356122b08161291b565b809150509250929050565b6000806000606084860312156122cf578081fd5b83356122da8161291b565b925060208401356122ea8161291b565b929592945050506040919091013590565b600080600080600080600060e0888a031215612315578283fd5b87356123208161291b565b965060208801356123308161291b565b95506040880135945060608801359350608088013560ff81168114612353578384fd5b9699959850939692959460a0840135945060c09093013592915050565b60008060408385031215612382578182fd5b823561238d8161291b565b946020939093013593505050565b6000602082840312156123ac578081fd5b815180151581146106eb578182fd5b6000602082840312156123cc578081fd5b815167ffffffffffffffff808211156123e3578283fd5b818401915084601f8301126123f6578283fd5b81518181111561240857612408612905565b604051601f8201601f19908116603f0116810190838211818310171561243057612430612905565b81604052828152876020848701011115612448578586fd5b61245983602083016020880161286d565b979650505050505050565b600060208284031215612475578081fd5b5035919050565b60006020828403121561248d578081fd5b5051919050565b600080604083850312156124a6578182fd5b8235915060208301356122b08161291b565b6000806000606084860312156124cc578283fd5b8335925060208401356122ea8161291b565b600080600080600080600080610100898b0312156124fa578081fd5b505086516020880151604089015160608a015160808b015160a08c015160c08d015160e0909d0151959e949d50929b919a50985090965094509092509050565b6000825161254c81846020870161286d565b9190910192915050565b61190160f01b81526002810192909252602282015260420190565b6001600160a01b0391909116815260200190565b6001600160a01b039384168152919092166020820152604081019190915260600190565b6001600160a01b03929092168252602082015260400190565b901515815260200190565b90815260200190565b9586526001600160a01b0394851660208701529290931660408501526060840152608083019190915260a082015260c00190565b93845260ff9290921660208401526040830152606082015260800190565b600060208252825180602084015261264781604085016020870161286d565b601f01601f19169190910160400192915050565b6020808252818101527f5361666545524332303a206c6f772d6c6576656c2063616c6c206661696c6564604082015260600190565b6020808252600f908201526e1c195c9b5a5d0e88195e1c1a5c9959608a1b604082015260600190565b6020808252601490820152731c195c9b5a5d0e881d5b985d5d1a1bdc9a5e995960621b604082015260600190565b6020808252601190820152707065726d69743a207369676e617475726560781b604082015260600190565b6020808252602a908201527f5361666545524332303a204552433230206f7065726174696f6e20646964206e6040820152691bdd081cdd58d8d9595960b21b606082015260800190565b6020808252601f908201527f5361666545524332303a2063616c6c20746f206e6f6e2d636f6e747261637400604082015260600190565b9182526001600160a01b0316602082015260400190565b9283526001600160a01b03919091166020830152604082015260600190565b978852602088019690965260408701949094526060860192909252608085015260a084015260c083015260e08201526101000190565b60008219821115612812576128126128ef565b500190565b60008261283257634e487b7160e01b81526012600452602481fd5b500490565b6000816000190483118215151615612851576128516128ef565b500290565b600082821015612868576128686128ef565b500390565b60005b83811015612888578181015183820152602001612870565b838111156120a85750506000910152565b6002810460018216806128ad57607f821691505b602082108114156128ce57634e487b7160e01b600052602260045260246000fd5b50919050565b60006000198214156128e8576128e86128ef565b5060010190565b634e487b7160e01b600052601160045260246000fd5b634e487b7160e01b600052604160045260246000fd5b6001600160a01b0381168114610eda57600080fdfea26469706673582212202234b01a5ab86b120afe7b9f73184e6e97582e5d29399a7983aaca251e60df7f64736f6c63430008010033a264697066735822122078a4480e54e496a9e50263e498051619978d7e74d22b5c0fa62b95cf6f9ada5364736f6c63430008010033"}}